:020000040800F2
:100000005806002005010008D90D0008D10D000890
:10001000D50D000871010008B90F000800000000AC
:100020000000000000000000000000005D0F00085C
:100030007501000800000000310F00085F0F000884
:100040001F0100081F0100081F0100081F01000810
:100050001F0100081F0100081F0100081F01000800
:100060001F0100081F0100081F0100081F010008F0
:100070001F0100081F0100081F0100081F010008E0
:100080001F0100081F0100081F0100081F010008D0
:100090001F0100081F0100081F0100081F010008C0
:1000A0001F0100081F0100081F0100081F010008B0
:1000B0001F0100081F0100081F0100081F010008A0
:1000C0001F0100081F0100081F0100081F01000890
:1000D0001F0100081F0100081F0100081F01000880
:1000E0001F0100081F0100081F010008DFF810D0E1
:1000F00000F02CF80048004771100008AFF30080B2
:10010000580600200648804706480047FEE7FEE7FD
:10011000FEE7FEE7FEE7FEE7FEE7FEE7FEE7FEE7B7
:10012000B70F0008ED000008D2B201E000F8012B83
:10013000491EFBD270470022F6E710B513460A4667
:1001400004461946FFF7F0FF204610BD064C074D48
:1001500006E0E06840F0010394E807009847103497
:10016000AC42F6D3FFF7C6FF6018000880180008FD
:1001700000BFFEE7704772B600BFFEE700B585B06E
:100180000020019002900390049000BF2D488069E8
:1001900040F008002B4988610846806900F008009B
:1001A000009000BF00BF00BF0846806940F0040017
:1001B00088610846806900F00400009000BF00BF1D
:1001C00000224FF44051204800F0D8F900224FF4AB
:1001D00040611D4800F0D2F94FF480500190012099
:1001E0000290002003900220049001A9164800F01C
:1001F0002DF84FF40050019011200290012003903F
:100200000220049001A9104800F020F84FF480600B
:10021000019001200290002003900220049001A987
:10022000094800F013F84FF400600190112002908B
:10023000012003900220049001A9034800F006F871
:1002400005B000BD00100240000C01402DE9F84748
:100250000346002294466EE14FF0010808FA02F4CA
:10026000D1F8008008EA0400A0427DD1DFF8DCA2CA
:10027000D1F80480A8EB0A09D0453AD014DCB8F1D3
:10028000030F50D009DCB8F1000F31D0B8F1010FE5
:100290001CD0B8F1020F49D120E0B8F1110F18D0ED
:1002A000B8F1120F42D11EE0B9F5881F25D006DC47
:1002B000B9F5803F20D0B9F5801F37D11AE0B9F5E4
:1002C000001F18D0B9F5041F30D117E0D1F80CC0C9
:1002D0002DE0D1F80C8008F1040C28E0D1F80C8056
:1002E00008F1080C23E0D1F80C8008F10C0C1EE09A
:1002F00000BF00BF00BF00BF00BF00BFD1F8088033
:10030000B8F1000F02D14FF0040C0BE0D1F80880D7
:10031000B8F1010F03D14FF0080C1C6102E04FF05F
:10032000080C5C6103E04FF0000C00E000BF00BF70
:10033000FF2801D8984601E003F104084646FF284B
:1003400002D84FEA820803E0A2F108084FEA8808C1
:100350004746D6F800804FF00F0909FA07F928EA56
:1003600009080CFA07F900E088E048EA0908C6F82D
:100370000080D1F8048008F08058B8F1805F7DD10A
:1003800000BFDFF8CC81D8F8188048F00108DFF80A
:10039000C091C9F81880C846D8F8188008F001083C
:1003A000CDF8008000BF00BF4FEAB9384FEA92098C
:1003B00058F829504FEA82784FEA18794FF00F0821
:1003C00008FA09F825EA0805DFF88881434502D1D3
:1003D0004FF0000816E0DFF88081434502D14FF06E
:1003E00001080FE0DFF87481434502D14FF00208A5
:1003F00008E0DFF86C81434502D14FF0030801E0CB
:100400004FF004084FEA82794FEA197908FA09F89F
:1004100048EA0505DFF84C814FEA920948F829506F
:10042000D1F8048008F48038B8F5803F0AD1DFF8AD
:100430003881D8F8008048EA0008DFF82C91C9F824
:10044000008009E0DFF82081D8F8008028EA000861
:10045000DFF81491C9F80080D1F8048008F400385E
:10046000B8F5003F10D1DFF8008108F10408D8F892
:10047000008048EA0008DFF8F09000E05AE009F157
:100480000409C9F800800DE0DFF8DC8008F10408F9
:10049000D8F8008028EA0008DFF8CC9009F10409B8
:1004A000C9F80080D1F8048008F48018B8F5801FDE
:1004B0000ED1DFF8B48008F10808D8F8008048EAC7
:1004C0000008DFF8A49009F10809C9F800800DE0E0
:1004D000DFF8948008F10808D8F8008028EA0008BE
:1004E000DFF8849009F10809C9F80080D1F8048088
:1004F00008F40018B8F5001F0ED1DFF86C8008F181
:100500000C08D8F8008048EA0008DFF85C9009F190
:100510000C09C9F800800DE0DFF84C8008F10C08E8
:10052000D8F8008028EA0008DFF83C9009F10C09AF
:10053000C9F80080521CD1F8008028FA02F8B8F1FE
:10054000000F7FF489AEBDE8F887000000001110AD
:100550000010024000080140000C01400010014062
:100560000014014008000140000401400246936865
:100570000B400BB1012000E0002070470AB101617F
:1005800001E00B04036170470148006870470000F8
:10059000F80000200348006803490978084401492D
:1005A00008607047F80000200001002010B50848DE
:1005B000006840F0100006490860032000F098F839
:1005C0000F2000F007F800F02BF8002010BD00000D
:1005D0000020024070B504460E4800784FF47A714E
:1005E000B1FBF0F00C490968B1FBF0F5284600F0CA
:1005F000D5FB08B1012070BD102C07D20022214686
:10060000501E00F037F80548046001E00120F2E7D1
:100610000020F0E70001002004010020FC00002081
:1006200008B500BF1148806940F001000F4988619A
:100630000846806900F00100009000BF00BF00BFC5
:100640000846C06940F08050C8610846C06900F0A3
:100650008050009000BF00BF00BF0549486820F0EF
:10066000E06040F00070486000BF08BD001002402C
:10067000000001402DE9F05F80460D461646002738
:1006800000F09CFC074639462A46334601F0070035
:10069000C0F1070ABAF1040F02D94FF0040A01E0D1
:1006A000C0F1070AD14600F1040ABAF1070F02D2DD
:1006B0004FF0000A01E0A0F1030AD4464FF0010A0E
:1006C0000AFA09FAAAF1010A0AEA020A0AFA0CFA73
:1006D0004FF0010B0BFA0CFBABF1010B0BEA030B18
:1006E0004AEA0B042146404600F070FCBDE8F09F4A
:1006F00000BF00F00702064B19684FF6FF031940D0
:10070000044B0B4343EA0221014B196000BF7047C1
:100710000CED00E00000FA0570B504460D460CB97A
:10072000012070BD5A48006800F00700A8420ED2B0
:100730005748006820F007002843554908600846DC
:10074000006800F00700A84201D00120E9E7207806
:1007500000F0020002281DD1207800F004000428D7
:1007600005D14C48406840F4E0604A494860207830
:1007700000F00800082805D14648406840F4605061
:10078000444948604348406820F0F000A1680843AD
:1007900040494860207800F0010078B36068012883
:1007A00006D13C48006800F4003090B90120B8E759
:1007B0006068022806D13748006800F0007040B930
:1007C0000120AEE73348006800F0020008B90120BC
:1007D000A7E73048406820F00300616808432D49CE
:1007E0004860FFF7D1FE064609E0FFF7CDFE801B0B
:1007F00041F28831884202D9032092E707E0254878
:10080000406800F00C006168B0EB810FEDD120482A
:10081000006800F00700A8420ED91D48006820F0CB
:10082000070028431A4908600846006800F00700DE
:10083000A84201D0012074E7207800F004000428C9
:1008400007D11448406820F4E060E168084311498A
:100850004860207800F00800082808D10D4840685A
:1008600020F46050216940EAC1000A49486000F064
:1008700019F808494968C1F30311074A515CC84097
:100880000649086006480068FFF7A4FE002048E714
:100890000020024000100240481800080401002017
:1008A000FC000020F0B585B00FF26C0C9CE8E01065
:1008B00001A8A0E8E0101CA52D68009500210022E9
:1008C000002300240020194D696801F00C05F5B1E2
:1008D000042D02D0082D19D101E0154819E001AD11
:1008E000C1F38346AC5D01F4803555B10F4D6D68A1
:1008F000C5F340451DF805200D4D6543B5FBF2F3EA
:1009000002E00C4D04FB05F3184602E000BF084866
:1009100000BF00BF05B0F0BD0203040506070809CB
:100920000A0B0C0D0E0F1010010200000010024007
:1009300000127A0000093D00F8B504460CB9012008
:10094000F8BD207800F00100002878D0F848406811
:1009500000F00C0004280CD0F548406800F00C00B2
:10096000082811D1F248406800F48030B0F5803F8B
:100970000AD1EF48006800F4003000285FD06068BA
:1009800000285CD10120DBE700BF6068B0F5803F44
:1009900006D1E748006840F48030E549086028E067
:1009A000606858B9E248006820F48030E049086087
:1009B0000846006820F4802008601AE06068B0F5FE
:1009C000A02F0BD1DA48006840F48020D849086095
:1009D0000846006840F4803008600AE0D4480068A7
:1009E00020F48030D24908600846006820F4802056
:1009F000086000BF606888B1FFF7C6FD054606E0E5
:100A0000FFF7C2FD401B642801D9032098E7C848BE
:100A1000006800F400300028F2D010E0FFF7B4FDC9
:100A2000054606E0FFF7B0FD401B642801D903200E
:100A300086E7BF48006800F400300028F2D1207833
:100A400000F00200022857D1B948406800F00C00BD
:100A500050B1B748406800F00C00082818D1B448DD
:100A6000406800F4803098B9B148006800F0020096
:100A700020B12069012801D0012061E7AC4800685D
:100A800020F0F800616940EAC100A949086033E03C
:100A90002069E8B10120A7490860FFF775FD054608
:100AA00006E0FFF771FD401B022801D9032047E74C
:100AB0009F48006800F002000028F2D09C480068BF
:100AC00020F0F800616940EAC1009949086013E02C
:100AD000002098490860FFF757FD054606E0FFF73C
:100AE00053FD401B022801D9032029E790480068E4
:100AF00000F002000028F2D1207800F00800082859
:100B00002DD1A069B8B101208B490860FFF73CFDE9
:100B1000054606E0FFF738FD401B022801D90320F7
:100B20000EE78348406A00F002000028F2D001205E
:100B300000F000FA13E000207F490860FFF724FD71
:100B4000054606E0FFF720FD401B022801D90320DF
:100B5000F6E67748406A00F002000028F2D12078DB
:100B600000F00400042873D100277148C06900F028
:100B7000805070B900BF6E48C06940F080506C4929
:100B8000C8610846C06900F08050009000BF00BFF7
:100B900001276A48006800F48070B0B967480068AF
:100BA00040F4807065490860FFF7EEFC054606E0FA
:100BB000FFF7EAFC401B642801D90320C0E65F4828
:100BC000006800F480700028F2D000BFE0680128BF
:100BD00006D15748006A40F001005549086227E0F5
:100BE000E06858B95248006A20F001005049086294
:100BF0000846006A20F00400086219E0E068052851
:100C00000BD14B48006A40F004004949086208468D
:100C1000006A40F0010008620AE04548006A20F0DE
:100C20000100434908620846006A20F00400086297
:100C300000BFE068A0B1FFF7A7FC054609E0FFF799
:100C4000A3FC401B41F28831884202D9032077E699
:100C500022E03748006A00F002000028EFD012E0DE
:100C6000FFF792FC054608E0FFF78EFC401B41F2BF
:100C70008831884201D9032062E62D48006A00F0DD
:100C800002000028F0D1012F05D12948C06920F0C9
:100C900080502749C86100BFE069C8B32448406854
:100CA00000F00C00082860D0E069022848D100203C
:100CB00020490866FFF768FC054606E0FFF764FC7C
:100CC000401B022801D903203AE61948006800F0C9
:100CD00000700028F2D1206AB0F5803F07D1144897
:100CE000406820F40030A168084311494860D4E905
:100CF000080108430E49496821F4741108430C495E
:100D0000486001200B490866FFF73EFC054607E0F6
:100D10003DE0FFF739FC401B022801D903200FE614
:100D20000348006800F000700028F2D02FE00000B7
:100D30000010024000004242800442420070004025
:100D4000002014490866FFF71FFC054606E0FFF780
:100D50001BFC401B022801D90320F1E50E48006866
:100D600000F000700028F2D111E0E069012800D104
:100D7000E6E50948466806F48031206A814204D1DC
:100D800006F47011606A814201D00120D8E500208C
:100D9000D6E50000000042420010024070B5044653
:100DA0002546681EB0F1807F01D301200FE0681E48
:100DB0004FF0E02148610F214FF0FF3000F006F9BD
:100DC00000204FF0E021886107200861002070BDFD
:100DD00000BFFEE700BFFEE700BFFEE71CB5FF2037
:100DE000019000F049FA022301220021094800F095
:100DF00005FA01220021074800F010FA0090BDF822
:100E0000000049F27C31884203D10120019000F0BA
:100E10004FFB1CBD4402002010B500F02DFA00234A
:100E2000012219460B4800F0E9F901220021094886
:100E300000F0F4F9044644F400440023012219466A
:100E4000044800F0DBF9234601220021014800F0AC
:100E5000F1F910BD4402002010B500F00DFA002396
:100E600001221946074800F0C9F90122002105486E
:100E700000F0D4F9044604F4004400BF002CFDD176
:100E800010BD00004402002008B5FF20009000F0D3
:100E9000E1F9022201210A4800F094F90949088089
:100EA0000846008849F27C31884207D10120009031
:100EB00000F00AF800F02AF800F0E4FB08BD00009A
:100EC000E00100207400002010B500F0C3F90022FA
:100ED0000121084800F076F9044644F40044234612
:100EE00000220121034800F079F942F2107000F06D
:100EF00087FC10BDE001002010B5044600F0AAF9FF
:100F000000BF002CFDD0012010BD000010B500F086
:100F1000A1F900220121054800F054F9044604F427
:100F2000004400BF002CFDD110BD0000E0010020F6
:100F30007047000008B508490968C9084FF47A727B
:100F4000B1FBF2F14143009100BF00BF00994A1E7E
:100F500000920029F9D108BD04010020704710B5A6
:100F6000FFF718FB10BD00B58FB0282105A8FFF7CB
:100F7000E2F814216846FFF7DEF802200590012010
:100F8000099010200A9000200C9005A8FFF7D4FCCF
:100F900008B1FFF7F0F80F200090002001900290B8
:100FA0000390049000216846FFF7B6FB08B1FFF7F5
:100FB000E2F80FB000BD704700BFFEE702480068CE
:100FC000C0F30220704700000CED00E010B50028CF
:100FD00004DB0A07130E054A135406E00A07140E31
:100FE000034A00F00F031B1FD45410BD00E400E0BF
:100FF00018ED00E002E008C8121F08C1002AFAD16B
:1010000070477047002001E001C1121F002AFBD188
:10101000704770B504460D460020216888470120BE
:1010200061688847207B00F0EBFBA0688047287050
:10103000012021688847207B00F0E2FB70BD70B57D
:1010400004460D460020216888471DB101206168D3
:10105000884702E0002061688847207B00F0D0FBD1
:10106000012021688847207B00F0CAFB70BD00008A
:10107000FFF79CFAFFF777FFFFF780F83448354910
:10108000086035484860354888601920087334483E
:10109000344908603448486034488860192008732F
:1010A000FFF79CFE0120FFF727FFFFF7EDFE4DE065
:1010B00001231A460021274800F0A0F80122002150
:1010C000244800F0ABF82A49088008460088002828
:1010D0003CD1FFF7A1FEFFF7BFFE0F240CE0FFF7A6
:1010E0007DFE234800F020FB2148008810B1FFF767
:1010F000CBFE03E0601EC4B2002CF0D100BF24BBC5
:101100001B48008808BBFFF787FEFFF7A5FE00BF5E
:1011100000BF00BF00BF00BFBFF34F8F00BF00BFC5
:1011200000BF1448006800F4E06013490843001D44
:101130001049086000BF00BF00BFBFF34F8F00BF62
:1011400000BF00BF00BF00BFFDE700BFB0E7000069
:101150007D1100081C0100209D120008C11200082A
:10116000A11100082C010020D5120008F912000876
:10117000EC0000200CED00E00000FA0510B504467C
:1011800034B900224FF480510448FFF7F7F904E026
:10119000012211030148FFF7F1F910BD000C0140D5
:1011A00010B5044634B900224FF480610448FFF7BB
:1011B000E5F904E0012291020148FFF7DFF910BDD3
:1011C000000C0140F8B506460C461546234602229F
:1011D00001213046009500F099F8F8BD2DE9FC4159
:1011E00007460C4615461E46234601221146384640
:1011F000CDE9005600F0F3F8BDE8FC812DE9FC4193
:1012000007460C4615461E46234600221146384620
:10121000CDE9005600F0E3F8BDE8FC81F8B50646DC
:101220000C4615462346032200213046009500F067
:101230006DF8F8BD2DE9FC4107460C4615461E46E3
:101240002346012200213846CDE9005600F0C7F8B8
:10125000BDE8FC8104480549086005484860054828
:101260008860192008737047A1110008E001002070
:10127000D5120008F912000804480549086005481D
:101280004860054888601920087370477D11000880
:10129000440200209D120008C112000810B5044647
:1012A00034B900224FF400510448FFF767F904E015
:1012B000012251030148FFF761F910BD000C014004
:1012C00010B54FF400510248FFF750F910BD00006F
:1012D000000C014010B5044634B900224FF40061FF
:1012E0000448FFF74BF904E00122D1020148FFF75F
:1012F00045F910BD000C014010B54FF400610248E3
:10130000FFF734F910BD0000000C01402DE9F84F43
:1013100081460D4616469846DDF828A00027002491
:1013200004E001214846FFF78AFE641C202CF8DB0C
:10133000C5F340014846FFF782FE05F0010148462B
:10134000FFF77DFEC6F340014846FFF778FE06F042
:1013500001014846FFF773FE00240EE010202041F3
:1013600000EA080020B101214846FFF768FE03E0CB
:1013700000214846FFF763FE641C052CEEDB0024C9
:101380000EE01020204100EA0A0020B10121484669
:10139000FFF755FE03E000214846FFF750FE641CAE
:1013A000052CEEDB69464846FFF733FE69464846A2
:1013B000FFF72FFE00240DE04FF6FF7000EA47070D
:1013C00069464846FFF725FE9DF8000008B147F042
:1013D0000107641C102CEFDB3846BDE8F88F2DE9BF
:1013E000F04780460D4616461F46DDE9089A002460
:1013F00004E001214046FFF722FE641C202CF8DBAC
:10140000C5F340014046FFF71AFE05F001014046D2
:10141000FFF715FEC6F340014046FFF710FE06F049
:1014200001014046FFF70BFE00240DE01020204193
:10143000384020B101214046FFF701FE03E00021C2
:101440004046FFF7FCFD641C052CEFDB00240EE09A
:101450001020204100EA090020B101214046FFF799
:10146000EEFD03E000214046FFF7E9FD641C052C7A
:10147000EEDB01214046FFF7E2FD00214046FFF789
:10148000DEFD00240FE04FF40040204100EA0A0096
:1014900020B101214046FFF7D2FD03E00021404684
:1014A000FFF7CDFD641C102CEDDBBDE8F0870000DC
:1014B0001CB5FFF7E1FE4FF40073072200216848D6
:1014C000FFF79CFE0023072219466548FFF7B2FE8E
:1014D00042F2107000F094F9624800F025F9002300
:1014E000032219465E48FFF789FE032200215C486B
:1014F000FFF794FE5C49086040F6340301220021A6
:101500005748FFF77BFE012200215548FFF786FE72
:10151000564908609CE04FF40073072200215048B0
:10152000FFF76CFE0023072219464D48FFF782FEA5
:101530004C4800F0F9F84B48008800B18DE00020DD
:10154000019058E00020009023E049490098401C99
:1015500001EBC000808883B20098401C11F8302055
:1015600000213F48FFF74AFE019800EB4000414947
:1015700001EB4000009930F811303D490098401CC3
:1015800011F8302000213648FFF754FE0098401C27
:10159000009000980328D8DB324800F0C5F8FFF728
:1015A0003BFCFFF759FC344800F02AF92D4800F0C5
:1015B000BBF80023032219462948FFF71FFE032228
:1015C00000212748FFF72AFE2749086040F6340328
:1015D000012200212248FFF711FE012200212048AC
:1015E000FFF71CFE214908601E48008800B105E095
:1015F0000198401C019001980828A3DB00BF1948FE
:10160000008828BBFFF708FCFFF726FCFFF75CFC0F
:10161000FFF77CFC00BF00BF00BF00BF00BFBFF3EF
:101620004F8F00BF00BF00BF1448006800F4E060A7
:1016300013490843001D1149086000BF00BF00BFE7
:10164000BFF34F8F00BF00BF00BF00BF00BFFDE76B
:101650000448008800283FF45EAF00BF1CBD0000B6
:1016600044020020EC000020F0000020F4000020E4
:10167000281800089C000020A08601000CED00E066
:101680000000FA0510B500241F480088A0B11F48CB
:101690000068402810D100BF0BE01D4800EB84001B
:1016A00043881B4810F8242001211A48FFF796FDB3
:1016B000641C042CF1DB25E0174818490860184821
:1016C00048601848886019200873002301221946D1
:1016D0001248FFF793FD4FF40053012200210F48F9
:1016E000FFF7A8FD04240BE0094800EB84004388C1
:1016F000074810F8242001210648FFF76FFD641CFD
:10170000082CF1DB10BD0000EC000020F0000020F0
:1017100000000020E00100207D110008D001002021
:101720009D120008C112000810B50446FFF7A4FD81
:1017300001231A4600213148FFF760FD01220021F4
:101740002E48FFF76BFD00F004002188084320803D
:1017500040F60113012200212848FFF74FFD012226
:1017600000212648FFF75AFD00F0010021880843B8
:1017700020800123032200212048FFF73FFD0322A0
:1017800000211E48FFF74AFD00F0040021880843AD
:10179000208040F60113032200211848FFF72EFD98
:1017A000032200211548FFF739FD00F004002188CD
:1017B0000843208040F60213032200210F48FFF760
:1017C0001DFD032200210D48FFF728FD00F4806075
:1017D00021880843208040F2012307220021074886
:1017E000FFF70CFD072200210448FFF717FD00F06A
:1017F000240021880843208010BD000044020020FE
:101800000CB501900BE00521009102E00099491E02
:10181000009100990029F9D10199491E019101997E
:101820000029F0D10CBD00000700000000020000FC
:101830000300000000000000010000003408000068
:10184000FFFF0000FFFF000000000000000000009C
:101850000102030406070809000000000102030456
:10186000801800080000002008010000F40F0008A4
:101870008819000808010020500500000410000825
:101880001F000000000040010900000E110000F0E0
:101890001F000000000000210900000E110000F0F0
:1018A0000300000040000100340801C001000009ED
:1018B0000040030000004820030007000300070069
:1018C00000020000002000C00100002000C0000055
:1018D00040000180010040000180000000200080E5
:1018E0000100002000800000400001C00100400015
:1018F00001C00000000000000300000040000100E3
:10190000340801C001000009004003000000482025
:10191000030007000300070000020000002000C0D1
:101920000100002000C000004000018001004000D4
:1019300001800000002000800100002000800000E5
:10194000400001C00100400001C000001F00000075
:10195000000040010900000E110000F01F0000000F
:10196000000000210900000E110000F0000000003E
:101970000000000000000000000000001000000057
:08198000010000000024F40046
:04000005080000ED02
:00000001FF
