Component: ARM Compiler 5.06 update 7 (build 960) Tool: armlink [4d3601]

==============================================================================

Section Cross References

    startup_stm32f103xb.o(RESET) refers to startup_stm32f103xb.o(STACK) for __initial_sp
    startup_stm32f103xb.o(RESET) refers to startup_stm32f103xb.o(.text) for Reset_Handler
    startup_stm32f103xb.o(RESET) refers to stm32f1xx_it.o(i.NMI_Handler) for NMI_Handler
    startup_stm32f103xb.o(RESET) refers to stm32f1xx_it.o(i.HardFault_Handler) for HardFault_Handler
    startup_stm32f103xb.o(RESET) refers to stm32f1xx_it.o(i.MemManage_Handler) for MemManage_Handler
    startup_stm32f103xb.o(RESET) refers to stm32f1xx_it.o(i.BusFault_Handler) for BusFault_Handler
    startup_stm32f103xb.o(RESET) refers to stm32f1xx_it.o(i.UsageFault_Handler) for UsageFault_Handler
    startup_stm32f103xb.o(RESET) refers to stm32f1xx_it.o(i.SVC_Handler) for SVC_Handler
    startup_stm32f103xb.o(RESET) refers to stm32f1xx_it.o(i.DebugMon_Handler) for DebugMon_Handler
    startup_stm32f103xb.o(RESET) refers to stm32f1xx_it.o(i.PendSV_Handler) for PendSV_Handler
    startup_stm32f103xb.o(RESET) refers to stm32f1xx_it.o(i.SysTick_Handler) for SysTick_Handler
    startup_stm32f103xb.o(.text) refers to system_stm32f1xx.o(i.SystemInit) for SystemInit
    startup_stm32f103xb.o(.text) refers to entry.o(.ARM.Collect$$$$00000000) for __main
    mdio.o(i.bit_get) refers to mdio.o(i.udelay) for udelay
    mdio.o(i.bit_set) refers to mdio.o(i.udelay) for udelay
    mdio.o(i.mdio_clause22_read) refers to mdio.o(i.mdio_read) for mdio_read
    mdio.o(i.mdio_clause22_write) refers to mdio.o(i.mdio_write) for mdio_write
    mdio.o(i.mdio_clause45_addr) refers to mdio.o(i.mdio_write) for mdio_write
==============================================================================

Removing Unused input sections from the image.

    Removing startup_stm32f103xb.o(HEAP), (512 bytes).
    Removing mdio.o(i.mdio_clause45_read_inc), (24 bytes).
    Removing main.o(.rev16_text), (4 bytes).
    Removing main.o(.revsh_text), (4 bytes).
    Removing main.o(.rrx_text), (6 bytes).
    Removing main.o(i.Read_Reg_Val), (248 bytes).
    Removing main.o(.constdata), (104 bytes).
    Removing main.o(.data), (120 bytes).
    Removing stm32f1xx_it.o(.rev16_text), (4 bytes).
    Removing stm32f1xx_it.o(.revsh_text), (4 bytes).
    Removing stm32f1xx_it.o(.rrx_text), (6 bytes).
    Removing stm32f1xx_it.o(.constdata), (72 bytes).
    Removing stm32f1xx_hal_msp.o(.rev16_text), (4 bytes).
    Removing stm32f1xx_hal_msp.o(.revsh_text), (4 bytes).
    Removing stm32f1xx_hal_msp.o(.rrx_text), (6 bytes).
    Removing stm32f1xx_hal_msp.o(.constdata), (72 bytes).
    Removing jl2201.o(.rev16_text), (4 bytes).
    Removing jl2201.o(.revsh_text), (4 bytes).
==============================================================================

Image Symbol Table

    Local Symbols

    Symbol Name                              Value     Ov Type        Size  Object(Section)

    ../Core/Src/main.c                       0x00000000   Number         0  main.o ABSOLUTE
    ../Core/Src/stm32f1xx_hal_msp.c          0x00000000   Number         0  stm32f1xx_hal_msp.o ABSOLUTE
    ../Core/Src/stm32f1xx_it.c               0x00000000   Number         0  stm32f1xx_it.o ABSOLUTE
    ../Core/Src/system_stm32f1xx.c           0x00000000   Number         0  system_stm32f1xx.o ABSOLUTE
    ../Drivers/STM32F1xx_HAL_Driver/Src/stm32f1xx_hal.c 0x00000000   Number         0  stm32f1xx_hal.o ABSOLUTE
    ../Drivers/STM32F1xx_HAL_Driver/Src/stm32f1xx_hal_cortex.c 0x00000000   Number         0  stm32f1xx_hal_cortex.o ABSOLUTE
    ../Drivers/STM32F1xx_HAL_Driver/Src/stm32f1xx_hal_dma.c 0x00000000   Number         0  stm32f1xx_hal_dma.o ABSOLUTE
    ../Drivers/STM32F1xx_HAL_Driver/Src/stm32f1xx_hal_exti.c 0x00000000   Number         0  stm32f1xx_hal_exti.o ABSOLUTE
    ../Drivers/STM32F1xx_HAL_Driver/Src/stm32f1xx_hal_flash.c 0x00000000   Number         0  stm32f1xx_hal_flash.o ABSOLUTE
    ../Drivers/STM32F1xx_HAL_Driver/Src/stm32f1xx_hal_flash_ex.c 0x00000000   Number         0  stm32f1xx_hal_flash_ex.o ABSOLUTE
    ../Drivers/STM32F1xx_HAL_Driver/Src/stm32f1xx_hal_gpio.c 0x00000000   Number         0  stm32f1xx_hal_gpio.o ABSOLUTE
    ../Drivers/STM32F1xx_HAL_Driver/Src/stm32f1xx_hal_gpio_ex.c 0x00000000   Number         0  stm32f1xx_hal_gpio_ex.o ABSOLUTE
    ../Drivers/STM32F1xx_HAL_Driver/Src/stm32f1xx_hal_pwr.c 0x00000000   Number         0  stm32f1xx_hal_pwr.o ABSOLUTE
    ../Drivers/STM32F1xx_HAL_Driver/Src/stm32f1xx_hal_rcc.c 0x00000000   Number         0  stm32f1xx_hal_rcc.o ABSOLUTE
    ../Drivers/STM32F1xx_HAL_Driver/Src/stm32f1xx_hal_rcc_ex.c 0x00000000   Number         0  stm32f1xx_hal_rcc_ex.o ABSOLUTE
    ../Drivers/STM32F1xx_HAL_Driver/Src/stm32f1xx_hal_tim.c 0x00000000   Number         0  stm32f1xx_hal_tim.o ABSOLUTE
    ../Drivers/STM32F1xx_HAL_Driver/Src/stm32f1xx_hal_tim_ex.c 0x00000000   Number         0  stm32f1xx_hal_tim_ex.o ABSOLUTE
    ../clib/microlib/init/entry.s            0x00000000   Number         0  entry7a.o ABSOLUTE
    ../clib/microlib/init/entry.s            0x00000000   Number         0  entry.o ABSOLUTE
    ../clib/microlib/init/entry.s            0x00000000   Number         0  entry7b.o ABSOLUTE
    ../clib/microlib/init/entry.s            0x00000000   Number         0  entry8a.o ABSOLUTE
    ../clib/microlib/init/entry.s            0x00000000   Number         0  entry8b.o ABSOLUTE
    ../clib/microlib/init/entry.s            0x00000000   Number         0  entry2.o ABSOLUTE
    ../clib/microlib/init/entry.s            0x00000000   Number         0  entry9a.o ABSOLUTE
    ../clib/microlib/init/entry.s            0x00000000   Number         0  entry10b.o ABSOLUTE
    ../clib/microlib/init/entry.s            0x00000000   Number         0  entry9b.o ABSOLUTE
    ../clib/microlib/init/entry.s            0x00000000   Number         0  entry5.o ABSOLUTE
    ../clib/microlib/init/entry.s            0x00000000   Number         0  entry10a.o ABSOLUTE
    ../clib/microlib/init/entry.s            0x00000000   Number         0  entry12b.o ABSOLUTE
    ../clib/microlib/init/entry.s            0x00000000   Number         0  entry12a.o ABSOLUTE
    ../clib/microlib/init/entry.s            0x00000000   Number         0  entry11b.o ABSOLUTE
    ../clib/microlib/init/entry.s            0x00000000   Number         0  entry11a.o ABSOLUTE
    ../clib/microlib/longlong.c              0x00000000   Number         0  llushr.o ABSOLUTE
    ../clib/microlib/string/memset.c         0x00000000   Number         0  memseta.o ABSOLUTE
    ..\Core\Src\gpio.c                       0x00000000   Number         0  gpio.o ABSOLUTE
    ..\Core\Src\jl2201.c                     0x00000000   Number         0  jl2201.o ABSOLUTE
    ..\Core\Src\jl3113.c                     0x00000000   Number         0  jl3113.o ABSOLUTE
    ..\Core\Src\main.c                       0x00000000   Number         0  main.o ABSOLUTE
    ..\Core\Src\mdio.c                       0x00000000   Number         0  mdio.o ABSOLUTE
    ..\Core\Src\stm32f1xx_hal_msp.c          0x00000000   Number         0  stm32f1xx_hal_msp.o ABSOLUTE
    ..\Core\Src\stm32f1xx_it.c               0x00000000   Number         0  stm32f1xx_it.o ABSOLUTE
    ..\Core\Src\system_stm32f1xx.c           0x00000000   Number         0  system_stm32f1xx.o ABSOLUTE
    ..\Drivers\STM32F1xx_HAL_Driver\Src\stm32f1xx_hal.c 0x00000000   Number         0  stm32f1xx_hal.o ABSOLUTE
    ..\Drivers\STM32F1xx_HAL_Driver\Src\stm32f1xx_hal_cortex.c 0x00000000   Number         0  stm32f1xx_hal_cortex.o ABSOLUTE
    ..\Drivers\STM32F1xx_HAL_Driver\Src\stm32f1xx_hal_dma.c 0x00000000   Number         0  stm32f1xx_hal_dma.o ABSOLUTE
    ..\Drivers\STM32F1xx_HAL_Driver\Src\stm32f1xx_hal_exti.c 0x00000000   Number         0  stm32f1xx_hal_exti.o ABSOLUTE
    ..\Drivers\STM32F1xx_HAL_Driver\Src\stm32f1xx_hal_flash.c 0x00000000   Number         0  stm32f1xx_hal_flash.o ABSOLUTE
    ..\Drivers\STM32F1xx_HAL_Driver\Src\stm32f1xx_hal_flash_ex.c 0x00000000   Number         0  stm32f1xx_hal_flash_ex.o ABSOLUTE
    ..\Drivers\STM32F1xx_HAL_Driver\Src\stm32f1xx_hal_gpio.c 0x00000000   Number         0  stm32f1xx_hal_gpio.o ABSOLUTE
    ..\Drivers\STM32F1xx_HAL_Driver\Src\stm32f1xx_hal_gpio_ex.c 0x00000000   Number         0  stm32f1xx_hal_gpio_ex.o ABSOLUTE
    ..\Drivers\STM32F1xx_HAL_Driver\Src\stm32f1xx_hal_pwr.c 0x00000000   Number         0  stm32f1xx_hal_pwr.o ABSOLUTE
    ..\Drivers\STM32F1xx_HAL_Driver\Src\stm32f1xx_hal_rcc.c 0x00000000   Number         0  stm32f1xx_hal_rcc.o ABSOLUTE
    ..\Drivers\STM32F1xx_HAL_Driver\Src\stm32f1xx_hal_rcc_ex.c 0x00000000   Number         0  stm32f1xx_hal_rcc_ex.o ABSOLUTE
    ..\Drivers\STM32F1xx_HAL_Driver\Src\stm32f1xx_hal_tim.c 0x00000000   Number         0  stm32f1xx_hal_tim.o ABSOLUTE
    ..\Drivers\STM32F1xx_HAL_Driver\Src\stm32f1xx_hal_tim_ex.c 0x00000000   Number         0  stm32f1xx_hal_tim_ex.o ABSOLUTE
    ..\\Core\\Src\\gpio.c                    0x00000000   Number         0  gpio.o ABSOLUTE
    ..\\Core\\Src\\jl2201.c                  0x00000000   Number         0  jl2201.o ABSOLUTE
    ..\\Core\\Src\\jl3113.c                  0x00000000   Number         0  jl3113.o ABSOLUTE
    dc.s                                     0x00000000   Number         0  dc.o ABSOLUTE
    handlers.s                               0x00000000   Number         0  handlers.o ABSOLUTE
    init.s                                   0x00000000   Number         0  init.o ABSOLUTE
    startup_stm32f103xb.s                    0x00000000   Number         0  startup_stm32f103xb.o ABSOLUTE
    RESET                                    0x08000000   Section      236  startup_stm32f103xb.o(RESET)
    .ARM.Collect$$$$00000000                 0x080000ec   Section        0  entry.o(.ARM.Collect$$$$00000000)
    .ARM.Collect$$$$00000001                 0x080000ec   Section        4  entry2.o(.ARM.Collect$$$$00000001)
    .ARM.Collect$$$$00000004                 0x080000f0   Section        4  entry5.o(.ARM.Collect$$$$00000004)
    .ARM.Collect$$$$00000008                 0x080000f4   Section        0  entry7b.o(.ARM.Collect$$$$00000008)
    .ARM.Collect$$$$0000000A                 0x080000f4   Section        0  entry8b.o(.ARM.Collect$$$$0000000A)
    .ARM.Collect$$$$0000000B                 0x080000f4   Section        8  entry9a.o(.ARM.Collect$$$$0000000B)
    .ARM.Collect$$$$0000000E                 0x080000fc   Section        4  entry12b.o(.ARM.Collect$$$$0000000E)
    .ARM.Collect$$$$0000000F                 0x08000100   Section        0  entry10a.o(.ARM.Collect$$$$0000000F)
    .ARM.Collect$$$$00000011                 0x08000100   Section        0  entry11a.o(.ARM.Collect$$$$00000011)
    .ARM.Collect$$$$00002712                 0x08000100   Section        4  entry2.o(.ARM.Collect$$$$00002712)
    __lit__00000000                          0x08000100   Data           4  entry2.o(.ARM.Collect$$$$00002712)
    .text                                    0x08000104   Section       36  startup_stm32f103xb.o(.text)
    .text                                    0x08000128   Section        0  memseta.o(.text)
    .text                                    0x0800014c   Section       36  init.o(.text)
    i.BusFault_Handler                       0x08000170   Section        0  stm32f1xx_it.o(i.BusFault_Handler)
    i.DebugMon_Handler                       0x08000174   Section        0  stm32f1xx_it.o(i.DebugMon_Handler)
    i.Error_Handler                          0x08000176   Section        0  main.o(i.Error_Handler)
    i.GPIO_Init                              0x0800017c   Section        0  gpio.o(i.GPIO_Init)
    i.HAL_GPIO_Init                          0x0800024c   Section        0  stm32f1xx_hal_gpio.o(i.HAL_GPIO_Init)
    i.HAL_GPIO_ReadPin                       0x0800056c   Section        0  stm32f1xx_hal_gpio.o(i.HAL_GPIO_ReadPin)
    i.HAL_GPIO_WritePin                      0x0800057c   Section        0  stm32f1xx_hal_gpio.o(i.HAL_GPIO_WritePin)
    i.HAL_GetTick                            0x08000588   Section        0  stm32f1xx_hal.o(i.HAL_GetTick)
    i.HAL_IncTick                            0x08000594   Section        0  stm32f1xx_hal.o(i.HAL_IncTick)
    i.HAL_Init                               0x080005ac   Section        0  stm32f1xx_hal.o(i.HAL_Init)
    i.HAL_InitTick                           0x080005d4   Section        0  stm32f1xx_hal.o(i.HAL_InitTick)
    i.HAL_MspInit                            0x08000620   Section        0  stm32f1xx_hal_msp.o(i.HAL_MspInit)
    i.HAL_NVIC_SetPriority                   0x08000674   Section        0  stm32f1xx_hal_cortex.o(i.HAL_NVIC_SetPriority)
    i.HAL_NVIC_SetPriorityGrouping           0x080006f0   Section        0  stm32f1xx_hal_cortex.o(i.HAL_NVIC_SetPriorityGrouping)
    i.HAL_RCC_ClockConfig                    0x08000718   Section        0  stm32f1xx_hal_rcc.o(i.HAL_RCC_ClockConfig)
    i.HAL_RCC_GetSysClockFreq                0x080008a4   Section        0  stm32f1xx_hal_rcc.o(i.HAL_RCC_GetSysClockFreq)
    i.HAL_RCC_OscConfig                      0x08000938   Section        0  stm32f1xx_hal_rcc.o(i.HAL_RCC_OscConfig)
    i.HAL_SYSTICK_Config                     0x08000d9c   Section        0  stm32f1xx_hal_cortex.o(i.HAL_SYSTICK_Config)
    i.HardFault_Handler                      0x08000dd0   Section        0  stm32f1xx_it.o(i.HardFault_Handler)
    i.MemManage_Handler                      0x08000dd4   Section        0  stm32f1xx_it.o(i.MemManage_Handler)
    i.NMI_Handler                            0x08000dd8   Section        0  stm32f1xx_it.o(i.NMI_Handler)
    i.PHY1_Init                              0x08000ddc   Section        0  jl3113.o(i.PHY1_Init)
    i.PHY1_RESET                             0x08000e18   Section        0  jl3113.o(i.PHY1_RESET)
    i.PHY1_WAIT_RESET_OK                     0x08000e58   Section        0  jl3113.o(i.PHY1_WAIT_RESET_OK)
    i.PHY2_Init                              0x08000e88   Section        0  jl2201.o(i.PHY2_Init)
    i.PHY2_RESET                             0x08000ec8   Section        0  jl2201.o(i.PHY2_RESET)
    i.PHY2_START                             0x08000ef8   Section        0  jl2201.o(i.PHY2_START)
    i.PHY2_WAIT_RESET_OK                     0x08000f0c   Section        0  jl2201.o(i.PHY2_WAIT_RESET_OK)
    i.PendSV_Handler                         0x08000f30   Section        0  stm32f1xx_it.o(i.PendSV_Handler)
    i.RCC_Delay                              0x08000f34   Section        0  stm32f1xx_hal_rcc.o(i.RCC_Delay)
    RCC_Delay                                0x08000f35   Thumb Code    36  stm32f1xx_hal_rcc.o(i.RCC_Delay)
    i.SVC_Handler                            0x08000f5c   Section        0  stm32f1xx_it.o(i.SVC_Handler)
    i.SysTick_Handler                        0x08000f5e   Section        0  stm32f1xx_it.o(i.SysTick_Handler)
    i.SystemClock_Config                     0x08000f66   Section        0  main.o(i.SystemClock_Config)
    i.SystemInit                             0x08000fb6   Section        0  system_stm32f1xx.o(i.SystemInit)
    i.UsageFault_Handler                     0x08000fb8   Section        0  stm32f1xx_it.o(i.UsageFault_Handler)
    i.__NVIC_GetPriorityGrouping             0x08000fbc   Section        0  stm32f1xx_hal_cortex.o(i.__NVIC_GetPriorityGrouping)
    __NVIC_GetPriorityGrouping               0x08000fbd   Thumb Code    10  stm32f1xx_hal_cortex.o(i.__NVIC_GetPriorityGrouping)
    i.__NVIC_SetPriority                     0x08000fcc   Section        0  stm32f1xx_hal_cortex.o(i.__NVIC_SetPriority)
    __NVIC_SetPriority                       0x08000fcd   Thumb Code    32  stm32f1xx_hal_cortex.o(i.__NVIC_SetPriority)
    i.__scatterload_copy                     0x08000ff4   Section       14  handlers.o(i.__scatterload_copy)
    i.__scatterload_null                     0x08001002   Section        2  handlers.o(i.__scatterload_null)
    i.__scatterload_zeroinit                 0x08001004   Section       14  handlers.o(i.__scatterload_zeroinit)
    i.bit_get                                0x08001012   Section        0  mdio.o(i.bit_get)
    i.bit_set                                0x0800103e   Section        0  mdio.o(i.bit_set)
    i.main                                   0x08001070   Section        0  main.o(i.main)
    i.mdc_phy1_fn                            0x0800117c   Section        0  jl3113.o(i.mdc_phy1_fn)
    i.mdc_phy2_fn                            0x080011a0   Section        0  jl2201.o(i.mdc_phy2_fn)
    i.mdio_clause22_read                     0x080011c4   Section        0  mdio.o(i.mdio_clause22_read)
    i.mdio_clause22_write                    0x080011dc   Section        0  mdio.o(i.mdio_clause22_write)
    i.mdio_clause45_addr                     0x080011fc   Section        0  mdio.o(i.mdio_clause45_addr)
    i.mdio_clause45_read                     0x0800121c   Section        0  mdio.o(i.mdio_clause45_read)
    i.mdio_clause45_write                    0x08001234   Section        0  mdio.o(i.mdio_clause45_write)
    i.mdio_ctl_t_init                        0x08001254   Section        0  jl2201.o(i.mdio_ctl_t_init)
    mdio_ctl_t_init                          0x08001255   Thumb Code    20  jl2201.o(i.mdio_ctl_t_init)
    i.mdio_ctl_t_init1                       0x08001278   Section        0  jl3113.o(i.mdio_ctl_t_init1)
    i.mdio_phy1_fn                           0x0800129c   Section        0  jl3113.o(i.mdio_phy1_fn)
    i.mdio_phy1_read_fn                      0x080012c0   Section        0  jl3113.o(i.mdio_phy1_read_fn)
    i.mdio_phy2_fn                           0x080012d4   Section        0  jl2201.o(i.mdio_phy2_fn)
    i.mdio_phy2_read_fn                      0x080012f8   Section        0  jl2201.o(i.mdio_phy2_read_fn)
    i.mdio_read                              0x0800130c   Section        0  mdio.o(i.mdio_read)
    i.mdio_write                             0x080013de   Section        0  mdio.o(i.mdio_write)
    i.mode_config_phy1                       0x080014b0   Section        0  jl3113.o(i.mode_config_phy1)
    i.mode_config_phy2                       0x08001684   Section        0  jl2201.o(i.mode_config_phy2)
    i.read_link_flag                         0x08001728   Section        0  jl3113.o(i.read_link_flag)
    i.udelay                                 0x08001800   Section        0  mdio.o(i.udelay)
    .constdata                               0x08001828   Section       32  jl3113.o(.constdata)
    reg_adr_phy1                             0x08001828   Data          32  jl3113.o(.constdata)
    .constdata                               0x08001848   Section       24  system_stm32f1xx.o(.constdata)
    .data                                    0x20000000   Section      118  jl2201.o(.data)
    mode_data_phy2                           0x20000000   Data          32  jl2201.o(.data)
    initial_struct_phy1                      0x20000020   Data          36  jl2201.o(.data)
    mode_data_phy1                           0x20000044   Data          48  jl2201.o(.data)
    .data                                    0x20000078   Section      128  jl3113.o(.data)
    initial_struct_phy1                      0x20000078   Data          36  jl3113.o(.data)
    mode_data_phy1                           0x2000009c   Data          48  jl3113.o(.data)
    mode_data_phy2                           0x200000cc   Data          32  jl3113.o(.data)
    .data                                    0x200000f8   Section        9  stm32f1xx_hal.o(.data)
    .data                                    0x20000104   Section        4  system_stm32f1xx.o(.data)
    .bss                                     0x20000108   Section      180  main.o(.bss)
    id                                       0x20000108   Data          18  main.o(.bss)
    mdio_phy1                                0x2000011c   Data          16  main.o(.bss)
    mdio_phy2                                0x2000012c   Data          16  main.o(.bss)
    id_PHY1                                  0x2000013c   Data          64  main.o(.bss)
    id_PHY2                                  0x2000017c   Data          64  main.o(.bss)
    .bss                                     0x200001bc   Section       52  jl2201.o(.bss)
    id                                       0x200001bc   Data          18  jl2201.o(.bss)
    mdio_phy1                                0x200001d0   Data          16  jl2201.o(.bss)
    mdio_phy2                                0x200001e0   Data          16  jl2201.o(.bss)
    .bss                                     0x200001f0   Section      100  jl3113.o(.bss)
    id                                       0x200001f0   Data          18  jl3113.o(.bss)
    id_PHY1                                  0x20000202   Data          64  jl3113.o(.bss)
    mdio_phy1                                0x20000244   Data          16  jl3113.o(.bss)
    STACK                                    0x20000258   Section     1024  startup_stm32f103xb.o(STACK)

    Global Symbols

    Symbol Name                              Value     Ov Type        Size  Object(Section)

    BuildAttributes$$THM_ISAv4$P$D$K$B$S$PE$A:L22UL41UL21$X:L11$S22US41US21$IEEE1$IW$USESV6$~STKCKD$USESV7$~SHL$OSPACE$EBA8$MICROLIB$REQ8$PRES8$EABIv2 0x00000000   Number         0  anon$$obj.o ABSOLUTE
    __ARM_use_no_argv                        0x00000000   Number         0  main.o ABSOLUTE
    __arm_fini_                               - Undefined Weak Reference
    __cpp_initialize__aeabi_                  - Undefined Weak Reference
    __cxa_finalize                            - Undefined Weak Reference
    __decompress                              - Undefined Weak Reference
    _clock_init                               - Undefined Weak Reference
    _microlib_exit                            - Undefined Weak Reference
    __Vectors_Size                           0x000000ec   Number         0  startup_stm32f103xb.o ABSOLUTE
    __Vectors                                0x08000000   Data           4  startup_stm32f103xb.o(RESET)
    __Vectors_End                            0x080000ec   Data           0  startup_stm32f103xb.o(RESET)
    __main                                   0x080000ed   Thumb Code     0  entry.o(.ARM.Collect$$$$00000000)
    _main_stk                                0x080000ed   Thumb Code     0  entry2.o(.ARM.Collect$$$$00000001)
    _main_scatterload                        0x080000f1   Thumb Code     0  entry5.o(.ARM.Collect$$$$00000004)
    __main_after_scatterload                 0x080000f5   Thumb Code     0  entry5.o(.ARM.Collect$$$$00000004)
    _main_clock                              0x080000f5   Thumb Code     0  entry7b.o(.ARM.Collect$$$$00000008)
    _main_cpp_init                           0x080000f5   Thumb Code     0  entry8b.o(.ARM.Collect$$$$0000000A)
    _main_init                               0x080000f5   Thumb Code     0  entry9a.o(.ARM.Collect$$$$0000000B)
    __rt_lib_shutdown_fini                   0x080000fd   Thumb Code     0  entry12b.o(.ARM.Collect$$$$0000000E)
    __rt_final_cpp                           0x08000101   Thumb Code     0  entry10a.o(.ARM.Collect$$$$0000000F)
    __rt_final_exit                          0x08000101   Thumb Code     0  entry11a.o(.ARM.Collect$$$$00000011)
    Reset_Handler                            0x08000105   Thumb Code     8  startup_stm32f103xb.o(.text)
    ADC1_2_IRQHandler                        0x0800011f   Thumb Code     0  startup_stm32f103xb.o(.text)
    CAN1_RX1_IRQHandler                      0x0800011f   Thumb Code     0  startup_stm32f103xb.o(.text)
    CAN1_SCE_IRQHandler                      0x0800011f   Thumb Code     0  startup_stm32f103xb.o(.text)
    DMA1_Channel1_IRQHandler                 0x0800011f   Thumb Code     0  startup_stm32f103xb.o(.text)
    DMA1_Channel2_IRQHandler                 0x0800011f   Thumb Code     0  startup_stm32f103xb.o(.text)
    DMA1_Channel3_IRQHandler                 0x0800011f   Thumb Code     0  startup_stm32f103xb.o(.text)
    DMA1_Channel4_IRQHandler                 0x0800011f   Thumb Code     0  startup_stm32f103xb.o(.text)
    DMA1_Channel5_IRQHandler                 0x0800011f   Thumb Code     0  startup_stm32f103xb.o(.text)
    DMA1_Channel6_IRQHandler                 0x0800011f   Thumb Code     0  startup_stm32f103xb.o(.text)
    DMA1_Channel7_IRQHandler                 0x0800011f   Thumb Code     0  startup_stm32f103xb.o(.text)
    EXTI0_IRQHandler                         0x0800011f   Thumb Code     0  startup_stm32f103xb.o(.text)
    EXTI15_10_IRQHandler                     0x0800011f   Thumb Code     0  startup_stm32f103xb.o(.text)
    EXTI1_IRQHandler                         0x0800011f   Thumb Code     0  startup_stm32f103xb.o(.text)
    EXTI2_IRQHandler                         0x0800011f   Thumb Code     0  startup_stm32f103xb.o(.text)
    EXTI3_IRQHandler                         0x0800011f   Thumb Code     0  startup_stm32f103xb.o(.text)
    EXTI4_IRQHandler                         0x0800011f   Thumb Code     0  startup_stm32f103xb.o(.text)
    EXTI9_5_IRQHandler                       0x0800011f   Thumb Code     0  startup_stm32f103xb.o(.text)
    FLASH_IRQHandler                         0x0800011f   Thumb Code     0  startup_stm32f103xb.o(.text)
    I2C1_ER_IRQHandler                       0x0800011f   Thumb Code     0  startup_stm32f103xb.o(.text)
    I2C1_EV_IRQHandler                       0x0800011f   Thumb Code     0  startup_stm32f103xb.o(.text)
    I2C2_ER_IRQHandler                       0x0800011f   Thumb Code     0  startup_stm32f103xb.o(.text)
    I2C2_EV_IRQHandler                       0x0800011f   Thumb Code     0  startup_stm32f103xb.o(.text)
    PVD_IRQHandler                           0x0800011f   Thumb Code     0  startup_stm32f103xb.o(.text)
    RCC_IRQHandler                           0x0800011f   Thumb Code     0  startup_stm32f103xb.o(.text)
    RTC_Alarm_IRQHandler                     0x0800011f   Thumb Code     0  startup_stm32f103xb.o(.text)
    RTC_IRQHandler                           0x0800011f   Thumb Code     0  startup_stm32f103xb.o(.text)
    SPI1_IRQHandler                          0x0800011f   Thumb Code     0  startup_stm32f103xb.o(.text)
    SPI2_IRQHandler                          0x0800011f   Thumb Code     0  startup_stm32f103xb.o(.text)
    TAMPER_IRQHandler                        0x0800011f   Thumb Code     0  startup_stm32f103xb.o(.text)
    TIM1_BRK_IRQHandler                      0x0800011f   Thumb Code     0  startup_stm32f103xb.o(.text)
    TIM1_CC_IRQHandler                       0x0800011f   Thumb Code     0  startup_stm32f103xb.o(.text)
    TIM1_TRG_COM_IRQHandler                  0x0800011f   Thumb Code     0  startup_stm32f103xb.o(.text)
    TIM1_UP_IRQHandler                       0x0800011f   Thumb Code     0  startup_stm32f103xb.o(.text)
    TIM2_IRQHandler                          0x0800011f   Thumb Code     0  startup_stm32f103xb.o(.text)
    TIM3_IRQHandler                          0x0800011f   Thumb Code     0  startup_stm32f103xb.o(.text)
    TIM4_IRQHandler                          0x0800011f   Thumb Code     0  startup_stm32f103xb.o(.text)
    USART1_IRQHandler                        0x0800011f   Thumb Code     0  startup_stm32f103xb.o(.text)
    USART2_IRQHandler                        0x0800011f   Thumb Code     0  startup_stm32f103xb.o(.text)
    USART3_IRQHandler                        0x0800011f   Thumb Code     0  startup_stm32f103xb.o(.text)
    USBWakeUp_IRQHandler                     0x0800011f   Thumb Code     0  startup_stm32f103xb.o(.text)
    USB_HP_CAN1_TX_IRQHandler                0x0800011f   Thumb Code     0  startup_stm32f103xb.o(.text)
    USB_LP_CAN1_RX0_IRQHandler               0x0800011f   Thumb Code     0  startup_stm32f103xb.o(.text)
    WWDG_IRQHandler                          0x0800011f   Thumb Code     0  startup_stm32f103xb.o(.text)
    __aeabi_memset                           0x08000129   Thumb Code    14  memseta.o(.text)
    __aeabi_memset4                          0x08000129   Thumb Code     0  memseta.o(.text)
    __aeabi_memset8                          0x08000129   Thumb Code     0  memseta.o(.text)
    __aeabi_memclr                           0x08000137   Thumb Code     4  memseta.o(.text)
    __aeabi_memclr4                          0x08000137   Thumb Code     0  memseta.o(.text)
    __aeabi_memclr8                          0x08000137   Thumb Code     0  memseta.o(.text)
    _memset$wrapper                          0x0800013b   Thumb Code    18  memseta.o(.text)
    __scatterload                            0x0800014d   Thumb Code    28  init.o(.text)
    __scatterload_rt2                        0x0800014d   Thumb Code     0  init.o(.text)
    BusFault_Handler                         0x08000171   Thumb Code     4  stm32f1xx_it.o(i.BusFault_Handler)
    DebugMon_Handler                         0x08000175   Thumb Code     2  stm32f1xx_it.o(i.DebugMon_Handler)
    Error_Handler                            0x08000177   Thumb Code     6  main.o(i.Error_Handler)
    GPIO_Init                                0x0800017d   Thumb Code   200  gpio.o(i.GPIO_Init)
    HAL_GPIO_Init                            0x0800024d   Thumb Code   766  stm32f1xx_hal_gpio.o(i.HAL_GPIO_Init)
    HAL_GPIO_ReadPin                         0x0800056d   Thumb Code    16  stm32f1xx_hal_gpio.o(i.HAL_GPIO_ReadPin)
    HAL_GPIO_WritePin                        0x0800057d   Thumb Code    12  stm32f1xx_hal_gpio.o(i.HAL_GPIO_WritePin)
    HAL_GetTick                              0x08000589   Thumb Code     6  stm32f1xx_hal.o(i.HAL_GetTick)
    HAL_IncTick                              0x08000595   Thumb Code    16  stm32f1xx_hal.o(i.HAL_IncTick)
    HAL_Init                                 0x080005ad   Thumb Code    34  stm32f1xx_hal.o(i.HAL_Init)
    HAL_InitTick                             0x080005d5   Thumb Code    64  stm32f1xx_hal.o(i.HAL_InitTick)
    HAL_MspInit                              0x08000621   Thumb Code    76  stm32f1xx_hal_msp.o(i.HAL_MspInit)
    HAL_NVIC_SetPriority                     0x08000675   Thumb Code   124  stm32f1xx_hal_cortex.o(i.HAL_NVIC_SetPriority)
    HAL_NVIC_SetPriorityGrouping             0x080006f1   Thumb Code    32  stm32f1xx_hal_cortex.o(i.HAL_NVIC_SetPriorityGrouping)
    HAL_RCC_ClockConfig                      0x08000719   Thumb Code   376  stm32f1xx_hal_rcc.o(i.HAL_RCC_ClockConfig)
    HAL_RCC_GetSysClockFreq                  0x080008a5   Thumb Code   116  stm32f1xx_hal_rcc.o(i.HAL_RCC_GetSysClockFreq)
    HAL_RCC_OscConfig                        0x08000939   Thumb Code  1114  stm32f1xx_hal_rcc.o(i.HAL_RCC_OscConfig)
    HAL_SYSTICK_Config                       0x08000d9d   Thumb Code    52  stm32f1xx_hal_cortex.o(i.HAL_SYSTICK_Config)
    HardFault_Handler                        0x08000dd1   Thumb Code     4  stm32f1xx_it.o(i.HardFault_Handler)
    MemManage_Handler                        0x08000dd5   Thumb Code     4  stm32f1xx_it.o(i.MemManage_Handler)
    NMI_Handler                              0x08000dd9   Thumb Code     4  stm32f1xx_it.o(i.NMI_Handler)
    PHY1_Init                                0x08000ddd   Thumb Code    56  jl3113.o(i.PHY1_Init)
    PHY1_RESET                               0x08000e19   Thumb Code    60  jl3113.o(i.PHY1_RESET)
    PHY1_WAIT_RESET_OK                       0x08000e59   Thumb Code    42  jl3113.o(i.PHY1_WAIT_RESET_OK)
    PHY2_Init                                0x08000e89   Thumb Code    54  jl2201.o(i.PHY2_Init)
    PHY2_RESET                               0x08000ec9   Thumb Code    44  jl2201.o(i.PHY2_RESET)
    PHY2_START                               0x08000ef9   Thumb Code    18  jl2201.o(i.PHY2_START)
    PHY2_WAIT_RESET_OK                       0x08000f0d   Thumb Code    30  jl2201.o(i.PHY2_WAIT_RESET_OK)
    PendSV_Handler                           0x08000f31   Thumb Code     2  stm32f1xx_it.o(i.PendSV_Handler)
    SVC_Handler                              0x08000f5d   Thumb Code     2  stm32f1xx_it.o(i.SVC_Handler)
    SysTick_Handler                          0x08000f5f   Thumb Code     8  stm32f1xx_it.o(i.SysTick_Handler)
    SystemClock_Config                       0x08000f67   Thumb Code    80  main.o(i.SystemClock_Config)
    SystemInit                               0x08000fb7   Thumb Code     2  system_stm32f1xx.o(i.SystemInit)
    UsageFault_Handler                       0x08000fb9   Thumb Code     4  stm32f1xx_it.o(i.UsageFault_Handler)
    __scatterload_copy                       0x08000ff5   Thumb Code    14  handlers.o(i.__scatterload_copy)
    __scatterload_null                       0x08001003   Thumb Code     2  handlers.o(i.__scatterload_null)
    __scatterload_zeroinit                   0x08001005   Thumb Code    14  handlers.o(i.__scatterload_zeroinit)
    bit_get                                  0x08001013   Thumb Code    44  mdio.o(i.bit_get)
    bit_set                                  0x0800103f   Thumb Code    48  mdio.o(i.bit_set)
    main                                     0x08001071   Thumb Code   222  main.o(i.main)
    mdc_phy1_fn                              0x0800117d   Thumb Code    32  jl3113.o(i.mdc_phy1_fn)
    mdc_phy2_fn                              0x080011a1   Thumb Code    32  jl2201.o(i.mdc_phy2_fn)
    mdio_clause22_read                       0x080011c5   Thumb Code    24  mdio.o(i.mdio_clause22_read)
    mdio_clause22_write                      0x080011dd   Thumb Code    32  mdio.o(i.mdio_clause22_write)
    mdio_clause45_addr                       0x080011fd   Thumb Code    32  mdio.o(i.mdio_clause45_addr)
    mdio_clause45_read                       0x0800121d   Thumb Code    24  mdio.o(i.mdio_clause45_read)
    mdio_clause45_write                      0x08001235   Thumb Code    32  mdio.o(i.mdio_clause45_write)
    mdio_ctl_t_init1                         0x08001279   Thumb Code    20  jl3113.o(i.mdio_ctl_t_init1)
    mdio_phy1_fn                             0x0800129d   Thumb Code    32  jl3113.o(i.mdio_phy1_fn)
    mdio_phy1_read_fn                        0x080012c1   Thumb Code    14  jl3113.o(i.mdio_phy1_read_fn)
    mdio_phy2_fn                             0x080012d5   Thumb Code    32  jl2201.o(i.mdio_phy2_fn)
    mdio_phy2_read_fn                        0x080012f9   Thumb Code    14  jl2201.o(i.mdio_phy2_read_fn)
    mdio_read                                0x0800130d   Thumb Code   210  mdio.o(i.mdio_read)
    mdio_write                               0x080013df   Thumb Code   208  mdio.o(i.mdio_write)
    mode_config_phy1                         0x080014b1   Thumb Code   430  jl3113.o(i.mode_config_phy1)
    mode_config_phy2                         0x08001685   Thumb Code   130  jl2201.o(i.mode_config_phy2)
    read_link_flag                           0x08001729   Thumb Code   210  jl3113.o(i.read_link_flag)
    udelay                                   0x08001801   Thumb Code    38  mdio.o(i.udelay)
    AHBPrescTable                            0x08001848   Data          16  system_stm32f1xx.o(.constdata)
    APBPrescTable                            0x08001858   Data           8  system_stm32f1xx.o(.constdata)
    Region$$Table$$Base                      0x08001860   Number         0  anon$$obj.o(Region$$Table)
    Region$$Table$$Limit                     0x08001880   Number         0  anon$$obj.o(Region$$Table)
    id_0                                     0x20000074   Data           2  jl2201.o(.data)
    linkstate                                0x200000ec   Data           2  jl3113.o(.data)
    speed                                    0x200000f0   Data           4  jl3113.o(.data)
    state                                    0x200000f4   Data           4  jl3113.o(.data)
    uwTick                                   0x200000f8   Data           4  stm32f1xx_hal.o(.data)
    uwTickPrio                               0x200000fc   Data           4  stm32f1xx_hal.o(.data)
    uwTickFreq                               0x20000100   Data           1  stm32f1xx_hal.o(.data)
    SystemCoreClock                          0x20000104   Data           4  system_stm32f1xx.o(.data)
    __initial_sp                             0x20000658   Data           0  startup_stm32f103xb.o(STACK)



==============================================================================

Memory Map of the image

  Image Entry point : 0x080000ed

  Load Region LR_IROM1 (Base: 0x08000000, Size: 0x00001988, Max: 0x00010000, ABSOLUTE)

    Execution Region ER_IROM1 (Exec base: 0x08000000, Load base: 0x08000000, Size: 0x00001880, Max: 0x00010000, ABSOLUTE)

    Exec Addr    Load Addr    Size         Type   Attr      Idx    E Section Name        Object

    0x08000000   0x08000000   0x000000ec   Data   RO            3    RESET               startup_stm32f103xb.o
    0x080000ec   0x080000ec   0x00000000   Code   RO         1661  * .ARM.Collect$$$$00000000  mc_w.l(entry.o)
    0x080000ec   0x080000ec   0x00000004   Code   RO         1668    .ARM.Collect$$$$00000001  mc_w.l(entry2.o)
    0x080000f0   0x080000f0   0x00000004   Code   RO         1671    .ARM.Collect$$$$00000004  mc_w.l(entry5.o)
    0x080000f4   0x080000f4   0x00000000   Code   RO         1673    .ARM.Collect$$$$00000008  mc_w.l(entry7b.o)
    0x080000f4   0x080000f4   0x00000000   Code   RO         1675    .ARM.Collect$$$$0000000A  mc_w.l(entry8b.o)
    0x080000f4   0x080000f4   0x00000008   Code   RO         1676    .ARM.Collect$$$$0000000B  mc_w.l(entry9a.o)
    0x080000fc   0x080000fc   0x00000004   Code   RO         1683    .ARM.Collect$$$$0000000E  mc_w.l(entry12b.o)
    0x08000100   0x08000100   0x00000000   Code   RO         1678    .ARM.Collect$$$$0000000F  mc_w.l(entry10a.o)
    0x08000100   0x08000100   0x00000000   Code   RO         1680    .ARM.Collect$$$$00000011  mc_w.l(entry11a.o)
    0x08000100   0x08000100   0x00000004   Code   RO         1669    .ARM.Collect$$$$00002712  mc_w.l(entry2.o)
    0x08000104   0x08000104   0x00000024   Code   RO            4    .text               startup_stm32f103xb.o
    0x08000128   0x08000128   0x00000024   Code   RO         1666    .text               mc_w.l(memseta.o)
    0x0800014c   0x0800014c   0x00000024   Code   RO         1684    .text               mc_w.l(init.o)
    0x08000170   0x08000170   0x00000004   Code   RO          228    i.BusFault_Handler  stm32f1xx_it.o
    0x08000174   0x08000174   0x00000002   Code   RO          229    i.DebugMon_Handler  stm32f1xx_it.o
    0x08000176   0x08000176   0x00000006   Code   RO           92    i.Error_Handler     main.o
    0x0800017c   0x0800017c   0x000000d0   Code   RO          517    i.GPIO_Init         gpio.o
    0x0800024c   0x0800024c   0x00000320   Code   RO          941    i.HAL_GPIO_Init     stm32f1xx_hal_gpio.o
    0x0800056c   0x0800056c   0x00000010   Code   RO          943    i.HAL_GPIO_ReadPin  stm32f1xx_hal_gpio.o
    0x0800057c   0x0800057c   0x0000000c   Code   RO          945    i.HAL_GPIO_WritePin  stm32f1xx_hal_gpio.o
    0x08000588   0x08000588   0x0000000c   Code   RO          632    i.HAL_GetTick       stm32f1xx_hal.o
    0x08000594   0x08000594   0x00000018   Code   RO          638    i.HAL_IncTick       stm32f1xx_hal.o
    0x080005ac   0x080005ac   0x00000028   Code   RO          639    i.HAL_Init          stm32f1xx_hal.o
    0x080005d4   0x080005d4   0x0000004c   Code   RO          640    i.HAL_InitTick      stm32f1xx_hal.o
    0x08000620   0x08000620   0x00000054   Code   RO          309    i.HAL_MspInit       stm32f1xx_hal_msp.o
    0x08000674   0x08000674   0x0000007c   Code   RO         1107    i.HAL_NVIC_SetPriority  stm32f1xx_hal_cortex.o
    0x080006f0   0x080006f0   0x00000028   Code   RO         1108    i.HAL_NVIC_SetPriorityGrouping  stm32f1xx_hal_cortex.o
    0x08000718   0x08000718   0x0000018c   Code   RO          796    i.HAL_RCC_ClockConfig  stm32f1xx_hal_rcc.o
    0x080008a4   0x080008a4   0x00000094   Code   RO          805    i.HAL_RCC_GetSysClockFreq  stm32f1xx_hal_rcc.o
    0x08000938   0x08000938   0x00000464   Code   RO          808    i.HAL_RCC_OscConfig  stm32f1xx_hal_rcc.o
    0x08000d9c   0x08000d9c   0x00000034   Code   RO         1112    i.HAL_SYSTICK_Config  stm32f1xx_hal_cortex.o
    0x08000dd0   0x08000dd0   0x00000004   Code   RO          230    i.HardFault_Handler  stm32f1xx_it.o
    0x08000dd4   0x08000dd4   0x00000004   Code   RO          231    i.MemManage_Handler  stm32f1xx_it.o
    0x08000dd8   0x08000dd8   0x00000004   Code   RO          232    i.NMI_Handler       stm32f1xx_it.o
    0x08000ddc   0x08000ddc   0x0000003c   Code   RO          421    i.PHY1_Init         jl3113.o
    0x08000e18   0x08000e18   0x00000040   Code   RO          422    i.PHY1_RESET        jl3113.o
    0x08000e58   0x08000e58   0x00000030   Code   RO          423    i.PHY1_WAIT_RESET_OK  jl3113.o
    0x08000e88   0x08000e88   0x00000040   Code   RO          335    i.PHY2_Init         jl2201.o
    0x08000ec8   0x08000ec8   0x00000030   Code   RO          336    i.PHY2_RESET        jl2201.o
    0x08000ef8   0x08000ef8   0x00000012   Code   RO          337    i.PHY2_START        jl2201.o
    0x08000f0a   0x08000f0a   0x00000002   PAD
    0x08000f0c   0x08000f0c   0x00000024   Code   RO          338    i.PHY2_WAIT_RESET_OK  jl2201.o
    0x08000f30   0x08000f30   0x00000002   Code   RO          233    i.PendSV_Handler    stm32f1xx_it.o
    0x08000f32   0x08000f32   0x00000002   PAD
    0x08000f34   0x08000f34   0x00000028   Code   RO          809    i.RCC_Delay         stm32f1xx_hal_rcc.o
    0x08000f5c   0x08000f5c   0x00000002   Code   RO          234    i.SVC_Handler       stm32f1xx_it.o
    0x08000f5e   0x08000f5e   0x00000008   Code   RO          235    i.SysTick_Handler   stm32f1xx_it.o
    0x08000f66   0x08000f66   0x00000050   Code   RO           94    i.SystemClock_Config  main.o
    0x08000fb6   0x08000fb6   0x00000002   Code   RO         1628    i.SystemInit        system_stm32f1xx.o
    0x08000fb8   0x08000fb8   0x00000004   Code   RO          236    i.UsageFault_Handler  stm32f1xx_it.o
    0x08000fbc   0x08000fbc   0x00000010   Code   RO         1114    i.__NVIC_GetPriorityGrouping  stm32f1xx_hal_cortex.o
    0x08000fcc   0x08000fcc   0x00000028   Code   RO         1115    i.__NVIC_SetPriority  stm32f1xx_hal_cortex.o
    0x08000ff4   0x08000ff4   0x0000000e   Code   RO         1688    i.__scatterload_copy  mc_w.l(handlers.o)
    0x08001002   0x08001002   0x00000002   Code   RO         1689    i.__scatterload_null  mc_w.l(handlers.o)
    0x08001004   0x08001004   0x0000000e   Code   RO         1690    i.__scatterload_zeroinit  mc_w.l(handlers.o)
    0x08001012   0x08001012   0x0000002c   Code   RO           10    i.bit_get           mdio.o
    0x0800103e   0x0800103e   0x00000030   Code   RO           11    i.bit_set           mdio.o
    0x0800106e   0x0800106e   0x00000002   PAD
    0x08001070   0x08001070   0x0000010c   Code   RO           95    i.main              main.o
    0x0800117c   0x0800117c   0x00000024   Code   RO          424    i.mdc_phy1_fn       jl3113.o
    0x080011a0   0x080011a0   0x00000024   Code   RO          339    i.mdc_phy2_fn       jl2201.o
    0x080011c4   0x080011c4   0x00000018   Code   RO           12    i.mdio_clause22_read  mdio.o
    0x080011dc   0x080011dc   0x00000020   Code   RO           13    i.mdio_clause22_write  mdio.o
    0x080011fc   0x080011fc   0x00000020   Code   RO           14    i.mdio_clause45_addr  mdio.o
    0x0800121c   0x0800121c   0x00000018   Code   RO           15    i.mdio_clause45_read  mdio.o
    0x08001234   0x08001234   0x00000020   Code   RO           17    i.mdio_clause45_write  mdio.o
    0x08001254   0x08001254   0x00000024   Code   RO          340    i.mdio_ctl_t_init   jl2201.o
    0x08001278   0x08001278   0x00000024   Code   RO          425    i.mdio_ctl_t_init1  jl3113.o
    0x0800129c   0x0800129c   0x00000024   Code   RO          426    i.mdio_phy1_fn      jl3113.o
    0x080012c0   0x080012c0   0x00000014   Code   RO          427    i.mdio_phy1_read_fn  jl3113.o
    0x080012d4   0x080012d4   0x00000024   Code   RO          341    i.mdio_phy2_fn      jl2201.o
    0x080012f8   0x080012f8   0x00000014   Code   RO          342    i.mdio_phy2_read_fn  jl2201.o
    0x0800130c   0x0800130c   0x000000d2   Code   RO           18    i.mdio_read         mdio.o
    0x080013de   0x080013de   0x000000d0   Code   RO           19    i.mdio_write        mdio.o
    0x080014ae   0x080014ae   0x00000002   PAD
    0x080014b0   0x080014b0   0x000001d4   Code   RO          429    i.mode_config_phy1  jl3113.o
    0x08001684   0x08001684   0x000000a4   Code   RO          344    i.mode_config_phy2  jl2201.o
    0x08001728   0x08001728   0x000000d8   Code   RO          430    i.read_link_flag    jl3113.o
    0x08001800   0x08001800   0x00000026   Code   RO           20    i.udelay            mdio.o
    0x08001826   0x08001826   0x00000002   PAD
    0x08001828   0x08001828   0x00000020   Data   RO          433    .constdata          jl3113.o
    0x08001848   0x08001848   0x00000018   Data   RO         1629    .constdata          system_stm32f1xx.o
    0x08001860   0x08001860   0x00000020   Data   RO         1686    Region$$Table       anon$$obj.o


    Execution Region RW_IRAM1 (Exec base: 0x20000000, Load base: 0x08001880, Size: 0x00000658, Max: 0x00005000, ABSOLUTE)

    Exec Addr    Load Addr    Size         Type   Attr      Idx    E Section Name        Object

    0x20000000   0x08001880   0x00000076   Data   RW          347    .data               jl2201.o
    0x20000076   0x080018f6   0x00000002   PAD
    0x20000078   0x080018f8   0x00000080   Data   RW          434    .data               jl3113.o
    0x200000f8   0x08001978   0x00000009   Data   RW          646    .data               stm32f1xx_hal.o
    0x20000101   0x08001981   0x00000003   PAD
    0x20000104   0x08001984   0x00000004   Data   RW         1630    .data               system_stm32f1xx.o
    0x20000108        -       0x000000b4   Zero   RW           96    .bss                main.o
    0x200001bc        -       0x00000034   Zero   RW          345    .bss                jl2201.o
    0x200001f0        -       0x00000064   Zero   RW          432    .bss                jl3113.o
    0x20000254   0x08001988   0x00000004   PAD
    0x20000258        -       0x00000400   Zero   RW            1    STACK               startup_stm32f103xb.o


==============================================================================

Image component sizes


      Code (inc. data)   RO Data    RW Data    ZI Data      Debug   Object Name

       208          8          0          0          0       1036   gpio.o
       458         84          0        118         52       5934   jl2201.o
       984         88         32        128        100       7177   jl3113.o
       354         46          0          0        180     406397   main.o
       692          0          0          0          0      12277   mdio.o
        36          8        236          0       1024        816   startup_stm32f103xb.o
       152         32          0          9          0       5349   stm32f1xx_hal.o
       272         22          0          0          0      28814   stm32f1xx_hal_cortex.o
       828         34          0          0          0       3355   stm32f1xx_hal_gpio.o
        84          8          0          0          0        910   stm32f1xx_hal_msp.o
      1708         84          0          0          0       4428   stm32f1xx_hal_rcc.o
        34          0          0          0          0       4022   stm32f1xx_it.o
         2          0         24          4          0       1151   system_stm32f1xx.o

    ----------------------------------------------------------------------
      5822        414        324        264       1360     481666   Object Totals
         0          0         32          0          0          0   (incl. Generated)
        10          0          0          5          4          0   (incl. Padding)

    ----------------------------------------------------------------------

      Code (inc. data)   RO Data    RW Data    ZI Data      Debug   Library Member Name

         0          0          0          0          0          0   entry.o
         0          0          0          0          0          0   entry10a.o
         0          0          0          0          0          0   entry11a.o
         4          0          0          0          0          0   entry12b.o
         8          4          0          0          0          0   entry2.o
         4          0          0          0          0          0   entry5.o
         0          0          0          0          0          0   entry7b.o
         0          0          0          0          0          0   entry8b.o
         8          4          0          0          0          0   entry9a.o
        30          0          0          0          0          0   handlers.o
        36          8          0          0          0         68   init.o
        36          0          0          0          0        108   memseta.o

    ----------------------------------------------------------------------
       126         16          0          0          0        176   Library Totals
         0          0          0          0          0          0   (incl. Padding)

    ----------------------------------------------------------------------

      Code (inc. data)   RO Data    RW Data    ZI Data      Debug   Library Name

       126         16          0          0          0        176   mc_w.l

    ----------------------------------------------------------------------
       126         16          0          0          0        176   Library Totals

    ----------------------------------------------------------------------

==============================================================================


      Code (inc. data)   RO Data    RW Data    ZI Data      Debug   

      5948        430        324        264       1360     479134   Grand Totals
      5948        430        324        264       1360     479134   ELF Image Totals
      5948        430        324        264          0          0   ROM Totals

==============================================================================

    Total RO  Size (Code + RO Data)                 6272 (   6.13kB)
    Total RW  Size (RW Data + ZI Data)              1624 (   1.59kB)
    Total ROM Size (Code + RO Data + RW Data)       6536 (   6.38kB)

==============================================================================

