Archive member included to satisfy reference by file (symbol)

D:/Soft/Devlopment Tools/CubIDE/STM32CubeIDE_1.13.2/STM32CubeIDE/plugins/com.st.stm32cube.ide.mcu.externaltools.gnu-tools-for-stm32.11.3.rel1.win32_1.1.1.202309131626/tools/bin/../lib/gcc/arm-none-eabi/11.3.1/../../../../arm-none-eabi/lib/thumb/v7e-m+dp/hard\libc_nano.a(libc_a-atoi.o)
                              ./Middlewares/Third_Party/LwIP/src/core/netif.o (atoi)
D:/Soft/Devlopment Tools/CubIDE/STM32CubeIDE_1.13.2/STM32CubeIDE/plugins/com.st.stm32cube.ide.mcu.externaltools.gnu-tools-for-stm32.11.3.rel1.win32_1.1.1.202309131626/tools/bin/../lib/gcc/arm-none-eabi/11.3.1/../../../../arm-none-eabi/lib/thumb/v7e-m+dp/hard\libc_nano.a(libc_a-exit.o)
                              D:/Soft/Devlopment Tools/CubIDE/STM32CubeIDE_1.13.2/STM32CubeIDE/plugins/com.st.stm32cube.ide.mcu.externaltools.gnu-tools-for-stm32.11.3.rel1.win32_1.1.1.202309131626/tools/bin/../lib/gcc/arm-none-eabi/11.3.1/../../../../arm-none-eabi/lib/thumb/v7e-m+dp/hard/crt0.o (exit)
D:/Soft/Devlopment Tools/CubIDE/STM32CubeIDE_1.13.2/STM32CubeIDE/plugins/com.st.stm32cube.ide.mcu.externaltools.gnu-tools-for-stm32.11.3.rel1.win32_1.1.1.202309131626/tools/bin/../lib/gcc/arm-none-eabi/11.3.1/../../../../arm-none-eabi/lib/thumb/v7e-m+dp/hard\libc_nano.a(libc_a-rand.o)
                              ./Middlewares/Third_Party/LwIP/src/core/tcp.o (rand)
D:/Soft/Devlopment Tools/CubIDE/STM32CubeIDE_1.13.2/STM32CubeIDE/plugins/com.st.stm32cube.ide.mcu.externaltools.gnu-tools-for-stm32.11.3.rel1.win32_1.1.1.202309131626/tools/bin/../lib/gcc/arm-none-eabi/11.3.1/../../../../arm-none-eabi/lib/thumb/v7e-m+dp/hard\libc_nano.a(libc_a-strtol.o)
                              D:/Soft/Devlopment Tools/CubIDE/STM32CubeIDE_1.13.2/STM32CubeIDE/plugins/com.st.stm32cube.ide.mcu.externaltools.gnu-tools-for-stm32.11.3.rel1.win32_1.1.1.202309131626/tools/bin/../lib/gcc/arm-none-eabi/11.3.1/../../../../arm-none-eabi/lib/thumb/v7e-m+dp/hard\libc_nano.a(libc_a-atoi.o) (_strtol_r)
D:/Soft/Devlopment Tools/CubIDE/STM32CubeIDE_1.13.2/STM32CubeIDE/plugins/com.st.stm32cube.ide.mcu.externaltools.gnu-tools-for-stm32.11.3.rel1.win32_1.1.1.202309131626/tools/bin/../lib/gcc/arm-none-eabi/11.3.1/../../../../arm-none-eabi/lib/thumb/v7e-m+dp/hard\libc_nano.a(libc_a-ctype_.o)
                              ./Middlewares/Third_Party/LwIP/src/core/ipv4/ip4_addr.o (_ctype_)
D:/Soft/Devlopment Tools/CubIDE/STM32CubeIDE_1.13.2/STM32CubeIDE/plugins/com.st.stm32cube.ide.mcu.externaltools.gnu-tools-for-stm32.11.3.rel1.win32_1.1.1.202309131626/tools/bin/../lib/gcc/arm-none-eabi/11.3.1/../../../../arm-none-eabi/lib/thumb/v7e-m+dp/hard\libc_nano.a(libc_a-nano-vfprintf_float.o)
                              (_printf_float)
D:/Soft/Devlopment Tools/CubIDE/STM32CubeIDE_1.13.2/STM32CubeIDE/plugins/com.st.stm32cube.ide.mcu.externaltools.gnu-tools-for-stm32.11.3.rel1.win32_1.1.1.202309131626/tools/bin/../lib/gcc/arm-none-eabi/11.3.1/../../../../arm-none-eabi/lib/thumb/v7e-m+dp/hard\libc_nano.a(libc_a-nano-vfprintf_i.o)
                              D:/Soft/Devlopment Tools/CubIDE/STM32CubeIDE_1.13.2/STM32CubeIDE/plugins/com.st.stm32cube.ide.mcu.externaltools.gnu-tools-for-stm32.11.3.rel1.win32_1.1.1.202309131626/tools/bin/../lib/gcc/arm-none-eabi/11.3.1/../../../../arm-none-eabi/lib/thumb/v7e-m+dp/hard\libc_nano.a(libc_a-nano-vfprintf_float.o) (_printf_common)
D:/Soft/Devlopment Tools/CubIDE/STM32CubeIDE_1.13.2/STM32CubeIDE/plugins/com.st.stm32cube.ide.mcu.externaltools.gnu-tools-for-stm32.11.3.rel1.win32_1.1.1.202309131626/tools/bin/../lib/gcc/arm-none-eabi/11.3.1/../../../../arm-none-eabi/lib/thumb/v7e-m+dp/hard\libc_nano.a(libc_a-nano-vfscanf_float.o)
                              (_scanf_float)
D:/Soft/Devlopment Tools/CubIDE/STM32CubeIDE_1.13.2/STM32CubeIDE/plugins/com.st.stm32cube.ide.mcu.externaltools.gnu-tools-for-stm32.11.3.rel1.win32_1.1.1.202309131626/tools/bin/../lib/gcc/arm-none-eabi/11.3.1/../../../../arm-none-eabi/lib/thumb/v7e-m+dp/hard\libc_nano.a(libc_a-findfp.o)
                              D:/Soft/Devlopment Tools/CubIDE/STM32CubeIDE_1.13.2/STM32CubeIDE/plugins/com.st.stm32cube.ide.mcu.externaltools.gnu-tools-for-stm32.11.3.rel1.win32_1.1.1.202309131626/tools/bin/../lib/gcc/arm-none-eabi/11.3.1/../../../../arm-none-eabi/lib/thumb/v7e-m+dp/hard\libc_nano.a(libc_a-exit.o) (__stdio_exit_handler)
D:/Soft/Devlopment Tools/CubIDE/STM32CubeIDE_1.13.2/STM32CubeIDE/plugins/com.st.stm32cube.ide.mcu.externaltools.gnu-tools-for-stm32.11.3.rel1.win32_1.1.1.202309131626/tools/bin/../lib/gcc/arm-none-eabi/11.3.1/../../../../arm-none-eabi/lib/thumb/v7e-m+dp/hard\libc_nano.a(libc_a-fwalk.o)
                              D:/Soft/Devlopment Tools/CubIDE/STM32CubeIDE_1.13.2/STM32CubeIDE/plugins/com.st.stm32cube.ide.mcu.externaltools.gnu-tools-for-stm32.11.3.rel1.win32_1.1.1.202309131626/tools/bin/../lib/gcc/arm-none-eabi/11.3.1/../../../../arm-none-eabi/lib/thumb/v7e-m+dp/hard\libc_nano.a(libc_a-findfp.o) (_fwalk_sglue)
D:/Soft/Devlopment Tools/CubIDE/STM32CubeIDE_1.13.2/STM32CubeIDE/plugins/com.st.stm32cube.ide.mcu.externaltools.gnu-tools-for-stm32.11.3.rel1.win32_1.1.1.202309131626/tools/bin/../lib/gcc/arm-none-eabi/11.3.1/../../../../arm-none-eabi/lib/thumb/v7e-m+dp/hard\libc_nano.a(libc_a-printf.o)
                              ./LWIP/Target/ethernetif.o (printf)
D:/Soft/Devlopment Tools/CubIDE/STM32CubeIDE_1.13.2/STM32CubeIDE/plugins/com.st.stm32cube.ide.mcu.externaltools.gnu-tools-for-stm32.11.3.rel1.win32_1.1.1.202309131626/tools/bin/../lib/gcc/arm-none-eabi/11.3.1/../../../../arm-none-eabi/lib/thumb/v7e-m+dp/hard\libc_nano.a(libc_a-sprintf.o)
                              D:/Soft/Devlopment Tools/CubIDE/STM32CubeIDE_1.13.2/STM32CubeIDE/plugins/com.st.stm32cube.ide.mcu.externaltools.gnu-tools-for-stm32.11.3.rel1.win32_1.1.1.202309131626/tools/bin/../lib/gcc/arm-none-eabi/11.3.1/../../../../arm-none-eabi/lib/thumb/v7e-m+dp/hard\libc_nano.a(libc_a-nano-vfscanf_float.o) (sprintf)
D:/Soft/Devlopment Tools/CubIDE/STM32CubeIDE_1.13.2/STM32CubeIDE/plugins/com.st.stm32cube.ide.mcu.externaltools.gnu-tools-for-stm32.11.3.rel1.win32_1.1.1.202309131626/tools/bin/../lib/gcc/arm-none-eabi/11.3.1/../../../../arm-none-eabi/lib/thumb/v7e-m+dp/hard\libc_nano.a(libc_a-stdio.o)
                              D:/Soft/Devlopment Tools/CubIDE/STM32CubeIDE_1.13.2/STM32CubeIDE/plugins/com.st.stm32cube.ide.mcu.externaltools.gnu-tools-for-stm32.11.3.rel1.win32_1.1.1.202309131626/tools/bin/../lib/gcc/arm-none-eabi/11.3.1/../../../../arm-none-eabi/lib/thumb/v7e-m+dp/hard\libc_nano.a(libc_a-findfp.o) (__sread)
D:/Soft/Devlopment Tools/CubIDE/STM32CubeIDE_1.13.2/STM32CubeIDE/plugins/com.st.stm32cube.ide.mcu.externaltools.gnu-tools-for-stm32.11.3.rel1.win32_1.1.1.202309131626/tools/bin/../lib/gcc/arm-none-eabi/11.3.1/../../../../arm-none-eabi/lib/thumb/v7e-m+dp/hard\libc_nano.a(libc_a-memcmp.o)
                              ./Middlewares/Third_Party/LwIP/src/netif/bridgeif_fdb.o (memcmp)
D:/Soft/Devlopment Tools/CubIDE/STM32CubeIDE_1.13.2/STM32CubeIDE/plugins/com.st.stm32cube.ide.mcu.externaltools.gnu-tools-for-stm32.11.3.rel1.win32_1.1.1.202309131626/tools/bin/../lib/gcc/arm-none-eabi/11.3.1/../../../../arm-none-eabi/lib/thumb/v7e-m+dp/hard\libc_nano.a(libc_a-memmove.o)
                              ./Middlewares/Third_Party/LwIP/src/core/def.o (memmove)
D:/Soft/Devlopment Tools/CubIDE/STM32CubeIDE_1.13.2/STM32CubeIDE/plugins/com.st.stm32cube.ide.mcu.externaltools.gnu-tools-for-stm32.11.3.rel1.win32_1.1.1.202309131626/tools/bin/../lib/gcc/arm-none-eabi/11.3.1/../../../../arm-none-eabi/lib/thumb/v7e-m+dp/hard\libc_nano.a(libc_a-memset.o)
                              D:/Soft/Devlopment Tools/CubIDE/STM32CubeIDE_1.13.2/STM32CubeIDE/plugins/com.st.stm32cube.ide.mcu.externaltools.gnu-tools-for-stm32.11.3.rel1.win32_1.1.1.202309131626/tools/bin/../lib/gcc/arm-none-eabi/11.3.1/../../../../arm-none-eabi/lib/thumb/v7e-m+dp/hard/crt0.o (memset)
D:/Soft/Devlopment Tools/CubIDE/STM32CubeIDE_1.13.2/STM32CubeIDE/plugins/com.st.stm32cube.ide.mcu.externaltools.gnu-tools-for-stm32.11.3.rel1.win32_1.1.1.202309131626/tools/bin/../lib/gcc/arm-none-eabi/11.3.1/../../../../arm-none-eabi/lib/thumb/v7e-m+dp/hard\libc_nano.a(libc_a-strncmp.o)
                              ./Middlewares/Third_Party/LwIP/src/core/def.o (strncmp)
D:/Soft/Devlopment Tools/CubIDE/STM32CubeIDE_1.13.2/STM32CubeIDE/plugins/com.st.stm32cube.ide.mcu.externaltools.gnu-tools-for-stm32.11.3.rel1.win32_1.1.1.202309131626/tools/bin/../lib/gcc/arm-none-eabi/11.3.1/../../../../arm-none-eabi/lib/thumb/v7e-m+dp/hard\libc_nano.a(libc_a-localeconv.o)
                              D:/Soft/Devlopment Tools/CubIDE/STM32CubeIDE_1.13.2/STM32CubeIDE/plugins/com.st.stm32cube.ide.mcu.externaltools.gnu-tools-for-stm32.11.3.rel1.win32_1.1.1.202309131626/tools/bin/../lib/gcc/arm-none-eabi/11.3.1/../../../../arm-none-eabi/lib/thumb/v7e-m+dp/hard\libc_nano.a(libc_a-nano-vfprintf_float.o) (_localeconv_r)
D:/Soft/Devlopment Tools/CubIDE/STM32CubeIDE_1.13.2/STM32CubeIDE/plugins/com.st.stm32cube.ide.mcu.externaltools.gnu-tools-for-stm32.11.3.rel1.win32_1.1.1.202309131626/tools/bin/../lib/gcc/arm-none-eabi/11.3.1/../../../../arm-none-eabi/lib/thumb/v7e-m+dp/hard\libc_nano.a(libc_a-closer.o)
                              D:/Soft/Devlopment Tools/CubIDE/STM32CubeIDE_1.13.2/STM32CubeIDE/plugins/com.st.stm32cube.ide.mcu.externaltools.gnu-tools-for-stm32.11.3.rel1.win32_1.1.1.202309131626/tools/bin/../lib/gcc/arm-none-eabi/11.3.1/../../../../arm-none-eabi/lib/thumb/v7e-m+dp/hard\libc_nano.a(libc_a-stdio.o) (_close_r)
D:/Soft/Devlopment Tools/CubIDE/STM32CubeIDE_1.13.2/STM32CubeIDE/plugins/com.st.stm32cube.ide.mcu.externaltools.gnu-tools-for-stm32.11.3.rel1.win32_1.1.1.202309131626/tools/bin/../lib/gcc/arm-none-eabi/11.3.1/../../../../arm-none-eabi/lib/thumb/v7e-m+dp/hard\libc_nano.a(libc_a-reent.o)
                              ./Core/Src/syscalls.o (errno)
D:/Soft/Devlopment Tools/CubIDE/STM32CubeIDE_1.13.2/STM32CubeIDE/plugins/com.st.stm32cube.ide.mcu.externaltools.gnu-tools-for-stm32.11.3.rel1.win32_1.1.1.202309131626/tools/bin/../lib/gcc/arm-none-eabi/11.3.1/../../../../arm-none-eabi/lib/thumb/v7e-m+dp/hard\libc_nano.a(libc_a-impure.o)
                              D:/Soft/Devlopment Tools/CubIDE/STM32CubeIDE_1.13.2/STM32CubeIDE/plugins/com.st.stm32cube.ide.mcu.externaltools.gnu-tools-for-stm32.11.3.rel1.win32_1.1.1.202309131626/tools/bin/../lib/gcc/arm-none-eabi/11.3.1/../../../../arm-none-eabi/lib/thumb/v7e-m+dp/hard\libc_nano.a(libc_a-rand.o) (_impure_ptr)
D:/Soft/Devlopment Tools/CubIDE/STM32CubeIDE_1.13.2/STM32CubeIDE/plugins/com.st.stm32cube.ide.mcu.externaltools.gnu-tools-for-stm32.11.3.rel1.win32_1.1.1.202309131626/tools/bin/../lib/gcc/arm-none-eabi/11.3.1/../../../../arm-none-eabi/lib/thumb/v7e-m+dp/hard\libc_nano.a(libc_a-lseekr.o)
                              D:/Soft/Devlopment Tools/CubIDE/STM32CubeIDE_1.13.2/STM32CubeIDE/plugins/com.st.stm32cube.ide.mcu.externaltools.gnu-tools-for-stm32.11.3.rel1.win32_1.1.1.202309131626/tools/bin/../lib/gcc/arm-none-eabi/11.3.1/../../../../arm-none-eabi/lib/thumb/v7e-m+dp/hard\libc_nano.a(libc_a-stdio.o) (_lseek_r)
D:/Soft/Devlopment Tools/CubIDE/STM32CubeIDE_1.13.2/STM32CubeIDE/plugins/com.st.stm32cube.ide.mcu.externaltools.gnu-tools-for-stm32.11.3.rel1.win32_1.1.1.202309131626/tools/bin/../lib/gcc/arm-none-eabi/11.3.1/../../../../arm-none-eabi/lib/thumb/v7e-m+dp/hard\libc_nano.a(libc_a-readr.o)
                              D:/Soft/Devlopment Tools/CubIDE/STM32CubeIDE_1.13.2/STM32CubeIDE/plugins/com.st.stm32cube.ide.mcu.externaltools.gnu-tools-for-stm32.11.3.rel1.win32_1.1.1.202309131626/tools/bin/../lib/gcc/arm-none-eabi/11.3.1/../../../../arm-none-eabi/lib/thumb/v7e-m+dp/hard\libc_nano.a(libc_a-stdio.o) (_read_r)
D:/Soft/Devlopment Tools/CubIDE/STM32CubeIDE_1.13.2/STM32CubeIDE/plugins/com.st.stm32cube.ide.mcu.externaltools.gnu-tools-for-stm32.11.3.rel1.win32_1.1.1.202309131626/tools/bin/../lib/gcc/arm-none-eabi/11.3.1/../../../../arm-none-eabi/lib/thumb/v7e-m+dp/hard\libc_nano.a(libc_a-writer.o)
                              D:/Soft/Devlopment Tools/CubIDE/STM32CubeIDE_1.13.2/STM32CubeIDE/plugins/com.st.stm32cube.ide.mcu.externaltools.gnu-tools-for-stm32.11.3.rel1.win32_1.1.1.202309131626/tools/bin/../lib/gcc/arm-none-eabi/11.3.1/../../../../arm-none-eabi/lib/thumb/v7e-m+dp/hard\libc_nano.a(libc_a-stdio.o) (_write_r)
D:/Soft/Devlopment Tools/CubIDE/STM32CubeIDE_1.13.2/STM32CubeIDE/plugins/com.st.stm32cube.ide.mcu.externaltools.gnu-tools-for-stm32.11.3.rel1.win32_1.1.1.202309131626/tools/bin/../lib/gcc/arm-none-eabi/11.3.1/../../../../arm-none-eabi/lib/thumb/v7e-m+dp/hard\libc_nano.a(libc_a-errno.o)
                              D:/Soft/Devlopment Tools/CubIDE/STM32CubeIDE_1.13.2/STM32CubeIDE/plugins/com.st.stm32cube.ide.mcu.externaltools.gnu-tools-for-stm32.11.3.rel1.win32_1.1.1.202309131626/tools/bin/../lib/gcc/arm-none-eabi/11.3.1/../../../../arm-none-eabi/lib/thumb/v7e-m+dp/hard\libc_nano.a(libc_a-strtol.o) (__errno)
D:/Soft/Devlopment Tools/CubIDE/STM32CubeIDE_1.13.2/STM32CubeIDE/plugins/com.st.stm32cube.ide.mcu.externaltools.gnu-tools-for-stm32.11.3.rel1.win32_1.1.1.202309131626/tools/bin/../lib/gcc/arm-none-eabi/11.3.1/../../../../arm-none-eabi/lib/thumb/v7e-m+dp/hard\libc_nano.a(libc_a-init.o)
                              D:/Soft/Devlopment Tools/CubIDE/STM32CubeIDE_1.13.2/STM32CubeIDE/plugins/com.st.stm32cube.ide.mcu.externaltools.gnu-tools-for-stm32.11.3.rel1.win32_1.1.1.202309131626/tools/bin/../lib/gcc/arm-none-eabi/11.3.1/../../../../arm-none-eabi/lib/thumb/v7e-m+dp/hard/crt0.o (__libc_init_array)
D:/Soft/Devlopment Tools/CubIDE/STM32CubeIDE_1.13.2/STM32CubeIDE/plugins/com.st.stm32cube.ide.mcu.externaltools.gnu-tools-for-stm32.11.3.rel1.win32_1.1.1.202309131626/tools/bin/../lib/gcc/arm-none-eabi/11.3.1/../../../../arm-none-eabi/lib/thumb/v7e-m+dp/hard\libc_nano.a(libc_a-lock.o)
                              D:/Soft/Devlopment Tools/CubIDE/STM32CubeIDE_1.13.2/STM32CubeIDE/plugins/com.st.stm32cube.ide.mcu.externaltools.gnu-tools-for-stm32.11.3.rel1.win32_1.1.1.202309131626/tools/bin/../lib/gcc/arm-none-eabi/11.3.1/../../../../arm-none-eabi/lib/thumb/v7e-m+dp/hard\libc_nano.a(libc_a-findfp.o) (__retarget_lock_init_recursive)
D:/Soft/Devlopment Tools/CubIDE/STM32CubeIDE_1.13.2/STM32CubeIDE/plugins/com.st.stm32cube.ide.mcu.externaltools.gnu-tools-for-stm32.11.3.rel1.win32_1.1.1.202309131626/tools/bin/../lib/gcc/arm-none-eabi/11.3.1/../../../../arm-none-eabi/lib/thumb/v7e-m+dp/hard\libc_nano.a(libc_a-memchr.o)
                              D:/Soft/Devlopment Tools/CubIDE/STM32CubeIDE_1.13.2/STM32CubeIDE/plugins/com.st.stm32cube.ide.mcu.externaltools.gnu-tools-for-stm32.11.3.rel1.win32_1.1.1.202309131626/tools/bin/../lib/gcc/arm-none-eabi/11.3.1/../../../../arm-none-eabi/lib/thumb/v7e-m+dp/hard\libc_nano.a(libc_a-nano-vfprintf_i.o) (memchr)
D:/Soft/Devlopment Tools/CubIDE/STM32CubeIDE_1.13.2/STM32CubeIDE/plugins/com.st.stm32cube.ide.mcu.externaltools.gnu-tools-for-stm32.11.3.rel1.win32_1.1.1.202309131626/tools/bin/../lib/gcc/arm-none-eabi/11.3.1/../../../../arm-none-eabi/lib/thumb/v7e-m+dp/hard\libc_nano.a(libc_a-memcpy-stub.o)
                              ./Middlewares/Third_Party/LwIP/src/core/pbuf.o (memcpy)
D:/Soft/Devlopment Tools/CubIDE/STM32CubeIDE_1.13.2/STM32CubeIDE/plugins/com.st.stm32cube.ide.mcu.externaltools.gnu-tools-for-stm32.11.3.rel1.win32_1.1.1.202309131626/tools/bin/../lib/gcc/arm-none-eabi/11.3.1/../../../../arm-none-eabi/lib/thumb/v7e-m+dp/hard\libc_nano.a(libc_a-strlen.o)
                              ./Middlewares/Third_Party/LwIP/src/apps/mqtt/mqtt.o (strlen)
D:/Soft/Devlopment Tools/CubIDE/STM32CubeIDE_1.13.2/STM32CubeIDE/plugins/com.st.stm32cube.ide.mcu.externaltools.gnu-tools-for-stm32.11.3.rel1.win32_1.1.1.202309131626/tools/bin/../lib/gcc/arm-none-eabi/11.3.1/../../../../arm-none-eabi/lib/thumb/v7e-m+dp/hard\libc_nano.a(libm_a-sf_nan.o)
                              D:/Soft/Devlopment Tools/CubIDE/STM32CubeIDE_1.13.2/STM32CubeIDE/plugins/com.st.stm32cube.ide.mcu.externaltools.gnu-tools-for-stm32.11.3.rel1.win32_1.1.1.202309131626/tools/bin/../lib/gcc/arm-none-eabi/11.3.1/../../../../arm-none-eabi/lib/thumb/v7e-m+dp/hard\libc_nano.a(libc_a-nano-vfscanf_float.o) (nanf)
D:/Soft/Devlopment Tools/CubIDE/STM32CubeIDE_1.13.2/STM32CubeIDE/plugins/com.st.stm32cube.ide.mcu.externaltools.gnu-tools-for-stm32.11.3.rel1.win32_1.1.1.202309131626/tools/bin/../lib/gcc/arm-none-eabi/11.3.1/../../../../arm-none-eabi/lib/thumb/v7e-m+dp/hard\libc_nano.a(libc_a-assert.o)
                              D:/Soft/Devlopment Tools/CubIDE/STM32CubeIDE_1.13.2/STM32CubeIDE/plugins/com.st.stm32cube.ide.mcu.externaltools.gnu-tools-for-stm32.11.3.rel1.win32_1.1.1.202309131626/tools/bin/../lib/gcc/arm-none-eabi/11.3.1/../../../../arm-none-eabi/lib/thumb/v7e-m+dp/hard\libc_nano.a(libc_a-rand.o) (__assert_func)
D:/Soft/Devlopment Tools/CubIDE/STM32CubeIDE_1.13.2/STM32CubeIDE/plugins/com.st.stm32cube.ide.mcu.externaltools.gnu-tools-for-stm32.11.3.rel1.win32_1.1.1.202309131626/tools/bin/../lib/gcc/arm-none-eabi/11.3.1/../../../../arm-none-eabi/lib/thumb/v7e-m+dp/hard\libc_nano.a(libc_a-dtoa.o)
                              D:/Soft/Devlopment Tools/CubIDE/STM32CubeIDE_1.13.2/STM32CubeIDE/plugins/com.st.stm32cube.ide.mcu.externaltools.gnu-tools-for-stm32.11.3.rel1.win32_1.1.1.202309131626/tools/bin/../lib/gcc/arm-none-eabi/11.3.1/../../../../arm-none-eabi/lib/thumb/v7e-m+dp/hard\libc_nano.a(libc_a-nano-vfprintf_float.o) (_dtoa_r)
D:/Soft/Devlopment Tools/CubIDE/STM32CubeIDE_1.13.2/STM32CubeIDE/plugins/com.st.stm32cube.ide.mcu.externaltools.gnu-tools-for-stm32.11.3.rel1.win32_1.1.1.202309131626/tools/bin/../lib/gcc/arm-none-eabi/11.3.1/../../../../arm-none-eabi/lib/thumb/v7e-m+dp/hard\libc_nano.a(libc_a-freer.o)
                              D:/Soft/Devlopment Tools/CubIDE/STM32CubeIDE_1.13.2/STM32CubeIDE/plugins/com.st.stm32cube.ide.mcu.externaltools.gnu-tools-for-stm32.11.3.rel1.win32_1.1.1.202309131626/tools/bin/../lib/gcc/arm-none-eabi/11.3.1/../../../../arm-none-eabi/lib/thumb/v7e-m+dp/hard\libc_nano.a(libc_a-reent.o) (_free_r)
D:/Soft/Devlopment Tools/CubIDE/STM32CubeIDE_1.13.2/STM32CubeIDE/plugins/com.st.stm32cube.ide.mcu.externaltools.gnu-tools-for-stm32.11.3.rel1.win32_1.1.1.202309131626/tools/bin/../lib/gcc/arm-none-eabi/11.3.1/../../../../arm-none-eabi/lib/thumb/v7e-m+dp/hard\libc_nano.a(libc_a-malloc.o)
                              D:/Soft/Devlopment Tools/CubIDE/STM32CubeIDE_1.13.2/STM32CubeIDE/plugins/com.st.stm32cube.ide.mcu.externaltools.gnu-tools-for-stm32.11.3.rel1.win32_1.1.1.202309131626/tools/bin/../lib/gcc/arm-none-eabi/11.3.1/../../../../arm-none-eabi/lib/thumb/v7e-m+dp/hard\libc_nano.a(libc_a-rand.o) (malloc)
D:/Soft/Devlopment Tools/CubIDE/STM32CubeIDE_1.13.2/STM32CubeIDE/plugins/com.st.stm32cube.ide.mcu.externaltools.gnu-tools-for-stm32.11.3.rel1.win32_1.1.1.202309131626/tools/bin/../lib/gcc/arm-none-eabi/11.3.1/../../../../arm-none-eabi/lib/thumb/v7e-m+dp/hard\libc_nano.a(libc_a-mallocr.o)
                              D:/Soft/Devlopment Tools/CubIDE/STM32CubeIDE_1.13.2/STM32CubeIDE/plugins/com.st.stm32cube.ide.mcu.externaltools.gnu-tools-for-stm32.11.3.rel1.win32_1.1.1.202309131626/tools/bin/../lib/gcc/arm-none-eabi/11.3.1/../../../../arm-none-eabi/lib/thumb/v7e-m+dp/hard\libc_nano.a(libc_a-findfp.o) (_malloc_r)
D:/Soft/Devlopment Tools/CubIDE/STM32CubeIDE_1.13.2/STM32CubeIDE/plugins/com.st.stm32cube.ide.mcu.externaltools.gnu-tools-for-stm32.11.3.rel1.win32_1.1.1.202309131626/tools/bin/../lib/gcc/arm-none-eabi/11.3.1/../../../../arm-none-eabi/lib/thumb/v7e-m+dp/hard\libc_nano.a(libc_a-mlock.o)
                              D:/Soft/Devlopment Tools/CubIDE/STM32CubeIDE_1.13.2/STM32CubeIDE/plugins/com.st.stm32cube.ide.mcu.externaltools.gnu-tools-for-stm32.11.3.rel1.win32_1.1.1.202309131626/tools/bin/../lib/gcc/arm-none-eabi/11.3.1/../../../../arm-none-eabi/lib/thumb/v7e-m+dp/hard\libc_nano.a(libc_a-freer.o) (__malloc_lock)
D:/Soft/Devlopment Tools/CubIDE/STM32CubeIDE_1.13.2/STM32CubeIDE/plugins/com.st.stm32cube.ide.mcu.externaltools.gnu-tools-for-stm32.11.3.rel1.win32_1.1.1.202309131626/tools/bin/../lib/gcc/arm-none-eabi/11.3.1/../../../../arm-none-eabi/lib/thumb/v7e-m+dp/hard\libc_nano.a(libc_a-mprec.o)
                              D:/Soft/Devlopment Tools/CubIDE/STM32CubeIDE_1.13.2/STM32CubeIDE/plugins/com.st.stm32cube.ide.mcu.externaltools.gnu-tools-for-stm32.11.3.rel1.win32_1.1.1.202309131626/tools/bin/../lib/gcc/arm-none-eabi/11.3.1/../../../../arm-none-eabi/lib/thumb/v7e-m+dp/hard\libc_nano.a(libc_a-dtoa.o) (_Balloc)
D:/Soft/Devlopment Tools/CubIDE/STM32CubeIDE_1.13.2/STM32CubeIDE/plugins/com.st.stm32cube.ide.mcu.externaltools.gnu-tools-for-stm32.11.3.rel1.win32_1.1.1.202309131626/tools/bin/../lib/gcc/arm-none-eabi/11.3.1/../../../../arm-none-eabi/lib/thumb/v7e-m+dp/hard\libc_nano.a(libc_a-strtod.o)
                              D:/Soft/Devlopment Tools/CubIDE/STM32CubeIDE_1.13.2/STM32CubeIDE/plugins/com.st.stm32cube.ide.mcu.externaltools.gnu-tools-for-stm32.11.3.rel1.win32_1.1.1.202309131626/tools/bin/../lib/gcc/arm-none-eabi/11.3.1/../../../../arm-none-eabi/lib/thumb/v7e-m+dp/hard\libc_nano.a(libc_a-nano-vfscanf_float.o) (_strtod_r)
D:/Soft/Devlopment Tools/CubIDE/STM32CubeIDE_1.13.2/STM32CubeIDE/plugins/com.st.stm32cube.ide.mcu.externaltools.gnu-tools-for-stm32.11.3.rel1.win32_1.1.1.202309131626/tools/bin/../lib/gcc/arm-none-eabi/11.3.1/../../../../arm-none-eabi/lib/thumb/v7e-m+dp/hard\libc_nano.a(libc_a-nano-svfprintf.o)
                              D:/Soft/Devlopment Tools/CubIDE/STM32CubeIDE_1.13.2/STM32CubeIDE/plugins/com.st.stm32cube.ide.mcu.externaltools.gnu-tools-for-stm32.11.3.rel1.win32_1.1.1.202309131626/tools/bin/../lib/gcc/arm-none-eabi/11.3.1/../../../../arm-none-eabi/lib/thumb/v7e-m+dp/hard\libc_nano.a(libc_a-sprintf.o) (_svfprintf_r)
D:/Soft/Devlopment Tools/CubIDE/STM32CubeIDE_1.13.2/STM32CubeIDE/plugins/com.st.stm32cube.ide.mcu.externaltools.gnu-tools-for-stm32.11.3.rel1.win32_1.1.1.202309131626/tools/bin/../lib/gcc/arm-none-eabi/11.3.1/../../../../arm-none-eabi/lib/thumb/v7e-m+dp/hard\libc_nano.a(libc_a-nano-vfprintf.o)
                              D:/Soft/Devlopment Tools/CubIDE/STM32CubeIDE_1.13.2/STM32CubeIDE/plugins/com.st.stm32cube.ide.mcu.externaltools.gnu-tools-for-stm32.11.3.rel1.win32_1.1.1.202309131626/tools/bin/../lib/gcc/arm-none-eabi/11.3.1/../../../../arm-none-eabi/lib/thumb/v7e-m+dp/hard\libc_nano.a(libc_a-printf.o) (_vfprintf_r)
D:/Soft/Devlopment Tools/CubIDE/STM32CubeIDE_1.13.2/STM32CubeIDE/plugins/com.st.stm32cube.ide.mcu.externaltools.gnu-tools-for-stm32.11.3.rel1.win32_1.1.1.202309131626/tools/bin/../lib/gcc/arm-none-eabi/11.3.1/../../../../arm-none-eabi/lib/thumb/v7e-m+dp/hard\libc_nano.a(libc_a-fflush.o)
                              D:/Soft/Devlopment Tools/CubIDE/STM32CubeIDE_1.13.2/STM32CubeIDE/plugins/com.st.stm32cube.ide.mcu.externaltools.gnu-tools-for-stm32.11.3.rel1.win32_1.1.1.202309131626/tools/bin/../lib/gcc/arm-none-eabi/11.3.1/../../../../arm-none-eabi/lib/thumb/v7e-m+dp/hard\libc_nano.a(libc_a-findfp.o) (_fflush_r)
D:/Soft/Devlopment Tools/CubIDE/STM32CubeIDE_1.13.2/STM32CubeIDE/plugins/com.st.stm32cube.ide.mcu.externaltools.gnu-tools-for-stm32.11.3.rel1.win32_1.1.1.202309131626/tools/bin/../lib/gcc/arm-none-eabi/11.3.1/../../../../arm-none-eabi/lib/thumb/v7e-m+dp/hard\libc_nano.a(libc_a-fprintf.o)
                              D:/Soft/Devlopment Tools/CubIDE/STM32CubeIDE_1.13.2/STM32CubeIDE/plugins/com.st.stm32cube.ide.mcu.externaltools.gnu-tools-for-stm32.11.3.rel1.win32_1.1.1.202309131626/tools/bin/../lib/gcc/arm-none-eabi/11.3.1/../../../../arm-none-eabi/lib/thumb/v7e-m+dp/hard\libc_nano.a(libc_a-assert.o) (fiprintf)
D:/Soft/Devlopment Tools/CubIDE/STM32CubeIDE_1.13.2/STM32CubeIDE/plugins/com.st.stm32cube.ide.mcu.externaltools.gnu-tools-for-stm32.11.3.rel1.win32_1.1.1.202309131626/tools/bin/../lib/gcc/arm-none-eabi/11.3.1/../../../../arm-none-eabi/lib/thumb/v7e-m+dp/hard\libc_nano.a(libc_a-fvwrite.o)
                              D:/Soft/Devlopment Tools/CubIDE/STM32CubeIDE_1.13.2/STM32CubeIDE/plugins/com.st.stm32cube.ide.mcu.externaltools.gnu-tools-for-stm32.11.3.rel1.win32_1.1.1.202309131626/tools/bin/../lib/gcc/arm-none-eabi/11.3.1/../../../../arm-none-eabi/lib/thumb/v7e-m+dp/hard\libc_nano.a(libc_a-nano-vfprintf.o) (__sfvwrite_r)
D:/Soft/Devlopment Tools/CubIDE/STM32CubeIDE_1.13.2/STM32CubeIDE/plugins/com.st.stm32cube.ide.mcu.externaltools.gnu-tools-for-stm32.11.3.rel1.win32_1.1.1.202309131626/tools/bin/../lib/gcc/arm-none-eabi/11.3.1/../../../../arm-none-eabi/lib/thumb/v7e-m+dp/hard\libc_nano.a(libc_a-wbuf.o)
                              D:/Soft/Devlopment Tools/CubIDE/STM32CubeIDE_1.13.2/STM32CubeIDE/plugins/com.st.stm32cube.ide.mcu.externaltools.gnu-tools-for-stm32.11.3.rel1.win32_1.1.1.202309131626/tools/bin/../lib/gcc/arm-none-eabi/11.3.1/../../../../arm-none-eabi/lib/thumb/v7e-m+dp/hard\libc_nano.a(libc_a-nano-vfprintf.o) (__swbuf_r)
D:/Soft/Devlopment Tools/CubIDE/STM32CubeIDE_1.13.2/STM32CubeIDE/plugins/com.st.stm32cube.ide.mcu.externaltools.gnu-tools-for-stm32.11.3.rel1.win32_1.1.1.202309131626/tools/bin/../lib/gcc/arm-none-eabi/11.3.1/../../../../arm-none-eabi/lib/thumb/v7e-m+dp/hard\libc_nano.a(libc_a-wsetup.o)
                              D:/Soft/Devlopment Tools/CubIDE/STM32CubeIDE_1.13.2/STM32CubeIDE/plugins/com.st.stm32cube.ide.mcu.externaltools.gnu-tools-for-stm32.11.3.rel1.win32_1.1.1.202309131626/tools/bin/../lib/gcc/arm-none-eabi/11.3.1/../../../../arm-none-eabi/lib/thumb/v7e-m+dp/hard\libc_nano.a(libc_a-nano-vfprintf.o) (__swsetup_r)
D:/Soft/Devlopment Tools/CubIDE/STM32CubeIDE_1.13.2/STM32CubeIDE/plugins/com.st.stm32cube.ide.mcu.externaltools.gnu-tools-for-stm32.11.3.rel1.win32_1.1.1.202309131626/tools/bin/../lib/gcc/arm-none-eabi/11.3.1/../../../../arm-none-eabi/lib/thumb/v7e-m+dp/hard\libc_nano.a(libc_a-locale.o)
                              D:/Soft/Devlopment Tools/CubIDE/STM32CubeIDE_1.13.2/STM32CubeIDE/plugins/com.st.stm32cube.ide.mcu.externaltools.gnu-tools-for-stm32.11.3.rel1.win32_1.1.1.202309131626/tools/bin/../lib/gcc/arm-none-eabi/11.3.1/../../../../arm-none-eabi/lib/thumb/v7e-m+dp/hard\libc_nano.a(libc_a-localeconv.o) (__global_locale)
D:/Soft/Devlopment Tools/CubIDE/STM32CubeIDE_1.13.2/STM32CubeIDE/plugins/com.st.stm32cube.ide.mcu.externaltools.gnu-tools-for-stm32.11.3.rel1.win32_1.1.1.202309131626/tools/bin/../lib/gcc/arm-none-eabi/11.3.1/../../../../arm-none-eabi/lib/thumb/v7e-m+dp/hard\libc_nano.a(libc_a-sbrkr.o)
                              D:/Soft/Devlopment Tools/CubIDE/STM32CubeIDE_1.13.2/STM32CubeIDE/plugins/com.st.stm32cube.ide.mcu.externaltools.gnu-tools-for-stm32.11.3.rel1.win32_1.1.1.202309131626/tools/bin/../lib/gcc/arm-none-eabi/11.3.1/../../../../arm-none-eabi/lib/thumb/v7e-m+dp/hard\libc_nano.a(libc_a-mallocr.o) (_sbrk_r)
D:/Soft/Devlopment Tools/CubIDE/STM32CubeIDE_1.13.2/STM32CubeIDE/plugins/com.st.stm32cube.ide.mcu.externaltools.gnu-tools-for-stm32.11.3.rel1.win32_1.1.1.202309131626/tools/bin/../lib/gcc/arm-none-eabi/11.3.1/../../../../arm-none-eabi/lib/thumb/v7e-m+dp/hard\libc_nano.a(libc_a-strcmp.o)
                              D:/Soft/Devlopment Tools/CubIDE/STM32CubeIDE_1.13.2/STM32CubeIDE/plugins/com.st.stm32cube.ide.mcu.externaltools.gnu-tools-for-stm32.11.3.rel1.win32_1.1.1.202309131626/tools/bin/../lib/gcc/arm-none-eabi/11.3.1/../../../../arm-none-eabi/lib/thumb/v7e-m+dp/hard\libc_nano.a(libc_a-locale.o) (strcmp)
D:/Soft/Devlopment Tools/CubIDE/STM32CubeIDE_1.13.2/STM32CubeIDE/plugins/com.st.stm32cube.ide.mcu.externaltools.gnu-tools-for-stm32.11.3.rel1.win32_1.1.1.202309131626/tools/bin/../lib/gcc/arm-none-eabi/11.3.1/../../../../arm-none-eabi/lib/thumb/v7e-m+dp/hard\libc_nano.a(libm_a-s_nan.o)
                              D:/Soft/Devlopment Tools/CubIDE/STM32CubeIDE_1.13.2/STM32CubeIDE/plugins/com.st.stm32cube.ide.mcu.externaltools.gnu-tools-for-stm32.11.3.rel1.win32_1.1.1.202309131626/tools/bin/../lib/gcc/arm-none-eabi/11.3.1/../../../../arm-none-eabi/lib/thumb/v7e-m+dp/hard\libc_nano.a(libc_a-strtod.o) (nan)
D:/Soft/Devlopment Tools/CubIDE/STM32CubeIDE_1.13.2/STM32CubeIDE/plugins/com.st.stm32cube.ide.mcu.externaltools.gnu-tools-for-stm32.11.3.rel1.win32_1.1.1.202309131626/tools/bin/../lib/gcc/arm-none-eabi/11.3.1/../../../../arm-none-eabi/lib/thumb/v7e-m+dp/hard\libc_nano.a(libc_a-abort.o)
                              D:/Soft/Devlopment Tools/CubIDE/STM32CubeIDE_1.13.2/STM32CubeIDE/plugins/com.st.stm32cube.ide.mcu.externaltools.gnu-tools-for-stm32.11.3.rel1.win32_1.1.1.202309131626/tools/bin/../lib/gcc/arm-none-eabi/11.3.1/../../../../arm-none-eabi/lib/thumb/v7e-m+dp/hard\libc_nano.a(libc_a-assert.o) (abort)
D:/Soft/Devlopment Tools/CubIDE/STM32CubeIDE_1.13.2/STM32CubeIDE/plugins/com.st.stm32cube.ide.mcu.externaltools.gnu-tools-for-stm32.11.3.rel1.win32_1.1.1.202309131626/tools/bin/../lib/gcc/arm-none-eabi/11.3.1/../../../../arm-none-eabi/lib/thumb/v7e-m+dp/hard\libc_nano.a(libc_a-callocr.o)
                              D:/Soft/Devlopment Tools/CubIDE/STM32CubeIDE_1.13.2/STM32CubeIDE/plugins/com.st.stm32cube.ide.mcu.externaltools.gnu-tools-for-stm32.11.3.rel1.win32_1.1.1.202309131626/tools/bin/../lib/gcc/arm-none-eabi/11.3.1/../../../../arm-none-eabi/lib/thumb/v7e-m+dp/hard\libc_nano.a(libc_a-mprec.o) (_calloc_r)
D:/Soft/Devlopment Tools/CubIDE/STM32CubeIDE_1.13.2/STM32CubeIDE/plugins/com.st.stm32cube.ide.mcu.externaltools.gnu-tools-for-stm32.11.3.rel1.win32_1.1.1.202309131626/tools/bin/../lib/gcc/arm-none-eabi/11.3.1/../../../../arm-none-eabi/lib/thumb/v7e-m+dp/hard\libc_nano.a(libc_a-gdtoa-gethex.o)
                              D:/Soft/Devlopment Tools/CubIDE/STM32CubeIDE_1.13.2/STM32CubeIDE/plugins/com.st.stm32cube.ide.mcu.externaltools.gnu-tools-for-stm32.11.3.rel1.win32_1.1.1.202309131626/tools/bin/../lib/gcc/arm-none-eabi/11.3.1/../../../../arm-none-eabi/lib/thumb/v7e-m+dp/hard\libc_nano.a(libc_a-strtod.o) (__gethex)
D:/Soft/Devlopment Tools/CubIDE/STM32CubeIDE_1.13.2/STM32CubeIDE/plugins/com.st.stm32cube.ide.mcu.externaltools.gnu-tools-for-stm32.11.3.rel1.win32_1.1.1.202309131626/tools/bin/../lib/gcc/arm-none-eabi/11.3.1/../../../../arm-none-eabi/lib/thumb/v7e-m+dp/hard\libc_nano.a(libc_a-gdtoa-hexnan.o)
                              D:/Soft/Devlopment Tools/CubIDE/STM32CubeIDE_1.13.2/STM32CubeIDE/plugins/com.st.stm32cube.ide.mcu.externaltools.gnu-tools-for-stm32.11.3.rel1.win32_1.1.1.202309131626/tools/bin/../lib/gcc/arm-none-eabi/11.3.1/../../../../arm-none-eabi/lib/thumb/v7e-m+dp/hard\libc_nano.a(libc_a-strtod.o) (__match)
D:/Soft/Devlopment Tools/CubIDE/STM32CubeIDE_1.13.2/STM32CubeIDE/plugins/com.st.stm32cube.ide.mcu.externaltools.gnu-tools-for-stm32.11.3.rel1.win32_1.1.1.202309131626/tools/bin/../lib/gcc/arm-none-eabi/11.3.1/../../../../arm-none-eabi/lib/thumb/v7e-m+dp/hard\libc_nano.a(libc_a-mbtowc_r.o)
                              D:/Soft/Devlopment Tools/CubIDE/STM32CubeIDE_1.13.2/STM32CubeIDE/plugins/com.st.stm32cube.ide.mcu.externaltools.gnu-tools-for-stm32.11.3.rel1.win32_1.1.1.202309131626/tools/bin/../lib/gcc/arm-none-eabi/11.3.1/../../../../arm-none-eabi/lib/thumb/v7e-m+dp/hard\libc_nano.a(libc_a-locale.o) (__ascii_mbtowc)
D:/Soft/Devlopment Tools/CubIDE/STM32CubeIDE_1.13.2/STM32CubeIDE/plugins/com.st.stm32cube.ide.mcu.externaltools.gnu-tools-for-stm32.11.3.rel1.win32_1.1.1.202309131626/tools/bin/../lib/gcc/arm-none-eabi/11.3.1/../../../../arm-none-eabi/lib/thumb/v7e-m+dp/hard\libc_nano.a(libc_a-reallocr.o)
                              D:/Soft/Devlopment Tools/CubIDE/STM32CubeIDE_1.13.2/STM32CubeIDE/plugins/com.st.stm32cube.ide.mcu.externaltools.gnu-tools-for-stm32.11.3.rel1.win32_1.1.1.202309131626/tools/bin/../lib/gcc/arm-none-eabi/11.3.1/../../../../arm-none-eabi/lib/thumb/v7e-m+dp/hard\libc_nano.a(libc_a-nano-svfprintf.o) (_realloc_r)
D:/Soft/Devlopment Tools/CubIDE/STM32CubeIDE_1.13.2/STM32CubeIDE/plugins/com.st.stm32cube.ide.mcu.externaltools.gnu-tools-for-stm32.11.3.rel1.win32_1.1.1.202309131626/tools/bin/../lib/gcc/arm-none-eabi/11.3.1/../../../../arm-none-eabi/lib/thumb/v7e-m+dp/hard\libc_nano.a(libc_a-wctomb_r.o)
                              D:/Soft/Devlopment Tools/CubIDE/STM32CubeIDE_1.13.2/STM32CubeIDE/plugins/com.st.stm32cube.ide.mcu.externaltools.gnu-tools-for-stm32.11.3.rel1.win32_1.1.1.202309131626/tools/bin/../lib/gcc/arm-none-eabi/11.3.1/../../../../arm-none-eabi/lib/thumb/v7e-m+dp/hard\libc_nano.a(libc_a-locale.o) (__ascii_wctomb)
D:/Soft/Devlopment Tools/CubIDE/STM32CubeIDE_1.13.2/STM32CubeIDE/plugins/com.st.stm32cube.ide.mcu.externaltools.gnu-tools-for-stm32.11.3.rel1.win32_1.1.1.202309131626/tools/bin/../lib/gcc/arm-none-eabi/11.3.1/../../../../arm-none-eabi/lib/thumb/v7e-m+dp/hard\libc_nano.a(libc_a-makebuf.o)
                              D:/Soft/Devlopment Tools/CubIDE/STM32CubeIDE_1.13.2/STM32CubeIDE/plugins/com.st.stm32cube.ide.mcu.externaltools.gnu-tools-for-stm32.11.3.rel1.win32_1.1.1.202309131626/tools/bin/../lib/gcc/arm-none-eabi/11.3.1/../../../../arm-none-eabi/lib/thumb/v7e-m+dp/hard\libc_nano.a(libc_a-wsetup.o) (__smakebuf_r)
D:/Soft/Devlopment Tools/CubIDE/STM32CubeIDE_1.13.2/STM32CubeIDE/plugins/com.st.stm32cube.ide.mcu.externaltools.gnu-tools-for-stm32.11.3.rel1.win32_1.1.1.202309131626/tools/bin/../lib/gcc/arm-none-eabi/11.3.1/../../../../arm-none-eabi/lib/thumb/v7e-m+dp/hard\libc_nano.a(libc_a-signal.o)
                              D:/Soft/Devlopment Tools/CubIDE/STM32CubeIDE_1.13.2/STM32CubeIDE/plugins/com.st.stm32cube.ide.mcu.externaltools.gnu-tools-for-stm32.11.3.rel1.win32_1.1.1.202309131626/tools/bin/../lib/gcc/arm-none-eabi/11.3.1/../../../../arm-none-eabi/lib/thumb/v7e-m+dp/hard\libc_nano.a(libc_a-abort.o) (raise)
D:/Soft/Devlopment Tools/CubIDE/STM32CubeIDE_1.13.2/STM32CubeIDE/plugins/com.st.stm32cube.ide.mcu.externaltools.gnu-tools-for-stm32.11.3.rel1.win32_1.1.1.202309131626/tools/bin/../lib/gcc/arm-none-eabi/11.3.1/../../../../arm-none-eabi/lib/thumb/v7e-m+dp/hard\libc_nano.a(libc_a-fstatr.o)
                              D:/Soft/Devlopment Tools/CubIDE/STM32CubeIDE_1.13.2/STM32CubeIDE/plugins/com.st.stm32cube.ide.mcu.externaltools.gnu-tools-for-stm32.11.3.rel1.win32_1.1.1.202309131626/tools/bin/../lib/gcc/arm-none-eabi/11.3.1/../../../../arm-none-eabi/lib/thumb/v7e-m+dp/hard\libc_nano.a(libc_a-makebuf.o) (_fstat_r)
D:/Soft/Devlopment Tools/CubIDE/STM32CubeIDE_1.13.2/STM32CubeIDE/plugins/com.st.stm32cube.ide.mcu.externaltools.gnu-tools-for-stm32.11.3.rel1.win32_1.1.1.202309131626/tools/bin/../lib/gcc/arm-none-eabi/11.3.1/../../../../arm-none-eabi/lib/thumb/v7e-m+dp/hard\libc_nano.a(libc_a-isattyr.o)
                              D:/Soft/Devlopment Tools/CubIDE/STM32CubeIDE_1.13.2/STM32CubeIDE/plugins/com.st.stm32cube.ide.mcu.externaltools.gnu-tools-for-stm32.11.3.rel1.win32_1.1.1.202309131626/tools/bin/../lib/gcc/arm-none-eabi/11.3.1/../../../../arm-none-eabi/lib/thumb/v7e-m+dp/hard\libc_nano.a(libc_a-makebuf.o) (_isatty_r)
D:/Soft/Devlopment Tools/CubIDE/STM32CubeIDE_1.13.2/STM32CubeIDE/plugins/com.st.stm32cube.ide.mcu.externaltools.gnu-tools-for-stm32.11.3.rel1.win32_1.1.1.202309131626/tools/bin/../lib/gcc/arm-none-eabi/11.3.1/../../../../arm-none-eabi/lib/thumb/v7e-m+dp/hard\libc_nano.a(libc_a-signalr.o)
                              D:/Soft/Devlopment Tools/CubIDE/STM32CubeIDE_1.13.2/STM32CubeIDE/plugins/com.st.stm32cube.ide.mcu.externaltools.gnu-tools-for-stm32.11.3.rel1.win32_1.1.1.202309131626/tools/bin/../lib/gcc/arm-none-eabi/11.3.1/../../../../arm-none-eabi/lib/thumb/v7e-m+dp/hard\libc_nano.a(libc_a-signal.o) (_kill_r)
D:/Soft/Devlopment Tools/CubIDE/STM32CubeIDE_1.13.2/STM32CubeIDE/plugins/com.st.stm32cube.ide.mcu.externaltools.gnu-tools-for-stm32.11.3.rel1.win32_1.1.1.202309131626/tools/bin/../lib/gcc/arm-none-eabi/11.3.1/../../../../arm-none-eabi/lib/thumb/v7e-m+dp/hard\libc_nano.a(libc_a-msizer.o)
                              D:/Soft/Devlopment Tools/CubIDE/STM32CubeIDE_1.13.2/STM32CubeIDE/plugins/com.st.stm32cube.ide.mcu.externaltools.gnu-tools-for-stm32.11.3.rel1.win32_1.1.1.202309131626/tools/bin/../lib/gcc/arm-none-eabi/11.3.1/../../../../arm-none-eabi/lib/thumb/v7e-m+dp/hard\libc_nano.a(libc_a-reallocr.o) (_malloc_usable_size_r)
D:/Soft/Devlopment Tools/CubIDE/STM32CubeIDE_1.13.2/STM32CubeIDE/plugins/com.st.stm32cube.ide.mcu.externaltools.gnu-tools-for-stm32.11.3.rel1.win32_1.1.1.202309131626/tools/bin/../lib/gcc/arm-none-eabi/11.3.1/thumb/v7e-m+dp/hard\libgcc.a(_arm_addsubdf3.o)
                              D:/Soft/Devlopment Tools/CubIDE/STM32CubeIDE_1.13.2/STM32CubeIDE/plugins/com.st.stm32cube.ide.mcu.externaltools.gnu-tools-for-stm32.11.3.rel1.win32_1.1.1.202309131626/tools/bin/../lib/gcc/arm-none-eabi/11.3.1/../../../../arm-none-eabi/lib/thumb/v7e-m+dp/hard\libc_nano.a(libc_a-strtod.o) (__aeabi_l2d)
D:/Soft/Devlopment Tools/CubIDE/STM32CubeIDE_1.13.2/STM32CubeIDE/plugins/com.st.stm32cube.ide.mcu.externaltools.gnu-tools-for-stm32.11.3.rel1.win32_1.1.1.202309131626/tools/bin/../lib/gcc/arm-none-eabi/11.3.1/thumb/v7e-m+dp/hard\libgcc.a(_aeabi_uldivmod.o)
                              ./Drivers/STM32H7xx_HAL_Driver/Src/stm32h7xx_hal_uart.o (__aeabi_uldivmod)
D:/Soft/Devlopment Tools/CubIDE/STM32CubeIDE_1.13.2/STM32CubeIDE/plugins/com.st.stm32cube.ide.mcu.externaltools.gnu-tools-for-stm32.11.3.rel1.win32_1.1.1.202309131626/tools/bin/../lib/gcc/arm-none-eabi/11.3.1/thumb/v7e-m+dp/hard\libgcc.a(_fixdfdi.o)
                              D:/Soft/Devlopment Tools/CubIDE/STM32CubeIDE_1.13.2/STM32CubeIDE/plugins/com.st.stm32cube.ide.mcu.externaltools.gnu-tools-for-stm32.11.3.rel1.win32_1.1.1.202309131626/tools/bin/../lib/gcc/arm-none-eabi/11.3.1/../../../../arm-none-eabi/lib/thumb/v7e-m+dp/hard\libc_nano.a(libc_a-strtod.o) (__aeabi_d2lz)
D:/Soft/Devlopment Tools/CubIDE/STM32CubeIDE_1.13.2/STM32CubeIDE/plugins/com.st.stm32cube.ide.mcu.externaltools.gnu-tools-for-stm32.11.3.rel1.win32_1.1.1.202309131626/tools/bin/../lib/gcc/arm-none-eabi/11.3.1/thumb/v7e-m+dp/hard\libgcc.a(_fixunsdfdi.o)
                              D:/Soft/Devlopment Tools/CubIDE/STM32CubeIDE_1.13.2/STM32CubeIDE/plugins/com.st.stm32cube.ide.mcu.externaltools.gnu-tools-for-stm32.11.3.rel1.win32_1.1.1.202309131626/tools/bin/../lib/gcc/arm-none-eabi/11.3.1/thumb/v7e-m+dp/hard\libgcc.a(_fixdfdi.o) (__aeabi_d2ulz)
D:/Soft/Devlopment Tools/CubIDE/STM32CubeIDE_1.13.2/STM32CubeIDE/plugins/com.st.stm32cube.ide.mcu.externaltools.gnu-tools-for-stm32.11.3.rel1.win32_1.1.1.202309131626/tools/bin/../lib/gcc/arm-none-eabi/11.3.1/thumb/v7e-m+dp/hard\libgcc.a(_udivmoddi4.o)
                              D:/Soft/Devlopment Tools/CubIDE/STM32CubeIDE_1.13.2/STM32CubeIDE/plugins/com.st.stm32cube.ide.mcu.externaltools.gnu-tools-for-stm32.11.3.rel1.win32_1.1.1.202309131626/tools/bin/../lib/gcc/arm-none-eabi/11.3.1/thumb/v7e-m+dp/hard\libgcc.a(_aeabi_uldivmod.o) (__udivmoddi4)
D:/Soft/Devlopment Tools/CubIDE/STM32CubeIDE_1.13.2/STM32CubeIDE/plugins/com.st.stm32cube.ide.mcu.externaltools.gnu-tools-for-stm32.11.3.rel1.win32_1.1.1.202309131626/tools/bin/../lib/gcc/arm-none-eabi/11.3.1/thumb/v7e-m+dp/hard\libgcc.a(_dvmd_tls.o)
                              D:/Soft/Devlopment Tools/CubIDE/STM32CubeIDE_1.13.2/STM32CubeIDE/plugins/com.st.stm32cube.ide.mcu.externaltools.gnu-tools-for-stm32.11.3.rel1.win32_1.1.1.202309131626/tools/bin/../lib/gcc/arm-none-eabi/11.3.1/thumb/v7e-m+dp/hard\libgcc.a(_aeabi_uldivmod.o) (__aeabi_ldiv0)

Discarded input sections

 .text          0x0000000000000000        0x0 D:/Soft/Devlopment Tools/CubIDE/STM32CubeIDE_1.13.2/STM32CubeIDE/plugins/com.st.stm32cube.ide.mcu.externaltools.gnu-tools-for-stm32.11.3.rel1.win32_1.1.1.202309131626/tools/bin/../lib/gcc/arm-none-eabi/11.3.1/thumb/v7e-m+dp/hard/crti.o
 .data          0x0000000000000000        0x0 D:/Soft/Devlopment Tools/CubIDE/STM32CubeIDE_1.13.2/STM32CubeIDE/plugins/com.st.stm32cube.ide.mcu.externaltools.gnu-tools-for-stm32.11.3.rel1.win32_1.1.1.202309131626/tools/bin/../lib/gcc/arm-none-eabi/11.3.1/thumb/v7e-m+dp/hard/crti.o
 .bss           0x0000000000000000        0x0 D:/Soft/Devlopment Tools/CubIDE/STM32CubeIDE_1.13.2/STM32CubeIDE/plugins/com.st.stm32cube.ide.mcu.externaltools.gnu-tools-for-stm32.11.3.rel1.win32_1.1.1.202309131626/tools/bin/../lib/gcc/arm-none-eabi/11.3.1/thumb/v7e-m+dp/hard/crti.o
 .data          0x0000000000000000        0x4 D:/Soft/Devlopment Tools/CubIDE/STM32CubeIDE_1.13.2/STM32CubeIDE/plugins/com.st.stm32cube.ide.mcu.externaltools.gnu-tools-for-stm32.11.3.rel1.win32_1.1.1.202309131626/tools/bin/../lib/gcc/arm-none-eabi/11.3.1/thumb/v7e-m+dp/hard/crtbegin.o
 .rodata        0x0000000000000000       0x24 D:/Soft/Devlopment Tools/CubIDE/STM32CubeIDE_1.13.2/STM32CubeIDE/plugins/com.st.stm32cube.ide.mcu.externaltools.gnu-tools-for-stm32.11.3.rel1.win32_1.1.1.202309131626/tools/bin/../lib/gcc/arm-none-eabi/11.3.1/thumb/v7e-m+dp/hard/crtbegin.o
 .text          0x0000000000000000       0x7c D:/Soft/Devlopment Tools/CubIDE/STM32CubeIDE_1.13.2/STM32CubeIDE/plugins/com.st.stm32cube.ide.mcu.externaltools.gnu-tools-for-stm32.11.3.rel1.win32_1.1.1.202309131626/tools/bin/../lib/gcc/arm-none-eabi/11.3.1/../../../../arm-none-eabi/lib/thumb/v7e-m+dp/hard/crt0.o
 .data          0x0000000000000000        0x0 D:/Soft/Devlopment Tools/CubIDE/STM32CubeIDE_1.13.2/STM32CubeIDE/plugins/com.st.stm32cube.ide.mcu.externaltools.gnu-tools-for-stm32.11.3.rel1.win32_1.1.1.202309131626/tools/bin/../lib/gcc/arm-none-eabi/11.3.1/../../../../arm-none-eabi/lib/thumb/v7e-m+dp/hard/crt0.o
 .bss           0x0000000000000000        0x0 D:/Soft/Devlopment Tools/CubIDE/STM32CubeIDE_1.13.2/STM32CubeIDE/plugins/com.st.stm32cube.ide.mcu.externaltools.gnu-tools-for-stm32.11.3.rel1.win32_1.1.1.202309131626/tools/bin/../lib/gcc/arm-none-eabi/11.3.1/../../../../arm-none-eabi/lib/thumb/v7e-m+dp/hard/crt0.o
 .ARM.extab     0x0000000000000000        0x0 D:/Soft/Devlopment Tools/CubIDE/STM32CubeIDE_1.13.2/STM32CubeIDE/plugins/com.st.stm32cube.ide.mcu.externaltools.gnu-tools-for-stm32.11.3.rel1.win32_1.1.1.202309131626/tools/bin/../lib/gcc/arm-none-eabi/11.3.1/../../../../arm-none-eabi/lib/thumb/v7e-m+dp/hard/crt0.o
 .ARM.exidx     0x0000000000000000       0x10 D:/Soft/Devlopment Tools/CubIDE/STM32CubeIDE_1.13.2/STM32CubeIDE/plugins/com.st.stm32cube.ide.mcu.externaltools.gnu-tools-for-stm32.11.3.rel1.win32_1.1.1.202309131626/tools/bin/../lib/gcc/arm-none-eabi/11.3.1/../../../../arm-none-eabi/lib/thumb/v7e-m+dp/hard/crt0.o
 .debug_line    0x0000000000000000       0x76 D:/Soft/Devlopment Tools/CubIDE/STM32CubeIDE_1.13.2/STM32CubeIDE/plugins/com.st.stm32cube.ide.mcu.externaltools.gnu-tools-for-stm32.11.3.rel1.win32_1.1.1.202309131626/tools/bin/../lib/gcc/arm-none-eabi/11.3.1/../../../../arm-none-eabi/lib/thumb/v7e-m+dp/hard/crt0.o
 .debug_line_str
                0x0000000000000000       0xdd D:/Soft/Devlopment Tools/CubIDE/STM32CubeIDE_1.13.2/STM32CubeIDE/plugins/com.st.stm32cube.ide.mcu.externaltools.gnu-tools-for-stm32.11.3.rel1.win32_1.1.1.202309131626/tools/bin/../lib/gcc/arm-none-eabi/11.3.1/../../../../arm-none-eabi/lib/thumb/v7e-m+dp/hard/crt0.o
 .debug_info    0x0000000000000000       0x24 D:/Soft/Devlopment Tools/CubIDE/STM32CubeIDE_1.13.2/STM32CubeIDE/plugins/com.st.stm32cube.ide.mcu.externaltools.gnu-tools-for-stm32.11.3.rel1.win32_1.1.1.202309131626/tools/bin/../lib/gcc/arm-none-eabi/11.3.1/../../../../arm-none-eabi/lib/thumb/v7e-m+dp/hard/crt0.o
 .debug_abbrev  0x0000000000000000       0x14 D:/Soft/Devlopment Tools/CubIDE/STM32CubeIDE_1.13.2/STM32CubeIDE/plugins/com.st.stm32cube.ide.mcu.externaltools.gnu-tools-for-stm32.11.3.rel1.win32_1.1.1.202309131626/tools/bin/../lib/gcc/arm-none-eabi/11.3.1/../../../../arm-none-eabi/lib/thumb/v7e-m+dp/hard/crt0.o
 .debug_aranges
                0x0000000000000000       0x20 D:/Soft/Devlopment Tools/CubIDE/STM32CubeIDE_1.13.2/STM32CubeIDE/plugins/com.st.stm32cube.ide.mcu.externaltools.gnu-tools-for-stm32.11.3.rel1.win32_1.1.1.202309131626/tools/bin/../lib/gcc/arm-none-eabi/11.3.1/../../../../arm-none-eabi/lib/thumb/v7e-m+dp/hard/crt0.o
 .debug_str     0x0000000000000000       0xe2 D:/Soft/Devlopment Tools/CubIDE/STM32CubeIDE_1.13.2/STM32CubeIDE/plugins/com.st.stm32cube.ide.mcu.externaltools.gnu-tools-for-stm32.11.3.rel1.win32_1.1.1.202309131626/tools/bin/../lib/gcc/arm-none-eabi/11.3.1/../../../../arm-none-eabi/lib/thumb/v7e-m+dp/hard/crt0.o
Memory Configuration

Name             Origin             Length             Attributes
FLASH            0x0000000008000000 0x0000000000200000 xr
DTCMRAM          0x0000000020000000 0x0000000000020000 xrw
RAM_D1           0x0000000024000000 0x0000000000080000 xrw
RAM_D2           0x0000000030000000 0x0000000000048000 xrw
RAM_D3           0x0000000038000000 0x0000000000010000 xrw
ITCMRAM          0x0000000000000000 0x0000000000010000 xrw
*default*        0x0000000000000000 0xffffffffffffffff

Linker script and memory map

LOAD D:/Soft/Devlopment Tools/CubIDE/STM32CubeIDE_1.13.2/STM32CubeIDE/plugins/com.st.stm32cube.ide.mcu.externaltools.gnu-tools-for-stm32.11.3.rel1.win32_1.1.1.202309131626/tools/bin/../lib/gcc/arm-none-eabi/11.3.1/thumb/v7e-m+dp/hard/crti.o
LOAD D:/Soft/Devlopment Tools/CubIDE/STM32CubeIDE_1.13.2/STM32CubeIDE/plugins/com.st.stm32cube.ide.mcu.externaltools.gnu-tools-for-stm32.11.3.rel1.win32_1.1.1.202309131626/tools/bin/../lib/gcc/arm-none-eabi/11.3.1/thumb/v7e-m+dp/hard/crtbegin.o
LOAD D:/Soft/Devlopment Tools/CubIDE/STM32CubeIDE_1.13.2/STM32CubeIDE/plugins/com.st.stm32cube.ide.mcu.externaltools.gnu-tools-for-stm32.11.3.rel1.win32_1.1.1.202309131626/tools/bin/../lib/gcc/arm-none-eabi/11.3.1/../../../../arm-none-eabi/lib/thumb/v7e-m+dp/hard/crt0.o
LOAD ./Core/Src/gpio.o
LOAD ./Core/Src/main.o
LOAD ./Core/Src/stm32h7xx_hal_msp.o
LOAD ./Core/Src/stm32h7xx_it.o
LOAD ./Core/Src/syscalls.o
LOAD ./Core/Src/sysmem.o
LOAD ./Core/Src/system_stm32h7xx.o
LOAD ./Core/Src/usart.o
LOAD ./Core/Startup/startup_stm32h743iitx.o
LOAD ./Drivers/BSP/Components/lan8742/lan8742.o
LOAD ./Drivers/IIC/myiic.o
LOAD ./Drivers/PCF8574/pcf8574.o
LOAD ./Drivers/STM32H7xx_HAL_Driver/Src/stm32h7xx_hal.o
LOAD ./Drivers/STM32H7xx_HAL_Driver/Src/stm32h7xx_hal_cortex.o
LOAD ./Drivers/STM32H7xx_HAL_Driver/Src/stm32h7xx_hal_dma.o
LOAD ./Drivers/STM32H7xx_HAL_Driver/Src/stm32h7xx_hal_dma_ex.o
LOAD ./Drivers/STM32H7xx_HAL_Driver/Src/stm32h7xx_hal_eth.o
LOAD ./Drivers/STM32H7xx_HAL_Driver/Src/stm32h7xx_hal_eth_ex.o
LOAD ./Drivers/STM32H7xx_HAL_Driver/Src/stm32h7xx_hal_exti.o
LOAD ./Drivers/STM32H7xx_HAL_Driver/Src/stm32h7xx_hal_flash.o
LOAD ./Drivers/STM32H7xx_HAL_Driver/Src/stm32h7xx_hal_flash_ex.o
LOAD ./Drivers/STM32H7xx_HAL_Driver/Src/stm32h7xx_hal_gpio.o
LOAD ./Drivers/STM32H7xx_HAL_Driver/Src/stm32h7xx_hal_hsem.o
LOAD ./Drivers/STM32H7xx_HAL_Driver/Src/stm32h7xx_hal_i2c.o
LOAD ./Drivers/STM32H7xx_HAL_Driver/Src/stm32h7xx_hal_i2c_ex.o
LOAD ./Drivers/STM32H7xx_HAL_Driver/Src/stm32h7xx_hal_mdma.o
LOAD ./Drivers/STM32H7xx_HAL_Driver/Src/stm32h7xx_hal_pwr.o
LOAD ./Drivers/STM32H7xx_HAL_Driver/Src/stm32h7xx_hal_pwr_ex.o
LOAD ./Drivers/STM32H7xx_HAL_Driver/Src/stm32h7xx_hal_rcc.o
LOAD ./Drivers/STM32H7xx_HAL_Driver/Src/stm32h7xx_hal_rcc_ex.o
LOAD ./Drivers/STM32H7xx_HAL_Driver/Src/stm32h7xx_hal_tim.o
LOAD ./Drivers/STM32H7xx_HAL_Driver/Src/stm32h7xx_hal_tim_ex.o
LOAD ./Drivers/STM32H7xx_HAL_Driver/Src/stm32h7xx_hal_uart.o
LOAD ./Drivers/STM32H7xx_HAL_Driver/Src/stm32h7xx_hal_uart_ex.o
LOAD ./Drivers/delay/delay.o
LOAD ./Drivers/sys/sys.o
LOAD ./LWIP/App/lwip.o
LOAD ./LWIP/Target/ethernetif.o
LOAD ./Middlewares/Third_Party/LwIP/src/api/api_lib.o
LOAD ./Middlewares/Third_Party/LwIP/src/api/api_msg.o
LOAD ./Middlewares/Third_Party/LwIP/src/api/err.o
LOAD ./Middlewares/Third_Party/LwIP/src/api/if_api.o
LOAD ./Middlewares/Third_Party/LwIP/src/api/netbuf.o
LOAD ./Middlewares/Third_Party/LwIP/src/api/netdb.o
LOAD ./Middlewares/Third_Party/LwIP/src/api/netifapi.o
LOAD ./Middlewares/Third_Party/LwIP/src/api/sockets.o
LOAD ./Middlewares/Third_Party/LwIP/src/api/tcpip.o
LOAD ./Middlewares/Third_Party/LwIP/src/apps/mqtt/mqtt.o
LOAD ./Middlewares/Third_Party/LwIP/src/core/altcp.o
LOAD ./Middlewares/Third_Party/LwIP/src/core/altcp_alloc.o
LOAD ./Middlewares/Third_Party/LwIP/src/core/altcp_tcp.o
LOAD ./Middlewares/Third_Party/LwIP/src/core/def.o
LOAD ./Middlewares/Third_Party/LwIP/src/core/dns.o
LOAD ./Middlewares/Third_Party/LwIP/src/core/inet_chksum.o
LOAD ./Middlewares/Third_Party/LwIP/src/core/init.o
LOAD ./Middlewares/Third_Party/LwIP/src/core/ip.o
LOAD ./Middlewares/Third_Party/LwIP/src/core/mem.o
LOAD ./Middlewares/Third_Party/LwIP/src/core/memp.o
LOAD ./Middlewares/Third_Party/LwIP/src/core/netif.o
LOAD ./Middlewares/Third_Party/LwIP/src/core/pbuf.o
LOAD ./Middlewares/Third_Party/LwIP/src/core/raw.o
LOAD ./Middlewares/Third_Party/LwIP/src/core/stats.o
LOAD ./Middlewares/Third_Party/LwIP/src/core/sys.o
LOAD ./Middlewares/Third_Party/LwIP/src/core/tcp.o
LOAD ./Middlewares/Third_Party/LwIP/src/core/tcp_in.o
LOAD ./Middlewares/Third_Party/LwIP/src/core/tcp_out.o
LOAD ./Middlewares/Third_Party/LwIP/src/core/timeouts.o
LOAD ./Middlewares/Third_Party/LwIP/src/core/udp.o
LOAD ./Middlewares/Third_Party/LwIP/src/core/ipv4/autoip.o
LOAD ./Middlewares/Third_Party/LwIP/src/core/ipv4/dhcp.o
LOAD ./Middlewares/Third_Party/LwIP/src/core/ipv4/etharp.o
LOAD ./Middlewares/Third_Party/LwIP/src/core/ipv4/icmp.o
LOAD ./Middlewares/Third_Party/LwIP/src/core/ipv4/igmp.o
LOAD ./Middlewares/Third_Party/LwIP/src/core/ipv4/ip4.o
LOAD ./Middlewares/Third_Party/LwIP/src/core/ipv4/ip4_addr.o
LOAD ./Middlewares/Third_Party/LwIP/src/core/ipv4/ip4_frag.o
LOAD ./Middlewares/Third_Party/LwIP/src/core/ipv6/dhcp6.o
LOAD ./Middlewares/Third_Party/LwIP/src/core/ipv6/ethip6.o
LOAD ./Middlewares/Third_Party/LwIP/src/core/ipv6/icmp6.o
LOAD ./Middlewares/Third_Party/LwIP/src/core/ipv6/inet6.o
LOAD ./Middlewares/Third_Party/LwIP/src/core/ipv6/ip6.o
LOAD ./Middlewares/Third_Party/LwIP/src/core/ipv6/ip6_addr.o
LOAD ./Middlewares/Third_Party/LwIP/src/core/ipv6/ip6_frag.o
LOAD ./Middlewares/Third_Party/LwIP/src/core/ipv6/mld6.o
LOAD ./Middlewares/Third_Party/LwIP/src/core/ipv6/nd6.o
LOAD ./Middlewares/Third_Party/LwIP/src/netif/bridgeif.o
LOAD ./Middlewares/Third_Party/LwIP/src/netif/bridgeif_fdb.o
LOAD ./Middlewares/Third_Party/LwIP/src/netif/ethernet.o
LOAD ./Middlewares/Third_Party/LwIP/src/netif/lowpan6.o
LOAD ./Middlewares/Third_Party/LwIP/src/netif/lowpan6_ble.o
LOAD ./Middlewares/Third_Party/LwIP/src/netif/lowpan6_common.o
LOAD ./Middlewares/Third_Party/LwIP/src/netif/slipif.o
LOAD ./Middlewares/Third_Party/LwIP/src/netif/zepif.o
LOAD ./Middlewares/Third_Party/LwIP/src/netif/ppp/auth.o
LOAD ./Middlewares/Third_Party/LwIP/src/netif/ppp/ccp.o
LOAD ./Middlewares/Third_Party/LwIP/src/netif/ppp/chap-md5.o
LOAD ./Middlewares/Third_Party/LwIP/src/netif/ppp/chap-new.o
LOAD ./Middlewares/Third_Party/LwIP/src/netif/ppp/chap_ms.o
LOAD ./Middlewares/Third_Party/LwIP/src/netif/ppp/demand.o
LOAD ./Middlewares/Third_Party/LwIP/src/netif/ppp/eap.o
LOAD ./Middlewares/Third_Party/LwIP/src/netif/ppp/ecp.o
LOAD ./Middlewares/Third_Party/LwIP/src/netif/ppp/eui64.o
LOAD ./Middlewares/Third_Party/LwIP/src/netif/ppp/fsm.o
LOAD ./Middlewares/Third_Party/LwIP/src/netif/ppp/ipcp.o
LOAD ./Middlewares/Third_Party/LwIP/src/netif/ppp/ipv6cp.o
LOAD ./Middlewares/Third_Party/LwIP/src/netif/ppp/lcp.o
LOAD ./Middlewares/Third_Party/LwIP/src/netif/ppp/magic.o
LOAD ./Middlewares/Third_Party/LwIP/src/netif/ppp/mppe.o
LOAD ./Middlewares/Third_Party/LwIP/src/netif/ppp/multilink.o
LOAD ./Middlewares/Third_Party/LwIP/src/netif/ppp/ppp.o
LOAD ./Middlewares/Third_Party/LwIP/src/netif/ppp/pppapi.o
LOAD ./Middlewares/Third_Party/LwIP/src/netif/ppp/pppcrypt.o
LOAD ./Middlewares/Third_Party/LwIP/src/netif/ppp/pppoe.o
LOAD ./Middlewares/Third_Party/LwIP/src/netif/ppp/pppol2tp.o
LOAD ./Middlewares/Third_Party/LwIP/src/netif/ppp/pppos.o
LOAD ./Middlewares/Third_Party/LwIP/src/netif/ppp/upap.o
LOAD ./Middlewares/Third_Party/LwIP/src/netif/ppp/utils.o
LOAD ./Middlewares/Third_Party/LwIP/src/netif/ppp/vj.o
START GROUP
LOAD D:/Soft/Devlopment Tools/CubIDE/STM32CubeIDE_1.13.2/STM32CubeIDE/plugins/com.st.stm32cube.ide.mcu.externaltools.gnu-tools-for-stm32.11.3.rel1.win32_1.1.1.202309131626/tools/bin/../lib/gcc/arm-none-eabi/11.3.1/../../../../arm-none-eabi/lib/thumb/v7e-m+dp/hard\libc_nano.a
LOAD D:/Soft/Devlopment Tools/CubIDE/STM32CubeIDE_1.13.2/STM32CubeIDE/plugins/com.st.stm32cube.ide.mcu.externaltools.gnu-tools-for-stm32.11.3.rel1.win32_1.1.1.202309131626/tools/bin/../lib/gcc/arm-none-eabi/11.3.1/../../../../arm-none-eabi/lib/thumb/v7e-m+dp/hard\libm.a
END GROUP
START GROUP
LOAD D:/Soft/Devlopment Tools/CubIDE/STM32CubeIDE_1.13.2/STM32CubeIDE/plugins/com.st.stm32cube.ide.mcu.externaltools.gnu-tools-for-stm32.11.3.rel1.win32_1.1.1.202309131626/tools/bin/../lib/gcc/arm-none-eabi/11.3.1/thumb/v7e-m+dp/hard\libgcc.a
LOAD D:/Soft/Devlopment Tools/CubIDE/STM32CubeIDE_1.13.2/STM32CubeIDE/plugins/com.st.stm32cube.ide.mcu.externaltools.gnu-tools-for-stm32.11.3.rel1.win32_1.1.1.202309131626/tools/bin/../lib/gcc/arm-none-eabi/11.3.1/../../../../arm-none-eabi/lib/thumb/v7e-m+dp/hard\libc_nano.a
END GROUP
START GROUP
LOAD D:/Soft/Devlopment Tools/CubIDE/STM32CubeIDE_1.13.2/STM32CubeIDE/plugins/com.st.stm32cube.ide.mcu.externaltools.gnu-tools-for-stm32.11.3.rel1.win32_1.1.1.202309131626/tools/bin/../lib/gcc/arm-none-eabi/11.3.1/thumb/v7e-m+dp/hard\libgcc.a
LOAD D:/Soft/Devlopment Tools/CubIDE/STM32CubeIDE_1.13.2/STM32CubeIDE/plugins/com.st.stm32cube.ide.mcu.externaltools.gnu-tools-for-stm32.11.3.rel1.win32_1.1.1.202309131626/tools/bin/../lib/gcc/arm-none-eabi/11.3.1/../../../../arm-none-eabi/lib/thumb/v7e-m+dp/hard\libc_nano.a
LOAD D:/Soft/Devlopment Tools/CubIDE/STM32CubeIDE_1.13.2/STM32CubeIDE/plugins/com.st.stm32cube.ide.mcu.externaltools.gnu-tools-for-stm32.11.3.rel1.win32_1.1.1.202309131626/tools/bin/../lib/gcc/arm-none-eabi/11.3.1/../../../../arm-none-eabi/lib/thumb/v7e-m+dp/hard\libnosys.a
END GROUP
START GROUP
LOAD D:/Soft/Devlopment Tools/CubIDE/STM32CubeIDE_1.13.2/STM32CubeIDE/plugins/com.st.stm32cube.ide.mcu.externaltools.gnu-tools-for-stm32.11.3.rel1.win32_1.1.1.202309131626/tools/bin/../lib/gcc/arm-none-eabi/11.3.1/thumb/v7e-m+dp/hard\libgcc.a
LOAD D:/Soft/Devlopment Tools/CubIDE/STM32CubeIDE_1.13.2/STM32CubeIDE/plugins/com.st.stm32cube.ide.mcu.externaltools.gnu-tools-for-stm32.11.3.rel1.win32_1.1.1.202309131626/tools/bin/../lib/gcc/arm-none-eabi/11.3.1/../../../../arm-none-eabi/lib/thumb/v7e-m+dp/hard\libc_nano.a
LOAD D:/Soft/Devlopment Tools/CubIDE/STM32CubeIDE_1.13.2/STM32CubeIDE/plugins/com.st.stm32cube.ide.mcu.externaltools.gnu-tools-for-stm32.11.3.rel1.win32_1.1.1.202309131626/tools/bin/../lib/gcc/arm-none-eabi/11.3.1/../../../../arm-none-eabi/lib/thumb/v7e-m+dp/hard\libnosys.a
END GROUP
LOAD D:/Soft/Devlopment Tools/CubIDE/STM32CubeIDE_1.13.2/STM32CubeIDE/plugins/com.st.stm32cube.ide.mcu.externaltools.gnu-tools-for-stm32.11.3.rel1.win32_1.1.1.202309131626/tools/bin/../lib/gcc/arm-none-eabi/11.3.1/thumb/v7e-m+dp/hard/crtend.o
LOAD D:/Soft/Devlopment Tools/CubIDE/STM32CubeIDE_1.13.2/STM32CubeIDE/plugins/com.st.stm32cube.ide.mcu.externaltools.gnu-tools-for-stm32.11.3.rel1.win32_1.1.1.202309131626/tools/bin/../lib/gcc/arm-none-eabi/11.3.1/thumb/v7e-m+dp/hard/crtn.o
                0x0000000024080000                _estack = (ORIGIN (RAM_D1) + LENGTH (RAM_D1))
                0x0000000000000400                _Min_Heap_Size = 0x400
                0x0000000000000400                _Min_Stack_Size = 0x400

.isr_vector     0x0000000008000000      0x298
                0x0000000008000000                . = ALIGN (0x4)
 *(.isr_vector)
 .isr_vector    0x0000000008000000      0x298 ./Core/Startup/startup_stm32h743iitx.o
                0x0000000008000000                g_pfnVectors
                0x0000000008000298                . = ALIGN (0x4)

.text           0x00000000080002a0    0x17bfc
                0x00000000080002a0                . = ALIGN (0x4)
 *(.text)
 .text          0x00000000080002a0       0x40 D:/Soft/Devlopment Tools/CubIDE/STM32CubeIDE_1.13.2/STM32CubeIDE/plugins/com.st.stm32cube.ide.mcu.externaltools.gnu-tools-for-stm32.11.3.rel1.win32_1.1.1.202309131626/tools/bin/../lib/gcc/arm-none-eabi/11.3.1/thumb/v7e-m+dp/hard/crtbegin.o
 .text          0x00000000080002e0       0xa0 D:/Soft/Devlopment Tools/CubIDE/STM32CubeIDE_1.13.2/STM32CubeIDE/plugins/com.st.stm32cube.ide.mcu.externaltools.gnu-tools-for-stm32.11.3.rel1.win32_1.1.1.202309131626/tools/bin/../lib/gcc/arm-none-eabi/11.3.1/../../../../arm-none-eabi/lib/thumb/v7e-m+dp/hard\libc_nano.a(libc_a-memchr.o)
                0x00000000080002e0                memchr
 .text          0x0000000008000380       0x10 D:/Soft/Devlopment Tools/CubIDE/STM32CubeIDE_1.13.2/STM32CubeIDE/plugins/com.st.stm32cube.ide.mcu.externaltools.gnu-tools-for-stm32.11.3.rel1.win32_1.1.1.202309131626/tools/bin/../lib/gcc/arm-none-eabi/11.3.1/../../../../arm-none-eabi/lib/thumb/v7e-m+dp/hard\libc_nano.a(libc_a-strlen.o)
                0x0000000008000380                strlen
 .text          0x0000000008000390      0x378 D:/Soft/Devlopment Tools/CubIDE/STM32CubeIDE_1.13.2/STM32CubeIDE/plugins/com.st.stm32cube.ide.mcu.externaltools.gnu-tools-for-stm32.11.3.rel1.win32_1.1.1.202309131626/tools/bin/../lib/gcc/arm-none-eabi/11.3.1/thumb/v7e-m+dp/hard\libgcc.a(_arm_addsubdf3.o)
                0x0000000008000390                __aeabi_drsub
                0x0000000008000398                __aeabi_dsub
                0x0000000008000398                __subdf3
                0x000000000800039c                __aeabi_dadd
                0x000000000800039c                __adddf3
                0x0000000008000614                __floatunsidf
                0x0000000008000614                __aeabi_ui2d
                0x0000000008000634                __floatsidf
                0x0000000008000634                __aeabi_i2d
                0x0000000008000658                __aeabi_f2d
                0x0000000008000658                __extendsfdf2
                0x000000000800069c                __floatundidf
                0x000000000800069c                __aeabi_ul2d
                0x00000000080006ac                __floatdidf
                0x00000000080006ac                __aeabi_l2d
 .text          0x0000000008000708       0x30 D:/Soft/Devlopment Tools/CubIDE/STM32CubeIDE_1.13.2/STM32CubeIDE/plugins/com.st.stm32cube.ide.mcu.externaltools.gnu-tools-for-stm32.11.3.rel1.win32_1.1.1.202309131626/tools/bin/../lib/gcc/arm-none-eabi/11.3.1/thumb/v7e-m+dp/hard\libgcc.a(_aeabi_uldivmod.o)
                0x0000000008000708                __aeabi_uldivmod
 .text          0x0000000008000738       0x30 D:/Soft/Devlopment Tools/CubIDE/STM32CubeIDE_1.13.2/STM32CubeIDE/plugins/com.st.stm32cube.ide.mcu.externaltools.gnu-tools-for-stm32.11.3.rel1.win32_1.1.1.202309131626/tools/bin/../lib/gcc/arm-none-eabi/11.3.1/thumb/v7e-m+dp/hard\libgcc.a(_fixdfdi.o)
                0x0000000008000738                __fixdfdi
                0x0000000008000738                __aeabi_d2lz
 .text          0x0000000008000768       0x40 D:/Soft/Devlopment Tools/CubIDE/STM32CubeIDE_1.13.2/STM32CubeIDE/plugins/com.st.stm32cube.ide.mcu.externaltools.gnu-tools-for-stm32.11.3.rel1.win32_1.1.1.202309131626/tools/bin/../lib/gcc/arm-none-eabi/11.3.1/thumb/v7e-m+dp/hard\libgcc.a(_fixunsdfdi.o)
                0x0000000008000768                __fixunsdfdi
                0x0000000008000768                __aeabi_d2ulz
 .text          0x00000000080007a8      0x2c8 D:/Soft/Devlopment Tools/CubIDE/STM32CubeIDE_1.13.2/STM32CubeIDE/plugins/com.st.stm32cube.ide.mcu.externaltools.gnu-tools-for-stm32.11.3.rel1.win32_1.1.1.202309131626/tools/bin/../lib/gcc/arm-none-eabi/11.3.1/thumb/v7e-m+dp/hard\libgcc.a(_udivmoddi4.o)
                0x00000000080007a8                __udivmoddi4
 .text          0x0000000008000a70        0x4 D:/Soft/Devlopment Tools/CubIDE/STM32CubeIDE_1.13.2/STM32CubeIDE/plugins/com.st.stm32cube.ide.mcu.externaltools.gnu-tools-for-stm32.11.3.rel1.win32_1.1.1.202309131626/tools/bin/../lib/gcc/arm-none-eabi/11.3.1/thumb/v7e-m+dp/hard\libgcc.a(_dvmd_tls.o)
                0x0000000008000a70                __aeabi_idiv0
                0x0000000008000a70                __aeabi_ldiv0
 *(.text*)
 .text.MX_GPIO_Init
                0x0000000008000a74       0xac ./Core/Src/gpio.o
                0x0000000008000a74                MX_GPIO_Init
 .text.main     0x0000000008000b20       0xac ./Core/Src/main.o
                0x0000000008000b20                main
 .text.SystemClock_Config
                0x0000000008000bcc      0x160 ./Core/Src/main.o
                0x0000000008000bcc                SystemClock_Config
 .text.MPU_Config
                0x0000000008000d2c       0x5a ./Core/Src/main.o
 .text.Error_Handler
                0x0000000008000d86        0xa ./Core/Src/main.o
                0x0000000008000d86                Error_Handler
 .text.HAL_MspInit
                0x0000000008000d90       0x34 ./Core/Src/stm32h7xx_hal_msp.o
                0x0000000008000d90                HAL_MspInit
 .text.NMI_Handler
                0x0000000008000dc4        0x6 ./Core/Src/stm32h7xx_it.o
                0x0000000008000dc4                NMI_Handler
 .text.HardFault_Handler
                0x0000000008000dca        0x6 ./Core/Src/stm32h7xx_it.o
                0x0000000008000dca                HardFault_Handler
 .text.MemManage_Handler
                0x0000000008000dd0        0x6 ./Core/Src/stm32h7xx_it.o
                0x0000000008000dd0                MemManage_Handler
 .text.BusFault_Handler
                0x0000000008000dd6        0x6 ./Core/Src/stm32h7xx_it.o
                0x0000000008000dd6                BusFault_Handler
 .text.UsageFault_Handler
                0x0000000008000ddc        0x6 ./Core/Src/stm32h7xx_it.o
                0x0000000008000ddc                UsageFault_Handler
 .text.SVC_Handler
                0x0000000008000de2        0xe ./Core/Src/stm32h7xx_it.o
                0x0000000008000de2                SVC_Handler
 .text.DebugMon_Handler
                0x0000000008000df0        0xe ./Core/Src/stm32h7xx_it.o
                0x0000000008000df0                DebugMon_Handler
 .text.PendSV_Handler
                0x0000000008000dfe        0xe ./Core/Src/stm32h7xx_it.o
                0x0000000008000dfe                PendSV_Handler
 .text.SysTick_Handler
                0x0000000008000e0c        0xc ./Core/Src/stm32h7xx_it.o
                0x0000000008000e0c                SysTick_Handler
 .text.USART1_IRQHandler
                0x0000000008000e18       0x14 ./Core/Src/stm32h7xx_it.o
                0x0000000008000e18                USART1_IRQHandler
 .text.ETH_IRQHandler
                0x0000000008000e2c       0x14 ./Core/Src/stm32h7xx_it.o
                0x0000000008000e2c                ETH_IRQHandler
 .text.ETH_WKUP_IRQHandler
                0x0000000008000e40       0x14 ./Core/Src/stm32h7xx_it.o
                0x0000000008000e40                ETH_WKUP_IRQHandler
 .text._getpid  0x0000000008000e54       0x10 ./Core/Src/syscalls.o
                0x0000000008000e54                _getpid
 .text._kill    0x0000000008000e64       0x24 ./Core/Src/syscalls.o
                0x0000000008000e64                _kill
 .text._exit    0x0000000008000e88       0x14 ./Core/Src/syscalls.o
                0x0000000008000e88                _exit
 .text._read    0x0000000008000e9c       0x3a ./Core/Src/syscalls.o
                0x0000000008000e9c                _read
 .text._write   0x0000000008000ed6       0x38 ./Core/Src/syscalls.o
                0x0000000008000ed6                _write
 .text._close   0x0000000008000f0e       0x18 ./Core/Src/syscalls.o
                0x0000000008000f0e                _close
 .text._fstat   0x0000000008000f26       0x20 ./Core/Src/syscalls.o
                0x0000000008000f26                _fstat
 .text._isatty  0x0000000008000f46       0x16 ./Core/Src/syscalls.o
                0x0000000008000f46                _isatty
 .text._lseek   0x0000000008000f5c       0x1a ./Core/Src/syscalls.o
                0x0000000008000f5c                _lseek
 *fill*         0x0000000008000f76        0x2 
 .text._sbrk    0x0000000008000f78       0x70 ./Core/Src/sysmem.o
                0x0000000008000f78                _sbrk
 .text.SystemInit
                0x0000000008000fe8      0x110 ./Core/Src/system_stm32h7xx.o
                0x0000000008000fe8                SystemInit
 .text.MX_USART1_UART_Init
                0x00000000080010f8       0x98 ./Core/Src/usart.o
                0x00000000080010f8                MX_USART1_UART_Init
 .text.HAL_UART_MspInit
                0x0000000008001190       0xe4 ./Core/Src/usart.o
                0x0000000008001190                HAL_UART_MspInit
 .text.Reset_Handler
                0x0000000008001274       0x50 ./Core/Startup/startup_stm32h743iitx.o
                0x0000000008001274                Reset_Handler
 .text.Default_Handler
                0x00000000080012c4        0x2 ./Core/Startup/startup_stm32h743iitx.o
                0x00000000080012c4                RTC_Alarm_IRQHandler
                0x00000000080012c4                EXTI2_IRQHandler
                0x00000000080012c4                TIM8_CC_IRQHandler
                0x00000000080012c4                HRTIM1_Master_IRQHandler
                0x00000000080012c4                UART8_IRQHandler
                0x00000000080012c4                SPI4_IRQHandler
                0x00000000080012c4                TIM1_CC_IRQHandler
                0x00000000080012c4                BDMA_Channel6_IRQHandler
                0x00000000080012c4                DMA2_Stream5_IRQHandler
                0x00000000080012c4                HRTIM1_FLT_IRQHandler
                0x00000000080012c4                JPEG_IRQHandler
                0x00000000080012c4                DMA1_Stream5_IRQHandler
                0x00000000080012c4                BDMA_Channel1_IRQHandler
                0x00000000080012c4                HRTIM1_TIMD_IRQHandler
                0x00000000080012c4                TAMP_STAMP_IRQHandler
                0x00000000080012c4                EXTI3_IRQHandler
                0x00000000080012c4                LPTIM4_IRQHandler
                0x00000000080012c4                TIM8_TRG_COM_TIM14_IRQHandler
                0x00000000080012c4                LPTIM2_IRQHandler
                0x00000000080012c4                DFSDM1_FLT1_IRQHandler
                0x00000000080012c4                DMAMUX2_OVR_IRQHandler
                0x00000000080012c4                TIM8_UP_TIM13_IRQHandler
                0x00000000080012c4                I2C3_ER_IRQHandler
                0x00000000080012c4                DFSDM1_FLT2_IRQHandler
                0x00000000080012c4                MDMA_IRQHandler
                0x00000000080012c4                LPTIM3_IRQHandler
                0x00000000080012c4                HSEM1_IRQHandler
                0x00000000080012c4                EXTI0_IRQHandler
                0x00000000080012c4                I2C2_EV_IRQHandler
                0x00000000080012c4                DMA1_Stream2_IRQHandler
                0x00000000080012c4                FPU_IRQHandler
                0x00000000080012c4                OTG_HS_WKUP_IRQHandler
                0x00000000080012c4                FDCAN1_IT1_IRQHandler
                0x00000000080012c4                LTDC_ER_IRQHandler
                0x00000000080012c4                DMA2_Stream2_IRQHandler
                0x00000000080012c4                HRTIM1_TIME_IRQHandler
                0x00000000080012c4                SPI1_IRQHandler
                0x00000000080012c4                TIM6_DAC_IRQHandler
                0x00000000080012c4                DCMI_IRQHandler
                0x00000000080012c4                HRTIM1_TIMC_IRQHandler
                0x00000000080012c4                DMA2_Stream3_IRQHandler
                0x00000000080012c4                SAI2_IRQHandler
                0x00000000080012c4                DFSDM1_FLT3_IRQHandler
                0x00000000080012c4                USART6_IRQHandler
                0x00000000080012c4                TIM17_IRQHandler
                0x00000000080012c4                USART3_IRQHandler
                0x00000000080012c4                BDMA_Channel7_IRQHandler
                0x00000000080012c4                LPTIM5_IRQHandler
                0x00000000080012c4                UART5_IRQHandler
                0x00000000080012c4                ADC3_IRQHandler
                0x00000000080012c4                DMA2_Stream0_IRQHandler
                0x00000000080012c4                TIM4_IRQHandler
                0x00000000080012c4                BDMA_Channel2_IRQHandler
                0x00000000080012c4                QUADSPI_IRQHandler
                0x00000000080012c4                I2C1_EV_IRQHandler
                0x00000000080012c4                DMA1_Stream6_IRQHandler
                0x00000000080012c4                DMAMUX1_OVR_IRQHandler
                0x00000000080012c4                DMA1_Stream1_IRQHandler
                0x00000000080012c4                TIM16_IRQHandler
                0x00000000080012c4                UART4_IRQHandler
                0x00000000080012c4                BDMA_Channel5_IRQHandler
                0x00000000080012c4                TIM3_IRQHandler
                0x00000000080012c4                RCC_IRQHandler
                0x00000000080012c4                TIM8_BRK_TIM12_IRQHandler
                0x00000000080012c4                TIM1_TRG_COM_IRQHandler
                0x00000000080012c4                Default_Handler
                0x00000000080012c4                ECC_IRQHandler
                0x00000000080012c4                CEC_IRQHandler
                0x00000000080012c4                EXTI15_10_IRQHandler
                0x00000000080012c4                BDMA_Channel0_IRQHandler
                0x00000000080012c4                ADC_IRQHandler
                0x00000000080012c4                DMA1_Stream7_IRQHandler
                0x00000000080012c4                HRTIM1_TIMA_IRQHandler
                0x00000000080012c4                SPI5_IRQHandler
                0x00000000080012c4                TIM7_IRQHandler
                0x00000000080012c4                SDMMC1_IRQHandler
                0x00000000080012c4                TIM5_IRQHandler
                0x00000000080012c4                DMA2_Stream7_IRQHandler
                0x00000000080012c4                TIM15_IRQHandler
                0x00000000080012c4                PVD_AVD_IRQHandler
                0x00000000080012c4                I2C3_EV_IRQHandler
                0x00000000080012c4                EXTI9_5_IRQHandler
                0x00000000080012c4                RTC_WKUP_IRQHandler
                0x00000000080012c4                LTDC_IRQHandler
                0x00000000080012c4                SAI3_IRQHandler
                0x00000000080012c4                SPDIF_RX_IRQHandler
                0x00000000080012c4                SPI2_IRQHandler
                0x00000000080012c4                OTG_HS_EP1_IN_IRQHandler
                0x00000000080012c4                DMA1_Stream0_IRQHandler
                0x00000000080012c4                CRS_IRQHandler
                0x00000000080012c4                EXTI4_IRQHandler
                0x00000000080012c4                RNG_IRQHandler
                0x00000000080012c4                HRTIM1_TIMB_IRQHandler
                0x00000000080012c4                FDCAN2_IT1_IRQHandler
                0x00000000080012c4                TIM1_UP_IRQHandler
                0x00000000080012c4                BDMA_Channel4_IRQHandler
                0x00000000080012c4                OTG_HS_EP1_OUT_IRQHandler
                0x00000000080012c4                WWDG_IRQHandler
                0x00000000080012c4                SPI6_IRQHandler
                0x00000000080012c4                MDIOS_IRQHandler
                0x00000000080012c4                I2C4_EV_IRQHandler
                0x00000000080012c4                FDCAN2_IT0_IRQHandler
                0x00000000080012c4                LPUART1_IRQHandler
                0x00000000080012c4                FDCAN1_IT0_IRQHandler
                0x00000000080012c4                TIM2_IRQHandler
                0x00000000080012c4                OTG_FS_WKUP_IRQHandler
                0x00000000080012c4                OTG_HS_IRQHandler
                0x00000000080012c4                DMA2D_IRQHandler
                0x00000000080012c4                TIM1_BRK_IRQHandler
                0x00000000080012c4                EXTI1_IRQHandler
                0x00000000080012c4                SDMMC2_IRQHandler
                0x00000000080012c4                OTG_FS_EP1_OUT_IRQHandler
                0x00000000080012c4                BDMA_Channel3_IRQHandler
                0x00000000080012c4                UART7_IRQHandler
                0x00000000080012c4                MDIOS_WKUP_IRQHandler
                0x00000000080012c4                USART2_IRQHandler
                0x00000000080012c4                DFSDM1_FLT0_IRQHandler
                0x00000000080012c4                SAI4_IRQHandler
                0x00000000080012c4                I2C2_ER_IRQHandler
                0x00000000080012c4                DMA2_Stream1_IRQHandler
                0x00000000080012c4                FLASH_IRQHandler
                0x00000000080012c4                DMA2_Stream4_IRQHandler
                0x00000000080012c4                OTG_FS_IRQHandler
                0x00000000080012c4                SPI3_IRQHandler
                0x00000000080012c4                WAKEUP_PIN_IRQHandler
                0x00000000080012c4                DMA1_Stream4_IRQHandler
                0x00000000080012c4                OTG_FS_EP1_IN_IRQHandler
                0x00000000080012c4                I2C1_ER_IRQHandler
                0x00000000080012c4                FMC_IRQHandler
                0x00000000080012c4                FDCAN_CAL_IRQHandler
                0x00000000080012c4                SWPMI1_IRQHandler
                0x00000000080012c4                COMP1_IRQHandler
                0x00000000080012c4                LPTIM1_IRQHandler
                0x00000000080012c4                I2C4_ER_IRQHandler
                0x00000000080012c4                DMA2_Stream6_IRQHandler
                0x00000000080012c4                SAI1_IRQHandler
                0x00000000080012c4                DMA1_Stream3_IRQHandler
 .text.LAN8742_RegisterBusIO
                0x00000000080012c6       0x64 ./Drivers/BSP/Components/lan8742/lan8742.o
                0x00000000080012c6                LAN8742_RegisterBusIO
 .text.LAN8742_Init
                0x000000000800132a      0x150 ./Drivers/BSP/Components/lan8742/lan8742.o
                0x000000000800132a                LAN8742_Init
 .text.LAN8742_GetLinkState
                0x000000000800147a      0x10e ./Drivers/BSP/Components/lan8742/lan8742.o
                0x000000000800147a                LAN8742_GetLinkState
 .text.IIC_Init
                0x0000000008001588       0x64 ./Drivers/IIC/myiic.o
                0x0000000008001588                IIC_Init
 .text.IIC_Start
                0x00000000080015ec       0x58 ./Drivers/IIC/myiic.o
                0x00000000080015ec                IIC_Start
 .text.IIC_Stop
                0x0000000008001644       0x58 ./Drivers/IIC/myiic.o
                0x0000000008001644                IIC_Stop
 .text.IIC_Wait_Ack
                0x000000000800169c       0x7c ./Drivers/IIC/myiic.o
                0x000000000800169c                IIC_Wait_Ack
 .text.IIC_Ack  0x0000000008001718       0x58 ./Drivers/IIC/myiic.o
                0x0000000008001718                IIC_Ack
 .text.IIC_NAck
                0x0000000008001770       0x58 ./Drivers/IIC/myiic.o
                0x0000000008001770                IIC_NAck
 .text.IIC_Send_Byte
                0x00000000080017c8       0x98 ./Drivers/IIC/myiic.o
                0x00000000080017c8                IIC_Send_Byte
 .text.IIC_Read_Byte
                0x0000000008001860       0x8c ./Drivers/IIC/myiic.o
                0x0000000008001860                IIC_Read_Byte
 .text.PCF8574_Init
                0x00000000080018ec       0x78 ./Drivers/PCF8574/pcf8574.o
                0x00000000080018ec                PCF8574_Init
 .text.PCF8574_ReadOneByte
                0x0000000008001964       0x30 ./Drivers/PCF8574/pcf8574.o
                0x0000000008001964                PCF8574_ReadOneByte
 .text.PCF8574_WriteOneByte
                0x0000000008001994       0x36 ./Drivers/PCF8574/pcf8574.o
                0x0000000008001994                PCF8574_WriteOneByte
 .text.PCF8574_WriteBit
                0x00000000080019ca       0x5c ./Drivers/PCF8574/pcf8574.o
                0x00000000080019ca                PCF8574_WriteBit
 *fill*         0x0000000008001a26        0x2 
 .text.HAL_Init
                0x0000000008001a28       0x78 ./Drivers/STM32H7xx_HAL_Driver/Src/stm32h7xx_hal.o
                0x0000000008001a28                HAL_Init
 .text.HAL_InitTick
                0x0000000008001aa0       0x6c ./Drivers/STM32H7xx_HAL_Driver/Src/stm32h7xx_hal.o
                0x0000000008001aa0                HAL_InitTick
 .text.HAL_IncTick
                0x0000000008001b0c       0x28 ./Drivers/STM32H7xx_HAL_Driver/Src/stm32h7xx_hal.o
                0x0000000008001b0c                HAL_IncTick
 .text.HAL_GetTick
                0x0000000008001b34       0x18 ./Drivers/STM32H7xx_HAL_Driver/Src/stm32h7xx_hal.o
                0x0000000008001b34                HAL_GetTick
 .text.HAL_Delay
                0x0000000008001b4c       0x48 ./Drivers/STM32H7xx_HAL_Driver/Src/stm32h7xx_hal.o
                0x0000000008001b4c                HAL_Delay
 .text.HAL_GetREVID
                0x0000000008001b94       0x18 ./Drivers/STM32H7xx_HAL_Driver/Src/stm32h7xx_hal.o
                0x0000000008001b94                HAL_GetREVID
 .text.HAL_SYSCFG_ETHInterfaceSelect
                0x0000000008001bac       0x28 ./Drivers/STM32H7xx_HAL_Driver/Src/stm32h7xx_hal.o
                0x0000000008001bac                HAL_SYSCFG_ETHInterfaceSelect
 .text.__NVIC_SetPriorityGrouping
                0x0000000008001bd4       0x48 ./Drivers/STM32H7xx_HAL_Driver/Src/stm32h7xx_hal_cortex.o
 .text.__NVIC_GetPriorityGrouping
                0x0000000008001c1c       0x1c ./Drivers/STM32H7xx_HAL_Driver/Src/stm32h7xx_hal_cortex.o
 .text.__NVIC_EnableIRQ
                0x0000000008001c38       0x3c ./Drivers/STM32H7xx_HAL_Driver/Src/stm32h7xx_hal_cortex.o
 .text.__NVIC_SetPriority
                0x0000000008001c74       0x54 ./Drivers/STM32H7xx_HAL_Driver/Src/stm32h7xx_hal_cortex.o
 .text.NVIC_EncodePriority
                0x0000000008001cc8       0x66 ./Drivers/STM32H7xx_HAL_Driver/Src/stm32h7xx_hal_cortex.o
 *fill*         0x0000000008001d2e        0x2 
 .text.SysTick_Config
                0x0000000008001d30       0x44 ./Drivers/STM32H7xx_HAL_Driver/Src/stm32h7xx_hal_cortex.o
 .text.HAL_NVIC_SetPriorityGrouping
                0x0000000008001d74       0x16 ./Drivers/STM32H7xx_HAL_Driver/Src/stm32h7xx_hal_cortex.o
                0x0000000008001d74                HAL_NVIC_SetPriorityGrouping
 .text.HAL_NVIC_SetPriority
                0x0000000008001d8a       0x34 ./Drivers/STM32H7xx_HAL_Driver/Src/stm32h7xx_hal_cortex.o
                0x0000000008001d8a                HAL_NVIC_SetPriority
 .text.HAL_NVIC_EnableIRQ
                0x0000000008001dbe       0x1c ./Drivers/STM32H7xx_HAL_Driver/Src/stm32h7xx_hal_cortex.o
                0x0000000008001dbe                HAL_NVIC_EnableIRQ
 .text.HAL_SYSTICK_Config
                0x0000000008001dda       0x18 ./Drivers/STM32H7xx_HAL_Driver/Src/stm32h7xx_hal_cortex.o
                0x0000000008001dda                HAL_SYSTICK_Config
 *fill*         0x0000000008001df2        0x2 
 .text.HAL_MPU_Disable
                0x0000000008001df4       0x30 ./Drivers/STM32H7xx_HAL_Driver/Src/stm32h7xx_hal_cortex.o
                0x0000000008001df4                HAL_MPU_Disable
 .text.HAL_MPU_Enable
                0x0000000008001e24       0x40 ./Drivers/STM32H7xx_HAL_Driver/Src/stm32h7xx_hal_cortex.o
                0x0000000008001e24                HAL_MPU_Enable
 .text.HAL_MPU_ConfigRegion
                0x0000000008001e64       0x88 ./Drivers/STM32H7xx_HAL_Driver/Src/stm32h7xx_hal_cortex.o
                0x0000000008001e64                HAL_MPU_ConfigRegion
 .text.HAL_DMA_Abort
                0x0000000008001eec      0x63c ./Drivers/STM32H7xx_HAL_Driver/Src/stm32h7xx_hal_dma.o
                0x0000000008001eec                HAL_DMA_Abort
 .text.HAL_DMA_Abort_IT
                0x0000000008002528      0x48c ./Drivers/STM32H7xx_HAL_Driver/Src/stm32h7xx_hal_dma.o
                0x0000000008002528                HAL_DMA_Abort_IT
 .text.HAL_ETH_Init
                0x00000000080029b4      0x1cc ./Drivers/STM32H7xx_HAL_Driver/Src/stm32h7xx_hal_eth.o
                0x00000000080029b4                HAL_ETH_Init
 .text.HAL_ETH_Start
                0x0000000008002b80       0xc4 ./Drivers/STM32H7xx_HAL_Driver/Src/stm32h7xx_hal_eth.o
                0x0000000008002b80                HAL_ETH_Start
 .text.HAL_ETH_Stop
                0x0000000008002c44       0xa0 ./Drivers/STM32H7xx_HAL_Driver/Src/stm32h7xx_hal_eth.o
                0x0000000008002c44                HAL_ETH_Stop
 .text.HAL_ETH_Transmit
                0x0000000008002ce4      0x12e ./Drivers/STM32H7xx_HAL_Driver/Src/stm32h7xx_hal_eth.o
                0x0000000008002ce4                HAL_ETH_Transmit
 .text.HAL_ETH_ReadData
                0x0000000008002e12      0x180 ./Drivers/STM32H7xx_HAL_Driver/Src/stm32h7xx_hal_eth.o
                0x0000000008002e12                HAL_ETH_ReadData
 .text.ETH_UpdateDescriptor
                0x0000000008002f92       0xdc ./Drivers/STM32H7xx_HAL_Driver/Src/stm32h7xx_hal_eth.o
 *fill*         0x000000000800306e        0x2 
 .text.HAL_ETH_IRQHandler
                0x0000000008003070      0x220 ./Drivers/STM32H7xx_HAL_Driver/Src/stm32h7xx_hal_eth.o
                0x0000000008003070                HAL_ETH_IRQHandler
 .text.HAL_ETH_TxCpltCallback
                0x0000000008003290       0x14 ./Drivers/STM32H7xx_HAL_Driver/Src/stm32h7xx_hal_eth.o
                0x0000000008003290                HAL_ETH_TxCpltCallback
 .text.HAL_ETH_RxCpltCallback
                0x00000000080032a4       0x14 ./Drivers/STM32H7xx_HAL_Driver/Src/stm32h7xx_hal_eth.o
                0x00000000080032a4                HAL_ETH_RxCpltCallback
 .text.HAL_ETH_ErrorCallback
                0x00000000080032b8       0x14 ./Drivers/STM32H7xx_HAL_Driver/Src/stm32h7xx_hal_eth.o
                0x00000000080032b8                HAL_ETH_ErrorCallback
 .text.HAL_ETH_PMTCallback
                0x00000000080032cc       0x14 ./Drivers/STM32H7xx_HAL_Driver/Src/stm32h7xx_hal_eth.o
                0x00000000080032cc                HAL_ETH_PMTCallback
 .text.HAL_ETH_EEECallback
                0x00000000080032e0       0x14 ./Drivers/STM32H7xx_HAL_Driver/Src/stm32h7xx_hal_eth.o
                0x00000000080032e0                HAL_ETH_EEECallback
 .text.HAL_ETH_WakeUpCallback
                0x00000000080032f4       0x14 ./Drivers/STM32H7xx_HAL_Driver/Src/stm32h7xx_hal_eth.o
                0x00000000080032f4                HAL_ETH_WakeUpCallback
 .text.HAL_ETH_ReadPHYRegister
                0x0000000008003308       0xa8 ./Drivers/STM32H7xx_HAL_Driver/Src/stm32h7xx_hal_eth.o
                0x0000000008003308                HAL_ETH_ReadPHYRegister
 .text.HAL_ETH_WritePHYRegister
                0x00000000080033b0       0xa8 ./Drivers/STM32H7xx_HAL_Driver/Src/stm32h7xx_hal_eth.o
                0x00000000080033b0                HAL_ETH_WritePHYRegister
 .text.HAL_ETH_GetMACConfig
                0x0000000008003458      0x3a8 ./Drivers/STM32H7xx_HAL_Driver/Src/stm32h7xx_hal_eth.o
                0x0000000008003458                HAL_ETH_GetMACConfig
 .text.HAL_ETH_SetMACConfig
                0x0000000008003800       0x34 ./Drivers/STM32H7xx_HAL_Driver/Src/stm32h7xx_hal_eth.o
                0x0000000008003800                HAL_ETH_SetMACConfig
 .text.HAL_ETH_SetMDIOClockRange
                0x0000000008003834       0xb0 ./Drivers/STM32H7xx_HAL_Driver/Src/stm32h7xx_hal_eth.o
                0x0000000008003834                HAL_ETH_SetMDIOClockRange
 .text.ETH_SetMACConfig
                0x00000000080038e4      0x238 ./Drivers/STM32H7xx_HAL_Driver/Src/stm32h7xx_hal_eth.o
 .text.ETH_SetDMAConfig
                0x0000000008003b1c      0x10c ./Drivers/STM32H7xx_HAL_Driver/Src/stm32h7xx_hal_eth.o
 .text.ETH_MACDMAConfig
                0x0000000008003c28      0x13a ./Drivers/STM32H7xx_HAL_Driver/Src/stm32h7xx_hal_eth.o
 .text.ETH_DMATxDescListInit
                0x0000000008003d62       0x92 ./Drivers/STM32H7xx_HAL_Driver/Src/stm32h7xx_hal_eth.o
 .text.ETH_DMARxDescListInit
                0x0000000008003df4       0xba ./Drivers/STM32H7xx_HAL_Driver/Src/stm32h7xx_hal_eth.o
 *fill*         0x0000000008003eae        0x2 
 .text.ETH_Prepare_Tx_Descriptors
                0x0000000008003eb0      0x51c ./Drivers/STM32H7xx_HAL_Driver/Src/stm32h7xx_hal_eth.o
 .text.HAL_GPIO_Init
                0x00000000080043cc      0x360 ./Drivers/STM32H7xx_HAL_Driver/Src/stm32h7xx_hal_gpio.o
                0x00000000080043cc                HAL_GPIO_Init
 .text.HAL_GPIO_ReadPin
                0x000000000800472c       0x30 ./Drivers/STM32H7xx_HAL_Driver/Src/stm32h7xx_hal_gpio.o
                0x000000000800472c                HAL_GPIO_ReadPin
 .text.HAL_GPIO_WritePin
                0x000000000800475c       0x32 ./Drivers/STM32H7xx_HAL_Driver/Src/stm32h7xx_hal_gpio.o
                0x000000000800475c                HAL_GPIO_WritePin
 *fill*         0x000000000800478e        0x2 
 .text.HAL_PWREx_ConfigSupply
                0x0000000008004790       0x74 ./Drivers/STM32H7xx_HAL_Driver/Src/stm32h7xx_hal_pwr_ex.o
                0x0000000008004790                HAL_PWREx_ConfigSupply
 .text.HAL_RCC_OscConfig
                0x0000000008004804      0x8b4 ./Drivers/STM32H7xx_HAL_Driver/Src/stm32h7xx_hal_rcc.o
                0x0000000008004804                HAL_RCC_OscConfig
 .text.HAL_RCC_ClockConfig
                0x00000000080050b8      0x36c ./Drivers/STM32H7xx_HAL_Driver/Src/stm32h7xx_hal_rcc.o
                0x00000000080050b8                HAL_RCC_ClockConfig
 .text.HAL_RCC_GetSysClockFreq
                0x0000000008005424      0x2f4 ./Drivers/STM32H7xx_HAL_Driver/Src/stm32h7xx_hal_rcc.o
                0x0000000008005424                HAL_RCC_GetSysClockFreq
 .text.HAL_RCC_GetHCLKFreq
                0x0000000008005718       0x60 ./Drivers/STM32H7xx_HAL_Driver/Src/stm32h7xx_hal_rcc.o
                0x0000000008005718                HAL_RCC_GetHCLKFreq
 .text.HAL_RCC_GetPCLK1Freq
                0x0000000008005778       0x2c ./Drivers/STM32H7xx_HAL_Driver/Src/stm32h7xx_hal_rcc.o
                0x0000000008005778                HAL_RCC_GetPCLK1Freq
 .text.HAL_RCC_GetPCLK2Freq
                0x00000000080057a4       0x2c ./Drivers/STM32H7xx_HAL_Driver/Src/stm32h7xx_hal_rcc.o
                0x00000000080057a4                HAL_RCC_GetPCLK2Freq
 .text.HAL_RCCEx_PeriphCLKConfig
                0x00000000080057d0     0x1414 ./Drivers/STM32H7xx_HAL_Driver/Src/stm32h7xx_hal_rcc_ex.o
                0x00000000080057d0                HAL_RCCEx_PeriphCLKConfig
 .text.HAL_RCCEx_GetD3PCLK1Freq
                0x0000000008006be4       0x2c ./Drivers/STM32H7xx_HAL_Driver/Src/stm32h7xx_hal_rcc_ex.o
                0x0000000008006be4                HAL_RCCEx_GetD3PCLK1Freq
 .text.HAL_RCCEx_GetPLL2ClockFreq
                0x0000000008006c10      0x2a8 ./Drivers/STM32H7xx_HAL_Driver/Src/stm32h7xx_hal_rcc_ex.o
                0x0000000008006c10                HAL_RCCEx_GetPLL2ClockFreq
 .text.HAL_RCCEx_GetPLL3ClockFreq
                0x0000000008006eb8      0x2a8 ./Drivers/STM32H7xx_HAL_Driver/Src/stm32h7xx_hal_rcc_ex.o
                0x0000000008006eb8                HAL_RCCEx_GetPLL3ClockFreq
 .text.RCCEx_PLL2_Config
                0x0000000008007160      0x164 ./Drivers/STM32H7xx_HAL_Driver/Src/stm32h7xx_hal_rcc_ex.o
 .text.RCCEx_PLL3_Config
                0x00000000080072c4      0x164 ./Drivers/STM32H7xx_HAL_Driver/Src/stm32h7xx_hal_rcc_ex.o
 .text.HAL_UART_Init
                0x0000000008007428       0xa0 ./Drivers/STM32H7xx_HAL_Driver/Src/stm32h7xx_hal_uart.o
                0x0000000008007428                HAL_UART_Init
 .text.HAL_UART_IRQHandler
                0x00000000080074c8      0x774 ./Drivers/STM32H7xx_HAL_Driver/Src/stm32h7xx_hal_uart.o
                0x00000000080074c8                HAL_UART_IRQHandler
 .text.HAL_UART_TxCpltCallback
                0x0000000008007c3c       0x14 ./Drivers/STM32H7xx_HAL_Driver/Src/stm32h7xx_hal_uart.o
                0x0000000008007c3c                HAL_UART_TxCpltCallback
 .text.HAL_UART_ErrorCallback
                0x0000000008007c50       0x14 ./Drivers/STM32H7xx_HAL_Driver/Src/stm32h7xx_hal_uart.o
                0x0000000008007c50                HAL_UART_ErrorCallback
 .text.HAL_UARTEx_RxEventCallback
                0x0000000008007c64       0x18 ./Drivers/STM32H7xx_HAL_Driver/Src/stm32h7xx_hal_uart.o
                0x0000000008007c64                HAL_UARTEx_RxEventCallback
 .text.UART_SetConfig
                0x0000000008007c7c      0xad0 ./Drivers/STM32H7xx_HAL_Driver/Src/stm32h7xx_hal_uart.o
                0x0000000008007c7c                UART_SetConfig
 .text.UART_AdvFeatureConfig
                0x000000000800874c      0x144 ./Drivers/STM32H7xx_HAL_Driver/Src/stm32h7xx_hal_uart.o
                0x000000000800874c                UART_AdvFeatureConfig
 .text.UART_CheckIdleState
                0x0000000008008890      0x154 ./Drivers/STM32H7xx_HAL_Driver/Src/stm32h7xx_hal_uart.o
                0x0000000008008890                UART_CheckIdleState
 .text.UART_WaitOnFlagUntilTimeout
                0x00000000080089e4       0xce ./Drivers/STM32H7xx_HAL_Driver/Src/stm32h7xx_hal_uart.o
                0x00000000080089e4                UART_WaitOnFlagUntilTimeout
 *fill*         0x0000000008008ab2        0x2 
 .text.UART_EndRxTransfer
                0x0000000008008ab4       0xcc ./Drivers/STM32H7xx_HAL_Driver/Src/stm32h7xx_hal_uart.o
 .text.UART_DMAAbortOnError
                0x0000000008008b80       0x2c ./Drivers/STM32H7xx_HAL_Driver/Src/stm32h7xx_hal_uart.o
 .text.UART_EndTransmit_IT
                0x0000000008008bac       0x56 ./Drivers/STM32H7xx_HAL_Driver/Src/stm32h7xx_hal_uart.o
 .text.HAL_UARTEx_WakeupCallback
                0x0000000008008c02       0x14 ./Drivers/STM32H7xx_HAL_Driver/Src/stm32h7xx_hal_uart_ex.o
                0x0000000008008c02                HAL_UARTEx_WakeupCallback
 .text.HAL_UARTEx_RxFifoFullCallback
                0x0000000008008c16       0x14 ./Drivers/STM32H7xx_HAL_Driver/Src/stm32h7xx_hal_uart_ex.o
                0x0000000008008c16                HAL_UARTEx_RxFifoFullCallback
 .text.HAL_UARTEx_TxFifoEmptyCallback
                0x0000000008008c2a       0x14 ./Drivers/STM32H7xx_HAL_Driver/Src/stm32h7xx_hal_uart_ex.o
                0x0000000008008c2a                HAL_UARTEx_TxFifoEmptyCallback
 .text.HAL_UARTEx_DisableFifoMode
                0x0000000008008c3e       0x72 ./Drivers/STM32H7xx_HAL_Driver/Src/stm32h7xx_hal_uart_ex.o
                0x0000000008008c3e                HAL_UARTEx_DisableFifoMode
 .text.HAL_UARTEx_SetTxFifoThreshold
                0x0000000008008cb0       0x7c ./Drivers/STM32H7xx_HAL_Driver/Src/stm32h7xx_hal_uart_ex.o
                0x0000000008008cb0                HAL_UARTEx_SetTxFifoThreshold
 .text.HAL_UARTEx_SetRxFifoThreshold
                0x0000000008008d2c       0x7c ./Drivers/STM32H7xx_HAL_Driver/Src/stm32h7xx_hal_uart_ex.o
                0x0000000008008d2c                HAL_UARTEx_SetRxFifoThreshold
 .text.UARTEx_SetNbDataToProcess
                0x0000000008008da8       0x9c ./Drivers/STM32H7xx_HAL_Driver/Src/stm32h7xx_hal_uart_ex.o
 .text.delay_us
                0x0000000008008e44       0x7c ./Drivers/delay/delay.o
                0x0000000008008e44                delay_us
 .text.delay_ms
                0x0000000008008ec0       0x30 ./Drivers/delay/delay.o
                0x0000000008008ec0                delay_ms
 .text.MX_LWIP_Init
                0x0000000008008ef0      0x264 ./LWIP/App/lwip.o
                0x0000000008008ef0                MX_LWIP_Init
 .text.Ethernet_Link_Periodic_Handle
                0x0000000008009154       0x34 ./LWIP/App/lwip.o
 .text.MX_LWIP_Process
                0x0000000008009188       0x1c ./LWIP/App/lwip.o
                0x0000000008009188                MX_LWIP_Process
 .text.ethernet_link_status_updated
                0x00000000080091a4       0x14 ./LWIP/App/lwip.o
 .text.low_level_init
                0x00000000080091b8      0x14c ./LWIP/Target/ethernetif.o
 .text.low_level_output
                0x0000000008009304      0x168 ./LWIP/Target/ethernetif.o
 .text.low_level_input
                0x000000000800946c       0x98 ./LWIP/Target/ethernetif.o
 .text.ethernetif_input
                0x0000000008009504       0x40 ./LWIP/Target/ethernetif.o
                0x0000000008009504                ethernetif_input
 .text.ethernetif_init
                0x0000000008009544       0x5c ./LWIP/Target/ethernetif.o
                0x0000000008009544                ethernetif_init
 .text.pbuf_free_custom
                0x00000000080095a0       0x34 ./LWIP/Target/ethernetif.o
                0x00000000080095a0                pbuf_free_custom
 .text.sys_now  0x00000000080095d4        0xe ./LWIP/Target/ethernetif.o
                0x00000000080095d4                sys_now
 *fill*         0x00000000080095e2        0x2 
 .text.HAL_ETH_MspInit
                0x00000000080095e4      0x1bc ./LWIP/Target/ethernetif.o
                0x00000000080095e4                HAL_ETH_MspInit
 .text.ETH_PHY_IO_Init
                0x00000000080097a0       0x14 ./LWIP/Target/ethernetif.o
                0x00000000080097a0                ETH_PHY_IO_Init
 .text.ETH_PHY_IO_DeInit
                0x00000000080097b4       0x10 ./LWIP/Target/ethernetif.o
                0x00000000080097b4                ETH_PHY_IO_DeInit
 .text.ETH_PHY_IO_ReadReg
                0x00000000080097c4       0x34 ./LWIP/Target/ethernetif.o
                0x00000000080097c4                ETH_PHY_IO_ReadReg
 .text.ETH_PHY_IO_WriteReg
                0x00000000080097f8       0x34 ./LWIP/Target/ethernetif.o
                0x00000000080097f8                ETH_PHY_IO_WriteReg
 .text.ETH_PHY_IO_GetTick
                0x000000000800982c        0xe ./LWIP/Target/ethernetif.o
                0x000000000800982c                ETH_PHY_IO_GetTick
 *fill*         0x000000000800983a        0x2 
 .text.ethernet_link_check_state
                0x000000000800983c      0x118 ./LWIP/Target/ethernetif.o
                0x000000000800983c                ethernet_link_check_state
 .text.HAL_ETH_RxAllocateCallback
                0x0000000008009954       0x60 ./LWIP/Target/ethernetif.o
                0x0000000008009954                HAL_ETH_RxAllocateCallback
 .text.HAL_ETH_RxLinkCallback
                0x00000000080099b4       0xd0 ./LWIP/Target/ethernetif.o
                0x00000000080099b4                HAL_ETH_RxLinkCallback
 .text.lwip_htons
                0x0000000008009a84       0x2a ./Middlewares/Third_Party/LwIP/src/core/def.o
                0x0000000008009a84                lwip_htons
 .text.lwip_htonl
                0x0000000008009aae       0x32 ./Middlewares/Third_Party/LwIP/src/core/def.o
                0x0000000008009aae                lwip_htonl
 .text.lwip_standard_chksum
                0x0000000008009ae0       0xba ./Middlewares/Third_Party/LwIP/src/core/inet_chksum.o
                0x0000000008009ae0                lwip_standard_chksum
 .text.inet_chksum
                0x0000000008009b9a       0x24 ./Middlewares/Third_Party/LwIP/src/core/inet_chksum.o
                0x0000000008009b9a                inet_chksum
 .text.inet_chksum_pbuf
                0x0000000008009bbe       0x9a ./Middlewares/Third_Party/LwIP/src/core/inet_chksum.o
                0x0000000008009bbe                inet_chksum_pbuf
 .text.lwip_init
                0x0000000008009c58       0x2a ./Middlewares/Third_Party/LwIP/src/core/init.o
                0x0000000008009c58                lwip_init
 *fill*         0x0000000008009c82        0x2 
 .text.ptr_to_mem
                0x0000000008009c84       0x24 ./Middlewares/Third_Party/LwIP/src/core/mem.o
 .text.mem_to_ptr
                0x0000000008009ca8       0x24 ./Middlewares/Third_Party/LwIP/src/core/mem.o
 .text.plug_holes
                0x0000000008009ccc      0x144 ./Middlewares/Third_Party/LwIP/src/core/mem.o
 .text.mem_init
                0x0000000008009e10       0x70 ./Middlewares/Third_Party/LwIP/src/core/mem.o
                0x0000000008009e10                mem_init
 .text.mem_link_valid
                0x0000000008009e80       0x78 ./Middlewares/Third_Party/LwIP/src/core/mem.o
 .text.mem_free
                0x0000000008009ef8       0xd4 ./Middlewares/Third_Party/LwIP/src/core/mem.o
                0x0000000008009ef8                mem_free
 .text.mem_trim
                0x0000000008009fcc      0x1f8 ./Middlewares/Third_Party/LwIP/src/core/mem.o
                0x0000000008009fcc                mem_trim
 .text.mem_malloc
                0x000000000800a1c4      0x1f4 ./Middlewares/Third_Party/LwIP/src/core/mem.o
                0x000000000800a1c4                mem_malloc
 .text.memp_init_pool
                0x000000000800a3b8       0x60 ./Middlewares/Third_Party/LwIP/src/core/memp.o
                0x000000000800a3b8                memp_init_pool
 .text.memp_init
                0x000000000800a418       0x34 ./Middlewares/Third_Party/LwIP/src/core/memp.o
                0x000000000800a418                memp_init
 .text.do_memp_malloc_pool
                0x000000000800a44c       0x54 ./Middlewares/Third_Party/LwIP/src/core/memp.o
 .text.memp_malloc_pool
                0x000000000800a4a0       0x44 ./Middlewares/Third_Party/LwIP/src/core/memp.o
                0x000000000800a4a0                memp_malloc_pool
 .text.memp_malloc
                0x000000000800a4e4       0x4c ./Middlewares/Third_Party/LwIP/src/core/memp.o
                0x000000000800a4e4                memp_malloc
 .text.do_memp_free_pool
                0x000000000800a530       0x4c ./Middlewares/Third_Party/LwIP/src/core/memp.o
 .text.memp_free_pool
                0x000000000800a57c       0x48 ./Middlewares/Third_Party/LwIP/src/core/memp.o
                0x000000000800a57c                memp_free_pool
 .text.memp_free
                0x000000000800a5c4       0x54 ./Middlewares/Third_Party/LwIP/src/core/memp.o
                0x000000000800a5c4                memp_free
 .text.netif_loopif_init
                0x000000000800a618       0x4c ./Middlewares/Third_Party/LwIP/src/core/netif.o
 .text.netif_init
                0x000000000800a664       0x54 ./Middlewares/Third_Party/LwIP/src/core/netif.o
                0x000000000800a664                netif_init
 .text.netif_add
                0x000000000800a6b8      0x1a8 ./Middlewares/Third_Party/LwIP/src/core/netif.o
                0x000000000800a6b8                netif_add
 .text.netif_do_ip_addr_changed
                0x000000000800a860       0x22 ./Middlewares/Third_Party/LwIP/src/core/netif.o
 *fill*         0x000000000800a882        0x2 
 .text.netif_do_set_ipaddr
                0x000000000800a884       0x94 ./Middlewares/Third_Party/LwIP/src/core/netif.o
 .text.netif_do_set_netmask
                0x000000000800a918       0x3e ./Middlewares/Third_Party/LwIP/src/core/netif.o
 .text.netif_do_set_gw
                0x000000000800a956       0x3e ./Middlewares/Third_Party/LwIP/src/core/netif.o
 .text.netif_set_addr
                0x000000000800a994       0x94 ./Middlewares/Third_Party/LwIP/src/core/netif.o
                0x000000000800a994                netif_set_addr
 .text.netif_set_default
                0x000000000800aa28       0x20 ./Middlewares/Third_Party/LwIP/src/core/netif.o
                0x000000000800aa28                netif_set_default
 .text.netif_set_up
                0x000000000800aa48       0x58 ./Middlewares/Third_Party/LwIP/src/core/netif.o
                0x000000000800aa48                netif_set_up
 .text.netif_issue_reports
                0x000000000800aaa0       0x80 ./Middlewares/Third_Party/LwIP/src/core/netif.o
 .text.netif_set_down
                0x000000000800ab20       0x64 ./Middlewares/Third_Party/LwIP/src/core/netif.o
                0x000000000800ab20                netif_set_down
 .text.netif_set_link_up
                0x000000000800ab84       0x68 ./Middlewares/Third_Party/LwIP/src/core/netif.o
                0x000000000800ab84                netif_set_link_up
 .text.netif_set_link_down
                0x000000000800abec       0x60 ./Middlewares/Third_Party/LwIP/src/core/netif.o
                0x000000000800abec                netif_set_link_down
 .text.netif_set_link_callback
                0x000000000800ac4c       0x22 ./Middlewares/Third_Party/LwIP/src/core/netif.o
                0x000000000800ac4c                netif_set_link_callback
 *fill*         0x000000000800ac6e        0x2 
 .text.netif_loop_output
                0x000000000800ac70       0xdc ./Middlewares/Third_Party/LwIP/src/core/netif.o
                0x000000000800ac70                netif_loop_output
 .text.netif_loop_output_ipv4
                0x000000000800ad4c       0x1e ./Middlewares/Third_Party/LwIP/src/core/netif.o
 .text.netif_null_output_ip4
                0x000000000800ad6a       0x1c ./Middlewares/Third_Party/LwIP/src/core/netif.o
 *fill*         0x000000000800ad86        0x2 
 .text.netif_get_by_index
                0x000000000800ad88       0x4c ./Middlewares/Third_Party/LwIP/src/core/netif.o
                0x000000000800ad88                netif_get_by_index
 .text.pbuf_free_ooseq
                0x000000000800add4       0x40 ./Middlewares/Third_Party/LwIP/src/core/pbuf.o
                0x000000000800add4                pbuf_free_ooseq
 .text.pbuf_pool_is_empty
                0x000000000800ae14       0x18 ./Middlewares/Third_Party/LwIP/src/core/pbuf.o
 .text.pbuf_init_alloced_pbuf
                0x000000000800ae2c       0x54 ./Middlewares/Third_Party/LwIP/src/core/pbuf.o
 .text.pbuf_alloc
                0x000000000800ae80      0x1ec ./Middlewares/Third_Party/LwIP/src/core/pbuf.o
                0x000000000800ae80                pbuf_alloc
 .text.pbuf_alloc_reference
                0x000000000800b06c       0x68 ./Middlewares/Third_Party/LwIP/src/core/pbuf.o
                0x000000000800b06c                pbuf_alloc_reference
 .text.pbuf_alloced_custom
                0x000000000800b0d4       0x68 ./Middlewares/Third_Party/LwIP/src/core/pbuf.o
                0x000000000800b0d4                pbuf_alloced_custom
 .text.pbuf_realloc
                0x000000000800b13c      0x110 ./Middlewares/Third_Party/LwIP/src/core/pbuf.o
                0x000000000800b13c                pbuf_realloc
 .text.pbuf_add_header_impl
                0x000000000800b24c       0xd0 ./Middlewares/Third_Party/LwIP/src/core/pbuf.o
 .text.pbuf_add_header
                0x000000000800b31c       0x1e ./Middlewares/Third_Party/LwIP/src/core/pbuf.o
                0x000000000800b31c                pbuf_add_header
 *fill*         0x000000000800b33a        0x2 
 .text.pbuf_remove_header
                0x000000000800b33c       0xa4 ./Middlewares/Third_Party/LwIP/src/core/pbuf.o
                0x000000000800b33c                pbuf_remove_header
 .text.pbuf_header_impl
                0x000000000800b3e0       0x42 ./Middlewares/Third_Party/LwIP/src/core/pbuf.o
 .text.pbuf_header_force
                0x000000000800b422       0x24 ./Middlewares/Third_Party/LwIP/src/core/pbuf.o
                0x000000000800b422                pbuf_header_force
 *fill*         0x000000000800b446        0x2 
 .text.pbuf_free
                0x000000000800b448      0x110 ./Middlewares/Third_Party/LwIP/src/core/pbuf.o
                0x000000000800b448                pbuf_free
 .text.pbuf_clen
                0x000000000800b558       0x2e ./Middlewares/Third_Party/LwIP/src/core/pbuf.o
                0x000000000800b558                pbuf_clen
 *fill*         0x000000000800b586        0x2 
 .text.pbuf_ref
                0x000000000800b588       0x44 ./Middlewares/Third_Party/LwIP/src/core/pbuf.o
                0x000000000800b588                pbuf_ref
 .text.pbuf_cat
                0x000000000800b5cc       0xac ./Middlewares/Third_Party/LwIP/src/core/pbuf.o
                0x000000000800b5cc                pbuf_cat
 .text.pbuf_copy
                0x000000000800b678      0x1a4 ./Middlewares/Third_Party/LwIP/src/core/pbuf.o
                0x000000000800b678                pbuf_copy
 .text.pbuf_copy_partial
                0x000000000800b81c       0xe4 ./Middlewares/Third_Party/LwIP/src/core/pbuf.o
                0x000000000800b81c                pbuf_copy_partial
 .text.pbuf_clone
                0x000000000800b900       0x64 ./Middlewares/Third_Party/LwIP/src/core/pbuf.o
                0x000000000800b900                pbuf_clone
 .text.tcp_init
                0x000000000800b964       0x24 ./Middlewares/Third_Party/LwIP/src/core/tcp.o
                0x000000000800b964                tcp_init
 .text.tcp_free
                0x000000000800b988       0x38 ./Middlewares/Third_Party/LwIP/src/core/tcp.o
                0x000000000800b988                tcp_free
 .text.tcp_free_listen
                0x000000000800b9c0       0x38 ./Middlewares/Third_Party/LwIP/src/core/tcp.o
 .text.tcp_tmr  0x000000000800b9f8       0x2c ./Middlewares/Third_Party/LwIP/src/core/tcp.o
                0x000000000800b9f8                tcp_tmr
 .text.tcp_remove_listener
                0x000000000800ba24       0x54 ./Middlewares/Third_Party/LwIP/src/core/tcp.o
 .text.tcp_listen_closed
                0x000000000800ba78       0x74 ./Middlewares/Third_Party/LwIP/src/core/tcp.o
 .text.tcp_close_shutdown
                0x000000000800baec      0x1c4 ./Middlewares/Third_Party/LwIP/src/core/tcp.o
 .text.tcp_close_shutdown_fin
                0x000000000800bcb0       0xd4 ./Middlewares/Third_Party/LwIP/src/core/tcp.o
 .text.tcp_close
                0x000000000800bd84       0x58 ./Middlewares/Third_Party/LwIP/src/core/tcp.o
                0x000000000800bd84                tcp_close
 .text.tcp_abandon
                0x000000000800bddc      0x17c ./Middlewares/Third_Party/LwIP/src/core/tcp.o
                0x000000000800bddc                tcp_abandon
 .text.tcp_abort
                0x000000000800bf58       0x18 ./Middlewares/Third_Party/LwIP/src/core/tcp.o
                0x000000000800bf58                tcp_abort
 .text.tcp_update_rcv_ann_wnd
                0x000000000800bf70       0xb4 ./Middlewares/Third_Party/LwIP/src/core/tcp.o
                0x000000000800bf70                tcp_update_rcv_ann_wnd
 .text.tcp_recved
                0x000000000800c024       0xa0 ./Middlewares/Third_Party/LwIP/src/core/tcp.o
                0x000000000800c024                tcp_recved
 .text.tcp_slowtmr
                0x000000000800c0c4      0x680 ./Middlewares/Third_Party/LwIP/src/core/tcp.o
                0x000000000800c0c4                tcp_slowtmr
 .text.tcp_fasttmr
                0x000000000800c744       0xc8 ./Middlewares/Third_Party/LwIP/src/core/tcp.o
                0x000000000800c744                tcp_fasttmr
 .text.tcp_process_refused_data
                0x000000000800c80c       0xf8 ./Middlewares/Third_Party/LwIP/src/core/tcp.o
                0x000000000800c80c                tcp_process_refused_data
 .text.tcp_segs_free
                0x000000000800c904       0x2a ./Middlewares/Third_Party/LwIP/src/core/tcp.o
                0x000000000800c904                tcp_segs_free
 .text.tcp_seg_free
                0x000000000800c92e       0x30 ./Middlewares/Third_Party/LwIP/src/core/tcp.o
                0x000000000800c92e                tcp_seg_free
 *fill*         0x000000000800c95e        0x2 
 .text.tcp_seg_copy
                0x000000000800c960       0x58 ./Middlewares/Third_Party/LwIP/src/core/tcp.o
                0x000000000800c960                tcp_seg_copy
 .text.tcp_recv_null
                0x000000000800c9b8       0x6c ./Middlewares/Third_Party/LwIP/src/core/tcp.o
                0x000000000800c9b8                tcp_recv_null
 .text.tcp_kill_prio
                0x000000000800ca24       0x9c ./Middlewares/Third_Party/LwIP/src/core/tcp.o
 .text.tcp_kill_state
                0x000000000800cac0       0x94 ./Middlewares/Third_Party/LwIP/src/core/tcp.o
 .text.tcp_kill_timewait
                0x000000000800cb54       0x60 ./Middlewares/Third_Party/LwIP/src/core/tcp.o
 .text.tcp_handle_closepend
                0x000000000800cbb4       0x4c ./Middlewares/Third_Party/LwIP/src/core/tcp.o
 .text.tcp_alloc
                0x000000000800cc00      0x108 ./Middlewares/Third_Party/LwIP/src/core/tcp.o
                0x000000000800cc00                tcp_alloc
 .text.tcp_pcb_purge
                0x000000000800cd08       0xa0 ./Middlewares/Third_Party/LwIP/src/core/tcp.o
                0x000000000800cd08                tcp_pcb_purge
 .text.tcp_pcb_remove
                0x000000000800cda8      0x128 ./Middlewares/Third_Party/LwIP/src/core/tcp.o
                0x000000000800cda8                tcp_pcb_remove
 .text.tcp_next_iss
                0x000000000800ced0       0x4c ./Middlewares/Third_Party/LwIP/src/core/tcp.o
                0x000000000800ced0                tcp_next_iss
 .text.tcp_eff_send_mss_netif
                0x000000000800cf1c       0x74 ./Middlewares/Third_Party/LwIP/src/core/tcp.o
                0x000000000800cf1c                tcp_eff_send_mss_netif
 .text.tcp_netif_ip_addr_changed_pcblist
                0x000000000800cf90       0x64 ./Middlewares/Third_Party/LwIP/src/core/tcp.o
 .text.tcp_netif_ip_addr_changed
                0x000000000800cff4       0x7c ./Middlewares/Third_Party/LwIP/src/core/tcp.o
                0x000000000800cff4                tcp_netif_ip_addr_changed
 .text.tcp_free_ooseq
                0x000000000800d070       0x28 ./Middlewares/Third_Party/LwIP/src/core/tcp.o
                0x000000000800d070                tcp_free_ooseq
 .text.tcp_input
                0x000000000800d098      0x818 ./Middlewares/Third_Party/LwIP/src/core/tcp_in.o
                0x000000000800d098                tcp_input
 .text.tcp_input_delayed_close
                0x000000000800d8b0       0x80 ./Middlewares/Third_Party/LwIP/src/core/tcp_in.o
 .text.tcp_listen_input
                0x000000000800d930      0x1fc ./Middlewares/Third_Party/LwIP/src/core/tcp_in.o
 .text.tcp_timewait_input
                0x000000000800db2c       0xf4 ./Middlewares/Third_Party/LwIP/src/core/tcp_in.o
 .text.tcp_process
                0x000000000800dc20      0x7e0 ./Middlewares/Third_Party/LwIP/src/core/tcp_in.o
 .text.tcp_oos_insert_segment
                0x000000000800e400      0x110 ./Middlewares/Third_Party/LwIP/src/core/tcp_in.o
 .text.tcp_free_acked_segments
                0x000000000800e510       0xf8 ./Middlewares/Third_Party/LwIP/src/core/tcp_in.o
 .text.tcp_receive
                0x000000000800e608      0xf30 ./Middlewares/Third_Party/LwIP/src/core/tcp_in.o
 .text.tcp_get_next_optbyte
                0x000000000800f538       0x6c ./Middlewares/Third_Party/LwIP/src/core/tcp_in.o
 .text.tcp_parseopt
                0x000000000800f5a4       0xec ./Middlewares/Third_Party/LwIP/src/core/tcp_in.o
 .text.tcp_trigger_input_pcb_close
                0x000000000800f690       0x20 ./Middlewares/Third_Party/LwIP/src/core/tcp_in.o
                0x000000000800f690                tcp_trigger_input_pcb_close
 .text.tcp_route
                0x000000000800f6b0       0x38 ./Middlewares/Third_Party/LwIP/src/core/tcp_out.o
 .text.tcp_create_segment
                0x000000000800f6e8      0x13c ./Middlewares/Third_Party/LwIP/src/core/tcp_out.o
 .text.tcp_split_unsent_seg
                0x000000000800f824      0x290 ./Middlewares/Third_Party/LwIP/src/core/tcp_out.o
                0x000000000800f824                tcp_split_unsent_seg
 .text.tcp_send_fin
                0x000000000800fab4       0xa0 ./Middlewares/Third_Party/LwIP/src/core/tcp_out.o
                0x000000000800fab4                tcp_send_fin
 .text.tcp_enqueue_flags
                0x000000000800fb54      0x1dc ./Middlewares/Third_Party/LwIP/src/core/tcp_out.o
                0x000000000800fb54                tcp_enqueue_flags
 .text.tcp_output
                0x000000000800fd30      0x3e8 ./Middlewares/Third_Party/LwIP/src/core/tcp_out.o
                0x000000000800fd30                tcp_output
 .text.tcp_output_segment_busy
                0x0000000008010118       0x40 ./Middlewares/Third_Party/LwIP/src/core/tcp_out.o
 .text.tcp_output_segment
                0x0000000008010158      0x1c0 ./Middlewares/Third_Party/LwIP/src/core/tcp_out.o
 .text.tcp_rexmit_rto_prepare
                0x0000000008010318       0xe0 ./Middlewares/Third_Party/LwIP/src/core/tcp_out.o
                0x0000000008010318                tcp_rexmit_rto_prepare
 .text.tcp_rexmit_rto_commit
                0x00000000080103f8       0x50 ./Middlewares/Third_Party/LwIP/src/core/tcp_out.o
                0x00000000080103f8                tcp_rexmit_rto_commit
 .text.tcp_rexmit_rto
                0x0000000008010448       0x44 ./Middlewares/Third_Party/LwIP/src/core/tcp_out.o
                0x0000000008010448                tcp_rexmit_rto
 .text.tcp_rexmit
                0x000000000801048c       0xd8 ./Middlewares/Third_Party/LwIP/src/core/tcp_out.o
                0x000000000801048c                tcp_rexmit
 .text.tcp_rexmit_fast
                0x0000000008010564       0xc4 ./Middlewares/Third_Party/LwIP/src/core/tcp_out.o
                0x0000000008010564                tcp_rexmit_fast
 .text.tcp_output_alloc_header_common
                0x0000000008010628       0xe4 ./Middlewares/Third_Party/LwIP/src/core/tcp_out.o
 .text.tcp_output_alloc_header
                0x000000000801070c       0x7c ./Middlewares/Third_Party/LwIP/src/core/tcp_out.o
 .text.tcp_output_fill_options
                0x0000000008010788       0x7c ./Middlewares/Third_Party/LwIP/src/core/tcp_out.o
 .text.tcp_output_control_segment
                0x0000000008010804       0x94 ./Middlewares/Third_Party/LwIP/src/core/tcp_out.o
 .text.tcp_rst  0x0000000008010898       0xa4 ./Middlewares/Third_Party/LwIP/src/core/tcp_out.o
                0x0000000008010898                tcp_rst
 .text.tcp_send_empty_ack
                0x000000000801093c       0xc4 ./Middlewares/Third_Party/LwIP/src/core/tcp_out.o
                0x000000000801093c                tcp_send_empty_ack
 .text.tcp_keepalive
                0x0000000008010a00       0x80 ./Middlewares/Third_Party/LwIP/src/core/tcp_out.o
                0x0000000008010a00                tcp_keepalive
 .text.tcp_zero_window_probe
                0x0000000008010a80      0x154 ./Middlewares/Third_Party/LwIP/src/core/tcp_out.o
                0x0000000008010a80                tcp_zero_window_probe
 .text.tcpip_tcp_timer
                0x0000000008010bd4       0x48 ./Middlewares/Third_Party/LwIP/src/core/timeouts.o
 .text.tcp_timer_needed
                0x0000000008010c1c       0x40 ./Middlewares/Third_Party/LwIP/src/core/timeouts.o
                0x0000000008010c1c                tcp_timer_needed
 .text.sys_timeout_abs
                0x0000000008010c5c       0xdc ./Middlewares/Third_Party/LwIP/src/core/timeouts.o
 .text.lwip_cyclic_timer
                0x0000000008010d38       0x64 ./Middlewares/Third_Party/LwIP/src/core/timeouts.o
 .text.sys_timeouts_init
                0x0000000008010d9c       0x44 ./Middlewares/Third_Party/LwIP/src/core/timeouts.o
                0x0000000008010d9c                sys_timeouts_init
 .text.sys_timeout
                0x0000000008010de0       0x4c ./Middlewares/Third_Party/LwIP/src/core/timeouts.o
                0x0000000008010de0                sys_timeout
 .text.sys_check_timeouts
                0x0000000008010e2c       0x84 ./Middlewares/Third_Party/LwIP/src/core/timeouts.o
                0x0000000008010e2c                sys_check_timeouts
 .text.udp_init
                0x0000000008010eb0       0x24 ./Middlewares/Third_Party/LwIP/src/core/udp.o
                0x0000000008010eb0                udp_init
 .text.udp_input_local_match
                0x0000000008010ed4       0xc8 ./Middlewares/Third_Party/LwIP/src/core/udp.o
 .text.udp_input
                0x0000000008010f9c      0x228 ./Middlewares/Third_Party/LwIP/src/core/udp.o
                0x0000000008010f9c                udp_input
 .text.udp_netif_ip_addr_changed
                0x00000000080111c4       0x60 ./Middlewares/Third_Party/LwIP/src/core/udp.o
                0x00000000080111c4                udp_netif_ip_addr_changed
 .text.etharp_free_entry
                0x0000000008011224       0x64 ./Middlewares/Third_Party/LwIP/src/core/ipv4/etharp.o
 .text.etharp_tmr
                0x0000000008011288      0x150 ./Middlewares/Third_Party/LwIP/src/core/ipv4/etharp.o
                0x0000000008011288                etharp_tmr
 .text.etharp_find_entry
                0x00000000080113d8      0x2f0 ./Middlewares/Third_Party/LwIP/src/core/ipv4/etharp.o
 .text.etharp_update_arp_entry
                0x00000000080116c8      0x14c ./Middlewares/Third_Party/LwIP/src/core/ipv4/etharp.o
 .text.etharp_cleanup_netif
                0x0000000008011814       0x60 ./Middlewares/Third_Party/LwIP/src/core/ipv4/etharp.o
                0x0000000008011814                etharp_cleanup_netif
 .text.etharp_input
                0x0000000008011874      0x114 ./Middlewares/Third_Party/LwIP/src/core/ipv4/etharp.o
                0x0000000008011874                etharp_input
 .text.etharp_output_to_arp_index
                0x0000000008011988      0x134 ./Middlewares/Third_Party/LwIP/src/core/ipv4/etharp.o
 .text.etharp_output
                0x0000000008011abc      0x204 ./Middlewares/Third_Party/LwIP/src/core/ipv4/etharp.o
                0x0000000008011abc                etharp_output
 .text.etharp_query
                0x0000000008011cc0      0x27c ./Middlewares/Third_Party/LwIP/src/core/ipv4/etharp.o
                0x0000000008011cc0                etharp_query
 .text.etharp_raw
                0x0000000008011f3c      0x118 ./Middlewares/Third_Party/LwIP/src/core/ipv4/etharp.o
 .text.etharp_request_dst
                0x0000000008012054       0x44 ./Middlewares/Third_Party/LwIP/src/core/ipv4/etharp.o
 .text.etharp_request
                0x0000000008012098       0x24 ./Middlewares/Third_Party/LwIP/src/core/ipv4/etharp.o
                0x0000000008012098                etharp_request
 .text.icmp_input
                0x00000000080120bc      0x240 ./Middlewares/Third_Party/LwIP/src/core/ipv4/icmp.o
                0x00000000080120bc                icmp_input
 .text.icmp_dest_unreach
                0x00000000080122fc       0x20 ./Middlewares/Third_Party/LwIP/src/core/ipv4/icmp.o
                0x00000000080122fc                icmp_dest_unreach
 .text.icmp_time_exceeded
                0x000000000801231c       0x20 ./Middlewares/Third_Party/LwIP/src/core/ipv4/icmp.o
                0x000000000801231c                icmp_time_exceeded
 .text.icmp_send_response
                0x000000000801233c       0xe8 ./Middlewares/Third_Party/LwIP/src/core/ipv4/icmp.o
 .text.ip4_route
                0x0000000008012424       0xe0 ./Middlewares/Third_Party/LwIP/src/core/ipv4/ip4.o
                0x0000000008012424                ip4_route
 .text.ip4_input_accept
                0x0000000008012504       0x54 ./Middlewares/Third_Party/LwIP/src/core/ipv4/ip4.o
 .text.ip4_input
                0x0000000008012558      0x248 ./Middlewares/Third_Party/LwIP/src/core/ipv4/ip4.o
                0x0000000008012558                ip4_input
 .text.ip4_output_if
                0x00000000080127a0       0x54 ./Middlewares/Third_Party/LwIP/src/core/ipv4/ip4.o
                0x00000000080127a0                ip4_output_if
 .text.ip4_output_if_src
                0x00000000080127f4      0x178 ./Middlewares/Third_Party/LwIP/src/core/ipv4/ip4.o
                0x00000000080127f4                ip4_output_if_src
 .text.ip4_addr_isbroadcast_u32
                0x000000000801296c       0x82 ./Middlewares/Third_Party/LwIP/src/core/ipv4/ip4_addr.o
                0x000000000801296c                ip4_addr_isbroadcast_u32
 *fill*         0x00000000080129ee        0x2 
 .text.ip_reass_tmr
                0x00000000080129f0       0x58 ./Middlewares/Third_Party/LwIP/src/core/ipv4/ip4_frag.o
                0x00000000080129f0                ip_reass_tmr
 .text.ip_reass_free_complete_datagram
                0x0000000008012a48      0x148 ./Middlewares/Third_Party/LwIP/src/core/ipv4/ip4_frag.o
 .text.ip_reass_remove_oldest_datagram
                0x0000000008012b90       0xc4 ./Middlewares/Third_Party/LwIP/src/core/ipv4/ip4_frag.o
 .text.ip_reass_enqueue_new_datagram
                0x0000000008012c54       0x74 ./Middlewares/Third_Party/LwIP/src/core/ipv4/ip4_frag.o
 .text.ip_reass_dequeue_datagram
                0x0000000008012cc8       0x5c ./Middlewares/Third_Party/LwIP/src/core/ipv4/ip4_frag.o
 .text.ip_reass_chain_frag_into_datagram_and_validate
                0x0000000008012d24      0x2d4 ./Middlewares/Third_Party/LwIP/src/core/ipv4/ip4_frag.o
 .text.ip4_reass
                0x0000000008012ff8      0x338 ./Middlewares/Third_Party/LwIP/src/core/ipv4/ip4_frag.o
                0x0000000008012ff8                ip4_reass
 .text.ip_frag_alloc_pbuf_custom_ref
                0x0000000008013330       0x10 ./Middlewares/Third_Party/LwIP/src/core/ipv4/ip4_frag.o
 .text.ip_frag_free_pbuf_custom_ref
                0x0000000008013340       0x38 ./Middlewares/Third_Party/LwIP/src/core/ipv4/ip4_frag.o
 .text.ipfrag_free_pbuf_custom
                0x0000000008013378       0x68 ./Middlewares/Third_Party/LwIP/src/core/ipv4/ip4_frag.o
 .text.ip4_frag
                0x00000000080133e0      0x28c ./Middlewares/Third_Party/LwIP/src/core/ipv4/ip4_frag.o
                0x00000000080133e0                ip4_frag
 .text.ethernet_input
                0x000000000801366c      0x11c ./Middlewares/Third_Party/LwIP/src/netif/ethernet.o
                0x000000000801366c                ethernet_input
 .text.ethernet_output
                0x0000000008013788       0x90 ./Middlewares/Third_Party/LwIP/src/netif/ethernet.o
                0x0000000008013788                ethernet_output
 .text.rand     0x0000000008013818       0x7c D:/Soft/Devlopment Tools/CubIDE/STM32CubeIDE_1.13.2/STM32CubeIDE/plugins/com.st.stm32cube.ide.mcu.externaltools.gnu-tools-for-stm32.11.3.rel1.win32_1.1.1.202309131626/tools/bin/../lib/gcc/arm-none-eabi/11.3.1/../../../../arm-none-eabi/lib/thumb/v7e-m+dp/hard\libc_nano.a(libc_a-rand.o)
                0x0000000008013818                rand
 .text._strtol_l.constprop.0
                0x0000000008013894      0x104 D:/Soft/Devlopment Tools/CubIDE/STM32CubeIDE_1.13.2/STM32CubeIDE/plugins/com.st.stm32cube.ide.mcu.externaltools.gnu-tools-for-stm32.11.3.rel1.win32_1.1.1.202309131626/tools/bin/../lib/gcc/arm-none-eabi/11.3.1/../../../../arm-none-eabi/lib/thumb/v7e-m+dp/hard\libc_nano.a(libc_a-strtol.o)
 .text._strtol_r
                0x0000000008013998        0x4 D:/Soft/Devlopment Tools/CubIDE/STM32CubeIDE_1.13.2/STM32CubeIDE/plugins/com.st.stm32cube.ide.mcu.externaltools.gnu-tools-for-stm32.11.3.rel1.win32_1.1.1.202309131626/tools/bin/../lib/gcc/arm-none-eabi/11.3.1/../../../../arm-none-eabi/lib/thumb/v7e-m+dp/hard\libc_nano.a(libc_a-strtol.o)
                0x0000000008013998                _strtol_r
 .text.__cvt    0x000000000801399c       0xa4 D:/Soft/Devlopment Tools/CubIDE/STM32CubeIDE_1.13.2/STM32CubeIDE/plugins/com.st.stm32cube.ide.mcu.externaltools.gnu-tools-for-stm32.11.3.rel1.win32_1.1.1.202309131626/tools/bin/../lib/gcc/arm-none-eabi/11.3.1/../../../../arm-none-eabi/lib/thumb/v7e-m+dp/hard\libc_nano.a(libc_a-nano-vfprintf_float.o)
                0x000000000801399c                __cvt
 .text.__exponent
                0x0000000008013a40       0x7c D:/Soft/Devlopment Tools/CubIDE/STM32CubeIDE_1.13.2/STM32CubeIDE/plugins/com.st.stm32cube.ide.mcu.externaltools.gnu-tools-for-stm32.11.3.rel1.win32_1.1.1.202309131626/tools/bin/../lib/gcc/arm-none-eabi/11.3.1/../../../../arm-none-eabi/lib/thumb/v7e-m+dp/hard\libc_nano.a(libc_a-nano-vfprintf_float.o)
                0x0000000008013a40                __exponent
 *fill*         0x0000000008013abc        0x4 
 .text._printf_float
                0x0000000008013ac0      0x434 D:/Soft/Devlopment Tools/CubIDE/STM32CubeIDE_1.13.2/STM32CubeIDE/plugins/com.st.stm32cube.ide.mcu.externaltools.gnu-tools-for-stm32.11.3.rel1.win32_1.1.1.202309131626/tools/bin/../lib/gcc/arm-none-eabi/11.3.1/../../../../arm-none-eabi/lib/thumb/v7e-m+dp/hard\libc_nano.a(libc_a-nano-vfprintf_float.o)
                0x0000000008013ac0                _printf_float
 .text._printf_common
                0x0000000008013ef4       0xda D:/Soft/Devlopment Tools/CubIDE/STM32CubeIDE_1.13.2/STM32CubeIDE/plugins/com.st.stm32cube.ide.mcu.externaltools.gnu-tools-for-stm32.11.3.rel1.win32_1.1.1.202309131626/tools/bin/../lib/gcc/arm-none-eabi/11.3.1/../../../../arm-none-eabi/lib/thumb/v7e-m+dp/hard\libc_nano.a(libc_a-nano-vfprintf_i.o)
                0x0000000008013ef4                _printf_common
 *fill*         0x0000000008013fce        0x2 
 .text._printf_i
                0x0000000008013fd0      0x244 D:/Soft/Devlopment Tools/CubIDE/STM32CubeIDE_1.13.2/STM32CubeIDE/plugins/com.st.stm32cube.ide.mcu.externaltools.gnu-tools-for-stm32.11.3.rel1.win32_1.1.1.202309131626/tools/bin/../lib/gcc/arm-none-eabi/11.3.1/../../../../arm-none-eabi/lib/thumb/v7e-m+dp/hard\libc_nano.a(libc_a-nano-vfprintf_i.o)
                0x0000000008013fd0                _printf_i
 .text._scanf_float
                0x0000000008014214      0x408 D:/Soft/Devlopment Tools/CubIDE/STM32CubeIDE_1.13.2/STM32CubeIDE/plugins/com.st.stm32cube.ide.mcu.externaltools.gnu-tools-for-stm32.11.3.rel1.win32_1.1.1.202309131626/tools/bin/../lib/gcc/arm-none-eabi/11.3.1/../../../../arm-none-eabi/lib/thumb/v7e-m+dp/hard\libc_nano.a(libc_a-nano-vfscanf_float.o)
                0x0000000008014214                _scanf_float
 .text.std      0x000000000801461c       0x6c D:/Soft/Devlopment Tools/CubIDE/STM32CubeIDE_1.13.2/STM32CubeIDE/plugins/com.st.stm32cube.ide.mcu.externaltools.gnu-tools-for-stm32.11.3.rel1.win32_1.1.1.202309131626/tools/bin/../lib/gcc/arm-none-eabi/11.3.1/../../../../arm-none-eabi/lib/thumb/v7e-m+dp/hard\libc_nano.a(libc_a-findfp.o)
 .text.stdio_exit_handler
                0x0000000008014688       0x18 D:/Soft/Devlopment Tools/CubIDE/STM32CubeIDE_1.13.2/STM32CubeIDE/plugins/com.st.stm32cube.ide.mcu.externaltools.gnu-tools-for-stm32.11.3.rel1.win32_1.1.1.202309131626/tools/bin/../lib/gcc/arm-none-eabi/11.3.1/../../../../arm-none-eabi/lib/thumb/v7e-m+dp/hard\libc_nano.a(libc_a-findfp.o)
 .text.cleanup_stdio
                0x00000000080146a0       0x40 D:/Soft/Devlopment Tools/CubIDE/STM32CubeIDE_1.13.2/STM32CubeIDE/plugins/com.st.stm32cube.ide.mcu.externaltools.gnu-tools-for-stm32.11.3.rel1.win32_1.1.1.202309131626/tools/bin/../lib/gcc/arm-none-eabi/11.3.1/../../../../arm-none-eabi/lib/thumb/v7e-m+dp/hard\libc_nano.a(libc_a-findfp.o)
 .text.global_stdio_init.part.0
                0x00000000080146e0       0x3c D:/Soft/Devlopment Tools/CubIDE/STM32CubeIDE_1.13.2/STM32CubeIDE/plugins/com.st.stm32cube.ide.mcu.externaltools.gnu-tools-for-stm32.11.3.rel1.win32_1.1.1.202309131626/tools/bin/../lib/gcc/arm-none-eabi/11.3.1/../../../../arm-none-eabi/lib/thumb/v7e-m+dp/hard\libc_nano.a(libc_a-findfp.o)
 .text.__sfp_lock_acquire
                0x000000000801471c        0xc D:/Soft/Devlopment Tools/CubIDE/STM32CubeIDE_1.13.2/STM32CubeIDE/plugins/com.st.stm32cube.ide.mcu.externaltools.gnu-tools-for-stm32.11.3.rel1.win32_1.1.1.202309131626/tools/bin/../lib/gcc/arm-none-eabi/11.3.1/../../../../arm-none-eabi/lib/thumb/v7e-m+dp/hard\libc_nano.a(libc_a-findfp.o)
                0x000000000801471c                __sfp_lock_acquire
 .text.__sfp_lock_release
                0x0000000008014728        0xc D:/Soft/Devlopment Tools/CubIDE/STM32CubeIDE_1.13.2/STM32CubeIDE/plugins/com.st.stm32cube.ide.mcu.externaltools.gnu-tools-for-stm32.11.3.rel1.win32_1.1.1.202309131626/tools/bin/../lib/gcc/arm-none-eabi/11.3.1/../../../../arm-none-eabi/lib/thumb/v7e-m+dp/hard\libc_nano.a(libc_a-findfp.o)
                0x0000000008014728                __sfp_lock_release
 .text.__sinit  0x0000000008014734       0x30 D:/Soft/Devlopment Tools/CubIDE/STM32CubeIDE_1.13.2/STM32CubeIDE/plugins/com.st.stm32cube.ide.mcu.externaltools.gnu-tools-for-stm32.11.3.rel1.win32_1.1.1.202309131626/tools/bin/../lib/gcc/arm-none-eabi/11.3.1/../../../../arm-none-eabi/lib/thumb/v7e-m+dp/hard\libc_nano.a(libc_a-findfp.o)
                0x0000000008014734                __sinit
 .text._fwalk_sglue
                0x0000000008014764       0x3c D:/Soft/Devlopment Tools/CubIDE/STM32CubeIDE_1.13.2/STM32CubeIDE/plugins/com.st.stm32cube.ide.mcu.externaltools.gnu-tools-for-stm32.11.3.rel1.win32_1.1.1.202309131626/tools/bin/../lib/gcc/arm-none-eabi/11.3.1/../../../../arm-none-eabi/lib/thumb/v7e-m+dp/hard\libc_nano.a(libc_a-fwalk.o)
                0x0000000008014764                _fwalk_sglue
 .text.printf   0x00000000080147a0       0x24 D:/Soft/Devlopment Tools/CubIDE/STM32CubeIDE_1.13.2/STM32CubeIDE/plugins/com.st.stm32cube.ide.mcu.externaltools.gnu-tools-for-stm32.11.3.rel1.win32_1.1.1.202309131626/tools/bin/../lib/gcc/arm-none-eabi/11.3.1/../../../../arm-none-eabi/lib/thumb/v7e-m+dp/hard\libc_nano.a(libc_a-printf.o)
                0x00000000080147a0                iprintf
                0x00000000080147a0                printf
 .text.sprintf  0x00000000080147c4       0x40 D:/Soft/Devlopment Tools/CubIDE/STM32CubeIDE_1.13.2/STM32CubeIDE/plugins/com.st.stm32cube.ide.mcu.externaltools.gnu-tools-for-stm32.11.3.rel1.win32_1.1.1.202309131626/tools/bin/../lib/gcc/arm-none-eabi/11.3.1/../../../../arm-none-eabi/lib/thumb/v7e-m+dp/hard\libc_nano.a(libc_a-sprintf.o)
                0x00000000080147c4                siprintf
                0x00000000080147c4                sprintf
 .text.__sread  0x0000000008014804       0x22 D:/Soft/Devlopment Tools/CubIDE/STM32CubeIDE_1.13.2/STM32CubeIDE/plugins/com.st.stm32cube.ide.mcu.externaltools.gnu-tools-for-stm32.11.3.rel1.win32_1.1.1.202309131626/tools/bin/../lib/gcc/arm-none-eabi/11.3.1/../../../../arm-none-eabi/lib/thumb/v7e-m+dp/hard\libc_nano.a(libc_a-stdio.o)
                0x0000000008014804                __sread
 .text.__swrite
                0x0000000008014826       0x38 D:/Soft/Devlopment Tools/CubIDE/STM32CubeIDE_1.13.2/STM32CubeIDE/plugins/com.st.stm32cube.ide.mcu.externaltools.gnu-tools-for-stm32.11.3.rel1.win32_1.1.1.202309131626/tools/bin/../lib/gcc/arm-none-eabi/11.3.1/../../../../arm-none-eabi/lib/thumb/v7e-m+dp/hard\libc_nano.a(libc_a-stdio.o)
                0x0000000008014826                __swrite
 .text.__sseek  0x000000000801485e       0x24 D:/Soft/Devlopment Tools/CubIDE/STM32CubeIDE_1.13.2/STM32CubeIDE/plugins/com.st.stm32cube.ide.mcu.externaltools.gnu-tools-for-stm32.11.3.rel1.win32_1.1.1.202309131626/tools/bin/../lib/gcc/arm-none-eabi/11.3.1/../../../../arm-none-eabi/lib/thumb/v7e-m+dp/hard\libc_nano.a(libc_a-stdio.o)
                0x000000000801485e                __sseek
 .text.__sclose
                0x0000000008014882        0x8 D:/Soft/Devlopment Tools/CubIDE/STM32CubeIDE_1.13.2/STM32CubeIDE/plugins/com.st.stm32cube.ide.mcu.externaltools.gnu-tools-for-stm32.11.3.rel1.win32_1.1.1.202309131626/tools/bin/../lib/gcc/arm-none-eabi/11.3.1/../../../../arm-none-eabi/lib/thumb/v7e-m+dp/hard\libc_nano.a(libc_a-stdio.o)
                0x0000000008014882                __sclose
 .text.memcmp   0x000000000801488a       0x20 D:/Soft/Devlopment Tools/CubIDE/STM32CubeIDE_1.13.2/STM32CubeIDE/plugins/com.st.stm32cube.ide.mcu.externaltools.gnu-tools-for-stm32.11.3.rel1.win32_1.1.1.202309131626/tools/bin/../lib/gcc/arm-none-eabi/11.3.1/../../../../arm-none-eabi/lib/thumb/v7e-m+dp/hard\libc_nano.a(libc_a-memcmp.o)
                0x000000000801488a                memcmp
 .text.memmove  0x00000000080148aa       0x34 D:/Soft/Devlopment Tools/CubIDE/STM32CubeIDE_1.13.2/STM32CubeIDE/plugins/com.st.stm32cube.ide.mcu.externaltools.gnu-tools-for-stm32.11.3.rel1.win32_1.1.1.202309131626/tools/bin/../lib/gcc/arm-none-eabi/11.3.1/../../../../arm-none-eabi/lib/thumb/v7e-m+dp/hard\libc_nano.a(libc_a-memmove.o)
                0x00000000080148aa                memmove
 .text.memset   0x00000000080148de       0x10 D:/Soft/Devlopment Tools/CubIDE/STM32CubeIDE_1.13.2/STM32CubeIDE/plugins/com.st.stm32cube.ide.mcu.externaltools.gnu-tools-for-stm32.11.3.rel1.win32_1.1.1.202309131626/tools/bin/../lib/gcc/arm-none-eabi/11.3.1/../../../../arm-none-eabi/lib/thumb/v7e-m+dp/hard\libc_nano.a(libc_a-memset.o)
                0x00000000080148de                memset
 .text.strncmp  0x00000000080148ee       0x24 D:/Soft/Devlopment Tools/CubIDE/STM32CubeIDE_1.13.2/STM32CubeIDE/plugins/com.st.stm32cube.ide.mcu.externaltools.gnu-tools-for-stm32.11.3.rel1.win32_1.1.1.202309131626/tools/bin/../lib/gcc/arm-none-eabi/11.3.1/../../../../arm-none-eabi/lib/thumb/v7e-m+dp/hard\libc_nano.a(libc_a-strncmp.o)
                0x00000000080148ee                strncmp
 *fill*         0x0000000008014912        0x2 
 .text._localeconv_r
                0x0000000008014914        0x8 D:/Soft/Devlopment Tools/CubIDE/STM32CubeIDE_1.13.2/STM32CubeIDE/plugins/com.st.stm32cube.ide.mcu.externaltools.gnu-tools-for-stm32.11.3.rel1.win32_1.1.1.202309131626/tools/bin/../lib/gcc/arm-none-eabi/11.3.1/../../../../arm-none-eabi/lib/thumb/v7e-m+dp/hard\libc_nano.a(libc_a-localeconv.o)
                0x0000000008014914                _localeconv_r
 .text._close_r
                0x000000000801491c       0x20 D:/Soft/Devlopment Tools/CubIDE/STM32CubeIDE_1.13.2/STM32CubeIDE/plugins/com.st.stm32cube.ide.mcu.externaltools.gnu-tools-for-stm32.11.3.rel1.win32_1.1.1.202309131626/tools/bin/../lib/gcc/arm-none-eabi/11.3.1/../../../../arm-none-eabi/lib/thumb/v7e-m+dp/hard\libc_nano.a(libc_a-closer.o)
                0x000000000801491c                _close_r
 .text._lseek_r
                0x000000000801493c       0x24 D:/Soft/Devlopment Tools/CubIDE/STM32CubeIDE_1.13.2/STM32CubeIDE/plugins/com.st.stm32cube.ide.mcu.externaltools.gnu-tools-for-stm32.11.3.rel1.win32_1.1.1.202309131626/tools/bin/../lib/gcc/arm-none-eabi/11.3.1/../../../../arm-none-eabi/lib/thumb/v7e-m+dp/hard\libc_nano.a(libc_a-lseekr.o)
                0x000000000801493c                _lseek_r
 .text._read_r  0x0000000008014960       0x24 D:/Soft/Devlopment Tools/CubIDE/STM32CubeIDE_1.13.2/STM32CubeIDE/plugins/com.st.stm32cube.ide.mcu.externaltools.gnu-tools-for-stm32.11.3.rel1.win32_1.1.1.202309131626/tools/bin/../lib/gcc/arm-none-eabi/11.3.1/../../../../arm-none-eabi/lib/thumb/v7e-m+dp/hard\libc_nano.a(libc_a-readr.o)
                0x0000000008014960                _read_r
 .text._write_r
                0x0000000008014984       0x24 D:/Soft/Devlopment Tools/CubIDE/STM32CubeIDE_1.13.2/STM32CubeIDE/plugins/com.st.stm32cube.ide.mcu.externaltools.gnu-tools-for-stm32.11.3.rel1.win32_1.1.1.202309131626/tools/bin/../lib/gcc/arm-none-eabi/11.3.1/../../../../arm-none-eabi/lib/thumb/v7e-m+dp/hard\libc_nano.a(libc_a-writer.o)
                0x0000000008014984                _write_r
 .text.__errno  0x00000000080149a8        0xc D:/Soft/Devlopment Tools/CubIDE/STM32CubeIDE_1.13.2/STM32CubeIDE/plugins/com.st.stm32cube.ide.mcu.externaltools.gnu-tools-for-stm32.11.3.rel1.win32_1.1.1.202309131626/tools/bin/../lib/gcc/arm-none-eabi/11.3.1/../../../../arm-none-eabi/lib/thumb/v7e-m+dp/hard\libc_nano.a(libc_a-errno.o)
                0x00000000080149a8                __errno
 .text.__libc_init_array
                0x00000000080149b4       0x48 D:/Soft/Devlopment Tools/CubIDE/STM32CubeIDE_1.13.2/STM32CubeIDE/plugins/com.st.stm32cube.ide.mcu.externaltools.gnu-tools-for-stm32.11.3.rel1.win32_1.1.1.202309131626/tools/bin/../lib/gcc/arm-none-eabi/11.3.1/../../../../arm-none-eabi/lib/thumb/v7e-m+dp/hard\libc_nano.a(libc_a-init.o)
                0x00000000080149b4                __libc_init_array
 .text.__retarget_lock_init_recursive
                0x00000000080149fc        0x2 D:/Soft/Devlopment Tools/CubIDE/STM32CubeIDE_1.13.2/STM32CubeIDE/plugins/com.st.stm32cube.ide.mcu.externaltools.gnu-tools-for-stm32.11.3.rel1.win32_1.1.1.202309131626/tools/bin/../lib/gcc/arm-none-eabi/11.3.1/../../../../arm-none-eabi/lib/thumb/v7e-m+dp/hard\libc_nano.a(libc_a-lock.o)
                0x00000000080149fc                __retarget_lock_init_recursive
 .text.__retarget_lock_acquire_recursive
                0x00000000080149fe        0x2 D:/Soft/Devlopment Tools/CubIDE/STM32CubeIDE_1.13.2/STM32CubeIDE/plugins/com.st.stm32cube.ide.mcu.externaltools.gnu-tools-for-stm32.11.3.rel1.win32_1.1.1.202309131626/tools/bin/../lib/gcc/arm-none-eabi/11.3.1/../../../../arm-none-eabi/lib/thumb/v7e-m+dp/hard\libc_nano.a(libc_a-lock.o)
                0x00000000080149fe                __retarget_lock_acquire_recursive
 .text.__retarget_lock_release_recursive
                0x0000000008014a00        0x2 D:/Soft/Devlopment Tools/CubIDE/STM32CubeIDE_1.13.2/STM32CubeIDE/plugins/com.st.stm32cube.ide.mcu.externaltools.gnu-tools-for-stm32.11.3.rel1.win32_1.1.1.202309131626/tools/bin/../lib/gcc/arm-none-eabi/11.3.1/../../../../arm-none-eabi/lib/thumb/v7e-m+dp/hard\libc_nano.a(libc_a-lock.o)
                0x0000000008014a00                __retarget_lock_release_recursive
 .text.memcpy   0x0000000008014a02       0x1c D:/Soft/Devlopment Tools/CubIDE/STM32CubeIDE_1.13.2/STM32CubeIDE/plugins/com.st.stm32cube.ide.mcu.externaltools.gnu-tools-for-stm32.11.3.rel1.win32_1.1.1.202309131626/tools/bin/../lib/gcc/arm-none-eabi/11.3.1/../../../../arm-none-eabi/lib/thumb/v7e-m+dp/hard\libc_nano.a(libc_a-memcpy-stub.o)
                0x0000000008014a02                memcpy
 *fill*         0x0000000008014a1e        0x2 
 .text.nanf     0x0000000008014a20        0xc D:/Soft/Devlopment Tools/CubIDE/STM32CubeIDE_1.13.2/STM32CubeIDE/plugins/com.st.stm32cube.ide.mcu.externaltools.gnu-tools-for-stm32.11.3.rel1.win32_1.1.1.202309131626/tools/bin/../lib/gcc/arm-none-eabi/11.3.1/../../../../arm-none-eabi/lib/thumb/v7e-m+dp/hard\libc_nano.a(libm_a-sf_nan.o)
                0x0000000008014a20                nanf
 .text.__assert_func
                0x0000000008014a2c       0x3c D:/Soft/Devlopment Tools/CubIDE/STM32CubeIDE_1.13.2/STM32CubeIDE/plugins/com.st.stm32cube.ide.mcu.externaltools.gnu-tools-for-stm32.11.3.rel1.win32_1.1.1.202309131626/tools/bin/../lib/gcc/arm-none-eabi/11.3.1/../../../../arm-none-eabi/lib/thumb/v7e-m+dp/hard\libc_nano.a(libc_a-assert.o)
                0x0000000008014a2c                __assert_func
 .text.quorem   0x0000000008014a68      0x110 D:/Soft/Devlopment Tools/CubIDE/STM32CubeIDE_1.13.2/STM32CubeIDE/plugins/com.st.stm32cube.ide.mcu.externaltools.gnu-tools-for-stm32.11.3.rel1.win32_1.1.1.202309131626/tools/bin/../lib/gcc/arm-none-eabi/11.3.1/../../../../arm-none-eabi/lib/thumb/v7e-m+dp/hard\libc_nano.a(libc_a-dtoa.o)
 .text._dtoa_r  0x0000000008014b78      0xad8 D:/Soft/Devlopment Tools/CubIDE/STM32CubeIDE_1.13.2/STM32CubeIDE/plugins/com.st.stm32cube.ide.mcu.externaltools.gnu-tools-for-stm32.11.3.rel1.win32_1.1.1.202309131626/tools/bin/../lib/gcc/arm-none-eabi/11.3.1/../../../../arm-none-eabi/lib/thumb/v7e-m+dp/hard\libc_nano.a(libc_a-dtoa.o)
                0x0000000008014b78                _dtoa_r
 .text._free_r  0x0000000008015650       0x98 D:/Soft/Devlopment Tools/CubIDE/STM32CubeIDE_1.13.2/STM32CubeIDE/plugins/com.st.stm32cube.ide.mcu.externaltools.gnu-tools-for-stm32.11.3.rel1.win32_1.1.1.202309131626/tools/bin/../lib/gcc/arm-none-eabi/11.3.1/../../../../arm-none-eabi/lib/thumb/v7e-m+dp/hard\libc_nano.a(libc_a-freer.o)
                0x0000000008015650                _free_r
 .text.malloc   0x00000000080156e8       0x10 D:/Soft/Devlopment Tools/CubIDE/STM32CubeIDE_1.13.2/STM32CubeIDE/plugins/com.st.stm32cube.ide.mcu.externaltools.gnu-tools-for-stm32.11.3.rel1.win32_1.1.1.202309131626/tools/bin/../lib/gcc/arm-none-eabi/11.3.1/../../../../arm-none-eabi/lib/thumb/v7e-m+dp/hard\libc_nano.a(libc_a-malloc.o)
                0x00000000080156e8                malloc
 .text.sbrk_aligned
                0x00000000080156f8       0x40 D:/Soft/Devlopment Tools/CubIDE/STM32CubeIDE_1.13.2/STM32CubeIDE/plugins/com.st.stm32cube.ide.mcu.externaltools.gnu-tools-for-stm32.11.3.rel1.win32_1.1.1.202309131626/tools/bin/../lib/gcc/arm-none-eabi/11.3.1/../../../../arm-none-eabi/lib/thumb/v7e-m+dp/hard\libc_nano.a(libc_a-mallocr.o)
 .text._malloc_r
                0x0000000008015738      0x100 D:/Soft/Devlopment Tools/CubIDE/STM32CubeIDE_1.13.2/STM32CubeIDE/plugins/com.st.stm32cube.ide.mcu.externaltools.gnu-tools-for-stm32.11.3.rel1.win32_1.1.1.202309131626/tools/bin/../lib/gcc/arm-none-eabi/11.3.1/../../../../arm-none-eabi/lib/thumb/v7e-m+dp/hard\libc_nano.a(libc_a-mallocr.o)
                0x0000000008015738                _malloc_r
 .text.__malloc_lock
                0x0000000008015838        0xc D:/Soft/Devlopment Tools/CubIDE/STM32CubeIDE_1.13.2/STM32CubeIDE/plugins/com.st.stm32cube.ide.mcu.externaltools.gnu-tools-for-stm32.11.3.rel1.win32_1.1.1.202309131626/tools/bin/../lib/gcc/arm-none-eabi/11.3.1/../../../../arm-none-eabi/lib/thumb/v7e-m+dp/hard\libc_nano.a(libc_a-mlock.o)
                0x0000000008015838                __malloc_lock
 .text.__malloc_unlock
                0x0000000008015844        0xc D:/Soft/Devlopment Tools/CubIDE/STM32CubeIDE_1.13.2/STM32CubeIDE/plugins/com.st.stm32cube.ide.mcu.externaltools.gnu-tools-for-stm32.11.3.rel1.win32_1.1.1.202309131626/tools/bin/../lib/gcc/arm-none-eabi/11.3.1/../../../../arm-none-eabi/lib/thumb/v7e-m+dp/hard\libc_nano.a(libc_a-mlock.o)
                0x0000000008015844                __malloc_unlock
 .text._Balloc  0x0000000008015850       0x80 D:/Soft/Devlopment Tools/CubIDE/STM32CubeIDE_1.13.2/STM32CubeIDE/plugins/com.st.stm32cube.ide.mcu.externaltools.gnu-tools-for-stm32.11.3.rel1.win32_1.1.1.202309131626/tools/bin/../lib/gcc/arm-none-eabi/11.3.1/../../../../arm-none-eabi/lib/thumb/v7e-m+dp/hard\libc_nano.a(libc_a-mprec.o)
                0x0000000008015850                _Balloc
 .text._Bfree   0x00000000080158d0       0x44 D:/Soft/Devlopment Tools/CubIDE/STM32CubeIDE_1.13.2/STM32CubeIDE/plugins/com.st.stm32cube.ide.mcu.externaltools.gnu-tools-for-stm32.11.3.rel1.win32_1.1.1.202309131626/tools/bin/../lib/gcc/arm-none-eabi/11.3.1/../../../../arm-none-eabi/lib/thumb/v7e-m+dp/hard\libc_nano.a(libc_a-mprec.o)
                0x00000000080158d0                _Bfree
 .text.__multadd
                0x0000000008015914       0x8c D:/Soft/Devlopment Tools/CubIDE/STM32CubeIDE_1.13.2/STM32CubeIDE/plugins/com.st.stm32cube.ide.mcu.externaltools.gnu-tools-for-stm32.11.3.rel1.win32_1.1.1.202309131626/tools/bin/../lib/gcc/arm-none-eabi/11.3.1/../../../../arm-none-eabi/lib/thumb/v7e-m+dp/hard\libc_nano.a(libc_a-mprec.o)
                0x0000000008015914                __multadd
 .text.__s2b    0x00000000080159a0       0x94 D:/Soft/Devlopment Tools/CubIDE/STM32CubeIDE_1.13.2/STM32CubeIDE/plugins/com.st.stm32cube.ide.mcu.externaltools.gnu-tools-for-stm32.11.3.rel1.win32_1.1.1.202309131626/tools/bin/../lib/gcc/arm-none-eabi/11.3.1/../../../../arm-none-eabi/lib/thumb/v7e-m+dp/hard\libc_nano.a(libc_a-mprec.o)
                0x00000000080159a0                __s2b
 .text.__hi0bits
                0x0000000008015a34       0x40 D:/Soft/Devlopment Tools/CubIDE/STM32CubeIDE_1.13.2/STM32CubeIDE/plugins/com.st.stm32cube.ide.mcu.externaltools.gnu-tools-for-stm32.11.3.rel1.win32_1.1.1.202309131626/tools/bin/../lib/gcc/arm-none-eabi/11.3.1/../../../../arm-none-eabi/lib/thumb/v7e-m+dp/hard\libc_nano.a(libc_a-mprec.o)
                0x0000000008015a34                __hi0bits
 .text.__lo0bits
                0x0000000008015a74       0x5a D:/Soft/Devlopment Tools/CubIDE/STM32CubeIDE_1.13.2/STM32CubeIDE/plugins/com.st.stm32cube.ide.mcu.externaltools.gnu-tools-for-stm32.11.3.rel1.win32_1.1.1.202309131626/tools/bin/../lib/gcc/arm-none-eabi/11.3.1/../../../../arm-none-eabi/lib/thumb/v7e-m+dp/hard\libc_nano.a(libc_a-mprec.o)
                0x0000000008015a74                __lo0bits
 *fill*         0x0000000008015ace        0x2 
 .text.__i2b    0x0000000008015ad0       0x2c D:/Soft/Devlopment Tools/CubIDE/STM32CubeIDE_1.13.2/STM32CubeIDE/plugins/com.st.stm32cube.ide.mcu.externaltools.gnu-tools-for-stm32.11.3.rel1.win32_1.1.1.202309131626/tools/bin/../lib/gcc/arm-none-eabi/11.3.1/../../../../arm-none-eabi/lib/thumb/v7e-m+dp/hard\libc_nano.a(libc_a-mprec.o)
                0x0000000008015ad0                __i2b
 .text.__multiply
                0x0000000008015afc      0x154 D:/Soft/Devlopment Tools/CubIDE/STM32CubeIDE_1.13.2/STM32CubeIDE/plugins/com.st.stm32cube.ide.mcu.externaltools.gnu-tools-for-stm32.11.3.rel1.win32_1.1.1.202309131626/tools/bin/../lib/gcc/arm-none-eabi/11.3.1/../../../../arm-none-eabi/lib/thumb/v7e-m+dp/hard\libc_nano.a(libc_a-mprec.o)
                0x0000000008015afc                __multiply
 .text.__pow5mult
                0x0000000008015c50       0xb4 D:/Soft/Devlopment Tools/CubIDE/STM32CubeIDE_1.13.2/STM32CubeIDE/plugins/com.st.stm32cube.ide.mcu.externaltools.gnu-tools-for-stm32.11.3.rel1.win32_1.1.1.202309131626/tools/bin/../lib/gcc/arm-none-eabi/11.3.1/../../../../arm-none-eabi/lib/thumb/v7e-m+dp/hard\libc_nano.a(libc_a-mprec.o)
                0x0000000008015c50                __pow5mult
 .text.__lshift
                0x0000000008015d04       0xd8 D:/Soft/Devlopment Tools/CubIDE/STM32CubeIDE_1.13.2/STM32CubeIDE/plugins/com.st.stm32cube.ide.mcu.externaltools.gnu-tools-for-stm32.11.3.rel1.win32_1.1.1.202309131626/tools/bin/../lib/gcc/arm-none-eabi/11.3.1/../../../../arm-none-eabi/lib/thumb/v7e-m+dp/hard\libc_nano.a(libc_a-mprec.o)
                0x0000000008015d04                __lshift
 .text.__mcmp   0x0000000008015ddc       0x38 D:/Soft/Devlopment Tools/CubIDE/STM32CubeIDE_1.13.2/STM32CubeIDE/plugins/com.st.stm32cube.ide.mcu.externaltools.gnu-tools-for-stm32.11.3.rel1.win32_1.1.1.202309131626/tools/bin/../lib/gcc/arm-none-eabi/11.3.1/../../../../arm-none-eabi/lib/thumb/v7e-m+dp/hard\libc_nano.a(libc_a-mprec.o)
                0x0000000008015ddc                __mcmp
 .text.__mdiff  0x0000000008015e14      0x114 D:/Soft/Devlopment Tools/CubIDE/STM32CubeIDE_1.13.2/STM32CubeIDE/plugins/com.st.stm32cube.ide.mcu.externaltools.gnu-tools-for-stm32.11.3.rel1.win32_1.1.1.202309131626/tools/bin/../lib/gcc/arm-none-eabi/11.3.1/../../../../arm-none-eabi/lib/thumb/v7e-m+dp/hard\libc_nano.a(libc_a-mprec.o)
                0x0000000008015e14                __mdiff
 .text.__ulp    0x0000000008015f28       0x4c D:/Soft/Devlopment Tools/CubIDE/STM32CubeIDE_1.13.2/STM32CubeIDE/plugins/com.st.stm32cube.ide.mcu.externaltools.gnu-tools-for-stm32.11.3.rel1.win32_1.1.1.202309131626/tools/bin/../lib/gcc/arm-none-eabi/11.3.1/../../../../arm-none-eabi/lib/thumb/v7e-m+dp/hard\libc_nano.a(libc_a-mprec.o)
                0x0000000008015f28                __ulp
 .text.__b2d    0x0000000008015f74       0x94 D:/Soft/Devlopment Tools/CubIDE/STM32CubeIDE_1.13.2/STM32CubeIDE/plugins/com.st.stm32cube.ide.mcu.externaltools.gnu-tools-for-stm32.11.3.rel1.win32_1.1.1.202309131626/tools/bin/../lib/gcc/arm-none-eabi/11.3.1/../../../../arm-none-eabi/lib/thumb/v7e-m+dp/hard\libc_nano.a(libc_a-mprec.o)
                0x0000000008015f74                __b2d
 .text.__d2b    0x0000000008016008       0xb4 D:/Soft/Devlopment Tools/CubIDE/STM32CubeIDE_1.13.2/STM32CubeIDE/plugins/com.st.stm32cube.ide.mcu.externaltools.gnu-tools-for-stm32.11.3.rel1.win32_1.1.1.202309131626/tools/bin/../lib/gcc/arm-none-eabi/11.3.1/../../../../arm-none-eabi/lib/thumb/v7e-m+dp/hard\libc_nano.a(libc_a-mprec.o)
                0x0000000008016008                __d2b
 .text.__ratio  0x00000000080160bc       0x60 D:/Soft/Devlopment Tools/CubIDE/STM32CubeIDE_1.13.2/STM32CubeIDE/plugins/com.st.stm32cube.ide.mcu.externaltools.gnu-tools-for-stm32.11.3.rel1.win32_1.1.1.202309131626/tools/bin/../lib/gcc/arm-none-eabi/11.3.1/../../../../arm-none-eabi/lib/thumb/v7e-m+dp/hard\libc_nano.a(libc_a-mprec.o)
                0x00000000080160bc                __ratio
 .text.__copybits
                0x000000000801611c       0x46 D:/Soft/Devlopment Tools/CubIDE/STM32CubeIDE_1.13.2/STM32CubeIDE/plugins/com.st.stm32cube.ide.mcu.externaltools.gnu-tools-for-stm32.11.3.rel1.win32_1.1.1.202309131626/tools/bin/../lib/gcc/arm-none-eabi/11.3.1/../../../../arm-none-eabi/lib/thumb/v7e-m+dp/hard\libc_nano.a(libc_a-mprec.o)
                0x000000000801611c                __copybits
 .text.__any_on
                0x0000000008016162       0x42 D:/Soft/Devlopment Tools/CubIDE/STM32CubeIDE_1.13.2/STM32CubeIDE/plugins/com.st.stm32cube.ide.mcu.externaltools.gnu-tools-for-stm32.11.3.rel1.win32_1.1.1.202309131626/tools/bin/../lib/gcc/arm-none-eabi/11.3.1/../../../../arm-none-eabi/lib/thumb/v7e-m+dp/hard\libc_nano.a(libc_a-mprec.o)
                0x0000000008016162                __any_on
 .text.sulp     0x00000000080161a4       0x34 D:/Soft/Devlopment Tools/CubIDE/STM32CubeIDE_1.13.2/STM32CubeIDE/plugins/com.st.stm32cube.ide.mcu.externaltools.gnu-tools-for-stm32.11.3.rel1.win32_1.1.1.202309131626/tools/bin/../lib/gcc/arm-none-eabi/11.3.1/../../../../arm-none-eabi/lib/thumb/v7e-m+dp/hard\libc_nano.a(libc_a-strtod.o)
 .text._strtod_l
                0x00000000080161d8      0xb64 D:/Soft/Devlopment Tools/CubIDE/STM32CubeIDE_1.13.2/STM32CubeIDE/plugins/com.st.stm32cube.ide.mcu.externaltools.gnu-tools-for-stm32.11.3.rel1.win32_1.1.1.202309131626/tools/bin/../lib/gcc/arm-none-eabi/11.3.1/../../../../arm-none-eabi/lib/thumb/v7e-m+dp/hard\libc_nano.a(libc_a-strtod.o)
                0x00000000080161d8                _strtod_l
 .text._strtod_r
                0x0000000008016d3c        0xc D:/Soft/Devlopment Tools/CubIDE/STM32CubeIDE_1.13.2/STM32CubeIDE/plugins/com.st.stm32cube.ide.mcu.externaltools.gnu-tools-for-stm32.11.3.rel1.win32_1.1.1.202309131626/tools/bin/../lib/gcc/arm-none-eabi/11.3.1/../../../../arm-none-eabi/lib/thumb/v7e-m+dp/hard\libc_nano.a(libc_a-strtod.o)
                0x0000000008016d3c                _strtod_r
 .text.__ssputs_r
                0x0000000008016d48       0xb4 D:/Soft/Devlopment Tools/CubIDE/STM32CubeIDE_1.13.2/STM32CubeIDE/plugins/com.st.stm32cube.ide.mcu.externaltools.gnu-tools-for-stm32.11.3.rel1.win32_1.1.1.202309131626/tools/bin/../lib/gcc/arm-none-eabi/11.3.1/../../../../arm-none-eabi/lib/thumb/v7e-m+dp/hard\libc_nano.a(libc_a-nano-svfprintf.o)
                0x0000000008016d48                __ssputs_r
 .text._svfprintf_r
                0x0000000008016dfc      0x1fc D:/Soft/Devlopment Tools/CubIDE/STM32CubeIDE_1.13.2/STM32CubeIDE/plugins/com.st.stm32cube.ide.mcu.externaltools.gnu-tools-for-stm32.11.3.rel1.win32_1.1.1.202309131626/tools/bin/../lib/gcc/arm-none-eabi/11.3.1/../../../../arm-none-eabi/lib/thumb/v7e-m+dp/hard\libc_nano.a(libc_a-nano-svfprintf.o)
                0x0000000008016dfc                _svfiprintf_r
                0x0000000008016dfc                _svfprintf_r
 .text.__sfputc_r
                0x0000000008016ff8       0x2e D:/Soft/Devlopment Tools/CubIDE/STM32CubeIDE_1.13.2/STM32CubeIDE/plugins/com.st.stm32cube.ide.mcu.externaltools.gnu-tools-for-stm32.11.3.rel1.win32_1.1.1.202309131626/tools/bin/../lib/gcc/arm-none-eabi/11.3.1/../../../../arm-none-eabi/lib/thumb/v7e-m+dp/hard\libc_nano.a(libc_a-nano-vfprintf.o)
 .text.__sfputs_r
                0x0000000008017026       0x24 D:/Soft/Devlopment Tools/CubIDE/STM32CubeIDE_1.13.2/STM32CubeIDE/plugins/com.st.stm32cube.ide.mcu.externaltools.gnu-tools-for-stm32.11.3.rel1.win32_1.1.1.202309131626/tools/bin/../lib/gcc/arm-none-eabi/11.3.1/../../../../arm-none-eabi/lib/thumb/v7e-m+dp/hard\libc_nano.a(libc_a-nano-vfprintf.o)
                0x0000000008017026                __sfputs_r
 *fill*         0x000000000801704a        0x2 
 .text._vfprintf_r
                0x000000000801704c      0x234 D:/Soft/Devlopment Tools/CubIDE/STM32CubeIDE_1.13.2/STM32CubeIDE/plugins/com.st.stm32cube.ide.mcu.externaltools.gnu-tools-for-stm32.11.3.rel1.win32_1.1.1.202309131626/tools/bin/../lib/gcc/arm-none-eabi/11.3.1/../../../../arm-none-eabi/lib/thumb/v7e-m+dp/hard\libc_nano.a(libc_a-nano-vfprintf.o)
                0x000000000801704c                _vfprintf_r
                0x000000000801704c                _vfiprintf_r
 .text.__sflush_r
                0x0000000008017280      0x10c D:/Soft/Devlopment Tools/CubIDE/STM32CubeIDE_1.13.2/STM32CubeIDE/plugins/com.st.stm32cube.ide.mcu.externaltools.gnu-tools-for-stm32.11.3.rel1.win32_1.1.1.202309131626/tools/bin/../lib/gcc/arm-none-eabi/11.3.1/../../../../arm-none-eabi/lib/thumb/v7e-m+dp/hard\libc_nano.a(libc_a-fflush.o)
                0x0000000008017280                __sflush_r
 .text._fflush_r
                0x000000000801738c       0x50 D:/Soft/Devlopment Tools/CubIDE/STM32CubeIDE_1.13.2/STM32CubeIDE/plugins/com.st.stm32cube.ide.mcu.externaltools.gnu-tools-for-stm32.11.3.rel1.win32_1.1.1.202309131626/tools/bin/../lib/gcc/arm-none-eabi/11.3.1/../../../../arm-none-eabi/lib/thumb/v7e-m+dp/hard\libc_nano.a(libc_a-fflush.o)
                0x000000000801738c                _fflush_r
 .text.fprintf  0x00000000080173dc       0x24 D:/Soft/Devlopment Tools/CubIDE/STM32CubeIDE_1.13.2/STM32CubeIDE/plugins/com.st.stm32cube.ide.mcu.externaltools.gnu-tools-for-stm32.11.3.rel1.win32_1.1.1.202309131626/tools/bin/../lib/gcc/arm-none-eabi/11.3.1/../../../../arm-none-eabi/lib/thumb/v7e-m+dp/hard\libc_nano.a(libc_a-fprintf.o)
                0x00000000080173dc                fiprintf
                0x00000000080173dc                fprintf
 .text.__swbuf_r
                0x0000000008017400       0x7a D:/Soft/Devlopment Tools/CubIDE/STM32CubeIDE_1.13.2/STM32CubeIDE/plugins/com.st.stm32cube.ide.mcu.externaltools.gnu-tools-for-stm32.11.3.rel1.win32_1.1.1.202309131626/tools/bin/../lib/gcc/arm-none-eabi/11.3.1/../../../../arm-none-eabi/lib/thumb/v7e-m+dp/hard\libc_nano.a(libc_a-wbuf.o)
                0x0000000008017400                __swbuf_r
 *fill*         0x000000000801747a        0x2 
 .text.__swsetup_r
                0x000000000801747c       0xb0 D:/Soft/Devlopment Tools/CubIDE/STM32CubeIDE_1.13.2/STM32CubeIDE/plugins/com.st.stm32cube.ide.mcu.externaltools.gnu-tools-for-stm32.11.3.rel1.win32_1.1.1.202309131626/tools/bin/../lib/gcc/arm-none-eabi/11.3.1/../../../../arm-none-eabi/lib/thumb/v7e-m+dp/hard\libc_nano.a(libc_a-wsetup.o)
                0x000000000801747c                __swsetup_r
 .text._sbrk_r  0x000000000801752c       0x20 D:/Soft/Devlopment Tools/CubIDE/STM32CubeIDE_1.13.2/STM32CubeIDE/plugins/com.st.stm32cube.ide.mcu.externaltools.gnu-tools-for-stm32.11.3.rel1.win32_1.1.1.202309131626/tools/bin/../lib/gcc/arm-none-eabi/11.3.1/../../../../arm-none-eabi/lib/thumb/v7e-m+dp/hard\libc_nano.a(libc_a-sbrkr.o)
                0x000000000801752c                _sbrk_r
 *fill*         0x000000000801754c        0x4 
 .text.nan      0x0000000008017550       0x10 D:/Soft/Devlopment Tools/CubIDE/STM32CubeIDE_1.13.2/STM32CubeIDE/plugins/com.st.stm32cube.ide.mcu.externaltools.gnu-tools-for-stm32.11.3.rel1.win32_1.1.1.202309131626/tools/bin/../lib/gcc/arm-none-eabi/11.3.1/../../../../arm-none-eabi/lib/thumb/v7e-m+dp/hard\libc_nano.a(libm_a-s_nan.o)
                0x0000000008017550                nan
 .text.abort    0x0000000008017560        0xe D:/Soft/Devlopment Tools/CubIDE/STM32CubeIDE_1.13.2/STM32CubeIDE/plugins/com.st.stm32cube.ide.mcu.externaltools.gnu-tools-for-stm32.11.3.rel1.win32_1.1.1.202309131626/tools/bin/../lib/gcc/arm-none-eabi/11.3.1/../../../../arm-none-eabi/lib/thumb/v7e-m+dp/hard\libc_nano.a(libc_a-abort.o)
                0x0000000008017560                abort
 .text._calloc_r
                0x000000000801756e       0x2c D:/Soft/Devlopment Tools/CubIDE/STM32CubeIDE_1.13.2/STM32CubeIDE/plugins/com.st.stm32cube.ide.mcu.externaltools.gnu-tools-for-stm32.11.3.rel1.win32_1.1.1.202309131626/tools/bin/../lib/gcc/arm-none-eabi/11.3.1/../../../../arm-none-eabi/lib/thumb/v7e-m+dp/hard\libc_nano.a(libc_a-callocr.o)
                0x000000000801756e                _calloc_r
 .text.rshift   0x000000000801759a       0xa4 D:/Soft/Devlopment Tools/CubIDE/STM32CubeIDE_1.13.2/STM32CubeIDE/plugins/com.st.stm32cube.ide.mcu.externaltools.gnu-tools-for-stm32.11.3.rel1.win32_1.1.1.202309131626/tools/bin/../lib/gcc/arm-none-eabi/11.3.1/../../../../arm-none-eabi/lib/thumb/v7e-m+dp/hard\libc_nano.a(libc_a-gdtoa-gethex.o)
 .text.__hexdig_fun
                0x000000000801763e       0x2a D:/Soft/Devlopment Tools/CubIDE/STM32CubeIDE_1.13.2/STM32CubeIDE/plugins/com.st.stm32cube.ide.mcu.externaltools.gnu-tools-for-stm32.11.3.rel1.win32_1.1.1.202309131626/tools/bin/../lib/gcc/arm-none-eabi/11.3.1/../../../../arm-none-eabi/lib/thumb/v7e-m+dp/hard\libc_nano.a(libc_a-gdtoa-gethex.o)
                0x000000000801763e                __hexdig_fun
 .text.__gethex
                0x0000000008017668      0x45c D:/Soft/Devlopment Tools/CubIDE/STM32CubeIDE_1.13.2/STM32CubeIDE/plugins/com.st.stm32cube.ide.mcu.externaltools.gnu-tools-for-stm32.11.3.rel1.win32_1.1.1.202309131626/tools/bin/../lib/gcc/arm-none-eabi/11.3.1/../../../../arm-none-eabi/lib/thumb/v7e-m+dp/hard\libc_nano.a(libc_a-gdtoa-gethex.o)
                0x0000000008017668                __gethex
 .text.L_shift  0x0000000008017ac4       0x24 D:/Soft/Devlopment Tools/CubIDE/STM32CubeIDE_1.13.2/STM32CubeIDE/plugins/com.st.stm32cube.ide.mcu.externaltools.gnu-tools-for-stm32.11.3.rel1.win32_1.1.1.202309131626/tools/bin/../lib/gcc/arm-none-eabi/11.3.1/../../../../arm-none-eabi/lib/thumb/v7e-m+dp/hard\libc_nano.a(libc_a-gdtoa-hexnan.o)
 .text.__match  0x0000000008017ae8       0x28 D:/Soft/Devlopment Tools/CubIDE/STM32CubeIDE_1.13.2/STM32CubeIDE/plugins/com.st.stm32cube.ide.mcu.externaltools.gnu-tools-for-stm32.11.3.rel1.win32_1.1.1.202309131626/tools/bin/../lib/gcc/arm-none-eabi/11.3.1/../../../../arm-none-eabi/lib/thumb/v7e-m+dp/hard\libc_nano.a(libc_a-gdtoa-hexnan.o)
                0x0000000008017ae8                __match
 .text.__hexnan
                0x0000000008017b10      0x136 D:/Soft/Devlopment Tools/CubIDE/STM32CubeIDE_1.13.2/STM32CubeIDE/plugins/com.st.stm32cube.ide.mcu.externaltools.gnu-tools-for-stm32.11.3.rel1.win32_1.1.1.202309131626/tools/bin/../lib/gcc/arm-none-eabi/11.3.1/../../../../arm-none-eabi/lib/thumb/v7e-m+dp/hard\libc_nano.a(libc_a-gdtoa-hexnan.o)
                0x0000000008017b10                __hexnan
 .text.__ascii_mbtowc
                0x0000000008017c46       0x24 D:/Soft/Devlopment Tools/CubIDE/STM32CubeIDE_1.13.2/STM32CubeIDE/plugins/com.st.stm32cube.ide.mcu.externaltools.gnu-tools-for-stm32.11.3.rel1.win32_1.1.1.202309131626/tools/bin/../lib/gcc/arm-none-eabi/11.3.1/../../../../arm-none-eabi/lib/thumb/v7e-m+dp/hard\libc_nano.a(libc_a-mbtowc_r.o)
                0x0000000008017c46                __ascii_mbtowc
 .text._realloc_r
                0x0000000008017c6a       0x5e D:/Soft/Devlopment Tools/CubIDE/STM32CubeIDE_1.13.2/STM32CubeIDE/plugins/com.st.stm32cube.ide.mcu.externaltools.gnu-tools-for-stm32.11.3.rel1.win32_1.1.1.202309131626/tools/bin/../lib/gcc/arm-none-eabi/11.3.1/../../../../arm-none-eabi/lib/thumb/v7e-m+dp/hard\libc_nano.a(libc_a-reallocr.o)
                0x0000000008017c6a                _realloc_r
 .text.__ascii_wctomb
                0x0000000008017cc8       0x1a D:/Soft/Devlopment Tools/CubIDE/STM32CubeIDE_1.13.2/STM32CubeIDE/plugins/com.st.stm32cube.ide.mcu.externaltools.gnu-tools-for-stm32.11.3.rel1.win32_1.1.1.202309131626/tools/bin/../lib/gcc/arm-none-eabi/11.3.1/../../../../arm-none-eabi/lib/thumb/v7e-m+dp/hard\libc_nano.a(libc_a-wctomb_r.o)
                0x0000000008017cc8                __ascii_wctomb
 .text.__swhatbuf_r
                0x0000000008017ce2       0x4c D:/Soft/Devlopment Tools/CubIDE/STM32CubeIDE_1.13.2/STM32CubeIDE/plugins/com.st.stm32cube.ide.mcu.externaltools.gnu-tools-for-stm32.11.3.rel1.win32_1.1.1.202309131626/tools/bin/../lib/gcc/arm-none-eabi/11.3.1/../../../../arm-none-eabi/lib/thumb/v7e-m+dp/hard\libc_nano.a(libc_a-makebuf.o)
                0x0000000008017ce2                __swhatbuf_r
 .text.__smakebuf_r
                0x0000000008017d2e       0x78 D:/Soft/Devlopment Tools/CubIDE/STM32CubeIDE_1.13.2/STM32CubeIDE/plugins/com.st.stm32cube.ide.mcu.externaltools.gnu-tools-for-stm32.11.3.rel1.win32_1.1.1.202309131626/tools/bin/../lib/gcc/arm-none-eabi/11.3.1/../../../../arm-none-eabi/lib/thumb/v7e-m+dp/hard\libc_nano.a(libc_a-makebuf.o)
                0x0000000008017d2e                __smakebuf_r
 .text._raise_r
                0x0000000008017da6       0x50 D:/Soft/Devlopment Tools/CubIDE/STM32CubeIDE_1.13.2/STM32CubeIDE/plugins/com.st.stm32cube.ide.mcu.externaltools.gnu-tools-for-stm32.11.3.rel1.win32_1.1.1.202309131626/tools/bin/../lib/gcc/arm-none-eabi/11.3.1/../../../../arm-none-eabi/lib/thumb/v7e-m+dp/hard\libc_nano.a(libc_a-signal.o)
                0x0000000008017da6                _raise_r
 *fill*         0x0000000008017df6        0x2 
 .text.raise    0x0000000008017df8       0x10 D:/Soft/Devlopment Tools/CubIDE/STM32CubeIDE_1.13.2/STM32CubeIDE/plugins/com.st.stm32cube.ide.mcu.externaltools.gnu-tools-for-stm32.11.3.rel1.win32_1.1.1.202309131626/tools/bin/../lib/gcc/arm-none-eabi/11.3.1/../../../../arm-none-eabi/lib/thumb/v7e-m+dp/hard\libc_nano.a(libc_a-signal.o)
                0x0000000008017df8                raise
 .text._fstat_r
                0x0000000008017e08       0x24 D:/Soft/Devlopment Tools/CubIDE/STM32CubeIDE_1.13.2/STM32CubeIDE/plugins/com.st.stm32cube.ide.mcu.externaltools.gnu-tools-for-stm32.11.3.rel1.win32_1.1.1.202309131626/tools/bin/../lib/gcc/arm-none-eabi/11.3.1/../../../../arm-none-eabi/lib/thumb/v7e-m+dp/hard\libc_nano.a(libc_a-fstatr.o)
                0x0000000008017e08                _fstat_r
 .text._isatty_r
                0x0000000008017e2c       0x20 D:/Soft/Devlopment Tools/CubIDE/STM32CubeIDE_1.13.2/STM32CubeIDE/plugins/com.st.stm32cube.ide.mcu.externaltools.gnu-tools-for-stm32.11.3.rel1.win32_1.1.1.202309131626/tools/bin/../lib/gcc/arm-none-eabi/11.3.1/../../../../arm-none-eabi/lib/thumb/v7e-m+dp/hard\libc_nano.a(libc_a-isattyr.o)
                0x0000000008017e2c                _isatty_r
 .text._kill_r  0x0000000008017e4c       0x24 D:/Soft/Devlopment Tools/CubIDE/STM32CubeIDE_1.13.2/STM32CubeIDE/plugins/com.st.stm32cube.ide.mcu.externaltools.gnu-tools-for-stm32.11.3.rel1.win32_1.1.1.202309131626/tools/bin/../lib/gcc/arm-none-eabi/11.3.1/../../../../arm-none-eabi/lib/thumb/v7e-m+dp/hard\libc_nano.a(libc_a-signalr.o)
                0x0000000008017e4c                _kill_r
 .text._getpid_r
                0x0000000008017e70        0x4 D:/Soft/Devlopment Tools/CubIDE/STM32CubeIDE_1.13.2/STM32CubeIDE/plugins/com.st.stm32cube.ide.mcu.externaltools.gnu-tools-for-stm32.11.3.rel1.win32_1.1.1.202309131626/tools/bin/../lib/gcc/arm-none-eabi/11.3.1/../../../../arm-none-eabi/lib/thumb/v7e-m+dp/hard\libc_nano.a(libc_a-signalr.o)
                0x0000000008017e70                _getpid_r
 .text._malloc_usable_size_r
                0x0000000008017e74       0x10 D:/Soft/Devlopment Tools/CubIDE/STM32CubeIDE_1.13.2/STM32CubeIDE/plugins/com.st.stm32cube.ide.mcu.externaltools.gnu-tools-for-stm32.11.3.rel1.win32_1.1.1.202309131626/tools/bin/../lib/gcc/arm-none-eabi/11.3.1/../../../../arm-none-eabi/lib/thumb/v7e-m+dp/hard\libc_nano.a(libc_a-msizer.o)
                0x0000000008017e74                _malloc_usable_size_r
 *(.glue_7)
 .glue_7        0x0000000008017e84        0x0 linker stubs
 *(.glue_7t)
 .glue_7t       0x0000000008017e84        0x0 linker stubs
 *(.eh_frame)
 .eh_frame      0x0000000008017e84        0x0 D:/Soft/Devlopment Tools/CubIDE/STM32CubeIDE_1.13.2/STM32CubeIDE/plugins/com.st.stm32cube.ide.mcu.externaltools.gnu-tools-for-stm32.11.3.rel1.win32_1.1.1.202309131626/tools/bin/../lib/gcc/arm-none-eabi/11.3.1/thumb/v7e-m+dp/hard/crtbegin.o
 *(.init)
 .init          0x0000000008017e84        0x4 D:/Soft/Devlopment Tools/CubIDE/STM32CubeIDE_1.13.2/STM32CubeIDE/plugins/com.st.stm32cube.ide.mcu.externaltools.gnu-tools-for-stm32.11.3.rel1.win32_1.1.1.202309131626/tools/bin/../lib/gcc/arm-none-eabi/11.3.1/thumb/v7e-m+dp/hard/crti.o
                0x0000000008017e84                _init
 .init          0x0000000008017e88        0x8 D:/Soft/Devlopment Tools/CubIDE/STM32CubeIDE_1.13.2/STM32CubeIDE/plugins/com.st.stm32cube.ide.mcu.externaltools.gnu-tools-for-stm32.11.3.rel1.win32_1.1.1.202309131626/tools/bin/../lib/gcc/arm-none-eabi/11.3.1/thumb/v7e-m+dp/hard/crtn.o
 *(.fini)
 .fini          0x0000000008017e90        0x4 D:/Soft/Devlopment Tools/CubIDE/STM32CubeIDE_1.13.2/STM32CubeIDE/plugins/com.st.stm32cube.ide.mcu.externaltools.gnu-tools-for-stm32.11.3.rel1.win32_1.1.1.202309131626/tools/bin/../lib/gcc/arm-none-eabi/11.3.1/thumb/v7e-m+dp/hard/crti.o
                0x0000000008017e90                _fini
 .fini          0x0000000008017e94        0x8 D:/Soft/Devlopment Tools/CubIDE/STM32CubeIDE_1.13.2/STM32CubeIDE/plugins/com.st.stm32cube.ide.mcu.externaltools.gnu-tools-for-stm32.11.3.rel1.win32_1.1.1.202309131626/tools/bin/../lib/gcc/arm-none-eabi/11.3.1/thumb/v7e-m+dp/hard/crtn.o
                0x0000000008017e9c                . = ALIGN (0x4)
                0x0000000008017e9c                _etext = .

.vfp11_veneer   0x0000000008017e9c        0x0
 .vfp11_veneer  0x0000000008017e9c        0x0 linker stubs

.v4_bx          0x0000000008017e9c        0x0
 .v4_bx         0x0000000008017e9c        0x0 linker stubs

.iplt           0x0000000008017e9c        0x0
 .iplt          0x0000000008017e9c        0x0 D:/Soft/Devlopment Tools/CubIDE/STM32CubeIDE_1.13.2/STM32CubeIDE/plugins/com.st.stm32cube.ide.mcu.externaltools.gnu-tools-for-stm32.11.3.rel1.win32_1.1.1.202309131626/tools/bin/../lib/gcc/arm-none-eabi/11.3.1/thumb/v7e-m+dp/hard/crtbegin.o

.rodata         0x0000000008017ea0     0x3094
                0x0000000008017ea0                . = ALIGN (0x4)
 *(.rodata)
 .rodata        0x0000000008017ea0       0x54 ./LWIP/Target/ethernetif.o
 .rodata        0x0000000008017ef4      0x25b ./Middlewares/Third_Party/LwIP/src/core/mem.o
 *fill*         0x000000000801814f        0x1 
 .rodata        0x0000000008018150       0xeb ./Middlewares/Third_Party/LwIP/src/core/memp.o
 *fill*         0x000000000801823b        0x1 
 .rodata        0x000000000801823c      0x338 ./Middlewares/Third_Party/LwIP/src/core/netif.o
 .rodata        0x0000000008018574      0x485 ./Middlewares/Third_Party/LwIP/src/core/pbuf.o
 *fill*         0x00000000080189f9        0x3 
 .rodata        0x00000000080189fc      0x7e0 ./Middlewares/Third_Party/LwIP/src/core/tcp.o
 .rodata        0x00000000080191dc      0x47e ./Middlewares/Third_Party/LwIP/src/core/tcp_in.o
 *fill*         0x000000000801965a        0x2 
 .rodata        0x000000000801965c      0x81b ./Middlewares/Third_Party/LwIP/src/core/tcp_out.o
 *fill*         0x0000000008019e77        0x1 
 .rodata        0x0000000008019e78       0xe6 ./Middlewares/Third_Party/LwIP/src/core/timeouts.o
 *fill*         0x0000000008019f5e        0x2 
 .rodata        0x0000000008019f60      0x364 ./Middlewares/Third_Party/LwIP/src/core/udp.o
 .rodata        0x000000000801a2c4      0x275 ./Middlewares/Third_Party/LwIP/src/core/ipv4/etharp.o
 *fill*         0x000000000801a539        0x3 
 .rodata        0x000000000801a53c       0xf8 ./Middlewares/Third_Party/LwIP/src/core/ipv4/icmp.o
 .rodata        0x000000000801a634       0x95 ./Middlewares/Third_Party/LwIP/src/core/ipv4/ip4.o
 *fill*         0x000000000801a6c9        0x3 
 .rodata        0x000000000801a6cc      0x227 ./Middlewares/Third_Party/LwIP/src/core/ipv4/ip4_frag.o
 *fill*         0x000000000801a8f3        0x1 
 .rodata        0x000000000801a8f4       0x94 ./Middlewares/Third_Party/LwIP/src/netif/ethernet.o
 *(.rodata*)
 .rodata.D1CorePrescTable
                0x000000000801a988       0x10 ./Core/Src/system_stm32h7xx.o
                0x000000000801a988                D1CorePrescTable
 .rodata.UARTPrescTable
                0x000000000801a998       0x18 ./Drivers/STM32H7xx_HAL_Driver/Src/stm32h7xx_hal_uart.o
                0x000000000801a998                UARTPrescTable
 .rodata.numerator.1
                0x000000000801a9b0        0x8 ./Drivers/STM32H7xx_HAL_Driver/Src/stm32h7xx_hal_uart_ex.o
 .rodata.denominator.0
                0x000000000801a9b8        0x8 ./Drivers/STM32H7xx_HAL_Driver/Src/stm32h7xx_hal_uart_ex.o
 .rodata.memp_RX_POOL
                0x000000000801a9c0        0xc ./LWIP/Target/ethernetif.o
                0x000000000801a9c0                memp_RX_POOL
 .rodata.memp_UDP_PCB
                0x000000000801a9cc        0xc ./Middlewares/Third_Party/LwIP/src/core/memp.o
                0x000000000801a9cc                memp_UDP_PCB
 .rodata.memp_TCP_PCB
                0x000000000801a9d8        0xc ./Middlewares/Third_Party/LwIP/src/core/memp.o
                0x000000000801a9d8                memp_TCP_PCB
 .rodata.memp_TCP_PCB_LISTEN
                0x000000000801a9e4        0xc ./Middlewares/Third_Party/LwIP/src/core/memp.o
                0x000000000801a9e4                memp_TCP_PCB_LISTEN
 .rodata.memp_TCP_SEG
                0x000000000801a9f0        0xc ./Middlewares/Third_Party/LwIP/src/core/memp.o
                0x000000000801a9f0                memp_TCP_SEG
 .rodata.memp_REASSDATA
                0x000000000801a9fc        0xc ./Middlewares/Third_Party/LwIP/src/core/memp.o
                0x000000000801a9fc                memp_REASSDATA
 .rodata.memp_FRAG_PBUF
                0x000000000801aa08        0xc ./Middlewares/Third_Party/LwIP/src/core/memp.o
                0x000000000801aa08                memp_FRAG_PBUF
 .rodata.memp_SYS_TIMEOUT
                0x000000000801aa14        0xc ./Middlewares/Third_Party/LwIP/src/core/memp.o
                0x000000000801aa14                memp_SYS_TIMEOUT
 .rodata.memp_PBUF
                0x000000000801aa20        0xc ./Middlewares/Third_Party/LwIP/src/core/memp.o
                0x000000000801aa20                memp_PBUF
 .rodata.memp_PBUF_POOL
                0x000000000801aa2c        0xc ./Middlewares/Third_Party/LwIP/src/core/memp.o
                0x000000000801aa2c                memp_PBUF_POOL
 .rodata.memp_pools
                0x000000000801aa38       0x24 ./Middlewares/Third_Party/LwIP/src/core/memp.o
                0x000000000801aa38                memp_pools
 .rodata.tcp_backoff
                0x000000000801aa5c        0xd ./Middlewares/Third_Party/LwIP/src/core/tcp.o
 *fill*         0x000000000801aa69        0x3 
 .rodata.tcp_persist_backoff
                0x000000000801aa6c        0x7 ./Middlewares/Third_Party/LwIP/src/core/tcp.o
 *fill*         0x000000000801aa73        0x1 
 .rodata.tcp_pcb_lists
                0x000000000801aa74       0x10 ./Middlewares/Third_Party/LwIP/src/core/tcp.o
                0x000000000801aa74                tcp_pcb_lists
 .rodata.lwip_cyclic_timers
                0x000000000801aa84       0x18 ./Middlewares/Third_Party/LwIP/src/core/timeouts.o
                0x000000000801aa84                lwip_cyclic_timers
 .rodata.ip_addr_any
                0x000000000801aa9c        0x4 ./Middlewares/Third_Party/LwIP/src/core/ipv4/ip4_addr.o
                0x000000000801aa9c                ip_addr_any
 .rodata.ethbroadcast
                0x000000000801aaa0        0x6 ./Middlewares/Third_Party/LwIP/src/netif/ethernet.o
                0x000000000801aaa0                ethbroadcast
 *fill*         0x000000000801aaa6        0x2 
 .rodata.ethzero
                0x000000000801aaa8        0x6 ./Middlewares/Third_Party/LwIP/src/netif/ethernet.o
                0x000000000801aaa8                ethzero
 .rodata.srand.str1.1
                0x000000000801aaae       0x6f D:/Soft/Devlopment Tools/CubIDE/STM32CubeIDE_1.13.2/STM32CubeIDE/plugins/com.st.stm32cube.ide.mcu.externaltools.gnu-tools-for-stm32.11.3.rel1.win32_1.1.1.202309131626/tools/bin/../lib/gcc/arm-none-eabi/11.3.1/../../../../arm-none-eabi/lib/thumb/v7e-m+dp/hard\libc_nano.a(libc_a-rand.o)
 .rodata._ctype_
                0x000000000801ab1d      0x101 D:/Soft/Devlopment Tools/CubIDE/STM32CubeIDE_1.13.2/STM32CubeIDE/plugins/com.st.stm32cube.ide.mcu.externaltools.gnu-tools-for-stm32.11.3.rel1.win32_1.1.1.202309131626/tools/bin/../lib/gcc/arm-none-eabi/11.3.1/../../../../arm-none-eabi/lib/thumb/v7e-m+dp/hard\libc_nano.a(libc_a-ctype_.o)
                0x000000000801ab1d                _ctype_
 .rodata._printf_float.str1.1
                0x000000000801ac1e       0x12 D:/Soft/Devlopment Tools/CubIDE/STM32CubeIDE_1.13.2/STM32CubeIDE/plugins/com.st.stm32cube.ide.mcu.externaltools.gnu-tools-for-stm32.11.3.rel1.win32_1.1.1.202309131626/tools/bin/../lib/gcc/arm-none-eabi/11.3.1/../../../../arm-none-eabi/lib/thumb/v7e-m+dp/hard\libc_nano.a(libc_a-nano-vfprintf_float.o)
 .rodata._printf_i.str1.1
                0x000000000801ac30       0x22 D:/Soft/Devlopment Tools/CubIDE/STM32CubeIDE_1.13.2/STM32CubeIDE/plugins/com.st.stm32cube.ide.mcu.externaltools.gnu-tools-for-stm32.11.3.rel1.win32_1.1.1.202309131626/tools/bin/../lib/gcc/arm-none-eabi/11.3.1/../../../../arm-none-eabi/lib/thumb/v7e-m+dp/hard\libc_nano.a(libc_a-nano-vfprintf_i.o)
 .rodata._scanf_float.str1.1
                0x000000000801ac52        0x5 D:/Soft/Devlopment Tools/CubIDE/STM32CubeIDE_1.13.2/STM32CubeIDE/plugins/com.st.stm32cube.ide.mcu.externaltools.gnu-tools-for-stm32.11.3.rel1.win32_1.1.1.202309131626/tools/bin/../lib/gcc/arm-none-eabi/11.3.1/../../../../arm-none-eabi/lib/thumb/v7e-m+dp/hard\libc_nano.a(libc_a-nano-vfscanf_float.o)
                                          0x6 (size before relaxing)
 .rodata.__assert_func.str1.1
                0x000000000801ac57       0x3c D:/Soft/Devlopment Tools/CubIDE/STM32CubeIDE_1.13.2/STM32CubeIDE/plugins/com.st.stm32cube.ide.mcu.externaltools.gnu-tools-for-stm32.11.3.rel1.win32_1.1.1.202309131626/tools/bin/../lib/gcc/arm-none-eabi/11.3.1/../../../../arm-none-eabi/lib/thumb/v7e-m+dp/hard\libc_nano.a(libc_a-assert.o)
                                         0x3d (size before relaxing)
 .rodata._dtoa_r.str1.1
                0x000000000801ac93       0x76 D:/Soft/Devlopment Tools/CubIDE/STM32CubeIDE_1.13.2/STM32CubeIDE/plugins/com.st.stm32cube.ide.mcu.externaltools.gnu-tools-for-stm32.11.3.rel1.win32_1.1.1.202309131626/tools/bin/../lib/gcc/arm-none-eabi/11.3.1/../../../../arm-none-eabi/lib/thumb/v7e-m+dp/hard\libc_nano.a(libc_a-dtoa.o)
                                         0x8f (size before relaxing)
 .rodata._Balloc.str1.1
                0x000000000801ad09       0x59 D:/Soft/Devlopment Tools/CubIDE/STM32CubeIDE_1.13.2/STM32CubeIDE/plugins/com.st.stm32cube.ide.mcu.externaltools.gnu-tools-for-stm32.11.3.rel1.win32_1.1.1.202309131626/tools/bin/../lib/gcc/arm-none-eabi/11.3.1/../../../../arm-none-eabi/lib/thumb/v7e-m+dp/hard\libc_nano.a(libc_a-mprec.o)
                                         0x70 (size before relaxing)
 .rodata.__multadd.str1.1
                0x000000000801ad62       0x11 D:/Soft/Devlopment Tools/CubIDE/STM32CubeIDE_1.13.2/STM32CubeIDE/plugins/com.st.stm32cube.ide.mcu.externaltools.gnu-tools-for-stm32.11.3.rel1.win32_1.1.1.202309131626/tools/bin/../lib/gcc/arm-none-eabi/11.3.1/../../../../arm-none-eabi/lib/thumb/v7e-m+dp/hard\libc_nano.a(libc_a-mprec.o)
 *fill*         0x000000000801ad62        0x6 
 .rodata.__mprec_bigtens
                0x000000000801ad68       0x28 D:/Soft/Devlopment Tools/CubIDE/STM32CubeIDE_1.13.2/STM32CubeIDE/plugins/com.st.stm32cube.ide.mcu.externaltools.gnu-tools-for-stm32.11.3.rel1.win32_1.1.1.202309131626/tools/bin/../lib/gcc/arm-none-eabi/11.3.1/../../../../arm-none-eabi/lib/thumb/v7e-m+dp/hard\libc_nano.a(libc_a-mprec.o)
                0x000000000801ad68                __mprec_bigtens
 .rodata.__mprec_tens
                0x000000000801ad90       0xc8 D:/Soft/Devlopment Tools/CubIDE/STM32CubeIDE_1.13.2/STM32CubeIDE/plugins/com.st.stm32cube.ide.mcu.externaltools.gnu-tools-for-stm32.11.3.rel1.win32_1.1.1.202309131626/tools/bin/../lib/gcc/arm-none-eabi/11.3.1/../../../../arm-none-eabi/lib/thumb/v7e-m+dp/hard\libc_nano.a(libc_a-mprec.o)
                0x000000000801ad90                __mprec_tens
 .rodata.p05.0  0x000000000801ae58        0xc D:/Soft/Devlopment Tools/CubIDE/STM32CubeIDE_1.13.2/STM32CubeIDE/plugins/com.st.stm32cube.ide.mcu.externaltools.gnu-tools-for-stm32.11.3.rel1.win32_1.1.1.202309131626/tools/bin/../lib/gcc/arm-none-eabi/11.3.1/../../../../arm-none-eabi/lib/thumb/v7e-m+dp/hard\libc_nano.a(libc_a-mprec.o)
 .rodata._strtod_l.str1.1
                0x000000000801ae64        0x2 D:/Soft/Devlopment Tools/CubIDE/STM32CubeIDE_1.13.2/STM32CubeIDE/plugins/com.st.stm32cube.ide.mcu.externaltools.gnu-tools-for-stm32.11.3.rel1.win32_1.1.1.202309131626/tools/bin/../lib/gcc/arm-none-eabi/11.3.1/../../../../arm-none-eabi/lib/thumb/v7e-m+dp/hard\libc_nano.a(libc_a-strtod.o)
                                          0xf (size before relaxing)
 *fill*         0x000000000801ae66        0x2 
 .rodata.fpi.1  0x000000000801ae68       0x14 D:/Soft/Devlopment Tools/CubIDE/STM32CubeIDE_1.13.2/STM32CubeIDE/plugins/com.st.stm32cube.ide.mcu.externaltools.gnu-tools-for-stm32.11.3.rel1.win32_1.1.1.202309131626/tools/bin/../lib/gcc/arm-none-eabi/11.3.1/../../../../arm-none-eabi/lib/thumb/v7e-m+dp/hard\libc_nano.a(libc_a-strtod.o)
 .rodata.fpinan.0
                0x000000000801ae7c       0x14 D:/Soft/Devlopment Tools/CubIDE/STM32CubeIDE_1.13.2/STM32CubeIDE/plugins/com.st.stm32cube.ide.mcu.externaltools.gnu-tools-for-stm32.11.3.rel1.win32_1.1.1.202309131626/tools/bin/../lib/gcc/arm-none-eabi/11.3.1/../../../../arm-none-eabi/lib/thumb/v7e-m+dp/hard\libc_nano.a(libc_a-strtod.o)
 .rodata.tinytens
                0x000000000801ae90       0x28 D:/Soft/Devlopment Tools/CubIDE/STM32CubeIDE_1.13.2/STM32CubeIDE/plugins/com.st.stm32cube.ide.mcu.externaltools.gnu-tools-for-stm32.11.3.rel1.win32_1.1.1.202309131626/tools/bin/../lib/gcc/arm-none-eabi/11.3.1/../../../../arm-none-eabi/lib/thumb/v7e-m+dp/hard\libc_nano.a(libc_a-strtod.o)
 .rodata._svfprintf_r.str1.1
                0x000000000801aeb8       0x11 D:/Soft/Devlopment Tools/CubIDE/STM32CubeIDE_1.13.2/STM32CubeIDE/plugins/com.st.stm32cube.ide.mcu.externaltools.gnu-tools-for-stm32.11.3.rel1.win32_1.1.1.202309131626/tools/bin/../lib/gcc/arm-none-eabi/11.3.1/../../../../arm-none-eabi/lib/thumb/v7e-m+dp/hard\libc_nano.a(libc_a-nano-svfprintf.o)
 .rodata._vfprintf_r.str1.1
                0x000000000801aec9       0x11 D:/Soft/Devlopment Tools/CubIDE/STM32CubeIDE_1.13.2/STM32CubeIDE/plugins/com.st.stm32cube.ide.mcu.externaltools.gnu-tools-for-stm32.11.3.rel1.win32_1.1.1.202309131626/tools/bin/../lib/gcc/arm-none-eabi/11.3.1/../../../../arm-none-eabi/lib/thumb/v7e-m+dp/hard\libc_nano.a(libc_a-nano-vfprintf.o)
 .rodata._setlocale_r.str1.1
                0x000000000801aec9        0x8 D:/Soft/Devlopment Tools/CubIDE/STM32CubeIDE_1.13.2/STM32CubeIDE/plugins/com.st.stm32cube.ide.mcu.externaltools.gnu-tools-for-stm32.11.3.rel1.win32_1.1.1.202309131626/tools/bin/../lib/gcc/arm-none-eabi/11.3.1/../../../../arm-none-eabi/lib/thumb/v7e-m+dp/hard\libc_nano.a(libc_a-locale.o)
                                          0x9 (size before relaxing)
 .rodata.str1.1
                0x000000000801aed1        0x2 D:/Soft/Devlopment Tools/CubIDE/STM32CubeIDE_1.13.2/STM32CubeIDE/plugins/com.st.stm32cube.ide.mcu.externaltools.gnu-tools-for-stm32.11.3.rel1.win32_1.1.1.202309131626/tools/bin/../lib/gcc/arm-none-eabi/11.3.1/../../../../arm-none-eabi/lib/thumb/v7e-m+dp/hard\libc_nano.a(libc_a-locale.o)
 .rodata.__gethex.str1.1
                0x000000000801aed1       0x60 D:/Soft/Devlopment Tools/CubIDE/STM32CubeIDE_1.13.2/STM32CubeIDE/plugins/com.st.stm32cube.ide.mcu.externaltools.gnu-tools-for-stm32.11.3.rel1.win32_1.1.1.202309131626/tools/bin/../lib/gcc/arm-none-eabi/11.3.1/../../../../arm-none-eabi/lib/thumb/v7e-m+dp/hard\libc_nano.a(libc_a-gdtoa-gethex.o)
                                         0x73 (size before relaxing)
                0x000000000801af34                . = ALIGN (0x4)
 *fill*         0x000000000801af31        0x3 

.ARM.extab
 *(.ARM.extab* .gnu.linkonce.armextab.*)

.ARM            0x000000000801af34        0x8
                0x000000000801af34                __exidx_start = .
 *(.ARM.exidx*)
 .ARM.exidx     0x000000000801af34        0x8 D:/Soft/Devlopment Tools/CubIDE/STM32CubeIDE_1.13.2/STM32CubeIDE/plugins/com.st.stm32cube.ide.mcu.externaltools.gnu-tools-for-stm32.11.3.rel1.win32_1.1.1.202309131626/tools/bin/../lib/gcc/arm-none-eabi/11.3.1/thumb/v7e-m+dp/hard\libgcc.a(_udivmoddi4.o)
                0x000000000801af3c                __exidx_end = .

.rel.dyn        0x000000000801af3c        0x0
 .rel.iplt      0x000000000801af3c        0x0 D:/Soft/Devlopment Tools/CubIDE/STM32CubeIDE_1.13.2/STM32CubeIDE/plugins/com.st.stm32cube.ide.mcu.externaltools.gnu-tools-for-stm32.11.3.rel1.win32_1.1.1.202309131626/tools/bin/../lib/gcc/arm-none-eabi/11.3.1/thumb/v7e-m+dp/hard/crtbegin.o

.preinit_array  0x000000000801af3c        0x0
                0x000000000801af3c                PROVIDE (__preinit_array_start = .)
 *(.preinit_array*)
                0x000000000801af3c                PROVIDE (__preinit_array_end = .)

.init_array     0x000000000801af3c        0x4
                0x000000000801af3c                PROVIDE (__init_array_start = .)
 *(SORT_BY_NAME(.init_array.*))
 *(.init_array*)
 .init_array    0x000000000801af3c        0x4 D:/Soft/Devlopment Tools/CubIDE/STM32CubeIDE_1.13.2/STM32CubeIDE/plugins/com.st.stm32cube.ide.mcu.externaltools.gnu-tools-for-stm32.11.3.rel1.win32_1.1.1.202309131626/tools/bin/../lib/gcc/arm-none-eabi/11.3.1/thumb/v7e-m+dp/hard/crtbegin.o
                0x000000000801af40                PROVIDE (__init_array_end = .)

.fini_array     0x000000000801af40        0x4
                [!provide]                        PROVIDE (__fini_array_start = .)
 *(SORT_BY_NAME(.fini_array.*))
 *(.fini_array*)
 .fini_array    0x000000000801af40        0x4 D:/Soft/Devlopment Tools/CubIDE/STM32CubeIDE_1.13.2/STM32CubeIDE/plugins/com.st.stm32cube.ide.mcu.externaltools.gnu-tools-for-stm32.11.3.rel1.win32_1.1.1.202309131626/tools/bin/../lib/gcc/arm-none-eabi/11.3.1/thumb/v7e-m+dp/hard/crtbegin.o
                [!provide]                        PROVIDE (__fini_array_end = .)
                0x000000000801af44                _sidata = LOADADDR (.data)

.data           0x0000000024000000      0x1f8 load address 0x000000000801af44
                0x0000000024000000                . = ALIGN (0x4)
                0x0000000024000000                _sdata = .
 *(.data)
 *(.data*)
 .data.SystemCoreClock
                0x0000000024000000        0x4 ./Core/Src/system_stm32h7xx.o
                0x0000000024000000                SystemCoreClock
 .data.SystemD2Clock
                0x0000000024000004        0x4 ./Core/Src/system_stm32h7xx.o
                0x0000000024000004                SystemD2Clock
 .data.uwTickPrio
                0x0000000024000008        0x4 ./Drivers/STM32H7xx_HAL_Driver/Src/stm32h7xx_hal.o
                0x0000000024000008                uwTickPrio
 .data.uwTickFreq
                0x000000002400000c        0x1 ./Drivers/STM32H7xx_HAL_Driver/Src/stm32h7xx_hal.o
                0x000000002400000c                uwTickFreq
 *fill*         0x000000002400000d        0x3 
 .data.LAN8742_IOCtx
                0x0000000024000010       0x14 ./LWIP/Target/ethernetif.o
                0x0000000024000010                LAN8742_IOCtx
 .data.tcp_port
                0x0000000024000024        0x2 ./Middlewares/Third_Party/LwIP/src/core/tcp.o
 *fill*         0x0000000024000026        0x2 
 .data.iss.0    0x0000000024000028        0x4 ./Middlewares/Third_Party/LwIP/src/core/tcp.o
 .data.udp_port
                0x000000002400002c        0x2 ./Middlewares/Third_Party/LwIP/src/core/udp.o
 *fill*         0x000000002400002e        0x2 
 .data.__sglue  0x0000000024000030        0xc D:/Soft/Devlopment Tools/CubIDE/STM32CubeIDE_1.13.2/STM32CubeIDE/plugins/com.st.stm32cube.ide.mcu.externaltools.gnu-tools-for-stm32.11.3.rel1.win32_1.1.1.202309131626/tools/bin/../lib/gcc/arm-none-eabi/11.3.1/../../../../arm-none-eabi/lib/thumb/v7e-m+dp/hard\libc_nano.a(libc_a-findfp.o)
                0x0000000024000030                __sglue
 .data._impure_data
                0x000000002400003c       0x4c D:/Soft/Devlopment Tools/CubIDE/STM32CubeIDE_1.13.2/STM32CubeIDE/plugins/com.st.stm32cube.ide.mcu.externaltools.gnu-tools-for-stm32.11.3.rel1.win32_1.1.1.202309131626/tools/bin/../lib/gcc/arm-none-eabi/11.3.1/../../../../arm-none-eabi/lib/thumb/v7e-m+dp/hard\libc_nano.a(libc_a-impure.o)
                0x000000002400003c                _impure_data
 .data._impure_ptr
                0x0000000024000088        0x4 D:/Soft/Devlopment Tools/CubIDE/STM32CubeIDE_1.13.2/STM32CubeIDE/plugins/com.st.stm32cube.ide.mcu.externaltools.gnu-tools-for-stm32.11.3.rel1.win32_1.1.1.202309131626/tools/bin/../lib/gcc/arm-none-eabi/11.3.1/../../../../arm-none-eabi/lib/thumb/v7e-m+dp/hard\libc_nano.a(libc_a-impure.o)
                0x0000000024000088                _impure_ptr
 .data.__global_locale
                0x000000002400008c      0x16c D:/Soft/Devlopment Tools/CubIDE/STM32CubeIDE_1.13.2/STM32CubeIDE/plugins/com.st.stm32cube.ide.mcu.externaltools.gnu-tools-for-stm32.11.3.rel1.win32_1.1.1.202309131626/tools/bin/../lib/gcc/arm-none-eabi/11.3.1/../../../../arm-none-eabi/lib/thumb/v7e-m+dp/hard\libc_nano.a(libc_a-locale.o)
                0x000000002400008c                __global_locale
 *(.RamFunc)
 *(.RamFunc*)
                0x00000000240001f8                . = ALIGN (0x4)
                0x00000000240001f8                _edata = .

.igot.plt       0x00000000240001f8        0x0 load address 0x000000000801b13c
 .igot.plt      0x00000000240001f8        0x0 D:/Soft/Devlopment Tools/CubIDE/STM32CubeIDE_1.13.2/STM32CubeIDE/plugins/com.st.stm32cube.ide.mcu.externaltools.gnu-tools-for-stm32.11.3.rel1.win32_1.1.1.202309131626/tools/bin/../lib/gcc/arm-none-eabi/11.3.1/thumb/v7e-m+dp/hard/crtbegin.o

.RxDecripSection
                0x00000000240001f8       0x60 load address 0x000000000801b13c
 .RxDecripSection
                0x00000000240001f8       0x60 ./LWIP/Target/ethernetif.o
                0x00000000240001f8                DMARxDscrTab

.TxDecripSection
                0x0000000024000258       0x60 load address 0x000000000801b19c
 .TxDecripSection
                0x0000000024000258       0x60 ./LWIP/Target/ethernetif.o
                0x0000000024000258                DMATxDscrTab
                0x00000000240002b8                . = ALIGN (0x4)

.bss            0x00000000240002b8     0x7dac load address 0x000000000801b1fc
                0x00000000240002b8                _sbss = .
                0x00000000240002b8                __bss_start__ = _sbss
 *(.bss)
 .bss           0x00000000240002b8       0x1c D:/Soft/Devlopment Tools/CubIDE/STM32CubeIDE_1.13.2/STM32CubeIDE/plugins/com.st.stm32cube.ide.mcu.externaltools.gnu-tools-for-stm32.11.3.rel1.win32_1.1.1.202309131626/tools/bin/../lib/gcc/arm-none-eabi/11.3.1/thumb/v7e-m+dp/hard/crtbegin.o
 *(.bss*)
 .bss.__sbrk_heap_end
                0x00000000240002d4        0x4 ./Core/Src/sysmem.o
 .bss.huart1    0x00000000240002d8       0x94 ./Core/Src/usart.o
                0x00000000240002d8                huart1
 .bss.uwTick    0x000000002400036c        0x4 ./Drivers/STM32H7xx_HAL_Driver/Src/stm32h7xx_hal.o
                0x000000002400036c                uwTick
 .bss.fac_us    0x0000000024000370        0x4 ./Drivers/delay/delay.o
 .bss.EthernetLinkTimer
                0x0000000024000374        0x4 ./LWIP/App/lwip.o
                0x0000000024000374                EthernetLinkTimer
 .bss.gnetif    0x0000000024000378       0x3c ./LWIP/App/lwip.o
                0x0000000024000378                gnetif
 .bss.ipaddr    0x00000000240003b4        0x4 ./LWIP/App/lwip.o
                0x00000000240003b4                ipaddr
 .bss.netmask   0x00000000240003b8        0x4 ./LWIP/App/lwip.o
                0x00000000240003b8                netmask
 .bss.gw        0x00000000240003bc        0x4 ./LWIP/App/lwip.o
                0x00000000240003bc                gw
 .bss.IP_ADDRESS
                0x00000000240003c0        0x4 ./LWIP/App/lwip.o
                0x00000000240003c0                IP_ADDRESS
 .bss.NETMASK_ADDRESS
                0x00000000240003c4        0x4 ./LWIP/App/lwip.o
                0x00000000240003c4                NETMASK_ADDRESS
 .bss.GATEWAY_ADDRESS
                0x00000000240003c8        0x4 ./LWIP/App/lwip.o
                0x00000000240003c8                GATEWAY_ADDRESS
 .bss.memp_memory_RX_POOL_base
                0x00000000240003cc     0x4983 ./LWIP/Target/ethernetif.o
                0x00000000240003cc                memp_memory_RX_POOL_base
 *fill*         0x0000000024004d4f        0x1 
 .bss.memp_tab_RX_POOL
                0x0000000024004d50        0x4 ./LWIP/Target/ethernetif.o
 .bss.RxAllocStatus
                0x0000000024004d54        0x1 ./LWIP/Target/ethernetif.o
 *fill*         0x0000000024004d55        0x3 
 .bss.heth      0x0000000024004d58       0xb0 ./LWIP/Target/ethernetif.o
                0x0000000024004d58                heth
 .bss.TxConfig  0x0000000024004e08       0x38 ./LWIP/Target/ethernetif.o
                0x0000000024004e08                TxConfig
 .bss.LAN8742   0x0000000024004e40       0x20 ./LWIP/Target/ethernetif.o
                0x0000000024004e40                LAN8742
 .bss.ip_data   0x0000000024004e60       0x18 ./Middlewares/Third_Party/LwIP/src/core/ip.o
                0x0000000024004e60                ip_data
 .bss.ram       0x0000000024004e78        0x4 ./Middlewares/Third_Party/LwIP/src/core/mem.o
 .bss.ram_end   0x0000000024004e7c        0x4 ./Middlewares/Third_Party/LwIP/src/core/mem.o
 .bss.lfree     0x0000000024004e80        0x4 ./Middlewares/Third_Party/LwIP/src/core/mem.o
 .bss.memp_memory_UDP_PCB_base
                0x0000000024004e84       0x83 ./Middlewares/Third_Party/LwIP/src/core/memp.o
                0x0000000024004e84                memp_memory_UDP_PCB_base
 *fill*         0x0000000024004f07        0x1 
 .bss.memp_tab_UDP_PCB
                0x0000000024004f08        0x4 ./Middlewares/Third_Party/LwIP/src/core/memp.o
 .bss.memp_memory_TCP_PCB_base
                0x0000000024004f0c      0x30f ./Middlewares/Third_Party/LwIP/src/core/memp.o
                0x0000000024004f0c                memp_memory_TCP_PCB_base
 *fill*         0x000000002400521b        0x1 
 .bss.memp_tab_TCP_PCB
                0x000000002400521c        0x4 ./Middlewares/Third_Party/LwIP/src/core/memp.o
 .bss.memp_memory_TCP_PCB_LISTEN_base
                0x0000000024005220       0xe3 ./Middlewares/Third_Party/LwIP/src/core/memp.o
                0x0000000024005220                memp_memory_TCP_PCB_LISTEN_base
 *fill*         0x0000000024005303        0x1 
 .bss.memp_tab_TCP_PCB_LISTEN
                0x0000000024005304        0x4 ./Middlewares/Third_Party/LwIP/src/core/memp.o
 .bss.memp_memory_TCP_SEG_base
                0x0000000024005308      0x103 ./Middlewares/Third_Party/LwIP/src/core/memp.o
                0x0000000024005308                memp_memory_TCP_SEG_base
 *fill*         0x000000002400540b        0x1 
 .bss.memp_tab_TCP_SEG
                0x000000002400540c        0x4 ./Middlewares/Third_Party/LwIP/src/core/memp.o
 .bss.memp_memory_REASSDATA_base
                0x0000000024005410       0xa3 ./Middlewares/Third_Party/LwIP/src/core/memp.o
                0x0000000024005410                memp_memory_REASSDATA_base
 *fill*         0x00000000240054b3        0x1 
 .bss.memp_tab_REASSDATA
                0x00000000240054b4        0x4 ./Middlewares/Third_Party/LwIP/src/core/memp.o
 .bss.memp_memory_FRAG_PBUF_base
                0x00000000240054b8      0x16b ./Middlewares/Third_Party/LwIP/src/core/memp.o
                0x00000000240054b8                memp_memory_FRAG_PBUF_base
 *fill*         0x0000000024005623        0x1 
 .bss.memp_tab_FRAG_PBUF
                0x0000000024005624        0x4 ./Middlewares/Third_Party/LwIP/src/core/memp.o
 .bss.memp_memory_SYS_TIMEOUT_base
                0x0000000024005628       0x33 ./Middlewares/Third_Party/LwIP/src/core/memp.o
                0x0000000024005628                memp_memory_SYS_TIMEOUT_base
 *fill*         0x000000002400565b        0x1 
 .bss.memp_tab_SYS_TIMEOUT
                0x000000002400565c        0x4 ./Middlewares/Third_Party/LwIP/src/core/memp.o
 .bss.memp_memory_PBUF_base
                0x0000000024005660      0x103 ./Middlewares/Third_Party/LwIP/src/core/memp.o
                0x0000000024005660                memp_memory_PBUF_base
 *fill*         0x0000000024005763        0x1 
 .bss.memp_tab_PBUF
                0x0000000024005764        0x4 ./Middlewares/Third_Party/LwIP/src/core/memp.o
 .bss.memp_memory_PBUF_POOL_base
                0x0000000024005768     0x2603 ./Middlewares/Third_Party/LwIP/src/core/memp.o
                0x0000000024005768                memp_memory_PBUF_POOL_base
 *fill*         0x0000000024007d6b        0x1 
 .bss.memp_tab_PBUF_POOL
                0x0000000024007d6c        0x4 ./Middlewares/Third_Party/LwIP/src/core/memp.o
 .bss.netif_list
                0x0000000024007d70        0x4 ./Middlewares/Third_Party/LwIP/src/core/netif.o
                0x0000000024007d70                netif_list
 .bss.netif_default
                0x0000000024007d74        0x4 ./Middlewares/Third_Party/LwIP/src/core/netif.o
                0x0000000024007d74                netif_default
 .bss.netif_num
                0x0000000024007d78        0x1 ./Middlewares/Third_Party/LwIP/src/core/netif.o
 *fill*         0x0000000024007d79        0x3 
 .bss.loop_netif
                0x0000000024007d7c       0x3c ./Middlewares/Third_Party/LwIP/src/core/netif.o
 .bss.pbuf_free_ooseq_pending
                0x0000000024007db8        0x1 ./Middlewares/Third_Party/LwIP/src/core/pbuf.o
                0x0000000024007db8                pbuf_free_ooseq_pending
 *fill*         0x0000000024007db9        0x3 
 .bss.tcp_ticks
                0x0000000024007dbc        0x4 ./Middlewares/Third_Party/LwIP/src/core/tcp.o
                0x0000000024007dbc                tcp_ticks
 .bss.tcp_bound_pcbs
                0x0000000024007dc0        0x4 ./Middlewares/Third_Party/LwIP/src/core/tcp.o
                0x0000000024007dc0                tcp_bound_pcbs
 .bss.tcp_listen_pcbs
                0x0000000024007dc4        0x4 ./Middlewares/Third_Party/LwIP/src/core/tcp.o
                0x0000000024007dc4                tcp_listen_pcbs
 .bss.tcp_active_pcbs
                0x0000000024007dc8        0x4 ./Middlewares/Third_Party/LwIP/src/core/tcp.o
                0x0000000024007dc8                tcp_active_pcbs
 .bss.tcp_tw_pcbs
                0x0000000024007dcc        0x4 ./Middlewares/Third_Party/LwIP/src/core/tcp.o
                0x0000000024007dcc                tcp_tw_pcbs
 .bss.tcp_active_pcbs_changed
                0x0000000024007dd0        0x1 ./Middlewares/Third_Party/LwIP/src/core/tcp.o
                0x0000000024007dd0                tcp_active_pcbs_changed
 .bss.tcp_timer
                0x0000000024007dd1        0x1 ./Middlewares/Third_Party/LwIP/src/core/tcp.o
 .bss.tcp_timer_ctr
                0x0000000024007dd2        0x1 ./Middlewares/Third_Party/LwIP/src/core/tcp.o
 *fill*         0x0000000024007dd3        0x1 
 .bss.inseg     0x0000000024007dd4       0x10 ./Middlewares/Third_Party/LwIP/src/core/tcp_in.o
 .bss.tcphdr    0x0000000024007de4        0x4 ./Middlewares/Third_Party/LwIP/src/core/tcp_in.o
 .bss.tcphdr_optlen
                0x0000000024007de8        0x2 ./Middlewares/Third_Party/LwIP/src/core/tcp_in.o
 .bss.tcphdr_opt1len
                0x0000000024007dea        0x2 ./Middlewares/Third_Party/LwIP/src/core/tcp_in.o
 .bss.tcphdr_opt2
                0x0000000024007dec        0x4 ./Middlewares/Third_Party/LwIP/src/core/tcp_in.o
 .bss.tcp_optidx
                0x0000000024007df0        0x2 ./Middlewares/Third_Party/LwIP/src/core/tcp_in.o
 *fill*         0x0000000024007df2        0x2 
 .bss.seqno     0x0000000024007df4        0x4 ./Middlewares/Third_Party/LwIP/src/core/tcp_in.o
 .bss.ackno     0x0000000024007df8        0x4 ./Middlewares/Third_Party/LwIP/src/core/tcp_in.o
 .bss.recv_acked
                0x0000000024007dfc        0x2 ./Middlewares/Third_Party/LwIP/src/core/tcp_in.o
 .bss.tcplen    0x0000000024007dfe        0x2 ./Middlewares/Third_Party/LwIP/src/core/tcp_in.o
 .bss.flags     0x0000000024007e00        0x1 ./Middlewares/Third_Party/LwIP/src/core/tcp_in.o
 .bss.recv_flags
                0x0000000024007e01        0x1 ./Middlewares/Third_Party/LwIP/src/core/tcp_in.o
 *fill*         0x0000000024007e02        0x2 
 .bss.recv_data
                0x0000000024007e04        0x4 ./Middlewares/Third_Party/LwIP/src/core/tcp_in.o
 .bss.tcp_input_pcb
                0x0000000024007e08        0x4 ./Middlewares/Third_Party/LwIP/src/core/tcp_in.o
                0x0000000024007e08                tcp_input_pcb
 .bss.next_timeout
                0x0000000024007e0c        0x4 ./Middlewares/Third_Party/LwIP/src/core/timeouts.o
 .bss.current_timeout_due_time
                0x0000000024007e10        0x4 ./Middlewares/Third_Party/LwIP/src/core/timeouts.o
 .bss.tcpip_tcp_timer_active
                0x0000000024007e14        0x4 ./Middlewares/Third_Party/LwIP/src/core/timeouts.o
 .bss.udp_pcbs  0x0000000024007e18        0x4 ./Middlewares/Third_Party/LwIP/src/core/udp.o
                0x0000000024007e18                udp_pcbs
 .bss.arp_table
                0x0000000024007e1c       0xf0 ./Middlewares/Third_Party/LwIP/src/core/ipv4/etharp.o
 .bss.etharp_cached_entry
                0x0000000024007f0c        0x1 ./Middlewares/Third_Party/LwIP/src/core/ipv4/etharp.o
 *fill*         0x0000000024007f0d        0x1 
 .bss.ip_id     0x0000000024007f0e        0x2 ./Middlewares/Third_Party/LwIP/src/core/ipv4/ip4.o
 .bss.reassdatagrams
                0x0000000024007f10        0x4 ./Middlewares/Third_Party/LwIP/src/core/ipv4/ip4_frag.o
 .bss.ip_reass_pbufcount
                0x0000000024007f14        0x2 ./Middlewares/Third_Party/LwIP/src/core/ipv4/ip4_frag.o
 *fill*         0x0000000024007f16        0x2 
 .bss.__sf      0x0000000024007f18      0x138 D:/Soft/Devlopment Tools/CubIDE/STM32CubeIDE_1.13.2/STM32CubeIDE/plugins/com.st.stm32cube.ide.mcu.externaltools.gnu-tools-for-stm32.11.3.rel1.win32_1.1.1.202309131626/tools/bin/../lib/gcc/arm-none-eabi/11.3.1/../../../../arm-none-eabi/lib/thumb/v7e-m+dp/hard\libc_nano.a(libc_a-findfp.o)
                0x0000000024007f18                __sf
 .bss.__stdio_exit_handler
                0x0000000024008050        0x4 D:/Soft/Devlopment Tools/CubIDE/STM32CubeIDE_1.13.2/STM32CubeIDE/plugins/com.st.stm32cube.ide.mcu.externaltools.gnu-tools-for-stm32.11.3.rel1.win32_1.1.1.202309131626/tools/bin/../lib/gcc/arm-none-eabi/11.3.1/../../../../arm-none-eabi/lib/thumb/v7e-m+dp/hard\libc_nano.a(libc_a-findfp.o)
                0x0000000024008050                __stdio_exit_handler
