Component: ARM Compiler 5.06 update 7 (build 960) Tool: armlink [4d3601]

==============================================================================

Section Cross References

    startup_stm32h743xx.o(RESET) refers to startup_stm32h743xx.o(STACK) for __initial_sp
    startup_stm32h743xx.o(RESET) refers to startup_stm32h743xx.o(.text) for Reset_Handler
    startup_stm32h743xx.o(RESET) refers to stm32h7xx_it.o(i.NMI_Handler) for NMI_Handler
    startup_stm32h743xx.o(RESET) refers to stm32h7xx_it.o(i.HardFault_Handler) for HardFault_Handler
    startup_stm32h743xx.o(RESET) refers to stm32h7xx_it.o(i.MemManage_Handler) for MemManage_Handler
    startup_stm32h743xx.o(RESET) refers to stm32h7xx_it.o(i.BusFault_Handler) for BusFault_Handler
    startup_stm32h743xx.o(RESET) refers to stm32h7xx_it.o(i.UsageFault_Handler) for UsageFault_Handler
    startup_stm32h743xx.o(RESET) refers to stm32h7xx_it.o(i.SVC_Handler) for SVC_Handler
    startup_stm32h743xx.o(RESET) refers to stm32h7xx_it.o(i.DebugMon_Handler) for DebugMon_Handler
    startup_stm32h743xx.o(RESET) refers to stm32h7xx_it.o(i.PendSV_Handler) for PendSV_Handler
    startup_stm32h743xx.o(RESET) refers to stm32h7xx_it.o(i.SysTick_Handler) for SysTick_Handler
    startup_stm32h743xx.o(RESET) refers to stm32h7xx_it.o(i.USART1_IRQHandler) for USART1_IRQHandler
    startup_stm32h743xx.o(RESET) refers to lwip.o(i.ETH_IRQHandler) for ETH_IRQHandler
    startup_stm32h743xx.o(RESET) refers to stm32h7xx_it.o(i.ETH_WKUP_IRQHandler) for ETH_WKUP_IRQHandler
    startup_stm32h743xx.o(.text) refers to system_stm32h7xx.o(i.SystemInit) for SystemInit
    startup_stm32h743xx.o(.text) refers to entry.o(.ARM.Collect$$$$00000000) for __main
    main.o(i.MPU_Config) refers to stm32h7xx_hal_cortex.o(i.HAL_MPU_Disable) for HAL_MPU_Disable
    main.o(i.MPU_Config) refers to stm32h7xx_hal_cortex.o(i.HAL_MPU_ConfigRegion) for HAL_MPU_ConfigRegion
==============================================================================

Removing Unused input sections from the image.

    Removing startup_stm32h743xx.o(HEAP), (1024 bytes).
    Removing main.o(.rev16_text), (4 bytes).
    Removing main.o(.revsh_text), (4 bytes).
    Removing main.o(.rrx_text), (6 bytes).
    Removing gpio.o(.rev16_text), (4 bytes).
    Removing gpio.o(.revsh_text), (4 bytes).
    Removing gpio.o(.rrx_text), (6 bytes).
    Removing usart.o(.rev16_text), (4 bytes).
    Removing usart.o(.revsh_text), (4 bytes).
    Removing usart.o(.rrx_text), (6 bytes).
    Removing usart.o(i.HAL_UART_MspDeInit), (52 bytes).
    Removing stm32h7xx_it.o(.rev16_text), (4 bytes).
    Removing stm32h7xx_it.o(.revsh_text), (4 bytes).
    Removing stm32h7xx_it.o(.rrx_text), (6 bytes).
    Removing stm32h7xx_hal_msp.o(.rev16_text), (4 bytes).
    Removing stm32h7xx_hal_msp.o(.revsh_text), (4 bytes).
    Removing stm32h7xx_hal_msp.o(.rrx_text), (6 bytes).
    Removing ethernetif.o(.rev16_text), (4 bytes).
==============================================================================

Image Symbol Table

    Local Symbols

    Symbol Name                              Value     Ov Type        Size  Object(Section)

    ../Core/Src/gpio.c                       0x00000000   Number         0  gpio.o ABSOLUTE
    ../Core/Src/main.c                       0x00000000   Number         0  main.o ABSOLUTE
    ../Core/Src/stm32h7xx_hal_msp.c          0x00000000   Number         0  stm32h7xx_hal_msp.o ABSOLUTE
    ../Core/Src/stm32h7xx_it.c               0x00000000   Number         0  stm32h7xx_it.o ABSOLUTE
    ../Core/Src/system_stm32h7xx.c           0x00000000   Number         0  system_stm32h7xx.o ABSOLUTE
    ../Core/Src/usart.c                      0x00000000   Number         0  usart.o ABSOLUTE
    ../Drivers/BSP/Components/lan8742/lan8742.c 0x00000000   Number         0  lan8742.o ABSOLUTE
    ../Drivers/STM32H7xx_HAL_Driver/Src/stm32h7xx_hal.c 0x00000000   Number         0  stm32h7xx_hal.o ABSOLUTE
    ../Drivers/STM32H7xx_HAL_Driver/Src/stm32h7xx_hal_cortex.c 0x00000000   Number         0  stm32h7xx_hal_cortex.o ABSOLUTE
    ../Drivers/STM32H7xx_HAL_Driver/Src/stm32h7xx_hal_dma.c 0x00000000   Number         0  stm32h7xx_hal_dma.o ABSOLUTE
    ../Drivers/STM32H7xx_HAL_Driver/Src/stm32h7xx_hal_dma_ex.c 0x00000000   Number         0  stm32h7xx_hal_dma_ex.o ABSOLUTE
    ../Drivers/STM32H7xx_HAL_Driver/Src/stm32h7xx_hal_eth.c 0x00000000   Number         0  stm32h7xx_hal_eth.o ABSOLUTE
    ../Drivers/STM32H7xx_HAL_Driver/Src/stm32h7xx_hal_eth_ex.c 0x00000000   Number         0  stm32h7xx_hal_eth_ex.o ABSOLUTE
    ../Drivers/STM32H7xx_HAL_Driver/Src/stm32h7xx_hal_exti.c 0x00000000   Number         0  stm32h7xx_hal_exti.o ABSOLUTE
    ../Drivers/STM32H7xx_HAL_Driver/Src/stm32h7xx_hal_flash.c 0x00000000   Number         0  stm32h7xx_hal_flash.o ABSOLUTE
    ../Drivers/STM32H7xx_HAL_Driver/Src/stm32h7xx_hal_flash_ex.c 0x00000000   Number         0  stm32h7xx_hal_flash_ex.o ABSOLUTE
    ../Drivers/STM32H7xx_HAL_Driver/Src/stm32h7xx_hal_gpio.c 0x00000000   Number         0  stm32h7xx_hal_gpio.o ABSOLUTE
    ../Drivers/STM32H7xx_HAL_Driver/Src/stm32h7xx_hal_hsem.c 0x00000000   Number         0  stm32h7xx_hal_hsem.o ABSOLUTE
    ../Drivers/STM32H7xx_HAL_Driver/Src/stm32h7xx_hal_i2c.c 0x00000000   Number         0  stm32h7xx_hal_i2c.o ABSOLUTE
    ../Drivers/STM32H7xx_HAL_Driver/Src/stm32h7xx_hal_i2c_ex.c 0x00000000   Number         0  stm32h7xx_hal_i2c_ex.o ABSOLUTE
    ../Drivers/STM32H7xx_HAL_Driver/Src/stm32h7xx_hal_mdma.c 0x00000000   Number         0  stm32h7xx_hal_mdma.o ABSOLUTE
    ../Drivers/STM32H7xx_HAL_Driver/Src/stm32h7xx_hal_pwr.c 0x00000000   Number         0  stm32h7xx_hal_pwr.o ABSOLUTE
    ../Drivers/STM32H7xx_HAL_Driver/Src/stm32h7xx_hal_pwr_ex.c 0x00000000   Number         0  stm32h7xx_hal_pwr_ex.o ABSOLUTE
    ../Drivers/STM32H7xx_HAL_Driver/Src/stm32h7xx_hal_rcc.c 0x00000000   Number         0  stm32h7xx_hal_rcc.o ABSOLUTE
    ../Drivers/STM32H7xx_HAL_Driver/Src/stm32h7xx_hal_rcc_ex.c 0x00000000   Number         0  stm32h7xx_hal_rcc_ex.o ABSOLUTE
    ../Drivers/STM32H7xx_HAL_Driver/Src/stm32h7xx_hal_tim.c 0x00000000   Number         0  stm32h7xx_hal_tim.o ABSOLUTE
    ../Drivers/STM32H7xx_HAL_Driver/Src/stm32h7xx_hal_tim_ex.c 0x00000000   Number         0  stm32h7xx_hal_tim_ex.o ABSOLUTE
    ../Drivers/STM32H7xx_HAL_Driver/Src/stm32h7xx_hal_uart.c 0x00000000   Number         0  stm32h7xx_hal_uart.o ABSOLUTE
    ../Drivers/STM32H7xx_HAL_Driver/Src/stm32h7xx_hal_uart_ex.c 0x00000000   Number         0  stm32h7xx_hal_uart_ex.o ABSOLUTE
    ../LWIP/App/lwip.c                       0x00000000   Number         0  lwip.o ABSOLUTE
    ../LWIP/Target/ethernetif.c              0x00000000   Number         0  ethernetif.o ABSOLUTE
    ../Middlewares/Third_Party/LwIP/src/api/api_lib.c 0x00000000   Number         0  api_lib.o ABSOLUTE
    ../Middlewares/Third_Party/LwIP/src/api/api_msg.c 0x00000000   Number         0  api_msg.o ABSOLUTE
    ../Middlewares/Third_Party/LwIP/src/api/err.c 0x00000000   Number         0  err.o ABSOLUTE
    ../Middlewares/Third_Party/LwIP/src/api/if_api.c 0x00000000   Number         0  if_api.o ABSOLUTE
    ../Middlewares/Third_Party/LwIP/src/api/netbuf.c 0x00000000   Number         0  netbuf.o ABSOLUTE
    ../Middlewares/Third_Party/LwIP/src/api/netdb.c 0x00000000   Number         0  netdb.o ABSOLUTE
    ../Middlewares/Third_Party/LwIP/src/api/netifapi.c 0x00000000   Number         0  netifapi.o ABSOLUTE
    ../Middlewares/Third_Party/LwIP/src/api/sockets.c 0x00000000   Number         0  sockets.o ABSOLUTE
    ../Middlewares/Third_Party/LwIP/src/api/tcpip.c 0x00000000   Number         0  tcpip.o ABSOLUTE
    ../Middlewares/Third_Party/LwIP/src/apps/mqtt/mqtt.c 0x00000000   Number         0  mqtt.o ABSOLUTE
    ../Middlewares/Third_Party/LwIP/src/core/altcp.c 0x00000000   Number         0  altcp.o ABSOLUTE
    ../Middlewares/Third_Party/LwIP/src/core/altcp_alloc.c 0x00000000   Number         0  altcp_alloc.o ABSOLUTE
    ../Middlewares/Third_Party/LwIP/src/core/altcp_tcp.c 0x00000000   Number         0  altcp_tcp.o ABSOLUTE
    ../Middlewares/Third_Party/LwIP/src/core/def.c 0x00000000   Number         0  def.o ABSOLUTE
    ../Middlewares/Third_Party/LwIP/src/core/dns.c 0x00000000   Number         0  dns.o ABSOLUTE
    ../Middlewares/Third_Party/LwIP/src/core/inet_chksum.c 0x00000000   Number         0  inet_chksum.o ABSOLUTE
    ../Middlewares/Third_Party/LwIP/src/core/init.c 0x00000000   Number         0  init.o ABSOLUTE
    ../Middlewares/Third_Party/LwIP/src/core/ip.c 0x00000000   Number         0  ip.o ABSOLUTE
    ../Middlewares/Third_Party/LwIP/src/core/ipv4/autoip.c 0x00000000   Number         0  autoip.o ABSOLUTE
    ../Middlewares/Third_Party/LwIP/src/core/ipv4/dhcp.c 0x00000000   Number         0  dhcp.o ABSOLUTE
    ../Middlewares/Third_Party/LwIP/src/core/ipv4/etharp.c 0x00000000   Number         0  etharp.o ABSOLUTE
    ../Middlewares/Third_Party/LwIP/src/core/ipv4/icmp.c 0x00000000   Number         0  icmp.o ABSOLUTE
    ../Middlewares/Third_Party/LwIP/src/core/ipv4/igmp.c 0x00000000   Number         0  igmp.o ABSOLUTE
    ../Middlewares/Third_Party/LwIP/src/core/ipv4/ip4.c 0x00000000   Number         0  ip4.o ABSOLUTE
    ../Middlewares/Third_Party/LwIP/src/core/ipv4/ip4_addr.c 0x00000000   Number         0  ip4_addr.o ABSOLUTE
    ../Middlewares/Third_Party/LwIP/src/core/ipv4/ip4_frag.c 0x00000000   Number         0  ip4_frag.o ABSOLUTE
    ../Middlewares/Third_Party/LwIP/src/core/ipv6/dhcp6.c 0x00000000   Number         0  dhcp6.o ABSOLUTE
    ../Middlewares/Third_Party/LwIP/src/core/ipv6/ethip6.c 0x00000000   Number         0  ethip6.o ABSOLUTE
    ../Middlewares/Third_Party/LwIP/src/core/ipv6/icmp6.c 0x00000000   Number         0  icmp6.o ABSOLUTE
    ../Middlewares/Third_Party/LwIP/src/core/ipv6/inet6.c 0x00000000   Number         0  inet6.o ABSOLUTE
    ../Middlewares/Third_Party/LwIP/src/core/ipv6/ip6.c 0x00000000   Number         0  ip6.o ABSOLUTE
    ../Middlewares/Third_Party/LwIP/src/core/ipv6/ip6_addr.c 0x00000000   Number         0  ip6_addr.o ABSOLUTE
    ../Middlewares/Third_Party/LwIP/src/core/ipv6/ip6_frag.c 0x00000000   Number         0  ip6_frag.o ABSOLUTE
    ../Middlewares/Third_Party/LwIP/src/core/ipv6/mld6.c 0x00000000   Number         0  mld6.o ABSOLUTE
    ../Middlewares/Third_Party/LwIP/src/core/ipv6/nd6.c 0x00000000   Number         0  nd6.o ABSOLUTE
    ../Middlewares/Third_Party/LwIP/src/core/mem.c 0x00000000   Number         0  mem.o ABSOLUTE
    ../Middlewares/Third_Party/LwIP/src/core/memp.c 0x00000000   Number         0  memp.o ABSOLUTE
    ../Middlewares/Third_Party/LwIP/src/core/netif.c 0x00000000   Number         0  netif.o ABSOLUTE
    ../Middlewares/Third_Party/LwIP/src/core/pbuf.c 0x00000000   Number         0  pbuf.o ABSOLUTE
    ../Middlewares/Third_Party/LwIP/src/core/raw.c 0x00000000   Number         0  raw.o ABSOLUTE
    ../Middlewares/Third_Party/LwIP/src/core/stats.c 0x00000000   Number         0  stats.o ABSOLUTE
    ../Middlewares/Third_Party/LwIP/src/core/sys.c 0x00000000   Number         0  sys_1.o ABSOLUTE
    ../Middlewares/Third_Party/LwIP/src/core/tcp.c 0x00000000   Number         0  tcp.o ABSOLUTE
    ../Middlewares/Third_Party/LwIP/src/core/tcp_in.c 0x00000000   Number         0  tcp_in.o ABSOLUTE
    ../Middlewares/Third_Party/LwIP/src/core/tcp_out.c 0x00000000   Number         0  tcp_out.o ABSOLUTE
    ../Middlewares/Third_Party/LwIP/src/core/timeouts.c 0x00000000   Number         0  timeouts.o ABSOLUTE
    ../Middlewares/Third_Party/LwIP/src/core/udp.c 0x00000000   Number         0  udp.o ABSOLUTE
    ../Middlewares/Third_Party/LwIP/src/netif/bridgeif.c 0x00000000   Number         0  bridgeif.o ABSOLUTE
    ../Middlewares/Third_Party/LwIP/src/netif/bridgeif_fdb.c 0x00000000   Number         0  bridgeif_fdb.o ABSOLUTE
    ../Middlewares/Third_Party/LwIP/src/netif/ethernet.c 0x00000000   Number         0  ethernet.o ABSOLUTE
    ../Middlewares/Third_Party/LwIP/src/netif/lowpan6.c 0x00000000   Number         0  lowpan6.o ABSOLUTE
    ../Middlewares/Third_Party/LwIP/src/netif/lowpan6_ble.c 0x00000000   Number         0  lowpan6_ble.o ABSOLUTE
    ../Middlewares/Third_Party/LwIP/src/netif/lowpan6_common.c 0x00000000   Number         0  lowpan6_common.o ABSOLUTE
    ../Middlewares/Third_Party/LwIP/src/netif/ppp/auth.c 0x00000000   Number         0  auth.o ABSOLUTE
    ../Middlewares/Third_Party/LwIP/src/netif/ppp/ccp.c 0x00000000   Number         0  ccp.o ABSOLUTE
    ../Middlewares/Third_Party/LwIP/src/netif/ppp/chap-md5.c 0x00000000   Number         0  chap-md5.o ABSOLUTE
    ../Middlewares/Third_Party/LwIP/src/netif/ppp/chap-new.c 0x00000000   Number         0  chap-new.o ABSOLUTE
    ../Middlewares/Third_Party/LwIP/src/netif/ppp/chap_ms.c 0x00000000   Number         0  chap_ms.o ABSOLUTE
    ../Middlewares/Third_Party/LwIP/src/netif/ppp/demand.c 0x00000000   Number         0  demand.o ABSOLUTE
    ../Middlewares/Third_Party/LwIP/src/netif/ppp/eap.c 0x00000000   Number         0  eap.o ABSOLUTE
    ../Middlewares/Third_Party/LwIP/src/netif/ppp/ecp.c 0x00000000   Number         0  ecp.o ABSOLUTE
    ../Middlewares/Third_Party/LwIP/src/netif/ppp/eui64.c 0x00000000   Number         0  eui64.o ABSOLUTE
    ../Middlewares/Third_Party/LwIP/src/netif/ppp/fsm.c 0x00000000   Number         0  fsm.o ABSOLUTE
    ../Middlewares/Third_Party/LwIP/src/netif/ppp/ipcp.c 0x00000000   Number         0  ipcp.o ABSOLUTE
    ../Middlewares/Third_Party/LwIP/src/netif/ppp/ipv6cp.c 0x00000000   Number         0  ipv6cp.o ABSOLUTE
    ../Middlewares/Third_Party/LwIP/src/netif/ppp/lcp.c 0x00000000   Number         0  lcp.o ABSOLUTE
    ../Middlewares/Third_Party/LwIP/src/netif/ppp/magic.c 0x00000000   Number         0  magic.o ABSOLUTE
    ../Middlewares/Third_Party/LwIP/src/netif/ppp/mppe.c 0x00000000   Number         0  mppe.o ABSOLUTE
    ../Middlewares/Third_Party/LwIP/src/netif/ppp/multilink.c 0x00000000   Number         0  multilink.o ABSOLUTE
    ../Middlewares/Third_Party/LwIP/src/netif/ppp/ppp.c 0x00000000   Number         0  ppp.o ABSOLUTE
    ../Middlewares/Third_Party/LwIP/src/netif/ppp/pppapi.c 0x00000000   Number         0  pppapi.o ABSOLUTE
    ../Middlewares/Third_Party/LwIP/src/netif/ppp/pppcrypt.c 0x00000000   Number         0  pppcrypt.o ABSOLUTE
    ../Middlewares/Third_Party/LwIP/src/netif/ppp/pppoe.c 0x00000000   Number         0  pppoe.o ABSOLUTE
    ../Middlewares/Third_Party/LwIP/src/netif/ppp/pppol2tp.c 0x00000000   Number         0  pppol2tp.o ABSOLUTE
    ../Middlewares/Third_Party/LwIP/src/netif/ppp/pppos.c 0x00000000   Number         0  pppos.o ABSOLUTE
    ../Middlewares/Third_Party/LwIP/src/netif/ppp/upap.c 0x00000000   Number         0  upap.o ABSOLUTE
    ../Middlewares/Third_Party/LwIP/src/netif/ppp/utils.c 0x00000000   Number         0  utils.o ABSOLUTE
    ../Middlewares/Third_Party/LwIP/src/netif/ppp/vj.c 0x00000000   Number         0  vj.o ABSOLUTE
    ../Middlewares/Third_Party/LwIP/src/netif/slipif.c 0x00000000   Number         0  slipif.o ABSOLUTE
    ../Middlewares/Third_Party/LwIP/src/netif/zepif.c 0x00000000   Number         0  zepif.o ABSOLUTE
    ../clib/../cmprslib/zerorunl2.c          0x00000000   Number         0  __dczerorl2.o ABSOLUTE
    ../clib/microlib/ctype/ctype.c           0x00000000   Number         0  isdigit_o.o ABSOLUTE
    ../clib/microlib/ctype/ctype.c           0x00000000   Number         0  isgraph_o.o ABSOLUTE
    ../clib/microlib/ctype/ctype.c           0x00000000   Number         0  islower_o.o ABSOLUTE
    ../clib/microlib/ctype/ctype.c           0x00000000   Number         0  ispunct_o.o ABSOLUTE
    ../clib/microlib/ctype/ctype.c           0x00000000   Number         0  isspace_o.o ABSOLUTE
    ../clib/microlib/ctype/ctype.c           0x00000000   Number         0  isupper_o.o ABSOLUTE
    ../clib/microlib/ctype/ctype.c           0x00000000   Number         0  isxdigit_o.o ABSOLUTE
    ../clib/microlib/ctype/ctype.c           0x00000000   Number         0  ctype_o.o ABSOLUTE
    ../clib/microlib/ctype/ctype.c           0x00000000   Number         0  isprint_o.o ABSOLUTE
    ../clib/microlib/ctype/ctype.c           0x00000000   Number         0  isalnum_o.o ABSOLUTE
    ../clib/microlib/ctype/ctype.c           0x00000000   Number         0  isalpha_o.o ABSOLUTE
    ../clib/microlib/ctype/ctype.c           0x00000000   Number         0  isblank_o.o ABSOLUTE
    ../clib/microlib/ctype/ctype.c           0x00000000   Number         0  iscntrl_o.o ABSOLUTE
    ../clib/microlib/division.c              0x00000000   Number         0  uldiv.o ABSOLUTE
    ../clib/microlib/division.c              0x00000000   Number         0  uidiv.o ABSOLUTE
    ../clib/microlib/errno.c                 0x00000000   Number         0  errno.o ABSOLUTE
    ../clib/microlib/init/entry.s            0x00000000   Number         0  entry9b.o ABSOLUTE
    ../clib/microlib/init/entry.s            0x00000000   Number         0  entry9a.o ABSOLUTE
    ../clib/microlib/init/entry.s            0x00000000   Number         0  entry8b.o ABSOLUTE
    ../clib/microlib/init/entry.s            0x00000000   Number         0  entry5.o ABSOLUTE
    ../clib/microlib/init/entry.s            0x00000000   Number         0  entry7a.o ABSOLUTE
    ../clib/microlib/init/entry.s            0x00000000   Number         0  entry2.o ABSOLUTE
    ../clib/microlib/init/entry.s            0x00000000   Number         0  entry7b.o ABSOLUTE
    ../clib/microlib/init/entry.s            0x00000000   Number         0  entry8a.o ABSOLUTE
    ../clib/microlib/init/entry.s            0x00000000   Number         0  entry.o ABSOLUTE
    ../clib/microlib/init/entry.s            0x00000000   Number         0  entry10b.o ABSOLUTE
    ../clib/microlib/init/entry.s            0x00000000   Number         0  entry11a.o ABSOLUTE
    ../clib/microlib/init/entry.s            0x00000000   Number         0  entry11b.o ABSOLUTE
    ../clib/microlib/init/entry.s            0x00000000   Number         0  entry12a.o ABSOLUTE
    ../clib/microlib/init/entry.s            0x00000000   Number         0  entry10a.o ABSOLUTE
    ../clib/microlib/init/entry.s            0x00000000   Number         0  entry12b.o ABSOLUTE
    ../clib/microlib/longlong.c              0x00000000   Number         0  llushr.o ABSOLUTE
    ../clib/microlib/longlong.c              0x00000000   Number         0  llshl.o ABSOLUTE
    ../clib/microlib/longlong.c              0x00000000   Number         0  llsshr.o ABSOLUTE
    ../clib/microlib/printf/printf.c         0x00000000   Number         0  printf1.o ABSOLUTE
    ../clib/microlib/printf/printf.c         0x00000000   Number         0  printf0.o ABSOLUTE
    ../clib/microlib/printf/printf.c         0x00000000   Number         0  printfa.o ABSOLUTE
    ../clib/microlib/printf/printf.c         0x00000000   Number         0  printf2.o ABSOLUTE
    ../clib/microlib/printf/printf.c         0x00000000   Number         0  printf6.o ABSOLUTE
    ../clib/microlib/printf/printf.c         0x00000000   Number         0  printf8.o ABSOLUTE
    ../clib/microlib/printf/printf.c         0x00000000   Number         0  printf7.o ABSOLUTE
    ../clib/microlib/printf/printf.c         0x00000000   Number         0  printf4.o ABSOLUTE
    ../clib/microlib/printf/printf.c         0x00000000   Number         0  printf3.o ABSOLUTE
    ../clib/microlib/printf/printf.c         0x00000000   Number         0  printf5.o ABSOLUTE
    ../clib/microlib/printf/printf.c         0x00000000   Number         0  printfb.o ABSOLUTE
    ../clib/microlib/printf/stubs.s          0x00000000   Number         0  stubs.o ABSOLUTE
    ../clib/microlib/stdio/streams.c         0x00000000   Number         0  stdout.o ABSOLUTE
    ../clib/microlib/stdlib/rand.c           0x00000000   Number         0  rand.o ABSOLUTE
    ../clib/microlib/string/memcmp.c         0x00000000   Number         0  memcmp.o ABSOLUTE
    ../clib/microlib/string/memcpy.c         0x00000000   Number         0  memcpyb.o ABSOLUTE
    ../clib/microlib/string/memcpy.c         0x00000000   Number         0  memmoveb.o ABSOLUTE
    ../clib/microlib/string/memcpy.c         0x00000000   Number         0  memmovea.o ABSOLUTE
    ../clib/microlib/string/memcpy.c         0x00000000   Number         0  memcpya.o ABSOLUTE
    ../clib/microlib/string/memset.c         0x00000000   Number         0  memseta.o ABSOLUTE
    ../clib/microlib/string/strlen.c         0x00000000   Number         0  strlen.o ABSOLUTE
    ../clib/microlib/string/strncmp.c        0x00000000   Number         0  strncmp.o ABSOLUTE
    ../clib/microlib/stubs.s                 0x00000000   Number         0  iusefp.o ABSOLUTE
    ../clib/scanf.c                          0x00000000   Number         0  strtol.o ABSOLUTE
    ../clib/scanf.c                          0x00000000   Number         0  atoi.o ABSOLUTE
    ../clib/scanf.c                          0x00000000   Number         0  _strtoul.o ABSOLUTE
    ../clib/scanf.c                          0x00000000   Number         0  _chval.o ABSOLUTE
    ../fplib/microlib/fpadd.c                0x00000000   Number         0  dadd.o ABSOLUTE
    ../fplib/microlib/fpdiv.c                0x00000000   Number         0  ddiv.o ABSOLUTE
    ../fplib/microlib/fpepilogue.c           0x00000000   Number         0  depilogue.o ABSOLUTE
    ../fplib/microlib/fpfix.c                0x00000000   Number         0  dfixul.o ABSOLUTE
    ../fplib/microlib/fpmul.c                0x00000000   Number         0  dmul.o ABSOLUTE
    ..\Core\Src\gpio.c                       0x00000000   Number         0  gpio.o ABSOLUTE
    ..\Core\Src\main.c                       0x00000000   Number         0  main.o ABSOLUTE
    ..\Core\Src\stm32h7xx_hal_msp.c          0x00000000   Number         0  stm32h7xx_hal_msp.o ABSOLUTE
    ..\Core\Src\stm32h7xx_it.c               0x00000000   Number         0  stm32h7xx_it.o ABSOLUTE
    ..\Core\Src\system_stm32h7xx.c           0x00000000   Number         0  system_stm32h7xx.o ABSOLUTE
    ..\Core\Src\usart.c                      0x00000000   Number         0  usart.o ABSOLUTE
    ..\Drivers\STM32H7xx_HAL_Driver\Src\stm32h7xx_hal.c 0x00000000   Number         0  stm32h7xx_hal.o ABSOLUTE
    ..\Drivers\STM32H7xx_HAL_Driver\Src\stm32h7xx_hal_cortex.c 0x00000000   Number         0  stm32h7xx_hal_cortex.o ABSOLUTE
    ..\Drivers\STM32H7xx_HAL_Driver\Src\stm32h7xx_hal_dma.c 0x00000000   Number         0  stm32h7xx_hal_dma.o ABSOLUTE
    ..\Drivers\STM32H7xx_HAL_Driver\Src\stm32h7xx_hal_dma_ex.c 0x00000000   Number         0  stm32h7xx_hal_dma_ex.o ABSOLUTE
    ..\Drivers\STM32H7xx_HAL_Driver\Src\stm32h7xx_hal_eth.c 0x00000000   Number         0  stm32h7xx_hal_eth.o ABSOLUTE
    ..\Drivers\STM32H7xx_HAL_Driver\Src\stm32h7xx_hal_eth_ex.c 0x00000000   Number         0  stm32h7xx_hal_eth_ex.o ABSOLUTE
    ..\Drivers\STM32H7xx_HAL_Driver\Src\stm32h7xx_hal_exti.c 0x00000000   Number         0  stm32h7xx_hal_exti.o ABSOLUTE
    ..\Drivers\STM32H7xx_HAL_Driver\Src\stm32h7xx_hal_flash.c 0x00000000   Number         0  stm32h7xx_hal_flash.o ABSOLUTE
    ..\Drivers\STM32H7xx_HAL_Driver\Src\stm32h7xx_hal_flash_ex.c 0x00000000   Number         0  stm32h7xx_hal_flash_ex.o ABSOLUTE
    ..\Drivers\STM32H7xx_HAL_Driver\Src\stm32h7xx_hal_gpio.c 0x00000000   Number         0  stm32h7xx_hal_gpio.o ABSOLUTE
    ..\Drivers\STM32H7xx_HAL_Driver\Src\stm32h7xx_hal_hsem.c 0x00000000   Number         0  stm32h7xx_hal_hsem.o ABSOLUTE
    ..\Drivers\STM32H7xx_HAL_Driver\Src\stm32h7xx_hal_i2c.c 0x00000000   Number         0  stm32h7xx_hal_i2c.o ABSOLUTE
    ..\Drivers\STM32H7xx_HAL_Driver\Src\stm32h7xx_hal_i2c_ex.c 0x00000000   Number         0  stm32h7xx_hal_i2c_ex.o ABSOLUTE
    ..\Drivers\STM32H7xx_HAL_Driver\Src\stm32h7xx_hal_mdma.c 0x00000000   Number         0  stm32h7xx_hal_mdma.o ABSOLUTE
    ..\Drivers\STM32H7xx_HAL_Driver\Src\stm32h7xx_hal_pwr.c 0x00000000   Number         0  stm32h7xx_hal_pwr.o ABSOLUTE
    ..\Drivers\STM32H7xx_HAL_Driver\Src\stm32h7xx_hal_pwr_ex.c 0x00000000   Number         0  stm32h7xx_hal_pwr_ex.o ABSOLUTE
    ..\Drivers\STM32H7xx_HAL_Driver\Src\stm32h7xx_hal_rcc.c 0x00000000   Number         0  stm32h7xx_hal_rcc.o ABSOLUTE
    ..\Drivers\STM32H7xx_HAL_Driver\Src\stm32h7xx_hal_rcc_ex.c 0x00000000   Number         0  stm32h7xx_hal_rcc_ex.o ABSOLUTE
    ..\Drivers\STM32H7xx_HAL_Driver\Src\stm32h7xx_hal_tim.c 0x00000000   Number         0  stm32h7xx_hal_tim.o ABSOLUTE
    ..\Drivers\STM32H7xx_HAL_Driver\Src\stm32h7xx_hal_tim_ex.c 0x00000000   Number         0  stm32h7xx_hal_tim_ex.o ABSOLUTE
    ..\Drivers\STM32H7xx_HAL_Driver\Src\stm32h7xx_hal_uart.c 0x00000000   Number         0  stm32h7xx_hal_uart.o ABSOLUTE
    ..\Drivers\STM32H7xx_HAL_Driver\Src\stm32h7xx_hal_uart_ex.c 0x00000000   Number         0  stm32h7xx_hal_uart_ex.o ABSOLUTE
    ..\LWIP\App\TCPIP\fifoMem.c              0x00000000   Number         0  fifomem.o ABSOLUTE
    ..\LWIP\App\TCPIP\lwip_udp.c             0x00000000   Number         0  lwip_udp.o ABSOLUTE
    ..\LWIP\App\TCPIP\task_module.c          0x00000000   Number         0  task_module.o ABSOLUTE
    ..\LWIP\App\TCPIP\tcp_client.c           0x00000000   Number         0  tcp_client.o ABSOLUTE
    ..\LWIP\App\TCPIP\tcp_server.c           0x00000000   Number         0  tcp_server.o ABSOLUTE
    ..\LWIP\App\lwip.c                       0x00000000   Number         0  lwip.o ABSOLUTE
    ..\LWIP\Target\ethernetif.c              0x00000000   Number         0  ethernetif.o ABSOLUTE
    ..\Middlewares\Third_Party\LwIP\src\api\api_lib.c 0x00000000   Number         0  api_lib.o ABSOLUTE
    ..\Middlewares\Third_Party\LwIP\src\api\api_msg.c 0x00000000   Number         0  api_msg.o ABSOLUTE
    ..\Middlewares\Third_Party\LwIP\src\api\err.c 0x00000000   Number         0  err.o ABSOLUTE
    ..\Middlewares\Third_Party\LwIP\src\api\if_api.c 0x00000000   Number         0  if_api.o ABSOLUTE
    ..\Middlewares\Third_Party\LwIP\src\api\netbuf.c 0x00000000   Number         0  netbuf.o ABSOLUTE
    ..\Middlewares\Third_Party\LwIP\src\api\netdb.c 0x00000000   Number         0  netdb.o ABSOLUTE
    ..\Middlewares\Third_Party\LwIP\src\api\netifapi.c 0x00000000   Number         0  netifapi.o ABSOLUTE
    ..\Middlewares\Third_Party\LwIP\src\api\sockets.c 0x00000000   Number         0  sockets.o ABSOLUTE
    ..\Middlewares\Third_Party\LwIP\src\api\tcpip.c 0x00000000   Number         0  tcpip.o ABSOLUTE
    ..\Middlewares\Third_Party\LwIP\src\apps\mqtt\mqtt.c 0x00000000   Number         0  mqtt.o ABSOLUTE
    ..\Middlewares\Third_Party\LwIP\src\core\altcp.c 0x00000000   Number         0  altcp.o ABSOLUTE
    ..\Middlewares\Third_Party\LwIP\src\core\altcp_alloc.c 0x00000000   Number         0  altcp_alloc.o ABSOLUTE
    ..\Middlewares\Third_Party\LwIP\src\core\altcp_tcp.c 0x00000000   Number         0  altcp_tcp.o ABSOLUTE
    ..\Middlewares\Third_Party\LwIP\src\core\def.c 0x00000000   Number         0  def.o ABSOLUTE
    ..\Middlewares\Third_Party\LwIP\src\core\dns.c 0x00000000   Number         0  dns.o ABSOLUTE
    ..\Middlewares\Third_Party\LwIP\src\core\inet_chksum.c 0x00000000   Number         0  inet_chksum.o ABSOLUTE
    ..\Middlewares\Third_Party\LwIP\src\core\init.c 0x00000000   Number         0  init.o ABSOLUTE
    ..\Middlewares\Third_Party\LwIP\src\core\ip.c 0x00000000   Number         0  ip.o ABSOLUTE
    ..\Middlewares\Third_Party\LwIP\src\core\ipv4\autoip.c 0x00000000   Number         0  autoip.o ABSOLUTE
    ..\Middlewares\Third_Party\LwIP\src\core\ipv4\dhcp.c 0x00000000   Number         0  dhcp.o ABSOLUTE
    ..\Middlewares\Third_Party\LwIP\src\core\ipv4\etharp.c 0x00000000   Number         0  etharp.o ABSOLUTE
    ..\Middlewares\Third_Party\LwIP\src\core\ipv4\icmp.c 0x00000000   Number         0  icmp.o ABSOLUTE
    ..\Middlewares\Third_Party\LwIP\src\core\ipv4\igmp.c 0x00000000   Number         0  igmp.o ABSOLUTE
    ..\Middlewares\Third_Party\LwIP\src\core\ipv4\ip4.c 0x00000000   Number         0  ip4.o ABSOLUTE
    ..\Middlewares\Third_Party\LwIP\src\core\ipv4\ip4_addr.c 0x00000000   Number         0  ip4_addr.o ABSOLUTE
    ..\Middlewares\Third_Party\LwIP\src\core\ipv4\ip4_frag.c 0x00000000   Number         0  ip4_frag.o ABSOLUTE
    ..\Middlewares\Third_Party\LwIP\src\core\ipv6\dhcp6.c 0x00000000   Number         0  dhcp6.o ABSOLUTE
    ..\Middlewares\Third_Party\LwIP\src\core\ipv6\ethip6.c 0x00000000   Number         0  ethip6.o ABSOLUTE
    ..\Middlewares\Third_Party\LwIP\src\core\ipv6\icmp6.c 0x00000000   Number         0  icmp6.o ABSOLUTE
    ..\Middlewares\Third_Party\LwIP\src\core\ipv6\inet6.c 0x00000000   Number         0  inet6.o ABSOLUTE
    ..\Middlewares\Third_Party\LwIP\src\core\ipv6\ip6.c 0x00000000   Number         0  ip6.o ABSOLUTE
    ..\Middlewares\Third_Party\LwIP\src\core\ipv6\ip6_addr.c 0x00000000   Number         0  ip6_addr.o ABSOLUTE
    ..\Middlewares\Third_Party\LwIP\src\core\ipv6\ip6_frag.c 0x00000000   Number         0  ip6_frag.o ABSOLUTE
    ..\Middlewares\Third_Party\LwIP\src\core\ipv6\mld6.c 0x00000000   Number         0  mld6.o ABSOLUTE
    ..\Middlewares\Third_Party\LwIP\src\core\ipv6\nd6.c 0x00000000   Number         0  nd6.o ABSOLUTE
    ..\Middlewares\Third_Party\LwIP\src\core\mem.c 0x00000000   Number         0  mem.o ABSOLUTE
    ..\Middlewares\Third_Party\LwIP\src\core\memp.c 0x00000000   Number         0  memp.o ABSOLUTE
    ..\Middlewares\Third_Party\LwIP\src\core\netif.c 0x00000000   Number         0  netif.o ABSOLUTE
    ..\Middlewares\Third_Party\LwIP\src\core\pbuf.c 0x00000000   Number         0  pbuf.o ABSOLUTE
    ..\Middlewares\Third_Party\LwIP\src\core\raw.c 0x00000000   Number         0  raw.o ABSOLUTE
    ..\Middlewares\Third_Party\LwIP\src\core\stats.c 0x00000000   Number         0  stats.o ABSOLUTE
    ..\Middlewares\Third_Party\LwIP\src\core\sys.c 0x00000000   Number         0  sys_1.o ABSOLUTE
    ..\Middlewares\Third_Party\LwIP\src\core\tcp.c 0x00000000   Number         0  tcp.o ABSOLUTE
    ..\Middlewares\Third_Party\LwIP\src\core\tcp_in.c 0x00000000   Number         0  tcp_in.o ABSOLUTE
    ..\Middlewares\Third_Party\LwIP\src\core\tcp_out.c 0x00000000   Number         0  tcp_out.o ABSOLUTE
    ..\Middlewares\Third_Party\LwIP\src\core\timeouts.c 0x00000000   Number         0  timeouts.o ABSOLUTE
    ..\Middlewares\Third_Party\LwIP\src\core\udp.c 0x00000000   Number         0  udp.o ABSOLUTE
    ..\Middlewares\Third_Party\LwIP\src\netif\bridgeif.c 0x00000000   Number         0  bridgeif.o ABSOLUTE
    ..\Middlewares\Third_Party\LwIP\src\netif\bridgeif_fdb.c 0x00000000   Number         0  bridgeif_fdb.o ABSOLUTE
    ..\Middlewares\Third_Party\LwIP\src\netif\ethernet.c 0x00000000   Number         0  ethernet.o ABSOLUTE
    ..\Middlewares\Third_Party\LwIP\src\netif\lowpan6.c 0x00000000   Number         0  lowpan6.o ABSOLUTE
    ..\Middlewares\Third_Party\LwIP\src\netif\lowpan6_ble.c 0x00000000   Number         0  lowpan6_ble.o ABSOLUTE
    ..\Middlewares\Third_Party\LwIP\src\netif\lowpan6_common.c 0x00000000   Number         0  lowpan6_common.o ABSOLUTE
    ..\Middlewares\Third_Party\LwIP\src\netif\ppp\auth.c 0x00000000   Number         0  auth.o ABSOLUTE
    ..\Middlewares\Third_Party\LwIP\src\netif\ppp\ccp.c 0x00000000   Number         0  ccp.o ABSOLUTE
    ..\Middlewares\Third_Party\LwIP\src\netif\ppp\chap-md5.c 0x00000000   Number         0  chap-md5.o ABSOLUTE
    ..\Middlewares\Third_Party\LwIP\src\netif\ppp\chap-new.c 0x00000000   Number         0  chap-new.o ABSOLUTE
    ..\Middlewares\Third_Party\LwIP\src\netif\ppp\chap_ms.c 0x00000000   Number         0  chap_ms.o ABSOLUTE
    ..\Middlewares\Third_Party\LwIP\src\netif\ppp\demand.c 0x00000000   Number         0  demand.o ABSOLUTE
    ..\Middlewares\Third_Party\LwIP\src\netif\ppp\eap.c 0x00000000   Number         0  eap.o ABSOLUTE
    ..\Middlewares\Third_Party\LwIP\src\netif\ppp\ecp.c 0x00000000   Number         0  ecp.o ABSOLUTE
    ..\Middlewares\Third_Party\LwIP\src\netif\ppp\eui64.c 0x00000000   Number         0  eui64.o ABSOLUTE
    ..\Middlewares\Third_Party\LwIP\src\netif\ppp\fsm.c 0x00000000   Number         0  fsm.o ABSOLUTE
    ..\Middlewares\Third_Party\LwIP\src\netif\ppp\ipcp.c 0x00000000   Number         0  ipcp.o ABSOLUTE
    ..\Middlewares\Third_Party\LwIP\src\netif\ppp\ipv6cp.c 0x00000000   Number         0  ipv6cp.o ABSOLUTE
    ..\Middlewares\Third_Party\LwIP\src\netif\ppp\lcp.c 0x00000000   Number         0  lcp.o ABSOLUTE
    ..\Middlewares\Third_Party\LwIP\src\netif\ppp\magic.c 0x00000000   Number         0  magic.o ABSOLUTE
    ..\Middlewares\Third_Party\LwIP\src\netif\ppp\mppe.c 0x00000000   Number         0  mppe.o ABSOLUTE
    ..\Middlewares\Third_Party\LwIP\src\netif\ppp\multilink.c 0x00000000   Number         0  multilink.o ABSOLUTE
    ..\Middlewares\Third_Party\LwIP\src\netif\ppp\ppp.c 0x00000000   Number         0  ppp.o ABSOLUTE
    ..\Middlewares\Third_Party\LwIP\src\netif\ppp\pppapi.c 0x00000000   Number         0  pppapi.o ABSOLUTE
    ..\Middlewares\Third_Party\LwIP\src\netif\ppp\pppcrypt.c 0x00000000   Number         0  pppcrypt.o ABSOLUTE
    ..\Middlewares\Third_Party\LwIP\src\netif\ppp\pppoe.c 0x00000000   Number         0  pppoe.o ABSOLUTE
    ..\Middlewares\Third_Party\LwIP\src\netif\ppp\pppol2tp.c 0x00000000   Number         0  pppol2tp.o ABSOLUTE
    ..\Middlewares\Third_Party\LwIP\src\netif\ppp\pppos.c 0x00000000   Number         0  pppos.o ABSOLUTE
    ..\Middlewares\Third_Party\LwIP\src\netif\ppp\upap.c 0x00000000   Number         0  upap.o ABSOLUTE
    ..\Middlewares\Third_Party\LwIP\src\netif\ppp\utils.c 0x00000000   Number         0  utils.o ABSOLUTE
    ..\Middlewares\Third_Party\LwIP\src\netif\ppp\vj.c 0x00000000   Number         0  vj.o ABSOLUTE
    ..\Middlewares\Third_Party\LwIP\src\netif\slipif.c 0x00000000   Number         0  slipif.o ABSOLUTE
    ..\Middlewares\Third_Party\LwIP\src\netif\zepif.c 0x00000000   Number         0  zepif.o ABSOLUTE
    ..\\LWIP\\App\\TCPIP\\fifoMem.c          0x00000000   Number         0  fifomem.o ABSOLUTE
    ..\\LWIP\\App\\TCPIP\\lwip_udp.c         0x00000000   Number         0  lwip_udp.o ABSOLUTE
    ..\\LWIP\\App\\TCPIP\\tcp_client.c       0x00000000   Number         0  tcp_client.o ABSOLUTE
    ..\\LWIP\\App\\TCPIP\\tcp_server.c       0x00000000   Number         0  tcp_server.o ABSOLUTE
    cdrcmple.s                               0x00000000   Number         0  cdrcmple.o ABSOLUTE
    dc.s                                     0x00000000   Number         0  dc.o ABSOLUTE
    handlers.s                               0x00000000   Number         0  handlers.o ABSOLUTE
    init.s                                   0x00000000   Number         0  init.o ABSOLUTE
    startup_stm32h743xx.s                    0x00000000   Number         0  startup_stm32h743xx.o ABSOLUTE
    RESET                                    0x08000000   Section      664  startup_stm32h743xx.o(RESET)
    .ARM.Collect$$$$00000000                 0x08000298   Section        0  entry.o(.ARM.Collect$$$$00000000)
    .ARM.Collect$$$$00000001                 0x08000298   Section        4  entry2.o(.ARM.Collect$$$$00000001)
    .ARM.Collect$$$$00000004                 0x0800029c   Section        4  entry5.o(.ARM.Collect$$$$00000004)
    .ARM.Collect$$$$00000008                 0x080002a0   Section        0  entry7b.o(.ARM.Collect$$$$00000008)
    .ARM.Collect$$$$0000000A                 0x080002a0   Section        0  entry8b.o(.ARM.Collect$$$$0000000A)
    .ARM.Collect$$$$0000000B                 0x080002a0   Section        8  entry9a.o(.ARM.Collect$$$$0000000B)
    .ARM.Collect$$$$0000000E                 0x080002a8   Section        4  entry12b.o(.ARM.Collect$$$$0000000E)
    .ARM.Collect$$$$0000000F                 0x080002ac   Section        0  entry10a.o(.ARM.Collect$$$$0000000F)
    .ARM.Collect$$$$00000011                 0x080002ac   Section        0  entry11a.o(.ARM.Collect$$$$00000011)
    .ARM.Collect$$$$00002712                 0x080002ac   Section        4  entry2.o(.ARM.Collect$$$$00002712)
    __lit__00000000                          0x080002ac   Data           4  entry2.o(.ARM.Collect$$$$00002712)
    .text                                    0x080002b0   Section       36  startup_stm32h743xx.o(.text)
    $v0                                      0x080002b0   Number         0  startup_stm32h743xx.o(.text)
    .text                                    0x080002d4   Section        0  uldiv.o(.text)
    .text                                    0x08000338   Section        0  rand.o(.text)
    .text                                    0x0800035c   Section        0  memmovea.o(.text)
    .text                                    0x0800039c   Section        0  memseta.o(.text)
    .text                                    0x080003c0   Section        0  strlen.o(.text)
    .text                                    0x080003ce   Section        0  memcmp.o(.text)
    .text                                    0x080003e8   Section        0  uidiv.o(.text)
    .text                                    0x08000414   Section        0  llshl.o(.text)
    .text                                    0x08000432   Section        0  llushr.o(.text)
    .text                                    0x08000454   Section       36  init.o(.text)
    .text                                    0x08000478   Section        0  __dczerorl2.o(.text)
    i.BusFault_Handler                       0x080004ce   Section        0  stm32h7xx_it.o(i.BusFault_Handler)
    i.DebugMon_Handler                       0x080004d2   Section        0  stm32h7xx_it.o(i.DebugMon_Handler)
    i.ETH_DMARxDescListInit                  0x080004d4   Section        0  stm32h7xx_hal_eth.o(i.ETH_DMARxDescListInit)
    ETH_DMARxDescListInit                    0x080004d5   Thumb Code    96  stm32h7xx_hal_eth.o(i.ETH_DMARxDescListInit)
    i.ETH_DMATxDescListInit                  0x08000534   Section        0  stm32h7xx_hal_eth.o(i.ETH_DMATxDescListInit)
    ETH_DMATxDescListInit                    0x08000535   Thumb Code    82  stm32h7xx_hal_eth.o(i.ETH_DMATxDescListInit)
    i.ETH_IRQHandler                         0x08000588   Section        0  lwip.o(i.ETH_IRQHandler)
    i.ETH_MACDMAConfig                       0x080005ac   Section        0  stm32h7xx_hal_eth.o(i.ETH_MACDMAConfig)
    ETH_MACDMAConfig                         0x080005ad   Thumb Code   262  stm32h7xx_hal_eth.o(i.ETH_MACDMAConfig)
    i.ETH_PHY_IO_DeInit                      0x080006b2   Section        0  ethernetif.o(i.ETH_PHY_IO_DeInit)
    i.ETH_PHY_IO_GetTick                     0x080006b6   Section        0  ethernetif.o(i.ETH_PHY_IO_GetTick)
    i.ETH_PHY_IO_Init                        0x080006c0   Section        0  ethernetif.o(i.ETH_PHY_IO_Init)
    i.ETH_PHY_IO_ReadReg                     0x080006d0   Section        0  ethernetif.o(i.ETH_PHY_IO_ReadReg)
    i.ETH_PHY_IO_WriteReg                    0x080006f4   Section        0  ethernetif.o(i.ETH_PHY_IO_WriteReg)
    i.ETH_Prepare_Tx_Descriptors             0x08000718   Section        0  stm32h7xx_hal_eth.o(i.ETH_Prepare_Tx_Descriptors)
    ETH_Prepare_Tx_Descriptors               0x08000719   Thumb Code   972  stm32h7xx_hal_eth.o(i.ETH_Prepare_Tx_Descriptors)
    i.ETH_SetDMAConfig                       0x08000ae8   Section        0  stm32h7xx_hal_eth.o(i.ETH_SetDMAConfig)
    ETH_SetDMAConfig                         0x08000ae9   Thumb Code   176  stm32h7xx_hal_eth.o(i.ETH_SetDMAConfig)
    i.ETH_SetMACConfig                       0x08000ba4   Section        0  stm32h7xx_hal_eth.o(i.ETH_SetMACConfig)
    ETH_SetMACConfig                         0x08000ba5   Thumb Code   394  stm32h7xx_hal_eth.o(i.ETH_SetMACConfig)
    i.ETH_UpdateDescriptor                   0x08000d38   Section        0  stm32h7xx_hal_eth.o(i.ETH_UpdateDescriptor)
    ETH_UpdateDescriptor                     0x08000d39   Thumb Code   152  stm32h7xx_hal_eth.o(i.ETH_UpdateDescriptor)
    i.ETH_WKUP_IRQHandler                    0x08000dd0   Section        0  stm32h7xx_it.o(i.ETH_WKUP_IRQHandler)
    i.Error_Handler                          0x08000de0   Section        0  main.o(i.Error_Handler)
    i.Ethernet_Link_Periodic_Handle          0x08000de8   Section        0  lwip.o(i.Ethernet_Link_Periodic_Handle)
    Ethernet_Link_Periodic_Handle            0x08000de9   Thumb Code    34  lwip.o(i.Ethernet_Link_Periodic_Handle)
    i.FIFO_List_Init                         0x08000e10   Section        0  fifomem.o(i.FIFO_List_Init)
    FIFO_List_Init                           0x08000e11   Thumb Code   398  fifomem.o(i.FIFO_List_Init)
    i.HAL_DMA_Abort                          0x08000fa8   Section        0  stm32h7xx_hal_dma.o(i.HAL_DMA_Abort)
    i.HAL_DMA_Abort_IT                       0x08001484   Section        0  stm32h7xx_hal_dma.o(i.HAL_DMA_Abort_IT)
    i.HAL_Delay                              0x0800181c   Section        0  stm32h7xx_hal.o(i.HAL_Delay)
    i.HAL_ETH_EEECallback                    0x08001844   Section        0  stm32h7xx_hal_eth.o(i.HAL_ETH_EEECallback)
    i.HAL_ETH_ErrorCallback                  0x08001846   Section        0  stm32h7xx_hal_eth.o(i.HAL_ETH_ErrorCallback)
    i.HAL_ETH_GetMACConfig                   0x08001848   Section        0  stm32h7xx_hal_eth.o(i.HAL_ETH_GetMACConfig)
    i.HAL_ETH_IRQHandler                     0x08001a20   Section        0  stm32h7xx_hal_eth.o(i.HAL_ETH_IRQHandler)
    i.HAL_ETH_Init                           0x08001be0   Section        0  stm32h7xx_hal_eth.o(i.HAL_ETH_Init)
    i.HAL_ETH_MspInit                        0x08001d48   Section        0  ethernetif.o(i.HAL_ETH_MspInit)
    i.HAL_ETH_PMTCallback                    0x08001f70   Section        0  stm32h7xx_hal_eth.o(i.HAL_ETH_PMTCallback)
    i.HAL_ETH_ReadData                       0x08001f72   Section        0  stm32h7xx_hal_eth.o(i.HAL_ETH_ReadData)
    i.HAL_ETH_ReadPHYRegister                0x08002072   Section        0  stm32h7xx_hal_eth.o(i.HAL_ETH_ReadPHYRegister)
    i.HAL_ETH_RxAllocateCallback             0x080020ec   Section        0  ethernetif.o(i.HAL_ETH_RxAllocateCallback)
    i.HAL_ETH_RxCpltCallback                 0x08002134   Section        0  stm32h7xx_hal_eth.o(i.HAL_ETH_RxCpltCallback)
    i.HAL_ETH_RxLinkCallback                 0x08002138   Section        0  ethernetif.o(i.HAL_ETH_RxLinkCallback)
    i.HAL_ETH_SetMACConfig                   0x080021dc   Section        0  stm32h7xx_hal_eth.o(i.HAL_ETH_SetMACConfig)
    i.HAL_ETH_SetMDIOClockRange              0x08002200   Section        0  stm32h7xx_hal_eth.o(i.HAL_ETH_SetMDIOClockRange)
    i.HAL_ETH_Start_IT                       0x08002278   Section        0  stm32h7xx_hal_eth.o(i.HAL_ETH_Start_IT)
    i.HAL_ETH_Stop                           0x08002358   Section        0  stm32h7xx_hal_eth.o(i.HAL_ETH_Stop)
    i.HAL_ETH_Transmit                       0x080023cc   Section        0  stm32h7xx_hal_eth.o(i.HAL_ETH_Transmit)
    i.HAL_ETH_TxCpltCallback                 0x080024c2   Section        0  stm32h7xx_hal_eth.o(i.HAL_ETH_TxCpltCallback)
    i.HAL_ETH_WakeUpCallback                 0x080024c4   Section        0  stm32h7xx_hal_eth.o(i.HAL_ETH_WakeUpCallback)
    i.HAL_ETH_WritePHYRegister               0x080024c8   Section        0  stm32h7xx_hal_eth.o(i.HAL_ETH_WritePHYRegister)
    i.HAL_GPIO_Init                          0x08002548   Section        0  stm32h7xx_hal_gpio.o(i.HAL_GPIO_Init)
    i.HAL_GPIO_WritePin                      0x08002744   Section        0  stm32h7xx_hal_gpio.o(i.HAL_GPIO_WritePin)
    i.HAL_GetREVID                           0x08002750   Section        0  stm32h7xx_hal.o(i.HAL_GetREVID)
    i.HAL_GetTick                            0x0800275c   Section        0  stm32h7xx_hal.o(i.HAL_GetTick)
    i.HAL_IncTick                            0x08002768   Section        0  stm32h7xx_hal.o(i.HAL_IncTick)
    i.HAL_Init                               0x08002780   Section        0  stm32h7xx_hal.o(i.HAL_Init)
    i.HAL_InitTick                           0x080027e0   Section        0  stm32h7xx_hal.o(i.HAL_InitTick)
    i.HAL_MPU_ConfigRegion                   0x08002838   Section        0  stm32h7xx_hal_cortex.o(i.HAL_MPU_ConfigRegion)
    i.HAL_MPU_Disable                        0x08002894   Section        0  stm32h7xx_hal_cortex.o(i.HAL_MPU_Disable)
    i.HAL_MPU_Enable                         0x080028c0   Section        0  stm32h7xx_hal_cortex.o(i.HAL_MPU_Enable)
    i.HAL_MspInit                            0x08002900   Section        0  stm32h7xx_hal_msp.o(i.HAL_MspInit)
    i.HAL_NVIC_EnableIRQ                     0x08002924   Section        0  stm32h7xx_hal_cortex.o(i.HAL_NVIC_EnableIRQ)
    i.HAL_NVIC_SetPriority                   0x0800294c   Section        0  stm32h7xx_hal_cortex.o(i.HAL_NVIC_SetPriority)
    i.HAL_NVIC_SetPriorityGrouping           0x080029c8   Section        0  stm32h7xx_hal_cortex.o(i.HAL_NVIC_SetPriorityGrouping)
    i.HAL_PWREx_ConfigSupply                 0x080029f0   Section        0  stm32h7xx_hal_pwr_ex.o(i.HAL_PWREx_ConfigSupply)
    i.HAL_RCCEx_GetD3PCLK1Freq               0x08002a50   Section        0  stm32h7xx_hal_rcc_ex.o(i.HAL_RCCEx_GetD3PCLK1Freq)
    i.HAL_RCCEx_GetPLL2ClockFreq             0x08002a74   Section        0  stm32h7xx_hal_rcc_ex.o(i.HAL_RCCEx_GetPLL2ClockFreq)
    i.HAL_RCCEx_GetPLL3ClockFreq             0x08002ca4   Section        0  stm32h7xx_hal_rcc_ex.o(i.HAL_RCCEx_GetPLL3ClockFreq)
    i.HAL_RCCEx_PeriphCLKConfig              0x08002ed4   Section        0  stm32h7xx_hal_rcc_ex.o(i.HAL_RCCEx_PeriphCLKConfig)
    i.HAL_RCC_ClockConfig                    0x08003c3c   Section        0  stm32h7xx_hal_rcc.o(i.HAL_RCC_ClockConfig)
    i.HAL_RCC_GetHCLKFreq                    0x08003f5c   Section        0  stm32h7xx_hal_rcc.o(i.HAL_RCC_GetHCLKFreq)
    i.HAL_RCC_GetPCLK1Freq                   0x08003fa8   Section        0  stm32h7xx_hal_rcc.o(i.HAL_RCC_GetPCLK1Freq)
    i.HAL_RCC_GetPCLK2Freq                   0x08003fcc   Section        0  stm32h7xx_hal_rcc.o(i.HAL_RCC_GetPCLK2Freq)
    i.HAL_RCC_GetSysClockFreq                0x08003ff0   Section        0  stm32h7xx_hal_rcc.o(i.HAL_RCC_GetSysClockFreq)
    i.HAL_RCC_OscConfig                      0x0800421c   Section        0  stm32h7xx_hal_rcc.o(i.HAL_RCC_OscConfig)
    i.HAL_SYSCFG_ETHInterfaceSelect          0x08004a74   Section        0  stm32h7xx_hal.o(i.HAL_SYSCFG_ETHInterfaceSelect)
    i.HAL_SYSTICK_Config                     0x08004a88   Section        0  stm32h7xx_hal_cortex.o(i.HAL_SYSTICK_Config)
    i.HAL_UARTEx_DisableFifoMode             0x08004abc   Section        0  stm32h7xx_hal_uart_ex.o(i.HAL_UARTEx_DisableFifoMode)
    i.HAL_UARTEx_RxEventCallback             0x08004b0a   Section        0  stm32h7xx_hal_uart.o(i.HAL_UARTEx_RxEventCallback)
    i.HAL_UARTEx_RxFifoFullCallback          0x08004b0c   Section        0  stm32h7xx_hal_uart_ex.o(i.HAL_UARTEx_RxFifoFullCallback)
    i.HAL_UARTEx_SetRxFifoThreshold          0x08004b0e   Section        0  stm32h7xx_hal_uart_ex.o(i.HAL_UARTEx_SetRxFifoThreshold)
    i.HAL_UARTEx_SetTxFifoThreshold          0x08004b6c   Section        0  stm32h7xx_hal_uart_ex.o(i.HAL_UARTEx_SetTxFifoThreshold)
    i.HAL_UARTEx_TxFifoEmptyCallback         0x08004bca   Section        0  stm32h7xx_hal_uart_ex.o(i.HAL_UARTEx_TxFifoEmptyCallback)
    i.HAL_UARTEx_WakeupCallback              0x08004bcc   Section        0  stm32h7xx_hal_uart_ex.o(i.HAL_UARTEx_WakeupCallback)
    i.HAL_UART_ErrorCallback                 0x08004bce   Section        0  stm32h7xx_hal_uart.o(i.HAL_UART_ErrorCallback)
    i.HAL_UART_IRQHandler                    0x08004bd0   Section        0  stm32h7xx_hal_uart.o(i.HAL_UART_IRQHandler)
    i.HAL_UART_Init                          0x08005064   Section        0  stm32h7xx_hal_uart.o(i.HAL_UART_Init)
    i.HAL_UART_MspInit                       0x080050dc   Section        0  usart.o(i.HAL_UART_MspInit)
    i.HAL_UART_TxCpltCallback                0x080051a0   Section        0  stm32h7xx_hal_uart.o(i.HAL_UART_TxCpltCallback)
    i.HardFault_Handler                      0x080051a2   Section        0  stm32h7xx_it.o(i.HardFault_Handler)
    i.LAN8742_GetLinkState                   0x080051a6   Section        0  lan8742.o(i.LAN8742_GetLinkState)
    i.LAN8742_Init                           0x0800528e   Section        0  lan8742.o(i.LAN8742_Init)
    i.LAN8742_RegisterBusIO                  0x0800538c   Section        0  lan8742.o(i.LAN8742_RegisterBusIO)
    i.MPU_Config                             0x080053bc   Section        0  main.o(i.MPU_Config)
    MPU_Config                               0x080053bd   Thumb Code    90  main.o(i.MPU_Config)
    i.MX_GPIO_Init                           0x0800541c   Section        0  gpio.o(i.MX_GPIO_Init)
    i.MX_LWIP_Init                           0x08005540   Section        0  lwip.o(i.MX_LWIP_Init)
    i.MX_LWIP_Process                        0x08005780   Section        0  lwip.o(i.MX_LWIP_Process)
    i.MX_USART1_UART_Init                    0x08005794   Section        0  usart.o(i.MX_USART1_UART_Init)
    i.MemManage_Handler                      0x08005800   Section        0  stm32h7xx_it.o(i.MemManage_Handler)
    i.NMI_Handler                            0x08005804   Section        0  stm32h7xx_it.o(i.NMI_Handler)
    i.PendSV_Handler                         0x08005808   Section        0  stm32h7xx_it.o(i.PendSV_Handler)
    i.RCCEx_PLL2_Config                      0x0800580c   Section        0  stm32h7xx_hal_rcc_ex.o(i.RCCEx_PLL2_Config)
    RCCEx_PLL2_Config                        0x0800580d   Thumb Code   350  stm32h7xx_hal_rcc_ex.o(i.RCCEx_PLL2_Config)
    i.RCCEx_PLL3_Config                      0x08005970   Section        0  stm32h7xx_hal_rcc_ex.o(i.RCCEx_PLL3_Config)
    RCCEx_PLL3_Config                        0x08005971   Thumb Code   350  stm32h7xx_hal_rcc_ex.o(i.RCCEx_PLL3_Config)
    i.SVC_Handler                            0x08005ad4   Section        0  stm32h7xx_it.o(i.SVC_Handler)
    i.SysTick_Handler                        0x08005ad6   Section        0  stm32h7xx_it.o(i.SysTick_Handler)
    i.SystemClock_Config                     0x08005ae0   Section        0  main.o(i.SystemClock_Config)
    i.SystemInit                             0x08005c1c   Section        0  system_stm32h7xx.o(i.SystemInit)
    i.TCP_Client_Init                        0x08005d18   Section        0  tcp_client.o(i.TCP_Client_Init)
    i.TCP_Client_Task                        0x08005dbc   Section        0  tcp_client.o(i.TCP_Client_Task)
    i.TCP_Server_Init                        0x08005de8   Section        0  tcp_server.o(i.TCP_Server_Init)
    i.UARTEx_SetNbDataToProcess              0x08005e40   Section        0  stm32h7xx_hal_uart_ex.o(i.UARTEx_SetNbDataToProcess)
    UARTEx_SetNbDataToProcess                0x08005e41   Thumb Code    78  stm32h7xx_hal_uart_ex.o(i.UARTEx_SetNbDataToProcess)
    i.UART_AdvFeatureConfig                  0x08005e98   Section        0  stm32h7xx_hal_uart.o(i.UART_AdvFeatureConfig)
    i.UART_CheckIdleState                    0x08005f90   Section        0  stm32h7xx_hal_uart.o(i.UART_CheckIdleState)
    i.UART_DMAAbortOnError                   0x0800607a   Section        0  stm32h7xx_hal_uart.o(i.UART_DMAAbortOnError)
    UART_DMAAbortOnError                     0x0800607b   Thumb Code    24  stm32h7xx_hal_uart.o(i.UART_DMAAbortOnError)
    i.UART_EndRxTransfer                     0x08006094   Section        0  stm32h7xx_hal_uart.o(i.UART_EndRxTransfer)
    UART_EndRxTransfer                       0x08006095   Thumb Code   104  stm32h7xx_hal_uart.o(i.UART_EndRxTransfer)
    i.UART_EndTransmit_IT                    0x08006100   Section        0  stm32h7xx_hal_uart.o(i.UART_EndTransmit_IT)
    UART_EndTransmit_IT                      0x08006101   Thumb Code    48  stm32h7xx_hal_uart.o(i.UART_EndTransmit_IT)
    i.UART_SetConfig                         0x08006130   Section        0  stm32h7xx_hal_uart.o(i.UART_SetConfig)
    i.UART_WaitOnFlagUntilTimeout            0x080066bc   Section        0  stm32h7xx_hal_uart.o(i.UART_WaitOnFlagUntilTimeout)
    i.USART1_IRQHandler                      0x08006760   Section        0  stm32h7xx_it.o(i.USART1_IRQHandler)
    i.Udp_Lwip_Init                          0x08006770   Section        0  lwip_udp.o(i.Udp_Lwip_Init)
    i.UsageFault_Handler                     0x080067d4   Section        0  stm32h7xx_it.o(i.UsageFault_Handler)
    i.__0printf$3                            0x080067d8   Section        0  printf3.o(i.__0printf$3)
    i.__NVIC_GetPriorityGrouping             0x080067f8   Section        0  stm32h7xx_hal_cortex.o(i.__NVIC_GetPriorityGrouping)
    __NVIC_GetPriorityGrouping               0x080067f9   Thumb Code    10  stm32h7xx_hal_cortex.o(i.__NVIC_GetPriorityGrouping)
    i.__NVIC_SetPriority                     0x08006808   Section        0  stm32h7xx_hal_cortex.o(i.__NVIC_SetPriority)
    __NVIC_SetPriority                       0x08006809   Thumb Code    32  stm32h7xx_hal_cortex.o(i.__NVIC_SetPriority)
    i.__scatterload_copy                     0x08006830   Section       14  handlers.o(i.__scatterload_copy)
    i.__scatterload_null                     0x0800683e   Section        2  handlers.o(i.__scatterload_null)
    i.__scatterload_zeroinit                 0x08006840   Section       14  handlers.o(i.__scatterload_zeroinit)
    i._printf_core                           0x08006850   Section        0  printf3.o(i._printf_core)
    _printf_core                             0x08006851   Thumb Code   436  printf3.o(i._printf_core)
    i.clear_data                             0x08006a08   Section        0  fifomem.o(i.clear_data)
    i.client_connected                       0x08006a34   Section        0  tcp_client.o(i.client_connected)
    client_connected                         0x08006a35   Thumb Code    68  tcp_client.o(i.client_connected)
    i.client_polling_cbk                     0x08006aa0   Section        0  tcp_client.o(i.client_polling_cbk)
    client_polling_cbk                       0x08006aa1   Thumb Code    22  tcp_client.o(i.client_polling_cbk)
    i.client_set_remote_ip                   0x08006ab8   Section        0  tcp_client.o(i.client_set_remote_ip)
    i.do_memp_free_pool                      0x08006bd0   Section        0  memp.o(i.do_memp_free_pool)
    do_memp_free_pool                        0x08006bd1   Thumb Code    50  memp.o(i.do_memp_free_pool)
    i.do_memp_malloc_pool                    0x08006c7c   Section        0  memp.o(i.do_memp_malloc_pool)
    do_memp_malloc_pool                      0x08006c7d   Thumb Code    56  memp.o(i.do_memp_malloc_pool)
    i.etharp_cleanup_netif                   0x08006d30   Section        0  etharp.o(i.etharp_cleanup_netif)
    i.etharp_find_entry                      0x08006d68   Section        0  etharp.o(i.etharp_find_entry)
    etharp_find_entry                        0x08006d69   Thumb Code   514  etharp.o(i.etharp_find_entry)
    i.etharp_free_entry                      0x08007068   Section        0  etharp.o(i.etharp_free_entry)
    etharp_free_entry                        0x08007069   Thumb Code    58  etharp.o(i.etharp_free_entry)
    i.etharp_input                           0x080070a8   Section        0  etharp.o(i.etharp_input)
    i.etharp_output                          0x080071e4   Section        0  etharp.o(i.etharp_output)
    i.etharp_output_to_arp_index             0x08007408   Section        0  etharp.o(i.etharp_output_to_arp_index)
    etharp_output_to_arp_index               0x08007409   Thumb Code   212  etharp.o(i.etharp_output_to_arp_index)
    i.etharp_query                           0x08007570   Section        0  etharp.o(i.etharp_query)
    i.etharp_raw                             0x08007814   Section        0  etharp.o(i.etharp_raw)
    etharp_raw                               0x08007815   Thumb Code   226  etharp.o(i.etharp_raw)
    i.etharp_request                         0x080079a0   Section        0  etharp.o(i.etharp_request)
    i.etharp_request_dst                     0x080079b8   Section        0  etharp.o(i.etharp_request_dst)
    etharp_request_dst                       0x080079b9   Thumb Code    38  etharp.o(i.etharp_request_dst)
    i.etharp_tmr                             0x080079e4   Section        0  etharp.o(i.etharp_tmr)
    i.etharp_update_arp_entry                0x08007ac0   Section        0  etharp.o(i.etharp_update_arp_entry)
    etharp_update_arp_entry                  0x08007ac1   Thumb Code   212  etharp.o(i.etharp_update_arp_entry)
    i.ethernet_input                         0x08007c1c   Section        0  ethernet.o(i.ethernet_input)
    i.ethernet_link_check_state              0x08007ce0   Section        0  ethernetif.o(i.ethernet_link_check_state)
    i.ethernet_link_status_updated           0x08007dac   Section        0  lwip.o(i.ethernet_link_status_updated)
    ethernet_link_status_updated             0x08007dad   Thumb Code    30  lwip.o(i.ethernet_link_status_updated)
    i.ethernet_output                        0x08007e0c   Section        0  ethernet.o(i.ethernet_output)
    i.ethernetif_init                        0x08007f10   Section        0  ethernetif.o(i.ethernetif_init)
    i.ethernetif_input                       0x08007fa8   Section        0  ethernetif.o(i.ethernetif_input)
    i.fifo_init                              0x0800800c   Section        0  fifomem.o(i.fifo_init)
    i.fifo_poll                              0x08008020   Section        0  fifomem.o(i.fifo_poll)
    fifo_poll                                0x08008021   Thumb Code    24  fifomem.o(i.fifo_poll)
    i.fifo_rx_handle                         0x0800803c   Section        0  fifomem.o(i.fifo_rx_handle)
    fifo_rx_handle                           0x0800803d   Thumb Code    98  fifomem.o(i.fifo_rx_handle)
    i.fifo_start                             0x080080a4   Section        0  fifomem.o(i.fifo_start)
    fifo_start                               0x080080a5   Thumb Code    16  fifomem.o(i.fifo_start)
    i.fifo_start_handle                      0x080080b4   Section        0  fifomem.o(i.fifo_start_handle)
    fifo_start_handle                        0x080080b5   Thumb Code     2  fifomem.o(i.fifo_start_handle)
    i.fifo_tx_handle                         0x080080b8   Section        0  fifomem.o(i.fifo_tx_handle)
    fifo_tx_handle                           0x080080b9   Thumb Code   172  fifomem.o(i.fifo_tx_handle)
    i.fputc                                  0x0800816c   Section        0  main.o(i.fputc)
    i.icmp_dest_unreach                      0x08008188   Section        0  icmp.o(i.icmp_dest_unreach)
    i.icmp_input                             0x0800819c   Section        0  icmp.o(i.icmp_input)
    i.icmp_send_response                     0x08008440   Section        0  icmp.o(i.icmp_send_response)
    icmp_send_response                       0x08008441   Thumb Code   152  icmp.o(i.icmp_send_response)
    i.icmp_time_exceeded                     0x08008564   Section        0  icmp.o(i.icmp_time_exceeded)
    i.inet_chksum                            0x08008576   Section        0  inet_chksum.o(i.inet_chksum)
    i.inet_chksum_pbuf                       0x0800858a   Section        0  inet_chksum.o(i.inet_chksum_pbuf)
    i.ip4_addr_isbroadcast_u32               0x080085e0   Section        0  ip4_addr.o(i.ip4_addr_isbroadcast_u32)
    i.ip4_frag                               0x08008630   Section        0  ip4_frag.o(i.ip4_frag)
    i.ip4_input                              0x080088fc   Section        0  ip4.o(i.ip4_input)
    i.ip4_input_accept                       0x08008a98   Section        0  ip4.o(i.ip4_input_accept)
    ip4_input_accept                         0x08008a99   Thumb Code    48  ip4.o(i.ip4_input_accept)
    i.ip4_output_if                          0x08008acc   Section        0  ip4.o(i.ip4_output_if)
    i.ip4_output_if_src                      0x08008b04   Section        0  ip4.o(i.ip4_output_if_src)
    i.ip4_reass                              0x08008ca0   Section        0  ip4_frag.o(i.ip4_reass)
    i.ip4_route                              0x08008f9c   Section        0  ip4.o(i.ip4_route)
    i.ip_frag_alloc_pbuf_custom_ref          0x08009030   Section        0  ip4_frag.o(i.ip_frag_alloc_pbuf_custom_ref)
    ip_frag_alloc_pbuf_custom_ref            0x08009031   Thumb Code    10  ip4_frag.o(i.ip_frag_alloc_pbuf_custom_ref)
    i.ip_frag_free_pbuf_custom_ref           0x0800903c   Section        0  ip4_frag.o(i.ip_frag_free_pbuf_custom_ref)
    ip_frag_free_pbuf_custom_ref             0x0800903d   Thumb Code    40  ip4_frag.o(i.ip_frag_free_pbuf_custom_ref)
    i.ip_reass_chain_frag_into_datagram_and_validate 0x080090d4   Section        0  ip4_frag.o(i.ip_reass_chain_frag_into_datagram_and_validate)
    ip_reass_chain_frag_into_datagram_and_validate 0x080090d5   Thumb Code   530  ip4_frag.o(i.ip_reass_chain_frag_into_datagram_and_validate)
    i.ip_reass_dequeue_datagram              0x080093d8   Section        0  ip4_frag.o(i.ip_reass_dequeue_datagram)
    ip_reass_dequeue_datagram                0x080093d9   Thumb Code    62  ip4_frag.o(i.ip_reass_dequeue_datagram)
    i.ip_reass_enqueue_new_datagram          0x0800949c   Section        0  ip4_frag.o(i.ip_reass_enqueue_new_datagram)
    ip_reass_enqueue_new_datagram            0x0800949d   Thumb Code    80  ip4_frag.o(i.ip_reass_enqueue_new_datagram)
    i.ip_reass_free_complete_datagram        0x080094f0   Section        0  ip4_frag.o(i.ip_reass_free_complete_datagram)
    ip_reass_free_complete_datagram          0x080094f1   Thumb Code   274  ip4_frag.o(i.ip_reass_free_complete_datagram)
    i.ip_reass_remove_oldest_datagram        0x080096d0   Section        0  ip4_frag.o(i.ip_reass_remove_oldest_datagram)
    ip_reass_remove_oldest_datagram          0x080096d1   Thumb Code   130  ip4_frag.o(i.ip_reass_remove_oldest_datagram)
    i.ip_reass_tmr                           0x08009758   Section        0  ip4_frag.o(i.ip_reass_tmr)
    i.ipfrag_free_pbuf_custom                0x0800978c   Section        0  ip4_frag.o(i.ipfrag_free_pbuf_custom)
    ipfrag_free_pbuf_custom                  0x0800978d   Thumb Code    76  ip4_frag.o(i.ipfrag_free_pbuf_custom)
    i.low_level_init                         0x08009854   Section        0  ethernetif.o(i.low_level_init)
    low_level_init                           0x08009855   Thumb Code   218  ethernetif.o(i.low_level_init)
    i.low_level_input                        0x08009950   Section        0  ethernetif.o(i.low_level_input)
    low_level_input                          0x08009951   Thumb Code   146  ethernetif.o(i.low_level_input)
    i.low_level_output                       0x080099f4   Section        0  ethernetif.o(i.low_level_output)
    low_level_output                         0x080099f5   Thumb Code   282  ethernetif.o(i.low_level_output)
    i.lwip_cyclic_timer                      0x08009b20   Section        0  timeouts.o(i.lwip_cyclic_timer)
    lwip_cyclic_timer                        0x08009b21   Thumb Code    70  timeouts.o(i.lwip_cyclic_timer)
    i.lwip_htonl                             0x08009b70   Section        0  def.o(i.lwip_htonl)
    i.lwip_htons                             0x08009b8a   Section        0  def.o(i.lwip_htons)
    i.lwip_init                              0x08009b98   Section        0  init.o(i.lwip_init)
    i.lwip_standard_chksum                   0x08009c34   Section        0  inet_chksum.o(i.lwip_standard_chksum)
    i.lwip_udp_discollected                  0x08009c94   Section        0  lwip_udp.o(i.lwip_udp_discollected)
    i.lwip_udp_recv_callback                 0x08009cb8   Section        0  lwip_udp.o(i.lwip_udp_recv_callback)
    i.lwip_udp_register                      0x08009d64   Section        0  lwip_udp.o(i.lwip_udp_register)
    i.lwip_udp_send                          0x08009d80   Section        0  lwip_udp.o(i.lwip_udp_send)
    i.lwip_udp_set_remote_ip                 0x08009dc8   Section        0  lwip_udp.o(i.lwip_udp_set_remote_ip)
    i.main                                   0x08009ed8   Section        0  main.o(i.main)
    i.mem_free                               0x0800a04c   Section        0  mem.o(i.mem_free)
    i.mem_init                               0x0800a210   Section        0  mem.o(i.mem_init)
    i.mem_link_valid                         0x0800a268   Section        0  mem.o(i.mem_link_valid)
    mem_link_valid                           0x0800a269   Thumb Code    82  mem.o(i.mem_link_valid)
    i.mem_malloc                             0x0800a2c0   Section        0  mem.o(i.mem_malloc)
    i.mem_to_ptr                             0x0800a568   Section        0  mem.o(i.mem_to_ptr)
    mem_to_ptr                               0x0800a569   Thumb Code    12  mem.o(i.mem_to_ptr)
    i.mem_trim                               0x0800a578   Section        0  mem.o(i.mem_trim)
    i.memp_free                              0x0800a7ac   Section        0  memp.o(i.memp_free)
    i.memp_free_pool                         0x0800a85c   Section        0  memp.o(i.memp_free_pool)
    i.memp_init                              0x0800a8fc   Section        0  memp.o(i.memp_init)
    i.memp_init_pool                         0x0800a91c   Section        0  memp.o(i.memp_init_pool)
    i.memp_malloc                            0x0800a948   Section        0  memp.o(i.memp_malloc)
    i.memp_malloc_pool                       0x0800a9f8   Section        0  memp.o(i.memp_malloc_pool)
    i.netif_add                              0x0800aa90   Section        0  netif.o(i.netif_add)
    i.netif_do_ip_addr_changed               0x0800acc0   Section        0  netif.o(i.netif_do_ip_addr_changed)
    netif_do_ip_addr_changed                 0x0800acc1   Thumb Code    24  netif.o(i.netif_do_ip_addr_changed)
    i.netif_do_set_gw                        0x0800acd8   Section        0  netif.o(i.netif_do_set_gw)
    netif_do_set_gw                          0x0800acd9   Thumb Code    38  netif.o(i.netif_do_set_gw)
    i.netif_do_set_ipaddr                    0x0800ad00   Section        0  netif.o(i.netif_do_set_ipaddr)
    netif_do_set_ipaddr                      0x0800ad01   Thumb Code   116  netif.o(i.netif_do_set_ipaddr)
    i.netif_do_set_netmask                   0x0800ade0   Section        0  netif.o(i.netif_do_set_netmask)
    netif_do_set_netmask                     0x0800ade1   Thumb Code    38  netif.o(i.netif_do_set_netmask)
    i.netif_get_by_index                     0x0800ae08   Section        0  netif.o(i.netif_get_by_index)
    i.netif_init                             0x0800ae30   Section        0  netif.o(i.netif_init)
    i.netif_issue_reports                    0x0800ae34   Section        0  netif.o(i.netif_issue_reports)
    netif_issue_reports                      0x0800ae35   Thumb Code    86  netif.o(i.netif_issue_reports)
    i.netif_null_output_ip4                  0x0800af0c   Section        0  netif.o(i.netif_null_output_ip4)
    netif_null_output_ip4                    0x0800af0d   Thumb Code     8  netif.o(i.netif_null_output_ip4)
    i.netif_set_addr                         0x0800af14   Section        0  netif.o(i.netif_set_addr)
    i.netif_set_default                      0x0800af74   Section        0  netif.o(i.netif_set_default)
    i.netif_set_down                         0x0800af80   Section        0  netif.o(i.netif_set_down)
    i.netif_set_link_callback                0x0800b04c   Section        0  netif.o(i.netif_set_link_callback)
    i.netif_set_link_down                    0x0800b054   Section        0  netif.o(i.netif_set_link_down)
    i.netif_set_link_up                      0x0800b120   Section        0  netif.o(i.netif_set_link_up)
    i.netif_set_up                           0x0800b1f4   Section        0  netif.o(i.netif_set_up)
    i.pbuf_add_header                        0x0800b2b4   Section        0  pbuf.o(i.pbuf_add_header)
    i.pbuf_add_header_impl                   0x0800b2c8   Section        0  pbuf.o(i.pbuf_add_header_impl)
    pbuf_add_header_impl                     0x0800b2c9   Thumb Code   130  pbuf.o(i.pbuf_add_header_impl)
    i.pbuf_alloc                             0x0800b3b0   Section        0  pbuf.o(i.pbuf_alloc)
    i.pbuf_alloc_reference                   0x0800b654   Section        0  pbuf.o(i.pbuf_alloc_reference)
    i.pbuf_alloced_custom                    0x0800b710   Section        0  pbuf.o(i.pbuf_alloced_custom)
    i.pbuf_cat                               0x0800b764   Section        0  pbuf.o(i.pbuf_cat)
    i.pbuf_chain                             0x0800b8b4   Section        0  pbuf.o(i.pbuf_chain)
    i.pbuf_clen                              0x0800b8ca   Section        0  pbuf.o(i.pbuf_clen)
    i.pbuf_clone                             0x0800b8dc   Section        0  pbuf.o(i.pbuf_clone)
    i.pbuf_copy                              0x0800b98c   Section        0  pbuf.o(i.pbuf_copy)
    i.pbuf_copy_partial                      0x0800bbb4   Section        0  pbuf.o(i.pbuf_copy_partial)
    i.pbuf_free                              0x0800bcf4   Section        0  pbuf.o(i.pbuf_free)
    i.pbuf_free_custom                       0x0800be90   Section        0  ethernetif.o(i.pbuf_free_custom)
    i.pbuf_free_ooseq                        0x0800beb8   Section        0  pbuf.o(i.pbuf_free_ooseq)
    i.pbuf_header_force                      0x0800bee8   Section        0  pbuf.o(i.pbuf_header_force)
    i.pbuf_header_impl                       0x0800befa   Section        0  pbuf.o(i.pbuf_header_impl)
    pbuf_header_impl                         0x0800befb   Thumb Code    34  pbuf.o(i.pbuf_header_impl)
    i.pbuf_init_alloced_pbuf                 0x0800bf1c   Section        0  pbuf.o(i.pbuf_init_alloced_pbuf)
    pbuf_init_alloced_pbuf                   0x0800bf1d   Thumb Code    30  pbuf.o(i.pbuf_init_alloced_pbuf)
    i.pbuf_pool_is_empty                     0x0800bf3c   Section        0  pbuf.o(i.pbuf_pool_is_empty)
    pbuf_pool_is_empty                       0x0800bf3d   Thumb Code    12  pbuf.o(i.pbuf_pool_is_empty)
    i.pbuf_realloc                           0x0800bf4c   Section        0  pbuf.o(i.pbuf_realloc)
    i.pbuf_ref                               0x0800c0b4   Section        0  pbuf.o(i.pbuf_ref)
    i.pbuf_remove_header                     0x0800c150   Section        0  pbuf.o(i.pbuf_remove_header)
    i.pbuf_take                              0x0800c244   Section        0  pbuf.o(i.pbuf_take)
    i.plug_holes                             0x0800c40c   Section        0  mem.o(i.plug_holes)
    plug_holes                               0x0800c40d   Thumb Code   248  mem.o(i.plug_holes)
    i.ptr_to_mem                             0x0800c5e4   Section        0  mem.o(i.ptr_to_mem)
    ptr_to_mem                               0x0800c5e5   Thumb Code    10  mem.o(i.ptr_to_mem)
    i.server_set_local_ip                    0x0800c5f4   Section        0  tcp_server.o(i.server_set_local_ip)
    i.sys_check_timeouts                     0x0800c704   Section        0  timeouts.o(i.sys_check_timeouts)
    i.sys_now                                0x0800c768   Section        0  ethernetif.o(i.sys_now)
    i.sys_timeout                            0x0800c770   Section        0  timeouts.o(i.sys_timeout)
    i.sys_timeout_abs                        0x0800c840   Section        0  timeouts.o(i.sys_timeout_abs)
    sys_timeout_abs                          0x0800c841   Thumb Code   160  timeouts.o(i.sys_timeout_abs)
    i.sys_timeouts_init                      0x0800c980   Section        0  timeouts.o(i.sys_timeouts_init)
    i.tcp_abandon                            0x0800c9a8   Section        0  tcp.o(i.tcp_abandon)
    i.tcp_abort                              0x0800cb7c   Section        0  tcp.o(i.tcp_abort)
    i.tcp_accept                             0x0800cb8a   Section        0  tcp.o(i.tcp_accept)
    i.tcp_accept_null                        0x0800cb9c   Section        0  tcp.o(i.tcp_accept_null)
    tcp_accept_null                          0x0800cb9d   Thumb Code    46  tcp.o(i.tcp_accept_null)
    i.tcp_alloc                              0x0800cc44   Section        0  tcp.o(i.tcp_alloc)
    i.tcp_arg                                0x0800cd00   Section        0  tcp.o(i.tcp_arg)
    i.tcp_bind                               0x0800cd08   Section        0  tcp.o(i.tcp_bind)
    i.tcp_client_connection_close            0x0800ce78   Section        0  tcp_client.o(i.tcp_client_connection_close)
    i.tcp_client_connection_close            0x0800cebc   Section        0  tcp_server.o(i.tcp_client_connection_close)
    tcp_client_connection_close              0x0800cebd   Thumb Code    64  tcp_server.o(i.tcp_client_connection_close)
    i.tcp_client_err_cbk                     0x0800cefc   Section        0  tcp_client.o(i.tcp_client_err_cbk)
    tcp_client_err_cbk                       0x0800cefd   Thumb Code    14  tcp_client.o(i.tcp_client_err_cbk)
    i.tcp_client_recv_cbk                    0x0800cf28   Section        0  tcp_client.o(i.tcp_client_recv_cbk)
    tcp_client_recv_cbk                      0x0800cf29   Thumb Code   288  tcp_client.o(i.tcp_client_recv_cbk)
    i.tcp_client_send                        0x0800d0a4   Section        0  tcp_client.o(i.tcp_client_send)
    tcp_client_send                          0x0800d0a5   Thumb Code    28  tcp_client.o(i.tcp_client_send)
    i.tcp_close                              0x0800d0e4   Section        0  tcp.o(i.tcp_close)
    i.tcp_close_shutdown                     0x0800d194   Section        0  tcp.o(i.tcp_close_shutdown)
    tcp_close_shutdown                       0x0800d195   Thumb Code   356  tcp.o(i.tcp_close_shutdown)
    i.tcp_close_shutdown_fin                 0x0800d3a0   Section        0  tcp.o(i.tcp_close_shutdown_fin)
    tcp_close_shutdown_fin                   0x0800d3a1   Thumb Code   132  tcp.o(i.tcp_close_shutdown_fin)
    i.tcp_connect                            0x0800d488   Section        0  tcp.o(i.tcp_connect)
    i.tcp_create_segment                     0x0800d6e8   Section        0  tcp_out.o(i.tcp_create_segment)
    tcp_create_segment                       0x0800d6e9   Thumb Code   282  tcp_out.o(i.tcp_create_segment)
    i.tcp_eff_send_mss_netif                 0x0800d8bc   Section        0  tcp.o(i.tcp_eff_send_mss_netif)
    i.tcp_enqueue_flags                      0x0800d990   Section        0  tcp_out.o(i.tcp_enqueue_flags)
    i.tcp_err                                0x0800dc50   Section        0  tcp.o(i.tcp_err)
    i.tcp_fasttmr                            0x0800dcfc   Section        0  tcp.o(i.tcp_fasttmr)
    i.tcp_free                               0x0800dd98   Section        0  tcp.o(i.tcp_free)
    i.tcp_free_acked_segments                0x0800de2c   Section        0  tcp_in.o(i.tcp_free_acked_segments)
    tcp_free_acked_segments                  0x0800de2d   Thumb Code   176  tcp_in.o(i.tcp_free_acked_segments)
    i.tcp_free_listen                        0x0800df88   Section        0  tcp.o(i.tcp_free_listen)
    tcp_free_listen                          0x0800df89   Thumb Code    40  tcp.o(i.tcp_free_listen)
    i.tcp_free_ooseq                         0x0800e024   Section        0  tcp.o(i.tcp_free_ooseq)
    i.tcp_get_next_optbyte                   0x0800e038   Section        0  tcp_in.o(i.tcp_get_next_optbyte)
    tcp_get_next_optbyte                     0x0800e039   Thumb Code    54  tcp_in.o(i.tcp_get_next_optbyte)
    i.tcp_handle_closepend                   0x0800e080   Section        0  tcp.o(i.tcp_handle_closepend)
    tcp_handle_closepend                     0x0800e081   Thumb Code    48  tcp.o(i.tcp_handle_closepend)
    i.tcp_init                               0x0800e0b4   Section        0  tcp.o(i.tcp_init)
    i.tcp_input                              0x0800e0cc   Section        0  tcp_in.o(i.tcp_input)
    i.tcp_input_delayed_close                0x0800e8e4   Section        0  tcp_in.o(i.tcp_input_delayed_close)
    tcp_input_delayed_close                  0x0800e8e5   Thumb Code    92  tcp_in.o(i.tcp_input_delayed_close)
    i.tcp_keepalive                          0x0800e9cc   Section        0  tcp_out.o(i.tcp_keepalive)
    i.tcp_kill_prio                          0x0800eaa8   Section        0  tcp.o(i.tcp_kill_prio)
    tcp_kill_prio                            0x0800eaa9   Thumb Code    96  tcp.o(i.tcp_kill_prio)
    i.tcp_kill_state                         0x0800eb10   Section        0  tcp.o(i.tcp_kill_state)
    tcp_kill_state                           0x0800eb11   Thumb Code    94  tcp.o(i.tcp_kill_state)
    i.tcp_kill_timewait                      0x0800ebe0   Section        0  tcp.o(i.tcp_kill_timewait)
    tcp_kill_timewait                        0x0800ebe1   Thumb Code    50  tcp.o(i.tcp_kill_timewait)
    i.tcp_listen_closed                      0x0800ec1c   Section        0  tcp.o(i.tcp_listen_closed)
    tcp_listen_closed                        0x0800ec1d   Thumb Code    82  tcp.o(i.tcp_listen_closed)
    i.tcp_listen_input                       0x0800ecf0   Section        0  tcp_in.o(i.tcp_listen_input)
    tcp_listen_input                         0x0800ecf1   Thumb Code   342  tcp_in.o(i.tcp_listen_input)
    i.tcp_listen_with_backlog                0x0800eee4   Section        0  tcp.o(i.tcp_listen_with_backlog)
    i.tcp_listen_with_backlog_and_err        0x0800eef8   Section        0  tcp.o(i.tcp_listen_with_backlog_and_err)
    i.tcp_netif_ip_addr_changed              0x0800f0bc   Section        0  tcp.o(i.tcp_netif_ip_addr_changed)
    i.tcp_netif_ip_addr_changed_pcblist      0x0800f108   Section        0  tcp.o(i.tcp_netif_ip_addr_changed_pcblist)
    tcp_netif_ip_addr_changed_pcblist        0x0800f109   Thumb Code    68  tcp.o(i.tcp_netif_ip_addr_changed_pcblist)
    i.tcp_new                                0x0800f1d8   Section        0  tcp.o(i.tcp_new)
    i.tcp_new_port                           0x0800f1e4   Section        0  tcp.o(i.tcp_new_port)
    tcp_new_port                             0x0800f1e5   Thumb Code    96  tcp.o(i.tcp_new_port)
    i.tcp_next_iss                           0x0800f24c   Section        0  tcp.o(i.tcp_next_iss)
    i.tcp_oos_insert_segment                 0x0800f2fc   Section        0  tcp_in.o(i.tcp_oos_insert_segment)
    tcp_oos_insert_segment                   0x0800f2fd   Thumb Code   164  tcp_in.o(i.tcp_oos_insert_segment)
    i.tcp_output                             0x0800f428   Section        0  tcp_out.o(i.tcp_output)
    i.tcp_output_alloc_header                0x0800f78c   Section        0  tcp_out.o(i.tcp_output_alloc_header)
    tcp_output_alloc_header                  0x0800f78d   Thumb Code    86  tcp_out.o(i.tcp_output_alloc_header)
    i.tcp_output_alloc_header_common         0x0800f868   Section        0  tcp_out.o(i.tcp_output_alloc_header_common)
    tcp_output_alloc_header_common           0x0800f869   Thumb Code   152  tcp_out.o(i.tcp_output_alloc_header_common)
    i.tcp_output_control_segment             0x0800f98c   Section        0  tcp_out.o(i.tcp_output_control_segment)
    tcp_output_control_segment               0x0800f98d   Thumb Code   114  tcp_out.o(i.tcp_output_control_segment)
    i.tcp_output_fill_options                0x0800fa88   Section        0  tcp_out.o(i.tcp_output_fill_options)
    tcp_output_fill_options                  0x0800fa89   Thumb Code   140  tcp_out.o(i.tcp_output_fill_options)
    i.tcp_output_segment                     0x0800fbac   Section        0  tcp_out.o(i.tcp_output_segment)
    tcp_output_segment                       0x0800fbad   Thumb Code   372  tcp_out.o(i.tcp_output_segment)
    i.tcp_output_segment_busy                0x0800fdf8   Section        0  tcp_out.o(i.tcp_output_segment_busy)
    tcp_output_segment_busy                  0x0800fdf9   Thumb Code    46  tcp_out.o(i.tcp_output_segment_busy)
    i.tcp_parseopt                           0x0800feac   Section        0  tcp_in.o(i.tcp_parseopt)
    tcp_parseopt                             0x0800fead   Thumb Code   176  tcp_in.o(i.tcp_parseopt)
    i.tcp_pbuf_prealloc                      0x0800ffdc   Section        0  tcp_out.o(i.tcp_pbuf_prealloc)
    tcp_pbuf_prealloc                        0x0800ffdd   Thumb Code   194  tcp_out.o(i.tcp_pbuf_prealloc)
    i.tcp_pcb_purge                          0x08010154   Section        0  tcp.o(i.tcp_pcb_purge)
    i.tcp_pcb_remove                         0x08010230   Section        0  tcp.o(i.tcp_pcb_remove)
    i.tcp_poll                               0x08010408   Section        0  tcp.o(i.tcp_poll)
    i.tcp_process                            0x080104e4   Section        0  tcp_in.o(i.tcp_process)
    tcp_process                              0x080104e5   Thumb Code  1818  tcp_in.o(i.tcp_process)
    i.tcp_process_refused_data               0x08010c28   Section        0  tcp.o(i.tcp_process_refused_data)
    i.tcp_receive                            0x08010d60   Section        0  tcp_in.o(i.tcp_receive)
    tcp_receive                              0x08010d61   Thumb Code  3136  tcp_in.o(i.tcp_receive)
    i.tcp_recv                               0x080119dc   Section        0  tcp.o(i.tcp_recv)
    i.tcp_recv_null                          0x08011a88   Section        0  tcp.o(i.tcp_recv_null)
    i.tcp_recved                             0x08011b4c   Section        0  tcp.o(i.tcp_recved)
    i.tcp_remove_listener                    0x08011c68   Section        0  tcp.o(i.tcp_remove_listener)
    tcp_remove_listener                      0x08011c69   Thumb Code    52  tcp.o(i.tcp_remove_listener)
    i.tcp_rexmit                             0x08011d1c   Section        0  tcp_out.o(i.tcp_rexmit)
    i.tcp_rexmit_fast                        0x08011e20   Section        0  tcp_out.o(i.tcp_rexmit_fast)
    i.tcp_rexmit_rto                         0x08011f2c   Section        0  tcp_out.o(i.tcp_rexmit_rto)
    i.tcp_rexmit_rto_commit                  0x08011fd4   Section        0  tcp_out.o(i.tcp_rexmit_rto_commit)
    i.tcp_rexmit_rto_prepare                 0x0801208c   Section        0  tcp_out.o(i.tcp_rexmit_rto_prepare)
    i.tcp_route                              0x080121a4   Section        0  tcp_out.o(i.tcp_route)
    tcp_route                                0x080121a5   Thumb Code    30  tcp_out.o(i.tcp_route)
    i.tcp_rst                                0x080121c4   Section        0  tcp_out.o(i.tcp_rst)
    i.tcp_seg_copy                           0x080122ec   Section        0  tcp.o(i.tcp_seg_copy)
    i.tcp_seg_free                           0x080123a0   Section        0  tcp.o(i.tcp_seg_free)
    i.tcp_segs_free                          0x080123ba   Section        0  tcp.o(i.tcp_segs_free)
    i.tcp_send_empty_ack                     0x080123d4   Section        0  tcp_out.o(i.tcp_send_empty_ack)
    i.tcp_send_fin                           0x08012514   Section        0  tcp_out.o(i.tcp_send_fin)
    i.tcp_sent                               0x080125f4   Section        0  tcp.o(i.tcp_sent)
    i.tcp_server_accept_cbk                  0x080126a0   Section        0  tcp_server.o(i.tcp_server_accept_cbk)
    tcp_server_accept_cbk                    0x080126a1   Thumb Code    60  tcp_server.o(i.tcp_server_accept_cbk)
    i.tcp_server_err_cbk                     0x08012700   Section        0  tcp_server.o(i.tcp_server_err_cbk)
    tcp_server_err_cbk                       0x08012701   Thumb Code    48  tcp_server.o(i.tcp_server_err_cbk)
    i.tcp_server_poll_cbk                    0x0801274c   Section        0  tcp_server.o(i.tcp_server_poll_cbk)
    tcp_server_poll_cbk                      0x0801274d   Thumb Code    18  tcp_server.o(i.tcp_server_poll_cbk)
    i.tcp_server_recv_cbk                    0x08012770   Section        0  tcp_server.o(i.tcp_server_recv_cbk)
    tcp_server_recv_cbk                      0x08012771   Thumb Code   262  tcp_server.o(i.tcp_server_recv_cbk)
    i.tcp_server_sent_cbk                    0x080128b4   Section        0  tcp_server.o(i.tcp_server_sent_cbk)
    tcp_server_sent_cbk                      0x080128b5   Thumb Code    32  tcp_server.o(i.tcp_server_sent_cbk)
    i.tcp_slowtmr                            0x080128f0   Section        0  tcp.o(i.tcp_slowtmr)
    i.tcp_split_unsent_seg                   0x08013020   Section        0  tcp_out.o(i.tcp_split_unsent_seg)
    i.tcp_timer_needed                       0x080132f0   Section        0  timeouts.o(i.tcp_timer_needed)
    i.tcp_timewait_input                     0x08013328   Section        0  tcp_in.o(i.tcp_timewait_input)
    tcp_timewait_input                       0x08013329   Thumb Code   170  tcp_in.o(i.tcp_timewait_input)
    i.tcp_tmr                                0x0801346c   Section        0  tcp.o(i.tcp_tmr)
    i.tcp_trigger_input_pcb_close            0x08013490   Section        0  tcp_in.o(i.tcp_trigger_input_pcb_close)
    i.tcp_update_rcv_ann_wnd                 0x080134a4   Section        0  tcp.o(i.tcp_update_rcv_ann_wnd)
    i.tcp_write                              0x080135bc   Section        0  tcp_out.o(i.tcp_write)
    i.tcp_write_checks                       0x08013de0   Section        0  tcp_out.o(i.tcp_write_checks)
    tcp_write_checks                         0x08013de1   Thumb Code   198  tcp_out.o(i.tcp_write_checks)
    i.tcp_zero_window_probe                  0x08013f94   Section        0  tcp_out.o(i.tcp_zero_window_probe)
    i.tcpip_tcp_timer                        0x08014104   Section        0  timeouts.o(i.tcpip_tcp_timer)
    tcpip_tcp_timer                          0x08014105   Thumb Code    40  timeouts.o(i.tcpip_tcp_timer)
    i.udp_bind                               0x0801413c   Section        0  udp.o(i.udp_bind)
    i.udp_connect                            0x08014260   Section        0  udp.o(i.udp_connect)
    i.udp_disconnect                         0x08014394   Section        0  udp.o(i.udp_disconnect)
    i.udp_init                               0x08014440   Section        0  udp.o(i.udp_init)
    i.udp_input                              0x08014458   Section        0  udp.o(i.udp_input)
    i.udp_input_local_match                  0x080146a4   Section        0  udp.o(i.udp_input_local_match)
    udp_input_local_match                    0x080146a5   Thumb Code   144  udp.o(i.udp_input_local_match)
    i.udp_netif_ip_addr_changed              0x080147dc   Section        0  udp.o(i.udp_netif_ip_addr_changed)
    i.udp_new                                0x0801480c   Section        0  udp.o(i.udp_new)
    i.udp_new_port                           0x08014828   Section        0  udp.o(i.udp_new_port)
    udp_new_port                             0x08014829   Thumb Code    80  udp.o(i.udp_new_port)
    i.udp_recv                               0x08014880   Section        0  udp.o(i.udp_recv)
    i.udp_remove                             0x0801491c   Section        0  udp.o(i.udp_remove)
    i.udp_send                               0x080149f0   Section        0  udp.o(i.udp_send)
    i.udp_sendto                             0x08014acc   Section        0  udp.o(i.udp_sendto)
    i.udp_sendto_if                          0x08014c10   Section        0  udp.o(i.udp_sendto_if)
    i.udp_sendto_if_src                      0x08014da8   Section        0  udp.o(i.udp_sendto_if_src)
    .constdata                               0x0801505c   Section       12  ethernetif.o(.constdata)
    .constdata                               0x08015068   Section       24  stm32h7xx_hal_uart.o(.constdata)
    .constdata                               0x08015080   Section       16  stm32h7xx_hal_uart_ex.o(.constdata)
    numerator                                0x08015080   Data           8  stm32h7xx_hal_uart_ex.o(.constdata)
    denominator                              0x08015088   Data           8  stm32h7xx_hal_uart_ex.o(.constdata)
    .constdata                               0x08015090   Section       16  system_stm32h7xx.o(.constdata)
    .constdata                               0x080150a0   Section       12  ethernet.o(.constdata)
    .constdata                               0x080150ac   Section      144  memp.o(.constdata)
    .constdata                               0x0801513c   Section       80  tcp.o(.constdata)
    tcp_state_str                            0x0801513c   Data          44  tcp.o(.constdata)
    tcp_backoff                              0x08015168   Data          13  tcp.o(.constdata)
    tcp_persist_backoff                      0x08015175   Data           7  tcp.o(.constdata)
    .constdata                               0x0801518c   Section       28  timeouts.o(.constdata)
    .constdata                               0x080151a8   Section        8  ip4_addr.o(.constdata)
    .conststring                             0x080151b0   Section       65  init.o(.conststring)
    .conststring                             0x080151f4   Section      117  tcp.o(.conststring)
    .conststring                             0x0801526c   Section       85  tcp_out.o(.conststring)
    .conststring                             0x080152c4   Section       65  etharp.o(.conststring)
    .data                                    0x24000000   Section       28  ethernetif.o(.data)
    memp_tab_RX_POOL                         0x24000000   Data           4  ethernetif.o(.data)
    RxAllocStatus                            0x24000004   Data           1  ethernetif.o(.data)
    .data                                    0x2400001c   Section       28  lwip.o(.data)
    .data                                    0x24000038   Section       48  fifomem.o(.data)
    .data                                    0x24000068   Section     3052  lwip_udp.o(.data)
    .data                                    0x24000c54   Section    18068  tcp_client.o(.data)
    .data                                    0x240052e8   Section    18060  tcp_server.o(.data)
    .data                                    0x24009974   Section        9  stm32h7xx_hal.o(.data)
    .data                                    0x24009980   Section        8  system_stm32h7xx.o(.data)
    .data                                    0x24009988   Section       12  mem.o(.data)
    ram                                      0x24009988   Data           4  mem.o(.data)
    ram_end                                  0x2400998c   Data           4  mem.o(.data)
    lfree                                    0x24009990   Data           4  mem.o(.data)
    .data                                    0x24009994   Section       36  memp.o(.data)
    memp_tab_UDP_PCB                         0x24009994   Data           4  memp.o(.data)
    memp_tab_TCP_PCB                         0x24009998   Data           4  memp.o(.data)
    memp_tab_TCP_PCB_LISTEN                  0x2400999c   Data           4  memp.o(.data)
    memp_tab_TCP_SEG                         0x240099a0   Data           4  memp.o(.data)
    memp_tab_REASSDATA                       0x240099a4   Data           4  memp.o(.data)
    memp_tab_FRAG_PBUF                       0x240099a8   Data           4  memp.o(.data)
    memp_tab_SYS_TIMEOUT                     0x240099ac   Data           4  memp.o(.data)
    memp_tab_PBUF                            0x240099b0   Data           4  memp.o(.data)
    memp_tab_PBUF_POOL                       0x240099b4   Data           4  memp.o(.data)
    .data                                    0x240099b8   Section        9  netif.o(.data)
    netif_num                                0x240099c0   Data           1  netif.o(.data)
    .data                                    0x240099c1   Section        1  pbuf.o(.data)
    .data                                    0x240099c4   Section       32  tcp.o(.data)
    tcp_port                                 0x240099c4   Data           2  tcp.o(.data)
    tcp_timer                                0x240099dd   Data           1  tcp.o(.data)
    tcp_timer_ctr                            0x240099de   Data           1  tcp.o(.data)
    iss                                      0x240099e0   Data           4  tcp.o(.data)
    .data                                    0x240099e4   Section       40  tcp_in.o(.data)
    tcphdr                                   0x240099e4   Data           4  tcp_in.o(.data)
    tcphdr_optlen                            0x240099e8   Data           2  tcp_in.o(.data)
    tcphdr_opt1len                           0x240099ea   Data           2  tcp_in.o(.data)
    tcphdr_opt2                              0x240099ec   Data           4  tcp_in.o(.data)
    tcp_optidx                               0x240099f0   Data           2  tcp_in.o(.data)
    seqno                                    0x240099f4   Data           4  tcp_in.o(.data)
    ackno                                    0x240099f8   Data           4  tcp_in.o(.data)
    recv_acked                               0x240099fc   Data           2  tcp_in.o(.data)
    tcplen                                   0x240099fe   Data           2  tcp_in.o(.data)
    flags                                    0x24009a00   Data           1  tcp_in.o(.data)
    recv_flags                               0x24009a01   Data           1  tcp_in.o(.data)
    recv_data                                0x24009a04   Data           4  tcp_in.o(.data)
    .data                                    0x24009a0c   Section       12  timeouts.o(.data)
    next_timeout                             0x24009a0c   Data           4  timeouts.o(.data)
    current_timeout_due_time                 0x24009a10   Data           4  timeouts.o(.data)
    tcpip_tcp_timer_active                   0x24009a14   Data           4  timeouts.o(.data)
    .data                                    0x24009a18   Section        8  udp.o(.data)
    udp_port                                 0x24009a18   Data           2  udp.o(.data)
    .data                                    0x24009a20   Section        1  etharp.o(.data)
    etharp_cached_entry                      0x24009a20   Data           1  etharp.o(.data)
    .data                                    0x24009a22   Section        2  ip4.o(.data)
    ip_id                                    0x24009a22   Data           2  ip4.o(.data)
    .data                                    0x24009a24   Section        6  ip4_frag.o(.data)
    reassdatagrams                           0x24009a24   Data           4  ip4_frag.o(.data)
    ip_reass_pbufcount                       0x24009a28   Data           2  ip4_frag.o(.data)
    .data                                    0x24009a2c   Section        4  rand.o(.data)
    _rand_state                              0x24009a2c   Data           4  rand.o(.data)
    .data                                    0x24009a30   Section        4  stdout.o(.data)
    .bss                                     0x24009a34   Section     1504  main.o(.bss)
    .bss                                     0x2400a014   Section      148  usart.o(.bss)
    .bss                                     0x2400a0a8   Section    19084  ethernetif.o(.bss)
    .bss                                     0x2400eb34   Section       52  lwip.o(.bss)
    .bss                                     0x2400eb68   Section      192  fifomem.o(.bss)
    .bss                                     0x2400ec28   Section       24  ip.o(.bss)
    .bss                                     0x2400ec40   Section    26751  memp.o(.bss)
    .bss                                     0x240154c0   Section       16  tcp_in.o(.bss)
    inseg                                    0x240154c0   Data          16  tcp_in.o(.bss)
    .bss                                     0x240154d0   Section      240  etharp.o(.bss)
    arp_table                                0x240154d0   Data         240  etharp.o(.bss)
    STACK                                    0x240155c0   Section     1024  startup_stm32h743xx.o(STACK)
    .ARM.__AT_0x30004000                     0x30004000   Section       96  ethernetif.o(.ARM.__AT_0x30004000)
    .ARM.__AT_0x30004060                     0x30004060   Section       96  ethernetif.o(.ARM.__AT_0x30004060)

    Global Symbols

    Symbol Name                              Value     Ov Type        Size  Object(Section)

    BuildAttributes$$THM_ISAv4$E$P$D$K$B$S$7EM$VFPv5_D16$PE$PLD8$A:L22UL41UL21$X:L11$S22US41US21$IEEE1$IW$USESV6$~STKCKD$USESV7$~SHL$OSPACE$ROPI$EBA8$MICROLIB$REQ8$PRES8$EABIv2 0x00000000   Number         0  anon$$obj.o ABSOLUTE
    __ARM_use_no_argv                        0x00000000   Number         0  main.o ABSOLUTE
    _printf_a                                0x00000000   Number         0  stubs.o ABSOLUTE
    _printf_c                                0x00000000   Number         0  stubs.o ABSOLUTE
    _printf_charcount                        0x00000000   Number         0  stubs.o ABSOLUTE
    _printf_d                                0x00000000   Number         0  stubs.o ABSOLUTE
    _printf_e                                0x00000000   Number         0  stubs.o ABSOLUTE
    _printf_f                                0x00000000   Number         0  stubs.o ABSOLUTE
    _printf_flags                            0x00000000   Number         0  stubs.o ABSOLUTE
    _printf_fp_dec                           0x00000000   Number         0  stubs.o ABSOLUTE
    _printf_fp_hex                           0x00000000   Number         0  stubs.o ABSOLUTE
    _printf_g                                0x00000000   Number         0  stubs.o ABSOLUTE
    _printf_i                                0x00000000   Number         0  stubs.o ABSOLUTE
    _printf_int_dec                          0x00000000   Number         0  stubs.o ABSOLUTE
    _printf_l                                0x00000000   Number         0  stubs.o ABSOLUTE
    _printf_lc                               0x00000000   Number         0  stubs.o ABSOLUTE
    _printf_ll                               0x00000000   Number         0  stubs.o ABSOLUTE
    _printf_lld                              0x00000000   Number         0  stubs.o ABSOLUTE
    _printf_lli                              0x00000000   Number         0  stubs.o ABSOLUTE
    _printf_llo                              0x00000000   Number         0  stubs.o ABSOLUTE
    _printf_llu                              0x00000000   Number         0  stubs.o ABSOLUTE
    _printf_llx                              0x00000000   Number         0  stubs.o ABSOLUTE
    _printf_longlong_dec                     0x00000000   Number         0  stubs.o ABSOLUTE
    _printf_longlong_hex                     0x00000000   Number         0  stubs.o ABSOLUTE
    _printf_longlong_oct                     0x00000000   Number         0  stubs.o ABSOLUTE
    _printf_ls                               0x00000000   Number         0  stubs.o ABSOLUTE
    _printf_mbtowc                           0x00000000   Number         0  stubs.o ABSOLUTE
    _printf_n                                0x00000000   Number         0  stubs.o ABSOLUTE
    _printf_o                                0x00000000   Number         0  stubs.o ABSOLUTE
    _printf_p                                0x00000000   Number         0  stubs.o ABSOLUTE
    _printf_percent                          0x00000000   Number         0  stubs.o ABSOLUTE
    _printf_pre_padding                      0x00000000   Number         0  stubs.o ABSOLUTE
    _printf_return_value                     0x00000000   Number         0  stubs.o ABSOLUTE
    _printf_s                                0x00000000   Number         0  stubs.o ABSOLUTE
    _printf_sizespec                         0x00000000   Number         0  stubs.o ABSOLUTE
    _printf_str                              0x00000000   Number         0  stubs.o ABSOLUTE
    _printf_truncate_signed                  0x00000000   Number         0  stubs.o ABSOLUTE
    _printf_truncate_unsigned                0x00000000   Number         0  stubs.o ABSOLUTE
    _printf_u                                0x00000000   Number         0  stubs.o ABSOLUTE
    _printf_wc                               0x00000000   Number         0  stubs.o ABSOLUTE
    _printf_wctomb                           0x00000000   Number         0  stubs.o ABSOLUTE
    _printf_widthprec                        0x00000000   Number         0  stubs.o ABSOLUTE
    _printf_x                                0x00000000   Number         0  stubs.o ABSOLUTE
    __arm_fini_                               - Undefined Weak Reference
    __cpp_initialize__aeabi_                  - Undefined Weak Reference
    __cxa_finalize                            - Undefined Weak Reference
    _clock_init                               - Undefined Weak Reference
    _microlib_exit                            - Undefined Weak Reference
    __Vectors_Size                           0x00000298   Number         0  startup_stm32h743xx.o ABSOLUTE
    __Vectors                                0x08000000   Data           4  startup_stm32h743xx.o(RESET)
    __Vectors_End                            0x08000298   Data           0  startup_stm32h743xx.o(RESET)
    __main                                   0x08000299   Thumb Code     0  entry.o(.ARM.Collect$$$$00000000)
    _main_stk                                0x08000299   Thumb Code     0  entry2.o(.ARM.Collect$$$$00000001)
    _main_scatterload                        0x0800029d   Thumb Code     0  entry5.o(.ARM.Collect$$$$00000004)
    __main_after_scatterload                 0x080002a1   Thumb Code     0  entry5.o(.ARM.Collect$$$$00000004)
    _main_clock                              0x080002a1   Thumb Code     0  entry7b.o(.ARM.Collect$$$$00000008)
    _main_cpp_init                           0x080002a1   Thumb Code     0  entry8b.o(.ARM.Collect$$$$0000000A)
    _main_init                               0x080002a1   Thumb Code     0  entry9a.o(.ARM.Collect$$$$0000000B)
    __rt_lib_shutdown_fini                   0x080002a9   Thumb Code     0  entry12b.o(.ARM.Collect$$$$0000000E)
    __rt_final_cpp                           0x080002ad   Thumb Code     0  entry10a.o(.ARM.Collect$$$$0000000F)
    __rt_final_exit                          0x080002ad   Thumb Code     0  entry11a.o(.ARM.Collect$$$$00000011)
    Reset_Handler                            0x080002b1   Thumb Code     8  startup_stm32h743xx.o(.text)
    ADC3_IRQHandler                          0x080002cb   Thumb Code     0  startup_stm32h743xx.o(.text)
    ADC_IRQHandler                           0x080002cb   Thumb Code     0  startup_stm32h743xx.o(.text)
    BDMA_Channel0_IRQHandler                 0x080002cb   Thumb Code     0  startup_stm32h743xx.o(.text)
    BDMA_Channel1_IRQHandler                 0x080002cb   Thumb Code     0  startup_stm32h743xx.o(.text)
    BDMA_Channel2_IRQHandler                 0x080002cb   Thumb Code     0  startup_stm32h743xx.o(.text)
    BDMA_Channel3_IRQHandler                 0x080002cb   Thumb Code     0  startup_stm32h743xx.o(.text)
    BDMA_Channel4_IRQHandler                 0x080002cb   Thumb Code     0  startup_stm32h743xx.o(.text)
    BDMA_Channel5_IRQHandler                 0x080002cb   Thumb Code     0  startup_stm32h743xx.o(.text)
    BDMA_Channel6_IRQHandler                 0x080002cb   Thumb Code     0  startup_stm32h743xx.o(.text)
    BDMA_Channel7_IRQHandler                 0x080002cb   Thumb Code     0  startup_stm32h743xx.o(.text)
    CEC_IRQHandler                           0x080002cb   Thumb Code     0  startup_stm32h743xx.o(.text)
    COMP1_IRQHandler                         0x080002cb   Thumb Code     0  startup_stm32h743xx.o(.text)
    CRS_IRQHandler                           0x080002cb   Thumb Code     0  startup_stm32h743xx.o(.text)
    DCMI_IRQHandler                          0x080002cb   Thumb Code     0  startup_stm32h743xx.o(.text)
    DFSDM1_FLT0_IRQHandler                   0x080002cb   Thumb Code     0  startup_stm32h743xx.o(.text)
    DFSDM1_FLT1_IRQHandler                   0x080002cb   Thumb Code     0  startup_stm32h743xx.o(.text)
    DFSDM1_FLT2_IRQHandler                   0x080002cb   Thumb Code     0  startup_stm32h743xx.o(.text)
    DFSDM1_FLT3_IRQHandler                   0x080002cb   Thumb Code     0  startup_stm32h743xx.o(.text)
    DMA1_Stream0_IRQHandler                  0x080002cb   Thumb Code     0  startup_stm32h743xx.o(.text)
    DMA1_Stream1_IRQHandler                  0x080002cb   Thumb Code     0  startup_stm32h743xx.o(.text)
    DMA1_Stream2_IRQHandler                  0x080002cb   Thumb Code     0  startup_stm32h743xx.o(.text)
    DMA1_Stream3_IRQHandler                  0x080002cb   Thumb Code     0  startup_stm32h743xx.o(.text)
    DMA1_Stream4_IRQHandler                  0x080002cb   Thumb Code     0  startup_stm32h743xx.o(.text)
    DMA1_Stream5_IRQHandler                  0x080002cb   Thumb Code     0  startup_stm32h743xx.o(.text)
    DMA1_Stream6_IRQHandler                  0x080002cb   Thumb Code     0  startup_stm32h743xx.o(.text)
    DMA1_Stream7_IRQHandler                  0x080002cb   Thumb Code     0  startup_stm32h743xx.o(.text)
    DMA2D_IRQHandler                         0x080002cb   Thumb Code     0  startup_stm32h743xx.o(.text)
    DMA2_Stream0_IRQHandler                  0x080002cb   Thumb Code     0  startup_stm32h743xx.o(.text)
    DMA2_Stream1_IRQHandler                  0x080002cb   Thumb Code     0  startup_stm32h743xx.o(.text)
    DMA2_Stream2_IRQHandler                  0x080002cb   Thumb Code     0  startup_stm32h743xx.o(.text)
    DMA2_Stream3_IRQHandler                  0x080002cb   Thumb Code     0  startup_stm32h743xx.o(.text)
    DMA2_Stream4_IRQHandler                  0x080002cb   Thumb Code     0  startup_stm32h743xx.o(.text)
    DMA2_Stream5_IRQHandler                  0x080002cb   Thumb Code     0  startup_stm32h743xx.o(.text)
    DMA2_Stream6_IRQHandler                  0x080002cb   Thumb Code     0  startup_stm32h743xx.o(.text)
    DMA2_Stream7_IRQHandler                  0x080002cb   Thumb Code     0  startup_stm32h743xx.o(.text)
    DMAMUX1_OVR_IRQHandler                   0x080002cb   Thumb Code     0  startup_stm32h743xx.o(.text)
    DMAMUX2_OVR_IRQHandler                   0x080002cb   Thumb Code     0  startup_stm32h743xx.o(.text)
    ECC_IRQHandler                           0x080002cb   Thumb Code     0  startup_stm32h743xx.o(.text)
    EXTI0_IRQHandler                         0x080002cb   Thumb Code     0  startup_stm32h743xx.o(.text)
    EXTI15_10_IRQHandler                     0x080002cb   Thumb Code     0  startup_stm32h743xx.o(.text)
    EXTI1_IRQHandler                         0x080002cb   Thumb Code     0  startup_stm32h743xx.o(.text)
    EXTI2_IRQHandler                         0x080002cb   Thumb Code     0  startup_stm32h743xx.o(.text)
    EXTI3_IRQHandler                         0x080002cb   Thumb Code     0  startup_stm32h743xx.o(.text)
    EXTI4_IRQHandler                         0x080002cb   Thumb Code     0  startup_stm32h743xx.o(.text)
    EXTI9_5_IRQHandler                       0x080002cb   Thumb Code     0  startup_stm32h743xx.o(.text)
    FDCAN1_IT0_IRQHandler                    0x080002cb   Thumb Code     0  startup_stm32h743xx.o(.text)
    FDCAN1_IT1_IRQHandler                    0x080002cb   Thumb Code     0  startup_stm32h743xx.o(.text)
    FDCAN2_IT0_IRQHandler                    0x080002cb   Thumb Code     0  startup_stm32h743xx.o(.text)
    FDCAN2_IT1_IRQHandler                    0x080002cb   Thumb Code     0  startup_stm32h743xx.o(.text)
    FDCAN_CAL_IRQHandler                     0x080002cb   Thumb Code     0  startup_stm32h743xx.o(.text)
    FLASH_IRQHandler                         0x080002cb   Thumb Code     0  startup_stm32h743xx.o(.text)
    FMC_IRQHandler                           0x080002cb   Thumb Code     0  startup_stm32h743xx.o(.text)
    FPU_IRQHandler                           0x080002cb   Thumb Code     0  startup_stm32h743xx.o(.text)
    HRTIM1_FLT_IRQHandler                    0x080002cb   Thumb Code     0  startup_stm32h743xx.o(.text)
    HRTIM1_Master_IRQHandler                 0x080002cb   Thumb Code     0  startup_stm32h743xx.o(.text)
    HRTIM1_TIMA_IRQHandler                   0x080002cb   Thumb Code     0  startup_stm32h743xx.o(.text)
    HRTIM1_TIMB_IRQHandler                   0x080002cb   Thumb Code     0  startup_stm32h743xx.o(.text)
    HRTIM1_TIMC_IRQHandler                   0x080002cb   Thumb Code     0  startup_stm32h743xx.o(.text)
    HRTIM1_TIMD_IRQHandler                   0x080002cb   Thumb Code     0  startup_stm32h743xx.o(.text)
    HRTIM1_TIME_IRQHandler                   0x080002cb   Thumb Code     0  startup_stm32h743xx.o(.text)
    HSEM1_IRQHandler                         0x080002cb   Thumb Code     0  startup_stm32h743xx.o(.text)
    I2C1_ER_IRQHandler                       0x080002cb   Thumb Code     0  startup_stm32h743xx.o(.text)
    I2C1_EV_IRQHandler                       0x080002cb   Thumb Code     0  startup_stm32h743xx.o(.text)
    I2C2_ER_IRQHandler                       0x080002cb   Thumb Code     0  startup_stm32h743xx.o(.text)
    I2C2_EV_IRQHandler                       0x080002cb   Thumb Code     0  startup_stm32h743xx.o(.text)
    I2C3_ER_IRQHandler                       0x080002cb   Thumb Code     0  startup_stm32h743xx.o(.text)
    I2C3_EV_IRQHandler                       0x080002cb   Thumb Code     0  startup_stm32h743xx.o(.text)
    I2C4_ER_IRQHandler                       0x080002cb   Thumb Code     0  startup_stm32h743xx.o(.text)
    I2C4_EV_IRQHandler                       0x080002cb   Thumb Code     0  startup_stm32h743xx.o(.text)
    JPEG_IRQHandler                          0x080002cb   Thumb Code     0  startup_stm32h743xx.o(.text)
    LPTIM1_IRQHandler                        0x080002cb   Thumb Code     0  startup_stm32h743xx.o(.text)
    LPTIM2_IRQHandler                        0x080002cb   Thumb Code     0  startup_stm32h743xx.o(.text)
    LPTIM3_IRQHandler                        0x080002cb   Thumb Code     0  startup_stm32h743xx.o(.text)
    LPTIM4_IRQHandler                        0x080002cb   Thumb Code     0  startup_stm32h743xx.o(.text)
    LPTIM5_IRQHandler                        0x080002cb   Thumb Code     0  startup_stm32h743xx.o(.text)
    LPUART1_IRQHandler                       0x080002cb   Thumb Code     0  startup_stm32h743xx.o(.text)
    LTDC_ER_IRQHandler                       0x080002cb   Thumb Code     0  startup_stm32h743xx.o(.text)
    LTDC_IRQHandler                          0x080002cb   Thumb Code     0  startup_stm32h743xx.o(.text)
    MDIOS_IRQHandler                         0x080002cb   Thumb Code     0  startup_stm32h743xx.o(.text)
    MDIOS_WKUP_IRQHandler                    0x080002cb   Thumb Code     0  startup_stm32h743xx.o(.text)
    MDMA_IRQHandler                          0x080002cb   Thumb Code     0  startup_stm32h743xx.o(.text)
    OTG_FS_EP1_IN_IRQHandler                 0x080002cb   Thumb Code     0  startup_stm32h743xx.o(.text)
    OTG_FS_EP1_OUT_IRQHandler                0x080002cb   Thumb Code     0  startup_stm32h743xx.o(.text)
    OTG_FS_IRQHandler                        0x080002cb   Thumb Code     0  startup_stm32h743xx.o(.text)
    OTG_FS_WKUP_IRQHandler                   0x080002cb   Thumb Code     0  startup_stm32h743xx.o(.text)
    OTG_HS_EP1_IN_IRQHandler                 0x080002cb   Thumb Code     0  startup_stm32h743xx.o(.text)
    OTG_HS_EP1_OUT_IRQHandler                0x080002cb   Thumb Code     0  startup_stm32h743xx.o(.text)
    OTG_HS_IRQHandler                        0x080002cb   Thumb Code     0  startup_stm32h743xx.o(.text)
    OTG_HS_WKUP_IRQHandler                   0x080002cb   Thumb Code     0  startup_stm32h743xx.o(.text)
    PVD_AVD_IRQHandler                       0x080002cb   Thumb Code     0  startup_stm32h743xx.o(.text)
    QUADSPI_IRQHandler                       0x080002cb   Thumb Code     0  startup_stm32h743xx.o(.text)
    RCC_IRQHandler                           0x080002cb   Thumb Code     0  startup_stm32h743xx.o(.text)
    RNG_IRQHandler                           0x080002cb   Thumb Code     0  startup_stm32h743xx.o(.text)
    RTC_Alarm_IRQHandler                     0x080002cb   Thumb Code     0  startup_stm32h743xx.o(.text)
    RTC_WKUP_IRQHandler                      0x080002cb   Thumb Code     0  startup_stm32h743xx.o(.text)
    SAI1_IRQHandler                          0x080002cb   Thumb Code     0  startup_stm32h743xx.o(.text)
    SAI2_IRQHandler                          0x080002cb   Thumb Code     0  startup_stm32h743xx.o(.text)
    SAI3_IRQHandler                          0x080002cb   Thumb Code     0  startup_stm32h743xx.o(.text)
    SAI4_IRQHandler                          0x080002cb   Thumb Code     0  startup_stm32h743xx.o(.text)
    SDMMC1_IRQHandler                        0x080002cb   Thumb Code     0  startup_stm32h743xx.o(.text)
    SDMMC2_IRQHandler                        0x080002cb   Thumb Code     0  startup_stm32h743xx.o(.text)
    SPDIF_RX_IRQHandler                      0x080002cb   Thumb Code     0  startup_stm32h743xx.o(.text)
    SPI1_IRQHandler                          0x080002cb   Thumb Code     0  startup_stm32h743xx.o(.text)
    SPI2_IRQHandler                          0x080002cb   Thumb Code     0  startup_stm32h743xx.o(.text)
    SPI3_IRQHandler                          0x080002cb   Thumb Code     0  startup_stm32h743xx.o(.text)
    SPI4_IRQHandler                          0x080002cb   Thumb Code     0  startup_stm32h743xx.o(.text)
    SPI5_IRQHandler                          0x080002cb   Thumb Code     0  startup_stm32h743xx.o(.text)
    SPI6_IRQHandler                          0x080002cb   Thumb Code     0  startup_stm32h743xx.o(.text)
    SWPMI1_IRQHandler                        0x080002cb   Thumb Code     0  startup_stm32h743xx.o(.text)
    TAMP_STAMP_IRQHandler                    0x080002cb   Thumb Code     0  startup_stm32h743xx.o(.text)
    TIM15_IRQHandler                         0x080002cb   Thumb Code     0  startup_stm32h743xx.o(.text)
    TIM16_IRQHandler                         0x080002cb   Thumb Code     0  startup_stm32h743xx.o(.text)
    TIM17_IRQHandler                         0x080002cb   Thumb Code     0  startup_stm32h743xx.o(.text)
    TIM1_BRK_IRQHandler                      0x080002cb   Thumb Code     0  startup_stm32h743xx.o(.text)
    TIM1_CC_IRQHandler                       0x080002cb   Thumb Code     0  startup_stm32h743xx.o(.text)
    TIM1_TRG_COM_IRQHandler                  0x080002cb   Thumb Code     0  startup_stm32h743xx.o(.text)
    TIM1_UP_IRQHandler                       0x080002cb   Thumb Code     0  startup_stm32h743xx.o(.text)
    TIM2_IRQHandler                          0x080002cb   Thumb Code     0  startup_stm32h743xx.o(.text)
    TIM3_IRQHandler                          0x080002cb   Thumb Code     0  startup_stm32h743xx.o(.text)
    TIM4_IRQHandler                          0x080002cb   Thumb Code     0  startup_stm32h743xx.o(.text)
    TIM5_IRQHandler                          0x080002cb   Thumb Code     0  startup_stm32h743xx.o(.text)
    TIM6_DAC_IRQHandler                      0x080002cb   Thumb Code     0  startup_stm32h743xx.o(.text)
    TIM7_IRQHandler                          0x080002cb   Thumb Code     0  startup_stm32h743xx.o(.text)
    TIM8_BRK_TIM12_IRQHandler                0x080002cb   Thumb Code     0  startup_stm32h743xx.o(.text)
    TIM8_CC_IRQHandler                       0x080002cb   Thumb Code     0  startup_stm32h743xx.o(.text)
    TIM8_TRG_COM_TIM14_IRQHandler            0x080002cb   Thumb Code     0  startup_stm32h743xx.o(.text)
    TIM8_UP_TIM13_IRQHandler                 0x080002cb   Thumb Code     0  startup_stm32h743xx.o(.text)
    UART4_IRQHandler                         0x080002cb   Thumb Code     0  startup_stm32h743xx.o(.text)
    UART5_IRQHandler                         0x080002cb   Thumb Code     0  startup_stm32h743xx.o(.text)
    UART7_IRQHandler                         0x080002cb   Thumb Code     0  startup_stm32h743xx.o(.text)
    UART8_IRQHandler                         0x080002cb   Thumb Code     0  startup_stm32h743xx.o(.text)
    USART2_IRQHandler                        0x080002cb   Thumb Code     0  startup_stm32h743xx.o(.text)
    USART3_IRQHandler                        0x080002cb   Thumb Code     0  startup_stm32h743xx.o(.text)
    USART6_IRQHandler                        0x080002cb   Thumb Code     0  startup_stm32h743xx.o(.text)
    WAKEUP_PIN_IRQHandler                    0x080002cb   Thumb Code     0  startup_stm32h743xx.o(.text)
    WWDG_IRQHandler                          0x080002cb   Thumb Code     0  startup_stm32h743xx.o(.text)
    __aeabi_uldivmod                         0x080002d5   Thumb Code    98  uldiv.o(.text)
    rand                                     0x08000339   Thumb Code    20  rand.o(.text)
    srand                                    0x0800034d   Thumb Code     6  rand.o(.text)
    ___aeabi_memcpy4$move                    0x0800035d   Thumb Code     0  memmovea.o(.text)
    ___aeabi_memcpy8$move                    0x0800035d   Thumb Code     0  memmovea.o(.text)
    __aeabi_memcpy                           0x0800035d   Thumb Code    64  memmovea.o(.text)
    __aeabi_memmove                          0x0800035d   Thumb Code     0  memmovea.o(.text)
    __aeabi_memmove4                         0x0800035d   Thumb Code     0  memmovea.o(.text)
    __aeabi_memmove8                         0x0800035d   Thumb Code     0  memmovea.o(.text)
    __aeabi_memset                           0x0800039d   Thumb Code    14  memseta.o(.text)
    __aeabi_memset4                          0x0800039d   Thumb Code     0  memseta.o(.text)
    __aeabi_memset8                          0x0800039d   Thumb Code     0  memseta.o(.text)
    __aeabi_memclr                           0x080003ab   Thumb Code     4  memseta.o(.text)
    __aeabi_memclr4                          0x080003ab   Thumb Code     0  memseta.o(.text)
    __aeabi_memclr8                          0x080003ab   Thumb Code     0  memseta.o(.text)
    _memset$wrapper                          0x080003af   Thumb Code    18  memseta.o(.text)
    strlen                                   0x080003c1   Thumb Code    14  strlen.o(.text)
    memcmp                                   0x080003cf   Thumb Code    26  memcmp.o(.text)
    __aeabi_uidiv                            0x080003e9   Thumb Code     0  uidiv.o(.text)
    __aeabi_uidivmod                         0x080003e9   Thumb Code    44  uidiv.o(.text)
    __aeabi_llsl                             0x08000415   Thumb Code    30  llshl.o(.text)
    _ll_shift_l                              0x08000415   Thumb Code     0  llshl.o(.text)
    __aeabi_llsr                             0x08000433   Thumb Code    32  llushr.o(.text)
    _ll_ushift_r                             0x08000433   Thumb Code     0  llushr.o(.text)
    __scatterload                            0x08000455   Thumb Code    28  init.o(.text)
    __scatterload_rt2                        0x08000455   Thumb Code     0  init.o(.text)
    __decompress                             0x08000479   Thumb Code     0  __dczerorl2.o(.text)
    __decompress1                            0x08000479   Thumb Code    86  __dczerorl2.o(.text)
    BusFault_Handler                         0x080004cf   Thumb Code     4  stm32h7xx_it.o(i.BusFault_Handler)
    DebugMon_Handler                         0x080004d3   Thumb Code     2  stm32h7xx_it.o(i.DebugMon_Handler)
    ETH_IRQHandler                           0x08000589   Thumb Code    26  lwip.o(i.ETH_IRQHandler)
    ETH_PHY_IO_DeInit                        0x080006b3   Thumb Code     4  ethernetif.o(i.ETH_PHY_IO_DeInit)
    ETH_PHY_IO_GetTick                       0x080006b7   Thumb Code     8  ethernetif.o(i.ETH_PHY_IO_GetTick)
    ETH_PHY_IO_Init                          0x080006c1   Thumb Code    12  ethernetif.o(i.ETH_PHY_IO_Init)
    ETH_PHY_IO_ReadReg                       0x080006d1   Thumb Code    32  ethernetif.o(i.ETH_PHY_IO_ReadReg)
    ETH_PHY_IO_WriteReg                      0x080006f5   Thumb Code    32  ethernetif.o(i.ETH_PHY_IO_WriteReg)
    ETH_WKUP_IRQHandler                      0x08000dd1   Thumb Code    10  stm32h7xx_it.o(i.ETH_WKUP_IRQHandler)
    Error_Handler                            0x08000de1   Thumb Code     6  main.o(i.Error_Handler)
    HAL_DMA_Abort                            0x08000fa9   Thumb Code  1236  stm32h7xx_hal_dma.o(i.HAL_DMA_Abort)
    HAL_DMA_Abort_IT                         0x08001485   Thumb Code   906  stm32h7xx_hal_dma.o(i.HAL_DMA_Abort_IT)
    HAL_Delay                                0x0800181d   Thumb Code    36  stm32h7xx_hal.o(i.HAL_Delay)
    HAL_ETH_EEECallback                      0x08001845   Thumb Code     2  stm32h7xx_hal_eth.o(i.HAL_ETH_EEECallback)
    HAL_ETH_ErrorCallback                    0x08001847   Thumb Code     2  stm32h7xx_hal_eth.o(i.HAL_ETH_ErrorCallback)
    HAL_ETH_GetMACConfig                     0x08001849   Thumb Code   470  stm32h7xx_hal_eth.o(i.HAL_ETH_GetMACConfig)
    HAL_ETH_IRQHandler                       0x08001a21   Thumb Code   444  stm32h7xx_hal_eth.o(i.HAL_ETH_IRQHandler)
    HAL_ETH_Init                             0x08001be1   Thumb Code   346  stm32h7xx_hal_eth.o(i.HAL_ETH_Init)
    HAL_ETH_MspInit                          0x08001d49   Thumb Code   516  ethernetif.o(i.HAL_ETH_MspInit)
    HAL_ETH_PMTCallback                      0x08001f71   Thumb Code     2  stm32h7xx_hal_eth.o(i.HAL_ETH_PMTCallback)
    HAL_ETH_ReadData                         0x08001f73   Thumb Code   256  stm32h7xx_hal_eth.o(i.HAL_ETH_ReadData)
    HAL_ETH_ReadPHYRegister                  0x08002073   Thumb Code   120  stm32h7xx_hal_eth.o(i.HAL_ETH_ReadPHYRegister)
    HAL_ETH_RxAllocateCallback               0x080020ed   Thumb Code    60  ethernetif.o(i.HAL_ETH_RxAllocateCallback)
    HAL_ETH_RxCpltCallback                   0x08002135   Thumb Code     2  stm32h7xx_hal_eth.o(i.HAL_ETH_RxCpltCallback)
    HAL_ETH_RxLinkCallback                   0x08002139   Thumb Code   158  ethernetif.o(i.HAL_ETH_RxLinkCallback)
    HAL_ETH_SetMACConfig                     0x080021dd   Thumb Code    36  stm32h7xx_hal_eth.o(i.HAL_ETH_SetMACConfig)
    HAL_ETH_SetMDIOClockRange                0x08002201   Thumb Code   100  stm32h7xx_hal_eth.o(i.HAL_ETH_SetMDIOClockRange)
    HAL_ETH_Start_IT                         0x08002279   Thumb Code   216  stm32h7xx_hal_eth.o(i.HAL_ETH_Start_IT)
    HAL_ETH_Stop                             0x08002359   Thumb Code   116  stm32h7xx_hal_eth.o(i.HAL_ETH_Stop)
    HAL_ETH_Transmit                         0x080023cd   Thumb Code   246  stm32h7xx_hal_eth.o(i.HAL_ETH_Transmit)
    HAL_ETH_TxCpltCallback                   0x080024c3   Thumb Code     2  stm32h7xx_hal_eth.o(i.HAL_ETH_TxCpltCallback)
    HAL_ETH_WakeUpCallback                   0x080024c5   Thumb Code     2  stm32h7xx_hal_eth.o(i.HAL_ETH_WakeUpCallback)
    HAL_ETH_WritePHYRegister                 0x080024c9   Thumb Code   118  stm32h7xx_hal_eth.o(i.HAL_ETH_WritePHYRegister)
    HAL_GPIO_Init                            0x08002549   Thumb Code   456  stm32h7xx_hal_gpio.o(i.HAL_GPIO_Init)
    HAL_GPIO_WritePin                        0x08002745   Thumb Code    12  stm32h7xx_hal_gpio.o(i.HAL_GPIO_WritePin)
    HAL_GetREVID                             0x08002751   Thumb Code     8  stm32h7xx_hal.o(i.HAL_GetREVID)
    HAL_GetTick                              0x0800275d   Thumb Code     6  stm32h7xx_hal.o(i.HAL_GetTick)
    HAL_IncTick                              0x08002769   Thumb Code    16  stm32h7xx_hal.o(i.HAL_IncTick)
    HAL_Init                                 0x08002781   Thumb Code    80  stm32h7xx_hal.o(i.HAL_Init)
    HAL_InitTick                             0x080027e1   Thumb Code    74  stm32h7xx_hal.o(i.HAL_InitTick)
    HAL_MPU_ConfigRegion                     0x08002839   Thumb Code    88  stm32h7xx_hal_cortex.o(i.HAL_MPU_ConfigRegion)
    HAL_MPU_Disable                          0x08002895   Thumb Code    38  stm32h7xx_hal_cortex.o(i.HAL_MPU_Disable)
    HAL_MPU_Enable                           0x080028c1   Thumb Code    58  stm32h7xx_hal_cortex.o(i.HAL_MPU_Enable)
    HAL_MspInit                              0x08002901   Thumb Code    32  stm32h7xx_hal_msp.o(i.HAL_MspInit)
    HAL_NVIC_EnableIRQ                       0x08002925   Thumb Code    40  stm32h7xx_hal_cortex.o(i.HAL_NVIC_EnableIRQ)
    HAL_NVIC_SetPriority                     0x0800294d   Thumb Code   122  stm32h7xx_hal_cortex.o(i.HAL_NVIC_SetPriority)
    HAL_NVIC_SetPriorityGrouping             0x080029c9   Thumb Code    32  stm32h7xx_hal_cortex.o(i.HAL_NVIC_SetPriorityGrouping)
    HAL_PWREx_ConfigSupply                   0x080029f1   Thumb Code    90  stm32h7xx_hal_pwr_ex.o(i.HAL_PWREx_ConfigSupply)
    HAL_RCCEx_GetD3PCLK1Freq                 0x08002a51   Thumb Code    26  stm32h7xx_hal_rcc_ex.o(i.HAL_RCCEx_GetD3PCLK1Freq)
    HAL_RCCEx_GetPLL2ClockFreq               0x08002a75   Thumb Code   536  stm32h7xx_hal_rcc_ex.o(i.HAL_RCCEx_GetPLL2ClockFreq)
    HAL_RCCEx_GetPLL3ClockFreq               0x08002ca5   Thumb Code   536  stm32h7xx_hal_rcc_ex.o(i.HAL_RCCEx_GetPLL3ClockFreq)
    HAL_RCCEx_PeriphCLKConfig                0x08002ed5   Thumb Code  3432  stm32h7xx_hal_rcc_ex.o(i.HAL_RCCEx_PeriphCLKConfig)
    HAL_RCC_ClockConfig                      0x08003c3d   Thumb Code   774  stm32h7xx_hal_rcc.o(i.HAL_RCC_ClockConfig)
    HAL_RCC_GetHCLKFreq                      0x08003f5d   Thumb Code    60  stm32h7xx_hal_rcc.o(i.HAL_RCC_GetHCLKFreq)
    HAL_RCC_GetPCLK1Freq                     0x08003fa9   Thumb Code    26  stm32h7xx_hal_rcc.o(i.HAL_RCC_GetPCLK1Freq)
    HAL_RCC_GetPCLK2Freq                     0x08003fcd   Thumb Code    26  stm32h7xx_hal_rcc.o(i.HAL_RCC_GetPCLK2Freq)
    HAL_RCC_GetSysClockFreq                  0x08003ff1   Thumb Code   524  stm32h7xx_hal_rcc.o(i.HAL_RCC_GetSysClockFreq)
    HAL_RCC_OscConfig                        0x0800421d   Thumb Code  2130  stm32h7xx_hal_rcc.o(i.HAL_RCC_OscConfig)
    HAL_SYSCFG_ETHInterfaceSelect            0x08004a75   Thumb Code    16  stm32h7xx_hal.o(i.HAL_SYSCFG_ETHInterfaceSelect)
    HAL_SYSTICK_Config                       0x08004a89   Thumb Code    52  stm32h7xx_hal_cortex.o(i.HAL_SYSTICK_Config)
    HAL_UARTEx_DisableFifoMode               0x08004abd   Thumb Code    78  stm32h7xx_hal_uart_ex.o(i.HAL_UARTEx_DisableFifoMode)
    HAL_UARTEx_RxEventCallback               0x08004b0b   Thumb Code     2  stm32h7xx_hal_uart.o(i.HAL_UARTEx_RxEventCallback)
    HAL_UARTEx_RxFifoFullCallback            0x08004b0d   Thumb Code     2  stm32h7xx_hal_uart_ex.o(i.HAL_UARTEx_RxFifoFullCallback)
    HAL_UARTEx_SetRxFifoThreshold            0x08004b0f   Thumb Code    94  stm32h7xx_hal_uart_ex.o(i.HAL_UARTEx_SetRxFifoThreshold)
    HAL_UARTEx_SetTxFifoThreshold            0x08004b6d   Thumb Code    94  stm32h7xx_hal_uart_ex.o(i.HAL_UARTEx_SetTxFifoThreshold)
    HAL_UARTEx_TxFifoEmptyCallback           0x08004bcb   Thumb Code     2  stm32h7xx_hal_uart_ex.o(i.HAL_UARTEx_TxFifoEmptyCallback)
    HAL_UARTEx_WakeupCallback                0x08004bcd   Thumb Code     2  stm32h7xx_hal_uart_ex.o(i.HAL_UARTEx_WakeupCallback)
    HAL_UART_ErrorCallback                   0x08004bcf   Thumb Code     2  stm32h7xx_hal_uart.o(i.HAL_UART_ErrorCallback)
    HAL_UART_IRQHandler                      0x08004bd1   Thumb Code  1172  stm32h7xx_hal_uart.o(i.HAL_UART_IRQHandler)
    HAL_UART_Init                            0x08005065   Thumb Code   120  stm32h7xx_hal_uart.o(i.HAL_UART_Init)
    HAL_UART_MspInit                         0x080050dd   Thumb Code   184  usart.o(i.HAL_UART_MspInit)
    HAL_UART_TxCpltCallback                  0x080051a1   Thumb Code     2  stm32h7xx_hal_uart.o(i.HAL_UART_TxCpltCallback)
    HardFault_Handler                        0x080051a3   Thumb Code     4  stm32h7xx_it.o(i.HardFault_Handler)
    LAN8742_GetLinkState                     0x080051a7   Thumb Code   232  lan8742.o(i.LAN8742_GetLinkState)
    LAN8742_Init                             0x0800528f   Thumb Code   254  lan8742.o(i.LAN8742_Init)
    LAN8742_RegisterBusIO                    0x0800538d   Thumb Code    46  lan8742.o(i.LAN8742_RegisterBusIO)
    MX_GPIO_Init                             0x0800541d   Thumb Code   284  gpio.o(i.MX_GPIO_Init)
    MX_LWIP_Init                             0x08005541   Thumb Code   536  lwip.o(i.MX_LWIP_Init)
    MX_LWIP_Process                          0x08005781   Thumb Code    14  lwip.o(i.MX_LWIP_Process)
    MX_USART1_UART_Init                      0x08005795   Thumb Code    98  usart.o(i.MX_USART1_UART_Init)
    MemManage_Handler                        0x08005801   Thumb Code     4  stm32h7xx_it.o(i.MemManage_Handler)
    NMI_Handler                              0x08005805   Thumb Code     4  stm32h7xx_it.o(i.NMI_Handler)
    PendSV_Handler                           0x08005809   Thumb Code     2  stm32h7xx_it.o(i.PendSV_Handler)
    SVC_Handler                              0x08005ad5   Thumb Code     2  stm32h7xx_it.o(i.SVC_Handler)
    SysTick_Handler                          0x08005ad7   Thumb Code     8  stm32h7xx_it.o(i.SysTick_Handler)
    SystemClock_Config                       0x08005ae1   Thumb Code   302  main.o(i.SystemClock_Config)
    SystemInit                               0x08005c1d   Thumb Code   212  system_stm32h7xx.o(i.SystemInit)
    TCP_Client_Init                          0x08005d19   Thumb Code    88  tcp_client.o(i.TCP_Client_Init)
    TCP_Client_Task                          0x08005dbd   Thumb Code    38  tcp_client.o(i.TCP_Client_Task)
    TCP_Server_Init                          0x08005de9   Thumb Code    70  tcp_server.o(i.TCP_Server_Init)
    UART_AdvFeatureConfig                    0x08005e99   Thumb Code   248  stm32h7xx_hal_uart.o(i.UART_AdvFeatureConfig)
    UART_CheckIdleState                      0x08005f91   Thumb Code   234  stm32h7xx_hal_uart.o(i.UART_CheckIdleState)
    UART_SetConfig                           0x08006131   Thumb Code  1402  stm32h7xx_hal_uart.o(i.UART_SetConfig)
    UART_WaitOnFlagUntilTimeout              0x080066bd   Thumb Code   162  stm32h7xx_hal_uart.o(i.UART_WaitOnFlagUntilTimeout)
    USART1_IRQHandler                        0x08006761   Thumb Code    10  stm32h7xx_it.o(i.USART1_IRQHandler)
    Udp_Lwip_Init                            0x08006771   Thumb Code    88  lwip_udp.o(i.Udp_Lwip_Init)
    UsageFault_Handler                       0x080067d5   Thumb Code     4  stm32h7xx_it.o(i.UsageFault_Handler)
    __0printf$3                              0x080067d9   Thumb Code    22  printf3.o(i.__0printf$3)
    __1printf$3                              0x080067d9   Thumb Code     0  printf3.o(i.__0printf$3)
    __2printf                                0x080067d9   Thumb Code     0  printf3.o(i.__0printf$3)
    __scatterload_copy                       0x08006831   Thumb Code    14  handlers.o(i.__scatterload_copy)
    __scatterload_null                       0x0800683f   Thumb Code     2  handlers.o(i.__scatterload_null)
    __scatterload_zeroinit                   0x08006841   Thumb Code    14  handlers.o(i.__scatterload_zeroinit)
    clear_data                               0x08006a09   Thumb Code    42  fifomem.o(i.clear_data)
    client_set_remote_ip                     0x08006ab9   Thumb Code   266  tcp_client.o(i.client_set_remote_ip)
    etharp_cleanup_netif                     0x08006d31   Thumb Code    50  etharp.o(i.etharp_cleanup_netif)
    etharp_input                             0x080070a9   Thumb Code   202  etharp.o(i.etharp_input)
    etharp_output                            0x080071e5   Thumb Code   396  etharp.o(i.etharp_output)
    etharp_query                             0x08007571   Thumb Code   474  etharp.o(i.etharp_query)
    etharp_request                           0x080079a1   Thumb Code    18  etharp.o(i.etharp_request)
    etharp_tmr                               0x080079e5   Thumb Code   214  etharp.o(i.etharp_tmr)
    ethernet_input                           0x08007c1d   Thumb Code   190  ethernet.o(i.ethernet_input)
    ethernet_link_check_state                0x08007ce1   Thumb Code   196  ethernetif.o(i.ethernet_link_check_state)
    ethernet_output                          0x08007e0d   Thumb Code   112  ethernet.o(i.ethernet_output)
    ethernetif_init                          0x08007f11   Thumb Code    58  ethernetif.o(i.ethernetif_init)
    ethernetif_input                         0x08007fa9   Thumb Code    90  ethernetif.o(i.ethernetif_input)
    fifo_init                                0x0800800d   Thumb Code    14  fifomem.o(i.fifo_init)
    fputc                                    0x0800816d   Thumb Code    22  main.o(i.fputc)
    icmp_dest_unreach                        0x08008189   Thumb Code    18  icmp.o(i.icmp_dest_unreach)
    icmp_input                               0x0800819d   Thumb Code   466  icmp.o(i.icmp_input)
    icmp_time_exceeded                       0x08008565   Thumb Code    18  icmp.o(i.icmp_time_exceeded)
    inet_chksum                              0x08008577   Thumb Code    20  inet_chksum.o(i.inet_chksum)
    inet_chksum_pbuf                         0x0800858b   Thumb Code    86  inet_chksum.o(i.inet_chksum_pbuf)
    ip4_addr_isbroadcast_u32                 0x080085e1   Thumb Code    78  ip4_addr.o(i.ip4_addr_isbroadcast_u32)
    ip4_frag                                 0x08008631   Thumb Code   536  ip4_frag.o(i.ip4_frag)
    ip4_input                                0x080088fd   Thumb Code   402  ip4.o(i.ip4_input)
    ip4_output_if                            0x08008acd   Thumb Code    54  ip4.o(i.ip4_output_if)
    ip4_output_if_src                        0x08008b05   Thumb Code   250  ip4.o(i.ip4_output_if_src)
    ip4_reass                                0x08008ca1   Thumb Code   584  ip4_frag.o(i.ip4_reass)
    ip4_route                                0x08008f9d   Thumb Code   140  ip4.o(i.ip4_route)
    ip_reass_tmr                             0x08009759   Thumb Code    48  ip4_frag.o(i.ip_reass_tmr)
    lwip_htonl                               0x08009b71   Thumb Code    26  def.o(i.lwip_htonl)
    lwip_htons                               0x08009b8b   Thumb Code    12  def.o(i.lwip_htons)
    lwip_init                                0x08009b99   Thumb Code    64  init.o(i.lwip_init)
    lwip_standard_chksum                     0x08009c35   Thumb Code    94  inet_chksum.o(i.lwip_standard_chksum)
    lwip_udp_discollected                    0x08009c95   Thumb Code    32  lwip_udp.o(i.lwip_udp_discollected)
    lwip_udp_recv_callback                   0x08009cb9   Thumb Code   166  lwip_udp.o(i.lwip_udp_recv_callback)
    lwip_udp_register                        0x08009d65   Thumb Code    22  lwip_udp.o(i.lwip_udp_register)
    lwip_udp_send                            0x08009d81   Thumb Code    68  lwip_udp.o(i.lwip_udp_send)
    lwip_udp_set_remote_ip                   0x08009dc9   Thumb Code   260  lwip_udp.o(i.lwip_udp_set_remote_ip)
    main                                     0x08009ed9   Thumb Code   350  main.o(i.main)
    mem_free                                 0x0800a04d   Thumb Code   194  mem.o(i.mem_free)
    mem_init                                 0x0800a211   Thumb Code    72  mem.o(i.mem_init)
    mem_malloc                               0x0800a2c1   Thumb Code   402  mem.o(i.mem_malloc)
    mem_trim                                 0x0800a579   Thumb Code   388  mem.o(i.mem_trim)
    memp_free                                0x0800a7ad   Thumb Code    54  memp.o(i.memp_free)
    memp_free_pool                           0x0800a85d   Thumb Code    50  memp.o(i.memp_free_pool)
    memp_init                                0x0800a8fd   Thumb Code    26  memp.o(i.memp_init)
    memp_init_pool                           0x0800a91d   Thumb Code    44  memp.o(i.memp_init_pool)
    memp_malloc                              0x0800a949   Thumb Code    50  memp.o(i.memp_malloc)
    memp_malloc_pool                         0x0800a9f9   Thumb Code    44  memp.o(i.memp_malloc_pool)
    netif_add                                0x0800aa91   Thumb Code   318  netif.o(i.netif_add)
    netif_get_by_index                       0x0800ae09   Thumb Code    36  netif.o(i.netif_get_by_index)
    netif_init                               0x0800ae31   Thumb Code     2  netif.o(i.netif_init)
    netif_set_addr                           0x0800af15   Thumb Code    92  netif.o(i.netif_set_addr)
    netif_set_default                        0x0800af75   Thumb Code     6  netif.o(i.netif_set_default)
    netif_set_down                           0x0800af81   Thumb Code    78  netif.o(i.netif_set_down)
    netif_set_link_callback                  0x0800b04d   Thumb Code     6  netif.o(i.netif_set_link_callback)
    netif_set_link_down                      0x0800b055   Thumb Code    76  netif.o(i.netif_set_link_down)
    netif_set_link_up                        0x0800b121   Thumb Code    84  netif.o(i.netif_set_link_up)
    netif_set_up                             0x0800b1f5   Thumb Code    70  netif.o(i.netif_set_up)
    pbuf_add_header                          0x0800b2b5   Thumb Code    18  pbuf.o(i.pbuf_add_header)
    pbuf_alloc                               0x0800b3b1   Thumb Code   414  pbuf.o(i.pbuf_alloc)
    pbuf_alloc_reference                     0x0800b655   Thumb Code    78  pbuf.o(i.pbuf_alloc_reference)
    pbuf_alloced_custom                      0x0800b711   Thumb Code    82  pbuf.o(i.pbuf_alloced_custom)
    pbuf_cat                                 0x0800b765   Thumb Code   126  pbuf.o(i.pbuf_cat)
    pbuf_chain                               0x0800b8b5   Thumb Code    22  pbuf.o(i.pbuf_chain)
    pbuf_clen                                0x0800b8cb   Thumb Code    18  pbuf.o(i.pbuf_clen)
    pbuf_clone                               0x0800b8dd   Thumb Code    68  pbuf.o(i.pbuf_clone)
    pbuf_copy                                0x0800b98d   Thumb Code   304  pbuf.o(i.pbuf_copy)
    pbuf_copy_partial                        0x0800bbb5   Thumb Code   164  pbuf.o(i.pbuf_copy_partial)
    pbuf_free                                0x0800bcf5   Thumb Code   230  pbuf.o(i.pbuf_free)
    pbuf_free_custom                         0x0800be91   Thumb Code    30  ethernetif.o(i.pbuf_free_custom)
    pbuf_free_ooseq                          0x0800beb9   Thumb Code    40  pbuf.o(i.pbuf_free_ooseq)
    pbuf_header_force                        0x0800bee9   Thumb Code    18  pbuf.o(i.pbuf_header_force)
    pbuf_realloc                             0x0800bf4d   Thumb Code   194  pbuf.o(i.pbuf_realloc)
    pbuf_ref                                 0x0800c0b5   Thumb Code    48  pbuf.o(i.pbuf_ref)
    pbuf_remove_header                       0x0800c151   Thumb Code   110  pbuf.o(i.pbuf_remove_header)
    pbuf_take                                0x0800c245   Thumb Code   234  pbuf.o(i.pbuf_take)
    server_set_local_ip                      0x0800c5f5   Thumb Code   258  tcp_server.o(i.server_set_local_ip)
    sys_check_timeouts                       0x0800c705   Thumb Code    88  timeouts.o(i.sys_check_timeouts)
    sys_now                                  0x0800c769   Thumb Code     8  ethernetif.o(i.sys_now)
    sys_timeout                              0x0800c771   Thumb Code    58  timeouts.o(i.sys_timeout)
    sys_timeouts_init                        0x0800c981   Thumb Code    30  timeouts.o(i.sys_timeouts_init)
    tcp_abandon                              0x0800c9a9   Thumb Code   284  tcp.o(i.tcp_abandon)
    tcp_abort                                0x0800cb7d   Thumb Code    14  tcp.o(i.tcp_abort)
    tcp_accept                               0x0800cb8b   Thumb Code    16  tcp.o(i.tcp_accept)
    tcp_alloc                                0x0800cc45   Thumb Code   176  tcp.o(i.tcp_alloc)
    tcp_arg                                  0x0800cd01   Thumb Code     6  tcp.o(i.tcp_arg)
    tcp_bind                                 0x0800cd09   Thumb Code   204  tcp.o(i.tcp_bind)
    tcp_client_connection_close              0x0800ce79   Thumb Code    68  tcp_client.o(i.tcp_client_connection_close)
    tcp_close                                0x0800d0e5   Thumb Code    64  tcp.o(i.tcp_close)
    tcp_connect                              0x0800d489   Thumb Code   402  tcp.o(i.tcp_connect)
    tcp_eff_send_mss_netif                   0x0800d8bd   Thumb Code    82  tcp.o(i.tcp_eff_send_mss_netif)
    tcp_enqueue_flags                        0x0800d991   Thumb Code   408  tcp_out.o(i.tcp_enqueue_flags)
    tcp_err                                  0x0800dc51   Thumb Code    44  tcp.o(i.tcp_err)
    tcp_fasttmr                              0x0800dcfd   Thumb Code   142  tcp.o(i.tcp_fasttmr)
    tcp_free                                 0x0800dd99   Thumb Code    40  tcp.o(i.tcp_free)
    tcp_free_ooseq                           0x0800e025   Thumb Code    20  tcp.o(i.tcp_free_ooseq)
    tcp_init                                 0x0800e0b5   Thumb Code    20  tcp.o(i.tcp_init)
    tcp_input                                0x0800e0cd   Thumb Code  1996  tcp_in.o(i.tcp_input)
    tcp_keepalive                            0x0800e9cd   Thumb Code    98  tcp_out.o(i.tcp_keepalive)
    tcp_listen_with_backlog                  0x0800eee5   Thumb Code    18  tcp.o(i.tcp_listen_with_backlog)
    tcp_listen_with_backlog_and_err          0x0800eef9   Thumb Code   246  tcp.o(i.tcp_listen_with_backlog_and_err)
    tcp_netif_ip_addr_changed                0x0800f0bd   Thumb Code    64  tcp.o(i.tcp_netif_ip_addr_changed)
    tcp_new                                  0x0800f1d9   Thumb Code    10  tcp.o(i.tcp_new)
    tcp_next_iss                             0x0800f24d   Thumb Code    50  tcp.o(i.tcp_next_iss)
    tcp_output                               0x0800f429   Thumb Code   684  tcp_out.o(i.tcp_output)
    tcp_pcb_purge                            0x08010155   Thumb Code   104  tcp.o(i.tcp_pcb_purge)
    tcp_pcb_remove                           0x08010231   Thumb Code   246  tcp.o(i.tcp_pcb_remove)
    tcp_poll                                 0x08010409   Thumb Code    74  tcp.o(i.tcp_poll)
    tcp_process_refused_data                 0x08010c29   Thumb Code   182  tcp.o(i.tcp_process_refused_data)
    tcp_recv                                 0x080119dd   Thumb Code    44  tcp.o(i.tcp_recv)
    tcp_recv_null                            0x08011a89   Thumb Code    78  tcp.o(i.tcp_recv_null)
    tcp_recved                               0x08011b4d   Thumb Code   132  tcp.o(i.tcp_recved)
    tcp_rexmit                               0x08011d1d   Thumb Code   142  tcp_out.o(i.tcp_rexmit)
    tcp_rexmit_fast                          0x08011e21   Thumb Code   142  tcp_out.o(i.tcp_rexmit_fast)
    tcp_rexmit_rto                           0x08011f2d   Thumb Code    46  tcp_out.o(i.tcp_rexmit_rto)
    tcp_rexmit_rto_commit                    0x08011fd5   Thumb Code    56  tcp_out.o(i.tcp_rexmit_rto_commit)
    tcp_rexmit_rto_prepare                   0x0801208d   Thumb Code   150  tcp_out.o(i.tcp_rexmit_rto_prepare)
    tcp_rst                                  0x080121c5   Thumb Code   146  tcp_out.o(i.tcp_rst)
    tcp_seg_copy                             0x080122ed   Thumb Code    62  tcp.o(i.tcp_seg_copy)
    tcp_seg_free                             0x080123a1   Thumb Code    26  tcp.o(i.tcp_seg_free)
    tcp_segs_free                            0x080123bb   Thumb Code    24  tcp.o(i.tcp_segs_free)
    tcp_send_empty_ack                       0x080123d5   Thumb Code   194  tcp_out.o(i.tcp_send_empty_ack)
    tcp_send_fin                             0x08012515   Thumb Code   104  tcp_out.o(i.tcp_send_fin)
    tcp_sent                                 0x080125f5   Thumb Code    44  tcp.o(i.tcp_sent)
    tcp_slowtmr                              0x080128f1   Thumb Code  1698  tcp.o(i.tcp_slowtmr)
    tcp_split_unsent_seg                     0x08013021   Thumb Code   510  tcp_out.o(i.tcp_split_unsent_seg)
    tcp_timer_needed                         0x080132f1   Thumb Code    38  timeouts.o(i.tcp_timer_needed)
    tcp_tmr                                  0x0801346d   Thumb Code    30  tcp.o(i.tcp_tmr)
    tcp_trigger_input_pcb_close              0x08013491   Thumb Code    14  tcp_in.o(i.tcp_trigger_input_pcb_close)
    tcp_update_rcv_ann_wnd                   0x080134a5   Thumb Code   128  tcp.o(i.tcp_update_rcv_ann_wnd)
    tcp_write                                0x080135bd   Thumb Code  1918  tcp_out.o(i.tcp_write)
    tcp_zero_window_probe                    0x08013f95   Thumb Code   238  tcp_out.o(i.tcp_zero_window_probe)
    udp_bind                                 0x0801413d   Thumb Code   172  udp.o(i.udp_bind)
    udp_connect                              0x08014261   Thumb Code   158  udp.o(i.udp_connect)
    udp_disconnect                           0x08014395   Thumb Code    56  udp.o(i.udp_disconnect)
    udp_init                                 0x08014441   Thumb Code    20  udp.o(i.udp_init)
    udp_input                                0x08014459   Thumb Code   412  udp.o(i.udp_input)
    udp_netif_ip_addr_changed                0x080147dd   Thumb Code    42  udp.o(i.udp_netif_ip_addr_changed)
    udp_new                                  0x0801480d   Thumb Code    28  udp.o(i.udp_new)
    udp_recv                                 0x08014881   Thumb Code    44  udp.o(i.udp_recv)
    udp_remove                               0x0801491d   Thumb Code    94  udp.o(i.udp_remove)
    udp_send                                 0x080149f1   Thumb Code    84  udp.o(i.udp_send)
    udp_sendto                               0x08014acd   Thumb Code   156  udp.o(i.udp_sendto)
    udp_sendto_if                            0x08014c11   Thumb Code   200  udp.o(i.udp_sendto_if)
    udp_sendto_if_src                        0x08014da9   Thumb Code   384  udp.o(i.udp_sendto_if_src)
    memp_RX_POOL                             0x0801505c   Data          12  ethernetif.o(.constdata)
    UARTPrescTable                           0x08015068   Data          24  stm32h7xx_hal_uart.o(.constdata)
    D1CorePrescTable                         0x08015090   Data          16  system_stm32h7xx.o(.constdata)
    ethbroadcast                             0x080150a0   Data           6  ethernet.o(.constdata)
    ethzero                                  0x080150a6   Data           6  ethernet.o(.constdata)
    memp_UDP_PCB                             0x080150ac   Data          12  memp.o(.constdata)
    memp_TCP_PCB                             0x080150b8   Data          12  memp.o(.constdata)
    memp_TCP_PCB_LISTEN                      0x080150c4   Data          12  memp.o(.constdata)
    memp_TCP_SEG                             0x080150d0   Data          12  memp.o(.constdata)
    memp_REASSDATA                           0x080150dc   Data          12  memp.o(.constdata)
    memp_FRAG_PBUF                           0x080150e8   Data          12  memp.o(.constdata)
    memp_SYS_TIMEOUT                         0x080150f4   Data          12  memp.o(.constdata)
    memp_PBUF                                0x08015100   Data          12  memp.o(.constdata)
    memp_PBUF_POOL                           0x0801510c   Data          12  memp.o(.constdata)
    memp_pools                               0x08015118   Data          36  memp.o(.constdata)
    tcp_pcb_lists                            0x0801517c   Data          16  tcp.o(.constdata)
    lwip_cyclic_timers                       0x0801518c   Data          24  timeouts.o(.constdata)
    lwip_num_cyclic_timers                   0x080151a4   Data           4  timeouts.o(.constdata)
    ip_addr_any                              0x080151a8   Data           4  ip4_addr.o(.constdata)
    ip_addr_broadcast                        0x080151ac   Data           4  ip4_addr.o(.constdata)
    Region$$Table$$Base                      0x08015308   Number         0  anon$$obj.o(Region$$Table)
    Region$$Table$$Limit                     0x08015328   Number         0  anon$$obj.o(Region$$Table)
    LAN8742_IOCtx                            0x24000008   Data          20  ethernetif.o(.data)
    EthernetLinkTimer                        0x2400001c   Data           4  lwip.o(.data)
    ipaddr                                   0x24000020   Data           4  lwip.o(.data)
    netmask                                  0x24000024   Data           4  lwip.o(.data)
    gw                                       0x24000028   Data           4  lwip.o(.data)
    IP_ADDRESS                               0x2400002c   Data           4  lwip.o(.data)
    NETMASK_ADDRESS                          0x24000030   Data           4  lwip.o(.data)
    GATEWAY_ADDRESS                          0x24000034   Data           4  lwip.o(.data)
    fifo_manage                              0x24000038   Data          28  fifomem.o(.data)
    aip_server                               0x24000054   Data          20  fifomem.o(.data)
    udp_send_buffer                          0x24000068   Data        1500  lwip_udp.o(.data)
    udp_recv_buffer                          0x24000644   Data        1500  lwip_udp.o(.data)
    udp_device                               0x24000c20   Data          52  lwip_udp.o(.data)
    test_recv_buffer                         0x24000c54   Data       15000  tcp_client.o(.data)
    test_rx_length                           0x240046ec   Data           4  tcp_client.o(.data)
    client_buff_rx_p                         0x240046f0   Data           4  tcp_client.o(.data)
    client_send_buffer                       0x240046f4   Data        1500  tcp_client.o(.data)
    client_recv_buffer                       0x24004cd0   Data        1500  tcp_client.o(.data)
    client_device                            0x240052ac   Data          60  tcp_client.o(.data)
    recv_buff_test                           0x240052e8   Data       15000  tcp_server.o(.data)
    rx_length_test                           0x24008d80   Data           4  tcp_server.o(.data)
    server_buff_rx_p                         0x24008d84   Data           4  tcp_server.o(.data)
    server_send_buffer                       0x24008d88   Data        1500  tcp_server.o(.data)
    server_recv_buffer                       0x24009364   Data        1500  tcp_server.o(.data)
    server_device                            0x24009940   Data          52  tcp_server.o(.data)
    uwTick                                   0x24009974   Data           4  stm32h7xx_hal.o(.data)
    uwTickPrio                               0x24009978   Data           4  stm32h7xx_hal.o(.data)
    uwTickFreq                               0x2400997c   Data           1  stm32h7xx_hal.o(.data)
    SystemCoreClock                          0x24009980   Data           4  system_stm32h7xx.o(.data)
    SystemD2Clock                            0x24009984   Data           4  system_stm32h7xx.o(.data)
    netif_list                               0x240099b8   Data           4  netif.o(.data)
    netif_default                            0x240099bc   Data           4  netif.o(.data)
    pbuf_free_ooseq_pending                  0x240099c1   Data           1  pbuf.o(.data)
    tcp_ticks                                0x240099c8   Data           4  tcp.o(.data)
    tcp_bound_pcbs                           0x240099cc   Data           4  tcp.o(.data)
    tcp_listen_pcbs                          0x240099d0   Data           4  tcp.o(.data)
    tcp_active_pcbs                          0x240099d4   Data           4  tcp.o(.data)
    tcp_tw_pcbs                              0x240099d8   Data           4  tcp.o(.data)
    tcp_active_pcbs_changed                  0x240099dc   Data           1  tcp.o(.data)
    tcp_input_pcb                            0x24009a08   Data           4  tcp_in.o(.data)
    udp_pcbs                                 0x24009a1c   Data           4  udp.o(.data)
    __stdout                                 0x24009a30   Data           4  stdout.o(.data)
    RecvHandle                               0x24009a34   Data        1504  main.o(.bss)
    huart1                                   0x2400a014   Data         148  usart.o(.bss)
    memp_memory_RX_POOL_base                 0x2400a0a8   Data       18819  ethernetif.o(.bss)
    heth                                     0x2400ea2c   Data         176  ethernetif.o(.bss)
    TxConfig                                 0x2400eadc   Data          56  ethernetif.o(.bss)
    LAN8742                                  0x2400eb14   Data          32  ethernetif.o(.bss)
    gnetif                                   0x2400eb34   Data          52  lwip.o(.bss)
    FIFO_Server                              0x2400eb68   Data         192  fifomem.o(.bss)
    ip_data                                  0x2400ec28   Data          24  ip.o(.bss)
    memp_memory_UDP_PCB_base                 0x2400ec40   Data         131  memp.o(.bss)
    memp_memory_TCP_PCB_base                 0x2400ecc3   Data         783  memp.o(.bss)
    memp_memory_TCP_PCB_LISTEN_base          0x2400efd2   Data         227  memp.o(.bss)
    memp_memory_TCP_SEG_base                 0x2400f0b5   Data         259  memp.o(.bss)
    memp_memory_REASSDATA_base               0x2400f1b8   Data         163  memp.o(.bss)
    memp_memory_FRAG_PBUF_base               0x2400f25b   Data         363  memp.o(.bss)
    memp_memory_SYS_TIMEOUT_base             0x2400f3c6   Data          51  memp.o(.bss)
    memp_memory_PBUF_base                    0x2400f3f9   Data         259  memp.o(.bss)
    memp_memory_PBUF_POOL_base               0x2400f4fc   Data       24515  memp.o(.bss)
    __initial_sp                             0x240159c0   Data           0  startup_stm32h743xx.o(STACK)
    DMARxDscrTab                             0x30004000   Data          96  ethernetif.o(.ARM.__AT_0x30004000)
    DMATxDscrTab                             0x30004060   Data          96  ethernetif.o(.ARM.__AT_0x30004060)



==============================================================================

Memory Map of the image

  Image Entry point : 0x08000299

  Load Region LR_IROM1 (Base: 0x08000000, Size: 0x0001ed5c, Max: 0x00200000, ABSOLUTE, COMPRESSED[0x000154f8])

    Execution Region ER_IROM1 (Exec base: 0x08000000, Load base: 0x08000000, Size: 0x00015328, Max: 0x00200000, ABSOLUTE)

    Exec Addr    Load Addr    Size         Type   Attr      Idx    E Section Name        Object

    0x08000000   0x08000000   0x00000298   Data   RO            3    RESET               startup_stm32h743xx.o
    0x08000298   0x08000298   0x00000000   Code   RO         9017  * .ARM.Collect$$$$00000000  mc_w.l(entry.o)
    0x08000298   0x08000298   0x00000004   Code   RO         9332    .ARM.Collect$$$$00000001  mc_w.l(entry2.o)
    0x0800029c   0x0800029c   0x00000004   Code   RO         9335    .ARM.Collect$$$$00000004  mc_w.l(entry5.o)
    0x080002a0   0x080002a0   0x00000000   Code   RO         9337    .ARM.Collect$$$$00000008  mc_w.l(entry7b.o)
    0x080002a0   0x080002a0   0x00000000   Code   RO         9339    .ARM.Collect$$$$0000000A  mc_w.l(entry8b.o)
    0x080002a0   0x080002a0   0x00000008   Code   RO         9340    .ARM.Collect$$$$0000000B  mc_w.l(entry9a.o)
    0x080002a8   0x080002a8   0x00000004   Code   RO         9347    .ARM.Collect$$$$0000000E  mc_w.l(entry12b.o)
    0x080002ac   0x080002ac   0x00000000   Code   RO         9342    .ARM.Collect$$$$0000000F  mc_w.l(entry10a.o)
    0x080002ac   0x080002ac   0x00000000   Code   RO         9344    .ARM.Collect$$$$00000011  mc_w.l(entry11a.o)
    0x080002ac   0x080002ac   0x00000004   Code   RO         9333    .ARM.Collect$$$$00002712  mc_w.l(entry2.o)
    0x080002b0   0x080002b0   0x00000024   Code   RO            4    .text               startup_stm32h743xx.o
    0x080002d4   0x080002d4   0x00000062   Code   RO         9020    .text               mc_w.l(uldiv.o)
    0x08000336   0x08000336   0x00000002   PAD
    0x08000338   0x08000338   0x00000024   Code   RO         9050    .text               mc_w.l(rand.o)
    0x0800035c   0x0800035c   0x00000040   Code   RO         9055    .text               mc_w.l(memmovea.o)
    0x0800039c   0x0800039c   0x00000024   Code   RO         9057    .text               mc_w.l(memseta.o)
    0x080003c0   0x080003c0   0x0000000e   Code   RO         9059    .text               mc_w.l(strlen.o)
    0x080003ce   0x080003ce   0x0000001a   Code   RO         9061    .text               mc_w.l(memcmp.o)
    0x080003e8   0x080003e8   0x0000002c   Code   RO         9349    .text               mc_w.l(uidiv.o)
    0x08000414   0x08000414   0x0000001e   Code   RO         9351    .text               mc_w.l(llshl.o)
    0x08000432   0x08000432   0x00000020   Code   RO         9353    .text               mc_w.l(llushr.o)
    0x08000452   0x08000452   0x00000002   PAD
    0x08000454   0x08000454   0x00000024   Code   RO         9375    .text               mc_w.l(init.o)
    0x08000478   0x08000478   0x00000056   Code   RO         9393    .text               mc_w.l(__dczerorl2.o)
    0x080004ce   0x080004ce   0x00000004   Code   RO          527    i.BusFault_Handler  stm32h7xx_it.o
    0x080004d2   0x080004d2   0x00000002   Code   RO          528    i.DebugMon_Handler  stm32h7xx_it.o
    0x080004d4   0x080004d4   0x00000060   Code   RO         1534    i.ETH_DMARxDescListInit  stm32h7xx_hal_eth.o
    0x08000534   0x08000534   0x00000052   Code   RO         1535    i.ETH_DMATxDescListInit  stm32h7xx_hal_eth.o
    0x08000586   0x08000586   0x00000002   PAD
    0x08000588   0x08000588   0x00000024   Code   RO          978    i.ETH_IRQHandler    lwip.o
    0x080005ac   0x080005ac   0x00000106   Code   RO         1536    i.ETH_MACDMAConfig  stm32h7xx_hal_eth.o
    0x080006b2   0x080006b2   0x00000004   Code   RO          639    i.ETH_PHY_IO_DeInit  ethernetif.o
    0x080006b6   0x080006b6   0x00000008   Code   RO          640    i.ETH_PHY_IO_GetTick  ethernetif.o
    0x080006be   0x080006be   0x00000002   PAD
    0x080006c0   0x080006c0   0x00000010   Code   RO          641    i.ETH_PHY_IO_Init   ethernetif.o
    0x080006d0   0x080006d0   0x00000024   Code   RO          642    i.ETH_PHY_IO_ReadReg  ethernetif.o
    0x080006f4   0x080006f4   0x00000024   Code   RO          643    i.ETH_PHY_IO_WriteReg  ethernetif.o
    0x08000718   0x08000718   0x000003d0   Code   RO         1537    i.ETH_Prepare_Tx_Descriptors  stm32h7xx_hal_eth.o
    0x08000ae8   0x08000ae8   0x000000bc   Code   RO         1538    i.ETH_SetDMAConfig  stm32h7xx_hal_eth.o
    0x08000ba4   0x08000ba4   0x00000194   Code   RO         1539    i.ETH_SetMACConfig  stm32h7xx_hal_eth.o
    0x08000d38   0x08000d38   0x00000098   Code   RO         1540    i.ETH_UpdateDescriptor  stm32h7xx_hal_eth.o
    0x08000dd0   0x08000dd0   0x00000010   Code   RO          529    i.ETH_WKUP_IRQHandler  stm32h7xx_it.o
    0x08000de0   0x08000de0   0x00000006   Code   RO           13    i.Error_Handler     main.o
    0x08000de6   0x08000de6   0x00000002   PAD
    0x08000de8   0x08000de8   0x00000028   Code   RO          979    i.Ethernet_Link_Periodic_Handle  lwip.o
    0x08000e10   0x08000e10   0x00000198   Code   RO         1080    i.FIFO_List_Init    fifomem.o
    0x08000fa8   0x08000fa8   0x000004dc   Code   RO         2739    i.HAL_DMA_Abort     stm32h7xx_hal_dma.o
    0x08001484   0x08001484   0x00000398   Code   RO         2740    i.HAL_DMA_Abort_IT  stm32h7xx_hal_dma.o
    0x0800181c   0x0800181c   0x00000028   Code   RO         3594    i.HAL_Delay         stm32h7xx_hal.o
    0x08001844   0x08001844   0x00000002   Code   RO         1542    i.HAL_ETH_EEECallback  stm32h7xx_hal_eth.o
    0x08001846   0x08001846   0x00000002   Code   RO         1544    i.HAL_ETH_ErrorCallback  stm32h7xx_hal_eth.o
    0x08001848   0x08001848   0x000001d6   Code   RO         1549    i.HAL_ETH_GetMACConfig  stm32h7xx_hal_eth.o
    0x08001a1e   0x08001a1e   0x00000002   PAD
    0x08001a20   0x08001a20   0x000001c0   Code   RO         1555    i.HAL_ETH_IRQHandler  stm32h7xx_hal_eth.o
    0x08001be0   0x08001be0   0x00000168   Code   RO         1556    i.HAL_ETH_Init      stm32h7xx_hal_eth.o
    0x08001d48   0x08001d48   0x00000228   Code   RO          645    i.HAL_ETH_MspInit   ethernetif.o
    0x08001f70   0x08001f70   0x00000002   Code   RO         1559    i.HAL_ETH_PMTCallback  stm32h7xx_hal_eth.o
    0x08001f72   0x08001f72   0x00000100   Code   RO         1560    i.HAL_ETH_ReadData  stm32h7xx_hal_eth.o
    0x08002072   0x08002072   0x00000078   Code   RO         1561    i.HAL_ETH_ReadPHYRegister  stm32h7xx_hal_eth.o
    0x080020ea   0x080020ea   0x00000002   PAD
    0x080020ec   0x080020ec   0x00000048   Code   RO          646    i.HAL_ETH_RxAllocateCallback  ethernetif.o
    0x08002134   0x08002134   0x00000002   Code   RO         1567    i.HAL_ETH_RxCpltCallback  stm32h7xx_hal_eth.o
    0x08002136   0x08002136   0x00000002   PAD
    0x08002138   0x08002138   0x000000a4   Code   RO          647    i.HAL_ETH_RxLinkCallback  ethernetif.o
    0x080021dc   0x080021dc   0x00000024   Code   RO         1571    i.HAL_ETH_SetMACConfig  stm32h7xx_hal_eth.o
    0x08002200   0x08002200   0x00000078   Code   RO         1573    i.HAL_ETH_SetMDIOClockRange  stm32h7xx_hal_eth.o
    0x08002278   0x08002278   0x000000e0   Code   RO         1578    i.HAL_ETH_Start_IT  stm32h7xx_hal_eth.o
    0x08002358   0x08002358   0x00000074   Code   RO         1579    i.HAL_ETH_Stop      stm32h7xx_hal_eth.o
    0x080023cc   0x080023cc   0x000000f6   Code   RO         1581    i.HAL_ETH_Transmit  stm32h7xx_hal_eth.o
    0x080024c2   0x080024c2   0x00000002   Code   RO         1583    i.HAL_ETH_TxCpltCallback  stm32h7xx_hal_eth.o
    0x080024c4   0x080024c4   0x00000002   Code   RO         1588    i.HAL_ETH_WakeUpCallback  stm32h7xx_hal_eth.o
    0x080024c6   0x080024c6   0x00000002   PAD
    0x080024c8   0x080024c8   0x00000080   Code   RO         1589    i.HAL_ETH_WritePHYRegister  stm32h7xx_hal_eth.o
    0x08002548   0x08002548   0x000001fc   Code   RO         2587    i.HAL_GPIO_Init     stm32h7xx_hal_gpio.o
    0x08002744   0x08002744   0x0000000c   Code   RO         2591    i.HAL_GPIO_WritePin  stm32h7xx_hal_gpio.o
    0x08002750   0x08002750   0x0000000c   Code   RO         3605    i.HAL_GetREVID      stm32h7xx_hal.o
    0x0800275c   0x0800275c   0x0000000c   Code   RO         3606    i.HAL_GetTick       stm32h7xx_hal.o
    0x08002768   0x08002768   0x00000018   Code   RO         3612    i.HAL_IncTick       stm32h7xx_hal.o
    0x08002780   0x08002780   0x00000060   Code   RO         3613    i.HAL_Init          stm32h7xx_hal.o
    0x080027e0   0x080027e0   0x00000058   Code   RO         3614    i.HAL_InitTick      stm32h7xx_hal.o
    0x08002838   0x08002838   0x0000005c   Code   RO         3442    i.HAL_MPU_ConfigRegion  stm32h7xx_hal_cortex.o
    0x08002894   0x08002894   0x0000002c   Code   RO         3443    i.HAL_MPU_Disable   stm32h7xx_hal_cortex.o
    0x080028c0   0x080028c0   0x00000040   Code   RO         3444    i.HAL_MPU_Enable    stm32h7xx_hal_cortex.o
    0x08002900   0x08002900   0x00000024   Code   RO          615    i.HAL_MspInit       stm32h7xx_hal_msp.o
    0x08002924   0x08002924   0x00000028   Code   RO         3447    i.HAL_NVIC_EnableIRQ  stm32h7xx_hal_cortex.o
    0x0800294c   0x0800294c   0x0000007a   Code   RO         3453    i.HAL_NVIC_SetPriority  stm32h7xx_hal_cortex.o
    0x080029c6   0x080029c6   0x00000002   PAD
    0x080029c8   0x080029c8   0x00000028   Code   RO         3454    i.HAL_NVIC_SetPriorityGrouping  stm32h7xx_hal_cortex.o
    0x080029f0   0x080029f0   0x00000060   Code   RO         3188    i.HAL_PWREx_ConfigSupply  stm32h7xx_hal_pwr_ex.o
    0x08002a50   0x08002a50   0x00000024   Code   RO         2138    i.HAL_RCCEx_GetD3PCLK1Freq  stm32h7xx_hal_rcc_ex.o
    0x08002a74   0x08002a74   0x00000230   Code   RO         2140    i.HAL_RCCEx_GetPLL2ClockFreq  stm32h7xx_hal_rcc_ex.o
    0x08002ca4   0x08002ca4   0x00000230   Code   RO         2141    i.HAL_RCCEx_GetPLL3ClockFreq  stm32h7xx_hal_rcc_ex.o
    0x08002ed4   0x08002ed4   0x00000d68   Code   RO         2147    i.HAL_RCCEx_PeriphCLKConfig  stm32h7xx_hal_rcc_ex.o
    0x08003c3c   0x08003c3c   0x00000320   Code   RO         2023    i.HAL_RCC_ClockConfig  stm32h7xx_hal_rcc.o
    0x08003f5c   0x08003f5c   0x0000004c   Code   RO         2028    i.HAL_RCC_GetHCLKFreq  stm32h7xx_hal_rcc.o
    0x08003fa8   0x08003fa8   0x00000024   Code   RO         2030    i.HAL_RCC_GetPCLK1Freq  stm32h7xx_hal_rcc.o
    0x08003fcc   0x08003fcc   0x00000024   Code   RO         2031    i.HAL_RCC_GetPCLK2Freq  stm32h7xx_hal_rcc.o
    0x08003ff0   0x08003ff0   0x0000022c   Code   RO         2032    i.HAL_RCC_GetSysClockFreq  stm32h7xx_hal_rcc.o
    0x0800421c   0x0800421c   0x00000858   Code   RO         2035    i.HAL_RCC_OscConfig  stm32h7xx_hal_rcc.o
    0x08004a74   0x08004a74   0x00000014   Code   RO         3625    i.HAL_SYSCFG_ETHInterfaceSelect  stm32h7xx_hal.o
    0x08004a88   0x08004a88   0x00000034   Code   RO         3458    i.HAL_SYSTICK_Config  stm32h7xx_hal_cortex.o
    0x08004abc   0x08004abc   0x0000004e   Code   RO         4958    i.HAL_UARTEx_DisableFifoMode  stm32h7xx_hal_uart_ex.o
    0x08004b0a   0x08004b0a   0x00000002   Code   RO         4542    i.HAL_UARTEx_RxEventCallback  stm32h7xx_hal_uart.o
    0x08004b0c   0x08004b0c   0x00000002   Code   RO         4966    i.HAL_UARTEx_RxFifoFullCallback  stm32h7xx_hal_uart_ex.o
    0x08004b0e   0x08004b0e   0x0000005e   Code   RO         4967    i.HAL_UARTEx_SetRxFifoThreshold  stm32h7xx_hal_uart_ex.o
    0x08004b6c   0x08004b6c   0x0000005e   Code   RO         4968    i.HAL_UARTEx_SetTxFifoThreshold  stm32h7xx_hal_uart_ex.o
    0x08004bca   0x08004bca   0x00000002   Code   RO         4970    i.HAL_UARTEx_TxFifoEmptyCallback  stm32h7xx_hal_uart_ex.o
    0x08004bcc   0x08004bcc   0x00000002   Code   RO         4971    i.HAL_UARTEx_WakeupCallback  stm32h7xx_hal_uart_ex.o
    0x08004bce   0x08004bce   0x00000002   Code   RO         4558    i.HAL_UART_ErrorCallback  stm32h7xx_hal_uart.o
    0x08004bd0   0x08004bd0   0x00000494   Code   RO         4561    i.HAL_UART_IRQHandler  stm32h7xx_hal_uart.o
    0x08005064   0x08005064   0x00000078   Code   RO         4562    i.HAL_UART_Init     stm32h7xx_hal_uart.o
    0x080050dc   0x080050dc   0x000000c4   Code   RO          486    i.HAL_UART_MspInit  usart.o
    0x080051a0   0x080051a0   0x00000002   Code   RO         4574    i.HAL_UART_TxCpltCallback  stm32h7xx_hal_uart.o
    0x080051a2   0x080051a2   0x00000004   Code   RO          530    i.HardFault_Handler  stm32h7xx_it.o
    0x080051a6   0x080051a6   0x000000e8   Code   RO         1447    i.LAN8742_GetLinkState  lan8742.o
    0x0800528e   0x0800528e   0x000000fe   Code   RO         1448    i.LAN8742_Init      lan8742.o
    0x0800538c   0x0800538c   0x0000002e   Code   RO         1449    i.LAN8742_RegisterBusIO  lan8742.o
    0x080053ba   0x080053ba   0x00000002   PAD
    0x080053bc   0x080053bc   0x00000060   Code   RO           14    i.MPU_Config        main.o
    0x0800541c   0x0800541c   0x00000124   Code   RO          353    i.MX_GPIO_Init      gpio.o
    0x08005540   0x08005540   0x00000240   Code   RO          980    i.MX_LWIP_Init      lwip.o
    0x08005780   0x08005780   0x00000014   Code   RO          981    i.MX_LWIP_Process   lwip.o
    0x08005794   0x08005794   0x0000006c   Code   RO          487    i.MX_USART1_UART_Init  usart.o
    0x08005800   0x08005800   0x00000004   Code   RO          531    i.MemManage_Handler  stm32h7xx_it.o
    0x08005804   0x08005804   0x00000004   Code   RO          532    i.NMI_Handler       stm32h7xx_it.o
    0x08005808   0x08005808   0x00000002   Code   RO          533    i.PendSV_Handler    stm32h7xx_it.o
    0x0800580a   0x0800580a   0x00000002   PAD
    0x0800580c   0x0800580c   0x00000164   Code   RO         2150    i.RCCEx_PLL2_Config  stm32h7xx_hal_rcc_ex.o
    0x08005970   0x08005970   0x00000164   Code   RO         2151    i.RCCEx_PLL3_Config  stm32h7xx_hal_rcc_ex.o
    0x08005ad4   0x08005ad4   0x00000002   Code   RO          534    i.SVC_Handler       stm32h7xx_it.o
    0x08005ad6   0x08005ad6   0x00000008   Code   RO          535    i.SysTick_Handler   stm32h7xx_it.o
    0x08005ade   0x08005ade   0x00000002   PAD
    0x08005ae0   0x08005ae0   0x0000013c   Code   RO           15    i.SystemClock_Config  main.o
    0x08005c1c   0x08005c1c   0x000000fc   Code   RO         5082    i.SystemInit        system_stm32h7xx.o
    0x08005d18   0x08005d18   0x000000a4   Code   RO         1268    i.TCP_Client_Init   tcp_client.o
    0x08005dbc   0x08005dbc   0x0000002c   Code   RO         1269    i.TCP_Client_Task   tcp_client.o
    0x08005de8   0x08005de8   0x00000058   Code   RO         1371    i.TCP_Server_Init   tcp_server.o
    0x08005e40   0x08005e40   0x00000058   Code   RO         4972    i.UARTEx_SetNbDataToProcess  stm32h7xx_hal_uart_ex.o
    0x08005e98   0x08005e98   0x000000f8   Code   RO         4576    i.UART_AdvFeatureConfig  stm32h7xx_hal_uart.o
    0x08005f90   0x08005f90   0x000000ea   Code   RO         4577    i.UART_CheckIdleState  stm32h7xx_hal_uart.o
    0x0800607a   0x0800607a   0x00000018   Code   RO         4578    i.UART_DMAAbortOnError  stm32h7xx_hal_uart.o
    0x08006092   0x08006092   0x00000002   PAD
    0x08006094   0x08006094   0x0000006c   Code   RO         4588    i.UART_EndRxTransfer  stm32h7xx_hal_uart.o
    0x08006100   0x08006100   0x00000030   Code   RO         4589    i.UART_EndTransmit_IT  stm32h7xx_hal_uart.o
    0x08006130   0x08006130   0x0000058c   Code   RO         4595    i.UART_SetConfig    stm32h7xx_hal_uart.o
    0x080066bc   0x080066bc   0x000000a2   Code   RO         4602    i.UART_WaitOnFlagUntilTimeout  stm32h7xx_hal_uart.o
    0x0800675e   0x0800675e   0x00000002   PAD
    0x08006760   0x08006760   0x00000010   Code   RO          536    i.USART1_IRQHandler  stm32h7xx_it.o
    0x08006770   0x08006770   0x00000064   Code   RO         1189    i.Udp_Lwip_Init     lwip_udp.o
    0x080067d4   0x080067d4   0x00000004   Code   RO          537    i.UsageFault_Handler  stm32h7xx_it.o
    0x080067d8   0x080067d8   0x00000020   Code   RO         9158    i.__0printf$3       mc_w.l(printf3.o)
    0x080067f8   0x080067f8   0x00000010   Code   RO         3460    i.__NVIC_GetPriorityGrouping  stm32h7xx_hal_cortex.o
    0x08006808   0x08006808   0x00000028   Code   RO         3461    i.__NVIC_SetPriority  stm32h7xx_hal_cortex.o
    0x08006830   0x08006830   0x0000000e   Code   RO         9387    i.__scatterload_copy  mc_w.l(handlers.o)
    0x0800683e   0x0800683e   0x00000002   Code   RO         9388    i.__scatterload_null  mc_w.l(handlers.o)
    0x08006840   0x08006840   0x0000000e   Code   RO         9389    i.__scatterload_zeroinit  mc_w.l(handlers.o)
    0x0800684e   0x0800684e   0x00000002   PAD
    0x08006850   0x08006850   0x000001b8   Code   RO         9165    i._printf_core      mc_w.l(printf3.o)
    0x08006a08   0x08006a08   0x0000002a   Code   RO         1081    i.clear_data        fifomem.o
    0x08006a32   0x08006a32   0x00000002   PAD
    0x08006a34   0x08006a34   0x0000006c   Code   RO         1270    i.client_connected  tcp_client.o
    0x08006aa0   0x08006aa0   0x00000016   Code   RO         1271    i.client_polling_cbk  tcp_client.o
    0x08006ab6   0x08006ab6   0x00000002   PAD
    0x08006ab8   0x08006ab8   0x00000118   Code   RO         1272    i.client_set_remote_ip  tcp_client.o
    0x08006bd0   0x08006bd0   0x000000ac   Code   RO         6659    i.do_memp_free_pool  memp.o
    0x08006c7c   0x08006c7c   0x000000b4   Code   RO         6660    i.do_memp_malloc_pool  memp.o
    0x08006d30   0x08006d30   0x00000038   Code   RO         8157    i.etharp_cleanup_netif  etharp.o
    0x08006d68   0x08006d68   0x00000300   Code   RO         8159    i.etharp_find_entry  etharp.o
    0x08007068   0x08007068   0x00000040   Code   RO         8160    i.etharp_free_entry  etharp.o
    0x080070a8   0x080070a8   0x0000013c   Code   RO         8162    i.etharp_input      etharp.o
    0x080071e4   0x080071e4   0x00000224   Code   RO         8163    i.etharp_output     etharp.o
    0x08007408   0x08007408   0x00000168   Code   RO         8164    i.etharp_output_to_arp_index  etharp.o
    0x08007570   0x08007570   0x000002a4   Code   RO         8165    i.etharp_query      etharp.o
    0x08007814   0x08007814   0x0000018c   Code   RO         8166    i.etharp_raw        etharp.o
    0x080079a0   0x080079a0   0x00000018   Code   RO         8167    i.etharp_request    etharp.o
    0x080079b8   0x080079b8   0x0000002c   Code   RO         8168    i.etharp_request_dst  etharp.o
    0x080079e4   0x080079e4   0x000000dc   Code   RO         8169    i.etharp_tmr        etharp.o
    0x08007ac0   0x08007ac0   0x0000015c   Code   RO         8170    i.etharp_update_arp_entry  etharp.o
    0x08007c1c   0x08007c1c   0x000000c4   Code   RO         5791    i.ethernet_input    ethernet.o
    0x08007ce0   0x08007ce0   0x000000cc   Code   RO          649    i.ethernet_link_check_state  ethernetif.o
    0x08007dac   0x08007dac   0x00000060   Code   RO          982    i.ethernet_link_status_updated  lwip.o
    0x08007e0c   0x08007e0c   0x00000104   Code   RO         5792    i.ethernet_output   ethernet.o
    0x08007f10   0x08007f10   0x00000098   Code   RO          650    i.ethernetif_init   ethernetif.o
    0x08007fa8   0x08007fa8   0x00000064   Code   RO          651    i.ethernetif_input  ethernetif.o
    0x0800800c   0x0800800c   0x00000014   Code   RO         1082    i.fifo_init         fifomem.o
    0x08008020   0x08008020   0x0000001c   Code   RO         1083    i.fifo_poll         fifomem.o
    0x0800803c   0x0800803c   0x00000068   Code   RO         1084    i.fifo_rx_handle    fifomem.o
    0x080080a4   0x080080a4   0x00000010   Code   RO         1086    i.fifo_start        fifomem.o
    0x080080b4   0x080080b4   0x00000002   Code   RO         1087    i.fifo_start_handle  fifomem.o
    0x080080b6   0x080080b6   0x00000002   PAD
    0x080080b8   0x080080b8   0x000000b4   Code   RO         1090    i.fifo_tx_handle    fifomem.o
    0x0800816c   0x0800816c   0x0000001c   Code   RO           16    i.fputc             main.o
    0x08008188   0x08008188   0x00000012   Code   RO         8264    i.icmp_dest_unreach  icmp.o
    0x0800819a   0x0800819a   0x00000002   PAD
    0x0800819c   0x0800819c   0x000002a4   Code   RO         8265    i.icmp_input        icmp.o
    0x08008440   0x08008440   0x00000124   Code   RO         8266    i.icmp_send_response  icmp.o
    0x08008564   0x08008564   0x00000012   Code   RO         8267    i.icmp_time_exceeded  icmp.o
    0x08008576   0x08008576   0x00000014   Code   RO         6377    i.inet_chksum       inet_chksum.o
    0x0800858a   0x0800858a   0x00000056   Code   RO         6378    i.inet_chksum_pbuf  inet_chksum.o
    0x080085e0   0x080085e0   0x0000004e   Code   RO         8397    i.ip4_addr_isbroadcast_u32  ip4_addr.o
    0x0800862e   0x0800862e   0x00000002   PAD
    0x08008630   0x08008630   0x000002cc   Code   RO         8469    i.ip4_frag          ip4_frag.o
    0x080088fc   0x080088fc   0x0000019c   Code   RO         8338    i.ip4_input         ip4.o
    0x08008a98   0x08008a98   0x00000034   Code   RO         8339    i.ip4_input_accept  ip4.o
    0x08008acc   0x08008acc   0x00000036   Code   RO         8341    i.ip4_output_if     ip4.o
    0x08008b02   0x08008b02   0x00000002   PAD
    0x08008b04   0x08008b04   0x0000019c   Code   RO         8342    i.ip4_output_if_src  ip4.o
    0x08008ca0   0x08008ca0   0x000002fc   Code   RO         8470    i.ip4_reass         ip4_frag.o
    0x08008f9c   0x08008f9c   0x00000094   Code   RO         8343    i.ip4_route         ip4.o
    0x08009030   0x08009030   0x0000000a   Code   RO         8471    i.ip_frag_alloc_pbuf_custom_ref  ip4_frag.o
    0x0800903a   0x0800903a   0x00000002   PAD
    0x0800903c   0x0800903c   0x00000098   Code   RO         8472    i.ip_frag_free_pbuf_custom_ref  ip4_frag.o
    0x080090d4   0x080090d4   0x00000304   Code   RO         8473    i.ip_reass_chain_frag_into_datagram_and_validate  ip4_frag.o
    0x080093d8   0x080093d8   0x000000c4   Code   RO         8474    i.ip_reass_dequeue_datagram  ip4_frag.o
    0x0800949c   0x0800949c   0x00000054   Code   RO         8475    i.ip_reass_enqueue_new_datagram  ip4_frag.o
    0x080094f0   0x080094f0   0x000001e0   Code   RO         8476    i.ip_reass_free_complete_datagram  ip4_frag.o
    0x080096d0   0x080096d0   0x00000088   Code   RO         8477    i.ip_reass_remove_oldest_datagram  ip4_frag.o
    0x08009758   0x08009758   0x00000034   Code   RO         8478    i.ip_reass_tmr      ip4_frag.o
    0x0800978c   0x0800978c   0x000000c8   Code   RO         8479    i.ipfrag_free_pbuf_custom  ip4_frag.o
    0x08009854   0x08009854   0x000000fc   Code   RO          652    i.low_level_init    ethernetif.o
    0x08009950   0x08009950   0x000000a4   Code   RO          653    i.low_level_input   ethernetif.o
    0x080099f4   0x080099f4   0x0000012c   Code   RO          654    i.low_level_output  ethernetif.o
    0x08009b20   0x08009b20   0x00000050   Code   RO         7887    i.lwip_cyclic_timer  timeouts.o
    0x08009b70   0x08009b70   0x0000001a   Code   RO         6297    i.lwip_htonl        def.o
    0x08009b8a   0x08009b8a   0x0000000c   Code   RO         6298    i.lwip_htons        def.o
    0x08009b96   0x08009b96   0x00000002   PAD
    0x08009b98   0x08009b98   0x0000009c   Code   RO         6461    i.lwip_init         init.o
    0x08009c34   0x08009c34   0x0000005e   Code   RO         6385    i.lwip_standard_chksum  inet_chksum.o
    0x08009c92   0x08009c92   0x00000002   PAD
    0x08009c94   0x08009c94   0x00000024   Code   RO         1190    i.lwip_udp_discollected  lwip_udp.o
    0x08009cb8   0x08009cb8   0x000000ac   Code   RO         1191    i.lwip_udp_recv_callback  lwip_udp.o
    0x08009d64   0x08009d64   0x0000001c   Code   RO         1192    i.lwip_udp_register  lwip_udp.o
    0x08009d80   0x08009d80   0x00000048   Code   RO         1193    i.lwip_udp_send     lwip_udp.o
    0x08009dc8   0x08009dc8   0x00000110   Code   RO         1194    i.lwip_udp_set_remote_ip  lwip_udp.o
    0x08009ed8   0x08009ed8   0x00000174   Code   RO           17    i.main              main.o
    0x0800a04c   0x0800a04c   0x000001c4   Code   RO         6579    i.mem_free          mem.o
    0x0800a210   0x0800a210   0x00000058   Code   RO         6580    i.mem_init          mem.o
    0x0800a268   0x0800a268   0x00000058   Code   RO         6581    i.mem_link_valid    mem.o
    0x0800a2c0   0x0800a2c0   0x000002a8   Code   RO         6582    i.mem_malloc        mem.o
    0x0800a568   0x0800a568   0x00000010   Code   RO         6583    i.mem_to_ptr        mem.o
    0x0800a578   0x0800a578   0x00000234   Code   RO         6584    i.mem_trim          mem.o
    0x0800a7ac   0x0800a7ac   0x000000b0   Code   RO         6661    i.memp_free         memp.o
    0x0800a85c   0x0800a85c   0x000000a0   Code   RO         6662    i.memp_free_pool    memp.o
    0x0800a8fc   0x0800a8fc   0x00000020   Code   RO         6663    i.memp_init         memp.o
    0x0800a91c   0x0800a91c   0x0000002c   Code   RO         6664    i.memp_init_pool    memp.o
    0x0800a948   0x0800a948   0x000000b0   Code   RO         6665    i.memp_malloc       memp.o
    0x0800a9f8   0x0800a9f8   0x00000098   Code   RO         6666    i.memp_malloc_pool  memp.o
    0x0800aa90   0x0800aa90   0x00000230   Code   RO         6772    i.netif_add         netif.o
    0x0800acc0   0x0800acc0   0x00000018   Code   RO         6774    i.netif_do_ip_addr_changed  netif.o
    0x0800acd8   0x0800acd8   0x00000026   Code   RO         6775    i.netif_do_set_gw   netif.o
    0x0800acfe   0x0800acfe   0x00000002   PAD
    0x0800ad00   0x0800ad00   0x000000e0   Code   RO         6776    i.netif_do_set_ipaddr  netif.o
    0x0800ade0   0x0800ade0   0x00000026   Code   RO         6777    i.netif_do_set_netmask  netif.o
    0x0800ae06   0x0800ae06   0x00000002   PAD
    0x0800ae08   0x0800ae08   0x00000028   Code   RO         6779    i.netif_get_by_index  netif.o
    0x0800ae30   0x0800ae30   0x00000002   Code   RO         6781    i.netif_init        netif.o
    0x0800ae32   0x0800ae32   0x00000002   PAD
    0x0800ae34   0x0800ae34   0x000000d8   Code   RO         6783    i.netif_issue_reports  netif.o
    0x0800af0c   0x0800af0c   0x00000008   Code   RO         6785    i.netif_null_output_ip4  netif.o
    0x0800af14   0x0800af14   0x00000060   Code   RO         6787    i.netif_set_addr    netif.o
    0x0800af74   0x0800af74   0x0000000c   Code   RO         6788    i.netif_set_default  netif.o
    0x0800af80   0x0800af80   0x000000cc   Code   RO         6789    i.netif_set_down    netif.o
    0x0800b04c   0x0800b04c   0x00000006   Code   RO         6792    i.netif_set_link_callback  netif.o
    0x0800b052   0x0800b052   0x00000002   PAD
    0x0800b054   0x0800b054   0x000000cc   Code   RO         6793    i.netif_set_link_down  netif.o
    0x0800b120   0x0800b120   0x000000d4   Code   RO         6794    i.netif_set_link_up  netif.o
    0x0800b1f4   0x0800b1f4   0x000000c0   Code   RO         6796    i.netif_set_up      netif.o
    0x0800b2b4   0x0800b2b4   0x00000012   Code   RO         6965    i.pbuf_add_header   pbuf.o
    0x0800b2c6   0x0800b2c6   0x00000002   PAD
    0x0800b2c8   0x0800b2c8   0x000000e8   Code   RO         6967    i.pbuf_add_header_impl  pbuf.o
    0x0800b3b0   0x0800b3b0   0x000002a4   Code   RO         6968    i.pbuf_alloc        pbuf.o
    0x0800b654   0x0800b654   0x000000bc   Code   RO         6969    i.pbuf_alloc_reference  pbuf.o
    0x0800b710   0x0800b710   0x00000052   Code   RO         6970    i.pbuf_alloced_custom  pbuf.o
    0x0800b762   0x0800b762   0x00000002   PAD
    0x0800b764   0x0800b764   0x00000150   Code   RO         6971    i.pbuf_cat          pbuf.o
    0x0800b8b4   0x0800b8b4   0x00000016   Code   RO         6972    i.pbuf_chain        pbuf.o
    0x0800b8ca   0x0800b8ca   0x00000012   Code   RO         6973    i.pbuf_clen         pbuf.o
    0x0800b8dc   0x0800b8dc   0x000000b0   Code   RO         6974    i.pbuf_clone        pbuf.o
    0x0800b98c   0x0800b98c   0x00000228   Code   RO         6976    i.pbuf_copy         pbuf.o
    0x0800bbb4   0x0800bbb4   0x00000140   Code   RO         6977    i.pbuf_copy_partial  pbuf.o
    0x0800bcf4   0x0800bcf4   0x0000019c   Code   RO         6979    i.pbuf_free         pbuf.o
    0x0800be90   0x0800be90   0x00000028   Code   RO          655    i.pbuf_free_custom  ethernetif.o
    0x0800beb8   0x0800beb8   0x00000030   Code   RO         6981    i.pbuf_free_ooseq   pbuf.o
    0x0800bee8   0x0800bee8   0x00000012   Code   RO         6985    i.pbuf_header_force  pbuf.o
    0x0800befa   0x0800befa   0x00000022   Code   RO         6986    i.pbuf_header_impl  pbuf.o
    0x0800bf1c   0x0800bf1c   0x0000001e   Code   RO         6987    i.pbuf_init_alloced_pbuf  pbuf.o
    0x0800bf3a   0x0800bf3a   0x00000002   PAD
    0x0800bf3c   0x0800bf3c   0x00000010   Code   RO         6990    i.pbuf_pool_is_empty  pbuf.o
    0x0800bf4c   0x0800bf4c   0x00000168   Code   RO         6992    i.pbuf_realloc      pbuf.o
    0x0800c0b4   0x0800c0b4   0x0000009c   Code   RO         6993    i.pbuf_ref          pbuf.o
    0x0800c150   0x0800c150   0x000000f4   Code   RO         6994    i.pbuf_remove_header  pbuf.o
    0x0800c244   0x0800c244   0x000001c8   Code   RO         6998    i.pbuf_take         pbuf.o
    0x0800c40c   0x0800c40c   0x000001d8   Code   RO         6585    i.plug_holes        mem.o
    0x0800c5e4   0x0800c5e4   0x00000010   Code   RO         6586    i.ptr_to_mem        mem.o
    0x0800c5f4   0x0800c5f4   0x00000110   Code   RO         1372    i.server_set_local_ip  tcp_server.o
    0x0800c704   0x0800c704   0x00000064   Code   RO         7888    i.sys_check_timeouts  timeouts.o
    0x0800c768   0x0800c768   0x00000008   Code   RO          656    i.sys_now           ethernetif.o
    0x0800c770   0x0800c770   0x000000d0   Code   RO         7890    i.sys_timeout       timeouts.o
    0x0800c840   0x0800c840   0x00000140   Code   RO         7891    i.sys_timeout_abs   timeouts.o
    0x0800c980   0x0800c980   0x00000028   Code   RO         7892    i.sys_timeouts_init  timeouts.o
    0x0800c9a8   0x0800c9a8   0x000001d4   Code   RO         7285    i.tcp_abandon       tcp.o
    0x0800cb7c   0x0800cb7c   0x0000000e   Code   RO         7286    i.tcp_abort         tcp.o
    0x0800cb8a   0x0800cb8a   0x00000010   Code   RO         7287    i.tcp_accept        tcp.o
    0x0800cb9a   0x0800cb9a   0x00000002   PAD
    0x0800cb9c   0x0800cb9c   0x000000a8   Code   RO         7288    i.tcp_accept_null   tcp.o
    0x0800cc44   0x0800cc44   0x000000bc   Code   RO         7289    i.tcp_alloc         tcp.o
    0x0800cd00   0x0800cd00   0x00000006   Code   RO         7290    i.tcp_arg           tcp.o
    0x0800cd06   0x0800cd06   0x00000002   PAD
    0x0800cd08   0x0800cd08   0x00000170   Code   RO         7291    i.tcp_bind          tcp.o
    0x0800ce78   0x0800ce78   0x00000044   Code   RO         1273    i.tcp_client_connection_close  tcp_client.o
    0x0800cebc   0x0800cebc   0x00000040   Code   RO         1373    i.tcp_client_connection_close  tcp_server.o
    0x0800cefc   0x0800cefc   0x0000002c   Code   RO         1274    i.tcp_client_err_cbk  tcp_client.o
    0x0800cf28   0x0800cf28   0x0000017c   Code   RO         1275    i.tcp_client_recv_cbk  tcp_client.o
    0x0800d0a4   0x0800d0a4   0x00000040   Code   RO         1276    i.tcp_client_send   tcp_client.o
    0x0800d0e4   0x0800d0e4   0x000000b0   Code   RO         7293    i.tcp_close         tcp.o
    0x0800d194   0x0800d194   0x0000020c   Code   RO         7294    i.tcp_close_shutdown  tcp.o
    0x0800d3a0   0x0800d3a0   0x000000e8   Code   RO         7295    i.tcp_close_shutdown_fin  tcp.o
    0x0800d488   0x0800d488   0x00000260   Code   RO         7296    i.tcp_connect       tcp.o
    0x0800d6e8   0x0800d6e8   0x000001d4   Code   RO         7723    i.tcp_create_segment  tcp_out.o
    0x0800d8bc   0x0800d8bc   0x000000d4   Code   RO         7298    i.tcp_eff_send_mss_netif  tcp.o
    0x0800d990   0x0800d990   0x000002c0   Code   RO         7724    i.tcp_enqueue_flags  tcp_out.o
    0x0800dc50   0x0800dc50   0x000000ac   Code   RO         7299    i.tcp_err           tcp.o
    0x0800dcfc   0x0800dcfc   0x0000009c   Code   RO         7300    i.tcp_fasttmr       tcp.o
    0x0800dd98   0x0800dd98   0x00000094   Code   RO         7301    i.tcp_free          tcp.o
    0x0800de2c   0x0800de2c   0x0000015c   Code   RO         7630    i.tcp_free_acked_segments  tcp_in.o
    0x0800df88   0x0800df88   0x0000009c   Code   RO         7302    i.tcp_free_listen   tcp.o
    0x0800e024   0x0800e024   0x00000014   Code   RO         7303    i.tcp_free_ooseq    tcp.o
    0x0800e038   0x0800e038   0x00000048   Code   RO         7631    i.tcp_get_next_optbyte  tcp_in.o
    0x0800e080   0x0800e080   0x00000034   Code   RO         7304    i.tcp_handle_closepend  tcp.o
    0x0800e0b4   0x0800e0b4   0x00000018   Code   RO         7305    i.tcp_init          tcp.o
    0x0800e0cc   0x0800e0cc   0x00000818   Code   RO         7632    i.tcp_input         tcp_in.o
    0x0800e8e4   0x0800e8e4   0x000000e8   Code   RO         7633    i.tcp_input_delayed_close  tcp_in.o
    0x0800e9cc   0x0800e9cc   0x000000dc   Code   RO         7725    i.tcp_keepalive     tcp_out.o
    0x0800eaa8   0x0800eaa8   0x00000068   Code   RO         7306    i.tcp_kill_prio     tcp.o
    0x0800eb10   0x0800eb10   0x000000d0   Code   RO         7307    i.tcp_kill_state    tcp.o
    0x0800ebe0   0x0800ebe0   0x0000003c   Code   RO         7308    i.tcp_kill_timewait  tcp.o
    0x0800ec1c   0x0800ec1c   0x000000d4   Code   RO         7309    i.tcp_listen_closed  tcp.o
    0x0800ecf0   0x0800ecf0   0x000001f4   Code   RO         7634    i.tcp_listen_input  tcp_in.o
    0x0800eee4   0x0800eee4   0x00000012   Code   RO         7310    i.tcp_listen_with_backlog  tcp.o
    0x0800eef6   0x0800eef6   0x00000002   PAD
    0x0800eef8   0x0800eef8   0x000001c4   Code   RO         7311    i.tcp_listen_with_backlog_and_err  tcp.o
    0x0800f0bc   0x0800f0bc   0x0000004c   Code   RO         7312    i.tcp_netif_ip_addr_changed  tcp.o
    0x0800f108   0x0800f108   0x000000d0   Code   RO         7313    i.tcp_netif_ip_addr_changed_pcblist  tcp.o
    0x0800f1d8   0x0800f1d8   0x0000000a   Code   RO         7314    i.tcp_new           tcp.o
    0x0800f1e2   0x0800f1e2   0x00000002   PAD
    0x0800f1e4   0x0800f1e4   0x00000068   Code   RO         7316    i.tcp_new_port      tcp.o
    0x0800f24c   0x0800f24c   0x000000b0   Code   RO         7317    i.tcp_next_iss      tcp.o
    0x0800f2fc   0x0800f2fc   0x0000012c   Code   RO         7635    i.tcp_oos_insert_segment  tcp_in.o
    0x0800f428   0x0800f428   0x00000364   Code   RO         7726    i.tcp_output        tcp_out.o
    0x0800f78c   0x0800f78c   0x000000dc   Code   RO         7727    i.tcp_output_alloc_header  tcp_out.o
    0x0800f868   0x0800f868   0x00000124   Code   RO         7728    i.tcp_output_alloc_header_common  tcp_out.o
    0x0800f98c   0x0800f98c   0x000000fc   Code   RO         7729    i.tcp_output_control_segment  tcp_out.o
    0x0800fa88   0x0800fa88   0x00000124   Code   RO         7730    i.tcp_output_fill_options  tcp_out.o
    0x0800fbac   0x0800fbac   0x0000024c   Code   RO         7731    i.tcp_output_segment  tcp_out.o
    0x0800fdf8   0x0800fdf8   0x000000b4   Code   RO         7732    i.tcp_output_segment_busy  tcp_out.o
    0x0800feac   0x0800feac   0x00000130   Code   RO         7636    i.tcp_parseopt      tcp_in.o
    0x0800ffdc   0x0800ffdc   0x00000178   Code   RO         7733    i.tcp_pbuf_prealloc  tcp_out.o
    0x08010154   0x08010154   0x000000dc   Code   RO         7318    i.tcp_pcb_purge     tcp.o
    0x08010230   0x08010230   0x000001d8   Code   RO         7319    i.tcp_pcb_remove    tcp.o
    0x08010408   0x08010408   0x000000dc   Code   RO         7320    i.tcp_poll          tcp.o
    0x080104e4   0x080104e4   0x00000744   Code   RO         7637    i.tcp_process       tcp_in.o
    0x08010c28   0x08010c28   0x00000138   Code   RO         7321    i.tcp_process_refused_data  tcp.o
    0x08010d60   0x08010d60   0x00000c7c   Code   RO         7638    i.tcp_receive       tcp_in.o
    0x080119dc   0x080119dc   0x000000ac   Code   RO         7322    i.tcp_recv          tcp.o
    0x08011a88   0x08011a88   0x000000c4   Code   RO         7323    i.tcp_recv_null     tcp.o
    0x08011b4c   0x08011b4c   0x0000011c   Code   RO         7324    i.tcp_recved        tcp.o
    0x08011c68   0x08011c68   0x000000b4   Code   RO         7325    i.tcp_remove_listener  tcp.o
    0x08011d1c   0x08011d1c   0x00000104   Code   RO         7734    i.tcp_rexmit        tcp_out.o
    0x08011e20   0x08011e20   0x0000010c   Code   RO         7735    i.tcp_rexmit_fast   tcp_out.o
    0x08011f2c   0x08011f2c   0x000000a8   Code   RO         7736    i.tcp_rexmit_rto    tcp_out.o
    0x08011fd4   0x08011fd4   0x000000b8   Code   RO         7737    i.tcp_rexmit_rto_commit  tcp_out.o
    0x0801208c   0x0801208c   0x00000118   Code   RO         7738    i.tcp_rexmit_rto_prepare  tcp_out.o
    0x080121a4   0x080121a4   0x0000001e   Code   RO         7739    i.tcp_route         tcp_out.o
    0x080121c2   0x080121c2   0x00000002   PAD
    0x080121c4   0x080121c4   0x00000128   Code   RO         7740    i.tcp_rst           tcp_out.o
    0x080122ec   0x080122ec   0x000000b4   Code   RO         7326    i.tcp_seg_copy      tcp.o
    0x080123a0   0x080123a0   0x0000001a   Code   RO         7327    i.tcp_seg_free      tcp.o
    0x080123ba   0x080123ba   0x00000018   Code   RO         7328    i.tcp_segs_free     tcp.o
    0x080123d2   0x080123d2   0x00000002   PAD
    0x080123d4   0x080123d4   0x00000140   Code   RO         7741    i.tcp_send_empty_ack  tcp_out.o
    0x08012514   0x08012514   0x000000e0   Code   RO         7742    i.tcp_send_fin      tcp_out.o
    0x080125f4   0x080125f4   0x000000ac   Code   RO         7329    i.tcp_sent          tcp.o
    0x080126a0   0x080126a0   0x00000060   Code   RO         1374    i.tcp_server_accept_cbk  tcp_server.o
    0x08012700   0x08012700   0x0000004c   Code   RO         1375    i.tcp_server_err_cbk  tcp_server.o
    0x0801274c   0x0801274c   0x00000024   Code   RO         1376    i.tcp_server_poll_cbk  tcp_server.o
    0x08012770   0x08012770   0x00000144   Code   RO         1377    i.tcp_server_recv_cbk  tcp_server.o
    0x080128b4   0x080128b4   0x0000003c   Code   RO         1378    i.tcp_server_sent_cbk  tcp_server.o
    0x080128f0   0x080128f0   0x00000730   Code   RO         7332    i.tcp_slowtmr       tcp.o
    0x08013020   0x08013020   0x000002d0   Code   RO         7743    i.tcp_split_unsent_seg  tcp_out.o
    0x080132f0   0x080132f0   0x00000038   Code   RO         7895    i.tcp_timer_needed  timeouts.o
    0x08013328   0x08013328   0x00000144   Code   RO         7639    i.tcp_timewait_input  tcp_in.o
    0x0801346c   0x0801346c   0x00000024   Code   RO         7334    i.tcp_tmr           tcp.o
    0x08013490   0x08013490   0x00000014   Code   RO         7640    i.tcp_trigger_input_pcb_close  tcp_in.o
    0x080134a4   0x080134a4   0x00000118   Code   RO         7336    i.tcp_update_rcv_ann_wnd  tcp.o
    0x080135bc   0x080135bc   0x00000824   Code   RO         7744    i.tcp_write         tcp_out.o
    0x08013de0   0x08013de0   0x000001b4   Code   RO         7745    i.tcp_write_checks  tcp_out.o
    0x08013f94   0x08013f94   0x00000170   Code   RO         7746    i.tcp_zero_window_probe  tcp_out.o
    0x08014104   0x08014104   0x00000038   Code   RO         7896    i.tcpip_tcp_timer   timeouts.o
    0x0801413c   0x0801413c   0x00000124   Code   RO         7979    i.udp_bind          udp.o
    0x08014260   0x08014260   0x00000134   Code   RO         7981    i.udp_connect       udp.o
    0x08014394   0x08014394   0x000000ac   Code   RO         7982    i.udp_disconnect    udp.o
    0x08014440   0x08014440   0x00000018   Code   RO         7983    i.udp_init          udp.o
    0x08014458   0x08014458   0x0000024c   Code   RO         7984    i.udp_input         udp.o
    0x080146a4   0x080146a4   0x00000138   Code   RO         7985    i.udp_input_local_match  udp.o
    0x080147dc   0x080147dc   0x00000030   Code   RO         7986    i.udp_netif_ip_addr_changed  udp.o
    0x0801480c   0x0801480c   0x0000001c   Code   RO         7987    i.udp_new           udp.o
    0x08014828   0x08014828   0x00000058   Code   RO         7989    i.udp_new_port      udp.o
    0x08014880   0x08014880   0x0000009c   Code   RO         7990    i.udp_recv          udp.o
    0x0801491c   0x0801491c   0x000000d4   Code   RO         7991    i.udp_remove        udp.o
    0x080149f0   0x080149f0   0x000000dc   Code   RO         7992    i.udp_send          udp.o
    0x08014acc   0x08014acc   0x00000144   Code   RO         7993    i.udp_sendto        udp.o
    0x08014c10   0x08014c10   0x00000198   Code   RO         7994    i.udp_sendto_if     udp.o
    0x08014da8   0x08014da8   0x000002b4   Code   RO         7995    i.udp_sendto_if_src  udp.o
    0x0801505c   0x0801505c   0x0000000c   Data   RO          660    .constdata          ethernetif.o
    0x08015068   0x08015068   0x00000018   Data   RO         4603    .constdata          stm32h7xx_hal_uart.o
    0x08015080   0x08015080   0x00000010   Data   RO         4974    .constdata          stm32h7xx_hal_uart_ex.o
    0x08015090   0x08015090   0x00000010   Data   RO         5083    .constdata          system_stm32h7xx.o
    0x080150a0   0x080150a0   0x0000000c   Data   RO         5793    .constdata          ethernet.o
    0x080150ac   0x080150ac   0x00000090   Data   RO         6668    .constdata          memp.o
    0x0801513c   0x0801513c   0x00000050   Data   RO         7337    .constdata          tcp.o
    0x0801518c   0x0801518c   0x0000001c   Data   RO         7897    .constdata          timeouts.o
    0x080151a8   0x080151a8   0x00000008   Data   RO         8404    .constdata          ip4_addr.o
    0x080151b0   0x080151b0   0x00000041   Data   RO         6462    .conststring        init.o
    0x080151f1   0x080151f1   0x00000003   PAD
    0x080151f4   0x080151f4   0x00000075   Data   RO         7338    .conststring        tcp.o
    0x08015269   0x08015269   0x00000003   PAD
    0x0801526c   0x0801526c   0x00000055   Data   RO         7747    .conststring        tcp_out.o
    0x080152c1   0x080152c1   0x00000003   PAD
    0x080152c4   0x080152c4   0x00000041   Data   RO         8172    .conststring        etharp.o
    0x08015305   0x08015305   0x00000003   PAD
    0x08015308   0x08015308   0x00000020   Data   RO         9385    Region$$Table       anon$$obj.o


    Execution Region RW_IRAM1 (Exec base: 0x20000000, Load base: 0x08015328, Size: 0x00000000, Max: 0x00020000, ABSOLUTE)

    **** No section assigned to this execution region ****


    Execution Region RW_IRAM2 (Exec base: 0x24000000, Load base: 0x08015328, Size: 0x000159c0, Max: 0x00080000, ABSOLUTE, COMPRESSED[0x000001d0])

    Exec Addr    Load Addr    Size         Type   Attr      Idx    E Section Name        Object

    0x24000000   COMPRESSED   0x0000001c   Data   RW          661    .data               ethernetif.o
    0x2400001c   COMPRESSED   0x0000001c   Data   RW          988    .data               lwip.o
    0x24000038   COMPRESSED   0x00000030   Data   RW         1094    .data               fifomem.o
    0x24000068   COMPRESSED   0x00000bec   Data   RW         1195    .data               lwip_udp.o
    0x24000c54   COMPRESSED   0x00004694   Data   RW         1277    .data               tcp_client.o
    0x240052e8   COMPRESSED   0x0000468c   Data   RW         1379    .data               tcp_server.o
    0x24009974   COMPRESSED   0x00000009   Data   RW         3635    .data               stm32h7xx_hal.o
    0x2400997d   COMPRESSED   0x00000003   PAD
    0x24009980   COMPRESSED   0x00000008   Data   RW         5084    .data               system_stm32h7xx.o
    0x24009988   COMPRESSED   0x0000000c   Data   RW         6587    .data               mem.o
    0x24009994   COMPRESSED   0x00000024   Data   RW         6669    .data               memp.o
    0x240099b8   COMPRESSED   0x00000009   Data   RW         6797    .data               netif.o
    0x240099c1   COMPRESSED   0x00000001   Data   RW         7001    .data               pbuf.o
    0x240099c2   COMPRESSED   0x00000002   PAD
    0x240099c4   COMPRESSED   0x00000020   Data   RW         7339    .data               tcp.o
    0x240099e4   COMPRESSED   0x00000028   Data   RW         7642    .data               tcp_in.o
    0x24009a0c   COMPRESSED   0x0000000c   Data   RW         7898    .data               timeouts.o
    0x24009a18   COMPRESSED   0x00000008   Data   RW         7996    .data               udp.o
    0x24009a20   COMPRESSED   0x00000001   Data   RW         8173    .data               etharp.o
    0x24009a21   COMPRESSED   0x00000001   PAD
    0x24009a22   COMPRESSED   0x00000002   Data   RW         8344    .data               ip4.o
    0x24009a24   COMPRESSED   0x00000006   Data   RW         8480    .data               ip4_frag.o
    0x24009a2a   COMPRESSED   0x00000002   PAD
    0x24009a2c   COMPRESSED   0x00000004   Data   RW         9051    .data               mc_w.l(rand.o)
    0x24009a30   COMPRESSED   0x00000004   Data   RW         9348    .data               mc_w.l(stdout.o)
    0x24009a34        -       0x000005e0   Zero   RW           18    .bss                main.o
    0x2400a014        -       0x00000094   Zero   RW          488    .bss                usart.o
    0x2400a0a8        -       0x00004a8c   Zero   RW          659    .bss                ethernetif.o
    0x2400eb34        -       0x00000034   Zero   RW          987    .bss                lwip.o
    0x2400eb68        -       0x000000c0   Zero   RW         1093    .bss                fifomem.o
    0x2400ec28        -       0x00000018   Zero   RW         6543    .bss                ip.o
    0x2400ec40        -       0x0000687f   Zero   RW         6667    .bss                memp.o
    0x240154bf   COMPRESSED   0x00000001   PAD
    0x240154c0        -       0x00000010   Zero   RW         7641    .bss                tcp_in.o
