:020000040800F2
:10000000C0590124B102000805580008A351000896
:1000100001580008CF040008D56700080000000060
:10002000000000000000000000000000D55A000899
:10003000D30400080000000009580008D75A00083F
:10004000CB020008CB020008CB020008CB0200085C
:10005000CB020008CB020008CB020008CB0200084C
:10006000CB020008CB020008CB020008CB0200083C
:10007000CB020008CB020008CB020008CB0200082C
:10008000CB020008CB020008CB020008CB0200081C
:10009000CB020008CB020008CB020008CB0200080C
:1000A000CB020008CB020008CB020008CB020008FC
:1000B000CB020008CB020008CB020008CB020008EC
:1000C000CB020008CB020008CB020008CB020008DC
:1000D000CB02000861670008CB020008CB020008D1
:1000E000CB020008CB02000800000000CB02000891
:1000F000CB020008CB020008CB020008CB020008AC
:10010000CB020008CB020008CB020008CB0200089B
:10011000CB020008CB020008CB020008CB0200088B
:10012000CB020008CB020008CB020008CB0200087B
:10013000CB02000889050008D10D0008CB02000899
:1001400000000000000000000000000000000000AF
:10015000CB020008CB020008CB020008CB0200084B
:10016000CB020008CB020008CB020008CB0200083B
:10017000CB020008CB020008CB0200080000000000
:10018000CB020008CB020008CB020008CB0200081B
:10019000CB020008CB020008CB020008CB0200080B
:1001A000CB020008CB020008CB020008CB020008FB
:1001B000CB020008CB020008CB020008CB020008EB
:1001C000CB020008CB020008CB020008CB020008DB
:1001D000CB020008CB020008CB020008CB020008CB
:1001E000CB020008CB020008CB020008CB020008BB
:1001F000CB020008CB020008CB020008CB020008AB
:10020000CB020008CB020008CB020008CB0200089A
:10021000CB020008CB020008CB020008CB0200088A
:10022000CB020008CB020008CB020008000000004F
:10023000CB020008CB02000800000000CB0200083F
:10024000CB020008CB020008CB020008CB0200085A
:10025000CB020008CB020008CB020008CB0200084A
:10026000CB020008CB020008CB020008CB0200083A
:10027000CB020008CB020008CB02000800000000FF
:10028000CB020008CB020008CB02000800000000EF
:1002900000000000CB020008DFF810D000F0DAF810
:1002A00000480047D99E0008AFF30080C0590124E0
:1002B0000648804706480047FEE7FEE7FEE7FEE700
:1002C000FEE7FEE7FEE7FEE7FEE7FEE71D5C00084F
:1002D000990200082DE9F05F0546002092469B46F2
:1002E00088460646814640241BE02846414647464C
:1002F000224600F09EF853465A46C01A914110D348
:1003000011461846224600F085F82D1A67EB0108C1
:100310004F4622460120002100F07CF817EB00092F
:100320004E41201EA4F10104DFDC484631462A4636
:100330004346BDE8F09F00000649074A086850435D
:1003400043F23902104408604008704701490860D0
:10035000704700002C9A00246D4EC64110B5431A18
:10036000934209D28318881803E010F8011D03F89E
:10037000011D521EF9D210BD40EA01039B0703D0B4
:1003800009E008C9121F08C0042AFAD203E011F8D4
:10039000013B00F8013B521EF9D210BDD2B201E080
:1003A00000F8012B491EFBD270470022F6E710B57A
:1003B00013460A4604461946FFF7F0FF204610BDD3
:1003C000421C10F8011B0029FBD1801A704730B580
:1003D00004460020034600E05B1C934203D2E05C2D
:1003E000CD5C401BF8D030BD30B50B460146002037
:1003F0002022012409E021FA02F59D4205D303FAE7
:1004000002F5491B04FA02F52844151EA2F1010267
:10041000F1DC30BD202A04DB203A00FA02F1002092
:1004200070479140C2F1200320FA03F31943904032
:100430007047202A04DB203A21FA02F0002170479D
:1004400021FA02F3D040C2F120029140084319463C
:1004500070470000064C074D06E0E06840F00103DD
:1004600094E8070098471034AC42F6D3FFF718FF22
:10047000085301082853010870B58C1810F8015B67
:1004800015F0070301D110F8013B2A1106D110F82D
:10049000012B03E010F8016B01F8016B5B1EF9D131
:1004A0002B0705D40023521E0DD401F8013BFAE7B7
:1004B00010F8013BCB1A921C03E013F8015B01F822
:1004C000015B521EF9D5A142D8D3002070BD00BFF8
:1004D000FEE7704710B5002210E002EB420403690A
:1004E00003EBC40100230B604B608B60CB600B619E
:1004F0004B6100F1480343F82210521C042AECD34C
:100500000024C46504668466C466846503240368A5
:1005100003F58053C3F83041036803F58053046941
:10052000C3F81C4103694833046804F58054C4F8D7
:10053000283110BD10B500220EE002EB4204C36862
:1005400003EBC40100230B604B608B60CB6000F1B8
:10055000180343F82210521C042AEED300248462AC
:100560000324036803F58053C3F82C41036803F5A3
:100570008053C468C3F81441036803F58053C4680A
:10058000C3F8204110BD000010B54CF2C141054830
:10059000006800F58050C0F86011034807F004FDC2
:1005A00010BD00002CEA002434EB002410B5A2B0EA
:1005B000044601208DF83300002012908DF8410090
:1005C0008DF8430001208DF828008DF856008DF835
:1005D000320000208DF84C0001208DF8840040038B
:1005E0000F9000208DF85C0018908DF885008DF834
:1005F00086004FF4C360169000208DF830000B90F9
:1006000001208DF8350000208DF836008DF840006F
:100610001D901B9014908DF864008DF87A000120D5
:100620008DF842002020209001208DF84400002009
:100630008DF855004FF0405009904FF480400E90D7
:1006400000208DF8310002201F9000208DF87800E6
:100650008DF879008DF8540001208DF834000020C9
:100660001A9001208DF8700009A9204600F09AFA2E
:1006700001208DF804000290002000908DF81C00ED
:100680008DF80D008DF80C004FF40010069000203E
:100690008DF814004FF40010049000208DF81D0018
:1006A0004FF4067008906946204600F01DFA22B00B
:1006B00010BD0020704710B502F050F810BD0000CA
:1006C00010B5024801F09CFD002010BD2CEA00246A
:1006D00070B504460D46164633462A462146044860
:1006E00001F0C7FC10B14FF0FF3070BD0020FCE7F7
:1006F0002CEA002470B504460D46164633462A46B9
:100700002146044801F0E0FE10B14FF0FF3070BD0B
:100710000020FCE72CEA00242DE9F04F06460B46AA
:10072000914606F118042269D4F810C0002754F845
:1007300022109D68BA46C86800F00040B0F1004F32
:1007400004D004F1140050F8220010B10220BDE8DA
:10075000F08F187800F00400C8B3C8686FF30F007A
:10076000D3F824B040EA0B00C860C86840F4803079
:10077000C8603068006E40F48010D6F800B0CBF846
:100780006000187800F0080008B3B3F82CB088684F
:100790006BF31F408860C86840F40030C860C868C8
:1007A00020F44020D3F830B040EA0B00C860306835
:1007B000406E40F48010D6F800B0CBF8640030688A
:1007C000006D40F08060D6F800B0CBF8500018788B
:1007D00000F0100058B188686FF30D00D3F818B01E
:1007E00040EA0B008860C86840F08060C8601878F4
:1007F00000F0040018B9187800F0100070B3C86851
:1008000040F08040C86000BF00BF00BFBFF35F8FF3
:1008100000BF00BF00BFC86840F00040C86000BF14
:10082000521C042A00D3121F00BF54F822107F1C50
:10083000C86800F00040B0F1004F0FD154F82C1000
:1008400000BF00BF00BFBFF35F8F00BF00BF00BF8E
:10085000C86820F00040C860022078E77F1C286844
:10086000086088686FF30D00D5F804B040EA0B000B
:100870008860A86868B1AD68286848608868DFF853
:1008800064B200EA0B00B5F804B040EA0B4088609F
:1008900007E0002048608868DFF848B200EA0B00F3
:1008A0008860187800F01000A0B1C86820F4F0004B
:1008B000B3F820B040EACB40C860C8686FF31100BD
:1008C000D3F81CB040EA0B00C860C86840F4802030
:1008D000C8601FE0C8686FF30E00D3F804B040EAA8
:1008E0000B00C860187800F0010038B1C86820F427
:1008F0004030D3F814B040EA0B00C860187800F01C
:10090000200038B1C86820F04060D3F810B040EA49
:100910000B00C860187800F0040038B1886820F433
:100920004040D3F828B040EA0B008860C86840F027
:100930000050C860C86820F08040C86000BF00BF99
:1009400000BFBFF35F8F00BF00BF00BFC86840F0AB
:100950000040C860187800F0020038B1C86820F084
:100960006070D3F80CB040EA0B00C86095E0C8682E
:1009700020F08050C86000BF521C042A00D3121F10
:1009800000BF54F82210C86820F00050C860C86842
:1009900000F00040B0F1004F04D004F1140050F812
:1009A0002200F8B1624654F822104FF0000815E01A
:1009B00000BF00BF00BFBFF35F8F00BF00BF00BF1D
:1009C000C86820F00040C86000BF521C042A00D351
:1009D000121F00BF54F8221008F10108B845E7D3F0
:1009E0000220B4E67F1CAD682868086088686FF351
:1009F0000D00D5F804B040EA0B008860A86868B123
:100A0000AD68286848608868DFF8D8B000EA0B0055
:100A1000B5F804B040EA0B40886007E00020486069
:100A20008868DFF8C0B000EA0B008860187800F032
:100A3000100060B1C8686FF31100D3F81CB040EA31
:100A40000B00C860C86840F48020C86013E0C86824
:100A50006FF30E00D3F804B040EA0B00C8601878BA
:100A600000F0010038B1C86820F44030D3F814B069
:100A700040EA0B00C8600AF1010A00BF00BF00BFD6
:100A8000BFF35F8F00BF00BF00BFC86840F00040E9
:100A9000C860C86820F08040C860A86800287FF45B
:100AA00066AFB9F1000F04D0886840F0004088605C
:100AB00003E0886820F000408860C86840F08050FB
:100AC000C86004F11400D4F824B040F822B02261C8
:100AD00072B60AF10100D4F828B05844A06262B698
:100AE000002034E6FFFF00C010B5036803F5805313
:100AF0001B6847F60204A3430C682343046804F50B
:100B0000805423600C798B6843EA04330C7B43EAFE
:100B1000C432036803F580535B684DF20104A343BC
:100B20001343046804F5805463604C7B0B6A43EA0A
:100B30000442036803F58053D3F80031164C234078
:100B40001343046804F58054C4F800310C7D0B692C
:100B500043EA04134C7F43EA0432036803F58053ED
:100B6000D3F804310D4C23401343046804F580543A
:100B7000C4F804310C7F8B6943EAC472036803F53F
:100B80008053D3F80831064C23401343046804F51E
:100B90008054C4F8083110BD00C0FEFFEFEFC0FF65
:100BA000FFFFC07F10B50C688B6823430C7943EAC4
:100BB000C4630C7B43EAC4534C7B43EA84538C7B71
:100BC00043EA4453CC7B43EA04530C7C0CB9012424
:100BD00000E0002443EAC4434C7C0CB9012400E04B
:100BE000002443EA44438C7C43EA04434C69234396
:100BF0008C6923430C7F43EA04334C7F43EAC423CC
:100C00008C7F0CB9012400E0002443EA8423CC7FCC
:100C100043EA442391F820400CB9012400E0002469
:100C200043EA042351F8244F23430C7943EA041385
:100C30008C6843EA040203681B683D4C234013435D
:100C4000046823600B7E5B060C7D43EA04630C7B27
:100C500043EA84434C7B43EA44438C7B24390CB9FC
:100C6000012400E0002443EA04434C6B43EA0402FD
:100C700003685B682F4C234013430468636091F85A
:100C800040404B6C43EA04220368DB6840F20F14D7
:100C9000A34313430468E36091F854400B6D43EAA7
:100CA000440391F84C400CB9012400E0002443EACD
:100CB000C41331F8484F43EA044203681B6F4FF6F0
:100CC0000D7423401343046823678B7B4C7B43EAFA
:100CD00044020368D3F8903023F0030313430468FD
:100CE000C4F890300368D3F8003D23F072030C6918
:100CF00023430468C4F8003D0C7E4B6948390CB9A5
:100D0000012400E0002443EA841391F8614043EA9F
:100D1000041391F8624043EAC4020368D3F8303DFB
:100D200023F07B0313430468C4F8303D10BD00007A
:100D3000838004000080F8C02DE9F84304460020B9
:100D400000904FF00108A56E04F1480050F82560AE
:100D5000E76E2CE0306958B9684601F0C7F9009891
:100D600010B94FF0000803E000983061009830603F
:100D7000B8F1000F1BD000BF00BF00BFBFF35F8FF3
:100D800000BF00BF00BFA06D18B14FF04140F06040
:100D900002E04FF00140F06000BF6D1C042D00D355
:100DA0002D1F00BF04F1480050F825607F1E17B1C9
:100DB000B8F1000FCED1E06EB84207D00021206814
:100DC00000F58050C0F82811A566E766BDE8F883F5
:100DD00010B5024800F024FE10BD00002CEA0024EB
:100DE00072B600BFFEE7000010B5044601F0B6FC85
:100DF00006490968401A642806D301F0AFFC03498C
:100E00000860204606F06CFF10BD00001C000024A6
:100E10002DE9F0410546687C00F0010000287CD1F6
:100E2000287800287ADD0027A5E05D4800EB8711CF
:100E3000281D40F827102878401EB84205D100210F
:100E4000281D50F82700016006E0281D791C50F885
:100E5000211050F827000160281D50F827400A2073
:100E6000207284F834704FF4C860E080277194F8E1
:100E7000350020F0020084F8350094F8350020F0A9
:100E80000400001D84F83500E0688068A063002637
:100E900060E0002104F10C0040F82610E08809F021
:100EA0000FFA04F10C0141F82600084650F826001C
:100EB000A8B3084650F82600007820F00200801CF5
:100EC00051F82610087004F10C0050F82600007844
:100ED00020F0040104F10C0050F82600017004F128
:100EE0000C0050F82600007820F0080104F10C00F6
:100EF00050F82600017004F10C0050F8260000782C
:100F000020F0010104F10C0050F82600017004F1FA
:100F10000C0050F826000C3002E03EE02FE013E019
:100F200004F10C0151F826108860E0880C3881B279
:100F300004F10C0050F826008180002104F10C001F
:100F400050F82600418003E04FF0FF30BDE8F0810B
:100F5000701CC6B2207AB0429BDC281D50F82700D6
:100F600090F8350020F00100401C291D51F8271091
:100F700081F835007F1C2878B8423FF756AF094802
:100F80006861687C20F00100401C6874687C20F077
:100F90000200801C68740020D8E70020D6E700001B
:100FA00068EB0024540000242DE9F041044601F0D0
:100FB000D5FB804614B90120BDE8F08194F83500D6
:100FC000022808D08020606500BF002084F834002B
:100FD00000BF0120F0E7FE492068884249D0FC4963
:100FE00018312068884244D0F9493031206888425D
:100FF0003FD0F7494831206888423AD0F4496031FF
:101000002068884235D0F24978312068884230D053
:10101000EF499031206888422BD0ED49A8312068F3
:10102000884226D0EB492068884222D0E94918310D
:10103000206888421DD0E74930312068884218D0A6
:10104000E44948312068884213D0E2496031206881
:1010500088420ED0DF4978312068884209D0DD49C6
:1010600090312068884204D0DA49A831206888424B
:1010700001D1012000E0002068B12068006820F064
:101080001E00216808602068406920F08000216807
:101090004861256806E02068006820F00E0021689D
:1010A00008602568CA492068884270D0C84918314C
:1010B000206888426BD0C64930312068884266D0AB
:1010C000C34948312068884261D0C14960312068F5
:1010D00088425CD0BE4978312068884257D0BC49EC
:1010E00090312068884252D0B949A831206888429E
:1010F0004DD0B8492068884249D0B6491831206897
:10110000884244D0B3493031206888423FD0B14949
:101110004831206888423AD0AE4960312068884220
:1011200035D0AC4978312068884230D0A949903117
:10113000206888422BD0A749A8312068884226D051
:10114000A5492068884222D0A349143120688842EA
:101150001DD0A14928312068884218D09E493C31D1
:101160002068884213D09C495031206888420ED0B4
:10117000994964312068884209D0974978312068BC
:10118000884204D094498C312068884201D10120E2
:1011900000E0002028B1206E006820F48070216EED
:1011A00008608B492068884249D0894918312068F5
:1011B000884244D086493031206888423FD08449F3
:1011C0004831206888423AD081496031206888429D
:1011D00035D07F4978312068884230D07C499031C1
:1011E000206888422BD07A49A8312068884226D0CE
:1011F00078492068884222D0764918312068884290
:101200001DD0744930312068884218D07149483166
:101210002068884213D06F496031206888420ED020
:101220006C4978312068884209D06A499031206839
:10123000884204D06749A8312068884206D12068D6
:10124000006820F001002168086005E0206800685F
:1012500020F001002168086011E001F07FFAA0EBA6
:10126000080005280BD920206065032084F835008C
:1012700000BF002084F8340000BF01209CE62868ED
:1012800000F001000028E8D151492068884249D087
:101290004F4918312068884244D04D493031206888
:1012A00088423FD04A494831206888423AD048496C
:1012B00060312068884235D04549783120688842BD
:1012C00030D043499031206888422BD04049A83122
:1012D0002068884226D03F492068884222D03D4974
:1012E0001831206888421DD03A4930312068884240
:1012F00018D0384948312068884213D035496031C8
:10130000206888420ED0334978312068884209D05D
:10131000304990312068884204D02E49A831206895
:10132000884201D1012000E0002040B1A66D94F870
:101330005C0000F01F013F208840B06007E0A76D0F
:1013400094F85C0000F01F0101208840786020497B
:101350002068884276D01E4918312068884271D0B2
:101360001B493031206888426CD0194948312068C7
:10137000884267D0164960312068884262D014499B
:101380007831206888425DD01149903120688842C8
:1013900058D00F49A8312068884253D00D492068A1
:1013A00088424FD00B491831206888424AD00949F9
:1013B00030312068884245D006494831206888424B
:1013C00040D004496031206888423BD0014905E0A3
:1013D000100002401004024008540258783120687E
:1013E00088422FD02549206888422BD023491831C4
:1013F0002068884226D022492068884222D020498D
:101400001431206888421DD01D4928312068884247
:1014100018D01B493C312068884213D018495031FC
:10142000206888420ED0164964312068884209D06D
:10143000134978312068884204D011498C312068E2
:10144000884201D1012000E0002068B1D4E91910E0
:101450004860E06E40B1E06E006820F48070E16E9C
:101460000860D4E91C104860012084F8350000BFF2
:10147000002084F8340000BF00BF9DE5A0040240B6
:101480000854025870B504460CB9012070BD94F898
:101490003500022803D0802060650120F6E7DC4992
:1014A0002068884249D0DA4918312068884244D0FF
:1014B000D7493031206888423FD0D549483120682B
:1014C00088423AD0D24960312068884235D0D0492C
:1014D00078312068884230D0CD49903120688842E8
:1014E0002BD0CB49A8312068884226D0C949206832
:1014F000884222D0C7491831206888421DD0C5498A
:1015000030312068884218D0C2494831206888426A
:1015100013D0C0496031206888420ED0BD4978316F
:101520002068884209D0BB4990312068884204D0A5
:10153000B849A8312068884201D1012000E000208C
:10154000F0B3042084F83500B149206888424BD0BC
:10155000AF4918312068884246D0AD493031206803
:10156000884241D0AA494831206888423CD0A849E5
:1015700060312068884237D0A54978312068884298
:1015800032D0A3499031206888422DD0A049A8319B
:101590002068884228D09F492068884224D09D49ED
:1015A0001831206888421FD09A493031206888421B
:1015B0001AD0984948312068884215D0954900E0F2
:1015C00020E06031206888420ED09249783120684E
:1015D000884209D08F4990312068884204D08D49D3
:1015E000A8312068884206D12068006820F00100F8
:1015F0002168086009E12068006820F00100216886
:10160000086002E12068006820F00E002168086090
:101610007F492068884249D07D4918312068884236
:1016200044D07B493031206888423FD078494831E6
:10163000206888423AD0764960312068884235D0A7
:10164000734978312068884230D0714990312068E0
:1016500088422BD06E49A8312068884226D06D4937
:101660002068884222D06B491831206888421DD0FA
:10167000684930312068884218D06649483120686E
:10168000884213D063496031206888420ED0614996
:1016900078312068884209D05E49903120688842BC
:1016A00004D05C49A8312068884206D120680068CF
:1016B00020F001002168086005E02068006820F043
:1016C00001002168086052492068884270D0504962
:1016D0001831206888426BD04D49303120688842EB
:1016E00066D04B4948312068884261D04849603112
:1016F000206888425CD0464978312068884257D0BB
:10170000434990312068884252D04149A83120682D
:1017100088424DD03F492068884249D03D49183120
:101720002068884244D03B493031206888423FD00D
:1017300038494831206888423AD0364960312068BB
:10174000884235D0334978312068884230D03149D9
:101750009031206888422BD02E49A83120688842D9
:1017600026D02D492068884222D02B491431206888
:1017700088421DD0284928312068884218D026493F
:101780003C312068884213D0234950312068884278
:101790000ED0214964312068884209D01E49783131
:1017A0002068884204D01C498C312068884201D1CD
:1017B000012000E00020D8B1206E006820F4807085
:1017C000216E0860A56D94F85C0000F01F010120F7
:1017D00088406860D4E919104860E06E40B1E06E5E
:1017E000006820F48070E16E0860D4E91C10486045
:1017F000012084F8350000BF002084F8340000BFC9
:10180000206D10B12046216D884700203EE6000083
:1018100010000240100402400854025870B50446FB
:1018200000F09CFF06462546681C10B1044800786D
:10183000054400BF00F092FF801BA842FAD370BDA0
:101840007C99002470477047024609B9012070470F
:101850001068006800F00C00C86210680068C0F3EF
:10186000001081F828001068006800F060004862ED
:1018700010680068C0F3002080F0010081F82000AB
:1018800010680068C0F34020C87710680068C0F393
:10189000802080F00100887710680068C0F3C020C5
:1018A000487710680068C0F3003008771068006857
:1018B00000F4005088611068006800F480404861BE
:1018C00010680068C0F30040887410680068C0F3B6
:1018D000404080F00100487410680068C0F3C040C8
:1018E00080F00100087410680068C0F30050C873ED
:1018F00010680068C0F34050887310680068C0F337
:101900008050487310680068C0F3C05008731068B6
:10191000006800F0E060886010680068C0F3C06094
:1019200008711068006800F0E040086010684068C6
:10193000C0F30D00486310684068C0F3004080F0B9
:10194000010081F8320010684068C0F3404081F81F
:10195000310010684068C0F3804081F830001068A2
:101960004068C0F3006081F8380010684068C0F338
:101970004460C8631068C068C0F3002081F840006C
:101980001068C06800F00F0048641068006FC0F372
:10199000400081F854001068006FC0F3C01080F060
:1019A000010081F84C001068006F00F070000865BD
:1019B0001068006F000C88641068D0F8900000F088
:1019C000010081F856001068D0F89000C0F3400084
:1019D00081F855001068D0F8000D00F0720088659D
:1019E0001068D0F8300D00F02300C8651068D0F8FA
:1019F000300DC0F3C00081F862001068D0F8300DDF
:101A0000C0F3001081F861001068D0F8300DC0F309
:101A1000801080F0010081F86000002017E70000CE
:101A200070B50446206800F58050D0F8600100F0E1
:101A30004000402812D1206800F58050D0F83401D1
:101A400000F04000402809D148F24001206800F52C
:101A50008050C0F86011204600F06CFB206800F553
:101A60008050D0F8600100F0010088B1206800F5D6
:101A70008050D0F8340100F0010048B148F2010173
:101A8000206800F58050C0F86011204600F019FD74
:101A9000206800F58050D0F8600100F48040B0F577
:101AA000804F46D1206800F58050D0F8340100F412
:101AB0008040B0F5804F3CD1D4F8880040F0080059
:101AC000C4F88800206800F58050D0F8600100F468
:101AD0008050B0F5805F19D1206800F58050D0F8B3
:101AE000600141F202110840C4F88C00206800F542
:101AF0008050D0F8340120F44041206800F5805037
:101B0000C0F83411E020C4F884000FE0206800F52C
:101B10008050D0F8600100F4CD40C4F88C004FF440
:101B2000CD41206800F58050C0F860112046FFF7D5
:101B30008AFE2068D0F8B45005F48040B0F5804F9C
:101B400004D005F40050B0F5005F12D11434606F7A
:101B500040F01000606754F8140CD0F8B800E0674B
:101B6000E0202067143C2046FFF76DFE0020C4F8FB
:101B700090002068D0F8B00000F0100010280CD1C0
:101B80002068D0F8C00000F06000C4F8940020463F
:101B900000F0EEF90020C4F894002068D0F8B000FE
:101BA00000F0200020280CD12068D0F8C00000F000
:101BB0000F00C4F898002046FFF744FE0020C4F848
:101BC00098000648006800F4800030B14FF48000AF
:101BD00002490860204600F075FC70BDA80000585E
:101BE00038B504460CB9012038BDD4F8840028B9B2
:101BF0002320C4F88400204600F0A6F800BF4F4818
:101C0000006840F002004D4908600846006800F096
:101C10000200009000BF00BF207A18B9002002F037
:101C200029FF03E04FF4000002F024FF444800685D
:101C3000206800F58050006840F00101206800F540
:101C40008050016000F08AFD05460DE000F086FD41
:101C5000401BB0F5FA7F07D90420C4F88800E020C3
:101C6000C4F884000120BFE7206800F580500068B8
:101C700000F001000028E9D1204600F0C1FA02F08E
:101C80006DF93049B0FBF1F0401E2168C1F8DC006D
:101C90002046FEF78BFC206800F58050D0F800014C
:101CA00020F4E01040F40021206800F58050C0F8D6
:101CB0000011207D00F0030038B10120C4F8880035
:101CC000E020C4F8840001208EE7206800F58050F1
:101CD000D0F8080147F6FE718843616940EA410186
:101CE000206800F58050C0F808112046FEF722FC5D
:101CF0002046FEF7EFFB606800796168497940EAA9
:101D000001202168C1F800036068C078000661689E
:101D1000897840EA01406168497840EA01206168B9
:101D2000097808432168C1F804030020C4F888003A
:101D30001020C4F88400002056E70000F444025844
:101D40000404005840420F0010B586B00446142128
:101D500001A8FEF72AFB7D49206888427ED100BF9A
:101D60007B48006840F400407949086008460068F4
:101D700000F40040009000BF00BF00BF08460068AC
:101D800040F4803008600846006800F4803000901D
:101D900000BF00BF00BF0846006840F40030086084
:101DA0000846006800F40030009000BF00BF00BF8C
:101DB00067480830006840F0100065490831086045
:101DC0000846006800F01000009000BF00BF00BF90
:101DD0000846006840F4807008600846006800F417
:101DE0008070009000BF00BF00BF0846006840F050
:101DF000040008600846006800F00400009000BF7E
:101E000000BF00BF0846006840F0010008600846B7
:101E1000006800F00100009000BF00BF00BF08464E
:101E2000006840F0800008600846006800F080000C
:101E3000009000BF00BF00BF0846006840F00200ED
:101E400008600846006800F00200009000BF00BF74
:101E500000BF0846006840F0400000E074E0086001
:101E60000846006800F04000009000BF00BF04205A
:101E700001900220029000200390032004900B2088
:101E8000059001A9334800F05FFB4FF4806001909A
:101E90000220029000200390032004900B20059064
:101EA00001A92D4800F050FB3E2001900220029035
:101EB00000200390032004900B20059001A92748DF
:101EC00000F042FB87200190022002900020039046
:101ED000032004900B20059001A9214800F034FB59
:101EE000082001900220029000200390032004901B
:101EF0000B20059001A91B4800F026FB40F60300CB
:101F000001900220029000200390032004900B20F7
:101F1000059001A9144800F017FB4FF440500190C0
:101F20000220029000200390032004900B200590D3
:101F300001A90E4800F008FB002211463D2000F0E8
:101F400005FD3D2000F0EEFC06B010BD0080024013
:101F5000D8440258001002580020025800080258C5
:101F600000000258001C02580004025800180258D1
:101F700070472DE9F05F04460F464FF00008C34656
:101F800047B9D4F8880040F00100C4F88800012067
:101F9000BDE8F09FD4F88400232801D00120F7E7A2
:101FA000E66D04F1480050F82650E06EC0F10409D7
:101FB00041E0E86800F0804018B16968A1672968CD
:101FC0006167E86800F0005008B9E06F38B3E8686E
:101FD00000F0005010B1002121666166D4F814A011
:101FE000E86800F0805048B1E868C0F30E01606E08
:101FF000A1EB000AE96821674FF0010B1FFA8AF391
:1020000004F18001081F2A6900F096F8206E401C38
:102010002066606E00EB0A0161660020286100BF47
:10202000761C042E00D3361F00BF04F1480050F880
:10203000265008F10108E86800F0004020B9C845C2
:1020400002D2BBF1000FB4D0E06E00EB0801E166F4
:10205000E06E10B12046FEF76FFEE665BBF1010FA2
:1020600005D1E06F38600021E167002090E7012092
:102070008EE72DE9F04704460F46904699462068C2
:10208000D0F8000200F0010010B10120BDE8F08797
:102090002068D0F8005225F0787040EA475525F4C2
:1020A000F81040EA084545F00C0545F001052068A8
:1020B000C0F8005200F052FB064607E000F04EFB6D
:1020C000801BB0F57A7F01D90120DFE72068D0F8C6
:1020D000000200F001000028F0D12068D0F80402CE
:1020E00080B2C9F800000020D0E700007CB50446AB
:1020F0000D4808F081FC054685B105F120002060FF
:102100000A4828614FF4C06120682B464122CDE97E
:1021100000010021084609F0FBFA04E0012004490F
:102120000870002020607CBD5C50010891BE000852
:1021300004000024704700002DE9F04704460F46D4
:102140002146BC460020A2F1200000250560058143
:1021500043810D680DB9086002E0DCF8005028608A
:10216000CCF80000086803E005891D44058100687B
:102170000028F9D115461E46002E29DD05F01F0A5C
:102180000AEB0608A94600BF00BF00BFBFF34F8F90
:1021900000BF00BF00BF00BFDFF83CA0CAF800903E
:1021A00009F12009A8F12008B8F1000FF4DC00BF04
:1021B00000BF00BFBFF34F8F00BF00BF00BF00BF15
:1021C00000BF00BFBFF36F8F00BF00BF00BF00BFE5
:1021D00000BFBDE8F08700005CEF00E070B504468A
:1021E0000D460DB9012070BDD4F88400102805D12A
:1021F00029462046FEF7D6FC0020F4E70120F2E74E
:1022000070B506463068D0F8005225F4706501F0CC
:10221000A5FE04461348844205D31348844202D2E3
:1022200045F400751AE01048844205D30F488442F3
:1022300002D245F4407511E00C48844203D30C48A7
:10224000844200D20AE00A48844205D30948844205
:1022500002D245F4807501E045F480653068C0F82D
:10226000005270BD002D3101C00E1602008793038D
:1022700000E1F50580D1F00810B50446D4F88400DB
:10228000102863D12320C4F884000121A1652068AF
:10229000D0F80C072E4908432168C1F80C072068C4
:1022A000D0F810072B4908432168C1F81007042112
:1022B000E1662046FEF740FD2068006840F002001D
:1022C000216808602068006840F00100216808600B
:1022D0002068D0F8000D40F001002168C1F8000D21
:1022E000206800F58050D0F8040140F0010120681A
:1022F00000F58050C0F80411206800F58050D0F837
:10230000080140F00101206800F58050C0F8081174
:10231000206800F58050D0F8600140F48171206899
:1023200000F58050C0F86011206800F58050D0F8AA
:1023300034014DF2C1010843216801F58051C1F813
:1023400034012320C4F88400002010BD0120FCE7E4
:102350006000020C00C0200C0146D1F88400232844
:1023600032D1C1F88400086800F58050D0F804012B
:1023700020F00102086800F58050C0F804210868C8
:1023800000F58050D0F8080120F00102086800F53F
:102390008050C0F808210868006820F001000A6831
:1023A00010600868D0F8000D40F001000A68C2F81B
:1023B000000D0868006820F002000A681060102014
:1023C000C1F88400002070470120FCE72DE9F041AE
:1023D000044688461546B8F1000F08D1D4F88800A5
:1023E00040F00100C4F888000120BDE8F081D4F875
:1023F0008400232863D1002241462046FEF78CF951
:1024000038B1D4F8880040F00200C4F888000120F8
:10241000EBE700BF00BF00BFBFF34F8F00BF00BF9F
:1024200000BF04F11800A16A50F8217000BFA06A33
:10243000401CA062A06A042802D3A06A001FA06208
:1024400000BF04F11800A16A50F82110206800F5BF
:102450008050C0F8201100F081F9064629E020687C
:1024600000F58050D0F8600100F4805070B1D4F8CD
:10247000880040F00800C4F88800206800F580500B
:10248000D0F86001C4F88C000120AEE7681C80B170
:1024900000F064F9801BA84200D855B9D4F8880030
:1024A00040F00400C4F888004FF04050F86001206C
:1024B0009BE7F86800F000400028D0D195E70120A4
:1024C00093E77047704700002DE9F04705460F4637
:1024D000904699462868D0F8000200F0010010B13B
:1024E0000120BDE8F0872868D0F8004224F0787019
:1024F00040EA475424F4F81040EA084424F00C0061
:10250000041D44F001041FFA89F00D4908600D48CC
:10251000C0F8004200F022F9064607E000F01EF97C
:10252000801BB0F57A7F01D90120DAE72868D0F85E
:10253000000200F001000028F0D100BFD1E7000048
:102540000482024000800240F8B502460B4600219A
:102550006F4DD7E001278F401E6806EA0704002C64
:1025600072D01E7906F00306012E04D01E7906F003
:102570000306022E13D190684F000326BE40B043DD
:102580004F00DE68BE4030439060506801268E40A8
:10259000B0431E79C6F300168E40304350601E795A
:1025A00006F00306032E09D0D0684F000326BE4074
:1025B000B0434F009E68BE403043D0601E7906F0A5
:1025C0000306022E13D1CF0802F1200656F8270089
:1025D0004E07F70E0F26BE40B0434F07FF0E1E6991
:1025E000BE403043CF0802F1200646F827001068AD
:1025F0004F000326BE40B0431E7906F003064F008D
:10260000BE40304310605E6806F44036002E78D03D
:1026100000BF404E366846F002063E4F3E603E46E2
:10262000366806F00206009600BF00BF3A4E8F08DB
:1026300056F827008E07370F0F26BE40B043374E9F
:10264000B24202D100262EE05BE0354EB24201D10B
:10265000012628E0334EB24201D1022623E0324E59
:10266000B24201D103261EE0304EB24201D104260F
:1026700019E02F4EB24201D1052614E02D4EB24290
:1026800001D106260FE02C4EB24201D107260AE006
:102690002A4EB24201D1082605E0294EB24201D1AC
:1026A000092600E00A268F073F0FBE4030431A4E2E
:1026B0008F0846F827004FF0B0463068A0435E68A8
:1026C00006F4801606B120434FF0B04630607068C3
:1026D000A0435E6806F4001606B120434FF0B046F2
:1026E00070606868A0435E6806F4003606B1204357
:1026F00068602868A0435E6806F4803606B120430F
:102700002860491C1E68CE40002E7FF423AFF8BD20
:1027100080000058F4440258080400580000025891
:102720000004025800080258000C02580010025819
:102730000014025800180258001C025800200258C9
:10274000002402580AB1816101E00B0483617047E3
:1027500001480068000C70470010005C01480068E8
:102760007047000074990024034800680349097801
:102770000844014908607047749900247C9900243A
:1027800010B5032000F020F901F032FC104909686F
:10279000C1F303210F4A515C01F01F0120FA01F43B
:1027A0000B48006800F00F001146085C00F01F00A5
:1027B00024FA00F008490860084804600F2000F07F
:1027C0000FF808B1012010BD00F09AF80020FAE7D8
:1027D00018440258905001088499002480990024DC
:1027E00070B504461148007808B9012070BD0F4843
:1027F00000784FF47A71B1FBF0F00D490968B1FB34
:10280000F0F5284602F040F908B10120EEE7102C5F
:1028100007D200222146501E00F098F805480460B7
:1028200001E00120E2E70020E0E700007C990024BD
:1028300080990024789900244178154A1160017824
:10284000F9B1121D41681160017B0907C27A41EAA2
:102850000261827A41EAC241427B41EA8241827B43
:1028600041EA4241C27B41EA0241427A41EA022105
:10287000027A41EA420102781143054A08321160A6
:1028800005E00021024A121D1160121D11607047FF
:1028900098ED00E000BF00BF00BFBFF35F8F00BF37
:1028A00000BF00BF0548006820F48030034908607D
:1028B00000200249703108607047000024ED00E0FC
:1028C00040F001010D4A11600C497039096841F46A
:1028D00080310A4A703A116000BF00BF00BFBFF3E9
:1028E0004F8F00BF00BF00BF00BF00BF00BFBFF3DE
:1028F0006F8F00BF00BF00BF7047000094ED00E085
:1029000008B500BF0648006840F0020004490860AE
:102910000846006800F00200009000BF00BF08BD3C
:10292000F44402580146084600280DDB00BF00BFF2
:1029300000F01F0301229A4043099B0003F1E023AA
:10294000C3F8002100BF00BF00BF70472DE9F05F52
:1029500080460D46164603F04FFF074639462A4685
:10296000334601F00700C0F1070ABAF1040F02D99B
:102970004FF0040A01E0C0F1070AD14600F1040A51
:10298000BAF1070F02D24FF0000A01E0A0F1030AEA
:10299000D4464FF0010A0AFA09FAAAF1010A0AEA32
:1029A000020A0AFA0CFA4FF0010B0BFA0CFBABF11E
:1029B000010B0BEA030B4AEA0B042146404603F0E5
:1029C00023FFBDE8F09F000000BF00F00702064BA8
:1029D00019684FF6FF031940044B0B4343EA0221E9
:1029E000014B196000BF70470CED00E00000FA05D4
:1029F00070B5044615480068C0F3800048B9134814
:102A0000006800F00700A04201D0012070BD002046
:102A1000FCE70E48006820F0070020430B490860DF
:102A2000FFF79CFE054607E0FFF798FE401BB0F558
:102A30007A7F01D90120E9E7044808380068C0F32B
:102A400040300028F0D00020E0E700000C48025899
:102A500010B501F083FA05490968C1F30211044A6F
:102A6000515C01F01F01C84010BD00002044025815
:102A70009050010870B50146844D2D6805F00303A0
:102A8000824D2D68C5F30530804D2D1D2D68C5F391
:102A900000147E4D14352D68C5F3CC0515FB04F5E7
:102AA00001EE105AB8EE411AF0EE410A00286FD03C
:102AB00023B1012B4ED0022B6BD16BE0734D283D1F
:102AC0002D68C5F340153DB3704D283D2D68C5F305
:102AD000C1066F4D25FA06F201EE102AF8EE411AF2
:102AE00001EE100AB8EE411A81EE812A9FED691AB3
:102AF000C0EE811A654D10352D68C5F3080501EE4D
:102B0000105AB8EE411A31EE811AF7EE001A31EE82
:102B1000211A22EE010A1CE001EE100AB8EE411A59
:102B2000DFED5D1A81EE812A9FED5A1AC0EE811AFF
:102B3000564D10352D68C5F3080501EE105AB8EE54
:102B4000411A31EE811AF7EE001A31EE211A22EE07
:102B5000010A5BE001EE100AB8EE411ADFED4F1AF0
:102B600081EE812A9FED4B1AC0EE811A474D103538
:102B70002D68C5F3080501EE105AB8EE411A31EE82
:102B8000811AF7EE001A31EE211A22EE010A3DE019
:102B900077E01DE001EE100AB8EE411A9FED402AE1
:102BA000C2EE011A9FED3B1A80EE812A374D103597
:102BB0002D68C5F3080501EE105AB8EE411A32EE41
:102BC000011AB7EE002A31EE021A21EE810A1DE049
:102BD00001EE100AB8EE411ADFED301A81EE812ABB
:102BE0009FED2C1AC0EE811A284D10352D68C5F3C3
:102BF000080501EE105AB8EE411A31EE811AF7EECF
:102C0000001A31EE211A22EE010A00BF00BF1F4D4B
:102C100010352D68C5F3462501EE105AB8EE411A5D
:102C2000F7EE001A31EE211AC0EE011ABCEEE11ADD
:102C300081ED001A154D10352D68C5F3064501EEDE
:102C4000105AB8EE411AF7EE001A31EE211AC0EE12
:102C5000011ABCEEE11A81ED011A0C4D10352D68F8
:102C6000C5F3066501EE105AB8EE411AF7EE001AE8
:102C700031EE211AC0EE011ABCEEE11A81ED021A02
:102C800003E000250D604D608D6070BD2844025842
:102C90000090D003000000460024744C0024744AC5
:102CA00020BCBE4B70B50146844D2D6805F0030372
:102CB000824D2D68C5F30550804D2D1D2D68C5F33F
:102CC00000247E4D1C352D68C5F3CC0515FB04F59D
:102CD00001EE105AB8EE411AF0EE410A00286FD00A
:102CE00023B1012B4ED0022B6BD16BE0734D283DED
:102CF0002D68C5F340153DB3704D283D2D68C5F3D3
:102D0000C1066F4D25FA06F201EE102AF8EE411ABF
:102D100001EE100AB8EE411A81EE812A9FED691A80
:102D2000C0EE811A654D18352D68C5F3080501EE12
:102D3000105AB8EE411A31EE811AF7EE001A31EE50
:102D4000211A22EE010A1CE001EE100AB8EE411A27
:102D5000DFED5D1A81EE812A9FED5A1AC0EE811ACD
:102D6000564D18352D68C5F3080501EE105AB8EE1A
:102D7000411A31EE811AF7EE001A31EE211A22EED5
:102D8000010A5BE001EE100AB8EE411ADFED4F1ABE
:102D900081EE812A9FED4B1AC0EE811A474D1835FE
:102DA0002D68C5F3080501EE105AB8EE411A31EE50
:102DB000811AF7EE001A31EE211A22EE010A3DE0E7
:102DC00077E01DE001EE100AB8EE411A9FED402AAF
:102DD000C2EE011A9FED3B1A80EE812A374D18355D
:102DE0002D68C5F3080501EE105AB8EE411A32EE0F
:102DF000011AB7EE002A31EE021A21EE810A1DE017
:102E000001EE100AB8EE411ADFED301A81EE812A88
:102E10009FED2C1AC0EE811A284D18352D68C5F388
:102E2000080501EE105AB8EE411A31EE811AF7EE9C
:102E3000001A31EE211A22EE010A00BF00BF1F4D19
:102E400018352D68C5F3462501EE105AB8EE411A23
:102E5000F7EE001A31EE211AC0EE011ABCEEE11AAB
:102E600081ED001A154D18352D68C5F3064501EEA4
:102E7000105AB8EE411AF7EE001A31EE211AC0EEE0
:102E8000011ABCEEE11A81ED011A0C4D18352D68BE
:102E9000C5F3066501EE105AB8EE411AF7EE001AB6
:102EA00031EE211AC0EE011ABCEEE11A81ED021AD0
:102EB00003E000250D604D608D6070BD2844025810
:102EC0000090D003000000460024744C0024744A93
:102ED00020BCBE4B2DE9F04104460025A8464FF02A
:102EE0000062D4E9001011400020134659404040D0
:102EF000014331D1A06E48B1B0F5801F0DD0B0F5BF
:102F0000001F11D0B0F5401F16D114E0F948006839
:102F100040F40030F749086010E0022104F1080095
:102F200002F074FC054609E0022104F1280002F0D9
:102F30001FFD054602E001E0012500BF00BF55B9B5
:102F4000EC482430006820F44010A16E0843E949A1
:102F50002431086000E0A8464FF48073D4E90010E3
:102F6000194000205940404001432ED1A06D052852
:102F70001BD2DFE800F0030A11181900DD480068D1
:102F800040F40030DB49086011E0002104F1080042
:102F900002F03CFC05460AE0002104F1280002F0A2
:102FA000E7FC054603E002E001E0012500BF00BFA9
:102FB00055B9D0482430006820F00700A16D0843BF
:102FC000CC492431086000E0A8464FF40073D4E9EE
:102FD00000101940002059404040014334D1E06DB9
:102FE000802818D003DC40B140281DD10CE0C02857
:102FF00018D0B0F5807F17D115E0BE48006840F4C6
:103000000030BC49086011E0002104F1080002F022
:10301000FDFB05460AE0002104F1280002F0A8FCAF
:10302000054603E002E001E0012500BF00BF55B9FD
:10303000B0482430006820F4E070E16D0843AD49E9
:103040002431086000E0A8464FF48063D4E9001002
:103050001940002059404040014339D1D4F8A8001C
:10306000B0F5800F1AD004DC50B1B0F5001F1ED1AE
:103070000DE0B0F5C00F18D0B0F5000F17D115E076
:103080009C48006840F400309A49086011E0002133
:1030900004F1080002F0BAFB05460AE0002104F141
:1030A000280002F065FC054603E002E001E001258E
:1030B00000BF00BF5DB98F482C30006820F460006D
:1030C000D4F8A81008438B492C31086000E0A846CA
:1030D0004FF40062D4E9001011400020134659401B
:1030E0004040014339D1D4F8AC00B0F1007F1AD090
:1030F00004DC50B1B0F1807F1ED10DE0B0F1407F13
:1031000018D0B0F1806F17D115E07A48006840F40C
:1031100000307849086011E0002104F1080002F055
:1031200075FB05460AE0002104F1280002F020FCAE
:10313000054603E002E001E0012500BF00BF5DB9E4
:103140006C482C30006820F0E060D4F8AC100843E4
:1031500068492C31086000E0A8464FF00073D4E9BC
:1031600000011840002158404940084328D1E06C34
:10317000A8B1102804D0202809D0302810D10DE0A3
:103180005C48006840F400305A4908600AE00221B7
:1031900004F1080002F03AFB054603E002E001E01A
:1031A000012500BF00BF55B952482030006820F00B
:1031B0003000E16C08434F492031086000E0A84628
:1031C0004FF48053D4E9001019400020594040408A
:1031D000014337D1206EB0F5005F1AD004DC50B146
:1031E000B0F5805F1ED10DE0B0F5405F18D0B0F5AE
:1031F000804F17D115E03F48006840F400303D494A
:10320000086011E0002104F1080002F0FFFA054611
:103210000AE0002104F1280002F0AAFB054603E0C1
:1032200002E001E0012500BF00BF55B9314824305C
:10323000006820F4E040216E08432E4924310860E4
:1032400000E0A8464FF40053D4E9001019400020D4
:1032500059404040014335D1606EB0F5403F1ED02B
:1032600007DC68B1B0F5803F0BD0B0F5003F19D155
:103270000EE0B0F5802F13D0B0F5A02F12D110E0E2
:1032800012E0012104F1080002F0C0FA05460BE04B
:10329000012104F1280002F06BFB054604E003E085
:1032A00002E001E0012500BF00BF55B911482430FC
:1032B000006820F4E020616E08430E492431086064
:1032C00000E0A8464FF48043D4E9000118400021F3
:1032D00058404940084337D1D4F8B000B0F1405FBE
:1032E00020D009DC78B1B0F1805F0DD0B0F1005F83
:1032F0001BD110E02C440258B0F1804F13D0B0F134
:10330000A04F12D110E012E0012104F1080002F0F8
:103310007DFA05460BE0012104F1280002F028FBAC
:10332000054604E003E002E001E0012500BF00BF24
:103330004DB9FE48006820F0E040D4F8B0100843D2
:10334000FA49086000E0A8464FF40042D4E90010B2
:1033500011400020134659404040014329D1206FBD
:10336000B0B1B0F1805F03D0B0F1005F11D108E0DF
:10337000EE482C38006840F40030EC492C390860E5
:1033800009E0012104F1080002F040FA054602E0DC
:1033900001E0012500BF00BF55B9E44808380068C6
:1033A00020F04050216F0843E0490839086000E0F0
:1033B000A8464FF08072D4E9001011400020134657
:1033C0005940404001432AD1A06CB8B1012804D033
:1033D00002280BD0032812D10FE0D4482C38006803
:1033E00040F40030D1492C3908600AE0022104F190
:1033F000080002F00BFA054603E002E001E00125B7
:1034000000BF00BF55B9C9480C38006820F0030060
:10341000A16C0843C5490C39086000E0A8464FF488
:103420008002D4E900011040002113465840494071
:1034300008437DD1BE48006840F48070BC490860F4
:10344000FFF78CF9064606E0FFF788F9801B642831
:1034500001D9032505E0B648006800F48070002813
:10346000F2D000BF85BBB1481830006800F440704E
:10347000B4F8B41001F44071884213D0AB4818304E
:10348000006820F44077A9481830006840F4803084
:10349000A649183108600846006820F480300860AA
:1034A00008460760D4F8B400B0F5807F15D1FFF767
:1034B00055F9064609E0FFF751F9801B41F28831C2
:1034C000884202D9032507E038E0984818300068A0
:1034D000C0F340000028EED000BF55BB00BFB4F8D9
:1034E000B40000F44070B0F5407F0ED18F484838EA
:1034F000006820F47C518F4AD4F8B400104041EAAF
:1035000010108A494839086007E088484838006840
:1035100020F47C5085494839086084481830006898
:10352000B4F8B410C1F30B0108438049183101E02D
:1035300005E001E0086002E0A84600E0A84601229C
:10354000D4E9000110400021134658404940084387
:1035500030D1E06F18281AD005DC48B1082808D00F
:10356000102817D10CE0202812D0282812D110E002
:1035700012E0012104F1080002F048F905460BE0D1
:10358000012104F1280002F0F3F9054604E003E00C
:1035900002E001E0012500BF00BF55B96348001FEC
:1035A000006820F03800E16F08436049091F086097
:1035B00000E0A8460222D4E9000110400021134691
:1035C00058404940084329D1A06F062816D2DFE8A9
:1035D00000F003040B12131412E0012104F108009F
:1035E00002F014F905460BE0012104F1280002F075
:1035F000BFF9054604E003E002E001E0012500BF59
:1036000000BF55B94948001F006820F00700A16FAE
:1036100008434649091F086000E0A8460423D4E98E
:1036200000101940002059404040014329D1D4F8EE
:103630009400062816D2DFE800F003040B121314DE
:1036400012E0012104F1080002F0E0F805460BE069
:10365000012104F1280002F08BF9054604E003E0A3
:1036600002E001E0012500BF00BF4DB92F4800680E
:1036700020F00700D4F8941008432C49086000E0BB
:10368000A8462023D4E900011840002158404940B1
:10369000084337D1D4F89000B0F1405F1ED007DC6A
:1036A00068B1B0F1805F0BD0B0F1005F19D10EE0CE
:1036B000B0F1804F13D0B0F1A04F12D110E012E062
:1036C000002104F1080002F0A1F805460BE00221F8
:1036D00004F1280002F04CF9054604E003E002E0A2
:1036E00001E0012500BF00BF5DB91048001F006860
:1036F00020F0E040D4F8901008430C49091F0860FE
:1037000000E0A8464023D4E90010194000205940A9
:10371000404001433CD1D4F89C00B0F5406F25D027
:103720000EDCA0B1B0F5806F12D005E0584402580D
:1037300000480258FFFCFF0FB0F5006F19D10EE0F2
:10374000B0F5805F13D0B0F5A05F12D110E012E0A9
:10375000002104F1080002F059F805460BE00221AF
:1037600004F1280002F004F9054604E003E002E059
:1037700001E0012500BF00BF4DB9FE48006820F4FC
:10378000E050D4F89C100843FA49086000E0A846CD
:103790008023D4E9001019400020594040400143E3
:1037A00035D1D4F8A000B0F5C04F1ED007DC68B109
:1037B000B0F5005F0BD0B0F5804F19D10EE0B0F539
:1037C000004F13D0B0F5204F12D110E012E00021CD
:1037D00004F1080002F01AF805460BE0022104F19A
:1037E000280002F0C5F8054604E003E002E001E02D
:1037F000012500BF00BF4DB9DE48006820F46040DD
:10380000D4F8A0100843DB49086000E0A84608236C
:10381000D4E900101940002059404040014317D11D
:10382000D4F88400B0F5805F07D1022104F12800AC
:1038300002F09EF808B14FF00108CE48001F006862
:1038400020F44050D4F884100843CA49091F086086
:103850001023D4E900101940002059404040014392
:1038600015D1D4F89800B0F5807F07D1022104F17A
:10387000280002F07DF808B14FF00108BD4800684B
:1038800020F44070D4F898100843BA4908604FF407
:103890000022D4E90001104000211346584049405D
:1038A000084327D1D4F8A40030B1B0F5803F0AD046
:1038B000B0F5003F0FD10DE0002104F1080001F048
:1038C000A5FF054609E0022104F1280002F050F8A6
:1038D000054602E001E0012500BF00BF4DB9A54843
:1038E000006820F44030D4F8A4100843A1490860CF
:1038F00000E0A8464FF48023D4E9000118400021DD
:103900005840494008432DD1D4F88800B0F5801FB5
:1039100006D0B0F5001F0CD0B0F5401F11D10FE05C
:1039200094482C38006840F4003092492C390860E3
:1039300009E0012104F1280002F01AF8054602E02E
:1039400001E0012500BF00BF5DB98A48001F006883
:1039500020F44010D4F8881008438649091F0860F5
:1039600000E0A8464FF48032D4E900011040002165
:10397000134658404940084325D1206D18B1B0F591
:10398000803F10D108E07B482C38006840F40030BC
:1039900078492C39086008E0022104F1080001F0A0
:1039A00035FF054601E0012500BF00BF55B971484C
:1039B0000C38006820F48030216D08436D490C39C3
:1039C000086000E0A8464FF00052D4E90010114012
:1039D0000020134659404040014307D1022104F121
:1039E000280001F0C5FF08B14FF001084FF4003383
:1039F000D4E900011840002158404940084329D12A
:103A0000D4F88000A0B1B0F5807F06D0B0F5007F7B
:103A10000CD0B0F5407F0CD109E056482C38006836
:103A200040F4003053492C39086004E003E002E020
:103A300001E0012500BF00BF5DB94E48001F0068CE
:103A400020F44070D4F8801008434A49091F0860E8
:103A500000E0A8464FF48012D4E900101140002085
:103A6000134659404040014309D142480838006894
:103A700020F00040616F08433E49083908604FF06C
:103A80008052D4E9001011400020134659404040B4
:103A900001430AD137484838006820F48040D4F800
:103AA000B81008433349483908604FF40012D4E98C
:103AB000001011400020134659404040014309D1F5
:103AC0002C480838006820F08070E16E08432949CE
:103AD000083908604FF08042D4E9001011400020FE
:103AE000134659404040014311D100BF2148483896
:103AF000006820F400401F49483908600846006803
:103B0000D4F8BC1008431B494839086000BF4FF087
:103B10000042D4E9001011400020134659404040B3
:103B2000014309D113480C38006820F04050616D02
:103B3000084310490C3908604FF40002D4E9001022
:103B40001140002013465940404001430AD1094822
:103B5000001F006820F44000D4F88C100843054989
:103B6000091F0860012300216068184001224940B4
:103B7000504001E058440258014306D104F10800C6
:103B800001F044FE054605B1A84602220021606806
:103B9000104049405040014307D1012104F1080081
:103BA00001F034FE054605B1A846042300206168F3
:103BB0001940042240405140084307D1022104F13A
:103BC000080001F023FE054605B1A84608230021A0
:103BD00060681840082249405040014306D104F172
:103BE000280001F0C5FE054605B1A84610220021B7
:103BF0006068104049405040014307D1012104F161
:103C0000280001F0B5FE054605B1A8462022002097
:103C10006168114040405140084307D1022104F13E
:103C2000280001F0A5FE054605B1A846B8F1000F31
:103C300002D10020BDE8F0810120FBE72DE9F04131
:103C400004460D4614B90120BDE8F081BD48006866
:103C500000F00F00A8420ED2BA48006820F00F0012
:103C60002843B84908600846006800F00F00A842E1
:103C700001D00120E8E7207800F0040004280ED1EC
:103C8000B1492069096801F07001884207D9AE483E
:103C9000006820F0700021690843AB490860207873
:103CA00000F00800082811D1A749091D60690968BA
:103CB00001F07001884209D9A348001D006820F076
:103CC000700061690843A049091D0860207800F070
:103CD0001000102811D19C49091DA069096801F440
:103CE000E061884209D99848001D006820F4E0602E
:103CF000A16908439449091D0860207800F020005C
:103D0000202811D190490831E069096801F070015B
:103D1000884209D98C480830006820F07000E169B9
:103D20000843894908310860207800F00200022821
:103D30000ED18549E068096801F00F01884207D972
:103D40008148006820F00F00E16808437E49086060
:103D5000207800F00100002850D07B48006820F453
:103D60007060A1680843784908606068022807D13C
:103D7000754818380068C0F34040F8B9012063E77F
:103D80006068032807D1704818380068C0F34060A5
:103D9000A0B9012058E76068012807D16A4818389F
:103DA0000068C0F3002048B901204DE76648183884
:103DB0000068C0F3800008B9012045E76248083870
:103DC000006820F00700616808435F49083908600F
:103DD000FEF7C4FC064608E0FEF7C0FC801B41F27B
:103DE0008831884201D903202EE7574808380068F7
:103DF00000F038006168B0EBC10FEDD1207800F021
:103E0000020002280ED15049E068096801F00F0154
:103E1000884207D24C48006820F00F00E168084350
:103E2000494908604748006800F00F00A8420ED9D1
:103E30004448006820F00F002843424908600846C3
:103E4000006800F00F00A84201D00120FCE62078B5
:103E500000F0040004280ED13B492069096801F0F4
:103E60007001884207D23848006820F0700021694C
:103E7000084335490860207800F00800082811D16F
:103E80003149091D6069096801F07001884209D251
:103E90002D48001D006820F07000616908432A4920
:103EA000091D0860207800F01000102811D1264963
:103EB000091DA069096801F4E061884209D222481D
:103EC000001D006820F4E060A16908431E49091D37
:103ED0000860207800F02000202811D11A4908310C
:103EE000E069096801F07001884209D2164808307B
:103EF000006820F07000E169084313490831086048
:103F000000F076F810490968C1F303210F4A515CAB
:103F100001F01F0120FA01F70B48006800F00F00C4
:103F20001146085C00F01F0027FA00F008490860FD
:103F30000848076008480068FEF752FC8046404683
:103F400082E60000002000521844025890500108F8
:103F500084990024809900247899002410B500F0F9
:103F600047F80D490968C1F303210C4A515C01F07F
:103F70001F0120FA01F40848006800F00F00114604
:103F8000085C00F01F0024FA00F0054908600548AD
:103F900004600846006810BD18440258905001089B
:103FA000849900248099002400B5FFF7D7FF0549C4
:103FB0000968C1F30211044A515C01F01F01C840B5
:103FC00000BD00001C4402589050010800B5FFF7E6
:103FD000C5FF05490968C1F30221044A515C01F09B
:103FE0001F01C84000BD00001C4402589050010849
:103FF000F0B5824E366806F0380636B1082E15D078
:10400000102E15D0182E7DD114E07C4E103E36684F
:10401000C6F3401646B1794E103E3668C6F3C10766
:10402000774E26FA07F000E07548E5E07548E3E0D2
:104030007548E1E0714E1836366806F003046F4E9D
:1040400018363668C6F305116C4E1C36366806F015
:1040500001056A4E24363668C6F3CC0616FB05F613
:1040600001EE106AB8EE410A002971D024B1012C8A
:1040700050D0022C6DD16DE0604E103E3668C6F314
:1040800040163EB35D4E103E3668C6F3C1075C4E27
:1040900026FA07F301EE103AF8EE411A01EE101A73
:1040A000B8EE411A81EE812A9FED581AC0EE011A2E
:1040B000524E20363668C6F3080601EE106AB8EE96
:1040C000411A31EE811AF7EE001A31EE211A62EE32
:1040D000010A1EE001EE101AB8EE411ADFED4C1A8B
:1040E00081EE812A9FED491AC0EE011A434E203617
:1040F0003668C6F3080601EE106AB8EE411A31EED2
:10410000811A00E076E0F7EE001A31EE211A62EE35
:10411000010A5BE001EE101AB8EE411A9FED3D2A4C
:10412000C2EE011A9FED391A80EE012A334E203675
:104130003668C6F3080601EE106AB8EE411A32EE90
:10414000011AB7EE002A31EE021A61EE810A3DE053
:104150004EE01DE001EE101AB8EE411ADFED2E1A06
:1041600081EE812A9FED291AC0EE011A234E2036D6
:104170003668C6F3080601EE106AB8EE411A31EE51
:10418000811AF7EE001A31EE211A62EE010A1DE0E3
:1041900001EE101AB8EE411A9FED1E2AC2EE011A66
:1041A0009FED1A1A80EE012A144E20363668C6F3A7
:1041B000080601EE106AB8EE411A32EE011AB7EEA7
:1041C000002A31EE021A61EE810A00BF00BF0B4ED9
:1041D00020363668C6F34626721C01EE102AB8EE69
:1041E000411AC0EE811ABCEEE11A11EE100A00E08D
:1041F000002001E0034800BF00BFF0BD104402589A
:104200000090D00300093D0040787D010000004689
:104210000024744C0024744A20BCBE4B2DE9F047A6
:10422000044614B90120BDE8F087207800F00100B1
:10423000002870D0FA48006800F03808F8481830B4
:10424000D0F80090B8F1100F06D0B8F1180F0FD1C8
:1042500009F0030002280BD1F14810380068C0F3C0
:10426000404000286AD06068002867D10120DAE762
:1042700000BF6068B0F5803F08D1E9481038006899
:1042800040F48030E649103908602EE0606868B973
:10429000E3481038006820F48030E14910390860A4
:1042A0000846006820F4802008601EE06068B0F5D1
:1042B000A02F0DD1DA481038006840F48020D8498A
:1042C000103908600846006840F4803008600CE04F
:1042D000D3481038006820F48030D1491039086084
:1042E0000846006820F48020086000BF606898B12C
:1042F000FEF734FA054606E0FEF730FA401B642864
:1043000001D903208FE7C64810380068C0F3404049
:104310000028F1D012E012E0FEF720FA054606E090
:10432000FEF71CFA401B642801D903207BE7BC4838
:1043300010380068C0F340400028F1D100BF207859
:1043400000F00200022874D1B548006800F0380877
:10435000B3481830D0F80090B8F1000F05D0B8F18C
:10436000180F56D109F00300D0BBAD4810380068D3
:10437000C0F3800018B1E06808B9012053E7A848ED
:104380001038006820F01900E1680843A44910398A
:104390000860FEF7E3F9054606E0FEF7DFF9401B8B
:1043A000022801D903203EE79D4810380068C0F379
:1043B00080000028F1D000BFFEF7CAF941F20301E6
:1043C00088421AD8206940280BD195480C380068DB
:1043D00020F47C3040F4003091490C39086017E03B
:1043E00017E08F480C38006820F47C30216940EADF
:1043F00001308B490C3908600AE089480C380068A4
:1044000020F0FE40217C40EA016085490C390860BB
:1044100066E0E06888B382481038006820F0190030
:10442000E16808437E4910390860FEF797F90546B0
:1044300007E056E0FEF792F9401B022801D903205D
:10444000F1E6774810380068C0F380000028F1D00A
:1044500000BFFEF77DF941F2030188421AD82069B6
:1044600040280BD16E480C38006820F47C3040F4B2
:1044700000306B490C39086017E017E068480C38C9
:10448000006820F47C30216940EA013064490C392D
:1044900008600AE062480C38006820F0FE40217C89
:1044A00040EA01605E490C39086019E05C48103848
:1044B000006820F001005A4910390860FEF74EF9F3
:1044C000054606E0FEF74AF9401B022801D9032001
:1044D000A9E6534810380068C0F380000028F1D1E5
:1044E00000BF207800F0100010287CD14C480068F4
:1044F00000F038084A481830D0F80090B8F1080F9A
:1045000006D0B8F1180F3DD109F00300012839D1C8
:10451000434810380068C0F3002020B1E0698028CB
:1045200001D001207FE600BFFEF712F941F203013E
:1045300088421AD8206A20280AD139480C380068E5
:1045400020F0F84040F0804035490C39086018E010
:1045500033480C38006820F0F84094F8201040EA06
:1045600081602F490C3908600BE02D48001F00685E
:1045700020F07C5094F8201040EA01602849091F7F
:10458000086066E0E06978B325481038006840F0BC
:104590008000234910390860FEF7E0F8054606E080
:1045A000FEF7DCF8401B022801D903203BE61C483B
:1045B00010380068C0F300200028F1D000BFFEF7DB
:1045C000C7F841F2030188421CD8206A20280CD188
:1045D00013480C38006820F0F84040F08040104943
:1045E0000C3908601AE035E01CE00D480C38006812
:1045F00020F0F84094F8201040EA816008490C3916
:1046000008600BE00648001F006820F07C5094F81A
:10461000201040EA01600249091F086019E000000B
:1046200010440258FA48006820F08000F8490860F9
:10463000FEF794F8054606E0FEF790F8401B0228C6
:1046400001D90320EFE5F2480068C0F300200028FC
:10465000F2D100BF207800F00800082836D1606948
:10466000D0B1EB487430006840F00100E849743183
:104670000860FEF773F8054606E0FEF76FF8401B8A
:10468000022801D90320CEE5E14874300068C0F368
:1046900040000028F1D019E0DD487430006820F0B7
:1046A0000100DB4974310860FEF758F8054606E062
:1046B000FEF754F8401B022801D90320B3E5D44883
:1046C00074300068C0F340000028F1D1207800F079
:1046D0002000202830D1A069B8B1CD48006840F44E
:1046E0008050CB490860FEF739F8054606E0FEF732
:1046F00035F8401B022801D9032094E5C44800681E
:10470000C0F340300028F2D016E0C148006820F421
:104710008050BF490860FEF721F8054606E0FEF725
:104720001DF8401B022801D903207CE5B848006829
:10473000C0F340300028F2D1207800F004000428B3
:104740007DD1B448006840F48070B2490860FEF73B
:1047500005F8054606E0FEF701F8401B642801D97C
:10476000032060E5AB48006800F480700028F2D0B8
:1047700000BFA068012808D1A5487030006840F04B
:104780000100A349703108602DE0A06868B9A04815
:104790007030006820F001009D49703108600846C3
:1047A000006820F0040008601DE0A06805280DD115
:1047B00097487030006840F00400954970310860F7
:1047C0000846006840F0010008600CE09048703036
:1047D000006820F001008E497031086008460068CA
:1047E00020F00400086000BFA068A0B1FDF7B6FF8C
:1047F000054608E0FDF7B2FF401B41F288318842D0
:1048000001D903200FE5824870300068C0F34000F2
:104810000028EFD013E0FDF7A1FF054608E0FDF703
:104820009DFF401B41F28831884201D90320FAE400
:10483000774870300068C0F340000028EFD1606A0C
:1048400000287DD072481030006800F03800182829
:1048500077D0606A022875D16D48006820F08070BA
:104860006B490860FDF77AFF054606E0FDF776FF25
:10487000401B022801D90320D5E465480068C0F335
:1048800040600028F2D100BFD4E90A1041EA0010CC
:104890005F492831096840F2F332914308435C498B
:1048A00028310860208E401EC0F30800616B491E4D
:1048B0004FF47E4202EA41210843218F491ED20172
:1048C00002EA014108433C21095D491E120202EA45
:1048D000016108434E493031086000BF081F00687D
:1048E00020F00100091F08604948343000684FF685
:1048F000F8718843A16C40EAC10045493431086031
:1049000043482C30006820F00C00216C08434049DB
:104910002C3108600846006820F00200616C0843F2
:104920003B492C3108600846006840F4803008603C
:104930000846006840F4003008600846006802E05D
:1049400093E038E01FE040F48020086008460068EB
:1049500040F0010008602E48006840F080702C494B
:104960000860FDF7FBFE054606E0FDF7F7FE401B7D
:10497000022801D9032056E425480068C0F34060AE
:104980000028F2D071E02248006820F080702049B1
:104990000860FDF7E3FE054606E0FDF7DFFE401B7D
:1049A000022801D903203EE419480068C0F34060A2
:1049B0000028F2D159E016482830076814483030F2
:1049C0000668606A012821D007F00301A06A8142CD
:1049D0001CD1C7F30511E06A884217D1C6F308015C
:1049E000206B401E814211D1606B401EC6F34621F0
:1049F00088420BD1A06B401EC6F30641884205D108
:104A0000E06B401EC6F30661884205D001200AE42F
:104A1000004402580048025815480068C0F3CC070B
:104A2000A06CB84221D012480838006820F001007C
:104A30000F4908390860FDF791FE054600BFFDF7F4
:104A40008DFE401BFBD00A4800684FF6F871884382
:104A5000A16C40EAC10006490860054808380068B2
:104A600040F0010002490839086000204AE40000D3
:104A7000344402580349096821F460010143014AA2
:104A8000116070470404005870B504462546681E3E
:104A9000B0F1807F01D301200FE0681E4FF0E021CC
:104AA00048610F214FF0FF3001F0AEFE00204FF0C3
:104AB000E021886107200861002070BD014600BF29
:104AC00091F88400012801D102207047012081F86B
:104AD000840000BF2420C1F88800086802680868C4
:104AE000006820F001000B68186022F000520020DE
:104AF0004866086802602020C1F8880000BF0020D6
:104B000081F8840000BF00BFDFE77047704770B5D1
:104B100004460D4600BF94F88400012801D102200C
:104B200070BD012084F8840000BF2420C4F88800F0
:104B3000206806682068006820F00100216808608D
:104B40002068806820F060602843216888602046E3
:104B500001F076F9206806602020C4F8880000BFC4
:104B6000002084F8840000BF00BFD9E770B5044678
:104B70000D4600BF94F88400012801D1022070BDC9
:104B8000012084F8840000BF2420C4F88800206835
:104B900006682068006820F001002168086020682D
:104BA000806820F06040284321688860204601F03A
:104BB00047F9206806602020C4F8880000BF002064
:104BC00084F8840000BF00BFD9E770477047704782
:104BD0002DE9F04704462068C5692068066820680A
:104BE000876840F60F0005EA0009B9F1000F0FD100
:104BF00005F0200060B106F0200010B907F08050E9
:104C000030B1606F10B12046616F8847BDE8F08712
:104C1000B9F1000F7ED0FE48384018B9FD48304049
:104C20000028F7D005F0010058B106F4807040B1BB
:104C3000012021680862D4F8900040F00100C4F817
:104C4000900005F0020058B107F0010040B10220C9
:104C500021680862D4F8900040F00400C4F8900085
:104C600005F0040058B107F0010040B104202168AC
:104C70000862D4F8900040F00200C4F8900005F0FB
:104C8000080070B106F0200010B9E148384040B18A
:104C9000082021680862D4F8900040F00800C4F8A9
:104CA000900005F4006060B106F0806048B14FF4F8
:104CB000006021680862D4F8900040F02000C4F839
:104CC0009000D4F89000002852D005F0200050B198
:104CD00006F0200010B907F0805020B1606F10B1CD
:104CE0002046616F8847D4F890A02068806800F063
:104CF0004000402802D00AF0280070B3204601F09E
:104D0000C9F92068806800F04000402826D100BF23
:104D100000BF00E02DE02168083151E8001F21F0BC
:104D200040002168083141E80002002AF1D100BFAB
:104D3000D4F8800068B1B848D4F880100865D4F879
:104D40008000FCF79FFB98B1D4F88000016D884784
:104D50000EE02046FFF73BFF0AE003E02046FFF7A6
:104D600036FF05E02046FFF732FF0020C4F8900030
:104D70004CE7E06E01287DD105F01000002879D0C5
:104D800006F010000028FAD0102021680862206880
:104D9000806800F0400040286DD1D4F880000068A1
:104DA0009E4988426BD0D4F8800000689B49183136
:104DB000884264D0D4F88000006898493031884235
:104DC0005DD0D4F88000006894494831884256D0BC
:104DD000D4F8800000689149603188424FD0D4F8FF
:104DE000800000688D497831884248D0D4F880002E
:104DF00000688A499031884241D0D4F88000006828
:104E00008649A83188423AD0D4F8800000688449A5
:104E1000884234D0D4F88000006881491831884233
:104E20002DD0D4F8800000687D493031884226D0EA
:104E3000D4F8800000687A49483188421FD0D4F8FD
:104E40008000006876496031884218D0D4F880002C
:104E5000006873497831884211D0D4F88000006826
:104E60006F49903188420AD0D4F8800000686C49BC
:104E7000A83102E0AEE069E001E0884204D1D4F854
:104E800080000068406803E0D4F880000068406853
:104E90001FFA80F8B8F1000F57D0B4F85C00404515
:104EA00053DDA4F85E80D4F88000C069B0F5807F3F
:104EB00040D000BF00BF216851E8001F21F480707E
:104EC000226842E800010029F5D100BF00BF00BF01
:104ED0002168083151E8001F21F0010021680831E4
:104EE00041E80002002AF3D100BF00BF00BF2168E3
:104EF000083151E8001F21F040002168083141E8E5
:104F00000002002AF3D100BF2020C4F88C0000204A
:104F1000E06600BF00BF216851E8001F21F01000CB
:104F2000226842E800010029F5D100BFD4F88000D2
:104F3000FCF73AF802202067B4F85C00B4F85E2071
:104F4000801A81B22046FFF7E0FD5FE634F85C0F7F
:104F50006188401A1FFA80F860885C3CC8B3B8F1D9
:104F6000000F36D000BF00BF216851E8001F21F4B8
:104F70009070226842E800010029F5D100BF00BF0F
:104F800000BF2168083151E8001F214AD24301EADD
:104F900002002168083141E80002002AF1D100BF77
:104FA0002020C4F88C000020E066606700BF00BFCE
:104FB000216851E8001F21F01000226842E800013A
:104FC0000029F5D100BF0220206741462046FFF7A7
:104FD0009CFD1BE605F4801050B107F4800038B149
:104FE0004FF48010216808622046FFF7EFFD0DE6C0
:104FF00005F08000B0B106F0800010B907F40000A1
:1050000080B1A06F10B12046A16F8847FEE5000077
:1050100001000010200100047B6000081000024025
:105020001004024005F0400030B106F0400018B115
:10503000204601F065F8E9E505F4000030B106F01E
:10504000804018B12046FFF7C0FDDFE505F0807015
:1050500030B106F0004018B12046FFF757FDD5E506
:1050600000BFD3E510B504460CB9012010BDA069FE
:1050700000B100E000BFD4F8880028B9002084F80F
:105080008400204600F02AF82420C4F88800206814
:10509000006820F0010021680860204601F048F80F
:1050A000012800D1E2E7A06A10B1204600F0F4FE2A
:1050B0002068406820F4904021684860206880683B
:1050C00020F02A00216888602068006840F0010014
:1050D00021680860204600F05BFFC7E710B5B8B054
:1050E0000446142132A8FBF760F9C02102A8FBF79F
:1050F0005CF92849206888424AD101210020CDE985
:105100000210219002A8FDF7E5FE08B1FBF768FE4A
:1051100000BF2148006840F010001F4908600846A1
:10512000006800F01000019000BF00BF00BF1A48E7
:105130001038006840F0010017491039086008462F
:10514000006800F00100019000BF00BF00BF0846EA
:10515000006840F0020008600846006800F00200A5
:10516000019000BF00BFC020329002203390002089
:10517000349035900720369032A90848FDF7E4F9BD
:10518000002211462520FDF7E1FB2520FDF7CAFB93
:1051900038B010BD00100140F0440258000402581D
:1051A000704700BFFEE738B50446002000906A460D
:1051B0000121636920689847002802DA6FF0040033
:1051C00038BD6A460121636920689847002802DAE1
:1051D0006FF00400F4E7009800F0040008B9012023
:1051E000EEE76A460021636920689847002802DAE2
:1051F0006FF00400E4E7009800F48050B0F5805FA1
:105200001FD0009800F40050B0F5005F07D100985F
:1052100000F48070B0F5807F01D10220D0E70098C3
:1052200000F40050B0F5005F01D10320C8E70098FA
:1052300000F48070B0F5807F01D10420C0E7052024
:10524000BEE76A461021636920689847002802DAA1
:105250006FF00400B4E7009800F0100008B90620D1
:10526000AEE7009800F00600042801D10220A7E76D
:10527000009800F0060008B90320A1E7009800F0AC
:105280000600062801D104209AE7052098E7F8B522
:1052900004460027002000900025002660680028B2
:1052A00055D1A06808B1A068804720202060002563
:1052B00013E06A461921284663699847002802DAF4
:1052C0006FF0040608E0009800F01F00A84202D129
:1052D0002560002603E000BF6D1C1F2DE9D900BF2B
:1052E00020681F2801D96FF0020656BB4FF4004218
:1052F0000021236920689847002826DB6A460021A0
:1053000063692068984700281CDBA069804707462E
:1053100012E0A0698047C01BB0F5FA7F09D86A4641
:105320000021636920689847002805DA6FF00406B9
:1053300007E06FF0010604E0009800F40040002848
:10534000E7D104E06FF0040601E06FF003066A465F
:1053500002216369206898476A46032163692068CF
:1053600098474FF4805200212369206898475EB91E
:10537000A0698047074600BFA0698047C01BB0F501
:10538000FA6FF9D9012060603046F8BD02462AB1B3
:10539000C86818B1886808B1086910B94FF0FF30C3
:1053A0007047086890604B68D360CB6853618B6826
:1053B00013610B6993610020F2E700001FB5002024
:1053C0000090019002900390FDF764FA01208DF89F
:1053D000000000208DF801000F48019007208DF893
:1053E000080000208DF8090001208DF80A00032034
:1053F0008DF80B0000208DF80C008DF80D008DF855
:105400000E0001208DF80F006846FDF715FA042004
:10541000FDF756FA1FBD00000040003000B587B010
:10542000142102A8FAF7C1FF00BF4348006840F00A
:105430001000414908600846006800F01000019023
:1054400000BF00BF00BF0846006840F480700860DD
:105450000846006800F48070019000BF00BF00BFE4
:105460000846006840F0200008600846006800F028
:105470002000019000BF00BF00BF0846006840F058
:10548000800008600846006800F08000019000BFBE
:1054900000BF00BF0846006840F0040008600846EE
:1054A000006800F00400019000BF00BF00BF084684
:1054B000006840F0010008600846006800F0010044
:1054C000019000BF00BF00BF0846006840F0020026
:1054D00008600846006800F00200019000BF00BFAD
:1054E00000BF0846006840F04000086008460068B9
:1054F00000F04000019000BF00BF00BF08460068F8
:1055000040F0080008600846006800F008000190BC
:1055100000BF00BF012210210848FDF713F9102039
:1055200002900120039004900020059002A90348F6
:10553000FDF70AF807B000BDE0440258001C02580D
:105540000EB5C02084490870A820487000208870DB
:105550001E20C870FF2081490870487088700020A4
:10556000C870C0207E490870A8204870002088704C
:105570000120C87004F010FB7748007800067649D7
:10558000497840EA01407449897840EA012072492B
:10559000C978084302067048007800066E494978C9
:1055A00040EA01406C49897840EA01206A49C9789B
:1055B000084300F47F4042EA002267480078000672
:1055C0006549497840EA01416348807841EA002012
:1055D0006149C978084300F47F0042EA10225E481E
:1055E000007801065C48407841EA00415A488078DA
:1055F00041EA00205849C978084342EA10605949F5
:1056000008605648007800065449497840EA01404D
:105610005249897840EA01205049C9780843020676
:105620004E48007800064D49497840EA01404B4910
:10563000897840EA01204949C978084300F47F404D
:1056400042EA00224548007800064449497840EA89
:1056500001414248807841EA00204049C978084326
:1056600000F47F0042EA10223C48007801063B48E3
:10567000407841EA00413948807841EA00203749C2
:10568000C978084342EA1060374908603448007816
:1056900000063349497840EA01403149897840EAB7
:1056A00001202F49C978084302062D4800780006DA
:1056B0002B49497840EA01402949897840EA01208C
:1056C0002749C978084300F47F4042EA0022244871
:1056D000007800062249497840EA01412048807854
:1056E00041EA00201E49C978084300F47F0042EADD
:1056F00010221B48007801061948407841EA004111
:105700001748807841EA00201549C978084342EAE1
:10571000106016490860164816490022134BCDE95F
:1057200000210290104A0F49134805F0B1F91248C0
:1057300005F020FC104890F82D00C0F3800018B14F
:105740000D4805F057FD02E00B4805F019FC0B4928
:10575000094805F07BFC0EBD2C000024300000241D
:105760003400002420000024240000242800002409
:105770001D7C0008117F000834EB0024AD7D00087B
:1057800010B506F0BFFF0248FBF72EFB10BD00006E
:1057900034EB002410B51848184908604FF4E13084
:1057A0004860002115488160C16001610C214161A0
:1057B00000218161C1610162416200200F4988625C
:1057C0000846FFF74FFC08B1FBF70AFB00210B4826
:1057D000FFF7CCF908B1FBF703FB00210748FFF7FF
:1057E00096F908B1FBF7FCFA0448FFF767F908B12E
:1057F000FBF7F6FA10BD00000010014014A00024D1
:1058000000BFFEE700BFFEE7704700002DE9F04152
:1058100004460E4600275548006800F003000328A0
:1058200002D10120BDE8F08150482838006820F0FE
:1058300080604E4928390860FCF790FF054606E075
:10584000FCF78CFF401B022801D90320EAE74748F8
:1058500028380068C0F3C0600028F1D100BF434879
:10586000006820F47C30216840EA01303F4908603C
:10587000A088401EC0F30800A168491E4FF47E4274
:1058800002EA41210843A189491ED20102EA0141ED
:105890000843217C491E120202EA01610843334990
:1058A0001031086000BF3148001D006820F0C000C2
:1058B000616908432D49091D08600846006820F009
:1058C0002000A16908432949091D086008460068AD
:1058D00020F0100008602548143000684FF6F87179
:1058E0008843E16940EAC1002049143108601F483B
:1058F000001D006840F010001C49091D08602EB909
:105900000846006840F40020086012E0012E08D12B
:105910001648001D006840F480101449091D0860F5
:1059200007E01248001D006840F400100F49091DEF
:1059300008600E482838006840F080600B4928391C
:105940000860FCF70BFF054606E0FCF707FF401B6D
:10595000022801D9032065E7044828380068C0F30D
:10596000C0600028F1D038465CE7000028440258A7
:105970002DE9F04104460E4600275548006800F026
:105980000300032802D10120BDE8F08150482838E7
:10599000006820F080504E4928390860FCF7DEFE90
:1059A000054606E0FCF7DAFE401B022801D9032079
:1059B000EAE7474828380068C0F340700028F1D172
:1059C00000BF4348006820F07C70218840EA015005
:1059D0003F490860A088401EC0F30800A168491E26
:1059E0004FF47E4202EA41210843A189491ED201B7
:1059F00002EA01410843217C491E120202EA0161C8
:105A0000084333491831086000BF3148001D006861
:105A100020F44060616908432D49091D086008466B
:105A2000006820F40070A16908432949091D086035
:105A30000846006820F48070086025481C30006823
:105A40004FF6F8718843E16940EAC10020491C31F2
:105A500008601F48001D006840F480701C49091D43
:105A600008602EB90846006840F48000086012E023
:105A7000012E08D11648001D006840F400001449AA
:105A8000091D086007E01248001D006840F08070A2
:105A90000F49091D08600E482838006840F0805002
:105AA0000B4928390860FCF759FE054606E0FCF76B
:105AB00055FE401B022801D9032065E70448283819
:105AC0000068C0F340700028F1D038465CE7000061
:105AD00028440258704710B5FCF746FE10BD000080
:105AE00000B59DB04C210AA8FAF75FFC202102A85E
:105AF000FAF75BFC0220FCF77BFF00BF002001905F
:105B00004348006820F001004149086008460068E9
:105B100000F0010001903F48006840F440403D49DA
:105B200008600846006800F44040019000BF00BFD4
:105B300000BF3848006800F40050B0F5005FF8D1AD
:105B400000BF3548006840F002003349086008464D
:105B5000006800F00200019000BF00BF00BF0020FD
:105B600001902C48006840F440402A4908600846EB
:105B7000006800F4404001902548006840F00100B2
:105B8000234908600846006800F00100019000BF4A
:105B900000BF00BF1F48006800F40050B0F5005F70
:105BA000F8D102200A9001200D9040200E90022092
:105BB000139000211491042115913C21169102218A
:105BC00017911891052119910C211A9100211B910F
:105BD0001C910AA8FEF722FB08B1FBF701F93F2050
:105BE000029003200390002004900820059040209C
:105BF000069007900001089040200990042102A817
:105C0000FEF71CF808B1FBF7EBF81DB000BD000073
:105C10002C04005818480258F444025834480068CC
:105C200040F47000324908603248006800F00F000C
:105C3000072806D22F48006820F00F00C01D2D490C
:105C400008602D48006840F001002B4908600020E2
:105C50002949103108602848006828490840264929
:105C600008602448006800F00F00072806D9214882
:105C7000006820F00F00C01D1E49086000201E496A
:105C800018310860091D0860091D08601C481A4980
:105C9000283108601B48091D08601B48091D086061
:105CA0000020091D08601848091D08600020091D12
:105CB00008601548091D08600020091D08600E488D
:105CC000006820F480200C49086000200A496031F7
:105CD00008600E4800686FF30F00B0F1005F02D259
:105CE00001200B49086043F2D2000A49086070475E
:105CF00088ED00E000200052004402587FEDF6EAF3
:105D0000000202020000FF01800201010010005C9D
:105D1000088100510040005270B50024002509F0B0
:105D20005BFA04461248446312A000F055FD44B1EA
:105D30000F48028C154B00F11801204607F0A4FB18
:105D40000546607A40F00800607225B10849204697
:105D500007F092F870BD29460DA000F03DFD1149F5
:105D6000204607F075FF10A000F036FD00BFF1E7F8
:105D7000AC520024636C69656E7420737461727434
:105D800020636F6E6E6563740D0A0000356A00084B
:105D90007463705F636F6E6E6563743A25640D0A99
:105DA00000000000FDCE0008726569737465722002
:105DB0006572725F63626B0D0A00000010B50948DE
:105DC00090F8250000F0200050B9FCF7C7FC4FF414
:105DD000FA71B0FBF1F201FB120008B9FFF79CFF6A
:105DE00010BD0000AC52002470B5002509F0F4F994
:105DF0000446D4B10E48C462428B0E49204606F0D8
:105E000083FF054665B90A49204606F079FF0A492D
:105E1000204607F01DFFFF21204609F063F80446E5
:105E20001CB10649204606F0B0FE284670BD0000B1
:105E300040990024A851010801270108A126010862
:105E400070B5456E2DB90125A0F86A50A0F86850CC
:105E50001CE0102310240568AD68C5F34261056895
:105E6000AD686A0F0A4DAD5C15FB04F5094EB65CD2
:105E700095FBF6F5A0F86A50054D6D5C15FB03F532
:105E8000044E765C95FBF6F5A0F8685070BD0000F6
:105E9000805001088850010890F8281001F0010195
:105EA00039B10168496821F40031C26A11430268BE
:105EB000516090F8281001F00201022907D1016811
:105EC000496821F48031026B11430268516090F8F7
:105ED000281001F00401042907D10168496821F460
:105EE0008021426B11430268516090F8281001F044
:105EF0000801082907D10168496821F40041826B33
:105F000011430268516090F8281001F01001102927
:105F100007D10168896821F48051C26B114302687E
:105F2000916090F8281001F02001202907D1016824
:105F3000896821F40051026C11430268916090F865
:105F4000281001F04001402913D10168496821F46B
:105F50008011426C114302685160416CB1F5801FA1
:105F600007D10168496821F4C001826C11430268BD
:105F7000516090F8281001F08001802907D1016854
:105F8000496821F40021C26C1143026851607047D6
:105F900038B504460020C4F89000FCF7DFFB054646
:105FA0002068006800F00800082821D16FF07E40CA
:105FB0002B4600224FF400110090204600F07EFB9B
:105FC000B0B100BF00BF216851E8001F21F0800080
:105FD000226842E800010029F5D100BF2020C4F862
:105FE000880000BF002084F8840000BF032038BD73
:105FF0002068006800F00400042830D16FF07E4073
:106000002B4600224FF480010090204600F056FB02
:1060100028B300BF00BF216851E8001F21F4907031
:10602000226842E800010029F5D100BF00BF00BF8F
:106030002168083151E8001F21F001002168083172
:1060400041E80002002AF3D100BF2020C4F88C00F0
:1060500000BF002084F8840000BF0320C7E7202091
:10606000C4F88800C4F88C000020E066206700BFF8
:1060700084F8840000BF00BFB9E770B50546AC6B7B
:106080000020A4F85E00A4F856002046FEF79FFD0D
:1060900070BD000000BF00BF026852E8002F22F46C
:1060A0009071036843E80012002AF5D100BF00BFD9
:1060B00000BF0268083252E8002F104B02EA0301C9
:1060C0000268083242E80013002BF2D100BFC16E13
:1060D00001290CD100BF00BF026852E8002F22F056
:1060E0001001036843E80012002AF5D100BF202107
:1060F000C0F88C100021C16641677047FEFFFFEFBA
:1061000010B5044600BF00BF216851E8001F21F010
:106110004000226842E800010029F5D100BF20209C
:10612000C4F888000020A0672046FFF739F810BDAA
:106130002DE9F04F89B0054600200890F8492868FD
:10614000884200D100E000BF2969A8680843696956
:106150000843E96940EA010828680068F1490840F5
:1061600040EA0800296808602868406820F4405028
:10617000E968084329684860D5F81880E849286824
:10618000884202D0286A40EA080828688068E64900
:10619000084040EA0800296888602868C06A20F042
:1061A0000F00696A08432968C86200BFDF49286890
:1061B000884220D1DE48006800F03800182811D04D
:1061C00005DC48B1082809D0102811D108E02028A2
:1061D0000AD028280CD109E001240BE0042409E0AE
:1061E000082407E0102405E0202403E0402401E017
:1061F000802400BFF8E0CF492868884219D1CC48F4
:10620000006800F00700062810D2DFE800F0030560
:1062100007090B0D00240BE0042409E0082407E023
:10622000102405E0202403E0402401E0802400BF86
:10623000DAE0C1492868884219D1BD48006800F0F9
:106240000700062810D2DFE800F0030507090B0D50
:1062500000240BE0042409E0082407E0102405E0F2
:10626000202403E0402401E0802400BFBCE0B349C7
:106270002868884219D1AE48006800F00700062857
:1062800010D2DFE800F0030507090B0D00240BE036
:10629000042409E0082407E0102405E0202403E09A
:1062A000402401E0802400BF9EE0A5492868884280
:1062B00019D19F48006800F00700062810D2DFE8D7
:1062C00000F0030507090B0D00240BE0042409E08E
:1062D000082407E0102405E0202403E0402401E026
:1062E000802400BF80E097492868884220D19048E8
:1062F000006800F03800182811D005DC48B10828E3
:1063000009D0102811D108E020280AD028280CD163
:1063100009E001240BE0042409E0082407E010242C
:1063200005E0202403E0402401E0802400BF5BE07E
:1063300085492868884219D17D48006800F0070027
:10634000062810D2DFE800F0030507090B0D002432
:106350000BE0042409E0082407E0102405E02024D1
:1063600003E0402401E0802400BF3DE07749286835
:10637000884219D16E48006800F00700062810D244
:10638000DFE800F0030507090B0D00240BE00424EF
:1063900009E0082407E0102405E0202403E040245D
:1063A00001E0802400BF1FE05D49286888421AD1BF
:1063B0005F48001D006800F00700062810D2DFE8E3
:1063C00000F0030507090B0D02240BE0042409E08B
:1063D000082407E0102405E0202403E0402401E025
:1063E000802400BF00E0802400BF4D492868884217
:1063F0007DD1102C1AD006DC022C09D0042C0BD035
:10640000082C29D10DE0202C21D0402C24D120E0D3
:10641000FCF71EFB064623E005A8FCF72BFB069EB7
:106420001EE002A8FCF73EFC039E19E040485438E9
:106430000068C0F3401040B13D4854380068C0F3D4
:10644000C101434820FA01F600E0414E08E0414E08
:1064500006E04FF4004603E000260120089000BF4C
:1064600000BF002E10D03C49686A31F81000B6FB1E
:10647000F0F9686800EB4000484503D868680003FD
:10648000484502D20120089003E13349686A31F897
:1064900010C06246002330461946F9F71BFF4FF43F
:1064A000807300228446ACFB030B01FB03B10CFBA1
:1064B000021C69684908034659184CEB0200CDE9F3
:1064C0000010D5F804C06246002308460199F9F788
:1064D00001FF0746B7F5407F06D3B7F5801F03D20B
:1064E0002868C760D5E002E001200890D1E0E869A3
:1064F000B0F5004F7BD1082C39D005DC5CB1012C04
:106500002CD0042C4CD12DE0102C35D0202C42D096
:10651000402C45D141E0FDF747FD064644E0000030
:10652000000C0058F369FFCFFFF4FF110010014089
:10653000544402580044004000480040004C0040D1
:10654000005000400014014000780040007C0040F2
:106550000090D00300093D0068500108FDF736FDAA
:10656000064621E005A8FCF785FA069E1CE002A875
:10657000FCF798FB039E17E04C480068C0F34010FE
:1065800038B14A480068C0F3C101494820FA01F611
:1065900000E0474E08E0474E06E04FF4004603E0B7
:1065A00000260120089000BF00BFFEB14249686A82
:1065B00031F81000B6FBF0F04000696800EB5100C4
:1065C000B0FBF1F7102F0FD3B7F5803F0CD24FF689
:1065D000F07007EA000AC7F342004AEA000A286896
:1065E000C0F80CA055E002E00120089051E0082C12
:1065F0001AD005DC5CB1012C0DD0042C2DD10EE09D
:10660000102C16D0202C23D0402C26D122E0FDF7D0
:10661000CBFC064625E0FDF7D9FC064621E005A89F
:10662000FCF728FA069E1CE002A8FCF73BFB039E41
:1066300017E01E480068C0F3401038B11B480068DE
:10664000C0F3C1011A4820FA01F600E0184E08E034
:10665000184E06E04FF4004603E0002601200890A3
:1066600000BF00BFAEB11449686A31F81000B6FB34
:10667000F0F0696800EB5100B0FBF1F7102F06D382
:10668000B7F5803F03D2B8B22968C86001E00120A5
:1066900008900120A5F86A00A5F868000020686746
:1066A000A867089809B0BDE8F08F000000440258C0
:1066B0000090D00300093D00685001082DE9F04129
:1066C00004460D4617469846069E3CE0701CC8B32B
:1066D000FCF744F8A0EB0800B04200D816B903203C
:1066E000BDE8F0812068006800F0040050B3206825
:1066F000C069C0F3C00078B1082021680862204654
:10670000FFF7C8FC0820C4F8900000BF002084F800
:10671000840000BF0120E3E72068C069C0F3C02007
:1067200080B14FF40060216808622046FFF7B2FC98
:106730002020C4F8900000BF002084F8840000BF2F
:106740000320CDE7FFE72068C0692840A84201D1B7
:10675000012000E00020B842B8D00020C0E70000CF
:1067600010B50248FEF734FA10BD000014A0002452
:1067700070B500250EF04AF804463CB11248028B71
:1067800000F1100120460DF06BFD0546BDB90E4825
:10679000028B0E4920460DF0D1FC054665B90C4927
:1067A000204603F0DFFA0848407F40F02000064909
:1067B00048770846C46205E00220054670BD012006
:1067C0000546FBE72846F9E7200C0024A8510108FC
:1067D000B99C000800BFFEE70FB4054B10B503A934
:1067E000044A029800F034F810BC5DF814FB000075
:1067F0006D810008309A002402480068C0F302202E
:10680000704700000CED00E010B5002804DB0A071B
:10681000130E054A135406E00A07140E034A00F04B
:106820000F031B1FD45410BD00E400E018ED00E07E
:1068300002E008C8121F08C1002AFAD17047704749
:10684000002001E001C1121F002AFBD170470000A7
:106850002DE9FF4F8BB09A460F460546002606E00D
:1068600025280BD052460D9990476D1C761C287830
:106870000028F5D10FB03046BDE8F08F0024A046C7
:106880000122604900E0044315F8013F203B02FA71
:1068900003F00842F7D128782E2817D115F8010FF8
:1068A00044F004042A280ED06FF02F022878A0F1BB
:1068B000300109290AD808EB880102EB410100EBFD
:1068C00001086D1CF2E757F8048B6D1C28786928C5
:1068D0003ED006DC0028CDD063280BD0642804D13C
:1068E00036E0732810D075284BD052460D9990474A
:1068F000761C85E017F8040B8DF8000000208DF859
:106900000100E946012003E057F8049B4FF0FF30F7
:1069100061074FF0000401D40AE0641C44450DDA1D
:106920008442FADB19F804100029F6D106E0641C51
:106930008442FCDB19F804100029F8D1264404E055
:1069400019F8010B52460D999047641EF8D257E092
:1069500001CF4FF00A0B002802DA40422D2102E05D
:10696000210504D52B218DF82410012103E0E10736
:1069700005D02021F7E70DF1200908910CE0002156
:10698000F9E701CF4FF00A0BF9E75946F9F72CFD6B
:1069900001F1300209F8012D0028F6D1ADEB090014
:1069A00000F1200B600701D44FF00108D84502DD4B
:1069B000A8EB0B0000E000208046002406E009A8B8
:1069C0005246005D0D999047641C761C08988442DD
:1069D000F5DB04E0302052460D999047761CB8F163
:1069E0000001A8F10108F5DC05E019F8010B524699
:1069F0000D999047761CBBF10001ABF1010BF4DC63
:106A00006D1C34E7092801002DE9F04105460F46C9
:106A10002E460DB1A6F10C04A188A068F9F7C5FCBB
:106A200020784008401E217860F341012170BDE8C4
:106A3000F081000070B505460C4616460EA0FFF723
:106A4000CBFE134890F8250040F02000104981F853
:106A5000250005220F49204609F0D6FC0E492046A4
:106A60000AF0BCFF0A49204606F04AF90B492046C5
:106A70000BF0C0FD002070BD636C69656E7420630F
:106A80006F6E6E6563746564206F6B210D0A000084
:106A9000AC520024A16A000829CF0008A5D0000844
:106AA00070B505460C4600261DB914B1204606F007
:106AB00019FB304670BD000010B50246414890F801
:106AC000250000F0200038B13E4890F8250020F065
:106AD00020003C4B83F82500002015E03A4BDB6892
:106AE000C400E340DCB2374B0E331C54364B9B687A
:106AF000C400E340DCB2334B12331C54334B5B68AD
:106B00001B5C304C2354401C0428E7DB2F484068B2
:106B100000792C4B18712D484068407958711846FF
:106B200001844184284B5B68C361274800790006D3
:106B3000254B9B881B0A40EA0340234B5B681B0CD8
:106B400040EA0320104303061F48007900061E4C4C
:106B5000A488240A40EA04401B4C6468240C40EAE0
:106B60000420D4B2204300F47F4043EA00231648B7
:106B700000790006144CA488240A40EA0444124810
:106B80004068C0F3074044EA0020D4B2204300F438
:106B90007F0043EA10230C48007904060A488088E5
:106BA000C0F3072044EA004407484068C0F30740A8
:106BB00044EA0020D4B2204343EA1060014B9861BC
:106BC00010BD0000AC52002434EB00242CEA002459
:106BD00070B504460D4600BF05F00300002808D03C
:106BE00000BF08A34FF4B67212A11AA0FFF7F4FD7C
:106BF00000BF00BF2E46A06800683060A068066035
:106C000070BD00002E2E2F4D6964646C6577617233
:106C100065732F54686972645F50617274792F4C88
:106C20007749502F7372632F636F72652F6D656D97
:106C3000702E63006D656D705F667265653A206DDC
:106C4000656D2070726F7065726C7920616C696718
:106C50006E656400417373657274696F6E202225DE
:106C60007322206661696C6564206174206C696EB2
:106C70006520256420696E2025730A0070B50546DD
:106C8000A8680468002C13D02068A968086000BFB9
:106C900004F00300002808D000BF06A34FF48C7254
:106CA00010A119A0FFF798FD00BF00BF204670BDDE
:106CB0000020FCE72E2E2F4D6964646C65776172AD
:106CC00065732F54686972645F50617274792F4CD8
:106CD0007749502F7372632F636F72652F6D656DE7
:106CE000702E63006D656D705F6D616C6C6F633AE3
:106CF000206D656D702070726F7065726C792061A7
:106D00006C69676E65640000417373657274696FC6
:106D10006E2022257322206661696C65642061748F
:106D2000206C696E6520256420696E2025730A0039
:106D300070B50546002411E004EB4400094901EB5D
:106D4000C000067D4EB104EB440001EBC00080683A
:106D5000A84202D1204600F087F9641C0A2CEBDB24
:106D600070BD0000D05401242DE9FF5F064689461E
:106D700017464FF00A0AD346D04600240A20039053
:106D8000002002900190009000BF73E004EB4400EB
:106D9000764901EBC000057DB8F10A0F02D10DB9AB
:106DA000A04665E0002D63D000BF012D0AD0022D62
:106DB00008DA00BF6EA340F223127BA18AA0FFF77E
:106DC0000BFD00BF00BFAEB104EB4401674A02EB0C
:106DD000C1013068496888420CD13FB104EB4400DE
:106DE000114601EBC0008068B84203D1204604B0D0
:106DF000BDE8F09F012D28D104EB44005B4951F818
:106E0000300080B104EB440001EBC000418A0298DD
:106E100081422DDB039404EB4400544901EBC00094
:106E2000408A029024E004EB4400504901EBC0008A
:106E3000418A019881421BDBA24604EB44004B4986
:106E400001EBC000408A019012E0022D10DB04EB40
:106E50004400464901EBC000418A0098814207DBAB
:106E6000A34604EB4400414901EBC000408A009076
:106E7000601C04B20A2C89DB09F0020028B9B8F1C1
:106E80000A0F05D109F0010010B94FF0FF30AEE74D
:106E9000B8F10A0F01DA444631E0BBF10A0F11DA0A
:106EA0005C4600BF04EB4400304951F8300040B16B
:106EB00000BF2FA340F26D1255A14BA0FFF78CFC31
:106EC00000BF0CE0BAF10A0F01DA544607E003985C
:106ED0000A2801DA039C02E04FF0FF3087E700BF89
:106EE0000A2C08DB00BF22A340F27F124EA13EA075
:106EF000FFF772FC00BF00BF204600F0B5F800BFEE
:106F00000A2C08DB00BF1AA340F2831246A136A068
:106F1000FFF762FC00BF00BF00BF04EB4400134951
:106F200001EBC000007D40B100BF11A34FF4C2725D
:106F300042A12DA0FFF750FC00BF00BF36B104EB0B
:106F400044010A4A02EBC10130684860002004EBAA
:106F50004401064A02EBC101488204EB4400114699
:106F600001EBC0008760204641E70000D0540124B7
:106F70002E2E2F4D6964646C6577617265732F5492
:106F8000686972645F50617274792F4C7749502F31
:106F90007372632F636F72652F697076342F657417
:106FA000686172702E6300007374617465203D3DEA
:106FB000204554484152505F53544154455F504519
:106FC0004E44494E47207C7C207374617465203E9A
:106FD0003D204554484152505F53544154455F53FE
:106FE0005441424C45000000417373657274696FEF
:106FF0006E2022257322206661696C6564206174AD
:10700000206C696E6520256420696E2025730A0056
:107010006172705F7461626C655B695D2E71203DA9
:107020003D204E554C4C000069203C204152505FA1
:107030005441424C455F53495A4500006172705FAC
:107040007461626C655B695D2E7374617465203D6B
:107050003D204554484152505F53544154455F458B
:107060004D5054590000000010B5044604EB440094
:107070000C4951F8300060B104EB4401094A52F860
:10708000310004F037FE002004EB4401054A42F8C9
:107090003100002004EB4401024A02EBC1010875F3
:1070A00010BD0000D0540124F0B587B007460D464E
:1070B00000BF002D0AD100BF2EA340F28A223BA1BF
:1070C0003EA0FFF789FB00BF07B0F0BD00BF7C68A2
:1070D0002088B0F5807F08D12079062805D1607915
:1070E000042802D16088082803D0384604F002FE44
:1070F000EAE7D4F80E000690A0690590686808B920
:10710000002607E005986968884201D1012000E067
:10711000002006460EB1012000E00220034604F1E3
:10712000080206A9284600F0CBFCE088B0F5807F75
:1071300003D0B0F5007F15D113E086B1022206AB73
:1071400004F10800291DCDE90232CDE9001005F156
:10715000260302462231284600F05CFB00E000BF17
:1071600001E000E000BF00BF384604F0C3FD00BFEF
:10717000AAE700002E2E2F4D6964646C657761725A
:1071800065732F54686972645F50617274792F4C13
:107190007749502F7372632F636F72652F69707612
:1071A000342F6574686172702E6300006E657469B7
:1071B0006620213D204E554C4C0000004173736504
:1071C0007274696F6E2022257322206661696C6576
:1071D00064206174206C696E6520256420696E20CE
:1071E00025730A002DE9FE4304460F461546A946BD
:1071F00000BF002C08D100BF5DA340F21E326AA17F
:107200006DA0FFF7E9FA00BF00BF00BF47B900BF9C
:1072100057A340F21F3272A167A0FFF7DDFA00BF4B
:1072200000BF00BF002D08D100BF51A34FF448722A
:107230006EA161A0FFF7D0FA00BF00BF2146286809
:1072400001F0CEF910B1DFF8B48186E0287800F0C3
:10725000F000E02816D101208DF8040000208DF800
:1072600005005E208DF80600687800F07F008DF83C
:107270000700A8788DF80800E8788DF809000DF16E
:10728000040869E02868A1680840D4E901121140A7
:1072900088420ED0288880B24FF6A961884208D073
:1072A000E06810B104F10C0903E06FF00300BDE8E1
:1072B000FE835348007800EB4000524901EBC000C8
:1072C000007D02281BDB4E48007800EB400001EBFC
:1072D000C0008068A04212D14949097801EB410100
:1072E000484A02EBC101D9F800004968884206D13A
:1072F000434802783946204600F086F8D7E7002652
:1073000022E006EB46003F4901EBC000007D022869
:1073100018DB06EB460001EBC0008068A04211D1EB
:1073200006EB4601374A02EBC101D9F80000496873
:10733000884207D13248067032463946204600F06E
:1073400063F8B4E7701CC6B20A2EDADB3A46494647
:10735000204600F00DF9AAE700BF4FF40060434655
:1073600004F1260239460090204600F04FFD9EE7CA
:107370002E2E2F4D6964646C6577617265732F548E
:10738000686972645F50617274792F4C7749502F2D
:107390007372632F636F72652F697076342F657413
:1073A000686172702E6300006E6574696620213D0D
:1073B000204E554C4C000000417373657274696F28
:1073C0006E2022257322206661696C6564206174D9
:1073D000206C696E6520256420696E2025730A0083
:1073E0007120213D204E554C4C00000069706164B5
:1073F000647220213D204E554C4C0000A0500108E5
:10740000209A0024D0540124F8B505460E461446AF
:1074100000BF04EB4400314901EBC000007D0228AD
:1074200008DA00BF2EA340F2EE223BA146A0FFF7F0
:10743000D3F900BF00BF04EB4400284901EBC000B2
:10744000007D022839D104EB440001EBC000408AE2
:10745000B0F58E7F11DD04EB44000A4602EBC0005C
:10746000011D284600F09CFA38BB032004EB4401C0
:107470001A4A02EBC10108751FE004EB44001749EA
:1074800001EBC000408AB0F5877F16DB04EB4400B7
:107490000B4603EBC00000F10C0204EB440003EBCD
:1074A000C000011D284600F087FA30B9032004EB24
:1074B00044010A4A02EBC10108754FF400600090D4
:1074C00004EB4400054901EBC00000F10C0305F199
:1074D00026023146284600F099FCF8BDD05401241C
:1074E0002E2E2F4D6964646C6577617265732F541D
:1074F000686972645F50617274792F4C7749502FBC
:107500007372632F636F72652F697076342F6574A1
:10751000686172702E6300006172705F7461626CEA
:10752000655B6172705F6964785D2E737461746508
:10753000203E3D204554484152505F5354415445EC
:107540005F535441424C4500417373657274696FD7
:107550006E2022257322206661696C656420617447
:10756000206C696E6520256420696E2025730A00F1
:107570002DE9FE4F81460F46164609F1260A4FF0C7
:10758000FF300290002001904946386801F028F849
:1075900038B9387800F0F000E02802D00FB1386830
:1075A00018B96FF00F00BDE8FE8F4A46012138463A
:1075B000FFF7DAFB8046B8F1000F02DA4FFA88F0E5
:1075C000F1E700BFB8F17F0F08D300BF5FA340F21F
:1075D000C1326CA16FA0FFF7FFF800BF00BF08F039
:1075E000FF0404EB4400754901EBC000007D70B955
:1075F0000120019004EB4401704A02EBC1010875BF
:1076000004EB4400114601EBC000C0F8089000BF35
:1076100004EB4400694901EBC000007D01280FD054
:1076200004EB440001EBC000007D022808DA00BF33
:1076300046A340F2CD3262A156A0FFF7CDF800BFBD
:1076400000BF019800B93EB93946484600F0A8F994
:1076500002900EB90298A6E700BF46B900BF3BA34F
:1076600040F2E13260A14BA0FFF7B6F800BF00BFC7
:1076700004EB4400514901EBC000007D022811DBFE
:107680005C4804704FF40060009004EB440001EB90
:10769000C00000F10C0352463146484600F0B6FBEC
:1076A000029050E004EB4400444901EBC000007D2F
:1076B000012848D14FF0000B354618E000BF68891B
:1076C000298988420AD1286840B100BF1FA340F22F
:1076D000F13249A12FA0FFF77FF800BF00BF287B40
:1076E00000F0400010B14FF0010B02E02D68002DBA
:1076F000E4D100BFBBF1000F07D032464FF4207138
:107700000E2004F0EBF8054603E03546284604F069
:10771000D1FCA5B104EB4400284951F8300030B148
:1077200004EB4401254A52F8310004F0E3FA04EB7B
:107730004400224941F830500020029002E04FF00E
:10774000FF30029000BF02982DE700002E2E2F4D33
:107750006964646C6577617265732F5468697264DB
:107760005F50617274792F4C7749502F7372632F79
:10777000636F72652F697076342F657468617270FB
:107780002E63000074797065206F766572666C6F89
:1077900077000000417373657274696F6E20222553
:1077A0007322206661696C6564206174206C696E67
:1077B0006520256420696E2025730A00D0540124B9
:1077C0006172705F7461626C655B695D2E73746178
:1077D0007465203D3D2050454E44494E47206F7210
:1077E00020535441424C45007120213D204E554CC0
:1077F0004C000000209A00246E6F207061636B655E
:10780000742071756575657320616C6C6F77656444
:10781000210000002DE9FC5F06460F469046994680
:10782000DDE90CAB0020019000BF002E08D100BFA5
:1078300031A340F257423EA141A0FEF7CDFF00BF69
:1078400000BF4FF420721C210E2003F0B1FD05464D
:107850001DB94FF0FF30BDE8FC9F00BF68891C28B0
:1078600008DA00BF24A340F262423FA134A0FEF731
:10787000B3FF00BF00BF6C680F9802F086F9E0808C
:1078800000BF96F82C00062808D000BF1AA340F2CB
:10789000694242492AA0FEF79FFF00BF00BFD9F806
:1078A0000000A060B9F80400A081DBF80000C4F873
:1078B0001200BBF80400E082DAF80000C4F80E0001
:1078C0000E980068A0614FF48070208008206080CE
:1078D000062020710420607140F6060043463A46B7
:1078E00029460090304600F091FA284604F002FA4A
:1078F00000250198AFE700002E2E2F4D6964646CBF
:107900006577617265732F54686972645F50617244
:1079100074792F4C7749502F7372632F636F7265A0
:107920002F697076342F6574686172702E63000061
:107930006E6574696620213D204E554C4C00000058
:10794000417373657274696F6E20222573222066FD
:1079500061696C6564206174206C696E65202564C2
:1079600020696E2025730A00636865636B20746864
:107970006174206669727374207062756620636139
:107980006E20686F6C642073747275637420657404
:10799000686172705F68647200000000C452010880
:1079A00070B504460D46034A2946204600F004F807
:1079B00070BD0000A05001087FB504460D46164674
:1079C0000121074A201D04F126038DE825000391BB
:1079D000324619462046FFF71DFF04B070BD000077
:1079E000A650010870B5002464E004EB440033495C
:1079F00001EBC000057D002D5BD004EB440001EBE2
:107A0000C000408A401C04EB44012C4A02EBC10137
:107A1000488204EB4400114601EBC000408AB0F5F7
:107A2000967F0DDA04EB440001EBC000007D0128D5
:107A30000AD104EB440001EBC000408A052803DBB7
:107A40002046FFF711FB34E004EB44001B4901EB37
:107A5000C000007D032807D1042004EB4401174A2D
:107A600002EBC101087524E004EB4400134901EB6B
:107A7000C000007D042807D1022004EB44010F4A16
:107A800002EBC101087514E004EB44000B4901EB63
:107A9000C000007D01280CD104EB44020B4603EB2F
:107AA000C202111D04EB440203EBC2029068FFF70F
:107AB00077FF641C0A2C98DB70BD0000D0540124B1
:107AC0002DE9F84305460E461746984600BF95F83F
:107AD0002C00062808D000BF2EA340F2A9123BA11B
:107AE00043A0FEF779FE00BF00BF5EB1306848B129
:107AF0002946306800F074FD20B9307800F0F000BD
:107B0000E02803D16FF00F00BDE8F8832A46414614
:107B10003046FFF729F90446002C01DA60B2F3E79A
:107B2000022004EB44013C4A02EBC101087504EB5E
:107B30004400114601EBC000856004EB440001EBFA
:107B4000C0003968C160B9880182002004EB44019B
:107B500002EBC101488204EB4400114651F83000A9
:107B6000B0B104EB440051F83090002004EB440124
:107B700042F831004FF400603B4605F126024946C9
:107B80000090284600F042F9484604F0B3F800BFE0
:107B90000020B9E72E2E2F4D6964646C6577617201
:107BA00065732F54686972645F50617274792F4CE9
:107BB0007749502F7372632F636F72652F697076E8
:107BC000342F6574686172702E6300006E6574698D
:107BD000662D3E6877616464725F6C656E203D3D22
:107BE000204554485F4857414444525F4C454E003D
:107BF000417373657274696F6E202225732220664B
:107C000061696C6564206174206C696E652025640F
:107C100020696E2025730A00D05401242DE9F0411B
:107C200004460E464FF00E0860890E2800DC4FE037
:107C3000E07B18B996F83000401CE0736568AF89A6
:107C4000287800F00100B0B12878012809D16878BF
:107C500088B9A8785E280ED1607B40F01000607370
:107C600009E006221D492846F8F7B1FB18B9607BE8
:107C700040F008006073082F03D0B7F5C16F22D120
:107C800010E096F82D0000F0080000B920E0414611
:107C9000204604F05DFA00B11AE03146204600F0BB
:107CA0002DFE11E096F82D0000F0080000B90FE05D
:107CB0004146204604F04CFA00B109E03146204626
:107CC000FFF7F2F900E003E000BF0020BDE8F0811B
:107CD000204604F00FF80020F8E70000A05001084B
:107CE0002DE9F0419AB00446642101A8F8F75DFB44
:107CF000002500260027A8462A48FDF754FA054625
:107D000094F82D00C0F3800058B1012D09DC2648FD
:107D1000FAF722FB204603F033F9204603F09AF9E4
:107D20003DE094F82D00C0F38000002837D1012DEC
:107D300035DD022D06D0032D0AD0042D0ED0052DE1
:107D400016D110E04FF400584FF48047012610E0A0
:107D50004FF000084FF4804701260AE04FF4005826
:107D60000027012605E04FF000080027012600E06B
:107D700000BF00BF9EB101A90B48F9F765FDCDF822
:107D80001C80069701A90848FAF728FA0648FAF76E
:107D900073FA204603F02EFA204603F0C1F91AB018
:107DA000BDE8F08114EB00242CEA002410B5044651
:107DB00094F82D0000F0010018B104A0FEF70CFDAE
:107DC00002E00AA0FEF708FD10BD0000BACBB6D451
:107DD000C1B4C2B7D7B4CCACA3BA6E657469665FE0
:107DE00069735F7570210D0A00000000BACBB6D42C
:107DF000C1B4C2B7D7B4CCACA3BA6E657469665FC0
:107E000069735F646F776E210D0A00002DE9F047FA
:107E100005460E4617469846DDF82090484601F084
:107E2000B4FE82460E21304603F044FA00B122E04F
:107E30007468A4F80CA0D8F800002060B8F804001A
:107E4000A0803868C4F80600B888608100BF95F843
:107E50002C00062808D000BF08A34FF4997215A182
:107E600021A0FEF7B9FC00BF00BF31462846AA6931
:107E70009047BDE8F0876FF00100FAE72E2E2F4DF6
:107E80006964646C6577617265732F5468697264A4
:107E90005F50617274792F4C7749502F7372632F42
:107EA0006E657469662F65746865726E65742E639D
:107EB000000000006E657469662D3E687761646439
:107EC000725F6C656E206D7573742062652036205C
:107ED000666F722065746865726E65745F6F757425
:107EE0007075742100000000417373657274696FCE
:107EF0006E2022257322206661696C65642061749E
:107F0000206C696E6520256420696E2025730A0047
:107F100010B5044600BF44B900BF0CA340F287125D
:107F200011A115A0FEF758FC00BF00BF732084F814
:107F30002E0074212F200155194860611948A06155
:107F4000204601F087FC002010BD00002E2E2F4C93
:107F50005749502F5461726765742F657468657254
:107F60006E657469662E63006E6574696620213DD6
:107F7000204E554C4C000000417373657274696F5C
:107F80006E2022257322206661696C65642061740D
:107F9000206C696E6520256420696E2025730A00B7
:107FA000E5710008F599000870B50546002400BF8A
:107FB000284601F0CDFC044604B31248406E9F28C9
:107FC00014D11048B0F864000F49A1F8DE05084646
:107FD00090F8DC0540F0800081F8DC050948406E2F
:107FE00000F1200221460848F8F7B8F92946204652
:107FF0002A69904710B1204603F07CFE002CD7D1AF
:1080000070BD00002CEA0024349A002410B5034807
:10801000F8F7FEFE0446204610BD0000380000249C
:1080200070B50446032C06DA034850F82450204665
:1080300000F042F800BF70BD3C00002470B5064659
:10804000174850F82650002425E005F10C0050F8A0
:108050002400007800F00100D8B105F10C0050F8C0
:1080600024000078C0F3800098B105F10C0151F8AC
:10807000241088680121FEF7C7FC05F10C0050F8B8
:108080002400007820F0010105F10C0050F82400D4
:108090000170601CC4B2287AA042D6DC70BD00001A
:1080A0003C00002410B50446032C02DA204600F000
:1080B00001F810BD7047000070B50646032E50DA77
:1080C000284850F82640002547E004F10C0050F8FD
:1080D0002500007800F00100E8B304F10C0050F82E
:1080E00025000078C0F38000A8B304F10C0050F81C
:1080F0002500408840F2B45188420EDC04F10C03A4
:1081000053F825305A8804F10C0353F82530996848
:10811000154B586B02230BF051FA04F10C0050F888
:1081200025008068A06304F10C0050F82500007859
:1081300020F0010104F10C0050F82500017004F159
:108140000C0050F82500007820F0040104F10C0028
:1081500050F825000170681CC5B2207AA842B4DC32
:1081600000BF70BD3C000024AC52002400BF054A93
:10817000D26902F04002002AF9D0C2B2014B9A62E1
:10818000704700000010014070B505460C462246BD
:108190000321284600F054F970BD00002DE9FF5F6F
:1081A00005468A4672488068039003980078000765
:1081B000870E142F00DAD1E06889042800D2CDE0C0
:1081C0006868047814B1082C77D100E0C1E0DFF8CA
:1081D000A09109F114096648007D00F0F000E02844
:1081E00000D1BFE0624A1168506900F0F9F900B1AE
:1081F000B8E02889082800D2B0E0284600F0C5F988
:1082000020B1284603F076FDBDE8FF9F07F10E017F
:10821000284603F04FF8002844D0288938441FFA34
:1082200080FB2889584500DD9CE04FF420725946B8
:108230000E2003F0BDF88046B8F1000F00D191E0A8
:10824000B8F80A1007F10800814203D2404603F053
:1082500051FD87E03A46D8F804000399F8F77EF814
:108260003946404603F074FF00280DD000BF00BF20
:1082700040A3B6224DA15BA0FEF7AEFA00BF00BF3F
:10828000404603F037FD6DE02946404603F07EFB93
:1082900018B1404603F02EFD64E0284603F02AFDA5
:1082A000454612E007F10E01284603F051FF60B188
:1082B00000BF00BF2FA3C72200E038E053A149A0B0
:1082C000FEF78AFA00BF00BF4CE06E6839462846C8
:1082D00002F0F0FF50BBD5F80480D9F80000C8F8D0
:1082E0000C0023480069C8F8100000203070708826
:1082F0004FF6F771884203DD70880930708002E024
:10830000708808307080FF2088F808000020A8F8E6
:108310000A0001200021FF230A46CDE9010A00914D
:108320004946284600F0D2FB834600BF11E0032CEB
:108330000ED00B2C0CD00C2C0AD0042C08D0052C01
:1083400006D00D2C04D00E2C02D0112C00D000BF72
:1083500000BF00BF284603F0CDFC55E7284603F0D8
:10836000C9FC51E7284603F0C5FC00BF4CE70000FC
:1083700028EC00242E2E2F4D6964646C65776172A1
:1083800065732F54686972645F50617274792F4C01
:108390007749502F7372632F636F72652F69707600
:1083A000342F69636D702E630000000069636D7087
:1083B0005F696E7075743A206D6F76696E672072B2
:1083C0002D3E7061796C6F616420746F2069636DFC
:1083D0007020686561646572206661696C65640A15
:1083E00000000000417373657274696F6E2022256E
:1083F0007322206661696C6564206174206C696E0B
:108400006520256420696E2025730A0069636D70FC
:108410005F696E7075743A20726573746F72696EFD
:1084200067206F726967696E616C20702D3E7061A4
:10843000796C6F6164206661696C65640A00000094
:108440002DE9FF470746884691464FF420722421C4
:10845000222002F0ADFF05460DB9BDE8FF8700BF41
:108460006889242808D200BF1BA34FF4B47228A146
:1084700032A0FEF7B1F900BF00BFD7F804A06C68C6
:1084800084F8008084F801900020A080E080796862
:108490006A6802F108001C22F7F760FFDAF80C00A6
:1084A000039003A800F07AFD064686B100206080A4
:1084B0006989204600F05FF8608001200021FF23D9
:1084C00003AACDE901060091284600F0FFFA2846EC
:1084D00003F010FC00BFC0E72E2E2F4D6964646CC2
:1084E0006577617265732F54686972645F50617259
:1084F00074792F4C7749502F7372632F636F7265B5
:108500002F697076342F69636D702E630000000050
:10851000636865636B207468617420666972737444
:1085200020706275662063616E20686F6C642069DC
:10853000636D70206D65737361676500417373656A
:108540007274696F6E2022257322206661696C65E2
:1085500064206174206C696E6520256420696E203A
:1085600025730A0070B505460C4622460B212846A5
:10857000FFF766FF70BD30B504460D46294620461C
:1085800001F058FBC04380B230BDF0B5064600276D
:108590000024354619E06989686801F04BFB044402
:1085A000A0B200EB1444688900EBD0714910A0EB35
:1085B000410149B10FB9012000E000200746E0B2B7
:1085C000C4F3072141EA00242D68002DE3D127B12F
:1085D000E0B2C4F3072141EA0024E04380B2F0BDD9
:1085E00018B502460092D04300B10AB9012018BD67
:1085F00091F82D0000F0020008B90020F7E7486864
:10860000904201D10020F2E700988B681840D1E930
:1086100001342340984208D1886822EA00008C681F
:10862000E343984201D10120E1E70020DFE70000A9
:108630002DE9F74F8CB004460F464FF00008B98C77
:10864000A1F11400C11700EB5171C1F3CF0A14203E
:10865000059060680990DDF8249099F8000000F01A
:108660000F001421B1EB800F04D06FF005000FB0A4
:10867000BDE8F08F00BF608914280BDA00BF72A339
:108680004FF43F727FA186A0FEF7A6F800BF6FF0FF
:108690000500ECE700BFB9F8060001F076FA049097
:1086A0000498C0F30C000790049800F40050039065
:1086B000208914381FFA80FBBDE04FF6FF7000EAF6
:1086C000CA00584501DD584603E04FF6FF7000EA46
:1086D000CA0008904FF4207214210E2002F068FEA8
:1086E000054605B9ADE000BF6889142808DA00BF67
:1086F00055A34FF4497274A169A0FEF76DF800BF4D
:1087000000BF142268680999F7F728FED5F804908D
:1087100008980A9054E061890598081A80B202907E
:1087200000BF61890598814208DA00BF46A340F284
:108730002D326DA15AA0FEF74FF800BF00BF02997D
:108740000A98884201DA0A9800E002988046B8F157
:10875000000F03D100200590246831E000F068FC90
:1087600006461EB9284603F0C5FA6AE06168059816
:108770000844334641224146CDE90008002002F07A
:10878000C7FF0B900B9830B9304600F057FC2846D5
:1087900003F0B0FA55E0204603F08CFC74615648B3
:1087A000306128460B9902F0DDFF0A98A0EB080023
:1087B00080B20A900A9810B100200590246800BF8A
:1087C0000A980028A7D10598404480B20590B88C3B
:1087D0001438584501DB012000E00020069007987E
:1087E000C0F30C000490069808B1039818B10498DF
:1087F00040F400500490049801F0C7F9A9F806006D
:108800000899143188B201F0C0F9A9F802000020DB
:10881000A9F80A007B69294638460E9A98472846E7
:1088200003F068FA0898ABEB00001FFA80FB07988A
:10883000504480B20790BBF1000F7FF43EAF0020A0
:1088400015E74FF0FF3012E72E2E2F4D6964646C50
:108850006577617265732F54686972645F506172E5
:1088600074792F4C7749502F7372632F636F726541
:108870002F697076342F6970345F667261672E637A
:10888000000000006970345F6672616728293A2031
:108890007062756620746F6F2073686F7274000069
:1088A000417373657274696F6E202225732220668E
:1088B00061696C6564206174206C696E6520256453
:1088C00020696E2025730A0074686973206E6565DF
:1088D00064732061207062756620696E206F6E651A
:1088E0002070696563652100702D3E6C656E203EC9
:1088F0003D20706F666600008D9700082DE9F047F7
:1089000007460E467D6828780421B1EB201F05D06C
:10891000384603F0EFF90020BDE8F087287800071B
:108920004FEA9068688801F030F9814639894945F5
:1089300003DD4946384603F009FB7889404505DBED
:108940003889484502DBB8F1140F04DA384603F0E1
:10895000D1F90020E0E728694D494861E8680861DD
:108960000846007D00F0F000E0280AD196F82D00BE
:1089700000F0010018B1706808B134461CE0002412
:108980001AE0304600F088F808B1344614E00024BC
:108990003F48007D7F280FD03E48046809E0B4427C
:1089A00000D105E0204600F077F800B103E000BFF9
:1089B0002468002CF3D100BF354908693146FFF720
:1089C0000FFE28B93248007C00F0F000E02804D106
:1089D000384603F08FF900209EE724B9384603F0AB
:1089E00089F9002098E7E8884FF63F71084038B1D0
:1089F000384600F055F907460FB900208CE77D682E
:108A0000234804604660856028780007800E20496E
:108A100088814146384603F09BFB687A01280DD0D7
:108A2000062806D011280ED1314638460BF014FD29
:108A300022E03146384605F049FB1DE03146384614
:108A4000FFF7ACFB18E0124948692146FFF7C8FD63
:108A500070B90F48007D00F0F000E02808D00FFA50
:108A600088F1384603F040FA02213846FFF78CFBC4
:108A7000384603F03FF900BF00BF002004490860FA
:108A80004860886088810861486100BF44E7000051
:108A900028EC0024B899002410B5044694F82D0061
:108AA00000F0010070B1606860B10748406961681A
:108AB000884205D0044948692146FFF791FD08B175
:108AC000012010BD0020FCE728EC00242DE9FE4F1A
:108AD00007460C4615469846DDE90C9A0E9EA346BD
:108AE00025B10CB1206808B906F1040B43462A46AB
:108AF00059463846CDE9009A029600F003F8BDE8E1
:108B0000FE8F00002DE9F84F05460F4690469A4625
:108B1000DDF828B00C9E00BFA87B012808D000BF5C
:108B200037A34FF4557243A145A0FDF755FE00BF92
:108B300000BFB8F1000F46D04FF0140914212846A9
:108B400002F0B8FB18B16FF00100BDE8F88F6C6857
:108B500000BF6889142808D200BF29A34FF46272AD
:108B600041A137A0FDF738FE00BF00BF84F808A080
:108B70000B986072D8F80000206148464FEAE9710E
:108B800009EB9171C1F3870141F04001217084F834
:108B900001B0288900F0F9FF60800020E0803E48A5
:108BA000008800F0F2FFA0803B480088401C3A4952
:108BB00008801FB939480068E06001E03868E0606B
:108BC0000020608109E06889142802DA6FF0010052
:108BD000BBE76C6820690090E846B08C48B12889F2
:108BE000B18C884205DD424631462846FFF720FD1C
:108BF000ABE742462946304673699847A5E700002F
:108C00002E2E2F4D6964646C6577617265732F54E5
:108C1000686972645F50617274792F4C7749502F84
:108C20007372632F636F72652F697076342F69706A
:108C3000342E6300702D3E726566203D3D2031006C
:108C4000417373657274696F6E20222573222066EA
:108C500061696C6564206174206C696E65202564AF
:108C600020696E2025730A00636865636B20746851
:108C70006174206669727374207062756620636126
:108C80006E20686F6C6420737472756374206970F1
:108C90005F68647200000000229A0024A851010855
:108CA0002DE9F14F84B004984568287800F00F0052
:108CB0001421B1EB800F00D011E1E88800F065FFCE
:108CC000C0F30C004FF6FF7101EAC00A688800F09B
:108CD0005CFF074628780007810E02910299B9428D
:108CE00000DDFCE00298381A87B2049802F0EDFD2E
:108CF00006467D48018888190A280ADD314628463B
:108D000000F0E6FC20B17848008830440A2800DDF5
:108D1000E5E07648046811E06069E968884209D1B5
:108D2000A0692969884205D1A089A988884201D112
:108D3000012000E0002000B102E02468002CEBD10B
:108D400000BF34B93146284600F0A8FB044694B968
:108D5000C5E0E88800F019FFC0F30C0058B9E089BD
:108D600000F013FFC0F30C0028B11422294604F1CF
:108D70000800F7F7F3FAE888012121EA5010019082
:108D8000019850B10AEB070188B2504503DB4FF65A
:108D9000EB71884200DD80E000BF2046019A049913
:108DA00000F098F983460BF1010000B975E04E48D8
:108DB000008830444C490880019840B10AEB070113
:108DC00088B2A083A17F41F00101A17700BFBBF170
:108DD000010F60D1A08B143080B2009060684068B1
:108DE000D0F8009060684568142204F10801284614
:108DF000F7F7B4FA009800F0C8FE68800020E88019
:108E00006881606804900DE0D9F804000390142193
:108E1000484603F09DF94946049802F0A3FC0398E4
:108E2000D0F80090B9F1000FEED1304800688442CC
:108E300002D14FF000080EE02C48D0F8008006E088
:108E4000D8F80000A04200D104E0D8F80080B8F1C2
:108E5000000FF5D100BF4146204600F0BDFA04984E
:108E600002F033FD064600BF1F480088B04208DA12
:108E700000BF1FA340F29B222CA133A0FDF7ACFC46
:108E800000BF00BF18480088801B1749088004985D
:108E900005B0BDE8F08F0020FAE700BF44B900BF7D
:108EA00013A34FF42A7232A127A0FDF795FC00BF4F
:108EB00000BF606890B900BF0C480068844208D0C9
:108EC00000BF0BA340F2AB222CA11FA0FDF784FC36
:108ED00000BF00BF0021204600F07EFA00BF0498CA
:108EE00002F008FF0020D3E7289A0024249A0024E7
:108EF0002E2E2F4D6964646C6577617265732F54F3
:108F0000686972645F50617274792F4C7749502F91
:108F10007372632F636F72652F697076342F697077
:108F2000345F667261672E630000000069705F72D3
:108F3000656173735F70627566636F756E74203EF2
:108F40003D20636C656E0000417373657274696FD8
:108F50006E2022257322206661696C65642061742D
:108F6000206C696E6520256420696E2025730A00D7
:108F700069707220213D204E554C4C006E6F74205C
:108F80006669727374616C74686F756768206A755E
:108F9000737420656E7175657565640010B5024661
:108FA0002148016821E091F82D0000F00100D8B1BE
:108FB00091F82D00C0F38000B0B14868A0B11068EE
:108FC0008B681840D1E901342340984201D108460A
:108FD00010BD91F82D0000F0020028B91068CB6890
:108FE000984201D10846F3E709680029DBD10F4810
:108FF0000068A0B10D48006890F82D0000F0010055
:1090000068B10A48006890F82D00C0F3800030B1C4
:1090100006480068406810B110787F2801D1002010
:10902000D6E702480068D3E7B8990024BC99002429
:1090300010B5052001F088FC10BD000010B50446F5
:1090400000BF002C08D100BF06A34FF4317214A159
:1090500016A0FDF7C1FB00BF00BF2146052001F0AF
:10906000A5FB10BD2E2E2F4D6964646C657761726F
:1090700065732F54686972645F50617274792F4C04
:109080007749502F7372632F636F72652F69707603
:10909000342F6970345F667261672E6300000000D0
:1090A0007020213D204E554C4C00000041737365EB
:1090B0007274696F6E2022257322206661696C6567
:1090C00064206174206C696E6520256420696E20BF
:1090D00025730A002DE9F74F84B00646884600251F
:1090E00001200190D8F8040002900299488800F00D
:1090F0004CFD8346029800780007800E0390039889
:10910000584503DD681E07B0BDE8F08F0398ABEB50
:1091100000001FFA80FB0299C88800F036FDC0F3FA
:109120000C004FF6FF7101EAC00A00BF00BFD8F87B
:10913000044000202060A4F804A00AEB0B00E080AB
:10914000E088504502DA4FF0FF30DCE7D6F80490B3
:109150003EE0D9F80470A088B988884220DAC4F8C3
:1091600000909DB1A088E988884203DBE088B98837
:10917000884202DD4FF0FF30C5E7C5F80080E8887F
:10918000A18888420BD00020019008E0E088B988CF
:10919000884202DD4FF0FF30B5E7C6F804801AE0E0
:1091A000A088B988884202D14FF0FF30ABE7A08891
:1091B000F988884202DA4FF0FF30A4E72DB1E88841
:1091C000B988884201D000200190D7F800903D4630
:1091D000B9F1000FBDD100BFB9F1000F28D1002DAA
:1091E00017D000BFE888A188884208DD00BF3EA3F1
:1091F0004FF4DB724BA153A0FDF7EEFA00BF00BFA6
:10920000C5F80080E888A188884211D0002001902C
:109210000EE000BF706840B100BF33A34FF4DF72AF
:1092200052A148A0FDF7D8FA00BF00BFC6F80480DD
:10923000069820B9B07F00F00100002851D00198B5
:10924000002848D0706818B170684068808810B1F4
:10925000002001903FE02546D4F800900BE0D9F8BB
:109260000440E888A188884202D00020019005E0EF
:109270002546D4F80090B9F1000FF0D100BF019855
:10928000002828D000BF706840B900BF16A340F284
:10929000DF1244A12BA0FDF79FFA00BF00BF00BF63
:1092A00070684068A04208D100BF0FA34FF4F0726D
:1092B0003CA124A0FDF790FA00BF00BF00BF2068CA
:1092C00040B100BF08A34FF4F1723AA11DA0FDF711
:1092D00083FA00BF00BF019808B1012013E7002006
:1092E00011E700200FE700002E2E2F4D6964646CFB
:1092F0006577617265732F54686972645F5061723B
:1093000074792F4C7749502F7372632F636F726596
:109310002F697076342F6970345F667261672E63CF
:1093200000000000636865636B20667261676D65AD
:109330006E747320646F6E2774206F7665726C6133
:1093400070000000417373657274696F6E2022258E
:109350007322206661696C6564206174206C696E9B
:109360006520256420696E2025730A006E6F2070C9
:10937000726576696F757320667261676D656E746C
:109380002C2074686973206D757374206265207475
:10939000686520666972737420667261676D656EB8
:1093A0007421000073616E69747920636865636B72
:1093B0000000000076616C69646174655F646174CB
:1093C000616772616D3A6E6578745F70627566216F
:1093D0003D4E554C4C00000070B504460D460E48FD
:1093E0000068A04203D10C49206808600EE000BF6D
:1093F000002D08D100BF09A340F2451216A11DA0FF
:10940000FDF7EAF900BF00BF20682860214604206C
:1094100001F0CCF970BD0000249A00242E2E2F4DAF
:109420006964646C6577617265732F5468697264EE
:109430005F50617274792F4C7749502F7372632F8C
:10944000636F72652F697076342F6970345F66724E
:1094500061672E630000000073616E697479206398
:109460006865636B206C696E6B6564206C697374EE
:1094700000000000417373657274696F6E202225CD
:109480007322206661696C6564206174206C696E6A
:109490006520256420696E2025730A0070B5054695
:1094A0000E46042001F050FA044664B931462846BD
:1094B00000F00EF9B04203DB042001F045FA044647
:1094C0000CB9002070BD20212046F6F76EFF0F205A
:1094D000E0770648006820600448046014222946AA
:1094E00004F10800F6F73AFF2046EBE7249A00243F
:1094F0002DE9F04704468846002500BFA04507D166
:1095000000BF40A3AB224EA150A0FDF765F900BFFC
:1095100000BFB8F1000F0DD000BFD8F80000A04286
:1095200007D000BF37A3AD2252A148A0FDF754F9E0
:1095300000BF00BF6068D0F80490B9F804000028AC
:1095400024D16768D9F800006060142204F1080192
:109550007868F6F703FF01213846FFF703F838462D
:1095600002F0B3F9064600BFA819B0F5803F07DB4B
:1095700000BF24A3BC2244A134A0FDF72DF900BFF5
:1095800000BFA81985B2384602F0B4FB67681CE03A
:10959000D7F80490BA46D9F80070504602F095F911
:1095A000064600BFA819B0F5803F07DB00BF15A332
:1095B000CC2235A125A0FDF70FF900BF00BFA819E7
:1095C00085B2504602F096FB00BF002FE0D1414625
:1095D0002046FFF701FF00BF33480088A84207DAA2
:1095E00000BF08A3D22231A118A0FDF7F5F800BFF3
:1095F00000BF2D480088401B2B4908802846BDE845
:10960000F08700002E2E2F4D6964646C65776172BF
:1096100065732F54686972645F50617274792F4C5E
:109620007749502F7372632F636F72652F6970765D
:10963000342F6970345F667261672E63000000002A
:109640007072657620213D206970720041737365E8
:109650007274696F6E2022257322206661696C65C1
:1096600064206174206C696E6520256420696E2019
:1096700025730A00707265762D3E6E657874203D04
:109680003D2069707200000070627566735F6672DB
:10969000656564202B20636C656E203C3D2030782E
:1096A0006666666600000000289A002469705F7292
:1096B000656173735F70627566636F756E74203E6B
:1096C0003D2070627566735F6672656564000000B8
:1096D0002DE9F84F05468946002700BF0026B2460F
:1096E0000020009083461B48046821E06069E96817
:1096F000884207D1A0692969884203D1A089A98835
:10970000884201D0012000E0002068B10BF1010B7C
:109710001EB92646CDF800A006E0E07FF17F884222
:1097200002DC2646CDF800A0206800B1A2462468DD
:10973000002CDBD12EB130460099FFF7D9FE8046D0
:1097400047444F4502DABBF1010FC7DC3846BDE89C
:10975000F88F0000249A002470B500250A48046898
:109760000FE0E07F002805DDE07F401EE077254622
:10977000246806E02646246829463046FFF7B8FEEE
:1097800000BF002CEDD170BD249A002470B50546B1
:109790002C4600BF002C08D100BF0FA340F2CE2200
:1097A0001CA11FA0FDF718F800BF00BF00BFAC420E
:1097B00008D000BF08A340F2CF2223A118A0FDF7D4
:1097C0000BF800BF00BF606910B1606902F092FA47
:1097D0002046FFF733FC70BD2E2E2F4D6964646C5C
:1097E0006577617265732F54686972645F50617246
:1097F00074792F4C7749502F7372632F636F7265A2
:109800002F697076342F6970345F667261672E63DA
:109810000000000070637220213D204E554C4C002A
:10982000417373657274696F6E20222573222066FE
:1098300061696C6564206174206C696E65202564C3
:1098400020696E2025730A00706372203D3D2070F0
:10985000000000007CB50446002535483549086005
:1098600000208DF8000080208DF80100E1208DF8A7
:10987000020000208DF803008DF804008DF805002B
:10988000C1F804D000212B4801722B49C1602B493B
:1098900001614FF4C0614161F8F7A2F90546382132
:1098A0002748F6F782FD2120254908604FF4403013
:1098B000486100200861234801F030F8062084F850
:1098C0002C001C484068007884F82600194840683D
:1098D0004178272001551748406881782820015594
:1098E00014484068C1782920015512484068017920
:1098F0002A2001550F48406841792B20015540F23C
:10990000DC50A08494F82D0040F00A0084F82D006B
:109910000D490E48FBF73AFD0C48FBF7B8FC1DB9A2
:109920002046FEF7DDF901E0F7F75AFA7CBD0000AA
:10993000008002402CEA00246040003000400030EB
:10994000DCEA00245C5001080800002414EB002429
:1099500038B50446002000902248007800283ED107
:1099600000BF0023204D2B6000BF00BF00BF00BF21
:10997000BFF34F8F00BF00BF00BF2B1F1868C0F39D
:109980004E3100BFC0F3C90200BF43F6E07303EAE3
:1099900041134FF0404505EA82752B43134D2B6070
:1099A00000BF00BF131EA2F10102EED10B1EA1F1F8
:1099B0000101E7D100BF00BF00BFBFF34F8F00BF61
:1099C00000BF00BF00BF00BF00BFBFF36F8F00BF6D
:1099D00000BF00BF00BF69460548F8F7CAFA009803
:1099E00038BD00000400002484ED00E074EF00E0C6
:1099F0002CEA00242DE9F0418CB080460E4600246C
:109A00000025002730216846F6F7CFFC3021684654
:109A1000F6F7CBFC354629E0042C04D36FF00B009D
:109A20000CB0BDE8F08104EB440168684DF82100FA
:109A3000688904EB44016A4602EB8101486054B135
:109A400004EB4400694601EB8001601E00EB40001E
:109A500002EB80008160286830B9002004EB4401EB
:109A60006A4602EB81018860641C2D68002DD3D109
:109A7000308927494860C1F808D00846466300BFCE
:109A80000023DFF890C0CCF8003000BF00BF00BF5B
:109A900000BFBFF34F8F00BF00BF00BFACF1040396
:109AA0001868C0F34E3100BFC0F3C90200BF43F6CF
:109AB000E07303EA41134FF0404C0CEA827C43EA26
:109AC0000C03DFF854C0CCF8003000BF00BF131EF9
:109AD000A2F10102EBD10B1EA1F10101E4D100BF03
:109AE00000BF00BFBFF34F8F00BF00BF00BF00BF6C
:109AF00000BF00BFBFF36F8F00BF00BF00BF00BF3C
:109B0000142203490548F8F761FC384688E700004D
:109B1000DCEA002484ED00E074EF00E02CEA00248D
:109B20002DE9F041044625466868804702F01CFE96
:109B300006460D49286809684718B81BB0F1004F60
:109B400001D3012000E0002030B1296888192246A5
:109B5000064902F075FE04E022460449384602F048
:109B60006FFEBDE8F0810000109A0024219B0008E0
:109B70000146080601F47F4240EA022001F47F0218
:109B800040EA122040EA1160704701460806000CC6
:109B900040EA11207047000008B50020009000BF87
:109BA0006846804208D000BF0BA340F2511216490C
:109BB00016A0FCF711FE00BF00BF00BF00BF00F001
:109BC00027FB00F09BFE01F033F90AF039FC04F0AA
:109BD00071FA02F0D5FE08BD2E2E2F4D6964646C1B
:109BE0006577617265732F54686972645F50617242
:109BF00074792F4C7749502F7372632F636F72659E
:109C00002F696E69742E6300B0510108417373654A
:109C10007274696F6E2022257322206661696C65FB
:109C200064206174206C696E6520256420696E2053
:109C300025730A00F8B505460A462B460020009019
:109C4000002103F0010636B1002A04DD13F8010BF0
:109C50008DF80100521E1C4603E034F8027B3944A3
:109C6000921E012AF9DC002A02DD20788DF800001E
:109C7000BDF80000014488B200EB114188B200EB4E
:109C8000114126B1C8B2C1F3072747EA002188B2C3
:109C9000F8BD000010B504465CB120460AF07AFB1E
:109CA00020460AF03BFE0348407F20F02000014997
:109CB000487710BD200C00242DE9F04782460E465F
:109CC00017469846DDF820900025002F3CD0244907
:109CD000486A40F2DC51F6F768FB3C462DE06089AB
:109CE00040F2DC51491B88420BD940F2DC535A1B2D
:109CF0001B4B61685B6A5819F6F730FB40F2DC5584
:109D00001DE06289164B61685B6A5819F6F726FBFD
:109D100060890544D8F800007060A6F814901048D7
:109D2000D8F800100161A0F81890C66201464D8570
:109D3000407F40F0400048772468002CCFD100BF1E
:109D4000384601F0D7FF08E03046FFF7A3FF04488C
:109D5000407F20F0200002494877BDE8F0870000EE
:109D6000200C002470B505460C462DB124B100220C
:109D7000024928460AF084FD70BD0000B99C000825
:109D800070B505460C461CB1B4F5B86F00DC0DB9D2
:109D9000012070BD0B480485018D4FF4C17236203F
:109DA00001F006FB06460748028D016A304602F0C4
:109DB00049FA314628460AF01BFE304601F09AFF68
:109DC0000020E6E7200C002410B502463F48407F03
:109DD00000F0200028B13D48407F20F020003B4BA0
:109DE0005877002015E03A4BDB68C400E340DCB252
:109DF000364B9B1D1C54364B9B68C400E340DCB2C1
:109E0000324B0A331C54334B5B681B5C2F4C23547E
:109E1000401C0428E7DB2F48406800792B4B187161
:109E20002C48406840795871184601834183284B7B
:109E30005B684361264800790006254B9B881B0A16
:109E400040EA0340224B5B681B0C40EA03201043AE
:109E500003061F48007900061D4CA488240A40EA26
:109E600004401B4C6468240C40EA0420D4B2204314
:109E700000F47F4043EA0023154800790006144CA3
:109E8000A488240A40EA044411484068C0F307400B
:109E900044EA0020D4B2204300F47F0043EA1023B8
:109EA0000B48007904060A488088C0F3072044EA7A
:109EB000004407484068C0F3074044EA0020D4B299
:109EC000204343EA1060014B186110BD200C0024B0
:109ED00034EB00242CEA0024FBF770FA00BF564B49
:109EE0001B6803F4803303B147E00023524C703405
:109EF000236000BF00BF00BFBFF34F8F00BF00BF94
:109F000000BF231F1868C0F34E3100BFC0F3C90261
:109F100000BF43F6E07303EA41134FF0404404EA04
:109F200082742343454C236000BF00BF131EA2F17F
:109F30000102EED10B1EA1F10101E7D100BF00BF6C
:109F400000BFBFF34F8F00BF00BF00BF3A4B1B687D
:109F500043F48033384C236000BF00BF00BFBFF321
:109F60004F8F00BF00BF00BF00BF00BF00BFBFF3E7
:109F70006F8F00BF00BF00BF00BFF8F701FCFBF709
:109F8000AFFDFBF74BFAFBF705FCFBF7D9FAFEF741
:109F90003DF841F690710B20FCF78EFD41F6907173
:109FA0001E2002F027FB41F690710B20FFF70CFFFB
:109FB000FBF7B2FEFBF718FFFCF7DAFB3AE0FBF722
:109FC000FDFE1F4890F8250000F0200058B11C4904
:109FD000886AF6F7F5F984B2194A916A0123506B41
:109FE000224609F0EBFA1748407F00F0200058B1F4
:109FF0001449086AF6F7E4F984B2124A116A012397
:10A00000D06A224609F0DAFA0F48407F00F02000BB
:10A0100070B10D49086AF6F7D3F984B20A49C86AE3
:10A020002146FFF7ADFE05460A20F7F7F7FB00BF14
:10A03000FBF7A6FBC3E7000014ED00E060EF00E0D3
:10A04000AC52002440990024200C002470B5054631
:10A0500005B970BD05F0030000280DD000BF00BF9A
:10A060002BA340F2732236A13EA0FCF7B5FB00BF44
:10A0700000BF00BF00BFECE7A5F10804434800683B
:10A08000844205D305F10C004149096888420DD985
:10A0900000BF00BF1EA340F27F223EA131A0FCF70B
:10A0A0009BFB00BF00BF00BF00BFD2E720790028A4
:10A0B0000DD100BF00BF16A34FF423723CA129A00D
:10A0C000FCF78AFB00BF00BF00BF00BFC1E720460E
:10A0D00000F0CAF800280DD100BF00BF0CA340F269
:10A0E00095223DA11FA0FCF777FB00BF00BF00BF7A
:10A0F00000BFAEE70020207144480068844201D2CE
:10A1000042480460204602F081F900BFA1E7000048
:10A110002E2E2F4D6964646C6577617265732F54C0
:10A12000686972645F50617274792F4C7749502F5F
:10A130007372632F636F72652F6D656D2E63000000
:10A140006D656D5F667265653A2073616E697479DD
:10A1500020636865636B20616C69676E6D656E7402
:10A1600000000000417373657274696F6E202225D0
:10A170007322206661696C6564206174206C696E6D
:10A180006520256420696E2025730A0088990024C3
:10A190008C9900246D656D5F667265653A20696C07
:10A1A0006C6567616C206D656D6F727900000000F1
:10A1B0006D656D5F667265653A20696C6C65676197
:10A1C0006C206D656D6F72793A20646F75626C6595
:10A1D00020667265650000006D656D5F667265657D
:10A1E0003A20696C6C6567616C206D656D6F727982
:10A1F0003A206E6F6E2D6C696E6B65643A20646FE9
:10A2000075626C6520667265650000009099002497
:10A2100010B500BF00BF1048104908600846046828
:10A220004FF47A5020800020608020714FF47A50E3
:10A2300002F0D8F90A4908600120096808714FF452
:10A240007A50074909680880054909684880034829
:10A2500000680449086010BD00400430889900245B
:10A260008C990024909900242DE9F0410446204661
:10A2700000F07AF90546208802F0B4F906466088B5
:10A2800002F0B0F907462088B0F57A5F10D86088F0
:10A29000B0F57A5F0CD86088A84202D03888A8420E
:10A2A00006D106480068864205D07088A84202D0D0
:10A2B0000020BDE8F0810120FBE700008C9900241C
:10A2C0002DE9F0478146B9F1000F02D10020BDE829
:10A2D000F08709F1030020F0030085B20C2D00D2B5
:10A2E0000C25B5F57A5F01D84D4501DA0020EEE77F
:10A2F0005848006800F038F90646A3E0304602F0FE
:10A3000071F90446207900287ED1218806F10800E1
:10A31000081AA84278D3218806F10800091A05F125
:10A320001400814229D306F1080028441FFA80F85E
:10A3300000BFB8F57A5F08D100BF47A340F287326B
:10A3400051A156A0FCF748FA00BF00BF404602F0FA
:10A3500049F9074600213971218839807E80A4F8A7
:10A360000080012020713888B0F57A5F07D03888E6
:10A3700002F038F9A0F8028001E001202071354890
:10A380000068844227D13348D0F800A004E0BAF82E
:10A39000000002F027F982469AF8040018B14948F3
:10A3A00000688245F3D12B48C0F800A000BF0068C8
:10A3B0004449096888420CD026480068007940B1B9
:10A3C00000BF25A340F2B5323FA134A0FCF704FA48
:10A3D00000BF00BF00BF00BF04F108002844394996
:10A3E0000968884208D900BF1BA340F2B9323DA1D9
:10A3F0002AA0FCF7F1F900BF00BF00BF04F0030082
:10A4000050B100BF14A300E018E040F2BB3241A1FC
:10A4100022A0FCF7E1F900BF00BF00BF04F0030079
:10A4200040B100BF0CA340F2BD3246A11BA0FCF717
:10A43000D3F900BF00BF04F1080048E7304602F03E
:10A44000D1F80688C5F57A50B0423FF657AF0020E4
:10A450003DE70000909900242E2E2F4D6964646C16
:10A460006577617265732F54686972645F506172B9
:10A4700074792F4C7749502F7372632F636F726515
:10A480002F6D656D2E630000696E76616C696420C6
:10A490006E657874207074720000000041737365FB
:10A4A0007274696F6E2022257322206661696C6563
:10A4B00064206174206C696E6520256420696E20BB
:10A4C00025730A008C9900246D656D5F6D616C6C5D
:10A4D0006F633A20216C667265652D3E7573656405
:10A4E000000000006D656D5F6D616C6C6F633A20FC
:10A4F000616C6C6F6361746564206D656D6F7279FA
:10A50000206E6F742061626F76652072616D5F6589
:10A510006E642E006D656D5F6D616C6C6F633A20CB
:10A52000616C6C6F6361746564206D656D6F7279C9
:10A530002070726F7065726C7920616C69676E65EE
:10A54000642E00006D656D5F6D616C6C6F633A2009
:10A5500073616E69747920636865636B20616C69EF
:10A56000676E6D656E740000014602480088081A27
:10A5700080B27047889900242DE9F84F81468B46B8
:10A580000BF1030020F0030085B20C2D00D20C2546
:10A59000B5F57A5F01D85D4502DA0020BDE8F88F95
:10A5A00000BF56480068814503D35548006881457F
:10A5B00008D300BF53A340F2D1225EA163A0FCF7F1
:10A5C0000BF900BF00BF4D480068814503D34C48DC
:10A5D0000068814503D300BF00BF4846DEE7A9F10C
:10A5E00008063046FFF7C0FF07463188C81B083809
:10A5F0001FFA80FA00BF554508DD00BF41A34FF4A4
:10A6000039725CA151A0FCF7E7F800BF00BF5545C7
:10A6100001DD0020C2E7554501D14846BEE730883C
:10A6200001F0E0FF04462079002833D100BF3088D4
:10A63000B0F57A5F08D100BF32A340F2F52255A1F0
:10A6400042A0FCF7C9F800BF00BF2088009007F1C6
:10A65000080028441FFA80F853480068A04204D13B
:10A66000404601F0BFFF50490860404601F0BAFF84
:10A67000044600202071009820806780A6F80080A2
:10A680002088B0F57A5F04D0208801F0ABFFA0F8F5
:10A69000028031E005F1140050452DD807F1080083
:10A6A00028441FFA80F800BF3088B0F57A5F08D1DF
:10A6B00000BF14A340F2163236A124A0FCF78CF898
:10A6C00000BF00BF404601F08DFF044636480068D9
:10A6D000844201D2344804600020207130882080F8
:10A6E0006780A6F800802088B0F57A5F04D02088C3
:10A6F00001F078FFA0F8028048464FE788990024CF
:10A700008C9900242E2E2F4D6964646C65776172DC
:10A7100065732F54686972645F50617274792F4C4D
:10A720007749502F7372632F636F72652F6D656D5C
:10A730002E6300006D656D5F7472696D3A206C6503
:10A7400067616C206D656D6F727900004173736590
:10A750007274696F6E2022257322206661696C65B0
:10A7600064206174206C696E6520256420696E2008
:10A7700025730A006D656D5F7472696D2063616E8B
:10A78000206F6E6C7920736872696E6B206D656DD9
:10A790006F727900696E76616C6964206E65787499
:10A7A00020707472000000009099002470B5044677
:10A7B0000D4600BF092C09DB00BF0AA34FF4D57278
:10A7C00014A11BA0FCF708F800BF70BD00BF05B9BD
:10A7D000FBE7214951F824002946FCF7F9F900BFAD
:10A7E000F3E700002E2E2F4D6964646C657761726B
:10A7F00065732F54686972645F50617274792F4C6D
:10A800007749502F7372632F636F72652F6D656D7B
:10A81000702E63006D656D705F667265653A2074B9
:10A82000797065203C204D454D505F4D41580000EA
:10A83000417373657274696F6E20222573222066DE
:10A8400061696C6564206174206C696E65202564A3
:10A8500020696E2025730A001851010870B504465E
:10A860000D4600BF002C08D100BF09A340F295128D
:10A8700013A118A0FBF7B0FF00BF00BF04B105B9DA
:10A8800070BD29462046FCF7A3F900BFF8E7000099
:10A890002E2E2F4D6964646C6577617265732F5439
:10A8A000686972645F50617274792F4C7749502FD8
:10A8B0007372632F636F72652F6D656D702E630009
:10A8C000696E76616C696420706F6F6C206465736B
:10A8D00063000000417373657274696F6E202225F6
:10A8E0007322206661696C6564206174206C696EF6
:10A8F0006520256420696E2025730A0010B50024A8
:10A9000006E0054951F8240000F008F8601C84B204
:10A91000092CF6D310BD00001851010810B5002312
:10A92000846823604368DB1C23F00301002207E0F6
:10A9300083681B680B608368196003881944521C84
:10A9400043889342F4DC10BD70B5044600BF092C67
:10A950000ADB00BF09A340F2571214A11BA0FBF7AA
:10A960003BFF00BF002070BD00BF224951F824000A
:10A97000FCF784F905462846F5E700002E2E2F4DFA
:10A980006964646C6577617265732F546869726479
:10A990005F50617274792F4C7749502F7372632F17
:10A9A000636F72652F6D656D702E63006D656D70E0
:10A9B0005F6D616C6C6F633A2074797065203C2028
:10A9C0004D454D505F4D4158000000004173736587
:10A9D0007274696F6E2022257322206661696C652E
:10A9E00064206174206C696E6520256420696E2086
:10A9F00025730A001851010810B5044600BF002C49
:10AA000008D100BF07A34FF49E7212A116A0FBF756
:10AA1000E3FE00BF00BF0CB9002010BD2046FCF7CC
:10AA20002DF9FAE72E2E2F4D6964646C65776172FB
:10AA300065732F54686972645F50617274792F4C2A
:10AA40007749502F7372632F636F72652F6D656D39
:10AA5000702E6300696E76616C696420706F6F6C34
:10AA60002064657363000000417373657274696FDD
:10AA70006E2022257322206661696C6564206174F2
:10AA8000206C696E6520256420696E2025730A009C
:10AA90002DE9F05F04460E4617469846DDE90AB9EF
:10AAA00000BF002C0BD100BF49A340F2271255A1D3
:10AAB0005BA0FBF791FE00BF0020BDE8F09F00BF48
:10AAC00000BFB9F1000F0AD100BF41A34FF4947247
:10AAD0005DA153A0FBF780FE00BF0020EDE700BFA3
:10AAE00006B9624E07B9614FB8F1000F01D1DFF826
:10AAF0007C8100206060A060E0605D4860610020B3
:10AB0000A08484F82D00E061C4F820B05948007892
:10AB100084F830000C98206143463A46314620467E
:10AB200000F0F8F92046C84708B10020C5E700BF8B
:10AB300094F83000FF2802D1002084F830004FF054
:10AB4000000A4D48056829E000BFA54208D100BFB2
:10AB50001FA340F28B1249A131A0FBF73DFE00BFBD
:10AB600000BF0AF1010A00BFBAF1FF0F08DD00BF04
:10AB700017A340F28D1246A129A0FBF72DFE00BFBE
:10AB800000BF95F8300094F83010884205D194F851
:10AB90003000401C84F8300002E02D68002DD3D135
:10ABA00000BF002DC4D194F83000FE2803D100204E
:10ABB0003049087004E094F83000401C2D490870BA
:10ABC0002D48006820602C480460204675E700008E
:10ABD0002E2E2F4D6964646C6577617265732F54F6
:10ABE000686972645F50617274792F4C7749502F95
:10ABF0007372632F636F72652F6E657469662E635F
:10AC0000000000006E657469665F6164643A2069E3
:10AC10006E76616C6964206E657469660000000080
:10AC2000417373657274696F6E20222573222066EA
:10AC300061696C6564206174206C696E65202564AF
:10AC400020696E2025730A006E657469665F616411
:10AC5000643A204E6F20696E69742066756E637465
:10AC6000696F6E20676976656E000000A851010863
:10AC70000DAF0008C0990024B89900246E6574696E
:10AC80006620616C7265616479206164646564004A
:10AC9000746F6F206D616E79206E65746966732CB8
:10ACA000206D61782E20737570706F7274656420EA
:10ACB0006E756D6265722069732032353500000053
:10ACC00070B504460D462946204604F0F7F929469A
:10ACD000204609F083FD70BD10B503460868DC68A6
:10ACE000A04201D1012000E0002030B909B90020C4
:10ACF00000E00868D860012010BD0020FCE70000DB
:10AD0000F8B505460C46164600BF002C08D100BF1A
:10AD100018A340F2CB1224A127A0FBF75DFD00BFD2
:10AD200000BF00BF46B900BF12A34FF4E6721EA1D8
:10AD300021A0FBF751FD00BF00BF20686968884271
:10AD400001D1012000E0002090B9206800906868DF
:10AD5000306069463046FFF7B3FF0CB9002000E0D1
:10AD6000206868600121284600F064F80120F8BDE1
:10AD70000020FCE72E2E2F4D6964646C65776172AC
:10AD800065732F54686972645F50617274792F4CD7
:10AD90007749502F7372632F636F72652F6E6574DE
:10ADA00069662E6300000000696E76616C6964203C
:10ADB000706F696E74657200417373657274696F48
:10ADC0006E2022257322206661696C65642061749F
:10ADD000206C696E6520256420696E2025730A0049
:10ADE00010B5034608689C68A04201D1012000E02C
:10ADF000002030B909B9002000E0086898600120FF
:10AE000010BD0020FCE7000002466AB10748016857
:10AE100008E091F83000401CC0B2904201D10846D1
:10AE2000704709680029F4D10020F9E7B899002497
:10AE30007047000070B504460D4600BF002C08D1D5
:10AE400000BF12A340F26D321DA126A0FBF7C4FC87
:10AE500000BF00BF94F82D0000F0040020B194F86A
:10AE60002D0000F0010000B970BD05F0010050B1E7
:10AE7000606840B194F82D0000F0080018B1211D61
:10AE80002046FCF78DFD00BFEEE700002E2E2F4D73
:10AE90006964646C6577617265732F546869726464
:10AEA0005F50617274792F4C7749502F7372632F02
:10AEB000636F72652F6E657469662E630000000013
:10AEC0006E657469665F69737375655F7265706FCF
:10AED0007274733A20696E76616C6964206E657471
:10AEE00069660000417373657274696F6E20222574
:10AEF0007322206661696C6564206174206C696EE0
:10AF00006520256420696E2025730A0003466FF0D2
:10AF10000B0070472DE9F84F80460C4615461E463B
:10AF20004FF00009CA4604B9114C05B9104D06B9D5
:10AF30000F4E0CB1206808B9012000E00020074640
:10AF400027B16A4621464046FFF7DAFE4A462946BF
:10AF50004046FFF745FF524631464046FFF7BCFEEC
:10AF600027B96A4621464046FFF7CAFEBDE8F88F7A
:10AF7000A85101080149086070470000BC990024ED
:10AF800010B5044600BF002C09D100BF10A340F249
:10AF90009B321CA123A0FBF71FFC00BF10BD00BF0C
:10AFA00094F82D0000F0010078B100BF94F82D0056
:10AFB00000F0FE0084F82D0000BF94F82D0000F092
:10AFC000080010B12046FBF7B3FE00BFE6E7000023
:10AFD0002E2E2F4D6964646C6577617265732F54F2
:10AFE000686972645F50617274792F4C7749502F91
:10AFF0007372632F636F72652F6E657469662E635B
:10B00000000000006E657469665F7365745F646F4D
:10B01000776E3A20696E76616C6964206E6574693A
:10B0200066000000417373657274696F6E2022259B
:10B030007322206661696C6564206174206C696E9E
:10B040006520256420696E2025730A0000B1C16166
:10B050007047000010B5044600BF002C09D100BFA6
:10B060000FA340F206421BA123A0FBF7B5FB00BFD4
:10B0700010BD00BF94F82D0000F0040070B100BFB7
:10B0800094F82D0000F0FB0084F82D0000BF00BFF5
:10B09000E06910B12046E169884700BF00BFE7E7DB
:10B0A0002E2E2F4D6964646C6577617265732F5421
:10B0B000686972645F50617274792F4C7749502FC0
:10B0C0007372632F636F72652F6E657469662E638A
:10B0D000000000006E657469665F7365745F6C697B
:10B0E0006E6B5F646F776E3A20696E76616C69642F
:10B0F000206E657469660000417373657274696FD0
:10B100006E2022257322206661696C65642061745B
:10B11000206C696E6520256420696E2025730A0005
:10B1200010B5044600BF002C09D100BF11A34FF495
:10B1300078721DA125A0FBF74FFB00BF10BD00BF1B
:10B1400094F82D0000F0040090B900BF94F82D0091
:10B1500040F0040084F82D0000BF03212046FFF7D3
:10B1600069FE00BFE06910B12046E169884700BF71
:10B1700000BFE3E72E2E2F4D6964646C6577617222
:10B1800065732F54686972645F50617274792F4CD3
:10B190007749502F7372632F636F72652F6E6574DA
:10B1A00069662E63000000006E657469665F7365F2
:10B1B000745F6C696E6B5F75703A20696E76616C56
:10B1C0006964206E657469660000000041737365F0
:10B1D0007274696F6E2022257322206661696C6526
:10B1E00064206174206C696E6520256420696E207E
:10B1F00025730A0010B5044600BF002C09D100BF1A
:10B200000EA34FF454721AA120A0FBF7E5FA00BF79
:10B2100010BD00BF94F82D0000F0010058B900BF28
:10B2200094F82D0040F0010084F82D0000BF0321A8
:10B230002046FFF7FFFD00BFEAE700002E2E2F4D4E
:10B240006964646C6577617265732F5468697264B0
:10B250005F50617274792F4C7749502F7372632F4E
:10B26000636F72652F6E657469662E63000000005F
:10B270006E657469665F7365745F75703A20696E98
:10B2800076616C6964206E657469660041737365EC
:10B290007274696F6E2022257322206661696C6565
:10B2A00064206174206C696E6520256420696E20BD
:10B2B00025730A0070B504460D4600222946204633
:10B2C00000F002F870BD00002DE9F04704460D467D
:10B2D000904600BF44B900BF1CA340F2DF1227A173
:10B2E00029A0FBF779FA00BF00BF14B1B5F5803F84
:10B2F00002D30120BDE8F0870DB90020FAE7AEB215
:10B300002089304480B2B04201DA0120F2E794F89B
:10B310000C9009F0800038B16068471B04F1100000
:10B32000874209D20120E5E7B8F1000F02D060683A
:10B33000471B01E00120DDE76760608930446081E0
:10B340002089304420810020D4E700002E2E2F4D8C
:10B350006964646C6577617265732F54686972649F
:10B360005F50617274792F4C7749502F7372632F3D
:10B37000636F72652F706275662E63007020213DC9
:10B38000204E554C4C000000417373657274696F18
:10B390006E2022257322206661696C6564206174C9
:10B3A000206C696E6520256420696E2025730A0073
:10B3B0002DE9FE4F82460E4690465746B8F1010FE2
:10B3C0000AD0B8F1410F06D0B8F5C17F0BD0B8F55F
:10B3D000207F7DD16CE000BF42463146002000F066
:10B3E00039F90446B0E0002400200290B14600BFC5
:10B3F0000820FFF7A9FA054645B900F09FFD14B1F2
:10B40000204600F077FC0020BDE8FE8FF81C20F0FD
:10B41000030040F2EC51081A80B2484501DD48466D
:10B4200006E0F81C20F0030040F2EC51081A80B24C
:10B4300083460020CDE9008005F110003844C01C8F
:10B4400020F003015B464A46284600F067FD00BF36
:10B45000287900F00300002808D000BF3CA34FF477
:10B46000807247A152A0FBF7B7F900BF00BF00BF31
:10B47000F81C20F0030040F2EC51081A08D100BF7C
:10B4800033A34FF4817254A149A0FBF7A5F900BF83
:10B4900000BF0CB92C4601E0029805600295A9EBAB
:10B4A0000B001FFA80F90027B9F1000FA0DC4BE078
:10B4B000F81C20F00301F01C20F00300084485B2C2
:10B4C00005F110001FFA80F9F01C20F0030000E0E5
:10B4D0002DE0A84204D8F01C20F00300484501D913
:10B4E000002091E74846FEF7EBFE04460CB9002029
:10B4F0008AE70020CDE9008004F110003844C01C28
:10B5000020F0030133463246204600F007FD00BF1D
:10B51000207900F0030040B100BF0DA34FF49172F9
:10B520003AA123A0FBF758F900BF00BF0CE000BF11
:10B5300000BF07A340F227123FA11DA0FBF74CF963
:10B5400000BF00BF00205FE700BF20465CE70000AF
:10B550002E2E2F4D6964646C6577617265732F546C
:10B56000686972645F50617274792F4C7749502F0B
:10B570007372632F636F72652F706275662E63003E
:10B58000706275665F616C6C6F633A20706275669D
:10B5900020712D3E7061796C6F61642070726F70E4
:10B5A00065726C7920616C69676E656400000000EB
:10B5B000417373657274696F6E2022257322206651
:10B5C00061696C6564206174206C696E6520256416
:10B5D00020696E2025730A00504255465F504F4F38
:10B5E0004C5F42554653495A45206D75737420622D
:10B5F0006520626967676572207468616E204D45D9
:10B600004D5F414C49474E4D454E54007062756642
:10B610005F616C6C6F633A20706275662D3E70617D
:10B62000796C6F61642070726F7065726C792061E3
:10B630006C69676E65640000706275665F616C6C52
:10B640006F633A206572726F6E656F7573207479DF
:10B65000706500002DE9FC4107460D46144600BF09
:10B66000412C0AD0012C08D000BF0EA34FF4A572C4
:10B6700018A11DA0FBF7B0F800BF00BF0720FFF71F
:10B6800063F9064616B90020BDE8FC8100202B4670
:10B690002A463946CDE90040304600F03FFC3046AE
:10B6A000F2E700002E2E2F4D6964646C657761729D
:10B6B00065732F54686972645F50617274792F4C9E
:10B6C0007749502F7372632F636F72652F706275A5
:10B6D000662E6300696E76616C69642070627566BF
:10B6E0005F74797065000000417373657274696FEF
:10B6F0006E2022257322206661696C656420617466
:10B70000206C696E6520256420696E2025730A000F
:10B710002DE9FC5F05460C4617469846DDE90C9B73
:10B72000AA460AF1030020F003002044584502D93C
:10B730000020BDE8FC9FB9F1000F06D00AF103001C
:10B7400020F0030000EB090600E00026022023465B
:10B7500022463146CDE90070404600F0DFFB40460E
:10B76000E7E7000070B506460D4600BF0EB1002D9C
:10B7700009D100BF1BA340F2593226A133A0FBF729
:10B780002BF800BF70BD00BF344604E02089298932
:10B7900008442081246820680028F7D100BF208950
:10B7A0006189884208D000BF0EA340F2623231A105
:10B7B00026A0FBF711F800BF00BF00BF206840B112
:10B7C00000BF08A340F2633236A120A0FBF704F8C3
:10B7D00000BF00BF2089298908442081256000BF5F
:10B7E000D0E700002E2E2F4D6964646C657761727E
:10B7F00065732F54686972645F50617274792F4C5D
:10B800007749502F7372632F636F72652F70627563
:10B81000662E6300286820213D204E554C4C29207F
:10B82000262620287420213D204E554C4C292028C6
:10B8300070726F6772616D6D65722076696F6C6191
:10B8400074657320415049290000000041737365FD
:10B850007274696F6E2022257322206661696C659F
:10B8600064206174206C696E6520256420696E20F7
:10B8700025730A00702D3E746F745F6C656E203DF9
:10B880003D20702D3E6C656E20286F66206C6173C4
:10B8900074207062756620696E20636861696E2924
:10B8A00000000000702D3E6E657874203D3D204EF6
:10B8B000554C4C0070B505460C4621462846FFF70E
:10B8C00051FF204600F0F6FB70BD0146002002E06B
:10B8D000421C90B209680029FAD170472DE9F04165
:10B8E00080460E461446218932464046FFF760FDE9
:10B8F000074617B90020BDE8F0812146384600F020
:10B9000045F8054600BF45B100BF05A340F22452EB
:10B910000FA114A0FAF760FF00BF00BF3846EAE7A6
:10B920002E2E2F4D6964646C6577617265732F5498
:10B93000686972645F50617274792F4C7749502F37
:10B940007372632F636F72652F706275662E63006A
:10B95000706275665F636F7079206661696C65649B
:10B9600000000000417373657274696F6E202225B8
:10B970007322206661696C6564206174206C696E55
:10B980006520256420696E2025730A002DE9F041A9
:10B9900005460C460026002700BF25B11CB12889AA
:10B9A000218988420CDA00BF44A340F2C9324FA17A
:10B9B0005AA0FAF711FF00BF6FF00F00BDE8F08149
:10B9C00000BF00BF6889801B6189C91B884203D3FF
:10B9D0006089A0EB070802E06889A0EB06086268AE
:10B9E000D1196A6890194246F4F7B8FC46444744B6
:10B9F00000BF6889B04208D200BF30A340F2D932FC
:10BA000050A146A0FAF7E8FE00BF00BF00BF608962
:10BA1000B84208D200BF29A340F2DA324FA13FA0BA
:10BA2000FAF7DAFE00BF00BF6089B84201D80027EC
:10BA300024686889B04211D100262D6800BF65B91D
:10BA40005CB100BF1DA34FF479724BA133A0FAF78C
:10BA5000C3FE00BF6FF00F00B0E700BF002C13D093
:10BA60006089218988420FD100BF206858B100BF8A
:10BA700012A340F2E93244A128A0FAF7ADFE00BFBC
:10BA80006FF005009AE700BF002D13D0688929895F
:10BA900088420FD100BF286858B100BF07A340F209
:10BAA000EE3239A11DA0FAF797FE00BF6FF0050036
:10BAB00084E700BF002C85D100207FE72E2E2F4D7C
:10BAC0006964646C6577617265732F546869726428
:10BAD0005F50617274792F4C7749502F7372632FC6
:10BAE000636F72652F706275662E63007062756693
:10BAF0005F636F70793A20746172676574206E6F4E
:10BB0000742062696720656E6F75676820746F20A6
:10BB1000686F6C6420736F75726365004173736541
:10BB20007274696F6E2022257322206661696C65CC
:10BB300064206174206C696E6520256420696E2024
:10BB400025730A006F66667365745F746F203C3DF1
:10BB500020705F746F2D3E6C656E00006F666673BB
:10BB600065745F66726F6D203C3D20705F66726F1A
:10BB70006D2D3E6C656E0000705F746F20213D205E
:10BB80004E554C4C00000000706275665F636F702C
:10BB900079282920646F6573206E6F7420616C6C46
:10BBA0006F77207061636B6574207175657565735F
:10BBB000210000002DE9F05F8046894616461D46AB
:10BBC0004FF0000AD34600BFB8F1000F0BD100BF01
:10BBD00021A340F20A422CA133A0FAF7FDFD00BFD9
:10BBE0000020BDE8F09F00BF00BFB9F1000F0AD1EF
:10BBF00000BF19A340F20B4235A12BA0FAF7ECFDD0
:10BC000000BF0020EDE700BF444620E035B1608969
:10BC1000A84203DC6089281A85B217E06089401BBE
:10BC200087B2B74200DD37466268511909EB0A0056
:10BC30003A46F4F793FB0BEB07001FFA80FB0AEB85
:10BC400007001FFA80FAF01B86B2002524680EB1A7
:10BC5000002CDBD15846C4E72E2E2F4D6964646C4E
:10BC60006577617265732F54686972645F506172A1
:10BC700074792F4C7749502F7372632F636F7265FD
:10BC80002F706275662E6300706275665F636F70F9
:10BC9000795F7061727469616C3A20696E76616C6B
:10BCA0006964206275660000417373657274696F20
:10BCB0006E2022257322206661696C6564206174A0
:10BCC000206C696E6520256420696E2025730A004A
:10BCD000706275665F636F70795F706172746961BD
:10BCE0006C3A20696E76616C69642064617461707D
:10BCF000747200002DE9F0470446002C0ED100BFFD
:10BD000044B900BF35A34FF4377240A142A0FAF7FF
:10BD100063FD00BF00BF0020BDE8F087002658E0AB
:10BD200000BFA07B002808DC00BF2CA340F2F1225A
:10BD300043A139A0FAF750FD00BF00BFA07B401E11
:10BD400000F0FF0884F80E80B8F1000F3FD127689B
:10BD5000207B00F00F05607B00F00200002814D06B
:10BD6000A14600BFD9F81000002808D100BF1BA3CE
:10BD700040F2FF2238A128A0FAF72EFD00BF00BF35
:10BD80002046D9F8101088471DE0022D04D1214625
:10BD90000820FEF70BFD16E0012D04D121460720F7
:10BDA000FEF704FD0FE01DB92046FEF74FF90AE04B
:10BDB00000BF00BF09A340F20F3230A116A0FAF76E
:10BDC0000BFD00BF00BF701CC6B23C4600E0002463
:10BDD00000BF002CA4D130469EE700002E2E2F4D30
:10BDE0006964646C6577617265732F546869726405
:10BDF0005F50617274792F4C7749502F7372632FA3
:10BE0000636F72652F706275662E63007020213D2E
:10BE1000204E554C4C000000417373657274696F7D
:10BE20006E2022257322206661696C65642061742E
:10BE3000206C696E6520256420696E2025730A00D8
:10BE4000706275665F667265653A20702D3E726538
:10BE500066203E203000000070632D3E63757374D1
:10BE60006F6D5F667265655F66756E6374696F6E30
:10BE700020213D204E554C4C00000000696E76613B
:10BE80006C696420706275662074797065000000CA
:10BE900070B50446254629460548FEF7DFFC0548EF
:10BEA0000078012802D100200249087070BD00000E
:10BEB0005C5001080400002410B500BF00200849B0
:10BEC000087000BF0748046806E0606F18B120469C
:10BED00002F0A8F810BDE468002CF6D100BFF9E725
:10BEE000C1990024D499002470B504460D4601225E
:10BEF0002946204600F001F870BD70B505460C4695
:10BF00001646002C04DA6142284600F021F970BD83
:10BF1000324621462846FFF7D7F9F8E770B5DDE944
:10BF20000445002606604160028143810473457325
:10BF3000012686730026C67370BD000000BF012075
:10BF40000149087000BF7047C19900242DE9F041F4
:10BF500006460F4600BF002E08D100BF2CA34FF4A9
:10BF6000CC7237A13CA0FAF737FC00BF00BF308984
:10BF7000B84201DCBDE8F0813089C01B1FFA80F8AF
:10BF80003D46344613E06089281A85B22089A0EB2B
:10BF900008002081246800BF44B900BF1CA340F200
:10BFA000AF1237A12CA0FAF717FC00BF00BF6089C1
:10BFB000A842E8DB207B00F00F0000281BD160893D
:10BFC000A84218D0607B00F00200002813D1A0889E
:10BFD000001B284481B22046FEF7CEFA044600BF7B
:10BFE00044B900BF0AA340F2BD122BA11AA0FAF770
:10BFF000F3FB00BF00BF658160892081206810B11C
:10C000002068FFF777FE0020206000BFB2E7000045
:10C010002E2E2F4D6964646C6577617265732F54A1
:10C02000686972645F50617274792F4C7749502F40
:10C030007372632F636F72652F706275662E630073
:10C04000706275665F7265616C6C6F633A20702018
:10C05000213D204E554C4C00417373657274696FDD
:10C060006E2022257322206661696C6564206174EC
:10C07000206C696E6520256420696E2025730A0096
:10C08000706275665F7265616C6C6F633A207120D7
:10C09000213D204E554C4C006D656D5F7472696D8D
:10C0A0002072657475726E65642071203D3D204E6E
:10C0B000554C4C0010B50446002C12D000BFA07B9C
:10C0C000401CA07300BF00BFA07B002808DC00BF9D
:10C0D00004A340F242320FA113A0FAF77DFB00BF88
:10C0E00000BF10BD2E2E2F4D6964646C65776172A0
:10C0F00065732F54686972645F50617274792F4C54
:10C100007749502F7372632F636F72652F7062755A
:10C11000662E63007062756620726566206F7665B4
:10C1200072666C6F77000000417373657274696F9B
:10C130006E2022257322206661696C65642061741B
:10C14000206C696E6520256420696E2025730A00C5
:10C150002DE9F04104460D4600BF44B900BF18A3C5
:10C1600040F24B2222A125A0FAF736FB00BF00BF08
:10C1700014B1B5F5803F02D30120BDE8F0810DB9BF
:10C180000020FAE7AEB200BF6089B0420ADA00BF11
:10C190000BA340F2552223A118A0FAF71DFB00BF04
:10C1A0000120EAE700BF6768606828446060608932
:10C1B000801B60812089801B20810020DDE700003A
:10C1C0002E2E2F4D6964646C6577617265732F54F0
:10C1D000686972645F50617274792F4C7749502F8F
:10C1E0007372632F636F72652F706275662E6300C2
:10C1F0007020213D204E554C4C000000417373656A
:10C200007274696F6E2022257322206661696C65E5
:10C2100064206174206C696E6520256420696E203D
:10C2200025730A00696E6372656D656E745F6D617A
:10C23000676E6974756465203C3D20702D3E6C65A9
:10C240006E0000002DE9F047044688461646374642
:10C250004FF0000A00BF002C0CD100BF34A340F205
:10C26000B3423FA144A0FAF7B7FA00BF6FF00F0046
:10C27000BDE8F08700BF00BFB8F1000F0BD100BFD1
:10C280002BA340F2B44246A13BA0FAF7A5FA00BFA7
:10C290006FF00F00ECE700BF00BF2089B0420BDA5F
:10C2A00000BF23A340F2B54244A133A0FAF794FAA9
:10C2B00000BF4FF0FF30DBE700BF2CB1B8F1000F3B
:10C2C00002D02089B04202DA6FF00F00D0E7254695
:10C2D0001BE000BF45B900BF15A340F2BD423FA11E
:10C2E00025A0FAF779FA00BF00BFB946688948452A
:10C2F00001D2B5F80A9008EB0A014A466868F4F7DB
:10C300002DF8A7EB0907CA442D68002FE1D100BF23
:10C310000FB9B24508D000BF05A34FF4996235A10B
:10C3200015A0FAF759FA00BF00BF0020A0E70000EF
:10C330002E2E2F4D6964646C6577617265732F547E
:10C34000686972645F50617274792F4C7749502F1D
:10C350007372632F636F72652F706275662E630050
:10C36000706275665F74616B653A20696E76616CA8
:10C370006964206275660000417373657274696F49
:10C380006E2022257322206661696C6564206174C9
:10C39000206C696E6520256420696E2025730A0073
:10C3A000706275665F74616B653A20696E76616C68
:10C3B00069642064617461707472000070627566F3
:10C3C0005F74616B653A20627566206E6F74206CD5
:10C3D0006172676520656E6F75676800706275666B
:10C3E0005F74616B653A20696E76616C6964207078
:10C3F00062756600646964206E6F7420636F707983
:10C4000020616C6C20646174610000002DE9F041D2
:10C41000044600BF3B480068844208D200BF3AA3EC
:10C4200040F2DF1244A14AA0FAF7D6F900BF00BFDC
:10C4300000BF51480068844208D300BF32A34FF4C4
:10C44000F0724EA142A0FAF7C7F900BF00BF00BFCB
:10C450002079002808D000BF2BA340F2E1124EA1A2
:10C460003BA0FAF7B9F900BF00BF00BF2088B0F5C4
:10C470007A5F08D900BF24A34FF4F2724DA134A013
:10C48000FAF7AAF900BF00BF208800F0ABF8054614
:10C49000AC4219D02879B8B937480068854213D022
:10C4A0004F480068A84201D14D4804602888208088
:10C4B0002888B0F57A5F07D02046FEF755F8074682
:10C4C000288800F08FF84780608800F08BF80646D7
:10C4D000A64215D0307998B941480068A04201D1F0
:10C4E0003F480660208830802088B0F57A5F07D00A
:10C4F0003046FEF739F80746208800F073F8478089
:10C50000BDE8F081889900242E2E2F4D6964646C5B
:10C510006577617265732F54686972645F506172E8
:10C5200074792F4C7749502F7372632F636F726544
:10C530002F6D656D2E630000706C75675F686F6CA2
:10C5400065733A206D656D203E3D2072616D00007F
:10C55000417373657274696F6E20222573222066A1
:10C5600061696C6564206174206C696E6520256466
:10C5700020696E2025730A008C990024706C756701
:10C580005F686F6C65733A206D656D203C20726149
:10C590006D5F656E64000000706C75675F686F6C3E
:10C5A00065733A206D656D2D3E75736564203D3D64
:10C5B00020300000706C75675F686F6C65733A209F
:10C5C0006D656D2D3E6E657874203C3D204D454D6A
:10C5D0005F53495A455F414C49474E45440000006E
:10C5E0009099002401460248006808447047000002
:10C5F0008899002410B502463F48407F00F0200093
:10C6000028B13D48407F20F020003B4B5877002068
:10C6100015E03A4BDB68C400E340DCB2364B9B1DAF
:10C620001C54364B9B68C400E340DCB2324B0A33E7
:10C630001C54334B5B681B5C2F4C2354401C042858
:10C64000E7DB2F48406800792B4B18712C48406875
:10C650004079587118464183284B5B6843612748ED
:10C6600000790006254B9B881B0A40EA0340234BB8
:10C670005B681B0C40EA0320104303061F48007947
:10C6800000061E4CA488240A40EA04401B4C64683F
:10C69000240C40EA0420D4B2204300F47F4043EA53
:10C6A0000023164800790006144CA488240A40EAA6
:10C6B000044412484068C0F3074044EA0020D4B262
:10C6C000204300F47F0043EA10230C48007904065D
:10C6D0000A488088C0F3072044EA004407484068BD
:10C6E000C0F3074044EA0020D4B2204343EA10607C
:10C6F000014B186110BD00004099002434EB002468
:10C700002CEA00242DE9F04100F02EF8074600BF86
:10C7100000BF1248007808B1FFF7CEFB00BF1048F9
:10C7200004680CB9BDE8F0816068381AB0F1004FB8
:10C7300001D3012000E0002000B1F3E708492068A0
:10C740000860A568E6680749606808602146062019
:10C75000FEF72CF80DB13046A847D9E7C19900245F
:10C760000C9A0024109A002410B5F5F7F7FF10BDBD
:10C770002DE9F04104460E46174600BFB4F1804F44
:10C7800008D300BF09A340F2291215A122A0FAF78D
:10C7900023F800BF00BFFFF7E7FF05193A4631460F
:10C7A000284600F04DF8BDE8F08100002E2E2F4DF8
:10C7B0006964646C6577617265732F54686972642B
:10C7C0005F50617274792F4C7749502F7372632FC9
:10C7D000636F72652F74696D656F7574732E630076
:10C7E00054696D656F75742074696D6520746F6F21
:10C7F000206C6F6E672C206D6178206973204C5718
:10C8000049505F55494E5433325F4D41582F3420C3
:10C810006D73656373000000417373657274696FB3
:10C820006E2022257322206661696C656420617424
:10C83000206C696E6520256420696E2025730A00CE
:10C840002DE9F04106460F4690460620FEF77CF89B
:10C850000446002C0CD100BF07D100BF20A3BE228C
:10C860002CA13CA0F9F7B8FF00BF00BFBDE8F081E4
:10C8700000202060A760C4F80C8066603F48006814
:10C8800010B93E480460F1E73C49606809684968AE
:10C89000401AB0F1004F01D3012000E0002028B180
:10C8A0003648006820603548046017E03348056862
:10C8B00011E0286850B1606829684968401AB0F1F1
:10C8C000004F01D3012000E0002018B1286820604B
:10C8D0002C6002E02D68002DEBD100BF00BFC5E742
:10C8E0002E2E2F4D6964646C6577617265732F54C9
:10C8F000686972645F50617274792F4C7749502F68
:10C900007372632F636F72652F74696D656F7574D1
:10C91000732E63007379735F74696D656F75743A14
:10C920002074696D656F757420213D204E554C4C07
:10C930002C20706F6F6C204D454D505F5359535FE5
:10C9400054494D454F555420697320656D70747975
:10C9500000000000417373657274696F6E202225B8
:10C960007322206661696C6564206174206C696E55
:10C970006520256420696E2025730A000C9A002426
:10C9800010B5012408E0064901EBC40251F8340057
:10C990000449FFF7EDFE641C032CF4D310BD000026
:10C9A0008C510108219B00082DE9FF5F04460E46CB
:10C9B00000BF002C0AD100BF42A340F23D224DA18E
:10C9C00053A0F9F709FF00BFBDE8FF9F00BF00BFFC
:10C9D000207D012808D100BF3AA34FF4107256A160
:10C9E0004BA0F9F7F9FE00BF00BF207D0A2807D150
:10C9F00021465E4803F01CFC204601F0CDF95FE0C3
:10CA00004FF0000AD346276DD4F82480D4F8905014
:10CA1000D4F81090207DE8B9E08A38B300BF5448BC
:10CA20000068A04205D152480068C06850490860BB
:10CA30000DE04F49086806E0C168A14202D1E168F3
:10CA4000C16002E0C0680028F6D100BF00BF00202E
:10CA5000E0600BE0B246B4F816B000BF214645488E
:10CA600003F0E6FB01204449087000BF206F10B1BD
:10CA7000206F05F0A2FCE06E10B1E06E05F09DFCA9
:10CA8000606F10B1606F05F098FCBAF1000F0AD02A
:10CA9000208B211D23464246CDE9001B02903946DA
:10CAA000204605F08FFB207D0390204601F074F9AD
:10CAB00000BF1DB16FF00C014846A84700BF00BF82
:10CAC00000BF81E72E2E2F4D6964646C657761721B
:10CAD00065732F54686972645F50617274792F4C6A
:10CAE0007749502F7372632F636F72652F74637071
:10CAF0002E6300007463705F6162616E646F6E3AF2
:10CB000020696E76616C69642070636200000000C9
:10CB1000417373657274696F6E20222573222066DB
:10CB200061696C6564206174206C696E65202564A0
:10CB300020696E2025730A00646F6E27742063617C
:10CB40006C6C207463705F61626F72742F746370B9
:10CB50005F6162616E646F6E20666F72206C6973D4
:10CB600074656E2D7063627300000000D899002414
:10CB7000CC990024D4990024DC99002410B50446F3
:10CB800001212046FFF710FF10BD28B1027D012AC8
:10CB900002D10246916100BF7047000070B50546A2
:10CBA0000C46164600BF002C08D100BF07A340F278
:10CBB0000F3212A119A0F9F70FFE00BF00BF2046E7
:10CBC000FFF7DCFF6FF00C0070BD00002E2E2F4D24
:10CBD0006964646C6577617265732F546869726407
:10CBE0005F50617274792F4C7749502F7372632FA5
:10CBF000636F72652F7463702E6300007463705FDF
:10CC00006163636570745F6E756C6C3A20696E76F3
:10CC1000616C696420706362000000004173736599
:10CC20007274696F6E2022257322206661696C65BB
:10CC300064206174206C696E6520256420696E2013
:10CC400025730A0070B505460120FDF77DFE0446F8
:10CC50001CBB01F015FA01F0C3FF0120FDF774FEC3
:10CC60000446CCB9092001F053FF0120FDF76CFE0A
:10CC7000044684B9082001F04BFF0120FDF764FE53
:10CC800004463CB9284601F00FFF0120FDF75CFE89
:10CC9000044600BF00BF00BF00BF4CB39C2120462C
:10CCA000F3F783FB0C34657240F66830A4F8580043
:10CCB0004000E083A083FF2004F8010C4FF40670CD
:10CCC000E0840620A0866086C01FA0840120A08783
:10CCD00008480068606108480078A07440F6683031
:10CCE000E0870648A06742F21070C4F888000C3C48
:10CCF000204670BDC8990024DE990024891A0108D5
:10CD000000B10161704700002DE9F04705460C466F
:10CD100017464FF0040904B92E4C00BF002D0CD16A
:10CD200000BF2DA340F2A92237A13DA0F9F754FD81
:10CD300000BF6FF00F00BDE8F08700BF00BF287D87
:10CD400000280BD000BF24A340F2AB223EA134A0A8
:10CD5000F9F742FD00BF6FF00500ECE700BF37B9FF
:10CD600002F040FA07460FBB6FF00100E3E74FF017
:10CD7000000819E03E4850F82800066810E0F08AE4
:10CD8000B8420CD146B1306830B12CB1206818B12E
:10CD900030682168884202D16FF00700CBE7F6685F
:10CDA000002EECD108F10108C845E3DB34B120685E
:10CDB00020B10CB9002000E020682860EF8200BF9D
:10CDC0002C480068E8602B48056006F091FA00BF27
:10CDD0000020B0E7A85101082E2E2F4D6964646C25
:10CDE0006577617265732F54686972645F50617210
:10CDF00074792F4C7749502F7372632F636F72656C
:10CE00002F7463702E6300007463705F62696E64D8
:10CE10003A20696E76616C6964207063620000007C
:10CE2000417373657274696F6E20222573222066C8
:10CE300061696C6564206174206C696E652025648D
:10CE400020696E2025730A007463705F62696E64E6
:10CE50003A2063616E206F6E6C792062696E642087
:10CE6000696E20737461746520434C4F53454400D0
:10CE70007C510108CC99002470B505460C46284623
:10CE8000FFF77CFE00212846FFF73AFF00212846E5
:10CE900004F0A4FD0021284605F0ACFB0021284643
:10CEA00000F0D6FE00221146284603F0ADFA94F8B1
:10CEB000250020F0200084F8250070BD70B50546DF
:10CEC0000C462846FFF75AFE00212846FFF718FFB8
:10CED0000021284604F082FD0021284605F08AFB47
:10CEE0000021284600F0B4FE00221146284603F037
:10CEF0008BFA607F20F02000607770BD70B504462B
:10CF00000D4602A0F9F768FC70BD0000B4EDCEF349
:10CF1000A3ACD6D8D0C2B3F5CABCBBAFBFCDBBA7FC
:10CF2000B6CB200D0A0000002DE9F04780460F46E1
:10CF300015469946444847634446002D65D02989E3
:10CF4000384604F003FE0020608629893FA0F9F7E7
:10CF500043FC2E4624E06889618E40F2DC52511A6F
:10CF600088420FDDB4F832C0E36A03EB0C0063467D
:10CF70009446ACEB03027168F3F7F0F940F2DC5031
:10CF800060860FE0B4F832C0E36A03EB0C007289EC
:10CF90007168F3F7E3F9608E71890844608636683A
:10CFA000002ED8D100BF608E2E49096843F6982222
:10CFB000511A88420FD92B48006813461A1A2A487A
:10CFC000E16A0068F3F7CAF9284827490860002099
:10CFD0002449086011E0608E22490968084421490B
:10CFE0000860628E2048E16A0068F3F7B7F91E48CE
:10CFF0000068618E08441C490860618E1CA0F9F726
:10D00000EBFB2846FEF776FE1BE0B9F1000F18D1C6
:10D010001CA0F9F7E1FB94F8250020F0200084F82B
:10D02000250000213846FFF76BFE002211463846E6
:10D0300003F0EAF90021384605F0DCFA384600F042
:10D0400051F80020BDE8F087AC520024702D3E74EA
:10D050006F746F6C206C656E2069732025640D0AF7
:10D0600000000000EC460024F0460024540C00248C
:10D070007074722D3E7263766C656E206973202524
:10D08000640D0A005365727665722072657175656C
:10D09000737420646973636F6E6E65637465642175
:10D0A0000D0A00002DE9F04104460F4615462946B9
:10D0B00003A0F9F791FB264600207086BDE8F081B9
:10D0C00073656E6420636F6D6D706C6574652C7331
:10D0D000656E64206C656E20697320256420210DC7
:10D0E0000A00000010B5044600BF002C0BD100BFA1
:10D0F0000CA34FF4F47217A11CA0F9F76DFB00BF4D
:10D100006FF00F0010BD00BF207D012805D000BFCB
:10D11000608B40F01000608300BF0121204600F0CA
:10D1200039F8EFE72E2E2F4D6964646C65776172D4
:10D1300065732F54686972645F50617274792F4C03
:10D140007749502F7372632F636F72652F7463700A
:10D150002E6300007463705F636C6F73653A2069BF
:10D160006E76616C69642070636200004173736560
:10D170007274696F6E2022257322206661696C6566
:10D1800064206174206C696E6520256420696E20BE
:10D1900025730A003EB504460D4600BF002C08D199
:10D1A00000BF55A34FF4AF725FA167A0F9F714FB5E
:10D1B00000BF00BF002D57D0207D042802D0207D65
:10D1C000072851D1A06F20B9208D41F2D06188424B
:10D1D0004AD000BFA07E00F0100040B900BF46A3B7
:10D1E0004FF4B27262A158A0F9F7F6FA00BF00BF7F
:10D1F000208BE18A221DCDE90021029023462046A2
:10D20000626A216D04F0DEFF204602F0A3FF00BF3A
:10D2100000BF5E480068A04205D15C480068C06855
:10D220005A4908600DE05949086806E0C168A14202
:10D2300002D1E168C16002E0C0680028F6D100BFF9
:10D2400000BF0020E06000BF01205149087000BF0E
:10D2500050480068A04202D106F01AF902E02046C8
:10D2600000F09AFD00203EBD207D20B1012824D091
:10D2700002283AD12CE0E08AD8B100BF46480068C5
:10D28000A04205D144480068C068434908600DE0E9
:10D290004149086806E0C168A14202D1E168C16065
:10D2A00002E0C0680028F6D100BF00BF0020E060A7
:10D2B00000BF204600F070FD1BE0204601F0AEFCF0
:10D2C0002146364802F0B4FF204600F05DFE10E033
:10D2D00000BF21462D4802F0ABFF01202C49087009
:10D2E00000BF204600F058FD03E0204600F058F84B
:10D2F000B9E700BF0020B6E72E2E2F4D6964646C9D
:10D300006577617265732F54686972645F506172EA
:10D3100074792F4C7749502F7372632F636F726546
:10D320002F7463702E6300007463705F636C6F739F
:10D33000655F73687574646F776E3A20696E7661A5
:10D340006C69642070636200417373657274696F05
:10D350006E2022257322206661696C6564206174E9
:10D36000206C696E6520256420696E2025730A0093
:10D370007063622D3E666C61677320262054465FA1
:10D380005258434C4F53454400000000D4990024A8
:10D39000DC990024089A0024CC990024D099002418
:10D3A00070B5054600BF45B900BF1EA34FF4CE724D
:10D3B00028A12BA0F9F710FA00BF00BF287D032891
:10D3C00004D004280AD0072818D10FE0284605F019
:10D3D000A1F804460CB90520287511E0284605F08F
:10D3E00099F804460CB90520287509E0284605F08F
:10D3F00091F804460CB90920287501E0002070BDA1
:10D4000000BF1CB9284602F00FF809E0601C38B9CB
:10D4100000BF688B40F00800688300BF0020EEE783
:10D420002046ECE72E2E2F4D6964646C657761729F
:10D4300065732F54686972645F50617274792F4C00
:10D440007749502F7372632F636F72652F74637007
:10D450002E63000070636220213D204E554C4C002D
:10D46000417373657274696F6E2022257322206682
:10D4700061696C6564206174206C696E6520256447
:10D4800020696E2025730A002DE9F05F04460E46E0
:10D4900091469A46002700BF002C0CD100BF5FA325
:10D4A00040F2354269A170A0F9F796F900BF6FF01C
:10D4B0000F00BDE8F09F00BF00BF002E0BD100BFE2
:10D4C00056A340F2364272A167A0F9F785F900BF72
:10D4D0006FF00F00EDE700BF00BF207D00280BD0EC
:10D4E00000BF4EA34FF4876270A15FA0F9F774F9F3
:10D4F00000BF6FF00900DCE700BF0EB9002000E0BC
:10D5000030686060A4F81890207A20B1207AFDF786
:10D510007BFC074603E0201DFBF740FD074617B9DB
:10D520006FF00300C5E70CB1206858B90FB1381D82
:10D5300000E00020014611B96FF00300B9E7086868
:10D54000206000BFB4F816B0E08A38B901F04AFE96
:10D55000E082E08A10B96FF00100AAE7204601F0EE
:10D5600075FE0546002060622565681E6064A06542
:10D57000E06541F2D06060852085606AE06241F23A
:10D58000D060A4F860004FF406706086608E221DA3
:10D59000394600F093F960860120A4F84800C4F8E9
:10D5A00088A00221204600F0F3F98046B8F1000F70
:10D5B00031D102202075BBF1000F1BD000BF4748BE
:10D5C0000068A04205D145480068C068434908602A
:10D5D0000DE04249086806E0C168A14202D1E16855
:10D5E000C16002E0C0680028F6D100BF00BF002083
:10D5F000E06000BF00BF00BF39480068E060384805
:10D60000046005F075FE00BF01203649087000BFB8
:10D61000204601F009FF40464BE700002E2E2F4D1B
:10D620006964646C6577617265732F5468697264AC
:10D630005F50617274792F4C7749502F7372632F4A
:10D64000636F72652F7463702E6300007463705F84
:10D65000636F6E6E6563743A20696E76616C69649F
:10D660002070636200000000417373657274696F1B
:10D670006E2022257322206661696C6564206174C6
:10D68000206C696E6520256420696E2025730A0070
:10D690007463705F636F6E6E6563743A20696E7653
:10D6A000616C696420697061646472007463705FA6
:10D6B000636F6E6E6563743A2063616E206F6E6C8B
:10D6C0007920636F6E6E6563742066726F6D207370
:10D6D0007461746520434C4F53454400CC99002439
:10D6E000D4990024DC9900242DE9F05F80460D4692
:10D6F00091469A460A9F00BFB8F1000F07D100BFBC
:10D7000040A3A3224CA154A0F9F766F800BF00BFC4
:10D7100000BF002D07D100BF3AA3A42258A14EA0FC
:10D72000F9F75AF800BF00BF07F0010008B1042064
:10D7300000E0002007F0020109B1002100E0002113
:10D74000084407F0080109B1002100E00021084465
:10D7500007F0100109B1002100E000214618032064
:10D76000FDF7F2F8041E05D12846FEF7C3FA0020A3
:10D77000BDE8F09FA77200202060656000BF288987
:10D78000B04207DA00BF1FA3B02246A132A0F9F7CA
:10D7900023F800BF00BF2889801B20811421284660
:10D7A000FDF788FD20B1204604F0FAFD0020DFE7F8
:10D7B00060684068E060B8F81600FCF7E6F9E168D8
:10D7C0000880B8F81800FCF7E0F9E1684880504696
:10D7D000FCF7CEF9E1684860B346F11706EB9171AA
:10D7E0008910491D4FF6FF7202EA013141EA090032
:10D7F000FCF7CBF9E16888810020E1684882204687
:10D80000B6E700002E2E2F4D6964646C6577617257
:10D8100065732F54686972645F50617274792F4C1C
:10D820007749502F7372632F636F72652F74637023
:10D830005F6F75742E6300007463705F637265615F
:10D8400074655F7365676D656E743A20696E7661A5
:10D850006C69642070636200417373657274696FF0
:10D860006E2022257322206661696C6564206174D4
:10D87000206C696E6520256420696E2025730A007E
:10D880007463705F6372656174655F7365676D650E
:10D890006E743A20696E76616C6964207062756698
:10D8A00000000000702D3E746F745F6C656E203E4A
:10D8B0003D206F70746C656E000000002DE9F04132
:10D8C00006460D46174600BF002F08D100BF10A323
:10D8D00040F6C5021AA124A0F8F77EFF00BF00BFE2
:10D8E00015B93046BDE8F081AC8C74B12820844273
:10D8F00002DD211A89B200E000218846464501DA9E
:10D90000314600E041460E4600BF3046EAE70000DF
:10D910002E2E2F4D6964646C6577617265732F5488
:10D92000686972645F50617274792F4C7749502F27
:10D930007372632F636F72652F7463702E630000C0
:10D940007463705F6566665F73656E645F6D737345
:10D950005F6E657469663A20696E76616C696420F1
:10D960006473745F69700000417373657274696FEA
:10D970006E2022257322206661696C6564206174C3
:10D98000206C696E6520256420696E2025730A006D
:10D990002DE9F84304460D460027B94600BF05F0BF
:10D9A000030040B900BF60A340F211426B496CA074
:10D9B000F8F712FF00BF00BF00BF002C08D100BF66
:10D9C00059A340F2134270A165A0F8F705FF00BF0C
:10D9D00000BF05F0020000B1012707F0010008B107
:10D9E000042000E0002007F0020109B1002100E05E
:10D9F0000021084407F0080109B1002100E00021DE
:10DA0000084407F0100109B1002100E0002100EBFB
:10DA100001094FF4207249463620FDF7C9FCB0F1E8
:10DA2000000809D100BF608B40F08000608300BF18
:10DA30004FF0FF30BDE8F88300BFB8F80A00484552
:10DA400008DA00BF38A340F2394257A144A0F8F7E2
:10DA5000C3FE00BF00BF00972A4641462046E36D43
:10DA6000FFF742FE061E07D100BF608B40F080002A
:10DA7000608300BF701EDDE700BF307B00F0030055
:10DA800040B100BF28A340F2424256A134A0F8F7AB
:10DA9000A3FE00BF00BF00BF308940B100BF22A37A
:10DAA00040F2434255A12EA0F8F796FE00BF00BFFA
:10DAB000E06E08B9E66607E0E06E00E00068016825
:10DAC0000029FBD1066000BF0020A4F8680005F023
:10DAD000020010B905F0010010B1E06D401CE065D6
:10DAE00005F0010028B100BF608B40F0200060838A
:10DAF00000BF7068FDF7E9FE34F8661F0844208017
:10DB000034F8660970B100BF206F50B9E06E40B9BB
:10DB100000BF05A340F2654243A111A0F8F75CFEE7
:10DB200000BF00BF002085E72E2E2F4D6964646C76
:10DB30006577617265732F54686972645F506172B2
:10DB400074792F4C7749502F7372632F636F72650E
:10DB50002F7463705F6F75742E6300006C52010840
:10DB6000417373657274696F6E202225732220667B
:10DB700061696C6564206174206C696E6520256440
:10DB800020696E2025730A007463705F656E71757D
:10DB90006575655F666C6167733A20696E76616C66
:10DBA00069642070636200007463705F656E7175F4
:10DBB0006575655F666C6167733A20636865636B62
:10DBC000207468617420666972737420706275666F
:10DBD0002063616E20686F6C64206F70746C656E7A
:10DBE000000000007365672D3E74637068647220E6
:10DBF0006E6F7420616C69676E6564007463705F3A
:10DC0000656E71756575655F666C6167733A2069ED
:10DC10006E76616C6964207365676D656E74206CE7
:10DC2000656E6774680000007463705F656E71757F
:10DC30006575655F666C6167733A20696E76616CC5
:10DC40006964207175657565206C656E6774680020
:10DC500070B504460D46002C0FD000BF207D012872
:10DC600008D100BF05A340F60D0210A119A0F8F7D6
:10DC7000B3FD00BF00BFC4F8905070BD2E2E2F4DD5
:10DC80006964646C6577617265732F546869726446
:10DC90005F50617274792F4C7749502F7372632FE4
:10DCA000636F72652F7463702E630000696E766116
:10DCB0006C696420736F636B657420737461746541
:10DCC00020666F72206572722063616C6C626163A2
:10DCD0006B000000417373657274696F6E202225BA
:10DCE0007322206661696C6564206174206C696EC2
:10DCF0006520256420696E2025730A0070B52348CD
:10DD00000078401C2149087000BF2148046839E0B0
:10DD1000A07F1E490978884233D01C480078A0773C
:10DD2000A07E00F0010078B100BF608B40F00200DF
:10DD3000608300BF204601F077FB00BF608B4FF689
:10DD4000FC710840608300BFA07E00F0080048B16D
:10DD500000BF608B4FF6F7710840608300BF20461C
:10DD6000FFF71EFBE568A06F48B100200949087065
:10DD7000204602F059FF0748007800B1C5E72C465D
:10DD800000E0E468002CC3D170BD0000DE990024DF
:10DD9000D4990024DC99002410B5044600BF207DEE
:10DDA000012807D100BF06A3D42211A115A0F8F7BE
:10DDB00013FD00BF00BF21460120FCF7F7FC10BD9A
:10DDC0002E2E2F4D6964646C6577617265732F54D4
:10DDD000686972645F50617274792F4C7749502F73
:10DDE0007372632F636F72652F7463702E6300000C
:10DDF0007463705F667265653A204C495354454EB2
:10DE000000000000417373657274696F6E202225F3
:10DE10007322206661696C6564206174206C696E90
:10DE20006520256420696E2025730A002DE9F047DE
:10DE300005460C469146984635E0264624687068AB
:10DE4000FDF743FD074600BFB5F86600B84208DAA3
:10DE500000BF22A340F257422DA137A0F8F7BCFC27
:10DE600000BF00BF35F8660FC01B288030893C49D1
:10DE7000098808443A490880304604F091FA35F898
:10DE8000660900280FD000BF002C0BD1B8F1000F9D
:10DE900008D100BF11A340F2614232A126A0F8F7D9
:10DEA0009BFC00BF00BFB4B1E1684868FBF760FEAF
:10DEB0008246E1688889FBF768FE00F0030008B13C
:10DEC000012000E000202189084450442D490968C0
:10DED000401A0028B1DD2046BDE8F0872E2E2F4DD8
:10DEE0006964646C6577617265732F5468697264E4
:10DEF0005F50617274792F4C7749502F7372632F82
:10DF0000636F72652F7463705F696E2E630000002B
:10DF10007063622D3E736E645F71756575656C65C7
:10DF20006E203E3D20706275665F636C656E286E84
:10DF30006578742D3E702900417373657274696F42
:10DF40006E2022257322206661696C6564206174ED
:10DF5000206C696E6520256420696E2025730A0097
:10DF6000FC9900247463705F726563656976653A35
:10DF70002076616C6964207175657565206C656ECD
:10DF800067746800F899002410B5044600BF207D2E
:10DF9000012807D100BF06A3DF2211A117A0F8F7BF
:10DFA0001BFC00BF00BF21460220FCF7FFFB10BD99
:10DFB0002E2E2F4D6964646C6577617265732F54E2
:10DFC000686972645F50617274792F4C7749502F81
:10DFD0007372632F636F72652F7463702E6300001A
:10DFE0007463705F667265655F6C697374656E3AC1
:10DFF00020214C495354454E000000004173736585
:10E000007274696F6E2022257322206661696C65C7
:10E0100064206174206C696E6520256420696E201F
:10E0200025730A0010B50446606F20B1606F04F0DC
:10E03000C4F90020606710BD0D4801880088401CAD
:10E040000B4A10800B48006818B10B4800888142C9
:10E0500005DA0A48006800F11402505C704706486F
:10E060000078081AC2B203480068805CF6E7000036
:10E07000F0990024EC990024EA990024E499002402
:10E0800070B50B48046810E0E568A07E00F0080059
:10E0900048B100BF608B4FF6F7710840608300BF46
:10E0A0002046FFF77DF92C4600BF002CECD170BD57
:10E0B000D499002410B5F2F73FF9C0F30D0000F534
:10E0C00040400149088010BDC49900242DE9FE4F4D
:10E0D00005468B4600BF002D07D100BFE2A3832277
:10E0E000EEA1F4A0F8F778FB00BF00BFFB49686819
:10E0F00008606889142800DAC9E3F94A1168506990
:10E10000FAF76EFA28B9F648007D00F0F000E02832
:10E1100000D1BCE3F14909688889FBF736FD00139B
:10E120008700142F02DB2889B84200DAAFE3A7F199
:10E130001400EC4908800020EB4908606889B84267
:10E1400008DBE8480088E949088039462846FDF799
:10E15000FFFF4AE000BF286838B900BFC2A3C2224F
:10E16000E3A1D4A0F8F738FB00BF00BF1421284674
:10E17000FDF7EEFF6889DD490880DA4800880988E4
:10E18000401A1FFA80FAD94801882846FDF7E0FFB7
:10E1900028684089504500DA79E328684068D24908
:10E1A000086051462868FDF7D3FF2889A0EB0A00D4
:10E1B000288100BF688938B100BFABA3DF22D0A19E
:10E1C000BCA0F8F709FB00BF00BF00BF2889296881
:10E1D0000989884207D000BFA3A3E022CBA1B5A044
:10E1E000F8F7FAFA00BF00BF00BFBC490968088809
:10E1F000FBF7CBFCB94909680880B8490968488829
:10E20000FBF7C3FCB54909684880B4490968486808
:10E21000FBF7AEFCB14909684860C4490860AF49E2
:10E2200009688868FBF7A4FCAC4909688860C049A4
:10E230000860AA490968C889FBF7A7FCA7490968CB
:10E24000C881A64909688889FBF79FFC00F03F0058
:10E25000B84908702889B8490880B648007800F0A5
:10E26000030040B108460088401C088028890988BE
:10E27000884200DD0BE34FF00009B048046873E00A
:10E2800000BF207D38B900BF77A3FB22ACA189A0D5
:10E29000F8F7A2FA00BF00BF00BF207D0A2807D10F
:10E2A00000BF71A3FC22B0A182A0F8F795FA00BFCD
:10E2B00000BF00BF207D012807D100BF6AA3FD2257
:10E2C000B4A17CA0F8F788FA00BF00BF207A50B153
:10E2D000217A8348406890F83000401CC0B28142E7
:10E2E00001D0A1463FE0208B7C490968098888421B
:10E2F00037D1E08A794909684988884231D178491B
:10E300006068096988422CD175492068496988424A
:10E3100027D100BFE068A04208D100BF52A340F25D
:10E320000D12A6A163A0F8F757FA00BF00BFB9F11C
:10E33000000F07D0E068C9F80C0080480068E06072
:10E340007E48046000BFE068A04208D100BF46A339
:10E3500040F21512A4A157A0F8F73EFA00BF00BF83
:10E3600004E0A14600BFE468002C89D100BF002C66
:10E3700078D1A848046839E000BF207D0A2808D079
:10E3800000BF39A340F21F12A3A14AA0F8F724FA54
:10E3900000BF00BF207A48B1217A5148406890F808
:10E3A0003000401CC0B2814200D01EE0208B4B499F
:10E3B00009680988884217D1E08A4849096849886C
:10E3C000884211D146496068096988420CD14449A4
:10E3D00020684969884207D1204604F0A5FF2846F5
:10E3E000FDF788FCBDE8FE8F00BFE468002CC3D1B8
:10E3F000A146954806681FE0307A50B1317A384816
:10E40000406890F83000401CC0B2814201D0B14653
:10E4100011E0F08A314909684988884209D13049B8
:10E4200030684969884200D108E00EB1306800B90F
:10E4300004E0B14600BFF668002EDDD100BF8EB10A
:10E44000B9F1000F07D0F068C9F80C007E480068E9
:10E45000F0607D480660304600F04AFC2846FDF733
:10E4600049FCBFE7F2E000002E2E2F4D6964646C7A
:10E470006577617265732F54686972645F50617269
:10E4800074792F4C7749502F7372632F636F7265C5
:10E490002F7463705F696E2E630000007463705F99
:10E4A000696E7075743A20696E76616C696420706B
:10E4B00062756600417373657274696F6E20222500
:10E4C0007322206661696C6564206174206C696EDA
:10E4D0006520256420696E2025730A00E4990024D4
:10E4E00028EC0024E8990024EC990024EA990024FF
:10E4F000702D3E6E65787420213D204E554C4C00A9
:10E50000702D3E6C656E203D3D203000702D3E74B8
:10E510006F745F6C656E203D3D20702D3E6E65789A
:10E52000742D3E746F745F6C656E0000F499002466
:10E53000F8990024009A0024FE990024D49900241C
:10E540007463705F696E7075743A20616374697684
:10E5500065207063622D3E737461746520213D20D7
:10E56000434C4F53454400007463705F696E70758F
:10E57000743A20616374697665207063622D3E731E
:10E580007461746520213D2054494D452D57414902
:10E59000540000007463705F696E7075743A206196
:10E5A0006374697665207063622D3E73746174656F
:10E5B00020213D204C495354454E00007463705F48
:10E5C000696E7075743A207063622D3E6E65787462
:10E5D00020213D2070636220286265666F7265208D
:10E5E00063616368652900007463705F696E7075AC
:10E5F000743A207063622D3E6E65787420213D2050
:10E600007063622028616674657220636163686567
:10E6100029000000D89900247463705F696E7075DA
:10E62000743A2054494D452D574149542070636236
:10E630002D3E7374617465203D3D2054494D452D38
:10E640005741495400000000D0990024002C73D099
:10E6500000209149086028890881084645608F4854
:10E660000068C86000208E4908608E4908708E4995
:10E6700008808E48007800F0080018B1687B40F0F0
:10E6800001006873A06F80B1204602F0CDFA0D3012
:10E6900028B1A06F48B186480088002805DD608D4C
:10E6A00010B9204603F096FEBDE082480460204683
:10E6B00001F018FF804608F10D00002816D07948B7
:10E6C000007800F0080090B100BFD4F8900028B1A5
:10E6D0006FF00D01D4F890202069904700BF2146CB
:10E6E000754801F0A5FD2046FFF756FB9AE04FF074
:10E6F00000086D480088002819DD6B48B0F800A0BC
:10E7000000BFD4F8800038B152462146D4F880309A
:10E7100020699847804601E04FF0000800BF08F1EB
:10E720000D0000B97FE000205F49088000BF20464F
:10E7300000F0D8F808B176E085E059480068A8B341
:10E7400000BFA06F50B100BFAFF2E4234FF4F372EB
:10E750005AA1AFF2A020F8F73FF800BF00BFA07E9B
:10E7600000F0100038B14E480068FDF7C3FA2046AB
:10E77000FEF704FA57E000BFD4F8840048B1002344
:10E780004749D4F884C020690A682146E04780469A
:10E7900007E00023424821460268184603F074F956
:10E7A000804600BF08F10D0008B93CE005E0B8F173
:10E7B000000F02D03A480068A0673A48007800F09D
:10E7C000200020B3A06F30B1A06F407B40F020004C
:10E7D000A16F48731BE0208D41F2D061884202D0C6
:10E7E000208D401C208500BFD4F8840040B1002358
:10E7F0001A462146D4F884C02069E047804601E0EB
:10E800004FF0000800BF08F10D0000B90BE0002038
:10E8100028490860204600F065F800B103E0204672
:10E8200000F002FE00BF0020224908601C49086079
:10E830001948406840B318494868FDF75BFA002062
:10E840001549486020E0154909688889FBF79DF95A
:10E8500000F00400A8B91148006800880F49096851
:10E8600049881D4ACDE9002102901C4800681049E2
:10E8700009884218184B1B1D19480168002003F035
:10E88000A1FC2846FDF736FA00BF00BFAAE52846DE
:10E89000FDF730FA00BFA5E5C0540124E499002437
:10E8A000049A0024019A0024FC990024009A002470
:10E8B000FE990024089A0024D49900247063622DE4
:10E8C0003E726566757365645F64617461203D3D89
:10E8D000204E554C4C00000038EC0024F4990024E4
:10E8E000F899002410B5044600BF002C08D100BFE1
:10E8F00013A340F25A221FA128A0F7F76DFF00BF13
:10E9000000BF3048007800F01000B8B1A07E00F0E1
:10E91000100050B900BFD4F8900028B16FF00E017C
:10E92000D4F890202069904700BF2146264801F086
:10E930007FFC2046FFF730FA012010BD0020FCE7E5
:10E940002E2E2F4D6964646C6577617265732F5448
:10E95000686972645F50617274792F4C7749502FE7
:10E960007372632F636F72652F7463705F696E2EAD
:10E97000630000007463705F696E7075745F646536
:10E980006C617965645F636C6F73653A20696E765C
:10E99000616C6964207063620000000041737365FC
:10E9A0007274696F6E2022257322206661696C651E
:10E9B00064206174206C696E6520256420696E2076
:10E9C00025730A00019A0024D49900242DE9F0410E
:10E9D0000446002600BF002C08D100BF14A340F657
:10E9E000240220A126A0F7F7F7FE00BF00BF216D8B
:10E9F000481EFBF7BDF880464346002231462046BC
:10EA000000F0C4FE05461DB94FF0FF30BDE8F081AF
:10EA1000334600222946204601F036F8231D2246BF
:10EA20002946204600F0B2FF07463846EEE70000D0
:10EA30002E2E2F4D6964646C6577617265732F5457
:10EA4000686972645F50617274792F4C7749502FF6
:10EA50007372632F636F72652F7463705F6F757469
:10EA60002E6300007463705F6B656570616C69761E
:10EA7000653A20696E76616C69642070636200009B
:10EA8000417373657274696F6E202225732220664C
:10EA900061696C6564206174206C696E6520256411
:10EAA00020696E2025730A002DE9F04107467F2F6B
:10EAB00001DD7F2000E0384606460EB9BDE8F08152
:10EAC000701EC6B24FF0000800250F48046813E01E
:10EAD000607DB04208DB607DB0420CD10B49206AFA
:10EAE0000968081A404506D30849206A0968A1EB5D
:10EAF00000082546667DE468002CE9D115B128465A
:10EB0000FEF73CF800BFD9E7D4990024C899002447
:10EB10002DE9F041054600BF082D0AD0092D08D087
:10EB200000BF13A340F2DD621DA121A0F7F754FE40
:10EB300000BF00BF00270026274804680EE0207DA4
:10EB4000A8420AD12549206A0968081AB84204D3A4
:10EB50002249206A09680F1A2646E468002CEED183
:10EB60001EB100213046FDF71FFFBDE8F081000017
:10EB70002E2E2F4D6964646C6577617265732F5416
:10EB8000686972645F50617274792F4C7749502FB5
:10EB90007372632F636F72652F7463702E6300004E
:10EBA000696E76616C69642073746174650000003D
:10EBB000417373657274696F6E202225732220661B
:10EBC00061696C6564206174206C696E65202564E0
:10EBD00020696E2025730A00D4990024C899002466
:10EBE00070B5002600250B4804680BE00A49206A2E
:10EBF0000968081AB04204D30749206A09680E1A46
:10EC00002546E468002CF1D115B12846FDF7B6FF82
:10EC100070BD0000D8990024C899002470B504463E
:10EC200000BF44B900BF12A340F211121CA11FA0E3
:10EC3000F7F7D2FD00BF00BF00BF207D012808D03C
:10EC400000BF0BA34FF4897222A118A0F7F7C4FDEF
:10EC500000BF00BF012507E0244951F825100868CE
:10EC6000214603F001F86D1C042DF5D370BD0000A2
:10EC70002E2E2F4D6964646C6577617265732F5415
:10EC8000686972645F50617274792F4C7749502FB4
:10EC90007372632F636F72652F7463702E6300004D
:10ECA00070636220213D204E554C4C0041737365CA
:10ECB0007274696F6E2022257322206661696C650B
:10ECC00064206174206C696E6520256420696E2063
:10ECD00025730A007063622D3E7374617465203D74
:10ECE0003D204C495354454E000000007C51010822
:10ECF0002DE9FE4305465448007800F0040008B1B1
:10ED0000BDE8FE8300BF002D08D100BF4FA340F235
:10ED100081225BA162A0F7F75FFD00BF00BF4A48F8
:10ED2000007800F01000B0B16748006800886649BC
:10ED300009684988654ACDE9002102906448006865
:10ED4000644909884218614B1B1D634801682846C5
:10ED500003F038FA75E03C48007800F00200002823
:10ED60006FD0687DFDF76EFF044674B900BFA869D7
:10ED700038B14FF0FF320021AB69286998478046CF
:10ED800001E06FF00F0800BFBAE750481038406943
:10ED900020604E48103800696060E88AE0824A4886
:10EDA0000068008820830320207549480068401CC3
:10EDB0006062606AE062204600F048FA0646A66596
:10EDC00026656664E66542480068401E60652869FD
:10EDD0002061E567687A00F00C006072287A207282
:10EDE00000BF00BF3D480068E0603C48046004F09C
:10EDF0007FFA00BF01203A49087000BF204601F0A9
:10EE000055F831480068C08924F8600F2088608078
:10EE1000603C201DFAF7C2F88046608E221D4146F4
:10EE2000FEF74CFD608612212046FEF7B1FD074635
:10EE300027B100212046FDF7B7FD61E7204600F02D
:10EE4000F3FA00BF5CE70000009A00242E2E2F4D3D
:10EE50006964646C6577617265732F546869726464
:10EE60005F50617274792F4C7749502F7372632F02
:10EE7000636F72652F7463705F696E2E63000000AC
:10EE80007463705F6C697374656E5F696E707574BE
:10EE90003A20696E76616C696420706362000000DC
:10EEA000417373657274696F6E2022257322206628
:10EEB00061696C6564206174206C696E65202564ED
:10EEC00020696E2025730A00E499002438EC0024A0
:10EED000F4990024FE990024F8990024D499002480
:10EEE000DC99002470B504460D46002229462046D0
:10EEF00000F002F870BD00002DE9F041044688469C
:10EF00001746002500BF002C0BD100BF38A340F2EC
:10EF1000593243A14EA0F7F75FFC00BF6FF00F0618
:10EF200060E000BF00BF207D00280BD000BF30A3F1
:10EF300040F25A3250A146A0F7F74EFC00BF6FF0E6
:10EF40000E064FE000BF207D012803D125466FF05B
:10EF5000080647E00220FBF7F7FC054615B94FF01D
:10EF6000FF363FE020692861E08AE88201202875A9
:10EF7000607D6875607A687200202872E07AE872B5
:10EF8000A07AA87220682860E08AD8B100BF4848FB
:10EF90000068A04205D146480068C068444908603E
:10EFA0000DE04349086806E0C168A14202D1E1686A
:10EFB000C16002E0C0680028F6D100BF00BF002099
:10EFC000E06000BF2046FEF7E7FE3A48A86100BFB8
:10EFD00039480068E8603848056004F089F900BFE6
:10EFE000002600BF07B13E702846BDE8F081000052
:10EFF0002E2E2F4D6964646C6577617265732F5492
:10F00000686972645F50617274792F4C7749502F30
:10F010007372632F636F72652F7463702E630000C9
:10F020007463705F6C697374656E5F776974685F31
:10F030006261636B6C6F675F616E645F6572723A89
:10F0400020696E76616C6964207063620000000064
:10F05000417373657274696F6E2022257322206676
:10F0600061696C6564206174206C696E652025643B
:10F0700020696E2025730A007463705F6C69737475
:10F08000656E5F776974685F6261636B6C6F675F01
:10F09000616E645F6572723A2070636220616C72A7
:10F0A0006561647920636F6E6E65637465640000EA
:10F0B000CC9900249DCB0008D099002470B5064659
:10F0C0000D46D6B13068C0B10C480168304600F03A
:10F0D0001BF80B480168304600F016F86DB128683F
:10F0E00058B10848046806E020683168884201D1B8
:10F0F00028682060E468002CF6D170BDD499002403
:10F10000CC990024D09900242DE9F04105460E4603
:10F11000344600BF002D08D100BF0CA34FF410628D
:10F1200016A123A0F7F758FB00BF00BF0AE0206834
:10F130002968884205D1E7682046FDF71FFD3C4657
:10F1400000E0E468002CF2D1BDE8F0812E2E2F4DB6
:10F150006964646C6577617265732F546869726461
:10F160005F50617274792F4C7749502F7372632FFF
:10F17000636F72652F7463702E6300007463705F39
:10F180006E657469665F69705F616464725F63680D
:10F19000616E6765645F7063626C6973743A20695D
:10F1A0006E76616C6964206F6C645F616464720088
:10F1B000417373657274696F6E2022257322206615
:10F1C00061696C6564206174206C696E65202564DA
:10F1D00020696E2025730A0010B54020FDF732FD2E
:10F1E00010BD000010B5002300BF16480088401C69
:10F1F000144C2080204600884FF6FF74A04203D1B3
:10F200004FF440400F4C2080002116E00E4850F88B
:10F21000210002680DE0D08A0A4C2488A04207D160
:10F22000581C83B2B3F5804F01DB002010BDDCE732
:10F23000D268002AEFD1481CC1B20429E6DB01489C
:10F240000088F3E7C49900247C51010810B50446F6
:10F2500000BF002C08D100BF09A340F6AF0214A1E3
:10F260001AA0F7F7B9FA00BF00BF22480068224988
:10F27000096808441F4908600846006810BD00007E
:10F280002E2E2F4D6964646C6577617265732F54FF
:10F29000686972645F50617274792F4C7749502F9E
:10F2A0007372632F636F72652F7463702E63000037
:10F2B0007463705F6E6578745F6973733A20696E0A
:10F2C00076616C696420706362000000417373654D
:10F2D0007274696F6E2022257322206661696C65E5
:10F2E00064206174206C696E6520256420696E203D
:10F2F00025730A00E0990024C899002470B50546DA
:10F300000C4600BF002D08D100BF25A340F21F42CC
:10F3100030A13AA0F7F760FA00BF00BFE96888891A
:10F32000FAF733FC00F0010020B1204603F045F865
:10F33000002433E013E0E1688889FAF726FC00F046
:10F34000010038B10120FAF720FCE96889890843F7
:10F35000E968888126462468304603F021F84CB1DC
:10F36000E06840682189084429892E4A12681144BE
:10F37000081AE0D594B128892A4909680844E16847
:10F380004968401A002809DDE06880882549098815
:10F39000401A288129896868FCF7D8FD2C6070BD67
:10F3A0002E2E2F4D6964646C6577617265732F54DE
:10F3B000686972645F50617274792F4C7749502F7D
:10F3C0007372632F636F72652F7463705F696E2E43
:10F3D000630000007463705F6F6F735F696E7365C5
:10F3E00072745F7365676D656E743A20696E7661DD
:10F3F0006C69642063736567000000004173736586
:10F400007274696F6E2022257322206661696C65B3
:10F4100064206174206C696E6520256420696E200B
:10F4200025730A00F49900242DE9F84F044600BF23
:10F43000002C08D100BFA7A340F2E142B2A1B8A0BE
:10F44000F7F7CAF900BF00BF00BF207D012808D12F
:10F4500000BFA0A340F2E342BBA1B1A0F7F7BCF903
:10F4600000BF00BFC2480068A04202D10020BDE832
:10F47000F88FB4F86000B4F84810884202DAB4F8A3
:10F48000600001E0B4F848008146E56E45B9A07E11
:10F4900000F0020018B1204602F09CFFE7E710E1FF
:10F4A000221D2146204602F07DFE074617B96FF067
:10F4B0000300DCE70CB1206858B90FB1381D00E03B
:10F4C0000020014611B96FF00300D0E70868206002
:10F4D00000BFE9684868FAF74BFB616C401A29895C
:10F4E0000844484519D9B4F8600048450CD1206F4C
:10F4F00050B994F8990038B9002004F8980F012009
:10F5000060700020A070983CA07E00F0020018B14E
:10F51000204602F05FFFAAE7D3E0002084F89900BC
:10F52000266F26B100E0366830680028FBD1B5E0D0
:10F5300000BFE9688889FAF728FB00F0040040B1B1
:10F5400000BF64A340F236528AA175A0F7F744F9D0
:10F5500000BF00BF206FA0B1A07E00F0440080B9C2
:10F56000E06E38B1E06E006858B9E06E0089618ED7
:10F57000884206DAB4F8640018B1B4F866000928C5
:10F5800001DB012000E0002020B9A07E00F0A000F7
:10F5900000B98FE0207D022807D01020FAF7F5FA95
:10F5A000E96889890843E96888813A4621462846FE
:10F5B00000F0FCFA0090009838B100BF608B40F07A
:10F5C0008000608300BF009851E72868E066207DD6
:10F5D000022806D000BF608B4FF6FC7108406083A4
:10F5E00000BFE9684868FAF7C3FA8046E968888985
:10F5F000FAF7CBFA00F0030008B1012000E0002088
:10F600002989084408EB000A206DB0EB0A0001D5F7
:10F61000C4F850A0E9688889FAF7B7FA00F0030047
:10F6200008B1012000E000202989084488B30020A7
:10F630002860206F10B925672E462EE0E9684868DB
:10F64000FAF796FA8046F1684868FAF791FAB8EB4B
:10F6500000001BD504F1700801E0D8F80080D8F84C
:10F66000000068B1D8F80010C9684868FAF780FA55
:10F670008346E9684868FAF77BFABBEB0000ECD4F4
:10F68000D8F800002860C8F8005006E035603668F9
:10F6900003E0FFE7284602F083FEE56E55B1E96816
:10F6A0004868FAF765FA616C401A298908444845A8
:10F6B0007FF63EAF00BFE06E10B90020A4F86800EE
:10F6C00000BF00BF608B4FF67F710840608300BFB2
:10F6D0000020CCE62E2E2F4D6964646C6577617234
:10F6E00065732F54686972645F50617274792F4C2E
:10F6F0007749502F7372632F636F72652F74637035
:10F700005F6F75742E6300007463705F6F75747043
:10F7100075743A20696E76616C696420706362006A
:10F72000417373657274696F6E202225732220669F
:10F7300061696C6564206174206C696E6520256464
:10F7400020696E2025730A00646F6E277420636140
:10F750006C6C207463705F6F757470757420666F65
:10F7600072206C697374656E2D70636273000000A3
:10F77000089A0024525354206E6F74206578706587
:10F780006374656420686572652100002DE9FF419E
:10F7900004460E461746984600BF002C08D100BF0D
:10F7A00010A340F242721CA125A0F7F715F800BF84
:10F7B00000BF608D1023218BE28ACDE901130092F6
:10F7C000039043463A463146606A00F04DF80546DC
:10F7D0001DB1618D606A0844E062284604B0BDE84E
:10F7E000F08100002E2E2F4D6964646C6577617284
:10F7F00065732F54686972645F50617274792F4C1D
:10F800007749502F7372632F636F72652F74637023
:10F810005F6F75742E6300007463705F6F75747032
:10F8200075745F616C6C6F635F6865616465723A83
:10F8300020696E76616C696420706362000000006C
:10F84000417373657274696F6E202225732220667E
:10F8500061696C6564206174206C696E6520256443
:10F8600020696E2025730A002DE9F05F82460D465F
:10F8700017469846DDF830B005F11400384481B2DF
:10F880004FF420722220FBF793FD0646002E34D061
:10F8900000BF718905F11400814208DA00BF18A386
:10F8A00040F2237223A12FA0F6F796FF00BF00BFFE
:10F8B00074680A98FAF769F920800B98FAF765F9E5
:10F8C0006080C4F804805046FAF752F9A060A94657
:10F8D000E91705EB91718910491D4FF6FF7202EA95
:10F8E000013141EA0B00FAF750F9A0810D98FAF7BF
:10F8F0004CF9E0810020208260823046BDE8F09F14
:10F900002E2E2F4D6964646C6577617265732F5478
:10F91000686972645F50617274792F4C7749502F17
:10F920007372632F636F72652F7463705F6F75748A
:10F930002E630000636865636B20746861742066E1
:10F940006972737420706275662063616E20686FDF
:10F950006C6420737472756374207463705F686480
:10F9600072000000417373657274696F6E20222506
:10F970007322206661696C6564206174206C696E15
:10F980006520256420696E2025730A002DE9FE4F4D
:10F9900004460E4692469B4600BF002E08D100BF8B
:10F9A00017A340F2877223A12DA0F6F715FF00BF21
:10F9B00000BF5A465146204602F0F4FB054615B9F1
:10F9C0006FF0030715E024B194F80B8094F80A90C7
:10F9D00003E04FF0FF084FF00009062043465A4667
:10F9E0005146CDE9009002953046F9F76FF8074689
:10F9F00000BF3046FCF77EF93846BDE8FE8F0000B8
:10FA00002E2E2F4D6964646C6577617265732F5477
:10FA1000686972645F50617274792F4C7749502F16
:10FA20007372632F636F72652F7463705F6F757489
:10FA30002E6300007463705F6F75747075745F631C
:10FA40006F6E74726F6C5F7365676D656E743A206C
:10FA5000696E76616C6964207062756600000000F2
:10FA6000417373657274696F6E202225732220665C
:10FA700061696C6564206174206C696E6520256421
:10FA800020696E2025730A002DE9F04781460D4656
:10FA900014469A464FF0000800BF002D08D100BF61
:10FAA0001CA340F2567228A131A0F6F795FE00BFC4
:10FAB00000BF6E6806F1140700BF384600EB8800EF
:10FAC00004F0010109B1042100E00021084404F020
:10FAD000020109B1002100E00021084404F00801FE
:10FAE00009B1002100E00021084404F0100109B12F
:10FAF000002100E000210844B84208D000BF05A35F
:10FB000040F2757224A11AA0F6F766FE00BF00BF8E
:10FB1000BDE8F0872E2E2F4D6964646C65776172A5
:10FB200065732F54686972645F50617274792F4CE9
:10FB30007749502F7372632F636F72652F746370F0
:10FB40005F6F75742E6300007463705F6F757470FF
:10FB500075745F66696C6C5F6F7074696F6E733A11
:10FB600020696E76616C69642070627566000000C1
:10FB7000417373657274696F6E202225732220664B
:10FB800061696C6564206174206C696E6520256410
:10FB900020696E2025730A006F7074696F6E732080
:10FBA0006E6F742066696C6C656400002DE9FE4F11
:10FBB00004460D46164600BF002C08D100BF58A3CE
:10FBC0004FF4B76263A16BA0F6F706FE00BF00BF5B
:10FBD00000BF002D08D100BF51A340F2B9526FA160
:10FBE00064A0F6F7F9FD00BF00BF00BF002E08D1EA
:10FBF00000BF4BA340F2BA5270A15EA0F6F7ECFD35
:10FC000000BF00BF204600F0F7F810B10020BDE8AB
:10FC1000FE8F686AF9F7ACFFE1688860688DF9F7D4
:10FC2000B4FFE168C881698D686A0844E862E068E9
:10FC300000F11407A07A00F0010068B12A1D3146D6
:10FC400040F2B450FDF73AFE82464AF00170F9F7EF
:10FC50008FFF38603F1D00BFB5F93000002801DA82
:10FC600000202886686B38B95D4800686863E168E1
:10FC70004868F9F77DFFA863A08961688988401A00
:10FC80001FFA80F860684089A0EB0800616848812D
:10FC900060680089A0EB0800616808816168E0681D
:10FCA00048600020E168088200BFE0681430A17A53
:10FCB00001F0010109B1042100E000210844A17A0A
:10FCC00001F0020109B1002100E000210844A17AFD
:10FCD00001F0080109B1002100E000210844A17AE7
:10FCE00001F0100109B1002100E000210844B842F0
:10FCF00008D000BF0AA340F21C623AA11DA0F6F78B
:10FD00006BFD00BF00BF0621A87A8DE84300EB7AA7
:10FD10002A1D29466068F8F7D9FE8146484676E7ED
:10FD20002E2E2F4D6964646C6577617265732F5454
:10FD3000686972645F50617274792F4C7749502FF3
:10FD40007372632F636F72652F7463705F6F757466
:10FD50002E6300007463705F6F75747075745F73E9
:10FD600065676D656E743A20696E76616C696420B2
:10FD700073656700417373657274696F6E20222525
:10FD80007322206661696C6564206174206C696E01
:10FD90006520256420696E2025730A007463705FF6
:10FDA0006F75747075745F7365676D656E743A20F6
:10FDB000696E76616C696420706362007463705F61
:10FDC0006F75747075745F7365676D656E743A20D6
:10FDD000696E76616C6964206E6574696600000006
:10FDE000C89900246F7074696F6E73206E6F7420F1
:10FDF00066696C6C6564000010B5044600BF002C99
:10FE000008D100BF08A340F29A5214A11DA0F6F732
:10FE1000E3FC00BF00BF6068807B012801D00120A7
:10FE200010BD0020FCE700002E2E2F4D6964646C8D
:10FE30006577617265732F54686972645F5061728F
:10FE400074792F4C7749502F7372632F636F7265EB
:10FE50002F7463705F6F75742E6300007463705F3E
:10FE60006F75747075745F7365676D656E745F62CE
:10FE70007573793A20696E76616C69642073656781
:10FE800000000000417373657274696F6E20222553
:10FE90007322206661696C6564206174206C696EF0
:10FEA0006520256420696E2025730A002DE9F04144
:10FEB000054600BF002D08D100BF28A340F27D7287
:10FEC00033A13AA0F6F788FC00BF00BF4148008884
:10FED000002841D000204049088037E0FEF7ACF808
:10FEE000074627B1012F04D0022F20D102E0BDE840
:10FEF000F08129E0FEF7A0F8042806D136480088F2
:10FF0000801C34490988884200DDF0E7FEF794F848
:10FF10000602FEF791F8064340F2B450864200DC38
:10FF200016B940F2B45000E0304668860CE0FEF7A7
:10FF300083F80446022C00DAD9E7A01E2649098876
:10FF400008442549088000BF00BF00BF2248008840
:10FF5000204909888842C1DB00BFC8E72E2E2F4DFB
:10FF60006964646C6577617265732F546869726443
:10FF70005F50617274792F4C7749502F7372632FE1
:10FF8000636F72652F7463705F696E2E630000008B
:10FF90007463705F70617273656F70743A20696E1C
:10FFA00076616C6964207063620000004173736560
:10FFB0007274696F6E2022257322206661696C65F8
:10FFC00064206174206C696E6520256420696E2050
:10FFD00025730A00E8990024F09900242DE9F84FD0
:10FFE00081460C4617469846DDE90BAB0A9E009405
:10FFF00000BFB8F1000F07D100BF29A3E82235A147
:020000040801F1
:100000003DA0F6F7E9FB00BF00BF00BF002E07D1FF
:1000100000BF23A3E92242A137A0F6F7DDFB00BF12
:1000200000BFBC421BDA0AF0020050B9B07E00F0FB
:100030004000A0B9BBF1000F03D0F06E08B9306FDB
:1000400068B104F2B75020F00300B84201D9384635
:1000500003E004F2B75020F0030080B200904FF4A8
:10006000207248460099FBF7A3F9054615B9002010
:10007000BDE8F88F00BF286840B100BF08A340F278
:100080000B122FA11CA0F6F7A7FB00BF00BF6889C9
:10009000001BA8F800002C816C812846E8E70000CE
:1000A0002E2E2F4D6964646C6577617265732F54D1
:1000B000686972645F50617274792F4C7749502F70
:1000C0007372632F636F72652F7463705F6F7574E3
:1000D0002E6300007463705F706275665F70726596
:1000E000616C6C6F633A20696E76616C6964206F35
:1000F00076657273697A6500417373657274696FAE
:100100006E2022257322206661696C65642061740B
:10011000206C696E6520256420696E2025730A00B5
:100120007463705F706275665F707265616C6C6F2E
:10013000633A20696E76616C6964207063620000C6
:100140006E65656420756E636861696E65642070B4
:100150006275660010B5044600BF002C09D100BFCF
:1001600016A340F6510221A127A0F6F735FB00BFE8
:1001700010BD00BF207DF8B1207D0A281CD0207D55
:10018000012819D0A06F20B1A06FFBF7B3FD0020AC
:10019000A067606F10B12046FDF744FF4FF0FF30BD
:1001A0002086E06E02F009F9206F02F006F90020C7
:1001B000E0662067A4F8680000BFD9E72E2E2F4D17
:1001C0006964646C6577617265732F5468697264E1
:1001D0005F50617274792F4C7749502F7372632F7F
:1001E000636F72652F7463702E6300007463705FB9
:1001F0007063625F70757267653A20696E76616CD4
:100200006964207063620000417373657274696F82
:100210006E2022257322206661696C6564206174FA
:10022000206C696E6520256420696E2025730A00A4
:1002300070B505460C4600BF002C08D100BF3AA39C
:1002400040F6830244A14BA0F6F7C6FA00BF00BFF8
:1002500000BF002D08D100BF33A340F684024FA198
:1002600044A0F6F7B9FA00BF00BF00BF2868A0425B
:1002700003D12868C06828600CE0286806E0C168DF
:10028000A14202D1E168C16002E0C0680028F6D155
:1002900000BF00BF0020E06000BF2046FFF75AFF0C
:1002A000207D0A280FD0207D01280CD0A07E00F0F0
:1002B000010040B100BF608B40F00200608300BFCE
:1002C0002046FFF7B1F8207D012826D000BFE06E60
:1002D00040B100BF14A340F6930238A125A0F6F761
:1002E0007BFA00BF00BF00BF206F40B100BF0EA36C
:1002F00040F6940237A11FA0F6F76EFA00BF00BFC8
:1003000000BF606F40B100BF07A340F6960238A15E
:1003100018A0F6F761FA00BF00BF00202075E08248
:1003200000BF00BF70BD00002E2E2F4D6964646CAD
:100330006577617265732F54686972645F5061728A
:1003400074792F4C7749502F7372632F636F7265E6
:100350002F7463702E6300007463705F7063625F5C
:1003600072656D6F76653A20696E76616C6964209E
:1003700070636200417373657274696F6E20222529
:100380007322206661696C6564206174206C696EFB
:100390006520256420696E2025730A007463705FF0
:1003A0007063625F72656D6F76653A20696E766123
:1003B0006C6964207063626C69737400756E736538
:1003C0006E74207365676D656E7473206C65616B08
:1003D000696E6700756E61636B6564207365676D38
:1003E000656E7473206C65616B696E670000000058
:1003F0006F6F736571207365676D656E7473206CC4
:1004000065616B696E67000070B504460E4615465F
:1004100000BF002C09D100BF0EA340F63D0219A178
:100420001EA0F6F7D9F900BF70BD00BF00BF207D48
:10043000012808D100BF07A340F63E0221A117A062
:10044000F6F7CAF900BF00BFC4F88C60657700BF3B
:10045000EAE700002E2E2F4D6964646C65776172A7
:1004600065732F54686972645F50617274792F4CA0
:100470007749502F7372632F636F72652F746370A7
:100480002E6300007463705F706F6C6C3A20696E4D
:1004900076616C696420706362000000417373656B
:1004A0007274696F6E2022257322206661696C6503
:1004B00064206174206C696E6520256420696E205B
:1004C00025730A00696E76616C696420736F636BD3
:1004D000657420737461746520666F7220706F6C30
:1004E0006C0000002DE9FE4304460027002600BFF3
:1004F000002C08D100BFE5A34FF44772F0A1F7A08C
:10050000F6F76AF900BF00BFFE48007800F004006B
:10051000002845D0207D022806D1FB49206D0968BE
:1005200088421BD1012719E0F849606A09688842AE
:1005300001D1012712E0F549606A0968081A0DD453
:10054000218D606A0844F1490968081A002805DC11
:1005500000BF608B40F00200608300BF002F1DD001
:1005600000BF207D40B900BFC8A34FF44E72E8A180
:10057000DAA0F6F731F900BF00BFED48007840F08F
:100580000800EB49087000BF608B4FF6FE71084011
:10059000608300BF6FF00D00BDE8FE830020FBE725
:1005A000D848007800F0020068B1207D02280AD007
:1005B000207D032807D000BF608B40F002006083DD
:1005C00000BF0020E8E7A07E00F0100010B9D94875
:1005D00000682062002084F89B0084F89A0020467E
:1005E000FFF764FC207D801E082875D2DFE800F04C
:1005F00004CDF4F3F2F1F0EFC248007800F01000FF
:1006000000286AD0BF48007800F002000028F8D027
:10061000606C401CBC49096888425ED1BB480068D8
:10062000401C6062606AE062B74800686064C2486B
:100630000068C089A4F86000B4F86000A4F8620003
:10064000B2480068401E606504202075201DF8F740
:10065000A5FC8046608E221D4146FDF72FF960867D
:10066000608E8100400041F21C12904202D9608EDF
:10067000400001E041F21C10814202D2608E8000F5
:100680000AE0608E400041F21C11884202D9608E5F
:10069000400001E041F21C10A4F8480000BFB4F88B
:1006A0006600002808DC00BF78A34FF45B72A3A1AA
:1006B0008AA0F6F791F800BF00BFB4F86600401EAC
:1006C000A4F86600256F95B9E56E00BF5DB900BF5F
:1006D0006EA34FF45D7201E08DE231E09DA17FA039
:1006E000F6F77AF800BF00BF2868E06601E02868E6
:1006F0002067284601F054FE206F18B94FF0FF30F4
:10070000208603E00020208684F8420000BFD4F851
:10071000880038B100222146D4F8883020699847F3
:10072000064600E0002600BF06F10D0010B96FF08C
:100730000C0031E700BF608B40F00200608323E0D3
:100740007048007800F01000F0B17B480068008825
:10075000794909684988844ACDE9002102906B48AB
:1007600000688249098842187F4B1B1D6648016852
:10077000204601F027FD94F84200062804DA002004
:100780002086204601F0D2FB36E25E48007800F079
:100790001000002876D0606C401C5B490968081A7C
:1007A00071D45949206D0968081A00286BDC0420AF
:1007B0002075E06F10B96FF0050623E000BFE06F11
:1007C000806978B900BF31A34FF46A7205E0FCE19B
:1007D000BCE107E17CE117E105E165A13FA0F5F788
:1007E000FBFF00BF00BF00BFE06F806938B1E16F61
:1007F000206900228B6921469847064601E06FF088
:100800000F0600BF46B106F10D0010B12046FCF7FF
:10081000B5F96FF00C00BFE6204600F0A1FA5C4885
:10082000008820B15A480088401E59490880608ECF
:100830008100400041F21C12904202D9608E4000BB
:1008400001E041F21C10814202D2608E80000AE079
:10085000608E400041F21C11884202D9608E400037
:1008600001E041F21C10A4F848003148007800F083
:10087000200048B100BF608B40F00200608300BFE1
:10088000072087E09FE087E0ABE000002E2E2F4D91
:100890006964646C6577617265732F54686972640A
:1008A0005F50617274792F4C7749502F7372632FA8
:1008B000636F72652F7463705F696E2E6300000052
:1008C0007463705F70726F636573733A20696E76DC
:1008D000616C69642070636200000000417373659D
:1008E0007274696F6E2022257322206661696C65BF
:1008F00064206174206C696E6520256420696E2017
:1009000025730A00009A0024F8990024F499002421
:100910007463705F696E7075743A207063622D3E07
:10092000737461746520213D20434C4F534544004E
:10093000019A0024C8990024E49900247063622D70
:100940003E736E645F71756575656C656E203E20E3
:10095000300000006E6F207365676D656E742074E3
:100960006F2066726565000038EC0024FE99002453
:100970007063622D3E6C697374656E65722D3E61A5
:10098000636365707420213D204E554C4C0000007F
:10099000FC990024207524E0994800680188984853
:1009A00000684088974ACDE9002002919648006887
:1009B000964909884218934B1B1D954801682046AB
:1009C00001F000FC0DE09348007800F0020040B117
:1009D000606A401E8C490968884202D1204601F0B5
:1009E0009DF909E100BF204600F0BAF98A48007875
:1009F00000F0200038B100BF608B40F0020060833F
:100A000000BF07202075F7E0204600F0A9F98248D2
:100A1000007800F02000E8B37E48007800F0100075
:100A2000C8B37B49206D0968884239D1E06E90BB1C
:100A300000BF608B40F00200608300BF2046FFF7DC
:100A400089FB00BF00BF75480068A04205D173480C
:100A50000068C068714908600DE07049086806E0E8
:100A6000C168A14202D1E168C16002E0C06800280B
:100A7000F6D100BF00BF0020E06000BF0120684940
:100A8000087000BF0A20207500BF66480068E0605B
:100A9000644801E00DE003E0046002F029FC16E088
:100AA00000BF608B40F00200608300BF082020750B
:100AB0000DE05848007800F0100040B15449206D16
:100AC0000968884203D1E06E08B90620207593E0DA
:100AD000204600F045F95048007800F02000A0B30F
:100AE00000BF608B40F00200608300BF2046FFF72C
:100AF00031FB00BF00BF49480068A04205D147480C
:100B00000068C068454908600DE04449086806E08F
:100B1000C168A14202D1E168C16002E0C06800285A
:100B2000F6D100BF00BF0020E06000BF01203C49BB
:100B3000087000BF0A20207500BF3A480068E060D6
:100B40003848046002F0D4FB00BF55E0204600F0B6
:100B500007F93048007800F01000A8B32C49206D48
:100B60000968884230D1E06E70BB2046FFF7F2FA88
:100B700000BF00BF29480068A04205D1274800688F
:100B8000C068264908600DE02449086806E0C1688D
:100B9000A14202D1E168C16002E0C0680028F6D13C
:100BA00000BF00BF0020E06000BF01201C490870AA
:100BB00000BF0A20207500BF1A480068E06019488D
:100BC000046002F095FB00BF16E0204600F0C8F874
:100BD0001048007800F0100060B10D49206D0968E0
:100BE000884207D1E06E28B90B48007840F0100029
:100BF0000949087000E000BF00BF0020CCE40000FD
:100C0000E499002438EC0024F4990024FE9900248F
:100C1000F8990024009A0024019A0024D499002411
:100C2000DC990024D89900242DE9F041044600BF46
:100C3000002C0CD100BF2AA340F2096234A13EA0CF
:100C4000F5F7CAFD00BF6FF00F00BDE8F08100BFEF
:100C5000A06F477BA66F0020A06700BFD4F8840078
:100C600040B1002332462146D4F884C02069E047D1
:100C7000054606E0002332462146184600F004FFF0
:100C8000054600BFFDB907F0200030B3208D41F2CA
:100C9000D061884202D0208D401C208500BFD4F84E
:100CA000840040B100231A462146D4F884C020694C
:100CB000E047054600E0002500BF05F10D0060B9E2
:100CC0006FF00C00C1E705F10D0010B96FF00C00DA
:100CD000BBE7A6676FF00400B7E70020B5E70000A8
:100CE0002E2E2F4D6964646C6577617265732F5485
:100CF000686972645F50617274792F4C7749502F24
:100D00007372632F636F72652F7463702E630000BC
:100D10007463705F70726F636573735F726566751D
:100D20007365645F646174613A20696E76616C69B1
:100D30006420706362000000417373657274696FB0
:100D40006E2022257322206661696C6564206174BF
:100D5000206C696E6520256420696E2025730A0069
:100D60002DE9F05F04464FF0000900BF002C08D1C8
:100D700000BFE5A340F27B42F0A1F7A0F5F72CFD00
:100D800000BF00BF00BF207D042808DA00BFDEA33B
:100D900040F27C42FAA1F0A0F5F71EFD00BF00BFB3
:100DA000FE48007800F01000002870D0B4F8600011
:100DB000A16D00EB0108FA49606D0968401A15D46D
:100DC000F749606D0968884204D1F649A06D096849
:100DD000401A0BD4F349A06D096888421AD1F24831
:100DE0000068C089B4F86010884213D9EE480068E2
:100DF000C08924F8600F608834F86019884203DAEB
:100E0000B4F86000A4F86200E54800686065E54851
:100E10000068A065E349606C0968081A00284ADC8C
:100E2000E248008890BBB4F86010A06D08444045CB
:100E30003AD1B4F93000002836DBDA49606C096831
:100E4000884231D14FF0010994F84300401CC0B2F0
:100E500094F84310884204DD94F84300401C84F861
:100E6000430094F84300032817DD00BFB4F848009E
:100E7000618E084480B2B4F84810884208DBB4F8A8
:100E80004800618E0844A4F8480005E00CE02AE11F
:100E90004FF6FF70A4F8480000BF94F84300032801
:100EA00002DB204600F0BCFFB9F1000F02D10020A8
:100EB00084F84300EBE0606C401CBA490968081AEA
:100EC0007ED4B849206D0968081A002878DCA07E15
:100ED00000F0040060B100BF608B4FF6FB7108406A
:100EE000608300BF48346088208000206084483CD4
:100EF00000202434A077608BB4F9181000EBE100D7
:100F000000B2A083208CA7490988081A85B2002066
:100F1000E077A4480068206214F8100C243C0428F0
:100F200065DBB4F84800B4F84A10884227DA628BCF
:100F300002F400620AB1012200E002221146628E30
:100F40004A4392B2AA4201DD2A4602E0628E4A4337
:100F500092B2104600BFB4F84820024492B2B4F8EE
:100F600048309A4205DBB4F848200244A4F84820EF
:100F700003E04FF6FF72A4F8482000BF37E000BF3F
:100F8000B4F86A00284480B2B4F86A10884205DBDD
:100F9000B4F86A002844A4F86A0003E04FF6FF7032
:100FA000A4F86A0000BFB4F86A00B4F84810884298
:100FB0001DDB4834608C2188401A6084483C00E086
:100FC00062E000BFB4F84800618E084480B2B4F813
:100FD0004810884206DBB4F84800618E0844A4F843
:100FE000480003E04FF6FF70A4F8480000BF70A26D
:100FF0002046D4E91B31FCF719FF20676EA220467A
:10100000D4E91B13FCF712FFE066206F18B94FF00C
:10101000FF30208601E00020208600202077E06E4F
:1010200010B90020A4F86800B4F864006449098885
:101030000844A4F86400608B00F4006018B3206FCB
:1010400088B9E06E40B1E16EC9684868F8F790FD74
:10105000E16C081A002816DC00BF608B4FF2FF71AC
:10106000084060830FE0216FC9684868F8F780FD89
:10107000E16C081A002806DC00BF608B4FF2FF719C
:101080000840608300BF02E0204601F0A3F9606BD6
:1010900048B34449A06B0968401A24D5A08E494939
:1010A0000988081A07B2B4F93C00A7EBE00007B2C0
:1010B000A08F384400B2A087002F01DA784207B22F
:1010C000B4F93E00A7EBA00007B2E08F384400B2AD
:1010D000E087E08FB4F93C1000EBE10000B2A4F827
:1010E0004000002060633148008800286CDD207DCE
:1010F000072869DA2A48616A0068401C081A7CD40B
:101100002748616A006860E02E2E2F4D6964646C88
:101110006577617265732F54686972645F5061729C
:1011200074792F4C7749502F7372632F636F7265F8
:101130002F7463705F696E2E630000007463705FCC
:10114000726563656976653A20696E76616C69647B
:101150002070636200000000417373657274696FF0
:101160006E2022257322206661696C65642061749B
:10117000206C696E6520256420696E2025730A0045
:101180007463705F726563656976653A2077726F24
:101190006E6720737461746500000000009A00247B
:1011A000F4990024F8990024E4990024FE9900247D
:1011B000756E61636B656400756E73656E740000B7
:1011C000FC990024C8990024D4E3F74A12881044FB
:1011D000401E081A00285FDCF4484668F449606A3B
:1011E0000968A0EB010A00BFF048406860B900BF81
:1011F000AFF2EC0340F2945200E04DE0EDA1AFF20B
:10120000A800F5F7E9FA00BF00BF00BF4FF6FF7076
:1012100082450AD300BFAFF2101340F29552E9A104
:10122000AFF2CC00F5F7D8FA00BF00BF1FFA8AF57D
:1012300000BFDE4840680089A8420ADA00BFAFF26A
:10124000381340F29752E3A1AFF2F400F5F7C4FA75
:1012500000BF00BFD5480089401BD449088108461B
:1012600040680089401B1FFA80FB07E07089281A3C
:1012700085B2A6F808B00020708136687089A8424F
:10128000F4DB29463046FAF763FFC949606A086013
:10129000C649C96848600AE0C549606A0968081A11
:1012A00005D500BF608B40F00200608300BFC049DD
:1012B000606A0968081A7DD4218D606A0844401E5E
:1012C000BB490968081A002874DCB949606A0968D2
:1012D000884270D1B549C9688889F8F756FC00F092
:1012E000030008B1012000E00020B049098908444A
:1012F000AD490880208D0988884256DAAB49C96813
:101300008889F8F742FC00F0010098B1A749C96844
:101310008889F8F73AFC00F03E052846F8F735FCD6
:10132000A249C96889894CF2FF02114008439F49CC
:10133000C9688881208D9D490881C9688889F8F726
:1013400024FC00F0020020B198480089401E974913
:101350000881964A11895068FAF7F8FD9349C968DF
:101360008889F8F712FC00F0030008B1012000E0C2
:1013700000208E49098908448B49088000BF218DCF
:10138000606A08448A490968874A12881144884279
:101390000AD000BFAFF2902340F2CB5291A1AFF23E
:1013A0004820F5F719FA00BF00BF606F002816D07B
:1013B0007E4901E0DAE2D3E1C9688889F8F7E5FB04
:1013C00000F0010060B107E0656F606F0068606762
:1013D000284600F0E5FF00BF606F0028F4D187E0E9
:1013E000656F2EE0E9688889F8F7CFFB00F001000F
:1013F00008B36E49C9688889F8F7C7FB00F0020096
:10140000C8B90120F8F7C1FB6849C9688989084350
:101410006649C96888816549C9688889F8F7B5FB54
:1014200000F0030008B1012000E000205F490989B5
:1014300008445D4908802E462D68304600F0B0FF14
:1014400000BF55B1E86840682989084458490968CF
:10145000554A12881144081AC4D5002D46D0544864
:101460000068514909880844E9684968401A002819
:101470003CDDE86880884E490988401A4B4908815C
:10148000C9688889F8F781FB00F0020020B147485D
:101490000089401E45490881444A11895068FAF77D
:1014A00055FD4249C9688889F8F76FFB00F00300D1
:1014B00008B1012000E000203C49098908443A496C
:1014C000088000BF3A48006809880844E96849680C
:1014D00088420AD000BFAFF2D03340F2FC524FA195
:1014E000AFF28C30F5F778F900BF00BF656700BF39
:1014F0002F4800682C4909880844606200BF208D8D
:101500002949098888420ADA00BFAFF2044340F251
:10151000076251A1AFF2C030F5F75EF900BF00BF1E
:10152000208D21490988401A2085204601F0BAFF04
:101530001E4840680089002806DD1C4840684E4966
:1015400008600020194948601849C9688889F8F777
:101550001CFB00F0010028B14848007840F0200052
:1015600046490870DAE0656F606FC06840681049EE
:101570000860E9688889F8F708FB00F0030008B103
:10158000012000E0002029890844616A0844606263
:1015900000BFE9688889F8F7F8FA00F0030008B19D
:1015A00001206EE06CE00000FE990024C05401248C
:1015B000F4990024696E7365672E7020213D204EDA
:1015C000554C4C00696E73616E65206F666673657D
:1015D000742100007062756620746F6F2073686FED
:1015E000727421007463705F726563656976653A31
:1015F000207365676D656E74206E6F7420747269F8
:101600006D6D656420636F72726563746C792074AC
:101610006F207263765F776E640A00007463705F98
:10162000726563656976653A207365676D656E748A
:10163000206E6F74207472696D6D656420636F72C3
:10164000726563746C7920746F206F6F736571209D
:1016500071756575650A00007463705F7265636516
:101660006976653A207463706C656E203E20726303
:10167000765F776E640A0000049A0024019A0024C1
:10168000002029890844218D88420AD900BFAFF281
:10169000885340F22B62C2A1AFF24450F5F79CF898
:1016A00000BF00BFE9688889F8F76FFA00F003000F
:1016B00008B1012000E0002029890844218D081A82
:1016C0002085204601F0EEFE6868008900280DDDC7
:1016D000BD48006828B1BC4869680068FAF742F85C
:1016E00002E0B9496868086000206860E968888994
:1016F000F8F74BFA00F0010050B1B448007840F020
:101700002000B2490870207D042801D107202075EF
:1017100028686067284600F043FE00BF606F30B164
:10172000606FC0684068616A88423FF41CAF00BFC8
:10173000A07E00F0010060B100BF608B4FF6FE712B
:101740000840608300BF00BF608B40F002006083F0
:1017500005E000BF608B40F00100608300BF1DE129
:10176000606F20B99A4800F0C1FD6067FAE000267A
:10177000656FF2E0E868406896490968884217D1C9
:10178000934800892989884211DD914800F0AEFD17
:101790008246BAF1000F09D016B1C6F800A001E0E8
:1017A000C4F874A029465046FDF7A8FDD8E0D7E05C
:1017B000A6B9E868406887490968081A0DD58448C1
:1017C00000F094FD8246BAF1000F05D0C4F874A071
:1017D00029465046FDF792FDC2E030E0F0684068CF
:1017E000401C7C490968081A28D4E8684068401EF3
:1017F00078490968081A002820DC754800F076FD51
:101800008246BAF1000F18D0F06840683189084468
:1018100070490968401A002809DDF06880886D4920
:101820000988081A308131897068FAF78FFBC6F889
:1018300000A029465046FDF761FD91E000BF2E460D
:10184000286800287DD1E868406862490968081A5C
:10185000002876DDE9688889F8F797F900F001003B
:1018600000B17DE05A4800F041FD2860286800285A
:1018700071D0E86840682989084456490968401AC7
:10188000002809DDE868808852490988081A2881FB
:1018900029896868FAF75AFB218D606A08444E4925
:1018A00009884C4A12681144081A002853DD296837
:1018B000C9688889F8F769F900F0010098B12968CA
:1018C000C9688889F8F761F900F03E0A5046F8F7D0
:1018D0005CF92968C96889894CF2FF021140084304
:1018E0002968C9688881A08C218D084439490988F4
:1018F000401A296808812A6811895068FAF726FB7E
:101900002968C9688889F8F740F900F0030008B130
:10191000012000E000202968098908442E49088038
:1019200000BF218D606A01442A4800682A4A128853
:10193000104481420ED000BFAFF634034FF4DF6293
:1019400001E009E007E0AFF26431AFF2F470F4F7C0
:1019500043FF00BF00BF03E02D68002D7FF40AAFF6
:1019600000BF00BF204600F035FD17E0204600F024
:1019700031FD13E01749606A0968081A08D4218DFF
:10198000606A0844401E13490968081A002805DDEA
:1019900000BF608B40F00200608300BFBDE8F09F95
:1019A0007463705F726563656976653A206F6F7303
:1019B0006571207463706C656E203E207263765F83
:1019C000776E640A00000000049A0024019A002443
:1019D000C0540124F4990024FE99002470B50446F3
:1019E0000D46002C0FD000BF207D012808D100BF7C
:1019F00005A340F2DF7210A119A0F4F7EDFE00BFBD
:101A000000BFC4F8845070BD2E2E2F4D6964646CE5
:101A10006577617265732F54686972645F50617293
:101A200074792F4C7749502F7372632F636F7265EF
:101A30002F7463702E630000696E76616C69642098
:101A4000736F636B657420737461746520666F7265
:101A500020726563762063616C6C6261636B000069
:101A6000417373657274696F6E202225732220663C
:101A700061696C6564206174206C696E6520256401
:101A800020696E2025730A002DE9F04107460D46B6
:101A900014461E4600BF002D0CD100BF0EA34FF40C
:101AA000D36219A11FA0F4F797FE00BF6FF00F00DB
:101AB000BDE8F08100BF3CB12189284600F046F81E
:101AC0002046FAF717F904E01EB92846FBF70AFB8F
:101AD000EEE70020ECE700002E2E2F4D6964646CC9
:101AE0006577617265732F54686972645F506172C3
:101AF00074792F4C7749502F7372632F636F72651F
:101B00002F7463702E6300007463705F7265637678
:101B10005F6E756C6C3A20696E76616C69642070DA
:101B200063620000417373657274696F6E202225D1
:101B30007322206661696C6564206174206C696E33
:101B40006520256420696E2025730A002DE9F04187
:101B500004460F4600BF002C0AD100BF1CA340F270
:101B6000CF3227A12CA0F4F737FE00BFBDE8F081EB
:101B700000BF00BF207D012808D100BF14A340F2A0
:101B8000D2322FA124A0F4F727FE00BF00BF208D82
:101B9000384485B241F2D060854202DC208DA842F3
:101BA00003DD41F2D060208500E02585204601F06C
:101BB00079FC0646B6F5067F08D300BF608B40F07F
:101BC0000200608300BF2046FDF72EFC00BFCDE77A
:101BD0002E2E2F4D6964646C6577617265732F5486
:101BE000686972645F50617274792F4C7749502F25
:101BF0007372632F636F72652F7463702E630000BE
