Component: ARM Compiler 5.06 update 7 (build 960) Tool: armlink [4d3601]

==============================================================================

Section Cross References

    startup_stm32h743xx.o(RESET) refers to startup_stm32h743xx.o(STACK) for __initial_sp
    startup_stm32h743xx.o(RESET) refers to startup_stm32h743xx.o(.text) for Reset_Handler
    startup_stm32h743xx.o(RESET) refers to stm32h7xx_it.o(i.NMI_Handler) for NMI_Handler
    startup_stm32h743xx.o(RESET) refers to stm32h7xx_it.o(i.HardFault_Handler) for HardFault_Handler
    startup_stm32h743xx.o(RESET) refers to stm32h7xx_it.o(i.MemManage_Handler) for MemManage_Handler
    startup_stm32h743xx.o(RESET) refers to stm32h7xx_it.o(i.BusFault_Handler) for BusFault_Handler
    startup_stm32h743xx.o(RESET) refers to stm32h7xx_it.o(i.UsageFault_Handler) for UsageFault_Handler
    startup_stm32h743xx.o(RESET) refers to stm32h7xx_it.o(i.SVC_Handler) for SVC_Handler
    startup_stm32h743xx.o(RESET) refers to stm32h7xx_it.o(i.DebugMon_Handler) for DebugMon_Handler
    startup_stm32h743xx.o(RESET) refers to stm32h7xx_it.o(i.PendSV_Handler) for PendSV_Handler
    startup_stm32h743xx.o(RESET) refers to stm32h7xx_it.o(i.SysTick_Handler) for SysTick_Handler
    startup_stm32h743xx.o(RESET) refers to stm32h7xx_it.o(i.USART1_IRQHandler) for USART1_IRQHandler
    startup_stm32h743xx.o(RESET) refers to lwip.o(i.ETH_IRQHandler) for ETH_IRQHandler
    startup_stm32h743xx.o(RESET) refers to stm32h7xx_it.o(i.ETH_WKUP_IRQHandler) for ETH_WKUP_IRQHandler
    startup_stm32h743xx.o(.text) refers to system_stm32h7xx.o(i.SystemInit) for SystemInit
    startup_stm32h743xx.o(.text) refers to entry.o(.ARM.Collect$$$$00000000) for __main
    main.o(i.MPU_Config) refers to stm32h7xx_hal_cortex.o(i.HAL_MPU_Disable) for HAL_MPU_Disable
    main.o(i.MPU_Config) refers to stm32h7xx_hal_cortex.o(i.HAL_MPU_ConfigRegion) for HAL_MPU_ConfigRegion
==============================================================================

Removing Unused input sections from the image.

    Removing startup_stm32h743xx.o(HEAP), (1024 bytes).
    Removing main.o(.rev16_text), (4 bytes).
    Removing main.o(.revsh_text), (4 bytes).
    Removing main.o(.rrx_text), (6 bytes).
    Removing gpio.o(.rev16_text), (4 bytes).
    Removing gpio.o(.revsh_text), (4 bytes).
    Removing gpio.o(.rrx_text), (6 bytes).
    Removing usart.o(.rev16_text), (4 bytes).
    Removing usart.o(.revsh_text), (4 bytes).
    Removing usart.o(.rrx_text), (6 bytes).
    Removing usart.o(i.HAL_UART_MspDeInit), (52 bytes).
    Removing stm32h7xx_it.o(.rev16_text), (4 bytes).
    Removing stm32h7xx_it.o(.revsh_text), (4 bytes).
    Removing stm32h7xx_it.o(.rrx_text), (6 bytes).
    Removing stm32h7xx_hal_msp.o(.rev16_text), (4 bytes).
    Removing stm32h7xx_hal_msp.o(.revsh_text), (4 bytes).
    Removing stm32h7xx_hal_msp.o(.rrx_text), (6 bytes).
    Removing ethernetif.o(.rev16_text), (4 bytes).
==============================================================================

Image Symbol Table

    Local Symbols

    Symbol Name                              Value     Ov Type        Size  Object(Section)

    ../Core/Src/gpio.c                       0x00000000   Number         0  gpio.o ABSOLUTE
    ../Core/Src/main.c                       0x00000000   Number         0  main.o ABSOLUTE
    ../Core/Src/stm32h7xx_hal_msp.c          0x00000000   Number         0  stm32h7xx_hal_msp.o ABSOLUTE
    ../Core/Src/stm32h7xx_it.c               0x00000000   Number         0  stm32h7xx_it.o ABSOLUTE
    ../Core/Src/system_stm32h7xx.c           0x00000000   Number         0  system_stm32h7xx.o ABSOLUTE
    ../Core/Src/usart.c                      0x00000000   Number         0  usart.o ABSOLUTE
    ../Drivers/BSP/Components/lan8742/lan8742.c 0x00000000   Number         0  lan8742.o ABSOLUTE
    ../Drivers/STM32H7xx_HAL_Driver/Src/stm32h7xx_hal.c 0x00000000   Number         0  stm32h7xx_hal.o ABSOLUTE
    ../Drivers/STM32H7xx_HAL_Driver/Src/stm32h7xx_hal_cortex.c 0x00000000   Number         0  stm32h7xx_hal_cortex.o ABSOLUTE
    ../Drivers/STM32H7xx_HAL_Driver/Src/stm32h7xx_hal_dma.c 0x00000000   Number         0  stm32h7xx_hal_dma.o ABSOLUTE
    ../Drivers/STM32H7xx_HAL_Driver/Src/stm32h7xx_hal_dma_ex.c 0x00000000   Number         0  stm32h7xx_hal_dma_ex.o ABSOLUTE
    ../Drivers/STM32H7xx_HAL_Driver/Src/stm32h7xx_hal_eth.c 0x00000000   Number         0  stm32h7xx_hal_eth.o ABSOLUTE
    ../Drivers/STM32H7xx_HAL_Driver/Src/stm32h7xx_hal_eth_ex.c 0x00000000   Number         0  stm32h7xx_hal_eth_ex.o ABSOLUTE
    ../Drivers/STM32H7xx_HAL_Driver/Src/stm32h7xx_hal_exti.c 0x00000000   Number         0  stm32h7xx_hal_exti.o ABSOLUTE
    ../Drivers/STM32H7xx_HAL_Driver/Src/stm32h7xx_hal_flash.c 0x00000000   Number         0  stm32h7xx_hal_flash.o ABSOLUTE
    ../Drivers/STM32H7xx_HAL_Driver/Src/stm32h7xx_hal_flash_ex.c 0x00000000   Number         0  stm32h7xx_hal_flash_ex.o ABSOLUTE
    ../Drivers/STM32H7xx_HAL_Driver/Src/stm32h7xx_hal_gpio.c 0x00000000   Number         0  stm32h7xx_hal_gpio.o ABSOLUTE
    ../Drivers/STM32H7xx_HAL_Driver/Src/stm32h7xx_hal_hsem.c 0x00000000   Number         0  stm32h7xx_hal_hsem.o ABSOLUTE
    ../Drivers/STM32H7xx_HAL_Driver/Src/stm32h7xx_hal_i2c.c 0x00000000   Number         0  stm32h7xx_hal_i2c.o ABSOLUTE
    ../Drivers/STM32H7xx_HAL_Driver/Src/stm32h7xx_hal_i2c_ex.c 0x00000000   Number         0  stm32h7xx_hal_i2c_ex.o ABSOLUTE
    ../Drivers/STM32H7xx_HAL_Driver/Src/stm32h7xx_hal_mdma.c 0x00000000   Number         0  stm32h7xx_hal_mdma.o ABSOLUTE
    ../Drivers/STM32H7xx_HAL_Driver/Src/stm32h7xx_hal_pwr.c 0x00000000   Number         0  stm32h7xx_hal_pwr.o ABSOLUTE
    ../Drivers/STM32H7xx_HAL_Driver/Src/stm32h7xx_hal_pwr_ex.c 0x00000000   Number         0  stm32h7xx_hal_pwr_ex.o ABSOLUTE
    ../Drivers/STM32H7xx_HAL_Driver/Src/stm32h7xx_hal_rcc.c 0x00000000   Number         0  stm32h7xx_hal_rcc.o ABSOLUTE
    ../Drivers/STM32H7xx_HAL_Driver/Src/stm32h7xx_hal_rcc_ex.c 0x00000000   Number         0  stm32h7xx_hal_rcc_ex.o ABSOLUTE
    ../Drivers/STM32H7xx_HAL_Driver/Src/stm32h7xx_hal_tim.c 0x00000000   Number         0  stm32h7xx_hal_tim.o ABSOLUTE
    ../Drivers/STM32H7xx_HAL_Driver/Src/stm32h7xx_hal_tim_ex.c 0x00000000   Number         0  stm32h7xx_hal_tim_ex.o ABSOLUTE
    ../Drivers/STM32H7xx_HAL_Driver/Src/stm32h7xx_hal_uart.c 0x00000000   Number         0  stm32h7xx_hal_uart.o ABSOLUTE
    ../Drivers/STM32H7xx_HAL_Driver/Src/stm32h7xx_hal_uart_ex.c 0x00000000   Number         0  stm32h7xx_hal_uart_ex.o ABSOLUTE
    ../LWIP/App/lwip.c                       0x00000000   Number         0  lwip.o ABSOLUTE
    ../LWIP/Target/ethernetif.c              0x00000000   Number         0  ethernetif.o ABSOLUTE
    ../Middlewares/Third_Party/LwIP/src/api/api_lib.c 0x00000000   Number         0  api_lib.o ABSOLUTE
    ../Middlewares/Third_Party/LwIP/src/api/api_msg.c 0x00000000   Number         0  api_msg.o ABSOLUTE
    ../Middlewares/Third_Party/LwIP/src/api/err.c 0x00000000   Number         0  err.o ABSOLUTE
    ../Middlewares/Third_Party/LwIP/src/api/if_api.c 0x00000000   Number         0  if_api.o ABSOLUTE
    ../Middlewares/Third_Party/LwIP/src/api/netbuf.c 0x00000000   Number         0  netbuf.o ABSOLUTE
    ../Middlewares/Third_Party/LwIP/src/api/netdb.c 0x00000000   Number         0  netdb.o ABSOLUTE
    ../Middlewares/Third_Party/LwIP/src/api/netifapi.c 0x00000000   Number         0  netifapi.o ABSOLUTE
    ../Middlewares/Third_Party/LwIP/src/api/sockets.c 0x00000000   Number         0  sockets.o ABSOLUTE
    ../Middlewares/Third_Party/LwIP/src/api/tcpip.c 0x00000000   Number         0  tcpip.o ABSOLUTE
    ../Middlewares/Third_Party/LwIP/src/apps/mqtt/mqtt.c 0x00000000   Number         0  mqtt.o ABSOLUTE
    ../Middlewares/Third_Party/LwIP/src/core/altcp.c 0x00000000   Number         0  altcp.o ABSOLUTE
    ../Middlewares/Third_Party/LwIP/src/core/altcp_alloc.c 0x00000000   Number         0  altcp_alloc.o ABSOLUTE
    ../Middlewares/Third_Party/LwIP/src/core/altcp_tcp.c 0x00000000   Number         0  altcp_tcp.o ABSOLUTE
    ../Middlewares/Third_Party/LwIP/src/core/def.c 0x00000000   Number         0  def.o ABSOLUTE
    ../Middlewares/Third_Party/LwIP/src/core/dns.c 0x00000000   Number         0  dns.o ABSOLUTE
    ../Middlewares/Third_Party/LwIP/src/core/inet_chksum.c 0x00000000   Number         0  inet_chksum.o ABSOLUTE
    ../Middlewares/Third_Party/LwIP/src/core/init.c 0x00000000   Number         0  init.o ABSOLUTE
    ../Middlewares/Third_Party/LwIP/src/core/ip.c 0x00000000   Number         0  ip.o ABSOLUTE
    ../Middlewares/Third_Party/LwIP/src/core/ipv4/autoip.c 0x00000000   Number         0  autoip.o ABSOLUTE
    ../Middlewares/Third_Party/LwIP/src/core/ipv4/dhcp.c 0x00000000   Number         0  dhcp.o ABSOLUTE
    ../Middlewares/Third_Party/LwIP/src/core/ipv4/etharp.c 0x00000000   Number         0  etharp.o ABSOLUTE
    ../Middlewares/Third_Party/LwIP/src/core/ipv4/icmp.c 0x00000000   Number         0  icmp.o ABSOLUTE
    ../Middlewares/Third_Party/LwIP/src/core/ipv4/igmp.c 0x00000000   Number         0  igmp.o ABSOLUTE
    ../Middlewares/Third_Party/LwIP/src/core/ipv4/ip4.c 0x00000000   Number         0  ip4.o ABSOLUTE
    ../Middlewares/Third_Party/LwIP/src/core/ipv4/ip4_addr.c 0x00000000   Number         0  ip4_addr.o ABSOLUTE
    ../Middlewares/Third_Party/LwIP/src/core/ipv4/ip4_frag.c 0x00000000   Number         0  ip4_frag.o ABSOLUTE
    ../Middlewares/Third_Party/LwIP/src/core/ipv6/dhcp6.c 0x00000000   Number         0  dhcp6.o ABSOLUTE
    ../Middlewares/Third_Party/LwIP/src/core/ipv6/ethip6.c 0x00000000   Number         0  ethip6.o ABSOLUTE
    ../Middlewares/Third_Party/LwIP/src/core/ipv6/icmp6.c 0x00000000   Number         0  icmp6.o ABSOLUTE
    ../Middlewares/Third_Party/LwIP/src/core/ipv6/inet6.c 0x00000000   Number         0  inet6.o ABSOLUTE
    ../Middlewares/Third_Party/LwIP/src/core/ipv6/ip6.c 0x00000000   Number         0  ip6.o ABSOLUTE
    ../Middlewares/Third_Party/LwIP/src/core/ipv6/ip6_addr.c 0x00000000   Number         0  ip6_addr.o ABSOLUTE
    ../Middlewares/Third_Party/LwIP/src/core/ipv6/ip6_frag.c 0x00000000   Number         0  ip6_frag.o ABSOLUTE
    ../Middlewares/Third_Party/LwIP/src/core/ipv6/mld6.c 0x00000000   Number         0  mld6.o ABSOLUTE
    ../Middlewares/Third_Party/LwIP/src/core/ipv6/nd6.c 0x00000000   Number         0  nd6.o ABSOLUTE
    ../Middlewares/Third_Party/LwIP/src/core/mem.c 0x00000000   Number         0  mem.o ABSOLUTE
    ../Middlewares/Third_Party/LwIP/src/core/memp.c 0x00000000   Number         0  memp.o ABSOLUTE
    ../Middlewares/Third_Party/LwIP/src/core/netif.c 0x00000000   Number         0  netif.o ABSOLUTE
    ../Middlewares/Third_Party/LwIP/src/core/pbuf.c 0x00000000   Number         0  pbuf.o ABSOLUTE
    ../Middlewares/Third_Party/LwIP/src/core/raw.c 0x00000000   Number         0  raw.o ABSOLUTE
    ../Middlewares/Third_Party/LwIP/src/core/stats.c 0x00000000   Number         0  stats.o ABSOLUTE
    ../Middlewares/Third_Party/LwIP/src/core/sys.c 0x00000000   Number         0  sys_1.o ABSOLUTE
    ../Middlewares/Third_Party/LwIP/src/core/tcp.c 0x00000000   Number         0  tcp.o ABSOLUTE
    ../Middlewares/Third_Party/LwIP/src/core/tcp_in.c 0x00000000   Number         0  tcp_in.o ABSOLUTE
    ../Middlewares/Third_Party/LwIP/src/core/tcp_out.c 0x00000000   Number         0  tcp_out.o ABSOLUTE
    ../Middlewares/Third_Party/LwIP/src/core/timeouts.c 0x00000000   Number         0  timeouts.o ABSOLUTE
    ../Middlewares/Third_Party/LwIP/src/core/udp.c 0x00000000   Number         0  udp.o ABSOLUTE
    ../Middlewares/Third_Party/LwIP/src/netif/bridgeif.c 0x00000000   Number         0  bridgeif.o ABSOLUTE
    ../Middlewares/Third_Party/LwIP/src/netif/bridgeif_fdb.c 0x00000000   Number         0  bridgeif_fdb.o ABSOLUTE
    ../Middlewares/Third_Party/LwIP/src/netif/ethernet.c 0x00000000   Number         0  ethernet.o ABSOLUTE
    ../Middlewares/Third_Party/LwIP/src/netif/lowpan6.c 0x00000000   Number         0  lowpan6.o ABSOLUTE
    ../Middlewares/Third_Party/LwIP/src/netif/lowpan6_ble.c 0x00000000   Number         0  lowpan6_ble.o ABSOLUTE
    ../Middlewares/Third_Party/LwIP/src/netif/lowpan6_common.c 0x00000000   Number         0  lowpan6_common.o ABSOLUTE
    ../Middlewares/Third_Party/LwIP/src/netif/ppp/auth.c 0x00000000   Number         0  auth.o ABSOLUTE
    ../Middlewares/Third_Party/LwIP/src/netif/ppp/ccp.c 0x00000000   Number         0  ccp.o ABSOLUTE
    ../Middlewares/Third_Party/LwIP/src/netif/ppp/chap-md5.c 0x00000000   Number         0  chap-md5.o ABSOLUTE
    ../Middlewares/Third_Party/LwIP/src/netif/ppp/chap-new.c 0x00000000   Number         0  chap-new.o ABSOLUTE
    ../Middlewares/Third_Party/LwIP/src/netif/ppp/chap_ms.c 0x00000000   Number         0  chap_ms.o ABSOLUTE
    ../Middlewares/Third_Party/LwIP/src/netif/ppp/demand.c 0x00000000   Number         0  demand.o ABSOLUTE
    ../Middlewares/Third_Party/LwIP/src/netif/ppp/eap.c 0x00000000   Number         0  eap.o ABSOLUTE
    ../Middlewares/Third_Party/LwIP/src/netif/ppp/ecp.c 0x00000000   Number         0  ecp.o ABSOLUTE
    ../Middlewares/Third_Party/LwIP/src/netif/ppp/eui64.c 0x00000000   Number         0  eui64.o ABSOLUTE
    ../Middlewares/Third_Party/LwIP/src/netif/ppp/fsm.c 0x00000000   Number         0  fsm.o ABSOLUTE
    ../Middlewares/Third_Party/LwIP/src/netif/ppp/ipcp.c 0x00000000   Number         0  ipcp.o ABSOLUTE
    ../Middlewares/Third_Party/LwIP/src/netif/ppp/ipv6cp.c 0x00000000   Number         0  ipv6cp.o ABSOLUTE
    ../Middlewares/Third_Party/LwIP/src/netif/ppp/lcp.c 0x00000000   Number         0  lcp.o ABSOLUTE
    ../Middlewares/Third_Party/LwIP/src/netif/ppp/magic.c 0x00000000   Number         0  magic.o ABSOLUTE
    ../Middlewares/Third_Party/LwIP/src/netif/ppp/mppe.c 0x00000000   Number         0  mppe.o ABSOLUTE
    ../Middlewares/Third_Party/LwIP/src/netif/ppp/multilink.c 0x00000000   Number         0  multilink.o ABSOLUTE
    ../Middlewares/Third_Party/LwIP/src/netif/ppp/ppp.c 0x00000000   Number         0  ppp.o ABSOLUTE
    ../Middlewares/Third_Party/LwIP/src/netif/ppp/pppapi.c 0x00000000   Number         0  pppapi.o ABSOLUTE
    ../Middlewares/Third_Party/LwIP/src/netif/ppp/pppcrypt.c 0x00000000   Number         0  pppcrypt.o ABSOLUTE
    ../Middlewares/Third_Party/LwIP/src/netif/ppp/pppoe.c 0x00000000   Number         0  pppoe.o ABSOLUTE
    ../Middlewares/Third_Party/LwIP/src/netif/ppp/pppol2tp.c 0x00000000   Number         0  pppol2tp.o ABSOLUTE
    ../Middlewares/Third_Party/LwIP/src/netif/ppp/pppos.c 0x00000000   Number         0  pppos.o ABSOLUTE
    ../Middlewares/Third_Party/LwIP/src/netif/ppp/upap.c 0x00000000   Number         0  upap.o ABSOLUTE
    ../Middlewares/Third_Party/LwIP/src/netif/ppp/utils.c 0x00000000   Number         0  utils.o ABSOLUTE
    ../Middlewares/Third_Party/LwIP/src/netif/ppp/vj.c 0x00000000   Number         0  vj.o ABSOLUTE
    ../Middlewares/Third_Party/LwIP/src/netif/slipif.c 0x00000000   Number         0  slipif.o ABSOLUTE
    ../Middlewares/Third_Party/LwIP/src/netif/zepif.c 0x00000000   Number         0  zepif.o ABSOLUTE
    ../clib/../cmprslib/zerorunl2.c          0x00000000   Number         0  __dczerorl2.o ABSOLUTE
    ../clib/microlib/ctype/ctype.c           0x00000000   Number         0  iscntrl_o.o ABSOLUTE
    ../clib/microlib/ctype/ctype.c           0x00000000   Number         0  isxdigit_o.o ABSOLUTE
    ../clib/microlib/ctype/ctype.c           0x00000000   Number         0  isupper_o.o ABSOLUTE
    ../clib/microlib/ctype/ctype.c           0x00000000   Number         0  isdigit_o.o ABSOLUTE
    ../clib/microlib/ctype/ctype.c           0x00000000   Number         0  isspace_o.o ABSOLUTE
    ../clib/microlib/ctype/ctype.c           0x00000000   Number         0  ctype_o.o ABSOLUTE
    ../clib/microlib/ctype/ctype.c           0x00000000   Number         0  ispunct_o.o ABSOLUTE
    ../clib/microlib/ctype/ctype.c           0x00000000   Number         0  isprint_o.o ABSOLUTE
    ../clib/microlib/ctype/ctype.c           0x00000000   Number         0  islower_o.o ABSOLUTE
    ../clib/microlib/ctype/ctype.c           0x00000000   Number         0  isalnum_o.o ABSOLUTE
    ../clib/microlib/ctype/ctype.c           0x00000000   Number         0  isalpha_o.o ABSOLUTE
    ../clib/microlib/ctype/ctype.c           0x00000000   Number         0  isblank_o.o ABSOLUTE
    ../clib/microlib/ctype/ctype.c           0x00000000   Number         0  isgraph_o.o ABSOLUTE
    ../clib/microlib/division.c              0x00000000   Number         0  uidiv.o ABSOLUTE
    ../clib/microlib/division.c              0x00000000   Number         0  uldiv.o ABSOLUTE
    ../clib/microlib/errno.c                 0x00000000   Number         0  errno.o ABSOLUTE
    ../clib/microlib/init/entry.s            0x00000000   Number         0  entry10b.o ABSOLUTE
    ../clib/microlib/init/entry.s            0x00000000   Number         0  entry10a.o ABSOLUTE
    ../clib/microlib/init/entry.s            0x00000000   Number         0  entry9b.o ABSOLUTE
    ../clib/microlib/init/entry.s            0x00000000   Number         0  entry8a.o ABSOLUTE
    ../clib/microlib/init/entry.s            0x00000000   Number         0  entry9a.o ABSOLUTE
    ../clib/microlib/init/entry.s            0x00000000   Number         0  entry7b.o ABSOLUTE
    ../clib/microlib/init/entry.s            0x00000000   Number         0  entry8b.o ABSOLUTE
    ../clib/microlib/init/entry.s            0x00000000   Number         0  entry2.o ABSOLUTE
    ../clib/microlib/init/entry.s            0x00000000   Number         0  entry12b.o ABSOLUTE
    ../clib/microlib/init/entry.s            0x00000000   Number         0  entry12a.o ABSOLUTE
    ../clib/microlib/init/entry.s            0x00000000   Number         0  entry11b.o ABSOLUTE
    ../clib/microlib/init/entry.s            0x00000000   Number         0  entry5.o ABSOLUTE
    ../clib/microlib/init/entry.s            0x00000000   Number         0  entry7a.o ABSOLUTE
    ../clib/microlib/init/entry.s            0x00000000   Number         0  entry11a.o ABSOLUTE
    ../clib/microlib/init/entry.s            0x00000000   Number         0  entry.o ABSOLUTE
    ../clib/microlib/longlong.c              0x00000000   Number         0  llushr.o ABSOLUTE
    ../clib/microlib/longlong.c              0x00000000   Number         0  llshl.o ABSOLUTE
    ../clib/microlib/longlong.c              0x00000000   Number         0  llsshr.o ABSOLUTE
    ../clib/microlib/printf/printf.c         0x00000000   Number         0  printf0.o ABSOLUTE
    ../clib/microlib/printf/printf.c         0x00000000   Number         0  printf1.o ABSOLUTE
    ../clib/microlib/printf/printf.c         0x00000000   Number         0  printf2.o ABSOLUTE
    ../clib/microlib/printf/printf.c         0x00000000   Number         0  printf7.o ABSOLUTE
    ../clib/microlib/printf/printf.c         0x00000000   Number         0  printf6.o ABSOLUTE
    ../clib/microlib/printf/printf.c         0x00000000   Number         0  printf5.o ABSOLUTE
    ../clib/microlib/printf/printf.c         0x00000000   Number         0  printf3.o ABSOLUTE
    ../clib/microlib/printf/printf.c         0x00000000   Number         0  printfb.o ABSOLUTE
    ../clib/microlib/printf/printf.c         0x00000000   Number         0  printfa.o ABSOLUTE
    ../clib/microlib/printf/printf.c         0x00000000   Number         0  printf4.o ABSOLUTE
    ../clib/microlib/printf/printf.c         0x00000000   Number         0  printf8.o ABSOLUTE
    ../clib/microlib/printf/stubs.s          0x00000000   Number         0  stubs.o ABSOLUTE
    ../clib/microlib/stdio/streams.c         0x00000000   Number         0  stdout.o ABSOLUTE
    ../clib/microlib/stdlib/rand.c           0x00000000   Number         0  rand.o ABSOLUTE
    ../clib/microlib/string/memcmp.c         0x00000000   Number         0  memcmp.o ABSOLUTE
    ../clib/microlib/string/memcpy.c         0x00000000   Number         0  memmovea.o ABSOLUTE
    ../clib/microlib/string/memcpy.c         0x00000000   Number         0  memmoveb.o ABSOLUTE
    ../clib/microlib/string/memcpy.c         0x00000000   Number         0  memcpyb.o ABSOLUTE
    ../clib/microlib/string/memcpy.c         0x00000000   Number         0  memcpya.o ABSOLUTE
    ../clib/microlib/string/memset.c         0x00000000   Number         0  memseta.o ABSOLUTE
    ../clib/microlib/string/strlen.c         0x00000000   Number         0  strlen.o ABSOLUTE
    ../clib/microlib/string/strncmp.c        0x00000000   Number         0  strncmp.o ABSOLUTE
    ../clib/microlib/stubs.s                 0x00000000   Number         0  iusefp.o ABSOLUTE
    ../clib/scanf.c                          0x00000000   Number         0  strtol.o ABSOLUTE
    ../clib/scanf.c                          0x00000000   Number         0  atoi.o ABSOLUTE
    ../clib/scanf.c                          0x00000000   Number         0  _strtoul.o ABSOLUTE
    ../clib/scanf.c                          0x00000000   Number         0  _chval.o ABSOLUTE
    ../fplib/microlib/fpadd.c                0x00000000   Number         0  dadd.o ABSOLUTE
    ../fplib/microlib/fpdiv.c                0x00000000   Number         0  ddiv.o ABSOLUTE
    ../fplib/microlib/fpepilogue.c           0x00000000   Number         0  depilogue.o ABSOLUTE
    ../fplib/microlib/fpfix.c                0x00000000   Number         0  dfixul.o ABSOLUTE
    ../fplib/microlib/fpmul.c                0x00000000   Number         0  dmul.o ABSOLUTE
    ..\Core\Src\gpio.c                       0x00000000   Number         0  gpio.o ABSOLUTE
    ..\Core\Src\main.c                       0x00000000   Number         0  main.o ABSOLUTE
    ..\Core\Src\stm32h7xx_hal_msp.c          0x00000000   Number         0  stm32h7xx_hal_msp.o ABSOLUTE
    ..\Core\Src\stm32h7xx_it.c               0x00000000   Number         0  stm32h7xx_it.o ABSOLUTE
    ..\Core\Src\system_stm32h7xx.c           0x00000000   Number         0  system_stm32h7xx.o ABSOLUTE
    ..\Core\Src\usart.c                      0x00000000   Number         0  usart.o ABSOLUTE
    ..\Drivers\STM32H7xx_HAL_Driver\Src\stm32h7xx_hal.c 0x00000000   Number         0  stm32h7xx_hal.o ABSOLUTE
    ..\Drivers\STM32H7xx_HAL_Driver\Src\stm32h7xx_hal_cortex.c 0x00000000   Number         0  stm32h7xx_hal_cortex.o ABSOLUTE
    ..\Drivers\STM32H7xx_HAL_Driver\Src\stm32h7xx_hal_dma.c 0x00000000   Number         0  stm32h7xx_hal_dma.o ABSOLUTE
    ..\Drivers\STM32H7xx_HAL_Driver\Src\stm32h7xx_hal_dma_ex.c 0x00000000   Number         0  stm32h7xx_hal_dma_ex.o ABSOLUTE
    ..\Drivers\STM32H7xx_HAL_Driver\Src\stm32h7xx_hal_eth.c 0x00000000   Number         0  stm32h7xx_hal_eth.o ABSOLUTE
    ..\Drivers\STM32H7xx_HAL_Driver\Src\stm32h7xx_hal_eth_ex.c 0x00000000   Number         0  stm32h7xx_hal_eth_ex.o ABSOLUTE
    ..\Drivers\STM32H7xx_HAL_Driver\Src\stm32h7xx_hal_exti.c 0x00000000   Number         0  stm32h7xx_hal_exti.o ABSOLUTE
    ..\Drivers\STM32H7xx_HAL_Driver\Src\stm32h7xx_hal_flash.c 0x00000000   Number         0  stm32h7xx_hal_flash.o ABSOLUTE
    ..\Drivers\STM32H7xx_HAL_Driver\Src\stm32h7xx_hal_flash_ex.c 0x00000000   Number         0  stm32h7xx_hal_flash_ex.o ABSOLUTE
    ..\Drivers\STM32H7xx_HAL_Driver\Src\stm32h7xx_hal_gpio.c 0x00000000   Number         0  stm32h7xx_hal_gpio.o ABSOLUTE
    ..\Drivers\STM32H7xx_HAL_Driver\Src\stm32h7xx_hal_hsem.c 0x00000000   Number         0  stm32h7xx_hal_hsem.o ABSOLUTE
    ..\Drivers\STM32H7xx_HAL_Driver\Src\stm32h7xx_hal_i2c.c 0x00000000   Number         0  stm32h7xx_hal_i2c.o ABSOLUTE
    ..\Drivers\STM32H7xx_HAL_Driver\Src\stm32h7xx_hal_i2c_ex.c 0x00000000   Number         0  stm32h7xx_hal_i2c_ex.o ABSOLUTE
    ..\Drivers\STM32H7xx_HAL_Driver\Src\stm32h7xx_hal_mdma.c 0x00000000   Number         0  stm32h7xx_hal_mdma.o ABSOLUTE
    ..\Drivers\STM32H7xx_HAL_Driver\Src\stm32h7xx_hal_pwr.c 0x00000000   Number         0  stm32h7xx_hal_pwr.o ABSOLUTE
    ..\Drivers\STM32H7xx_HAL_Driver\Src\stm32h7xx_hal_pwr_ex.c 0x00000000   Number         0  stm32h7xx_hal_pwr_ex.o ABSOLUTE
    ..\Drivers\STM32H7xx_HAL_Driver\Src\stm32h7xx_hal_rcc.c 0x00000000   Number         0  stm32h7xx_hal_rcc.o ABSOLUTE
    ..\Drivers\STM32H7xx_HAL_Driver\Src\stm32h7xx_hal_rcc_ex.c 0x00000000   Number         0  stm32h7xx_hal_rcc_ex.o ABSOLUTE
    ..\Drivers\STM32H7xx_HAL_Driver\Src\stm32h7xx_hal_tim.c 0x00000000   Number         0  stm32h7xx_hal_tim.o ABSOLUTE
    ..\Drivers\STM32H7xx_HAL_Driver\Src\stm32h7xx_hal_tim_ex.c 0x00000000   Number         0  stm32h7xx_hal_tim_ex.o ABSOLUTE
    ..\Drivers\STM32H7xx_HAL_Driver\Src\stm32h7xx_hal_uart.c 0x00000000   Number         0  stm32h7xx_hal_uart.o ABSOLUTE
    ..\Drivers\STM32H7xx_HAL_Driver\Src\stm32h7xx_hal_uart_ex.c 0x00000000   Number         0  stm32h7xx_hal_uart_ex.o ABSOLUTE
    ..\LWIP\App\TCPIP\fifoMem.c              0x00000000   Number         0  fifomem.o ABSOLUTE
    ..\LWIP\App\TCPIP\lwip_udp.c             0x00000000   Number         0  lwip_udp.o ABSOLUTE
    ..\LWIP\App\TCPIP\task_module.c          0x00000000   Number         0  task_module.o ABSOLUTE
    ..\LWIP\App\TCPIP\tcp_client.c           0x00000000   Number         0  tcp_client.o ABSOLUTE
    ..\LWIP\App\TCPIP\tcp_server.c           0x00000000   Number         0  tcp_server.o ABSOLUTE
    ..\LWIP\App\lwip.c                       0x00000000   Number         0  lwip.o ABSOLUTE
    ..\LWIP\Target\ethernetif.c              0x00000000   Number         0  ethernetif.o ABSOLUTE
    ..\Middlewares\Third_Party\LwIP\src\api\api_lib.c 0x00000000   Number         0  api_lib.o ABSOLUTE
    ..\Middlewares\Third_Party\LwIP\src\api\api_msg.c 0x00000000   Number         0  api_msg.o ABSOLUTE
    ..\Middlewares\Third_Party\LwIP\src\api\err.c 0x00000000   Number         0  err.o ABSOLUTE
    ..\Middlewares\Third_Party\LwIP\src\api\if_api.c 0x00000000   Number         0  if_api.o ABSOLUTE
    ..\Middlewares\Third_Party\LwIP\src\api\netbuf.c 0x00000000   Number         0  netbuf.o ABSOLUTE
    ..\Middlewares\Third_Party\LwIP\src\api\netdb.c 0x00000000   Number         0  netdb.o ABSOLUTE
    ..\Middlewares\Third_Party\LwIP\src\api\netifapi.c 0x00000000   Number         0  netifapi.o ABSOLUTE
    ..\Middlewares\Third_Party\LwIP\src\api\sockets.c 0x00000000   Number         0  sockets.o ABSOLUTE
    ..\Middlewares\Third_Party\LwIP\src\api\tcpip.c 0x00000000   Number         0  tcpip.o ABSOLUTE
    ..\Middlewares\Third_Party\LwIP\src\apps\mqtt\mqtt.c 0x00000000   Number         0  mqtt.o ABSOLUTE
    ..\Middlewares\Third_Party\LwIP\src\core\altcp.c 0x00000000   Number         0  altcp.o ABSOLUTE
    ..\Middlewares\Third_Party\LwIP\src\core\altcp_alloc.c 0x00000000   Number         0  altcp_alloc.o ABSOLUTE
    ..\Middlewares\Third_Party\LwIP\src\core\altcp_tcp.c 0x00000000   Number         0  altcp_tcp.o ABSOLUTE
    ..\Middlewares\Third_Party\LwIP\src\core\def.c 0x00000000   Number         0  def.o ABSOLUTE
    ..\Middlewares\Third_Party\LwIP\src\core\dns.c 0x00000000   Number         0  dns.o ABSOLUTE
    ..\Middlewares\Third_Party\LwIP\src\core\inet_chksum.c 0x00000000   Number         0  inet_chksum.o ABSOLUTE
    ..\Middlewares\Third_Party\LwIP\src\core\init.c 0x00000000   Number         0  init.o ABSOLUTE
    ..\Middlewares\Third_Party\LwIP\src\core\ip.c 0x00000000   Number         0  ip.o ABSOLUTE
    ..\Middlewares\Third_Party\LwIP\src\core\ipv4\autoip.c 0x00000000   Number         0  autoip.o ABSOLUTE
    ..\Middlewares\Third_Party\LwIP\src\core\ipv4\dhcp.c 0x00000000   Number         0  dhcp.o ABSOLUTE
    ..\Middlewares\Third_Party\LwIP\src\core\ipv4\etharp.c 0x00000000   Number         0  etharp.o ABSOLUTE
    ..\Middlewares\Third_Party\LwIP\src\core\ipv4\icmp.c 0x00000000   Number         0  icmp.o ABSOLUTE
    ..\Middlewares\Third_Party\LwIP\src\core\ipv4\igmp.c 0x00000000   Number         0  igmp.o ABSOLUTE
    ..\Middlewares\Third_Party\LwIP\src\core\ipv4\ip4.c 0x00000000   Number         0  ip4.o ABSOLUTE
    ..\Middlewares\Third_Party\LwIP\src\core\ipv4\ip4_addr.c 0x00000000   Number         0  ip4_addr.o ABSOLUTE
    ..\Middlewares\Third_Party\LwIP\src\core\ipv4\ip4_frag.c 0x00000000   Number         0  ip4_frag.o ABSOLUTE
    ..\Middlewares\Third_Party\LwIP\src\core\ipv6\dhcp6.c 0x00000000   Number         0  dhcp6.o ABSOLUTE
    ..\Middlewares\Third_Party\LwIP\src\core\ipv6\ethip6.c 0x00000000   Number         0  ethip6.o ABSOLUTE
    ..\Middlewares\Third_Party\LwIP\src\core\ipv6\icmp6.c 0x00000000   Number         0  icmp6.o ABSOLUTE
    ..\Middlewares\Third_Party\LwIP\src\core\ipv6\inet6.c 0x00000000   Number         0  inet6.o ABSOLUTE
    ..\Middlewares\Third_Party\LwIP\src\core\ipv6\ip6.c 0x00000000   Number         0  ip6.o ABSOLUTE
    ..\Middlewares\Third_Party\LwIP\src\core\ipv6\ip6_addr.c 0x00000000   Number         0  ip6_addr.o ABSOLUTE
    ..\Middlewares\Third_Party\LwIP\src\core\ipv6\ip6_frag.c 0x00000000   Number         0  ip6_frag.o ABSOLUTE
    ..\Middlewares\Third_Party\LwIP\src\core\ipv6\mld6.c 0x00000000   Number         0  mld6.o ABSOLUTE
    ..\Middlewares\Third_Party\LwIP\src\core\ipv6\nd6.c 0x00000000   Number         0  nd6.o ABSOLUTE
    ..\Middlewares\Third_Party\LwIP\src\core\mem.c 0x00000000   Number         0  mem.o ABSOLUTE
    ..\Middlewares\Third_Party\LwIP\src\core\memp.c 0x00000000   Number         0  memp.o ABSOLUTE
    ..\Middlewares\Third_Party\LwIP\src\core\netif.c 0x00000000   Number         0  netif.o ABSOLUTE
    ..\Middlewares\Third_Party\LwIP\src\core\pbuf.c 0x00000000   Number         0  pbuf.o ABSOLUTE
    ..\Middlewares\Third_Party\LwIP\src\core\raw.c 0x00000000   Number         0  raw.o ABSOLUTE
    ..\Middlewares\Third_Party\LwIP\src\core\stats.c 0x00000000   Number         0  stats.o ABSOLUTE
    ..\Middlewares\Third_Party\LwIP\src\core\sys.c 0x00000000   Number         0  sys_1.o ABSOLUTE
    ..\Middlewares\Third_Party\LwIP\src\core\tcp.c 0x00000000   Number         0  tcp.o ABSOLUTE
    ..\Middlewares\Third_Party\LwIP\src\core\tcp_in.c 0x00000000   Number         0  tcp_in.o ABSOLUTE
    ..\Middlewares\Third_Party\LwIP\src\core\tcp_out.c 0x00000000   Number         0  tcp_out.o ABSOLUTE
    ..\Middlewares\Third_Party\LwIP\src\core\timeouts.c 0x00000000   Number         0  timeouts.o ABSOLUTE
    ..\Middlewares\Third_Party\LwIP\src\core\udp.c 0x00000000   Number         0  udp.o ABSOLUTE
    ..\Middlewares\Third_Party\LwIP\src\netif\bridgeif.c 0x00000000   Number         0  bridgeif.o ABSOLUTE
    ..\Middlewares\Third_Party\LwIP\src\netif\bridgeif_fdb.c 0x00000000   Number         0  bridgeif_fdb.o ABSOLUTE
    ..\Middlewares\Third_Party\LwIP\src\netif\ethernet.c 0x00000000   Number         0  ethernet.o ABSOLUTE
    ..\Middlewares\Third_Party\LwIP\src\netif\lowpan6.c 0x00000000   Number         0  lowpan6.o ABSOLUTE
    ..\Middlewares\Third_Party\LwIP\src\netif\lowpan6_ble.c 0x00000000   Number         0  lowpan6_ble.o ABSOLUTE
    ..\Middlewares\Third_Party\LwIP\src\netif\lowpan6_common.c 0x00000000   Number         0  lowpan6_common.o ABSOLUTE
    ..\Middlewares\Third_Party\LwIP\src\netif\ppp\auth.c 0x00000000   Number         0  auth.o ABSOLUTE
    ..\Middlewares\Third_Party\LwIP\src\netif\ppp\ccp.c 0x00000000   Number         0  ccp.o ABSOLUTE
    ..\Middlewares\Third_Party\LwIP\src\netif\ppp\chap-md5.c 0x00000000   Number         0  chap-md5.o ABSOLUTE
    ..\Middlewares\Third_Party\LwIP\src\netif\ppp\chap-new.c 0x00000000   Number         0  chap-new.o ABSOLUTE
    ..\Middlewares\Third_Party\LwIP\src\netif\ppp\chap_ms.c 0x00000000   Number         0  chap_ms.o ABSOLUTE
    ..\Middlewares\Third_Party\LwIP\src\netif\ppp\demand.c 0x00000000   Number         0  demand.o ABSOLUTE
    ..\Middlewares\Third_Party\LwIP\src\netif\ppp\eap.c 0x00000000   Number         0  eap.o ABSOLUTE
    ..\Middlewares\Third_Party\LwIP\src\netif\ppp\ecp.c 0x00000000   Number         0  ecp.o ABSOLUTE
    ..\Middlewares\Third_Party\LwIP\src\netif\ppp\eui64.c 0x00000000   Number         0  eui64.o ABSOLUTE
    ..\Middlewares\Third_Party\LwIP\src\netif\ppp\fsm.c 0x00000000   Number         0  fsm.o ABSOLUTE
    ..\Middlewares\Third_Party\LwIP\src\netif\ppp\ipcp.c 0x00000000   Number         0  ipcp.o ABSOLUTE
    ..\Middlewares\Third_Party\LwIP\src\netif\ppp\ipv6cp.c 0x00000000   Number         0  ipv6cp.o ABSOLUTE
    ..\Middlewares\Third_Party\LwIP\src\netif\ppp\lcp.c 0x00000000   Number         0  lcp.o ABSOLUTE
    ..\Middlewares\Third_Party\LwIP\src\netif\ppp\magic.c 0x00000000   Number         0  magic.o ABSOLUTE
    ..\Middlewares\Third_Party\LwIP\src\netif\ppp\mppe.c 0x00000000   Number         0  mppe.o ABSOLUTE
    ..\Middlewares\Third_Party\LwIP\src\netif\ppp\multilink.c 0x00000000   Number         0  multilink.o ABSOLUTE
    ..\Middlewares\Third_Party\LwIP\src\netif\ppp\ppp.c 0x00000000   Number         0  ppp.o ABSOLUTE
    ..\Middlewares\Third_Party\LwIP\src\netif\ppp\pppapi.c 0x00000000   Number         0  pppapi.o ABSOLUTE
    ..\Middlewares\Third_Party\LwIP\src\netif\ppp\pppcrypt.c 0x00000000   Number         0  pppcrypt.o ABSOLUTE
    ..\Middlewares\Third_Party\LwIP\src\netif\ppp\pppoe.c 0x00000000   Number         0  pppoe.o ABSOLUTE
    ..\Middlewares\Third_Party\LwIP\src\netif\ppp\pppol2tp.c 0x00000000   Number         0  pppol2tp.o ABSOLUTE
    ..\Middlewares\Third_Party\LwIP\src\netif\ppp\pppos.c 0x00000000   Number         0  pppos.o ABSOLUTE
    ..\Middlewares\Third_Party\LwIP\src\netif\ppp\upap.c 0x00000000   Number         0  upap.o ABSOLUTE
    ..\Middlewares\Third_Party\LwIP\src\netif\ppp\utils.c 0x00000000   Number         0  utils.o ABSOLUTE
    ..\Middlewares\Third_Party\LwIP\src\netif\ppp\vj.c 0x00000000   Number         0  vj.o ABSOLUTE
    ..\Middlewares\Third_Party\LwIP\src\netif\slipif.c 0x00000000   Number         0  slipif.o ABSOLUTE
    ..\Middlewares\Third_Party\LwIP\src\netif\zepif.c 0x00000000   Number         0  zepif.o ABSOLUTE
    ..\\LWIP\\App\\TCPIP\\fifoMem.c          0x00000000   Number         0  fifomem.o ABSOLUTE
    ..\\LWIP\\App\\TCPIP\\lwip_udp.c         0x00000000   Number         0  lwip_udp.o ABSOLUTE
    ..\\LWIP\\App\\TCPIP\\task_module.c      0x00000000   Number         0  task_module.o ABSOLUTE
    ..\\LWIP\\App\\TCPIP\\tcp_client.c       0x00000000   Number         0  tcp_client.o ABSOLUTE
    ..\\LWIP\\App\\TCPIP\\tcp_server.c       0x00000000   Number         0  tcp_server.o ABSOLUTE
    cdrcmple.s                               0x00000000   Number         0  cdrcmple.o ABSOLUTE
    dc.s                                     0x00000000   Number         0  dc.o ABSOLUTE
    handlers.s                               0x00000000   Number         0  handlers.o ABSOLUTE
    init.s                                   0x00000000   Number         0  init.o ABSOLUTE
    startup_stm32h743xx.s                    0x00000000   Number         0  startup_stm32h743xx.o ABSOLUTE
    RESET                                    0x08000000   Section      664  startup_stm32h743xx.o(RESET)
    .ARM.Collect$$$$00000000                 0x08000298   Section        0  entry.o(.ARM.Collect$$$$00000000)
    .ARM.Collect$$$$00000001                 0x08000298   Section        4  entry2.o(.ARM.Collect$$$$00000001)
    .ARM.Collect$$$$00000004                 0x0800029c   Section        4  entry5.o(.ARM.Collect$$$$00000004)
    .ARM.Collect$$$$00000008                 0x080002a0   Section        0  entry7b.o(.ARM.Collect$$$$00000008)
    .ARM.Collect$$$$0000000A                 0x080002a0   Section        0  entry8b.o(.ARM.Collect$$$$0000000A)
    .ARM.Collect$$$$0000000B                 0x080002a0   Section        8  entry9a.o(.ARM.Collect$$$$0000000B)
    .ARM.Collect$$$$0000000E                 0x080002a8   Section        4  entry12b.o(.ARM.Collect$$$$0000000E)
    .ARM.Collect$$$$0000000F                 0x080002ac   Section        0  entry10a.o(.ARM.Collect$$$$0000000F)
    .ARM.Collect$$$$00000011                 0x080002ac   Section        0  entry11a.o(.ARM.Collect$$$$00000011)
    .ARM.Collect$$$$00002712                 0x080002ac   Section        4  entry2.o(.ARM.Collect$$$$00002712)
    __lit__00000000                          0x080002ac   Data           4  entry2.o(.ARM.Collect$$$$00002712)
    .text                                    0x080002b0   Section       36  startup_stm32h743xx.o(.text)
    $v0                                      0x080002b0   Number         0  startup_stm32h743xx.o(.text)
    .text                                    0x080002d4   Section        0  uldiv.o(.text)
    .text                                    0x08000338   Section        0  rand.o(.text)
    .text                                    0x0800035c   Section        0  memmovea.o(.text)
    .text                                    0x0800039c   Section        0  memseta.o(.text)
    .text                                    0x080003c0   Section        0  strlen.o(.text)
    .text                                    0x080003ce   Section        0  memcmp.o(.text)
    .text                                    0x080003e8   Section        0  llshl.o(.text)
    .text                                    0x08000406   Section        0  llushr.o(.text)
    .text                                    0x08000428   Section       36  init.o(.text)
    .text                                    0x0800044c   Section        0  __dczerorl2.o(.text)
    i.BusFault_Handler                       0x080004a2   Section        0  stm32h7xx_it.o(i.BusFault_Handler)
    i.DebugMon_Handler                       0x080004a6   Section        0  stm32h7xx_it.o(i.DebugMon_Handler)
    i.ETH_DMARxDescListInit                  0x080004a8   Section        0  stm32h7xx_hal_eth.o(i.ETH_DMARxDescListInit)
    ETH_DMARxDescListInit                    0x080004a9   Thumb Code    96  stm32h7xx_hal_eth.o(i.ETH_DMARxDescListInit)
    i.ETH_DMATxDescListInit                  0x08000508   Section        0  stm32h7xx_hal_eth.o(i.ETH_DMATxDescListInit)
    ETH_DMATxDescListInit                    0x08000509   Thumb Code    82  stm32h7xx_hal_eth.o(i.ETH_DMATxDescListInit)
    i.ETH_IRQHandler                         0x0800055c   Section        0  lwip.o(i.ETH_IRQHandler)
    i.ETH_MACDMAConfig                       0x08000580   Section        0  stm32h7xx_hal_eth.o(i.ETH_MACDMAConfig)
    ETH_MACDMAConfig                         0x08000581   Thumb Code   262  stm32h7xx_hal_eth.o(i.ETH_MACDMAConfig)
    i.ETH_PHY_IO_DeInit                      0x08000686   Section        0  ethernetif.o(i.ETH_PHY_IO_DeInit)
    i.ETH_PHY_IO_GetTick                     0x0800068a   Section        0  ethernetif.o(i.ETH_PHY_IO_GetTick)
    i.ETH_PHY_IO_Init                        0x08000694   Section        0  ethernetif.o(i.ETH_PHY_IO_Init)
    i.ETH_PHY_IO_ReadReg                     0x080006a4   Section        0  ethernetif.o(i.ETH_PHY_IO_ReadReg)
    i.ETH_PHY_IO_WriteReg                    0x080006c8   Section        0  ethernetif.o(i.ETH_PHY_IO_WriteReg)
    i.ETH_Prepare_Tx_Descriptors             0x080006ec   Section        0  stm32h7xx_hal_eth.o(i.ETH_Prepare_Tx_Descriptors)
    ETH_Prepare_Tx_Descriptors               0x080006ed   Thumb Code   972  stm32h7xx_hal_eth.o(i.ETH_Prepare_Tx_Descriptors)
    i.ETH_SetDMAConfig                       0x08000abc   Section        0  stm32h7xx_hal_eth.o(i.ETH_SetDMAConfig)
    ETH_SetDMAConfig                         0x08000abd   Thumb Code   176  stm32h7xx_hal_eth.o(i.ETH_SetDMAConfig)
    i.ETH_SetMACConfig                       0x08000b78   Section        0  stm32h7xx_hal_eth.o(i.ETH_SetMACConfig)
    ETH_SetMACConfig                         0x08000b79   Thumb Code   394  stm32h7xx_hal_eth.o(i.ETH_SetMACConfig)
    i.ETH_UpdateDescriptor                   0x08000d0c   Section        0  stm32h7xx_hal_eth.o(i.ETH_UpdateDescriptor)
    ETH_UpdateDescriptor                     0x08000d0d   Thumb Code   152  stm32h7xx_hal_eth.o(i.ETH_UpdateDescriptor)
    i.ETH_WKUP_IRQHandler                    0x08000da4   Section        0  stm32h7xx_it.o(i.ETH_WKUP_IRQHandler)
    i.Error_Handler                          0x08000db4   Section        0  main.o(i.Error_Handler)
    i.Ethernet_Link_Periodic_Handle          0x08000dbc   Section        0  lwip.o(i.Ethernet_Link_Periodic_Handle)
    Ethernet_Link_Periodic_Handle            0x08000dbd   Thumb Code    34  lwip.o(i.Ethernet_Link_Periodic_Handle)
    i.HAL_DMA_Abort                          0x08000de4   Section        0  stm32h7xx_hal_dma.o(i.HAL_DMA_Abort)
    i.HAL_DMA_Abort_IT                       0x080012c0   Section        0  stm32h7xx_hal_dma.o(i.HAL_DMA_Abort_IT)
    i.HAL_ETH_EEECallback                    0x08001658   Section        0  stm32h7xx_hal_eth.o(i.HAL_ETH_EEECallback)
    i.HAL_ETH_ErrorCallback                  0x0800165a   Section        0  stm32h7xx_hal_eth.o(i.HAL_ETH_ErrorCallback)
    i.HAL_ETH_GetMACConfig                   0x0800165c   Section        0  stm32h7xx_hal_eth.o(i.HAL_ETH_GetMACConfig)
    i.HAL_ETH_IRQHandler                     0x08001834   Section        0  stm32h7xx_hal_eth.o(i.HAL_ETH_IRQHandler)
    i.HAL_ETH_Init                           0x080019f4   Section        0  stm32h7xx_hal_eth.o(i.HAL_ETH_Init)
    i.HAL_ETH_MspInit                        0x08001b5c   Section        0  ethernetif.o(i.HAL_ETH_MspInit)
    i.HAL_ETH_PMTCallback                    0x08001d84   Section        0  stm32h7xx_hal_eth.o(i.HAL_ETH_PMTCallback)
    i.HAL_ETH_ReadData                       0x08001d86   Section        0  stm32h7xx_hal_eth.o(i.HAL_ETH_ReadData)
    i.HAL_ETH_ReadPHYRegister                0x08001e86   Section        0  stm32h7xx_hal_eth.o(i.HAL_ETH_ReadPHYRegister)
    i.HAL_ETH_RxAllocateCallback             0x08001f00   Section        0  ethernetif.o(i.HAL_ETH_RxAllocateCallback)
    i.HAL_ETH_RxCpltCallback                 0x08001f48   Section        0  stm32h7xx_hal_eth.o(i.HAL_ETH_RxCpltCallback)
    i.HAL_ETH_RxLinkCallback                 0x08001f4c   Section        0  ethernetif.o(i.HAL_ETH_RxLinkCallback)
    i.HAL_ETH_SetMACConfig                   0x08001ff0   Section        0  stm32h7xx_hal_eth.o(i.HAL_ETH_SetMACConfig)
    i.HAL_ETH_SetMDIOClockRange              0x08002014   Section        0  stm32h7xx_hal_eth.o(i.HAL_ETH_SetMDIOClockRange)
    i.HAL_ETH_Start_IT                       0x0800208c   Section        0  stm32h7xx_hal_eth.o(i.HAL_ETH_Start_IT)
    i.HAL_ETH_Stop                           0x0800216c   Section        0  stm32h7xx_hal_eth.o(i.HAL_ETH_Stop)
    i.HAL_ETH_Transmit                       0x080021e0   Section        0  stm32h7xx_hal_eth.o(i.HAL_ETH_Transmit)
    i.HAL_ETH_TxCpltCallback                 0x080022d6   Section        0  stm32h7xx_hal_eth.o(i.HAL_ETH_TxCpltCallback)
    i.HAL_ETH_WakeUpCallback                 0x080022d8   Section        0  stm32h7xx_hal_eth.o(i.HAL_ETH_WakeUpCallback)
    i.HAL_ETH_WritePHYRegister               0x080022dc   Section        0  stm32h7xx_hal_eth.o(i.HAL_ETH_WritePHYRegister)
    i.HAL_GPIO_Init                          0x0800235c   Section        0  stm32h7xx_hal_gpio.o(i.HAL_GPIO_Init)
    i.HAL_GPIO_WritePin                      0x08002558   Section        0  stm32h7xx_hal_gpio.o(i.HAL_GPIO_WritePin)
    i.HAL_GetREVID                           0x08002564   Section        0  stm32h7xx_hal.o(i.HAL_GetREVID)
    i.HAL_GetTick                            0x08002570   Section        0  stm32h7xx_hal.o(i.HAL_GetTick)
    i.HAL_IncTick                            0x0800257c   Section        0  stm32h7xx_hal.o(i.HAL_IncTick)
    i.HAL_Init                               0x08002594   Section        0  stm32h7xx_hal.o(i.HAL_Init)
    i.HAL_InitTick                           0x080025f4   Section        0  stm32h7xx_hal.o(i.HAL_InitTick)
    i.HAL_MPU_ConfigRegion                   0x0800264c   Section        0  stm32h7xx_hal_cortex.o(i.HAL_MPU_ConfigRegion)
    i.HAL_MPU_Disable                        0x080026a8   Section        0  stm32h7xx_hal_cortex.o(i.HAL_MPU_Disable)
    i.HAL_MPU_Enable                         0x080026d4   Section        0  stm32h7xx_hal_cortex.o(i.HAL_MPU_Enable)
    i.HAL_MspInit                            0x08002714   Section        0  stm32h7xx_hal_msp.o(i.HAL_MspInit)
    i.HAL_NVIC_EnableIRQ                     0x08002738   Section        0  stm32h7xx_hal_cortex.o(i.HAL_NVIC_EnableIRQ)
    i.HAL_NVIC_SetPriority                   0x08002760   Section        0  stm32h7xx_hal_cortex.o(i.HAL_NVIC_SetPriority)
    i.HAL_NVIC_SetPriorityGrouping           0x080027dc   Section        0  stm32h7xx_hal_cortex.o(i.HAL_NVIC_SetPriorityGrouping)
    i.HAL_PWREx_ConfigSupply                 0x08002804   Section        0  stm32h7xx_hal_pwr_ex.o(i.HAL_PWREx_ConfigSupply)
    i.HAL_RCCEx_GetD3PCLK1Freq               0x08002864   Section        0  stm32h7xx_hal_rcc_ex.o(i.HAL_RCCEx_GetD3PCLK1Freq)
    i.HAL_RCCEx_GetPLL2ClockFreq             0x08002888   Section        0  stm32h7xx_hal_rcc_ex.o(i.HAL_RCCEx_GetPLL2ClockFreq)
    i.HAL_RCCEx_GetPLL3ClockFreq             0x08002ab8   Section        0  stm32h7xx_hal_rcc_ex.o(i.HAL_RCCEx_GetPLL3ClockFreq)
    i.HAL_RCCEx_PeriphCLKConfig              0x08002ce8   Section        0  stm32h7xx_hal_rcc_ex.o(i.HAL_RCCEx_PeriphCLKConfig)
    i.HAL_RCC_ClockConfig                    0x08003a50   Section        0  stm32h7xx_hal_rcc.o(i.HAL_RCC_ClockConfig)
    i.HAL_RCC_GetHCLKFreq                    0x08003d70   Section        0  stm32h7xx_hal_rcc.o(i.HAL_RCC_GetHCLKFreq)
    i.HAL_RCC_GetPCLK1Freq                   0x08003dbc   Section        0  stm32h7xx_hal_rcc.o(i.HAL_RCC_GetPCLK1Freq)
    i.HAL_RCC_GetPCLK2Freq                   0x08003de0   Section        0  stm32h7xx_hal_rcc.o(i.HAL_RCC_GetPCLK2Freq)
    i.HAL_RCC_GetSysClockFreq                0x08003e04   Section        0  stm32h7xx_hal_rcc.o(i.HAL_RCC_GetSysClockFreq)
    i.HAL_RCC_OscConfig                      0x08004030   Section        0  stm32h7xx_hal_rcc.o(i.HAL_RCC_OscConfig)
    i.HAL_SYSCFG_ETHInterfaceSelect          0x08004888   Section        0  stm32h7xx_hal.o(i.HAL_SYSCFG_ETHInterfaceSelect)
    i.HAL_SYSTICK_Config                     0x0800489c   Section        0  stm32h7xx_hal_cortex.o(i.HAL_SYSTICK_Config)
    i.HAL_UARTEx_DisableFifoMode             0x080048d0   Section        0  stm32h7xx_hal_uart_ex.o(i.HAL_UARTEx_DisableFifoMode)
    i.HAL_UARTEx_RxEventCallback             0x0800491e   Section        0  stm32h7xx_hal_uart.o(i.HAL_UARTEx_RxEventCallback)
    i.HAL_UARTEx_RxFifoFullCallback          0x08004920   Section        0  stm32h7xx_hal_uart_ex.o(i.HAL_UARTEx_RxFifoFullCallback)
    i.HAL_UARTEx_SetRxFifoThreshold          0x08004922   Section        0  stm32h7xx_hal_uart_ex.o(i.HAL_UARTEx_SetRxFifoThreshold)
    i.HAL_UARTEx_SetTxFifoThreshold          0x08004980   Section        0  stm32h7xx_hal_uart_ex.o(i.HAL_UARTEx_SetTxFifoThreshold)
    i.HAL_UARTEx_TxFifoEmptyCallback         0x080049de   Section        0  stm32h7xx_hal_uart_ex.o(i.HAL_UARTEx_TxFifoEmptyCallback)
    i.HAL_UARTEx_WakeupCallback              0x080049e0   Section        0  stm32h7xx_hal_uart_ex.o(i.HAL_UARTEx_WakeupCallback)
    i.HAL_UART_ErrorCallback                 0x080049e2   Section        0  stm32h7xx_hal_uart.o(i.HAL_UART_ErrorCallback)
    i.HAL_UART_IRQHandler                    0x080049e4   Section        0  stm32h7xx_hal_uart.o(i.HAL_UART_IRQHandler)
    i.HAL_UART_Init                          0x08004e78   Section        0  stm32h7xx_hal_uart.o(i.HAL_UART_Init)
    i.HAL_UART_MspInit                       0x08004ef0   Section        0  usart.o(i.HAL_UART_MspInit)
    i.HAL_UART_TxCpltCallback                0x08004fb4   Section        0  stm32h7xx_hal_uart.o(i.HAL_UART_TxCpltCallback)
    i.HardFault_Handler                      0x08004fb6   Section        0  stm32h7xx_it.o(i.HardFault_Handler)
    i.LAN8742_GetLinkState                   0x08004fba   Section        0  lan8742.o(i.LAN8742_GetLinkState)
    i.LAN8742_Init                           0x080050a2   Section        0  lan8742.o(i.LAN8742_Init)
    i.LAN8742_RegisterBusIO                  0x080051a0   Section        0  lan8742.o(i.LAN8742_RegisterBusIO)
    i.MPU_Config                             0x080051d0   Section        0  main.o(i.MPU_Config)
    MPU_Config                               0x080051d1   Thumb Code    90  main.o(i.MPU_Config)
    i.MX_GPIO_Init                           0x08005230   Section        0  gpio.o(i.MX_GPIO_Init)
    i.MX_LWIP_Init                           0x08005354   Section        0  lwip.o(i.MX_LWIP_Init)
    i.MX_LWIP_Process                        0x08005594   Section        0  lwip.o(i.MX_LWIP_Process)
    i.MX_USART1_UART_Init                    0x080055a8   Section        0  usart.o(i.MX_USART1_UART_Init)
    i.MemManage_Handler                      0x08005614   Section        0  stm32h7xx_it.o(i.MemManage_Handler)
    i.NMI_Handler                            0x08005618   Section        0  stm32h7xx_it.o(i.NMI_Handler)
    i.PendSV_Handler                         0x0800561c   Section        0  stm32h7xx_it.o(i.PendSV_Handler)
    i.RCCEx_PLL2_Config                      0x08005620   Section        0  stm32h7xx_hal_rcc_ex.o(i.RCCEx_PLL2_Config)
    RCCEx_PLL2_Config                        0x08005621   Thumb Code   350  stm32h7xx_hal_rcc_ex.o(i.RCCEx_PLL2_Config)
    i.RCCEx_PLL3_Config                      0x08005784   Section        0  stm32h7xx_hal_rcc_ex.o(i.RCCEx_PLL3_Config)
    RCCEx_PLL3_Config                        0x08005785   Thumb Code   350  stm32h7xx_hal_rcc_ex.o(i.RCCEx_PLL3_Config)
    i.SVC_Handler                            0x080058e8   Section        0  stm32h7xx_it.o(i.SVC_Handler)
    i.SysTick_Handler                        0x080058ea   Section        0  stm32h7xx_it.o(i.SysTick_Handler)
    i.SystemClock_Config                     0x080058f4   Section        0  main.o(i.SystemClock_Config)
    i.SystemInit                             0x08005a30   Section        0  system_stm32h7xx.o(i.SystemInit)
    i.TCP_Client_PT_Init                     0x08005b2c   Section        0  tcp_client.o(i.TCP_Client_PT_Init)
    i.TCP_Server_Init                        0x08005b40   Section        0  tcp_server.o(i.TCP_Server_Init)
    i.TCP_Server_PT_Init                     0x08005b98   Section        0  tcp_server.o(i.TCP_Server_PT_Init)
    i.UARTEx_SetNbDataToProcess              0x08005bac   Section        0  stm32h7xx_hal_uart_ex.o(i.UARTEx_SetNbDataToProcess)
    UARTEx_SetNbDataToProcess                0x08005bad   Thumb Code    78  stm32h7xx_hal_uart_ex.o(i.UARTEx_SetNbDataToProcess)
    i.UART_AdvFeatureConfig                  0x08005c04   Section        0  stm32h7xx_hal_uart.o(i.UART_AdvFeatureConfig)
    i.UART_CheckIdleState                    0x08005cfc   Section        0  stm32h7xx_hal_uart.o(i.UART_CheckIdleState)
    i.UART_DMAAbortOnError                   0x08005de6   Section        0  stm32h7xx_hal_uart.o(i.UART_DMAAbortOnError)
    UART_DMAAbortOnError                     0x08005de7   Thumb Code    24  stm32h7xx_hal_uart.o(i.UART_DMAAbortOnError)
    i.UART_EndRxTransfer                     0x08005e00   Section        0  stm32h7xx_hal_uart.o(i.UART_EndRxTransfer)
    UART_EndRxTransfer                       0x08005e01   Thumb Code   104  stm32h7xx_hal_uart.o(i.UART_EndRxTransfer)
    i.UART_EndTransmit_IT                    0x08005e6c   Section        0  stm32h7xx_hal_uart.o(i.UART_EndTransmit_IT)
    UART_EndTransmit_IT                      0x08005e6d   Thumb Code    48  stm32h7xx_hal_uart.o(i.UART_EndTransmit_IT)
    i.UART_SetConfig                         0x08005e9c   Section        0  stm32h7xx_hal_uart.o(i.UART_SetConfig)
    i.UART_WaitOnFlagUntilTimeout            0x08006428   Section        0  stm32h7xx_hal_uart.o(i.UART_WaitOnFlagUntilTimeout)
    i.USART1_IRQHandler                      0x080064cc   Section        0  stm32h7xx_it.o(i.USART1_IRQHandler)
    i.Udp_Lwip_Init                          0x080064dc   Section        0  lwip_udp.o(i.Udp_Lwip_Init)
    i.UsageFault_Handler                     0x08006540   Section        0  stm32h7xx_it.o(i.UsageFault_Handler)
    i.__0printf$8                            0x08006544   Section        0  printf8.o(i.__0printf$8)
    i.__NVIC_GetPriorityGrouping             0x08006564   Section        0  stm32h7xx_hal_cortex.o(i.__NVIC_GetPriorityGrouping)
    __NVIC_GetPriorityGrouping               0x08006565   Thumb Code    10  stm32h7xx_hal_cortex.o(i.__NVIC_GetPriorityGrouping)
    i.__NVIC_SetPriority                     0x08006574   Section        0  stm32h7xx_hal_cortex.o(i.__NVIC_SetPriority)
    __NVIC_SetPriority                       0x08006575   Thumb Code    32  stm32h7xx_hal_cortex.o(i.__NVIC_SetPriority)
    i.__scatterload_copy                     0x0800659c   Section       14  handlers.o(i.__scatterload_copy)
    i.__scatterload_null                     0x080065aa   Section        2  handlers.o(i.__scatterload_null)
    i.__scatterload_zeroinit                 0x080065ac   Section       14  handlers.o(i.__scatterload_zeroinit)
    i._printf_core                           0x080065bc   Section        0  printf8.o(i._printf_core)
    _printf_core                             0x080065bd   Thumb Code   984  printf8.o(i._printf_core)
    i._printf_post_padding                   0x080069c0   Section        0  printf8.o(i._printf_post_padding)
    _printf_post_padding                     0x080069c1   Thumb Code    36  printf8.o(i._printf_post_padding)
    i._printf_pre_padding                    0x080069e4   Section        0  printf8.o(i._printf_pre_padding)
    _printf_pre_padding                      0x080069e5   Thumb Code    46  printf8.o(i._printf_pre_padding)
    i.client_set_remote_ip                   0x08006a14   Section        0  tcp_client.o(i.client_set_remote_ip)
    i.do_memp_free_pool                      0x08006b2c   Section        0  memp.o(i.do_memp_free_pool)
    do_memp_free_pool                        0x08006b2d   Thumb Code    50  memp.o(i.do_memp_free_pool)
    i.do_memp_malloc_pool                    0x08006bd8   Section        0  memp.o(i.do_memp_malloc_pool)
    do_memp_malloc_pool                      0x08006bd9   Thumb Code    56  memp.o(i.do_memp_malloc_pool)
    i.etharp_cleanup_netif                   0x08006c8c   Section        0  etharp.o(i.etharp_cleanup_netif)
    i.etharp_find_entry                      0x08006cc4   Section        0  etharp.o(i.etharp_find_entry)
    etharp_find_entry                        0x08006cc5   Thumb Code   514  etharp.o(i.etharp_find_entry)
    i.etharp_free_entry                      0x08006fc4   Section        0  etharp.o(i.etharp_free_entry)
    etharp_free_entry                        0x08006fc5   Thumb Code    58  etharp.o(i.etharp_free_entry)
    i.etharp_input                           0x08007004   Section        0  etharp.o(i.etharp_input)
    i.etharp_output                          0x08007140   Section        0  etharp.o(i.etharp_output)
    i.etharp_output_to_arp_index             0x08007364   Section        0  etharp.o(i.etharp_output_to_arp_index)
    etharp_output_to_arp_index               0x08007365   Thumb Code   212  etharp.o(i.etharp_output_to_arp_index)
    i.etharp_query                           0x080074cc   Section        0  etharp.o(i.etharp_query)
    i.etharp_raw                             0x08007770   Section        0  etharp.o(i.etharp_raw)
    etharp_raw                               0x08007771   Thumb Code   226  etharp.o(i.etharp_raw)
    i.etharp_request                         0x080078fc   Section        0  etharp.o(i.etharp_request)
    i.etharp_request_dst                     0x08007914   Section        0  etharp.o(i.etharp_request_dst)
    etharp_request_dst                       0x08007915   Thumb Code    38  etharp.o(i.etharp_request_dst)
    i.etharp_tmr                             0x08007940   Section        0  etharp.o(i.etharp_tmr)
    i.etharp_update_arp_entry                0x08007a1c   Section        0  etharp.o(i.etharp_update_arp_entry)
    etharp_update_arp_entry                  0x08007a1d   Thumb Code   212  etharp.o(i.etharp_update_arp_entry)
    i.ethernet_input                         0x08007b78   Section        0  ethernet.o(i.ethernet_input)
    i.ethernet_link_check_state              0x08007c3c   Section        0  ethernetif.o(i.ethernet_link_check_state)
    i.ethernet_link_status_updated           0x08007d08   Section        0  lwip.o(i.ethernet_link_status_updated)
    ethernet_link_status_updated             0x08007d09   Thumb Code    30  lwip.o(i.ethernet_link_status_updated)
    i.ethernet_output                        0x08007d68   Section        0  ethernet.o(i.ethernet_output)
    i.ethernetif_init                        0x08007e6c   Section        0  ethernetif.o(i.ethernetif_init)
    i.ethernetif_input                       0x08007f04   Section        0  ethernetif.o(i.ethernetif_input)
    i.fputc                                  0x08007f68   Section        0  main.o(i.fputc)
    i.icmp_dest_unreach                      0x08007f84   Section        0  icmp.o(i.icmp_dest_unreach)
    i.icmp_input                             0x08007f98   Section        0  icmp.o(i.icmp_input)
    i.icmp_send_response                     0x0800823c   Section        0  icmp.o(i.icmp_send_response)
    icmp_send_response                       0x0800823d   Thumb Code   152  icmp.o(i.icmp_send_response)
    i.icmp_time_exceeded                     0x08008360   Section        0  icmp.o(i.icmp_time_exceeded)
    i.inet_chksum                            0x08008372   Section        0  inet_chksum.o(i.inet_chksum)
    i.inet_chksum_pbuf                       0x08008386   Section        0  inet_chksum.o(i.inet_chksum_pbuf)
    i.ip4_addr_isbroadcast_u32               0x080083dc   Section        0  ip4_addr.o(i.ip4_addr_isbroadcast_u32)
    i.ip4_frag                               0x0800842c   Section        0  ip4_frag.o(i.ip4_frag)
    i.ip4_input                              0x080086f8   Section        0  ip4.o(i.ip4_input)
    i.ip4_input_accept                       0x08008894   Section        0  ip4.o(i.ip4_input_accept)
    ip4_input_accept                         0x08008895   Thumb Code    48  ip4.o(i.ip4_input_accept)
    i.ip4_output_if                          0x080088c8   Section        0  ip4.o(i.ip4_output_if)
    i.ip4_output_if_src                      0x08008900   Section        0  ip4.o(i.ip4_output_if_src)
    i.ip4_reass                              0x08008a9c   Section        0  ip4_frag.o(i.ip4_reass)
    i.ip4_route                              0x08008d98   Section        0  ip4.o(i.ip4_route)
    i.ip_frag_alloc_pbuf_custom_ref          0x08008e2c   Section        0  ip4_frag.o(i.ip_frag_alloc_pbuf_custom_ref)
    ip_frag_alloc_pbuf_custom_ref            0x08008e2d   Thumb Code    10  ip4_frag.o(i.ip_frag_alloc_pbuf_custom_ref)
    i.ip_frag_free_pbuf_custom_ref           0x08008e38   Section        0  ip4_frag.o(i.ip_frag_free_pbuf_custom_ref)
    ip_frag_free_pbuf_custom_ref             0x08008e39   Thumb Code    40  ip4_frag.o(i.ip_frag_free_pbuf_custom_ref)
    i.ip_reass_chain_frag_into_datagram_and_validate 0x08008ed0   Section        0  ip4_frag.o(i.ip_reass_chain_frag_into_datagram_and_validate)
    ip_reass_chain_frag_into_datagram_and_validate 0x08008ed1   Thumb Code   530  ip4_frag.o(i.ip_reass_chain_frag_into_datagram_and_validate)
    i.ip_reass_dequeue_datagram              0x080091d4   Section        0  ip4_frag.o(i.ip_reass_dequeue_datagram)
    ip_reass_dequeue_datagram                0x080091d5   Thumb Code    62  ip4_frag.o(i.ip_reass_dequeue_datagram)
    i.ip_reass_enqueue_new_datagram          0x08009298   Section        0  ip4_frag.o(i.ip_reass_enqueue_new_datagram)
    ip_reass_enqueue_new_datagram            0x08009299   Thumb Code    80  ip4_frag.o(i.ip_reass_enqueue_new_datagram)
    i.ip_reass_free_complete_datagram        0x080092ec   Section        0  ip4_frag.o(i.ip_reass_free_complete_datagram)
    ip_reass_free_complete_datagram          0x080092ed   Thumb Code   274  ip4_frag.o(i.ip_reass_free_complete_datagram)
    i.ip_reass_remove_oldest_datagram        0x080094cc   Section        0  ip4_frag.o(i.ip_reass_remove_oldest_datagram)
    ip_reass_remove_oldest_datagram          0x080094cd   Thumb Code   130  ip4_frag.o(i.ip_reass_remove_oldest_datagram)
    i.ip_reass_tmr                           0x08009554   Section        0  ip4_frag.o(i.ip_reass_tmr)
    i.ipfrag_free_pbuf_custom                0x08009588   Section        0  ip4_frag.o(i.ipfrag_free_pbuf_custom)
    ipfrag_free_pbuf_custom                  0x08009589   Thumb Code    76  ip4_frag.o(i.ipfrag_free_pbuf_custom)
    i.low_level_init                         0x08009650   Section        0  ethernetif.o(i.low_level_init)
    low_level_init                           0x08009651   Thumb Code   218  ethernetif.o(i.low_level_init)
    i.low_level_input                        0x0800974c   Section        0  ethernetif.o(i.low_level_input)
    low_level_input                          0x0800974d   Thumb Code   146  ethernetif.o(i.low_level_input)
    i.low_level_output                       0x080097f0   Section        0  ethernetif.o(i.low_level_output)
    low_level_output                         0x080097f1   Thumb Code   282  ethernetif.o(i.low_level_output)
    i.lwip_cyclic_timer                      0x0800991c   Section        0  timeouts.o(i.lwip_cyclic_timer)
    lwip_cyclic_timer                        0x0800991d   Thumb Code    70  timeouts.o(i.lwip_cyclic_timer)
    i.lwip_htonl                             0x0800996c   Section        0  def.o(i.lwip_htonl)
    i.lwip_htons                             0x08009986   Section        0  def.o(i.lwip_htons)
    i.lwip_init                              0x08009994   Section        0  init.o(i.lwip_init)
    i.lwip_standard_chksum                   0x08009a30   Section        0  inet_chksum.o(i.lwip_standard_chksum)
    i.lwip_udp_discollected                  0x08009a90   Section        0  lwip_udp.o(i.lwip_udp_discollected)
    i.lwip_udp_recv_callback                 0x08009ab4   Section        0  lwip_udp.o(i.lwip_udp_recv_callback)
    i.lwip_udp_register                      0x08009b90   Section        0  lwip_udp.o(i.lwip_udp_register)
    i.lwip_udp_send                          0x08009bac   Section        0  lwip_udp.o(i.lwip_udp_send)
    i.lwip_udp_set_remote_ip                 0x08009bf4   Section        0  lwip_udp.o(i.lwip_udp_set_remote_ip)
    i.main                                   0x08009d04   Section        0  main.o(i.main)
    i.mem_free                               0x08009ebc   Section        0  mem.o(i.mem_free)
    i.mem_init                               0x0800a080   Section        0  mem.o(i.mem_init)
    i.mem_link_valid                         0x0800a0d8   Section        0  mem.o(i.mem_link_valid)
    mem_link_valid                           0x0800a0d9   Thumb Code    82  mem.o(i.mem_link_valid)
    i.mem_malloc                             0x0800a130   Section        0  mem.o(i.mem_malloc)
    i.mem_to_ptr                             0x0800a3d8   Section        0  mem.o(i.mem_to_ptr)
    mem_to_ptr                               0x0800a3d9   Thumb Code    12  mem.o(i.mem_to_ptr)
    i.mem_trim                               0x0800a3e8   Section        0  mem.o(i.mem_trim)
    i.memp_free                              0x0800a61c   Section        0  memp.o(i.memp_free)
    i.memp_free_pool                         0x0800a6cc   Section        0  memp.o(i.memp_free_pool)
    i.memp_init                              0x0800a76c   Section        0  memp.o(i.memp_init)
    i.memp_init_pool                         0x0800a78c   Section        0  memp.o(i.memp_init_pool)
    i.memp_malloc                            0x0800a7b8   Section        0  memp.o(i.memp_malloc)
    i.memp_malloc_pool                       0x0800a868   Section        0  memp.o(i.memp_malloc_pool)
    i.netif_add                              0x0800a900   Section        0  netif.o(i.netif_add)
    i.netif_do_ip_addr_changed               0x0800ab30   Section        0  netif.o(i.netif_do_ip_addr_changed)
    netif_do_ip_addr_changed                 0x0800ab31   Thumb Code    24  netif.o(i.netif_do_ip_addr_changed)
    i.netif_do_set_gw                        0x0800ab48   Section        0  netif.o(i.netif_do_set_gw)
    netif_do_set_gw                          0x0800ab49   Thumb Code    38  netif.o(i.netif_do_set_gw)
    i.netif_do_set_ipaddr                    0x0800ab70   Section        0  netif.o(i.netif_do_set_ipaddr)
    netif_do_set_ipaddr                      0x0800ab71   Thumb Code   116  netif.o(i.netif_do_set_ipaddr)
    i.netif_do_set_netmask                   0x0800ac50   Section        0  netif.o(i.netif_do_set_netmask)
    netif_do_set_netmask                     0x0800ac51   Thumb Code    38  netif.o(i.netif_do_set_netmask)
    i.netif_get_by_index                     0x0800ac78   Section        0  netif.o(i.netif_get_by_index)
    i.netif_init                             0x0800aca0   Section        0  netif.o(i.netif_init)
    i.netif_issue_reports                    0x0800aca4   Section        0  netif.o(i.netif_issue_reports)
    netif_issue_reports                      0x0800aca5   Thumb Code    86  netif.o(i.netif_issue_reports)
    i.netif_null_output_ip4                  0x0800ad7c   Section        0  netif.o(i.netif_null_output_ip4)
    netif_null_output_ip4                    0x0800ad7d   Thumb Code     8  netif.o(i.netif_null_output_ip4)
    i.netif_set_addr                         0x0800ad84   Section        0  netif.o(i.netif_set_addr)
    i.netif_set_default                      0x0800ade4   Section        0  netif.o(i.netif_set_default)
    i.netif_set_down                         0x0800adf0   Section        0  netif.o(i.netif_set_down)
    i.netif_set_link_callback                0x0800aebc   Section        0  netif.o(i.netif_set_link_callback)
    i.netif_set_link_down                    0x0800aec4   Section        0  netif.o(i.netif_set_link_down)
    i.netif_set_link_up                      0x0800af90   Section        0  netif.o(i.netif_set_link_up)
    i.netif_set_up                           0x0800b064   Section        0  netif.o(i.netif_set_up)
    i.pbuf_add_header                        0x0800b124   Section        0  pbuf.o(i.pbuf_add_header)
    i.pbuf_add_header_impl                   0x0800b138   Section        0  pbuf.o(i.pbuf_add_header_impl)
    pbuf_add_header_impl                     0x0800b139   Thumb Code   130  pbuf.o(i.pbuf_add_header_impl)
    i.pbuf_alloc                             0x0800b220   Section        0  pbuf.o(i.pbuf_alloc)
    i.pbuf_alloc_reference                   0x0800b4c4   Section        0  pbuf.o(i.pbuf_alloc_reference)
    i.pbuf_alloced_custom                    0x0800b580   Section        0  pbuf.o(i.pbuf_alloced_custom)
    i.pbuf_cat                               0x0800b5d4   Section        0  pbuf.o(i.pbuf_cat)
    i.pbuf_chain                             0x0800b724   Section        0  pbuf.o(i.pbuf_chain)
    i.pbuf_clen                              0x0800b73a   Section        0  pbuf.o(i.pbuf_clen)
    i.pbuf_clone                             0x0800b74c   Section        0  pbuf.o(i.pbuf_clone)
    i.pbuf_copy                              0x0800b7fc   Section        0  pbuf.o(i.pbuf_copy)
    i.pbuf_copy_partial                      0x0800ba24   Section        0  pbuf.o(i.pbuf_copy_partial)
    i.pbuf_free                              0x0800bb64   Section        0  pbuf.o(i.pbuf_free)
    i.pbuf_free_custom                       0x0800bd00   Section        0  ethernetif.o(i.pbuf_free_custom)
    i.pbuf_free_ooseq                        0x0800bd28   Section        0  pbuf.o(i.pbuf_free_ooseq)
    i.pbuf_header_force                      0x0800bd58   Section        0  pbuf.o(i.pbuf_header_force)
    i.pbuf_header_impl                       0x0800bd6a   Section        0  pbuf.o(i.pbuf_header_impl)
    pbuf_header_impl                         0x0800bd6b   Thumb Code    34  pbuf.o(i.pbuf_header_impl)
    i.pbuf_init_alloced_pbuf                 0x0800bd8c   Section        0  pbuf.o(i.pbuf_init_alloced_pbuf)
    pbuf_init_alloced_pbuf                   0x0800bd8d   Thumb Code    30  pbuf.o(i.pbuf_init_alloced_pbuf)
    i.pbuf_pool_is_empty                     0x0800bdac   Section        0  pbuf.o(i.pbuf_pool_is_empty)
    pbuf_pool_is_empty                       0x0800bdad   Thumb Code    12  pbuf.o(i.pbuf_pool_is_empty)
    i.pbuf_realloc                           0x0800bdbc   Section        0  pbuf.o(i.pbuf_realloc)
    i.pbuf_ref                               0x0800bf24   Section        0  pbuf.o(i.pbuf_ref)
    i.pbuf_remove_header                     0x0800bfc0   Section        0  pbuf.o(i.pbuf_remove_header)
    i.pbuf_take                              0x0800c0b4   Section        0  pbuf.o(i.pbuf_take)
    i.plug_holes                             0x0800c27c   Section        0  mem.o(i.plug_holes)
    plug_holes                               0x0800c27d   Thumb Code   248  mem.o(i.plug_holes)
    i.ptr_to_mem                             0x0800c454   Section        0  mem.o(i.ptr_to_mem)
    ptr_to_mem                               0x0800c455   Thumb Code    10  mem.o(i.ptr_to_mem)
    i.server_set_local_ip                    0x0800c464   Section        0  tcp_server.o(i.server_set_local_ip)
    i.sys_check_timeouts                     0x0800c574   Section        0  timeouts.o(i.sys_check_timeouts)
    i.sys_now                                0x0800c5d8   Section        0  ethernetif.o(i.sys_now)
    i.sys_timeout                            0x0800c5e0   Section        0  timeouts.o(i.sys_timeout)
    i.sys_timeout_abs                        0x0800c6b0   Section        0  timeouts.o(i.sys_timeout_abs)
    sys_timeout_abs                          0x0800c6b1   Thumb Code   160  timeouts.o(i.sys_timeout_abs)
    i.sys_timeouts_init                      0x0800c7f0   Section        0  timeouts.o(i.sys_timeouts_init)
    i.tcp_abandon                            0x0800c818   Section        0  tcp.o(i.tcp_abandon)
    i.tcp_abort                              0x0800c9ec   Section        0  tcp.o(i.tcp_abort)
    i.tcp_accept                             0x0800c9fa   Section        0  tcp.o(i.tcp_accept)
    i.tcp_accept_null                        0x0800ca0c   Section        0  tcp.o(i.tcp_accept_null)
    tcp_accept_null                          0x0800ca0d   Thumb Code    46  tcp.o(i.tcp_accept_null)
    i.tcp_alloc                              0x0800cab4   Section        0  tcp.o(i.tcp_alloc)
    i.tcp_arg                                0x0800cb70   Section        0  tcp.o(i.tcp_arg)
    i.tcp_bind                               0x0800cb78   Section        0  tcp.o(i.tcp_bind)
    i.tcp_client_connection_close            0x0800cce8   Section        0  tcp_server.o(i.tcp_client_connection_close)
    tcp_client_connection_close              0x0800cce9   Thumb Code    64  tcp_server.o(i.tcp_client_connection_close)
    i.tcp_close                              0x0800cd28   Section        0  tcp.o(i.tcp_close)
    i.tcp_close_shutdown                     0x0800cdd8   Section        0  tcp.o(i.tcp_close_shutdown)
    tcp_close_shutdown                       0x0800cdd9   Thumb Code   356  tcp.o(i.tcp_close_shutdown)
    i.tcp_close_shutdown_fin                 0x0800cfe4   Section        0  tcp.o(i.tcp_close_shutdown_fin)
    tcp_close_shutdown_fin                   0x0800cfe5   Thumb Code   132  tcp.o(i.tcp_close_shutdown_fin)
    i.tcp_create_segment                     0x0800d0cc   Section        0  tcp_out.o(i.tcp_create_segment)
    tcp_create_segment                       0x0800d0cd   Thumb Code   282  tcp_out.o(i.tcp_create_segment)
    i.tcp_eff_send_mss_netif                 0x0800d2a0   Section        0  tcp.o(i.tcp_eff_send_mss_netif)
    i.tcp_enqueue_flags                      0x0800d374   Section        0  tcp_out.o(i.tcp_enqueue_flags)
    i.tcp_err                                0x0800d634   Section        0  tcp.o(i.tcp_err)
    i.tcp_fasttmr                            0x0800d6e0   Section        0  tcp.o(i.tcp_fasttmr)
    i.tcp_free                               0x0800d77c   Section        0  tcp.o(i.tcp_free)
    i.tcp_free_acked_segments                0x0800d810   Section        0  tcp_in.o(i.tcp_free_acked_segments)
    tcp_free_acked_segments                  0x0800d811   Thumb Code   176  tcp_in.o(i.tcp_free_acked_segments)
    i.tcp_free_listen                        0x0800d96c   Section        0  tcp.o(i.tcp_free_listen)
    tcp_free_listen                          0x0800d96d   Thumb Code    40  tcp.o(i.tcp_free_listen)
    i.tcp_free_ooseq                         0x0800da08   Section        0  tcp.o(i.tcp_free_ooseq)
    i.tcp_get_next_optbyte                   0x0800da1c   Section        0  tcp_in.o(i.tcp_get_next_optbyte)
    tcp_get_next_optbyte                     0x0800da1d   Thumb Code    54  tcp_in.o(i.tcp_get_next_optbyte)
    i.tcp_handle_closepend                   0x0800da64   Section        0  tcp.o(i.tcp_handle_closepend)
    tcp_handle_closepend                     0x0800da65   Thumb Code    48  tcp.o(i.tcp_handle_closepend)
    i.tcp_init                               0x0800da98   Section        0  tcp.o(i.tcp_init)
    i.tcp_input                              0x0800dab0   Section        0  tcp_in.o(i.tcp_input)
    i.tcp_input_delayed_close                0x0800e2c8   Section        0  tcp_in.o(i.tcp_input_delayed_close)
    tcp_input_delayed_close                  0x0800e2c9   Thumb Code    92  tcp_in.o(i.tcp_input_delayed_close)
    i.tcp_keepalive                          0x0800e3b0   Section        0  tcp_out.o(i.tcp_keepalive)
    i.tcp_kill_prio                          0x0800e48c   Section        0  tcp.o(i.tcp_kill_prio)
    tcp_kill_prio                            0x0800e48d   Thumb Code    96  tcp.o(i.tcp_kill_prio)
    i.tcp_kill_state                         0x0800e4f4   Section        0  tcp.o(i.tcp_kill_state)
    tcp_kill_state                           0x0800e4f5   Thumb Code    94  tcp.o(i.tcp_kill_state)
    i.tcp_kill_timewait                      0x0800e5c4   Section        0  tcp.o(i.tcp_kill_timewait)
    tcp_kill_timewait                        0x0800e5c5   Thumb Code    50  tcp.o(i.tcp_kill_timewait)
    i.tcp_listen_closed                      0x0800e600   Section        0  tcp.o(i.tcp_listen_closed)
    tcp_listen_closed                        0x0800e601   Thumb Code    82  tcp.o(i.tcp_listen_closed)
    i.tcp_listen_input                       0x0800e6d4   Section        0  tcp_in.o(i.tcp_listen_input)
    tcp_listen_input                         0x0800e6d5   Thumb Code   342  tcp_in.o(i.tcp_listen_input)
    i.tcp_listen_with_backlog                0x0800e8c8   Section        0  tcp.o(i.tcp_listen_with_backlog)
    i.tcp_listen_with_backlog_and_err        0x0800e8dc   Section        0  tcp.o(i.tcp_listen_with_backlog_and_err)
    i.tcp_netif_ip_addr_changed              0x0800eaa0   Section        0  tcp.o(i.tcp_netif_ip_addr_changed)
    i.tcp_netif_ip_addr_changed_pcblist      0x0800eaec   Section        0  tcp.o(i.tcp_netif_ip_addr_changed_pcblist)
    tcp_netif_ip_addr_changed_pcblist        0x0800eaed   Thumb Code    68  tcp.o(i.tcp_netif_ip_addr_changed_pcblist)
    i.tcp_new                                0x0800ebbc   Section        0  tcp.o(i.tcp_new)
    i.tcp_new_port                           0x0800ebc8   Section        0  tcp.o(i.tcp_new_port)
    tcp_new_port                             0x0800ebc9   Thumb Code    96  tcp.o(i.tcp_new_port)
    i.tcp_next_iss                           0x0800ec30   Section        0  tcp.o(i.tcp_next_iss)
    i.tcp_oos_insert_segment                 0x0800ece0   Section        0  tcp_in.o(i.tcp_oos_insert_segment)
    tcp_oos_insert_segment                   0x0800ece1   Thumb Code   164  tcp_in.o(i.tcp_oos_insert_segment)
    i.tcp_output                             0x0800ee0c   Section        0  tcp_out.o(i.tcp_output)
    i.tcp_output_alloc_header                0x0800f170   Section        0  tcp_out.o(i.tcp_output_alloc_header)
    tcp_output_alloc_header                  0x0800f171   Thumb Code    86  tcp_out.o(i.tcp_output_alloc_header)
    i.tcp_output_alloc_header_common         0x0800f24c   Section        0  tcp_out.o(i.tcp_output_alloc_header_common)
    tcp_output_alloc_header_common           0x0800f24d   Thumb Code   152  tcp_out.o(i.tcp_output_alloc_header_common)
    i.tcp_output_control_segment             0x0800f370   Section        0  tcp_out.o(i.tcp_output_control_segment)
    tcp_output_control_segment               0x0800f371   Thumb Code   114  tcp_out.o(i.tcp_output_control_segment)
    i.tcp_output_fill_options                0x0800f46c   Section        0  tcp_out.o(i.tcp_output_fill_options)
    tcp_output_fill_options                  0x0800f46d   Thumb Code   140  tcp_out.o(i.tcp_output_fill_options)
    i.tcp_output_segment                     0x0800f590   Section        0  tcp_out.o(i.tcp_output_segment)
    tcp_output_segment                       0x0800f591   Thumb Code   372  tcp_out.o(i.tcp_output_segment)
    i.tcp_output_segment_busy                0x0800f7dc   Section        0  tcp_out.o(i.tcp_output_segment_busy)
    tcp_output_segment_busy                  0x0800f7dd   Thumb Code    46  tcp_out.o(i.tcp_output_segment_busy)
    i.tcp_parseopt                           0x0800f890   Section        0  tcp_in.o(i.tcp_parseopt)
    tcp_parseopt                             0x0800f891   Thumb Code   176  tcp_in.o(i.tcp_parseopt)
    i.tcp_pbuf_prealloc                      0x0800f9c0   Section        0  tcp_out.o(i.tcp_pbuf_prealloc)
    tcp_pbuf_prealloc                        0x0800f9c1   Thumb Code   194  tcp_out.o(i.tcp_pbuf_prealloc)
    i.tcp_pcb_purge                          0x0800fb38   Section        0  tcp.o(i.tcp_pcb_purge)
    i.tcp_pcb_remove                         0x0800fc14   Section        0  tcp.o(i.tcp_pcb_remove)
    i.tcp_poll                               0x0800fdec   Section        0  tcp.o(i.tcp_poll)
    i.tcp_process                            0x0800fec8   Section        0  tcp_in.o(i.tcp_process)
    tcp_process                              0x0800fec9   Thumb Code  1818  tcp_in.o(i.tcp_process)
    i.tcp_process_refused_data               0x0801060c   Section        0  tcp.o(i.tcp_process_refused_data)
    i.tcp_receive                            0x08010744   Section        0  tcp_in.o(i.tcp_receive)
    tcp_receive                              0x08010745   Thumb Code  3136  tcp_in.o(i.tcp_receive)
    i.tcp_recv                               0x080113c0   Section        0  tcp.o(i.tcp_recv)
    i.tcp_recv_null                          0x0801146c   Section        0  tcp.o(i.tcp_recv_null)
    i.tcp_recved                             0x08011530   Section        0  tcp.o(i.tcp_recved)
    i.tcp_remove_listener                    0x0801164c   Section        0  tcp.o(i.tcp_remove_listener)
    tcp_remove_listener                      0x0801164d   Thumb Code    52  tcp.o(i.tcp_remove_listener)
    i.tcp_rexmit                             0x08011700   Section        0  tcp_out.o(i.tcp_rexmit)
    i.tcp_rexmit_fast                        0x08011804   Section        0  tcp_out.o(i.tcp_rexmit_fast)
    i.tcp_rexmit_rto                         0x08011910   Section        0  tcp_out.o(i.tcp_rexmit_rto)
    i.tcp_rexmit_rto_commit                  0x080119b8   Section        0  tcp_out.o(i.tcp_rexmit_rto_commit)
    i.tcp_rexmit_rto_prepare                 0x08011a70   Section        0  tcp_out.o(i.tcp_rexmit_rto_prepare)
    i.tcp_route                              0x08011b88   Section        0  tcp_out.o(i.tcp_route)
    tcp_route                                0x08011b89   Thumb Code    30  tcp_out.o(i.tcp_route)
    i.tcp_rst                                0x08011ba8   Section        0  tcp_out.o(i.tcp_rst)
    i.tcp_seg_copy                           0x08011cd0   Section        0  tcp.o(i.tcp_seg_copy)
    i.tcp_seg_free                           0x08011d84   Section        0  tcp.o(i.tcp_seg_free)
    i.tcp_segs_free                          0x08011d9e   Section        0  tcp.o(i.tcp_segs_free)
    i.tcp_send_empty_ack                     0x08011db8   Section        0  tcp_out.o(i.tcp_send_empty_ack)
    i.tcp_send_fin                           0x08011ef8   Section        0  tcp_out.o(i.tcp_send_fin)
    i.tcp_sent                               0x08011fd8   Section        0  tcp.o(i.tcp_sent)
    i.tcp_server_accept_cbk                  0x08012084   Section        0  tcp_server.o(i.tcp_server_accept_cbk)
    tcp_server_accept_cbk                    0x08012085   Thumb Code    54  tcp_server.o(i.tcp_server_accept_cbk)
    i.tcp_server_err_cbk                     0x080120c8   Section        0  tcp_server.o(i.tcp_server_err_cbk)
    tcp_server_err_cbk                       0x080120c9   Thumb Code    42  tcp_server.o(i.tcp_server_err_cbk)
    i.tcp_server_poll_cbk                    0x080120f8   Section        0  tcp_server.o(i.tcp_server_poll_cbk)
    tcp_server_poll_cbk                      0x080120f9   Thumb Code    38  tcp_server.o(i.tcp_server_poll_cbk)
    i.tcp_server_recv_cbk                    0x08012120   Section        0  tcp_server.o(i.tcp_server_recv_cbk)
    tcp_server_recv_cbk                      0x08012121   Thumb Code   262  tcp_server.o(i.tcp_server_recv_cbk)
    i.tcp_server_sent_cbk                    0x08012238   Section        0  tcp_server.o(i.tcp_server_sent_cbk)
    tcp_server_sent_cbk                      0x08012239   Thumb Code    18  tcp_server.o(i.tcp_server_sent_cbk)
    i.tcp_slowtmr                            0x0801224c   Section        0  tcp.o(i.tcp_slowtmr)
    i.tcp_split_unsent_seg                   0x0801297c   Section        0  tcp_out.o(i.tcp_split_unsent_seg)
    i.tcp_timer_needed                       0x08012c4c   Section        0  timeouts.o(i.tcp_timer_needed)
    i.tcp_timewait_input                     0x08012c84   Section        0  tcp_in.o(i.tcp_timewait_input)
    tcp_timewait_input                       0x08012c85   Thumb Code   170  tcp_in.o(i.tcp_timewait_input)
    i.tcp_tmr                                0x08012dc8   Section        0  tcp.o(i.tcp_tmr)
    i.tcp_trigger_input_pcb_close            0x08012dec   Section        0  tcp_in.o(i.tcp_trigger_input_pcb_close)
    i.tcp_update_rcv_ann_wnd                 0x08012e00   Section        0  tcp.o(i.tcp_update_rcv_ann_wnd)
    i.tcp_write                              0x08012f18   Section        0  tcp_out.o(i.tcp_write)
    i.tcp_write_checks                       0x0801373c   Section        0  tcp_out.o(i.tcp_write_checks)
    tcp_write_checks                         0x0801373d   Thumb Code   198  tcp_out.o(i.tcp_write_checks)
    i.tcp_zero_window_probe                  0x080138f0   Section        0  tcp_out.o(i.tcp_zero_window_probe)
    i.tcpip_tcp_timer                        0x08013a60   Section        0  timeouts.o(i.tcpip_tcp_timer)
    tcpip_tcp_timer                          0x08013a61   Thumb Code    40  timeouts.o(i.tcpip_tcp_timer)
    i.udp_bind                               0x08013a98   Section        0  udp.o(i.udp_bind)
    i.udp_connect                            0x08013bbc   Section        0  udp.o(i.udp_connect)
    i.udp_disconnect                         0x08013cf0   Section        0  udp.o(i.udp_disconnect)
    i.udp_init                               0x08013d9c   Section        0  udp.o(i.udp_init)
    i.udp_input                              0x08013db4   Section        0  udp.o(i.udp_input)
    i.udp_input_local_match                  0x08014000   Section        0  udp.o(i.udp_input_local_match)
    udp_input_local_match                    0x08014001   Thumb Code   144  udp.o(i.udp_input_local_match)
    i.udp_netif_ip_addr_changed              0x08014138   Section        0  udp.o(i.udp_netif_ip_addr_changed)
    i.udp_new                                0x08014168   Section        0  udp.o(i.udp_new)
    i.udp_new_port                           0x08014184   Section        0  udp.o(i.udp_new_port)
    udp_new_port                             0x08014185   Thumb Code    80  udp.o(i.udp_new_port)
    i.udp_recv                               0x080141dc   Section        0  udp.o(i.udp_recv)
    i.udp_remove                             0x08014278   Section        0  udp.o(i.udp_remove)
    i.udp_send                               0x0801434c   Section        0  udp.o(i.udp_send)
    i.udp_sendto                             0x08014428   Section        0  udp.o(i.udp_sendto)
    i.udp_sendto_if                          0x0801456c   Section        0  udp.o(i.udp_sendto_if)
    i.udp_sendto_if_src                      0x08014704   Section        0  udp.o(i.udp_sendto_if_src)
    .constdata                               0x080149b8   Section       12  ethernetif.o(.constdata)
    .constdata                               0x080149c4   Section       24  stm32h7xx_hal_uart.o(.constdata)
    .constdata                               0x080149dc   Section       16  stm32h7xx_hal_uart_ex.o(.constdata)
    numerator                                0x080149dc   Data           8  stm32h7xx_hal_uart_ex.o(.constdata)
    denominator                              0x080149e4   Data           8  stm32h7xx_hal_uart_ex.o(.constdata)
    .constdata                               0x080149ec   Section       16  system_stm32h7xx.o(.constdata)
    .constdata                               0x080149fc   Section       12  ethernet.o(.constdata)
    .constdata                               0x08014a08   Section      144  memp.o(.constdata)
    .constdata                               0x08014a98   Section       80  tcp.o(.constdata)
    tcp_state_str                            0x08014a98   Data          44  tcp.o(.constdata)
    tcp_backoff                              0x08014ac4   Data          13  tcp.o(.constdata)
    tcp_persist_backoff                      0x08014ad1   Data           7  tcp.o(.constdata)
    .constdata                               0x08014ae8   Section       28  timeouts.o(.constdata)
    .constdata                               0x08014b04   Section        8  ip4_addr.o(.constdata)
    .conststring                             0x08014b0c   Section       65  init.o(.conststring)
    .conststring                             0x08014b50   Section      117  tcp.o(.conststring)
    .conststring                             0x08014bc8   Section       85  tcp_out.o(.conststring)
    .conststring                             0x08014c20   Section       65  etharp.o(.conststring)
    .data                                    0x24000000   Section       28  main.o(.data)
    .data                                    0x2400001c   Section       28  ethernetif.o(.data)
    memp_tab_RX_POOL                         0x2400001c   Data           4  ethernetif.o(.data)
    RxAllocStatus                            0x24000020   Data           1  ethernetif.o(.data)
    .data                                    0x24000038   Section       28  lwip.o(.data)
    .data                                    0x24000054   Section     3052  lwip_udp.o(.data)
    .data                                    0x24000c40   Section    18076  tcp_client.o(.data)
    .data                                    0x240052e0   Section    18076  tcp_server.o(.data)
    .data                                    0x2400997c   Section        9  stm32h7xx_hal.o(.data)
    .data                                    0x24009988   Section        8  system_stm32h7xx.o(.data)
    .data                                    0x24009990   Section       12  mem.o(.data)
    ram                                      0x24009990   Data           4  mem.o(.data)
    ram_end                                  0x24009994   Data           4  mem.o(.data)
    lfree                                    0x24009998   Data           4  mem.o(.data)
    .data                                    0x2400999c   Section       36  memp.o(.data)
    memp_tab_UDP_PCB                         0x2400999c   Data           4  memp.o(.data)
    memp_tab_TCP_PCB                         0x240099a0   Data           4  memp.o(.data)
    memp_tab_TCP_PCB_LISTEN                  0x240099a4   Data           4  memp.o(.data)
    memp_tab_TCP_SEG                         0x240099a8   Data           4  memp.o(.data)
    memp_tab_REASSDATA                       0x240099ac   Data           4  memp.o(.data)
    memp_tab_FRAG_PBUF                       0x240099b0   Data           4  memp.o(.data)
    memp_tab_SYS_TIMEOUT                     0x240099b4   Data           4  memp.o(.data)
    memp_tab_PBUF                            0x240099b8   Data           4  memp.o(.data)
    memp_tab_PBUF_POOL                       0x240099bc   Data           4  memp.o(.data)
    .data                                    0x240099c0   Section        9  netif.o(.data)
    netif_num                                0x240099c8   Data           1  netif.o(.data)
    .data                                    0x240099c9   Section        1  pbuf.o(.data)
    .data                                    0x240099cc   Section       32  tcp.o(.data)
    tcp_port                                 0x240099cc   Data           2  tcp.o(.data)
    tcp_timer                                0x240099e5   Data           1  tcp.o(.data)
    tcp_timer_ctr                            0x240099e6   Data           1  tcp.o(.data)
    iss                                      0x240099e8   Data           4  tcp.o(.data)
    .data                                    0x240099ec   Section       40  tcp_in.o(.data)
    tcphdr                                   0x240099ec   Data           4  tcp_in.o(.data)
    tcphdr_optlen                            0x240099f0   Data           2  tcp_in.o(.data)
    tcphdr_opt1len                           0x240099f2   Data           2  tcp_in.o(.data)
    tcphdr_opt2                              0x240099f4   Data           4  tcp_in.o(.data)
    tcp_optidx                               0x240099f8   Data           2  tcp_in.o(.data)
    seqno                                    0x240099fc   Data           4  tcp_in.o(.data)
    ackno                                    0x24009a00   Data           4  tcp_in.o(.data)
    recv_acked                               0x24009a04   Data           2  tcp_in.o(.data)
    tcplen                                   0x24009a06   Data           2  tcp_in.o(.data)
    flags                                    0x24009a08   Data           1  tcp_in.o(.data)
    recv_flags                               0x24009a09   Data           1  tcp_in.o(.data)
    recv_data                                0x24009a0c   Data           4  tcp_in.o(.data)
    .data                                    0x24009a14   Section       12  timeouts.o(.data)
    next_timeout                             0x24009a14   Data           4  timeouts.o(.data)
    current_timeout_due_time                 0x24009a18   Data           4  timeouts.o(.data)
    tcpip_tcp_timer_active                   0x24009a1c   Data           4  timeouts.o(.data)
    .data                                    0x24009a20   Section        8  udp.o(.data)
    udp_port                                 0x24009a20   Data           2  udp.o(.data)
    .data                                    0x24009a28   Section        1  etharp.o(.data)
    etharp_cached_entry                      0x24009a28   Data           1  etharp.o(.data)
    .data                                    0x24009a2a   Section        2  ip4.o(.data)
    ip_id                                    0x24009a2a   Data           2  ip4.o(.data)
    .data                                    0x24009a2c   Section        6  ip4_frag.o(.data)
    reassdatagrams                           0x24009a2c   Data           4  ip4_frag.o(.data)
    ip_reass_pbufcount                       0x24009a30   Data           2  ip4_frag.o(.data)
    .data                                    0x24009a34   Section        4  rand.o(.data)
    _rand_state                              0x24009a34   Data           4  rand.o(.data)
    .data                                    0x24009a38   Section        4  stdout.o(.data)
    .bss                                     0x24009a3c   Section     1504  main.o(.bss)
    .bss                                     0x2400a01c   Section      148  usart.o(.bss)
    .bss                                     0x2400a0b0   Section    19084  ethernetif.o(.bss)
    .bss                                     0x2400eb3c   Section       52  lwip.o(.bss)
    .bss                                     0x2400eb70   Section       24  ip.o(.bss)
    .bss                                     0x2400eb88   Section    26751  memp.o(.bss)
    .bss                                     0x24015408   Section       16  tcp_in.o(.bss)
    inseg                                    0x24015408   Data          16  tcp_in.o(.bss)
    .bss                                     0x24015418   Section      240  etharp.o(.bss)
    arp_table                                0x24015418   Data         240  etharp.o(.bss)
    STACK                                    0x24015508   Section     1024  startup_stm32h743xx.o(STACK)
    .ARM.__AT_0x30004000                     0x30004000   Section       96  ethernetif.o(.ARM.__AT_0x30004000)
    .ARM.__AT_0x30004060                     0x30004060   Section       96  ethernetif.o(.ARM.__AT_0x30004060)

    Global Symbols

    Symbol Name                              Value     Ov Type        Size  Object(Section)

    BuildAttributes$$THM_ISAv4$E$P$D$K$B$S$7EM$VFPv5_D16$PE$PLD8$A:L22UL41UL21$X:L11$S22US41US21$IEEE1$IW$USESV6$~STKCKD$USESV7$~SHL$OSPACE$ROPI$EBA8$MICROLIB$REQ8$PRES8$EABIv2 0x00000000   Number         0  anon$$obj.o ABSOLUTE
    __ARM_use_no_argv                        0x00000000   Number         0  main.o ABSOLUTE
    _printf_a                                0x00000000   Number         0  stubs.o ABSOLUTE
    _printf_c                                0x00000000   Number         0  stubs.o ABSOLUTE
    _printf_charcount                        0x00000000   Number         0  stubs.o ABSOLUTE
    _printf_d                                0x00000000   Number         0  stubs.o ABSOLUTE
    _printf_e                                0x00000000   Number         0  stubs.o ABSOLUTE
    _printf_f                                0x00000000   Number         0  stubs.o ABSOLUTE
    _printf_flags                            0x00000000   Number         0  stubs.o ABSOLUTE
    _printf_fp_dec                           0x00000000   Number         0  stubs.o ABSOLUTE
    _printf_fp_hex                           0x00000000   Number         0  stubs.o ABSOLUTE
    _printf_g                                0x00000000   Number         0  stubs.o ABSOLUTE
    _printf_i                                0x00000000   Number         0  stubs.o ABSOLUTE
    _printf_int_dec                          0x00000000   Number         0  stubs.o ABSOLUTE
    _printf_l                                0x00000000   Number         0  stubs.o ABSOLUTE
    _printf_lc                               0x00000000   Number         0  stubs.o ABSOLUTE
    _printf_ll                               0x00000000   Number         0  stubs.o ABSOLUTE
    _printf_lld                              0x00000000   Number         0  stubs.o ABSOLUTE
    _printf_lli                              0x00000000   Number         0  stubs.o ABSOLUTE
    _printf_llo                              0x00000000   Number         0  stubs.o ABSOLUTE
    _printf_llu                              0x00000000   Number         0  stubs.o ABSOLUTE
    _printf_llx                              0x00000000   Number         0  stubs.o ABSOLUTE
    _printf_longlong_dec                     0x00000000   Number         0  stubs.o ABSOLUTE
    _printf_longlong_hex                     0x00000000   Number         0  stubs.o ABSOLUTE
    _printf_longlong_oct                     0x00000000   Number         0  stubs.o ABSOLUTE
    _printf_ls                               0x00000000   Number         0  stubs.o ABSOLUTE
    _printf_mbtowc                           0x00000000   Number         0  stubs.o ABSOLUTE
    _printf_n                                0x00000000   Number         0  stubs.o ABSOLUTE
    _printf_o                                0x00000000   Number         0  stubs.o ABSOLUTE
    _printf_p                                0x00000000   Number         0  stubs.o ABSOLUTE
    _printf_percent                          0x00000000   Number         0  stubs.o ABSOLUTE
    _printf_pre_padding                      0x00000000   Number         0  stubs.o ABSOLUTE
    _printf_return_value                     0x00000000   Number         0  stubs.o ABSOLUTE
    _printf_s                                0x00000000   Number         0  stubs.o ABSOLUTE
    _printf_sizespec                         0x00000000   Number         0  stubs.o ABSOLUTE
    _printf_str                              0x00000000   Number         0  stubs.o ABSOLUTE
    _printf_truncate_signed                  0x00000000   Number         0  stubs.o ABSOLUTE
    _printf_truncate_unsigned                0x00000000   Number         0  stubs.o ABSOLUTE
    _printf_u                                0x00000000   Number         0  stubs.o ABSOLUTE
    _printf_wc                               0x00000000   Number         0  stubs.o ABSOLUTE
    _printf_wctomb                           0x00000000   Number         0  stubs.o ABSOLUTE
    _printf_widthprec                        0x00000000   Number         0  stubs.o ABSOLUTE
    _printf_x                                0x00000000   Number         0  stubs.o ABSOLUTE
    __arm_fini_                               - Undefined Weak Reference
    __cpp_initialize__aeabi_                  - Undefined Weak Reference
    __cxa_finalize                            - Undefined Weak Reference
    _clock_init                               - Undefined Weak Reference
    _microlib_exit                            - Undefined Weak Reference
    __Vectors_Size                           0x00000298   Number         0  startup_stm32h743xx.o ABSOLUTE
    __Vectors                                0x08000000   Data           4  startup_stm32h743xx.o(RESET)
    __Vectors_End                            0x08000298   Data           0  startup_stm32h743xx.o(RESET)
    __main                                   0x08000299   Thumb Code     0  entry.o(.ARM.Collect$$$$00000000)
    _main_stk                                0x08000299   Thumb Code     0  entry2.o(.ARM.Collect$$$$00000001)
    _main_scatterload                        0x0800029d   Thumb Code     0  entry5.o(.ARM.Collect$$$$00000004)
    __main_after_scatterload                 0x080002a1   Thumb Code     0  entry5.o(.ARM.Collect$$$$00000004)
    _main_clock                              0x080002a1   Thumb Code     0  entry7b.o(.ARM.Collect$$$$00000008)
    _main_cpp_init                           0x080002a1   Thumb Code     0  entry8b.o(.ARM.Collect$$$$0000000A)
    _main_init                               0x080002a1   Thumb Code     0  entry9a.o(.ARM.Collect$$$$0000000B)
    __rt_lib_shutdown_fini                   0x080002a9   Thumb Code     0  entry12b.o(.ARM.Collect$$$$0000000E)
    __rt_final_cpp                           0x080002ad   Thumb Code     0  entry10a.o(.ARM.Collect$$$$0000000F)
    __rt_final_exit                          0x080002ad   Thumb Code     0  entry11a.o(.ARM.Collect$$$$00000011)
    Reset_Handler                            0x080002b1   Thumb Code     8  startup_stm32h743xx.o(.text)
    ADC3_IRQHandler                          0x080002cb   Thumb Code     0  startup_stm32h743xx.o(.text)
    ADC_IRQHandler                           0x080002cb   Thumb Code     0  startup_stm32h743xx.o(.text)
    BDMA_Channel0_IRQHandler                 0x080002cb   Thumb Code     0  startup_stm32h743xx.o(.text)
    BDMA_Channel1_IRQHandler                 0x080002cb   Thumb Code     0  startup_stm32h743xx.o(.text)
    BDMA_Channel2_IRQHandler                 0x080002cb   Thumb Code     0  startup_stm32h743xx.o(.text)
    BDMA_Channel3_IRQHandler                 0x080002cb   Thumb Code     0  startup_stm32h743xx.o(.text)
    BDMA_Channel4_IRQHandler                 0x080002cb   Thumb Code     0  startup_stm32h743xx.o(.text)
    BDMA_Channel5_IRQHandler                 0x080002cb   Thumb Code     0  startup_stm32h743xx.o(.text)
    BDMA_Channel6_IRQHandler                 0x080002cb   Thumb Code     0  startup_stm32h743xx.o(.text)
    BDMA_Channel7_IRQHandler                 0x080002cb   Thumb Code     0  startup_stm32h743xx.o(.text)
    CEC_IRQHandler                           0x080002cb   Thumb Code     0  startup_stm32h743xx.o(.text)
    COMP1_IRQHandler                         0x080002cb   Thumb Code     0  startup_stm32h743xx.o(.text)
    CRS_IRQHandler                           0x080002cb   Thumb Code     0  startup_stm32h743xx.o(.text)
    DCMI_IRQHandler                          0x080002cb   Thumb Code     0  startup_stm32h743xx.o(.text)
    DFSDM1_FLT0_IRQHandler                   0x080002cb   Thumb Code     0  startup_stm32h743xx.o(.text)
    DFSDM1_FLT1_IRQHandler                   0x080002cb   Thumb Code     0  startup_stm32h743xx.o(.text)
    DFSDM1_FLT2_IRQHandler                   0x080002cb   Thumb Code     0  startup_stm32h743xx.o(.text)
    DFSDM1_FLT3_IRQHandler                   0x080002cb   Thumb Code     0  startup_stm32h743xx.o(.text)
    DMA1_Stream0_IRQHandler                  0x080002cb   Thumb Code     0  startup_stm32h743xx.o(.text)
    DMA1_Stream1_IRQHandler                  0x080002cb   Thumb Code     0  startup_stm32h743xx.o(.text)
    DMA1_Stream2_IRQHandler                  0x080002cb   Thumb Code     0  startup_stm32h743xx.o(.text)
    DMA1_Stream3_IRQHandler                  0x080002cb   Thumb Code     0  startup_stm32h743xx.o(.text)
    DMA1_Stream4_IRQHandler                  0x080002cb   Thumb Code     0  startup_stm32h743xx.o(.text)
    DMA1_Stream5_IRQHandler                  0x080002cb   Thumb Code     0  startup_stm32h743xx.o(.text)
    DMA1_Stream6_IRQHandler                  0x080002cb   Thumb Code     0  startup_stm32h743xx.o(.text)
    DMA1_Stream7_IRQHandler                  0x080002cb   Thumb Code     0  startup_stm32h743xx.o(.text)
    DMA2D_IRQHandler                         0x080002cb   Thumb Code     0  startup_stm32h743xx.o(.text)
    DMA2_Stream0_IRQHandler                  0x080002cb   Thumb Code     0  startup_stm32h743xx.o(.text)
    DMA2_Stream1_IRQHandler                  0x080002cb   Thumb Code     0  startup_stm32h743xx.o(.text)
    DMA2_Stream2_IRQHandler                  0x080002cb   Thumb Code     0  startup_stm32h743xx.o(.text)
    DMA2_Stream3_IRQHandler                  0x080002cb   Thumb Code     0  startup_stm32h743xx.o(.text)
    DMA2_Stream4_IRQHandler                  0x080002cb   Thumb Code     0  startup_stm32h743xx.o(.text)
    DMA2_Stream5_IRQHandler                  0x080002cb   Thumb Code     0  startup_stm32h743xx.o(.text)
    DMA2_Stream6_IRQHandler                  0x080002cb   Thumb Code     0  startup_stm32h743xx.o(.text)
    DMA2_Stream7_IRQHandler                  0x080002cb   Thumb Code     0  startup_stm32h743xx.o(.text)
    DMAMUX1_OVR_IRQHandler                   0x080002cb   Thumb Code     0  startup_stm32h743xx.o(.text)
    DMAMUX2_OVR_IRQHandler                   0x080002cb   Thumb Code     0  startup_stm32h743xx.o(.text)
    ECC_IRQHandler                           0x080002cb   Thumb Code     0  startup_stm32h743xx.o(.text)
    EXTI0_IRQHandler                         0x080002cb   Thumb Code     0  startup_stm32h743xx.o(.text)
    EXTI15_10_IRQHandler                     0x080002cb   Thumb Code     0  startup_stm32h743xx.o(.text)
    EXTI1_IRQHandler                         0x080002cb   Thumb Code     0  startup_stm32h743xx.o(.text)
    EXTI2_IRQHandler                         0x080002cb   Thumb Code     0  startup_stm32h743xx.o(.text)
    EXTI3_IRQHandler                         0x080002cb   Thumb Code     0  startup_stm32h743xx.o(.text)
    EXTI4_IRQHandler                         0x080002cb   Thumb Code     0  startup_stm32h743xx.o(.text)
    EXTI9_5_IRQHandler                       0x080002cb   Thumb Code     0  startup_stm32h743xx.o(.text)
    FDCAN1_IT0_IRQHandler                    0x080002cb   Thumb Code     0  startup_stm32h743xx.o(.text)
    FDCAN1_IT1_IRQHandler                    0x080002cb   Thumb Code     0  startup_stm32h743xx.o(.text)
    FDCAN2_IT0_IRQHandler                    0x080002cb   Thumb Code     0  startup_stm32h743xx.o(.text)
    FDCAN2_IT1_IRQHandler                    0x080002cb   Thumb Code     0  startup_stm32h743xx.o(.text)
    FDCAN_CAL_IRQHandler                     0x080002cb   Thumb Code     0  startup_stm32h743xx.o(.text)
    FLASH_IRQHandler                         0x080002cb   Thumb Code     0  startup_stm32h743xx.o(.text)
    FMC_IRQHandler                           0x080002cb   Thumb Code     0  startup_stm32h743xx.o(.text)
    FPU_IRQHandler                           0x080002cb   Thumb Code     0  startup_stm32h743xx.o(.text)
    HRTIM1_FLT_IRQHandler                    0x080002cb   Thumb Code     0  startup_stm32h743xx.o(.text)
    HRTIM1_Master_IRQHandler                 0x080002cb   Thumb Code     0  startup_stm32h743xx.o(.text)
    HRTIM1_TIMA_IRQHandler                   0x080002cb   Thumb Code     0  startup_stm32h743xx.o(.text)
    HRTIM1_TIMB_IRQHandler                   0x080002cb   Thumb Code     0  startup_stm32h743xx.o(.text)
    HRTIM1_TIMC_IRQHandler                   0x080002cb   Thumb Code     0  startup_stm32h743xx.o(.text)
    HRTIM1_TIMD_IRQHandler                   0x080002cb   Thumb Code     0  startup_stm32h743xx.o(.text)
    HRTIM1_TIME_IRQHandler                   0x080002cb   Thumb Code     0  startup_stm32h743xx.o(.text)
    HSEM1_IRQHandler                         0x080002cb   Thumb Code     0  startup_stm32h743xx.o(.text)
    I2C1_ER_IRQHandler                       0x080002cb   Thumb Code     0  startup_stm32h743xx.o(.text)
    I2C1_EV_IRQHandler                       0x080002cb   Thumb Code     0  startup_stm32h743xx.o(.text)
    I2C2_ER_IRQHandler                       0x080002cb   Thumb Code     0  startup_stm32h743xx.o(.text)
    I2C2_EV_IRQHandler                       0x080002cb   Thumb Code     0  startup_stm32h743xx.o(.text)
    I2C3_ER_IRQHandler                       0x080002cb   Thumb Code     0  startup_stm32h743xx.o(.text)
    I2C3_EV_IRQHandler                       0x080002cb   Thumb Code     0  startup_stm32h743xx.o(.text)
    I2C4_ER_IRQHandler                       0x080002cb   Thumb Code     0  startup_stm32h743xx.o(.text)
    I2C4_EV_IRQHandler                       0x080002cb   Thumb Code     0  startup_stm32h743xx.o(.text)
    JPEG_IRQHandler                          0x080002cb   Thumb Code     0  startup_stm32h743xx.o(.text)
    LPTIM1_IRQHandler                        0x080002cb   Thumb Code     0  startup_stm32h743xx.o(.text)
    LPTIM2_IRQHandler                        0x080002cb   Thumb Code     0  startup_stm32h743xx.o(.text)
    LPTIM3_IRQHandler                        0x080002cb   Thumb Code     0  startup_stm32h743xx.o(.text)
    LPTIM4_IRQHandler                        0x080002cb   Thumb Code     0  startup_stm32h743xx.o(.text)
    LPTIM5_IRQHandler                        0x080002cb   Thumb Code     0  startup_stm32h743xx.o(.text)
    LPUART1_IRQHandler                       0x080002cb   Thumb Code     0  startup_stm32h743xx.o(.text)
    LTDC_ER_IRQHandler                       0x080002cb   Thumb Code     0  startup_stm32h743xx.o(.text)
    LTDC_IRQHandler                          0x080002cb   Thumb Code     0  startup_stm32h743xx.o(.text)
    MDIOS_IRQHandler                         0x080002cb   Thumb Code     0  startup_stm32h743xx.o(.text)
    MDIOS_WKUP_IRQHandler                    0x080002cb   Thumb Code     0  startup_stm32h743xx.o(.text)
    MDMA_IRQHandler                          0x080002cb   Thumb Code     0  startup_stm32h743xx.o(.text)
    OTG_FS_EP1_IN_IRQHandler                 0x080002cb   Thumb Code     0  startup_stm32h743xx.o(.text)
    OTG_FS_EP1_OUT_IRQHandler                0x080002cb   Thumb Code     0  startup_stm32h743xx.o(.text)
    OTG_FS_IRQHandler                        0x080002cb   Thumb Code     0  startup_stm32h743xx.o(.text)
    OTG_FS_WKUP_IRQHandler                   0x080002cb   Thumb Code     0  startup_stm32h743xx.o(.text)
    OTG_HS_EP1_IN_IRQHandler                 0x080002cb   Thumb Code     0  startup_stm32h743xx.o(.text)
    OTG_HS_EP1_OUT_IRQHandler                0x080002cb   Thumb Code     0  startup_stm32h743xx.o(.text)
    OTG_HS_IRQHandler                        0x080002cb   Thumb Code     0  startup_stm32h743xx.o(.text)
    OTG_HS_WKUP_IRQHandler                   0x080002cb   Thumb Code     0  startup_stm32h743xx.o(.text)
    PVD_AVD_IRQHandler                       0x080002cb   Thumb Code     0  startup_stm32h743xx.o(.text)
    QUADSPI_IRQHandler                       0x080002cb   Thumb Code     0  startup_stm32h743xx.o(.text)
    RCC_IRQHandler                           0x080002cb   Thumb Code     0  startup_stm32h743xx.o(.text)
    RNG_IRQHandler                           0x080002cb   Thumb Code     0  startup_stm32h743xx.o(.text)
    RTC_Alarm_IRQHandler                     0x080002cb   Thumb Code     0  startup_stm32h743xx.o(.text)
    RTC_WKUP_IRQHandler                      0x080002cb   Thumb Code     0  startup_stm32h743xx.o(.text)
    SAI1_IRQHandler                          0x080002cb   Thumb Code     0  startup_stm32h743xx.o(.text)
    SAI2_IRQHandler                          0x080002cb   Thumb Code     0  startup_stm32h743xx.o(.text)
    SAI3_IRQHandler                          0x080002cb   Thumb Code     0  startup_stm32h743xx.o(.text)
    SAI4_IRQHandler                          0x080002cb   Thumb Code     0  startup_stm32h743xx.o(.text)
    SDMMC1_IRQHandler                        0x080002cb   Thumb Code     0  startup_stm32h743xx.o(.text)
    SDMMC2_IRQHandler                        0x080002cb   Thumb Code     0  startup_stm32h743xx.o(.text)
    SPDIF_RX_IRQHandler                      0x080002cb   Thumb Code     0  startup_stm32h743xx.o(.text)
    SPI1_IRQHandler                          0x080002cb   Thumb Code     0  startup_stm32h743xx.o(.text)
    SPI2_IRQHandler                          0x080002cb   Thumb Code     0  startup_stm32h743xx.o(.text)
    SPI3_IRQHandler                          0x080002cb   Thumb Code     0  startup_stm32h743xx.o(.text)
    SPI4_IRQHandler                          0x080002cb   Thumb Code     0  startup_stm32h743xx.o(.text)
    SPI5_IRQHandler                          0x080002cb   Thumb Code     0  startup_stm32h743xx.o(.text)
    SPI6_IRQHandler                          0x080002cb   Thumb Code     0  startup_stm32h743xx.o(.text)
    SWPMI1_IRQHandler                        0x080002cb   Thumb Code     0  startup_stm32h743xx.o(.text)
    TAMP_STAMP_IRQHandler                    0x080002cb   Thumb Code     0  startup_stm32h743xx.o(.text)
    TIM15_IRQHandler                         0x080002cb   Thumb Code     0  startup_stm32h743xx.o(.text)
    TIM16_IRQHandler                         0x080002cb   Thumb Code     0  startup_stm32h743xx.o(.text)
    TIM17_IRQHandler                         0x080002cb   Thumb Code     0  startup_stm32h743xx.o(.text)
    TIM1_BRK_IRQHandler                      0x080002cb   Thumb Code     0  startup_stm32h743xx.o(.text)
    TIM1_CC_IRQHandler                       0x080002cb   Thumb Code     0  startup_stm32h743xx.o(.text)
    TIM1_TRG_COM_IRQHandler                  0x080002cb   Thumb Code     0  startup_stm32h743xx.o(.text)
    TIM1_UP_IRQHandler                       0x080002cb   Thumb Code     0  startup_stm32h743xx.o(.text)
    TIM2_IRQHandler                          0x080002cb   Thumb Code     0  startup_stm32h743xx.o(.text)
    TIM3_IRQHandler                          0x080002cb   Thumb Code     0  startup_stm32h743xx.o(.text)
    TIM4_IRQHandler                          0x080002cb   Thumb Code     0  startup_stm32h743xx.o(.text)
    TIM5_IRQHandler                          0x080002cb   Thumb Code     0  startup_stm32h743xx.o(.text)
    TIM6_DAC_IRQHandler                      0x080002cb   Thumb Code     0  startup_stm32h743xx.o(.text)
    TIM7_IRQHandler                          0x080002cb   Thumb Code     0  startup_stm32h743xx.o(.text)
    TIM8_BRK_TIM12_IRQHandler                0x080002cb   Thumb Code     0  startup_stm32h743xx.o(.text)
    TIM8_CC_IRQHandler                       0x080002cb   Thumb Code     0  startup_stm32h743xx.o(.text)
    TIM8_TRG_COM_TIM14_IRQHandler            0x080002cb   Thumb Code     0  startup_stm32h743xx.o(.text)
    TIM8_UP_TIM13_IRQHandler                 0x080002cb   Thumb Code     0  startup_stm32h743xx.o(.text)
    UART4_IRQHandler                         0x080002cb   Thumb Code     0  startup_stm32h743xx.o(.text)
    UART5_IRQHandler                         0x080002cb   Thumb Code     0  startup_stm32h743xx.o(.text)
    UART7_IRQHandler                         0x080002cb   Thumb Code     0  startup_stm32h743xx.o(.text)
    UART8_IRQHandler                         0x080002cb   Thumb Code     0  startup_stm32h743xx.o(.text)
    USART2_IRQHandler                        0x080002cb   Thumb Code     0  startup_stm32h743xx.o(.text)
    USART3_IRQHandler                        0x080002cb   Thumb Code     0  startup_stm32h743xx.o(.text)
    USART6_IRQHandler                        0x080002cb   Thumb Code     0  startup_stm32h743xx.o(.text)
    WAKEUP_PIN_IRQHandler                    0x080002cb   Thumb Code     0  startup_stm32h743xx.o(.text)
    WWDG_IRQHandler                          0x080002cb   Thumb Code     0  startup_stm32h743xx.o(.text)
    __aeabi_uldivmod                         0x080002d5   Thumb Code    98  uldiv.o(.text)
    rand                                     0x08000339   Thumb Code    20  rand.o(.text)
    srand                                    0x0800034d   Thumb Code     6  rand.o(.text)
    ___aeabi_memcpy4$move                    0x0800035d   Thumb Code     0  memmovea.o(.text)
    ___aeabi_memcpy8$move                    0x0800035d   Thumb Code     0  memmovea.o(.text)
    __aeabi_memcpy                           0x0800035d   Thumb Code    64  memmovea.o(.text)
    __aeabi_memmove                          0x0800035d   Thumb Code     0  memmovea.o(.text)
    __aeabi_memmove4                         0x0800035d   Thumb Code     0  memmovea.o(.text)
    __aeabi_memmove8                         0x0800035d   Thumb Code     0  memmovea.o(.text)
    __aeabi_memset                           0x0800039d   Thumb Code    14  memseta.o(.text)
    __aeabi_memset4                          0x0800039d   Thumb Code     0  memseta.o(.text)
    __aeabi_memset8                          0x0800039d   Thumb Code     0  memseta.o(.text)
    __aeabi_memclr                           0x080003ab   Thumb Code     4  memseta.o(.text)
    __aeabi_memclr4                          0x080003ab   Thumb Code     0  memseta.o(.text)
    __aeabi_memclr8                          0x080003ab   Thumb Code     0  memseta.o(.text)
    _memset$wrapper                          0x080003af   Thumb Code    18  memseta.o(.text)
    strlen                                   0x080003c1   Thumb Code    14  strlen.o(.text)
    memcmp                                   0x080003cf   Thumb Code    26  memcmp.o(.text)
    __aeabi_llsl                             0x080003e9   Thumb Code    30  llshl.o(.text)
    _ll_shift_l                              0x080003e9   Thumb Code     0  llshl.o(.text)
    __aeabi_llsr                             0x08000407   Thumb Code    32  llushr.o(.text)
    _ll_ushift_r                             0x08000407   Thumb Code     0  llushr.o(.text)
    __scatterload                            0x08000429   Thumb Code    28  init.o(.text)
    __scatterload_rt2                        0x08000429   Thumb Code     0  init.o(.text)
    __decompress                             0x0800044d   Thumb Code     0  __dczerorl2.o(.text)
    __decompress1                            0x0800044d   Thumb Code    86  __dczerorl2.o(.text)
    BusFault_Handler                         0x080004a3   Thumb Code     4  stm32h7xx_it.o(i.BusFault_Handler)
    DebugMon_Handler                         0x080004a7   Thumb Code     2  stm32h7xx_it.o(i.DebugMon_Handler)
    ETH_IRQHandler                           0x0800055d   Thumb Code    26  lwip.o(i.ETH_IRQHandler)
    ETH_PHY_IO_DeInit                        0x08000687   Thumb Code     4  ethernetif.o(i.ETH_PHY_IO_DeInit)
    ETH_PHY_IO_GetTick                       0x0800068b   Thumb Code     8  ethernetif.o(i.ETH_PHY_IO_GetTick)
    ETH_PHY_IO_Init                          0x08000695   Thumb Code    12  ethernetif.o(i.ETH_PHY_IO_Init)
    ETH_PHY_IO_ReadReg                       0x080006a5   Thumb Code    32  ethernetif.o(i.ETH_PHY_IO_ReadReg)
    ETH_PHY_IO_WriteReg                      0x080006c9   Thumb Code    32  ethernetif.o(i.ETH_PHY_IO_WriteReg)
    ETH_WKUP_IRQHandler                      0x08000da5   Thumb Code    10  stm32h7xx_it.o(i.ETH_WKUP_IRQHandler)
    Error_Handler                            0x08000db5   Thumb Code     6  main.o(i.Error_Handler)
    HAL_DMA_Abort                            0x08000de5   Thumb Code  1236  stm32h7xx_hal_dma.o(i.HAL_DMA_Abort)
    HAL_DMA_Abort_IT                         0x080012c1   Thumb Code   906  stm32h7xx_hal_dma.o(i.HAL_DMA_Abort_IT)
    HAL_ETH_EEECallback                      0x08001659   Thumb Code     2  stm32h7xx_hal_eth.o(i.HAL_ETH_EEECallback)
    HAL_ETH_ErrorCallback                    0x0800165b   Thumb Code     2  stm32h7xx_hal_eth.o(i.HAL_ETH_ErrorCallback)
    HAL_ETH_GetMACConfig                     0x0800165d   Thumb Code   470  stm32h7xx_hal_eth.o(i.HAL_ETH_GetMACConfig)
    HAL_ETH_IRQHandler                       0x08001835   Thumb Code   444  stm32h7xx_hal_eth.o(i.HAL_ETH_IRQHandler)
    HAL_ETH_Init                             0x080019f5   Thumb Code   346  stm32h7xx_hal_eth.o(i.HAL_ETH_Init)
    HAL_ETH_MspInit                          0x08001b5d   Thumb Code   516  ethernetif.o(i.HAL_ETH_MspInit)
    HAL_ETH_PMTCallback                      0x08001d85   Thumb Code     2  stm32h7xx_hal_eth.o(i.HAL_ETH_PMTCallback)
    HAL_ETH_ReadData                         0x08001d87   Thumb Code   256  stm32h7xx_hal_eth.o(i.HAL_ETH_ReadData)
    HAL_ETH_ReadPHYRegister                  0x08001e87   Thumb Code   120  stm32h7xx_hal_eth.o(i.HAL_ETH_ReadPHYRegister)
    HAL_ETH_RxAllocateCallback               0x08001f01   Thumb Code    60  ethernetif.o(i.HAL_ETH_RxAllocateCallback)
    HAL_ETH_RxCpltCallback                   0x08001f49   Thumb Code     2  stm32h7xx_hal_eth.o(i.HAL_ETH_RxCpltCallback)
    HAL_ETH_RxLinkCallback                   0x08001f4d   Thumb Code   158  ethernetif.o(i.HAL_ETH_RxLinkCallback)
    HAL_ETH_SetMACConfig                     0x08001ff1   Thumb Code    36  stm32h7xx_hal_eth.o(i.HAL_ETH_SetMACConfig)
    HAL_ETH_SetMDIOClockRange                0x08002015   Thumb Code   100  stm32h7xx_hal_eth.o(i.HAL_ETH_SetMDIOClockRange)
    HAL_ETH_Start_IT                         0x0800208d   Thumb Code   216  stm32h7xx_hal_eth.o(i.HAL_ETH_Start_IT)
    HAL_ETH_Stop                             0x0800216d   Thumb Code   116  stm32h7xx_hal_eth.o(i.HAL_ETH_Stop)
    HAL_ETH_Transmit                         0x080021e1   Thumb Code   246  stm32h7xx_hal_eth.o(i.HAL_ETH_Transmit)
    HAL_ETH_TxCpltCallback                   0x080022d7   Thumb Code     2  stm32h7xx_hal_eth.o(i.HAL_ETH_TxCpltCallback)
    HAL_ETH_WakeUpCallback                   0x080022d9   Thumb Code     2  stm32h7xx_hal_eth.o(i.HAL_ETH_WakeUpCallback)
    HAL_ETH_WritePHYRegister                 0x080022dd   Thumb Code   118  stm32h7xx_hal_eth.o(i.HAL_ETH_WritePHYRegister)
    HAL_GPIO_Init                            0x0800235d   Thumb Code   456  stm32h7xx_hal_gpio.o(i.HAL_GPIO_Init)
    HAL_GPIO_WritePin                        0x08002559   Thumb Code    12  stm32h7xx_hal_gpio.o(i.HAL_GPIO_WritePin)
    HAL_GetREVID                             0x08002565   Thumb Code     8  stm32h7xx_hal.o(i.HAL_GetREVID)
    HAL_GetTick                              0x08002571   Thumb Code     6  stm32h7xx_hal.o(i.HAL_GetTick)
    HAL_IncTick                              0x0800257d   Thumb Code    16  stm32h7xx_hal.o(i.HAL_IncTick)
    HAL_Init                                 0x08002595   Thumb Code    80  stm32h7xx_hal.o(i.HAL_Init)
    HAL_InitTick                             0x080025f5   Thumb Code    74  stm32h7xx_hal.o(i.HAL_InitTick)
    HAL_MPU_ConfigRegion                     0x0800264d   Thumb Code    88  stm32h7xx_hal_cortex.o(i.HAL_MPU_ConfigRegion)
    HAL_MPU_Disable                          0x080026a9   Thumb Code    38  stm32h7xx_hal_cortex.o(i.HAL_MPU_Disable)
    HAL_MPU_Enable                           0x080026d5   Thumb Code    58  stm32h7xx_hal_cortex.o(i.HAL_MPU_Enable)
    HAL_MspInit                              0x08002715   Thumb Code    32  stm32h7xx_hal_msp.o(i.HAL_MspInit)
    HAL_NVIC_EnableIRQ                       0x08002739   Thumb Code    40  stm32h7xx_hal_cortex.o(i.HAL_NVIC_EnableIRQ)
    HAL_NVIC_SetPriority                     0x08002761   Thumb Code   122  stm32h7xx_hal_cortex.o(i.HAL_NVIC_SetPriority)
    HAL_NVIC_SetPriorityGrouping             0x080027dd   Thumb Code    32  stm32h7xx_hal_cortex.o(i.HAL_NVIC_SetPriorityGrouping)
    HAL_PWREx_ConfigSupply                   0x08002805   Thumb Code    90  stm32h7xx_hal_pwr_ex.o(i.HAL_PWREx_ConfigSupply)
    HAL_RCCEx_GetD3PCLK1Freq                 0x08002865   Thumb Code    26  stm32h7xx_hal_rcc_ex.o(i.HAL_RCCEx_GetD3PCLK1Freq)
    HAL_RCCEx_GetPLL2ClockFreq               0x08002889   Thumb Code   536  stm32h7xx_hal_rcc_ex.o(i.HAL_RCCEx_GetPLL2ClockFreq)
    HAL_RCCEx_GetPLL3ClockFreq               0x08002ab9   Thumb Code   536  stm32h7xx_hal_rcc_ex.o(i.HAL_RCCEx_GetPLL3ClockFreq)
    HAL_RCCEx_PeriphCLKConfig                0x08002ce9   Thumb Code  3432  stm32h7xx_hal_rcc_ex.o(i.HAL_RCCEx_PeriphCLKConfig)
    HAL_RCC_ClockConfig                      0x08003a51   Thumb Code   774  stm32h7xx_hal_rcc.o(i.HAL_RCC_ClockConfig)
    HAL_RCC_GetHCLKFreq                      0x08003d71   Thumb Code    60  stm32h7xx_hal_rcc.o(i.HAL_RCC_GetHCLKFreq)
    HAL_RCC_GetPCLK1Freq                     0x08003dbd   Thumb Code    26  stm32h7xx_hal_rcc.o(i.HAL_RCC_GetPCLK1Freq)
    HAL_RCC_GetPCLK2Freq                     0x08003de1   Thumb Code    26  stm32h7xx_hal_rcc.o(i.HAL_RCC_GetPCLK2Freq)
    HAL_RCC_GetSysClockFreq                  0x08003e05   Thumb Code   524  stm32h7xx_hal_rcc.o(i.HAL_RCC_GetSysClockFreq)
    HAL_RCC_OscConfig                        0x08004031   Thumb Code  2130  stm32h7xx_hal_rcc.o(i.HAL_RCC_OscConfig)
    HAL_SYSCFG_ETHInterfaceSelect            0x08004889   Thumb Code    16  stm32h7xx_hal.o(i.HAL_SYSCFG_ETHInterfaceSelect)
    HAL_SYSTICK_Config                       0x0800489d   Thumb Code    52  stm32h7xx_hal_cortex.o(i.HAL_SYSTICK_Config)
    HAL_UARTEx_DisableFifoMode               0x080048d1   Thumb Code    78  stm32h7xx_hal_uart_ex.o(i.HAL_UARTEx_DisableFifoMode)
    HAL_UARTEx_RxEventCallback               0x0800491f   Thumb Code     2  stm32h7xx_hal_uart.o(i.HAL_UARTEx_RxEventCallback)
    HAL_UARTEx_RxFifoFullCallback            0x08004921   Thumb Code     2  stm32h7xx_hal_uart_ex.o(i.HAL_UARTEx_RxFifoFullCallback)
    HAL_UARTEx_SetRxFifoThreshold            0x08004923   Thumb Code    94  stm32h7xx_hal_uart_ex.o(i.HAL_UARTEx_SetRxFifoThreshold)
    HAL_UARTEx_SetTxFifoThreshold            0x08004981   Thumb Code    94  stm32h7xx_hal_uart_ex.o(i.HAL_UARTEx_SetTxFifoThreshold)
    HAL_UARTEx_TxFifoEmptyCallback           0x080049df   Thumb Code     2  stm32h7xx_hal_uart_ex.o(i.HAL_UARTEx_TxFifoEmptyCallback)
    HAL_UARTEx_WakeupCallback                0x080049e1   Thumb Code     2  stm32h7xx_hal_uart_ex.o(i.HAL_UARTEx_WakeupCallback)
    HAL_UART_ErrorCallback                   0x080049e3   Thumb Code     2  stm32h7xx_hal_uart.o(i.HAL_UART_ErrorCallback)
    HAL_UART_IRQHandler                      0x080049e5   Thumb Code  1172  stm32h7xx_hal_uart.o(i.HAL_UART_IRQHandler)
    HAL_UART_Init                            0x08004e79   Thumb Code   120  stm32h7xx_hal_uart.o(i.HAL_UART_Init)
    HAL_UART_MspInit                         0x08004ef1   Thumb Code   184  usart.o(i.HAL_UART_MspInit)
    HAL_UART_TxCpltCallback                  0x08004fb5   Thumb Code     2  stm32h7xx_hal_uart.o(i.HAL_UART_TxCpltCallback)
    HardFault_Handler                        0x08004fb7   Thumb Code     4  stm32h7xx_it.o(i.HardFault_Handler)
    LAN8742_GetLinkState                     0x08004fbb   Thumb Code   232  lan8742.o(i.LAN8742_GetLinkState)
    LAN8742_Init                             0x080050a3   Thumb Code   254  lan8742.o(i.LAN8742_Init)
    LAN8742_RegisterBusIO                    0x080051a1   Thumb Code    46  lan8742.o(i.LAN8742_RegisterBusIO)
    MX_GPIO_Init                             0x08005231   Thumb Code   284  gpio.o(i.MX_GPIO_Init)
    MX_LWIP_Init                             0x08005355   Thumb Code   536  lwip.o(i.MX_LWIP_Init)
    MX_LWIP_Process                          0x08005595   Thumb Code    14  lwip.o(i.MX_LWIP_Process)
    MX_USART1_UART_Init                      0x080055a9   Thumb Code    98  usart.o(i.MX_USART1_UART_Init)
    MemManage_Handler                        0x08005615   Thumb Code     4  stm32h7xx_it.o(i.MemManage_Handler)
    NMI_Handler                              0x08005619   Thumb Code     4  stm32h7xx_it.o(i.NMI_Handler)
    PendSV_Handler                           0x0800561d   Thumb Code     2  stm32h7xx_it.o(i.PendSV_Handler)
    SVC_Handler                              0x080058e9   Thumb Code     2  stm32h7xx_it.o(i.SVC_Handler)
    SysTick_Handler                          0x080058eb   Thumb Code     8  stm32h7xx_it.o(i.SysTick_Handler)
    SystemClock_Config                       0x080058f5   Thumb Code   302  main.o(i.SystemClock_Config)
    SystemInit                               0x08005a31   Thumb Code   212  system_stm32h7xx.o(i.SystemInit)
    TCP_Client_PT_Init                       0x08005b2d   Thumb Code    14  tcp_client.o(i.TCP_Client_PT_Init)
    TCP_Server_Init                          0x08005b41   Thumb Code    70  tcp_server.o(i.TCP_Server_Init)
    TCP_Server_PT_Init                       0x08005b99   Thumb Code    14  tcp_server.o(i.TCP_Server_PT_Init)
    UART_AdvFeatureConfig                    0x08005c05   Thumb Code   248  stm32h7xx_hal_uart.o(i.UART_AdvFeatureConfig)
    UART_CheckIdleState                      0x08005cfd   Thumb Code   234  stm32h7xx_hal_uart.o(i.UART_CheckIdleState)
    UART_SetConfig                           0x08005e9d   Thumb Code  1402  stm32h7xx_hal_uart.o(i.UART_SetConfig)
    UART_WaitOnFlagUntilTimeout              0x08006429   Thumb Code   162  stm32h7xx_hal_uart.o(i.UART_WaitOnFlagUntilTimeout)
    USART1_IRQHandler                        0x080064cd   Thumb Code    10  stm32h7xx_it.o(i.USART1_IRQHandler)
    Udp_Lwip_Init                            0x080064dd   Thumb Code    88  lwip_udp.o(i.Udp_Lwip_Init)
    UsageFault_Handler                       0x08006541   Thumb Code     4  stm32h7xx_it.o(i.UsageFault_Handler)
    __0printf$8                              0x08006545   Thumb Code    22  printf8.o(i.__0printf$8)
    __1printf$8                              0x08006545   Thumb Code     0  printf8.o(i.__0printf$8)
    __2printf                                0x08006545   Thumb Code     0  printf8.o(i.__0printf$8)
    __scatterload_copy                       0x0800659d   Thumb Code    14  handlers.o(i.__scatterload_copy)
    __scatterload_null                       0x080065ab   Thumb Code     2  handlers.o(i.__scatterload_null)
    __scatterload_zeroinit                   0x080065ad   Thumb Code    14  handlers.o(i.__scatterload_zeroinit)
    client_set_remote_ip                     0x08006a15   Thumb Code   266  tcp_client.o(i.client_set_remote_ip)
    etharp_cleanup_netif                     0x08006c8d   Thumb Code    50  etharp.o(i.etharp_cleanup_netif)
    etharp_input                             0x08007005   Thumb Code   202  etharp.o(i.etharp_input)
    etharp_output                            0x08007141   Thumb Code   396  etharp.o(i.etharp_output)
    etharp_query                             0x080074cd   Thumb Code   474  etharp.o(i.etharp_query)
    etharp_request                           0x080078fd   Thumb Code    18  etharp.o(i.etharp_request)
    etharp_tmr                               0x08007941   Thumb Code   214  etharp.o(i.etharp_tmr)
    ethernet_input                           0x08007b79   Thumb Code   190  ethernet.o(i.ethernet_input)
    ethernet_link_check_state                0x08007c3d   Thumb Code   196  ethernetif.o(i.ethernet_link_check_state)
    ethernet_output                          0x08007d69   Thumb Code   112  ethernet.o(i.ethernet_output)
    ethernetif_init                          0x08007e6d   Thumb Code    58  ethernetif.o(i.ethernetif_init)
    ethernetif_input                         0x08007f05   Thumb Code    90  ethernetif.o(i.ethernetif_input)
    fputc                                    0x08007f69   Thumb Code    22  main.o(i.fputc)
    icmp_dest_unreach                        0x08007f85   Thumb Code    18  icmp.o(i.icmp_dest_unreach)
    icmp_input                               0x08007f99   Thumb Code   466  icmp.o(i.icmp_input)
    icmp_time_exceeded                       0x08008361   Thumb Code    18  icmp.o(i.icmp_time_exceeded)
    inet_chksum                              0x08008373   Thumb Code    20  inet_chksum.o(i.inet_chksum)
    inet_chksum_pbuf                         0x08008387   Thumb Code    86  inet_chksum.o(i.inet_chksum_pbuf)
    ip4_addr_isbroadcast_u32                 0x080083dd   Thumb Code    78  ip4_addr.o(i.ip4_addr_isbroadcast_u32)
    ip4_frag                                 0x0800842d   Thumb Code   536  ip4_frag.o(i.ip4_frag)
    ip4_input                                0x080086f9   Thumb Code   402  ip4.o(i.ip4_input)
    ip4_output_if                            0x080088c9   Thumb Code    54  ip4.o(i.ip4_output_if)
    ip4_output_if_src                        0x08008901   Thumb Code   250  ip4.o(i.ip4_output_if_src)
    ip4_reass                                0x08008a9d   Thumb Code   584  ip4_frag.o(i.ip4_reass)
    ip4_route                                0x08008d99   Thumb Code   140  ip4.o(i.ip4_route)
    ip_reass_tmr                             0x08009555   Thumb Code    48  ip4_frag.o(i.ip_reass_tmr)
    lwip_htonl                               0x0800996d   Thumb Code    26  def.o(i.lwip_htonl)
    lwip_htons                               0x08009987   Thumb Code    12  def.o(i.lwip_htons)
    lwip_init                                0x08009995   Thumb Code    64  init.o(i.lwip_init)
    lwip_standard_chksum                     0x08009a31   Thumb Code    94  inet_chksum.o(i.lwip_standard_chksum)
    lwip_udp_discollected                    0x08009a91   Thumb Code    32  lwip_udp.o(i.lwip_udp_discollected)
    lwip_udp_recv_callback                   0x08009ab5   Thumb Code   216  lwip_udp.o(i.lwip_udp_recv_callback)
    lwip_udp_register                        0x08009b91   Thumb Code    22  lwip_udp.o(i.lwip_udp_register)
    lwip_udp_send                            0x08009bad   Thumb Code    68  lwip_udp.o(i.lwip_udp_send)
    lwip_udp_set_remote_ip                   0x08009bf5   Thumb Code   260  lwip_udp.o(i.lwip_udp_set_remote_ip)
    main                                     0x08009d05   Thumb Code   396  main.o(i.main)
    mem_free                                 0x08009ebd   Thumb Code   194  mem.o(i.mem_free)
    mem_init                                 0x0800a081   Thumb Code    72  mem.o(i.mem_init)
    mem_malloc                               0x0800a131   Thumb Code   402  mem.o(i.mem_malloc)
    mem_trim                                 0x0800a3e9   Thumb Code   388  mem.o(i.mem_trim)
    memp_free                                0x0800a61d   Thumb Code    54  memp.o(i.memp_free)
    memp_free_pool                           0x0800a6cd   Thumb Code    50  memp.o(i.memp_free_pool)
    memp_init                                0x0800a76d   Thumb Code    26  memp.o(i.memp_init)
    memp_init_pool                           0x0800a78d   Thumb Code    44  memp.o(i.memp_init_pool)
    memp_malloc                              0x0800a7b9   Thumb Code    50  memp.o(i.memp_malloc)
    memp_malloc_pool                         0x0800a869   Thumb Code    44  memp.o(i.memp_malloc_pool)
    netif_add                                0x0800a901   Thumb Code   318  netif.o(i.netif_add)
    netif_get_by_index                       0x0800ac79   Thumb Code    36  netif.o(i.netif_get_by_index)
    netif_init                               0x0800aca1   Thumb Code     2  netif.o(i.netif_init)
    netif_set_addr                           0x0800ad85   Thumb Code    92  netif.o(i.netif_set_addr)
    netif_set_default                        0x0800ade5   Thumb Code     6  netif.o(i.netif_set_default)
    netif_set_down                           0x0800adf1   Thumb Code    78  netif.o(i.netif_set_down)
    netif_set_link_callback                  0x0800aebd   Thumb Code     6  netif.o(i.netif_set_link_callback)
    netif_set_link_down                      0x0800aec5   Thumb Code    76  netif.o(i.netif_set_link_down)
    netif_set_link_up                        0x0800af91   Thumb Code    84  netif.o(i.netif_set_link_up)
    netif_set_up                             0x0800b065   Thumb Code    70  netif.o(i.netif_set_up)
    pbuf_add_header                          0x0800b125   Thumb Code    18  pbuf.o(i.pbuf_add_header)
    pbuf_alloc                               0x0800b221   Thumb Code   414  pbuf.o(i.pbuf_alloc)
    pbuf_alloc_reference                     0x0800b4c5   Thumb Code    78  pbuf.o(i.pbuf_alloc_reference)
    pbuf_alloced_custom                      0x0800b581   Thumb Code    82  pbuf.o(i.pbuf_alloced_custom)
    pbuf_cat                                 0x0800b5d5   Thumb Code   126  pbuf.o(i.pbuf_cat)
    pbuf_chain                               0x0800b725   Thumb Code    22  pbuf.o(i.pbuf_chain)
    pbuf_clen                                0x0800b73b   Thumb Code    18  pbuf.o(i.pbuf_clen)
    pbuf_clone                               0x0800b74d   Thumb Code    68  pbuf.o(i.pbuf_clone)
    pbuf_copy                                0x0800b7fd   Thumb Code   304  pbuf.o(i.pbuf_copy)
    pbuf_copy_partial                        0x0800ba25   Thumb Code   164  pbuf.o(i.pbuf_copy_partial)
    pbuf_free                                0x0800bb65   Thumb Code   230  pbuf.o(i.pbuf_free)
    pbuf_free_custom                         0x0800bd01   Thumb Code    30  ethernetif.o(i.pbuf_free_custom)
    pbuf_free_ooseq                          0x0800bd29   Thumb Code    40  pbuf.o(i.pbuf_free_ooseq)
    pbuf_header_force                        0x0800bd59   Thumb Code    18  pbuf.o(i.pbuf_header_force)
    pbuf_realloc                             0x0800bdbd   Thumb Code   194  pbuf.o(i.pbuf_realloc)
    pbuf_ref                                 0x0800bf25   Thumb Code    48  pbuf.o(i.pbuf_ref)
    pbuf_remove_header                       0x0800bfc1   Thumb Code   110  pbuf.o(i.pbuf_remove_header)
    pbuf_take                                0x0800c0b5   Thumb Code   234  pbuf.o(i.pbuf_take)
    server_set_local_ip                      0x0800c465   Thumb Code   258  tcp_server.o(i.server_set_local_ip)
    sys_check_timeouts                       0x0800c575   Thumb Code    88  timeouts.o(i.sys_check_timeouts)
    sys_now                                  0x0800c5d9   Thumb Code     8  ethernetif.o(i.sys_now)
    sys_timeout                              0x0800c5e1   Thumb Code    58  timeouts.o(i.sys_timeout)
    sys_timeouts_init                        0x0800c7f1   Thumb Code    30  timeouts.o(i.sys_timeouts_init)
    tcp_abandon                              0x0800c819   Thumb Code   284  tcp.o(i.tcp_abandon)
    tcp_abort                                0x0800c9ed   Thumb Code    14  tcp.o(i.tcp_abort)
    tcp_accept                               0x0800c9fb   Thumb Code    16  tcp.o(i.tcp_accept)
    tcp_alloc                                0x0800cab5   Thumb Code   176  tcp.o(i.tcp_alloc)
    tcp_arg                                  0x0800cb71   Thumb Code     6  tcp.o(i.tcp_arg)
    tcp_bind                                 0x0800cb79   Thumb Code   204  tcp.o(i.tcp_bind)
    tcp_close                                0x0800cd29   Thumb Code    64  tcp.o(i.tcp_close)
    tcp_eff_send_mss_netif                   0x0800d2a1   Thumb Code    82  tcp.o(i.tcp_eff_send_mss_netif)
    tcp_enqueue_flags                        0x0800d375   Thumb Code   408  tcp_out.o(i.tcp_enqueue_flags)
    tcp_err                                  0x0800d635   Thumb Code    44  tcp.o(i.tcp_err)
    tcp_fasttmr                              0x0800d6e1   Thumb Code   142  tcp.o(i.tcp_fasttmr)
    tcp_free                                 0x0800d77d   Thumb Code    40  tcp.o(i.tcp_free)
    tcp_free_ooseq                           0x0800da09   Thumb Code    20  tcp.o(i.tcp_free_ooseq)
    tcp_init                                 0x0800da99   Thumb Code    20  tcp.o(i.tcp_init)
    tcp_input                                0x0800dab1   Thumb Code  1996  tcp_in.o(i.tcp_input)
    tcp_keepalive                            0x0800e3b1   Thumb Code    98  tcp_out.o(i.tcp_keepalive)
    tcp_listen_with_backlog                  0x0800e8c9   Thumb Code    18  tcp.o(i.tcp_listen_with_backlog)
    tcp_listen_with_backlog_and_err          0x0800e8dd   Thumb Code   246  tcp.o(i.tcp_listen_with_backlog_and_err)
    tcp_netif_ip_addr_changed                0x0800eaa1   Thumb Code    64  tcp.o(i.tcp_netif_ip_addr_changed)
    tcp_new                                  0x0800ebbd   Thumb Code    10  tcp.o(i.tcp_new)
    tcp_next_iss                             0x0800ec31   Thumb Code    50  tcp.o(i.tcp_next_iss)
    tcp_output                               0x0800ee0d   Thumb Code   684  tcp_out.o(i.tcp_output)
    tcp_pcb_purge                            0x0800fb39   Thumb Code   104  tcp.o(i.tcp_pcb_purge)
    tcp_pcb_remove                           0x0800fc15   Thumb Code   246  tcp.o(i.tcp_pcb_remove)
    tcp_poll                                 0x0800fded   Thumb Code    74  tcp.o(i.tcp_poll)
    tcp_process_refused_data                 0x0801060d   Thumb Code   182  tcp.o(i.tcp_process_refused_data)
    tcp_recv                                 0x080113c1   Thumb Code    44  tcp.o(i.tcp_recv)
    tcp_recv_null                            0x0801146d   Thumb Code    78  tcp.o(i.tcp_recv_null)
    tcp_recved                               0x08011531   Thumb Code   132  tcp.o(i.tcp_recved)
    tcp_rexmit                               0x08011701   Thumb Code   142  tcp_out.o(i.tcp_rexmit)
    tcp_rexmit_fast                          0x08011805   Thumb Code   142  tcp_out.o(i.tcp_rexmit_fast)
    tcp_rexmit_rto                           0x08011911   Thumb Code    46  tcp_out.o(i.tcp_rexmit_rto)
    tcp_rexmit_rto_commit                    0x080119b9   Thumb Code    56  tcp_out.o(i.tcp_rexmit_rto_commit)
    tcp_rexmit_rto_prepare                   0x08011a71   Thumb Code   150  tcp_out.o(i.tcp_rexmit_rto_prepare)
    tcp_rst                                  0x08011ba9   Thumb Code   146  tcp_out.o(i.tcp_rst)
    tcp_seg_copy                             0x08011cd1   Thumb Code    62  tcp.o(i.tcp_seg_copy)
    tcp_seg_free                             0x08011d85   Thumb Code    26  tcp.o(i.tcp_seg_free)
    tcp_segs_free                            0x08011d9f   Thumb Code    24  tcp.o(i.tcp_segs_free)
    tcp_send_empty_ack                       0x08011db9   Thumb Code   194  tcp_out.o(i.tcp_send_empty_ack)
    tcp_send_fin                             0x08011ef9   Thumb Code   104  tcp_out.o(i.tcp_send_fin)
    tcp_sent                                 0x08011fd9   Thumb Code    44  tcp.o(i.tcp_sent)
    tcp_slowtmr                              0x0801224d   Thumb Code  1698  tcp.o(i.tcp_slowtmr)
    tcp_split_unsent_seg                     0x0801297d   Thumb Code   510  tcp_out.o(i.tcp_split_unsent_seg)
    tcp_timer_needed                         0x08012c4d   Thumb Code    38  timeouts.o(i.tcp_timer_needed)
    tcp_tmr                                  0x08012dc9   Thumb Code    30  tcp.o(i.tcp_tmr)
    tcp_trigger_input_pcb_close              0x08012ded   Thumb Code    14  tcp_in.o(i.tcp_trigger_input_pcb_close)
    tcp_update_rcv_ann_wnd                   0x08012e01   Thumb Code   128  tcp.o(i.tcp_update_rcv_ann_wnd)
    tcp_write                                0x08012f19   Thumb Code  1918  tcp_out.o(i.tcp_write)
    tcp_zero_window_probe                    0x080138f1   Thumb Code   238  tcp_out.o(i.tcp_zero_window_probe)
    udp_bind                                 0x08013a99   Thumb Code   172  udp.o(i.udp_bind)
    udp_connect                              0x08013bbd   Thumb Code   158  udp.o(i.udp_connect)
    udp_disconnect                           0x08013cf1   Thumb Code    56  udp.o(i.udp_disconnect)
    udp_init                                 0x08013d9d   Thumb Code    20  udp.o(i.udp_init)
    udp_input                                0x08013db5   Thumb Code   412  udp.o(i.udp_input)
    udp_netif_ip_addr_changed                0x08014139   Thumb Code    42  udp.o(i.udp_netif_ip_addr_changed)
    udp_new                                  0x08014169   Thumb Code    28  udp.o(i.udp_new)
    udp_recv                                 0x080141dd   Thumb Code    44  udp.o(i.udp_recv)
    udp_remove                               0x08014279   Thumb Code    94  udp.o(i.udp_remove)
    udp_send                                 0x0801434d   Thumb Code    84  udp.o(i.udp_send)
    udp_sendto                               0x08014429   Thumb Code   156  udp.o(i.udp_sendto)
    udp_sendto_if                            0x0801456d   Thumb Code   200  udp.o(i.udp_sendto_if)
    udp_sendto_if_src                        0x08014705   Thumb Code   384  udp.o(i.udp_sendto_if_src)
    memp_RX_POOL                             0x080149b8   Data          12  ethernetif.o(.constdata)
    UARTPrescTable                           0x080149c4   Data          24  stm32h7xx_hal_uart.o(.constdata)
    D1CorePrescTable                         0x080149ec   Data          16  system_stm32h7xx.o(.constdata)
    ethbroadcast                             0x080149fc   Data           6  ethernet.o(.constdata)
    ethzero                                  0x08014a02   Data           6  ethernet.o(.constdata)
    memp_UDP_PCB                             0x08014a08   Data          12  memp.o(.constdata)
    memp_TCP_PCB                             0x08014a14   Data          12  memp.o(.constdata)
    memp_TCP_PCB_LISTEN                      0x08014a20   Data          12  memp.o(.constdata)
    memp_TCP_SEG                             0x08014a2c   Data          12  memp.o(.constdata)
    memp_REASSDATA                           0x08014a38   Data          12  memp.o(.constdata)
    memp_FRAG_PBUF                           0x08014a44   Data          12  memp.o(.constdata)
    memp_SYS_TIMEOUT                         0x08014a50   Data          12  memp.o(.constdata)
    memp_PBUF                                0x08014a5c   Data          12  memp.o(.constdata)
    memp_PBUF_POOL                           0x08014a68   Data          12  memp.o(.constdata)
    memp_pools                               0x08014a74   Data          36  memp.o(.constdata)
    tcp_pcb_lists                            0x08014ad8   Data          16  tcp.o(.constdata)
    lwip_cyclic_timers                       0x08014ae8   Data          24  timeouts.o(.constdata)
    lwip_num_cyclic_timers                   0x08014b00   Data           4  timeouts.o(.constdata)
    ip_addr_any                              0x08014b04   Data           4  ip4_addr.o(.constdata)
    ip_addr_broadcast                        0x08014b08   Data           4  ip4_addr.o(.constdata)
    Region$$Table$$Base                      0x08014c64   Number         0  anon$$obj.o(Region$$Table)
    Region$$Table$$Limit                     0x08014c84   Number         0  anon$$obj.o(Region$$Table)
    client_flag                              0x24000000   Data           1  main.o(.data)
    server_flag                              0x24000001   Data           1  main.o(.data)
    udp_flag                                 0x24000002   Data           1  main.o(.data)
    testbuf                                  0x24000003   Data          20  main.o(.data)
    client_pt                                0x24000018   Data           2  main.o(.data)
    server_pt                                0x2400001a   Data           2  main.o(.data)
    LAN8742_IOCtx                            0x24000024   Data          20  ethernetif.o(.data)
    EthernetLinkTimer                        0x24000038   Data           4  lwip.o(.data)
    ipaddr                                   0x2400003c   Data           4  lwip.o(.data)
    netmask                                  0x24000040   Data           4  lwip.o(.data)
    gw                                       0x24000044   Data           4  lwip.o(.data)
    IP_ADDRESS                               0x24000048   Data           4  lwip.o(.data)
    NETMASK_ADDRESS                          0x2400004c   Data           4  lwip.o(.data)
    GATEWAY_ADDRESS                          0x24000050   Data           4  lwip.o(.data)
    udp_send_buffer                          0x24000054   Data        1500  lwip_udp.o(.data)
    udp_recv_buffer                          0x24000630   Data        1500  lwip_udp.o(.data)
    udp_device                               0x24000c0c   Data          52  lwip_udp.o(.data)
    test_recv_buffer                         0x24000c40   Data       15000  tcp_client.o(.data)
    test_rx_length                           0x240046d8   Data           4  tcp_client.o(.data)
    client_buff_rx_p                         0x240046dc   Data           4  tcp_client.o(.data)
    client_send_buffer                       0x240046e0   Data        1500  tcp_client.o(.data)
    client_recv_buffer                       0x24004cbc   Data        1500  tcp_client.o(.data)
    client_device                            0x24005298   Data          68  tcp_client.o(.data)
    recv_buff_test                           0x240052e0   Data       15000  tcp_server.o(.data)
    rx_length_test                           0x24008d78   Data           4  tcp_server.o(.data)
    server_buff_rx_p                         0x24008d7c   Data           4  tcp_server.o(.data)
    server_send_buffer                       0x24008d80   Data        1500  tcp_server.o(.data)
    server_recv_buffer                       0x2400935c   Data        1500  tcp_server.o(.data)
    server_device                            0x24009940   Data          60  tcp_server.o(.data)
    uwTick                                   0x2400997c   Data           4  stm32h7xx_hal.o(.data)
    uwTickPrio                               0x24009980   Data           4  stm32h7xx_hal.o(.data)
    uwTickFreq                               0x24009984   Data           1  stm32h7xx_hal.o(.data)
    SystemCoreClock                          0x24009988   Data           4  system_stm32h7xx.o(.data)
    SystemD2Clock                            0x2400998c   Data           4  system_stm32h7xx.o(.data)
    netif_list                               0x240099c0   Data           4  netif.o(.data)
    netif_default                            0x240099c4   Data           4  netif.o(.data)
    pbuf_free_ooseq_pending                  0x240099c9   Data           1  pbuf.o(.data)
    tcp_ticks                                0x240099d0   Data           4  tcp.o(.data)
    tcp_bound_pcbs                           0x240099d4   Data           4  tcp.o(.data)
    tcp_listen_pcbs                          0x240099d8   Data           4  tcp.o(.data)
    tcp_active_pcbs                          0x240099dc   Data           4  tcp.o(.data)
    tcp_tw_pcbs                              0x240099e0   Data           4  tcp.o(.data)
    tcp_active_pcbs_changed                  0x240099e4   Data           1  tcp.o(.data)
    tcp_input_pcb                            0x24009a10   Data           4  tcp_in.o(.data)
    udp_pcbs                                 0x24009a24   Data           4  udp.o(.data)
    __stdout                                 0x24009a38   Data           4  stdout.o(.data)
    RecvHandle                               0x24009a3c   Data        1504  main.o(.bss)
    huart1                                   0x2400a01c   Data         148  usart.o(.bss)
    memp_memory_RX_POOL_base                 0x2400a0b0   Data       18819  ethernetif.o(.bss)
    heth                                     0x2400ea34   Data         176  ethernetif.o(.bss)
    TxConfig                                 0x2400eae4   Data          56  ethernetif.o(.bss)
    LAN8742                                  0x2400eb1c   Data          32  ethernetif.o(.bss)
    gnetif                                   0x2400eb3c   Data          52  lwip.o(.bss)
    ip_data                                  0x2400eb70   Data          24  ip.o(.bss)
    memp_memory_UDP_PCB_base                 0x2400eb88   Data         131  memp.o(.bss)
    memp_memory_TCP_PCB_base                 0x2400ec0b   Data         783  memp.o(.bss)
    memp_memory_TCP_PCB_LISTEN_base          0x2400ef1a   Data         227  memp.o(.bss)
    memp_memory_TCP_SEG_base                 0x2400effd   Data         259  memp.o(.bss)
    memp_memory_REASSDATA_base               0x2400f100   Data         163  memp.o(.bss)
    memp_memory_FRAG_PBUF_base               0x2400f1a3   Data         363  memp.o(.bss)
    memp_memory_SYS_TIMEOUT_base             0x2400f30e   Data          51  memp.o(.bss)
    memp_memory_PBUF_base                    0x2400f341   Data         259  memp.o(.bss)
    memp_memory_PBUF_POOL_base               0x2400f444   Data       24515  memp.o(.bss)
    __initial_sp                             0x24015908   Data           0  startup_stm32h743xx.o(STACK)
    DMARxDscrTab                             0x30004000   Data          96  ethernetif.o(.ARM.__AT_0x30004000)
    DMATxDscrTab                             0x30004060   Data          96  ethernetif.o(.ARM.__AT_0x30004060)



==============================================================================

Memory Map of the image

  Image Entry point : 0x08000299

  Load Region LR_IROM1 (Base: 0x08000000, Size: 0x0001e6c0, Max: 0x00200000, ABSOLUTE, COMPRESSED[0x00014e4c])

    Execution Region ER_IROM1 (Exec base: 0x08000000, Load base: 0x08000000, Size: 0x00014c84, Max: 0x00200000, ABSOLUTE)

    Exec Addr    Load Addr    Size         Type   Attr      Idx    E Section Name        Object

    0x08000000   0x08000000   0x00000298   Data   RO            3    RESET               startup_stm32h743xx.o
    0x08000298   0x08000298   0x00000000   Code   RO         8992  * .ARM.Collect$$$$00000000  mc_w.l(entry.o)
    0x08000298   0x08000298   0x00000004   Code   RO         9307    .ARM.Collect$$$$00000001  mc_w.l(entry2.o)
    0x0800029c   0x0800029c   0x00000004   Code   RO         9310    .ARM.Collect$$$$00000004  mc_w.l(entry5.o)
    0x080002a0   0x080002a0   0x00000000   Code   RO         9312    .ARM.Collect$$$$00000008  mc_w.l(entry7b.o)
    0x080002a0   0x080002a0   0x00000000   Code   RO         9314    .ARM.Collect$$$$0000000A  mc_w.l(entry8b.o)
    0x080002a0   0x080002a0   0x00000008   Code   RO         9315    .ARM.Collect$$$$0000000B  mc_w.l(entry9a.o)
    0x080002a8   0x080002a8   0x00000004   Code   RO         9322    .ARM.Collect$$$$0000000E  mc_w.l(entry12b.o)
    0x080002ac   0x080002ac   0x00000000   Code   RO         9317    .ARM.Collect$$$$0000000F  mc_w.l(entry10a.o)
    0x080002ac   0x080002ac   0x00000000   Code   RO         9319    .ARM.Collect$$$$00000011  mc_w.l(entry11a.o)
    0x080002ac   0x080002ac   0x00000004   Code   RO         9308    .ARM.Collect$$$$00002712  mc_w.l(entry2.o)
    0x080002b0   0x080002b0   0x00000024   Code   RO            4    .text               startup_stm32h743xx.o
    0x080002d4   0x080002d4   0x00000062   Code   RO         8995    .text               mc_w.l(uldiv.o)
    0x08000336   0x08000336   0x00000002   PAD
    0x08000338   0x08000338   0x00000024   Code   RO         9025    .text               mc_w.l(rand.o)
    0x0800035c   0x0800035c   0x00000040   Code   RO         9030    .text               mc_w.l(memmovea.o)
    0x0800039c   0x0800039c   0x00000024   Code   RO         9032    .text               mc_w.l(memseta.o)
    0x080003c0   0x080003c0   0x0000000e   Code   RO         9034    .text               mc_w.l(strlen.o)
    0x080003ce   0x080003ce   0x0000001a   Code   RO         9036    .text               mc_w.l(memcmp.o)
    0x080003e8   0x080003e8   0x0000001e   Code   RO         9326    .text               mc_w.l(llshl.o)
    0x08000406   0x08000406   0x00000020   Code   RO         9328    .text               mc_w.l(llushr.o)
    0x08000426   0x08000426   0x00000002   PAD
    0x08000428   0x08000428   0x00000024   Code   RO         9350    .text               mc_w.l(init.o)
    0x0800044c   0x0800044c   0x00000056   Code   RO         9368    .text               mc_w.l(__dczerorl2.o)
    0x080004a2   0x080004a2   0x00000004   Code   RO          537    i.BusFault_Handler  stm32h7xx_it.o
    0x080004a6   0x080004a6   0x00000002   Code   RO          538    i.DebugMon_Handler  stm32h7xx_it.o
    0x080004a8   0x080004a8   0x00000060   Code   RO         1529    i.ETH_DMARxDescListInit  stm32h7xx_hal_eth.o
    0x08000508   0x08000508   0x00000052   Code   RO         1530    i.ETH_DMATxDescListInit  stm32h7xx_hal_eth.o
    0x0800055a   0x0800055a   0x00000002   PAD
    0x0800055c   0x0800055c   0x00000024   Code   RO          804    i.ETH_IRQHandler    lwip.o
    0x08000580   0x08000580   0x00000106   Code   RO         1531    i.ETH_MACDMAConfig  stm32h7xx_hal_eth.o
    0x08000686   0x08000686   0x00000004   Code   RO          649    i.ETH_PHY_IO_DeInit  ethernetif.o
    0x0800068a   0x0800068a   0x00000008   Code   RO          650    i.ETH_PHY_IO_GetTick  ethernetif.o
    0x08000692   0x08000692   0x00000002   PAD
    0x08000694   0x08000694   0x00000010   Code   RO          651    i.ETH_PHY_IO_Init   ethernetif.o
    0x080006a4   0x080006a4   0x00000024   Code   RO          652    i.ETH_PHY_IO_ReadReg  ethernetif.o
    0x080006c8   0x080006c8   0x00000024   Code   RO          653    i.ETH_PHY_IO_WriteReg  ethernetif.o
    0x080006ec   0x080006ec   0x000003d0   Code   RO         1532    i.ETH_Prepare_Tx_Descriptors  stm32h7xx_hal_eth.o
    0x08000abc   0x08000abc   0x000000bc   Code   RO         1533    i.ETH_SetDMAConfig  stm32h7xx_hal_eth.o
    0x08000b78   0x08000b78   0x00000194   Code   RO         1534    i.ETH_SetMACConfig  stm32h7xx_hal_eth.o
    0x08000d0c   0x08000d0c   0x00000098   Code   RO         1535    i.ETH_UpdateDescriptor  stm32h7xx_hal_eth.o
    0x08000da4   0x08000da4   0x00000010   Code   RO          539    i.ETH_WKUP_IRQHandler  stm32h7xx_it.o
    0x08000db4   0x08000db4   0x00000006   Code   RO           13    i.Error_Handler     main.o
    0x08000dba   0x08000dba   0x00000002   PAD
    0x08000dbc   0x08000dbc   0x00000028   Code   RO          805    i.Ethernet_Link_Periodic_Handle  lwip.o
    0x08000de4   0x08000de4   0x000004dc   Code   RO         2734    i.HAL_DMA_Abort     stm32h7xx_hal_dma.o
    0x080012c0   0x080012c0   0x00000398   Code   RO         2735    i.HAL_DMA_Abort_IT  stm32h7xx_hal_dma.o
    0x08001658   0x08001658   0x00000002   Code   RO         1537    i.HAL_ETH_EEECallback  stm32h7xx_hal_eth.o
    0x0800165a   0x0800165a   0x00000002   Code   RO         1539    i.HAL_ETH_ErrorCallback  stm32h7xx_hal_eth.o
    0x0800165c   0x0800165c   0x000001d6   Code   RO         1544    i.HAL_ETH_GetMACConfig  stm32h7xx_hal_eth.o
    0x08001832   0x08001832   0x00000002   PAD
    0x08001834   0x08001834   0x000001c0   Code   RO         1550    i.HAL_ETH_IRQHandler  stm32h7xx_hal_eth.o
    0x080019f4   0x080019f4   0x00000168   Code   RO         1551    i.HAL_ETH_Init      stm32h7xx_hal_eth.o
    0x08001b5c   0x08001b5c   0x00000228   Code   RO          655    i.HAL_ETH_MspInit   ethernetif.o
    0x08001d84   0x08001d84   0x00000002   Code   RO         1554    i.HAL_ETH_PMTCallback  stm32h7xx_hal_eth.o
    0x08001d86   0x08001d86   0x00000100   Code   RO         1555    i.HAL_ETH_ReadData  stm32h7xx_hal_eth.o
    0x08001e86   0x08001e86   0x00000078   Code   RO         1556    i.HAL_ETH_ReadPHYRegister  stm32h7xx_hal_eth.o
    0x08001efe   0x08001efe   0x00000002   PAD
    0x08001f00   0x08001f00   0x00000048   Code   RO          656    i.HAL_ETH_RxAllocateCallback  ethernetif.o
    0x08001f48   0x08001f48   0x00000002   Code   RO         1562    i.HAL_ETH_RxCpltCallback  stm32h7xx_hal_eth.o
    0x08001f4a   0x08001f4a   0x00000002   PAD
    0x08001f4c   0x08001f4c   0x000000a4   Code   RO          657    i.HAL_ETH_RxLinkCallback  ethernetif.o
    0x08001ff0   0x08001ff0   0x00000024   Code   RO         1566    i.HAL_ETH_SetMACConfig  stm32h7xx_hal_eth.o
    0x08002014   0x08002014   0x00000078   Code   RO         1568    i.HAL_ETH_SetMDIOClockRange  stm32h7xx_hal_eth.o
    0x0800208c   0x0800208c   0x000000e0   Code   RO         1573    i.HAL_ETH_Start_IT  stm32h7xx_hal_eth.o
    0x0800216c   0x0800216c   0x00000074   Code   RO         1574    i.HAL_ETH_Stop      stm32h7xx_hal_eth.o
    0x080021e0   0x080021e0   0x000000f6   Code   RO         1576    i.HAL_ETH_Transmit  stm32h7xx_hal_eth.o
    0x080022d6   0x080022d6   0x00000002   Code   RO         1578    i.HAL_ETH_TxCpltCallback  stm32h7xx_hal_eth.o
    0x080022d8   0x080022d8   0x00000002   Code   RO         1583    i.HAL_ETH_WakeUpCallback  stm32h7xx_hal_eth.o
    0x080022da   0x080022da   0x00000002   PAD
    0x080022dc   0x080022dc   0x00000080   Code   RO         1584    i.HAL_ETH_WritePHYRegister  stm32h7xx_hal_eth.o
    0x0800235c   0x0800235c   0x000001fc   Code   RO         2582    i.HAL_GPIO_Init     stm32h7xx_hal_gpio.o
    0x08002558   0x08002558   0x0000000c   Code   RO         2586    i.HAL_GPIO_WritePin  stm32h7xx_hal_gpio.o
    0x08002564   0x08002564   0x0000000c   Code   RO         3600    i.HAL_GetREVID      stm32h7xx_hal.o
    0x08002570   0x08002570   0x0000000c   Code   RO         3601    i.HAL_GetTick       stm32h7xx_hal.o
    0x0800257c   0x0800257c   0x00000018   Code   RO         3607    i.HAL_IncTick       stm32h7xx_hal.o
    0x08002594   0x08002594   0x00000060   Code   RO         3608    i.HAL_Init          stm32h7xx_hal.o
    0x080025f4   0x080025f4   0x00000058   Code   RO         3609    i.HAL_InitTick      stm32h7xx_hal.o
    0x0800264c   0x0800264c   0x0000005c   Code   RO         3437    i.HAL_MPU_ConfigRegion  stm32h7xx_hal_cortex.o
    0x080026a8   0x080026a8   0x0000002c   Code   RO         3438    i.HAL_MPU_Disable   stm32h7xx_hal_cortex.o
    0x080026d4   0x080026d4   0x00000040   Code   RO         3439    i.HAL_MPU_Enable    stm32h7xx_hal_cortex.o
    0x08002714   0x08002714   0x00000024   Code   RO          625    i.HAL_MspInit       stm32h7xx_hal_msp.o
    0x08002738   0x08002738   0x00000028   Code   RO         3442    i.HAL_NVIC_EnableIRQ  stm32h7xx_hal_cortex.o
    0x08002760   0x08002760   0x0000007a   Code   RO         3448    i.HAL_NVIC_SetPriority  stm32h7xx_hal_cortex.o
    0x080027da   0x080027da   0x00000002   PAD
    0x080027dc   0x080027dc   0x00000028   Code   RO         3449    i.HAL_NVIC_SetPriorityGrouping  stm32h7xx_hal_cortex.o
    0x08002804   0x08002804   0x00000060   Code   RO         3183    i.HAL_PWREx_ConfigSupply  stm32h7xx_hal_pwr_ex.o
    0x08002864   0x08002864   0x00000024   Code   RO         2133    i.HAL_RCCEx_GetD3PCLK1Freq  stm32h7xx_hal_rcc_ex.o
    0x08002888   0x08002888   0x00000230   Code   RO         2135    i.HAL_RCCEx_GetPLL2ClockFreq  stm32h7xx_hal_rcc_ex.o
    0x08002ab8   0x08002ab8   0x00000230   Code   RO         2136    i.HAL_RCCEx_GetPLL3ClockFreq  stm32h7xx_hal_rcc_ex.o
    0x08002ce8   0x08002ce8   0x00000d68   Code   RO         2142    i.HAL_RCCEx_PeriphCLKConfig  stm32h7xx_hal_rcc_ex.o
    0x08003a50   0x08003a50   0x00000320   Code   RO         2018    i.HAL_RCC_ClockConfig  stm32h7xx_hal_rcc.o
    0x08003d70   0x08003d70   0x0000004c   Code   RO         2023    i.HAL_RCC_GetHCLKFreq  stm32h7xx_hal_rcc.o
    0x08003dbc   0x08003dbc   0x00000024   Code   RO         2025    i.HAL_RCC_GetPCLK1Freq  stm32h7xx_hal_rcc.o
    0x08003de0   0x08003de0   0x00000024   Code   RO         2026    i.HAL_RCC_GetPCLK2Freq  stm32h7xx_hal_rcc.o
    0x08003e04   0x08003e04   0x0000022c   Code   RO         2027    i.HAL_RCC_GetSysClockFreq  stm32h7xx_hal_rcc.o
    0x08004030   0x08004030   0x00000858   Code   RO         2030    i.HAL_RCC_OscConfig  stm32h7xx_hal_rcc.o
    0x08004888   0x08004888   0x00000014   Code   RO         3620    i.HAL_SYSCFG_ETHInterfaceSelect  stm32h7xx_hal.o
    0x0800489c   0x0800489c   0x00000034   Code   RO         3453    i.HAL_SYSTICK_Config  stm32h7xx_hal_cortex.o
    0x080048d0   0x080048d0   0x0000004e   Code   RO         4953    i.HAL_UARTEx_DisableFifoMode  stm32h7xx_hal_uart_ex.o
    0x0800491e   0x0800491e   0x00000002   Code   RO         4537    i.HAL_UARTEx_RxEventCallback  stm32h7xx_hal_uart.o
    0x08004920   0x08004920   0x00000002   Code   RO         4961    i.HAL_UARTEx_RxFifoFullCallback  stm32h7xx_hal_uart_ex.o
    0x08004922   0x08004922   0x0000005e   Code   RO         4962    i.HAL_UARTEx_SetRxFifoThreshold  stm32h7xx_hal_uart_ex.o
    0x08004980   0x08004980   0x0000005e   Code   RO         4963    i.HAL_UARTEx_SetTxFifoThreshold  stm32h7xx_hal_uart_ex.o
    0x080049de   0x080049de   0x00000002   Code   RO         4965    i.HAL_UARTEx_TxFifoEmptyCallback  stm32h7xx_hal_uart_ex.o
    0x080049e0   0x080049e0   0x00000002   Code   RO         4966    i.HAL_UARTEx_WakeupCallback  stm32h7xx_hal_uart_ex.o
    0x080049e2   0x080049e2   0x00000002   Code   RO         4553    i.HAL_UART_ErrorCallback  stm32h7xx_hal_uart.o
    0x080049e4   0x080049e4   0x00000494   Code   RO         4556    i.HAL_UART_IRQHandler  stm32h7xx_hal_uart.o
    0x08004e78   0x08004e78   0x00000078   Code   RO         4557    i.HAL_UART_Init     stm32h7xx_hal_uart.o
    0x08004ef0   0x08004ef0   0x000000c4   Code   RO          496    i.HAL_UART_MspInit  usart.o
    0x08004fb4   0x08004fb4   0x00000002   Code   RO         4569    i.HAL_UART_TxCpltCallback  stm32h7xx_hal_uart.o
    0x08004fb6   0x08004fb6   0x00000004   Code   RO          540    i.HardFault_Handler  stm32h7xx_it.o
    0x08004fba   0x08004fba   0x000000e8   Code   RO         1445    i.LAN8742_GetLinkState  lan8742.o
    0x080050a2   0x080050a2   0x000000fe   Code   RO         1446    i.LAN8742_Init      lan8742.o
    0x080051a0   0x080051a0   0x0000002e   Code   RO         1447    i.LAN8742_RegisterBusIO  lan8742.o
    0x080051ce   0x080051ce   0x00000002   PAD
    0x080051d0   0x080051d0   0x00000060   Code   RO           14    i.MPU_Config        main.o
    0x08005230   0x08005230   0x00000124   Code   RO          363    i.MX_GPIO_Init      gpio.o
    0x08005354   0x08005354   0x00000240   Code   RO          806    i.MX_LWIP_Init      lwip.o
    0x08005594   0x08005594   0x00000014   Code   RO          807    i.MX_LWIP_Process   lwip.o
    0x080055a8   0x080055a8   0x0000006c   Code   RO          497    i.MX_USART1_UART_Init  usart.o
    0x08005614   0x08005614   0x00000004   Code   RO          541    i.MemManage_Handler  stm32h7xx_it.o
    0x08005618   0x08005618   0x00000004   Code   RO          542    i.NMI_Handler       stm32h7xx_it.o
    0x0800561c   0x0800561c   0x00000002   Code   RO          543    i.PendSV_Handler    stm32h7xx_it.o
    0x0800561e   0x0800561e   0x00000002   PAD
    0x08005620   0x08005620   0x00000164   Code   RO         2145    i.RCCEx_PLL2_Config  stm32h7xx_hal_rcc_ex.o
    0x08005784   0x08005784   0x00000164   Code   RO         2146    i.RCCEx_PLL3_Config  stm32h7xx_hal_rcc_ex.o
    0x080058e8   0x080058e8   0x00000002   Code   RO          544    i.SVC_Handler       stm32h7xx_it.o
    0x080058ea   0x080058ea   0x00000008   Code   RO          545    i.SysTick_Handler   stm32h7xx_it.o
    0x080058f2   0x080058f2   0x00000002   PAD
    0x080058f4   0x080058f4   0x0000013c   Code   RO           15    i.SystemClock_Config  main.o
    0x08005a30   0x08005a30   0x000000fc   Code   RO         5077    i.SystemInit        system_stm32h7xx.o
    0x08005b2c   0x08005b2c   0x00000014   Code   RO         1254    i.TCP_Client_PT_Init  tcp_client.o
    0x08005b40   0x08005b40   0x00000058   Code   RO         1363    i.TCP_Server_Init   tcp_server.o
    0x08005b98   0x08005b98   0x00000014   Code   RO         1364    i.TCP_Server_PT_Init  tcp_server.o
    0x08005bac   0x08005bac   0x00000058   Code   RO         4967    i.UARTEx_SetNbDataToProcess  stm32h7xx_hal_uart_ex.o
    0x08005c04   0x08005c04   0x000000f8   Code   RO         4571    i.UART_AdvFeatureConfig  stm32h7xx_hal_uart.o
    0x08005cfc   0x08005cfc   0x000000ea   Code   RO         4572    i.UART_CheckIdleState  stm32h7xx_hal_uart.o
    0x08005de6   0x08005de6   0x00000018   Code   RO         4573    i.UART_DMAAbortOnError  stm32h7xx_hal_uart.o
    0x08005dfe   0x08005dfe   0x00000002   PAD
    0x08005e00   0x08005e00   0x0000006c   Code   RO         4583    i.UART_EndRxTransfer  stm32h7xx_hal_uart.o
    0x08005e6c   0x08005e6c   0x00000030   Code   RO         4584    i.UART_EndTransmit_IT  stm32h7xx_hal_uart.o
    0x08005e9c   0x08005e9c   0x0000058c   Code   RO         4590    i.UART_SetConfig    stm32h7xx_hal_uart.o
    0x08006428   0x08006428   0x000000a2   Code   RO         4597    i.UART_WaitOnFlagUntilTimeout  stm32h7xx_hal_uart.o
    0x080064ca   0x080064ca   0x00000002   PAD
    0x080064cc   0x080064cc   0x00000010   Code   RO          546    i.USART1_IRQHandler  stm32h7xx_it.o
    0x080064dc   0x080064dc   0x00000064   Code   RO         1129    i.Udp_Lwip_Init     lwip_udp.o
    0x08006540   0x08006540   0x00000004   Code   RO          547    i.UsageFault_Handler  stm32h7xx_it.o
    0x08006544   0x08006544   0x00000020   Code   RO         9251    i.__0printf$8       mc_w.l(printf8.o)
    0x08006564   0x08006564   0x00000010   Code   RO         3455    i.__NVIC_GetPriorityGrouping  stm32h7xx_hal_cortex.o
    0x08006574   0x08006574   0x00000028   Code   RO         3456    i.__NVIC_SetPriority  stm32h7xx_hal_cortex.o
    0x0800659c   0x0800659c   0x0000000e   Code   RO         9362    i.__scatterload_copy  mc_w.l(handlers.o)
    0x080065aa   0x080065aa   0x00000002   Code   RO         9363    i.__scatterload_null  mc_w.l(handlers.o)
    0x080065ac   0x080065ac   0x0000000e   Code   RO         9364    i.__scatterload_zeroinit  mc_w.l(handlers.o)
    0x080065ba   0x080065ba   0x00000002   PAD
    0x080065bc   0x080065bc   0x00000404   Code   RO         9258    i._printf_core      mc_w.l(printf8.o)
    0x080069c0   0x080069c0   0x00000024   Code   RO         9259    i._printf_post_padding  mc_w.l(printf8.o)
    0x080069e4   0x080069e4   0x0000002e   Code   RO         9260    i._printf_pre_padding  mc_w.l(printf8.o)
    0x08006a12   0x08006a12   0x00000002   PAD
    0x08006a14   0x08006a14   0x00000118   Code   RO         1258    i.client_set_remote_ip  tcp_client.o
    0x08006b2c   0x08006b2c   0x000000ac   Code   RO         6634    i.do_memp_free_pool  memp.o
    0x08006bd8   0x08006bd8   0x000000b4   Code   RO         6635    i.do_memp_malloc_pool  memp.o
    0x08006c8c   0x08006c8c   0x00000038   Code   RO         8132    i.etharp_cleanup_netif  etharp.o
    0x08006cc4   0x08006cc4   0x00000300   Code   RO         8134    i.etharp_find_entry  etharp.o
    0x08006fc4   0x08006fc4   0x00000040   Code   RO         8135    i.etharp_free_entry  etharp.o
    0x08007004   0x08007004   0x0000013c   Code   RO         8137    i.etharp_input      etharp.o
    0x08007140   0x08007140   0x00000224   Code   RO         8138    i.etharp_output     etharp.o
    0x08007364   0x08007364   0x00000168   Code   RO         8139    i.etharp_output_to_arp_index  etharp.o
    0x080074cc   0x080074cc   0x000002a4   Code   RO         8140    i.etharp_query      etharp.o
    0x08007770   0x08007770   0x0000018c   Code   RO         8141    i.etharp_raw        etharp.o
    0x080078fc   0x080078fc   0x00000018   Code   RO         8142    i.etharp_request    etharp.o
    0x08007914   0x08007914   0x0000002c   Code   RO         8143    i.etharp_request_dst  etharp.o
    0x08007940   0x08007940   0x000000dc   Code   RO         8144    i.etharp_tmr        etharp.o
    0x08007a1c   0x08007a1c   0x0000015c   Code   RO         8145    i.etharp_update_arp_entry  etharp.o
    0x08007b78   0x08007b78   0x000000c4   Code   RO         5792    i.ethernet_input    ethernet.o
    0x08007c3c   0x08007c3c   0x000000cc   Code   RO          659    i.ethernet_link_check_state  ethernetif.o
    0x08007d08   0x08007d08   0x00000060   Code   RO          808    i.ethernet_link_status_updated  lwip.o
    0x08007d68   0x08007d68   0x00000104   Code   RO         5793    i.ethernet_output   ethernet.o
    0x08007e6c   0x08007e6c   0x00000098   Code   RO          660    i.ethernetif_init   ethernetif.o
    0x08007f04   0x08007f04   0x00000064   Code   RO          661    i.ethernetif_input  ethernetif.o
    0x08007f68   0x08007f68   0x0000001c   Code   RO           16    i.fputc             main.o
    0x08007f84   0x08007f84   0x00000012   Code   RO         8239    i.icmp_dest_unreach  icmp.o
    0x08007f96   0x08007f96   0x00000002   PAD
    0x08007f98   0x08007f98   0x000002a4   Code   RO         8240    i.icmp_input        icmp.o
    0x0800823c   0x0800823c   0x00000124   Code   RO         8241    i.icmp_send_response  icmp.o
    0x08008360   0x08008360   0x00000012   Code   RO         8242    i.icmp_time_exceeded  icmp.o
    0x08008372   0x08008372   0x00000014   Code   RO         6368    i.inet_chksum       inet_chksum.o
    0x08008386   0x08008386   0x00000056   Code   RO         6369    i.inet_chksum_pbuf  inet_chksum.o
    0x080083dc   0x080083dc   0x0000004e   Code   RO         8372    i.ip4_addr_isbroadcast_u32  ip4_addr.o
    0x0800842a   0x0800842a   0x00000002   PAD
    0x0800842c   0x0800842c   0x000002cc   Code   RO         8444    i.ip4_frag          ip4_frag.o
    0x080086f8   0x080086f8   0x0000019c   Code   RO         8313    i.ip4_input         ip4.o
    0x08008894   0x08008894   0x00000034   Code   RO         8314    i.ip4_input_accept  ip4.o
    0x080088c8   0x080088c8   0x00000036   Code   RO         8316    i.ip4_output_if     ip4.o
    0x080088fe   0x080088fe   0x00000002   PAD
    0x08008900   0x08008900   0x0000019c   Code   RO         8317    i.ip4_output_if_src  ip4.o
    0x08008a9c   0x08008a9c   0x000002fc   Code   RO         8445    i.ip4_reass         ip4_frag.o
    0x08008d98   0x08008d98   0x00000094   Code   RO         8318    i.ip4_route         ip4.o
    0x08008e2c   0x08008e2c   0x0000000a   Code   RO         8446    i.ip_frag_alloc_pbuf_custom_ref  ip4_frag.o
    0x08008e36   0x08008e36   0x00000002   PAD
    0x08008e38   0x08008e38   0x00000098   Code   RO         8447    i.ip_frag_free_pbuf_custom_ref  ip4_frag.o
    0x08008ed0   0x08008ed0   0x00000304   Code   RO         8448    i.ip_reass_chain_frag_into_datagram_and_validate  ip4_frag.o
    0x080091d4   0x080091d4   0x000000c4   Code   RO         8449    i.ip_reass_dequeue_datagram  ip4_frag.o
    0x08009298   0x08009298   0x00000054   Code   RO         8450    i.ip_reass_enqueue_new_datagram  ip4_frag.o
    0x080092ec   0x080092ec   0x000001e0   Code   RO         8451    i.ip_reass_free_complete_datagram  ip4_frag.o
    0x080094cc   0x080094cc   0x00000088   Code   RO         8452    i.ip_reass_remove_oldest_datagram  ip4_frag.o
    0x08009554   0x08009554   0x00000034   Code   RO         8453    i.ip_reass_tmr      ip4_frag.o
    0x08009588   0x08009588   0x000000c8   Code   RO         8454    i.ipfrag_free_pbuf_custom  ip4_frag.o
    0x08009650   0x08009650   0x000000fc   Code   RO          662    i.low_level_init    ethernetif.o
    0x0800974c   0x0800974c   0x000000a4   Code   RO          663    i.low_level_input   ethernetif.o
    0x080097f0   0x080097f0   0x0000012c   Code   RO          664    i.low_level_output  ethernetif.o
    0x0800991c   0x0800991c   0x00000050   Code   RO         7862    i.lwip_cyclic_timer  timeouts.o
    0x0800996c   0x0800996c   0x0000001a   Code   RO         6288    i.lwip_htonl        def.o
    0x08009986   0x08009986   0x0000000c   Code   RO         6289    i.lwip_htons        def.o
    0x08009992   0x08009992   0x00000002   PAD
    0x08009994   0x08009994   0x0000009c   Code   RO         6452    i.lwip_init         init.o
    0x08009a30   0x08009a30   0x0000005e   Code   RO         6376    i.lwip_standard_chksum  inet_chksum.o
    0x08009a8e   0x08009a8e   0x00000002   PAD
    0x08009a90   0x08009a90   0x00000024   Code   RO         1130    i.lwip_udp_discollected  lwip_udp.o
    0x08009ab4   0x08009ab4   0x000000dc   Code   RO         1131    i.lwip_udp_recv_callback  lwip_udp.o
    0x08009b90   0x08009b90   0x0000001c   Code   RO         1132    i.lwip_udp_register  lwip_udp.o
    0x08009bac   0x08009bac   0x00000048   Code   RO         1133    i.lwip_udp_send     lwip_udp.o
    0x08009bf4   0x08009bf4   0x00000110   Code   RO         1134    i.lwip_udp_set_remote_ip  lwip_udp.o
    0x08009d04   0x08009d04   0x000001b8   Code   RO           17    i.main              main.o
    0x08009ebc   0x08009ebc   0x000001c4   Code   RO         6554    i.mem_free          mem.o
    0x0800a080   0x0800a080   0x00000058   Code   RO         6555    i.mem_init          mem.o
    0x0800a0d8   0x0800a0d8   0x00000058   Code   RO         6556    i.mem_link_valid    mem.o
    0x0800a130   0x0800a130   0x000002a8   Code   RO         6557    i.mem_malloc        mem.o
    0x0800a3d8   0x0800a3d8   0x00000010   Code   RO         6558    i.mem_to_ptr        mem.o
    0x0800a3e8   0x0800a3e8   0x00000234   Code   RO         6559    i.mem_trim          mem.o
    0x0800a61c   0x0800a61c   0x000000b0   Code   RO         6636    i.memp_free         memp.o
    0x0800a6cc   0x0800a6cc   0x000000a0   Code   RO         6637    i.memp_free_pool    memp.o
    0x0800a76c   0x0800a76c   0x00000020   Code   RO         6638    i.memp_init         memp.o
    0x0800a78c   0x0800a78c   0x0000002c   Code   RO         6639    i.memp_init_pool    memp.o
    0x0800a7b8   0x0800a7b8   0x000000b0   Code   RO         6640    i.memp_malloc       memp.o
    0x0800a868   0x0800a868   0x00000098   Code   RO         6641    i.memp_malloc_pool  memp.o
    0x0800a900   0x0800a900   0x00000230   Code   RO         6747    i.netif_add         netif.o
    0x0800ab30   0x0800ab30   0x00000018   Code   RO         6749    i.netif_do_ip_addr_changed  netif.o
    0x0800ab48   0x0800ab48   0x00000026   Code   RO         6750    i.netif_do_set_gw   netif.o
    0x0800ab6e   0x0800ab6e   0x00000002   PAD
    0x0800ab70   0x0800ab70   0x000000e0   Code   RO         6751    i.netif_do_set_ipaddr  netif.o
    0x0800ac50   0x0800ac50   0x00000026   Code   RO         6752    i.netif_do_set_netmask  netif.o
    0x0800ac76   0x0800ac76   0x00000002   PAD
    0x0800ac78   0x0800ac78   0x00000028   Code   RO         6754    i.netif_get_by_index  netif.o
    0x0800aca0   0x0800aca0   0x00000002   Code   RO         6756    i.netif_init        netif.o
    0x0800aca2   0x0800aca2   0x00000002   PAD
    0x0800aca4   0x0800aca4   0x000000d8   Code   RO         6758    i.netif_issue_reports  netif.o
    0x0800ad7c   0x0800ad7c   0x00000008   Code   RO         6760    i.netif_null_output_ip4  netif.o
    0x0800ad84   0x0800ad84   0x00000060   Code   RO         6762    i.netif_set_addr    netif.o
    0x0800ade4   0x0800ade4   0x0000000c   Code   RO         6763    i.netif_set_default  netif.o
    0x0800adf0   0x0800adf0   0x000000cc   Code   RO         6764    i.netif_set_down    netif.o
    0x0800aebc   0x0800aebc   0x00000006   Code   RO         6767    i.netif_set_link_callback  netif.o
    0x0800aec2   0x0800aec2   0x00000002   PAD
    0x0800aec4   0x0800aec4   0x000000cc   Code   RO         6768    i.netif_set_link_down  netif.o
    0x0800af90   0x0800af90   0x000000d4   Code   RO         6769    i.netif_set_link_up  netif.o
    0x0800b064   0x0800b064   0x000000c0   Code   RO         6771    i.netif_set_up      netif.o
    0x0800b124   0x0800b124   0x00000012   Code   RO         6940    i.pbuf_add_header   pbuf.o
    0x0800b136   0x0800b136   0x00000002   PAD
    0x0800b138   0x0800b138   0x000000e8   Code   RO         6942    i.pbuf_add_header_impl  pbuf.o
    0x0800b220   0x0800b220   0x000002a4   Code   RO         6943    i.pbuf_alloc        pbuf.o
    0x0800b4c4   0x0800b4c4   0x000000bc   Code   RO         6944    i.pbuf_alloc_reference  pbuf.o
    0x0800b580   0x0800b580   0x00000052   Code   RO         6945    i.pbuf_alloced_custom  pbuf.o
    0x0800b5d2   0x0800b5d2   0x00000002   PAD
    0x0800b5d4   0x0800b5d4   0x00000150   Code   RO         6946    i.pbuf_cat          pbuf.o
    0x0800b724   0x0800b724   0x00000016   Code   RO         6947    i.pbuf_chain        pbuf.o
    0x0800b73a   0x0800b73a   0x00000012   Code   RO         6948    i.pbuf_clen         pbuf.o
    0x0800b74c   0x0800b74c   0x000000b0   Code   RO         6949    i.pbuf_clone        pbuf.o
    0x0800b7fc   0x0800b7fc   0x00000228   Code   RO         6951    i.pbuf_copy         pbuf.o
    0x0800ba24   0x0800ba24   0x00000140   Code   RO         6952    i.pbuf_copy_partial  pbuf.o
    0x0800bb64   0x0800bb64   0x0000019c   Code   RO         6954    i.pbuf_free         pbuf.o
    0x0800bd00   0x0800bd00   0x00000028   Code   RO          665    i.pbuf_free_custom  ethernetif.o
    0x0800bd28   0x0800bd28   0x00000030   Code   RO         6956    i.pbuf_free_ooseq   pbuf.o
    0x0800bd58   0x0800bd58   0x00000012   Code   RO         6960    i.pbuf_header_force  pbuf.o
    0x0800bd6a   0x0800bd6a   0x00000022   Code   RO         6961    i.pbuf_header_impl  pbuf.o
    0x0800bd8c   0x0800bd8c   0x0000001e   Code   RO         6962    i.pbuf_init_alloced_pbuf  pbuf.o
    0x0800bdaa   0x0800bdaa   0x00000002   PAD
    0x0800bdac   0x0800bdac   0x00000010   Code   RO         6965    i.pbuf_pool_is_empty  pbuf.o
    0x0800bdbc   0x0800bdbc   0x00000168   Code   RO         6967    i.pbuf_realloc      pbuf.o
    0x0800bf24   0x0800bf24   0x0000009c   Code   RO         6968    i.pbuf_ref          pbuf.o
    0x0800bfc0   0x0800bfc0   0x000000f4   Code   RO         6969    i.pbuf_remove_header  pbuf.o
    0x0800c0b4   0x0800c0b4   0x000001c8   Code   RO         6973    i.pbuf_take         pbuf.o
    0x0800c27c   0x0800c27c   0x000001d8   Code   RO         6560    i.plug_holes        mem.o
    0x0800c454   0x0800c454   0x00000010   Code   RO         6561    i.ptr_to_mem        mem.o
    0x0800c464   0x0800c464   0x00000110   Code   RO         1365    i.server_set_local_ip  tcp_server.o
    0x0800c574   0x0800c574   0x00000064   Code   RO         7863    i.sys_check_timeouts  timeouts.o
    0x0800c5d8   0x0800c5d8   0x00000008   Code   RO          666    i.sys_now           ethernetif.o
    0x0800c5e0   0x0800c5e0   0x000000d0   Code   RO         7865    i.sys_timeout       timeouts.o
    0x0800c6b0   0x0800c6b0   0x00000140   Code   RO         7866    i.sys_timeout_abs   timeouts.o
    0x0800c7f0   0x0800c7f0   0x00000028   Code   RO         7867    i.sys_timeouts_init  timeouts.o
    0x0800c818   0x0800c818   0x000001d4   Code   RO         7260    i.tcp_abandon       tcp.o
    0x0800c9ec   0x0800c9ec   0x0000000e   Code   RO         7261    i.tcp_abort         tcp.o
    0x0800c9fa   0x0800c9fa   0x00000010   Code   RO         7262    i.tcp_accept        tcp.o
    0x0800ca0a   0x0800ca0a   0x00000002   PAD
    0x0800ca0c   0x0800ca0c   0x000000a8   Code   RO         7263    i.tcp_accept_null   tcp.o
    0x0800cab4   0x0800cab4   0x000000bc   Code   RO         7264    i.tcp_alloc         tcp.o
    0x0800cb70   0x0800cb70   0x00000006   Code   RO         7265    i.tcp_arg           tcp.o
    0x0800cb76   0x0800cb76   0x00000002   PAD
    0x0800cb78   0x0800cb78   0x00000170   Code   RO         7266    i.tcp_bind          tcp.o
    0x0800cce8   0x0800cce8   0x00000040   Code   RO         1366    i.tcp_client_connection_close  tcp_server.o
    0x0800cd28   0x0800cd28   0x000000b0   Code   RO         7268    i.tcp_close         tcp.o
    0x0800cdd8   0x0800cdd8   0x0000020c   Code   RO         7269    i.tcp_close_shutdown  tcp.o
    0x0800cfe4   0x0800cfe4   0x000000e8   Code   RO         7270    i.tcp_close_shutdown_fin  tcp.o
    0x0800d0cc   0x0800d0cc   0x000001d4   Code   RO         7698    i.tcp_create_segment  tcp_out.o
    0x0800d2a0   0x0800d2a0   0x000000d4   Code   RO         7273    i.tcp_eff_send_mss_netif  tcp.o
    0x0800d374   0x0800d374   0x000002c0   Code   RO         7699    i.tcp_enqueue_flags  tcp_out.o
    0x0800d634   0x0800d634   0x000000ac   Code   RO         7274    i.tcp_err           tcp.o
    0x0800d6e0   0x0800d6e0   0x0000009c   Code   RO         7275    i.tcp_fasttmr       tcp.o
    0x0800d77c   0x0800d77c   0x00000094   Code   RO         7276    i.tcp_free          tcp.o
    0x0800d810   0x0800d810   0x0000015c   Code   RO         7605    i.tcp_free_acked_segments  tcp_in.o
    0x0800d96c   0x0800d96c   0x0000009c   Code   RO         7277    i.tcp_free_listen   tcp.o
    0x0800da08   0x0800da08   0x00000014   Code   RO         7278    i.tcp_free_ooseq    tcp.o
    0x0800da1c   0x0800da1c   0x00000048   Code   RO         7606    i.tcp_get_next_optbyte  tcp_in.o
    0x0800da64   0x0800da64   0x00000034   Code   RO         7279    i.tcp_handle_closepend  tcp.o
    0x0800da98   0x0800da98   0x00000018   Code   RO         7280    i.tcp_init          tcp.o
    0x0800dab0   0x0800dab0   0x00000818   Code   RO         7607    i.tcp_input         tcp_in.o
    0x0800e2c8   0x0800e2c8   0x000000e8   Code   RO         7608    i.tcp_input_delayed_close  tcp_in.o
    0x0800e3b0   0x0800e3b0   0x000000dc   Code   RO         7700    i.tcp_keepalive     tcp_out.o
    0x0800e48c   0x0800e48c   0x00000068   Code   RO         7281    i.tcp_kill_prio     tcp.o
    0x0800e4f4   0x0800e4f4   0x000000d0   Code   RO         7282    i.tcp_kill_state    tcp.o
    0x0800e5c4   0x0800e5c4   0x0000003c   Code   RO         7283    i.tcp_kill_timewait  tcp.o
    0x0800e600   0x0800e600   0x000000d4   Code   RO         7284    i.tcp_listen_closed  tcp.o
    0x0800e6d4   0x0800e6d4   0x000001f4   Code   RO         7609    i.tcp_listen_input  tcp_in.o
    0x0800e8c8   0x0800e8c8   0x00000012   Code   RO         7285    i.tcp_listen_with_backlog  tcp.o
    0x0800e8da   0x0800e8da   0x00000002   PAD
    0x0800e8dc   0x0800e8dc   0x000001c4   Code   RO         7286    i.tcp_listen_with_backlog_and_err  tcp.o
    0x0800eaa0   0x0800eaa0   0x0000004c   Code   RO         7287    i.tcp_netif_ip_addr_changed  tcp.o
    0x0800eaec   0x0800eaec   0x000000d0   Code   RO         7288    i.tcp_netif_ip_addr_changed_pcblist  tcp.o
    0x0800ebbc   0x0800ebbc   0x0000000a   Code   RO         7289    i.tcp_new           tcp.o
    0x0800ebc6   0x0800ebc6   0x00000002   PAD
    0x0800ebc8   0x0800ebc8   0x00000068   Code   RO         7291    i.tcp_new_port      tcp.o
    0x0800ec30   0x0800ec30   0x000000b0   Code   RO         7292    i.tcp_next_iss      tcp.o
    0x0800ece0   0x0800ece0   0x0000012c   Code   RO         7610    i.tcp_oos_insert_segment  tcp_in.o
    0x0800ee0c   0x0800ee0c   0x00000364   Code   RO         7701    i.tcp_output        tcp_out.o
    0x0800f170   0x0800f170   0x000000dc   Code   RO         7702    i.tcp_output_alloc_header  tcp_out.o
    0x0800f24c   0x0800f24c   0x00000124   Code   RO         7703    i.tcp_output_alloc_header_common  tcp_out.o
    0x0800f370   0x0800f370   0x000000fc   Code   RO         7704    i.tcp_output_control_segment  tcp_out.o
    0x0800f46c   0x0800f46c   0x00000124   Code   RO         7705    i.tcp_output_fill_options  tcp_out.o
    0x0800f590   0x0800f590   0x0000024c   Code   RO         7706    i.tcp_output_segment  tcp_out.o
    0x0800f7dc   0x0800f7dc   0x000000b4   Code   RO         7707    i.tcp_output_segment_busy  tcp_out.o
    0x0800f890   0x0800f890   0x00000130   Code   RO         7611    i.tcp_parseopt      tcp_in.o
    0x0800f9c0   0x0800f9c0   0x00000178   Code   RO         7708    i.tcp_pbuf_prealloc  tcp_out.o
    0x0800fb38   0x0800fb38   0x000000dc   Code   RO         7293    i.tcp_pcb_purge     tcp.o
    0x0800fc14   0x0800fc14   0x000001d8   Code   RO         7294    i.tcp_pcb_remove    tcp.o
    0x0800fdec   0x0800fdec   0x000000dc   Code   RO         7295    i.tcp_poll          tcp.o
    0x0800fec8   0x0800fec8   0x00000744   Code   RO         7612    i.tcp_process       tcp_in.o
    0x0801060c   0x0801060c   0x00000138   Code   RO         7296    i.tcp_process_refused_data  tcp.o
    0x08010744   0x08010744   0x00000c7c   Code   RO         7613    i.tcp_receive       tcp_in.o
    0x080113c0   0x080113c0   0x000000ac   Code   RO         7297    i.tcp_recv          tcp.o
    0x0801146c   0x0801146c   0x000000c4   Code   RO         7298    i.tcp_recv_null     tcp.o
    0x08011530   0x08011530   0x0000011c   Code   RO         7299    i.tcp_recved        tcp.o
    0x0801164c   0x0801164c   0x000000b4   Code   RO         7300    i.tcp_remove_listener  tcp.o
    0x08011700   0x08011700   0x00000104   Code   RO         7709    i.tcp_rexmit        tcp_out.o
    0x08011804   0x08011804   0x0000010c   Code   RO         7710    i.tcp_rexmit_fast   tcp_out.o
    0x08011910   0x08011910   0x000000a8   Code   RO         7711    i.tcp_rexmit_rto    tcp_out.o
    0x080119b8   0x080119b8   0x000000b8   Code   RO         7712    i.tcp_rexmit_rto_commit  tcp_out.o
    0x08011a70   0x08011a70   0x00000118   Code   RO         7713    i.tcp_rexmit_rto_prepare  tcp_out.o
    0x08011b88   0x08011b88   0x0000001e   Code   RO         7714    i.tcp_route         tcp_out.o
    0x08011ba6   0x08011ba6   0x00000002   PAD
    0x08011ba8   0x08011ba8   0x00000128   Code   RO         7715    i.tcp_rst           tcp_out.o
    0x08011cd0   0x08011cd0   0x000000b4   Code   RO         7301    i.tcp_seg_copy      tcp.o
    0x08011d84   0x08011d84   0x0000001a   Code   RO         7302    i.tcp_seg_free      tcp.o
    0x08011d9e   0x08011d9e   0x00000018   Code   RO         7303    i.tcp_segs_free     tcp.o
    0x08011db6   0x08011db6   0x00000002   PAD
    0x08011db8   0x08011db8   0x00000140   Code   RO         7716    i.tcp_send_empty_ack  tcp_out.o
    0x08011ef8   0x08011ef8   0x000000e0   Code   RO         7717    i.tcp_send_fin      tcp_out.o
    0x08011fd8   0x08011fd8   0x000000ac   Code   RO         7304    i.tcp_sent          tcp.o
    0x08012084   0x08012084   0x00000044   Code   RO         1367    i.tcp_server_accept_cbk  tcp_server.o
    0x080120c8   0x080120c8   0x00000030   Code   RO         1368    i.tcp_server_err_cbk  tcp_server.o
    0x080120f8   0x080120f8   0x00000026   Code   RO         1369    i.tcp_server_poll_cbk  tcp_server.o
    0x0801211e   0x0801211e   0x00000002   PAD
    0x08012120   0x08012120   0x00000118   Code   RO         1370    i.tcp_server_recv_cbk  tcp_server.o
    0x08012238   0x08012238   0x00000012   Code   RO         1371    i.tcp_server_sent_cbk  tcp_server.o
    0x0801224a   0x0801224a   0x00000002   PAD
    0x0801224c   0x0801224c   0x00000730   Code   RO         7307    i.tcp_slowtmr       tcp.o
    0x0801297c   0x0801297c   0x000002d0   Code   RO         7718    i.tcp_split_unsent_seg  tcp_out.o
    0x08012c4c   0x08012c4c   0x00000038   Code   RO         7870    i.tcp_timer_needed  timeouts.o
    0x08012c84   0x08012c84   0x00000144   Code   RO         7614    i.tcp_timewait_input  tcp_in.o
    0x08012dc8   0x08012dc8   0x00000024   Code   RO         7309    i.tcp_tmr           tcp.o
    0x08012dec   0x08012dec   0x00000014   Code   RO         7615    i.tcp_trigger_input_pcb_close  tcp_in.o
    0x08012e00   0x08012e00   0x00000118   Code   RO         7311    i.tcp_update_rcv_ann_wnd  tcp.o
    0x08012f18   0x08012f18   0x00000824   Code   RO         7719    i.tcp_write         tcp_out.o
    0x0801373c   0x0801373c   0x000001b4   Code   RO         7720    i.tcp_write_checks  tcp_out.o
    0x080138f0   0x080138f0   0x00000170   Code   RO         7721    i.tcp_zero_window_probe  tcp_out.o
    0x08013a60   0x08013a60   0x00000038   Code   RO         7871    i.tcpip_tcp_timer   timeouts.o
    0x08013a98   0x08013a98   0x00000124   Code   RO         7954    i.udp_bind          udp.o
    0x08013bbc   0x08013bbc   0x00000134   Code   RO         7956    i.udp_connect       udp.o
    0x08013cf0   0x08013cf0   0x000000ac   Code   RO         7957    i.udp_disconnect    udp.o
    0x08013d9c   0x08013d9c   0x00000018   Code   RO         7958    i.udp_init          udp.o
    0x08013db4   0x08013db4   0x0000024c   Code   RO         7959    i.udp_input         udp.o
    0x08014000   0x08014000   0x00000138   Code   RO         7960    i.udp_input_local_match  udp.o
    0x08014138   0x08014138   0x00000030   Code   RO         7961    i.udp_netif_ip_addr_changed  udp.o
    0x08014168   0x08014168   0x0000001c   Code   RO         7962    i.udp_new           udp.o
    0x08014184   0x08014184   0x00000058   Code   RO         7964    i.udp_new_port      udp.o
    0x080141dc   0x080141dc   0x0000009c   Code   RO         7965    i.udp_recv          udp.o
    0x08014278   0x08014278   0x000000d4   Code   RO         7966    i.udp_remove        udp.o
    0x0801434c   0x0801434c   0x000000dc   Code   RO         7967    i.udp_send          udp.o
    0x08014428   0x08014428   0x00000144   Code   RO         7968    i.udp_sendto        udp.o
    0x0801456c   0x0801456c   0x00000198   Code   RO         7969    i.udp_sendto_if     udp.o
    0x08014704   0x08014704   0x000002b4   Code   RO         7970    i.udp_sendto_if_src  udp.o
    0x080149b8   0x080149b8   0x0000000c   Data   RO          670    .constdata          ethernetif.o
    0x080149c4   0x080149c4   0x00000018   Data   RO         4598    .constdata          stm32h7xx_hal_uart.o
    0x080149dc   0x080149dc   0x00000010   Data   RO         4969    .constdata          stm32h7xx_hal_uart_ex.o
    0x080149ec   0x080149ec   0x00000010   Data   RO         5078    .constdata          system_stm32h7xx.o
    0x080149fc   0x080149fc   0x0000000c   Data   RO         5794    .constdata          ethernet.o
    0x08014a08   0x08014a08   0x00000090   Data   RO         6643    .constdata          memp.o
    0x08014a98   0x08014a98   0x00000050   Data   RO         7312    .constdata          tcp.o
    0x08014ae8   0x08014ae8   0x0000001c   Data   RO         7872    .constdata          timeouts.o
    0x08014b04   0x08014b04   0x00000008   Data   RO         8379    .constdata          ip4_addr.o
    0x08014b0c   0x08014b0c   0x00000041   Data   RO         6453    .conststring        init.o
    0x08014b4d   0x08014b4d   0x00000003   PAD
    0x08014b50   0x08014b50   0x00000075   Data   RO         7313    .conststring        tcp.o
    0x08014bc5   0x08014bc5   0x00000003   PAD
    0x08014bc8   0x08014bc8   0x00000055   Data   RO         7722    .conststring        tcp_out.o
    0x08014c1d   0x08014c1d   0x00000003   PAD
    0x08014c20   0x08014c20   0x00000041   Data   RO         8147    .conststring        etharp.o
    0x08014c61   0x08014c61   0x00000003   PAD
    0x08014c64   0x08014c64   0x00000020   Data   RO         9360    Region$$Table       anon$$obj.o


    Execution Region RW_IRAM1 (Exec base: 0x20000000, Load base: 0x08014c84, Size: 0x00000000, Max: 0x00020000, ABSOLUTE)

    **** No section assigned to this execution region ****


    Execution Region RW_IRAM2 (Exec base: 0x24000000, Load base: 0x08014c84, Size: 0x00015908, Max: 0x00080000, ABSOLUTE, COMPRESSED[0x000001c8])

    Exec Addr    Load Addr    Size         Type   Attr      Idx    E Section Name        Object

    0x24000000   COMPRESSED   0x0000001c   Data   RW           19    .data               main.o
    0x2400001c   COMPRESSED   0x0000001c   Data   RW          671    .data               ethernetif.o
    0x24000038   COMPRESSED   0x0000001c   Data   RW          814    .data               lwip.o
    0x24000054   COMPRESSED   0x00000bec   Data   RW         1135    .data               lwip_udp.o
    0x24000c40   COMPRESSED   0x0000469c   Data   RW         1263    .data               tcp_client.o
    0x240052dc   COMPRESSED   0x00000004   PAD
    0x240052e0   COMPRESSED   0x0000469c   Data   RW         1372    .data               tcp_server.o
    0x2400997c   COMPRESSED   0x00000009   Data   RW         3630    .data               stm32h7xx_hal.o
    0x24009985   COMPRESSED   0x00000003   PAD
    0x24009988   COMPRESSED   0x00000008   Data   RW         5079    .data               system_stm32h7xx.o
    0x24009990   COMPRESSED   0x0000000c   Data   RW         6562    .data               mem.o
    0x2400999c   COMPRESSED   0x00000024   Data   RW         6644    .data               memp.o
    0x240099c0   COMPRESSED   0x00000009   Data   RW         6772    .data               netif.o
    0x240099c9   COMPRESSED   0x00000001   Data   RW         6976    .data               pbuf.o
    0x240099ca   COMPRESSED   0x00000002   PAD
    0x240099cc   COMPRESSED   0x00000020   Data   RW         7314    .data               tcp.o
    0x240099ec   COMPRESSED   0x00000028   Data   RW         7617    .data               tcp_in.o
    0x24009a14   COMPRESSED   0x0000000c   Data   RW         7873    .data               timeouts.o
    0x24009a20   COMPRESSED   0x00000008   Data   RW         7971    .data               udp.o
    0x24009a28   COMPRESSED   0x00000001   Data   RW         8148    .data               etharp.o
    0x24009a29   COMPRESSED   0x00000001   PAD
    0x24009a2a   COMPRESSED   0x00000002   Data   RW         8319    .data               ip4.o
    0x24009a2c   COMPRESSED   0x00000006   Data   RW         8455    .data               ip4_frag.o
    0x24009a32   COMPRESSED   0x00000002   PAD
    0x24009a34   COMPRESSED   0x00000004   Data   RW         9026    .data               mc_w.l(rand.o)
    0x24009a38   COMPRESSED   0x00000004   Data   RW         9323    .data               mc_w.l(stdout.o)
    0x24009a3c        -       0x000005e0   Zero   RW           18    .bss                main.o
    0x2400a01c        -       0x00000094   Zero   RW          498    .bss                usart.o
    0x2400a0b0        -       0x00004a8c   Zero   RW          669    .bss                ethernetif.o
    0x2400eb3c        -       0x00000034   Zero   RW          813    .bss                lwip.o
    0x2400eb70        -       0x00000018   Zero   RW         6518    .bss                ip.o
    0x2400eb88        -       0x0000687f   Zero   RW         6642    .bss                memp.o
    0x24015407   COMPRESSED   0x00000001   PAD
    0x24015408        -       0x00000010   Zero   RW         7616    .bss                tcp_in.o
    0x24015418        -       0x000000f0   Zero   RW         8146    .bss                etharp.o
    0x24015508        -       0x00000400   Zero   RW            1    STACK               startup_stm32h743xx.o



  Load Region LR$$.ARM.__AT_0x30004000 (Base: 0x30004000, Size: 0x00000000, Max: 0x00000060, ABSOLUTE)

    Execution Region ER$$.ARM.__AT_0x30004000 (Exec base: 0x30004000, Load base: 0x30004000, Size: 0x00000060, Max: 0x00000060, ABSOLUTE, UNINIT)

    Exec Addr    Load Addr    Size         Type   Attr      Idx    E Section Name        Object

    0x30004000        -       0x00000060   Zero   RW          667    .ARM.__AT_0x30004000  ethernetif.o



  Load Region LR$$.ARM.__AT_0x30004060 (Base: 0x30004060, Size: 0x00000000, Max: 0x00000060, ABSOLUTE)

    Execution Region ER$$.ARM.__AT_0x30004060 (Exec base: 0x30004060, Load base: 0x30004060, Size: 0x00000060, Max: 0x00000060, ABSOLUTE, UNINIT)

    Exec Addr    Load Addr    Size         Type   Attr      Idx    E Section Name        Object

    0x30004060        -       0x00000060   Zero   RW          668    .ARM.__AT_0x30004060  ethernetif.o


==============================================================================

Image component sizes


      Code (inc. data)   RO Data    RW Data    ZI Data      Debug   Object Name

         0          0          0          0          0       2264   auth.o
         0          0          0          0          0       2082   bridgeif.o
         0          0          0          0          0        452   bridgeif_fdb.o
        38          0          0          0          0       1290   def.o
      3820       1206         65          1        240      13483   etharp.o
       456        154         12          0          0       3186   ethernet.o
      2108        258         12         28      19276      57817   ethernetif.o
         0          0          0          0          0       1692   fifomem.o
       292          8          0          0          0    1242904   gpio.o
      1004        350          0          0          0       5326   icmp.o
       200          0          0          0          0      11380   inet_chksum.o
       156         92         65          0          0       2244   init.o
         0          0          0          0         24       8085   ip.o
      1078        184          0          2          0       6316   ip4.o
        78          0          8          0          0       9166   ip4_addr.o
      3562       1192          0          6          0      13766   ip4_frag.o
       532          0          0          0          0       2986   lan8742.o
       768        128          0         28         52      26363   lwip.o
       728         42          0       3052          0       8466   lwip_udp.o
       886         70          0         28       1504    1221545   main.o
      2376        968          0         12          0       8698   mem.o
      1092        718        144         36      26751      12646   memp.o
      2076        998          0          9          0      17726   netif.o
      4394       2020          0          1          0      31487   pbuf.o
        36          8        664          0       1024        896   startup_stm32h743xx.o
       252         52          0          9          0      24064   stm32h7xx_hal.o
       510         38          0          0          0      43169   stm32h7xx_hal_cortex.o
      2164         34          0          0          0       4563   stm32h7xx_hal_dma.o
      4696         82          0          0          0      22498   stm32h7xx_hal_eth.o
       520         52          0          0          0       2464   stm32h7xx_hal_gpio.o
        36          4          0          0          0       1090   stm32h7xx_hal_msp.o
        96          6          0          0          0        853   stm32h7xx_hal_pwr_ex.o
      3640        114          0          0          0       7560   stm32h7xx_hal_rcc.o
      5300        108          0          0          0       7937   stm32h7xx_hal_rcc_ex.o
      3542        148         24          0          0      31788   stm32h7xx_hal_uart.o
       360         10         16          0          0       6178   stm32h7xx_hal_uart_ex.o
        66         12          0          0          0       6072   stm32h7xx_it.o
       252         40         16          8          0       1646   system_stm32h7xx.o
      9342       4250        197         32          0      51898   tcp.o
       300         20          0      18076          0       3183   tcp_client.o
