:020000040800F2
:10000000C807002039030008591F0008F71E000820
:10001000551F0008D1040008312F0008000000001F
:100020000000000000000000000000007520000833
:10003000F1040008000000005B1F000871210008A7
:100040005303000853030008530300085303000838
:100050005303000853030008530300085303000828
:100060005303000853030008530300085303000818
:100070005303000853030008530300085303000808
:1000800053030008530300085303000853030008F8
:1000900053030008530300085303000853030008E8
:1000A00053030008530300085303000853030008D8
:1000B00053030008530300085303000853030008C8
:1000C00053030008530300085303000853030008B8
:1000D00053030008E12E00085303000853030008EF
:1000E00053030008530300080000000053030008F6
:1000F0005303000853030008530300085303000888
:100100005303000853030008530300085303000877
:100110005303000853030008530300085303000867
:100120005303000853030008530300085303000857
:100130005303000853030008530300085303000847
:1001400000000000000000000000000000000000AF
:100150005303000853030008530300085303000827
:100160005303000853030008530300085303000817
:100170005303000853030008530300080000000065
:1001800053030008530300085303000853030008F7
:1001900053030008530300085303000853030008E7
:1001A00053030008530300085303000853030008D7
:1001B00053030008530300085303000853030008C7
:1001C00053030008530300085303000853030008B7
:1001D00053030008530300085303000853030008A7
:1001E0005303000853030008530300085303000897
:1001F0005303000853030008530300085303000887
:100200005303000853030008530300085303000876
:100210005303000853030008530300085303000866
:1002200053030008530300085303000800000000B4
:1002300053030008530300080000000053030008A4
:100240005303000853030008530300085303000836
:100250005303000853030008530300085303000826
:100260005303000853030008530300085303000816
:100270005303000853030008530300080000000064
:1002800053030008000000005303000800000000B2
:10029000000000005303000800F002F800F03CF8F2
:1002A0000AA090E8000C82448344AAF10107DA45D1
:1002B00001D100F031F8AFF2090EBAE80F0013F0E7
:1002C000010F18BFFB1A43F001031847402E00002E
:1002D000702E0000103A24BF78C878C1FAD85207AF
:1002E00024BF30C830C144BF04680C6070470000B0
:1002F0000023002400250026103A28BF78C1FBD82F
:10030000520728BF30C148BF0B6070471FB502F0CD
:10031000BFFE1FBD10B510BD00F0A8F81146FFF7D5
:10032000F5FF02F05FFE00F0C6F803B4FFF7F2FF3E
:1003300003BC02F01BFE0000094880470948004743
:10034000FEE7FEE7FEE7FEE7FEE7FEE7FEE7FEE785
:10035000FEE7FEE704480549054A064B70470000E2
:100360007921000899020008C8010020C807002070
:10037000C8030020C803002053EA020C00F0698083
:100380002DE9F04B4FF00006002B1FBFB3FA83F5A9
:1003900003FA05F424FA05F65E4012BF1643B2FADA
:1003A00082F502FA05F4C5F120051EBF22FA05FC0C
:1003B00044EA0C04203556EA044C4FEA144418BFB2
:1003C000641C4FF000084FF00009904271EB030CE1
:1003D00039D3002919BFB1FA81F701FA07F6B0FA4B
:1003E00080F700FA07F6C7F120071EBF20FA07FCC6
:1003F00046EA0C062037B6FBF4FCA7EB0507103FD6
:1004000007F01F0BCBF120060CFA0BFB2CFA06F6BB
:1004100044BFB3460026202FA4BF5E464FF0000B1A
:100420005BEA060C08BF4FF0010B19EB0B09ABFBA5
:10043000027C48EB0608C01B06FB02CC0BFB03CC7E
:1004400071EB0C01C1E70B46024641464846BDE848
:10045000F08B13B54FF000004FF00001AFF30080B8
:10046000BDE81C407047704770477047754600F004
:100470002BF8AE4605006946534620F00700854636
:1004800018B020B5FFF766FFBDE820404FF000062A
:100490004FF000074FF000084FF0000B21F007016C
:1004A000AC46ACE8C009ACE8C009ACE8C009ACE8AF
:1004B000C0098D46704710B50446AFF30080204652
:1004C000BDE81040FFF731BF0048704768010020C9
:1004D00000BFFEE710B501F08FFD01F03FFD0348BE
:1004E000006840F004000149086010BD9CEF00E086
:1004F0007047000010B504460CB9012010BD94F8F7
:100500003500022803D0802060650120F6E73449D9
:100510002068884205D333492068884201D80120E9
:1005200000E00020C0B1042084F835002C49206888
:1005300088420AD32B492068884206D82068006880
:1005400020F001002168086048E02068006820F081
:1005500001002168086041E02068006820F00E007A
:10056000216808601E49206888420AD31D49206816
:10057000884206D82068006820F0010021680860E1
:1005800005E02068006820F0010021680860206E06
:10059000006820F48070216E086094F85C100120DF
:1005A000884011490860D4E919104860E06E40B1F4
:1005B000E06E006820F48070E16E0860D4E91C10E1
:1005C000486000BF002084F8340000BF012084F898
:1005D0003500206D10B12046216D884700208DE741
:1005E00010000240B8040240045402580348006856
:1005F00040F00100014908607047000020040058E5
:10060000F8B502460B460021002600240020824D4A
:1006100000BFFCE0012707FA01F61F6807EA06049D
:10062000B4427CD15F68022F02D05F68122F1AD1CA
:100630004FEAD10C02F1200757F82C004F074FEA80
:10064000D76C0F2707FA0CF7B8434FEA417C4FEA03
:10065000DC6C1F6907FA0CF738434FEAD10C02F142
:10066000200747F82C0010684FEA410C032707FACF
:100670000CF7B8431F7907F003074FEA410C07FA5C
:100680000CF7384310605F68012F08D05F68022FB5
:1006900005D05F68112F02D05F68122F17D19068C4
:1006A0004FEA410C032707FA0CF7B8434FEA410C15
:1006B000DF6807FA0CF738439060506801278F40D5
:1006C000B8431F79C7F300178F4038435060D06894
:1006D0004FEA410C032707FA0CF7B8434FEA410CE5
:1006E0009F6807FA0CF73843D0605F6807F08057BF
:1006F000B7F1805F95D100BF484F3F6847F00207D0
:10070000DFF818C1CCF8007067463F6807F00207B1
:10071000009700BF00BF424F4FEA910C00E075E028
:1007200057F82C008F074FEA177C0F2707FA0CF7B2
:10073000B8433C4FBA4201D100272DE03A4FBA42AC
:1007400001D1012728E0394FBA4201D1022723E025
:10075000374FBA4201D103271EE0364FBA4201D1CA
:10076000042719E0344FBA4201D1052714E0334F72
:10077000BA4201D106270FE0314FBA4201D1072713
:100780000AE0304FBA4201D1082705E02E4FBA42A5
:1007900001D1092700E00A274FEA817C4FEA1C7C3F
:1007A00007FA0CF738431E4F4FEA910C47F82C001C
:1007B0002868A0435F6807F48037B7F5803F00D111
:1007C000204328606868A0435F6807F40037B7F5E6
:1007D000003F00D1204368604FF0B0473868A04325
:1007E0005F6807F48017B7F5801F00D120434FF0F2
:1007F000B04738607868A0435F6807F40017B7F522
:10080000001F00D120434FF0B0477860491C1029E9
:10081000FFF400AFF8BD000080000058F444025817
:10082000080400580000025800040258000802584A
:10083000000C025800100258001402580018025808
:10084000001C025800200258002402580AB10183FB
:1008500000E04183704700000148006870470000D5
:10086000140000200348006803490978084401493E
:1008700008607047140000201C00002010B5032001
:1008800000F07EF80F2000F007F808B1012010BD3D
:1008900000F028F80020FAE770B504460E4800780A
:1008A0004FF47A71B1FBF0F00C490968B1FBF0F537
:1008B000284601F0DFF808B1012070BD102C07D2E6
:1008C00000222146501E00F01EF80548046001E099
:1008D0000120F2E70020F0E71C00002000000020CB
:1008E00018000020704701460846002809DB00F088
:1008F0001F0301229A4043099B0003F1E023C3F840
:10090000002100BF70472DE9F05F80460D46164676
:1009100002F010FB074639462A46334601F007002D
:10092000C0F1070ABAF1040F02D94FF0040A01E03E
:10093000C0F1070AD14600F1040ABAF1070F02D24A
:100940004FF0000A01E0A0F1030AD4464FF0010A7B
:100950000AFA09FAAAF1010A0AEA020A0AFA0CFAE0
:100960004FF0010B0BFA0CFBABF1010B0BEA030B85
:100970004AEA0B042146404602F0E4FABDE8F09F43
:1009800000BF00F00702064B19684FF6FF0319403D
:10099000044B0B4343EA0221014B196000BF70472F
:1009A0000CED00E00000FA0510B500F0CBFB0949A2
:1009B000096801F470614FF4807292FAA2F2B2FAFF
:1009C00082F2D140044A515CC8400449086008469C
:1009D000006810BD18440258CA300008000000200A
:1009E00010B500F067FB0749096801F0700110229B
:1009F00092FAA2F2B2FA82F2D140034A515CC840A4
:100A000010BD000020440258CA30000870B50146ED
:100A100000220120002300249FED811AB0EE410A3C
:100A20009FED7F1AF0EE410A7E4D2D6805F003021E
:100A30007C4D2D68C5F305307A4D2D1D2D6805F0D0
:100A40001003784D14352D68C5F3CC0515FB03F55F
:100A500001EE105AB8EE411AB0EE410A22B1012A55
:100A60004DD0022A7DD169E06E4D283D2D68C5F339
:100A700040152DB36B4D283D2D68C5F3C1066A4D59
:100A800025FA06F4B4FBF0F501EE105AF8EE411A1F
:100A90009FED661A80EE012A624D10352D68C5F370
:100AA000080501EE105AB8EE411A32EE011AB7EEFF
:100AB000002A31EE021A21EE811AF0EE410A1DE001
:100AC000594DB5FBF0F501EE105AF8EE411A9FEDC5
:100AD000571A80EE012A534D10352D68C5F30805CD
:100AE00001EE105AB8EE411A32EE011AB7EE002AA2
:100AF00031EE021A21EE811AF0EE410A5EE04C4D11
:100B0000B5FBF0F501EE105AB8EE412A9FED471AF9
:100B1000C0EE011A434D10352D68C5F3080501EEEE
:100B2000105AB8EE411A31EE811AF7EE001A31EE82
:100B3000211A22EE011AF0EE410A3FE03D4DB5FBCD
:100B4000F0F501EE105AF8EE411A9FED381A80EEDA
:100B5000012A344D10352D68C5F3080501EE105AF1
:100B600000E00CE0B8EE411A32EE011AB7EE002AAE
:100B700031EE021A21EE811AF0EE410A1EE02C4DF0
:100B8000B5FBF0F501EE105AB8EE412A9FED271A99
:100B9000C0EE011A234D10352D68C5F3080501EE8E
:100BA000105AB8EE411A31EE811AF7EE001A31EE02
:100BB000211A22EE011AF0EE410A00BF00BF194DC2
:100BC00010352D68C5F346256D1C01EE105AB8EEA0
:100BD000411AC0EE811ABCEEE11A81ED001A114DE6
:100BE00010352D68C5F306456D1C01EE105AB8EEA0
:100BF000411AC0EE811ABCEEE11A81ED011A094DCD
:100C000010352D68C5F306656D1C01EE105AB8EE5F
:100C1000411AC0EE811ABCEEE11A81ED021A70BDD4
:100C200000000000284402580090D0030000004655
:100C300000093D0040787D0170B501460022012089
:100C4000002300249FED811AB0EE410A9FED7F1A28
:100C5000F0EE410A7E4D2D6805F003027C4D2D68B3
:100C6000C5F305507A4D2D1D2D6805F48073784D20
:100C70001C352D68C5F3CC0515FB03F501EE105AA4
:100C8000B8EE411AB0EE410A22B1012A4DD0022A33
:100C90007DD169E06E4D283D2D68C5F340152DB31B
:100CA0006B4D283D2D68C5F3C1066A4D25FA06F443
:100CB000B4FBF0F501EE105AF8EE411A9FED661AFA
:100CC00080EE012A624D18352D68C5F3080501EE46
:100CD000105AB8EE411A32EE011AB7EE002A31EE80
:100CE000021A21EE811AF0EE410A1DE0594DB5FBC2
:100CF000F0F501EE105AF8EE411A9FED571A80EE0A
:100D0000012A534D18352D68C5F3080501EE105A18
:100D1000B8EE411A32EE011AB7EE002A31EE021A8D
:100D200021EE811AF0EE410A5EE04C4DB5FBF0F584
:100D300001EE105AB8EE412A9FED471AC0EE011A93
:100D4000434D18352D68C5F3080501EE105AB8EE6D
:100D5000411A31EE811AF7EE001A31EE211A22EE15
:100D6000011AF0EE410A3FE03D4DB5FBF0F501EE12
:100D7000105AF8EE411A9FED381A80EE012A344DD0
:100D800018352D68C5F3080501EE105A00E00CE097
:100D9000B8EE411A32EE011AB7EE002A31EE021A0D
:100DA00021EE811AF0EE410A1EE02C4DB5FBF0F564
:100DB00001EE105AB8EE412A9FED271AC0EE011A33
:100DC000234D18352D68C5F3080501EE105AB8EE0D
:100DD000411A31EE811AF7EE001A31EE211A22EE95
:100DE000011AF0EE410A00BF00BF194D18352D68F9
:100DF000C5F346256D1C01EE105AB8EE411AC0EE3F
:100E0000811ABCEEE11A81ED001A114D18352D68DA
:100E1000C5F306456D1C01EE105AB8EE411AC0EE3E
:100E2000811ABCEEE11A81ED011A094D18352D68C1
:100E3000C5F306656D1C01EE105AB8EE411AC0EEFE
:100E4000811ABCEEE11A81ED021A70BD00000000AB
:100E5000284402580090D0030000004600093D00DD
:100E600040787D0170B504460D4600268D48006827
:100E700000F00700A8420ED28A48006820F0070060
:100E80002843884908600846006800F00700A84227
:100E900001D0012070BD207800F00200022807D1A7
:100EA0008148006820F00F00E16808437E4908602F
:100EB000207800F00100002851D07B48006820F421
:100EC0007060A1680843784908606068022807D10B
:100ED000754818380068C0F34040F8B90120D9E7D8
:100EE0006068032807D1704818380068C0F3406074
:100EF000A0B90120CEE76068012807D16A481838F8
:100F00000068C0F3002048B90120C3E766481838DC
:100F10000068C0F3800008B90120BBE762480838C8
:100F2000006820F00700616808435F4908390860DD
:100F3000FFF792FC06466068022811D108E0FFF72F
:100F40008BFC801B41F28831884201D90320A1E744
:100F500055480838006800F038001028EFD13AE012
:100F60006068032811D108E0FFF776FC801B41F28E
:100F70008831884201D903208CE74B480838006843
:100F800000F038001828EFD125E06068012811D161
:100F900008E0FFF761FC801B41F28831884201D9EB
:100FA000032077E740480838006800F03800082838
:100FB000EFD110E008E0FFF74FFC801B41F28831D1
:100FC000884201D9032065E737480838006800F0F7
:100FD00038000028EFD13348006800F00700A8422D
:100FE0000ED93048006820F0070028432D490860DA
:100FF0000846006800F00700A84201D0012049E738
:10100000207800F00400042807D12748006820F069
:1010100070002169084324490860207800F0080026
:10102000082809D12048001D006820F0700061697F
:1010300008431D49091D0860207800F010001028A1
:1010400009D11948001D006820F4E060A169084337
:101050001549091D0860207800F02000202809D1DA
:1010600011480830006820F07000E16908430E491B
:101070000831086000F066F80B49096801F47061F6
:101080004FF4807292FAA2F2B2FA82F2D140074A89
:10109000515CC840064908600F20FFF7FDFB0020A7
:1010A000F8E600000020005218440258CA30000838
:1010B0000000002010B5FFF777FC0949096801F02E
:1010C0000F01012292FAA2F2B2FA82F2D140054A4D
:1010D000515CC840044908600846006810BD000023
:1010E00018440258CA3000080400002010B5FFF769
:1010F000E1FF0749096801F07001102292FAA2F29B
:10110000B2FA82F2D140034A515CC84010BD0000DF
:101110001C440258CA30000810B5FFF7CBFF07493E
:10112000096801F4E0614FF4807292FAA2F2B2FA17
:1011300082F2D140024A515CC84010BD1C440258A2
:10114000CA30000870B5012500EE905A0022012136
:1011500000230024DFED861AB0EE610ADFED841A69
:10116000B0EE611A0020834D2D6805F0380535B1C9
:10117000082D15D0102D15D0182D7CD114E07D4DE3
:10118000103D2D68C5F3401545B17A4D103D2D68D1
:10119000C5F3C106784D25FA06F000E07648E5E093
:1011A0007648E3E07648E1E0724D18352D6805F0A9
:1011B0000302704D18352D68C5F305116D4D1C35B2
:1011C0002D6805F001036B4D24352D68C5F3CC0562
:1011D00015FB03F501EE905AF8EE611AB0EE610AC4
:1011E00022B1012A4FD0022A7DD16BE0614D103D22
:1011F0002D68C5F340152DB35E4D103D2D68C5F328
:10120000C1065D4D25FA06F4B4FBF1F501EE905AE6
:10121000B8EE612ADFED5B1AC0EE212A554D20356C
:101220002D68C5F3080501EE905AF8EE611A72EECA
:10123000A11AF7EE002A71EEA21A62EE211AB0EEA0
:10124000611A1FE04C4DB5FBF1F501EE905AB8EE76
:10125000612ADFED4C1AC0EE212A464D20352D685B
:10126000C5F3080501EE905AF8EE611A72EEA11A64
:10127000F7EE002A00E077E071EEA21A62EE211A82
:10128000B0EE611A5EE03D4DB5FBF1F501EE905A0E
:10129000B8EE612ADFED3B1AC0EE212A354D20352C
:1012A0002D68C5F3080501EE905AF8EE611A72EE4A
:1012B000A11AF7EE002A71EEA21A62EE211AB0EE20
:1012C000611A3FE02E4DB5FBF1F501EE905AB8EEF4
:1012D000612ADFED2C1AC0EE212A264D20352D681B
:1012E000C5F3080500E00EE001EE905AF8EE611A31
:1012F00072EEA11AF7EE002A71EEA21A62EE211A1E
:10130000B0EE611A1EE01D4DB5FBF1F501EE905AED
:10131000F8EE612ADFED1B1A80EE212A154D2035EB
:101320002D68C5F3080501EE905AF8EE611A72EEC9
:10133000211AB7EE002A71EE821A62EEA11AB0EEFF
:10134000611A00BF00BF0B4D20352D68C5F346253F
:101350006D1C00EE905AF8EE601A81EE212AFCEE28
:10136000C21A11EE900A01E0044800BF00BF70BD30
:1013700000000000104402580090D00300093D0016
:1013800040787D010000004670B5044600252078B5
:1013900000F00100002872D0F948006800F0380021
:1013A00010280CD0F648006800F03800182812D138
:1013B000F3481830006800F0030002280BD1F04811
:1013C00010380068C0F3404000286DD060680028E5
:1013D0006AD1012070BD00BF6068B0F5803F08D1C0
:1013E000E7481038006840F48030E549103908605B
:1013F0002EE0606868B9E2481038006820F4803058
:10140000DF49103908600846006820F48020086031
:101410001EE06068B0F5A02F0DD1D94810380068E3
:1014200040F48020D649103908600846006840F42E
:10143000803008600CE0D2481038006820F480301A
:10144000CF49103908600846006820F48020086001
:1014500000BF6068A0B1FFF7FFF9054608E0FFF79D
:10146000FBF9401B41F28831884201D90320B1E7E2
:10147000C34810380068C0F340400028EFD013E0A4
:10148000FFF7EAF9054608E0FFF7E6F9401B41F2ED
:101490008831884201D903209CE7B9481038006898
:1014A000C0F340400028EFD1207800F0020002286D
:1014B00047D1B348006800F0380058B1B048006820
:1014C00000F0380018283ED1AD481830006800F010
:1014D0000300B8BBAA4810380068C0F3800018B1F8
:1014E000E06808B9012075E7A5481038006820F0C9
:1014F0001900E1680843A24910390860FFF7ACF908
:10150000054606E0FFF7A8F9401B022801D9032091
:1015100060E79B4810380068C0F380000028F1D0D5
:1015200097480C38006820F47C304FF47C3292FAF3
:10153000A2F2B2FA82F221699140084390490C3933
:1015400008604AE0FFE7E06868B38D48103800683B
:1015500020F01900E1680843894910390860FFF755
:101560007BF9054606E0FFF777F9401B022801D911
:1015700003202FE7824810380068C0F3800000285D
:10158000F1D07F480C38006820F47C304FF47C3276
:1015900092FAA2F2B2FA82F22169914008437849A4
:1015A0000C39086019E076481038006820F0010016
:1015B000734910390860FFF74FF9054606E0FFF759
:1015C0004BF9401B022801D9032003E76C4810386F
:1015D0000068C0F380000028F1D1207800F01000EE
:1015E000102877D16648006800F0380008280CD031
:1015F0006348006800F03800182823D1604818308C
:10160000006800F0030001281CD15D481038006814
:10161000C0F3002020B1E069802801D00120D9E684
:1016200057480C38006820F0F8404FF0F84292FA22
:10163000A2F2B2FA82F2216A9140084350490C3971
:10164000086047E0E06958B34D481038006840F042
:1016500080004B4910390860FFF7FEF8054606E0A8
:10166000FFF7FAF8401B022801D90320B2E64448EC
:1016700010380068C0F300200028F1D040480C3832
:10168000006820F0F8404FF0F84292FAA2F2B2FA65
:1016900082F2216A9140084339490C39086019E007
:1016A00037481038006820F080003549103908604C
:1016B000FFF7D2F8054606E0FFF7CEF8401B0228F8
:1016C00001D9032086E62E4810380068C0F30020B8
:1016D0000028F1D1207800F00800082836D1606990
:1016E000D0B127486430006840F0010024496431DB
:1016F0000860FFF7B1F8054606E0FFF7ADF8401BBC
:10170000022801D9032065E61D4864300068C0F353
:1017100040000028F1D019E019486430006820F03A
:101720000100174964310860FFF796F8054606E0A6
:10173000FFF792F8401B022801D903204AE610481F
:1017400064300068C0F340000028F1D1207800F038
:101750002000202834D1A069D8B109481038006889
:1017600040F48050064910390860FFF775F80546C7
:1017700008E0FFF771F8401B022803D9032029E68F
:1017800010440258AF480068C0F340300028F0D041
:1017900016E0AC48006820F48050AA490860FFF7C2
:1017A0005BF8054606E0FFF757F8401B022801D911
:1017B00003200FE6A3480068C0F340300028F2D1B0
:1017C000207800F0040004287DD19F48006840F490
:1017D00080709D490860FFF73FF8054606E0FFF777
:1017E0003BF8401B642801D90320F3E596480068C4
:1017F00000F480700028F2D000BFA068012808D152
:1018000090487030006840F001008E4970310860E7
:101810002DE0A06868B98B487030006820F00100A6
:101820008849703108600846006820F004000860AC
:101830001DE0A06805280DD182487030006840F096
:1018400004008049703108600846006840F00100DB
:1018500008600CE07B487030006820F00100794996
:10186000703108600846006820F00400086000BF7E
:10187000A068A0B1FEF7F0FF054608E0FEF7ECFF18
:10188000401B41F28831884201D90320A2E56D480E
:1018900070300068C0F340000028EFD013E0FEF77E
:1018A000DBFF054608E0FEF7D7FF401B41F2883119
:1018B000884201D903208DE5624870300068C0F38A
:1018C00040000028EFD1606A00287CD05D481030CD
:1018D000006800F03800182876D0606A022874D1B9
:1018E0005848006820F0807056490860FEF7B4FF41
:1018F000054606E0FEF7B0FF401B022801D9032091
:1019000068E550480068C0F340600028F2D100BF8D
:10191000D4E90A1041EA00104A492831096840F226
:10192000F33291430843474928310860208E401E16
:10193000C0F30800616B491E4FF47E4202EA412168
:101940000843218F491ED20102EA014108433C218C
:10195000095D491E120202EA01610843394930312A
:10196000086000BF081D00684FF6F87188434FF605
:10197000F87292FAA2F2B2FA82F2A16C9140084394
:101980003049343108602F482C30006820F00C00BA
:10199000216C08432B492C3108600846006820F070
:1019A0000200616C084327492C3108600846006832
:1019B00040F4803008600846006840F40030086059
:1019C0000846006802E03BE038E01FE040F4802079
:1019D00008600846006840F0010008601948006887
:1019E00040F0807017490860FEF736FF054606E0B4
:1019F000FEF732FF401B022801D90320EAE4114818
:101A00000068C0F340600028F2D019E00D4800687B
:101A100020F080700B490860FEF71EFF054606E0C7
:101A2000FEF71AFF401B022801D90320D2E4054823
:101A30000068C0F340600028F2D101E00120C9E451
:101A40000020C7E40044025800480258042808D186
:101A50004FF0E021096941F004014FF0E0221161EB
:101A600007E04FF0E021096921F004014FF0E02286
:101A70001161704770B504462546681EB0F1807F3D
:101A800001D301200FE0681E4FF0E02148610F21D3
:101A90004FF0FF3001F056FA00204FF0E02188614E
:101AA00007200861002070BD704770470146002282
:101AB000002391F8792091F87A3042EA03007047C8
:101AC0002DE9F04104462068C56920680768206850
:101AD000866805F00F08B8F1000F0DD105F0200061
:101AE00050B107F0200010B906F0805020B1204618
:101AF00000F067FCBDE8F081B8F1000F72D05D48DE
:101B0000304018B907F4907000287AD005F0010031
:101B100048B107F4807030B1012021680862E06F9D
:101B200040F00100E06705F0020048B106F0010056
:101B300030B1022021680862E06F40F00400E067E5
:101B400005F0040048B106F0010030B1042021681E
:101B50000862E06F40F00200E06705F0080078B12D
:101B600007F0200028B906F0805010B906F00100F7
:101B700030B1082021680862E06F40F00800E0679B
:101B8000E06F70B305F0200040B107F0200010B9FD
:101B900006F0805010B1204600F013FCE06F00F01A
:101BA000080020B92068806800F0400018B3204683
:101BB00000F0E7FB2068806800F04000B8B12068C2
:101BC000806820F0400021688860606F58B12A4822
:101BD000616F0865606FFEF78DFC10B1606F016D7D
:101BE00088470DE00DE02046FFF75FFF08E0204644
:101BF000FFF75BFF04E02046FFF757FF0020E06798
:101C000078E705F4801078B106F4800060B14FF4F5
:101C1000801021680862202084F8790084F87A0016
:101C20002046FFF741FF65E705F0800048B107F067
:101C3000800010B906F4000018B1204601F0D8F871
:101C400058E705F0400030B107F0400018B12046D9
:101C500000F0A7FB4EE705F4000040B107F080401C
:101C600028B12068006820F080402168086000BF2B
:101C700040E70000010000106B23000810B5044687
:101C80000CB9012010BDA06900B100E000BF94F8BC
:101C9000790028B9002084F87800204600F02AF85E
:101CA000242084F879002068006820F00100216871
:101CB0000860204600F0CAFB012800D1E2E7606B13
:101CC00010B1204600F0A2FA2068406820F490404D
:101CD000216848602068806820F02A0021688860B8
:101CE0002068006840F0010021680860204600F08C
:101CF00002FBC7E710B586B0044621492068884238
:101D00003BD100BF1F48006840F001001D4908603A
:101D10000846006800F00100009000BF00BF00BF4F
:101D200018481030006840F0100016491031086063
:101D30000846006800F01000009000BF00BF4FF49C
:101D40000070019002200290012003900220049074
:101D50000720059001A90C48FEF752FC4FF4806063
:101D6000019001A90848FEF74BFC2520FEF7BBFDBA
:101D7000032211462520FEF7C6FD06B010BD000067
:101D800000100140E04402580000025810B503461C
:101D900093F87A00202867D101B10AB9012010BD5B
:101DA00000BF93F87800012801D10220F7E7012055
:101DB00083F8780000BF5966A3F86820A3F86A206A
:101DC00000BF9868B0F5805F0AD1186920B940F269
:101DD000FF10A3F86C001CE0FF20A3F86C0018E0D3
:101DE000986848B9186918B9FF20A3F86C0010E08A
:101DF0007F20A3F86C000CE09868B0F1805F08D1F8
:101E0000186918B97F20A3F86C0002E03F20A3F8FE
:101E10006C0000BF0020D867222083F87A0000BF42
:101E2000002083F8780000BF1868806840F0010047
:101E30001C68A0601868006800F0005060B1186865
:101E4000006840F480701C6820601868806840F06A
:101E500080501C68A06005E01868006840F490702D
:101E60001C68206000209AE7022098E71D4A01685C
:101E7000914236D11C49098801F4004189BB1A49B5
:101E8000098801F4804171B1184909780A2903D001
:101E90000021154A118024E01349098841F40041CA
:101EA000114A11801DE0114909780D2906D10E490A
:101EB000098841F480410C4A118012E00B490978ED
:101EC000094A1288C2F30D02094B99540649098840
:101ED000491C054A118011460988C72901DD0021E6
:101EE00011807047001001401000002012000020F7
:101EF00020000020704700BFFEE7000000B587B05B
:101F000000BF1248006840F002001049086008460F
:101F1000006800F00200019000BF00BF03200290A3
:101F20000120039004900320059002A90848FEF7C1
:101F300067FB012211460648FEF788FC01220221B8
:101F40000348FEF783FC07B000BD0000E0440258E0
:101F50000004025800BFFEE77047704710B5002329
:101F6000234C236000BF00BF00BFBFF34F8F00BFF3
:101F700000BF00BF231F1868C0F34E3100BFC0F37D
:101F8000C90200BF43F6E07303EA41134FF0404437
:101F900004EA82742343174C236000BF00BF131E62
:101FA000A2F10102EED10B1EA1F10101E7D100BFA8
:101FB00000BF00BFBFF34F8F00BF00BF00BF0C4B7F
:101FC000703B1B6843F48033094C703C236000BFB6
:101FD00000BF00BFBFF34F8F00BF00BF00BF00BFF7
:101FE00000BF00BFBFF36F8F00BF00BF00BF10BDB9
:101FF00084ED00E060EF00E000BF00BF00BFBFF372
:102000004F8F00BF00BF00BF00BF00BF00BFBFF3C6
:102010006F8F00BF00BF00BF00201449086000BFE1
:1020200000BF00BFBFF34F8F00BF00BF00BF00BFA6
:1020300000BF00BFBFF36F8F00BF00BF00BF0C48E1
:10204000006840F400300A49086000BF00BF00BFCC
:10205000BFF34F8F00BF00BF00BF00BF00BF00BF76
:10206000BFF36F8F00BF00BF00BF704750EF00E0AD
:1020700014ED00E0704700002DE9F0419CB080466F
:102080000C4615461E4600273748006820F004001D
:102090003549086000BF0020009033480C300068CC
:1020A00040F4404030490C3108600846006800F4B4
:1020B0004040009000BF00BF00BF2B480C300068BC
:1020C00000F40050B0F5005FF7D10120019000044A
:1020D000029000200490089002200A9002210B91A7
:1020E000CDF834800C940E950F96002112910821A2
:1020F000119101A8FFF748F907460FB100BFFEE7AD
:102100003F2014900320159000201690082017906F
:102110004020199000011A904020189050201B90E8
:10212000022114A8FEF79EFE07460FB100BFFEE78E
:102130000E48006840F080000C49086000BF0B4862
:10214000F430006840F002000849F43108600846A5
:10215000006800F00200009000BF00BFFEF746FAE2
:102160001CB0BDE8F08100000C4802580044025841
:1021700010B5FEF777FB10BD2048006840F47000F2
:102180001E4908601E48006840F001001C490860B4
:1021900000201B491031086019480068194908409F
:1021A000174908600020164918310860091D0860A9
:1021B000091D0860124928310860091D0860091DC1
:1021C0000860091D0860091D0860091D0860091DD7
:1021D0000860091D08600A48006820F4802008494A
:1021E0000860002006496031086001200649086047
:1021F000C0060249803908607047000088ED00E0A1
:10220000004402587FEDF6EA0881005190F834103E
:1022100001F0010139B10168496821F40031826B94
:1022200011430268516090F8341001F0020139B195
:102230000168496821F48031C26B11430268516022
:1022400090F8341001F0040139B10168496821F4B3
:102250008021026C11430268516090F8341001F043
:10226000080139B10168496821F40041426C114309
:102270000268516090F8341001F0100139B1016822
:10228000896821F48051826C11430268916090F852
:10229000341001F0200139B10168896821F400513E
:1022A000C26C11430268916090F8341001F0400153
:1022B00099B10168496821F48011026D11430268E7
:1022C0005160016DB1F5801F07D10168496821F4A3
:1022D000C001426D11430268516090F8341001F062
:1022E000800139B10168496821F40021826D1143F0
:1022F00002685160704738B5044600250020E06749
:10230000FEF7AAFA05462068006800F008000828D1
:102310000CD16FF07E402B4600224FF4001100904C
:10232000204600F0A6FD08B1032038BD20680068F3
:1023300000F0040004280CD16FF07E402B460022F0
:102340004FF480010090204600F093FD08B1032077
:10235000EBE7202084F8790084F87A0000BF0020A1
:1023600084F8780000BF00BFDFE770B50546AC6BAE
:102370000020A4F86A00A4F862002046FFF795FB4D
:1023800070BD0168096821F49071026811600168EC
:10239000896821F0010102689160202180F87A109B
:1023A000704710B504462068006820F0400021689E
:1023B0000860202084F879002046FFF79BFD00206C
:1023C00010BD2DE9F0410446B4F86C7094F87A0021
:1023D000222833D12068858CA068B0F5805F09D1B0
:1023E000206938B9666E05EA07003080606E801C8F
:1023F000606605E0F8B22840626E511C616610709C
:10240000B4F86A00401E80B2A4F86A00A0B920683F
:10241000006820F49070216808602068806820F0CF
:10242000010021688860202084F87A002046FFF7A8
:102430001DFD0020BDE8F0810020FBE72068008B37
:1024400040F00800216808830220F3E72DE9F04FEF
:1024500089B0044600254FF08008A946AA4600200E
:102460000890FA492068884201D1012000E000204C
:1024700000B100E000BFA06AB0F1005F00D100BF72
:102480002169A068084361690843E16940EA0105E0
:10249000A06A054320680068ED4908402843216888
:1024A00008602068406820F44050E16808432168D3
:1024B0004860A569E5492068884201D1012000E013
:1024C000002008B9206A0543A06AB0F1005F03D17B
:1024D000D4E90B010843054320688068DD490840C2
:1024E0002843216888602068C06A20F00F00616A74
:1024F00008432168C86200BFD7492068884224D1B8
:10250000D648006800F03800182814D005DC48B11F
:1025100008280AD0102817D10AE020280ED0282831
:1025200012D10EE04FF001080EE04FF004080BE06E
:102530004FF0400808E04FF0080805E04FF01008A1
:1025400002E04FF0200800BF17E1C549206888422B
:102550001DD1C248006800F00700062816D2DFE847
:1025600000F00306090C0F124FF000080EE04FF0C8
:1025700004080BE04FF0400808E04FF0080805E0C1
:102580004FF0100802E04FF0200800BFF5E0B54919
:10259000206888421DD1B148006800F00700062875
:1025A00016D2DFE800F00306090C0F124FF0000806
:1025B0000EE04FF004080BE04FF0400808E04FF049
:1025C000080805E04FF0100802E04FF0200800BFB7
:1025D000D3E0A549206888421DD1A048006800F0DA
:1025E0000700062816D2DFE800F00306090C0F12D8
:1025F0004FF000080EE04FF004080BE04FF04008E9
:1026000008E04FF0080805E04FF0100802E04FF036
:10261000200800BFB1E09549206888421DD18F484D
:10262000006800F00700062816D2DFE800F0030675
:10263000090C0F124FF000080EE04FF004080BE0F9
:102640004FF0400808E04FF0080805E04FF0100890
:1026500002E04FF0200800BF8FE0854920688842E3
:1026600024D17E48006800F03800182814D005DC1A
:1026700048B108280AD0102817D10AE020280ED027
:10268000282812D10EE04FF001080EE04FF00408A8
:102690000BE04FF0400808E04FF0080805E04FF06D
:1026A000100802E04FF0200800BF66E07149206882
:1026B00088421DD16948006800F00700062816D23C
:1026C000DFE800F00306090C0F124FF000080EE0DF
:1026D0004FF004080BE04FF0400808E04FF0080806
:1026E00005E04FF0100802E04FF0200800BF44E082
:1026F0006149206888421DD15848006800F00700F1
:10270000062816D2DFE800F00306090C0F124FF07E
:1027100000080EE04FF004080BE04FF0400808E01E
:102720004FF0080805E04FF0100802E04FF02008D5
:1027300000BF22E04549206888421ED14748001D5D
:10274000006800F00700062816D2DFE800F0030654
:10275000090C0F124FF002080EE04FF004080BE0D6
:102760004FF0400808E04FF0080805E04FF010086F
:1027700002E04FF0200800BF00BF00BF33492068CF
:10278000884201D1012000E0002000285DD0002512
:10279000B8F1100F33D009DCB8F1020F10D0B8F146
:1027A000040F11D0B8F1080F2ED117E0B8F1200FA7
:1027B00027D0B8F1400F0CD0B8F1800F24D124E01D
:1027C000FEF70EF9054623E005A8FEF71FF9069D62
:1027D0001EE002A8FEF730FA039D19E01F485438A6
:1027E0000068C0F3401040B11C4854380068C0F382
:1027F000C101224820FA01F500E0204D08E0204DFB
:1028000006E04FF4004503E000BF0120089000BF40
:1028100000BF002D0AD0606800EB4000A84203D83A
:1028200060680003A84202D201200890D4E2B8F107
:10283000100F7CD026DCB8F1020F2DD0B8F1040FB8
:1028400052D0B8F1080F73D19EE03FE1000C005860
:10285000F369FFCFFFF4FF11001001405444025808
:102860000044004000480040004C00400050004040
:102870000014014000780040007C00400090D0032C
:1028800000093D00B8F1200F7DD0B8F1400F54D0C1
:10289000B8F1800FD7D109E1FEF7A2F8002706466C
:1028A000FB49606A31F810C062463B463046394603
:1028B000FDF762FD4FF4807600220346A3FB060776
:1028C00001FB067103FB0213616849080646711893
:1028D0005A41CDE900126668324600230846019944
:1028E000FDF74AFD0546E4E005A8FEF78FF8DDF8A0
:1028F00018C0E749606A31F810B05A4600236046B4
:102900001946FDF739FD4FF4807C0022A0FB0C3BFB
:1029100001FB0CB100FB0210616849085E1840EB36
:102920000201D4F804C062460023304601E079E099
:10293000BBE0FDF721FD0546BBE002A8FEF77CF9F0
:10294000DDF80CC0D249606A31F810B05A46002355
:1029500060461946FDF710FD4FF4807C0022A0FB75
:102960000C3B01FB0CB100FB0210616849085E18CA
:1029700040EB0201D4F804C0624600233046FDF764
:10298000FBFC054695E06EE0C2480068C0F34010CD
:1029900038B3C0480068C0F3C101BF4820FA01FC49
:1029A000BB49606A31F810B05A46002360461946A8
:1029B000FDF7E2FC4FF4807C0022A0FB0C3B01FB06
:1029C0000CB100FB0210616849085E1840EB02017F
:1029D000D4F804C0624600233046FDF7CDFC05461E
:1029E0001FE0AB49606A31F810C062460023AA4874
:1029F0001946FDF7C1FC4FF4807C0022A0FB0C3B84
:102A000001FB0CB100FB0210616849085E1840EB45
:102A10000201D4F804C0624600233046FDF7ACFC46
:102A2000054646E09A49606A31F810C062460023C4
:102A30009A481946FDF7A0FC4FF4807C0022A0FBC9
:102A40000C3B01FB0CB100FB0210616849085E18E9
:102A500040EB0201D4F804C0624600233046FDF783
:102A60008BFC054625E08A49606A31F810C0624651
:102A700000234FF400401946FDF77EFC4FF4807CA4
:102A80000022A0FB0C3B01FB0CB100FB02106168B3
:102A900049085E1840EB0201D4F804C062460023E6
:102AA0003046FDF769FC054603E000BF01200890B1
:102AB00000BF00BFB5F5407F05D3B5F5801F02D23A
:102AC0002068C56088E10120089085E1E069B0F5E3
:102AD000004F7CD1B8F1100F7AD00CDCB8F1000FA8
:102AE00013D0B8F1010F21D0B8F1040F2FD0B8F1F5
:102AF000080F6ED151E0B8F1200F6BD0B8F1400F44
:102B000038D0B8F1800F64D197E0FEF7EFFA604A51
:102B1000616A32F81110B0FBF1F04000616800EB1F
:102B20005100B0FBF1F01FFA80FA89E0FEF7F4FAE9
:102B3000574A616A32F81110B0FBF1F04000616849
:102B400000EB5100B0FBF1F01FFA80FA78E005A825
:102B5000FDF75CFF06994E4A606A32F81000B1FB3F
:102B6000F0F04000616800EB5100B0FBF1F01FFA9B
:102B700080FA65E002A8FEF75FF80399444A606AAC
:102B800032F81000B1FBF0F04000616800EB51003A
:102B9000B0FBF1F01FFA80FA52E03E480068C0F343
:102BA0004010C0B13B480068C0F3C1013A48C8407A
:102BB000374A616A32F81110B0FBF1F040006168E9
:102BC00000EB5100B0FBF1F01FFA80FA12E044E094
:102BD00011E031E01FE02E49606A31F810002E4903
:102BE000B1FBF0F04000616800EB5100B0FBF1F088
:102BF0001FFA80FA24E02649606A31F8100027495C
:102C0000B1FBF0F04000616800EB5100B0FBF1F067
:102C10001FFA80FA14E01E49606A31F810004FF480
:102C20000041B1FBF0F04000616800EB5100B0FBE7
:102C3000F1F01FFA80FA03E000BF0120089000BF06
:102C400000BF4FF6F0700AEA0009CAF3420049EAF1
:102C500000092068C0F80C90BEE0B8F1100F7CD0DD
:102C60000CDCB8F1000F1BD0B8F1010F29D0B8F17E
:102C7000040F37D0B8F1080F70D159E0B8F1200F28
:102C80006DD0B8F1400F40D0B8F1800F66D19FE011
:102C9000DA300008004402580090D00300093D00DB
:102CA000FEF724FA4E4A616A32F81110B0FBF1F0D7
:102CB000616800EB5100B0FBF1F080B22168C860A0
:102CC00089E0FEF729FA464A616A32F81110B0FB32
:102CD000F1F0616800EB5100B0FBF1F080B22168C7
:102CE000C86078E005A8FDF791FE06993C4A606A45
:102CF00032F81000B1FBF0F0616800EB5100B0FB5E
:102D0000F1F080B22168C86065E002A8FDF794FF89
:102D10000399334A606A32F81000B1FBF0F0616841
:102D200000EB5100B0FBF1F080B22168C86052E0C6
:102D30002C480068C0F34010C0B12A480068C0F3B6
:102D4000C1012948C840264A616A32F81110B0FB17
:102D5000F1F0616800EB510002E017E037E025E098
:102D6000B0FBF1F080B22168C8600EE01C49606AD7
:102D700031F810001C49B1FBF0F0616800EB510024
:102D8000B0FBF1F080B22168C86024E01449606AA9
:102D900031F810001549B1FBF0F0616800EB51000B
:102DA000B0FBF1F080B22168C86014E00C49606AA1
:102DB00031F810004FF40041B1FBF0F0616800EB16
:102DC0005100B0FBF1F080B22168C86003E000BFA1
:102DD0000120089000BF00BF089809B0BDE8F08F3F
:102DE000DA300008004402580090D00300093D008A
:102DF000014691F87900212839D1B1F86200C8B9AB
:102E00000868006800F0005030B10868806820F45D
:102E100000000B68986005E00868006820F08000FA
:102E20000B6818600868006840F040000B68186084
:102E3000002070478868B0F5805F0BD1086948B9F9
:102E4000CA6D1088C0F308000B681885C86D801C17
:102E5000C86505E0CB6D581CC86518780B681885E7
:102E6000B1F86200401EA1F862000020E1E70220F4
:102E7000DFE72DE9F04104460D4617469846069EC9
:102E800021E0701CF8B12EB1FDF7E6FCA0EB0800C4
:102E9000B04218D92068006820F4D070216808601A
:102EA0002068806820F0010021688860202084F874
:102EB000790084F87A0000BF002084F8780000BF11
:102EC0000320BDE8F0812068C0692840A84201D1F4
:102ED000012000E00020B842D3D00020F1E700003C
:102EE00070B500240F4D1048FEF7EAFD00BF03E067
:102EF000641CAC4200D904E00B48FEF7D7FD202843
:102F0000F6D100BF002403E0641CAC4200D906E007
:102F1000012206490448FEF739FF0028F4D100BF1A
:102F200070BD0000FFFF0100E8000020120000203B
:102F300000BFFEE702480068C0F3022070470000AF
:102F40000CED00E010B5002804DB0A07130E054A5B
:102F5000135406E00A07140E034A00F00F031B1F68
:102F6000D45410BD00E400E018ED00E000BF70474D
:102F700010B504460420FEF769FD0148046010BD49
:102F80000800002030B50446002504E04FF47A70B4
:102F900000F004F86D1CA542F8D330BD70B50346AF
:102FA00000224FF0E02675690D4E366803FB06F4EB
:102FB0004FF0E026B16910E04FF0E026B06988429A
:102FC0000BD0884202D20E1A324402E02E1A0E446E
:102FD00032440146A24200D300E0EDE700BF70BDDD
:102FE000080000201A4C2546FDF774FAFDF746FC50
:102FF000042302220521A020FFF73EF84FF4C870F9
:10300000FFF7B6FF4FF4E13000F026F8FEF776FF49
:10301000A8471BE0002201210E48FDF717FC002203
:1030200002210C48FDF712FC4FF4FA70FFF7AAFFDB
:10303000012211460748FDF709FC0122022105483B
:10304000FDF704FC4FF4FA70FFF79CFFE2E7000085
:10305000010000240004025810B5044609480A493A
:1030600008600846446000218160C160016181619F
:103070000C214161FEF702FE012204490248FEF7DD
:1030800085FE10BD00100140E80000201200002065
:103090004FF04070E1EE100A70470100020004009A
:1030A000060008000A000C0010002000400080000C
:1030B0000001010002000400060008000A000C00E4
:1030C000100020004000800000010000000001020C
:1030D00003040102030406070809010002000400BA
:1030E000060008000A000C001000200040008000CC
:1030F0000001010002000400060008000A000C00A4
:103100001000200040008000000100003C31000859
:103110000000002020000000D40200085C310008FC
:103120000000002454000000D40200085C310008B4
:1031300020000020A8070000F00200080090D00343
:103140000090D0030000000000000000000000001C
:1031500000000000100000000100000010B5002277
:1031600001210D4800F01AF8002202210A4800F05F
:1031700015F84FF4FA7000F016F8012211460648CF
:1031800000F00CF801220221034800F007F84FF488
:10319000FA7000F008F810BD0004025840F64D0C1B
:1031A000C0F6000C604742F6857CC0F6000C604714
:040000050800029954
:00000001FF
