
BootLoader.elf:     file format elf32-littlearm

Sections:
Idx Name          Size      VMA       LMA       File off  Algn
  0 .isr_vector   00000298  08000000  08000000  00010000  2**0
                  CONTENTS, ALLOC, LOAD, READONLY, DATA
  1 .text         0000efe4  080002a0  080002a0  000102a0  2**4
                  CONTENTS, ALLOC, LOAD, READONLY, CODE
  2 .rodata       000004f0  0800f288  0800f288  0001f288  2**3
                  CONTENTS, ALLOC, LOAD, READONLY, DATA
  3 .ARM          00000008  0800f778  0800f778  0001f778  2**2
                  CONTENTS, ALLOC, LOAD, READONLY, DATA
  4 .init_array   00000004  0800f780  0800f780  0001f780  2**2
                  CONTENTS, ALLOC, LOAD, DATA
  5 .fini_array   00000004  0800f784  0800f784  0001f784  2**2
                  CONTENTS, ALLOC, LOAD, DATA
  6 .data         000002dc  24000000  0800f788  00020000  2**2
                  CONTENTS, ALLOC, LOAD, DATA
  7 .bss          00000c48  240002dc  0800fa64  000202dc  2**2
                  ALLOC
  8 ._user_heap_stack 00000604  24000f24  0800fa64  00020f24  2**0
                  ALLOC
  9 .ARM.attributes 0000002e  00000000  00000000  000202dc  2**0
                  CONTENTS, READONLY
 10 .comment      00000043  00000000  00000000  0002030a  2**0
                  CONTENTS, READONLY
 11 .debug_info   0001a46f  00000000  00000000  0002034d  2**0
                  CONTENTS, READONLY, DEBUGGING, OCTETS
 12 .debug_abbrev 00003e6b  00000000  00000000  0003a7bc  2**0
                  CONTENTS, READONLY, DEBUGGING, OCTETS
 13 .debug_aranges 00001268  00000000  00000000  0003e628  2**3
                  CONTENTS, READONLY, DEBUGGING, OCTETS
 14 .debug_rnglists 00000ded  00000000  00000000  0003f890  2**0
                  CONTENTS, READONLY, DEBUGGING, OCTETS
 15 .debug_macro  0003a0be  00000000  00000000  0004067d  2**0
                  CONTENTS, READONLY, DEBUGGING, OCTETS
 16 .debug_line   0001b3d2  00000000  00000000  0007a73b  2**0
                  CONTENTS, READONLY, DEBUGGING, OCTETS
 17 .debug_str    0015bad7  00000000  00000000  00095b0d  2**0
                  CONTENTS, READONLY, DEBUGGING, OCTETS
 18 .debug_frame  00005e38  00000000  00000000  001f15e4  2**2
                  CONTENTS, READONLY, DEBUGGING, OCTETS
 19 .debug_line_str 0000006c  00000000  00000000  001f741c  2**0
                  CONTENTS, READONLY, DEBUGGING, OCTETS

Disassembly of section .text:

080002a0 <__do_global_dtors_aux>:
 80002a0:	b510      	push	{r4, lr}
 80002a2:	4c05      	ldr	r4, [pc, #20]	; (80002b8 <__do_global_dtors_aux+0x18>)
 80002a4:	7823      	ldrb	r3, [r4, #0]
 80002a6:	b933      	cbnz	r3, 80002b6 <__do_global_dtors_aux+0x16>
 80002a8:	4b04      	ldr	r3, [pc, #16]	; (80002bc <__do_global_dtors_aux+0x1c>)
 80002aa:	b113      	cbz	r3, 80002b2 <__do_global_dtors_aux+0x12>
 80002ac:	4804      	ldr	r0, [pc, #16]	; (80002c0 <__do_global_dtors_aux+0x20>)
 80002ae:	f3af 8000 	nop.w
 80002b2:	2301      	movs	r3, #1
 80002b4:	7023      	strb	r3, [r4, #0]
 80002b6:	bd10      	pop	{r4, pc}
 80002b8:	240002dc 	.word	0x240002dc
 80002bc:	00000000 	.word	0x00000000
 80002c0:	0800f26c 	.word	0x0800f26c

080002c4 <frame_dummy>:
 80002c4:	b508      	push	{r3, lr}
 80002c6:	4b03      	ldr	r3, [pc, #12]	; (80002d4 <frame_dummy+0x10>)
 80002c8:	b11b      	cbz	r3, 80002d2 <frame_dummy+0xe>
 80002ca:	4903      	ldr	r1, [pc, #12]	; (80002d8 <frame_dummy+0x14>)
 80002cc:	4803      	ldr	r0, [pc, #12]	; (80002dc <frame_dummy+0x18>)
 80002ce:	f3af 8000 	nop.w
 80002d2:	bd08      	pop	{r3, pc}
 80002d4:	00000000 	.word	0x00000000
 80002d8:	240002e0 	.word	0x240002e0
 80002dc:	0800f26c 	.word	0x0800f26c

080002e0 <memchr>:
 80002e0:	f001 01ff 	and.w	r1, r1, #255	; 0xff
 80002e4:	2a10      	cmp	r2, #16
 80002e6:	db2b      	blt.n	8000340 <memchr+0x60>
 80002e8:	f010 0f07 	tst.w	r0, #7
 80002ec:	d008      	beq.n	8000300 <memchr+0x20>
 80002ee:	f810 3b01 	ldrb.w	r3, [r0], #1
 80002f2:	3a01      	subs	r2, #1
 80002f4:	428b      	cmp	r3, r1
 80002f6:	d02d      	beq.n	8000354 <memchr+0x74>
 80002f8:	f010 0f07 	tst.w	r0, #7
 80002fc:	b342      	cbz	r2, 8000350 <memchr+0x70>
 80002fe:	d1f6      	bne.n	80002ee <memchr+0xe>
 8000300:	b4f0      	push	{r4, r5, r6, r7}
 8000302:	ea41 2101 	orr.w	r1, r1, r1, lsl #8
 8000306:	ea41 4101 	orr.w	r1, r1, r1, lsl #16
 800030a:	f022 0407 	bic.w	r4, r2, #7
 800030e:	f07f 0700 	mvns.w	r7, #0
 8000312:	2300      	movs	r3, #0
 8000314:	e8f0 5602 	ldrd	r5, r6, [r0], #8
 8000318:	3c08      	subs	r4, #8
 800031a:	ea85 0501 	eor.w	r5, r5, r1
 800031e:	ea86 0601 	eor.w	r6, r6, r1
 8000322:	fa85 f547 	uadd8	r5, r5, r7
 8000326:	faa3 f587 	sel	r5, r3, r7
 800032a:	fa86 f647 	uadd8	r6, r6, r7
 800032e:	faa5 f687 	sel	r6, r5, r7
 8000332:	b98e      	cbnz	r6, 8000358 <memchr+0x78>
 8000334:	d1ee      	bne.n	8000314 <memchr+0x34>
 8000336:	bcf0      	pop	{r4, r5, r6, r7}
 8000338:	f001 01ff 	and.w	r1, r1, #255	; 0xff
 800033c:	f002 0207 	and.w	r2, r2, #7
 8000340:	b132      	cbz	r2, 8000350 <memchr+0x70>
 8000342:	f810 3b01 	ldrb.w	r3, [r0], #1
 8000346:	3a01      	subs	r2, #1
 8000348:	ea83 0301 	eor.w	r3, r3, r1
 800034c:	b113      	cbz	r3, 8000354 <memchr+0x74>
 800034e:	d1f8      	bne.n	8000342 <memchr+0x62>
 8000350:	2000      	movs	r0, #0
 8000352:	4770      	bx	lr
 8000354:	3801      	subs	r0, #1
 8000356:	4770      	bx	lr
 8000358:	2d00      	cmp	r5, #0
 800035a:	bf06      	itte	eq
 800035c:	4635      	moveq	r5, r6
 800035e:	3803      	subeq	r0, #3
 8000360:	3807      	subne	r0, #7
 8000362:	f015 0f01 	tst.w	r5, #1
 8000366:	d107      	bne.n	8000378 <memchr+0x98>
 8000368:	3001      	adds	r0, #1
 800036a:	f415 7f80 	tst.w	r5, #256	; 0x100
 800036e:	bf02      	ittt	eq
 8000370:	3001      	addeq	r0, #1
 8000372:	f415 3fc0 	tsteq.w	r5, #98304	; 0x18000
 8000376:	3001      	addeq	r0, #1
 8000378:	bcf0      	pop	{r4, r5, r6, r7}
 800037a:	3801      	subs	r0, #1
 800037c:	4770      	bx	lr
 800037e:	bf00      	nop

08000380 <strlen>:
 8000380:	4603      	mov	r3, r0
 8000382:	f813 2b01 	ldrb.w	r2, [r3], #1
 8000386:	2a00      	cmp	r2, #0
 8000388:	d1fb      	bne.n	8000382 <strlen+0x2>
 800038a:	1a18      	subs	r0, r3, r0
 800038c:	3801      	subs	r0, #1
 800038e:	4770      	bx	lr

08000390 <__aeabi_drsub>:
 8000390:	f081 4100 	eor.w	r1, r1, #2147483648	; 0x80000000
 8000394:	e002      	b.n	800039c <__adddf3>
 8000396:	bf00      	nop

08000398 <__aeabi_dsub>:
 8000398:	f083 4300 	eor.w	r3, r3, #2147483648	; 0x80000000

0800039c <__adddf3>:
 800039c:	b530      	push	{r4, r5, lr}
 800039e:	ea4f 0441 	mov.w	r4, r1, lsl #1
 80003a2:	ea4f 0543 	mov.w	r5, r3, lsl #1
 80003a6:	ea94 0f05 	teq	r4, r5
 80003aa:	bf08      	it	eq
 80003ac:	ea90 0f02 	teqeq	r0, r2
 80003b0:	bf1f      	itttt	ne
 80003b2:	ea54 0c00 	orrsne.w	ip, r4, r0
 80003b6:	ea55 0c02 	orrsne.w	ip, r5, r2
 80003ba:	ea7f 5c64 	mvnsne.w	ip, r4, asr #21
 80003be:	ea7f 5c65 	mvnsne.w	ip, r5, asr #21
 80003c2:	f000 80e2 	beq.w	800058a <__adddf3+0x1ee>
 80003c6:	ea4f 5454 	mov.w	r4, r4, lsr #21
 80003ca:	ebd4 5555 	rsbs	r5, r4, r5, lsr #21
 80003ce:	bfb8      	it	lt
 80003d0:	426d      	neglt	r5, r5
 80003d2:	dd0c      	ble.n	80003ee <__adddf3+0x52>
 80003d4:	442c      	add	r4, r5
 80003d6:	ea80 0202 	eor.w	r2, r0, r2
 80003da:	ea81 0303 	eor.w	r3, r1, r3
 80003de:	ea82 0000 	eor.w	r0, r2, r0
 80003e2:	ea83 0101 	eor.w	r1, r3, r1
 80003e6:	ea80 0202 	eor.w	r2, r0, r2
 80003ea:	ea81 0303 	eor.w	r3, r1, r3
 80003ee:	2d36      	cmp	r5, #54	; 0x36
 80003f0:	bf88      	it	hi
 80003f2:	bd30      	pophi	{r4, r5, pc}
 80003f4:	f011 4f00 	tst.w	r1, #2147483648	; 0x80000000
 80003f8:	ea4f 3101 	mov.w	r1, r1, lsl #12
 80003fc:	f44f 1c80 	mov.w	ip, #1048576	; 0x100000
 8000400:	ea4c 3111 	orr.w	r1, ip, r1, lsr #12
 8000404:	d002      	beq.n	800040c <__adddf3+0x70>
 8000406:	4240      	negs	r0, r0
 8000408:	eb61 0141 	sbc.w	r1, r1, r1, lsl #1
 800040c:	f013 4f00 	tst.w	r3, #2147483648	; 0x80000000
 8000410:	ea4f 3303 	mov.w	r3, r3, lsl #12
 8000414:	ea4c 3313 	orr.w	r3, ip, r3, lsr #12
 8000418:	d002      	beq.n	8000420 <__adddf3+0x84>
 800041a:	4252      	negs	r2, r2
 800041c:	eb63 0343 	sbc.w	r3, r3, r3, lsl #1
 8000420:	ea94 0f05 	teq	r4, r5
 8000424:	f000 80a7 	beq.w	8000576 <__adddf3+0x1da>
 8000428:	f1a4 0401 	sub.w	r4, r4, #1
 800042c:	f1d5 0e20 	rsbs	lr, r5, #32
 8000430:	db0d      	blt.n	800044e <__adddf3+0xb2>
 8000432:	fa02 fc0e 	lsl.w	ip, r2, lr
 8000436:	fa22 f205 	lsr.w	r2, r2, r5
 800043a:	1880      	adds	r0, r0, r2
 800043c:	f141 0100 	adc.w	r1, r1, #0
 8000440:	fa03 f20e 	lsl.w	r2, r3, lr
 8000444:	1880      	adds	r0, r0, r2
 8000446:	fa43 f305 	asr.w	r3, r3, r5
 800044a:	4159      	adcs	r1, r3
 800044c:	e00e      	b.n	800046c <__adddf3+0xd0>
 800044e:	f1a5 0520 	sub.w	r5, r5, #32
 8000452:	f10e 0e20 	add.w	lr, lr, #32
 8000456:	2a01      	cmp	r2, #1
 8000458:	fa03 fc0e 	lsl.w	ip, r3, lr
 800045c:	bf28      	it	cs
 800045e:	f04c 0c02 	orrcs.w	ip, ip, #2
 8000462:	fa43 f305 	asr.w	r3, r3, r5
 8000466:	18c0      	adds	r0, r0, r3
 8000468:	eb51 71e3 	adcs.w	r1, r1, r3, asr #31
 800046c:	f001 4500 	and.w	r5, r1, #2147483648	; 0x80000000
 8000470:	d507      	bpl.n	8000482 <__adddf3+0xe6>
 8000472:	f04f 0e00 	mov.w	lr, #0
 8000476:	f1dc 0c00 	rsbs	ip, ip, #0
 800047a:	eb7e 0000 	sbcs.w	r0, lr, r0
 800047e:	eb6e 0101 	sbc.w	r1, lr, r1
 8000482:	f5b1 1f80 	cmp.w	r1, #1048576	; 0x100000
 8000486:	d31b      	bcc.n	80004c0 <__adddf3+0x124>
 8000488:	f5b1 1f00 	cmp.w	r1, #2097152	; 0x200000
 800048c:	d30c      	bcc.n	80004a8 <__adddf3+0x10c>
 800048e:	0849      	lsrs	r1, r1, #1
 8000490:	ea5f 0030 	movs.w	r0, r0, rrx
 8000494:	ea4f 0c3c 	mov.w	ip, ip, rrx
 8000498:	f104 0401 	add.w	r4, r4, #1
 800049c:	ea4f 5244 	mov.w	r2, r4, lsl #21
 80004a0:	f512 0f80 	cmn.w	r2, #4194304	; 0x400000
 80004a4:	f080 809a 	bcs.w	80005dc <__adddf3+0x240>
 80004a8:	f1bc 4f00 	cmp.w	ip, #2147483648	; 0x80000000
 80004ac:	bf08      	it	eq
 80004ae:	ea5f 0c50 	movseq.w	ip, r0, lsr #1
 80004b2:	f150 0000 	adcs.w	r0, r0, #0
 80004b6:	eb41 5104 	adc.w	r1, r1, r4, lsl #20
 80004ba:	ea41 0105 	orr.w	r1, r1, r5
 80004be:	bd30      	pop	{r4, r5, pc}
 80004c0:	ea5f 0c4c 	movs.w	ip, ip, lsl #1
 80004c4:	4140      	adcs	r0, r0
 80004c6:	eb41 0101 	adc.w	r1, r1, r1
 80004ca:	3c01      	subs	r4, #1
 80004cc:	bf28      	it	cs
 80004ce:	f5b1 1f80 	cmpcs.w	r1, #1048576	; 0x100000
 80004d2:	d2e9      	bcs.n	80004a8 <__adddf3+0x10c>
 80004d4:	f091 0f00 	teq	r1, #0
 80004d8:	bf04      	itt	eq
 80004da:	4601      	moveq	r1, r0
 80004dc:	2000      	moveq	r0, #0
 80004de:	fab1 f381 	clz	r3, r1
 80004e2:	bf08      	it	eq
 80004e4:	3320      	addeq	r3, #32
 80004e6:	f1a3 030b 	sub.w	r3, r3, #11
 80004ea:	f1b3 0220 	subs.w	r2, r3, #32
 80004ee:	da0c      	bge.n	800050a <__adddf3+0x16e>
 80004f0:	320c      	adds	r2, #12
 80004f2:	dd08      	ble.n	8000506 <__adddf3+0x16a>
 80004f4:	f102 0c14 	add.w	ip, r2, #20
 80004f8:	f1c2 020c 	rsb	r2, r2, #12
 80004fc:	fa01 f00c 	lsl.w	r0, r1, ip
 8000500:	fa21 f102 	lsr.w	r1, r1, r2
 8000504:	e00c      	b.n	8000520 <__adddf3+0x184>
 8000506:	f102 0214 	add.w	r2, r2, #20
 800050a:	bfd8      	it	le
 800050c:	f1c2 0c20 	rsble	ip, r2, #32
 8000510:	fa01 f102 	lsl.w	r1, r1, r2
 8000514:	fa20 fc0c 	lsr.w	ip, r0, ip
 8000518:	bfdc      	itt	le
 800051a:	ea41 010c 	orrle.w	r1, r1, ip
 800051e:	4090      	lslle	r0, r2
 8000520:	1ae4      	subs	r4, r4, r3
 8000522:	bfa2      	ittt	ge
 8000524:	eb01 5104 	addge.w	r1, r1, r4, lsl #20
 8000528:	4329      	orrge	r1, r5
 800052a:	bd30      	popge	{r4, r5, pc}
 800052c:	ea6f 0404 	mvn.w	r4, r4
 8000530:	3c1f      	subs	r4, #31
 8000532:	da1c      	bge.n	800056e <__adddf3+0x1d2>
 8000534:	340c      	adds	r4, #12
 8000536:	dc0e      	bgt.n	8000556 <__adddf3+0x1ba>
 8000538:	f104 0414 	add.w	r4, r4, #20
 800053c:	f1c4 0220 	rsb	r2, r4, #32
 8000540:	fa20 f004 	lsr.w	r0, r0, r4
 8000544:	fa01 f302 	lsl.w	r3, r1, r2
 8000548:	ea40 0003 	orr.w	r0, r0, r3
 800054c:	fa21 f304 	lsr.w	r3, r1, r4
 8000550:	ea45 0103 	orr.w	r1, r5, r3
 8000554:	bd30      	pop	{r4, r5, pc}
 8000556:	f1c4 040c 	rsb	r4, r4, #12
 800055a:	f1c4 0220 	rsb	r2, r4, #32
 800055e:	fa20 f002 	lsr.w	r0, r0, r2
 8000562:	fa01 f304 	lsl.w	r3, r1, r4
 8000566:	ea40 0003 	orr.w	r0, r0, r3
 800056a:	4629      	mov	r1, r5
 800056c:	bd30      	pop	{r4, r5, pc}
 800056e:	fa21 f004 	lsr.w	r0, r1, r4
 8000572:	4629      	mov	r1, r5
 8000574:	bd30      	pop	{r4, r5, pc}
 8000576:	f094 0f00 	teq	r4, #0
 800057a:	f483 1380 	eor.w	r3, r3, #1048576	; 0x100000
 800057e:	bf06      	itte	eq
 8000580:	f481 1180 	eoreq.w	r1, r1, #1048576	; 0x100000
 8000584:	3401      	addeq	r4, #1
 8000586:	3d01      	subne	r5, #1
 8000588:	e74e      	b.n	8000428 <__adddf3+0x8c>
 800058a:	ea7f 5c64 	mvns.w	ip, r4, asr #21
 800058e:	bf18      	it	ne
 8000590:	ea7f 5c65 	mvnsne.w	ip, r5, asr #21
 8000594:	d029      	beq.n	80005ea <__adddf3+0x24e>
 8000596:	ea94 0f05 	teq	r4, r5
 800059a:	bf08      	it	eq
 800059c:	ea90 0f02 	teqeq	r0, r2
 80005a0:	d005      	beq.n	80005ae <__adddf3+0x212>
 80005a2:	ea54 0c00 	orrs.w	ip, r4, r0
 80005a6:	bf04      	itt	eq
 80005a8:	4619      	moveq	r1, r3
 80005aa:	4610      	moveq	r0, r2
 80005ac:	bd30      	pop	{r4, r5, pc}
 80005ae:	ea91 0f03 	teq	r1, r3
 80005b2:	bf1e      	ittt	ne
 80005b4:	2100      	movne	r1, #0
 80005b6:	2000      	movne	r0, #0
 80005b8:	bd30      	popne	{r4, r5, pc}
 80005ba:	ea5f 5c54 	movs.w	ip, r4, lsr #21
 80005be:	d105      	bne.n	80005cc <__adddf3+0x230>
 80005c0:	0040      	lsls	r0, r0, #1
 80005c2:	4149      	adcs	r1, r1
 80005c4:	bf28      	it	cs
 80005c6:	f041 4100 	orrcs.w	r1, r1, #2147483648	; 0x80000000
 80005ca:	bd30      	pop	{r4, r5, pc}
 80005cc:	f514 0480 	adds.w	r4, r4, #4194304	; 0x400000
 80005d0:	bf3c      	itt	cc
 80005d2:	f501 1180 	addcc.w	r1, r1, #1048576	; 0x100000
 80005d6:	bd30      	popcc	{r4, r5, pc}
 80005d8:	f001 4500 	and.w	r5, r1, #2147483648	; 0x80000000
 80005dc:	f045 41fe 	orr.w	r1, r5, #2130706432	; 0x7f000000
 80005e0:	f441 0170 	orr.w	r1, r1, #15728640	; 0xf00000
 80005e4:	f04f 0000 	mov.w	r0, #0
 80005e8:	bd30      	pop	{r4, r5, pc}
 80005ea:	ea7f 5c64 	mvns.w	ip, r4, asr #21
 80005ee:	bf1a      	itte	ne
 80005f0:	4619      	movne	r1, r3
 80005f2:	4610      	movne	r0, r2
 80005f4:	ea7f 5c65 	mvnseq.w	ip, r5, asr #21
 80005f8:	bf1c      	itt	ne
 80005fa:	460b      	movne	r3, r1
 80005fc:	4602      	movne	r2, r0
 80005fe:	ea50 3401 	orrs.w	r4, r0, r1, lsl #12
 8000602:	bf06      	itte	eq
 8000604:	ea52 3503 	orrseq.w	r5, r2, r3, lsl #12
 8000608:	ea91 0f03 	teqeq	r1, r3
 800060c:	f441 2100 	orrne.w	r1, r1, #524288	; 0x80000
 8000610:	bd30      	pop	{r4, r5, pc}
 8000612:	bf00      	nop

08000614 <__aeabi_ui2d>:
 8000614:	f090 0f00 	teq	r0, #0
 8000618:	bf04      	itt	eq
 800061a:	2100      	moveq	r1, #0
 800061c:	4770      	bxeq	lr
 800061e:	b530      	push	{r4, r5, lr}
 8000620:	f44f 6480 	mov.w	r4, #1024	; 0x400
 8000624:	f104 0432 	add.w	r4, r4, #50	; 0x32
 8000628:	f04f 0500 	mov.w	r5, #0
 800062c:	f04f 0100 	mov.w	r1, #0
 8000630:	e750      	b.n	80004d4 <__adddf3+0x138>
 8000632:	bf00      	nop

08000634 <__aeabi_i2d>:
 8000634:	f090 0f00 	teq	r0, #0
 8000638:	bf04      	itt	eq
 800063a:	2100      	moveq	r1, #0
 800063c:	4770      	bxeq	lr
 800063e:	b530      	push	{r4, r5, lr}
 8000640:	f44f 6480 	mov.w	r4, #1024	; 0x400
 8000644:	f104 0432 	add.w	r4, r4, #50	; 0x32
 8000648:	f010 4500 	ands.w	r5, r0, #2147483648	; 0x80000000
 800064c:	bf48      	it	mi
 800064e:	4240      	negmi	r0, r0
 8000650:	f04f 0100 	mov.w	r1, #0
 8000654:	e73e      	b.n	80004d4 <__adddf3+0x138>
 8000656:	bf00      	nop

08000658 <__aeabi_f2d>:
 8000658:	0042      	lsls	r2, r0, #1
 800065a:	ea4f 01e2 	mov.w	r1, r2, asr #3
 800065e:	ea4f 0131 	mov.w	r1, r1, rrx
 8000662:	ea4f 7002 	mov.w	r0, r2, lsl #28
 8000666:	bf1f      	itttt	ne
 8000668:	f012 437f 	andsne.w	r3, r2, #4278190080	; 0xff000000
 800066c:	f093 4f7f 	teqne	r3, #4278190080	; 0xff000000
 8000670:	f081 5160 	eorne.w	r1, r1, #939524096	; 0x38000000
 8000674:	4770      	bxne	lr
 8000676:	f032 427f 	bics.w	r2, r2, #4278190080	; 0xff000000
 800067a:	bf08      	it	eq
 800067c:	4770      	bxeq	lr
 800067e:	f093 4f7f 	teq	r3, #4278190080	; 0xff000000
 8000682:	bf04      	itt	eq
 8000684:	f441 2100 	orreq.w	r1, r1, #524288	; 0x80000
 8000688:	4770      	bxeq	lr
 800068a:	b530      	push	{r4, r5, lr}
 800068c:	f44f 7460 	mov.w	r4, #896	; 0x380
 8000690:	f001 4500 	and.w	r5, r1, #2147483648	; 0x80000000
 8000694:	f021 4100 	bic.w	r1, r1, #2147483648	; 0x80000000
 8000698:	e71c      	b.n	80004d4 <__adddf3+0x138>
 800069a:	bf00      	nop

0800069c <__aeabi_ul2d>:
 800069c:	ea50 0201 	orrs.w	r2, r0, r1
 80006a0:	bf08      	it	eq
 80006a2:	4770      	bxeq	lr
 80006a4:	b530      	push	{r4, r5, lr}
 80006a6:	f04f 0500 	mov.w	r5, #0
 80006aa:	e00a      	b.n	80006c2 <__aeabi_l2d+0x16>

080006ac <__aeabi_l2d>:
 80006ac:	ea50 0201 	orrs.w	r2, r0, r1
 80006b0:	bf08      	it	eq
 80006b2:	4770      	bxeq	lr
 80006b4:	b530      	push	{r4, r5, lr}
 80006b6:	f011 4500 	ands.w	r5, r1, #2147483648	; 0x80000000
 80006ba:	d502      	bpl.n	80006c2 <__aeabi_l2d+0x16>
 80006bc:	4240      	negs	r0, r0
 80006be:	eb61 0141 	sbc.w	r1, r1, r1, lsl #1
 80006c2:	f44f 6480 	mov.w	r4, #1024	; 0x400
 80006c6:	f104 0432 	add.w	r4, r4, #50	; 0x32
 80006ca:	ea5f 5c91 	movs.w	ip, r1, lsr #22
 80006ce:	f43f aed8 	beq.w	8000482 <__adddf3+0xe6>
 80006d2:	f04f 0203 	mov.w	r2, #3
 80006d6:	ea5f 0cdc 	movs.w	ip, ip, lsr #3
 80006da:	bf18      	it	ne
 80006dc:	3203      	addne	r2, #3
 80006de:	ea5f 0cdc 	movs.w	ip, ip, lsr #3
 80006e2:	bf18      	it	ne
 80006e4:	3203      	addne	r2, #3
 80006e6:	eb02 02dc 	add.w	r2, r2, ip, lsr #3
 80006ea:	f1c2 0320 	rsb	r3, r2, #32
 80006ee:	fa00 fc03 	lsl.w	ip, r0, r3
 80006f2:	fa20 f002 	lsr.w	r0, r0, r2
 80006f6:	fa01 fe03 	lsl.w	lr, r1, r3
 80006fa:	ea40 000e 	orr.w	r0, r0, lr
 80006fe:	fa21 f102 	lsr.w	r1, r1, r2
 8000702:	4414      	add	r4, r2
 8000704:	e6bd      	b.n	8000482 <__adddf3+0xe6>
 8000706:	bf00      	nop

08000708 <__aeabi_uldivmod>:
 8000708:	b953      	cbnz	r3, 8000720 <__aeabi_uldivmod+0x18>
 800070a:	b94a      	cbnz	r2, 8000720 <__aeabi_uldivmod+0x18>
 800070c:	2900      	cmp	r1, #0
 800070e:	bf08      	it	eq
 8000710:	2800      	cmpeq	r0, #0
 8000712:	bf1c      	itt	ne
 8000714:	f04f 31ff 	movne.w	r1, #4294967295
 8000718:	f04f 30ff 	movne.w	r0, #4294967295
 800071c:	f000 b9a8 	b.w	8000a70 <__aeabi_idiv0>
 8000720:	f1ad 0c08 	sub.w	ip, sp, #8
 8000724:	e96d ce04 	strd	ip, lr, [sp, #-16]!
 8000728:	f000 f83e 	bl	80007a8 <__udivmoddi4>
 800072c:	f8dd e004 	ldr.w	lr, [sp, #4]
 8000730:	e9dd 2302 	ldrd	r2, r3, [sp, #8]
 8000734:	b004      	add	sp, #16
 8000736:	4770      	bx	lr

08000738 <__aeabi_d2lz>:
 8000738:	b508      	push	{r3, lr}
 800073a:	4602      	mov	r2, r0
 800073c:	460b      	mov	r3, r1
 800073e:	ec43 2b17 	vmov	d7, r2, r3
 8000742:	eeb5 7bc0 	vcmpe.f64	d7, #0.0
 8000746:	eef1 fa10 	vmrs	APSR_nzcv, fpscr
 800074a:	d403      	bmi.n	8000754 <__aeabi_d2lz+0x1c>
 800074c:	e8bd 4008 	ldmia.w	sp!, {r3, lr}
 8000750:	f000 b80a 	b.w	8000768 <__aeabi_d2ulz>
 8000754:	eeb1 7b47 	vneg.f64	d7, d7
 8000758:	ec51 0b17 	vmov	r0, r1, d7
 800075c:	f000 f804 	bl	8000768 <__aeabi_d2ulz>
 8000760:	4240      	negs	r0, r0
 8000762:	eb61 0141 	sbc.w	r1, r1, r1, lsl #1
 8000766:	bd08      	pop	{r3, pc}

08000768 <__aeabi_d2ulz>:
 8000768:	ed9f 6b0b 	vldr	d6, [pc, #44]	; 8000798 <__aeabi_d2ulz+0x30>
 800076c:	ec41 0b17 	vmov	d7, r0, r1
 8000770:	ed9f 5b0b 	vldr	d5, [pc, #44]	; 80007a0 <__aeabi_d2ulz+0x38>
 8000774:	ee27 6b06 	vmul.f64	d6, d7, d6
 8000778:	eebc 6bc6 	vcvt.u32.f64	s12, d6
 800077c:	eeb8 4b46 	vcvt.f64.u32	d4, s12
 8000780:	eea4 7b45 	vfms.f64	d7, d4, d5
 8000784:	eefc 7bc7 	vcvt.u32.f64	s15, d7
 8000788:	ee16 1a10 	vmov	r1, s12
 800078c:	ee17 0a90 	vmov	r0, s15
 8000790:	4770      	bx	lr
 8000792:	bf00      	nop
 8000794:	f3af 8000 	nop.w
 8000798:	00000000 	.word	0x00000000
 800079c:	3df00000 	.word	0x3df00000
 80007a0:	00000000 	.word	0x00000000
 80007a4:	41f00000 	.word	0x41f00000

080007a8 <__udivmoddi4>:
 80007a8:	e92d 47f0 	stmdb	sp!, {r4, r5, r6, r7, r8, r9, sl, lr}
 80007ac:	9e08      	ldr	r6, [sp, #32]
 80007ae:	460d      	mov	r5, r1
 80007b0:	4604      	mov	r4, r0
 80007b2:	460f      	mov	r7, r1
 80007b4:	2b00      	cmp	r3, #0
 80007b6:	d14a      	bne.n	800084e <__udivmoddi4+0xa6>
 80007b8:	428a      	cmp	r2, r1
 80007ba:	4694      	mov	ip, r2
 80007bc:	d965      	bls.n	800088a <__udivmoddi4+0xe2>
 80007be:	fab2 f382 	clz	r3, r2
 80007c2:	b143      	cbz	r3, 80007d6 <__udivmoddi4+0x2e>
 80007c4:	fa02 fc03 	lsl.w	ip, r2, r3
 80007c8:	f1c3 0220 	rsb	r2, r3, #32
 80007cc:	409f      	lsls	r7, r3
 80007ce:	fa20 f202 	lsr.w	r2, r0, r2
 80007d2:	4317      	orrs	r7, r2
 80007d4:	409c      	lsls	r4, r3
 80007d6:	ea4f 4e1c 	mov.w	lr, ip, lsr #16
 80007da:	fa1f f58c 	uxth.w	r5, ip
 80007de:	fbb7 f1fe 	udiv	r1, r7, lr
 80007e2:	0c22      	lsrs	r2, r4, #16
 80007e4:	fb0e 7711 	mls	r7, lr, r1, r7
 80007e8:	ea42 4207 	orr.w	r2, r2, r7, lsl #16
 80007ec:	fb01 f005 	mul.w	r0, r1, r5
 80007f0:	4290      	cmp	r0, r2
 80007f2:	d90a      	bls.n	800080a <__udivmoddi4+0x62>
 80007f4:	eb1c 0202 	adds.w	r2, ip, r2
 80007f8:	f101 37ff 	add.w	r7, r1, #4294967295
 80007fc:	f080 811c 	bcs.w	8000a38 <__udivmoddi4+0x290>
 8000800:	4290      	cmp	r0, r2
 8000802:	f240 8119 	bls.w	8000a38 <__udivmoddi4+0x290>
 8000806:	3902      	subs	r1, #2
 8000808:	4462      	add	r2, ip
 800080a:	1a12      	subs	r2, r2, r0
 800080c:	b2a4      	uxth	r4, r4
 800080e:	fbb2 f0fe 	udiv	r0, r2, lr
 8000812:	fb0e 2210 	mls	r2, lr, r0, r2
 8000816:	ea44 4402 	orr.w	r4, r4, r2, lsl #16
 800081a:	fb00 f505 	mul.w	r5, r0, r5
 800081e:	42a5      	cmp	r5, r4
 8000820:	d90a      	bls.n	8000838 <__udivmoddi4+0x90>
 8000822:	eb1c 0404 	adds.w	r4, ip, r4
 8000826:	f100 32ff 	add.w	r2, r0, #4294967295
 800082a:	f080 8107 	bcs.w	8000a3c <__udivmoddi4+0x294>
 800082e:	42a5      	cmp	r5, r4
 8000830:	f240 8104 	bls.w	8000a3c <__udivmoddi4+0x294>
 8000834:	4464      	add	r4, ip
 8000836:	3802      	subs	r0, #2
 8000838:	ea40 4001 	orr.w	r0, r0, r1, lsl #16
 800083c:	1b64      	subs	r4, r4, r5
 800083e:	2100      	movs	r1, #0
 8000840:	b11e      	cbz	r6, 800084a <__udivmoddi4+0xa2>
 8000842:	40dc      	lsrs	r4, r3
 8000844:	2300      	movs	r3, #0
 8000846:	e9c6 4300 	strd	r4, r3, [r6]
 800084a:	e8bd 87f0 	ldmia.w	sp!, {r4, r5, r6, r7, r8, r9, sl, pc}
 800084e:	428b      	cmp	r3, r1
 8000850:	d908      	bls.n	8000864 <__udivmoddi4+0xbc>
 8000852:	2e00      	cmp	r6, #0
 8000854:	f000 80ed 	beq.w	8000a32 <__udivmoddi4+0x28a>
 8000858:	2100      	movs	r1, #0
 800085a:	e9c6 0500 	strd	r0, r5, [r6]
 800085e:	4608      	mov	r0, r1
 8000860:	e8bd 87f0 	ldmia.w	sp!, {r4, r5, r6, r7, r8, r9, sl, pc}
 8000864:	fab3 f183 	clz	r1, r3
 8000868:	2900      	cmp	r1, #0
 800086a:	d149      	bne.n	8000900 <__udivmoddi4+0x158>
 800086c:	42ab      	cmp	r3, r5
 800086e:	d302      	bcc.n	8000876 <__udivmoddi4+0xce>
 8000870:	4282      	cmp	r2, r0
 8000872:	f200 80f8 	bhi.w	8000a66 <__udivmoddi4+0x2be>
 8000876:	1a84      	subs	r4, r0, r2
 8000878:	eb65 0203 	sbc.w	r2, r5, r3
 800087c:	2001      	movs	r0, #1
 800087e:	4617      	mov	r7, r2
 8000880:	2e00      	cmp	r6, #0
 8000882:	d0e2      	beq.n	800084a <__udivmoddi4+0xa2>
 8000884:	e9c6 4700 	strd	r4, r7, [r6]
 8000888:	e7df      	b.n	800084a <__udivmoddi4+0xa2>
 800088a:	b902      	cbnz	r2, 800088e <__udivmoddi4+0xe6>
 800088c:	deff      	udf	#255	; 0xff
 800088e:	fab2 f382 	clz	r3, r2
 8000892:	2b00      	cmp	r3, #0
 8000894:	f040 8090 	bne.w	80009b8 <__udivmoddi4+0x210>
 8000898:	1a8a      	subs	r2, r1, r2
 800089a:	ea4f 471c 	mov.w	r7, ip, lsr #16
 800089e:	fa1f fe8c 	uxth.w	lr, ip
 80008a2:	2101      	movs	r1, #1
 80008a4:	fbb2 f5f7 	udiv	r5, r2, r7
 80008a8:	fb07 2015 	mls	r0, r7, r5, r2
 80008ac:	0c22      	lsrs	r2, r4, #16
 80008ae:	ea42 4200 	orr.w	r2, r2, r0, lsl #16
 80008b2:	fb0e f005 	mul.w	r0, lr, r5
 80008b6:	4290      	cmp	r0, r2
 80008b8:	d908      	bls.n	80008cc <__udivmoddi4+0x124>
 80008ba:	eb1c 0202 	adds.w	r2, ip, r2
 80008be:	f105 38ff 	add.w	r8, r5, #4294967295
 80008c2:	d202      	bcs.n	80008ca <__udivmoddi4+0x122>
 80008c4:	4290      	cmp	r0, r2
 80008c6:	f200 80cb 	bhi.w	8000a60 <__udivmoddi4+0x2b8>
 80008ca:	4645      	mov	r5, r8
 80008cc:	1a12      	subs	r2, r2, r0
 80008ce:	b2a4      	uxth	r4, r4
 80008d0:	fbb2 f0f7 	udiv	r0, r2, r7
 80008d4:	fb07 2210 	mls	r2, r7, r0, r2
 80008d8:	ea44 4402 	orr.w	r4, r4, r2, lsl #16
 80008dc:	fb0e fe00 	mul.w	lr, lr, r0
 80008e0:	45a6      	cmp	lr, r4
 80008e2:	d908      	bls.n	80008f6 <__udivmoddi4+0x14e>
 80008e4:	eb1c 0404 	adds.w	r4, ip, r4
 80008e8:	f100 32ff 	add.w	r2, r0, #4294967295
 80008ec:	d202      	bcs.n	80008f4 <__udivmoddi4+0x14c>
 80008ee:	45a6      	cmp	lr, r4
 80008f0:	f200 80bb 	bhi.w	8000a6a <__udivmoddi4+0x2c2>
 80008f4:	4610      	mov	r0, r2
 80008f6:	eba4 040e 	sub.w	r4, r4, lr
 80008fa:	ea40 4005 	orr.w	r0, r0, r5, lsl #16
 80008fe:	e79f      	b.n	8000840 <__udivmoddi4+0x98>
 8000900:	f1c1 0720 	rsb	r7, r1, #32
 8000904:	408b      	lsls	r3, r1
 8000906:	fa22 fc07 	lsr.w	ip, r2, r7
 800090a:	ea4c 0c03 	orr.w	ip, ip, r3
 800090e:	fa05 f401 	lsl.w	r4, r5, r1
 8000912:	fa20 f307 	lsr.w	r3, r0, r7
 8000916:	40fd      	lsrs	r5, r7
 8000918:	ea4f 491c 	mov.w	r9, ip, lsr #16
 800091c:	4323      	orrs	r3, r4
 800091e:	fbb5 f8f9 	udiv	r8, r5, r9
 8000922:	fa1f fe8c 	uxth.w	lr, ip
 8000926:	fb09 5518 	mls	r5, r9, r8, r5
 800092a:	0c1c      	lsrs	r4, r3, #16
 800092c:	ea44 4405 	orr.w	r4, r4, r5, lsl #16
 8000930:	fb08 f50e 	mul.w	r5, r8, lr
 8000934:	42a5      	cmp	r5, r4
 8000936:	fa02 f201 	lsl.w	r2, r2, r1
 800093a:	fa00 f001 	lsl.w	r0, r0, r1
 800093e:	d90b      	bls.n	8000958 <__udivmoddi4+0x1b0>
 8000940:	eb1c 0404 	adds.w	r4, ip, r4
 8000944:	f108 3aff 	add.w	sl, r8, #4294967295
 8000948:	f080 8088 	bcs.w	8000a5c <__udivmoddi4+0x2b4>
 800094c:	42a5      	cmp	r5, r4
 800094e:	f240 8085 	bls.w	8000a5c <__udivmoddi4+0x2b4>
 8000952:	f1a8 0802 	sub.w	r8, r8, #2
 8000956:	4464      	add	r4, ip
 8000958:	1b64      	subs	r4, r4, r5
 800095a:	b29d      	uxth	r5, r3
 800095c:	fbb4 f3f9 	udiv	r3, r4, r9
 8000960:	fb09 4413 	mls	r4, r9, r3, r4
 8000964:	ea45 4404 	orr.w	r4, r5, r4, lsl #16
 8000968:	fb03 fe0e 	mul.w	lr, r3, lr
 800096c:	45a6      	cmp	lr, r4
 800096e:	d908      	bls.n	8000982 <__udivmoddi4+0x1da>
 8000970:	eb1c 0404 	adds.w	r4, ip, r4
 8000974:	f103 35ff 	add.w	r5, r3, #4294967295
 8000978:	d26c      	bcs.n	8000a54 <__udivmoddi4+0x2ac>
 800097a:	45a6      	cmp	lr, r4
 800097c:	d96a      	bls.n	8000a54 <__udivmoddi4+0x2ac>
 800097e:	3b02      	subs	r3, #2
 8000980:	4464      	add	r4, ip
 8000982:	ea43 4308 	orr.w	r3, r3, r8, lsl #16
 8000986:	fba3 9502 	umull	r9, r5, r3, r2
 800098a:	eba4 040e 	sub.w	r4, r4, lr
 800098e:	42ac      	cmp	r4, r5
 8000990:	46c8      	mov	r8, r9
 8000992:	46ae      	mov	lr, r5
 8000994:	d356      	bcc.n	8000a44 <__udivmoddi4+0x29c>
 8000996:	d053      	beq.n	8000a40 <__udivmoddi4+0x298>
 8000998:	b156      	cbz	r6, 80009b0 <__udivmoddi4+0x208>
 800099a:	ebb0 0208 	subs.w	r2, r0, r8
 800099e:	eb64 040e 	sbc.w	r4, r4, lr
 80009a2:	fa04 f707 	lsl.w	r7, r4, r7
 80009a6:	40ca      	lsrs	r2, r1
 80009a8:	40cc      	lsrs	r4, r1
 80009aa:	4317      	orrs	r7, r2
 80009ac:	e9c6 7400 	strd	r7, r4, [r6]
 80009b0:	4618      	mov	r0, r3
 80009b2:	2100      	movs	r1, #0
 80009b4:	e8bd 87f0 	ldmia.w	sp!, {r4, r5, r6, r7, r8, r9, sl, pc}
 80009b8:	f1c3 0120 	rsb	r1, r3, #32
 80009bc:	fa02 fc03 	lsl.w	ip, r2, r3
 80009c0:	fa20 f201 	lsr.w	r2, r0, r1
 80009c4:	fa25 f101 	lsr.w	r1, r5, r1
 80009c8:	409d      	lsls	r5, r3
 80009ca:	432a      	orrs	r2, r5
 80009cc:	ea4f 471c 	mov.w	r7, ip, lsr #16
 80009d0:	fa1f fe8c 	uxth.w	lr, ip
 80009d4:	fbb1 f0f7 	udiv	r0, r1, r7
 80009d8:	fb07 1510 	mls	r5, r7, r0, r1
 80009dc:	0c11      	lsrs	r1, r2, #16
 80009de:	ea41 4105 	orr.w	r1, r1, r5, lsl #16
 80009e2:	fb00 f50e 	mul.w	r5, r0, lr
 80009e6:	428d      	cmp	r5, r1
 80009e8:	fa04 f403 	lsl.w	r4, r4, r3
 80009ec:	d908      	bls.n	8000a00 <__udivmoddi4+0x258>
 80009ee:	eb1c 0101 	adds.w	r1, ip, r1
 80009f2:	f100 38ff 	add.w	r8, r0, #4294967295
 80009f6:	d22f      	bcs.n	8000a58 <__udivmoddi4+0x2b0>
 80009f8:	428d      	cmp	r5, r1
 80009fa:	d92d      	bls.n	8000a58 <__udivmoddi4+0x2b0>
 80009fc:	3802      	subs	r0, #2
 80009fe:	4461      	add	r1, ip
 8000a00:	1b49      	subs	r1, r1, r5
 8000a02:	b292      	uxth	r2, r2
 8000a04:	fbb1 f5f7 	udiv	r5, r1, r7
 8000a08:	fb07 1115 	mls	r1, r7, r5, r1
 8000a0c:	ea42 4201 	orr.w	r2, r2, r1, lsl #16
 8000a10:	fb05 f10e 	mul.w	r1, r5, lr
 8000a14:	4291      	cmp	r1, r2
 8000a16:	d908      	bls.n	8000a2a <__udivmoddi4+0x282>
 8000a18:	eb1c 0202 	adds.w	r2, ip, r2
 8000a1c:	f105 38ff 	add.w	r8, r5, #4294967295
 8000a20:	d216      	bcs.n	8000a50 <__udivmoddi4+0x2a8>
 8000a22:	4291      	cmp	r1, r2
 8000a24:	d914      	bls.n	8000a50 <__udivmoddi4+0x2a8>
 8000a26:	3d02      	subs	r5, #2
 8000a28:	4462      	add	r2, ip
 8000a2a:	1a52      	subs	r2, r2, r1
 8000a2c:	ea45 4100 	orr.w	r1, r5, r0, lsl #16
 8000a30:	e738      	b.n	80008a4 <__udivmoddi4+0xfc>
 8000a32:	4631      	mov	r1, r6
 8000a34:	4630      	mov	r0, r6
 8000a36:	e708      	b.n	800084a <__udivmoddi4+0xa2>
 8000a38:	4639      	mov	r1, r7
 8000a3a:	e6e6      	b.n	800080a <__udivmoddi4+0x62>
 8000a3c:	4610      	mov	r0, r2
 8000a3e:	e6fb      	b.n	8000838 <__udivmoddi4+0x90>
 8000a40:	4548      	cmp	r0, r9
 8000a42:	d2a9      	bcs.n	8000998 <__udivmoddi4+0x1f0>
 8000a44:	ebb9 0802 	subs.w	r8, r9, r2
 8000a48:	eb65 0e0c 	sbc.w	lr, r5, ip
 8000a4c:	3b01      	subs	r3, #1
 8000a4e:	e7a3      	b.n	8000998 <__udivmoddi4+0x1f0>
 8000a50:	4645      	mov	r5, r8
 8000a52:	e7ea      	b.n	8000a2a <__udivmoddi4+0x282>
 8000a54:	462b      	mov	r3, r5
 8000a56:	e794      	b.n	8000982 <__udivmoddi4+0x1da>
 8000a58:	4640      	mov	r0, r8
 8000a5a:	e7d1      	b.n	8000a00 <__udivmoddi4+0x258>
 8000a5c:	46d0      	mov	r8, sl
 8000a5e:	e77b      	b.n	8000958 <__udivmoddi4+0x1b0>
 8000a60:	3d02      	subs	r5, #2
 8000a62:	4462      	add	r2, ip
 8000a64:	e732      	b.n	80008cc <__udivmoddi4+0x124>
 8000a66:	4608      	mov	r0, r1
 8000a68:	e70a      	b.n	8000880 <__udivmoddi4+0xd8>
 8000a6a:	4464      	add	r4, ip
 8000a6c:	3802      	subs	r0, #2
 8000a6e:	e742      	b.n	80008f6 <__udivmoddi4+0x14e>

08000a70 <__aeabi_idiv0>:
 8000a70:	4770      	bx	lr
 8000a72:	bf00      	nop

08000a74 <boot_jump_app>:
	//FLASH_BASE+OFFSET
  SCB->VTOR=FLASH_BASE | offset;
}
//bootloader execute app
int boot_jump_app(uint32_t appAddr_stackTop)
{
 8000a74:	b580      	push	{r7, lr}
 8000a76:	b088      	sub	sp, #32
 8000a78:	af00      	add	r7, sp, #0
 8000a7a:	6078      	str	r0, [r7, #4]
	//获取栈顶指针值
	uint32_t stackTopAddrVlue=	*(uint32_t *)appAddr_stackTop;
 8000a7c:	687b      	ldr	r3, [r7, #4]
 8000a7e:	681b      	ldr	r3, [r3, #0]
 8000a80:	61fb      	str	r3, [r7, #28]
	//栈在ram中，而DTCMRAM的地址范围是0X20000000--0X2001FFFF
	//参数合法性校验
	if((appAddr_stackTop&0x0ff00000)!=0x08000000)
 8000a82:	687b      	ldr	r3, [r7, #4]
 8000a84:	f003 637f 	and.w	r3, r3, #267386880	; 0xff00000
 8000a88:	f1b3 6f00 	cmp.w	r3, #134217728	; 0x8000000
 8000a8c:	d001      	beq.n	8000a92 <boot_jump_app+0x1e>
	{
		return 1;
 8000a8e:	2301      	movs	r3, #1
 8000a90:	e023      	b.n	8000ada <boot_jump_app+0x66>
	}
	if((stackTopAddrVlue&0x2ff00000)==0X24000000)
 8000a92:	69fa      	ldr	r2, [r7, #28]
 8000a94:	4b13      	ldr	r3, [pc, #76]	; (8000ae4 <boot_jump_app+0x70>)
 8000a96:	4013      	ands	r3, r2
 8000a98:	f1b3 5f10 	cmp.w	r3, #603979776	; 0x24000000
 8000a9c:	d11a      	bne.n	8000ad4 <boot_jump_app+0x60>
	{
		/*跳转操作*/
		//获取中断向量表的地址 :app的flash地址偏移一个指针大小空间
		uint32_t intTableAddr=	*(uint32_t *)(appAddr_stackTop+sizeof(void *));
 8000a9e:	687b      	ldr	r3, [r7, #4]
 8000aa0:	3304      	adds	r3, #4
 8000aa2:	681b      	ldr	r3, [r3, #0]
 8000aa4:	61bb      	str	r3, [r7, #24]
		//复位向量表获取：
		uint32_t restHandleAddr=intTableAddr;
 8000aa6:	69bb      	ldr	r3, [r7, #24]
 8000aa8:	617b      	str	r3, [r7, #20]
		//复位向量表保存APP_FALSH_BASE_ADDR校验
		//中断向量表的第一个复位向量是程序执行的第一个函数指针一定在FLAH范围内
		if((restHandleAddr&0x0ff00000)==0x08000000)//中断向量表中复位向量的地址有效
 8000aaa:	697b      	ldr	r3, [r7, #20]
 8000aac:	f003 637f 	and.w	r3, r3, #267386880	; 0xff00000
 8000ab0:	f1b3 6f00 	cmp.w	r3, #134217728	; 0x8000000
 8000ab4:	d110      	bne.n	8000ad8 <boot_jump_app+0x64>
  \details Disables IRQ interrupts by setting the I-bit in the CPSR.
           Can only be executed in Privileged modes.
 */
__STATIC_FORCEINLINE void __disable_irq(void)
{
  __ASM volatile ("cpsid i" : : : "memory");
 8000ab6:	b672      	cpsid	i
}
 8000ab8:	bf00      	nop
		{
			//关中断
			__disable_irq();
			//获取复位向量的保存值，程序第一个运行的地址，复位向量保证执行程序的地址值
			uint32_t jumpAddr=restHandleAddr;
 8000aba:	697b      	ldr	r3, [r7, #20]
 8000abc:	613b      	str	r3, [r7, #16]
 8000abe:	69fb      	ldr	r3, [r7, #28]
 8000ac0:	60bb      	str	r3, [r7, #8]
  \details Assigns the given value to the Main Stack Pointer (MSP).
  \param [in]    topOfMainStack  Main Stack Pointer value to set
 */
__STATIC_FORCEINLINE void __set_MSP(uint32_t topOfMainStack)
{
  __ASM volatile ("MSR msp, %0" : : "r" (topOfMainStack) : );
 8000ac2:	68bb      	ldr	r3, [r7, #8]
 8000ac4:	f383 8808 	msr	MSP, r3
}
 8000ac8:	bf00      	nop
		  //设置新的栈顶指针,新的栈顶指针放入MSP中
		  __set_MSP(stackTopAddrVlue); //设置SP,堆栈栈顶地址
			//跳转地址值转成函数指针
		   pFunction jump2app=(pFunction)jumpAddr;
 8000aca:	693b      	ldr	r3, [r7, #16]
 8000acc:	60fb      	str	r3, [r7, #12]
		   //执行程序；
		   jump2app();
 8000ace:	68fb      	ldr	r3, [r7, #12]
 8000ad0:	4798      	blx	r3
 8000ad2:	e001      	b.n	8000ad8 <boot_jump_app+0x64>
		}
	}else
	{
		return 2;
 8000ad4:	2302      	movs	r3, #2
 8000ad6:	e000      	b.n	8000ada <boot_jump_app+0x66>
	}

	return 0;
 8000ad8:	2300      	movs	r3, #0
}
 8000ada:	4618      	mov	r0, r3
 8000adc:	3720      	adds	r7, #32
 8000ade:	46bd      	mov	sp, r7
 8000ae0:	bd80      	pop	{r7, pc}
 8000ae2:	bf00      	nop
 8000ae4:	2ff00000 	.word	0x2ff00000

08000ae8 <MX_GPIO_Init>:
     PH1-OSC_OUT (PH1)   ------> RCC_OSC_OUT
     PA13 (JTMS/SWDIO)   ------> DEBUG_JTMS-SWDIO
     PA14 (JTCK/SWCLK)   ------> DEBUG_JTCK-SWCLK
*/
void MX_GPIO_Init(void)
{
 8000ae8:	b580      	push	{r7, lr}
 8000aea:	b08a      	sub	sp, #40	; 0x28
 8000aec:	af00      	add	r7, sp, #0

  GPIO_InitTypeDef GPIO_InitStruct = {0};
 8000aee:	f107 0314 	add.w	r3, r7, #20
 8000af2:	2200      	movs	r2, #0
 8000af4:	601a      	str	r2, [r3, #0]
 8000af6:	605a      	str	r2, [r3, #4]
 8000af8:	609a      	str	r2, [r3, #8]
 8000afa:	60da      	str	r2, [r3, #12]
 8000afc:	611a      	str	r2, [r3, #16]

  /* GPIO Ports Clock Enable */
  __HAL_RCC_GPIOC_CLK_ENABLE();
 8000afe:	4b30      	ldr	r3, [pc, #192]	; (8000bc0 <MX_GPIO_Init+0xd8>)
 8000b00:	f8d3 30e0 	ldr.w	r3, [r3, #224]	; 0xe0
 8000b04:	4a2e      	ldr	r2, [pc, #184]	; (8000bc0 <MX_GPIO_Init+0xd8>)
 8000b06:	f043 0304 	orr.w	r3, r3, #4
 8000b0a:	f8c2 30e0 	str.w	r3, [r2, #224]	; 0xe0
 8000b0e:	4b2c      	ldr	r3, [pc, #176]	; (8000bc0 <MX_GPIO_Init+0xd8>)
 8000b10:	f8d3 30e0 	ldr.w	r3, [r3, #224]	; 0xe0
 8000b14:	f003 0304 	and.w	r3, r3, #4
 8000b18:	613b      	str	r3, [r7, #16]
 8000b1a:	693b      	ldr	r3, [r7, #16]
  __HAL_RCC_GPIOH_CLK_ENABLE();
 8000b1c:	4b28      	ldr	r3, [pc, #160]	; (8000bc0 <MX_GPIO_Init+0xd8>)
 8000b1e:	f8d3 30e0 	ldr.w	r3, [r3, #224]	; 0xe0
 8000b22:	4a27      	ldr	r2, [pc, #156]	; (8000bc0 <MX_GPIO_Init+0xd8>)
 8000b24:	f043 0380 	orr.w	r3, r3, #128	; 0x80
 8000b28:	f8c2 30e0 	str.w	r3, [r2, #224]	; 0xe0
 8000b2c:	4b24      	ldr	r3, [pc, #144]	; (8000bc0 <MX_GPIO_Init+0xd8>)
 8000b2e:	f8d3 30e0 	ldr.w	r3, [r3, #224]	; 0xe0
 8000b32:	f003 0380 	and.w	r3, r3, #128	; 0x80
 8000b36:	60fb      	str	r3, [r7, #12]
 8000b38:	68fb      	ldr	r3, [r7, #12]
  __HAL_RCC_GPIOB_CLK_ENABLE();
 8000b3a:	4b21      	ldr	r3, [pc, #132]	; (8000bc0 <MX_GPIO_Init+0xd8>)
 8000b3c:	f8d3 30e0 	ldr.w	r3, [r3, #224]	; 0xe0
 8000b40:	4a1f      	ldr	r2, [pc, #124]	; (8000bc0 <MX_GPIO_Init+0xd8>)
 8000b42:	f043 0302 	orr.w	r3, r3, #2
 8000b46:	f8c2 30e0 	str.w	r3, [r2, #224]	; 0xe0
 8000b4a:	4b1d      	ldr	r3, [pc, #116]	; (8000bc0 <MX_GPIO_Init+0xd8>)
 8000b4c:	f8d3 30e0 	ldr.w	r3, [r3, #224]	; 0xe0
 8000b50:	f003 0302 	and.w	r3, r3, #2
 8000b54:	60bb      	str	r3, [r7, #8]
 8000b56:	68bb      	ldr	r3, [r7, #8]
  __HAL_RCC_GPIOA_CLK_ENABLE();
 8000b58:	4b19      	ldr	r3, [pc, #100]	; (8000bc0 <MX_GPIO_Init+0xd8>)
 8000b5a:	f8d3 30e0 	ldr.w	r3, [r3, #224]	; 0xe0
 8000b5e:	4a18      	ldr	r2, [pc, #96]	; (8000bc0 <MX_GPIO_Init+0xd8>)
 8000b60:	f043 0301 	orr.w	r3, r3, #1
 8000b64:	f8c2 30e0 	str.w	r3, [r2, #224]	; 0xe0
 8000b68:	4b15      	ldr	r3, [pc, #84]	; (8000bc0 <MX_GPIO_Init+0xd8>)
 8000b6a:	f8d3 30e0 	ldr.w	r3, [r3, #224]	; 0xe0
 8000b6e:	f003 0301 	and.w	r3, r3, #1
 8000b72:	607b      	str	r3, [r7, #4]
 8000b74:	687b      	ldr	r3, [r7, #4]

  /*Configure GPIO pin Output Level */
  HAL_GPIO_WritePin(LED1_GPIO_Port, LED1_Pin, GPIO_PIN_RESET);
 8000b76:	2200      	movs	r2, #0
 8000b78:	2101      	movs	r1, #1
 8000b7a:	4812      	ldr	r0, [pc, #72]	; (8000bc4 <MX_GPIO_Init+0xdc>)
 8000b7c:	f000 ff34 	bl	80019e8 <HAL_GPIO_WritePin>

  /*Configure GPIO pin : PtPin */
  GPIO_InitStruct.Pin = KEY2_Pin;
 8000b80:	f44f 5300 	mov.w	r3, #8192	; 0x2000
 8000b84:	617b      	str	r3, [r7, #20]
  GPIO_InitStruct.Mode = GPIO_MODE_INPUT;
 8000b86:	2300      	movs	r3, #0
 8000b88:	61bb      	str	r3, [r7, #24]
  GPIO_InitStruct.Pull = GPIO_NOPULL;
 8000b8a:	2300      	movs	r3, #0
 8000b8c:	61fb      	str	r3, [r7, #28]
  HAL_GPIO_Init(KEY2_GPIO_Port, &GPIO_InitStruct);
 8000b8e:	f107 0314 	add.w	r3, r7, #20
 8000b92:	4619      	mov	r1, r3
 8000b94:	480c      	ldr	r0, [pc, #48]	; (8000bc8 <MX_GPIO_Init+0xe0>)
 8000b96:	f000 fd5f 	bl	8001658 <HAL_GPIO_Init>

  /*Configure GPIO pin : PtPin */
  GPIO_InitStruct.Pin = LED1_Pin;
 8000b9a:	2301      	movs	r3, #1
 8000b9c:	617b      	str	r3, [r7, #20]
  GPIO_InitStruct.Mode = GPIO_MODE_OUTPUT_PP;
 8000b9e:	2301      	movs	r3, #1
 8000ba0:	61bb      	str	r3, [r7, #24]
  GPIO_InitStruct.Pull = GPIO_NOPULL;
 8000ba2:	2300      	movs	r3, #0
 8000ba4:	61fb      	str	r3, [r7, #28]
  GPIO_InitStruct.Speed = GPIO_SPEED_FREQ_LOW;
 8000ba6:	2300      	movs	r3, #0
 8000ba8:	623b      	str	r3, [r7, #32]
  HAL_GPIO_Init(LED1_GPIO_Port, &GPIO_InitStruct);
 8000baa:	f107 0314 	add.w	r3, r7, #20
 8000bae:	4619      	mov	r1, r3
 8000bb0:	4804      	ldr	r0, [pc, #16]	; (8000bc4 <MX_GPIO_Init+0xdc>)
 8000bb2:	f000 fd51 	bl	8001658 <HAL_GPIO_Init>

}
 8000bb6:	bf00      	nop
 8000bb8:	3728      	adds	r7, #40	; 0x28
 8000bba:	46bd      	mov	sp, r7
 8000bbc:	bd80      	pop	{r7, pc}
 8000bbe:	bf00      	nop
 8000bc0:	58024400 	.word	0x58024400
 8000bc4:	58020400 	.word	0x58020400
 8000bc8:	58020800 	.word	0x58020800

08000bcc <__io_putchar>:
/* USER CODE END PFP */

/* Private user code ---------------------------------------------------------*/
/* USER CODE BEGIN 0 */
int __io_putchar(int ch)
{
 8000bcc:	b480      	push	{r7}
 8000bce:	b083      	sub	sp, #12
 8000bd0:	af00      	add	r7, sp, #0
 8000bd2:	6078      	str	r0, [r7, #4]

	while(!(USART1->ISR&0X0040));
 8000bd4:	bf00      	nop
 8000bd6:	4b08      	ldr	r3, [pc, #32]	; (8000bf8 <__io_putchar+0x2c>)
 8000bd8:	69db      	ldr	r3, [r3, #28]
 8000bda:	f003 0340 	and.w	r3, r3, #64	; 0x40
 8000bde:	2b00      	cmp	r3, #0
 8000be0:	d0f9      	beq.n	8000bd6 <__io_putchar+0xa>
	USART1->TDR=ch;
 8000be2:	4a05      	ldr	r2, [pc, #20]	; (8000bf8 <__io_putchar+0x2c>)
 8000be4:	687b      	ldr	r3, [r7, #4]
 8000be6:	6293      	str	r3, [r2, #40]	; 0x28
	return ch;
 8000be8:	687b      	ldr	r3, [r7, #4]
}
 8000bea:	4618      	mov	r0, r3
 8000bec:	370c      	adds	r7, #12
 8000bee:	46bd      	mov	sp, r7
 8000bf0:	f85d 7b04 	ldr.w	r7, [sp], #4
 8000bf4:	4770      	bx	lr
 8000bf6:	bf00      	nop
 8000bf8:	40011000 	.word	0x40011000

08000bfc <main>:
/**
  * @brief  The application entry point.
  * @retval int
  */
int main(void)
{
 8000bfc:	b5b0      	push	{r4, r5, r7, lr}
 8000bfe:	b092      	sub	sp, #72	; 0x48
 8000c00:	af00      	add	r7, sp, #0
  /* USER CODE END 1 */

  /* MCU Configuration--------------------------------------------------------*/

  /* Reset of all peripherals, Initializes the Flash interface and the Systick. */
  HAL_Init();
 8000c02:	f000 fb57 	bl	80012b4 <HAL_Init>

  /* USER CODE BEGIN Init */
  /* USER CODE END Init */

  /* Configure the system clock */
  SystemClock_Config();
 8000c06:	f000 f857 	bl	8000cb8 <SystemClock_Config>
  /* USER CODE BEGIN SysInit */

  /* USER CODE END SysInit */

  /* Initialize all configured peripherals */
  MX_GPIO_Init();
 8000c0a:	f7ff ff6d 	bl	8000ae8 <MX_GPIO_Init>
  MX_USART1_UART_Init();
 8000c0e:	f000 fa71 	bl	80010f4 <MX_USART1_UART_Init>
  MX_USB_DEVICE_Init();
 8000c12:	f009 fb2f 	bl	800a274 <MX_USB_DEVICE_Init>
  /* USER CODE BEGIN 2 */
  printf("init ok\n");
 8000c16:	4822      	ldr	r0, [pc, #136]	; (8000ca0 <main+0xa4>)
 8000c18:	f00a ff4e 	bl	800bab8 <puts>
  uint8_t txbuff[64]="jump into application!\n";
 8000c1c:	4b21      	ldr	r3, [pc, #132]	; (8000ca4 <main+0xa8>)
 8000c1e:	1d3c      	adds	r4, r7, #4
 8000c20:	461d      	mov	r5, r3
 8000c22:	6828      	ldr	r0, [r5, #0]
 8000c24:	6869      	ldr	r1, [r5, #4]
 8000c26:	68aa      	ldr	r2, [r5, #8]
 8000c28:	68eb      	ldr	r3, [r5, #12]
 8000c2a:	c40f      	stmia	r4!, {r0, r1, r2, r3}
 8000c2c:	6928      	ldr	r0, [r5, #16]
 8000c2e:	6969      	ldr	r1, [r5, #20]
 8000c30:	c403      	stmia	r4!, {r0, r1}
 8000c32:	f107 031c 	add.w	r3, r7, #28
 8000c36:	2228      	movs	r2, #40	; 0x28
 8000c38:	2100      	movs	r1, #0
 8000c3a:	4618      	mov	r0, r3
 8000c3c:	f00b f83c 	bl	800bcb8 <memset>
  while (1)
  {
    /* USER CODE END WHILE */

    /* USER CODE BEGIN 3 */
	  if(HAL_GPIO_ReadPin( KEY2_GPIO_Port,  KEY2_Pin)==0)
 8000c40:	f44f 5100 	mov.w	r1, #8192	; 0x2000
 8000c44:	4818      	ldr	r0, [pc, #96]	; (8000ca8 <main+0xac>)
 8000c46:	f000 feb7 	bl	80019b8 <HAL_GPIO_ReadPin>
 8000c4a:	4603      	mov	r3, r0
 8000c4c:	2b00      	cmp	r3, #0
 8000c4e:	d1f7      	bne.n	8000c40 <main+0x44>
	  {
		  HAL_Delay(300);
 8000c50:	f44f 7096 	mov.w	r0, #300	; 0x12c
 8000c54:	f000 fbc0 	bl	80013d8 <HAL_Delay>
		  if(HAL_GPIO_ReadPin( KEY2_GPIO_Port,  KEY2_Pin)==0)
 8000c58:	f44f 5100 	mov.w	r1, #8192	; 0x2000
 8000c5c:	4812      	ldr	r0, [pc, #72]	; (8000ca8 <main+0xac>)
 8000c5e:	f000 feab 	bl	80019b8 <HAL_GPIO_ReadPin>
 8000c62:	4603      	mov	r3, r0
 8000c64:	2b00      	cmp	r3, #0
 8000c66:	d1eb      	bne.n	8000c40 <main+0x44>
		  {
			  while(1)
			  {
				  uint8_t level_pin=HAL_GPIO_ReadPin( KEY2_GPIO_Port,  KEY2_Pin);
 8000c68:	f44f 5100 	mov.w	r1, #8192	; 0x2000
 8000c6c:	480e      	ldr	r0, [pc, #56]	; (8000ca8 <main+0xac>)
 8000c6e:	f000 fea3 	bl	80019b8 <HAL_GPIO_ReadPin>
 8000c72:	4603      	mov	r3, r0
 8000c74:	f887 3047 	strb.w	r3, [r7, #71]	; 0x47
				  if(level_pin!=0)
 8000c78:	f897 3047 	ldrb.w	r3, [r7, #71]	; 0x47
 8000c7c:	2b00      	cmp	r3, #0
 8000c7e:	d100      	bne.n	8000c82 <main+0x86>
			  {
 8000c80:	e7f2      	b.n	8000c68 <main+0x6c>
				  {
					  break;
 8000c82:	bf00      	nop
				  }
			  }
			  USBD_CUSTOM_HID_SendReport(&hUsbDeviceFS,txbuff,64);
 8000c84:	1d3b      	adds	r3, r7, #4
 8000c86:	2240      	movs	r2, #64	; 0x40
 8000c88:	4619      	mov	r1, r3
 8000c8a:	4808      	ldr	r0, [pc, #32]	; (8000cac <main+0xb0>)
 8000c8c:	f007 fe46 	bl	800891c <USBD_CUSTOM_HID_SendReport>
			  printf("KEY2 Press \n");
 8000c90:	4807      	ldr	r0, [pc, #28]	; (8000cb0 <main+0xb4>)
 8000c92:	f00a ff11 	bl	800bab8 <puts>


			   boot_jump_app(JUMP_APP_ADDR);
 8000c96:	4807      	ldr	r0, [pc, #28]	; (8000cb4 <main+0xb8>)
 8000c98:	f7ff feec 	bl	8000a74 <boot_jump_app>
	  if(HAL_GPIO_ReadPin( KEY2_GPIO_Port,  KEY2_Pin)==0)
 8000c9c:	e7d0      	b.n	8000c40 <main+0x44>
 8000c9e:	bf00      	nop
 8000ca0:	0800f288 	.word	0x0800f288
 8000ca4:	0800f29c 	.word	0x0800f29c
 8000ca8:	58020800 	.word	0x58020800
 8000cac:	24000398 	.word	0x24000398
 8000cb0:	0800f290 	.word	0x0800f290
 8000cb4:	08020000 	.word	0x08020000

08000cb8 <SystemClock_Config>:
/**
  * @brief System Clock Configuration
  * @retval None
  */
void SystemClock_Config(void)
{
 8000cb8:	b580      	push	{r7, lr}
 8000cba:	b09c      	sub	sp, #112	; 0x70
 8000cbc:	af00      	add	r7, sp, #0
  RCC_OscInitTypeDef RCC_OscInitStruct = {0};
 8000cbe:	f107 0324 	add.w	r3, r7, #36	; 0x24
 8000cc2:	224c      	movs	r2, #76	; 0x4c
 8000cc4:	2100      	movs	r1, #0
 8000cc6:	4618      	mov	r0, r3
 8000cc8:	f00a fff6 	bl	800bcb8 <memset>
  RCC_ClkInitTypeDef RCC_ClkInitStruct = {0};
 8000ccc:	1d3b      	adds	r3, r7, #4
 8000cce:	2220      	movs	r2, #32
 8000cd0:	2100      	movs	r1, #0
 8000cd2:	4618      	mov	r0, r3
 8000cd4:	f00a fff0 	bl	800bcb8 <memset>

  /** Supply configuration update enable
  */
  HAL_PWREx_ConfigSupply(PWR_LDO_SUPPLY);
 8000cd8:	2002      	movs	r0, #2
 8000cda:	f002 f957 	bl	8002f8c <HAL_PWREx_ConfigSupply>

  /** Configure the main internal regulator output voltage
  */
  __HAL_PWR_VOLTAGESCALING_CONFIG(PWR_REGULATOR_VOLTAGE_SCALE1);
 8000cde:	2300      	movs	r3, #0
 8000ce0:	603b      	str	r3, [r7, #0]
 8000ce2:	4b31      	ldr	r3, [pc, #196]	; (8000da8 <SystemClock_Config+0xf0>)
 8000ce4:	6adb      	ldr	r3, [r3, #44]	; 0x2c
 8000ce6:	4a30      	ldr	r2, [pc, #192]	; (8000da8 <SystemClock_Config+0xf0>)
 8000ce8:	f023 0301 	bic.w	r3, r3, #1
 8000cec:	62d3      	str	r3, [r2, #44]	; 0x2c
 8000cee:	4b2e      	ldr	r3, [pc, #184]	; (8000da8 <SystemClock_Config+0xf0>)
 8000cf0:	6adb      	ldr	r3, [r3, #44]	; 0x2c
 8000cf2:	f003 0301 	and.w	r3, r3, #1
 8000cf6:	603b      	str	r3, [r7, #0]
 8000cf8:	4b2c      	ldr	r3, [pc, #176]	; (8000dac <SystemClock_Config+0xf4>)
 8000cfa:	699b      	ldr	r3, [r3, #24]
 8000cfc:	4a2b      	ldr	r2, [pc, #172]	; (8000dac <SystemClock_Config+0xf4>)
 8000cfe:	f443 4340 	orr.w	r3, r3, #49152	; 0xc000
 8000d02:	6193      	str	r3, [r2, #24]
 8000d04:	4b29      	ldr	r3, [pc, #164]	; (8000dac <SystemClock_Config+0xf4>)
 8000d06:	699b      	ldr	r3, [r3, #24]
 8000d08:	f403 4340 	and.w	r3, r3, #49152	; 0xc000
 8000d0c:	603b      	str	r3, [r7, #0]
 8000d0e:	683b      	ldr	r3, [r7, #0]

  while(!__HAL_PWR_GET_FLAG(PWR_FLAG_VOSRDY)) {}
 8000d10:	bf00      	nop
 8000d12:	4b26      	ldr	r3, [pc, #152]	; (8000dac <SystemClock_Config+0xf4>)
 8000d14:	699b      	ldr	r3, [r3, #24]
 8000d16:	f403 5300 	and.w	r3, r3, #8192	; 0x2000
 8000d1a:	f5b3 5f00 	cmp.w	r3, #8192	; 0x2000
 8000d1e:	d1f8      	bne.n	8000d12 <SystemClock_Config+0x5a>

  /** Initializes the RCC Oscillators according to the specified parameters
  * in the RCC_OscInitTypeDef structure.
  */
  RCC_OscInitStruct.OscillatorType = RCC_OSCILLATORTYPE_HSI48|RCC_OSCILLATORTYPE_HSE;
 8000d20:	2321      	movs	r3, #33	; 0x21
 8000d22:	627b      	str	r3, [r7, #36]	; 0x24
  RCC_OscInitStruct.HSEState = RCC_HSE_ON;
 8000d24:	f44f 3380 	mov.w	r3, #65536	; 0x10000
 8000d28:	62bb      	str	r3, [r7, #40]	; 0x28
  RCC_OscInitStruct.HSI48State = RCC_HSI48_ON;
 8000d2a:	2301      	movs	r3, #1
 8000d2c:	63fb      	str	r3, [r7, #60]	; 0x3c
  RCC_OscInitStruct.PLL.PLLState = RCC_PLL_ON;
 8000d2e:	2302      	movs	r3, #2
 8000d30:	64bb      	str	r3, [r7, #72]	; 0x48
  RCC_OscInitStruct.PLL.PLLSource = RCC_PLLSOURCE_HSE;
 8000d32:	2302      	movs	r3, #2
 8000d34:	64fb      	str	r3, [r7, #76]	; 0x4c
  RCC_OscInitStruct.PLL.PLLM = 2;
 8000d36:	2302      	movs	r3, #2
 8000d38:	653b      	str	r3, [r7, #80]	; 0x50
  RCC_OscInitStruct.PLL.PLLN = 64;
 8000d3a:	2340      	movs	r3, #64	; 0x40
 8000d3c:	657b      	str	r3, [r7, #84]	; 0x54
  RCC_OscInitStruct.PLL.PLLP = 2;
 8000d3e:	2302      	movs	r3, #2
 8000d40:	65bb      	str	r3, [r7, #88]	; 0x58
  RCC_OscInitStruct.PLL.PLLQ = 2;
 8000d42:	2302      	movs	r3, #2
 8000d44:	65fb      	str	r3, [r7, #92]	; 0x5c
  RCC_OscInitStruct.PLL.PLLR = 2;
 8000d46:	2302      	movs	r3, #2
 8000d48:	663b      	str	r3, [r7, #96]	; 0x60
  RCC_OscInitStruct.PLL.PLLRGE = RCC_PLL1VCIRANGE_3;
 8000d4a:	230c      	movs	r3, #12
 8000d4c:	667b      	str	r3, [r7, #100]	; 0x64
  RCC_OscInitStruct.PLL.PLLVCOSEL = RCC_PLL1VCOWIDE;
 8000d4e:	2300      	movs	r3, #0
 8000d50:	66bb      	str	r3, [r7, #104]	; 0x68
  RCC_OscInitStruct.PLL.PLLFRACN = 0;
 8000d52:	2300      	movs	r3, #0
 8000d54:	66fb      	str	r3, [r7, #108]	; 0x6c
  if (HAL_RCC_OscConfig(&RCC_OscInitStruct) != HAL_OK)
 8000d56:	f107 0324 	add.w	r3, r7, #36	; 0x24
 8000d5a:	4618      	mov	r0, r3
 8000d5c:	f002 f960 	bl	8003020 <HAL_RCC_OscConfig>
 8000d60:	4603      	mov	r3, r0
 8000d62:	2b00      	cmp	r3, #0
 8000d64:	d001      	beq.n	8000d6a <SystemClock_Config+0xb2>
  {
    Error_Handler();
 8000d66:	f000 f823 	bl	8000db0 <Error_Handler>
  }

  /** Initializes the CPU, AHB and APB buses clocks
  */
  RCC_ClkInitStruct.ClockType = RCC_CLOCKTYPE_HCLK|RCC_CLOCKTYPE_SYSCLK
 8000d6a:	233f      	movs	r3, #63	; 0x3f
 8000d6c:	607b      	str	r3, [r7, #4]
                              |RCC_CLOCKTYPE_PCLK1|RCC_CLOCKTYPE_PCLK2
                              |RCC_CLOCKTYPE_D3PCLK1|RCC_CLOCKTYPE_D1PCLK1;
  RCC_ClkInitStruct.SYSCLKSource = RCC_SYSCLKSOURCE_PLLCLK;
 8000d6e:	2303      	movs	r3, #3
 8000d70:	60bb      	str	r3, [r7, #8]
  RCC_ClkInitStruct.SYSCLKDivider = RCC_SYSCLK_DIV1;
 8000d72:	2300      	movs	r3, #0
 8000d74:	60fb      	str	r3, [r7, #12]
  RCC_ClkInitStruct.AHBCLKDivider = RCC_HCLK_DIV2;
 8000d76:	2308      	movs	r3, #8
 8000d78:	613b      	str	r3, [r7, #16]
  RCC_ClkInitStruct.APB3CLKDivider = RCC_APB3_DIV2;
 8000d7a:	2340      	movs	r3, #64	; 0x40
 8000d7c:	617b      	str	r3, [r7, #20]
  RCC_ClkInitStruct.APB1CLKDivider = RCC_APB1_DIV2;
 8000d7e:	2340      	movs	r3, #64	; 0x40
 8000d80:	61bb      	str	r3, [r7, #24]
  RCC_ClkInitStruct.APB2CLKDivider = RCC_APB2_DIV2;
 8000d82:	f44f 6380 	mov.w	r3, #1024	; 0x400
 8000d86:	61fb      	str	r3, [r7, #28]
  RCC_ClkInitStruct.APB4CLKDivider = RCC_APB4_DIV2;
 8000d88:	2340      	movs	r3, #64	; 0x40
 8000d8a:	623b      	str	r3, [r7, #32]

  if (HAL_RCC_ClockConfig(&RCC_ClkInitStruct, FLASH_LATENCY_2) != HAL_OK)
 8000d8c:	1d3b      	adds	r3, r7, #4
 8000d8e:	2102      	movs	r1, #2
 8000d90:	4618      	mov	r0, r3
 8000d92:	f002 fd9f 	bl	80038d4 <HAL_RCC_ClockConfig>
 8000d96:	4603      	mov	r3, r0
 8000d98:	2b00      	cmp	r3, #0
 8000d9a:	d001      	beq.n	8000da0 <SystemClock_Config+0xe8>
  {
    Error_Handler();
 8000d9c:	f000 f808 	bl	8000db0 <Error_Handler>
  }
}
 8000da0:	bf00      	nop
 8000da2:	3770      	adds	r7, #112	; 0x70
 8000da4:	46bd      	mov	sp, r7
 8000da6:	bd80      	pop	{r7, pc}
 8000da8:	58000400 	.word	0x58000400
 8000dac:	58024800 	.word	0x58024800

08000db0 <Error_Handler>:
/**
  * @brief  This function is executed in case of error occurrence.
  * @retval None
  */
void Error_Handler(void)
{
 8000db0:	b480      	push	{r7}
 8000db2:	af00      	add	r7, sp, #0
  __ASM volatile ("cpsid i" : : : "memory");
 8000db4:	b672      	cpsid	i
}
 8000db6:	bf00      	nop
  /* USER CODE BEGIN Error_Handler_Debug */
  /* User can add his own implementation to report the HAL error return state */
  __disable_irq();
  while (1)
 8000db8:	e7fe      	b.n	8000db8 <Error_Handler+0x8>
	...

08000dbc <HAL_MspInit>:
/* USER CODE END 0 */
/**
  * Initializes the Global MSP.
  */
void HAL_MspInit(void)
{
 8000dbc:	b480      	push	{r7}
 8000dbe:	b083      	sub	sp, #12
 8000dc0:	af00      	add	r7, sp, #0
  /* USER CODE BEGIN MspInit 0 */

  /* USER CODE END MspInit 0 */

  __HAL_RCC_SYSCFG_CLK_ENABLE();
 8000dc2:	4b0a      	ldr	r3, [pc, #40]	; (8000dec <HAL_MspInit+0x30>)
 8000dc4:	f8d3 30f4 	ldr.w	r3, [r3, #244]	; 0xf4
 8000dc8:	4a08      	ldr	r2, [pc, #32]	; (8000dec <HAL_MspInit+0x30>)
 8000dca:	f043 0302 	orr.w	r3, r3, #2
 8000dce:	f8c2 30f4 	str.w	r3, [r2, #244]	; 0xf4
 8000dd2:	4b06      	ldr	r3, [pc, #24]	; (8000dec <HAL_MspInit+0x30>)
 8000dd4:	f8d3 30f4 	ldr.w	r3, [r3, #244]	; 0xf4
 8000dd8:	f003 0302 	and.w	r3, r3, #2
 8000ddc:	607b      	str	r3, [r7, #4]
 8000dde:	687b      	ldr	r3, [r7, #4]
  /* System interrupt init*/

  /* USER CODE BEGIN MspInit 1 */

  /* USER CODE END MspInit 1 */
}
 8000de0:	bf00      	nop
 8000de2:	370c      	adds	r7, #12
 8000de4:	46bd      	mov	sp, r7
 8000de6:	f85d 7b04 	ldr.w	r7, [sp], #4
 8000dea:	4770      	bx	lr
 8000dec:	58024400 	.word	0x58024400

08000df0 <NMI_Handler>:
/******************************************************************************/
/**
  * @brief This function handles Non maskable interrupt.
  */
void NMI_Handler(void)
{
 8000df0:	b480      	push	{r7}
 8000df2:	af00      	add	r7, sp, #0
  /* USER CODE BEGIN NonMaskableInt_IRQn 0 */

  /* USER CODE END NonMaskableInt_IRQn 0 */
  /* USER CODE BEGIN NonMaskableInt_IRQn 1 */
  while (1)
 8000df4:	e7fe      	b.n	8000df4 <NMI_Handler+0x4>

08000df6 <HardFault_Handler>:

/**
  * @brief This function handles Hard fault interrupt.
  */
void HardFault_Handler(void)
{
 8000df6:	b480      	push	{r7}
 8000df8:	af00      	add	r7, sp, #0
  /* USER CODE BEGIN HardFault_IRQn 0 */

  /* USER CODE END HardFault_IRQn 0 */
  while (1)
 8000dfa:	e7fe      	b.n	8000dfa <HardFault_Handler+0x4>

08000dfc <MemManage_Handler>:

/**
  * @brief This function handles Memory management fault.
  */
void MemManage_Handler(void)
{
 8000dfc:	b480      	push	{r7}
 8000dfe:	af00      	add	r7, sp, #0
  /* USER CODE BEGIN MemoryManagement_IRQn 0 */

  /* USER CODE END MemoryManagement_IRQn 0 */
  while (1)
 8000e00:	e7fe      	b.n	8000e00 <MemManage_Handler+0x4>

08000e02 <BusFault_Handler>:

/**
  * @brief This function handles Pre-fetch fault, memory access fault.
  */
void BusFault_Handler(void)
{
 8000e02:	b480      	push	{r7}
 8000e04:	af00      	add	r7, sp, #0
  /* USER CODE BEGIN BusFault_IRQn 0 */

  /* USER CODE END BusFault_IRQn 0 */
  while (1)
 8000e06:	e7fe      	b.n	8000e06 <BusFault_Handler+0x4>

08000e08 <UsageFault_Handler>:

/**
  * @brief This function handles Undefined instruction or illegal state.
  */
void UsageFault_Handler(void)
{
 8000e08:	b480      	push	{r7}
 8000e0a:	af00      	add	r7, sp, #0
  /* USER CODE BEGIN UsageFault_IRQn 0 */

  /* USER CODE END UsageFault_IRQn 0 */
  while (1)
 8000e0c:	e7fe      	b.n	8000e0c <UsageFault_Handler+0x4>

08000e0e <SVC_Handler>:

/**
  * @brief This function handles System service call via SWI instruction.
  */
void SVC_Handler(void)
{
 8000e0e:	b480      	push	{r7}
 8000e10:	af00      	add	r7, sp, #0

  /* USER CODE END SVCall_IRQn 0 */
  /* USER CODE BEGIN SVCall_IRQn 1 */

  /* USER CODE END SVCall_IRQn 1 */
}
 8000e12:	bf00      	nop
 8000e14:	46bd      	mov	sp, r7
 8000e16:	f85d 7b04 	ldr.w	r7, [sp], #4
 8000e1a:	4770      	bx	lr

08000e1c <DebugMon_Handler>:

/**
  * @brief This function handles Debug monitor.
  */
void DebugMon_Handler(void)
{
 8000e1c:	b480      	push	{r7}
 8000e1e:	af00      	add	r7, sp, #0

  /* USER CODE END DebugMonitor_IRQn 0 */
  /* USER CODE BEGIN DebugMonitor_IRQn 1 */

  /* USER CODE END DebugMonitor_IRQn 1 */
}
 8000e20:	bf00      	nop
 8000e22:	46bd      	mov	sp, r7
 8000e24:	f85d 7b04 	ldr.w	r7, [sp], #4
 8000e28:	4770      	bx	lr

08000e2a <PendSV_Handler>:

/**
  * @brief This function handles Pendable request for system service.
  */
void PendSV_Handler(void)
{
 8000e2a:	b480      	push	{r7}
 8000e2c:	af00      	add	r7, sp, #0

  /* USER CODE END PendSV_IRQn 0 */
  /* USER CODE BEGIN PendSV_IRQn 1 */

  /* USER CODE END PendSV_IRQn 1 */
}
 8000e2e:	bf00      	nop
 8000e30:	46bd      	mov	sp, r7
 8000e32:	f85d 7b04 	ldr.w	r7, [sp], #4
 8000e36:	4770      	bx	lr

08000e38 <SysTick_Handler>:

/**
  * @brief This function handles System tick timer.
  */
void SysTick_Handler(void)
{
 8000e38:	b580      	push	{r7, lr}
 8000e3a:	af00      	add	r7, sp, #0
  /* USER CODE BEGIN SysTick_IRQn 0 */

  /* USER CODE END SysTick_IRQn 0 */
  HAL_IncTick();
 8000e3c:	f000 faac 	bl	8001398 <HAL_IncTick>
  /* USER CODE BEGIN SysTick_IRQn 1 */

  /* USER CODE END SysTick_IRQn 1 */
}
 8000e40:	bf00      	nop
 8000e42:	bd80      	pop	{r7, pc}

08000e44 <OTG_FS_IRQHandler>:

/**
  * @brief This function handles USB On The Go FS global interrupt.
  */
void OTG_FS_IRQHandler(void)
{
 8000e44:	b580      	push	{r7, lr}
 8000e46:	af00      	add	r7, sp, #0
  /* USER CODE BEGIN OTG_FS_IRQn 0 */

  /* USER CODE END OTG_FS_IRQn 0 */
  HAL_PCD_IRQHandler(&hpcd_USB_OTG_FS);
 8000e48:	4802      	ldr	r0, [pc, #8]	; (8000e54 <OTG_FS_IRQHandler+0x10>)
 8000e4a:	f000 ff3f 	bl	8001ccc <HAL_PCD_IRQHandler>
  /* USER CODE BEGIN OTG_FS_IRQn 1 */

  /* USER CODE END OTG_FS_IRQn 1 */
}
 8000e4e:	bf00      	nop
 8000e50:	bd80      	pop	{r7, pc}
 8000e52:	bf00      	nop
 8000e54:	24000874 	.word	0x24000874

08000e58 <_getpid>:
void initialise_monitor_handles()
{
}

int _getpid(void)
{
 8000e58:	b480      	push	{r7}
 8000e5a:	af00      	add	r7, sp, #0
  return 1;
 8000e5c:	2301      	movs	r3, #1
}
 8000e5e:	4618      	mov	r0, r3
 8000e60:	46bd      	mov	sp, r7
 8000e62:	f85d 7b04 	ldr.w	r7, [sp], #4
 8000e66:	4770      	bx	lr

08000e68 <_kill>:

int _kill(int pid, int sig)
{
 8000e68:	b580      	push	{r7, lr}
 8000e6a:	b082      	sub	sp, #8
 8000e6c:	af00      	add	r7, sp, #0
 8000e6e:	6078      	str	r0, [r7, #4]
 8000e70:	6039      	str	r1, [r7, #0]
  (void)pid;
  (void)sig;
  errno = EINVAL;
 8000e72:	f00a ff73 	bl	800bd5c <__errno>
 8000e76:	4603      	mov	r3, r0
 8000e78:	2216      	movs	r2, #22
 8000e7a:	601a      	str	r2, [r3, #0]
  return -1;
 8000e7c:	f04f 33ff 	mov.w	r3, #4294967295
}
 8000e80:	4618      	mov	r0, r3
 8000e82:	3708      	adds	r7, #8
 8000e84:	46bd      	mov	sp, r7
 8000e86:	bd80      	pop	{r7, pc}

08000e88 <_exit>:

void _exit (int status)
{
 8000e88:	b580      	push	{r7, lr}
 8000e8a:	b082      	sub	sp, #8
 8000e8c:	af00      	add	r7, sp, #0
 8000e8e:	6078      	str	r0, [r7, #4]
  _kill(status, -1);
 8000e90:	f04f 31ff 	mov.w	r1, #4294967295
 8000e94:	6878      	ldr	r0, [r7, #4]
 8000e96:	f7ff ffe7 	bl	8000e68 <_kill>
  while (1) {}    /* Make sure we hang here */
 8000e9a:	e7fe      	b.n	8000e9a <_exit+0x12>

08000e9c <_read>:
}

__attribute__((weak)) int _read(int file, char *ptr, int len)
{
 8000e9c:	b580      	push	{r7, lr}
 8000e9e:	b086      	sub	sp, #24
 8000ea0:	af00      	add	r7, sp, #0
 8000ea2:	60f8      	str	r0, [r7, #12]
 8000ea4:	60b9      	str	r1, [r7, #8]
 8000ea6:	607a      	str	r2, [r7, #4]
  (void)file;
  int DataIdx;

  for (DataIdx = 0; DataIdx < len; DataIdx++)
 8000ea8:	2300      	movs	r3, #0
 8000eaa:	617b      	str	r3, [r7, #20]
 8000eac:	e00a      	b.n	8000ec4 <_read+0x28>
  {
    *ptr++ = __io_getchar();
 8000eae:	f3af 8000 	nop.w
 8000eb2:	4601      	mov	r1, r0
 8000eb4:	68bb      	ldr	r3, [r7, #8]
 8000eb6:	1c5a      	adds	r2, r3, #1
 8000eb8:	60ba      	str	r2, [r7, #8]
 8000eba:	b2ca      	uxtb	r2, r1
 8000ebc:	701a      	strb	r2, [r3, #0]
  for (DataIdx = 0; DataIdx < len; DataIdx++)
 8000ebe:	697b      	ldr	r3, [r7, #20]
 8000ec0:	3301      	adds	r3, #1
 8000ec2:	617b      	str	r3, [r7, #20]
 8000ec4:	697a      	ldr	r2, [r7, #20]
 8000ec6:	687b      	ldr	r3, [r7, #4]
 8000ec8:	429a      	cmp	r2, r3
 8000eca:	dbf0      	blt.n	8000eae <_read+0x12>
  }

  return len;
 8000ecc:	687b      	ldr	r3, [r7, #4]
}
 8000ece:	4618      	mov	r0, r3
 8000ed0:	3718      	adds	r7, #24
 8000ed2:	46bd      	mov	sp, r7
 8000ed4:	bd80      	pop	{r7, pc}

08000ed6 <_write>:

__attribute__((weak)) int _write(int file, char *ptr, int len)
{
 8000ed6:	b580      	push	{r7, lr}
 8000ed8:	b086      	sub	sp, #24
 8000eda:	af00      	add	r7, sp, #0
 8000edc:	60f8      	str	r0, [r7, #12]
 8000ede:	60b9      	str	r1, [r7, #8]
 8000ee0:	607a      	str	r2, [r7, #4]
  (void)file;
  int DataIdx;

  for (DataIdx = 0; DataIdx < len; DataIdx++)
 8000ee2:	2300      	movs	r3, #0
 8000ee4:	617b      	str	r3, [r7, #20]
 8000ee6:	e009      	b.n	8000efc <_write+0x26>
  {
    __io_putchar(*ptr++);
 8000ee8:	68bb      	ldr	r3, [r7, #8]
 8000eea:	1c5a      	adds	r2, r3, #1
 8000eec:	60ba      	str	r2, [r7, #8]
 8000eee:	781b      	ldrb	r3, [r3, #0]
 8000ef0:	4618      	mov	r0, r3
 8000ef2:	f7ff fe6b 	bl	8000bcc <__io_putchar>
  for (DataIdx = 0; DataIdx < len; DataIdx++)
 8000ef6:	697b      	ldr	r3, [r7, #20]
 8000ef8:	3301      	adds	r3, #1
 8000efa:	617b      	str	r3, [r7, #20]
 8000efc:	697a      	ldr	r2, [r7, #20]
 8000efe:	687b      	ldr	r3, [r7, #4]
 8000f00:	429a      	cmp	r2, r3
 8000f02:	dbf1      	blt.n	8000ee8 <_write+0x12>
  }
  return len;
 8000f04:	687b      	ldr	r3, [r7, #4]
}
 8000f06:	4618      	mov	r0, r3
 8000f08:	3718      	adds	r7, #24
 8000f0a:	46bd      	mov	sp, r7
 8000f0c:	bd80      	pop	{r7, pc}

08000f0e <_close>:

int _close(int file)
{
 8000f0e:	b480      	push	{r7}
 8000f10:	b083      	sub	sp, #12
 8000f12:	af00      	add	r7, sp, #0
 8000f14:	6078      	str	r0, [r7, #4]
  (void)file;
  return -1;
 8000f16:	f04f 33ff 	mov.w	r3, #4294967295
}
 8000f1a:	4618      	mov	r0, r3
 8000f1c:	370c      	adds	r7, #12
 8000f1e:	46bd      	mov	sp, r7
 8000f20:	f85d 7b04 	ldr.w	r7, [sp], #4
 8000f24:	4770      	bx	lr

08000f26 <_fstat>:


int _fstat(int file, struct stat *st)
{
 8000f26:	b480      	push	{r7}
 8000f28:	b083      	sub	sp, #12
 8000f2a:	af00      	add	r7, sp, #0
 8000f2c:	6078      	str	r0, [r7, #4]
 8000f2e:	6039      	str	r1, [r7, #0]
  (void)file;
  st->st_mode = S_IFCHR;
 8000f30:	683b      	ldr	r3, [r7, #0]
 8000f32:	f44f 5200 	mov.w	r2, #8192	; 0x2000
 8000f36:	605a      	str	r2, [r3, #4]
  return 0;
 8000f38:	2300      	movs	r3, #0
}
 8000f3a:	4618      	mov	r0, r3
 8000f3c:	370c      	adds	r7, #12
 8000f3e:	46bd      	mov	sp, r7
 8000f40:	f85d 7b04 	ldr.w	r7, [sp], #4
 8000f44:	4770      	bx	lr

08000f46 <_isatty>:

int _isatty(int file)
{
 8000f46:	b480      	push	{r7}
 8000f48:	b083      	sub	sp, #12
 8000f4a:	af00      	add	r7, sp, #0
 8000f4c:	6078      	str	r0, [r7, #4]
  (void)file;
  return 1;
 8000f4e:	2301      	movs	r3, #1
}
 8000f50:	4618      	mov	r0, r3
 8000f52:	370c      	adds	r7, #12
 8000f54:	46bd      	mov	sp, r7
 8000f56:	f85d 7b04 	ldr.w	r7, [sp], #4
 8000f5a:	4770      	bx	lr

08000f5c <_lseek>:

int _lseek(int file, int ptr, int dir)
{
 8000f5c:	b480      	push	{r7}
 8000f5e:	b085      	sub	sp, #20
 8000f60:	af00      	add	r7, sp, #0
 8000f62:	60f8      	str	r0, [r7, #12]
 8000f64:	60b9      	str	r1, [r7, #8]
 8000f66:	607a      	str	r2, [r7, #4]
  (void)file;
  (void)ptr;
  (void)dir;
  return 0;
 8000f68:	2300      	movs	r3, #0
}
 8000f6a:	4618      	mov	r0, r3
 8000f6c:	3714      	adds	r7, #20
 8000f6e:	46bd      	mov	sp, r7
 8000f70:	f85d 7b04 	ldr.w	r7, [sp], #4
 8000f74:	4770      	bx	lr
	...

08000f78 <_sbrk>:
 *
 * @param incr Memory size
 * @return Pointer to allocated memory
 */
void *_sbrk(ptrdiff_t incr)
{
 8000f78:	b580      	push	{r7, lr}
 8000f7a:	b086      	sub	sp, #24
 8000f7c:	af00      	add	r7, sp, #0
 8000f7e:	6078      	str	r0, [r7, #4]
  extern uint8_t _end; /* Symbol defined in the linker script */
  extern uint8_t _estack; /* Symbol defined in the linker script */
  extern uint32_t _Min_Stack_Size; /* Symbol defined in the linker script */
  const uint32_t stack_limit = (uint32_t)&_estack - (uint32_t)&_Min_Stack_Size;
 8000f80:	4a14      	ldr	r2, [pc, #80]	; (8000fd4 <_sbrk+0x5c>)
 8000f82:	4b15      	ldr	r3, [pc, #84]	; (8000fd8 <_sbrk+0x60>)
 8000f84:	1ad3      	subs	r3, r2, r3
 8000f86:	617b      	str	r3, [r7, #20]
  const uint8_t *max_heap = (uint8_t *)stack_limit;
 8000f88:	697b      	ldr	r3, [r7, #20]
 8000f8a:	613b      	str	r3, [r7, #16]
  uint8_t *prev_heap_end;

  /* Initialize heap end at first call */
  if (NULL == __sbrk_heap_end)
 8000f8c:	4b13      	ldr	r3, [pc, #76]	; (8000fdc <_sbrk+0x64>)
 8000f8e:	681b      	ldr	r3, [r3, #0]
 8000f90:	2b00      	cmp	r3, #0
 8000f92:	d102      	bne.n	8000f9a <_sbrk+0x22>
  {
    __sbrk_heap_end = &_end;
 8000f94:	4b11      	ldr	r3, [pc, #68]	; (8000fdc <_sbrk+0x64>)
 8000f96:	4a12      	ldr	r2, [pc, #72]	; (8000fe0 <_sbrk+0x68>)
 8000f98:	601a      	str	r2, [r3, #0]
  }

  /* Protect heap from growing into the reserved MSP stack */
  if (__sbrk_heap_end + incr > max_heap)
 8000f9a:	4b10      	ldr	r3, [pc, #64]	; (8000fdc <_sbrk+0x64>)
 8000f9c:	681a      	ldr	r2, [r3, #0]
 8000f9e:	687b      	ldr	r3, [r7, #4]
 8000fa0:	4413      	add	r3, r2
 8000fa2:	693a      	ldr	r2, [r7, #16]
 8000fa4:	429a      	cmp	r2, r3
 8000fa6:	d207      	bcs.n	8000fb8 <_sbrk+0x40>
  {
    errno = ENOMEM;
 8000fa8:	f00a fed8 	bl	800bd5c <__errno>
 8000fac:	4603      	mov	r3, r0
 8000fae:	220c      	movs	r2, #12
 8000fb0:	601a      	str	r2, [r3, #0]
    return (void *)-1;
 8000fb2:	f04f 33ff 	mov.w	r3, #4294967295
 8000fb6:	e009      	b.n	8000fcc <_sbrk+0x54>
  }

  prev_heap_end = __sbrk_heap_end;
 8000fb8:	4b08      	ldr	r3, [pc, #32]	; (8000fdc <_sbrk+0x64>)
 8000fba:	681b      	ldr	r3, [r3, #0]
 8000fbc:	60fb      	str	r3, [r7, #12]
  __sbrk_heap_end += incr;
 8000fbe:	4b07      	ldr	r3, [pc, #28]	; (8000fdc <_sbrk+0x64>)
 8000fc0:	681a      	ldr	r2, [r3, #0]
 8000fc2:	687b      	ldr	r3, [r7, #4]
 8000fc4:	4413      	add	r3, r2
 8000fc6:	4a05      	ldr	r2, [pc, #20]	; (8000fdc <_sbrk+0x64>)
 8000fc8:	6013      	str	r3, [r2, #0]

  return (void *)prev_heap_end;
 8000fca:	68fb      	ldr	r3, [r7, #12]
}
 8000fcc:	4618      	mov	r0, r3
 8000fce:	3718      	adds	r7, #24
 8000fd0:	46bd      	mov	sp, r7
 8000fd2:	bd80      	pop	{r7, pc}
 8000fd4:	24080000 	.word	0x24080000
 8000fd8:	00000400 	.word	0x00000400
 8000fdc:	240002f8 	.word	0x240002f8
 8000fe0:	24000f28 	.word	0x24000f28

08000fe4 <SystemInit>:
  *         configuration.
  * @param  None
  * @retval None
  */
void SystemInit (void)
{
 8000fe4:	b480      	push	{r7}
 8000fe6:	af00      	add	r7, sp, #0
 __IO uint32_t tmpreg;
#endif /* DATA_IN_D2_SRAM */

  /* FPU settings ------------------------------------------------------------*/
  #if (__FPU_PRESENT == 1) && (__FPU_USED == 1)
    SCB->CPACR |= ((3UL << (10*2))|(3UL << (11*2)));  /* set CP10 and CP11 Full Access */
 8000fe8:	4b37      	ldr	r3, [pc, #220]	; (80010c8 <SystemInit+0xe4>)
 8000fea:	f8d3 3088 	ldr.w	r3, [r3, #136]	; 0x88
 8000fee:	4a36      	ldr	r2, [pc, #216]	; (80010c8 <SystemInit+0xe4>)
 8000ff0:	f443 0370 	orr.w	r3, r3, #15728640	; 0xf00000
 8000ff4:	f8c2 3088 	str.w	r3, [r2, #136]	; 0x88
  #endif
  /* Reset the RCC clock configuration to the default reset state ------------*/

   /* Increasing the CPU frequency */
  if(FLASH_LATENCY_DEFAULT  > (READ_BIT((FLASH->ACR), FLASH_ACR_LATENCY)))
 8000ff8:	4b34      	ldr	r3, [pc, #208]	; (80010cc <SystemInit+0xe8>)
 8000ffa:	681b      	ldr	r3, [r3, #0]
 8000ffc:	f003 030f 	and.w	r3, r3, #15
 8001000:	2b06      	cmp	r3, #6
 8001002:	d807      	bhi.n	8001014 <SystemInit+0x30>
  {
    /* Program the new number of wait states to the LATENCY bits in the FLASH_ACR register */
    MODIFY_REG(FLASH->ACR, FLASH_ACR_LATENCY, (uint32_t)(FLASH_LATENCY_DEFAULT));
 8001004:	4b31      	ldr	r3, [pc, #196]	; (80010cc <SystemInit+0xe8>)
 8001006:	681b      	ldr	r3, [r3, #0]
 8001008:	f023 030f 	bic.w	r3, r3, #15
 800100c:	4a2f      	ldr	r2, [pc, #188]	; (80010cc <SystemInit+0xe8>)
 800100e:	f043 0307 	orr.w	r3, r3, #7
 8001012:	6013      	str	r3, [r2, #0]
  }

  /* Set HSION bit */
  RCC->CR |= RCC_CR_HSION;
 8001014:	4b2e      	ldr	r3, [pc, #184]	; (80010d0 <SystemInit+0xec>)
 8001016:	681b      	ldr	r3, [r3, #0]
 8001018:	4a2d      	ldr	r2, [pc, #180]	; (80010d0 <SystemInit+0xec>)
 800101a:	f043 0301 	orr.w	r3, r3, #1
 800101e:	6013      	str	r3, [r2, #0]

  /* Reset CFGR register */
  RCC->CFGR = 0x00000000;
 8001020:	4b2b      	ldr	r3, [pc, #172]	; (80010d0 <SystemInit+0xec>)
 8001022:	2200      	movs	r2, #0
 8001024:	611a      	str	r2, [r3, #16]

  /* Reset HSEON, HSECSSON, CSION, HSI48ON, CSIKERON, PLL1ON, PLL2ON and PLL3ON bits */
  RCC->CR &= 0xEAF6ED7FU;
 8001026:	4b2a      	ldr	r3, [pc, #168]	; (80010d0 <SystemInit+0xec>)
 8001028:	681a      	ldr	r2, [r3, #0]
 800102a:	4929      	ldr	r1, [pc, #164]	; (80010d0 <SystemInit+0xec>)
 800102c:	4b29      	ldr	r3, [pc, #164]	; (80010d4 <SystemInit+0xf0>)
 800102e:	4013      	ands	r3, r2
 8001030:	600b      	str	r3, [r1, #0]

   /* Decreasing the number of wait states because of lower CPU frequency */
  if(FLASH_LATENCY_DEFAULT  < (READ_BIT((FLASH->ACR), FLASH_ACR_LATENCY)))
 8001032:	4b26      	ldr	r3, [pc, #152]	; (80010cc <SystemInit+0xe8>)
 8001034:	681b      	ldr	r3, [r3, #0]
 8001036:	f003 0308 	and.w	r3, r3, #8
 800103a:	2b00      	cmp	r3, #0
 800103c:	d007      	beq.n	800104e <SystemInit+0x6a>
  {
    /* Program the new number of wait states to the LATENCY bits in the FLASH_ACR register */
    MODIFY_REG(FLASH->ACR, FLASH_ACR_LATENCY, (uint32_t)(FLASH_LATENCY_DEFAULT));
 800103e:	4b23      	ldr	r3, [pc, #140]	; (80010cc <SystemInit+0xe8>)
 8001040:	681b      	ldr	r3, [r3, #0]
 8001042:	f023 030f 	bic.w	r3, r3, #15
 8001046:	4a21      	ldr	r2, [pc, #132]	; (80010cc <SystemInit+0xe8>)
 8001048:	f043 0307 	orr.w	r3, r3, #7
 800104c:	6013      	str	r3, [r2, #0]
  }

#if defined(D3_SRAM_BASE)
  /* Reset D1CFGR register */
  RCC->D1CFGR = 0x00000000;
 800104e:	4b20      	ldr	r3, [pc, #128]	; (80010d0 <SystemInit+0xec>)
 8001050:	2200      	movs	r2, #0
 8001052:	619a      	str	r2, [r3, #24]

  /* Reset D2CFGR register */
  RCC->D2CFGR = 0x00000000;
 8001054:	4b1e      	ldr	r3, [pc, #120]	; (80010d0 <SystemInit+0xec>)
 8001056:	2200      	movs	r2, #0
 8001058:	61da      	str	r2, [r3, #28]

  /* Reset D3CFGR register */
  RCC->D3CFGR = 0x00000000;
 800105a:	4b1d      	ldr	r3, [pc, #116]	; (80010d0 <SystemInit+0xec>)
 800105c:	2200      	movs	r2, #0
 800105e:	621a      	str	r2, [r3, #32]

  /* Reset SRDCFGR register */
  RCC->SRDCFGR = 0x00000000;
#endif
  /* Reset PLLCKSELR register */
  RCC->PLLCKSELR = 0x02020200;
 8001060:	4b1b      	ldr	r3, [pc, #108]	; (80010d0 <SystemInit+0xec>)
 8001062:	4a1d      	ldr	r2, [pc, #116]	; (80010d8 <SystemInit+0xf4>)
 8001064:	629a      	str	r2, [r3, #40]	; 0x28

  /* Reset PLLCFGR register */
  RCC->PLLCFGR = 0x01FF0000;
 8001066:	4b1a      	ldr	r3, [pc, #104]	; (80010d0 <SystemInit+0xec>)
 8001068:	4a1c      	ldr	r2, [pc, #112]	; (80010dc <SystemInit+0xf8>)
 800106a:	62da      	str	r2, [r3, #44]	; 0x2c
  /* Reset PLL1DIVR register */
  RCC->PLL1DIVR = 0x01010280;
 800106c:	4b18      	ldr	r3, [pc, #96]	; (80010d0 <SystemInit+0xec>)
 800106e:	4a1c      	ldr	r2, [pc, #112]	; (80010e0 <SystemInit+0xfc>)
 8001070:	631a      	str	r2, [r3, #48]	; 0x30
  /* Reset PLL1FRACR register */
  RCC->PLL1FRACR = 0x00000000;
 8001072:	4b17      	ldr	r3, [pc, #92]	; (80010d0 <SystemInit+0xec>)
 8001074:	2200      	movs	r2, #0
 8001076:	635a      	str	r2, [r3, #52]	; 0x34

  /* Reset PLL2DIVR register */
  RCC->PLL2DIVR = 0x01010280;
 8001078:	4b15      	ldr	r3, [pc, #84]	; (80010d0 <SystemInit+0xec>)
 800107a:	4a19      	ldr	r2, [pc, #100]	; (80010e0 <SystemInit+0xfc>)
 800107c:	639a      	str	r2, [r3, #56]	; 0x38

  /* Reset PLL2FRACR register */

  RCC->PLL2FRACR = 0x00000000;
 800107e:	4b14      	ldr	r3, [pc, #80]	; (80010d0 <SystemInit+0xec>)
 8001080:	2200      	movs	r2, #0
 8001082:	63da      	str	r2, [r3, #60]	; 0x3c
  /* Reset PLL3DIVR register */
  RCC->PLL3DIVR = 0x01010280;
 8001084:	4b12      	ldr	r3, [pc, #72]	; (80010d0 <SystemInit+0xec>)
 8001086:	4a16      	ldr	r2, [pc, #88]	; (80010e0 <SystemInit+0xfc>)
 8001088:	641a      	str	r2, [r3, #64]	; 0x40

  /* Reset PLL3FRACR register */
  RCC->PLL3FRACR = 0x00000000;
 800108a:	4b11      	ldr	r3, [pc, #68]	; (80010d0 <SystemInit+0xec>)
 800108c:	2200      	movs	r2, #0
 800108e:	645a      	str	r2, [r3, #68]	; 0x44

  /* Reset HSEBYP bit */
  RCC->CR &= 0xFFFBFFFFU;
 8001090:	4b0f      	ldr	r3, [pc, #60]	; (80010d0 <SystemInit+0xec>)
 8001092:	681b      	ldr	r3, [r3, #0]
 8001094:	4a0e      	ldr	r2, [pc, #56]	; (80010d0 <SystemInit+0xec>)
 8001096:	f423 2380 	bic.w	r3, r3, #262144	; 0x40000
 800109a:	6013      	str	r3, [r2, #0]

  /* Disable all interrupts */
  RCC->CIER = 0x00000000;
 800109c:	4b0c      	ldr	r3, [pc, #48]	; (80010d0 <SystemInit+0xec>)
 800109e:	2200      	movs	r2, #0
 80010a0:	661a      	str	r2, [r3, #96]	; 0x60

#if (STM32H7_DEV_ID == 0x450UL)
  /* dual core CM7 or single core line */
  if((DBGMCU->IDCODE & 0xFFFF0000U) < 0x20000000U)
 80010a2:	4b10      	ldr	r3, [pc, #64]	; (80010e4 <SystemInit+0x100>)
 80010a4:	681a      	ldr	r2, [r3, #0]
 80010a6:	4b10      	ldr	r3, [pc, #64]	; (80010e8 <SystemInit+0x104>)
 80010a8:	4013      	ands	r3, r2
 80010aa:	f1b3 5f00 	cmp.w	r3, #536870912	; 0x20000000
 80010ae:	d202      	bcs.n	80010b6 <SystemInit+0xd2>
  {
    /* if stm32h7 revY*/
    /* Change  the switch matrix read issuing capability to 1 for the AXI SRAM target (Target 7) */
    *((__IO uint32_t*)0x51008108) = 0x000000001U;
 80010b0:	4b0e      	ldr	r3, [pc, #56]	; (80010ec <SystemInit+0x108>)
 80010b2:	2201      	movs	r2, #1
 80010b4:	601a      	str	r2, [r3, #0]
  /*
   * Disable the FMC bank1 (enabled after reset).
   * This, prevents CPU speculation access on this bank which blocks the use of FMC during
   * 24us. During this time the others FMC master (such as LTDC) cannot use it!
   */
  FMC_Bank1_R->BTCR[0] = 0x000030D2;
 80010b6:	4b0e      	ldr	r3, [pc, #56]	; (80010f0 <SystemInit+0x10c>)
 80010b8:	f243 02d2 	movw	r2, #12498	; 0x30d2
 80010bc:	601a      	str	r2, [r3, #0]
#if defined(USER_VECT_TAB_ADDRESS)
  SCB->VTOR = VECT_TAB_BASE_ADDRESS | VECT_TAB_OFFSET; /* Vector Table Relocation in Internal D1 AXI-RAM or in Internal FLASH */
#endif /* USER_VECT_TAB_ADDRESS */

#endif /*DUAL_CORE && CORE_CM4*/
}
 80010be:	bf00      	nop
 80010c0:	46bd      	mov	sp, r7
 80010c2:	f85d 7b04 	ldr.w	r7, [sp], #4
 80010c6:	4770      	bx	lr
 80010c8:	e000ed00 	.word	0xe000ed00
 80010cc:	52002000 	.word	0x52002000
 80010d0:	58024400 	.word	0x58024400
 80010d4:	eaf6ed7f 	.word	0xeaf6ed7f
 80010d8:	02020200 	.word	0x02020200
 80010dc:	01ff0000 	.word	0x01ff0000
 80010e0:	01010280 	.word	0x01010280
 80010e4:	5c001000 	.word	0x5c001000
 80010e8:	ffff0000 	.word	0xffff0000
 80010ec:	51008108 	.word	0x51008108
 80010f0:	52004000 	.word	0x52004000

080010f4 <MX_USART1_UART_Init>:
UART_HandleTypeDef huart1;

/* USART1 init function */

void MX_USART1_UART_Init(void)
{
 80010f4:	b580      	push	{r7, lr}
 80010f6:	af00      	add	r7, sp, #0
  /* USER CODE END USART1_Init 0 */

  /* USER CODE BEGIN USART1_Init 1 */

  /* USER CODE END USART1_Init 1 */
  huart1.Instance = USART1;
 80010f8:	4b22      	ldr	r3, [pc, #136]	; (8001184 <MX_USART1_UART_Init+0x90>)
 80010fa:	4a23      	ldr	r2, [pc, #140]	; (8001188 <MX_USART1_UART_Init+0x94>)
 80010fc:	601a      	str	r2, [r3, #0]
  huart1.Init.BaudRate = 115200;
 80010fe:	4b21      	ldr	r3, [pc, #132]	; (8001184 <MX_USART1_UART_Init+0x90>)
 8001100:	f44f 32e1 	mov.w	r2, #115200	; 0x1c200
 8001104:	605a      	str	r2, [r3, #4]
  huart1.Init.WordLength = UART_WORDLENGTH_8B;
 8001106:	4b1f      	ldr	r3, [pc, #124]	; (8001184 <MX_USART1_UART_Init+0x90>)
 8001108:	2200      	movs	r2, #0
 800110a:	609a      	str	r2, [r3, #8]
  huart1.Init.StopBits = UART_STOPBITS_1;
 800110c:	4b1d      	ldr	r3, [pc, #116]	; (8001184 <MX_USART1_UART_Init+0x90>)
 800110e:	2200      	movs	r2, #0
 8001110:	60da      	str	r2, [r3, #12]
  huart1.Init.Parity = UART_PARITY_NONE;
 8001112:	4b1c      	ldr	r3, [pc, #112]	; (8001184 <MX_USART1_UART_Init+0x90>)
 8001114:	2200      	movs	r2, #0
 8001116:	611a      	str	r2, [r3, #16]
  huart1.Init.Mode = UART_MODE_TX_RX;
 8001118:	4b1a      	ldr	r3, [pc, #104]	; (8001184 <MX_USART1_UART_Init+0x90>)
 800111a:	220c      	movs	r2, #12
 800111c:	615a      	str	r2, [r3, #20]
  huart1.Init.HwFlowCtl = UART_HWCONTROL_NONE;
 800111e:	4b19      	ldr	r3, [pc, #100]	; (8001184 <MX_USART1_UART_Init+0x90>)
 8001120:	2200      	movs	r2, #0
 8001122:	619a      	str	r2, [r3, #24]
  huart1.Init.OverSampling = UART_OVERSAMPLING_16;
 8001124:	4b17      	ldr	r3, [pc, #92]	; (8001184 <MX_USART1_UART_Init+0x90>)
 8001126:	2200      	movs	r2, #0
 8001128:	61da      	str	r2, [r3, #28]
  huart1.Init.OneBitSampling = UART_ONE_BIT_SAMPLE_DISABLE;
 800112a:	4b16      	ldr	r3, [pc, #88]	; (8001184 <MX_USART1_UART_Init+0x90>)
 800112c:	2200      	movs	r2, #0
 800112e:	621a      	str	r2, [r3, #32]
  huart1.Init.ClockPrescaler = UART_PRESCALER_DIV1;
 8001130:	4b14      	ldr	r3, [pc, #80]	; (8001184 <MX_USART1_UART_Init+0x90>)
 8001132:	2200      	movs	r2, #0
 8001134:	625a      	str	r2, [r3, #36]	; 0x24
  huart1.AdvancedInit.AdvFeatureInit = UART_ADVFEATURE_NO_INIT;
 8001136:	4b13      	ldr	r3, [pc, #76]	; (8001184 <MX_USART1_UART_Init+0x90>)
 8001138:	2200      	movs	r2, #0
 800113a:	629a      	str	r2, [r3, #40]	; 0x28
  if (HAL_UART_Init(&huart1) != HAL_OK)
 800113c:	4811      	ldr	r0, [pc, #68]	; (8001184 <MX_USART1_UART_Init+0x90>)
 800113e:	f004 fd81 	bl	8005c44 <HAL_UART_Init>
 8001142:	4603      	mov	r3, r0
 8001144:	2b00      	cmp	r3, #0
 8001146:	d001      	beq.n	800114c <MX_USART1_UART_Init+0x58>
  {
    Error_Handler();
 8001148:	f7ff fe32 	bl	8000db0 <Error_Handler>
  }
  if (HAL_UARTEx_SetTxFifoThreshold(&huart1, UART_TXFIFO_THRESHOLD_1_8) != HAL_OK)
 800114c:	2100      	movs	r1, #0
 800114e:	480d      	ldr	r0, [pc, #52]	; (8001184 <MX_USART1_UART_Init+0x90>)
 8001150:	f005 fd83 	bl	8006c5a <HAL_UARTEx_SetTxFifoThreshold>
 8001154:	4603      	mov	r3, r0
 8001156:	2b00      	cmp	r3, #0
 8001158:	d001      	beq.n	800115e <MX_USART1_UART_Init+0x6a>
  {
    Error_Handler();
 800115a:	f7ff fe29 	bl	8000db0 <Error_Handler>
  }
  if (HAL_UARTEx_SetRxFifoThreshold(&huart1, UART_RXFIFO_THRESHOLD_1_8) != HAL_OK)
 800115e:	2100      	movs	r1, #0
 8001160:	4808      	ldr	r0, [pc, #32]	; (8001184 <MX_USART1_UART_Init+0x90>)
 8001162:	f005 fdb8 	bl	8006cd6 <HAL_UARTEx_SetRxFifoThreshold>
 8001166:	4603      	mov	r3, r0
 8001168:	2b00      	cmp	r3, #0
 800116a:	d001      	beq.n	8001170 <MX_USART1_UART_Init+0x7c>
  {
    Error_Handler();
 800116c:	f7ff fe20 	bl	8000db0 <Error_Handler>
  }
  if (HAL_UARTEx_DisableFifoMode(&huart1) != HAL_OK)
 8001170:	4804      	ldr	r0, [pc, #16]	; (8001184 <MX_USART1_UART_Init+0x90>)
 8001172:	f005 fd39 	bl	8006be8 <HAL_UARTEx_DisableFifoMode>
 8001176:	4603      	mov	r3, r0
 8001178:	2b00      	cmp	r3, #0
 800117a:	d001      	beq.n	8001180 <MX_USART1_UART_Init+0x8c>
  {
    Error_Handler();
 800117c:	f7ff fe18 	bl	8000db0 <Error_Handler>
  }
  /* USER CODE BEGIN USART1_Init 2 */

  /* USER CODE END USART1_Init 2 */

}
 8001180:	bf00      	nop
 8001182:	bd80      	pop	{r7, pc}
 8001184:	240002fc 	.word	0x240002fc
 8001188:	40011000 	.word	0x40011000

0800118c <HAL_UART_MspInit>:

void HAL_UART_MspInit(UART_HandleTypeDef* uartHandle)
{
 800118c:	b580      	push	{r7, lr}
 800118e:	b0ba      	sub	sp, #232	; 0xe8
 8001190:	af00      	add	r7, sp, #0
 8001192:	6078      	str	r0, [r7, #4]

  GPIO_InitTypeDef GPIO_InitStruct = {0};
 8001194:	f107 03d4 	add.w	r3, r7, #212	; 0xd4
 8001198:	2200      	movs	r2, #0
 800119a:	601a      	str	r2, [r3, #0]
 800119c:	605a      	str	r2, [r3, #4]
 800119e:	609a      	str	r2, [r3, #8]
 80011a0:	60da      	str	r2, [r3, #12]
 80011a2:	611a      	str	r2, [r3, #16]
  RCC_PeriphCLKInitTypeDef PeriphClkInitStruct = {0};
 80011a4:	f107 0310 	add.w	r3, r7, #16
 80011a8:	22c0      	movs	r2, #192	; 0xc0
 80011aa:	2100      	movs	r1, #0
 80011ac:	4618      	mov	r0, r3
 80011ae:	f00a fd83 	bl	800bcb8 <memset>
  if(uartHandle->Instance==USART1)
 80011b2:	687b      	ldr	r3, [r7, #4]
 80011b4:	681b      	ldr	r3, [r3, #0]
 80011b6:	4a27      	ldr	r2, [pc, #156]	; (8001254 <HAL_UART_MspInit+0xc8>)
 80011b8:	4293      	cmp	r3, r2
 80011ba:	d146      	bne.n	800124a <HAL_UART_MspInit+0xbe>

  /* USER CODE END USART1_MspInit 0 */

  /** Initializes the peripherals clock
  */
    PeriphClkInitStruct.PeriphClockSelection = RCC_PERIPHCLK_USART1;
 80011bc:	f04f 0201 	mov.w	r2, #1
 80011c0:	f04f 0300 	mov.w	r3, #0
 80011c4:	e9c7 2304 	strd	r2, r3, [r7, #16]
    PeriphClkInitStruct.Usart16ClockSelection = RCC_USART16CLKSOURCE_D2PCLK2;
 80011c8:	2300      	movs	r3, #0
 80011ca:	f8c7 308c 	str.w	r3, [r7, #140]	; 0x8c
    if (HAL_RCCEx_PeriphCLKConfig(&PeriphClkInitStruct) != HAL_OK)
 80011ce:	f107 0310 	add.w	r3, r7, #16
 80011d2:	4618      	mov	r0, r3
 80011d4:	f002 ff0a 	bl	8003fec <HAL_RCCEx_PeriphCLKConfig>
 80011d8:	4603      	mov	r3, r0
 80011da:	2b00      	cmp	r3, #0
 80011dc:	d001      	beq.n	80011e2 <HAL_UART_MspInit+0x56>
    {
      Error_Handler();
 80011de:	f7ff fde7 	bl	8000db0 <Error_Handler>
    }

    /* USART1 clock enable */
    __HAL_RCC_USART1_CLK_ENABLE();
 80011e2:	4b1d      	ldr	r3, [pc, #116]	; (8001258 <HAL_UART_MspInit+0xcc>)
 80011e4:	f8d3 30f0 	ldr.w	r3, [r3, #240]	; 0xf0
 80011e8:	4a1b      	ldr	r2, [pc, #108]	; (8001258 <HAL_UART_MspInit+0xcc>)
 80011ea:	f043 0310 	orr.w	r3, r3, #16
 80011ee:	f8c2 30f0 	str.w	r3, [r2, #240]	; 0xf0
 80011f2:	4b19      	ldr	r3, [pc, #100]	; (8001258 <HAL_UART_MspInit+0xcc>)
 80011f4:	f8d3 30f0 	ldr.w	r3, [r3, #240]	; 0xf0
 80011f8:	f003 0310 	and.w	r3, r3, #16
 80011fc:	60fb      	str	r3, [r7, #12]
 80011fe:	68fb      	ldr	r3, [r7, #12]

    __HAL_RCC_GPIOA_CLK_ENABLE();
 8001200:	4b15      	ldr	r3, [pc, #84]	; (8001258 <HAL_UART_MspInit+0xcc>)
 8001202:	f8d3 30e0 	ldr.w	r3, [r3, #224]	; 0xe0
 8001206:	4a14      	ldr	r2, [pc, #80]	; (8001258 <HAL_UART_MspInit+0xcc>)
 8001208:	f043 0301 	orr.w	r3, r3, #1
 800120c:	f8c2 30e0 	str.w	r3, [r2, #224]	; 0xe0
 8001210:	4b11      	ldr	r3, [pc, #68]	; (8001258 <HAL_UART_MspInit+0xcc>)
 8001212:	f8d3 30e0 	ldr.w	r3, [r3, #224]	; 0xe0
 8001216:	f003 0301 	and.w	r3, r3, #1
 800121a:	60bb      	str	r3, [r7, #8]
 800121c:	68bb      	ldr	r3, [r7, #8]
    /**USART1 GPIO Configuration
    PA9     ------> USART1_TX
    PA10     ------> USART1_RX
    */
    GPIO_InitStruct.Pin = GPIO_PIN_9|GPIO_PIN_10;
 800121e:	f44f 63c0 	mov.w	r3, #1536	; 0x600
 8001222:	f8c7 30d4 	str.w	r3, [r7, #212]	; 0xd4
    GPIO_InitStruct.Mode = GPIO_MODE_AF_PP;
 8001226:	2302      	movs	r3, #2
 8001228:	f8c7 30d8 	str.w	r3, [r7, #216]	; 0xd8
    GPIO_InitStruct.Pull = GPIO_NOPULL;
 800122c:	2300      	movs	r3, #0
 800122e:	f8c7 30dc 	str.w	r3, [r7, #220]	; 0xdc
    GPIO_InitStruct.Speed = GPIO_SPEED_FREQ_LOW;
 8001232:	2300      	movs	r3, #0
 8001234:	f8c7 30e0 	str.w	r3, [r7, #224]	; 0xe0
    GPIO_InitStruct.Alternate = GPIO_AF7_USART1;
 8001238:	2307      	movs	r3, #7
 800123a:	f8c7 30e4 	str.w	r3, [r7, #228]	; 0xe4
    HAL_GPIO_Init(GPIOA, &GPIO_InitStruct);
 800123e:	f107 03d4 	add.w	r3, r7, #212	; 0xd4
 8001242:	4619      	mov	r1, r3
 8001244:	4805      	ldr	r0, [pc, #20]	; (800125c <HAL_UART_MspInit+0xd0>)
 8001246:	f000 fa07 	bl	8001658 <HAL_GPIO_Init>

  /* USER CODE BEGIN USART1_MspInit 1 */

  /* USER CODE END USART1_MspInit 1 */
  }
}
 800124a:	bf00      	nop
 800124c:	37e8      	adds	r7, #232	; 0xe8
 800124e:	46bd      	mov	sp, r7
 8001250:	bd80      	pop	{r7, pc}
 8001252:	bf00      	nop
 8001254:	40011000 	.word	0x40011000
 8001258:	58024400 	.word	0x58024400
 800125c:	58020000 	.word	0x58020000

08001260 <Reset_Handler>:

    .section  .text.Reset_Handler
  .weak  Reset_Handler
  .type  Reset_Handler, %function
Reset_Handler:
  ldr   sp, =_estack      /* set stack pointer */
 8001260:	f8df d034 	ldr.w	sp, [pc, #52]	; 8001298 <LoopFillZerobss+0xe>

/* Call the clock system initialization function.*/
  bl  SystemInit
 8001264:	f7ff febe 	bl	8000fe4 <SystemInit>

/* Copy the data segment initializers from flash to SRAM */
  ldr r0, =_sdata
 8001268:	480c      	ldr	r0, [pc, #48]	; (800129c <LoopFillZerobss+0x12>)
  ldr r1, =_edata
 800126a:	490d      	ldr	r1, [pc, #52]	; (80012a0 <LoopFillZerobss+0x16>)
  ldr r2, =_sidata
 800126c:	4a0d      	ldr	r2, [pc, #52]	; (80012a4 <LoopFillZerobss+0x1a>)
  movs r3, #0
 800126e:	2300      	movs	r3, #0
  b LoopCopyDataInit
 8001270:	e002      	b.n	8001278 <LoopCopyDataInit>

08001272 <CopyDataInit>:

CopyDataInit:
  ldr r4, [r2, r3]
 8001272:	58d4      	ldr	r4, [r2, r3]
  str r4, [r0, r3]
 8001274:	50c4      	str	r4, [r0, r3]
  adds r3, r3, #4
 8001276:	3304      	adds	r3, #4

08001278 <LoopCopyDataInit>:

LoopCopyDataInit:
  adds r4, r0, r3
 8001278:	18c4      	adds	r4, r0, r3
  cmp r4, r1
 800127a:	428c      	cmp	r4, r1
  bcc CopyDataInit
 800127c:	d3f9      	bcc.n	8001272 <CopyDataInit>
/* Zero fill the bss segment. */
  ldr r2, =_sbss
 800127e:	4a0a      	ldr	r2, [pc, #40]	; (80012a8 <LoopFillZerobss+0x1e>)
  ldr r4, =_ebss
 8001280:	4c0a      	ldr	r4, [pc, #40]	; (80012ac <LoopFillZerobss+0x22>)
  movs r3, #0
 8001282:	2300      	movs	r3, #0
  b LoopFillZerobss
 8001284:	e001      	b.n	800128a <LoopFillZerobss>

08001286 <FillZerobss>:

FillZerobss:
  str  r3, [r2]
 8001286:	6013      	str	r3, [r2, #0]
  adds r2, r2, #4
 8001288:	3204      	adds	r2, #4

0800128a <LoopFillZerobss>:

LoopFillZerobss:
  cmp r2, r4
 800128a:	42a2      	cmp	r2, r4
  bcc FillZerobss
 800128c:	d3fb      	bcc.n	8001286 <FillZerobss>

/* Call static constructors */
    bl __libc_init_array
 800128e:	f00a fd6b 	bl	800bd68 <__libc_init_array>
/* Call the application's entry point.*/
  bl  main
 8001292:	f7ff fcb3 	bl	8000bfc <main>
  bx  lr
 8001296:	4770      	bx	lr
  ldr   sp, =_estack      /* set stack pointer */
 8001298:	24080000 	.word	0x24080000
  ldr r0, =_sdata
 800129c:	24000000 	.word	0x24000000
  ldr r1, =_edata
 80012a0:	240002dc 	.word	0x240002dc
  ldr r2, =_sidata
 80012a4:	0800f788 	.word	0x0800f788
  ldr r2, =_sbss
 80012a8:	240002dc 	.word	0x240002dc
  ldr r4, =_ebss
 80012ac:	24000f24 	.word	0x24000f24

080012b0 <ADC3_IRQHandler>:
 * @retval None
*/
    .section  .text.Default_Handler,"ax",%progbits
Default_Handler:
Infinite_Loop:
  b  Infinite_Loop
 80012b0:	e7fe      	b.n	80012b0 <ADC3_IRQHandler>
	...

080012b4 <HAL_Init>:
  *         need to ensure that the SysTick time base is always set to 1 millisecond
  *         to have correct HAL operation.
  * @retval HAL status
  */
HAL_StatusTypeDef HAL_Init(void)
{
 80012b4:	b580      	push	{r7, lr}
 80012b6:	b082      	sub	sp, #8
 80012b8:	af00      	add	r7, sp, #0
   __HAL_ART_CONFIG_BASE_ADDRESS(0x08100000UL);  /* Configure the Cortex-M4 ART Base address to the Flash Bank 2 : */
   __HAL_ART_ENABLE();                           /* Enable the Cortex-M4 ART */
#endif /* DUAL_CORE &&  CORE_CM4 */

  /* Set Interrupt Group Priority */
  HAL_NVIC_SetPriorityGrouping(NVIC_PRIORITYGROUP_4);
 80012ba:	2003      	movs	r0, #3
 80012bc:	f000 f98c 	bl	80015d8 <HAL_NVIC_SetPriorityGrouping>

  /* Update the SystemCoreClock global variable */
#if defined(RCC_D1CFGR_D1CPRE)
  common_system_clock = HAL_RCC_GetSysClockFreq() >> ((D1CorePrescTable[(RCC->D1CFGR & RCC_D1CFGR_D1CPRE)>> RCC_D1CFGR_D1CPRE_Pos]) & 0x1FU);
 80012c0:	f002 fcbe 	bl	8003c40 <HAL_RCC_GetSysClockFreq>
 80012c4:	4602      	mov	r2, r0
 80012c6:	4b15      	ldr	r3, [pc, #84]	; (800131c <HAL_Init+0x68>)
 80012c8:	699b      	ldr	r3, [r3, #24]
 80012ca:	0a1b      	lsrs	r3, r3, #8
 80012cc:	f003 030f 	and.w	r3, r3, #15
 80012d0:	4913      	ldr	r1, [pc, #76]	; (8001320 <HAL_Init+0x6c>)
 80012d2:	5ccb      	ldrb	r3, [r1, r3]
 80012d4:	f003 031f 	and.w	r3, r3, #31
 80012d8:	fa22 f303 	lsr.w	r3, r2, r3
 80012dc:	607b      	str	r3, [r7, #4]
  common_system_clock = HAL_RCC_GetSysClockFreq() >> ((D1CorePrescTable[(RCC->CDCFGR1 & RCC_CDCFGR1_CDCPRE)>> RCC_CDCFGR1_CDCPRE_Pos]) & 0x1FU);
#endif

  /* Update the SystemD2Clock global variable */
#if defined(RCC_D1CFGR_HPRE)
  SystemD2Clock = (common_system_clock >> ((D1CorePrescTable[(RCC->D1CFGR & RCC_D1CFGR_HPRE)>> RCC_D1CFGR_HPRE_Pos]) & 0x1FU));
 80012de:	4b0f      	ldr	r3, [pc, #60]	; (800131c <HAL_Init+0x68>)
 80012e0:	699b      	ldr	r3, [r3, #24]
 80012e2:	f003 030f 	and.w	r3, r3, #15
 80012e6:	4a0e      	ldr	r2, [pc, #56]	; (8001320 <HAL_Init+0x6c>)
 80012e8:	5cd3      	ldrb	r3, [r2, r3]
 80012ea:	f003 031f 	and.w	r3, r3, #31
 80012ee:	687a      	ldr	r2, [r7, #4]
 80012f0:	fa22 f303 	lsr.w	r3, r2, r3
 80012f4:	4a0b      	ldr	r2, [pc, #44]	; (8001324 <HAL_Init+0x70>)
 80012f6:	6013      	str	r3, [r2, #0]
#endif

#if defined(DUAL_CORE) && defined(CORE_CM4)
  SystemCoreClock = SystemD2Clock;
#else
  SystemCoreClock = common_system_clock;
 80012f8:	4a0b      	ldr	r2, [pc, #44]	; (8001328 <HAL_Init+0x74>)
 80012fa:	687b      	ldr	r3, [r7, #4]
 80012fc:	6013      	str	r3, [r2, #0]
#endif /* DUAL_CORE && CORE_CM4 */

  /* Use systick as time base source and configure 1ms tick (default clock after Reset is HSI) */
  if(HAL_InitTick(TICK_INT_PRIORITY) != HAL_OK)
 80012fe:	200f      	movs	r0, #15
 8001300:	f000 f814 	bl	800132c <HAL_InitTick>
 8001304:	4603      	mov	r3, r0
 8001306:	2b00      	cmp	r3, #0
 8001308:	d001      	beq.n	800130e <HAL_Init+0x5a>
  {
    return HAL_ERROR;
 800130a:	2301      	movs	r3, #1
 800130c:	e002      	b.n	8001314 <HAL_Init+0x60>
  }

  /* Init the low level hardware */
  HAL_MspInit();
 800130e:	f7ff fd55 	bl	8000dbc <HAL_MspInit>

  /* Return function status */
  return HAL_OK;
 8001312:	2300      	movs	r3, #0
}
 8001314:	4618      	mov	r0, r3
 8001316:	3708      	adds	r7, #8
 8001318:	46bd      	mov	sp, r7
 800131a:	bd80      	pop	{r7, pc}
 800131c:	58024400 	.word	0x58024400
 8001320:	0800f314 	.word	0x0800f314
 8001324:	24000004 	.word	0x24000004
 8001328:	24000000 	.word	0x24000000

0800132c <HAL_InitTick>:
  *       implementation  in user file.
  * @param TickPriority: Tick interrupt priority.
  * @retval HAL status
  */
__weak HAL_StatusTypeDef HAL_InitTick(uint32_t TickPriority)
{
 800132c:	b580      	push	{r7, lr}
 800132e:	b082      	sub	sp, #8
 8001330:	af00      	add	r7, sp, #0
 8001332:	6078      	str	r0, [r7, #4]
  /* Check uwTickFreq for MisraC 2012 (even if uwTickFreq is a enum type that don't take the value zero)*/
  if((uint32_t)uwTickFreq == 0UL)
 8001334:	4b15      	ldr	r3, [pc, #84]	; (800138c <HAL_InitTick+0x60>)
 8001336:	781b      	ldrb	r3, [r3, #0]
 8001338:	2b00      	cmp	r3, #0
 800133a:	d101      	bne.n	8001340 <HAL_InitTick+0x14>
  {
    return HAL_ERROR;
 800133c:	2301      	movs	r3, #1
 800133e:	e021      	b.n	8001384 <HAL_InitTick+0x58>
  }

    /* Configure the SysTick to have interrupt in 1ms time basis*/
    if (HAL_SYSTICK_Config(SystemCoreClock / (1000UL / (uint32_t)uwTickFreq)) > 0U)
 8001340:	4b13      	ldr	r3, [pc, #76]	; (8001390 <HAL_InitTick+0x64>)
 8001342:	681a      	ldr	r2, [r3, #0]
 8001344:	4b11      	ldr	r3, [pc, #68]	; (800138c <HAL_InitTick+0x60>)
 8001346:	781b      	ldrb	r3, [r3, #0]
 8001348:	4619      	mov	r1, r3
 800134a:	f44f 737a 	mov.w	r3, #1000	; 0x3e8
 800134e:	fbb3 f3f1 	udiv	r3, r3, r1
 8001352:	fbb2 f3f3 	udiv	r3, r2, r3
 8001356:	4618      	mov	r0, r3
 8001358:	f000 f971 	bl	800163e <HAL_SYSTICK_Config>
 800135c:	4603      	mov	r3, r0
 800135e:	2b00      	cmp	r3, #0
 8001360:	d001      	beq.n	8001366 <HAL_InitTick+0x3a>
    {
      return HAL_ERROR;
 8001362:	2301      	movs	r3, #1
 8001364:	e00e      	b.n	8001384 <HAL_InitTick+0x58>
    }

  /* Configure the SysTick IRQ priority */
  if (TickPriority < (1UL << __NVIC_PRIO_BITS))
 8001366:	687b      	ldr	r3, [r7, #4]
 8001368:	2b0f      	cmp	r3, #15
 800136a:	d80a      	bhi.n	8001382 <HAL_InitTick+0x56>
  {
    HAL_NVIC_SetPriority(SysTick_IRQn, TickPriority, 0U);
 800136c:	2200      	movs	r2, #0
 800136e:	6879      	ldr	r1, [r7, #4]
 8001370:	f04f 30ff 	mov.w	r0, #4294967295
 8001374:	f000 f93b 	bl	80015ee <HAL_NVIC_SetPriority>
    uwTickPrio = TickPriority;
 8001378:	4a06      	ldr	r2, [pc, #24]	; (8001394 <HAL_InitTick+0x68>)
 800137a:	687b      	ldr	r3, [r7, #4]
 800137c:	6013      	str	r3, [r2, #0]
  {
    return HAL_ERROR;
  }

  /* Return function status */
  return HAL_OK;
 800137e:	2300      	movs	r3, #0
 8001380:	e000      	b.n	8001384 <HAL_InitTick+0x58>
    return HAL_ERROR;
 8001382:	2301      	movs	r3, #1
}
 8001384:	4618      	mov	r0, r3
 8001386:	3708      	adds	r7, #8
 8001388:	46bd      	mov	sp, r7
 800138a:	bd80      	pop	{r7, pc}
 800138c:	2400000c 	.word	0x2400000c
 8001390:	24000000 	.word	0x24000000
 8001394:	24000008 	.word	0x24000008

08001398 <HAL_IncTick>:
 * @note This function is declared as __weak to be overwritten in case of other
  *      implementations in user file.
  * @retval None
  */
__weak void HAL_IncTick(void)
{
 8001398:	b480      	push	{r7}
 800139a:	af00      	add	r7, sp, #0
  uwTick += (uint32_t)uwTickFreq;
 800139c:	4b06      	ldr	r3, [pc, #24]	; (80013b8 <HAL_IncTick+0x20>)
 800139e:	781b      	ldrb	r3, [r3, #0]
 80013a0:	461a      	mov	r2, r3
 80013a2:	4b06      	ldr	r3, [pc, #24]	; (80013bc <HAL_IncTick+0x24>)
 80013a4:	681b      	ldr	r3, [r3, #0]
 80013a6:	4413      	add	r3, r2
 80013a8:	4a04      	ldr	r2, [pc, #16]	; (80013bc <HAL_IncTick+0x24>)
 80013aa:	6013      	str	r3, [r2, #0]
}
 80013ac:	bf00      	nop
 80013ae:	46bd      	mov	sp, r7
 80013b0:	f85d 7b04 	ldr.w	r7, [sp], #4
 80013b4:	4770      	bx	lr
 80013b6:	bf00      	nop
 80013b8:	2400000c 	.word	0x2400000c
 80013bc:	24000390 	.word	0x24000390

080013c0 <HAL_GetTick>:
  * @note This function is declared as __weak to be overwritten in case of other
  *       implementations in user file.
  * @retval tick value
  */
__weak uint32_t HAL_GetTick(void)
{
 80013c0:	b480      	push	{r7}
 80013c2:	af00      	add	r7, sp, #0
  return uwTick;
 80013c4:	4b03      	ldr	r3, [pc, #12]	; (80013d4 <HAL_GetTick+0x14>)
 80013c6:	681b      	ldr	r3, [r3, #0]
}
 80013c8:	4618      	mov	r0, r3
 80013ca:	46bd      	mov	sp, r7
 80013cc:	f85d 7b04 	ldr.w	r7, [sp], #4
 80013d0:	4770      	bx	lr
 80013d2:	bf00      	nop
 80013d4:	24000390 	.word	0x24000390

080013d8 <HAL_Delay>:
  *       implementations in user file.
  * @param Delay  specifies the delay time length, in milliseconds.
  * @retval None
  */
__weak void HAL_Delay(uint32_t Delay)
{
 80013d8:	b580      	push	{r7, lr}
 80013da:	b084      	sub	sp, #16
 80013dc:	af00      	add	r7, sp, #0
 80013de:	6078      	str	r0, [r7, #4]
  uint32_t tickstart = HAL_GetTick();
 80013e0:	f7ff ffee 	bl	80013c0 <HAL_GetTick>
 80013e4:	60b8      	str	r0, [r7, #8]
  uint32_t wait = Delay;
 80013e6:	687b      	ldr	r3, [r7, #4]
 80013e8:	60fb      	str	r3, [r7, #12]

  /* Add a freq to guarantee minimum wait */
  if (wait < HAL_MAX_DELAY)
 80013ea:	68fb      	ldr	r3, [r7, #12]
 80013ec:	f1b3 3fff 	cmp.w	r3, #4294967295
 80013f0:	d005      	beq.n	80013fe <HAL_Delay+0x26>
  {
    wait += (uint32_t)(uwTickFreq);
 80013f2:	4b0a      	ldr	r3, [pc, #40]	; (800141c <HAL_Delay+0x44>)
 80013f4:	781b      	ldrb	r3, [r3, #0]
 80013f6:	461a      	mov	r2, r3
 80013f8:	68fb      	ldr	r3, [r7, #12]
 80013fa:	4413      	add	r3, r2
 80013fc:	60fb      	str	r3, [r7, #12]
  }

  while ((HAL_GetTick() - tickstart) < wait)
 80013fe:	bf00      	nop
 8001400:	f7ff ffde 	bl	80013c0 <HAL_GetTick>
 8001404:	4602      	mov	r2, r0
 8001406:	68bb      	ldr	r3, [r7, #8]
 8001408:	1ad3      	subs	r3, r2, r3
 800140a:	68fa      	ldr	r2, [r7, #12]
 800140c:	429a      	cmp	r2, r3
 800140e:	d8f7      	bhi.n	8001400 <HAL_Delay+0x28>
  {
  }
}
 8001410:	bf00      	nop
 8001412:	bf00      	nop
 8001414:	3710      	adds	r7, #16
 8001416:	46bd      	mov	sp, r7
 8001418:	bd80      	pop	{r7, pc}
 800141a:	bf00      	nop
 800141c:	2400000c 	.word	0x2400000c

08001420 <HAL_GetREVID>:
/**
  * @brief  Returns the device revision identifier.
  * @retval Device revision identifier
  */
uint32_t HAL_GetREVID(void)
{
 8001420:	b480      	push	{r7}
 8001422:	af00      	add	r7, sp, #0
   return((DBGMCU->IDCODE) >> 16);
 8001424:	4b03      	ldr	r3, [pc, #12]	; (8001434 <HAL_GetREVID+0x14>)
 8001426:	681b      	ldr	r3, [r3, #0]
 8001428:	0c1b      	lsrs	r3, r3, #16
}
 800142a:	4618      	mov	r0, r3
 800142c:	46bd      	mov	sp, r7
 800142e:	f85d 7b04 	ldr.w	r7, [sp], #4
 8001432:	4770      	bx	lr
 8001434:	5c001000 	.word	0x5c001000

08001438 <__NVIC_SetPriorityGrouping>:
           In case of a conflict between priority grouping and available
           priority bits (__NVIC_PRIO_BITS), the smallest possible priority group is set.
  \param [in]      PriorityGroup  Priority grouping field.
 */
__STATIC_INLINE void __NVIC_SetPriorityGrouping(uint32_t PriorityGroup)
{
 8001438:	b480      	push	{r7}
 800143a:	b085      	sub	sp, #20
 800143c:	af00      	add	r7, sp, #0
 800143e:	6078      	str	r0, [r7, #4]
  uint32_t reg_value;
  uint32_t PriorityGroupTmp = (PriorityGroup & (uint32_t)0x07UL);             /* only values 0..7 are used          */
 8001440:	687b      	ldr	r3, [r7, #4]
 8001442:	f003 0307 	and.w	r3, r3, #7
 8001446:	60fb      	str	r3, [r7, #12]

  reg_value  =  SCB->AIRCR;                                                   /* read old register configuration    */
 8001448:	4b0b      	ldr	r3, [pc, #44]	; (8001478 <__NVIC_SetPriorityGrouping+0x40>)
 800144a:	68db      	ldr	r3, [r3, #12]
 800144c:	60bb      	str	r3, [r7, #8]
  reg_value &= ~((uint32_t)(SCB_AIRCR_VECTKEY_Msk | SCB_AIRCR_PRIGROUP_Msk)); /* clear bits to change               */
 800144e:	68ba      	ldr	r2, [r7, #8]
 8001450:	f64f 03ff 	movw	r3, #63743	; 0xf8ff
 8001454:	4013      	ands	r3, r2
 8001456:	60bb      	str	r3, [r7, #8]
  reg_value  =  (reg_value                                   |
                ((uint32_t)0x5FAUL << SCB_AIRCR_VECTKEY_Pos) |
                (PriorityGroupTmp << SCB_AIRCR_PRIGROUP_Pos)  );              /* Insert write key and priority group */
 8001458:	68fb      	ldr	r3, [r7, #12]
 800145a:	021a      	lsls	r2, r3, #8
                ((uint32_t)0x5FAUL << SCB_AIRCR_VECTKEY_Pos) |
 800145c:	68bb      	ldr	r3, [r7, #8]
 800145e:	431a      	orrs	r2, r3
  reg_value  =  (reg_value                                   |
 8001460:	4b06      	ldr	r3, [pc, #24]	; (800147c <__NVIC_SetPriorityGrouping+0x44>)
 8001462:	4313      	orrs	r3, r2
 8001464:	60bb      	str	r3, [r7, #8]
  SCB->AIRCR =  reg_value;
 8001466:	4a04      	ldr	r2, [pc, #16]	; (8001478 <__NVIC_SetPriorityGrouping+0x40>)
 8001468:	68bb      	ldr	r3, [r7, #8]
 800146a:	60d3      	str	r3, [r2, #12]
}
 800146c:	bf00      	nop
 800146e:	3714      	adds	r7, #20
 8001470:	46bd      	mov	sp, r7
 8001472:	f85d 7b04 	ldr.w	r7, [sp], #4
 8001476:	4770      	bx	lr
 8001478:	e000ed00 	.word	0xe000ed00
 800147c:	05fa0000 	.word	0x05fa0000

08001480 <__NVIC_GetPriorityGrouping>:
  \brief   Get Priority Grouping
  \details Reads the priority grouping field from the NVIC Interrupt Controller.
  \return                Priority grouping field (SCB->AIRCR [10:8] PRIGROUP field).
 */
__STATIC_INLINE uint32_t __NVIC_GetPriorityGrouping(void)
{
 8001480:	b480      	push	{r7}
 8001482:	af00      	add	r7, sp, #0
  return ((uint32_t)((SCB->AIRCR & SCB_AIRCR_PRIGROUP_Msk) >> SCB_AIRCR_PRIGROUP_Pos));
 8001484:	4b04      	ldr	r3, [pc, #16]	; (8001498 <__NVIC_GetPriorityGrouping+0x18>)
 8001486:	68db      	ldr	r3, [r3, #12]
 8001488:	0a1b      	lsrs	r3, r3, #8
 800148a:	f003 0307 	and.w	r3, r3, #7
}
 800148e:	4618      	mov	r0, r3
 8001490:	46bd      	mov	sp, r7
 8001492:	f85d 7b04 	ldr.w	r7, [sp], #4
 8001496:	4770      	bx	lr
 8001498:	e000ed00 	.word	0xe000ed00

0800149c <__NVIC_EnableIRQ>:
  \details Enables a device specific interrupt in the NVIC interrupt controller.
  \param [in]      IRQn  Device specific interrupt number.
  \note    IRQn must not be negative.
 */
__STATIC_INLINE void __NVIC_EnableIRQ(IRQn_Type IRQn)
{
 800149c:	b480      	push	{r7}
 800149e:	b083      	sub	sp, #12
 80014a0:	af00      	add	r7, sp, #0
 80014a2:	4603      	mov	r3, r0
 80014a4:	80fb      	strh	r3, [r7, #6]
  if ((int32_t)(IRQn) >= 0)
 80014a6:	f9b7 3006 	ldrsh.w	r3, [r7, #6]
 80014aa:	2b00      	cmp	r3, #0
 80014ac:	db0b      	blt.n	80014c6 <__NVIC_EnableIRQ+0x2a>
  {
    __COMPILER_BARRIER();
    NVIC->ISER[(((uint32_t)IRQn) >> 5UL)] = (uint32_t)(1UL << (((uint32_t)IRQn) & 0x1FUL));
 80014ae:	88fb      	ldrh	r3, [r7, #6]
 80014b0:	f003 021f 	and.w	r2, r3, #31
 80014b4:	4907      	ldr	r1, [pc, #28]	; (80014d4 <__NVIC_EnableIRQ+0x38>)
 80014b6:	f9b7 3006 	ldrsh.w	r3, [r7, #6]
 80014ba:	095b      	lsrs	r3, r3, #5
 80014bc:	2001      	movs	r0, #1
 80014be:	fa00 f202 	lsl.w	r2, r0, r2
 80014c2:	f841 2023 	str.w	r2, [r1, r3, lsl #2]
    __COMPILER_BARRIER();
  }
}
 80014c6:	bf00      	nop
 80014c8:	370c      	adds	r7, #12
 80014ca:	46bd      	mov	sp, r7
 80014cc:	f85d 7b04 	ldr.w	r7, [sp], #4
 80014d0:	4770      	bx	lr
 80014d2:	bf00      	nop
 80014d4:	e000e100 	.word	0xe000e100

080014d8 <__NVIC_SetPriority>:
  \param [in]      IRQn  Interrupt number.
  \param [in]  priority  Priority to set.
  \note    The priority cannot be set for every processor exception.
 */
__STATIC_INLINE void __NVIC_SetPriority(IRQn_Type IRQn, uint32_t priority)
{
 80014d8:	b480      	push	{r7}
 80014da:	b083      	sub	sp, #12
 80014dc:	af00      	add	r7, sp, #0
 80014de:	4603      	mov	r3, r0
 80014e0:	6039      	str	r1, [r7, #0]
 80014e2:	80fb      	strh	r3, [r7, #6]
  if ((int32_t)(IRQn) >= 0)
 80014e4:	f9b7 3006 	ldrsh.w	r3, [r7, #6]
 80014e8:	2b00      	cmp	r3, #0
 80014ea:	db0a      	blt.n	8001502 <__NVIC_SetPriority+0x2a>
  {
    NVIC->IP[((uint32_t)IRQn)]                = (uint8_t)((priority << (8U - __NVIC_PRIO_BITS)) & (uint32_t)0xFFUL);
 80014ec:	683b      	ldr	r3, [r7, #0]
 80014ee:	b2da      	uxtb	r2, r3
 80014f0:	490c      	ldr	r1, [pc, #48]	; (8001524 <__NVIC_SetPriority+0x4c>)
 80014f2:	f9b7 3006 	ldrsh.w	r3, [r7, #6]
 80014f6:	0112      	lsls	r2, r2, #4
 80014f8:	b2d2      	uxtb	r2, r2
 80014fa:	440b      	add	r3, r1
 80014fc:	f883 2300 	strb.w	r2, [r3, #768]	; 0x300
  }
  else
  {
    SCB->SHPR[(((uint32_t)IRQn) & 0xFUL)-4UL] = (uint8_t)((priority << (8U - __NVIC_PRIO_BITS)) & (uint32_t)0xFFUL);
  }
}
 8001500:	e00a      	b.n	8001518 <__NVIC_SetPriority+0x40>
    SCB->SHPR[(((uint32_t)IRQn) & 0xFUL)-4UL] = (uint8_t)((priority << (8U - __NVIC_PRIO_BITS)) & (uint32_t)0xFFUL);
 8001502:	683b      	ldr	r3, [r7, #0]
 8001504:	b2da      	uxtb	r2, r3
 8001506:	4908      	ldr	r1, [pc, #32]	; (8001528 <__NVIC_SetPriority+0x50>)
 8001508:	88fb      	ldrh	r3, [r7, #6]
 800150a:	f003 030f 	and.w	r3, r3, #15
 800150e:	3b04      	subs	r3, #4
 8001510:	0112      	lsls	r2, r2, #4
 8001512:	b2d2      	uxtb	r2, r2
 8001514:	440b      	add	r3, r1
 8001516:	761a      	strb	r2, [r3, #24]
}
 8001518:	bf00      	nop
 800151a:	370c      	adds	r7, #12
 800151c:	46bd      	mov	sp, r7
 800151e:	f85d 7b04 	ldr.w	r7, [sp], #4
 8001522:	4770      	bx	lr
 8001524:	e000e100 	.word	0xe000e100
 8001528:	e000ed00 	.word	0xe000ed00

0800152c <NVIC_EncodePriority>:
  \param [in]   PreemptPriority  Preemptive priority value (starting from 0).
  \param [in]       SubPriority  Subpriority value (starting from 0).
  \return                        Encoded priority. Value can be used in the function \ref NVIC_SetPriority().
 */
__STATIC_INLINE uint32_t NVIC_EncodePriority (uint32_t PriorityGroup, uint32_t PreemptPriority, uint32_t SubPriority)
{
 800152c:	b480      	push	{r7}
 800152e:	b089      	sub	sp, #36	; 0x24
 8001530:	af00      	add	r7, sp, #0
 8001532:	60f8      	str	r0, [r7, #12]
 8001534:	60b9      	str	r1, [r7, #8]
 8001536:	607a      	str	r2, [r7, #4]
  uint32_t PriorityGroupTmp = (PriorityGroup & (uint32_t)0x07UL);   /* only values 0..7 are used          */
 8001538:	68fb      	ldr	r3, [r7, #12]
 800153a:	f003 0307 	and.w	r3, r3, #7
 800153e:	61fb      	str	r3, [r7, #28]
  uint32_t PreemptPriorityBits;
  uint32_t SubPriorityBits;

  PreemptPriorityBits = ((7UL - PriorityGroupTmp) > (uint32_t)(__NVIC_PRIO_BITS)) ? (uint32_t)(__NVIC_PRIO_BITS) : (uint32_t)(7UL - PriorityGroupTmp);
 8001540:	69fb      	ldr	r3, [r7, #28]
 8001542:	f1c3 0307 	rsb	r3, r3, #7
 8001546:	2b04      	cmp	r3, #4
 8001548:	bf28      	it	cs
 800154a:	2304      	movcs	r3, #4
 800154c:	61bb      	str	r3, [r7, #24]
  SubPriorityBits     = ((PriorityGroupTmp + (uint32_t)(__NVIC_PRIO_BITS)) < (uint32_t)7UL) ? (uint32_t)0UL : (uint32_t)((PriorityGroupTmp - 7UL) + (uint32_t)(__NVIC_PRIO_BITS));
 800154e:	69fb      	ldr	r3, [r7, #28]
 8001550:	3304      	adds	r3, #4
 8001552:	2b06      	cmp	r3, #6
 8001554:	d902      	bls.n	800155c <NVIC_EncodePriority+0x30>
 8001556:	69fb      	ldr	r3, [r7, #28]
 8001558:	3b03      	subs	r3, #3
 800155a:	e000      	b.n	800155e <NVIC_EncodePriority+0x32>
 800155c:	2300      	movs	r3, #0
 800155e:	617b      	str	r3, [r7, #20]

  return (
           ((PreemptPriority & (uint32_t)((1UL << (PreemptPriorityBits)) - 1UL)) << SubPriorityBits) |
 8001560:	f04f 32ff 	mov.w	r2, #4294967295
 8001564:	69bb      	ldr	r3, [r7, #24]
 8001566:	fa02 f303 	lsl.w	r3, r2, r3
 800156a:	43da      	mvns	r2, r3
 800156c:	68bb      	ldr	r3, [r7, #8]
 800156e:	401a      	ands	r2, r3
 8001570:	697b      	ldr	r3, [r7, #20]
 8001572:	409a      	lsls	r2, r3
           ((SubPriority     & (uint32_t)((1UL << (SubPriorityBits    )) - 1UL)))
 8001574:	f04f 31ff 	mov.w	r1, #4294967295
 8001578:	697b      	ldr	r3, [r7, #20]
 800157a:	fa01 f303 	lsl.w	r3, r1, r3
 800157e:	43d9      	mvns	r1, r3
 8001580:	687b      	ldr	r3, [r7, #4]
 8001582:	400b      	ands	r3, r1
           ((PreemptPriority & (uint32_t)((1UL << (PreemptPriorityBits)) - 1UL)) << SubPriorityBits) |
 8001584:	4313      	orrs	r3, r2
         );
}
 8001586:	4618      	mov	r0, r3
 8001588:	3724      	adds	r7, #36	; 0x24
 800158a:	46bd      	mov	sp, r7
 800158c:	f85d 7b04 	ldr.w	r7, [sp], #4
 8001590:	4770      	bx	lr
	...

08001594 <SysTick_Config>:
  \note    When the variable <b>__Vendor_SysTickConfig</b> is set to 1, then the
           function <b>SysTick_Config</b> is not included. In this case, the file <b><i>device</i>.h</b>
           must contain a vendor-specific implementation of this function.
 */
__STATIC_INLINE uint32_t SysTick_Config(uint32_t ticks)
{
 8001594:	b580      	push	{r7, lr}
 8001596:	b082      	sub	sp, #8
 8001598:	af00      	add	r7, sp, #0
 800159a:	6078      	str	r0, [r7, #4]
  if ((ticks - 1UL) > SysTick_LOAD_RELOAD_Msk)
 800159c:	687b      	ldr	r3, [r7, #4]
 800159e:	3b01      	subs	r3, #1
 80015a0:	f1b3 7f80 	cmp.w	r3, #16777216	; 0x1000000
 80015a4:	d301      	bcc.n	80015aa <SysTick_Config+0x16>
  {
    return (1UL);                                                   /* Reload value impossible */
 80015a6:	2301      	movs	r3, #1
 80015a8:	e00f      	b.n	80015ca <SysTick_Config+0x36>
  }

  SysTick->LOAD  = (uint32_t)(ticks - 1UL);                         /* set reload register */
 80015aa:	4a0a      	ldr	r2, [pc, #40]	; (80015d4 <SysTick_Config+0x40>)
 80015ac:	687b      	ldr	r3, [r7, #4]
 80015ae:	3b01      	subs	r3, #1
 80015b0:	6053      	str	r3, [r2, #4]
  NVIC_SetPriority (SysTick_IRQn, (1UL << __NVIC_PRIO_BITS) - 1UL); /* set Priority for Systick Interrupt */
 80015b2:	210f      	movs	r1, #15
 80015b4:	f04f 30ff 	mov.w	r0, #4294967295
 80015b8:	f7ff ff8e 	bl	80014d8 <__NVIC_SetPriority>
  SysTick->VAL   = 0UL;                                             /* Load the SysTick Counter Value */
 80015bc:	4b05      	ldr	r3, [pc, #20]	; (80015d4 <SysTick_Config+0x40>)
 80015be:	2200      	movs	r2, #0
 80015c0:	609a      	str	r2, [r3, #8]
  SysTick->CTRL  = SysTick_CTRL_CLKSOURCE_Msk |
 80015c2:	4b04      	ldr	r3, [pc, #16]	; (80015d4 <SysTick_Config+0x40>)
 80015c4:	2207      	movs	r2, #7
 80015c6:	601a      	str	r2, [r3, #0]
                   SysTick_CTRL_TICKINT_Msk   |
                   SysTick_CTRL_ENABLE_Msk;                         /* Enable SysTick IRQ and SysTick Timer */
  return (0UL);                                                     /* Function successful */
 80015c8:	2300      	movs	r3, #0
}
 80015ca:	4618      	mov	r0, r3
 80015cc:	3708      	adds	r7, #8
 80015ce:	46bd      	mov	sp, r7
 80015d0:	bd80      	pop	{r7, pc}
 80015d2:	bf00      	nop
 80015d4:	e000e010 	.word	0xe000e010

080015d8 <HAL_NVIC_SetPriorityGrouping>:
  * @note   When the NVIC_PriorityGroup_0 is selected, IRQ preemption is no more possible.
  *         The pending IRQ priority will be managed only by the subpriority.
  * @retval None
  */
void HAL_NVIC_SetPriorityGrouping(uint32_t PriorityGroup)
{
 80015d8:	b580      	push	{r7, lr}
 80015da:	b082      	sub	sp, #8
 80015dc:	af00      	add	r7, sp, #0
 80015de:	6078      	str	r0, [r7, #4]
  /* Check the parameters */
  assert_param(IS_NVIC_PRIORITY_GROUP(PriorityGroup));

  /* Set the PRIGROUP[10:8] bits according to the PriorityGroup parameter value */
  NVIC_SetPriorityGrouping(PriorityGroup);
 80015e0:	6878      	ldr	r0, [r7, #4]
 80015e2:	f7ff ff29 	bl	8001438 <__NVIC_SetPriorityGrouping>
}
 80015e6:	bf00      	nop
 80015e8:	3708      	adds	r7, #8
 80015ea:	46bd      	mov	sp, r7
 80015ec:	bd80      	pop	{r7, pc}

080015ee <HAL_NVIC_SetPriority>:
  *         This parameter can be a value between 0 and 15
  *         A lower priority value indicates a higher priority.
  * @retval None
  */
void HAL_NVIC_SetPriority(IRQn_Type IRQn, uint32_t PreemptPriority, uint32_t SubPriority)
{
 80015ee:	b580      	push	{r7, lr}
 80015f0:	b086      	sub	sp, #24
 80015f2:	af00      	add	r7, sp, #0
 80015f4:	4603      	mov	r3, r0
 80015f6:	60b9      	str	r1, [r7, #8]
 80015f8:	607a      	str	r2, [r7, #4]
 80015fa:	81fb      	strh	r3, [r7, #14]

  /* Check the parameters */
  assert_param(IS_NVIC_SUB_PRIORITY(SubPriority));
  assert_param(IS_NVIC_PREEMPTION_PRIORITY(PreemptPriority));

  prioritygroup = NVIC_GetPriorityGrouping();
 80015fc:	f7ff ff40 	bl	8001480 <__NVIC_GetPriorityGrouping>
 8001600:	6178      	str	r0, [r7, #20]

  NVIC_SetPriority(IRQn, NVIC_EncodePriority(prioritygroup, PreemptPriority, SubPriority));
 8001602:	687a      	ldr	r2, [r7, #4]
 8001604:	68b9      	ldr	r1, [r7, #8]
 8001606:	6978      	ldr	r0, [r7, #20]
 8001608:	f7ff ff90 	bl	800152c <NVIC_EncodePriority>
 800160c:	4602      	mov	r2, r0
 800160e:	f9b7 300e 	ldrsh.w	r3, [r7, #14]
 8001612:	4611      	mov	r1, r2
 8001614:	4618      	mov	r0, r3
 8001616:	f7ff ff5f 	bl	80014d8 <__NVIC_SetPriority>
}
 800161a:	bf00      	nop
 800161c:	3718      	adds	r7, #24
 800161e:	46bd      	mov	sp, r7
 8001620:	bd80      	pop	{r7, pc}

08001622 <HAL_NVIC_EnableIRQ>:
  *         This parameter can be an enumerator of IRQn_Type enumeration
  *         (For the complete STM32 Devices IRQ Channels list, please refer to the appropriate CMSIS device file (stm32h7xxxx.h))
  * @retval None
  */
void HAL_NVIC_EnableIRQ(IRQn_Type IRQn)
{
 8001622:	b580      	push	{r7, lr}
 8001624:	b082      	sub	sp, #8
 8001626:	af00      	add	r7, sp, #0
 8001628:	4603      	mov	r3, r0
 800162a:	80fb      	strh	r3, [r7, #6]
  /* Check the parameters */
  assert_param(IS_NVIC_DEVICE_IRQ(IRQn));

  /* Enable interrupt */
  NVIC_EnableIRQ(IRQn);
 800162c:	f9b7 3006 	ldrsh.w	r3, [r7, #6]
 8001630:	4618      	mov	r0, r3
 8001632:	f7ff ff33 	bl	800149c <__NVIC_EnableIRQ>
}
 8001636:	bf00      	nop
 8001638:	3708      	adds	r7, #8
 800163a:	46bd      	mov	sp, r7
 800163c:	bd80      	pop	{r7, pc}

0800163e <HAL_SYSTICK_Config>:
  * @param  TicksNumb Specifies the ticks Number of ticks between two interrupts.
  * @retval status   - 0  Function succeeded.
  *                  - 1  Function failed.
  */
uint32_t HAL_SYSTICK_Config(uint32_t TicksNumb)
{
 800163e:	b580      	push	{r7, lr}
 8001640:	b082      	sub	sp, #8
 8001642:	af00      	add	r7, sp, #0
 8001644:	6078      	str	r0, [r7, #4]
   return SysTick_Config(TicksNumb);
 8001646:	6878      	ldr	r0, [r7, #4]
 8001648:	f7ff ffa4 	bl	8001594 <SysTick_Config>
 800164c:	4603      	mov	r3, r0
}
 800164e:	4618      	mov	r0, r3
 8001650:	3708      	adds	r7, #8
 8001652:	46bd      	mov	sp, r7
 8001654:	bd80      	pop	{r7, pc}
	...

08001658 <HAL_GPIO_Init>:
  * @param  GPIO_Init: pointer to a GPIO_InitTypeDef structure that contains
  *         the configuration information for the specified GPIO peripheral.
  * @retval None
  */
void HAL_GPIO_Init(GPIO_TypeDef  *GPIOx, GPIO_InitTypeDef *GPIO_Init)
{
 8001658:	b480      	push	{r7}
 800165a:	b089      	sub	sp, #36	; 0x24
 800165c:	af00      	add	r7, sp, #0
 800165e:	6078      	str	r0, [r7, #4]
 8001660:	6039      	str	r1, [r7, #0]
  uint32_t position = 0x00U;
 8001662:	2300      	movs	r3, #0
 8001664:	61fb      	str	r3, [r7, #28]
  EXTI_Core_TypeDef *EXTI_CurrentCPU;

#if defined(DUAL_CORE) && defined(CORE_CM4)
  EXTI_CurrentCPU = EXTI_D2; /* EXTI for CM4 CPU */
#else
  EXTI_CurrentCPU = EXTI_D1; /* EXTI for CM7 CPU */
 8001666:	4b89      	ldr	r3, [pc, #548]	; (800188c <HAL_GPIO_Init+0x234>)
 8001668:	617b      	str	r3, [r7, #20]
  assert_param(IS_GPIO_ALL_INSTANCE(GPIOx));
  assert_param(IS_GPIO_PIN(GPIO_Init->Pin));
  assert_param(IS_GPIO_MODE(GPIO_Init->Mode));

  /* Configure the port pins */
  while (((GPIO_Init->Pin) >> position) != 0x00U)
 800166a:	e194      	b.n	8001996 <HAL_GPIO_Init+0x33e>
  {
    /* Get current io position */
    iocurrent = (GPIO_Init->Pin) & (1UL << position);
 800166c:	683b      	ldr	r3, [r7, #0]
 800166e:	681a      	ldr	r2, [r3, #0]
 8001670:	2101      	movs	r1, #1
 8001672:	69fb      	ldr	r3, [r7, #28]
 8001674:	fa01 f303 	lsl.w	r3, r1, r3
 8001678:	4013      	ands	r3, r2
 800167a:	613b      	str	r3, [r7, #16]

    if (iocurrent != 0x00U)
 800167c:	693b      	ldr	r3, [r7, #16]
 800167e:	2b00      	cmp	r3, #0
 8001680:	f000 8186 	beq.w	8001990 <HAL_GPIO_Init+0x338>
    {
      /*--------------------- GPIO Mode Configuration ------------------------*/
      /* In case of Output or Alternate function mode selection */
      if (((GPIO_Init->Mode & GPIO_MODE) == MODE_OUTPUT) || ((GPIO_Init->Mode & GPIO_MODE) == MODE_AF))
 8001684:	683b      	ldr	r3, [r7, #0]
 8001686:	685b      	ldr	r3, [r3, #4]
 8001688:	f003 0303 	and.w	r3, r3, #3
 800168c:	2b01      	cmp	r3, #1
 800168e:	d005      	beq.n	800169c <HAL_GPIO_Init+0x44>
 8001690:	683b      	ldr	r3, [r7, #0]
 8001692:	685b      	ldr	r3, [r3, #4]
 8001694:	f003 0303 	and.w	r3, r3, #3
 8001698:	2b02      	cmp	r3, #2
 800169a:	d130      	bne.n	80016fe <HAL_GPIO_Init+0xa6>
      {
        /* Check the Speed parameter */
        assert_param(IS_GPIO_SPEED(GPIO_Init->Speed));

        /* Configure the IO Speed */
        temp = GPIOx->OSPEEDR;
 800169c:	687b      	ldr	r3, [r7, #4]
 800169e:	689b      	ldr	r3, [r3, #8]
 80016a0:	61bb      	str	r3, [r7, #24]
        temp &= ~(GPIO_OSPEEDR_OSPEED0 << (position * 2U));
 80016a2:	69fb      	ldr	r3, [r7, #28]
 80016a4:	005b      	lsls	r3, r3, #1
 80016a6:	2203      	movs	r2, #3
 80016a8:	fa02 f303 	lsl.w	r3, r2, r3
 80016ac:	43db      	mvns	r3, r3
 80016ae:	69ba      	ldr	r2, [r7, #24]
 80016b0:	4013      	ands	r3, r2
 80016b2:	61bb      	str	r3, [r7, #24]
        temp |= (GPIO_Init->Speed << (position * 2U));
 80016b4:	683b      	ldr	r3, [r7, #0]
 80016b6:	68da      	ldr	r2, [r3, #12]
 80016b8:	69fb      	ldr	r3, [r7, #28]
 80016ba:	005b      	lsls	r3, r3, #1
 80016bc:	fa02 f303 	lsl.w	r3, r2, r3
 80016c0:	69ba      	ldr	r2, [r7, #24]
 80016c2:	4313      	orrs	r3, r2
 80016c4:	61bb      	str	r3, [r7, #24]
        GPIOx->OSPEEDR = temp;
 80016c6:	687b      	ldr	r3, [r7, #4]
 80016c8:	69ba      	ldr	r2, [r7, #24]
 80016ca:	609a      	str	r2, [r3, #8]

        /* Configure the IO Output Type */
        temp = GPIOx->OTYPER;
 80016cc:	687b      	ldr	r3, [r7, #4]
 80016ce:	685b      	ldr	r3, [r3, #4]
 80016d0:	61bb      	str	r3, [r7, #24]
        temp &= ~(GPIO_OTYPER_OT0 << position) ;
 80016d2:	2201      	movs	r2, #1
 80016d4:	69fb      	ldr	r3, [r7, #28]
 80016d6:	fa02 f303 	lsl.w	r3, r2, r3
 80016da:	43db      	mvns	r3, r3
 80016dc:	69ba      	ldr	r2, [r7, #24]
 80016de:	4013      	ands	r3, r2
 80016e0:	61bb      	str	r3, [r7, #24]
        temp |= (((GPIO_Init->Mode & OUTPUT_TYPE) >> OUTPUT_TYPE_Pos) << position);
 80016e2:	683b      	ldr	r3, [r7, #0]
 80016e4:	685b      	ldr	r3, [r3, #4]
 80016e6:	091b      	lsrs	r3, r3, #4
 80016e8:	f003 0201 	and.w	r2, r3, #1
 80016ec:	69fb      	ldr	r3, [r7, #28]
 80016ee:	fa02 f303 	lsl.w	r3, r2, r3
 80016f2:	69ba      	ldr	r2, [r7, #24]
 80016f4:	4313      	orrs	r3, r2
 80016f6:	61bb      	str	r3, [r7, #24]
        GPIOx->OTYPER = temp;
 80016f8:	687b      	ldr	r3, [r7, #4]
 80016fa:	69ba      	ldr	r2, [r7, #24]
 80016fc:	605a      	str	r2, [r3, #4]
      }

      if ((GPIO_Init->Mode & GPIO_MODE) != MODE_ANALOG)
 80016fe:	683b      	ldr	r3, [r7, #0]
 8001700:	685b      	ldr	r3, [r3, #4]
 8001702:	f003 0303 	and.w	r3, r3, #3
 8001706:	2b03      	cmp	r3, #3
 8001708:	d017      	beq.n	800173a <HAL_GPIO_Init+0xe2>
      {
       /* Check the Pull parameter */
       assert_param(IS_GPIO_PULL(GPIO_Init->Pull));

      /* Activate the Pull-up or Pull down resistor for the current IO */
      temp = GPIOx->PUPDR;
 800170a:	687b      	ldr	r3, [r7, #4]
 800170c:	68db      	ldr	r3, [r3, #12]
 800170e:	61bb      	str	r3, [r7, #24]
      temp &= ~(GPIO_PUPDR_PUPD0 << (position * 2U));
 8001710:	69fb      	ldr	r3, [r7, #28]
 8001712:	005b      	lsls	r3, r3, #1
 8001714:	2203      	movs	r2, #3
 8001716:	fa02 f303 	lsl.w	r3, r2, r3
 800171a:	43db      	mvns	r3, r3
 800171c:	69ba      	ldr	r2, [r7, #24]
 800171e:	4013      	ands	r3, r2
 8001720:	61bb      	str	r3, [r7, #24]
      temp |= ((GPIO_Init->Pull) << (position * 2U));
 8001722:	683b      	ldr	r3, [r7, #0]
 8001724:	689a      	ldr	r2, [r3, #8]
 8001726:	69fb      	ldr	r3, [r7, #28]
 8001728:	005b      	lsls	r3, r3, #1
 800172a:	fa02 f303 	lsl.w	r3, r2, r3
 800172e:	69ba      	ldr	r2, [r7, #24]
 8001730:	4313      	orrs	r3, r2
 8001732:	61bb      	str	r3, [r7, #24]
      GPIOx->PUPDR = temp;
 8001734:	687b      	ldr	r3, [r7, #4]
 8001736:	69ba      	ldr	r2, [r7, #24]
 8001738:	60da      	str	r2, [r3, #12]
      }

      /* In case of Alternate function mode selection */
      if ((GPIO_Init->Mode & GPIO_MODE) == MODE_AF)
 800173a:	683b      	ldr	r3, [r7, #0]
 800173c:	685b      	ldr	r3, [r3, #4]
 800173e:	f003 0303 	and.w	r3, r3, #3
 8001742:	2b02      	cmp	r3, #2
 8001744:	d123      	bne.n	800178e <HAL_GPIO_Init+0x136>
        /* Check the Alternate function parameters */
        assert_param(IS_GPIO_AF_INSTANCE(GPIOx));
        assert_param(IS_GPIO_AF(GPIO_Init->Alternate));

        /* Configure Alternate function mapped with the current IO */
        temp = GPIOx->AFR[position >> 3U];
 8001746:	69fb      	ldr	r3, [r7, #28]
 8001748:	08da      	lsrs	r2, r3, #3
 800174a:	687b      	ldr	r3, [r7, #4]
 800174c:	3208      	adds	r2, #8
 800174e:	f853 3022 	ldr.w	r3, [r3, r2, lsl #2]
 8001752:	61bb      	str	r3, [r7, #24]
        temp &= ~(0xFU << ((position & 0x07U) * 4U));
 8001754:	69fb      	ldr	r3, [r7, #28]
 8001756:	f003 0307 	and.w	r3, r3, #7
 800175a:	009b      	lsls	r3, r3, #2
 800175c:	220f      	movs	r2, #15
 800175e:	fa02 f303 	lsl.w	r3, r2, r3
 8001762:	43db      	mvns	r3, r3
 8001764:	69ba      	ldr	r2, [r7, #24]
 8001766:	4013      	ands	r3, r2
 8001768:	61bb      	str	r3, [r7, #24]
        temp |= ((GPIO_Init->Alternate) << ((position & 0x07U) * 4U));
 800176a:	683b      	ldr	r3, [r7, #0]
 800176c:	691a      	ldr	r2, [r3, #16]
 800176e:	69fb      	ldr	r3, [r7, #28]
 8001770:	f003 0307 	and.w	r3, r3, #7
 8001774:	009b      	lsls	r3, r3, #2
 8001776:	fa02 f303 	lsl.w	r3, r2, r3
 800177a:	69ba      	ldr	r2, [r7, #24]
 800177c:	4313      	orrs	r3, r2
 800177e:	61bb      	str	r3, [r7, #24]
        GPIOx->AFR[position >> 3U] = temp;
 8001780:	69fb      	ldr	r3, [r7, #28]
 8001782:	08da      	lsrs	r2, r3, #3
 8001784:	687b      	ldr	r3, [r7, #4]
 8001786:	3208      	adds	r2, #8
 8001788:	69b9      	ldr	r1, [r7, #24]
 800178a:	f843 1022 	str.w	r1, [r3, r2, lsl #2]
      }

      /* Configure IO Direction mode (Input, Output, Alternate or Analog) */
      temp = GPIOx->MODER;
 800178e:	687b      	ldr	r3, [r7, #4]
 8001790:	681b      	ldr	r3, [r3, #0]
 8001792:	61bb      	str	r3, [r7, #24]
      temp &= ~(GPIO_MODER_MODE0 << (position * 2U));
 8001794:	69fb      	ldr	r3, [r7, #28]
 8001796:	005b      	lsls	r3, r3, #1
 8001798:	2203      	movs	r2, #3
 800179a:	fa02 f303 	lsl.w	r3, r2, r3
 800179e:	43db      	mvns	r3, r3
 80017a0:	69ba      	ldr	r2, [r7, #24]
 80017a2:	4013      	ands	r3, r2
 80017a4:	61bb      	str	r3, [r7, #24]
      temp |= ((GPIO_Init->Mode & GPIO_MODE) << (position * 2U));
 80017a6:	683b      	ldr	r3, [r7, #0]
 80017a8:	685b      	ldr	r3, [r3, #4]
 80017aa:	f003 0203 	and.w	r2, r3, #3
 80017ae:	69fb      	ldr	r3, [r7, #28]
 80017b0:	005b      	lsls	r3, r3, #1
 80017b2:	fa02 f303 	lsl.w	r3, r2, r3
 80017b6:	69ba      	ldr	r2, [r7, #24]
 80017b8:	4313      	orrs	r3, r2
 80017ba:	61bb      	str	r3, [r7, #24]
      GPIOx->MODER = temp;
 80017bc:	687b      	ldr	r3, [r7, #4]
 80017be:	69ba      	ldr	r2, [r7, #24]
 80017c0:	601a      	str	r2, [r3, #0]

      /*--------------------- EXTI Mode Configuration ------------------------*/
      /* Configure the External Interrupt or event for the current IO */
      if ((GPIO_Init->Mode & EXTI_MODE) != 0x00U)
 80017c2:	683b      	ldr	r3, [r7, #0]
 80017c4:	685b      	ldr	r3, [r3, #4]
 80017c6:	f403 3340 	and.w	r3, r3, #196608	; 0x30000
 80017ca:	2b00      	cmp	r3, #0
 80017cc:	f000 80e0 	beq.w	8001990 <HAL_GPIO_Init+0x338>
      {
        /* Enable SYSCFG Clock */
        __HAL_RCC_SYSCFG_CLK_ENABLE();
 80017d0:	4b2f      	ldr	r3, [pc, #188]	; (8001890 <HAL_GPIO_Init+0x238>)
 80017d2:	f8d3 30f4 	ldr.w	r3, [r3, #244]	; 0xf4
 80017d6:	4a2e      	ldr	r2, [pc, #184]	; (8001890 <HAL_GPIO_Init+0x238>)
 80017d8:	f043 0302 	orr.w	r3, r3, #2
 80017dc:	f8c2 30f4 	str.w	r3, [r2, #244]	; 0xf4
 80017e0:	4b2b      	ldr	r3, [pc, #172]	; (8001890 <HAL_GPIO_Init+0x238>)
 80017e2:	f8d3 30f4 	ldr.w	r3, [r3, #244]	; 0xf4
 80017e6:	f003 0302 	and.w	r3, r3, #2
 80017ea:	60fb      	str	r3, [r7, #12]
 80017ec:	68fb      	ldr	r3, [r7, #12]

        temp = SYSCFG->EXTICR[position >> 2U];
 80017ee:	4a29      	ldr	r2, [pc, #164]	; (8001894 <HAL_GPIO_Init+0x23c>)
 80017f0:	69fb      	ldr	r3, [r7, #28]
 80017f2:	089b      	lsrs	r3, r3, #2
 80017f4:	3302      	adds	r3, #2
 80017f6:	f852 3023 	ldr.w	r3, [r2, r3, lsl #2]
 80017fa:	61bb      	str	r3, [r7, #24]
        temp &= ~(0x0FUL << (4U * (position & 0x03U)));
 80017fc:	69fb      	ldr	r3, [r7, #28]
 80017fe:	f003 0303 	and.w	r3, r3, #3
 8001802:	009b      	lsls	r3, r3, #2
 8001804:	220f      	movs	r2, #15
 8001806:	fa02 f303 	lsl.w	r3, r2, r3
 800180a:	43db      	mvns	r3, r3
 800180c:	69ba      	ldr	r2, [r7, #24]
 800180e:	4013      	ands	r3, r2
 8001810:	61bb      	str	r3, [r7, #24]
        temp |= (GPIO_GET_INDEX(GPIOx) << (4U * (position & 0x03U)));
 8001812:	687b      	ldr	r3, [r7, #4]
 8001814:	4a20      	ldr	r2, [pc, #128]	; (8001898 <HAL_GPIO_Init+0x240>)
 8001816:	4293      	cmp	r3, r2
 8001818:	d052      	beq.n	80018c0 <HAL_GPIO_Init+0x268>
 800181a:	687b      	ldr	r3, [r7, #4]
 800181c:	4a1f      	ldr	r2, [pc, #124]	; (800189c <HAL_GPIO_Init+0x244>)
 800181e:	4293      	cmp	r3, r2
 8001820:	d031      	beq.n	8001886 <HAL_GPIO_Init+0x22e>
 8001822:	687b      	ldr	r3, [r7, #4]
 8001824:	4a1e      	ldr	r2, [pc, #120]	; (80018a0 <HAL_GPIO_Init+0x248>)
 8001826:	4293      	cmp	r3, r2
 8001828:	d02b      	beq.n	8001882 <HAL_GPIO_Init+0x22a>
 800182a:	687b      	ldr	r3, [r7, #4]
 800182c:	4a1d      	ldr	r2, [pc, #116]	; (80018a4 <HAL_GPIO_Init+0x24c>)
 800182e:	4293      	cmp	r3, r2
 8001830:	d025      	beq.n	800187e <HAL_GPIO_Init+0x226>
 8001832:	687b      	ldr	r3, [r7, #4]
 8001834:	4a1c      	ldr	r2, [pc, #112]	; (80018a8 <HAL_GPIO_Init+0x250>)
 8001836:	4293      	cmp	r3, r2
 8001838:	d01f      	beq.n	800187a <HAL_GPIO_Init+0x222>
 800183a:	687b      	ldr	r3, [r7, #4]
 800183c:	4a1b      	ldr	r2, [pc, #108]	; (80018ac <HAL_GPIO_Init+0x254>)
 800183e:	4293      	cmp	r3, r2
 8001840:	d019      	beq.n	8001876 <HAL_GPIO_Init+0x21e>
 8001842:	687b      	ldr	r3, [r7, #4]
 8001844:	4a1a      	ldr	r2, [pc, #104]	; (80018b0 <HAL_GPIO_Init+0x258>)
 8001846:	4293      	cmp	r3, r2
 8001848:	d013      	beq.n	8001872 <HAL_GPIO_Init+0x21a>
 800184a:	687b      	ldr	r3, [r7, #4]
 800184c:	4a19      	ldr	r2, [pc, #100]	; (80018b4 <HAL_GPIO_Init+0x25c>)
 800184e:	4293      	cmp	r3, r2
 8001850:	d00d      	beq.n	800186e <HAL_GPIO_Init+0x216>
 8001852:	687b      	ldr	r3, [r7, #4]
 8001854:	4a18      	ldr	r2, [pc, #96]	; (80018b8 <HAL_GPIO_Init+0x260>)
 8001856:	4293      	cmp	r3, r2
 8001858:	d007      	beq.n	800186a <HAL_GPIO_Init+0x212>
 800185a:	687b      	ldr	r3, [r7, #4]
 800185c:	4a17      	ldr	r2, [pc, #92]	; (80018bc <HAL_GPIO_Init+0x264>)
 800185e:	4293      	cmp	r3, r2
 8001860:	d101      	bne.n	8001866 <HAL_GPIO_Init+0x20e>
 8001862:	2309      	movs	r3, #9
 8001864:	e02d      	b.n	80018c2 <HAL_GPIO_Init+0x26a>
 8001866:	230a      	movs	r3, #10
 8001868:	e02b      	b.n	80018c2 <HAL_GPIO_Init+0x26a>
 800186a:	2308      	movs	r3, #8
 800186c:	e029      	b.n	80018c2 <HAL_GPIO_Init+0x26a>
 800186e:	2307      	movs	r3, #7
 8001870:	e027      	b.n	80018c2 <HAL_GPIO_Init+0x26a>
 8001872:	2306      	movs	r3, #6
 8001874:	e025      	b.n	80018c2 <HAL_GPIO_Init+0x26a>
 8001876:	2305      	movs	r3, #5
 8001878:	e023      	b.n	80018c2 <HAL_GPIO_Init+0x26a>
 800187a:	2304      	movs	r3, #4
 800187c:	e021      	b.n	80018c2 <HAL_GPIO_Init+0x26a>
 800187e:	2303      	movs	r3, #3
 8001880:	e01f      	b.n	80018c2 <HAL_GPIO_Init+0x26a>
 8001882:	2302      	movs	r3, #2
 8001884:	e01d      	b.n	80018c2 <HAL_GPIO_Init+0x26a>
 8001886:	2301      	movs	r3, #1
 8001888:	e01b      	b.n	80018c2 <HAL_GPIO_Init+0x26a>
 800188a:	bf00      	nop
 800188c:	58000080 	.word	0x58000080
 8001890:	58024400 	.word	0x58024400
 8001894:	58000400 	.word	0x58000400
 8001898:	58020000 	.word	0x58020000
 800189c:	58020400 	.word	0x58020400
 80018a0:	58020800 	.word	0x58020800
 80018a4:	58020c00 	.word	0x58020c00
 80018a8:	58021000 	.word	0x58021000
 80018ac:	58021400 	.word	0x58021400
 80018b0:	58021800 	.word	0x58021800
 80018b4:	58021c00 	.word	0x58021c00
 80018b8:	58022000 	.word	0x58022000
 80018bc:	58022400 	.word	0x58022400
 80018c0:	2300      	movs	r3, #0
 80018c2:	69fa      	ldr	r2, [r7, #28]
 80018c4:	f002 0203 	and.w	r2, r2, #3
 80018c8:	0092      	lsls	r2, r2, #2
 80018ca:	4093      	lsls	r3, r2
 80018cc:	69ba      	ldr	r2, [r7, #24]
 80018ce:	4313      	orrs	r3, r2
 80018d0:	61bb      	str	r3, [r7, #24]
        SYSCFG->EXTICR[position >> 2U] = temp;
 80018d2:	4938      	ldr	r1, [pc, #224]	; (80019b4 <HAL_GPIO_Init+0x35c>)
 80018d4:	69fb      	ldr	r3, [r7, #28]
 80018d6:	089b      	lsrs	r3, r3, #2
 80018d8:	3302      	adds	r3, #2
 80018da:	69ba      	ldr	r2, [r7, #24]
 80018dc:	f841 2023 	str.w	r2, [r1, r3, lsl #2]

        /* Clear Rising Falling edge configuration */
        temp = EXTI->RTSR1;
 80018e0:	f04f 43b0 	mov.w	r3, #1476395008	; 0x58000000
 80018e4:	681b      	ldr	r3, [r3, #0]
 80018e6:	61bb      	str	r3, [r7, #24]
        temp &= ~(iocurrent);
 80018e8:	693b      	ldr	r3, [r7, #16]
 80018ea:	43db      	mvns	r3, r3
 80018ec:	69ba      	ldr	r2, [r7, #24]
 80018ee:	4013      	ands	r3, r2
 80018f0:	61bb      	str	r3, [r7, #24]
        if ((GPIO_Init->Mode & TRIGGER_RISING) != 0x00U)
 80018f2:	683b      	ldr	r3, [r7, #0]
 80018f4:	685b      	ldr	r3, [r3, #4]
 80018f6:	f403 1380 	and.w	r3, r3, #1048576	; 0x100000
 80018fa:	2b00      	cmp	r3, #0
 80018fc:	d003      	beq.n	8001906 <HAL_GPIO_Init+0x2ae>
        {
          temp |= iocurrent;
 80018fe:	69ba      	ldr	r2, [r7, #24]
 8001900:	693b      	ldr	r3, [r7, #16]
 8001902:	4313      	orrs	r3, r2
 8001904:	61bb      	str	r3, [r7, #24]
        }
        EXTI->RTSR1 = temp;
 8001906:	f04f 42b0 	mov.w	r2, #1476395008	; 0x58000000
 800190a:	69bb      	ldr	r3, [r7, #24]
 800190c:	6013      	str	r3, [r2, #0]

        temp = EXTI->FTSR1;
 800190e:	f04f 43b0 	mov.w	r3, #1476395008	; 0x58000000
 8001912:	685b      	ldr	r3, [r3, #4]
 8001914:	61bb      	str	r3, [r7, #24]
        temp &= ~(iocurrent);
 8001916:	693b      	ldr	r3, [r7, #16]
 8001918:	43db      	mvns	r3, r3
 800191a:	69ba      	ldr	r2, [r7, #24]
 800191c:	4013      	ands	r3, r2
 800191e:	61bb      	str	r3, [r7, #24]
        if ((GPIO_Init->Mode & TRIGGER_FALLING) != 0x00U)
 8001920:	683b      	ldr	r3, [r7, #0]
 8001922:	685b      	ldr	r3, [r3, #4]
 8001924:	f403 1300 	and.w	r3, r3, #2097152	; 0x200000
 8001928:	2b00      	cmp	r3, #0
 800192a:	d003      	beq.n	8001934 <HAL_GPIO_Init+0x2dc>
        {
          temp |= iocurrent;
 800192c:	69ba      	ldr	r2, [r7, #24]
 800192e:	693b      	ldr	r3, [r7, #16]
 8001930:	4313      	orrs	r3, r2
 8001932:	61bb      	str	r3, [r7, #24]
        }
        EXTI->FTSR1 = temp;
 8001934:	f04f 42b0 	mov.w	r2, #1476395008	; 0x58000000
 8001938:	69bb      	ldr	r3, [r7, #24]
 800193a:	6053      	str	r3, [r2, #4]

        temp = EXTI_CurrentCPU->EMR1;
 800193c:	697b      	ldr	r3, [r7, #20]
 800193e:	685b      	ldr	r3, [r3, #4]
 8001940:	61bb      	str	r3, [r7, #24]
        temp &= ~(iocurrent);
 8001942:	693b      	ldr	r3, [r7, #16]
 8001944:	43db      	mvns	r3, r3
 8001946:	69ba      	ldr	r2, [r7, #24]
 8001948:	4013      	ands	r3, r2
 800194a:	61bb      	str	r3, [r7, #24]
        if ((GPIO_Init->Mode & EXTI_EVT) != 0x00U)
 800194c:	683b      	ldr	r3, [r7, #0]
 800194e:	685b      	ldr	r3, [r3, #4]
 8001950:	f403 3300 	and.w	r3, r3, #131072	; 0x20000
 8001954:	2b00      	cmp	r3, #0
 8001956:	d003      	beq.n	8001960 <HAL_GPIO_Init+0x308>
        {
          temp |= iocurrent;
 8001958:	69ba      	ldr	r2, [r7, #24]
 800195a:	693b      	ldr	r3, [r7, #16]
 800195c:	4313      	orrs	r3, r2
 800195e:	61bb      	str	r3, [r7, #24]
        }
        EXTI_CurrentCPU->EMR1 = temp;
 8001960:	697b      	ldr	r3, [r7, #20]
 8001962:	69ba      	ldr	r2, [r7, #24]
 8001964:	605a      	str	r2, [r3, #4]

        /* Clear EXTI line configuration */
        temp = EXTI_CurrentCPU->IMR1;
 8001966:	697b      	ldr	r3, [r7, #20]
 8001968:	681b      	ldr	r3, [r3, #0]
 800196a:	61bb      	str	r3, [r7, #24]
        temp &= ~(iocurrent);
 800196c:	693b      	ldr	r3, [r7, #16]
 800196e:	43db      	mvns	r3, r3
 8001970:	69ba      	ldr	r2, [r7, #24]
 8001972:	4013      	ands	r3, r2
 8001974:	61bb      	str	r3, [r7, #24]
        if ((GPIO_Init->Mode & EXTI_IT) != 0x00U)
 8001976:	683b      	ldr	r3, [r7, #0]
 8001978:	685b      	ldr	r3, [r3, #4]
 800197a:	f403 3380 	and.w	r3, r3, #65536	; 0x10000
 800197e:	2b00      	cmp	r3, #0
 8001980:	d003      	beq.n	800198a <HAL_GPIO_Init+0x332>
        {
          temp |= iocurrent;
 8001982:	69ba      	ldr	r2, [r7, #24]
 8001984:	693b      	ldr	r3, [r7, #16]
 8001986:	4313      	orrs	r3, r2
 8001988:	61bb      	str	r3, [r7, #24]
        }
        EXTI_CurrentCPU->IMR1 = temp;
 800198a:	697b      	ldr	r3, [r7, #20]
 800198c:	69ba      	ldr	r2, [r7, #24]
 800198e:	601a      	str	r2, [r3, #0]
      }
    }

    position++;
 8001990:	69fb      	ldr	r3, [r7, #28]
 8001992:	3301      	adds	r3, #1
 8001994:	61fb      	str	r3, [r7, #28]
  while (((GPIO_Init->Pin) >> position) != 0x00U)
 8001996:	683b      	ldr	r3, [r7, #0]
 8001998:	681a      	ldr	r2, [r3, #0]
 800199a:	69fb      	ldr	r3, [r7, #28]
 800199c:	fa22 f303 	lsr.w	r3, r2, r3
 80019a0:	2b00      	cmp	r3, #0
 80019a2:	f47f ae63 	bne.w	800166c <HAL_GPIO_Init+0x14>
  }
}
 80019a6:	bf00      	nop
 80019a8:	bf00      	nop
 80019aa:	3724      	adds	r7, #36	; 0x24
 80019ac:	46bd      	mov	sp, r7
 80019ae:	f85d 7b04 	ldr.w	r7, [sp], #4
 80019b2:	4770      	bx	lr
 80019b4:	58000400 	.word	0x58000400

080019b8 <HAL_GPIO_ReadPin>:
  * @param  GPIO_Pin: specifies the port bit to read.
  *         This parameter can be GPIO_PIN_x where x can be (0..15).
  * @retval The input port pin value.
  */
GPIO_PinState HAL_GPIO_ReadPin(GPIO_TypeDef *GPIOx, uint16_t GPIO_Pin)
{
 80019b8:	b480      	push	{r7}
 80019ba:	b085      	sub	sp, #20
 80019bc:	af00      	add	r7, sp, #0
 80019be:	6078      	str	r0, [r7, #4]
 80019c0:	460b      	mov	r3, r1
 80019c2:	807b      	strh	r3, [r7, #2]
  GPIO_PinState bitstatus;

  /* Check the parameters */
  assert_param(IS_GPIO_PIN(GPIO_Pin));

  if ((GPIOx->IDR & GPIO_Pin) != 0x00U)
 80019c4:	687b      	ldr	r3, [r7, #4]
 80019c6:	691a      	ldr	r2, [r3, #16]
 80019c8:	887b      	ldrh	r3, [r7, #2]
 80019ca:	4013      	ands	r3, r2
 80019cc:	2b00      	cmp	r3, #0
 80019ce:	d002      	beq.n	80019d6 <HAL_GPIO_ReadPin+0x1e>
  {
    bitstatus = GPIO_PIN_SET;
 80019d0:	2301      	movs	r3, #1
 80019d2:	73fb      	strb	r3, [r7, #15]
 80019d4:	e001      	b.n	80019da <HAL_GPIO_ReadPin+0x22>
  }
  else
  {
    bitstatus = GPIO_PIN_RESET;
 80019d6:	2300      	movs	r3, #0
 80019d8:	73fb      	strb	r3, [r7, #15]
  }
  return bitstatus;
 80019da:	7bfb      	ldrb	r3, [r7, #15]
}
 80019dc:	4618      	mov	r0, r3
 80019de:	3714      	adds	r7, #20
 80019e0:	46bd      	mov	sp, r7
 80019e2:	f85d 7b04 	ldr.w	r7, [sp], #4
 80019e6:	4770      	bx	lr

080019e8 <HAL_GPIO_WritePin>:
  *            @arg GPIO_PIN_RESET: to clear the port pin
  *            @arg GPIO_PIN_SET: to set the port pin
  * @retval None
  */
void HAL_GPIO_WritePin(GPIO_TypeDef *GPIOx, uint16_t GPIO_Pin, GPIO_PinState PinState)
{
 80019e8:	b480      	push	{r7}
 80019ea:	b083      	sub	sp, #12
 80019ec:	af00      	add	r7, sp, #0
 80019ee:	6078      	str	r0, [r7, #4]
 80019f0:	460b      	mov	r3, r1
 80019f2:	807b      	strh	r3, [r7, #2]
 80019f4:	4613      	mov	r3, r2
 80019f6:	707b      	strb	r3, [r7, #1]
  /* Check the parameters */
  assert_param(IS_GPIO_PIN(GPIO_Pin));
  assert_param(IS_GPIO_PIN_ACTION(PinState));

  if (PinState != GPIO_PIN_RESET)
 80019f8:	787b      	ldrb	r3, [r7, #1]
 80019fa:	2b00      	cmp	r3, #0
 80019fc:	d003      	beq.n	8001a06 <HAL_GPIO_WritePin+0x1e>
  {
    GPIOx->BSRR = GPIO_Pin;
 80019fe:	887a      	ldrh	r2, [r7, #2]
 8001a00:	687b      	ldr	r3, [r7, #4]
 8001a02:	619a      	str	r2, [r3, #24]
  }
  else
  {
    GPIOx->BSRR = (uint32_t)GPIO_Pin << GPIO_NUMBER;
  }
}
 8001a04:	e003      	b.n	8001a0e <HAL_GPIO_WritePin+0x26>
    GPIOx->BSRR = (uint32_t)GPIO_Pin << GPIO_NUMBER;
 8001a06:	887b      	ldrh	r3, [r7, #2]
 8001a08:	041a      	lsls	r2, r3, #16
 8001a0a:	687b      	ldr	r3, [r7, #4]
 8001a0c:	619a      	str	r2, [r3, #24]
}
 8001a0e:	bf00      	nop
 8001a10:	370c      	adds	r7, #12
 8001a12:	46bd      	mov	sp, r7
 8001a14:	f85d 7b04 	ldr.w	r7, [sp], #4
 8001a18:	4770      	bx	lr

08001a1a <HAL_PCD_Init>:
  *         parameters in the PCD_InitTypeDef and initialize the associated handle.
  * @param  hpcd PCD handle
  * @retval HAL status
  */
HAL_StatusTypeDef HAL_PCD_Init(PCD_HandleTypeDef *hpcd)
{
 8001a1a:	b5f0      	push	{r4, r5, r6, r7, lr}
 8001a1c:	b08f      	sub	sp, #60	; 0x3c
 8001a1e:	af0a      	add	r7, sp, #40	; 0x28
 8001a20:	6078      	str	r0, [r7, #4]
  USB_OTG_GlobalTypeDef *USBx;
  uint8_t i;

  /* Check the PCD handle allocation */
  if (hpcd == NULL)
 8001a22:	687b      	ldr	r3, [r7, #4]
 8001a24:	2b00      	cmp	r3, #0
 8001a26:	d101      	bne.n	8001a2c <HAL_PCD_Init+0x12>
  {
    return HAL_ERROR;
 8001a28:	2301      	movs	r3, #1
 8001a2a:	e116      	b.n	8001c5a <HAL_PCD_Init+0x240>
  }

  /* Check the parameters */
  assert_param(IS_PCD_ALL_INSTANCE(hpcd->Instance));

  USBx = hpcd->Instance;
 8001a2c:	687b      	ldr	r3, [r7, #4]
 8001a2e:	681b      	ldr	r3, [r3, #0]
 8001a30:	60bb      	str	r3, [r7, #8]

  if (hpcd->State == HAL_PCD_STATE_RESET)
 8001a32:	687b      	ldr	r3, [r7, #4]
 8001a34:	f893 34bd 	ldrb.w	r3, [r3, #1213]	; 0x4bd
 8001a38:	b2db      	uxtb	r3, r3
 8001a3a:	2b00      	cmp	r3, #0
 8001a3c:	d106      	bne.n	8001a4c <HAL_PCD_Init+0x32>
  {
    /* Allocate lock resource and initialize it */
    hpcd->Lock = HAL_UNLOCKED;
 8001a3e:	687b      	ldr	r3, [r7, #4]
 8001a40:	2200      	movs	r2, #0
 8001a42:	f883 24bc 	strb.w	r2, [r3, #1212]	; 0x4bc

    /* Init the low level hardware */
    hpcd->MspInitCallback(hpcd);
#else
    /* Init the low level hardware : GPIO, CLOCK, NVIC... */
    HAL_PCD_MspInit(hpcd);
 8001a46:	6878      	ldr	r0, [r7, #4]
 8001a48:	f008 fda8 	bl	800a59c <HAL_PCD_MspInit>
#endif /* (USE_HAL_PCD_REGISTER_CALLBACKS) */
  }

  hpcd->State = HAL_PCD_STATE_BUSY;
 8001a4c:	687b      	ldr	r3, [r7, #4]
 8001a4e:	2203      	movs	r2, #3
 8001a50:	f883 24bd 	strb.w	r2, [r3, #1213]	; 0x4bd

  /* Disable DMA mode for FS instance */
  if ((USBx->CID & (0x1U << 8)) == 0U)
 8001a54:	68bb      	ldr	r3, [r7, #8]
 8001a56:	6bdb      	ldr	r3, [r3, #60]	; 0x3c
 8001a58:	f403 7380 	and.w	r3, r3, #256	; 0x100
 8001a5c:	2b00      	cmp	r3, #0
 8001a5e:	d102      	bne.n	8001a66 <HAL_PCD_Init+0x4c>
  {
    hpcd->Init.dma_enable = 0U;
 8001a60:	687b      	ldr	r3, [r7, #4]
 8001a62:	2200      	movs	r2, #0
 8001a64:	60da      	str	r2, [r3, #12]
  }

  /* Disable the Interrupts */
  __HAL_PCD_DISABLE(hpcd);
 8001a66:	687b      	ldr	r3, [r7, #4]
 8001a68:	681b      	ldr	r3, [r3, #0]
 8001a6a:	4618      	mov	r0, r3
 8001a6c:	f005 fae1 	bl	8007032 <USB_DisableGlobalInt>

  /*Init the Core (common init.) */
  if (USB_CoreInit(hpcd->Instance, hpcd->Init) != HAL_OK)
 8001a70:	687b      	ldr	r3, [r7, #4]
 8001a72:	681b      	ldr	r3, [r3, #0]
 8001a74:	603b      	str	r3, [r7, #0]
 8001a76:	687e      	ldr	r6, [r7, #4]
 8001a78:	466d      	mov	r5, sp
 8001a7a:	f106 0410 	add.w	r4, r6, #16
 8001a7e:	cc0f      	ldmia	r4!, {r0, r1, r2, r3}
 8001a80:	c50f      	stmia	r5!, {r0, r1, r2, r3}
 8001a82:	cc0f      	ldmia	r4!, {r0, r1, r2, r3}
 8001a84:	c50f      	stmia	r5!, {r0, r1, r2, r3}
 8001a86:	e894 0003 	ldmia.w	r4, {r0, r1}
 8001a8a:	e885 0003 	stmia.w	r5, {r0, r1}
 8001a8e:	1d33      	adds	r3, r6, #4
 8001a90:	cb0e      	ldmia	r3, {r1, r2, r3}
 8001a92:	6838      	ldr	r0, [r7, #0]
 8001a94:	f005 f9ac 	bl	8006df0 <USB_CoreInit>
 8001a98:	4603      	mov	r3, r0
 8001a9a:	2b00      	cmp	r3, #0
 8001a9c:	d005      	beq.n	8001aaa <HAL_PCD_Init+0x90>
  {
    hpcd->State = HAL_PCD_STATE_ERROR;
 8001a9e:	687b      	ldr	r3, [r7, #4]
 8001aa0:	2202      	movs	r2, #2
 8001aa2:	f883 24bd 	strb.w	r2, [r3, #1213]	; 0x4bd
    return HAL_ERROR;
 8001aa6:	2301      	movs	r3, #1
 8001aa8:	e0d7      	b.n	8001c5a <HAL_PCD_Init+0x240>
  }

  /* Force Device Mode*/
  (void)USB_SetCurrentMode(hpcd->Instance, USB_DEVICE_MODE);
 8001aaa:	687b      	ldr	r3, [r7, #4]
 8001aac:	681b      	ldr	r3, [r3, #0]
 8001aae:	2100      	movs	r1, #0
 8001ab0:	4618      	mov	r0, r3
 8001ab2:	f005 facf 	bl	8007054 <USB_SetCurrentMode>

  /* Init endpoints structures */
  for (i = 0U; i < hpcd->Init.dev_endpoints; i++)
 8001ab6:	2300      	movs	r3, #0
 8001ab8:	73fb      	strb	r3, [r7, #15]
 8001aba:	e04a      	b.n	8001b52 <HAL_PCD_Init+0x138>
  {
    /* Init ep structure */
    hpcd->IN_ep[i].is_in = 1U;
 8001abc:	7bfa      	ldrb	r2, [r7, #15]
 8001abe:	6879      	ldr	r1, [r7, #4]
 8001ac0:	4613      	mov	r3, r2
 8001ac2:	00db      	lsls	r3, r3, #3
 8001ac4:	4413      	add	r3, r2
 8001ac6:	009b      	lsls	r3, r3, #2
 8001ac8:	440b      	add	r3, r1
 8001aca:	333d      	adds	r3, #61	; 0x3d
 8001acc:	2201      	movs	r2, #1
 8001ace:	701a      	strb	r2, [r3, #0]
    hpcd->IN_ep[i].num = i;
 8001ad0:	7bfa      	ldrb	r2, [r7, #15]
 8001ad2:	6879      	ldr	r1, [r7, #4]
 8001ad4:	4613      	mov	r3, r2
 8001ad6:	00db      	lsls	r3, r3, #3
 8001ad8:	4413      	add	r3, r2
 8001ada:	009b      	lsls	r3, r3, #2
 8001adc:	440b      	add	r3, r1
 8001ade:	333c      	adds	r3, #60	; 0x3c
 8001ae0:	7bfa      	ldrb	r2, [r7, #15]
 8001ae2:	701a      	strb	r2, [r3, #0]
    hpcd->IN_ep[i].tx_fifo_num = i;
 8001ae4:	7bfa      	ldrb	r2, [r7, #15]
 8001ae6:	7bfb      	ldrb	r3, [r7, #15]
 8001ae8:	b298      	uxth	r0, r3
 8001aea:	6879      	ldr	r1, [r7, #4]
 8001aec:	4613      	mov	r3, r2
 8001aee:	00db      	lsls	r3, r3, #3
 8001af0:	4413      	add	r3, r2
 8001af2:	009b      	lsls	r3, r3, #2
 8001af4:	440b      	add	r3, r1
 8001af6:	3356      	adds	r3, #86	; 0x56
 8001af8:	4602      	mov	r2, r0
 8001afa:	801a      	strh	r2, [r3, #0]
    /* Control until ep is activated */
    hpcd->IN_ep[i].type = EP_TYPE_CTRL;
 8001afc:	7bfa      	ldrb	r2, [r7, #15]
 8001afe:	6879      	ldr	r1, [r7, #4]
 8001b00:	4613      	mov	r3, r2
 8001b02:	00db      	lsls	r3, r3, #3
 8001b04:	4413      	add	r3, r2
 8001b06:	009b      	lsls	r3, r3, #2
 8001b08:	440b      	add	r3, r1
 8001b0a:	3340      	adds	r3, #64	; 0x40
 8001b0c:	2200      	movs	r2, #0
 8001b0e:	701a      	strb	r2, [r3, #0]
    hpcd->IN_ep[i].maxpacket = 0U;
 8001b10:	7bfa      	ldrb	r2, [r7, #15]
 8001b12:	6879      	ldr	r1, [r7, #4]
 8001b14:	4613      	mov	r3, r2
 8001b16:	00db      	lsls	r3, r3, #3
 8001b18:	4413      	add	r3, r2
 8001b1a:	009b      	lsls	r3, r3, #2
 8001b1c:	440b      	add	r3, r1
 8001b1e:	3344      	adds	r3, #68	; 0x44
 8001b20:	2200      	movs	r2, #0
 8001b22:	601a      	str	r2, [r3, #0]
    hpcd->IN_ep[i].xfer_buff = 0U;
 8001b24:	7bfa      	ldrb	r2, [r7, #15]
 8001b26:	6879      	ldr	r1, [r7, #4]
 8001b28:	4613      	mov	r3, r2
 8001b2a:	00db      	lsls	r3, r3, #3
 8001b2c:	4413      	add	r3, r2
 8001b2e:	009b      	lsls	r3, r3, #2
 8001b30:	440b      	add	r3, r1
 8001b32:	3348      	adds	r3, #72	; 0x48
 8001b34:	2200      	movs	r2, #0
 8001b36:	601a      	str	r2, [r3, #0]
    hpcd->IN_ep[i].xfer_len = 0U;
 8001b38:	7bfa      	ldrb	r2, [r7, #15]
 8001b3a:	6879      	ldr	r1, [r7, #4]
 8001b3c:	4613      	mov	r3, r2
 8001b3e:	00db      	lsls	r3, r3, #3
 8001b40:	4413      	add	r3, r2
 8001b42:	009b      	lsls	r3, r3, #2
 8001b44:	440b      	add	r3, r1
 8001b46:	334c      	adds	r3, #76	; 0x4c
 8001b48:	2200      	movs	r2, #0
 8001b4a:	601a      	str	r2, [r3, #0]
  for (i = 0U; i < hpcd->Init.dev_endpoints; i++)
 8001b4c:	7bfb      	ldrb	r3, [r7, #15]
 8001b4e:	3301      	adds	r3, #1
 8001b50:	73fb      	strb	r3, [r7, #15]
 8001b52:	7bfa      	ldrb	r2, [r7, #15]
 8001b54:	687b      	ldr	r3, [r7, #4]
 8001b56:	685b      	ldr	r3, [r3, #4]
 8001b58:	429a      	cmp	r2, r3
 8001b5a:	d3af      	bcc.n	8001abc <HAL_PCD_Init+0xa2>
  }

  for (i = 0U; i < hpcd->Init.dev_endpoints; i++)
 8001b5c:	2300      	movs	r3, #0
 8001b5e:	73fb      	strb	r3, [r7, #15]
 8001b60:	e044      	b.n	8001bec <HAL_PCD_Init+0x1d2>
  {
    hpcd->OUT_ep[i].is_in = 0U;
 8001b62:	7bfa      	ldrb	r2, [r7, #15]
 8001b64:	6879      	ldr	r1, [r7, #4]
 8001b66:	4613      	mov	r3, r2
 8001b68:	00db      	lsls	r3, r3, #3
 8001b6a:	4413      	add	r3, r2
 8001b6c:	009b      	lsls	r3, r3, #2
 8001b6e:	440b      	add	r3, r1
 8001b70:	f203 237d 	addw	r3, r3, #637	; 0x27d
 8001b74:	2200      	movs	r2, #0
 8001b76:	701a      	strb	r2, [r3, #0]
    hpcd->OUT_ep[i].num = i;
 8001b78:	7bfa      	ldrb	r2, [r7, #15]
 8001b7a:	6879      	ldr	r1, [r7, #4]
 8001b7c:	4613      	mov	r3, r2
 8001b7e:	00db      	lsls	r3, r3, #3
 8001b80:	4413      	add	r3, r2
 8001b82:	009b      	lsls	r3, r3, #2
 8001b84:	440b      	add	r3, r1
 8001b86:	f503 731f 	add.w	r3, r3, #636	; 0x27c
 8001b8a:	7bfa      	ldrb	r2, [r7, #15]
 8001b8c:	701a      	strb	r2, [r3, #0]
    /* Control until ep is activated */
    hpcd->OUT_ep[i].type = EP_TYPE_CTRL;
 8001b8e:	7bfa      	ldrb	r2, [r7, #15]
 8001b90:	6879      	ldr	r1, [r7, #4]
 8001b92:	4613      	mov	r3, r2
 8001b94:	00db      	lsls	r3, r3, #3
 8001b96:	4413      	add	r3, r2
 8001b98:	009b      	lsls	r3, r3, #2
 8001b9a:	440b      	add	r3, r1
 8001b9c:	f503 7320 	add.w	r3, r3, #640	; 0x280
 8001ba0:	2200      	movs	r2, #0
 8001ba2:	701a      	strb	r2, [r3, #0]
    hpcd->OUT_ep[i].maxpacket = 0U;
 8001ba4:	7bfa      	ldrb	r2, [r7, #15]
 8001ba6:	6879      	ldr	r1, [r7, #4]
 8001ba8:	4613      	mov	r3, r2
 8001baa:	00db      	lsls	r3, r3, #3
 8001bac:	4413      	add	r3, r2
 8001bae:	009b      	lsls	r3, r3, #2
 8001bb0:	440b      	add	r3, r1
 8001bb2:	f503 7321 	add.w	r3, r3, #644	; 0x284
 8001bb6:	2200      	movs	r2, #0
 8001bb8:	601a      	str	r2, [r3, #0]
    hpcd->OUT_ep[i].xfer_buff = 0U;
 8001bba:	7bfa      	ldrb	r2, [r7, #15]
 8001bbc:	6879      	ldr	r1, [r7, #4]
 8001bbe:	4613      	mov	r3, r2
 8001bc0:	00db      	lsls	r3, r3, #3
 8001bc2:	4413      	add	r3, r2
 8001bc4:	009b      	lsls	r3, r3, #2
 8001bc6:	440b      	add	r3, r1
 8001bc8:	f503 7322 	add.w	r3, r3, #648	; 0x288
 8001bcc:	2200      	movs	r2, #0
 8001bce:	601a      	str	r2, [r3, #0]
    hpcd->OUT_ep[i].xfer_len = 0U;
 8001bd0:	7bfa      	ldrb	r2, [r7, #15]
 8001bd2:	6879      	ldr	r1, [r7, #4]
 8001bd4:	4613      	mov	r3, r2
 8001bd6:	00db      	lsls	r3, r3, #3
 8001bd8:	4413      	add	r3, r2
 8001bda:	009b      	lsls	r3, r3, #2
 8001bdc:	440b      	add	r3, r1
 8001bde:	f503 7323 	add.w	r3, r3, #652	; 0x28c
 8001be2:	2200      	movs	r2, #0
 8001be4:	601a      	str	r2, [r3, #0]
  for (i = 0U; i < hpcd->Init.dev_endpoints; i++)
 8001be6:	7bfb      	ldrb	r3, [r7, #15]
 8001be8:	3301      	adds	r3, #1
 8001bea:	73fb      	strb	r3, [r7, #15]
 8001bec:	7bfa      	ldrb	r2, [r7, #15]
 8001bee:	687b      	ldr	r3, [r7, #4]
 8001bf0:	685b      	ldr	r3, [r3, #4]
 8001bf2:	429a      	cmp	r2, r3
 8001bf4:	d3b5      	bcc.n	8001b62 <HAL_PCD_Init+0x148>
  }

  /* Init Device */
  if (USB_DevInit(hpcd->Instance, hpcd->Init) != HAL_OK)
 8001bf6:	687b      	ldr	r3, [r7, #4]
 8001bf8:	681b      	ldr	r3, [r3, #0]
 8001bfa:	603b      	str	r3, [r7, #0]
 8001bfc:	687e      	ldr	r6, [r7, #4]
 8001bfe:	466d      	mov	r5, sp
 8001c00:	f106 0410 	add.w	r4, r6, #16
 8001c04:	cc0f      	ldmia	r4!, {r0, r1, r2, r3}
 8001c06:	c50f      	stmia	r5!, {r0, r1, r2, r3}
 8001c08:	cc0f      	ldmia	r4!, {r0, r1, r2, r3}
 8001c0a:	c50f      	stmia	r5!, {r0, r1, r2, r3}
 8001c0c:	e894 0003 	ldmia.w	r4, {r0, r1}
 8001c10:	e885 0003 	stmia.w	r5, {r0, r1}
 8001c14:	1d33      	adds	r3, r6, #4
 8001c16:	cb0e      	ldmia	r3, {r1, r2, r3}
 8001c18:	6838      	ldr	r0, [r7, #0]
 8001c1a:	f005 fa67 	bl	80070ec <USB_DevInit>
 8001c1e:	4603      	mov	r3, r0
 8001c20:	2b00      	cmp	r3, #0
 8001c22:	d005      	beq.n	8001c30 <HAL_PCD_Init+0x216>
  {
    hpcd->State = HAL_PCD_STATE_ERROR;
 8001c24:	687b      	ldr	r3, [r7, #4]
 8001c26:	2202      	movs	r2, #2
 8001c28:	f883 24bd 	strb.w	r2, [r3, #1213]	; 0x4bd
    return HAL_ERROR;
 8001c2c:	2301      	movs	r3, #1
 8001c2e:	e014      	b.n	8001c5a <HAL_PCD_Init+0x240>
  }

  hpcd->USB_Address = 0U;
 8001c30:	687b      	ldr	r3, [r7, #4]
 8001c32:	2200      	movs	r2, #0
 8001c34:	f883 2038 	strb.w	r2, [r3, #56]	; 0x38
  hpcd->State = HAL_PCD_STATE_READY;
 8001c38:	687b      	ldr	r3, [r7, #4]
 8001c3a:	2201      	movs	r2, #1
 8001c3c:	f883 24bd 	strb.w	r2, [r3, #1213]	; 0x4bd

  /* Activate LPM */
  if (hpcd->Init.lpm_enable == 1U)
 8001c40:	687b      	ldr	r3, [r7, #4]
 8001c42:	6a5b      	ldr	r3, [r3, #36]	; 0x24
 8001c44:	2b01      	cmp	r3, #1
 8001c46:	d102      	bne.n	8001c4e <HAL_PCD_Init+0x234>
  {
    (void)HAL_PCDEx_ActivateLPM(hpcd);
 8001c48:	6878      	ldr	r0, [r7, #4]
 8001c4a:	f001 f96f 	bl	8002f2c <HAL_PCDEx_ActivateLPM>
  }

  (void)USB_DevDisconnect(hpcd->Instance);
 8001c4e:	687b      	ldr	r3, [r7, #4]
 8001c50:	681b      	ldr	r3, [r3, #0]
 8001c52:	4618      	mov	r0, r3
 8001c54:	f006 faa9 	bl	80081aa <USB_DevDisconnect>

  return HAL_OK;
 8001c58:	2300      	movs	r3, #0
}
 8001c5a:	4618      	mov	r0, r3
 8001c5c:	3714      	adds	r7, #20
 8001c5e:	46bd      	mov	sp, r7
 8001c60:	bdf0      	pop	{r4, r5, r6, r7, pc}

08001c62 <HAL_PCD_Start>:
  * @brief  Start the USB device
  * @param  hpcd PCD handle
  * @retval HAL status
  */
HAL_StatusTypeDef HAL_PCD_Start(PCD_HandleTypeDef *hpcd)
{
 8001c62:	b580      	push	{r7, lr}
 8001c64:	b084      	sub	sp, #16
 8001c66:	af00      	add	r7, sp, #0
 8001c68:	6078      	str	r0, [r7, #4]
  USB_OTG_GlobalTypeDef *USBx = hpcd->Instance;
 8001c6a:	687b      	ldr	r3, [r7, #4]
 8001c6c:	681b      	ldr	r3, [r3, #0]
 8001c6e:	60fb      	str	r3, [r7, #12]

  __HAL_LOCK(hpcd);
 8001c70:	687b      	ldr	r3, [r7, #4]
 8001c72:	f893 34bc 	ldrb.w	r3, [r3, #1212]	; 0x4bc
 8001c76:	2b01      	cmp	r3, #1
 8001c78:	d101      	bne.n	8001c7e <HAL_PCD_Start+0x1c>
 8001c7a:	2302      	movs	r3, #2
 8001c7c:	e022      	b.n	8001cc4 <HAL_PCD_Start+0x62>
 8001c7e:	687b      	ldr	r3, [r7, #4]
 8001c80:	2201      	movs	r2, #1
 8001c82:	f883 24bc 	strb.w	r2, [r3, #1212]	; 0x4bc

  if (((USBx->CID & (0x1U << 8)) == 0U) &&
 8001c86:	68fb      	ldr	r3, [r7, #12]
 8001c88:	6bdb      	ldr	r3, [r3, #60]	; 0x3c
 8001c8a:	f403 7380 	and.w	r3, r3, #256	; 0x100
 8001c8e:	2b00      	cmp	r3, #0
 8001c90:	d109      	bne.n	8001ca6 <HAL_PCD_Start+0x44>
      (hpcd->Init.battery_charging_enable == 1U))
 8001c92:	687b      	ldr	r3, [r7, #4]
 8001c94:	6a9b      	ldr	r3, [r3, #40]	; 0x28
  if (((USBx->CID & (0x1U << 8)) == 0U) &&
 8001c96:	2b01      	cmp	r3, #1
 8001c98:	d105      	bne.n	8001ca6 <HAL_PCD_Start+0x44>
  {
    /* Enable USB Transceiver */
    USBx->GCCFG |= USB_OTG_GCCFG_PWRDWN;
 8001c9a:	68fb      	ldr	r3, [r7, #12]
 8001c9c:	6b9b      	ldr	r3, [r3, #56]	; 0x38
 8001c9e:	f443 3280 	orr.w	r2, r3, #65536	; 0x10000
 8001ca2:	68fb      	ldr	r3, [r7, #12]
 8001ca4:	639a      	str	r2, [r3, #56]	; 0x38
  }

  __HAL_PCD_ENABLE(hpcd);
 8001ca6:	687b      	ldr	r3, [r7, #4]
 8001ca8:	681b      	ldr	r3, [r3, #0]
 8001caa:	4618      	mov	r0, r3
 8001cac:	f005 f9b0 	bl	8007010 <USB_EnableGlobalInt>
  (void)USB_DevConnect(hpcd->Instance);
 8001cb0:	687b      	ldr	r3, [r7, #4]
 8001cb2:	681b      	ldr	r3, [r3, #0]
 8001cb4:	4618      	mov	r0, r3
 8001cb6:	f006 fa57 	bl	8008168 <USB_DevConnect>
  __HAL_UNLOCK(hpcd);
 8001cba:	687b      	ldr	r3, [r7, #4]
 8001cbc:	2200      	movs	r2, #0
 8001cbe:	f883 24bc 	strb.w	r2, [r3, #1212]	; 0x4bc

  return HAL_OK;
 8001cc2:	2300      	movs	r3, #0
}
 8001cc4:	4618      	mov	r0, r3
 8001cc6:	3710      	adds	r7, #16
 8001cc8:	46bd      	mov	sp, r7
 8001cca:	bd80      	pop	{r7, pc}

08001ccc <HAL_PCD_IRQHandler>:
  * @brief  Handles PCD interrupt request.
  * @param  hpcd PCD handle
  * @retval HAL status
  */
void HAL_PCD_IRQHandler(PCD_HandleTypeDef *hpcd)
{
 8001ccc:	b590      	push	{r4, r7, lr}
 8001cce:	b08d      	sub	sp, #52	; 0x34
 8001cd0:	af00      	add	r7, sp, #0
 8001cd2:	6078      	str	r0, [r7, #4]
  USB_OTG_GlobalTypeDef *USBx = hpcd->Instance;
 8001cd4:	687b      	ldr	r3, [r7, #4]
 8001cd6:	681b      	ldr	r3, [r3, #0]
 8001cd8:	623b      	str	r3, [r7, #32]
  uint32_t USBx_BASE = (uint32_t)USBx;
 8001cda:	6a3b      	ldr	r3, [r7, #32]
 8001cdc:	61fb      	str	r3, [r7, #28]
  uint32_t epnum;
  uint32_t fifoemptymsk;
  uint32_t RegVal;

  /* ensure that we are in device mode */
  if (USB_GetMode(hpcd->Instance) == USB_OTG_MODE_DEVICE)
 8001cde:	687b      	ldr	r3, [r7, #4]
 8001ce0:	681b      	ldr	r3, [r3, #0]
 8001ce2:	4618      	mov	r0, r3
 8001ce4:	f006 fb15 	bl	8008312 <USB_GetMode>
 8001ce8:	4603      	mov	r3, r0
 8001cea:	2b00      	cmp	r3, #0
 8001cec:	f040 84b7 	bne.w	800265e <HAL_PCD_IRQHandler+0x992>
  {
    /* avoid spurious interrupt */
    if (__HAL_PCD_IS_INVALID_INTERRUPT(hpcd))
 8001cf0:	687b      	ldr	r3, [r7, #4]
 8001cf2:	681b      	ldr	r3, [r3, #0]
 8001cf4:	4618      	mov	r0, r3
 8001cf6:	f006 fa79 	bl	80081ec <USB_ReadInterrupts>
 8001cfa:	4603      	mov	r3, r0
 8001cfc:	2b00      	cmp	r3, #0
 8001cfe:	f000 84ad 	beq.w	800265c <HAL_PCD_IRQHandler+0x990>
    {
      return;
    }

    /* store current frame number */
    hpcd->FrameNumber = (USBx_DEVICE->DSTS & USB_OTG_DSTS_FNSOF_Msk) >> USB_OTG_DSTS_FNSOF_Pos;
 8001d02:	69fb      	ldr	r3, [r7, #28]
 8001d04:	f503 6300 	add.w	r3, r3, #2048	; 0x800
 8001d08:	689b      	ldr	r3, [r3, #8]
 8001d0a:	0a1b      	lsrs	r3, r3, #8
 8001d0c:	f3c3 020d 	ubfx	r2, r3, #0, #14
 8001d10:	687b      	ldr	r3, [r7, #4]
 8001d12:	f8c3 24fc 	str.w	r2, [r3, #1276]	; 0x4fc

    if (__HAL_PCD_GET_FLAG(hpcd, USB_OTG_GINTSTS_MMIS))
 8001d16:	687b      	ldr	r3, [r7, #4]
 8001d18:	681b      	ldr	r3, [r3, #0]
 8001d1a:	4618      	mov	r0, r3
 8001d1c:	f006 fa66 	bl	80081ec <USB_ReadInterrupts>
 8001d20:	4603      	mov	r3, r0
 8001d22:	f003 0302 	and.w	r3, r3, #2
 8001d26:	2b02      	cmp	r3, #2
 8001d28:	d107      	bne.n	8001d3a <HAL_PCD_IRQHandler+0x6e>
    {
      /* incorrect mode, acknowledge the interrupt */
      __HAL_PCD_CLEAR_FLAG(hpcd, USB_OTG_GINTSTS_MMIS);
 8001d2a:	687b      	ldr	r3, [r7, #4]
 8001d2c:	681b      	ldr	r3, [r3, #0]
 8001d2e:	695a      	ldr	r2, [r3, #20]
 8001d30:	687b      	ldr	r3, [r7, #4]
 8001d32:	681b      	ldr	r3, [r3, #0]
 8001d34:	f002 0202 	and.w	r2, r2, #2
 8001d38:	615a      	str	r2, [r3, #20]
    }

    /* Handle RxQLevel Interrupt */
    if (__HAL_PCD_GET_FLAG(hpcd, USB_OTG_GINTSTS_RXFLVL))
 8001d3a:	687b      	ldr	r3, [r7, #4]
 8001d3c:	681b      	ldr	r3, [r3, #0]
 8001d3e:	4618      	mov	r0, r3
 8001d40:	f006 fa54 	bl	80081ec <USB_ReadInterrupts>
 8001d44:	4603      	mov	r3, r0
 8001d46:	f003 0310 	and.w	r3, r3, #16
 8001d4a:	2b10      	cmp	r3, #16
 8001d4c:	d161      	bne.n	8001e12 <HAL_PCD_IRQHandler+0x146>
    {
      USB_MASK_INTERRUPT(hpcd->Instance, USB_OTG_GINTSTS_RXFLVL);
 8001d4e:	687b      	ldr	r3, [r7, #4]
 8001d50:	681b      	ldr	r3, [r3, #0]
 8001d52:	699a      	ldr	r2, [r3, #24]
 8001d54:	687b      	ldr	r3, [r7, #4]
 8001d56:	681b      	ldr	r3, [r3, #0]
 8001d58:	f022 0210 	bic.w	r2, r2, #16
 8001d5c:	619a      	str	r2, [r3, #24]

      RegVal = USBx->GRXSTSP;
 8001d5e:	6a3b      	ldr	r3, [r7, #32]
 8001d60:	6a1b      	ldr	r3, [r3, #32]
 8001d62:	61bb      	str	r3, [r7, #24]

      ep = &hpcd->OUT_ep[RegVal & USB_OTG_GRXSTSP_EPNUM];
 8001d64:	69bb      	ldr	r3, [r7, #24]
 8001d66:	f003 020f 	and.w	r2, r3, #15
 8001d6a:	4613      	mov	r3, r2
 8001d6c:	00db      	lsls	r3, r3, #3
 8001d6e:	4413      	add	r3, r2
 8001d70:	009b      	lsls	r3, r3, #2
 8001d72:	f503 731e 	add.w	r3, r3, #632	; 0x278
 8001d76:	687a      	ldr	r2, [r7, #4]
 8001d78:	4413      	add	r3, r2
 8001d7a:	3304      	adds	r3, #4
 8001d7c:	617b      	str	r3, [r7, #20]

      if (((RegVal & USB_OTG_GRXSTSP_PKTSTS) >> 17) ==  STS_DATA_UPDT)
 8001d7e:	69bb      	ldr	r3, [r7, #24]
 8001d80:	0c5b      	lsrs	r3, r3, #17
 8001d82:	f003 030f 	and.w	r3, r3, #15
 8001d86:	2b02      	cmp	r3, #2
 8001d88:	d124      	bne.n	8001dd4 <HAL_PCD_IRQHandler+0x108>
      {
        if ((RegVal & USB_OTG_GRXSTSP_BCNT) != 0U)
 8001d8a:	69ba      	ldr	r2, [r7, #24]
 8001d8c:	f647 73f0 	movw	r3, #32752	; 0x7ff0
 8001d90:	4013      	ands	r3, r2
 8001d92:	2b00      	cmp	r3, #0
 8001d94:	d035      	beq.n	8001e02 <HAL_PCD_IRQHandler+0x136>
        {
          (void)USB_ReadPacket(USBx, ep->xfer_buff,
 8001d96:	697b      	ldr	r3, [r7, #20]
 8001d98:	68d9      	ldr	r1, [r3, #12]
                               (uint16_t)((RegVal & USB_OTG_GRXSTSP_BCNT) >> 4));
 8001d9a:	69bb      	ldr	r3, [r7, #24]
 8001d9c:	091b      	lsrs	r3, r3, #4
 8001d9e:	b29b      	uxth	r3, r3
          (void)USB_ReadPacket(USBx, ep->xfer_buff,
 8001da0:	f3c3 030a 	ubfx	r3, r3, #0, #11
 8001da4:	b29b      	uxth	r3, r3
 8001da6:	461a      	mov	r2, r3
 8001da8:	6a38      	ldr	r0, [r7, #32]
 8001daa:	f006 f88b 	bl	8007ec4 <USB_ReadPacket>

          ep->xfer_buff += (RegVal & USB_OTG_GRXSTSP_BCNT) >> 4;
 8001dae:	697b      	ldr	r3, [r7, #20]
 8001db0:	68da      	ldr	r2, [r3, #12]
 8001db2:	69bb      	ldr	r3, [r7, #24]
 8001db4:	091b      	lsrs	r3, r3, #4
 8001db6:	f3c3 030a 	ubfx	r3, r3, #0, #11
 8001dba:	441a      	add	r2, r3
 8001dbc:	697b      	ldr	r3, [r7, #20]
 8001dbe:	60da      	str	r2, [r3, #12]
          ep->xfer_count += (RegVal & USB_OTG_GRXSTSP_BCNT) >> 4;
 8001dc0:	697b      	ldr	r3, [r7, #20]
 8001dc2:	695a      	ldr	r2, [r3, #20]
 8001dc4:	69bb      	ldr	r3, [r7, #24]
 8001dc6:	091b      	lsrs	r3, r3, #4
 8001dc8:	f3c3 030a 	ubfx	r3, r3, #0, #11
 8001dcc:	441a      	add	r2, r3
 8001dce:	697b      	ldr	r3, [r7, #20]
 8001dd0:	615a      	str	r2, [r3, #20]
 8001dd2:	e016      	b.n	8001e02 <HAL_PCD_IRQHandler+0x136>
        }
      }
      else if (((RegVal & USB_OTG_GRXSTSP_PKTSTS) >> 17) == STS_SETUP_UPDT)
 8001dd4:	69bb      	ldr	r3, [r7, #24]
 8001dd6:	0c5b      	lsrs	r3, r3, #17
 8001dd8:	f003 030f 	and.w	r3, r3, #15
 8001ddc:	2b06      	cmp	r3, #6
 8001dde:	d110      	bne.n	8001e02 <HAL_PCD_IRQHandler+0x136>
      {
        (void)USB_ReadPacket(USBx, (uint8_t *)hpcd->Setup, 8U);
 8001de0:	687b      	ldr	r3, [r7, #4]
 8001de2:	f203 43c4 	addw	r3, r3, #1220	; 0x4c4
 8001de6:	2208      	movs	r2, #8
 8001de8:	4619      	mov	r1, r3
 8001dea:	6a38      	ldr	r0, [r7, #32]
 8001dec:	f006 f86a 	bl	8007ec4 <USB_ReadPacket>
        ep->xfer_count += (RegVal & USB_OTG_GRXSTSP_BCNT) >> 4;
 8001df0:	697b      	ldr	r3, [r7, #20]
 8001df2:	695a      	ldr	r2, [r3, #20]
 8001df4:	69bb      	ldr	r3, [r7, #24]
 8001df6:	091b      	lsrs	r3, r3, #4
 8001df8:	f3c3 030a 	ubfx	r3, r3, #0, #11
 8001dfc:	441a      	add	r2, r3
 8001dfe:	697b      	ldr	r3, [r7, #20]
 8001e00:	615a      	str	r2, [r3, #20]
      else
      {
        /* ... */
      }

      USB_UNMASK_INTERRUPT(hpcd->Instance, USB_OTG_GINTSTS_RXFLVL);
 8001e02:	687b      	ldr	r3, [r7, #4]
 8001e04:	681b      	ldr	r3, [r3, #0]
 8001e06:	699a      	ldr	r2, [r3, #24]
 8001e08:	687b      	ldr	r3, [r7, #4]
 8001e0a:	681b      	ldr	r3, [r3, #0]
 8001e0c:	f042 0210 	orr.w	r2, r2, #16
 8001e10:	619a      	str	r2, [r3, #24]
    }

    if (__HAL_PCD_GET_FLAG(hpcd, USB_OTG_GINTSTS_OEPINT))
 8001e12:	687b      	ldr	r3, [r7, #4]
 8001e14:	681b      	ldr	r3, [r3, #0]
 8001e16:	4618      	mov	r0, r3
 8001e18:	f006 f9e8 	bl	80081ec <USB_ReadInterrupts>
 8001e1c:	4603      	mov	r3, r0
 8001e1e:	f403 2300 	and.w	r3, r3, #524288	; 0x80000
 8001e22:	f5b3 2f00 	cmp.w	r3, #524288	; 0x80000
 8001e26:	f040 80a7 	bne.w	8001f78 <HAL_PCD_IRQHandler+0x2ac>
    {
      epnum = 0U;
 8001e2a:	2300      	movs	r3, #0
 8001e2c:	627b      	str	r3, [r7, #36]	; 0x24

      /* Read in the device interrupt bits */
      ep_intr = USB_ReadDevAllOutEpInterrupt(hpcd->Instance);
 8001e2e:	687b      	ldr	r3, [r7, #4]
 8001e30:	681b      	ldr	r3, [r3, #0]
 8001e32:	4618      	mov	r0, r3
 8001e34:	f006 f9ed 	bl	8008212 <USB_ReadDevAllOutEpInterrupt>
 8001e38:	62b8      	str	r0, [r7, #40]	; 0x28

      while (ep_intr != 0U)
 8001e3a:	e099      	b.n	8001f70 <HAL_PCD_IRQHandler+0x2a4>
      {
        if ((ep_intr & 0x1U) != 0U)
 8001e3c:	6abb      	ldr	r3, [r7, #40]	; 0x28
 8001e3e:	f003 0301 	and.w	r3, r3, #1
 8001e42:	2b00      	cmp	r3, #0
 8001e44:	f000 808e 	beq.w	8001f64 <HAL_PCD_IRQHandler+0x298>
        {
          epint = USB_ReadDevOutEPInterrupt(hpcd->Instance, (uint8_t)epnum);
 8001e48:	687b      	ldr	r3, [r7, #4]
 8001e4a:	681b      	ldr	r3, [r3, #0]
 8001e4c:	6a7a      	ldr	r2, [r7, #36]	; 0x24
 8001e4e:	b2d2      	uxtb	r2, r2
 8001e50:	4611      	mov	r1, r2
 8001e52:	4618      	mov	r0, r3
 8001e54:	f006 fa11 	bl	800827a <USB_ReadDevOutEPInterrupt>
 8001e58:	6138      	str	r0, [r7, #16]

          if ((epint & USB_OTG_DOEPINT_XFRC) == USB_OTG_DOEPINT_XFRC)
 8001e5a:	693b      	ldr	r3, [r7, #16]
 8001e5c:	f003 0301 	and.w	r3, r3, #1
 8001e60:	2b00      	cmp	r3, #0
 8001e62:	d00c      	beq.n	8001e7e <HAL_PCD_IRQHandler+0x1b2>
          {
            CLEAR_OUT_EP_INTR(epnum, USB_OTG_DOEPINT_XFRC);
 8001e64:	6a7b      	ldr	r3, [r7, #36]	; 0x24
 8001e66:	015a      	lsls	r2, r3, #5
 8001e68:	69fb      	ldr	r3, [r7, #28]
 8001e6a:	4413      	add	r3, r2
 8001e6c:	f503 6330 	add.w	r3, r3, #2816	; 0xb00
 8001e70:	461a      	mov	r2, r3
 8001e72:	2301      	movs	r3, #1
 8001e74:	6093      	str	r3, [r2, #8]
            (void)PCD_EP_OutXfrComplete_int(hpcd, epnum);
 8001e76:	6a79      	ldr	r1, [r7, #36]	; 0x24
 8001e78:	6878      	ldr	r0, [r7, #4]
 8001e7a:	f000 fed1 	bl	8002c20 <PCD_EP_OutXfrComplete_int>
          }

          if ((epint & USB_OTG_DOEPINT_STUP) == USB_OTG_DOEPINT_STUP)
 8001e7e:	693b      	ldr	r3, [r7, #16]
 8001e80:	f003 0308 	and.w	r3, r3, #8
 8001e84:	2b00      	cmp	r3, #0
 8001e86:	d00c      	beq.n	8001ea2 <HAL_PCD_IRQHandler+0x1d6>
          {
            CLEAR_OUT_EP_INTR(epnum, USB_OTG_DOEPINT_STUP);
 8001e88:	6a7b      	ldr	r3, [r7, #36]	; 0x24
 8001e8a:	015a      	lsls	r2, r3, #5
 8001e8c:	69fb      	ldr	r3, [r7, #28]
 8001e8e:	4413      	add	r3, r2
 8001e90:	f503 6330 	add.w	r3, r3, #2816	; 0xb00
 8001e94:	461a      	mov	r2, r3
 8001e96:	2308      	movs	r3, #8
 8001e98:	6093      	str	r3, [r2, #8]
            /* Class B setup phase done for previous decoded setup */
            (void)PCD_EP_OutSetupPacket_int(hpcd, epnum);
 8001e9a:	6a79      	ldr	r1, [r7, #36]	; 0x24
 8001e9c:	6878      	ldr	r0, [r7, #4]
 8001e9e:	f000 ffa7 	bl	8002df0 <PCD_EP_OutSetupPacket_int>
          }

          if ((epint & USB_OTG_DOEPINT_OTEPDIS) == USB_OTG_DOEPINT_OTEPDIS)
 8001ea2:	693b      	ldr	r3, [r7, #16]
 8001ea4:	f003 0310 	and.w	r3, r3, #16
 8001ea8:	2b00      	cmp	r3, #0
 8001eaa:	d008      	beq.n	8001ebe <HAL_PCD_IRQHandler+0x1f2>
          {
            CLEAR_OUT_EP_INTR(epnum, USB_OTG_DOEPINT_OTEPDIS);
 8001eac:	6a7b      	ldr	r3, [r7, #36]	; 0x24
 8001eae:	015a      	lsls	r2, r3, #5
 8001eb0:	69fb      	ldr	r3, [r7, #28]
 8001eb2:	4413      	add	r3, r2
 8001eb4:	f503 6330 	add.w	r3, r3, #2816	; 0xb00
 8001eb8:	461a      	mov	r2, r3
 8001eba:	2310      	movs	r3, #16
 8001ebc:	6093      	str	r3, [r2, #8]
          }

          /* Clear OUT Endpoint disable interrupt */
          if ((epint & USB_OTG_DOEPINT_EPDISD) == USB_OTG_DOEPINT_EPDISD)
 8001ebe:	693b      	ldr	r3, [r7, #16]
 8001ec0:	f003 0302 	and.w	r3, r3, #2
 8001ec4:	2b00      	cmp	r3, #0
 8001ec6:	d030      	beq.n	8001f2a <HAL_PCD_IRQHandler+0x25e>
          {
            if ((USBx->GINTSTS & USB_OTG_GINTSTS_BOUTNAKEFF) == USB_OTG_GINTSTS_BOUTNAKEFF)
 8001ec8:	6a3b      	ldr	r3, [r7, #32]
 8001eca:	695b      	ldr	r3, [r3, #20]
 8001ecc:	f003 0380 	and.w	r3, r3, #128	; 0x80
 8001ed0:	2b80      	cmp	r3, #128	; 0x80
 8001ed2:	d109      	bne.n	8001ee8 <HAL_PCD_IRQHandler+0x21c>
            {
              USBx_DEVICE->DCTL |= USB_OTG_DCTL_CGONAK;
 8001ed4:	69fb      	ldr	r3, [r7, #28]
 8001ed6:	f503 6300 	add.w	r3, r3, #2048	; 0x800
 8001eda:	685b      	ldr	r3, [r3, #4]
 8001edc:	69fa      	ldr	r2, [r7, #28]
 8001ede:	f502 6200 	add.w	r2, r2, #2048	; 0x800
 8001ee2:	f443 6380 	orr.w	r3, r3, #1024	; 0x400
 8001ee6:	6053      	str	r3, [r2, #4]
            }

            ep = &hpcd->OUT_ep[epnum];
 8001ee8:	6a7a      	ldr	r2, [r7, #36]	; 0x24
 8001eea:	4613      	mov	r3, r2
 8001eec:	00db      	lsls	r3, r3, #3
 8001eee:	4413      	add	r3, r2
 8001ef0:	009b      	lsls	r3, r3, #2
 8001ef2:	f503 731e 	add.w	r3, r3, #632	; 0x278
 8001ef6:	687a      	ldr	r2, [r7, #4]
 8001ef8:	4413      	add	r3, r2
 8001efa:	3304      	adds	r3, #4
 8001efc:	617b      	str	r3, [r7, #20]

            if (ep->is_iso_incomplete == 1U)
 8001efe:	697b      	ldr	r3, [r7, #20]
 8001f00:	78db      	ldrb	r3, [r3, #3]
 8001f02:	2b01      	cmp	r3, #1
 8001f04:	d108      	bne.n	8001f18 <HAL_PCD_IRQHandler+0x24c>
            {
              ep->is_iso_incomplete = 0U;
 8001f06:	697b      	ldr	r3, [r7, #20]
 8001f08:	2200      	movs	r2, #0
 8001f0a:	70da      	strb	r2, [r3, #3]

#if (USE_HAL_PCD_REGISTER_CALLBACKS == 1U)
              hpcd->ISOOUTIncompleteCallback(hpcd, (uint8_t)epnum);
#else
              HAL_PCD_ISOOUTIncompleteCallback(hpcd, (uint8_t)epnum);
 8001f0c:	6a7b      	ldr	r3, [r7, #36]	; 0x24
 8001f0e:	b2db      	uxtb	r3, r3
 8001f10:	4619      	mov	r1, r3
 8001f12:	6878      	ldr	r0, [r7, #4]
 8001f14:	f008 fc68 	bl	800a7e8 <HAL_PCD_ISOOUTIncompleteCallback>
#endif /* USE_HAL_PCD_REGISTER_CALLBACKS */
            }

            CLEAR_OUT_EP_INTR(epnum, USB_OTG_DOEPINT_EPDISD);
 8001f18:	6a7b      	ldr	r3, [r7, #36]	; 0x24
 8001f1a:	015a      	lsls	r2, r3, #5
 8001f1c:	69fb      	ldr	r3, [r7, #28]
 8001f1e:	4413      	add	r3, r2
 8001f20:	f503 6330 	add.w	r3, r3, #2816	; 0xb00
 8001f24:	461a      	mov	r2, r3
 8001f26:	2302      	movs	r3, #2
 8001f28:	6093      	str	r3, [r2, #8]
          }

          /* Clear Status Phase Received interrupt */
          if ((epint & USB_OTG_DOEPINT_OTEPSPR) == USB_OTG_DOEPINT_OTEPSPR)
 8001f2a:	693b      	ldr	r3, [r7, #16]
 8001f2c:	f003 0320 	and.w	r3, r3, #32
 8001f30:	2b00      	cmp	r3, #0
 8001f32:	d008      	beq.n	8001f46 <HAL_PCD_IRQHandler+0x27a>
          {
            CLEAR_OUT_EP_INTR(epnum, USB_OTG_DOEPINT_OTEPSPR);
 8001f34:	6a7b      	ldr	r3, [r7, #36]	; 0x24
 8001f36:	015a      	lsls	r2, r3, #5
 8001f38:	69fb      	ldr	r3, [r7, #28]
 8001f3a:	4413      	add	r3, r2
 8001f3c:	f503 6330 	add.w	r3, r3, #2816	; 0xb00
 8001f40:	461a      	mov	r2, r3
 8001f42:	2320      	movs	r3, #32
 8001f44:	6093      	str	r3, [r2, #8]
          }

          /* Clear OUT NAK interrupt */
          if ((epint & USB_OTG_DOEPINT_NAK) == USB_OTG_DOEPINT_NAK)
 8001f46:	693b      	ldr	r3, [r7, #16]
 8001f48:	f403 5300 	and.w	r3, r3, #8192	; 0x2000
 8001f4c:	2b00      	cmp	r3, #0
 8001f4e:	d009      	beq.n	8001f64 <HAL_PCD_IRQHandler+0x298>
          {
            CLEAR_OUT_EP_INTR(epnum, USB_OTG_DOEPINT_NAK);
 8001f50:	6a7b      	ldr	r3, [r7, #36]	; 0x24
 8001f52:	015a      	lsls	r2, r3, #5
 8001f54:	69fb      	ldr	r3, [r7, #28]
 8001f56:	4413      	add	r3, r2
 8001f58:	f503 6330 	add.w	r3, r3, #2816	; 0xb00
 8001f5c:	461a      	mov	r2, r3
 8001f5e:	f44f 5300 	mov.w	r3, #8192	; 0x2000
 8001f62:	6093      	str	r3, [r2, #8]
          }
        }
        epnum++;
 8001f64:	6a7b      	ldr	r3, [r7, #36]	; 0x24
 8001f66:	3301      	adds	r3, #1
 8001f68:	627b      	str	r3, [r7, #36]	; 0x24
        ep_intr >>= 1U;
 8001f6a:	6abb      	ldr	r3, [r7, #40]	; 0x28
 8001f6c:	085b      	lsrs	r3, r3, #1
 8001f6e:	62bb      	str	r3, [r7, #40]	; 0x28
      while (ep_intr != 0U)
 8001f70:	6abb      	ldr	r3, [r7, #40]	; 0x28
 8001f72:	2b00      	cmp	r3, #0
 8001f74:	f47f af62 	bne.w	8001e3c <HAL_PCD_IRQHandler+0x170>
      }
    }

    if (__HAL_PCD_GET_FLAG(hpcd, USB_OTG_GINTSTS_IEPINT))
 8001f78:	687b      	ldr	r3, [r7, #4]
 8001f7a:	681b      	ldr	r3, [r3, #0]
 8001f7c:	4618      	mov	r0, r3
 8001f7e:	f006 f935 	bl	80081ec <USB_ReadInterrupts>
 8001f82:	4603      	mov	r3, r0
 8001f84:	f403 2380 	and.w	r3, r3, #262144	; 0x40000
 8001f88:	f5b3 2f80 	cmp.w	r3, #262144	; 0x40000
 8001f8c:	f040 80db 	bne.w	8002146 <HAL_PCD_IRQHandler+0x47a>
    {
      /* Read in the device interrupt bits */
      ep_intr = USB_ReadDevAllInEpInterrupt(hpcd->Instance);
 8001f90:	687b      	ldr	r3, [r7, #4]
 8001f92:	681b      	ldr	r3, [r3, #0]
 8001f94:	4618      	mov	r0, r3
 8001f96:	f006 f956 	bl	8008246 <USB_ReadDevAllInEpInterrupt>
 8001f9a:	62b8      	str	r0, [r7, #40]	; 0x28

      epnum = 0U;
 8001f9c:	2300      	movs	r3, #0
 8001f9e:	627b      	str	r3, [r7, #36]	; 0x24

      while (ep_intr != 0U)
 8001fa0:	e0cd      	b.n	800213e <HAL_PCD_IRQHandler+0x472>
      {
        if ((ep_intr & 0x1U) != 0U) /* In ITR */
 8001fa2:	6abb      	ldr	r3, [r7, #40]	; 0x28
 8001fa4:	f003 0301 	and.w	r3, r3, #1
 8001fa8:	2b00      	cmp	r3, #0
 8001faa:	f000 80c2 	beq.w	8002132 <HAL_PCD_IRQHandler+0x466>
        {
          epint = USB_ReadDevInEPInterrupt(hpcd->Instance, (uint8_t)epnum);
 8001fae:	687b      	ldr	r3, [r7, #4]
 8001fb0:	681b      	ldr	r3, [r3, #0]
 8001fb2:	6a7a      	ldr	r2, [r7, #36]	; 0x24
 8001fb4:	b2d2      	uxtb	r2, r2
 8001fb6:	4611      	mov	r1, r2
 8001fb8:	4618      	mov	r0, r3
 8001fba:	f006 f97c 	bl	80082b6 <USB_ReadDevInEPInterrupt>
 8001fbe:	6138      	str	r0, [r7, #16]

          if ((epint & USB_OTG_DIEPINT_XFRC) == USB_OTG_DIEPINT_XFRC)
 8001fc0:	693b      	ldr	r3, [r7, #16]
 8001fc2:	f003 0301 	and.w	r3, r3, #1
 8001fc6:	2b00      	cmp	r3, #0
 8001fc8:	d057      	beq.n	800207a <HAL_PCD_IRQHandler+0x3ae>
          {
            fifoemptymsk = (uint32_t)(0x1UL << (epnum & EP_ADDR_MSK));
 8001fca:	6a7b      	ldr	r3, [r7, #36]	; 0x24
 8001fcc:	f003 030f 	and.w	r3, r3, #15
 8001fd0:	2201      	movs	r2, #1
 8001fd2:	fa02 f303 	lsl.w	r3, r2, r3
 8001fd6:	60fb      	str	r3, [r7, #12]
            USBx_DEVICE->DIEPEMPMSK &= ~fifoemptymsk;
 8001fd8:	69fb      	ldr	r3, [r7, #28]
 8001fda:	f503 6300 	add.w	r3, r3, #2048	; 0x800
 8001fde:	6b5a      	ldr	r2, [r3, #52]	; 0x34
 8001fe0:	68fb      	ldr	r3, [r7, #12]
 8001fe2:	43db      	mvns	r3, r3
 8001fe4:	69f9      	ldr	r1, [r7, #28]
 8001fe6:	f501 6100 	add.w	r1, r1, #2048	; 0x800
 8001fea:	4013      	ands	r3, r2
 8001fec:	634b      	str	r3, [r1, #52]	; 0x34

            CLEAR_IN_EP_INTR(epnum, USB_OTG_DIEPINT_XFRC);
 8001fee:	6a7b      	ldr	r3, [r7, #36]	; 0x24
 8001ff0:	015a      	lsls	r2, r3, #5
 8001ff2:	69fb      	ldr	r3, [r7, #28]
 8001ff4:	4413      	add	r3, r2
 8001ff6:	f503 6310 	add.w	r3, r3, #2304	; 0x900
 8001ffa:	461a      	mov	r2, r3
 8001ffc:	2301      	movs	r3, #1
 8001ffe:	6093      	str	r3, [r2, #8]

            if (hpcd->Init.dma_enable == 1U)
 8002000:	687b      	ldr	r3, [r7, #4]
 8002002:	68db      	ldr	r3, [r3, #12]
 8002004:	2b01      	cmp	r3, #1
 8002006:	d132      	bne.n	800206e <HAL_PCD_IRQHandler+0x3a2>
            {
              hpcd->IN_ep[epnum].xfer_buff += hpcd->IN_ep[epnum].maxpacket;
 8002008:	6879      	ldr	r1, [r7, #4]
 800200a:	6a7a      	ldr	r2, [r7, #36]	; 0x24
 800200c:	4613      	mov	r3, r2
 800200e:	00db      	lsls	r3, r3, #3
 8002010:	4413      	add	r3, r2
 8002012:	009b      	lsls	r3, r3, #2
 8002014:	440b      	add	r3, r1
 8002016:	3348      	adds	r3, #72	; 0x48
 8002018:	6819      	ldr	r1, [r3, #0]
 800201a:	6878      	ldr	r0, [r7, #4]
 800201c:	6a7a      	ldr	r2, [r7, #36]	; 0x24
 800201e:	4613      	mov	r3, r2
 8002020:	00db      	lsls	r3, r3, #3
 8002022:	4413      	add	r3, r2
 8002024:	009b      	lsls	r3, r3, #2
 8002026:	4403      	add	r3, r0
 8002028:	3344      	adds	r3, #68	; 0x44
 800202a:	681b      	ldr	r3, [r3, #0]
 800202c:	4419      	add	r1, r3
 800202e:	6878      	ldr	r0, [r7, #4]
 8002030:	6a7a      	ldr	r2, [r7, #36]	; 0x24
 8002032:	4613      	mov	r3, r2
 8002034:	00db      	lsls	r3, r3, #3
 8002036:	4413      	add	r3, r2
 8002038:	009b      	lsls	r3, r3, #2
 800203a:	4403      	add	r3, r0
 800203c:	3348      	adds	r3, #72	; 0x48
 800203e:	6019      	str	r1, [r3, #0]

              /* this is ZLP, so prepare EP0 for next setup */
              if ((epnum == 0U) && (hpcd->IN_ep[epnum].xfer_len == 0U))
 8002040:	6a7b      	ldr	r3, [r7, #36]	; 0x24
 8002042:	2b00      	cmp	r3, #0
 8002044:	d113      	bne.n	800206e <HAL_PCD_IRQHandler+0x3a2>
 8002046:	6879      	ldr	r1, [r7, #4]
 8002048:	6a7a      	ldr	r2, [r7, #36]	; 0x24
 800204a:	4613      	mov	r3, r2
 800204c:	00db      	lsls	r3, r3, #3
 800204e:	4413      	add	r3, r2
 8002050:	009b      	lsls	r3, r3, #2
 8002052:	440b      	add	r3, r1
 8002054:	334c      	adds	r3, #76	; 0x4c
 8002056:	681b      	ldr	r3, [r3, #0]
 8002058:	2b00      	cmp	r3, #0
 800205a:	d108      	bne.n	800206e <HAL_PCD_IRQHandler+0x3a2>
              {
                /* prepare to rx more setup packets */
                (void)USB_EP0_OutStart(hpcd->Instance, 1U, (uint8_t *)hpcd->Setup);
 800205c:	687b      	ldr	r3, [r7, #4]
 800205e:	6818      	ldr	r0, [r3, #0]
 8002060:	687b      	ldr	r3, [r7, #4]
 8002062:	f203 43c4 	addw	r3, r3, #1220	; 0x4c4
 8002066:	461a      	mov	r2, r3
 8002068:	2101      	movs	r1, #1
 800206a:	f006 f985 	bl	8008378 <USB_EP0_OutStart>
            }

#if (USE_HAL_PCD_REGISTER_CALLBACKS == 1U)
            hpcd->DataInStageCallback(hpcd, (uint8_t)epnum);
#else
            HAL_PCD_DataInStageCallback(hpcd, (uint8_t)epnum);
 800206e:	6a7b      	ldr	r3, [r7, #36]	; 0x24
 8002070:	b2db      	uxtb	r3, r3
 8002072:	4619      	mov	r1, r3
 8002074:	6878      	ldr	r0, [r7, #4]
 8002076:	f008 fb32 	bl	800a6de <HAL_PCD_DataInStageCallback>
#endif /* USE_HAL_PCD_REGISTER_CALLBACKS */
          }
          if ((epint & USB_OTG_DIEPINT_TOC) == USB_OTG_DIEPINT_TOC)
 800207a:	693b      	ldr	r3, [r7, #16]
 800207c:	f003 0308 	and.w	r3, r3, #8
 8002080:	2b00      	cmp	r3, #0
 8002082:	d008      	beq.n	8002096 <HAL_PCD_IRQHandler+0x3ca>
          {
            CLEAR_IN_EP_INTR(epnum, USB_OTG_DIEPINT_TOC);
 8002084:	6a7b      	ldr	r3, [r7, #36]	; 0x24
 8002086:	015a      	lsls	r2, r3, #5
 8002088:	69fb      	ldr	r3, [r7, #28]
 800208a:	4413      	add	r3, r2
 800208c:	f503 6310 	add.w	r3, r3, #2304	; 0x900
 8002090:	461a      	mov	r2, r3
 8002092:	2308      	movs	r3, #8
 8002094:	6093      	str	r3, [r2, #8]
          }
          if ((epint & USB_OTG_DIEPINT_ITTXFE) == USB_OTG_DIEPINT_ITTXFE)
 8002096:	693b      	ldr	r3, [r7, #16]
 8002098:	f003 0310 	and.w	r3, r3, #16
 800209c:	2b00      	cmp	r3, #0
 800209e:	d008      	beq.n	80020b2 <HAL_PCD_IRQHandler+0x3e6>
          {
            CLEAR_IN_EP_INTR(epnum, USB_OTG_DIEPINT_ITTXFE);
 80020a0:	6a7b      	ldr	r3, [r7, #36]	; 0x24
 80020a2:	015a      	lsls	r2, r3, #5
 80020a4:	69fb      	ldr	r3, [r7, #28]
 80020a6:	4413      	add	r3, r2
 80020a8:	f503 6310 	add.w	r3, r3, #2304	; 0x900
 80020ac:	461a      	mov	r2, r3
 80020ae:	2310      	movs	r3, #16
 80020b0:	6093      	str	r3, [r2, #8]
          }
          if ((epint & USB_OTG_DIEPINT_INEPNE) == USB_OTG_DIEPINT_INEPNE)
 80020b2:	693b      	ldr	r3, [r7, #16]
 80020b4:	f003 0340 	and.w	r3, r3, #64	; 0x40
 80020b8:	2b00      	cmp	r3, #0
 80020ba:	d008      	beq.n	80020ce <HAL_PCD_IRQHandler+0x402>
          {
            CLEAR_IN_EP_INTR(epnum, USB_OTG_DIEPINT_INEPNE);
 80020bc:	6a7b      	ldr	r3, [r7, #36]	; 0x24
 80020be:	015a      	lsls	r2, r3, #5
 80020c0:	69fb      	ldr	r3, [r7, #28]
 80020c2:	4413      	add	r3, r2
 80020c4:	f503 6310 	add.w	r3, r3, #2304	; 0x900
 80020c8:	461a      	mov	r2, r3
 80020ca:	2340      	movs	r3, #64	; 0x40
 80020cc:	6093      	str	r3, [r2, #8]
          }
          if ((epint & USB_OTG_DIEPINT_EPDISD) == USB_OTG_DIEPINT_EPDISD)
 80020ce:	693b      	ldr	r3, [r7, #16]
 80020d0:	f003 0302 	and.w	r3, r3, #2
 80020d4:	2b00      	cmp	r3, #0
 80020d6:	d023      	beq.n	8002120 <HAL_PCD_IRQHandler+0x454>
          {
            (void)USB_FlushTxFifo(USBx, epnum);
 80020d8:	6a79      	ldr	r1, [r7, #36]	; 0x24
 80020da:	6a38      	ldr	r0, [r7, #32]
 80020dc:	f005 f964 	bl	80073a8 <USB_FlushTxFifo>

            ep = &hpcd->IN_ep[epnum];
 80020e0:	6a7a      	ldr	r2, [r7, #36]	; 0x24
 80020e2:	4613      	mov	r3, r2
 80020e4:	00db      	lsls	r3, r3, #3
 80020e6:	4413      	add	r3, r2
 80020e8:	009b      	lsls	r3, r3, #2
 80020ea:	3338      	adds	r3, #56	; 0x38
 80020ec:	687a      	ldr	r2, [r7, #4]
 80020ee:	4413      	add	r3, r2
 80020f0:	3304      	adds	r3, #4
 80020f2:	617b      	str	r3, [r7, #20]

            if (ep->is_iso_incomplete == 1U)
 80020f4:	697b      	ldr	r3, [r7, #20]
 80020f6:	78db      	ldrb	r3, [r3, #3]
 80020f8:	2b01      	cmp	r3, #1
 80020fa:	d108      	bne.n	800210e <HAL_PCD_IRQHandler+0x442>
            {
              ep->is_iso_incomplete = 0U;
 80020fc:	697b      	ldr	r3, [r7, #20]
 80020fe:	2200      	movs	r2, #0
 8002100:	70da      	strb	r2, [r3, #3]

#if (USE_HAL_PCD_REGISTER_CALLBACKS == 1U)
              hpcd->ISOINIncompleteCallback(hpcd, (uint8_t)epnum);
#else
              HAL_PCD_ISOINIncompleteCallback(hpcd, (uint8_t)epnum);
 8002102:	6a7b      	ldr	r3, [r7, #36]	; 0x24
 8002104:	b2db      	uxtb	r3, r3
 8002106:	4619      	mov	r1, r3
 8002108:	6878      	ldr	r0, [r7, #4]
 800210a:	f008 fb7f 	bl	800a80c <HAL_PCD_ISOINIncompleteCallback>
#endif /* USE_HAL_PCD_REGISTER_CALLBACKS */
            }

            CLEAR_IN_EP_INTR(epnum, USB_OTG_DIEPINT_EPDISD);
 800210e:	6a7b      	ldr	r3, [r7, #36]	; 0x24
 8002110:	015a      	lsls	r2, r3, #5
 8002112:	69fb      	ldr	r3, [r7, #28]
 8002114:	4413      	add	r3, r2
 8002116:	f503 6310 	add.w	r3, r3, #2304	; 0x900
 800211a:	461a      	mov	r2, r3
 800211c:	2302      	movs	r3, #2
 800211e:	6093      	str	r3, [r2, #8]
          }
          if ((epint & USB_OTG_DIEPINT_TXFE) == USB_OTG_DIEPINT_TXFE)
 8002120:	693b      	ldr	r3, [r7, #16]
 8002122:	f003 0380 	and.w	r3, r3, #128	; 0x80
 8002126:	2b00      	cmp	r3, #0
 8002128:	d003      	beq.n	8002132 <HAL_PCD_IRQHandler+0x466>
          {
            (void)PCD_WriteEmptyTxFifo(hpcd, epnum);
 800212a:	6a79      	ldr	r1, [r7, #36]	; 0x24
 800212c:	6878      	ldr	r0, [r7, #4]
 800212e:	f000 fcea 	bl	8002b06 <PCD_WriteEmptyTxFifo>
          }
        }
        epnum++;
 8002132:	6a7b      	ldr	r3, [r7, #36]	; 0x24
 8002134:	3301      	adds	r3, #1
 8002136:	627b      	str	r3, [r7, #36]	; 0x24
        ep_intr >>= 1U;
 8002138:	6abb      	ldr	r3, [r7, #40]	; 0x28
 800213a:	085b      	lsrs	r3, r3, #1
 800213c:	62bb      	str	r3, [r7, #40]	; 0x28
      while (ep_intr != 0U)
 800213e:	6abb      	ldr	r3, [r7, #40]	; 0x28
 8002140:	2b00      	cmp	r3, #0
 8002142:	f47f af2e 	bne.w	8001fa2 <HAL_PCD_IRQHandler+0x2d6>
      }
    }

    /* Handle Resume Interrupt */
    if (__HAL_PCD_GET_FLAG(hpcd, USB_OTG_GINTSTS_WKUINT))
 8002146:	687b      	ldr	r3, [r7, #4]
 8002148:	681b      	ldr	r3, [r3, #0]
 800214a:	4618      	mov	r0, r3
 800214c:	f006 f84e 	bl	80081ec <USB_ReadInterrupts>
 8002150:	4603      	mov	r3, r0
 8002152:	f003 4300 	and.w	r3, r3, #2147483648	; 0x80000000
 8002156:	f1b3 4f00 	cmp.w	r3, #2147483648	; 0x80000000
 800215a:	d122      	bne.n	80021a2 <HAL_PCD_IRQHandler+0x4d6>
    {
      /* Clear the Remote Wake-up Signaling */
      USBx_DEVICE->DCTL &= ~USB_OTG_DCTL_RWUSIG;
 800215c:	69fb      	ldr	r3, [r7, #28]
 800215e:	f503 6300 	add.w	r3, r3, #2048	; 0x800
 8002162:	685b      	ldr	r3, [r3, #4]
 8002164:	69fa      	ldr	r2, [r7, #28]
 8002166:	f502 6200 	add.w	r2, r2, #2048	; 0x800
 800216a:	f023 0301 	bic.w	r3, r3, #1
 800216e:	6053      	str	r3, [r2, #4]

      if (hpcd->LPM_State == LPM_L1)
 8002170:	687b      	ldr	r3, [r7, #4]
 8002172:	f893 34f4 	ldrb.w	r3, [r3, #1268]	; 0x4f4
 8002176:	2b01      	cmp	r3, #1
 8002178:	d108      	bne.n	800218c <HAL_PCD_IRQHandler+0x4c0>
      {
        hpcd->LPM_State = LPM_L0;
 800217a:	687b      	ldr	r3, [r7, #4]
 800217c:	2200      	movs	r2, #0
 800217e:	f883 24f4 	strb.w	r2, [r3, #1268]	; 0x4f4

#if (USE_HAL_PCD_REGISTER_CALLBACKS == 1U)
        hpcd->LPMCallback(hpcd, PCD_LPM_L0_ACTIVE);
#else
        HAL_PCDEx_LPM_Callback(hpcd, PCD_LPM_L0_ACTIVE);
 8002182:	2100      	movs	r1, #0
 8002184:	6878      	ldr	r0, [r7, #4]
 8002186:	f000 fef5 	bl	8002f74 <HAL_PCDEx_LPM_Callback>
 800218a:	e002      	b.n	8002192 <HAL_PCD_IRQHandler+0x4c6>
      else
      {
#if (USE_HAL_PCD_REGISTER_CALLBACKS == 1U)
        hpcd->ResumeCallback(hpcd);
#else
        HAL_PCD_ResumeCallback(hpcd);
 800218c:	6878      	ldr	r0, [r7, #4]
 800218e:	f008 fb1d 	bl	800a7cc <HAL_PCD_ResumeCallback>
#endif /* USE_HAL_PCD_REGISTER_CALLBACKS */
      }

      __HAL_PCD_CLEAR_FLAG(hpcd, USB_OTG_GINTSTS_WKUINT);
 8002192:	687b      	ldr	r3, [r7, #4]
 8002194:	681b      	ldr	r3, [r3, #0]
 8002196:	695a      	ldr	r2, [r3, #20]
 8002198:	687b      	ldr	r3, [r7, #4]
 800219a:	681b      	ldr	r3, [r3, #0]
 800219c:	f002 4200 	and.w	r2, r2, #2147483648	; 0x80000000
 80021a0:	615a      	str	r2, [r3, #20]
    }

    /* Handle Suspend Interrupt */
    if (__HAL_PCD_GET_FLAG(hpcd, USB_OTG_GINTSTS_USBSUSP))
 80021a2:	687b      	ldr	r3, [r7, #4]
 80021a4:	681b      	ldr	r3, [r3, #0]
 80021a6:	4618      	mov	r0, r3
 80021a8:	f006 f820 	bl	80081ec <USB_ReadInterrupts>
 80021ac:	4603      	mov	r3, r0
 80021ae:	f403 6300 	and.w	r3, r3, #2048	; 0x800
 80021b2:	f5b3 6f00 	cmp.w	r3, #2048	; 0x800
 80021b6:	d112      	bne.n	80021de <HAL_PCD_IRQHandler+0x512>
    {
      if ((USBx_DEVICE->DSTS & USB_OTG_DSTS_SUSPSTS) == USB_OTG_DSTS_SUSPSTS)
 80021b8:	69fb      	ldr	r3, [r7, #28]
 80021ba:	f503 6300 	add.w	r3, r3, #2048	; 0x800
 80021be:	689b      	ldr	r3, [r3, #8]
 80021c0:	f003 0301 	and.w	r3, r3, #1
 80021c4:	2b01      	cmp	r3, #1
 80021c6:	d102      	bne.n	80021ce <HAL_PCD_IRQHandler+0x502>
      {
#if (USE_HAL_PCD_REGISTER_CALLBACKS == 1U)
        hpcd->SuspendCallback(hpcd);
#else
        HAL_PCD_SuspendCallback(hpcd);
 80021c8:	6878      	ldr	r0, [r7, #4]
 80021ca:	f008 fad9 	bl	800a780 <HAL_PCD_SuspendCallback>
#endif /* USE_HAL_PCD_REGISTER_CALLBACKS */
      }
      __HAL_PCD_CLEAR_FLAG(hpcd, USB_OTG_GINTSTS_USBSUSP);
 80021ce:	687b      	ldr	r3, [r7, #4]
 80021d0:	681b      	ldr	r3, [r3, #0]
 80021d2:	695a      	ldr	r2, [r3, #20]
 80021d4:	687b      	ldr	r3, [r7, #4]
 80021d6:	681b      	ldr	r3, [r3, #0]
 80021d8:	f402 6200 	and.w	r2, r2, #2048	; 0x800
 80021dc:	615a      	str	r2, [r3, #20]
    }

    /* Handle LPM Interrupt */
    if (__HAL_PCD_GET_FLAG(hpcd, USB_OTG_GINTSTS_LPMINT))
 80021de:	687b      	ldr	r3, [r7, #4]
 80021e0:	681b      	ldr	r3, [r3, #0]
 80021e2:	4618      	mov	r0, r3
 80021e4:	f006 f802 	bl	80081ec <USB_ReadInterrupts>
 80021e8:	4603      	mov	r3, r0
 80021ea:	f003 6300 	and.w	r3, r3, #134217728	; 0x8000000
 80021ee:	f1b3 6f00 	cmp.w	r3, #134217728	; 0x8000000
 80021f2:	d121      	bne.n	8002238 <HAL_PCD_IRQHandler+0x56c>
    {
      __HAL_PCD_CLEAR_FLAG(hpcd, USB_OTG_GINTSTS_LPMINT);
 80021f4:	687b      	ldr	r3, [r7, #4]
 80021f6:	681b      	ldr	r3, [r3, #0]
 80021f8:	695a      	ldr	r2, [r3, #20]
 80021fa:	687b      	ldr	r3, [r7, #4]
 80021fc:	681b      	ldr	r3, [r3, #0]
 80021fe:	f002 6200 	and.w	r2, r2, #134217728	; 0x8000000
 8002202:	615a      	str	r2, [r3, #20]

      if (hpcd->LPM_State == LPM_L0)
 8002204:	687b      	ldr	r3, [r7, #4]
 8002206:	f893 34f4 	ldrb.w	r3, [r3, #1268]	; 0x4f4
 800220a:	2b00      	cmp	r3, #0
 800220c:	d111      	bne.n	8002232 <HAL_PCD_IRQHandler+0x566>
      {
        hpcd->LPM_State = LPM_L1;
 800220e:	687b      	ldr	r3, [r7, #4]
 8002210:	2201      	movs	r2, #1
 8002212:	f883 24f4 	strb.w	r2, [r3, #1268]	; 0x4f4
        hpcd->BESL = (hpcd->Instance->GLPMCFG & USB_OTG_GLPMCFG_BESL) >> 2U;
 8002216:	687b      	ldr	r3, [r7, #4]
 8002218:	681b      	ldr	r3, [r3, #0]
 800221a:	6d5b      	ldr	r3, [r3, #84]	; 0x54
 800221c:	089b      	lsrs	r3, r3, #2
 800221e:	f003 020f 	and.w	r2, r3, #15
 8002222:	687b      	ldr	r3, [r7, #4]
 8002224:	f8c3 24f8 	str.w	r2, [r3, #1272]	; 0x4f8

#if (USE_HAL_PCD_REGISTER_CALLBACKS == 1U)
        hpcd->LPMCallback(hpcd, PCD_LPM_L1_ACTIVE);
#else
        HAL_PCDEx_LPM_Callback(hpcd, PCD_LPM_L1_ACTIVE);
 8002228:	2101      	movs	r1, #1
 800222a:	6878      	ldr	r0, [r7, #4]
 800222c:	f000 fea2 	bl	8002f74 <HAL_PCDEx_LPM_Callback>
 8002230:	e002      	b.n	8002238 <HAL_PCD_IRQHandler+0x56c>
      else
      {
#if (USE_HAL_PCD_REGISTER_CALLBACKS == 1U)
        hpcd->SuspendCallback(hpcd);
#else
        HAL_PCD_SuspendCallback(hpcd);
 8002232:	6878      	ldr	r0, [r7, #4]
 8002234:	f008 faa4 	bl	800a780 <HAL_PCD_SuspendCallback>
#endif /* USE_HAL_PCD_REGISTER_CALLBACKS */
      }
    }

    /* Handle Reset Interrupt */
    if (__HAL_PCD_GET_FLAG(hpcd, USB_OTG_GINTSTS_USBRST))
 8002238:	687b      	ldr	r3, [r7, #4]
 800223a:	681b      	ldr	r3, [r3, #0]
 800223c:	4618      	mov	r0, r3
 800223e:	f005 ffd5 	bl	80081ec <USB_ReadInterrupts>
 8002242:	4603      	mov	r3, r0
 8002244:	f403 5380 	and.w	r3, r3, #4096	; 0x1000
 8002248:	f5b3 5f80 	cmp.w	r3, #4096	; 0x1000
 800224c:	f040 80b7 	bne.w	80023be <HAL_PCD_IRQHandler+0x6f2>
    {
      USBx_DEVICE->DCTL &= ~USB_OTG_DCTL_RWUSIG;
 8002250:	69fb      	ldr	r3, [r7, #28]
 8002252:	f503 6300 	add.w	r3, r3, #2048	; 0x800
 8002256:	685b      	ldr	r3, [r3, #4]
 8002258:	69fa      	ldr	r2, [r7, #28]
 800225a:	f502 6200 	add.w	r2, r2, #2048	; 0x800
 800225e:	f023 0301 	bic.w	r3, r3, #1
 8002262:	6053      	str	r3, [r2, #4]
      (void)USB_FlushTxFifo(hpcd->Instance, 0x10U);
 8002264:	687b      	ldr	r3, [r7, #4]
 8002266:	681b      	ldr	r3, [r3, #0]
 8002268:	2110      	movs	r1, #16
 800226a:	4618      	mov	r0, r3
 800226c:	f005 f89c 	bl	80073a8 <USB_FlushTxFifo>

      for (i = 0U; i < hpcd->Init.dev_endpoints; i++)
 8002270:	2300      	movs	r3, #0
 8002272:	62fb      	str	r3, [r7, #44]	; 0x2c
 8002274:	e046      	b.n	8002304 <HAL_PCD_IRQHandler+0x638>
      {
        USBx_INEP(i)->DIEPINT = 0xFB7FU;
 8002276:	6afb      	ldr	r3, [r7, #44]	; 0x2c
 8002278:	015a      	lsls	r2, r3, #5
 800227a:	69fb      	ldr	r3, [r7, #28]
 800227c:	4413      	add	r3, r2
 800227e:	f503 6310 	add.w	r3, r3, #2304	; 0x900
 8002282:	461a      	mov	r2, r3
 8002284:	f64f 337f 	movw	r3, #64383	; 0xfb7f
 8002288:	6093      	str	r3, [r2, #8]
        USBx_INEP(i)->DIEPCTL &= ~USB_OTG_DIEPCTL_STALL;
 800228a:	6afb      	ldr	r3, [r7, #44]	; 0x2c
 800228c:	015a      	lsls	r2, r3, #5
 800228e:	69fb      	ldr	r3, [r7, #28]
 8002290:	4413      	add	r3, r2
 8002292:	f503 6310 	add.w	r3, r3, #2304	; 0x900
 8002296:	681b      	ldr	r3, [r3, #0]
 8002298:	6afa      	ldr	r2, [r7, #44]	; 0x2c
 800229a:	0151      	lsls	r1, r2, #5
 800229c:	69fa      	ldr	r2, [r7, #28]
 800229e:	440a      	add	r2, r1
 80022a0:	f502 6210 	add.w	r2, r2, #2304	; 0x900
 80022a4:	f423 1300 	bic.w	r3, r3, #2097152	; 0x200000
 80022a8:	6013      	str	r3, [r2, #0]
        USBx_OUTEP(i)->DOEPINT = 0xFB7FU;
 80022aa:	6afb      	ldr	r3, [r7, #44]	; 0x2c
 80022ac:	015a      	lsls	r2, r3, #5
 80022ae:	69fb      	ldr	r3, [r7, #28]
 80022b0:	4413      	add	r3, r2
 80022b2:	f503 6330 	add.w	r3, r3, #2816	; 0xb00
 80022b6:	461a      	mov	r2, r3
 80022b8:	f64f 337f 	movw	r3, #64383	; 0xfb7f
 80022bc:	6093      	str	r3, [r2, #8]
        USBx_OUTEP(i)->DOEPCTL &= ~USB_OTG_DOEPCTL_STALL;
 80022be:	6afb      	ldr	r3, [r7, #44]	; 0x2c
 80022c0:	015a      	lsls	r2, r3, #5
 80022c2:	69fb      	ldr	r3, [r7, #28]
 80022c4:	4413      	add	r3, r2
 80022c6:	f503 6330 	add.w	r3, r3, #2816	; 0xb00
 80022ca:	681b      	ldr	r3, [r3, #0]
 80022cc:	6afa      	ldr	r2, [r7, #44]	; 0x2c
 80022ce:	0151      	lsls	r1, r2, #5
 80022d0:	69fa      	ldr	r2, [r7, #28]
 80022d2:	440a      	add	r2, r1
 80022d4:	f502 6230 	add.w	r2, r2, #2816	; 0xb00
 80022d8:	f423 1300 	bic.w	r3, r3, #2097152	; 0x200000
 80022dc:	6013      	str	r3, [r2, #0]
        USBx_OUTEP(i)->DOEPCTL |= USB_OTG_DOEPCTL_SNAK;
 80022de:	6afb      	ldr	r3, [r7, #44]	; 0x2c
 80022e0:	015a      	lsls	r2, r3, #5
 80022e2:	69fb      	ldr	r3, [r7, #28]
 80022e4:	4413      	add	r3, r2
 80022e6:	f503 6330 	add.w	r3, r3, #2816	; 0xb00
 80022ea:	681b      	ldr	r3, [r3, #0]
 80022ec:	6afa      	ldr	r2, [r7, #44]	; 0x2c
 80022ee:	0151      	lsls	r1, r2, #5
 80022f0:	69fa      	ldr	r2, [r7, #28]
 80022f2:	440a      	add	r2, r1
 80022f4:	f502 6230 	add.w	r2, r2, #2816	; 0xb00
 80022f8:	f043 6300 	orr.w	r3, r3, #134217728	; 0x8000000
 80022fc:	6013      	str	r3, [r2, #0]
      for (i = 0U; i < hpcd->Init.dev_endpoints; i++)
 80022fe:	6afb      	ldr	r3, [r7, #44]	; 0x2c
 8002300:	3301      	adds	r3, #1
 8002302:	62fb      	str	r3, [r7, #44]	; 0x2c
 8002304:	687b      	ldr	r3, [r7, #4]
 8002306:	685b      	ldr	r3, [r3, #4]
 8002308:	6afa      	ldr	r2, [r7, #44]	; 0x2c
 800230a:	429a      	cmp	r2, r3
 800230c:	d3b3      	bcc.n	8002276 <HAL_PCD_IRQHandler+0x5aa>
      }
      USBx_DEVICE->DAINTMSK |= 0x10001U;
 800230e:	69fb      	ldr	r3, [r7, #28]
 8002310:	f503 6300 	add.w	r3, r3, #2048	; 0x800
 8002314:	69db      	ldr	r3, [r3, #28]
 8002316:	69fa      	ldr	r2, [r7, #28]
 8002318:	f502 6200 	add.w	r2, r2, #2048	; 0x800
 800231c:	f043 1301 	orr.w	r3, r3, #65537	; 0x10001
 8002320:	61d3      	str	r3, [r2, #28]

      if (hpcd->Init.use_dedicated_ep1 != 0U)
 8002322:	687b      	ldr	r3, [r7, #4]
 8002324:	6b1b      	ldr	r3, [r3, #48]	; 0x30
 8002326:	2b00      	cmp	r3, #0
 8002328:	d016      	beq.n	8002358 <HAL_PCD_IRQHandler+0x68c>
      {
        USBx_DEVICE->DOUTEP1MSK |= USB_OTG_DOEPMSK_STUPM |
 800232a:	69fb      	ldr	r3, [r7, #28]
 800232c:	f503 6300 	add.w	r3, r3, #2048	; 0x800
 8002330:	f8d3 3084 	ldr.w	r3, [r3, #132]	; 0x84
 8002334:	69fa      	ldr	r2, [r7, #28]
 8002336:	f502 6200 	add.w	r2, r2, #2048	; 0x800
 800233a:	f043 030b 	orr.w	r3, r3, #11
 800233e:	f8c2 3084 	str.w	r3, [r2, #132]	; 0x84
                                   USB_OTG_DOEPMSK_XFRCM |
                                   USB_OTG_DOEPMSK_EPDM;

        USBx_DEVICE->DINEP1MSK |= USB_OTG_DIEPMSK_TOM |
 8002342:	69fb      	ldr	r3, [r7, #28]
 8002344:	f503 6300 	add.w	r3, r3, #2048	; 0x800
 8002348:	6c5b      	ldr	r3, [r3, #68]	; 0x44
 800234a:	69fa      	ldr	r2, [r7, #28]
 800234c:	f502 6200 	add.w	r2, r2, #2048	; 0x800
 8002350:	f043 030b 	orr.w	r3, r3, #11
 8002354:	6453      	str	r3, [r2, #68]	; 0x44
 8002356:	e015      	b.n	8002384 <HAL_PCD_IRQHandler+0x6b8>
                                  USB_OTG_DIEPMSK_XFRCM |
                                  USB_OTG_DIEPMSK_EPDM;
      }
      else
      {
        USBx_DEVICE->DOEPMSK |= USB_OTG_DOEPMSK_STUPM |
 8002358:	69fb      	ldr	r3, [r7, #28]
 800235a:	f503 6300 	add.w	r3, r3, #2048	; 0x800
 800235e:	695a      	ldr	r2, [r3, #20]
 8002360:	69fb      	ldr	r3, [r7, #28]
 8002362:	f503 6300 	add.w	r3, r3, #2048	; 0x800
 8002366:	4619      	mov	r1, r3
 8002368:	f242 032b 	movw	r3, #8235	; 0x202b
 800236c:	4313      	orrs	r3, r2
 800236e:	614b      	str	r3, [r1, #20]
                                USB_OTG_DOEPMSK_XFRCM |
                                USB_OTG_DOEPMSK_EPDM |
                                USB_OTG_DOEPMSK_OTEPSPRM |
                                USB_OTG_DOEPMSK_NAKM;

        USBx_DEVICE->DIEPMSK |= USB_OTG_DIEPMSK_TOM |
 8002370:	69fb      	ldr	r3, [r7, #28]
 8002372:	f503 6300 	add.w	r3, r3, #2048	; 0x800
 8002376:	691b      	ldr	r3, [r3, #16]
 8002378:	69fa      	ldr	r2, [r7, #28]
 800237a:	f502 6200 	add.w	r2, r2, #2048	; 0x800
 800237e:	f043 030b 	orr.w	r3, r3, #11
 8002382:	6113      	str	r3, [r2, #16]
                                USB_OTG_DIEPMSK_XFRCM |
                                USB_OTG_DIEPMSK_EPDM;
      }

      /* Set Default Address to 0 */
      USBx_DEVICE->DCFG &= ~USB_OTG_DCFG_DAD;
 8002384:	69fb      	ldr	r3, [r7, #28]
 8002386:	f503 6300 	add.w	r3, r3, #2048	; 0x800
 800238a:	681b      	ldr	r3, [r3, #0]
 800238c:	69fa      	ldr	r2, [r7, #28]
 800238e:	f502 6200 	add.w	r2, r2, #2048	; 0x800
 8002392:	f423 63fe 	bic.w	r3, r3, #2032	; 0x7f0
 8002396:	6013      	str	r3, [r2, #0]

      /* setup EP0 to receive SETUP packets */
      (void)USB_EP0_OutStart(hpcd->Instance, (uint8_t)hpcd->Init.dma_enable,
 8002398:	687b      	ldr	r3, [r7, #4]
 800239a:	6818      	ldr	r0, [r3, #0]
 800239c:	687b      	ldr	r3, [r7, #4]
 800239e:	68db      	ldr	r3, [r3, #12]
 80023a0:	b2d9      	uxtb	r1, r3
                             (uint8_t *)hpcd->Setup);
 80023a2:	687b      	ldr	r3, [r7, #4]
 80023a4:	f203 43c4 	addw	r3, r3, #1220	; 0x4c4
      (void)USB_EP0_OutStart(hpcd->Instance, (uint8_t)hpcd->Init.dma_enable,
 80023a8:	461a      	mov	r2, r3
 80023aa:	f005 ffe5 	bl	8008378 <USB_EP0_OutStart>

      __HAL_PCD_CLEAR_FLAG(hpcd, USB_OTG_GINTSTS_USBRST);
 80023ae:	687b      	ldr	r3, [r7, #4]
 80023b0:	681b      	ldr	r3, [r3, #0]
 80023b2:	695a      	ldr	r2, [r3, #20]
 80023b4:	687b      	ldr	r3, [r7, #4]
 80023b6:	681b      	ldr	r3, [r3, #0]
 80023b8:	f402 5280 	and.w	r2, r2, #4096	; 0x1000
 80023bc:	615a      	str	r2, [r3, #20]
    }

    /* Handle Enumeration done Interrupt */
    if (__HAL_PCD_GET_FLAG(hpcd, USB_OTG_GINTSTS_ENUMDNE))
 80023be:	687b      	ldr	r3, [r7, #4]
 80023c0:	681b      	ldr	r3, [r3, #0]
 80023c2:	4618      	mov	r0, r3
 80023c4:	f005 ff12 	bl	80081ec <USB_ReadInterrupts>
 80023c8:	4603      	mov	r3, r0
 80023ca:	f403 5300 	and.w	r3, r3, #8192	; 0x2000
 80023ce:	f5b3 5f00 	cmp.w	r3, #8192	; 0x2000
 80023d2:	d124      	bne.n	800241e <HAL_PCD_IRQHandler+0x752>
    {
      (void)USB_ActivateSetup(hpcd->Instance);
 80023d4:	687b      	ldr	r3, [r7, #4]
 80023d6:	681b      	ldr	r3, [r3, #0]
 80023d8:	4618      	mov	r0, r3
 80023da:	f005 ffa9 	bl	8008330 <USB_ActivateSetup>
      hpcd->Init.speed = USB_GetDevSpeed(hpcd->Instance);
 80023de:	687b      	ldr	r3, [r7, #4]
 80023e0:	681b      	ldr	r3, [r3, #0]
 80023e2:	4618      	mov	r0, r3
 80023e4:	f005 f85d 	bl	80074a2 <USB_GetDevSpeed>
 80023e8:	4603      	mov	r3, r0
 80023ea:	461a      	mov	r2, r3
 80023ec:	687b      	ldr	r3, [r7, #4]
 80023ee:	611a      	str	r2, [r3, #16]

      /* Set USB Turnaround time */
      (void)USB_SetTurnaroundTime(hpcd->Instance,
 80023f0:	687b      	ldr	r3, [r7, #4]
 80023f2:	681c      	ldr	r4, [r3, #0]
 80023f4:	f001 fd9e 	bl	8003f34 <HAL_RCC_GetHCLKFreq>
 80023f8:	4601      	mov	r1, r0
                                  HAL_RCC_GetHCLKFreq(),
                                  (uint8_t)hpcd->Init.speed);
 80023fa:	687b      	ldr	r3, [r7, #4]
 80023fc:	691b      	ldr	r3, [r3, #16]
      (void)USB_SetTurnaroundTime(hpcd->Instance,
 80023fe:	b2db      	uxtb	r3, r3
 8002400:	461a      	mov	r2, r3
 8002402:	4620      	mov	r0, r4
 8002404:	f004 fd62 	bl	8006ecc <USB_SetTurnaroundTime>

#if (USE_HAL_PCD_REGISTER_CALLBACKS == 1U)
      hpcd->ResetCallback(hpcd);
#else
      HAL_PCD_ResetCallback(hpcd);
 8002408:	6878      	ldr	r0, [r7, #4]
 800240a:	f008 f990 	bl	800a72e <HAL_PCD_ResetCallback>
#endif /* USE_HAL_PCD_REGISTER_CALLBACKS */

      __HAL_PCD_CLEAR_FLAG(hpcd, USB_OTG_GINTSTS_ENUMDNE);
 800240e:	687b      	ldr	r3, [r7, #4]
 8002410:	681b      	ldr	r3, [r3, #0]
 8002412:	695a      	ldr	r2, [r3, #20]
 8002414:	687b      	ldr	r3, [r7, #4]
 8002416:	681b      	ldr	r3, [r3, #0]
 8002418:	f402 5200 	and.w	r2, r2, #8192	; 0x2000
 800241c:	615a      	str	r2, [r3, #20]
    }

    /* Handle SOF Interrupt */
    if (__HAL_PCD_GET_FLAG(hpcd, USB_OTG_GINTSTS_SOF))
 800241e:	687b      	ldr	r3, [r7, #4]
 8002420:	681b      	ldr	r3, [r3, #0]
 8002422:	4618      	mov	r0, r3
 8002424:	f005 fee2 	bl	80081ec <USB_ReadInterrupts>
 8002428:	4603      	mov	r3, r0
 800242a:	f003 0308 	and.w	r3, r3, #8
 800242e:	2b08      	cmp	r3, #8
 8002430:	d10a      	bne.n	8002448 <HAL_PCD_IRQHandler+0x77c>
    {
#if (USE_HAL_PCD_REGISTER_CALLBACKS == 1U)
      hpcd->SOFCallback(hpcd);
#else
      HAL_PCD_SOFCallback(hpcd);
 8002432:	6878      	ldr	r0, [r7, #4]
 8002434:	f008 f96d 	bl	800a712 <HAL_PCD_SOFCallback>
#endif /* USE_HAL_PCD_REGISTER_CALLBACKS */

      __HAL_PCD_CLEAR_FLAG(hpcd, USB_OTG_GINTSTS_SOF);
 8002438:	687b      	ldr	r3, [r7, #4]
 800243a:	681b      	ldr	r3, [r3, #0]
 800243c:	695a      	ldr	r2, [r3, #20]
 800243e:	687b      	ldr	r3, [r7, #4]
 8002440:	681b      	ldr	r3, [r3, #0]
 8002442:	f002 0208 	and.w	r2, r2, #8
 8002446:	615a      	str	r2, [r3, #20]
    }

    /* Handle Global OUT NAK effective Interrupt */
    if (__HAL_PCD_GET_FLAG(hpcd, USB_OTG_GINTSTS_BOUTNAKEFF))
 8002448:	687b      	ldr	r3, [r7, #4]
 800244a:	681b      	ldr	r3, [r3, #0]
 800244c:	4618      	mov	r0, r3
 800244e:	f005 fecd 	bl	80081ec <USB_ReadInterrupts>
 8002452:	4603      	mov	r3, r0
 8002454:	f003 0380 	and.w	r3, r3, #128	; 0x80
 8002458:	2b80      	cmp	r3, #128	; 0x80
 800245a:	d122      	bne.n	80024a2 <HAL_PCD_IRQHandler+0x7d6>
    {
      USBx->GINTMSK &= ~USB_OTG_GINTMSK_GONAKEFFM;
 800245c:	6a3b      	ldr	r3, [r7, #32]
 800245e:	699b      	ldr	r3, [r3, #24]
 8002460:	f023 0280 	bic.w	r2, r3, #128	; 0x80
 8002464:	6a3b      	ldr	r3, [r7, #32]
 8002466:	619a      	str	r2, [r3, #24]

      for (epnum = 1U; epnum < hpcd->Init.dev_endpoints; epnum++)
 8002468:	2301      	movs	r3, #1
 800246a:	627b      	str	r3, [r7, #36]	; 0x24
 800246c:	e014      	b.n	8002498 <HAL_PCD_IRQHandler+0x7cc>
      {
        if (hpcd->OUT_ep[epnum].is_iso_incomplete == 1U)
 800246e:	6879      	ldr	r1, [r7, #4]
 8002470:	6a7a      	ldr	r2, [r7, #36]	; 0x24
 8002472:	4613      	mov	r3, r2
 8002474:	00db      	lsls	r3, r3, #3
 8002476:	4413      	add	r3, r2
 8002478:	009b      	lsls	r3, r3, #2
 800247a:	440b      	add	r3, r1
 800247c:	f203 237f 	addw	r3, r3, #639	; 0x27f
 8002480:	781b      	ldrb	r3, [r3, #0]
 8002482:	2b01      	cmp	r3, #1
 8002484:	d105      	bne.n	8002492 <HAL_PCD_IRQHandler+0x7c6>
        {
          /* Abort current transaction and disable the EP */
          (void)HAL_PCD_EP_Abort(hpcd, (uint8_t)epnum);
 8002486:	6a7b      	ldr	r3, [r7, #36]	; 0x24
 8002488:	b2db      	uxtb	r3, r3
 800248a:	4619      	mov	r1, r3
 800248c:	6878      	ldr	r0, [r7, #4]
 800248e:	f000 fb09 	bl	8002aa4 <HAL_PCD_EP_Abort>
      for (epnum = 1U; epnum < hpcd->Init.dev_endpoints; epnum++)
 8002492:	6a7b      	ldr	r3, [r7, #36]	; 0x24
 8002494:	3301      	adds	r3, #1
 8002496:	627b      	str	r3, [r7, #36]	; 0x24
 8002498:	687b      	ldr	r3, [r7, #4]
 800249a:	685b      	ldr	r3, [r3, #4]
 800249c:	6a7a      	ldr	r2, [r7, #36]	; 0x24
 800249e:	429a      	cmp	r2, r3
 80024a0:	d3e5      	bcc.n	800246e <HAL_PCD_IRQHandler+0x7a2>
        }
      }
    }

    /* Handle Incomplete ISO IN Interrupt */
    if (__HAL_PCD_GET_FLAG(hpcd, USB_OTG_GINTSTS_IISOIXFR))
 80024a2:	687b      	ldr	r3, [r7, #4]
 80024a4:	681b      	ldr	r3, [r3, #0]
 80024a6:	4618      	mov	r0, r3
 80024a8:	f005 fea0 	bl	80081ec <USB_ReadInterrupts>
 80024ac:	4603      	mov	r3, r0
 80024ae:	f403 1380 	and.w	r3, r3, #1048576	; 0x100000
 80024b2:	f5b3 1f80 	cmp.w	r3, #1048576	; 0x100000
 80024b6:	d13b      	bne.n	8002530 <HAL_PCD_IRQHandler+0x864>
    {
      for (epnum = 1U; epnum < hpcd->Init.dev_endpoints; epnum++)
 80024b8:	2301      	movs	r3, #1
 80024ba:	627b      	str	r3, [r7, #36]	; 0x24
 80024bc:	e02b      	b.n	8002516 <HAL_PCD_IRQHandler+0x84a>
      {
        RegVal = USBx_INEP(epnum)->DIEPCTL;
 80024be:	6a7b      	ldr	r3, [r7, #36]	; 0x24
 80024c0:	015a      	lsls	r2, r3, #5
 80024c2:	69fb      	ldr	r3, [r7, #28]
 80024c4:	4413      	add	r3, r2
 80024c6:	f503 6310 	add.w	r3, r3, #2304	; 0x900
 80024ca:	681b      	ldr	r3, [r3, #0]
 80024cc:	61bb      	str	r3, [r7, #24]

        if ((hpcd->IN_ep[epnum].type == EP_TYPE_ISOC) &&
 80024ce:	6879      	ldr	r1, [r7, #4]
 80024d0:	6a7a      	ldr	r2, [r7, #36]	; 0x24
 80024d2:	4613      	mov	r3, r2
 80024d4:	00db      	lsls	r3, r3, #3
 80024d6:	4413      	add	r3, r2
 80024d8:	009b      	lsls	r3, r3, #2
 80024da:	440b      	add	r3, r1
 80024dc:	3340      	adds	r3, #64	; 0x40
 80024de:	781b      	ldrb	r3, [r3, #0]
 80024e0:	2b01      	cmp	r3, #1
 80024e2:	d115      	bne.n	8002510 <HAL_PCD_IRQHandler+0x844>
            ((RegVal & USB_OTG_DIEPCTL_EPENA) == USB_OTG_DIEPCTL_EPENA))
 80024e4:	69bb      	ldr	r3, [r7, #24]
        if ((hpcd->IN_ep[epnum].type == EP_TYPE_ISOC) &&
 80024e6:	2b00      	cmp	r3, #0
 80024e8:	da12      	bge.n	8002510 <HAL_PCD_IRQHandler+0x844>
        {
          hpcd->IN_ep[epnum].is_iso_incomplete = 1U;
 80024ea:	6879      	ldr	r1, [r7, #4]
 80024ec:	6a7a      	ldr	r2, [r7, #36]	; 0x24
 80024ee:	4613      	mov	r3, r2
 80024f0:	00db      	lsls	r3, r3, #3
 80024f2:	4413      	add	r3, r2
 80024f4:	009b      	lsls	r3, r3, #2
 80024f6:	440b      	add	r3, r1
 80024f8:	333f      	adds	r3, #63	; 0x3f
 80024fa:	2201      	movs	r2, #1
 80024fc:	701a      	strb	r2, [r3, #0]

          /* Abort current transaction and disable the EP */
          (void)HAL_PCD_EP_Abort(hpcd, (uint8_t)(epnum | 0x80U));
 80024fe:	6a7b      	ldr	r3, [r7, #36]	; 0x24
 8002500:	b2db      	uxtb	r3, r3
 8002502:	f063 037f 	orn	r3, r3, #127	; 0x7f
 8002506:	b2db      	uxtb	r3, r3
 8002508:	4619      	mov	r1, r3
 800250a:	6878      	ldr	r0, [r7, #4]
 800250c:	f000 faca 	bl	8002aa4 <HAL_PCD_EP_Abort>
      for (epnum = 1U; epnum < hpcd->Init.dev_endpoints; epnum++)
 8002510:	6a7b      	ldr	r3, [r7, #36]	; 0x24
 8002512:	3301      	adds	r3, #1
 8002514:	627b      	str	r3, [r7, #36]	; 0x24
 8002516:	687b      	ldr	r3, [r7, #4]
 8002518:	685b      	ldr	r3, [r3, #4]
 800251a:	6a7a      	ldr	r2, [r7, #36]	; 0x24
 800251c:	429a      	cmp	r2, r3
 800251e:	d3ce      	bcc.n	80024be <HAL_PCD_IRQHandler+0x7f2>
        }
      }

      __HAL_PCD_CLEAR_FLAG(hpcd, USB_OTG_GINTSTS_IISOIXFR);
 8002520:	687b      	ldr	r3, [r7, #4]
 8002522:	681b      	ldr	r3, [r3, #0]
 8002524:	695a      	ldr	r2, [r3, #20]
 8002526:	687b      	ldr	r3, [r7, #4]
 8002528:	681b      	ldr	r3, [r3, #0]
 800252a:	f402 1280 	and.w	r2, r2, #1048576	; 0x100000
 800252e:	615a      	str	r2, [r3, #20]
    }

    /* Handle Incomplete ISO OUT Interrupt */
    if (__HAL_PCD_GET_FLAG(hpcd, USB_OTG_GINTSTS_PXFR_INCOMPISOOUT))
 8002530:	687b      	ldr	r3, [r7, #4]
 8002532:	681b      	ldr	r3, [r3, #0]
 8002534:	4618      	mov	r0, r3
 8002536:	f005 fe59 	bl	80081ec <USB_ReadInterrupts>
 800253a:	4603      	mov	r3, r0
 800253c:	f403 1300 	and.w	r3, r3, #2097152	; 0x200000
 8002540:	f5b3 1f00 	cmp.w	r3, #2097152	; 0x200000
 8002544:	d155      	bne.n	80025f2 <HAL_PCD_IRQHandler+0x926>
    {
      for (epnum = 1U; epnum < hpcd->Init.dev_endpoints; epnum++)
 8002546:	2301      	movs	r3, #1
 8002548:	627b      	str	r3, [r7, #36]	; 0x24
 800254a:	e045      	b.n	80025d8 <HAL_PCD_IRQHandler+0x90c>
      {
        RegVal = USBx_OUTEP(epnum)->DOEPCTL;
 800254c:	6a7b      	ldr	r3, [r7, #36]	; 0x24
 800254e:	015a      	lsls	r2, r3, #5
 8002550:	69fb      	ldr	r3, [r7, #28]
 8002552:	4413      	add	r3, r2
 8002554:	f503 6330 	add.w	r3, r3, #2816	; 0xb00
 8002558:	681b      	ldr	r3, [r3, #0]
 800255a:	61bb      	str	r3, [r7, #24]

        if ((hpcd->OUT_ep[epnum].type == EP_TYPE_ISOC) &&
 800255c:	6879      	ldr	r1, [r7, #4]
 800255e:	6a7a      	ldr	r2, [r7, #36]	; 0x24
 8002560:	4613      	mov	r3, r2
 8002562:	00db      	lsls	r3, r3, #3
 8002564:	4413      	add	r3, r2
 8002566:	009b      	lsls	r3, r3, #2
 8002568:	440b      	add	r3, r1
 800256a:	f503 7320 	add.w	r3, r3, #640	; 0x280
 800256e:	781b      	ldrb	r3, [r3, #0]
 8002570:	2b01      	cmp	r3, #1
 8002572:	d12e      	bne.n	80025d2 <HAL_PCD_IRQHandler+0x906>
            ((RegVal & USB_OTG_DOEPCTL_EPENA) == USB_OTG_DOEPCTL_EPENA) &&
 8002574:	69bb      	ldr	r3, [r7, #24]
        if ((hpcd->OUT_ep[epnum].type == EP_TYPE_ISOC) &&
 8002576:	2b00      	cmp	r3, #0
 8002578:	da2b      	bge.n	80025d2 <HAL_PCD_IRQHandler+0x906>
            ((RegVal & (0x1U << 16)) == (hpcd->FrameNumber & 0x1U)))
 800257a:	69bb      	ldr	r3, [r7, #24]
 800257c:	f403 3280 	and.w	r2, r3, #65536	; 0x10000
 8002580:	687b      	ldr	r3, [r7, #4]
 8002582:	f8d3 34fc 	ldr.w	r3, [r3, #1276]	; 0x4fc
 8002586:	f003 0301 	and.w	r3, r3, #1
            ((RegVal & USB_OTG_DOEPCTL_EPENA) == USB_OTG_DOEPCTL_EPENA) &&
 800258a:	429a      	cmp	r2, r3
 800258c:	d121      	bne.n	80025d2 <HAL_PCD_IRQHandler+0x906>
        {
