:020000040800F2
:10000000A009002439030008AB3300089F31000821
:10001000A93300082F0500088143000800000000F4
:10002000000000000000000000000000F1350008A2
:100030003105000800000000AD330008F33500086A
:100040005303000853030008530300085303000838
:100050005303000853030008530300085303000828
:100060005303000853030008530300085303000818
:100070005303000853030008530300085303000808
:1000800053030008530300085303000853030008F8
:1000900053030008530300085303000853030008E8
:1000A00053030008530300085303000853030008D8
:1000B000B5370008C1370008530300085303000890
:1000C00053030008530300085303000853030008B8
:1000D0005303000875430008530300085303000846
:1000E00053030008530300080000000053030008F6
:1000F0005303000853030008530300085303000888
:100100005303000853030008530300085303000877
:100110005303000853030008530300085303000867
:100120005303000853030008530300085303000857
:100130005303000853030008530300085303000847
:1001400000000000000000000000000000000000AF
:100150005303000853030008530300085303000827
:100160005303000853030008530300085303000817
:100170005303000853030008530300080000000065
:1001800053030008530300085303000853030008F7
:1001900053030008530300085303000853030008E7
:1001A00053030008530300085303000853030008D7
:1001B00053030008530300085303000853030008C7
:1001C00053030008530300085303000853030008B7
:1001D00053030008530300085303000853030008A7
:1001E0005303000853030008530300085303000897
:1001F0005303000853030008530300085303000887
:100200005303000853030008530300085303000876
:100210005303000853030008530300085303000866
:1002200053030008530300085303000800000000B4
:1002300053030008530300080000000053030008A4
:100240005303000853030008530300085303000836
:100250005303000853030008530300085303000826
:100260005303000853030008530300085303000816
:100270005303000853030008530300080000000064
:100280005303000853030008530300080000000054
:10029000000000005303000800F002F800F03CF8F2
:1002A0000AA090E8000C82448344AAF10107DA45D1
:1002B00001D100F031F8AFF2090EBAE80F0013F0E7
:1002C000010F18BFFB1A43F0010318473441000027
:1002D00054410000103A24BF78C878C1FAD85207B8
:1002E00024BF30C830C144BF04680C6070470000B0
:1002F0000023002400250026103A28BF78C1FBD82F
:10030000520728BF30C148BF0B6070471FB504F0CB
:1003100056F81FBD10B510BD00F0CFF81146FFF71D
:10032000F5FF04F03FF800F0EDF803B4FFF7F2FF3B
:1003300003BC00F0F5F80000094880470948004771
:10034000FEE7FEE7FEE7FEE7FEE7FEE7FEE7FEE785
:10035000FEE7FEE704480549054A064B70470000E2
:10036000D936000899020008A0010024A009002441
:10037000A0050024A005002453EA020C00F06980C7
:100380002DE9F04B4FF00006002B1FBFB3FA83F5A9
:1003900003FA05F424FA05F65E4012BF1643B2FADA
:1003A00082F502FA05F4C5F120051EBF22FA05FC0C
:1003B00044EA0C04203556EA044C4FEA144418BFB2
:1003C000641C4FF000084FF00009904271EB030CE1
:1003D00039D3002919BFB1FA81F701FA07F6B0FA4B
:1003E00080F700FA07F6C7F120071EBF20FA07FCC6
:1003F00046EA0C062037B6FBF4FCA7EB0507103FD6
:1004000007F01F0BCBF120060CFA0BFB2CFA06F6BB
:1004100044BFB3460026202FA4BF5E464FF0000B1A
:100420005BEA060C08BF4FF0010B19EB0B09ABFBA5
:10043000027C48EB0608C01B06FB02CC0BFB03CC7E
:1004400071EB0C01C1E70B46024641464846BDE848
:10045000F08B13B54FF000004FF00001AFF30080B8
:10046000BDE81C4070474FF0000200B513469446AB
:100470009646203922BFA0E80C50A0E80C50B1F1FC
:100480002001BFF4F7AF090728BFA0E80C5048BF10
:100490000CC05DF804EB890028BF40F8042B08BFAE
:1004A000704748BF20F8022B11F0804F18BF00F8AA
:1004B000012B7047704770477047754600F02CF865
:1004C000AE4605006946534620F00700854618B041
:1004D00020B5FFF73FFFBDE820404FF000064FF08A
:1004E00000074FF000084FF0000B21F00701AC4669
:1004F000ACE8C009ACE8C009ACE8C009ACE8C00988
:100500008D46704710B50446AFF300802046BDE825
:100510001040FFF70ABF0000004870474001002468
:1005200001491820ABBEFEE7260002007047FEE737
:10053000704772B6FEE700002DE9F84F044600F060
:1005400009FC00903CB194F83500022806D08021C7
:1005500061650020E4E00120BDE8F88FC74DC74E7B
:10056000C649183520683036DFF81483DFF8149355
:100570008842DFF814A3DFF814B32ED0A8422CD0A1
:10058000B0422AD0404528D0484526D0504524D0F6
:10059000584522D0BD4A183290421ED0BC4A9042E3
:1005A0001BD0BB4A1832904217D0B94A3032904221
:1005B00013D0B74A483290420FD0B54A60329042C9
:1005C0000BD0B34A7832904207D0B14A9032904271
:1005D00003D0AF4AA832904209D1026822F01E022D
:1005E00002602068426922F08002426103E00268F2
:1005F00022F00E02026027688F4238464DD0A84292
:100600004BD0B04249D0404547D0484545D05045F1
:1006100043D0584541D09D4A183290423DD09C4A23
:1006200090423AD09A4A1832904236D0984A3032A4
:10063000904232D0964A483290422ED0944A60324C
:1006400090422AD0924A7832904226D0904A9032F4
:10065000904222D08E4AA83290421ED08D4A9042BB
:100660001BD08C4A1432904217D08A4A28329042CA
:1006700013D0884A3C3290420FD0864A5032904282
:100680000BD0844A6432904207D0824A783290423A
:1006900003D0804A8C32974204D1206E026822F443
:1006A0008072026075492068884228D0A84226D00E
:1006B000B04224D0404522D0484520D050451ED0DD
:1006C00058451CD071491831884218D07049884269
:1006D00015D06F491831884211D06D4930318842A8
:1006E0000DD06B494831884209D069496031884250
:1006F00005D067497831884201D065499031016859
:1007000021F0010101600EE000F024FB0099401A85
:10071000052808D9202262650321002084F83510BD
:1007200084F8340017E73868C007EDD1534A012137
:10073000206890422ED0A8422CD0B0422AD040450A
:1007400028D0484526D0504524D0584522D04F4B7C
:10075000183398421ED04E4B98421BD04C4B183346
:10076000984217D04A4B3033984213D0484B483305
:1007700098420FD0464B603398420BD0444B7833AD
:10078000984207D0424B9033984203D0404BA83355
:10079000984208D194F85C703F23A06D07F01F07C2
:1007A000BB40836007E094F85C30A06D03F01F034A
:1007B00001FA03F34360206890424DD0A8424BD029
:1007C000B04249D0404547D0484545D0504543D038
:1007D000584541D02D4A183290423DD02C4A904283
:1007E0003AD02B4A1832904236D0294A30329042C1
:1007F00032D0274A483290422ED0254A6032904269
:100800002AD0234A7832904226D0214A9032904210
:1008100022D01F4AA83290421ED01E4A90421BD0BE
:100820001C4A1432904217D01A4A2832904213D0F0
:10083000184A3C3290420FD0164A503290420BD0A8
:10084000144A6432904207D0124A7832904203D060
:10085000104A8C3290420BD1D4E919024260E06E0A
:1008600030B1026822F480720260D4E91C02426056
:10087000002084F8351084F834006DE61000024042
:10088000580002407000024088000240A000024070
:1008900010040240085402582DE9F05F28B190F886
:1008A0003510022904D0802141650120BDE8F09F68
:1008B000904C904B0168183C18338E4ADFF83C92FC
:1008C000A1428D4CDFF838E28E4FDFF83CB2DFF802
:1008D0003CA28F4D8F4E31D091422FD099422DD0D6
:1008E000A1422BD0494529D0714527D0B94225D006
:1008F000DFF810C20CF1180C61451FD0DFF808C2F8
:10090000ACF1600C614519D0DFF8FCC1ACF1480CCA
:10091000614513D0DFF8F0C1ACF1300C61450DD06A
:10092000DFF8E4C1ACF1180C614507D0594505D09A
:10093000514503D0A94201D0B1422CD1DFF8B4C156
:100940004FF0040880F83580ACF1180C61451DD0DB
:1009500091421BD0994219D0A14217D0494515D0D8
:10096000714513D0B94211D06648183081420DD07C
:1009700065486038814209D063484838814205D0D3
:1009800061483038814201D05F481838086820F04B
:1009900001000860ABE0D1F800C02CF00E08DFF8D1
:1009A00054C1C1F80080ACF1180C0168614527D032
:1009B000914225D0994223D0A14221D049451FD050
:1009C00071451DD0B9421BD0DFF838C10CF1180CAD
:1009D000614515D0DFF830C1ACF1600C61450FD036
:1009E000DFF824C1ACF1480C614509D0DFF818C12B
:1009F000ACF1300C614503D0DFF80CC1ACF1180C40
:100A0000D1F800C02CF0010CC1F800C0DFF8E48080
:100A10004FF0010C0168A8F11808414546D09142F9
:100A200044D0994242D0A14240D049453ED0714580
:100A30003CD0B9423AD0334A1832914236D0324A89
:100A4000603A914232D0304A483A91422ED02E4AF2
:100A5000303A91422AD02C4A183A914226D0594530
:100A600024D0514522D0A94220D0B1421ED02A4ADA
:100A700091421BD0284A1432914217D0264A28327C
:100A8000914213D0244A3C3291420FD0224A503234
:100A900091420BD0204A6432914207D01E4A7832EC
:100AA000914203D01C4A8C32914218D1016E0A68DF
:100AB00022F480720A6090F85C20816D02F01F02BF
:100AC0000CFA02F24A60D0E919124A60C16E31B1E3
:100AD0000A6822F480720A60D0E91C124A6000227F
:100AE000016D80F835C080F8342001B188470020BE
:100AF000DCE600002800024058000240700002407E
:100B000088000240A00002407004024088040240B5
:100B1000A0040240B8040240085402582DE9F84FDE
:100B200003247D4D00234FF001094FF0B04B4FF0EF
:100B30000F0AE9E009FA03F73A4076D00E7906F099
:100B40000306012E01D0022E18D1D0F808C04FEABA
:100B5000430ECE6804FA0EF82CEA080C06FA0EF6DC
:100B600046EA0C068660D0F804C00E792CEA070C21
:100B7000C6F300169E4046EA0C0646600E79F64320
:100B8000B6070BD0C6684FEA43088F6804FA08FC22
:100B900026EA0C0607FA08F73743C7600E7906F015
:100BA0000306022E12D1DE080F694FEA437C00EBE8
:100BB0008606B646366A4FEADC6C0AFA0CF807FA83
:100BC0000CF726EA08063743CEF820700F7906683E
:100BD0004FEA430807F0030704FA08FC07FA08F78E
:100BE00026EA0C06374307604E6816F4403F1CD0D7
:100BF0004A4E376847F00207376036689F0706F0AD
:100C00000206009623F0030606F1B046B6463F0FF3
:100C1000D6F80864DFF808810AFA07FC404526EA9E
:100C20000C0603D14FF0000C41E06CE0DFF8F4C09B
:100C3000604502D14FF0010C39E0DFF8ECC06045AF
:100C400002D14FF0020C32E0DFF8E0C0604502D183
:100C50004FF0030C2BE0DFF8D8C0604502D14FF015
:100C6000040C24E0DFF8CCC0604502D14FF0050C45
:100C70001DE0DFF8C4C0604502D14FF0060C16E05D
:100C8000DFF8B8C0604502D14FF0070C0FE0DFF885
:100C9000B0C0604502D14FF0080C08E0DFF8A4C0F6
:100CA000604502D14FF0090C01E04FF00A0C0CFA3C
:100CB00007FC4CEA060CCEF808C44F68DBF800606D
:100CC000FF0226EA020600D516435F46CBF8006015
:100CD000D1F804C0DBF804605FEA8C2C26EA020637
:100CE00000D516437E606E684F6826EA0206BF0391
:100CF00000D516436E602E684F6826EA0206FF0391
:100D000000D516432E605B1C0A6832FA03F67FF4A6
:100D100011AFBDE8F88F000080000058F44402587D
:100D2000000002580004025800080258000C025843
:100D3000001002580014025800180258001C0258F3
:100D4000002002580024025801480068000C704737
:100D50000010005C0148806870470000000000241B
:100D600002488168027811448160704700000024C5
:100D7000032010B500F086F801F060F80F4A104922
:100D800014681368C4F3032203F00F038A5CC95C80
:100D900002F01F0201F01F01D0400A4A20FA01F1BF
:100DA0001160094908600F2000F010F808B1012017
:100DB00010BD00F02BF8002010BD000018440258B0
:100DC000F0430008100000240C00002470B50D4D05
:100DD00004462878A0B14FF47A71B1FBF0F00A49CB
:100DE0000968B1FBF0F001F086FB48B9102C07D27E
:100DF00000222146501E00F025F800206C6070BDD6
:100E0000012070BD000000240C000024054808B536
:100E1000016841F002010160006800F002000090EA
:100E200008BD0000F4440258002809DB410900F025
:100E30001F028900012001F1E0219040C1F800016A
:100E4000704700000E4BF0B41B680D46C3F302233D
:100E5000C3F10706042E00D90426191D072901D263
:100E6000002300E0DB1E012404FA06F19C40491E29
:100E70002940641E994014402143F0BC03F081BA1C
:100E80000CED00E0064900F0070210B54FF6FF0434
:100E90000868044B204040EA02201843086010BD57
:100EA0000CED00E00000FA05134970B50A68D24362
:100EB000520705D5096801F00701814213D118E0F6
:100EC0000A6822F0070202430A60FFF743FF0A4D57
:100ED0004FF47A760446083D07E000BFFFF73AFF7B
:100EE000001BB04201D9012070BD2868C0438004B6
:100EF000F4D4002070BD00000C48025810B500F07A
:100F000057FF05490968054AC1F30211515C01F018
:100F10001F01C84010BD000020440258F0430008E3
:100F2000494930B5484C0B1D0A68143409681D68DE
:100F3000246802F00303C5F30012C1F30531C4F3C2
:100F4000CC04002914FB02F200EE102AF8EE400A4D
:100F500075D03F4A9FED3D1AB7EE000A6BB1DFED49
:100F60003D1A012B01D0022B64D002EE101A116839
:100F7000F8EE422A81EEA22A21E0334C283C236875
:100F80009B0612D5344B246801EE901A1168C4F305
:100F9000C104F8EE612AE34001EE903AC1F3080182
:100FA000F8EE611A81EEA22A0BE001EE901ADFED55
:100FB0002B2A00BFF8EE611A116882EEA12AC1F354
:100FC000080101EE901A1168F8EE611A40EE811ADC
:100FD00071EE800A62EE200AC1F3462101EE101A7A
:100FE000B8EE411A31EE001AC0EE811ABCEEE11AD9
:100FF00080ED001A1168C1F3064101EE101AB8EE37
:10100000411A31EE001AC0EE811ABCEEE11A80EDF1
:10101000011A1168C1F3066101EE101AB8EE411A07
:1010200031EE000A80EE801ABCEEC10A80ED020AA1
:1010300030BD04E001EE901ADFED092ABAE7002185
:10104000016041608160F3E72844025800000039E4
:10105000384402580024744A0090D0030024744C91
:1010600020BCBE4B494930B5484C0B1D0A681C34A6
:1010700009681D68246802F00303C5F30022C1F368
:101080000551C4F3CC04002914FB02F200EE102A2F
:10109000F8EE400A75D03F4A9FED3D1AB7EE000AC0
:1010A0006BB1DFED3D1A012B01D0022B64D002EEB3
:1010B000101A1168F8EE422A81EEA22A21E0334C80
:1010C000283C23689B0612D5344B246801EE901A05
:1010D0001168C4F3C104F8EE612AE34001EE903ACE
:1010E000C1F30801F8EE611A81EEA22A0BE001EECD
:1010F000901ADFED2B2A00BFF8EE611A116882EE1C
:10110000A12AC1F3080101EE901A1168F8EE611AE4
:1011100040EE811A71EE800A62EE200AC1F3462188
:1011200001EE101AB8EE411A31EE001AC0EE811A23
:10113000BCEEE11A80ED001A1168C1F3064101EE20
:10114000101AB8EE411A31EE001AC0EE811ABCEE48
:10115000E11A80ED011A1168C1F3066101EE101A5F
:10116000B8EE411A31EE000A80EE801ABCEEC10AD8
:1011700080ED020A30BD04E001EE901ADFED092A8D
:10118000BAE70021016041608160F3E7284402581A
:1011900000000039404402580024744A0090D003F3
:1011A0000024744C20BCBE4B2DE9FE4F0546DFF8F1
:1011B000E48350F8081B0024F64FC943019005F161
:1011C0002800264608F12408009008011DD4A86EC6
:1011D00050B1B0F5801F0CD0B0F5001F0ED0B0F5A7
:1011E000401F1ED001240FE0386840F40030386002
:1011F00017E00198022102F0DBF803E000980221D9
:1012000002F066F904000CD026462888C043C005C9
:1012100023D4A86D05281ED2DFE800F00C11161BA0
:101220001B00AA6ED8F8001021F440111143C8F831
:101230000010EAE7386840F40030386009E00198AF
:10124000002102F0B5F803E00098002102F040F917
:10125000044674B100E0012426462888C043800576
:1012600028D4E86D80281ED00CDC90B140280ED127
:1012700014E0AA6DD8F8001021F007011143C8F856
:101280000010EAE7C02813D0B0F5807F10D0012409
:101290000FE0386840F40030386009E00198002120
:1012A00002F086F803E00098002102F011F90446EC
:1012B0009CB126462888DFF8DC92C04309F12C094E
:1012C00040052CD4D5F8A800B0F5800F20D00DDC57
:1012D000A0B1B0F5001F0FD115E0EA6DD8F80010ED
:1012E00021F4E0711143C8F80010E3E7B0F5C00F36
:1012F00013D0B0F5000F10D001240FE0386840F48F
:101300000030386009E00198002102F051F803E054
:101310000098002102F0DCF804467CB126462888BB
:10132000C04300052DD4D5F8AC00B0F1007F21D02A
:101330000EDCA8B1B0F1807F10D116E0D5F8A8205E
:10134000D9F8001021F460011143C9F80010E6E754
:10135000B0F1407F13D0B0F1806F10D001240FE0C6
:10136000386840F40030386009E00198002102F04C
:101370001FF803E00098002102F0AAF8044674B1B7
:1013800026462868C04380011FD4E86CD8B11028D5
:101390000FD0202812D0302815D0012414E0D5F821
:1013A000AC20D9F8001021F0E0611143C9F8001019
:1013B000E7E7386840F40030386004E00198022123
:1013C00001F0F6FF044674B126462888C043C004E5
:1013D0002BD4286EB0F5005F20D00DDCA0B1B0F5A5
:1013E000805F0FD115E06B48EA6C2030016821F076
:1013F000300111430160E8E7B0F5405F13D0B0F56C
:10140000804F10D001240FE0386840F4003038607D
:1014100009E00198002101F0CBFF03E000980021D2
:1014200002F056F804468CB126462888C043800452
:1014300029D4686EB0F5403F23D010DC08B3B0F576
:10144000803F14D0B0F5003F0FD115E02A6ED8F8D8
:10145000001021F4E0411143C8F80010E5E7B0F5B1
:10146000802F0ED0B0F5A02F0BD001240AE00198F8
:10147000012101F09DFF03E00098012102F028F80E
:10148000044694B126462888C04340042AD4D5F89F
:10149000B000B0F1405F23D010DC08B3B0F1805F42
:1014A00014D0B0F1005F0FD115E06A6ED8F80010CB
:1014B00021F4E0211143C8F80010E4E7B0F1804FB7
:1014C0000ED0B0F1A04F0BD001240AE00198012109
:1014D00001F06EFF03E00098012101F0F9FF0446DE
:1014E00074B126462888C04300041FD4286FD8B1A1
:1014F000B0F1805F0ED0B0F1005F10D0012414E095
:10150000D5F8B020D9F8001021F0E0411143C9F816
:101510000010E7E7386840F40030386004E00198D4
:10152000012101F045FF044674B126462868C043F6
:10153000C0011ED4A86CD0B101280ED0022811D051
:10154000032814D0012413E02A6FD8F8001021F0EA
:1015500040511143C8F80010E8E7386840F4003003
:10156000386004E00198022101F022FF0446ACB18A
:1015700026462868DFF81CB0C043ABF11C0B4002C4
:1015800052D40548016841F480710160FFF7E2FB25
:10159000824611E02C44025800480258FA48AA6CCE
:1015A000016821F0030111430160E2E7FFF7D2FB7C
:1015B000A0EB0A00642835D8F4480068C005F5D5CA
:1015C0008CBBDFF8C4A3B5F8B4100AF1240ADAF82A
:1015D000000001F4407100F44070884211D0DAF844
:1015E0000010DAF8002021F4407142F48032CAF889
:1015F0000020DAF8002022F48032CAF80020CAF86D
:101600000010D5F8B400B0F5807F1AD1FFF7A2FB27
:10161000029012E0FFF79EFB0299411A41F28830D6
:1016200081420AD9032426462878DFF85CA3C04308
:101630000AF1080AC00721D03CE0DAF80000800770
:10164000E8D5D5F8B410C1F30120032858460DD0D1
:10165000016821F47C510160B5F8B420DAF800107B
:10166000C2F30B021143CAF80010DDE7C84A036851
:1016700002EA111223F47C511143ECE7E86F1828B9
:1016800016D005DCA0B1082808D0102804D10AE043
:1016900020280DD028280BD001240AE00198012130
:1016A00001F086FE03E00098012101F011FF0446DD
:1016B00064B126462878C04380071ED4A86F062848
:1016C00019D2DFE800F0160C11161616EA6FDAF8D8
:1016D000001021F038011143CAF80010EAE7019820
:1016E000012101F065FE03E00098012101F0F0FE08
:1016F00004467CB100E0012426462878C043400718
:101700001FD4D5F89400062819D2DFE800F0160C93
:1017100011161616AA6FDAF8001021F0070111430E
:10172000CAF80010E9E70198012101F041FE03E049
:101730000098012101F0CCFE0446A4B100E0012490
:1017400026462878C04380062BD4D5F89000B0F107
:10175000405F24D011DC10B3B0F1805F15D0B0F140
:10176000005F10D116E0D5F89420D9F8001021F0D0
:1017700007011143C9F80010E3E7B0F1804F0ED024
:10178000B0F1A04F0BD001240AE00198002101F034
:101790000FFE03E00098022101F09AFE044694B186
:1017A00026462878C04340062BD4D5F89C00B0F5D7
:1017B000406F24D011DC10B3B0F5806F15D0B0F5B8
:1017C000006F10D116E0D5F89020DAF8001021F063
:1017D000E0411143CAF80010E3E7B0F5805F0ED096
:1017E000B0F5A05F0BD001240AE00198002101F0C0
:1017F000DFFD03E00098022101F06AFE044694B187
:1018000026462878C04300062BD4D5F8A000B0F5B2
:10181000C04F24D011DC10B3B0F5005F15D0B0F587
:10182000804F10D116E0D5F89C20D9F8001021F493
:10183000E0511143C9F80010E3E7B0F5004F0ED0B6
:10184000B0F5204F0BD001240AE00198002101F0EF
:10185000AFFD03E00098022101F03AFE044654B1C6
:1018600026462878C04300071ED4D5F88400B0F57A
:10187000805F0AD00FE0D5F8A020D9F8001021F43D
:1018800060411143C9F80010EBE70098022101F014
:101890001FFE00B10126D5F88420DAF8001021F4EB
:1018A00040511143CAF800102878C043C00613D431
:1018B000D5F89800B0F5807F05D10098022101F09D
:1018C00007FE00B10126D5F89820D9F8001021F4C0
:1018D00040711143C9F800102868C043000316D4B2
:1018E000D5F8A40038B1B0F5803F09D0B0F5003F7D
:1018F0000BD001240AE00198002101F059FD03E01A
:101900000098022101F0E4FD04468CB126462868C7
:10191000C043400322D4D5F88800B0F5801F11D011
:10192000B0F5001F13D0B0F5401F15D0012414E00E
:10193000D5F8A420D9F8001021F440311143C9F89A
:101940000010E4E7386840F40030386004E00098A4
:10195000012101F0BDFD04465CB126462868C04364
:10196000C00323D4286DA8B1B0F5803F17D001245F
:101970001BE0D5F88820DAF8001021F4401111435B
:10198000CAF80010EAE700004C4402580048025828
:10199000CFFFFF00386840F40030386004E0019861
:1019A000022101F005FD0446E4B126462868C04343
:1019B000800005D40098022101F08AFD00B10126C3
:1019C0002868C04380031BD4D5F88000B0B1B0F5BF
:1019D000807F0FD0B0F5007F10D0B0F5407F0DD0E4
:1019E00001240CE05A482A6D016821F4803111432A
:1019F0000160DBE7386840F400303860ECB326461D
:101A00002868C043C00207D46A6FD8F8001021F0DC
:101A100000411143C8F800102868C043C00008D432
:101A2000D5F8B820DBF8001021F480411143CBF841
:101A300000102868C043800207D4EA6ED8F800106E
:101A400021F080711143C8F800102868C04340009D
:101A50000CD4DBF8001021F40041CBF80010DBF8C7
:101A60000010D5F8BC201143CBF800102868C04303
:101A700008D437486A6D016800E018E021F0405151
:101A8000114301602868C043000208D4D5F88C20B7
:101A9000DAF8001021F440011143CAF80010287947
:101AA0000024C04300F0010020430AD00FE0D5F825
:101AB0008020DAF8001021F440711143CAF80010B8
:101AC0009EE70198002101F073FC00B106462879D9
:101AD000C04300F00200204305D10198012101F02C
:101AE00067FC00B106462879C04300F0040020439B
:101AF00005D10198022101F05BFC00B1064628796E
:101B0000C04300F00800204305D10098002101F0F7
:101B1000DFFC00B106462879C04300F010002043E6
:101B200005D10098012101F0D3FC00B106462879C7
:101B3000C04300F02000044304D10098022101F0CA
:101B4000C7FC00B916B10120BDE8FE8F0020FBE7FD
:101B50004C4402582DE9F05F04000F467ED0DFF8B8
:101B60003882D8F8000000F00F00B8420CD2D8F844
:101B7000001021F00F013943C8F80010D8F8000018
:101B800000F00F00B84269D12078844D40070AD593
:101B90002069296801F07001884204D9296821F080
:101BA00070010143296020787C4E361D00070AD55C
:101BB0006069316801F07001884204D9316821F010
:101BC0007001014331602078C0060AD5A0693168F0
:101BD00001F4E061884204D9316821F4E0610143F5
:101BE00031602078DFF8B4B180060BF1080B0CD51A
:101BF000E1695846DBF8002002F07002914204D9F6
:101C0000026822F070020A430260207880070AD539
:101C1000E068296801F00F01884204D9296821F0A1
:101C20000F01014329602078C0073ED05B49A268BC
:101C30002868183920F47060104328606068022812
:101C400018D0032819D00968012819D0490700299C
:101C50004ADADFF848A1AAF1080A00E044E0DAF81D
:101C6000002022F007020243CAF80020FFF772F8B2
:101C7000814612E009688903E9E709688901E6E716
:101C8000C905E4E7FFF766F8A0EB090141F28830E7
:101C9000814202D90320BDE8F09F6168DAF80000B4
:101CA00000F03800B0EBC10FECD1207880070AD5E6
:101CB000E068296801F00F01884204D2296821F008
:101CC0000F0101432960D8F80010404601F00F01D0
:101CD000B9420BD9016821F00F0139430160006856
:101CE00000F00F00B84201D00120D4E7207840076F
:101CF0000AD52069296801F07001884204D2296858
:101D000021F0700101432960207800070AD560693D
:101D1000316801F07001884204D2316821F070010D
:101D2000014331602078C0060AD5A069316801F40A
:101D3000E061884204D2316821F4E06101433160FE
:101D4000207880060CD5E1695846DBF8002002F0C7
:101D50007002914204D2026822F070020A430260CB
:101D600000F06CF80E492A682B68C2F3032203F0D6
:101D70000F038A5CC95C02F01F0201F01F01D04012
:101D8000084A20FA01F11160074908600748006815
:101D9000BDE8F05FFFF71AB800200052184402585F
:101DA000F0430008100000240C000024040000246C
:101DB00030B500F043F80B4A0B490C4B156814681A
:101DC000C5F3032204F00F048A5C095D02F01F02D0
:101DD00001F01F01D040064A20FA01F1196010609D
:101DE000084630BD18440258F04300081000002493
:101DF0000C00002400B5FFF7DBFF05490968054A20
:101E0000C1F30211515C01F01F01C84000BD000088
:101E10001C440258F043000800B5FFF7C9FF05490C
:101E20000968054AC1F30221515C01F01F01C84055
:101E300000BD00001C440258F0430008454970B53D
:101E400045480968434B103B11F0380208D0011196
:101E5000082A03D0102A0BD0182A0BD0084670BDD0
:101E600019688906FBD51968C1F3C101C84070BD66
:101E70003A4870BD3749374D18310C1D24350A6872
:101E8000096826682D6802F0030406F00102C1F318
:101E90000511C5F3CC0515FB02F200EE102AB8EED1
:101EA000400AE9B32F4ADFED2E0AB7EE001A6CB1F3
:101EB000DFED2D1A012C01D0022C43D002EE101AB6
:101EC0001068F8EE422A81EEA22A1EE01C68A406E1
:101ED00011D51B6801EE901A1168C3F3C103F8EE27
:101EE000612AD84001EE900AC1F30800F8EE611AA9
:101EF00081EEA22A0BE001EE901ADFED1C2A00BF52
:101F0000F8EE611A106882EEA12AC0F3080001EE13
:101F1000900AF8EE611A40EE201A31EE810A00E0D4
:101F200015E022EE000A1068C0F34620401C00EEC7
:101F3000900AF8EE600A80EE201ABCEEC10A10EE9C
:101F4000100A70BD01EE901ADFED092AD8E70020D3
:101F500070BD0000104402580090D00340787D010D
:101F600000000039304402580024744A0024744CA4
:101F700020BCBE4B2DE9F05F04007DD0FF4F2078E0
:101F8000FE4D1837DFF8F493103DC00748D0D9F85C
:101F90000000396800F03800102815D0182803D147
:101FA00001F0030002280FD06068B0F5803F12D026
:101FB00010B1B0F5A02F18D0286820F48030286028
:101FC000286820F4802009E02868800328D560680C
:101FD0000028D2D024E0286840F48030286060686F
:101FE00088B1FEF7B7FE064609E0286840F4802075
:101FF0002860F0E7FEF7AEFE801B64286FD82868E3
:102000008003F7D50CE0FEF7A5FE064605E000BF0D
:10201000FEF7A0FE801B6428F0D828688003F7D460
:10202000207841F20308D54E0C3E800769D5D9F8D7
:102030000000396810F038000ED0182801D1880748
:102040000AD0E06890B3296821F0190101432960A2
:10205000FEF780FE824631E02868400702D5E0683E
:1020600000288AD0E168286820F019000843286019
:10207000FEF770FE824607E0DFE000BFFEF76AFE73
:10208000A0EB0A000228B9D828684007F6D500BF9F
:10209000FEF75AFE40451BD82069402812D031680F
:1020A00021F47C3141EA003030602AE018E000BFC2
:1020B000FEF750FEA0EB0A0002289FD828684007D0
:1020C000F6D5E5E7306820F47C3040F40030EBE7EB
:1020D000207C316821F0FE4141EA0060E4E70DE137
:1020E000286820F001002860FEF734FE824605E0F3
:1020F000FEF730FEA0EB0A0002288DD828684007C2
:10210000F6D42078C0065DD5D9F80000DFF86CB2AF
:10211000396800F03800ABF1040B082810D01828FB
:1021200003D101F0030001280AD0E06900282868E3
:1021300038D040F080002860FEF70CFE824623E095
:102140002868C00523D5E069802876D11FE0206A81
:10215000202821D0316821F0F84141EA80603060C8
:1021600030E000BF94F82010DBF8002022F07C5211
:1021700042EA0161CBF8001024E000BFFEF7EAFD5F
:10218000A0EB0A00022898D82868C005F6D5FEF70B
:10219000DBFD4045E6D8DAE7306820F0F84040F053
:1021A0008040DCE720F080002860FEF7D3FD064683
:1021B00005E000BFFEF7CEFD801B02289DD82868F1
:1021C000C005F7D42078000729D56C4861696430D0
:1021D00000298046016811D041F001010160FEF73D
:1021E000B9FD064605E000BFFEF7B4FD801B0228DE
:1021F000C9D8D8F800008007F6D510E021F0010119
:102200000160FEF7A7FD064605E000BFFEF7A2FD50
:10221000801B022872D8D8F800008007F6D42078F6
:10222000800623D5A0690028286810D040F480508B
:102230002860FEF78FFD064605E036E1FEF78AFDD1
:10224000801B02285AD828688004F7D50EE020F4B5
:1022500080502860FEF77EFD064604E0FEF77AFD1A
:10226000801B02284AD828688004F7D420784007C9
:102270004FD5DFF80C81D8F8001041F48071C8F810
:102280000010FEF767FD064605E000BFFEF762FDA1
:10229000801B642832D8D8F80000C005F6D5374E28
:1022A000A068603601280AD008B1052813D030682C
:1022B00020F001003060306820F0040002E0306857
:1022C00040F001003060A06841F2883A90B1FEF71A
:1022D00041FD80460AE0306840F004003060EEE7DF
:1022E000FEF738FDA0EB0801514507D8306880079C
:1022F000F6D50EE0FEF72EFD804607E084E000BF35
:10230000FEF728FDA0EB080151457DD83068800715
:10231000F6D4606AB0B3DFF86480D9F8001008F131
:1023200020084FF6F87B08F10409C1F3C201032924
:10233000A8F1040A69D00228286820F0807028607B
:1023400003D0FEF707FD044684E0FEF703FD0646D2
:1023500005E000BFFEF7FEFC801B022877D8286846
:102360008001F7D4E26A40F2F331386854F8283F2C
:10237000884340EA02101843386004E010440258D1
:1023800000480258B5E0217B434622894FF4FE0CF9
:10239000208A4FF0FE474902267D521E401EA1F5BD
:1023A0000071C2F308088AB2761E0CEA004042EAC5
:1023B00008020243504607EA06610A431A60DAF847
:1023C000002022F00102CAF80020D9F80020266A75
:1023D00022EA0B0242EAC602C9F80020DAF800102D
:1023E000A26921F00C011143CAF800100168E269EA
:1023F00021F0020111430160016841F48031016064
:10240000016841F4003101E021E027E0016001684A
:1024100041F480210160016841F0010101602868F8
:1024200040F080702860FEF795FC044605E000BF90
:10243000FEF790FC001B022809D828688001F7D518
:1024400057E000BFFEF786FC001B022802D90320DC
:10245000BDE8F09F28688001F4D44AE0396801287B
:10246000D8F8000021D0A26A01F0030393421CD1E6
:10247000E26AC1F305118A4217D1216BC0F3080249
:10248000491E8A4211D1616BC0F34622491E914216
:102490000BD1A16BC0F30642491E914205D1E16BFD
:1024A000C0F30660491E814201D00120D0E7A16C33
:1024B0004E46D9F80000C0F3CC00814219D0DAF8BA
:1024C0000000554620F00100CAF80000FEF742FC6B
:1024D0004FEA0007FEF73EFCB842FBD0A26C306822
:1024E00020EA0B0040EAC2003060286840F001009A
:1024F00028600020ACE7401EB0F1807F10B501D30A
:10250000012010BD4FF0E02460610F21601701F041
:1025100038FF0020A0610721216110BD704770477E
:1025200070470000F0B590F83C20012A3BD01F4EC8
:10253000012480F83C40022280F83D2002681C4DB6
:102540005368B242D2F808C001D0AA4203D14F6802
:1025500023F470033B430F6823F070031F4357605D
:102560000268B24213D0B2F1804F10D0114B9A42A0
:102570000DD0114B9A420AD0104B9A4207D0AA4272
:1025800005D00F4B9A4202D00E4B9A4204D1896873
:102590002CF0800319439160002180F83D4080F8C1
:1025A0003C100846F0BD0220F0BD000000000140D4
:1025B000000401400004004000080040000C0040FE
:1025C000001800400040014010B5040003D094F80A
:1025D0003D0010B107E0012010BD002084F83C0050
:1025E000204600F023F8022084F83D002068211DD9
:1025F00001F0ECF8012084F8480084F83E0084F8EB
:102600003F0084F8400084F8410084F8420084F8D8
:10261000430084F8440084F8450084F8460084F8B8
:10262000470084F83D00002010BD000010B586B0C2
:10263000044614216846FDF716FF2068B0F1804F6C
:1026400026D11448016841F001010160006800F0E2
:10265000010005900F480838016841F00101016050
:1026600000680021022200F0010005900120009086
:10267000CDE90121CDE9031007486946FEF74EFA7E
:1026800000221C201146FEF7DDFB1C20FEF7CCFBD0
:1026900006B010BDE84402580000025890F83D1002
:1026A000012901D001207047174A022180F83D100E
:1026B0000168CB6843F00103CB600068904214D0FE
:1026C000B0F1804F11D0114988420ED01049884294
:1026D0000BD01049884208D00F49884205D00F49D5
:1026E000884202D00E49884207D181680D4A1140C4
:1026F000062906D0B1F5803F03D0016841F0010101
:10270000016000207047000000000140000400400C
:1027100000080040000C0040000401400018004088
:102720000040014007000100704770B50446006892
:1027300000250169C943890715D4C168C9438907C0
:1027400011D4EA1E02610121217720688069800787
:10275000204602D0FFF7E8FF04E000F0CFF8204663
:1027600000F0AEF9257720680169C943490717D4FD
:10277000C168C943490713D402216FF00402026102
:1027800021772068806910F4407F204602D0FFF74F
:10279000CBFF04E000F0B2F8204600F091F9257775
:1027A00020680169C943090716D4C168C9430907EC
:1027B00012D404216FF00802026121772068C069F9
:1027C0008007204602D0FFF7AFFF04E000F096F844
:1027D000204600F075F9257720680169C943C906CC
:1027E00017D4C168C943C90613D408216FF0100279
:1027F000026121772068C06910F4407F204602D032
:10280000FFF792FF04E000F079F8204600F058F955
:10281000257720680169C943C90708D1C168C94340
:10282000C90704D1891E0161204600F0D3F9206850
:102830000169C943090609D4C168C943090605D419
:102840006FF0800101612046FFF769FE2068016991
:10285000C943C90509D4C168C943090605D46FF441
:10286000807101612046FFF759FE20680169C94364
:10287000490609D4C168C943490605D46FF040012F
:102880000161204600F0D2F920680169C943890638
:102890000BD4C168C943890607D46FF020010161D8
:1028A0002046BDE87040FFF73BBE70BD10B586B056
:1028B000044614216846FDF7D6FD0D49206888427C
:1028C00014D10C48016841F0020101600068002148
:1028D000032200F00200059002200092CDE90101E0
:1028E000CDE9031004486946FEF718F906B010BD9B
:1028F00000040040E044025800040258704770B5DC
:10290000044690F83C0000260D4601280BD001201B
:1029100084F83C000C2A4AD007DC82B1042A20D07B
:10292000082A06D131E0022070BD102A53D0142AA3
:1029300063D00126002084F83C00304670BD20683A
:1029400000F0BCFF2068816941F0080181612068C6
:10295000816921F00401816120682A69816911433C
:1029600011E0206800F0FEFF2068816941F40061F9
:1029700081612068816921F4806181612068296911
:10298000826942EA01218161D4E7206801F036F8CA
:102990002068C16941F00801C1612068C16921F066
:1029A0000401C16120682A69C169114311E02068EE
:1029B00001F070F82068C16941F40061C1612068CC
:1029C000C16921F48061C16120682969C26942EA54
:1029D0000121C161AEE7206801F098F82068416DDF
:1029E00041F0080141652068416D21F00401416515
:1029F00020682A69416D114311E0206801F0C0F898
:102A00002068416D41F4006141652068416D21F409
:102A10008061416520682969426D42EA0121416572
:102A200088E710B5040003D094F83D0010B107E02A
:102A3000012010BD002084F83C00204600F022F860
:102A4000022084F83D002068211D00F0BFFE012017
:102A500084F8480084F83E0084F83F0084F8400081
:102A600084F8410084F8420084F8430084F844006C
:102A700084F8450084F8460084F8470084F83D0057
:102A8000002010BD08B500680B49884212D10B48E0
:102A9000016841F00201016000680022114600F067
:102AA000020000901D20FEF7CDF9BDE808401D2072
:102AB000FEF7BAB908BD000000040040E84402581F
:102AC0007047000030B504464FF0020269B1042996
:102AD00012D0082917D00C291CD0102921D094F825
:102AE0004300012824D0012030BD94F83E00012885
:102AF000F9D184F83E201DE094F83F000128F2D17E
:102B000084F83F2016E094F840000128EBD184F8C7
:102B100040200FE094F841000128E4D184F84120DE
:102B200008E094F842000128DDD184F8422001E059
:102B300084F843200122206800F0AAFE1B4B206885
:102B40001B491C4A984209D0884207D0904205D0C0
:102B5000194DA84202D0194DA84203D1456C45F445
:102B6000004545642068984212D0B0F1804F0FD0E4
:102B7000134B98420CD0134B984209D0124B9842F9
:102B800006D0884204D01149884201D0904207D132
:102B900081680F4A1140062906D0B1F5803F03D065
:102BA000016841F001010160002030BD00000140DA
:102BB0000004014000400140004401400048014041
:102BC0000004004000080040000C004000180040D5
:102BD00007000100704770B5044690F83C000128DA
:102BE00012D0012584F83C50022084F83D00204694
:102BF00001F000F800284FF0000007D084F83D50A5
:102C000084F83C00012070BD022070BD2168CA68B4
:102C100022F04002CA602168CA6822F48042CA6079
:102C200084F83D5084F83C00002070BD704730B5FA
:102C300090F88410012918D0012280F884202421E2
:102C4000C0F888100022202401680B680D6823F06A
:102C5000005325F001050D60426601680B60C0F865
:102C6000884080F88420104630BD022030BD704777
:102C7000704770B5044690F8840001281DD00122E9
:102C800084F884202420C4F888002068056802683D
:102C900022F0010202602068826822F060620A432A
:102CA0008260204601F03AF8226820210020156059
:102CB000C4F8881084F8840070BD022070BD70B51F
:102CC000044690F8840001281DD0012284F8842055
:102CD0002420C4F8880020680568026822F00102F8
:102CE00002602068826822F060420A4382602046C7
:102CF00001F014F82268202100201560C4F8881023
:102D000084F8840070BD022070BD70477047704722
:102D10002DE9F04107680025044640F60F0302261E
:102D2000F8693968BA6818420AD183067ED501F07D
:102D3000200302F0805C53EA0C0377D0616F74E1EA
:102D4000CF4BDFF840C3134001EA0C0C53EA0C0CE4
:102D50006CD05FEAC07C0CD05FEAC15C09D54FF053
:102D6000010CC7F820C0D4F8907047F00107C4F8F0
:102D70009070870709D5D70707D027683E62D4F837
:102D8000906046F00406C4F8906046070AD5D6075E
:102D900008D0276804263E62D4F8906046F0020608
:102DA000C4F8906006070CD501F020061E4308D039
:102DB000266808233362D4F8903043F00803C4F83F
:102DC000903003050BD54B0109D526684FF40063FD
:102DD0003362D4F8903043F02003C4F89030D4F834
:102DE0009030002B3DD0800609D501F0200002F084
:102DF0008051084303D0616F09B12046884721689C
:102E0000D4F890008968490602D410F0280F2AD01F
:102E1000204601F069F82068806840061ED52068C9
:102E2000083050E8001F21F0400100E021E040E8B8
:102E30000012002AF3D1D4F8800078B192490165DC
:102E4000D4F88000FDF728FD00280AD0D4F88000CF
:102E5000016D00E02046BDE8F04108472046FFF73D
:102E600056FFBDE8F0812046FFF751FFC4F89050AF
:102E7000F7E7D4F86CC02023BCF1010F7ED15FEAE4
:102E8000C06C7BD55FEAC16C78D5102038622068B1
:102E90008068400673D5D4F880107C4A0868904258
:102EA00034D07A4A1832904230D0784A3032904248
:102EB0002CD0764A4832904228D0744A60329042F0
:102EC00024D0724A7832904220D0704A9032904298
:102ED0001CD06E4AA832904218D06D4A904215D04C
:102EE0006B4A1832904211D0694A303290420DD06C
:102EF000674A4832904209D0654A6032904205D014
:102F0000634A7832904201D0614A903240680004AE
:102F1000000CA6D0B4F85C208242A2D9A4F85E00CE
:102F2000C869B0F5807F2FD0216851E8000F20F4E8
:102F3000807041E80002002AF6D12068083050E88D
:102F4000001F21F0010140E80012002AF5D120689D
:102F5000083050E8001F21F0400140E80012002A2C
:102F6000F5D1C4F88C30E566216851E8000F20F0F7
:102F7000100041E80002002AF6D101E040E00BE039
:102F8000D4F88000FDF7D8FA2667B4F85C00B4F8EE
:102F90005E10401A81B22FE0B4F85C00B4F85E1005
:102FA000B4F85E20401A81B2002AB2D00029B0D015
:102FB000226852E8000F20F4907042E80007002FCA
:102FC000F6D1344F206800F1080050E8002F02EAE3
:102FD000070240E8002CBCF1000FF3D1C4F88C309C
:102FE000E5666567206850E8002F22F0100240E88F
:102FF0000023002BF6D126672046FFF738FE30E786
:10300000C60209D5560207D54FF480103862204613
:10301000BDE8F041FFF77ABE06060AD501F080064A
:1030200002F40002164304D0A16F00297FF412AF0E
:1030300017E7420611D54A060FD52046026852E826
:10304000001F21F0400142E80014002CF6D1C0F826
:103050008830856700F0A2F803E7020206D54A002F
:1030600004D52046BDE8F041FFF74FBEC001C6D5EC
:103070000029C4DA2046BDE8F041FFF7F9BD0000A1
:103080000100001020010004D33E0008100002409F
:1030900010040240FEFFFFEF10B5040003D0D4F887
:1030A000880010B107E0012010BD002084F88400E2
:1030B000204600F027F82420C4F888002068016822
:1030C00021F001010160204600F038FF0128EBD01B
:1030D000A06A10B1204600F043FE2068416821F448
:1030E000904141602068816821F02A018160206858
:1030F000016841F0010101602046BDE8104000F088
:1031000093BE000010B5B6B00446142130A8FDF7F8
:10311000AAF9C0216846FDF7A6F91D492068884232
:1031200033D100201F9001210446CDE900106846EC
:10313000FEF73AF808B1FDF7FCF91648016841F0CE
:1031400010010160006800F010003590114810383F
:10315000016841F001010160006830AB022100F01C
:10316000010035904FF4C060072283E813000A483D
:1031700030A9CDE93342FDF7D1FC002225201146CC
:10318000FDF760FE2520FDF74FFE36B010BD0000B4
:1031900000100140F0440258000002587047FEE75A
:1031A00010B586B014216846FDF75DF9174801682F
:1031B00041F080010160016801F080010591016822
:1031C00041F001010160016801F001010591016810
:1031D00041F002010160016801F0020105910168FE
:1031E00041F04001016000680221002200F040002F
:1031F000059003230B244FF4C0408DE81F000448C2
:103200006946FDF78BFC06B010BD0000E044025893
:103210000018025830B589B014216846FDF723F92B
:103220001C4C0025691E05954FF0804006950795BA
:10323000C4E90005C4E9025125612046A561FFF7F4
:10324000C3F908B1FDF775F9072070218DE8230057
:103250001048694603950495FFF7BDFC08B1FDF7DA
:1032600068F90C4805A905950795FFF75BF908B1C2
:10327000FDF75FF90748FFF711FA2068C16841F0D0
:103280004001C1602068C16841F00101C16009B01E
:1032900030BD00001400002470B58AB000256846D7
:1032A0001C21079508950995FDF7DDF8224C42F29F
:1032B0001071802045F6C0531022204E2561A06178
:1032C0002046C4E90221C4E90063FFF7AAFB08B164
:1032D000FDF72FF9184807A907950995FFF722F977
:1032E00008B1FDF726F96020049502210291CDE98D
:1032F0000005114808226946FFF701FB08B1FDF7F8
:1033000018F90D480C226946FFF7F9FA08B1FDF7E4
:1033100010F909480821FFF7D5FB07480C21FFF7F2
:10332000D1FB2068C16841F00101C1600248FFF78C
:10333000BDFA0AB070BD0000600000240004004027
:103340001848002110B5164C0C224FF4E1330460EC
:10335000C0E90131C160C0E904128161C16101624B
:1033600041628162FFF798FE08B1FDF7E2F80D486F
:103370000021FFF7A4FC08B1FDF7DBF809480021A4
:10338000FFF777FC08B1FDF7D4F80648FFF74FFCCC
:10339000002803D0BDE81040FDF7CBB810BD0000F9
:1033A00000100140AC000024FEE7FEE7704700007B
:1033B0002DE9F047454D044689464FF0000A28683C
:1033C000C04380070AD0414E283E306820F080601C
:1033D0003060FDF7BFFC0746B04608E00120BDE8BD
:1033E000F08700BFFDF7B6FCC01B022867D8D8F8ED
:1033F00000000001F6D4206829684FF4FE0721F48C
:103400007C313E0241EA00302860207AA389B4F87A
:1034100004C040022D4D2D495B1E227CACF1010CF5
:103420001035091DA0F5007080B2521ECCF3080CB7
:1034300007EA034340EA0C00184306EA026210431D
:1034400028600868626920F0C000104308600A68BC
:10345000A06922F0200202430A60281D0A6822F0B7
:1034600010020A6002684FF6F873E4699A4342EA70
:10347000C40202600868B9F1000F40F010020A604F
:1034800011D00868B9F1010F11D040F400100860A4
:10349000D8F80000444640F08060C8F80000FDF70E
:1034A00059FC05460DE0086840F40020EFE740F4C1
:1034B0008010ECE7FDF74EFC401B022801D90320E9
:1034C0008DE720680001F5D5504688E7284402586A
:1034D0002DE9F047454D044689464FF0000A28681B
:1034E000C04380070AD0414E283E306820F080500B
:1034F0003060FDF72FFC0746B04608E00120BDE82C
:10350000F08700BFFDF726FCC01B022867D8D8F85B
:1035100000008000F6D4208829684FF4FE0721F0CF
:103520007C713E0241EA00502860207AA389B4F8F9
:1035300004C040022D4D2D495B1E227CACF1010CD4
:103540001835091DA0F5007080B2521ECCF3080C8E
:1035500007EA034340EA0C00184306EA02621043FC
:1035600028600868626920F44060104308600A68B7
:10357000A06922F4007202430A60281D0A6822F43E
:1035800080720A6002684FF6F873E4699A4342EA6F
:10359000C40202600868B9F1000F40F480720A604A
:1035A00011D00868B9F1010F11D040F080700860A7
:1035B000D8F80000444640F08050C8F80000FDF7FD
:1035C000C9FB05460DE0086840F48000EFE740F4D1
:1035D0000000ECE7FDF7BEFB401B022801D90320E9
:1035E0008DE720688000F5D5504688E728440258CA
:1035F0007047FDF7B5BB000070B59CB04C21684624
:10360000FCF731FF202113A8FCF72DFF0220FDF766
:103610004BFC2E4900252E480A6822F001020A6060
:103620000A68026842F440420260026802F44042C2
:103630001B9202689204FCD5264A136843F00203E9
:103640001360126802F002021B92026842F44042C8
:10365000026002680A6842F001020A60096801F02B
:1036600001011B9101688904FCD50121039102200D
:1036700000904024049404220B920526CDE909050C
:103680003C23CDE90C300C211295CDE90E06CDE995
:1036900010156846FEF76EFC08B172B6FEE7082208
:1036A0001A94CDE91624D30113AA3F200321CDE9B2
:1036B000184382E82300042113A8FEF74BFA0028E0
:1036C00001D072B6FEE71CB070BD00002C0400589B
:1036D00018480258F44402582C48F0B52C4A0168A6
:1036E00041F470010160106800F00F00072804D257
:1036F000106820F00F00C01D106026490020254CE6
:1037000010340B68244D43F001030B6020600B68FC
:103710002B400B60136803F00F03072B04D91368C9
:1037200023F00F03DB1D13601A4C1C4A18341C4B8A
:10373000261D371D2060174C1A4D28343060261D79
:103740003860371D23603B1D35601C1D3A60251D08
:103750002E1D1860331D22602860326018600A68D0
:103760000C4B114C22F4802260330A6018602068F0
:103770006FF30F00B0F1005F03D20C490120C1F8D4
:10378000080143F2D2000A490860F0BD88ED00E06C
:1037900000200052004402587FEDF6EA8002010149
:1037A000000202020000FF010010005C00800051D6
:1037B000004000520148FEF7B8BF0000140000248A
:1037C0000148FEF7B2BF0000600000242DE9F04779
:1037D000274B4FF0804A274D02689842264E274FCC
:1037E000274C09D0504507D0A84205D0B04203D09D
:1037F000B84201D0A04205D1D1F804C022F0700235
:103800004CEA0202DFF87CC0DFF87C809842DFF8E7
:103810007C900FD050450DD0A8420BD0B04209D0BB
:10382000B84207D0A04205D0604503D0404501D042
:10383000484503D1CD6822F440722A434D6922F0F5
:1038400080022A43026098428A68C2620A688262E1
:1038500007D0A04205D0604503D0404501D048457F
:1038600001D10969016301214161BDE8F0870000D0
:10387000000001400004004000080040000C00402F
:103880000004014000400140004401400048014064
:1038900010B5046A012301F01F018B409C430462B0
:1038A0008A40016A1143016210BD42EA0322836823
:1038B0000A4323F47F410A43826070472DE9F04FA9
:1038C000026ADFF88880DFF8889022F00102DFF8D2
:1038D00084A0DFF884B0214F0262DFF884C0066A5A
:1038E0004268836926F002060D68B8428C6803EAD4
:1038F0000C0323F0030344EA060445EA030507D05A
:10390000404505D0484503D0504501D0584505D124
:10391000CB6824F00804234323F00404B84207D002
:10392000404505D0484503D0504501D0584505D104
:1039300022F44076D1E9053233431A43426085616F
:10394000496841630462BDE8F08F00000004014053
:103950000040014000440140004801400000014097
:103960008FFFFEFFF0B5026A1E4E1F4C22F01002C0
:10397000DFF878E00262056A4368826925F0200575
:10398000D1F808C0A0420F6802EA060222F4407291
:1039900045EA0C1542EA072201D0704506D1CE68EF
:1039A00025F0800545EA061525F04005A0420AD01D
:1039B000704508D00E4CA04205D00E4CA04202D05B
:1039C0000D4CA04207D1D1E9054623F4406343EAF8
:1039D000840343EA86034360826149688163056228
:1039E000F0BD0000FF8FFFFE000001400004014019
:1039F000004001400044014000480140F0B5026A27
:103A00001E4F1F4E22F48072DFF878E00262056AD2
:103A10004368C26925F40075D1F808C0B0420C684B
:103A200002EA070222F0030245EA0C2544EA0204F6
:103A300001D0704506D1CF6825F4006242EA072222
:103A400022F48065B0420AD0704508D00E4A9042F8
:103A500005D00E4A904202D00D4A904207D123F47D
:103A60004052D1E9053642EA031242EA06134360A6
:103A7000C4614968C1630562F0BD00008FFFFEFFAD
:103A800000000140000401400040014000440140AA
:103A900000480140F0B5026A174B164F22F48052DD
:103AA00098420262046A4268C36924F400548E6832
:103AB0000D6803EA070323F4407344EA063443EA3B
:103AC00005230BD00D4DA84208D00D4DA84205D0BE
:103AD0000C4DA84202D00C4DA84204D14D6922F4ED
:103AE000804242EA85124260C3614968016404620F
:103AF000F0BD0000FF8FFFFE000001400004014008
:103B0000004001400044014000480140F0B5026A15
:103B1000DFF854C022F480320262056A4268446DC4
:103B200025F400350E896045104F0B6804EA070440
:103B300045EA064543EA04030BD00D4CA04208D0E9
:103B40000C4CA04205D00C4CA04202D00B4CA04221
:103B500004D14C6922F4803242EA04224260436577
:103B6000496881650562F0BD000001408FFFFEFFDE
:103B70000004014000400140004401400048014071
:103B8000F0B5026ADFF854C022F480120262046ABF
:103B90004268436D24F400140E896045104F0D688F
:103BA00003EA070344EA065443EA05230BD00D4D0C
:103BB000A84208D00C4DA84205D00C4DA84202D016
:103BC0000B4DA84204D14D6922F4802242EA85229D
:103BD000426043654968C1650462F0BD0000014070
:103BE000FF8FFFFE000401400040014000440140FF
:103BF000004801402DE9F041D1E900230668002486
:103C0000DFF8C0C0304FB56805EA0C052B433B40D8
:103C10001A43B2604A68B2F1101F27D014DC402A60
:103C20002ED007DC12B3102A20D0202A1ED0302A32
:103C30001BD11BE0502A39D0602A3DD0702A18D001
:103C4000B2F5801F11D111E02049501A8A420DD0DF
:103C500004DCA2F58012A2F12002E3E7102805D0CF
:103C60001B49401802D0102800D001242046BDE88E
:103C7000F0818A680068D1E90313FFF716FEF5E7C3
:103C80000A68052A10D00268136A156A25F0010532
:103C9000156202680D69916921F0F00141EA051190
:103CA000916100680362E1E70120E0E70A690068CA
:103CB000896800F00FF8D9E70A690068896800F0A0
:103CC0001AF8D3E78FFFCFFFF8FFFEFF6000100068
:103CD0006000F0FF10B5036A046A23F00A0324F0C1
:103CE0000104046284690B4324F0F00141EA0211EB
:103CF0008161036210BD10B5036A23F010030362F3
:103D00008369046A23F4704324F0A00443EA023276
:103D1000826144EA0111016210BD000030B5416EBC
:103D2000B9B101680D4B03F108048A688968C2F3D0
:103D30004262490F5D5C615C2D01B5FBF1F1A0F8B9
:103D40006A10995CA25C0901B1FBF2F1A0F868105D
:103D500030BD0121A0F86A10F8E70000E043000838
:103D600090F82810C90706D00168C36A4A6822F48F
:103D700000321A434A6090F82810890706D5016876
:103D8000036B4A6822F480321A434A6090F8281084
:103D9000490706D50168436B4A6822F480221A431A
:103DA0004A6090F82810090706D50168836B4A68B5
:103DB00022F400421A434A6090F82810C90606D53A
:103DC0000168C36B8A6822F480521A438A6090F8B3
:103DD0002810890606D50168036C8A6822F400520F
:103DE0001A438A6090F82810490611D50168436C7F
:103DF0004A6822F480121A434A60416CB1F5801F70
:103E000006D10168836C4A6822F4C0021A434A60F2
:103E100090F82810090606D50168C26C486820F49D
:103E200000201043486070472DE9F8430025044600
:103E3000C0F89050FCF78EFF8046206820266FF077
:103E40007E470068000713D5002243463104204610
:103E5000009700F049FA58B1216851E8000F20F0AE
:103E6000800041E80002002AF6D1C4F8886021E011
:103E700020680068400722D5002243464FF48001A5
:103E80002046009700F030FAC8B1206850E8001FC3
:103E900021F4907140E80012002AF6D12068083021
:103EA00050E8001F21F0010140E80012002AF5D17E
:103EB000C4F88C60032084F88450BDE8F883C4F80B
:103EC0008860C4F88C60E5662567002084F884501B
:103ED000F3E710B5806B0021A0F85E10A0F8561033
:103EE000FEF715FF10BD000010B5026852E8001F74
:103EF00021F4907142E80013002BF6D10E4B0268BA
:103F0000083252E8001F194042E80014002CF6D194
:103F1000C16E012908D1026852E8001F21F010018A
:103F200042E80013002BF6D100212022C0F88C209B
:103F3000C166416710BD0000FEFFFFEF2DE9F043B1
:103F400004468068D84E87B0D84B2168D4E904274E
:103F5000D4F81CC010430A68002547EA0C07384310
:103F6000324002430A602068E268416821F440510F
:103F7000114341602268A1699A4201D0206A01433D
:103F80009768DFF82CC3CB4ECB4807EA0C070F43EA
:103F900097602168676ACA6A22F00F023A43CA62D0
:103FA0002268B2420ED1006800F03800182873D0A1
:103FB00047DCB8B3082879D010286FD178E02828DA
:103FC0007ED17BE0BD498A4209D1006800F007003C
:103FD000062875D2DFE800F0546A6C6E7072B8493A
:103FE0008A4209D1006800F00700062868D2DFE89D
:103FF00000F0475D5F616365B2498A4209D100689C
:1040000000F0070006285BD2DFE800F03A50525477
:104010005658AD498A420BD1006800F007000628C7
:104020004ED200E010E0DFE800F02B414345474965
:10403000A6498A420AD1006800F03800182839D011
:10404000B7DD2028BBD13CE001203AE0A0498A42FC
:1040500009D1006800F00700062831D2DFE800F03F
:104060001026282A2C2E9B498A420BD1006800F08A
:104070000700062824D2DFE800F003191B1D1F21CA
:1040800000201EE09A421BD18B48001D006800F002
:104090000700062814D202E00CE007E010E0DFE899
:1040A00000F0030507090B0D02200AE0042008E0D8
:1040B000082006E0102004E0202002E0402000E07C
:1040C00080208549DFF814829A42854A4FF40043E4
:1040D0004FEA21174FF000064ED110281AD006DC07
:1040E000022809D004280BD008287CD10DE0202814
:1040F0003ED0402877D13DE0FCF700FF014610E0BC
:104100006846FCF70DFF01990BE003A8FCF7AAFF36
:10411000049906E01068800605D51068C0F3C10058
:10412000C140002970D0606A676838F8102007EB3A
:104130004703B1FBF2F0834255D8B0EB073F52D8AA
:10414000002308461946FCF717F902467808130EB3
:10415000120243EA012110183A4671410023FCF78C
:104160000BF9604AA0F5407191423CD821688FE07C
:104170003946D8E71946D6E7D4F81CC04FF6EF7990
:104180009C4546D1082819D005DC58B101280CD02F
:10419000042875D10DE0102815D0202835D04028EE
:1041A0006ED134E0FDF726FE01E0FDF735FE014655
:1041B00010E06846FCF7B4FE01990BE003A8FCF799
:1041C00051FF049906E01068800604D51068C0F31A
:1041D000C100C140C1B1636A606838F81330B1FBF7
:1041E000F3F1490000E04BE001EB5001B1FBF0F0CE
:1041F000A0F11001494543D84FF6F0732168C0F390
:1042000042021840104343E043E03946E3E71946D1
:10421000E1E7082819D005DC58B101280CD00428A2
:104220002ED10DE0102815D020282BD0402827D1E2
:104230002AE0FDF7DFFD01E0FDF7EEFD014610E0AD
:104240006846FCF76DFE01990BE003A8FCF70AFF36
:10425000049906E01068800604D51068C0F3C10018
:10426000C140B1B1636A606838F81330B1FBF3F153
:1042700001EB5001B1FBF0F0A0F11001494505D967
:10428000012506E03946EDE71946EBE7216880B2E3
:10429000C8600120A4F86A00A4F868002846666790
:1042A000A66707B0BDE8F083F369FFCF000C0058A4
:1042B000FFF4FF1100100140544402580044004034
:1042C00000480040004C00400050004000140140F5
:1042D00000780040007C00400090D003C8430008F4
:1042E00000440258FFFC0F002DE9F047994617469D
:1042F0000E460446089D4FF000082FE0681C2DD0A4
:10430000FCF728FDA0EB0900A84214D89DB1206855
:104310000168490722D5C169C94309070DD4082599
:1043200005622046FFF7E0FDC4F89050012084F8B4
:104330008480BDE8F0870320FBE7C069C043000527
:104340000CD421684FF4006008622046FFF7CCFDD2
:104350002021C4F8901084F88480ECE72068C069BC
:1043600036EA000004D00020B842C7D00020E0E7C1
:104370000120F9E70148FEF7CBBC0000AC000024A7
:10438000FEE7090700284FEA116104DB00F1E02095
:1043900080F80014704700F00F0000F1E02080F872
:1043A000141D7047FCF7E4FCFFF726F9FEF7F8FE52
:1043B000FEF7C6FFFEF770FFFEF72CFFFEE74FF09B
:1043C0004070E1EE100A7047010002000400060090
:1043D00008000A000C0010002000400080000001CE
:1043E00001010103070100000804020408010101A2
:1043F000000000000102030401020304060708098B
:10440000204400080000002414000000D40200082A
:1044100034440008140000248C090000F002000855
:104420000100000010000000000000000090D00318
:044430000090D00325
:040000050800029954
:00000001FF
