:020000040800F2
:1000000000000824811400081110000817100008CF
:100010001D1000082310000829100008000000002F
:100020000000000000000000000000002F10000889
:100030003D100008000000004B1000085910000897
:10004000D1140008D1140008D1140008D1140008FC
:10005000D1140008D1140008D1140008D1140008EC
:10006000D1140008D1140008D1140008D1140008DC
:10007000D1140008D1140008D1140008D1140008CC
:10008000D1140008D1140008D1140008D1140008BC
:10009000D1140008D1140008D1140008D1140008AC
:1000A000D1140008D1140008D1140008D11400089C
:1000B000D1140008D1140008D1140008D11400088C
:1000C000D1140008D1140008D1140008D11400087C
:1000D000D1140008D1140008D1140008D11400086C
:1000E000D1140008D114000800000000D114000849
:1000F000D1140008D1140008D1140008D11400084C
:10010000D1140008D1140008D1140008D11400083B
:10011000D1140008D1140008D1140008D11400082B
:10012000D1140008D1140008D1140008D11400081B
:10013000D1140008D1140008D1140008D11400080B
:1001400000000000000000000000000000000000AF
:10015000D1140008D1140008D1140008D1140008EB
:10016000D1140008D1140008D1140008D1140008DB
:10017000D1140008D1140008D114000800000000B8
:10018000D1140008D1140008D1140008D1140008BB
:10019000D1140008D1140008D1140008D1140008AB
:1001A000D1140008D1140008D1140008D11400089B
:1001B000D1140008D1140008D1140008D11400088B
:1001C000D1140008D1140008D1140008D11400087B
:1001D000D114000865100008D1140008D1140008DB
:1001E000D1140008D1140008D1140008D11400085B
:1001F000D1140008D1140008D1140008D11400084B
:10020000D1140008D1140008D1140008D11400083A
:10021000D1140008D1140008D1140008D11400082A
:10022000D1140008D1140008D11400080000000007
:10023000D1140008D114000800000000D1140008F7
:10024000D1140008D1140008D1140008D1140008FA
:10025000D1140008D1140008D1140008D1140008EA
:10026000D1140008D1140008D1140008D1140008DA
:10027000D1140008D1140008D114000800000000B7
:10028000D1140008D1140008D114000800000000A7
:0802900000000000D114000879
:1002A00010B5054C237833B9044B13B10448AFF3B0
:1002B00000800123237010BDE00200240000000034
:1002C000BCF6000808B5034B1BB103490348AFF364
:1002D000008008BD00000000E4020024BCF6000815
:1002E00001F0FF01102A2BDB10F0070F08D010F8E7
:1002F000013B013A8B422DD010F0070F42B3F6D1EB
:10030000F0B441EA012141EA014122F007047FF003
:1003100000070023F0E80256083C85EA010586EA5A
:10032000010685FA47F5A3FA87F586FA47F6A5FA96
:1003300087F68EB9EED1F0BC01F0FF0102F00702A2
:1003400032B110F8013B013A83EA010313B1F8D14D
:100350000020704701387047002D06BF354603382E
:10036000073815F0010F07D1013015F4807F02BF67
:10037000013015F4C03F0130F0BC0138704700BFB8
:10038000034613F8012B002AFBD1181A01387047D5
:1003900081F0004102E000BF83F0004330B54FEA36
:1003A00041044FEA430594EA050F08BF90EA020FA3
:1003B0001FBF54EA000C55EA020C7FEA645C7FEA36
:1003C000655C00F0E2804FEA5454D4EB5555B8BF59
:1003D0006D420CDD2C4480EA020281EA030382EACA
:1003E000000083EA010180EA020281EA0303362D5C
:1003F00088BF30BD11F0004F4FEA01314FF4801C2F
:100400004CEA113102D0404261EB410113F0004F40
:100410004FEA03334CEA133302D0524263EB4303F7
:1004200094EA050F00F0A780A4F10104D5F1200E95
:100430000DDB02FA0EFC22FA05F2801841F10001F0
:1004400003FA0EF2801843FA05F359410EE0A5F1C4
:1004500020050EF1200E012A03FA0EFC28BF4CF0F5
:10046000020C43FA05F3C01851EBE37101F00045AB
:1004700007D54FF0000EDCF1000C7EEB00006EEBB8
:100480000101B1F5801F1BD3B1F5001F0CD3490842
:100490005FEA30004FEA3C0C04F101044FEA445299
:1004A00012F5800F80F09A80BCF1004F08BF5FEA20
:1004B000500C50F1000041EB045141EA050130BD00
:1004C0005FEA4C0C404141EB0101013C28BFB1F512
:1004D000801FE9D291F0000F04BF01460020B1FA5D
:1004E00081F308BF2033A3F10B03B3F120020CDA30
:1004F0000C3208DD02F1140CC2F10C0201FA0CF00E
:1005000021FA02F10CE002F11402D8BFC2F1200C72
:1005100001FA02F120FA0CFCDCBF41EA0C01904028
:10052000E41AA2BF01EB0451294330BD6FEA040471
:100530001F3C1CDA0C340EDC04F11404C4F120025C
:1005400020FA04F001FA02F340EA030021FA04F36E
:1005500045EA030130BDC4F10C04C4F1200220FAC5
:1005600002F001FA04F340EA0300294630BD21FA03
:1005700004F0294630BD94F0000F83F4801306BFC9
:1005800081F480110134013D4EE77FEA645C18BFBD
:100590007FEA655C29D094EA050F08BF90EA020F54
:1005A00005D054EA000C04BF1946104630BD91EA4C
:1005B000030F1EBF0021002030BD5FEA545C05D14F
:1005C0004000494128BF41F0004130BD14F580048E
:1005D0003CBF01F5801130BD01F0004545F0FE4102
:1005E00041F470014FF0000030BD7FEA645C1ABF37
:1005F000194610467FEA655C1CBF0B46024650EA6E
:10060000013406BF52EA033591EA030F41F4002199
:1006100030BD00BF90F0000F04BF0021704730B51F
:100620004FF4806404F132044FF000054FF00001F4
:1006300050E700BF90F0000F04BF0021704730B5B5
:100640004FF4806404F1320410F0004548BF40428A
:100650004FF000013EE700BF42004FEAE2014FEADF
:1006600031014FEA02701FBF12F07F4393F07F4FBA
:1006700081F06051704732F07F4208BF704793F0BD
:100680007F4F04BF41F40021704730B54FF46074D0
:1006900001F0004521F000411CE700BF50EA0102D3
:1006A00008BF704730B54FF000050AE050EA01027C
:1006B00008BF704730B511F0004502D5404261EBEC
:1006C00041014FF4806404F132045FEA915C3FF42D
:1006D000D8AE4FF003025FEADC0C18BF03325FEACA
:1006E000DC0C18BF033202EBDC02C2F1200300FA7B
:1006F00003FC20FA02F001FA03FE40EA0E0021FAA0
:1007000002F11444BDE600BF53B94AB9002908BF3D
:1007100000281CBF4FF0FF314FF0FF3000F0A8B9A8
:10072000ADF1080C6DE904CE00F03EF8DDF804E010
:10073000DDE9022304B0704708B502460B4643ECDE
:10074000172BB5EEC07BF1EE10FA03D4BDE80840DC
:1007500000F00AB8B1EE477B51EC170B00F004F83B
:10076000404261EB410108BD9FED0B6B41EC170B63
:100770009FED0B5B27EE066BBCEEC66BB8EE464BEF
:10078000A4EE457BFCEEC77B16EE101A17EE900A1E
:10079000704700BFAFF30080000000000000F03D94
:1007A000000000000000F0412DE9F047089E0D46D2
:1007B00004460F46002B4AD18A42944665D9B2FAC4
:1007C00082F343B102FA03FCC3F120029F4020FAF6
:1007D00002F217439C404FEA1C4E1FFA8CF5B7FB00
:1007E000FEF1220C0EFB117742EA074201FB05F0F5
:1007F00090420AD91CEB020201F1FF3780F01C8104
:10080000904240F2198102396244121AA4B2B2FB3A
:10081000FEF00EFB102244EA024400FB05F5A5425F
:100820000AD91CEB040400F1FF3280F00781A542D5
:1008300040F204816444023840EA0140641B002114
:100840001EB1DC400023C6E90043BDE8F0878B42BF
:1008500008D9002E00F0ED800021C6E90005084609
:10086000BDE8F087B3FA83F1002949D1AB4202D346
:10087000824200F2F880841A65EB030201201746D9
:10088000002EE2D0C6E90047DFE702B9FFDEB2FA88
:1008900082F3002B40F090808A1A4FEA1C471FFA1F
:1008A0008CFE0121B2FBF7F507FB1520220C42EA72
:1008B00000420EFB05F0904208D91CEB020205F144
:1008C000FF3802D2904200F2CB804546121AA4B201
:1008D000B2FBF7F007FB102244EA02440EFB00FED5
:1008E000A64508D91CEB040400F1FF3202D2A6454C
:1008F00000F2BB801046A4EB0E0440EA05409FE7DF
:10090000C1F120078B4022FA07FC4CEA030C05FAE0
:1009100001F420FA07F3FD404FEA1C492343B5FBDD
:10092000F9F81FFA8CFE09FB18551C0C44EA054423
:1009300008FB0EF5A54202FA01F200FA01F00BD90C
:100940001CEB040408F1FF3A80F08880A54240F2D5
:100950008580A8F102086444641B9DB2B4FBF9F3DE
:1009600009FB134445EA044403FB0EFEA64508D9DF
:100970001CEB040403F1FF356CD2A6456AD9023B97
:10098000644443EA0843A3FB0295A4EB0E04AC4283
:10099000C846AE4656D353D056B1B0EB080264EB0E
:1009A0000E0404FA07F7CA40CC401743C6E90074A6
:1009B00018460021BDE8F087C3F1200102FA03FCCC
:1009C00020FA01F225FA01F19D402A434FEA1C4723
:1009D0001FFA8CFEB1FBF7F007FB1015110C41EA72
:1009E000054100FB0EF58D4204FA03F408D91CEB17
:1009F000010100F1FF382FD28D422DD90238614418
:100A0000491B92B2B1FBF7F507FB151142EA01420F
:100A100005FB0EF1914208D91CEB020205F1FF38EB
:100A200016D2914214D9023D6244521A45EA00415D
:100A300038E73146304608E73946E6E61046FBE639
:100A40004845A9D2B9EB020865EB0C0E013BA3E7C0
:100A50004546EAE72B4694E74046D1E7D0467BE798
:100A6000023D624432E708460AE76444023842E73E
:100A7000704700BF80B588B000AF78607B681B68A6
:100A8000FB617B6803F07F63B3F1006F01D001234A
:100A900023E0FA69134B1340B3F1105F1AD17B685E
:100AA00004331B68BB61BB697B617B6903F07F63B7
:100AB000B3F1006F10D172B600BF7B693B61FB6977
:100AC000BB60BB6883F3088800BF3B69FB60FB68C1
:100AD000984701E0022300E0002318462037BD4676
:100AE00080BD00BF0000F02F80B489B000AF7860F7
:100AF000396007F10C0300221A605A609A60DA60CC
:100B00000023FB6113E03B681B680121FA6901FACD
:100B100002F21340002B07D0FA684FF00041FB6946
:100B200021FA03F31343FB60FB690133FB61FB69AB
:100B30001F2BE8DDFA687B681A6000BF2437BD46CA
:100B40005DF8047B7047000080B586B000AF786028
:100B500039604FF0FF337B611A4BFB6007F10C02E9
:100B600007F10C0311461846FFF7BEFF1EE07B6835
:100B70005A1C7A601B781A467B6953407B610023BC
:100B80003B6110E07B6903F00103002B05D07B691A
:100B90005A08FB6853407B6102E07B695B087B611C
:100BA0003B6901333B613B69072BEBDD3B685A1E18
:100BB0003A60002BDBD17B69DB4318461837BD4612
:100BC00080BD00BFB71DC10480B58AB000AF07F17A
:100BD000140300221A605A609A60DA601A61304B7E
:100BE000D3F8E0302E4A43F00403C2F8E0302C4B37
:100BF000D3F8E03003F004033B613B69284BD3F8A2
:100C0000E030274A43F08003C2F8E030244BD3F8A9
:100C1000E03003F08003FB60FB68214BD3F8E03049
:100C20001F4A43F00203C2F8E0301D4BD3F8E03016
:100C300003F00203BB60BB68194BD3F8E030184ADD
:100C400043F00103C2F8E030154BD3F8E03003F075
:100C500001037B607B6800220121124801F050F8FB
:100C60004FF400537B610023BB610023FB6107F15C
:100C7000140319460C4800F07BFE01237B6101231D
:100C8000BB610023FB6100233B6207F1140319469B
:100C9000044800F06DFE00BF2837BD4680BD00BF90
:100CA00000440258000402580008025880B483B07F
:100CB00000AF786000BF084BDB6903F04003002BF6
:100CC000F9D0054A7B6893627B6818460C37BD46AD
:100CD0005DF8047B704700BF00100140B0B5A2B0C2
:100CE00000AF454B5B6903F40033002B1BD1BFF30E
:100CF0004F8F00BFBFF36F8F00BF3F4B0022C3F881
:100D00005022BFF34F8F00BFBFF36F8F00BF3A4B2E
:100D10005B69394A43F400335361BFF34F8F00BF1F
:100D2000BFF36F8F00E000BF00F0D4FB00F024F9A8
:100D300000F072F8FFF748FF00F0ECFA09F026FC2B
:100D40002E480BF0E1F82E4B07F140041D462868B1
:100D50006968AA68EB680FC42869696903C407F168
:100D600058032822002118460BF0CEF9254A3B46AD
:100D70001068516803C312891A8007F10A033622EA
:100D8000002118460BF0C0F93B4604211846FFF736
:100D9000DBFEC7F884004FF400511B4800F098FFB9
:100DA0000346002BF7D14FF4967000F025FC4FF46A
:100DB0000051154800F08CFF0346002BEBD14FF497
:100DC0000051114800F084FF034687F8833097F8FC
:100DD0008330002B00D1F2E700BF07F1400340222F
:100DE00019460A4807F026FF09480BF08DF8094814
:100DF000FFF740FECFE700BF00ED00E0D8F60008A7
:100E0000ECF6000804F70008000802589C030024D0
:100E1000E0F600080000020880B59EB000AF07F1C0
:100E20002C034C22002118460BF06EF907F10C033D
:100E30002022002118460BF067F9022002F032FA56
:100E40000023BB60494BDB6A484A23F00103D362AD
:100E5000464BDB6A03F00103BB60454B9B69444A88
:100E600043F440439361424B9B6903F44043BB60AE
:100E7000BB6800BF3E4B9B6903F40053B3F5005FB2
:100E8000F8D13C4BD3F8F4303A4A43F00203C2F8AD
:100E9000F430384BD3F8F43003F002037B607B6806
:100EA00000233B60324B9B69314A43F440439361DA
:100EB0002F4B9B6903F440433B602C4BDB6A2B4A6E
:100EC00043F00103D362294BDB6A03F001033B606B
:100ED0003B6800BF264B9B6903F40053B3F5005FEA
:100EE000F8D12123FB624FF480333B6301237B6401
:100EF00002233B6502237B650223BB654023FB6520
:100F000002233B6602237B660223BB660C23FB663F
:100F100000233B6700237B6707F12C03184602F090
:100F20000BFA0346002B01D000F052F83F23FB6080
:100F300003233B6100237B610823BB614023FB61EA
:100F400040233B624FF480637B624023BB6207F126
:100F50000C030221184602F049FE0346002B01D083
:100F600000F036F800BF7837BD4680BD0004005859
:100F7000004802580044025880B584B000AF3B4698
:100F800000221A605A609A60DA6000F075FC012352
:100F90003B7000237B7000237B601F233B72872301
:100FA0007B720023BB720023FB7201233B7301237E
:100FB0007B730023BB730023FB733B46184600F092
:100FC00093FC042000F070FC00BF1037BD4680BDCC
:100FD00080B400AF72B600BFFEE7000080B483B0FB
:100FE00000AF0A4BD3F8F430084A43F00203C2F8CA
:100FF000F430064BD3F8F43003F002037B607B68D7
:1010000000BF0C37BD465DF8047B704700440258B2
:1010100080B400AFFEE780B400AFFEE780B400AF5D
:10102000FEE780B400AFFEE780B400AFFEE780B417
:1010300000AF00BFBD465DF8047B704780B400AFD1
:1010400000BFBD465DF8047B704780B400AF00BFB1
:10105000BD465DF8047B704780B500AF00F0ACFA88
:1010600000BF80BD80B500AF024800F0BBFF00BFED
:1010700080BD00BF8068002480B400AF0123184603
:10108000BD465DF8047B704780B582B000AF7860E4
:1010900039600BF08BF8034616221A604FF0FF33CD
:1010A00018460837BD4680BD80B582B000AF786075
:1010B0004FF0FF317868FFF7E7FFFEE780B586B0B5
:1010C00000AFF860B9607A6000237B610AE0AFF39B
:1010D00000800146BB685A1CBA60CAB21A707B69AC
:1010E00001337B617A697B689A42F0DB7B68184642
:1010F0001837BD4680BD80B586B000AFF860B960D6
:101100007A6000237B6109E0BB685A1CBA601B78D7
:101110001846FFF7CBFD7B6901337B617A697B68F9
:101120009A42F1DB7B6818461837BD4680BD80B413
:1011300083B000AF78604FF0FF3318460C37BD46E0
:101140005DF8047B704780B483B000AF786039608D
:101150003B684FF400525A60002318460C37BD46D6
:101160005DF8047B704780B483B000AF78600123E2
:1011700018460C37BD465DF8047B704780B485B0D7
:1011800000AFF860B9607A60002318461437BD4696
:101190005DF8047B7047000080B586B000AF7860D2
:1011A000144A154BD31A7B617B693B61134B1B6857
:1011B000002B02D1114B124A1A60104B1A687B683F
:1011C00013443A699A4207D20AF0F0FF03460C2210
:1011D0001A604FF0FF3309E0084B1B68FB60074BB8
:1011E0001A687B681344054A1360FB681846183771
:1011F000BD4680BD0000082400040000FC0200245D
:10120000306F002480B400AF374BD3F88830364AB3
:1012100043F47003C2F88830344B1B6803F00F03AB
:10122000062B07D8314B1B6823F00F032F4A43F0DE
:10123000070313602E4B1B682D4A43F00103136014
:101240002B4B00221A612A4B1A682949294B13405B
:101250000B60264B1B6803F00803002B07D0234BC1
:101260001B6823F00F03214A43F007031360204B50
:1012700000229A611E4B0022DA611D4B00221A6285
:101280001B4B1D4A9A621A4B1C4ADA62184B1C4AC5
:101290001A63174B00225A63154B194A9A63144B71
:1012A0000022DA63124B164A1A64114B00225A6468
:1012B0000F4B1B680E4A23F4802313600C4B002253
:1012C0001A66104B1A68104B1340B3F1005F02D23C
:1012D0000E4B01221A600E4B43F2D2021A6000BF7D
:1012E000BD465DF8047B704700ED00E00020005231
:1012F000004402587FEDF6EA000202020000FF01FE
:10130000800201010010005C0000FFFF0881005115
:101310000040005280B500AF224B234A1A60214B97
:101320004FF4E1325A601F4B00229A601D4B00229D
:10133000DA601C4B00221A611A4B0C225A61194BBD
:1013400000229A61174B0022DA61164B00221A62C2
:10135000144B00225A62134B00229A62114804F087
:10136000FDFD0346002B01D0FFF732FE00210D48A2
:1013700005F0FFFD0346002B01D0FFF729FE0021F9
:10138000084805F034FE0346002B01D0FFF720FE8D
:10139000044805F0B5FD0346002B01D0FFF718FE09
:1013A00000BF80BD000300240010014080B5BAB02A
:1013B00000AF786007F1D40300221A605A609A6087
:1013C000DA601A6107F11003C022002118460AF002
:1013D0009BFE7B681B68274A934246D14FF001026F
:1013E0004FF00003C7E904230023C7F88C3007F14E
:1013F0001003184602F086FF0346002B01D0FFF7CA
:10140000E7FD1D4BD3F8F0301B4A43F01003C2F840
:10141000F030194BD3F8F03003F01003FB60FB6899
:10142000154BD3F8E030144A43F00103C2F8E03022
:10143000114BD3F8E03003F00103BB60BB684FF4FD
:10144000C063C7F8D4300223C7F8D8300023C7F8E8
:10145000DC300023C7F8E0300723C7F8E43007F199
:10146000D4031946054800F083FA00BFE837BD46AB
:1014700080BD00BF00100140004402580000025827
:10148000DFF834D0FFF7BEFE0C480D490D4A0023AB
:1014900002E0D458C4500433C4188C42F9D30A4A29
:1014A0000A4C002301E013600432A242FBD30AF08D
:1014B00083FEFFF713FC704700000824000000249F
:1014C000E0020024E0FB0008E0020024306F00246A
:1014D000FEE7000080B582B000AF032000F08CF979
:1014E00002F03AFD0246154B9B691B0A03F00F03FD
:1014F0001349CB5C03F01F0322FA03F37B600F4B0D
:101500009B6903F00F030E4AD35C03F01F037A6854
:1015100022FA03F30B4A13600B4A7B6813600F2017
:1015200000F014F80346002B01D0012302E0FFF77E
:1015300055FD002318460837BD4680BD00440258BB
:1015400070F70008040000240000002480B582B079
:1015500000AF7860154B1B78002B01D1012321E0EF
:10156000134B1A68114B1B7819464FF47A73B3FB6F
:10157000F1F3B2FBF3F3184600F071F90346002BC8
:1015800001D001230EE07B680F2B0AD80022796876
:101590004FF0FF3000F03BF9064A7B6813600023F0
:1015A00000E0012318460837BD4680BD0C0000242A
:1015B000000000240800002480B400AF064B1B7814
:1015C0001A46064B1B681344044A136000BFBD460D
:1015D0005DF8047B704700BF0C00002494030024D6
:1015E00080B400AF034B1B681846BD465DF8047B12
:1015F000704700BF9403002480B584B000AF7860CA
:10160000FFF7EEFFB8607B68FB60FB68B3F1FF3F5C
:1016100005D00A4B1B781A46FB681344FB6000BFD9
:10162000FFF7DEFF0246BB68D31AFA689A42F7D882
:1016300000BF00BF1037BD4680BD00BF0C000024B6
:1016400080B400AF034B1B681B0C1846BD465DF809
:10165000047B70470010005C80B485B000AF7860F8
:101660007B6803F00703FB600B4BDB68BB60BA6869
:101670004FF6FF031340BB60FB681A02BB681A43B6
:10168000064B1343BB60044ABB68D36000BF1437EA
:10169000BD465DF8047B704700ED00E00000FA05F0
:1016A00080B400AF044BDB681B0A03F00703184645
:1016B000BD465DF8047B704700ED00E080B483B068
:1016C00000AF0346FB80B7F90630002B0BDBFB882D
:1016D00003F01F020749B7F906305B09012000FA41
:1016E00002F241F8232000BF0C37BD465DF8047BB1
:1016F000704700BF00E100E080B483B000AF034654
:101700003960FB80B7F90630002B0ADB3B68DAB2A0
:101710000C49B7F906301201D2B20B4483F800230A
:101720000AE03B68DAB20849FB8803F00F03043B88
:101730001201D2B20B441A7600BF0C37BD465DF8D9
:10174000047B704700E100E000ED00E080B489B068
:1017500000AFF860B9607A60FB6803F00703FB61D3
:10176000FB69C3F10703042B28BF0423BB61FB699A
:101770000433062B02D9FB69033B00E000237B61A5
:101780004FF0FF32BB6902FA03F3DA43BB681A4039
:101790007B699A404FF0FF317B6901FA03F3D9432B
:1017A0007B680B40134318462437BD465DF8047B25
:1017B0007047000080B582B000AF78607B68013B65
:1017C000B3F1807F01D301230FE00A4A7B68013B1C
:1017D00053600F214FF0FF30FFF78EFF054B0022C3
:1017E0009A60044B07221A60002318460837BD464A
:1017F00080BD00BF10E000E080B582B000AF78602F
:101800007868FFF729FF00BF0837BD4680BD80B567
:1018100086B000AF0346B9607A60FB81FFF740FFF6
:1018200078617A68B9687869FFF790FF0246B7F97E
:101830000E3011461846FFF75FFF00BF1837BD4650
:1018400080BD80B582B000AF0346FB80B7F906309B
:101850001846FFF733FF00BF0837BD4680BD80B58F
:1018600082B000AF78607868FFF7A4FF034618469F
:101870000837BD4680BD000080B400AFBFF35F8F66
:1018800000BF074B5B6A064A23F480335362054B63
:1018900000225A6000BFBD465DF8047B704700BF60
:1018A00000ED00E090ED00E080B483B000AF786020
:1018B0000B4A7B6843F0010353600A4B5B6A094A99
:1018C00043F480335362BFF34F8F00BFBFF36F8F7A
:1018D00000BF00BF0C37BD465DF8047B704700BFFA
:1018E00090ED00E000ED00E080B483B000AF7860E0
:1018F0007B685A781D4B9A607B681B78002B29D037
:101900001A4A7B685B68D3607B681B7B1A077B681D
:10191000DB7A1B061A437B689B7ADB041A437B68DD
:101920005B7B9B041A437B689B7B5B041A437B684D
:10193000DB7B1B041A437B685B7A1B021A437B68C0
:101940001B7A5B0013437A6812781146074A0B43EF
:10195000136105E0054B0022DA60044B00221A6196
:1019600000BF0C37BD465DF8047B704790ED00E08A
:1019700080B489B000AF786039600023FB61894B87
:101980007B6194E13B681A680121FB6901FA03F36A
:1019900013403B613B69002B00F086813B685B682C
:1019A00003F00303012B05D03B685B6803F00303DE
:1019B000022B30D17B689B68BB61FB695B00032213
:1019C00002FA03F3DB43BA691340BB613B68DA6890
:1019D000FB695B0002FA03F3BA691343BB617B68DE
:1019E000BA699A607B685B68BB610122FB6902FA95
:1019F00003F3DB43BA691340BB613B685B681B09B7
:101A000003F00102FB6902FA03F3BA691343BB61F5
:101A10007B68BA695A603B685B6803F00303032B79
:101A200017D07B68DB68BB61FB695B00032202FAAD
:101A300003F3DB43BA691340BB613B689A68FB69F7
:101A40005B0002FA03F3BA691343BB617B68BA69AE
:101A5000DA603B685B6803F00303022B23D1FB6968
:101A6000DA087B68083253F82230BB61FB6903F067
:101A700007039B000F2202FA03F3DB43BA6913400A
:101A8000BB613B681A69FB6903F007039B0002FA1C
:101A900003F3BA691343BB61FB69DA087B68083258
:101AA000B96943F822107B681B68BB61FB695B0066
:101AB000032202FA03F3DB43BA691340BB613B68BC
:101AC0005B6803F00302FB695B0002FA03F3BA6987
:101AD0001343BB617B68BA691A603B685B6803F4B7
:101AE0004033002B00F0E0802F4BD3F8F4302E4A27
:101AF00043F00203C2F8F4302B4BD3F8F43003F078
:101B00000203FB60FB68294AFB699B08023352F819
:101B10002330BB61FB6903F003039B000F2202FA31
:101B200003F3DB43BA691340BB617B68204A9342ED
:101B300052D07B681F4A934231D07B681E4A934241
:101B40002BD07B681D4A934225D07B681C4A934268
:101B50001FD07B681B4A934219D07B681A4A934274
:101B600013D07B68194A93420DD07B68184A934280
:101B700007D07B68174A934201D109232DE00A233D
:101B80002BE0082329E0072327E0062325E005238F
:101B900023E0042321E003231FE002231DE00123AF
:101BA0001BE000BF800000580044025800040058A9
:101BB000000002580004025800080258000C0258A5
:101BC000001002580014025800180258001C025855
:101BD00000200258002402580023FA6902F0030290
:101BE00092009340BA691343BB613849FB699B0873
:101BF0000233BA6941F823204FF0B0431B68BB6140
:101C00003B69DB43BA691340BB613B685B6803F423
:101C10008013002B03D0BA693B691343BB614FF0BB
:101C2000B042BB6913604FF0B0435B68BB613B6976
:101C3000DB43BA691340BB613B685B6803F4001384
:101C4000002B03D0BA693B691343BB614FF0B0422C
:101C5000BB6953607B695B68BB613B69DB43BA6905
:101C60001340BB613B685B6803F40033002B03D077
:101C7000BA693B691343BB617B69BA695A607B6986
:101C80001B68BB613B69DB43BA691340BB613B68BE
:101C90005B6803F48033002B03D0BA693B691343BC
:101CA000BB617B69BA691A60FB690133FB613B6800
:101CB0001A68FB6922FA03F3002B7FF463AE00BFBE
:101CC00000BF2437BD465DF8047B70470004005810
:101CD00080B485B000AF78600B467B807B681A6962
:101CE0007B881340002B02D00123FB7301E000230B
:101CF000FB73FB7B18461437BD465DF8047B7047C9
:101D000080B483B000AF78600B467B8013467B7055
:101D10007B78002B03D07A887B689A6103E07B880C
:101D20001A047B689A6100BF0C37BD465DF8047BDE
:101D30007047F0B58FB00AAF78607B68002B01D197
:101D4000012316E17B681B68BB607B6893F8BD3498
:101D5000DBB2002B06D17B68002283F8BC247868B4
:101D600008F044FE7B68032283F8BD24BB68DB6B6C
:101D700003F48073002B02D17B680022DA607B6859
:101D80001B68184605F0E1FA7B681B683B607E68BB
:101D90006D4606F110040FCC0FC50FCC0FC594E8AB
:101DA000030085E80300331D0ECB386805F0ACF95D
:101DB0000346002B05D07B68022283F8BD24012353
:101DC000D7E07B681B680021184605F0CFFA002396
:101DD000FB734AE0FA7B79681346DB0013449B00EF
:101DE0000B443D3301221A70FA7B79681346DB00FD
:101DF00013449B000B443C33FA7B1A70FA7BFB7B49
:101E000098B279681346DB0013449B000B445633A9
:101E100002461A80FA7B79681346DB0013449B0064
:101E20000B44403300221A70FA7B79681346DB00BA
:101E300013449B000B44443300221A60FA7B7968F8
:101E40001346DB0013449B000B44483300221A6006
:101E5000FA7B79681346DB0013449B000B444C3338
:101E600000221A60FB7B0133FB73FA7B7B685B68A3
:101E70009A42AFD30023FB7344E0FA7B79681346A0
:101E8000DB0013449B000B4403F27D2300221A70F5
:101E9000FA7B79681346DB0013449B000B4403F57F
:101EA0001F73FA7B1A70FA7B79681346DB001344C0
:101EB0009B000B4403F5207300221A70FA7B7968AB
:101EC0001346DB0013449B000B4403F521730022EF
:101ED0001A60FA7B79681346DB0013449B000B44BD
:101EE00003F5227300221A60FA7B79681346DB003F
:101EF00013449B000B4403F5237300221A60FB7B01
:101F00000133FB73FA7B7B685B689A42B5D37B68CD
:101F10001B683B607E686D4606F110040FCC0FC550
:101F20000FCC0FC594E8030085E80300331D0ECBEA
:101F3000386805F067FA0346002B05D07B6802225B
:101F400083F8BD24012314E07B68002283F8382045
:101F50007B68012283F8BD247B685B6A012B02D178
:101F6000786801F06FF97B681B68184606F0A9FADB
:101F7000002318461437BD46F0BD80B584B000AFCD
:101F800078607B681B68FB607B6893F8BC34012B2E
:101F900001D1022322E07B68012283F8BC24FB6884
:101FA000DB6B03F48073002B09D17B689B6A012BE8
:101FB00005D1FB689B6B43F48032FB689A637B68B6
:101FC0001B68184605F0B0F97B681B68184606F0D8
:101FD00057FA7B68002283F8BC2400231846103788
:101FE000BD4680BD90B58DB000AF78607B681B6842
:101FF0003B623B6AFB617B681B68184606F015FB79
:102000000346002B40F0B7847B681B68184606F037
:1020100079FA0346002B00F0AD84FB6903F50063F9
:102020009B681B0AC3F30D027B68C3F8FC247B6822
:102030001B68184606F066FA034603F00203022BFB
:1020400007D17B681B685A697B681B6802F0020233
:102050005A617B681B68184606F054FA034603F081
:102060001003102B61D17B681B689A697B681B6821
:1020700022F010029A613B6A1B6ABB61BB6903F0E4
:102080000F021346DB0013449B0003F51E737A68AE
:10209000134404337B61BB695B0C03F00F03022B19
:1020A00024D1BA6947F6F0731340002B35D07B6911
:1020B000D968BB691B099BB2C3F30A039BB21A46DA
:1020C000386A06F08BF87B69DA68BB691B09C3F3D1
:1020D0000A031A447B69DA607B695A69BB691B0988
:1020E000C3F30A031A447B695A6116E0BB695B0CAF
:1020F00003F00F03062B10D17B6803F2C4430822C0
:102100001946386A06F06AF87B695A69BB691B0987
:10211000C3F30A031A447B695A617B681B689A6996
:102120007B681B6842F010029A617B681B68184646
:1021300006F0E8F9034603F40023B3F5002F40F05E
:10214000A78000237B627B681B68184606F0EDF9C8
:10215000B86299E0BB6A03F00103002B00F08E80A7
:102160007B681B687A6AD2B21146184606F011FAEB
:1021700038613B6903F00103002B0CD07B6A5A01E4
:10218000FB69134403F530631A4601239360796AAF
:10219000786800F0D1FE3B6903F00803002B0CD0F7
:1021A0007B6A5A01FB69134403F530631A4608231E
:1021B0009360796A786800F0A7FF3B6903F0100329
:1021C000002B08D07B6A5A01FB69134403F5306386
:1021D0001A46102393603B6903F00203002B30D0B2
:1021E0003B6A5B6903F08003802B09D1FB6903F52F
:1021F00000635B68FA6902F5006243F48063536030
:102200007A6A1346DB0013449B0003F51E737A6859
:10221000134404337B617B69DB78012B08D17B6934
:102220000022DA707B6ADBB21946786808F004FD98
:102230007B6A5A01FB69134403F530631A46022393
:1022400093603B6903F02003002B08D07B6A5A019E
:10225000FB69134403F530631A46202393603B69FE
:1022600003F40053002B09D07B6A5A01FB69134425
:1022700003F530631A464FF4005393607B6A0133D1
:102280007B62BB6A5B08BB62BB6A002B7FF462AFF8
:102290007B681B68184606F035F9034603F4802373
:1022A000B3F5802F40F0DB807B681B68184606F092
:1022B00056F9B86200237B62CDE0BB6A03F00103EC
:1022C000002B00F0C2807B681B687A6AD2B211468C
:1022D000184606F07CF938613B6903F00103002BD6
:1022E00057D07B6A03F00F03012202FA03F3FB606D
:1022F000FB6903F500635A6BFB68DB43F96901F581
:10230000006113404B637B6A5A01FB69134403F578
:1023100010631A46012393607B68DB68012B32D17E
:1023200079687A6A1346DB0013449B000B444833F8
:10233000196878687A6A1346DB0013449B000344EB
:1023400044331B68194478687A6A1346DB001344E7
:102350009B000344483319607B6A002B13D17968D2
:102360007A6A1346DB0013449B000B444C331B6812
:10237000002B08D17B6818687B6803F2C4431A46B7
:10238000012106F085F97B6ADBB21946786808F00E
:10239000CEFB3B6903F00803002B08D07B6A5A018F
:1023A000FB69134403F510631A46082393603B69E5
:1023B00003F01003002B08D07B6A5A01FB69134419
:1023C00003F510631A46102393603B6903F0400342
:1023D000002B08D07B6A5A01FB69134403F5106394
:1023E0001A46402393603B6903F00203002B23D07D
:1023F000796A386A05F064F97A6A1346DB00134497
:102400009B0038337A68134404337B617B69DB7843
:10241000012B08D17B690022DA707B6ADBB2194696
:10242000786808F01BFC7B6A5A01FB69134403F5CA
:1024300010631A46022393603B6903F08003002B6C
:1024400003D0796A786800F0EAFC7B6A01337B622A
:10245000BB6A5B08BB62BB6A002B7FF42EAF7B6854
:102460001B68184606F04EF8034603F00043B3F12C
:10247000004F22D1FB6903F500635B68FA6902F53E
:10248000006223F0010353607B6893F8F434012B5E
:1024900008D17B68002283F8F4240021786800F0DA
:1024A000F5FE02E0786808F0B9FB7B681B685A69A2
:1024B0007B681B6802F000425A617B681B68184603
:1024C00006F020F8034603F40063B3F5006F12D161
:1024D000FB6903F500639B6803F00103012B02D144
:1024E000786808F075FB7B681B685A697B681B6815
:1024F00002F400625A617B681B68184606F002F815
:10250000034603F00063B3F1006F21D17B681B68C1
:102510005A697B681B6802F000625A617B6893F815
:10252000F434002B11D17B68012283F8F4247B68FA
:102530001B685B6D9B0803F00F027B68C3F8F824EF
:102540000121786800F0A2FE02E0786808F040FB04
:102550007B681B68184605F0D5FF034603F48053DB
:10256000B3F5805F40F0B780FB6903F500635B68FB
:10257000FA6902F5006223F0010353607B681B686F
:102580001021184605F09CF80023FB6246E0FB6A28
:102590005A01FB69134403F510631A464FF67F3363
:1025A0009360FB6A5A01FB69134403F510631B68CF
:1025B000FA6A5101FA690A4402F5106223F4001321
:1025C0001360FB6A5A01FB69134403F530631A4632
:1025D0004FF67F339360FB6A5A01FB69134403F59E
:1025E00030631B68FA6A5101FA690A4402F53062E5
:1025F00023F400131360FB6A5A01FB69134403F5CB
:1026000030631B68FA6A5101FA690A4402F53062C4
:1026100043F000631360FB6A0133FB627B685B6815
:10262000FA6A9A42B3D3FB6903F50063DB69FA697E
:1026300002F5006243F00113D3617B681B6B002B32
:1026400016D0FB6903F50063D3F88430FA6902F50C
:10265000006243F00B03C2F88430FB6903F50063AA
:102660005B6CFA6902F5006243F00B03536415E0FA
:10267000FB6903F500635A69FB6903F500631946BA
:1026800042F22B0313434B61FB6903F500631B69A3
:10269000FA6902F5006243F00B031361FB6903F56D
:1026A00000631B68FA6902F5006223F4FE6313609D
:1026B0007B6818687B68DB68D9B27B6803F2C44327
:1026C0001A4605F0E5FF7B681B685A697B681B6842
:1026D00002F480525A617B681B68184605F012FFAD
:1026E000034603F40053B3F5005F24D17B681B68F5
:1026F000184605F0A9FF7B681B68184605F05DF8D1
:1027000003461A467B681A617B681C6801F09EFDCF
:1027100001467B681B69DBB21A46204604F062FD65
:10272000786808F02CFA7B681B685A697B681B681C
:1027300002F400525A617B681B68184605F0E2FEFD
:10274000034603F00803082B0AD1786808F009FA59
:102750007B681B685A697B681B6802F008025A6133
:102760007B681B68184605F0CDFE034603F0800326
:10277000802B22D13B6A9B6923F080023B6A9A61DD
:1027800001237B6214E079687A6A1346DB00134404
:102790009B000B4403F27F231B78012B05D17B6A3E
:1027A000DBB21946786800F009FB7B6A01337B6273
:1027B0007B685B687A6A9A42E5D37B681B68184637
:1027C00005F0A0FE034603F48013B3F5801F3BD150
:1027D00001237B622BE07B6A5A01FB69134403F5FA
:1027E00010631B68BB6179687A6A1346DB00134487
:1027F0009B000B4440331B78012B15D1BB69002B88
:1028000012DA79687A6A1346DB0013449B000B44A2
:102810003F3301221A707B6ADBB263F07F03DBB2C5
:102820001946786800F0CAFA7B6A01337B627B68DC
:102830005B687A6A9A42CED37B681B685A697B6868
:102840001B6802F480125A617B681B68184605F009
:1028500059FE034603F40013B3F5001F55D10123BD
:102860007B6245E07B6A5A01FB69134403F53063E0
:102870001B68BB6179687A6A1346DB0013449B00CE
:102880000B4403F520731B78012B2ED1BB69002B61
:102890002BDABB6903F480327B68D3F8FC3403F095
:1028A00001039A4221D179687A6A1346DB00134406
:1028B0009B000B4403F27F2301221A703B6A9B6941
:1028C00043F080023B6A9A613B6A5B6903F08003D4
:1028D000002B0AD1FB6903F500635B68FA6902F516
:1028E000006243F40073536007E07B6A01337B624C
:1028F0007B685B687A6A9A42B4D37B681B685A69C2
:102900007B681B6802F400125A617B681B681846DA
:1029100005F0F8FD034603F08043B3F1804F0AD180
:10292000786808F0ADF97B681B685A697B681B689A
:1029300002F080425A617B681B68184605F0E2FD90
:10294000034603F00403042B15D17B681B685B6806
:10295000BB61BB6903F00403002B02D0786808F068
:102960009DF97B681B6859687B681B68BA690A43D4
:102970005A6000E000BF3437BD4690BD80B582B0DC
:1029800000AF78600B46FB707B6893F8BC34012B7A
:1029900001D1022313E07B68012283F8BC247B6809
:1029A000FA7883F838207B681B68FA781146184655
:1029B00005F040FD7B68002283F8BC240023184604
:1029C0000837BD4680BD80B584B000AF786008464A
:1029D00011461A460346FB700B463B801346BB70FC
:1029E0000023FB7297F90330002B0FDAFB7803F01A
:1029F0000F021346DB0013449B0038337A681344FC
:102A00000433FB60FB6801225A700FE0FB7803F08F
:102A10000F021346DB0013449B0003F51E737A6814
:102A200013440433FB60FB6800225A70FB7803F008
:102A30000F03DAB2FB681A703A88FB689A60FB6889
:102A4000BA781A71FB685B78002B04D0FB681B789E
:102A50009AB2FB685A83BB78022B02D1FB68002232
:102A60005A717B6893F8BC34012B01D102230EE02C
:102A70007B68012283F8BC247B681B68F9681846D0
:102A800004F0C0FE7B68002283F8BC24FB7A184661
:102A90001037BD4680BD80B584B000AF78600B466E
:102AA000FB7097F90330002B0FDAFB7803F00F026D
:102AB0001346DB0013449B0038337A681344043315
:102AC000FB60FB6801225A700FE0FB7803F00F02F5
:102AD0001346DB0013449B0003F51E737A6813440E
:102AE0000433FB60FB6800225A70FB7803F00F038D
:102AF000DAB2FB681A707B6893F8BC34012B01D101
:102B000002230EE07B68012283F8BC247B681B68EB
:102B1000F968184604F0FEFE7B68002283F8BC24A6
:102B2000002318461037BD4680BD80B586B000AF83
:102B3000F8607A603B600B46FB72FB7A03F00F0291
:102B40001346DB0013449B0003F51E73FA6813441D
:102B500004337B617B697A68DA607B693A681A6161
:102B60007B6900225A617B6900225A70FB7A03F06C
:102B70000F03DAB27B691A70FB68DB68012B02D1A4
:102B80007A687B69DA61FB681868FB68DB68DBB22E
:102B90001A46796904F09AFF002318461837BD4693
:102BA00080BD80B483B000AF78600B46FB70FB78CB
:102BB00003F00F0279681346DB0013449B000B44BB
:102BC00003F524731B6818460C37BD465DF8047B7B
:102BD000704780B586B000AFF8607A603B600B4606
:102BE000FB72FB7A03F00F021346DB0013449B00D9
:102BF0003833FA68134404337B617B697A68DA609E
:102C00007B693A681A617B6900225A617B690122FB
:102C10005A70FB7A03F00F03DAB27B691A70FB6813
:102C2000DB68012B02D17A687B69DA61FB6818687E
:102C3000FB68DB68DBB21A46796904F047FF0023C2
:102C400018461837BD4680BD80B584B000AF7860A7
:102C50000B46FB70FB7803F00F027B685B689A42BF
:102C600001D9012350E097F90330002B0FDAFB78EC
:102C700003F00F021346DB0013449B0038337A68DD
:102C800013440433FB60FB6801225A700DE0FA78AC
:102C90001346DB0013449B0003F51E737A6813444C
:102CA0000433FB60FB6800225A70FB6801229A70B3
:102CB000FB7803F00F03DAB2FB681A707B6893F8B5
:102CC000BC34012B01D102231EE07B68012283F872
:102CD000BC247B681B68F968184605F0D7FAFB78B6
:102CE00003F00F03002B0AD17B6818687B68DB6850
:102CF000D9B27B6803F2C4431A4605F0C9FC7B686D
:102D0000002283F8BC24002318461037BD4680BD3E
:102D100080B584B000AF78600B46FB70FB7803F0A1
:102D20000F027B685B689A4201D9012342E097F960
:102D30000330002B0FDAFB7803F00F021346DB00A1
:102D400013449B0038337A6813440433FB60FB68F8
:102D500001225A700FE0FB7803F00F021346DB00EC
:102D600013449B0003F51E737A6813440433FB601D
:102D7000FB6800225A70FB6800229A70FB7803F00F
:102D80000F03DAB2FB681A707B6893F8BC34012B2E
:102D900001D102230EE07B68012283F8BC247B680A
:102DA0001B68F968184605F0DFFA7B68002283F893
:102DB000BC24002318461037BD4680BD80B584B0C2
:102DC00000AF78600B46FB7097F90330002B0CDAEC
:102DD000FB7803F00F021346DB0013449B003833EB
:102DE0007A6813440433FB600CE0FB7803F00F02B5
:102DF0001346DB0013449B0003F51E737A681344EB
:102E00000433FB607B681B68F968184605F0FEF820
:102E10000346FB72FB7A18461037BD4680BD80B56D
:102E20008AB002AF786039607B681B687B617B6920
:102E30003B613A681346DB0013449B0038337A68E1
:102E400013440433FB60FB685A69FB681B699A42B0
:102E500001D901236CE0FB681A69FB685B69D31A2E
:102E6000FB61FB689B68FA699A4202D9FB689B6820
:102E7000FB61FB6903339B08BB612BE0FB681A69AC
:102E8000FB685B69D31AFB61FB689B68FA699A422D
:102E900002D9FB689B68FB61FB6903339B08BB613C
:102EA000FB68D9683B68DAB2FB6998B27B68DB687B
:102EB000DBB200930346786905F052F9FB68DA68E3
:102EC000FB691A44FB68DA60FB685A69FB691A44BB
:102ED000FB685A613B685A013B69134403F5106370
:102EE0009B699BB2BA699A4209D8FB685A69FB6828
:102EF0001B699A4203D2FB681B69002BBED1FB6899
:102F00001A69FB685B699A4211D83B6803F00F03AA
:102F1000012202FA03F3BB603B6903F500635A6BBD
:102F2000BB68DB43396901F5006113404B63002343
:102F300018462037BD4680BD80B588B000AF7860A8
:102F400039607B681B68FB61FB69BB61FB693C33D3
:102F500004331B687B613B685A01BB69134403F56A
:102F600030639B683B617B68DB68012B7BD13B69ED
:102F700003F00803002B15D07B69614A934240F2AD
:102F8000B9803B6903F40043002B00F0B3803B6839
:102F90005A01BB69134403F530631A464FF40043EA
:102FA0009360A7E03B6903F02003002B09D03B6846
:102FB0005A01BB69134403F530631A46202393601A
:102FC00098E03B6903F02803002B40F093807B6975
:102FD0004B4A93420FD93B6903F40043002B0AD0BC
:102FE0003B685A01BB69134403F530631A464FF43A
:102FF000004393607EE03A681346DB0013449B0075
:1030000003F51E737A6813440433FB60FB681A6A85
:103010003B685901BB690B4403F530631B69C3F37B
:103020001203D21AFB685A613B68002B14D1FB686B
:103030001B69002B09D17B6818687B6803F2C443C5
:103040001A46012105F024FB06E0FB68DA68FB68FC
:103050005B691A44FB68DA603B68DBB21946786842
:1030600007F04AFD46E07B69264A934224D13B693A
:1030700003F40043002B0AD03B685A01BB69134498
:1030800003F530631A464FF40043936032E03B6926
:1030900003F02003002B08D03B685A01BB6913449E
:1030A00003F530631A46202393603B68DBB2194670
:1030B000786807F021FD1DE03B68002B14D179688A
:1030C0003A681346DB0013449B000B4403F523735B
:1030D0001B68002B08D17B6818687B6803F2C44327
:1030E0001A46002105F0D4FA3B68DBB2194678682D
:1030F00007F002FD002318462037BD4680BD00BF03
:103100000A30544F0A31544F80B586B000AF786012
:1031100039607B681B687B617B693B617B693C3301
:1031200004331B68FB603B685A013B69134403F599
:1031300030639B68BB60FB68154A93420ED9BB683D
:1031400003F40043002B09D03B685A013B69134448
:1031500003F530631A464FF400439360786807F034
:10316000B9FCFB680A4A93420CD97B68DB68012BE7
:1031700008D17B6818687B6803F2C4431A460121B2
:1031800005F086FA002318461837BD4680BD00BFFB
:103190000A30544F80B485B000AF78600B46FB70A6
:1031A00013463B807B681B685B6ABB60FB78002B27
:1031B00007D13B8819047B681B68BA680A439A6286
:1031C00028E07B681B689B6A1B0CBA681344BB60D1
:1031D0000023FB730DE07B681A68FB7B40339B0088
:1031E00013445B681B0CBA681344BB60FB7B013360
:1031F000FB73FA7BFB78013B9A42ECD33B881804C3
:103200007B681968FB78013BBA68024340339B0036
:103210000B445A60002318461437BD465DF8047B02
:10322000704780B483B000AF78600B467B807B68CA
:103230001B687A885A62002318460C37BD465DF831
:10324000047B704780B485B000AF78607B681B68F2
:10325000FB607B680122C3F800257B68002283F8AD
:10326000F424FB689B6943F00062FB689A61FB6889
:103270005A6D054B1343FA685365002318461437FB
:10328000BD465DF8047B70470300001080B483B036
:1032900000AF78600B46FB7000BF0C37BD465DF891
:1032A000047B704780B584B000AF7860194BDB6851
:1032B00003F00403042B0AD0164BDB6803F007036A
:1032C0007A689A4201D001231FE000231DE0114BD0
:1032D000DB6823F007020F497B681343CB60FEF7DE
:1032E0007FF9F86009E0FEF77BF90246FB68D31A24
:1032F000B3F57A7F01D9012307E0064B5B6803F43D
:103300000053B3F5005FEED1002318461037BD46D9
:1033100080BD00BF0048025880B400AF054BDB6899
:10332000044A43F08073D36000BFBD465DF8047B60
:10333000704700BF0048025880B58CB000AF78607D
:103340007B68002B02D1012300F048BC7B681B681E
:1033500003F00103002B00F08880994B1B6903F0F8
:103360003803FB62964B9B6ABB62FB6A102B07D04B
:10337000FB6A182B11D1BB6A03F00303022B0CD19B
:103380008F4B1B6803F40033002B6DD07B685B68A8
:10339000002B69D1012300F021BC7B685B68B3F589
:1033A000803F06D1864B1B68854A43F48033136007
:1033B0002EE07B685B68002B0CD1814B1B68804A38
:1033C00023F4803313607E4B1B687D4A23F48023F3
:1033D00013601DE07B685B68B3F5A02F0CD1784BC0
:1033E0001B68774A43F480231360754B1B68744A4B
:1033F00043F4803313600BE0714B1B68704A23F475
:10340000803313606E4B1B686D4A23F48023136076
:103410007B685B68002B13D0FEF7E2F8786208E067
:10342000FEF7DEF802467B6AD31A642B01D9032328
:10343000D4E3634B1B6803F40033002BF0D014E09B
:10344000FEF7CEF8786208E0FEF7CAF802467B6A1B
:10345000D31A642B01D90323C0E3594B1B6803F42F
:103460000033002BF0D100E000BF7B681B6803F045
:103470000203002B00F0CA80514B1B6903F0380394
:103480003B624F4B9B6AFB613B6A002B07D03B6A58
:10349000182B56D1FB6903F00303002B51D1484B85
:1034A0001B6803F00403002B05D07B68DB68002B4E
:1034B00001D1012392E3424B1B6823F019027B6880
:1034C000DB683F4913430B60FEF78AF8786208E037
:1034D000FEF786F802467B6AD31A022B01D9032332
:1034E0007CE3374B1B6803F00403002BF0D0FEF79E
:1034F000A7F8034641F20302934217D87B681B6981
:10350000402B08D12E4B5B6823F47C332C4A43F4C8
:10351000003353607AE02A4B5B6823F47C327B688B
:103520001B691B03264913434B606FE0244B5B6808
:1035300023F0FE427B681B691B06214913434B6045
:1035400064E07B68DB68002B47D01D4B1B6823F0D1
:1035500019027B68DB681A4913430B60FEF740F8D9
:10356000786208E0FEF73CF802467B6AD31A022B29
:1035700001D9032332E3124B1B6803F00403002B31
:10358000F0D0FEF75DF8034641F20302934219D8EA
:103590007B681B69402B08D1094B5B6823F47C33A3
:1035A000074A43F40033536030E0054B5B6823F473
:1035B0007C327B681B691B03014913434B6025E088
:1035C000004402589A4B5B6823F0FE427B681B69FB
:1035D0001B06974913434B6018E0954B1B68944AB0
:1035E00023F001031360FDF7FBFF786208E0FDF7AD
:1035F000F7FF02467B6AD31A022B01D90323EDE2BF
:103600008B4B1B6803F00403002BF0D17B681B6815
:1036100003F01003002B00F0A980854B1B6903F019
:103620003803BB61824B9B6A7B61BB69082B07D067
:10363000BB69182B3AD17B6903F00303012B35D109
:103640007B4B1B6803F48073002B05D07B68DB6920
:10365000802B01D00123C1E2FDF7F2FF034641F2C6
:103660000302934217D87B681B6A202B08D1704B4A
:103670005B6823F0F8436E4A43F08043536075E083
:103680006B4B5B6823F0F8427B681B6A9B066849BA
:1036900013434B606AE0664BDB6823F07C527B6827
:1036A0001B6A1B0662491343CB605FE07B68DB69E2
:1036B000002B42D05E4B1B685D4A43F080031360D1
:1036C000FDF78EFF786208E0FDF78AFF02467B6A0D
:1036D000D31A022B01D9032380E2554B1B6803F454
:1036E0008073002BF0D0FDF7ABFF034641F20302DD
:1036F000934217D87B681B6A202B08D14C4B5B6820
:1037000023F0F8434A4A43F0804353602EE0484B8D
:103710005B6823F0F8427B681B6A9B0644491343AD
:103720004B6023E0424BDB6823F07C527B681B6AD2
:103730001B063F491343CB6018E03D4B1B683C4AD6
:1037400023F080031360FDF74BFF786208E0FDF77C
:1037500047FF02467B6AD31A022B01D903233DE2BD
:10376000334B1B6803F48073002BF0D17B681B681C
:1037700003F00803002B36D07B685B69002B19D05F
:103780002B4B5B6F2A4A43F001035367FDF728FF79
:10379000786208E0FDF724FF02467B6AD31A022B09
:1037A00001D903231AE2224B5B6F03F00203002BC3
:1037B000F0D018E01E4B5B6F1D4A23F001035367E6
:1037C000FDF70EFF786208E0FDF70AFF02467B6A0C
:1037D000D31A022B01D9032300E2154B5B6F03F0D0
:1037E0000203002BF0D17B681B6803F02003002B41
:1037F00039D07B689B69002B1CD00D4B1B680C4A91
:1038000043F480531360FDF7EBFE786208E0FDF7A8
:10381000E7FE02467B6AD31A022B01D90323DDE1BE
:10382000034B1B6803F40053002BF0D01BE000BFD8
:10383000004402589B4B1B689A4A23F48053136040
:10384000FDF7CEFE786208E0FDF7CAFE02467B6A0D
:10385000D31A022B01D90323C0E1924B1B6803F456
:103860000053002BF0D17B681B6803F00403002B8E
:1038700000F081808C4B1B688B4A43F4807313608B
:10388000FDF7AEFE786208E0FDF7AAFE02467B6A0D
:10389000D31A642B01D90323A0E1834B1B6803F4E3
:1038A0008073002BF0D07B689B68012B06D17D4B89
:1038B0001B6F7C4A43F0010313672DE07B689B6814
:1038C000002B0CD1774B1B6F764A23F00103136753
:1038D000744B1B6F734A23F0040313671CE07B686F
:1038E0009B68052B0CD16F4B1B6F6E4A43F0040392
:1038F00013676C4B1B6F6B4A43F0010313670BE0BC
:10390000684B1B6F674A23F001031367654B1B6FFE
:10391000644A23F0040313677B689B68002B15D06F
:10392000FDF75EFE78620AE0FDF75AFE02467B6A0A
:10393000D31A41F28832934201D903234EE1594B05
:103940001B6F03F00203002BEED014E0FDF748FEDE
:1039500078620AE0FDF744FE02467B6AD31A41F220
:103960008832934201D9032338E14E4B1B6F03F099
:103970000203002BEED17B685B6A002B00F02D81E7
:10398000484B1B6903F03803182B00F0BD807B689F
:103990005B6A022B40F09E80424B1B68414A23F039
:1039A00080731360FDF71CFE786208E0FDF718FED7
:1039B00002467B6AD31A022B01D903230EE1394B4D
:1039C0001B6803F00073002BF0D1364B9A6A374B1B
:1039D00013407A68916A7A68D26A12010A433149BF
:1039E00013438B627B681B6B013BC3F308027B684C
:1039F0005B6B013B5B029BB21A437B689B6B013B99
:103A00001B0403F4FE031A437B68DB6B013B1B06BC
:103A100003F0FE43234913430B63224BDB6A214A25
:103A200023F00103D3621F4B5A6B214B13407A687A
:103A3000926CD2001B4913434B631A4BDB6A23F091
:103A40000C027B681B6C17491343CB62154BDB6A76
:103A500023F002027B685B6C12491343CB62114B6B
:103A6000DB6A104A43F48033D3620E4BDB6A0D4AA3
:103A700043F40033D3620B4BDB6A0A4A43F48023DE
:103A8000D362084BDB6A074A43F00103D362054B5C
:103A90001B68044A43F080731360FDF7A1FD786250
:103AA00011E000BF00440258004802580CFCFFFF20
:103AB0000700FFFFFDF794FD02467B6AD31A022B35
:103AC00001D903238AE0474B1B6803F00073002BE6
:103AD000F0D082E0434B1B68424A23F080731360AE
:103AE000FDF77EFD786208E0FDF77AFD02467B6A0D
:103AF000D31A022B01D9032370E03A4B1B6803F061
:103B00000073002BF0D168E0364B9B6A3B61354B6C
:103B10001B6BFB607B685B6A012B31D03B6903F058
:103B200003027B689B6A9A422AD13B691B0903F016
:103B30003F027B68DB6A9A4222D1FB68C3F308022A
:103B40007B681B6B013B9A421AD1FB685B0A03F04E
:103B50007F027B685B6B013B9A4211D1FB681B0CB7
:103B600003F07F027B689B6B013B9A4208D1FB68A4
:103B70001B0E03F07F027B68DB6B013B9A4201D096
:103B800001232BE0174B5B6BDB08C3F30C033B619A
:103B90007B689B6C3A699A421FD0124BDB6A114AD0
:103BA00023F00103D362FDF71BFD786200BFFDF730
:103BB00017FD02467B6A9342F9D00A4B5A6B0A4BB7
:103BC00013407A68926CD200064913434B63054B4D
:103BD000DB6A044A43F00103D362002318463037FE
:103BE000BD4680BD004402580700FFFF80B586B087
:103BF00000AF786039607B68002B01D101239CE124
:103C00008A4B1B6803F00F033A689A4210D9874B1E
:103C10001B6823F00F0285493B6813430B60834BFD
:103C20001B6803F00F033A689A4201D0012384E134
:103C30007B681B6803F00403002B10D07B681A69B3
:103C40007B4B9B6903F070039A4208D9784B9B69C0
:103C500023F070027B681B69754913438B617B6895
:103C60001B6803F00803002B10D07B685A69704B67
:103C7000DB6903F070039A4208D96D4BDB6923F0CE
:103C800070027B685B696A491343CB617B681B6880
:103C900003F01003002B10D07B689A69644BDB693A
:103CA00003F4E0639A4208D9614BDB6923F4E062D4
:103CB0007B689B695E491343CB617B681B6803F09B
:103CC0002003002B10D07B68DA69594B1B6A03F084
:103CD00070039A4208D9564B1B6A23F070027B6826
:103CE000DB69534913430B627B681B6803F00203D3
:103CF000002B10D07B68DA684D4B9B6903F00F03F3
:103D00009A4208D94A4B9B6923F00F027B68DB6813
:103D1000474913438B617B681B6803F00103002B49
:103D200055D0434B9B6923F470627B689B68404984
:103D300013438B617B685B68022B07D13C4B1B688C
:103D400003F40033002B21D10123F6E07B685B688C
:103D5000032B07D1364B1B6803F00073002B15D1E2
:103D60000123EAE07B685B68012B07D1304B1B68BD
:103D700003F48073002B09D10123DEE02C4B1B6878
:103D800003F00403002B01D10123D6E0284B1B696B
:103D900023F007027B685B68254913430B61FDF73D
:103DA0001FFC78610AE0FDF71BFC02467B69D31A11
:103DB00041F28832934201D90323BEE01C4B1B69B8
:103DC00003F038027B685B68DB009A42EBD17B68CA
:103DD0001B6803F00203002B10D07B68DA68144BD9
:103DE0009B6903F00F039A4208D2114B9B6923F0A1
:103DF0000F027B68DB680E4913438B610B4B1B681A
:103E000003F00F033A689A4214D2084B1B6823F060
:103E10000F0206493B6813430B60044B1B6803F019
:103E20000F033A689A4205D0012386E00020005231
:103E3000004402587B681B6803F00403002B10D079
:103E40007B681A693F4B9B6903F070039A4208D262
:103E50003C4B9B6923F070027B681B693949134313
:103E60008B617B681B6803F00803002B10D07B6814
:103E70005A69344BDB6903F070039A4208D2314B24
:103E8000DB6923F070027B685B692E491343CB61C9
:103E90007B681B6803F01003002B10D07B689A69C5
:103EA000284BDB6903F4E0639A4208D2254BDB69B7
:103EB00023F4E0627B689B6922491343CB617B68F2
:103EC0001B6803F02003002B10D07B68DA691D4BC0
:103ED0001B6A03F070039A4208D21A4B1B6A23F044
:103EE00070027B68DB69174913430B6200F034F8FA
:103EF0000246144B9B691B0A03F00F031249CB5C6B
:103F000003F01F0322FA03F33B610E4B9B6903F09E
:103F10000F030D4AD35C03F01F033A6922FA03F33F
:103F20000A4A13600A4A3B6913600A4B1B68184629
:103F3000FDF70CFB0346FB73FB7B18461837BD46A9
:103F400080BD00BF0044025870F700080400002440
:103F5000000000240800002480B489B000AFB34BF7
:103F60001B6903F03803182B00F2558101A252F8A7
:103F700023F000BFD93F000817420008174200088D
:103F800017420008174200081742000817420008AD
:103F900017420008FF3F00081742000817420008B8
:103FA000174200081742000817420008174200088D
:103FB0001742000805400008174200081742000891
:103FC000174200081742000817420008174200086D
:103FD000174200080B400008944B1B6803F02003B5
:103FE000002B09D0914B1B68DB0803F00303904AB8
:103FF00022FA03F3BB6111E18D4BBB610EE18D4BE6
:10400000BB610BE18C4BBB6108E1884B9B6A03F001
:1040100003037B61854B9B6A1B0903F03F033B61F4
:10402000824BDB6A03F00103FB60804B5B6BDB08B8
:10403000C3F30C03FA6802FB03F307EE903AF8EEC1
:10404000677AC7ED027A3B69002B00F0E1807B695B
:10405000022B00F083807B69022B00F2A1807B6938
:10406000002B03D07B69012B56D099E06F4B1B6866
:1040700003F02003002B2DD06C4B1B68DB0803F0F2
:1040800003036B4A22FA03F37B607B6807EE903AE6
:10409000F8EE676A3B6907EE903AF8EE677A86EECB
:1040A000A77A624B1B6BC3F3080307EE903AF8EE56
:1040B000676A97ED026ADFED615AC6EE257A76EE01
:1040C000A77AF7EE006A77EEA67A67EE277AC7ED51
:1040D000077A87E03B6907EE903AF8EE677ADFED02
:1040E000586A86EEA77A514B1B6BC3F3080307EEA1
:1040F000903AF8EE676A97ED026ADFED505AC6EE25
:10410000257A76EEA77AF7EE006A77EEA67A67EE62
:10411000277AC7ED077A65E03B6907EE903AF8EE3B
:10412000677ADFED486A86EEA77A404B1B6BC3F3D4
:10413000080307EE903AF8EE676A97ED026ADFED42
:104140003F5AC6EE257A76EEA77AF7EE006A77EE4A
:10415000A67A67EE277AC7ED077A43E03B6907EE58
:10416000903AF8EE677ADFED386A86EEA77A2F4B41
:104170001B6BC3F3080307EE903AF8EE676A97EDFE
:10418000026ADFED2E5AC6EE257A76EEA77AF7EEB2
:10419000006A77EEA67A67EE277AC7ED077A21E004
:1041A0003B6907EE903AF8EE677ADFED266A86EE15
:1041B000A77A1E4B1B6BC3F3080307EE903AF8EE89
:1041C000676A97ED026ADFED1D5AC6EE257A76EE34
:1041D000A77AF7EE006A77EEA67A67EE277AC7ED40
:1041E000077A00BF114B1B6B5B0A03F07F0301339F
:1041F0003B603B6807EE903AB8EE677AD7ED076A06
:10420000C6EE877AFCEEE77A17EE903ABB6105E0DE
:104210000023BB6102E0074BBB6100BFBB691846CE
:104220002437BD465DF8047B704700BF0044025848
:104230000090D00300093D0040787D010000004659
:104240000024744C0024744A20BCBE4B80B582B05C
:1042500000AFFFF781FE0246104B9B691B0A03F07B
:104260000F030F49CB5C03F01F0322FA03F37B60BB
:104270000A4B9B6903F00F03094AD35C03F01F0349
:104280007A6822FA03F3074A1360074A7B681360CF
:10429000044B1B6818460837BD4680BD00440258D1
:1042A00070F70008040000240000002480B500AF6F
:1042B000FFF7CCFF0246064BDB691B0903F007033F
:1042C0000449CB5C03F01F0322FA03F3184680BDB8
:1042D0000044025870F7000880B500AFFFF7B6FF42
:1042E0000246064BDB691B0A03F007030449CB5C5B
:1042F00003F01F0322FA03F3184680BD004402585E
:1043000070F700082DE9B04FCAB000AFC7F814012C
:10431000002387F82731002387F82631D7F8143196
:10432000D3E9002302F00064002554EA050349D0D4
:10433000D7F814319B6EB3F5401F2FD0B3F5401F53
:1043400028D8B3F5001F1AD0B3F5001F22D8002BD0
:1043500003D0B3F5801F07D01CE0B84BDB6AB74A27
:1043600043F40033D3621AE0D7F814310833022142
:10437000184601F08FFC034687F827310FE0D7F885
:10438000143128330221184601F036FD034687F820
:10439000273104E0012387F8273100E000BF97F8B8
:1043A0002731002B0AD1A54B1B6D23F44011D7F800
:1043B00014319B6EA14A0B43136503E097F8273134
:1043C00087F82631D7F81431D3E9002302F4807836
:1043D0004FF0000958EA090347D0D7F814319B6D14
:1043E000042B2AD801A252F823F000BF0144000890
:1043F0000F440008254400084344000843440008D3
:104400008E4BDB6A8D4A43F40033D3621AE0D7F84F
:10441000143108330021184601F03CFC034687F8AC
:1044200027310FE0D7F8143128330021184601F066
:10443000E3FC034687F8273104E0012387F827319E
:1044400000E000BF97F82731002B0AD17B4B1B6D92
:1044500023F00701D7F814319B6D784A0B4313659D
:1044600003E097F8273187F82631D7F81431D3E9DC
:10447000002302F4007A4FF0000B5AEA0B034CD0F1
:10448000D7F81431DB6DB3F5807F30D0B3F5807F82
:1044900029D8C02B2DD0C02B25D8802B18D0802B0D
:1044A00021D8002B02D0402B07D01CE0634BDB6AE5
:1044B000624A43F40033D3621CE0D7F81431083366
:1044C0000021184601F0E6FB034687F8273111E08A
:1044D000D7F8143128330021184601F08DFC03462B
:1044E00087F8273106E0012387F8273102E000BF73
:1044F00000E000BF97F82731002B0AD14F4B1B6D0E
:1045000023F4E071D7F81431DB6D4C4A0B4313658B
:1045100003E097F8273187F82631D7F81431D3E92B
:10452000002302F48063C7F808310023C7F80C3178
:10453000D7E942120B46134353D0D7F81431D3F8BE
:10454000A830B3F5000F35D0B3F5000F2ED8B3F572
:10455000C00F31D0B3F5C00F28D8B3F5800F1AD0F3
:10456000B3F5800F22D8002B03D0B3F5001F07D07E
:104570001CE0324BDB6A314A43F40033D3621CE067
:10458000D7F8143108330021184601F083FB0346A5
:1045900087F8273111E0D7F8143128330021184665
:1045A00001F02AFC034687F8273106E0012387F84B
:1045B000273102E000BF00E000BF97F82731002B51
:1045C0000BD11E4B9B6D23F46001D7F81431D3F847
:1045D000A8301A4A0B43936503E097F8273187F810
:1045E0002631D7F81431D3E9002302F40063C7F869
:1045F00000310023C7F80431D7E940120B461343BA
:1046000056D0D7F81431D3F8AC30B3F1806F38D02E
:10461000B3F1806F31D8B3F1407F34D0B3F1407F34
:104620002BD8B3F1007F1DD0B3F1007F25D8002B2C
:1046300006D0B3F1807F0AD01FE000BF00440258CB
:10464000A24BDB6AA14A43F40033D3621CE0D7F8E3
:10465000143108330021184601F01CFB034687F88B
:10466000273111E0D7F8143128330021184601F022
:10467000C3FB034687F8273106E0012387F827317B
:1046800002E000BF00E000BF97F82731002B0BD1FC
:104690008E4B9B6D23F0E061D7F81431D3F8AC302A
:1046A0008A4A0B43936503E097F8273187F8263150
:1046B000D7F81431D3E9002302F00073C7F8F830BB
:1046C0000023C7F8FC30D7E93E120B4613433AD01B
:1046D000D7F81431DB6C302B1FD0302B19D8202B9E
:1046E0000CD0202B15D8002B19D0102B11D1774BC3
:1046F000DB6A764A43F40033D36211E0D7F8143111
:1047000008330221184601F0C5FA034687F827311D
:1047100006E0012387F8273102E000BF00E000BF78
:1047200097F82731002B0AD1684BDB6C23F030015E
:10473000D7F81431DB6C654A0B43D36403E097F878
:10474000273187F82631D7F81431D3E9002302F452
:104750008053C7F8F0300023C7F8F430D7E93C1293
:104760000B46134351D0D7F814311B6EB3F5804F6D
:1047700035D0B3F5804F2ED8B3F5405F31D0B3F5C7
:10478000405F28D8B3F5005F1AD0B3F5005F22D898
:10479000002B03D0B3F5805F07D01CE04B4BDB6AE6
:1047A0004A4A43F40033D3621CE0D7F8143108338B
:1047B0000021184601F06EFA034687F8273111E010
:1047C000D7F8143128330021184601F015FB0346B1
:1047D00087F8273106E0012387F8273102E000BF80
:1047E00000E000BF97F82731002B0AD1374B1B6D33
:1047F00023F4E041D7F814311B6E344A0B431365A0
:1048000003E097F8273187F82631D7F81431D3E938
:10481000002302F40053C7F8E8300023C7F8EC3057
:10482000D7E93A120B46134356D0D7F814315B6ED2
:10483000B3F5A02F33D0B3F5A02F2CD8B3F5802F2C
:104840002FD0B3F5802F26D8B3F5403F2BD0B3F54A
:10485000403F20D8B3F5003F12D0B3F5003F1AD83F
:10486000002B22D0B3F5803F15D1D7F8143108338F
:104870000121184601F00EFA034687F8273115E0AA
:10488000D7F8143128330121184601F0B5FA034650
:1048900087F827310AE0012387F8273106E000BFB7
:1048A00004E000BF02E000BF00E000BF97F827313E
:1048B000002B0DD1054B1B6D23F4E021D7F81431EB
:1048C0005B6E024A0B43136506E000BF00440258CA
:1048D00097F8273187F82631D7F81431D3E9002328
:1048E00002F48043C7F8E0300023C7F8E430D7E98A
:1048F00038120B46134355D0D7F81431D3F8B030E3
:10490000B3F1A04F33D0B3F1A04F2CD8B3F1804F07
:104910002FD0B3F1804F26D8B3F1405F2BD0B3F145
:10492000405F20D8B3F1005F12D0B3F1005F1AD816
:10493000002B22D0B3F1805F15D1D7F814310833A2
:104940000121184601F0A6F9034687F8273115E042
:10495000D7F8143128330121184601F04DFA0346E7
:1049600087F827310AE0012387F8273106E000BFE6
:1049700004E000BF02E000BF00E000BF97F827316D
:10498000002B0BD1A34B9B6D23F0E041D7F81431E2
:10499000D3F8B0309F4A0B43936503E097F8273173
:1049A00087F82631D7F81431D3E9002302F4004305
:1049B000C7F8D8300023C7F8DC30D7E936120B46E9
:1049C000134337D0D7F814311B6FB3F1005F0ED00B
:1049D000B3F1005F16D8002B18D0B3F1805F11D16E
:1049E0008C4BDB6A8B4A43F40033D3620FE0D7F879
:1049F000143108330121184601F04CF9034687F8B9
:104A0000273104E0012387F8273100E000BF97F841
:104A10002731002B0AD17F4B1B6D23F04051D7F873
:104A200014311B6F7B4A0B43136503E097F8273162
:104A300087F82631D7F81431D3E9002302F08073C8
:104A4000C7F8D0300023C7F8D430D7E934120B466A
:104A5000134339D0D7F814319B6C032B1CD801A217
:104A600052F823F0A14A0008754A0008834A00085A
:104A7000A14A0008674BDB6A664A43F40033D362FD
:104A80000FE0D7F8143108330221184601F002F97B
:104A9000034687F8273104E0012387F8273100E037
:104AA00000BF97F82731002B0AD15A4BDB6C23F05B
:104AB0000301D7F814319B6C564A0B43D36403E0CF
:104AC00097F8273187F82631D7F81431D3E9002336
:104AD00002F48003C7F8C8300023C7F8CC30D7E908
:104AE00032120B46134300F09F804B4B1B684A4A1F
:104AF00043F480731360FCF773FDC7F820010BE0EB
:104B0000FCF76EFD0246D7F82031D31A642B03D987
:104B1000032387F8273105E03F4B1B6803F48073BC
:104B2000002BEDD097F82731002B79D1394B1A6F34
:104B3000D7F81431D3F8B430534003F44073002B4A
:104B400015D0344B1B6F23F44073C7F81C31314B25
:104B50001B6F304A43F4803313672E4B1B6F2D4A73
:104B600023F4803313672B4AD7F81C311367D7F827
:104B70001431D3F8B430B3F5807F18D1FCF730FD91
:104B8000C7F820010DE0FCF72BFD0246D7F82031D5
:104B9000D21A41F288339A4203D9032387F8273186
:104BA00005E01C4B1B6F03F00203002BEBD097F8C2
:104BB0002731002B29D1D7F81431D3F8B43003F4BE
:104BC0004073B3F5407F0ED1124B1B6923F47C5127
:104BD000D7F81431D3F8B4301A09104B13400D4AEA
:104BE0000B43136105E00B4B1B690A4A23F47C530A
:104BF0001361084B196FD7F81431D3F8B430C3F3ED
:104C00000B03044A0B4313670EE097F8273187F82C
:104C1000263109E00044025800480258CFFFFF0047
:104C200097F8273187F82631D7F81431D3E90023D4
:104C300002F00103C7F8C0300023C7F8C430D7E939
:104C400030120B46134300F08980D7F81431DB6F24
:104C5000282B6BD801A252F823F000BF354D000875
:104C60002D4D00082D4D00082D4D00082D4D00083C
:104C70002D4D00082D4D00082D4D0008014D000858
:104C80002D4D00082D4D00082D4D00082D4D00081C
:104C90002D4D00082D4D00082D4D0008174D000822
:104CA0002D4D00082D4D00082D4D00082D4D0008FC
:104CB0002D4D00082D4D00082D4D0008354D0008E4
:104CC0002D4D00082D4D00082D4D00082D4D0008DC
:104CD0002D4D00082D4D00082D4D0008354D0008C4
:104CE0002D4D00082D4D00082D4D00082D4D0008BC
:104CF0002D4D00082D4D00082D4D0008354D0008A4
:104D0000D7F8143108330121184600F0C3FF0346D9
:104D100087F827310FE0D7F81431283301211846DE
:104D200001F06AF8034687F8273104E0012387F889
:104D3000273100E000BF97F82731002B0AD1BF4B85
:104D40005B6D23F03801D7F81431DB6FBB4A0B439E
:104D5000536503E097F8273187F82631D7F81431E7
:104D6000D3E9002302F00203C7F8B8300023C7F8E4
:104D7000BC30D7E92E120B46134341D0D7F814317B
:104D80009B6F052B24D801A252F823F0D94D0008BF
:104D9000A54D0008BB4D0008D94D0008D94D0008AD
:104DA000D94D0008D7F8143108330121184600F016
:104DB00071FF034687F827310FE0D7F81431283305
:104DC0000121184601F018F8034687F8273104E05E
:104DD000012387F8273100E000BF97F82731002B27
:104DE0000AD1964B5B6D23F00701D7F814319B6F06
:104DF000924A0B43536503E097F8273187F8263131
:104E0000D7F81431D3E9002302F00403C7F8B03017
:104E10000023C7F8B430D7E92C120B46134344D013
:104E2000D7F81431D3F89430052B25D801A252F8C5
:104E300023F000BF814E00084D4E0008634E00086D
:104E4000814E0008814E0008814E0008D7F81431C9
:104E500008330121184600F01DFF034687F827316B
:104E60000FE0D7F8143128330121184600F0C4FFB1
:104E7000034687F8273104E0012387F8273100E053
:104E800000BF97F82731002B0BD16C4B9B6D23F0A3
:104E90000701D7F81431D3F89430684A0B4393656F
:104EA00003E097F8273187F82631D7F81431D3E992
:104EB000002302F02003C7F8A8300023C7F8AC3065
:104EC000D7E92A120B46134355D0D7F81431D3F83B
:104ED0009030B3F1A04F33D0B3F1A04F2CD8B3F141
:104EE000804F2FD0B3F1804F26D8B3F1405F2BD045
:104EF000B3F1405F20D8B3F1005F12D0B3F1005F8F
:104F00001AD8002B22D0B3F1805F15D1D7F8143115
:104F100008330021184600F0BDFE034687F827310C
:104F200015E0D7F8143128330221184600F064FF49
:104F3000034687F827310AE0012387F8273106E086
:104F400000BF04E000BF02E000BF00E000BF97F830
:104F50002731002B0BD1394B5B6D23F0E041D7F8A3
:104F60001431D3F89030354A0B43536503E097F87A
:104F7000273187F82631D7F81431D3E9002302F01E
:104F80004003C7F8A0300023C7F8A430D7E928129F
:104F90000B46134358D0D7F81431D3F89C30B3F5EF
:104FA000A05F33D0B3F5A05F2CD8B3F5805F2FD0CE
:104FB000B3F5805F26D8B3F5406F2BD0B3F5406FC3
:104FC00020D8B3F5006F12D0B3F5006F1AD8002BBC
:104FD00022D0B3F5806F15D1D7F8143108330021F2
:104FE000184600F057FE034687F8273115E0D7F83A
:104FF000143128330221184600F0FEFE034687F8DC
:1050000027310AE0012387F8273106E000BF04E0DA
:1050100000BF02E000BF00E000BF97F82731002B7F
:105020000ED1064B9B6D23F4E051D7F81431D3F821
:105030009C30024A0B43936506E000BF00440258CF
:1050400097F8273187F82631D7F81431D3E90023B0
:1050500002F08003C7F898300023C7F89C30D7E9E6
:1050600026120B46134355D0D7F81431D3F8A0308D
:10507000B3F5204F33D0B3F5204F2CD8B3F5004F04
:105080002FD0B3F5004F26D8B3F5C04F2BD0B3F5D2
:10509000C04F20D8B3F5804F12D0B3F5804F1AD847
:1050A000002B22D0B3F5005F15D1D7F814310833A7
:1050B0000021184600F0EEFD034687F8273115E081
:1050C000D7F8143128330221184600F095FE034624
:1050D00087F827310AE0012387F8273106E000BF6F
:1050E00004E000BF02E000BF00E000BF97F82731F6
:1050F000002B0BD1A14B9B6D23F46041D7F81431E9
:10510000D3F8A0309D4A0B43936503E097F827310D
:1051100087F82631D7F81431D3E9002302F00803C9
:10512000C7F890300023C7F89430D7E924120B4613
:1051300013431ED0D7F81431D3F88430B3F5805F11
:105140000CD1D7F8143128330221184600F054FE50
:105150000346002B02D0012387F82631874B5B6D75
:1051600023F44051D7F81431D3F88430834A0B43E9
:105170005365D7F81431D3E9002302F01003C7F8C0
:1051800088300023C7F88C30D7E922120B4613432E
:105190001ED0D7F81431D3F89830B3F5807F0CD1F6
:1051A000D7F8143128330221184600F025FE0346B3
:1051B000002B02D0012387F82631704B9B6D23F41E
:1051C0004071D7F81431D3F898306C4A0B4393658B
:1051D000D7F81431D3E9002302F40023C7F8803054
:1051E0000023C7F88430D7E920120B4613433ED082
:1051F000D7F81431D3F8A430B3F5003F22D0B3F57B
:10520000003F1BD8002B03D0B3F5803F0BD015E037
:10521000D7F8143108330021184600F03BFD03464F
:1052200087F827310FE0D7F81431283302211846C8
:1052300000F0E2FD034687F8273104E0012387F8F8
:10524000273100E000BF97F82731002B0BD14B4BE3
:105250009B6D23F44031D7F81431D3F8A430474A7A
:105260000B43936503E097F8273187F82631D7F889
:105270001431D3E9002302F48023BB670023FB67CA
:10528000D7E91E120B4613433BD0D7F81431D3F89D
:105290008830B3F5401F1FD0B3F5401F18D8B3F5C1
:1052A000801F03D0B3F5001F07D011E0334BDB6A3A
:1052B000324A43F40033D3620FE0D7F81431283375
:1052C0000121184600F098FD034687F8273104E0D5
:1052D000012387F8273100E000BF97F82731002B22
:1052E0000BD1264B5B6D23F44011D7F81431D3F862
:1052F0008830224A0B43536503E097F8273187F83B
:105300002631D7F81431D3E9002302F480333B6708
:1053100000237B67D7E91C120B46134334D0D7F820
:1053200014311B6D002B03D0B3F5803F07D011E083
:10533000124BDB6A114A43F40033D3620EE0D7F814
:10534000143108330221184600F0A4FC034687F804
:10535000273103E0012387F8273100BF97F8273171
:10536000002B0DD1054BDB6C23F48031D7F81431C1
:105370001B6D024A0B43D36406E000BF0044025891
:1053800097F8273187F82631D7F81431D3E900236D
:1053900002F00053BB660023FB66D7E91A120B46E6
:1053A00013430CD0D7F8143128330221184600F0EB
:1053B00023FD0346002B02D0012387F82631D7F8BE
:1053C0001431D3E9002302F400333B6600237B66EB
:1053D000D7E918120B46134338D0D7F81431D3F855
:1053E0008030B3F5407F18D0B3F5407F11D8B3F5C6
:1053F000007F14D0B3F5007F0BD8002B11D0B3F58C
:10540000807F06D1C34BDB6AC24A43F40033D362C8
:1054100008E0012387F8273104E000BF02E000BF65
:1054200000E000BF97F82731002B0BD1B94B5B6D23
:1054300023F44071D7F81431D3F88030B54A0B43C8
:10544000536503E097F8273187F82631D7F81431F0
:10545000D3E9002302F48013BB650023FB65D7E981
:1054600016120B46134309D0AA4B1B6D23F00041C3
:10547000D7F814315B6FA74A0B431365D7F8143183
:10548000D3E9002302F080533B6500237B65D7E915
:1054900014120B4613430AD09E4B1B6923F4804120
:1054A000D7F81431D3F8B8309A4A0B431361D7F8C0
:1054B0001431D3E9002302F40013BB640023FB641E
:1054C000D7E912120B46134309D0924B1B6D23F000
:1054D0008071D7F81431DB6E8E4A0B431365D7F811
:1054E0001431D3E9002302F080433B6400237B6442
:1054F000D7E910120B4613430ED0864B1B69854A21
:1055000023F400431361834B1969D7F81431D3F89E
:10551000BC30804A0B431361D7F81431D3E9002320
:1055200002F00043BB630023FB63D7E90E120B4676
:10553000134309D0774BDB6C23F04051D7F814317B
:105540005B6D744A0B43D364D7F81431D3E900235D
:1055500002F400033B6300237B63D7E90C120B4684
:1055600013430AD06B4B5B6D23F44001D7F8143121
:10557000D3F88C30674A0B435365D7F81431D3E91D
:1055800000230021B96203F00103FB62D7E90A128C
:105590000B46134311D0D7F81431083300211846B5
:1055A00000F078FB034687F8273197F82731002B66
:1055B00003D097F8273187F82631D7F81431D3E98B
:1055C00000230021396203F002037B62D7E908124D
:1055D0000B46134311D0D7F8143108330121184674
:1055E00000F058FB034687F8273197F82731002B46
:1055F00003D097F8273187F82631D7F81431D3E94B
:1056000000230021B96103F00403FB61D7E906120E
:105610000B46134311D0D7F8143108330221184632
:1056200000F038FB034687F8273197F82731002B25
:1056300003D097F8273187F82631D7F81431D3E90A
:1056400000230021396103F008037B61D7E90412CC
:105650000B46134311D0D7F81431283300211846D4
:1056600000F0CAFB034687F8273197F82731002B53
:1056700003D097F8273187F82631D7F81431D3E9CA
:1056800000230021B96003F01003FB60D7E9021288
:105690000B46134311D0D7F8143128330121184693
:1056A00000F0AAFB034687F8273197F82731002B33
:1056B00003D097F8273187F82631D7F81431D3E98A
:1056C00000230021396003F020037B60D7E900123A
:1056D0000B46134311D0D7F8143128330221184652
:1056E00000F08AFB034687F8273197F82731002B13
:1056F00003D097F8273187F8263197F82631002B09
:1057000001D1002300E00123184607F59477BD4638
:10571000BDE8B08F0044025880B500AFFEF796FD9B
:105720000246064B1B6A1B0903F007030449CB5CC6
:1057300003F01F0322FA03F3184680BD0044025809
:1057400070F7000880B489B000AF7860A14B9B6A05
:1057500003F00303BB619F4B9B6A1B0B03F03F03EA
:105760007B619C4BDB6A1B0903F001033B61994B96
:10577000DB6BDB08C3F30C033A6902FB03F307EEB0
:10578000903AF8EE677AC7ED037A7B69002B00F058
:105790001181BB69022B00F08380BB69022B00F2F0
:1057A000A180BB69002B03D0BB69012B56D099E0C7
:1057B000884B1B6803F02003002B2DD0854B1B6802
:1057C000DB0803F00303844A22FA03F3BB60BB68DF
:1057D00007EE903AF8EE676A7B6907EE903AF8EECA
:1057E000677A86EEA77A7B4B9B6BC3F3080307EEC1
:1057F000903AF8EE676A97ED036ADFED785AC6EEE5
:10580000257A76EEA77AF7EE006A77EEA67A67EE4B
:10581000277AC7ED077A87E07B6907EE903AF8EEC2
:10582000677ADFED6F6A86EEA77A6A4B9B6BC3F3EC
:10583000080307EE903AF8EE676A97ED036ADFED2A
:10584000675AC6EE257A76EEA77AF7EE006A77EE0B
:10585000A67A67EE277AC7ED077A65E07B6907EEDF
:10586000903AF8EE677ADFED5F6A86EEA77A594BD9
:105870009B6BC3F3080307EE903AF8EE676A97ED67
:10588000036ADFED565AC6EE257A76EEA77AF7EE72
:10589000006A77EEA67A67EE277AC7ED077A43E0CB
:1058A0007B6907EE903AF8EE677ADFED4F6A86EE95
:1058B000A77A484B9B6BC3F3080307EE903AF8EEC8
:1058C000676A97ED036ADFED455AC6EE257A76EEF4
:1058D000A77AF7EE006A77EEA67A67EE277AC7ED29
:1058E000077A21E07B6907EE903AF8EE677ADFED00
:1058F0003D6A86EEA77A374B9B6BC3F3080307EE2E
:10590000903AF8EE676A97ED036ADFED345AC6EE17
:10591000257A76EEA77AF7EE006A77EEA67A67EE3A
:10592000277AC7ED077A00BF2A4B9B6B5B0A03F00F
:105930007F0307EE903AF8EE677AB7EE007A37EE1B
:10594000877AD7ED076AC6EE877AFCEEE77A17EE1C
:10595000902A7B681A601F4B9B6B1B0C03F07F0324
:1059600007EE903AF8EE677AB7EE007A37EE877A6C
:10597000D7ED076AC6EE877AFCEEE77A17EE902A33
:105980007B685A60134B9B6B1B0E03F07F0307EE83
:10599000903AF8EE677AB7EE007A37EE877AD7ED6D
:1059A000076AC6EE877AFCEEE77A17EE902A7B68E4
:1059B0009A6008E07B6800221A607B6800225A60C7
:1059C0007B6800229A6000BF2437BD465DF8047BE7
:1059D000704700BF004402580090D003000000460A
:1059E0000024744C0024744A20BCBE4B80B489B09F
:1059F00000AF7860A14B9B6A03F00303BB619F4B30
:105A00009B6A1B0D03F03F037B619C4BDB6A1B0A07
:105A100003F001033B61994B5B6CDB08C3F30C03A0
:105A20003A6902FB03F307EE903AF8EE677AC7EDA6
:105A3000037A7B69002B00F01181BB69022B00F017
:105A40008380BB69022B00F2A180BB69002B03D0CD
:105A5000BB69012B56D099E0884B1B6803F02003EB
:105A6000002B2DD0854B1B68DB0803F00303844A11
:105A700022FA03F3BB60BB6807EE903AF8EE676A60
:105A80007B6907EE903AF8EE677A86EEA77A7B4B51
:105A90001B6CC3F3080307EE903AF8EE676A97EDC4
:105AA000036ADFED785AC6EE257A76EEA77AF7EE2E
:105AB000006A77EEA67A67EE277AC7ED077A87E065
:105AC0007B6907EE903AF8EE677ADFED6F6A86EE53
:105AD000A77A6A4B1B6CC3F3080307EE903AF8EE03
:105AE000676A97ED036ADFED675AC6EE257A76EEB0
:105AF000A77AF7EE006A77EEA67A67EE277AC7ED07
:105B0000077A65E07B6907EE903AF8EE677ADFED99
:105B10005F6A86EEA77A594B1B6CC3F3080307EE46
:105B2000903AF8EE676A97ED036ADFED565AC6EED3
:105B3000257A76EEA77AF7EE006A77EEA67A67EE18
:105B4000277AC7ED077A43E07B6907EE903AF8EED3
:105B5000677ADFED4F6A86EEA77A484B1B6CC3F37A
:105B6000080307EE903AF8EE676A97ED036ADFEDF7
:105B7000455AC6EE257A76EEA77AF7EE006A77EEFA
:105B8000A67A67EE277AC7ED077A21E07B6907EEF0
:105B9000903AF8EE677ADFED3D6A86EEA77A374BEA
:105BA0001B6CC3F3080307EE903AF8EE676A97EDB3
:105BB000036ADFED345AC6EE257A76EEA77AF7EE61
:105BC000006A77EEA67A67EE277AC7ED077A00BFFC
:105BD0002A4B1B6C5B0A03F07F0307EE903AF8EE4A
:105BE000677AB7EE007A37EE877AD7ED076AC6EEA6
:105BF000877AFCEEE77A17EE902A7B681A601F4BD3
:105C00001B6C1B0C03F07F0307EE903AF8EE677AEB
:105C1000B7EE007A37EE877AD7ED076AC6EE877A55
:105C2000FCEEE77A17EE902A7B685A60134B1B6CE8
:105C30001B0E03F07F0307EE903AF8EE677AB7EE9B
:105C4000007A37EE877AD7ED076AC6EE877AFCEEE0
:105C5000E77A17EE902A7B689A6008E07B6800225A
:105C60001A607B6800225A607B6800229A6000BF3D
:105C70002437BD465DF8047B704700BF00440258DE
:105C80000090D003000000460024744C0024744AA5
:105C900020BCBE4B80B584B000AF78603960002373
:105CA000FB73534B9B6A03F00303032B01D10123C6
:105CB00099E04F4B1B684E4A23F080631360FBF75B
:105CC0008FFCB86008E0FBF78BFC0246BB68D31A78
:105CD000022B01D9032386E0454B1B6803F00063C8
:105CE000002BF0D1424B9B6A23F47C327B681B680B
:105CF0001B033F4913438B627B685B68013BC3F323
:105D000008027B689B68013B5B029BB21A437B687D
:105D1000DB68013B1B0403F4FE031A437B681B6929
:105D2000013B1B0603F0FE43314913438B63304BA9
:105D3000DB6A23F0C0027B685B692D491343CB62A9
:105D40002B4BDB6A23F020027B689B6928491343B5
:105D5000CB62274BDB6A264A23F01003D362244B25
:105D6000DA6B244B13407A68D269D200204913437E
:105D7000CB631F4BDB6A1E4A43F01003D3623B68C0
:105D8000002B06D11A4BDB6A194A43F40023D36275
:105D90000FE03B68012B06D1154BDB6A144A43F434
:105DA0008013D36205E0124BDB6A114A43F40013FF
:105DB000D3620F4B1B680E4A43F080631360FBF7FE
:105DC0000FFCB86008E0FBF70BFC0246BB68D31A77
:105DD000022B01D9032306E0054B1B6803F0006387
:105DE000002BF0D0FB7B18461037BD4680BD00BFAE
:105DF000004402580700FFFF80B584B000AF786010
:105E000039600023FB73534B9B6A03F00303032B9E
:105E100001D1012399E04F4B1B684E4A23F0805378
:105E20001360FBF7DDFBB86008E0FBF7D9FB024627
:105E3000BB68D31A022B01D9032386E0454B1B68AC
:105E400003F00053002BF0D1424B9B6A23F07C728D
:105E50007B681B681B053F4913438B627B685B684B
:105E6000013BC3F308027B689B68013B5B029BB26A
:105E70001A437B68DB68013B1B0403F4FE031A43EF
:105E80007B681B69013B1B0603F0FE43314913434A
:105E90000B64304BDB6A23F440627B685B692D49FD
:105EA0001343CB622B4BDB6A23F400727B689B6944
:105EB00028491343CB62274BDB6A264A23F48073BD
:105EC000D362244B5A6C244B13407A68D269D200B7
:105ED000204913434B641F4BDB6A1E4A43F4807313
:105EE000D3623B68002B06D11A4BDB6A194A43F494
:105EF0008003D3620FE03B68012B06D1154BDB6AB0
:105F0000144A43F40003D36205E0124BDB6A114AE2
:105F100043F08073D3620F4B1B680E4A43F08053EB
:105F20001360FBF75DFBB86008E0FBF759FB024626
:105F3000BB68D31A022B01D9032306E0054B1B686B
:105F400003F00053002BF0D0FB7B18461037BD4602
:105F500080BD00BF004402580700FFFF80B582B03B
:105F600000AF78607B68002B01D1012342E07B68A1
:105F7000D3F88830002B06D17B68002283F8842078
:105F80007868FBF713FA7B682422C3F888207B68C3
:105F90001B681A687B681B6822F001021A60786827
:105FA00000F02CF80346012B01D1012322E07B688D
:105FB0009B6A002B02D0786800F088FD7B681B6824
:105FC0005A687B681B6822F490425A607B681B68A1
:105FD0009A687B681B6822F02A029A607B681B68BB
:105FE0001A687B681B6842F001021A60786800F04A
:105FF0000FFE034618460837BD4680BD2DE9B04F59
:1060000092B000AF7861002387F842307B699A68CC
:106010007B691B691A437B695B691A437B69DB698E
:1060200013437B647B691B681A68BE4B13407A6913
:106030001268796C0B4313607B691B685B6823F4FF
:1060400040517B69DA687B691B680A435A607B6947
:106050009B697B647B691B68B34A934204D07B696C
:106060001B6A7A6C13437B647B691B689A68AF4B2D
:1060700013407A691268796C0B4393607B691B68E3
:10608000DB6A23F00F017B695A6A7B691B680A434C
:10609000DA627B691B68A64A934277D1A54B5B6D98
:1060A00003F03803282B6DD801A252F823F000BF6B
:1060B0005561000885610008856100088561000858
:1060C0008561000885610008856100088561000818
:1060D0005D61000885610008856100088561000830
:1060E00085610008856100088561000885610008F8
:1060F0006561000885610008856100088561000808
:1061000085610008856100088561000885610008D7
:106110006D610008856100088561000885610008DF
:1061200085610008856100088561000885610008B7
:1061300075610008856100088561000885610008B7
:106140008561000885610008856100088561000897
:106150007D610008012387F8433022E2042387F899
:1061600043301EE2082387F843301AE2102387F8F1
:10617000433016E2202387F8433012E2402387F8A9
:1061800043300EE2802387F843300AE27B691B68C4
:10619000694A934230D1674B5B6D03F00703052BCF
:1061A00026D801A252F823F0C1610008C961000895
:1061B000D1610008D9610008E1610008E9610008C7
:1061C000002387F84330ECE1042387F84330E8E10B
:1061D000082387F84330E4E1102387F84330E0E1F7
:1061E000202387F84330DCE1402387F84330D8E1AF
:1061F000802387F84330D4E17B691B684F4A934280
:1062000030D14C4B5B6D03F00703052B26D801A260
:1062100052F823F02D620008356200083D62000844
:10622000456200084D62000855620008002387F8A7
:106230004330B6E1042387F84330B2E1082387F8FE
:106240004330AEE1102387F84330AAE1202387F8DA
:106250004330A6E1402387F84330A2E1802387F84A
:1062600043309EE17B691B68354A934230D1314B04
:106270005B6D03F00703052B26D801A252F823F02B
:1062800099620008A1620008A9620008B1620008D2
:10629000B9620008C1620008002387F8433080E13A
:1062A000042387F843307CE1082387F8433078E102
:1062B000102387F8433074E1202387F8433070E1DE
:1062C000402387F843306CE1802387F8433068E14E
:1062D0007B691B681B4A934242D1164B5B6D03F0EE
:1062E0000703052B38D801A252F823F005630008F4
:1062F0000D630008156300081D630008496300086A
:1063000051630008002387F843304AE1042387F8EB
:10631000433046E1082387F8433042E1102387F8F1
:1063200043303EE1F369FFCF000C0058FFF4FF114A
:106330000010014000440258004400400048004062
:10634000004C004000500040202387F8433028E1F3
:10635000402387F8433024E1802387F8433020E14D
:106360007B691B68CB4A934276D1CB4B5B6D03F0C4
:106370003803282B6CD801A252F823F021640008BE
:106380005164000851640008516400085164000819
:106390005164000851640008516400082964000831
:1063A00051640008516400085164000851640008F9
:1063B0005164000851640008516400083164000809
:1063C00051640008516400085164000851640008D9
:1063D00051640008516400085164000839640008E1
:1063E00051640008516400085164000851640008B9
:1063F00051640008516400085164000841640008B9
:106400005164000851640008516400085164000898
:106410005164000851640008516400084964000890
:10642000012387F84330BCE0042387F84330B8E009
:10643000082387F84330B4E0102387F84330B0E0F6
:10644000202387F84330ACE0402387F84330A8E0AE
:10645000802387F84330A4E07B691B688F4A93420E
:1064600030D18D4B5B6D03F00703052B26D801A2BD
:1064700052F823F08D640008956400089D640008BC
:10648000A5640008AD640008B5640008002387F81F
:10649000433086E0042387F8433082E0082387F8FE
:1064A00043307EE0102387F843307AE0202387F8DA
:1064B000433076E0402387F8433072E0802387F84A
:1064C00043306EE07B691B68754A934230D1724B52
:1064D0005B6D03F00703052B26D801A252F823F0C9
:1064E000F9640008016500080965000811650008E5
:1064F0001965000821650008002387F8433050E043
:10650000042387F843304CE0082387F8433048E001
:10651000102387F8433044E0202387F8433040E0DD
:10652000402387F843303CE0802387F8433038E04D
:106530007B691B685B4A934230D1574B9B6D03F0DC
:106540000703052B26D801A252F823F06565000841
:106550006D650008756500087D65000885650008A3
:106560008D650008022387F843301AE0042387F87A
:10657000433016E0082387F8433012E0102387F8F1
:1065800043300EE0202387F843300AE0402387F8A9
:10659000433006E0802387F8433002E0802387F809
:1065A00043307B691B683F4A934240F0F88097F87C
:1065B0004330202B46DC022BC0F28280023B1E2B94
:1065C0007ED801A252F823F04B660008C16600088D
:1065D00053660008C1660008C1660008C16600086D
:1065E00063660008C1660008C1660008C16600084D
:1065F000C1660008C1660008C1660008C1660008DF
:1066000073660008C1660008C1660008C16600081C
:10661000C1660008C1660008C1660008C1660008BE
:10662000C1660008C1660008C1660008C1660008AE
:10663000C1660008C1660008C1660008C16600089E
:10664000B3660008402B37D03AE0FFF765F8F863EF
:106650003CE007F124031846FFF774F8BB6AFB63BC
:1066600034E007F118031846FFF7C0F9FB69FB6334
:106670002CE0094B1B6803F02003002B16D0064BBF
:106680001B68DB0803F00303074A22FA03F3FB63EA
:106690001CE000BF00140140004402580078004094
:1066A000007C0040000C00580090D0039D4BFB6321
:1066B0000CE09D4BFB6309E04FF40043FB6305E0F6
:1066C0000023FB63012387F8423000BFFB6B002BE4
:1066D00000F0DE817B695B6A944A32F813301A4617
:1066E000FB6BB3FBF2F33B637B695A6813465B00B9
:1066F00013443A6B9A4205D37B695B681B033A6B80
:106700009A4203D9012387F84230C1E1FB6B002292
:10671000BB60FA607B695B6A844A32F813309BB2D3
:1067200000223B607A60D7E90023D7E90201F9F73C
:10673000EBFF02460B46104619464FF000024FF0A1
:1067400000030B0243EA10630202796949684908B1
:1067500000200C46054612EB040843EB05097B6953
:106760005B6800229A46934652465B46404649463D
:10677000F9F7CAFF02460B461346BB63BB6BB3F582
:10678000407F08D3BB6BB3F5801F04D27B691B68C5
:10679000BA6BDA607CE1012387F8423078E17B69EB
:1067A000DB69B3F5004F40F0C58097F84330202BEC
:1067B00048DC002B7BDB202B79D801A252F823F098
:1067C0004B68000853680008AF680008AF6800080D
:1067D0005B680008AF680008AF680008AF68000891
:1067E0006B680008AF680008AF680008AF68000871
:1067F000AF680008AF680008AF680008AF6800081D
:106800007B680008AF680008AF680008AF68000840
:10681000AF680008AF680008AF680008AF680008FC
:10682000AF680008AF680008AF680008AF680008EC
:10683000AF680008AF680008AF680008AF680008DC
:10684000A1680008402B2ED031E0FDF72FFDF86342
:1068500033E0FDF741FDF8632FE007F1240318460C
:10686000FEF770FFBB6AFB6327E007F118031846C9
:10687000FFF7BCF8FB69FB631FE02D4B1B6803F0BF
:106880002003002B09D02A4B1B68DB0803F003030D
:10689000244A22FA03F3FB630FE0224BFB630CE074
:1068A000214BFB6309E04FF40043FB6305E0002349
:1068B000FB63012387F8423000BFFB6B002B00F025
:1068C000E7807B695B6A194A32F813301A46FB6B22
:1068D000B3FBF2F35A007B695B685B081A447B697F
:1068E0005B68B2FBF3F3BB63BB6B0F2B16D9BB6BBF
:1068F000B3F5803F12D2BB6B9BB223F00F03FB8634
:10690000BB6B5B089BB203F007039AB2FB8E134389
:10691000FB867B691B68FA8EDA60B9E0012387F891
:106920004230B5E00090D00300093D0080F7000838
:106930000044025897F84330202B49DC002B7CDBC5
:10694000202B7AD801A252F823F000BFD7690008A3
:10695000DF6900083B6A00083B6A0008E769000835
:106960003B6A00083B6A00083B6A0008F7690008B8
:106970003B6A00083B6A00083B6A00083B6A000863
:106980003B6A00083B6A00083B6A0008076A000887
:106990003B6A00083B6A00083B6A00083B6A000843
:1069A0003B6A00083B6A00083B6A00083B6A000833
:1069B0003B6A00083B6A00083B6A00083B6A000823
:1069C0003B6A00083B6A00083B6A00082D6A000821
:1069D000402B2ED031E0FDF769FCF86333E0FDF782
:1069E0007BFCF8632FE007F124031846FEF7AAFEAC
:1069F000BB6AFB6327E007F118031846FEF7F6FFB2
:106A0000FB69FB631FE02D4B1B6803F02003002B89
:106A100009D02A4B1B68DB0803F00303284A22FA3B
:106A200003F3FB630FE0264BFB630CE0254BFB639A
:106A300009E04FF40043FB6305E00023FB630123FF
:106A400087F8423000BFFB6B002B21D07B695B6A6B
:106A50001D4A32F813301A46FB6BB3FBF2F27B6926
:106A60005B685B081A447B695B68B2FBF3F3BB634A
:106A7000BB6B0F2B09D9BB6BB3F5803F05D2BB6B4A
:106A80009AB27B691B68DA6002E0012387F8423022
:106A90007B690122A3F86A207B690122A3F86820A0
:106AA0007B6900225A677B6900229A6797F8423017
:106AB00018464837BD46BDE8B08F00BF00440258B5
:106AC0000090D00300093D0080F7000880B483B037
:106AD00000AF78607B689B6A03F00103002B0AD04B
:106AE0007B681B685B6823F400317B68DA6A7B682B
:106AF0001B680A435A607B689B6A03F00203002B01
:106B00000AD07B681B685B6823F480317B681A6B52
:106B10007B681B680A435A607B689B6A03F0040326
:106B2000002B0AD07B681B685B6823F480217B689C
:106B30005A6B7B681B680A435A607B689B6A03F048
:106B40000803002B0AD07B681B685B6823F40041B4
:106B50007B689A6B7B681B680A435A607B689B6AF8
:106B600003F01003002B0AD07B681B689B6823F49A
:106B700080517B68DA6B7B681B680A439A607B688C
:106B80009B6A03F02003002B0AD07B681B689B687C
:106B900023F400517B681A6C7B681B680A439A6077
:106BA0007B689B6A03F04003002B1AD07B681B684C
:106BB0005B6823F480117B685A6C7B681B680A430E
:106BC0005A607B685B6CB3F5801F0AD17B681B68D9
:106BD0005B6823F4C0017B689A6C7B681B680A437E
:106BE0005A607B689B6A03F08003002B0AD07B68A5
:106BF0001B685B6823F400217B68DA6C7B681B6888
:106C00000A435A6000BF0C37BD465DF8047B7047ED
:106C100080B598B002AF78607B680022C3F89020FE
:106C2000FAF7DEFC78657B681B681B6803F00803D5
:106C3000082B2FD16FF07E4300937B6D00224FF421
:106C40000011786800F08EF80346002B22D07B6894
:106C50001B68BB63BB6B53E8003F7B637B6B23F01C
:106C600080033B657B681B681A463B6D7B643A6416
:106C7000396C7A6C41E80023FB63FB6B002BE6D197
:106C80007B682022C3F888207B68002283F8842058
:106C9000032363E07B681B681B6803F00403042B79
:106CA00049D16FF07E4300937B6D00224FF4800149
:106CB000786800F057F80346002B3CD07B681B68CF
:106CC0007B627B6A53E8003F3B623B6A23F490732C
:106CD000FB647B681B681A46FB6C3B63FA62F96ACB
:106CE0003A6B41E80023BB62BB6A002BE6D17B68AC
:106CF0001B6808333B613B6953E8003FFB60FB685E
:106D000023F00103BB647B681B680833BA6CFA612B
:106D1000BB61B969FA6941E800237B617B69002B9B
:106D2000E5D17B682022C3F88C207B68002283F8A1
:106D30008420032312E07B682022C3F888207B682C
:106D40002022C3F88C207B680022DA667B68002250
:106D50001A677B68002283F884200023184658377E
:106D6000BD4680BD80B584B000AFF860B9603B60BF
:106D70001346FB7149E0BB69B3F1FF3F45D0FAF719
:106D80002FFC02463B68D31ABA699A4202D3BB6908
:106D9000002B01D1032348E0FB681B681B6803F04C
:106DA0000403002B31D0FB681B68DB6903F0080388
:106DB000082B10D1FB681B6808221A62F86800F0E3
:106DC00039F8FB680822C3F89020FB68002283F89A
:106DD0008420012329E0FB681B68DB6903F400635E
:106DE000B3F5006F11D1FB681B684FF400621A62A3
:106DF000F86800F01FF8FB682022C3F89020FB68B9
:106E0000002283F8842003230FE0FB681B68DA6903
:106E1000BB681340BA689A420CBF01230023DBB25F
:106E20001A46FB799A42A6D0002318461037BD4671
:106E300080BD000080B495B000AF78607B681B68AF
:106E40007B637B6B53E8003F3B633B6B23F49073A6
:106E5000FB647B681B681A46FB6C3B64FA63F96B46
:106E60003A6C41E80023BB63BB6B002BE6D17B6827
:106E70001B6808333B623B6A53E8003FFB61FA69D9
:106E80001E4B1340BB647B681B680833BA6CFA6204
:106E9000BB62B96AFA6A41E800237B627B6A002B15
:106EA000E5D17B68DB6E012B18D17B681B68FB602A
:106EB000FB6853E8003FBB60BB6823F010037B64B2
:106EC0007B681B681A467B6CBB617A617969BA6919
:106ED00041E800233B613B69002BE6D17B6820221F
:106EE000C3F88C207B680022DA667B6800225A6730
:106EF00000BF5437BD465DF8047B7047FEFFFFEFCF
:106F000080B485B000AF78607B6893F88430012B43
:106F100001D1022327E07B68012283F884207B686B
:106F20002422C3F888207B681B681B68FB607B6891
:106F30001B681A687B681B6822F001021A60FB68F4
:106F400023F00053FB607B6800225A667B681B6855
:106F5000FA681A607B682022C3F888207B680022C8
:106F600083F88420002318461437BD465DF8047B5F
:106F7000704780B584B000AF786039607B6893F863
:106F80008430012B01D102232DE07B68012283F89C
:106F900084207B682422C3F888207B681B681B68D8
:106FA000FB607B681B681A687B681B6822F0010223
:106FB0001A607B681B689B6823F060417B681B68D4
:106FC0003A680A439A60786800F050F87B681B685A
:106FD000FA681A607B682022C3F888207B68002248
:106FE00083F88420002318461037BD4680BD80B545
:106FF00084B000AF786039607B6893F88430012BEF
:1070000001D102232DE07B68012283F884207B6874
:107010002422C3F888207B681B681B68FB607B68A0
:107020001B681A687B681B6822F001021A607B6883
:107030001B689B6823F060617B681B683A680A43A1
:107040009A60786800F012F87B681B68FA681A602A
:107050007B682022C3F888207B68002283F8842084
:10706000002318461037BD4680BD000080B485B0AF
:1070700000AF78607B685B6E002B08D17B680122D3
:10708000A3F86A207B680122A3F8682031E010236E
:10709000FB731023BB737B681B689B685B0EDBB2C2
:1070A00003F007037B737B681B689B685B0FDBB295
:1070B00003F007033B73BB7B3A7B11498A5C02FBFD
:1070C00003F33A7B0F498A5C93FBF2F39AB27B6835
:1070D000A3F86A20FB7B7A7B09498A5C02FB03F3F5
:1070E0007A7B08498A5C93FBF2F39AB27B68A3F837
:1070F000682000BF1437BD465DF8047B704700BFB1
:1071000098F70008A0F7000884B080B584B000AFFD
:10711000786007F11C0080E80E003B6B012B20D14A
:107120007B689B6B23F480327B689A637B68DA68A8
:107130002A4B13407A68D3607B68DB6823F44012E3
:107140007B68DA60FB6C012B05D17B68DB6843F45C
:1071500080127B68DA60786801F0F8FA0346FB7306
:107160001AE07B68DB6843F040027B68DA6078688D
:1071700001F0ECFA0346FB733B6C002B06D17B68F5
:107180009B6B43F480327B689A6305E07B689B6B62
:1071900023F480327B689A637B6A012B16D17B686B
:1071A000DB6D9AB27B68DA657B68DA6D0C4B134352
:1071B0007A68D3657B689B6843F006027B689A60B7
:1071C0007B689B6843F020027B689A60FB7B1846D3
:1071D0001037BD46BDE8804004B07047BFFFBDFF1B
:1071E0000000EE0380B487B000AFF860B9601346CA
:1071F000FB71FB79022B65D1BB68414A934206D9EA
:10720000BB68404A934202D20F237B6162E0BB68B5
:107210003C4A934206D3BB683B4A934202D20E23B8
:107220007B6157E0BB68384A934206D3BB68374A54
:10723000934202D20D237B614CE0BB68334A9342F8
:1072400006D3BB68324A934202D80C237B6141E0EB
:10725000BB682F4A934206D9BB682E4A934202D894
:107260000B237B6136E0BB682A4A934206D9BB6890
:10727000294A934202D80A237B612BE0BB68264A45
:10728000934206D9BB68254A934202D209237B6107
:1072900020E0BB68214A934206D3BB68204A934250
:1072A00002D808237B6115E0BB681D4A934206D9CA
:1072B000BB681C4A934202D207237B610AE0062383
:1072C0007B6107E0FB79002B02D109237B6101E0A0
:1072D00009237B61FB68DB6823F47052FB68DA608A
:1072E000FB68DA687B699B0203F470531A43FB68FE
:1072F000DA60002318461C37BD465DF8047B7047F2
:10730000BFACD800C0E1E4000024F40080730601A3
:107310009F491A01FF2C31013FA44C0100366E0138
:107320001FABA6010048E80180B483B000AF7860CD
:107330007B689B6843F001027B689A6000231846D3
:107340000C37BD465DF8047B704780B483B000AF56
:1073500078607B689B6823F001027B689A60002359
:1073600018460C37BD465DF8047B704780B584B085
:1073700000AF78600B46FB700023FB607B68DB6826
:1073800023F0C0427B68DA60FB78012B15D17B6863
:10739000DB6843F000527B68DA600120FAF72CF9D1
:1073A000FB680133FB60786801F03FF90346012B6D
:1073B0001ED0FB68312BF0D91AE0FB78002B15D1D9
:1073C0007B68DB6843F080427B68DA600120FAF773
:1073D00013F9FB680133FB60786801F026F9034676
:1073E000002B05D0FB68312BF0D901E0012305E02B
:1073F000FB68322B01D1012300E00023184610372F
:10740000BD4680BD84B080B586B000AF786007F11E
:10741000240080E80E000023FB757B68FB600023DE
:107420003B6109E07A683B6940339B0013440022CA
:107430005A603B6901333B613B690E2BF2D9FB6C0F
:10744000002B1CD1FB6803F500635B68FA6802F54A
:10745000006243F0020353607B689B6B23F40012CD
:107460007B689A637B681B6843F040027B681A6004
:107470007B681B6843F080027B681A6005E07B68CC
:107480009B6B43F400127B689A63FB6803F56063AF
:107490001A4600231360FB6803F500631946FB6876
:1074A00003F500631A460B681360BB6B012B0CD10C
:1074B0003B6B002B04D10021786800F065F908E0EF
:1074C0000121786800F060F903E00321786800F09A
:1074D0005BF91021786800F0F3F80346002B01D027
:1074E0000123FB75786800F01FF90346002B01D0DB
:1074F0000123FB75FB6803F500631A460023136143
:10750000FB6803F500631A4600235361FB6803F52B
:1075100000631A460023D36100233B6143E03B69CB
:107520005A01FB68134403F510631B6803F0004322
:10753000B3F1004F18D13B69002B0AD13B695A01C6
:10754000FB68134403F510631A464FF000631360A1
:1075500013E03B695A01FB68134403F510631A46B4
:107560004FF09043136008E03B695A01FB681344F5
:1075700003F510631A46002313603B695A01FB6848
:10758000134403F510631A46002313613B695A0143
:10759000FB68134403F510631A464FF67F3393607C
:1075A0003B6901333B617B6A3A699A42B7D3002356
:1075B0003B6143E03B695A01FB68134403F53063C8
:1075C0001B6803F00043B3F1004F18D13B69002B57
:1075D0000AD13B695A01FB68134403F530631A462C
:1075E0004FF00063136013E03B695A01FB681344DA
:1075F00003F530631A464FF09043136008E03B698F
:107600005A01FB68134403F530631A4600231360E4
:107610003B695A01FB68134403F530631A460023A3
:1076200013613B695A01FB68134403F530631A4642
:107630004FF67F3393603B6901333B617B6A3A6964
:107640009A42B7D3FB6803F500631B69FA6802F539
:10765000006223F4807313617B6800229A617B6867
:107660006FF080425A61FB6A002B05D17B689B69F1
:1076700043F010027B689A617B689A690E4B134352
:107680007A689361FB6B002B05D07B689B6943F0A4
:1076900008027B689A61FB6C012B05D17B689A69B3
:1076A000064B13437A689361FB7D18461837BD4635
:1076B000BDE8804004B0704700383C8004000040C2
:1076C00080B485B000AF786039600023FB60FB6850
:1076D0000133FB60FB68134A934201D903231BE08B
:1076E0007B681B69002BF2DA0023FB603B689B017F
:1076F00043F020027B681A61FB680133FB60FB6882
:10770000084A934201D9032306E07B681B6903F012
:107710002003202BF0D0002318461437BD465DF817
:10772000047B7047400D030080B485B000AF7860E3
:107730000023FB60FB680133FB60FB68114A934246
:1077400001D9032318E07B681B69002BF2DA0023C0
:10775000FB607B6810221A61FB680133FB60FB68E9
:10776000084A934201D9032306E07B681B6903F0B2
:107770001003102BF0D0002318461437BD465DF8D7
:10778000047B7047400D030080B485B000AF786083
:107790000B46FB707B68FB60FB6803F500631A68AF
:1077A000FB78F96801F5006113430B60002318466C
:1077B0001437BD465DF8047B704780B487B000AFD6
:1077C00078607B683B613B6903F500639B6803F06D
:1077D0000603FB60FB68002B02D10023FB750AE067
:1077E000FB68022B02D0FB68062B02D10223FB753B
:1077F00001E00F23FB75FB7D18461C37BD465DF885
:10780000047B704780B485B000AF786039607B68D6
:10781000FB603B681B78BB603B685B78012B39D110
:10782000FB6803F50063DA693B681B7803F00F031C
:10783000012101FA03F39BB2F96801F500611343DA
:10784000CB61BB685A01FB68134403F510631B68E6
:1078500003F40043002B53D1BB685A01FB68134467
:1078600003F510631A683B689B68C3F30A013B6821
:107870001B799B041943BB689B050B431A43BB68E8
:107880005901FB680B4403F510631946204B134361
:107890000B6035E0FB6803F50063DA693B681B7831
:1078A00003F00F03012101FA03F31B04F96801F54A
:1078B00000611343CB61BB685A01FB68134403F5B5
:1078C00030631B6803F40043002B19D1BB685A01D5
:1078D000FB68134403F530631A683B689B68C3F385
:1078E0000A013B681B799B040B431A43BB6859018F
:1078F000FB680B4403F530631946054B13430B60DB
:10790000002318461437BD465DF8047B704700BF5E
:107910000080001080B485B000AF786039607B686B
:10792000FB603B681B78BB603B685B78012B61D1D7
:10793000BB685A01FB68134403F510631B6803F02E
:107940000043B3F1004F1FD1BB685A01FB681344D9
:1079500003F510631B68BA685101FA680A4402F51E
:10796000106243F000631360BB685A01FB68134464
:1079700003F510631B68BA685101FA680A4402F5FE
:10798000106243F080431360FB6803F50063DA6B19
:107990003B681B7803F00F03012101FA03F39BB24C
:1079A000DB43F96801F500611340CB63FB6803F525
:1079B0000063DA693B681B7803F00F03012101FAC9
:1079C00003F39BB2DB43F96801F500611340CB611F
:1079D000BB685A01FB68134403F510631A68BB685F
:1079E0005901FB680B4403F510631946354B1340EE
:1079F0000B6060E0BB685A01FB68134403F5306319
:107A00001B6803F00043B3F1004F1FD1BB685A015C
:107A1000FB68134403F530631B68BA685101FA68C8
:107A20000A4402F5306243F000631360BB685A01F8
:107A3000FB68134403F530631B68BA685101FA68A8
:107A40000A4402F5306243F080431360FB6803F59B
:107A50000063DA6B3B681B7803F00F03012101FA26
:107A600003F31B04DB43F96801F500611340CB63AA
:107A7000FB6803F50063DA693B681B7803F00F03CA
:107A8000012101FA03F31B04DB43F96801F50061EE
:107A90001340CB61BB685A01FB68134403F53063A4
:107AA0001A68BB685901FB680B4403F5306319463B
:107AB000054B13400B60002318461437BD465DF894
:107AC000047B7047007833EC0078F3EF80B58AB020
:107AD00002AFF860B9601346FB71FB68FB61BB68DD
:107AE0001B78BB61BB685B78012B40F08181BB6870
:107AF0001B69002B32D1BB695A01FB69134403F5A2
:107B000010631A69BB695901FB690B4403F51063E3
:107B10001946A54B13400B61BB695A01FB6913441D
:107B200003F510631B69BA695101FA690A4402F549
:107B3000106243F400231361BB695A01FB691344CB
:107B400003F510631A69BB695901FB690B4403F51E
:107B500010631946954B13400B6192E0BB695A01C3
:107B6000FB69134403F510631A69BB695901FB698A
:107B70000B4403F5106319468C4B13400B61BB6932
:107B80005A01FB69134403F510631A69BB69590173
:107B9000FB690B4403F510631946834B13400B61DB
:107BA000BB69002B1AD1BB681A69BB689B689A42F3
:107BB00003D9BB689A68BB681A61BB695A01FB6943
:107BC000134403F510631B69BA695101FA690A4449
:107BD00002F5106243F4002313611BE0BB695A01F4
:107BE000FB69134403F510631A69BB681969BB6824
:107BF0009B680B44591EBB689B68B1FBF3F3D90427
:107C00006B4B0B40B9694801F969014401F51061FA
:107C100013430B61BB695A01FB69134403F51063FD
:107C20001A69BB681B69C3F31203B9694801F96992
:107C3000014401F5106113430B61BB681B79012BF3
:107C40001FD1BB695A01FB69134403F510631B691B
:107C5000BA695101FA690A4402F5106223F0C0437F
:107C60001361BB695A01FB69134403F510631B6977
:107C7000BA695101FA690A4402F5106243F00053EF
:107C80001361FB79012B4BD1BB68DB69002B09D059
:107C9000BB695A01FB69134403F510631A46BB68BC
:107CA000DB695361BB681B79012B28D1FB6903F5A4
:107CB00000639B6803F48073002B10D1BB695A01E9
:107CC000FB69134403F510631B68BA695101FA6933
:107CD0000A4402F5106243F0005313600FE0BB69E1
:107CE0005A01FB69134403F510631B68BA6951011B
:107CF000FA690A4402F5106243F080531360BB69CD
:107D00005A01FB69134403F510631B68BA695101FA
:107D1000FA690A4402F5106243F0044313606AE111
:107D2000BB695A01FB69134403F510631B68BA6908
:107D30005101FA690A4402F5106243F004431360EA
:107D4000BB681B79012B15D0BB681B69002B00F0A9
:107D50005281FB6903F500635A6BBB681B7803F023
:107D60000F03012101FA03F3F96901F500611343DF
:107D70004B6340E1FB6903F500639B6803F4807388
:107D8000002B17D1BB695A01FB69134403F510633B
:107D90001B68BA695101FA690A4402F5106243F09E
:107DA0000053136016E000BFFFFF07E00000F8FF7C
:107DB0000000F81FBB695A01FB69134403F5106307
:107DC0001B68BA695101FA690A4402F5106243F06E
:107DD00080531360BB68D968BB681A78BB681B699D
:107DE00098B2FB7900930346F86800F0B9F902E114
:107DF000BB695A01FB69134403F530631A69BB6917
:107E00005901FB690B4403F5306319467C4B134061
:107E10000B61BB695A01FB69134403F530631A69AE
:107E2000BB695901FB690B4403F530631946754B77
:107E300013400B61BB69002B2FD1BB681B69002B62
:107E400003D0BB689A68BB681A61BB689A68BB6854
:107E50001A62BB695A01FB69134403F530631A695E
:107E6000BB681B6AC3F31203B9694801F96901448D
:107E700001F5306113430B61BB695A01FB6913447F
:107E800003F530631B69BA695101FA690A4402F5C6
:107E9000306243F4002313615FE0BB681B69002B71
:107EA00023D1BB695A01FB69134403F530631A6996
:107EB000BB689B68C3F31203B9694801F9690144BF
:107EC00001F5306113430B61BB695A01FB6913442F
:107ED00003F530631B69BA695101FA690A4402F576
:107EE000306243F40023136137E0BB681A69BB6852
:107EF0009B6813445A1EBB689B68B2FBF3F3FB827A
:107F0000BB689B68FA8A03FB02F2BB681A62BB6912
:107F10005A01FB69134403F530631A69FB8AD904DB
:107F2000394B0B40B9694801F969014401F53061E9
:107F300013430B61BB695A01FB69134403F53063BA
:107F40001A69BB681B6AC3F31203B9694801F9696E
:107F5000014401F5306113430B61FB79012B0DD115
:107F6000BB68DB68002B09D0BB68D968BB695A01C4
:107F7000FB69134403F530630A465A61BB681B79F9
:107F8000012B28D1FB6903F500639B6803F4807320
:107F9000002B10D1BB695A01FB69134403F5306310
:107FA0001B68BA695101FA690A4402F5306243F06C
:107FB000005313600FE0BB695A01FB69134403F5DA
:107FC00030631B68BA695101FA690A4402F53062EC
:107FD00043F080531360BB695A01FB69134403F5F6
:107FE00030631B68BA695101FA690A4402F53062CC
:107FF00043F004431360002318462037BD4680BD7C
:108000000000F8FFFFFF07E00000F81F80B487B012
:1080100000AF786039600023FB600023FB757B684C
:108020003B613B685B78012B4AD13B681B785A0166
:108030003B69134403F510631B6803F00043B3F17D
:10804000004F40F086803B681B785A013B6913441F
:1080500003F510631B683A68127851013A690A44C3
:1080600002F5106243F0006313603B681B785A010D
:108070003B69134403F510631B683A681278510199
:108080003A690A4402F5106243F080431360FB68CA
:108090000133FB60FB6842F21072934202D9012364
:1080A000FB7556E03B681B785A013B69134403F5A6
:1080B00010631B6803F00043B3F1004FE7D048E0C2
:1080C0003B681B785A013B69134403F530631B6816
:1080D00003F00043B3F1004F3BD13B681B785A01DA
:1080E0003B69134403F530631B683A681278510109
:1080F0003A690A4402F5306243F0006313603B685A
:108100001B785A013B69134403F530631B683A68D6
:10811000127851013A690A4402F5306243F0804313
:108120001360FB680133FB60FB6842F210729342FC
:1081300002D90123FB750CE03B681B785A013B69AF
:10814000134403F530631B6803F00043B3F1004FA1
:10815000E7D0FB7D18461C37BD465DF8047B7047B1
:1081600080B489B000AFF860B96011461A460B467A
:10817000FB711346BB80FB687B61BB68FB6197F8B2
:108180002830002B23D1BB8803339B083B6100239D
:10819000BB6118E0FB791A037B69134403F5805334
:1081A0001A46FB691B681360FB690133FB61FB69BD
:1081B0000133FB61FB690133FB61FB690133FB6147
:1081C000BB690133BB61BA693B699A42E2D30023C0
:1081D00018462437BD465DF8047B704780B48BB0E9
:1081E00000AFF860B9601346FB80FB68BB61BB68F9
:1081F0007B62FB889B089BB27B61FB8803F00303D7
:10820000FB8300233B6214E0BB6903F580531A68CB
:108210007B6A1A607B6A01337B627B6A01337B6213
:108220007B6A01337B627B6A01337B623B6A013389
:108230003B623A6A7B699A42E6D3FB8B002B1ED0E5
:1082400000233B62BB6903F580531A4607F1100314
:1082500012681A603A693B6ADBB2DB0022FA03F368
:10826000DAB27B6A1A703B6A01333B627B6A013384
:108270007B62FB8B013BFB83FB8B002BEAD17B6A90
:1082800018462C37BD465DF8047B704780B485B036
:1082900000AF786039607B68FB603B681B78BB602F
:1082A0003B685B78012B2CD1BB685A01FB681344F7
:1082B00003F510631B68002B12DBBB68002B0FD08B
:1082C000BB685A01FB68134403F510631B68BA6866
:1082D0005101FA680A4402F5106223F080431360EA
:1082E000BB685A01FB68134403F510631B68BA6846
:1082F0005101FA680A4402F5106243F40013136056
:108300002BE0BB685A01FB68134403F530631B681C
:10831000002B12DBBB68002B0FD0BB685A01FB6837
:10832000134403F530631B68BA685101FA680A44C4
:1083300002F5306223F080431360BB685A01FB688A
:10834000134403F530631B68BA685101FA680A44A4
:1083500002F5306243F4001313600023184614370B
:10836000BD465DF8047B704780B485B000AF78608F
:1083700039607B68FB603B681B78BB603B685B785F
:10838000012B28D1BB685A01FB68134403F5106325
:108390001B68BA685101FA680A4402F5106223F4B6
:1083A000001313603B681B79032B03D03B681B79D8
:1083B000022B38D1BB685A01FB68134403F51063E4
:1083C0001B68BA685101FA680A4402F5106243F06A
:1083D0008053136027E0BB685A01FB68134403F520
:1083E00030631B68BA685101FA680A4402F53062CA
:1083F00023F4001313603B681B79032B03D03B6805
:108400001B79022B0FD1BB685A01FB68134403F59B
:1084100030631B68BA685101FA680A4402F5306299
:1084200043F080531360002318461437BD465DF8AF
:10843000047B704780B485B000AF78600B46FB705A
:108440007B68FB60FB6803F500631B68FA6802F554
:10845000006223F4FE631360FB6803F500631A688F
:10846000FB781B0103F4FE63F96801F50061134317
:108470000B60002318461437BD465DF8047B704737
:1084800080B485B000AF78607B68FB60FB6803F563
:1084900060631B68FA6802F5606223F003031360EF
:1084A000FB6803F500635B68FA6802F5006223F07D
:1084B00002035360002318461437BD465DF8047B61
:1084C000704780B485B000AF78607B68FB60FB6864
:1084D00003F560631B68FA6802F5606223F003032A
:1084E0001360FB6803F500635B68FA6802F50062DD
:1084F00043F002035360002318461437BD465DF86D
:10850000047B704780B485B000AF78607B685B699E
:10851000FB607B689B69FA681340FB60FB68184648
:108520001437BD465DF8047B704780B485B000AF5A
:1085300078607B68FB60FB6803F500639B69BB6048
:10854000FB6803F50063DB69BA681340BB60BB6876
:108550001B0C18461437BD465DF8047B704780B489
:1085600085B000AF78607B68FB60FB6803F5006353
:108570009B69BB60FB6803F50063DB69BA68134065
:10858000BB60BB689BB218461437BD465DF8047BE0
:10859000704780B485B000AF78600B46FB707B6895
:1085A000FB60FB785A01FB68134403F530639B685A
:1085B000BB60FB6803F500635B69BA681340BB608E
:1085C000BB6818461437BD465DF8047B704780B41D
:1085D00087B000AF78600B46FB707B687B617B697E
:1085E00003F500631B693B617B6903F500635B6B0B
:1085F000FB60FB7803F00F03FA6822FA03F3DB0158
:10860000DBB23A6913433B61FB785A017B6913443F
:1086100003F510639B683A691340BB60BB6818465A
:108620001C37BD465DF8047B704780B483B000AF53
:1086300078607B685B6903F0010318460C37BD4620
:108640005DF8047B7047000080B485B000AF7860AF
:108650007B68FB60FB6803F510631A68FB6803F531
:1086600010631946094B13400B60FB6803F5006368
:108670005B68FA6802F5006243F48073536000237C
:1086800018461437BD465DF8047B704700F8FFFFBD
:1086900080B487B000AFF8600B467A60FB72FB686D
:1086A0007B61FB683C3304331B683B613B69264AB2
:1086B00093420AD97B6903F530631B6803F00043DA
:1086C000B3F1004F01D1002337E07B6903F530633C
:1086D0001A46002313617B6903F530631B697A69CD
:1086E00002F5306243F4002313617B6903F53063C4
:1086F0001B697A6902F5306243F0180313617B69E4
:1087000003F530631B697A6902F5306243F0C043B8
:108710001361FB7A012B0FD17B6903F530631A4695
:108720007B6853617B6903F530631B687A6902F5E6
:10873000306243F080231360002318461C37BD4687
:108740005DF8047B704700BF0A30544F80B485B099
:1087500000AF78600023FB60FB680133FB60FB68BF
:10876000134A934201D903231BE07B681B69002B4A
:10877000F2DA0023FB607B681B6943F001027B682F
:108780001A61FB680133FB60FB68094A934201D917
:10879000032306E07B681B6903F00103012BF0D083
:1087A000002318461437BD465DF8047B704700BFB0
:1087B000400D030080B584B000AF78600B46FB70BD
:1087C000542002F007FCF860FB68002B09D17B689D
:1087D000D3F8D4227B68B032002143F82210022360
:1087E0008BE07B68D3F8D4227B68B032F96843F819
:1087F00022107B68D3F8D4227B68B03253F8222051
:108800007B68C3F8BC227B681B7C002B1BD13D4BD3
:108810001B7803F00F02796813469B0013449B00FA
:108820000B44263305221A80374B1B7803F00F02C6
:10883000796813469B0013449B000B4403F5B37304
:1088400005221A801AE02F4B1B7803F00F0279687B
:1088500013469B0013449B000B44263305221A80C9
:10886000294B1B7803F00F02796813469B001344D1
:108870009B000B4403F5B37305221A80214B197832
:1088800040230322786802F082FA1E4B1B7803F023
:108890000F02796813469B0013449B000B4424335A
:1088A00001221A80184B197840230322786802F0BD
:1088B0006EFA154B1B7803F00F02796813469B0084
:1088C00013449B000B4403F5B27301221A80FB682A
:1088D000002283F850207B68D3F8D4327A68B03312
:1088E0009B0013445B685B689847074B1978FA68EC
:1088F0004023786802F03AFB002318461037BD4643
:1089000080BD00BF8A0000248B00002480B582B0A7
:1089100000AF78600B46FB70374B1B7819467868C0
:1089200002F05BFA344B1B7803F00F0279681346B0
:108930009B0013449B000B44243300221A802E4BCF
:108940001B7803F00F02796813469B0013449B00C9
:108950000B44263300221A80284B1B78194678686E
:1089600002F03BFA254B1B7803F00F02796813469F
:108970009B0013449B000B4403F5B27300221A8042
:108980001E4B1B7803F00F02796813469B001344BB
:108990009B000B4403F5B37300221A807B68D3F865
:1089A000D4227B68B03253F82230002B1FD07B6872
:1089B000D3F8D4327A68B0339B0013445B689B6869
:1089C00098477B68D3F8D4227B68B03253F82230C2
:1089D000184602F00DFB7B68D3F8D4227B68B032D6
:1089E000002143F822107B680022C3F8BC22002338
:1089F00018460837BD4680BD8A0000248B0000243D
:108A000080B588B000AF786039607B68D3F8D42235
:108A10007B68B03253F822303B610023FB83002394
:108A2000BB610023FB810023FB753B69002B01D157
:108A30000323F8E03B681B7803F06003002B56D05B
:108A4000202B40F0E8803B685B78023B092B46D83E
:108A500001A252F823F000BFB18A00088F8A0008F3
:108A6000DF8A0008DF8A0008DF8A0008DF8A000842
:108A7000DF8A0008C18A00089F8A0008818A0008EE
:108A80003B685B88DBB21A463B691A642EE03B699F
:108A9000403301221946786801F0F8FC26E03B6873
:108AA0005B881B0A9BB2DBB21A463B695A641DE025
:108AB0003B69443301221946786801F0E7FC15E070
:108AC0003B690122DA6439693B68DB88402B28BFA7
:108AD00040239BB21A46786801F004FD06E039682D
:108AE000786801F062FC0323FB7500BF9AE03B68E5
:108AF0005B780B2B00F2868001A252F823F000BFB6
:108B0000318B0008138C0008058C0008058C0008C8
:108B1000058C0008058C00085B8B0008058C00089C
:108B2000058C0008058C0008B38B0008DD8B00085D
:108B30007B6893F89C32DBB2032B07D107F10E035D
:108B400002221946786801F0A1FC63E03968786870
:108B500001F02BFC0323FB755CE03B685B881B0A80
:108B60009BB2222B10D13B68DB88222B28BF22230B
:108B7000FB837B68D3F8D4327A68B0339B0013440C
:108B80005B681B68BB610DE03B685B881B0A9BB29E
:108B9000212B07D1264BBB613B68DB88092B28BF03
:108BA0000923FB83FB8B1A46B969786801F06EFCD8
:108BB00030E07B6893F89C32DBB2032B07D13B6932
:108BC000483301221946786801F060FC22E03968D8
:108BD000786801F0EAFB0323FB751BE07B6893F8E0
:108BE0009C32DBB2032B06D13B685B88DBB21A46B2
:108BF0003B699A640EE03968786801F0D6FB03237C
:108C0000FB7507E03968786801F0CFFB0323FB753B
:108C100000E000BF06E03968786801F0C6FB032376
:108C2000FB7500BFFB7D18462037BD4680BD00BFE9
:108C30007400002480B586B000AFF860B9601346B8
:108C4000FB80FB68D3F8D422FB68B03253F82230A3
:108C50007B617B69002B01D1032319E0FB6893F84A
:108C60009C32DBB2032B12D17B6993F85030002B7E
:108C70000BD17B69012283F85020074B1978FB88C0
:108C8000BA68F86802F051F901E0012300E000231E
:108C900018461837BD4680BD8A00002480B584B0D0
:108CA00000AF78608121154800F01DFDF8600121BA
:108CB000124800F018FDB860FB68002B09D0FB6873
:108CC000002242F040021A7100225A71FB6805220C
:108CD0009A71BB68002B09D0BB68002242F04002A9
:108CE0001A7100225A71BB6805229A717B68292289
:108CF0001A80024B18461037BD4680BD480000243C
:108D000080B584B000AF78608121154800F0EBFC9D
:108D1000F8600121124800F0E6FCB860FB68002B07
:108D200009D0FB68002242F040021A7100225A71F9
:108D3000FB6805229A71BB68002B09D0BB68002232
:108D400042F040021A7100225A71BB6805229A71E2
:108D50007B6829221A80024B18461037BD4680BD19
:108D60004800002480B584B000AF786081211548A8
:108D700000F0B9FCF8600121124800F0B4FCB860C2
:108D8000FB68002B09D0FB68002242F040021A71F8
:108D900000225A71FB6805229A71BB68002B09D02A
:108DA000BB68002242F040021A7100225A71BB686F
:108DB00005229A717B6829221A80024B18461037C7
:108DC000BD4680BD4800002480B483B000AF786009
:108DD0000B46FB707B68D3F8D4227B68B03253F823
:108DE0002230002283F85020002318460C37BD465D
:108DF0005DF8047B704780B584B000AF78600B46A7
:108E0000FB707B68D3F8D4227B68B03253F82230F1
:108E1000002B01D1032317E07B68D3F8D4227B68B1
:108E2000B03253F82230FB607B68D3F8D4327A68D2
:108E3000B0339B0013445B68DB68FA681078FA680B
:108E4000527811469847002318461037BD4680BD1A
:108E500080B584B000AF78607B68D3F8D4227B689B
:108E6000B03253F82230002B01D103230FE07B688E
:108E7000D3F8D4227B68B03253F82230FB60064B23
:108E80001978FA684023786802F070F800231846D1
:108E90001037BD4680BD00BF8B00002480B584B074
:108EA00000AF78607B68D3F8D4227B68B03253F887
:108EB0002230FB60FB68002B01D1032316E0FB6826
:108EC000DB6C012B11D17B68D3F8D4327A68B033D4
:108ED0009B0013445B68DB68FA681078FA68527884
:108EE00011469847FB680022DA64002318461037C1
:108EF000BD4680BD80B483B000AF78607B680A2235
:108F00001A80034B18460C37BD465DF8047B70474A
:108F10008000002480B483B000AF786039603B6883
:108F2000002B01D1032309E07B68D3F8D4327A689F
:108F3000B0339B0013443A685A60002318460C373C
:108F4000BD465DF8047B704780B586B000AFF86021
:108F5000B9601346FB71FB68002B01D103231FE0AE
:108F6000FB680022C3F8B822FB680022C3F8C422C1
:108F7000FB680022C3F8D022BB68002B03D0FB683B
:108F8000BA68C3F8B422FB68012283F89C22FB680C
:108F9000FA791A70F86801F08FFE0346FB75FB7DC5
:108FA00018461837BD4680BD80B584B000AF7860E4
:108FB00039600023FB813B68002B01D1032325E0AE
:108FC0007B683A68C3F8B8227B68D3F8D4227B6800
:108FD000AE3253F82230DB6A002B0FD07B68D3F817
:108FE000D4227B68AE3253F82230DB6A07F10E02DE
:108FF0001046984702467B68C3F8D0227B68D3F8B6
:10900000D8325A1C7B68C3F8D82200231846103780
:10901000BD4680BD80B582B000AF7860786801F051
:109020009BFE034618460837BD4680BD80B483B01A
:1090300000AF7860002318460C37BD465DF8047B0E
:10904000704780B584B000AF78600B46FB7000239A
:10905000FB737B68D3F8B832002B09D07B68D3F858
:10906000B8321B68FA781146786898470346FB7354
:10907000FB7B18461037BD4680BD80B584B000AF7D
:1090800078600B46FB700023FB737B68D3F8B83223
:109090005B68FA781146786898470346002B01D040
:1090A0000323FB73FB7B18461037BD4680BD80B59C
:1090B00084B000AF786039607B6803F2AA23396816
:1090C000184601F038F97B680122C3F894227B68C6
:1090D000B3F8B0321A467B68C3F898227B6893F8DD
:1090E000AA3203F01F03022B1AD0022B22D8002B26
:1090F00002D0012B0AD01DE07B6803F2AA23194697
:10910000786800F065FB0346FB7320E07B6803F2A0
:10911000AA231946786800F0CDFB0346FB7316E0DE
:109120007B6803F2AA231946786800F02FFC0346F7
:10913000FB730CE07B6893F8AA3223F07F03DBB269
:109140001946786801F068FE0346FB7300BFFB7B9D
:1091500018461037BD4680BD80B586B000AFF860B8
:109160000B467A60FB720023FB75FB7A002B6ED1F5
:10917000FB6803F5AA733B61FB68D3F89432032BB9
:1091800040F098803B699A683B69DB689A4213D942
:109190003B699A683B69DB68D21A3B699A603B6914
:1091A000DA683B699B68934228BF13461A46796880
:1091B000F86801F0B4F97DE0FB6893F8AA3203F097
:1091C0001F03022B14D0022B1DD8002B02D0012B21
:1091D00003D018E00023BB7518E0FB68B3F8AE328B
:1091E000DBB21946F86800F064FA0346BB750DE07F
:1091F000FB68B3F8AE32DBB21946F86800F066FAE5
:109200000346BB7502E00023BB7500BFBB7D002B8E
:1092100019D1FB6893F89C32DBB2032B13D1BA7DD2
:10922000FB68AE3253F822301B69002B0BD0BA7D9D
:10923000FB68C3F8D422BA7DFB68AE3253F8223003
:109240001B69F8689847F86801F07AF932E0FB7A10
:1092500003F07F03DBB21946F86800F037FA0346E3
:10926000BB75BB7DFF2B25D0BB7D002B22D1FB68BE
:1092700093F89C32DBB2032B17D1BA7DFB68AE3278
:1092800053F822309B69002B0FD0BA7DFB68C3F8DE
:10929000D422BA7DFB68AE3253F822309B69FA7A49
:1092A0001146F86898470346FB75FB7D002B01D0FB
:1092B000FB7D00E0002318461837BD4680BD80B511
:1092C00086B000AFF8600B467A60FB72FB7A002B29
:1092D0006FD1FB6814333B61FB68D3F89432022BE7
:1092E0005AD13B699A683B69DB689A4214D93B6959
:1092F0009A683B69DB68D21A3B699A603B699B6854
:109300001A467968F86801F0DCF800230022002191
:10931000F86801F02BFE3FE03B69DA683B699B6827
:109320009A421CD13B695A683B69DB689A4216D362
:109330003B695A68FB68D3F898329A420FD20022F0
:109340000021F86801F0BDF8FB680022C3F89822FC
:10935000002300220021F86801F008FE1CE0FB68F1
:1093600093F89C32DBB2032B0FD1FB68D3F8B832F1
:10937000DB68002B09D0FB680022C3F8D422FB680D
:10938000D3F8B832DB68F86898478021F86801F0B4
:1093900043FDF86801F0E7F8FB6893F8A032002B72
:1093A0003AD0F868FFF742FEFB68002283F8A0225B
:1093B00032E0FB7A63F07F03DBB21946F86800F015
:1093C00085F90346FB75FB7DFF2B25D0FB7D002B2C
:1093D00022D1FB6893F89C32DBB2032B1CD1FA7DBF
:1093E000FB68AE3253F822305B69002B14D0FA7D53
:1093F000FB68C3F8D422FA7DFB68AE3253F8223002
:109400005B69FA7A1146F86898470346BB75BB7DDD
:10941000002B01D0BB7D00E0002318461837BD4665
:1094200080BD80B584B000AF78600023FB737B689B
:10943000012283F89C227B680022C3F894227B6877
:1094400000225A607B680022C3F8A4227B680022B5
:1094500083F8A0227B68D3F8B832002B14D07B6845
:10946000D3F8B8325B68002B0ED07B68D3F8B832E3
:109470005B687A685268D2B21146786898470346AA
:10948000002B01D00323FB734023002200217868C6
:1094900001F07DFC7B680122A3F864217B684022F7
:1094A000C3F86021402300228021786801F06FFC1E
:1094B0007B6801229A847B6840221A62FB7B1846F3
:1094C0001037BD4680BD80B483B000AF78600B46D6
:1094D000FB707B68FA781A74002318460C37BD4677
:1094E0005DF8047B704780B483B000AF78607B6820
:1094F00093F89C32DBB2042B06D07B6893F89C3245
:10950000DAB27B6883F89D227B68042283F89C2270
:10951000002318460C37BD465DF8047B704780B4C5
:1095200083B000AF78607B6893F89C32DBB2042B89
:1095300006D17B6893F89D32DAB27B6883F89C226F
:10954000002318460C37BD465DF8047B704780B594
:1095500082B000AF78607B6893F89C32DBB2032B5B
:1095600010D17B68D3F8B832002B0BD07B68D3F8CE
:10957000B832DB69002B05D07B68D3F8B832DB69E1
:1095800078689847002318460837BD4680BD80B5E7
:1095900082B000AF78600B46FB707B68D3F8D422B2
:1095A0007B68AE3253F82230002B01D103231CE03C
:1095B0007B6893F89C32DBB2032B15D17B68D3F820
:1095C000D4227B68AE3253F822301B6A002B0BD0BA
:1095D0007B68D3F8D4227B68AE3253F822301B6A02
:1095E000FA78114678689847002318460837BD4630
:1095F00080BD80B582B000AF78600B46FB707B68A1
:10960000D3F8D4227B68AE3253F82230002B01D13C
:1096100003231CE07B6893F89C32DBB2032B15D14B
:109620007B68D3F8D4227B68AE3253F822305B6A71
:10963000002B0BD07B68D3F8D4227B68AE3253F872
:1096400022305B6AFA7811467868984700231846FA
:109650000837BD4680BD80B483B000AF786000237A
:1096600018460C37BD465DF8047B704780B584B062
:1096700000AF78600023FB737B68012283F89C2293
:109680007B68D3F8B832002B0ED07B68D3F8B832A1
:109690005B687A685268D2B2114678689847034688
:1096A000002B01D00323FB73FB7B18461037BD460C
:1096B00080BD80B483B000AF78600B46FB700023A0
:1096C00018460C37BD465DF8047B704780B483B004
:1096D00000AF78600B46FB70002318460C37BD4680
:1096E0005DF8047B704780B586B000AF78600B46AC
:1096F000FB707B687B617B68FB6000233B61FB68E0
:109700005B889AB2FB681B789BB29A4220D9FB68AF
:109710001B789BB27B8113E007F10A031946786935
:1097200000F01BF878617B695B78052B08D17B69B9
:109730003B613B699B78FA789A4208D000233B61F1
:10974000FB685B889AB27B899A42E5D800E000BF4B
:109750003B6918461837BD4680BD80B485B000AF60
:10976000786039607B68FB603B681A88FB681B780F
:109770009BB213449AB23B681A80FB681B781A4666
:109780007B681344FB60FB6818461437BD465DF8E0
:10979000047B704780B487B000AF78607B687B61E2
:1097A0007B691B787B827B6901337B617B691B78DA
:1097B0003B823B8A1B021AB2B7F9123013431BB229
:1097C000FB81FB8918461C37BD465DF8047B70475A
:1097D00080B584B000AF786039600023FB733B68CC
:1097E0001B7803F06003402B05D0402B57D8002B8B
:1097F0000FD0202B53D17B68D3F8D4227B68AE32B4
:1098000053F822309B683968786898470346FB73A1
:109810004AE03B685B78092B3BD801A252F823F061
:109820007598000889980008939800087F980008A8
:1098300093980008539800084998000893980008E6
:109840006B9800085D9800083968786800F03CFA69
:1098500024E03968786800F0CBFB1FE0396878684D
:1098600000F00AFC0346FB7318E03968786800F0E2
:10987000ADFC13E03968786800F0DEFC0EE0396872
:10988000786800F00DFD09E03968786800F031FD76
:1098900004E03968786800F088FD00BF04E03968AA
:1098A000786800F082FD00BFFB7B18461037BD468C
:1098B00080BD00BF80B584B000AF78603960002300
:1098C000FB733B681B7803F06003402B05D0402BF3
:1098D00052D8002B01D0202B4ED17B6893F89C32BC
:1098E000DBB2013B022B40D83B689B88DBB2012BEB
:1098F00036D83B689B88DBB219467868FFF7D9FEFB
:109900000346BB73BB7BFF2B1DD0BB7B002B1AD147
:10991000BA7B7B68AE3253F822309B68002B0FD0A5
:10992000BA7B7B68C3F8D422BA7B7B68AE3253F82B
:1099300022309B683968786898470346FB7304E0D7
:109940000323FB7301E00323FB733B68DB88002BDD
:1099500010D1FB7B002B0DD1786800F0F1FD09E000
:109960003968786800F021FD04E03968786800F013
:109970001CFD00E000BF04E03968786800F015FDC8
:1099800000BFFB7B18461037BD4680BD80B584B054
:1099900000AF786039600023FB733B689B88BB7322
:1099A0003B681B7803F06003402B07D0402B00F28C
:1099B0007F81002B2AD0202B40F07A81BB7B194677
:1099C0007868FFF783FE03467B737B7BFF2B00F0F9
:1099D00074817B7B002B40F070817A7B7B68C3F8BD
:1099E000D4227A7B7B68AE3253F822309B68002BFE
:1099F00000F063817A7B7B68AE3253F822309B683B
:109A00003968786898470346FB7356E13B685B7892
:109A1000032B08D0032B00F34581002B00F09B8023
:109A2000012B3CD03EE17B6893F89C32DBB2022BE9
:109A300002D0032B16D02CE0BB7B002B0DD0BB7BC0
:109A4000802B0AD0BB7B1946786801F0E5F98021AC
:109A5000786801F0E1F900BF20E03968786800F02B
:109A6000A4FC1BE03B685B88002B0ED1BB7B002B6A
:109A70000BD0BB7B802B08D03B68DB88002B04D14C
:109A8000BB7B1946786801F0C7F9786800F058FD8B
:109A900004E03968786800F088FC00BF07E17B6863
:109AA00093F89C32DBB2022B02D0032B16D04BE092
:109AB000BB7B002B0DD0BB7B802B0AD0BB7B194618
:109AC000786801F0A9F98021786801F0A5F900BF54
:109AD00040E03968786800F068FC3BE03B685B88F0
:109AE000002B36D1BB7B03F07F03002B04D0BB7B64
:109AF0001946786801F0AFF9786800F021FDBB7B6A
:109B000019467868FFF7E2FD03467B737B7BFF2BEA
:109B10001FD07B7B002B1CD17A7B7B68C3F8D422BF
:109B20007A7B7B68AE3253F822309B68002B10D0D2
:109B30007A7B7B68AE3253F822309B68396878684C
:109B400098470346FB7304E03968786800F02DFC01
:109B500000E000BFABE07B6893F89C32DBB2022BE5
:109B600002D0032B32D097E0BB7B002B07D0BB7B0E
:109B7000802B04D03968786800F017FC91E097F9E1
:109B80000E30002B0BDABB7B03F07F0213469B00E9
:109B900013449B0010337A68134404330BE0BB7BFF
:109BA00003F07F0213469B0013449B0003F5A87348
:109BB0007A6813440433BB60BB6800221A60BB6838
:109BC00002221946786800F061FC6AE097F90E30CD
:109BD000002B11DABB7B03F00F02796813469B0060
:109BE00013449B000B4424331B88002B17D1396886
:109BF000786800F0DAFB54E0BB7B03F00F02796871
:109C000013469B0013449B000B4403F5B2731B885F
:109C1000002B04D13968786800F0C7FB41E097F960
:109C20000E30002B0BDABB7B03F07F0213469B0048
:109C300013449B0010337A68134404330BE0BB7B5E
:109C400003F07F0213469B0013449B0003F5A873A7
:109C50007A6813440433BB60BB7B002B02D0BB7B10
:109C6000802B03D1BB6800221A600EE0BB7B194633
:109C7000786801F00FF90346002B03D0BB6801227E
:109C80001A6002E0BB6800221A60BB680222194613
:109C9000786800F0FBFB04E03968786800F085FB29
:109CA00000BF04E03968786800F07FFB00BF05E082
:109CB0003968786800F079FB00E000BFFB7B18464C
:109CC0001037BD4680BD000080B584B000AF78601D
:109CD000396000233B810023FB600023FB723B685B
:109CE0005B881B0A9BB2013B0E2B00F2528101A242
:109CF00052F823F0659D00087D9D0008BD9D000879
:109D0000939F0008939F0008339F00085F9F0008FF
:109D1000939F0008939F0008939F0008939F00085B
:109D2000939F0008939F0008939F0008319D0008AF
:109D30007B68D3F8B432DB69002B0BD07B68D3F897
:109D4000B432DB697A68127C07F108011046984743
:109D5000F86026E13968786800F027FBFB7A013368
:109D6000FB721EE17B68D3F8B4321B687A68127C00
:109D700007F1080110469847F86012E17B681B7CE8
:109D8000002B0DD17B68D3F8B8329B6A07F108022B
:109D900010469847F860FB68013302221A7000E110
:109DA0007B68D3F8B832DB6A07F10802104698479F
:109DB000F860FB68013302221A70F2E03B685B88AE
:109DC000DBB2052B00F2AC8001A252F823F000BFF9
:109DD000E99D00081D9E0008519E0008859E000810
:109DE000B99E0008ED9E00087B68D3F8B4325B682A
:109DF000002B0BD07B68D3F8B4325B687A68127C96
:109E000007F1080110469847F86091E039687868D2
:109E100000F0CBFAFB7A0133FB7289E07B68D3F860
:109E2000B4329B68002B0BD07B68D3F8B4329B68AC
:109E30007A68127C07F1080110469847F86077E0CD
:109E40003968786800F0B1FAFB7A0133FB726FE091
:109E50007B68D3F8B432DB68002B0BD07B68D3F877
:109E6000B432DB687A68127C07F108011046984723
:109E7000F8605DE03968786800F097FAFB7A0133A2
:109E8000FB7255E07B68D3F8B4321B69002B0BD012
:109E90007B68D3F8B4321B697A68127C07F1080139
:109EA00010469847F86043E03968786800F07DFA1A
:109EB000FB7A0133FB723BE07B68D3F8B4325B6919
:109EC000002B0BD07B68D3F8B4325B697A68127CC4
:109ED00007F1080110469847F86029E0396878686A
:109EE00000F063FAFB7A0133FB7221E07B68D3F860
:109EF000B4329B69002B0BD07B68D3F8B4329B69DA
:109F00007A68127C07F1080110469847F8600FE064
:109F10003968786800F049FAFB7A0133FB7207E090
:109F20003968786800F041FAFB7A0133FB7200BFB0
:109F300037E07B681B7C002B09D17B68D3F8B832F3
:109F40005B6B07F1080210469847F86029E0396812
:109F5000786800F02AFAFB7A0133FB7221E07B6813
:109F60001B7C002B0DD17B68D3F8B8321B6B07F13B
:109F7000080210469847F860FB68013307221A7000
:109F80000FE03968786800F010FAFB7A0133FB7251
:109F900007E03968786800F008FAFB7A0133FB7251
:109FA00000BFFB7A002B1ED13B68DB88002B16D04C
:109FB0003B89002B0ED03B68DA883B89934228BF4F
:109FC00013469BB23B813B891A46F968786800F0DA
:109FD0005DFA09E03968786800F0E7F904E078682C
:109FE00000F0AEFA00E000BF1037BD4680BD00BFF4
:109FF00080B584B000AF786039603B689B88002BE7
:10A0000031D13B68DB88002B2DD13B685B887F2BEF
:10A0100029D83B685B88DBB203F07F03FB737B6866
:10A0200093F89C32DBB2032B04D13968786800F0D6
:10A03000BCF91DE07B68FA7B83F89E22FB7B194606
:10A04000786800F053FF786800F07AFAFB7B002B09
:10A0500004D07B68022283F89C2209E07B680122FD
:10A0600083F89C2204E03968786800F09EF900BF0C
:10A0700000BF1037BD4680BD80B584B000AF7860AA
:10A0800039600023FB733B685B88DAB24E4B1A7071
:10A090004D4B1B78012B05D93968786800F085F99C
:10A0A00003238CE07B6893F89C32DBB2022B02D056
:10A0B000032B29D075E0444B1B78002B20D0424B5A
:10A0C0001B781A467B685A603F4B1B7819467868A4
:10A0D000FEF7B7FF0346FB73FB7B002B08D0396804
:10A0E000786800F062F97B68022283F89C2265E0C0
:10A0F000786800F025FA7B68032283F89C225DE0F3
:10A10000786800F01DFA59E02F4B1B78002B12D114
:10A110007B68022283F89C222B4B1B781A467B68B3
:10A120005A60294B1B7819467868FEF7A6FF7868B5
:10A1300000F006FA42E0244B1B781A467B685B6805
:10A140009A422AD07B685B68DBB219467868FEF7D2
:10A1500094FF1D4B1B781A467B685A601A4B1B787C
:10A1600019467868FEF76DFF0346FB73FB7B002BF7
:10A170000FD03968786800F018F97B685B68DBB24B
:10A1800019467868FEF779FF7B68022283F89C22E3
:10A1900014E0786800F0D4F910E0786800F0D0F9A5
:10A1A0000CE03968786800F000F9074B1B78194615
:10A1B0007868FEF762FF0323FB7300BFFB7B184642
:10A1C0001037BD4680BD00BF9803002480B582B023
:10A1D00000AF786039603B68DB88012B04D03968B8
:10A1E000786800F0E2F823E07B6893F89C32DBB2F9
:10A1F000022B02DC002B03DC15E0032B0BD012E05A
:10A200007B6800229A607B680833012219467868CF
:10A2100000F03CF90CE07B680433012219467868B1
:10A2200000F034F904E03968786800F0BEF800BF47
:10A2300000BF0837BD4680BD80B582B000AF7860F2
:10A2400039607B6893F89C32DBB2013B022B1ED84D
:10A250003B68DB88022B04D03968786800F0A5F8E9
:10A260001AE07B680122DA607B68D3F8A432002B05
:10A2700005D07B68DB6843F002027B68DA607B68AC
:10A280000C3302221946786800F000F904E03968BE
:10A29000786800F08AF800BF00BF0837BD4680BD6F
:10A2A00080B582B000AF786039603B685B88012B75
:10A2B00007D17B680122C3F8A422786800F040F936
:10A2C00013E03B685B88022B0BD13B689B881B0A21
:10A2D0009BB2DAB27B6883F8A022786800F030F98C
:10A2E00003E03968786800F060F800BF0837BD46C1
:10A2F00080BD80B582B000AF786039607B6893F82C
:10A300009C32DBB2013B022B0BD83B685B88012BF4
:10A310000CD17B680022C3F8A422786800F010F901
:10A3200004E03968786800F040F800E000BF00BF42
:10A330000837BD4680BD80B584B000AF7860396015
:10A340003B68FB60FB681A787B681A70FB68013316
:10A35000FB60FB681A787B685A70FB680133FB600E
:10A36000F868FFF717FA03461A467B685A80FB68BD
:10A370000133FB60FB680133FB60F868FFF70AFA02
:10A3800003461A467B689A80FB680133FB60FB68D2
:10A390000133FB60F868FFF7FDF903461A467B6856
:10A3A000DA8000BF1037BD4680BD80B582B000AFF7
:10A3B000786039608021786800F02EFD002178688F
:10A3C00000F02AFD00BF0837BD4680BD80B586B0CD
:10A3D00000AFF860B9607A600023FB75FB68002B62
:10A3E00036D0FB683B61386900F036F8034601332C
:10A3F0009BB25B009AB27B681A80FB7DBA681344FB
:10A400007A6812781A70FB7D0133FB75FB7DBA68A0
:10A41000134403221A70FB7D0133FB7513E0FB7DAF
:10A42000BA6813443A6912781A703B6901333B6188
:10A43000FB7D0133FB75FB7DBA68134400221A7063
:10A44000FB7D0133FB753B691B78002BE7D100E0F6
:10A4500000BF1837BD4680BD80B485B000AF7860BE
:10A460000023FB737B68BB6005E0FB7B0133FB7360
:10A47000BB680133BB60BB681B78002BF5D1FB7B4D
:10A4800018461437BD465DF8047B704780B584B02C
:10A4900000AFF860B9607A60FB680222C3F89422CA
:10A4A000FB687A689A61FB687A68DA617B68BA68E7
:10A4B0000021F86800F039FD002318461037BD462A
:10A4C00080BD80B584B000AFF860B9607A607B6809
:10A4D000BA680021F86800F028FD002318461037FC
:10A4E000BD4680BD80B584B000AFF860B9607A60C9
:10A4F000FB680322C3F89422FB687A68C3F85821EA
:10A50000FB687A68C3F85C217B68BA680021F86848
:10A5100000F02CFD002318461037BD4680BD80B5E5
:10A5200084B000AFF860B9607A607B68BA680021D7
:10A53000F86800F01BFD002318461037BD4680BDAB
:10A5400080B582B000AF78607B680422C3F89422A3
:10A55000002300220021786800F0E7FC0023184661
:10A560000837BD4680BD80B582B000AF78607B689B
:10A570000522C3F89422002300220021786800F00D
:10A58000F5FC002318460837BD4680BD80B500AFF6
:10A59000002213491348FEF7D7FC0346002B01D0D5
:10A5A000F6F716FD10490F48FEF7FEFC0346002B98
:10A5B00001D0F6F70DFD0D490A48FEF7ABFC034646
:10A5C000002B01D0F6F704FD0648FEF723FD0346F5
:10A5D000002B01D0F6F7FCFCF8F79EFE00BF80BD13
:10A5E000C40000249C03002410000024B4000024B4
:10A5F00080B400AF00231846BD465DF8047B704769
:10A6000080B400AF00231846BD465DF8047B704758
:10A6100080B59AB000AF03460A46FB711346BB7182
:10A620000121634800F0C3FC034687F86330604BA8
:10A63000D3F8BC32FB6500237B660CE0FA6D7B6EC1
:10A640001344197807F114027B6E13440A461A70FA
:10A650007B6E01337B6697F863307A6E9A42EDDB4E
:10A6600097F863309AB207F1140319465048FEF781
:10A67000E1FA07F11403BB65BA6D07F10C0392E828
:10A68000030083E8030007F10C031A683B69DB430E
:10A690009A422AD1474B1B781A4613465B00134453
:10A6A0009B02454A1344454A1360082387F85630F5
:10A6B000424B186897F85630BA6DD11897F8563053
:10A6C000C3F140031A4601F09EFD3C4B1B6897F80E
:10A6D0005620C2F140021344384A1360384B01221D
:10A6E0001A70384B00221A7053E0364B1B78002B3F
:10A6F0004FD1082387F85730304B186897F85730F8
:10A70000BA6DD11897F85730C3F140031A4601F0DB
:10A710007AFD2A4B1B6897F85720C2F14002134478
:10A72000264A1360234B1B785A1C13465B001344C4
:10A730009B02214A1A44214B1B689A4202D26FF0B5
:10A74000010330E01E4B1B780133DAB21C4B1A7048
:10A750001B4B1B78302B1CD1164B1B780133DAB204
:10A76000144B1A70134B1B78072B02D9114B002284
:10A770001A70144B01221A70134B1B780133DAB292
:10A78000114B1A70104B1B78082B02D90E4B00226C
:10A790001A700748FEF75CFB0346002B02D04FF00F
:10A7A000FF3300E0002318466837BD4680BD00BF78
:10A7B0009C03002478660024780600247C6600242C
:10A7C000796600248C0000247A66002480B483B06B
:10A7D00000AF03463960FB713B6812221A80034BBD
:10A7E00018460C37BD465DF8047B7047E400002432
:10A7F00080B483B000AF03463960FB713B6804222C
:10A800001A80034B18460C37BD465DF8047B704731
:10A81000F800002480B582B000AF03463960FB71B8
:10A82000FB79002B05D13A6807490848FFF7CEFDB0
:10A8300004E03A6804490548FFF7C8FD024B184692
:10A840000837BD4680BD00BF8066002410F70008B1
:10A8500080B582B000AF03463960FB713A680449A5
:10A860000448FFF7B3FD024B18460837BD4680BDCC
:10A870008066002430F7000880B582B000AF034640
:10A880003960FB713B681A221A8000F043F8024BD2
:10A8900018460837BD4680BDFC00002480B582B054
:10A8A00000AF03463960FB71FB79002B05D13A6894
:10A8B00007490848FFF78AFD04E03A68044905485B
:10A8C000FFF784FD024B18460837BD4680BD00BF28
:10A8D0008066002444F7000880B582B000AF0346CC
:10A8E0003960FB71FB79002B05D13A6807490848AC
:10A8F000FFF76CFD04E03A6804490548FFF766FD80
:10A90000024B18460837BD4680BD00BF8066002454
:10A9100058F7000880B584B000AF0F4B1B68FB6090
:10A920000E4B1B68BB600E4B1B687B60FA687B6834
:10A930001344FB60FB68002B09D008220949F86822
:10A9400000F014F804220849B86800F00FF800BFBE
:10A950001037BD4680BD00BF00E8F11F04E8F11FBD
:10A9600008E8F11FFE0000240E01002480B487B027
:10A9700000AFF860B9601346FB710023FB7500233C
:10A98000FB7527E0FB681B0F092B0BD8FB681B0F1F
:10A99000DAB2FB7D5B001946BB680B443032D2B2A1
:10A9A0001A700AE0FB681B0FDAB2FB7D5B001946E8
:10A9B000BB680B443732D2B21A70FB681B01FB60D4
:10A9C000FB7D5B000133BA68134400221A70FB7DE3
:10A9D0000133FB75FA7DFB799A42D3D300BF00BFE8
:10A9E0001C37BD465DF8047B7047000080B5BAB0E7
:10A9F00000AF786007F1D40300221A605A609A60B1
:10AA0000DA601A6107F11003C0220021184601F034
:10AA10007BFB7B681B682C4A934251D14FF4802208
:10AA20004FF00003C7E904234FF44013C7F89830F0
:10AA300007F110031846F9F765FC0346002B01D017
:10AA4000F6F7C6FAF8F768FC204BD3F8E0301F4A57
:10AA500043F00103C2F8E0301C4BD3F8E03003F0C0
:10AA60000103FB60FB684FF4C053C7F8D4300223E6
:10AA7000C7F8D8300023C7F8DC300023C7F8E0302F
:10AA80000A23C7F8E43007F1D40319461048F6F753
:10AA90006FFF0E4BD3F8D8300C4A43F00063C2F876
:10AAA000D8300A4BD3F8D83003F00063BB60BB68E2
:10AAB000002200216520F6F7AAFE6520F6F7C1FE08
:10AAC00000BFE837BD4680BD000008400044025882
:10AAD0000000025880B582B000AF78607B68D3F880
:10AAE00008257B6803F2C44319461046FEF7DFFAD7
:10AAF00000BF0837BD4680BD80B582B000AF78602A
:10AB00000B46FB707B68D3F80805FA787968134622
:10AB1000DB0013449B000B4403F522731A68FB7897
:10AB20001946FEF719FB00BF0837BD4680BD80B54A
:10AB300082B000AF78600B46FB707B68D3F80805E5
:10AB4000FA7879681346DB0013449B000B444833C2
:10AB50001A68FB781946FEF7B2FB00BF0837BD46FE
:10AB600080BD80B582B000AF78607B68D3F80835CF
:10AB70001846FEF7ECFC00BF0837BD4680BD80B527
:10AB800084B000AF78600123FB737B681B69002BE6
:10AB900002D10023FB7308E07B681B69022B02D102
:10ABA0000123FB7301E0F6F713FA7B68D3F808354D
:10ABB000FA7B11461846FEF786FC7B68D3F8083509
:10ABC0001846FEF72EFC00BF1037BD4680BD0000C2
:10ABD00080B582B000AF78607B68D3F8083518463E
:10ABE000FEF781FC7B681B6803F560631B687A686D
:10ABF000126802F5606243F0010313607B681B6A10
:10AC0000002B05D0044B1B69034A43F00603136174
:10AC100000BF0837BD4680BD00ED00E080B582B0C2
:10AC200000AF78607B68D3F808351846FEF777FCEC
:10AC300000BF0837BD4680BD80B582B000AF7860E8
:10AC40000B46FB707B68D3F80835FA781146184636
:10AC5000FEF7CFFC00BF0837BD4680BD80B582B08F
:10AC600000AF78600B46FB707B68D3F80835FA7844
:10AC700011461846FEF78BFC00BF0837BD4680BD65
:10AC800080B582B000AF78607B68D3F8083518468D
:10AC9000FEF7E1FC00BF0837BD4680BD80B582B03D
:10ACA00000AF78607B68D3F808351846FEF7DEFC05
:10ACB00000BF0837BD4680BD80B582B000AF786068
:10ACC0007B681B78002B3ED1214A7B68C2F808358F
:10ACD0007B681F4AC3F8C8221D4B1E4A1A601C4BD2
:10ACE00009225A601A4B02221A61194B0022DA60BB
:10ACF000174B02229A61164B0022DA61144B002294
:10AD00001A62134B00225A62114B00229A62104BB6
:10AD10000022DA620E4B00221A630D48F7F709F899
:10AD20000346002B01D0F6F753F980210848F8F7C5
:10AD300078FA402200210648F8F72CFA80220121F7
:10AD40000348F8F727FA002318460837BD4680BDA8
:10AD5000806800240000084080B584B000AF7860AF
:10AD60000023FB730023BB737B68D3F8C8321846FB
:10AD7000F7F703F90346FB73FB7B184600F042F933
:10AD80000346BB73BB7B18461037BD4680BD80B5FC
:10AD900084B000AF7860084611461A460346FB703F
:10ADA0000B46BB7013463B800023FB730023BB7331
:10ADB0007B68D3F8C802BB783A88F978F7F703FEC6
:10ADC0000346FB73FB7B184600F01CF90346BB737C
:10ADD000BB7B18461037BD4680BD80B584B000AF40
:10ADE00078600B46FB700023FB730023BB737B680A
:10ADF000D3F8C832FA7811461846F7F74CFE0346E6
:10AE0000FB73FB7B184600F0FDF80346BB73BB7B6E
:10AE100018461037BD4680BD80B584B000AF78605D
:10AE20000B46FB700023FB730023BB737B68D3F8D6
:10AE3000C832FA7811461846F7F706FF0346FB7347
:10AE4000FB7B184600F0DEF80346BB73BB7B18465D
:10AE50001037BD4680BD80B584B000AF78600B462A
:10AE6000FB700023FB730023BB737B68D3F8C832ED
:10AE7000FA7811461846F7F74BFF0346FB73FB7B46
:10AE8000184600F0BFF80346BB73BB7B184610376B
:10AE9000BD4680BD80B485B000AF78600B46FB70C6
:10AEA0007B68D3F8C832FB6097F90330002B0BDACC
:10AEB000FB7803F07F02F9681346DB0013449B0024
:10AEC0000B443E331B780BE0FB7803F07F02F968FC
:10AED0001346DB0013449B000B4403F27E231B78D4
:10AEE00018461437BD465DF8047B704780B584B0C2
:10AEF00000AF78600B46FB700023FB730023BB732D
:10AF00007B68D3F8C832FA7811461846F7F736FD51
:10AF10000346FB73FB7B184600F074F80346BB73D3
:10AF2000BB7B18461037BD4680BD80B586B000AFEC
:10AF3000F8607A603B600B46FB720023FB750023D0
:10AF4000BB75FB68D3F8C802F97A3B687A68F7F7F3
:10AF500040FE0346FB75FB7D184600F053F80346A0
:10AF6000BB75BB7D18461837BD4680BD80B586B021
:10AF700000AFF8607A603B600B46FB720023FB7504
:10AF80000023BB75FB68D3F8C802F97A3B687A687E
:10AF9000F7F7CBFD0346FB75FB7D184600F032F852
:10AFA0000346BB75BB7D18461837BD4680BD80B5CE
:10AFB00082B000AF78600B46FB707B68D3F8C83274
:10AFC000FA7811461846F7F7ECFD0346184608379D
:10AFD000BD4680BD80B483B000AF7860034B184697
:10AFE0000C37BD465DF8047B704700BF8C6D0024B4
:10AFF00080B483B000AF786000BF0C37BD465DF809
:10B00000047B704780B485B000AF0346FB7100231A
:10B01000FB73FB79032B17D801A252F823F000BF72
:10B0200031B0000837B000083DB0000843B0000858
:10B030000023FB730BE00323FB7308E00123FB7386
:10B0400005E00323FB7302E00323FB7300BFFB7BDC
:10B0500018461437BD465DF8047B7047F0B52DEDFA
:10B06000028BB0EE408B85B017460D9D0C9E18EEFE
:10B07000902A25F02005002AB6BF2D220022B1EE2D
:10B08000408B462D0C461A7004D0452D00D101345A
:10B09000022100E0032103AB019302AB009322469F
:10B0A0003346B0EE480B01F04BF9472D01D1FB07B9
:10B0B0001AD5462D00EB04020CD10378302B07D1B2
:10B0C000B5EE408BF1EE10FA1CBFC4F10104346000
:10B0D00033681A44B5EE408BF1EE10FA08BF0392C4
:10B0E0003021039B934207D3039B0E9A1B1A1360D4
:10B0F00005B0BDEC028BF0BD5C1C03941970F0E749
:10B10000F7B503460029B8BF494203F8022BB4BF84
:10B110002D222B22092942702ADD0DF10702174644
:10B120000A26944691FBF6F506FB151430340CF80C
:10B13000014C0C46632C02F1FF322946F1DC303120
:10B14000ACF1020402F8011C411C2246BA420AD3A7
:10B150000DF10902A2EB0C02BC4288BF002213448D
:10B16000181A03B0F0BD12F8015B01F8015FEDE7BA
:10B17000302330318370C170031DF1E700000000FF
:10B180002DE9F04F8BB00C46DDF8508016461F4677
:10B19000054600F0C1FFD0F800B05846F5F7F0F8CA
:10B1A00000230893D8F8003094F8189022680733E9
:10B1B00023F0070303F10801C8F8001093ED000B1A
:10B1C0009FED976BB0EEC07BB4EE467BF1EE10FACC
:10B1D00084ED120B824624DDB5EEC00BF1EE10FAC1
:10B1E00002D52D2384F843308F49904BB9F1470F96
:10B1F00094BF884698460323236122F0040200236B
:10B20000226004930097334609AA2146284600F09D
:10B21000D1F9013040F08A804FF0FF300BB0BDE82B
:10B22000F08FB4EE400BF1EE10FA09D710EE903A21
:10B23000002BBCBF2D2384F843307D497D4BD5E7DF
:10B24000636809F0DF010491591C3CD10623636057
:10B250000023039308ABCDE9019342F4806207AB6E
:10B260006168009322600DF11B032846FFF7F6FE8C
:10B27000049B0799472B804608D1C81C02DB6368F2
:10B28000994241DDA9F102095FFA89F9B9F1650F27
:10B2900020D801394A4604F150000791FFF730FFEA
:10B2A000089A04901318012A236102DC2268D2074D
:10B2B00001D5013323619DF81B30002BA2D02D2333
:10B2C00084F843309EE704994729C1D1002BBFD1B0
:10B2D0000123BCE7B9F1660F18D1002963680BDDC3
:10B2E000216113B92268D00702D501330B442361D1
:10B2F0000023A1650493DEE713B92268D20701D5C4
:10B300000233F4E70123F2E74FF06709089B994203
:10B3100005DB23682161D807EAD54B1CE7E7002944
:10B32000D4BFC1F1020201221344E0E723685A05A9
:10B3300007D42369424631462846B84701302AD10E
:10B340006AE7B9F1650F40F2E08094ED127BB5EE4B
:10B35000407BF1EE10FA33D1374A012331462846BB
:10B36000B84701303FF458AFDDE907239A4202DBCA
:10B370002368D8070FD553465A4631462846B84762
:10B3800001303FF449AF4FF0000804F11A09089B5F
:10B39000013B434509DC23689B0700F10681E06817
:10B3A000099B9842B8BF184638E701234A46314600
:10B3B0002846B84701303FF42FAF08F10108E6E70F
:10B3C000079B002B3ADC1C4A012331462846B8472C
:10B3D00001303FF421AFDDE90732134302D1236886
:10B3E000D907D8D553465A4631462846B847013082
:10B3F0003FF412AF4FF0000904F11A0A079B5B42B9
:10B400004B4501DC089B95E701235246314628460F
:10B41000B84701303FF400AF09F10109EEE700BF82
:10B42000FFFFFFFFFFFFEF7FA8F70008ACF7000862
:10B43000B0F70008B4F70008B8F70008089AA36D41
:10B440009A42A8BF1A46002A914638DC0023059389
:10B4500029EAE97904F11A02A36D05990493A3EB93
:10B4600009038B4233DCDDE907239A423CDB236886
:10B47000DA0739D4DDE90732A2EB0309049BD21ABB
:10B480009145A8BF9146B9F1000F35DC4FF0000897
:10B4900029EAE97904F11A0ADDE907239B1AA3EBEB
:10B4A000090343457FF777AF0123524631462846CB
:10B4B000B84701303FF4B0AE08F10108ECE713469D
:10B4C000314642462846B8470130BFD1A4E60123A1
:10B4D000314628460492B84701303FF49DAE059BA3
:10B4E000049A01330593B7E753465A463146284636
:10B4F000B8470130BED18FE6049A4B4642443146EC
:10B500002846B8470130C1D186E6089A012A01DCF5
:10B51000DB0737D50123424631462846B84701307C
:10B520003FF47AAE53465A4631462846B847013072
:10B530003FF472AE94ED127BB5EE407BF1EE10FA63
:10B54000089B1AD0013B08F1010231462846B84752
:10B5500001300ED160E601234A4631462846B847FD
:10B5600001303FF459AE08F10108089B013B434507
:10B57000F1DC049B04F15002DDE64FF0000804F119
:10B580001A09F2E701234246DFE701234A46314622
:10B590002846B84701303FF43FAE08F10108E368A0
:10B5A00009995B1A4345F0DCF9E64FF0000804F115
:10B5B0001909F4E72DE9F047164699468A680B69A0
:10B5C000DDF820809342B8BF1346336091F84320E2
:10B5D00007460C460AB1013333602368990642BF1F
:10B5E000336802333360256815F0060506D104F18F
:10B5F000190AE36832689B1AAB4226DC94F84320B0
:10B60000131E226818BF012392062BD404F14302B3
:10B6100049463846C04701301ED02368226903F0EE
:10B620000603042B02BFE5683368ED1AA3680CBF5C
:10B6300025EAE57500259342C4BF9B1AED18002644
:10B640001A34B5421AD1002008E001235246494677
:10B650003846C047013003D14FF0FF30BDE8F087D6
:10B660000135C6E7E1185A1C302081F84300224416
:10B6700094F8451082F843100233C7E701232246AD
:10B6800049463846C0470130E6D00136D9E70000C8
:10B690002DE9FF470F7E0C9D782F914680460C4682
:10B6A0009A4601F1430207D8622F0AD8002F00F012
:10B6B000D480582F00F0C08004F1420584F8427015
:10B6C0003AE0A7F16303152BF6D801A151F823F056
:10B6D00029B700083DB70008B9B60008B9B6000898
:10B6E000B9B60008B9B600083DB70008B9B60008F9
:10B6F000B9B60008B9B60008B9B6000841B80008E4
:10B7000069B70008FBB70008B9B60008B9B6000869
:10B7100063B80008B9B6000869B70008B9B60008F0
:10B72000B9B6000803B800082B681A1D1B682A6008
:10B7300004F1420584F8423001239FE020682B6821
:10B74000070603F10401296001D51E6803E04606DF
:10B75000FBD5B3F90060002E03DA2D23764284F87E
:10B7600043305A480A2312E02B682068191D2960CB
:10B77000050601D51E6802E04106FBD51E88534828
:10B780006F2F0CBF08230A23002184F8431065683B
:10B79000A560002DA2BF216821F0040121600EB92F
:10B7A000002D4BD01546B6FBF3F103FB1167C75DC7
:10B7B00005F8017D3746BB420E46F4D9082B0BD164
:10B7C0002368DE0708D5236961689942DEBF30230C
:10B7D00005F8013C05F1FF35521B2261CDF800A0B0
:10B7E0004B4603AA21464046FFF7E4FE01304AD10A
:10B7F0004FF0FF3004B0BDE8F087236843F020032A
:10B8000023603348782784F84570236829681F0629
:10B8100051F8046B02D45F0648BFB6B2DF0748BFD9
:10B8200043F02003296048BF23601EB9236823F03A
:10B83000200323601023A7E72448E4E71546BDE76B
:10B840002B6826686169181D286035061B6801D5BC
:10B85000196002E07006FBD51980002323611546AC
:10B86000BCE72B681A1D2A601D6862680021284603
:10B87000F4F736FD08B1401B606063682361002364
:10B8800084F84330AAE723692A4649464046D04710
:10B890000130ADD023689B0713D4E068039B984226
:10B8A000B8BF1846A6E70123324649464046D0476E
:10B8B00001309DD00135E36803995B1AAB42F2DC9D
:10B8C000EBE7002504F11906F5E700BFBAF7000819
:10B8D000CBF700082DE9F04F87B0174603938B682C
:10B8E0005A1EB2F5AE7F83BF6FF4AE755B1902933B
:10B8F000002386BF40F25D138B6002930B688B467A
:10B90000002543F4F0634BF81C3BCDE90455804619
:10B910000C465E46AA46A9460195A26852B13B680C
:10B920001B784E2B64D8402B3CD8A3F12B01C8B216
:10B930000E283AD9B9F1000F03D0236823F480739D
:10B9400023600AF1FF3ABAF1010F00F213815E455C
:10B9500000F205810125284607B0BDE8F08FA3F16C
:10B9600061020D2AE6D801A151F822F0ABBA000815
:10B9700035B9000835B9000835B900080BBB000817
:10B98000E3BA000835B9000835B90008B9BA0008AB
:10B9900035B9000835B9000835B9000835B90008CF
:10B9A00071BA0008A3F14102DBE70E29C2D801A059
:10B9B00050F821F063BA000835B9000863BA0008EE
:10B9C000F7BA000835B9000811BA00084DBA0008E6
:10B9D0004DBA00084DBA00084DBA00084DBA00082B
:10B9E0004DBA00084DBA00084DBA00084DBA00081B
:10B9F0006E2B09D8602BB2D8542B77D0592B99D104
:10BA0000072D97D1082529E0742B6FD0792BF6E705
:10BA10002168C8051AD5029B21F08001216009F137
:10BA200001091BB1013B01320293A260A368013BF3
:10BA3000A3602369013323617B68013B002B7B609A
:10BA400040F384803B6801333B6066E71AEB050FE7
:10BA50007FF470AF226822F4C072226006F8013BC6
:10BA6000E4E7226810067FF565AF22F08002F4E774
:10BA7000BAF1000F0ED1B9F1000F0ED1226802F415
:10BA8000E061B1F5E06F08D122F4F06222604FF07E
:10BA9000010AE3E7BAF1020F55D0012D02D0042DBF
:10BAA0007FF448AF0135EDB2D8E7BAF1010F7FF46A
:10BAB00041AF4FF0020AD1E77DB9B9F1000F7FF431
:10BAC0003CAF226802F4E061B1F5E06F7FF439AF7A
:10BAD00022F4F06222600125C0E7032DE2D0052D9B
:10BAE000DEE7022D7FF426AF0325B7E7062D7FF4AE
:10BAF00021AF0725B2E7226891057FF51BAF22F43D
:10BB000020722260CDF80490A8E7226802F4A061B8
:10BB1000B1F5806F06D050057FF50CAFB9F1000F7D
:10BB20003FF40FAF910558BF019922F4F06258BF5E
:10BB3000A9EB010142F4C07258BFCDE9041622609E
:10BB40004FF000098AE74FF0030A87E7D4F8803105
:10BB500039464046984700283FF4DFAEEAE6D4F87D
:10BB60007C3116F8011D3A46404698472369013B4F
:10BB70002361ECE66B1E062B25D8022D36D85E45D8
:10BB80007FF6E8AED4F87C3116F8011D3A464046FF
:10BB900098472369013B2361F1E70298D4F87C318F
:10BBA00010F8011D02903A46404698472369013B30
:10BBB00023610AF1FF3A5FFA8AFABAF1020FECD177
:10BBC000033DEDB2761B2368DA052FD55B0510D552
:10BBD0005E457FF6BFAED4F87C3116F8011D3A46BB
:10BBE000404698472369013B2361F1E7AA46029644
:10BBF000DFE716F8011C2369652903F1FF3306F11D
:10BC0000FF3523610CD045290AD0D4F87C313A465F
:10BC100040469847236916F8021C013BB51E236174
:10BC2000D4F87C313A46404698472E46256815F0B0
:10BC300010054DD13570236803F4C063B3F5806FF0
:10BC40001AD1019B4B45A3EB090222D10022594690
:10BC5000404602F057FC039B21681B6811F0020F5D
:10BC600003F1040220D003990A601B6883ED000BE6
:10BC7000E3680133E3606EE6049B002BE6D0059990
:10BC80000A232A460131404602F0C4FC049B059E6B
:10BC9000C21A04F26F139E4228BF04F5B7760D490D
:10BCA000304600F039F9D1E711F0040F03990A602A
:10BCB000DBD1B4EE400BF1EE10FA1E6805D7064852
:10BCC00000F0B0FA86ED000AD2E7B7EEC00BF9E754
:10BCD000002540E6DCF700086DFB0008002310B5E6
:10BCE0000446C0E90033C0E90433836081814366C0
:10BCF000C2818361194608225C3000F005FA0D4BC1
:10BD000063620D4BA3620D4BE3620D4B23630D4B3E
:10BD100024629C4206D003F16802944202D0D033E0
:10BD20009C4205D104F15800BDE8104000F068BA0B
:10BD300010BD00BF59BF00087BBF0008B3BF00089B
:10BD4000D7BF0008E46D0024024A0349034800F00D
:10BD500069B800BF18010024D5E9000824010024B7
:10BD600041680C4B994210B5044601D002F032FEF6
:10BD7000A168094B994202D0204602F02BFEE168EF
:10BD8000064B994204D02046BDE8104002F022BE86
:10BD900010BD00BFE46D00244C6E0024B46E00247E
:10BDA00010B50B4B0B4C0C4A1A60204600220421A4
:10BDB000FFF794FF04F1680001220921FFF78EFFCD
:10BDC00004F1D0000222BDE810401221FFF786BF27
:10BDD0001C6F0024E46D002449BD0008014800F0F8
:10BDE00010BA00BF256F0024014800F00BBA00BF55
:10BDF000256F002410B50446FFF7F0FF236A1BB13E
:10BE0000BDE81040FFF7F0BF044B2362044B1B68F2
:10BE1000002BF5D1FFF7C4FFF2E700BF61BD0008BA
:10BE20001C6F00242DE9F843074688461446002677
:10BE3000D4E90195B9F1010905D52468002CF7D1A1
:10BE40003046BDE8F883AB89012B07D9B5F90E3030
:10BE5000013303D029463846C04706436835E9E731
:10BE6000036A70B5846805460E460BB9FFF7C2FF3A
:10BE7000636EDB0705D4A389980502D4A06D00F09A
:10BE8000C0F9A389190713D523698BB1013EA368B3
:10BE900016F8011F013BA360E9B9002B2EDA2246F8
:10BEA0000A21284600F09BF8013007D00A2507E058
:10BEB0002146284600F0D0F80028E7D04FF0FF35A3
:10BEC000636EDA0705D4A3899B0502D4A06D00F048
:10BED00099F9284670BD002B04DAA2699A4206DC63
:10BEE0000A2904D023685A1C22601970CFE7224621
:10BEF000284600F074F80130C9D1DFE723680A252D
:10BF00005A1C22601D70DBE7024B01461868FFF7E0
:10BF1000A7BF00BF700100240EB400B59CB01DABDC
:10BF2000029006906FF00041094807910491094979
:10BF300053F8042B05910068019302A902F0C6FB97
:10BF4000029B00221A701CB05DF804EB03B070472E
:10BF5000700100240802FFFF10B50C46B1F90E1065
:10BF600000F000F90028ABBF636DA3891B1823F410
:10BF70008053ACBF6365A38110BD2DE9F0411F461E
:10BF80008B89DB0505460C46164605D5B1F90E1022
:10BF90000223002200F0D4F8A389B4F90E1023F490
:10BFA0008053A38132463B462846BDE8F04100F06D
:10BFB000EBB810B50C46B1F90E1000F0C1F8431CF7
:10BFC000A38915BF606523F4805343F48053A38194
:10BFD00018BFA38110BDB1F90E1000F0A1B8F8B5DB
:10BFE0000E461446054618B1036A0BB9FFF702FF67
:10BFF000A369A360A3891A0725D523691BB3236806
:10C000002269981A6369F6B28342374604DC2146F6
:10C01000284602F0DFFCE0B9A368013BA360236877
:10C020005A1C22601E706269431C9A4204D0A38984
:10C03000DB0706D50A2E04D12146284602F0CAFCA9
:10C0400038B93846F8BD2146284600F005F80028E2
:10C05000D5D04FF0FF37F4E738B52A4B05461868BE
:10C060000C4618B1036A0BB9FFF7C4FEA389B4F9F3
:10C070000C20180722D4D90607D409232B6042F0DC
:10C080004003A3814FF0FF3034E0580712D5616BB5
:10C0900041B104F14403994202D0284600F0BCFEAD
:10C0A00000236363A38923F02403A3810023636037
:10C0B00023692360A38943F00803A38123694BB953
:10C0C000A38903F42073B3F5007F03D021462846EB
:10C0D00002F0CEFCA089B4F90C2010F001030AD0C4
:10C0E0000023A36063695B42A361236943B910F035
:10C0F0008000C4D138BD810758BF6369A360F4E7ED
:10C100000020F7E77001002402440346934200D167
:10C11000704703F8011BF9E70048704764020024E8
:10C1200038B5064D0023044608462B60F4F7FFFFA0
:10C13000431C02D12B6803B1236038BD206F00245B
:10C1400038B5074D04460846114600222A601A46B3
:10C15000F5F714F8431C02D12B6803B1236038BDF6
:10C16000206F002438B5074D0446084611460022CA
:10C170002A601A46F4F7A2FF431C02D12B6803B1D0
:10C18000236038BD206F002438B5074D04460846AB
:10C19000114600222A601A46F4F7ADFF431C02D173
:10C1A0002B6803B1236038BD206F0024014B186851
:10C1B000704700BF7001002470B50D4D0D4C641B1D
:10C1C000A4100026A64209D10B4D0C4C03F076FAC0
:10C1D000641BA4100026A64205D170BD55F8043B8F
:10C1E00098470136EEE755F8043B98470136F2E7E9
:10C1F000D8FB0008D8FB0008D8FB0008DCFB0008CF
:10C200007047704770470A44914200F1FF3300D1F4
:10C21000704710B511F8014B03F8014F9142F9D165
:10C2200010BD00009FED010A704700BF0000C07FF5
:10C230002DE9F74F03690C69A34207467EDB013CF9
:10C2400001F1140800F1140505EB8403019358F87B
:10C25000243055F8242001339A424FEA840B08EB2E
:10C260008409B2FBF3F631D34FF0000E4046AC46E2
:10C27000F24650F8042B93B206FB03E34FEA124E4A
:10C280001A0C9BB2AAEB0303DCF800A013FA8AF3A2
:10C2900006FB0E220093009B4FEA124E92B2C2EBB5
:10C2A0001A4202EB2342BDF80030814543EA0243C3
:10C2B0004CF8043B4FEA224ADBD255F80B302BB93D
:10C2C000019B043B9D421A462CD33C61384601F049
:10C2D00069F9002822DB01362946002058F8042B92
:10C2E000D1F800C093B2C31A120C13FA8CF3C2EB4C
:10C2F0001C4202EB23429BB243EA0243C14541F890
:10C30000043B4FEA2240E9D255F8242005EB840390
:10C3100022B9043B9D421A460AD33C61304603B021
:10C32000BDE8F08F1268043B002ACED1013CC9E77A
:10C330001268043B002AF0D1013CEBE70020EEE755
:10C340002DE9F04F2DED028BC56991B08DED020BFB
:10C3500059EC108B1C9C0691064608920C9375B9FB
:10C36000102000F0A5FD0246F06120B9A64BEF2198
:10C37000A64802F021FCC0E901550560C560F369DB
:10C38000196851B15A684A60012393408B60304666
:10C3900000F082FEF36900221A60B9F10003BBBF0E
:10C3A00023F00043039300230122ACBF23602260EB
:10C3B000974B039CA3431CD10C9A42F20F7313605A
:10C3C000C4F3130353EA080300F0FB841D9B63B915
:10C3D000904B20E0904B019308331D9A1360019815
:10C3E00011B0BDEC028BBDE8F08F8A4B0193033393
:10C3F000F3E79DED028BB5EE408BF1EE10FA0CD118
:10C400000C9A012313601D9B002B00F0D784834BF3
:10C410001D9A1360013B0193E1E70EAA0FA9304674
:10C42000B0EE480B01F0D4F9C4F30A530E9A054656
:10C43000002B46D0B0EE487B18EE901AC1F31301E2
:10C4400041F07F5141F44011A3F2FF33002007EE89
:10C45000901AB7EE086B9FED665B37EE467B9FED5B
:10C46000666BA7EE056B9FED665B07EE903AB8EE44
:10C47000E74BB0EE467BA4EE057BFDEEC76BB5EE59
:10C48000C07BF1EE10FA16EE90BA099008D5B8EE1E
:10C49000E66BB4EE476BF1EE10FA18BF0BF1FF3B01
:10C4A000BBF1160F2BD85E4901EBCB0191ED007B60
:10C4B000B4EEC78BF1EE10FA01D50BF1FF3B002172
:10C4C0001EE00F9B134403F232412029C1BFC1F18A
:10C4D00040018C4003F2124128FA01F1D6BFC1F1AC
:10C4E0002001214308FA01F107EE901AB8EE677BAC
:10C4F000013B17EE901A0120A1F1F871A7E7012185
:10C50000D21A531E059345BFC2F1010304930023C1
:10C5100000234CBF05930493BBF1000F0B9118DB74
:10C52000059BCDF828B05B4405930023069A092AA1
:10C5300048D8052AC4BF043A0692069AA2F102021C
:10C54000CCBF00240124032A47D8DFE802F00B2DDA
:10C550002B39049B0022A3EB0B0304930A92CBF12B
:10C560000003E3E700220792089A002A38DC4FF024
:10C57000010AD1465246CDF820A0F76900210420D7
:10C5800000F1140C944530D9796030460D9300F0D9
:10C5900043FD0D9B01900246002845D1214B40F2FE
:10C5A000AF11E5E60122DEE700220792089A0BEBC5
:10C5B000020A0AF101094A46012AB8BF0122DCE752
:10C5C0000122F2E701240022CDE906244FF0FF3AD0
:10C5D0000021D14612220891CFE701220792F5E708
:10C5E000DDF820A0D1465246C7E701314000C7E739
:10C5F00061436F63A787D23FB3C8608B288AC63F69
:10C60000FB799F501344D33FEEF7000805F800086C
:10C610000000F07FEAF70008E1F70008B9F700082A
:10C62000F0F800085DF80008F26901991160B9F1AD
:10C630000E0F6CD8002C6AD0BBF1000F40F3A08025
:10C64000C14A0BF00F0102EBC1021BF4807F92ED97
:10C65000007B4FEA2B1200F08780BC4991ED086BFC
:10C6600088EE066B8DED026B02F00F020321B748D6
:10C67000002A7BD19DED026B86EE077B8DED027B60
:10C680000B9A9DED027B002A00F0A080B7EE006BB4
:10C69000B4EEC67BF1EE10FA40F19880B9F1000FCC
:10C6A00000F09480BAF1000F2FDDB2EE046B27EE9C
:10C6B000067B8DED027B0BF1FF32013154469DED7F
:10C6C000026BB1EE0C5B07EE901AB8EEE77BA7EEBB
:10C6D000065B15EE907A51EC150BA7F15071002C0A
:10C6E00077D1B1EE047B36EE476B41EC170BB4EE1D
:10C6F000C76BF1EE10FA00F36A82B1EE477BB4EE3D
:10C70000C76BF1EE10FA00F160828DED028B0F9A8B
:10C71000002AC0F21D81BBF10E0F00F319818A4B74
:10C7200003EBCB0393ED006B089B002B80F2B780EB
:10C73000B9F1000F00F3B38040F04682B1EE047B04
:10C7400026EE076B9DED027BB4EEC76BF1EE10FA9F
:10C750004C464F4680F21C82DDF80480312308F8F5
:10C76000013B0BF1010B18E2022180E7D40704D54D
:10C7700090ED006B013127EE067B5210083077E711
:10C7800022D0CBF10002704902F00F0001EBC00192
:10C7900091ED007B28EE077B8DED027B6B4812113B
:10C7A000002402212AB9002C3FF46AAF8DED027BF0
:10C7B00066E7D70705D590ED006B0131012427EE20
:10C7C000067B52100830EDE7022159E75A464C46E5
:10C7D00075E741EC170B5C4901EBC40111ED024B0D
:10C7E00001990C44079951B3B6EE003BB7EE002B0C
:10C7F000DDF8048083EE045BB2EE043B35EE477B4C
:10C80000FDEEC64B14EE901AB8EEE45B303136EE16
:10C81000456BB4EEC76BF1EE10FA08F8011B39D482
:10C8200032EE465BB4EEC75BF1EE10FA72D4A0456F
:10C830003FF46BAF27EE037B26EE036BE0E7DDF8FA
:10C84000048027EE047B2046B2EE043BFDEEC64B8F
:10C8500014EE901A303108F8011BA045B8EEE45BE5
:10C8600036EE456B18D1B6EE005B37EE054BB4EEF5
:10C87000C46BF1EE10FA4DDC35EE475BB4EEC56BE0
:10C88000F1EE10FA7FF541AF8046013818F8013C0F
:10C89000302BF9D093462AE026EE036BD6E79DEDC8
:10C8A000027BB2EE044BDDF8048087EE065BBDEE42
:10C8B000C55B15EE103A303308F8013B019BA8EB3D
:10C8C00003039945B8EEC53BA3EE467B33D137EE63
:10C8D000077BB4EEC67BF1EE10FA1ADCB4EE467BB1
:10C8E000F1EE10FA03D115EE103AD90711D429460A
:10C8F000304600F0D1FB00230C9A88F800300BF191
:10C90000010313601D9B002B3FF469ADC3F8008049
:10C9100065E55A464346984613F8011D392906D164
:10C9200001999942F7D101983021013201701978AB
:10C9300001311970AEE727EE047BB5EE407BF1EED6
:10C9400010FAB2D1D3E700BFF0F80008C8F8000829
:10C950000799002900F0D0800699012900F3B480DE
:10C960000999002900F0AC8002F23342DDF8108012
:10C970001C460993049B13440493059B0121134413
:10C980003046059300F088FC099B0746B8F1000F7C
:10C990000DD0059A002A0ADD42450499A8BF4246F7
:10C9A000891A04910599A8EB02088A1A059203B323
:10C9B000079A002A00F0A580002C13DD3946224694
:10C9C00030460D9300F028FD2A46014607463046C2
:10C9D00000F078FC29460990304600F05DFB099A8A
:10C9E0000D9B15461A1B04D02946304600F014FD55
:10C9F00005460121304600F04FFC0A9B002B0446FF
:10CA000040F381801A460146304600F005FD069B42
:10CA1000012B04467ADD00230993226904EB82028C
:10CA2000106900F0EBFBC0F12000059B184410F0EA
:10CA30001F0000F09380C0F12002042A40F385809B
:10CA4000049BC0F11C0003440493059B80440344F1
:10CA50000593049B002B05DD29461A46304600F05D
:10CA600035FD0546059B002B05DD21461A4630465F
:10CA700000F02CFD04460B9B002B71D0214628466C
:10CA800000F090FD00286BDA002329460A22304688
:10CA900000F024FB079B0BF1FF3B0546002B00F049
:10CAA0009781394600230A22304600F017FBBAF17D
:10CAB000000F074600F39380069B022B57DC8EE0A5
:10CAC0000E9AC2F1360251E709F1FF34A342BFBF0B
:10CAD000E21A0A9B9B180A93AEBF1C1B2346002434
:10CAE000B9F1000FB5BF049ADDF81080A2EB090878
:10CAF0004A46B8BF00223CE7DDF81080079F1C467D
:10CB000044E71A4670E7069B012B18DC029BB3B979
:10CB1000039BC3F31302A2B923F00042120D1205C6
:10CB20008AB1049B01330493059B013305930123D0
:10CB300009930A9B002B7FF470AF012075E7002357
:10CB4000F6E7029BF4E70992F3E782D0049B1C32DC
:10CB500013440493059B9044134479E70246F5E798
:10CB6000B9F1000F36DC069B022B33DDCA46BAF161
:10CB7000000F0DD1214653460522304600F0AEFA93
:10CB800001460446284600F00DFD00283FF7E4ADBD
:10CB9000089BDDF804806FEA030B4FF00009214683
:10CBA000304600F079FA002F3FF4A1AEB9F1000F42
:10CBB00005D0B94503D04946304600F06DFA3946F4
:10CBC000304600F069FA92E600242746E0E79346F3
:10CBD0002746C1E5079BCA46002B00F00081B8F14B
:10CBE000000F05DD39464246304600F06FFC07462F
:10CBF000099B002B5DD07968304600F00DFA804625
:10CC000028B9824B024640F2EF21FFF7B1BB3A69E7
:10CC10000232920007F10C010C30FFF7F4FA012206
:10CC20004146304600F052FC019B01330493019BC6
:10CC300053440893029B03F00103B9460793074648
:10CC4000049B2146013B28460293FFF7F1FA034675
:10CC50003033059049462846099300F0A3FC3A4634
:10CC600082462146304600F0B9FCC268099B8046E6
:10CC70000ABB0146284600F095FC099B0246414646
:10CC80003046CDE9093200F007FA069B0A9ADDF832
:10CC9000108043EA0201079B1943099B0DD1392BF0
:10CCA00029D0BAF1000F01DD059B3133029A1370D0
:10CCB00075E73846B8E70122E1E7BAF1000F06DB75
:10CCC000069941EA0A0A07995AEA010A20D1002A7C
:10CCD000ECDD294601223046049300F0F7FB2146A3
:10CCE000054600F05FFC0028049B02DCDED1DA0779
:10CCF000DCD5392BD8D1029A392313704346984694
:10CD0000013B18F8012C392A51D001321A7046E73C
:10CD1000002A03DD392BEED00133C7E7049A0899C6
:10CD200002F8013C8A422BD0294600230A223046D1
:10CD300000F0D4F9B94505464FF000034FF00A0260
:10CD40004946304607D100F0C9F981460746049BA1
:10CD50000133049374E700F0C1F93946814600239A
:10CD60000A22304600F0BAF90746F0E7BAF1000FA0
:10CD7000019ACCBFD0464FF0010890444FF0000913
:10CD8000294601223046029300F0A0FB21460546C9
:10CD900000F008FC0028B1DC02D1029BDB07ADD417
:10CDA0004346984613F8012D302AFAD0F7E6019A47
:10CDB0009A42A4D10BF1010B312378E7144BFFF712
:10CDC0002ABB1D9B002B7FF405AB124BFFF723BB47
:10CDD000BAF1000F03DC069B022B3FF7C8AEDDF86B
:10CDE000048021462846FFF723FA00F1300308F8B3
:10CDF000013B019AA8EB02029245B7DD29460023C8
:10CE00000A22304600F06AF90546EAE75DF80008B4
:10CE1000B8F70008E1F7000837B5002944D051F809
:10CE2000043C0190002BA1F10404B8BFE41800F009
:10CE3000E7F81E4A0198136833B96360146003B0C1
:10CE4000BDE8304000F0E2B8A34208D92568611976
:10CE50008B4201BF19685B6849192160EDE71A46EA
:10CE60005B680BB1A342FAD911685518A5420BD1E2
:10CE7000246821445418A3421160E0D11C685B6807
:10CE800053600C441460DAE702D90C230360D6E740
:10CE9000256861198B4204BF19685B68636004BF31
:10CEA000491921605460CAE703B030BD286F0024DF
:10CEB000024B0146186800F023B800BF700100243F
:10CEC00070B50E4E0C463168054611B901F05AFE98
:10CED00030602146284601F055FE431C0AD0C41C90
:10CEE00024F00304A04207D0211A284601F04AFE8C
:10CEF000013001D14FF0FF34204670BD2C6F00246B
:10CF00002DE9F843CD1C25F0030508350C2D38BF5D
:10CF10000C25002D074601DBA94205D90C233B60F7
:10CF200000263046BDE8F883DFF8D08000F068F8CE
:10CF3000D8F800301C465CBB29463846FFF7C0FFD6
:10CF4000431C044655D1D8F800402646002E45D152
:10CF5000002C48D023683146384604EB030901F021
:10CF600011FE81453FD121686D1A29463846FFF7E9
:10CF7000A7FF013037D023682B442360D8F8003056
:10CF8000002B38D05A68A2422BD100225A600FE001
:10CF90002268521B1FD40B2A17D96119A34225609E
:10CFA00018BF5960636808BFC8F8001062514B6031
:10CFB000384604F10B0600F029F826F00706231D79
:10CFC000F21AAED09B1BA350ABE7A3426268DDD13F
:10CFD000C8F80020ECE723466468ACE7344676687E
:10CFE000B4E71346CCE70C233B60384600F00EF85C
:10CFF00097E72560DCE75B60FFDE00BF286F002459
:10D000000148FFF7FEB800BF246F00240148FFF776
:10D01000F9B800BF246F002470B5C66904460D46F8
:10D0200076B91020FFF744FF0246E06120B9184BA3
:10D0300018486B2101F0C0FDC0E901660660C660BA
:10D04000E669F36883B1E369DB6853F82500B8B992
:10D05000012101FA05F6721D9200204601F0CAFD79
:10D0600060B1C0E901560EE021220421204601F002
:10D07000C1FDE369F060DB68002BE4D1002070BDE6
:10D08000026843F825200023C0E90333F7E700BF17
:10D09000EEF700086EF8000870B5C66905460C4644
:10D0A00076B91020FFF704FF0246E86120B9094B6A
:10D0B00009488F2101F080FDC0E901660660C66065
:10D0C0003CB1EB696268DB6853F82210216043F8D9
:10D0D000224070BDEEF700086EF800082DE9F0411F
:10D0E0000D6907460C461E4601F1140C0020DCF8C1
:10D0F000003099B202FB01611E0C0B0C02FB0633DF
:10D1000089B2013001EB034185424CF8041B4FEA20
:10D110001346ECDC0EB3A368AB4219DC61683846F9
:10D120000131FFF779FF804628B902460C4B0D48C4
:10D13000BA2101F041FD2269023204F10C01920092
:10D140000C30FFF760F821463846FFF7A5FF44464C
:10D1500004EB850301355E6125612046BDE8F08161
:10D160005DF800086EF800082DE9F8430C461546F6
:10D170001F4609220833064693FBF2F300210122E1
:10D180009A4209DB3046FFF747FF40B90246194B88
:10D190001948D32101F010FD52000131F0E7089B3E
:10D1A0004361092D4FF00103036116DD04F1090904
:10D1B000C8462C4418F8013B0146303B0A22304651
:10D1C000FFF78CFFA045F5D1A5F108044C442D1BB9
:10D1D0006319BB4204DBBDE8F8830A340925F6E78E
:10D1E00014F8013B0146303B0A223046FFF776FF38
:10D1F000EEE700BF5DF800086EF80008030C1B04A2
:10D20000D3B90004102310F07F4F04BF000208338D
:10D2100010F0704F04BF0001043310F0404F04BF02
:10D2200080000233002805DB10F0804F03F101037A
:10D2300008BF2023184670470023E4E7036813F073
:10D2400007020CD0D90722D49A0749BF5B089B0874
:10D25000036001225CBF036002221046704799B24E
:10D2600009B91B0C1022D9B209B908321B0A1907D7
:10D2700004BF1B090432990704BF9B080232D90777
:10D2800003D45B0802F1010203D00360E5E700224A
:10D29000E3E72022E1E7000010B50C460121FFF78B
:10D2A000BBFE024628B9054B054840F2451101F086
:10D2B00083FC01234461036110BD00BF5DF80008D9
:10D2C0006EF800082DE9F04F91460A69D9F8103040
:10D2D0009A42B8BF0B460C46BCBF4C4699462769DC
:10D2E000D9F810A0A368616807EB0A06B34285B0BD
:10D2F000B8BF0131FFF790FE30B90246444B4548B4
:10D300004FF4B17101F058FC00F1140505EB8608EB
:10D310002B460022434521D304F1140303EB870776
:10D3200009F1140303EB8A0202923A1B153A22F028
:10D330000302043204F115018F4238BF0422019226
:10D34000029A03939A420CD8002E03DD58F8043D4C
:10D35000002B5BD0066105B0BDE8F08F43F8042BCD
:10D36000D8E7B3F800A0BAF1000F24D004F1140EEE
:10D37000A9464FF0000C5EF8042BD9F800101FFAF4
:10D3800082FB89B20AFB0B114FEA124BD9F800203D
:10D3900061444FEA124C0AFB0BC202EB114289B204
:10D3A00041EA0241774549F8041B4FEA124CE2D8A2
:10D3B000019A45F802C0039AB2F802900433B9F119
:10D3C000000F21D0296804F1140CAE464FF0000A7A
:10D3D000BCF800B0BEF8022009FB0B22524489B20F
:10D3E00041EA02414EF8041B5CF8041B4FEA114A63
:10D3F000BEF8001009FB0A1101EB124167454FEA24
:10D40000114AE5D8019AA950043599E7013E9BE7F6
:10D410005DF800086EF800082DE9F843154612F093
:10D42000030206460F4607D0254C013A002354F864
:10D430002220FFF753FE0746AD103DD0F4697CB9BA
:10D440001020FFF735FD0246F06128B91D4B1E483C
:10D4500040F2B31101F0B0FBC0E901440460C460C4
:10D46000D6F81C80D8F808404CB940F271213046FB
:10D47000FFF712FF0023C8F80800044603604FF0CE
:10D480000009EB070AD5394622463046FFF71AFF56
:10D49000394680463046FFF7FFFD47466D100BD0FA
:10D4A000206838B9224621463046FFF70BFF20603E
:10D4B000C0F800900446E4E73846BDE8F88300BFB2
:10D4C000B8F90008EEF700086EF800082DE9F047FB
:10D4D0000C464968236903EB6218A3680746914626
:10D4E0004FEA621A08F10106B3420BDB3846FFF738
:10D4F00093FD054648B90246284B29484FF4EF7181
:10D5000001F05AFB01315B00EEE7002300F114014A
:10D5100000F110021846534533DB20692AEAEA7A03
:10D5200004F1140319F01F0901EB8A0103EB800CCD
:10D530002BD0C9F1200E8A460022186800FA09F0A3
:10D5400010434AF8040B53F8042B9C4522FA0EF2C0
:10D55000F3D8ACEB0403153B23F00303043304F1CD
:10D560001500844538BF0423CA500AB108F10206E9
:10D57000013E38462E612146FFF78EFD2846BDE864
:10D58000F08742F8040F0133C5E7043953F8042B40
:10D5900041F8042F9C45F9D8EAE700BF5DF8000880
:10D5A0006EF8000830B502690C69121B0ED100F14B
:10D5B0001403143103EB840001EB840150F8045D83
:10D5C00051F8044DA54203D005D30122104630BDC9
:10D5D0008342F3D3FAE74FF0FF32F7E72DE9F84F34
:10D5E0000C460646114620469046FFF7DBFF051E17
:10D5F00010D129463046FFF70FFD30B93A4B0246AD
:10D6000040F23721394801F0D7FA0123C0E9043547
:10D61000BDE8F88FA4BF4346A0463046D8F80410B2
:10D62000A6BF1C4600250125FFF7F6FC20B92E4BAE
:10D63000024640F24521E5E7D8F810702669C5603A
:10D6400004F1140908F1140500F1140E05EB870C20
:10D6500009EB860608F11002F246002159F8043B56
:10D6600052F804BF11FA8BF899B21B0CA8EB010811
:10D67000C3EB1B4303EB28431FFA88F819144E45EC
:10D6800048EA03434AF8043BE8D8331B153B23F030
:10D69000030304331534A64238BF04231D447344E6
:10D6A0009E462E4666450ED30CF10302521B22F015
:10D6B0000302033DAC4538BF0022134453F8042D48
:10D6C0007AB10761A4E756F8048B11FA88F21414B2
:10D6D00004EB184492B242EA04424EF8042B21149F
:10D6E000E0E7013FEAE700BF5DF800086EF80008D8
:10D6F00082B08DED000B019A0F4B1340A3F15073D4
:10D70000002B08DC5B42B3F1A07F4FEA235204DA1E
:10D710004FF400231341002208E0A2F114031E2B52
:10D72000DABF4FF00042DA400122002319461046CA
:10D7300041EC100B02B070470000F07F2DE9F04182
:10D74000066900F1140808EB8606371F56F8042C0A
:10D750001046FFF753FDC0F120030A280B601B4958
:10D7600015DCC0F10B0C22FA0CF3B84543EA0105B5
:10D7700034BF56F8083C0023153002FA00F023FAB3
:10D780000CF303431C4645EC104BBDE8F081B84553
:10D790003ABF56F8083CA6F1080700230B3812D010
:10D7A000C0F1200123FA01F482402243474542F0B0
:10D7B0007F558CBF57F8042C00228340CA4045F4A3
:10D7C00040151343DEE742EA0105DBE70000F03FC6
:10D7D0002DE9F7430F46012159EC108B1646FFF750
:10D7E0001BFC044630B90246244B254840F20F3159
:10D7F00001F0E2F9C9F30A55C9F313032DBB0193F4
:10D80000B8F1000326D068460093FFF717FDDDE965
:10D810000012E8B1C0F1200302FA03F30B43C24047
:10D8200063610192019BA361002B14BF02220122BC
:10D830002261BDB1A5F2334505443D60C0F135001C
:10D840003060204603B0BDE8F08343F48013D6E790
:10D850006161E7E701A8FFF7F1FC019B63612030FC
:10D860000122E5E704EB8203A0F232403860186938
:10D87000FFF7C4FCC0EB4210E2E700BF5DF8000810
:10D880006EF800082DE9F74F884669468146FFF794
:10D8900055FF01A9404655EC104B10EE10AAFFF7BA
:10D8A0004DFFD8F81030D9F81020D21ADDE9003138
:10D8B0005B1A03EB421357EC106B002BD6BFC3EB84
:10D8C00003332A463A46AB46D6BF02EB035302EB7C
:10D8D000035B00EE903A4BEC17AB87EE000B03B006
:10D8E000BDE8F08F013970B549111469013102F1B9
:10D8F000140300EB810103EB8404051FA3420CD346
:10D90000A31A113B23F003031132A24288BF002364
:10D9100018440023884205D370BD53F8046B45F8C2
:10D92000046FEBE740F8043BF4E700F114020069F0
:10D930004B11984210B511DB0ADD11F01F0107D021
:10D9400052F8234024FA01F000FA01F18C420BD185
:10D9500002EB8303934203D8002010BD0346F7E790
:10D9600053F8041D0029F5D00120F6E770B50446F0
:10D970000D46164645EC104BFFF7BAFE7EB1C5F3D7
:10D980000A53C3F16B03002B09DD1B0503F17F5123
:10D99000002001F5401141EC170B20EE070B70BD84
:10D9A0002DE9F04F2DED0E8B97B004460D9200221D
:10D9B00012928A464FF000084FF000090A46119271
:10D9C00011782B294CD039D80D2933D8082933D8D0
:10D9D00000293CD000220892119E3278302A40F073
:10D9E000B880727802F0DF02582A70D10293089B47
:10D9F000019312AB0093914A13AB11A9204601F099
:10DA000077F910F00F07054605D0062F2AD1013609
:10DA10000023119608930D9B002B40F05585089B21
:10DA200049EC108BCBB1B1EE400B17B0BDEC0E8BB7
:10DA3000BDE8F08F2029CDD10132C0E72D29C9D111
:10DA400001210891511C11915278002AC4D10D9BDB
:10DA5000CDF844A0002B40F0358549EC108BE4E76D
:10DA60000021EEE7129A3AB1352114A8FFF73AFFE8
:10DA700012992046FFF710FB7B1E139A042B06D841
:10DA8000DFE803F014031D201400DDE91489EB0521
:10DA900048BF49F0004929F000431B0D1B05002B2E
:10DAA000B9D1FEF783FB22230360B4E7DDE91483D9
:10DAB00002F2334223F4801343EA0259E7E7DFF826
:10DAC0008491E4E76FF000494FF0FF38DFE7119BE6
:10DAD0005A1C11925B78302BF9D0002B9BD001237C
:10DAE0000693119B09930023059307931E460A2270
:10DAF00011980578A5F13003D9B209292BD95049DD
:10DB0000012201F00BF8002835D000202A463346C8
:10DB100083460146652A01D0452A18D11BB9069BC8
:10DB2000034394D00023DDF844A00AF101021192CE
:10DB30009AF801202B2A75D02D2A7BD04FF0000EA9
:10DB4000A2F13005092D40F28380CDF844A00025D4
:10DB50009EE00023C4E7082ED5BF0799059902FB74
:10DB6000013302FB013300F10100D4BF0793059399
:10DB700001361190BCE7119B5A1C11925A78AEB332
:10DB800083463346A2F13001092912D90121C1E7A8
:10DB9000119B5A1C11925A780130302AF8D0A2F108
:10DBA0003103082B00F29584119B099383460020D2
:10DBB0000346303A00F1010112D08B4400EB030C14
:10DBC00019460A25614513D11918082903F10103E3
:10DBD00003441BDC07980A2101FB00220792002165
:10DBE000119A501C119052780846CBE73046D4E782
:10DBF000082901F1010103DC079F6F430797E1E763
:10DC00001029DEBF059F6F430597DBE7102BDFBFB1
:10DC100005980A2101FB00220592E0E74FF0000B76
:10DC200001217CE74FF0000E0AF1020211929AF8EE
:10DC3000022085E74FF0010EF6E700BFC8F90008A3
:10DC4000C4F900080000F07F119A551C1195527814
:10DC5000302AF9D0A2F13105082D3FF678AFA2F1B4
:10DC6000300C119A0A92119A551C11955278A2F112
:10DC70003007092F37D90A9FED1B082D44F61F6581
:10DC800002DC6545A8BF6546BEF1000F00D06D42BD
:10DC9000002B4DD1069B03437FF4BDAE00297FF4DA
:10DCA000D6AE692A27D024DC492A24D04E2A7FF414
:10DCB000CEAE954911A801F05BFA00283FF4C7AE3B
:10DCC000119B1B78282B2DD1904914AA11A801F083
:10DCD00063FA052826D1159BDDF8508043F0FF49F3
:10DCE00049F4E00997E60A2505FB0C2CACF1300C51
:10DCF000B9E76E2ADBE7864911A801F039FA002856
:10DD00003FF4A5AE119B8349013B11A8119301F08B
:10DD10002FFA10B9119B01331193DFF80C924FF0D9
:10DD2000000878E67C4800F03FFF59EC108B72E663
:10DD3000DDED077AA5EB0B02B8EE677B002E08BF7E
:10DD40001E46102B06921A46A8BF1022092B59EC2A
:10DD5000178B0CDD7149DDED056A01EBC20111ED98
:10DD6000125BB8EE666BA7EE056B59EC168B0F2BAA
:10DD700037DC069900293FF44EAE23DD16290BDC73
:10DD8000664B03EBC10393ED007B49EC168B27EE4A
:10DD9000067B59EC178B3EE60698C3F125018142BC
:10DDA0001FDB5E4AC3F10F0302EBC30191ED007B61
:10DDB00049EC168BC31A02EBC30227EE067B92EDE9
:10DDC000006BE4E7069916310BDB544BABEB050512
:10DDD00003EBC50595ED007B49EC168B86EE077BC2
:10DDE000D7E706999A1A0A44002A6EDD12F00F004E
:10DDF0000AD04A4901EBC00191ED007B49EC168B3A
:10DE000027EE067B59EC178B32F00F024ED0B2F59D
:10DE10009A7F22DD00252E4607952F462223DFF824
:10DE2000089123604FF00008079B002B3FF4F3ADEF
:10DE300012992046FFF730F939462046FFF72CF9B2
:10DE400031462046FFF728F907992046FFF724F9C5
:10DE500029462046FFF720F9DDE5002049EC178B25
:10DE60002F4F12110146012A23DC08B159EC178B00
:10DE70002B4A2C4802EBC10292ED007BA9F15479A8
:10DE800049EC168B284A27EE067B17EE901A0A40BB
:10DE9000824259EC178BBDD8A0F58010824286BF14
:10DEA000DFF888904FF0FF3801F154790022059295
:10DEB00076E012F0010F04D097ED006B012027EE01
:10DEC000067B013152100837CDE7EFD0524212F0F5
:10DED0000F000AD0114901EBC00191ED007B49EC24
:10DEE000168B86EE077B59EC178B1211DED01F2A9A
:10DEF0001EDD00252E4607952F4622234FF00008F1
:10DF00004FF0000923608FE7B5F70008DCF900083F
:10DF1000ADF70008E4F700086DFB0008F0F8000812
:10DF2000C8F800080000A07C0000F07FFFFFEF7F32
:10DF300012F0100118BF6A21059149EC178BBE49F8
:10DF40000020D70704D591ED006B012027EE067B5A
:10DF5000521001F10801F4D108B159EC178B059A60
:10DF6000BAB1C9F30A51C1F16B02002A484610DD6B
:10DF70001F2A40F32C81342ADEBF4FF0FF32C1F15B
:10DF80004B018A404FF00008CCBF4FF05C7902EAA9
:10DF9000000949EC178BB5EE407BF1EE10FAA8D0E2
:10DFA000079A0092099932462046FFF7DDF807905C
:10DFB00000283FF42FAF069A002AABEB05039FED34
:10DFC000969BA8BF00239FED96AB9FED97BB09934F
:10DFD000002522EAE2730C932E46079B20465968DF
:10DFE000FFF71AF8074600283FF418AF079B1A6995
:10DFF000023203F10C0192000C30FEF704F949ECF7
:10E00000108B14AA13A92046FFF7E2FB49EC188BEA
:10E01000129000283FF402AF01212046FFF73CF99F
:10E02000064600283FF4FAAE139B1499002BABBFB1
:10E03000099A0C9ADDF830A0DDF824B0ACBF03EBF0
:10E04000020BA2EB030A059A9B1A0B447B4A013B85
:10E050009342C1F1360180F2CD80D21A1F2AA1EB82
:10E0600002014FF0010000F3B98000FA02F30B93B4
:10E0700000230A930BEB0103059A9B458A449244C3
:10E080005A46A8BF1A465245A8BF5246002AC2BFE8
:10E090009B1AAAEB020AABEB020B099A002A18DDC5
:10E0A000314620460F93FFF7B7F9064600283FF4A4
:10E0B000B5AE0146129A2046FFF704F90E900028EB
:10E0C0003FF4ACAE12992046FEF7E6FF0E9A0F9B86
:10E0D0001292002B00F39380069B002B08DD39463B
:10E0E0000C9A2046FFF798F9074600283FF496AEB1
:10E0F000BAF1000F08DD394652462046FFF7E6F92F
:10E10000074600283FF48AAEBBF1000F08DD314618
:10E110005A462046FFF7DAF9064600283FF47EAE5D
:10E1200012993A462046FFF759FA054600283FF46F
:10E1300075AE0023D0F80CA0C3603146FFF732FA69
:10E1400000287FDA5AEA080A40F0A580C9F31303D1
:10E15000002B40F0A08029F000431B0D1B05B3F1FC
:10E16000D66F40F298806B691BB92B69012B40F385
:10E170009280294601222046FFF7A8F9314605463C
:10E18000FFF710FA002840F3868005992C4A4B4689
:10E19000002900F09F8002EA0901B1F1D66F00F377
:10E1A0009980B1F15C7F7FF7A8AE9FED217B49ECB0
:10E1B000168B234B26EE077B17EE902A134059EC63
:10E1C000178B002B7FF434AE2223236030E64FF010
:10E1D000FF3101FA02F202EA0808DAE6C3F17F43EE
:10E1E00003F57F0303F57B43E23300FA03F3CDE944
:10E1F0000A303FE700220123CDE90A233AE71299CA
:10E200001A462046FFF762F9129000287FF464AFA7
:10E2100004E600BFAFF300809535A094FFFFCF3F29
:10E220009535A094FFFFDF3F35E5AF350000E03FB7
:10E230000000000000005039F0F9000802FCFFFF68
:10E240000000F07FCB465FD1C9F31303BAF1000F92
:10E250002AD0A74A93422BD1059B4246FBB1A54B3E
:10E2600009EA0303B3F1D46F4FF0FF311AD81B0D45
:10E27000C3F16B0301FA03F39A4219D19E4B9B45FC
:10E2800002D101323FF4CAAD9A4B0BEA030303F506
:10E2900080194FF00008059B002B86D1C8E54FF090
:10E2A000FF33E9E70B46E7E753EA08033FF46DAFB6
:10E2B0000A9BCBB113EA0B0FEDD0059A40464946B5
:10E2C000BAF1000F14D0FFF751FB38EE007B59EC88
:10E2D000178BE0E71340A3F580136FEA13596FEA39
:10E2E00009594FF0FF38D6E70B9B13EA080FE3E715
:10E2F000FFF73CFB38EE400BB5EE400BF1EE10FAA9
:10E3000059EC108BC7D1F8E531462846FFF7BAFA29
:10E31000B0EE007BB4EEC70BF1EE10FA5FD8BAF1A5
:10E32000000F66D1B8F1000F4DD1C9F31303B7EE5A
:10E3300000DB002B62D1B4EECD0BB6EE00DBF1EECC
:10E3400010FA01D420EE0DDBB1EE4DCB6948DFF8B9
:10E35000B0C10BEA0001614553EC1C2B7AD1ABF143
:10E36000547949EC108B0A91FFF7C2F949EC1E8BE6
:10E370006048A0EE0CEB1EEE903A604A0A991840F5
:10E38000904259EC1E8B3CD918EE902A5A4B9A4277
:10E3900004D118EE103A01333FF440ADDFF8589144
:10E3A0004FF0FF3812992046FEF776FE3946204698
:10E3B000FEF772FE31462046FEF76EFE29462046E5
:10E3C000FEF76AFE09E6B8F1010F03D1B9F1000FBB
:10E3D0003FF493ADBFEE00CBB7EE00DBB6E7B6EE91
:10E3E00000DB20EE0DDBBAF1000FADD0B0EE4DCB6F
:10E3F000ACE7B7EE00CBB0EE4CDBA7E7BFEE00CB4F
:10E40000A4E703F15479059BCB46002BCAD129F030
:10E4100000431B0D1B059942C4D151EC1D0BF2F7B3
:10E420008BF9F2F743F9C9F3130B41EC170B4BEAE5
:10E43000080B5BEA0A0B3DEE47DB3CD0B4EECADBCF
:10E44000F1EE10FA3FF5F4ACB4EECBDBF1EE10FADE
:10E45000A8DDEDE40598F0B1B1F1D46F1BD89FEDC4
:10E46000227BB4EEC7DBF1EE10FA11D8BCEECDDBA7
:10E470001DEE103A012B38BF01230DEE103AB8EE15
:10E480004DDBBAF1000F13D1B1EE4D7B53EC172BDE
:10E4900003F1D660431AB0EE480B43EC1C2B0A91F3
:10E4A000FFF726F90A99ACEE008B59EC188BAAE716
:10E4B000B0EE4D7BEAE7B4EEC9DBF1EE10FA7FF582
:10E4C00071AFB5E4002308930D9A119B1360FFF719
:10E4D000A6BA652A3FF4A2AB452A3FF49FAB0121BF
:10E4E000FFF7D8BBAFF300800000C0FFFFFFDF41A4
:10E4F000FFFF0F000000F07FFFFFEF7FFFFF9F7C1B
:10E500000000E07F014BFFF74BBA00BF740100240D
:10E51000012B2DE9F04701D0242B06D9FDF746FE4B
:10E52000162303600020BDE8F087DFF8E4C00D4645
:10E530002E4615F8014B1CF8047017F00807F7D1A8
:10E540002D2C32D12C780127B51C002B5BD0102B41
:10E5500009D1302C07D12C7804F0DF04582C4DD190
:10E560006C781023023507F1004808F1FF384FF0AE
:10E57000000EB8FBF3F9764603FB198AA4F1300CC0
:10E58000BCF1090F16D86446A34224DDBEF1FF3F5B
:10E5900008D0B1451CD301D1A24519DB06FB0346C7
:10E5A0004FF0010E15F8014BE8E72B2C04BF2C7837
:10E5B000B51CCAE7A4F1410CBCF1190F01D8373CD6
:10E5C000E2E7A4F1610CBCF1190F04D8573CDBE77A
:10E5D0004FF0FF3EE6E7BEF1FF3F05D12223036087
:10E5E000464642B930469EE707B17642002AF9D046
:10E5F000BEF1000F00D0691E1160F3E73024002B3C
:10E60000B1D10823AFE7302CA5D00A23ABE700BF78
:10E6100019FA0008FFF77CBF2DE9F0478E681F4606
:10E62000BE420B6882460C4690462CD88A8912F46A
:10E63000906F26D06569096905EB4505A3EB0109D3
:10E6400005EBD5757B1C4B446D109D4238BF1D46B4
:10E65000530527D52946FEF753FC064660B32169CA
:10E660004A46FDF7D0FDA38923F4906343F080036D
:10E67000A381266165614E44A5EB09052660A5606E
:10E680003E46BE4200D93E4620683246414600F032
:10E690002BFAA3689B1BA3602368334423600020EC
:10E6A000BDE8F0872A4600F024FE06460028E0D1A7
:10E6B00021695046FEF7B0FB0C23CAF80030A3894D
:10E6C00043F04003A3814FF0FF30E9E72DE9F04F1D
:10E6D00098468B891B069DB007460D4614460ED5FD
:10E6E0000B6963B94021FEF70BFC2860286120B953
:10E6F0000C233B604FF0FF30D0E040236B610023E0
:10E70000099320238DF82930CDF80C803023DFF8D1
:10E71000A4818DF82A304FF0010923469A4613F858
:10E72000012B0AB1252AF9D1BAEB040B0BD05B46B9
:10E73000224629463846FFF76FFF013000F0A980D6
:10E74000099A5A4409929AF80030002B00F0A180EF
:10E7500000234FF0FF32CDE905230AF1010A0493AB
:10E7600007938DF853301A935446052214F8011B71
:10E770005048F1F7B5FD049AD8B9D00644BF20231C
:10E780008DF85330110744BF2B238DF853309AF87E
:10E7900000302A2B15D0079A544600204FF00A0C5F
:10E7A000214611F8013B303B092B4DD9B0B10792FE
:10E7B00014E0A0EB080309FA03F313430493A24601
:10E7C000D2E7039B191D1B680391002BBBBF5B4263
:10E7D00042F0020207930793B8BF049223782E2BCE
:10E7E0000CD163782A2B34D1039B1A1D1B6803922A
:10E7F000002BB8BF4FF0FF3302340593DFF8C4A0FD
:10E80000217803225046F1F76BFD38B1049BA0EB51
:10E810000A004022824013430134049314F8011B80
:10E8200025488DF828100622F1F75AFD002838D027
:10E83000224B1BBB039B073323F0070308330393CF
:10E84000099B3344099368E70CFB02320C46012014
:10E85000A6E700230134059319464FF00A0C204621
:10E8600010F8012B303A092A03D9002BC6D00591A4
:10E87000C4E70CFB012104460123F0E703AB00933E
:10E880002A460F4B04A93846FCF77AFC421C064680
:10E89000D6D1AB895B063FF52DAF09981DB0BDE819
:10E8A000F08F03AB00932A46054B04A93846FCF7CA
:10E8B000EFFEEBE719FB000823FB000881B100081D
:10E8C00019E600081FFB00088A892DE9F04105467A
:10E8D00010070C4658D44B68002B05DC0B6C002B42
:10E8E00002DC0020BDE8F081E66A002EF9D00023AA
:10E8F00012F480522F68216A2B6032D0606DA38998
:10E900005A0705D56368C01A636B0BB1236CC01A34
:10E9100000230246E66A216A2846B047431CA389C1
:10E9200006D129681D292BD8294A0A41D60727D4A0
:10E9300000226260D9042269226004D5421C01D100
:10E940002B6803B96065616B2F600029C9D004F1A1
:10E950004403994202D02846FEF75EFA0020606325
:10E96000C0E701232846B047411CC8D12B68002BC3
:10E97000C5D01D2B01D0162B01D12F60B1E7A38983
:10E9800043F04003A381ADE70F69002FA9D093079F
:10E990000E6808BF4B690F6018BF0023A6EB07087D
:10E9A0008B60B8F1000F9CDD216AA66A43463A46A7
:10E9B0002846B047002806DCA38943F04003A38122
:10E9C0004FF0FF308EE70744A8EB0008E9E700BFEF
:10E9D000FEFFBFDF38B50B6905460C4613B90025AD
:10E9E000284638BD18B1036A0BB9FDF703FAB4F92C
:10E9F0000C30002BF3D0626ED00704D4990502D4FA
:10EA0000A06DFDF7FEFB28462146FFF75DFF636E14
:10EA1000DA070546E4D4A3899B05E1D4A06DFDF790
:10EA2000F1FBDDE770B50C46B1F90E10002996B088
:10EA300015461E460DDAA38913F0800F4FF0000132
:10EA40000CBF4FF480634023002031602B6016B070
:10EA500070BD6A4600F074F80028ECDB019901F4FF
:10EA60007041A1F50053594259414FF48063EBE7DF
:10EA70008B8973B59D0706460C4607D504F14703FD
:10EA8000236023610123636102B070BD01AB6A465C
:10EA9000FFF7C8FF009905463046FEF731FA48B93E
:10EAA000B4F90C309A05EFD423F0030343F00203CA
:10EAB000A381E3E7A389206043F08003A381009B47
:10EAC0006361019B20615BB1B4F90E10304600F028
:10EAD00049F828B1A38923F0030343F00103A3817C
:10EAE000A3891D43A581CFE7884210B501EB02043D
:10EAF00002D98442234607D8431EA14208D011F808
:10EB0000012B03F8012FF8E7024401468A4200D1A5
:10EB100010BD13F8014D02F8014DF7E710B56AB1C9
:10EB20000139841810F8012B11F8013F9A4203D1E2
:10EB3000A04201D0002AF5D1D01A10BD1046FCE742
:10EB400038B5074D00230446084611462B60F2F7FE
:10EB5000FAFA431C02D12B6803B1236038BD00BF11
:10EB6000206F002438B5064D0023044608462B606C
:10EB7000F2F7F9FA431C02D12B6803B1236038BDC8
:10EB8000206F002438B5064D0023044608462B604C
:10EB9000F2F702FB431C02D12B6803B1236038BD9E
:10EBA000206F0024000000009FED010B704700BFA4
:10EBB000000000000000F87F1FB514461A46094BFC
:10EBC0001B680546D8684CB1074B0091CDE901346C
:10EBD00006492B4600F0CAFB00F0DAFB044B1C464A
:10EBE000F3E700BF7001002432FB00083FFB000880
:10EBF0006DFB000837B5A1FB02244CB91146019208
:10EC0000FEF77EF9019A054630B9284603B030BDBB
:10EC10000C2202600025F8E72146FDF775FAF4E7BB
:10EC20000369B3EB611F2DE9F0434FEA611200F174
:10EC3000140445DD11F01F0104EB830604EB82058B
:10EC40000CD100F110072946B14234D39B1A9B0026
:10EC5000EA1E964238BF0023234415E054F8227080
:10EC6000C1F12008CF4005F1040EA1467645F446D7
:10EC700015D89A1A9200043A0135AE4238BF0022E4
:10EC8000A318A75007B104331A1BA3424FEAA202EC
:10EC900008BF0023026108BF4361BDE8F083DCF8D0
:10ECA00000C00CFA08FC4CEA070749F8047B5EF840
:10ECB000047BCF40DAE751F804CB47F804CFC3E731
:10ECC0002346E1E7A0F13003092B02D82038C0B277
:10ECD0007047A0F16103052B01D84738F7E7A0F191
:10ECE0004103052B01D82738F1E7002070470000C9
:10ECF0002DE9F04F17460A6885B002F1020BC2F108
:10ED0000FF2202F57F0281468A460293FE3202EB21
:10ED10000B03D8461BF8010B01933028F7D0FFF7FF
:10ED2000D1FF0446002838D1A74901224046FFF709
:10ED3000F5FE0646002869D198F801005D46FFF708
:10ED4000C1FF002864D05A4610783028904602F15E
:10ED50000102F9D0FFF7B6FF0123B0FA80F464098D
:10ED60005E4601934246154601322878FFF7AAFF16
:10ED70000028F8D1944901222846FFF7CFFE78B940
:10ED800046B96E1C3246154601322878FFF79AFFC5
:10ED90000028F8D1731B9E0004E000242646E1E71A
:10EDA000002EF7D12B7803F0DF03502B3DD16B7889
:10EDB0002B2B2FD02D2B31D0691C4FF0000B087856
:10EDC000FFF780FF421ED2B2182A2ED8A0F11002FF
:10EDD00011F8010FFFF776FF00F1FF3C5FFA8CFCA2
:10EDE000BCF1180F1DD9BBF1000F00D052421644E0
:10EDF000CAF80010DCB1019B002B14BF4FF00008D3
:10EE00004FF00608404605B0BDE8F08F454626465F
:10EE10000124C7E74FF0000BA91CD0E74FF0010B0E
:10EE2000FAE70A2303FB0200D0E72946E0E7A5EB57
:10EE30000803013B2146072B0ADC4846FEF7ECF8A5
:10EE4000044640B9614B0246E4216148FFF7B4FE35
:10EE500001315B10EFE700F1140A00235A49CDF8A5
:10EE600004A09B46A84542D3019840F804BBA0EB00
:10EE70000A00801020614FEA40185846FEF7BEF99C
:10EE80003D68A8EB0000A84259DDA0EB050841460B
:10EE90002046FEF74AFD8346B8B108F1FF33591109
:10EEA00003F01F025AF821104FF0010B0BFA02F287
:10EEB0000A420AD05B4506DDA8F102012046FEF7B2
:10EEC00034FD002838D14FF0020B41462046FFF7B1
:10EED000A7FE4644BB68B34241DA21464846FEF7E6
:10EEE000DBF80E9A002313604FF0A3088AE715F8A9
:10EEF000012D2E2A14D0202B06D1019B43F804BBF0
:10EF00004FF0000B01935B4628780393FFF7DAFE7E
:10EF1000039B00F00F0098404BEA000B0433A1E77D
:10EF2000A845E8D8012228460393FFF7F7FD2649B4
:10EF3000039B0028DFD195E74FF0030BC5E70BDA01
:10EF4000A5EB0008214642464846FEF7BFFAA6EB6D
:10EF50000806044600F1140A4FF0000BBAE77B687C
:10EF6000B34273DD9E1BB54234DCFB68022B23D019
:10EF7000032B25D0012B15D1B54213D1012D0BD177
:10EF8000029A7B68136001232361CAF800300E9B4C
:10EF90004FF062081C6035E7691E2046FEF7C5FC8D
:10EFA0000028EDD121464846FEF776F80E9A002358
:10EFB00013604FF0500825E70F9B002BF2D1DFE7DD
:10EFC0000F9B002BDCD1EDE7C4F900085DF80008C9
:10EFD0006EFB000806F1FF38BBF1000F33D1B8F12A
:10EFE000000F04D041462046FEF79FFC83464FEABF
:10EFF000681201235AF8222008F01F0803FA08F3C8
:10F0000013423146204618BF4BF0020BAD1BFFF7F1
:10F0100007FE7E684FF00208BBF1000F4AD0FB6884
:10F02000022B16D0032B18D0012B09D11BF0020F95
:10F0300006D0DAF800304BEA030B1BF0010F0FD1BA
:10F0400048F0100836E04FF0010BD0E74FF0010810
:10F05000E2E70F9BC3F101030F930F9B002BEFD04F
:10F06000D4F810B004F114024FEA8B03019302EBC1
:10F070008B000023944652F8041BB1F1FF3F1ED0D1
:10F080000131CCF80010B8F1020F04F114023DD1A7
:10F090003B68013BAB420BD16911012305F01F0511
:10F0A00003FA05F552F821301D4218BF4FF0010850
:10F0B00048F020080E9B1C60029B1E60A2E6904256
:10F0C00042F8043CD6D8A268934517DB61684846ED
:10F0D0000131FDF7A1FF824618B91B4B024684217E
:10F0E000B3E62269023204F10C0192000C30FDF704
:10F0F0008AF821464846FDF7CFFF54462269511C45
:10F1000004EB8202216101215161BCE7216959456B
:10F110000BDD01212046FFF783FDBB680136B342BA
:10F12000FFF6DBAE4FF00108C2E715F01F05F9D07E
:10F13000019B1A44C5F1200552F8040CFEF75EF855
:10F14000A842E6DBEEE700BF5DF80008C2F1080266
:10F15000920070B5C2F120064368046803FA06F510
:10F160002C43D340046040F8043F8842F4D370BD80
:10F1700030B50368013311F8014B14B90360012065
:10F1800030BD13F8012BA2F14105192D98BF203293
:10F19000A242F0D00020F3E72DE9F04F0B680168A0
:10F1A0005E1102EB860613F01F0387B018BF04360A
:10F1B0000025371F82469046019346F8045CB94605
:10F1C0003C460295AB464A784B1C039342B310462B
:10F1D00005910492FFF776FD00284FD1049A059916
:10F1E000202A18D8029B9B4513DD4C4506D2072DDB
:10F1F00004DC2A4649462046FFF7A8FF444550D97B
:10F200000023A4F1040944F8043CCDF808B04C46AE
:10F210001D460399D7E7292A55D10231CAF80010B3
:10F22000BBF1000F4FD04C4506D2072D04DC2A4617
:10F2300049462046FFF78AFF444534D9A8F1040225
:10F24000234653F8041B42F8041F9F42F9D23B1B8C
:10F2500023F003030433033E0134A64238BF0423E2
:10F260004344002243F8042B9F42FBD23B681BB966
:10F27000474526D101233B60052025E00135082DB7
:10F280000BF1010B06DD4445C3D9002344F8043CCF
:10F290000125043C226800F00F0040EA02102060C3
:10F2A000B7E70825B5E7019B002BDFD0C3F12003AA
:10F2B0004FF0FF32DA4056F8043C134046F8043C65
:10F2C000D4E7043FD2E7042007B0BDE8F08F82B056
:10F2D00001B901A942B14BB113780B601278101E2D
:10F2E00018BF012002B070471046FBE76FF0010025
:10F2F000F8E72DE9F041804614460E4621B9BDE8F5
:10F30000F0411146FDF7FCBD2AB9FDF785FD254604
:10F310002846BDE8F08100F042F88442074602D852
:10F32000B4EB500F12D821464046FDF7E9FD0546E3
:10F330000028EDD0BC422246314628BF3A46FCF7B1
:10F3400062FF31464046FDF767FDE1E73546DFE7FE
:10F3500049B1FF2A85BF8A2303600A704FF0FF304E
:10F3600098BF012070470846704700000EB403B5EF
:10F37000014603AB054853F8042B0068019300F0E5
:10F380003FF802B05DF804EB03B070477001002451
:10F3900008B5062000F076F90120F1F785FE51F856
:10F3A000043C181F002BBCBF0B58C0187047936853
:10F3B000013B002B10B4936008DA9469A34201DB8F
:10F3C0000A2903D15DF8044BFCF709BE1368581CE9
:10F3D0001060197008465DF8044B7047F8B5064692
:10F3E0000F461446D518AC4201D1002007E014F8AE
:10F3F000011B3A463046FFF7DAFF431CF3D1F8BD54
:10F400002DE9F04F0D469DB014469846064618B1BA
:10F41000036A0BB9FCF7EEFC6B6ED90705D4AB8918
:10F420009A0502D4A86DFCF7ECFEAB891B0701D549
:10F430002B699BB929463046FCF70EFE70B16B6E06
:10F44000DC0704D54FF0FF301DB0BDE8F08FAB896D
:10F450009805F7D4A86DFCF7D5FEF3E700230993D0
:10F4600020238DF82930CDF80C803023DFF8B081CF
:10F470008DF82A304FF0010923469A4613F8012BE4
:10F480000AB1252AF9D1BAEB040B0BD05B46224610
:10F4900029463046FFF7A2FF013000F0A980099A03
:10F4A0005A4409929AF80030002B00F0A180002302
:10F4B0004FF0FF32CDE905230AF1010A04930793C7
:10F4C0008DF853301A935446052214F8011B544802
:10F4D000F0F706FF049AD8B9D10644BF20238DF86F
:10F4E0005330130744BF2B238DF853309AF8003064
:10F4F0002A2B15D0079A544600204FF00A0C2146BB
:10F5000011F8013B303B092B4DD9B0B1079214E003
:10F51000A0EB080309FA03F313430493A246D2E7CE
:10F52000039B191D1B680391002BBBBF5B4242F07C
:10F53000020207930793B8BF049223782E2B0CD1B5
:10F5400063782A2B34D1039B1A1D1B680392002B6E
:10F55000B8BF4FF0FF3302340593DFF8D4A0217811
:10F5600003225046F0F7BCFE38B1049BA0EB0A0022
:10F570004022824013430134049314F8011B2948AC
:10F580008DF828100622F0F7ABFE00283FD0264B5E
:10F590001BBB039B073323F0070308330393099B2B
:10F5A0003B44099368E70CFB02320C460120A6E7B6
:10F5B00000230134059319464FF00A0C204610F839
:10F5C000012B303A092A03D9002BC6D00591C4E794
:10F5D0000CFB012104460123F0E703AB00932A460C
:10F5E000124B04A93046FBF7CBFD0746781CD6D159
:10F5F0006B6ED90705D4AB899A0502D4A86DFCF7C8
:10F6000001FEAB895B063FF51DAF09981CE703AB14
:10F6100000932A46054B04A93046FCF739F8E4E785
:10F6200019FB000823FB000881B10008DDF3000886
:10F630001FFB00081F2938B504460D4604D91623C0
:10F6400003604FF0FF3038BDC26B12B152F8213069
:10F650004BB9204600F030F82A4601462046BDE866
:10F66000384000F017B8012B0AD0591C03D11623DB
:10F6700003600120E7E7002442F825402846984728
:10F680000020E0E7024B01461868FFF7D3BF00BF38
:10F690007001002438B5074D002304460846114682
:10F6A0002B60F1F7F1FC431C02D12B6803B12360FE
:10F6B00038BD00BF206F0024F1F7DEBCF8B500BFF5
:10F6C000F8BC08BC9E467047F8B500BFF8BC08BC43
:04F6D0009E4670479B
:10F6D800696E6974206F6B004B4559322050726512
:10F6E800737320006A756D7020696E746F20617085
:10F6F800706C69636174696F6E210A00010203040A
:10F70800050607080900000053544D33322043759D
:10F7180073746F6D2048756D616E20696E746572C3
:10F72800666163650000000053544D6963726F653C
:10F738006C656374726F6E696373000043757374EC
:10F748006F6D2048494420436F6E6669670000006A
:10F75800437573746F6D2048494420496E7465720F
:10F7680066616365000000000000000001020304F8
:10F77800010203040607080901000200040006004C
:10F7880008000A000C001000200040008000000162
:10F798000101010307010000080402040801010136
:10F7A800494E4600696E66004E414E006E616E001D
:10F7B80030003031323334353637383941424344FA
:10F7C8004546003031323334353637383961626373
:10F7D8006465660065256C6400496E66696E6974C7
:10F7E80079004E614E005245454E54206D616C6C57
:10F7F8006F6320737563636565646564002F627564
:10F80800696C642F676E752D746F6F6C732D666FDE
:10F81800722D73746D33325F31312E332E72656CF5
:10F82800312E32303233303931322D313630302FBB
:10F838007372632F6E65776C69622F6E65776C697A
:10F84800622F6C6962632F7374646C69622F6474CD
:10F858006F612E630042616C6C6F63207375636324
:10F868006565646564002F6275696C642F676E75E1
:10F878002D746F6F6C732D666F722D73746D3332C8
:10F888005F31312E332E72656C312E323032333087
:10F898003931322D313630302F7372632F6E6577E0
:10F8A8006C69622F6E65776C69622F6C6962632F71
:10F8B8007374646C69622F6D707265632E630000E7
:10F8C8000080E03779C34143176E05B5B5B8934654
:10F8D800F5F93FE9034F384D321D30F94877825A20
:10F8E8003CBF737FDD4F1575000000000000F03F3E
:10F8F8000000000000002440000000000000594003
:10F908000000000000408F40000000000088C34055
:10F9180000000000006AF8400000000080842E41CA
:10F9280000000000D01263410000000084D7974116
:10F938000000000065CDCD41000000205FA002421C
:10F94800000000E876483742000000A2941A6D4291
:10F95800000040E59C30A2420000901EC4BCD64284
:10F9680000003426F56B0C430080E03779C341432F
:10F9780000A0D8855734764300C84E676DC1AB43A5
:10F98800003D9160E458E143408CB5781DAF1544C3
:10F9980050EFE2D6E41A4B4492D54D06CFF080449E
:10F9A800F64AE1C7022DB544B49DD9794378EA44B3
:10F9B80005000000190000007D0000002E00000076
:10F9C80035000000CEFBFFFFCB0300000100000064
:10F9D8000000000034000000CEFBFFFFCB03000056
:10F9E8000100000000000000BC89D897B2D29C3CFE
:10F9F80033A7A8D523F649393DA7F444FD0FA5320E
:10FA08009D978CCF08BA5B25436FAC6428066811B4
:10FA180000202020202020202020282828282820D6
:10FA280020202020202020202020202020202020CE
:10FA38002088101010101010101010101010101036
:10FA48001004040404040404040404101010101026
:10FA580010104141414141410101010101010101F0
:10FA68000101010101010101010101011010101042
:10FA780010104242424242420202020202020202C2
:10FA88000202020202020202020202021010101016
:10FA9800200000000000000000000000000000003E
:10FAA800000000000000000000000000000000004E
:10FAB800000000000000000000000000000000003E
:10FAC800000000000000000000000000000000002E
:10FAD800000000000000000000000000000000001E
:10FAE800000000000000000000000000000000000E
:10FAF80000000000000000000000000000000000FE
:10FB080000000000000000000000000000000000ED
:10FB180000232D302B2000686C4C00656667454635
:10FB280047004300504F534958002C2066756E63B8
:10FB380074696F6E3A2000617373657274696F6ED1
:10FB48002022257322206661696C65643A20666903
:10FB58006C6520222573222C206C696E6520256433
:10FB6800257325730A002F6275696C642F676E759B
:10FB78002D746F6F6C732D666F722D73746D3332C5
:10FB88005F31312E332E72656C312E323032333084
:10FB98003931322D313630302F7372632F6E6577DD
:10FBA8006C69622F6E65776C69622F6C6962632F6E
:10FBB8007374646C69622F6764746F612D67657410
:08FBC8006865782E630000005F
:08FBD000D80BFF7F01000000CB
:04FBD800C50200085A
:04FBDC00A10200087A
:10FBE0000090D0030090D00310000000010000003E
:10FBF000B58700080D890008018A00080000000090
:10FC00009D8E0008C98D0008F78D000800000000D7
:10FC10000000000000000000018D00089D8C00081D
:10FC2000658D0008F58E000809022900010100C059
:10FC30003209040000020300000009211101000143
:10FC4000222200070581034000050705010340004B
:10FC5000050000000921110100012222000000001E
:10FC60000A060002000000400100810101000000BE
:10FC700006FF000900A1010901150026FF00750813
:10FC8000954081000902150026FF007508954091F6
:10FC900000C0000090000024F1A5000801A60008A3
:10FCA00011A60008CDA70008F1A7000851A8000878
:10FCB00015A8000879A800089DA80008D9A8000880
:10FCC00000000000120100020000004083045057B1
:10FCD0000002010203010000040309041A030000EA
:10FCE0000000000000000000000000000000000014
:10FCF0000000000000000000000000000300000001
:10FD0000E46D002400000000E46D00244C6E00242B
:10FD1000B46E00240000000000000000000000009D
:10FD200000000000000000000000000000000000D3
:10FD300000000000000000000000000000000000C3
:10FD400000000000000000000000000000000000B3
:10FD50002401002443000000000000000000000017
:10FD60000000000000000000000000000000000093
:10FD70000000000043000000000000000000000040
:10FD80000000000000000000000000000000000073
:10FD90000000000043000000000000000000000020
:10FDA0000000000000000000000000000000000053
:10FDB0000000000043000000000000000000000000
:10FDC0000000000000000000000000000000000033
:10FDD00000000000430000000000000000000000E0
:10FDE0000000000000000000000000000000000013
:10FDF00000000000430000000000000000000000C0
:10FE000000000000000000000000000000000000F2
:10FE1000000000004300000000000000000000009F
:10FE200000000000000000000000000000000000D2
:10FE30000000000051F30008CFF2000800000000AD
:10FE400018FA0008C4F900086DFB00086DFB0008F3
:10FE50006DFB00086DFB00086DFB00086DFB0008E2
:10FE60006DFB00086DFB00086DFB0008FFFFFFFF46
:10FE7000FFFFFFFFFFFFFFFFFFFF000001004153F7
:10FE8000434949000000000000000000000000009D
:10FE900000000000000000000000000000004153CE
:10FEA000434949000000000000000000000000007D
:10FEB0000000000000000000000000000000000042
:04000005080014815A
:00000001FF
