
BootLoader.elf:     file format elf32-littlearm

Sections:
Idx Name          Size      VMA       LMA       File off  Algn
  0 .isr_vector   00000298  08000000  08000000  00010000  2**0
                  CONTENTS, ALLOC, LOAD, READONLY, DATA
  1 .text         0000f434  080002a0  080002a0  000102a0  2**4
                  CONTENTS, ALLOC, LOAD, READONLY, CODE
  2 .rodata       000004f8  0800f6d8  0800f6d8  0001f6d8  2**3
                  CONTENTS, ALLOC, LOAD, READONLY, DATA
  3 .ARM          00000008  0800fbd0  0800fbd0  0001fbd0  2**2
                  CONTENTS, ALLOC, LOAD, READONLY, DATA
  4 .init_array   00000004  0800fbd8  0800fbd8  0001fbd8  2**2
                  CONTENTS, ALLOC, LOAD, DATA
  5 .fini_array   00000004  0800fbdc  0800fbdc  0001fbdc  2**2
                  CONTENTS, ALLOC, LOAD, DATA
  6 .data         000002e0  24000000  0800fbe0  00020000  2**2
                  CONTENTS, ALLOC, LOAD, DATA
  7 .bss          00006c50  240002e0  0800fec0  000202e0  2**2
                  ALLOC
  8 ._user_heap_stack 00000600  24006f30  0800fec0  00026f30  2**0
                  ALLOC
  9 .ARM.attributes 0000002e  00000000  00000000  000202e0  2**0
                  CONTENTS, READONLY
 10 .comment      00000043  00000000  00000000  0002030e  2**0
                  CONTENTS, READONLY
 11 .debug_info   0001b031  00000000  00000000  00020351  2**0
                  CONTENTS, READONLY, DEBUGGING, OCTETS
 12 .debug_abbrev 00003fb3  00000000  00000000  0003b382  2**0
                  CONTENTS, READONLY, DEBUGGING, OCTETS
 13 .debug_aranges 00001298  00000000  00000000  0003f338  2**3
                  CONTENTS, READONLY, DEBUGGING, OCTETS
 14 .debug_rnglists 00000e0d  00000000  00000000  000405d0  2**0
                  CONTENTS, READONLY, DEBUGGING, OCTETS
 15 .debug_macro  00006ae1  00000000  00000000  000413dd  2**0
                  CONTENTS, READONLY, DEBUGGING, OCTETS
 16 .debug_line   0001b70c  00000000  00000000  00047ebe  2**0
                  CONTENTS, READONLY, DEBUGGING, OCTETS
 17 .debug_str    0015bd33  00000000  00000000  000635ca  2**0
                  CONTENTS, READONLY, DEBUGGING, OCTETS
 18 .debug_frame  00005ebc  00000000  00000000  001bf300  2**2
                  CONTENTS, READONLY, DEBUGGING, OCTETS
 19 .debug_line_str 0000006c  00000000  00000000  001c51bc  2**0
                  CONTENTS, READONLY, DEBUGGING, OCTETS

Disassembly of section .text:

080002a0 <__do_global_dtors_aux>:
 80002a0:	b510      	push	{r4, lr}
 80002a2:	4c05      	ldr	r4, [pc, #20]	; (80002b8 <__do_global_dtors_aux+0x18>)
 80002a4:	7823      	ldrb	r3, [r4, #0]
 80002a6:	b933      	cbnz	r3, 80002b6 <__do_global_dtors_aux+0x16>
 80002a8:	4b04      	ldr	r3, [pc, #16]	; (80002bc <__do_global_dtors_aux+0x1c>)
 80002aa:	b113      	cbz	r3, 80002b2 <__do_global_dtors_aux+0x12>
 80002ac:	4804      	ldr	r0, [pc, #16]	; (80002c0 <__do_global_dtors_aux+0x20>)
 80002ae:	f3af 8000 	nop.w
 80002b2:	2301      	movs	r3, #1
 80002b4:	7023      	strb	r3, [r4, #0]
 80002b6:	bd10      	pop	{r4, pc}
 80002b8:	240002e0 	.word	0x240002e0
 80002bc:	00000000 	.word	0x00000000
 80002c0:	0800f6bc 	.word	0x0800f6bc

080002c4 <frame_dummy>:
 80002c4:	b508      	push	{r3, lr}
 80002c6:	4b03      	ldr	r3, [pc, #12]	; (80002d4 <frame_dummy+0x10>)
 80002c8:	b11b      	cbz	r3, 80002d2 <frame_dummy+0xe>
 80002ca:	4903      	ldr	r1, [pc, #12]	; (80002d8 <frame_dummy+0x14>)
 80002cc:	4803      	ldr	r0, [pc, #12]	; (80002dc <frame_dummy+0x18>)
 80002ce:	f3af 8000 	nop.w
 80002d2:	bd08      	pop	{r3, pc}
 80002d4:	00000000 	.word	0x00000000
 80002d8:	240002e4 	.word	0x240002e4
 80002dc:	0800f6bc 	.word	0x0800f6bc

080002e0 <memchr>:
 80002e0:	f001 01ff 	and.w	r1, r1, #255	; 0xff
 80002e4:	2a10      	cmp	r2, #16
 80002e6:	db2b      	blt.n	8000340 <memchr+0x60>
 80002e8:	f010 0f07 	tst.w	r0, #7
 80002ec:	d008      	beq.n	8000300 <memchr+0x20>
 80002ee:	f810 3b01 	ldrb.w	r3, [r0], #1
 80002f2:	3a01      	subs	r2, #1
 80002f4:	428b      	cmp	r3, r1
 80002f6:	d02d      	beq.n	8000354 <memchr+0x74>
 80002f8:	f010 0f07 	tst.w	r0, #7
 80002fc:	b342      	cbz	r2, 8000350 <memchr+0x70>
 80002fe:	d1f6      	bne.n	80002ee <memchr+0xe>
 8000300:	b4f0      	push	{r4, r5, r6, r7}
 8000302:	ea41 2101 	orr.w	r1, r1, r1, lsl #8
 8000306:	ea41 4101 	orr.w	r1, r1, r1, lsl #16
 800030a:	f022 0407 	bic.w	r4, r2, #7
 800030e:	f07f 0700 	mvns.w	r7, #0
 8000312:	2300      	movs	r3, #0
 8000314:	e8f0 5602 	ldrd	r5, r6, [r0], #8
 8000318:	3c08      	subs	r4, #8
 800031a:	ea85 0501 	eor.w	r5, r5, r1
 800031e:	ea86 0601 	eor.w	r6, r6, r1
 8000322:	fa85 f547 	uadd8	r5, r5, r7
 8000326:	faa3 f587 	sel	r5, r3, r7
 800032a:	fa86 f647 	uadd8	r6, r6, r7
 800032e:	faa5 f687 	sel	r6, r5, r7
 8000332:	b98e      	cbnz	r6, 8000358 <memchr+0x78>
 8000334:	d1ee      	bne.n	8000314 <memchr+0x34>
 8000336:	bcf0      	pop	{r4, r5, r6, r7}
 8000338:	f001 01ff 	and.w	r1, r1, #255	; 0xff
 800033c:	f002 0207 	and.w	r2, r2, #7
 8000340:	b132      	cbz	r2, 8000350 <memchr+0x70>
 8000342:	f810 3b01 	ldrb.w	r3, [r0], #1
 8000346:	3a01      	subs	r2, #1
 8000348:	ea83 0301 	eor.w	r3, r3, r1
 800034c:	b113      	cbz	r3, 8000354 <memchr+0x74>
 800034e:	d1f8      	bne.n	8000342 <memchr+0x62>
 8000350:	2000      	movs	r0, #0
 8000352:	4770      	bx	lr
 8000354:	3801      	subs	r0, #1
 8000356:	4770      	bx	lr
 8000358:	2d00      	cmp	r5, #0
 800035a:	bf06      	itte	eq
 800035c:	4635      	moveq	r5, r6
 800035e:	3803      	subeq	r0, #3
 8000360:	3807      	subne	r0, #7
 8000362:	f015 0f01 	tst.w	r5, #1
 8000366:	d107      	bne.n	8000378 <memchr+0x98>
 8000368:	3001      	adds	r0, #1
 800036a:	f415 7f80 	tst.w	r5, #256	; 0x100
 800036e:	bf02      	ittt	eq
 8000370:	3001      	addeq	r0, #1
 8000372:	f415 3fc0 	tsteq.w	r5, #98304	; 0x18000
 8000376:	3001      	addeq	r0, #1
 8000378:	bcf0      	pop	{r4, r5, r6, r7}
 800037a:	3801      	subs	r0, #1
 800037c:	4770      	bx	lr
 800037e:	bf00      	nop

08000380 <strlen>:
 8000380:	4603      	mov	r3, r0
 8000382:	f813 2b01 	ldrb.w	r2, [r3], #1
 8000386:	2a00      	cmp	r2, #0
 8000388:	d1fb      	bne.n	8000382 <strlen+0x2>
 800038a:	1a18      	subs	r0, r3, r0
 800038c:	3801      	subs	r0, #1
 800038e:	4770      	bx	lr

08000390 <__aeabi_drsub>:
 8000390:	f081 4100 	eor.w	r1, r1, #2147483648	; 0x80000000
 8000394:	e002      	b.n	800039c <__adddf3>
 8000396:	bf00      	nop

08000398 <__aeabi_dsub>:
 8000398:	f083 4300 	eor.w	r3, r3, #2147483648	; 0x80000000

0800039c <__adddf3>:
 800039c:	b530      	push	{r4, r5, lr}
 800039e:	ea4f 0441 	mov.w	r4, r1, lsl #1
 80003a2:	ea4f 0543 	mov.w	r5, r3, lsl #1
 80003a6:	ea94 0f05 	teq	r4, r5
 80003aa:	bf08      	it	eq
 80003ac:	ea90 0f02 	teqeq	r0, r2
 80003b0:	bf1f      	itttt	ne
 80003b2:	ea54 0c00 	orrsne.w	ip, r4, r0
 80003b6:	ea55 0c02 	orrsne.w	ip, r5, r2
 80003ba:	ea7f 5c64 	mvnsne.w	ip, r4, asr #21
 80003be:	ea7f 5c65 	mvnsne.w	ip, r5, asr #21
 80003c2:	f000 80e2 	beq.w	800058a <__adddf3+0x1ee>
 80003c6:	ea4f 5454 	mov.w	r4, r4, lsr #21
 80003ca:	ebd4 5555 	rsbs	r5, r4, r5, lsr #21
 80003ce:	bfb8      	it	lt
 80003d0:	426d      	neglt	r5, r5
 80003d2:	dd0c      	ble.n	80003ee <__adddf3+0x52>
 80003d4:	442c      	add	r4, r5
 80003d6:	ea80 0202 	eor.w	r2, r0, r2
 80003da:	ea81 0303 	eor.w	r3, r1, r3
 80003de:	ea82 0000 	eor.w	r0, r2, r0
 80003e2:	ea83 0101 	eor.w	r1, r3, r1
 80003e6:	ea80 0202 	eor.w	r2, r0, r2
 80003ea:	ea81 0303 	eor.w	r3, r1, r3
 80003ee:	2d36      	cmp	r5, #54	; 0x36
 80003f0:	bf88      	it	hi
 80003f2:	bd30      	pophi	{r4, r5, pc}
 80003f4:	f011 4f00 	tst.w	r1, #2147483648	; 0x80000000
 80003f8:	ea4f 3101 	mov.w	r1, r1, lsl #12
 80003fc:	f44f 1c80 	mov.w	ip, #1048576	; 0x100000
 8000400:	ea4c 3111 	orr.w	r1, ip, r1, lsr #12
 8000404:	d002      	beq.n	800040c <__adddf3+0x70>
 8000406:	4240      	negs	r0, r0
 8000408:	eb61 0141 	sbc.w	r1, r1, r1, lsl #1
 800040c:	f013 4f00 	tst.w	r3, #2147483648	; 0x80000000
 8000410:	ea4f 3303 	mov.w	r3, r3, lsl #12
 8000414:	ea4c 3313 	orr.w	r3, ip, r3, lsr #12
 8000418:	d002      	beq.n	8000420 <__adddf3+0x84>
 800041a:	4252      	negs	r2, r2
 800041c:	eb63 0343 	sbc.w	r3, r3, r3, lsl #1
 8000420:	ea94 0f05 	teq	r4, r5
 8000424:	f000 80a7 	beq.w	8000576 <__adddf3+0x1da>
 8000428:	f1a4 0401 	sub.w	r4, r4, #1
 800042c:	f1d5 0e20 	rsbs	lr, r5, #32
 8000430:	db0d      	blt.n	800044e <__adddf3+0xb2>
 8000432:	fa02 fc0e 	lsl.w	ip, r2, lr
 8000436:	fa22 f205 	lsr.w	r2, r2, r5
 800043a:	1880      	adds	r0, r0, r2
 800043c:	f141 0100 	adc.w	r1, r1, #0
 8000440:	fa03 f20e 	lsl.w	r2, r3, lr
 8000444:	1880      	adds	r0, r0, r2
 8000446:	fa43 f305 	asr.w	r3, r3, r5
 800044a:	4159      	adcs	r1, r3
 800044c:	e00e      	b.n	800046c <__adddf3+0xd0>
 800044e:	f1a5 0520 	sub.w	r5, r5, #32
 8000452:	f10e 0e20 	add.w	lr, lr, #32
 8000456:	2a01      	cmp	r2, #1
 8000458:	fa03 fc0e 	lsl.w	ip, r3, lr
 800045c:	bf28      	it	cs
 800045e:	f04c 0c02 	orrcs.w	ip, ip, #2
 8000462:	fa43 f305 	asr.w	r3, r3, r5
 8000466:	18c0      	adds	r0, r0, r3
 8000468:	eb51 71e3 	adcs.w	r1, r1, r3, asr #31
 800046c:	f001 4500 	and.w	r5, r1, #2147483648	; 0x80000000
 8000470:	d507      	bpl.n	8000482 <__adddf3+0xe6>
 8000472:	f04f 0e00 	mov.w	lr, #0
 8000476:	f1dc 0c00 	rsbs	ip, ip, #0
 800047a:	eb7e 0000 	sbcs.w	r0, lr, r0
 800047e:	eb6e 0101 	sbc.w	r1, lr, r1
 8000482:	f5b1 1f80 	cmp.w	r1, #1048576	; 0x100000
 8000486:	d31b      	bcc.n	80004c0 <__adddf3+0x124>
 8000488:	f5b1 1f00 	cmp.w	r1, #2097152	; 0x200000
 800048c:	d30c      	bcc.n	80004a8 <__adddf3+0x10c>
 800048e:	0849      	lsrs	r1, r1, #1
 8000490:	ea5f 0030 	movs.w	r0, r0, rrx
 8000494:	ea4f 0c3c 	mov.w	ip, ip, rrx
 8000498:	f104 0401 	add.w	r4, r4, #1
 800049c:	ea4f 5244 	mov.w	r2, r4, lsl #21
 80004a0:	f512 0f80 	cmn.w	r2, #4194304	; 0x400000
 80004a4:	f080 809a 	bcs.w	80005dc <__adddf3+0x240>
 80004a8:	f1bc 4f00 	cmp.w	ip, #2147483648	; 0x80000000
 80004ac:	bf08      	it	eq
 80004ae:	ea5f 0c50 	movseq.w	ip, r0, lsr #1
 80004b2:	f150 0000 	adcs.w	r0, r0, #0
 80004b6:	eb41 5104 	adc.w	r1, r1, r4, lsl #20
 80004ba:	ea41 0105 	orr.w	r1, r1, r5
 80004be:	bd30      	pop	{r4, r5, pc}
 80004c0:	ea5f 0c4c 	movs.w	ip, ip, lsl #1
 80004c4:	4140      	adcs	r0, r0
 80004c6:	eb41 0101 	adc.w	r1, r1, r1
 80004ca:	3c01      	subs	r4, #1
 80004cc:	bf28      	it	cs
 80004ce:	f5b1 1f80 	cmpcs.w	r1, #1048576	; 0x100000
 80004d2:	d2e9      	bcs.n	80004a8 <__adddf3+0x10c>
 80004d4:	f091 0f00 	teq	r1, #0
 80004d8:	bf04      	itt	eq
 80004da:	4601      	moveq	r1, r0
 80004dc:	2000      	moveq	r0, #0
 80004de:	fab1 f381 	clz	r3, r1
 80004e2:	bf08      	it	eq
 80004e4:	3320      	addeq	r3, #32
 80004e6:	f1a3 030b 	sub.w	r3, r3, #11
 80004ea:	f1b3 0220 	subs.w	r2, r3, #32
 80004ee:	da0c      	bge.n	800050a <__adddf3+0x16e>
 80004f0:	320c      	adds	r2, #12
 80004f2:	dd08      	ble.n	8000506 <__adddf3+0x16a>
 80004f4:	f102 0c14 	add.w	ip, r2, #20
 80004f8:	f1c2 020c 	rsb	r2, r2, #12
 80004fc:	fa01 f00c 	lsl.w	r0, r1, ip
 8000500:	fa21 f102 	lsr.w	r1, r1, r2
 8000504:	e00c      	b.n	8000520 <__adddf3+0x184>
 8000506:	f102 0214 	add.w	r2, r2, #20
 800050a:	bfd8      	it	le
 800050c:	f1c2 0c20 	rsble	ip, r2, #32
 8000510:	fa01 f102 	lsl.w	r1, r1, r2
 8000514:	fa20 fc0c 	lsr.w	ip, r0, ip
 8000518:	bfdc      	itt	le
 800051a:	ea41 010c 	orrle.w	r1, r1, ip
 800051e:	4090      	lslle	r0, r2
 8000520:	1ae4      	subs	r4, r4, r3
 8000522:	bfa2      	ittt	ge
 8000524:	eb01 5104 	addge.w	r1, r1, r4, lsl #20
 8000528:	4329      	orrge	r1, r5
 800052a:	bd30      	popge	{r4, r5, pc}
 800052c:	ea6f 0404 	mvn.w	r4, r4
 8000530:	3c1f      	subs	r4, #31
 8000532:	da1c      	bge.n	800056e <__adddf3+0x1d2>
 8000534:	340c      	adds	r4, #12
 8000536:	dc0e      	bgt.n	8000556 <__adddf3+0x1ba>
 8000538:	f104 0414 	add.w	r4, r4, #20
 800053c:	f1c4 0220 	rsb	r2, r4, #32
 8000540:	fa20 f004 	lsr.w	r0, r0, r4
 8000544:	fa01 f302 	lsl.w	r3, r1, r2
 8000548:	ea40 0003 	orr.w	r0, r0, r3
 800054c:	fa21 f304 	lsr.w	r3, r1, r4
 8000550:	ea45 0103 	orr.w	r1, r5, r3
 8000554:	bd30      	pop	{r4, r5, pc}
 8000556:	f1c4 040c 	rsb	r4, r4, #12
 800055a:	f1c4 0220 	rsb	r2, r4, #32
 800055e:	fa20 f002 	lsr.w	r0, r0, r2
 8000562:	fa01 f304 	lsl.w	r3, r1, r4
 8000566:	ea40 0003 	orr.w	r0, r0, r3
 800056a:	4629      	mov	r1, r5
 800056c:	bd30      	pop	{r4, r5, pc}
 800056e:	fa21 f004 	lsr.w	r0, r1, r4
 8000572:	4629      	mov	r1, r5
 8000574:	bd30      	pop	{r4, r5, pc}
 8000576:	f094 0f00 	teq	r4, #0
 800057a:	f483 1380 	eor.w	r3, r3, #1048576	; 0x100000
 800057e:	bf06      	itte	eq
 8000580:	f481 1180 	eoreq.w	r1, r1, #1048576	; 0x100000
 8000584:	3401      	addeq	r4, #1
 8000586:	3d01      	subne	r5, #1
 8000588:	e74e      	b.n	8000428 <__adddf3+0x8c>
 800058a:	ea7f 5c64 	mvns.w	ip, r4, asr #21
 800058e:	bf18      	it	ne
 8000590:	ea7f 5c65 	mvnsne.w	ip, r5, asr #21
 8000594:	d029      	beq.n	80005ea <__adddf3+0x24e>
 8000596:	ea94 0f05 	teq	r4, r5
 800059a:	bf08      	it	eq
 800059c:	ea90 0f02 	teqeq	r0, r2
 80005a0:	d005      	beq.n	80005ae <__adddf3+0x212>
 80005a2:	ea54 0c00 	orrs.w	ip, r4, r0
 80005a6:	bf04      	itt	eq
 80005a8:	4619      	moveq	r1, r3
 80005aa:	4610      	moveq	r0, r2
 80005ac:	bd30      	pop	{r4, r5, pc}
 80005ae:	ea91 0f03 	teq	r1, r3
 80005b2:	bf1e      	ittt	ne
 80005b4:	2100      	movne	r1, #0
 80005b6:	2000      	movne	r0, #0
 80005b8:	bd30      	popne	{r4, r5, pc}
 80005ba:	ea5f 5c54 	movs.w	ip, r4, lsr #21
 80005be:	d105      	bne.n	80005cc <__adddf3+0x230>
 80005c0:	0040      	lsls	r0, r0, #1
 80005c2:	4149      	adcs	r1, r1
 80005c4:	bf28      	it	cs
 80005c6:	f041 4100 	orrcs.w	r1, r1, #2147483648	; 0x80000000
 80005ca:	bd30      	pop	{r4, r5, pc}
 80005cc:	f514 0480 	adds.w	r4, r4, #4194304	; 0x400000
 80005d0:	bf3c      	itt	cc
 80005d2:	f501 1180 	addcc.w	r1, r1, #1048576	; 0x100000
 80005d6:	bd30      	popcc	{r4, r5, pc}
 80005d8:	f001 4500 	and.w	r5, r1, #2147483648	; 0x80000000
 80005dc:	f045 41fe 	orr.w	r1, r5, #2130706432	; 0x7f000000
 80005e0:	f441 0170 	orr.w	r1, r1, #15728640	; 0xf00000
 80005e4:	f04f 0000 	mov.w	r0, #0
 80005e8:	bd30      	pop	{r4, r5, pc}
 80005ea:	ea7f 5c64 	mvns.w	ip, r4, asr #21
 80005ee:	bf1a      	itte	ne
 80005f0:	4619      	movne	r1, r3
 80005f2:	4610      	movne	r0, r2
 80005f4:	ea7f 5c65 	mvnseq.w	ip, r5, asr #21
 80005f8:	bf1c      	itt	ne
 80005fa:	460b      	movne	r3, r1
 80005fc:	4602      	movne	r2, r0
 80005fe:	ea50 3401 	orrs.w	r4, r0, r1, lsl #12
 8000602:	bf06      	itte	eq
 8000604:	ea52 3503 	orrseq.w	r5, r2, r3, lsl #12
 8000608:	ea91 0f03 	teqeq	r1, r3
 800060c:	f441 2100 	orrne.w	r1, r1, #524288	; 0x80000
 8000610:	bd30      	pop	{r4, r5, pc}
 8000612:	bf00      	nop

08000614 <__aeabi_ui2d>:
 8000614:	f090 0f00 	teq	r0, #0
 8000618:	bf04      	itt	eq
 800061a:	2100      	moveq	r1, #0
 800061c:	4770      	bxeq	lr
 800061e:	b530      	push	{r4, r5, lr}
 8000620:	f44f 6480 	mov.w	r4, #1024	; 0x400
 8000624:	f104 0432 	add.w	r4, r4, #50	; 0x32
 8000628:	f04f 0500 	mov.w	r5, #0
 800062c:	f04f 0100 	mov.w	r1, #0
 8000630:	e750      	b.n	80004d4 <__adddf3+0x138>
 8000632:	bf00      	nop

08000634 <__aeabi_i2d>:
 8000634:	f090 0f00 	teq	r0, #0
 8000638:	bf04      	itt	eq
 800063a:	2100      	moveq	r1, #0
 800063c:	4770      	bxeq	lr
 800063e:	b530      	push	{r4, r5, lr}
 8000640:	f44f 6480 	mov.w	r4, #1024	; 0x400
 8000644:	f104 0432 	add.w	r4, r4, #50	; 0x32
 8000648:	f010 4500 	ands.w	r5, r0, #2147483648	; 0x80000000
 800064c:	bf48      	it	mi
 800064e:	4240      	negmi	r0, r0
 8000650:	f04f 0100 	mov.w	r1, #0
 8000654:	e73e      	b.n	80004d4 <__adddf3+0x138>
 8000656:	bf00      	nop

08000658 <__aeabi_f2d>:
 8000658:	0042      	lsls	r2, r0, #1
 800065a:	ea4f 01e2 	mov.w	r1, r2, asr #3
 800065e:	ea4f 0131 	mov.w	r1, r1, rrx
 8000662:	ea4f 7002 	mov.w	r0, r2, lsl #28
 8000666:	bf1f      	itttt	ne
 8000668:	f012 437f 	andsne.w	r3, r2, #4278190080	; 0xff000000
 800066c:	f093 4f7f 	teqne	r3, #4278190080	; 0xff000000
 8000670:	f081 5160 	eorne.w	r1, r1, #939524096	; 0x38000000
 8000674:	4770      	bxne	lr
 8000676:	f032 427f 	bics.w	r2, r2, #4278190080	; 0xff000000
 800067a:	bf08      	it	eq
 800067c:	4770      	bxeq	lr
 800067e:	f093 4f7f 	teq	r3, #4278190080	; 0xff000000
 8000682:	bf04      	itt	eq
 8000684:	f441 2100 	orreq.w	r1, r1, #524288	; 0x80000
 8000688:	4770      	bxeq	lr
 800068a:	b530      	push	{r4, r5, lr}
 800068c:	f44f 7460 	mov.w	r4, #896	; 0x380
 8000690:	f001 4500 	and.w	r5, r1, #2147483648	; 0x80000000
 8000694:	f021 4100 	bic.w	r1, r1, #2147483648	; 0x80000000
 8000698:	e71c      	b.n	80004d4 <__adddf3+0x138>
 800069a:	bf00      	nop

0800069c <__aeabi_ul2d>:
 800069c:	ea50 0201 	orrs.w	r2, r0, r1
 80006a0:	bf08      	it	eq
 80006a2:	4770      	bxeq	lr
 80006a4:	b530      	push	{r4, r5, lr}
 80006a6:	f04f 0500 	mov.w	r5, #0
 80006aa:	e00a      	b.n	80006c2 <__aeabi_l2d+0x16>

080006ac <__aeabi_l2d>:
 80006ac:	ea50 0201 	orrs.w	r2, r0, r1
 80006b0:	bf08      	it	eq
 80006b2:	4770      	bxeq	lr
 80006b4:	b530      	push	{r4, r5, lr}
 80006b6:	f011 4500 	ands.w	r5, r1, #2147483648	; 0x80000000
 80006ba:	d502      	bpl.n	80006c2 <__aeabi_l2d+0x16>
 80006bc:	4240      	negs	r0, r0
 80006be:	eb61 0141 	sbc.w	r1, r1, r1, lsl #1
 80006c2:	f44f 6480 	mov.w	r4, #1024	; 0x400
 80006c6:	f104 0432 	add.w	r4, r4, #50	; 0x32
 80006ca:	ea5f 5c91 	movs.w	ip, r1, lsr #22
 80006ce:	f43f aed8 	beq.w	8000482 <__adddf3+0xe6>
 80006d2:	f04f 0203 	mov.w	r2, #3
 80006d6:	ea5f 0cdc 	movs.w	ip, ip, lsr #3
 80006da:	bf18      	it	ne
 80006dc:	3203      	addne	r2, #3
 80006de:	ea5f 0cdc 	movs.w	ip, ip, lsr #3
 80006e2:	bf18      	it	ne
 80006e4:	3203      	addne	r2, #3
 80006e6:	eb02 02dc 	add.w	r2, r2, ip, lsr #3
 80006ea:	f1c2 0320 	rsb	r3, r2, #32
 80006ee:	fa00 fc03 	lsl.w	ip, r0, r3
 80006f2:	fa20 f002 	lsr.w	r0, r0, r2
 80006f6:	fa01 fe03 	lsl.w	lr, r1, r3
 80006fa:	ea40 000e 	orr.w	r0, r0, lr
 80006fe:	fa21 f102 	lsr.w	r1, r1, r2
 8000702:	4414      	add	r4, r2
 8000704:	e6bd      	b.n	8000482 <__adddf3+0xe6>
 8000706:	bf00      	nop

08000708 <__aeabi_uldivmod>:
 8000708:	b953      	cbnz	r3, 8000720 <__aeabi_uldivmod+0x18>
 800070a:	b94a      	cbnz	r2, 8000720 <__aeabi_uldivmod+0x18>
 800070c:	2900      	cmp	r1, #0
 800070e:	bf08      	it	eq
 8000710:	2800      	cmpeq	r0, #0
 8000712:	bf1c      	itt	ne
 8000714:	f04f 31ff 	movne.w	r1, #4294967295
 8000718:	f04f 30ff 	movne.w	r0, #4294967295
 800071c:	f000 b9a8 	b.w	8000a70 <__aeabi_idiv0>
 8000720:	f1ad 0c08 	sub.w	ip, sp, #8
 8000724:	e96d ce04 	strd	ip, lr, [sp, #-16]!
 8000728:	f000 f83e 	bl	80007a8 <__udivmoddi4>
 800072c:	f8dd e004 	ldr.w	lr, [sp, #4]
 8000730:	e9dd 2302 	ldrd	r2, r3, [sp, #8]
 8000734:	b004      	add	sp, #16
 8000736:	4770      	bx	lr

08000738 <__aeabi_d2lz>:
 8000738:	b508      	push	{r3, lr}
 800073a:	4602      	mov	r2, r0
 800073c:	460b      	mov	r3, r1
 800073e:	ec43 2b17 	vmov	d7, r2, r3
 8000742:	eeb5 7bc0 	vcmpe.f64	d7, #0.0
 8000746:	eef1 fa10 	vmrs	APSR_nzcv, fpscr
 800074a:	d403      	bmi.n	8000754 <__aeabi_d2lz+0x1c>
 800074c:	e8bd 4008 	ldmia.w	sp!, {r3, lr}
 8000750:	f000 b80a 	b.w	8000768 <__aeabi_d2ulz>
 8000754:	eeb1 7b47 	vneg.f64	d7, d7
 8000758:	ec51 0b17 	vmov	r0, r1, d7
 800075c:	f000 f804 	bl	8000768 <__aeabi_d2ulz>
 8000760:	4240      	negs	r0, r0
 8000762:	eb61 0141 	sbc.w	r1, r1, r1, lsl #1
 8000766:	bd08      	pop	{r3, pc}

08000768 <__aeabi_d2ulz>:
 8000768:	ed9f 6b0b 	vldr	d6, [pc, #44]	; 8000798 <__aeabi_d2ulz+0x30>
 800076c:	ec41 0b17 	vmov	d7, r0, r1
 8000770:	ed9f 5b0b 	vldr	d5, [pc, #44]	; 80007a0 <__aeabi_d2ulz+0x38>
 8000774:	ee27 6b06 	vmul.f64	d6, d7, d6
 8000778:	eebc 6bc6 	vcvt.u32.f64	s12, d6
 800077c:	eeb8 4b46 	vcvt.f64.u32	d4, s12
 8000780:	eea4 7b45 	vfms.f64	d7, d4, d5
 8000784:	eefc 7bc7 	vcvt.u32.f64	s15, d7
 8000788:	ee16 1a10 	vmov	r1, s12
 800078c:	ee17 0a90 	vmov	r0, s15
 8000790:	4770      	bx	lr
 8000792:	bf00      	nop
 8000794:	f3af 8000 	nop.w
 8000798:	00000000 	.word	0x00000000
 800079c:	3df00000 	.word	0x3df00000
 80007a0:	00000000 	.word	0x00000000
 80007a4:	41f00000 	.word	0x41f00000

080007a8 <__udivmoddi4>:
 80007a8:	e92d 47f0 	stmdb	sp!, {r4, r5, r6, r7, r8, r9, sl, lr}
 80007ac:	9e08      	ldr	r6, [sp, #32]
 80007ae:	460d      	mov	r5, r1
 80007b0:	4604      	mov	r4, r0
 80007b2:	460f      	mov	r7, r1
 80007b4:	2b00      	cmp	r3, #0
 80007b6:	d14a      	bne.n	800084e <__udivmoddi4+0xa6>
 80007b8:	428a      	cmp	r2, r1
 80007ba:	4694      	mov	ip, r2
 80007bc:	d965      	bls.n	800088a <__udivmoddi4+0xe2>
 80007be:	fab2 f382 	clz	r3, r2
 80007c2:	b143      	cbz	r3, 80007d6 <__udivmoddi4+0x2e>
 80007c4:	fa02 fc03 	lsl.w	ip, r2, r3
 80007c8:	f1c3 0220 	rsb	r2, r3, #32
 80007cc:	409f      	lsls	r7, r3
 80007ce:	fa20 f202 	lsr.w	r2, r0, r2
 80007d2:	4317      	orrs	r7, r2
 80007d4:	409c      	lsls	r4, r3
 80007d6:	ea4f 4e1c 	mov.w	lr, ip, lsr #16
 80007da:	fa1f f58c 	uxth.w	r5, ip
 80007de:	fbb7 f1fe 	udiv	r1, r7, lr
 80007e2:	0c22      	lsrs	r2, r4, #16
 80007e4:	fb0e 7711 	mls	r7, lr, r1, r7
 80007e8:	ea42 4207 	orr.w	r2, r2, r7, lsl #16
 80007ec:	fb01 f005 	mul.w	r0, r1, r5
 80007f0:	4290      	cmp	r0, r2
 80007f2:	d90a      	bls.n	800080a <__udivmoddi4+0x62>
 80007f4:	eb1c 0202 	adds.w	r2, ip, r2
 80007f8:	f101 37ff 	add.w	r7, r1, #4294967295
 80007fc:	f080 811c 	bcs.w	8000a38 <__udivmoddi4+0x290>
 8000800:	4290      	cmp	r0, r2
 8000802:	f240 8119 	bls.w	8000a38 <__udivmoddi4+0x290>
 8000806:	3902      	subs	r1, #2
 8000808:	4462      	add	r2, ip
 800080a:	1a12      	subs	r2, r2, r0
 800080c:	b2a4      	uxth	r4, r4
 800080e:	fbb2 f0fe 	udiv	r0, r2, lr
 8000812:	fb0e 2210 	mls	r2, lr, r0, r2
 8000816:	ea44 4402 	orr.w	r4, r4, r2, lsl #16
 800081a:	fb00 f505 	mul.w	r5, r0, r5
 800081e:	42a5      	cmp	r5, r4
 8000820:	d90a      	bls.n	8000838 <__udivmoddi4+0x90>
 8000822:	eb1c 0404 	adds.w	r4, ip, r4
 8000826:	f100 32ff 	add.w	r2, r0, #4294967295
 800082a:	f080 8107 	bcs.w	8000a3c <__udivmoddi4+0x294>
 800082e:	42a5      	cmp	r5, r4
 8000830:	f240 8104 	bls.w	8000a3c <__udivmoddi4+0x294>
 8000834:	4464      	add	r4, ip
 8000836:	3802      	subs	r0, #2
 8000838:	ea40 4001 	orr.w	r0, r0, r1, lsl #16
 800083c:	1b64      	subs	r4, r4, r5
 800083e:	2100      	movs	r1, #0
 8000840:	b11e      	cbz	r6, 800084a <__udivmoddi4+0xa2>
 8000842:	40dc      	lsrs	r4, r3
 8000844:	2300      	movs	r3, #0
 8000846:	e9c6 4300 	strd	r4, r3, [r6]
 800084a:	e8bd 87f0 	ldmia.w	sp!, {r4, r5, r6, r7, r8, r9, sl, pc}
 800084e:	428b      	cmp	r3, r1
 8000850:	d908      	bls.n	8000864 <__udivmoddi4+0xbc>
 8000852:	2e00      	cmp	r6, #0
 8000854:	f000 80ed 	beq.w	8000a32 <__udivmoddi4+0x28a>
 8000858:	2100      	movs	r1, #0
 800085a:	e9c6 0500 	strd	r0, r5, [r6]
 800085e:	4608      	mov	r0, r1
 8000860:	e8bd 87f0 	ldmia.w	sp!, {r4, r5, r6, r7, r8, r9, sl, pc}
 8000864:	fab3 f183 	clz	r1, r3
 8000868:	2900      	cmp	r1, #0
 800086a:	d149      	bne.n	8000900 <__udivmoddi4+0x158>
 800086c:	42ab      	cmp	r3, r5
 800086e:	d302      	bcc.n	8000876 <__udivmoddi4+0xce>
 8000870:	4282      	cmp	r2, r0
 8000872:	f200 80f8 	bhi.w	8000a66 <__udivmoddi4+0x2be>
 8000876:	1a84      	subs	r4, r0, r2
 8000878:	eb65 0203 	sbc.w	r2, r5, r3
 800087c:	2001      	movs	r0, #1
 800087e:	4617      	mov	r7, r2
 8000880:	2e00      	cmp	r6, #0
 8000882:	d0e2      	beq.n	800084a <__udivmoddi4+0xa2>
 8000884:	e9c6 4700 	strd	r4, r7, [r6]
 8000888:	e7df      	b.n	800084a <__udivmoddi4+0xa2>
 800088a:	b902      	cbnz	r2, 800088e <__udivmoddi4+0xe6>
 800088c:	deff      	udf	#255	; 0xff
 800088e:	fab2 f382 	clz	r3, r2
 8000892:	2b00      	cmp	r3, #0
 8000894:	f040 8090 	bne.w	80009b8 <__udivmoddi4+0x210>
 8000898:	1a8a      	subs	r2, r1, r2
 800089a:	ea4f 471c 	mov.w	r7, ip, lsr #16
 800089e:	fa1f fe8c 	uxth.w	lr, ip
 80008a2:	2101      	movs	r1, #1
 80008a4:	fbb2 f5f7 	udiv	r5, r2, r7
 80008a8:	fb07 2015 	mls	r0, r7, r5, r2
 80008ac:	0c22      	lsrs	r2, r4, #16
 80008ae:	ea42 4200 	orr.w	r2, r2, r0, lsl #16
 80008b2:	fb0e f005 	mul.w	r0, lr, r5
 80008b6:	4290      	cmp	r0, r2
 80008b8:	d908      	bls.n	80008cc <__udivmoddi4+0x124>
 80008ba:	eb1c 0202 	adds.w	r2, ip, r2
 80008be:	f105 38ff 	add.w	r8, r5, #4294967295
 80008c2:	d202      	bcs.n	80008ca <__udivmoddi4+0x122>
 80008c4:	4290      	cmp	r0, r2
 80008c6:	f200 80cb 	bhi.w	8000a60 <__udivmoddi4+0x2b8>
 80008ca:	4645      	mov	r5, r8
 80008cc:	1a12      	subs	r2, r2, r0
 80008ce:	b2a4      	uxth	r4, r4
 80008d0:	fbb2 f0f7 	udiv	r0, r2, r7
 80008d4:	fb07 2210 	mls	r2, r7, r0, r2
 80008d8:	ea44 4402 	orr.w	r4, r4, r2, lsl #16
 80008dc:	fb0e fe00 	mul.w	lr, lr, r0
 80008e0:	45a6      	cmp	lr, r4
 80008e2:	d908      	bls.n	80008f6 <__udivmoddi4+0x14e>
 80008e4:	eb1c 0404 	adds.w	r4, ip, r4
 80008e8:	f100 32ff 	add.w	r2, r0, #4294967295
 80008ec:	d202      	bcs.n	80008f4 <__udivmoddi4+0x14c>
 80008ee:	45a6      	cmp	lr, r4
 80008f0:	f200 80bb 	bhi.w	8000a6a <__udivmoddi4+0x2c2>
 80008f4:	4610      	mov	r0, r2
 80008f6:	eba4 040e 	sub.w	r4, r4, lr
 80008fa:	ea40 4005 	orr.w	r0, r0, r5, lsl #16
 80008fe:	e79f      	b.n	8000840 <__udivmoddi4+0x98>
 8000900:	f1c1 0720 	rsb	r7, r1, #32
 8000904:	408b      	lsls	r3, r1
 8000906:	fa22 fc07 	lsr.w	ip, r2, r7
 800090a:	ea4c 0c03 	orr.w	ip, ip, r3
 800090e:	fa05 f401 	lsl.w	r4, r5, r1
 8000912:	fa20 f307 	lsr.w	r3, r0, r7
 8000916:	40fd      	lsrs	r5, r7
 8000918:	ea4f 491c 	mov.w	r9, ip, lsr #16
 800091c:	4323      	orrs	r3, r4
 800091e:	fbb5 f8f9 	udiv	r8, r5, r9
 8000922:	fa1f fe8c 	uxth.w	lr, ip
 8000926:	fb09 5518 	mls	r5, r9, r8, r5
 800092a:	0c1c      	lsrs	r4, r3, #16
 800092c:	ea44 4405 	orr.w	r4, r4, r5, lsl #16
 8000930:	fb08 f50e 	mul.w	r5, r8, lr
 8000934:	42a5      	cmp	r5, r4
 8000936:	fa02 f201 	lsl.w	r2, r2, r1
 800093a:	fa00 f001 	lsl.w	r0, r0, r1
 800093e:	d90b      	bls.n	8000958 <__udivmoddi4+0x1b0>
 8000940:	eb1c 0404 	adds.w	r4, ip, r4
 8000944:	f108 3aff 	add.w	sl, r8, #4294967295
 8000948:	f080 8088 	bcs.w	8000a5c <__udivmoddi4+0x2b4>
 800094c:	42a5      	cmp	r5, r4
 800094e:	f240 8085 	bls.w	8000a5c <__udivmoddi4+0x2b4>
 8000952:	f1a8 0802 	sub.w	r8, r8, #2
 8000956:	4464      	add	r4, ip
 8000958:	1b64      	subs	r4, r4, r5
 800095a:	b29d      	uxth	r5, r3
 800095c:	fbb4 f3f9 	udiv	r3, r4, r9
 8000960:	fb09 4413 	mls	r4, r9, r3, r4
 8000964:	ea45 4404 	orr.w	r4, r5, r4, lsl #16
 8000968:	fb03 fe0e 	mul.w	lr, r3, lr
 800096c:	45a6      	cmp	lr, r4
 800096e:	d908      	bls.n	8000982 <__udivmoddi4+0x1da>
 8000970:	eb1c 0404 	adds.w	r4, ip, r4
 8000974:	f103 35ff 	add.w	r5, r3, #4294967295
 8000978:	d26c      	bcs.n	8000a54 <__udivmoddi4+0x2ac>
 800097a:	45a6      	cmp	lr, r4
 800097c:	d96a      	bls.n	8000a54 <__udivmoddi4+0x2ac>
 800097e:	3b02      	subs	r3, #2
 8000980:	4464      	add	r4, ip
 8000982:	ea43 4308 	orr.w	r3, r3, r8, lsl #16
 8000986:	fba3 9502 	umull	r9, r5, r3, r2
 800098a:	eba4 040e 	sub.w	r4, r4, lr
 800098e:	42ac      	cmp	r4, r5
 8000990:	46c8      	mov	r8, r9
 8000992:	46ae      	mov	lr, r5
 8000994:	d356      	bcc.n	8000a44 <__udivmoddi4+0x29c>
 8000996:	d053      	beq.n	8000a40 <__udivmoddi4+0x298>
 8000998:	b156      	cbz	r6, 80009b0 <__udivmoddi4+0x208>
 800099a:	ebb0 0208 	subs.w	r2, r0, r8
 800099e:	eb64 040e 	sbc.w	r4, r4, lr
 80009a2:	fa04 f707 	lsl.w	r7, r4, r7
 80009a6:	40ca      	lsrs	r2, r1
 80009a8:	40cc      	lsrs	r4, r1
 80009aa:	4317      	orrs	r7, r2
 80009ac:	e9c6 7400 	strd	r7, r4, [r6]
 80009b0:	4618      	mov	r0, r3
 80009b2:	2100      	movs	r1, #0
 80009b4:	e8bd 87f0 	ldmia.w	sp!, {r4, r5, r6, r7, r8, r9, sl, pc}
 80009b8:	f1c3 0120 	rsb	r1, r3, #32
 80009bc:	fa02 fc03 	lsl.w	ip, r2, r3
 80009c0:	fa20 f201 	lsr.w	r2, r0, r1
 80009c4:	fa25 f101 	lsr.w	r1, r5, r1
 80009c8:	409d      	lsls	r5, r3
 80009ca:	432a      	orrs	r2, r5
 80009cc:	ea4f 471c 	mov.w	r7, ip, lsr #16
 80009d0:	fa1f fe8c 	uxth.w	lr, ip
 80009d4:	fbb1 f0f7 	udiv	r0, r1, r7
 80009d8:	fb07 1510 	mls	r5, r7, r0, r1
 80009dc:	0c11      	lsrs	r1, r2, #16
 80009de:	ea41 4105 	orr.w	r1, r1, r5, lsl #16
 80009e2:	fb00 f50e 	mul.w	r5, r0, lr
 80009e6:	428d      	cmp	r5, r1
 80009e8:	fa04 f403 	lsl.w	r4, r4, r3
 80009ec:	d908      	bls.n	8000a00 <__udivmoddi4+0x258>
 80009ee:	eb1c 0101 	adds.w	r1, ip, r1
 80009f2:	f100 38ff 	add.w	r8, r0, #4294967295
 80009f6:	d22f      	bcs.n	8000a58 <__udivmoddi4+0x2b0>
 80009f8:	428d      	cmp	r5, r1
 80009fa:	d92d      	bls.n	8000a58 <__udivmoddi4+0x2b0>
 80009fc:	3802      	subs	r0, #2
 80009fe:	4461      	add	r1, ip
 8000a00:	1b49      	subs	r1, r1, r5
 8000a02:	b292      	uxth	r2, r2
 8000a04:	fbb1 f5f7 	udiv	r5, r1, r7
 8000a08:	fb07 1115 	mls	r1, r7, r5, r1
 8000a0c:	ea42 4201 	orr.w	r2, r2, r1, lsl #16
 8000a10:	fb05 f10e 	mul.w	r1, r5, lr
 8000a14:	4291      	cmp	r1, r2
 8000a16:	d908      	bls.n	8000a2a <__udivmoddi4+0x282>
 8000a18:	eb1c 0202 	adds.w	r2, ip, r2
 8000a1c:	f105 38ff 	add.w	r8, r5, #4294967295
 8000a20:	d216      	bcs.n	8000a50 <__udivmoddi4+0x2a8>
 8000a22:	4291      	cmp	r1, r2
 8000a24:	d914      	bls.n	8000a50 <__udivmoddi4+0x2a8>
 8000a26:	3d02      	subs	r5, #2
 8000a28:	4462      	add	r2, ip
 8000a2a:	1a52      	subs	r2, r2, r1
 8000a2c:	ea45 4100 	orr.w	r1, r5, r0, lsl #16
 8000a30:	e738      	b.n	80008a4 <__udivmoddi4+0xfc>
 8000a32:	4631      	mov	r1, r6
 8000a34:	4630      	mov	r0, r6
 8000a36:	e708      	b.n	800084a <__udivmoddi4+0xa2>
 8000a38:	4639      	mov	r1, r7
 8000a3a:	e6e6      	b.n	800080a <__udivmoddi4+0x62>
 8000a3c:	4610      	mov	r0, r2
 8000a3e:	e6fb      	b.n	8000838 <__udivmoddi4+0x90>
 8000a40:	4548      	cmp	r0, r9
 8000a42:	d2a9      	bcs.n	8000998 <__udivmoddi4+0x1f0>
 8000a44:	ebb9 0802 	subs.w	r8, r9, r2
 8000a48:	eb65 0e0c 	sbc.w	lr, r5, ip
 8000a4c:	3b01      	subs	r3, #1
 8000a4e:	e7a3      	b.n	8000998 <__udivmoddi4+0x1f0>
 8000a50:	4645      	mov	r5, r8
 8000a52:	e7ea      	b.n	8000a2a <__udivmoddi4+0x282>
 8000a54:	462b      	mov	r3, r5
 8000a56:	e794      	b.n	8000982 <__udivmoddi4+0x1da>
 8000a58:	4640      	mov	r0, r8
 8000a5a:	e7d1      	b.n	8000a00 <__udivmoddi4+0x258>
 8000a5c:	46d0      	mov	r8, sl
 8000a5e:	e77b      	b.n	8000958 <__udivmoddi4+0x1b0>
 8000a60:	3d02      	subs	r5, #2
 8000a62:	4462      	add	r2, ip
 8000a64:	e732      	b.n	80008cc <__udivmoddi4+0x124>
 8000a66:	4608      	mov	r0, r1
 8000a68:	e70a      	b.n	8000880 <__udivmoddi4+0xd8>
 8000a6a:	4464      	add	r4, ip
 8000a6c:	3802      	subs	r0, #2
 8000a6e:	e742      	b.n	80008f6 <__udivmoddi4+0x14e>

08000a70 <__aeabi_idiv0>:
 8000a70:	4770      	bx	lr
 8000a72:	bf00      	nop

08000a74 <boot_jump_app>:
	//FLASH_BASE+OFFSET
  SCB->VTOR=FLASH_BASE | offset;
}
//bootloader execute app
int boot_jump_app(uint32_t appAddr_stackTop)
{
 8000a74:	b580      	push	{r7, lr}
 8000a76:	b088      	sub	sp, #32
 8000a78:	af00      	add	r7, sp, #0
 8000a7a:	6078      	str	r0, [r7, #4]
	//获取栈顶指针值
	uint32_t stackTopAddrVlue=	*(uint32_t *)appAddr_stackTop;
 8000a7c:	687b      	ldr	r3, [r7, #4]
 8000a7e:	681b      	ldr	r3, [r3, #0]
 8000a80:	61fb      	str	r3, [r7, #28]
	//栈在ram中，而DTCMRAM的地址范围是0X20000000--0X2001FFFF
	//参数合法性校验
	if((appAddr_stackTop&0x0ff00000)!=0x08000000)
 8000a82:	687b      	ldr	r3, [r7, #4]
 8000a84:	f003 637f 	and.w	r3, r3, #267386880	; 0xff00000
 8000a88:	f1b3 6f00 	cmp.w	r3, #134217728	; 0x8000000
 8000a8c:	d001      	beq.n	8000a92 <boot_jump_app+0x1e>
	{
		return 1;
 8000a8e:	2301      	movs	r3, #1
 8000a90:	e023      	b.n	8000ada <boot_jump_app+0x66>
	}
	if((stackTopAddrVlue&0x2ff00000)==0X24000000)
 8000a92:	69fa      	ldr	r2, [r7, #28]
 8000a94:	4b13      	ldr	r3, [pc, #76]	; (8000ae4 <boot_jump_app+0x70>)
 8000a96:	4013      	ands	r3, r2
 8000a98:	f1b3 5f10 	cmp.w	r3, #603979776	; 0x24000000
 8000a9c:	d11a      	bne.n	8000ad4 <boot_jump_app+0x60>
	{
		/*跳转操作*/
		//获取中断向量表的地址 :app的flash地址偏移一个指针大小空间
		uint32_t intTableAddr=	*(uint32_t *)(appAddr_stackTop+sizeof(void *));
 8000a9e:	687b      	ldr	r3, [r7, #4]
 8000aa0:	3304      	adds	r3, #4
 8000aa2:	681b      	ldr	r3, [r3, #0]
 8000aa4:	61bb      	str	r3, [r7, #24]
		//复位向量表获取：
		uint32_t restHandleAddr=intTableAddr;
 8000aa6:	69bb      	ldr	r3, [r7, #24]
 8000aa8:	617b      	str	r3, [r7, #20]
		//复位向量表保存APP_FALSH_BASE_ADDR校验
		//中断向量表的第一个复位向量是程序执行的第一个函数指针一定在FLAH范围内
		if((restHandleAddr&0x0ff00000)==0x08000000)//中断向量表中复位向量的地址有效
 8000aaa:	697b      	ldr	r3, [r7, #20]
 8000aac:	f003 637f 	and.w	r3, r3, #267386880	; 0xff00000
 8000ab0:	f1b3 6f00 	cmp.w	r3, #134217728	; 0x8000000
 8000ab4:	d110      	bne.n	8000ad8 <boot_jump_app+0x64>
  \details Disables IRQ interrupts by setting the I-bit in the CPSR.
           Can only be executed in Privileged modes.
 */
__STATIC_FORCEINLINE void __disable_irq(void)
{
  __ASM volatile ("cpsid i" : : : "memory");
 8000ab6:	b672      	cpsid	i
}
 8000ab8:	bf00      	nop
		{
			//关中断
			__disable_irq();
			//获取复位向量的保存值，程序第一个运行的地址，复位向量保证执行程序的地址值
			uint32_t jumpAddr=restHandleAddr;
 8000aba:	697b      	ldr	r3, [r7, #20]
 8000abc:	613b      	str	r3, [r7, #16]
 8000abe:	69fb      	ldr	r3, [r7, #28]
 8000ac0:	60bb      	str	r3, [r7, #8]
  \details Assigns the given value to the Main Stack Pointer (MSP).
  \param [in]    topOfMainStack  Main Stack Pointer value to set
 */
__STATIC_FORCEINLINE void __set_MSP(uint32_t topOfMainStack)
{
  __ASM volatile ("MSR msp, %0" : : "r" (topOfMainStack) : );
 8000ac2:	68bb      	ldr	r3, [r7, #8]
 8000ac4:	f383 8808 	msr	MSP, r3
}
 8000ac8:	bf00      	nop
		  //设置新的栈顶指针,新的栈顶指针放入MSP中
		  __set_MSP(stackTopAddrVlue); //设置SP,堆栈栈顶地址
			//跳转地址值转成函数指针
		   pFunction jump2app=(pFunction)jumpAddr;
 8000aca:	693b      	ldr	r3, [r7, #16]
 8000acc:	60fb      	str	r3, [r7, #12]
		   //执行程序；
		   jump2app();
 8000ace:	68fb      	ldr	r3, [r7, #12]
 8000ad0:	4798      	blx	r3
 8000ad2:	e001      	b.n	8000ad8 <boot_jump_app+0x64>
		}
	}else
	{
		return 2;
 8000ad4:	2302      	movs	r3, #2
 8000ad6:	e000      	b.n	8000ada <boot_jump_app+0x66>
	}

	return 0;
 8000ad8:	2300      	movs	r3, #0
}
 8000ada:	4618      	mov	r0, r3
 8000adc:	3720      	adds	r7, #32
 8000ade:	46bd      	mov	sp, r7
 8000ae0:	bd80      	pop	{r7, pc}
 8000ae2:	bf00      	nop
 8000ae4:	2ff00000 	.word	0x2ff00000

08000ae8 <InvertUint32>:
 *      Author: ZHANGLIANG
 */


void InvertUint32(unsigned int *dBuf,unsigned int *srcBuf)
{
 8000ae8:	b480      	push	{r7}
 8000aea:	b089      	sub	sp, #36	; 0x24
 8000aec:	af00      	add	r7, sp, #0
 8000aee:	6078      	str	r0, [r7, #4]
 8000af0:	6039      	str	r1, [r7, #0]
	int i;
	unsigned int tmp[4]={0};
 8000af2:	f107 030c 	add.w	r3, r7, #12
 8000af6:	2200      	movs	r2, #0
 8000af8:	601a      	str	r2, [r3, #0]
 8000afa:	605a      	str	r2, [r3, #4]
 8000afc:	609a      	str	r2, [r3, #8]
 8000afe:	60da      	str	r2, [r3, #12]

	for(i=0;i< 32;i++)
 8000b00:	2300      	movs	r3, #0
 8000b02:	61fb      	str	r3, [r7, #28]
 8000b04:	e013      	b.n	8000b2e <InvertUint32+0x46>
	{
		if(srcBuf[0]& (1 << i))
 8000b06:	683b      	ldr	r3, [r7, #0]
 8000b08:	681b      	ldr	r3, [r3, #0]
 8000b0a:	2101      	movs	r1, #1
 8000b0c:	69fa      	ldr	r2, [r7, #28]
 8000b0e:	fa01 f202 	lsl.w	r2, r1, r2
 8000b12:	4013      	ands	r3, r2
 8000b14:	2b00      	cmp	r3, #0
 8000b16:	d007      	beq.n	8000b28 <InvertUint32+0x40>
		tmp[0]|=1<<(31 - i);
 8000b18:	68fa      	ldr	r2, [r7, #12]
 8000b1a:	f04f 4100 	mov.w	r1, #2147483648	; 0x80000000
 8000b1e:	69fb      	ldr	r3, [r7, #28]
 8000b20:	fa21 f303 	lsr.w	r3, r1, r3
 8000b24:	4313      	orrs	r3, r2
 8000b26:	60fb      	str	r3, [r7, #12]
	for(i=0;i< 32;i++)
 8000b28:	69fb      	ldr	r3, [r7, #28]
 8000b2a:	3301      	adds	r3, #1
 8000b2c:	61fb      	str	r3, [r7, #28]
 8000b2e:	69fb      	ldr	r3, [r7, #28]
 8000b30:	2b1f      	cmp	r3, #31
 8000b32:	dde8      	ble.n	8000b06 <InvertUint32+0x1e>
	}
	dBuf[0] = tmp[0];
 8000b34:	68fa      	ldr	r2, [r7, #12]
 8000b36:	687b      	ldr	r3, [r7, #4]
 8000b38:	601a      	str	r2, [r3, #0]
}
 8000b3a:	bf00      	nop
 8000b3c:	3724      	adds	r7, #36	; 0x24
 8000b3e:	46bd      	mov	sp, r7
 8000b40:	f85d 7b04 	ldr.w	r7, [sp], #4
 8000b44:	4770      	bx	lr
	...

08000b48 <CRC32>:

unsigned int CRC32(unsigned char *data, unsigned int datalen)
{
 8000b48:	b580      	push	{r7, lr}
 8000b4a:	b086      	sub	sp, #24
 8000b4c:	af00      	add	r7, sp, #0
 8000b4e:	6078      	str	r0, [r7, #4]
 8000b50:	6039      	str	r1, [r7, #0]

	unsigned int wCRCin = 0xFFFFFFFF;
 8000b52:	f04f 33ff 	mov.w	r3, #4294967295
 8000b56:	617b      	str	r3, [r7, #20]
	unsigned int wCPoly = 0x04C11DB7;
 8000b58:	4b1a      	ldr	r3, [pc, #104]	; (8000bc4 <CRC32+0x7c>)
 8000b5a:	60fb      	str	r3, [r7, #12]

	InvertUint32(&wCPoly,&wCPoly);
 8000b5c:	f107 020c 	add.w	r2, r7, #12
 8000b60:	f107 030c 	add.w	r3, r7, #12
 8000b64:	4611      	mov	r1, r2
 8000b66:	4618      	mov	r0, r3
 8000b68:	f7ff ffbe 	bl	8000ae8 <InvertUint32>
	while (datalen--)
 8000b6c:	e01e      	b.n	8000bac <CRC32+0x64>
	{
		wCRCin ^= *(data++);
 8000b6e:	687b      	ldr	r3, [r7, #4]
 8000b70:	1c5a      	adds	r2, r3, #1
 8000b72:	607a      	str	r2, [r7, #4]
 8000b74:	781b      	ldrb	r3, [r3, #0]
 8000b76:	461a      	mov	r2, r3
 8000b78:	697b      	ldr	r3, [r7, #20]
 8000b7a:	4053      	eors	r3, r2
 8000b7c:	617b      	str	r3, [r7, #20]
		for(int i = 0;i < 8;i++)
 8000b7e:	2300      	movs	r3, #0
 8000b80:	613b      	str	r3, [r7, #16]
 8000b82:	e010      	b.n	8000ba6 <CRC32+0x5e>
		{
			if(wCRCin & 0x01)
 8000b84:	697b      	ldr	r3, [r7, #20]
 8000b86:	f003 0301 	and.w	r3, r3, #1
 8000b8a:	2b00      	cmp	r3, #0
 8000b8c:	d005      	beq.n	8000b9a <CRC32+0x52>
				wCRCin = (wCRCin >> 1) ^ wCPoly;
 8000b8e:	697b      	ldr	r3, [r7, #20]
 8000b90:	085a      	lsrs	r2, r3, #1
 8000b92:	68fb      	ldr	r3, [r7, #12]
 8000b94:	4053      	eors	r3, r2
 8000b96:	617b      	str	r3, [r7, #20]
 8000b98:	e002      	b.n	8000ba0 <CRC32+0x58>
			else
				wCRCin = wCRCin >> 1;
 8000b9a:	697b      	ldr	r3, [r7, #20]
 8000b9c:	085b      	lsrs	r3, r3, #1
 8000b9e:	617b      	str	r3, [r7, #20]
		for(int i = 0;i < 8;i++)
 8000ba0:	693b      	ldr	r3, [r7, #16]
 8000ba2:	3301      	adds	r3, #1
 8000ba4:	613b      	str	r3, [r7, #16]
 8000ba6:	693b      	ldr	r3, [r7, #16]
 8000ba8:	2b07      	cmp	r3, #7
 8000baa:	ddeb      	ble.n	8000b84 <CRC32+0x3c>
	while (datalen--)
 8000bac:	683b      	ldr	r3, [r7, #0]
 8000bae:	1e5a      	subs	r2, r3, #1
 8000bb0:	603a      	str	r2, [r7, #0]
 8000bb2:	2b00      	cmp	r3, #0
 8000bb4:	d1db      	bne.n	8000b6e <CRC32+0x26>
		}
	}
	return (wCRCin ^ 0xFFFFFFFF) ;
 8000bb6:	697b      	ldr	r3, [r7, #20]
 8000bb8:	43db      	mvns	r3, r3
}
 8000bba:	4618      	mov	r0, r3
 8000bbc:	3718      	adds	r7, #24
 8000bbe:	46bd      	mov	sp, r7
 8000bc0:	bd80      	pop	{r7, pc}
 8000bc2:	bf00      	nop
 8000bc4:	04c11db7 	.word	0x04c11db7

08000bc8 <MX_GPIO_Init>:
     PH1-OSC_OUT (PH1)   ------> RCC_OSC_OUT
     PA13 (JTMS/SWDIO)   ------> DEBUG_JTMS-SWDIO
     PA14 (JTCK/SWCLK)   ------> DEBUG_JTCK-SWCLK
*/
void MX_GPIO_Init(void)
{
 8000bc8:	b580      	push	{r7, lr}
 8000bca:	b08a      	sub	sp, #40	; 0x28
 8000bcc:	af00      	add	r7, sp, #0

  GPIO_InitTypeDef GPIO_InitStruct = {0};
 8000bce:	f107 0314 	add.w	r3, r7, #20
 8000bd2:	2200      	movs	r2, #0
 8000bd4:	601a      	str	r2, [r3, #0]
 8000bd6:	605a      	str	r2, [r3, #4]
 8000bd8:	609a      	str	r2, [r3, #8]
 8000bda:	60da      	str	r2, [r3, #12]
 8000bdc:	611a      	str	r2, [r3, #16]

  /* GPIO Ports Clock Enable */
  __HAL_RCC_GPIOC_CLK_ENABLE();
 8000bde:	4b30      	ldr	r3, [pc, #192]	; (8000ca0 <MX_GPIO_Init+0xd8>)
 8000be0:	f8d3 30e0 	ldr.w	r3, [r3, #224]	; 0xe0
 8000be4:	4a2e      	ldr	r2, [pc, #184]	; (8000ca0 <MX_GPIO_Init+0xd8>)
 8000be6:	f043 0304 	orr.w	r3, r3, #4
 8000bea:	f8c2 30e0 	str.w	r3, [r2, #224]	; 0xe0
 8000bee:	4b2c      	ldr	r3, [pc, #176]	; (8000ca0 <MX_GPIO_Init+0xd8>)
 8000bf0:	f8d3 30e0 	ldr.w	r3, [r3, #224]	; 0xe0
 8000bf4:	f003 0304 	and.w	r3, r3, #4
 8000bf8:	613b      	str	r3, [r7, #16]
 8000bfa:	693b      	ldr	r3, [r7, #16]
  __HAL_RCC_GPIOH_CLK_ENABLE();
 8000bfc:	4b28      	ldr	r3, [pc, #160]	; (8000ca0 <MX_GPIO_Init+0xd8>)
 8000bfe:	f8d3 30e0 	ldr.w	r3, [r3, #224]	; 0xe0
 8000c02:	4a27      	ldr	r2, [pc, #156]	; (8000ca0 <MX_GPIO_Init+0xd8>)
 8000c04:	f043 0380 	orr.w	r3, r3, #128	; 0x80
 8000c08:	f8c2 30e0 	str.w	r3, [r2, #224]	; 0xe0
 8000c0c:	4b24      	ldr	r3, [pc, #144]	; (8000ca0 <MX_GPIO_Init+0xd8>)
 8000c0e:	f8d3 30e0 	ldr.w	r3, [r3, #224]	; 0xe0
 8000c12:	f003 0380 	and.w	r3, r3, #128	; 0x80
 8000c16:	60fb      	str	r3, [r7, #12]
 8000c18:	68fb      	ldr	r3, [r7, #12]
  __HAL_RCC_GPIOB_CLK_ENABLE();
 8000c1a:	4b21      	ldr	r3, [pc, #132]	; (8000ca0 <MX_GPIO_Init+0xd8>)
 8000c1c:	f8d3 30e0 	ldr.w	r3, [r3, #224]	; 0xe0
 8000c20:	4a1f      	ldr	r2, [pc, #124]	; (8000ca0 <MX_GPIO_Init+0xd8>)
 8000c22:	f043 0302 	orr.w	r3, r3, #2
 8000c26:	f8c2 30e0 	str.w	r3, [r2, #224]	; 0xe0
 8000c2a:	4b1d      	ldr	r3, [pc, #116]	; (8000ca0 <MX_GPIO_Init+0xd8>)
 8000c2c:	f8d3 30e0 	ldr.w	r3, [r3, #224]	; 0xe0
 8000c30:	f003 0302 	and.w	r3, r3, #2
 8000c34:	60bb      	str	r3, [r7, #8]
 8000c36:	68bb      	ldr	r3, [r7, #8]
  __HAL_RCC_GPIOA_CLK_ENABLE();
 8000c38:	4b19      	ldr	r3, [pc, #100]	; (8000ca0 <MX_GPIO_Init+0xd8>)
 8000c3a:	f8d3 30e0 	ldr.w	r3, [r3, #224]	; 0xe0
 8000c3e:	4a18      	ldr	r2, [pc, #96]	; (8000ca0 <MX_GPIO_Init+0xd8>)
 8000c40:	f043 0301 	orr.w	r3, r3, #1
 8000c44:	f8c2 30e0 	str.w	r3, [r2, #224]	; 0xe0
 8000c48:	4b15      	ldr	r3, [pc, #84]	; (8000ca0 <MX_GPIO_Init+0xd8>)
 8000c4a:	f8d3 30e0 	ldr.w	r3, [r3, #224]	; 0xe0
 8000c4e:	f003 0301 	and.w	r3, r3, #1
 8000c52:	607b      	str	r3, [r7, #4]
 8000c54:	687b      	ldr	r3, [r7, #4]

  /*Configure GPIO pin Output Level */
  HAL_GPIO_WritePin(LED1_GPIO_Port, LED1_Pin, GPIO_PIN_RESET);
 8000c56:	2200      	movs	r2, #0
 8000c58:	2101      	movs	r1, #1
 8000c5a:	4812      	ldr	r0, [pc, #72]	; (8000ca4 <MX_GPIO_Init+0xdc>)
 8000c5c:	f001 f850 	bl	8001d00 <HAL_GPIO_WritePin>

  /*Configure GPIO pin : PtPin */
  GPIO_InitStruct.Pin = KEY2_Pin;
 8000c60:	f44f 5300 	mov.w	r3, #8192	; 0x2000
 8000c64:	617b      	str	r3, [r7, #20]
  GPIO_InitStruct.Mode = GPIO_MODE_INPUT;
 8000c66:	2300      	movs	r3, #0
 8000c68:	61bb      	str	r3, [r7, #24]
  GPIO_InitStruct.Pull = GPIO_NOPULL;
 8000c6a:	2300      	movs	r3, #0
 8000c6c:	61fb      	str	r3, [r7, #28]
  HAL_GPIO_Init(KEY2_GPIO_Port, &GPIO_InitStruct);
 8000c6e:	f107 0314 	add.w	r3, r7, #20
 8000c72:	4619      	mov	r1, r3
 8000c74:	480c      	ldr	r0, [pc, #48]	; (8000ca8 <MX_GPIO_Init+0xe0>)
 8000c76:	f000 fe7b 	bl	8001970 <HAL_GPIO_Init>

  /*Configure GPIO pin : PtPin */
  GPIO_InitStruct.Pin = LED1_Pin;
 8000c7a:	2301      	movs	r3, #1
 8000c7c:	617b      	str	r3, [r7, #20]
  GPIO_InitStruct.Mode = GPIO_MODE_OUTPUT_PP;
 8000c7e:	2301      	movs	r3, #1
 8000c80:	61bb      	str	r3, [r7, #24]
  GPIO_InitStruct.Pull = GPIO_NOPULL;
 8000c82:	2300      	movs	r3, #0
 8000c84:	61fb      	str	r3, [r7, #28]
  GPIO_InitStruct.Speed = GPIO_SPEED_FREQ_LOW;
 8000c86:	2300      	movs	r3, #0
 8000c88:	623b      	str	r3, [r7, #32]
  HAL_GPIO_Init(LED1_GPIO_Port, &GPIO_InitStruct);
 8000c8a:	f107 0314 	add.w	r3, r7, #20
 8000c8e:	4619      	mov	r1, r3
 8000c90:	4804      	ldr	r0, [pc, #16]	; (8000ca4 <MX_GPIO_Init+0xdc>)
 8000c92:	f000 fe6d 	bl	8001970 <HAL_GPIO_Init>

}
 8000c96:	bf00      	nop
 8000c98:	3728      	adds	r7, #40	; 0x28
 8000c9a:	46bd      	mov	sp, r7
 8000c9c:	bd80      	pop	{r7, pc}
 8000c9e:	bf00      	nop
 8000ca0:	58024400 	.word	0x58024400
 8000ca4:	58020400 	.word	0x58020400
 8000ca8:	58020800 	.word	0x58020800

08000cac <__io_putchar>:
/* USER CODE END PFP */

/* Private user code ---------------------------------------------------------*/
/* USER CODE BEGIN 0 */
int __io_putchar(int ch)
{
 8000cac:	b480      	push	{r7}
 8000cae:	b083      	sub	sp, #12
 8000cb0:	af00      	add	r7, sp, #0
 8000cb2:	6078      	str	r0, [r7, #4]

	while(!(USART1->ISR&0X0040));
 8000cb4:	bf00      	nop
 8000cb6:	4b08      	ldr	r3, [pc, #32]	; (8000cd8 <__io_putchar+0x2c>)
 8000cb8:	69db      	ldr	r3, [r3, #28]
 8000cba:	f003 0340 	and.w	r3, r3, #64	; 0x40
 8000cbe:	2b00      	cmp	r3, #0
 8000cc0:	d0f9      	beq.n	8000cb6 <__io_putchar+0xa>
	USART1->TDR=ch;
 8000cc2:	4a05      	ldr	r2, [pc, #20]	; (8000cd8 <__io_putchar+0x2c>)
 8000cc4:	687b      	ldr	r3, [r7, #4]
 8000cc6:	6293      	str	r3, [r2, #40]	; 0x28
	return ch;
 8000cc8:	687b      	ldr	r3, [r7, #4]
}
 8000cca:	4618      	mov	r0, r3
 8000ccc:	370c      	adds	r7, #12
 8000cce:	46bd      	mov	sp, r7
 8000cd0:	f85d 7b04 	ldr.w	r7, [sp], #4
 8000cd4:	4770      	bx	lr
 8000cd6:	bf00      	nop
 8000cd8:	40011000 	.word	0x40011000

08000cdc <main>:
/**
  * @brief  The application entry point.
  * @retval int
  */
int main(void)
{
 8000cdc:	b5b0      	push	{r4, r5, r7, lr}
 8000cde:	b0a2      	sub	sp, #136	; 0x88
 8000ce0:	af00      	add	r7, sp, #0
  \details Turns on I-Cache
  */
__STATIC_FORCEINLINE void SCB_EnableICache (void)
{
  #if defined (__ICACHE_PRESENT) && (__ICACHE_PRESENT == 1U)
    if (SCB->CCR & SCB_CCR_IC_Msk) return;  /* return if ICache is already enabled */
 8000ce2:	4b45      	ldr	r3, [pc, #276]	; (8000df8 <main+0x11c>)
 8000ce4:	695b      	ldr	r3, [r3, #20]
 8000ce6:	f403 3300 	and.w	r3, r3, #131072	; 0x20000
 8000cea:	2b00      	cmp	r3, #0
 8000cec:	d11b      	bne.n	8000d26 <main+0x4a>
  \details Acts as a special kind of Data Memory Barrier.
           It completes when all explicit memory accesses before this instruction complete.
 */
__STATIC_FORCEINLINE void __DSB(void)
{
  __ASM volatile ("dsb 0xF":::"memory");
 8000cee:	f3bf 8f4f 	dsb	sy
}
 8000cf2:	bf00      	nop
  __ASM volatile ("isb 0xF":::"memory");
 8000cf4:	f3bf 8f6f 	isb	sy
}
 8000cf8:	bf00      	nop

    __DSB();
    __ISB();
    SCB->ICIALLU = 0UL;                     /* invalidate I-Cache */
 8000cfa:	4b3f      	ldr	r3, [pc, #252]	; (8000df8 <main+0x11c>)
 8000cfc:	2200      	movs	r2, #0
 8000cfe:	f8c3 2250 	str.w	r2, [r3, #592]	; 0x250
  __ASM volatile ("dsb 0xF":::"memory");
 8000d02:	f3bf 8f4f 	dsb	sy
}
 8000d06:	bf00      	nop
  __ASM volatile ("isb 0xF":::"memory");
 8000d08:	f3bf 8f6f 	isb	sy
}
 8000d0c:	bf00      	nop
    __DSB();
    __ISB();
    SCB->CCR |=  (uint32_t)SCB_CCR_IC_Msk;  /* enable I-Cache */
 8000d0e:	4b3a      	ldr	r3, [pc, #232]	; (8000df8 <main+0x11c>)
 8000d10:	695b      	ldr	r3, [r3, #20]
 8000d12:	4a39      	ldr	r2, [pc, #228]	; (8000df8 <main+0x11c>)
 8000d14:	f443 3300 	orr.w	r3, r3, #131072	; 0x20000
 8000d18:	6153      	str	r3, [r2, #20]
  __ASM volatile ("dsb 0xF":::"memory");
 8000d1a:	f3bf 8f4f 	dsb	sy
}
 8000d1e:	bf00      	nop
  __ASM volatile ("isb 0xF":::"memory");
 8000d20:	f3bf 8f6f 	isb	sy
}
 8000d24:	e000      	b.n	8000d28 <main+0x4c>
    if (SCB->CCR & SCB_CCR_IC_Msk) return;  /* return if ICache is already enabled */
 8000d26:	bf00      	nop
  SCB_EnableICache();

  /* MCU Configuration--------------------------------------------------------*/

  /* Reset of all peripherals, Initializes the Flash interface and the Systick. */
  HAL_Init();
 8000d28:	f000 fbd4 	bl	80014d4 <HAL_Init>

  /* MPU Configuration--------------------------------------------------------*/
  MPU_Config();
 8000d2c:	f000 f924 	bl	8000f78 <MPU_Config>

  /* USER CODE BEGIN Init */
  /* USER CODE END Init */

  /* Configure the system clock */
  SystemClock_Config();
 8000d30:	f000 f872 	bl	8000e18 <SystemClock_Config>
  /* USER CODE BEGIN SysInit */

  /* USER CODE END SysInit */

  /* Initialize all configured peripherals */
  MX_GPIO_Init();
 8000d34:	f7ff ff48 	bl	8000bc8 <MX_GPIO_Init>
  MX_USART1_UART_Init();
 8000d38:	f000 faec 	bl	8001314 <MX_USART1_UART_Init>
  MX_USB_DEVICE_Init();
 8000d3c:	f009 fc26 	bl	800a58c <MX_USB_DEVICE_Init>
  /* USER CODE BEGIN 2 */
  printf("init ok\n");
 8000d40:	482e      	ldr	r0, [pc, #184]	; (8000dfc <main+0x120>)
 8000d42:	f00b f8e1 	bl	800bf08 <puts>
  uint8_t txbuff[64]="jump into application!\n";
 8000d46:	4b2e      	ldr	r3, [pc, #184]	; (8000e00 <main+0x124>)
 8000d48:	f107 0440 	add.w	r4, r7, #64	; 0x40
 8000d4c:	461d      	mov	r5, r3
 8000d4e:	6828      	ldr	r0, [r5, #0]
 8000d50:	6869      	ldr	r1, [r5, #4]
 8000d52:	68aa      	ldr	r2, [r5, #8]
 8000d54:	68eb      	ldr	r3, [r5, #12]
 8000d56:	c40f      	stmia	r4!, {r0, r1, r2, r3}
 8000d58:	6928      	ldr	r0, [r5, #16]
 8000d5a:	6969      	ldr	r1, [r5, #20]
 8000d5c:	c403      	stmia	r4!, {r0, r1}
 8000d5e:	f107 0358 	add.w	r3, r7, #88	; 0x58
 8000d62:	2228      	movs	r2, #40	; 0x28
 8000d64:	2100      	movs	r1, #0
 8000d66:	4618      	mov	r0, r3
 8000d68:	f00b f9ce 	bl	800c108 <memset>
//  SystemInit();
  //CRC测试有效
  uint8_t testbuff[64]={1,2,3,4,5,6,7,8,9};
 8000d6c:	4a25      	ldr	r2, [pc, #148]	; (8000e04 <main+0x128>)
 8000d6e:	463b      	mov	r3, r7
 8000d70:	6810      	ldr	r0, [r2, #0]
 8000d72:	6851      	ldr	r1, [r2, #4]
 8000d74:	c303      	stmia	r3!, {r0, r1}
 8000d76:	8912      	ldrh	r2, [r2, #8]
 8000d78:	801a      	strh	r2, [r3, #0]
 8000d7a:	f107 030a 	add.w	r3, r7, #10
 8000d7e:	2236      	movs	r2, #54	; 0x36
 8000d80:	2100      	movs	r1, #0
 8000d82:	4618      	mov	r0, r3
 8000d84:	f00b f9c0 	bl	800c108 <memset>
  unsigned int ccResult=CRC32(testbuff, 4);
 8000d88:	463b      	mov	r3, r7
 8000d8a:	2104      	movs	r1, #4
 8000d8c:	4618      	mov	r0, r3
 8000d8e:	f7ff fedb 	bl	8000b48 <CRC32>
 8000d92:	f8c7 0084 	str.w	r0, [r7, #132]	; 0x84
  while (1)
  {
    /* USER CODE END WHILE */

    /* USER CODE BEGIN 3 */
	  if(HAL_GPIO_ReadPin( KEY2_GPIO_Port,  KEY2_Pin)==0)
 8000d96:	f44f 5100 	mov.w	r1, #8192	; 0x2000
 8000d9a:	481b      	ldr	r0, [pc, #108]	; (8000e08 <main+0x12c>)
 8000d9c:	f000 ff98 	bl	8001cd0 <HAL_GPIO_ReadPin>
 8000da0:	4603      	mov	r3, r0
 8000da2:	2b00      	cmp	r3, #0
 8000da4:	d1f7      	bne.n	8000d96 <main+0xba>
	  {
		  HAL_Delay(300);
 8000da6:	f44f 7096 	mov.w	r0, #300	; 0x12c
 8000daa:	f000 fc25 	bl	80015f8 <HAL_Delay>
		  if(HAL_GPIO_ReadPin( KEY2_GPIO_Port,  KEY2_Pin)==0)
 8000dae:	f44f 5100 	mov.w	r1, #8192	; 0x2000
 8000db2:	4815      	ldr	r0, [pc, #84]	; (8000e08 <main+0x12c>)
 8000db4:	f000 ff8c 	bl	8001cd0 <HAL_GPIO_ReadPin>
 8000db8:	4603      	mov	r3, r0
 8000dba:	2b00      	cmp	r3, #0
 8000dbc:	d1eb      	bne.n	8000d96 <main+0xba>
		  {
			  while(1)
			  {
				  uint8_t level_pin=HAL_GPIO_ReadPin( KEY2_GPIO_Port,  KEY2_Pin);
 8000dbe:	f44f 5100 	mov.w	r1, #8192	; 0x2000
 8000dc2:	4811      	ldr	r0, [pc, #68]	; (8000e08 <main+0x12c>)
 8000dc4:	f000 ff84 	bl	8001cd0 <HAL_GPIO_ReadPin>
 8000dc8:	4603      	mov	r3, r0
 8000dca:	f887 3083 	strb.w	r3, [r7, #131]	; 0x83
				  if(level_pin!=0)
 8000dce:	f897 3083 	ldrb.w	r3, [r7, #131]	; 0x83
 8000dd2:	2b00      	cmp	r3, #0
 8000dd4:	d100      	bne.n	8000dd8 <main+0xfc>
			  {
 8000dd6:	e7f2      	b.n	8000dbe <main+0xe2>
				  {
					  break;
 8000dd8:	bf00      	nop
				  }
			  }
			  USBD_CUSTOM_HID_SendReport(&hUsbDeviceFS,txbuff,64);
 8000dda:	f107 0340 	add.w	r3, r7, #64	; 0x40
 8000dde:	2240      	movs	r2, #64	; 0x40
 8000de0:	4619      	mov	r1, r3
 8000de2:	480a      	ldr	r0, [pc, #40]	; (8000e0c <main+0x130>)
 8000de4:	f007 ff26 	bl	8008c34 <USBD_CUSTOM_HID_SendReport>
			  printf("KEY2 Press \n");
 8000de8:	4809      	ldr	r0, [pc, #36]	; (8000e10 <main+0x134>)
 8000dea:	f00b f88d 	bl	800bf08 <puts>


			   boot_jump_app(JUMP_APP_ADDR);
 8000dee:	4809      	ldr	r0, [pc, #36]	; (8000e14 <main+0x138>)
 8000df0:	f7ff fe40 	bl	8000a74 <boot_jump_app>
	  if(HAL_GPIO_ReadPin( KEY2_GPIO_Port,  KEY2_Pin)==0)
 8000df4:	e7cf      	b.n	8000d96 <main+0xba>
 8000df6:	bf00      	nop
 8000df8:	e000ed00 	.word	0xe000ed00
 8000dfc:	0800f6d8 	.word	0x0800f6d8
 8000e00:	0800f6ec 	.word	0x0800f6ec
 8000e04:	0800f704 	.word	0x0800f704
 8000e08:	58020800 	.word	0x58020800
 8000e0c:	2400039c 	.word	0x2400039c
 8000e10:	0800f6e0 	.word	0x0800f6e0
 8000e14:	08020000 	.word	0x08020000

08000e18 <SystemClock_Config>:
/**
  * @brief System Clock Configuration
  * @retval None
  */
void SystemClock_Config(void)
{
 8000e18:	b580      	push	{r7, lr}
 8000e1a:	b09e      	sub	sp, #120	; 0x78
 8000e1c:	af00      	add	r7, sp, #0
  RCC_OscInitTypeDef RCC_OscInitStruct = {0};
 8000e1e:	f107 032c 	add.w	r3, r7, #44	; 0x2c
 8000e22:	224c      	movs	r2, #76	; 0x4c
 8000e24:	2100      	movs	r1, #0
 8000e26:	4618      	mov	r0, r3
 8000e28:	f00b f96e 	bl	800c108 <memset>
  RCC_ClkInitTypeDef RCC_ClkInitStruct = {0};
 8000e2c:	f107 030c 	add.w	r3, r7, #12
 8000e30:	2220      	movs	r2, #32
 8000e32:	2100      	movs	r1, #0
 8000e34:	4618      	mov	r0, r3
 8000e36:	f00b f967 	bl	800c108 <memset>

  /** Supply configuration update enable
  */
  HAL_PWREx_ConfigSupply(PWR_LDO_SUPPLY);
 8000e3a:	2002      	movs	r0, #2
 8000e3c:	f002 fa32 	bl	80032a4 <HAL_PWREx_ConfigSupply>

  /** Configure the main internal regulator output voltage
  */
  __HAL_PWR_VOLTAGESCALING_CONFIG(PWR_REGULATOR_VOLTAGE_SCALE1);
 8000e40:	2300      	movs	r3, #0
 8000e42:	60bb      	str	r3, [r7, #8]
 8000e44:	4b49      	ldr	r3, [pc, #292]	; (8000f6c <SystemClock_Config+0x154>)
 8000e46:	6adb      	ldr	r3, [r3, #44]	; 0x2c
 8000e48:	4a48      	ldr	r2, [pc, #288]	; (8000f6c <SystemClock_Config+0x154>)
 8000e4a:	f023 0301 	bic.w	r3, r3, #1
 8000e4e:	62d3      	str	r3, [r2, #44]	; 0x2c
 8000e50:	4b46      	ldr	r3, [pc, #280]	; (8000f6c <SystemClock_Config+0x154>)
 8000e52:	6adb      	ldr	r3, [r3, #44]	; 0x2c
 8000e54:	f003 0301 	and.w	r3, r3, #1
 8000e58:	60bb      	str	r3, [r7, #8]
 8000e5a:	4b45      	ldr	r3, [pc, #276]	; (8000f70 <SystemClock_Config+0x158>)
 8000e5c:	699b      	ldr	r3, [r3, #24]
 8000e5e:	4a44      	ldr	r2, [pc, #272]	; (8000f70 <SystemClock_Config+0x158>)
 8000e60:	f443 4340 	orr.w	r3, r3, #49152	; 0xc000
 8000e64:	6193      	str	r3, [r2, #24]
 8000e66:	4b42      	ldr	r3, [pc, #264]	; (8000f70 <SystemClock_Config+0x158>)
 8000e68:	699b      	ldr	r3, [r3, #24]
 8000e6a:	f403 4340 	and.w	r3, r3, #49152	; 0xc000
 8000e6e:	60bb      	str	r3, [r7, #8]
 8000e70:	68bb      	ldr	r3, [r7, #8]

  while(!__HAL_PWR_GET_FLAG(PWR_FLAG_VOSRDY)) {}
 8000e72:	bf00      	nop
 8000e74:	4b3e      	ldr	r3, [pc, #248]	; (8000f70 <SystemClock_Config+0x158>)
 8000e76:	699b      	ldr	r3, [r3, #24]
 8000e78:	f403 5300 	and.w	r3, r3, #8192	; 0x2000
 8000e7c:	f5b3 5f00 	cmp.w	r3, #8192	; 0x2000
 8000e80:	d1f8      	bne.n	8000e74 <SystemClock_Config+0x5c>

  __HAL_RCC_SYSCFG_CLK_ENABLE();
 8000e82:	4b3c      	ldr	r3, [pc, #240]	; (8000f74 <SystemClock_Config+0x15c>)
 8000e84:	f8d3 30f4 	ldr.w	r3, [r3, #244]	; 0xf4
 8000e88:	4a3a      	ldr	r2, [pc, #232]	; (8000f74 <SystemClock_Config+0x15c>)
 8000e8a:	f043 0302 	orr.w	r3, r3, #2
 8000e8e:	f8c2 30f4 	str.w	r3, [r2, #244]	; 0xf4
 8000e92:	4b38      	ldr	r3, [pc, #224]	; (8000f74 <SystemClock_Config+0x15c>)
 8000e94:	f8d3 30f4 	ldr.w	r3, [r3, #244]	; 0xf4
 8000e98:	f003 0302 	and.w	r3, r3, #2
 8000e9c:	607b      	str	r3, [r7, #4]
 8000e9e:	687b      	ldr	r3, [r7, #4]
  __HAL_PWR_VOLTAGESCALING_CONFIG(PWR_REGULATOR_VOLTAGE_SCALE0);
 8000ea0:	2300      	movs	r3, #0
 8000ea2:	603b      	str	r3, [r7, #0]
 8000ea4:	4b32      	ldr	r3, [pc, #200]	; (8000f70 <SystemClock_Config+0x158>)
 8000ea6:	699b      	ldr	r3, [r3, #24]
 8000ea8:	4a31      	ldr	r2, [pc, #196]	; (8000f70 <SystemClock_Config+0x158>)
 8000eaa:	f443 4340 	orr.w	r3, r3, #49152	; 0xc000
 8000eae:	6193      	str	r3, [r2, #24]
 8000eb0:	4b2f      	ldr	r3, [pc, #188]	; (8000f70 <SystemClock_Config+0x158>)
 8000eb2:	699b      	ldr	r3, [r3, #24]
 8000eb4:	f403 4340 	and.w	r3, r3, #49152	; 0xc000
 8000eb8:	603b      	str	r3, [r7, #0]
 8000eba:	4b2c      	ldr	r3, [pc, #176]	; (8000f6c <SystemClock_Config+0x154>)
 8000ebc:	6adb      	ldr	r3, [r3, #44]	; 0x2c
 8000ebe:	4a2b      	ldr	r2, [pc, #172]	; (8000f6c <SystemClock_Config+0x154>)
 8000ec0:	f043 0301 	orr.w	r3, r3, #1
 8000ec4:	62d3      	str	r3, [r2, #44]	; 0x2c
 8000ec6:	4b29      	ldr	r3, [pc, #164]	; (8000f6c <SystemClock_Config+0x154>)
 8000ec8:	6adb      	ldr	r3, [r3, #44]	; 0x2c
 8000eca:	f003 0301 	and.w	r3, r3, #1
 8000ece:	603b      	str	r3, [r7, #0]
 8000ed0:	683b      	ldr	r3, [r7, #0]

  while(!__HAL_PWR_GET_FLAG(PWR_FLAG_VOSRDY)) {}
 8000ed2:	bf00      	nop
 8000ed4:	4b26      	ldr	r3, [pc, #152]	; (8000f70 <SystemClock_Config+0x158>)
 8000ed6:	699b      	ldr	r3, [r3, #24]
 8000ed8:	f403 5300 	and.w	r3, r3, #8192	; 0x2000
 8000edc:	f5b3 5f00 	cmp.w	r3, #8192	; 0x2000
 8000ee0:	d1f8      	bne.n	8000ed4 <SystemClock_Config+0xbc>

  /** Initializes the RCC Oscillators according to the specified parameters
  * in the RCC_OscInitTypeDef structure.
  */
  RCC_OscInitStruct.OscillatorType = RCC_OSCILLATORTYPE_HSI48|RCC_OSCILLATORTYPE_HSE;
 8000ee2:	2321      	movs	r3, #33	; 0x21
 8000ee4:	62fb      	str	r3, [r7, #44]	; 0x2c
  RCC_OscInitStruct.HSEState = RCC_HSE_ON;
 8000ee6:	f44f 3380 	mov.w	r3, #65536	; 0x10000
 8000eea:	633b      	str	r3, [r7, #48]	; 0x30
  RCC_OscInitStruct.HSI48State = RCC_HSI48_ON;
 8000eec:	2301      	movs	r3, #1
 8000eee:	647b      	str	r3, [r7, #68]	; 0x44
  RCC_OscInitStruct.PLL.PLLState = RCC_PLL_ON;
 8000ef0:	2302      	movs	r3, #2
 8000ef2:	653b      	str	r3, [r7, #80]	; 0x50
  RCC_OscInitStruct.PLL.PLLSource = RCC_PLLSOURCE_HSE;
 8000ef4:	2302      	movs	r3, #2
 8000ef6:	657b      	str	r3, [r7, #84]	; 0x54
  RCC_OscInitStruct.PLL.PLLM = 2;
 8000ef8:	2302      	movs	r3, #2
 8000efa:	65bb      	str	r3, [r7, #88]	; 0x58
  RCC_OscInitStruct.PLL.PLLN = 64;
 8000efc:	2340      	movs	r3, #64	; 0x40
 8000efe:	65fb      	str	r3, [r7, #92]	; 0x5c
  RCC_OscInitStruct.PLL.PLLP = 2;
 8000f00:	2302      	movs	r3, #2
 8000f02:	663b      	str	r3, [r7, #96]	; 0x60
  RCC_OscInitStruct.PLL.PLLQ = 2;
 8000f04:	2302      	movs	r3, #2
 8000f06:	667b      	str	r3, [r7, #100]	; 0x64
  RCC_OscInitStruct.PLL.PLLR = 2;
 8000f08:	2302      	movs	r3, #2
 8000f0a:	66bb      	str	r3, [r7, #104]	; 0x68
  RCC_OscInitStruct.PLL.PLLRGE = RCC_PLL1VCIRANGE_3;
 8000f0c:	230c      	movs	r3, #12
 8000f0e:	66fb      	str	r3, [r7, #108]	; 0x6c
  RCC_OscInitStruct.PLL.PLLVCOSEL = RCC_PLL1VCOWIDE;
 8000f10:	2300      	movs	r3, #0
 8000f12:	673b      	str	r3, [r7, #112]	; 0x70
  RCC_OscInitStruct.PLL.PLLFRACN = 0;
 8000f14:	2300      	movs	r3, #0
 8000f16:	677b      	str	r3, [r7, #116]	; 0x74
  if (HAL_RCC_OscConfig(&RCC_OscInitStruct) != HAL_OK)
 8000f18:	f107 032c 	add.w	r3, r7, #44	; 0x2c
 8000f1c:	4618      	mov	r0, r3
 8000f1e:	f002 fa0b 	bl	8003338 <HAL_RCC_OscConfig>
 8000f22:	4603      	mov	r3, r0
 8000f24:	2b00      	cmp	r3, #0
 8000f26:	d001      	beq.n	8000f2c <SystemClock_Config+0x114>
  {
    Error_Handler();
 8000f28:	f000 f852 	bl	8000fd0 <Error_Handler>
  }

  /** Initializes the CPU, AHB and APB buses clocks
  */
  RCC_ClkInitStruct.ClockType = RCC_CLOCKTYPE_HCLK|RCC_CLOCKTYPE_SYSCLK
 8000f2c:	233f      	movs	r3, #63	; 0x3f
 8000f2e:	60fb      	str	r3, [r7, #12]
                              |RCC_CLOCKTYPE_PCLK1|RCC_CLOCKTYPE_PCLK2
                              |RCC_CLOCKTYPE_D3PCLK1|RCC_CLOCKTYPE_D1PCLK1;
  RCC_ClkInitStruct.SYSCLKSource = RCC_SYSCLKSOURCE_PLLCLK;
 8000f30:	2303      	movs	r3, #3
 8000f32:	613b      	str	r3, [r7, #16]
  RCC_ClkInitStruct.SYSCLKDivider = RCC_SYSCLK_DIV1;
 8000f34:	2300      	movs	r3, #0
 8000f36:	617b      	str	r3, [r7, #20]
  RCC_ClkInitStruct.AHBCLKDivider = RCC_HCLK_DIV2;
 8000f38:	2308      	movs	r3, #8
 8000f3a:	61bb      	str	r3, [r7, #24]
  RCC_ClkInitStruct.APB3CLKDivider = RCC_APB3_DIV2;
 8000f3c:	2340      	movs	r3, #64	; 0x40
 8000f3e:	61fb      	str	r3, [r7, #28]
  RCC_ClkInitStruct.APB1CLKDivider = RCC_APB1_DIV2;
 8000f40:	2340      	movs	r3, #64	; 0x40
 8000f42:	623b      	str	r3, [r7, #32]
  RCC_ClkInitStruct.APB2CLKDivider = RCC_APB2_DIV2;
 8000f44:	f44f 6380 	mov.w	r3, #1024	; 0x400
 8000f48:	627b      	str	r3, [r7, #36]	; 0x24
  RCC_ClkInitStruct.APB4CLKDivider = RCC_APB4_DIV2;
 8000f4a:	2340      	movs	r3, #64	; 0x40
 8000f4c:	62bb      	str	r3, [r7, #40]	; 0x28

  if (HAL_RCC_ClockConfig(&RCC_ClkInitStruct, FLASH_LATENCY_2) != HAL_OK)
 8000f4e:	f107 030c 	add.w	r3, r7, #12
 8000f52:	2102      	movs	r1, #2
 8000f54:	4618      	mov	r0, r3
 8000f56:	f002 fe49 	bl	8003bec <HAL_RCC_ClockConfig>
 8000f5a:	4603      	mov	r3, r0
 8000f5c:	2b00      	cmp	r3, #0
 8000f5e:	d001      	beq.n	8000f64 <SystemClock_Config+0x14c>
  {
    Error_Handler();
 8000f60:	f000 f836 	bl	8000fd0 <Error_Handler>
  }
}
 8000f64:	bf00      	nop
 8000f66:	3778      	adds	r7, #120	; 0x78
 8000f68:	46bd      	mov	sp, r7
 8000f6a:	bd80      	pop	{r7, pc}
 8000f6c:	58000400 	.word	0x58000400
 8000f70:	58024800 	.word	0x58024800
 8000f74:	58024400 	.word	0x58024400

08000f78 <MPU_Config>:
/* USER CODE END 4 */

/* MPU Configuration */

void MPU_Config(void)
{
 8000f78:	b580      	push	{r7, lr}
 8000f7a:	b084      	sub	sp, #16
 8000f7c:	af00      	add	r7, sp, #0
  MPU_Region_InitTypeDef MPU_InitStruct = {0};
 8000f7e:	463b      	mov	r3, r7
 8000f80:	2200      	movs	r2, #0
 8000f82:	601a      	str	r2, [r3, #0]
 8000f84:	605a      	str	r2, [r3, #4]
 8000f86:	609a      	str	r2, [r3, #8]
 8000f88:	60da      	str	r2, [r3, #12]

  /* Disables the MPU */
  HAL_MPU_Disable();
 8000f8a:	f000 fc75 	bl	8001878 <HAL_MPU_Disable>

  /** Initializes and configures the Region and the memory to be protected
  */
  MPU_InitStruct.Enable = MPU_REGION_ENABLE;
 8000f8e:	2301      	movs	r3, #1
 8000f90:	703b      	strb	r3, [r7, #0]
  MPU_InitStruct.Number = MPU_REGION_NUMBER0;
 8000f92:	2300      	movs	r3, #0
 8000f94:	707b      	strb	r3, [r7, #1]
  MPU_InitStruct.BaseAddress = 0x0;
 8000f96:	2300      	movs	r3, #0
 8000f98:	607b      	str	r3, [r7, #4]
  MPU_InitStruct.Size = MPU_REGION_SIZE_4GB;
 8000f9a:	231f      	movs	r3, #31
 8000f9c:	723b      	strb	r3, [r7, #8]
  MPU_InitStruct.SubRegionDisable = 0x87;
 8000f9e:	2387      	movs	r3, #135	; 0x87
 8000fa0:	727b      	strb	r3, [r7, #9]
  MPU_InitStruct.TypeExtField = MPU_TEX_LEVEL0;
 8000fa2:	2300      	movs	r3, #0
 8000fa4:	72bb      	strb	r3, [r7, #10]
  MPU_InitStruct.AccessPermission = MPU_REGION_NO_ACCESS;
 8000fa6:	2300      	movs	r3, #0
 8000fa8:	72fb      	strb	r3, [r7, #11]
  MPU_InitStruct.DisableExec = MPU_INSTRUCTION_ACCESS_DISABLE;
 8000faa:	2301      	movs	r3, #1
 8000fac:	733b      	strb	r3, [r7, #12]
  MPU_InitStruct.IsShareable = MPU_ACCESS_SHAREABLE;
 8000fae:	2301      	movs	r3, #1
 8000fb0:	737b      	strb	r3, [r7, #13]
  MPU_InitStruct.IsCacheable = MPU_ACCESS_NOT_CACHEABLE;
 8000fb2:	2300      	movs	r3, #0
 8000fb4:	73bb      	strb	r3, [r7, #14]
  MPU_InitStruct.IsBufferable = MPU_ACCESS_NOT_BUFFERABLE;
 8000fb6:	2300      	movs	r3, #0
 8000fb8:	73fb      	strb	r3, [r7, #15]

  HAL_MPU_ConfigRegion(&MPU_InitStruct);
 8000fba:	463b      	mov	r3, r7
 8000fbc:	4618      	mov	r0, r3
 8000fbe:	f000 fc93 	bl	80018e8 <HAL_MPU_ConfigRegion>
  /* Enables the MPU */
  HAL_MPU_Enable(MPU_PRIVILEGED_DEFAULT);
 8000fc2:	2004      	movs	r0, #4
 8000fc4:	f000 fc70 	bl	80018a8 <HAL_MPU_Enable>

}
 8000fc8:	bf00      	nop
 8000fca:	3710      	adds	r7, #16
 8000fcc:	46bd      	mov	sp, r7
 8000fce:	bd80      	pop	{r7, pc}

08000fd0 <Error_Handler>:
/**
  * @brief  This function is executed in case of error occurrence.
  * @retval None
  */
void Error_Handler(void)
{
 8000fd0:	b480      	push	{r7}
 8000fd2:	af00      	add	r7, sp, #0
  __ASM volatile ("cpsid i" : : : "memory");
 8000fd4:	b672      	cpsid	i
}
 8000fd6:	bf00      	nop
  /* USER CODE BEGIN Error_Handler_Debug */
  /* User can add his own implementation to report the HAL error return state */
  __disable_irq();
  while (1)
 8000fd8:	e7fe      	b.n	8000fd8 <Error_Handler+0x8>
	...

08000fdc <HAL_MspInit>:
/* USER CODE END 0 */
/**
  * Initializes the Global MSP.
  */
void HAL_MspInit(void)
{
 8000fdc:	b480      	push	{r7}
 8000fde:	b083      	sub	sp, #12
 8000fe0:	af00      	add	r7, sp, #0
  /* USER CODE BEGIN MspInit 0 */

  /* USER CODE END MspInit 0 */

  __HAL_RCC_SYSCFG_CLK_ENABLE();
 8000fe2:	4b0a      	ldr	r3, [pc, #40]	; (800100c <HAL_MspInit+0x30>)
 8000fe4:	f8d3 30f4 	ldr.w	r3, [r3, #244]	; 0xf4
 8000fe8:	4a08      	ldr	r2, [pc, #32]	; (800100c <HAL_MspInit+0x30>)
 8000fea:	f043 0302 	orr.w	r3, r3, #2
 8000fee:	f8c2 30f4 	str.w	r3, [r2, #244]	; 0xf4
 8000ff2:	4b06      	ldr	r3, [pc, #24]	; (800100c <HAL_MspInit+0x30>)
 8000ff4:	f8d3 30f4 	ldr.w	r3, [r3, #244]	; 0xf4
 8000ff8:	f003 0302 	and.w	r3, r3, #2
 8000ffc:	607b      	str	r3, [r7, #4]
 8000ffe:	687b      	ldr	r3, [r7, #4]
  /* System interrupt init*/

  /* USER CODE BEGIN MspInit 1 */

  /* USER CODE END MspInit 1 */
}
 8001000:	bf00      	nop
 8001002:	370c      	adds	r7, #12
 8001004:	46bd      	mov	sp, r7
 8001006:	f85d 7b04 	ldr.w	r7, [sp], #4
 800100a:	4770      	bx	lr
 800100c:	58024400 	.word	0x58024400

08001010 <NMI_Handler>:
/******************************************************************************/
/**
  * @brief This function handles Non maskable interrupt.
  */
void NMI_Handler(void)
{
 8001010:	b480      	push	{r7}
 8001012:	af00      	add	r7, sp, #0
  /* USER CODE BEGIN NonMaskableInt_IRQn 0 */

  /* USER CODE END NonMaskableInt_IRQn 0 */
  /* USER CODE BEGIN NonMaskableInt_IRQn 1 */
  while (1)
 8001014:	e7fe      	b.n	8001014 <NMI_Handler+0x4>

08001016 <HardFault_Handler>:

/**
  * @brief This function handles Hard fault interrupt.
  */
void HardFault_Handler(void)
{
 8001016:	b480      	push	{r7}
 8001018:	af00      	add	r7, sp, #0
  /* USER CODE BEGIN HardFault_IRQn 0 */

  /* USER CODE END HardFault_IRQn 0 */
  while (1)
 800101a:	e7fe      	b.n	800101a <HardFault_Handler+0x4>

0800101c <MemManage_Handler>:

/**
  * @brief This function handles Memory management fault.
  */
void MemManage_Handler(void)
{
 800101c:	b480      	push	{r7}
 800101e:	af00      	add	r7, sp, #0
  /* USER CODE BEGIN MemoryManagement_IRQn 0 */

  /* USER CODE END MemoryManagement_IRQn 0 */
  while (1)
 8001020:	e7fe      	b.n	8001020 <MemManage_Handler+0x4>

08001022 <BusFault_Handler>:

/**
  * @brief This function handles Pre-fetch fault, memory access fault.
  */
void BusFault_Handler(void)
{
 8001022:	b480      	push	{r7}
 8001024:	af00      	add	r7, sp, #0
  /* USER CODE BEGIN BusFault_IRQn 0 */

  /* USER CODE END BusFault_IRQn 0 */
  while (1)
 8001026:	e7fe      	b.n	8001026 <BusFault_Handler+0x4>

08001028 <UsageFault_Handler>:

/**
  * @brief This function handles Undefined instruction or illegal state.
  */
void UsageFault_Handler(void)
{
 8001028:	b480      	push	{r7}
 800102a:	af00      	add	r7, sp, #0
  /* USER CODE BEGIN UsageFault_IRQn 0 */

  /* USER CODE END UsageFault_IRQn 0 */
  while (1)
 800102c:	e7fe      	b.n	800102c <UsageFault_Handler+0x4>

0800102e <SVC_Handler>:

/**
  * @brief This function handles System service call via SWI instruction.
  */
void SVC_Handler(void)
{
 800102e:	b480      	push	{r7}
 8001030:	af00      	add	r7, sp, #0

  /* USER CODE END SVCall_IRQn 0 */
  /* USER CODE BEGIN SVCall_IRQn 1 */

  /* USER CODE END SVCall_IRQn 1 */
}
 8001032:	bf00      	nop
 8001034:	46bd      	mov	sp, r7
 8001036:	f85d 7b04 	ldr.w	r7, [sp], #4
 800103a:	4770      	bx	lr

0800103c <DebugMon_Handler>:

/**
  * @brief This function handles Debug monitor.
  */
void DebugMon_Handler(void)
{
 800103c:	b480      	push	{r7}
 800103e:	af00      	add	r7, sp, #0

  /* USER CODE END DebugMonitor_IRQn 0 */
  /* USER CODE BEGIN DebugMonitor_IRQn 1 */

  /* USER CODE END DebugMonitor_IRQn 1 */
}
 8001040:	bf00      	nop
 8001042:	46bd      	mov	sp, r7
 8001044:	f85d 7b04 	ldr.w	r7, [sp], #4
 8001048:	4770      	bx	lr

0800104a <PendSV_Handler>:

/**
  * @brief This function handles Pendable request for system service.
  */
void PendSV_Handler(void)
{
 800104a:	b480      	push	{r7}
 800104c:	af00      	add	r7, sp, #0

  /* USER CODE END PendSV_IRQn 0 */
  /* USER CODE BEGIN PendSV_IRQn 1 */

  /* USER CODE END PendSV_IRQn 1 */
}
 800104e:	bf00      	nop
 8001050:	46bd      	mov	sp, r7
 8001052:	f85d 7b04 	ldr.w	r7, [sp], #4
 8001056:	4770      	bx	lr

08001058 <SysTick_Handler>:

/**
  * @brief This function handles System tick timer.
  */
void SysTick_Handler(void)
{
 8001058:	b580      	push	{r7, lr}
 800105a:	af00      	add	r7, sp, #0
  /* USER CODE BEGIN SysTick_IRQn 0 */

  /* USER CODE END SysTick_IRQn 0 */
  HAL_IncTick();
 800105c:	f000 faac 	bl	80015b8 <HAL_IncTick>
  /* USER CODE BEGIN SysTick_IRQn 1 */

  /* USER CODE END SysTick_IRQn 1 */
}
 8001060:	bf00      	nop
 8001062:	bd80      	pop	{r7, pc}

08001064 <OTG_FS_IRQHandler>:

/**
  * @brief This function handles USB On The Go FS global interrupt.
  */
void OTG_FS_IRQHandler(void)
{
 8001064:	b580      	push	{r7, lr}
 8001066:	af00      	add	r7, sp, #0
  /* USER CODE BEGIN OTG_FS_IRQn 0 */

  /* USER CODE END OTG_FS_IRQn 0 */
  HAL_PCD_IRQHandler(&hpcd_USB_OTG_FS);
 8001068:	4802      	ldr	r0, [pc, #8]	; (8001074 <OTG_FS_IRQHandler+0x10>)
 800106a:	f000 ffbb 	bl	8001fe4 <HAL_PCD_IRQHandler>
  /* USER CODE BEGIN OTG_FS_IRQn 1 */

  /* USER CODE END OTG_FS_IRQn 1 */
}
 800106e:	bf00      	nop
 8001070:	bd80      	pop	{r7, pc}
 8001072:	bf00      	nop
 8001074:	24006880 	.word	0x24006880

08001078 <_getpid>:
void initialise_monitor_handles()
{
}

int _getpid(void)
{
 8001078:	b480      	push	{r7}
 800107a:	af00      	add	r7, sp, #0
  return 1;
 800107c:	2301      	movs	r3, #1
}
 800107e:	4618      	mov	r0, r3
 8001080:	46bd      	mov	sp, r7
 8001082:	f85d 7b04 	ldr.w	r7, [sp], #4
 8001086:	4770      	bx	lr

08001088 <_kill>:

int _kill(int pid, int sig)
{
 8001088:	b580      	push	{r7, lr}
 800108a:	b082      	sub	sp, #8
 800108c:	af00      	add	r7, sp, #0
 800108e:	6078      	str	r0, [r7, #4]
 8001090:	6039      	str	r1, [r7, #0]
  (void)pid;
  (void)sig;
  errno = EINVAL;
 8001092:	f00b f88b 	bl	800c1ac <__errno>
 8001096:	4603      	mov	r3, r0
 8001098:	2216      	movs	r2, #22
 800109a:	601a      	str	r2, [r3, #0]
  return -1;
 800109c:	f04f 33ff 	mov.w	r3, #4294967295
}
 80010a0:	4618      	mov	r0, r3
 80010a2:	3708      	adds	r7, #8
 80010a4:	46bd      	mov	sp, r7
 80010a6:	bd80      	pop	{r7, pc}

080010a8 <_exit>:

void _exit (int status)
{
 80010a8:	b580      	push	{r7, lr}
 80010aa:	b082      	sub	sp, #8
 80010ac:	af00      	add	r7, sp, #0
 80010ae:	6078      	str	r0, [r7, #4]
  _kill(status, -1);
 80010b0:	f04f 31ff 	mov.w	r1, #4294967295
 80010b4:	6878      	ldr	r0, [r7, #4]
 80010b6:	f7ff ffe7 	bl	8001088 <_kill>
  while (1) {}    /* Make sure we hang here */
 80010ba:	e7fe      	b.n	80010ba <_exit+0x12>

080010bc <_read>:
}

__attribute__((weak)) int _read(int file, char *ptr, int len)
{
 80010bc:	b580      	push	{r7, lr}
 80010be:	b086      	sub	sp, #24
 80010c0:	af00      	add	r7, sp, #0
 80010c2:	60f8      	str	r0, [r7, #12]
 80010c4:	60b9      	str	r1, [r7, #8]
 80010c6:	607a      	str	r2, [r7, #4]
  (void)file;
  int DataIdx;

  for (DataIdx = 0; DataIdx < len; DataIdx++)
 80010c8:	2300      	movs	r3, #0
 80010ca:	617b      	str	r3, [r7, #20]
 80010cc:	e00a      	b.n	80010e4 <_read+0x28>
  {
    *ptr++ = __io_getchar();
 80010ce:	f3af 8000 	nop.w
 80010d2:	4601      	mov	r1, r0
 80010d4:	68bb      	ldr	r3, [r7, #8]
 80010d6:	1c5a      	adds	r2, r3, #1
 80010d8:	60ba      	str	r2, [r7, #8]
 80010da:	b2ca      	uxtb	r2, r1
 80010dc:	701a      	strb	r2, [r3, #0]
  for (DataIdx = 0; DataIdx < len; DataIdx++)
 80010de:	697b      	ldr	r3, [r7, #20]
 80010e0:	3301      	adds	r3, #1
 80010e2:	617b      	str	r3, [r7, #20]
 80010e4:	697a      	ldr	r2, [r7, #20]
 80010e6:	687b      	ldr	r3, [r7, #4]
 80010e8:	429a      	cmp	r2, r3
 80010ea:	dbf0      	blt.n	80010ce <_read+0x12>
  }

  return len;
 80010ec:	687b      	ldr	r3, [r7, #4]
}
 80010ee:	4618      	mov	r0, r3
 80010f0:	3718      	adds	r7, #24
 80010f2:	46bd      	mov	sp, r7
 80010f4:	bd80      	pop	{r7, pc}

080010f6 <_write>:

__attribute__((weak)) int _write(int file, char *ptr, int len)
{
 80010f6:	b580      	push	{r7, lr}
 80010f8:	b086      	sub	sp, #24
 80010fa:	af00      	add	r7, sp, #0
 80010fc:	60f8      	str	r0, [r7, #12]
 80010fe:	60b9      	str	r1, [r7, #8]
 8001100:	607a      	str	r2, [r7, #4]
  (void)file;
  int DataIdx;

  for (DataIdx = 0; DataIdx < len; DataIdx++)
 8001102:	2300      	movs	r3, #0
 8001104:	617b      	str	r3, [r7, #20]
 8001106:	e009      	b.n	800111c <_write+0x26>
  {
    __io_putchar(*ptr++);
 8001108:	68bb      	ldr	r3, [r7, #8]
 800110a:	1c5a      	adds	r2, r3, #1
 800110c:	60ba      	str	r2, [r7, #8]
 800110e:	781b      	ldrb	r3, [r3, #0]
 8001110:	4618      	mov	r0, r3
 8001112:	f7ff fdcb 	bl	8000cac <__io_putchar>
  for (DataIdx = 0; DataIdx < len; DataIdx++)
 8001116:	697b      	ldr	r3, [r7, #20]
 8001118:	3301      	adds	r3, #1
 800111a:	617b      	str	r3, [r7, #20]
 800111c:	697a      	ldr	r2, [r7, #20]
 800111e:	687b      	ldr	r3, [r7, #4]
 8001120:	429a      	cmp	r2, r3
 8001122:	dbf1      	blt.n	8001108 <_write+0x12>
  }
  return len;
 8001124:	687b      	ldr	r3, [r7, #4]
}
 8001126:	4618      	mov	r0, r3
 8001128:	3718      	adds	r7, #24
 800112a:	46bd      	mov	sp, r7
 800112c:	bd80      	pop	{r7, pc}

0800112e <_close>:

int _close(int file)
{
 800112e:	b480      	push	{r7}
 8001130:	b083      	sub	sp, #12
 8001132:	af00      	add	r7, sp, #0
 8001134:	6078      	str	r0, [r7, #4]
  (void)file;
  return -1;
 8001136:	f04f 33ff 	mov.w	r3, #4294967295
}
 800113a:	4618      	mov	r0, r3
 800113c:	370c      	adds	r7, #12
 800113e:	46bd      	mov	sp, r7
 8001140:	f85d 7b04 	ldr.w	r7, [sp], #4
 8001144:	4770      	bx	lr

08001146 <_fstat>:


int _fstat(int file, struct stat *st)
{
 8001146:	b480      	push	{r7}
 8001148:	b083      	sub	sp, #12
 800114a:	af00      	add	r7, sp, #0
 800114c:	6078      	str	r0, [r7, #4]
 800114e:	6039      	str	r1, [r7, #0]
  (void)file;
  st->st_mode = S_IFCHR;
 8001150:	683b      	ldr	r3, [r7, #0]
 8001152:	f44f 5200 	mov.w	r2, #8192	; 0x2000
 8001156:	605a      	str	r2, [r3, #4]
  return 0;
 8001158:	2300      	movs	r3, #0
}
 800115a:	4618      	mov	r0, r3
 800115c:	370c      	adds	r7, #12
 800115e:	46bd      	mov	sp, r7
 8001160:	f85d 7b04 	ldr.w	r7, [sp], #4
 8001164:	4770      	bx	lr

08001166 <_isatty>:

int _isatty(int file)
{
 8001166:	b480      	push	{r7}
 8001168:	b083      	sub	sp, #12
 800116a:	af00      	add	r7, sp, #0
 800116c:	6078      	str	r0, [r7, #4]
  (void)file;
  return 1;
 800116e:	2301      	movs	r3, #1
}
 8001170:	4618      	mov	r0, r3
 8001172:	370c      	adds	r7, #12
 8001174:	46bd      	mov	sp, r7
 8001176:	f85d 7b04 	ldr.w	r7, [sp], #4
 800117a:	4770      	bx	lr

0800117c <_lseek>:

int _lseek(int file, int ptr, int dir)
{
 800117c:	b480      	push	{r7}
 800117e:	b085      	sub	sp, #20
 8001180:	af00      	add	r7, sp, #0
 8001182:	60f8      	str	r0, [r7, #12]
 8001184:	60b9      	str	r1, [r7, #8]
 8001186:	607a      	str	r2, [r7, #4]
  (void)file;
  (void)ptr;
  (void)dir;
  return 0;
 8001188:	2300      	movs	r3, #0
}
 800118a:	4618      	mov	r0, r3
 800118c:	3714      	adds	r7, #20
 800118e:	46bd      	mov	sp, r7
 8001190:	f85d 7b04 	ldr.w	r7, [sp], #4
 8001194:	4770      	bx	lr
	...

08001198 <_sbrk>:
 *
 * @param incr Memory size
 * @return Pointer to allocated memory
 */
void *_sbrk(ptrdiff_t incr)
{
 8001198:	b580      	push	{r7, lr}
 800119a:	b086      	sub	sp, #24
 800119c:	af00      	add	r7, sp, #0
 800119e:	6078      	str	r0, [r7, #4]
  extern uint8_t _end; /* Symbol defined in the linker script */
  extern uint8_t _estack; /* Symbol defined in the linker script */
  extern uint32_t _Min_Stack_Size; /* Symbol defined in the linker script */
  const uint32_t stack_limit = (uint32_t)&_estack - (uint32_t)&_Min_Stack_Size;
 80011a0:	4a14      	ldr	r2, [pc, #80]	; (80011f4 <_sbrk+0x5c>)
 80011a2:	4b15      	ldr	r3, [pc, #84]	; (80011f8 <_sbrk+0x60>)
 80011a4:	1ad3      	subs	r3, r2, r3
 80011a6:	617b      	str	r3, [r7, #20]
  const uint8_t *max_heap = (uint8_t *)stack_limit;
 80011a8:	697b      	ldr	r3, [r7, #20]
 80011aa:	613b      	str	r3, [r7, #16]
  uint8_t *prev_heap_end;

  /* Initialize heap end at first call */
  if (NULL == __sbrk_heap_end)
 80011ac:	4b13      	ldr	r3, [pc, #76]	; (80011fc <_sbrk+0x64>)
 80011ae:	681b      	ldr	r3, [r3, #0]
 80011b0:	2b00      	cmp	r3, #0
 80011b2:	d102      	bne.n	80011ba <_sbrk+0x22>
  {
    __sbrk_heap_end = &_end;
 80011b4:	4b11      	ldr	r3, [pc, #68]	; (80011fc <_sbrk+0x64>)
 80011b6:	4a12      	ldr	r2, [pc, #72]	; (8001200 <_sbrk+0x68>)
 80011b8:	601a      	str	r2, [r3, #0]
  }

  /* Protect heap from growing into the reserved MSP stack */
  if (__sbrk_heap_end + incr > max_heap)
 80011ba:	4b10      	ldr	r3, [pc, #64]	; (80011fc <_sbrk+0x64>)
 80011bc:	681a      	ldr	r2, [r3, #0]
 80011be:	687b      	ldr	r3, [r7, #4]
 80011c0:	4413      	add	r3, r2
 80011c2:	693a      	ldr	r2, [r7, #16]
 80011c4:	429a      	cmp	r2, r3
 80011c6:	d207      	bcs.n	80011d8 <_sbrk+0x40>
  {
    errno = ENOMEM;
 80011c8:	f00a fff0 	bl	800c1ac <__errno>
 80011cc:	4603      	mov	r3, r0
 80011ce:	220c      	movs	r2, #12
 80011d0:	601a      	str	r2, [r3, #0]
    return (void *)-1;
 80011d2:	f04f 33ff 	mov.w	r3, #4294967295
 80011d6:	e009      	b.n	80011ec <_sbrk+0x54>
  }

  prev_heap_end = __sbrk_heap_end;
 80011d8:	4b08      	ldr	r3, [pc, #32]	; (80011fc <_sbrk+0x64>)
 80011da:	681b      	ldr	r3, [r3, #0]
 80011dc:	60fb      	str	r3, [r7, #12]
  __sbrk_heap_end += incr;
 80011de:	4b07      	ldr	r3, [pc, #28]	; (80011fc <_sbrk+0x64>)
 80011e0:	681a      	ldr	r2, [r3, #0]
 80011e2:	687b      	ldr	r3, [r7, #4]
 80011e4:	4413      	add	r3, r2
 80011e6:	4a05      	ldr	r2, [pc, #20]	; (80011fc <_sbrk+0x64>)
 80011e8:	6013      	str	r3, [r2, #0]

  return (void *)prev_heap_end;
 80011ea:	68fb      	ldr	r3, [r7, #12]
}
 80011ec:	4618      	mov	r0, r3
 80011ee:	3718      	adds	r7, #24
 80011f0:	46bd      	mov	sp, r7
 80011f2:	bd80      	pop	{r7, pc}
 80011f4:	24080000 	.word	0x24080000
 80011f8:	00000400 	.word	0x00000400
 80011fc:	240002fc 	.word	0x240002fc
 8001200:	24006f30 	.word	0x24006f30

08001204 <SystemInit>:
  *         configuration.
  * @param  None
  * @retval None
  */
void SystemInit (void)
{
 8001204:	b480      	push	{r7}
 8001206:	af00      	add	r7, sp, #0
 __IO uint32_t tmpreg;
#endif /* DATA_IN_D2_SRAM */

  /* FPU settings ------------------------------------------------------------*/
  #if (__FPU_PRESENT == 1) && (__FPU_USED == 1)
    SCB->CPACR |= ((3UL << (10*2))|(3UL << (11*2)));  /* set CP10 and CP11 Full Access */
 8001208:	4b37      	ldr	r3, [pc, #220]	; (80012e8 <SystemInit+0xe4>)
 800120a:	f8d3 3088 	ldr.w	r3, [r3, #136]	; 0x88
 800120e:	4a36      	ldr	r2, [pc, #216]	; (80012e8 <SystemInit+0xe4>)
 8001210:	f443 0370 	orr.w	r3, r3, #15728640	; 0xf00000
 8001214:	f8c2 3088 	str.w	r3, [r2, #136]	; 0x88
  #endif
  /* Reset the RCC clock configuration to the default reset state ------------*/

   /* Increasing the CPU frequency */
  if(FLASH_LATENCY_DEFAULT  > (READ_BIT((FLASH->ACR), FLASH_ACR_LATENCY)))
 8001218:	4b34      	ldr	r3, [pc, #208]	; (80012ec <SystemInit+0xe8>)
 800121a:	681b      	ldr	r3, [r3, #0]
 800121c:	f003 030f 	and.w	r3, r3, #15
 8001220:	2b06      	cmp	r3, #6
 8001222:	d807      	bhi.n	8001234 <SystemInit+0x30>
  {
    /* Program the new number of wait states to the LATENCY bits in the FLASH_ACR register */
    MODIFY_REG(FLASH->ACR, FLASH_ACR_LATENCY, (uint32_t)(FLASH_LATENCY_DEFAULT));
 8001224:	4b31      	ldr	r3, [pc, #196]	; (80012ec <SystemInit+0xe8>)
 8001226:	681b      	ldr	r3, [r3, #0]
 8001228:	f023 030f 	bic.w	r3, r3, #15
 800122c:	4a2f      	ldr	r2, [pc, #188]	; (80012ec <SystemInit+0xe8>)
 800122e:	f043 0307 	orr.w	r3, r3, #7
 8001232:	6013      	str	r3, [r2, #0]
  }

  /* Set HSION bit */
  RCC->CR |= RCC_CR_HSION;
 8001234:	4b2e      	ldr	r3, [pc, #184]	; (80012f0 <SystemInit+0xec>)
 8001236:	681b      	ldr	r3, [r3, #0]
 8001238:	4a2d      	ldr	r2, [pc, #180]	; (80012f0 <SystemInit+0xec>)
 800123a:	f043 0301 	orr.w	r3, r3, #1
 800123e:	6013      	str	r3, [r2, #0]

  /* Reset CFGR register */
  RCC->CFGR = 0x00000000;
 8001240:	4b2b      	ldr	r3, [pc, #172]	; (80012f0 <SystemInit+0xec>)
 8001242:	2200      	movs	r2, #0
 8001244:	611a      	str	r2, [r3, #16]

  /* Reset HSEON, HSECSSON, CSION, HSI48ON, CSIKERON, PLL1ON, PLL2ON and PLL3ON bits */
  RCC->CR &= 0xEAF6ED7FU;
 8001246:	4b2a      	ldr	r3, [pc, #168]	; (80012f0 <SystemInit+0xec>)
 8001248:	681a      	ldr	r2, [r3, #0]
 800124a:	4929      	ldr	r1, [pc, #164]	; (80012f0 <SystemInit+0xec>)
 800124c:	4b29      	ldr	r3, [pc, #164]	; (80012f4 <SystemInit+0xf0>)
 800124e:	4013      	ands	r3, r2
 8001250:	600b      	str	r3, [r1, #0]

   /* Decreasing the number of wait states because of lower CPU frequency */
  if(FLASH_LATENCY_DEFAULT  < (READ_BIT((FLASH->ACR), FLASH_ACR_LATENCY)))
 8001252:	4b26      	ldr	r3, [pc, #152]	; (80012ec <SystemInit+0xe8>)
 8001254:	681b      	ldr	r3, [r3, #0]
 8001256:	f003 0308 	and.w	r3, r3, #8
 800125a:	2b00      	cmp	r3, #0
 800125c:	d007      	beq.n	800126e <SystemInit+0x6a>
  {
    /* Program the new number of wait states to the LATENCY bits in the FLASH_ACR register */
    MODIFY_REG(FLASH->ACR, FLASH_ACR_LATENCY, (uint32_t)(FLASH_LATENCY_DEFAULT));
 800125e:	4b23      	ldr	r3, [pc, #140]	; (80012ec <SystemInit+0xe8>)
 8001260:	681b      	ldr	r3, [r3, #0]
 8001262:	f023 030f 	bic.w	r3, r3, #15
 8001266:	4a21      	ldr	r2, [pc, #132]	; (80012ec <SystemInit+0xe8>)
 8001268:	f043 0307 	orr.w	r3, r3, #7
 800126c:	6013      	str	r3, [r2, #0]
  }

#if defined(D3_SRAM_BASE)
  /* Reset D1CFGR register */
  RCC->D1CFGR = 0x00000000;
 800126e:	4b20      	ldr	r3, [pc, #128]	; (80012f0 <SystemInit+0xec>)
 8001270:	2200      	movs	r2, #0
 8001272:	619a      	str	r2, [r3, #24]

  /* Reset D2CFGR register */
  RCC->D2CFGR = 0x00000000;
 8001274:	4b1e      	ldr	r3, [pc, #120]	; (80012f0 <SystemInit+0xec>)
 8001276:	2200      	movs	r2, #0
 8001278:	61da      	str	r2, [r3, #28]

  /* Reset D3CFGR register */
  RCC->D3CFGR = 0x00000000;
 800127a:	4b1d      	ldr	r3, [pc, #116]	; (80012f0 <SystemInit+0xec>)
 800127c:	2200      	movs	r2, #0
 800127e:	621a      	str	r2, [r3, #32]

  /* Reset SRDCFGR register */
  RCC->SRDCFGR = 0x00000000;
#endif
  /* Reset PLLCKSELR register */
  RCC->PLLCKSELR = 0x02020200;
 8001280:	4b1b      	ldr	r3, [pc, #108]	; (80012f0 <SystemInit+0xec>)
 8001282:	4a1d      	ldr	r2, [pc, #116]	; (80012f8 <SystemInit+0xf4>)
 8001284:	629a      	str	r2, [r3, #40]	; 0x28

  /* Reset PLLCFGR register */
  RCC->PLLCFGR = 0x01FF0000;
 8001286:	4b1a      	ldr	r3, [pc, #104]	; (80012f0 <SystemInit+0xec>)
 8001288:	4a1c      	ldr	r2, [pc, #112]	; (80012fc <SystemInit+0xf8>)
 800128a:	62da      	str	r2, [r3, #44]	; 0x2c
  /* Reset PLL1DIVR register */
  RCC->PLL1DIVR = 0x01010280;
 800128c:	4b18      	ldr	r3, [pc, #96]	; (80012f0 <SystemInit+0xec>)
 800128e:	4a1c      	ldr	r2, [pc, #112]	; (8001300 <SystemInit+0xfc>)
 8001290:	631a      	str	r2, [r3, #48]	; 0x30
  /* Reset PLL1FRACR register */
  RCC->PLL1FRACR = 0x00000000;
 8001292:	4b17      	ldr	r3, [pc, #92]	; (80012f0 <SystemInit+0xec>)
 8001294:	2200      	movs	r2, #0
 8001296:	635a      	str	r2, [r3, #52]	; 0x34

  /* Reset PLL2DIVR register */
  RCC->PLL2DIVR = 0x01010280;
 8001298:	4b15      	ldr	r3, [pc, #84]	; (80012f0 <SystemInit+0xec>)
 800129a:	4a19      	ldr	r2, [pc, #100]	; (8001300 <SystemInit+0xfc>)
 800129c:	639a      	str	r2, [r3, #56]	; 0x38

  /* Reset PLL2FRACR register */

  RCC->PLL2FRACR = 0x00000000;
 800129e:	4b14      	ldr	r3, [pc, #80]	; (80012f0 <SystemInit+0xec>)
 80012a0:	2200      	movs	r2, #0
 80012a2:	63da      	str	r2, [r3, #60]	; 0x3c
  /* Reset PLL3DIVR register */
  RCC->PLL3DIVR = 0x01010280;
 80012a4:	4b12      	ldr	r3, [pc, #72]	; (80012f0 <SystemInit+0xec>)
 80012a6:	4a16      	ldr	r2, [pc, #88]	; (8001300 <SystemInit+0xfc>)
 80012a8:	641a      	str	r2, [r3, #64]	; 0x40

  /* Reset PLL3FRACR register */
  RCC->PLL3FRACR = 0x00000000;
 80012aa:	4b11      	ldr	r3, [pc, #68]	; (80012f0 <SystemInit+0xec>)
 80012ac:	2200      	movs	r2, #0
 80012ae:	645a      	str	r2, [r3, #68]	; 0x44

  /* Reset HSEBYP bit */
  RCC->CR &= 0xFFFBFFFFU;
 80012b0:	4b0f      	ldr	r3, [pc, #60]	; (80012f0 <SystemInit+0xec>)
 80012b2:	681b      	ldr	r3, [r3, #0]
 80012b4:	4a0e      	ldr	r2, [pc, #56]	; (80012f0 <SystemInit+0xec>)
 80012b6:	f423 2380 	bic.w	r3, r3, #262144	; 0x40000
 80012ba:	6013      	str	r3, [r2, #0]

  /* Disable all interrupts */
  RCC->CIER = 0x00000000;
 80012bc:	4b0c      	ldr	r3, [pc, #48]	; (80012f0 <SystemInit+0xec>)
 80012be:	2200      	movs	r2, #0
 80012c0:	661a      	str	r2, [r3, #96]	; 0x60

#if (STM32H7_DEV_ID == 0x450UL)
  /* dual core CM7 or single core line */
  if((DBGMCU->IDCODE & 0xFFFF0000U) < 0x20000000U)
 80012c2:	4b10      	ldr	r3, [pc, #64]	; (8001304 <SystemInit+0x100>)
 80012c4:	681a      	ldr	r2, [r3, #0]
 80012c6:	4b10      	ldr	r3, [pc, #64]	; (8001308 <SystemInit+0x104>)
 80012c8:	4013      	ands	r3, r2
 80012ca:	f1b3 5f00 	cmp.w	r3, #536870912	; 0x20000000
 80012ce:	d202      	bcs.n	80012d6 <SystemInit+0xd2>
  {
    /* if stm32h7 revY*/
    /* Change  the switch matrix read issuing capability to 1 for the AXI SRAM target (Target 7) */
    *((__IO uint32_t*)0x51008108) = 0x000000001U;
 80012d0:	4b0e      	ldr	r3, [pc, #56]	; (800130c <SystemInit+0x108>)
 80012d2:	2201      	movs	r2, #1
 80012d4:	601a      	str	r2, [r3, #0]
  /*
   * Disable the FMC bank1 (enabled after reset).
   * This, prevents CPU speculation access on this bank which blocks the use of FMC during
   * 24us. During this time the others FMC master (such as LTDC) cannot use it!
   */
  FMC_Bank1_R->BTCR[0] = 0x000030D2;
 80012d6:	4b0e      	ldr	r3, [pc, #56]	; (8001310 <SystemInit+0x10c>)
 80012d8:	f243 02d2 	movw	r2, #12498	; 0x30d2
 80012dc:	601a      	str	r2, [r3, #0]
#if defined(USER_VECT_TAB_ADDRESS)
  SCB->VTOR = VECT_TAB_BASE_ADDRESS | VECT_TAB_OFFSET; /* Vector Table Relocation in Internal D1 AXI-RAM or in Internal FLASH */
#endif /* USER_VECT_TAB_ADDRESS */

#endif /*DUAL_CORE && CORE_CM4*/
}
 80012de:	bf00      	nop
 80012e0:	46bd      	mov	sp, r7
 80012e2:	f85d 7b04 	ldr.w	r7, [sp], #4
 80012e6:	4770      	bx	lr
 80012e8:	e000ed00 	.word	0xe000ed00
 80012ec:	52002000 	.word	0x52002000
 80012f0:	58024400 	.word	0x58024400
 80012f4:	eaf6ed7f 	.word	0xeaf6ed7f
 80012f8:	02020200 	.word	0x02020200
 80012fc:	01ff0000 	.word	0x01ff0000
 8001300:	01010280 	.word	0x01010280
 8001304:	5c001000 	.word	0x5c001000
 8001308:	ffff0000 	.word	0xffff0000
 800130c:	51008108 	.word	0x51008108
 8001310:	52004000 	.word	0x52004000

08001314 <MX_USART1_UART_Init>:
UART_HandleTypeDef huart1;

/* USART1 init function */

void MX_USART1_UART_Init(void)
{
 8001314:	b580      	push	{r7, lr}
 8001316:	af00      	add	r7, sp, #0
  /* USER CODE END USART1_Init 0 */

  /* USER CODE BEGIN USART1_Init 1 */

  /* USER CODE END USART1_Init 1 */
  huart1.Instance = USART1;
 8001318:	4b22      	ldr	r3, [pc, #136]	; (80013a4 <MX_USART1_UART_Init+0x90>)
 800131a:	4a23      	ldr	r2, [pc, #140]	; (80013a8 <MX_USART1_UART_Init+0x94>)
 800131c:	601a      	str	r2, [r3, #0]
  huart1.Init.BaudRate = 115200;
 800131e:	4b21      	ldr	r3, [pc, #132]	; (80013a4 <MX_USART1_UART_Init+0x90>)
 8001320:	f44f 32e1 	mov.w	r2, #115200	; 0x1c200
 8001324:	605a      	str	r2, [r3, #4]
  huart1.Init.WordLength = UART_WORDLENGTH_8B;
 8001326:	4b1f      	ldr	r3, [pc, #124]	; (80013a4 <MX_USART1_UART_Init+0x90>)
 8001328:	2200      	movs	r2, #0
 800132a:	609a      	str	r2, [r3, #8]
  huart1.Init.StopBits = UART_STOPBITS_1;
 800132c:	4b1d      	ldr	r3, [pc, #116]	; (80013a4 <MX_USART1_UART_Init+0x90>)
 800132e:	2200      	movs	r2, #0
 8001330:	60da      	str	r2, [r3, #12]
  huart1.Init.Parity = UART_PARITY_NONE;
 8001332:	4b1c      	ldr	r3, [pc, #112]	; (80013a4 <MX_USART1_UART_Init+0x90>)
 8001334:	2200      	movs	r2, #0
 8001336:	611a      	str	r2, [r3, #16]
  huart1.Init.Mode = UART_MODE_TX_RX;
 8001338:	4b1a      	ldr	r3, [pc, #104]	; (80013a4 <MX_USART1_UART_Init+0x90>)
 800133a:	220c      	movs	r2, #12
 800133c:	615a      	str	r2, [r3, #20]
  huart1.Init.HwFlowCtl = UART_HWCONTROL_NONE;
 800133e:	4b19      	ldr	r3, [pc, #100]	; (80013a4 <MX_USART1_UART_Init+0x90>)
 8001340:	2200      	movs	r2, #0
 8001342:	619a      	str	r2, [r3, #24]
  huart1.Init.OverSampling = UART_OVERSAMPLING_16;
 8001344:	4b17      	ldr	r3, [pc, #92]	; (80013a4 <MX_USART1_UART_Init+0x90>)
 8001346:	2200      	movs	r2, #0
 8001348:	61da      	str	r2, [r3, #28]
  huart1.Init.OneBitSampling = UART_ONE_BIT_SAMPLE_DISABLE;
 800134a:	4b16      	ldr	r3, [pc, #88]	; (80013a4 <MX_USART1_UART_Init+0x90>)
 800134c:	2200      	movs	r2, #0
 800134e:	621a      	str	r2, [r3, #32]
  huart1.Init.ClockPrescaler = UART_PRESCALER_DIV1;
 8001350:	4b14      	ldr	r3, [pc, #80]	; (80013a4 <MX_USART1_UART_Init+0x90>)
 8001352:	2200      	movs	r2, #0
 8001354:	625a      	str	r2, [r3, #36]	; 0x24
  huart1.AdvancedInit.AdvFeatureInit = UART_ADVFEATURE_NO_INIT;
 8001356:	4b13      	ldr	r3, [pc, #76]	; (80013a4 <MX_USART1_UART_Init+0x90>)
 8001358:	2200      	movs	r2, #0
 800135a:	629a      	str	r2, [r3, #40]	; 0x28
  if (HAL_UART_Init(&huart1) != HAL_OK)
 800135c:	4811      	ldr	r0, [pc, #68]	; (80013a4 <MX_USART1_UART_Init+0x90>)
 800135e:	f004 fdfd 	bl	8005f5c <HAL_UART_Init>
 8001362:	4603      	mov	r3, r0
 8001364:	2b00      	cmp	r3, #0
 8001366:	d001      	beq.n	800136c <MX_USART1_UART_Init+0x58>
  {
    Error_Handler();
 8001368:	f7ff fe32 	bl	8000fd0 <Error_Handler>
  }
  if (HAL_UARTEx_SetTxFifoThreshold(&huart1, UART_TXFIFO_THRESHOLD_1_8) != HAL_OK)
 800136c:	2100      	movs	r1, #0
 800136e:	480d      	ldr	r0, [pc, #52]	; (80013a4 <MX_USART1_UART_Init+0x90>)
 8001370:	f005 fdff 	bl	8006f72 <HAL_UARTEx_SetTxFifoThreshold>
 8001374:	4603      	mov	r3, r0
 8001376:	2b00      	cmp	r3, #0
 8001378:	d001      	beq.n	800137e <MX_USART1_UART_Init+0x6a>
  {
    Error_Handler();
 800137a:	f7ff fe29 	bl	8000fd0 <Error_Handler>
  }
  if (HAL_UARTEx_SetRxFifoThreshold(&huart1, UART_RXFIFO_THRESHOLD_1_8) != HAL_OK)
 800137e:	2100      	movs	r1, #0
 8001380:	4808      	ldr	r0, [pc, #32]	; (80013a4 <MX_USART1_UART_Init+0x90>)
 8001382:	f005 fe34 	bl	8006fee <HAL_UARTEx_SetRxFifoThreshold>
 8001386:	4603      	mov	r3, r0
 8001388:	2b00      	cmp	r3, #0
 800138a:	d001      	beq.n	8001390 <MX_USART1_UART_Init+0x7c>
  {
    Error_Handler();
 800138c:	f7ff fe20 	bl	8000fd0 <Error_Handler>
  }
  if (HAL_UARTEx_DisableFifoMode(&huart1) != HAL_OK)
 8001390:	4804      	ldr	r0, [pc, #16]	; (80013a4 <MX_USART1_UART_Init+0x90>)
 8001392:	f005 fdb5 	bl	8006f00 <HAL_UARTEx_DisableFifoMode>
 8001396:	4603      	mov	r3, r0
 8001398:	2b00      	cmp	r3, #0
 800139a:	d001      	beq.n	80013a0 <MX_USART1_UART_Init+0x8c>
  {
    Error_Handler();
 800139c:	f7ff fe18 	bl	8000fd0 <Error_Handler>
  }
  /* USER CODE BEGIN USART1_Init 2 */

  /* USER CODE END USART1_Init 2 */

}
 80013a0:	bf00      	nop
 80013a2:	bd80      	pop	{r7, pc}
 80013a4:	24000300 	.word	0x24000300
 80013a8:	40011000 	.word	0x40011000

080013ac <HAL_UART_MspInit>:

void HAL_UART_MspInit(UART_HandleTypeDef* uartHandle)
{
 80013ac:	b580      	push	{r7, lr}
 80013ae:	b0ba      	sub	sp, #232	; 0xe8
 80013b0:	af00      	add	r7, sp, #0
 80013b2:	6078      	str	r0, [r7, #4]

  GPIO_InitTypeDef GPIO_InitStruct = {0};
 80013b4:	f107 03d4 	add.w	r3, r7, #212	; 0xd4
 80013b8:	2200      	movs	r2, #0
 80013ba:	601a      	str	r2, [r3, #0]
 80013bc:	605a      	str	r2, [r3, #4]
 80013be:	609a      	str	r2, [r3, #8]
 80013c0:	60da      	str	r2, [r3, #12]
 80013c2:	611a      	str	r2, [r3, #16]
  RCC_PeriphCLKInitTypeDef PeriphClkInitStruct = {0};
 80013c4:	f107 0310 	add.w	r3, r7, #16
 80013c8:	22c0      	movs	r2, #192	; 0xc0
 80013ca:	2100      	movs	r1, #0
 80013cc:	4618      	mov	r0, r3
 80013ce:	f00a fe9b 	bl	800c108 <memset>
  if(uartHandle->Instance==USART1)
 80013d2:	687b      	ldr	r3, [r7, #4]
 80013d4:	681b      	ldr	r3, [r3, #0]
 80013d6:	4a27      	ldr	r2, [pc, #156]	; (8001474 <HAL_UART_MspInit+0xc8>)
 80013d8:	4293      	cmp	r3, r2
 80013da:	d146      	bne.n	800146a <HAL_UART_MspInit+0xbe>

  /* USER CODE END USART1_MspInit 0 */

  /** Initializes the peripherals clock
  */
    PeriphClkInitStruct.PeriphClockSelection = RCC_PERIPHCLK_USART1;
 80013dc:	f04f 0201 	mov.w	r2, #1
 80013e0:	f04f 0300 	mov.w	r3, #0
 80013e4:	e9c7 2304 	strd	r2, r3, [r7, #16]
    PeriphClkInitStruct.Usart16ClockSelection = RCC_USART16CLKSOURCE_D2PCLK2;
 80013e8:	2300      	movs	r3, #0
 80013ea:	f8c7 308c 	str.w	r3, [r7, #140]	; 0x8c
    if (HAL_RCCEx_PeriphCLKConfig(&PeriphClkInitStruct) != HAL_OK)
 80013ee:	f107 0310 	add.w	r3, r7, #16
 80013f2:	4618      	mov	r0, r3
 80013f4:	f002 ff86 	bl	8004304 <HAL_RCCEx_PeriphCLKConfig>
 80013f8:	4603      	mov	r3, r0
 80013fa:	2b00      	cmp	r3, #0
 80013fc:	d001      	beq.n	8001402 <HAL_UART_MspInit+0x56>
    {
      Error_Handler();
 80013fe:	f7ff fde7 	bl	8000fd0 <Error_Handler>
    }

    /* USART1 clock enable */
    __HAL_RCC_USART1_CLK_ENABLE();
 8001402:	4b1d      	ldr	r3, [pc, #116]	; (8001478 <HAL_UART_MspInit+0xcc>)
 8001404:	f8d3 30f0 	ldr.w	r3, [r3, #240]	; 0xf0
 8001408:	4a1b      	ldr	r2, [pc, #108]	; (8001478 <HAL_UART_MspInit+0xcc>)
 800140a:	f043 0310 	orr.w	r3, r3, #16
 800140e:	f8c2 30f0 	str.w	r3, [r2, #240]	; 0xf0
 8001412:	4b19      	ldr	r3, [pc, #100]	; (8001478 <HAL_UART_MspInit+0xcc>)
 8001414:	f8d3 30f0 	ldr.w	r3, [r3, #240]	; 0xf0
 8001418:	f003 0310 	and.w	r3, r3, #16
 800141c:	60fb      	str	r3, [r7, #12]
 800141e:	68fb      	ldr	r3, [r7, #12]

    __HAL_RCC_GPIOA_CLK_ENABLE();
 8001420:	4b15      	ldr	r3, [pc, #84]	; (8001478 <HAL_UART_MspInit+0xcc>)
 8001422:	f8d3 30e0 	ldr.w	r3, [r3, #224]	; 0xe0
 8001426:	4a14      	ldr	r2, [pc, #80]	; (8001478 <HAL_UART_MspInit+0xcc>)
 8001428:	f043 0301 	orr.w	r3, r3, #1
 800142c:	f8c2 30e0 	str.w	r3, [r2, #224]	; 0xe0
 8001430:	4b11      	ldr	r3, [pc, #68]	; (8001478 <HAL_UART_MspInit+0xcc>)
 8001432:	f8d3 30e0 	ldr.w	r3, [r3, #224]	; 0xe0
 8001436:	f003 0301 	and.w	r3, r3, #1
 800143a:	60bb      	str	r3, [r7, #8]
 800143c:	68bb      	ldr	r3, [r7, #8]
    /**USART1 GPIO Configuration
    PA9     ------> USART1_TX
    PA10     ------> USART1_RX
    */
    GPIO_InitStruct.Pin = GPIO_PIN_9|GPIO_PIN_10;
 800143e:	f44f 63c0 	mov.w	r3, #1536	; 0x600
 8001442:	f8c7 30d4 	str.w	r3, [r7, #212]	; 0xd4
    GPIO_InitStruct.Mode = GPIO_MODE_AF_PP;
 8001446:	2302      	movs	r3, #2
 8001448:	f8c7 30d8 	str.w	r3, [r7, #216]	; 0xd8
    GPIO_InitStruct.Pull = GPIO_NOPULL;
 800144c:	2300      	movs	r3, #0
 800144e:	f8c7 30dc 	str.w	r3, [r7, #220]	; 0xdc
    GPIO_InitStruct.Speed = GPIO_SPEED_FREQ_LOW;
 8001452:	2300      	movs	r3, #0
 8001454:	f8c7 30e0 	str.w	r3, [r7, #224]	; 0xe0
    GPIO_InitStruct.Alternate = GPIO_AF7_USART1;
 8001458:	2307      	movs	r3, #7
 800145a:	f8c7 30e4 	str.w	r3, [r7, #228]	; 0xe4
    HAL_GPIO_Init(GPIOA, &GPIO_InitStruct);
 800145e:	f107 03d4 	add.w	r3, r7, #212	; 0xd4
 8001462:	4619      	mov	r1, r3
 8001464:	4805      	ldr	r0, [pc, #20]	; (800147c <HAL_UART_MspInit+0xd0>)
 8001466:	f000 fa83 	bl	8001970 <HAL_GPIO_Init>

  /* USER CODE BEGIN USART1_MspInit 1 */

  /* USER CODE END USART1_MspInit 1 */
  }
}
 800146a:	bf00      	nop
 800146c:	37e8      	adds	r7, #232	; 0xe8
 800146e:	46bd      	mov	sp, r7
 8001470:	bd80      	pop	{r7, pc}
 8001472:	bf00      	nop
 8001474:	40011000 	.word	0x40011000
 8001478:	58024400 	.word	0x58024400
 800147c:	58020000 	.word	0x58020000

08001480 <Reset_Handler>:

    .section  .text.Reset_Handler
  .weak  Reset_Handler
  .type  Reset_Handler, %function
Reset_Handler:
  ldr   sp, =_estack      /* set stack pointer */
 8001480:	f8df d034 	ldr.w	sp, [pc, #52]	; 80014b8 <LoopFillZerobss+0xe>

/* Call the clock system initialization function.*/
  bl  SystemInit
 8001484:	f7ff febe 	bl	8001204 <SystemInit>

/* Copy the data segment initializers from flash to SRAM */
  ldr r0, =_sdata
 8001488:	480c      	ldr	r0, [pc, #48]	; (80014bc <LoopFillZerobss+0x12>)
  ldr r1, =_edata
 800148a:	490d      	ldr	r1, [pc, #52]	; (80014c0 <LoopFillZerobss+0x16>)
  ldr r2, =_sidata
 800148c:	4a0d      	ldr	r2, [pc, #52]	; (80014c4 <LoopFillZerobss+0x1a>)
  movs r3, #0
 800148e:	2300      	movs	r3, #0
  b LoopCopyDataInit
 8001490:	e002      	b.n	8001498 <LoopCopyDataInit>

08001492 <CopyDataInit>:

CopyDataInit:
  ldr r4, [r2, r3]
 8001492:	58d4      	ldr	r4, [r2, r3]
  str r4, [r0, r3]
 8001494:	50c4      	str	r4, [r0, r3]
  adds r3, r3, #4
 8001496:	3304      	adds	r3, #4

08001498 <LoopCopyDataInit>:

LoopCopyDataInit:
  adds r4, r0, r3
 8001498:	18c4      	adds	r4, r0, r3
  cmp r4, r1
 800149a:	428c      	cmp	r4, r1
  bcc CopyDataInit
 800149c:	d3f9      	bcc.n	8001492 <CopyDataInit>
/* Zero fill the bss segment. */
  ldr r2, =_sbss
 800149e:	4a0a      	ldr	r2, [pc, #40]	; (80014c8 <LoopFillZerobss+0x1e>)
  ldr r4, =_ebss
 80014a0:	4c0a      	ldr	r4, [pc, #40]	; (80014cc <LoopFillZerobss+0x22>)
  movs r3, #0
 80014a2:	2300      	movs	r3, #0
  b LoopFillZerobss
 80014a4:	e001      	b.n	80014aa <LoopFillZerobss>

080014a6 <FillZerobss>:

FillZerobss:
  str  r3, [r2]
 80014a6:	6013      	str	r3, [r2, #0]
  adds r2, r2, #4
 80014a8:	3204      	adds	r2, #4

080014aa <LoopFillZerobss>:

LoopFillZerobss:
  cmp r2, r4
 80014aa:	42a2      	cmp	r2, r4
  bcc FillZerobss
 80014ac:	d3fb      	bcc.n	80014a6 <FillZerobss>

/* Call static constructors */
    bl __libc_init_array
 80014ae:	f00a fe83 	bl	800c1b8 <__libc_init_array>
/* Call the application's entry point.*/
  bl  main
 80014b2:	f7ff fc13 	bl	8000cdc <main>
  bx  lr
 80014b6:	4770      	bx	lr
  ldr   sp, =_estack      /* set stack pointer */
 80014b8:	24080000 	.word	0x24080000
  ldr r0, =_sdata
 80014bc:	24000000 	.word	0x24000000
  ldr r1, =_edata
 80014c0:	240002e0 	.word	0x240002e0
  ldr r2, =_sidata
 80014c4:	0800fbe0 	.word	0x0800fbe0
  ldr r2, =_sbss
 80014c8:	240002e0 	.word	0x240002e0
  ldr r4, =_ebss
 80014cc:	24006f30 	.word	0x24006f30

080014d0 <ADC3_IRQHandler>:
 * @retval None
*/
    .section  .text.Default_Handler,"ax",%progbits
Default_Handler:
Infinite_Loop:
  b  Infinite_Loop
 80014d0:	e7fe      	b.n	80014d0 <ADC3_IRQHandler>
	...

080014d4 <HAL_Init>:
  *         need to ensure that the SysTick time base is always set to 1 millisecond
  *         to have correct HAL operation.
  * @retval HAL status
  */
HAL_StatusTypeDef HAL_Init(void)
{
 80014d4:	b580      	push	{r7, lr}
 80014d6:	b082      	sub	sp, #8
 80014d8:	af00      	add	r7, sp, #0
   __HAL_ART_CONFIG_BASE_ADDRESS(0x08100000UL);  /* Configure the Cortex-M4 ART Base address to the Flash Bank 2 : */
   __HAL_ART_ENABLE();                           /* Enable the Cortex-M4 ART */
#endif /* DUAL_CORE &&  CORE_CM4 */

  /* Set Interrupt Group Priority */
  HAL_NVIC_SetPriorityGrouping(NVIC_PRIORITYGROUP_4);
 80014da:	2003      	movs	r0, #3
 80014dc:	f000 f98c 	bl	80017f8 <HAL_NVIC_SetPriorityGrouping>

  /* Update the SystemCoreClock global variable */
#if defined(RCC_D1CFGR_D1CPRE)
  common_system_clock = HAL_RCC_GetSysClockFreq() >> ((D1CorePrescTable[(RCC->D1CFGR & RCC_D1CFGR_D1CPRE)>> RCC_D1CFGR_D1CPRE_Pos]) & 0x1FU);
 80014e0:	f002 fd3a 	bl	8003f58 <HAL_RCC_GetSysClockFreq>
 80014e4:	4602      	mov	r2, r0
 80014e6:	4b15      	ldr	r3, [pc, #84]	; (800153c <HAL_Init+0x68>)
 80014e8:	699b      	ldr	r3, [r3, #24]
 80014ea:	0a1b      	lsrs	r3, r3, #8
 80014ec:	f003 030f 	and.w	r3, r3, #15
 80014f0:	4913      	ldr	r1, [pc, #76]	; (8001540 <HAL_Init+0x6c>)
 80014f2:	5ccb      	ldrb	r3, [r1, r3]
 80014f4:	f003 031f 	and.w	r3, r3, #31
 80014f8:	fa22 f303 	lsr.w	r3, r2, r3
 80014fc:	607b      	str	r3, [r7, #4]
  common_system_clock = HAL_RCC_GetSysClockFreq() >> ((D1CorePrescTable[(RCC->CDCFGR1 & RCC_CDCFGR1_CDCPRE)>> RCC_CDCFGR1_CDCPRE_Pos]) & 0x1FU);
#endif

  /* Update the SystemD2Clock global variable */
#if defined(RCC_D1CFGR_HPRE)
  SystemD2Clock = (common_system_clock >> ((D1CorePrescTable[(RCC->D1CFGR & RCC_D1CFGR_HPRE)>> RCC_D1CFGR_HPRE_Pos]) & 0x1FU));
 80014fe:	4b0f      	ldr	r3, [pc, #60]	; (800153c <HAL_Init+0x68>)
 8001500:	699b      	ldr	r3, [r3, #24]
 8001502:	f003 030f 	and.w	r3, r3, #15
 8001506:	4a0e      	ldr	r2, [pc, #56]	; (8001540 <HAL_Init+0x6c>)
 8001508:	5cd3      	ldrb	r3, [r2, r3]
 800150a:	f003 031f 	and.w	r3, r3, #31
 800150e:	687a      	ldr	r2, [r7, #4]
 8001510:	fa22 f303 	lsr.w	r3, r2, r3
 8001514:	4a0b      	ldr	r2, [pc, #44]	; (8001544 <HAL_Init+0x70>)
 8001516:	6013      	str	r3, [r2, #0]
#endif

#if defined(DUAL_CORE) && defined(CORE_CM4)
  SystemCoreClock = SystemD2Clock;
#else
  SystemCoreClock = common_system_clock;
 8001518:	4a0b      	ldr	r2, [pc, #44]	; (8001548 <HAL_Init+0x74>)
 800151a:	687b      	ldr	r3, [r7, #4]
 800151c:	6013      	str	r3, [r2, #0]
#endif /* DUAL_CORE && CORE_CM4 */

  /* Use systick as time base source and configure 1ms tick (default clock after Reset is HSI) */
  if(HAL_InitTick(TICK_INT_PRIORITY) != HAL_OK)
 800151e:	200f      	movs	r0, #15
 8001520:	f000 f814 	bl	800154c <HAL_InitTick>
 8001524:	4603      	mov	r3, r0
 8001526:	2b00      	cmp	r3, #0
 8001528:	d001      	beq.n	800152e <HAL_Init+0x5a>
  {
    return HAL_ERROR;
 800152a:	2301      	movs	r3, #1
 800152c:	e002      	b.n	8001534 <HAL_Init+0x60>
  }

  /* Init the low level hardware */
  HAL_MspInit();
 800152e:	f7ff fd55 	bl	8000fdc <HAL_MspInit>

  /* Return function status */
  return HAL_OK;
 8001532:	2300      	movs	r3, #0
}
 8001534:	4618      	mov	r0, r3
 8001536:	3708      	adds	r7, #8
 8001538:	46bd      	mov	sp, r7
 800153a:	bd80      	pop	{r7, pc}
 800153c:	58024400 	.word	0x58024400
 8001540:	0800f770 	.word	0x0800f770
 8001544:	24000004 	.word	0x24000004
 8001548:	24000000 	.word	0x24000000

0800154c <HAL_InitTick>:
  *       implementation  in user file.
  * @param TickPriority: Tick interrupt priority.
  * @retval HAL status
  */
__weak HAL_StatusTypeDef HAL_InitTick(uint32_t TickPriority)
{
 800154c:	b580      	push	{r7, lr}
 800154e:	b082      	sub	sp, #8
 8001550:	af00      	add	r7, sp, #0
 8001552:	6078      	str	r0, [r7, #4]
  /* Check uwTickFreq for MisraC 2012 (even if uwTickFreq is a enum type that don't take the value zero)*/
  if((uint32_t)uwTickFreq == 0UL)
 8001554:	4b15      	ldr	r3, [pc, #84]	; (80015ac <HAL_InitTick+0x60>)
 8001556:	781b      	ldrb	r3, [r3, #0]
 8001558:	2b00      	cmp	r3, #0
 800155a:	d101      	bne.n	8001560 <HAL_InitTick+0x14>
  {
    return HAL_ERROR;
 800155c:	2301      	movs	r3, #1
 800155e:	e021      	b.n	80015a4 <HAL_InitTick+0x58>
  }

    /* Configure the SysTick to have interrupt in 1ms time basis*/
    if (HAL_SYSTICK_Config(SystemCoreClock / (1000UL / (uint32_t)uwTickFreq)) > 0U)
 8001560:	4b13      	ldr	r3, [pc, #76]	; (80015b0 <HAL_InitTick+0x64>)
 8001562:	681a      	ldr	r2, [r3, #0]
 8001564:	4b11      	ldr	r3, [pc, #68]	; (80015ac <HAL_InitTick+0x60>)
 8001566:	781b      	ldrb	r3, [r3, #0]
 8001568:	4619      	mov	r1, r3
 800156a:	f44f 737a 	mov.w	r3, #1000	; 0x3e8
 800156e:	fbb3 f3f1 	udiv	r3, r3, r1
 8001572:	fbb2 f3f3 	udiv	r3, r2, r3
 8001576:	4618      	mov	r0, r3
 8001578:	f000 f971 	bl	800185e <HAL_SYSTICK_Config>
 800157c:	4603      	mov	r3, r0
 800157e:	2b00      	cmp	r3, #0
 8001580:	d001      	beq.n	8001586 <HAL_InitTick+0x3a>
    {
      return HAL_ERROR;
 8001582:	2301      	movs	r3, #1
 8001584:	e00e      	b.n	80015a4 <HAL_InitTick+0x58>
    }

  /* Configure the SysTick IRQ priority */
  if (TickPriority < (1UL << __NVIC_PRIO_BITS))
 8001586:	687b      	ldr	r3, [r7, #4]
 8001588:	2b0f      	cmp	r3, #15
 800158a:	d80a      	bhi.n	80015a2 <HAL_InitTick+0x56>
  {
    HAL_NVIC_SetPriority(SysTick_IRQn, TickPriority, 0U);
 800158c:	2200      	movs	r2, #0
 800158e:	6879      	ldr	r1, [r7, #4]
 8001590:	f04f 30ff 	mov.w	r0, #4294967295
 8001594:	f000 f93b 	bl	800180e <HAL_NVIC_SetPriority>
    uwTickPrio = TickPriority;
 8001598:	4a06      	ldr	r2, [pc, #24]	; (80015b4 <HAL_InitTick+0x68>)
 800159a:	687b      	ldr	r3, [r7, #4]
 800159c:	6013      	str	r3, [r2, #0]
  {
    return HAL_ERROR;
  }

  /* Return function status */
  return HAL_OK;
 800159e:	2300      	movs	r3, #0
 80015a0:	e000      	b.n	80015a4 <HAL_InitTick+0x58>
    return HAL_ERROR;
 80015a2:	2301      	movs	r3, #1
}
 80015a4:	4618      	mov	r0, r3
 80015a6:	3708      	adds	r7, #8
 80015a8:	46bd      	mov	sp, r7
 80015aa:	bd80      	pop	{r7, pc}
 80015ac:	2400000c 	.word	0x2400000c
 80015b0:	24000000 	.word	0x24000000
 80015b4:	24000008 	.word	0x24000008

080015b8 <HAL_IncTick>:
 * @note This function is declared as __weak to be overwritten in case of other
  *      implementations in user file.
  * @retval None
  */
__weak void HAL_IncTick(void)
{
 80015b8:	b480      	push	{r7}
 80015ba:	af00      	add	r7, sp, #0
  uwTick += (uint32_t)uwTickFreq;
 80015bc:	4b06      	ldr	r3, [pc, #24]	; (80015d8 <HAL_IncTick+0x20>)
 80015be:	781b      	ldrb	r3, [r3, #0]
 80015c0:	461a      	mov	r2, r3
 80015c2:	4b06      	ldr	r3, [pc, #24]	; (80015dc <HAL_IncTick+0x24>)
 80015c4:	681b      	ldr	r3, [r3, #0]
 80015c6:	4413      	add	r3, r2
 80015c8:	4a04      	ldr	r2, [pc, #16]	; (80015dc <HAL_IncTick+0x24>)
 80015ca:	6013      	str	r3, [r2, #0]
}
 80015cc:	bf00      	nop
 80015ce:	46bd      	mov	sp, r7
 80015d0:	f85d 7b04 	ldr.w	r7, [sp], #4
 80015d4:	4770      	bx	lr
 80015d6:	bf00      	nop
 80015d8:	2400000c 	.word	0x2400000c
 80015dc:	24000394 	.word	0x24000394

080015e0 <HAL_GetTick>:
  * @note This function is declared as __weak to be overwritten in case of other
  *       implementations in user file.
  * @retval tick value
  */
__weak uint32_t HAL_GetTick(void)
{
 80015e0:	b480      	push	{r7}
 80015e2:	af00      	add	r7, sp, #0
  return uwTick;
 80015e4:	4b03      	ldr	r3, [pc, #12]	; (80015f4 <HAL_GetTick+0x14>)
 80015e6:	681b      	ldr	r3, [r3, #0]
}
 80015e8:	4618      	mov	r0, r3
 80015ea:	46bd      	mov	sp, r7
 80015ec:	f85d 7b04 	ldr.w	r7, [sp], #4
 80015f0:	4770      	bx	lr
 80015f2:	bf00      	nop
 80015f4:	24000394 	.word	0x24000394

080015f8 <HAL_Delay>:
  *       implementations in user file.
  * @param Delay  specifies the delay time length, in milliseconds.
  * @retval None
  */
__weak void HAL_Delay(uint32_t Delay)
{
 80015f8:	b580      	push	{r7, lr}
 80015fa:	b084      	sub	sp, #16
 80015fc:	af00      	add	r7, sp, #0
 80015fe:	6078      	str	r0, [r7, #4]
  uint32_t tickstart = HAL_GetTick();
 8001600:	f7ff ffee 	bl	80015e0 <HAL_GetTick>
 8001604:	60b8      	str	r0, [r7, #8]
  uint32_t wait = Delay;
 8001606:	687b      	ldr	r3, [r7, #4]
 8001608:	60fb      	str	r3, [r7, #12]

  /* Add a freq to guarantee minimum wait */
  if (wait < HAL_MAX_DELAY)
 800160a:	68fb      	ldr	r3, [r7, #12]
 800160c:	f1b3 3fff 	cmp.w	r3, #4294967295
 8001610:	d005      	beq.n	800161e <HAL_Delay+0x26>
  {
    wait += (uint32_t)(uwTickFreq);
 8001612:	4b0a      	ldr	r3, [pc, #40]	; (800163c <HAL_Delay+0x44>)
 8001614:	781b      	ldrb	r3, [r3, #0]
 8001616:	461a      	mov	r2, r3
 8001618:	68fb      	ldr	r3, [r7, #12]
 800161a:	4413      	add	r3, r2
 800161c:	60fb      	str	r3, [r7, #12]
  }

  while ((HAL_GetTick() - tickstart) < wait)
 800161e:	bf00      	nop
 8001620:	f7ff ffde 	bl	80015e0 <HAL_GetTick>
 8001624:	4602      	mov	r2, r0
 8001626:	68bb      	ldr	r3, [r7, #8]
 8001628:	1ad3      	subs	r3, r2, r3
 800162a:	68fa      	ldr	r2, [r7, #12]
 800162c:	429a      	cmp	r2, r3
 800162e:	d8f7      	bhi.n	8001620 <HAL_Delay+0x28>
  {
  }
}
 8001630:	bf00      	nop
 8001632:	bf00      	nop
 8001634:	3710      	adds	r7, #16
 8001636:	46bd      	mov	sp, r7
 8001638:	bd80      	pop	{r7, pc}
 800163a:	bf00      	nop
 800163c:	2400000c 	.word	0x2400000c

08001640 <HAL_GetREVID>:
/**
  * @brief  Returns the device revision identifier.
  * @retval Device revision identifier
  */
uint32_t HAL_GetREVID(void)
{
 8001640:	b480      	push	{r7}
 8001642:	af00      	add	r7, sp, #0
   return((DBGMCU->IDCODE) >> 16);
 8001644:	4b03      	ldr	r3, [pc, #12]	; (8001654 <HAL_GetREVID+0x14>)
 8001646:	681b      	ldr	r3, [r3, #0]
 8001648:	0c1b      	lsrs	r3, r3, #16
}
 800164a:	4618      	mov	r0, r3
 800164c:	46bd      	mov	sp, r7
 800164e:	f85d 7b04 	ldr.w	r7, [sp], #4
 8001652:	4770      	bx	lr
 8001654:	5c001000 	.word	0x5c001000

08001658 <__NVIC_SetPriorityGrouping>:
{
 8001658:	b480      	push	{r7}
 800165a:	b085      	sub	sp, #20
 800165c:	af00      	add	r7, sp, #0
 800165e:	6078      	str	r0, [r7, #4]
  uint32_t PriorityGroupTmp = (PriorityGroup & (uint32_t)0x07UL);             /* only values 0..7 are used          */
 8001660:	687b      	ldr	r3, [r7, #4]
 8001662:	f003 0307 	and.w	r3, r3, #7
 8001666:	60fb      	str	r3, [r7, #12]
  reg_value  =  SCB->AIRCR;                                                   /* read old register configuration    */
 8001668:	4b0b      	ldr	r3, [pc, #44]	; (8001698 <__NVIC_SetPriorityGrouping+0x40>)
 800166a:	68db      	ldr	r3, [r3, #12]
 800166c:	60bb      	str	r3, [r7, #8]
  reg_value &= ~((uint32_t)(SCB_AIRCR_VECTKEY_Msk | SCB_AIRCR_PRIGROUP_Msk)); /* clear bits to change               */
 800166e:	68ba      	ldr	r2, [r7, #8]
 8001670:	f64f 03ff 	movw	r3, #63743	; 0xf8ff
 8001674:	4013      	ands	r3, r2
 8001676:	60bb      	str	r3, [r7, #8]
                (PriorityGroupTmp << SCB_AIRCR_PRIGROUP_Pos)  );              /* Insert write key and priority group */
 8001678:	68fb      	ldr	r3, [r7, #12]
 800167a:	021a      	lsls	r2, r3, #8
                ((uint32_t)0x5FAUL << SCB_AIRCR_VECTKEY_Pos) |
 800167c:	68bb      	ldr	r3, [r7, #8]
 800167e:	431a      	orrs	r2, r3
  reg_value  =  (reg_value                                   |
 8001680:	4b06      	ldr	r3, [pc, #24]	; (800169c <__NVIC_SetPriorityGrouping+0x44>)
 8001682:	4313      	orrs	r3, r2
 8001684:	60bb      	str	r3, [r7, #8]
  SCB->AIRCR =  reg_value;
 8001686:	4a04      	ldr	r2, [pc, #16]	; (8001698 <__NVIC_SetPriorityGrouping+0x40>)
 8001688:	68bb      	ldr	r3, [r7, #8]
 800168a:	60d3      	str	r3, [r2, #12]
}
 800168c:	bf00      	nop
 800168e:	3714      	adds	r7, #20
 8001690:	46bd      	mov	sp, r7
 8001692:	f85d 7b04 	ldr.w	r7, [sp], #4
 8001696:	4770      	bx	lr
 8001698:	e000ed00 	.word	0xe000ed00
 800169c:	05fa0000 	.word	0x05fa0000

080016a0 <__NVIC_GetPriorityGrouping>:
{
 80016a0:	b480      	push	{r7}
 80016a2:	af00      	add	r7, sp, #0
  return ((uint32_t)((SCB->AIRCR & SCB_AIRCR_PRIGROUP_Msk) >> SCB_AIRCR_PRIGROUP_Pos));
 80016a4:	4b04      	ldr	r3, [pc, #16]	; (80016b8 <__NVIC_GetPriorityGrouping+0x18>)
 80016a6:	68db      	ldr	r3, [r3, #12]
 80016a8:	0a1b      	lsrs	r3, r3, #8
 80016aa:	f003 0307 	and.w	r3, r3, #7
}
 80016ae:	4618      	mov	r0, r3
 80016b0:	46bd      	mov	sp, r7
 80016b2:	f85d 7b04 	ldr.w	r7, [sp], #4
 80016b6:	4770      	bx	lr
 80016b8:	e000ed00 	.word	0xe000ed00

080016bc <__NVIC_EnableIRQ>:
{
 80016bc:	b480      	push	{r7}
 80016be:	b083      	sub	sp, #12
 80016c0:	af00      	add	r7, sp, #0
 80016c2:	4603      	mov	r3, r0
 80016c4:	80fb      	strh	r3, [r7, #6]
  if ((int32_t)(IRQn) >= 0)
 80016c6:	f9b7 3006 	ldrsh.w	r3, [r7, #6]
 80016ca:	2b00      	cmp	r3, #0
 80016cc:	db0b      	blt.n	80016e6 <__NVIC_EnableIRQ+0x2a>
    NVIC->ISER[(((uint32_t)IRQn) >> 5UL)] = (uint32_t)(1UL << (((uint32_t)IRQn) & 0x1FUL));
 80016ce:	88fb      	ldrh	r3, [r7, #6]
 80016d0:	f003 021f 	and.w	r2, r3, #31
 80016d4:	4907      	ldr	r1, [pc, #28]	; (80016f4 <__NVIC_EnableIRQ+0x38>)
 80016d6:	f9b7 3006 	ldrsh.w	r3, [r7, #6]
 80016da:	095b      	lsrs	r3, r3, #5
 80016dc:	2001      	movs	r0, #1
 80016de:	fa00 f202 	lsl.w	r2, r0, r2
 80016e2:	f841 2023 	str.w	r2, [r1, r3, lsl #2]
}
 80016e6:	bf00      	nop
 80016e8:	370c      	adds	r7, #12
 80016ea:	46bd      	mov	sp, r7
 80016ec:	f85d 7b04 	ldr.w	r7, [sp], #4
 80016f0:	4770      	bx	lr
 80016f2:	bf00      	nop
 80016f4:	e000e100 	.word	0xe000e100

080016f8 <__NVIC_SetPriority>:
{
 80016f8:	b480      	push	{r7}
 80016fa:	b083      	sub	sp, #12
 80016fc:	af00      	add	r7, sp, #0
 80016fe:	4603      	mov	r3, r0
 8001700:	6039      	str	r1, [r7, #0]
 8001702:	80fb      	strh	r3, [r7, #6]
  if ((int32_t)(IRQn) >= 0)
 8001704:	f9b7 3006 	ldrsh.w	r3, [r7, #6]
 8001708:	2b00      	cmp	r3, #0
 800170a:	db0a      	blt.n	8001722 <__NVIC_SetPriority+0x2a>
    NVIC->IP[((uint32_t)IRQn)]                = (uint8_t)((priority << (8U - __NVIC_PRIO_BITS)) & (uint32_t)0xFFUL);
 800170c:	683b      	ldr	r3, [r7, #0]
 800170e:	b2da      	uxtb	r2, r3
 8001710:	490c      	ldr	r1, [pc, #48]	; (8001744 <__NVIC_SetPriority+0x4c>)
 8001712:	f9b7 3006 	ldrsh.w	r3, [r7, #6]
 8001716:	0112      	lsls	r2, r2, #4
 8001718:	b2d2      	uxtb	r2, r2
 800171a:	440b      	add	r3, r1
 800171c:	f883 2300 	strb.w	r2, [r3, #768]	; 0x300
}
 8001720:	e00a      	b.n	8001738 <__NVIC_SetPriority+0x40>
    SCB->SHPR[(((uint32_t)IRQn) & 0xFUL)-4UL] = (uint8_t)((priority << (8U - __NVIC_PRIO_BITS)) & (uint32_t)0xFFUL);
 8001722:	683b      	ldr	r3, [r7, #0]
 8001724:	b2da      	uxtb	r2, r3
 8001726:	4908      	ldr	r1, [pc, #32]	; (8001748 <__NVIC_SetPriority+0x50>)
 8001728:	88fb      	ldrh	r3, [r7, #6]
 800172a:	f003 030f 	and.w	r3, r3, #15
 800172e:	3b04      	subs	r3, #4
 8001730:	0112      	lsls	r2, r2, #4
 8001732:	b2d2      	uxtb	r2, r2
 8001734:	440b      	add	r3, r1
 8001736:	761a      	strb	r2, [r3, #24]
}
 8001738:	bf00      	nop
 800173a:	370c      	adds	r7, #12
 800173c:	46bd      	mov	sp, r7
 800173e:	f85d 7b04 	ldr.w	r7, [sp], #4
 8001742:	4770      	bx	lr
 8001744:	e000e100 	.word	0xe000e100
 8001748:	e000ed00 	.word	0xe000ed00

0800174c <NVIC_EncodePriority>:
{
 800174c:	b480      	push	{r7}
 800174e:	b089      	sub	sp, #36	; 0x24
 8001750:	af00      	add	r7, sp, #0
 8001752:	60f8      	str	r0, [r7, #12]
 8001754:	60b9      	str	r1, [r7, #8]
 8001756:	607a      	str	r2, [r7, #4]
  uint32_t PriorityGroupTmp = (PriorityGroup & (uint32_t)0x07UL);   /* only values 0..7 are used          */
 8001758:	68fb      	ldr	r3, [r7, #12]
 800175a:	f003 0307 	and.w	r3, r3, #7
 800175e:	61fb      	str	r3, [r7, #28]
  PreemptPriorityBits = ((7UL - PriorityGroupTmp) > (uint32_t)(__NVIC_PRIO_BITS)) ? (uint32_t)(__NVIC_PRIO_BITS) : (uint32_t)(7UL - PriorityGroupTmp);
 8001760:	69fb      	ldr	r3, [r7, #28]
 8001762:	f1c3 0307 	rsb	r3, r3, #7
 8001766:	2b04      	cmp	r3, #4
 8001768:	bf28      	it	cs
 800176a:	2304      	movcs	r3, #4
 800176c:	61bb      	str	r3, [r7, #24]
  SubPriorityBits     = ((PriorityGroupTmp + (uint32_t)(__NVIC_PRIO_BITS)) < (uint32_t)7UL) ? (uint32_t)0UL : (uint32_t)((PriorityGroupTmp - 7UL) + (uint32_t)(__NVIC_PRIO_BITS));
 800176e:	69fb      	ldr	r3, [r7, #28]
 8001770:	3304      	adds	r3, #4
 8001772:	2b06      	cmp	r3, #6
 8001774:	d902      	bls.n	800177c <NVIC_EncodePriority+0x30>
 8001776:	69fb      	ldr	r3, [r7, #28]
 8001778:	3b03      	subs	r3, #3
 800177a:	e000      	b.n	800177e <NVIC_EncodePriority+0x32>
 800177c:	2300      	movs	r3, #0
 800177e:	617b      	str	r3, [r7, #20]
           ((PreemptPriority & (uint32_t)((1UL << (PreemptPriorityBits)) - 1UL)) << SubPriorityBits) |
 8001780:	f04f 32ff 	mov.w	r2, #4294967295
 8001784:	69bb      	ldr	r3, [r7, #24]
 8001786:	fa02 f303 	lsl.w	r3, r2, r3
 800178a:	43da      	mvns	r2, r3
 800178c:	68bb      	ldr	r3, [r7, #8]
 800178e:	401a      	ands	r2, r3
 8001790:	697b      	ldr	r3, [r7, #20]
 8001792:	409a      	lsls	r2, r3
           ((SubPriority     & (uint32_t)((1UL << (SubPriorityBits    )) - 1UL)))
 8001794:	f04f 31ff 	mov.w	r1, #4294967295
 8001798:	697b      	ldr	r3, [r7, #20]
 800179a:	fa01 f303 	lsl.w	r3, r1, r3
 800179e:	43d9      	mvns	r1, r3
 80017a0:	687b      	ldr	r3, [r7, #4]
 80017a2:	400b      	ands	r3, r1
           ((PreemptPriority & (uint32_t)((1UL << (PreemptPriorityBits)) - 1UL)) << SubPriorityBits) |
 80017a4:	4313      	orrs	r3, r2
}
 80017a6:	4618      	mov	r0, r3
 80017a8:	3724      	adds	r7, #36	; 0x24
 80017aa:	46bd      	mov	sp, r7
 80017ac:	f85d 7b04 	ldr.w	r7, [sp], #4
 80017b0:	4770      	bx	lr
	...

080017b4 <SysTick_Config>:
  \note    When the variable <b>__Vendor_SysTickConfig</b> is set to 1, then the
           function <b>SysTick_Config</b> is not included. In this case, the file <b><i>device</i>.h</b>
           must contain a vendor-specific implementation of this function.
 */
__STATIC_INLINE uint32_t SysTick_Config(uint32_t ticks)
{
 80017b4:	b580      	push	{r7, lr}
 80017b6:	b082      	sub	sp, #8
 80017b8:	af00      	add	r7, sp, #0
 80017ba:	6078      	str	r0, [r7, #4]
  if ((ticks - 1UL) > SysTick_LOAD_RELOAD_Msk)
 80017bc:	687b      	ldr	r3, [r7, #4]
 80017be:	3b01      	subs	r3, #1
 80017c0:	f1b3 7f80 	cmp.w	r3, #16777216	; 0x1000000
 80017c4:	d301      	bcc.n	80017ca <SysTick_Config+0x16>
  {
    return (1UL);                                                   /* Reload value impossible */
 80017c6:	2301      	movs	r3, #1
 80017c8:	e00f      	b.n	80017ea <SysTick_Config+0x36>
  }

  SysTick->LOAD  = (uint32_t)(ticks - 1UL);                         /* set reload register */
 80017ca:	4a0a      	ldr	r2, [pc, #40]	; (80017f4 <SysTick_Config+0x40>)
 80017cc:	687b      	ldr	r3, [r7, #4]
 80017ce:	3b01      	subs	r3, #1
 80017d0:	6053      	str	r3, [r2, #4]
  NVIC_SetPriority (SysTick_IRQn, (1UL << __NVIC_PRIO_BITS) - 1UL); /* set Priority for Systick Interrupt */
 80017d2:	210f      	movs	r1, #15
 80017d4:	f04f 30ff 	mov.w	r0, #4294967295
 80017d8:	f7ff ff8e 	bl	80016f8 <__NVIC_SetPriority>
  SysTick->VAL   = 0UL;                                             /* Load the SysTick Counter Value */
 80017dc:	4b05      	ldr	r3, [pc, #20]	; (80017f4 <SysTick_Config+0x40>)
 80017de:	2200      	movs	r2, #0
 80017e0:	609a      	str	r2, [r3, #8]
  SysTick->CTRL  = SysTick_CTRL_CLKSOURCE_Msk |
 80017e2:	4b04      	ldr	r3, [pc, #16]	; (80017f4 <SysTick_Config+0x40>)
 80017e4:	2207      	movs	r2, #7
 80017e6:	601a      	str	r2, [r3, #0]
                   SysTick_CTRL_TICKINT_Msk   |
                   SysTick_CTRL_ENABLE_Msk;                         /* Enable SysTick IRQ and SysTick Timer */
  return (0UL);                                                     /* Function successful */
 80017e8:	2300      	movs	r3, #0
}
 80017ea:	4618      	mov	r0, r3
 80017ec:	3708      	adds	r7, #8
 80017ee:	46bd      	mov	sp, r7
 80017f0:	bd80      	pop	{r7, pc}
 80017f2:	bf00      	nop
 80017f4:	e000e010 	.word	0xe000e010

080017f8 <HAL_NVIC_SetPriorityGrouping>:
  * @note   When the NVIC_PriorityGroup_0 is selected, IRQ preemption is no more possible.
  *         The pending IRQ priority will be managed only by the subpriority.
  * @retval None
  */
void HAL_NVIC_SetPriorityGrouping(uint32_t PriorityGroup)
{
 80017f8:	b580      	push	{r7, lr}
 80017fa:	b082      	sub	sp, #8
 80017fc:	af00      	add	r7, sp, #0
 80017fe:	6078      	str	r0, [r7, #4]
  /* Check the parameters */
  assert_param(IS_NVIC_PRIORITY_GROUP(PriorityGroup));

  /* Set the PRIGROUP[10:8] bits according to the PriorityGroup parameter value */
  NVIC_SetPriorityGrouping(PriorityGroup);
 8001800:	6878      	ldr	r0, [r7, #4]
 8001802:	f7ff ff29 	bl	8001658 <__NVIC_SetPriorityGrouping>
}
 8001806:	bf00      	nop
 8001808:	3708      	adds	r7, #8
 800180a:	46bd      	mov	sp, r7
 800180c:	bd80      	pop	{r7, pc}

0800180e <HAL_NVIC_SetPriority>:
  *         This parameter can be a value between 0 and 15
  *         A lower priority value indicates a higher priority.
  * @retval None
  */
void HAL_NVIC_SetPriority(IRQn_Type IRQn, uint32_t PreemptPriority, uint32_t SubPriority)
{
 800180e:	b580      	push	{r7, lr}
 8001810:	b086      	sub	sp, #24
 8001812:	af00      	add	r7, sp, #0
 8001814:	4603      	mov	r3, r0
 8001816:	60b9      	str	r1, [r7, #8]
 8001818:	607a      	str	r2, [r7, #4]
 800181a:	81fb      	strh	r3, [r7, #14]

  /* Check the parameters */
  assert_param(IS_NVIC_SUB_PRIORITY(SubPriority));
  assert_param(IS_NVIC_PREEMPTION_PRIORITY(PreemptPriority));

  prioritygroup = NVIC_GetPriorityGrouping();
 800181c:	f7ff ff40 	bl	80016a0 <__NVIC_GetPriorityGrouping>
 8001820:	6178      	str	r0, [r7, #20]

  NVIC_SetPriority(IRQn, NVIC_EncodePriority(prioritygroup, PreemptPriority, SubPriority));
 8001822:	687a      	ldr	r2, [r7, #4]
 8001824:	68b9      	ldr	r1, [r7, #8]
 8001826:	6978      	ldr	r0, [r7, #20]
 8001828:	f7ff ff90 	bl	800174c <NVIC_EncodePriority>
 800182c:	4602      	mov	r2, r0
 800182e:	f9b7 300e 	ldrsh.w	r3, [r7, #14]
 8001832:	4611      	mov	r1, r2
 8001834:	4618      	mov	r0, r3
 8001836:	f7ff ff5f 	bl	80016f8 <__NVIC_SetPriority>
}
 800183a:	bf00      	nop
 800183c:	3718      	adds	r7, #24
 800183e:	46bd      	mov	sp, r7
 8001840:	bd80      	pop	{r7, pc}

08001842 <HAL_NVIC_EnableIRQ>:
  *         This parameter can be an enumerator of IRQn_Type enumeration
  *         (For the complete STM32 Devices IRQ Channels list, please refer to the appropriate CMSIS device file (stm32h7xxxx.h))
  * @retval None
  */
void HAL_NVIC_EnableIRQ(IRQn_Type IRQn)
{
 8001842:	b580      	push	{r7, lr}
 8001844:	b082      	sub	sp, #8
 8001846:	af00      	add	r7, sp, #0
 8001848:	4603      	mov	r3, r0
 800184a:	80fb      	strh	r3, [r7, #6]
  /* Check the parameters */
  assert_param(IS_NVIC_DEVICE_IRQ(IRQn));

  /* Enable interrupt */
  NVIC_EnableIRQ(IRQn);
 800184c:	f9b7 3006 	ldrsh.w	r3, [r7, #6]
 8001850:	4618      	mov	r0, r3
 8001852:	f7ff ff33 	bl	80016bc <__NVIC_EnableIRQ>
}
 8001856:	bf00      	nop
 8001858:	3708      	adds	r7, #8
 800185a:	46bd      	mov	sp, r7
 800185c:	bd80      	pop	{r7, pc}

0800185e <HAL_SYSTICK_Config>:
  * @param  TicksNumb Specifies the ticks Number of ticks between two interrupts.
  * @retval status   - 0  Function succeeded.
  *                  - 1  Function failed.
  */
uint32_t HAL_SYSTICK_Config(uint32_t TicksNumb)
{
 800185e:	b580      	push	{r7, lr}
 8001860:	b082      	sub	sp, #8
 8001862:	af00      	add	r7, sp, #0
 8001864:	6078      	str	r0, [r7, #4]
   return SysTick_Config(TicksNumb);
 8001866:	6878      	ldr	r0, [r7, #4]
 8001868:	f7ff ffa4 	bl	80017b4 <SysTick_Config>
 800186c:	4603      	mov	r3, r0
}
 800186e:	4618      	mov	r0, r3
 8001870:	3708      	adds	r7, #8
 8001872:	46bd      	mov	sp, r7
 8001874:	bd80      	pop	{r7, pc}
	...

08001878 <HAL_MPU_Disable>:
/**
  * @brief  Disables the MPU
  * @retval None
  */
void HAL_MPU_Disable(void)
{
 8001878:	b480      	push	{r7}
 800187a:	af00      	add	r7, sp, #0
  \details Ensures the apparent order of the explicit memory operations before
           and after the instruction, without ensuring their completion.
 */
__STATIC_FORCEINLINE void __DMB(void)
{
  __ASM volatile ("dmb 0xF":::"memory");
 800187c:	f3bf 8f5f 	dmb	sy
}
 8001880:	bf00      	nop
  /* Make sure outstanding transfers are done */
  __DMB();

  /* Disable fault exceptions */
  SCB->SHCSR &= ~SCB_SHCSR_MEMFAULTENA_Msk;
 8001882:	4b07      	ldr	r3, [pc, #28]	; (80018a0 <HAL_MPU_Disable+0x28>)
 8001884:	6a5b      	ldr	r3, [r3, #36]	; 0x24
 8001886:	4a06      	ldr	r2, [pc, #24]	; (80018a0 <HAL_MPU_Disable+0x28>)
 8001888:	f423 3380 	bic.w	r3, r3, #65536	; 0x10000
 800188c:	6253      	str	r3, [r2, #36]	; 0x24

  /* Disable the MPU and clear the control register*/
  MPU->CTRL = 0;
 800188e:	4b05      	ldr	r3, [pc, #20]	; (80018a4 <HAL_MPU_Disable+0x2c>)
 8001890:	2200      	movs	r2, #0
 8001892:	605a      	str	r2, [r3, #4]
}
 8001894:	bf00      	nop
 8001896:	46bd      	mov	sp, r7
 8001898:	f85d 7b04 	ldr.w	r7, [sp], #4
 800189c:	4770      	bx	lr
 800189e:	bf00      	nop
 80018a0:	e000ed00 	.word	0xe000ed00
 80018a4:	e000ed90 	.word	0xe000ed90

080018a8 <HAL_MPU_Enable>:
  *            @arg MPU_PRIVILEGED_DEFAULT
  *            @arg MPU_HFNMI_PRIVDEF
  * @retval None
  */
void HAL_MPU_Enable(uint32_t MPU_Control)
{
 80018a8:	b480      	push	{r7}
 80018aa:	b083      	sub	sp, #12
 80018ac:	af00      	add	r7, sp, #0
 80018ae:	6078      	str	r0, [r7, #4]
  /* Enable the MPU */
  MPU->CTRL = MPU_Control | MPU_CTRL_ENABLE_Msk;
 80018b0:	4a0b      	ldr	r2, [pc, #44]	; (80018e0 <HAL_MPU_Enable+0x38>)
 80018b2:	687b      	ldr	r3, [r7, #4]
 80018b4:	f043 0301 	orr.w	r3, r3, #1
 80018b8:	6053      	str	r3, [r2, #4]

  /* Enable fault exceptions */
  SCB->SHCSR |= SCB_SHCSR_MEMFAULTENA_Msk;
 80018ba:	4b0a      	ldr	r3, [pc, #40]	; (80018e4 <HAL_MPU_Enable+0x3c>)
 80018bc:	6a5b      	ldr	r3, [r3, #36]	; 0x24
 80018be:	4a09      	ldr	r2, [pc, #36]	; (80018e4 <HAL_MPU_Enable+0x3c>)
 80018c0:	f443 3380 	orr.w	r3, r3, #65536	; 0x10000
 80018c4:	6253      	str	r3, [r2, #36]	; 0x24
  __ASM volatile ("dsb 0xF":::"memory");
 80018c6:	f3bf 8f4f 	dsb	sy
}
 80018ca:	bf00      	nop
  __ASM volatile ("isb 0xF":::"memory");
 80018cc:	f3bf 8f6f 	isb	sy
}
 80018d0:	bf00      	nop

  /* Ensure MPU setting take effects */
  __DSB();
  __ISB();
}
 80018d2:	bf00      	nop
 80018d4:	370c      	adds	r7, #12
 80018d6:	46bd      	mov	sp, r7
 80018d8:	f85d 7b04 	ldr.w	r7, [sp], #4
 80018dc:	4770      	bx	lr
 80018de:	bf00      	nop
 80018e0:	e000ed90 	.word	0xe000ed90
 80018e4:	e000ed00 	.word	0xe000ed00

080018e8 <HAL_MPU_ConfigRegion>:
  * @param  MPU_Init Pointer to a MPU_Region_InitTypeDef structure that contains
  *                  the initialization and configuration information.
  * @retval None
  */
void HAL_MPU_ConfigRegion(MPU_Region_InitTypeDef *MPU_Init)
{
 80018e8:	b480      	push	{r7}
 80018ea:	b083      	sub	sp, #12
 80018ec:	af00      	add	r7, sp, #0
 80018ee:	6078      	str	r0, [r7, #4]
  /* Check the parameters */
  assert_param(IS_MPU_REGION_NUMBER(MPU_Init->Number));
  assert_param(IS_MPU_REGION_ENABLE(MPU_Init->Enable));

  /* Set the Region number */
  MPU->RNR = MPU_Init->Number;
 80018f0:	687b      	ldr	r3, [r7, #4]
 80018f2:	785a      	ldrb	r2, [r3, #1]
 80018f4:	4b1d      	ldr	r3, [pc, #116]	; (800196c <HAL_MPU_ConfigRegion+0x84>)
 80018f6:	609a      	str	r2, [r3, #8]

  if ((MPU_Init->Enable) != 0UL)
 80018f8:	687b      	ldr	r3, [r7, #4]
 80018fa:	781b      	ldrb	r3, [r3, #0]
 80018fc:	2b00      	cmp	r3, #0
 80018fe:	d029      	beq.n	8001954 <HAL_MPU_ConfigRegion+0x6c>
    assert_param(IS_MPU_ACCESS_CACHEABLE(MPU_Init->IsCacheable));
    assert_param(IS_MPU_ACCESS_BUFFERABLE(MPU_Init->IsBufferable));
    assert_param(IS_MPU_SUB_REGION_DISABLE(MPU_Init->SubRegionDisable));
    assert_param(IS_MPU_REGION_SIZE(MPU_Init->Size));

    MPU->RBAR = MPU_Init->BaseAddress;
 8001900:	4a1a      	ldr	r2, [pc, #104]	; (800196c <HAL_MPU_ConfigRegion+0x84>)
 8001902:	687b      	ldr	r3, [r7, #4]
 8001904:	685b      	ldr	r3, [r3, #4]
 8001906:	60d3      	str	r3, [r2, #12]
    MPU->RASR = ((uint32_t)MPU_Init->DisableExec             << MPU_RASR_XN_Pos)   |
 8001908:	687b      	ldr	r3, [r7, #4]
 800190a:	7b1b      	ldrb	r3, [r3, #12]
 800190c:	071a      	lsls	r2, r3, #28
                ((uint32_t)MPU_Init->AccessPermission        << MPU_RASR_AP_Pos)   |
 800190e:	687b      	ldr	r3, [r7, #4]
 8001910:	7adb      	ldrb	r3, [r3, #11]
 8001912:	061b      	lsls	r3, r3, #24
    MPU->RASR = ((uint32_t)MPU_Init->DisableExec             << MPU_RASR_XN_Pos)   |
 8001914:	431a      	orrs	r2, r3
                ((uint32_t)MPU_Init->TypeExtField            << MPU_RASR_TEX_Pos)  |
 8001916:	687b      	ldr	r3, [r7, #4]
 8001918:	7a9b      	ldrb	r3, [r3, #10]
 800191a:	04db      	lsls	r3, r3, #19
                ((uint32_t)MPU_Init->AccessPermission        << MPU_RASR_AP_Pos)   |
 800191c:	431a      	orrs	r2, r3
                ((uint32_t)MPU_Init->IsShareable             << MPU_RASR_S_Pos)    |
 800191e:	687b      	ldr	r3, [r7, #4]
 8001920:	7b5b      	ldrb	r3, [r3, #13]
 8001922:	049b      	lsls	r3, r3, #18
                ((uint32_t)MPU_Init->TypeExtField            << MPU_RASR_TEX_Pos)  |
 8001924:	431a      	orrs	r2, r3
                ((uint32_t)MPU_Init->IsCacheable             << MPU_RASR_C_Pos)    |
 8001926:	687b      	ldr	r3, [r7, #4]
 8001928:	7b9b      	ldrb	r3, [r3, #14]
 800192a:	045b      	lsls	r3, r3, #17
                ((uint32_t)MPU_Init->IsShareable             << MPU_RASR_S_Pos)    |
 800192c:	431a      	orrs	r2, r3
                ((uint32_t)MPU_Init->IsBufferable            << MPU_RASR_B_Pos)    |
 800192e:	687b      	ldr	r3, [r7, #4]
 8001930:	7bdb      	ldrb	r3, [r3, #15]
 8001932:	041b      	lsls	r3, r3, #16
                ((uint32_t)MPU_Init->IsCacheable             << MPU_RASR_C_Pos)    |
 8001934:	431a      	orrs	r2, r3
                ((uint32_t)MPU_Init->SubRegionDisable        << MPU_RASR_SRD_Pos)  |
 8001936:	687b      	ldr	r3, [r7, #4]
 8001938:	7a5b      	ldrb	r3, [r3, #9]
 800193a:	021b      	lsls	r3, r3, #8
                ((uint32_t)MPU_Init->IsBufferable            << MPU_RASR_B_Pos)    |
 800193c:	431a      	orrs	r2, r3
                ((uint32_t)MPU_Init->Size                    << MPU_RASR_SIZE_Pos) |
 800193e:	687b      	ldr	r3, [r7, #4]
 8001940:	7a1b      	ldrb	r3, [r3, #8]
 8001942:	005b      	lsls	r3, r3, #1
                ((uint32_t)MPU_Init->SubRegionDisable        << MPU_RASR_SRD_Pos)  |
 8001944:	4313      	orrs	r3, r2
                ((uint32_t)MPU_Init->Enable                  << MPU_RASR_ENABLE_Pos);
 8001946:	687a      	ldr	r2, [r7, #4]
 8001948:	7812      	ldrb	r2, [r2, #0]
 800194a:	4611      	mov	r1, r2
    MPU->RASR = ((uint32_t)MPU_Init->DisableExec             << MPU_RASR_XN_Pos)   |
 800194c:	4a07      	ldr	r2, [pc, #28]	; (800196c <HAL_MPU_ConfigRegion+0x84>)
                ((uint32_t)MPU_Init->Size                    << MPU_RASR_SIZE_Pos) |
 800194e:	430b      	orrs	r3, r1
    MPU->RASR = ((uint32_t)MPU_Init->DisableExec             << MPU_RASR_XN_Pos)   |
 8001950:	6113      	str	r3, [r2, #16]
  else
  {
    MPU->RBAR = 0x00;
    MPU->RASR = 0x00;
  }
}
 8001952:	e005      	b.n	8001960 <HAL_MPU_ConfigRegion+0x78>
    MPU->RBAR = 0x00;
 8001954:	4b05      	ldr	r3, [pc, #20]	; (800196c <HAL_MPU_ConfigRegion+0x84>)
 8001956:	2200      	movs	r2, #0
 8001958:	60da      	str	r2, [r3, #12]
    MPU->RASR = 0x00;
 800195a:	4b04      	ldr	r3, [pc, #16]	; (800196c <HAL_MPU_ConfigRegion+0x84>)
 800195c:	2200      	movs	r2, #0
 800195e:	611a      	str	r2, [r3, #16]
}
 8001960:	bf00      	nop
 8001962:	370c      	adds	r7, #12
 8001964:	46bd      	mov	sp, r7
 8001966:	f85d 7b04 	ldr.w	r7, [sp], #4
 800196a:	4770      	bx	lr
 800196c:	e000ed90 	.word	0xe000ed90

08001970 <HAL_GPIO_Init>:
  * @param  GPIO_Init: pointer to a GPIO_InitTypeDef structure that contains
  *         the configuration information for the specified GPIO peripheral.
  * @retval None
  */
void HAL_GPIO_Init(GPIO_TypeDef  *GPIOx, GPIO_InitTypeDef *GPIO_Init)
{
 8001970:	b480      	push	{r7}
 8001972:	b089      	sub	sp, #36	; 0x24
 8001974:	af00      	add	r7, sp, #0
 8001976:	6078      	str	r0, [r7, #4]
 8001978:	6039      	str	r1, [r7, #0]
  uint32_t position = 0x00U;
 800197a:	2300      	movs	r3, #0
 800197c:	61fb      	str	r3, [r7, #28]
  EXTI_Core_TypeDef *EXTI_CurrentCPU;

#if defined(DUAL_CORE) && defined(CORE_CM4)
  EXTI_CurrentCPU = EXTI_D2; /* EXTI for CM4 CPU */
#else
  EXTI_CurrentCPU = EXTI_D1; /* EXTI for CM7 CPU */
 800197e:	4b89      	ldr	r3, [pc, #548]	; (8001ba4 <HAL_GPIO_Init+0x234>)
 8001980:	617b      	str	r3, [r7, #20]
  assert_param(IS_GPIO_ALL_INSTANCE(GPIOx));
  assert_param(IS_GPIO_PIN(GPIO_Init->Pin));
  assert_param(IS_GPIO_MODE(GPIO_Init->Mode));

  /* Configure the port pins */
  while (((GPIO_Init->Pin) >> position) != 0x00U)
 8001982:	e194      	b.n	8001cae <HAL_GPIO_Init+0x33e>
  {
    /* Get current io position */
    iocurrent = (GPIO_Init->Pin) & (1UL << position);
 8001984:	683b      	ldr	r3, [r7, #0]
 8001986:	681a      	ldr	r2, [r3, #0]
 8001988:	2101      	movs	r1, #1
 800198a:	69fb      	ldr	r3, [r7, #28]
 800198c:	fa01 f303 	lsl.w	r3, r1, r3
 8001990:	4013      	ands	r3, r2
 8001992:	613b      	str	r3, [r7, #16]

    if (iocurrent != 0x00U)
 8001994:	693b      	ldr	r3, [r7, #16]
 8001996:	2b00      	cmp	r3, #0
 8001998:	f000 8186 	beq.w	8001ca8 <HAL_GPIO_Init+0x338>
    {
      /*--------------------- GPIO Mode Configuration ------------------------*/
      /* In case of Output or Alternate function mode selection */
      if (((GPIO_Init->Mode & GPIO_MODE) == MODE_OUTPUT) || ((GPIO_Init->Mode & GPIO_MODE) == MODE_AF))
 800199c:	683b      	ldr	r3, [r7, #0]
 800199e:	685b      	ldr	r3, [r3, #4]
 80019a0:	f003 0303 	and.w	r3, r3, #3
 80019a4:	2b01      	cmp	r3, #1
 80019a6:	d005      	beq.n	80019b4 <HAL_GPIO_Init+0x44>
 80019a8:	683b      	ldr	r3, [r7, #0]
 80019aa:	685b      	ldr	r3, [r3, #4]
 80019ac:	f003 0303 	and.w	r3, r3, #3
 80019b0:	2b02      	cmp	r3, #2
 80019b2:	d130      	bne.n	8001a16 <HAL_GPIO_Init+0xa6>
      {
        /* Check the Speed parameter */
        assert_param(IS_GPIO_SPEED(GPIO_Init->Speed));

        /* Configure the IO Speed */
        temp = GPIOx->OSPEEDR;
 80019b4:	687b      	ldr	r3, [r7, #4]
 80019b6:	689b      	ldr	r3, [r3, #8]
 80019b8:	61bb      	str	r3, [r7, #24]
        temp &= ~(GPIO_OSPEEDR_OSPEED0 << (position * 2U));
 80019ba:	69fb      	ldr	r3, [r7, #28]
 80019bc:	005b      	lsls	r3, r3, #1
 80019be:	2203      	movs	r2, #3
 80019c0:	fa02 f303 	lsl.w	r3, r2, r3
 80019c4:	43db      	mvns	r3, r3
 80019c6:	69ba      	ldr	r2, [r7, #24]
 80019c8:	4013      	ands	r3, r2
 80019ca:	61bb      	str	r3, [r7, #24]
        temp |= (GPIO_Init->Speed << (position * 2U));
 80019cc:	683b      	ldr	r3, [r7, #0]
 80019ce:	68da      	ldr	r2, [r3, #12]
 80019d0:	69fb      	ldr	r3, [r7, #28]
 80019d2:	005b      	lsls	r3, r3, #1
 80019d4:	fa02 f303 	lsl.w	r3, r2, r3
 80019d8:	69ba      	ldr	r2, [r7, #24]
 80019da:	4313      	orrs	r3, r2
 80019dc:	61bb      	str	r3, [r7, #24]
        GPIOx->OSPEEDR = temp;
 80019de:	687b      	ldr	r3, [r7, #4]
 80019e0:	69ba      	ldr	r2, [r7, #24]
 80019e2:	609a      	str	r2, [r3, #8]

        /* Configure the IO Output Type */
        temp = GPIOx->OTYPER;
 80019e4:	687b      	ldr	r3, [r7, #4]
 80019e6:	685b      	ldr	r3, [r3, #4]
 80019e8:	61bb      	str	r3, [r7, #24]
        temp &= ~(GPIO_OTYPER_OT0 << position) ;
 80019ea:	2201      	movs	r2, #1
 80019ec:	69fb      	ldr	r3, [r7, #28]
 80019ee:	fa02 f303 	lsl.w	r3, r2, r3
 80019f2:	43db      	mvns	r3, r3
 80019f4:	69ba      	ldr	r2, [r7, #24]
 80019f6:	4013      	ands	r3, r2
 80019f8:	61bb      	str	r3, [r7, #24]
        temp |= (((GPIO_Init->Mode & OUTPUT_TYPE) >> OUTPUT_TYPE_Pos) << position);
 80019fa:	683b      	ldr	r3, [r7, #0]
 80019fc:	685b      	ldr	r3, [r3, #4]
 80019fe:	091b      	lsrs	r3, r3, #4
 8001a00:	f003 0201 	and.w	r2, r3, #1
 8001a04:	69fb      	ldr	r3, [r7, #28]
 8001a06:	fa02 f303 	lsl.w	r3, r2, r3
 8001a0a:	69ba      	ldr	r2, [r7, #24]
 8001a0c:	4313      	orrs	r3, r2
 8001a0e:	61bb      	str	r3, [r7, #24]
        GPIOx->OTYPER = temp;
 8001a10:	687b      	ldr	r3, [r7, #4]
 8001a12:	69ba      	ldr	r2, [r7, #24]
 8001a14:	605a      	str	r2, [r3, #4]
      }

      if ((GPIO_Init->Mode & GPIO_MODE) != MODE_ANALOG)
 8001a16:	683b      	ldr	r3, [r7, #0]
 8001a18:	685b      	ldr	r3, [r3, #4]
 8001a1a:	f003 0303 	and.w	r3, r3, #3
 8001a1e:	2b03      	cmp	r3, #3
 8001a20:	d017      	beq.n	8001a52 <HAL_GPIO_Init+0xe2>
      {
       /* Check the Pull parameter */
       assert_param(IS_GPIO_PULL(GPIO_Init->Pull));

      /* Activate the Pull-up or Pull down resistor for the current IO */
      temp = GPIOx->PUPDR;
 8001a22:	687b      	ldr	r3, [r7, #4]
 8001a24:	68db      	ldr	r3, [r3, #12]
 8001a26:	61bb      	str	r3, [r7, #24]
      temp &= ~(GPIO_PUPDR_PUPD0 << (position * 2U));
 8001a28:	69fb      	ldr	r3, [r7, #28]
 8001a2a:	005b      	lsls	r3, r3, #1
 8001a2c:	2203      	movs	r2, #3
 8001a2e:	fa02 f303 	lsl.w	r3, r2, r3
 8001a32:	43db      	mvns	r3, r3
 8001a34:	69ba      	ldr	r2, [r7, #24]
 8001a36:	4013      	ands	r3, r2
 8001a38:	61bb      	str	r3, [r7, #24]
      temp |= ((GPIO_Init->Pull) << (position * 2U));
 8001a3a:	683b      	ldr	r3, [r7, #0]
 8001a3c:	689a      	ldr	r2, [r3, #8]
 8001a3e:	69fb      	ldr	r3, [r7, #28]
 8001a40:	005b      	lsls	r3, r3, #1
 8001a42:	fa02 f303 	lsl.w	r3, r2, r3
 8001a46:	69ba      	ldr	r2, [r7, #24]
 8001a48:	4313      	orrs	r3, r2
 8001a4a:	61bb      	str	r3, [r7, #24]
      GPIOx->PUPDR = temp;
 8001a4c:	687b      	ldr	r3, [r7, #4]
 8001a4e:	69ba      	ldr	r2, [r7, #24]
 8001a50:	60da      	str	r2, [r3, #12]
      }

      /* In case of Alternate function mode selection */
      if ((GPIO_Init->Mode & GPIO_MODE) == MODE_AF)
 8001a52:	683b      	ldr	r3, [r7, #0]
 8001a54:	685b      	ldr	r3, [r3, #4]
 8001a56:	f003 0303 	and.w	r3, r3, #3
 8001a5a:	2b02      	cmp	r3, #2
 8001a5c:	d123      	bne.n	8001aa6 <HAL_GPIO_Init+0x136>
        /* Check the Alternate function parameters */
        assert_param(IS_GPIO_AF_INSTANCE(GPIOx));
        assert_param(IS_GPIO_AF(GPIO_Init->Alternate));

        /* Configure Alternate function mapped with the current IO */
        temp = GPIOx->AFR[position >> 3U];
 8001a5e:	69fb      	ldr	r3, [r7, #28]
 8001a60:	08da      	lsrs	r2, r3, #3
 8001a62:	687b      	ldr	r3, [r7, #4]
 8001a64:	3208      	adds	r2, #8
 8001a66:	f853 3022 	ldr.w	r3, [r3, r2, lsl #2]
 8001a6a:	61bb      	str	r3, [r7, #24]
        temp &= ~(0xFU << ((position & 0x07U) * 4U));
 8001a6c:	69fb      	ldr	r3, [r7, #28]
 8001a6e:	f003 0307 	and.w	r3, r3, #7
 8001a72:	009b      	lsls	r3, r3, #2
 8001a74:	220f      	movs	r2, #15
 8001a76:	fa02 f303 	lsl.w	r3, r2, r3
 8001a7a:	43db      	mvns	r3, r3
 8001a7c:	69ba      	ldr	r2, [r7, #24]
 8001a7e:	4013      	ands	r3, r2
 8001a80:	61bb      	str	r3, [r7, #24]
        temp |= ((GPIO_Init->Alternate) << ((position & 0x07U) * 4U));
 8001a82:	683b      	ldr	r3, [r7, #0]
 8001a84:	691a      	ldr	r2, [r3, #16]
 8001a86:	69fb      	ldr	r3, [r7, #28]
 8001a88:	f003 0307 	and.w	r3, r3, #7
 8001a8c:	009b      	lsls	r3, r3, #2
 8001a8e:	fa02 f303 	lsl.w	r3, r2, r3
 8001a92:	69ba      	ldr	r2, [r7, #24]
 8001a94:	4313      	orrs	r3, r2
 8001a96:	61bb      	str	r3, [r7, #24]
        GPIOx->AFR[position >> 3U] = temp;
 8001a98:	69fb      	ldr	r3, [r7, #28]
 8001a9a:	08da      	lsrs	r2, r3, #3
 8001a9c:	687b      	ldr	r3, [r7, #4]
 8001a9e:	3208      	adds	r2, #8
 8001aa0:	69b9      	ldr	r1, [r7, #24]
 8001aa2:	f843 1022 	str.w	r1, [r3, r2, lsl #2]
      }

      /* Configure IO Direction mode (Input, Output, Alternate or Analog) */
      temp = GPIOx->MODER;
 8001aa6:	687b      	ldr	r3, [r7, #4]
 8001aa8:	681b      	ldr	r3, [r3, #0]
 8001aaa:	61bb      	str	r3, [r7, #24]
      temp &= ~(GPIO_MODER_MODE0 << (position * 2U));
 8001aac:	69fb      	ldr	r3, [r7, #28]
 8001aae:	005b      	lsls	r3, r3, #1
 8001ab0:	2203      	movs	r2, #3
 8001ab2:	fa02 f303 	lsl.w	r3, r2, r3
 8001ab6:	43db      	mvns	r3, r3
 8001ab8:	69ba      	ldr	r2, [r7, #24]
 8001aba:	4013      	ands	r3, r2
 8001abc:	61bb      	str	r3, [r7, #24]
      temp |= ((GPIO_Init->Mode & GPIO_MODE) << (position * 2U));
 8001abe:	683b      	ldr	r3, [r7, #0]
 8001ac0:	685b      	ldr	r3, [r3, #4]
 8001ac2:	f003 0203 	and.w	r2, r3, #3
 8001ac6:	69fb      	ldr	r3, [r7, #28]
 8001ac8:	005b      	lsls	r3, r3, #1
 8001aca:	fa02 f303 	lsl.w	r3, r2, r3
 8001ace:	69ba      	ldr	r2, [r7, #24]
 8001ad0:	4313      	orrs	r3, r2
 8001ad2:	61bb      	str	r3, [r7, #24]
      GPIOx->MODER = temp;
 8001ad4:	687b      	ldr	r3, [r7, #4]
 8001ad6:	69ba      	ldr	r2, [r7, #24]
 8001ad8:	601a      	str	r2, [r3, #0]

      /*--------------------- EXTI Mode Configuration ------------------------*/
      /* Configure the External Interrupt or event for the current IO */
      if ((GPIO_Init->Mode & EXTI_MODE) != 0x00U)
 8001ada:	683b      	ldr	r3, [r7, #0]
 8001adc:	685b      	ldr	r3, [r3, #4]
 8001ade:	f403 3340 	and.w	r3, r3, #196608	; 0x30000
 8001ae2:	2b00      	cmp	r3, #0
 8001ae4:	f000 80e0 	beq.w	8001ca8 <HAL_GPIO_Init+0x338>
      {
        /* Enable SYSCFG Clock */
        __HAL_RCC_SYSCFG_CLK_ENABLE();
 8001ae8:	4b2f      	ldr	r3, [pc, #188]	; (8001ba8 <HAL_GPIO_Init+0x238>)
 8001aea:	f8d3 30f4 	ldr.w	r3, [r3, #244]	; 0xf4
 8001aee:	4a2e      	ldr	r2, [pc, #184]	; (8001ba8 <HAL_GPIO_Init+0x238>)
 8001af0:	f043 0302 	orr.w	r3, r3, #2
 8001af4:	f8c2 30f4 	str.w	r3, [r2, #244]	; 0xf4
 8001af8:	4b2b      	ldr	r3, [pc, #172]	; (8001ba8 <HAL_GPIO_Init+0x238>)
 8001afa:	f8d3 30f4 	ldr.w	r3, [r3, #244]	; 0xf4
 8001afe:	f003 0302 	and.w	r3, r3, #2
 8001b02:	60fb      	str	r3, [r7, #12]
 8001b04:	68fb      	ldr	r3, [r7, #12]

        temp = SYSCFG->EXTICR[position >> 2U];
 8001b06:	4a29      	ldr	r2, [pc, #164]	; (8001bac <HAL_GPIO_Init+0x23c>)
 8001b08:	69fb      	ldr	r3, [r7, #28]
 8001b0a:	089b      	lsrs	r3, r3, #2
 8001b0c:	3302      	adds	r3, #2
 8001b0e:	f852 3023 	ldr.w	r3, [r2, r3, lsl #2]
 8001b12:	61bb      	str	r3, [r7, #24]
        temp &= ~(0x0FUL << (4U * (position & 0x03U)));
 8001b14:	69fb      	ldr	r3, [r7, #28]
 8001b16:	f003 0303 	and.w	r3, r3, #3
 8001b1a:	009b      	lsls	r3, r3, #2
 8001b1c:	220f      	movs	r2, #15
 8001b1e:	fa02 f303 	lsl.w	r3, r2, r3
 8001b22:	43db      	mvns	r3, r3
 8001b24:	69ba      	ldr	r2, [r7, #24]
 8001b26:	4013      	ands	r3, r2
 8001b28:	61bb      	str	r3, [r7, #24]
        temp |= (GPIO_GET_INDEX(GPIOx) << (4U * (position & 0x03U)));
 8001b2a:	687b      	ldr	r3, [r7, #4]
 8001b2c:	4a20      	ldr	r2, [pc, #128]	; (8001bb0 <HAL_GPIO_Init+0x240>)
 8001b2e:	4293      	cmp	r3, r2
 8001b30:	d052      	beq.n	8001bd8 <HAL_GPIO_Init+0x268>
 8001b32:	687b      	ldr	r3, [r7, #4]
 8001b34:	4a1f      	ldr	r2, [pc, #124]	; (8001bb4 <HAL_GPIO_Init+0x244>)
 8001b36:	4293      	cmp	r3, r2
 8001b38:	d031      	beq.n	8001b9e <HAL_GPIO_Init+0x22e>
 8001b3a:	687b      	ldr	r3, [r7, #4]
 8001b3c:	4a1e      	ldr	r2, [pc, #120]	; (8001bb8 <HAL_GPIO_Init+0x248>)
 8001b3e:	4293      	cmp	r3, r2
 8001b40:	d02b      	beq.n	8001b9a <HAL_GPIO_Init+0x22a>
 8001b42:	687b      	ldr	r3, [r7, #4]
 8001b44:	4a1d      	ldr	r2, [pc, #116]	; (8001bbc <HAL_GPIO_Init+0x24c>)
 8001b46:	4293      	cmp	r3, r2
 8001b48:	d025      	beq.n	8001b96 <HAL_GPIO_Init+0x226>
 8001b4a:	687b      	ldr	r3, [r7, #4]
 8001b4c:	4a1c      	ldr	r2, [pc, #112]	; (8001bc0 <HAL_GPIO_Init+0x250>)
 8001b4e:	4293      	cmp	r3, r2
 8001b50:	d01f      	beq.n	8001b92 <HAL_GPIO_Init+0x222>
 8001b52:	687b      	ldr	r3, [r7, #4]
 8001b54:	4a1b      	ldr	r2, [pc, #108]	; (8001bc4 <HAL_GPIO_Init+0x254>)
 8001b56:	4293      	cmp	r3, r2
 8001b58:	d019      	beq.n	8001b8e <HAL_GPIO_Init+0x21e>
 8001b5a:	687b      	ldr	r3, [r7, #4]
 8001b5c:	4a1a      	ldr	r2, [pc, #104]	; (8001bc8 <HAL_GPIO_Init+0x258>)
 8001b5e:	4293      	cmp	r3, r2
 8001b60:	d013      	beq.n	8001b8a <HAL_GPIO_Init+0x21a>
 8001b62:	687b      	ldr	r3, [r7, #4]
 8001b64:	4a19      	ldr	r2, [pc, #100]	; (8001bcc <HAL_GPIO_Init+0x25c>)
 8001b66:	4293      	cmp	r3, r2
 8001b68:	d00d      	beq.n	8001b86 <HAL_GPIO_Init+0x216>
 8001b6a:	687b      	ldr	r3, [r7, #4]
 8001b6c:	4a18      	ldr	r2, [pc, #96]	; (8001bd0 <HAL_GPIO_Init+0x260>)
 8001b6e:	4293      	cmp	r3, r2
 8001b70:	d007      	beq.n	8001b82 <HAL_GPIO_Init+0x212>
 8001b72:	687b      	ldr	r3, [r7, #4]
 8001b74:	4a17      	ldr	r2, [pc, #92]	; (8001bd4 <HAL_GPIO_Init+0x264>)
 8001b76:	4293      	cmp	r3, r2
 8001b78:	d101      	bne.n	8001b7e <HAL_GPIO_Init+0x20e>
 8001b7a:	2309      	movs	r3, #9
 8001b7c:	e02d      	b.n	8001bda <HAL_GPIO_Init+0x26a>
 8001b7e:	230a      	movs	r3, #10
 8001b80:	e02b      	b.n	8001bda <HAL_GPIO_Init+0x26a>
 8001b82:	2308      	movs	r3, #8
 8001b84:	e029      	b.n	8001bda <HAL_GPIO_Init+0x26a>
 8001b86:	2307      	movs	r3, #7
 8001b88:	e027      	b.n	8001bda <HAL_GPIO_Init+0x26a>
 8001b8a:	2306      	movs	r3, #6
 8001b8c:	e025      	b.n	8001bda <HAL_GPIO_Init+0x26a>
 8001b8e:	2305      	movs	r3, #5
 8001b90:	e023      	b.n	8001bda <HAL_GPIO_Init+0x26a>
 8001b92:	2304      	movs	r3, #4
 8001b94:	e021      	b.n	8001bda <HAL_GPIO_Init+0x26a>
 8001b96:	2303      	movs	r3, #3
 8001b98:	e01f      	b.n	8001bda <HAL_GPIO_Init+0x26a>
 8001b9a:	2302      	movs	r3, #2
 8001b9c:	e01d      	b.n	8001bda <HAL_GPIO_Init+0x26a>
 8001b9e:	2301      	movs	r3, #1
 8001ba0:	e01b      	b.n	8001bda <HAL_GPIO_Init+0x26a>
 8001ba2:	bf00      	nop
 8001ba4:	58000080 	.word	0x58000080
 8001ba8:	58024400 	.word	0x58024400
 8001bac:	58000400 	.word	0x58000400
 8001bb0:	58020000 	.word	0x58020000
 8001bb4:	58020400 	.word	0x58020400
 8001bb8:	58020800 	.word	0x58020800
 8001bbc:	58020c00 	.word	0x58020c00
 8001bc0:	58021000 	.word	0x58021000
 8001bc4:	58021400 	.word	0x58021400
 8001bc8:	58021800 	.word	0x58021800
 8001bcc:	58021c00 	.word	0x58021c00
 8001bd0:	58022000 	.word	0x58022000
 8001bd4:	58022400 	.word	0x58022400
 8001bd8:	2300      	movs	r3, #0
 8001bda:	69fa      	ldr	r2, [r7, #28]
 8001bdc:	f002 0203 	and.w	r2, r2, #3
 8001be0:	0092      	lsls	r2, r2, #2
 8001be2:	4093      	lsls	r3, r2
 8001be4:	69ba      	ldr	r2, [r7, #24]
 8001be6:	4313      	orrs	r3, r2
 8001be8:	61bb      	str	r3, [r7, #24]
        SYSCFG->EXTICR[position >> 2U] = temp;
 8001bea:	4938      	ldr	r1, [pc, #224]	; (8001ccc <HAL_GPIO_Init+0x35c>)
 8001bec:	69fb      	ldr	r3, [r7, #28]
 8001bee:	089b      	lsrs	r3, r3, #2
 8001bf0:	3302      	adds	r3, #2
 8001bf2:	69ba      	ldr	r2, [r7, #24]
 8001bf4:	f841 2023 	str.w	r2, [r1, r3, lsl #2]

        /* Clear Rising Falling edge configuration */
        temp = EXTI->RTSR1;
 8001bf8:	f04f 43b0 	mov.w	r3, #1476395008	; 0x58000000
 8001bfc:	681b      	ldr	r3, [r3, #0]
 8001bfe:	61bb      	str	r3, [r7, #24]
        temp &= ~(iocurrent);
 8001c00:	693b      	ldr	r3, [r7, #16]
 8001c02:	43db      	mvns	r3, r3
 8001c04:	69ba      	ldr	r2, [r7, #24]
 8001c06:	4013      	ands	r3, r2
 8001c08:	61bb      	str	r3, [r7, #24]
        if ((GPIO_Init->Mode & TRIGGER_RISING) != 0x00U)
 8001c0a:	683b      	ldr	r3, [r7, #0]
 8001c0c:	685b      	ldr	r3, [r3, #4]
 8001c0e:	f403 1380 	and.w	r3, r3, #1048576	; 0x100000
 8001c12:	2b00      	cmp	r3, #0
 8001c14:	d003      	beq.n	8001c1e <HAL_GPIO_Init+0x2ae>
        {
          temp |= iocurrent;
 8001c16:	69ba      	ldr	r2, [r7, #24]
 8001c18:	693b      	ldr	r3, [r7, #16]
 8001c1a:	4313      	orrs	r3, r2
 8001c1c:	61bb      	str	r3, [r7, #24]
        }
        EXTI->RTSR1 = temp;
 8001c1e:	f04f 42b0 	mov.w	r2, #1476395008	; 0x58000000
 8001c22:	69bb      	ldr	r3, [r7, #24]
 8001c24:	6013      	str	r3, [r2, #0]

        temp = EXTI->FTSR1;
 8001c26:	f04f 43b0 	mov.w	r3, #1476395008	; 0x58000000
 8001c2a:	685b      	ldr	r3, [r3, #4]
 8001c2c:	61bb      	str	r3, [r7, #24]
        temp &= ~(iocurrent);
 8001c2e:	693b      	ldr	r3, [r7, #16]
 8001c30:	43db      	mvns	r3, r3
 8001c32:	69ba      	ldr	r2, [r7, #24]
 8001c34:	4013      	ands	r3, r2
 8001c36:	61bb      	str	r3, [r7, #24]
        if ((GPIO_Init->Mode & TRIGGER_FALLING) != 0x00U)
 8001c38:	683b      	ldr	r3, [r7, #0]
 8001c3a:	685b      	ldr	r3, [r3, #4]
 8001c3c:	f403 1300 	and.w	r3, r3, #2097152	; 0x200000
 8001c40:	2b00      	cmp	r3, #0
 8001c42:	d003      	beq.n	8001c4c <HAL_GPIO_Init+0x2dc>
        {
          temp |= iocurrent;
 8001c44:	69ba      	ldr	r2, [r7, #24]
 8001c46:	693b      	ldr	r3, [r7, #16]
 8001c48:	4313      	orrs	r3, r2
 8001c4a:	61bb      	str	r3, [r7, #24]
        }
        EXTI->FTSR1 = temp;
 8001c4c:	f04f 42b0 	mov.w	r2, #1476395008	; 0x58000000
 8001c50:	69bb      	ldr	r3, [r7, #24]
 8001c52:	6053      	str	r3, [r2, #4]

        temp = EXTI_CurrentCPU->EMR1;
 8001c54:	697b      	ldr	r3, [r7, #20]
 8001c56:	685b      	ldr	r3, [r3, #4]
 8001c58:	61bb      	str	r3, [r7, #24]
        temp &= ~(iocurrent);
 8001c5a:	693b      	ldr	r3, [r7, #16]
 8001c5c:	43db      	mvns	r3, r3
 8001c5e:	69ba      	ldr	r2, [r7, #24]
 8001c60:	4013      	ands	r3, r2
 8001c62:	61bb      	str	r3, [r7, #24]
        if ((GPIO_Init->Mode & EXTI_EVT) != 0x00U)
 8001c64:	683b      	ldr	r3, [r7, #0]
 8001c66:	685b      	ldr	r3, [r3, #4]
 8001c68:	f403 3300 	and.w	r3, r3, #131072	; 0x20000
 8001c6c:	2b00      	cmp	r3, #0
 8001c6e:	d003      	beq.n	8001c78 <HAL_GPIO_Init+0x308>
        {
          temp |= iocurrent;
 8001c70:	69ba      	ldr	r2, [r7, #24]
 8001c72:	693b      	ldr	r3, [r7, #16]
 8001c74:	4313      	orrs	r3, r2
 8001c76:	61bb      	str	r3, [r7, #24]
        }
        EXTI_CurrentCPU->EMR1 = temp;
 8001c78:	697b      	ldr	r3, [r7, #20]
 8001c7a:	69ba      	ldr	r2, [r7, #24]
 8001c7c:	605a      	str	r2, [r3, #4]

        /* Clear EXTI line configuration */
        temp = EXTI_CurrentCPU->IMR1;
 8001c7e:	697b      	ldr	r3, [r7, #20]
 8001c80:	681b      	ldr	r3, [r3, #0]
 8001c82:	61bb      	str	r3, [r7, #24]
        temp &= ~(iocurrent);
 8001c84:	693b      	ldr	r3, [r7, #16]
 8001c86:	43db      	mvns	r3, r3
 8001c88:	69ba      	ldr	r2, [r7, #24]
 8001c8a:	4013      	ands	r3, r2
 8001c8c:	61bb      	str	r3, [r7, #24]
        if ((GPIO_Init->Mode & EXTI_IT) != 0x00U)
 8001c8e:	683b      	ldr	r3, [r7, #0]
 8001c90:	685b      	ldr	r3, [r3, #4]
 8001c92:	f403 3380 	and.w	r3, r3, #65536	; 0x10000
 8001c96:	2b00      	cmp	r3, #0
 8001c98:	d003      	beq.n	8001ca2 <HAL_GPIO_Init+0x332>
        {
          temp |= iocurrent;
 8001c9a:	69ba      	ldr	r2, [r7, #24]
 8001c9c:	693b      	ldr	r3, [r7, #16]
 8001c9e:	4313      	orrs	r3, r2
 8001ca0:	61bb      	str	r3, [r7, #24]
        }
        EXTI_CurrentCPU->IMR1 = temp;
 8001ca2:	697b      	ldr	r3, [r7, #20]
 8001ca4:	69ba      	ldr	r2, [r7, #24]
 8001ca6:	601a      	str	r2, [r3, #0]
      }
    }

    position++;
 8001ca8:	69fb      	ldr	r3, [r7, #28]
 8001caa:	3301      	adds	r3, #1
 8001cac:	61fb      	str	r3, [r7, #28]
  while (((GPIO_Init->Pin) >> position) != 0x00U)
 8001cae:	683b      	ldr	r3, [r7, #0]
 8001cb0:	681a      	ldr	r2, [r3, #0]
 8001cb2:	69fb      	ldr	r3, [r7, #28]
 8001cb4:	fa22 f303 	lsr.w	r3, r2, r3
 8001cb8:	2b00      	cmp	r3, #0
 8001cba:	f47f ae63 	bne.w	8001984 <HAL_GPIO_Init+0x14>
  }
}
 8001cbe:	bf00      	nop
 8001cc0:	bf00      	nop
 8001cc2:	3724      	adds	r7, #36	; 0x24
 8001cc4:	46bd      	mov	sp, r7
 8001cc6:	f85d 7b04 	ldr.w	r7, [sp], #4
 8001cca:	4770      	bx	lr
 8001ccc:	58000400 	.word	0x58000400

08001cd0 <HAL_GPIO_ReadPin>:
  * @param  GPIO_Pin: specifies the port bit to read.
  *         This parameter can be GPIO_PIN_x where x can be (0..15).
  * @retval The input port pin value.
  */
GPIO_PinState HAL_GPIO_ReadPin(GPIO_TypeDef *GPIOx, uint16_t GPIO_Pin)
{
 8001cd0:	b480      	push	{r7}
 8001cd2:	b085      	sub	sp, #20
 8001cd4:	af00      	add	r7, sp, #0
 8001cd6:	6078      	str	r0, [r7, #4]
 8001cd8:	460b      	mov	r3, r1
 8001cda:	807b      	strh	r3, [r7, #2]
  GPIO_PinState bitstatus;

  /* Check the parameters */
  assert_param(IS_GPIO_PIN(GPIO_Pin));

  if ((GPIOx->IDR & GPIO_Pin) != 0x00U)
 8001cdc:	687b      	ldr	r3, [r7, #4]
 8001cde:	691a      	ldr	r2, [r3, #16]
 8001ce0:	887b      	ldrh	r3, [r7, #2]
 8001ce2:	4013      	ands	r3, r2
 8001ce4:	2b00      	cmp	r3, #0
 8001ce6:	d002      	beq.n	8001cee <HAL_GPIO_ReadPin+0x1e>
  {
    bitstatus = GPIO_PIN_SET;
 8001ce8:	2301      	movs	r3, #1
 8001cea:	73fb      	strb	r3, [r7, #15]
 8001cec:	e001      	b.n	8001cf2 <HAL_GPIO_ReadPin+0x22>
  }
  else
  {
    bitstatus = GPIO_PIN_RESET;
 8001cee:	2300      	movs	r3, #0
 8001cf0:	73fb      	strb	r3, [r7, #15]
  }
  return bitstatus;
 8001cf2:	7bfb      	ldrb	r3, [r7, #15]
}
 8001cf4:	4618      	mov	r0, r3
 8001cf6:	3714      	adds	r7, #20
 8001cf8:	46bd      	mov	sp, r7
 8001cfa:	f85d 7b04 	ldr.w	r7, [sp], #4
 8001cfe:	4770      	bx	lr

08001d00 <HAL_GPIO_WritePin>:
  *            @arg GPIO_PIN_RESET: to clear the port pin
  *            @arg GPIO_PIN_SET: to set the port pin
  * @retval None
  */
void HAL_GPIO_WritePin(GPIO_TypeDef *GPIOx, uint16_t GPIO_Pin, GPIO_PinState PinState)
{
 8001d00:	b480      	push	{r7}
 8001d02:	b083      	sub	sp, #12
 8001d04:	af00      	add	r7, sp, #0
 8001d06:	6078      	str	r0, [r7, #4]
 8001d08:	460b      	mov	r3, r1
 8001d0a:	807b      	strh	r3, [r7, #2]
 8001d0c:	4613      	mov	r3, r2
 8001d0e:	707b      	strb	r3, [r7, #1]
  /* Check the parameters */
  assert_param(IS_GPIO_PIN(GPIO_Pin));
  assert_param(IS_GPIO_PIN_ACTION(PinState));

  if (PinState != GPIO_PIN_RESET)
 8001d10:	787b      	ldrb	r3, [r7, #1]
 8001d12:	2b00      	cmp	r3, #0
 8001d14:	d003      	beq.n	8001d1e <HAL_GPIO_WritePin+0x1e>
  {
    GPIOx->BSRR = GPIO_Pin;
 8001d16:	887a      	ldrh	r2, [r7, #2]
 8001d18:	687b      	ldr	r3, [r7, #4]
 8001d1a:	619a      	str	r2, [r3, #24]
  }
  else
  {
    GPIOx->BSRR = (uint32_t)GPIO_Pin << GPIO_NUMBER;
  }
}
 8001d1c:	e003      	b.n	8001d26 <HAL_GPIO_WritePin+0x26>
    GPIOx->BSRR = (uint32_t)GPIO_Pin << GPIO_NUMBER;
 8001d1e:	887b      	ldrh	r3, [r7, #2]
 8001d20:	041a      	lsls	r2, r3, #16
 8001d22:	687b      	ldr	r3, [r7, #4]
 8001d24:	619a      	str	r2, [r3, #24]
}
 8001d26:	bf00      	nop
 8001d28:	370c      	adds	r7, #12
 8001d2a:	46bd      	mov	sp, r7
 8001d2c:	f85d 7b04 	ldr.w	r7, [sp], #4
 8001d30:	4770      	bx	lr

08001d32 <HAL_PCD_Init>:
  *         parameters in the PCD_InitTypeDef and initialize the associated handle.
  * @param  hpcd PCD handle
  * @retval HAL status
  */
HAL_StatusTypeDef HAL_PCD_Init(PCD_HandleTypeDef *hpcd)
{
 8001d32:	b5f0      	push	{r4, r5, r6, r7, lr}
 8001d34:	b08f      	sub	sp, #60	; 0x3c
 8001d36:	af0a      	add	r7, sp, #40	; 0x28
 8001d38:	6078      	str	r0, [r7, #4]
  USB_OTG_GlobalTypeDef *USBx;
  uint8_t i;

  /* Check the PCD handle allocation */
  if (hpcd == NULL)
 8001d3a:	687b      	ldr	r3, [r7, #4]
 8001d3c:	2b00      	cmp	r3, #0
 8001d3e:	d101      	bne.n	8001d44 <HAL_PCD_Init+0x12>
  {
    return HAL_ERROR;
 8001d40:	2301      	movs	r3, #1
 8001d42:	e116      	b.n	8001f72 <HAL_PCD_Init+0x240>
  }

  /* Check the parameters */
  assert_param(IS_PCD_ALL_INSTANCE(hpcd->Instance));

  USBx = hpcd->Instance;
 8001d44:	687b      	ldr	r3, [r7, #4]
 8001d46:	681b      	ldr	r3, [r3, #0]
 8001d48:	60bb      	str	r3, [r7, #8]

  if (hpcd->State == HAL_PCD_STATE_RESET)
 8001d4a:	687b      	ldr	r3, [r7, #4]
 8001d4c:	f893 34bd 	ldrb.w	r3, [r3, #1213]	; 0x4bd
 8001d50:	b2db      	uxtb	r3, r3
 8001d52:	2b00      	cmp	r3, #0
 8001d54:	d106      	bne.n	8001d64 <HAL_PCD_Init+0x32>
  {
    /* Allocate lock resource and initialize it */
    hpcd->Lock = HAL_UNLOCKED;
 8001d56:	687b      	ldr	r3, [r7, #4]
 8001d58:	2200      	movs	r2, #0
 8001d5a:	f883 24bc 	strb.w	r2, [r3, #1212]	; 0x4bc

    /* Init the low level hardware */
    hpcd->MspInitCallback(hpcd);
#else
    /* Init the low level hardware : GPIO, CLOCK, NVIC... */
    HAL_PCD_MspInit(hpcd);
 8001d5e:	6878      	ldr	r0, [r7, #4]
 8001d60:	f008 fe44 	bl	800a9ec <HAL_PCD_MspInit>
#endif /* (USE_HAL_PCD_REGISTER_CALLBACKS) */
  }

  hpcd->State = HAL_PCD_STATE_BUSY;
 8001d64:	687b      	ldr	r3, [r7, #4]
 8001d66:	2203      	movs	r2, #3
 8001d68:	f883 24bd 	strb.w	r2, [r3, #1213]	; 0x4bd

  /* Disable DMA mode for FS instance */
  if ((USBx->CID & (0x1U << 8)) == 0U)
 8001d6c:	68bb      	ldr	r3, [r7, #8]
 8001d6e:	6bdb      	ldr	r3, [r3, #60]	; 0x3c
 8001d70:	f403 7380 	and.w	r3, r3, #256	; 0x100
 8001d74:	2b00      	cmp	r3, #0
 8001d76:	d102      	bne.n	8001d7e <HAL_PCD_Init+0x4c>
  {
    hpcd->Init.dma_enable = 0U;
 8001d78:	687b      	ldr	r3, [r7, #4]
 8001d7a:	2200      	movs	r2, #0
 8001d7c:	60da      	str	r2, [r3, #12]
  }

  /* Disable the Interrupts */
  __HAL_PCD_DISABLE(hpcd);
 8001d7e:	687b      	ldr	r3, [r7, #4]
 8001d80:	681b      	ldr	r3, [r3, #0]
 8001d82:	4618      	mov	r0, r3
 8001d84:	f005 fae1 	bl	800734a <USB_DisableGlobalInt>

  /*Init the Core (common init.) */
  if (USB_CoreInit(hpcd->Instance, hpcd->Init) != HAL_OK)
 8001d88:	687b      	ldr	r3, [r7, #4]
 8001d8a:	681b      	ldr	r3, [r3, #0]
 8001d8c:	603b      	str	r3, [r7, #0]
 8001d8e:	687e      	ldr	r6, [r7, #4]
 8001d90:	466d      	mov	r5, sp
 8001d92:	f106 0410 	add.w	r4, r6, #16
 8001d96:	cc0f      	ldmia	r4!, {r0, r1, r2, r3}
 8001d98:	c50f      	stmia	r5!, {r0, r1, r2, r3}
 8001d9a:	cc0f      	ldmia	r4!, {r0, r1, r2, r3}
 8001d9c:	c50f      	stmia	r5!, {r0, r1, r2, r3}
 8001d9e:	e894 0003 	ldmia.w	r4, {r0, r1}
 8001da2:	e885 0003 	stmia.w	r5, {r0, r1}
 8001da6:	1d33      	adds	r3, r6, #4
 8001da8:	cb0e      	ldmia	r3, {r1, r2, r3}
 8001daa:	6838      	ldr	r0, [r7, #0]
 8001dac:	f005 f9ac 	bl	8007108 <USB_CoreInit>
 8001db0:	4603      	mov	r3, r0
 8001db2:	2b00      	cmp	r3, #0
 8001db4:	d005      	beq.n	8001dc2 <HAL_PCD_Init+0x90>
  {
    hpcd->State = HAL_PCD_STATE_ERROR;
 8001db6:	687b      	ldr	r3, [r7, #4]
 8001db8:	2202      	movs	r2, #2
 8001dba:	f883 24bd 	strb.w	r2, [r3, #1213]	; 0x4bd
    return HAL_ERROR;
 8001dbe:	2301      	movs	r3, #1
 8001dc0:	e0d7      	b.n	8001f72 <HAL_PCD_Init+0x240>
  }

  /* Force Device Mode*/
  (void)USB_SetCurrentMode(hpcd->Instance, USB_DEVICE_MODE);
 8001dc2:	687b      	ldr	r3, [r7, #4]
 8001dc4:	681b      	ldr	r3, [r3, #0]
 8001dc6:	2100      	movs	r1, #0
 8001dc8:	4618      	mov	r0, r3
 8001dca:	f005 facf 	bl	800736c <USB_SetCurrentMode>

  /* Init endpoints structures */
  for (i = 0U; i < hpcd->Init.dev_endpoints; i++)
 8001dce:	2300      	movs	r3, #0
 8001dd0:	73fb      	strb	r3, [r7, #15]
 8001dd2:	e04a      	b.n	8001e6a <HAL_PCD_Init+0x138>
  {
    /* Init ep structure */
    hpcd->IN_ep[i].is_in = 1U;
 8001dd4:	7bfa      	ldrb	r2, [r7, #15]
 8001dd6:	6879      	ldr	r1, [r7, #4]
 8001dd8:	4613      	mov	r3, r2
 8001dda:	00db      	lsls	r3, r3, #3
 8001ddc:	4413      	add	r3, r2
 8001dde:	009b      	lsls	r3, r3, #2
 8001de0:	440b      	add	r3, r1
 8001de2:	333d      	adds	r3, #61	; 0x3d
 8001de4:	2201      	movs	r2, #1
 8001de6:	701a      	strb	r2, [r3, #0]
    hpcd->IN_ep[i].num = i;
 8001de8:	7bfa      	ldrb	r2, [r7, #15]
 8001dea:	6879      	ldr	r1, [r7, #4]
 8001dec:	4613      	mov	r3, r2
 8001dee:	00db      	lsls	r3, r3, #3
 8001df0:	4413      	add	r3, r2
 8001df2:	009b      	lsls	r3, r3, #2
 8001df4:	440b      	add	r3, r1
 8001df6:	333c      	adds	r3, #60	; 0x3c
 8001df8:	7bfa      	ldrb	r2, [r7, #15]
 8001dfa:	701a      	strb	r2, [r3, #0]
    hpcd->IN_ep[i].tx_fifo_num = i;
 8001dfc:	7bfa      	ldrb	r2, [r7, #15]
 8001dfe:	7bfb      	ldrb	r3, [r7, #15]
 8001e00:	b298      	uxth	r0, r3
 8001e02:	6879      	ldr	r1, [r7, #4]
 8001e04:	4613      	mov	r3, r2
 8001e06:	00db      	lsls	r3, r3, #3
 8001e08:	4413      	add	r3, r2
 8001e0a:	009b      	lsls	r3, r3, #2
 8001e0c:	440b      	add	r3, r1
 8001e0e:	3356      	adds	r3, #86	; 0x56
 8001e10:	4602      	mov	r2, r0
 8001e12:	801a      	strh	r2, [r3, #0]
    /* Control until ep is activated */
    hpcd->IN_ep[i].type = EP_TYPE_CTRL;
 8001e14:	7bfa      	ldrb	r2, [r7, #15]
 8001e16:	6879      	ldr	r1, [r7, #4]
 8001e18:	4613      	mov	r3, r2
 8001e1a:	00db      	lsls	r3, r3, #3
 8001e1c:	4413      	add	r3, r2
 8001e1e:	009b      	lsls	r3, r3, #2
 8001e20:	440b      	add	r3, r1
 8001e22:	3340      	adds	r3, #64	; 0x40
 8001e24:	2200      	movs	r2, #0
 8001e26:	701a      	strb	r2, [r3, #0]
    hpcd->IN_ep[i].maxpacket = 0U;
 8001e28:	7bfa      	ldrb	r2, [r7, #15]
 8001e2a:	6879      	ldr	r1, [r7, #4]
 8001e2c:	4613      	mov	r3, r2
 8001e2e:	00db      	lsls	r3, r3, #3
 8001e30:	4413      	add	r3, r2
 8001e32:	009b      	lsls	r3, r3, #2
 8001e34:	440b      	add	r3, r1
 8001e36:	3344      	adds	r3, #68	; 0x44
 8001e38:	2200      	movs	r2, #0
 8001e3a:	601a      	str	r2, [r3, #0]
    hpcd->IN_ep[i].xfer_buff = 0U;
 8001e3c:	7bfa      	ldrb	r2, [r7, #15]
 8001e3e:	6879      	ldr	r1, [r7, #4]
 8001e40:	4613      	mov	r3, r2
 8001e42:	00db      	lsls	r3, r3, #3
 8001e44:	4413      	add	r3, r2
 8001e46:	009b      	lsls	r3, r3, #2
 8001e48:	440b      	add	r3, r1
 8001e4a:	3348      	adds	r3, #72	; 0x48
 8001e4c:	2200      	movs	r2, #0
 8001e4e:	601a      	str	r2, [r3, #0]
    hpcd->IN_ep[i].xfer_len = 0U;
 8001e50:	7bfa      	ldrb	r2, [r7, #15]
 8001e52:	6879      	ldr	r1, [r7, #4]
 8001e54:	4613      	mov	r3, r2
 8001e56:	00db      	lsls	r3, r3, #3
 8001e58:	4413      	add	r3, r2
 8001e5a:	009b      	lsls	r3, r3, #2
 8001e5c:	440b      	add	r3, r1
 8001e5e:	334c      	adds	r3, #76	; 0x4c
 8001e60:	2200      	movs	r2, #0
 8001e62:	601a      	str	r2, [r3, #0]
  for (i = 0U; i < hpcd->Init.dev_endpoints; i++)
 8001e64:	7bfb      	ldrb	r3, [r7, #15]
 8001e66:	3301      	adds	r3, #1
 8001e68:	73fb      	strb	r3, [r7, #15]
 8001e6a:	7bfa      	ldrb	r2, [r7, #15]
 8001e6c:	687b      	ldr	r3, [r7, #4]
 8001e6e:	685b      	ldr	r3, [r3, #4]
 8001e70:	429a      	cmp	r2, r3
 8001e72:	d3af      	bcc.n	8001dd4 <HAL_PCD_Init+0xa2>
  }

  for (i = 0U; i < hpcd->Init.dev_endpoints; i++)
 8001e74:	2300      	movs	r3, #0
 8001e76:	73fb      	strb	r3, [r7, #15]
 8001e78:	e044      	b.n	8001f04 <HAL_PCD_Init+0x1d2>
  {
    hpcd->OUT_ep[i].is_in = 0U;
 8001e7a:	7bfa      	ldrb	r2, [r7, #15]
 8001e7c:	6879      	ldr	r1, [r7, #4]
 8001e7e:	4613      	mov	r3, r2
 8001e80:	00db      	lsls	r3, r3, #3
 8001e82:	4413      	add	r3, r2
 8001e84:	009b      	lsls	r3, r3, #2
 8001e86:	440b      	add	r3, r1
 8001e88:	f203 237d 	addw	r3, r3, #637	; 0x27d
 8001e8c:	2200      	movs	r2, #0
 8001e8e:	701a      	strb	r2, [r3, #0]
    hpcd->OUT_ep[i].num = i;
 8001e90:	7bfa      	ldrb	r2, [r7, #15]
 8001e92:	6879      	ldr	r1, [r7, #4]
 8001e94:	4613      	mov	r3, r2
 8001e96:	00db      	lsls	r3, r3, #3
 8001e98:	4413      	add	r3, r2
 8001e9a:	009b      	lsls	r3, r3, #2
 8001e9c:	440b      	add	r3, r1
 8001e9e:	f503 731f 	add.w	r3, r3, #636	; 0x27c
 8001ea2:	7bfa      	ldrb	r2, [r7, #15]
 8001ea4:	701a      	strb	r2, [r3, #0]
    /* Control until ep is activated */
    hpcd->OUT_ep[i].type = EP_TYPE_CTRL;
 8001ea6:	7bfa      	ldrb	r2, [r7, #15]
 8001ea8:	6879      	ldr	r1, [r7, #4]
 8001eaa:	4613      	mov	r3, r2
 8001eac:	00db      	lsls	r3, r3, #3
 8001eae:	4413      	add	r3, r2
 8001eb0:	009b      	lsls	r3, r3, #2
 8001eb2:	440b      	add	r3, r1
 8001eb4:	f503 7320 	add.w	r3, r3, #640	; 0x280
 8001eb8:	2200      	movs	r2, #0
 8001eba:	701a      	strb	r2, [r3, #0]
    hpcd->OUT_ep[i].maxpacket = 0U;
 8001ebc:	7bfa      	ldrb	r2, [r7, #15]
 8001ebe:	6879      	ldr	r1, [r7, #4]
 8001ec0:	4613      	mov	r3, r2
 8001ec2:	00db      	lsls	r3, r3, #3
 8001ec4:	4413      	add	r3, r2
 8001ec6:	009b      	lsls	r3, r3, #2
 8001ec8:	440b      	add	r3, r1
 8001eca:	f503 7321 	add.w	r3, r3, #644	; 0x284
 8001ece:	2200      	movs	r2, #0
 8001ed0:	601a      	str	r2, [r3, #0]
    hpcd->OUT_ep[i].xfer_buff = 0U;
 8001ed2:	7bfa      	ldrb	r2, [r7, #15]
 8001ed4:	6879      	ldr	r1, [r7, #4]
 8001ed6:	4613      	mov	r3, r2
 8001ed8:	00db      	lsls	r3, r3, #3
 8001eda:	4413      	add	r3, r2
 8001edc:	009b      	lsls	r3, r3, #2
 8001ede:	440b      	add	r3, r1
 8001ee0:	f503 7322 	add.w	r3, r3, #648	; 0x288
 8001ee4:	2200      	movs	r2, #0
 8001ee6:	601a      	str	r2, [r3, #0]
    hpcd->OUT_ep[i].xfer_len = 0U;
 8001ee8:	7bfa      	ldrb	r2, [r7, #15]
 8001eea:	6879      	ldr	r1, [r7, #4]
 8001eec:	4613      	mov	r3, r2
 8001eee:	00db      	lsls	r3, r3, #3
 8001ef0:	4413      	add	r3, r2
 8001ef2:	009b      	lsls	r3, r3, #2
 8001ef4:	440b      	add	r3, r1
 8001ef6:	f503 7323 	add.w	r3, r3, #652	; 0x28c
 8001efa:	2200      	movs	r2, #0
 8001efc:	601a      	str	r2, [r3, #0]
  for (i = 0U; i < hpcd->Init.dev_endpoints; i++)
 8001efe:	7bfb      	ldrb	r3, [r7, #15]
 8001f00:	3301      	adds	r3, #1
 8001f02:	73fb      	strb	r3, [r7, #15]
 8001f04:	7bfa      	ldrb	r2, [r7, #15]
 8001f06:	687b      	ldr	r3, [r7, #4]
 8001f08:	685b      	ldr	r3, [r3, #4]
 8001f0a:	429a      	cmp	r2, r3
 8001f0c:	d3b5      	bcc.n	8001e7a <HAL_PCD_Init+0x148>
  }

  /* Init Device */
  if (USB_DevInit(hpcd->Instance, hpcd->Init) != HAL_OK)
 8001f0e:	687b      	ldr	r3, [r7, #4]
 8001f10:	681b      	ldr	r3, [r3, #0]
 8001f12:	603b      	str	r3, [r7, #0]
 8001f14:	687e      	ldr	r6, [r7, #4]
 8001f16:	466d      	mov	r5, sp
 8001f18:	f106 0410 	add.w	r4, r6, #16
 8001f1c:	cc0f      	ldmia	r4!, {r0, r1, r2, r3}
 8001f1e:	c50f      	stmia	r5!, {r0, r1, r2, r3}
 8001f20:	cc0f      	ldmia	r4!, {r0, r1, r2, r3}
 8001f22:	c50f      	stmia	r5!, {r0, r1, r2, r3}
 8001f24:	e894 0003 	ldmia.w	r4, {r0, r1}
 8001f28:	e885 0003 	stmia.w	r5, {r0, r1}
 8001f2c:	1d33      	adds	r3, r6, #4
 8001f2e:	cb0e      	ldmia	r3, {r1, r2, r3}
 8001f30:	6838      	ldr	r0, [r7, #0]
 8001f32:	f005 fa67 	bl	8007404 <USB_DevInit>
 8001f36:	4603      	mov	r3, r0
 8001f38:	2b00      	cmp	r3, #0
 8001f3a:	d005      	beq.n	8001f48 <HAL_PCD_Init+0x216>
  {
    hpcd->State = HAL_PCD_STATE_ERROR;
 8001f3c:	687b      	ldr	r3, [r7, #4]
 8001f3e:	2202      	movs	r2, #2
 8001f40:	f883 24bd 	strb.w	r2, [r3, #1213]	; 0x4bd
    return HAL_ERROR;
 8001f44:	2301      	movs	r3, #1
 8001f46:	e014      	b.n	8001f72 <HAL_PCD_Init+0x240>
  }

  hpcd->USB_Address = 0U;
 8001f48:	687b      	ldr	r3, [r7, #4]
 8001f4a:	2200      	movs	r2, #0
 8001f4c:	f883 2038 	strb.w	r2, [r3, #56]	; 0x38
  hpcd->State = HAL_PCD_STATE_READY;
 8001f50:	687b      	ldr	r3, [r7, #4]
 8001f52:	2201      	movs	r2, #1
 8001f54:	f883 24bd 	strb.w	r2, [r3, #1213]	; 0x4bd

  /* Activate LPM */
  if (hpcd->Init.lpm_enable == 1U)
 8001f58:	687b      	ldr	r3, [r7, #4]
 8001f5a:	6a5b      	ldr	r3, [r3, #36]	; 0x24
 8001f5c:	2b01      	cmp	r3, #1
 8001f5e:	d102      	bne.n	8001f66 <HAL_PCD_Init+0x234>
  {
    (void)HAL_PCDEx_ActivateLPM(hpcd);
 8001f60:	6878      	ldr	r0, [r7, #4]
 8001f62:	f001 f96f 	bl	8003244 <HAL_PCDEx_ActivateLPM>
  }

  (void)USB_DevDisconnect(hpcd->Instance);
 8001f66:	687b      	ldr	r3, [r7, #4]
 8001f68:	681b      	ldr	r3, [r3, #0]
 8001f6a:	4618      	mov	r0, r3
 8001f6c:	f006 faa9 	bl	80084c2 <USB_DevDisconnect>

  return HAL_OK;
 8001f70:	2300      	movs	r3, #0
}
 8001f72:	4618      	mov	r0, r3
 8001f74:	3714      	adds	r7, #20
 8001f76:	46bd      	mov	sp, r7
 8001f78:	bdf0      	pop	{r4, r5, r6, r7, pc}

08001f7a <HAL_PCD_Start>:
  * @brief  Start the USB device
  * @param  hpcd PCD handle
  * @retval HAL status
  */
HAL_StatusTypeDef HAL_PCD_Start(PCD_HandleTypeDef *hpcd)
{
 8001f7a:	b580      	push	{r7, lr}
 8001f7c:	b084      	sub	sp, #16
 8001f7e:	af00      	add	r7, sp, #0
 8001f80:	6078      	str	r0, [r7, #4]
  USB_OTG_GlobalTypeDef *USBx = hpcd->Instance;
 8001f82:	687b      	ldr	r3, [r7, #4]
 8001f84:	681b      	ldr	r3, [r3, #0]
 8001f86:	60fb      	str	r3, [r7, #12]

  __HAL_LOCK(hpcd);
 8001f88:	687b      	ldr	r3, [r7, #4]
 8001f8a:	f893 34bc 	ldrb.w	r3, [r3, #1212]	; 0x4bc
 8001f8e:	2b01      	cmp	r3, #1
 8001f90:	d101      	bne.n	8001f96 <HAL_PCD_Start+0x1c>
 8001f92:	2302      	movs	r3, #2
 8001f94:	e022      	b.n	8001fdc <HAL_PCD_Start+0x62>
 8001f96:	687b      	ldr	r3, [r7, #4]
 8001f98:	2201      	movs	r2, #1
 8001f9a:	f883 24bc 	strb.w	r2, [r3, #1212]	; 0x4bc

  if (((USBx->CID & (0x1U << 8)) == 0U) &&
 8001f9e:	68fb      	ldr	r3, [r7, #12]
 8001fa0:	6bdb      	ldr	r3, [r3, #60]	; 0x3c
 8001fa2:	f403 7380 	and.w	r3, r3, #256	; 0x100
 8001fa6:	2b00      	cmp	r3, #0
 8001fa8:	d109      	bne.n	8001fbe <HAL_PCD_Start+0x44>
      (hpcd->Init.battery_charging_enable == 1U))
 8001faa:	687b      	ldr	r3, [r7, #4]
 8001fac:	6a9b      	ldr	r3, [r3, #40]	; 0x28
  if (((USBx->CID & (0x1U << 8)) == 0U) &&
 8001fae:	2b01      	cmp	r3, #1
 8001fb0:	d105      	bne.n	8001fbe <HAL_PCD_Start+0x44>
  {
    /* Enable USB Transceiver */
    USBx->GCCFG |= USB_OTG_GCCFG_PWRDWN;
 8001fb2:	68fb      	ldr	r3, [r7, #12]
 8001fb4:	6b9b      	ldr	r3, [r3, #56]	; 0x38
 8001fb6:	f443 3280 	orr.w	r2, r3, #65536	; 0x10000
 8001fba:	68fb      	ldr	r3, [r7, #12]
 8001fbc:	639a      	str	r2, [r3, #56]	; 0x38
  }

  __HAL_PCD_ENABLE(hpcd);
 8001fbe:	687b      	ldr	r3, [r7, #4]
 8001fc0:	681b      	ldr	r3, [r3, #0]
 8001fc2:	4618      	mov	r0, r3
 8001fc4:	f005 f9b0 	bl	8007328 <USB_EnableGlobalInt>
  (void)USB_DevConnect(hpcd->Instance);
 8001fc8:	687b      	ldr	r3, [r7, #4]
 8001fca:	681b      	ldr	r3, [r3, #0]
 8001fcc:	4618      	mov	r0, r3
 8001fce:	f006 fa57 	bl	8008480 <USB_DevConnect>
  __HAL_UNLOCK(hpcd);
 8001fd2:	687b      	ldr	r3, [r7, #4]
 8001fd4:	2200      	movs	r2, #0
 8001fd6:	f883 24bc 	strb.w	r2, [r3, #1212]	; 0x4bc

  return HAL_OK;
 8001fda:	2300      	movs	r3, #0
}
 8001fdc:	4618      	mov	r0, r3
 8001fde:	3710      	adds	r7, #16
 8001fe0:	46bd      	mov	sp, r7
 8001fe2:	bd80      	pop	{r7, pc}

08001fe4 <HAL_PCD_IRQHandler>:
  * @brief  Handles PCD interrupt request.
  * @param  hpcd PCD handle
  * @retval HAL status
  */
void HAL_PCD_IRQHandler(PCD_HandleTypeDef *hpcd)
{
 8001fe4:	b590      	push	{r4, r7, lr}
 8001fe6:	b08d      	sub	sp, #52	; 0x34
 8001fe8:	af00      	add	r7, sp, #0
 8001fea:	6078      	str	r0, [r7, #4]
  USB_OTG_GlobalTypeDef *USBx = hpcd->Instance;
 8001fec:	687b      	ldr	r3, [r7, #4]
 8001fee:	681b      	ldr	r3, [r3, #0]
 8001ff0:	623b      	str	r3, [r7, #32]
  uint32_t USBx_BASE = (uint32_t)USBx;
 8001ff2:	6a3b      	ldr	r3, [r7, #32]
 8001ff4:	61fb      	str	r3, [r7, #28]
  uint32_t epnum;
  uint32_t fifoemptymsk;
  uint32_t RegVal;

  /* ensure that we are in device mode */
  if (USB_GetMode(hpcd->Instance) == USB_OTG_MODE_DEVICE)
 8001ff6:	687b      	ldr	r3, [r7, #4]
 8001ff8:	681b      	ldr	r3, [r3, #0]
 8001ffa:	4618      	mov	r0, r3
 8001ffc:	f006 fb15 	bl	800862a <USB_GetMode>
 8002000:	4603      	mov	r3, r0
 8002002:	2b00      	cmp	r3, #0
 8002004:	f040 84b7 	bne.w	8002976 <HAL_PCD_IRQHandler+0x992>
  {
    /* avoid spurious interrupt */
    if (__HAL_PCD_IS_INVALID_INTERRUPT(hpcd))
 8002008:	687b      	ldr	r3, [r7, #4]
 800200a:	681b      	ldr	r3, [r3, #0]
 800200c:	4618      	mov	r0, r3
 800200e:	f006 fa79 	bl	8008504 <USB_ReadInterrupts>
 8002012:	4603      	mov	r3, r0
 8002014:	2b00      	cmp	r3, #0
 8002016:	f000 84ad 	beq.w	8002974 <HAL_PCD_IRQHandler+0x990>
    {
      return;
    }

    /* store current frame number */
    hpcd->FrameNumber = (USBx_DEVICE->DSTS & USB_OTG_DSTS_FNSOF_Msk) >> USB_OTG_DSTS_FNSOF_Pos;
 800201a:	69fb      	ldr	r3, [r7, #28]
 800201c:	f503 6300 	add.w	r3, r3, #2048	; 0x800
 8002020:	689b      	ldr	r3, [r3, #8]
 8002022:	0a1b      	lsrs	r3, r3, #8
 8002024:	f3c3 020d 	ubfx	r2, r3, #0, #14
 8002028:	687b      	ldr	r3, [r7, #4]
 800202a:	f8c3 24fc 	str.w	r2, [r3, #1276]	; 0x4fc

    if (__HAL_PCD_GET_FLAG(hpcd, USB_OTG_GINTSTS_MMIS))
 800202e:	687b      	ldr	r3, [r7, #4]
 8002030:	681b      	ldr	r3, [r3, #0]
 8002032:	4618      	mov	r0, r3
 8002034:	f006 fa66 	bl	8008504 <USB_ReadInterrupts>
 8002038:	4603      	mov	r3, r0
 800203a:	f003 0302 	and.w	r3, r3, #2
 800203e:	2b02      	cmp	r3, #2
 8002040:	d107      	bne.n	8002052 <HAL_PCD_IRQHandler+0x6e>
    {
      /* incorrect mode, acknowledge the interrupt */
      __HAL_PCD_CLEAR_FLAG(hpcd, USB_OTG_GINTSTS_MMIS);
 8002042:	687b      	ldr	r3, [r7, #4]
 8002044:	681b      	ldr	r3, [r3, #0]
 8002046:	695a      	ldr	r2, [r3, #20]
 8002048:	687b      	ldr	r3, [r7, #4]
 800204a:	681b      	ldr	r3, [r3, #0]
 800204c:	f002 0202 	and.w	r2, r2, #2
 8002050:	615a      	str	r2, [r3, #20]
    }

    /* Handle RxQLevel Interrupt */
    if (__HAL_PCD_GET_FLAG(hpcd, USB_OTG_GINTSTS_RXFLVL))
 8002052:	687b      	ldr	r3, [r7, #4]
 8002054:	681b      	ldr	r3, [r3, #0]
 8002056:	4618      	mov	r0, r3
 8002058:	f006 fa54 	bl	8008504 <USB_ReadInterrupts>
 800205c:	4603      	mov	r3, r0
 800205e:	f003 0310 	and.w	r3, r3, #16
 8002062:	2b10      	cmp	r3, #16
 8002064:	d161      	bne.n	800212a <HAL_PCD_IRQHandler+0x146>
    {
      USB_MASK_INTERRUPT(hpcd->Instance, USB_OTG_GINTSTS_RXFLVL);
 8002066:	687b      	ldr	r3, [r7, #4]
 8002068:	681b      	ldr	r3, [r3, #0]
 800206a:	699a      	ldr	r2, [r3, #24]
 800206c:	687b      	ldr	r3, [r7, #4]
 800206e:	681b      	ldr	r3, [r3, #0]
 8002070:	f022 0210 	bic.w	r2, r2, #16
 8002074:	619a      	str	r2, [r3, #24]

      RegVal = USBx->GRXSTSP;
 8002076:	6a3b      	ldr	r3, [r7, #32]
 8002078:	6a1b      	ldr	r3, [r3, #32]
 800207a:	61bb      	str	r3, [r7, #24]

      ep = &hpcd->OUT_ep[RegVal & USB_OTG_GRXSTSP_EPNUM];
 800207c:	69bb      	ldr	r3, [r7, #24]
 800207e:	f003 020f 	and.w	r2, r3, #15
 8002082:	4613      	mov	r3, r2
 8002084:	00db      	lsls	r3, r3, #3
 8002086:	4413      	add	r3, r2
 8002088:	009b      	lsls	r3, r3, #2
 800208a:	f503 731e 	add.w	r3, r3, #632	; 0x278
 800208e:	687a      	ldr	r2, [r7, #4]
 8002090:	4413      	add	r3, r2
 8002092:	3304      	adds	r3, #4
 8002094:	617b      	str	r3, [r7, #20]

      if (((RegVal & USB_OTG_GRXSTSP_PKTSTS) >> 17) ==  STS_DATA_UPDT)
 8002096:	69bb      	ldr	r3, [r7, #24]
 8002098:	0c5b      	lsrs	r3, r3, #17
 800209a:	f003 030f 	and.w	r3, r3, #15
 800209e:	2b02      	cmp	r3, #2
 80020a0:	d124      	bne.n	80020ec <HAL_PCD_IRQHandler+0x108>
      {
        if ((RegVal & USB_OTG_GRXSTSP_BCNT) != 0U)
 80020a2:	69ba      	ldr	r2, [r7, #24]
 80020a4:	f647 73f0 	movw	r3, #32752	; 0x7ff0
 80020a8:	4013      	ands	r3, r2
 80020aa:	2b00      	cmp	r3, #0
 80020ac:	d035      	beq.n	800211a <HAL_PCD_IRQHandler+0x136>
        {
          (void)USB_ReadPacket(USBx, ep->xfer_buff,
 80020ae:	697b      	ldr	r3, [r7, #20]
 80020b0:	68d9      	ldr	r1, [r3, #12]
                               (uint16_t)((RegVal & USB_OTG_GRXSTSP_BCNT) >> 4));
 80020b2:	69bb      	ldr	r3, [r7, #24]
 80020b4:	091b      	lsrs	r3, r3, #4
 80020b6:	b29b      	uxth	r3, r3
          (void)USB_ReadPacket(USBx, ep->xfer_buff,
 80020b8:	f3c3 030a 	ubfx	r3, r3, #0, #11
 80020bc:	b29b      	uxth	r3, r3
 80020be:	461a      	mov	r2, r3
 80020c0:	6a38      	ldr	r0, [r7, #32]
 80020c2:	f006 f88b 	bl	80081dc <USB_ReadPacket>

          ep->xfer_buff += (RegVal & USB_OTG_GRXSTSP_BCNT) >> 4;
 80020c6:	697b      	ldr	r3, [r7, #20]
 80020c8:	68da      	ldr	r2, [r3, #12]
 80020ca:	69bb      	ldr	r3, [r7, #24]
 80020cc:	091b      	lsrs	r3, r3, #4
 80020ce:	f3c3 030a 	ubfx	r3, r3, #0, #11
 80020d2:	441a      	add	r2, r3
 80020d4:	697b      	ldr	r3, [r7, #20]
 80020d6:	60da      	str	r2, [r3, #12]
          ep->xfer_count += (RegVal & USB_OTG_GRXSTSP_BCNT) >> 4;
 80020d8:	697b      	ldr	r3, [r7, #20]
 80020da:	695a      	ldr	r2, [r3, #20]
 80020dc:	69bb      	ldr	r3, [r7, #24]
 80020de:	091b      	lsrs	r3, r3, #4
 80020e0:	f3c3 030a 	ubfx	r3, r3, #0, #11
 80020e4:	441a      	add	r2, r3
 80020e6:	697b      	ldr	r3, [r7, #20]
 80020e8:	615a      	str	r2, [r3, #20]
 80020ea:	e016      	b.n	800211a <HAL_PCD_IRQHandler+0x136>
        }
      }
      else if (((RegVal & USB_OTG_GRXSTSP_PKTSTS) >> 17) == STS_SETUP_UPDT)
 80020ec:	69bb      	ldr	r3, [r7, #24]
 80020ee:	0c5b      	lsrs	r3, r3, #17
 80020f0:	f003 030f 	and.w	r3, r3, #15
 80020f4:	2b06      	cmp	r3, #6
 80020f6:	d110      	bne.n	800211a <HAL_PCD_IRQHandler+0x136>
      {
        (void)USB_ReadPacket(USBx, (uint8_t *)hpcd->Setup, 8U);
 80020f8:	687b      	ldr	r3, [r7, #4]
 80020fa:	f203 43c4 	addw	r3, r3, #1220	; 0x4c4
 80020fe:	2208      	movs	r2, #8
 8002100:	4619      	mov	r1, r3
 8002102:	6a38      	ldr	r0, [r7, #32]
 8002104:	f006 f86a 	bl	80081dc <USB_ReadPacket>
        ep->xfer_count += (RegVal & USB_OTG_GRXSTSP_BCNT) >> 4;
 8002108:	697b      	ldr	r3, [r7, #20]
 800210a:	695a      	ldr	r2, [r3, #20]
 800210c:	69bb      	ldr	r3, [r7, #24]
 800210e:	091b      	lsrs	r3, r3, #4
 8002110:	f3c3 030a 	ubfx	r3, r3, #0, #11
 8002114:	441a      	add	r2, r3
 8002116:	697b      	ldr	r3, [r7, #20]
 8002118:	615a      	str	r2, [r3, #20]
      else
      {
        /* ... */
      }

      USB_UNMASK_INTERRUPT(hpcd->Instance, USB_OTG_GINTSTS_RXFLVL);
 800211a:	687b      	ldr	r3, [r7, #4]
 800211c:	681b      	ldr	r3, [r3, #0]
 800211e:	699a      	ldr	r2, [r3, #24]
 8002120:	687b      	ldr	r3, [r7, #4]
 8002122:	681b      	ldr	r3, [r3, #0]
 8002124:	f042 0210 	orr.w	r2, r2, #16
 8002128:	619a      	str	r2, [r3, #24]
    }

    if (__HAL_PCD_GET_FLAG(hpcd, USB_OTG_GINTSTS_OEPINT))
 800212a:	687b      	ldr	r3, [r7, #4]
 800212c:	681b      	ldr	r3, [r3, #0]
 800212e:	4618      	mov	r0, r3
 8002130:	f006 f9e8 	bl	8008504 <USB_ReadInterrupts>
 8002134:	4603      	mov	r3, r0
 8002136:	f403 2300 	and.w	r3, r3, #524288	; 0x80000
 800213a:	f5b3 2f00 	cmp.w	r3, #524288	; 0x80000
 800213e:	f040 80a7 	bne.w	8002290 <HAL_PCD_IRQHandler+0x2ac>
    {
      epnum = 0U;
 8002142:	2300      	movs	r3, #0
 8002144:	627b      	str	r3, [r7, #36]	; 0x24

      /* Read in the device interrupt bits */
      ep_intr = USB_ReadDevAllOutEpInterrupt(hpcd->Instance);
 8002146:	687b      	ldr	r3, [r7, #4]
 8002148:	681b      	ldr	r3, [r3, #0]
 800214a:	4618      	mov	r0, r3
 800214c:	f006 f9ed 	bl	800852a <USB_ReadDevAllOutEpInterrupt>
 8002150:	62b8      	str	r0, [r7, #40]	; 0x28

      while (ep_intr != 0U)
 8002152:	e099      	b.n	8002288 <HAL_PCD_IRQHandler+0x2a4>
      {
        if ((ep_intr & 0x1U) != 0U)
 8002154:	6abb      	ldr	r3, [r7, #40]	; 0x28
 8002156:	f003 0301 	and.w	r3, r3, #1
 800215a:	2b00      	cmp	r3, #0
 800215c:	f000 808e 	beq.w	800227c <HAL_PCD_IRQHandler+0x298>
        {
          epint = USB_ReadDevOutEPInterrupt(hpcd->Instance, (uint8_t)epnum);
 8002160:	687b      	ldr	r3, [r7, #4]
 8002162:	681b      	ldr	r3, [r3, #0]
 8002164:	6a7a      	ldr	r2, [r7, #36]	; 0x24
 8002166:	b2d2      	uxtb	r2, r2
 8002168:	4611      	mov	r1, r2
 800216a:	4618      	mov	r0, r3
 800216c:	f006 fa11 	bl	8008592 <USB_ReadDevOutEPInterrupt>
 8002170:	6138      	str	r0, [r7, #16]

          if ((epint & USB_OTG_DOEPINT_XFRC) == USB_OTG_DOEPINT_XFRC)
 8002172:	693b      	ldr	r3, [r7, #16]
 8002174:	f003 0301 	and.w	r3, r3, #1
 8002178:	2b00      	cmp	r3, #0
 800217a:	d00c      	beq.n	8002196 <HAL_PCD_IRQHandler+0x1b2>
          {
            CLEAR_OUT_EP_INTR(epnum, USB_OTG_DOEPINT_XFRC);
 800217c:	6a7b      	ldr	r3, [r7, #36]	; 0x24
 800217e:	015a      	lsls	r2, r3, #5
 8002180:	69fb      	ldr	r3, [r7, #28]
 8002182:	4413      	add	r3, r2
 8002184:	f503 6330 	add.w	r3, r3, #2816	; 0xb00
 8002188:	461a      	mov	r2, r3
 800218a:	2301      	movs	r3, #1
 800218c:	6093      	str	r3, [r2, #8]
            (void)PCD_EP_OutXfrComplete_int(hpcd, epnum);
 800218e:	6a79      	ldr	r1, [r7, #36]	; 0x24
 8002190:	6878      	ldr	r0, [r7, #4]
 8002192:	f000 fed1 	bl	8002f38 <PCD_EP_OutXfrComplete_int>
          }

          if ((epint & USB_OTG_DOEPINT_STUP) == USB_OTG_DOEPINT_STUP)
 8002196:	693b      	ldr	r3, [r7, #16]
 8002198:	f003 0308 	and.w	r3, r3, #8
 800219c:	2b00      	cmp	r3, #0
 800219e:	d00c      	beq.n	80021ba <HAL_PCD_IRQHandler+0x1d6>
          {
            CLEAR_OUT_EP_INTR(epnum, USB_OTG_DOEPINT_STUP);
 80021a0:	6a7b      	ldr	r3, [r7, #36]	; 0x24
 80021a2:	015a      	lsls	r2, r3, #5
 80021a4:	69fb      	ldr	r3, [r7, #28]
 80021a6:	4413      	add	r3, r2
 80021a8:	f503 6330 	add.w	r3, r3, #2816	; 0xb00
 80021ac:	461a      	mov	r2, r3
 80021ae:	2308      	movs	r3, #8
 80021b0:	6093      	str	r3, [r2, #8]
            /* Class B setup phase done for previous decoded setup */
            (void)PCD_EP_OutSetupPacket_int(hpcd, epnum);
 80021b2:	6a79      	ldr	r1, [r7, #36]	; 0x24
 80021b4:	6878      	ldr	r0, [r7, #4]
 80021b6:	f000 ffa7 	bl	8003108 <PCD_EP_OutSetupPacket_int>
          }

          if ((epint & USB_OTG_DOEPINT_OTEPDIS) == USB_OTG_DOEPINT_OTEPDIS)
 80021ba:	693b      	ldr	r3, [r7, #16]
 80021bc:	f003 0310 	and.w	r3, r3, #16
 80021c0:	2b00      	cmp	r3, #0
 80021c2:	d008      	beq.n	80021d6 <HAL_PCD_IRQHandler+0x1f2>
          {
            CLEAR_OUT_EP_INTR(epnum, USB_OTG_DOEPINT_OTEPDIS);
 80021c4:	6a7b      	ldr	r3, [r7, #36]	; 0x24
 80021c6:	015a      	lsls	r2, r3, #5
 80021c8:	69fb      	ldr	r3, [r7, #28]
 80021ca:	4413      	add	r3, r2
 80021cc:	f503 6330 	add.w	r3, r3, #2816	; 0xb00
 80021d0:	461a      	mov	r2, r3
 80021d2:	2310      	movs	r3, #16
 80021d4:	6093      	str	r3, [r2, #8]
          }

          /* Clear OUT Endpoint disable interrupt */
          if ((epint & USB_OTG_DOEPINT_EPDISD) == USB_OTG_DOEPINT_EPDISD)
 80021d6:	693b      	ldr	r3, [r7, #16]
 80021d8:	f003 0302 	and.w	r3, r3, #2
 80021dc:	2b00      	cmp	r3, #0
 80021de:	d030      	beq.n	8002242 <HAL_PCD_IRQHandler+0x25e>
          {
            if ((USBx->GINTSTS & USB_OTG_GINTSTS_BOUTNAKEFF) == USB_OTG_GINTSTS_BOUTNAKEFF)
 80021e0:	6a3b      	ldr	r3, [r7, #32]
 80021e2:	695b      	ldr	r3, [r3, #20]
 80021e4:	f003 0380 	and.w	r3, r3, #128	; 0x80
 80021e8:	2b80      	cmp	r3, #128	; 0x80
 80021ea:	d109      	bne.n	8002200 <HAL_PCD_IRQHandler+0x21c>
            {
              USBx_DEVICE->DCTL |= USB_OTG_DCTL_CGONAK;
 80021ec:	69fb      	ldr	r3, [r7, #28]
 80021ee:	f503 6300 	add.w	r3, r3, #2048	; 0x800
 80021f2:	685b      	ldr	r3, [r3, #4]
 80021f4:	69fa      	ldr	r2, [r7, #28]
 80021f6:	f502 6200 	add.w	r2, r2, #2048	; 0x800
 80021fa:	f443 6380 	orr.w	r3, r3, #1024	; 0x400
 80021fe:	6053      	str	r3, [r2, #4]
            }

            ep = &hpcd->OUT_ep[epnum];
 8002200:	6a7a      	ldr	r2, [r7, #36]	; 0x24
 8002202:	4613      	mov	r3, r2
 8002204:	00db      	lsls	r3, r3, #3
 8002206:	4413      	add	r3, r2
 8002208:	009b      	lsls	r3, r3, #2
 800220a:	f503 731e 	add.w	r3, r3, #632	; 0x278
 800220e:	687a      	ldr	r2, [r7, #4]
 8002210:	4413      	add	r3, r2
 8002212:	3304      	adds	r3, #4
 8002214:	617b      	str	r3, [r7, #20]

            if (ep->is_iso_incomplete == 1U)
 8002216:	697b      	ldr	r3, [r7, #20]
 8002218:	78db      	ldrb	r3, [r3, #3]
 800221a:	2b01      	cmp	r3, #1
 800221c:	d108      	bne.n	8002230 <HAL_PCD_IRQHandler+0x24c>
            {
              ep->is_iso_incomplete = 0U;
 800221e:	697b      	ldr	r3, [r7, #20]
 8002220:	2200      	movs	r2, #0
 8002222:	70da      	strb	r2, [r3, #3]

#if (USE_HAL_PCD_REGISTER_CALLBACKS == 1U)
              hpcd->ISOOUTIncompleteCallback(hpcd, (uint8_t)epnum);
#else
              HAL_PCD_ISOOUTIncompleteCallback(hpcd, (uint8_t)epnum);
 8002224:	6a7b      	ldr	r3, [r7, #36]	; 0x24
 8002226:	b2db      	uxtb	r3, r3
 8002228:	4619      	mov	r1, r3
 800222a:	6878      	ldr	r0, [r7, #4]
 800222c:	f008 fd04 	bl	800ac38 <HAL_PCD_ISOOUTIncompleteCallback>
#endif /* USE_HAL_PCD_REGISTER_CALLBACKS */
            }

            CLEAR_OUT_EP_INTR(epnum, USB_OTG_DOEPINT_EPDISD);
 8002230:	6a7b      	ldr	r3, [r7, #36]	; 0x24
 8002232:	015a      	lsls	r2, r3, #5
 8002234:	69fb      	ldr	r3, [r7, #28]
 8002236:	4413      	add	r3, r2
 8002238:	f503 6330 	add.w	r3, r3, #2816	; 0xb00
 800223c:	461a      	mov	r2, r3
 800223e:	2302      	movs	r3, #2
 8002240:	6093      	str	r3, [r2, #8]
          }

          /* Clear Status Phase Received interrupt */
          if ((epint & USB_OTG_DOEPINT_OTEPSPR) == USB_OTG_DOEPINT_OTEPSPR)
 8002242:	693b      	ldr	r3, [r7, #16]
 8002244:	f003 0320 	and.w	r3, r3, #32
 8002248:	2b00      	cmp	r3, #0
 800224a:	d008      	beq.n	800225e <HAL_PCD_IRQHandler+0x27a>
          {
            CLEAR_OUT_EP_INTR(epnum, USB_OTG_DOEPINT_OTEPSPR);
 800224c:	6a7b      	ldr	r3, [r7, #36]	; 0x24
 800224e:	015a      	lsls	r2, r3, #5
 8002250:	69fb      	ldr	r3, [r7, #28]
 8002252:	4413      	add	r3, r2
 8002254:	f503 6330 	add.w	r3, r3, #2816	; 0xb00
 8002258:	461a      	mov	r2, r3
 800225a:	2320      	movs	r3, #32
 800225c:	6093      	str	r3, [r2, #8]
          }

          /* Clear OUT NAK interrupt */
          if ((epint & USB_OTG_DOEPINT_NAK) == USB_OTG_DOEPINT_NAK)
 800225e:	693b      	ldr	r3, [r7, #16]
 8002260:	f403 5300 	and.w	r3, r3, #8192	; 0x2000
 8002264:	2b00      	cmp	r3, #0
 8002266:	d009      	beq.n	800227c <HAL_PCD_IRQHandler+0x298>
          {
            CLEAR_OUT_EP_INTR(epnum, USB_OTG_DOEPINT_NAK);
 8002268:	6a7b      	ldr	r3, [r7, #36]	; 0x24
 800226a:	015a      	lsls	r2, r3, #5
 800226c:	69fb      	ldr	r3, [r7, #28]
 800226e:	4413      	add	r3, r2
 8002270:	f503 6330 	add.w	r3, r3, #2816	; 0xb00
 8002274:	461a      	mov	r2, r3
 8002276:	f44f 5300 	mov.w	r3, #8192	; 0x2000
 800227a:	6093      	str	r3, [r2, #8]
          }
        }
        epnum++;
 800227c:	6a7b      	ldr	r3, [r7, #36]	; 0x24
 800227e:	3301      	adds	r3, #1
 8002280:	627b      	str	r3, [r7, #36]	; 0x24
        ep_intr >>= 1U;
 8002282:	6abb      	ldr	r3, [r7, #40]	; 0x28
 8002284:	085b      	lsrs	r3, r3, #1
 8002286:	62bb      	str	r3, [r7, #40]	; 0x28
      while (ep_intr != 0U)
 8002288:	6abb      	ldr	r3, [r7, #40]	; 0x28
 800228a:	2b00      	cmp	r3, #0
 800228c:	f47f af62 	bne.w	8002154 <HAL_PCD_IRQHandler+0x170>
      }
    }

    if (__HAL_PCD_GET_FLAG(hpcd, USB_OTG_GINTSTS_IEPINT))
 8002290:	687b      	ldr	r3, [r7, #4]
 8002292:	681b      	ldr	r3, [r3, #0]
 8002294:	4618      	mov	r0, r3
 8002296:	f006 f935 	bl	8008504 <USB_ReadInterrupts>
 800229a:	4603      	mov	r3, r0
 800229c:	f403 2380 	and.w	r3, r3, #262144	; 0x40000
 80022a0:	f5b3 2f80 	cmp.w	r3, #262144	; 0x40000
 80022a4:	f040 80db 	bne.w	800245e <HAL_PCD_IRQHandler+0x47a>
    {
      /* Read in the device interrupt bits */
      ep_intr = USB_ReadDevAllInEpInterrupt(hpcd->Instance);
 80022a8:	687b      	ldr	r3, [r7, #4]
 80022aa:	681b      	ldr	r3, [r3, #0]
 80022ac:	4618      	mov	r0, r3
 80022ae:	f006 f956 	bl	800855e <USB_ReadDevAllInEpInterrupt>
 80022b2:	62b8      	str	r0, [r7, #40]	; 0x28

      epnum = 0U;
 80022b4:	2300      	movs	r3, #0
 80022b6:	627b      	str	r3, [r7, #36]	; 0x24

      while (ep_intr != 0U)
 80022b8:	e0cd      	b.n	8002456 <HAL_PCD_IRQHandler+0x472>
      {
        if ((ep_intr & 0x1U) != 0U) /* In ITR */
 80022ba:	6abb      	ldr	r3, [r7, #40]	; 0x28
 80022bc:	f003 0301 	and.w	r3, r3, #1
 80022c0:	2b00      	cmp	r3, #0
 80022c2:	f000 80c2 	beq.w	800244a <HAL_PCD_IRQHandler+0x466>
        {
          epint = USB_ReadDevInEPInterrupt(hpcd->Instance, (uint8_t)epnum);
 80022c6:	687b      	ldr	r3, [r7, #4]
 80022c8:	681b      	ldr	r3, [r3, #0]
 80022ca:	6a7a      	ldr	r2, [r7, #36]	; 0x24
 80022cc:	b2d2      	uxtb	r2, r2
 80022ce:	4611      	mov	r1, r2
 80022d0:	4618      	mov	r0, r3
 80022d2:	f006 f97c 	bl	80085ce <USB_ReadDevInEPInterrupt>
 80022d6:	6138      	str	r0, [r7, #16]

          if ((epint & USB_OTG_DIEPINT_XFRC) == USB_OTG_DIEPINT_XFRC)
 80022d8:	693b      	ldr	r3, [r7, #16]
 80022da:	f003 0301 	and.w	r3, r3, #1
 80022de:	2b00      	cmp	r3, #0
 80022e0:	d057      	beq.n	8002392 <HAL_PCD_IRQHandler+0x3ae>
          {
            fifoemptymsk = (uint32_t)(0x1UL << (epnum & EP_ADDR_MSK));
 80022e2:	6a7b      	ldr	r3, [r7, #36]	; 0x24
 80022e4:	f003 030f 	and.w	r3, r3, #15
 80022e8:	2201      	movs	r2, #1
 80022ea:	fa02 f303 	lsl.w	r3, r2, r3
 80022ee:	60fb      	str	r3, [r7, #12]
            USBx_DEVICE->DIEPEMPMSK &= ~fifoemptymsk;
 80022f0:	69fb      	ldr	r3, [r7, #28]
 80022f2:	f503 6300 	add.w	r3, r3, #2048	; 0x800
 80022f6:	6b5a      	ldr	r2, [r3, #52]	; 0x34
 80022f8:	68fb      	ldr	r3, [r7, #12]
 80022fa:	43db      	mvns	r3, r3
 80022fc:	69f9      	ldr	r1, [r7, #28]
 80022fe:	f501 6100 	add.w	r1, r1, #2048	; 0x800
 8002302:	4013      	ands	r3, r2
 8002304:	634b      	str	r3, [r1, #52]	; 0x34

            CLEAR_IN_EP_INTR(epnum, USB_OTG_DIEPINT_XFRC);
 8002306:	6a7b      	ldr	r3, [r7, #36]	; 0x24
 8002308:	015a      	lsls	r2, r3, #5
 800230a:	69fb      	ldr	r3, [r7, #28]
 800230c:	4413      	add	r3, r2
 800230e:	f503 6310 	add.w	r3, r3, #2304	; 0x900
 8002312:	461a      	mov	r2, r3
 8002314:	2301      	movs	r3, #1
 8002316:	6093      	str	r3, [r2, #8]

            if (hpcd->Init.dma_enable == 1U)
 8002318:	687b      	ldr	r3, [r7, #4]
 800231a:	68db      	ldr	r3, [r3, #12]
 800231c:	2b01      	cmp	r3, #1
 800231e:	d132      	bne.n	8002386 <HAL_PCD_IRQHandler+0x3a2>
            {
              hpcd->IN_ep[epnum].xfer_buff += hpcd->IN_ep[epnum].maxpacket;
 8002320:	6879      	ldr	r1, [r7, #4]
 8002322:	6a7a      	ldr	r2, [r7, #36]	; 0x24
 8002324:	4613      	mov	r3, r2
 8002326:	00db      	lsls	r3, r3, #3
 8002328:	4413      	add	r3, r2
 800232a:	009b      	lsls	r3, r3, #2
 800232c:	440b      	add	r3, r1
 800232e:	3348      	adds	r3, #72	; 0x48
 8002330:	6819      	ldr	r1, [r3, #0]
 8002332:	6878      	ldr	r0, [r7, #4]
 8002334:	6a7a      	ldr	r2, [r7, #36]	; 0x24
 8002336:	4613      	mov	r3, r2
 8002338:	00db      	lsls	r3, r3, #3
 800233a:	4413      	add	r3, r2
 800233c:	009b      	lsls	r3, r3, #2
 800233e:	4403      	add	r3, r0
 8002340:	3344      	adds	r3, #68	; 0x44
 8002342:	681b      	ldr	r3, [r3, #0]
 8002344:	4419      	add	r1, r3
 8002346:	6878      	ldr	r0, [r7, #4]
 8002348:	6a7a      	ldr	r2, [r7, #36]	; 0x24
 800234a:	4613      	mov	r3, r2
 800234c:	00db      	lsls	r3, r3, #3
 800234e:	4413      	add	r3, r2
 8002350:	009b      	lsls	r3, r3, #2
 8002352:	4403      	add	r3, r0
 8002354:	3348      	adds	r3, #72	; 0x48
 8002356:	6019      	str	r1, [r3, #0]

              /* this is ZLP, so prepare EP0 for next setup */
              if ((epnum == 0U) && (hpcd->IN_ep[epnum].xfer_len == 0U))
 8002358:	6a7b      	ldr	r3, [r7, #36]	; 0x24
 800235a:	2b00      	cmp	r3, #0
 800235c:	d113      	bne.n	8002386 <HAL_PCD_IRQHandler+0x3a2>
 800235e:	6879      	ldr	r1, [r7, #4]
 8002360:	6a7a      	ldr	r2, [r7, #36]	; 0x24
 8002362:	4613      	mov	r3, r2
 8002364:	00db      	lsls	r3, r3, #3
 8002366:	4413      	add	r3, r2
 8002368:	009b      	lsls	r3, r3, #2
 800236a:	440b      	add	r3, r1
 800236c:	334c      	adds	r3, #76	; 0x4c
 800236e:	681b      	ldr	r3, [r3, #0]
 8002370:	2b00      	cmp	r3, #0
 8002372:	d108      	bne.n	8002386 <HAL_PCD_IRQHandler+0x3a2>
              {
                /* prepare to rx more setup packets */
                (void)USB_EP0_OutStart(hpcd->Instance, 1U, (uint8_t *)hpcd->Setup);
 8002374:	687b      	ldr	r3, [r7, #4]
 8002376:	6818      	ldr	r0, [r3, #0]
 8002378:	687b      	ldr	r3, [r7, #4]
 800237a:	f203 43c4 	addw	r3, r3, #1220	; 0x4c4
 800237e:	461a      	mov	r2, r3
 8002380:	2101      	movs	r1, #1
 8002382:	f006 f985 	bl	8008690 <USB_EP0_OutStart>
            }

#if (USE_HAL_PCD_REGISTER_CALLBACKS == 1U)
            hpcd->DataInStageCallback(hpcd, (uint8_t)epnum);
#else
            HAL_PCD_DataInStageCallback(hpcd, (uint8_t)epnum);
 8002386:	6a7b      	ldr	r3, [r7, #36]	; 0x24
 8002388:	b2db      	uxtb	r3, r3
 800238a:	4619      	mov	r1, r3
 800238c:	6878      	ldr	r0, [r7, #4]
 800238e:	f008 fbce 	bl	800ab2e <HAL_PCD_DataInStageCallback>
#endif /* USE_HAL_PCD_REGISTER_CALLBACKS */
          }
          if ((epint & USB_OTG_DIEPINT_TOC) == USB_OTG_DIEPINT_TOC)
 8002392:	693b      	ldr	r3, [r7, #16]
 8002394:	f003 0308 	and.w	r3, r3, #8
 8002398:	2b00      	cmp	r3, #0
 800239a:	d008      	beq.n	80023ae <HAL_PCD_IRQHandler+0x3ca>
          {
            CLEAR_IN_EP_INTR(epnum, USB_OTG_DIEPINT_TOC);
 800239c:	6a7b      	ldr	r3, [r7, #36]	; 0x24
 800239e:	015a      	lsls	r2, r3, #5
 80023a0:	69fb      	ldr	r3, [r7, #28]
 80023a2:	4413      	add	r3, r2
 80023a4:	f503 6310 	add.w	r3, r3, #2304	; 0x900
 80023a8:	461a      	mov	r2, r3
 80023aa:	2308      	movs	r3, #8
 80023ac:	6093      	str	r3, [r2, #8]
          }
          if ((epint & USB_OTG_DIEPINT_ITTXFE) == USB_OTG_DIEPINT_ITTXFE)
 80023ae:	693b      	ldr	r3, [r7, #16]
 80023b0:	f003 0310 	and.w	r3, r3, #16
 80023b4:	2b00      	cmp	r3, #0
 80023b6:	d008      	beq.n	80023ca <HAL_PCD_IRQHandler+0x3e6>
          {
            CLEAR_IN_EP_INTR(epnum, USB_OTG_DIEPINT_ITTXFE);
 80023b8:	6a7b      	ldr	r3, [r7, #36]	; 0x24
 80023ba:	015a      	lsls	r2, r3, #5
 80023bc:	69fb      	ldr	r3, [r7, #28]
 80023be:	4413      	add	r3, r2
 80023c0:	f503 6310 	add.w	r3, r3, #2304	; 0x900
 80023c4:	461a      	mov	r2, r3
 80023c6:	2310      	movs	r3, #16
 80023c8:	6093      	str	r3, [r2, #8]
          }
          if ((epint & USB_OTG_DIEPINT_INEPNE) == USB_OTG_DIEPINT_INEPNE)
 80023ca:	693b      	ldr	r3, [r7, #16]
 80023cc:	f003 0340 	and.w	r3, r3, #64	; 0x40
 80023d0:	2b00      	cmp	r3, #0
 80023d2:	d008      	beq.n	80023e6 <HAL_PCD_IRQHandler+0x402>
          {
            CLEAR_IN_EP_INTR(epnum, USB_OTG_DIEPINT_INEPNE);
 80023d4:	6a7b      	ldr	r3, [r7, #36]	; 0x24
 80023d6:	015a      	lsls	r2, r3, #5
 80023d8:	69fb      	ldr	r3, [r7, #28]
 80023da:	4413      	add	r3, r2
 80023dc:	f503 6310 	add.w	r3, r3, #2304	; 0x900
 80023e0:	461a      	mov	r2, r3
 80023e2:	2340      	movs	r3, #64	; 0x40
 80023e4:	6093      	str	r3, [r2, #8]
          }
          if ((epint & USB_OTG_DIEPINT_EPDISD) == USB_OTG_DIEPINT_EPDISD)
 80023e6:	693b      	ldr	r3, [r7, #16]
 80023e8:	f003 0302 	and.w	r3, r3, #2
 80023ec:	2b00      	cmp	r3, #0
 80023ee:	d023      	beq.n	8002438 <HAL_PCD_IRQHandler+0x454>
          {
            (void)USB_FlushTxFifo(USBx, epnum);
 80023f0:	6a79      	ldr	r1, [r7, #36]	; 0x24
 80023f2:	6a38      	ldr	r0, [r7, #32]
 80023f4:	f005 f964 	bl	80076c0 <USB_FlushTxFifo>

            ep = &hpcd->IN_ep[epnum];
 80023f8:	6a7a      	ldr	r2, [r7, #36]	; 0x24
 80023fa:	4613      	mov	r3, r2
 80023fc:	00db      	lsls	r3, r3, #3
 80023fe:	4413      	add	r3, r2
 8002400:	009b      	lsls	r3, r3, #2
 8002402:	3338      	adds	r3, #56	; 0x38
 8002404:	687a      	ldr	r2, [r7, #4]
 8002406:	4413      	add	r3, r2
 8002408:	3304      	adds	r3, #4
 800240a:	617b      	str	r3, [r7, #20]

            if (ep->is_iso_incomplete == 1U)
 800240c:	697b      	ldr	r3, [r7, #20]
 800240e:	78db      	ldrb	r3, [r3, #3]
 8002410:	2b01      	cmp	r3, #1
 8002412:	d108      	bne.n	8002426 <HAL_PCD_IRQHandler+0x442>
            {
              ep->is_iso_incomplete = 0U;
 8002414:	697b      	ldr	r3, [r7, #20]
 8002416:	2200      	movs	r2, #0
 8002418:	70da      	strb	r2, [r3, #3]

#if (USE_HAL_PCD_REGISTER_CALLBACKS == 1U)
              hpcd->ISOINIncompleteCallback(hpcd, (uint8_t)epnum);
#else
              HAL_PCD_ISOINIncompleteCallback(hpcd, (uint8_t)epnum);
 800241a:	6a7b      	ldr	r3, [r7, #36]	; 0x24
 800241c:	b2db      	uxtb	r3, r3
 800241e:	4619      	mov	r1, r3
 8002420:	6878      	ldr	r0, [r7, #4]
 8002422:	f008 fc1b 	bl	800ac5c <HAL_PCD_ISOINIncompleteCallback>
#endif /* USE_HAL_PCD_REGISTER_CALLBACKS */
            }

            CLEAR_IN_EP_INTR(epnum, USB_OTG_DIEPINT_EPDISD);
 8002426:	6a7b      	ldr	r3, [r7, #36]	; 0x24
 8002428:	015a      	lsls	r2, r3, #5
 800242a:	69fb      	ldr	r3, [r7, #28]
 800242c:	4413      	add	r3, r2
 800242e:	f503 6310 	add.w	r3, r3, #2304	; 0x900
 8002432:	461a      	mov	r2, r3
 8002434:	2302      	movs	r3, #2
 8002436:	6093      	str	r3, [r2, #8]
          }
          if ((epint & USB_OTG_DIEPINT_TXFE) == USB_OTG_DIEPINT_TXFE)
 8002438:	693b      	ldr	r3, [r7, #16]
 800243a:	f003 0380 	and.w	r3, r3, #128	; 0x80
 800243e:	2b00      	cmp	r3, #0
 8002440:	d003      	beq.n	800244a <HAL_PCD_IRQHandler+0x466>
          {
            (void)PCD_WriteEmptyTxFifo(hpcd, epnum);
 8002442:	6a79      	ldr	r1, [r7, #36]	; 0x24
 8002444:	6878      	ldr	r0, [r7, #4]
 8002446:	f000 fcea 	bl	8002e1e <PCD_WriteEmptyTxFifo>
          }
        }
        epnum++;
 800244a:	6a7b      	ldr	r3, [r7, #36]	; 0x24
 800244c:	3301      	adds	r3, #1
 800244e:	627b      	str	r3, [r7, #36]	; 0x24
        ep_intr >>= 1U;
 8002450:	6abb      	ldr	r3, [r7, #40]	; 0x28
 8002452:	085b      	lsrs	r3, r3, #1
 8002454:	62bb      	str	r3, [r7, #40]	; 0x28
      while (ep_intr != 0U)
 8002456:	6abb      	ldr	r3, [r7, #40]	; 0x28
 8002458:	2b00      	cmp	r3, #0
 800245a:	f47f af2e 	bne.w	80022ba <HAL_PCD_IRQHandler+0x2d6>
      }
    }

    /* Handle Resume Interrupt */
    if (__HAL_PCD_GET_FLAG(hpcd, USB_OTG_GINTSTS_WKUINT))
 800245e:	687b      	ldr	r3, [r7, #4]
 8002460:	681b      	ldr	r3, [r3, #0]
 8002462:	4618      	mov	r0, r3
 8002464:	f006 f84e 	bl	8008504 <USB_ReadInterrupts>
 8002468:	4603      	mov	r3, r0
 800246a:	f003 4300 	and.w	r3, r3, #2147483648	; 0x80000000
 800246e:	f1b3 4f00 	cmp.w	r3, #2147483648	; 0x80000000
 8002472:	d122      	bne.n	80024ba <HAL_PCD_IRQHandler+0x4d6>
    {
      /* Clear the Remote Wake-up Signaling */
      USBx_DEVICE->DCTL &= ~USB_OTG_DCTL_RWUSIG;
 8002474:	69fb      	ldr	r3, [r7, #28]
 8002476:	f503 6300 	add.w	r3, r3, #2048	; 0x800
 800247a:	685b      	ldr	r3, [r3, #4]
 800247c:	69fa      	ldr	r2, [r7, #28]
 800247e:	f502 6200 	add.w	r2, r2, #2048	; 0x800
 8002482:	f023 0301 	bic.w	r3, r3, #1
 8002486:	6053      	str	r3, [r2, #4]

      if (hpcd->LPM_State == LPM_L1)
 8002488:	687b      	ldr	r3, [r7, #4]
 800248a:	f893 34f4 	ldrb.w	r3, [r3, #1268]	; 0x4f4
 800248e:	2b01      	cmp	r3, #1
 8002490:	d108      	bne.n	80024a4 <HAL_PCD_IRQHandler+0x4c0>
      {
        hpcd->LPM_State = LPM_L0;
 8002492:	687b      	ldr	r3, [r7, #4]
 8002494:	2200      	movs	r2, #0
 8002496:	f883 24f4 	strb.w	r2, [r3, #1268]	; 0x4f4

#if (USE_HAL_PCD_REGISTER_CALLBACKS == 1U)
        hpcd->LPMCallback(hpcd, PCD_LPM_L0_ACTIVE);
#else
        HAL_PCDEx_LPM_Callback(hpcd, PCD_LPM_L0_ACTIVE);
 800249a:	2100      	movs	r1, #0
 800249c:	6878      	ldr	r0, [r7, #4]
 800249e:	f000 fef5 	bl	800328c <HAL_PCDEx_LPM_Callback>
 80024a2:	e002      	b.n	80024aa <HAL_PCD_IRQHandler+0x4c6>
      else
      {
#if (USE_HAL_PCD_REGISTER_CALLBACKS == 1U)
        hpcd->ResumeCallback(hpcd);
#else
        HAL_PCD_ResumeCallback(hpcd);
 80024a4:	6878      	ldr	r0, [r7, #4]
 80024a6:	f008 fbb9 	bl	800ac1c <HAL_PCD_ResumeCallback>
#endif /* USE_HAL_PCD_REGISTER_CALLBACKS */
      }

      __HAL_PCD_CLEAR_FLAG(hpcd, USB_OTG_GINTSTS_WKUINT);
 80024aa:	687b      	ldr	r3, [r7, #4]
 80024ac:	681b      	ldr	r3, [r3, #0]
 80024ae:	695a      	ldr	r2, [r3, #20]
 80024b0:	687b      	ldr	r3, [r7, #4]
 80024b2:	681b      	ldr	r3, [r3, #0]
 80024b4:	f002 4200 	and.w	r2, r2, #2147483648	; 0x80000000
 80024b8:	615a      	str	r2, [r3, #20]
    }

    /* Handle Suspend Interrupt */
    if (__HAL_PCD_GET_FLAG(hpcd, USB_OTG_GINTSTS_USBSUSP))
 80024ba:	687b      	ldr	r3, [r7, #4]
 80024bc:	681b      	ldr	r3, [r3, #0]
 80024be:	4618      	mov	r0, r3
 80024c0:	f006 f820 	bl	8008504 <USB_ReadInterrupts>
 80024c4:	4603      	mov	r3, r0
 80024c6:	f403 6300 	and.w	r3, r3, #2048	; 0x800
 80024ca:	f5b3 6f00 	cmp.w	r3, #2048	; 0x800
 80024ce:	d112      	bne.n	80024f6 <HAL_PCD_IRQHandler+0x512>
    {
      if ((USBx_DEVICE->DSTS & USB_OTG_DSTS_SUSPSTS) == USB_OTG_DSTS_SUSPSTS)
 80024d0:	69fb      	ldr	r3, [r7, #28]
 80024d2:	f503 6300 	add.w	r3, r3, #2048	; 0x800
 80024d6:	689b      	ldr	r3, [r3, #8]
 80024d8:	f003 0301 	and.w	r3, r3, #1
 80024dc:	2b01      	cmp	r3, #1
 80024de:	d102      	bne.n	80024e6 <HAL_PCD_IRQHandler+0x502>
      {
#if (USE_HAL_PCD_REGISTER_CALLBACKS == 1U)
        hpcd->SuspendCallback(hpcd);
#else
        HAL_PCD_SuspendCallback(hpcd);
 80024e0:	6878      	ldr	r0, [r7, #4]
 80024e2:	f008 fb75 	bl	800abd0 <HAL_PCD_SuspendCallback>
#endif /* USE_HAL_PCD_REGISTER_CALLBACKS */
      }
      __HAL_PCD_CLEAR_FLAG(hpcd, USB_OTG_GINTSTS_USBSUSP);
 80024e6:	687b      	ldr	r3, [r7, #4]
 80024e8:	681b      	ldr	r3, [r3, #0]
 80024ea:	695a      	ldr	r2, [r3, #20]
 80024ec:	687b      	ldr	r3, [r7, #4]
 80024ee:	681b      	ldr	r3, [r3, #0]
 80024f0:	f402 6200 	and.w	r2, r2, #2048	; 0x800
 80024f4:	615a      	str	r2, [r3, #20]
    }

    /* Handle LPM Interrupt */
    if (__HAL_PCD_GET_FLAG(hpcd, USB_OTG_GINTSTS_LPMINT))
 80024f6:	687b      	ldr	r3, [r7, #4]
 80024f8:	681b      	ldr	r3, [r3, #0]
 80024fa:	4618      	mov	r0, r3
 80024fc:	f006 f802 	bl	8008504 <USB_ReadInterrupts>
 8002500:	4603      	mov	r3, r0
 8002502:	f003 6300 	and.w	r3, r3, #134217728	; 0x8000000
 8002506:	f1b3 6f00 	cmp.w	r3, #134217728	; 0x8000000
 800250a:	d121      	bne.n	8002550 <HAL_PCD_IRQHandler+0x56c>
    {
      __HAL_PCD_CLEAR_FLAG(hpcd, USB_OTG_GINTSTS_LPMINT);
 800250c:	687b      	ldr	r3, [r7, #4]
 800250e:	681b      	ldr	r3, [r3, #0]
 8002510:	695a      	ldr	r2, [r3, #20]
 8002512:	687b      	ldr	r3, [r7, #4]
 8002514:	681b      	ldr	r3, [r3, #0]
 8002516:	f002 6200 	and.w	r2, r2, #134217728	; 0x8000000
 800251a:	615a      	str	r2, [r3, #20]

      if (hpcd->LPM_State == LPM_L0)
 800251c:	687b      	ldr	r3, [r7, #4]
 800251e:	f893 34f4 	ldrb.w	r3, [r3, #1268]	; 0x4f4
 8002522:	2b00      	cmp	r3, #0
 8002524:	d111      	bne.n	800254a <HAL_PCD_IRQHandler+0x566>
      {
        hpcd->LPM_State = LPM_L1;
 8002526:	687b      	ldr	r3, [r7, #4]
 8002528:	2201      	movs	r2, #1
 800252a:	f883 24f4 	strb.w	r2, [r3, #1268]	; 0x4f4
        hpcd->BESL = (hpcd->Instance->GLPMCFG & USB_OTG_GLPMCFG_BESL) >> 2U;
 800252e:	687b      	ldr	r3, [r7, #4]
 8002530:	681b      	ldr	r3, [r3, #0]
 8002532:	6d5b      	ldr	r3, [r3, #84]	; 0x54
 8002534:	089b      	lsrs	r3, r3, #2
 8002536:	f003 020f 	and.w	r2, r3, #15
 800253a:	687b      	ldr	r3, [r7, #4]
 800253c:	f8c3 24f8 	str.w	r2, [r3, #1272]	; 0x4f8

#if (USE_HAL_PCD_REGISTER_CALLBACKS == 1U)
        hpcd->LPMCallback(hpcd, PCD_LPM_L1_ACTIVE);
#else
        HAL_PCDEx_LPM_Callback(hpcd, PCD_LPM_L1_ACTIVE);
 8002540:	2101      	movs	r1, #1
 8002542:	6878      	ldr	r0, [r7, #4]
 8002544:	f000 fea2 	bl	800328c <HAL_PCDEx_LPM_Callback>
 8002548:	e002      	b.n	8002550 <HAL_PCD_IRQHandler+0x56c>
      else
      {
#if (USE_HAL_PCD_REGISTER_CALLBACKS == 1U)
        hpcd->SuspendCallback(hpcd);
#else
        HAL_PCD_SuspendCallback(hpcd);
 800254a:	6878      	ldr	r0, [r7, #4]
 800254c:	f008 fb40 	bl	800abd0 <HAL_PCD_SuspendCallback>
#endif /* USE_HAL_PCD_REGISTER_CALLBACKS */
      }
    }

    /* Handle Reset Interrupt */
    if (__HAL_PCD_GET_FLAG(hpcd, USB_OTG_GINTSTS_USBRST))
 8002550:	687b      	ldr	r3, [r7, #4]
 8002552:	681b      	ldr	r3, [r3, #0]
 8002554:	4618      	mov	r0, r3
 8002556:	f005 ffd5 	bl	8008504 <USB_ReadInterrupts>
 800255a:	4603      	mov	r3, r0
 800255c:	f403 5380 	and.w	r3, r3, #4096	; 0x1000
 8002560:	f5b3 5f80 	cmp.w	r3, #4096	; 0x1000
 8002564:	f040 80b7 	bne.w	80026d6 <HAL_PCD_IRQHandler+0x6f2>
    {
      USBx_DEVICE->DCTL &= ~USB_OTG_DCTL_RWUSIG;
 8002568:	69fb      	ldr	r3, [r7, #28]
 800256a:	f503 6300 	add.w	r3, r3, #2048	; 0x800
 800256e:	685b      	ldr	r3, [r3, #4]
 8002570:	69fa      	ldr	r2, [r7, #28]
 8002572:	f502 6200 	add.w	r2, r2, #2048	; 0x800
 8002576:	f023 0301 	bic.w	r3, r3, #1
 800257a:	6053      	str	r3, [r2, #4]
      (void)USB_FlushTxFifo(hpcd->Instance, 0x10U);
 800257c:	687b      	ldr	r3, [r7, #4]
 800257e:	681b      	ldr	r3, [r3, #0]
 8002580:	2110      	movs	r1, #16
 8002582:	4618      	mov	r0, r3
 8002584:	f005 f89c 	bl	80076c0 <USB_FlushTxFifo>

