Component: ARM Compiler 5.06 update 7 (build 960) Tool: armlink [4d3601]

==============================================================================

Section Cross References

    startup_stm32h743xx.o(RESET) refers to startup_stm32h743xx.o(STACK) for __initial_sp
    startup_stm32h743xx.o(RESET) refers to startup_stm32h743xx.o(.text) for Reset_Handler
    startup_stm32h743xx.o(RESET) refers to stm32h7xx_it.o(i.NMI_Handler) for NMI_Handler
    startup_stm32h743xx.o(RESET) refers to stm32h7xx_it.o(i.HardFault_Handler) for HardFault_Handler
    startup_stm32h743xx.o(RESET) refers to stm32h7xx_it.o(i.MemManage_Handler) for MemManage_Handler
    startup_stm32h743xx.o(RESET) refers to stm32h7xx_it.o(i.BusFault_Handler) for BusFault_Handler
    startup_stm32h743xx.o(RESET) refers to stm32h7xx_it.o(i.UsageFault_Handler) for UsageFault_Handler
    startup_stm32h743xx.o(RESET) refers to stm32h7xx_it.o(i.SVC_Handler) for SVC_Handler
    startup_stm32h743xx.o(RESET) refers to stm32h7xx_it.o(i.DebugMon_Handler) for DebugMon_Handler
    startup_stm32h743xx.o(RESET) refers to stm32h7xx_it.o(i.PendSV_Handler) for PendSV_Handler
    startup_stm32h743xx.o(RESET) refers to stm32h7xx_it.o(i.SysTick_Handler) for SysTick_Handler
    startup_stm32h743xx.o(RESET) refers to stm32h7xx_it.o(i.USART1_IRQHandler) for USART1_IRQHandler
    startup_stm32h743xx.o(RESET) refers to lwip.o(i.ETH_IRQHandler) for ETH_IRQHandler
    startup_stm32h743xx.o(RESET) refers to stm32h7xx_it.o(i.ETH_WKUP_IRQHandler) for ETH_WKUP_IRQHandler
    startup_stm32h743xx.o(.text) refers to system_stm32h7xx.o(i.SystemInit) for SystemInit
    startup_stm32h743xx.o(.text) refers to entry.o(.ARM.Collect$$$$00000000) for __main
    main.o(i.MPU_Config) refers to stm32h7xx_hal_cortex.o(i.HAL_MPU_Disable) for HAL_MPU_Disable
    main.o(i.MPU_Config) refers to stm32h7xx_hal_cortex.o(i.HAL_MPU_ConfigRegion) for HAL_MPU_ConfigRegion
==============================================================================

Removing Unused input sections from the image.

    Removing startup_stm32h743xx.o(HEAP), (1024 bytes).
    Removing main.o(.rev16_text), (4 bytes).
    Removing main.o(.revsh_text), (4 bytes).
    Removing main.o(.rrx_text), (6 bytes).
    Removing gpio.o(.rev16_text), (4 bytes).
    Removing gpio.o(.revsh_text), (4 bytes).
    Removing gpio.o(.rrx_text), (6 bytes).
    Removing usart.o(.rev16_text), (4 bytes).
    Removing usart.o(.revsh_text), (4 bytes).
    Removing usart.o(.rrx_text), (6 bytes).
    Removing usart.o(i.HAL_UART_MspDeInit), (52 bytes).
    Removing stm32h7xx_it.o(.rev16_text), (4 bytes).
    Removing stm32h7xx_it.o(.revsh_text), (4 bytes).
    Removing stm32h7xx_it.o(.rrx_text), (6 bytes).
    Removing stm32h7xx_hal_msp.o(.rev16_text), (4 bytes).
    Removing stm32h7xx_hal_msp.o(.revsh_text), (4 bytes).
    Removing stm32h7xx_hal_msp.o(.rrx_text), (6 bytes).
    Removing ethernetif.o(.rev16_text), (4 bytes).
==============================================================================

Image Symbol Table

    Local Symbols

    Symbol Name                              Value     Ov Type        Size  Object(Section)

    ../Core/Src/gpio.c                       0x00000000   Number         0  gpio.o ABSOLUTE
    ../Core/Src/main.c                       0x00000000   Number         0  main.o ABSOLUTE
    ../Core/Src/stm32h7xx_hal_msp.c          0x00000000   Number         0  stm32h7xx_hal_msp.o ABSOLUTE
    ../Core/Src/stm32h7xx_it.c               0x00000000   Number         0  stm32h7xx_it.o ABSOLUTE
    ../Core/Src/system_stm32h7xx.c           0x00000000   Number         0  system_stm32h7xx.o ABSOLUTE
    ../Core/Src/usart.c                      0x00000000   Number         0  usart.o ABSOLUTE
    ../Drivers/BSP/Components/lan8742/lan8742.c 0x00000000   Number         0  lan8742.o ABSOLUTE
    ../Drivers/STM32H7xx_HAL_Driver/Src/stm32h7xx_hal.c 0x00000000   Number         0  stm32h7xx_hal.o ABSOLUTE
    ../Drivers/STM32H7xx_HAL_Driver/Src/stm32h7xx_hal_cortex.c 0x00000000   Number         0  stm32h7xx_hal_cortex.o ABSOLUTE
    ../Drivers/STM32H7xx_HAL_Driver/Src/stm32h7xx_hal_dma.c 0x00000000   Number         0  stm32h7xx_hal_dma.o ABSOLUTE
    ../Drivers/STM32H7xx_HAL_Driver/Src/stm32h7xx_hal_dma_ex.c 0x00000000   Number         0  stm32h7xx_hal_dma_ex.o ABSOLUTE
    ../Drivers/STM32H7xx_HAL_Driver/Src/stm32h7xx_hal_eth.c 0x00000000   Number         0  stm32h7xx_hal_eth.o ABSOLUTE
    ../Drivers/STM32H7xx_HAL_Driver/Src/stm32h7xx_hal_eth_ex.c 0x00000000   Number         0  stm32h7xx_hal_eth_ex.o ABSOLUTE
    ../Drivers/STM32H7xx_HAL_Driver/Src/stm32h7xx_hal_exti.c 0x00000000   Number         0  stm32h7xx_hal_exti.o ABSOLUTE
    ../Drivers/STM32H7xx_HAL_Driver/Src/stm32h7xx_hal_flash.c 0x00000000   Number         0  stm32h7xx_hal_flash.o ABSOLUTE
    ../Drivers/STM32H7xx_HAL_Driver/Src/stm32h7xx_hal_flash_ex.c 0x00000000   Number         0  stm32h7xx_hal_flash_ex.o ABSOLUTE
    ../Drivers/STM32H7xx_HAL_Driver/Src/stm32h7xx_hal_gpio.c 0x00000000   Number         0  stm32h7xx_hal_gpio.o ABSOLUTE
    ../Drivers/STM32H7xx_HAL_Driver/Src/stm32h7xx_hal_hsem.c 0x00000000   Number         0  stm32h7xx_hal_hsem.o ABSOLUTE
    ../Drivers/STM32H7xx_HAL_Driver/Src/stm32h7xx_hal_i2c.c 0x00000000   Number         0  stm32h7xx_hal_i2c.o ABSOLUTE
    ../Drivers/STM32H7xx_HAL_Driver/Src/stm32h7xx_hal_i2c_ex.c 0x00000000   Number         0  stm32h7xx_hal_i2c_ex.o ABSOLUTE
    ../Drivers/STM32H7xx_HAL_Driver/Src/stm32h7xx_hal_mdma.c 0x00000000   Number         0  stm32h7xx_hal_mdma.o ABSOLUTE
    ../Drivers/STM32H7xx_HAL_Driver/Src/stm32h7xx_hal_pwr.c 0x00000000   Number         0  stm32h7xx_hal_pwr.o ABSOLUTE
    ../Drivers/STM32H7xx_HAL_Driver/Src/stm32h7xx_hal_pwr_ex.c 0x00000000   Number         0  stm32h7xx_hal_pwr_ex.o ABSOLUTE
    ../Drivers/STM32H7xx_HAL_Driver/Src/stm32h7xx_hal_rcc.c 0x00000000   Number         0  stm32h7xx_hal_rcc.o ABSOLUTE
    ../Drivers/STM32H7xx_HAL_Driver/Src/stm32h7xx_hal_rcc_ex.c 0x00000000   Number         0  stm32h7xx_hal_rcc_ex.o ABSOLUTE
    ../Drivers/STM32H7xx_HAL_Driver/Src/stm32h7xx_hal_tim.c 0x00000000   Number         0  stm32h7xx_hal_tim.o ABSOLUTE
    ../Drivers/STM32H7xx_HAL_Driver/Src/stm32h7xx_hal_tim_ex.c 0x00000000   Number         0  stm32h7xx_hal_tim_ex.o ABSOLUTE
    ../Drivers/STM32H7xx_HAL_Driver/Src/stm32h7xx_hal_uart.c 0x00000000   Number         0  stm32h7xx_hal_uart.o ABSOLUTE
    ../Drivers/STM32H7xx_HAL_Driver/Src/stm32h7xx_hal_uart_ex.c 0x00000000   Number         0  stm32h7xx_hal_uart_ex.o ABSOLUTE
    ../LWIP/App/lwip.c                       0x00000000   Number         0  lwip.o ABSOLUTE
    ../LWIP/Target/ethernetif.c              0x00000000   Number         0  ethernetif.o ABSOLUTE
    ../Middlewares/Third_Party/LwIP/src/api/api_lib.c 0x00000000   Number         0  api_lib.o ABSOLUTE
    ../Middlewares/Third_Party/LwIP/src/api/api_msg.c 0x00000000   Number         0  api_msg.o ABSOLUTE
    ../Middlewares/Third_Party/LwIP/src/api/err.c 0x00000000   Number         0  err.o ABSOLUTE
    ../Middlewares/Third_Party/LwIP/src/api/if_api.c 0x00000000   Number         0  if_api.o ABSOLUTE
    ../Middlewares/Third_Party/LwIP/src/api/netbuf.c 0x00000000   Number         0  netbuf.o ABSOLUTE
    ../Middlewares/Third_Party/LwIP/src/api/netdb.c 0x00000000   Number         0  netdb.o ABSOLUTE
    ../Middlewares/Third_Party/LwIP/src/api/netifapi.c 0x00000000   Number         0  netifapi.o ABSOLUTE
    ../Middlewares/Third_Party/LwIP/src/api/sockets.c 0x00000000   Number         0  sockets.o ABSOLUTE
    ../Middlewares/Third_Party/LwIP/src/api/tcpip.c 0x00000000   Number         0  tcpip.o ABSOLUTE
    ../Middlewares/Third_Party/LwIP/src/apps/mqtt/mqtt.c 0x00000000   Number         0  mqtt.o ABSOLUTE
    ../Middlewares/Third_Party/LwIP/src/core/altcp.c 0x00000000   Number         0  altcp.o ABSOLUTE
    ../Middlewares/Third_Party/LwIP/src/core/altcp_alloc.c 0x00000000   Number         0  altcp_alloc.o ABSOLUTE
    ../Middlewares/Third_Party/LwIP/src/core/altcp_tcp.c 0x00000000   Number         0  altcp_tcp.o ABSOLUTE
    ../Middlewares/Third_Party/LwIP/src/core/def.c 0x00000000   Number         0  def.o ABSOLUTE
    ../Middlewares/Third_Party/LwIP/src/core/dns.c 0x00000000   Number         0  dns.o ABSOLUTE
    ../Middlewares/Third_Party/LwIP/src/core/inet_chksum.c 0x00000000   Number         0  inet_chksum.o ABSOLUTE
    ../Middlewares/Third_Party/LwIP/src/core/init.c 0x00000000   Number         0  init.o ABSOLUTE
    ../Middlewares/Third_Party/LwIP/src/core/ip.c 0x00000000   Number         0  ip.o ABSOLUTE
    ../Middlewares/Third_Party/LwIP/src/core/ipv4/autoip.c 0x00000000   Number         0  autoip.o ABSOLUTE
    ../Middlewares/Third_Party/LwIP/src/core/ipv4/dhcp.c 0x00000000   Number         0  dhcp.o ABSOLUTE
    ../Middlewares/Third_Party/LwIP/src/core/ipv4/etharp.c 0x00000000   Number         0  etharp.o ABSOLUTE
    ../Middlewares/Third_Party/LwIP/src/core/ipv4/icmp.c 0x00000000   Number         0  icmp.o ABSOLUTE
    ../Middlewares/Third_Party/LwIP/src/core/ipv4/igmp.c 0x00000000   Number         0  igmp.o ABSOLUTE
    ../Middlewares/Third_Party/LwIP/src/core/ipv4/ip4.c 0x00000000   Number         0  ip4.o ABSOLUTE
    ../Middlewares/Third_Party/LwIP/src/core/ipv4/ip4_addr.c 0x00000000   Number         0  ip4_addr.o ABSOLUTE
    ../Middlewares/Third_Party/LwIP/src/core/ipv4/ip4_frag.c 0x00000000   Number         0  ip4_frag.o ABSOLUTE
    ../Middlewares/Third_Party/LwIP/src/core/ipv6/dhcp6.c 0x00000000   Number         0  dhcp6.o ABSOLUTE
    ../Middlewares/Third_Party/LwIP/src/core/ipv6/ethip6.c 0x00000000   Number         0  ethip6.o ABSOLUTE
    ../Middlewares/Third_Party/LwIP/src/core/ipv6/icmp6.c 0x00000000   Number         0  icmp6.o ABSOLUTE
    ../Middlewares/Third_Party/LwIP/src/core/ipv6/inet6.c 0x00000000   Number         0  inet6.o ABSOLUTE
    ../Middlewares/Third_Party/LwIP/src/core/ipv6/ip6.c 0x00000000   Number         0  ip6.o ABSOLUTE
    ../Middlewares/Third_Party/LwIP/src/core/ipv6/ip6_addr.c 0x00000000   Number         0  ip6_addr.o ABSOLUTE
    ../Middlewares/Third_Party/LwIP/src/core/ipv6/ip6_frag.c 0x00000000   Number         0  ip6_frag.o ABSOLUTE
    ../Middlewares/Third_Party/LwIP/src/core/ipv6/mld6.c 0x00000000   Number         0  mld6.o ABSOLUTE
    ../Middlewares/Third_Party/LwIP/src/core/ipv6/nd6.c 0x00000000   Number         0  nd6.o ABSOLUTE
    ../Middlewares/Third_Party/LwIP/src/core/mem.c 0x00000000   Number         0  mem.o ABSOLUTE
    ../Middlewares/Third_Party/LwIP/src/core/memp.c 0x00000000   Number         0  memp.o ABSOLUTE
    ../Middlewares/Third_Party/LwIP/src/core/netif.c 0x00000000   Number         0  netif.o ABSOLUTE
    ../Middlewares/Third_Party/LwIP/src/core/pbuf.c 0x00000000   Number         0  pbuf.o ABSOLUTE
    ../Middlewares/Third_Party/LwIP/src/core/raw.c 0x00000000   Number         0  raw.o ABSOLUTE
    ../Middlewares/Third_Party/LwIP/src/core/stats.c 0x00000000   Number         0  stats.o ABSOLUTE
    ../Middlewares/Third_Party/LwIP/src/core/sys.c 0x00000000   Number         0  sys_1.o ABSOLUTE
    ../Middlewares/Third_Party/LwIP/src/core/tcp.c 0x00000000   Number         0  tcp.o ABSOLUTE
    ../Middlewares/Third_Party/LwIP/src/core/tcp_in.c 0x00000000   Number         0  tcp_in.o ABSOLUTE
    ../Middlewares/Third_Party/LwIP/src/core/tcp_out.c 0x00000000   Number         0  tcp_out.o ABSOLUTE
    ../Middlewares/Third_Party/LwIP/src/core/timeouts.c 0x00000000   Number         0  timeouts.o ABSOLUTE
    ../Middlewares/Third_Party/LwIP/src/core/udp.c 0x00000000   Number         0  udp.o ABSOLUTE
    ../Middlewares/Third_Party/LwIP/src/netif/bridgeif.c 0x00000000   Number         0  bridgeif.o ABSOLUTE
    ../Middlewares/Third_Party/LwIP/src/netif/bridgeif_fdb.c 0x00000000   Number         0  bridgeif_fdb.o ABSOLUTE
    ../Middlewares/Third_Party/LwIP/src/netif/ethernet.c 0x00000000   Number         0  ethernet.o ABSOLUTE
    ../Middlewares/Third_Party/LwIP/src/netif/lowpan6.c 0x00000000   Number         0  lowpan6.o ABSOLUTE
    ../Middlewares/Third_Party/LwIP/src/netif/lowpan6_ble.c 0x00000000   Number         0  lowpan6_ble.o ABSOLUTE
    ../Middlewares/Third_Party/LwIP/src/netif/lowpan6_common.c 0x00000000   Number         0  lowpan6_common.o ABSOLUTE
    ../Middlewares/Third_Party/LwIP/src/netif/ppp/auth.c 0x00000000   Number         0  auth.o ABSOLUTE
    ../Middlewares/Third_Party/LwIP/src/netif/ppp/ccp.c 0x00000000   Number         0  ccp.o ABSOLUTE
    ../Middlewares/Third_Party/LwIP/src/netif/ppp/chap-md5.c 0x00000000   Number         0  chap-md5.o ABSOLUTE
    ../Middlewares/Third_Party/LwIP/src/netif/ppp/chap-new.c 0x00000000   Number         0  chap-new.o ABSOLUTE
    ../Middlewares/Third_Party/LwIP/src/netif/ppp/chap_ms.c 0x00000000   Number         0  chap_ms.o ABSOLUTE
    ../Middlewares/Third_Party/LwIP/src/netif/ppp/demand.c 0x00000000   Number         0  demand.o ABSOLUTE
    ../Middlewares/Third_Party/LwIP/src/netif/ppp/eap.c 0x00000000   Number         0  eap.o ABSOLUTE
    ../Middlewares/Third_Party/LwIP/src/netif/ppp/ecp.c 0x00000000   Number         0  ecp.o ABSOLUTE
    ../Middlewares/Third_Party/LwIP/src/netif/ppp/eui64.c 0x00000000   Number         0  eui64.o ABSOLUTE
    ../Middlewares/Third_Party/LwIP/src/netif/ppp/fsm.c 0x00000000   Number         0  fsm.o ABSOLUTE
    ../Middlewares/Third_Party/LwIP/src/netif/ppp/ipcp.c 0x00000000   Number         0  ipcp.o ABSOLUTE
    ../Middlewares/Third_Party/LwIP/src/netif/ppp/ipv6cp.c 0x00000000   Number         0  ipv6cp.o ABSOLUTE
    ../Middlewares/Third_Party/LwIP/src/netif/ppp/lcp.c 0x00000000   Number         0  lcp.o ABSOLUTE
    ../Middlewares/Third_Party/LwIP/src/netif/ppp/magic.c 0x00000000   Number         0  magic.o ABSOLUTE
    ../Middlewares/Third_Party/LwIP/src/netif/ppp/mppe.c 0x00000000   Number         0  mppe.o ABSOLUTE
    ../Middlewares/Third_Party/LwIP/src/netif/ppp/multilink.c 0x00000000   Number         0  multilink.o ABSOLUTE
    ../Middlewares/Third_Party/LwIP/src/netif/ppp/ppp.c 0x00000000   Number         0  ppp.o ABSOLUTE
    ../Middlewares/Third_Party/LwIP/src/netif/ppp/pppapi.c 0x00000000   Number         0  pppapi.o ABSOLUTE
    ../Middlewares/Third_Party/LwIP/src/netif/ppp/pppcrypt.c 0x00000000   Number         0  pppcrypt.o ABSOLUTE
    ../Middlewares/Third_Party/LwIP/src/netif/ppp/pppoe.c 0x00000000   Number         0  pppoe.o ABSOLUTE
    ../Middlewares/Third_Party/LwIP/src/netif/ppp/pppol2tp.c 0x00000000   Number         0  pppol2tp.o ABSOLUTE
    ../Middlewares/Third_Party/LwIP/src/netif/ppp/pppos.c 0x00000000   Number         0  pppos.o ABSOLUTE
    ../Middlewares/Third_Party/LwIP/src/netif/ppp/upap.c 0x00000000   Number         0  upap.o ABSOLUTE
    ../Middlewares/Third_Party/LwIP/src/netif/ppp/utils.c 0x00000000   Number         0  utils.o ABSOLUTE
    ../Middlewares/Third_Party/LwIP/src/netif/ppp/vj.c 0x00000000   Number         0  vj.o ABSOLUTE
    ../Middlewares/Third_Party/LwIP/src/netif/slipif.c 0x00000000   Number         0  slipif.o ABSOLUTE
    ../Middlewares/Third_Party/LwIP/src/netif/zepif.c 0x00000000   Number         0  zepif.o ABSOLUTE
    ../clib/../cmprslib/zerorunl2.c          0x00000000   Number         0  __dczerorl2.o ABSOLUTE
    ../clib/microlib/ctype/ctype.c           0x00000000   Number         0  ispunct_o.o ABSOLUTE
    ../clib/microlib/ctype/ctype.c           0x00000000   Number         0  isprint_o.o ABSOLUTE
    ../clib/microlib/ctype/ctype.c           0x00000000   Number         0  isdigit_o.o ABSOLUTE
    ../clib/microlib/ctype/ctype.c           0x00000000   Number         0  isalpha_o.o ABSOLUTE
    ../clib/microlib/ctype/ctype.c           0x00000000   Number         0  isalnum_o.o ABSOLUTE
    ../clib/microlib/ctype/ctype.c           0x00000000   Number         0  ctype_o.o ABSOLUTE
    ../clib/microlib/ctype/ctype.c           0x00000000   Number         0  islower_o.o ABSOLUTE
    ../clib/microlib/ctype/ctype.c           0x00000000   Number         0  isgraph_o.o ABSOLUTE
    ../clib/microlib/ctype/ctype.c           0x00000000   Number         0  iscntrl_o.o ABSOLUTE
    ../clib/microlib/ctype/ctype.c           0x00000000   Number         0  isxdigit_o.o ABSOLUTE
    ../clib/microlib/ctype/ctype.c           0x00000000   Number         0  isupper_o.o ABSOLUTE
    ../clib/microlib/ctype/ctype.c           0x00000000   Number         0  isblank_o.o ABSOLUTE
    ../clib/microlib/ctype/ctype.c           0x00000000   Number         0  isspace_o.o ABSOLUTE
    ../clib/microlib/division.c              0x00000000   Number         0  uldiv.o ABSOLUTE
    ../clib/microlib/division.c              0x00000000   Number         0  uidiv.o ABSOLUTE
    ../clib/microlib/errno.c                 0x00000000   Number         0  errno.o ABSOLUTE
    ../clib/microlib/init/entry.s            0x00000000   Number         0  entry12b.o ABSOLUTE
    ../clib/microlib/init/entry.s            0x00000000   Number         0  entry2.o ABSOLUTE
    ../clib/microlib/init/entry.s            0x00000000   Number         0  entry.o ABSOLUTE
    ../clib/microlib/init/entry.s            0x00000000   Number         0  entry5.o ABSOLUTE
    ../clib/microlib/init/entry.s            0x00000000   Number         0  entry7a.o ABSOLUTE
    ../clib/microlib/init/entry.s            0x00000000   Number         0  entry7b.o ABSOLUTE
    ../clib/microlib/init/entry.s            0x00000000   Number         0  entry8a.o ABSOLUTE
    ../clib/microlib/init/entry.s            0x00000000   Number         0  entry8b.o ABSOLUTE
    ../clib/microlib/init/entry.s            0x00000000   Number         0  entry9a.o ABSOLUTE
    ../clib/microlib/init/entry.s            0x00000000   Number         0  entry9b.o ABSOLUTE
    ../clib/microlib/init/entry.s            0x00000000   Number         0  entry10a.o ABSOLUTE
    ../clib/microlib/init/entry.s            0x00000000   Number         0  entry10b.o ABSOLUTE
    ../clib/microlib/init/entry.s            0x00000000   Number         0  entry11a.o ABSOLUTE
    ../clib/microlib/init/entry.s            0x00000000   Number         0  entry11b.o ABSOLUTE
    ../clib/microlib/init/entry.s            0x00000000   Number         0  entry12a.o ABSOLUTE
    ../clib/microlib/longlong.c              0x00000000   Number         0  llsshr.o ABSOLUTE
    ../clib/microlib/longlong.c              0x00000000   Number         0  llushr.o ABSOLUTE
    ../clib/microlib/longlong.c              0x00000000   Number         0  llshl.o ABSOLUTE
    ../clib/microlib/printf/printf.c         0x00000000   Number         0  printf6.o ABSOLUTE
    ../clib/microlib/printf/printf.c         0x00000000   Number         0  printf5.o ABSOLUTE
    ../clib/microlib/printf/printf.c         0x00000000   Number         0  printf4.o ABSOLUTE
    ../clib/microlib/printf/printf.c         0x00000000   Number         0  printfa.o ABSOLUTE
    ../clib/microlib/printf/printf.c         0x00000000   Number         0  printf8.o ABSOLUTE
    ../clib/microlib/printf/printf.c         0x00000000   Number         0  printfb.o ABSOLUTE
    ../clib/microlib/printf/printf.c         0x00000000   Number         0  printf7.o ABSOLUTE
    ../clib/microlib/printf/printf.c         0x00000000   Number         0  printf0.o ABSOLUTE
    ../clib/microlib/printf/printf.c         0x00000000   Number         0  printf1.o ABSOLUTE
    ../clib/microlib/printf/printf.c         0x00000000   Number         0  printf2.o ABSOLUTE
    ../clib/microlib/printf/printf.c         0x00000000   Number         0  printf3.o ABSOLUTE
    ../clib/microlib/printf/stubs.s          0x00000000   Number         0  stubs.o ABSOLUTE
    ../clib/microlib/stdio/streams.c         0x00000000   Number         0  stdout.o ABSOLUTE
    ../clib/microlib/stdlib/rand.c           0x00000000   Number         0  rand.o ABSOLUTE
    ../clib/microlib/string/memcmp.c         0x00000000   Number         0  memcmp.o ABSOLUTE
    ../clib/microlib/string/memcpy.c         0x00000000   Number         0  memcpyb.o ABSOLUTE
    ../clib/microlib/string/memcpy.c         0x00000000   Number         0  memmoveb.o ABSOLUTE
    ../clib/microlib/string/memcpy.c         0x00000000   Number         0  memmovea.o ABSOLUTE
    ../clib/microlib/string/memcpy.c         0x00000000   Number         0  memcpya.o ABSOLUTE
    ../clib/microlib/string/memset.c         0x00000000   Number         0  memseta.o ABSOLUTE
    ../clib/microlib/string/strlen.c         0x00000000   Number         0  strlen.o ABSOLUTE
    ../clib/microlib/string/strncmp.c        0x00000000   Number         0  strncmp.o ABSOLUTE
    ../clib/microlib/stubs.s                 0x00000000   Number         0  iusefp.o ABSOLUTE
    ../clib/scanf.c                          0x00000000   Number         0  strtol.o ABSOLUTE
    ../clib/scanf.c                          0x00000000   Number         0  atoi.o ABSOLUTE
    ../clib/scanf.c                          0x00000000   Number         0  _chval.o ABSOLUTE
    ../clib/scanf.c                          0x00000000   Number         0  _strtoul.o ABSOLUTE
    ../fplib/microlib/fpadd.c                0x00000000   Number         0  dadd.o ABSOLUTE
    ../fplib/microlib/fpdiv.c                0x00000000   Number         0  ddiv.o ABSOLUTE
    ../fplib/microlib/fpepilogue.c           0x00000000   Number         0  depilogue.o ABSOLUTE
    ../fplib/microlib/fpfix.c                0x00000000   Number         0  dfixul.o ABSOLUTE
    ../fplib/microlib/fpmul.c                0x00000000   Number         0  dmul.o ABSOLUTE
    ..\Core\Src\gpio.c                       0x00000000   Number         0  gpio.o ABSOLUTE
    ..\Core\Src\main.c                       0x00000000   Number         0  main.o ABSOLUTE
    ..\Core\Src\stm32h7xx_hal_msp.c          0x00000000   Number         0  stm32h7xx_hal_msp.o ABSOLUTE
    ..\Core\Src\stm32h7xx_it.c               0x00000000   Number         0  stm32h7xx_it.o ABSOLUTE
    ..\Core\Src\system_stm32h7xx.c           0x00000000   Number         0  system_stm32h7xx.o ABSOLUTE
    ..\Core\Src\usart.c                      0x00000000   Number         0  usart.o ABSOLUTE
    ..\Drivers\STM32H7xx_HAL_Driver\Src\stm32h7xx_hal.c 0x00000000   Number         0  stm32h7xx_hal.o ABSOLUTE
    ..\Drivers\STM32H7xx_HAL_Driver\Src\stm32h7xx_hal_cortex.c 0x00000000   Number         0  stm32h7xx_hal_cortex.o ABSOLUTE
    ..\Drivers\STM32H7xx_HAL_Driver\Src\stm32h7xx_hal_dma.c 0x00000000   Number         0  stm32h7xx_hal_dma.o ABSOLUTE
    ..\Drivers\STM32H7xx_HAL_Driver\Src\stm32h7xx_hal_dma_ex.c 0x00000000   Number         0  stm32h7xx_hal_dma_ex.o ABSOLUTE
    ..\Drivers\STM32H7xx_HAL_Driver\Src\stm32h7xx_hal_eth.c 0x00000000   Number         0  stm32h7xx_hal_eth.o ABSOLUTE
    ..\Drivers\STM32H7xx_HAL_Driver\Src\stm32h7xx_hal_eth_ex.c 0x00000000   Number         0  stm32h7xx_hal_eth_ex.o ABSOLUTE
    ..\Drivers\STM32H7xx_HAL_Driver\Src\stm32h7xx_hal_exti.c 0x00000000   Number         0  stm32h7xx_hal_exti.o ABSOLUTE
    ..\Drivers\STM32H7xx_HAL_Driver\Src\stm32h7xx_hal_flash.c 0x00000000   Number         0  stm32h7xx_hal_flash.o ABSOLUTE
    ..\Drivers\STM32H7xx_HAL_Driver\Src\stm32h7xx_hal_flash_ex.c 0x00000000   Number         0  stm32h7xx_hal_flash_ex.o ABSOLUTE
    ..\Drivers\STM32H7xx_HAL_Driver\Src\stm32h7xx_hal_gpio.c 0x00000000   Number         0  stm32h7xx_hal_gpio.o ABSOLUTE
    ..\Drivers\STM32H7xx_HAL_Driver\Src\stm32h7xx_hal_hsem.c 0x00000000   Number         0  stm32h7xx_hal_hsem.o ABSOLUTE
    ..\Drivers\STM32H7xx_HAL_Driver\Src\stm32h7xx_hal_i2c.c 0x00000000   Number         0  stm32h7xx_hal_i2c.o ABSOLUTE
    ..\Drivers\STM32H7xx_HAL_Driver\Src\stm32h7xx_hal_i2c_ex.c 0x00000000   Number         0  stm32h7xx_hal_i2c_ex.o ABSOLUTE
    ..\Drivers\STM32H7xx_HAL_Driver\Src\stm32h7xx_hal_mdma.c 0x00000000   Number         0  stm32h7xx_hal_mdma.o ABSOLUTE
    ..\Drivers\STM32H7xx_HAL_Driver\Src\stm32h7xx_hal_pwr.c 0x00000000   Number         0  stm32h7xx_hal_pwr.o ABSOLUTE
    ..\Drivers\STM32H7xx_HAL_Driver\Src\stm32h7xx_hal_pwr_ex.c 0x00000000   Number         0  stm32h7xx_hal_pwr_ex.o ABSOLUTE
    ..\Drivers\STM32H7xx_HAL_Driver\Src\stm32h7xx_hal_rcc.c 0x00000000   Number         0  stm32h7xx_hal_rcc.o ABSOLUTE
    ..\Drivers\STM32H7xx_HAL_Driver\Src\stm32h7xx_hal_rcc_ex.c 0x00000000   Number         0  stm32h7xx_hal_rcc_ex.o ABSOLUTE
    ..\Drivers\STM32H7xx_HAL_Driver\Src\stm32h7xx_hal_tim.c 0x00000000   Number         0  stm32h7xx_hal_tim.o ABSOLUTE
    ..\Drivers\STM32H7xx_HAL_Driver\Src\stm32h7xx_hal_tim_ex.c 0x00000000   Number         0  stm32h7xx_hal_tim_ex.o ABSOLUTE
    ..\Drivers\STM32H7xx_HAL_Driver\Src\stm32h7xx_hal_uart.c 0x00000000   Number         0  stm32h7xx_hal_uart.o ABSOLUTE
    ..\Drivers\STM32H7xx_HAL_Driver\Src\stm32h7xx_hal_uart_ex.c 0x00000000   Number         0  stm32h7xx_hal_uart_ex.o ABSOLUTE
    ..\LWIP\App\TCPIP\fifoMem.c              0x00000000   Number         0  fifomem.o ABSOLUTE
    ..\LWIP\App\TCPIP\lwip_udp.c             0x00000000   Number         0  lwip_udp.o ABSOLUTE
    ..\LWIP\App\TCPIP\task_module.c          0x00000000   Number         0  task_module.o ABSOLUTE
    ..\LWIP\App\TCPIP\tcp_client.c           0x00000000   Number         0  tcp_client.o ABSOLUTE
    ..\LWIP\App\TCPIP\tcp_server.c           0x00000000   Number         0  tcp_server.o ABSOLUTE
    ..\LWIP\App\lwip.c                       0x00000000   Number         0  lwip.o ABSOLUTE
    ..\LWIP\Target\ethernetif.c              0x00000000   Number         0  ethernetif.o ABSOLUTE
    ..\Middlewares\Third_Party\LwIP\src\api\api_lib.c 0x00000000   Number         0  api_lib.o ABSOLUTE
    ..\Middlewares\Third_Party\LwIP\src\api\api_msg.c 0x00000000   Number         0  api_msg.o ABSOLUTE
    ..\Middlewares\Third_Party\LwIP\src\api\err.c 0x00000000   Number         0  err.o ABSOLUTE
    ..\Middlewares\Third_Party\LwIP\src\api\if_api.c 0x00000000   Number         0  if_api.o ABSOLUTE
    ..\Middlewares\Third_Party\LwIP\src\api\netbuf.c 0x00000000   Number         0  netbuf.o ABSOLUTE
    ..\Middlewares\Third_Party\LwIP\src\api\netdb.c 0x00000000   Number         0  netdb.o ABSOLUTE
    ..\Middlewares\Third_Party\LwIP\src\api\netifapi.c 0x00000000   Number         0  netifapi.o ABSOLUTE
    ..\Middlewares\Third_Party\LwIP\src\api\sockets.c 0x00000000   Number         0  sockets.o ABSOLUTE
    ..\Middlewares\Third_Party\LwIP\src\api\tcpip.c 0x00000000   Number         0  tcpip.o ABSOLUTE
    ..\Middlewares\Third_Party\LwIP\src\apps\mqtt\mqtt.c 0x00000000   Number         0  mqtt.o ABSOLUTE
    ..\Middlewares\Third_Party\LwIP\src\core\altcp.c 0x00000000   Number         0  altcp.o ABSOLUTE
    ..\Middlewares\Third_Party\LwIP\src\core\altcp_alloc.c 0x00000000   Number         0  altcp_alloc.o ABSOLUTE
    ..\Middlewares\Third_Party\LwIP\src\core\altcp_tcp.c 0x00000000   Number         0  altcp_tcp.o ABSOLUTE
    ..\Middlewares\Third_Party\LwIP\src\core\def.c 0x00000000   Number         0  def.o ABSOLUTE
    ..\Middlewares\Third_Party\LwIP\src\core\dns.c 0x00000000   Number         0  dns.o ABSOLUTE
    ..\Middlewares\Third_Party\LwIP\src\core\inet_chksum.c 0x00000000   Number         0  inet_chksum.o ABSOLUTE
    ..\Middlewares\Third_Party\LwIP\src\core\init.c 0x00000000   Number         0  init.o ABSOLUTE
    ..\Middlewares\Third_Party\LwIP\src\core\ip.c 0x00000000   Number         0  ip.o ABSOLUTE
    ..\Middlewares\Third_Party\LwIP\src\core\ipv4\autoip.c 0x00000000   Number         0  autoip.o ABSOLUTE
    ..\Middlewares\Third_Party\LwIP\src\core\ipv4\dhcp.c 0x00000000   Number         0  dhcp.o ABSOLUTE
    ..\Middlewares\Third_Party\LwIP\src\core\ipv4\etharp.c 0x00000000   Number         0  etharp.o ABSOLUTE
    ..\Middlewares\Third_Party\LwIP\src\core\ipv4\icmp.c 0x00000000   Number         0  icmp.o ABSOLUTE
    ..\Middlewares\Third_Party\LwIP\src\core\ipv4\igmp.c 0x00000000   Number         0  igmp.o ABSOLUTE
    ..\Middlewares\Third_Party\LwIP\src\core\ipv4\ip4.c 0x00000000   Number         0  ip4.o ABSOLUTE
    ..\Middlewares\Third_Party\LwIP\src\core\ipv4\ip4_addr.c 0x00000000   Number         0  ip4_addr.o ABSOLUTE
    ..\Middlewares\Third_Party\LwIP\src\core\ipv4\ip4_frag.c 0x00000000   Number         0  ip4_frag.o ABSOLUTE
    ..\Middlewares\Third_Party\LwIP\src\core\ipv6\dhcp6.c 0x00000000   Number         0  dhcp6.o ABSOLUTE
    ..\Middlewares\Third_Party\LwIP\src\core\ipv6\ethip6.c 0x00000000   Number         0  ethip6.o ABSOLUTE
    ..\Middlewares\Third_Party\LwIP\src\core\ipv6\icmp6.c 0x00000000   Number         0  icmp6.o ABSOLUTE
    ..\Middlewares\Third_Party\LwIP\src\core\ipv6\inet6.c 0x00000000   Number         0  inet6.o ABSOLUTE
    ..\Middlewares\Third_Party\LwIP\src\core\ipv6\ip6.c 0x00000000   Number         0  ip6.o ABSOLUTE
    ..\Middlewares\Third_Party\LwIP\src\core\ipv6\ip6_addr.c 0x00000000   Number         0  ip6_addr.o ABSOLUTE
    ..\Middlewares\Third_Party\LwIP\src\core\ipv6\ip6_frag.c 0x00000000   Number         0  ip6_frag.o ABSOLUTE
    ..\Middlewares\Third_Party\LwIP\src\core\ipv6\mld6.c 0x00000000   Number         0  mld6.o ABSOLUTE
    ..\Middlewares\Third_Party\LwIP\src\core\ipv6\nd6.c 0x00000000   Number         0  nd6.o ABSOLUTE
    ..\Middlewares\Third_Party\LwIP\src\core\mem.c 0x00000000   Number         0  mem.o ABSOLUTE
    ..\Middlewares\Third_Party\LwIP\src\core\memp.c 0x00000000   Number         0  memp.o ABSOLUTE
    ..\Middlewares\Third_Party\LwIP\src\core\netif.c 0x00000000   Number         0  netif.o ABSOLUTE
    ..\Middlewares\Third_Party\LwIP\src\core\pbuf.c 0x00000000   Number         0  pbuf.o ABSOLUTE
    ..\Middlewares\Third_Party\LwIP\src\core\raw.c 0x00000000   Number         0  raw.o ABSOLUTE
    ..\Middlewares\Third_Party\LwIP\src\core\stats.c 0x00000000   Number         0  stats.o ABSOLUTE
    ..\Middlewares\Third_Party\LwIP\src\core\sys.c 0x00000000   Number         0  sys_1.o ABSOLUTE
    ..\Middlewares\Third_Party\LwIP\src\core\tcp.c 0x00000000   Number         0  tcp.o ABSOLUTE
    ..\Middlewares\Third_Party\LwIP\src\core\tcp_in.c 0x00000000   Number         0  tcp_in.o ABSOLUTE
    ..\Middlewares\Third_Party\LwIP\src\core\tcp_out.c 0x00000000   Number         0  tcp_out.o ABSOLUTE
    ..\Middlewares\Third_Party\LwIP\src\core\timeouts.c 0x00000000   Number         0  timeouts.o ABSOLUTE
    ..\Middlewares\Third_Party\LwIP\src\core\udp.c 0x00000000   Number         0  udp.o ABSOLUTE
    ..\Middlewares\Third_Party\LwIP\src\netif\bridgeif.c 0x00000000   Number         0  bridgeif.o ABSOLUTE
    ..\Middlewares\Third_Party\LwIP\src\netif\bridgeif_fdb.c 0x00000000   Number         0  bridgeif_fdb.o ABSOLUTE
    ..\Middlewares\Third_Party\LwIP\src\netif\ethernet.c 0x00000000   Number         0  ethernet.o ABSOLUTE
    ..\Middlewares\Third_Party\LwIP\src\netif\lowpan6.c 0x00000000   Number         0  lowpan6.o ABSOLUTE
    ..\Middlewares\Third_Party\LwIP\src\netif\lowpan6_ble.c 0x00000000   Number         0  lowpan6_ble.o ABSOLUTE
    ..\Middlewares\Third_Party\LwIP\src\netif\lowpan6_common.c 0x00000000   Number         0  lowpan6_common.o ABSOLUTE
    ..\Middlewares\Third_Party\LwIP\src\netif\ppp\auth.c 0x00000000   Number         0  auth.o ABSOLUTE
    ..\Middlewares\Third_Party\LwIP\src\netif\ppp\ccp.c 0x00000000   Number         0  ccp.o ABSOLUTE
    ..\Middlewares\Third_Party\LwIP\src\netif\ppp\chap-md5.c 0x00000000   Number         0  chap-md5.o ABSOLUTE
    ..\Middlewares\Third_Party\LwIP\src\netif\ppp\chap-new.c 0x00000000   Number         0  chap-new.o ABSOLUTE
    ..\Middlewares\Third_Party\LwIP\src\netif\ppp\chap_ms.c 0x00000000   Number         0  chap_ms.o ABSOLUTE
    ..\Middlewares\Third_Party\LwIP\src\netif\ppp\demand.c 0x00000000   Number         0  demand.o ABSOLUTE
    ..\Middlewares\Third_Party\LwIP\src\netif\ppp\eap.c 0x00000000   Number         0  eap.o ABSOLUTE
    ..\Middlewares\Third_Party\LwIP\src\netif\ppp\ecp.c 0x00000000   Number         0  ecp.o ABSOLUTE
    ..\Middlewares\Third_Party\LwIP\src\netif\ppp\eui64.c 0x00000000   Number         0  eui64.o ABSOLUTE
    ..\Middlewares\Third_Party\LwIP\src\netif\ppp\fsm.c 0x00000000   Number         0  fsm.o ABSOLUTE
    ..\Middlewares\Third_Party\LwIP\src\netif\ppp\ipcp.c 0x00000000   Number         0  ipcp.o ABSOLUTE
    ..\Middlewares\Third_Party\LwIP\src\netif\ppp\ipv6cp.c 0x00000000   Number         0  ipv6cp.o ABSOLUTE
    ..\Middlewares\Third_Party\LwIP\src\netif\ppp\lcp.c 0x00000000   Number         0  lcp.o ABSOLUTE
    ..\Middlewares\Third_Party\LwIP\src\netif\ppp\magic.c 0x00000000   Number         0  magic.o ABSOLUTE
    ..\Middlewares\Third_Party\LwIP\src\netif\ppp\mppe.c 0x00000000   Number         0  mppe.o ABSOLUTE
    ..\Middlewares\Third_Party\LwIP\src\netif\ppp\multilink.c 0x00000000   Number         0  multilink.o ABSOLUTE
    ..\Middlewares\Third_Party\LwIP\src\netif\ppp\ppp.c 0x00000000   Number         0  ppp.o ABSOLUTE
    ..\Middlewares\Third_Party\LwIP\src\netif\ppp\pppapi.c 0x00000000   Number         0  pppapi.o ABSOLUTE
    ..\Middlewares\Third_Party\LwIP\src\netif\ppp\pppcrypt.c 0x00000000   Number         0  pppcrypt.o ABSOLUTE
    ..\Middlewares\Third_Party\LwIP\src\netif\ppp\pppoe.c 0x00000000   Number         0  pppoe.o ABSOLUTE
    ..\Middlewares\Third_Party\LwIP\src\netif\ppp\pppol2tp.c 0x00000000   Number         0  pppol2tp.o ABSOLUTE
    ..\Middlewares\Third_Party\LwIP\src\netif\ppp\pppos.c 0x00000000   Number         0  pppos.o ABSOLUTE
    ..\Middlewares\Third_Party\LwIP\src\netif\ppp\upap.c 0x00000000   Number         0  upap.o ABSOLUTE
    ..\Middlewares\Third_Party\LwIP\src\netif\ppp\utils.c 0x00000000   Number         0  utils.o ABSOLUTE
    ..\Middlewares\Third_Party\LwIP\src\netif\ppp\vj.c 0x00000000   Number         0  vj.o ABSOLUTE
    ..\Middlewares\Third_Party\LwIP\src\netif\slipif.c 0x00000000   Number         0  slipif.o ABSOLUTE
    ..\Middlewares\Third_Party\LwIP\src\netif\zepif.c 0x00000000   Number         0  zepif.o ABSOLUTE
    ..\\LWIP\\App\\TCPIP\\fifoMem.c          0x00000000   Number         0  fifomem.o ABSOLUTE
    ..\\LWIP\\App\\TCPIP\\lwip_udp.c         0x00000000   Number         0  lwip_udp.o ABSOLUTE
    ..\\LWIP\\App\\TCPIP\\tcp_client.c       0x00000000   Number         0  tcp_client.o ABSOLUTE
    ..\\LWIP\\App\\TCPIP\\tcp_server.c       0x00000000   Number         0  tcp_server.o ABSOLUTE
    cdrcmple.s                               0x00000000   Number         0  cdrcmple.o ABSOLUTE
    dc.s                                     0x00000000   Number         0  dc.o ABSOLUTE
    handlers.s                               0x00000000   Number         0  handlers.o ABSOLUTE
    init.s                                   0x00000000   Number         0  init.o ABSOLUTE
    startup_stm32h743xx.s                    0x00000000   Number         0  startup_stm32h743xx.o ABSOLUTE
    RESET                                    0x08000000   Section      664  startup_stm32h743xx.o(RESET)
    .ARM.Collect$$$$00000000                 0x08000298   Section        0  entry.o(.ARM.Collect$$$$00000000)
    .ARM.Collect$$$$00000001                 0x08000298   Section        4  entry2.o(.ARM.Collect$$$$00000001)
    .ARM.Collect$$$$00000004                 0x0800029c   Section        4  entry5.o(.ARM.Collect$$$$00000004)
    .ARM.Collect$$$$00000008                 0x080002a0   Section        0  entry7b.o(.ARM.Collect$$$$00000008)
    .ARM.Collect$$$$0000000A                 0x080002a0   Section        0  entry8b.o(.ARM.Collect$$$$0000000A)
    .ARM.Collect$$$$0000000B                 0x080002a0   Section        8  entry9a.o(.ARM.Collect$$$$0000000B)
    .ARM.Collect$$$$0000000E                 0x080002a8   Section        4  entry12b.o(.ARM.Collect$$$$0000000E)
    .ARM.Collect$$$$0000000F                 0x080002ac   Section        0  entry10a.o(.ARM.Collect$$$$0000000F)
    .ARM.Collect$$$$00000011                 0x080002ac   Section        0  entry11a.o(.ARM.Collect$$$$00000011)
    .ARM.Collect$$$$00002712                 0x080002ac   Section        4  entry2.o(.ARM.Collect$$$$00002712)
    __lit__00000000                          0x080002ac   Data           4  entry2.o(.ARM.Collect$$$$00002712)
    .text                                    0x080002b0   Section       36  startup_stm32h743xx.o(.text)
    $v0                                      0x080002b0   Number         0  startup_stm32h743xx.o(.text)
    .text                                    0x080002d4   Section        0  uldiv.o(.text)
    .text                                    0x08000338   Section        0  rand.o(.text)
    .text                                    0x0800035c   Section        0  memmovea.o(.text)
    .text                                    0x0800039c   Section        0  memseta.o(.text)
    .text                                    0x080003c0   Section        0  strlen.o(.text)
    .text                                    0x080003ce   Section        0  memcmp.o(.text)
    .text                                    0x080003e8   Section        0  uidiv.o(.text)
    .text                                    0x08000414   Section        0  llshl.o(.text)
    .text                                    0x08000432   Section        0  llushr.o(.text)
    .text                                    0x08000454   Section       36  init.o(.text)
    .text                                    0x08000478   Section        0  __dczerorl2.o(.text)
    i.BusFault_Handler                       0x080004ce   Section        0  stm32h7xx_it.o(i.BusFault_Handler)
    i.DebugMon_Handler                       0x080004d2   Section        0  stm32h7xx_it.o(i.DebugMon_Handler)
    i.ETH_DMARxDescListInit                  0x080004d4   Section        0  stm32h7xx_hal_eth.o(i.ETH_DMARxDescListInit)
    ETH_DMARxDescListInit                    0x080004d5   Thumb Code    96  stm32h7xx_hal_eth.o(i.ETH_DMARxDescListInit)
    i.ETH_DMATxDescListInit                  0x08000534   Section        0  stm32h7xx_hal_eth.o(i.ETH_DMATxDescListInit)
    ETH_DMATxDescListInit                    0x08000535   Thumb Code    82  stm32h7xx_hal_eth.o(i.ETH_DMATxDescListInit)
    i.ETH_IRQHandler                         0x08000588   Section        0  lwip.o(i.ETH_IRQHandler)
    i.ETH_MACDMAConfig                       0x080005ac   Section        0  stm32h7xx_hal_eth.o(i.ETH_MACDMAConfig)
    ETH_MACDMAConfig                         0x080005ad   Thumb Code   262  stm32h7xx_hal_eth.o(i.ETH_MACDMAConfig)
    i.ETH_PHY_IO_DeInit                      0x080006b2   Section        0  ethernetif.o(i.ETH_PHY_IO_DeInit)
    i.ETH_PHY_IO_GetTick                     0x080006b6   Section        0  ethernetif.o(i.ETH_PHY_IO_GetTick)
    i.ETH_PHY_IO_Init                        0x080006c0   Section        0  ethernetif.o(i.ETH_PHY_IO_Init)
    i.ETH_PHY_IO_ReadReg                     0x080006d0   Section        0  ethernetif.o(i.ETH_PHY_IO_ReadReg)
    i.ETH_PHY_IO_WriteReg                    0x080006f4   Section        0  ethernetif.o(i.ETH_PHY_IO_WriteReg)
    i.ETH_Prepare_Tx_Descriptors             0x08000718   Section        0  stm32h7xx_hal_eth.o(i.ETH_Prepare_Tx_Descriptors)
    ETH_Prepare_Tx_Descriptors               0x08000719   Thumb Code   972  stm32h7xx_hal_eth.o(i.ETH_Prepare_Tx_Descriptors)
    i.ETH_SetDMAConfig                       0x08000ae8   Section        0  stm32h7xx_hal_eth.o(i.ETH_SetDMAConfig)
    ETH_SetDMAConfig                         0x08000ae9   Thumb Code   176  stm32h7xx_hal_eth.o(i.ETH_SetDMAConfig)
    i.ETH_SetMACConfig                       0x08000ba4   Section        0  stm32h7xx_hal_eth.o(i.ETH_SetMACConfig)
    ETH_SetMACConfig                         0x08000ba5   Thumb Code   394  stm32h7xx_hal_eth.o(i.ETH_SetMACConfig)
    i.ETH_UpdateDescriptor                   0x08000d38   Section        0  stm32h7xx_hal_eth.o(i.ETH_UpdateDescriptor)
    ETH_UpdateDescriptor                     0x08000d39   Thumb Code   152  stm32h7xx_hal_eth.o(i.ETH_UpdateDescriptor)
    i.ETH_WKUP_IRQHandler                    0x08000dd0   Section        0  stm32h7xx_it.o(i.ETH_WKUP_IRQHandler)
    i.Error_Handler                          0x08000de0   Section        0  main.o(i.Error_Handler)
    i.Ethernet_Link_Periodic_Handle          0x08000de8   Section        0  lwip.o(i.Ethernet_Link_Periodic_Handle)
    Ethernet_Link_Periodic_Handle            0x08000de9   Thumb Code    34  lwip.o(i.Ethernet_Link_Periodic_Handle)
    i.HAL_DMA_Abort                          0x08000e10   Section        0  stm32h7xx_hal_dma.o(i.HAL_DMA_Abort)
    i.HAL_DMA_Abort_IT                       0x080012ec   Section        0  stm32h7xx_hal_dma.o(i.HAL_DMA_Abort_IT)
    i.HAL_ETH_EEECallback                    0x08001684   Section        0  stm32h7xx_hal_eth.o(i.HAL_ETH_EEECallback)
    i.HAL_ETH_ErrorCallback                  0x08001686   Section        0  stm32h7xx_hal_eth.o(i.HAL_ETH_ErrorCallback)
    i.HAL_ETH_GetMACConfig                   0x08001688   Section        0  stm32h7xx_hal_eth.o(i.HAL_ETH_GetMACConfig)
    i.HAL_ETH_IRQHandler                     0x08001860   Section        0  stm32h7xx_hal_eth.o(i.HAL_ETH_IRQHandler)
    i.HAL_ETH_Init                           0x08001a20   Section        0  stm32h7xx_hal_eth.o(i.HAL_ETH_Init)
    i.HAL_ETH_MspInit                        0x08001b88   Section        0  ethernetif.o(i.HAL_ETH_MspInit)
    i.HAL_ETH_PMTCallback                    0x08001db0   Section        0  stm32h7xx_hal_eth.o(i.HAL_ETH_PMTCallback)
    i.HAL_ETH_ReadData                       0x08001db2   Section        0  stm32h7xx_hal_eth.o(i.HAL_ETH_ReadData)
    i.HAL_ETH_ReadPHYRegister                0x08001eb2   Section        0  stm32h7xx_hal_eth.o(i.HAL_ETH_ReadPHYRegister)
    i.HAL_ETH_RxAllocateCallback             0x08001f2c   Section        0  ethernetif.o(i.HAL_ETH_RxAllocateCallback)
    i.HAL_ETH_RxCpltCallback                 0x08001f74   Section        0  stm32h7xx_hal_eth.o(i.HAL_ETH_RxCpltCallback)
    i.HAL_ETH_RxLinkCallback                 0x08001f78   Section        0  ethernetif.o(i.HAL_ETH_RxLinkCallback)
    i.HAL_ETH_SetMACConfig                   0x0800201c   Section        0  stm32h7xx_hal_eth.o(i.HAL_ETH_SetMACConfig)
    i.HAL_ETH_SetMDIOClockRange              0x08002040   Section        0  stm32h7xx_hal_eth.o(i.HAL_ETH_SetMDIOClockRange)
    i.HAL_ETH_Start_IT                       0x080020b8   Section        0  stm32h7xx_hal_eth.o(i.HAL_ETH_Start_IT)
    i.HAL_ETH_Stop                           0x08002198   Section        0  stm32h7xx_hal_eth.o(i.HAL_ETH_Stop)
    i.HAL_ETH_Transmit                       0x0800220c   Section        0  stm32h7xx_hal_eth.o(i.HAL_ETH_Transmit)
    i.HAL_ETH_TxCpltCallback                 0x08002302   Section        0  stm32h7xx_hal_eth.o(i.HAL_ETH_TxCpltCallback)
    i.HAL_ETH_WakeUpCallback                 0x08002304   Section        0  stm32h7xx_hal_eth.o(i.HAL_ETH_WakeUpCallback)
    i.HAL_ETH_WritePHYRegister               0x08002308   Section        0  stm32h7xx_hal_eth.o(i.HAL_ETH_WritePHYRegister)
    i.HAL_GPIO_Init                          0x08002388   Section        0  stm32h7xx_hal_gpio.o(i.HAL_GPIO_Init)
    i.HAL_GPIO_WritePin                      0x08002584   Section        0  stm32h7xx_hal_gpio.o(i.HAL_GPIO_WritePin)
    i.HAL_GetREVID                           0x08002590   Section        0  stm32h7xx_hal.o(i.HAL_GetREVID)
    i.HAL_GetTick                            0x0800259c   Section        0  stm32h7xx_hal.o(i.HAL_GetTick)
    i.HAL_IncTick                            0x080025a8   Section        0  stm32h7xx_hal.o(i.HAL_IncTick)
    i.HAL_Init                               0x080025c0   Section        0  stm32h7xx_hal.o(i.HAL_Init)
    i.HAL_InitTick                           0x08002620   Section        0  stm32h7xx_hal.o(i.HAL_InitTick)
    i.HAL_MPU_ConfigRegion                   0x08002678   Section        0  stm32h7xx_hal_cortex.o(i.HAL_MPU_ConfigRegion)
    i.HAL_MPU_Disable                        0x080026d4   Section        0  stm32h7xx_hal_cortex.o(i.HAL_MPU_Disable)
    i.HAL_MPU_Enable                         0x08002700   Section        0  stm32h7xx_hal_cortex.o(i.HAL_MPU_Enable)
    i.HAL_MspInit                            0x08002740   Section        0  stm32h7xx_hal_msp.o(i.HAL_MspInit)
    i.HAL_NVIC_EnableIRQ                     0x08002764   Section        0  stm32h7xx_hal_cortex.o(i.HAL_NVIC_EnableIRQ)
    i.HAL_NVIC_SetPriority                   0x0800278c   Section        0  stm32h7xx_hal_cortex.o(i.HAL_NVIC_SetPriority)
    i.HAL_NVIC_SetPriorityGrouping           0x08002808   Section        0  stm32h7xx_hal_cortex.o(i.HAL_NVIC_SetPriorityGrouping)
    i.HAL_PWREx_ConfigSupply                 0x08002830   Section        0  stm32h7xx_hal_pwr_ex.o(i.HAL_PWREx_ConfigSupply)
    i.HAL_RCCEx_GetD3PCLK1Freq               0x08002890   Section        0  stm32h7xx_hal_rcc_ex.o(i.HAL_RCCEx_GetD3PCLK1Freq)
    i.HAL_RCCEx_GetPLL2ClockFreq             0x080028b4   Section        0  stm32h7xx_hal_rcc_ex.o(i.HAL_RCCEx_GetPLL2ClockFreq)
    i.HAL_RCCEx_GetPLL3ClockFreq             0x08002ae4   Section        0  stm32h7xx_hal_rcc_ex.o(i.HAL_RCCEx_GetPLL3ClockFreq)
    i.HAL_RCCEx_PeriphCLKConfig              0x08002d14   Section        0  stm32h7xx_hal_rcc_ex.o(i.HAL_RCCEx_PeriphCLKConfig)
    i.HAL_RCC_ClockConfig                    0x08003a7c   Section        0  stm32h7xx_hal_rcc.o(i.HAL_RCC_ClockConfig)
    i.HAL_RCC_GetHCLKFreq                    0x08003d9c   Section        0  stm32h7xx_hal_rcc.o(i.HAL_RCC_GetHCLKFreq)
    i.HAL_RCC_GetPCLK1Freq                   0x08003de8   Section        0  stm32h7xx_hal_rcc.o(i.HAL_RCC_GetPCLK1Freq)
    i.HAL_RCC_GetPCLK2Freq                   0x08003e0c   Section        0  stm32h7xx_hal_rcc.o(i.HAL_RCC_GetPCLK2Freq)
    i.HAL_RCC_GetSysClockFreq                0x08003e30   Section        0  stm32h7xx_hal_rcc.o(i.HAL_RCC_GetSysClockFreq)
    i.HAL_RCC_OscConfig                      0x0800405c   Section        0  stm32h7xx_hal_rcc.o(i.HAL_RCC_OscConfig)
    i.HAL_SYSCFG_ETHInterfaceSelect          0x080048b4   Section        0  stm32h7xx_hal.o(i.HAL_SYSCFG_ETHInterfaceSelect)
    i.HAL_SYSTICK_Config                     0x080048c8   Section        0  stm32h7xx_hal_cortex.o(i.HAL_SYSTICK_Config)
    i.HAL_UARTEx_DisableFifoMode             0x080048fc   Section        0  stm32h7xx_hal_uart_ex.o(i.HAL_UARTEx_DisableFifoMode)
    i.HAL_UARTEx_RxEventCallback             0x0800494a   Section        0  stm32h7xx_hal_uart.o(i.HAL_UARTEx_RxEventCallback)
    i.HAL_UARTEx_RxFifoFullCallback          0x0800494c   Section        0  stm32h7xx_hal_uart_ex.o(i.HAL_UARTEx_RxFifoFullCallback)
    i.HAL_UARTEx_SetRxFifoThreshold          0x0800494e   Section        0  stm32h7xx_hal_uart_ex.o(i.HAL_UARTEx_SetRxFifoThreshold)
    i.HAL_UARTEx_SetTxFifoThreshold          0x080049ac   Section        0  stm32h7xx_hal_uart_ex.o(i.HAL_UARTEx_SetTxFifoThreshold)
    i.HAL_UARTEx_TxFifoEmptyCallback         0x08004a0a   Section        0  stm32h7xx_hal_uart_ex.o(i.HAL_UARTEx_TxFifoEmptyCallback)
    i.HAL_UARTEx_WakeupCallback              0x08004a0c   Section        0  stm32h7xx_hal_uart_ex.o(i.HAL_UARTEx_WakeupCallback)
    i.HAL_UART_ErrorCallback                 0x08004a0e   Section        0  stm32h7xx_hal_uart.o(i.HAL_UART_ErrorCallback)
    i.HAL_UART_IRQHandler                    0x08004a10   Section        0  stm32h7xx_hal_uart.o(i.HAL_UART_IRQHandler)
    i.HAL_UART_Init                          0x08004ea4   Section        0  stm32h7xx_hal_uart.o(i.HAL_UART_Init)
    i.HAL_UART_MspInit                       0x08004f1c   Section        0  usart.o(i.HAL_UART_MspInit)
    i.HAL_UART_TxCpltCallback                0x08004fe0   Section        0  stm32h7xx_hal_uart.o(i.HAL_UART_TxCpltCallback)
    i.HardFault_Handler                      0x08004fe2   Section        0  stm32h7xx_it.o(i.HardFault_Handler)
    i.LAN8742_GetLinkState                   0x08004fe6   Section        0  lan8742.o(i.LAN8742_GetLinkState)
    i.LAN8742_Init                           0x080050ce   Section        0  lan8742.o(i.LAN8742_Init)
    i.LAN8742_RegisterBusIO                  0x080051cc   Section        0  lan8742.o(i.LAN8742_RegisterBusIO)
    i.MPU_Config                             0x080051fc   Section        0  main.o(i.MPU_Config)
    MPU_Config                               0x080051fd   Thumb Code    90  main.o(i.MPU_Config)
    i.MX_GPIO_Init                           0x0800525c   Section        0  gpio.o(i.MX_GPIO_Init)
    i.MX_LWIP_Init                           0x08005380   Section        0  lwip.o(i.MX_LWIP_Init)
    i.MX_LWIP_Process                        0x080055c0   Section        0  lwip.o(i.MX_LWIP_Process)
    i.MX_USART1_UART_Init                    0x080055d4   Section        0  usart.o(i.MX_USART1_UART_Init)
    i.MemManage_Handler                      0x08005640   Section        0  stm32h7xx_it.o(i.MemManage_Handler)
    i.NMI_Handler                            0x08005644   Section        0  stm32h7xx_it.o(i.NMI_Handler)
    i.PendSV_Handler                         0x08005648   Section        0  stm32h7xx_it.o(i.PendSV_Handler)
    i.RCCEx_PLL2_Config                      0x0800564c   Section        0  stm32h7xx_hal_rcc_ex.o(i.RCCEx_PLL2_Config)
    RCCEx_PLL2_Config                        0x0800564d   Thumb Code   350  stm32h7xx_hal_rcc_ex.o(i.RCCEx_PLL2_Config)
    i.RCCEx_PLL3_Config                      0x080057b0   Section        0  stm32h7xx_hal_rcc_ex.o(i.RCCEx_PLL3_Config)
    RCCEx_PLL3_Config                        0x080057b1   Thumb Code   350  stm32h7xx_hal_rcc_ex.o(i.RCCEx_PLL3_Config)
    i.SVC_Handler                            0x08005914   Section        0  stm32h7xx_it.o(i.SVC_Handler)
    i.SysTick_Handler                        0x08005916   Section        0  stm32h7xx_it.o(i.SysTick_Handler)
    i.SystemClock_Config                     0x08005920   Section        0  main.o(i.SystemClock_Config)
    i.SystemInit                             0x08005a5c   Section        0  system_stm32h7xx.o(i.SystemInit)
    i.TCP_Client_Init                        0x08005b58   Section        0  tcp_client.o(i.TCP_Client_Init)
    i.TCP_Client_Task                        0x08005bfc   Section        0  tcp_client.o(i.TCP_Client_Task)
    i.TCP_Server_Init                        0x08005c28   Section        0  tcp_server.o(i.TCP_Server_Init)
    i.UARTEx_SetNbDataToProcess              0x08005cd4   Section        0  stm32h7xx_hal_uart_ex.o(i.UARTEx_SetNbDataToProcess)
    UARTEx_SetNbDataToProcess                0x08005cd5   Thumb Code    78  stm32h7xx_hal_uart_ex.o(i.UARTEx_SetNbDataToProcess)
    i.UART_AdvFeatureConfig                  0x08005d2c   Section        0  stm32h7xx_hal_uart.o(i.UART_AdvFeatureConfig)
    i.UART_CheckIdleState                    0x08005e24   Section        0  stm32h7xx_hal_uart.o(i.UART_CheckIdleState)
    i.UART_DMAAbortOnError                   0x08005f0e   Section        0  stm32h7xx_hal_uart.o(i.UART_DMAAbortOnError)
    UART_DMAAbortOnError                     0x08005f0f   Thumb Code    24  stm32h7xx_hal_uart.o(i.UART_DMAAbortOnError)
    i.UART_EndRxTransfer                     0x08005f28   Section        0  stm32h7xx_hal_uart.o(i.UART_EndRxTransfer)
    UART_EndRxTransfer                       0x08005f29   Thumb Code   104  stm32h7xx_hal_uart.o(i.UART_EndRxTransfer)
    i.UART_EndTransmit_IT                    0x08005f94   Section        0  stm32h7xx_hal_uart.o(i.UART_EndTransmit_IT)
    UART_EndTransmit_IT                      0x08005f95   Thumb Code    48  stm32h7xx_hal_uart.o(i.UART_EndTransmit_IT)
    i.UART_SetConfig                         0x08005fc4   Section        0  stm32h7xx_hal_uart.o(i.UART_SetConfig)
    i.UART_WaitOnFlagUntilTimeout            0x08006550   Section        0  stm32h7xx_hal_uart.o(i.UART_WaitOnFlagUntilTimeout)
    i.USART1_IRQHandler                      0x080065f4   Section        0  stm32h7xx_it.o(i.USART1_IRQHandler)
    i.Udp_Lwip_Init                          0x08006604   Section        0  lwip_udp.o(i.Udp_Lwip_Init)
    i.UsageFault_Handler                     0x0800667c   Section        0  stm32h7xx_it.o(i.UsageFault_Handler)
    i.__0printf$3                            0x08006680   Section        0  printf3.o(i.__0printf$3)
    i.__NVIC_GetPriorityGrouping             0x080066a0   Section        0  stm32h7xx_hal_cortex.o(i.__NVIC_GetPriorityGrouping)
    __NVIC_GetPriorityGrouping               0x080066a1   Thumb Code    10  stm32h7xx_hal_cortex.o(i.__NVIC_GetPriorityGrouping)
    i.__NVIC_SetPriority                     0x080066b0   Section        0  stm32h7xx_hal_cortex.o(i.__NVIC_SetPriority)
    __NVIC_SetPriority                       0x080066b1   Thumb Code    32  stm32h7xx_hal_cortex.o(i.__NVIC_SetPriority)
    i.__scatterload_copy                     0x080066d8   Section       14  handlers.o(i.__scatterload_copy)
    i.__scatterload_null                     0x080066e6   Section        2  handlers.o(i.__scatterload_null)
    i.__scatterload_zeroinit                 0x080066e8   Section       14  handlers.o(i.__scatterload_zeroinit)
    i._printf_core                           0x080066f8   Section        0  printf3.o(i._printf_core)
    _printf_core                             0x080066f9   Thumb Code   436  printf3.o(i._printf_core)
    i.client_connected                       0x080068b0   Section        0  tcp_client.o(i.client_connected)
    client_connected                         0x080068b1   Thumb Code    68  tcp_client.o(i.client_connected)
    i.client_polling_cbk                     0x0800691c   Section        0  tcp_client.o(i.client_polling_cbk)
    client_polling_cbk                       0x0800691d   Thumb Code    68  tcp_client.o(i.client_polling_cbk)
    i.client_set_remote_ip                   0x08006968   Section        0  tcp_client.o(i.client_set_remote_ip)
    i.do_memp_free_pool                      0x08006a80   Section        0  memp.o(i.do_memp_free_pool)
    do_memp_free_pool                        0x08006a81   Thumb Code    50  memp.o(i.do_memp_free_pool)
    i.do_memp_malloc_pool                    0x08006b2c   Section        0  memp.o(i.do_memp_malloc_pool)
    do_memp_malloc_pool                      0x08006b2d   Thumb Code    56  memp.o(i.do_memp_malloc_pool)
    i.etharp_cleanup_netif                   0x08006be0   Section        0  etharp.o(i.etharp_cleanup_netif)
    i.etharp_find_entry                      0x08006c18   Section        0  etharp.o(i.etharp_find_entry)
    etharp_find_entry                        0x08006c19   Thumb Code   514  etharp.o(i.etharp_find_entry)
    i.etharp_free_entry                      0x08006f18   Section        0  etharp.o(i.etharp_free_entry)
    etharp_free_entry                        0x08006f19   Thumb Code    58  etharp.o(i.etharp_free_entry)
    i.etharp_input                           0x08006f58   Section        0  etharp.o(i.etharp_input)
    i.etharp_output                          0x08007094   Section        0  etharp.o(i.etharp_output)
    i.etharp_output_to_arp_index             0x080072b8   Section        0  etharp.o(i.etharp_output_to_arp_index)
    etharp_output_to_arp_index               0x080072b9   Thumb Code   212  etharp.o(i.etharp_output_to_arp_index)
    i.etharp_query                           0x08007420   Section        0  etharp.o(i.etharp_query)
    i.etharp_raw                             0x080076c4   Section        0  etharp.o(i.etharp_raw)
    etharp_raw                               0x080076c5   Thumb Code   226  etharp.o(i.etharp_raw)
    i.etharp_request                         0x08007850   Section        0  etharp.o(i.etharp_request)
    i.etharp_request_dst                     0x08007868   Section        0  etharp.o(i.etharp_request_dst)
    etharp_request_dst                       0x08007869   Thumb Code    38  etharp.o(i.etharp_request_dst)
    i.etharp_tmr                             0x08007894   Section        0  etharp.o(i.etharp_tmr)
    i.etharp_update_arp_entry                0x08007970   Section        0  etharp.o(i.etharp_update_arp_entry)
    etharp_update_arp_entry                  0x08007971   Thumb Code   212  etharp.o(i.etharp_update_arp_entry)
    i.ethernet_input                         0x08007acc   Section        0  ethernet.o(i.ethernet_input)
    i.ethernet_link_check_state              0x08007b90   Section        0  ethernetif.o(i.ethernet_link_check_state)
    i.ethernet_link_status_updated           0x08007c5c   Section        0  lwip.o(i.ethernet_link_status_updated)
    ethernet_link_status_updated             0x08007c5d   Thumb Code    30  lwip.o(i.ethernet_link_status_updated)
    i.ethernet_output                        0x08007cbc   Section        0  ethernet.o(i.ethernet_output)
    i.ethernetif_init                        0x08007dc0   Section        0  ethernetif.o(i.ethernetif_init)
    i.ethernetif_input                       0x08007e58   Section        0  ethernetif.o(i.ethernetif_input)
    i.fputc                                  0x08007ebc   Section        0  main.o(i.fputc)
    i.icmp_dest_unreach                      0x08007ed8   Section        0  icmp.o(i.icmp_dest_unreach)
    i.icmp_input                             0x08007eec   Section        0  icmp.o(i.icmp_input)
    i.icmp_send_response                     0x08008190   Section        0  icmp.o(i.icmp_send_response)
    icmp_send_response                       0x08008191   Thumb Code   152  icmp.o(i.icmp_send_response)
    i.icmp_time_exceeded                     0x080082b4   Section        0  icmp.o(i.icmp_time_exceeded)
    i.inet_chksum                            0x080082c6   Section        0  inet_chksum.o(i.inet_chksum)
    i.inet_chksum_pbuf                       0x080082da   Section        0  inet_chksum.o(i.inet_chksum_pbuf)
    i.ip4_addr_isbroadcast_u32               0x08008330   Section        0  ip4_addr.o(i.ip4_addr_isbroadcast_u32)
    i.ip4_frag                               0x08008380   Section        0  ip4_frag.o(i.ip4_frag)
    i.ip4_input                              0x0800864c   Section        0  ip4.o(i.ip4_input)
    i.ip4_input_accept                       0x080087e8   Section        0  ip4.o(i.ip4_input_accept)
    ip4_input_accept                         0x080087e9   Thumb Code    48  ip4.o(i.ip4_input_accept)
    i.ip4_output_if                          0x0800881c   Section        0  ip4.o(i.ip4_output_if)
    i.ip4_output_if_src                      0x08008854   Section        0  ip4.o(i.ip4_output_if_src)
    i.ip4_reass                              0x080089f0   Section        0  ip4_frag.o(i.ip4_reass)
    i.ip4_route                              0x08008cec   Section        0  ip4.o(i.ip4_route)
    i.ip_frag_alloc_pbuf_custom_ref          0x08008d80   Section        0  ip4_frag.o(i.ip_frag_alloc_pbuf_custom_ref)
    ip_frag_alloc_pbuf_custom_ref            0x08008d81   Thumb Code    10  ip4_frag.o(i.ip_frag_alloc_pbuf_custom_ref)
    i.ip_frag_free_pbuf_custom_ref           0x08008d8c   Section        0  ip4_frag.o(i.ip_frag_free_pbuf_custom_ref)
    ip_frag_free_pbuf_custom_ref             0x08008d8d   Thumb Code    40  ip4_frag.o(i.ip_frag_free_pbuf_custom_ref)
    i.ip_reass_chain_frag_into_datagram_and_validate 0x08008e24   Section        0  ip4_frag.o(i.ip_reass_chain_frag_into_datagram_and_validate)
    ip_reass_chain_frag_into_datagram_and_validate 0x08008e25   Thumb Code   530  ip4_frag.o(i.ip_reass_chain_frag_into_datagram_and_validate)
    i.ip_reass_dequeue_datagram              0x08009128   Section        0  ip4_frag.o(i.ip_reass_dequeue_datagram)
    ip_reass_dequeue_datagram                0x08009129   Thumb Code    62  ip4_frag.o(i.ip_reass_dequeue_datagram)
    i.ip_reass_enqueue_new_datagram          0x080091ec   Section        0  ip4_frag.o(i.ip_reass_enqueue_new_datagram)
    ip_reass_enqueue_new_datagram            0x080091ed   Thumb Code    80  ip4_frag.o(i.ip_reass_enqueue_new_datagram)
    i.ip_reass_free_complete_datagram        0x08009240   Section        0  ip4_frag.o(i.ip_reass_free_complete_datagram)
    ip_reass_free_complete_datagram          0x08009241   Thumb Code   274  ip4_frag.o(i.ip_reass_free_complete_datagram)
    i.ip_reass_remove_oldest_datagram        0x08009420   Section        0  ip4_frag.o(i.ip_reass_remove_oldest_datagram)
    ip_reass_remove_oldest_datagram          0x08009421   Thumb Code   130  ip4_frag.o(i.ip_reass_remove_oldest_datagram)
    i.ip_reass_tmr                           0x080094a8   Section        0  ip4_frag.o(i.ip_reass_tmr)
    i.ipfrag_free_pbuf_custom                0x080094dc   Section        0  ip4_frag.o(i.ipfrag_free_pbuf_custom)
    ipfrag_free_pbuf_custom                  0x080094dd   Thumb Code    76  ip4_frag.o(i.ipfrag_free_pbuf_custom)
    i.low_level_init                         0x080095a4   Section        0  ethernetif.o(i.low_level_init)
    low_level_init                           0x080095a5   Thumb Code   218  ethernetif.o(i.low_level_init)
    i.low_level_input                        0x080096a0   Section        0  ethernetif.o(i.low_level_input)
    low_level_input                          0x080096a1   Thumb Code   146  ethernetif.o(i.low_level_input)
    i.low_level_output                       0x08009744   Section        0  ethernetif.o(i.low_level_output)
    low_level_output                         0x08009745   Thumb Code   282  ethernetif.o(i.low_level_output)
    i.lwip_cyclic_timer                      0x08009870   Section        0  timeouts.o(i.lwip_cyclic_timer)
    lwip_cyclic_timer                        0x08009871   Thumb Code    70  timeouts.o(i.lwip_cyclic_timer)
    i.lwip_htonl                             0x080098c0   Section        0  def.o(i.lwip_htonl)
    i.lwip_htons                             0x080098da   Section        0  def.o(i.lwip_htons)
    i.lwip_init                              0x080098e8   Section        0  init.o(i.lwip_init)
    i.lwip_standard_chksum                   0x08009984   Section        0  inet_chksum.o(i.lwip_standard_chksum)
    i.lwip_udp_discollected                  0x080099e4   Section        0  lwip_udp.o(i.lwip_udp_discollected)
    i.lwip_udp_recv_callback                 0x08009a08   Section        0  lwip_udp.o(i.lwip_udp_recv_callback)
    i.lwip_udp_register                      0x08009ae8   Section        0  lwip_udp.o(i.lwip_udp_register)
    i.lwip_udp_send                          0x08009b04   Section        0  lwip_udp.o(i.lwip_udp_send)
    i.lwip_udp_set_remote_ip                 0x08009b3c   Section        0  lwip_udp.o(i.lwip_udp_set_remote_ip)
    i.main                                   0x08009c4c   Section        0  main.o(i.main)
    i.mem_free                               0x08009d40   Section        0  mem.o(i.mem_free)
    i.mem_init                               0x08009f04   Section        0  mem.o(i.mem_init)
    i.mem_link_valid                         0x08009f5c   Section        0  mem.o(i.mem_link_valid)
    mem_link_valid                           0x08009f5d   Thumb Code    82  mem.o(i.mem_link_valid)
    i.mem_malloc                             0x08009fb4   Section        0  mem.o(i.mem_malloc)
    i.mem_to_ptr                             0x0800a25c   Section        0  mem.o(i.mem_to_ptr)
    mem_to_ptr                               0x0800a25d   Thumb Code    12  mem.o(i.mem_to_ptr)
    i.mem_trim                               0x0800a26c   Section        0  mem.o(i.mem_trim)
    i.memp_free                              0x0800a4a0   Section        0  memp.o(i.memp_free)
    i.memp_free_pool                         0x0800a550   Section        0  memp.o(i.memp_free_pool)
    i.memp_init                              0x0800a5f0   Section        0  memp.o(i.memp_init)
    i.memp_init_pool                         0x0800a610   Section        0  memp.o(i.memp_init_pool)
    i.memp_malloc                            0x0800a63c   Section        0  memp.o(i.memp_malloc)
    i.memp_malloc_pool                       0x0800a6ec   Section        0  memp.o(i.memp_malloc_pool)
    i.netif_add                              0x0800a784   Section        0  netif.o(i.netif_add)
    i.netif_do_ip_addr_changed               0x0800a9b4   Section        0  netif.o(i.netif_do_ip_addr_changed)
    netif_do_ip_addr_changed                 0x0800a9b5   Thumb Code    24  netif.o(i.netif_do_ip_addr_changed)
    i.netif_do_set_gw                        0x0800a9cc   Section        0  netif.o(i.netif_do_set_gw)
    netif_do_set_gw                          0x0800a9cd   Thumb Code    38  netif.o(i.netif_do_set_gw)
    i.netif_do_set_ipaddr                    0x0800a9f4   Section        0  netif.o(i.netif_do_set_ipaddr)
    netif_do_set_ipaddr                      0x0800a9f5   Thumb Code   116  netif.o(i.netif_do_set_ipaddr)
    i.netif_do_set_netmask                   0x0800aad4   Section        0  netif.o(i.netif_do_set_netmask)
    netif_do_set_netmask                     0x0800aad5   Thumb Code    38  netif.o(i.netif_do_set_netmask)
    i.netif_get_by_index                     0x0800aafc   Section        0  netif.o(i.netif_get_by_index)
    i.netif_init                             0x0800ab24   Section        0  netif.o(i.netif_init)
    i.netif_issue_reports                    0x0800ab28   Section        0  netif.o(i.netif_issue_reports)
    netif_issue_reports                      0x0800ab29   Thumb Code    86  netif.o(i.netif_issue_reports)
    i.netif_null_output_ip4                  0x0800ac00   Section        0  netif.o(i.netif_null_output_ip4)
    netif_null_output_ip4                    0x0800ac01   Thumb Code     8  netif.o(i.netif_null_output_ip4)
    i.netif_set_addr                         0x0800ac08   Section        0  netif.o(i.netif_set_addr)
    i.netif_set_default                      0x0800ac68   Section        0  netif.o(i.netif_set_default)
    i.netif_set_down                         0x0800ac74   Section        0  netif.o(i.netif_set_down)
    i.netif_set_link_callback                0x0800ad40   Section        0  netif.o(i.netif_set_link_callback)
    i.netif_set_link_down                    0x0800ad48   Section        0  netif.o(i.netif_set_link_down)
    i.netif_set_link_up                      0x0800ae14   Section        0  netif.o(i.netif_set_link_up)
    i.netif_set_up                           0x0800aee8   Section        0  netif.o(i.netif_set_up)
    i.pbuf_add_header                        0x0800afa8   Section        0  pbuf.o(i.pbuf_add_header)
    i.pbuf_add_header_impl                   0x0800afbc   Section        0  pbuf.o(i.pbuf_add_header_impl)
    pbuf_add_header_impl                     0x0800afbd   Thumb Code   130  pbuf.o(i.pbuf_add_header_impl)
    i.pbuf_alloc                             0x0800b0a4   Section        0  pbuf.o(i.pbuf_alloc)
    i.pbuf_alloc_reference                   0x0800b348   Section        0  pbuf.o(i.pbuf_alloc_reference)
    i.pbuf_alloced_custom                    0x0800b404   Section        0  pbuf.o(i.pbuf_alloced_custom)
    i.pbuf_cat                               0x0800b458   Section        0  pbuf.o(i.pbuf_cat)
    i.pbuf_chain                             0x0800b5a8   Section        0  pbuf.o(i.pbuf_chain)
    i.pbuf_clen                              0x0800b5be   Section        0  pbuf.o(i.pbuf_clen)
    i.pbuf_clone                             0x0800b5d0   Section        0  pbuf.o(i.pbuf_clone)
    i.pbuf_copy                              0x0800b680   Section        0  pbuf.o(i.pbuf_copy)
    i.pbuf_copy_partial                      0x0800b8a8   Section        0  pbuf.o(i.pbuf_copy_partial)
    i.pbuf_free                              0x0800b9e8   Section        0  pbuf.o(i.pbuf_free)
    i.pbuf_free_custom                       0x0800bb84   Section        0  ethernetif.o(i.pbuf_free_custom)
    i.pbuf_free_ooseq                        0x0800bbac   Section        0  pbuf.o(i.pbuf_free_ooseq)
    i.pbuf_header_force                      0x0800bbdc   Section        0  pbuf.o(i.pbuf_header_force)
    i.pbuf_header_impl                       0x0800bbee   Section        0  pbuf.o(i.pbuf_header_impl)
    pbuf_header_impl                         0x0800bbef   Thumb Code    34  pbuf.o(i.pbuf_header_impl)
    i.pbuf_init_alloced_pbuf                 0x0800bc10   Section        0  pbuf.o(i.pbuf_init_alloced_pbuf)
    pbuf_init_alloced_pbuf                   0x0800bc11   Thumb Code    30  pbuf.o(i.pbuf_init_alloced_pbuf)
    i.pbuf_pool_is_empty                     0x0800bc30   Section        0  pbuf.o(i.pbuf_pool_is_empty)
    pbuf_pool_is_empty                       0x0800bc31   Thumb Code    12  pbuf.o(i.pbuf_pool_is_empty)
    i.pbuf_realloc                           0x0800bc40   Section        0  pbuf.o(i.pbuf_realloc)
    i.pbuf_ref                               0x0800bda8   Section        0  pbuf.o(i.pbuf_ref)
    i.pbuf_remove_header                     0x0800be44   Section        0  pbuf.o(i.pbuf_remove_header)
    i.pbuf_take                              0x0800bf38   Section        0  pbuf.o(i.pbuf_take)
    i.plug_holes                             0x0800c100   Section        0  mem.o(i.plug_holes)
    plug_holes                               0x0800c101   Thumb Code   248  mem.o(i.plug_holes)
    i.ptr_to_mem                             0x0800c2d8   Section        0  mem.o(i.ptr_to_mem)
    ptr_to_mem                               0x0800c2d9   Thumb Code    10  mem.o(i.ptr_to_mem)
    i.server_set_local_ip                    0x0800c2e8   Section        0  tcp_server.o(i.server_set_local_ip)
    i.sys_check_timeouts                     0x0800c3f8   Section        0  timeouts.o(i.sys_check_timeouts)
    i.sys_now                                0x0800c45c   Section        0  ethernetif.o(i.sys_now)
    i.sys_timeout                            0x0800c464   Section        0  timeouts.o(i.sys_timeout)
    i.sys_timeout_abs                        0x0800c534   Section        0  timeouts.o(i.sys_timeout_abs)
    sys_timeout_abs                          0x0800c535   Thumb Code   160  timeouts.o(i.sys_timeout_abs)
    i.sys_timeouts_init                      0x0800c674   Section        0  timeouts.o(i.sys_timeouts_init)
    i.tcp_abandon                            0x0800c69c   Section        0  tcp.o(i.tcp_abandon)
    i.tcp_abort                              0x0800c870   Section        0  tcp.o(i.tcp_abort)
    i.tcp_accept                             0x0800c87e   Section        0  tcp.o(i.tcp_accept)
    i.tcp_accept_null                        0x0800c890   Section        0  tcp.o(i.tcp_accept_null)
    tcp_accept_null                          0x0800c891   Thumb Code    46  tcp.o(i.tcp_accept_null)
    i.tcp_alloc                              0x0800c938   Section        0  tcp.o(i.tcp_alloc)
    i.tcp_arg                                0x0800c9f4   Section        0  tcp.o(i.tcp_arg)
    i.tcp_bind                               0x0800c9fc   Section        0  tcp.o(i.tcp_bind)
    i.tcp_client_connection_close            0x0800cb6c   Section        0  tcp_client.o(i.tcp_client_connection_close)
    i.tcp_client_connection_close            0x0800cbb0   Section        0  tcp_server.o(i.tcp_client_connection_close)
    tcp_client_connection_close              0x0800cbb1   Thumb Code    64  tcp_server.o(i.tcp_client_connection_close)
    i.tcp_client_err_cbk                     0x0800cbf0   Section        0  tcp_client.o(i.tcp_client_err_cbk)
    tcp_client_err_cbk                       0x0800cbf1   Thumb Code    14  tcp_client.o(i.tcp_client_err_cbk)
    i.tcp_client_recv_cbk                    0x0800cc1c   Section        0  tcp_client.o(i.tcp_client_recv_cbk)
    tcp_client_recv_cbk                      0x0800cc1d   Thumb Code   210  tcp_client.o(i.tcp_client_recv_cbk)
    i.tcp_client_send                        0x0800cd40   Section        0  tcp_client.o(i.tcp_client_send)
    tcp_client_send                          0x0800cd41   Thumb Code    28  tcp_client.o(i.tcp_client_send)
    i.tcp_close                              0x0800cd80   Section        0  tcp.o(i.tcp_close)
    i.tcp_close_shutdown                     0x0800ce30   Section        0  tcp.o(i.tcp_close_shutdown)
    tcp_close_shutdown                       0x0800ce31   Thumb Code   356  tcp.o(i.tcp_close_shutdown)
    i.tcp_close_shutdown_fin                 0x0800d03c   Section        0  tcp.o(i.tcp_close_shutdown_fin)
    tcp_close_shutdown_fin                   0x0800d03d   Thumb Code   132  tcp.o(i.tcp_close_shutdown_fin)
    i.tcp_connect                            0x0800d124   Section        0  tcp.o(i.tcp_connect)
    i.tcp_create_segment                     0x0800d384   Section        0  tcp_out.o(i.tcp_create_segment)
    tcp_create_segment                       0x0800d385   Thumb Code   282  tcp_out.o(i.tcp_create_segment)
    i.tcp_eff_send_mss_netif                 0x0800d558   Section        0  tcp.o(i.tcp_eff_send_mss_netif)
    i.tcp_enqueue_flags                      0x0800d62c   Section        0  tcp_out.o(i.tcp_enqueue_flags)
    i.tcp_err                                0x0800d8ec   Section        0  tcp.o(i.tcp_err)
    i.tcp_fasttmr                            0x0800d998   Section        0  tcp.o(i.tcp_fasttmr)
    i.tcp_free                               0x0800da34   Section        0  tcp.o(i.tcp_free)
    i.tcp_free_acked_segments                0x0800dac8   Section        0  tcp_in.o(i.tcp_free_acked_segments)
    tcp_free_acked_segments                  0x0800dac9   Thumb Code   176  tcp_in.o(i.tcp_free_acked_segments)
    i.tcp_free_listen                        0x0800dc24   Section        0  tcp.o(i.tcp_free_listen)
    tcp_free_listen                          0x0800dc25   Thumb Code    40  tcp.o(i.tcp_free_listen)
    i.tcp_free_ooseq                         0x0800dcc0   Section        0  tcp.o(i.tcp_free_ooseq)
    i.tcp_get_next_optbyte                   0x0800dcd4   Section        0  tcp_in.o(i.tcp_get_next_optbyte)
    tcp_get_next_optbyte                     0x0800dcd5   Thumb Code    54  tcp_in.o(i.tcp_get_next_optbyte)
    i.tcp_handle_closepend                   0x0800dd1c   Section        0  tcp.o(i.tcp_handle_closepend)
    tcp_handle_closepend                     0x0800dd1d   Thumb Code    48  tcp.o(i.tcp_handle_closepend)
    i.tcp_init                               0x0800dd50   Section        0  tcp.o(i.tcp_init)
    i.tcp_input                              0x0800dd68   Section        0  tcp_in.o(i.tcp_input)
    i.tcp_input_delayed_close                0x0800e580   Section        0  tcp_in.o(i.tcp_input_delayed_close)
    tcp_input_delayed_close                  0x0800e581   Thumb Code    92  tcp_in.o(i.tcp_input_delayed_close)
    i.tcp_keepalive                          0x0800e668   Section        0  tcp_out.o(i.tcp_keepalive)
    i.tcp_kill_prio                          0x0800e744   Section        0  tcp.o(i.tcp_kill_prio)
    tcp_kill_prio                            0x0800e745   Thumb Code    96  tcp.o(i.tcp_kill_prio)
    i.tcp_kill_state                         0x0800e7ac   Section        0  tcp.o(i.tcp_kill_state)
    tcp_kill_state                           0x0800e7ad   Thumb Code    94  tcp.o(i.tcp_kill_state)
    i.tcp_kill_timewait                      0x0800e87c   Section        0  tcp.o(i.tcp_kill_timewait)
    tcp_kill_timewait                        0x0800e87d   Thumb Code    50  tcp.o(i.tcp_kill_timewait)
    i.tcp_listen_closed                      0x0800e8b8   Section        0  tcp.o(i.tcp_listen_closed)
    tcp_listen_closed                        0x0800e8b9   Thumb Code    82  tcp.o(i.tcp_listen_closed)
    i.tcp_listen_input                       0x0800e98c   Section        0  tcp_in.o(i.tcp_listen_input)
    tcp_listen_input                         0x0800e98d   Thumb Code   342  tcp_in.o(i.tcp_listen_input)
    i.tcp_listen_with_backlog                0x0800eb80   Section        0  tcp.o(i.tcp_listen_with_backlog)
    i.tcp_listen_with_backlog_and_err        0x0800eb94   Section        0  tcp.o(i.tcp_listen_with_backlog_and_err)
    i.tcp_netif_ip_addr_changed              0x0800ed58   Section        0  tcp.o(i.tcp_netif_ip_addr_changed)
    i.tcp_netif_ip_addr_changed_pcblist      0x0800eda4   Section        0  tcp.o(i.tcp_netif_ip_addr_changed_pcblist)
    tcp_netif_ip_addr_changed_pcblist        0x0800eda5   Thumb Code    68  tcp.o(i.tcp_netif_ip_addr_changed_pcblist)
    i.tcp_new                                0x0800ee74   Section        0  tcp.o(i.tcp_new)
    i.tcp_new_port                           0x0800ee80   Section        0  tcp.o(i.tcp_new_port)
    tcp_new_port                             0x0800ee81   Thumb Code    96  tcp.o(i.tcp_new_port)
    i.tcp_next_iss                           0x0800eee8   Section        0  tcp.o(i.tcp_next_iss)
    i.tcp_oos_insert_segment                 0x0800ef98   Section        0  tcp_in.o(i.tcp_oos_insert_segment)
    tcp_oos_insert_segment                   0x0800ef99   Thumb Code   164  tcp_in.o(i.tcp_oos_insert_segment)
    i.tcp_output                             0x0800f0c4   Section        0  tcp_out.o(i.tcp_output)
    i.tcp_output_alloc_header                0x0800f428   Section        0  tcp_out.o(i.tcp_output_alloc_header)
    tcp_output_alloc_header                  0x0800f429   Thumb Code    86  tcp_out.o(i.tcp_output_alloc_header)
    i.tcp_output_alloc_header_common         0x0800f504   Section        0  tcp_out.o(i.tcp_output_alloc_header_common)
    tcp_output_alloc_header_common           0x0800f505   Thumb Code   152  tcp_out.o(i.tcp_output_alloc_header_common)
    i.tcp_output_control_segment             0x0800f628   Section        0  tcp_out.o(i.tcp_output_control_segment)
    tcp_output_control_segment               0x0800f629   Thumb Code   114  tcp_out.o(i.tcp_output_control_segment)
    i.tcp_output_fill_options                0x0800f724   Section        0  tcp_out.o(i.tcp_output_fill_options)
    tcp_output_fill_options                  0x0800f725   Thumb Code   140  tcp_out.o(i.tcp_output_fill_options)
    i.tcp_output_segment                     0x0800f848   Section        0  tcp_out.o(i.tcp_output_segment)
    tcp_output_segment                       0x0800f849   Thumb Code   372  tcp_out.o(i.tcp_output_segment)
    i.tcp_output_segment_busy                0x0800fa94   Section        0  tcp_out.o(i.tcp_output_segment_busy)
    tcp_output_segment_busy                  0x0800fa95   Thumb Code    46  tcp_out.o(i.tcp_output_segment_busy)
    i.tcp_parseopt                           0x0800fb48   Section        0  tcp_in.o(i.tcp_parseopt)
    tcp_parseopt                             0x0800fb49   Thumb Code   176  tcp_in.o(i.tcp_parseopt)
    i.tcp_pbuf_prealloc                      0x0800fc78   Section        0  tcp_out.o(i.tcp_pbuf_prealloc)
    tcp_pbuf_prealloc                        0x0800fc79   Thumb Code   194  tcp_out.o(i.tcp_pbuf_prealloc)
    i.tcp_pcb_purge                          0x0800fdf0   Section        0  tcp.o(i.tcp_pcb_purge)
    i.tcp_pcb_remove                         0x0800fecc   Section        0  tcp.o(i.tcp_pcb_remove)
    i.tcp_poll                               0x080100a4   Section        0  tcp.o(i.tcp_poll)
    i.tcp_process                            0x08010180   Section        0  tcp_in.o(i.tcp_process)
    tcp_process                              0x08010181   Thumb Code  1818  tcp_in.o(i.tcp_process)
    i.tcp_process_refused_data               0x080108c4   Section        0  tcp.o(i.tcp_process_refused_data)
    i.tcp_receive                            0x080109fc   Section        0  tcp_in.o(i.tcp_receive)
    tcp_receive                              0x080109fd   Thumb Code  3136  tcp_in.o(i.tcp_receive)
    i.tcp_recv                               0x08011678   Section        0  tcp.o(i.tcp_recv)
    i.tcp_recv_null                          0x08011724   Section        0  tcp.o(i.tcp_recv_null)
    i.tcp_recved                             0x080117e8   Section        0  tcp.o(i.tcp_recved)
    i.tcp_remove_listener                    0x08011904   Section        0  tcp.o(i.tcp_remove_listener)
    tcp_remove_listener                      0x08011905   Thumb Code    52  tcp.o(i.tcp_remove_listener)
    i.tcp_rexmit                             0x080119b8   Section        0  tcp_out.o(i.tcp_rexmit)
    i.tcp_rexmit_fast                        0x08011abc   Section        0  tcp_out.o(i.tcp_rexmit_fast)
    i.tcp_rexmit_rto                         0x08011bc8   Section        0  tcp_out.o(i.tcp_rexmit_rto)
    i.tcp_rexmit_rto_commit                  0x08011c70   Section        0  tcp_out.o(i.tcp_rexmit_rto_commit)
    i.tcp_rexmit_rto_prepare                 0x08011d28   Section        0  tcp_out.o(i.tcp_rexmit_rto_prepare)
    i.tcp_route                              0x08011e40   Section        0  tcp_out.o(i.tcp_route)
    tcp_route                                0x08011e41   Thumb Code    30  tcp_out.o(i.tcp_route)
    i.tcp_rst                                0x08011e60   Section        0  tcp_out.o(i.tcp_rst)
    i.tcp_seg_copy                           0x08011f88   Section        0  tcp.o(i.tcp_seg_copy)
    i.tcp_seg_free                           0x0801203c   Section        0  tcp.o(i.tcp_seg_free)
    i.tcp_segs_free                          0x08012056   Section        0  tcp.o(i.tcp_segs_free)
    i.tcp_send_empty_ack                     0x08012070   Section        0  tcp_out.o(i.tcp_send_empty_ack)
    i.tcp_send_fin                           0x080121b0   Section        0  tcp_out.o(i.tcp_send_fin)
    i.tcp_sent                               0x08012290   Section        0  tcp.o(i.tcp_sent)
    i.tcp_server_accept_cbk                  0x0801233c   Section        0  tcp_server.o(i.tcp_server_accept_cbk)
    tcp_server_accept_cbk                    0x0801233d   Thumb Code    60  tcp_server.o(i.tcp_server_accept_cbk)
    i.tcp_server_err_cbk                     0x0801239c   Section        0  tcp_server.o(i.tcp_server_err_cbk)
    tcp_server_err_cbk                       0x0801239d   Thumb Code    48  tcp_server.o(i.tcp_server_err_cbk)
    i.tcp_server_poll_cbk                    0x080123e8   Section        0  tcp_server.o(i.tcp_server_poll_cbk)
    tcp_server_poll_cbk                      0x080123e9   Thumb Code    44  tcp_server.o(i.tcp_server_poll_cbk)
    i.tcp_server_recv_cbk                    0x08012424   Section        0  tcp_server.o(i.tcp_server_recv_cbk)
    tcp_server_recv_cbk                      0x08012425   Thumb Code   184  tcp_server.o(i.tcp_server_recv_cbk)
    i.tcp_server_sent_cbk                    0x0801250c   Section        0  tcp_server.o(i.tcp_server_sent_cbk)
    tcp_server_sent_cbk                      0x0801250d   Thumb Code    32  tcp_server.o(i.tcp_server_sent_cbk)
    i.tcp_slowtmr                            0x08012548   Section        0  tcp.o(i.tcp_slowtmr)
    i.tcp_split_unsent_seg                   0x08012c78   Section        0  tcp_out.o(i.tcp_split_unsent_seg)
    i.tcp_timer_needed                       0x08012f48   Section        0  timeouts.o(i.tcp_timer_needed)
    i.tcp_timewait_input                     0x08012f80   Section        0  tcp_in.o(i.tcp_timewait_input)
    tcp_timewait_input                       0x08012f81   Thumb Code   170  tcp_in.o(i.tcp_timewait_input)
    i.tcp_tmr                                0x080130c4   Section        0  tcp.o(i.tcp_tmr)
    i.tcp_trigger_input_pcb_close            0x080130e8   Section        0  tcp_in.o(i.tcp_trigger_input_pcb_close)
    i.tcp_update_rcv_ann_wnd                 0x080130fc   Section        0  tcp.o(i.tcp_update_rcv_ann_wnd)
    i.tcp_write                              0x08013214   Section        0  tcp_out.o(i.tcp_write)
    i.tcp_write_checks                       0x08013a38   Section        0  tcp_out.o(i.tcp_write_checks)
    tcp_write_checks                         0x08013a39   Thumb Code   198  tcp_out.o(i.tcp_write_checks)
    i.tcp_zero_window_probe                  0x08013bec   Section        0  tcp_out.o(i.tcp_zero_window_probe)
    i.tcpip_tcp_timer                        0x08013d5c   Section        0  timeouts.o(i.tcpip_tcp_timer)
    tcpip_tcp_timer                          0x08013d5d   Thumb Code    40  timeouts.o(i.tcpip_tcp_timer)
    i.udp_bind                               0x08013d94   Section        0  udp.o(i.udp_bind)
    i.udp_connect                            0x08013eb8   Section        0  udp.o(i.udp_connect)
    i.udp_disconnect                         0x08013fec   Section        0  udp.o(i.udp_disconnect)
    i.udp_init                               0x08014098   Section        0  udp.o(i.udp_init)
    i.udp_input                              0x080140b0   Section        0  udp.o(i.udp_input)
    i.udp_input_local_match                  0x080142fc   Section        0  udp.o(i.udp_input_local_match)
    udp_input_local_match                    0x080142fd   Thumb Code   144  udp.o(i.udp_input_local_match)
    i.udp_netif_ip_addr_changed              0x08014434   Section        0  udp.o(i.udp_netif_ip_addr_changed)
    i.udp_new                                0x08014464   Section        0  udp.o(i.udp_new)
    i.udp_new_port                           0x08014480   Section        0  udp.o(i.udp_new_port)
    udp_new_port                             0x08014481   Thumb Code    80  udp.o(i.udp_new_port)
    i.udp_recv                               0x080144d8   Section        0  udp.o(i.udp_recv)
    i.udp_remove                             0x08014574   Section        0  udp.o(i.udp_remove)
    i.udp_send                               0x08014648   Section        0  udp.o(i.udp_send)
    i.udp_sendto                             0x08014724   Section        0  udp.o(i.udp_sendto)
    i.udp_sendto_if                          0x08014868   Section        0  udp.o(i.udp_sendto_if)
    i.udp_sendto_if_src                      0x08014a00   Section        0  udp.o(i.udp_sendto_if_src)
    .constdata                               0x08014cb4   Section       12  ethernetif.o(.constdata)
    .constdata                               0x08014cc0   Section       20  tcp_client.o(.constdata)
    .constdata                               0x08014cd4   Section       24  stm32h7xx_hal_uart.o(.constdata)
    .constdata                               0x08014cec   Section       16  stm32h7xx_hal_uart_ex.o(.constdata)
    numerator                                0x08014cec   Data           8  stm32h7xx_hal_uart_ex.o(.constdata)
    denominator                              0x08014cf4   Data           8  stm32h7xx_hal_uart_ex.o(.constdata)
    .constdata                               0x08014cfc   Section       16  system_stm32h7xx.o(.constdata)
    .constdata                               0x08014d0c   Section       12  ethernet.o(.constdata)
    .constdata                               0x08014d18   Section      144  memp.o(.constdata)
    .constdata                               0x08014da8   Section       80  tcp.o(.constdata)
    tcp_state_str                            0x08014da8   Data          44  tcp.o(.constdata)
    tcp_backoff                              0x08014dd4   Data          13  tcp.o(.constdata)
    tcp_persist_backoff                      0x08014de1   Data           7  tcp.o(.constdata)
    .constdata                               0x08014df8   Section       28  timeouts.o(.constdata)
    .constdata                               0x08014e14   Section        8  ip4_addr.o(.constdata)
    .conststring                             0x08014e1c   Section       65  init.o(.conststring)
    .conststring                             0x08014e60   Section      117  tcp.o(.conststring)
    .conststring                             0x08014ed8   Section       85  tcp_out.o(.conststring)
    .conststring                             0x08014f30   Section       65  etharp.o(.conststring)
    .data                                    0x24000000   Section       28  ethernetif.o(.data)
    memp_tab_RX_POOL                         0x24000000   Data           4  ethernetif.o(.data)
    RxAllocStatus                            0x24000004   Data           1  ethernetif.o(.data)
    .data                                    0x2400001c   Section       28  lwip.o(.data)
    .data                                    0x24000040   Section     3252  lwip_udp.o(.data)
    .data                                    0x24000d00   Section     3260  tcp_client.o(.data)
    .data                                    0x240019c0   Section     3252  tcp_server.o(.data)
    .data                                    0x24002674   Section        9  stm32h7xx_hal.o(.data)
    .data                                    0x24002680   Section        8  system_stm32h7xx.o(.data)
    .data                                    0x24002688   Section       12  mem.o(.data)
    ram                                      0x24002688   Data           4  mem.o(.data)
    ram_end                                  0x2400268c   Data           4  mem.o(.data)
    lfree                                    0x24002690   Data           4  mem.o(.data)
    .data                                    0x24002694   Section       36  memp.o(.data)
    memp_tab_UDP_PCB                         0x24002694   Data           4  memp.o(.data)
    memp_tab_TCP_PCB                         0x24002698   Data           4  memp.o(.data)
    memp_tab_TCP_PCB_LISTEN                  0x2400269c   Data           4  memp.o(.data)
    memp_tab_TCP_SEG                         0x240026a0   Data           4  memp.o(.data)
    memp_tab_REASSDATA                       0x240026a4   Data           4  memp.o(.data)
    memp_tab_FRAG_PBUF                       0x240026a8   Data           4  memp.o(.data)
    memp_tab_SYS_TIMEOUT                     0x240026ac   Data           4  memp.o(.data)
    memp_tab_PBUF                            0x240026b0   Data           4  memp.o(.data)
    memp_tab_PBUF_POOL                       0x240026b4   Data           4  memp.o(.data)
    .data                                    0x240026b8   Section        9  netif.o(.data)
    netif_num                                0x240026c0   Data           1  netif.o(.data)
    .data                                    0x240026c1   Section        1  pbuf.o(.data)
    .data                                    0x240026c4   Section       32  tcp.o(.data)
    tcp_port                                 0x240026c4   Data           2  tcp.o(.data)
    tcp_timer                                0x240026dd   Data           1  tcp.o(.data)
    tcp_timer_ctr                            0x240026de   Data           1  tcp.o(.data)
    iss                                      0x240026e0   Data           4  tcp.o(.data)
    .data                                    0x240026e4   Section       40  tcp_in.o(.data)
    tcphdr                                   0x240026e4   Data           4  tcp_in.o(.data)
    tcphdr_optlen                            0x240026e8   Data           2  tcp_in.o(.data)
    tcphdr_opt1len                           0x240026ea   Data           2  tcp_in.o(.data)
    tcphdr_opt2                              0x240026ec   Data           4  tcp_in.o(.data)
    tcp_optidx                               0x240026f0   Data           2  tcp_in.o(.data)
    seqno                                    0x240026f4   Data           4  tcp_in.o(.data)
    ackno                                    0x240026f8   Data           4  tcp_in.o(.data)
    recv_acked                               0x240026fc   Data           2  tcp_in.o(.data)
    tcplen                                   0x240026fe   Data           2  tcp_in.o(.data)
    flags                                    0x24002700   Data           1  tcp_in.o(.data)
    recv_flags                               0x24002701   Data           1  tcp_in.o(.data)
    recv_data                                0x24002704   Data           4  tcp_in.o(.data)
    .data                                    0x2400270c   Section       12  timeouts.o(.data)
    next_timeout                             0x2400270c   Data           4  timeouts.o(.data)
    current_timeout_due_time                 0x24002710   Data           4  timeouts.o(.data)
    tcpip_tcp_timer_active                   0x24002714   Data           4  timeouts.o(.data)
    .data                                    0x24002718   Section        8  udp.o(.data)
    udp_port                                 0x24002718   Data           2  udp.o(.data)
    .data                                    0x24002720   Section        1  etharp.o(.data)
    etharp_cached_entry                      0x24002720   Data           1  etharp.o(.data)
    .data                                    0x24002722   Section        2  ip4.o(.data)
    ip_id                                    0x24002722   Data           2  ip4.o(.data)
    .data                                    0x24002724   Section        6  ip4_frag.o(.data)
    reassdatagrams                           0x24002724   Data           4  ip4_frag.o(.data)
    ip_reass_pbufcount                       0x24002728   Data           2  ip4_frag.o(.data)
    .data                                    0x2400272c   Section        4  rand.o(.data)
    _rand_state                              0x2400272c   Data           4  rand.o(.data)
    .data                                    0x24002730   Section        4  stdout.o(.data)
    .bss                                     0x24002734   Section     1504  main.o(.bss)
    .bss                                     0x24002d14   Section      148  usart.o(.bss)
    .bss                                     0x24002da8   Section    19084  ethernetif.o(.bss)
    .bss                                     0x24007834   Section       52  lwip.o(.bss)
    .bss                                     0x24007868   Section       24  ip.o(.bss)
    .bss                                     0x24007880   Section    26751  memp.o(.bss)
    .bss                                     0x2400e100   Section       16  tcp_in.o(.bss)
    inseg                                    0x2400e100   Data          16  tcp_in.o(.bss)
    .bss                                     0x2400e110   Section      240  etharp.o(.bss)
    arp_table                                0x2400e110   Data         240  etharp.o(.bss)
    STACK                                    0x2400e200   Section     1024  startup_stm32h743xx.o(STACK)
    .ARM.__AT_0x30004000                     0x30004000   Section       96  ethernetif.o(.ARM.__AT_0x30004000)
    .ARM.__AT_0x30004060                     0x30004060   Section       96  ethernetif.o(.ARM.__AT_0x30004060)

    Global Symbols

    Symbol Name                              Value     Ov Type        Size  Object(Section)

    BuildAttributes$$THM_ISAv4$E$P$D$K$B$S$7EM$VFPv5_D16$PE$PLD8$A:L22UL41UL21$X:L11$S22US41US21$IEEE1$IW$USESV6$~STKCKD$USESV7$~SHL$OSPACE$ROPI$EBA8$MICROLIB$REQ8$PRES8$EABIv2 0x00000000   Number         0  anon$$obj.o ABSOLUTE
    __ARM_use_no_argv                        0x00000000   Number         0  main.o ABSOLUTE
    _printf_a                                0x00000000   Number         0  stubs.o ABSOLUTE
    _printf_c                                0x00000000   Number         0  stubs.o ABSOLUTE
    _printf_charcount                        0x00000000   Number         0  stubs.o ABSOLUTE
    _printf_d                                0x00000000   Number         0  stubs.o ABSOLUTE
    _printf_e                                0x00000000   Number         0  stubs.o ABSOLUTE
    _printf_f                                0x00000000   Number         0  stubs.o ABSOLUTE
    _printf_flags                            0x00000000   Number         0  stubs.o ABSOLUTE
    _printf_fp_dec                           0x00000000   Number         0  stubs.o ABSOLUTE
    _printf_fp_hex                           0x00000000   Number         0  stubs.o ABSOLUTE
    _printf_g                                0x00000000   Number         0  stubs.o ABSOLUTE
    _printf_i                                0x00000000   Number         0  stubs.o ABSOLUTE
    _printf_int_dec                          0x00000000   Number         0  stubs.o ABSOLUTE
    _printf_l                                0x00000000   Number         0  stubs.o ABSOLUTE
    _printf_lc                               0x00000000   Number         0  stubs.o ABSOLUTE
    _printf_ll                               0x00000000   Number         0  stubs.o ABSOLUTE
    _printf_lld                              0x00000000   Number         0  stubs.o ABSOLUTE
    _printf_lli                              0x00000000   Number         0  stubs.o ABSOLUTE
    _printf_llo                              0x00000000   Number         0  stubs.o ABSOLUTE
    _printf_llu                              0x00000000   Number         0  stubs.o ABSOLUTE
    _printf_llx                              0x00000000   Number         0  stubs.o ABSOLUTE
    _printf_longlong_dec                     0x00000000   Number         0  stubs.o ABSOLUTE
    _printf_longlong_hex                     0x00000000   Number         0  stubs.o ABSOLUTE
    _printf_longlong_oct                     0x00000000   Number         0  stubs.o ABSOLUTE
    _printf_ls                               0x00000000   Number         0  stubs.o ABSOLUTE
    _printf_mbtowc                           0x00000000   Number         0  stubs.o ABSOLUTE
    _printf_n                                0x00000000   Number         0  stubs.o ABSOLUTE
    _printf_o                                0x00000000   Number         0  stubs.o ABSOLUTE
    _printf_p                                0x00000000   Number         0  stubs.o ABSOLUTE
    _printf_percent                          0x00000000   Number         0  stubs.o ABSOLUTE
    _printf_pre_padding                      0x00000000   Number         0  stubs.o ABSOLUTE
    _printf_return_value                     0x00000000   Number         0  stubs.o ABSOLUTE
    _printf_s                                0x00000000   Number         0  stubs.o ABSOLUTE
    _printf_sizespec                         0x00000000   Number         0  stubs.o ABSOLUTE
    _printf_str                              0x00000000   Number         0  stubs.o ABSOLUTE
    _printf_truncate_signed                  0x00000000   Number         0  stubs.o ABSOLUTE
    _printf_truncate_unsigned                0x00000000   Number         0  stubs.o ABSOLUTE
    _printf_u                                0x00000000   Number         0  stubs.o ABSOLUTE
    _printf_wc                               0x00000000   Number         0  stubs.o ABSOLUTE
    _printf_wctomb                           0x00000000   Number         0  stubs.o ABSOLUTE
    _printf_widthprec                        0x00000000   Number         0  stubs.o ABSOLUTE
    _printf_x                                0x00000000   Number         0  stubs.o ABSOLUTE
    __arm_fini_                               - Undefined Weak Reference
    __cpp_initialize__aeabi_                  - Undefined Weak Reference
    __cxa_finalize                            - Undefined Weak Reference
    _clock_init                               - Undefined Weak Reference
    _microlib_exit                            - Undefined Weak Reference
    __Vectors_Size                           0x00000298   Number         0  startup_stm32h743xx.o ABSOLUTE
    __Vectors                                0x08000000   Data           4  startup_stm32h743xx.o(RESET)
    __Vectors_End                            0x08000298   Data           0  startup_stm32h743xx.o(RESET)
    __main                                   0x08000299   Thumb Code     0  entry.o(.ARM.Collect$$$$00000000)
    _main_stk                                0x08000299   Thumb Code     0  entry2.o(.ARM.Collect$$$$00000001)
    _main_scatterload                        0x0800029d   Thumb Code     0  entry5.o(.ARM.Collect$$$$00000004)
    __main_after_scatterload                 0x080002a1   Thumb Code     0  entry5.o(.ARM.Collect$$$$00000004)
    _main_clock                              0x080002a1   Thumb Code     0  entry7b.o(.ARM.Collect$$$$00000008)
    _main_cpp_init                           0x080002a1   Thumb Code     0  entry8b.o(.ARM.Collect$$$$0000000A)
    _main_init                               0x080002a1   Thumb Code     0  entry9a.o(.ARM.Collect$$$$0000000B)
    __rt_lib_shutdown_fini                   0x080002a9   Thumb Code     0  entry12b.o(.ARM.Collect$$$$0000000E)
    __rt_final_cpp                           0x080002ad   Thumb Code     0  entry10a.o(.ARM.Collect$$$$0000000F)
    __rt_final_exit                          0x080002ad   Thumb Code     0  entry11a.o(.ARM.Collect$$$$00000011)
    Reset_Handler                            0x080002b1   Thumb Code     8  startup_stm32h743xx.o(.text)
    ADC3_IRQHandler                          0x080002cb   Thumb Code     0  startup_stm32h743xx.o(.text)
    ADC_IRQHandler                           0x080002cb   Thumb Code     0  startup_stm32h743xx.o(.text)
    BDMA_Channel0_IRQHandler                 0x080002cb   Thumb Code     0  startup_stm32h743xx.o(.text)
    BDMA_Channel1_IRQHandler                 0x080002cb   Thumb Code     0  startup_stm32h743xx.o(.text)
    BDMA_Channel2_IRQHandler                 0x080002cb   Thumb Code     0  startup_stm32h743xx.o(.text)
    BDMA_Channel3_IRQHandler                 0x080002cb   Thumb Code     0  startup_stm32h743xx.o(.text)
    BDMA_Channel4_IRQHandler                 0x080002cb   Thumb Code     0  startup_stm32h743xx.o(.text)
    BDMA_Channel5_IRQHandler                 0x080002cb   Thumb Code     0  startup_stm32h743xx.o(.text)
    BDMA_Channel6_IRQHandler                 0x080002cb   Thumb Code     0  startup_stm32h743xx.o(.text)
    BDMA_Channel7_IRQHandler                 0x080002cb   Thumb Code     0  startup_stm32h743xx.o(.text)
    CEC_IRQHandler                           0x080002cb   Thumb Code     0  startup_stm32h743xx.o(.text)
    COMP1_IRQHandler                         0x080002cb   Thumb Code     0  startup_stm32h743xx.o(.text)
    CRS_IRQHandler                           0x080002cb   Thumb Code     0  startup_stm32h743xx.o(.text)
    DCMI_IRQHandler                          0x080002cb   Thumb Code     0  startup_stm32h743xx.o(.text)
    DFSDM1_FLT0_IRQHandler                   0x080002cb   Thumb Code     0  startup_stm32h743xx.o(.text)
    DFSDM1_FLT1_IRQHandler                   0x080002cb   Thumb Code     0  startup_stm32h743xx.o(.text)
    DFSDM1_FLT2_IRQHandler                   0x080002cb   Thumb Code     0  startup_stm32h743xx.o(.text)
    DFSDM1_FLT3_IRQHandler                   0x080002cb   Thumb Code     0  startup_stm32h743xx.o(.text)
    DMA1_Stream0_IRQHandler                  0x080002cb   Thumb Code     0  startup_stm32h743xx.o(.text)
    DMA1_Stream1_IRQHandler                  0x080002cb   Thumb Code     0  startup_stm32h743xx.o(.text)
    DMA1_Stream2_IRQHandler                  0x080002cb   Thumb Code     0  startup_stm32h743xx.o(.text)
    DMA1_Stream3_IRQHandler                  0x080002cb   Thumb Code     0  startup_stm32h743xx.o(.text)
    DMA1_Stream4_IRQHandler                  0x080002cb   Thumb Code     0  startup_stm32h743xx.o(.text)
    DMA1_Stream5_IRQHandler                  0x080002cb   Thumb Code     0  startup_stm32h743xx.o(.text)
    DMA1_Stream6_IRQHandler                  0x080002cb   Thumb Code     0  startup_stm32h743xx.o(.text)
    DMA1_Stream7_IRQHandler                  0x080002cb   Thumb Code     0  startup_stm32h743xx.o(.text)
    DMA2D_IRQHandler                         0x080002cb   Thumb Code     0  startup_stm32h743xx.o(.text)
    DMA2_Stream0_IRQHandler                  0x080002cb   Thumb Code     0  startup_stm32h743xx.o(.text)
    DMA2_Stream1_IRQHandler                  0x080002cb   Thumb Code     0  startup_stm32h743xx.o(.text)
    DMA2_Stream2_IRQHandler                  0x080002cb   Thumb Code     0  startup_stm32h743xx.o(.text)
    DMA2_Stream3_IRQHandler                  0x080002cb   Thumb Code     0  startup_stm32h743xx.o(.text)
    DMA2_Stream4_IRQHandler                  0x080002cb   Thumb Code     0  startup_stm32h743xx.o(.text)
    DMA2_Stream5_IRQHandler                  0x080002cb   Thumb Code     0  startup_stm32h743xx.o(.text)
    DMA2_Stream6_IRQHandler                  0x080002cb   Thumb Code     0  startup_stm32h743xx.o(.text)
    DMA2_Stream7_IRQHandler                  0x080002cb   Thumb Code     0  startup_stm32h743xx.o(.text)
    DMAMUX1_OVR_IRQHandler                   0x080002cb   Thumb Code     0  startup_stm32h743xx.o(.text)
    DMAMUX2_OVR_IRQHandler                   0x080002cb   Thumb Code     0  startup_stm32h743xx.o(.text)
    ECC_IRQHandler                           0x080002cb   Thumb Code     0  startup_stm32h743xx.o(.text)
    EXTI0_IRQHandler                         0x080002cb   Thumb Code     0  startup_stm32h743xx.o(.text)
    EXTI15_10_IRQHandler                     0x080002cb   Thumb Code     0  startup_stm32h743xx.o(.text)
    EXTI1_IRQHandler                         0x080002cb   Thumb Code     0  startup_stm32h743xx.o(.text)
    EXTI2_IRQHandler                         0x080002cb   Thumb Code     0  startup_stm32h743xx.o(.text)
    EXTI3_IRQHandler                         0x080002cb   Thumb Code     0  startup_stm32h743xx.o(.text)
    EXTI4_IRQHandler                         0x080002cb   Thumb Code     0  startup_stm32h743xx.o(.text)
    EXTI9_5_IRQHandler                       0x080002cb   Thumb Code     0  startup_stm32h743xx.o(.text)
    FDCAN1_IT0_IRQHandler                    0x080002cb   Thumb Code     0  startup_stm32h743xx.o(.text)
    FDCAN1_IT1_IRQHandler                    0x080002cb   Thumb Code     0  startup_stm32h743xx.o(.text)
    FDCAN2_IT0_IRQHandler                    0x080002cb   Thumb Code     0  startup_stm32h743xx.o(.text)
    FDCAN2_IT1_IRQHandler                    0x080002cb   Thumb Code     0  startup_stm32h743xx.o(.text)
    FDCAN_CAL_IRQHandler                     0x080002cb   Thumb Code     0  startup_stm32h743xx.o(.text)
    FLASH_IRQHandler                         0x080002cb   Thumb Code     0  startup_stm32h743xx.o(.text)
    FMC_IRQHandler                           0x080002cb   Thumb Code     0  startup_stm32h743xx.o(.text)
    FPU_IRQHandler                           0x080002cb   Thumb Code     0  startup_stm32h743xx.o(.text)
    HRTIM1_FLT_IRQHandler                    0x080002cb   Thumb Code     0  startup_stm32h743xx.o(.text)
    HRTIM1_Master_IRQHandler                 0x080002cb   Thumb Code     0  startup_stm32h743xx.o(.text)
    HRTIM1_TIMA_IRQHandler                   0x080002cb   Thumb Code     0  startup_stm32h743xx.o(.text)
    HRTIM1_TIMB_IRQHandler                   0x080002cb   Thumb Code     0  startup_stm32h743xx.o(.text)
    HRTIM1_TIMC_IRQHandler                   0x080002cb   Thumb Code     0  startup_stm32h743xx.o(.text)
    HRTIM1_TIMD_IRQHandler                   0x080002cb   Thumb Code     0  startup_stm32h743xx.o(.text)
    HRTIM1_TIME_IRQHandler                   0x080002cb   Thumb Code     0  startup_stm32h743xx.o(.text)
    HSEM1_IRQHandler                         0x080002cb   Thumb Code     0  startup_stm32h743xx.o(.text)
    I2C1_ER_IRQHandler                       0x080002cb   Thumb Code     0  startup_stm32h743xx.o(.text)
    I2C1_EV_IRQHandler                       0x080002cb   Thumb Code     0  startup_stm32h743xx.o(.text)
    I2C2_ER_IRQHandler                       0x080002cb   Thumb Code     0  startup_stm32h743xx.o(.text)
    I2C2_EV_IRQHandler                       0x080002cb   Thumb Code     0  startup_stm32h743xx.o(.text)
    I2C3_ER_IRQHandler                       0x080002cb   Thumb Code     0  startup_stm32h743xx.o(.text)
    I2C3_EV_IRQHandler                       0x080002cb   Thumb Code     0  startup_stm32h743xx.o(.text)
    I2C4_ER_IRQHandler                       0x080002cb   Thumb Code     0  startup_stm32h743xx.o(.text)
    I2C4_EV_IRQHandler                       0x080002cb   Thumb Code     0  startup_stm32h743xx.o(.text)
    JPEG_IRQHandler                          0x080002cb   Thumb Code     0  startup_stm32h743xx.o(.text)
    LPTIM1_IRQHandler                        0x080002cb   Thumb Code     0  startup_stm32h743xx.o(.text)
    LPTIM2_IRQHandler                        0x080002cb   Thumb Code     0  startup_stm32h743xx.o(.text)
    LPTIM3_IRQHandler                        0x080002cb   Thumb Code     0  startup_stm32h743xx.o(.text)
    LPTIM4_IRQHandler                        0x080002cb   Thumb Code     0  startup_stm32h743xx.o(.text)
    LPTIM5_IRQHandler                        0x080002cb   Thumb Code     0  startup_stm32h743xx.o(.text)
    LPUART1_IRQHandler                       0x080002cb   Thumb Code     0  startup_stm32h743xx.o(.text)
    LTDC_ER_IRQHandler                       0x080002cb   Thumb Code     0  startup_stm32h743xx.o(.text)
    LTDC_IRQHandler                          0x080002cb   Thumb Code     0  startup_stm32h743xx.o(.text)
    MDIOS_IRQHandler                         0x080002cb   Thumb Code     0  startup_stm32h743xx.o(.text)
    MDIOS_WKUP_IRQHandler                    0x080002cb   Thumb Code     0  startup_stm32h743xx.o(.text)
    MDMA_IRQHandler                          0x080002cb   Thumb Code     0  startup_stm32h743xx.o(.text)
    OTG_FS_EP1_IN_IRQHandler                 0x080002cb   Thumb Code     0  startup_stm32h743xx.o(.text)
    OTG_FS_EP1_OUT_IRQHandler                0x080002cb   Thumb Code     0  startup_stm32h743xx.o(.text)
    OTG_FS_IRQHandler                        0x080002cb   Thumb Code     0  startup_stm32h743xx.o(.text)
    OTG_FS_WKUP_IRQHandler                   0x080002cb   Thumb Code     0  startup_stm32h743xx.o(.text)
    OTG_HS_EP1_IN_IRQHandler                 0x080002cb   Thumb Code     0  startup_stm32h743xx.o(.text)
    OTG_HS_EP1_OUT_IRQHandler                0x080002cb   Thumb Code     0  startup_stm32h743xx.o(.text)
    OTG_HS_IRQHandler                        0x080002cb   Thumb Code     0  startup_stm32h743xx.o(.text)
    OTG_HS_WKUP_IRQHandler                   0x080002cb   Thumb Code     0  startup_stm32h743xx.o(.text)
    PVD_AVD_IRQHandler                       0x080002cb   Thumb Code     0  startup_stm32h743xx.o(.text)
    QUADSPI_IRQHandler                       0x080002cb   Thumb Code     0  startup_stm32h743xx.o(.text)
    RCC_IRQHandler                           0x080002cb   Thumb Code     0  startup_stm32h743xx.o(.text)
    RNG_IRQHandler                           0x080002cb   Thumb Code     0  startup_stm32h743xx.o(.text)
    RTC_Alarm_IRQHandler                     0x080002cb   Thumb Code     0  startup_stm32h743xx.o(.text)
    RTC_WKUP_IRQHandler                      0x080002cb   Thumb Code     0  startup_stm32h743xx.o(.text)
    SAI1_IRQHandler                          0x080002cb   Thumb Code     0  startup_stm32h743xx.o(.text)
    SAI2_IRQHandler                          0x080002cb   Thumb Code     0  startup_stm32h743xx.o(.text)
    SAI3_IRQHandler                          0x080002cb   Thumb Code     0  startup_stm32h743xx.o(.text)
    SAI4_IRQHandler                          0x080002cb   Thumb Code     0  startup_stm32h743xx.o(.text)
    SDMMC1_IRQHandler                        0x080002cb   Thumb Code     0  startup_stm32h743xx.o(.text)
    SDMMC2_IRQHandler                        0x080002cb   Thumb Code     0  startup_stm32h743xx.o(.text)
    SPDIF_RX_IRQHandler                      0x080002cb   Thumb Code     0  startup_stm32h743xx.o(.text)
    SPI1_IRQHandler                          0x080002cb   Thumb Code     0  startup_stm32h743xx.o(.text)
    SPI2_IRQHandler                          0x080002cb   Thumb Code     0  startup_stm32h743xx.o(.text)
    SPI3_IRQHandler                          0x080002cb   Thumb Code     0  startup_stm32h743xx.o(.text)
    SPI4_IRQHandler                          0x080002cb   Thumb Code     0  startup_stm32h743xx.o(.text)
    SPI5_IRQHandler                          0x080002cb   Thumb Code     0  startup_stm32h743xx.o(.text)
    SPI6_IRQHandler                          0x080002cb   Thumb Code     0  startup_stm32h743xx.o(.text)
    SWPMI1_IRQHandler                        0x080002cb   Thumb Code     0  startup_stm32h743xx.o(.text)
    TAMP_STAMP_IRQHandler                    0x080002cb   Thumb Code     0  startup_stm32h743xx.o(.text)
    TIM15_IRQHandler                         0x080002cb   Thumb Code     0  startup_stm32h743xx.o(.text)
    TIM16_IRQHandler                         0x080002cb   Thumb Code     0  startup_stm32h743xx.o(.text)
    TIM17_IRQHandler                         0x080002cb   Thumb Code     0  startup_stm32h743xx.o(.text)
    TIM1_BRK_IRQHandler                      0x080002cb   Thumb Code     0  startup_stm32h743xx.o(.text)
    TIM1_CC_IRQHandler                       0x080002cb   Thumb Code     0  startup_stm32h743xx.o(.text)
    TIM1_TRG_COM_IRQHandler                  0x080002cb   Thumb Code     0  startup_stm32h743xx.o(.text)
    TIM1_UP_IRQHandler                       0x080002cb   Thumb Code     0  startup_stm32h743xx.o(.text)
    TIM2_IRQHandler                          0x080002cb   Thumb Code     0  startup_stm32h743xx.o(.text)
    TIM3_IRQHandler                          0x080002cb   Thumb Code     0  startup_stm32h743xx.o(.text)
    TIM4_IRQHandler                          0x080002cb   Thumb Code     0  startup_stm32h743xx.o(.text)
    TIM5_IRQHandler                          0x080002cb   Thumb Code     0  startup_stm32h743xx.o(.text)
    TIM6_DAC_IRQHandler                      0x080002cb   Thumb Code     0  startup_stm32h743xx.o(.text)
    TIM7_IRQHandler                          0x080002cb   Thumb Code     0  startup_stm32h743xx.o(.text)
    TIM8_BRK_TIM12_IRQHandler                0x080002cb   Thumb Code     0  startup_stm32h743xx.o(.text)
    TIM8_CC_IRQHandler                       0x080002cb   Thumb Code     0  startup_stm32h743xx.o(.text)
    TIM8_TRG_COM_TIM14_IRQHandler            0x080002cb   Thumb Code     0  startup_stm32h743xx.o(.text)
    TIM8_UP_TIM13_IRQHandler                 0x080002cb   Thumb Code     0  startup_stm32h743xx.o(.text)
    UART4_IRQHandler                         0x080002cb   Thumb Code     0  startup_stm32h743xx.o(.text)
    UART5_IRQHandler                         0x080002cb   Thumb Code     0  startup_stm32h743xx.o(.text)
    UART7_IRQHandler                         0x080002cb   Thumb Code     0  startup_stm32h743xx.o(.text)
    UART8_IRQHandler                         0x080002cb   Thumb Code     0  startup_stm32h743xx.o(.text)
    USART2_IRQHandler                        0x080002cb   Thumb Code     0  startup_stm32h743xx.o(.text)
    USART3_IRQHandler                        0x080002cb   Thumb Code     0  startup_stm32h743xx.o(.text)
    USART6_IRQHandler                        0x080002cb   Thumb Code     0  startup_stm32h743xx.o(.text)
    WAKEUP_PIN_IRQHandler                    0x080002cb   Thumb Code     0  startup_stm32h743xx.o(.text)
    WWDG_IRQHandler                          0x080002cb   Thumb Code     0  startup_stm32h743xx.o(.text)
    __aeabi_uldivmod                         0x080002d5   Thumb Code    98  uldiv.o(.text)
    rand                                     0x08000339   Thumb Code    20  rand.o(.text)
    srand                                    0x0800034d   Thumb Code     6  rand.o(.text)
    ___aeabi_memcpy8$move                    0x0800035d   Thumb Code     0  memmovea.o(.text)
    __aeabi_memcpy                           0x0800035d   Thumb Code    64  memmovea.o(.text)
    __aeabi_memcpy4                          0x0800035d   Thumb Code     0  memmovea.o(.text)
    __aeabi_memmove                          0x0800035d   Thumb Code     0  memmovea.o(.text)
    __aeabi_memmove4                         0x0800035d   Thumb Code     0  memmovea.o(.text)
    __aeabi_memmove8                         0x0800035d   Thumb Code     0  memmovea.o(.text)
    __aeabi_memset                           0x0800039d   Thumb Code    14  memseta.o(.text)
    __aeabi_memset4                          0x0800039d   Thumb Code     0  memseta.o(.text)
    __aeabi_memset8                          0x0800039d   Thumb Code     0  memseta.o(.text)
    __aeabi_memclr                           0x080003ab   Thumb Code     4  memseta.o(.text)
    __aeabi_memclr4                          0x080003ab   Thumb Code     0  memseta.o(.text)
    __aeabi_memclr8                          0x080003ab   Thumb Code     0  memseta.o(.text)
    _memset$wrapper                          0x080003af   Thumb Code    18  memseta.o(.text)
    strlen                                   0x080003c1   Thumb Code    14  strlen.o(.text)
    memcmp                                   0x080003cf   Thumb Code    26  memcmp.o(.text)
    __aeabi_uidiv                            0x080003e9   Thumb Code     0  uidiv.o(.text)
    __aeabi_uidivmod                         0x080003e9   Thumb Code    44  uidiv.o(.text)
    __aeabi_llsl                             0x08000415   Thumb Code    30  llshl.o(.text)
    _ll_shift_l                              0x08000415   Thumb Code     0  llshl.o(.text)
    __aeabi_llsr                             0x08000433   Thumb Code    32  llushr.o(.text)
    _ll_ushift_r                             0x08000433   Thumb Code     0  llushr.o(.text)
    __scatterload                            0x08000455   Thumb Code    28  init.o(.text)
    __scatterload_rt2                        0x08000455   Thumb Code     0  init.o(.text)
    __decompress                             0x08000479   Thumb Code     0  __dczerorl2.o(.text)
    __decompress1                            0x08000479   Thumb Code    86  __dczerorl2.o(.text)
    BusFault_Handler                         0x080004cf   Thumb Code     4  stm32h7xx_it.o(i.BusFault_Handler)
    DebugMon_Handler                         0x080004d3   Thumb Code     2  stm32h7xx_it.o(i.DebugMon_Handler)
    ETH_IRQHandler                           0x08000589   Thumb Code    26  lwip.o(i.ETH_IRQHandler)
    ETH_PHY_IO_DeInit                        0x080006b3   Thumb Code     4  ethernetif.o(i.ETH_PHY_IO_DeInit)
    ETH_PHY_IO_GetTick                       0x080006b7   Thumb Code     8  ethernetif.o(i.ETH_PHY_IO_GetTick)
    ETH_PHY_IO_Init                          0x080006c1   Thumb Code    12  ethernetif.o(i.ETH_PHY_IO_Init)
    ETH_PHY_IO_ReadReg                       0x080006d1   Thumb Code    32  ethernetif.o(i.ETH_PHY_IO_ReadReg)
    ETH_PHY_IO_WriteReg                      0x080006f5   Thumb Code    32  ethernetif.o(i.ETH_PHY_IO_WriteReg)
    ETH_WKUP_IRQHandler                      0x08000dd1   Thumb Code    10  stm32h7xx_it.o(i.ETH_WKUP_IRQHandler)
    Error_Handler                            0x08000de1   Thumb Code     6  main.o(i.Error_Handler)
    HAL_DMA_Abort                            0x08000e11   Thumb Code  1236  stm32h7xx_hal_dma.o(i.HAL_DMA_Abort)
    HAL_DMA_Abort_IT                         0x080012ed   Thumb Code   906  stm32h7xx_hal_dma.o(i.HAL_DMA_Abort_IT)
    HAL_ETH_EEECallback                      0x08001685   Thumb Code     2  stm32h7xx_hal_eth.o(i.HAL_ETH_EEECallback)
    HAL_ETH_ErrorCallback                    0x08001687   Thumb Code     2  stm32h7xx_hal_eth.o(i.HAL_ETH_ErrorCallback)
    HAL_ETH_GetMACConfig                     0x08001689   Thumb Code   470  stm32h7xx_hal_eth.o(i.HAL_ETH_GetMACConfig)
    HAL_ETH_IRQHandler                       0x08001861   Thumb Code   444  stm32h7xx_hal_eth.o(i.HAL_ETH_IRQHandler)
    HAL_ETH_Init                             0x08001a21   Thumb Code   346  stm32h7xx_hal_eth.o(i.HAL_ETH_Init)
    HAL_ETH_MspInit                          0x08001b89   Thumb Code   516  ethernetif.o(i.HAL_ETH_MspInit)
    HAL_ETH_PMTCallback                      0x08001db1   Thumb Code     2  stm32h7xx_hal_eth.o(i.HAL_ETH_PMTCallback)
    HAL_ETH_ReadData                         0x08001db3   Thumb Code   256  stm32h7xx_hal_eth.o(i.HAL_ETH_ReadData)
    HAL_ETH_ReadPHYRegister                  0x08001eb3   Thumb Code   120  stm32h7xx_hal_eth.o(i.HAL_ETH_ReadPHYRegister)
    HAL_ETH_RxAllocateCallback               0x08001f2d   Thumb Code    60  ethernetif.o(i.HAL_ETH_RxAllocateCallback)
    HAL_ETH_RxCpltCallback                   0x08001f75   Thumb Code     2  stm32h7xx_hal_eth.o(i.HAL_ETH_RxCpltCallback)
    HAL_ETH_RxLinkCallback                   0x08001f79   Thumb Code   158  ethernetif.o(i.HAL_ETH_RxLinkCallback)
    HAL_ETH_SetMACConfig                     0x0800201d   Thumb Code    36  stm32h7xx_hal_eth.o(i.HAL_ETH_SetMACConfig)
    HAL_ETH_SetMDIOClockRange                0x08002041   Thumb Code   100  stm32h7xx_hal_eth.o(i.HAL_ETH_SetMDIOClockRange)
    HAL_ETH_Start_IT                         0x080020b9   Thumb Code   216  stm32h7xx_hal_eth.o(i.HAL_ETH_Start_IT)
    HAL_ETH_Stop                             0x08002199   Thumb Code   116  stm32h7xx_hal_eth.o(i.HAL_ETH_Stop)
    HAL_ETH_Transmit                         0x0800220d   Thumb Code   246  stm32h7xx_hal_eth.o(i.HAL_ETH_Transmit)
    HAL_ETH_TxCpltCallback                   0x08002303   Thumb Code     2  stm32h7xx_hal_eth.o(i.HAL_ETH_TxCpltCallback)
    HAL_ETH_WakeUpCallback                   0x08002305   Thumb Code     2  stm32h7xx_hal_eth.o(i.HAL_ETH_WakeUpCallback)
    HAL_ETH_WritePHYRegister                 0x08002309   Thumb Code   118  stm32h7xx_hal_eth.o(i.HAL_ETH_WritePHYRegister)
    HAL_GPIO_Init                            0x08002389   Thumb Code   456  stm32h7xx_hal_gpio.o(i.HAL_GPIO_Init)
    HAL_GPIO_WritePin                        0x08002585   Thumb Code    12  stm32h7xx_hal_gpio.o(i.HAL_GPIO_WritePin)
    HAL_GetREVID                             0x08002591   Thumb Code     8  stm32h7xx_hal.o(i.HAL_GetREVID)
    HAL_GetTick                              0x0800259d   Thumb Code     6  stm32h7xx_hal.o(i.HAL_GetTick)
    HAL_IncTick                              0x080025a9   Thumb Code    16  stm32h7xx_hal.o(i.HAL_IncTick)
    HAL_Init                                 0x080025c1   Thumb Code    80  stm32h7xx_hal.o(i.HAL_Init)
    HAL_InitTick                             0x08002621   Thumb Code    74  stm32h7xx_hal.o(i.HAL_InitTick)
    HAL_MPU_ConfigRegion                     0x08002679   Thumb Code    88  stm32h7xx_hal_cortex.o(i.HAL_MPU_ConfigRegion)
    HAL_MPU_Disable                          0x080026d5   Thumb Code    38  stm32h7xx_hal_cortex.o(i.HAL_MPU_Disable)
    HAL_MPU_Enable                           0x08002701   Thumb Code    58  stm32h7xx_hal_cortex.o(i.HAL_MPU_Enable)
    HAL_MspInit                              0x08002741   Thumb Code    32  stm32h7xx_hal_msp.o(i.HAL_MspInit)
    HAL_NVIC_EnableIRQ                       0x08002765   Thumb Code    40  stm32h7xx_hal_cortex.o(i.HAL_NVIC_EnableIRQ)
    HAL_NVIC_SetPriority                     0x0800278d   Thumb Code   122  stm32h7xx_hal_cortex.o(i.HAL_NVIC_SetPriority)
    HAL_NVIC_SetPriorityGrouping             0x08002809   Thumb Code    32  stm32h7xx_hal_cortex.o(i.HAL_NVIC_SetPriorityGrouping)
    HAL_PWREx_ConfigSupply                   0x08002831   Thumb Code    90  stm32h7xx_hal_pwr_ex.o(i.HAL_PWREx_ConfigSupply)
    HAL_RCCEx_GetD3PCLK1Freq                 0x08002891   Thumb Code    26  stm32h7xx_hal_rcc_ex.o(i.HAL_RCCEx_GetD3PCLK1Freq)
    HAL_RCCEx_GetPLL2ClockFreq               0x080028b5   Thumb Code   536  stm32h7xx_hal_rcc_ex.o(i.HAL_RCCEx_GetPLL2ClockFreq)
    HAL_RCCEx_GetPLL3ClockFreq               0x08002ae5   Thumb Code   536  stm32h7xx_hal_rcc_ex.o(i.HAL_RCCEx_GetPLL3ClockFreq)
    HAL_RCCEx_PeriphCLKConfig                0x08002d15   Thumb Code  3432  stm32h7xx_hal_rcc_ex.o(i.HAL_RCCEx_PeriphCLKConfig)
    HAL_RCC_ClockConfig                      0x08003a7d   Thumb Code   774  stm32h7xx_hal_rcc.o(i.HAL_RCC_ClockConfig)
    HAL_RCC_GetHCLKFreq                      0x08003d9d   Thumb Code    60  stm32h7xx_hal_rcc.o(i.HAL_RCC_GetHCLKFreq)
    HAL_RCC_GetPCLK1Freq                     0x08003de9   Thumb Code    26  stm32h7xx_hal_rcc.o(i.HAL_RCC_GetPCLK1Freq)
    HAL_RCC_GetPCLK2Freq                     0x08003e0d   Thumb Code    26  stm32h7xx_hal_rcc.o(i.HAL_RCC_GetPCLK2Freq)
    HAL_RCC_GetSysClockFreq                  0x08003e31   Thumb Code   524  stm32h7xx_hal_rcc.o(i.HAL_RCC_GetSysClockFreq)
    HAL_RCC_OscConfig                        0x0800405d   Thumb Code  2130  stm32h7xx_hal_rcc.o(i.HAL_RCC_OscConfig)
    HAL_SYSCFG_ETHInterfaceSelect            0x080048b5   Thumb Code    16  stm32h7xx_hal.o(i.HAL_SYSCFG_ETHInterfaceSelect)
    HAL_SYSTICK_Config                       0x080048c9   Thumb Code    52  stm32h7xx_hal_cortex.o(i.HAL_SYSTICK_Config)
    HAL_UARTEx_DisableFifoMode               0x080048fd   Thumb Code    78  stm32h7xx_hal_uart_ex.o(i.HAL_UARTEx_DisableFifoMode)
    HAL_UARTEx_RxEventCallback               0x0800494b   Thumb Code     2  stm32h7xx_hal_uart.o(i.HAL_UARTEx_RxEventCallback)
    HAL_UARTEx_RxFifoFullCallback            0x0800494d   Thumb Code     2  stm32h7xx_hal_uart_ex.o(i.HAL_UARTEx_RxFifoFullCallback)
    HAL_UARTEx_SetRxFifoThreshold            0x0800494f   Thumb Code    94  stm32h7xx_hal_uart_ex.o(i.HAL_UARTEx_SetRxFifoThreshold)
    HAL_UARTEx_SetTxFifoThreshold            0x080049ad   Thumb Code    94  stm32h7xx_hal_uart_ex.o(i.HAL_UARTEx_SetTxFifoThreshold)
    HAL_UARTEx_TxFifoEmptyCallback           0x08004a0b   Thumb Code     2  stm32h7xx_hal_uart_ex.o(i.HAL_UARTEx_TxFifoEmptyCallback)
    HAL_UARTEx_WakeupCallback                0x08004a0d   Thumb Code     2  stm32h7xx_hal_uart_ex.o(i.HAL_UARTEx_WakeupCallback)
    HAL_UART_ErrorCallback                   0x08004a0f   Thumb Code     2  stm32h7xx_hal_uart.o(i.HAL_UART_ErrorCallback)
    HAL_UART_IRQHandler                      0x08004a11   Thumb Code  1172  stm32h7xx_hal_uart.o(i.HAL_UART_IRQHandler)
    HAL_UART_Init                            0x08004ea5   Thumb Code   120  stm32h7xx_hal_uart.o(i.HAL_UART_Init)
    HAL_UART_MspInit                         0x08004f1d   Thumb Code   184  usart.o(i.HAL_UART_MspInit)
    HAL_UART_TxCpltCallback                  0x08004fe1   Thumb Code     2  stm32h7xx_hal_uart.o(i.HAL_UART_TxCpltCallback)
    HardFault_Handler                        0x08004fe3   Thumb Code     4  stm32h7xx_it.o(i.HardFault_Handler)
    LAN8742_GetLinkState                     0x08004fe7   Thumb Code   232  lan8742.o(i.LAN8742_GetLinkState)
    LAN8742_Init                             0x080050cf   Thumb Code   254  lan8742.o(i.LAN8742_Init)
    LAN8742_RegisterBusIO                    0x080051cd   Thumb Code    46  lan8742.o(i.LAN8742_RegisterBusIO)
    MX_GPIO_Init                             0x0800525d   Thumb Code   284  gpio.o(i.MX_GPIO_Init)
    MX_LWIP_Init                             0x08005381   Thumb Code   536  lwip.o(i.MX_LWIP_Init)
    MX_LWIP_Process                          0x080055c1   Thumb Code    14  lwip.o(i.MX_LWIP_Process)
    MX_USART1_UART_Init                      0x080055d5   Thumb Code    98  usart.o(i.MX_USART1_UART_Init)
    MemManage_Handler                        0x08005641   Thumb Code     4  stm32h7xx_it.o(i.MemManage_Handler)
    NMI_Handler                              0x08005645   Thumb Code     4  stm32h7xx_it.o(i.NMI_Handler)
    PendSV_Handler                           0x08005649   Thumb Code     2  stm32h7xx_it.o(i.PendSV_Handler)
    SVC_Handler                              0x08005915   Thumb Code     2  stm32h7xx_it.o(i.SVC_Handler)
    SysTick_Handler                          0x08005917   Thumb Code     8  stm32h7xx_it.o(i.SysTick_Handler)
    SystemClock_Config                       0x08005921   Thumb Code   302  main.o(i.SystemClock_Config)
    SystemInit                               0x08005a5d   Thumb Code   212  system_stm32h7xx.o(i.SystemInit)
    TCP_Client_Init                          0x08005b59   Thumb Code    88  tcp_client.o(i.TCP_Client_Init)
    TCP_Client_Task                          0x08005bfd   Thumb Code    38  tcp_client.o(i.TCP_Client_Task)
    TCP_Server_Init                          0x08005c29   Thumb Code    92  tcp_server.o(i.TCP_Server_Init)
    UART_AdvFeatureConfig                    0x08005d2d   Thumb Code   248  stm32h7xx_hal_uart.o(i.UART_AdvFeatureConfig)
    UART_CheckIdleState                      0x08005e25   Thumb Code   234  stm32h7xx_hal_uart.o(i.UART_CheckIdleState)
    UART_SetConfig                           0x08005fc5   Thumb Code  1402  stm32h7xx_hal_uart.o(i.UART_SetConfig)
    UART_WaitOnFlagUntilTimeout              0x08006551   Thumb Code   162  stm32h7xx_hal_uart.o(i.UART_WaitOnFlagUntilTimeout)
    USART1_IRQHandler                        0x080065f5   Thumb Code    10  stm32h7xx_it.o(i.USART1_IRQHandler)
    Udp_Lwip_Init                            0x08006605   Thumb Code    90  lwip_udp.o(i.Udp_Lwip_Init)
    UsageFault_Handler                       0x0800667d   Thumb Code     4  stm32h7xx_it.o(i.UsageFault_Handler)
    __0printf$3                              0x08006681   Thumb Code    22  printf3.o(i.__0printf$3)
    __1printf$3                              0x08006681   Thumb Code     0  printf3.o(i.__0printf$3)
    __2printf                                0x08006681   Thumb Code     0  printf3.o(i.__0printf$3)
    __scatterload_copy                       0x080066d9   Thumb Code    14  handlers.o(i.__scatterload_copy)
    __scatterload_null                       0x080066e7   Thumb Code     2  handlers.o(i.__scatterload_null)
    __scatterload_zeroinit                   0x080066e9   Thumb Code    14  handlers.o(i.__scatterload_zeroinit)
    client_set_remote_ip                     0x08006969   Thumb Code   266  tcp_client.o(i.client_set_remote_ip)
    etharp_cleanup_netif                     0x08006be1   Thumb Code    50  etharp.o(i.etharp_cleanup_netif)
    etharp_input                             0x08006f59   Thumb Code   202  etharp.o(i.etharp_input)
    etharp_output                            0x08007095   Thumb Code   396  etharp.o(i.etharp_output)
    etharp_query                             0x08007421   Thumb Code   474  etharp.o(i.etharp_query)
    etharp_request                           0x08007851   Thumb Code    18  etharp.o(i.etharp_request)
    etharp_tmr                               0x08007895   Thumb Code   214  etharp.o(i.etharp_tmr)
    ethernet_input                           0x08007acd   Thumb Code   190  ethernet.o(i.ethernet_input)
    ethernet_link_check_state                0x08007b91   Thumb Code   196  ethernetif.o(i.ethernet_link_check_state)
    ethernet_output                          0x08007cbd   Thumb Code   112  ethernet.o(i.ethernet_output)
    ethernetif_init                          0x08007dc1   Thumb Code    58  ethernetif.o(i.ethernetif_init)
    ethernetif_input                         0x08007e59   Thumb Code    90  ethernetif.o(i.ethernetif_input)
    fputc                                    0x08007ebd   Thumb Code    22  main.o(i.fputc)
    icmp_dest_unreach                        0x08007ed9   Thumb Code    18  icmp.o(i.icmp_dest_unreach)
    icmp_input                               0x08007eed   Thumb Code   466  icmp.o(i.icmp_input)
    icmp_time_exceeded                       0x080082b5   Thumb Code    18  icmp.o(i.icmp_time_exceeded)
    inet_chksum                              0x080082c7   Thumb Code    20  inet_chksum.o(i.inet_chksum)
    inet_chksum_pbuf                         0x080082db   Thumb Code    86  inet_chksum.o(i.inet_chksum_pbuf)
    ip4_addr_isbroadcast_u32                 0x08008331   Thumb Code    78  ip4_addr.o(i.ip4_addr_isbroadcast_u32)
    ip4_frag                                 0x08008381   Thumb Code   536  ip4_frag.o(i.ip4_frag)
    ip4_input                                0x0800864d   Thumb Code   402  ip4.o(i.ip4_input)
    ip4_output_if                            0x0800881d   Thumb Code    54  ip4.o(i.ip4_output_if)
    ip4_output_if_src                        0x08008855   Thumb Code   250  ip4.o(i.ip4_output_if_src)
    ip4_reass                                0x080089f1   Thumb Code   584  ip4_frag.o(i.ip4_reass)
    ip4_route                                0x08008ced   Thumb Code   140  ip4.o(i.ip4_route)
    ip_reass_tmr                             0x080094a9   Thumb Code    48  ip4_frag.o(i.ip_reass_tmr)
    lwip_htonl                               0x080098c1   Thumb Code    26  def.o(i.lwip_htonl)
    lwip_htons                               0x080098db   Thumb Code    12  def.o(i.lwip_htons)
    lwip_init                                0x080098e9   Thumb Code    64  init.o(i.lwip_init)
    lwip_standard_chksum                     0x08009985   Thumb Code    94  inet_chksum.o(i.lwip_standard_chksum)
    lwip_udp_discollected                    0x080099e5   Thumb Code    32  lwip_udp.o(i.lwip_udp_discollected)
    lwip_udp_recv_callback                   0x08009a09   Thumb Code   220  lwip_udp.o(i.lwip_udp_recv_callback)
    lwip_udp_register                        0x08009ae9   Thumb Code    22  lwip_udp.o(i.lwip_udp_register)
    lwip_udp_send                            0x08009b05   Thumb Code    50  lwip_udp.o(i.lwip_udp_send)
    lwip_udp_set_remote_ip                   0x08009b3d   Thumb Code   260  lwip_udp.o(i.lwip_udp_set_remote_ip)
    main                                     0x08009c4d   Thumb Code   236  main.o(i.main)
    mem_free                                 0x08009d41   Thumb Code   194  mem.o(i.mem_free)
    mem_init                                 0x08009f05   Thumb Code    72  mem.o(i.mem_init)
    mem_malloc                               0x08009fb5   Thumb Code   402  mem.o(i.mem_malloc)
    mem_trim                                 0x0800a26d   Thumb Code   388  mem.o(i.mem_trim)
    memp_free                                0x0800a4a1   Thumb Code    54  memp.o(i.memp_free)
    memp_free_pool                           0x0800a551   Thumb Code    50  memp.o(i.memp_free_pool)
    memp_init                                0x0800a5f1   Thumb Code    26  memp.o(i.memp_init)
    memp_init_pool                           0x0800a611   Thumb Code    44  memp.o(i.memp_init_pool)
    memp_malloc                              0x0800a63d   Thumb Code    50  memp.o(i.memp_malloc)
    memp_malloc_pool                         0x0800a6ed   Thumb Code    44  memp.o(i.memp_malloc_pool)
    netif_add                                0x0800a785   Thumb Code   318  netif.o(i.netif_add)
    netif_get_by_index                       0x0800aafd   Thumb Code    36  netif.o(i.netif_get_by_index)
    netif_init                               0x0800ab25   Thumb Code     2  netif.o(i.netif_init)
    netif_set_addr                           0x0800ac09   Thumb Code    92  netif.o(i.netif_set_addr)
    netif_set_default                        0x0800ac69   Thumb Code     6  netif.o(i.netif_set_default)
    netif_set_down                           0x0800ac75   Thumb Code    78  netif.o(i.netif_set_down)
    netif_set_link_callback                  0x0800ad41   Thumb Code     6  netif.o(i.netif_set_link_callback)
    netif_set_link_down                      0x0800ad49   Thumb Code    76  netif.o(i.netif_set_link_down)
    netif_set_link_up                        0x0800ae15   Thumb Code    84  netif.o(i.netif_set_link_up)
    netif_set_up                             0x0800aee9   Thumb Code    70  netif.o(i.netif_set_up)
    pbuf_add_header                          0x0800afa9   Thumb Code    18  pbuf.o(i.pbuf_add_header)
    pbuf_alloc                               0x0800b0a5   Thumb Code   414  pbuf.o(i.pbuf_alloc)
    pbuf_alloc_reference                     0x0800b349   Thumb Code    78  pbuf.o(i.pbuf_alloc_reference)
    pbuf_alloced_custom                      0x0800b405   Thumb Code    82  pbuf.o(i.pbuf_alloced_custom)
    pbuf_cat                                 0x0800b459   Thumb Code   126  pbuf.o(i.pbuf_cat)
    pbuf_chain                               0x0800b5a9   Thumb Code    22  pbuf.o(i.pbuf_chain)
    pbuf_clen                                0x0800b5bf   Thumb Code    18  pbuf.o(i.pbuf_clen)
    pbuf_clone                               0x0800b5d1   Thumb Code    68  pbuf.o(i.pbuf_clone)
    pbuf_copy                                0x0800b681   Thumb Code   304  pbuf.o(i.pbuf_copy)
    pbuf_copy_partial                        0x0800b8a9   Thumb Code   164  pbuf.o(i.pbuf_copy_partial)
    pbuf_free                                0x0800b9e9   Thumb Code   230  pbuf.o(i.pbuf_free)
    pbuf_free_custom                         0x0800bb85   Thumb Code    30  ethernetif.o(i.pbuf_free_custom)
    pbuf_free_ooseq                          0x0800bbad   Thumb Code    40  pbuf.o(i.pbuf_free_ooseq)
    pbuf_header_force                        0x0800bbdd   Thumb Code    18  pbuf.o(i.pbuf_header_force)
    pbuf_realloc                             0x0800bc41   Thumb Code   194  pbuf.o(i.pbuf_realloc)
    pbuf_ref                                 0x0800bda9   Thumb Code    48  pbuf.o(i.pbuf_ref)
    pbuf_remove_header                       0x0800be45   Thumb Code   110  pbuf.o(i.pbuf_remove_header)
    pbuf_take                                0x0800bf39   Thumb Code   234  pbuf.o(i.pbuf_take)
    server_set_local_ip                      0x0800c2e9   Thumb Code   258  tcp_server.o(i.server_set_local_ip)
    sys_check_timeouts                       0x0800c3f9   Thumb Code    88  timeouts.o(i.sys_check_timeouts)
    sys_now                                  0x0800c45d   Thumb Code     8  ethernetif.o(i.sys_now)
    sys_timeout                              0x0800c465   Thumb Code    58  timeouts.o(i.sys_timeout)
    sys_timeouts_init                        0x0800c675   Thumb Code    30  timeouts.o(i.sys_timeouts_init)
    tcp_abandon                              0x0800c69d   Thumb Code   284  tcp.o(i.tcp_abandon)
    tcp_abort                                0x0800c871   Thumb Code    14  tcp.o(i.tcp_abort)
    tcp_accept                               0x0800c87f   Thumb Code    16  tcp.o(i.tcp_accept)
    tcp_alloc                                0x0800c939   Thumb Code   176  tcp.o(i.tcp_alloc)
    tcp_arg                                  0x0800c9f5   Thumb Code     6  tcp.o(i.tcp_arg)
    tcp_bind                                 0x0800c9fd   Thumb Code   204  tcp.o(i.tcp_bind)
    tcp_client_connection_close              0x0800cb6d   Thumb Code    68  tcp_client.o(i.tcp_client_connection_close)
    tcp_close                                0x0800cd81   Thumb Code    64  tcp.o(i.tcp_close)
    tcp_connect                              0x0800d125   Thumb Code   402  tcp.o(i.tcp_connect)
    tcp_eff_send_mss_netif                   0x0800d559   Thumb Code    82  tcp.o(i.tcp_eff_send_mss_netif)
    tcp_enqueue_flags                        0x0800d62d   Thumb Code   408  tcp_out.o(i.tcp_enqueue_flags)
    tcp_err                                  0x0800d8ed   Thumb Code    44  tcp.o(i.tcp_err)
    tcp_fasttmr                              0x0800d999   Thumb Code   142  tcp.o(i.tcp_fasttmr)
    tcp_free                                 0x0800da35   Thumb Code    40  tcp.o(i.tcp_free)
    tcp_free_ooseq                           0x0800dcc1   Thumb Code    20  tcp.o(i.tcp_free_ooseq)
    tcp_init                                 0x0800dd51   Thumb Code    20  tcp.o(i.tcp_init)
    tcp_input                                0x0800dd69   Thumb Code  1996  tcp_in.o(i.tcp_input)
    tcp_keepalive                            0x0800e669   Thumb Code    98  tcp_out.o(i.tcp_keepalive)
    tcp_listen_with_backlog                  0x0800eb81   Thumb Code    18  tcp.o(i.tcp_listen_with_backlog)
    tcp_listen_with_backlog_and_err          0x0800eb95   Thumb Code   246  tcp.o(i.tcp_listen_with_backlog_and_err)
    tcp_netif_ip_addr_changed                0x0800ed59   Thumb Code    64  tcp.o(i.tcp_netif_ip_addr_changed)
    tcp_new                                  0x0800ee75   Thumb Code    10  tcp.o(i.tcp_new)
    tcp_next_iss                             0x0800eee9   Thumb Code    50  tcp.o(i.tcp_next_iss)
    tcp_output                               0x0800f0c5   Thumb Code   684  tcp_out.o(i.tcp_output)
    tcp_pcb_purge                            0x0800fdf1   Thumb Code   104  tcp.o(i.tcp_pcb_purge)
    tcp_pcb_remove                           0x0800fecd   Thumb Code   246  tcp.o(i.tcp_pcb_remove)
    tcp_poll                                 0x080100a5   Thumb Code    74  tcp.o(i.tcp_poll)
    tcp_process_refused_data                 0x080108c5   Thumb Code   182  tcp.o(i.tcp_process_refused_data)
    tcp_recv                                 0x08011679   Thumb Code    44  tcp.o(i.tcp_recv)
    tcp_recv_null                            0x08011725   Thumb Code    78  tcp.o(i.tcp_recv_null)
    tcp_recved                               0x080117e9   Thumb Code   132  tcp.o(i.tcp_recved)
    tcp_rexmit                               0x080119b9   Thumb Code   142  tcp_out.o(i.tcp_rexmit)
    tcp_rexmit_fast                          0x08011abd   Thumb Code   142  tcp_out.o(i.tcp_rexmit_fast)
    tcp_rexmit_rto                           0x08011bc9   Thumb Code    46  tcp_out.o(i.tcp_rexmit_rto)
    tcp_rexmit_rto_commit                    0x08011c71   Thumb Code    56  tcp_out.o(i.tcp_rexmit_rto_commit)
    tcp_rexmit_rto_prepare                   0x08011d29   Thumb Code   150  tcp_out.o(i.tcp_rexmit_rto_prepare)
    tcp_rst                                  0x08011e61   Thumb Code   146  tcp_out.o(i.tcp_rst)
    tcp_seg_copy                             0x08011f89   Thumb Code    62  tcp.o(i.tcp_seg_copy)
    tcp_seg_free                             0x0801203d   Thumb Code    26  tcp.o(i.tcp_seg_free)
    tcp_segs_free                            0x08012057   Thumb Code    24  tcp.o(i.tcp_segs_free)
    tcp_send_empty_ack                       0x08012071   Thumb Code   194  tcp_out.o(i.tcp_send_empty_ack)
    tcp_send_fin                             0x080121b1   Thumb Code   104  tcp_out.o(i.tcp_send_fin)
    tcp_sent                                 0x08012291   Thumb Code    44  tcp.o(i.tcp_sent)
    tcp_slowtmr                              0x08012549   Thumb Code  1698  tcp.o(i.tcp_slowtmr)
    tcp_split_unsent_seg                     0x08012c79   Thumb Code   510  tcp_out.o(i.tcp_split_unsent_seg)
    tcp_timer_needed                         0x08012f49   Thumb Code    38  timeouts.o(i.tcp_timer_needed)
    tcp_tmr                                  0x080130c5   Thumb Code    30  tcp.o(i.tcp_tmr)
    tcp_trigger_input_pcb_close              0x080130e9   Thumb Code    14  tcp_in.o(i.tcp_trigger_input_pcb_close)
    tcp_update_rcv_ann_wnd                   0x080130fd   Thumb Code   128  tcp.o(i.tcp_update_rcv_ann_wnd)
    tcp_write                                0x08013215   Thumb Code  1918  tcp_out.o(i.tcp_write)
    tcp_zero_window_probe                    0x08013bed   Thumb Code   238  tcp_out.o(i.tcp_zero_window_probe)
    udp_bind                                 0x08013d95   Thumb Code   172  udp.o(i.udp_bind)
    udp_connect                              0x08013eb9   Thumb Code   158  udp.o(i.udp_connect)
    udp_disconnect                           0x08013fed   Thumb Code    56  udp.o(i.udp_disconnect)
    udp_init                                 0x08014099   Thumb Code    20  udp.o(i.udp_init)
    udp_input                                0x080140b1   Thumb Code   412  udp.o(i.udp_input)
    udp_netif_ip_addr_changed                0x08014435   Thumb Code    42  udp.o(i.udp_netif_ip_addr_changed)
    udp_new                                  0x08014465   Thumb Code    28  udp.o(i.udp_new)
    udp_recv                                 0x080144d9   Thumb Code    44  udp.o(i.udp_recv)
    udp_remove                               0x08014575   Thumb Code    94  udp.o(i.udp_remove)
    udp_send                                 0x08014649   Thumb Code    84  udp.o(i.udp_send)
    udp_sendto                               0x08014725   Thumb Code   156  udp.o(i.udp_sendto)
    udp_sendto_if                            0x08014869   Thumb Code   200  udp.o(i.udp_sendto_if)
    udp_sendto_if_src                        0x08014a01   Thumb Code   384  udp.o(i.udp_sendto_if_src)
    memp_RX_POOL                             0x08014cb4   Data          12  ethernetif.o(.constdata)
    UARTPrescTable                           0x08014cd4   Data          24  stm32h7xx_hal_uart.o(.constdata)
    D1CorePrescTable                         0x08014cfc   Data          16  system_stm32h7xx.o(.constdata)
    ethbroadcast                             0x08014d0c   Data           6  ethernet.o(.constdata)
    ethzero                                  0x08014d12   Data           6  ethernet.o(.constdata)
    memp_UDP_PCB                             0x08014d18   Data          12  memp.o(.constdata)
    memp_TCP_PCB                             0x08014d24   Data          12  memp.o(.constdata)
    memp_TCP_PCB_LISTEN                      0x08014d30   Data          12  memp.o(.constdata)
    memp_TCP_SEG                             0x08014d3c   Data          12  memp.o(.constdata)
    memp_REASSDATA                           0x08014d48   Data          12  memp.o(.constdata)
    memp_FRAG_PBUF                           0x08014d54   Data          12  memp.o(.constdata)
    memp_SYS_TIMEOUT                         0x08014d60   Data          12  memp.o(.constdata)
    memp_PBUF                                0x08014d6c   Data          12  memp.o(.constdata)
    memp_PBUF_POOL                           0x08014d78   Data          12  memp.o(.constdata)
    memp_pools                               0x08014d84   Data          36  memp.o(.constdata)
    tcp_pcb_lists                            0x08014de8   Data          16  tcp.o(.constdata)
    lwip_cyclic_timers                       0x08014df8   Data          24  timeouts.o(.constdata)
    lwip_num_cyclic_timers                   0x08014e10   Data           4  timeouts.o(.constdata)
    ip_addr_any                              0x08014e14   Data           4  ip4_addr.o(.constdata)
    ip_addr_broadcast                        0x08014e18   Data           4  ip4_addr.o(.constdata)
    Region$$Table$$Base                      0x08014f74   Number         0  anon$$obj.o(Region$$Table)
    Region$$Table$$Limit                     0x08014f94   Number         0  anon$$obj.o(Region$$Table)
    LAN8742_IOCtx                            0x24000008   Data          20  ethernetif.o(.data)
    EthernetLinkTimer                        0x2400001c   Data           4  lwip.o(.data)
    ipaddr                                   0x24000020   Data           4  lwip.o(.data)
    netmask                                  0x24000024   Data           4  lwip.o(.data)
    gw                                       0x24000028   Data           4  lwip.o(.data)
    IP_ADDRESS                               0x2400002c   Data           4  lwip.o(.data)
    NETMASK_ADDRESS                          0x24000030   Data           4  lwip.o(.data)
    GATEWAY_ADDRESS                          0x24000034   Data           4  lwip.o(.data)
    udp_send_buffer                          0x24000040   Data        1600  lwip_udp.o(.data)
    udp_recv_buffer                          0x24000680   Data        1600  lwip_udp.o(.data)
    udp_device                               0x24000cc0   Data          52  lwip_udp.o(.data)
    client_send_buffer                       0x24000d00   Data        1600  tcp_client.o(.data)
    client_recv_buffer                       0x24001340   Data        1600  tcp_client.o(.data)
    client_device                            0x24001980   Data          60  tcp_client.o(.data)
    server_send_buffer                       0x240019c0   Data        1600  tcp_server.o(.data)
    server_recv_buffer                       0x24002000   Data        1600  tcp_server.o(.data)
    server_device                            0x24002640   Data          52  tcp_server.o(.data)
    uwTick                                   0x24002674   Data           4  stm32h7xx_hal.o(.data)
    uwTickPrio                               0x24002678   Data           4  stm32h7xx_hal.o(.data)
    uwTickFreq                               0x2400267c   Data           1  stm32h7xx_hal.o(.data)
    SystemCoreClock                          0x24002680   Data           4  system_stm32h7xx.o(.data)
    SystemD2Clock                            0x24002684   Data           4  system_stm32h7xx.o(.data)
    netif_list                               0x240026b8   Data           4  netif.o(.data)
    netif_default                            0x240026bc   Data           4  netif.o(.data)
    pbuf_free_ooseq_pending                  0x240026c1   Data           1  pbuf.o(.data)
    tcp_ticks                                0x240026c8   Data           4  tcp.o(.data)
    tcp_bound_pcbs                           0x240026cc   Data           4  tcp.o(.data)
    tcp_listen_pcbs                          0x240026d0   Data           4  tcp.o(.data)
    tcp_active_pcbs                          0x240026d4   Data           4  tcp.o(.data)
    tcp_tw_pcbs                              0x240026d8   Data           4  tcp.o(.data)
    tcp_active_pcbs_changed                  0x240026dc   Data           1  tcp.o(.data)
    tcp_input_pcb                            0x24002708   Data           4  tcp_in.o(.data)
    udp_pcbs                                 0x2400271c   Data           4  udp.o(.data)
    __stdout                                 0x24002730   Data           4  stdout.o(.data)
    RecvHandle                               0x24002734   Data        1504  main.o(.bss)
    huart1                                   0x24002d14   Data         148  usart.o(.bss)
    memp_memory_RX_POOL_base                 0x24002da8   Data       18819  ethernetif.o(.bss)
    heth                                     0x2400772c   Data         176  ethernetif.o(.bss)
    TxConfig                                 0x240077dc   Data          56  ethernetif.o(.bss)
    LAN8742                                  0x24007814   Data          32  ethernetif.o(.bss)
    gnetif                                   0x24007834   Data          52  lwip.o(.bss)
    ip_data                                  0x24007868   Data          24  ip.o(.bss)
    memp_memory_UDP_PCB_base                 0x24007880   Data         131  memp.o(.bss)
    memp_memory_TCP_PCB_base                 0x24007903   Data         783  memp.o(.bss)
    memp_memory_TCP_PCB_LISTEN_base          0x24007c12   Data         227  memp.o(.bss)
    memp_memory_TCP_SEG_base                 0x24007cf5   Data         259  memp.o(.bss)
    memp_memory_REASSDATA_base               0x24007df8   Data         163  memp.o(.bss)
    memp_memory_FRAG_PBUF_base               0x24007e9b   Data         363  memp.o(.bss)
    memp_memory_SYS_TIMEOUT_base             0x24008006   Data          51  memp.o(.bss)
    memp_memory_PBUF_base                    0x24008039   Data         259  memp.o(.bss)
    memp_memory_PBUF_POOL_base               0x2400813c   Data       24515  memp.o(.bss)
    __initial_sp                             0x2400e600   Data           0  startup_stm32h743xx.o(STACK)
    DMARxDscrTab                             0x30004000   Data          96  ethernetif.o(.ARM.__AT_0x30004000)
    DMATxDscrTab                             0x30004060   Data          96  ethernetif.o(.ARM.__AT_0x30004060)



==============================================================================

Memory Map of the image

  Image Entry point : 0x08000299

  Load Region LR_IROM1 (Base: 0x08000000, Size: 0x000176c8, Max: 0x00200000, ABSOLUTE, COMPRESSED[0x00015060])

    Execution Region ER_IROM1 (Exec base: 0x08000000, Load base: 0x08000000, Size: 0x00014f94, Max: 0x00200000, ABSOLUTE)

    Exec Addr    Load Addr    Size         Type   Attr      Idx    E Section Name        Object

    0x08000000   0x08000000   0x00000298   Data   RO            3    RESET               startup_stm32h743xx.o
    0x08000298   0x08000298   0x00000000   Code   RO         8847  * .ARM.Collect$$$$00000000  mc_w.l(entry.o)
    0x08000298   0x08000298   0x00000004   Code   RO         9162    .ARM.Collect$$$$00000001  mc_w.l(entry2.o)
    0x0800029c   0x0800029c   0x00000004   Code   RO         9165    .ARM.Collect$$$$00000004  mc_w.l(entry5.o)
    0x080002a0   0x080002a0   0x00000000   Code   RO         9167    .ARM.Collect$$$$00000008  mc_w.l(entry7b.o)
    0x080002a0   0x080002a0   0x00000000   Code   RO         9169    .ARM.Collect$$$$0000000A  mc_w.l(entry8b.o)
    0x080002a0   0x080002a0   0x00000008   Code   RO         9170    .ARM.Collect$$$$0000000B  mc_w.l(entry9a.o)
    0x080002a8   0x080002a8   0x00000004   Code   RO         9177    .ARM.Collect$$$$0000000E  mc_w.l(entry12b.o)
    0x080002ac   0x080002ac   0x00000000   Code   RO         9172    .ARM.Collect$$$$0000000F  mc_w.l(entry10a.o)
    0x080002ac   0x080002ac   0x00000000   Code   RO         9174    .ARM.Collect$$$$00000011  mc_w.l(entry11a.o)
    0x080002ac   0x080002ac   0x00000004   Code   RO         9163    .ARM.Collect$$$$00002712  mc_w.l(entry2.o)
    0x080002b0   0x080002b0   0x00000024   Code   RO            4    .text               startup_stm32h743xx.o
    0x080002d4   0x080002d4   0x00000062   Code   RO         8850    .text               mc_w.l(uldiv.o)
    0x08000336   0x08000336   0x00000002   PAD
    0x08000338   0x08000338   0x00000024   Code   RO         8880    .text               mc_w.l(rand.o)
    0x0800035c   0x0800035c   0x00000040   Code   RO         8885    .text               mc_w.l(memmovea.o)
    0x0800039c   0x0800039c   0x00000024   Code   RO         8887    .text               mc_w.l(memseta.o)
    0x080003c0   0x080003c0   0x0000000e   Code   RO         8889    .text               mc_w.l(strlen.o)
    0x080003ce   0x080003ce   0x0000001a   Code   RO         8891    .text               mc_w.l(memcmp.o)
    0x080003e8   0x080003e8   0x0000002c   Code   RO         9179    .text               mc_w.l(uidiv.o)
    0x08000414   0x08000414   0x0000001e   Code   RO         9181    .text               mc_w.l(llshl.o)
    0x08000432   0x08000432   0x00000020   Code   RO         9183    .text               mc_w.l(llushr.o)
    0x08000452   0x08000452   0x00000002   PAD
    0x08000454   0x08000454   0x00000024   Code   RO         9205    .text               mc_w.l(init.o)
    0x08000478   0x08000478   0x00000056   Code   RO         9223    .text               mc_w.l(__dczerorl2.o)
    0x080004ce   0x080004ce   0x00000004   Code   RO          405    i.BusFault_Handler  stm32h7xx_it.o
    0x080004d2   0x080004d2   0x00000002   Code   RO          406    i.DebugMon_Handler  stm32h7xx_it.o
    0x080004d4   0x080004d4   0x00000060   Code   RO         1413    i.ETH_DMARxDescListInit  stm32h7xx_hal_eth.o
    0x08000534   0x08000534   0x00000052   Code   RO         1414    i.ETH_DMATxDescListInit  stm32h7xx_hal_eth.o
    0x08000586   0x08000586   0x00000002   PAD
    0x08000588   0x08000588   0x00000024   Code   RO          671    i.ETH_IRQHandler    lwip.o
    0x080005ac   0x080005ac   0x00000106   Code   RO         1415    i.ETH_MACDMAConfig  stm32h7xx_hal_eth.o
    0x080006b2   0x080006b2   0x00000004   Code   RO          517    i.ETH_PHY_IO_DeInit  ethernetif.o
    0x080006b6   0x080006b6   0x00000008   Code   RO          518    i.ETH_PHY_IO_GetTick  ethernetif.o
    0x080006be   0x080006be   0x00000002   PAD
    0x080006c0   0x080006c0   0x00000010   Code   RO          519    i.ETH_PHY_IO_Init   ethernetif.o
    0x080006d0   0x080006d0   0x00000024   Code   RO          520    i.ETH_PHY_IO_ReadReg  ethernetif.o
    0x080006f4   0x080006f4   0x00000024   Code   RO          521    i.ETH_PHY_IO_WriteReg  ethernetif.o
    0x08000718   0x08000718   0x000003d0   Code   RO         1416    i.ETH_Prepare_Tx_Descriptors  stm32h7xx_hal_eth.o
    0x08000ae8   0x08000ae8   0x000000bc   Code   RO         1417    i.ETH_SetDMAConfig  stm32h7xx_hal_eth.o
    0x08000ba4   0x08000ba4   0x00000194   Code   RO         1418    i.ETH_SetMACConfig  stm32h7xx_hal_eth.o
    0x08000d38   0x08000d38   0x00000098   Code   RO         1419    i.ETH_UpdateDescriptor  stm32h7xx_hal_eth.o
    0x08000dd0   0x08000dd0   0x00000010   Code   RO          407    i.ETH_WKUP_IRQHandler  stm32h7xx_it.o
    0x08000de0   0x08000de0   0x00000006   Code   RO           13    i.Error_Handler     main.o
    0x08000de6   0x08000de6   0x00000002   PAD
    0x08000de8   0x08000de8   0x00000028   Code   RO          672    i.Ethernet_Link_Periodic_Handle  lwip.o
    0x08000e10   0x08000e10   0x000004dc   Code   RO         2618    i.HAL_DMA_Abort     stm32h7xx_hal_dma.o
    0x080012ec   0x080012ec   0x00000398   Code   RO         2619    i.HAL_DMA_Abort_IT  stm32h7xx_hal_dma.o
    0x08001684   0x08001684   0x00000002   Code   RO         1421    i.HAL_ETH_EEECallback  stm32h7xx_hal_eth.o
    0x08001686   0x08001686   0x00000002   Code   RO         1423    i.HAL_ETH_ErrorCallback  stm32h7xx_hal_eth.o
    0x08001688   0x08001688   0x000001d6   Code   RO         1428    i.HAL_ETH_GetMACConfig  stm32h7xx_hal_eth.o
    0x0800185e   0x0800185e   0x00000002   PAD
    0x08001860   0x08001860   0x000001c0   Code   RO         1434    i.HAL_ETH_IRQHandler  stm32h7xx_hal_eth.o
    0x08001a20   0x08001a20   0x00000168   Code   RO         1435    i.HAL_ETH_Init      stm32h7xx_hal_eth.o
    0x08001b88   0x08001b88   0x00000228   Code   RO          523    i.HAL_ETH_MspInit   ethernetif.o
    0x08001db0   0x08001db0   0x00000002   Code   RO         1438    i.HAL_ETH_PMTCallback  stm32h7xx_hal_eth.o
    0x08001db2   0x08001db2   0x00000100   Code   RO         1439    i.HAL_ETH_ReadData  stm32h7xx_hal_eth.o
    0x08001eb2   0x08001eb2   0x00000078   Code   RO         1440    i.HAL_ETH_ReadPHYRegister  stm32h7xx_hal_eth.o
    0x08001f2a   0x08001f2a   0x00000002   PAD
    0x08001f2c   0x08001f2c   0x00000048   Code   RO          524    i.HAL_ETH_RxAllocateCallback  ethernetif.o
    0x08001f74   0x08001f74   0x00000002   Code   RO         1446    i.HAL_ETH_RxCpltCallback  stm32h7xx_hal_eth.o
    0x08001f76   0x08001f76   0x00000002   PAD
    0x08001f78   0x08001f78   0x000000a4   Code   RO          525    i.HAL_ETH_RxLinkCallback  ethernetif.o
    0x0800201c   0x0800201c   0x00000024   Code   RO         1450    i.HAL_ETH_SetMACConfig  stm32h7xx_hal_eth.o
    0x08002040   0x08002040   0x00000078   Code   RO         1452    i.HAL_ETH_SetMDIOClockRange  stm32h7xx_hal_eth.o
    0x080020b8   0x080020b8   0x000000e0   Code   RO         1457    i.HAL_ETH_Start_IT  stm32h7xx_hal_eth.o
    0x08002198   0x08002198   0x00000074   Code   RO         1458    i.HAL_ETH_Stop      stm32h7xx_hal_eth.o
    0x0800220c   0x0800220c   0x000000f6   Code   RO         1460    i.HAL_ETH_Transmit  stm32h7xx_hal_eth.o
    0x08002302   0x08002302   0x00000002   Code   RO         1462    i.HAL_ETH_TxCpltCallback  stm32h7xx_hal_eth.o
    0x08002304   0x08002304   0x00000002   Code   RO         1467    i.HAL_ETH_WakeUpCallback  stm32h7xx_hal_eth.o
    0x08002306   0x08002306   0x00000002   PAD
    0x08002308   0x08002308   0x00000080   Code   RO         1468    i.HAL_ETH_WritePHYRegister  stm32h7xx_hal_eth.o
    0x08002388   0x08002388   0x000001fc   Code   RO         2466    i.HAL_GPIO_Init     stm32h7xx_hal_gpio.o
    0x08002584   0x08002584   0x0000000c   Code   RO         2470    i.HAL_GPIO_WritePin  stm32h7xx_hal_gpio.o
    0x08002590   0x08002590   0x0000000c   Code   RO         3484    i.HAL_GetREVID      stm32h7xx_hal.o
    0x0800259c   0x0800259c   0x0000000c   Code   RO         3485    i.HAL_GetTick       stm32h7xx_hal.o
    0x080025a8   0x080025a8   0x00000018   Code   RO         3491    i.HAL_IncTick       stm32h7xx_hal.o
    0x080025c0   0x080025c0   0x00000060   Code   RO         3492    i.HAL_Init          stm32h7xx_hal.o
    0x08002620   0x08002620   0x00000058   Code   RO         3493    i.HAL_InitTick      stm32h7xx_hal.o
    0x08002678   0x08002678   0x0000005c   Code   RO         3321    i.HAL_MPU_ConfigRegion  stm32h7xx_hal_cortex.o
    0x080026d4   0x080026d4   0x0000002c   Code   RO         3322    i.HAL_MPU_Disable   stm32h7xx_hal_cortex.o
    0x08002700   0x08002700   0x00000040   Code   RO         3323    i.HAL_MPU_Enable    stm32h7xx_hal_cortex.o
    0x08002740   0x08002740   0x00000024   Code   RO          493    i.HAL_MspInit       stm32h7xx_hal_msp.o
    0x08002764   0x08002764   0x00000028   Code   RO         3326    i.HAL_NVIC_EnableIRQ  stm32h7xx_hal_cortex.o
    0x0800278c   0x0800278c   0x0000007a   Code   RO         3332    i.HAL_NVIC_SetPriority  stm32h7xx_hal_cortex.o
    0x08002806   0x08002806   0x00000002   PAD
    0x08002808   0x08002808   0x00000028   Code   RO         3333    i.HAL_NVIC_SetPriorityGrouping  stm32h7xx_hal_cortex.o
    0x08002830   0x08002830   0x00000060   Code   RO         3067    i.HAL_PWREx_ConfigSupply  stm32h7xx_hal_pwr_ex.o
    0x08002890   0x08002890   0x00000024   Code   RO         2017    i.HAL_RCCEx_GetD3PCLK1Freq  stm32h7xx_hal_rcc_ex.o
    0x080028b4   0x080028b4   0x00000230   Code   RO         2019    i.HAL_RCCEx_GetPLL2ClockFreq  stm32h7xx_hal_rcc_ex.o
    0x08002ae4   0x08002ae4   0x00000230   Code   RO         2020    i.HAL_RCCEx_GetPLL3ClockFreq  stm32h7xx_hal_rcc_ex.o
    0x08002d14   0x08002d14   0x00000d68   Code   RO         2026    i.HAL_RCCEx_PeriphCLKConfig  stm32h7xx_hal_rcc_ex.o
    0x08003a7c   0x08003a7c   0x00000320   Code   RO         1902    i.HAL_RCC_ClockConfig  stm32h7xx_hal_rcc.o
    0x08003d9c   0x08003d9c   0x0000004c   Code   RO         1907    i.HAL_RCC_GetHCLKFreq  stm32h7xx_hal_rcc.o
    0x08003de8   0x08003de8   0x00000024   Code   RO         1909    i.HAL_RCC_GetPCLK1Freq  stm32h7xx_hal_rcc.o
    0x08003e0c   0x08003e0c   0x00000024   Code   RO         1910    i.HAL_RCC_GetPCLK2Freq  stm32h7xx_hal_rcc.o
    0x08003e30   0x08003e30   0x0000022c   Code   RO         1911    i.HAL_RCC_GetSysClockFreq  stm32h7xx_hal_rcc.o
    0x0800405c   0x0800405c   0x00000858   Code   RO         1914    i.HAL_RCC_OscConfig  stm32h7xx_hal_rcc.o
    0x080048b4   0x080048b4   0x00000014   Code   RO         3504    i.HAL_SYSCFG_ETHInterfaceSelect  stm32h7xx_hal.o
    0x080048c8   0x080048c8   0x00000034   Code   RO         3337    i.HAL_SYSTICK_Config  stm32h7xx_hal_cortex.o
    0x080048fc   0x080048fc   0x0000004e   Code   RO         4837    i.HAL_UARTEx_DisableFifoMode  stm32h7xx_hal_uart_ex.o
    0x0800494a   0x0800494a   0x00000002   Code   RO         4421    i.HAL_UARTEx_RxEventCallback  stm32h7xx_hal_uart.o
    0x0800494c   0x0800494c   0x00000002   Code   RO         4845    i.HAL_UARTEx_RxFifoFullCallback  stm32h7xx_hal_uart_ex.o
    0x0800494e   0x0800494e   0x0000005e   Code   RO         4846    i.HAL_UARTEx_SetRxFifoThreshold  stm32h7xx_hal_uart_ex.o
    0x080049ac   0x080049ac   0x0000005e   Code   RO         4847    i.HAL_UARTEx_SetTxFifoThreshold  stm32h7xx_hal_uart_ex.o
    0x08004a0a   0x08004a0a   0x00000002   Code   RO         4849    i.HAL_UARTEx_TxFifoEmptyCallback  stm32h7xx_hal_uart_ex.o
    0x08004a0c   0x08004a0c   0x00000002   Code   RO         4850    i.HAL_UARTEx_WakeupCallback  stm32h7xx_hal_uart_ex.o
    0x08004a0e   0x08004a0e   0x00000002   Code   RO         4437    i.HAL_UART_ErrorCallback  stm32h7xx_hal_uart.o
    0x08004a10   0x08004a10   0x00000494   Code   RO         4440    i.HAL_UART_IRQHandler  stm32h7xx_hal_uart.o
    0x08004ea4   0x08004ea4   0x00000078   Code   RO         4441    i.HAL_UART_Init     stm32h7xx_hal_uart.o
    0x08004f1c   0x08004f1c   0x000000c4   Code   RO          364    i.HAL_UART_MspInit  usart.o
    0x08004fe0   0x08004fe0   0x00000002   Code   RO         4453    i.HAL_UART_TxCpltCallback  stm32h7xx_hal_uart.o
    0x08004fe2   0x08004fe2   0x00000004   Code   RO          408    i.HardFault_Handler  stm32h7xx_it.o
    0x08004fe6   0x08004fe6   0x000000e8   Code   RO         1329    i.LAN8742_GetLinkState  lan8742.o
    0x080050ce   0x080050ce   0x000000fe   Code   RO         1330    i.LAN8742_Init      lan8742.o
    0x080051cc   0x080051cc   0x0000002e   Code   RO         1331    i.LAN8742_RegisterBusIO  lan8742.o
    0x080051fa   0x080051fa   0x00000002   PAD
    0x080051fc   0x080051fc   0x00000060   Code   RO           14    i.MPU_Config        main.o
    0x0800525c   0x0800525c   0x00000124   Code   RO          331    i.MX_GPIO_Init      gpio.o
    0x08005380   0x08005380   0x00000240   Code   RO          673    i.MX_LWIP_Init      lwip.o
    0x080055c0   0x080055c0   0x00000014   Code   RO          674    i.MX_LWIP_Process   lwip.o
    0x080055d4   0x080055d4   0x0000006c   Code   RO          365    i.MX_USART1_UART_Init  usart.o
    0x08005640   0x08005640   0x00000004   Code   RO          409    i.MemManage_Handler  stm32h7xx_it.o
    0x08005644   0x08005644   0x00000004   Code   RO          410    i.NMI_Handler       stm32h7xx_it.o
    0x08005648   0x08005648   0x00000002   Code   RO          411    i.PendSV_Handler    stm32h7xx_it.o
    0x0800564a   0x0800564a   0x00000002   PAD
    0x0800564c   0x0800564c   0x00000164   Code   RO         2029    i.RCCEx_PLL2_Config  stm32h7xx_hal_rcc_ex.o
    0x080057b0   0x080057b0   0x00000164   Code   RO         2030    i.RCCEx_PLL3_Config  stm32h7xx_hal_rcc_ex.o
    0x08005914   0x08005914   0x00000002   Code   RO          412    i.SVC_Handler       stm32h7xx_it.o
    0x08005916   0x08005916   0x00000008   Code   RO          413    i.SysTick_Handler   stm32h7xx_it.o
    0x0800591e   0x0800591e   0x00000002   PAD
    0x08005920   0x08005920   0x0000013c   Code   RO           15    i.SystemClock_Config  main.o
    0x08005a5c   0x08005a5c   0x000000fc   Code   RO         4961    i.SystemInit        system_stm32h7xx.o
    0x08005b58   0x08005b58   0x000000a4   Code   RO          860    i.TCP_Client_Init   tcp_client.o
    0x08005bfc   0x08005bfc   0x0000002c   Code   RO          861    i.TCP_Client_Task   tcp_client.o
    0x08005c28   0x08005c28   0x000000ac   Code   RO         1025    i.TCP_Server_Init   tcp_server.o
    0x08005cd4   0x08005cd4   0x00000058   Code   RO         4851    i.UARTEx_SetNbDataToProcess  stm32h7xx_hal_uart_ex.o
    0x08005d2c   0x08005d2c   0x000000f8   Code   RO         4455    i.UART_AdvFeatureConfig  stm32h7xx_hal_uart.o
    0x08005e24   0x08005e24   0x000000ea   Code   RO         4456    i.UART_CheckIdleState  stm32h7xx_hal_uart.o
    0x08005f0e   0x08005f0e   0x00000018   Code   RO         4457    i.UART_DMAAbortOnError  stm32h7xx_hal_uart.o
    0x08005f26   0x08005f26   0x00000002   PAD
    0x08005f28   0x08005f28   0x0000006c   Code   RO         4467    i.UART_EndRxTransfer  stm32h7xx_hal_uart.o
    0x08005f94   0x08005f94   0x00000030   Code   RO         4468    i.UART_EndTransmit_IT  stm32h7xx_hal_uart.o
    0x08005fc4   0x08005fc4   0x0000058c   Code   RO         4474    i.UART_SetConfig    stm32h7xx_hal_uart.o
    0x08006550   0x08006550   0x000000a2   Code   RO         4481    i.UART_WaitOnFlagUntilTimeout  stm32h7xx_hal_uart.o
    0x080065f2   0x080065f2   0x00000002   PAD
    0x080065f4   0x080065f4   0x00000010   Code   RO          414    i.USART1_IRQHandler  stm32h7xx_it.o
    0x08006604   0x08006604   0x00000078   Code   RO          784    i.Udp_Lwip_Init     lwip_udp.o
    0x0800667c   0x0800667c   0x00000004   Code   RO          415    i.UsageFault_Handler  stm32h7xx_it.o
    0x08006680   0x08006680   0x00000020   Code   RO         8988    i.__0printf$3       mc_w.l(printf3.o)
    0x080066a0   0x080066a0   0x00000010   Code   RO         3339    i.__NVIC_GetPriorityGrouping  stm32h7xx_hal_cortex.o
    0x080066b0   0x080066b0   0x00000028   Code   RO         3340    i.__NVIC_SetPriority  stm32h7xx_hal_cortex.o
    0x080066d8   0x080066d8   0x0000000e   Code   RO         9217    i.__scatterload_copy  mc_w.l(handlers.o)
    0x080066e6   0x080066e6   0x00000002   Code   RO         9218    i.__scatterload_null  mc_w.l(handlers.o)
    0x080066e8   0x080066e8   0x0000000e   Code   RO         9219    i.__scatterload_zeroinit  mc_w.l(handlers.o)
    0x080066f6   0x080066f6   0x00000002   PAD
    0x080066f8   0x080066f8   0x000001b8   Code   RO         8995    i._printf_core      mc_w.l(printf3.o)
    0x080068b0   0x080068b0   0x0000006c   Code   RO          862    i.client_connected  tcp_client.o
    0x0800691c   0x0800691c   0x0000004c   Code   RO          863    i.client_polling_cbk  tcp_client.o
    0x08006968   0x08006968   0x00000118   Code   RO          864    i.client_set_remote_ip  tcp_client.o
    0x08006a80   0x08006a80   0x000000ac   Code   RO         6492    i.do_memp_free_pool  memp.o
    0x08006b2c   0x08006b2c   0x000000b4   Code   RO         6493    i.do_memp_malloc_pool  memp.o
    0x08006be0   0x08006be0   0x00000038   Code   RO         7990    i.etharp_cleanup_netif  etharp.o
    0x08006c18   0x08006c18   0x00000300   Code   RO         7992    i.etharp_find_entry  etharp.o
    0x08006f18   0x08006f18   0x00000040   Code   RO         7993    i.etharp_free_entry  etharp.o
    0x08006f58   0x08006f58   0x0000013c   Code   RO         7995    i.etharp_input      etharp.o
    0x08007094   0x08007094   0x00000224   Code   RO         7996    i.etharp_output     etharp.o
    0x080072b8   0x080072b8   0x00000168   Code   RO         7997    i.etharp_output_to_arp_index  etharp.o
    0x08007420   0x08007420   0x000002a4   Code   RO         7998    i.etharp_query      etharp.o
    0x080076c4   0x080076c4   0x0000018c   Code   RO         7999    i.etharp_raw        etharp.o
    0x08007850   0x08007850   0x00000018   Code   RO         8000    i.etharp_request    etharp.o
    0x08007868   0x08007868   0x0000002c   Code   RO         8001    i.etharp_request_dst  etharp.o
    0x08007894   0x08007894   0x000000dc   Code   RO         8002    i.etharp_tmr        etharp.o
    0x08007970   0x08007970   0x0000015c   Code   RO         8003    i.etharp_update_arp_entry  etharp.o
    0x08007acc   0x08007acc   0x000000c4   Code   RO         5651    i.ethernet_input    ethernet.o
    0x08007b90   0x08007b90   0x000000cc   Code   RO          527    i.ethernet_link_check_state  ethernetif.o
    0x08007c5c   0x08007c5c   0x00000060   Code   RO          675    i.ethernet_link_status_updated  lwip.o
    0x08007cbc   0x08007cbc   0x00000104   Code   RO         5652    i.ethernet_output   ethernet.o
    0x08007dc0   0x08007dc0   0x00000098   Code   RO          528    i.ethernetif_init   ethernetif.o
    0x08007e58   0x08007e58   0x00000064   Code   RO          529    i.ethernetif_input  ethernetif.o
    0x08007ebc   0x08007ebc   0x0000001c   Code   RO           16    i.fputc             main.o
    0x08007ed8   0x08007ed8   0x00000012   Code   RO         8097    i.icmp_dest_unreach  icmp.o
    0x08007eea   0x08007eea   0x00000002   PAD
    0x08007eec   0x08007eec   0x000002a4   Code   RO         8098    i.icmp_input        icmp.o
    0x08008190   0x08008190   0x00000124   Code   RO         8099    i.icmp_send_response  icmp.o
    0x080082b4   0x080082b4   0x00000012   Code   RO         8100    i.icmp_time_exceeded  icmp.o
    0x080082c6   0x080082c6   0x00000014   Code   RO         6224    i.inet_chksum       inet_chksum.o
    0x080082da   0x080082da   0x00000056   Code   RO         6225    i.inet_chksum_pbuf  inet_chksum.o
    0x08008330   0x08008330   0x0000004e   Code   RO         8227    i.ip4_addr_isbroadcast_u32  ip4_addr.o
    0x0800837e   0x0800837e   0x00000002   PAD
    0x08008380   0x08008380   0x000002cc   Code   RO         8299    i.ip4_frag          ip4_frag.o
    0x0800864c   0x0800864c   0x0000019c   Code   RO         8168    i.ip4_input         ip4.o
    0x080087e8   0x080087e8   0x00000034   Code   RO         8169    i.ip4_input_accept  ip4.o
    0x0800881c   0x0800881c   0x00000036   Code   RO         8171    i.ip4_output_if     ip4.o
    0x08008852   0x08008852   0x00000002   PAD
    0x08008854   0x08008854   0x0000019c   Code   RO         8172    i.ip4_output_if_src  ip4.o
    0x080089f0   0x080089f0   0x000002fc   Code   RO         8300    i.ip4_reass         ip4_frag.o
    0x08008cec   0x08008cec   0x00000094   Code   RO         8173    i.ip4_route         ip4.o
    0x08008d80   0x08008d80   0x0000000a   Code   RO         8301    i.ip_frag_alloc_pbuf_custom_ref  ip4_frag.o
    0x08008d8a   0x08008d8a   0x00000002   PAD
    0x08008d8c   0x08008d8c   0x00000098   Code   RO         8302    i.ip_frag_free_pbuf_custom_ref  ip4_frag.o
    0x08008e24   0x08008e24   0x00000304   Code   RO         8303    i.ip_reass_chain_frag_into_datagram_and_validate  ip4_frag.o
    0x08009128   0x08009128   0x000000c4   Code   RO         8304    i.ip_reass_dequeue_datagram  ip4_frag.o
    0x080091ec   0x080091ec   0x00000054   Code   RO         8305    i.ip_reass_enqueue_new_datagram  ip4_frag.o
    0x08009240   0x08009240   0x000001e0   Code   RO         8306    i.ip_reass_free_complete_datagram  ip4_frag.o
    0x08009420   0x08009420   0x00000088   Code   RO         8307    i.ip_reass_remove_oldest_datagram  ip4_frag.o
    0x080094a8   0x080094a8   0x00000034   Code   RO         8308    i.ip_reass_tmr      ip4_frag.o
    0x080094dc   0x080094dc   0x000000c8   Code   RO         8309    i.ipfrag_free_pbuf_custom  ip4_frag.o
    0x080095a4   0x080095a4   0x000000fc   Code   RO          530    i.low_level_init    ethernetif.o
    0x080096a0   0x080096a0   0x000000a4   Code   RO          531    i.low_level_input   ethernetif.o
    0x08009744   0x08009744   0x0000012c   Code   RO          532    i.low_level_output  ethernetif.o
    0x08009870   0x08009870   0x00000050   Code   RO         7720    i.lwip_cyclic_timer  timeouts.o
    0x080098c0   0x080098c0   0x0000001a   Code   RO         6144    i.lwip_htonl        def.o
    0x080098da   0x080098da   0x0000000c   Code   RO         6145    i.lwip_htons        def.o
    0x080098e6   0x080098e6   0x00000002   PAD
    0x080098e8   0x080098e8   0x0000009c   Code   RO         6308    i.lwip_init         init.o
    0x08009984   0x08009984   0x0000005e   Code   RO         6232    i.lwip_standard_chksum  inet_chksum.o
    0x080099e2   0x080099e2   0x00000002   PAD
    0x080099e4   0x080099e4   0x00000024   Code   RO          785    i.lwip_udp_discollected  lwip_udp.o
    0x08009a08   0x08009a08   0x000000e0   Code   RO          786    i.lwip_udp_recv_callback  lwip_udp.o
    0x08009ae8   0x08009ae8   0x0000001c   Code   RO          787    i.lwip_udp_register  lwip_udp.o
    0x08009b04   0x08009b04   0x00000038   Code   RO          788    i.lwip_udp_send     lwip_udp.o
    0x08009b3c   0x08009b3c   0x00000110   Code   RO          789    i.lwip_udp_set_remote_ip  lwip_udp.o
    0x08009c4c   0x08009c4c   0x000000f4   Code   RO           17    i.main              main.o
    0x08009d40   0x08009d40   0x000001c4   Code   RO         6419    i.mem_free          mem.o
    0x08009f04   0x08009f04   0x00000058   Code   RO         6420    i.mem_init          mem.o
    0x08009f5c   0x08009f5c   0x00000058   Code   RO         6421    i.mem_link_valid    mem.o
    0x08009fb4   0x08009fb4   0x000002a8   Code   RO         6422    i.mem_malloc        mem.o
    0x0800a25c   0x0800a25c   0x00000010   Code   RO         6423    i.mem_to_ptr        mem.o
    0x0800a26c   0x0800a26c   0x00000234   Code   RO         6424    i.mem_trim          mem.o
    0x0800a4a0   0x0800a4a0   0x000000b0   Code   RO         6494    i.memp_free         memp.o
    0x0800a550   0x0800a550   0x000000a0   Code   RO         6495    i.memp_free_pool    memp.o
    0x0800a5f0   0x0800a5f0   0x00000020   Code   RO         6496    i.memp_init         memp.o
    0x0800a610   0x0800a610   0x0000002c   Code   RO         6497    i.memp_init_pool    memp.o
    0x0800a63c   0x0800a63c   0x000000b0   Code   RO         6498    i.memp_malloc       memp.o
    0x0800a6ec   0x0800a6ec   0x00000098   Code   RO         6499    i.memp_malloc_pool  memp.o
    0x0800a784   0x0800a784   0x00000230   Code   RO         6605    i.netif_add         netif.o
    0x0800a9b4   0x0800a9b4   0x00000018   Code   RO         6607    i.netif_do_ip_addr_changed  netif.o
    0x0800a9cc   0x0800a9cc   0x00000026   Code   RO         6608    i.netif_do_set_gw   netif.o
    0x0800a9f2   0x0800a9f2   0x00000002   PAD
    0x0800a9f4   0x0800a9f4   0x000000e0   Code   RO         6609    i.netif_do_set_ipaddr  netif.o
    0x0800aad4   0x0800aad4   0x00000026   Code   RO         6610    i.netif_do_set_netmask  netif.o
    0x0800aafa   0x0800aafa   0x00000002   PAD
    0x0800aafc   0x0800aafc   0x00000028   Code   RO         6612    i.netif_get_by_index  netif.o
    0x0800ab24   0x0800ab24   0x00000002   Code   RO         6614    i.netif_init        netif.o
    0x0800ab26   0x0800ab26   0x00000002   PAD
    0x0800ab28   0x0800ab28   0x000000d8   Code   RO         6616    i.netif_issue_reports  netif.o
    0x0800ac00   0x0800ac00   0x00000008   Code   RO         6618    i.netif_null_output_ip4  netif.o
    0x0800ac08   0x0800ac08   0x00000060   Code   RO         6620    i.netif_set_addr    netif.o
    0x0800ac68   0x0800ac68   0x0000000c   Code   RO         6621    i.netif_set_default  netif.o
    0x0800ac74   0x0800ac74   0x000000cc   Code   RO         6622    i.netif_set_down    netif.o
    0x0800ad40   0x0800ad40   0x00000006   Code   RO         6625    i.netif_set_link_callback  netif.o
    0x0800ad46   0x0800ad46   0x00000002   PAD
    0x0800ad48   0x0800ad48   0x000000cc   Code   RO         6626    i.netif_set_link_down  netif.o
    0x0800ae14   0x0800ae14   0x000000d4   Code   RO         6627    i.netif_set_link_up  netif.o
    0x0800aee8   0x0800aee8   0x000000c0   Code   RO         6629    i.netif_set_up      netif.o
    0x0800afa8   0x0800afa8   0x00000012   Code   RO         6798    i.pbuf_add_header   pbuf.o
    0x0800afba   0x0800afba   0x00000002   PAD
    0x0800afbc   0x0800afbc   0x000000e8   Code   RO         6800    i.pbuf_add_header_impl  pbuf.o
    0x0800b0a4   0x0800b0a4   0x000002a4   Code   RO         6801    i.pbuf_alloc        pbuf.o
    0x0800b348   0x0800b348   0x000000bc   Code   RO         6802    i.pbuf_alloc_reference  pbuf.o
    0x0800b404   0x0800b404   0x00000052   Code   RO         6803    i.pbuf_alloced_custom  pbuf.o
    0x0800b456   0x0800b456   0x00000002   PAD
    0x0800b458   0x0800b458   0x00000150   Code   RO         6804    i.pbuf_cat          pbuf.o
    0x0800b5a8   0x0800b5a8   0x00000016   Code   RO         6805    i.pbuf_chain        pbuf.o
    0x0800b5be   0x0800b5be   0x00000012   Code   RO         6806    i.pbuf_clen         pbuf.o
    0x0800b5d0   0x0800b5d0   0x000000b0   Code   RO         6807    i.pbuf_clone        pbuf.o
    0x0800b680   0x0800b680   0x00000228   Code   RO         6809    i.pbuf_copy         pbuf.o
    0x0800b8a8   0x0800b8a8   0x00000140   Code   RO         6810    i.pbuf_copy_partial  pbuf.o
    0x0800b9e8   0x0800b9e8   0x0000019c   Code   RO         6812    i.pbuf_free         pbuf.o
    0x0800bb84   0x0800bb84   0x00000028   Code   RO          533    i.pbuf_free_custom  ethernetif.o
    0x0800bbac   0x0800bbac   0x00000030   Code   RO         6814    i.pbuf_free_ooseq   pbuf.o
    0x0800bbdc   0x0800bbdc   0x00000012   Code   RO         6818    i.pbuf_header_force  pbuf.o
    0x0800bbee   0x0800bbee   0x00000022   Code   RO         6819    i.pbuf_header_impl  pbuf.o
    0x0800bc10   0x0800bc10   0x0000001e   Code   RO         6820    i.pbuf_init_alloced_pbuf  pbuf.o
    0x0800bc2e   0x0800bc2e   0x00000002   PAD
    0x0800bc30   0x0800bc30   0x00000010   Code   RO         6823    i.pbuf_pool_is_empty  pbuf.o
    0x0800bc40   0x0800bc40   0x00000168   Code   RO         6825    i.pbuf_realloc      pbuf.o
    0x0800bda8   0x0800bda8   0x0000009c   Code   RO         6826    i.pbuf_ref          pbuf.o
    0x0800be44   0x0800be44   0x000000f4   Code   RO         6827    i.pbuf_remove_header  pbuf.o
    0x0800bf38   0x0800bf38   0x000001c8   Code   RO         6831    i.pbuf_take         pbuf.o
    0x0800c100   0x0800c100   0x000001d8   Code   RO         6425    i.plug_holes        mem.o
    0x0800c2d8   0x0800c2d8   0x00000010   Code   RO         6426    i.ptr_to_mem        mem.o
    0x0800c2e8   0x0800c2e8   0x00000110   Code   RO         1026    i.server_set_local_ip  tcp_server.o
    0x0800c3f8   0x0800c3f8   0x00000064   Code   RO         7721    i.sys_check_timeouts  timeouts.o
    0x0800c45c   0x0800c45c   0x00000008   Code   RO          534    i.sys_now           ethernetif.o
    0x0800c464   0x0800c464   0x000000d0   Code   RO         7723    i.sys_timeout       timeouts.o
    0x0800c534   0x0800c534   0x00000140   Code   RO         7724    i.sys_timeout_abs   timeouts.o
    0x0800c674   0x0800c674   0x00000028   Code   RO         7725    i.sys_timeouts_init  timeouts.o
    0x0800c69c   0x0800c69c   0x000001d4   Code   RO         7118    i.tcp_abandon       tcp.o
    0x0800c870   0x0800c870   0x0000000e   Code   RO         7119    i.tcp_abort         tcp.o
    0x0800c87e   0x0800c87e   0x00000010   Code   RO         7120    i.tcp_accept        tcp.o
    0x0800c88e   0x0800c88e   0x00000002   PAD
    0x0800c890   0x0800c890   0x000000a8   Code   RO         7121    i.tcp_accept_null   tcp.o
    0x0800c938   0x0800c938   0x000000bc   Code   RO         7122    i.tcp_alloc         tcp.o
    0x0800c9f4   0x0800c9f4   0x00000006   Code   RO         7123    i.tcp_arg           tcp.o
    0x0800c9fa   0x0800c9fa   0x00000002   PAD
    0x0800c9fc   0x0800c9fc   0x00000170   Code   RO         7124    i.tcp_bind          tcp.o
    0x0800cb6c   0x0800cb6c   0x00000044   Code   RO          865    i.tcp_client_connection_close  tcp_client.o
    0x0800cbb0   0x0800cbb0   0x00000040   Code   RO         1027    i.tcp_client_connection_close  tcp_server.o
    0x0800cbf0   0x0800cbf0   0x0000002c   Code   RO          866    i.tcp_client_err_cbk  tcp_client.o
    0x0800cc1c   0x0800cc1c   0x00000124   Code   RO          867    i.tcp_client_recv_cbk  tcp_client.o
    0x0800cd40   0x0800cd40   0x00000040   Code   RO          868    i.tcp_client_send   tcp_client.o
    0x0800cd80   0x0800cd80   0x000000b0   Code   RO         7126    i.tcp_close         tcp.o
    0x0800ce30   0x0800ce30   0x0000020c   Code   RO         7127    i.tcp_close_shutdown  tcp.o
    0x0800d03c   0x0800d03c   0x000000e8   Code   RO         7128    i.tcp_close_shutdown_fin  tcp.o
    0x0800d124   0x0800d124   0x00000260   Code   RO         7129    i.tcp_connect       tcp.o
    0x0800d384   0x0800d384   0x000001d4   Code   RO         7556    i.tcp_create_segment  tcp_out.o
    0x0800d558   0x0800d558   0x000000d4   Code   RO         7131    i.tcp_eff_send_mss_netif  tcp.o
    0x0800d62c   0x0800d62c   0x000002c0   Code   RO         7557    i.tcp_enqueue_flags  tcp_out.o
    0x0800d8ec   0x0800d8ec   0x000000ac   Code   RO         7132    i.tcp_err           tcp.o
    0x0800d998   0x0800d998   0x0000009c   Code   RO         7133    i.tcp_fasttmr       tcp.o
    0x0800da34   0x0800da34   0x00000094   Code   RO         7134    i.tcp_free          tcp.o
    0x0800dac8   0x0800dac8   0x0000015c   Code   RO         7463    i.tcp_free_acked_segments  tcp_in.o
    0x0800dc24   0x0800dc24   0x0000009c   Code   RO         7135    i.tcp_free_listen   tcp.o
    0x0800dcc0   0x0800dcc0   0x00000014   Code   RO         7136    i.tcp_free_ooseq    tcp.o
    0x0800dcd4   0x0800dcd4   0x00000048   Code   RO         7464    i.tcp_get_next_optbyte  tcp_in.o
    0x0800dd1c   0x0800dd1c   0x00000034   Code   RO         7137    i.tcp_handle_closepend  tcp.o
    0x0800dd50   0x0800dd50   0x00000018   Code   RO         7138    i.tcp_init          tcp.o
    0x0800dd68   0x0800dd68   0x00000818   Code   RO         7465    i.tcp_input         tcp_in.o
    0x0800e580   0x0800e580   0x000000e8   Code   RO         7466    i.tcp_input_delayed_close  tcp_in.o
    0x0800e668   0x0800e668   0x000000dc   Code   RO         7558    i.tcp_keepalive     tcp_out.o
    0x0800e744   0x0800e744   0x00000068   Code   RO         7139    i.tcp_kill_prio     tcp.o
    0x0800e7ac   0x0800e7ac   0x000000d0   Code   RO         7140    i.tcp_kill_state    tcp.o
    0x0800e87c   0x0800e87c   0x0000003c   Code   RO         7141    i.tcp_kill_timewait  tcp.o
    0x0800e8b8   0x0800e8b8   0x000000d4   Code   RO         7142    i.tcp_listen_closed  tcp.o
    0x0800e98c   0x0800e98c   0x000001f4   Code   RO         7467    i.tcp_listen_input  tcp_in.o
    0x0800eb80   0x0800eb80   0x00000012   Code   RO         7143    i.tcp_listen_with_backlog  tcp.o
    0x0800eb92   0x0800eb92   0x00000002   PAD
    0x0800eb94   0x0800eb94   0x000001c4   Code   RO         7144    i.tcp_listen_with_backlog_and_err  tcp.o
    0x0800ed58   0x0800ed58   0x0000004c   Code   RO         7145    i.tcp_netif_ip_addr_changed  tcp.o
    0x0800eda4   0x0800eda4   0x000000d0   Code   RO         7146    i.tcp_netif_ip_addr_changed_pcblist  tcp.o
    0x0800ee74   0x0800ee74   0x0000000a   Code   RO         7147    i.tcp_new           tcp.o
    0x0800ee7e   0x0800ee7e   0x00000002   PAD
    0x0800ee80   0x0800ee80   0x00000068   Code   RO         7149    i.tcp_new_port      tcp.o
    0x0800eee8   0x0800eee8   0x000000b0   Code   RO         7150    i.tcp_next_iss      tcp.o
    0x0800ef98   0x0800ef98   0x0000012c   Code   RO         7468    i.tcp_oos_insert_segment  tcp_in.o
    0x0800f0c4   0x0800f0c4   0x00000364   Code   RO         7559    i.tcp_output        tcp_out.o
    0x0800f428   0x0800f428   0x000000dc   Code   RO         7560    i.tcp_output_alloc_header  tcp_out.o
    0x0800f504   0x0800f504   0x00000124   Code   RO         7561    i.tcp_output_alloc_header_common  tcp_out.o
    0x0800f628   0x0800f628   0x000000fc   Code   RO         7562    i.tcp_output_control_segment  tcp_out.o
    0x0800f724   0x0800f724   0x00000124   Code   RO         7563    i.tcp_output_fill_options  tcp_out.o
    0x0800f848   0x0800f848   0x0000024c   Code   RO         7564    i.tcp_output_segment  tcp_out.o
    0x0800fa94   0x0800fa94   0x000000b4   Code   RO         7565    i.tcp_output_segment_busy  tcp_out.o
    0x0800fb48   0x0800fb48   0x00000130   Code   RO         7469    i.tcp_parseopt      tcp_in.o
    0x0800fc78   0x0800fc78   0x00000178   Code   RO         7566    i.tcp_pbuf_prealloc  tcp_out.o
    0x0800fdf0   0x0800fdf0   0x000000dc   Code   RO         7151    i.tcp_pcb_purge     tcp.o
    0x0800fecc   0x0800fecc   0x000001d8   Code   RO         7152    i.tcp_pcb_remove    tcp.o
    0x080100a4   0x080100a4   0x000000dc   Code   RO         7153    i.tcp_poll          tcp.o
    0x08010180   0x08010180   0x00000744   Code   RO         7470    i.tcp_process       tcp_in.o
    0x080108c4   0x080108c4   0x00000138   Code   RO         7154    i.tcp_process_refused_data  tcp.o
    0x080109fc   0x080109fc   0x00000c7c   Code   RO         7471    i.tcp_receive       tcp_in.o
    0x08011678   0x08011678   0x000000ac   Code   RO         7155    i.tcp_recv          tcp.o
    0x08011724   0x08011724   0x000000c4   Code   RO         7156    i.tcp_recv_null     tcp.o
    0x080117e8   0x080117e8   0x0000011c   Code   RO         7157    i.tcp_recved        tcp.o
    0x08011904   0x08011904   0x000000b4   Code   RO         7158    i.tcp_remove_listener  tcp.o
    0x080119b8   0x080119b8   0x00000104   Code   RO         7567    i.tcp_rexmit        tcp_out.o
    0x08011abc   0x08011abc   0x0000010c   Code   RO         7568    i.tcp_rexmit_fast   tcp_out.o
    0x08011bc8   0x08011bc8   0x000000a8   Code   RO         7569    i.tcp_rexmit_rto    tcp_out.o
    0x08011c70   0x08011c70   0x000000b8   Code   RO         7570    i.tcp_rexmit_rto_commit  tcp_out.o
    0x08011d28   0x08011d28   0x00000118   Code   RO         7571    i.tcp_rexmit_rto_prepare  tcp_out.o
    0x08011e40   0x08011e40   0x0000001e   Code   RO         7572    i.tcp_route         tcp_out.o
    0x08011e5e   0x08011e5e   0x00000002   PAD
    0x08011e60   0x08011e60   0x00000128   Code   RO         7573    i.tcp_rst           tcp_out.o
    0x08011f88   0x08011f88   0x000000b4   Code   RO         7159    i.tcp_seg_copy      tcp.o
    0x0801203c   0x0801203c   0x0000001a   Code   RO         7160    i.tcp_seg_free      tcp.o
    0x08012056   0x08012056   0x00000018   Code   RO         7161    i.tcp_segs_free     tcp.o
    0x0801206e   0x0801206e   0x00000002   PAD
    0x08012070   0x08012070   0x00000140   Code   RO         7574    i.tcp_send_empty_ack  tcp_out.o
    0x080121b0   0x080121b0   0x000000e0   Code   RO         7575    i.tcp_send_fin      tcp_out.o
    0x08012290   0x08012290   0x000000ac   Code   RO         7162    i.tcp_sent          tcp.o
    0x0801233c   0x0801233c   0x00000060   Code   RO         1028    i.tcp_server_accept_cbk  tcp_server.o
    0x0801239c   0x0801239c   0x0000004c   Code   RO         1029    i.tcp_server_err_cbk  tcp_server.o
    0x080123e8   0x080123e8   0x0000003c   Code   RO         1030    i.tcp_server_poll_cbk  tcp_server.o
    0x08012424   0x08012424   0x000000e8   Code   RO         1031    i.tcp_server_recv_cbk  tcp_server.o
    0x0801250c   0x0801250c   0x0000003c   Code   RO         1032    i.tcp_server_sent_cbk  tcp_server.o
    0x08012548   0x08012548   0x00000730   Code   RO         7165    i.tcp_slowtmr       tcp.o
    0x08012c78   0x08012c78   0x000002d0   Code   RO         7576    i.tcp_split_unsent_seg  tcp_out.o
    0x08012f48   0x08012f48   0x00000038   Code   RO         7728    i.tcp_timer_needed  timeouts.o
    0x08012f80   0x08012f80   0x00000144   Code   RO         7472    i.tcp_timewait_input  tcp_in.o
    0x080130c4   0x080130c4   0x00000024   Code   RO         7167    i.tcp_tmr           tcp.o
    0x080130e8   0x080130e8   0x00000014   Code   RO         7473    i.tcp_trigger_input_pcb_close  tcp_in.o
    0x080130fc   0x080130fc   0x00000118   Code   RO         7169    i.tcp_update_rcv_ann_wnd  tcp.o
    0x08013214   0x08013214   0x00000824   Code   RO         7577    i.tcp_write         tcp_out.o
    0x08013a38   0x08013a38   0x000001b4   Code   RO         7578    i.tcp_write_checks  tcp_out.o
    0x08013bec   0x08013bec   0x00000170   Code   RO         7579    i.tcp_zero_window_probe  tcp_out.o
    0x08013d5c   0x08013d5c   0x00000038   Code   RO         7729    i.tcpip_tcp_timer   timeouts.o
    0x08013d94   0x08013d94   0x00000124   Code   RO         7812    i.udp_bind          udp.o
    0x08013eb8   0x08013eb8   0x00000134   Code   RO         7814    i.udp_connect       udp.o
    0x08013fec   0x08013fec   0x000000ac   Code   RO         7815    i.udp_disconnect    udp.o
    0x08014098   0x08014098   0x00000018   Code   RO         7816    i.udp_init          udp.o
    0x080140b0   0x080140b0   0x0000024c   Code   RO         7817    i.udp_input         udp.o
    0x080142fc   0x080142fc   0x00000138   Code   RO         7818    i.udp_input_local_match  udp.o
    0x08014434   0x08014434   0x00000030   Code   RO         7819    i.udp_netif_ip_addr_changed  udp.o
    0x08014464   0x08014464   0x0000001c   Code   RO         7820    i.udp_new           udp.o
    0x08014480   0x08014480   0x00000058   Code   RO         7822    i.udp_new_port      udp.o
    0x080144d8   0x080144d8   0x0000009c   Code   RO         7823    i.udp_recv          udp.o
    0x08014574   0x08014574   0x000000d4   Code   RO         7824    i.udp_remove        udp.o
    0x08014648   0x08014648   0x000000dc   Code   RO         7825    i.udp_send          udp.o
    0x08014724   0x08014724   0x00000144   Code   RO         7826    i.udp_sendto        udp.o
    0x08014868   0x08014868   0x00000198   Code   RO         7827    i.udp_sendto_if     udp.o
    0x08014a00   0x08014a00   0x000002b4   Code   RO         7828    i.udp_sendto_if_src  udp.o
    0x08014cb4   0x08014cb4   0x0000000c   Data   RO          538    .constdata          ethernetif.o
    0x08014cc0   0x08014cc0   0x00000014   Data   RO          869    .constdata          tcp_client.o
    0x08014cd4   0x08014cd4   0x00000018   Data   RO         4482    .constdata          stm32h7xx_hal_uart.o
    0x08014cec   0x08014cec   0x00000010   Data   RO         4853    .constdata          stm32h7xx_hal_uart_ex.o
    0x08014cfc   0x08014cfc   0x00000010   Data   RO         4962    .constdata          system_stm32h7xx.o
    0x08014d0c   0x08014d0c   0x0000000c   Data   RO         5653    .constdata          ethernet.o
    0x08014d18   0x08014d18   0x00000090   Data   RO         6501    .constdata          memp.o
    0x08014da8   0x08014da8   0x00000050   Data   RO         7170    .constdata          tcp.o
    0x08014df8   0x08014df8   0x0000001c   Data   RO         7730    .constdata          timeouts.o
    0x08014e14   0x08014e14   0x00000008   Data   RO         8234    .constdata          ip4_addr.o
    0x08014e1c   0x08014e1c   0x00000041   Data   RO         6309    .conststring        init.o
    0x08014e5d   0x08014e5d   0x00000003   PAD
    0x08014e60   0x08014e60   0x00000075   Data   RO         7171    .conststring        tcp.o
    0x08014ed5   0x08014ed5   0x00000003   PAD
    0x08014ed8   0x08014ed8   0x00000055   Data   RO         7580    .conststring        tcp_out.o
    0x08014f2d   0x08014f2d   0x00000003   PAD
    0x08014f30   0x08014f30   0x00000041   Data   RO         8005    .conststring        etharp.o
    0x08014f71   0x08014f71   0x00000003   PAD
    0x08014f74   0x08014f74   0x00000020   Data   RO         9215    Region$$Table       anon$$obj.o


    Execution Region RW_IRAM1 (Exec base: 0x20000000, Load base: 0x08014f94, Size: 0x00000000, Max: 0x00020000, ABSOLUTE)

    **** No section assigned to this execution region ****


    Execution Region RW_IRAM2 (Exec base: 0x24000000, Load base: 0x08014f94, Size: 0x0000e600, Max: 0x00080000, ABSOLUTE, COMPRESSED[0x000000cc])

    Exec Addr    Load Addr    Size         Type   Attr      Idx    E Section Name        Object

    0x24000000   COMPRESSED   0x0000001c   Data   RW          539    .data               ethernetif.o
    0x2400001c   COMPRESSED   0x0000001c   Data   RW          681    .data               lwip.o
    0x24000038   COMPRESSED   0x00000008   PAD
    0x24000040   COMPRESSED   0x00000cb4   Data   RW          790    .data               lwip_udp.o
    0x24000cf4   COMPRESSED   0x0000000c   PAD
    0x24000d00   COMPRESSED   0x00000cbc   Data   RW          870    .data               tcp_client.o
    0x240019bc   COMPRESSED   0x00000004   PAD
    0x240019c0   COMPRESSED   0x00000cb4   Data   RW         1033    .data               tcp_server.o
    0x24002674   COMPRESSED   0x00000009   Data   RW         3514    .data               stm32h7xx_hal.o
    0x2400267d   COMPRESSED   0x00000003   PAD
    0x24002680   COMPRESSED   0x00000008   Data   RW         4963    .data               system_stm32h7xx.o
    0x24002688   COMPRESSED   0x0000000c   Data   RW         6427    .data               mem.o
    0x24002694   COMPRESSED   0x00000024   Data   RW         6502    .data               memp.o
    0x240026b8   COMPRESSED   0x00000009   Data   RW         6630    .data               netif.o
    0x240026c1   COMPRESSED   0x00000001   Data   RW         6834    .data               pbuf.o
    0x240026c2   COMPRESSED   0x00000002   PAD
    0x240026c4   COMPRESSED   0x00000020   Data   RW         7172    .data               tcp.o
    0x240026e4   COMPRESSED   0x00000028   Data   RW         7475    .data               tcp_in.o
    0x2400270c   COMPRESSED   0x0000000c   Data   RW         7731    .data               timeouts.o
    0x24002718   COMPRESSED   0x00000008   Data   RW         7829    .data               udp.o
    0x24002720   COMPRESSED   0x00000001   Data   RW         8006    .data               etharp.o
    0x24002721   COMPRESSED   0x00000001   PAD
    0x24002722   COMPRESSED   0x00000002   Data   RW         8174    .data               ip4.o
    0x24002724   COMPRESSED   0x00000006   Data   RW         8310    .data               ip4_frag.o
    0x2400272a   COMPRESSED   0x00000002   PAD
    0x2400272c   COMPRESSED   0x00000004   Data   RW         8881    .data               mc_w.l(rand.o)
    0x24002730   COMPRESSED   0x00000004   Data   RW         9178    .data               mc_w.l(stdout.o)
    0x24002734        -       0x000005e0   Zero   RW           18    .bss                main.o
    0x24002d14        -       0x00000094   Zero   RW          366    .bss                usart.o
    0x24002da8        -       0x00004a8c   Zero   RW          537    .bss                ethernetif.o
    0x24007834        -       0x00000034   Zero   RW          680    .bss                lwip.o
    0x24007868        -       0x00000018   Zero   RW         6383    .bss                ip.o
    0x24007880        -       0x0000687f   Zero   RW         6500    .bss                memp.o
    0x2400e0ff   COMPRESSED   0x00000001   PAD
    0x2400e100        -       0x00000010   Zero   RW         7474    .bss                tcp_in.o
    0x2400e110        -       0x000000f0   Zero   RW         8004    .bss                etharp.o
    0x2400e200        -       0x00000400   Zero   RW            1    STACK               startup_stm32h743xx.o



  Load Region LR$$.ARM.__AT_0x30004000 (Base: 0x30004000, Size: 0x00000000, Max: 0x00000060, ABSOLUTE)

    Execution Region ER$$.ARM.__AT_0x30004000 (Exec base: 0x30004000, Load base: 0x30004000, Size: 0x00000060, Max: 0x00000060, ABSOLUTE, UNINIT)

    Exec Addr    Load Addr    Size         Type   Attr      Idx    E Section Name        Object

    0x30004000        -       0x00000060   Zero   RW          535    .ARM.__AT_0x30004000  ethernetif.o



  Load Region LR$$.ARM.__AT_0x30004060 (Base: 0x30004060, Size: 0x00000000, Max: 0x00000060, ABSOLUTE)

    Execution Region ER$$.ARM.__AT_0x30004060 (Exec base: 0x30004060, Load base: 0x30004060, Size: 0x00000060, Max: 0x00000060, ABSOLUTE, UNINIT)

    Exec Addr    Load Addr    Size         Type   Attr      Idx    E Section Name        Object

    0x30004060        -       0x00000060   Zero   RW          536    .ARM.__AT_0x30004060  ethernetif.o


==============================================================================

Image component sizes


      Code (inc. data)   RO Data    RW Data    ZI Data      Debug   Object Name

         0          0          0          0          0       2134   bridgeif.o
        38          0          0          0          0       1402   def.o
      3820       1206         65          1        240      14247   etharp.o
       456        154         12          0          0       3398   ethernet.o
      2108        258         12         28      19276      60325   ethernetif.o
       292          8          0          0          0       1579   gpio.o
      1004        350          0          0          0       4854   icmp.o
       200          0          0          0          0      11704   inet_chksum.o
       156         92         65          0          0       4152   init.o
         0          0          0          0         24       8301   ip.o
      1078        184          0          2          0       6696   ip4.o
        78          0          8          0          0       9438   ip4_addr.o
      3562       1192          0          6          0      14518   ip4_frag.o
       532          0          0          0          0       3486   lan8742.o
       768        128          0         28         52       4510   lwip.o
       736         62          0       3252          0       6267   lwip_udp.o
       690         34          0          0       1504    1318972   main.o
      2376        968          0         12          0       9250   mem.o
      1092        718        144         36      26751      13298   memp.o
      2076        998          0          9          0      18750   netif.o
      4394       2020          0          1          0      32883   pbuf.o
        36          8        664          0       1024        932   startup_stm32h743xx.o
       252         52          0          9          0      24560   stm32h7xx_hal.o
       510         38          0          0          0      43761   stm32h7xx_hal_cortex.o
      2164         34          0          0          0       4727   stm32h7xx_hal_dma.o
      4696         82          0          0          0      23838   stm32h7xx_hal_eth.o
       520         52          0          0          0       2624   stm32h7xx_hal_gpio.o
        36          4          0          0          0       1198   stm32h7xx_hal_msp.o
        96          6          0          0          0        905   stm32h7xx_hal_pwr_ex.o
      3640        114          0          0          0       7940   stm32h7xx_hal_rcc.o
      5300        108          0          0          0       8321   stm32h7xx_hal_rcc_ex.o
