:020000040800F2
:1000000070BC0024B1020008AD560008034E000881
:10001000A956000869040008C16500080000000036
:10002000000000000000000000000000555A000819
:100030006D0400080000000089570008575A0008A6
:10004000CB020008CB020008CB020008CB0200085C
:10005000CB020008CB020008CB020008CB0200084C
:10006000CB020008CB020008CB020008CB0200083C
:10007000CB020008CB020008CB020008CB0200082C
:10008000CB020008CB020008CB020008CB0200081C
:10009000CB020008CB020008CB020008CB0200080C
:1000A000CB020008CB020008CB020008CB020008FC
:1000B000CB020008CB020008CB020008CB020008EC
:1000C000CB020008CB020008CB020008CB020008DC
:1000D000CB020008B1650008CB020008CB02000883
:1000E000CB020008CB02000800000000CB02000891
:1000F000CB020008CB020008CB020008CB020008AC
:10010000CB020008CB020008CB020008CB0200089B
:10011000CB020008CB020008CB020008CB0200088B
:10012000CB020008CB020008CB020008CB0200087B
:10013000CB020008210500080D0D0008CB020008C5
:1001400000000000000000000000000000000000AF
:10015000CB020008CB020008CB020008CB0200084B
:10016000CB020008CB020008CB020008CB0200083B
:10017000CB020008CB020008CB0200080000000000
:10018000CB020008CB020008CB020008CB0200081B
:10019000CB020008CB020008CB020008CB0200080B
:1001A000CB020008CB020008CB020008CB020008FB
:1001B000CB020008CB020008CB020008CB020008EB
:1001C000CB020008CB020008CB020008CB020008DB
:1001D000CB020008CB020008CB020008CB020008CB
:1001E000CB020008CB020008CB020008CB020008BB
:1001F000CB020008CB020008CB020008CB020008AB
:10020000CB020008CB020008CB020008CB0200089A
:10021000CB020008CB020008CB020008CB0200088A
:10022000CB020008CB020008CB020008000000004F
:10023000CB020008CB02000800000000CB0200083F
:10024000CB020008CB020008CB020008CB0200085A
:10025000CB020008CB020008CB020008CB0200084A
:10026000CB020008CB020008CB020008CB0200083A
:10027000CB020008CB020008CB02000800000000FF
:10028000CB020008CB020008CB02000800000000EF
:1002900000000000CB020008DFF810D000F0D2F818
:1002A0000048004771970008AFF3008070BC00243D
:1002B0000648804706480047FEE7FEE7FEE7FEE700
:1002C000FEE7FEE7FEE7FEE7FEE7FEE7955B0008D8
:1002D000990200082DE9F05F0546002092469B46F2
:1002E00088460646814640241BE02846414647464C
:1002F000224600F097F853465A46C01A914110D34F
:1003000011461846224600F07EF82D1A67EB0108C8
:100310004F4622460120002100F075F817EB000936
:100320004E41201EA4F10104DFDC484631462A4636
:100330004346BDE8F09F00000649074A086850435D
:1003400043F23902104408604008704701490860D0
:1003500070470000F40000246D4EC64110B5431AEA
:10036000934209D28318881803E010F8011D03F89E
:10037000011D521EF9D210BD40EA01039B0703D0B4
:1003800009E008C9121F08C0042AFAD203E011F8D4
:10039000013B00F8013B521EF9D210BDD2B201E080
:1003A00000F8012B491EFBD270470022F6E710B57A
:1003B00013460A4604461946FFF7F0FF204610BDD3
:1003C00030B504460020034600E05B1C934203D294
:1003D000E05CCD5C401BF8D030BD30B50B4601462B
:1003E00000202022012409E021FA02F59D4205D3D4
:1003F00003FA02F5491B04FA02F52844151EA2F17E
:100400000102F1DC30BD202A04DB203A00FA02F1BF
:10041000002070479140C2F1200320FA03F31943F2
:1004200090407047202A04DB203A21FA02F0002194
:10043000704721FA02F3D040C2F1200291400843F4
:1004400019467047064C074D06E0E06840F001038E
:1004500094E8070098471034AC42F6D3FFF720FF2A
:10046000482501086825010800BFFEE7704710B560
:10047000002210E002EB4204036903EBC4010023F5
:100480000B604B608B60CB600B614B6100F14803EC
:1004900043F82210521C042AECD30024C4650466DD
:1004A0008466C46684650324036803F58053C3F837
:1004B0003041036803F580530469C3F81C410369A4
:1004C0004833046804F58054C4F8283110BD10B5D1
:1004D00000220EE002EB4204C36803EBC4010023D8
:1004E0000B604B608B60CB6000F1180343F8221067
:1004F000521C042AEED3002484620324036803F50B
:100500008053C3F82C41036803F58053C468C3F8D3
:100510001441036803F58053C468C3F8204110BD3B
:1005200010B5024801F04EF910BD0000144B002434
:1005300010B5A2B0044601208DF8330000201290BF
:100540008DF841008DF8430001208DF828008DF8CA
:1005500056008DF8320000208DF84C0001208DF8F7
:10056000840040030F9000208DF85C0018908DF8F7
:1005700085008DF886004FF4C360169000208DF83A
:1005800030000B9001208DF8350000208DF83600EA
:100590008DF840001D901B9014908DF864008DF82C
:1005A0007A0001208DF842002020209001208DF853
:1005B000440000208DF855004FF0405009904FF452
:1005C00080400E9000208DF8310002201F90002006
:1005D0008DF878008DF879008DF8540001208DF8A1
:1005E000340000201A9001208DF8700009A92046DF
:1005F00000F07CFA01208DF80400029000200090A9
:100600008DF81C008DF80D008DF80C004FF40010D3
:10061000069000208DF814004FF400100490002084
:100620008DF81D004FF4067008906946204600F0D2
:10063000FFF922B010BD0020704710B501F0DCFEBC
:1006400010BD000010B5024801F04AFC002010BDAA
:10065000144B002470B504460D46164633462A4610
:100660002146044801F087FB10B14FF0FF3070BD08
:100670000020FCE7144B002470B504460D461646D6
:1006800033462A462146044801F064FD10B14FF07C
:10069000FF3070BD0020FCE7144B00242DE9F04F23
:1006A00006460B46914606F118042269D4F810C09C
:1006B000002754F822109D68BA46C86800F0004030
:1006C000B0F1004F04D004F1140050F8220010B132
:1006D0000220BDE8F08F187800F00400C8B3C868A5
:1006E0006FF30F00D3F824B040EA0B00C860C8686D
:1006F00040F48030C8603068006E40F48010D6F856
:1007000000B0CBF86000187800F0080008B3B3F828
:100710002CB088686BF31F408860C86840F40030D4
:10072000C860C86820F44020D3F830B040EA0B001D
:10073000C8603068406E40F48010D6F800B0CBF846
:1007400064003068006D40F08060D6F800B0CBF8EF
:100750005000187800F0100058B188686FF30D0051
:10076000D3F818B040EA0B008860C86840F0806099
:10077000C860187800F0040018B9187800F010006C
:1007800010B3C86840F08040C860BFF35F8FC8688E
:1007900040F00040C86000BF521C042A00D3121F62
:1007A00000BF54F822107F1CC86800F00040B0F170
:1007B000004F09D154F82C10BFF35F8FC86820F0A8
:1007C0000040C860022084E77F1C286808608868B1
:1007D0006FF30D00D5F804B040EA0B008860A868FC
:1007E00068B1AD68286848608868DFF840B200EA00
:1007F0000B00B5F804B040EA0B40886007E0002029
:1008000048608868DFF824B200EA0B008860187836
:1008100000F01000A0B1C86820F4F000B3F820B0D8
:1008200040EACB40C860C8686FF31100D3F81CB031
:1008300040EA0B00C860C86840F48020C8601FE030
:10084000C8686FF30E00D3F804B040EA0B00C8602C
:10085000187800F0010038B1C86820F44030D3F8AF
:1008600014B040EA0B00C860187800F0200038B1DE
:10087000C86820F04060D3F810B040EA0B00C860B0
:10088000187800F0040038B1886820F44040D3F8AC
:1008900028B040EA0B008860C86840F00050C8608B
:1008A000C86820F08040C860BFF35F8FC86840F020
:1008B0000040C860187800F0020038B1C86820F025
:1008C0006070D3F80CB040EA0B00C86089E0C868DB
:1008D00020F08050C86000BF521C042A00D3121FB1
:1008E00000BF54F82210C86820F00050C860C868E3
:1008F00000F00040B0F1004F04D004F1140050F8B3
:100900002200C8B1624654F822104FF000080FE0F0
:10091000BFF35F8FC86820F00040C86000BF521C62
:10092000042A00D3121F00BF54F8221008F1010856
:10093000B845EDD30220CCE67F1CAD68286808607E
:1009400088686FF30D00D5F804B040EA0B008860AA
:10095000A86868B1AD68286848608868DFF8CCB0DE
:1009600000EA0B00B5F804B040EA0B40886007E0ED
:10097000002048608868DFF8B4B000EA0B008860A7
:10098000187800F0100060B1C8686FF31100D3F858
:100990001CB040EA0B00C860C86840F48020C86002
:1009A00013E0C8686FF30E00D3F804B040EA0B0000
:1009B000C860187800F0010038B1C86820F44030F1
:1009C000D3F814B040EA0B00C8600AF1010ABFF383
:1009D0005F8FC86840F00040C860C86820F0804061
:1009E000C860A86800287FF472AFB9F1000F04D086
:1009F000886840F00040886003E0886820F000408C
:100A00008860C86840F08050C86004F11400D4F8D1
:100A100024B040F822B0226172B60AF10100D4F885
:100A200028B05844A06262B6002052E6FFFF00C022
:100A300010B5036803F580531B6847F60204A3430F
:100A40000C682343046804F5805423600C798B6898
:100A500043EA04330C7B43EAC432036803F5805352
:100A60005B684DF20104A3431343046804F580540A
:100A700063604C7B0B6A43EA0442036803F58053CE
:100A8000D3F80031164C23401343046804F5805416
:100A9000C4F800310C7D0B6943EA04134C7F43EA30
:100AA0000432036803F58053D3F804310D4C23401E
:100AB0001343046804F58054C4F804310C7F8B6937
:100AC00043EAC472036803F58053D3F80831064C37
:100AD00023401343046804F58054C4F8083110BD62
:100AE00000C0FEFFEFEFC0FFFFFFC07F10B50C6836
:100AF0008B6823430C7943EAC4630C7B43EAC453F9
:100B00004C7B43EA84538C7B43EA4453CC7B43EADB
:100B100004530C7C0CB9012400E0002443EAC443D4
:100B20004C7C0CB9012400E0002443EA44438C7C53
:100B300043EA04434C6923438C6923430C7F43EA13
:100B400004334C7F43EAC4238C7F0CB9012400E0BA
:100B5000002443EA8423CC7F43EA442391F82040D5
:100B60000CB9012400E0002443EA042351F8244F87
:100B700023430C7943EA04138C6843EA04020368B4
:100B80001B683D4C23401343046823600B7E5B06C7
:100B90000C7D43EA04630C7B43EA84434C7B43EAC9
:100BA00044438C7B24390CB9012400E0002443EA3F
:100BB00004434C6B43EA040203685B682F4C2340F8
:100BC00013430468636091F840404B6C43EA04228D
:100BD0000368DB6840F20F14A34313430468E36027
:100BE00091F854400B6D43EA440391F84C400CB922
:100BF000012400E0002443EAC41331F8484F43EADB
:100C0000044203681B6F4FF60D74234013430468BE
:100C100023678B7B4C7B43EA44020368D3F8903014
:100C200023F0030313430468C4F890300368D3F837
:100C3000003D23F072030C6923430468C4F8003DAF
:100C40000C7E4B6948390CB9012400E0002443EACA
:100C5000841391F8614043EA041391F8624043EA37
:100C6000C4020368D3F8303D23F07B0313430468C8
:100C7000C4F8303D10BD0000838004000080F8C03F
:100C80002DE9F8430446002000904FF00108A56EBE
:100C900004F1480050F82560E76E26E0306958B945
:100CA000684601F0A5F8009810B94FF0000803E07D
:100CB0000098306100983060B8F1000F15D0BFF394
:100CC0005F8FA06D18B14FF04140F06002E04FF02F
:100CD0000140F06000BF6D1C042D00D32D1F00BF2C
:100CE00004F1480050F825607F1E17B1B8F1000FDD
:100CF000D4D1E06EB84207D00021206800F58050C2
:100D0000C0F82811A566E766BDE8F88310B502486B
:100D100000F058FD10BD0000144B002472B600BF57
:100D2000FEE7000010B5044601F066FB06490968BD
:100D3000401A642806D301F05FFB0349086020468F
:100D400006F010FE10BD0000200000242DE9F04147
:100D5000044601F051FB804614B90120BDE8F08142
:100D600094F83500022808D08020606500BF00207C
:100D700084F8340000BF0120F0E7FE492068884273
:100D800049D0FC4918312068884244D0F9493031B3
:100D9000206888423FD0F7494831206888423AD0DD
:100DA000F44960312068884235D0F24978312068B2
:100DB000884230D0EF499031206888422BD0ED49ED
:100DC000A8312068884226D0EB492068884222D08A
:100DD000E9491831206888421DD0E7493031206840
:100DE000884218D0E44948312068884213D0E2494B
:100DF0006031206888420ED0DF497831206888420F
:100E000009D0DD4990312068884204D0DA49A83100
:100E10002068884201D1012000E0002068B12068EC
:100E2000006820F01E00216808602068406920F0FA
:100E3000800021684861256806E02068006820F08D
:100E40000E00216808602568CA492068884270D071
:100E5000C8491831206888426BD0C64930312068B3
:100E6000884266D0C34948312068884261D0C14970
:100E70006031206888425CD0BE4978312068884261
:100E800057D0BC4990312068884252D0B949A83126
:100E9000206888424DD0B8492068884249D0B64978
:100EA00018312068884244D0B349303120688842E4
:100EB0003FD0B1494831206888423AD0AE496031CC
:100EC0002068884235D0AC4978312068884230D0DB
:100ED000A9499031206888422BD0A749A8312068C1
:100EE000884226D0A5492068884222D0A3491431DF
:100EF000206888421DD0A14928312068884218D036
:100F00009E493C312068884213D09C49503120686A
:100F100088420ED0994964312068884209D09749A7
:100F200078312068884204D094498C312068884206
:100F300001D1012000E0002028B1206E006820F4DB
:100F40008070216E08608B492068884249D08949A9
:100F500018312068884244D0864930312068884260
:100F60003FD084494831206888423AD08149603175
:100F70002068884235D07F4978312068884230D057
:100F80007C499031206888422BD07A49A83120686A
:100F9000884226D078492068884222D07649183184
:100FA000206888421DD0744930312068884218D0AA
:100FB000714948312068884213D06F4960312068F8
:100FC00088420ED06C4978312068884209D06A493D
:100FD00090312068884204D06749A831206888424F
:100FE00006D12068006820F001002168086005E053
:100FF0002068006820F001002168086011E001F01D
:10100000FBF9A0EB080005280BD920206065032020
:1010100084F8350000BF002084F8340000BF0120B0
:101020009CE6286800F001000028E8D151492068BA
:10103000884249D04F4918312068884244D04D49F0
:101040003031206888423FD04A4948312068884280
:101050003AD0484960312068884235D045497831D6
:101060002068884230D043499031206888422BD094
:101070004049A8312068884226D03F4920688842EC
:1010800022D03D491831206888421DD03A4930317C
:101090002068884218D0384948312068884213D0E7
:1010A00035496031206888420ED033497831206854
:1010B000884209D0304990312068884204D02E49B6
:1010C000A8312068884201D1012000E0002040B111
:1010D000A66D94F85C0000F01F013F208840B060CE
:1010E00007E0A76D94F85C0000F01F010120884024
:1010F000786020492068884276D01E4918312068DF
:10110000884271D01B493031206888426CD019491F
:1011100048312068884267D016496031206888428B
:1011200062D014497831206888425DD011499031ED
:101130002068884258D00F49A8312068884253D08F
:101140000D49206888424FD00B49183120688842E9
:101150004AD0094930312068884245D00649483193
:101160002068884240D004496031206888423BD0E2
:10117000014905E0100002401004024008540258E2
:101180007831206888422FD02549206888422BD0AA
:10119000234918312068884226D022492068884295
:1011A00022D020491431206888421DD01D492831A1
:1011B0002068884218D01B493C312068884213D0EF
:1011C00018495031206888420ED016496431206891
:1011D000884209D0134978312068884204D01149E7
:1011E0008C312068884201D1012000E0002068B1E4
:1011F000D4E919104860E06E40B1E06E006820F458
:101200008070E16E0860D4E91C104860012084F809
:10121000350000BF002084F8340000BF00BF9DE50A
:10122000A00402400854025870B504460CB90120CD
:1012300070BD94F83500022803D08020606501203D
:10124000F6E7DC492068884249D0DA49183120683D
:10125000884244D0D7493031206888423FD0D549B0
:101260004831206888423AD0D249603120688842AB
:1012700035D0D04978312068884230D0CD4990317E
:10128000206888422BD0CB49A8312068884226D0DC
:10129000C9492068884222D0C7491831206888424D
:1012A0001DD0C54930312068884218D0C249483124
:1012B0002068884213D0C0496031206888420ED02F
:1012C000BD4978312068884209D0BB4990312068F7
:1012D000884204D0B849A8312068884201D1012051
:1012E00000E00020F0B3042084F83500B149206804
:1012F00088424BD0AF4918312068884246D0AD496A
:1013000030312068884241D0AA494831206888425B
:101310003CD0A84960312068884237D0A54978314F
:101320002068884232D0A3499031206888422DD06D
:10133000A049A8312068884228D09F492068884267
:1013400024D09D491831206888421FD09A493031F5
:10135000206888421AD0984948312068884215D0C0
:10136000954900E020E06031206888420ED0924923
:1013700078312068884209D08F49903120688842AE
:1013800004D08D49A8312068884206D120680068C1
:1013900020F001002168086009E12068006820F061
:1013A00001002168086002E12068006820F00E005A
:1013B000216808607F492068884249D07D491831FA
:1013C0002068884244D07B493031206888423FD031
:1013D00078494831206888423AD07649603120689F
:1013E000884235D0734978312068884230D07149BD
:1013F0009031206888422BD06E49A83120688842FD
:1014000026D06D492068884222D06B491831206867
:1014100088421DD0684930312068884218D066491A
:1014200048312068884213D063496031206888427F
:101430000ED0614978312068884209D05E499031E8
:101440002068884204D05C49A8312068884206D1CF
:101450002068006820F001002168086005E020682D
:10146000006820F001002168086052492068884225
:1014700070D050491831206888426BD04D493031C6
:101480002068884266D04B4948312068884261D044
:1014900048496031206888425CD0464978312068EC
:1014A000884257D0434990312068884252D0414900
:1014B000A831206888424DD03F492068884249D0F1
:1014C0003D4918312068884244D03B49303120687A
:1014D00088423FD038494831206888423AD036495E
:1014E00060312068884235D033497831206888429D
:1014F00030D031499031206888422BD02E49A83114
:101500002068884226D02D492068884222D02B4965
:101510001431206888421DD028492831206888422B
:1015200018D026493C312068884213D023495031D5
:10153000206888420ED0214964312068884209D051
:101540001E4978312068884204D01C498C312068BB
:10155000884201D1012000E00020D8B1206E00684F
:1015600020F48070216E0860A56D94F85C0000F096
:101570001F01012088406860D4E919104860E06EBE
:1015800040B1E06E006820F48070E16E0860D4E93C
:101590001C104860012084F8350000BF002084F84A
:1015A000340000BF206D10B12046216D8847002017
:1015B0003EE60000100002401004024008540258A9
:1015C00070B5044600F018FF06462546681C10B1A9
:1015D00004480078054400BF00F00EFF801BA842BD
:1015E000FAD370BD4400002470477047024609B921
:1015F000012070471068006800F00C00C862106895
:101600000068C0F3001081F828001068006800F03E
:101610006000486210680068C0F3002080F001009C
:1016200081F8200010680068C0F34020C877106877
:101630000068C0F3802080F001008877106800689F
:10164000C0F3C020487710680068C0F30030087706
:101650001068006800F4005088611068006800F4A9
:101660008040486110680068C0F3004088741068CA
:101670000068C0F3404080F00100487410680068C2
:10168000C0F3C04080F00100087410680068C0F327
:101690000050C87310680068C0F340508873106829
:1016A0000068C0F38050487310680068C0F3C050F1
:1016B00008731068006800F0E060886010680068D7
:1016C000C0F3C06008711068006800F0E040086076
:1016D00010684068C0F30D00486310684068C0F3AC
:1016E000004080F0010081F8320010684068C0F3CB
:1016F000404081F8310010684068C0F3804081F8B4
:10170000300010684068C0F3006081F8380010684D
:101710004068C0F34460C8631068C068C0F300202C
:1017200081F840001068C06800F00F00486410683D
:10173000006FC0F3400081F854001068006FC0F3E0
:10174000C01080F0010081F84C001068006F00F0BC
:10175000700008651068006F000C88641068D0F88D
:10176000900000F0010081F856001068D0F8900059
:10177000C0F3400081F855001068D0F8000D00F06B
:10178000720088651068D0F8300D00F02300C8653D
:101790001068D0F8300DC0F3C00081F86200106806
:1017A000D0F8300DC0F3001081F861001068D0F857
:1017B000300DC0F3801080F0010081F8600000203F
:1017C00017E7000070B50446206800F58050D0F897
:1017D000600100F04000402812D1206800F58050E0
:1017E000D0F8340100F04000402809D148F240010F
:1017F000206800F58050C0F86011204600F01CFB06
:10180000206800F58050D0F8600100F0010088B138
:10181000206800F58050D0F8340100F0010048B194
:1018200048F20101206800F58050C0F860112046A0
:1018300000F08EFC206800F58050D0F8600100F4C4
:101840008040B0F5804F46D1206800F58050D0F838
:10185000340100F48040B0F5804F3CD1D4F88800CA
:1018600040F00800C4F88800206800F58050D0F8E7
:10187000600100F48050B0F5805F19D1206800F558
:101880008050D0F8600141F202110840C4F88C0089
:10189000206800F58050D0F8340120F440412068E1
:1018A00000F58050C0F83411E020C4F884000FE047
:1018B000206800F58050D0F8600100F4CD40C4F8F5
:1018C0008C004FF4CD41206800F58050C0F86011C5
:1018D0002046FFF78AFE2068D0F8B45005F4804017
:1018E000B0F5804F04D005F40050B0F5005F12D180
:1018F0001434606F40F01000606754F8140CD0F896
:10190000B800E067E0202067143C2046FFF76DFE3A
:101910000020C4F890002068D0F8B00000F010005B
:1019200010280CD12068D0F8C00000F06000C4F886
:101930009400204600F09EF90020C4F8940020682E
:10194000D0F8B00000F0200020280CD12068D0F89A
:10195000C00000F00F00C4F898002046FFF744FED6
:101960000020C4F898000648006800F4800030B1F8
:101970004FF4800002490860204600F0EAFB70BD89
:10198000A800005838B504460CB9012038BDD4F879
:10199000840028B92320C4F88400204600F0A6F86B
:1019A00000BF4F48006840F002004D4908600846FB
:1019B000006800F00200009000BF00BF207A18B954
:1019C000002002F093FE03E04FF4000002F08EFED0
:1019D00044480068206800F58050006840F001012C
:1019E000206800F58050016000F006FD05460DE01E
:1019F00000F002FD401BB0F5FA7F07D90420C4F8BF
:101A00008800E020C4F884000120BFE7206800F5CA
:101A10008050006800F001000028E9D1204600F065
:101A20005FFA02F0D7F83049B0FBF1F0401E2168B0
:101A3000C1F8DC002046FEF77BFD206800F58050F1
:101A4000D0F8000120F4E01040F40021206800F5F7
:101A50008050C0F80011207D00F0030038B1012053
:101A6000C4F88800E020C4F8840001208EE72068D4
:101A700000F58050D0F8080147F6FE71884361698F
:101A800040EA4101206800F58050C0F80811204666
:101A9000FEF71DFD2046FEF7EAFC606800796168EC
:101AA000497940EA01202168C1F800036068C078E4
:101AB00000066168897840EA01406168497840EA37
:101AC00001206168097808432168C1F804030020F7
:101AD000C4F888001020C4F88400002056E70000F5
:101AE000F44402580404005840420F0010B586B078
:101AF0000446142101A8FEF758FC58492068884282
:101B00007ED100BF5648006840F400405449086048
:101B10000846006800F40040009000BF00BF00BF0E
:101B20000846006840F4803008600846006800F409
:101B30008030009000BF00BF00BF0846006840F43E
:101B4000003008600846006800F40030009000BFD4
:101B500000BF00BF42480830006840F00400404920
:101B6000083108600846006800F00400009000BFDB
:101B700000BF00BF0846006840F00100086008464A
:101B8000006800F00100009000BF00BF00BF0846E1
:101B9000006840F0020008600846006800F002009B
:101BA000009000BF00BF00BF0846006840F0400042
:101BB00008600846006800F04000009000BF00BFC9
:101BC0003220019002200290002003900320049014
:101BD0000B20059001A9234800F0FCFA8620019013
:101BE0000220029000200390032004900B20059017
:101BF00001A91D4800F0EEFA4FF40060019000E0EA
:101C00002AE00220029000200390032004900B2081
:101C1000059001A9154800F0DDFA4FF4C04001908D
:101C20000220029000200390032004900B200590D6
:101C300001A90F4800F0CEFA002211463D2000F025
:101C4000C1FC3D2000F0AAFC002211463E2000F01D
:101C5000B9FC3E2000F0A2FC06B010BD008002409E
:101C6000D8440258000802580000025800040258E4
:101C70000018025870472DE9F05F04460F464FF0F8
:101C80000008C34647B9D4F8880040F00100C4F802
:101C900088000120BDE8F09FD4F88400232801D0FB
:101CA0000120F7E7E66D04F1480050F82650E06E99
:101CB000C0F1040941E0E86800F0804018B16968AB
:101CC000A16729686167E86800F0005008B9E06F13
:101CD00038B3E86800F0005010B100212166616659
:101CE000D4F814A0E86800F0805048B1E868C0F368
:101CF0000E01606EA1EB000AE96821674FF0010B4D
:101D00001FFA8AF304F18001081F2A6900F096F88F
:101D1000206E401C2066606E00EB0A0161660020A8
:101D2000286100BF761C042E00D3361F00BF04F1CB
:101D3000480050F8265008F10108E86800F000401B
:101D400020B9C84502D2BBF1000FB4D0E06E00EB61
:101D50000801E166E06E10B12046FEF791FFE665EE
:101D6000BBF1010F05D1E06F38600021E167002071
:101D700090E701208EE72DE9F04704460F46904694
:101D800099462068D0F8000200F0010010B101204F
:101D9000BDE8F0872068D0F8005225F0787040EA5E
:101DA000475525F4F81040EA084545F00C0545F084
:101DB00001052068C0F8005200F01EFB064607E04F
:101DC00000F01AFB801BB0F57A7F01D90120DFE714
:101DD0002068D0F8000200F001000028F0D120684F
:101DE000D0F8040280B2C9F800000020D0E700005B
:101DF0007CB504460D4808F0DFF9054685B105F1CC
:101E0000200020600A48286140F2F45120682B46E7
:101E10004122CDE900010021084609F09BF904E0C8
:101E2000012004490870002020607CBD9C2201082C
:101E3000C1B8000808000024704700002DE9F047F1
:101E400004460F462146BC460020A2F12000002592
:101E50000560058143810D680DB9086002E0DCF87A
:101E600000502860CCF80000086803E005891D4494
:101E7000058100680028F9D115461E46002E17DDA1
:101E800005F01F0A0AEB0608A946BFF34F8F00BFF3
:101E9000DFF824A0CAF8009009F12009A8F1200871
:101EA000B8F1000FF4DCBFF34F8FBFF36F8F00BFAB
:101EB00000BFBDE8F08700005CEF00E070B50446AD
:101EC0000D460DB9012070BDD4F88400102805D14D
:101ED00029462046FEF70AFE0020F4E70120F2E73B
:101EE00070B506463068D0F8005225F4706501F0F0
:101EF00071FE04461348844205D31348844202D23B
:101F000045F400751AE01048844205D30F48844216
:101F100002D245F4407511E00C48844203D30C48CA
:101F2000844200D20AE00A48844205D30948844228
:101F300002D245F4807501E045F480653068C0F850
:101F4000005270BD002D3101C00E160200879303B0
:101F500000E1F50580D1F00810B50446D4F88400FE
:101F6000102844D12320C4F884000421E1662046CF
:101F7000FEF786FE2068006840F0020021680860D5
:101F80002068006840F00100216808602068D0F8EF
:101F9000000D40F001002168C1F8000D206800F537
:101FA0008050D0F8040140F00101206800F5805015
:101FB000C0F80411206800F58050D0F8080140F006
:101FC0000101206800F58050C0F80811206800F574
:101FD0008050D0F8600140F48171206800F5805095
:101FE000C0F860112320C4F88400002010BD012037
:101FF000FCE70146D1F88400232832D1C1F88400DF
:10200000086800F58050D0F8040120F0010208684B
:1020100000F58050C0F80421086800F58050D0F821
:10202000080120F00102086800F58050C0F808217E
:102030000868006820F001000A6810600868D0F89D
:10204000000D40F001000A68C2F8000D0868006841
:1020500020F002000A6810601020C1F884000020FF
:1020600070470120FCE72DE9F041044688461546FB
:10207000B8F1000F08D1D4F8880040F00100C4F88E
:1020800088000120BDE8F081D4F8840023285DD1C8
:10209000002241462046FEF701FB38B1D4F8880003
:1020A00040F00200C4F888000120EBE7BFF34F8F37
:1020B00004F11800A16A50F8217000BFA06A401C0A
:1020C000A062A06A042802D3A06A001FA06200BF19
:1020D00004F11800A16A50F82110206800F5805022
:1020E000C0F8201100F088F9064629E0206800F5C4
:1020F0008050D0F8600100F4805070B1D4F88800AE
:1021000040F00800C4F88800206800F58050D0F83E
:102110006001C4F88C000120B4E7681C80B100F0B5
:102120006BF9801BA84200D855B9D4F8880040F05C
:102130000400C4F888004FF04050F8600120A1E787
:10214000F86800F000400028D0D19BE7012099E713
:10215000704770472DE9F04705460F46904699466F
:102160002868D0F8000200F0010010B10120BDE89D
:10217000F0872868D0F8004224F0787040EA47548D
:1021800024F4F81040EA084424F00C00041D44F044
:1021900001041FFA89F00D4908600D48C0F800429B
:1021A00000F02AF9064607E000F026F9801BB0F59A
:1021B0007A7F01D90120DAE72868D0F8000200F020
:1021C00001000028F0D100BFD1E7000004820240E6
:1021D00000800240F8B502460B4600216F4DD7E063
:1021E00001278F401E6806EA0704002C72D01E7972
:1021F00006F00306012E04D01E7906F00306022E17
:1022000013D190684F000326BE40B0434F00DE68F4
:10221000BE4030439060506801268E40B0431E7926
:10222000C6F300168E40304350601E7906F0030658
:10223000032E09D0D0684F000326BE40B0434F00A4
:102240009E68BE403043D0601E7906F00306022E21
:1022500013D1CF0802F1200656F827004E07F70EDB
:102260000F26BE40B0434F07FF0E1E69BE403043ED
:10227000CF0802F1200646F8270010684F00032619
:10228000BE40B0431E7906F003064F00BE40304307
:1022900010605E6806F44036002E78D000BF404ED5
:1022A000366846F002063E4F3E603E46366806F00F
:1022B0000206009600BF00BF3A4E8F0856F827006E
:1022C0008E07370F0F26BE40B043374EB24202D1C1
:1022D00000262EE05BE0354EB24201D1012628E017
:1022E000334EB24201D1022623E0324EB24201D136
:1022F00003261EE0304EB24201D1042619E02F4ED3
:10230000B24201D1052614E02D4EB24201D106267B
:102310000FE02C4EB24201D107260AE02A4EB2420B
:1023200001D1082605E0294EB24201D1092600E07C
:102330000A268F073F0FBE4030431A4E8F0846F8DB
:1023400027004FF0B0463068A0435E6806F4801660
:1023500006B120434FF0B04630607068A0435E681D
:1023600006F4001606B120434FF0B046706068686E
:10237000A0435E6806F4003606B120436860286812
:10238000A0435E6806F4803606B120432860491CED
:102390001E68CE40002E7FF423AFF8BD80000058A9
:1023A000F44402580804005800000258000402587F
:1023B00000080258000C025800100258001402587D
:1023C00000180258001C025800200258002402582D
:1023D000024613690B400BB1012000E0002070475A
:1023E0000AB1816101E00B04836170470148006814
:1023F000000C70470010005C014800687047000046
:102400003C00002403480068034909780844014956
:10241000086070473C0000244400002410B50320ED
:1024200000F00EF901F020FC10490968C1F3032106
:102430000F4A515C01F01F0120FA01F40B480068BB
:1024400000F00F001146085C00F01F0024FA00F0B5
:1024500008490860084804600F2000F00FF808B130
:10246000012010BD00F088F80020FAE71844025857
:10247000D02201084C0000244800002470B5044616
:102480001148007808B9012070BD0F4800784FF45A
:102490007A71B1FBF0F00D490968B1FBF0F52846FF
:1024A00002F02EF908B10120EEE7102C07D200222D
:1024B0002146501E00F086F80548046001E0012026
:1024C000E2E70020E0E70000440000244800002488
:1024D000400000244178154A11600178F9B1121DBD
:1024E00041681160017B0907C27A41EA0261827A80
:1024F00041EAC241427B41EA8241827B41EA424158
:10250000C27B41EA0241427A41EA0221027A41EA6F
:10251000420102781143054A0832116005E00021AA
:10252000024A121D1160121D1160704798ED00E003
:10253000BFF35F8F0548006820F4803003490860CE
:1025400000200249703108607047000024ED00E06F
:1025500040F00101074A116006497039096841F4E9
:102560008031044A703A1160BFF34F8FBFF36F8F11
:102570007047000094ED00E008B500BF0648006811
:1025800040F00200044908600846006800F00200BC
:10259000009000BF00BF08BDF44402580146084641
:1025A00000280DDB00BF00BF00F01F0301229A408E
:1025B00043099B0003F1E023C3F8002100BF00BFE3
:1025C00000BF70472DE9F05F80460D46164604F0C7
:1025D00009F8074639462A46334601F00700C0F19C
:1025E000070ABAF1040F02D94FF0040A01E0C0F162
:1025F000070AD14600F1040ABAF1070F02D24FF0E0
:10260000000A01E0A0F1030AD4464FF0010A0AFAD9
:1026100009FAAAF1010A0AEA020A0AFA0CFA4FF0C8
:10262000010B0BFA0CFBABF1010B0BEA030B4AEAB3
:102630000B042146404603F0DDFFBDE8F09F00009B
:1026400000BF00F00702064B19684FF6FF03194060
:10265000044B0B4343EA0221014B196000BF704752
:102660000CED00E00000FA0570B50446154800685E
:10267000C0F3800048B91348006800F00700A0428A
:1026800001D0012070BD0020FCE70E48006820F05A
:10269000070020430B490860FFF7AEFE054607E040
:1026A000FFF7AAFE401BB0F57A7F01D90120E9E7C8
:1026B000044808380068C0F340300028F0D00020FB
:1026C000E0E700000C48025810B501F083FA054914
:1026D0000968C1F30211044A515C01F01F01C840AE
:1026E00010BD000020440258D022010870B50146F8
:1026F000844D2D6805F00303824D2D68C5F3053028
:10270000804D2D1D2D68C5F300147E4D14352D68A8
:10271000C5F3CC0515FB04F501EE105AB8EE411ACD
:10272000F0EE410A00286FD023B1012B4ED0022BCE
:102730006BD16BE0734D283D2D68C5F340153DB35B
:10274000704D283D2D68C5F3C1066F4D25FA06F280
:1027500001EE102AF8EE411A01EE100AB8EE411A05
:1027600081EE812A9FED691AC0EE811A654D103500
:102770002D68C5F3080501EE105AB8EE411A31EE86
:10278000811AF7EE001A31EE211A22EE010A1CE03E
:1027900001EE100AB8EE411ADFED5D1A81EE812AD2
:1027A0009FED5A1AC0EE811A564D10352D68C5F3AB
:1027B000080501EE105AB8EE411A31EE811AF7EE13
:1027C000001A31EE211A22EE010A5BE001EE100A36
:1027D000B8EE411ADFED4F1A81EE812A9FED4B1AB8
:1027E000C0EE811A474D10352D68C5F3080501EE7E
:1027F000105AB8EE411A31EE811AF7EE001A31EE96
:10280000211A22EE010A3DE077E01DE001EE100AF8
:10281000B8EE411A9FED402AC2EE011A9FED3B1A15
:1028200080EE812A374D10352D68C5F3080501EE7D
:10283000105AB8EE411A32EE011AB7EE002A31EE04
:10284000021A21EE810A1DE001EE100AB8EE411ACB
:10285000DFED301A81EE812A9FED2C1AC0EE811A2D
:10286000284D10352D68C5F3080501EE105AB8EE55
:10287000411A31EE811AF7EE001A31EE211A22EEDA
:10288000010A00BF00BF1F4D10352D68C5F3462556
:1028900001EE105AB8EE411AF7EE001A31EE211A85
:1028A000C0EE011ABCEEE11A81ED001A154D10358B
:1028B0002D68C5F3064501EE105AB8EE411AF7EE41
:1028C000001A31EE211AC0EE011ABCEEE11A81EDB8
:1028D000011A0C4D10352D68C5F3066501EE105A2E
:1028E000B8EE411AF7EE001A31EE211AC0EE011AC5
:1028F000BCEEE11A81ED021A03E000250D604D6087
:102900008D6070BD284402580090D003000000463E
:102910000024744C0024744A20BCBE4B70B50146A0
:10292000844D2D6805F00303824D2D68C5F30550D5
:10293000804D2D1D2D68C5F300247E4D1C352D685E
:10294000C5F3CC0515FB04F501EE105AB8EE411A9B
:10295000F0EE410A00286FD023B1012B4ED0022B9C
:102960006BD16BE0734D283D2D68C5F340153DB329
:10297000704D283D2D68C5F3C1066F4D25FA06F24E
:1029800001EE102AF8EE411A01EE100AB8EE411AD3
:1029900081EE812A9FED691AC0EE811A654D1835C6
:1029A0002D68C5F3080501EE105AB8EE411A31EE54
:1029B000811AF7EE001A31EE211A22EE010A1CE00C
:1029C00001EE100AB8EE411ADFED5D1A81EE812AA0
:1029D0009FED5A1AC0EE811A564D18352D68C5F371
:1029E000080501EE105AB8EE411A31EE811AF7EEE1
:1029F000001A31EE211A22EE010A5BE001EE100A04
:102A0000B8EE411ADFED4F1A81EE812A9FED4B1A85
:102A1000C0EE811A474D18352D68C5F3080501EE43
:102A2000105AB8EE411A31EE811AF7EE001A31EE63
:102A3000211A22EE010A3DE077E01DE001EE100AC6
:102A4000B8EE411A9FED402AC2EE011A9FED3B1AE3
:102A500080EE812A374D18352D68C5F3080501EE43
:102A6000105AB8EE411A32EE011AB7EE002A31EED2
:102A7000021A21EE810A1DE001EE100AB8EE411A99
:102A8000DFED301A81EE812A9FED2C1AC0EE811AFB
:102A9000284D18352D68C5F3080501EE105AB8EE1B
:102AA000411A31EE811AF7EE001A31EE211A22EEA8
:102AB000010A00BF00BF1F4D18352D68C5F346251C
:102AC00001EE105AB8EE411AF7EE001A31EE211A53
:102AD000C0EE011ABCEEE11A81ED001A154D183551
:102AE0002D68C5F3064501EE105AB8EE411AF7EE0F
:102AF000001A31EE211AC0EE011ABCEEE11A81ED86
:102B0000011A0C4D18352D68C5F3066501EE105AF3
:102B1000B8EE411AF7EE001A31EE211AC0EE011A92
:102B2000BCEEE11A81ED021A03E000250D604D6054
:102B30008D6070BD284402580090D003000000460C
:102B40000024744C0024744A20BCBE4B2DE9F04193
:102B500004460025A8464FF00062D4E90010114059
:102B60000020134659404040014331D1A06E48B186
:102B7000B0F5801F0DD0B0F5001F11D0B0F5401F8B
:102B800016D114E0F948006840F40030F7490860B5
:102B900010E0022104F1080002F0F8FD054609E00A
:102BA000022104F1280002F0A3FE054602E001E044
:102BB000012500BF00BF55B9EC482430006820F45F
:102BC0004010A16E0843E9492431086000E0A8469E
:102BD0004FF48073D4E90010194000205940404060
:102BE00001432ED1A06D05281BD2DFE800F0030AB7
:102BF00011181900DD48006840F40030DB49086016
:102C000011E0002104F1080002F0C0FD05460AE0D1
:102C1000002104F1280002F06BFE054603E002E00B
:102C200001E0012500BF00BF55B9D048243000683D
:102C300020F00700A16D0843CC492431086000E072
:102C4000A8464FF40073D4E9001019400020594001
:102C50004040014334D1E06D802818D003DC40B1FE
:102C600040281DD10CE0C02818D0B0F5807F17D1C6
:102C700015E0BE48006840F40030BC49086011E02F
:102C8000002104F1080002F081FD05460AE0002160
:102C900004F1280002F02CFE054603E002E001E00A
:102CA000012500BF00BF55B9B0482430006820F4AA
:102CB000E070E16D0843AD492431086000E0A846AA
:102CC0004FF48063D4E9001019400020594040407F
:102CD000014339D1D4F8A800B0F5800F1AD004DC34
:102CE00050B1B0F5001F1ED10DE0B0F5C00F18D0E7
:102CF000B0F5000F17D115E09C48006840F4003093
:102D00009A49086011E0002104F1080002F03EFD3C
:102D100005460AE0002104F1280002F0E9FD05461D
:102D200003E002E001E0012500BF00BF5DB98F486C
:102D30002C30006820F46000D4F8A81008438B49B8
:102D40002C31086000E0A8464FF40062D4E900107E
:102D500011400020134659404040014339D1D4F876
:102D6000AC00B0F1007F1AD004DC50B1B0F1807F2C
:102D70001ED10DE0B0F1407F18D0B0F1806F17D1B7
:102D800015E07A48006840F400307849086011E0A6
:102D9000002104F1080002F0F9FC05460AE00021D8
:102DA00004F1280002F0A4FD054603E002E001E082
:102DB000012500BF00BF5DB96C482C30006820F0D1
:102DC000E060D4F8AC10084368492C31086000E09A
:102DD000A8464FF00073D4E9000118400021584084
:102DE0004940084328D1E06CA8B1102804D020281D
:102DF00009D0302810D10DE05C48006840F4003064
:102E00005A4908600AE0022104F1080002F0BEFC01
:102E1000054603E002E001E0012500BF00BF55B90F
:102E200052482030006820F03000E16C08434F49E0
:102E30002031086000E0A8464FF48053D4E9001028
:102E40001940002059404040014337D1206EB0F571
:102E5000005F1AD004DC50B1B0F5805F1ED10DE0E8
:102E6000B0F5405F18D0B0F5804F17D115E03F485E
:102E7000006840F400303D49086011E0002104F191
:102E8000080002F083FC05460AE0002104F1280056
:102E900002F02EFD054603E002E001E0012500BF3F
:102EA00000BF55B931482430006820F4E040216E5D
:102EB00008432E492431086000E0A8464FF400532F
:102EC000D4E900101940002059404040014335D159
:102ED000606EB0F5403F1ED007DC68B1B0F5803FB2
:102EE0000BD0B0F5003F19D10EE0B0F5802F13D014
:102EF000B0F5A02F12D110E012E0012104F108007A
:102F000002F044FC05460BE0012104F1280002F028
:102F1000EFFC054604E003E002E001E0012500BF0C
:102F200000BF55B911482430006820F4E020616EDC
:102F300008430E492431086000E0A8464FF480435E
:102F4000D4E900011840002158404940084337D1D6
:102F5000D4F8B000B0F1405F20D009DC78B1B0F116
:102F6000805F0DD0B0F1005F1BD110E02C440258FF
:102F7000B0F1804F13D0B0F1A04F12D110E012E0A9
:102F8000012104F1080002F001FC05460BE00121DB
:102F900004F1280002F0ACFC054604E003E002E086
:102FA00001E0012500BF00BF4DB9FE48006820F0D8
:102FB000E040D4F8B0100843FA49086000E0A846A1
:102FC0004FF40042D4E9001011400020134659404C
:102FD0004040014329D1206FB0B1B0F1805F03D0F0
:102FE000B0F1005F11D108E0EE482C38006840F4E1
:102FF0000030EC492C39086009E0012104F1080097
:1030000002F0C4FB054602E001E0012500BF00BF5D
:1030100055B9E4480838006820F04050216F084353
:10302000E0490839086000E0A8464FF08072D4E912
:1030300000101140002013465940404001432AD15E
:10304000A06CB8B1012804D002280BD0032812D1FB
:103050000FE0D4482C38006840F40030D1492C39B6
:1030600008600AE0022104F1080002F08FFB054627
:1030700003E002E001E0012500BF00BF55B9C948E7
:103080000C38006820F00300A16C0843C5490C39D6
:10309000086000E0A8464FF48002D4E90001104027
:1030A000002113465840494008437DD1BE4800687E
:1030B00040F48070BC490860FFF79EF9064606E0C0
:1030C000FFF79AF9801B642801D9032505E0B6486B
:1030D000006800F480700028F2D000BF85BBB148C2
:1030E0001830006800F44070B4F8B41001F4407176
:1030F000884213D0AB481830006820F44077A948C4
:103100001830006840F48030A6491831086008463D
:10311000006820F48030086008460760D4F8B400E6
:10312000B0F5807F15D1FFF767F9064609E0FFF794
:1031300063F9801B41F28831884202D9032507E0F8
:1031400038E0984818300068C0F340000028EED0FE
:1031500000BF55BB00BFB4F8B40000F44070B0F538
:10316000407F0ED18F484838006820F47C518F4A48
:10317000D4F8B400104041EA10108A494839086078
:1031800007E088484838006820F47C508549483971
:103190000860844818300068B4F8B410C1F30B011B
:1031A00008438049183101E005E001E0086002E0D1
:1031B000A84600E0A8460122D4E900011040002101
:1031C000134658404940084330D1E06F18281AD0C0
:1031D00005DC48B1082808D0102817D10CE02028B9
:1031E00012D0282812D110E012E0012104F10800C9
:1031F00002F0CCFA05460BE0012104F1280002F0B0
:1032000077FB054604E003E002E001E0012500BF92
:1032100000BF55B96348001F006820F03800E16F17
:1032200008436049091F086000E0A8460222D4E96B
:10323000000110400021134658404940084329D15D
:10324000A06F062816D2DFE800F003040B12131457
:1032500012E0012104F1080002F098FA05460BE0A3
:10326000012104F1280002F043FB054604E003E0DD
:1032700002E001E0012500BF00BF55B94948001F29
:10328000006820F00700A16F08434649091F086045
:1032900000E0A8460423D4E900101940002059405A
:1032A0004040014329D1D4F89400062816D2DFE823
:1032B00000F003040B12131412E0012104F10800C2
:1032C00002F064FA05460BE0012104F1280002F047
:1032D0000FFB054604E003E002E001E0012500BF2A
:1032E00000BF4DB92F48006820F00700D4F89410B3
:1032F00008432C49086000E0A8462023D4E90001D7
:103300001840002158404940084337D1D4F8900074
:10331000B0F1405F1ED007DC68B1B0F1805F0BD028
:10332000B0F1005F19D10EE0B0F1804F13D0B0F1D1
:10333000A04F12D110E012E0002104F1080002F0C9
:1033400025FA05460BE0022104F1280002F0D0FA2C
:10335000054604E003E002E001E0012500BF00BFF4
:103360005DB91048001F006820F0E040D4F89010CC
:1033700008430C49091F086000E0A8464023D4E92F
:103380000010194000205940404001433CD1D4F87E
:103390009C00B0F5406F25D00EDCA0B1B0F5806F79
:1033A00012D005E05844025800480258FFFCFF0FB5
:1033B000B0F5006F19D10EE0B0F5805F13D0B0F515
:1033C000A05F12D110E012E0002104F1080002F029
:1033D000DDF905460BE0022104F1280002F088FA2D
:1033E000054604E003E002E001E0012500BF00BF64
:1033F0004DB9FE48006820F4E050D4F89C10084312
:10340000FA49086000E0A8468023D4E9001019407A
:10341000002059404040014335D1D4F8A000B0F518
:10342000C04F1ED007DC68B1B0F5005F0BD0B0F51F
:10343000804F19D10EE0B0F5004F13D0B0F5204FFA
:1034400012D110E012E0002104F1080002F09EF910
:1034500005460BE0022104F1280002F049FA054676
:1034600004E003E002E001E0012500BF00BF4DB928
:10347000DE48006820F46040D4F8A0100843DB491F
:10348000086000E0A8460823D4E900101940002095
:1034900059404040014317D1D4F88400B0F5805F13
:1034A00007D1022104F1280002F022FA08B14FF0FE
:1034B0000108CE48001F006820F44050D4F8841062
:1034C0000843CA49091F08601023D4E900101940B5
:1034D000002059404040014315D1D4F89800B0F580
:1034E000807F07D1022104F1280002F001FA08B11F
:1034F0004FF00108BD48006820F44070D4F89810DF
:103500000843BA4908604FF40022D4E90001104092
:103510000021134658404940084327D1D4F8A4005D
:1035200030B1B0F5803F0AD0B0F5003F0FD10DE0CB
:10353000002104F1080002F029F9054609E0022102
:1035400004F1280002F0D4F9054602E001E001256B
:1035500000BF00BF4DB9A548006820F44030D4F842
:10356000A4100843A149086000E0A8464FF4802356
:10357000D4E90001184000215840494008432DD1AA
:10358000D4F88800B0F5801F06D0B0F5001F0CD02D
:10359000B0F5401F11D10FE094482C38006840F47A
:1035A000003092492C39086009E0012104F128001B
:1035B00002F09EF9054602E001E0012500BF00BFD0
:1035C0005DB98A48001F006820F44010D4F88810C4
:1035D00008438649091F086000E0A8464FF480327E
:1035E000D4E90001104000211346584049400843E7
:1035F00025D1206D18B1B0F5803F10D108E07B488F
:103600002C38006840F4003078492C39086008E014
:10361000022104F1080002F0B9F8054601E0012595
:1036200000BF00BF55B971480C38006820F48030E5
:10363000216D08436D490C39086000E0A8464FF041
:103640000052D4E900101140002013465940404078
:10365000014307D1022104F1280002F049F908B121
:103660004FF001084FF40033D4E900011840002165
:1036700058404940084329D1D4F88000A0B1B0F5A2
:10368000807F06D0B0F5007F0CD0B0F5407F0CD124
:1036900009E056482C38006840F4003053492C3972
:1036A000086004E003E002E001E0012500BF00BF84
:1036B0005DB94E48001F006820F44070D4F88010B7
:1036C00008434A49091F086000E0A8464FF48012E9
:1036D000D4E90010114000201346594040400143F6
:1036E00009D142480838006820F00040616F084363
:1036F0003E49083908604FF08052D4E9001011406B
:10370000002013465940404001430AD13748483809
:10371000006820F48040D4F8B81008433349483991
:1037200008604FF40012D4E9001011400020134645
:1037300059404040014309D12C480838006820F026
:103740008070E16E08432949083908604FF08042D3
:10375000D4E9001011400020134659404040014375
:1037600011D100BF21484838006820F400401F49AB
:103770004839086008460068D4F8BC1008431B4963
:103780004839086000BF4FF00042D4E900101140F2
:103790000020134659404040014309D113480C38DA
:1037A000006820F04050616D084310490C390860F2
:1037B0004FF40002D4E90010114000201346594094
:1037C000404001430AD10948001F006820F440002E
:1037D000D4F88C1008430549091F08600123002113
:1037E0006068184001224940504001E058440258A6
:1037F000014306D104F1080001F0C8FF054605B1F8
:10380000A846022200216068104049405040014310
:1038100007D1012104F1080001F0B8FF054605B108
:10382000A84604230020616819400422404051400A
:10383000084307D1022104F1080001F0A7FF054663
:1038400005B1A846082300216068184008224940B5
:103850005040014306D104F1280002F049F8054622
:1038600005B1A84610220021606810404940504030
:10387000014307D1012104F1280002F039F805467F
:1038800005B1A84620220020616811404040514007
:10389000084307D1022104F1280002F029F8054667
:1038A00005B1A846B8F1000F02D10020BDE8F081B3
:1038B0000120FBE72DE9F04104460D4614B9012033
:1038C000BDE8F081BD48006800F00F00A8420ED2AC
:1038D000BA48006820F00F002843B849086008463D
:1038E000006800F00F00A84201D00120E8E720782E
:1038F00000F0040004280ED1B1492069096801F0E4
:103900007001884207D9AE48006820F07000216934
:103910000843AB490860207800F00800082811D15E
:10392000A749091D6069096801F07001884209D939
:10393000A348001D006820F0700061690843A04999
:10394000091D0860207800F01000102811D19C4952
:10395000091DA069096801F4E061884209D9984805
:10396000001D006820F4E060A16908439449091D26
:103970000860207800F02000202811D190490831FB
:10398000E069096801F07001884209D98C48083063
:10399000006820F07000E169084389490831086037
:1039A000207800F0020002280ED18549E0680968FD
:1039B00001F00F01884207D98148006820F00F000C
:1039C000E16808437E490860207800F00100002883
:1039D00050D07B48006820F47060A16808437849A3
:1039E00008606068022807D1754818380068C0F37D
:1039F0004040F8B9012063E76068032807D17048A8
:103A000018380068C0F34060A0B9012058E760682A
:103A1000012807D16A4818380068C0F3002048B967
:103A200001204DE7664818380068C0F3800008B9E7
:103A3000012045E762480838006820F00700616807
:103A400008435F4908390860FEF7D6FC064608E0DF
:103A5000FEF7D2FC801B41F28831884201D9032055
:103A60002EE757480838006800F038006168B0EB6E
:103A7000C10FEDD1207800F0020002280ED150498C
:103A8000E068096801F00F01884207D24C480068DD
:103A900020F00F00E1680843494908604748006882
:103AA00000F00F00A8420ED94448006820F00F0033
:103AB0002843424908600846006800F00F00A84209
:103AC00001D00120FCE6207800F0040004280ED18B
:103AD0003B492069096801F07001884207D23848E3
:103AE000006820F07000216908433549086020789B
:103AF00000F00800082811D13149091D60690968E2
:103B000001F07001884209D22D48001D006820F0A4
:103B10007000616908432A49091D0860207800F097
:103B20001000102811D12649091DA069096801F467
:103B3000E061884209D22248001D006820F4E0605C
:103B4000A16908431E49091D0860207800F0200083
:103B5000202811D11A490831E069096801F0700183
:103B6000884209D216480830006820F07000E169E8
:103B7000084313490831086000F076F810490968D5
:103B8000C1F303210F4A515C01F01F0120FA01F734
:103B90000B48006800F00F001146085C00F01F00A1
:103BA00027FA00F0084908600848076008480068DC
:103BB000FEF764FC8046404682E60000002000528A
:103BC00018440258D02201084C0000244800002468
:103BD0004000002410B500F047F80D490968C1F312
:103BE00003210C4A515C01F01F0120FA01F408483E
:103BF000006800F00F001146085C00F01F0024FA76
:103C000000F005490860054804600846006810BDDA
:103C100018440258D02201084C0000244800002417
:103C200000B5FFF7D7FF05490968C1F30211044A3F
:103C3000515C01F01F01C84000BD00001C44025847
:103C4000D022010800B5FFF7C5FF05490968C1F397
:103C50000221044A515C01F01F01C84000BD000070
:103C60001C440258D0220108F0B5824E366806F096
:103C7000380636B1082E15D0102E15D0182E7DD14D
:103C800014E07C4E103E3668C6F3401646B1794EBD
:103C9000103E3668C6F3C107774E26FA07F000E0FB
:103CA0007548E5E07548E3E07548E1E0714E183687
:103CB000366806F003046F4E18363668C6F30511F1
:103CC0006C4E1C36366806F001056A4E243636689E
:103CD000C6F3CC0616FB05F601EE106AB8EE410AF3
:103CE000002971D024B1012C50D0022C6DD16DE08F
:103CF000604E103E3668C6F340163EB35D4E103E31
:103D00003668C6F3C1075C4E26FA07F301EE103A97
:103D1000F8EE411A01EE101AB8EE411A81EE812A2E
:103D20009FED581AC0EE011A524E20363668C6F37F
:103D3000080601EE106AB8EE411A31EE811AF7EE6C
:103D4000001A31EE211A62EE010A1EE001EE101A8D
:103D5000B8EE411ADFED4C1A81EE812A9FED491A27
:103D6000C0EE011A434E20363668C6F3080601EE4F
:103D7000106AB8EE411A31EE811A00E076E0F7EEF3
:103D8000001A31EE211A62EE010A5BE001EE101A10
:103D9000B8EE411A9FED3D2AC2EE011A9FED391A85
:103DA00080EE012A334E20363668C6F3080601EE4F
:103DB000106AB8EE411A32EE011AB7EE002A31EE5F
:103DC000021A61EE810A3DE04EE01DE001EE101A9C
:103DD000B8EE411ADFED2E1A81EE812A9FED291AE5
:103DE000C0EE011A234E20363668C6F3080601EEEF
:103DF000106AB8EE411A31EE811AF7EE001A31EE70
:103E0000211A62EE010A1DE001EE101AB8EE411A05
:103E10009FED1E2AC2EE011A9FED1A1A80EE012AAA
:103E2000144E20363668C6F3080601EE106AB8EE66
:103E3000411A32EE011AB7EE002A31EE021A61EE93
:103E4000810A00BF00BF0B4E20363668C6F34626F7
:103E5000721C01EE102AB8EE411AC0EE811ABCEEB7
:103E6000E11A11EE100A00E0002001E0034800BF53
:103E700000BFF0BD104402580090D00300093D007F
:103E800040787D01000000460024744C0024744AF0
:103E900020BCBE4B2DE9F047044614B90120BDE813
:103EA000F087207800F00100002870D0FA48006800
:103EB00000F03808F8481830D0F80090B8F1100F2A
:103EC00006D0B8F1180F0FD109F0030002280BD16A
:103ED000F14810380068C0F3404000286AD060689C
:103EE000002867D10120DAE700BF6068B0F5803FA5
:103EF00008D1E9481038006840F48030E6491039AC
:103F000008602EE0606868B9E3481038006820F463
:103F10008030E149103908600846006820F48020AC
:103F200008601EE06068B0F5A02F0DD1DA481038A7
:103F3000006840F48020D8491039086008460068BD
:103F400040F4803008600CE0D3481038006820F45A
:103F50008030D149103908600846006820F480207C
:103F6000086000BF606898B1FEF746FA054606E0B3
:103F7000FEF742FA401B642801D903208FE7C648A8
:103F800010380068C0F340400028F1D012E012E081
:103F9000FEF732FA054606E0FEF72EFA401B6428CB
:103FA00001D903207BE7BC4810380068C0F34040CB
:103FB0000028F1D100BF207800F00200022874D15F
:103FC000B548006800F03808B3481830D0F80090C1
:103FD000B8F1000F05D0B8F1180F56D109F0030061
:103FE000D0BBAD4810380068C0F3800018B1E0685D
:103FF00008B9012053E7A8481038006820F01900DC
:10400000E1680843A44910390860FEF7F5F9054650
:1040100006E0FEF7F1F9401B022801D903203EE734
:104020009D4810380068C0F380000028F1D000BF20
:10403000FEF7DCF941F2030188421AD820694028D2
:104040000BD195480C38006820F47C3040F40030E7
:1040500091490C39086017E017E08F480C38006868
:1040600020F47C30216940EA01308B490C3908602A
:104070000AE089480C38006820F0FE40217C40EAC4
:10408000016085490C39086066E0E06888B38248C1
:104090001038006820F01900E16808437E491039A3
:1040A0000860FEF7A9F9054607E056E0FEF7A4F917
:1040B000401B022801D90320F1E677481038006838
:1040C000C0F380000028F1D000BFFEF78FF941F265
:1040D000030188421AD8206940280BD16E480C3859
:1040E000006820F47C3040F400306B490C390860E3
:1040F00017E017E068480C38006820F47C3021692C
:1041000040EA013064490C3908600AE062480C3822
:10411000006820F0FE40217C40EA01605E490C39D5
:10412000086019E05C481038006820F001005A4926
:1041300010390860FEF760F9054606E0FEF75CF905
:10414000401B022801D90320A9E653481038006813
:10415000C0F380000028F1D100BF207800F01000EB
:1041600010287CD14C48006800F038084A481830C4
:10417000D0F80090B8F1080F06D0B8F1180F3DD173
:1041800009F00300012839D1434810380068C0F312
:10419000002020B1E069802801D001207FE600BF27
:1041A000FEF724F941F2030188421AD8206A202838
:1041B0000AD139480C38006820F0F84040F08040BF
:1041C00035490C39086018E033480C38006820F095
:1041D000F84094F8201040EA81602F490C390860BB
:1041E0000BE02D48001F006820F07C5094F8201050
:1041F00040EA01602849091F086066E0E06978B379
:1042000025481038006840F08000234910390860C4
:10421000FEF7F2F8054606E0FEF7EEF8401B02282E
:1042200001D903203BE61C4810380068C0F3002089
:104230000028F1D000BFFEF7D9F841F2030188420F
:104240001CD8206A20280CD113480C38006820F0B4
:10425000F84040F0804010490C3908601AE035E021
:104260001CE00D480C38006820F0F84094F820104D
:1042700040EA816008490C3908600BE00648001FDD
:10428000006820F07C5094F8201040EA0160024958
:10429000091F086019E0000010440258FA4800683D
:1042A00020F08000F8490860FEF7A6F8054606E011
:1042B000FEF7A2F8401B022801D90320EFE5F248DF
:1042C0000068C0F300200028F2D100BF207800F081
:1042D0000800082836D16069D0B1EB487430006816
:1042E00040F00100E84974310860FEF785F80546A2
:1042F00006E0FEF781F8401B022801D90320CEE535
:10430000E14874300068C0F340000028F1D019E0A3
:10431000DD487430006820F00100DB49743108602A
:10432000FEF76AF8054606E0FEF766F8401B02282D
:1043300001D90320B3E5D44874300068C0F34000CD
:104340000028F1D1207800F02000202830D1A06989
:10435000B8B1CD48006840F48050CB490860FEF702
:104360004BF8054606E0FEF747F8401B022801D946
:10437000032094E5C4480068C0F340300028F2D020
:1043800016E0C148006820F48050BF490860FEF77D
:1043900033F8054606E0FEF72FF8401B022801D946
:1043A00003207CE5B8480068C0F340300028F2D113
:1043B000207800F0040004287DD1B448006840F45F
:1043C0008070B2490860FEF717F8054606E0FEF770
:1043D00013F8401B642801D9032060E5AB4800684E
:1043E00000F480700028F2D000BFA068012808D136
:1043F000A5487030006840F00100A34970310860A2
:104400002DE0A06868B9A0487030006820F0010075
:104410009D49703108600846006820F0040008607B
:104420001DE0A06805280DD197487030006840F065
:1044300004009549703108600846006840F00100AA
:1044400008600CE090487030006820F001008E4950
:10445000703108600846006820F00400086000BF62
:10446000A068A0B1FDF7C8FF054608E0FDF7C4FF4E
:10447000401B41F28831884201D903200FE5824870
:1044800070300068C0F340000028EFD013E0FDF763
:10449000B3FF054608E0FDF7AFFF401B41F288314E
:1044A000884201D90320FAE4774870300068C0F3ED
:1044B00040000028EFD1606A00287DD0724810309B
:1044C000006800F03800182877D0606A022875D19B
:1044D0006D48006820F080706B490860FDF78CFF24
:1044E000054606E0FDF788FF401B022801D903209E
:1044F000D5E465480068C0F340600028F2D100BFF1
:10450000D4E90A1041EA00105F492831096840F2F5
:10451000F332914308435C4928310860208E401EE5
:10452000C0F30800616B491E4FF47E4202EA41214C
:104530000843218F491ED20102EA014108433C2170
:10454000095D491E120202EA016108434E493031F9
:10455000086000BF081F006820F00100091F086004
:104560004948343000684FF6F8718843A16C40EA3E
:10457000C10045493431086043482C30006820F0C0
:104580000C00216C084340492C3108600846006843
:1045900020F00200616C08433B492C31086008465A
:1045A000006840F4803008600846006840F400303D
:1045B00008600846006802E093E038E01FE040F43D
:1045C000802008600846006840F0010008602E481E
:1045D000006840F080702C490860FDF70DFF05462B
:1045E00006E0FDF709FF401B022801D9032056E42D
:1045F00025480068C0F340600028F2D071E02248EE
:10460000006820F0807020490860FDF7F5FE05463F
:1046100006E0FDF7F1FE401B022801D903203EE42D
:1046200019480068C0F340600028F2D159E01648EC
:1046300028300768144830300668606A012821D0A5
:1046400007F00301A06A81421CD1C7F30511E06A9B
:10465000884217D1C6F30801206B401E814211D158
:10466000606B401EC6F3462188420BD1A06B401EF2
:10467000C6F30641884205D1E06B401EC6F30661D1
:10468000884205D001200AE400440258004802583C
:1046900015480068C0F3CC07A06CB84221D012487E
:1046A0000838006820F001000F4908390860FDF75C
:1046B000A3FE054600BFFDF79FFE401BFBD00A4846
:1046C00000684FF6F8718843A16C40EAC1000649C2
:1046D000086005480838006840F0010002490839C0
:1046E000086000204AE40000344402580349096885
:1046F00021F460010143014A11607047040400582D
:1047000070B504462546681EB0F1807F01D30120B4
:104710000FE0681E4FF0E02148610F214FF0FF309D
:1047200001F068FF00204FF0E02188610720086158
:10473000002070BD014600BF91F88400012801D11E
:1047400002207047012081F8840000BF2420C1F8B6
:104750008800086802680868006820F001000B689B
:10476000186022F00052002048660868026020208D
:10477000C1F8880000BF002081F8840000BF00BF9E
:10478000DFE77047704770B504460D4600BF94F8E8
:104790008400012801D1022070BD012084F884002A
:1047A00000BF2420C4F888002068066820680068DC
:1047B00020F00100216808602068806820F06060B7
:1047C000284321688860204601F062FA206806606C
:1047D0002020C4F8880000BF002084F8840000BFB7
:1047E00000BFD9E770B504460D4600BF94F88400B9
:1047F000012801D1022070BD012084F8840000BF8F
:104800002420C4F88800206806682068006820F02A
:104810000100216808602068806820F0604028431B
:1048200021688860204601F033FA20680660202065
:10483000C4F8880000BF002084F8840000BF00BFD7
:10484000D9E77047704770472DE9F0470446206864
:10485000C569206806682068876840F60F0005EA89
:104860000009B9F1000F0FD105F0200060B106F08A
:10487000200010B907F0805030B1606F10B12046B1
:10488000616F8847BDE8F087B9F1000F7ED0FE4820
:10489000384018B9FD4830400028F7D005F0010035
:1048A00058B106F4807040B1012021680862D4F844
:1048B000900040F00100C4F8900005F0020058B1EB
:1048C00007F0010040B1022021680862D4F890008E
:1048D00040F00400C4F8900005F0040058B107F05F
:1048E000010040B1042021680862D4F8900040F033
:1048F0000200C4F8900005F0080070B106F0200036
:1049000010B9E148384040B1082021680862D4F865
:10491000900040F00800C4F8900005F4006060B119
:1049200006F0806048B14FF4006021680862D4F856
:10493000900040F02000C4F89000D4F890000028C7
:1049400052D005F0200050B106F0200010B907F059
:10495000805020B1606F10B12046616F8847D4F855
:1049600090A02068806800F04000402802D00AF043
:10497000280070B3204601F0B5FA2068806800F086
:104980004000402826D100BF00BF00E02DE0216894
:10499000083151E8001F21F040002168083141E84A
:1049A0000002002AF1D100BFD4F8800068B1B848F5
:1049B000D4F880100865D4F88000FCF735FC98B175
:1049C000D4F88000016D88470EE02046FFF73BFFDA
:1049D0000AE003E02046FFF736FF05E02046FFF738
:1049E00032FF0020C4F890004CE7E06E01287DD132
:1049F00005F01000002879D006F010000028FAD049
:104A00001020216808622068806800F0400040287B
:104A10006DD1D4F8800000689E4988426BD0D4F8EC
:104A2000800000689B491831884264D0D4F8800027
:104A300000689849303188425DD0D4F88000006821
:104A400094494831884256D0D4F880000068914992
:104A5000603188424FD0D4F8800000688D497831A9
:104A6000884248D0D4F8800000688A499031884252
:104A700041D0D4F8800000688649A83188423AD0F5
:104A8000D4F8800000688449884234D0D4F880008B
:104A900000688149183188422DD0D4F88000006820
:104AA0007D493031884226D0D4F8800000687A49A8
:104AB000483188421FD0D4F88000006876496031C0
:104AC000884218D0D4F88000006873497831884251
:104AD00011D0D4F8800000686F49903188420AD024
:104AE000D4F8800000686C49A83102E0AEE069E0CB
:104AF00001E0884204D1D4F880000068406803E0F7
:104B0000D4F88000006840681FFA80F8B8F1000F00
:104B100057D0B4F85C00404553DDA4F85E80D4F86B
:104B20008000C069B0F5807F40D000BF00BF216821
:104B300051E8001F21F48070226842E8000100293A
:104B4000F5D100BF00BF00BF2168083151E8001F48
:104B500021F001002168083141E80002002AF3D168
:104B600000BF00BF00BF2168083151E8001F21F0DD
:104B700040002168083141E80002002AF3D100BF5B
:104B80002020C4F88C000020E06600BF00BF216830
:104B900051E8001F21F01000226842E800010029BE
:104BA000F5D100BFD4F88000FCF7D0F802202067D0
:104BB000B4F85C00B4F85E20801A81B22046FFF79A
:104BC000E0FD5FE634F85C0F6188401A1FFA80F858
:104BD00060885C3CC8B3B8F1000F36D000BF00BF9E
:104BE000216851E8001F21F49070226842E800011A
:104BF0000029F5D100BF00BF00BF2168083151E88E
:104C0000001F214AD24301EA02002168083141E82D
:104C10000002002AF1D100BF2020C4F88C0000203F
:104C2000E066606700BF00BF216851E8001F21F007
:104C30001000226842E800010029F5D100BF0220DF
:104C4000206741462046FFF79CFD1BE605F48010D7
:104C500050B107F4800038B14FF480102168086229
:104C60002046FFF7EFFD0DE605F08000B0B106F03D
:104C7000800010B907F4000080B1A06F10B1204689
:104C8000A16F8847FEE5000001000010200100042C
:104C9000CB5E0008100002401004024005F0400006
:104CA00030B106F0400018B1204601F051F9E9E5B5
:104CB00005F4000030B106F0804018B12046FFF73F
:104CC000C0FDDFE505F0807030B106F0004018B19E
:104CD0002046FFF757FDD5E500BFD3E510B50446E4
:104CE0000CB9012010BDA06900B100E000BFD4F8EC
:104CF000880028B9002084F88400204600F02AF8B3
:104D00002420C4F888002068006820F00100216891
:104D10000860204601F034F9012800D1E2E7A06ADA
:104D200010B1204600F0E0FF2068406820F4904079
:104D3000216848602068806820F02A002168886027
:104D40002068006840F0010021680860204601F0FA
:104D500047F8C7E710B5B8B00446142132A8FBF7EE
:104D600024FBC02102A8FBF720FB224920688842CF
:104D70003ED101210020CDE90210219002A8FDF7CB
:104D8000E5FE08B1FBF7CAFF00BF1B48006840F012
:104D90001000194908600846006800F010000190F2
:104DA00000BF00BF00BF14481038006840F0010089
:104DB0001149103908600846006800F001000190B0
:104DC00000BF00BF4FF4C06032900220339000203B
:104DD000349035900720369032A90848FDF7FAF94B
:104DE000002211462520FDF7EDFB2520FDF7D6FB1F
:104DF00038B010BD00100140F044025800000258C5
:104E0000704700BFFEE7000010B5002210211248D5
:104E1000FDF7E6FA1048006820F440600E4908608B
:104E20000846006840F480600860002220210A489B
:104E3000FDF7D6FA022001F0E9FC01221021064814
:104E4000FDF7CEFA022001F0E1FC00221021024819
:104E5000FDF7C6FA10BD0000001C025800B587B06F
:104E600000BF1248006840F0800010490860084602
:104E7000006800F08000019000BF00BF3020029069
:104E80000120039004900320059002A90848FDF733
:104E9000A1F9012220210648FDF7A2FA01221021E2
:104EA0000348FDF79DFA07B000BD0000E04402583A
:104EB000001C025810B5002210211248FDF790FA8C
:104EC0001048006820F440600E49086008460068F9
:104ED00040F480600860012220210A48FDF780FA32
:104EE000022001F093FC012210210648FDF778FA18
:104EF000022001F08BFC002210210248FDF770FA1D
:104F000010BD0000001C025870B50546002418486A
:104F1000006820F440601649086008460068086090
:104F200000261AE0002210211148FDF759FA02204C
:104F300001F06CFC012210210D48FDF751FA6006CA
:104F4000040E20210A48FDF743FA08B1601CC4B2E0
:104F5000012001F05BFC701CC6B2082EE2DB15B923
:104F6000FFF7A8FF01E0FFF74FFF204670BD0000EC
:104F7000001C025870B504461C48006820F44060CC
:104F80001A4908600846006840F480600860002202
:104F900010211648FDF724FA002523E0E00928B186
:104FA000012220211148FDF71BFA04E000222021F4
:104FB0000E48FDF715FA6006040E022001F026FCEB
:104FC000012210210948FDF70BFA022001F01EFC16
:104FD000002210210548FDF703FA022001F016FC1B
:104FE000681CC5B2082DD9DB70BD0000001C02583A
:104FF00010B51348006820F4406011490860084665
:10500000006840F480600860012220210C48FDF710
:10501000E7F9012210210A48FDF7E2F9042001F026
:10502000F5FB002220210648FDF7DAF9042001F003
:10503000EDFB002210210248FDF7D2F910BD00005F
:10504000001C025810B51348006820F44060114954
:1050500008600846006840F4806008600022102163
:105060000C48FDF7BDF9002220210A48FDF7B8F9E8
:10507000042001F0CBFB012210210648FDF7B0F916
:10508000012220210348FDF7ABF9042001F0BEFB0B
:1050900010BD0000001C025810B50024174800681D
:1050A00020F4406015490860084600680860012245
:1050B00020211248FDF794F9012001F0A7FB0122FD
:1050C00010210E48FDF78CF9012001F09FFB07E04D
:1050D000601CC4B2FA2C03DDFFF7B4FF012010BD41
:1050E00020210648FDF774F90028F1D10022102193
:1050F0000248FDF775F90020F1E70000001C025896
:1051000038B50446002000906A4601216369206892
:105110009847002802DA6FF0040038BD6A46012182
:10512000636920689847002802DA6FF00400F4E70A
:10513000009800F0040008B90120EEE76A4600215B
:10514000636920689847002802DA6FF00400E4E7FA
:10515000009800F48050B0F5805F1FD0009800F4F4
:105160000050B0F5005F07D1009800F48070B0F5F2
:10517000807F01D10220D0E7009800F40050B0F504
:10518000005F01D10320C8E7009800F48070B0F5FB
:10519000807F01D10420C0E70520BEE76A461F21B9
:1051A000636920689847002802DA6FF00400B4E7CA
:1051B000009800F4805008B90620AEE7009800F08F
:1051C0001C00182801D10220A7E7009800F01C005D
:1051D000082801D10320A0E7009800F01C00142843
:1051E00001D1042099E7052097E7F8B50446002788
:1051F00000200090002500266068002855D1A06896
:1052000008B1A068804720202060002513E06A468E
:105210001221284663699847002802DA6FF00406D5
:1052200008E0009800F01F00A84202D12560002687
:1052300003E000BF6D1C1F2DE9D900BF20681F28A7
:1052400001D96FF0020656BB4FF4004200212369DA
:1052500020689847002826DB6A4600216369206899
:10526000984700281CDBA0698047074612E0A06928
:105270008047C01BB0F5FA7F09D86A4600216369F0
:1052800020689847002805DA6FF0040607E06FF001
:10529000010604E0009800F400400028E7D104E093
:1052A0006FF0040601E06FF003065EB9A069804765
:1052B000074600BFA0698047C01BB0F5FA6FF9D957
:1052C000012060603046F8BD02462AB1C86818B1B6
:1052D000886808B1086910B94FF0FF307047086856
:1052E00090604B68D360CB6853618B6813610B6926
:1052F00093610020F2E700001FB5002000900190AC
:1053000002900390FDF714F901208DF800000020B1
:105310008DF801000F48019013208DF8080000203F
:105320008DF8090001208DF80A0003208DF80B008C
:1053300000208DF80C0001208DF80D008DF80E0076
:105340008DF80F006846FDF7C5F80420FDF700F959
:105350001FBD00000000043008B500BF20480068F1
:1053600040F080001E4908600846006800F0800098
:10537000009000BF00BF00BF0846006840F0040076
:1053800008600846006800F00400009000BF00BFFD
:1053900000BF0846006840F0010008600846006849
:1053A00000F00100009000BF00BF00BF0846006889
:1053B00040F0020008600846006800F0020000901B
:1053C00000BF00BF00BF0846006840F04000086012
:1053D0000846006800F04000009000BF00BF08BD14
:1053E000E04402580EB5C02084490870A8204870D7
:1053F000002088701E20C870FF2081490870487006
:1054000088700020C870C0207E490870A8204870AD
:10541000002088700120C87004F02CF977480078CB
:1054200000067649497840EA01407449897840EAA3
:1054300001207249C97808430206704800780006C6
:105440006E49497840EA01406C49897840EA012078
:105450006A49C978084300F47F4042EA002267485D
:10546000007800066549497840EA01416348807840
:1054700041EA00206149C978084300F47F0042EA0C
:1054800010225E48007801065C48407841EA0041FD
:105490005A48807841EA00205849C978084342EACE
:1054A0001060594908605648007800065449497808
:1054B00040EA01405249897840EA01205049C978C0
:1054C000084302064E48007800064D49497840EAF4
:1054D00001404B49897840EA01204949C97808438D
:1054E00000F47F4042EA0022454800780006444923
:1054F000497840EA01414248807841EA0020404929
:10550000C978084300F47F0042EA10223C48007842
:1055100001063B48407841EA00413948807841EA39
:1055200000203749C978084342EA106037490860CB
:105530003448007800063349497840EA014031494F
:10554000897840EA01202F49C978084302062D488E
:10555000007800062B49497840EA014029498978BA
:1055600040EA01202749C978084300F47F4042EA15
:1055700000222448007800062249497840EA014187
:105580002048807841EA00201E49C978084300F489
:105590007F0042EA10221B48007801061948407833
:1055A00041EA00411748807841EA00201549C9784E
:1055B000084342EA1060164908601648164900225E
:1055C000134BCDE900210290104A0F49134804F013
:1055D0003FFE124805F0F2F9104890F82D00C0F394
:1055E000800018B10D4805F029FB02E00B4805F0DA
:1055F000EBF90B49094805F04DFA0EBD30000024C7
:105600003400002438000024240000242800002452
:105610002C000024A1780008B17B00081C4C002459
:10562000317A000810B5044802F00EFB06F016FCB3
:105630000148FBF777FB10BD1C4C002410B518483F
:10564000184908604FF4E130486000211548816036
:10565000C16001610C21416100218161C161016270
:10566000416200200F4988620846FFF737FB08B106
:10567000FBF754FB00210B48FFF7B4F808B1FBF728
:105680004DFB00210748FFF77EF808B1FBF746FB0A
:105690000448FFF74FF808B1FBF740FB10BD0000CE
:1056A00000100140FC00002400BFFEE700BFFEE741
:1056B00010B586B0002400BF1548006840F0020015
:1056C000134908600846006800F00200009000BF1F
:1056D00000BF4FF480500190002002900120039001
:1056E0000320049001A90B48FCF774FDFFF7B6FBFB
:1056F000FFF77EFC4020FFF73DFCFFF7CDFC0446A2
:10570000FFF7A0FCFF2000F02BF8204606B010BDEC
:10571000E04402580004025810B50024FFF768FC6A
:105720004120FFF727FCFFF7B7FC0020FFF7ECFB59
:105730000446FFF787FC204610BD70B504460E46B0
:10574000FFF7EAFF05461EB90120A040854303E0AC
:105750000120A0402843C5B2284600F001F870BDE2
:1057600010B50446FFF744FC4020FFF703FCFFF7A9
:1057700093FC2046FFF7FEFBFFF78EFCFFF762FC71
:105780000A2001F037F810BD704700002DE9F04104
:1057900004460E4600275548006800F00300032821
:1057A00002D10120BDE8F08150482838006820F07F
:1057B00080604E4928390860FCF71EFE054606E069
:1057C000FCF71AFE401B022801D90320EAE74748EC
:1057D00028380068C0F3C0600028F1D100BF4348FA
:1057E000006820F47C30216840EA01303F490860BD
:1057F000A088401EC0F30800A168491E4FF47E42F5
:1058000002EA41210843A189491ED20102EA01416D
:105810000843217C491E120202EA01610843334910
:105820001031086000BF3148001D006820F0C00042
:10583000616908432D49091D08600846006820F089
:105840002000A16908432949091D0860084600682D
:1058500020F0100008602548143000684FF6F871F9
:105860008843E16940EAC1002049143108601F48BB
:10587000001D006840F010001C49091D08602EB989
:105880000846006840F40020086012E0012E08D1AC
:105890001648001D006840F480101449091D086076
:1058A00007E01248001D006840F400100F49091D70
:1058B00008600E482838006840F080600B4928399D
:1058C0000860FCF799FD054606E0FCF795FD401BD6
:1058D000022801D9032065E7044828380068C0F38E
:1058E000C0600028F1D038465CE700002844025828
:1058F0002DE9F04104460E4600275548006800F0A7
:105900000300032802D10120BDE8F0815048283867
:10591000006820F080504E4928390860FCF76CFD83
:10592000054606E0FCF768FD401B022801D903206C
:10593000EAE7474828380068C0F340700028F1D1F2
:1059400000BF4348006820F07C70218840EA015085
:105950003F490860A088401EC0F30800A168491EA6
:105960004FF47E4202EA41210843A189491ED20137
:1059700002EA01410843217C491E120202EA016148
:10598000084333491831086000BF3148001D0068E2
:1059900020F44060616908432D49091D08600846EC
:1059A000006820F40070A16908432949091D0860B6
:1059B0000846006820F48070086025481C300068A4
:1059C0004FF6F8718843E16940EAC10020491C3173
:1059D00008601F48001D006840F480701C49091DC4
:1059E00008602EB90846006840F48000086012E0A4
:1059F000012E08D11648001D006840F4000014492B
:105A0000091D086007E01248001D006840F0807022
:105A10000F49091D08600E482838006840F0805082
:105A20000B4928390860FCF7E7FC054606E0FCF75F
:105A3000E3FC401B022801D9032065E7044828380D
:105A40000068C0F340700028F1D038465CE70000E1
:105A500028440258704710B5FCF7D4FC10BD000074
:105A600000B59DB04C210AA8FAF79FFC202102A89E
:105A7000FAF79BFC0220FCF7F7FD00BF0020019025
:105A80004148006820F001003F490860084600686E
:105A900000F0010001903D48006840F440403B495F
:105AA00008600846006800F44040019000BF00BF55
:105AB00000BF3648006800F40050B0F5005FF8D130
:105AC00000BF3348006840F00200314908600846D2
:105AD000006800F00200019000BF00BF00BF00207E
:105AE00001902A48006840F4404028490860084670
:105AF000006800F4404001902348006840F0010035
:105B0000214908600846006800F00100019000BFCC
:105B100000BF00BF1D48006800F40050B0F5005FF2
:105B2000F8D101200A9000040B900220139002216A
:105B3000149105211591C0211691022117911891F8
:105B4000199108211A9100211B911C910AA8FEF7B6
:105B5000A1F908B1FBF7E2F83F200290032003907F
:105B60000020049008200590402006900790000136
:105B7000089040200990042102A8FDF79BFE08B17F
:105B8000FBF7CCF81DB000BD2C0400581848025893
:105B9000F44402583448006840F470003249086008
:105BA0003248006800F00F00072806D22F4800682E
:105BB00020F00F00C01D2D4908602D48006840F0FE
:105BC00001002B490860002029491031086028484D
:105BD000006828490840264908602448006800F009
:105BE0000F00072806D92148006820F00F00C01DCB
:105BF0001E49086000201E4918310860091D086010
:105C0000091D08601C481A49283108601B48091DF5
:105C100008601B48091D08600020091D086018481D
:105C2000091D08600020091D08601548091D08604D
:105C30000020091D08600E48006820F480200C49EF
:105C4000086000200A49603108600E4800686FF360
:105C50000F00B0F1005F02D201200B49086043F24F
:105C6000D2000A490860704788ED00E00020005229
:105C7000004402587FEDF6EA000202020000FF0134
:105C8000800201010010005C0881005100400052B8
:105C900070B5456E2DB90125A0F86A50A0F868507E
:105CA0001CE0102310240568AD68C5F34261056847
:105CB000AD686A0F0A4DAD5C15FB04F5094EB65C84
:105CC00095FBF6F5A0F86A50054D6D5C15FB03F5E4
:105CD000044E765C95FBF6F5A0F8685070BD0000A8
:105CE000C0220108C822010890F8281001F0010123
:105CF00039B10168496821F40031C26A1143026870
:105D0000516090F8281001F00201022907D10168C2
:105D1000496821F48031026B11430268516090F8A8
:105D2000281001F00401042907D10168496821F411
:105D30008021426B11430268516090F8281001F0F5
:105D40000801082907D10168496821F40041826BE4
:105D500011430268516090F8281001F010011029D9
:105D600007D10168896821F48051C26B1143026830
:105D7000916090F8281001F02001202907D10168D6
:105D8000896821F40051026C11430268916090F817
:105D9000281001F04001402913D10168496821F41D
:105DA0008011426C114302685160416CB1F5801F53
:105DB00007D10168496821F4C001826C114302686F
:105DC000516090F8281001F08001802907D1016806
:105DD000496821F40021C26C114302685160704788
:105DE00038B504460020C4F89000FCF705FB0546D2
:105DF0002068006800F00800082821D16FF07E407C
:105E00002B4600224FF400110090204600F07EFB4C
:105E1000B0B100BF00BF216851E8001F21F0800031
:105E2000226842E800010029F5D100BF2020C4F813
:105E3000880000BF002084F8840000BF032038BD24
:105E40002068006800F00400042830D16FF07E4024
:105E50002B4600224FF480010090204600F056FBB4
:105E600028B300BF00BF216851E8001F21F49070E3
:105E7000226842E800010029F5D100BF00BF00BF41
:105E80002168083151E8001F21F001002168083124
:105E900041E80002002AF3D100BF2020C4F88C00A2
:105EA00000BF002084F8840000BF0320C7E7202043
:105EB000C4F88800C4F88C000020E066206700BFAA
:105EC00084F8840000BF00BFB9E770B50546AC6B2D
:105ED0000020A4F85E00A4F856002046FEF7B3FCAC
:105EE00070BD000000BF00BF026852E8002F22F41E
:105EF0009071036843E80012002AF5D100BF00BF8B
:105F000000BF0268083252E8002F104B02EA03017A
:105F10000268083242E80013002BF2D100BFC16EC4
:105F200001290CD100BF00BF026852E8002F22F007
:105F30001001036843E80012002AF5D100BF2021B8
:105F4000C0F88C100021C16641677047FEFFFFEF6B
:105F500010B5044600BF00BF216851E8001F21F0C2
:105F60004000226842E800010029F5D100BF20204E
:105F7000C4F888000020A0672046FEF741FF10BD4E
:105F80002DE9F04F89B0054600200890F8492868AF
:105F9000884200D100E000BF2969A8680843696908
:105FA0000843E96940EA010828680068F1490840A7
:105FB00040EA0800296808602868406820F44050DA
:105FC000E968084329684860D5F81880E8492868D6
:105FD000884202D0286A40EA080828688068E649B2
:105FE000084040EA0800296888602868C06A20F0F4
:105FF0000F00696A08432968C86200BFDF49286842
:10600000884220D1DE48006800F03800182811D0FE
:1060100005DC48B1082809D0102811D108E0202853
:106020000AD028280CD109E001240BE0042409E05F
:10603000082407E0102405E0202403E0402401E0C8
:10604000802400BFF8E0CF492868884219D1CC48A5
:10605000006800F00700062810D2DFE800F0030512
:1060600007090B0D00240BE0042409E0082407E0D5
:10607000102405E0202403E0402401E0802400BF38
:10608000DAE0C1492868884219D1BD48006800F0AB
:106090000700062810D2DFE800F0030507090B0D02
:1060A00000240BE0042409E0082407E0102405E0A4
:1060B000202403E0402401E0802400BFBCE0B34979
:1060C0002868884219D1AE48006800F00700062809
:1060D00010D2DFE800F0030507090B0D00240BE0E8
:1060E000042409E0082407E0102405E0202403E04C
:1060F000402401E0802400BF9EE0A5492868884232
:1061000019D19F48006800F00700062810D2DFE888
:1061100000F0030507090B0D00240BE0042409E03F
:10612000082407E0102405E0202403E0402401E0D7
:10613000802400BF80E097492868884220D1904899
:10614000006800F03800182811D005DC48B1082894
:1061500009D0102811D108E020280AD028280CD115
:1061600009E001240BE0042409E0082407E01024DE
:1061700005E0202403E0402401E0802400BF5BE030
:1061800085492868884219D17D48006800F00700D9
:10619000062810D2DFE800F0030507090B0D0024E4
:1061A0000BE0042409E0082407E0102405E0202483
:1061B00003E0402401E0802400BF3DE077492868E7
:1061C000884219D16E48006800F00700062810D2F6
:1061D000DFE800F0030507090B0D00240BE00424A1
:1061E00009E0082407E0102405E0202403E040240F
:1061F00001E0802400BF1FE05D49286888421AD171
:106200005F48001D006800F00700062810D2DFE894
:1062100000F0030507090B0D02240BE0042409E03C
:10622000082407E0102405E0202403E0402401E0D6
:10623000802400BF00E0802400BF4D4928688842C8
:106240007DD1102C1AD006DC022C09D0042C0BD0E6
:10625000082C29D10DE0202C21D0402C24D120E085
:10626000FCF732FA064623E005A8FCF73FFA069E43
:106270001EE002A8FCF752FB039E19E04048543888
:106280000068C0F3401040B13D4854380068C0F386
:10629000C101434820FA01F600E0414E08E0414EBA
:1062A00006E04FF4004603E000260120089000BFFE
:1062B00000BF002E10D03C49686A31F81000B6FBD0
:1062C000F0F9686800EB4000484503D868680003AF
:1062D000484502D20120089003E13349686A31F849
:1062E00010C06246002330461946F9F7F3FF4FF419
:1062F000807300228446ACFB030B01FB03B10CFB53
:10630000021C69684908034659184CEB0200CDE9A4
:106310000010D5F804C06246002308460199F9F739
:10632000D9FF0746B7F5407F06D3B7F5801F03D2E4
:106330002868C760D5E002E001200890D1E0E86954
:10634000B0F5004F7BD1082C39D005DC5CB1012CB5
:106350002CD0042C4CD12DE0102C35D0202C42D048
:10636000402C45D141E0FDF75BFC064644E00000CF
:10637000000C0058F369FFCFFFF4FF11001001403B
:10638000544402580044004000480040004C004083
:10639000005000400014014000780040007C0040A4
:1063A0000090D00300093D00A8220108FDF74AFC37
:1063B000064621E005A8FCF799F9069E1CE002A814
:1063C000FCF7ACFA039E17E04C480068C0F340109D
:1063D00038B14A480068C0F3C101494820FA01F6C3
:1063E00000E0474E08E0474E06E04FF4004603E069
:1063F00000260120089000BF00BFFEB14249686A34
:1064000031F81000B6FBF0F04000696800EB510075
:10641000B0FBF1F7102F0FD3B7F5803F0CD24FF63A
:10642000F07007EA000AC7F342004AEA000A286847
:10643000C0F80CA055E002E00120089051E0082CC3
:106440001AD005DC5CB1012C0DD0042C2DD10EE04E
:10645000102C16D0202C23D0402C26D122E0FDF782
:10646000DFFB064625E0FDF7EDFB064621E005A82B
:10647000FCF73CF9069E1CE002A8FCF74FFA039ECD
:1064800017E01E480068C0F3401038B11B48006890
:10649000C0F3C1011A4820FA01F600E0184E08E0E6
:1064A000184E06E04FF4004603E000260120089055
:1064B00000BF00BFAEB11449686A31F81000B6FBE6
:1064C000F0F0696800EB5100B0FBF1F7102F06D334
:1064D000B7F5803F03D2B8B22968C86001E0012057
:1064E00008900120A5F86A00A5F8680000206867F8
:1064F000A867089809B0BDE8F08F00000044025872
:106500000090D00300093D00A82201082DE9F041C8
:1065100004460D4617469846069E3CE0701CC8B3DC
:10652000FBF76AFFA0EB0800B04200D816B90320C1
:10653000BDE8F0812068006800F0040050B32068D6
:10654000C069C0F3C00078B1082021680862204605
:10655000FFF7C8FC0820C4F8900000BF002084F8B2
:10656000840000BF0120E3E72068C069C0F3C020B9
:1065700080B14FF40060216808622046FFF7B2FC4A
:106580002020C4F8900000BF002084F8840000BFE1
:106590000320CDE7FFE72068C0692840A84201D169
:1065A000012000E00020B842B8D00020C0E7000081
:1065B00010B50248FEF748F910BD0000FC000024A9
:1065C00000BFFEE70FB4054B10B503A9044A0298BB
:1065D00000F034F810BC5DF814FB0000717C00087A
:1065E000F800002402480068C0F302207047000051
:1065F0000CED00E010B5002804DB0A07130E054A75
:10660000135406E00A07140E034A00F00F031B1F81
:10661000D45410BD00E400E018ED00E002E008C82A
:10662000121F08C1002AFAD170477047002001E00C
:1066300001C1121F002AFBD1704700002DE9FF4F56
:106640008BB09A460F460546002606E025280BD05B
:1066500052460D9990476D1C761C28780028F5D17C
:106660000FB03046BDE8F08F0024A04601226049FB
:1066700000E0044315F8013F203B02FA03F0084212
:10668000F7D128782E2817D115F8010F44F004040B
:106690002A280ED06FF02F022878A0F130010929A6
:1066A0000AD808EB880102EB410100EB01086D1CE0
:1066B000F2E757F8048B6D1C287869283ED006DC79
:1066C0000028CDD063280BD0642804D136E073288D
:1066D00010D075284BD052460D999047761C85E016
:1066E00017F8040B8DF8000000208DF80100E94632
:1066F000012003E057F8049B4FF0FF3061074FF093
:10670000000401D40AE0641C44450DDA8442FADB3B
:1067100019F804100029F6D106E0641C8442FCDB61
:1067200019F804100029F8D1264404E019F8010BE7
:1067300052460D999047641EF8D257E001CF4FF0B2
:106740000A0B002802DA40422D2102E0210504D57F
:106750002B218DF82410012103E0E10705D0202131
:10676000F7E70DF1200908910CE00021F9E701CFCE
:106770004FF00A0BF9E75946F9F72FFE01F1300205
:1067800009F8012D0028F6D1ADEB090000F1200B2E
:10679000600701D44FF00108D84502DDA8EB0B00DB
:1067A00000E000208046002406E009A85246005D73
:1067B0000D999047641C761C08988442F5DB04E030
:1067C000302052460D999047761CB8F10001A8F18F
:1067D0000108F5DC05E019F8010B52460D999047C8
:1067E000761CBBF10001ABF1010BF4DC6D1C34E74E
:1067F0000928010030B50446002504E04FF47A7002
:1068000000F004F86D1CA542F8D330BD70B5034606
:1068100000224FF0E02675690D4E366803FB06F442
:106820004FF0E026B16910E04FF0E026B0698842F1
:106830000BD0884202D20E1A324402E02E1A0E44C5
:1068400032440146A24200D300E0EDE700BF70BD34
:106850000000002470B504460D4600BF05F003009B
:10686000002808D000BF08A34FF4B67212A11AA0E6
:10687000FFF7A8FE00BF00BF2E46A068006830608A
:10688000A068066070BD00002E2E2F4D6964646CF8
:106890006577617265732F54686972645F506172C5
:1068A00074792F4C7749502F7372632F636F726521
:1068B0002F6D656D702E63006D656D705F6672651E
:1068C000653A206D656D2070726F7065726C79200D
:1068D000616C69676E656400417373657274696F9A
:1068E0006E2022257322206661696C6564206174C4
:1068F000206C696E6520256420696E2025730A006E
:1069000070B50546A8680468002C13D02068A968F3
:10691000086000BF04F00300002808D000BF06A3F1
:106920004FF48C7210A119A0FFF74CFE00BF00BFFE
:10693000204670BD0020FCE72E2E2F4D6964646C4C
:106940006577617265732F54686972645F50617214
:1069500074792F4C7749502F7372632F636F726570
:106960002F6D656D702E63006D656D705F6D616C70
:106970006C6F633A206D656D702070726F70657218
:106980006C7920616C69676E6564000041737365A2
:106990007274696F6E2022257322206661696C65AE
:1069A00064206174206C696E6520256420696E2006
:1069B00025730A0070B50546002411E004EB44007D
:1069C000094901EBC000067D4EB104EB440001EB28
:1069D000C0008068A84202D1204600F087F9641CFC
:1069E0000A2CEBDB70BD00007C7B00242DE9FF5FEF
:1069F0000646894617464FF00A0AD346D046002479
:106A00000A200390002002900190009000BF73E0E4
:106A100004EB4400764901EBC000057DB8F10A0F94
:106A200002D10DB9A04665E0002D63D000BF012D55
:106A30000AD0022D08DA00BF6EA340F223127BA118
:106A40008AA0FFF7BFFD00BF00BFAEB104EB440159
:106A5000674A02EBC1013068496888420CD13FB1F6
:106A600004EB4400114601EBC0008068B84203D13A
:106A7000204604B0BDE8F09F012D28D104EB44006E
:106A80005B4951F8300080B104EB440001EBC000D9
:106A9000418A029881422DDB039404EB440054495F
:106AA00001EBC000408A029024E004EB440050490E
:106AB00001EBC000418A019881421BDBA24604EB36
:106AC00044004B4901EBC000408A019012E0022DC6
:106AD00010DB04EB4400464901EBC000418A0098FA
:106AE000814207DBA34604EB4400414901EBC000AF
:106AF000408A0090601C04B20A2C89DB09F0020075
:106B000028B9B8F10A0F05D109F0010010B94FF00A
:106B1000FF30AEE7B8F10A0F01DA444631E0BBF1CD
:106B20000A0F11DA5C4600BF04EB4400304951F80B
:106B3000300040B100BF2FA340F26D1255A14BA011
:106B4000FFF740FD00BF0CE0BAF10A0F01DA54462E
:106B500007E003980A2801DA039C02E04FF0FF30B7
:106B600087E700BF0A2C08DB00BF22A340F27F1298
:106B70004EA13EA0FFF726FD00BF00BF204600F05B
:106B8000B5F800BF0A2C08DB00BF1AA340F283123D
:106B900046A136A0FFF716FD00BF00BF00BF04EB03
:106BA0004400134901EBC000007D40B100BF11A3B8
:106BB0004FF4C27242A12DA0FFF704FD00BF00BF39
:106BC00036B104EB44010A4A02EBC1013068486067
:106BD000002004EB4401064A02EBC101488204EBA9
:106BE0004400114601EBC0008760204641E70000E9
:106BF0007C7B00242E2E2F4D6964646C6577617256
:106C000065732F54686972645F50617274792F4C98
:106C10007749502F7372632F636F72652F69707697
:106C2000342F6574686172702E6300007374617430
:106C300065203D3D204554484152505F53544154D6
:106C4000455F50454E44494E47207C7C207374611B
:106C50007465203E3D204554484152505F53544195
:106C600054455F535441424C4500000041737365E5
:106C70007274696F6E2022257322206661696C65CB
:106C800064206174206C696E6520256420696E2023
:106C900025730A006172705F7461626C655B695D87
:106CA0002E71203D3D204E554C4C000069203C206B
:106CB0004152505F5441424C455F53495A45000090
:106CC0006172705F7461626C655B695D2E73746183
:106CD0007465203D3D204554484152505F53544116
:106CE00054455F454D5054590000000010B504460E
:106CF00004EB44000C4951F8300060B104EB44014E
:106D0000094A52F8310004F00DFD002004EB440163
:106D1000054A42F83100002004EB4401024A02EB2C
:106D2000C101087510BD00007C7B0024F0B587B060
:106D300007460D4600BF002D0AD100BF2EA340F22A
:106D40008A223BA13EA0FFF73DFC00BF07B0F0BD8B
:106D500000BF7C682088B0F5807F08D120790628A4
:106D600005D16079042802D16088082803D038460C
:106D700004F0D8FCEAE7D4F80E000690A06905906C
:106D8000686808B9002607E005986968884201D15B
:106D9000012000E0002006460EB1012000E00220A4
:106DA000034604F1080206A9284600F0CBFCE0885F
:106DB000B0F5807F03D0B0F5007F15D113E086B128
:106DC000022206AB04F10800291DCDE90232CDE90B
:106DD000001005F1260302462231284600F05CFB34
:106DE00000E000BF01E000E000BF00BF384604F053
:106DF00099FC00BFAAE700002E2E2F4D6964646C39
:106E00006577617265732F54686972645F5061724F
:106E100074792F4C7749502F7372632F636F7265AB
:106E20002F697076342F6574686172702E6300006C
:106E30006E6574696620213D204E554C4C00000063
:106E4000417373657274696F6E2022257322206608
:106E500061696C6564206174206C696E65202564CD
:106E600020696E2025730A002DE9FE4304460F4673
:106E70001546A94600BF002C08D100BF5DA340F213
:106E80001E326AA16DA0FFF79DFB00BF00BF00BFCF
:106E900047B900BF57A340F21F3272A167A0FFF7A6
:106EA00091FB00BF00BF00BF002D08D100BF51A360
:106EB0004FF448726EA161A0FFF784FB00BF00BFD2
:106EC0002146286801F008F910B1DFF8B48186E0A6
:106ED000287800F0F000E02816D101208DF8040099
:106EE00000208DF805005E208DF80600687800F01F
:106EF0007F008DF80700A8788DF80800E8788DF8F5
:106F000009000DF1040869E02868A1680840D4E987
:106F10000112114088420ED0288880B24FF6A96134
:106F2000884208D0E06810B104F10C0903E06FF06A
:106F30000300BDE8FE835348007800EB400052494F
:106F400001EBC000007D02281BDB4E48007800EBFF
:106F5000400001EBC0008068A04212D14949097885
:106F600001EB4101484A02EBC101D9F80000496830
:106F7000884206D1434802783946204600F086F818
:106F8000D7E7002622E006EB46003F4901EBC000B0
:106F9000007D022818DB06EB460001EBC00080688C
:106FA000A04211D106EB4601374A02EBC101D9F8E4
:106FB00000004968884207D1324806703246394697
:106FC000204600F063F8B4E7701CC6B20A2EDADB84
:106FD0003A464946204600F00DF9AAE700BF4FF4B3
:106FE0000060434604F1260239460090204600F036
:106FF0005DFD9EE72E2E2F4D6964646C657761728E
:1070000065732F54686972645F50617274792F4C94
:107010007749502F7372632F636F72652F69707693
:10702000342F6574686172702E6300006E65746938
:107030006620213D204E554C4C0000004173736585
:107040007274696F6E2022257322206661696C65F7
:1070500064206174206C696E6520256420696E204F
:1070600025730A007120213D204E554C4C00000034
:1070700069706164647220213D204E554C4C0000C3
:10708000E0220108E80000247C7B0024F8B50546D6
:107090000E46144600BF04EB4400314901EBC0002A
:1070A000007D022808DA00BF2EA340F2EE223BA1A9
:1070B00046A0FFF787FA00BF00BF04EB4400284951
:1070C00001EBC000007D022839D104EB440001EB44
:1070D000C000408AB0F58E7F11DD04EB44000A4603
:1070E00002EBC000011D284600F09CFA38BB0320CB
:1070F00004EB44011A4A02EBC10108751FE004EBDE
:107100004400174901EBC000408AB0F5877F16DBC9
:1071100004EB44000B4603EBC00000F10C0204EB4F
:10712000440003EBC000011D284600F087FA30B987
:10713000032004EB44010A4A02EBC10108754FF435
:107140000060009004EB4400054901EBC00000F131
:107150000C0305F126023146284600F0A7FCF8BDD5
:107160007C7B00242E2E2F4D6964646C65776172E0
:1071700065732F54686972645F50617274792F4C23
:107180007749502F7372632F636F72652F69707622
:10719000342F6574686172702E6300006172705FD5
:1071A0007461626C655B6172705F6964785D2E7397
:1071B00074617465203E3D204554484152505F53F0
:1071C000544154455F535441424C450041737365EB
:1071D0007274696F6E2022257322206661696C6566
:1071E00064206174206C696E6520256420696E20BE
:1071F00025730A002DE9FE4F81460F46164609F118
:10720000260A4FF0FF30029000200190494638686E
:1072100000F062FF38B9387800F0F000E02802D0C2
:107220000FB1386818B96FF00F00BDE8FE8F4A46FD
:1072300001213846FFF7DAFB8046B8F1000F02DA89
:107240004FFA88F0F1E700BFB8F17F0F08D300BF15
:107250005FA340F2C1326CA16FA0FFF7B3F900BF8A
:1072600000BF08F0FF0404EB4400754901EBC000C7
:10727000007D70B90120019004EB4401704A02EBDB
:10728000C101087504EB4400114601EBC000C0F8D1
:10729000089000BF04EB4400694901EBC000007D89
:1072A00001280FD004EB440001EBC000007D022850
:1072B00008DA00BF46A340F2CD3262A156A0FFF724
:1072C00081F900BF00BF019800B93EB93946484670
:1072D00000F0A8F902900EB90298A6E700BF46B9DF
:1072E00000BF3BA340F2E13260A14BA0FFF76AF977
:1072F00000BF00BF04EB4400514901EBC000007D1A
:10730000022811DB5C4804704FF40060009004EB2D
:10731000440001EBC00000F10C03524631464846E0
:1073200000F0C4FB029050E004EB4400444901EB40
:10733000C000007D012848D14FF0000B354618E011
:1073400000BF6889298988420AD1286840B100BFF6
:107350001FA340F2F13249A12FA0FFF733F900BF7C
:1073600000BF287B00F0400010B14FF0010B02E09D
:107370002D68002DE4D100BFBBF1000F07D03246CD
:107380004FF420710E2003F0C1FF054603E035469F
:10739000284604F0A7FBA5B104EB4400284951F8A6
:1073A000300030B104EB4401254A52F8310004F0BA
:1073B000B9F904EB4400224941F830500020029012
:1073C00002E04FF0FF30029000BF02982DE700006E
:1073D0002E2E2F4D6964646C6577617265732F542E
:1073E000686972645F50617274792F4C7749502FCD
:1073F0007372632F636F72652F697076342F6574B3
:10740000686172702E63000074797065206F766514
:1074100072666C6F77000000417373657274696FF8
:107420006E2022257322206661696C656420617478
:10743000206C696E6520256420696E2025730A0022
:107440007C7B00246172705F7461626C655B695D56
:107450002E7374617465203D3D2050454E44494E65
:1074600047206F7220535441424C45007120213D0A
:10747000204E554C4C000000E80000246E6F207038
:1074800061636B65742071756575657320616C6CE3
:107490006F776564210000002DE9FC5F06460F460A
:1074A00090469946DDE90CAB0020019000BF002E0C
:1074B00008D100BF31A340F257423EA141A0FFF7DF
:1074C00081F800BF00BF4FF420721C210E2003F092
:1074D00093FC05461DB94FF0FF30BDE8FC9F00BF8F
:1074E00068891C2808DA00BF24A340F262423FA149
:1074F00034A0FFF767F800BF00BF6C680F9802F078
:10750000B2F8E08000BF96F82C00062808D000BF33
:107510001AA340F2694242492AA0FFF753F800BF7C
:1075200000BFD9F80000A060B9F80400A081DBF822
:107530000000C4F81200BBF80400E082DAF8000092
:10754000C4F80E000E980068A0614FF4807020808F
:1075500008206080062020710420607140F606003B
:1075600043463A4629460090304600F09FFA2846A6
:1075700004F0D8F800250198AFE700002E2E2F4D1B
:107580006964646C6577617265732F5468697264AD
:107590005F50617274792F4C7749502F7372632F4B
:1075A000636F72652F697076342F657468617270CD
:1075B0002E6300006E6574696620213D204E554C97
:1075C0004C000000417373657274696F6E20222550
:1075D0007322206661696C6564206174206C696E39
:1075E0006520256420696E2025730A006368656341
:1075F0006B207468617420666972737420706275A0
:10760000662063616E20686F6C64207374727563AA
:1076100074206574686172705F68647200000000B5
:107620000425010870B504460D46034A2946204644
:1076300000F004F870BD0000E02201087FB50446A8
:107640000D4616460121074A201D04F126038DE848
:1076500025000391324619462046FFF71DFF04B06E
:1076600070BD0000E622010870B5002464E004EB60
:107670004400334901EBC000057D002D5BD004EBD5
:10768000440001EBC000408A401C04EB44012C4A3A
:1076900002EBC101488204EB4400114601EBC0003B
:1076A000408AB0F5967F0DDA04EB440001EBC00090
:1076B000007D01280AD104EB440001EBC000408AA0
:1076C000052803DB2046FFF711FB34E004EB440000
:1076D0001B4901EBC000007D032807D1042004EB07
:1076E0004401174A02EBC101087524E004EB440091
:1076F000134901EBC000007D042807D1022004EBF0
:1077000044010F4A02EBC101087514E004EB440088
:107710000B4901EBC000007D01280CD104EB4402B1
:107720000B4603EBC202111D04EB440203EBC20241
:107730009068FFF777FF641C0A2C98DB70BD00008F
:107740007C7B00242DE9F84305460E4617469846F3
:1077500000BF95F82C00062808D000BF2EA340F2E9
:10776000A9123BA143A0FEF72DFF00BF00BF5EB1F1
:10777000306848B12946306800F0AEFC20B9307856
:1077800000F0F000E02803D16FF00F00BDE8F883AF
:107790002A4641463046FFF729F90446002C01DA13
:1077A00060B2F3E7022004EB44013C4A02EBC10162
:1077B000087504EB4400114601EBC000856004EB42
:1077C000440001EBC0003968C160B9880182002023
:1077D00004EB440102EBC101488204EB4400114672
:1077E00051F83000B0B104EB440051F83090002063
:1077F00004EB440142F831004FF400603B4605F1D0
:10780000260249460090284600F050F9484603F009
:1078100089FF00BF0020B9E72E2E2F4D6964646CEC
:107820006577617265732F54686972645F50617225
:1078300074792F4C7749502F7372632F636F726581
:107840002F697076342F6574686172702E63000042
:107850006E657469662D3E6877616464725F6C65FD
:107860006E203D3D204554485F4857414444525F97
:107870004C454E00417373657274696F6E2022250A
:107880007322206661696C6564206174206C696E86
:107890006520256420696E2025730A007C7B002406
:1078A0002DE9F04104460E464FF00E0860890E287F
:1078B00000DC4FE0E07B18B996F83000401CE07324
:1078C0006568AF89287800F00100B0B128780128F8
:1078D00009D1687888B9A8785E280ED1607B40F01D
:1078E0001000607309E006221D492846F8F768FD7C
:1078F00018B9607B40F008006073082F03D0B7F51B
:10790000C16F22D110E096F82D0000F0080000B9F8
:1079100020E04146204604F033F900B11AE0314638
:10792000204600F067FD11E096F82D0000F00800F9
:1079300000B90FE04146204604F022F900B109E009
:1079400031462046FFF7F2F900E003E000BF0020D7
:10795000BDE8F081204603F0E5FE0020F8E70000D6
:10796000E02201082DE9F0419AB00446642101A803
:10797000F8F71BFD002500260027A8462A48FDF73A
:10798000BFFB054694F82D00C0F3800058B1012DCF
:1079900009DC2648FAF72DFB204603F015F82046AF
:1079A00003F07CF83DE094F82D00C0F3800000283F
:1079B00037D1012D35DD022D06D0032D0AD0042D3F
:1079C0000ED0052D16D110E04FF400584FF480472B
:1079D000012610E04FF000084FF4804701260AE02E
:1079E0004FF400580027012605E04FF0000800275B
:1079F000012600E000BF00BF9EB101A90B48F9F7C6
:107A0000F5FDCDF81C80069701A90848FAF756FA4B
:107A10000648FAF7A1FA204603F010F9204603F0D1
:107A2000A3F81AB0BDE8F081FC4B0024144B0024ED
:107A300010B5044694F82D0000F0010018B104A020
:107A4000FEF7C0FD02E00DA0FEF7BCFD10BD00007A
:107A5000C2BAC38BC2B6C394C381C2B4C382C2B715
:107A6000C397C2B4C38CC2ACC2A3C2BA6E657469F8
:107A7000665F69735F7570210D0A0000C2BAC38B1F
:107A8000C2B6C394C381C2B4C382C2B7C397C2B4DF
:107A9000C38CC2ACC2A3C2BA6E657469665F6973F7
:107AA0005F646F776E210D0A000000002DE9F0473A
:107AB00005460E4617469846DDF82090484601F0E8
:107AC000D2FD82460E21304603F018F900B122E0C3
:107AD0007468A4F80CA0D8F800002060B8F804007E
:107AE000A0803868C4F80600B888608100BF95F8A7
:107AF0002C00062808D000BF08A34FF4997215A1E6
:107B000021A0FEF75FFD00BF00BF31462846AA69ED
:107B10009047BDE8F0876FF00100FAE72E2E2F4D59
:107B20006964646C6577617265732F546869726407
:107B30005F50617274792F4C7749502F7372632FA5
:107B40006E657469662F65746865726E65742E6300
:107B5000000000006E657469662D3E68776164649C
:107B6000725F6C656E206D757374206265203620BF
:107B7000666F722065746865726E65745F6F757488
:107B80007075742100000000417373657274696F31
:107B90006E2022257322206661696C656420617401
:107BA000206C696E6520256420696E2025730A00AB
:107BB00010B5044600BF44B900BF0CA340F27F12C9
:107BC00011A115A0FEF7FEFC00BF00BF732084F8D2
:107BD0002E0074212F200155194860611948A061B9
:107BE000204601F0BDFB002010BD00002E2E2F4CC2
:107BF0005749502F5461726765742F6574686572B8
:107C00006E657469662E63006E6574696620213D39
:107C1000204E554C4C000000417373657274696FBF
:107C20006E2022257322206661696C656420617470
:107C3000206C696E6520256420696E2025730A001A
:107C4000696E0008F594000870B50446002500BF71
:107C5000204601F011FC05463DB121462846226927
:107C6000904710B1284603F05DFD002DF0D170BDA6
:107C700038B504468DF8000069460320ABBE2046A7
:107C800038BD70B505460C4622460321284600F053
:107C900053F970BD2DE9FF5F05468A46724880683A
:107CA0000390039800780007870E142F00DAD1E0C4
:107CB0006889042800D2CDE06868047814B1082CE3
:107CC00077D100E0C1E0DFF8A09109F1140966481E
:107CD000007D00F0F000E02800D1BFE0624A1168AA
:107CE000506900F0F9F900B1B8E02889082800D2FD
:107CF000B0E0284600F0C5F920B1284603F012FD97
:107D0000BDE8FF9F07F10E01284602F0F7FF0028AB
:107D100044D0288938441FFA80FB2889584500DD63
:107D20009CE04FF4207259460E2003F065F880461F
:107D3000B8F1000F00D191E0B8F80A1007F108007F
:107D4000814203D2404603F0EDFC87E03A46D8F882
:107D500004000399F8F702FB3946404603F010FF90
:107D600000280DD000BF00BF40A3B6224DA15BA0EC
:107D7000FEF728FC00BF00BF404603F0D3FC6DE0D7
:107D80002946404603F01AFB18B1404603F0CAFCEE
:107D900064E0284603F0C6FC454612E007F10E01F8
:107DA000284603F0EDFE60B100BF00BF2FA3C7223D
:107DB00000E038E053A149A0FEF704FC00BF00BF7B
:107DC0004CE06E683946284602F098FF50BBD5F863
:107DD0000480D9F80000C8F80C0023480069C8F8EE
:107DE00010000020307070884FF6F771884203DD74
:107DF00070880930708002E0708808307080FF2041
:107E000088F808000020A8F80A0001200021FF23BC
:107E10000A46CDE9010A00914946284600F0D2FB06
:107E2000834600BF11E0032C0ED00B2C0CD00C2C81
:107E30000AD0042C08D0052C06D00D2C04D00E2C12
:107E400002D0112C00D000BF00BF00BF284603F0B5
:107E500069FC55E7284603F065FC51E7284603F026
:107E600061FC00BF4CE70000584C00242E2E2F4D23
:107E70006964646C6577617265732F5468697264B4
:107E80005F50617274792F4C7749502F7372632F52
:107E9000636F72652F697076342F69636D702E631E
:107EA0000000000069636D705F696E7075743A2040
:107EB0006D6F76696E6720722D3E7061796C6F61AF
:107EC0006420746F2069636D7020686561646572F9
:107ED000206661696C65640A000000004173736587
:107EE0007274696F6E2022257322206661696C6549
:107EF00064206174206C696E6520256420696E20A1
:107F000025730A0069636D705F696E7075743A203D
:107F1000726573746F72696E67206F726967696EDC
:107F2000616C20702D3E7061796C6F6164206661B8
:107F3000696C65640A0000002DE9FF470746884622
:107F400091464FF420722421222002F055FF05466D
:107F50000DB9BDE8FF8700BF6889242808D200BF9B
:107F60001BA34FF4B47228A132A0FEF72BFB00BF75
:107F700000BFD7F804A06C6884F8008084F80190F2
:107F80000020A080E08079686A6802F108001C2265
:107F9000F8F7E4F9DAF80C00039003A800F084FD88
:107FA000064686B1002060806989204600F05FF8AF
:107FB000608001200021FF2303AACDE90106009182
:107FC000284600F0FFFA284603F0ACFB00BFC0E7EC
:107FD0002E2E2F4D6964646C6577617265732F5422
:107FE000686972645F50617274792F4C7749502FC1
:107FF0007372632F636F72652F697076342F6963B4
:108000006D702E6300000000636865636B20746808
:108010006174206669727374207062756620636192
:108020006E20686F6C642069636D70206D6573737A
:1080300061676500417373657274696F6E202225F4
:108040007322206661696C6564206174206C696EBE
:108050006520256420696E2025730A0070B50546E9
:108060000C4622460B212846FFF766FF70BD30B54F
:1080700004460D462946204601F04AFBC04380B223
:1080800030BDF0B5064600270024354619E0698961
:10809000686801F03DFB0444A0B200EB1444688919
:1080A00000EBD0714910A0EB410149B10FB901209B
:1080B00000E000200746E0B2C4F3072141EA0024B3
:1080C0002D68002DE3D127B1E0B2C4F3072141EAC6
:1080D0000024E04380B2F0BD18B502460092D043C0
:1080E00000B10AB9012018BD91F82D0000F002007E
:1080F00008B90020F7E74868904201D10020F2E774
:1081000000988B681840D1E901342340984208D187
:10811000886822EA00008C68E343984201D101207C
:10812000E1E70020DFE700002DE9F74F8CB00446BF
:108130000F464FF00008B98CA1F11400C11700EBF5
:108140005171C1F3CF0A1420059060680990DDF8E1
:10815000249099F8000000F00F001421B1EB800F7B
:1081600004D06FF005000FB0BDE8F08F00BF60894C
:1081700014280BDA00BF72A34FF43F727FA186A0D0
:10818000FEF720FA00BF6FF00500ECE700BFB9F87A
:10819000060001F068FA04900498C0F30C00079000
:1081A000049800F400500390208914381FFA80FBD3
:1081B000BDE04FF6FF7000EACA00584501DD5846A1
:1081C00003E04FF6FF7000EACA0008904FF42072F7
:1081D00014210E2002F010FE054605B9ADE000BFE7
:1081E0006889142808DA00BF55A34FF4497274A1B6
:1081F00069A0FEF7E7F900BF00BF1422686809997B
:10820000F8F7ACF8D5F8049008980A9054E0618922
:108210000598081A80B2029000BF618905988142D2
:1082200008DA00BF46A340F22D326DA15AA0FEF736
:10823000C9F900BF00BF02990A98884201DA0A987A
:1082400000E002988046B8F1000F03D100200590AD
:10825000246831E000F072FC06461EB9284603F09F
:1082600061FA6AE061680598084433464122414654
:10827000CDE90008002002F06DFF0B900B9830B99B
:10828000304600F061FC284603F04CFA55E02046E9
:1082900003F028FC74615648306128460B9902F0BF
:1082A00083FF0A98A0EB080080B20A900A9810B1E8
:1082B00000200590246800BF0A980028A7D10598DF
:1082C000404480B20590B88C1438584501DB012039
:1082D00000E0002006900798C0F30C000490069878
:1082E00008B1039818B1049840F400500490049821
:1082F00001F0B9F9A9F806000899143188B201F023
:10830000B2F9A9F802000020A9F80A007B69294601
:1083100038460E9A9847284603F004FA0898ABEBC3
:1083200000001FFA80FB0798504480B20790BBF111
:10833000000F7FF43EAF002015E74FF0FF3012E74B
:108340002E2E2F4D6964646C6577617265732F54AE
:10835000686972645F50617274792F4C7749502F4D
:108360007372632F636F72652F697076342F697033
:10837000345F667261672E63000000006970345FCD
:108380006672616728293A207062756620746F6F83
:108390002073686F72740000417373657274696F43
:1083A0006E2022257322206661696C6564206174E9
:1083B000206C696E6520256420696E2025730A0093
:1083C00074686973206E65656473206120706275DE
:1083D0006620696E206F6E65207069656365210097
:1083E000702D3E6C656E203E3D20706F666600000D
:1083F000999200082DE9F04707460E467D682878D7
:108400000421B1EB201F05D0384603F08BF9002082
:10841000BDE8F087287800074FEA9068688801F087
:1084200022F981463989494503DD4946384603F03A
:10843000A5FA7889404505DB3889484502DBB8F163
:10844000140F04DA384603F06DF90020E0E72869DC
:108450004D494861E86808610846007D00F0F00079
:10846000E0280AD196F82D0000F0010018B17068DC
:1084700008B134461CE000241AE0304600F088F8C9
:1084800008B1344614E000243F48007D7F280FD017
:108490003E48046809E0B44200D105E0204600F0FF
:1084A00077F800B103E000BF2468002CF3D100BFCF
:1084B000354908693146FFF70FFE28B93248007C7C
:1084C00000F0F000E02804D1384603F02BF900203A
:1084D0009EE724B9384603F025F9002098E7E8889C
:1084E0004FF63F71084038B1384600F05FF9074653
:1084F0000FB900208CE77D682348046046608560E2
:1085000028780007800E204988814146384603F0CC
:1085100037FB687A01280DD0062806D011280ED125
:108520003146384609F0E0FC22E03146384604F096
:10853000A7FD1DE031463846FFF7ACFB18E01249B5
:1085400048692146FFF7C8FD70B90F48007D00F06B
:10855000F000E02808D00FFA88F1384603F0DCF983
:1085600002213846FFF78DFB384603F0DBF800BFE9
:1085700000BF002004490860486088608881086165
:10858000486100BF44E70000584C002480000024EC
:1085900010B5044694F82D0000F0010070B1606839
:1085A00060B1074840696168884205D0044948695C
:1085B0002146FFF791FD08B1012010BD0020FCE726
:1085C000584C00242DE9FE4F07460C4615469846A8
:1085D000DDE90C9A0E9EA34625B10CB1206808B9BE
:1085E00006F1040B43462A4659463846CDE9009A1F
:1085F000029600F003F8BDE8FE8F00002DE9F84F69
:108600000546884617469A46DDF828B00C9E00BFFE
:10861000A87B012808D000BF3CA34FF4557248A1A5
:108620004AA0FDF7CFFF00BF00BF002F48D04FF09A
:1086300014091421284602F061FB18B16FF0010003
:10864000BDE8F88F6C6800BF6889142808D200BFA5
:108650002EA34FF4627247A13CA0FDF7B3FF00BF09
:1086600000BF84F808A00B98607238682061484603
:108670004FEAE97109EB9171C1F3870141F04001C3
:10868000217084F801B0288900F0EDFF608000209F
:10869000E0804448008800F0E6FFA0804148008860
:1086A000401C40490880B8F1000F03D13E480068E3
:1086B000E06002E0D8F80000E0600020608109E09E
:1086C0006889142802DA6FF00100B9E76C68206944
:1086D00000906F4638687168884204D12946304658
:1086E00002F018F8ACE7B08C48B12889B18C884208
:1086F00005DD3A4631462846FFF716FDA0E73A4623
:1087000029463046736998479AE700002E2E2F4D70
:108710006964646C6577617265732F54686972640B
:108720005F50617274792F4C7749502F7372632FA9
:10873000636F72652F697076342F6970342E630011
:10874000702D3E726566203D3D203100417373659A
:108750007274696F6E2022257322206661696C65D0
:1087600064206174206C696E6520256420696E2028
:1087700025730A00636865636B2074686174206602
:108780006972737420706275662063616E20686F11
:108790006C64207374727563742069705F686472AE
:1087A00000000000EA000024E82301082DE9F14F51
:1087B00084B004984568287800F00F001421B1EBCC
:1087C000800F00D011E1E88800F04DFFC0F30C00ED
:1087D0004FF6FF7101EAC00A688800F044FF0746BF
:1087E00028780007810E02910299B94200DDFCE071
:1087F0000298381A87B2049802F07EFD06467D483A
:10880000018888190A280ADD3146284600F0E6FC6E
:1088100020B17848008830440A2800DDE5E0764839
:10882000046811E06069E968884209D1A069296992
:10883000884205D1A089A988884201D1012000E0A1
:10884000002000B102E02468002CEBD100BF34B955
:108850003146284600F0A8FB044694B9C5E0E888F4
:1088600000F001FFC0F30C0058B9E08900F0FBFEF6
:10887000C0F30C0028B11422294604F10800F7F7D0
:108880006DFDE888012121EA50100190019850B156
:108890000AEB070188B2504503DB4FF6EB718842C3
:1088A00000DD80E000BF2046019A049900F098F9AD
:1088B00083460BF1010000B975E04E480088304452
:1088C0004C490880019840B10AEB070188B2A083A7
:1088D000A17F41F00101A17700BFBBF1010F60D181
:1088E000A08B143080B2009060684068D0F800908F
:1088F00060684568142204F108012846F7F72EFD48
:10890000009800F0B0FE68800020E8806881606810
:1089100004900DE0D9F8040003901421484603F0B8
:108920002FF94946049802F03FFC0398D0F80090D4
:10893000B9F1000FEED130480068844202D14FF007
:1089400000080EE02C48D0F8008006E0D8F80000BF
:10895000A04200D104E0D8F80080B8F1000FF5D1B2
:1089600000BF4146204600F0BDFA049802F0C4FC66
:10897000064600BF1F480088B04208DA00BF1FA3A8
:1089800040F29B222CA133A0FDF71CFE00BF00BFCC
:1089900018480088801B17490880049805B0BDE876
:1089A000F08F0020FAE700BF44B900BF13A34FF4D3
:1089B0002A7232A127A0FDF705FE00BF00BF606844
:1089C00090B900BF0C480068844208D000BF0BA3D8
:1089D00040F2AB222CA11FA0FDF7F4FD00BF00BFA9
:1089E0000021204600F07EFA00BF049802F09AFEB3
:1089F0000020D3E7F0000024EC0000242E2E2F4DA1
:108A00006964646C6577617265732F546869726418
:108A10005F50617274792F4C7749502F7372632FB6
:108A2000636F72652F697076342F6970345F667278
:108A300061672E630000000069705F726561737387
:108A40005F70627566636F756E74203E3D20636C67
:108A5000656E0000417373657274696F6E20222524
:108A60007322206661696C6564206174206C696E94
:108A70006520256420696E2025730A0069707220C4
:108A8000213D204E554C4C006E6F74206669727308
:108A900074616C74686F756768206A75737420659B
:108AA0006E7175657565640010B5024621480168F0
:108AB00021E091F82D0000F00100D8B191F82D00CF
:108AC000C0F38000B0B14868A0B110688B6818404E
:108AD000D1E901342340984201D1084610BD91F8F4
:108AE0002D0000F0020028B91068CB68984201D12F
:108AF0000846F3E709680029DBD10F480068A0B1F8
:108B00000D48006890F82D0000F0010068B10A4897
:108B1000006890F82D00C0F3800030B1064800686E
:108B2000406810B110787F2801D10020D6E70248B4
:108B30000068D3E7800000248400002410B50520DD
:108B400001F0E2FA10BD000010B5044600BF002C91
:108B500008D100BF06A34FF4317214A116A0FDF78F
:108B600031FD00BF00BF2146052001F0FFF910BD17
:108B70002E2E2F4D6964646C6577617265732F5476
:108B8000686972645F50617274792F4C7749502F15
:108B90007372632F636F72652F697076342F6970FB
:108BA000345F667261672E63000000007020213D13
:108BB000204E554C4C000000417373657274696F10
:108BC0006E2022257322206661696C6564206174C1
:108BD000206C696E6520256420696E2025730A006B
:108BE0002DE9F74F84B00646884600250120019004
:108BF000D8F8040002900299488800F034FD8346BA
:108C0000029800780007800E03900398584503DD12
:108C1000681E07B0BDE8F08F0398ABEB00001FFAA9
:108C200080FB0299C88800F01EFDC0F30C004FF6CF
:108C3000FF7101EAC00A00BF00BFD8F8044000205D
:108C40002060A4F804A00AEB0B00E080E088504507
:108C500002DA4FF0FF30DCE7D6F804903EE0D9F8B6
:108C60000470A088B988884220DAC4F800909DB1C9
:108C7000A088E988884203DBE088B988884202DD61
:108C80004FF0FF30C5E7C5F80080E888A18888422A
:108C90000BD00020019008E0E088B988884202DD0E
:108CA0004FF0FF30B5E7C6F804801AE0A088B98815
:108CB000884202D14FF0FF30ABE7A088F9888842A4
:108CC00002DA4FF0FF30A4E72DB1E888B988884276
:108CD00001D000200190D7F800903D46B9F1000F77
:108CE000BDD100BFB9F1000F28D1002D17D000BFB2
:108CF000E888A188884208DD00BF3EA34FF4DB72FC
:108D00004BA153A0FDF75EFC00BF00BFC5F800807B
:108D1000E888A188884211D0002001900EE000BFB1
:108D2000706840B100BF33A34FF4DF7252A148A076
:108D3000FDF748FC00BF00BFC6F80480069820B9C4
:108D4000B07F00F00100002851D00198002848D0E1
:108D5000706818B170684068808810B10020019078
:108D60003FE02546D4F800900BE0D9F80440E888AD
:108D7000A188884202D00020019005E02546D4F861
:108D80000090B9F1000FF0D100BF0198002828D061
:108D900000BF706840B900BF16A340F2DF1244A1C3
:108DA0002BA0FDF70FFC00BF00BF00BF706840683C
:108DB000A04208D100BF0FA34FF4F0723CA124A041
:108DC000FDF700FC00BF00BF00BF206840B100BF3E
:108DD00008A34FF4F1723AA11DA0FDF7F3FB00BF09
:108DE00000BF019808B1012013E7002011E700201F
:108DF0000FE700002E2E2F4D6964646C6577617259
:108E000065732F54686972645F50617274792F4C76
:108E10007749502F7372632F636F72652F69707675
:108E2000342F6970345F667261672E630000000042
:108E3000636865636B20667261676D656E7473202D
:108E4000646F6E2774206F7665726C61700000002D
:108E5000417373657274696F6E20222573222066D8
:108E600061696C6564206174206C696E652025649D
:108E700020696E2025730A006E6F20707265766916
:108E80006F757320667261676D656E742C207468EF
:108E90006973206D7573742062652074686520663F
:108EA0006972737420667261676D656E742100006B
:108EB00073616E69747920636865636B00000000FC
:108EC00076616C69646174655F6461746167726125
:108ED0006D3A6E6578745F70627566213D4E554CD3
:108EE0004C00000070B504460D460E480068A042D4
:108EF00003D10C49206808600EE000BF002D08D1A6
:108F000000BF09A340F2451216A11DA0FDF75AFBB0
:108F100000BF00BF206828602146042001F026F829
:108F200070BD0000EC0000242E2E2F4D6964646C8F
:108F30006577617265732F54686972645F506172FE
:108F400074792F4C7749502F7372632F636F72655A
:108F50002F697076342F6970345F667261672E6393
:108F60000000000073616E69747920636865636B4B
:108F7000206C696E6B6564206C697374000000007E
:108F8000417373657274696F6E20222573222066A7
:108F900061696C6564206174206C696E652025646C
:108FA00020696E2025730A0070B505460E46042020
:108FB00001F0AAF8044664B93146284600F00EF9DB
:108FC000B04203DB042001F09FF804460CB90020F6
:108FD00070BD20212046F7F7E8F90F20E07706481A
:108FE00000682060044804601422294604F1080047
:108FF000F7F7B4F92046EBE7EC0000242DE9F04741
:1090000004468846002500BFA04507D100BF40A305
:10901000AB224EA150A0FDF7D5FA00BF00BFB8F1BA
:10902000000F0DD000BFD8F80000A04207D000BF4D
:1090300037A3AD2252A148A0FDF7C4FA00BF00BF7C
:109040006068D0F80490B9F80400002824D167685B
:10905000D9F800006060142204F108017868F7F77D
:109060007DF901213846FEF7F9FF384602F044F950
:10907000064600BFA819B0F5803F07DB00BF24A358
:10908000BC2244A134A0FDF79DFA00BF00BFA8197F
:1090900085B2384602F046FB67681CE0D7F80490BA
:1090A000BA46D9F80070504602F026F9064600BFCD
:1090B000A819B0F5803F07DB00BF15A3CC2235A16E
:1090C00025A0FDF77FFA00BF00BFA81985B2504662
:1090D00002F028FB00BF002FE0D141462046FFF7F9
:1090E00001FF00BF33480088A84207DA00BF08A389
:1090F000D22231A118A0FDF765FA00BF00BF2D48AC
:109100000088401B2B4908802846BDE8F0870000F6
:109110002E2E2F4D6964646C6577617265732F54D0
:10912000686972645F50617274792F4C7749502F6F
:109130007372632F636F72652F697076342F697055
:10914000345F667261672E6300000000707265769E
:1091500020213D2069707200417373657274696FDC
:109160006E2022257322206661696C65642061741B
:10917000206C696E6520256420696E2025730A00C5
:10918000707265762D3E6E657874203D3D20697065
:109190007200000070627566735F667265656420B8
:1091A0002B20636C656E203C3D20307866666666D9
:1091B00000000000F000002469705F726561737345
:1091C0005F70627566636F756E74203E3D207062DD
:1091D0007566735F66726565640000002DE9F84F7F
:1091E00005468946002700BF0026B24600200090B1
:1091F00083461B48046821E06069E968884207D11A
:10920000A0692969884203D1A089A988884201D030
:10921000012000E0002068B10BF1010B1EB92646C9
:10922000CDF800A006E0E07FF17F884202DC264610
:10923000CDF800A0206800B1A2462468002CDBD144
:109240002EB130460099FFF7D9FE804647444F457E
:1092500002DABBF1010FC7DC3846BDE8F88F000029
:10926000EC00002470B500250A4804680FE0E07F98
:10927000002805DDE07F401EE0772546246806E0F3
:109280002646246829463046FFF7B8FE00BF002C6A
:10929000EDD170BDEC00002470B505462C4600BF32
:1092A000002C08D100BF0FA340F2CE221CA11FA0AA
:1092B000FDF788F900BF00BF00BFAC4208D000BF77
:1092C00008A340F2CF2223A118A0FDF77BF900BF2D
:1092D00000BF606910B1606902F024FA2046FFF710
:1092E00033FC70BD2E2E2F4D6964646C65776172FE
:1092F00065732F54686972645F50617274792F4C82
:109300007749502F7372632F636F72652F69707680
:10931000342F6970345F667261672E63000000004D
:1093200070637220213D204E554C4C004173736593
:109330007274696F6E2022257322206661696C65E4
:1093400064206174206C696E6520256420696E203C
:1093500025730A00706372203D3D207000000000FC
:109360007CB5044600253C483C49086000208DF847
:10937000000080208DF80100E1208DF8020000201F
:109380008DF803008DF804008DF80500C1F804D0B5
:109390000121324801723249C1603249016140F213
:1093A000F4514161F8F7EEFA054638212E48F6F7F8
:1093B000FCFF21202C4908604FF440304861002018
:1093C00008612A4800F08AFE062084F82C00234811
:1093D0004068007884F826002048406841782720BB
:1093E00001551E4840688178282001551B48406877
:1093F000C178292001551948406801792A20015572
:109400001648406841792B20015540F2DC50A08479
:1094100094F82D0040F00A0084F82D0014491548F6
:10942000FBF752FF00210720FCF787F96420F8F7CB
:10943000C7F800210720FCF780F96420F8F7C0F88E
:109440000C48FBF7D2FE1DB92046FEF78BFA01E06F
:10945000F7F764FC7CBD000000800240144B002440
:109460006000003000000030C44B00249C22010842
:109470000C000024FC4B002438B50446002000906A
:109480001848007860BB00BF0023174D2B60BFF366
:109490004F8F2B1F1868C0F34E3100BF00BFC0F3C1
:1094A000C90200BF43F6E07303EA41134FF04045A1
:1094B00005EA82752B430D4D2B6000BF00BF131EC4
:1094C000A2F10102EED10B1EA1F10101E7D1BFF320
:1094D0004F8FBFF36F8F00BF69460548F8F7CBFB8E
:1094E000009838BD0800002484ED00E074EF00E02F
:1094F000144B00242DE9F0418CB080460E46002428
:109500000025002730216846F6F74FFF30216846D6
:10951000F6F74BFF354629E0042C04D36FF00B001F
:109520000CB0BDE8F08104EB440168684DF82100FF
:10953000688904EB44016A4602EB8101486054B13A
:1095400004EB4400694601EB8001601E00EB400023
:1095500002EB80008160286830B9002004EB4401F0
:109560006A4602EB81018860641C2D68002DD3D10E
:1095700030891E494860C1F808D00846466300BFDC
:109580000023DFF86CC0CCF80030BFF34F8FACF194
:1095900004031868C0F34E3100BF00BFC0F3C90216
:1095A00000BF43F6E07303EA41134FF0404C0CEA6E
:1095B000827C43EA0C03DFF83CC0CCF8003000BFEB
:1095C00000BF131EA2F10102EBD10B1EA1F101019C
:1095D000E4D1BFF34F8FBFF36F8F00BF1422034955
:1095E0000548F8F740FD38469AE70000C44B0024D0
:1095F00084ED00E074EF00E0144B00242DE9F0410D
:10960000044625466868804702F05AFC06460D4924
:10961000286809684718B81BB0F1004F01D3012032
:1096200000E0002030B1296888192246064902F07E
:10963000B3FC04E022460449384602F0ADFCBDE824
:10964000F0810000D8000024FD95000801460806BE
:1096500001F47F4240EA022001F47F0240EA122036
:1096600040EA1160704701460806000C40EA1120EC
:109670007047000008B50020009000BF6846804297
:1096800008D000BF0BA340F25112164916A0FCF7F8
:1096900099FF00BF00BF00BF00BF00F099F900F0C4
:1096A0000DFD00F0A7FF08F013FC03F0DDFC02F055
:1096B00013FD08BD2E2E2F4D6964646C65776172B1
:1096C00065732F54686972645F50617274792F4CAE
:1096D0007749502F7372632F636F72652F696E69BC
:1096E000742E6300F0230108417373657274696F0F
:1096F0006E2022257322206661696C656420617486
:10970000206C696E6520256420696E2025730A002F
:10971000F8B505460A462B4600200090002103F0CC
:10972000010636B1002A04DD13F8010B8DF80100A3
:10973000521E1C4603E034F8027B3944921E012A73
:10974000F9DC002A02DD20788DF80000BDF8000069
:10975000014488B200EB114188B200EB114126B1FF
:10976000C8B2C1F3072747EA002188B2F8BD00005C
:1097700000BF244B1B6803F4803303B12FE00023A8
:10978000204C70342360BFF34F8F231F1868C0F341
:109790004E3100BFC0F3C90200BF43F6E07303EAD5
:1097A00041134FF0404404EA82742343164C236073
:1097B00000BF00BF131EA2F10102EED10B1EA1F1EA
:1097C0000101E7D1BFF34F8F0E4B1B6843F4803389
:1097D0000C4C2360BFF34F8FBFF36F8F00BFF8F7C0
:1097E0001DFEFBF789FDFCF73BF9FBF761FFFBF77B
:1097F000B3FDFBF723FFFBF7F5FD01E0FBF712FFDD
:10980000FCE7000014ED00E060EF00E070B50546F5
:1098100005B970BD05F0030000280DD000BF00BFE2
:109820002BA340F2732236A13EA0FCF7CBFE00BF73
:1098300000BF00BF00BFECE7A5F108044348006883
:10984000844205D305F10C004149096888420DD9CD
:1098500000BF00BF1EA340F27F223EA131A0FCF753
:10986000B1FE00BF00BF00BF00BFD2E720790028D3
:109870000DD100BF00BF16A34FF423723CA129A055
:10988000FCF7A0FE00BF00BF00BF00BFC1E720463D
:1098900000F0CAF800280DD100BF00BF0CA340F2B1
:1098A00095223DA11FA0FCF78DFE00BF00BF00BFA9
:1098B00000BFAEE70020207144480068844201D216
:1098C00042480460204602F0D5F900BFA1E700003D
:1098D0002E2E2F4D6964646C6577617265732F5409
:1098E000686972645F50617274792F4C7749502FA8
:1098F0007372632F636F72652F6D656D2E63000049
:109900006D656D5F667265653A2073616E69747925
:1099100020636865636B20616C69676E6D656E744A
:1099200000000000417373657274696F6E20222518
:109930007322206661696C6564206174206C696EB5
:109940006520256420696E2025730A0050000024DC
:10995000540000246D656D5F667265653A20696C20
:109960006C6567616C206D656D6F72790000000039
:109970006D656D5F667265653A20696C6C656761DF
:109980006C206D656D6F72793A20646F75626C65DD
:1099900020667265650000006D656D5F66726565C5
:1099A0003A20696C6C6567616C206D656D6F7279CA
:1099B0003A206E6F6E2D6C696E6B65643A20646F31
:1099C00075626C65206672656500000058000024B1
:1099D00010B500BF00BF1048104908600846046871
:1099E0004FF4C86020800020608020714FF4C86070
:1099F00002F02CFA0A4908600120096808714FF446
:109A0000C860074909680880054909684880034813
:109A100000680449086010BD004004305000002474
:109A200054000024580000242DE9F041044620464B
:109A300000F07AF90546208802F008FA06466088A8
:109A400002F004FA07462088B0F5C86F10D8608885
:109A5000B0F5C86F0CD86088A84202D03888A842F8
:109A600006D106480068864205D07088A84202D018
:109A70000020BDE8F0810120FBE700005400002435
:109A80002DE9F0478146B9F1000F02D10020BDE871
:109A9000F08709F1030020F0030085B20C2D00D2FD
:109AA0000C25B5F5C86F01D84D4501DA0020EEE769
:109AB0005848006800F038F90646A3E0304602F046
:109AC000C5F90446207900287ED1218806F10800D6
:109AD000081AA84278D3218806F10800091A05F16E
:109AE0001400814229D306F1080028441FFA80F8A7
:109AF00000BFB8F5C86F08D100BF47A340F2873256
:109B000051A156A0FCF75EFD00BF00BF404602F029
:109B10009DF9074600213971218839807E80A4F89B
:109B20000080012020713888B0F5C86F07D03888D0
:109B300002F08CF9A0F8028001E001202071354884
:109B40000068844227D13348D0F800A004E0BAF876
:109B5000000002F07BF982469AF8040018B14948E7
:109B600000688245F3D12B48C0F800A000BF006810
:109B70004449096888420CD026480068007940B101
:109B800000BF25A340F2B5323FA134A0FCF71AFD77
:109B900000BF00BF00BF00BF04F1080028443949DE
:109BA0000968884208D900BF1BA340F2B9323DA121
:109BB0002AA0FCF707FD00BF00BF00BF04F00300B0
:109BC00050B100BF14A300E018E040F2BB3241A145
:109BD00022A0FCF7F7FC00BF00BF00BF04F00300A9
:109BE00040B100BF0CA340F2BD3246A11BA0FCF760
:109BF000E9FC00BF00BF04F1080048E7304602F06E
:109C000025F90688C5F5C860B0423FF657AF002079
:109C10003DE70000580000242E2E2F4D6964646C2F
:109C20006577617265732F54686972645F50617201
:109C300074792F4C7749502F7372632F636F72655D
:109C40002F6D656D2E630000696E76616C6964200E
:109C50006E65787420707472000000004173736543
:109C60007274696F6E2022257322206661696C65AB
:109C700064206174206C696E6520256420696E2003
:109C800025730A00540000246D656D5F6D616C6C76
:109C90006F633A20216C667265652D3E757365644D
:109CA000000000006D656D5F6D616C6C6F633A2044
:109CB000616C6C6F6361746564206D656D6F727942
:109CC000206E6F742061626F76652072616D5F65D2
:109CD0006E642E006D656D5F6D616C6C6F633A2014
:109CE000616C6C6F6361746564206D656D6F727912
:109CF0002070726F7065726C7920616C69676E6537
:109D0000642E00006D656D5F6D616C6C6F633A2051
:109D100073616E69747920636865636B20616C6937
:109D2000676E6D656E740000014602480088081A6F
:109D300080B27047500000242DE9F84F81468B46D1
:109D40000BF1030020F0030085B20C2D00D20C258E
:109D5000B5F5C86F01D85D4502DA0020BDE8F88F7F
:109D600000BF56480068814503D3554800688145C7
:109D700008D300BF53A340F2D1225EA163A0FCF739
:109D800021FC00BF00BF4D480068814503D34C480B
:109D90000068814503D300BF00BF4846DEE7A9F154
:109DA00008063046FFF7C0FF07463188C81B083851
:109DB0001FFA80FA00BF554508DD00BF41A34FF4EC
:109DC00039725CA151A0FCF7FDFB00BF00BF5545F7
:109DD00001DD0020C2E7554501D14846BEE7308885
:109DE00002F034F804462079002833D100BF3088CF
:109DF000B0F5C86F08D100BF32A340F2F52255A1DB
:109E000042A0FCF7DFFB00BF00BF2088009007F1F5
:109E1000080028441FFA80F853480068A04204D183
:109E2000404602F013F850490860404602F00EF830
:109E3000044600202071009820806780A6F80080EA
:109E40002088B0F5C86F04D0208801F0FFFFA0F88B
:109E5000028031E005F1140050452DD807F10800CB
:109E600028441FFA80F800BF3088B0F5C86F08D1C9
:109E700000BF14A340F2163236A124A0FCF7A2FBC7
:109E800000BF00BF404601F0E1FF044636480068CD
:109E9000844201D234480460002020713088208040
:109EA0006780A6F800802088B0F5C86F04D02088AD
:109EB00001F0CCFFA0F8028048464FE75000002494
:109EC000540000242E2E2F4D6964646C65776172F6
:109ED00065732F54686972645F50617274792F4C96
:109EE0007749502F7372632F636F72652F6D656DA5
:109EF0002E6300006D656D5F7472696D3A206C654C
:109F000067616C206D656D6F7279000041737365D8
:109F10007274696F6E2022257322206661696C65F8
:109F200064206174206C696E6520256420696E2050
:109F300025730A006D656D5F7472696D2063616ED3
:109F4000206F6E6C7920736872696E6B206D656D21
:109F50006F727900696E76616C6964206E657874E1
:109F600020707472000000005800002470B5044690
:109F70000D4600BF092C09DB00BF0AA34FF4D572C0
:109F800014A11BA0FCF71EFB00BF70BD00BF05B9EC
:109F9000FBE7214951F824002946FCF75BFC00BF90
:109FA000F3E700002E2E2F4D6964646C65776172B3
:109FB00065732F54686972645F50617274792F4CB5
:109FC0007749502F7372632F636F72652F6D656DC4
:109FD000702E63006D656D705F667265653A207402
:109FE000797065203C204D454D505F4D4158000033
:109FF000417373657274696F6E2022257322206627
:10A0000061696C6564206174206C696E65202564EB
:10A0100020696E2025730A005823010870B5044694
:10A020000D4600BF002C08D100BF09A340F29512D5
:10A0300013A118A0FCF7C6FA00BF00BF04B105B910
:10A0400070BD29462046FCF705FC00BFF8E700007C
:10A050002E2E2F4D6964646C6577617265732F5481
:10A06000686972645F50617274792F4C7749502F20
:10A070007372632F636F72652F6D656D702E630051
:10A08000696E76616C696420706F6F6C20646573B3
:10A0900063000000417373657274696F6E2022253E
:10A0A0007322206661696C6564206174206C696E3E
:10A0B0006520256420696E2025730A0010B50024F0
:10A0C00006E0054951F8240000F008F8601C84B24D
:10A0D000092CF6D310BD00005823010810B5002349
:10A0E000846823604368DB1C23F00301002207E03F
:10A0F00083681B680B608368196003881944521CCD
:10A1000043889342F4DC10BD70B5044600BF092CAF
:10A110000ADB00BF09A340F2571214A11BA0FCF7F1
:10A1200051FA00BF002070BD00BF224951F8240041
:10A13000FCF7E6FB05462846F5E700002E2E2F4DDE
:10A140006964646C6577617265732F5468697264C1
:10A150005F50617274792F4C7749502F7372632F5F
:10A16000636F72652F6D656D702E63006D656D7028
:10A170005F6D616C6C6F633A2074797065203C2070
:10A180004D454D505F4D41580000000041737365CF
:10A190007274696F6E2022257322206661696C6576
:10A1A00064206174206C696E6520256420696E20CE
:10A1B00025730A005823010810B5044600BF002C7F
:10A1C00008D100BF07A34FF49E7212A116A0FCF79E
:10A1D000F9F900BF00BF0CB9002010BD2046FCF704
:10A1E0008FFBFAE72E2E2F4D6964646C65776172E0
:10A1F00065732F54686972645F50617274792F4C73
:10A200007749502F7372632F636F72652F6D656D81
:10A21000702E6300696E76616C696420706F6F6C7C
:10A220002064657363000000417373657274696F25
:10A230006E2022257322206661696C65642061743A
:10A24000206C696E6520256420696E2025730A00E4
:10A250002DE9F05F04460E4617469846DDE90AB937
:10A2600000BF002C0BD100BF4AA340F2271256A119
:10A270005CA0FCF7A7F900BF0020BDE8F09F00BF7D
:10A2800000BFB9F1000F0AD100BF42A34FF494728E
:10A290005EA154A0FCF796F900BF0020EDE700BFD7
:10A2A00006B9634E07B9624FB8F1000F01D1DFF86C
:10A2B000808100206060A060E0605E4860610020F6
:10A2C000A08484F82D00E0616063A063C4F820B02E
:10A2D0005948007884F830000C98206143463A468B
:10A2E0003146204600F03AFB2046C84708B100201E
:10A2F000C3E700BF94F83000FF2802D1002084F8A3
:10A3000030004FF0000A4D48056829E000BFA54223
:10A3100008D100BF1FA340F28B1249A131A0FCF766
:10A3200051F900BF00BF0AF1010A00BFBAF1FF0FE7
:10A3300008DD00BF17A340F28D1246A129A0FCF74B
:10A3400041F900BF00BF95F8300094F83010884202
:10A3500005D194F83000401C84F8300002E02D68EC
:10A36000002DD3D100BF002DC4D194F83000FE28B9
:10A3700003D100203049087004E094F83000401CFC
:10A380002D4908702D48006820602C480460204644
:10A3900073E700002E2E2F4D6964646C657761723F
:10A3A00065732F54686972645F50617274792F4CC1
:10A3B0007749502F7372632F636F72652F6E6574C8
:10A3C00069662E63000000006E657469665F6164F3
:10A3D000643A20696E76616C6964206E65746966A2
:10A3E00000000000417373657274696F6E2022254E
:10A3F0007322206661696C6564206174206C696EEB
:10A400006520256420696E2025730A006E657469D5
:10A41000665F6164643A204E6F20696E69742066DD
:10A42000756E6374696F6E20676976656E000000F3
:10A43000E823010855A900088800002480000024B2
:10A440006E6574696620616C72656164792061640F
:10A4500064656400746F6F206D616E79206E657441
:10A460006966732C206D61782E20737570706F7221
:10A47000746564206E756D62657220697320323573
:10A480003500000070B504460D462946204603F00D
:10A4900003FD2946204607F0E9FE70BD10B50346CE
:10A4A0000868DC68A04201D1012000E0002030B93A
:10A4B00009B9002000E00868D860012010BD002024
:10A4C000FCE70000F8B505460C46164600BF002C18
:10A4D00008D100BF18A340F2CB1224A127A0FCF79B
:10A4E00071F800BF00BF00BF46B900BF12A34FF410
:10A4F000E6721EA121A0FCF765F800BF00BF20682E
:10A500006968884201D1012000E0002090B92068EC
:10A5100000906868306069463046FFF7B3FF0CB9B9
:10A52000002000E0206868600121284600F086F8DD
:10A530000120F8BD0020FCE72E2E2F4D6964646CCD
:10A540006577617265732F54686972645F506172D8
:10A5500074792F4C7749502F7372632F636F726534
:10A560002F6E657469662E6300000000696E766167
:10A570006C696420706F696E7465720041737365F5
:10A580007274696F6E2022257322206661696C6582
:10A5900064206174206C696E6520256420696E20DA
:10A5A00025730A0010B5034608689C68A04201D1D3
:10A5B000012000E0002030B909B9002000E008685F
:10A5C0009860012010BD0020FCE7000002466AB13F
:10A5D0000748016808E091F83000401CC0B2904282
:10A5E00001D10846704709680029F4D10020F9E735
:10A5F0008000002400B587B00C4804900690FF202E
:10A6000005900B480B49002204ABCDE900210290D4
:10A6100005AA06A90848FFF71BFE074800F0A4FAA0
:10A62000054800F00BFB07B000BD00007F000001F3
:10A63000F5830008A1A80008307B002470B504460B
:10A640000D4600BF002C08D100BF12A340F26D32AE
:10A650001DA126A0FBF7B6FF00BF00BF94F82D0098
:10A6600000F0040020B194F82D0000F0010000B9C2
:10A6700070BD05F0010050B1606840B194F82D0044
:10A6800000F0080018B1211D2046FCF7CBFF00BFE9
:10A69000EEE700002E2E2F4D6964646C65776172C1
:10A6A00065732F54686972645F50617274792F4CBE
:10A6B0007749502F7372632F636F72652F6E6574C5
:10A6C00069662E63000000006E657469665F6973D9
:10A6D0007375655F7265706F7274733A20696E7618
:10A6E000616C6964206E657469660000417373650E
:10A6F0007274696F6E2022257322206661696C6511
:10A7000064206174206C696E6520256420696E2068
:10A7100025730A002DE9F04104460F4600BF002CC6
:10A7200008D100BF26A340F24B4232A13AA0FBF76A
:10A7300049FF00BF00BF00BF002F08D100BF20A30A
:10A7400040F24C423EA134A0FBF73CFF00BF00BFEB
:10A7500039894FF420720E2000F04EFB05461DB9DA
:10A760004FF0FF30BDE8F0813946284600F026FE64
:10A77000B0F1000804D0284600F0D4FF4046F1E7CD
:10A780002E4600E0366830680028FBD1606B002858
:10A7900011D000BFA06B002808D100BF08A340F271
:10A7A00077422FA11CA0FBF70DFF00BF00BFA06BDD
:10A7B0000560A66301E06563A6630020D2E70000A0
:10A7C0002E2E2F4D6964646C6577617265732F540A
:10A7D000686972645F50617274792F4C7749502FA9
:10A7E0007372632F636F72652F6E657469662E6373
:10A7F000000000006E657469665F6C6F6F705F6F5C
:10A8000075747075743A20696E76616C6964206E37
:10A810006574696600000000417373657274696F46
:10A820006E2022257322206661696C656420617444
:10A83000206C696E6520256420696E2025730A00EE
:10A840006E657469665F6C6F6F705F6F757470753D
:10A85000743A20696E76616C696420706275660076
:10A86000696620666972737420213D204E554C4CF8
:10A870002C206C617374206D75737420616C736F20
:10A8800020626520213D204E554C4C0070B5044699
:10A890000D46164629462046FFF73CFF70BD0000D6
:10A8A00010B5044600BF002C07D100BF08A39922B1
:10A8B00014A11DA0FBF786FE00BF00BF6C2084F82A
:10A8C0002E006F212F20015521486061002010BD0E
:10A8D0002E2E2F4D6964646C6577617265732F54F9
:10A8E000686972645F50617274792F4C7749502F98
:10A8F0007372632F636F72652F6E657469662E6362
:10A90000000000006E657469665F6C6F6F70696649
:10A910005F696E69743A20696E76616C6964206E55
:10A920006574696600000000417373657274696F35
:10A930006E2022257322206661696C656420617433
:10A94000206C696E6520256420696E2025730A00DD
:10A950008DA8000803466FF00B0070472DE9F84FF3
:10A9600080460C4615461E464FF00009CA4604B9FB
:10A97000114C05B9104D06B90F4E0CB1206808B93D
:10A98000012000E00020074627B16A4621464046E4
:10A99000FFF798FD4A4629464046FFF703FE524618
:10A9A00031464046FFF77AFD27B96A4621464046C0
:10A9B000FFF788FDBDE8F88FE8230108014908602A
:10A9C000704700008400002410B5044600BF002C2E
:10A9D00009D100BF10A340F29B321CA123A0FBF7BA
:10A9E000F1FD00BF10BD00BF94F82D0000F0010084
:10A9F00078B100BF94F82D0000F0FE0084F82D001F
:10AA000000BF94F82D0000F0080010B12046FBF7BD
:10AA1000D1FF00BFE6E700002E2E2F4D6964646C65
:10AA20006577617265732F54686972645F506172F3
:10AA300074792F4C7749502F7372632F636F72654F
:10AA40002F6E657469662E63000000006E65746980
:10AA5000665F7365745F646F776E3A20696E7661C6
:10AA60006C6964206E6574696600000041737365EB
:10AA70007274696F6E2022257322206661696C658D
:10AA800064206174206C696E6520256420696E20E5
:10AA900025730A0000B1C1617047000010B504467B
:10AAA00000BF002C09D100BF0FA340F206421BA13A
:10AAB00023A0FBF787FD00BF10BD00BF94F82D0059
:10AAC00000F0040070B100BF94F82D0000F0FB000E
:10AAD00084F82D0000BF00BFE06910B12046E16995
:10AAE000884700BF00BFE7E72E2E2F4D6964646CD6
:10AAF0006577617265732F54686972645F50617223
:10AB000074792F4C7749502F7372632F636F72657E
:10AB10002F6E657469662E63000000006E657469AF
:10AB2000665F7365745F6C696E6B5F646F776E3AB6
:10AB300020696E76616C6964206E657469660000D8
:10AB4000417373657274696F6E20222573222066CB
:10AB500061696C6564206174206C696E6520256490
:10AB600020696E2025730A0010B5044600BF002C32
:10AB700009D100BF11A34FF478721DA125A0FBF7E6
:10AB800021FD00BF10BD00BF94F82D0000F00400AF
:10AB900090B900BF94F82D0040F0040084F82D0017
:10ABA00000BF03212046FFF749FD00BFE06910B157
:10ABB0002046E169884700BF00BFE3E72E2E2F4DF6
:10ABC0006964646C6577617265732F546869726437
:10ABD0005F50617274792F4C7749502F7372632FD5
:10ABE000636F72652F6E657469662E6300000000E6
:10ABF0006E657469665F7365745F6C696E6B5F75B3
:10AC0000703A20696E76616C6964206E657469665D
:10AC100000000000417373657274696F6E20222515
:10AC20007322206661696C6564206174206C696EB2
:10AC30006520256420696E2025730A0010B504463E
:10AC400000BF002C09D100BF0EA34FF454721AA10B
:10AC500020A0FBF7B7FC00BF10BD00BF94F82D008B
:10AC600000F0010058B900BF94F82D0040F0010039
:10AC700084F82D0000BF03212046FFF7DFFC00BF52
:10AC8000EAE700002E2E2F4D6964646C65776172CF
:10AC900065732F54686972645F50617274792F4CC8
:10ACA0007749502F7372632F636F72652F6E6574CF
:10ACB00069662E63000000006E657469665F7365E7
:10ACC000745F75703A20696E76616C6964206E6598
:10ACD00074696600417373657274696F6E20222512
:10ACE0007322206661696C6564206174206C696EF2
:10ACF0006520256420696E2025730A0070B504461E
:10AD00000D4600222946204600F002F870BD0000E2
:10AD10002DE9F04704460D46904600BF44B900BFF8
:10AD20001CA340F2DF1227A129A0FBF74BFC00BFB8
:10AD300000BF14B1B5F5803F02D30120BDE8F08714
:10AD40000DB90020FAE7AEB22089304480B2B0429B
:10AD500001DA0120F2E794F80C9009F0800038B194
:10AD60006068471B04F11000874209D20120E5E723
:10AD7000B8F1000F02D06068471B01E00120DDE759
:10AD800067606089304460812089304420810020E0
:10AD9000D4E700002E2E2F4D6964646C65776172D4
:10ADA00065732F54686972645F50617274792F4CB7
:10ADB0007749502F7372632F636F72652F706275BE
:10ADC000662E63007020213D204E554C4C00000043
:10ADD000417373657274696F6E2022257322206639
:10ADE00061696C6564206174206C696E65202564FE
:10ADF00020696E2025730A002DE9FE4F82460E461B
:10AE000090465746B8F1010F0AD0B8F1410F06D06D
:10AE1000B8F5C17F0BD0B8F5207F7DD16AE000BFC7
:10AE200042463146002000F037F90446AEE00024E7
:10AE300000200290B14600BF0820FFF765F90546E3
:10AE400045B900F093FD14B1204600F06BFC0020E2
:10AE5000BDE8FE8FF81C20F00300C0F5147080B22E
:10AE6000484501DD484605E0F81C20F00300C0F528
:10AE7000147080B283460020CDE9008005F11000F7
:10AE80003844C01C20F003015B464A46284600F0C7
:10AE90005DFD00BF287900F00300002808D000BF46
:10AEA0003CA34FF4807247A152A0FBF78BFB00BF7D
:10AEB00000BF00BFF81C20F00300C0F5147000288C
:10AEC00008D100BF33A34FF4817254A149A0FBF70E
:10AED00079FB00BF00BF0CB92C4601E00298056069
:10AEE0000295A9EB0B001FFA80F90027B9F1000FBA
:10AEF000A2DC4BE0F81C20F00301F01C20F0030062
:10AF0000084485B205F110001FFA80F9F01C20F00A
:10AF10000300A84206D800E02BE0F01C20F003005C
:10AF2000484501D9002093E74846FEF7A9FD0446AD
:10AF30000CB900208CE70020CDE9008004F110005E
:10AF40003844C01C20F0030133463246204600F04E
:10AF5000FDFC00BF207900F0030040B100BF0DA34D
:10AF60004FF491723AA123A0FBF72CFB00BF00BF66
:10AF70000CE000BF00BF07A340F227123FA11DA0B5
:10AF8000FBF720FB00BF00BF002061E700BF2046A9
:10AF90005EE700002E2E2F4D6964646C6577617248
:10AFA00065732F54686972645F50617274792F4CB5
:10AFB0007749502F7372632F636F72652F706275BC
:10AFC000662E6300706275665F616C6C6F633A2019
:10AFD0007062756620712D3E7061796C6F616420BE
:10AFE00070726F7065726C7920616C69676E6564F0
:10AFF00000000000417373657274696F6E20222532
:10B000007322206661696C6564206174206C696ECE
:10B010006520256420696E2025730A00504255463C
:10B020005F504F4F4C5F42554653495A45206D750E
:10B030007374206265206269676765722074686155
:10B040006E204D454D5F414C49474E4D454E540095
:10B05000706275665F616C6C6F633A2070627566D2
:10B060002D3E7061796C6F61642070726F706572D3
:10B070006C7920616C69676E65640000706275664A
:10B080005F616C6C6F633A206572726F6E656F758D
:10B0900073207479706500002DE9FC4107460D4668
:10B0A000144600BF412C0AD0012C08D000BF0EA3CB
:10B0B0004FF4A57218A11DA0FBF784FA00BF00BFD2
:10B0C0000720FFF721F8064616B90020BDE8FC81ED
:10B0D00000202B462A463946CDE90040304600F094
:10B0E00035FC3046F2E700002E2E2F4D6964646C6B
:10B0F0006577617265732F54686972645F5061721D
:10B1000074792F4C7749502F7372632F636F726578
:10B110002F706275662E6300696E76616C696420BB
:10B12000706275665F7479706500000041737365C5
:10B130007274696F6E2022257322206661696C65C6
:10B1400064206174206C696E6520256420696E201E
:10B1500025730A002DE9FC5F05460C461746984604
:10B16000DDE90C9BAA460AF1030020F0030020440D
:10B17000584502D90020BDE8FC9FB9F1000F06D068
:10B180000AF1030020F0030000EB090600E00026AE
:10B190000220234622463146CDE90070404600F0A9
:10B1A000D5FB4046E7E7000070B506460D4600BFF8
:10B1B0000EB1002D09D100BF1BA340F2593226A1C8
:10B1C00033A0FBF7FFF900BF70BD00BF344604E0B9
:10B1D0002089298908442081246820680028F7D123
:10B1E00000BF20896189884208D000BF0EA340F2C9
:10B1F000623231A126A0FBF7E5F900BF00BF00BF16
:10B20000206840B100BF08A340F2633236A120A0FD
:10B21000FBF7D8F900BF00BF2089298908442081A5
:10B22000256000BFD0E700002E2E2F4D6964646CAE
:10B230006577617265732F54686972645F506172DB
:10B2400074792F4C7749502F7372632F636F726537
:10B250002F706275662E6300286820213D204E55B0
:10B260004C4C2920262620287420213D204E554C68
:10B270004C29202870726F6772616D6D657220763F
:10B28000696F6C61746573204150492900000000AA
:10B29000417373657274696F6E2022257322206674
:10B2A00061696C6564206174206C696E6520256439
:10B2B00020696E2025730A00702D3E746F745F6CD8
:10B2C000656E203D3D20702D3E6C656E20286F66BA
:10B2D000206C617374207062756620696E206368EB
:10B2E00061696E2900000000702D3E6E6578742043
:10B2F0003D3D204E554C4C000146002002E0421CD2
:10B3000090B209680029FAD1704700002DE9F04198
:10B3100080460E461446218932464046FFF76CFDB2
:10B32000074617B90020BDE8F0812146384600F0F5
:10B3300045F8054600BF45B100BF05A340F22452C1
:10B340000FA114A0FBF73EF900BF00BF3846EAE7A3
:10B350002E2E2F4D6964646C6577617265732F546E
:10B36000686972645F50617274792F4C7749502F0D
:10B370007372632F636F72652F706275662E630040
:10B38000706275665F636F7079206661696C656471
:10B3900000000000417373657274696F6E2022258E
:10B3A0007322206661696C6564206174206C696E2B
:10B3B0006520256420696E2025730A002DE9F0417F
:10B3C00005460C460026002700BF25B11CB1288980
:10B3D000218988420CDA00BF44A340F2C9324FA150
:10B3E0005AA0FBF7EFF800BF6FF00F00BDE8F08147
:10B3F00000BF00BF6889801B6189C91B884203D3D5
:10B400006089A0EB070802E06889A0EB0608626883
:10B41000D1196A6890194246F4F7A0FF46444744A0
:10B4200000BF6889B04208D200BF30A340F2D932D1
:10B4300050A146A0FBF7C6F800BF00BF00BF60895F
:10B44000B84208D200BF29A340F2DA324FA13FA090
:10B45000FBF7B8F800BF00BF6089B84201D80027E9
:10B4600024686889B04211D100262D6800BF65B9F3
:10B470005CB100BF1DA34FF479724BA133A0FBF761
:10B48000A1F800BF6FF00F00B0E700BF002C13D091
:10B490006089218988420FD100BF206858B100BF60
:10B4A00012A340F2E93244A128A0FBF78BF800BFB9
:10B4B0006FF005009AE700BF002D13D06889298935
:10B4C00088420FD100BF286858B100BF07A340F2DF
:10B4D000EE3239A11DA0FBF775F800BF6FF0050033
:10B4E00084E700BF002C85D100207FE72E2E2F4D52
:10B4F0006964646C6577617265732F5468697264FE
:10B500005F50617274792F4C7749502F7372632F9B
:10B51000636F72652F706275662E63007062756668
:10B520005F636F70793A20746172676574206E6F23
:10B53000742062696720656E6F75676820746F207C
:10B54000686F6C6420736F75726365004173736517
:10B550007274696F6E2022257322206661696C65A2
:10B5600064206174206C696E6520256420696E20FA
:10B5700025730A006F66667365745F746F203C3DC7
:10B5800020705F746F2D3E6C656E00006F66667391
:10B5900065745F66726F6D203C3D20705F66726FF0
:10B5A0006D2D3E6C656E0000705F746F20213D2034
:10B5B0004E554C4C00000000706275665F636F7002
:10B5C00079282920646F6573206E6F7420616C6C1C
:10B5D0006F77207061636B65742071756575657335
:10B5E000210000002DE9F05F8046894616461D4681
:10B5F0004FF0000AD34600BFB8F1000F0BD100BFD7
:10B6000021A340F20A422CA133A0FAF7DBFF00BFCE
:10B610000020BDE8F09F00BF00BFB9F1000F0AD1C4
:10B6200000BF19A340F20B4235A12BA0FAF7CAFFC5
:10B6300000BF0020EDE700BF444620E035B160893F
:10B64000A84203DC6089281A85B217E06089401B94
:10B6500087B2B74200DD37466268511909EB0A002C
:10B660003A46F4F77BFE0BEB07001FFA80FB0AEB70
:10B6700007001FFA80FAF01B86B2002524680EB17D
:10B68000002CDBD15846C4E72E2E2F4D6964646C24
:10B690006577617265732F54686972645F50617277
:10B6A00074792F4C7749502F7372632F636F7265D3
:10B6B0002F706275662E6300706275665F636F70CF
:10B6C000795F7061727469616C3A20696E76616C41
:10B6D0006964206275660000417373657274696FF6
:10B6E0006E2022257322206661696C656420617476
:10B6F000206C696E6520256420696E2025730A0020
:10B70000706275665F636F70795F70617274696192
:10B710006C3A20696E76616C696420646174617052
:10B72000747200002DE9F0470446002C0ED100BFD2
:10B7300044B900BF35A34FF4377240A142A0FAF7D5
:10B7400041FF00BF00BF0020BDE8F087002658E0A1
:10B7500000BFA07B002808DC00BF2CA340F2F12230
:10B7600043A139A0FAF72EFF00BF00BFA07B401E07
:10B7700000F0FF0884F80E80B8F1000F3FD1276871
:10B78000207B00F00F05607B00F00200002814D041
:10B79000A14600BFD9F81000002808D100BF1BA3A4
:10B7A00040F2FF2238A128A0FAF70CFF00BF00BF2B
:10B7B0002046D9F8101088471DE0022D04D12146FB
:10B7C0000820FEF7D3FB16E0012D04D12146072007
:10B7D000FEF7CCFB0FE01DB92046FEF717F80AE094
:10B7E00000BF00BF09A340F20F3230A116A0FAF744
:10B7F000E9FE00BF00BF701CC6B23C4600E000245A
:10B8000000BF002CA4D130469EE700002E2E2F4D05
:10B810006964646C6577617265732F5468697264DA
:10B820005F50617274792F4C7749502F7372632F78
:10B83000636F72652F706275662E63007020213D04
:10B84000204E554C4C000000417373657274696F53
:10B850006E2022257322206661696C656420617404
:10B86000206C696E6520256420696E2025730A00AE
:10B87000706275665F667265653A20702D3E72650E
:10B8800066203E203000000070632D3E63757374A7
:10B890006F6D5F667265655F66756E6374696F6E06
:10B8A00020213D204E554C4C00000000696E766111
:10B8B0006C696420706275662074797065000000A0
:10B8C00070B50446254629460548FEF7A7FB0548FE
:10B8D0000078012802D100200249087070BD0000E4
:10B8E0009C2201080800002410B500BF0020084970
:10B8F000087000BF0748046806E0606F18B1204672
:10B9000001F06AFB10BDE468002CF6D100BFF9E736
:10B91000890000249C00002470B504460D460122D5
:10B920002946204600F001F870BD70B505460C466A
:10B930001646002C04DA6142284600F021F970BD59
:10B94000324621462846FFF7E3F9F8E770B5DDE90E
:10B9500004450026066041600281438104734573FB
:10B96000012686730026C67370BD000000BF01204B
:10B970000149087000BF7047890000242DE9F0419B
:10B9800006460F4600BF002E08D100BF2CA34FF47F
:10B99000CC7237A13CA0FAF715FE00BF00BF30897A
:10B9A000B84201DCBDE8F0813089C01B1FFA80F885
:10B9B0003D46344613E06089281A85B22089A0EB01
:10B9C00008002081246800BF44B900BF1CA340F2D6
:10B9D000AF1237A12CA0FAF7F5FD00BF00BF6089B8
:10B9E000A842E8DB207B00F00F0000281BD1608913
:10B9F000A84218D0607B00F00200002813D1A08874
:10BA0000001B284481B22046FEF796F9044600BF89
:10BA100044B900BF0AA340F2BD122BA11AA0FAF745
:10BA2000D1FD00BF00BF658160892081206810B111
:10BA30002068FFF777FE0020206000BFB2E700001B
:10BA40002E2E2F4D6964646C6577617265732F5477
:10BA5000686972645F50617274792F4C7749502F16
:10BA60007372632F636F72652F706275662E630049
:10BA7000706275665F7265616C6C6F633A207020EE
:10BA8000213D204E554C4C00417373657274696FB3
:10BA90006E2022257322206661696C6564206174C2
:10BAA000206C696E6520256420696E2025730A006C
:10BAB000706275665F7265616C6C6F633A207120AD
:10BAC000213D204E554C4C006D656D5F7472696D63
:10BAD0002072657475726E65642071203D3D204E44
:10BAE000554C4C0010B50446002C12D000BFA07B72
:10BAF000401CA07300BF00BFA07B002808DC00BF73
:10BB000004A340F242320FA113A0FAF75BFD00BF7D
:10BB100000BF10BD2E2E2F4D6964646C6577617275
:10BB200065732F54686972645F50617274792F4C29
:10BB30007749502F7372632F636F72652F70627530
:10BB4000662E63007062756620726566206F76658A
:10BB500072666C6F77000000417373657274696F71
:10BB60006E2022257322206661696C6564206174F1
:10BB7000206C696E6520256420696E2025730A009B
:10BB80002DE9F04104460D4600BF44B900BF18A39B
:10BB900040F24B2222A125A0FAF714FD00BF00BFFE
:10BBA00014B1B5F5803F02D30120BDE8F0810DB995
:10BBB0000020FAE7AEB200BF6089B0420ADA00BFE7
:10BBC0000BA340F2552223A118A0FAF7FBFC00BFFB
:10BBD0000120EAE700BF6768606828446060608908
:10BBE000801B60812089801B20810020DDE7000010
:10BBF0002E2E2F4D6964646C6577617265732F54C6
:10BC0000686972645F50617274792F4C7749502F64
:10BC10007372632F636F72652F706275662E630097
:10BC20007020213D204E554C4C000000417373653F
:10BC30007274696F6E2022257322206661696C65BB
:10BC400064206174206C696E6520256420696E2013
:10BC500025730A00696E6372656D656E745F6D6150
:10BC6000676E6974756465203C3D20702D3E6C657F
:10BC70006E0000002DE9F041044600BF3B4800681B
:10BC8000844208D200BF3AA340F2DF1244A14AA086
:10BC9000FAF798FC00BF00BF00BF5148006884421B
:10BCA00008D300BF32A34FF4F0724EA142A0FAF7BE
:10BCB00089FC00BF00BF00BF2079002808D000BF6A
:10BCC0002BA340F2E1124EA13BA0FAF77BFC00BF90
:10BCD00000BF00BF2088B0F5C86F08D900BF24A3FB
:10BCE0004FF4F2724DA134A0FAF76CFC00BF00BF14
:10BCF000208800F0ABF80546AC4219D02879B8B9D5
:10BD000037480068854213D04F480068A84201D1E7
:10BD10004D480460288820802888B0F5C86F07D077
:10BD20002046FEF701F80746288800F08FF8478084
:10BD3000608800F08BF80646A64215D0307998B995
:10BD400041480068A04201D13F4806602088308009
:10BD50002088B0F5C86F07D03046FDF7E5FF0746ED
:10BD6000208800F073F84780BDE8F081500000247F
:10BD70002E2E2F4D6964646C6577617265732F5444
:10BD8000686972645F50617274792F4C7749502FE3
:10BD90007372632F636F72652F6D656D2E63000084
:10BDA000706C75675F686F6C65733A206D656D20A8
:10BDB0003E3D2072616D0000417373657274696F5E
:10BDC0006E2022257322206661696C65642061748F
:10BDD000206C696E6520256420696E2025730A0039
:10BDE00054000024706C75675F686F6C65733A204F
:10BDF0006D656D203C2072616D5F656E64000000B2
:10BE0000706C75675F686F6C65733A206D656D2D3A
:10BE10003E75736564203D3D20300000706C756791
:10BE20005F686F6C65733A206D656D2D3E6E657849
:10BE300074203C3D204D454D5F53495A455F414C70
:10BE400049474E454400000058000024014602487E
:10BE50000068084470470000500000242DE9F041BC
:10BE600000F02EF8074600BF00BF1248007808B166
:10BE7000FFF73AFD00BF104804680CB9BDE8F08137
:10BE80006068381AB0F1004F01D3012000E00020B3
:10BE900000B1F3E7084920680860A568E66807492B
:10BEA0006068086021460620FEF760F80DB1304654
:10BEB000A847D9E789000024D4000024D800002432
:10BEC00010B5F6F799FA10BD2DE9F04104460E467B
:10BED000174600BFB4F1804F08D300BF09A340F25A
:10BEE000291215A122A0FAF76DFB00BF00BFFFF7D2
:10BEF000E7FF05193A463146284600F04DF8BDE8FF
:10BF0000F08100002E2E2F4D6964646C657761729C
:10BF100065732F54686972645F50617274792F4C35
:10BF20007749502F7372632F636F72652F74696D39
:10BF3000656F7574732E630054696D656F75742039
:10BF400074696D6520746F6F206C6F6E672C206D47
:10BF50006178206973204C5749505F55494E5433DE
:10BF6000325F4D41582F34206D73656373000000BC
:10BF7000417373657274696F6E2022257322206687
:10BF800061696C6564206174206C696E652025644C
:10BF900020696E2025730A002DE9F04106460F4600
:10BFA00090460620FEF7B0F80446002C0CD100BFE6
:10BFB00007D100BF20A3BE222CA13CA0FAF702FBB0
:10BFC00000BF00BFBDE8F08100202060A760C4F87A
:10BFD0000C8066603F48006810B93E480460F1E795
:10BFE0003C49606809684968401AB0F1004F01D3C4
:10BFF000012000E0002028B1364800682060354864
:10C00000046017E03348056811E0286850B16068A3
:10C0100029684968401AB0F1004F01D3012000E0BF
:10C02000002018B1286820602C6002E02D68002DE7
:10C03000EBD100BF00BFC5E72E2E2F4D6964646CA5
:10C040006577617265732F54686972645F506172BD
:10C0500074792F4C7749502F7372632F636F726519
:10C060002F74696D656F7574732E63007379735FD8
:10C0700074696D656F75743A2074696D656F757458
:10C0800020213D204E554C4C2C20706F6F6C204D64
:10C09000454D505F5359535F54494D454F555420BA
:10C0A000697320656D7074790000000041737365D9
:10C0B0007274696F6E2022257322206661696C6537
:10C0C00064206174206C696E6520256420696E208F
:10C0D00025730A00D400002410B5012408E00649A5
:10C0E00001EBC40251F834000449FFF7EDFE641C73
:10C0F000032CF4D310BD0000CC230108FD950008EB
:10C100002DE9FF5F04460E4600BF002C0AD100BF98
:10C1100042A340F23D224DA153A0FAF753FA00BFCB
:10C12000BDE8FF9F00BF00BF207D012808D100BFF0
:10C130003AA34FF4107256A14BA0FAF743FA00BF8E
:10C1400000BF207D0A2807D121465E4802F068FE24
:10C15000204600F0FBFD5FE04FF0000AD346276D5C
:10C16000D4F82480D4F89050D4F81090207DE8B909
:10C17000E08A38B300BF54480068A04205D1524855
:10C180000068C068504908600DE04F49086806E043
:10C19000C168A14202D1E168C16002E0C068002824
:10C1A000F6D100BF00BF0020E0600BE0B246B4F85B
:10C1B00016B000BF2146454802F032FE0120444936
:10C1C000087000BF206F10B1206F04F028FEE06EF1
:10C1D00010B1E06E04F023FE606F10B1606F04F0E8
:10C1E0001EFEBAF1000F0AD0208B211D23464246C5
:10C1F000CDE9001B02903946204604F015FD207D54
:10C200000390204600F0A2FD00BF1DB16FF00C01AD
:10C210004846A84700BF00BF00BF81E72E2E2F4D24
:10C220006964646C6577617265732F5468697264C0
:10C230005F50617274792F4C7749502F7372632F5E
:10C24000636F72652F7463702E6300007463705F98
:10C250006162616E646F6E3A20696E76616C6964CA
:10C260002070636200000000417373657274696F2F
:10C270006E2022257322206661696C6564206174DA
:10C28000206C696E6520256420696E2025730A0084
:10C29000646F6E27742063616C6C207463705F61DF
:10C2A000626F72742F7463705F6162616E646F6E2F
:10C2B00020666F72206C697374656E2D7063627393
:10C2C00000000000A0000024940000249C00002432
:10C2D000A400002410B5044601212046FFF710FFFA
:10C2E00010BD000070B505460120FDF70DFF0446A6
:10C2F0001CBB00F09FFE01F04DFC0120FDF704FF88
:10C300000446CCB9092001F0DDFB0120FDF7FCFE5D
:10C31000044684B9082001F0D5FB0120FDF7F4FEA6
:10C3200004463CB9284601F099FB0120FDF7ECFEDC
:10C33000044600BF00BF00BF00BF44B39C2120469D
:10C34000F4F733F80C3465724FF48660A4F85800A3
:10C350004000E083A083FF2004F8010C4FF4067036
:10C36000E0840620A0866086C01FA0840120A087EC
:10C3700008480068606108480078A0744FF486603F
:10C38000E0870648A0670648C4F888000C3C2046B1
:10C3900070BD000090000024A6000024ED040108F8
:10C3A00000DD6D0010B5044600BF002C0BD100BFAE
:10C3B0000CA34FF4F47217A11CA0FAF703F900BF05
:10C3C0006FF00F0010BD00BF207D012805D000BF19
:10C3D000608B40F01000608300BF0121204600F018
:10C3E00039F8EFE72E2E2F4D6964646C6577617222
:10C3F00065732F54686972645F50617274792F4C51
:10C400007749502F7372632F636F72652F74637057
:10C410002E6300007463705F636C6F73653A20690C
:10C420006E76616C696420706362000041737365AD
:10C430007274696F6E2022257322206661696C65B3
:10C4400064206174206C696E6520256420696E200B
:10C4500025730A003EB504460D4600BF002C08D1E6
:10C4600000BF55A34FF4AF725FA167A0FAF7AAF817
:10C4700000BF00BF002D56D0207D042802D0207DB3
:10C48000072850D1A06F18B9208DB0F5066F4AD09B
:10C4900000BFA07E00F0100040B900BF46A34FF4DB
:10C4A000B27263A158A0FAF78DF800BF00BF208BCD
:10C4B000E18A221DCDE90021029023462046626ACE
:10C4C000216D04F0B1FB204602F03CFC00BF00BF30
:10C4D0005E480068A04205D15C480068C0685B49BE
:10C4E00008600DE05949086806E0C168A14202D120
:10C4F000E168C16002E0C0680028F6D100BF00BF5B
:10C500000020E06000BF01205149087000BF514881
:10C510000068A04202D105F071FB02E0204600F065
:10C5200015FC00203EBD207D20B1012824D002282A
:10C530003AD12CE0E08AD8B100BF47480068A04259
:10C5400005D145480068C068434908600DE042498C
:10C55000086806E0C168A14202D1E168C16002E05A
:10C56000C0680028F6D100BF00BF0020E06000BF17
:10C57000204600F0EBFB1BE0204601F029FB2146A2
:10C58000364802F04DFC204600F0D8FC10E000BF19
:10C5900021462E4802F044FC01202D49087000BFBE
:10C5A000204600F0D3FB03E0204600F059F8B9E73D
:10C5B00000BF0020B6E700002E2E2F4D6964646C8A
:10C5C0006577617265732F54686972645F50617238
:10C5D00074792F4C7749502F7372632F636F726594
:10C5E0002F7463702E6300007463705F636C6F73ED
:10C5F000655F73687574646F776E3A20696E7661F3
:10C600006C69642070636200417373657274696F52
:10C610006E2022257322206661696C656420617436
:10C62000206C696E6520256420696E2025730A00E0
:10C630007063622D3E666C61677320262054465FEE
:10C640005258434C4F534544000000009C000024C6
:10C65000A4000024D00000249400002498000024AA
:10C6600070B5054600BF45B900BF1EA34FF4CE729A
:10C6700028A12BA0F9F7A6FF00BF00BF287D032843
:10C6800004D004280AD0072818D10FE0284604F067
:10C6900073FC04460CB90520287511E0284604F007
:10C6A0006BFC04460CB90520287509E0284604F007
:10C6B00063FC04460CB90920287501E0002070BD18
:10C6C00000BF1CB9284601F063FD09E0601C38B9C1
:10C6D00000BF688B40F00800688300BF0020EEE7D1
:10C6E0002046ECE72E2E2F4D6964646C65776172ED
:10C6F00065732F54686972645F50617274792F4C4E
:10C700007749502F7372632F636F72652F74637054
:10C710002E63000070636220213D204E554C4C007A
:10C72000417373657274696F6E20222573222066CF
:10C7300061696C6564206174206C696E6520256494
:10C7400020696E2025730A002DE9F05F80460D46B2
:10C7500091469A460A9F00BFB8F1000F07D100BF6B
:10C7600040A3A3224CA154A0F9F72CFF00BF00BFA7
:10C7700000BF002D07D100BF3AA3A42258A14EA0AC
:10C78000F9F720FF00BF00BF07F0010008B1042047
:10C7900000E0002007F0020109B1002100E00021C3
:10C7A000084407F0080109B1002100E00021084415
:10C7B00007F0100109B1002100E000214618032014
:10C7C000FDF7A2FC041E05D12846FEF7ABFF0020B2
:10C7D000BDE8F09FA77200202060656000BF288937
:10C7E000B04207DA00BF1FA3B02246A132A0F9F77A
:10C7F000E9FE00BF00BF2889801B20811421284644
:10C80000FEF77CFA20B1204604F0FCFA0020DFE7B6
:10C8100060684068E060B8F81600FCF724FFE16843
:10C820000880B8F81800FCF71EFFE1684880504601
:10C83000FCF70CFFE1684860B346F11706EB917115
:10C840008910491D4FF6FF7202EA013141EA0900E1
:10C85000FCF709FFE16888810020E16848822046F2
:10C86000B6E700002E2E2F4D6964646C6577617207
:10C8700065732F54686972645F50617274792F4CCC
:10C880007749502F7372632F636F72652F746370D3
:10C890005F6F75742E6300007463705F637265610F
:10C8A00074655F7365676D656E743A20696E766155
:10C8B0006C69642070636200417373657274696FA0
:10C8C0006E2022257322206661696C656420617484
:10C8D000206C696E6520256420696E2025730A002E
:10C8E0007463705F6372656174655F7365676D65BE
:10C8F0006E743A20696E76616C6964207062756648
:10C9000000000000702D3E746F745F6C656E203EF9
:10C910003D206F70746C656E000000002DE9F041E1
:10C9200006460D46174600BF002F08D100BF10A3D2
:10C9300040F6C5021AA124A0F9F744FE00BF00BFCB
:10C9400015B93046BDE8F081AC8C74B12820844222
:10C9500002DD211A89B200E000218846464501DA4D
:10C96000314600E041460E4600BF3046EAE700008F
:10C970002E2E2F4D6964646C6577617265732F5438
:10C98000686972645F50617274792F4C7749502FD7
:10C990007372632F636F72652F7463702E63000070
:10C9A0007463705F6566665F73656E645F6D7373F5
:10C9B0005F6E657469663A20696E76616C696420A1
:10C9C0006473745F69700000417373657274696F9A
:10C9D0006E2022257322206661696C656420617473
:10C9E000206C696E6520256420696E2025730A001D
:10C9F0002DE9F84304460D460027B94600BF05F06F
:10CA0000030040B900BF60A340F211426B496CA023
:10CA1000F9F7D8FD00BF00BF00BF002C08D100BF50
:10CA200059A340F2134270A165A0F9F7CBFD00BFF6
:10CA300000BF05F0020000B1012707F0010008B1B6
:10CA4000042000E0002007F0020109B1002100E00D
:10CA50000021084407F0080109B1002100E000218D
:10CA6000084407F0100109B1002100E0002100EBAB
:10CA700001094FF4207249463620FEF7BDF9B0F1A6
:10CA8000000809D100BF608B40F08000608300BFC8
:10CA90004FF0FF30BDE8F88300BFB8F80A00484502
:10CAA00008DA00BF38A340F2394257A144A0F9F791
:10CAB00089FD00BF00BF00972A4641462046E36D2E
:10CAC000FFF742FE061E07D100BF608B40F08000DA
:10CAD000608300BF701EDDE700BF307B00F0030005
:10CAE00040B100BF28A340F2424256A134A0F9F75A
:10CAF00069FD00BF00BF00BF308940B100BF22A365
:10CB000040F2434255A12EA0F9F75CFD00BF00BFE3
:10CB1000E06E08B9E66607E0E06E00E000680168D4
:10CB20000029FBD1066000BF0020A4F8680005F0D2
:10CB3000020010B905F0010010B1E06D401CE06585
:10CB400005F0010028B100BF608B40F02000608339
:10CB500000BF7068FEF7D0FB34F8661F08442080E1
:10CB600034F8660970B100BF206F50B9E06E40B96B
:10CB700000BF05A340F2654243A111A0F9F722FDD1
:10CB800000BF00BF002085E72E2E2F4D6964646C26
:10CB90006577617265732F54686972645F50617262
:10CBA00074792F4C7749502F7372632F636F7265BE
:10CBB0002F7463705F6F75742E630000AC240108DE
:10CBC000417373657274696F6E202225732220662B
:10CBD00061696C6564206174206C696E65202564F0
:10CBE00020696E2025730A007463705F656E71752D
:10CBF0006575655F666C6167733A20696E76616C16
:10CC000069642070636200007463705F656E7175A3
:10CC10006575655F666C6167733A20636865636B11
:10CC2000207468617420666972737420706275661E
:10CC30002063616E20686F6C64206F70746C656E29
:10CC4000000000007365672D3E7463706864722095
:10CC50006E6F7420616C69676E6564007463705FE9
:10CC6000656E71756575655F666C6167733A20699D
:10CC70006E76616C6964207365676D656E74206C97
:10CC8000656E6774680000007463705F656E71752F
:10CC90006575655F666C6167733A20696E76616C75
:10CCA0006964207175657565206C656E67746800D0
:10CCB00070B523480078401C2149087000BF214806
:10CCC000046839E0A07F1E490978884233D01C48A7
:10CCD0000078A077A07E00F0010078B100BF608BE3
:10CCE00040F00200608300BF204601F051FA00BF0F
:10CCF000608B4FF6FC710840608300BFA07E00F09F
:10CD0000080048B100BF608B4FF6F77108406083A0
:10CD100000BF2046FFF7A4FCE568A06F48B10020E3
:10CD200009490870204602F009FD0748007800B163
:10CD3000C5E72C4600E0E468002CC3D170BD0000BC
:10CD4000A60000249C000024A400002410B5044682
:10CD500000BF207D012807D100BF06A3D42211A166
:10CD600015A0F9F72FFC00BF00BF21460120FDF7F9
:10CD7000FDF810BD2E2E2F4D6964646C65776172CD
:10CD800065732F54686972645F50617274792F4CB7
:10CD90007749502F7372632F636F72652F746370BE
:10CDA0002E6300007463705F667265653A204C49BB
:10CDB0005354454E00000000417373657274696FEF
:10CDC0006E2022257322206661696C65642061747F
:10CDD000206C696E6520256420696E2025730A0029
:10CDE0002DE9F04705460C469146984635E0264623
:10CDF00024687068FEF780FA074600BFB5F8660041
:10CE0000B84208DA00BF22A340F257422DA137A052
:10CE1000F9F7D8FB00BF00BF35F8660FC01B2880AC
:10CE200030893C49098808443A490880304603F073
:10CE3000E9FF35F8660900280FD000BF002C0BD1A0
:10CE4000B8F1000F08D100BF11A340F2614232A136
:10CE500026A0F9F7B7FB00BF00BFB4B1E16848688E
:10CE6000FCF7F4FB8246E1688889FCF7FCFB00F0E4
:10CE7000030008B1012000E000202189084450444B
:10CE80002D490968401A0028B1DD2046BDE8F08729
:10CE90002E2E2F4D6964646C6577617265732F5413
:10CEA000686972645F50617274792F4C7749502FB2
:10CEB0007372632F636F72652F7463705F696E2E78
:10CEC000630000007063622D3E736E645F71756570
:10CED00075656C656E203E3D20706275665F636CA3
:10CEE000656E286E6578742D3E70290041737365F8
:10CEF0007274696F6E2022257322206661696C65E9
:10CF000064206174206C696E6520256420696E2040
:10CF100025730A00C40000247463705F7265636542
:10CF20006976653A2076616C69642071756575650E
:10CF3000206C656E67746800C000002410B504465C
:10CF400000BF207D012807D100BF06A3DF2211A169
:10CF500017A0F9F737FB00BF00BF21460220FDF7FD
:10CF600005F810BD2E2E2F4D6964646C65776172D3
:10CF700065732F54686972645F50617274792F4CC5
:10CF80007749502F7372632F636F72652F746370CC
:10CF90002E6300007463705F667265655F6C697311
:10CFA00074656E3A20214C495354454E00000000F0
:10CFB000417373657274696F6E2022257322206637
:10CFC00061696C6564206174206C696E65202564FC
:10CFD00020696E2025730A0010B50446606F20B1E9
:10CFE000606F03F01CFF0020606710BD0D480188D2
:10CFF0000088401C0B4A10800B48006818B10B4891
:10D000000088814205DA0A48006800F11402505C89
:10D01000704706480078081AC2B203480068805C6E
:10D02000F6E70000B8000024B4000024B200002499
:10D03000AC00002470B50B48046810E0E568A07EE1
:10D0400000F0080048B100BF608B4FF6F771084050
:10D05000608300BF2046FFF703FB2C4600BF002C77
:10D06000ECD170BD9C00002410B5F3F765F9C0F356
:10D070000D0000F540400149088010BD8C000024DF
:10D080002DE9FE4F05468B4600BF002D07D100BF9E
:10D09000E2A38322EEA1F4A0F9F794FA00BF00BF47
:10D0A000FB49686808606889142800DAC8E3F94A0F
:10D0B00011685069FBF710F828B9F648007D00F0B8
:10D0C000F000E02800D1BBE3F14909688889FCF74A
:10D0D000CAFA00138700142F02DB2889B84200DA4D
:10D0E000AEE3A7F11400EC4908800020EB4908608A
:10D0F0006889B84208DBE8480088E9490880394671
:10D100002846FEF73DFD4AE000BF286838B900BF59
:10D11000C2A3C222E3A1D4A0F9F754FA00BF00BF12
:10D1200014212846FEF72CFD6889DD490880DA487D
:10D1300000880988401A1FFA80FAD94801882846D1
:10D14000FEF71EFD28684089504500DA78E328681C
:10D150004068D249086051462868FEF711FD2889C9
:10D16000A0EB0A00288100BF688938B100BFABA3DB
:10D17000DF22D0A1BCA0F9F725FA00BF00BF00BF95
:10D18000288929680989884207D000BFA3A3E02223
:10D19000CBA1B5A0F9F716FA00BF00BF00BFBC498C
:10D1A00009680888FCF75FFAB94909680880B84936
:10D1B00009684888FCF757FAB54909684880B449B6
:10D1C00009684868FCF742FAB14909684860C449EF
:10D1D0000860AF4909688868FCF738FAAC49096803
:10D1E0008860C0490860AA490968C889FCF73BFA09
:10D1F000A7490968C881A64909688889FCF733FAF4
:10D2000000F03F00B84908702889B8490880B6483E
:10D21000007800F0030040B108460088401C0880F8
:10D2200028890988884200DD0AE34FF00009B048E8
:10D23000046873E000BF207D38B900BF77A3FB22EC
:10D24000ACA189A0F9F7BEF900BF00BF00BF207DE7
:10D250000A2807D100BF71A3FC22B0A182A0F9F770
:10D26000B1F900BF00BF00BF207D012807D100BF7A
:10D270006AA3FD22B4A17CA0F9F7A4F900BF00BF06
:10D28000207A50B1217A8348406890F83000401CE1
:10D29000C0B2814201D0A1463FE0208B7C490968A1
:10D2A0000988884237D1E08A7949096849888842E3
:10D2B00031D178496068096988422CD17549206864
:10D2C0004969884227D100BFE068A04208D100BF69
:10D2D00052A340F20D12A6A163A0F9F773F900BFA3
:10D2E00000BFB9F1000F07D0E068C9F80C00804812
:10D2F0000068E0607E48046000BFE068A04208D19A
:10D3000000BF46A340F21512A4A157A0F9F75AF99D
:10D3100000BF00BF04E0A14600BFE468002C89D133
:10D3200000BF002C78D1A848046839E000BF207DF8
:10D330000A2808D000BF39A340F21F12A3A14AA0B7
:10D34000F9F740F900BF00BF207A48B1217A51486F
:10D35000406890F83000401CC0B2814200D01EE00E
:10D36000208B4B4909680988884217D1E08A4849CF
:10D3700009684988884211D146496068096988422C
:10D380000CD1444920684969884207D1204604F0FD
:10D3900081FB2846FEF7C6F9BDE8FE8F00BFE468B2
:10D3A000002CC3D1A146954806681FE0307A50B1E1
:10D3B000317A3848406890F83000401CC0B2814251
:10D3C00001D0B14611E0F08A3149096849888842A4
:10D3D00009D1304930684969884200D108E00EB16E
:10D3E000306800B904E0B14600BFF668002EDDD118
:10D3F00000BF8EB1B9F1000F07D0F068C9F80C007A
:10D400007E480068F0607D480660304600F04AFCC7
:10D410002846FEF787F9BFE7F2E000002E2E2F4DD9
:10D420006964646C6577617265732F5468697264AE
:10D430005F50617274792F4C7749502F7372632F4C
:10D44000636F72652F7463705F696E2E63000000F6
:10D450007463705F696E7075743A20696E76616C82
:10D460006964207062756600417373657274696FD8
:10D470006E2022257322206661696C6564206174C8
:10D48000206C696E6520256420696E2025730A0072
:10D49000AC000024584C0024B0000024B400002448
:10D4A000B2000024702D3E6E65787420213D204E20
:10D4B000554C4C00702D3E6C656E203D3D2030007B
:10D4C000702D3E746F745F6C656E203D3D20702D35
:10D4D0003E6E6578742D3E746F745F6C656E0000EF
:10D4E000BC000024C0000024C8000024C6000024A2
:10D4F0009C0000247463705F696E7075743A2061DB
:10D500006374697665207063622D3E73746174651F
:10D5100020213D20434C4F53454400007463705F0D
:10D52000696E7075743A2061637469766520706302
:10D53000622D3E737461746520213D2054494D4530
:10D540002D574149540000007463705F696E707517
:10D55000743A20616374697665207063622D3E734E
:10D560007461746520213D204C495354454E0000A0
:10D570007463705F696E7075743A207063622D3EDB
:10D580006E65787420213D20706362202862656694
:10D590006F72652063616368652900007463705F62
:10D5A000696E7075743A207063622D3E6E65787492
:10D5B00020213D20706362202861667465722063BB
:10D5C0006163686529000000A00000247463705F37
:10D5D000696E7075743A2054494D452D5741495430
:10D5E000207063622D3E7374617465203D3D20544C
:10D5F000494D452D57414954000000009800002432
:10D60000002C73D0002091490860288908810846C1
:10D6100045608F480068C86000208E4908608E49C8
:10D6200008708E4908808E48007800F0080018B114
:10D63000687B40F001006873A06F80B1204602F063
:10D640007DF80D3028B1A06F48B1864800880028C9
:10D6500005DD608D10B9204603F0EEFBBCE082488A
:10D660000460204601F0C8FC804608F10D00002847
:10D6700016D07948007800F0080090B100BFD4F8C7
:10D68000900028B16FF00D01D4F8902020699047E8
:10D6900000BF2146754801F0C3FB2046FFF756FB4B
:10D6A00099E04FF000086D480088002819DD6B48AC
:10D6B000B0F800A000BFD4F8800038B1524621462F
:10D6C000D4F8803020699847804601E04FF0000888
:10D6D00000BF08F10D0000B97EE000205F4908801E
:10D6E00000BF204600F0D8F808B175E084E0594842
:10D6F0000068A8B300BFA06F50B100BFAFF2E42331
:10D700004FF4F3725AA1AFF2A020F8F75BFF00BF0D
:10D7100000BFA07E00F0100038B14E480068FEF750
:10D7200001F82046FEF7D6FD56E000BFD4F884008D
:10D7300048B100234749D4F884C020690A682146CB
:10D74000E047804607E00023424821460268184629
:10D7500002F0CCFE804600BF08F10D0008B93BE0A6
:10D7600005E0B8F1000F02D03A480068A0673A48D7
:10D77000007800F0200018B3A06F30B1A06F407B9C
:10D7800040F02000A16F48731AE0208DB0F5066FBD
:10D7900002D0208D401C208500BFD4F8840040B109
:10D7A00000231A462146D4F884C02069E047804609
:10D7B00001E04FF0000800BF08F10D0000B90BE0D8
:10D7C000002029490860204600F066F800B103E017
:10D7D000204600F0DDFC00BF0020234908601D4901
:10D7E00008601A48406840B318494868FDF79AFF36
:10D7F00000201649486020E0154909688889FBF730
:10D8000032FF00F00400A8B91148006800881049F0
:10D81000096849881D4ACDE9002102901C4800682A
:10D82000104909884218194B1B1D1A48016800202D
:10D8300003F0FAF92846FDF775FF00BF00BFABE51E
:10D840002846FDF76FFF00BFA6E500006C7B0024B3
:10D85000AC000024CC000024C9000024C400002433
:10D86000C8000024C6000024D00000249C0000242E
:10D870007063622D3E726566757365645F64617482
:10D8800061203D3D204E554C4C000000684C00246A
:10D89000BC000024C000002410B5044600BF002CCA
:10D8A00008D100BF13A340F25A221FA128A0F8F705
:10D8B00089FE00BF00BF3048007800F01000B8B10A
:10D8C000A07E00F0100050B900BFD4F8900028B13D
:10D8D0006FF00E01D4F890202069904700BF2146D8
:10D8E000264801F09DFA2046FFF730FA012010BDCE
:10D8F0000020FCE72E2E2F4D6964646C6577617201
:10D9000065732F54686972645F50617274792F4C2B
:10D910007749502F7372632F636F72652F74637032
:10D920005F696E2E630000007463705F696E7075CE
:10D93000745F64656C617965645F636C6F73653A8D
:10D9400020696E76616C696420706362000000007B
:10D95000417373657274696F6E202225732220668D
:10D9600061696C6564206174206C696E6520256452
:10D9700020696E2025730A00C90000249C00002441
:10D980002DE9F0410446002600BF002C08D100BF5D
:10D9900014A340F6240220A126A0F8F713FE00BF2E
:10D9A00000BF216D481EFBF751FE80464346002212
:10D9B0003146204600F09EFD05461DB94FF0FF3070
:10D9C000BDE8F081334600222946204600F010FFD2
:10D9D000231D22462946204600F08CFE0746384685
:10D9E000EEE700002E2E2F4D6964646C657761723E
:10D9F00065732F54686972645F50617274792F4C3B
:10DA00007749502F7372632F636F72652F74637041
:10DA10005F6F75742E6300007463705F6B65657073
:10DA2000616C6976653A20696E76616C6964207014
:10DA300063620000417373657274696F6E20222502
:10DA40007322206661696C6564206174206C696E64
:10DA50006520256420696E2025730A002DE9F041B8
:10DA600007467F2F01DD7F2000E0384606460EB9CD
:10DA7000BDE8F081701EC6B24FF0000800250F48C7
:10DA8000046813E0607DB04208DB607DB0420CD1D9
:10DA90000B49206A0968081A404506D30849206ADC
:10DAA0000968A1EB00082546667DE468002CE9D1F1
:10DAB00015B12846FEF70EFC00BFD9E79C000024F4
:10DAC000900000242DE9F041054600BF082D0AD042
:10DAD000092D08D000BF13A340F2DD621DA121A0D3
:10DAE000F8F770FD00BF00BF002700262748046834
:10DAF0000EE0207DA8420AD12549206A0968081A4B
:10DB0000B84204D32249206A09680F1A2646E468FD
:10DB1000002CEED11EB100213046FEF7F1FABDE82F
:10DB2000F08100002E2E2F4D6964646C6577617260
:10DB300065732F54686972645F50617274792F4CF9
:10DB40007749502F7372632F636F72652F74637000
:10DB50002E630000696E76616C6964207374617471
:10DB600065000000417373657274696F6E20222531
:10DB70007322206661696C6564206174206C696E33
:10DB80006520256420696E2025730A009C0000240E
:10DB90009000002470B5002600250B4804680BE0B7
:10DBA0000A49206A0968081AB04204D30749206A62
:10DBB00009680E1A2546E468002CF1D115B12846F3
:10DBC000FEF788FB70BD0000A00000249000002438
:10DBD00070B5044600BF44B900BF12A340F2111251
:10DBE0001CA11FA0F8F7EEFC00BF00BF00BF207D06
:10DBF000012808D000BF0BA34FF4897222A118A0FE
:10DC0000F8F7E0FC00BF00BF012507E0244951F808
:10DC100025100868214602F059FD6D1C042DF5D32E
:10DC200070BD00002E2E2F4D6964646C65776172A3
:10DC300065732F54686972645F50617274792F4CF8
:10DC40007749502F7372632F636F72652F746370FF
:10DC50002E63000070636220213D204E554C4C0025
:10DC6000417373657274696F6E202225732220667A
:10DC700061696C6564206174206C696E652025643F
:10DC800020696E2025730A007063622D3E737461F3
:10DC90007465203D3D204C495354454E0000000022
:10DCA000BC2301082DE9FE4305465448007800F0E6
:10DCB000040008B1BDE8FE8300BF002D08D100BFFD
:10DCC0004FA340F281225BA162A0F8F77BFC00BF6A
:10DCD00000BF4A48007800F01000B0B16748006803
:10DCE0000088664909684988654ACDE900210290A3
:10DCF00064480068644909884218614B1B1D6348E9
:10DD00000168284602F090FF75E03C48007800F07A
:10DD1000020000286FD0687DFEF7E4FA044674B96B
:10DD200000BFA86938B14FF0FF320021AB69286904
:10DD30009847804601E06FF00F0800BFBAE75048EF
:10DD40001038406920604E48103800696060E88AE9
:10DD5000E0824A48006800882083032020754948F3
:10DD60000068401C6062606AE062204600F022F9B0
:10DD70000646A66526656664E66542480068401E5C
:10DD8000606528692061E567687A00F00C006072C0
:10DD9000287A207200BF00BF3D480068E0603C4820
:10DDA000046003F05BFE00BF01203A49087000BF29
:10DDB000204600F02FFF31480068C08924F8600F2A
:10DDC00020886080603C201DFAF76EFE8046608EE1
:10DDD000221D4146FEF7A2FD608612212046FEF775
:10DDE00007FE074627B100212046FEF789F961E7C3
:10DDF000204600F0CDF900BF5CE70000C800002419
:10DE00002E2E2F4D6964646C6577617265732F5493
:10DE1000686972645F50617274792F4C7749502F32
:10DE20007372632F636F72652F7463705F696E2EF8
:10DE3000630000007463705F6C697374656E5F6982
:10DE40006E7075743A20696E76616C6964207063D7
:10DE500062000000417373657274696F6E20222541
:10DE60007322206661696C6564206174206C696E40
:10DE70006520256420696E2025730A00AC0000240B
:10DE8000684C0024BC000024C6000024C00000240C
:10DE90009C000024A400002470B506460D46D6B1AF
:10DEA0003068C0B10C480168304600F01BF80B48E0
:10DEB0000168304600F016F86DB1286858B108487E
:10DEC000046806E020683168884201D12868206033
:10DED000E468002CF6D170BD9C000024940000245E
:10DEE000980000242DE9F04105460E46344600BF57
:10DEF000002D08D100BF0CA34FF4106216A123A07F
:10DF0000F8F760FB00BF00BF0AE02068296888427C
:10DF100005D1E7682046FEF7DDF93C4600E0E468FD
:10DF2000002CF2D1BDE8F0812E2E2F4D6964646C77
:10DF30006577617265732F54686972645F506172AE
:10DF400074792F4C7749502F7372632F636F72650A
:10DF50002F7463702E6300007463705F6E65746964
:10DF6000665F69705F616464725F6368616E676554
:10DF7000645F7063626C6973743A20696E76616C79
:10DF80006964206F6C645F616464720041737365DF
:10DF90007274696F6E2022257322206661696C6538
:10DFA00064206174206C696E6520256420696E2090
:10DFB00025730A0010B5044600BF002C08D100BF2D
:10DFC00009A340F6AF0214A11AA0F8F7FBFA00BFAC
:10DFD00000BF224800682249096808441F490860B8
:10DFE0000846006810BD00002E2E2F4D6964646C39
:10DFF0006577617265732F54686972645F506172EE
:10E0000074792F4C7749502F7372632F636F726549
:10E010002F7463702E6300007463705F6E65787494
:10E020005F6973733A20696E76616C69642070630E
:10E0300062000000417373657274696F6E2022255F
:10E040007322206661696C6564206174206C696E5E
:10E050006520256420696E2025730A00A80000242D
:10E060009000002470B505460C4600BF002D08D175
:10E0700000BF25A340F21F4230A13AA0F8F7A2FA50
:10E0800000BF00BFE9688889FBF7EDFA00F00100E6
:10E0900020B1204602F0C3FE002433E013E0E16823
:10E0A0008889FBF7E0FA00F0010038B10120FBF7A6
:10E0B000DAFAE96889890843E9688881264624688C
:10E0C000304602F09FFE4CB1E06840682189084468
:10E0D00029892E4A12681144081AE0D594B128897A
:10E0E0002A4909680844E1684968401A002809DD9E
:10E0F000E068808825490988401A2881298968684C
:10E10000FDF73CFC2C6070BD2E2E2F4D6964646CB5
:10E110006577617265732F54686972645F506172CC
:10E1200074792F4C7749502F7372632F636F726528
:10E130002F7463705F696E2E630000007463705FFC
:10E140006F6F735F696E736572745F7365676D651A
:10E150006E743A20696E76616C69642063736567DA
:10E1600000000000417373657274696F6E20222590
:10E170007322206661696C6564206174206C696E2D
:10E180006520256420696E2025730A00BC000024E8
:10E190002DE9F84F044600BF002C08D100BFA7A30B
:10E1A00040F2E142B2A1B8A0F8F70CFA00BF00BFFC
:10E1B00000BF207D012808D100BFA0A340F2E342A8
:10E1C000BBA1B1A0F8F7FEF900BF00BFC2480068CC
:10E1D000A04202D10020BDE8F88FB4F86000B4F886
:10E1E0004810884202DAB4F8600001E0B4F8480050
:10E1F0008146E56E45B9A07E00F0020018B12046C8
:10E2000002F01AFEE7E710E1221D2146204602F047
:10E21000FBFC074617B96FF00300DCE70CB1206880
:10E2200058B90FB1381D00E00020014611B96FF058
:10E230000300D0E70868206000BFE9684868FBF782
:10E2400005FA616C401A29890844484519D9B4F87F
:10E25000600048450CD1206F50B994F8990038B946
:10E26000002004F8980F012060700020A070983CF6
:10E27000A07E00F0020018B1204602F0DDFDAAE702
:10E28000D3E0002084F89900266F26B100E03668BC
:10E2900030680028FBD1B5E000BFE9688889FBF74A
:10E2A000E2F900F0040040B100BF64A340F236522E
:10E2B0008AA175A0F8F786F900BF00BF206FA0B152
:10E2C000A07E00F0440080B9E06E38B1E06E0068D6
:10E2D00058B9E06E0089618E884206DAB4F86400AD
:10E2E00018B1B4F86600092801DB012000E0002025
:10E2F00020B9A07E00F0A00000B98FE0207D0228A8
:10E3000007D01020FBF7AFF9E96889890843E9686D
:10E3100088813A462146284600F0FCFA0090009891
:10E3200038B100BF608B40F08000608300BF009870
:10E3300051E72868E066207D022806D000BF608B88
:10E340004FF6FC710840608300BFE9684868FBF73E
:10E350007DF98046E9688889FBF785F900F00300BC
:10E3600008B1012000E000202989084408EB000AD8
:10E37000206DB0EB0A0001D5C4F850A0E968888987
:10E38000FBF771F900F0030008B1012000E0002064
:10E390002989084488B300202860206F10B92567B8
:10E3A0002E462EE0E9684868FBF750F98046F16890
:10E3B0004868FBF74BF9B8EB00001BD504F1700877
:10E3C00001E0D8F80080D8F8000068B1D8F8001053
:10E3D000C9684868FBF73AF98346E9684868FBF77B
:10E3E00035F9BBEB0000ECD4D8F800002860C8F881
:10E3F000005006E03560366803E0FFE7284602F08B
:10E4000001FDE56E55B1E9684868FBF71FF9616CDD
:10E41000401A2989084448457FF63EAF00BFE06EA8
:10E4200010B90020A4F8680000BF00BF608B4FF651
:10E430007F710840608300BF0020CCE62E2E2F4D58
:10E440006964646C6577617265732F54686972647E
:10E450005F50617274792F4C7749502F7372632F1C
:10E46000636F72652F7463705F6F75742E63000045
:10E470007463705F6F75747075743A20696E76613D
:10E480006C69642070636200417373657274696FB4
:10E490006E2022257322206661696C656420617498
:10E4A000206C696E6520256420696E2025730A0042
:10E4B000646F6E27742063616C6C207463705F6F8F
:10E4C000757470757420666F72206C697374656EF4
:10E4D0002D70636273000000D0000024525354205A
:10E4E0006E6F74206578706563746564206865720A
:10E4F000652100002DE9FF4104460E461746984667
:10E5000000BF002C08D100BF10A340F242721CA132
:10E5100025A0F8F757F800BF00BF608D1023218BAE
:10E52000E28ACDE901130092039043463A46314610
:10E53000606A00F04DF805461DB1618D606A0844BF
:10E54000E062284604B0BDE8F08100002E2E2F4D79
:10E550006964646C6577617265732F54686972646D
:10E560005F50617274792F4C7749502F7372632F0B
:10E57000636F72652F7463705F6F75742E63000034
:10E580007463705F6F75747075745F616C6C6F63CA
:10E590005F6865616465723A20696E76616C696472
:10E5A0002070636200000000417373657274696FCC
:10E5B0006E2022257322206661696C656420617477
:10E5C000206C696E6520256420696E2025730A0021
:10E5D0002DE9F05F82460D4617469846DDF830B0CB
:10E5E00005F11400384481B24FF420722220FCF768
:10E5F00003FC0646002E34D000BF718905F11400DB
:10E60000814208DA00BF18A340F2237223A12FA091
:10E61000F7F7D8FF00BF00BF74680A98FBF723F82C
:10E6200020800B98FBF71FF86080C4F804805046E8
:10E63000FBF70CF8A060A946E91705EB917189106A
:10E64000491D4FF6FF7202EA013141EA0B00FBF768
:10E650000AF8A0810D98FBF706F8E08100202082DF
:10E6600060823046BDE8F09F2E2E2F4D6964646CA9
:10E670006577617265732F54686972645F50617267
:10E6800074792F4C7749502F7372632F636F7265C3
:10E690002F7463705F6F75742E6300006368656329
:10E6A0006B2074686174206669727374207062757F
:10E6B000662063616E20686F6C642073747275638A
:10E6C00074207463705F6864720000004173736546
:10E6D0007274696F6E2022257322206661696C65F1
:10E6E00064206174206C696E6520256420696E2049
:10E6F00025730A002DE9FE4F04460E4692469B46BE
:10E7000000BF002E08D100BF17A340F2877223A1DB
:10E710002DA0F7F757FF00BF00BF5A4651462046CD
:10E7200002F072FA054615B96FF0030715E024B13F
:10E7300094F80B8094F80A9003E04FF0FF084FF034
:10E740000009062043465A465146CDE900900295FD
:10E750003046F9F737FF074600BF3046FCF7E2FFC7
:10E760003846BDE8FE8F00002E2E2F4D6964646C84
:10E770006577617265732F54686972645F50617266
:10E7800074792F4C7749502F7372632F636F7265C2
:10E790002F7463705F6F75742E6300007463705F15
:10E7A0006F75747075745F636F6E74726F6C5F7386
:10E7B00065676D656E743A20696E76616C69642078
:10E7C0007062756600000000417373657274696F52
:10E7D0006E2022257322206661696C656420617455
:10E7E000206C696E6520256420696E2025730A00FF
:10E7F0002DE9F04781460D4614469A464FF0000831
:10E8000000BF002D08D100BF1CA340F2567228A102
:10E8100031A0F7F7D7FE00BF00BF6E6806F11407FE
:10E8200000BF384600EB880004F0010109B1042163
:10E8300000E00021084404F0020109B1002100E0D9
:10E840000021084404F0080109B1002100E0002182
:10E85000084404F0100109B1002100E0002108443F
:10E86000B84208D000BF05A340F2757224A11AA0D7
:10E87000F7F7A8FE00BF00BFBDE8F0872E2E2F4D92
:10E880006964646C6577617265732F54686972643A
:10E890005F50617274792F4C7749502F7372632FD8
:10E8A000636F72652F7463705F6F75742E63000001
:10E8B0007463705F6F75747075745F66696C6C5F9C
:10E8C0006F7074696F6E733A20696E76616C6964FB
:10E8D0002070627566000000417373657274696F21
:10E8E0006E2022257322206661696C656420617444
:10E8F000206C696E6520256420696E2025730A00EE
:10E900006F7074696F6E73206E6F742066696C6CC3
:10E91000656400002DE9FE4F04460D46164600BF13
:10E92000002C08D100BF58A34FF4B76263A16BA0BD
:10E93000F7F748FE00BF00BF00BF002D08D100BFA1
:10E9400051A340F2B9526FA164A0F7F73BFE00BF9C
:10E9500000BF00BF002E08D100BF4BA340F2BA5247
:10E9600070A15EA0F7F72EFE00BF00BF204600F0AA
:10E97000F7F810B10020BDE8FE8F686AFAF766FE6E
:10E98000E1688860688DFAF76EFEE168C881698D7C
:10E99000686A0844E862E06800F11407A07A00F0B1
:10E9A000010068B12A1D31464FF40670FDF7B6FF2D
:10E9B00082464AF00170FAF749FE38603F1D00BFF9
:10E9C000B5F93000002801DA00202886686B38B9D4
:10E9D0005D4800686863E1684868FAF737FEA86335
:10E9E000A08961688988401A1FFA80F860684089A8
:10E9F000A0EB08006168488160680089A0EB08000E
:10EA0000616808816168E06848600020E168088208
:10EA100000BFE0681430A17A01F0010109B10421BE
:10EA200000E000210844A17A01F0020109B10021AF
:10EA300000E000210844A17A01F0080109B1002199
:10EA400000E000210844A17A01F0100109B1002181
:10EA500000E000210844B84208D000BF0AA340F2F9
:10EA60001C623AA11DA0F7F7ADFD00BF00BF062153
:10EA7000A87A8DE84300EB7A2A1D29466068F9F7E9
:10EA8000A1FD8146484676E72E2E2F4D6964646CC1
:10EA90006577617265732F54686972645F50617243
:10EAA00074792F4C7749502F7372632F636F72659F
:10EAB0002F7463705F6F75742E6300007463705FF2
:10EAC0006F75747075745F7365676D656E743A20E9
:10EAD000696E76616C696420736567004173736564
:10EAE0007274696F6E2022257322206661696C65DD
:10EAF00064206174206C696E6520256420696E2035
:10EB000025730A007463705F6F75747075745F733A
:10EB100065676D656E743A20696E76616C69642014
:10EB2000706362007463705F6F75747075745F7387
:10EB300065676D656E743A20696E76616C696420F4
:10EB40006E65746966000000900000246F7074693F
:10EB50006F6E73206E6F742066696C6C6564000064
:10EB600010B5044600BF002C08D100BF08A340F236
:10EB70009A5214A11DA0F7F725FD00BF00BF6068E1
:10EB8000807B012801D0012010BD0020FCE700009F
:10EB90002E2E2F4D6964646C6577617265732F54F6
:10EBA000686972645F50617274792F4C7749502F95
:10EBB0007372632F636F72652F7463705F6F757408
:10EBC0002E6300007463705F6F75747075745F738B
:10EBD00065676D656E745F627573793A20696E76EC
:10EBE000616C6964207365670000000041737365A0
:10EBF0007274696F6E2022257322206661696C65CC
:10EC000064206174206C696E6520256420696E2023
:10EC100025730A002DE9F041054600BF002D08D1FB
:10EC200000BF28A340F27D7233A13AA0F7F7CAFCD7
:10EC300000BF00BF41480088002840D00020404964
:10EC4000088036E0FEF7D2F9074627B1012F04D03D
:10EC5000022F1FD102E0BDE8F08128E0FEF7C6F9DF
:10EC6000042806D136480088801C34490988884227
:10EC700000DDF0E7FEF7BAF90602FEF7B7F9064342
:10EC8000B6F5067F00DC16B94FF4067000E030469A
:10EC900068860CE0FEF7AAF90446022C00DADAE7EF
:10ECA000A01E2749098808442549088000BF00BFE5
:10ECB00000BF23480088214909888842C2DB00BF81
:10ECC000C9E700002E2E2F4D6964646C6577617270
:10ECD00065732F54686972645F50617274792F4C48
:10ECE0007749502F7372632F636F72652F7463704F
:10ECF0005F696E2E630000007463705F70617273F1
:10ED0000656F70743A20696E76616C696420706317
:10ED100062000000417373657274696F6E20222572
:10ED20007322206661696C6564206174206C696E71
:10ED30006520256420696E2025730A00B000002438
:10ED4000B800002410B5044600BF002C09D100BF54
:10ED500016A340F6510221A127A0F7F733FC00BF0C
:10ED600010BD00BF207DF8B1207D0A281CD0207D79
:10ED7000012819D0A06F20B1A06FFCF7D3FC0020B0
:10ED8000A067606F10B12046FEF726F94FF0FF3004
:10ED90002086E06E02F043F8206F02F040F8002079
:10EDA000E0662067A4F8680000BFD9E72E2E2F4D3B
:10EDB0006964646C6577617265732F546869726405
:10EDC0005F50617274792F4C7749502F7372632FA3
:10EDD000636F72652F7463702E6300007463705FDD
:10EDE0007063625F70757267653A20696E76616CF8
:10EDF0006964207063620000417373657274696FA7
:10EE00006E2022257322206661696C65642061741E
:10EE1000206C696E6520256420696E2025730A00C8
:10EE200070B505460C4600BF002C08D100BF3AA3C0
:10EE300040F6830244A14BA0F7F7C4FB00BF00BF1C
:10EE400000BF002D08D100BF33A340F684024FA1BC
:10EE500044A0F7F7B7FB00BF00BF00BF2868A0427F
:10EE600003D12868C06828600CE0286806E0C16803
:10EE7000A14202D1E168C16002E0C0680028F6D179
:10EE800000BF00BF0020E06000BF2046FFF75AFF30
:10EE9000207D0A280FD0207D01280CD0A07E00F014
:10EEA000010040B100BF608B40F00200608300BFF2
:10EEB0002046FFF76DF9207D012826D000BFE06EC7
:10EEC00040B100BF14A340F6930238A125A0F7F784
:10EED00079FB00BF00BF00BF206F40B100BF0EA391
:10EEE00040F6940237A11FA0F7F76CFB00BF00BFEC
:10EEF00000BF606F40B100BF07A340F6960238A183
:10EF000018A0F7F75FFB00BF00BF00202075E0826C
:10EF100000BF00BF70BD00002E2E2F4D6964646CD1
:10EF20006577617265732F54686972645F506172AE
:10EF300074792F4C7749502F7372632F636F72650A
:10EF40002F7463702E6300007463705F7063625F80
:10EF500072656D6F76653A20696E76616C696420C2
:10EF600070636200417373657274696F6E2022254D
:10EF70007322206661696C6564206174206C696E1F
:10EF80006520256420696E2025730A007463705F14
:10EF90007063625F72656D6F76653A20696E766147
:10EFA0006C6964207063626C69737400756E73655C
:10EFB0006E74207365676D656E7473206C65616B2C
:10EFC000696E6700756E61636B6564207365676D5C
:10EFD000656E7473206C65616B696E67000000007C
:10EFE0006F6F736571207365676D656E7473206CE8
:10EFF00065616B696E6700002DE9FE4304460027DA
:10F00000002600BF002C08D100BFE5A34FF44772D3
:10F01000F0A1F7A0F7F7D6FA00BF00BFFE480078CE
:10F0200000F00400002845D0207D022806D1FB49CD
:10F03000206D096888421BD1012719E0F849606AF0
:10F040000968884201D1012712E0F549606A096820
:10F05000081A0DD4218D606A0844F1490968081A1C
:10F06000002805DC00BF608B40F00200608300BF19
:10F07000002F1DD000BF207D40B900BFC8A34FF4B2
:10F080004E72E8A1DAA0F7F79DFA00BF00BFED4885
:10F09000007840F00800EB49087000BF608B4FF625
:10F0A000FE710840608300BF6FF00D00BDE8FE8375
:10F0B0000020FBE7D848007800F0020068B1207D0E
:10F0C00002280AD0207D032807D000BF608B40F0C3
:10F0D0000200608300BF0020E8E7A07E00F010007F
:10F0E00010B9D94800682062002084F89B0084F899
:10F0F0009A002046FFF78EFD207D801E082875D2DD
:10F10000DFE800F004CDF4F3F2F1F0EFC24800784C
:10F1100000F0100000286AD0BF48007800F002001C
:10F120000028F8D0606C401CBC49096888425ED158
:10F13000BB480068401C6062606AE062B7480068D3
:10F140006064C2480068C089A4F86000B4F8600038
:10F15000A4F86200B2480068401E60650420207573
:10F16000201DF9F7A1FC8046608E221D4146FDF767
:10F17000D5FB6086608E8100400041F21C129042F7
:10F1800002D9608E400001E041F21C10814202D29F
:10F19000608E80000AE0608E400041F21C118842BF
:10F1A00002D9608E400001E041F21C10A4F8480032
:10F1B00000BFB4F86600002808DC00BF78A34FF455
:10F1C0005B72A3A18AA0F7F7FDF900BF00BFB4F8F6
:10F1D0006600401EA4F86600256F95B9E56E00BF75
:10F1E0005DB900BF6EA34FF45D7201E08DE231E0C6
:10F1F0009DA17FA0F7F7E6F900BF00BF2868E06691
:10F2000001E028682067284601F0FCFD206F18B94E
:10F210004FF0FF30208603E00020208684F8420073
:10F2200000BFD4F8880038B100222146D4F88830D5
:10F2300020699847064600E0002600BF06F10D0051
:10F2400010B96FF00C0031E700BF608B40F0020096
:10F25000608323E07048007800F01000F0B17B4834
:10F2600000680088794909684988844ACDE9002105
:10F2700002906B4800688249098842187F4B1B1D29
:10F2800066480168204601F0CFFC94F84200062849
:10F2900004DA00202086204601F07AFB36E25E4840
:10F2A000007800F01000002876D0606C401C5B49AC
:10F2B0000968081A71D45949206D0968081A00288C
:10F2C0006BDC04202075E06F10B96FF0050623E0B9
:10F2D00000BFE06F806978B900BF31A34FF46A7254
:10F2E00005E0FCE1BCE107E17CE117E105E165A196
:10F2F0003FA0F7F767F900BF00BF00BFE06F80696C
:10F3000038B1E16F206900228B6921469847064693
:10F3100001E06FF00F0600BF46B106F10D0010B11D
:10F320002046FCF7D7FF6FF00C00BFE6204600F048
:10F330009FFA5C48008820B15A480088401E59490D
:10F340000880608E8100400041F21C12904202D978
:10F35000608E400001E041F21C10814202D2608EBA
:10F3600080000AE0608E400041F21C11884202D900
:10F37000608E400001E041F21C10A4F848003148C2
:10F38000007800F0200048B100BF608B40F0020020
:10F39000608300BF072087E09FE087E0ABE00000CC
:10F3A0002E2E2F4D6964646C6577617265732F54DE
:10F3B000686972645F50617274792F4C7749502F7D
:10F3C0007372632F636F72652F7463705F696E2E43
:10F3D000630000007463705F70726F636573733AEB
:10F3E00020696E76616C69642070636200000000C1
:10F3F000417373657274696F6E20222573222066D3
:10F4000061696C6564206174206C696E6520256497
:10F4100020696E2025730A00C8000024C000002463
:10F42000BC0000247463705F696E7075743A20705C
:10F4300063622D3E737461746520213D20434C4FFF
:10F4400053454400C900002490000024AC0000246F
:10F450007063622D3E736E645F71756575656C6572
:10F460006E203E20300000006E6F207365676D6572
:10F470006E7420746F20667265650000684C00240D
:10F48000C60000247063622D3E6C697374656E65FE
:10F49000722D3E61636365707420213D204E554C92
:10F4A0004C000000C4000024207524E09948006846
:10F4B0000188984800684088974ACDE90020029169
:10F4C00096480068964909884218934B1B1D954839
:10F4D0000168204601F0A8FB0DE09348007800F099
:10F4E000020040B1606A401E8C490968884202D11E
:10F4F000204601F045F909E100BF204600F0B8F9C7
:10F500008A48007800F0200038B100BF608B40F0DE
:10F510000200608300BF07202075F7E0204600F05E
:10F52000A7F98248007800F02000E8B37E48007810
:10F5300000F01000C8B37B49206D0968884239D1BA
:10F54000E06E90BB00BF608B40F00200608300BFA4
:10F550002046FFF7F7FB00BF00BF75480068A042D8
:10F5600005D173480068C068714908600DE07049B2
:10F57000086806E0C168A14202D1E168C16002E00A
:10F58000C0680028F6D100BF00BF0020E06000BFC7
:10F5900001206849087000BF0A20207500BF664836
:10F5A0000068E060644801E00DE003E0046002F000
:10F5B00055FA16E000BF608B40F00200608300BF88
:10F5C000082020750DE05848007800F0100040B188
:10F5D0005449206D0968884203D1E06E08B90620BD
:10F5E000207593E0204600F043F95048007800F081
:10F5F0002000A0B300BF608B40F00200608300BF1A
:10F600002046FFF79FFB00BF00BF49480068A042AB
:10F6100005D147480068C068454908600DE0444985
:10F62000086806E0C168A14202D1E168C16002E059
:10F63000C0680028F6D100BF00BF0020E06000BF16
:10F6400001203C49087000BF0A20207500BF3A48DD
:10F650000068E0603848046002F000FA00BF55E03E
:10F66000204600F005F93048007800F01000A8B3FB
:10F670002C49206D0968884230D1E06E70BB20466D
:10F68000FFF760FB00BF00BF29480068A04205D11A
:10F6900027480068C068264908600DE024490868CA
:10F6A00006E0C168A14202D1E168C16002E0C06821
:10F6B0000028F6D100BF00BF0020E06000BF01209D
:10F6C0001C49087000BF0A20207500BF1A48006856
:10F6D000E0601948046002F0C1F900BF16E020465E
:10F6E00000F0C6F81048007800F0100060B10D4935
:10F6F000206D0968884207D1E06E28B90B48007870
:10F7000040F010000949087000E000BF00BF002071
:10F71000CCE40000AC000024684C0024BC000024B1
:10F72000C6000024C0000024C8000024C900002432
:10F730009C000024A4000024A00000242DE9F04136
:10F74000044600BF002C0CD100BF29A340F209627F
:10F7500033A13DA0F6F736FF00BF6FF00F00BDE804
:10F76000F08100BFA06F477BA66F0020A06700BF9D
:10F77000D4F8840040B1002332462146D4F884C036
:10F780002069E047054606E0002332462146184638
:10F7900000F0ACFE054600BFF5B907F0200028B325
:10F7A000208DB0F5066F02D0208D401C208500BF53
:10F7B000D4F8840040B100231A462146D4F884C00E
:10F7C0002069E047054600E0002500BF05F10D0077
:10F7D00060B96FF00C00C2E705F10D0010B96FF0D1
:10F7E0000C00BCE7A6676FF00400B8E70020B6E79E
:10F7F0002E2E2F4D6964646C6577617265732F548A
:10F80000686972645F50617274792F4C7749502F28
:10F810007372632F636F72652F7463702E630000C1
:10F820007463705F70726F636573735F7265667522
:10F830007365645F646174613A20696E76616C69B6
:10F840006420706362000000417373657274696FB5
:10F850006E2022257322206661696C6564206174C4
:10F86000206C696E6520256420696E2025730A006E
:10F870002DE9F05F04464FF0000900BF002C08D1CD
:10F8800000BFE5A340F27B42F0A1F7A0F6F79AFE95
:10F8900000BF00BF00BF207D042808DA00BFDEA340
:10F8A00040F27C42FAA1F0A0F6F78CFE00BF00BF48
:10F8B000FE48007800F01000002870D0B4F8600016
:10F8C000A16D00EB0108FA49606D0968401A15D472
:10F8D000F749606D0968884204D1F649A06D09684E
:10F8E000401A0BD4F349A06D096888421AD1F24836
:10F8F0000068C089B4F86010884213D9EE480068E7
:10F90000C08924F8600F608834F86019884203DAEF
:10F91000B4F86000A4F86200E54800686065E54856
:10F920000068A065E349606C0968081A00284ADC91
:10F93000E248008890BBB4F86010A06D08444045D0
:10F940003AD1B4F93000002836DBDA49606C096836
:10F95000884231D14FF0010994F84300401CC0B2F5
:10F9600094F84310884204DD94F84300401C84F866
:10F97000430094F84300032817DD00BFB4F84800A3
:10F98000618E084480B2B4F84810884208DBB4F8AD
:10F990004800618E0844A4F8480005E00CE02AE124
:10F9A0004FF6FF70A4F8480000BF94F84300032806
:10F9B00002DB204600F066FFB9F1000F02D1002003
:10F9C00084F84300EBE0606C401CBA490968081AEF
:10F9D0007ED4B849206D0968081A002878DCA07E1A
:10F9E00000F0040060B100BF608B4FF6FB7108406F
:10F9F000608300BF48346088208000206084483CD9
:10FA000000202434A077608BB4F9181000EBE100DB
:10FA100000B2A083208CA7490988081A85B200206B
:10FA2000E077A4480068206214F8100C243C0428F5
:10FA300065DBB4F84800B4F84A10884227DA628BD4
:10FA400002F400620AB1012200E002221146628E35
:10FA50004A4392B2AA4201DD2A4602E0628E4A433C
:10FA600092B2104600BFB4F84820024492B2B4F8F3
:10FA700048309A4205DBB4F848200244A4F84820F4
:10FA800003E04FF6FF72A4F8482000BF37E000BF44
:10FA9000B4F86A00284480B2B4F86A10884205DBE2
:10FAA000B4F86A002844A4F86A0003E04FF6FF7037
:10FAB000A4F86A0000BFB4F86A00B4F8481088429D
:10FAC0001DDB4834608C2188401A6084483C00E08B
:10FAD00062E000BFB4F84800618E084480B2B4F818
:10FAE0004810884206DBB4F84800618E0844A4F848
:10FAF000480003E04FF6FF70A4F8480000BF70A272
:10FB00002046D4E91B31FDF76BF920676EA2204631
:10FB1000D4E91B13FDF764F9E066206F18B94FF0C4
:10FB2000FF30208601E00020208600202077E06E54
:10FB300010B90020A4F86800B4F86400644909888A
:10FB40000844A4F86400608B00F4006018B3206FD0
:10FB500088B9E06E40B1E16EC9684868F9F776FD92
:10FB6000E16C081A002816DC00BF608B4FF2FF71B1
:10FB7000084060830FE0216FC9684868F9F766FDA7
:10FB8000E16C081A002806DC00BF608B4FF2FF71A1
:10FB90000840608300BF02E0204601F04DF9606B31
:10FBA00048B34449A06B0968401A24D5A08E49493E
:10FBB0000988081A07B2B4F93C00A7EBE00007B2C5
:10FBC000A08F384400B2A087002F01DA784207B234
:10FBD000B4F93E00A7EBA00007B2E08F384400B2B2
:10FBE000E087E08FB4F93C1000EBE10000B2A4F82C
:10FBF0004000002060633148008800286CDD207DD3
:10FC0000072869DA2A48616A0068401C081A7CD40F
:10FC10002748616A006860E02E2E2F4D6964646C8D
:10FC20006577617265732F54686972645F506172A1
:10FC300074792F4C7749502F7372632F636F7265FD
:10FC40002F7463705F696E2E630000007463705FD1
:10FC5000726563656976653A20696E76616C696480
:10FC60002070636200000000417373657274696FF5
:10FC70006E2022257322206661696C6564206174A0
:10FC8000206C696E6520256420696E2025730A004A
:10FC90007463705F726563656976653A2077726F29
:10FCA0006E6720737461746500000000C800002452
:10FCB000BC000024C0000024AC000024C6000024C6
:10FCC000756E61636B656400756E73656E740000BC
:10FCD000C400002490000024D4E3F74A12881044A2
:10FCE000401E081A00285FDCF4484668F449606A40
:10FCF0000968A0EB010A00BFF048406860B900BF86
:10FD0000AFF2EC0340F2945200E04DE0EDA1AFF20F
:10FD1000A800F6F757FC00BF00BF00BF4FF6FF700A
:10FD200082450AD300BFAFF2101340F29552E9A109
:10FD3000AFF2CC00F6F746FC00BF00BF1FFA8AF511
:10FD400000BFDE4840680089A8420ADA00BFAFF26F
:10FD5000381340F29752E3A1AFF2F400F6F732FC09
:10FD600000BF00BFD5480089401BD4490881084620
:10FD700040680089401B1FFA80FB07E07089281A41
:10FD800085B2A6F808B00020708136687089A84254
:10FD9000F4DB29463046FBF7F3FEC949606A086088
:10FDA000C649C96848600AE0C549606A0968081A16
:10FDB00005D500BF608B40F00200608300BFC049E2
:10FDC000606A0968081A7DD4218D606A0844401E63
:10FDD000BB490968081A002874DCB949606A0968D7
:10FDE000884270D1B549C9688889F9F73CFC00F0B0
:10FDF000030008B1012000E00020B049098908444F
:10FE0000AD490880208D0988884256DAAB49C96817
:10FE10008889F9F728FC00F0010098B1A749C96862
:10FE20008889F9F720FC00F03E052846F9F71BFC0D
:10FE3000A249C96889894CF2FF02114008439F49D1
:10FE4000C9688881208D9D490881C9688889F9F72A
:10FE50000AFC00F0020020B198480089401E974932
:10FE60000881964A11895068FBF788FD9349C96853
:10FE70008889F9F7F8FB00F0030008B1012000E0E1
:10FE800000208E49098908448B49088000BF218DD4
:10FE9000606A08448A490968874A1288114488427E
:10FEA0000AD000BFAFF2902340F2CB5291A1AFF243
:10FEB0004820F6F787FB00BF00BF606F002816D010
:10FEC0007E4901E0DAE2D3E1C9688889F9F7CBFB22
:10FED00000F0010060B107E0656F606F0068606767
:10FEE000284600F08FFF00BF606F0028F4D187E044
:10FEF000656F2EE0E9688889F9F7B5FB00F001002D
:10FF000008B36E49C9688889F9F7ADFB00F00200B3
:10FF1000C8B90120F9F7A7FB6849C968898908436E
:10FF20006649C96888816549C9688889F9F79BFB72
:10FF300000F0030008B1012000E000205F490989BA
:10FF400008445D4908802E462D68304600F05AFF6F
:10FF500000BF55B1E86840682989084458490968D4
:10FF6000554A12881144081AC4D5002D46D0544869
:10FF70000068514909880844E9684968401A00281E
:10FF80003CDDE86880884E490988401A4B49088161
:10FF9000C9688889F9F767FB00F0020020B147487B
:10FFA0000089401E45490881444A11895068FBF781
:10FFB000E5FC4249C9688889F9F755FB00F0030060
:10FFC00008B1012000E000203C49098908443A4971
:10FFD000088000BF3A48006809880844E968496811
:10FFE00088420AD000BFAFF2D03340F2FC524FA19A
:10FFF000AFF28C30F6F7E6FA00BF00BF656700BFCE
:020000040801F1
:100000002F4800682C4909880844606200BF208D91
:100010002949098888420ADA00BFAFF2044340F256
:10002000076251A1AFF2C030F6F7CCFA00BF00BFB3
:10003000208D21490988401A2085204601F0E8FDDD
:100040001E4840680089002806DD1C4840684E496B
:1000500008600020194948601849C9688889F9F77B
:1000600002FB00F0010028B14848007840F0200071
:1000700046490870DAE0656F606FC06840681049F3
:100080000860E9688889F9F7EEFA00F0030008B122
:10009000012000E0002029890844616A0844606268
:1000A00000BFE9688889F9F7DEFA00F0030008B1BB
:1000B00001206EE06CE00000C60000246C7B002490
:1000C000BC000024696E7365672E7020213D204EB0
:1000D000554C4C00696E73616E65206F6666736582
:1000E000742100007062756620746F6F2073686FF2
:1000F000727421007463705F726563656976653A36
:10010000207365676D656E74206E6F7420747269FC
:100110006D6D656420636F72726563746C792074B1
:100120006F207263765F776E640A00007463705F9D
:10013000726563656976653A207365676D656E748F
:10014000206E6F74207472696D6D656420636F72C8
:10015000726563746C7920746F206F6F73657120A2
:1001600071756575650A00007463705F726563651B
:100170006976653A207463706C656E203E20726308
:10018000765F776E640A0000CC000024C90000246A
:10019000002029890844218D88420AD900BFAFF286
:1001A000885340F22B62C2A1AFF24450F6F70AFA2C
:1001B00000BF00BFE9688889F9F755FA00F003002D
:1001C00008B1012000E0002029890844218D081A87
:1001D0002085204601F01CFD6868008900280DDD9F
:1001E000BD48006828B1BC4869680068FAF7DCFFC0
:1001F00002E0B9496868086000206860E968888999
:10020000F9F731FA00F0010050B1B448007840F03D
:100210002000B2490870207D042801D107202075F4
:1002200028686067284600F0EDFD00BF606F30B1C0
:10023000606FC0684068616A88423FF41CAF00BFCD
:10024000A07E00F0010060B100BF608B4FF6FE7130
:100250000840608300BF00BF608B40F002006083F5
:1002600005E000BF608B40F00100608300BF1DE12E
:10027000606F20B99A4800F06BFD6067FAE00026D5
:10028000656FF2E0E868406896490968884217D1CE
:10029000934800892989884211DD914800F058FD72
:1002A0008246BAF1000F09D016B1C6F800A001E0ED
:1002B000C4F874A029465046FDF7D4FED8E0D7E034
:1002C000A6B9E868406887490968081A0DD58448C6
:1002D00000F03EFD8246BAF1000F05D0C4F874A0CC
:1002E00029465046FDF7BEFEC2E030E0F0684068A7
:1002F000401C7C490968081A28D4E8684068401EF8
:1003000078490968081A002820DC754800F020FDAB
:100310008246BAF1000F18D0F0684068318908446D
:1003200070490968401A002809DDF06880886D4925
:100330000988081A308131897068FBF71FFBC6F8FD
:1003400000A029465046FDF78DFE91E000BF2E46E5
:10035000286800287DD1E868406862490968081A61
:10036000002876DDE9688889F9F77DF900F0010059
:1003700000B17DE05A4800F0EBFC286028680028B6
:1003800071D0E86840682989084456490968401ACC
:10039000002809DDE868808852490988081A288100
:1003A00029896868FBF7EAFA218D606A08444E499A
:1003B00009884C4A12681144081A002853DD29683C
:1003C000C9688889F9F74FF900F0010098B12968E8
:1003D000C9688889F9F747F900F03E0A5046F9F7ED
:1003E00042F92968C96889894CF2FF021140084323
:1003F0002968C9688881A08C218D084439490988F9
:10040000401A296808812A6811895068FBF7B6FAF2
:100410002968C9688889F9F726F900F0030008B14E
:10042000012000E000202968098908442E4908803D
:1004300000BF218D606A01442A4800682A4A128858
:10044000104481420ED000BFAFF634034FF4DF6298
:1004500001E009E007E0AFF26431AFF2F470F6F7C3
:10046000B1F800BF00BF03E02D68002D7FF40AAF94
:1004700000BF00BF204600F0DFFC17E0204600F080
:10048000DBFC13E01749606A0968081A08D4218D5B
:10049000606A0844401E13490968081A002805DDEF
:1004A00000BF608B40F00200608300BFBDE8F09F9A
:1004B0007463705F726563656976653A206F6F7308
:1004C0006571207463706C656E203E207263765F88
:1004D000776E640A00000000CC000024C9000024EC
:1004E0006C7B0024BC000024C60000242DE9F041F0
:1004F00007460D4614461E4600BF002D0CD100BF16
:100500000EA34FF4D36219A11FA0F6F75BF800BF4A
:100510006FF00F00BDE8F08100BF3CB12189284693
:1005200000F046F82046FBF7FDF804E01EB9284627
:10053000FBF738FFEEE70020ECE700002E2E2F4DF2
:100540006964646C6577617265732F54686972645D
:100550005F50617274792F4C7749502F7372632FFB
:10056000636F72652F7463702E6300007463705F35
:10057000726563765F6E756C6C3A20696E76616C3D
:100580006964207063620000417373657274696FFF
:100590006E2022257322206661696C656420617477
:1005A000206C696E6520256420696E2025730A0021
:1005B0002DE9F04104460F4600BF002C0AD100BFD0
:1005C0001CA340F2CF3227A12CA0F5F7FBFF00BF00
:1005D000BDE8F08100BF00BF207D012808D100BF29
:1005E00014A340F2D2322FA124A0F5F7EBFF00BFF5
:1005F00000BF208D384485B2B5F5066F02DC208D32
:10060000A84203DD4FF40660208500E025852046E2
:1006100001F0FEFA0646B6F5067F08D300BF608BF0
:1006200040F00200608300BF2046FDF7B1FD00BF2F
:10063000CEE700002E2E2F4D6964646C65776172E1
:1006400065732F54686972645F50617274792F4CBE
:100650007749502F7372632F636F72652F746370C5
:100660002E6300007463705F7265637665643A2080
:10067000696E76616C6964207063620041737365B2
:100680007274696F6E2022257322206661696C6521
:1006900064206174206C696E6520256420696E2079
:1006A00025730A00646F6E27742063616C6C20747C
:1006B00063705F72656376656420666F72206C6933
:1006C0007374656E2D7063627300000070B506462A
:1006D0000D4600BF002D07D100BF09A3FF2214A1C2
:1006E0001DA0F5F76FFF00BF00BF344605E0E06FC7
:1006F000A84201D10020E067E468002CF7D170BD6A
:100700002E2E2F4D6964646C6577617265732F546A
:10071000686972645F50617274792F4C7749502F09
:100720007372632F636F72652F7463702E630000A2
:100730007463705F72656D6F76655F6C6973746505
:100740006E65723A20696E76616C6964206C6973BB
:1007500074656E6572000000417373657274696F31
:100760006E2022257322206661696C6564206174A5
:10077000206C696E6520256420696E2025730A004F
:100780002DE9F041044600BF002C08D100BF20A392
:1007900040F2C1622BA131A0F5F714FF00BF00BFEA
:1007A000206F18B96FF00500BDE8F081256F28466D
:1007B000FEF7D6F910B16FF00500F5E7286820675D
:1007C00004F16C0600E03668306858B13168C968D9
:1007D0004868F8F73BFF0746E9684868F8F736FFCE
:1007E000381AF0D4306828603560286810B90020C5
:1007F000A4F8680094F84200FF2804DA94F8420054
:10080000401C84F842000020606300BFCCE7000079
:100810002E2E2F4D6964646C6577617265732F5459
:10082000686972645F50617274792F4C7749502FF8
:100830007372632F636F72652F7463705F6F75746B
:100840002E6300007463705F7265786D69743A207E
:10085000696E76616C6964207063620041737365D0
:100860007274696F6E2022257322206661696C653F
:1008700064206174206C696E6520256420696E2097
:1008800025730A0010B5044600BF002C08D100BF34
:1008900020A340F2F9622CA133A0F5F793FE00BF2C
:1008A00000BF206FA0B3A07E00F0040080BB2046F4
:1008B000FFF766FF60BBB4F84810B4F860209142BF
:1008C00002DAB4F8481001E0B4F86010084601EB11
:1008D000D071C1F34F01A4F84A10B4F84A00618EF8
:1008E0004900884204D2608E4004000CA4F84A00FB
:1008F000B4F84A00618E032202FB0100A4F848000C
:1009000000BF608B40F00400608300BF00202086A1
:1009100010BD00002E2E2F4D6964646C65776172E6
:1009200065732F54686972645F50617274792F4CDB
:100930007749502F7372632F636F72652F746370E2
:100940005F6F75742E6300007463705F7265786DFD
:1009500069745F666173743A20696E76616C69646C
:100960002070636200000000417373657274696FE8
:100970006E2022257322206661696C656420617493
:10098000206C696E6520256420696E2025730A003D
:1009900010B5044600BF002C08D100BF08A340F2E8
:1009A000AD6214A11AA0F5F70DFE00BF00BF2046EE
:1009B00000F09EF810B9204600F03EF810BD00008F
:1009C0002E2E2F4D6964646C6577617265732F54A8
:1009D000686972645F50617274792F4C7749502F47
:1009E0007372632F636F72652F7463705F6F7574BA
:1009F0002E6300007463705F7265786D69745F7256
:100A0000746F3A20696E76616C696420706362006D
:100A1000417373657274696F6E202225732220669C
:100A200061696C6564206174206C696E6520256461
:100A300020696E2025730A0010B5044600BF002C03
:100A400008D100BF0AA34FF4D36216A11EA0F5F788
:100A5000B9FD00BF00BF94F84200FF2804DA94F803
:100A60004200401C84F842002046FDF791FB10BD77
:100A70002E2E2F4D6964646C6577617265732F54F7
:100A8000686972645F50617274792F4C7749502F96
:100A90007372632F636F72652F7463705F6F757409
:100AA0002E6300007463705F7265786D69745F72A5
:100AB000746F5F636F6D6D69743A20696E76616CF7
:100AC0006964207063620000417373657274696FBA
:100AD0006E2022257322206661696C656420617432
:100AE000206C696E6520256420696E2025730A00DC
:100AF00070B5044600BF002C08D100BF22A340F20D
:100B000063622EA136A0F5F75DFD00BF00BF206F28
:100B100010B96FF0050070BD256F07E02846FEF79D
:100B20001FF810B16FF00500F5E72D682868002860
:100B3000F4D12846FEF714F810B16FF00500EAE78B
:100B4000E06E2860206FE0660020206700BF608BA9
:100B500040F40060608300BFE9684868F8F776FDFC
:100B60000646E9688889F8F77EFD00F0030008B1C1
:100B7000012000E00020298908443044E06400207E
:100B8000606300BFC7E700002E2E2F4D6964646CC0
:100B90006577617265732F54686972645F50617222
:100BA00074792F4C7749502F7372632F636F72657E
:100BB0002F7463705F6F75742E6300007463705FD1
:100BC0007265786D69745F72746F5F707265706161
:100BD00072653A20696E76616C69642070636200A8
:100BE000417373657274696F6E20222573222066CB
:100BF00061696C6564206174206C696E6520256490
:100C000020696E2025730A0070B504460E4615460D
:100C10002CB1207A18B1207AF9F7D8FC70BD28469B
:100C2000F7F742FFFAE700002DE9F04F85B0834661
:100C30000F4690461D46DDF8389000BF002D08D1C4
:100C400000BF1EA340F2C47229A130A0F5F7BAFC80
:100C500000BF00BF00BFB9F1000F08D100BF17A34C
:100C600040F2C57233A129A0F5F7ACFC00BF00BF6C
:100C7000002646F2080A3846F8F7E8FC14220490E9
:100C8000DDE90F018DE80704002231464046049B50
:100C9000FDF79EFC044614B905B0BDE8F08F33465D
:100CA000002221465846FDF7A3FD4B462A46214621
:100CB0005846FDF71FFD00BFEEE700002E2E2F4D1A
:100CC0006964646C6577617265732F5468697264D6
:100CD0005F50617274792F4C7749502F7372632F74
:100CE000636F72652F7463705F6F75742E6300009D
:100CF0007463705F7273743A20696E76616C6964B4
:100D0000206C6F63616C5F697000000041737365F4
:100D10007274696F6E2022257322206661696C658A
:100D200064206174206C696E6520256420696E20E2
:100D300025730A007463705F7273743A20696E766B
:100D4000616C69642072656D6F74655F6970000025
:100D500070B5054600BF002D08D100BF0CA340F2BE
:100D6000826217A11DA0F5F72DFC00BF00BF032074
:100D7000F9F7CAF904460CB9002070BD95E80F00D8
:100D800084E80F006068FAF7ADFE2046F5E7000042
:100D90002E2E2F4D6964646C6577617265732F54D4
:100DA000686972645F50617274792F4C7749502F73
:100DB0007372632F636F72652F7463702E6300000C
:100DC0007463705F7365675F636F70793A20696EF3
:100DD00076616C6964207365670000004173736518
:100DE0007274696F6E2022257322206661696C65BA
:100DF00064206174206C696E6520256420696E2012
:100E000025730A0010B5044644B1606810B16068EB
:100E1000FAF788FC21460320F9F7A8F810BD70B551
:100E2000044605E025682046FFF7ECFF2C4600BF8E
:100E3000002CF7D170BD00002DE9F04704460025D5
:100E4000A94600BF002C08D100BF2CA340F2EA72D3
:100E500037A13FA0F5F7B6FB00BF00BF05F00100CA
:100E600008B1042000E0002005F0020109B10021D2
:100E700000E00021084405F0080109B1002100E06C
:100E80000021084405F0100109B1002100E0002113
:100E900000EB0108206DF8F7D9FB8246534600228B
:100EA00041462046FDF726FB06464EB900BF608B43
:100EB00040F00300608300BF6FF00100BDE8F087E1
:100EC0004B462A4631462046FDF792FC231D22461A
:100ED00031462046FDF70EFC07462FB100BF608B60
:100EE00040F00300608306E000BF608B4FF6FC71AA
:100EF0000840608300BF3846E0E700002E2E2F4DEB
:100F00006964646C6577617265732F546869726493
:100F10005F50617274792F4C7749502F7372632F31
:100F2000636F72652F7463705F6F75742E6300005A
:100F30007463705F73656E645F656D7074795F6113
:100F4000636B3A20696E76616C696420706362003D
:100F5000417373657274696F6E2022257322206657
:100F600061696C6564206174206C696E652025641C
:100F700020696E2025730A0070B5044600BF002C5E
:100F800008D100BF16A340F2EB3222A128A0F5F74A
:100F900019FB00BF00BFE06EE8B1E56E00E02D6810
:100FA00028680028FBD1E9688889F8F75CFB00F025
:100FB000070078B90120F8F756FBE96889890843EA
:100FC000E968888100BF608B40F02000608300BF2B
:100FD000002070BD00BF01212046FBF709FDF8E7A6
:100FE0002E2E2F4D6964646C6577617265732F5482
:100FF000686972645F50617274792F4C7749502F21
:101000007372632F636F72652F7463705F6F757493
:101010002E6300007463705F73656E645F66696E53
:101020003A20696E76616C6964207063620000002A
:10103000417373657274696F6E2022257322206676
:1010400061696C6564206174206C696E652025643B
:1010500020696E2025730A002DE9F04F85B04FF00E
:101060000009E9480068401CE7490860E748007843
:10107000401CE649087000BF0025E5480468E3E22B
:1010800000BF207D002808D100BFE2A340F2BE428D
:10109000ECA1F7A0F5F796FA00BF00BF00BF207DD6
:1010A000012808D100BFDBA340F2BF42FAA1F0A0A3
:1010B000F5F788FA00BF00BF00BF207D0A2808D1DD
:1010C00000BFD4A34FF49862FEA1E9A0F5F77AFA25
:1010D00000BF00BFA07FCD490978884202D12546D4
:1010E000E468B1E2C9480078A0770026B046207DC8
:1010F000022806D194F84200062802DB701CC6B212
:10110000D1E094F842000C2802DB701CC6B2CAE0A1
:1011100094F8990000285DDD00BF206F002808D0FA
:1011200000BFBCA340F2D442F2A1D1A0F5F74AFA25
:1011300000BF00BF00BFE06E002808D100BFB5A30C
:1011400040F2D542F8A1CAA0F5F73CFA00BF00BFB3
:1011500094F89A000C2802DB701CC6B2A3E094F845
:101160009900401EFE490F5C94F89800B84204DADA
:1011700094F89800401C84F8980094F89800B842BD
:1011800027DB4FF0010AB4F8600030B9204600F0C8
:10119000CBFD70B14FF0000A0BE0B4F860102046B0
:1011A00000F0F4FA28B92046FCF7F2FF08B94FF036
:1011B000000ABAF1000F0BD0002084F8980094F8D0
:1011C0009900072804D294F89900401C84F89900EB
:1011D00000BF68E0B4F93000002809DBB4F9300042
:1011E00047F6FF71884203DA208E401C00B2208649
:1011F000B4F93000B4F94010884254DB2046FFF7C0
:1012000077FC18B1206F70BBE06E60B3207D0228C0
:101210001ED094F842200C2A02D294F8422000E01A
:101220000C221146B4F93E20B4F93C3002EBE30243
:10123000CC4B5B5C02FA03F047F6FF72904201DA96
:10124000024601E047F6FF7212B2A4F8402000BF48
:1012500000202086B4F84800B4F86010884203DA11
:10126000B4F8480002E01EE0B4F86000049004986E
:101270004010A4F84A00B4F84A00618E4FF6FF729D
:1012800002EA4101884205DA608E114601EA400017
:10129000A4F84A00608EA4F848000020A4F86A0070
:1012A0002046FFF7C9FB207D06280BD1A07E00F069
:1012B000100038B15449206A0968081A282801D951
:1012C000701CC6B2607A00F00800D0B3207D0428FC
:1012D00002D0207D072834D1A349D4F894000844D3
:1012E0004FF4FA71B0FBF1F0474A216A1268511AC3
:1012F000884206D2701CC6B208F1010000F0FF0857
:101300001FE094F89B1042F29F4211FB02F1D4F8C7
:10131000940000EBC1004FF4FA71B0FBF1F03A4ACF
:10132000216A1268511A88420BD22046FCF728FB2A
:101330008146B9F1000F04D194F89B00401C84F859
:101340009B00606F68B13049206A0968081AB4F9D7
:10135000401001EB4101B0EB410F02D32046FBF7F7
:101360003BFE207D032807D12749206A0968081A17
:10137000282801D9701CC6B2207D092807D122492E
:10138000206A0968081AF02801D9701CC6B2002E1C
:1013900037D0D4F890A02046FDF7D4FC8DB100BF23
:1013A0001B480068844208D100BF1AA340F26D5266
:1013B0006EA12FA0F5F706F900BF00BFE068E86056
:1013C00011E000BF12480068A04208D000BF11A37E
:1013D00040F2715270A126A0F5F7F4F800BF00BFEB
:1013E0000B49E0680860B8F1000F0BD0208BE18A50
:1013F000221DCDE90021029023462046626A216D1C
:10140000E0E0FBE0E0E0000090000024A600002403
:101410009C0000242E2E2F4D6964646C65776172E8
:1014200065732F54686972645F50617274792F4CD0
:101430007749502F7372632F636F72652F746370D7
:101440002E6300007463705F736C6F77746D723A13
:1014500020616374697665207063622D3E737461E8
:10146000746520213D20434C4F5345440A00000041
:10147000417373657274696F6E2022257322206632
:1014800061696C6564206174206C696E65202564F7
:1014900020696E2025730A007463705F736C6F7728
:1014A000746D723A20616374697665207063622D91
:1014B0003E737461746520213D204C495354454E60
:1014C0000A0000007463705F736C6F77746D723A1A
:1014D00020616374697665207063622D3E73746168
:1014E000746520213D2054494D452D574149540AEA
:1014F000000000007463705F736C6F7774696D72C5
:101500003A2070657273697374207469636B696ED5
:1015100067207769746820696E2D666C69676874E6
:1015200020646174610000007463705F736C6F7796
:1015300074696D723A20706572736973742074698E
:10154000636B696E67207769746820656D70747964
:101550002073656E64206275666665720000000027
:10156000B5230108A8230108B84C0A007463705F12
:10157000736C6F77746D723A206D6964646C65206A
:1015800074637020213D207463705F6163746976B9
:10159000655F7063627300007463705F736C6F7774
:1015A000746D723A20666972737420706362203DB4
:1015B0003D207463705F6163746976655F70636218
:1015C00073000000FFF730FBD4F810B0207D0390CB
:1015D0002746E4683846FBF7B9FB00204849087005
:1015E00000BFBAF1000F03D06FF00C015846D0478E
:1015F00000BF4348007800B13EE524E02546E4689A
:10160000287F401C2877287F697F88421BDB0020C9
:1016100028773B49087000BFD5F88C0030B12946C7
:10162000D5F88C2028699047814601E04FF00009E9
:1016300000BF3348007800B11EE5B9F1000F02D1B8
:101640002846FCF7A5FD00BF002C7FF419AD00254E
:101650002C4804684EE000BF207D0A280AD000BF55
:10166000AFF2502340F2A15227A1AFF2FC10F4F7E1
:10167000A9FF00BF00BF00262F49206A0968081A89
:10168000F02801D9701CC6B2002E31D02046FDF7DB
:1016900059FB9DB100BF1B48006884420AD100BFBE
:1016A000AFF2902340F2AF5224A1AFF23C20F4F706
:1016B00089FF00BF00BFE068E86013E000BF114889
:1016C0000068A0420AD000BFAFF2B82340F2B35284
:1016D00024A1AFF26420F4F775FF00BF00BF0949F1
:1016E000E06808602746E4683846FBF72FFB01E016
:1016F0002546E468002CAED105B0BDE8F08F0000AF
:10170000A4000024A00000247463705F736C6F77E2
:10171000746D723A2054494D452D574149542070FB
:1017200063622D3E7374617465203D3D2054494DC4
:10173000452D574149540000900000247463705FA8
:10174000736C6F77746D723A206D6964646C652098
:1017500074637020213D207463705F74775F7063E1
:10176000627300007463705F736C6F77746D723AAC
:1017700020666972737420706362203D3D2074633B
:10178000705F74775F706362730000002DE9F04F43
:1017900085B005460E4600270024A34600BF002D55
:1017A00008D100BF79A340F24B3285A18DA0F4F798
:1017B00009FF00BF00BFEC6E24B94FF0FF3005B049
:1017C000BDE8F08F002E0CD100BF00BF6FA340F228
:1017D00053328EA183A0F4F7F5FE00BF00BFB01F07
:1017E000EDE72089B04201DC0020E8E700BF688E09
:1017F000B04208DA00BF65A340F25B328CA179A049
:10180000F4F7E0FE00BF00BF00BF2089002808DC1D
:1018100000BF5EA34FF4577289A172A0F4F7D2FE05
:1018200000BF00BF94F80A8008F0010008B104204E
:1018300000E0002008F0020109B1002100E00021D1
:10184000084408F0080109B1002100E00021084423
:1018500008F0100109B1002100E0002108440490C3
:101860002089801B1FFA80FA0498504481B24FF4FB
:1018700020723620F9F7C0FA8346BBF1000F00D181
:101880006EE0606800892189401A304480B202907D
:10189000DBF80430049A991860685246029BF9F705
:1018A000A1FE504500D05BE0E1688889F7F7DBFED8
:1018B00000F03F090020039009F0080028B129F04A
:1018C0000809039840F00800039009F0010028B1CE
:1018D00029F00109039840F001000390E16848688D
:1018E000F7F7B4FE30440346CDE900805946284658
:1018F000039AFAF729FF074607B931E06068F9F75C
:10190000FBFC35F8661F081A288062681289A2EB72
:101910000A0291B26068FAF731F82089A0EB0A0058
:1019200020814846F7F79FFEE16889890843E1680E
:1019300088816068F9F7E0FC298808442880786885
:10194000F9F7DAFC2988084425F866092068386028
:101950002760386810B90020A5F8680000202EE73D
:1019600000BF47B100BF09A34FF4767238A11DA094
:10197000F4F728FE00BF00BFBBF1000F02D05846AD
:10198000F9F7D0FE4FF0FF3019E700002E2E2F4D53
:101990006964646C6577617265732F5468697264F9
:1019A0005F50617274792F4C7749502F7372632F97
:1019B000636F72652F7463705F6F75742E630000C0
:1019C0007463705F73706C69745F756E73656E7449
:1019D0005F7365673A20696E76616C696420706335
:1019E00062000000417373657274696F6E20222576
:1019F0007322206661696C6564206174206C696E75
:101A00006520256420696E2025730A0043616E27D6
:101A1000742073706C6974207365676D656E7420D3
:101A2000696E746F206C656E67746820300000000A
:101A300073706C6974203C3D206D7373000000006E
:101A4000757365672D3E6C656E203E20300000008A
:101A5000736567203D3D204E554C4C0010B509483C
:101A6000006868B90848006810B90848006838B1CB
:101A700001200449086000220549FA20FAF724FAF7
:101A800010BD0000DC0000249C000024A000002405
:101A9000991E01083EB504462948007800F004006C
:101AA00000B13EBD00BF002C08D100BF25A340F20D
:101AB000EE2231A138A0F4F785FD00BF00BF204819
:101AC000007800F0020018B33D49606A0968081AFE
:101AD00026D4218D606A084439490968081A00280B
:101AE0001EDC384800680088364909684988364A4B
:101AF000CDE9002102903248006834490988421833
:101B0000314B1B1D324801682046FFF78DF8C8E7AE
:101B10000B48007800F0010010B12E4800682062E8
:101B20002A480088002808DD00BF608B40F00200D2
:101B3000608300BF2046FCF72BFB00BFB1E700002D
:101B4000C80000242E2E2F4D6964646C6577617285
:101B500065732F54686972645F50617274792F4C99
:101B60007749502F7372632F636F72652F746370A0
:101B70005F696E2E630000007463705F74696D6549
:101B8000776169745F696E7075743A20696E766109
:101B90006C69642070636200417373657274696F6D
:101BA0006E2022257322206661696C656420617451
:101BB000206C696E6520256420696E2025730A00FB
:101BC000BC000024AC000024684C0024C6000024A3
:101BD000C00000249000002410B5FBF769F8064807
:101BE0000078401CC0B20449087000F0010008B140
:101BF000FFF732FA10BD0000A5000024034800786A
