Component: ARM Compiler 5.06 update 7 (build 960) Tool: armlink [4d3601]

==============================================================================

Section Cross References

    startup_stm32h743xx.o(RESET) refers to startup_stm32h743xx.o(STACK) for __initial_sp
    startup_stm32h743xx.o(RESET) refers to startup_stm32h743xx.o(.text) for Reset_Handler
    startup_stm32h743xx.o(RESET) refers to stm32h7xx_it.o(i.NMI_Handler) for NMI_Handler
    startup_stm32h743xx.o(RESET) refers to stm32h7xx_it.o(i.HardFault_Handler) for HardFault_Handler
    startup_stm32h743xx.o(RESET) refers to stm32h7xx_it.o(i.MemManage_Handler) for MemManage_Handler
    startup_stm32h743xx.o(RESET) refers to stm32h7xx_it.o(i.BusFault_Handler) for BusFault_Handler
    startup_stm32h743xx.o(RESET) refers to stm32h7xx_it.o(i.UsageFault_Handler) for UsageFault_Handler
    startup_stm32h743xx.o(RESET) refers to stm32h7xx_it.o(i.SVC_Handler) for SVC_Handler
    startup_stm32h743xx.o(RESET) refers to stm32h7xx_it.o(i.DebugMon_Handler) for DebugMon_Handler
    startup_stm32h743xx.o(RESET) refers to stm32h7xx_it.o(i.PendSV_Handler) for PendSV_Handler
    startup_stm32h743xx.o(RESET) refers to stm32h7xx_it.o(i.SysTick_Handler) for SysTick_Handler
    startup_stm32h743xx.o(RESET) refers to stm32h7xx_it.o(i.USART1_IRQHandler) for USART1_IRQHandler
    startup_stm32h743xx.o(RESET) refers to stm32h7xx_it.o(i.ETH_IRQHandler) for ETH_IRQHandler
    startup_stm32h743xx.o(RESET) refers to stm32h7xx_it.o(i.ETH_WKUP_IRQHandler) for ETH_WKUP_IRQHandler
    startup_stm32h743xx.o(.text) refers to system_stm32h7xx.o(i.SystemInit) for SystemInit
    startup_stm32h743xx.o(.text) refers to entry.o(.ARM.Collect$$$$00000000) for __main
    main.o(i.MPU_Config) refers to stm32h7xx_hal_cortex.o(i.HAL_MPU_Disable) for HAL_MPU_Disable
    main.o(i.MPU_Config) refers to stm32h7xx_hal_cortex.o(i.HAL_MPU_ConfigRegion) for HAL_MPU_ConfigRegion
==============================================================================

Removing Unused input sections from the image.

    Removing startup_stm32h743xx.o(HEAP), (8192 bytes).
    Removing main.o(.rev16_text), (4 bytes).
    Removing main.o(.revsh_text), (4 bytes).
    Removing main.o(.rrx_text), (6 bytes).
    Removing main.o(i.__io_putchar), (24 bytes).
    Removing gpio.o(.rev16_text), (4 bytes).
    Removing gpio.o(.revsh_text), (4 bytes).
    Removing gpio.o(.rrx_text), (6 bytes).
    Removing usart.o(.rev16_text), (4 bytes).
    Removing usart.o(.revsh_text), (4 bytes).
    Removing usart.o(.rrx_text), (6 bytes).
    Removing usart.o(i.HAL_UART_MspDeInit), (56 bytes).
    Removing stm32h7xx_it.o(.rev16_text), (4 bytes).
    Removing stm32h7xx_it.o(.revsh_text), (4 bytes).
    Removing stm32h7xx_it.o(.rrx_text), (6 bytes).
    Removing stm32h7xx_hal_msp.o(.rev16_text), (4 bytes).
    Removing stm32h7xx_hal_msp.o(.revsh_text), (4 bytes).
    Removing stm32h7xx_hal_msp.o(.rrx_text), (6 bytes).
==============================================================================

Image Symbol Table

    Local Symbols

    Symbol Name                              Value     Ov Type        Size  Object(Section)

    ../Core/Src/gpio.c                       0x00000000   Number         0  gpio.o ABSOLUTE
    ../Core/Src/main.c                       0x00000000   Number         0  main.o ABSOLUTE
    ../Core/Src/stm32h7xx_hal_msp.c          0x00000000   Number         0  stm32h7xx_hal_msp.o ABSOLUTE
    ../Core/Src/stm32h7xx_it.c               0x00000000   Number         0  stm32h7xx_it.o ABSOLUTE
    ../Core/Src/system_stm32h7xx.c           0x00000000   Number         0  system_stm32h7xx.o ABSOLUTE
    ../Core/Src/usart.c                      0x00000000   Number         0  usart.o ABSOLUTE
    ../Drivers/BSP/Components/lan8742/lan8742.c 0x00000000   Number         0  lan8742.o ABSOLUTE
    ../Drivers/STM32H7xx_HAL_Driver/Src/stm32h7xx_hal.c 0x00000000   Number         0  stm32h7xx_hal.o ABSOLUTE
    ../Drivers/STM32H7xx_HAL_Driver/Src/stm32h7xx_hal_cortex.c 0x00000000   Number         0  stm32h7xx_hal_cortex.o ABSOLUTE
    ../Drivers/STM32H7xx_HAL_Driver/Src/stm32h7xx_hal_dma.c 0x00000000   Number         0  stm32h7xx_hal_dma.o ABSOLUTE
    ../Drivers/STM32H7xx_HAL_Driver/Src/stm32h7xx_hal_dma_ex.c 0x00000000   Number         0  stm32h7xx_hal_dma_ex.o ABSOLUTE
    ../Drivers/STM32H7xx_HAL_Driver/Src/stm32h7xx_hal_eth.c 0x00000000   Number         0  stm32h7xx_hal_eth.o ABSOLUTE
    ../Drivers/STM32H7xx_HAL_Driver/Src/stm32h7xx_hal_eth_ex.c 0x00000000   Number         0  stm32h7xx_hal_eth_ex.o ABSOLUTE
    ../Drivers/STM32H7xx_HAL_Driver/Src/stm32h7xx_hal_exti.c 0x00000000   Number         0  stm32h7xx_hal_exti.o ABSOLUTE
    ../Drivers/STM32H7xx_HAL_Driver/Src/stm32h7xx_hal_flash.c 0x00000000   Number         0  stm32h7xx_hal_flash.o ABSOLUTE
    ../Drivers/STM32H7xx_HAL_Driver/Src/stm32h7xx_hal_flash_ex.c 0x00000000   Number         0  stm32h7xx_hal_flash_ex.o ABSOLUTE
    ../Drivers/STM32H7xx_HAL_Driver/Src/stm32h7xx_hal_gpio.c 0x00000000   Number         0  stm32h7xx_hal_gpio.o ABSOLUTE
    ../Drivers/STM32H7xx_HAL_Driver/Src/stm32h7xx_hal_hsem.c 0x00000000   Number         0  stm32h7xx_hal_hsem.o ABSOLUTE
    ../Drivers/STM32H7xx_HAL_Driver/Src/stm32h7xx_hal_i2c.c 0x00000000   Number         0  stm32h7xx_hal_i2c.o ABSOLUTE
    ../Drivers/STM32H7xx_HAL_Driver/Src/stm32h7xx_hal_i2c_ex.c 0x00000000   Number         0  stm32h7xx_hal_i2c_ex.o ABSOLUTE
    ../Drivers/STM32H7xx_HAL_Driver/Src/stm32h7xx_hal_mdma.c 0x00000000   Number         0  stm32h7xx_hal_mdma.o ABSOLUTE
    ../Drivers/STM32H7xx_HAL_Driver/Src/stm32h7xx_hal_pwr.c 0x00000000   Number         0  stm32h7xx_hal_pwr.o ABSOLUTE
    ../Drivers/STM32H7xx_HAL_Driver/Src/stm32h7xx_hal_pwr_ex.c 0x00000000   Number         0  stm32h7xx_hal_pwr_ex.o ABSOLUTE
    ../Drivers/STM32H7xx_HAL_Driver/Src/stm32h7xx_hal_rcc.c 0x00000000   Number         0  stm32h7xx_hal_rcc.o ABSOLUTE
    ../Drivers/STM32H7xx_HAL_Driver/Src/stm32h7xx_hal_rcc_ex.c 0x00000000   Number         0  stm32h7xx_hal_rcc_ex.o ABSOLUTE
    ../Drivers/STM32H7xx_HAL_Driver/Src/stm32h7xx_hal_tim.c 0x00000000   Number         0  stm32h7xx_hal_tim.o ABSOLUTE
    ../Drivers/STM32H7xx_HAL_Driver/Src/stm32h7xx_hal_tim_ex.c 0x00000000   Number         0  stm32h7xx_hal_tim_ex.o ABSOLUTE
    ../Drivers/STM32H7xx_HAL_Driver/Src/stm32h7xx_hal_uart.c 0x00000000   Number         0  stm32h7xx_hal_uart.o ABSOLUTE
    ../Drivers/STM32H7xx_HAL_Driver/Src/stm32h7xx_hal_uart_ex.c 0x00000000   Number         0  stm32h7xx_hal_uart_ex.o ABSOLUTE
    ../LWIP/App/lwip.c                       0x00000000   Number         0  lwip.o ABSOLUTE
    ../LWIP/Target/ethernetif.c              0x00000000   Number         0  ethernetif.o ABSOLUTE
    ../Middlewares/Third_Party/LwIP/src/api/api_lib.c 0x00000000   Number         0  api_lib.o ABSOLUTE
    ../Middlewares/Third_Party/LwIP/src/api/api_msg.c 0x00000000   Number         0  api_msg.o ABSOLUTE
    ../Middlewares/Third_Party/LwIP/src/api/err.c 0x00000000   Number         0  err.o ABSOLUTE
    ../Middlewares/Third_Party/LwIP/src/api/if_api.c 0x00000000   Number         0  if_api.o ABSOLUTE
    ../Middlewares/Third_Party/LwIP/src/api/netbuf.c 0x00000000   Number         0  netbuf.o ABSOLUTE
    ../Middlewares/Third_Party/LwIP/src/api/netdb.c 0x00000000   Number         0  netdb.o ABSOLUTE
    ../Middlewares/Third_Party/LwIP/src/api/netifapi.c 0x00000000   Number         0  netifapi.o ABSOLUTE
    ../Middlewares/Third_Party/LwIP/src/api/sockets.c 0x00000000   Number         0  sockets.o ABSOLUTE
    ../Middlewares/Third_Party/LwIP/src/api/tcpip.c 0x00000000   Number         0  tcpip.o ABSOLUTE
    ../Middlewares/Third_Party/LwIP/src/apps/mqtt/mqtt.c 0x00000000   Number         0  mqtt.o ABSOLUTE
    ../Middlewares/Third_Party/LwIP/src/core/altcp.c 0x00000000   Number         0  altcp.o ABSOLUTE
    ../Middlewares/Third_Party/LwIP/src/core/altcp_alloc.c 0x00000000   Number         0  altcp_alloc.o ABSOLUTE
    ../Middlewares/Third_Party/LwIP/src/core/altcp_tcp.c 0x00000000   Number         0  altcp_tcp.o ABSOLUTE
    ../Middlewares/Third_Party/LwIP/src/core/def.c 0x00000000   Number         0  def.o ABSOLUTE
    ../Middlewares/Third_Party/LwIP/src/core/dns.c 0x00000000   Number         0  dns.o ABSOLUTE
    ../Middlewares/Third_Party/LwIP/src/core/inet_chksum.c 0x00000000   Number         0  inet_chksum.o ABSOLUTE
    ../Middlewares/Third_Party/LwIP/src/core/init.c 0x00000000   Number         0  init.o ABSOLUTE
    ../Middlewares/Third_Party/LwIP/src/core/ip.c 0x00000000   Number         0  ip.o ABSOLUTE
    ../Middlewares/Third_Party/LwIP/src/core/ipv4/autoip.c 0x00000000   Number         0  autoip.o ABSOLUTE
    ../Middlewares/Third_Party/LwIP/src/core/ipv4/dhcp.c 0x00000000   Number         0  dhcp.o ABSOLUTE
    ../Middlewares/Third_Party/LwIP/src/core/ipv4/etharp.c 0x00000000   Number         0  etharp.o ABSOLUTE
    ../Middlewares/Third_Party/LwIP/src/core/ipv4/icmp.c 0x00000000   Number         0  icmp.o ABSOLUTE
    ../Middlewares/Third_Party/LwIP/src/core/ipv4/igmp.c 0x00000000   Number         0  igmp.o ABSOLUTE
    ../Middlewares/Third_Party/LwIP/src/core/ipv4/ip4.c 0x00000000   Number         0  ip4.o ABSOLUTE
    ../Middlewares/Third_Party/LwIP/src/core/ipv4/ip4_addr.c 0x00000000   Number         0  ip4_addr.o ABSOLUTE
    ../Middlewares/Third_Party/LwIP/src/core/ipv4/ip4_frag.c 0x00000000   Number         0  ip4_frag.o ABSOLUTE
    ../Middlewares/Third_Party/LwIP/src/core/ipv6/dhcp6.c 0x00000000   Number         0  dhcp6.o ABSOLUTE
    ../Middlewares/Third_Party/LwIP/src/core/ipv6/ethip6.c 0x00000000   Number         0  ethip6.o ABSOLUTE
    ../Middlewares/Third_Party/LwIP/src/core/ipv6/icmp6.c 0x00000000   Number         0  icmp6.o ABSOLUTE
    ../Middlewares/Third_Party/LwIP/src/core/ipv6/inet6.c 0x00000000   Number         0  inet6.o ABSOLUTE
    ../Middlewares/Third_Party/LwIP/src/core/ipv6/ip6.c 0x00000000   Number         0  ip6.o ABSOLUTE
    ../Middlewares/Third_Party/LwIP/src/core/ipv6/ip6_addr.c 0x00000000   Number         0  ip6_addr.o ABSOLUTE
    ../Middlewares/Third_Party/LwIP/src/core/ipv6/ip6_frag.c 0x00000000   Number         0  ip6_frag.o ABSOLUTE
    ../Middlewares/Third_Party/LwIP/src/core/ipv6/mld6.c 0x00000000   Number         0  mld6.o ABSOLUTE
    ../Middlewares/Third_Party/LwIP/src/core/ipv6/nd6.c 0x00000000   Number         0  nd6.o ABSOLUTE
    ../Middlewares/Third_Party/LwIP/src/core/mem.c 0x00000000   Number         0  mem.o ABSOLUTE
    ../Middlewares/Third_Party/LwIP/src/core/memp.c 0x00000000   Number         0  memp.o ABSOLUTE
    ../Middlewares/Third_Party/LwIP/src/core/netif.c 0x00000000   Number         0  netif.o ABSOLUTE
    ../Middlewares/Third_Party/LwIP/src/core/pbuf.c 0x00000000   Number         0  pbuf.o ABSOLUTE
    ../Middlewares/Third_Party/LwIP/src/core/raw.c 0x00000000   Number         0  raw.o ABSOLUTE
    ../Middlewares/Third_Party/LwIP/src/core/stats.c 0x00000000   Number         0  stats.o ABSOLUTE
    ../Middlewares/Third_Party/LwIP/src/core/sys.c 0x00000000   Number         0  sys_1.o ABSOLUTE
    ../Middlewares/Third_Party/LwIP/src/core/tcp.c 0x00000000   Number         0  tcp.o ABSOLUTE
    ../Middlewares/Third_Party/LwIP/src/core/tcp_in.c 0x00000000   Number         0  tcp_in.o ABSOLUTE
    ../Middlewares/Third_Party/LwIP/src/core/tcp_out.c 0x00000000   Number         0  tcp_out.o ABSOLUTE
    ../Middlewares/Third_Party/LwIP/src/core/timeouts.c 0x00000000   Number         0  timeouts.o ABSOLUTE
    ../Middlewares/Third_Party/LwIP/src/core/udp.c 0x00000000   Number         0  udp.o ABSOLUTE
    ../Middlewares/Third_Party/LwIP/src/netif/bridgeif.c 0x00000000   Number         0  bridgeif.o ABSOLUTE
    ../Middlewares/Third_Party/LwIP/src/netif/bridgeif_fdb.c 0x00000000   Number         0  bridgeif_fdb.o ABSOLUTE
    ../Middlewares/Third_Party/LwIP/src/netif/ethernet.c 0x00000000   Number         0  ethernet.o ABSOLUTE
    ../Middlewares/Third_Party/LwIP/src/netif/lowpan6.c 0x00000000   Number         0  lowpan6.o ABSOLUTE
    ../Middlewares/Third_Party/LwIP/src/netif/lowpan6_ble.c 0x00000000   Number         0  lowpan6_ble.o ABSOLUTE
    ../Middlewares/Third_Party/LwIP/src/netif/lowpan6_common.c 0x00000000   Number         0  lowpan6_common.o ABSOLUTE
    ../Middlewares/Third_Party/LwIP/src/netif/ppp/auth.c 0x00000000   Number         0  auth.o ABSOLUTE
    ../Middlewares/Third_Party/LwIP/src/netif/ppp/ccp.c 0x00000000   Number         0  ccp.o ABSOLUTE
    ../Middlewares/Third_Party/LwIP/src/netif/ppp/chap-md5.c 0x00000000   Number         0  chap-md5.o ABSOLUTE
    ../Middlewares/Third_Party/LwIP/src/netif/ppp/chap-new.c 0x00000000   Number         0  chap-new.o ABSOLUTE
    ../Middlewares/Third_Party/LwIP/src/netif/ppp/chap_ms.c 0x00000000   Number         0  chap_ms.o ABSOLUTE
    ../Middlewares/Third_Party/LwIP/src/netif/ppp/demand.c 0x00000000   Number         0  demand.o ABSOLUTE
    ../Middlewares/Third_Party/LwIP/src/netif/ppp/eap.c 0x00000000   Number         0  eap.o ABSOLUTE
    ../Middlewares/Third_Party/LwIP/src/netif/ppp/ecp.c 0x00000000   Number         0  ecp.o ABSOLUTE
    ../Middlewares/Third_Party/LwIP/src/netif/ppp/eui64.c 0x00000000   Number         0  eui64.o ABSOLUTE
    ../Middlewares/Third_Party/LwIP/src/netif/ppp/fsm.c 0x00000000   Number         0  fsm.o ABSOLUTE
    ../Middlewares/Third_Party/LwIP/src/netif/ppp/ipcp.c 0x00000000   Number         0  ipcp.o ABSOLUTE
    ../Middlewares/Third_Party/LwIP/src/netif/ppp/ipv6cp.c 0x00000000   Number         0  ipv6cp.o ABSOLUTE
    ../Middlewares/Third_Party/LwIP/src/netif/ppp/lcp.c 0x00000000   Number         0  lcp.o ABSOLUTE
    ../Middlewares/Third_Party/LwIP/src/netif/ppp/magic.c 0x00000000   Number         0  magic.o ABSOLUTE
    ../Middlewares/Third_Party/LwIP/src/netif/ppp/mppe.c 0x00000000   Number         0  mppe.o ABSOLUTE
    ../Middlewares/Third_Party/LwIP/src/netif/ppp/multilink.c 0x00000000   Number         0  multilink.o ABSOLUTE
    ../Middlewares/Third_Party/LwIP/src/netif/ppp/ppp.c 0x00000000   Number         0  ppp.o ABSOLUTE
    ../Middlewares/Third_Party/LwIP/src/netif/ppp/pppapi.c 0x00000000   Number         0  pppapi.o ABSOLUTE
    ../Middlewares/Third_Party/LwIP/src/netif/ppp/pppcrypt.c 0x00000000   Number         0  pppcrypt.o ABSOLUTE
    ../Middlewares/Third_Party/LwIP/src/netif/ppp/pppoe.c 0x00000000   Number         0  pppoe.o ABSOLUTE
    ../Middlewares/Third_Party/LwIP/src/netif/ppp/pppol2tp.c 0x00000000   Number         0  pppol2tp.o ABSOLUTE
    ../Middlewares/Third_Party/LwIP/src/netif/ppp/pppos.c 0x00000000   Number         0  pppos.o ABSOLUTE
    ../Middlewares/Third_Party/LwIP/src/netif/ppp/upap.c 0x00000000   Number         0  upap.o ABSOLUTE
    ../Middlewares/Third_Party/LwIP/src/netif/ppp/utils.c 0x00000000   Number         0  utils.o ABSOLUTE
    ../Middlewares/Third_Party/LwIP/src/netif/ppp/vj.c 0x00000000   Number         0  vj.o ABSOLUTE
    ../Middlewares/Third_Party/LwIP/src/netif/slipif.c 0x00000000   Number         0  slipif.o ABSOLUTE
    ../Middlewares/Third_Party/LwIP/src/netif/zepif.c 0x00000000   Number         0  zepif.o ABSOLUTE
    ../clib/microlib/ctype/ctype.c           0x00000000   Number         0  isdigit_o.o ABSOLUTE
    ../clib/microlib/ctype/ctype.c           0x00000000   Number         0  isxdigit_o.o ABSOLUTE
    ../clib/microlib/ctype/ctype.c           0x00000000   Number         0  isupper_o.o ABSOLUTE
    ../clib/microlib/ctype/ctype.c           0x00000000   Number         0  isspace_o.o ABSOLUTE
    ../clib/microlib/ctype/ctype.c           0x00000000   Number         0  ispunct_o.o ABSOLUTE
    ../clib/microlib/ctype/ctype.c           0x00000000   Number         0  isprint_o.o ABSOLUTE
    ../clib/microlib/ctype/ctype.c           0x00000000   Number         0  islower_o.o ABSOLUTE
    ../clib/microlib/ctype/ctype.c           0x00000000   Number         0  iscntrl_o.o ABSOLUTE
    ../clib/microlib/ctype/ctype.c           0x00000000   Number         0  isblank_o.o ABSOLUTE
    ../clib/microlib/ctype/ctype.c           0x00000000   Number         0  isalpha_o.o ABSOLUTE
    ../clib/microlib/ctype/ctype.c           0x00000000   Number         0  isalnum_o.o ABSOLUTE
    ../clib/microlib/ctype/ctype.c           0x00000000   Number         0  ctype_o.o ABSOLUTE
    ../clib/microlib/ctype/ctype.c           0x00000000   Number         0  isgraph_o.o ABSOLUTE
    ../clib/microlib/division.c              0x00000000   Number         0  uldiv.o ABSOLUTE
    ../clib/microlib/division.c              0x00000000   Number         0  uidiv.o ABSOLUTE
    ../clib/microlib/errno.c                 0x00000000   Number         0  errno.o ABSOLUTE
    ../clib/microlib/init/entry.s            0x00000000   Number         0  entry11b.o ABSOLUTE
    ../clib/microlib/init/entry.s            0x00000000   Number         0  entry12b.o ABSOLUTE
    ../clib/microlib/init/entry.s            0x00000000   Number         0  entry12a.o ABSOLUTE
    ../clib/microlib/init/entry.s            0x00000000   Number         0  entry11a.o ABSOLUTE
    ../clib/microlib/init/entry.s            0x00000000   Number         0  entry10b.o ABSOLUTE
    ../clib/microlib/init/entry.s            0x00000000   Number         0  entry10a.o ABSOLUTE
    ../clib/microlib/init/entry.s            0x00000000   Number         0  entry9b.o ABSOLUTE
    ../clib/microlib/init/entry.s            0x00000000   Number         0  entry.o ABSOLUTE
    ../clib/microlib/init/entry.s            0x00000000   Number         0  entry9a.o ABSOLUTE
    ../clib/microlib/init/entry.s            0x00000000   Number         0  entry5.o ABSOLUTE
    ../clib/microlib/init/entry.s            0x00000000   Number         0  entry8b.o ABSOLUTE
    ../clib/microlib/init/entry.s            0x00000000   Number         0  entry7a.o ABSOLUTE
    ../clib/microlib/init/entry.s            0x00000000   Number         0  entry7b.o ABSOLUTE
    ../clib/microlib/init/entry.s            0x00000000   Number         0  entry8a.o ABSOLUTE
    ../clib/microlib/init/entry.s            0x00000000   Number         0  entry2.o ABSOLUTE
    ../clib/microlib/longlong.c              0x00000000   Number         0  llshl.o ABSOLUTE
    ../clib/microlib/longlong.c              0x00000000   Number         0  llushr.o ABSOLUTE
    ../clib/microlib/longlong.c              0x00000000   Number         0  llsshr.o ABSOLUTE
    ../clib/microlib/printf/printf.c         0x00000000   Number         0  printf5.o ABSOLUTE
    ../clib/microlib/printf/printf.c         0x00000000   Number         0  printf7.o ABSOLUTE
    ../clib/microlib/printf/printf.c         0x00000000   Number         0  printf8.o ABSOLUTE
    ../clib/microlib/printf/printf.c         0x00000000   Number         0  printfa.o ABSOLUTE
    ../clib/microlib/printf/printf.c         0x00000000   Number         0  printf1.o ABSOLUTE
    ../clib/microlib/printf/printf.c         0x00000000   Number         0  printfb.o ABSOLUTE
    ../clib/microlib/printf/printf.c         0x00000000   Number         0  printf6.o ABSOLUTE
    ../clib/microlib/printf/printf.c         0x00000000   Number         0  printf2.o ABSOLUTE
    ../clib/microlib/printf/printf.c         0x00000000   Number         0  printf3.o ABSOLUTE
    ../clib/microlib/printf/printf.c         0x00000000   Number         0  printf0.o ABSOLUTE
    ../clib/microlib/printf/printf.c         0x00000000   Number         0  printf4.o ABSOLUTE
    ../clib/microlib/printf/stubs.s          0x00000000   Number         0  stubs.o ABSOLUTE
    ../clib/microlib/stdio/fputc.c           0x00000000   Number         0  fputc.o ABSOLUTE
    ../clib/microlib/stdio/semi.s            0x00000000   Number         0  semi.o ABSOLUTE
    ../clib/microlib/stdio/streams.c         0x00000000   Number         0  stdout.o ABSOLUTE
    ../clib/microlib/stdlib/rand.c           0x00000000   Number         0  rand.o ABSOLUTE
    ../clib/microlib/string/memcmp.c         0x00000000   Number         0  memcmp.o ABSOLUTE
    ../clib/microlib/string/memcpy.c         0x00000000   Number         0  memcpyb.o ABSOLUTE
    ../clib/microlib/string/memcpy.c         0x00000000   Number         0  memmoveb.o ABSOLUTE
    ../clib/microlib/string/memcpy.c         0x00000000   Number         0  memmovea.o ABSOLUTE
    ../clib/microlib/string/memcpy.c         0x00000000   Number         0  memcpya.o ABSOLUTE
    ../clib/microlib/string/memset.c         0x00000000   Number         0  memseta.o ABSOLUTE
    ../clib/microlib/string/strlen.c         0x00000000   Number         0  strlen.o ABSOLUTE
    ../clib/microlib/string/strncmp.c        0x00000000   Number         0  strncmp.o ABSOLUTE
    ../clib/microlib/stubs.s                 0x00000000   Number         0  iusefp.o ABSOLUTE
    ../clib/microlib/stubs.s                 0x00000000   Number         0  iusesemip.o ABSOLUTE
    ../clib/scanf.c                          0x00000000   Number         0  strtol.o ABSOLUTE
    ../clib/scanf.c                          0x00000000   Number         0  atoi.o ABSOLUTE
    ../clib/scanf.c                          0x00000000   Number         0  _strtoul.o ABSOLUTE
    ../clib/scanf.c                          0x00000000   Number         0  _chval.o ABSOLUTE
    ../fplib/microlib/fpadd.c                0x00000000   Number         0  dadd.o ABSOLUTE
    ../fplib/microlib/fpdiv.c                0x00000000   Number         0  ddiv.o ABSOLUTE
    ../fplib/microlib/fpepilogue.c           0x00000000   Number         0  depilogue.o ABSOLUTE
    ../fplib/microlib/fpfix.c                0x00000000   Number         0  dfixul.o ABSOLUTE
    ../fplib/microlib/fpmul.c                0x00000000   Number         0  dmul.o ABSOLUTE
    ..\Core\Src\gpio.c                       0x00000000   Number         0  gpio.o ABSOLUTE
    ..\Core\Src\main.c                       0x00000000   Number         0  main.o ABSOLUTE
    ..\Core\Src\stm32h7xx_hal_msp.c          0x00000000   Number         0  stm32h7xx_hal_msp.o ABSOLUTE
    ..\Core\Src\stm32h7xx_it.c               0x00000000   Number         0  stm32h7xx_it.o ABSOLUTE
    ..\Core\Src\system_stm32h7xx.c           0x00000000   Number         0  system_stm32h7xx.o ABSOLUTE
    ..\Core\Src\usart.c                      0x00000000   Number         0  usart.o ABSOLUTE
    ..\Drivers\STM32H7xx_HAL_Driver\Src\stm32h7xx_hal.c 0x00000000   Number         0  stm32h7xx_hal.o ABSOLUTE
    ..\Drivers\STM32H7xx_HAL_Driver\Src\stm32h7xx_hal_cortex.c 0x00000000   Number         0  stm32h7xx_hal_cortex.o ABSOLUTE
    ..\Drivers\STM32H7xx_HAL_Driver\Src\stm32h7xx_hal_dma.c 0x00000000   Number         0  stm32h7xx_hal_dma.o ABSOLUTE
    ..\Drivers\STM32H7xx_HAL_Driver\Src\stm32h7xx_hal_dma_ex.c 0x00000000   Number         0  stm32h7xx_hal_dma_ex.o ABSOLUTE
    ..\Drivers\STM32H7xx_HAL_Driver\Src\stm32h7xx_hal_eth.c 0x00000000   Number         0  stm32h7xx_hal_eth.o ABSOLUTE
    ..\Drivers\STM32H7xx_HAL_Driver\Src\stm32h7xx_hal_eth_ex.c 0x00000000   Number         0  stm32h7xx_hal_eth_ex.o ABSOLUTE
    ..\Drivers\STM32H7xx_HAL_Driver\Src\stm32h7xx_hal_exti.c 0x00000000   Number         0  stm32h7xx_hal_exti.o ABSOLUTE
    ..\Drivers\STM32H7xx_HAL_Driver\Src\stm32h7xx_hal_flash.c 0x00000000   Number         0  stm32h7xx_hal_flash.o ABSOLUTE
    ..\Drivers\STM32H7xx_HAL_Driver\Src\stm32h7xx_hal_flash_ex.c 0x00000000   Number         0  stm32h7xx_hal_flash_ex.o ABSOLUTE
    ..\Drivers\STM32H7xx_HAL_Driver\Src\stm32h7xx_hal_gpio.c 0x00000000   Number         0  stm32h7xx_hal_gpio.o ABSOLUTE
    ..\Drivers\STM32H7xx_HAL_Driver\Src\stm32h7xx_hal_hsem.c 0x00000000   Number         0  stm32h7xx_hal_hsem.o ABSOLUTE
    ..\Drivers\STM32H7xx_HAL_Driver\Src\stm32h7xx_hal_i2c.c 0x00000000   Number         0  stm32h7xx_hal_i2c.o ABSOLUTE
    ..\Drivers\STM32H7xx_HAL_Driver\Src\stm32h7xx_hal_i2c_ex.c 0x00000000   Number         0  stm32h7xx_hal_i2c_ex.o ABSOLUTE
    ..\Drivers\STM32H7xx_HAL_Driver\Src\stm32h7xx_hal_mdma.c 0x00000000   Number         0  stm32h7xx_hal_mdma.o ABSOLUTE
    ..\Drivers\STM32H7xx_HAL_Driver\Src\stm32h7xx_hal_pwr.c 0x00000000   Number         0  stm32h7xx_hal_pwr.o ABSOLUTE
    ..\Drivers\STM32H7xx_HAL_Driver\Src\stm32h7xx_hal_pwr_ex.c 0x00000000   Number         0  stm32h7xx_hal_pwr_ex.o ABSOLUTE
    ..\Drivers\STM32H7xx_HAL_Driver\Src\stm32h7xx_hal_rcc.c 0x00000000   Number         0  stm32h7xx_hal_rcc.o ABSOLUTE
    ..\Drivers\STM32H7xx_HAL_Driver\Src\stm32h7xx_hal_rcc_ex.c 0x00000000   Number         0  stm32h7xx_hal_rcc_ex.o ABSOLUTE
    ..\Drivers\STM32H7xx_HAL_Driver\Src\stm32h7xx_hal_tim.c 0x00000000   Number         0  stm32h7xx_hal_tim.o ABSOLUTE
    ..\Drivers\STM32H7xx_HAL_Driver\Src\stm32h7xx_hal_tim_ex.c 0x00000000   Number         0  stm32h7xx_hal_tim_ex.o ABSOLUTE
    ..\Drivers\STM32H7xx_HAL_Driver\Src\stm32h7xx_hal_uart.c 0x00000000   Number         0  stm32h7xx_hal_uart.o ABSOLUTE
    ..\Drivers\STM32H7xx_HAL_Driver\Src\stm32h7xx_hal_uart_ex.c 0x00000000   Number         0  stm32h7xx_hal_uart_ex.o ABSOLUTE
    ..\LWIP\App\lwip.c                       0x00000000   Number         0  lwip.o ABSOLUTE
    ..\LWIP\Target\ethernetif.c              0x00000000   Number         0  ethernetif.o ABSOLUTE
    ..\Middlewares\Third_Party\LwIP\src\api\api_lib.c 0x00000000   Number         0  api_lib.o ABSOLUTE
    ..\Middlewares\Third_Party\LwIP\src\api\api_msg.c 0x00000000   Number         0  api_msg.o ABSOLUTE
    ..\Middlewares\Third_Party\LwIP\src\api\err.c 0x00000000   Number         0  err.o ABSOLUTE
    ..\Middlewares\Third_Party\LwIP\src\api\if_api.c 0x00000000   Number         0  if_api.o ABSOLUTE
    ..\Middlewares\Third_Party\LwIP\src\api\netbuf.c 0x00000000   Number         0  netbuf.o ABSOLUTE
    ..\Middlewares\Third_Party\LwIP\src\api\netdb.c 0x00000000   Number         0  netdb.o ABSOLUTE
    ..\Middlewares\Third_Party\LwIP\src\api\netifapi.c 0x00000000   Number         0  netifapi.o ABSOLUTE
    ..\Middlewares\Third_Party\LwIP\src\api\sockets.c 0x00000000   Number         0  sockets.o ABSOLUTE
    ..\Middlewares\Third_Party\LwIP\src\api\tcpip.c 0x00000000   Number         0  tcpip.o ABSOLUTE
    ..\Middlewares\Third_Party\LwIP\src\apps\mqtt\mqtt.c 0x00000000   Number         0  mqtt.o ABSOLUTE
    ..\Middlewares\Third_Party\LwIP\src\core\altcp.c 0x00000000   Number         0  altcp.o ABSOLUTE
    ..\Middlewares\Third_Party\LwIP\src\core\altcp_alloc.c 0x00000000   Number         0  altcp_alloc.o ABSOLUTE
    ..\Middlewares\Third_Party\LwIP\src\core\altcp_tcp.c 0x00000000   Number         0  altcp_tcp.o ABSOLUTE
    ..\Middlewares\Third_Party\LwIP\src\core\def.c 0x00000000   Number         0  def.o ABSOLUTE
    ..\Middlewares\Third_Party\LwIP\src\core\dns.c 0x00000000   Number         0  dns.o ABSOLUTE
    ..\Middlewares\Third_Party\LwIP\src\core\inet_chksum.c 0x00000000   Number         0  inet_chksum.o ABSOLUTE
    ..\Middlewares\Third_Party\LwIP\src\core\init.c 0x00000000   Number         0  init.o ABSOLUTE
    ..\Middlewares\Third_Party\LwIP\src\core\ip.c 0x00000000   Number         0  ip.o ABSOLUTE
    ..\Middlewares\Third_Party\LwIP\src\core\ipv4\autoip.c 0x00000000   Number         0  autoip.o ABSOLUTE
    ..\Middlewares\Third_Party\LwIP\src\core\ipv4\dhcp.c 0x00000000   Number         0  dhcp.o ABSOLUTE
    ..\Middlewares\Third_Party\LwIP\src\core\ipv4\etharp.c 0x00000000   Number         0  etharp.o ABSOLUTE
    ..\Middlewares\Third_Party\LwIP\src\core\ipv4\icmp.c 0x00000000   Number         0  icmp.o ABSOLUTE
    ..\Middlewares\Third_Party\LwIP\src\core\ipv4\igmp.c 0x00000000   Number         0  igmp.o ABSOLUTE
    ..\Middlewares\Third_Party\LwIP\src\core\ipv4\ip4.c 0x00000000   Number         0  ip4.o ABSOLUTE
    ..\Middlewares\Third_Party\LwIP\src\core\ipv4\ip4_addr.c 0x00000000   Number         0  ip4_addr.o ABSOLUTE
    ..\Middlewares\Third_Party\LwIP\src\core\ipv4\ip4_frag.c 0x00000000   Number         0  ip4_frag.o ABSOLUTE
    ..\Middlewares\Third_Party\LwIP\src\core\ipv6\dhcp6.c 0x00000000   Number         0  dhcp6.o ABSOLUTE
    ..\Middlewares\Third_Party\LwIP\src\core\ipv6\ethip6.c 0x00000000   Number         0  ethip6.o ABSOLUTE
    ..\Middlewares\Third_Party\LwIP\src\core\ipv6\icmp6.c 0x00000000   Number         0  icmp6.o ABSOLUTE
    ..\Middlewares\Third_Party\LwIP\src\core\ipv6\inet6.c 0x00000000   Number         0  inet6.o ABSOLUTE
    ..\Middlewares\Third_Party\LwIP\src\core\ipv6\ip6.c 0x00000000   Number         0  ip6.o ABSOLUTE
    ..\Middlewares\Third_Party\LwIP\src\core\ipv6\ip6_addr.c 0x00000000   Number         0  ip6_addr.o ABSOLUTE
    ..\Middlewares\Third_Party\LwIP\src\core\ipv6\ip6_frag.c 0x00000000   Number         0  ip6_frag.o ABSOLUTE
    ..\Middlewares\Third_Party\LwIP\src\core\ipv6\mld6.c 0x00000000   Number         0  mld6.o ABSOLUTE
    ..\Middlewares\Third_Party\LwIP\src\core\ipv6\nd6.c 0x00000000   Number         0  nd6.o ABSOLUTE
    ..\Middlewares\Third_Party\LwIP\src\core\mem.c 0x00000000   Number         0  mem.o ABSOLUTE
    ..\Middlewares\Third_Party\LwIP\src\core\memp.c 0x00000000   Number         0  memp.o ABSOLUTE
    ..\Middlewares\Third_Party\LwIP\src\core\netif.c 0x00000000   Number         0  netif.o ABSOLUTE
    ..\Middlewares\Third_Party\LwIP\src\core\pbuf.c 0x00000000   Number         0  pbuf.o ABSOLUTE
    ..\Middlewares\Third_Party\LwIP\src\core\raw.c 0x00000000   Number         0  raw.o ABSOLUTE
    ..\Middlewares\Third_Party\LwIP\src\core\stats.c 0x00000000   Number         0  stats.o ABSOLUTE
    ..\Middlewares\Third_Party\LwIP\src\core\sys.c 0x00000000   Number         0  sys_1.o ABSOLUTE
    ..\Middlewares\Third_Party\LwIP\src\core\tcp.c 0x00000000   Number         0  tcp.o ABSOLUTE
    ..\Middlewares\Third_Party\LwIP\src\core\tcp_in.c 0x00000000   Number         0  tcp_in.o ABSOLUTE
    ..\Middlewares\Third_Party\LwIP\src\core\tcp_out.c 0x00000000   Number         0  tcp_out.o ABSOLUTE
    ..\Middlewares\Third_Party\LwIP\src\core\timeouts.c 0x00000000   Number         0  timeouts.o ABSOLUTE
    ..\Middlewares\Third_Party\LwIP\src\core\udp.c 0x00000000   Number         0  udp.o ABSOLUTE
    ..\Middlewares\Third_Party\LwIP\src\netif\bridgeif.c 0x00000000   Number         0  bridgeif.o ABSOLUTE
    ..\Middlewares\Third_Party\LwIP\src\netif\bridgeif_fdb.c 0x00000000   Number         0  bridgeif_fdb.o ABSOLUTE
    ..\Middlewares\Third_Party\LwIP\src\netif\ethernet.c 0x00000000   Number         0  ethernet.o ABSOLUTE
    ..\Middlewares\Third_Party\LwIP\src\netif\lowpan6.c 0x00000000   Number         0  lowpan6.o ABSOLUTE
    ..\Middlewares\Third_Party\LwIP\src\netif\lowpan6_ble.c 0x00000000   Number         0  lowpan6_ble.o ABSOLUTE
    ..\Middlewares\Third_Party\LwIP\src\netif\lowpan6_common.c 0x00000000   Number         0  lowpan6_common.o ABSOLUTE
    ..\Middlewares\Third_Party\LwIP\src\netif\ppp\auth.c 0x00000000   Number         0  auth.o ABSOLUTE
    ..\Middlewares\Third_Party\LwIP\src\netif\ppp\ccp.c 0x00000000   Number         0  ccp.o ABSOLUTE
    ..\Middlewares\Third_Party\LwIP\src\netif\ppp\chap-md5.c 0x00000000   Number         0  chap-md5.o ABSOLUTE
    ..\Middlewares\Third_Party\LwIP\src\netif\ppp\chap-new.c 0x00000000   Number         0  chap-new.o ABSOLUTE
    ..\Middlewares\Third_Party\LwIP\src\netif\ppp\chap_ms.c 0x00000000   Number         0  chap_ms.o ABSOLUTE
    ..\Middlewares\Third_Party\LwIP\src\netif\ppp\demand.c 0x00000000   Number         0  demand.o ABSOLUTE
    ..\Middlewares\Third_Party\LwIP\src\netif\ppp\eap.c 0x00000000   Number         0  eap.o ABSOLUTE
    ..\Middlewares\Third_Party\LwIP\src\netif\ppp\ecp.c 0x00000000   Number         0  ecp.o ABSOLUTE
    ..\Middlewares\Third_Party\LwIP\src\netif\ppp\eui64.c 0x00000000   Number         0  eui64.o ABSOLUTE
    ..\Middlewares\Third_Party\LwIP\src\netif\ppp\fsm.c 0x00000000   Number         0  fsm.o ABSOLUTE
    ..\Middlewares\Third_Party\LwIP\src\netif\ppp\ipcp.c 0x00000000   Number         0  ipcp.o ABSOLUTE
    ..\Middlewares\Third_Party\LwIP\src\netif\ppp\ipv6cp.c 0x00000000   Number         0  ipv6cp.o ABSOLUTE
    ..\Middlewares\Third_Party\LwIP\src\netif\ppp\lcp.c 0x00000000   Number         0  lcp.o ABSOLUTE
    ..\Middlewares\Third_Party\LwIP\src\netif\ppp\magic.c 0x00000000   Number         0  magic.o ABSOLUTE
    ..\Middlewares\Third_Party\LwIP\src\netif\ppp\mppe.c 0x00000000   Number         0  mppe.o ABSOLUTE
    ..\Middlewares\Third_Party\LwIP\src\netif\ppp\multilink.c 0x00000000   Number         0  multilink.o ABSOLUTE
    ..\Middlewares\Third_Party\LwIP\src\netif\ppp\ppp.c 0x00000000   Number         0  ppp.o ABSOLUTE
    ..\Middlewares\Third_Party\LwIP\src\netif\ppp\pppapi.c 0x00000000   Number         0  pppapi.o ABSOLUTE
    ..\Middlewares\Third_Party\LwIP\src\netif\ppp\pppcrypt.c 0x00000000   Number         0  pppcrypt.o ABSOLUTE
    ..\Middlewares\Third_Party\LwIP\src\netif\ppp\pppoe.c 0x00000000   Number         0  pppoe.o ABSOLUTE
    ..\Middlewares\Third_Party\LwIP\src\netif\ppp\pppol2tp.c 0x00000000   Number         0  pppol2tp.o ABSOLUTE
    ..\Middlewares\Third_Party\LwIP\src\netif\ppp\pppos.c 0x00000000   Number         0  pppos.o ABSOLUTE
    ..\Middlewares\Third_Party\LwIP\src\netif\ppp\upap.c 0x00000000   Number         0  upap.o ABSOLUTE
    ..\Middlewares\Third_Party\LwIP\src\netif\ppp\utils.c 0x00000000   Number         0  utils.o ABSOLUTE
    ..\Middlewares\Third_Party\LwIP\src\netif\ppp\vj.c 0x00000000   Number         0  vj.o ABSOLUTE
    ..\Middlewares\Third_Party\LwIP\src\netif\slipif.c 0x00000000   Number         0  slipif.o ABSOLUTE
    ..\Middlewares\Third_Party\LwIP\src\netif\zepif.c 0x00000000   Number         0  zepif.o ABSOLUTE
    ..\PCF8574\IIC\myiic.c                   0x00000000   Number         0  myiic.o ABSOLUTE
    ..\PCF8574\PCF8574\pcf8574.c             0x00000000   Number         0  pcf8574.o ABSOLUTE
    ..\PCF8574\delay\delay.c                 0x00000000   Number         0  delay.o ABSOLUTE
    ..\PCF8574\sys\sys.c                     0x00000000   Number         0  sys.o ABSOLUTE
    ..\\PCF8574\\IIC\\myiic.c                0x00000000   Number         0  myiic.o ABSOLUTE
    ..\\PCF8574\\PCF8574\\pcf8574.c          0x00000000   Number         0  pcf8574.o ABSOLUTE
    ..\\PCF8574\\delay\\delay.c              0x00000000   Number         0  delay.o ABSOLUTE
    ..\\PCF8574\\sys\\sys.c                  0x00000000   Number         0  sys.o ABSOLUTE
    cdrcmple.s                               0x00000000   Number         0  cdrcmple.o ABSOLUTE
    dc.s                                     0x00000000   Number         0  dc.o ABSOLUTE
    handlers.s                               0x00000000   Number         0  handlers.o ABSOLUTE
    init.s                                   0x00000000   Number         0  init.o ABSOLUTE
    startup_stm32h743xx.s                    0x00000000   Number         0  startup_stm32h743xx.o ABSOLUTE
    RESET                                    0x08000000   Section      664  startup_stm32h743xx.o(RESET)
    .ARM.Collect$$$$00000000                 0x08000298   Section        0  entry.o(.ARM.Collect$$$$00000000)
    .ARM.Collect$$$$00000001                 0x08000298   Section        4  entry2.o(.ARM.Collect$$$$00000001)
    .ARM.Collect$$$$00000004                 0x0800029c   Section        4  entry5.o(.ARM.Collect$$$$00000004)
    .ARM.Collect$$$$00000008                 0x080002a0   Section        0  entry7b.o(.ARM.Collect$$$$00000008)
    .ARM.Collect$$$$0000000A                 0x080002a0   Section        0  entry8b.o(.ARM.Collect$$$$0000000A)
    .ARM.Collect$$$$0000000B                 0x080002a0   Section        8  entry9a.o(.ARM.Collect$$$$0000000B)
    .ARM.Collect$$$$0000000E                 0x080002a8   Section        4  entry12b.o(.ARM.Collect$$$$0000000E)
    .ARM.Collect$$$$0000000F                 0x080002ac   Section        0  entry10a.o(.ARM.Collect$$$$0000000F)
    .ARM.Collect$$$$00000011                 0x080002ac   Section        0  entry11a.o(.ARM.Collect$$$$00000011)
    .ARM.Collect$$$$00002712                 0x080002ac   Section        4  entry2.o(.ARM.Collect$$$$00002712)
    __lit__00000000                          0x080002ac   Data           4  entry2.o(.ARM.Collect$$$$00002712)
    .text                                    0x080002b0   Section       36  startup_stm32h743xx.o(.text)
    $v0                                      0x080002b0   Number         0  startup_stm32h743xx.o(.text)
    .text                                    0x080002d4   Section        0  uldiv.o(.text)
    .text                                    0x08000338   Section        0  rand.o(.text)
    .text                                    0x0800035c   Section        0  memmovea.o(.text)
    .text                                    0x0800039c   Section        0  memseta.o(.text)
    .text                                    0x080003c0   Section        0  memcmp.o(.text)
    .text                                    0x080003da   Section        0  uidiv.o(.text)
    .text                                    0x08000406   Section        0  llshl.o(.text)
    .text                                    0x08000424   Section        0  llushr.o(.text)
    .text                                    0x08000444   Section       36  init.o(.text)
    .text                                    0x08000468   Section        0  iusesemip.o(.text)
    .text                                    0x08000468   Section        0  semi.o(.text)
    i.BusFault_Handler                       0x08000468   Section        0  stm32h7xx_it.o(i.BusFault_Handler)
    i.DebugMon_Handler                       0x0800046c   Section        0  stm32h7xx_it.o(i.DebugMon_Handler)
    i.ETH_DMARxDescListInit                  0x0800046e   Section        0  stm32h7xx_hal_eth.o(i.ETH_DMARxDescListInit)
    ETH_DMARxDescListInit                    0x0800046f   Thumb Code    96  stm32h7xx_hal_eth.o(i.ETH_DMARxDescListInit)
    i.ETH_DMATxDescListInit                  0x080004ce   Section        0  stm32h7xx_hal_eth.o(i.ETH_DMATxDescListInit)
    ETH_DMATxDescListInit                    0x080004cf   Thumb Code    82  stm32h7xx_hal_eth.o(i.ETH_DMATxDescListInit)
    i.ETH_IRQHandler                         0x08000520   Section        0  stm32h7xx_it.o(i.ETH_IRQHandler)
    i.ETH_MACDMAConfig                       0x08000530   Section        0  stm32h7xx_hal_eth.o(i.ETH_MACDMAConfig)
    ETH_MACDMAConfig                         0x08000531   Thumb Code   262  stm32h7xx_hal_eth.o(i.ETH_MACDMAConfig)
    i.ETH_PHY_IO_DeInit                      0x08000636   Section        0  ethernetif.o(i.ETH_PHY_IO_DeInit)
    i.ETH_PHY_IO_GetTick                     0x0800063a   Section        0  ethernetif.o(i.ETH_PHY_IO_GetTick)
    i.ETH_PHY_IO_Init                        0x08000644   Section        0  ethernetif.o(i.ETH_PHY_IO_Init)
    i.ETH_PHY_IO_ReadReg                     0x08000654   Section        0  ethernetif.o(i.ETH_PHY_IO_ReadReg)
    i.ETH_PHY_IO_WriteReg                    0x08000678   Section        0  ethernetif.o(i.ETH_PHY_IO_WriteReg)
    i.ETH_Prepare_Tx_Descriptors             0x0800069c   Section        0  stm32h7xx_hal_eth.o(i.ETH_Prepare_Tx_Descriptors)
    ETH_Prepare_Tx_Descriptors               0x0800069d   Thumb Code   912  stm32h7xx_hal_eth.o(i.ETH_Prepare_Tx_Descriptors)
    i.ETH_SetDMAConfig                       0x08000a30   Section        0  stm32h7xx_hal_eth.o(i.ETH_SetDMAConfig)
    ETH_SetDMAConfig                         0x08000a31   Thumb Code   176  stm32h7xx_hal_eth.o(i.ETH_SetDMAConfig)
    i.ETH_SetMACConfig                       0x08000aec   Section        0  stm32h7xx_hal_eth.o(i.ETH_SetMACConfig)
    ETH_SetMACConfig                         0x08000aed   Thumb Code   394  stm32h7xx_hal_eth.o(i.ETH_SetMACConfig)
    i.ETH_UpdateDescriptor                   0x08000c80   Section        0  stm32h7xx_hal_eth.o(i.ETH_UpdateDescriptor)
    ETH_UpdateDescriptor                     0x08000c81   Thumb Code   140  stm32h7xx_hal_eth.o(i.ETH_UpdateDescriptor)
    i.ETH_WKUP_IRQHandler                    0x08000d0c   Section        0  stm32h7xx_it.o(i.ETH_WKUP_IRQHandler)
    i.Error_Handler                          0x08000d1c   Section        0  main.o(i.Error_Handler)
    i.Ethernet_Link_Periodic_Handle          0x08000d24   Section        0  lwip.o(i.Ethernet_Link_Periodic_Handle)
    Ethernet_Link_Periodic_Handle            0x08000d25   Thumb Code    34  lwip.o(i.Ethernet_Link_Periodic_Handle)
    i.HAL_DMA_Abort                          0x08000d4c   Section        0  stm32h7xx_hal_dma.o(i.HAL_DMA_Abort)
    i.HAL_DMA_Abort_IT                       0x08001228   Section        0  stm32h7xx_hal_dma.o(i.HAL_DMA_Abort_IT)
    i.HAL_Delay                              0x080015c0   Section        0  stm32h7xx_hal.o(i.HAL_Delay)
    i.HAL_ETH_EEECallback                    0x080015e8   Section        0  stm32h7xx_hal_eth.o(i.HAL_ETH_EEECallback)
    i.HAL_ETH_ErrorCallback                  0x080015ea   Section        0  stm32h7xx_hal_eth.o(i.HAL_ETH_ErrorCallback)
    i.HAL_ETH_GetMACConfig                   0x080015ec   Section        0  stm32h7xx_hal_eth.o(i.HAL_ETH_GetMACConfig)
    i.HAL_ETH_IRQHandler                     0x080017c4   Section        0  stm32h7xx_hal_eth.o(i.HAL_ETH_IRQHandler)
    i.HAL_ETH_Init                           0x08001984   Section        0  stm32h7xx_hal_eth.o(i.HAL_ETH_Init)
    i.HAL_ETH_MspInit                        0x08001aec   Section        0  ethernetif.o(i.HAL_ETH_MspInit)
    i.HAL_ETH_PMTCallback                    0x08001c74   Section        0  stm32h7xx_hal_eth.o(i.HAL_ETH_PMTCallback)
    i.HAL_ETH_ReadData                       0x08001c76   Section        0  stm32h7xx_hal_eth.o(i.HAL_ETH_ReadData)
    i.HAL_ETH_ReadPHYRegister                0x08001d76   Section        0  stm32h7xx_hal_eth.o(i.HAL_ETH_ReadPHYRegister)
    i.HAL_ETH_RxAllocateCallback             0x08001df0   Section        0  ethernetif.o(i.HAL_ETH_RxAllocateCallback)
    i.HAL_ETH_RxCpltCallback                 0x08001e38   Section        0  stm32h7xx_hal_eth.o(i.HAL_ETH_RxCpltCallback)
    i.HAL_ETH_RxLinkCallback                 0x08001e3c   Section        0  ethernetif.o(i.HAL_ETH_RxLinkCallback)
    i.HAL_ETH_SetMACConfig                   0x08001ebc   Section        0  stm32h7xx_hal_eth.o(i.HAL_ETH_SetMACConfig)
    i.HAL_ETH_SetMDIOClockRange              0x08001ee0   Section        0  stm32h7xx_hal_eth.o(i.HAL_ETH_SetMDIOClockRange)
    i.HAL_ETH_Start                          0x08001f58   Section        0  stm32h7xx_hal_eth.o(i.HAL_ETH_Start)
    i.HAL_ETH_Stop                           0x08001ff2   Section        0  stm32h7xx_hal_eth.o(i.HAL_ETH_Stop)
    i.HAL_ETH_Transmit                       0x08002066   Section        0  stm32h7xx_hal_eth.o(i.HAL_ETH_Transmit)
    i.HAL_ETH_TxCpltCallback                 0x08002150   Section        0  stm32h7xx_hal_eth.o(i.HAL_ETH_TxCpltCallback)
    i.HAL_ETH_WakeUpCallback                 0x08002152   Section        0  stm32h7xx_hal_eth.o(i.HAL_ETH_WakeUpCallback)
    i.HAL_ETH_WritePHYRegister               0x08002154   Section        0  stm32h7xx_hal_eth.o(i.HAL_ETH_WritePHYRegister)
    i.HAL_GPIO_Init                          0x080021d4   Section        0  stm32h7xx_hal_gpio.o(i.HAL_GPIO_Init)
    i.HAL_GPIO_ReadPin                       0x080023d0   Section        0  stm32h7xx_hal_gpio.o(i.HAL_GPIO_ReadPin)
    i.HAL_GPIO_WritePin                      0x080023e0   Section        0  stm32h7xx_hal_gpio.o(i.HAL_GPIO_WritePin)
    i.HAL_GetREVID                           0x080023ec   Section        0  stm32h7xx_hal.o(i.HAL_GetREVID)
    i.HAL_GetTick                            0x080023f8   Section        0  stm32h7xx_hal.o(i.HAL_GetTick)
    i.HAL_IncTick                            0x08002404   Section        0  stm32h7xx_hal.o(i.HAL_IncTick)
    i.HAL_Init                               0x0800241c   Section        0  stm32h7xx_hal.o(i.HAL_Init)
    i.HAL_InitTick                           0x0800247c   Section        0  stm32h7xx_hal.o(i.HAL_InitTick)
    i.HAL_MPU_ConfigRegion                   0x080024d4   Section        0  stm32h7xx_hal_cortex.o(i.HAL_MPU_ConfigRegion)
    i.HAL_MPU_Disable                        0x08002530   Section        0  stm32h7xx_hal_cortex.o(i.HAL_MPU_Disable)
    i.HAL_MPU_Enable                         0x08002550   Section        0  stm32h7xx_hal_cortex.o(i.HAL_MPU_Enable)
    i.HAL_MspInit                            0x08002578   Section        0  stm32h7xx_hal_msp.o(i.HAL_MspInit)
    i.HAL_NVIC_EnableIRQ                     0x0800259c   Section        0  stm32h7xx_hal_cortex.o(i.HAL_NVIC_EnableIRQ)
    i.HAL_NVIC_SetPriority                   0x080025c4   Section        0  stm32h7xx_hal_cortex.o(i.HAL_NVIC_SetPriority)
    i.HAL_NVIC_SetPriorityGrouping           0x08002640   Section        0  stm32h7xx_hal_cortex.o(i.HAL_NVIC_SetPriorityGrouping)
    i.HAL_PWREx_ConfigSupply                 0x08002668   Section        0  stm32h7xx_hal_pwr_ex.o(i.HAL_PWREx_ConfigSupply)
    i.HAL_RCCEx_GetD3PCLK1Freq               0x080026c8   Section        0  stm32h7xx_hal_rcc_ex.o(i.HAL_RCCEx_GetD3PCLK1Freq)
    i.HAL_RCCEx_GetPLL2ClockFreq             0x080026ec   Section        0  stm32h7xx_hal_rcc_ex.o(i.HAL_RCCEx_GetPLL2ClockFreq)
    i.HAL_RCCEx_GetPLL3ClockFreq             0x0800291c   Section        0  stm32h7xx_hal_rcc_ex.o(i.HAL_RCCEx_GetPLL3ClockFreq)
    i.HAL_RCCEx_PeriphCLKConfig              0x08002b4c   Section        0  stm32h7xx_hal_rcc_ex.o(i.HAL_RCCEx_PeriphCLKConfig)
    i.HAL_RCC_ClockConfig                    0x080038b4   Section        0  stm32h7xx_hal_rcc.o(i.HAL_RCC_ClockConfig)
    i.HAL_RCC_GetHCLKFreq                    0x08003bd4   Section        0  stm32h7xx_hal_rcc.o(i.HAL_RCC_GetHCLKFreq)
    i.HAL_RCC_GetPCLK1Freq                   0x08003c20   Section        0  stm32h7xx_hal_rcc.o(i.HAL_RCC_GetPCLK1Freq)
    i.HAL_RCC_GetPCLK2Freq                   0x08003c44   Section        0  stm32h7xx_hal_rcc.o(i.HAL_RCC_GetPCLK2Freq)
    i.HAL_RCC_GetSysClockFreq                0x08003c68   Section        0  stm32h7xx_hal_rcc.o(i.HAL_RCC_GetSysClockFreq)
    i.HAL_RCC_OscConfig                      0x08003e94   Section        0  stm32h7xx_hal_rcc.o(i.HAL_RCC_OscConfig)
    i.HAL_SYSCFG_ETHInterfaceSelect          0x080046ec   Section        0  stm32h7xx_hal.o(i.HAL_SYSCFG_ETHInterfaceSelect)
    i.HAL_SYSTICK_Config                     0x08004700   Section        0  stm32h7xx_hal_cortex.o(i.HAL_SYSTICK_Config)
    i.HAL_UARTEx_DisableFifoMode             0x08004734   Section        0  stm32h7xx_hal_uart_ex.o(i.HAL_UARTEx_DisableFifoMode)
    i.HAL_UARTEx_RxEventCallback             0x08004782   Section        0  stm32h7xx_hal_uart.o(i.HAL_UARTEx_RxEventCallback)
    i.HAL_UARTEx_RxFifoFullCallback          0x08004784   Section        0  stm32h7xx_hal_uart_ex.o(i.HAL_UARTEx_RxFifoFullCallback)
    i.HAL_UARTEx_SetRxFifoThreshold          0x08004786   Section        0  stm32h7xx_hal_uart_ex.o(i.HAL_UARTEx_SetRxFifoThreshold)
    i.HAL_UARTEx_SetTxFifoThreshold          0x080047e4   Section        0  stm32h7xx_hal_uart_ex.o(i.HAL_UARTEx_SetTxFifoThreshold)
    i.HAL_UARTEx_TxFifoEmptyCallback         0x08004842   Section        0  stm32h7xx_hal_uart_ex.o(i.HAL_UARTEx_TxFifoEmptyCallback)
    i.HAL_UARTEx_WakeupCallback              0x08004844   Section        0  stm32h7xx_hal_uart_ex.o(i.HAL_UARTEx_WakeupCallback)
    i.HAL_UART_ErrorCallback                 0x08004846   Section        0  stm32h7xx_hal_uart.o(i.HAL_UART_ErrorCallback)
    i.HAL_UART_IRQHandler                    0x08004848   Section        0  stm32h7xx_hal_uart.o(i.HAL_UART_IRQHandler)
    i.HAL_UART_Init                          0x08004cdc   Section        0  stm32h7xx_hal_uart.o(i.HAL_UART_Init)
    i.HAL_UART_MspInit                       0x08004d54   Section        0  usart.o(i.HAL_UART_MspInit)
    i.HAL_UART_TxCpltCallback                0x08004e00   Section        0  stm32h7xx_hal_uart.o(i.HAL_UART_TxCpltCallback)
    i.HardFault_Handler                      0x08004e02   Section        0  stm32h7xx_it.o(i.HardFault_Handler)
    i.IIC_Ack                                0x08004e08   Section        0  myiic.o(i.IIC_Ack)
    i.IIC_Init                               0x08004e5c   Section        0  myiic.o(i.IIC_Init)
    i.IIC_NAck                               0x08004eb4   Section        0  myiic.o(i.IIC_NAck)
    i.IIC_Read_Byte                          0x08004f08   Section        0  myiic.o(i.IIC_Read_Byte)
    i.IIC_Send_Byte                          0x08004f74   Section        0  myiic.o(i.IIC_Send_Byte)
    i.IIC_Start                              0x08004ff0   Section        0  myiic.o(i.IIC_Start)
    i.IIC_Stop                               0x08005044   Section        0  myiic.o(i.IIC_Stop)
    i.IIC_Wait_Ack                           0x08005098   Section        0  myiic.o(i.IIC_Wait_Ack)
    i.LAN8742_GetLinkState                   0x08005100   Section        0  lan8742.o(i.LAN8742_GetLinkState)
    i.LAN8742_Init                           0x080051ea   Section        0  lan8742.o(i.LAN8742_Init)
    i.LAN8742_RegisterBusIO                  0x080052c8   Section        0  lan8742.o(i.LAN8742_RegisterBusIO)
    i.MPU_Config                             0x080052f8   Section        0  main.o(i.MPU_Config)
    MPU_Config                               0x080052f9   Thumb Code    90  main.o(i.MPU_Config)
    i.MX_GPIO_Init                           0x08005358   Section        0  gpio.o(i.MX_GPIO_Init)
    i.MX_LWIP_Init                           0x080053e4   Section        0  lwip.o(i.MX_LWIP_Init)
    i.MX_LWIP_Process                        0x08005624   Section        0  lwip.o(i.MX_LWIP_Process)
    i.MX_USART1_UART_Init                    0x0800563c   Section        0  usart.o(i.MX_USART1_UART_Init)
    i.MemManage_Handler                      0x080056a8   Section        0  stm32h7xx_it.o(i.MemManage_Handler)
    i.NMI_Handler                            0x080056ac   Section        0  stm32h7xx_it.o(i.NMI_Handler)
    i.PCF8574_Init                           0x080056b0   Section        0  pcf8574.o(i.PCF8574_Init)
    i.PCF8574_ReadOneByte                    0x08005718   Section        0  pcf8574.o(i.PCF8574_ReadOneByte)
    i.PCF8574_WriteBit                       0x0800573a   Section        0  pcf8574.o(i.PCF8574_WriteBit)
    i.PCF8574_WriteOneByte                   0x08005760   Section        0  pcf8574.o(i.PCF8574_WriteOneByte)
    i.PendSV_Handler                         0x08005788   Section        0  stm32h7xx_it.o(i.PendSV_Handler)
    i.RCCEx_PLL2_Config                      0x0800578c   Section        0  stm32h7xx_hal_rcc_ex.o(i.RCCEx_PLL2_Config)
    RCCEx_PLL2_Config                        0x0800578d   Thumb Code   350  stm32h7xx_hal_rcc_ex.o(i.RCCEx_PLL2_Config)
    i.RCCEx_PLL3_Config                      0x080058f0   Section        0  stm32h7xx_hal_rcc_ex.o(i.RCCEx_PLL3_Config)
    RCCEx_PLL3_Config                        0x080058f1   Thumb Code   350  stm32h7xx_hal_rcc_ex.o(i.RCCEx_PLL3_Config)
    i.SVC_Handler                            0x08005a54   Section        0  stm32h7xx_it.o(i.SVC_Handler)
    i.SysTick_Handler                        0x08005a56   Section        0  stm32h7xx_it.o(i.SysTick_Handler)
    i.SystemClock_Config                     0x08005a60   Section        0  main.o(i.SystemClock_Config)
    i.SystemInit                             0x08005b94   Section        0  system_stm32h7xx.o(i.SystemInit)
    i.UARTEx_SetNbDataToProcess              0x08005c90   Section        0  stm32h7xx_hal_uart_ex.o(i.UARTEx_SetNbDataToProcess)
    UARTEx_SetNbDataToProcess                0x08005c91   Thumb Code    78  stm32h7xx_hal_uart_ex.o(i.UARTEx_SetNbDataToProcess)
    i.UART_AdvFeatureConfig                  0x08005ce8   Section        0  stm32h7xx_hal_uart.o(i.UART_AdvFeatureConfig)
    i.UART_CheckIdleState                    0x08005de0   Section        0  stm32h7xx_hal_uart.o(i.UART_CheckIdleState)
    i.UART_DMAAbortOnError                   0x08005eca   Section        0  stm32h7xx_hal_uart.o(i.UART_DMAAbortOnError)
    UART_DMAAbortOnError                     0x08005ecb   Thumb Code    24  stm32h7xx_hal_uart.o(i.UART_DMAAbortOnError)
    i.UART_EndRxTransfer                     0x08005ee4   Section        0  stm32h7xx_hal_uart.o(i.UART_EndRxTransfer)
    UART_EndRxTransfer                       0x08005ee5   Thumb Code   104  stm32h7xx_hal_uart.o(i.UART_EndRxTransfer)
    i.UART_EndTransmit_IT                    0x08005f50   Section        0  stm32h7xx_hal_uart.o(i.UART_EndTransmit_IT)
    UART_EndTransmit_IT                      0x08005f51   Thumb Code    48  stm32h7xx_hal_uart.o(i.UART_EndTransmit_IT)
    i.UART_SetConfig                         0x08005f80   Section        0  stm32h7xx_hal_uart.o(i.UART_SetConfig)
    i.UART_WaitOnFlagUntilTimeout            0x0800650c   Section        0  stm32h7xx_hal_uart.o(i.UART_WaitOnFlagUntilTimeout)
    i.USART1_IRQHandler                      0x080065b0   Section        0  stm32h7xx_it.o(i.USART1_IRQHandler)
    i.UsageFault_Handler                     0x080065c0   Section        0  stm32h7xx_it.o(i.UsageFault_Handler)
    i.__0printf$3                            0x080065c4   Section        0  printf3.o(i.__0printf$3)
    i.__NVIC_GetPriorityGrouping             0x080065e4   Section        0  stm32h7xx_hal_cortex.o(i.__NVIC_GetPriorityGrouping)
    __NVIC_GetPriorityGrouping               0x080065e5   Thumb Code    10  stm32h7xx_hal_cortex.o(i.__NVIC_GetPriorityGrouping)
    i.__NVIC_SetPriority                     0x080065f4   Section        0  stm32h7xx_hal_cortex.o(i.__NVIC_SetPriority)
    __NVIC_SetPriority                       0x080065f5   Thumb Code    32  stm32h7xx_hal_cortex.o(i.__NVIC_SetPriority)
    i.__scatterload_copy                     0x0800661c   Section       14  handlers.o(i.__scatterload_copy)
    i.__scatterload_null                     0x0800662a   Section        2  handlers.o(i.__scatterload_null)
    i.__scatterload_zeroinit                 0x0800662c   Section       14  handlers.o(i.__scatterload_zeroinit)
    i._printf_core                           0x0800663c   Section        0  printf3.o(i._printf_core)
    _printf_core                             0x0800663d   Thumb Code   436  printf3.o(i._printf_core)
    i.delay_ms                               0x080067f4   Section        0  delay.o(i.delay_ms)
    i.delay_us                               0x0800680c   Section        0  delay.o(i.delay_us)
    i.do_memp_free_pool                      0x08006854   Section        0  memp.o(i.do_memp_free_pool)
    do_memp_free_pool                        0x08006855   Thumb Code    50  memp.o(i.do_memp_free_pool)
    i.do_memp_malloc_pool                    0x08006900   Section        0  memp.o(i.do_memp_malloc_pool)
    do_memp_malloc_pool                      0x08006901   Thumb Code    56  memp.o(i.do_memp_malloc_pool)
    i.etharp_cleanup_netif                   0x080069b4   Section        0  etharp.o(i.etharp_cleanup_netif)
    i.etharp_find_entry                      0x080069ec   Section        0  etharp.o(i.etharp_find_entry)
    etharp_find_entry                        0x080069ed   Thumb Code   514  etharp.o(i.etharp_find_entry)
    i.etharp_free_entry                      0x08006cec   Section        0  etharp.o(i.etharp_free_entry)
    etharp_free_entry                        0x08006ced   Thumb Code    58  etharp.o(i.etharp_free_entry)
    i.etharp_input                           0x08006d2c   Section        0  etharp.o(i.etharp_input)
    i.etharp_output                          0x08006e68   Section        0  etharp.o(i.etharp_output)
    i.etharp_output_to_arp_index             0x0800708c   Section        0  etharp.o(i.etharp_output_to_arp_index)
    etharp_output_to_arp_index               0x0800708d   Thumb Code   212  etharp.o(i.etharp_output_to_arp_index)
    i.etharp_query                           0x080071f4   Section        0  etharp.o(i.etharp_query)
    i.etharp_raw                             0x08007498   Section        0  etharp.o(i.etharp_raw)
    etharp_raw                               0x08007499   Thumb Code   226  etharp.o(i.etharp_raw)
    i.etharp_request                         0x08007624   Section        0  etharp.o(i.etharp_request)
    i.etharp_request_dst                     0x0800763c   Section        0  etharp.o(i.etharp_request_dst)
    etharp_request_dst                       0x0800763d   Thumb Code    38  etharp.o(i.etharp_request_dst)
    i.etharp_tmr                             0x08007668   Section        0  etharp.o(i.etharp_tmr)
    i.etharp_update_arp_entry                0x08007744   Section        0  etharp.o(i.etharp_update_arp_entry)
    etharp_update_arp_entry                  0x08007745   Thumb Code   212  etharp.o(i.etharp_update_arp_entry)
    i.ethernet_input                         0x080078a0   Section        0  ethernet.o(i.ethernet_input)
    i.ethernet_link_check_state              0x08007964   Section        0  ethernetif.o(i.ethernet_link_check_state)
    i.ethernet_link_status_updated           0x08007a30   Section        0  lwip.o(i.ethernet_link_status_updated)
    ethernet_link_status_updated             0x08007a31   Thumb Code    30  lwip.o(i.ethernet_link_status_updated)
    i.ethernet_output                        0x08007aac   Section        0  ethernet.o(i.ethernet_output)
    i.ethernetif_init                        0x08007bb0   Section        0  ethernetif.o(i.ethernetif_init)
    i.ethernetif_input                       0x08007c48   Section        0  ethernetif.o(i.ethernetif_input)
    i.fputc                                  0x08007c70   Section        0  fputc.o(i.fputc)
    i.icmp_dest_unreach                      0x08007c82   Section        0  icmp.o(i.icmp_dest_unreach)
    i.icmp_input                             0x08007c94   Section        0  icmp.o(i.icmp_input)
    i.icmp_send_response                     0x08007f38   Section        0  icmp.o(i.icmp_send_response)
    icmp_send_response                       0x08007f39   Thumb Code   152  icmp.o(i.icmp_send_response)
    i.icmp_time_exceeded                     0x0800805c   Section        0  icmp.o(i.icmp_time_exceeded)
    i.inet_chksum                            0x0800806e   Section        0  inet_chksum.o(i.inet_chksum)
    i.inet_chksum_pbuf                       0x08008082   Section        0  inet_chksum.o(i.inet_chksum_pbuf)
    i.ip4_addr_isbroadcast_u32               0x080080d8   Section        0  ip4_addr.o(i.ip4_addr_isbroadcast_u32)
    i.ip4_frag                               0x08008128   Section        0  ip4_frag.o(i.ip4_frag)
    i.ip4_input                              0x080083f4   Section        0  ip4.o(i.ip4_input)
    i.ip4_input_accept                       0x08008590   Section        0  ip4.o(i.ip4_input_accept)
    ip4_input_accept                         0x08008591   Thumb Code    48  ip4.o(i.ip4_input_accept)
    i.ip4_output_if                          0x080085c4   Section        0  ip4.o(i.ip4_output_if)
    i.ip4_output_if_src                      0x080085fc   Section        0  ip4.o(i.ip4_output_if_src)
    i.ip4_reass                              0x080087ac   Section        0  ip4_frag.o(i.ip4_reass)
    i.ip4_route                              0x08008aa8   Section        0  ip4.o(i.ip4_route)
    i.ip_frag_alloc_pbuf_custom_ref          0x08008b3c   Section        0  ip4_frag.o(i.ip_frag_alloc_pbuf_custom_ref)
    ip_frag_alloc_pbuf_custom_ref            0x08008b3d   Thumb Code    10  ip4_frag.o(i.ip_frag_alloc_pbuf_custom_ref)
    i.ip_frag_free_pbuf_custom_ref           0x08008b48   Section        0  ip4_frag.o(i.ip_frag_free_pbuf_custom_ref)
    ip_frag_free_pbuf_custom_ref             0x08008b49   Thumb Code    40  ip4_frag.o(i.ip_frag_free_pbuf_custom_ref)
    i.ip_reass_chain_frag_into_datagram_and_validate 0x08008be0   Section        0  ip4_frag.o(i.ip_reass_chain_frag_into_datagram_and_validate)
    ip_reass_chain_frag_into_datagram_and_validate 0x08008be1   Thumb Code   530  ip4_frag.o(i.ip_reass_chain_frag_into_datagram_and_validate)
    i.ip_reass_dequeue_datagram              0x08008ee4   Section        0  ip4_frag.o(i.ip_reass_dequeue_datagram)
    ip_reass_dequeue_datagram                0x08008ee5   Thumb Code    62  ip4_frag.o(i.ip_reass_dequeue_datagram)
    i.ip_reass_enqueue_new_datagram          0x08008fa8   Section        0  ip4_frag.o(i.ip_reass_enqueue_new_datagram)
    ip_reass_enqueue_new_datagram            0x08008fa9   Thumb Code    80  ip4_frag.o(i.ip_reass_enqueue_new_datagram)
    i.ip_reass_free_complete_datagram        0x08008ffc   Section        0  ip4_frag.o(i.ip_reass_free_complete_datagram)
    ip_reass_free_complete_datagram          0x08008ffd   Thumb Code   274  ip4_frag.o(i.ip_reass_free_complete_datagram)
    i.ip_reass_remove_oldest_datagram        0x080091dc   Section        0  ip4_frag.o(i.ip_reass_remove_oldest_datagram)
    ip_reass_remove_oldest_datagram          0x080091dd   Thumb Code   130  ip4_frag.o(i.ip_reass_remove_oldest_datagram)
    i.ip_reass_tmr                           0x08009264   Section        0  ip4_frag.o(i.ip_reass_tmr)
    i.ipfrag_free_pbuf_custom                0x08009298   Section        0  ip4_frag.o(i.ipfrag_free_pbuf_custom)
    ipfrag_free_pbuf_custom                  0x08009299   Thumb Code    76  ip4_frag.o(i.ipfrag_free_pbuf_custom)
    i.low_level_init                         0x08009360   Section        0  ethernetif.o(i.low_level_init)
    low_level_init                           0x08009361   Thumb Code   246  ethernetif.o(i.low_level_init)
    i.low_level_input                        0x08009478   Section        0  ethernetif.o(i.low_level_input)
    low_level_input                          0x08009479   Thumb Code   108  ethernetif.o(i.low_level_input)
    i.low_level_output                       0x080094f4   Section        0  ethernetif.o(i.low_level_output)
    low_level_output                         0x080094f5   Thumb Code   246  ethernetif.o(i.low_level_output)
    i.lwip_cyclic_timer                      0x080095fc   Section        0  timeouts.o(i.lwip_cyclic_timer)
    lwip_cyclic_timer                        0x080095fd   Thumb Code    70  timeouts.o(i.lwip_cyclic_timer)
    i.lwip_htonl                             0x0800964c   Section        0  def.o(i.lwip_htonl)
    i.lwip_htons                             0x08009666   Section        0  def.o(i.lwip_htons)
    i.lwip_init                              0x08009674   Section        0  init.o(i.lwip_init)
    i.lwip_standard_chksum                   0x08009710   Section        0  inet_chksum.o(i.lwip_standard_chksum)
    i.main                                   0x08009770   Section        0  main.o(i.main)
    i.mem_free                               0x0800980c   Section        0  mem.o(i.mem_free)
    i.mem_init                               0x080099d0   Section        0  mem.o(i.mem_init)
    i.mem_link_valid                         0x08009a28   Section        0  mem.o(i.mem_link_valid)
    mem_link_valid                           0x08009a29   Thumb Code    82  mem.o(i.mem_link_valid)
    i.mem_malloc                             0x08009a80   Section        0  mem.o(i.mem_malloc)
    i.mem_to_ptr                             0x08009d28   Section        0  mem.o(i.mem_to_ptr)
    mem_to_ptr                               0x08009d29   Thumb Code    12  mem.o(i.mem_to_ptr)
    i.mem_trim                               0x08009d38   Section        0  mem.o(i.mem_trim)
    i.memp_free                              0x08009f6c   Section        0  memp.o(i.memp_free)
    i.memp_free_pool                         0x0800a01c   Section        0  memp.o(i.memp_free_pool)
    i.memp_init                              0x0800a0bc   Section        0  memp.o(i.memp_init)
    i.memp_init_pool                         0x0800a0dc   Section        0  memp.o(i.memp_init_pool)
    i.memp_malloc                            0x0800a108   Section        0  memp.o(i.memp_malloc)
    i.memp_malloc_pool                       0x0800a1b8   Section        0  memp.o(i.memp_malloc_pool)
    i.netif_add                              0x0800a250   Section        0  netif.o(i.netif_add)
    i.netif_do_ip_addr_changed               0x0800a484   Section        0  netif.o(i.netif_do_ip_addr_changed)
    netif_do_ip_addr_changed                 0x0800a485   Thumb Code    24  netif.o(i.netif_do_ip_addr_changed)
    i.netif_do_set_gw                        0x0800a49c   Section        0  netif.o(i.netif_do_set_gw)
    netif_do_set_gw                          0x0800a49d   Thumb Code    38  netif.o(i.netif_do_set_gw)
    i.netif_do_set_ipaddr                    0x0800a4c4   Section        0  netif.o(i.netif_do_set_ipaddr)
    netif_do_set_ipaddr                      0x0800a4c5   Thumb Code   116  netif.o(i.netif_do_set_ipaddr)
    i.netif_do_set_netmask                   0x0800a5a4   Section        0  netif.o(i.netif_do_set_netmask)
    netif_do_set_netmask                     0x0800a5a5   Thumb Code    38  netif.o(i.netif_do_set_netmask)
    i.netif_get_by_index                     0x0800a5cc   Section        0  netif.o(i.netif_get_by_index)
    i.netif_init                             0x0800a5f4   Section        0  netif.o(i.netif_init)
    i.netif_issue_reports                    0x0800a63c   Section        0  netif.o(i.netif_issue_reports)
    netif_issue_reports                      0x0800a63d   Thumb Code    86  netif.o(i.netif_issue_reports)
    i.netif_loop_output                      0x0800a714   Section        0  netif.o(i.netif_loop_output)
    i.netif_loop_output_ipv4                 0x0800a88c   Section        0  netif.o(i.netif_loop_output_ipv4)
    netif_loop_output_ipv4                   0x0800a88d   Thumb Code    18  netif.o(i.netif_loop_output_ipv4)
    i.netif_loopif_init                      0x0800a8a0   Section        0  netif.o(i.netif_loopif_init)
    netif_loopif_init                        0x0800a8a1   Thumb Code    48  netif.o(i.netif_loopif_init)
    i.netif_null_output_ip4                  0x0800a954   Section        0  netif.o(i.netif_null_output_ip4)
    netif_null_output_ip4                    0x0800a955   Thumb Code     8  netif.o(i.netif_null_output_ip4)
    i.netif_set_addr                         0x0800a95c   Section        0  netif.o(i.netif_set_addr)
    i.netif_set_default                      0x0800a9bc   Section        0  netif.o(i.netif_set_default)
    i.netif_set_down                         0x0800a9c8   Section        0  netif.o(i.netif_set_down)
    i.netif_set_link_callback                0x0800aa94   Section        0  netif.o(i.netif_set_link_callback)
    i.netif_set_link_down                    0x0800aa9c   Section        0  netif.o(i.netif_set_link_down)
    i.netif_set_link_up                      0x0800ab68   Section        0  netif.o(i.netif_set_link_up)
    i.netif_set_up                           0x0800ac3c   Section        0  netif.o(i.netif_set_up)
    i.pbuf_add_header                        0x0800acfc   Section        0  pbuf.o(i.pbuf_add_header)
    i.pbuf_add_header_impl                   0x0800ad10   Section        0  pbuf.o(i.pbuf_add_header_impl)
    pbuf_add_header_impl                     0x0800ad11   Thumb Code   130  pbuf.o(i.pbuf_add_header_impl)
    i.pbuf_alloc                             0x0800adf8   Section        0  pbuf.o(i.pbuf_alloc)
    i.pbuf_alloc_reference                   0x0800b098   Section        0  pbuf.o(i.pbuf_alloc_reference)
    i.pbuf_alloced_custom                    0x0800b154   Section        0  pbuf.o(i.pbuf_alloced_custom)
    i.pbuf_cat                               0x0800b1a8   Section        0  pbuf.o(i.pbuf_cat)
    i.pbuf_clen                              0x0800b2f8   Section        0  pbuf.o(i.pbuf_clen)
    i.pbuf_clone                             0x0800b30c   Section        0  pbuf.o(i.pbuf_clone)
    i.pbuf_copy                              0x0800b3bc   Section        0  pbuf.o(i.pbuf_copy)
    i.pbuf_copy_partial                      0x0800b5e4   Section        0  pbuf.o(i.pbuf_copy_partial)
    i.pbuf_free                              0x0800b724   Section        0  pbuf.o(i.pbuf_free)
    i.pbuf_free_custom                       0x0800b8c0   Section        0  ethernetif.o(i.pbuf_free_custom)
    i.pbuf_free_ooseq                        0x0800b8e8   Section        0  pbuf.o(i.pbuf_free_ooseq)
    i.pbuf_header_force                      0x0800b918   Section        0  pbuf.o(i.pbuf_header_force)
    i.pbuf_header_impl                       0x0800b92a   Section        0  pbuf.o(i.pbuf_header_impl)
    pbuf_header_impl                         0x0800b92b   Thumb Code    34  pbuf.o(i.pbuf_header_impl)
    i.pbuf_init_alloced_pbuf                 0x0800b94c   Section        0  pbuf.o(i.pbuf_init_alloced_pbuf)
    pbuf_init_alloced_pbuf                   0x0800b94d   Thumb Code    30  pbuf.o(i.pbuf_init_alloced_pbuf)
    i.pbuf_pool_is_empty                     0x0800b96c   Section        0  pbuf.o(i.pbuf_pool_is_empty)
    pbuf_pool_is_empty                       0x0800b96d   Thumb Code    12  pbuf.o(i.pbuf_pool_is_empty)
    i.pbuf_realloc                           0x0800b97c   Section        0  pbuf.o(i.pbuf_realloc)
    i.pbuf_ref                               0x0800bae4   Section        0  pbuf.o(i.pbuf_ref)
    i.pbuf_remove_header                     0x0800bb80   Section        0  pbuf.o(i.pbuf_remove_header)
    i.plug_holes                             0x0800bc74   Section        0  mem.o(i.plug_holes)
    plug_holes                               0x0800bc75   Thumb Code   248  mem.o(i.plug_holes)
    i.ptr_to_mem                             0x0800be4c   Section        0  mem.o(i.ptr_to_mem)
    ptr_to_mem                               0x0800be4d   Thumb Code    10  mem.o(i.ptr_to_mem)
    i.sys_check_timeouts                     0x0800be5c   Section        0  timeouts.o(i.sys_check_timeouts)
    i.sys_now                                0x0800bec0   Section        0  ethernetif.o(i.sys_now)
    i.sys_timeout                            0x0800bec8   Section        0  timeouts.o(i.sys_timeout)
    i.sys_timeout_abs                        0x0800bf98   Section        0  timeouts.o(i.sys_timeout_abs)
    sys_timeout_abs                          0x0800bf99   Thumb Code   160  timeouts.o(i.sys_timeout_abs)
    i.sys_timeouts_init                      0x0800c0d8   Section        0  timeouts.o(i.sys_timeouts_init)
    i.tcp_abandon                            0x0800c100   Section        0  tcp.o(i.tcp_abandon)
    i.tcp_abort                              0x0800c2d4   Section        0  tcp.o(i.tcp_abort)
    i.tcp_alloc                              0x0800c2e4   Section        0  tcp.o(i.tcp_alloc)
    i.tcp_close                              0x0800c3a4   Section        0  tcp.o(i.tcp_close)
    i.tcp_close_shutdown                     0x0800c454   Section        0  tcp.o(i.tcp_close_shutdown)
    tcp_close_shutdown                       0x0800c455   Thumb Code   354  tcp.o(i.tcp_close_shutdown)
    i.tcp_close_shutdown_fin                 0x0800c660   Section        0  tcp.o(i.tcp_close_shutdown_fin)
    tcp_close_shutdown_fin                   0x0800c661   Thumb Code   132  tcp.o(i.tcp_close_shutdown_fin)
    i.tcp_create_segment                     0x0800c748   Section        0  tcp_out.o(i.tcp_create_segment)
    tcp_create_segment                       0x0800c749   Thumb Code   282  tcp_out.o(i.tcp_create_segment)
    i.tcp_eff_send_mss_netif                 0x0800c91c   Section        0  tcp.o(i.tcp_eff_send_mss_netif)
    i.tcp_enqueue_flags                      0x0800c9f0   Section        0  tcp_out.o(i.tcp_enqueue_flags)
    i.tcp_fasttmr                            0x0800ccb0   Section        0  tcp.o(i.tcp_fasttmr)
    i.tcp_free                               0x0800cd4c   Section        0  tcp.o(i.tcp_free)
    i.tcp_free_acked_segments                0x0800cde0   Section        0  tcp_in.o(i.tcp_free_acked_segments)
    tcp_free_acked_segments                  0x0800cde1   Thumb Code   176  tcp_in.o(i.tcp_free_acked_segments)
    i.tcp_free_listen                        0x0800cf3c   Section        0  tcp.o(i.tcp_free_listen)
    tcp_free_listen                          0x0800cf3d   Thumb Code    40  tcp.o(i.tcp_free_listen)
    i.tcp_free_ooseq                         0x0800cfd8   Section        0  tcp.o(i.tcp_free_ooseq)
    i.tcp_get_next_optbyte                   0x0800cfec   Section        0  tcp_in.o(i.tcp_get_next_optbyte)
    tcp_get_next_optbyte                     0x0800cfed   Thumb Code    54  tcp_in.o(i.tcp_get_next_optbyte)
    i.tcp_handle_closepend                   0x0800d034   Section        0  tcp.o(i.tcp_handle_closepend)
    tcp_handle_closepend                     0x0800d035   Thumb Code    48  tcp.o(i.tcp_handle_closepend)
    i.tcp_init                               0x0800d068   Section        0  tcp.o(i.tcp_init)
    i.tcp_input                              0x0800d080   Section        0  tcp_in.o(i.tcp_input)
    i.tcp_input_delayed_close                0x0800d898   Section        0  tcp_in.o(i.tcp_input_delayed_close)
    tcp_input_delayed_close                  0x0800d899   Thumb Code    92  tcp_in.o(i.tcp_input_delayed_close)
    i.tcp_keepalive                          0x0800d980   Section        0  tcp_out.o(i.tcp_keepalive)
    i.tcp_kill_prio                          0x0800da5c   Section        0  tcp.o(i.tcp_kill_prio)
    tcp_kill_prio                            0x0800da5d   Thumb Code    96  tcp.o(i.tcp_kill_prio)
    i.tcp_kill_state                         0x0800dac4   Section        0  tcp.o(i.tcp_kill_state)
    tcp_kill_state                           0x0800dac5   Thumb Code    94  tcp.o(i.tcp_kill_state)
    i.tcp_kill_timewait                      0x0800db94   Section        0  tcp.o(i.tcp_kill_timewait)
    tcp_kill_timewait                        0x0800db95   Thumb Code    50  tcp.o(i.tcp_kill_timewait)
    i.tcp_listen_closed                      0x0800dbd0   Section        0  tcp.o(i.tcp_listen_closed)
    tcp_listen_closed                        0x0800dbd1   Thumb Code    82  tcp.o(i.tcp_listen_closed)
    i.tcp_listen_input                       0x0800dca4   Section        0  tcp_in.o(i.tcp_listen_input)
    tcp_listen_input                         0x0800dca5   Thumb Code   342  tcp_in.o(i.tcp_listen_input)
    i.tcp_netif_ip_addr_changed              0x0800de98   Section        0  tcp.o(i.tcp_netif_ip_addr_changed)
    i.tcp_netif_ip_addr_changed_pcblist      0x0800dee4   Section        0  tcp.o(i.tcp_netif_ip_addr_changed_pcblist)
    tcp_netif_ip_addr_changed_pcblist        0x0800dee5   Thumb Code    68  tcp.o(i.tcp_netif_ip_addr_changed_pcblist)
    i.tcp_next_iss                           0x0800dfb4   Section        0  tcp.o(i.tcp_next_iss)
    i.tcp_oos_insert_segment                 0x0800e064   Section        0  tcp_in.o(i.tcp_oos_insert_segment)
    tcp_oos_insert_segment                   0x0800e065   Thumb Code   164  tcp_in.o(i.tcp_oos_insert_segment)
    i.tcp_output                             0x0800e190   Section        0  tcp_out.o(i.tcp_output)
    i.tcp_output_alloc_header                0x0800e4f4   Section        0  tcp_out.o(i.tcp_output_alloc_header)
    tcp_output_alloc_header                  0x0800e4f5   Thumb Code    86  tcp_out.o(i.tcp_output_alloc_header)
    i.tcp_output_alloc_header_common         0x0800e5d0   Section        0  tcp_out.o(i.tcp_output_alloc_header_common)
    tcp_output_alloc_header_common           0x0800e5d1   Thumb Code   152  tcp_out.o(i.tcp_output_alloc_header_common)
    i.tcp_output_control_segment             0x0800e6f4   Section        0  tcp_out.o(i.tcp_output_control_segment)
    tcp_output_control_segment               0x0800e6f5   Thumb Code   114  tcp_out.o(i.tcp_output_control_segment)
    i.tcp_output_fill_options                0x0800e7f0   Section        0  tcp_out.o(i.tcp_output_fill_options)
    tcp_output_fill_options                  0x0800e7f1   Thumb Code   140  tcp_out.o(i.tcp_output_fill_options)
    i.tcp_output_segment                     0x0800e914   Section        0  tcp_out.o(i.tcp_output_segment)
    tcp_output_segment                       0x0800e915   Thumb Code   372  tcp_out.o(i.tcp_output_segment)
    i.tcp_output_segment_busy                0x0800eb60   Section        0  tcp_out.o(i.tcp_output_segment_busy)
    tcp_output_segment_busy                  0x0800eb61   Thumb Code    46  tcp_out.o(i.tcp_output_segment_busy)
    i.tcp_parseopt                           0x0800ec14   Section        0  tcp_in.o(i.tcp_parseopt)
    tcp_parseopt                             0x0800ec15   Thumb Code   174  tcp_in.o(i.tcp_parseopt)
    i.tcp_pcb_purge                          0x0800ed44   Section        0  tcp.o(i.tcp_pcb_purge)
    i.tcp_pcb_remove                         0x0800ee20   Section        0  tcp.o(i.tcp_pcb_remove)
    i.tcp_process                            0x0800eff8   Section        0  tcp_in.o(i.tcp_process)
    tcp_process                              0x0800eff9   Thumb Code  1818  tcp_in.o(i.tcp_process)
    i.tcp_process_refused_data               0x0800f73c   Section        0  tcp.o(i.tcp_process_refused_data)
    i.tcp_receive                            0x0800f870   Section        0  tcp_in.o(i.tcp_receive)
    tcp_receive                              0x0800f871   Thumb Code  3136  tcp_in.o(i.tcp_receive)
    i.tcp_recv_null                          0x080104ec   Section        0  tcp.o(i.tcp_recv_null)
    i.tcp_recved                             0x080105b0   Section        0  tcp.o(i.tcp_recved)
    i.tcp_remove_listener                    0x080106cc   Section        0  tcp.o(i.tcp_remove_listener)
    tcp_remove_listener                      0x080106cd   Thumb Code    52  tcp.o(i.tcp_remove_listener)
    i.tcp_rexmit                             0x08010780   Section        0  tcp_out.o(i.tcp_rexmit)
    i.tcp_rexmit_fast                        0x08010884   Section        0  tcp_out.o(i.tcp_rexmit_fast)
    i.tcp_rexmit_rto                         0x08010990   Section        0  tcp_out.o(i.tcp_rexmit_rto)
    i.tcp_rexmit_rto_commit                  0x08010a38   Section        0  tcp_out.o(i.tcp_rexmit_rto_commit)
    i.tcp_rexmit_rto_prepare                 0x08010af0   Section        0  tcp_out.o(i.tcp_rexmit_rto_prepare)
    i.tcp_route                              0x08010c08   Section        0  tcp_out.o(i.tcp_route)
    tcp_route                                0x08010c09   Thumb Code    30  tcp_out.o(i.tcp_route)
    i.tcp_rst                                0x08010c28   Section        0  tcp_out.o(i.tcp_rst)
    i.tcp_seg_copy                           0x08010d50   Section        0  tcp.o(i.tcp_seg_copy)
    i.tcp_seg_free                           0x08010e04   Section        0  tcp.o(i.tcp_seg_free)
    i.tcp_segs_free                          0x08010e1e   Section        0  tcp.o(i.tcp_segs_free)
    i.tcp_send_empty_ack                     0x08010e38   Section        0  tcp_out.o(i.tcp_send_empty_ack)
    i.tcp_send_fin                           0x08010f78   Section        0  tcp_out.o(i.tcp_send_fin)
    i.tcp_slowtmr                            0x08011058   Section        0  tcp.o(i.tcp_slowtmr)
    i.tcp_split_unsent_seg                   0x0801178c   Section        0  tcp_out.o(i.tcp_split_unsent_seg)
    i.tcp_timer_needed                       0x08011a5c   Section        0  timeouts.o(i.tcp_timer_needed)
    i.tcp_timewait_input                     0x08011a94   Section        0  tcp_in.o(i.tcp_timewait_input)
    tcp_timewait_input                       0x08011a95   Thumb Code   170  tcp_in.o(i.tcp_timewait_input)
    i.tcp_tmr                                0x08011bd8   Section        0  tcp.o(i.tcp_tmr)
    i.tcp_trigger_input_pcb_close            0x08011bfc   Section        0  tcp_in.o(i.tcp_trigger_input_pcb_close)
    i.tcp_update_rcv_ann_wnd                 0x08011c10   Section        0  tcp.o(i.tcp_update_rcv_ann_wnd)
    i.tcp_zero_window_probe                  0x08011d28   Section        0  tcp_out.o(i.tcp_zero_window_probe)
    i.tcpip_tcp_timer                        0x08011e98   Section        0  timeouts.o(i.tcpip_tcp_timer)
    tcpip_tcp_timer                          0x08011e99   Thumb Code    40  timeouts.o(i.tcpip_tcp_timer)
    i.udp_init                               0x08011ed0   Section        0  udp.o(i.udp_init)
    i.udp_input                              0x08011ee8   Section        0  udp.o(i.udp_input)
    i.udp_input_local_match                  0x08012134   Section        0  udp.o(i.udp_input_local_match)
    udp_input_local_match                    0x08012135   Thumb Code   144  udp.o(i.udp_input_local_match)
    i.udp_netif_ip_addr_changed              0x0801226c   Section        0  udp.o(i.udp_netif_ip_addr_changed)
    .constdata                               0x0801229c   Section       12  ethernetif.o(.constdata)
    .constdata                               0x080122a8   Section       24  stm32h7xx_hal_uart.o(.constdata)
    .constdata                               0x080122c0   Section       16  stm32h7xx_hal_uart_ex.o(.constdata)
    numerator                                0x080122c0   Data           8  stm32h7xx_hal_uart_ex.o(.constdata)
    denominator                              0x080122c8   Data           8  stm32h7xx_hal_uart_ex.o(.constdata)
    .constdata                               0x080122d0   Section       16  system_stm32h7xx.o(.constdata)
    .constdata                               0x080122e0   Section       12  ethernet.o(.constdata)
    .constdata                               0x080122ec   Section      144  memp.o(.constdata)
    .constdata                               0x0801237c   Section       80  tcp.o(.constdata)
    tcp_state_str                            0x0801237c   Data          44  tcp.o(.constdata)
    tcp_backoff                              0x080123a8   Data          13  tcp.o(.constdata)
    tcp_persist_backoff                      0x080123b5   Data           7  tcp.o(.constdata)
    .constdata                               0x080123cc   Section       28  timeouts.o(.constdata)
    .constdata                               0x080123e8   Section        8  ip4_addr.o(.constdata)
    .conststring                             0x080123f0   Section       65  init.o(.conststring)
    .conststring                             0x08012434   Section      117  tcp.o(.conststring)
    .conststring                             0x080124ac   Section       85  tcp_out.o(.conststring)
    .conststring                             0x08012504   Section       65  etharp.o(.conststring)
    .data                                    0x24000000   Section        4  delay.o(.data)
    fac_us                                   0x24000000   Data           4  delay.o(.data)
    .data                                    0x24000004   Section       28  ethernetif.o(.data)
    memp_tab_RX_POOL                         0x24000004   Data           4  ethernetif.o(.data)
    RxAllocStatus                            0x24000008   Data           1  ethernetif.o(.data)
    .data                                    0x24000020   Section       28  lwip.o(.data)
    .data                                    0x2400003c   Section        9  stm32h7xx_hal.o(.data)
    .data                                    0x24000048   Section        8  system_stm32h7xx.o(.data)
    .data                                    0x24000050   Section       12  mem.o(.data)
    ram                                      0x24000050   Data           4  mem.o(.data)
    ram_end                                  0x24000054   Data           4  mem.o(.data)
    lfree                                    0x24000058   Data           4  mem.o(.data)
    .data                                    0x2400005c   Section       36  memp.o(.data)
    memp_tab_UDP_PCB                         0x2400005c   Data           4  memp.o(.data)
    memp_tab_TCP_PCB                         0x24000060   Data           4  memp.o(.data)
    memp_tab_TCP_PCB_LISTEN                  0x24000064   Data           4  memp.o(.data)
    memp_tab_TCP_SEG                         0x24000068   Data           4  memp.o(.data)
    memp_tab_REASSDATA                       0x2400006c   Data           4  memp.o(.data)
    memp_tab_FRAG_PBUF                       0x24000070   Data           4  memp.o(.data)
    memp_tab_SYS_TIMEOUT                     0x24000074   Data           4  memp.o(.data)
    memp_tab_PBUF                            0x24000078   Data           4  memp.o(.data)
    memp_tab_PBUF_POOL                       0x2400007c   Data           4  memp.o(.data)
    .data                                    0x24000080   Section        9  netif.o(.data)
    netif_num                                0x24000088   Data           1  netif.o(.data)
    .data                                    0x24000089   Section        1  pbuf.o(.data)
    .data                                    0x2400008c   Section       32  tcp.o(.data)
    tcp_port                                 0x2400008c   Data           2  tcp.o(.data)
    tcp_timer                                0x240000a5   Data           1  tcp.o(.data)
    tcp_timer_ctr                            0x240000a6   Data           1  tcp.o(.data)
    iss                                      0x240000a8   Data           4  tcp.o(.data)
    .data                                    0x240000ac   Section       40  tcp_in.o(.data)
    tcphdr                                   0x240000ac   Data           4  tcp_in.o(.data)
    tcphdr_optlen                            0x240000b0   Data           2  tcp_in.o(.data)
    tcphdr_opt1len                           0x240000b2   Data           2  tcp_in.o(.data)
    tcphdr_opt2                              0x240000b4   Data           4  tcp_in.o(.data)
    tcp_optidx                               0x240000b8   Data           2  tcp_in.o(.data)
    seqno                                    0x240000bc   Data           4  tcp_in.o(.data)
    ackno                                    0x240000c0   Data           4  tcp_in.o(.data)
    recv_acked                               0x240000c4   Data           2  tcp_in.o(.data)
    tcplen                                   0x240000c6   Data           2  tcp_in.o(.data)
    flags                                    0x240000c8   Data           1  tcp_in.o(.data)
    recv_flags                               0x240000c9   Data           1  tcp_in.o(.data)
    recv_data                                0x240000cc   Data           4  tcp_in.o(.data)
    .data                                    0x240000d4   Section       12  timeouts.o(.data)
    next_timeout                             0x240000d4   Data           4  timeouts.o(.data)
    current_timeout_due_time                 0x240000d8   Data           4  timeouts.o(.data)
    tcpip_tcp_timer_active                   0x240000dc   Data           4  timeouts.o(.data)
    .data                                    0x240000e0   Section        8  udp.o(.data)
    udp_port                                 0x240000e0   Data           2  udp.o(.data)
    .data                                    0x240000e8   Section        1  etharp.o(.data)
    etharp_cached_entry                      0x240000e8   Data           1  etharp.o(.data)
    .data                                    0x240000ea   Section        2  ip4.o(.data)
    ip_id                                    0x240000ea   Data           2  ip4.o(.data)
    .data                                    0x240000ec   Section        6  ip4_frag.o(.data)
    reassdatagrams                           0x240000ec   Data           4  ip4_frag.o(.data)
    ip_reass_pbufcount                       0x240000f0   Data           2  ip4_frag.o(.data)
    .data                                    0x240000f4   Section        4  rand.o(.data)
    _rand_state                              0x240000f4   Data           4  rand.o(.data)
    .data                                    0x240000f8   Section        4  stdout.o(.data)
    .bss                                     0x240000fc   Section      148  usart.o(.bss)
    .bss                                     0x24000190   Section    19084  ethernetif.o(.bss)
    .bss                                     0x24004c1c   Section       60  lwip.o(.bss)
    .bss                                     0x24004c58   Section       24  ip.o(.bss)
    .bss                                     0x24004c70   Section    11967  memp.o(.bss)
    .bss                                     0x24007b30   Section       60  netif.o(.bss)
    loop_netif                               0x24007b30   Data          60  netif.o(.bss)
    .bss                                     0x24007b6c   Section       16  tcp_in.o(.bss)
    inseg                                    0x24007b6c   Data          16  tcp_in.o(.bss)
    .bss                                     0x24007b7c   Section      240  etharp.o(.bss)
    arp_table                                0x24007b7c   Data         240  etharp.o(.bss)
    STACK                                    0x24007c70   Section    16384  startup_stm32h743xx.o(STACK)
    .ARM.__AT_0x30000000                     0x30000000   Section       96  ethernetif.o(.ARM.__AT_0x30000000)
    .ARM.__AT_0x30000060                     0x30000060   Section       96  ethernetif.o(.ARM.__AT_0x30000060)

    Global Symbols

    Symbol Name                              Value     Ov Type        Size  Object(Section)

    BuildAttributes$$THM_ISAv4$E$P$D$K$B$S$7EM$VFPv5_D16$PE$PLD8$A:L22UL41UL21$X:L11$S22US41US21$IEEE1$IW$USESV6$~STKCKD$USESV7$~SHL$OSPACE$ROPI$EBA8$MICROLIB$REQ8$PRES8$EABIv2 0x00000000   Number         0  anon$$obj.o ABSOLUTE
    __ARM_use_no_argv                        0x00000000   Number         0  main.o ABSOLUTE
    _printf_a                                0x00000000   Number         0  stubs.o ABSOLUTE
    _printf_c                                0x00000000   Number         0  stubs.o ABSOLUTE
    _printf_charcount                        0x00000000   Number         0  stubs.o ABSOLUTE
    _printf_d                                0x00000000   Number         0  stubs.o ABSOLUTE
    _printf_e                                0x00000000   Number         0  stubs.o ABSOLUTE
    _printf_f                                0x00000000   Number         0  stubs.o ABSOLUTE
    _printf_flags                            0x00000000   Number         0  stubs.o ABSOLUTE
    _printf_fp_dec                           0x00000000   Number         0  stubs.o ABSOLUTE
    _printf_fp_hex                           0x00000000   Number         0  stubs.o ABSOLUTE
    _printf_g                                0x00000000   Number         0  stubs.o ABSOLUTE
    _printf_i                                0x00000000   Number         0  stubs.o ABSOLUTE
    _printf_int_dec                          0x00000000   Number         0  stubs.o ABSOLUTE
    _printf_l                                0x00000000   Number         0  stubs.o ABSOLUTE
    _printf_lc                               0x00000000   Number         0  stubs.o ABSOLUTE
    _printf_ll                               0x00000000   Number         0  stubs.o ABSOLUTE
    _printf_lld                              0x00000000   Number         0  stubs.o ABSOLUTE
    _printf_lli                              0x00000000   Number         0  stubs.o ABSOLUTE
    _printf_llo                              0x00000000   Number         0  stubs.o ABSOLUTE
    _printf_llu                              0x00000000   Number         0  stubs.o ABSOLUTE
    _printf_llx                              0x00000000   Number         0  stubs.o ABSOLUTE
    _printf_longlong_dec                     0x00000000   Number         0  stubs.o ABSOLUTE
    _printf_longlong_hex                     0x00000000   Number         0  stubs.o ABSOLUTE
    _printf_longlong_oct                     0x00000000   Number         0  stubs.o ABSOLUTE
    _printf_ls                               0x00000000   Number         0  stubs.o ABSOLUTE
    _printf_mbtowc                           0x00000000   Number         0  stubs.o ABSOLUTE
    _printf_n                                0x00000000   Number         0  stubs.o ABSOLUTE
    _printf_o                                0x00000000   Number         0  stubs.o ABSOLUTE
    _printf_p                                0x00000000   Number         0  stubs.o ABSOLUTE
    _printf_percent                          0x00000000   Number         0  stubs.o ABSOLUTE
    _printf_pre_padding                      0x00000000   Number         0  stubs.o ABSOLUTE
    _printf_return_value                     0x00000000   Number         0  stubs.o ABSOLUTE
    _printf_s                                0x00000000   Number         0  stubs.o ABSOLUTE
    _printf_sizespec                         0x00000000   Number         0  stubs.o ABSOLUTE
    _printf_str                              0x00000000   Number         0  stubs.o ABSOLUTE
    _printf_truncate_signed                  0x00000000   Number         0  stubs.o ABSOLUTE
    _printf_truncate_unsigned                0x00000000   Number         0  stubs.o ABSOLUTE
    _printf_u                                0x00000000   Number         0  stubs.o ABSOLUTE
    _printf_wc                               0x00000000   Number         0  stubs.o ABSOLUTE
    _printf_wctomb                           0x00000000   Number         0  stubs.o ABSOLUTE
    _printf_widthprec                        0x00000000   Number         0  stubs.o ABSOLUTE
    _printf_x                                0x00000000   Number         0  stubs.o ABSOLUTE
    __arm_fini_                               - Undefined Weak Reference
    __cpp_initialize__aeabi_                  - Undefined Weak Reference
    __cxa_finalize                            - Undefined Weak Reference
    __decompress                              - Undefined Weak Reference
    _clock_init                               - Undefined Weak Reference
    _microlib_exit                            - Undefined Weak Reference
    __Vectors_Size                           0x00000298   Number         0  startup_stm32h743xx.o ABSOLUTE
    __Vectors                                0x08000000   Data           4  startup_stm32h743xx.o(RESET)
    __Vectors_End                            0x08000298   Data           0  startup_stm32h743xx.o(RESET)
    __main                                   0x08000299   Thumb Code     0  entry.o(.ARM.Collect$$$$00000000)
    _main_stk                                0x08000299   Thumb Code     0  entry2.o(.ARM.Collect$$$$00000001)
    _main_scatterload                        0x0800029d   Thumb Code     0  entry5.o(.ARM.Collect$$$$00000004)
    __main_after_scatterload                 0x080002a1   Thumb Code     0  entry5.o(.ARM.Collect$$$$00000004)
    _main_clock                              0x080002a1   Thumb Code     0  entry7b.o(.ARM.Collect$$$$00000008)
    _main_cpp_init                           0x080002a1   Thumb Code     0  entry8b.o(.ARM.Collect$$$$0000000A)
    _main_init                               0x080002a1   Thumb Code     0  entry9a.o(.ARM.Collect$$$$0000000B)
    __rt_lib_shutdown_fini                   0x080002a9   Thumb Code     0  entry12b.o(.ARM.Collect$$$$0000000E)
    __rt_final_cpp                           0x080002ad   Thumb Code     0  entry10a.o(.ARM.Collect$$$$0000000F)
    __rt_final_exit                          0x080002ad   Thumb Code     0  entry11a.o(.ARM.Collect$$$$00000011)
    Reset_Handler                            0x080002b1   Thumb Code     8  startup_stm32h743xx.o(.text)
    ADC3_IRQHandler                          0x080002cb   Thumb Code     0  startup_stm32h743xx.o(.text)
    ADC_IRQHandler                           0x080002cb   Thumb Code     0  startup_stm32h743xx.o(.text)
    BDMA_Channel0_IRQHandler                 0x080002cb   Thumb Code     0  startup_stm32h743xx.o(.text)
    BDMA_Channel1_IRQHandler                 0x080002cb   Thumb Code     0  startup_stm32h743xx.o(.text)
    BDMA_Channel2_IRQHandler                 0x080002cb   Thumb Code     0  startup_stm32h743xx.o(.text)
    BDMA_Channel3_IRQHandler                 0x080002cb   Thumb Code     0  startup_stm32h743xx.o(.text)
    BDMA_Channel4_IRQHandler                 0x080002cb   Thumb Code     0  startup_stm32h743xx.o(.text)
    BDMA_Channel5_IRQHandler                 0x080002cb   Thumb Code     0  startup_stm32h743xx.o(.text)
    BDMA_Channel6_IRQHandler                 0x080002cb   Thumb Code     0  startup_stm32h743xx.o(.text)
    BDMA_Channel7_IRQHandler                 0x080002cb   Thumb Code     0  startup_stm32h743xx.o(.text)
    CEC_IRQHandler                           0x080002cb   Thumb Code     0  startup_stm32h743xx.o(.text)
    COMP1_IRQHandler                         0x080002cb   Thumb Code     0  startup_stm32h743xx.o(.text)
    CRS_IRQHandler                           0x080002cb   Thumb Code     0  startup_stm32h743xx.o(.text)
    DCMI_IRQHandler                          0x080002cb   Thumb Code     0  startup_stm32h743xx.o(.text)
    DFSDM1_FLT0_IRQHandler                   0x080002cb   Thumb Code     0  startup_stm32h743xx.o(.text)
    DFSDM1_FLT1_IRQHandler                   0x080002cb   Thumb Code     0  startup_stm32h743xx.o(.text)
    DFSDM1_FLT2_IRQHandler                   0x080002cb   Thumb Code     0  startup_stm32h743xx.o(.text)
    DFSDM1_FLT3_IRQHandler                   0x080002cb   Thumb Code     0  startup_stm32h743xx.o(.text)
    DMA1_Stream0_IRQHandler                  0x080002cb   Thumb Code     0  startup_stm32h743xx.o(.text)
    DMA1_Stream1_IRQHandler                  0x080002cb   Thumb Code     0  startup_stm32h743xx.o(.text)
    DMA1_Stream2_IRQHandler                  0x080002cb   Thumb Code     0  startup_stm32h743xx.o(.text)
    DMA1_Stream3_IRQHandler                  0x080002cb   Thumb Code     0  startup_stm32h743xx.o(.text)
    DMA1_Stream4_IRQHandler                  0x080002cb   Thumb Code     0  startup_stm32h743xx.o(.text)
    DMA1_Stream5_IRQHandler                  0x080002cb   Thumb Code     0  startup_stm32h743xx.o(.text)
    DMA1_Stream6_IRQHandler                  0x080002cb   Thumb Code     0  startup_stm32h743xx.o(.text)
    DMA1_Stream7_IRQHandler                  0x080002cb   Thumb Code     0  startup_stm32h743xx.o(.text)
    DMA2D_IRQHandler                         0x080002cb   Thumb Code     0  startup_stm32h743xx.o(.text)
    DMA2_Stream0_IRQHandler                  0x080002cb   Thumb Code     0  startup_stm32h743xx.o(.text)
    DMA2_Stream1_IRQHandler                  0x080002cb   Thumb Code     0  startup_stm32h743xx.o(.text)
    DMA2_Stream2_IRQHandler                  0x080002cb   Thumb Code     0  startup_stm32h743xx.o(.text)
    DMA2_Stream3_IRQHandler                  0x080002cb   Thumb Code     0  startup_stm32h743xx.o(.text)
    DMA2_Stream4_IRQHandler                  0x080002cb   Thumb Code     0  startup_stm32h743xx.o(.text)
    DMA2_Stream5_IRQHandler                  0x080002cb   Thumb Code     0  startup_stm32h743xx.o(.text)
    DMA2_Stream6_IRQHandler                  0x080002cb   Thumb Code     0  startup_stm32h743xx.o(.text)
    DMA2_Stream7_IRQHandler                  0x080002cb   Thumb Code     0  startup_stm32h743xx.o(.text)
    DMAMUX1_OVR_IRQHandler                   0x080002cb   Thumb Code     0  startup_stm32h743xx.o(.text)
    DMAMUX2_OVR_IRQHandler                   0x080002cb   Thumb Code     0  startup_stm32h743xx.o(.text)
    ECC_IRQHandler                           0x080002cb   Thumb Code     0  startup_stm32h743xx.o(.text)
    EXTI0_IRQHandler                         0x080002cb   Thumb Code     0  startup_stm32h743xx.o(.text)
    EXTI15_10_IRQHandler                     0x080002cb   Thumb Code     0  startup_stm32h743xx.o(.text)
    EXTI1_IRQHandler                         0x080002cb   Thumb Code     0  startup_stm32h743xx.o(.text)
    EXTI2_IRQHandler                         0x080002cb   Thumb Code     0  startup_stm32h743xx.o(.text)
    EXTI3_IRQHandler                         0x080002cb   Thumb Code     0  startup_stm32h743xx.o(.text)
    EXTI4_IRQHandler                         0x080002cb   Thumb Code     0  startup_stm32h743xx.o(.text)
    EXTI9_5_IRQHandler                       0x080002cb   Thumb Code     0  startup_stm32h743xx.o(.text)
    FDCAN1_IT0_IRQHandler                    0x080002cb   Thumb Code     0  startup_stm32h743xx.o(.text)
    FDCAN1_IT1_IRQHandler                    0x080002cb   Thumb Code     0  startup_stm32h743xx.o(.text)
    FDCAN2_IT0_IRQHandler                    0x080002cb   Thumb Code     0  startup_stm32h743xx.o(.text)
    FDCAN2_IT1_IRQHandler                    0x080002cb   Thumb Code     0  startup_stm32h743xx.o(.text)
    FDCAN_CAL_IRQHandler                     0x080002cb   Thumb Code     0  startup_stm32h743xx.o(.text)
    FLASH_IRQHandler                         0x080002cb   Thumb Code     0  startup_stm32h743xx.o(.text)
    FMC_IRQHandler                           0x080002cb   Thumb Code     0  startup_stm32h743xx.o(.text)
    FPU_IRQHandler                           0x080002cb   Thumb Code     0  startup_stm32h743xx.o(.text)
    HRTIM1_FLT_IRQHandler                    0x080002cb   Thumb Code     0  startup_stm32h743xx.o(.text)
    HRTIM1_Master_IRQHandler                 0x080002cb   Thumb Code     0  startup_stm32h743xx.o(.text)
    HRTIM1_TIMA_IRQHandler                   0x080002cb   Thumb Code     0  startup_stm32h743xx.o(.text)
    HRTIM1_TIMB_IRQHandler                   0x080002cb   Thumb Code     0  startup_stm32h743xx.o(.text)
    HRTIM1_TIMC_IRQHandler                   0x080002cb   Thumb Code     0  startup_stm32h743xx.o(.text)
    HRTIM1_TIMD_IRQHandler                   0x080002cb   Thumb Code     0  startup_stm32h743xx.o(.text)
    HRTIM1_TIME_IRQHandler                   0x080002cb   Thumb Code     0  startup_stm32h743xx.o(.text)
    HSEM1_IRQHandler                         0x080002cb   Thumb Code     0  startup_stm32h743xx.o(.text)
    I2C1_ER_IRQHandler                       0x080002cb   Thumb Code     0  startup_stm32h743xx.o(.text)
    I2C1_EV_IRQHandler                       0x080002cb   Thumb Code     0  startup_stm32h743xx.o(.text)
    I2C2_ER_IRQHandler                       0x080002cb   Thumb Code     0  startup_stm32h743xx.o(.text)
    I2C2_EV_IRQHandler                       0x080002cb   Thumb Code     0  startup_stm32h743xx.o(.text)
    I2C3_ER_IRQHandler                       0x080002cb   Thumb Code     0  startup_stm32h743xx.o(.text)
    I2C3_EV_IRQHandler                       0x080002cb   Thumb Code     0  startup_stm32h743xx.o(.text)
    I2C4_ER_IRQHandler                       0x080002cb   Thumb Code     0  startup_stm32h743xx.o(.text)
    I2C4_EV_IRQHandler                       0x080002cb   Thumb Code     0  startup_stm32h743xx.o(.text)
    JPEG_IRQHandler                          0x080002cb   Thumb Code     0  startup_stm32h743xx.o(.text)
    LPTIM1_IRQHandler                        0x080002cb   Thumb Code     0  startup_stm32h743xx.o(.text)
    LPTIM2_IRQHandler                        0x080002cb   Thumb Code     0  startup_stm32h743xx.o(.text)
    LPTIM3_IRQHandler                        0x080002cb   Thumb Code     0  startup_stm32h743xx.o(.text)
    LPTIM4_IRQHandler                        0x080002cb   Thumb Code     0  startup_stm32h743xx.o(.text)
    LPTIM5_IRQHandler                        0x080002cb   Thumb Code     0  startup_stm32h743xx.o(.text)
    LPUART1_IRQHandler                       0x080002cb   Thumb Code     0  startup_stm32h743xx.o(.text)
    LTDC_ER_IRQHandler                       0x080002cb   Thumb Code     0  startup_stm32h743xx.o(.text)
    LTDC_IRQHandler                          0x080002cb   Thumb Code     0  startup_stm32h743xx.o(.text)
    MDIOS_IRQHandler                         0x080002cb   Thumb Code     0  startup_stm32h743xx.o(.text)
    MDIOS_WKUP_IRQHandler                    0x080002cb   Thumb Code     0  startup_stm32h743xx.o(.text)
    MDMA_IRQHandler                          0x080002cb   Thumb Code     0  startup_stm32h743xx.o(.text)
    OTG_FS_EP1_IN_IRQHandler                 0x080002cb   Thumb Code     0  startup_stm32h743xx.o(.text)
    OTG_FS_EP1_OUT_IRQHandler                0x080002cb   Thumb Code     0  startup_stm32h743xx.o(.text)
    OTG_FS_IRQHandler                        0x080002cb   Thumb Code     0  startup_stm32h743xx.o(.text)
    OTG_FS_WKUP_IRQHandler                   0x080002cb   Thumb Code     0  startup_stm32h743xx.o(.text)
    OTG_HS_EP1_IN_IRQHandler                 0x080002cb   Thumb Code     0  startup_stm32h743xx.o(.text)
    OTG_HS_EP1_OUT_IRQHandler                0x080002cb   Thumb Code     0  startup_stm32h743xx.o(.text)
    OTG_HS_IRQHandler                        0x080002cb   Thumb Code     0  startup_stm32h743xx.o(.text)
    OTG_HS_WKUP_IRQHandler                   0x080002cb   Thumb Code     0  startup_stm32h743xx.o(.text)
    PVD_AVD_IRQHandler                       0x080002cb   Thumb Code     0  startup_stm32h743xx.o(.text)
    QUADSPI_IRQHandler                       0x080002cb   Thumb Code     0  startup_stm32h743xx.o(.text)
    RCC_IRQHandler                           0x080002cb   Thumb Code     0  startup_stm32h743xx.o(.text)
    RNG_IRQHandler                           0x080002cb   Thumb Code     0  startup_stm32h743xx.o(.text)
    RTC_Alarm_IRQHandler                     0x080002cb   Thumb Code     0  startup_stm32h743xx.o(.text)
    RTC_WKUP_IRQHandler                      0x080002cb   Thumb Code     0  startup_stm32h743xx.o(.text)
    SAI1_IRQHandler                          0x080002cb   Thumb Code     0  startup_stm32h743xx.o(.text)
    SAI2_IRQHandler                          0x080002cb   Thumb Code     0  startup_stm32h743xx.o(.text)
    SAI3_IRQHandler                          0x080002cb   Thumb Code     0  startup_stm32h743xx.o(.text)
    SAI4_IRQHandler                          0x080002cb   Thumb Code     0  startup_stm32h743xx.o(.text)
    SDMMC1_IRQHandler                        0x080002cb   Thumb Code     0  startup_stm32h743xx.o(.text)
    SDMMC2_IRQHandler                        0x080002cb   Thumb Code     0  startup_stm32h743xx.o(.text)
    SPDIF_RX_IRQHandler                      0x080002cb   Thumb Code     0  startup_stm32h743xx.o(.text)
    SPI1_IRQHandler                          0x080002cb   Thumb Code     0  startup_stm32h743xx.o(.text)
    SPI2_IRQHandler                          0x080002cb   Thumb Code     0  startup_stm32h743xx.o(.text)
    SPI3_IRQHandler                          0x080002cb   Thumb Code     0  startup_stm32h743xx.o(.text)
    SPI4_IRQHandler                          0x080002cb   Thumb Code     0  startup_stm32h743xx.o(.text)
    SPI5_IRQHandler                          0x080002cb   Thumb Code     0  startup_stm32h743xx.o(.text)
    SPI6_IRQHandler                          0x080002cb   Thumb Code     0  startup_stm32h743xx.o(.text)
    SWPMI1_IRQHandler                        0x080002cb   Thumb Code     0  startup_stm32h743xx.o(.text)
    TAMP_STAMP_IRQHandler                    0x080002cb   Thumb Code     0  startup_stm32h743xx.o(.text)
    TIM15_IRQHandler                         0x080002cb   Thumb Code     0  startup_stm32h743xx.o(.text)
    TIM16_IRQHandler                         0x080002cb   Thumb Code     0  startup_stm32h743xx.o(.text)
    TIM17_IRQHandler                         0x080002cb   Thumb Code     0  startup_stm32h743xx.o(.text)
    TIM1_BRK_IRQHandler                      0x080002cb   Thumb Code     0  startup_stm32h743xx.o(.text)
    TIM1_CC_IRQHandler                       0x080002cb   Thumb Code     0  startup_stm32h743xx.o(.text)
    TIM1_TRG_COM_IRQHandler                  0x080002cb   Thumb Code     0  startup_stm32h743xx.o(.text)
    TIM1_UP_IRQHandler                       0x080002cb   Thumb Code     0  startup_stm32h743xx.o(.text)
    TIM2_IRQHandler                          0x080002cb   Thumb Code     0  startup_stm32h743xx.o(.text)
    TIM3_IRQHandler                          0x080002cb   Thumb Code     0  startup_stm32h743xx.o(.text)
    TIM4_IRQHandler                          0x080002cb   Thumb Code     0  startup_stm32h743xx.o(.text)
    TIM5_IRQHandler                          0x080002cb   Thumb Code     0  startup_stm32h743xx.o(.text)
    TIM6_DAC_IRQHandler                      0x080002cb   Thumb Code     0  startup_stm32h743xx.o(.text)
    TIM7_IRQHandler                          0x080002cb   Thumb Code     0  startup_stm32h743xx.o(.text)
    TIM8_BRK_TIM12_IRQHandler                0x080002cb   Thumb Code     0  startup_stm32h743xx.o(.text)
    TIM8_CC_IRQHandler                       0x080002cb   Thumb Code     0  startup_stm32h743xx.o(.text)
    TIM8_TRG_COM_TIM14_IRQHandler            0x080002cb   Thumb Code     0  startup_stm32h743xx.o(.text)
    TIM8_UP_TIM13_IRQHandler                 0x080002cb   Thumb Code     0  startup_stm32h743xx.o(.text)
    UART4_IRQHandler                         0x080002cb   Thumb Code     0  startup_stm32h743xx.o(.text)
    UART5_IRQHandler                         0x080002cb   Thumb Code     0  startup_stm32h743xx.o(.text)
    UART7_IRQHandler                         0x080002cb   Thumb Code     0  startup_stm32h743xx.o(.text)
    UART8_IRQHandler                         0x080002cb   Thumb Code     0  startup_stm32h743xx.o(.text)
    USART2_IRQHandler                        0x080002cb   Thumb Code     0  startup_stm32h743xx.o(.text)
    USART3_IRQHandler                        0x080002cb   Thumb Code     0  startup_stm32h743xx.o(.text)
    USART6_IRQHandler                        0x080002cb   Thumb Code     0  startup_stm32h743xx.o(.text)
    WAKEUP_PIN_IRQHandler                    0x080002cb   Thumb Code     0  startup_stm32h743xx.o(.text)
    WWDG_IRQHandler                          0x080002cb   Thumb Code     0  startup_stm32h743xx.o(.text)
    __aeabi_uldivmod                         0x080002d5   Thumb Code    98  uldiv.o(.text)
    rand                                     0x08000339   Thumb Code    20  rand.o(.text)
    srand                                    0x0800034d   Thumb Code     6  rand.o(.text)
    ___aeabi_memcpy4$move                    0x0800035d   Thumb Code     0  memmovea.o(.text)
    ___aeabi_memcpy8$move                    0x0800035d   Thumb Code     0  memmovea.o(.text)
    __aeabi_memcpy                           0x0800035d   Thumb Code    64  memmovea.o(.text)
    __aeabi_memmove                          0x0800035d   Thumb Code     0  memmovea.o(.text)
    __aeabi_memmove4                         0x0800035d   Thumb Code     0  memmovea.o(.text)
    __aeabi_memmove8                         0x0800035d   Thumb Code     0  memmovea.o(.text)
    __aeabi_memset                           0x0800039d   Thumb Code    14  memseta.o(.text)
    __aeabi_memset4                          0x0800039d   Thumb Code     0  memseta.o(.text)
    __aeabi_memset8                          0x0800039d   Thumb Code     0  memseta.o(.text)
    __aeabi_memclr                           0x080003ab   Thumb Code     4  memseta.o(.text)
    __aeabi_memclr4                          0x080003ab   Thumb Code     0  memseta.o(.text)
    __aeabi_memclr8                          0x080003ab   Thumb Code     0  memseta.o(.text)
    _memset$wrapper                          0x080003af   Thumb Code    18  memseta.o(.text)
    memcmp                                   0x080003c1   Thumb Code    26  memcmp.o(.text)
    __aeabi_uidiv                            0x080003db   Thumb Code     0  uidiv.o(.text)
    __aeabi_uidivmod                         0x080003db   Thumb Code    44  uidiv.o(.text)
    __aeabi_llsl                             0x08000407   Thumb Code    30  llshl.o(.text)
    _ll_shift_l                              0x08000407   Thumb Code     0  llshl.o(.text)
    __aeabi_llsr                             0x08000425   Thumb Code    32  llushr.o(.text)
    _ll_ushift_r                             0x08000425   Thumb Code     0  llushr.o(.text)
    __scatterload                            0x08000445   Thumb Code    28  init.o(.text)
    __scatterload_rt2                        0x08000445   Thumb Code     0  init.o(.text)
    BusFault_Handler                         0x08000469   Thumb Code     4  stm32h7xx_it.o(i.BusFault_Handler)
    __I$use$semihosting$fputc                0x08000469   Thumb Code     0  iusesemip.o(.text)
    __semihosting_library_function           0x08000469   Thumb Code     0  semi.o(.text)
    DebugMon_Handler                         0x0800046d   Thumb Code     2  stm32h7xx_it.o(i.DebugMon_Handler)
    ETH_IRQHandler                           0x08000521   Thumb Code    10  stm32h7xx_it.o(i.ETH_IRQHandler)
    ETH_PHY_IO_DeInit                        0x08000637   Thumb Code     4  ethernetif.o(i.ETH_PHY_IO_DeInit)
    ETH_PHY_IO_GetTick                       0x0800063b   Thumb Code     8  ethernetif.o(i.ETH_PHY_IO_GetTick)
    ETH_PHY_IO_Init                          0x08000645   Thumb Code    12  ethernetif.o(i.ETH_PHY_IO_Init)
    ETH_PHY_IO_ReadReg                       0x08000655   Thumb Code    32  ethernetif.o(i.ETH_PHY_IO_ReadReg)
    ETH_PHY_IO_WriteReg                      0x08000679   Thumb Code    32  ethernetif.o(i.ETH_PHY_IO_WriteReg)
    ETH_WKUP_IRQHandler                      0x08000d0d   Thumb Code    10  stm32h7xx_it.o(i.ETH_WKUP_IRQHandler)
    Error_Handler                            0x08000d1d   Thumb Code     6  main.o(i.Error_Handler)
    HAL_DMA_Abort                            0x08000d4d   Thumb Code  1236  stm32h7xx_hal_dma.o(i.HAL_DMA_Abort)
    HAL_DMA_Abort_IT                         0x08001229   Thumb Code   906  stm32h7xx_hal_dma.o(i.HAL_DMA_Abort_IT)
    HAL_Delay                                0x080015c1   Thumb Code    36  stm32h7xx_hal.o(i.HAL_Delay)
    HAL_ETH_EEECallback                      0x080015e9   Thumb Code     2  stm32h7xx_hal_eth.o(i.HAL_ETH_EEECallback)
    HAL_ETH_ErrorCallback                    0x080015eb   Thumb Code     2  stm32h7xx_hal_eth.o(i.HAL_ETH_ErrorCallback)
    HAL_ETH_GetMACConfig                     0x080015ed   Thumb Code   470  stm32h7xx_hal_eth.o(i.HAL_ETH_GetMACConfig)
    HAL_ETH_IRQHandler                       0x080017c5   Thumb Code   444  stm32h7xx_hal_eth.o(i.HAL_ETH_IRQHandler)
    HAL_ETH_Init                             0x08001985   Thumb Code   346  stm32h7xx_hal_eth.o(i.HAL_ETH_Init)
    HAL_ETH_MspInit                          0x08001aed   Thumb Code   368  ethernetif.o(i.HAL_ETH_MspInit)
    HAL_ETH_PMTCallback                      0x08001c75   Thumb Code     2  stm32h7xx_hal_eth.o(i.HAL_ETH_PMTCallback)
    HAL_ETH_ReadData                         0x08001c77   Thumb Code   256  stm32h7xx_hal_eth.o(i.HAL_ETH_ReadData)
    HAL_ETH_ReadPHYRegister                  0x08001d77   Thumb Code   120  stm32h7xx_hal_eth.o(i.HAL_ETH_ReadPHYRegister)
    HAL_ETH_RxAllocateCallback               0x08001df1   Thumb Code    60  ethernetif.o(i.HAL_ETH_RxAllocateCallback)
    HAL_ETH_RxCpltCallback                   0x08001e39   Thumb Code     2  stm32h7xx_hal_eth.o(i.HAL_ETH_RxCpltCallback)
    HAL_ETH_RxLinkCallback                   0x08001e3d   Thumb Code   122  ethernetif.o(i.HAL_ETH_RxLinkCallback)
    HAL_ETH_SetMACConfig                     0x08001ebd   Thumb Code    36  stm32h7xx_hal_eth.o(i.HAL_ETH_SetMACConfig)
    HAL_ETH_SetMDIOClockRange                0x08001ee1   Thumb Code   100  stm32h7xx_hal_eth.o(i.HAL_ETH_SetMDIOClockRange)
    HAL_ETH_Start                            0x08001f59   Thumb Code   154  stm32h7xx_hal_eth.o(i.HAL_ETH_Start)
    HAL_ETH_Stop                             0x08001ff3   Thumb Code   116  stm32h7xx_hal_eth.o(i.HAL_ETH_Stop)
    HAL_ETH_Transmit                         0x08002067   Thumb Code   234  stm32h7xx_hal_eth.o(i.HAL_ETH_Transmit)
    HAL_ETH_TxCpltCallback                   0x08002151   Thumb Code     2  stm32h7xx_hal_eth.o(i.HAL_ETH_TxCpltCallback)
    HAL_ETH_WakeUpCallback                   0x08002153   Thumb Code     2  stm32h7xx_hal_eth.o(i.HAL_ETH_WakeUpCallback)
    HAL_ETH_WritePHYRegister                 0x08002155   Thumb Code   118  stm32h7xx_hal_eth.o(i.HAL_ETH_WritePHYRegister)
    HAL_GPIO_Init                            0x080021d5   Thumb Code   456  stm32h7xx_hal_gpio.o(i.HAL_GPIO_Init)
    HAL_GPIO_ReadPin                         0x080023d1   Thumb Code    16  stm32h7xx_hal_gpio.o(i.HAL_GPIO_ReadPin)
    HAL_GPIO_WritePin                        0x080023e1   Thumb Code    12  stm32h7xx_hal_gpio.o(i.HAL_GPIO_WritePin)
    HAL_GetREVID                             0x080023ed   Thumb Code     8  stm32h7xx_hal.o(i.HAL_GetREVID)
    HAL_GetTick                              0x080023f9   Thumb Code     6  stm32h7xx_hal.o(i.HAL_GetTick)
    HAL_IncTick                              0x08002405   Thumb Code    16  stm32h7xx_hal.o(i.HAL_IncTick)
    HAL_Init                                 0x0800241d   Thumb Code    80  stm32h7xx_hal.o(i.HAL_Init)
    HAL_InitTick                             0x0800247d   Thumb Code    74  stm32h7xx_hal.o(i.HAL_InitTick)
    HAL_MPU_ConfigRegion                     0x080024d5   Thumb Code    88  stm32h7xx_hal_cortex.o(i.HAL_MPU_ConfigRegion)
    HAL_MPU_Disable                          0x08002531   Thumb Code    26  stm32h7xx_hal_cortex.o(i.HAL_MPU_Disable)
    HAL_MPU_Enable                           0x08002551   Thumb Code    34  stm32h7xx_hal_cortex.o(i.HAL_MPU_Enable)
    HAL_MspInit                              0x08002579   Thumb Code    32  stm32h7xx_hal_msp.o(i.HAL_MspInit)
    HAL_NVIC_EnableIRQ                       0x0800259d   Thumb Code    40  stm32h7xx_hal_cortex.o(i.HAL_NVIC_EnableIRQ)
    HAL_NVIC_SetPriority                     0x080025c5   Thumb Code   122  stm32h7xx_hal_cortex.o(i.HAL_NVIC_SetPriority)
    HAL_NVIC_SetPriorityGrouping             0x08002641   Thumb Code    32  stm32h7xx_hal_cortex.o(i.HAL_NVIC_SetPriorityGrouping)
    HAL_PWREx_ConfigSupply                   0x08002669   Thumb Code    90  stm32h7xx_hal_pwr_ex.o(i.HAL_PWREx_ConfigSupply)
    HAL_RCCEx_GetD3PCLK1Freq                 0x080026c9   Thumb Code    26  stm32h7xx_hal_rcc_ex.o(i.HAL_RCCEx_GetD3PCLK1Freq)
    HAL_RCCEx_GetPLL2ClockFreq               0x080026ed   Thumb Code   536  stm32h7xx_hal_rcc_ex.o(i.HAL_RCCEx_GetPLL2ClockFreq)
    HAL_RCCEx_GetPLL3ClockFreq               0x0800291d   Thumb Code   536  stm32h7xx_hal_rcc_ex.o(i.HAL_RCCEx_GetPLL3ClockFreq)
    HAL_RCCEx_PeriphCLKConfig                0x08002b4d   Thumb Code  3432  stm32h7xx_hal_rcc_ex.o(i.HAL_RCCEx_PeriphCLKConfig)
    HAL_RCC_ClockConfig                      0x080038b5   Thumb Code   774  stm32h7xx_hal_rcc.o(i.HAL_RCC_ClockConfig)
    HAL_RCC_GetHCLKFreq                      0x08003bd5   Thumb Code    60  stm32h7xx_hal_rcc.o(i.HAL_RCC_GetHCLKFreq)
    HAL_RCC_GetPCLK1Freq                     0x08003c21   Thumb Code    26  stm32h7xx_hal_rcc.o(i.HAL_RCC_GetPCLK1Freq)
    HAL_RCC_GetPCLK2Freq                     0x08003c45   Thumb Code    26  stm32h7xx_hal_rcc.o(i.HAL_RCC_GetPCLK2Freq)
    HAL_RCC_GetSysClockFreq                  0x08003c69   Thumb Code   524  stm32h7xx_hal_rcc.o(i.HAL_RCC_GetSysClockFreq)
    HAL_RCC_OscConfig                        0x08003e95   Thumb Code  2130  stm32h7xx_hal_rcc.o(i.HAL_RCC_OscConfig)
    HAL_SYSCFG_ETHInterfaceSelect            0x080046ed   Thumb Code    16  stm32h7xx_hal.o(i.HAL_SYSCFG_ETHInterfaceSelect)
    HAL_SYSTICK_Config                       0x08004701   Thumb Code    52  stm32h7xx_hal_cortex.o(i.HAL_SYSTICK_Config)
    HAL_UARTEx_DisableFifoMode               0x08004735   Thumb Code    78  stm32h7xx_hal_uart_ex.o(i.HAL_UARTEx_DisableFifoMode)
    HAL_UARTEx_RxEventCallback               0x08004783   Thumb Code     2  stm32h7xx_hal_uart.o(i.HAL_UARTEx_RxEventCallback)
    HAL_UARTEx_RxFifoFullCallback            0x08004785   Thumb Code     2  stm32h7xx_hal_uart_ex.o(i.HAL_UARTEx_RxFifoFullCallback)
    HAL_UARTEx_SetRxFifoThreshold            0x08004787   Thumb Code    94  stm32h7xx_hal_uart_ex.o(i.HAL_UARTEx_SetRxFifoThreshold)
    HAL_UARTEx_SetTxFifoThreshold            0x080047e5   Thumb Code    94  stm32h7xx_hal_uart_ex.o(i.HAL_UARTEx_SetTxFifoThreshold)
    HAL_UARTEx_TxFifoEmptyCallback           0x08004843   Thumb Code     2  stm32h7xx_hal_uart_ex.o(i.HAL_UARTEx_TxFifoEmptyCallback)
    HAL_UARTEx_WakeupCallback                0x08004845   Thumb Code     2  stm32h7xx_hal_uart_ex.o(i.HAL_UARTEx_WakeupCallback)
    HAL_UART_ErrorCallback                   0x08004847   Thumb Code     2  stm32h7xx_hal_uart.o(i.HAL_UART_ErrorCallback)
    HAL_UART_IRQHandler                      0x08004849   Thumb Code  1172  stm32h7xx_hal_uart.o(i.HAL_UART_IRQHandler)
    HAL_UART_Init                            0x08004cdd   Thumb Code   120  stm32h7xx_hal_uart.o(i.HAL_UART_Init)
    HAL_UART_MspInit                         0x08004d55   Thumb Code   160  usart.o(i.HAL_UART_MspInit)
    HAL_UART_TxCpltCallback                  0x08004e01   Thumb Code     2  stm32h7xx_hal_uart.o(i.HAL_UART_TxCpltCallback)
    HardFault_Handler                        0x08004e03   Thumb Code     4  stm32h7xx_it.o(i.HardFault_Handler)
    IIC_Ack                                  0x08004e09   Thumb Code    78  myiic.o(i.IIC_Ack)
    IIC_Init                                 0x08004e5d   Thumb Code    78  myiic.o(i.IIC_Init)
    IIC_NAck                                 0x08004eb5   Thumb Code    78  myiic.o(i.IIC_NAck)
    IIC_Read_Byte                            0x08004f09   Thumb Code   102  myiic.o(i.IIC_Read_Byte)
    IIC_Send_Byte                            0x08004f75   Thumb Code   118  myiic.o(i.IIC_Send_Byte)
    IIC_Start                                0x08004ff1   Thumb Code    78  myiic.o(i.IIC_Start)
    IIC_Stop                                 0x08005045   Thumb Code    78  myiic.o(i.IIC_Stop)
    IIC_Wait_Ack                             0x08005099   Thumb Code    98  myiic.o(i.IIC_Wait_Ack)
    LAN8742_GetLinkState                     0x08005101   Thumb Code   234  lan8742.o(i.LAN8742_GetLinkState)
    LAN8742_Init                             0x080051eb   Thumb Code   222  lan8742.o(i.LAN8742_Init)
    LAN8742_RegisterBusIO                    0x080052c9   Thumb Code    46  lan8742.o(i.LAN8742_RegisterBusIO)
    MX_GPIO_Init                             0x08005359   Thumb Code   136  gpio.o(i.MX_GPIO_Init)
    MX_LWIP_Init                             0x080053e5   Thumb Code   536  lwip.o(i.MX_LWIP_Init)
    MX_LWIP_Process                          0x08005625   Thumb Code    20  lwip.o(i.MX_LWIP_Process)
    MX_USART1_UART_Init                      0x0800563d   Thumb Code    98  usart.o(i.MX_USART1_UART_Init)
    MemManage_Handler                        0x080056a9   Thumb Code     4  stm32h7xx_it.o(i.MemManage_Handler)
    NMI_Handler                              0x080056ad   Thumb Code     4  stm32h7xx_it.o(i.NMI_Handler)
    PCF8574_Init                             0x080056b1   Thumb Code    96  pcf8574.o(i.PCF8574_Init)
    PCF8574_ReadOneByte                      0x08005719   Thumb Code    34  pcf8574.o(i.PCF8574_ReadOneByte)
    PCF8574_WriteBit                         0x0800573b   Thumb Code    38  pcf8574.o(i.PCF8574_WriteBit)
    PCF8574_WriteOneByte                     0x08005761   Thumb Code    40  pcf8574.o(i.PCF8574_WriteOneByte)
    PendSV_Handler                           0x08005789   Thumb Code     2  stm32h7xx_it.o(i.PendSV_Handler)
    SVC_Handler                              0x08005a55   Thumb Code     2  stm32h7xx_it.o(i.SVC_Handler)
    SysTick_Handler                          0x08005a57   Thumb Code     8  stm32h7xx_it.o(i.SysTick_Handler)
    SystemClock_Config                       0x08005a61   Thumb Code   296  main.o(i.SystemClock_Config)
    SystemInit                               0x08005b95   Thumb Code   212  system_stm32h7xx.o(i.SystemInit)
    UART_AdvFeatureConfig                    0x08005ce9   Thumb Code   248  stm32h7xx_hal_uart.o(i.UART_AdvFeatureConfig)
    UART_CheckIdleState                      0x08005de1   Thumb Code   234  stm32h7xx_hal_uart.o(i.UART_CheckIdleState)
    UART_SetConfig                           0x08005f81   Thumb Code  1402  stm32h7xx_hal_uart.o(i.UART_SetConfig)
    UART_WaitOnFlagUntilTimeout              0x0800650d   Thumb Code   162  stm32h7xx_hal_uart.o(i.UART_WaitOnFlagUntilTimeout)
    USART1_IRQHandler                        0x080065b1   Thumb Code    10  stm32h7xx_it.o(i.USART1_IRQHandler)
    UsageFault_Handler                       0x080065c1   Thumb Code     4  stm32h7xx_it.o(i.UsageFault_Handler)
    __0printf$3                              0x080065c5   Thumb Code    22  printf3.o(i.__0printf$3)
    __1printf$3                              0x080065c5   Thumb Code     0  printf3.o(i.__0printf$3)
    __2printf                                0x080065c5   Thumb Code     0  printf3.o(i.__0printf$3)
    __scatterload_copy                       0x0800661d   Thumb Code    14  handlers.o(i.__scatterload_copy)
    __scatterload_null                       0x0800662b   Thumb Code     2  handlers.o(i.__scatterload_null)
    __scatterload_zeroinit                   0x0800662d   Thumb Code    14  handlers.o(i.__scatterload_zeroinit)
    delay_ms                                 0x080067f5   Thumb Code    24  delay.o(i.delay_ms)
    delay_us                                 0x0800680d   Thumb Code    68  delay.o(i.delay_us)
    etharp_cleanup_netif                     0x080069b5   Thumb Code    50  etharp.o(i.etharp_cleanup_netif)
    etharp_input                             0x08006d2d   Thumb Code   202  etharp.o(i.etharp_input)
    etharp_output                            0x08006e69   Thumb Code   396  etharp.o(i.etharp_output)
    etharp_query                             0x080071f5   Thumb Code   474  etharp.o(i.etharp_query)
    etharp_request                           0x08007625   Thumb Code    18  etharp.o(i.etharp_request)
    etharp_tmr                               0x08007669   Thumb Code   214  etharp.o(i.etharp_tmr)
    ethernet_input                           0x080078a1   Thumb Code   190  ethernet.o(i.ethernet_input)
    ethernet_link_check_state                0x08007965   Thumb Code   196  ethernetif.o(i.ethernet_link_check_state)
    ethernet_output                          0x08007aad   Thumb Code   112  ethernet.o(i.ethernet_output)
    ethernetif_init                          0x08007bb1   Thumb Code    58  ethernetif.o(i.ethernetif_init)
    ethernetif_input                         0x08007c49   Thumb Code    40  ethernetif.o(i.ethernetif_input)
    fputc                                    0x08007c71   Thumb Code    18  fputc.o(i.fputc)
    icmp_dest_unreach                        0x08007c83   Thumb Code    18  icmp.o(i.icmp_dest_unreach)
    icmp_input                               0x08007c95   Thumb Code   466  icmp.o(i.icmp_input)
    icmp_time_exceeded                       0x0800805d   Thumb Code    18  icmp.o(i.icmp_time_exceeded)
    inet_chksum                              0x0800806f   Thumb Code    20  inet_chksum.o(i.inet_chksum)
    inet_chksum_pbuf                         0x08008083   Thumb Code    86  inet_chksum.o(i.inet_chksum_pbuf)
    ip4_addr_isbroadcast_u32                 0x080080d9   Thumb Code    78  ip4_addr.o(i.ip4_addr_isbroadcast_u32)
    ip4_frag                                 0x08008129   Thumb Code   536  ip4_frag.o(i.ip4_frag)
    ip4_input                                0x080083f5   Thumb Code   402  ip4.o(i.ip4_input)
    ip4_output_if                            0x080085c5   Thumb Code    54  ip4.o(i.ip4_output_if)
    ip4_output_if_src                        0x080085fd   Thumb Code   270  ip4.o(i.ip4_output_if_src)
    ip4_reass                                0x080087ad   Thumb Code   584  ip4_frag.o(i.ip4_reass)
    ip4_route                                0x08008aa9   Thumb Code   140  ip4.o(i.ip4_route)
    ip_reass_tmr                             0x08009265   Thumb Code    48  ip4_frag.o(i.ip_reass_tmr)
    lwip_htonl                               0x0800964d   Thumb Code    26  def.o(i.lwip_htonl)
    lwip_htons                               0x08009667   Thumb Code    12  def.o(i.lwip_htons)
    lwip_init                                0x08009675   Thumb Code    64  init.o(i.lwip_init)
    lwip_standard_chksum                     0x08009711   Thumb Code    94  inet_chksum.o(i.lwip_standard_chksum)
    main                                     0x08009771   Thumb Code   146  main.o(i.main)
    mem_free                                 0x0800980d   Thumb Code   194  mem.o(i.mem_free)
    mem_init                                 0x080099d1   Thumb Code    72  mem.o(i.mem_init)
    mem_malloc                               0x08009a81   Thumb Code   402  mem.o(i.mem_malloc)
    mem_trim                                 0x08009d39   Thumb Code   388  mem.o(i.mem_trim)
    memp_free                                0x08009f6d   Thumb Code    54  memp.o(i.memp_free)
    memp_free_pool                           0x0800a01d   Thumb Code    50  memp.o(i.memp_free_pool)
    memp_init                                0x0800a0bd   Thumb Code    26  memp.o(i.memp_init)
    memp_init_pool                           0x0800a0dd   Thumb Code    44  memp.o(i.memp_init_pool)
    memp_malloc                              0x0800a109   Thumb Code    50  memp.o(i.memp_malloc)
    memp_malloc_pool                         0x0800a1b9   Thumb Code    44  memp.o(i.memp_malloc_pool)
    netif_add                                0x0800a251   Thumb Code   322  netif.o(i.netif_add)
    netif_get_by_index                       0x0800a5cd   Thumb Code    36  netif.o(i.netif_get_by_index)
    netif_init                               0x0800a5f5   Thumb Code    54  netif.o(i.netif_init)
    netif_loop_output                        0x0800a715   Thumb Code   170  netif.o(i.netif_loop_output)
    netif_set_addr                           0x0800a95d   Thumb Code    92  netif.o(i.netif_set_addr)
    netif_set_default                        0x0800a9bd   Thumb Code     6  netif.o(i.netif_set_default)
    netif_set_down                           0x0800a9c9   Thumb Code    78  netif.o(i.netif_set_down)
    netif_set_link_callback                  0x0800aa95   Thumb Code     6  netif.o(i.netif_set_link_callback)
    netif_set_link_down                      0x0800aa9d   Thumb Code    76  netif.o(i.netif_set_link_down)
    netif_set_link_up                        0x0800ab69   Thumb Code    84  netif.o(i.netif_set_link_up)
    netif_set_up                             0x0800ac3d   Thumb Code    70  netif.o(i.netif_set_up)
    pbuf_add_header                          0x0800acfd   Thumb Code    18  pbuf.o(i.pbuf_add_header)
    pbuf_alloc                               0x0800adf9   Thumb Code   410  pbuf.o(i.pbuf_alloc)
    pbuf_alloc_reference                     0x0800b099   Thumb Code    78  pbuf.o(i.pbuf_alloc_reference)
    pbuf_alloced_custom                      0x0800b155   Thumb Code    82  pbuf.o(i.pbuf_alloced_custom)
    pbuf_cat                                 0x0800b1a9   Thumb Code   126  pbuf.o(i.pbuf_cat)
    pbuf_clen                                0x0800b2f9   Thumb Code    18  pbuf.o(i.pbuf_clen)
    pbuf_clone                               0x0800b30d   Thumb Code    68  pbuf.o(i.pbuf_clone)
    pbuf_copy                                0x0800b3bd   Thumb Code   304  pbuf.o(i.pbuf_copy)
    pbuf_copy_partial                        0x0800b5e5   Thumb Code   164  pbuf.o(i.pbuf_copy_partial)
    pbuf_free                                0x0800b725   Thumb Code   230  pbuf.o(i.pbuf_free)
    pbuf_free_custom                         0x0800b8c1   Thumb Code    30  ethernetif.o(i.pbuf_free_custom)
    pbuf_free_ooseq                          0x0800b8e9   Thumb Code    40  pbuf.o(i.pbuf_free_ooseq)
    pbuf_header_force                        0x0800b919   Thumb Code    18  pbuf.o(i.pbuf_header_force)
    pbuf_realloc                             0x0800b97d   Thumb Code   194  pbuf.o(i.pbuf_realloc)
    pbuf_ref                                 0x0800bae5   Thumb Code    48  pbuf.o(i.pbuf_ref)
    pbuf_remove_header                       0x0800bb81   Thumb Code   110  pbuf.o(i.pbuf_remove_header)
    sys_check_timeouts                       0x0800be5d   Thumb Code    88  timeouts.o(i.sys_check_timeouts)
    sys_now                                  0x0800bec1   Thumb Code     8  ethernetif.o(i.sys_now)
    sys_timeout                              0x0800bec9   Thumb Code    58  timeouts.o(i.sys_timeout)
    sys_timeouts_init                        0x0800c0d9   Thumb Code    30  timeouts.o(i.sys_timeouts_init)
    tcp_abandon                              0x0800c101   Thumb Code   284  tcp.o(i.tcp_abandon)
    tcp_abort                                0x0800c2d5   Thumb Code    14  tcp.o(i.tcp_abort)
    tcp_alloc                                0x0800c2e5   Thumb Code   174  tcp.o(i.tcp_alloc)
    tcp_close                                0x0800c3a5   Thumb Code    64  tcp.o(i.tcp_close)
    tcp_eff_send_mss_netif                   0x0800c91d   Thumb Code    82  tcp.o(i.tcp_eff_send_mss_netif)
    tcp_enqueue_flags                        0x0800c9f1   Thumb Code   408  tcp_out.o(i.tcp_enqueue_flags)
    tcp_fasttmr                              0x0800ccb1   Thumb Code   142  tcp.o(i.tcp_fasttmr)
    tcp_free                                 0x0800cd4d   Thumb Code    40  tcp.o(i.tcp_free)
    tcp_free_ooseq                           0x0800cfd9   Thumb Code    20  tcp.o(i.tcp_free_ooseq)
    tcp_init                                 0x0800d069   Thumb Code    20  tcp.o(i.tcp_init)
    tcp_input                                0x0800d081   Thumb Code  1994  tcp_in.o(i.tcp_input)
    tcp_keepalive                            0x0800d981   Thumb Code    98  tcp_out.o(i.tcp_keepalive)
    tcp_netif_ip_addr_changed                0x0800de99   Thumb Code    64  tcp.o(i.tcp_netif_ip_addr_changed)
    tcp_next_iss                             0x0800dfb5   Thumb Code    50  tcp.o(i.tcp_next_iss)
    tcp_output                               0x0800e191   Thumb Code   684  tcp_out.o(i.tcp_output)
    tcp_pcb_purge                            0x0800ed45   Thumb Code   104  tcp.o(i.tcp_pcb_purge)
    tcp_pcb_remove                           0x0800ee21   Thumb Code   246  tcp.o(i.tcp_pcb_remove)
    tcp_process_refused_data                 0x0800f73d   Thumb Code   180  tcp.o(i.tcp_process_refused_data)
    tcp_recv_null                            0x080104ed   Thumb Code    78  tcp.o(i.tcp_recv_null)
    tcp_recved                               0x080105b1   Thumb Code   130  tcp.o(i.tcp_recved)
    tcp_rexmit                               0x08010781   Thumb Code   142  tcp_out.o(i.tcp_rexmit)
    tcp_rexmit_fast                          0x08010885   Thumb Code   142  tcp_out.o(i.tcp_rexmit_fast)
    tcp_rexmit_rto                           0x08010991   Thumb Code    46  tcp_out.o(i.tcp_rexmit_rto)
    tcp_rexmit_rto_commit                    0x08010a39   Thumb Code    56  tcp_out.o(i.tcp_rexmit_rto_commit)
    tcp_rexmit_rto_prepare                   0x08010af1   Thumb Code   150  tcp_out.o(i.tcp_rexmit_rto_prepare)
    tcp_rst                                  0x08010c29   Thumb Code   146  tcp_out.o(i.tcp_rst)
    tcp_seg_copy                             0x08010d51   Thumb Code    62  tcp.o(i.tcp_seg_copy)
    tcp_seg_free                             0x08010e05   Thumb Code    26  tcp.o(i.tcp_seg_free)
    tcp_segs_free                            0x08010e1f   Thumb Code    24  tcp.o(i.tcp_segs_free)
    tcp_send_empty_ack                       0x08010e39   Thumb Code   194  tcp_out.o(i.tcp_send_empty_ack)
    tcp_send_fin                             0x08010f79   Thumb Code   104  tcp_out.o(i.tcp_send_fin)
    tcp_slowtmr                              0x08011059   Thumb Code  1702  tcp.o(i.tcp_slowtmr)
    tcp_split_unsent_seg                     0x0801178d   Thumb Code   510  tcp_out.o(i.tcp_split_unsent_seg)
    tcp_timer_needed                         0x08011a5d   Thumb Code    38  timeouts.o(i.tcp_timer_needed)
    tcp_tmr                                  0x08011bd9   Thumb Code    30  tcp.o(i.tcp_tmr)
    tcp_trigger_input_pcb_close              0x08011bfd   Thumb Code    14  tcp_in.o(i.tcp_trigger_input_pcb_close)
    tcp_update_rcv_ann_wnd                   0x08011c11   Thumb Code   128  tcp.o(i.tcp_update_rcv_ann_wnd)
    tcp_zero_window_probe                    0x08011d29   Thumb Code   238  tcp_out.o(i.tcp_zero_window_probe)
    udp_init                                 0x08011ed1   Thumb Code    20  udp.o(i.udp_init)
    udp_input                                0x08011ee9   Thumb Code   412  udp.o(i.udp_input)
    udp_netif_ip_addr_changed                0x0801226d   Thumb Code    42  udp.o(i.udp_netif_ip_addr_changed)
    memp_RX_POOL                             0x0801229c   Data          12  ethernetif.o(.constdata)
    UARTPrescTable                           0x080122a8   Data          24  stm32h7xx_hal_uart.o(.constdata)
    D1CorePrescTable                         0x080122d0   Data          16  system_stm32h7xx.o(.constdata)
    ethbroadcast                             0x080122e0   Data           6  ethernet.o(.constdata)
    ethzero                                  0x080122e6   Data           6  ethernet.o(.constdata)
    memp_UDP_PCB                             0x080122ec   Data          12  memp.o(.constdata)
    memp_TCP_PCB                             0x080122f8   Data          12  memp.o(.constdata)
    memp_TCP_PCB_LISTEN                      0x08012304   Data          12  memp.o(.constdata)
    memp_TCP_SEG                             0x08012310   Data          12  memp.o(.constdata)
    memp_REASSDATA                           0x0801231c   Data          12  memp.o(.constdata)
    memp_FRAG_PBUF                           0x08012328   Data          12  memp.o(.constdata)
    memp_SYS_TIMEOUT                         0x08012334   Data          12  memp.o(.constdata)
    memp_PBUF                                0x08012340   Data          12  memp.o(.constdata)
    memp_PBUF_POOL                           0x0801234c   Data          12  memp.o(.constdata)
    memp_pools                               0x08012358   Data          36  memp.o(.constdata)
    tcp_pcb_lists                            0x080123bc   Data          16  tcp.o(.constdata)
    lwip_cyclic_timers                       0x080123cc   Data          24  timeouts.o(.constdata)
    lwip_num_cyclic_timers                   0x080123e4   Data           4  timeouts.o(.constdata)
    ip_addr_any                              0x080123e8   Data           4  ip4_addr.o(.constdata)
    ip_addr_broadcast                        0x080123ec   Data           4  ip4_addr.o(.constdata)
    Region$$Table$$Base                      0x08012548   Number         0  anon$$obj.o(Region$$Table)
    Region$$Table$$Limit                     0x08012568   Number         0  anon$$obj.o(Region$$Table)
    LAN8742_IOCtx                            0x2400000c   Data          20  ethernetif.o(.data)
    EthernetLinkTimer                        0x24000020   Data           4  lwip.o(.data)
    ipaddr                                   0x24000024   Data           4  lwip.o(.data)
    netmask                                  0x24000028   Data           4  lwip.o(.data)
    gw                                       0x2400002c   Data           4  lwip.o(.data)
    IP_ADDRESS                               0x24000030   Data           4  lwip.o(.data)
    NETMASK_ADDRESS                          0x24000034   Data           4  lwip.o(.data)
    GATEWAY_ADDRESS                          0x24000038   Data           4  lwip.o(.data)
    uwTick                                   0x2400003c   Data           4  stm32h7xx_hal.o(.data)
    uwTickPrio                               0x24000040   Data           4  stm32h7xx_hal.o(.data)
    uwTickFreq                               0x24000044   Data           1  stm32h7xx_hal.o(.data)
    SystemCoreClock                          0x24000048   Data           4  system_stm32h7xx.o(.data)
    SystemD2Clock                            0x2400004c   Data           4  system_stm32h7xx.o(.data)
    netif_list                               0x24000080   Data           4  netif.o(.data)
    netif_default                            0x24000084   Data           4  netif.o(.data)
    pbuf_free_ooseq_pending                  0x24000089   Data           1  pbuf.o(.data)
    tcp_ticks                                0x24000090   Data           4  tcp.o(.data)
    tcp_bound_pcbs                           0x24000094   Data           4  tcp.o(.data)
    tcp_listen_pcbs                          0x24000098   Data           4  tcp.o(.data)
    tcp_active_pcbs                          0x2400009c   Data           4  tcp.o(.data)
    tcp_tw_pcbs                              0x240000a0   Data           4  tcp.o(.data)
    tcp_active_pcbs_changed                  0x240000a4   Data           1  tcp.o(.data)
    tcp_input_pcb                            0x240000d0   Data           4  tcp_in.o(.data)
    udp_pcbs                                 0x240000e4   Data           4  udp.o(.data)
    __stdout                                 0x240000f8   Data           4  stdout.o(.data)
    huart1                                   0x240000fc   Data         148  usart.o(.bss)
    memp_memory_RX_POOL_base                 0x24000190   Data       18819  ethernetif.o(.bss)
    heth                                     0x24004b14   Data         176  ethernetif.o(.bss)
    TxConfig                                 0x24004bc4   Data          56  ethernetif.o(.bss)
    LAN8742                                  0x24004bfc   Data          32  ethernetif.o(.bss)
    gnetif                                   0x24004c1c   Data          60  lwip.o(.bss)
    ip_data                                  0x24004c58   Data          24  ip.o(.bss)
    memp_memory_UDP_PCB_base                 0x24004c70   Data         131  memp.o(.bss)
    memp_memory_TCP_PCB_base                 0x24004cf3   Data         783  memp.o(.bss)
    memp_memory_TCP_PCB_LISTEN_base          0x24005002   Data         227  memp.o(.bss)
    memp_memory_TCP_SEG_base                 0x240050e5   Data         259  memp.o(.bss)
    memp_memory_REASSDATA_base               0x240051e8   Data         163  memp.o(.bss)
    memp_memory_FRAG_PBUF_base               0x2400528b   Data         363  memp.o(.bss)
    memp_memory_SYS_TIMEOUT_base             0x240053f6   Data          51  memp.o(.bss)
    memp_memory_PBUF_base                    0x24005429   Data         259  memp.o(.bss)
    memp_memory_PBUF_POOL_base               0x2400552c   Data        9731  memp.o(.bss)
    __initial_sp                             0x2400bc70   Data           0  startup_stm32h743xx.o(STACK)
    DMARxDscrTab                             0x30000000   Data          96  ethernetif.o(.ARM.__AT_0x30000000)
    DMATxDscrTab                             0x30000060   Data          96  ethernetif.o(.ARM.__AT_0x30000060)



==============================================================================

Memory Map of the image

  Image Entry point : 0x08000299

  Load Region LR_IROM1 (Base: 0x08000000, Size: 0x00012664, Max: 0x00200000, ABSOLUTE)

    Execution Region ER_IROM1 (Exec base: 0x08000000, Load base: 0x08000000, Size: 0x00012568, Max: 0x00200000, ABSOLUTE)

    Exec Addr    Load Addr    Size         Type   Attr      Idx    E Section Name        Object

    0x08000000   0x08000000   0x00000298   Data   RO            3    RESET               startup_stm32h743xx.o
    0x08000298   0x08000298   0x00000000   Code   RO         8759  * .ARM.Collect$$$$00000000  mc_w.l(entry.o)
    0x08000298   0x08000298   0x00000004   Code   RO         9074    .ARM.Collect$$$$00000001  mc_w.l(entry2.o)
    0x0800029c   0x0800029c   0x00000004   Code   RO         9077    .ARM.Collect$$$$00000004  mc_w.l(entry5.o)
    0x080002a0   0x080002a0   0x00000000   Code   RO         9079    .ARM.Collect$$$$00000008  mc_w.l(entry7b.o)
    0x080002a0   0x080002a0   0x00000000   Code   RO         9081    .ARM.Collect$$$$0000000A  mc_w.l(entry8b.o)
    0x080002a0   0x080002a0   0x00000008   Code   RO         9082    .ARM.Collect$$$$0000000B  mc_w.l(entry9a.o)
    0x080002a8   0x080002a8   0x00000004   Code   RO         9089    .ARM.Collect$$$$0000000E  mc_w.l(entry12b.o)
    0x080002ac   0x080002ac   0x00000000   Code   RO         9084    .ARM.Collect$$$$0000000F  mc_w.l(entry10a.o)
    0x080002ac   0x080002ac   0x00000000   Code   RO         9086    .ARM.Collect$$$$00000011  mc_w.l(entry11a.o)
    0x080002ac   0x080002ac   0x00000004   Code   RO         9075    .ARM.Collect$$$$00002712  mc_w.l(entry2.o)
    0x080002b0   0x080002b0   0x00000024   Code   RO            4    .text               startup_stm32h743xx.o
    0x080002d4   0x080002d4   0x00000062   Code   RO         8762    .text               mc_w.l(uldiv.o)
    0x08000336   0x08000336   0x00000002   PAD
    0x08000338   0x08000338   0x00000024   Code   RO         8792    .text               mc_w.l(rand.o)
    0x0800035c   0x0800035c   0x00000040   Code   RO         8797    .text               mc_w.l(memmovea.o)
    0x0800039c   0x0800039c   0x00000024   Code   RO         8799    .text               mc_w.l(memseta.o)
    0x080003c0   0x080003c0   0x0000001a   Code   RO         8803    .text               mc_w.l(memcmp.o)
    0x080003da   0x080003da   0x0000002c   Code   RO         9093    .text               mc_w.l(uidiv.o)
    0x08000406   0x08000406   0x0000001e   Code   RO         9095    .text               mc_w.l(llshl.o)
    0x08000424   0x08000424   0x00000020   Code   RO         9097    .text               mc_w.l(llushr.o)
    0x08000444   0x08000444   0x00000024   Code   RO         9119    .text               mc_w.l(init.o)
    0x08000468   0x08000468   0x00000000   Code   RO         9121    .text               mc_w.l(semi.o)
    0x08000468   0x08000468   0x00000000   Code   RO         9126    .text               mc_w.l(iusesemip.o)
    0x08000468   0x08000468   0x00000004   Code   RO          474    i.BusFault_Handler  stm32h7xx_it.o
    0x0800046c   0x0800046c   0x00000002   Code   RO          475    i.DebugMon_Handler  stm32h7xx_it.o
    0x0800046e   0x0800046e   0x00000060   Code   RO         1247    i.ETH_DMARxDescListInit  stm32h7xx_hal_eth.o
    0x080004ce   0x080004ce   0x00000052   Code   RO         1248    i.ETH_DMATxDescListInit  stm32h7xx_hal_eth.o
    0x08000520   0x08000520   0x00000010   Code   RO          476    i.ETH_IRQHandler    stm32h7xx_it.o
    0x08000530   0x08000530   0x00000106   Code   RO         1249    i.ETH_MACDMAConfig  stm32h7xx_hal_eth.o
    0x08000636   0x08000636   0x00000004   Code   RO          838    i.ETH_PHY_IO_DeInit  ethernetif.o
    0x0800063a   0x0800063a   0x00000008   Code   RO          839    i.ETH_PHY_IO_GetTick  ethernetif.o
    0x08000642   0x08000642   0x00000002   PAD
    0x08000644   0x08000644   0x00000010   Code   RO          840    i.ETH_PHY_IO_Init   ethernetif.o
    0x08000654   0x08000654   0x00000024   Code   RO          841    i.ETH_PHY_IO_ReadReg  ethernetif.o
    0x08000678   0x08000678   0x00000024   Code   RO          842    i.ETH_PHY_IO_WriteReg  ethernetif.o
    0x0800069c   0x0800069c   0x00000394   Code   RO         1250    i.ETH_Prepare_Tx_Descriptors  stm32h7xx_hal_eth.o
    0x08000a30   0x08000a30   0x000000bc   Code   RO         1251    i.ETH_SetDMAConfig  stm32h7xx_hal_eth.o
    0x08000aec   0x08000aec   0x00000194   Code   RO         1252    i.ETH_SetMACConfig  stm32h7xx_hal_eth.o
    0x08000c80   0x08000c80   0x0000008c   Code   RO         1253    i.ETH_UpdateDescriptor  stm32h7xx_hal_eth.o
    0x08000d0c   0x08000d0c   0x00000010   Code   RO          477    i.ETH_WKUP_IRQHandler  stm32h7xx_it.o
    0x08000d1c   0x08000d1c   0x00000006   Code   RO           13    i.Error_Handler     main.o
    0x08000d22   0x08000d22   0x00000002   PAD
    0x08000d24   0x08000d24   0x00000028   Code   RO          991    i.Ethernet_Link_Periodic_Handle  lwip.o
    0x08000d4c   0x08000d4c   0x000004dc   Code   RO         2449    i.HAL_DMA_Abort     stm32h7xx_hal_dma.o
    0x08001228   0x08001228   0x00000398   Code   RO         2450    i.HAL_DMA_Abort_IT  stm32h7xx_hal_dma.o
    0x080015c0   0x080015c0   0x00000028   Code   RO         3304    i.HAL_Delay         stm32h7xx_hal.o
    0x080015e8   0x080015e8   0x00000002   Code   RO         1255    i.HAL_ETH_EEECallback  stm32h7xx_hal_eth.o
    0x080015ea   0x080015ea   0x00000002   Code   RO         1257    i.HAL_ETH_ErrorCallback  stm32h7xx_hal_eth.o
    0x080015ec   0x080015ec   0x000001d6   Code   RO         1262    i.HAL_ETH_GetMACConfig  stm32h7xx_hal_eth.o
    0x080017c2   0x080017c2   0x00000002   PAD
    0x080017c4   0x080017c4   0x000001c0   Code   RO         1268    i.HAL_ETH_IRQHandler  stm32h7xx_hal_eth.o
    0x08001984   0x08001984   0x00000168   Code   RO         1269    i.HAL_ETH_Init      stm32h7xx_hal_eth.o
    0x08001aec   0x08001aec   0x00000188   Code   RO          844    i.HAL_ETH_MspInit   ethernetif.o
    0x08001c74   0x08001c74   0x00000002   Code   RO         1272    i.HAL_ETH_PMTCallback  stm32h7xx_hal_eth.o
    0x08001c76   0x08001c76   0x00000100   Code   RO         1273    i.HAL_ETH_ReadData  stm32h7xx_hal_eth.o
    0x08001d76   0x08001d76   0x00000078   Code   RO         1274    i.HAL_ETH_ReadPHYRegister  stm32h7xx_hal_eth.o
    0x08001dee   0x08001dee   0x00000002   PAD
    0x08001df0   0x08001df0   0x00000048   Code   RO          845    i.HAL_ETH_RxAllocateCallback  ethernetif.o
    0x08001e38   0x08001e38   0x00000002   Code   RO         1280    i.HAL_ETH_RxCpltCallback  stm32h7xx_hal_eth.o
    0x08001e3a   0x08001e3a   0x00000002   PAD
    0x08001e3c   0x08001e3c   0x00000080   Code   RO          846    i.HAL_ETH_RxLinkCallback  ethernetif.o
    0x08001ebc   0x08001ebc   0x00000024   Code   RO         1284    i.HAL_ETH_SetMACConfig  stm32h7xx_hal_eth.o
    0x08001ee0   0x08001ee0   0x00000078   Code   RO         1286    i.HAL_ETH_SetMDIOClockRange  stm32h7xx_hal_eth.o
    0x08001f58   0x08001f58   0x0000009a   Code   RO         1290    i.HAL_ETH_Start     stm32h7xx_hal_eth.o
    0x08001ff2   0x08001ff2   0x00000074   Code   RO         1292    i.HAL_ETH_Stop      stm32h7xx_hal_eth.o
    0x08002066   0x08002066   0x000000ea   Code   RO         1294    i.HAL_ETH_Transmit  stm32h7xx_hal_eth.o
    0x08002150   0x08002150   0x00000002   Code   RO         1296    i.HAL_ETH_TxCpltCallback  stm32h7xx_hal_eth.o
    0x08002152   0x08002152   0x00000002   Code   RO         1301    i.HAL_ETH_WakeUpCallback  stm32h7xx_hal_eth.o
    0x08002154   0x08002154   0x00000080   Code   RO         1302    i.HAL_ETH_WritePHYRegister  stm32h7xx_hal_eth.o
    0x080021d4   0x080021d4   0x000001fc   Code   RO         2297    i.HAL_GPIO_Init     stm32h7xx_hal_gpio.o
    0x080023d0   0x080023d0   0x00000010   Code   RO         2299    i.HAL_GPIO_ReadPin  stm32h7xx_hal_gpio.o
    0x080023e0   0x080023e0   0x0000000c   Code   RO         2301    i.HAL_GPIO_WritePin  stm32h7xx_hal_gpio.o
    0x080023ec   0x080023ec   0x0000000c   Code   RO         3315    i.HAL_GetREVID      stm32h7xx_hal.o
    0x080023f8   0x080023f8   0x0000000c   Code   RO         3316    i.HAL_GetTick       stm32h7xx_hal.o
    0x08002404   0x08002404   0x00000018   Code   RO         3322    i.HAL_IncTick       stm32h7xx_hal.o
    0x0800241c   0x0800241c   0x00000060   Code   RO         3323    i.HAL_Init          stm32h7xx_hal.o
    0x0800247c   0x0800247c   0x00000058   Code   RO         3324    i.HAL_InitTick      stm32h7xx_hal.o
    0x080024d4   0x080024d4   0x0000005c   Code   RO         3152    i.HAL_MPU_ConfigRegion  stm32h7xx_hal_cortex.o
    0x08002530   0x08002530   0x00000020   Code   RO         3153    i.HAL_MPU_Disable   stm32h7xx_hal_cortex.o
    0x08002550   0x08002550   0x00000028   Code   RO         3154    i.HAL_MPU_Enable    stm32h7xx_hal_cortex.o
    0x08002578   0x08002578   0x00000024   Code   RO          568    i.HAL_MspInit       stm32h7xx_hal_msp.o
    0x0800259c   0x0800259c   0x00000028   Code   RO         3157    i.HAL_NVIC_EnableIRQ  stm32h7xx_hal_cortex.o
    0x080025c4   0x080025c4   0x0000007a   Code   RO         3163    i.HAL_NVIC_SetPriority  stm32h7xx_hal_cortex.o
    0x0800263e   0x0800263e   0x00000002   PAD
    0x08002640   0x08002640   0x00000028   Code   RO         3164    i.HAL_NVIC_SetPriorityGrouping  stm32h7xx_hal_cortex.o
    0x08002668   0x08002668   0x00000060   Code   RO         2898    i.HAL_PWREx_ConfigSupply  stm32h7xx_hal_pwr_ex.o
    0x080026c8   0x080026c8   0x00000024   Code   RO         1848    i.HAL_RCCEx_GetD3PCLK1Freq  stm32h7xx_hal_rcc_ex.o
    0x080026ec   0x080026ec   0x00000230   Code   RO         1850    i.HAL_RCCEx_GetPLL2ClockFreq  stm32h7xx_hal_rcc_ex.o
    0x0800291c   0x0800291c   0x00000230   Code   RO         1851    i.HAL_RCCEx_GetPLL3ClockFreq  stm32h7xx_hal_rcc_ex.o
    0x08002b4c   0x08002b4c   0x00000d68   Code   RO         1857    i.HAL_RCCEx_PeriphCLKConfig  stm32h7xx_hal_rcc_ex.o
    0x080038b4   0x080038b4   0x00000320   Code   RO         1733    i.HAL_RCC_ClockConfig  stm32h7xx_hal_rcc.o
    0x08003bd4   0x08003bd4   0x0000004c   Code   RO         1738    i.HAL_RCC_GetHCLKFreq  stm32h7xx_hal_rcc.o
    0x08003c20   0x08003c20   0x00000024   Code   RO         1740    i.HAL_RCC_GetPCLK1Freq  stm32h7xx_hal_rcc.o
    0x08003c44   0x08003c44   0x00000024   Code   RO         1741    i.HAL_RCC_GetPCLK2Freq  stm32h7xx_hal_rcc.o
    0x08003c68   0x08003c68   0x0000022c   Code   RO         1742    i.HAL_RCC_GetSysClockFreq  stm32h7xx_hal_rcc.o
    0x08003e94   0x08003e94   0x00000858   Code   RO         1745    i.HAL_RCC_OscConfig  stm32h7xx_hal_rcc.o
    0x080046ec   0x080046ec   0x00000014   Code   RO         3335    i.HAL_SYSCFG_ETHInterfaceSelect  stm32h7xx_hal.o
    0x08004700   0x08004700   0x00000034   Code   RO         3168    i.HAL_SYSTICK_Config  stm32h7xx_hal_cortex.o
    0x08004734   0x08004734   0x0000004e   Code   RO         4668    i.HAL_UARTEx_DisableFifoMode  stm32h7xx_hal_uart_ex.o
    0x08004782   0x08004782   0x00000002   Code   RO         4252    i.HAL_UARTEx_RxEventCallback  stm32h7xx_hal_uart.o
    0x08004784   0x08004784   0x00000002   Code   RO         4676    i.HAL_UARTEx_RxFifoFullCallback  stm32h7xx_hal_uart_ex.o
    0x08004786   0x08004786   0x0000005e   Code   RO         4677    i.HAL_UARTEx_SetRxFifoThreshold  stm32h7xx_hal_uart_ex.o
    0x080047e4   0x080047e4   0x0000005e   Code   RO         4678    i.HAL_UARTEx_SetTxFifoThreshold  stm32h7xx_hal_uart_ex.o
    0x08004842   0x08004842   0x00000002   Code   RO         4680    i.HAL_UARTEx_TxFifoEmptyCallback  stm32h7xx_hal_uart_ex.o
    0x08004844   0x08004844   0x00000002   Code   RO         4681    i.HAL_UARTEx_WakeupCallback  stm32h7xx_hal_uart_ex.o
    0x08004846   0x08004846   0x00000002   Code   RO         4268    i.HAL_UART_ErrorCallback  stm32h7xx_hal_uart.o
    0x08004848   0x08004848   0x00000494   Code   RO         4271    i.HAL_UART_IRQHandler  stm32h7xx_hal_uart.o
    0x08004cdc   0x08004cdc   0x00000078   Code   RO         4272    i.HAL_UART_Init     stm32h7xx_hal_uart.o
    0x08004d54   0x08004d54   0x000000ac   Code   RO          433    i.HAL_UART_MspInit  usart.o
    0x08004e00   0x08004e00   0x00000002   Code   RO         4284    i.HAL_UART_TxCpltCallback  stm32h7xx_hal_uart.o
    0x08004e02   0x08004e02   0x00000004   Code   RO          478    i.HardFault_Handler  stm32h7xx_it.o
    0x08004e06   0x08004e06   0x00000002   PAD
    0x08004e08   0x08004e08   0x00000054   Code   RO          658    i.IIC_Ack           myiic.o
    0x08004e5c   0x08004e5c   0x00000058   Code   RO          659    i.IIC_Init          myiic.o
    0x08004eb4   0x08004eb4   0x00000054   Code   RO          660    i.IIC_NAck          myiic.o
    0x08004f08   0x08004f08   0x0000006c   Code   RO          661    i.IIC_Read_Byte     myiic.o
    0x08004f74   0x08004f74   0x0000007c   Code   RO          662    i.IIC_Send_Byte     myiic.o
    0x08004ff0   0x08004ff0   0x00000054   Code   RO          663    i.IIC_Start         myiic.o
    0x08005044   0x08005044   0x00000054   Code   RO          664    i.IIC_Stop          myiic.o
    0x08005098   0x08005098   0x00000068   Code   RO          665    i.IIC_Wait_Ack      myiic.o
    0x08005100   0x08005100   0x000000ea   Code   RO         1160    i.LAN8742_GetLinkState  lan8742.o
    0x080051ea   0x080051ea   0x000000de   Code   RO         1161    i.LAN8742_Init      lan8742.o
    0x080052c8   0x080052c8   0x0000002e   Code   RO         1162    i.LAN8742_RegisterBusIO  lan8742.o
    0x080052f6   0x080052f6   0x00000002   PAD
    0x080052f8   0x080052f8   0x00000060   Code   RO           14    i.MPU_Config        main.o
    0x08005358   0x08005358   0x0000008c   Code   RO          310    i.MX_GPIO_Init      gpio.o
    0x080053e4   0x080053e4   0x00000240   Code   RO          992    i.MX_LWIP_Init      lwip.o
    0x08005624   0x08005624   0x00000018   Code   RO          993    i.MX_LWIP_Process   lwip.o
    0x0800563c   0x0800563c   0x0000006c   Code   RO          434    i.MX_USART1_UART_Init  usart.o
    0x080056a8   0x080056a8   0x00000004   Code   RO          479    i.MemManage_Handler  stm32h7xx_it.o
    0x080056ac   0x080056ac   0x00000004   Code   RO          480    i.NMI_Handler       stm32h7xx_it.o
    0x080056b0   0x080056b0   0x00000068   Code   RO          731    i.PCF8574_Init      pcf8574.o
    0x08005718   0x08005718   0x00000022   Code   RO          733    i.PCF8574_ReadOneByte  pcf8574.o
    0x0800573a   0x0800573a   0x00000026   Code   RO          734    i.PCF8574_WriteBit  pcf8574.o
    0x08005760   0x08005760   0x00000028   Code   RO          735    i.PCF8574_WriteOneByte  pcf8574.o
    0x08005788   0x08005788   0x00000002   Code   RO          481    i.PendSV_Handler    stm32h7xx_it.o
    0x0800578a   0x0800578a   0x00000002   PAD
    0x0800578c   0x0800578c   0x00000164   Code   RO         1860    i.RCCEx_PLL2_Config  stm32h7xx_hal_rcc_ex.o
    0x080058f0   0x080058f0   0x00000164   Code   RO         1861    i.RCCEx_PLL3_Config  stm32h7xx_hal_rcc_ex.o
    0x08005a54   0x08005a54   0x00000002   Code   RO          482    i.SVC_Handler       stm32h7xx_it.o
    0x08005a56   0x08005a56   0x00000008   Code   RO          483    i.SysTick_Handler   stm32h7xx_it.o
    0x08005a5e   0x08005a5e   0x00000002   PAD
    0x08005a60   0x08005a60   0x00000134   Code   RO           15    i.SystemClock_Config  main.o
    0x08005b94   0x08005b94   0x000000fc   Code   RO         4792    i.SystemInit        system_stm32h7xx.o
    0x08005c90   0x08005c90   0x00000058   Code   RO         4682    i.UARTEx_SetNbDataToProcess  stm32h7xx_hal_uart_ex.o
    0x08005ce8   0x08005ce8   0x000000f8   Code   RO         4286    i.UART_AdvFeatureConfig  stm32h7xx_hal_uart.o
    0x08005de0   0x08005de0   0x000000ea   Code   RO         4287    i.UART_CheckIdleState  stm32h7xx_hal_uart.o
    0x08005eca   0x08005eca   0x00000018   Code   RO         4288    i.UART_DMAAbortOnError  stm32h7xx_hal_uart.o
    0x08005ee2   0x08005ee2   0x00000002   PAD
    0x08005ee4   0x08005ee4   0x0000006c   Code   RO         4298    i.UART_EndRxTransfer  stm32h7xx_hal_uart.o
    0x08005f50   0x08005f50   0x00000030   Code   RO         4299    i.UART_EndTransmit_IT  stm32h7xx_hal_uart.o
    0x08005f80   0x08005f80   0x0000058c   Code   RO         4305    i.UART_SetConfig    stm32h7xx_hal_uart.o
    0x0800650c   0x0800650c   0x000000a2   Code   RO         4312    i.UART_WaitOnFlagUntilTimeout  stm32h7xx_hal_uart.o
    0x080065ae   0x080065ae   0x00000002   PAD
    0x080065b0   0x080065b0   0x00000010   Code   RO          484    i.USART1_IRQHandler  stm32h7xx_it.o
    0x080065c0   0x080065c0   0x00000004   Code   RO          485    i.UsageFault_Handler  stm32h7xx_it.o
    0x080065c4   0x080065c4   0x00000020   Code   RO         8900    i.__0printf$3       mc_w.l(printf3.o)
    0x080065e4   0x080065e4   0x00000010   Code   RO         3170    i.__NVIC_GetPriorityGrouping  stm32h7xx_hal_cortex.o
    0x080065f4   0x080065f4   0x00000028   Code   RO         3171    i.__NVIC_SetPriority  stm32h7xx_hal_cortex.o
    0x0800661c   0x0800661c   0x0000000e   Code   RO         9133    i.__scatterload_copy  mc_w.l(handlers.o)
    0x0800662a   0x0800662a   0x00000002   Code   RO         9134    i.__scatterload_null  mc_w.l(handlers.o)
    0x0800662c   0x0800662c   0x0000000e   Code   RO         9135    i.__scatterload_zeroinit  mc_w.l(handlers.o)
    0x0800663a   0x0800663a   0x00000002   PAD
    0x0800663c   0x0800663c   0x000001b8   Code   RO         8907    i._printf_core      mc_w.l(printf3.o)
    0x080067f4   0x080067f4   0x00000018   Code   RO          593    i.delay_ms          delay.o
    0x0800680c   0x0800680c   0x00000048   Code   RO          594    i.delay_us          delay.o
    0x08006854   0x08006854   0x000000ac   Code   RO         6372    i.do_memp_free_pool  memp.o
    0x08006900   0x08006900   0x000000b4   Code   RO         6373    i.do_memp_malloc_pool  memp.o
    0x080069b4   0x080069b4   0x00000038   Code   RO         7899    i.etharp_cleanup_netif  etharp.o
    0x080069ec   0x080069ec   0x00000300   Code   RO         7901    i.etharp_find_entry  etharp.o
    0x08006cec   0x08006cec   0x00000040   Code   RO         7902    i.etharp_free_entry  etharp.o
    0x08006d2c   0x08006d2c   0x0000013c   Code   RO         7904    i.etharp_input      etharp.o
    0x08006e68   0x08006e68   0x00000224   Code   RO         7905    i.etharp_output     etharp.o
    0x0800708c   0x0800708c   0x00000168   Code   RO         7906    i.etharp_output_to_arp_index  etharp.o
    0x080071f4   0x080071f4   0x000002a4   Code   RO         7907    i.etharp_query      etharp.o
    0x08007498   0x08007498   0x0000018c   Code   RO         7908    i.etharp_raw        etharp.o
    0x08007624   0x08007624   0x00000018   Code   RO         7909    i.etharp_request    etharp.o
    0x0800763c   0x0800763c   0x0000002c   Code   RO         7910    i.etharp_request_dst  etharp.o
    0x08007668   0x08007668   0x000000dc   Code   RO         7911    i.etharp_tmr        etharp.o
    0x08007744   0x08007744   0x0000015c   Code   RO         7912    i.etharp_update_arp_entry  etharp.o
    0x080078a0   0x080078a0   0x000000c4   Code   RO         5504    i.ethernet_input    ethernet.o
    0x08007964   0x08007964   0x000000cc   Code   RO          848    i.ethernet_link_check_state  ethernetif.o
    0x08007a30   0x08007a30   0x0000007c   Code   RO          994    i.ethernet_link_status_updated  lwip.o
    0x08007aac   0x08007aac   0x00000104   Code   RO         5505    i.ethernet_output   ethernet.o
    0x08007bb0   0x08007bb0   0x00000098   Code   RO          849    i.ethernetif_init   ethernetif.o
    0x08007c48   0x08007c48   0x00000028   Code   RO          850    i.ethernetif_input  ethernetif.o
    0x08007c70   0x08007c70   0x00000012   Code   RO         9090    i.fputc             mc_w.l(fputc.o)
    0x08007c82   0x08007c82   0x00000012   Code   RO         8006    i.icmp_dest_unreach  icmp.o
    0x08007c94   0x08007c94   0x000002a4   Code   RO         8007    i.icmp_input        icmp.o
    0x08007f38   0x08007f38   0x00000124   Code   RO         8008    i.icmp_send_response  icmp.o
    0x0800805c   0x0800805c   0x00000012   Code   RO         8009    i.icmp_time_exceeded  icmp.o
    0x0800806e   0x0800806e   0x00000014   Code   RO         6090    i.inet_chksum       inet_chksum.o
    0x08008082   0x08008082   0x00000056   Code   RO         6091    i.inet_chksum_pbuf  inet_chksum.o
    0x080080d8   0x080080d8   0x0000004e   Code   RO         8139    i.ip4_addr_isbroadcast_u32  ip4_addr.o
    0x08008126   0x08008126   0x00000002   PAD
    0x08008128   0x08008128   0x000002cc   Code   RO         8211    i.ip4_frag          ip4_frag.o
    0x080083f4   0x080083f4   0x0000019c   Code   RO         8080    i.ip4_input         ip4.o
    0x08008590   0x08008590   0x00000034   Code   RO         8081    i.ip4_input_accept  ip4.o
    0x080085c4   0x080085c4   0x00000036   Code   RO         8083    i.ip4_output_if     ip4.o
    0x080085fa   0x080085fa   0x00000002   PAD
    0x080085fc   0x080085fc   0x000001b0   Code   RO         8084    i.ip4_output_if_src  ip4.o
    0x080087ac   0x080087ac   0x000002fc   Code   RO         8212    i.ip4_reass         ip4_frag.o
    0x08008aa8   0x08008aa8   0x00000094   Code   RO         8085    i.ip4_route         ip4.o
    0x08008b3c   0x08008b3c   0x0000000a   Code   RO         8213    i.ip_frag_alloc_pbuf_custom_ref  ip4_frag.o
    0x08008b46   0x08008b46   0x00000002   PAD
    0x08008b48   0x08008b48   0x00000098   Code   RO         8214    i.ip_frag_free_pbuf_custom_ref  ip4_frag.o
    0x08008be0   0x08008be0   0x00000304   Code   RO         8215    i.ip_reass_chain_frag_into_datagram_and_validate  ip4_frag.o
    0x08008ee4   0x08008ee4   0x000000c4   Code   RO         8216    i.ip_reass_dequeue_datagram  ip4_frag.o
    0x08008fa8   0x08008fa8   0x00000054   Code   RO         8217    i.ip_reass_enqueue_new_datagram  ip4_frag.o
    0x08008ffc   0x08008ffc   0x000001e0   Code   RO         8218    i.ip_reass_free_complete_datagram  ip4_frag.o
    0x080091dc   0x080091dc   0x00000088   Code   RO         8219    i.ip_reass_remove_oldest_datagram  ip4_frag.o
    0x08009264   0x08009264   0x00000034   Code   RO         8220    i.ip_reass_tmr      ip4_frag.o
    0x08009298   0x08009298   0x000000c8   Code   RO         8221    i.ipfrag_free_pbuf_custom  ip4_frag.o
    0x08009360   0x08009360   0x00000118   Code   RO          851    i.low_level_init    ethernetif.o
    0x08009478   0x08009478   0x0000007c   Code   RO          852    i.low_level_input   ethernetif.o
    0x080094f4   0x080094f4   0x00000108   Code   RO          853    i.low_level_output  ethernetif.o
    0x080095fc   0x080095fc   0x00000050   Code   RO         7629    i.lwip_cyclic_timer  timeouts.o
    0x0800964c   0x0800964c   0x0000001a   Code   RO         6010    i.lwip_htonl        def.o
    0x08009666   0x08009666   0x0000000c   Code   RO         6011    i.lwip_htons        def.o
    0x08009672   0x08009672   0x00000002   PAD
    0x08009674   0x08009674   0x0000009c   Code   RO         6174    i.lwip_init         init.o
    0x08009710   0x08009710   0x0000005e   Code   RO         6098    i.lwip_standard_chksum  inet_chksum.o
    0x0800976e   0x0800976e   0x00000002   PAD
    0x08009770   0x08009770   0x0000009c   Code   RO           17    i.main              main.o
    0x0800980c   0x0800980c   0x000001c4   Code   RO         6292    i.mem_free          mem.o
    0x080099d0   0x080099d0   0x00000058   Code   RO         6293    i.mem_init          mem.o
    0x08009a28   0x08009a28   0x00000058   Code   RO         6294    i.mem_link_valid    mem.o
    0x08009a80   0x08009a80   0x000002a8   Code   RO         6295    i.mem_malloc        mem.o
    0x08009d28   0x08009d28   0x00000010   Code   RO         6296    i.mem_to_ptr        mem.o
    0x08009d38   0x08009d38   0x00000234   Code   RO         6297    i.mem_trim          mem.o
    0x08009f6c   0x08009f6c   0x000000b0   Code   RO         6374    i.memp_free         memp.o
    0x0800a01c   0x0800a01c   0x000000a0   Code   RO         6375    i.memp_free_pool    memp.o
    0x0800a0bc   0x0800a0bc   0x00000020   Code   RO         6376    i.memp_init         memp.o
    0x0800a0dc   0x0800a0dc   0x0000002c   Code   RO         6377    i.memp_init_pool    memp.o
    0x0800a108   0x0800a108   0x000000b0   Code   RO         6378    i.memp_malloc       memp.o
    0x0800a1b8   0x0800a1b8   0x00000098   Code   RO         6379    i.memp_malloc_pool  memp.o
    0x0800a250   0x0800a250   0x00000234   Code   RO         6485    i.netif_add         netif.o
    0x0800a484   0x0800a484   0x00000018   Code   RO         6487    i.netif_do_ip_addr_changed  netif.o
    0x0800a49c   0x0800a49c   0x00000026   Code   RO         6488    i.netif_do_set_gw   netif.o
    0x0800a4c2   0x0800a4c2   0x00000002   PAD
    0x0800a4c4   0x0800a4c4   0x000000e0   Code   RO         6489    i.netif_do_set_ipaddr  netif.o
    0x0800a5a4   0x0800a5a4   0x00000026   Code   RO         6490    i.netif_do_set_netmask  netif.o
    0x0800a5ca   0x0800a5ca   0x00000002   PAD
    0x0800a5cc   0x0800a5cc   0x00000028   Code   RO         6492    i.netif_get_by_index  netif.o
    0x0800a5f4   0x0800a5f4   0x00000048   Code   RO         6494    i.netif_init        netif.o
    0x0800a63c   0x0800a63c   0x000000d8   Code   RO         6496    i.netif_issue_reports  netif.o
    0x0800a714   0x0800a714   0x00000178   Code   RO         6497    i.netif_loop_output  netif.o
    0x0800a88c   0x0800a88c   0x00000012   Code   RO         6498    i.netif_loop_output_ipv4  netif.o
    0x0800a89e   0x0800a89e   0x00000002   PAD
    0x0800a8a0   0x0800a8a0   0x000000b4   Code   RO         6499    i.netif_loopif_init  netif.o
    0x0800a954   0x0800a954   0x00000008   Code   RO         6501    i.netif_null_output_ip4  netif.o
    0x0800a95c   0x0800a95c   0x00000060   Code   RO         6505    i.netif_set_addr    netif.o
    0x0800a9bc   0x0800a9bc   0x0000000c   Code   RO         6506    i.netif_set_default  netif.o
    0x0800a9c8   0x0800a9c8   0x000000cc   Code   RO         6507    i.netif_set_down    netif.o
    0x0800aa94   0x0800aa94   0x00000006   Code   RO         6510    i.netif_set_link_callback  netif.o
    0x0800aa9a   0x0800aa9a   0x00000002   PAD
    0x0800aa9c   0x0800aa9c   0x000000cc   Code   RO         6511    i.netif_set_link_down  netif.o
    0x0800ab68   0x0800ab68   0x000000d4   Code   RO         6512    i.netif_set_link_up  netif.o
    0x0800ac3c   0x0800ac3c   0x000000c0   Code   RO         6514    i.netif_set_up      netif.o
    0x0800acfc   0x0800acfc   0x00000012   Code   RO         6707    i.pbuf_add_header   pbuf.o
    0x0800ad0e   0x0800ad0e   0x00000002   PAD
    0x0800ad10   0x0800ad10   0x000000e8   Code   RO         6709    i.pbuf_add_header_impl  pbuf.o
    0x0800adf8   0x0800adf8   0x000002a0   Code   RO         6710    i.pbuf_alloc        pbuf.o
    0x0800b098   0x0800b098   0x000000bc   Code   RO         6711    i.pbuf_alloc_reference  pbuf.o
    0x0800b154   0x0800b154   0x00000052   Code   RO         6712    i.pbuf_alloced_custom  pbuf.o
    0x0800b1a6   0x0800b1a6   0x00000002   PAD
    0x0800b1a8   0x0800b1a8   0x00000150   Code   RO         6713    i.pbuf_cat          pbuf.o
    0x0800b2f8   0x0800b2f8   0x00000012   Code   RO         6715    i.pbuf_clen         pbuf.o
    0x0800b30a   0x0800b30a   0x00000002   PAD
    0x0800b30c   0x0800b30c   0x000000b0   Code   RO         6716    i.pbuf_clone        pbuf.o
    0x0800b3bc   0x0800b3bc   0x00000228   Code   RO         6718    i.pbuf_copy         pbuf.o
    0x0800b5e4   0x0800b5e4   0x00000140   Code   RO         6719    i.pbuf_copy_partial  pbuf.o
    0x0800b724   0x0800b724   0x0000019c   Code   RO         6721    i.pbuf_free         pbuf.o
    0x0800b8c0   0x0800b8c0   0x00000028   Code   RO          854    i.pbuf_free_custom  ethernetif.o
    0x0800b8e8   0x0800b8e8   0x00000030   Code   RO         6723    i.pbuf_free_ooseq   pbuf.o
    0x0800b918   0x0800b918   0x00000012   Code   RO         6727    i.pbuf_header_force  pbuf.o
    0x0800b92a   0x0800b92a   0x00000022   Code   RO         6728    i.pbuf_header_impl  pbuf.o
    0x0800b94c   0x0800b94c   0x0000001e   Code   RO         6729    i.pbuf_init_alloced_pbuf  pbuf.o
    0x0800b96a   0x0800b96a   0x00000002   PAD
    0x0800b96c   0x0800b96c   0x00000010   Code   RO         6732    i.pbuf_pool_is_empty  pbuf.o
    0x0800b97c   0x0800b97c   0x00000168   Code   RO         6734    i.pbuf_realloc      pbuf.o
    0x0800bae4   0x0800bae4   0x0000009c   Code   RO         6735    i.pbuf_ref          pbuf.o
    0x0800bb80   0x0800bb80   0x000000f4   Code   RO         6736    i.pbuf_remove_header  pbuf.o
    0x0800bc74   0x0800bc74   0x000001d8   Code   RO         6298    i.plug_holes        mem.o
    0x0800be4c   0x0800be4c   0x00000010   Code   RO         6299    i.ptr_to_mem        mem.o
    0x0800be5c   0x0800be5c   0x00000064   Code   RO         7630    i.sys_check_timeouts  timeouts.o
    0x0800bec0   0x0800bec0   0x00000008   Code   RO          855    i.sys_now           ethernetif.o
    0x0800bec8   0x0800bec8   0x000000d0   Code   RO         7632    i.sys_timeout       timeouts.o
    0x0800bf98   0x0800bf98   0x00000140   Code   RO         7633    i.sys_timeout_abs   timeouts.o
    0x0800c0d8   0x0800c0d8   0x00000028   Code   RO         7634    i.sys_timeouts_init  timeouts.o
    0x0800c100   0x0800c100   0x000001d4   Code   RO         7027    i.tcp_abandon       tcp.o
    0x0800c2d4   0x0800c2d4   0x0000000e   Code   RO         7028    i.tcp_abort         tcp.o
    0x0800c2e2   0x0800c2e2   0x00000002   PAD
    0x0800c2e4   0x0800c2e4   0x000000c0   Code   RO         7031    i.tcp_alloc         tcp.o
    0x0800c3a4   0x0800c3a4   0x000000b0   Code   RO         7035    i.tcp_close         tcp.o
    0x0800c454   0x0800c454   0x0000020c   Code   RO         7036    i.tcp_close_shutdown  tcp.o
    0x0800c660   0x0800c660   0x000000e8   Code   RO         7037    i.tcp_close_shutdown_fin  tcp.o
    0x0800c748   0x0800c748   0x000001d4   Code   RO         7465    i.tcp_create_segment  tcp_out.o
    0x0800c91c   0x0800c91c   0x000000d4   Code   RO         7040    i.tcp_eff_send_mss_netif  tcp.o
    0x0800c9f0   0x0800c9f0   0x000002c0   Code   RO         7466    i.tcp_enqueue_flags  tcp_out.o
    0x0800ccb0   0x0800ccb0   0x0000009c   Code   RO         7042    i.tcp_fasttmr       tcp.o
    0x0800cd4c   0x0800cd4c   0x00000094   Code   RO         7043    i.tcp_free          tcp.o
    0x0800cde0   0x0800cde0   0x0000015c   Code   RO         7372    i.tcp_free_acked_segments  tcp_in.o
    0x0800cf3c   0x0800cf3c   0x0000009c   Code   RO         7044    i.tcp_free_listen   tcp.o
    0x0800cfd8   0x0800cfd8   0x00000014   Code   RO         7045    i.tcp_free_ooseq    tcp.o
    0x0800cfec   0x0800cfec   0x00000048   Code   RO         7373    i.tcp_get_next_optbyte  tcp_in.o
    0x0800d034   0x0800d034   0x00000034   Code   RO         7046    i.tcp_handle_closepend  tcp.o
    0x0800d068   0x0800d068   0x00000018   Code   RO         7047    i.tcp_init          tcp.o
    0x0800d080   0x0800d080   0x00000818   Code   RO         7374    i.tcp_input         tcp_in.o
    0x0800d898   0x0800d898   0x000000e8   Code   RO         7375    i.tcp_input_delayed_close  tcp_in.o
    0x0800d980   0x0800d980   0x000000dc   Code   RO         7467    i.tcp_keepalive     tcp_out.o
    0x0800da5c   0x0800da5c   0x00000068   Code   RO         7048    i.tcp_kill_prio     tcp.o
    0x0800dac4   0x0800dac4   0x000000d0   Code   RO         7049    i.tcp_kill_state    tcp.o
    0x0800db94   0x0800db94   0x0000003c   Code   RO         7050    i.tcp_kill_timewait  tcp.o
    0x0800dbd0   0x0800dbd0   0x000000d4   Code   RO         7051    i.tcp_listen_closed  tcp.o
    0x0800dca4   0x0800dca4   0x000001f4   Code   RO         7376    i.tcp_listen_input  tcp_in.o
    0x0800de98   0x0800de98   0x0000004c   Code   RO         7054    i.tcp_netif_ip_addr_changed  tcp.o
    0x0800dee4   0x0800dee4   0x000000d0   Code   RO         7055    i.tcp_netif_ip_addr_changed_pcblist  tcp.o
    0x0800dfb4   0x0800dfb4   0x000000b0   Code   RO         7059    i.tcp_next_iss      tcp.o
    0x0800e064   0x0800e064   0x0000012c   Code   RO         7377    i.tcp_oos_insert_segment  tcp_in.o
    0x0800e190   0x0800e190   0x00000364   Code   RO         7468    i.tcp_output        tcp_out.o
    0x0800e4f4   0x0800e4f4   0x000000dc   Code   RO         7469    i.tcp_output_alloc_header  tcp_out.o
    0x0800e5d0   0x0800e5d0   0x00000124   Code   RO         7470    i.tcp_output_alloc_header_common  tcp_out.o
    0x0800e6f4   0x0800e6f4   0x000000fc   Code   RO         7471    i.tcp_output_control_segment  tcp_out.o
    0x0800e7f0   0x0800e7f0   0x00000124   Code   RO         7472    i.tcp_output_fill_options  tcp_out.o
    0x0800e914   0x0800e914   0x0000024c   Code   RO         7473    i.tcp_output_segment  tcp_out.o
    0x0800eb60   0x0800eb60   0x000000b4   Code   RO         7474    i.tcp_output_segment_busy  tcp_out.o
    0x0800ec14   0x0800ec14   0x00000130   Code   RO         7378    i.tcp_parseopt      tcp_in.o
    0x0800ed44   0x0800ed44   0x000000dc   Code   RO         7060    i.tcp_pcb_purge     tcp.o
    0x0800ee20   0x0800ee20   0x000001d8   Code   RO         7061    i.tcp_pcb_remove    tcp.o
    0x0800eff8   0x0800eff8   0x00000744   Code   RO         7379    i.tcp_process       tcp_in.o
    0x0800f73c   0x0800f73c   0x00000134   Code   RO         7063    i.tcp_process_refused_data  tcp.o
    0x0800f870   0x0800f870   0x00000c7c   Code   RO         7380    i.tcp_receive       tcp_in.o
    0x080104ec   0x080104ec   0x000000c4   Code   RO         7065    i.tcp_recv_null     tcp.o
    0x080105b0   0x080105b0   0x0000011c   Code   RO         7066    i.tcp_recved        tcp.o
    0x080106cc   0x080106cc   0x000000b4   Code   RO         7067    i.tcp_remove_listener  tcp.o
    0x08010780   0x08010780   0x00000104   Code   RO         7476    i.tcp_rexmit        tcp_out.o
    0x08010884   0x08010884   0x0000010c   Code   RO         7477    i.tcp_rexmit_fast   tcp_out.o
    0x08010990   0x08010990   0x000000a8   Code   RO         7478    i.tcp_rexmit_rto    tcp_out.o
    0x08010a38   0x08010a38   0x000000b8   Code   RO         7479    i.tcp_rexmit_rto_commit  tcp_out.o
    0x08010af0   0x08010af0   0x00000118   Code   RO         7480    i.tcp_rexmit_rto_prepare  tcp_out.o
    0x08010c08   0x08010c08   0x0000001e   Code   RO         7481    i.tcp_route         tcp_out.o
    0x08010c26   0x08010c26   0x00000002   PAD
    0x08010c28   0x08010c28   0x00000128   Code   RO         7482    i.tcp_rst           tcp_out.o
    0x08010d50   0x08010d50   0x000000b4   Code   RO         7068    i.tcp_seg_copy      tcp.o
    0x08010e04   0x08010e04   0x0000001a   Code   RO         7069    i.tcp_seg_free      tcp.o
    0x08010e1e   0x08010e1e   0x00000018   Code   RO         7070    i.tcp_segs_free     tcp.o
    0x08010e36   0x08010e36   0x00000002   PAD
    0x08010e38   0x08010e38   0x00000140   Code   RO         7483    i.tcp_send_empty_ack  tcp_out.o
    0x08010f78   0x08010f78   0x000000e0   Code   RO         7484    i.tcp_send_fin      tcp_out.o
    0x08011058   0x08011058   0x00000734   Code   RO         7074    i.tcp_slowtmr       tcp.o
    0x0801178c   0x0801178c   0x000002d0   Code   RO         7485    i.tcp_split_unsent_seg  tcp_out.o
    0x08011a5c   0x08011a5c   0x00000038   Code   RO         7637    i.tcp_timer_needed  timeouts.o
    0x08011a94   0x08011a94   0x00000144   Code   RO         7381    i.tcp_timewait_input  tcp_in.o
    0x08011bd8   0x08011bd8   0x00000024   Code   RO         7076    i.tcp_tmr           tcp.o
    0x08011bfc   0x08011bfc   0x00000014   Code   RO         7382    i.tcp_trigger_input_pcb_close  tcp_in.o
    0x08011c10   0x08011c10   0x00000118   Code   RO         7078    i.tcp_update_rcv_ann_wnd  tcp.o
    0x08011d28   0x08011d28   0x00000170   Code   RO         7488    i.tcp_zero_window_probe  tcp_out.o
    0x08011e98   0x08011e98   0x00000038   Code   RO         7638    i.tcpip_tcp_timer   timeouts.o
    0x08011ed0   0x08011ed0   0x00000018   Code   RO         7725    i.udp_init          udp.o
    0x08011ee8   0x08011ee8   0x0000024c   Code   RO         7726    i.udp_input         udp.o
    0x08012134   0x08012134   0x00000138   Code   RO         7727    i.udp_input_local_match  udp.o
    0x0801226c   0x0801226c   0x00000030   Code   RO         7728    i.udp_netif_ip_addr_changed  udp.o
    0x0801229c   0x0801229c   0x0000000c   Data   RO          859    .constdata          ethernetif.o
    0x080122a8   0x080122a8   0x00000018   Data   RO         4313    .constdata          stm32h7xx_hal_uart.o
    0x080122c0   0x080122c0   0x00000010   Data   RO         4684    .constdata          stm32h7xx_hal_uart_ex.o
    0x080122d0   0x080122d0   0x00000010   Data   RO         4793    .constdata          system_stm32h7xx.o
    0x080122e0   0x080122e0   0x0000000c   Data   RO         5506    .constdata          ethernet.o
    0x080122ec   0x080122ec   0x00000090   Data   RO         6381    .constdata          memp.o
    0x0801237c   0x0801237c   0x00000050   Data   RO         7079    .constdata          tcp.o
    0x080123cc   0x080123cc   0x0000001c   Data   RO         7639    .constdata          timeouts.o
    0x080123e8   0x080123e8   0x00000008   Data   RO         8146    .constdata          ip4_addr.o
    0x080123f0   0x080123f0   0x00000041   Data   RO         6175    .conststring        init.o
    0x08012431   0x08012431   0x00000003   PAD
    0x08012434   0x08012434   0x00000075   Data   RO         7080    .conststring        tcp.o
    0x080124a9   0x080124a9   0x00000003   PAD
    0x080124ac   0x080124ac   0x00000055   Data   RO         7489    .conststring        tcp_out.o
    0x08012501   0x08012501   0x00000003   PAD
    0x08012504   0x08012504   0x00000041   Data   RO         7914    .conststring        etharp.o
    0x08012545   0x08012545   0x00000003   PAD
    0x08012548   0x08012548   0x00000020   Data   RO         9131    Region$$Table       anon$$obj.o


    Execution Region RW_IRAM1 (Exec base: 0x20000000, Load base: 0x08012568, Size: 0x00000000, Max: 0x00020000, ABSOLUTE)

    **** No section assigned to this execution region ****


    Execution Region RW_IRAM2 (Exec base: 0x24000000, Load base: 0x08012568, Size: 0x0000bc70, Max: 0x00080000, ABSOLUTE)

    Exec Addr    Load Addr    Size         Type   Attr      Idx    E Section Name        Object

    0x24000000   0x08012568   0x00000004   Data   RW          595    .data               delay.o
    0x24000004   0x0801256c   0x0000001c   Data   RW          860    .data               ethernetif.o
    0x24000020   0x08012588   0x0000001c   Data   RW         1000    .data               lwip.o
    0x2400003c   0x080125a4   0x00000009   Data   RW         3345    .data               stm32h7xx_hal.o
    0x24000045   0x080125ad   0x00000003   PAD
    0x24000048   0x080125b0   0x00000008   Data   RW         4794    .data               system_stm32h7xx.o
    0x24000050   0x080125b8   0x0000000c   Data   RW         6300    .data               mem.o
    0x2400005c   0x080125c4   0x00000024   Data   RW         6382    .data               memp.o
    0x24000080   0x080125e8   0x00000009   Data   RW         6516    .data               netif.o
    0x24000089   0x080125f1   0x00000001   Data   RW         6743    .data               pbuf.o
    0x2400008a   0x080125f2   0x00000002   PAD
    0x2400008c   0x080125f4   0x00000020   Data   RW         7081    .data               tcp.o
    0x240000ac   0x08012614   0x00000028   Data   RW         7384    .data               tcp_in.o
    0x240000d4   0x0801263c   0x0000000c   Data   RW         7640    .data               timeouts.o
    0x240000e0   0x08012648   0x00000008   Data   RW         7738    .data               udp.o
    0x240000e8   0x08012650   0x00000001   Data   RW         7915    .data               etharp.o
    0x240000e9   0x08012651   0x00000001   PAD
    0x240000ea   0x08012652   0x00000002   Data   RW         8086    .data               ip4.o
    0x240000ec   0x08012654   0x00000006   Data   RW         8222    .data               ip4_frag.o
    0x240000f2   0x0801265a   0x00000002   PAD
    0x240000f4   0x0801265c   0x00000004   Data   RW         8793    .data               mc_w.l(rand.o)
    0x240000f8   0x08012660   0x00000004   Data   RW         9092    .data               mc_w.l(stdout.o)
    0x240000fc        -       0x00000094   Zero   RW          435    .bss                usart.o
    0x24000190        -       0x00004a8c   Zero   RW          858    .bss                ethernetif.o
    0x24004c1c        -       0x0000003c   Zero   RW          999    .bss                lwip.o
    0x24004c58        -       0x00000018   Zero   RW         6256    .bss                ip.o
    0x24004c70        -       0x00002ebf   Zero   RW         6380    .bss                memp.o
    0x24007b2f   0x08012664   0x00000001   PAD
    0x24007b30        -       0x0000003c   Zero   RW         6515    .bss                netif.o
    0x24007b6c        -       0x00000010   Zero   RW         7383    .bss                tcp_in.o
    0x24007b7c        -       0x000000f0   Zero   RW         7913    .bss                etharp.o
    0x24007c6c   0x08012664   0x00000004   PAD
    0x24007c70        -       0x00004000   Zero   RW            1    STACK               startup_stm32h743xx.o



  Load Region LR$$.ARM.__AT_0x30000000 (Base: 0x30000000, Size: 0x00000000, Max: 0x00000060, ABSOLUTE)

    Execution Region ER$$.ARM.__AT_0x30000000 (Exec base: 0x30000000, Load base: 0x30000000, Size: 0x00000060, Max: 0x00000060, ABSOLUTE, UNINIT)

    Exec Addr    Load Addr    Size         Type   Attr      Idx    E Section Name        Object

    0x30000000        -       0x00000060   Zero   RW          856    .ARM.__AT_0x30000000  ethernetif.o



  Load Region LR$$.ARM.__AT_0x30000060 (Base: 0x30000060, Size: 0x00000000, Max: 0x00000060, ABSOLUTE)

    Execution Region ER$$.ARM.__AT_0x30000060 (Exec base: 0x30000060, Load base: 0x30000060, Size: 0x00000060, Max: 0x00000060, ABSOLUTE, UNINIT)

    Exec Addr    Load Addr    Size         Type   Attr      Idx    E Section Name        Object

    0x30000060        -       0x00000060   Zero   RW          857    .ARM.__AT_0x30000060  ethernetif.o


==============================================================================

Image component sizes


      Code (inc. data)   RO Data    RW Data    ZI Data      Debug   Object Name

         0          0          0          0          0       2022   bridgeif.o
         0          0          0          0          0        392   bridgeif_fdb.o
        38          0          0          0          0       1178   def.o
        96          4          0          4          0       3674   delay.o
      3820       1206         65          1        240      12683   etharp.o
       456        154         12          0          0       2962   ethernet.o
      1804        234         12         28      19276      23534   ethernetif.o
       140          4          0          0          0    1241980   gpio.o
      1004        350          0          0          0       4982   icmp.o
       200          0          0          0          0      11036   inet_chksum.o
       156         92         65          0          0       4192   init.o
         0          0          0          0         24       7889   ip.o
      1098        184          0          2          0       5944   ip4.o
        78          0          8          0          0       8910   ip4_addr.o
      3562       1192          0          6          0      12958   ip4_frag.o
       502          0          0          0          0      11610   lan8742.o
       764        144          0         28         60      24862   lwip.o
       566         28          0          0          0    1178340   main.o
      2376        968          0         12          0       8134   mem.o
      1092        718        144         36      11967      11954   memp.o
       760         52          0          0          0       5110   myiic.o
      2724       1354          0          9         60      19086   netif.o
      3912       1798          0          1          0      28282   pbuf.o
       216          8          0          0          0       2995   pcf8574.o
        36          8        664          0      16384        856   startup_stm32h743xx.o
       292         56          0          9          0      24192   stm32h7xx_hal.o
       474         38          0          0          0      41857   stm32h7xx_hal_cortex.o
      2164         34          0          0          0       4387   stm32h7xx_hal_dma.o
      4542         74          0          0          0      20927   stm32h7xx_hal_eth.o
       536         52          0          0          0       2979   stm32h7xx_hal_gpio.o
        36          4          0          0          0        970   stm32h7xx_hal_msp.o
        96          6          0          0          0        793   stm32h7xx_hal_pwr_ex.o
      3640        114          0          0          0       7152   stm32h7xx_hal_rcc.o
      5300        108          0          0          0       7525   stm32h7xx_hal_rcc_ex.o
      3542        148         24          0          0      30896   stm32h7xx_hal_uart.o
       360         10         16          0          0       5702   stm32h7xx_hal_uart_ex.o
        82         18          0          0          0       5925   stm32h7xx_it.o
       252         40         16          8          0       1482   system_stm32h7xx.o
      7468       3234        197         32          0      40327   tcp.o
      9228       2264          0         40         16      23419   tcp_in.o
      7202       3062         85          0          0      29922   tcp_out.o
       860        376         28         12          0       7150   timeouts.o
       972        354          0          8          0       5986   udp.o
       280         22          0          0        148       1986   usart.o

    ----------------------------------------------------------------------
     72782      18512       1380        244      48180    2899142   Object Totals
         0          0         32          0          0          0   (incl. Generated)
        56          0         12          8          5          0   (incl. Padding)

    ----------------------------------------------------------------------

      Code (inc. data)   RO Data    RW Data    ZI Data      Debug   Library Member Name

         0          0          0          0          0          0   entry.o
         0          0          0          0          0          0   entry10a.o
         0          0          0          0          0          0   entry11a.o
         4          0          0          0          0          0   entry12b.o
         8          4          0          0          0          0   entry2.o
         4          0          0          0          0          0   entry5.o
         0          0          0          0          0          0   entry7b.o
         0          0          0          0          0          0   entry8b.o
         8          4          0          0          0          0   entry9a.o
        18          0          0          0          0         80   fputc.o
        30          0          0          0          0          0   handlers.o
        36          8          0          0          0         68   init.o
         0          0          0          0          0          0   iusesemip.o
        30          0          0          0          0         68   llshl.o
        32          0          0          0          0         68   llushr.o
        26          0          0          0          0         80   memcmp.o
        64          0          0          0          0         76   memmovea.o
        36          0          0          0          0        108   memseta.o
       472         14          0          0          0        184   printf3.o
        36         10          0          4          0        136   rand.o
         0          0          0          0          0          0   semi.o
         0          0          0          4          0          0   stdout.o
        44          0          0          0          0         80   uidiv.o
        98          0          0          0          0         92   uldiv.o

    ----------------------------------------------------------------------
       950         40          0          8          0       1040   Library Totals
         4          0          0          0          0          0   (incl. Padding)

    ----------------------------------------------------------------------

      Code (inc. data)   RO Data    RW Data    ZI Data      Debug   Library Name

       946         40          0          8          0       1040   mc_w.l

    ----------------------------------------------------------------------
       950         40          0          8          0       1040   Library Totals

    ----------------------------------------------------------------------

==============================================================================


      Code (inc. data)   RO Data    RW Data    ZI Data      Debug   

     73732      18552       1380        252      48180    2870270   Grand Totals
     73732      18552       1380        252      48180    2870270   ELF Image Totals
     73732      18552       1380        252          0          0   ROM Totals

==============================================================================

    Total RO  Size (Code + RO Data)                75112 (  73.35kB)
    Total RW  Size (RW Data + ZI Data)             48432 (  47.30kB)
    Total ROM Size (Code + RO Data + RW Data)      75364 (  73.60kB)

==============================================================================

