
APP_Bootloader.elf:     file format elf32-littlearm

Sections:
Idx Name          Size      VMA       LMA       File off  Algn
  0 .isr_vector   00000298  08020000  08020000  00010000  2**0
                  CONTENTS, ALLOC, LOAD, READONLY, DATA
  1 .text         00006880  080202a0  080202a0  000102a0  2**4
                  CONTENTS, ALLOC, LOAD, READONLY, CODE
  2 .rodata       00000438  08026b20  08026b20  00016b20  2**3
                  CONTENTS, ALLOC, LOAD, READONLY, DATA
  3 .init_array   00000004  08026f58  08026f58  00016f58  2**2
                  CONTENTS, ALLOC, LOAD, DATA
  4 .fini_array   00000004  08026f5c  08026f5c  00016f5c  2**2
                  CONTENTS, ALLOC, LOAD, DATA
  5 .data         000001d8  24000000  08026f60  00020000  2**2
                  CONTENTS, ALLOC, LOAD, DATA
  6 .bss          00000170  240001d8  08027138  000201d8  2**2
                  ALLOC
  7 ._user_heap_stack 00000600  24000348  08027138  00020348  2**0
                  ALLOC
  8 .ARM.attributes 0000002e  00000000  00000000  000201d8  2**0
                  CONTENTS, READONLY
  9 .comment      00000043  00000000  00000000  00020206  2**0
                  CONTENTS, READONLY
 10 .debug_info   000085cd  00000000  00000000  00020249  2**0
                  CONTENTS, READONLY, DEBUGGING, OCTETS
 11 .debug_abbrev 00001758  00000000  00000000  00028816  2**0
                  CONTENTS, READONLY, DEBUGGING, OCTETS
 12 .debug_aranges 00000700  00000000  00000000  00029f70  2**3
                  CONTENTS, READONLY, DEBUGGING, OCTETS
 13 .debug_rnglists 00000512  00000000  00000000  0002a670  2**0
                  CONTENTS, READONLY, DEBUGGING, OCTETS
 14 .debug_macro  00035a67  00000000  00000000  0002ab82  2**0
                  CONTENTS, READONLY, DEBUGGING, OCTETS
 15 .debug_line   0000913e  00000000  00000000  000605e9  2**0
                  CONTENTS, READONLY, DEBUGGING, OCTETS
 16 .debug_str    0014fd3f  00000000  00000000  00069727  2**0
                  CONTENTS, READONLY, DEBUGGING, OCTETS
 17 .debug_frame  00002d3c  00000000  00000000  001b9468  2**2
                  CONTENTS, READONLY, DEBUGGING, OCTETS
 18 .debug_line_str 00000070  00000000  00000000  001bc1a4  2**0
                  CONTENTS, READONLY, DEBUGGING, OCTETS

Disassembly of section .text:

080202a0 <__do_global_dtors_aux>:
 80202a0:	b510      	push	{r4, lr}
 80202a2:	4c05      	ldr	r4, [pc, #20]	; (80202b8 <__do_global_dtors_aux+0x18>)
 80202a4:	7823      	ldrb	r3, [r4, #0]
 80202a6:	b933      	cbnz	r3, 80202b6 <__do_global_dtors_aux+0x16>
 80202a8:	4b04      	ldr	r3, [pc, #16]	; (80202bc <__do_global_dtors_aux+0x1c>)
 80202aa:	b113      	cbz	r3, 80202b2 <__do_global_dtors_aux+0x12>
 80202ac:	4804      	ldr	r0, [pc, #16]	; (80202c0 <__do_global_dtors_aux+0x20>)
 80202ae:	f3af 8000 	nop.w
 80202b2:	2301      	movs	r3, #1
 80202b4:	7023      	strb	r3, [r4, #0]
 80202b6:	bd10      	pop	{r4, pc}
 80202b8:	240001d8 	.word	0x240001d8
 80202bc:	00000000 	.word	0x00000000
 80202c0:	08026b08 	.word	0x08026b08

080202c4 <frame_dummy>:
 80202c4:	b508      	push	{r3, lr}
 80202c6:	4b03      	ldr	r3, [pc, #12]	; (80202d4 <frame_dummy+0x10>)
 80202c8:	b11b      	cbz	r3, 80202d2 <frame_dummy+0xe>
 80202ca:	4903      	ldr	r1, [pc, #12]	; (80202d8 <frame_dummy+0x14>)
 80202cc:	4803      	ldr	r0, [pc, #12]	; (80202dc <frame_dummy+0x18>)
 80202ce:	f3af 8000 	nop.w
 80202d2:	bd08      	pop	{r3, pc}
 80202d4:	00000000 	.word	0x00000000
 80202d8:	240001dc 	.word	0x240001dc
 80202dc:	08026b08 	.word	0x08026b08

080202e0 <memchr>:
 80202e0:	f001 01ff 	and.w	r1, r1, #255	; 0xff
 80202e4:	2a10      	cmp	r2, #16
 80202e6:	db2b      	blt.n	8020340 <memchr+0x60>
 80202e8:	f010 0f07 	tst.w	r0, #7
 80202ec:	d008      	beq.n	8020300 <memchr+0x20>
 80202ee:	f810 3b01 	ldrb.w	r3, [r0], #1
 80202f2:	3a01      	subs	r2, #1
 80202f4:	428b      	cmp	r3, r1
 80202f6:	d02d      	beq.n	8020354 <memchr+0x74>
 80202f8:	f010 0f07 	tst.w	r0, #7
 80202fc:	b342      	cbz	r2, 8020350 <memchr+0x70>
 80202fe:	d1f6      	bne.n	80202ee <memchr+0xe>
 8020300:	b4f0      	push	{r4, r5, r6, r7}
 8020302:	ea41 2101 	orr.w	r1, r1, r1, lsl #8
 8020306:	ea41 4101 	orr.w	r1, r1, r1, lsl #16
 802030a:	f022 0407 	bic.w	r4, r2, #7
 802030e:	f07f 0700 	mvns.w	r7, #0
 8020312:	2300      	movs	r3, #0
 8020314:	e8f0 5602 	ldrd	r5, r6, [r0], #8
 8020318:	3c08      	subs	r4, #8
 802031a:	ea85 0501 	eor.w	r5, r5, r1
 802031e:	ea86 0601 	eor.w	r6, r6, r1
 8020322:	fa85 f547 	uadd8	r5, r5, r7
 8020326:	faa3 f587 	sel	r5, r3, r7
 802032a:	fa86 f647 	uadd8	r6, r6, r7
 802032e:	faa5 f687 	sel	r6, r5, r7
 8020332:	b98e      	cbnz	r6, 8020358 <memchr+0x78>
 8020334:	d1ee      	bne.n	8020314 <memchr+0x34>
 8020336:	bcf0      	pop	{r4, r5, r6, r7}
 8020338:	f001 01ff 	and.w	r1, r1, #255	; 0xff
 802033c:	f002 0207 	and.w	r2, r2, #7
 8020340:	b132      	cbz	r2, 8020350 <memchr+0x70>
 8020342:	f810 3b01 	ldrb.w	r3, [r0], #1
 8020346:	3a01      	subs	r2, #1
 8020348:	ea83 0301 	eor.w	r3, r3, r1
 802034c:	b113      	cbz	r3, 8020354 <memchr+0x74>
 802034e:	d1f8      	bne.n	8020342 <memchr+0x62>
 8020350:	2000      	movs	r0, #0
 8020352:	4770      	bx	lr
 8020354:	3801      	subs	r0, #1
 8020356:	4770      	bx	lr
 8020358:	2d00      	cmp	r5, #0
 802035a:	bf06      	itte	eq
 802035c:	4635      	moveq	r5, r6
 802035e:	3803      	subeq	r0, #3
 8020360:	3807      	subne	r0, #7
 8020362:	f015 0f01 	tst.w	r5, #1
 8020366:	d107      	bne.n	8020378 <memchr+0x98>
 8020368:	3001      	adds	r0, #1
 802036a:	f415 7f80 	tst.w	r5, #256	; 0x100
 802036e:	bf02      	ittt	eq
 8020370:	3001      	addeq	r0, #1
 8020372:	f415 3fc0 	tsteq.w	r5, #98304	; 0x18000
 8020376:	3001      	addeq	r0, #1
 8020378:	bcf0      	pop	{r4, r5, r6, r7}
 802037a:	3801      	subs	r0, #1
 802037c:	4770      	bx	lr
 802037e:	bf00      	nop

08020380 <strlen>:
 8020380:	4603      	mov	r3, r0
 8020382:	f813 2b01 	ldrb.w	r2, [r3], #1
 8020386:	2a00      	cmp	r2, #0
 8020388:	d1fb      	bne.n	8020382 <strlen+0x2>
 802038a:	1a18      	subs	r0, r3, r0
 802038c:	3801      	subs	r0, #1
 802038e:	4770      	bx	lr

08020390 <__aeabi_drsub>:
 8020390:	f081 4100 	eor.w	r1, r1, #2147483648	; 0x80000000
 8020394:	e002      	b.n	802039c <__adddf3>
 8020396:	bf00      	nop

08020398 <__aeabi_dsub>:
 8020398:	f083 4300 	eor.w	r3, r3, #2147483648	; 0x80000000

0802039c <__adddf3>:
 802039c:	b530      	push	{r4, r5, lr}
 802039e:	ea4f 0441 	mov.w	r4, r1, lsl #1
 80203a2:	ea4f 0543 	mov.w	r5, r3, lsl #1
 80203a6:	ea94 0f05 	teq	r4, r5
 80203aa:	bf08      	it	eq
 80203ac:	ea90 0f02 	teqeq	r0, r2
 80203b0:	bf1f      	itttt	ne
 80203b2:	ea54 0c00 	orrsne.w	ip, r4, r0
 80203b6:	ea55 0c02 	orrsne.w	ip, r5, r2
 80203ba:	ea7f 5c64 	mvnsne.w	ip, r4, asr #21
 80203be:	ea7f 5c65 	mvnsne.w	ip, r5, asr #21
 80203c2:	f000 80e2 	beq.w	802058a <__adddf3+0x1ee>
 80203c6:	ea4f 5454 	mov.w	r4, r4, lsr #21
 80203ca:	ebd4 5555 	rsbs	r5, r4, r5, lsr #21
 80203ce:	bfb8      	it	lt
 80203d0:	426d      	neglt	r5, r5
 80203d2:	dd0c      	ble.n	80203ee <__adddf3+0x52>
 80203d4:	442c      	add	r4, r5
 80203d6:	ea80 0202 	eor.w	r2, r0, r2
 80203da:	ea81 0303 	eor.w	r3, r1, r3
 80203de:	ea82 0000 	eor.w	r0, r2, r0
 80203e2:	ea83 0101 	eor.w	r1, r3, r1
 80203e6:	ea80 0202 	eor.w	r2, r0, r2
 80203ea:	ea81 0303 	eor.w	r3, r1, r3
 80203ee:	2d36      	cmp	r5, #54	; 0x36
 80203f0:	bf88      	it	hi
 80203f2:	bd30      	pophi	{r4, r5, pc}
 80203f4:	f011 4f00 	tst.w	r1, #2147483648	; 0x80000000
 80203f8:	ea4f 3101 	mov.w	r1, r1, lsl #12
 80203fc:	f44f 1c80 	mov.w	ip, #1048576	; 0x100000
 8020400:	ea4c 3111 	orr.w	r1, ip, r1, lsr #12
 8020404:	d002      	beq.n	802040c <__adddf3+0x70>
 8020406:	4240      	negs	r0, r0
 8020408:	eb61 0141 	sbc.w	r1, r1, r1, lsl #1
 802040c:	f013 4f00 	tst.w	r3, #2147483648	; 0x80000000
 8020410:	ea4f 3303 	mov.w	r3, r3, lsl #12
 8020414:	ea4c 3313 	orr.w	r3, ip, r3, lsr #12
 8020418:	d002      	beq.n	8020420 <__adddf3+0x84>
 802041a:	4252      	negs	r2, r2
 802041c:	eb63 0343 	sbc.w	r3, r3, r3, lsl #1
 8020420:	ea94 0f05 	teq	r4, r5
 8020424:	f000 80a7 	beq.w	8020576 <__adddf3+0x1da>
 8020428:	f1a4 0401 	sub.w	r4, r4, #1
 802042c:	f1d5 0e20 	rsbs	lr, r5, #32
 8020430:	db0d      	blt.n	802044e <__adddf3+0xb2>
 8020432:	fa02 fc0e 	lsl.w	ip, r2, lr
 8020436:	fa22 f205 	lsr.w	r2, r2, r5
 802043a:	1880      	adds	r0, r0, r2
 802043c:	f141 0100 	adc.w	r1, r1, #0
 8020440:	fa03 f20e 	lsl.w	r2, r3, lr
 8020444:	1880      	adds	r0, r0, r2
 8020446:	fa43 f305 	asr.w	r3, r3, r5
 802044a:	4159      	adcs	r1, r3
 802044c:	e00e      	b.n	802046c <__adddf3+0xd0>
 802044e:	f1a5 0520 	sub.w	r5, r5, #32
 8020452:	f10e 0e20 	add.w	lr, lr, #32
 8020456:	2a01      	cmp	r2, #1
 8020458:	fa03 fc0e 	lsl.w	ip, r3, lr
 802045c:	bf28      	it	cs
 802045e:	f04c 0c02 	orrcs.w	ip, ip, #2
 8020462:	fa43 f305 	asr.w	r3, r3, r5
 8020466:	18c0      	adds	r0, r0, r3
 8020468:	eb51 71e3 	adcs.w	r1, r1, r3, asr #31
 802046c:	f001 4500 	and.w	r5, r1, #2147483648	; 0x80000000
 8020470:	d507      	bpl.n	8020482 <__adddf3+0xe6>
 8020472:	f04f 0e00 	mov.w	lr, #0
 8020476:	f1dc 0c00 	rsbs	ip, ip, #0
 802047a:	eb7e 0000 	sbcs.w	r0, lr, r0
 802047e:	eb6e 0101 	sbc.w	r1, lr, r1
 8020482:	f5b1 1f80 	cmp.w	r1, #1048576	; 0x100000
 8020486:	d31b      	bcc.n	80204c0 <__adddf3+0x124>
 8020488:	f5b1 1f00 	cmp.w	r1, #2097152	; 0x200000
 802048c:	d30c      	bcc.n	80204a8 <__adddf3+0x10c>
 802048e:	0849      	lsrs	r1, r1, #1
 8020490:	ea5f 0030 	movs.w	r0, r0, rrx
 8020494:	ea4f 0c3c 	mov.w	ip, ip, rrx
 8020498:	f104 0401 	add.w	r4, r4, #1
 802049c:	ea4f 5244 	mov.w	r2, r4, lsl #21
 80204a0:	f512 0f80 	cmn.w	r2, #4194304	; 0x400000
 80204a4:	f080 809a 	bcs.w	80205dc <__adddf3+0x240>
 80204a8:	f1bc 4f00 	cmp.w	ip, #2147483648	; 0x80000000
 80204ac:	bf08      	it	eq
 80204ae:	ea5f 0c50 	movseq.w	ip, r0, lsr #1
 80204b2:	f150 0000 	adcs.w	r0, r0, #0
 80204b6:	eb41 5104 	adc.w	r1, r1, r4, lsl #20
 80204ba:	ea41 0105 	orr.w	r1, r1, r5
 80204be:	bd30      	pop	{r4, r5, pc}
 80204c0:	ea5f 0c4c 	movs.w	ip, ip, lsl #1
 80204c4:	4140      	adcs	r0, r0
 80204c6:	eb41 0101 	adc.w	r1, r1, r1
 80204ca:	3c01      	subs	r4, #1
 80204cc:	bf28      	it	cs
 80204ce:	f5b1 1f80 	cmpcs.w	r1, #1048576	; 0x100000
 80204d2:	d2e9      	bcs.n	80204a8 <__adddf3+0x10c>
 80204d4:	f091 0f00 	teq	r1, #0
 80204d8:	bf04      	itt	eq
 80204da:	4601      	moveq	r1, r0
 80204dc:	2000      	moveq	r0, #0
 80204de:	fab1 f381 	clz	r3, r1
 80204e2:	bf08      	it	eq
 80204e4:	3320      	addeq	r3, #32
 80204e6:	f1a3 030b 	sub.w	r3, r3, #11
 80204ea:	f1b3 0220 	subs.w	r2, r3, #32
 80204ee:	da0c      	bge.n	802050a <__adddf3+0x16e>
 80204f0:	320c      	adds	r2, #12
 80204f2:	dd08      	ble.n	8020506 <__adddf3+0x16a>
 80204f4:	f102 0c14 	add.w	ip, r2, #20
 80204f8:	f1c2 020c 	rsb	r2, r2, #12
 80204fc:	fa01 f00c 	lsl.w	r0, r1, ip
 8020500:	fa21 f102 	lsr.w	r1, r1, r2
 8020504:	e00c      	b.n	8020520 <__adddf3+0x184>
 8020506:	f102 0214 	add.w	r2, r2, #20
 802050a:	bfd8      	it	le
 802050c:	f1c2 0c20 	rsble	ip, r2, #32
 8020510:	fa01 f102 	lsl.w	r1, r1, r2
 8020514:	fa20 fc0c 	lsr.w	ip, r0, ip
 8020518:	bfdc      	itt	le
 802051a:	ea41 010c 	orrle.w	r1, r1, ip
 802051e:	4090      	lslle	r0, r2
 8020520:	1ae4      	subs	r4, r4, r3
 8020522:	bfa2      	ittt	ge
 8020524:	eb01 5104 	addge.w	r1, r1, r4, lsl #20
 8020528:	4329      	orrge	r1, r5
 802052a:	bd30      	popge	{r4, r5, pc}
 802052c:	ea6f 0404 	mvn.w	r4, r4
 8020530:	3c1f      	subs	r4, #31
 8020532:	da1c      	bge.n	802056e <__adddf3+0x1d2>
 8020534:	340c      	adds	r4, #12
 8020536:	dc0e      	bgt.n	8020556 <__adddf3+0x1ba>
 8020538:	f104 0414 	add.w	r4, r4, #20
 802053c:	f1c4 0220 	rsb	r2, r4, #32
 8020540:	fa20 f004 	lsr.w	r0, r0, r4
 8020544:	fa01 f302 	lsl.w	r3, r1, r2
 8020548:	ea40 0003 	orr.w	r0, r0, r3
 802054c:	fa21 f304 	lsr.w	r3, r1, r4
 8020550:	ea45 0103 	orr.w	r1, r5, r3
 8020554:	bd30      	pop	{r4, r5, pc}
 8020556:	f1c4 040c 	rsb	r4, r4, #12
 802055a:	f1c4 0220 	rsb	r2, r4, #32
 802055e:	fa20 f002 	lsr.w	r0, r0, r2
 8020562:	fa01 f304 	lsl.w	r3, r1, r4
 8020566:	ea40 0003 	orr.w	r0, r0, r3
 802056a:	4629      	mov	r1, r5
 802056c:	bd30      	pop	{r4, r5, pc}
 802056e:	fa21 f004 	lsr.w	r0, r1, r4
 8020572:	4629      	mov	r1, r5
 8020574:	bd30      	pop	{r4, r5, pc}
 8020576:	f094 0f00 	teq	r4, #0
 802057a:	f483 1380 	eor.w	r3, r3, #1048576	; 0x100000
 802057e:	bf06      	itte	eq
 8020580:	f481 1180 	eoreq.w	r1, r1, #1048576	; 0x100000
 8020584:	3401      	addeq	r4, #1
 8020586:	3d01      	subne	r5, #1
 8020588:	e74e      	b.n	8020428 <__adddf3+0x8c>
 802058a:	ea7f 5c64 	mvns.w	ip, r4, asr #21
 802058e:	bf18      	it	ne
 8020590:	ea7f 5c65 	mvnsne.w	ip, r5, asr #21
 8020594:	d029      	beq.n	80205ea <__adddf3+0x24e>
 8020596:	ea94 0f05 	teq	r4, r5
 802059a:	bf08      	it	eq
 802059c:	ea90 0f02 	teqeq	r0, r2
 80205a0:	d005      	beq.n	80205ae <__adddf3+0x212>
 80205a2:	ea54 0c00 	orrs.w	ip, r4, r0
 80205a6:	bf04      	itt	eq
 80205a8:	4619      	moveq	r1, r3
 80205aa:	4610      	moveq	r0, r2
 80205ac:	bd30      	pop	{r4, r5, pc}
 80205ae:	ea91 0f03 	teq	r1, r3
 80205b2:	bf1e      	ittt	ne
 80205b4:	2100      	movne	r1, #0
 80205b6:	2000      	movne	r0, #0
 80205b8:	bd30      	popne	{r4, r5, pc}
 80205ba:	ea5f 5c54 	movs.w	ip, r4, lsr #21
 80205be:	d105      	bne.n	80205cc <__adddf3+0x230>
 80205c0:	0040      	lsls	r0, r0, #1
 80205c2:	4149      	adcs	r1, r1
 80205c4:	bf28      	it	cs
 80205c6:	f041 4100 	orrcs.w	r1, r1, #2147483648	; 0x80000000
 80205ca:	bd30      	pop	{r4, r5, pc}
 80205cc:	f514 0480 	adds.w	r4, r4, #4194304	; 0x400000
 80205d0:	bf3c      	itt	cc
 80205d2:	f501 1180 	addcc.w	r1, r1, #1048576	; 0x100000
 80205d6:	bd30      	popcc	{r4, r5, pc}
 80205d8:	f001 4500 	and.w	r5, r1, #2147483648	; 0x80000000
 80205dc:	f045 41fe 	orr.w	r1, r5, #2130706432	; 0x7f000000
 80205e0:	f441 0170 	orr.w	r1, r1, #15728640	; 0xf00000
 80205e4:	f04f 0000 	mov.w	r0, #0
 80205e8:	bd30      	pop	{r4, r5, pc}
 80205ea:	ea7f 5c64 	mvns.w	ip, r4, asr #21
 80205ee:	bf1a      	itte	ne
 80205f0:	4619      	movne	r1, r3
 80205f2:	4610      	movne	r0, r2
 80205f4:	ea7f 5c65 	mvnseq.w	ip, r5, asr #21
 80205f8:	bf1c      	itt	ne
 80205fa:	460b      	movne	r3, r1
 80205fc:	4602      	movne	r2, r0
 80205fe:	ea50 3401 	orrs.w	r4, r0, r1, lsl #12
 8020602:	bf06      	itte	eq
 8020604:	ea52 3503 	orrseq.w	r5, r2, r3, lsl #12
 8020608:	ea91 0f03 	teqeq	r1, r3
 802060c:	f441 2100 	orrne.w	r1, r1, #524288	; 0x80000
 8020610:	bd30      	pop	{r4, r5, pc}
 8020612:	bf00      	nop

08020614 <__aeabi_ui2d>:
 8020614:	f090 0f00 	teq	r0, #0
 8020618:	bf04      	itt	eq
 802061a:	2100      	moveq	r1, #0
 802061c:	4770      	bxeq	lr
 802061e:	b530      	push	{r4, r5, lr}
 8020620:	f44f 6480 	mov.w	r4, #1024	; 0x400
 8020624:	f104 0432 	add.w	r4, r4, #50	; 0x32
 8020628:	f04f 0500 	mov.w	r5, #0
 802062c:	f04f 0100 	mov.w	r1, #0
 8020630:	e750      	b.n	80204d4 <__adddf3+0x138>
 8020632:	bf00      	nop

08020634 <__aeabi_i2d>:
 8020634:	f090 0f00 	teq	r0, #0
 8020638:	bf04      	itt	eq
 802063a:	2100      	moveq	r1, #0
 802063c:	4770      	bxeq	lr
 802063e:	b530      	push	{r4, r5, lr}
 8020640:	f44f 6480 	mov.w	r4, #1024	; 0x400
 8020644:	f104 0432 	add.w	r4, r4, #50	; 0x32
 8020648:	f010 4500 	ands.w	r5, r0, #2147483648	; 0x80000000
 802064c:	bf48      	it	mi
 802064e:	4240      	negmi	r0, r0
 8020650:	f04f 0100 	mov.w	r1, #0
 8020654:	e73e      	b.n	80204d4 <__adddf3+0x138>
 8020656:	bf00      	nop

08020658 <__aeabi_f2d>:
 8020658:	0042      	lsls	r2, r0, #1
 802065a:	ea4f 01e2 	mov.w	r1, r2, asr #3
 802065e:	ea4f 0131 	mov.w	r1, r1, rrx
 8020662:	ea4f 7002 	mov.w	r0, r2, lsl #28
 8020666:	bf1f      	itttt	ne
 8020668:	f012 437f 	andsne.w	r3, r2, #4278190080	; 0xff000000
 802066c:	f093 4f7f 	teqne	r3, #4278190080	; 0xff000000
 8020670:	f081 5160 	eorne.w	r1, r1, #939524096	; 0x38000000
 8020674:	4770      	bxne	lr
 8020676:	f032 427f 	bics.w	r2, r2, #4278190080	; 0xff000000
 802067a:	bf08      	it	eq
 802067c:	4770      	bxeq	lr
 802067e:	f093 4f7f 	teq	r3, #4278190080	; 0xff000000
 8020682:	bf04      	itt	eq
 8020684:	f441 2100 	orreq.w	r1, r1, #524288	; 0x80000
 8020688:	4770      	bxeq	lr
 802068a:	b530      	push	{r4, r5, lr}
 802068c:	f44f 7460 	mov.w	r4, #896	; 0x380
 8020690:	f001 4500 	and.w	r5, r1, #2147483648	; 0x80000000
 8020694:	f021 4100 	bic.w	r1, r1, #2147483648	; 0x80000000
 8020698:	e71c      	b.n	80204d4 <__adddf3+0x138>
 802069a:	bf00      	nop

0802069c <__aeabi_ul2d>:
 802069c:	ea50 0201 	orrs.w	r2, r0, r1
 80206a0:	bf08      	it	eq
 80206a2:	4770      	bxeq	lr
 80206a4:	b530      	push	{r4, r5, lr}
 80206a6:	f04f 0500 	mov.w	r5, #0
 80206aa:	e00a      	b.n	80206c2 <__aeabi_l2d+0x16>

080206ac <__aeabi_l2d>:
 80206ac:	ea50 0201 	orrs.w	r2, r0, r1
 80206b0:	bf08      	it	eq
 80206b2:	4770      	bxeq	lr
 80206b4:	b530      	push	{r4, r5, lr}
 80206b6:	f011 4500 	ands.w	r5, r1, #2147483648	; 0x80000000
 80206ba:	d502      	bpl.n	80206c2 <__aeabi_l2d+0x16>
 80206bc:	4240      	negs	r0, r0
 80206be:	eb61 0141 	sbc.w	r1, r1, r1, lsl #1
 80206c2:	f44f 6480 	mov.w	r4, #1024	; 0x400
 80206c6:	f104 0432 	add.w	r4, r4, #50	; 0x32
 80206ca:	ea5f 5c91 	movs.w	ip, r1, lsr #22
 80206ce:	f43f aed8 	beq.w	8020482 <__adddf3+0xe6>
 80206d2:	f04f 0203 	mov.w	r2, #3
 80206d6:	ea5f 0cdc 	movs.w	ip, ip, lsr #3
 80206da:	bf18      	it	ne
 80206dc:	3203      	addne	r2, #3
 80206de:	ea5f 0cdc 	movs.w	ip, ip, lsr #3
 80206e2:	bf18      	it	ne
 80206e4:	3203      	addne	r2, #3
 80206e6:	eb02 02dc 	add.w	r2, r2, ip, lsr #3
 80206ea:	f1c2 0320 	rsb	r3, r2, #32
 80206ee:	fa00 fc03 	lsl.w	ip, r0, r3
 80206f2:	fa20 f002 	lsr.w	r0, r0, r2
 80206f6:	fa01 fe03 	lsl.w	lr, r1, r3
 80206fa:	ea40 000e 	orr.w	r0, r0, lr
 80206fe:	fa21 f102 	lsr.w	r1, r1, r2
 8020702:	4414      	add	r4, r2
 8020704:	e6bd      	b.n	8020482 <__adddf3+0xe6>
 8020706:	bf00      	nop

08020708 <__aeabi_d2lz>:
 8020708:	b508      	push	{r3, lr}
 802070a:	4602      	mov	r2, r0
 802070c:	460b      	mov	r3, r1
 802070e:	ec43 2b17 	vmov	d7, r2, r3
 8020712:	eeb5 7bc0 	vcmpe.f64	d7, #0.0
 8020716:	eef1 fa10 	vmrs	APSR_nzcv, fpscr
 802071a:	d403      	bmi.n	8020724 <__aeabi_d2lz+0x1c>
 802071c:	e8bd 4008 	ldmia.w	sp!, {r3, lr}
 8020720:	f000 b80a 	b.w	8020738 <__aeabi_d2ulz>
 8020724:	eeb1 7b47 	vneg.f64	d7, d7
 8020728:	ec51 0b17 	vmov	r0, r1, d7
 802072c:	f000 f804 	bl	8020738 <__aeabi_d2ulz>
 8020730:	4240      	negs	r0, r0
 8020732:	eb61 0141 	sbc.w	r1, r1, r1, lsl #1
 8020736:	bd08      	pop	{r3, pc}

08020738 <__aeabi_d2ulz>:
 8020738:	ed9f 6b0b 	vldr	d6, [pc, #44]	; 8020768 <__aeabi_d2ulz+0x30>
 802073c:	ec41 0b17 	vmov	d7, r0, r1
 8020740:	ed9f 5b0b 	vldr	d5, [pc, #44]	; 8020770 <__aeabi_d2ulz+0x38>
 8020744:	ee27 6b06 	vmul.f64	d6, d7, d6
 8020748:	eebc 6bc6 	vcvt.u32.f64	s12, d6
 802074c:	eeb8 4b46 	vcvt.f64.u32	d4, s12
 8020750:	eea4 7b45 	vfms.f64	d7, d4, d5
 8020754:	eefc 7bc7 	vcvt.u32.f64	s15, d7
 8020758:	ee16 1a10 	vmov	r1, s12
 802075c:	ee17 0a90 	vmov	r0, s15
 8020760:	4770      	bx	lr
 8020762:	bf00      	nop
 8020764:	f3af 8000 	nop.w
 8020768:	00000000 	.word	0x00000000
 802076c:	3df00000 	.word	0x3df00000
 8020770:	00000000 	.word	0x00000000
 8020774:	41f00000 	.word	0x41f00000

08020778 <MX_GPIO_Init>:
     PH1-OSC_OUT (PH1)   ------> RCC_OSC_OUT
     PA13 (JTMS/SWDIO)   ------> DEBUG_JTMS-SWDIO
     PA14 (JTCK/SWCLK)   ------> DEBUG_JTCK-SWCLK
*/
void MX_GPIO_Init(void)
{
 8020778:	b580      	push	{r7, lr}
 802077a:	b088      	sub	sp, #32
 802077c:	af00      	add	r7, sp, #0

  GPIO_InitTypeDef GPIO_InitStruct = {0};
 802077e:	f107 030c 	add.w	r3, r7, #12
 8020782:	2200      	movs	r2, #0
 8020784:	601a      	str	r2, [r3, #0]
 8020786:	605a      	str	r2, [r3, #4]
 8020788:	609a      	str	r2, [r3, #8]
 802078a:	60da      	str	r2, [r3, #12]
 802078c:	611a      	str	r2, [r3, #16]

  /* GPIO Ports Clock Enable */
  __HAL_RCC_GPIOH_CLK_ENABLE();
 802078e:	4b22      	ldr	r3, [pc, #136]	; (8020818 <MX_GPIO_Init+0xa0>)
 8020790:	f8d3 30e0 	ldr.w	r3, [r3, #224]	; 0xe0
 8020794:	4a20      	ldr	r2, [pc, #128]	; (8020818 <MX_GPIO_Init+0xa0>)
 8020796:	f043 0380 	orr.w	r3, r3, #128	; 0x80
 802079a:	f8c2 30e0 	str.w	r3, [r2, #224]	; 0xe0
 802079e:	4b1e      	ldr	r3, [pc, #120]	; (8020818 <MX_GPIO_Init+0xa0>)
 80207a0:	f8d3 30e0 	ldr.w	r3, [r3, #224]	; 0xe0
 80207a4:	f003 0380 	and.w	r3, r3, #128	; 0x80
 80207a8:	60bb      	str	r3, [r7, #8]
 80207aa:	68bb      	ldr	r3, [r7, #8]
  __HAL_RCC_GPIOB_CLK_ENABLE();
 80207ac:	4b1a      	ldr	r3, [pc, #104]	; (8020818 <MX_GPIO_Init+0xa0>)
 80207ae:	f8d3 30e0 	ldr.w	r3, [r3, #224]	; 0xe0
 80207b2:	4a19      	ldr	r2, [pc, #100]	; (8020818 <MX_GPIO_Init+0xa0>)
 80207b4:	f043 0302 	orr.w	r3, r3, #2
 80207b8:	f8c2 30e0 	str.w	r3, [r2, #224]	; 0xe0
 80207bc:	4b16      	ldr	r3, [pc, #88]	; (8020818 <MX_GPIO_Init+0xa0>)
 80207be:	f8d3 30e0 	ldr.w	r3, [r3, #224]	; 0xe0
 80207c2:	f003 0302 	and.w	r3, r3, #2
 80207c6:	607b      	str	r3, [r7, #4]
 80207c8:	687b      	ldr	r3, [r7, #4]
  __HAL_RCC_GPIOA_CLK_ENABLE();
 80207ca:	4b13      	ldr	r3, [pc, #76]	; (8020818 <MX_GPIO_Init+0xa0>)
 80207cc:	f8d3 30e0 	ldr.w	r3, [r3, #224]	; 0xe0
 80207d0:	4a11      	ldr	r2, [pc, #68]	; (8020818 <MX_GPIO_Init+0xa0>)
 80207d2:	f043 0301 	orr.w	r3, r3, #1
 80207d6:	f8c2 30e0 	str.w	r3, [r2, #224]	; 0xe0
 80207da:	4b0f      	ldr	r3, [pc, #60]	; (8020818 <MX_GPIO_Init+0xa0>)
 80207dc:	f8d3 30e0 	ldr.w	r3, [r3, #224]	; 0xe0
 80207e0:	f003 0301 	and.w	r3, r3, #1
 80207e4:	603b      	str	r3, [r7, #0]
 80207e6:	683b      	ldr	r3, [r7, #0]

  /*Configure GPIO pin Output Level */
  HAL_GPIO_WritePin(GPIOB, LED1_Pin|LED0_Pin, GPIO_PIN_RESET);
 80207e8:	2200      	movs	r2, #0
 80207ea:	2103      	movs	r1, #3
 80207ec:	480b      	ldr	r0, [pc, #44]	; (802081c <MX_GPIO_Init+0xa4>)
 80207ee:	f000 fec5 	bl	802157c <HAL_GPIO_WritePin>

  /*Configure GPIO pins : PBPin PBPin */
  GPIO_InitStruct.Pin = LED1_Pin|LED0_Pin;
 80207f2:	2303      	movs	r3, #3
 80207f4:	60fb      	str	r3, [r7, #12]
  GPIO_InitStruct.Mode = GPIO_MODE_OUTPUT_PP;
 80207f6:	2301      	movs	r3, #1
 80207f8:	613b      	str	r3, [r7, #16]
  GPIO_InitStruct.Pull = GPIO_NOPULL;
 80207fa:	2300      	movs	r3, #0
 80207fc:	617b      	str	r3, [r7, #20]
  GPIO_InitStruct.Speed = GPIO_SPEED_FREQ_LOW;
 80207fe:	2300      	movs	r3, #0
 8020800:	61bb      	str	r3, [r7, #24]
  HAL_GPIO_Init(GPIOB, &GPIO_InitStruct);
 8020802:	f107 030c 	add.w	r3, r7, #12
 8020806:	4619      	mov	r1, r3
 8020808:	4804      	ldr	r0, [pc, #16]	; (802081c <MX_GPIO_Init+0xa4>)
 802080a:	f000 fd07 	bl	802121c <HAL_GPIO_Init>

}
 802080e:	bf00      	nop
 8020810:	3720      	adds	r7, #32
 8020812:	46bd      	mov	sp, r7
 8020814:	bd80      	pop	{r7, pc}
 8020816:	bf00      	nop
 8020818:	58024400 	.word	0x58024400
 802081c:	58020400 	.word	0x58020400

08020820 <main>:
/**
  * @brief  The application entry point.
  * @retval int
  */
int main(void)
{
 8020820:	b580      	push	{r7, lr}
 8020822:	b082      	sub	sp, #8
 8020824:	af00      	add	r7, sp, #0
  /* USER CODE BEGIN 1 */
  //app 中断向量表偏移
   uint32_t offset=(uint32_t)(APP_FALSH_BASE_ADDR-FLASH_BASE);
 8020826:	f44f 3300 	mov.w	r3, #131072	; 0x20000
 802082a:	607b      	str	r3, [r7, #4]
   scb_int_table_offset(offset);
 802082c:	6878      	ldr	r0, [r7, #4]
 802082e:	f001 fe83 	bl	8022538 <scb_int_table_offset>
  \details Enables IRQ interrupts by clearing the I-bit in the CPSR.
           Can only be executed in Privileged modes.
 */
__STATIC_FORCEINLINE void __enable_irq(void)
{
  __ASM volatile ("cpsie i" : : : "memory");
 8020832:	b662      	cpsie	i
}
 8020834:	bf00      	nop
	__enable_irq();
   uint8_t data= (*(uint32_t *)(0x08000000));
 8020836:	f04f 6300 	mov.w	r3, #134217728	; 0x8000000
 802083a:	681b      	ldr	r3, [r3, #0]
 802083c:	70fb      	strb	r3, [r7, #3]
  \details Turns on I-Cache
  */
__STATIC_FORCEINLINE void SCB_EnableICache (void)
{
  #if defined (__ICACHE_PRESENT) && (__ICACHE_PRESENT == 1U)
    if (SCB->CCR & SCB_CCR_IC_Msk) return;  /* return if ICache is already enabled */
 802083e:	4b1f      	ldr	r3, [pc, #124]	; (80208bc <main+0x9c>)
 8020840:	695b      	ldr	r3, [r3, #20]
 8020842:	f403 3300 	and.w	r3, r3, #131072	; 0x20000
 8020846:	2b00      	cmp	r3, #0
 8020848:	d11b      	bne.n	8020882 <main+0x62>
  \details Acts as a special kind of Data Memory Barrier.
           It completes when all explicit memory accesses before this instruction complete.
 */
__STATIC_FORCEINLINE void __DSB(void)
{
  __ASM volatile ("dsb 0xF":::"memory");
 802084a:	f3bf 8f4f 	dsb	sy
}
 802084e:	bf00      	nop
  __ASM volatile ("isb 0xF":::"memory");
 8020850:	f3bf 8f6f 	isb	sy
}
 8020854:	bf00      	nop

    __DSB();
    __ISB();
    SCB->ICIALLU = 0UL;                     /* invalidate I-Cache */
 8020856:	4b19      	ldr	r3, [pc, #100]	; (80208bc <main+0x9c>)
 8020858:	2200      	movs	r2, #0
 802085a:	f8c3 2250 	str.w	r2, [r3, #592]	; 0x250
  __ASM volatile ("dsb 0xF":::"memory");
 802085e:	f3bf 8f4f 	dsb	sy
}
 8020862:	bf00      	nop
  __ASM volatile ("isb 0xF":::"memory");
 8020864:	f3bf 8f6f 	isb	sy
}
 8020868:	bf00      	nop
    __DSB();
    __ISB();
    SCB->CCR |=  (uint32_t)SCB_CCR_IC_Msk;  /* enable I-Cache */
 802086a:	4b14      	ldr	r3, [pc, #80]	; (80208bc <main+0x9c>)
 802086c:	695b      	ldr	r3, [r3, #20]
 802086e:	4a13      	ldr	r2, [pc, #76]	; (80208bc <main+0x9c>)
 8020870:	f443 3300 	orr.w	r3, r3, #131072	; 0x20000
 8020874:	6153      	str	r3, [r2, #20]
  __ASM volatile ("dsb 0xF":::"memory");
 8020876:	f3bf 8f4f 	dsb	sy
}
 802087a:	bf00      	nop
  __ASM volatile ("isb 0xF":::"memory");
 802087c:	f3bf 8f6f 	isb	sy
}
 8020880:	e000      	b.n	8020884 <main+0x64>
    if (SCB->CCR & SCB_CCR_IC_Msk) return;  /* return if ICache is already enabled */
 8020882:	bf00      	nop
  SCB_EnableICache();

  /* MCU Configuration--------------------------------------------------------*/

  /* Reset of all peripherals, Initializes the Flash interface and the Systick. */
  HAL_Init();
 8020884:	f000 faa8 	bl	8020dd8 <HAL_Init>

  /* MPU Configuration--------------------------------------------------------*/
  MPU_Config();
 8020888:	f000 f8b8 	bl	80209fc <MPU_Config>
  /* USER CODE BEGIN Init */

  /* USER CODE END Init */

  /* Configure the system clock */
  SystemClock_Config();
 802088c:	f000 f81a 	bl	80208c4 <SystemClock_Config>
  /* USER CODE BEGIN SysInit */

  /* USER CODE END SysInit */

  /* Initialize all configured peripherals */
  MX_GPIO_Init();
 8020890:	f7ff ff72 	bl	8020778 <MX_GPIO_Init>
  /* Infinite loop */
  /* USER CODE BEGIN WHILE */
  while (1)
  {
    /* USER CODE END WHILE */
	  HAL_GPIO_WritePin(GPIOB, LED1_Pin|LED0_Pin, GPIO_PIN_RESET);
 8020894:	2200      	movs	r2, #0
 8020896:	2103      	movs	r1, #3
 8020898:	4809      	ldr	r0, [pc, #36]	; (80208c0 <main+0xa0>)
 802089a:	f000 fe6f 	bl	802157c <HAL_GPIO_WritePin>
	  HAL_Delay(1000);
 802089e:	f44f 707a 	mov.w	r0, #1000	; 0x3e8
 80208a2:	f000 fb2b 	bl	8020efc <HAL_Delay>
	  HAL_GPIO_WritePin(GPIOB, LED1_Pin|LED0_Pin, GPIO_PIN_SET);
 80208a6:	2201      	movs	r2, #1
 80208a8:	2103      	movs	r1, #3
 80208aa:	4805      	ldr	r0, [pc, #20]	; (80208c0 <main+0xa0>)
 80208ac:	f000 fe66 	bl	802157c <HAL_GPIO_WritePin>
	  HAL_Delay(1000);
 80208b0:	f44f 707a 	mov.w	r0, #1000	; 0x3e8
 80208b4:	f000 fb22 	bl	8020efc <HAL_Delay>
	  HAL_GPIO_WritePin(GPIOB, LED1_Pin|LED0_Pin, GPIO_PIN_RESET);
 80208b8:	e7ec      	b.n	8020894 <main+0x74>
 80208ba:	bf00      	nop
 80208bc:	e000ed00 	.word	0xe000ed00
 80208c0:	58020400 	.word	0x58020400

080208c4 <SystemClock_Config>:
/**
  * @brief System Clock Configuration
  * @retval None
  */
void SystemClock_Config(void)
{
 80208c4:	b580      	push	{r7, lr}
 80208c6:	b09e      	sub	sp, #120	; 0x78
 80208c8:	af00      	add	r7, sp, #0
  RCC_OscInitTypeDef RCC_OscInitStruct = {0};
 80208ca:	f107 032c 	add.w	r3, r7, #44	; 0x2c
 80208ce:	224c      	movs	r2, #76	; 0x4c
 80208d0:	2100      	movs	r1, #0
 80208d2:	4618      	mov	r0, r3
 80208d4:	f002 fda7 	bl	8023426 <memset>
  RCC_ClkInitTypeDef RCC_ClkInitStruct = {0};
 80208d8:	f107 030c 	add.w	r3, r7, #12
 80208dc:	2220      	movs	r2, #32
 80208de:	2100      	movs	r1, #0
 80208e0:	4618      	mov	r0, r3
 80208e2:	f002 fda0 	bl	8023426 <memset>

  /** Supply configuration update enable
  */
  HAL_PWREx_ConfigSupply(PWR_LDO_SUPPLY);
 80208e6:	2002      	movs	r0, #2
 80208e8:	f000 fe62 	bl	80215b0 <HAL_PWREx_ConfigSupply>

  /** Configure the main internal regulator output voltage
  */
  __HAL_PWR_VOLTAGESCALING_CONFIG(PWR_REGULATOR_VOLTAGE_SCALE1);
 80208ec:	2300      	movs	r3, #0
 80208ee:	60bb      	str	r3, [r7, #8]
 80208f0:	4b3f      	ldr	r3, [pc, #252]	; (80209f0 <SystemClock_Config+0x12c>)
 80208f2:	6adb      	ldr	r3, [r3, #44]	; 0x2c
 80208f4:	4a3e      	ldr	r2, [pc, #248]	; (80209f0 <SystemClock_Config+0x12c>)
 80208f6:	f023 0301 	bic.w	r3, r3, #1
 80208fa:	62d3      	str	r3, [r2, #44]	; 0x2c
 80208fc:	4b3c      	ldr	r3, [pc, #240]	; (80209f0 <SystemClock_Config+0x12c>)
 80208fe:	6adb      	ldr	r3, [r3, #44]	; 0x2c
 8020900:	f003 0301 	and.w	r3, r3, #1
 8020904:	60bb      	str	r3, [r7, #8]
 8020906:	4b3b      	ldr	r3, [pc, #236]	; (80209f4 <SystemClock_Config+0x130>)
 8020908:	699b      	ldr	r3, [r3, #24]
 802090a:	4a3a      	ldr	r2, [pc, #232]	; (80209f4 <SystemClock_Config+0x130>)
 802090c:	f443 4340 	orr.w	r3, r3, #49152	; 0xc000
 8020910:	6193      	str	r3, [r2, #24]
 8020912:	4b38      	ldr	r3, [pc, #224]	; (80209f4 <SystemClock_Config+0x130>)
 8020914:	699b      	ldr	r3, [r3, #24]
 8020916:	f403 4340 	and.w	r3, r3, #49152	; 0xc000
 802091a:	60bb      	str	r3, [r7, #8]
 802091c:	68bb      	ldr	r3, [r7, #8]

  while(!__HAL_PWR_GET_FLAG(PWR_FLAG_VOSRDY)) {}
 802091e:	bf00      	nop
 8020920:	4b34      	ldr	r3, [pc, #208]	; (80209f4 <SystemClock_Config+0x130>)
 8020922:	699b      	ldr	r3, [r3, #24]
 8020924:	f403 5300 	and.w	r3, r3, #8192	; 0x2000
 8020928:	f5b3 5f00 	cmp.w	r3, #8192	; 0x2000
 802092c:	d1f8      	bne.n	8020920 <SystemClock_Config+0x5c>

  __HAL_RCC_SYSCFG_CLK_ENABLE();
 802092e:	4b32      	ldr	r3, [pc, #200]	; (80209f8 <SystemClock_Config+0x134>)
 8020930:	f8d3 30f4 	ldr.w	r3, [r3, #244]	; 0xf4
 8020934:	4a30      	ldr	r2, [pc, #192]	; (80209f8 <SystemClock_Config+0x134>)
 8020936:	f043 0302 	orr.w	r3, r3, #2
 802093a:	f8c2 30f4 	str.w	r3, [r2, #244]	; 0xf4
 802093e:	4b2e      	ldr	r3, [pc, #184]	; (80209f8 <SystemClock_Config+0x134>)
 8020940:	f8d3 30f4 	ldr.w	r3, [r3, #244]	; 0xf4
 8020944:	f003 0302 	and.w	r3, r3, #2
 8020948:	607b      	str	r3, [r7, #4]
 802094a:	687b      	ldr	r3, [r7, #4]
  __HAL_PWR_VOLTAGESCALING_CONFIG(PWR_REGULATOR_VOLTAGE_SCALE0);
 802094c:	2300      	movs	r3, #0
 802094e:	603b      	str	r3, [r7, #0]
 8020950:	4b28      	ldr	r3, [pc, #160]	; (80209f4 <SystemClock_Config+0x130>)
 8020952:	699b      	ldr	r3, [r3, #24]
 8020954:	4a27      	ldr	r2, [pc, #156]	; (80209f4 <SystemClock_Config+0x130>)
 8020956:	f443 4340 	orr.w	r3, r3, #49152	; 0xc000
 802095a:	6193      	str	r3, [r2, #24]
 802095c:	4b25      	ldr	r3, [pc, #148]	; (80209f4 <SystemClock_Config+0x130>)
 802095e:	699b      	ldr	r3, [r3, #24]
 8020960:	f403 4340 	and.w	r3, r3, #49152	; 0xc000
 8020964:	603b      	str	r3, [r7, #0]
 8020966:	4b22      	ldr	r3, [pc, #136]	; (80209f0 <SystemClock_Config+0x12c>)
 8020968:	6adb      	ldr	r3, [r3, #44]	; 0x2c
 802096a:	4a21      	ldr	r2, [pc, #132]	; (80209f0 <SystemClock_Config+0x12c>)
 802096c:	f043 0301 	orr.w	r3, r3, #1
 8020970:	62d3      	str	r3, [r2, #44]	; 0x2c
 8020972:	4b1f      	ldr	r3, [pc, #124]	; (80209f0 <SystemClock_Config+0x12c>)
 8020974:	6adb      	ldr	r3, [r3, #44]	; 0x2c
 8020976:	f003 0301 	and.w	r3, r3, #1
 802097a:	603b      	str	r3, [r7, #0]
 802097c:	683b      	ldr	r3, [r7, #0]

  while(!__HAL_PWR_GET_FLAG(PWR_FLAG_VOSRDY)) {}
 802097e:	bf00      	nop
 8020980:	4b1c      	ldr	r3, [pc, #112]	; (80209f4 <SystemClock_Config+0x130>)
 8020982:	699b      	ldr	r3, [r3, #24]
 8020984:	f403 5300 	and.w	r3, r3, #8192	; 0x2000
 8020988:	f5b3 5f00 	cmp.w	r3, #8192	; 0x2000
 802098c:	d1f8      	bne.n	8020980 <SystemClock_Config+0xbc>

  /** Initializes the RCC Oscillators according to the specified parameters
  * in the RCC_OscInitTypeDef structure.
  */
  RCC_OscInitStruct.OscillatorType = RCC_OSCILLATORTYPE_HSI;
 802098e:	2302      	movs	r3, #2
 8020990:	62fb      	str	r3, [r7, #44]	; 0x2c
  RCC_OscInitStruct.HSIState = RCC_HSI_DIV1;
 8020992:	2301      	movs	r3, #1
 8020994:	63bb      	str	r3, [r7, #56]	; 0x38
  RCC_OscInitStruct.HSICalibrationValue = RCC_HSICALIBRATION_DEFAULT;
 8020996:	2340      	movs	r3, #64	; 0x40
 8020998:	63fb      	str	r3, [r7, #60]	; 0x3c
  RCC_OscInitStruct.PLL.PLLState = RCC_PLL_NONE;
 802099a:	2300      	movs	r3, #0
 802099c:	653b      	str	r3, [r7, #80]	; 0x50
  if (HAL_RCC_OscConfig(&RCC_OscInitStruct) != HAL_OK)
 802099e:	f107 032c 	add.w	r3, r7, #44	; 0x2c
 80209a2:	4618      	mov	r0, r3
 80209a4:	f000 fe3e 	bl	8021624 <HAL_RCC_OscConfig>
 80209a8:	4603      	mov	r3, r0
 80209aa:	2b00      	cmp	r3, #0
 80209ac:	d001      	beq.n	80209b2 <SystemClock_Config+0xee>
  {
    Error_Handler();
 80209ae:	f000 f852 	bl	8020a56 <Error_Handler>
  }

  /** Initializes the CPU, AHB and APB buses clocks
  */
  RCC_ClkInitStruct.ClockType = RCC_CLOCKTYPE_HCLK|RCC_CLOCKTYPE_SYSCLK
 80209b2:	233f      	movs	r3, #63	; 0x3f
 80209b4:	60fb      	str	r3, [r7, #12]
                              |RCC_CLOCKTYPE_PCLK1|RCC_CLOCKTYPE_PCLK2
                              |RCC_CLOCKTYPE_D3PCLK1|RCC_CLOCKTYPE_D1PCLK1;
  RCC_ClkInitStruct.SYSCLKSource = RCC_SYSCLKSOURCE_HSI;
 80209b6:	2300      	movs	r3, #0
 80209b8:	613b      	str	r3, [r7, #16]
  RCC_ClkInitStruct.SYSCLKDivider = RCC_SYSCLK_DIV1;
 80209ba:	2300      	movs	r3, #0
 80209bc:	617b      	str	r3, [r7, #20]
  RCC_ClkInitStruct.AHBCLKDivider = RCC_HCLK_DIV1;
 80209be:	2300      	movs	r3, #0
 80209c0:	61bb      	str	r3, [r7, #24]
  RCC_ClkInitStruct.APB3CLKDivider = RCC_APB3_DIV1;
 80209c2:	2300      	movs	r3, #0
 80209c4:	61fb      	str	r3, [r7, #28]
  RCC_ClkInitStruct.APB1CLKDivider = RCC_APB1_DIV1;
 80209c6:	2300      	movs	r3, #0
 80209c8:	623b      	str	r3, [r7, #32]
  RCC_ClkInitStruct.APB2CLKDivider = RCC_APB2_DIV1;
 80209ca:	2300      	movs	r3, #0
 80209cc:	627b      	str	r3, [r7, #36]	; 0x24
  RCC_ClkInitStruct.APB4CLKDivider = RCC_APB4_DIV1;
 80209ce:	2300      	movs	r3, #0
 80209d0:	62bb      	str	r3, [r7, #40]	; 0x28

  if (HAL_RCC_ClockConfig(&RCC_ClkInitStruct, FLASH_LATENCY_0) != HAL_OK)
 80209d2:	f107 030c 	add.w	r3, r7, #12
 80209d6:	2100      	movs	r1, #0
 80209d8:	4618      	mov	r0, r3
 80209da:	f001 fa7d 	bl	8021ed8 <HAL_RCC_ClockConfig>
 80209de:	4603      	mov	r3, r0
 80209e0:	2b00      	cmp	r3, #0
 80209e2:	d001      	beq.n	80209e8 <SystemClock_Config+0x124>
  {
    Error_Handler();
 80209e4:	f000 f837 	bl	8020a56 <Error_Handler>
  }
}
 80209e8:	bf00      	nop
 80209ea:	3778      	adds	r7, #120	; 0x78
 80209ec:	46bd      	mov	sp, r7
 80209ee:	bd80      	pop	{r7, pc}
 80209f0:	58000400 	.word	0x58000400
 80209f4:	58024800 	.word	0x58024800
 80209f8:	58024400 	.word	0x58024400

080209fc <MPU_Config>:
/* USER CODE END 4 */

/* MPU Configuration */

void MPU_Config(void)
{
 80209fc:	b580      	push	{r7, lr}
 80209fe:	b084      	sub	sp, #16
 8020a00:	af00      	add	r7, sp, #0
  MPU_Region_InitTypeDef MPU_InitStruct = {0};
 8020a02:	463b      	mov	r3, r7
 8020a04:	2200      	movs	r2, #0
 8020a06:	601a      	str	r2, [r3, #0]
 8020a08:	605a      	str	r2, [r3, #4]
 8020a0a:	609a      	str	r2, [r3, #8]
 8020a0c:	60da      	str	r2, [r3, #12]

  /* Disables the MPU */
  HAL_MPU_Disable();
 8020a0e:	f000 fb89 	bl	8021124 <HAL_MPU_Disable>

  /** Initializes and configures the Region and the memory to be protected
  */
  MPU_InitStruct.Enable = MPU_REGION_ENABLE;
 8020a12:	2301      	movs	r3, #1
 8020a14:	703b      	strb	r3, [r7, #0]
  MPU_InitStruct.Number = MPU_REGION_NUMBER0;
 8020a16:	2300      	movs	r3, #0
 8020a18:	707b      	strb	r3, [r7, #1]
  MPU_InitStruct.BaseAddress = 0x30000000;
 8020a1a:	f04f 5340 	mov.w	r3, #805306368	; 0x30000000
 8020a1e:	607b      	str	r3, [r7, #4]
  MPU_InitStruct.Size = MPU_REGION_SIZE_256MB;
 8020a20:	231b      	movs	r3, #27
 8020a22:	723b      	strb	r3, [r7, #8]
  MPU_InitStruct.SubRegionDisable = 0;
 8020a24:	2300      	movs	r3, #0
 8020a26:	727b      	strb	r3, [r7, #9]
  MPU_InitStruct.TypeExtField = MPU_TEX_LEVEL0;
 8020a28:	2300      	movs	r3, #0
 8020a2a:	72bb      	strb	r3, [r7, #10]
  MPU_InitStruct.AccessPermission = MPU_REGION_NO_ACCESS;
 8020a2c:	2300      	movs	r3, #0
 8020a2e:	72fb      	strb	r3, [r7, #11]
  MPU_InitStruct.DisableExec = MPU_INSTRUCTION_ACCESS_DISABLE;
 8020a30:	2301      	movs	r3, #1
 8020a32:	733b      	strb	r3, [r7, #12]
  MPU_InitStruct.IsShareable = MPU_ACCESS_NOT_SHAREABLE;
 8020a34:	2300      	movs	r3, #0
 8020a36:	737b      	strb	r3, [r7, #13]
  MPU_InitStruct.IsCacheable = MPU_ACCESS_NOT_CACHEABLE;
 8020a38:	2300      	movs	r3, #0
 8020a3a:	73bb      	strb	r3, [r7, #14]
  MPU_InitStruct.IsBufferable = MPU_ACCESS_BUFFERABLE;
 8020a3c:	2301      	movs	r3, #1
 8020a3e:	73fb      	strb	r3, [r7, #15]

  HAL_MPU_ConfigRegion(&MPU_InitStruct);
 8020a40:	463b      	mov	r3, r7
 8020a42:	4618      	mov	r0, r3
 8020a44:	f000 fba6 	bl	8021194 <HAL_MPU_ConfigRegion>
  /* Enables the MPU */
  HAL_MPU_Enable(MPU_PRIVILEGED_DEFAULT);
 8020a48:	2004      	movs	r0, #4
 8020a4a:	f000 fb83 	bl	8021154 <HAL_MPU_Enable>

}
 8020a4e:	bf00      	nop
 8020a50:	3710      	adds	r7, #16
 8020a52:	46bd      	mov	sp, r7
 8020a54:	bd80      	pop	{r7, pc}

08020a56 <Error_Handler>:
/**
  * @brief  This function is executed in case of error occurrence.
  * @retval None
  */
void Error_Handler(void)
{
 8020a56:	b480      	push	{r7}
 8020a58:	af00      	add	r7, sp, #0
  __ASM volatile ("cpsid i" : : : "memory");
 8020a5a:	b672      	cpsid	i
}
 8020a5c:	bf00      	nop
  /* USER CODE BEGIN Error_Handler_Debug */
  /* User can add his own implementation to report the HAL error return state */
  __disable_irq();
  while (1)
 8020a5e:	e7fe      	b.n	8020a5e <Error_Handler+0x8>

08020a60 <HAL_MspInit>:
/* USER CODE END 0 */
/**
  * Initializes the Global MSP.
  */
void HAL_MspInit(void)
{
 8020a60:	b480      	push	{r7}
 8020a62:	b083      	sub	sp, #12
 8020a64:	af00      	add	r7, sp, #0
  /* USER CODE BEGIN MspInit 0 */

  /* USER CODE END MspInit 0 */

  __HAL_RCC_SYSCFG_CLK_ENABLE();
 8020a66:	4b0a      	ldr	r3, [pc, #40]	; (8020a90 <HAL_MspInit+0x30>)
 8020a68:	f8d3 30f4 	ldr.w	r3, [r3, #244]	; 0xf4
 8020a6c:	4a08      	ldr	r2, [pc, #32]	; (8020a90 <HAL_MspInit+0x30>)
 8020a6e:	f043 0302 	orr.w	r3, r3, #2
 8020a72:	f8c2 30f4 	str.w	r3, [r2, #244]	; 0xf4
 8020a76:	4b06      	ldr	r3, [pc, #24]	; (8020a90 <HAL_MspInit+0x30>)
 8020a78:	f8d3 30f4 	ldr.w	r3, [r3, #244]	; 0xf4
 8020a7c:	f003 0302 	and.w	r3, r3, #2
 8020a80:	607b      	str	r3, [r7, #4]
 8020a82:	687b      	ldr	r3, [r7, #4]
  /* System interrupt init*/

  /* USER CODE BEGIN MspInit 1 */

  /* USER CODE END MspInit 1 */
}
 8020a84:	bf00      	nop
 8020a86:	370c      	adds	r7, #12
 8020a88:	46bd      	mov	sp, r7
 8020a8a:	f85d 7b04 	ldr.w	r7, [sp], #4
 8020a8e:	4770      	bx	lr
 8020a90:	58024400 	.word	0x58024400

08020a94 <NMI_Handler>:
/******************************************************************************/
/**
  * @brief This function handles Non maskable interrupt.
  */
void NMI_Handler(void)
{
 8020a94:	b480      	push	{r7}
 8020a96:	af00      	add	r7, sp, #0
  /* USER CODE BEGIN NonMaskableInt_IRQn 0 */

  /* USER CODE END NonMaskableInt_IRQn 0 */
  /* USER CODE BEGIN NonMaskableInt_IRQn 1 */
  while (1)
 8020a98:	e7fe      	b.n	8020a98 <NMI_Handler+0x4>

08020a9a <HardFault_Handler>:

/**
  * @brief This function handles Hard fault interrupt.
  */
void HardFault_Handler(void)
{
 8020a9a:	b480      	push	{r7}
 8020a9c:	af00      	add	r7, sp, #0
  /* USER CODE BEGIN HardFault_IRQn 0 */

  /* USER CODE END HardFault_IRQn 0 */
  while (1)
 8020a9e:	e7fe      	b.n	8020a9e <HardFault_Handler+0x4>

08020aa0 <MemManage_Handler>:

/**
  * @brief This function handles Memory management fault.
  */
void MemManage_Handler(void)
{
 8020aa0:	b480      	push	{r7}
 8020aa2:	af00      	add	r7, sp, #0
  /* USER CODE BEGIN MemoryManagement_IRQn 0 */

  /* USER CODE END MemoryManagement_IRQn 0 */
  while (1)
 8020aa4:	e7fe      	b.n	8020aa4 <MemManage_Handler+0x4>

08020aa6 <BusFault_Handler>:

/**
  * @brief This function handles Pre-fetch fault, memory access fault.
  */
void BusFault_Handler(void)
{
 8020aa6:	b480      	push	{r7}
 8020aa8:	af00      	add	r7, sp, #0
  /* USER CODE BEGIN BusFault_IRQn 0 */

  /* USER CODE END BusFault_IRQn 0 */
  while (1)
 8020aaa:	e7fe      	b.n	8020aaa <BusFault_Handler+0x4>

08020aac <UsageFault_Handler>:

/**
  * @brief This function handles Undefined instruction or illegal state.
  */
void UsageFault_Handler(void)
{
 8020aac:	b480      	push	{r7}
 8020aae:	af00      	add	r7, sp, #0
  /* USER CODE BEGIN UsageFault_IRQn 0 */

  /* USER CODE END UsageFault_IRQn 0 */
  while (1)
 8020ab0:	e7fe      	b.n	8020ab0 <UsageFault_Handler+0x4>

08020ab2 <SVC_Handler>:

/**
  * @brief This function handles System service call via SWI instruction.
  */
void SVC_Handler(void)
{
 8020ab2:	b480      	push	{r7}
 8020ab4:	af00      	add	r7, sp, #0

  /* USER CODE END SVCall_IRQn 0 */
  /* USER CODE BEGIN SVCall_IRQn 1 */

  /* USER CODE END SVCall_IRQn 1 */
}
 8020ab6:	bf00      	nop
 8020ab8:	46bd      	mov	sp, r7
 8020aba:	f85d 7b04 	ldr.w	r7, [sp], #4
 8020abe:	4770      	bx	lr

08020ac0 <DebugMon_Handler>:

/**
  * @brief This function handles Debug monitor.
  */
void DebugMon_Handler(void)
{
 8020ac0:	b480      	push	{r7}
 8020ac2:	af00      	add	r7, sp, #0

  /* USER CODE END DebugMonitor_IRQn 0 */
  /* USER CODE BEGIN DebugMonitor_IRQn 1 */

  /* USER CODE END DebugMonitor_IRQn 1 */
}
 8020ac4:	bf00      	nop
 8020ac6:	46bd      	mov	sp, r7
 8020ac8:	f85d 7b04 	ldr.w	r7, [sp], #4
 8020acc:	4770      	bx	lr

08020ace <PendSV_Handler>:

/**
  * @brief This function handles Pendable request for system service.
  */
void PendSV_Handler(void)
{
 8020ace:	b480      	push	{r7}
 8020ad0:	af00      	add	r7, sp, #0

  /* USER CODE END PendSV_IRQn 0 */
  /* USER CODE BEGIN PendSV_IRQn 1 */

  /* USER CODE END PendSV_IRQn 1 */
}
 8020ad2:	bf00      	nop
 8020ad4:	46bd      	mov	sp, r7
 8020ad6:	f85d 7b04 	ldr.w	r7, [sp], #4
 8020ada:	4770      	bx	lr

08020adc <SysTick_Handler>:

/**
  * @brief This function handles System tick timer.
  */
void SysTick_Handler(void)
{
 8020adc:	b580      	push	{r7, lr}
 8020ade:	af00      	add	r7, sp, #0
  /* USER CODE BEGIN SysTick_IRQn 0 */

  /* USER CODE END SysTick_IRQn 0 */
  HAL_IncTick();
 8020ae0:	f000 f9ec 	bl	8020ebc <HAL_IncTick>
  /* USER CODE BEGIN SysTick_IRQn 1 */

  /* USER CODE END SysTick_IRQn 1 */
}
 8020ae4:	bf00      	nop
 8020ae6:	bd80      	pop	{r7, pc}

08020ae8 <_getpid>:
void initialise_monitor_handles()
{
}

int _getpid(void)
{
 8020ae8:	b480      	push	{r7}
 8020aea:	af00      	add	r7, sp, #0
  return 1;
 8020aec:	2301      	movs	r3, #1
}
 8020aee:	4618      	mov	r0, r3
 8020af0:	46bd      	mov	sp, r7
 8020af2:	f85d 7b04 	ldr.w	r7, [sp], #4
 8020af6:	4770      	bx	lr

08020af8 <_kill>:

int _kill(int pid, int sig)
{
 8020af8:	b580      	push	{r7, lr}
 8020afa:	b082      	sub	sp, #8
 8020afc:	af00      	add	r7, sp, #0
 8020afe:	6078      	str	r0, [r7, #4]
 8020b00:	6039      	str	r1, [r7, #0]
  (void)pid;
  (void)sig;
  errno = EINVAL;
 8020b02:	f002 fce3 	bl	80234cc <__errno>
 8020b06:	4603      	mov	r3, r0
 8020b08:	2216      	movs	r2, #22
 8020b0a:	601a      	str	r2, [r3, #0]
  return -1;
 8020b0c:	f04f 33ff 	mov.w	r3, #4294967295
}
 8020b10:	4618      	mov	r0, r3
 8020b12:	3708      	adds	r7, #8
 8020b14:	46bd      	mov	sp, r7
 8020b16:	bd80      	pop	{r7, pc}

08020b18 <_exit>:

void _exit (int status)
{
 8020b18:	b580      	push	{r7, lr}
 8020b1a:	b082      	sub	sp, #8
 8020b1c:	af00      	add	r7, sp, #0
 8020b1e:	6078      	str	r0, [r7, #4]
  _kill(status, -1);
 8020b20:	f04f 31ff 	mov.w	r1, #4294967295
 8020b24:	6878      	ldr	r0, [r7, #4]
 8020b26:	f7ff ffe7 	bl	8020af8 <_kill>
  while (1) {}    /* Make sure we hang here */
 8020b2a:	e7fe      	b.n	8020b2a <_exit+0x12>

08020b2c <_read>:
}

__attribute__((weak)) int _read(int file, char *ptr, int len)
{
 8020b2c:	b580      	push	{r7, lr}
 8020b2e:	b086      	sub	sp, #24
 8020b30:	af00      	add	r7, sp, #0
 8020b32:	60f8      	str	r0, [r7, #12]
 8020b34:	60b9      	str	r1, [r7, #8]
 8020b36:	607a      	str	r2, [r7, #4]
  (void)file;
  int DataIdx;

  for (DataIdx = 0; DataIdx < len; DataIdx++)
 8020b38:	2300      	movs	r3, #0
 8020b3a:	617b      	str	r3, [r7, #20]
 8020b3c:	e00a      	b.n	8020b54 <_read+0x28>
  {
    *ptr++ = __io_getchar();
 8020b3e:	f3af 8000 	nop.w
 8020b42:	4601      	mov	r1, r0
 8020b44:	68bb      	ldr	r3, [r7, #8]
 8020b46:	1c5a      	adds	r2, r3, #1
 8020b48:	60ba      	str	r2, [r7, #8]
 8020b4a:	b2ca      	uxtb	r2, r1
 8020b4c:	701a      	strb	r2, [r3, #0]
  for (DataIdx = 0; DataIdx < len; DataIdx++)
 8020b4e:	697b      	ldr	r3, [r7, #20]
 8020b50:	3301      	adds	r3, #1
 8020b52:	617b      	str	r3, [r7, #20]
 8020b54:	697a      	ldr	r2, [r7, #20]
 8020b56:	687b      	ldr	r3, [r7, #4]
 8020b58:	429a      	cmp	r2, r3
 8020b5a:	dbf0      	blt.n	8020b3e <_read+0x12>
  }

  return len;
 8020b5c:	687b      	ldr	r3, [r7, #4]
}
 8020b5e:	4618      	mov	r0, r3
 8020b60:	3718      	adds	r7, #24
 8020b62:	46bd      	mov	sp, r7
 8020b64:	bd80      	pop	{r7, pc}

08020b66 <_write>:

__attribute__((weak)) int _write(int file, char *ptr, int len)
{
 8020b66:	b580      	push	{r7, lr}
 8020b68:	b086      	sub	sp, #24
 8020b6a:	af00      	add	r7, sp, #0
 8020b6c:	60f8      	str	r0, [r7, #12]
 8020b6e:	60b9      	str	r1, [r7, #8]
 8020b70:	607a      	str	r2, [r7, #4]
  (void)file;
  int DataIdx;

  for (DataIdx = 0; DataIdx < len; DataIdx++)
 8020b72:	2300      	movs	r3, #0
 8020b74:	617b      	str	r3, [r7, #20]
 8020b76:	e009      	b.n	8020b8c <_write+0x26>
  {
    __io_putchar(*ptr++);
 8020b78:	68bb      	ldr	r3, [r7, #8]
 8020b7a:	1c5a      	adds	r2, r3, #1
 8020b7c:	60ba      	str	r2, [r7, #8]
 8020b7e:	781b      	ldrb	r3, [r3, #0]
 8020b80:	4618      	mov	r0, r3
 8020b82:	f3af 8000 	nop.w
  for (DataIdx = 0; DataIdx < len; DataIdx++)
 8020b86:	697b      	ldr	r3, [r7, #20]
 8020b88:	3301      	adds	r3, #1
 8020b8a:	617b      	str	r3, [r7, #20]
 8020b8c:	697a      	ldr	r2, [r7, #20]
 8020b8e:	687b      	ldr	r3, [r7, #4]
 8020b90:	429a      	cmp	r2, r3
 8020b92:	dbf1      	blt.n	8020b78 <_write+0x12>
  }
  return len;
 8020b94:	687b      	ldr	r3, [r7, #4]
}
 8020b96:	4618      	mov	r0, r3
 8020b98:	3718      	adds	r7, #24
 8020b9a:	46bd      	mov	sp, r7
 8020b9c:	bd80      	pop	{r7, pc}

08020b9e <_close>:

int _close(int file)
{
 8020b9e:	b480      	push	{r7}
 8020ba0:	b083      	sub	sp, #12
 8020ba2:	af00      	add	r7, sp, #0
 8020ba4:	6078      	str	r0, [r7, #4]
  (void)file;
  return -1;
 8020ba6:	f04f 33ff 	mov.w	r3, #4294967295
}
 8020baa:	4618      	mov	r0, r3
 8020bac:	370c      	adds	r7, #12
 8020bae:	46bd      	mov	sp, r7
 8020bb0:	f85d 7b04 	ldr.w	r7, [sp], #4
 8020bb4:	4770      	bx	lr

08020bb6 <_fstat>:


int _fstat(int file, struct stat *st)
{
 8020bb6:	b480      	push	{r7}
 8020bb8:	b083      	sub	sp, #12
 8020bba:	af00      	add	r7, sp, #0
 8020bbc:	6078      	str	r0, [r7, #4]
 8020bbe:	6039      	str	r1, [r7, #0]
  (void)file;
  st->st_mode = S_IFCHR;
 8020bc0:	683b      	ldr	r3, [r7, #0]
 8020bc2:	f44f 5200 	mov.w	r2, #8192	; 0x2000
 8020bc6:	605a      	str	r2, [r3, #4]
  return 0;
 8020bc8:	2300      	movs	r3, #0
}
 8020bca:	4618      	mov	r0, r3
 8020bcc:	370c      	adds	r7, #12
 8020bce:	46bd      	mov	sp, r7
 8020bd0:	f85d 7b04 	ldr.w	r7, [sp], #4
 8020bd4:	4770      	bx	lr

08020bd6 <_isatty>:

int _isatty(int file)
{
 8020bd6:	b480      	push	{r7}
 8020bd8:	b083      	sub	sp, #12
 8020bda:	af00      	add	r7, sp, #0
 8020bdc:	6078      	str	r0, [r7, #4]
  (void)file;
  return 1;
 8020bde:	2301      	movs	r3, #1
}
 8020be0:	4618      	mov	r0, r3
 8020be2:	370c      	adds	r7, #12
 8020be4:	46bd      	mov	sp, r7
 8020be6:	f85d 7b04 	ldr.w	r7, [sp], #4
 8020bea:	4770      	bx	lr

08020bec <_lseek>:

int _lseek(int file, int ptr, int dir)
{
 8020bec:	b480      	push	{r7}
 8020bee:	b085      	sub	sp, #20
 8020bf0:	af00      	add	r7, sp, #0
 8020bf2:	60f8      	str	r0, [r7, #12]
 8020bf4:	60b9      	str	r1, [r7, #8]
 8020bf6:	607a      	str	r2, [r7, #4]
  (void)file;
  (void)ptr;
  (void)dir;
  return 0;
 8020bf8:	2300      	movs	r3, #0
}
 8020bfa:	4618      	mov	r0, r3
 8020bfc:	3714      	adds	r7, #20
 8020bfe:	46bd      	mov	sp, r7
 8020c00:	f85d 7b04 	ldr.w	r7, [sp], #4
 8020c04:	4770      	bx	lr
	...

08020c08 <_sbrk>:
 *
 * @param incr Memory size
 * @return Pointer to allocated memory
 */
void *_sbrk(ptrdiff_t incr)
{
 8020c08:	b580      	push	{r7, lr}
 8020c0a:	b086      	sub	sp, #24
 8020c0c:	af00      	add	r7, sp, #0
 8020c0e:	6078      	str	r0, [r7, #4]
  extern uint8_t _end; /* Symbol defined in the linker script */
  extern uint8_t _estack; /* Symbol defined in the linker script */
  extern uint32_t _Min_Stack_Size; /* Symbol defined in the linker script */
  const uint32_t stack_limit = (uint32_t)&_estack - (uint32_t)&_Min_Stack_Size;
 8020c10:	4a14      	ldr	r2, [pc, #80]	; (8020c64 <_sbrk+0x5c>)
 8020c12:	4b15      	ldr	r3, [pc, #84]	; (8020c68 <_sbrk+0x60>)
 8020c14:	1ad3      	subs	r3, r2, r3
 8020c16:	617b      	str	r3, [r7, #20]
  const uint8_t *max_heap = (uint8_t *)stack_limit;
 8020c18:	697b      	ldr	r3, [r7, #20]
 8020c1a:	613b      	str	r3, [r7, #16]
  uint8_t *prev_heap_end;

  /* Initialize heap end at first call */
  if (NULL == __sbrk_heap_end)
 8020c1c:	4b13      	ldr	r3, [pc, #76]	; (8020c6c <_sbrk+0x64>)
 8020c1e:	681b      	ldr	r3, [r3, #0]
 8020c20:	2b00      	cmp	r3, #0
 8020c22:	d102      	bne.n	8020c2a <_sbrk+0x22>
  {
    __sbrk_heap_end = &_end;
 8020c24:	4b11      	ldr	r3, [pc, #68]	; (8020c6c <_sbrk+0x64>)
 8020c26:	4a12      	ldr	r2, [pc, #72]	; (8020c70 <_sbrk+0x68>)
 8020c28:	601a      	str	r2, [r3, #0]
  }

  /* Protect heap from growing into the reserved MSP stack */
  if (__sbrk_heap_end + incr > max_heap)
 8020c2a:	4b10      	ldr	r3, [pc, #64]	; (8020c6c <_sbrk+0x64>)
 8020c2c:	681a      	ldr	r2, [r3, #0]
 8020c2e:	687b      	ldr	r3, [r7, #4]
 8020c30:	4413      	add	r3, r2
 8020c32:	693a      	ldr	r2, [r7, #16]
 8020c34:	429a      	cmp	r2, r3
 8020c36:	d207      	bcs.n	8020c48 <_sbrk+0x40>
  {
    errno = ENOMEM;
 8020c38:	f002 fc48 	bl	80234cc <__errno>
 8020c3c:	4603      	mov	r3, r0
 8020c3e:	220c      	movs	r2, #12
 8020c40:	601a      	str	r2, [r3, #0]
    return (void *)-1;
 8020c42:	f04f 33ff 	mov.w	r3, #4294967295
 8020c46:	e009      	b.n	8020c5c <_sbrk+0x54>
  }

  prev_heap_end = __sbrk_heap_end;
 8020c48:	4b08      	ldr	r3, [pc, #32]	; (8020c6c <_sbrk+0x64>)
 8020c4a:	681b      	ldr	r3, [r3, #0]
 8020c4c:	60fb      	str	r3, [r7, #12]
  __sbrk_heap_end += incr;
 8020c4e:	4b07      	ldr	r3, [pc, #28]	; (8020c6c <_sbrk+0x64>)
 8020c50:	681a      	ldr	r2, [r3, #0]
 8020c52:	687b      	ldr	r3, [r7, #4]
 8020c54:	4413      	add	r3, r2
 8020c56:	4a05      	ldr	r2, [pc, #20]	; (8020c6c <_sbrk+0x64>)
 8020c58:	6013      	str	r3, [r2, #0]

  return (void *)prev_heap_end;
 8020c5a:	68fb      	ldr	r3, [r7, #12]
}
 8020c5c:	4618      	mov	r0, r3
 8020c5e:	3718      	adds	r7, #24
 8020c60:	46bd      	mov	sp, r7
 8020c62:	bd80      	pop	{r7, pc}
 8020c64:	24080000 	.word	0x24080000
 8020c68:	00000400 	.word	0x00000400
 8020c6c:	240001f4 	.word	0x240001f4
 8020c70:	24000348 	.word	0x24000348

08020c74 <SystemInit>:
  *         configuration.
  * @param  None
  * @retval None
  */
void SystemInit (void)
{
 8020c74:	b480      	push	{r7}
 8020c76:	af00      	add	r7, sp, #0
 __IO uint32_t tmpreg;
#endif /* DATA_IN_D2_SRAM */

  /* FPU settings ------------------------------------------------------------*/
  #if (__FPU_PRESENT == 1) && (__FPU_USED == 1)
    SCB->CPACR |= ((3UL << (10*2))|(3UL << (11*2)));  /* set CP10 and CP11 Full Access */
 8020c78:	4b37      	ldr	r3, [pc, #220]	; (8020d58 <SystemInit+0xe4>)
 8020c7a:	f8d3 3088 	ldr.w	r3, [r3, #136]	; 0x88
 8020c7e:	4a36      	ldr	r2, [pc, #216]	; (8020d58 <SystemInit+0xe4>)
 8020c80:	f443 0370 	orr.w	r3, r3, #15728640	; 0xf00000
 8020c84:	f8c2 3088 	str.w	r3, [r2, #136]	; 0x88
  #endif
  /* Reset the RCC clock configuration to the default reset state ------------*/

   /* Increasing the CPU frequency */
  if(FLASH_LATENCY_DEFAULT  > (READ_BIT((FLASH->ACR), FLASH_ACR_LATENCY)))
 8020c88:	4b34      	ldr	r3, [pc, #208]	; (8020d5c <SystemInit+0xe8>)
 8020c8a:	681b      	ldr	r3, [r3, #0]
 8020c8c:	f003 030f 	and.w	r3, r3, #15
 8020c90:	2b06      	cmp	r3, #6
 8020c92:	d807      	bhi.n	8020ca4 <SystemInit+0x30>
  {
    /* Program the new number of wait states to the LATENCY bits in the FLASH_ACR register */
    MODIFY_REG(FLASH->ACR, FLASH_ACR_LATENCY, (uint32_t)(FLASH_LATENCY_DEFAULT));
 8020c94:	4b31      	ldr	r3, [pc, #196]	; (8020d5c <SystemInit+0xe8>)
 8020c96:	681b      	ldr	r3, [r3, #0]
 8020c98:	f023 030f 	bic.w	r3, r3, #15
 8020c9c:	4a2f      	ldr	r2, [pc, #188]	; (8020d5c <SystemInit+0xe8>)
 8020c9e:	f043 0307 	orr.w	r3, r3, #7
 8020ca2:	6013      	str	r3, [r2, #0]
  }

  /* Set HSION bit */
  RCC->CR |= RCC_CR_HSION;
 8020ca4:	4b2e      	ldr	r3, [pc, #184]	; (8020d60 <SystemInit+0xec>)
 8020ca6:	681b      	ldr	r3, [r3, #0]
 8020ca8:	4a2d      	ldr	r2, [pc, #180]	; (8020d60 <SystemInit+0xec>)
 8020caa:	f043 0301 	orr.w	r3, r3, #1
 8020cae:	6013      	str	r3, [r2, #0]

  /* Reset CFGR register */
  RCC->CFGR = 0x00000000;
 8020cb0:	4b2b      	ldr	r3, [pc, #172]	; (8020d60 <SystemInit+0xec>)
 8020cb2:	2200      	movs	r2, #0
 8020cb4:	611a      	str	r2, [r3, #16]

  /* Reset HSEON, HSECSSON, CSION, HSI48ON, CSIKERON, PLL1ON, PLL2ON and PLL3ON bits */
  RCC->CR &= 0xEAF6ED7FU;
 8020cb6:	4b2a      	ldr	r3, [pc, #168]	; (8020d60 <SystemInit+0xec>)
 8020cb8:	681a      	ldr	r2, [r3, #0]
 8020cba:	4929      	ldr	r1, [pc, #164]	; (8020d60 <SystemInit+0xec>)
 8020cbc:	4b29      	ldr	r3, [pc, #164]	; (8020d64 <SystemInit+0xf0>)
 8020cbe:	4013      	ands	r3, r2
 8020cc0:	600b      	str	r3, [r1, #0]

   /* Decreasing the number of wait states because of lower CPU frequency */
  if(FLASH_LATENCY_DEFAULT  < (READ_BIT((FLASH->ACR), FLASH_ACR_LATENCY)))
 8020cc2:	4b26      	ldr	r3, [pc, #152]	; (8020d5c <SystemInit+0xe8>)
 8020cc4:	681b      	ldr	r3, [r3, #0]
 8020cc6:	f003 0308 	and.w	r3, r3, #8
 8020cca:	2b00      	cmp	r3, #0
 8020ccc:	d007      	beq.n	8020cde <SystemInit+0x6a>
  {
    /* Program the new number of wait states to the LATENCY bits in the FLASH_ACR register */
    MODIFY_REG(FLASH->ACR, FLASH_ACR_LATENCY, (uint32_t)(FLASH_LATENCY_DEFAULT));
 8020cce:	4b23      	ldr	r3, [pc, #140]	; (8020d5c <SystemInit+0xe8>)
 8020cd0:	681b      	ldr	r3, [r3, #0]
 8020cd2:	f023 030f 	bic.w	r3, r3, #15
 8020cd6:	4a21      	ldr	r2, [pc, #132]	; (8020d5c <SystemInit+0xe8>)
 8020cd8:	f043 0307 	orr.w	r3, r3, #7
 8020cdc:	6013      	str	r3, [r2, #0]
  }

#if defined(D3_SRAM_BASE)
  /* Reset D1CFGR register */
  RCC->D1CFGR = 0x00000000;
 8020cde:	4b20      	ldr	r3, [pc, #128]	; (8020d60 <SystemInit+0xec>)
 8020ce0:	2200      	movs	r2, #0
 8020ce2:	619a      	str	r2, [r3, #24]

  /* Reset D2CFGR register */
  RCC->D2CFGR = 0x00000000;
 8020ce4:	4b1e      	ldr	r3, [pc, #120]	; (8020d60 <SystemInit+0xec>)
 8020ce6:	2200      	movs	r2, #0
 8020ce8:	61da      	str	r2, [r3, #28]

  /* Reset D3CFGR register */
  RCC->D3CFGR = 0x00000000;
 8020cea:	4b1d      	ldr	r3, [pc, #116]	; (8020d60 <SystemInit+0xec>)
 8020cec:	2200      	movs	r2, #0
 8020cee:	621a      	str	r2, [r3, #32]

  /* Reset SRDCFGR register */
  RCC->SRDCFGR = 0x00000000;
#endif
  /* Reset PLLCKSELR register */
  RCC->PLLCKSELR = 0x02020200;
 8020cf0:	4b1b      	ldr	r3, [pc, #108]	; (8020d60 <SystemInit+0xec>)
 8020cf2:	4a1d      	ldr	r2, [pc, #116]	; (8020d68 <SystemInit+0xf4>)
 8020cf4:	629a      	str	r2, [r3, #40]	; 0x28

  /* Reset PLLCFGR register */
  RCC->PLLCFGR = 0x01FF0000;
 8020cf6:	4b1a      	ldr	r3, [pc, #104]	; (8020d60 <SystemInit+0xec>)
 8020cf8:	4a1c      	ldr	r2, [pc, #112]	; (8020d6c <SystemInit+0xf8>)
 8020cfa:	62da      	str	r2, [r3, #44]	; 0x2c
  /* Reset PLL1DIVR register */
  RCC->PLL1DIVR = 0x01010280;
 8020cfc:	4b18      	ldr	r3, [pc, #96]	; (8020d60 <SystemInit+0xec>)
 8020cfe:	4a1c      	ldr	r2, [pc, #112]	; (8020d70 <SystemInit+0xfc>)
 8020d00:	631a      	str	r2, [r3, #48]	; 0x30
  /* Reset PLL1FRACR register */
  RCC->PLL1FRACR = 0x00000000;
 8020d02:	4b17      	ldr	r3, [pc, #92]	; (8020d60 <SystemInit+0xec>)
 8020d04:	2200      	movs	r2, #0
 8020d06:	635a      	str	r2, [r3, #52]	; 0x34

  /* Reset PLL2DIVR register */
  RCC->PLL2DIVR = 0x01010280;
 8020d08:	4b15      	ldr	r3, [pc, #84]	; (8020d60 <SystemInit+0xec>)
 8020d0a:	4a19      	ldr	r2, [pc, #100]	; (8020d70 <SystemInit+0xfc>)
 8020d0c:	639a      	str	r2, [r3, #56]	; 0x38

  /* Reset PLL2FRACR register */

  RCC->PLL2FRACR = 0x00000000;
 8020d0e:	4b14      	ldr	r3, [pc, #80]	; (8020d60 <SystemInit+0xec>)
 8020d10:	2200      	movs	r2, #0
 8020d12:	63da      	str	r2, [r3, #60]	; 0x3c
  /* Reset PLL3DIVR register */
  RCC->PLL3DIVR = 0x01010280;
 8020d14:	4b12      	ldr	r3, [pc, #72]	; (8020d60 <SystemInit+0xec>)
 8020d16:	4a16      	ldr	r2, [pc, #88]	; (8020d70 <SystemInit+0xfc>)
 8020d18:	641a      	str	r2, [r3, #64]	; 0x40

  /* Reset PLL3FRACR register */
  RCC->PLL3FRACR = 0x00000000;
 8020d1a:	4b11      	ldr	r3, [pc, #68]	; (8020d60 <SystemInit+0xec>)
 8020d1c:	2200      	movs	r2, #0
 8020d1e:	645a      	str	r2, [r3, #68]	; 0x44

  /* Reset HSEBYP bit */
  RCC->CR &= 0xFFFBFFFFU;
 8020d20:	4b0f      	ldr	r3, [pc, #60]	; (8020d60 <SystemInit+0xec>)
 8020d22:	681b      	ldr	r3, [r3, #0]
 8020d24:	4a0e      	ldr	r2, [pc, #56]	; (8020d60 <SystemInit+0xec>)
 8020d26:	f423 2380 	bic.w	r3, r3, #262144	; 0x40000
 8020d2a:	6013      	str	r3, [r2, #0]

  /* Disable all interrupts */
  RCC->CIER = 0x00000000;
 8020d2c:	4b0c      	ldr	r3, [pc, #48]	; (8020d60 <SystemInit+0xec>)
 8020d2e:	2200      	movs	r2, #0
 8020d30:	661a      	str	r2, [r3, #96]	; 0x60

#if (STM32H7_DEV_ID == 0x450UL)
  /* dual core CM7 or single core line */
  if((DBGMCU->IDCODE & 0xFFFF0000U) < 0x20000000U)
 8020d32:	4b10      	ldr	r3, [pc, #64]	; (8020d74 <SystemInit+0x100>)
 8020d34:	681a      	ldr	r2, [r3, #0]
 8020d36:	4b10      	ldr	r3, [pc, #64]	; (8020d78 <SystemInit+0x104>)
 8020d38:	4013      	ands	r3, r2
 8020d3a:	f1b3 5f00 	cmp.w	r3, #536870912	; 0x20000000
 8020d3e:	d202      	bcs.n	8020d46 <SystemInit+0xd2>
  {
    /* if stm32h7 revY*/
    /* Change  the switch matrix read issuing capability to 1 for the AXI SRAM target (Target 7) */
    *((__IO uint32_t*)0x51008108) = 0x000000001U;
 8020d40:	4b0e      	ldr	r3, [pc, #56]	; (8020d7c <SystemInit+0x108>)
 8020d42:	2201      	movs	r2, #1
 8020d44:	601a      	str	r2, [r3, #0]
  /*
   * Disable the FMC bank1 (enabled after reset).
   * This, prevents CPU speculation access on this bank which blocks the use of FMC during
   * 24us. During this time the others FMC master (such as LTDC) cannot use it!
   */
  FMC_Bank1_R->BTCR[0] = 0x000030D2;
 8020d46:	4b0e      	ldr	r3, [pc, #56]	; (8020d80 <SystemInit+0x10c>)
 8020d48:	f243 02d2 	movw	r2, #12498	; 0x30d2
 8020d4c:	601a      	str	r2, [r3, #0]
#if defined(USER_VECT_TAB_ADDRESS)
  SCB->VTOR = VECT_TAB_BASE_ADDRESS | VECT_TAB_OFFSET; /* Vector Table Relocation in Internal D1 AXI-RAM or in Internal FLASH */
#endif /* USER_VECT_TAB_ADDRESS */

#endif /*DUAL_CORE && CORE_CM4*/
}
 8020d4e:	bf00      	nop
 8020d50:	46bd      	mov	sp, r7
 8020d52:	f85d 7b04 	ldr.w	r7, [sp], #4
 8020d56:	4770      	bx	lr
 8020d58:	e000ed00 	.word	0xe000ed00
 8020d5c:	52002000 	.word	0x52002000
 8020d60:	58024400 	.word	0x58024400
 8020d64:	eaf6ed7f 	.word	0xeaf6ed7f
 8020d68:	02020200 	.word	0x02020200
 8020d6c:	01ff0000 	.word	0x01ff0000
 8020d70:	01010280 	.word	0x01010280
 8020d74:	5c001000 	.word	0x5c001000
 8020d78:	ffff0000 	.word	0xffff0000
 8020d7c:	51008108 	.word	0x51008108
 8020d80:	52004000 	.word	0x52004000

08020d84 <Reset_Handler>:

    .section  .text.Reset_Handler
  .weak  Reset_Handler
  .type  Reset_Handler, %function
Reset_Handler:
  ldr   sp, =_estack      /* set stack pointer */
 8020d84:	f8df d034 	ldr.w	sp, [pc, #52]	; 8020dbc <LoopFillZerobss+0xe>

/* Call the clock system initialization function.*/
  bl  SystemInit
 8020d88:	f7ff ff74 	bl	8020c74 <SystemInit>

/* Copy the data segment initializers from flash to SRAM */
  ldr r0, =_sdata
 8020d8c:	480c      	ldr	r0, [pc, #48]	; (8020dc0 <LoopFillZerobss+0x12>)
  ldr r1, =_edata
 8020d8e:	490d      	ldr	r1, [pc, #52]	; (8020dc4 <LoopFillZerobss+0x16>)
  ldr r2, =_sidata
 8020d90:	4a0d      	ldr	r2, [pc, #52]	; (8020dc8 <LoopFillZerobss+0x1a>)
  movs r3, #0
 8020d92:	2300      	movs	r3, #0
  b LoopCopyDataInit
 8020d94:	e002      	b.n	8020d9c <LoopCopyDataInit>

08020d96 <CopyDataInit>:

CopyDataInit:
  ldr r4, [r2, r3]
 8020d96:	58d4      	ldr	r4, [r2, r3]
  str r4, [r0, r3]
 8020d98:	50c4      	str	r4, [r0, r3]
  adds r3, r3, #4
 8020d9a:	3304      	adds	r3, #4

08020d9c <LoopCopyDataInit>:

LoopCopyDataInit:
  adds r4, r0, r3
 8020d9c:	18c4      	adds	r4, r0, r3
  cmp r4, r1
 8020d9e:	428c      	cmp	r4, r1
  bcc CopyDataInit
 8020da0:	d3f9      	bcc.n	8020d96 <CopyDataInit>
/* Zero fill the bss segment. */
  ldr r2, =_sbss
 8020da2:	4a0a      	ldr	r2, [pc, #40]	; (8020dcc <LoopFillZerobss+0x1e>)
  ldr r4, =_ebss
 8020da4:	4c0a      	ldr	r4, [pc, #40]	; (8020dd0 <LoopFillZerobss+0x22>)
  movs r3, #0
 8020da6:	2300      	movs	r3, #0
  b LoopFillZerobss
 8020da8:	e001      	b.n	8020dae <LoopFillZerobss>

08020daa <FillZerobss>:

FillZerobss:
  str  r3, [r2]
 8020daa:	6013      	str	r3, [r2, #0]
  adds r2, r2, #4
 8020dac:	3204      	adds	r2, #4

08020dae <LoopFillZerobss>:

LoopFillZerobss:
  cmp r2, r4
 8020dae:	42a2      	cmp	r2, r4
  bcc FillZerobss
 8020db0:	d3fb      	bcc.n	8020daa <FillZerobss>

/* Call static constructors */
    bl __libc_init_array
 8020db2:	f002 fb91 	bl	80234d8 <__libc_init_array>
/* Call the application's entry point.*/
  bl  main
 8020db6:	f7ff fd33 	bl	8020820 <main>
  bx  lr
 8020dba:	4770      	bx	lr
  ldr   sp, =_estack      /* set stack pointer */
 8020dbc:	24080000 	.word	0x24080000
  ldr r0, =_sdata
 8020dc0:	24000000 	.word	0x24000000
  ldr r1, =_edata
 8020dc4:	240001d8 	.word	0x240001d8
  ldr r2, =_sidata
 8020dc8:	08026f60 	.word	0x08026f60
  ldr r2, =_sbss
 8020dcc:	240001d8 	.word	0x240001d8
  ldr r4, =_ebss
 8020dd0:	24000348 	.word	0x24000348

08020dd4 <ADC3_IRQHandler>:
 * @retval None
*/
    .section  .text.Default_Handler,"ax",%progbits
Default_Handler:
Infinite_Loop:
  b  Infinite_Loop
 8020dd4:	e7fe      	b.n	8020dd4 <ADC3_IRQHandler>
	...

08020dd8 <HAL_Init>:
  *         need to ensure that the SysTick time base is always set to 1 millisecond
  *         to have correct HAL operation.
  * @retval HAL status
  */
HAL_StatusTypeDef HAL_Init(void)
{
 8020dd8:	b580      	push	{r7, lr}
 8020dda:	b082      	sub	sp, #8
 8020ddc:	af00      	add	r7, sp, #0
   __HAL_ART_CONFIG_BASE_ADDRESS(0x08100000UL);  /* Configure the Cortex-M4 ART Base address to the Flash Bank 2 : */
   __HAL_ART_ENABLE();                           /* Enable the Cortex-M4 ART */
#endif /* DUAL_CORE &&  CORE_CM4 */

  /* Set Interrupt Group Priority */
  HAL_NVIC_SetPriorityGrouping(NVIC_PRIORITYGROUP_4);
 8020dde:	2003      	movs	r0, #3
 8020de0:	f000 f96e 	bl	80210c0 <HAL_NVIC_SetPriorityGrouping>

  /* Update the SystemCoreClock global variable */
#if defined(RCC_D1CFGR_D1CPRE)
  common_system_clock = HAL_RCC_GetSysClockFreq() >> ((D1CorePrescTable[(RCC->D1CFGR & RCC_D1CFGR_D1CPRE)>> RCC_D1CFGR_D1CPRE_Pos]) & 0x1FU);
 8020de4:	f001 fa2e 	bl	8022244 <HAL_RCC_GetSysClockFreq>
 8020de8:	4602      	mov	r2, r0
 8020dea:	4b15      	ldr	r3, [pc, #84]	; (8020e40 <HAL_Init+0x68>)
 8020dec:	699b      	ldr	r3, [r3, #24]
 8020dee:	0a1b      	lsrs	r3, r3, #8
 8020df0:	f003 030f 	and.w	r3, r3, #15
 8020df4:	4913      	ldr	r1, [pc, #76]	; (8020e44 <HAL_Init+0x6c>)
 8020df6:	5ccb      	ldrb	r3, [r1, r3]
 8020df8:	f003 031f 	and.w	r3, r3, #31
 8020dfc:	fa22 f303 	lsr.w	r3, r2, r3
 8020e00:	607b      	str	r3, [r7, #4]
  common_system_clock = HAL_RCC_GetSysClockFreq() >> ((D1CorePrescTable[(RCC->CDCFGR1 & RCC_CDCFGR1_CDCPRE)>> RCC_CDCFGR1_CDCPRE_Pos]) & 0x1FU);
#endif

  /* Update the SystemD2Clock global variable */
#if defined(RCC_D1CFGR_HPRE)
  SystemD2Clock = (common_system_clock >> ((D1CorePrescTable[(RCC->D1CFGR & RCC_D1CFGR_HPRE)>> RCC_D1CFGR_HPRE_Pos]) & 0x1FU));
 8020e02:	4b0f      	ldr	r3, [pc, #60]	; (8020e40 <HAL_Init+0x68>)
 8020e04:	699b      	ldr	r3, [r3, #24]
 8020e06:	f003 030f 	and.w	r3, r3, #15
 8020e0a:	4a0e      	ldr	r2, [pc, #56]	; (8020e44 <HAL_Init+0x6c>)
 8020e0c:	5cd3      	ldrb	r3, [r2, r3]
 8020e0e:	f003 031f 	and.w	r3, r3, #31
 8020e12:	687a      	ldr	r2, [r7, #4]
 8020e14:	fa22 f303 	lsr.w	r3, r2, r3
 8020e18:	4a0b      	ldr	r2, [pc, #44]	; (8020e48 <HAL_Init+0x70>)
 8020e1a:	6013      	str	r3, [r2, #0]
#endif

#if defined(DUAL_CORE) && defined(CORE_CM4)
  SystemCoreClock = SystemD2Clock;
#else
  SystemCoreClock = common_system_clock;
 8020e1c:	4a0b      	ldr	r2, [pc, #44]	; (8020e4c <HAL_Init+0x74>)
 8020e1e:	687b      	ldr	r3, [r7, #4]
 8020e20:	6013      	str	r3, [r2, #0]
#endif /* DUAL_CORE && CORE_CM4 */

  /* Use systick as time base source and configure 1ms tick (default clock after Reset is HSI) */
  if(HAL_InitTick(TICK_INT_PRIORITY) != HAL_OK)
 8020e22:	200f      	movs	r0, #15
 8020e24:	f000 f814 	bl	8020e50 <HAL_InitTick>
 8020e28:	4603      	mov	r3, r0
 8020e2a:	2b00      	cmp	r3, #0
 8020e2c:	d001      	beq.n	8020e32 <HAL_Init+0x5a>
  {
    return HAL_ERROR;
 8020e2e:	2301      	movs	r3, #1
 8020e30:	e002      	b.n	8020e38 <HAL_Init+0x60>
  }

  /* Init the low level hardware */
  HAL_MspInit();
 8020e32:	f7ff fe15 	bl	8020a60 <HAL_MspInit>

  /* Return function status */
  return HAL_OK;
 8020e36:	2300      	movs	r3, #0
}
 8020e38:	4618      	mov	r0, r3
 8020e3a:	3708      	adds	r7, #8
 8020e3c:	46bd      	mov	sp, r7
 8020e3e:	bd80      	pop	{r7, pc}
 8020e40:	58024400 	.word	0x58024400
 8020e44:	08026b20 	.word	0x08026b20
 8020e48:	24000004 	.word	0x24000004
 8020e4c:	24000000 	.word	0x24000000

08020e50 <HAL_InitTick>:
  *       implementation  in user file.
  * @param TickPriority: Tick interrupt priority.
  * @retval HAL status
  */
__weak HAL_StatusTypeDef HAL_InitTick(uint32_t TickPriority)
{
 8020e50:	b580      	push	{r7, lr}
 8020e52:	b082      	sub	sp, #8
 8020e54:	af00      	add	r7, sp, #0
 8020e56:	6078      	str	r0, [r7, #4]
  /* Check uwTickFreq for MisraC 2012 (even if uwTickFreq is a enum type that don't take the value zero)*/
  if((uint32_t)uwTickFreq == 0UL)
 8020e58:	4b15      	ldr	r3, [pc, #84]	; (8020eb0 <HAL_InitTick+0x60>)
 8020e5a:	781b      	ldrb	r3, [r3, #0]
 8020e5c:	2b00      	cmp	r3, #0
 8020e5e:	d101      	bne.n	8020e64 <HAL_InitTick+0x14>
  {
    return HAL_ERROR;
 8020e60:	2301      	movs	r3, #1
 8020e62:	e021      	b.n	8020ea8 <HAL_InitTick+0x58>
  }

    /* Configure the SysTick to have interrupt in 1ms time basis*/
    if (HAL_SYSTICK_Config(SystemCoreClock / (1000UL / (uint32_t)uwTickFreq)) > 0U)
 8020e64:	4b13      	ldr	r3, [pc, #76]	; (8020eb4 <HAL_InitTick+0x64>)
 8020e66:	681a      	ldr	r2, [r3, #0]
 8020e68:	4b11      	ldr	r3, [pc, #68]	; (8020eb0 <HAL_InitTick+0x60>)
 8020e6a:	781b      	ldrb	r3, [r3, #0]
 8020e6c:	4619      	mov	r1, r3
 8020e6e:	f44f 737a 	mov.w	r3, #1000	; 0x3e8
 8020e72:	fbb3 f3f1 	udiv	r3, r3, r1
 8020e76:	fbb2 f3f3 	udiv	r3, r2, r3
 8020e7a:	4618      	mov	r0, r3
 8020e7c:	f000 f945 	bl	802110a <HAL_SYSTICK_Config>
 8020e80:	4603      	mov	r3, r0
 8020e82:	2b00      	cmp	r3, #0
 8020e84:	d001      	beq.n	8020e8a <HAL_InitTick+0x3a>
    {
      return HAL_ERROR;
 8020e86:	2301      	movs	r3, #1
 8020e88:	e00e      	b.n	8020ea8 <HAL_InitTick+0x58>
    }

  /* Configure the SysTick IRQ priority */
  if (TickPriority < (1UL << __NVIC_PRIO_BITS))
 8020e8a:	687b      	ldr	r3, [r7, #4]
 8020e8c:	2b0f      	cmp	r3, #15
 8020e8e:	d80a      	bhi.n	8020ea6 <HAL_InitTick+0x56>
  {
    HAL_NVIC_SetPriority(SysTick_IRQn, TickPriority, 0U);
 8020e90:	2200      	movs	r2, #0
 8020e92:	6879      	ldr	r1, [r7, #4]
 8020e94:	f04f 30ff 	mov.w	r0, #4294967295
 8020e98:	f000 f91d 	bl	80210d6 <HAL_NVIC_SetPriority>
    uwTickPrio = TickPriority;
 8020e9c:	4a06      	ldr	r2, [pc, #24]	; (8020eb8 <HAL_InitTick+0x68>)
 8020e9e:	687b      	ldr	r3, [r7, #4]
 8020ea0:	6013      	str	r3, [r2, #0]
  {
    return HAL_ERROR;
  }

  /* Return function status */
  return HAL_OK;
 8020ea2:	2300      	movs	r3, #0
 8020ea4:	e000      	b.n	8020ea8 <HAL_InitTick+0x58>
    return HAL_ERROR;
 8020ea6:	2301      	movs	r3, #1
}
 8020ea8:	4618      	mov	r0, r3
 8020eaa:	3708      	adds	r7, #8
 8020eac:	46bd      	mov	sp, r7
 8020eae:	bd80      	pop	{r7, pc}
 8020eb0:	2400000c 	.word	0x2400000c
 8020eb4:	24000000 	.word	0x24000000
 8020eb8:	24000008 	.word	0x24000008

08020ebc <HAL_IncTick>:
 * @note This function is declared as __weak to be overwritten in case of other
  *      implementations in user file.
  * @retval None
  */
__weak void HAL_IncTick(void)
{
 8020ebc:	b480      	push	{r7}
 8020ebe:	af00      	add	r7, sp, #0
  uwTick += (uint32_t)uwTickFreq;
 8020ec0:	4b06      	ldr	r3, [pc, #24]	; (8020edc <HAL_IncTick+0x20>)
 8020ec2:	781b      	ldrb	r3, [r3, #0]
 8020ec4:	461a      	mov	r2, r3
 8020ec6:	4b06      	ldr	r3, [pc, #24]	; (8020ee0 <HAL_IncTick+0x24>)
 8020ec8:	681b      	ldr	r3, [r3, #0]
 8020eca:	4413      	add	r3, r2
 8020ecc:	4a04      	ldr	r2, [pc, #16]	; (8020ee0 <HAL_IncTick+0x24>)
 8020ece:	6013      	str	r3, [r2, #0]
}
 8020ed0:	bf00      	nop
 8020ed2:	46bd      	mov	sp, r7
 8020ed4:	f85d 7b04 	ldr.w	r7, [sp], #4
 8020ed8:	4770      	bx	lr
 8020eda:	bf00      	nop
 8020edc:	2400000c 	.word	0x2400000c
 8020ee0:	240001f8 	.word	0x240001f8

08020ee4 <HAL_GetTick>:
  * @note This function is declared as __weak to be overwritten in case of other
  *       implementations in user file.
  * @retval tick value
  */
__weak uint32_t HAL_GetTick(void)
{
 8020ee4:	b480      	push	{r7}
 8020ee6:	af00      	add	r7, sp, #0
  return uwTick;
 8020ee8:	4b03      	ldr	r3, [pc, #12]	; (8020ef8 <HAL_GetTick+0x14>)
 8020eea:	681b      	ldr	r3, [r3, #0]
}
 8020eec:	4618      	mov	r0, r3
 8020eee:	46bd      	mov	sp, r7
 8020ef0:	f85d 7b04 	ldr.w	r7, [sp], #4
 8020ef4:	4770      	bx	lr
 8020ef6:	bf00      	nop
 8020ef8:	240001f8 	.word	0x240001f8

08020efc <HAL_Delay>:
  *       implementations in user file.
  * @param Delay  specifies the delay time length, in milliseconds.
  * @retval None
  */
__weak void HAL_Delay(uint32_t Delay)
{
 8020efc:	b580      	push	{r7, lr}
 8020efe:	b084      	sub	sp, #16
 8020f00:	af00      	add	r7, sp, #0
 8020f02:	6078      	str	r0, [r7, #4]
  uint32_t tickstart = HAL_GetTick();
 8020f04:	f7ff ffee 	bl	8020ee4 <HAL_GetTick>
 8020f08:	60b8      	str	r0, [r7, #8]
  uint32_t wait = Delay;
 8020f0a:	687b      	ldr	r3, [r7, #4]
 8020f0c:	60fb      	str	r3, [r7, #12]

  /* Add a freq to guarantee minimum wait */
  if (wait < HAL_MAX_DELAY)
 8020f0e:	68fb      	ldr	r3, [r7, #12]
 8020f10:	f1b3 3fff 	cmp.w	r3, #4294967295
 8020f14:	d005      	beq.n	8020f22 <HAL_Delay+0x26>
  {
    wait += (uint32_t)(uwTickFreq);
 8020f16:	4b0a      	ldr	r3, [pc, #40]	; (8020f40 <HAL_Delay+0x44>)
 8020f18:	781b      	ldrb	r3, [r3, #0]
 8020f1a:	461a      	mov	r2, r3
 8020f1c:	68fb      	ldr	r3, [r7, #12]
 8020f1e:	4413      	add	r3, r2
 8020f20:	60fb      	str	r3, [r7, #12]
  }

  while ((HAL_GetTick() - tickstart) < wait)
 8020f22:	bf00      	nop
 8020f24:	f7ff ffde 	bl	8020ee4 <HAL_GetTick>
 8020f28:	4602      	mov	r2, r0
 8020f2a:	68bb      	ldr	r3, [r7, #8]
 8020f2c:	1ad3      	subs	r3, r2, r3
 8020f2e:	68fa      	ldr	r2, [r7, #12]
 8020f30:	429a      	cmp	r2, r3
 8020f32:	d8f7      	bhi.n	8020f24 <HAL_Delay+0x28>
  {
  }
}
 8020f34:	bf00      	nop
 8020f36:	bf00      	nop
 8020f38:	3710      	adds	r7, #16
 8020f3a:	46bd      	mov	sp, r7
 8020f3c:	bd80      	pop	{r7, pc}
 8020f3e:	bf00      	nop
 8020f40:	2400000c 	.word	0x2400000c

08020f44 <HAL_GetREVID>:
/**
  * @brief  Returns the device revision identifier.
  * @retval Device revision identifier
  */
uint32_t HAL_GetREVID(void)
{
 8020f44:	b480      	push	{r7}
 8020f46:	af00      	add	r7, sp, #0
   return((DBGMCU->IDCODE) >> 16);
 8020f48:	4b03      	ldr	r3, [pc, #12]	; (8020f58 <HAL_GetREVID+0x14>)
 8020f4a:	681b      	ldr	r3, [r3, #0]
 8020f4c:	0c1b      	lsrs	r3, r3, #16
}
 8020f4e:	4618      	mov	r0, r3
 8020f50:	46bd      	mov	sp, r7
 8020f52:	f85d 7b04 	ldr.w	r7, [sp], #4
 8020f56:	4770      	bx	lr
 8020f58:	5c001000 	.word	0x5c001000

08020f5c <__NVIC_SetPriorityGrouping>:
{
 8020f5c:	b480      	push	{r7}
 8020f5e:	b085      	sub	sp, #20
 8020f60:	af00      	add	r7, sp, #0
 8020f62:	6078      	str	r0, [r7, #4]
  uint32_t PriorityGroupTmp = (PriorityGroup & (uint32_t)0x07UL);             /* only values 0..7 are used          */
 8020f64:	687b      	ldr	r3, [r7, #4]
 8020f66:	f003 0307 	and.w	r3, r3, #7
 8020f6a:	60fb      	str	r3, [r7, #12]
  reg_value  =  SCB->AIRCR;                                                   /* read old register configuration    */
 8020f6c:	4b0b      	ldr	r3, [pc, #44]	; (8020f9c <__NVIC_SetPriorityGrouping+0x40>)
 8020f6e:	68db      	ldr	r3, [r3, #12]
 8020f70:	60bb      	str	r3, [r7, #8]
  reg_value &= ~((uint32_t)(SCB_AIRCR_VECTKEY_Msk | SCB_AIRCR_PRIGROUP_Msk)); /* clear bits to change               */
 8020f72:	68ba      	ldr	r2, [r7, #8]
 8020f74:	f64f 03ff 	movw	r3, #63743	; 0xf8ff
 8020f78:	4013      	ands	r3, r2
 8020f7a:	60bb      	str	r3, [r7, #8]
                (PriorityGroupTmp << SCB_AIRCR_PRIGROUP_Pos)  );              /* Insert write key and priority group */
 8020f7c:	68fb      	ldr	r3, [r7, #12]
 8020f7e:	021a      	lsls	r2, r3, #8
                ((uint32_t)0x5FAUL << SCB_AIRCR_VECTKEY_Pos) |
 8020f80:	68bb      	ldr	r3, [r7, #8]
 8020f82:	431a      	orrs	r2, r3
  reg_value  =  (reg_value                                   |
 8020f84:	4b06      	ldr	r3, [pc, #24]	; (8020fa0 <__NVIC_SetPriorityGrouping+0x44>)
 8020f86:	4313      	orrs	r3, r2
 8020f88:	60bb      	str	r3, [r7, #8]
  SCB->AIRCR =  reg_value;
 8020f8a:	4a04      	ldr	r2, [pc, #16]	; (8020f9c <__NVIC_SetPriorityGrouping+0x40>)
 8020f8c:	68bb      	ldr	r3, [r7, #8]
 8020f8e:	60d3      	str	r3, [r2, #12]
}
 8020f90:	bf00      	nop
 8020f92:	3714      	adds	r7, #20
 8020f94:	46bd      	mov	sp, r7
 8020f96:	f85d 7b04 	ldr.w	r7, [sp], #4
 8020f9a:	4770      	bx	lr
 8020f9c:	e000ed00 	.word	0xe000ed00
 8020fa0:	05fa0000 	.word	0x05fa0000

08020fa4 <__NVIC_GetPriorityGrouping>:
{
 8020fa4:	b480      	push	{r7}
 8020fa6:	af00      	add	r7, sp, #0
  return ((uint32_t)((SCB->AIRCR & SCB_AIRCR_PRIGROUP_Msk) >> SCB_AIRCR_PRIGROUP_Pos));
 8020fa8:	4b04      	ldr	r3, [pc, #16]	; (8020fbc <__NVIC_GetPriorityGrouping+0x18>)
 8020faa:	68db      	ldr	r3, [r3, #12]
 8020fac:	0a1b      	lsrs	r3, r3, #8
 8020fae:	f003 0307 	and.w	r3, r3, #7
}
 8020fb2:	4618      	mov	r0, r3
 8020fb4:	46bd      	mov	sp, r7
 8020fb6:	f85d 7b04 	ldr.w	r7, [sp], #4
 8020fba:	4770      	bx	lr
 8020fbc:	e000ed00 	.word	0xe000ed00

08020fc0 <__NVIC_SetPriority>:
{
 8020fc0:	b480      	push	{r7}
 8020fc2:	b083      	sub	sp, #12
 8020fc4:	af00      	add	r7, sp, #0
 8020fc6:	4603      	mov	r3, r0
 8020fc8:	6039      	str	r1, [r7, #0]
 8020fca:	80fb      	strh	r3, [r7, #6]
  if ((int32_t)(IRQn) >= 0)
 8020fcc:	f9b7 3006 	ldrsh.w	r3, [r7, #6]
 8020fd0:	2b00      	cmp	r3, #0
 8020fd2:	db0a      	blt.n	8020fea <__NVIC_SetPriority+0x2a>
    NVIC->IP[((uint32_t)IRQn)]                = (uint8_t)((priority << (8U - __NVIC_PRIO_BITS)) & (uint32_t)0xFFUL);
 8020fd4:	683b      	ldr	r3, [r7, #0]
 8020fd6:	b2da      	uxtb	r2, r3
 8020fd8:	490c      	ldr	r1, [pc, #48]	; (802100c <__NVIC_SetPriority+0x4c>)
 8020fda:	f9b7 3006 	ldrsh.w	r3, [r7, #6]
 8020fde:	0112      	lsls	r2, r2, #4
 8020fe0:	b2d2      	uxtb	r2, r2
 8020fe2:	440b      	add	r3, r1
 8020fe4:	f883 2300 	strb.w	r2, [r3, #768]	; 0x300
}
 8020fe8:	e00a      	b.n	8021000 <__NVIC_SetPriority+0x40>
    SCB->SHPR[(((uint32_t)IRQn) & 0xFUL)-4UL] = (uint8_t)((priority << (8U - __NVIC_PRIO_BITS)) & (uint32_t)0xFFUL);
 8020fea:	683b      	ldr	r3, [r7, #0]
 8020fec:	b2da      	uxtb	r2, r3
 8020fee:	4908      	ldr	r1, [pc, #32]	; (8021010 <__NVIC_SetPriority+0x50>)
 8020ff0:	88fb      	ldrh	r3, [r7, #6]
 8020ff2:	f003 030f 	and.w	r3, r3, #15
 8020ff6:	3b04      	subs	r3, #4
 8020ff8:	0112      	lsls	r2, r2, #4
 8020ffa:	b2d2      	uxtb	r2, r2
 8020ffc:	440b      	add	r3, r1
 8020ffe:	761a      	strb	r2, [r3, #24]
}
 8021000:	bf00      	nop
 8021002:	370c      	adds	r7, #12
 8021004:	46bd      	mov	sp, r7
 8021006:	f85d 7b04 	ldr.w	r7, [sp], #4
 802100a:	4770      	bx	lr
 802100c:	e000e100 	.word	0xe000e100
 8021010:	e000ed00 	.word	0xe000ed00

08021014 <NVIC_EncodePriority>:
{
 8021014:	b480      	push	{r7}
 8021016:	b089      	sub	sp, #36	; 0x24
 8021018:	af00      	add	r7, sp, #0
 802101a:	60f8      	str	r0, [r7, #12]
 802101c:	60b9      	str	r1, [r7, #8]
 802101e:	607a      	str	r2, [r7, #4]
  uint32_t PriorityGroupTmp = (PriorityGroup & (uint32_t)0x07UL);   /* only values 0..7 are used          */
 8021020:	68fb      	ldr	r3, [r7, #12]
 8021022:	f003 0307 	and.w	r3, r3, #7
 8021026:	61fb      	str	r3, [r7, #28]
  PreemptPriorityBits = ((7UL - PriorityGroupTmp) > (uint32_t)(__NVIC_PRIO_BITS)) ? (uint32_t)(__NVIC_PRIO_BITS) : (uint32_t)(7UL - PriorityGroupTmp);
 8021028:	69fb      	ldr	r3, [r7, #28]
 802102a:	f1c3 0307 	rsb	r3, r3, #7
 802102e:	2b04      	cmp	r3, #4
 8021030:	bf28      	it	cs
 8021032:	2304      	movcs	r3, #4
 8021034:	61bb      	str	r3, [r7, #24]
  SubPriorityBits     = ((PriorityGroupTmp + (uint32_t)(__NVIC_PRIO_BITS)) < (uint32_t)7UL) ? (uint32_t)0UL : (uint32_t)((PriorityGroupTmp - 7UL) + (uint32_t)(__NVIC_PRIO_BITS));
 8021036:	69fb      	ldr	r3, [r7, #28]
 8021038:	3304      	adds	r3, #4
 802103a:	2b06      	cmp	r3, #6
 802103c:	d902      	bls.n	8021044 <NVIC_EncodePriority+0x30>
 802103e:	69fb      	ldr	r3, [r7, #28]
 8021040:	3b03      	subs	r3, #3
 8021042:	e000      	b.n	8021046 <NVIC_EncodePriority+0x32>
 8021044:	2300      	movs	r3, #0
 8021046:	617b      	str	r3, [r7, #20]
           ((PreemptPriority & (uint32_t)((1UL << (PreemptPriorityBits)) - 1UL)) << SubPriorityBits) |
 8021048:	f04f 32ff 	mov.w	r2, #4294967295
 802104c:	69bb      	ldr	r3, [r7, #24]
 802104e:	fa02 f303 	lsl.w	r3, r2, r3
 8021052:	43da      	mvns	r2, r3
 8021054:	68bb      	ldr	r3, [r7, #8]
 8021056:	401a      	ands	r2, r3
 8021058:	697b      	ldr	r3, [r7, #20]
 802105a:	409a      	lsls	r2, r3
           ((SubPriority     & (uint32_t)((1UL << (SubPriorityBits    )) - 1UL)))
 802105c:	f04f 31ff 	mov.w	r1, #4294967295
 8021060:	697b      	ldr	r3, [r7, #20]
 8021062:	fa01 f303 	lsl.w	r3, r1, r3
 8021066:	43d9      	mvns	r1, r3
 8021068:	687b      	ldr	r3, [r7, #4]
 802106a:	400b      	ands	r3, r1
           ((PreemptPriority & (uint32_t)((1UL << (PreemptPriorityBits)) - 1UL)) << SubPriorityBits) |
 802106c:	4313      	orrs	r3, r2
}
 802106e:	4618      	mov	r0, r3
 8021070:	3724      	adds	r7, #36	; 0x24
 8021072:	46bd      	mov	sp, r7
 8021074:	f85d 7b04 	ldr.w	r7, [sp], #4
 8021078:	4770      	bx	lr
	...

0802107c <SysTick_Config>:
  \note    When the variable <b>__Vendor_SysTickConfig</b> is set to 1, then the
           function <b>SysTick_Config</b> is not included. In this case, the file <b><i>device</i>.h</b>
           must contain a vendor-specific implementation of this function.
 */
__STATIC_INLINE uint32_t SysTick_Config(uint32_t ticks)
{
 802107c:	b580      	push	{r7, lr}
 802107e:	b082      	sub	sp, #8
 8021080:	af00      	add	r7, sp, #0
 8021082:	6078      	str	r0, [r7, #4]
  if ((ticks - 1UL) > SysTick_LOAD_RELOAD_Msk)
 8021084:	687b      	ldr	r3, [r7, #4]
 8021086:	3b01      	subs	r3, #1
 8021088:	f1b3 7f80 	cmp.w	r3, #16777216	; 0x1000000
 802108c:	d301      	bcc.n	8021092 <SysTick_Config+0x16>
  {
    return (1UL);                                                   /* Reload value impossible */
 802108e:	2301      	movs	r3, #1
 8021090:	e00f      	b.n	80210b2 <SysTick_Config+0x36>
  }

  SysTick->LOAD  = (uint32_t)(ticks - 1UL);                         /* set reload register */
 8021092:	4a0a      	ldr	r2, [pc, #40]	; (80210bc <SysTick_Config+0x40>)
 8021094:	687b      	ldr	r3, [r7, #4]
 8021096:	3b01      	subs	r3, #1
 8021098:	6053      	str	r3, [r2, #4]
  NVIC_SetPriority (SysTick_IRQn, (1UL << __NVIC_PRIO_BITS) - 1UL); /* set Priority for Systick Interrupt */
 802109a:	210f      	movs	r1, #15
 802109c:	f04f 30ff 	mov.w	r0, #4294967295
 80210a0:	f7ff ff8e 	bl	8020fc0 <__NVIC_SetPriority>
  SysTick->VAL   = 0UL;                                             /* Load the SysTick Counter Value */
 80210a4:	4b05      	ldr	r3, [pc, #20]	; (80210bc <SysTick_Config+0x40>)
 80210a6:	2200      	movs	r2, #0
 80210a8:	609a      	str	r2, [r3, #8]
  SysTick->CTRL  = SysTick_CTRL_CLKSOURCE_Msk |
 80210aa:	4b04      	ldr	r3, [pc, #16]	; (80210bc <SysTick_Config+0x40>)
 80210ac:	2207      	movs	r2, #7
 80210ae:	601a      	str	r2, [r3, #0]
                   SysTick_CTRL_TICKINT_Msk   |
                   SysTick_CTRL_ENABLE_Msk;                         /* Enable SysTick IRQ and SysTick Timer */
  return (0UL);                                                     /* Function successful */
 80210b0:	2300      	movs	r3, #0
}
 80210b2:	4618      	mov	r0, r3
 80210b4:	3708      	adds	r7, #8
 80210b6:	46bd      	mov	sp, r7
 80210b8:	bd80      	pop	{r7, pc}
 80210ba:	bf00      	nop
 80210bc:	e000e010 	.word	0xe000e010

080210c0 <HAL_NVIC_SetPriorityGrouping>:
  * @note   When the NVIC_PriorityGroup_0 is selected, IRQ preemption is no more possible.
  *         The pending IRQ priority will be managed only by the subpriority.
  * @retval None
  */
void HAL_NVIC_SetPriorityGrouping(uint32_t PriorityGroup)
{
 80210c0:	b580      	push	{r7, lr}
 80210c2:	b082      	sub	sp, #8
 80210c4:	af00      	add	r7, sp, #0
 80210c6:	6078      	str	r0, [r7, #4]
  /* Check the parameters */
  assert_param(IS_NVIC_PRIORITY_GROUP(PriorityGroup));

  /* Set the PRIGROUP[10:8] bits according to the PriorityGroup parameter value */
  NVIC_SetPriorityGrouping(PriorityGroup);
 80210c8:	6878      	ldr	r0, [r7, #4]
 80210ca:	f7ff ff47 	bl	8020f5c <__NVIC_SetPriorityGrouping>
}
 80210ce:	bf00      	nop
 80210d0:	3708      	adds	r7, #8
 80210d2:	46bd      	mov	sp, r7
 80210d4:	bd80      	pop	{r7, pc}

080210d6 <HAL_NVIC_SetPriority>:
  *         This parameter can be a value between 0 and 15
  *         A lower priority value indicates a higher priority.
  * @retval None
  */
void HAL_NVIC_SetPriority(IRQn_Type IRQn, uint32_t PreemptPriority, uint32_t SubPriority)
{
 80210d6:	b580      	push	{r7, lr}
 80210d8:	b086      	sub	sp, #24
 80210da:	af00      	add	r7, sp, #0
 80210dc:	4603      	mov	r3, r0
 80210de:	60b9      	str	r1, [r7, #8]
 80210e0:	607a      	str	r2, [r7, #4]
 80210e2:	81fb      	strh	r3, [r7, #14]

  /* Check the parameters */
  assert_param(IS_NVIC_SUB_PRIORITY(SubPriority));
  assert_param(IS_NVIC_PREEMPTION_PRIORITY(PreemptPriority));

  prioritygroup = NVIC_GetPriorityGrouping();
 80210e4:	f7ff ff5e 	bl	8020fa4 <__NVIC_GetPriorityGrouping>
 80210e8:	6178      	str	r0, [r7, #20]

  NVIC_SetPriority(IRQn, NVIC_EncodePriority(prioritygroup, PreemptPriority, SubPriority));
 80210ea:	687a      	ldr	r2, [r7, #4]
 80210ec:	68b9      	ldr	r1, [r7, #8]
 80210ee:	6978      	ldr	r0, [r7, #20]
 80210f0:	f7ff ff90 	bl	8021014 <NVIC_EncodePriority>
 80210f4:	4602      	mov	r2, r0
 80210f6:	f9b7 300e 	ldrsh.w	r3, [r7, #14]
 80210fa:	4611      	mov	r1, r2
 80210fc:	4618      	mov	r0, r3
 80210fe:	f7ff ff5f 	bl	8020fc0 <__NVIC_SetPriority>
}
 8021102:	bf00      	nop
 8021104:	3718      	adds	r7, #24
 8021106:	46bd      	mov	sp, r7
 8021108:	bd80      	pop	{r7, pc}

0802110a <HAL_SYSTICK_Config>:
  * @param  TicksNumb Specifies the ticks Number of ticks between two interrupts.
  * @retval status   - 0  Function succeeded.
  *                  - 1  Function failed.
  */
uint32_t HAL_SYSTICK_Config(uint32_t TicksNumb)
{
 802110a:	b580      	push	{r7, lr}
 802110c:	b082      	sub	sp, #8
 802110e:	af00      	add	r7, sp, #0
 8021110:	6078      	str	r0, [r7, #4]
   return SysTick_Config(TicksNumb);
 8021112:	6878      	ldr	r0, [r7, #4]
 8021114:	f7ff ffb2 	bl	802107c <SysTick_Config>
 8021118:	4603      	mov	r3, r0
}
 802111a:	4618      	mov	r0, r3
 802111c:	3708      	adds	r7, #8
 802111e:	46bd      	mov	sp, r7
 8021120:	bd80      	pop	{r7, pc}
	...

08021124 <HAL_MPU_Disable>:
/**
  * @brief  Disables the MPU
  * @retval None
  */
void HAL_MPU_Disable(void)
{
 8021124:	b480      	push	{r7}
 8021126:	af00      	add	r7, sp, #0
  \details Ensures the apparent order of the explicit memory operations before
           and after the instruction, without ensuring their completion.
 */
__STATIC_FORCEINLINE void __DMB(void)
{
  __ASM volatile ("dmb 0xF":::"memory");
 8021128:	f3bf 8f5f 	dmb	sy
}
 802112c:	bf00      	nop
  /* Make sure outstanding transfers are done */
  __DMB();

  /* Disable fault exceptions */
  SCB->SHCSR &= ~SCB_SHCSR_MEMFAULTENA_Msk;
 802112e:	4b07      	ldr	r3, [pc, #28]	; (802114c <HAL_MPU_Disable+0x28>)
 8021130:	6a5b      	ldr	r3, [r3, #36]	; 0x24
 8021132:	4a06      	ldr	r2, [pc, #24]	; (802114c <HAL_MPU_Disable+0x28>)
 8021134:	f423 3380 	bic.w	r3, r3, #65536	; 0x10000
 8021138:	6253      	str	r3, [r2, #36]	; 0x24

  /* Disable the MPU and clear the control register*/
  MPU->CTRL = 0;
 802113a:	4b05      	ldr	r3, [pc, #20]	; (8021150 <HAL_MPU_Disable+0x2c>)
 802113c:	2200      	movs	r2, #0
 802113e:	605a      	str	r2, [r3, #4]
}
 8021140:	bf00      	nop
 8021142:	46bd      	mov	sp, r7
 8021144:	f85d 7b04 	ldr.w	r7, [sp], #4
 8021148:	4770      	bx	lr
 802114a:	bf00      	nop
 802114c:	e000ed00 	.word	0xe000ed00
 8021150:	e000ed90 	.word	0xe000ed90

08021154 <HAL_MPU_Enable>:
  *            @arg MPU_PRIVILEGED_DEFAULT
  *            @arg MPU_HFNMI_PRIVDEF
  * @retval None
  */
void HAL_MPU_Enable(uint32_t MPU_Control)
{
 8021154:	b480      	push	{r7}
 8021156:	b083      	sub	sp, #12
 8021158:	af00      	add	r7, sp, #0
 802115a:	6078      	str	r0, [r7, #4]
  /* Enable the MPU */
  MPU->CTRL = MPU_Control | MPU_CTRL_ENABLE_Msk;
 802115c:	4a0b      	ldr	r2, [pc, #44]	; (802118c <HAL_MPU_Enable+0x38>)
 802115e:	687b      	ldr	r3, [r7, #4]
 8021160:	f043 0301 	orr.w	r3, r3, #1
 8021164:	6053      	str	r3, [r2, #4]

  /* Enable fault exceptions */
  SCB->SHCSR |= SCB_SHCSR_MEMFAULTENA_Msk;
 8021166:	4b0a      	ldr	r3, [pc, #40]	; (8021190 <HAL_MPU_Enable+0x3c>)
 8021168:	6a5b      	ldr	r3, [r3, #36]	; 0x24
 802116a:	4a09      	ldr	r2, [pc, #36]	; (8021190 <HAL_MPU_Enable+0x3c>)
 802116c:	f443 3380 	orr.w	r3, r3, #65536	; 0x10000
 8021170:	6253      	str	r3, [r2, #36]	; 0x24
  __ASM volatile ("dsb 0xF":::"memory");
 8021172:	f3bf 8f4f 	dsb	sy
}
 8021176:	bf00      	nop
  __ASM volatile ("isb 0xF":::"memory");
 8021178:	f3bf 8f6f 	isb	sy
}
 802117c:	bf00      	nop

  /* Ensure MPU setting take effects */
  __DSB();
  __ISB();
}
 802117e:	bf00      	nop
 8021180:	370c      	adds	r7, #12
 8021182:	46bd      	mov	sp, r7
 8021184:	f85d 7b04 	ldr.w	r7, [sp], #4
 8021188:	4770      	bx	lr
 802118a:	bf00      	nop
 802118c:	e000ed90 	.word	0xe000ed90
 8021190:	e000ed00 	.word	0xe000ed00

08021194 <HAL_MPU_ConfigRegion>:
  * @param  MPU_Init Pointer to a MPU_Region_InitTypeDef structure that contains
  *                  the initialization and configuration information.
  * @retval None
  */
void HAL_MPU_ConfigRegion(MPU_Region_InitTypeDef *MPU_Init)
{
 8021194:	b480      	push	{r7}
 8021196:	b083      	sub	sp, #12
 8021198:	af00      	add	r7, sp, #0
 802119a:	6078      	str	r0, [r7, #4]
  /* Check the parameters */
  assert_param(IS_MPU_REGION_NUMBER(MPU_Init->Number));
  assert_param(IS_MPU_REGION_ENABLE(MPU_Init->Enable));

  /* Set the Region number */
  MPU->RNR = MPU_Init->Number;
 802119c:	687b      	ldr	r3, [r7, #4]
 802119e:	785a      	ldrb	r2, [r3, #1]
 80211a0:	4b1d      	ldr	r3, [pc, #116]	; (8021218 <HAL_MPU_ConfigRegion+0x84>)
 80211a2:	609a      	str	r2, [r3, #8]

  if ((MPU_Init->Enable) != 0UL)
 80211a4:	687b      	ldr	r3, [r7, #4]
 80211a6:	781b      	ldrb	r3, [r3, #0]
 80211a8:	2b00      	cmp	r3, #0
 80211aa:	d029      	beq.n	8021200 <HAL_MPU_ConfigRegion+0x6c>
    assert_param(IS_MPU_ACCESS_CACHEABLE(MPU_Init->IsCacheable));
    assert_param(IS_MPU_ACCESS_BUFFERABLE(MPU_Init->IsBufferable));
    assert_param(IS_MPU_SUB_REGION_DISABLE(MPU_Init->SubRegionDisable));
    assert_param(IS_MPU_REGION_SIZE(MPU_Init->Size));

    MPU->RBAR = MPU_Init->BaseAddress;
 80211ac:	4a1a      	ldr	r2, [pc, #104]	; (8021218 <HAL_MPU_ConfigRegion+0x84>)
 80211ae:	687b      	ldr	r3, [r7, #4]
 80211b0:	685b      	ldr	r3, [r3, #4]
 80211b2:	60d3      	str	r3, [r2, #12]
    MPU->RASR = ((uint32_t)MPU_Init->DisableExec             << MPU_RASR_XN_Pos)   |
 80211b4:	687b      	ldr	r3, [r7, #4]
 80211b6:	7b1b      	ldrb	r3, [r3, #12]
 80211b8:	071a      	lsls	r2, r3, #28
                ((uint32_t)MPU_Init->AccessPermission        << MPU_RASR_AP_Pos)   |
 80211ba:	687b      	ldr	r3, [r7, #4]
 80211bc:	7adb      	ldrb	r3, [r3, #11]
 80211be:	061b      	lsls	r3, r3, #24
    MPU->RASR = ((uint32_t)MPU_Init->DisableExec             << MPU_RASR_XN_Pos)   |
 80211c0:	431a      	orrs	r2, r3
                ((uint32_t)MPU_Init->TypeExtField            << MPU_RASR_TEX_Pos)  |
 80211c2:	687b      	ldr	r3, [r7, #4]
 80211c4:	7a9b      	ldrb	r3, [r3, #10]
 80211c6:	04db      	lsls	r3, r3, #19
                ((uint32_t)MPU_Init->AccessPermission        << MPU_RASR_AP_Pos)   |
 80211c8:	431a      	orrs	r2, r3
                ((uint32_t)MPU_Init->IsShareable             << MPU_RASR_S_Pos)    |
 80211ca:	687b      	ldr	r3, [r7, #4]
 80211cc:	7b5b      	ldrb	r3, [r3, #13]
 80211ce:	049b      	lsls	r3, r3, #18
                ((uint32_t)MPU_Init->TypeExtField            << MPU_RASR_TEX_Pos)  |
 80211d0:	431a      	orrs	r2, r3
                ((uint32_t)MPU_Init->IsCacheable             << MPU_RASR_C_Pos)    |
 80211d2:	687b      	ldr	r3, [r7, #4]
 80211d4:	7b9b      	ldrb	r3, [r3, #14]
 80211d6:	045b      	lsls	r3, r3, #17
                ((uint32_t)MPU_Init->IsShareable             << MPU_RASR_S_Pos)    |
 80211d8:	431a      	orrs	r2, r3
                ((uint32_t)MPU_Init->IsBufferable            << MPU_RASR_B_Pos)    |
 80211da:	687b      	ldr	r3, [r7, #4]
 80211dc:	7bdb      	ldrb	r3, [r3, #15]
 80211de:	041b      	lsls	r3, r3, #16
                ((uint32_t)MPU_Init->IsCacheable             << MPU_RASR_C_Pos)    |
 80211e0:	431a      	orrs	r2, r3
                ((uint32_t)MPU_Init->SubRegionDisable        << MPU_RASR_SRD_Pos)  |
 80211e2:	687b      	ldr	r3, [r7, #4]
 80211e4:	7a5b      	ldrb	r3, [r3, #9]
 80211e6:	021b      	lsls	r3, r3, #8
                ((uint32_t)MPU_Init->IsBufferable            << MPU_RASR_B_Pos)    |
 80211e8:	431a      	orrs	r2, r3
                ((uint32_t)MPU_Init->Size                    << MPU_RASR_SIZE_Pos) |
 80211ea:	687b      	ldr	r3, [r7, #4]
 80211ec:	7a1b      	ldrb	r3, [r3, #8]
 80211ee:	005b      	lsls	r3, r3, #1
                ((uint32_t)MPU_Init->SubRegionDisable        << MPU_RASR_SRD_Pos)  |
 80211f0:	4313      	orrs	r3, r2
                ((uint32_t)MPU_Init->Enable                  << MPU_RASR_ENABLE_Pos);
 80211f2:	687a      	ldr	r2, [r7, #4]
 80211f4:	7812      	ldrb	r2, [r2, #0]
 80211f6:	4611      	mov	r1, r2
    MPU->RASR = ((uint32_t)MPU_Init->DisableExec             << MPU_RASR_XN_Pos)   |
 80211f8:	4a07      	ldr	r2, [pc, #28]	; (8021218 <HAL_MPU_ConfigRegion+0x84>)
                ((uint32_t)MPU_Init->Size                    << MPU_RASR_SIZE_Pos) |
 80211fa:	430b      	orrs	r3, r1
    MPU->RASR = ((uint32_t)MPU_Init->DisableExec             << MPU_RASR_XN_Pos)   |
 80211fc:	6113      	str	r3, [r2, #16]
  else
  {
    MPU->RBAR = 0x00;
    MPU->RASR = 0x00;
  }
}
 80211fe:	e005      	b.n	802120c <HAL_MPU_ConfigRegion+0x78>
    MPU->RBAR = 0x00;
 8021200:	4b05      	ldr	r3, [pc, #20]	; (8021218 <HAL_MPU_ConfigRegion+0x84>)
 8021202:	2200      	movs	r2, #0
 8021204:	60da      	str	r2, [r3, #12]
    MPU->RASR = 0x00;
 8021206:	4b04      	ldr	r3, [pc, #16]	; (8021218 <HAL_MPU_ConfigRegion+0x84>)
 8021208:	2200      	movs	r2, #0
 802120a:	611a      	str	r2, [r3, #16]
}
 802120c:	bf00      	nop
 802120e:	370c      	adds	r7, #12
 8021210:	46bd      	mov	sp, r7
 8021212:	f85d 7b04 	ldr.w	r7, [sp], #4
 8021216:	4770      	bx	lr
 8021218:	e000ed90 	.word	0xe000ed90

0802121c <HAL_GPIO_Init>:
  * @param  GPIO_Init: pointer to a GPIO_InitTypeDef structure that contains
  *         the configuration information for the specified GPIO peripheral.
  * @retval None
  */
void HAL_GPIO_Init(GPIO_TypeDef  *GPIOx, GPIO_InitTypeDef *GPIO_Init)
{
 802121c:	b480      	push	{r7}
 802121e:	b089      	sub	sp, #36	; 0x24
 8021220:	af00      	add	r7, sp, #0
 8021222:	6078      	str	r0, [r7, #4]
 8021224:	6039      	str	r1, [r7, #0]
  uint32_t position = 0x00U;
 8021226:	2300      	movs	r3, #0
 8021228:	61fb      	str	r3, [r7, #28]
  EXTI_Core_TypeDef *EXTI_CurrentCPU;

#if defined(DUAL_CORE) && defined(CORE_CM4)
  EXTI_CurrentCPU = EXTI_D2; /* EXTI for CM4 CPU */
#else
  EXTI_CurrentCPU = EXTI_D1; /* EXTI for CM7 CPU */
 802122a:	4b89      	ldr	r3, [pc, #548]	; (8021450 <HAL_GPIO_Init+0x234>)
 802122c:	617b      	str	r3, [r7, #20]
  assert_param(IS_GPIO_ALL_INSTANCE(GPIOx));
  assert_param(IS_GPIO_PIN(GPIO_Init->Pin));
  assert_param(IS_GPIO_MODE(GPIO_Init->Mode));

  /* Configure the port pins */
  while (((GPIO_Init->Pin) >> position) != 0x00U)
 802122e:	e194      	b.n	802155a <HAL_GPIO_Init+0x33e>
  {
    /* Get current io position */
    iocurrent = (GPIO_Init->Pin) & (1UL << position);
 8021230:	683b      	ldr	r3, [r7, #0]
 8021232:	681a      	ldr	r2, [r3, #0]
 8021234:	2101      	movs	r1, #1
 8021236:	69fb      	ldr	r3, [r7, #28]
 8021238:	fa01 f303 	lsl.w	r3, r1, r3
 802123c:	4013      	ands	r3, r2
 802123e:	613b      	str	r3, [r7, #16]

    if (iocurrent != 0x00U)
 8021240:	693b      	ldr	r3, [r7, #16]
 8021242:	2b00      	cmp	r3, #0
 8021244:	f000 8186 	beq.w	8021554 <HAL_GPIO_Init+0x338>
    {
      /*--------------------- GPIO Mode Configuration ------------------------*/
      /* In case of Output or Alternate function mode selection */
      if (((GPIO_Init->Mode & GPIO_MODE) == MODE_OUTPUT) || ((GPIO_Init->Mode & GPIO_MODE) == MODE_AF))
 8021248:	683b      	ldr	r3, [r7, #0]
 802124a:	685b      	ldr	r3, [r3, #4]
 802124c:	f003 0303 	and.w	r3, r3, #3
 8021250:	2b01      	cmp	r3, #1
 8021252:	d005      	beq.n	8021260 <HAL_GPIO_Init+0x44>
 8021254:	683b      	ldr	r3, [r7, #0]
 8021256:	685b      	ldr	r3, [r3, #4]
 8021258:	f003 0303 	and.w	r3, r3, #3
 802125c:	2b02      	cmp	r3, #2
 802125e:	d130      	bne.n	80212c2 <HAL_GPIO_Init+0xa6>
      {
        /* Check the Speed parameter */
        assert_param(IS_GPIO_SPEED(GPIO_Init->Speed));

        /* Configure the IO Speed */
        temp = GPIOx->OSPEEDR;
 8021260:	687b      	ldr	r3, [r7, #4]
 8021262:	689b      	ldr	r3, [r3, #8]
 8021264:	61bb      	str	r3, [r7, #24]
        temp &= ~(GPIO_OSPEEDR_OSPEED0 << (position * 2U));
 8021266:	69fb      	ldr	r3, [r7, #28]
 8021268:	005b      	lsls	r3, r3, #1
 802126a:	2203      	movs	r2, #3
 802126c:	fa02 f303 	lsl.w	r3, r2, r3
 8021270:	43db      	mvns	r3, r3
 8021272:	69ba      	ldr	r2, [r7, #24]
 8021274:	4013      	ands	r3, r2
 8021276:	61bb      	str	r3, [r7, #24]
        temp |= (GPIO_Init->Speed << (position * 2U));
 8021278:	683b      	ldr	r3, [r7, #0]
 802127a:	68da      	ldr	r2, [r3, #12]
 802127c:	69fb      	ldr	r3, [r7, #28]
 802127e:	005b      	lsls	r3, r3, #1
 8021280:	fa02 f303 	lsl.w	r3, r2, r3
 8021284:	69ba      	ldr	r2, [r7, #24]
 8021286:	4313      	orrs	r3, r2
 8021288:	61bb      	str	r3, [r7, #24]
        GPIOx->OSPEEDR = temp;
 802128a:	687b      	ldr	r3, [r7, #4]
 802128c:	69ba      	ldr	r2, [r7, #24]
 802128e:	609a      	str	r2, [r3, #8]

        /* Configure the IO Output Type */
        temp = GPIOx->OTYPER;
 8021290:	687b      	ldr	r3, [r7, #4]
 8021292:	685b      	ldr	r3, [r3, #4]
 8021294:	61bb      	str	r3, [r7, #24]
        temp &= ~(GPIO_OTYPER_OT0 << position) ;
 8021296:	2201      	movs	r2, #1
 8021298:	69fb      	ldr	r3, [r7, #28]
 802129a:	fa02 f303 	lsl.w	r3, r2, r3
 802129e:	43db      	mvns	r3, r3
 80212a0:	69ba      	ldr	r2, [r7, #24]
 80212a2:	4013      	ands	r3, r2
 80212a4:	61bb      	str	r3, [r7, #24]
        temp |= (((GPIO_Init->Mode & OUTPUT_TYPE) >> OUTPUT_TYPE_Pos) << position);
 80212a6:	683b      	ldr	r3, [r7, #0]
 80212a8:	685b      	ldr	r3, [r3, #4]
 80212aa:	091b      	lsrs	r3, r3, #4
 80212ac:	f003 0201 	and.w	r2, r3, #1
 80212b0:	69fb      	ldr	r3, [r7, #28]
 80212b2:	fa02 f303 	lsl.w	r3, r2, r3
 80212b6:	69ba      	ldr	r2, [r7, #24]
 80212b8:	4313      	orrs	r3, r2
 80212ba:	61bb      	str	r3, [r7, #24]
        GPIOx->OTYPER = temp;
 80212bc:	687b      	ldr	r3, [r7, #4]
 80212be:	69ba      	ldr	r2, [r7, #24]
 80212c0:	605a      	str	r2, [r3, #4]
      }

      if ((GPIO_Init->Mode & GPIO_MODE) != MODE_ANALOG)
 80212c2:	683b      	ldr	r3, [r7, #0]
 80212c4:	685b      	ldr	r3, [r3, #4]
 80212c6:	f003 0303 	and.w	r3, r3, #3
 80212ca:	2b03      	cmp	r3, #3
 80212cc:	d017      	beq.n	80212fe <HAL_GPIO_Init+0xe2>
      {
       /* Check the Pull parameter */
       assert_param(IS_GPIO_PULL(GPIO_Init->Pull));

      /* Activate the Pull-up or Pull down resistor for the current IO */
      temp = GPIOx->PUPDR;
 80212ce:	687b      	ldr	r3, [r7, #4]
 80212d0:	68db      	ldr	r3, [r3, #12]
 80212d2:	61bb      	str	r3, [r7, #24]
      temp &= ~(GPIO_PUPDR_PUPD0 << (position * 2U));
 80212d4:	69fb      	ldr	r3, [r7, #28]
 80212d6:	005b      	lsls	r3, r3, #1
 80212d8:	2203      	movs	r2, #3
 80212da:	fa02 f303 	lsl.w	r3, r2, r3
 80212de:	43db      	mvns	r3, r3
 80212e0:	69ba      	ldr	r2, [r7, #24]
 80212e2:	4013      	ands	r3, r2
 80212e4:	61bb      	str	r3, [r7, #24]
      temp |= ((GPIO_Init->Pull) << (position * 2U));
 80212e6:	683b      	ldr	r3, [r7, #0]
 80212e8:	689a      	ldr	r2, [r3, #8]
 80212ea:	69fb      	ldr	r3, [r7, #28]
 80212ec:	005b      	lsls	r3, r3, #1
 80212ee:	fa02 f303 	lsl.w	r3, r2, r3
 80212f2:	69ba      	ldr	r2, [r7, #24]
 80212f4:	4313      	orrs	r3, r2
 80212f6:	61bb      	str	r3, [r7, #24]
      GPIOx->PUPDR = temp;
 80212f8:	687b      	ldr	r3, [r7, #4]
 80212fa:	69ba      	ldr	r2, [r7, #24]
 80212fc:	60da      	str	r2, [r3, #12]
      }

      /* In case of Alternate function mode selection */
      if ((GPIO_Init->Mode & GPIO_MODE) == MODE_AF)
 80212fe:	683b      	ldr	r3, [r7, #0]
 8021300:	685b      	ldr	r3, [r3, #4]
 8021302:	f003 0303 	and.w	r3, r3, #3
 8021306:	2b02      	cmp	r3, #2
 8021308:	d123      	bne.n	8021352 <HAL_GPIO_Init+0x136>
        /* Check the Alternate function parameters */
        assert_param(IS_GPIO_AF_INSTANCE(GPIOx));
        assert_param(IS_GPIO_AF(GPIO_Init->Alternate));

        /* Configure Alternate function mapped with the current IO */
        temp = GPIOx->AFR[position >> 3U];
 802130a:	69fb      	ldr	r3, [r7, #28]
 802130c:	08da      	lsrs	r2, r3, #3
 802130e:	687b      	ldr	r3, [r7, #4]
 8021310:	3208      	adds	r2, #8
 8021312:	f853 3022 	ldr.w	r3, [r3, r2, lsl #2]
 8021316:	61bb      	str	r3, [r7, #24]
        temp &= ~(0xFU << ((position & 0x07U) * 4U));
 8021318:	69fb      	ldr	r3, [r7, #28]
 802131a:	f003 0307 	and.w	r3, r3, #7
 802131e:	009b      	lsls	r3, r3, #2
 8021320:	220f      	movs	r2, #15
 8021322:	fa02 f303 	lsl.w	r3, r2, r3
 8021326:	43db      	mvns	r3, r3
 8021328:	69ba      	ldr	r2, [r7, #24]
 802132a:	4013      	ands	r3, r2
 802132c:	61bb      	str	r3, [r7, #24]
        temp |= ((GPIO_Init->Alternate) << ((position & 0x07U) * 4U));
 802132e:	683b      	ldr	r3, [r7, #0]
 8021330:	691a      	ldr	r2, [r3, #16]
 8021332:	69fb      	ldr	r3, [r7, #28]
 8021334:	f003 0307 	and.w	r3, r3, #7
 8021338:	009b      	lsls	r3, r3, #2
 802133a:	fa02 f303 	lsl.w	r3, r2, r3
 802133e:	69ba      	ldr	r2, [r7, #24]
 8021340:	4313      	orrs	r3, r2
 8021342:	61bb      	str	r3, [r7, #24]
        GPIOx->AFR[position >> 3U] = temp;
 8021344:	69fb      	ldr	r3, [r7, #28]
 8021346:	08da      	lsrs	r2, r3, #3
 8021348:	687b      	ldr	r3, [r7, #4]
 802134a:	3208      	adds	r2, #8
 802134c:	69b9      	ldr	r1, [r7, #24]
 802134e:	f843 1022 	str.w	r1, [r3, r2, lsl #2]
      }

      /* Configure IO Direction mode (Input, Output, Alternate or Analog) */
      temp = GPIOx->MODER;
 8021352:	687b      	ldr	r3, [r7, #4]
 8021354:	681b      	ldr	r3, [r3, #0]
 8021356:	61bb      	str	r3, [r7, #24]
      temp &= ~(GPIO_MODER_MODE0 << (position * 2U));
 8021358:	69fb      	ldr	r3, [r7, #28]
 802135a:	005b      	lsls	r3, r3, #1
 802135c:	2203      	movs	r2, #3
 802135e:	fa02 f303 	lsl.w	r3, r2, r3
 8021362:	43db      	mvns	r3, r3
 8021364:	69ba      	ldr	r2, [r7, #24]
 8021366:	4013      	ands	r3, r2
 8021368:	61bb      	str	r3, [r7, #24]
      temp |= ((GPIO_Init->Mode & GPIO_MODE) << (position * 2U));
 802136a:	683b      	ldr	r3, [r7, #0]
 802136c:	685b      	ldr	r3, [r3, #4]
 802136e:	f003 0203 	and.w	r2, r3, #3
 8021372:	69fb      	ldr	r3, [r7, #28]
 8021374:	005b      	lsls	r3, r3, #1
 8021376:	fa02 f303 	lsl.w	r3, r2, r3
 802137a:	69ba      	ldr	r2, [r7, #24]
 802137c:	4313      	orrs	r3, r2
 802137e:	61bb      	str	r3, [r7, #24]
      GPIOx->MODER = temp;
 8021380:	687b      	ldr	r3, [r7, #4]
 8021382:	69ba      	ldr	r2, [r7, #24]
 8021384:	601a      	str	r2, [r3, #0]

      /*--------------------- EXTI Mode Configuration ------------------------*/
      /* Configure the External Interrupt or event for the current IO */
      if ((GPIO_Init->Mode & EXTI_MODE) != 0x00U)
 8021386:	683b      	ldr	r3, [r7, #0]
 8021388:	685b      	ldr	r3, [r3, #4]
 802138a:	f403 3340 	and.w	r3, r3, #196608	; 0x30000
 802138e:	2b00      	cmp	r3, #0
 8021390:	f000 80e0 	beq.w	8021554 <HAL_GPIO_Init+0x338>
      {
        /* Enable SYSCFG Clock */
        __HAL_RCC_SYSCFG_CLK_ENABLE();
 8021394:	4b2f      	ldr	r3, [pc, #188]	; (8021454 <HAL_GPIO_Init+0x238>)
 8021396:	f8d3 30f4 	ldr.w	r3, [r3, #244]	; 0xf4
 802139a:	4a2e      	ldr	r2, [pc, #184]	; (8021454 <HAL_GPIO_Init+0x238>)
 802139c:	f043 0302 	orr.w	r3, r3, #2
 80213a0:	f8c2 30f4 	str.w	r3, [r2, #244]	; 0xf4
 80213a4:	4b2b      	ldr	r3, [pc, #172]	; (8021454 <HAL_GPIO_Init+0x238>)
 80213a6:	f8d3 30f4 	ldr.w	r3, [r3, #244]	; 0xf4
 80213aa:	f003 0302 	and.w	r3, r3, #2
 80213ae:	60fb      	str	r3, [r7, #12]
 80213b0:	68fb      	ldr	r3, [r7, #12]

        temp = SYSCFG->EXTICR[position >> 2U];
 80213b2:	4a29      	ldr	r2, [pc, #164]	; (8021458 <HAL_GPIO_Init+0x23c>)
 80213b4:	69fb      	ldr	r3, [r7, #28]
 80213b6:	089b      	lsrs	r3, r3, #2
 80213b8:	3302      	adds	r3, #2
 80213ba:	f852 3023 	ldr.w	r3, [r2, r3, lsl #2]
 80213be:	61bb      	str	r3, [r7, #24]
        temp &= ~(0x0FUL << (4U * (position & 0x03U)));
 80213c0:	69fb      	ldr	r3, [r7, #28]
 80213c2:	f003 0303 	and.w	r3, r3, #3
 80213c6:	009b      	lsls	r3, r3, #2
 80213c8:	220f      	movs	r2, #15
 80213ca:	fa02 f303 	lsl.w	r3, r2, r3
 80213ce:	43db      	mvns	r3, r3
 80213d0:	69ba      	ldr	r2, [r7, #24]
 80213d2:	4013      	ands	r3, r2
 80213d4:	61bb      	str	r3, [r7, #24]
        temp |= (GPIO_GET_INDEX(GPIOx) << (4U * (position & 0x03U)));
 80213d6:	687b      	ldr	r3, [r7, #4]
 80213d8:	4a20      	ldr	r2, [pc, #128]	; (802145c <HAL_GPIO_Init+0x240>)
 80213da:	4293      	cmp	r3, r2
 80213dc:	d052      	beq.n	8021484 <HAL_GPIO_Init+0x268>
 80213de:	687b      	ldr	r3, [r7, #4]
 80213e0:	4a1f      	ldr	r2, [pc, #124]	; (8021460 <HAL_GPIO_Init+0x244>)
 80213e2:	4293      	cmp	r3, r2
 80213e4:	d031      	beq.n	802144a <HAL_GPIO_Init+0x22e>
 80213e6:	687b      	ldr	r3, [r7, #4]
 80213e8:	4a1e      	ldr	r2, [pc, #120]	; (8021464 <HAL_GPIO_Init+0x248>)
 80213ea:	4293      	cmp	r3, r2
 80213ec:	d02b      	beq.n	8021446 <HAL_GPIO_Init+0x22a>
 80213ee:	687b      	ldr	r3, [r7, #4]
 80213f0:	4a1d      	ldr	r2, [pc, #116]	; (8021468 <HAL_GPIO_Init+0x24c>)
 80213f2:	4293      	cmp	r3, r2
 80213f4:	d025      	beq.n	8021442 <HAL_GPIO_Init+0x226>
 80213f6:	687b      	ldr	r3, [r7, #4]
 80213f8:	4a1c      	ldr	r2, [pc, #112]	; (802146c <HAL_GPIO_Init+0x250>)
 80213fa:	4293      	cmp	r3, r2
 80213fc:	d01f      	beq.n	802143e <HAL_GPIO_Init+0x222>
 80213fe:	687b      	ldr	r3, [r7, #4]
 8021400:	4a1b      	ldr	r2, [pc, #108]	; (8021470 <HAL_GPIO_Init+0x254>)
 8021402:	4293      	cmp	r3, r2
 8021404:	d019      	beq.n	802143a <HAL_GPIO_Init+0x21e>
 8021406:	687b      	ldr	r3, [r7, #4]
 8021408:	4a1a      	ldr	r2, [pc, #104]	; (8021474 <HAL_GPIO_Init+0x258>)
 802140a:	4293      	cmp	r3, r2
 802140c:	d013      	beq.n	8021436 <HAL_GPIO_Init+0x21a>
 802140e:	687b      	ldr	r3, [r7, #4]
 8021410:	4a19      	ldr	r2, [pc, #100]	; (8021478 <HAL_GPIO_Init+0x25c>)
 8021412:	4293      	cmp	r3, r2
 8021414:	d00d      	beq.n	8021432 <HAL_GPIO_Init+0x216>
 8021416:	687b      	ldr	r3, [r7, #4]
 8021418:	4a18      	ldr	r2, [pc, #96]	; (802147c <HAL_GPIO_Init+0x260>)
 802141a:	4293      	cmp	r3, r2
 802141c:	d007      	beq.n	802142e <HAL_GPIO_Init+0x212>
 802141e:	687b      	ldr	r3, [r7, #4]
 8021420:	4a17      	ldr	r2, [pc, #92]	; (8021480 <HAL_GPIO_Init+0x264>)
 8021422:	4293      	cmp	r3, r2
 8021424:	d101      	bne.n	802142a <HAL_GPIO_Init+0x20e>
 8021426:	2309      	movs	r3, #9
 8021428:	e02d      	b.n	8021486 <HAL_GPIO_Init+0x26a>
 802142a:	230a      	movs	r3, #10
 802142c:	e02b      	b.n	8021486 <HAL_GPIO_Init+0x26a>
 802142e:	2308      	movs	r3, #8
 8021430:	e029      	b.n	8021486 <HAL_GPIO_Init+0x26a>
 8021432:	2307      	movs	r3, #7
 8021434:	e027      	b.n	8021486 <HAL_GPIO_Init+0x26a>
 8021436:	2306      	movs	r3, #6
 8021438:	e025      	b.n	8021486 <HAL_GPIO_Init+0x26a>
 802143a:	2305      	movs	r3, #5
 802143c:	e023      	b.n	8021486 <HAL_GPIO_Init+0x26a>
 802143e:	2304      	movs	r3, #4
 8021440:	e021      	b.n	8021486 <HAL_GPIO_Init+0x26a>
 8021442:	2303      	movs	r3, #3
 8021444:	e01f      	b.n	8021486 <HAL_GPIO_Init+0x26a>
 8021446:	2302      	movs	r3, #2
 8021448:	e01d      	b.n	8021486 <HAL_GPIO_Init+0x26a>
 802144a:	2301      	movs	r3, #1
 802144c:	e01b      	b.n	8021486 <HAL_GPIO_Init+0x26a>
 802144e:	bf00      	nop
 8021450:	58000080 	.word	0x58000080
 8021454:	58024400 	.word	0x58024400
 8021458:	58000400 	.word	0x58000400
 802145c:	58020000 	.word	0x58020000
 8021460:	58020400 	.word	0x58020400
 8021464:	58020800 	.word	0x58020800
 8021468:	58020c00 	.word	0x58020c00
 802146c:	58021000 	.word	0x58021000
 8021470:	58021400 	.word	0x58021400
 8021474:	58021800 	.word	0x58021800
 8021478:	58021c00 	.word	0x58021c00
 802147c:	58022000 	.word	0x58022000
 8021480:	58022400 	.word	0x58022400
 8021484:	2300      	movs	r3, #0
 8021486:	69fa      	ldr	r2, [r7, #28]
 8021488:	f002 0203 	and.w	r2, r2, #3
 802148c:	0092      	lsls	r2, r2, #2
 802148e:	4093      	lsls	r3, r2
 8021490:	69ba      	ldr	r2, [r7, #24]
 8021492:	4313      	orrs	r3, r2
 8021494:	61bb      	str	r3, [r7, #24]
        SYSCFG->EXTICR[position >> 2U] = temp;
 8021496:	4938      	ldr	r1, [pc, #224]	; (8021578 <HAL_GPIO_Init+0x35c>)
 8021498:	69fb      	ldr	r3, [r7, #28]
 802149a:	089b      	lsrs	r3, r3, #2
 802149c:	3302      	adds	r3, #2
 802149e:	69ba      	ldr	r2, [r7, #24]
 80214a0:	f841 2023 	str.w	r2, [r1, r3, lsl #2]

        /* Clear Rising Falling edge configuration */
        temp = EXTI->RTSR1;
 80214a4:	f04f 43b0 	mov.w	r3, #1476395008	; 0x58000000
 80214a8:	681b      	ldr	r3, [r3, #0]
 80214aa:	61bb      	str	r3, [r7, #24]
        temp &= ~(iocurrent);
 80214ac:	693b      	ldr	r3, [r7, #16]
 80214ae:	43db      	mvns	r3, r3
 80214b0:	69ba      	ldr	r2, [r7, #24]
 80214b2:	4013      	ands	r3, r2
 80214b4:	61bb      	str	r3, [r7, #24]
        if ((GPIO_Init->Mode & TRIGGER_RISING) != 0x00U)
 80214b6:	683b      	ldr	r3, [r7, #0]
 80214b8:	685b      	ldr	r3, [r3, #4]
 80214ba:	f403 1380 	and.w	r3, r3, #1048576	; 0x100000
 80214be:	2b00      	cmp	r3, #0
 80214c0:	d003      	beq.n	80214ca <HAL_GPIO_Init+0x2ae>
        {
          temp |= iocurrent;
 80214c2:	69ba      	ldr	r2, [r7, #24]
 80214c4:	693b      	ldr	r3, [r7, #16]
 80214c6:	4313      	orrs	r3, r2
 80214c8:	61bb      	str	r3, [r7, #24]
        }
        EXTI->RTSR1 = temp;
 80214ca:	f04f 42b0 	mov.w	r2, #1476395008	; 0x58000000
 80214ce:	69bb      	ldr	r3, [r7, #24]
 80214d0:	6013      	str	r3, [r2, #0]

        temp = EXTI->FTSR1;
 80214d2:	f04f 43b0 	mov.w	r3, #1476395008	; 0x58000000
 80214d6:	685b      	ldr	r3, [r3, #4]
 80214d8:	61bb      	str	r3, [r7, #24]
        temp &= ~(iocurrent);
 80214da:	693b      	ldr	r3, [r7, #16]
 80214dc:	43db      	mvns	r3, r3
 80214de:	69ba      	ldr	r2, [r7, #24]
 80214e0:	4013      	ands	r3, r2
 80214e2:	61bb      	str	r3, [r7, #24]
        if ((GPIO_Init->Mode & TRIGGER_FALLING) != 0x00U)
 80214e4:	683b      	ldr	r3, [r7, #0]
 80214e6:	685b      	ldr	r3, [r3, #4]
 80214e8:	f403 1300 	and.w	r3, r3, #2097152	; 0x200000
 80214ec:	2b00      	cmp	r3, #0
 80214ee:	d003      	beq.n	80214f8 <HAL_GPIO_Init+0x2dc>
        {
          temp |= iocurrent;
 80214f0:	69ba      	ldr	r2, [r7, #24]
 80214f2:	693b      	ldr	r3, [r7, #16]
 80214f4:	4313      	orrs	r3, r2
 80214f6:	61bb      	str	r3, [r7, #24]
        }
        EXTI->FTSR1 = temp;
 80214f8:	f04f 42b0 	mov.w	r2, #1476395008	; 0x58000000
 80214fc:	69bb      	ldr	r3, [r7, #24]
 80214fe:	6053      	str	r3, [r2, #4]

        temp = EXTI_CurrentCPU->EMR1;
 8021500:	697b      	ldr	r3, [r7, #20]
 8021502:	685b      	ldr	r3, [r3, #4]
 8021504:	61bb      	str	r3, [r7, #24]
        temp &= ~(iocurrent);
 8021506:	693b      	ldr	r3, [r7, #16]
 8021508:	43db      	mvns	r3, r3
 802150a:	69ba      	ldr	r2, [r7, #24]
 802150c:	4013      	ands	r3, r2
 802150e:	61bb      	str	r3, [r7, #24]
        if ((GPIO_Init->Mode & EXTI_EVT) != 0x00U)
 8021510:	683b      	ldr	r3, [r7, #0]
 8021512:	685b      	ldr	r3, [r3, #4]
 8021514:	f403 3300 	and.w	r3, r3, #131072	; 0x20000
 8021518:	2b00      	cmp	r3, #0
 802151a:	d003      	beq.n	8021524 <HAL_GPIO_Init+0x308>
        {
          temp |= iocurrent;
 802151c:	69ba      	ldr	r2, [r7, #24]
 802151e:	693b      	ldr	r3, [r7, #16]
 8021520:	4313      	orrs	r3, r2
 8021522:	61bb      	str	r3, [r7, #24]
        }
        EXTI_CurrentCPU->EMR1 = temp;
 8021524:	697b      	ldr	r3, [r7, #20]
 8021526:	69ba      	ldr	r2, [r7, #24]
 8021528:	605a      	str	r2, [r3, #4]

        /* Clear EXTI line configuration */
        temp = EXTI_CurrentCPU->IMR1;
 802152a:	697b      	ldr	r3, [r7, #20]
 802152c:	681b      	ldr	r3, [r3, #0]
 802152e:	61bb      	str	r3, [r7, #24]
        temp &= ~(iocurrent);
 8021530:	693b      	ldr	r3, [r7, #16]
 8021532:	43db      	mvns	r3, r3
 8021534:	69ba      	ldr	r2, [r7, #24]
 8021536:	4013      	ands	r3, r2
 8021538:	61bb      	str	r3, [r7, #24]
        if ((GPIO_Init->Mode & EXTI_IT) != 0x00U)
 802153a:	683b      	ldr	r3, [r7, #0]
 802153c:	685b      	ldr	r3, [r3, #4]
 802153e:	f403 3380 	and.w	r3, r3, #65536	; 0x10000
 8021542:	2b00      	cmp	r3, #0
 8021544:	d003      	beq.n	802154e <HAL_GPIO_Init+0x332>
        {
          temp |= iocurrent;
 8021546:	69ba      	ldr	r2, [r7, #24]
 8021548:	693b      	ldr	r3, [r7, #16]
 802154a:	4313      	orrs	r3, r2
 802154c:	61bb      	str	r3, [r7, #24]
        }
        EXTI_CurrentCPU->IMR1 = temp;
 802154e:	697b      	ldr	r3, [r7, #20]
 8021550:	69ba      	ldr	r2, [r7, #24]
 8021552:	601a      	str	r2, [r3, #0]
      }
    }

    position++;
 8021554:	69fb      	ldr	r3, [r7, #28]
 8021556:	3301      	adds	r3, #1
 8021558:	61fb      	str	r3, [r7, #28]
  while (((GPIO_Init->Pin) >> position) != 0x00U)
 802155a:	683b      	ldr	r3, [r7, #0]
 802155c:	681a      	ldr	r2, [r3, #0]
 802155e:	69fb      	ldr	r3, [r7, #28]
 8021560:	fa22 f303 	lsr.w	r3, r2, r3
 8021564:	2b00      	cmp	r3, #0
 8021566:	f47f ae63 	bne.w	8021230 <HAL_GPIO_Init+0x14>
  }
}
 802156a:	bf00      	nop
 802156c:	bf00      	nop
 802156e:	3724      	adds	r7, #36	; 0x24
 8021570:	46bd      	mov	sp, r7
 8021572:	f85d 7b04 	ldr.w	r7, [sp], #4
 8021576:	4770      	bx	lr
 8021578:	58000400 	.word	0x58000400

0802157c <HAL_GPIO_WritePin>:
  *            @arg GPIO_PIN_RESET: to clear the port pin
  *            @arg GPIO_PIN_SET: to set the port pin
  * @retval None
  */
void HAL_GPIO_WritePin(GPIO_TypeDef *GPIOx, uint16_t GPIO_Pin, GPIO_PinState PinState)
{
 802157c:	b480      	push	{r7}
 802157e:	b083      	sub	sp, #12
 8021580:	af00      	add	r7, sp, #0
 8021582:	6078      	str	r0, [r7, #4]
 8021584:	460b      	mov	r3, r1
 8021586:	807b      	strh	r3, [r7, #2]
 8021588:	4613      	mov	r3, r2
 802158a:	707b      	strb	r3, [r7, #1]
  /* Check the parameters */
  assert_param(IS_GPIO_PIN(GPIO_Pin));
  assert_param(IS_GPIO_PIN_ACTION(PinState));

  if (PinState != GPIO_PIN_RESET)
 802158c:	787b      	ldrb	r3, [r7, #1]
 802158e:	2b00      	cmp	r3, #0
 8021590:	d003      	beq.n	802159a <HAL_GPIO_WritePin+0x1e>
  {
    GPIOx->BSRR = GPIO_Pin;
 8021592:	887a      	ldrh	r2, [r7, #2]
 8021594:	687b      	ldr	r3, [r7, #4]
 8021596:	619a      	str	r2, [r3, #24]
  }
  else
  {
    GPIOx->BSRR = (uint32_t)GPIO_Pin << GPIO_NUMBER;
  }
}
 8021598:	e003      	b.n	80215a2 <HAL_GPIO_WritePin+0x26>
    GPIOx->BSRR = (uint32_t)GPIO_Pin << GPIO_NUMBER;
 802159a:	887b      	ldrh	r3, [r7, #2]
 802159c:	041a      	lsls	r2, r3, #16
 802159e:	687b      	ldr	r3, [r7, #4]
 80215a0:	619a      	str	r2, [r3, #24]
}
 80215a2:	bf00      	nop
 80215a4:	370c      	adds	r7, #12
 80215a6:	46bd      	mov	sp, r7
 80215a8:	f85d 7b04 	ldr.w	r7, [sp], #4
 80215ac:	4770      	bx	lr
	...

080215b0 <HAL_PWREx_ConfigSupply>:
  *         PWR_SMPS_2V5_SUPPLIES_EXT are used only for lines that supports SMPS
  *         regulator.
  * @retval HAL status.
  */
HAL_StatusTypeDef HAL_PWREx_ConfigSupply (uint32_t SupplySource)
{
 80215b0:	b580      	push	{r7, lr}
 80215b2:	b084      	sub	sp, #16
 80215b4:	af00      	add	r7, sp, #0
 80215b6:	6078      	str	r0, [r7, #4]
  /* Check the parameters */
  assert_param (IS_PWR_SUPPLY (SupplySource));

  /* Check if supply source was configured */
#if defined (PWR_FLAG_SCUEN)
  if (__HAL_PWR_GET_FLAG (PWR_FLAG_SCUEN) == 0U)
 80215b8:	4b19      	ldr	r3, [pc, #100]	; (8021620 <HAL_PWREx_ConfigSupply+0x70>)
 80215ba:	68db      	ldr	r3, [r3, #12]
 80215bc:	f003 0304 	and.w	r3, r3, #4
 80215c0:	2b04      	cmp	r3, #4
 80215c2:	d00a      	beq.n	80215da <HAL_PWREx_ConfigSupply+0x2a>
#else
  if ((PWR->CR3 & (PWR_CR3_SMPSEN | PWR_CR3_LDOEN | PWR_CR3_BYPASS)) != (PWR_CR3_SMPSEN | PWR_CR3_LDOEN))
#endif /* defined (PWR_FLAG_SCUEN) */
  {
    /* Check supply configuration */
    if ((PWR->CR3 & PWR_SUPPLY_CONFIG_MASK) != SupplySource)
 80215c4:	4b16      	ldr	r3, [pc, #88]	; (8021620 <HAL_PWREx_ConfigSupply+0x70>)
 80215c6:	68db      	ldr	r3, [r3, #12]
 80215c8:	f003 0307 	and.w	r3, r3, #7
 80215cc:	687a      	ldr	r2, [r7, #4]
 80215ce:	429a      	cmp	r2, r3
 80215d0:	d001      	beq.n	80215d6 <HAL_PWREx_ConfigSupply+0x26>
    {
      /* Supply configuration update locked, can't apply a new supply config */
      return HAL_ERROR;
 80215d2:	2301      	movs	r3, #1
 80215d4:	e01f      	b.n	8021616 <HAL_PWREx_ConfigSupply+0x66>
    else
    {
      /* Supply configuration update locked, but new supply configuration
         matches with old supply configuration : nothing to do
      */
      return HAL_OK;
 80215d6:	2300      	movs	r3, #0
 80215d8:	e01d      	b.n	8021616 <HAL_PWREx_ConfigSupply+0x66>
    }
  }

  /* Set the power supply configuration */
  MODIFY_REG (PWR->CR3, PWR_SUPPLY_CONFIG_MASK, SupplySource);
 80215da:	4b11      	ldr	r3, [pc, #68]	; (8021620 <HAL_PWREx_ConfigSupply+0x70>)
 80215dc:	68db      	ldr	r3, [r3, #12]
 80215de:	f023 0207 	bic.w	r2, r3, #7
 80215e2:	490f      	ldr	r1, [pc, #60]	; (8021620 <HAL_PWREx_ConfigSupply+0x70>)
 80215e4:	687b      	ldr	r3, [r7, #4]
 80215e6:	4313      	orrs	r3, r2
 80215e8:	60cb      	str	r3, [r1, #12]

  /* Get tick */
  tickstart = HAL_GetTick ();
 80215ea:	f7ff fc7b 	bl	8020ee4 <HAL_GetTick>
 80215ee:	60f8      	str	r0, [r7, #12]

  /* Wait till voltage level flag is set */
  while (__HAL_PWR_GET_FLAG (PWR_FLAG_ACTVOSRDY) == 0U)
 80215f0:	e009      	b.n	8021606 <HAL_PWREx_ConfigSupply+0x56>
  {
    if ((HAL_GetTick () - tickstart) > PWR_FLAG_SETTING_DELAY)
 80215f2:	f7ff fc77 	bl	8020ee4 <HAL_GetTick>
 80215f6:	4602      	mov	r2, r0
 80215f8:	68fb      	ldr	r3, [r7, #12]
 80215fa:	1ad3      	subs	r3, r2, r3
 80215fc:	f5b3 7f7a 	cmp.w	r3, #1000	; 0x3e8
 8021600:	d901      	bls.n	8021606 <HAL_PWREx_ConfigSupply+0x56>
    {
      return HAL_ERROR;
 8021602:	2301      	movs	r3, #1
 8021604:	e007      	b.n	8021616 <HAL_PWREx_ConfigSupply+0x66>
  while (__HAL_PWR_GET_FLAG (PWR_FLAG_ACTVOSRDY) == 0U)
 8021606:	4b06      	ldr	r3, [pc, #24]	; (8021620 <HAL_PWREx_ConfigSupply+0x70>)
 8021608:	685b      	ldr	r3, [r3, #4]
 802160a:	f403 5300 	and.w	r3, r3, #8192	; 0x2000
 802160e:	f5b3 5f00 	cmp.w	r3, #8192	; 0x2000
 8021612:	d1ee      	bne.n	80215f2 <HAL_PWREx_ConfigSupply+0x42>
      }
    }
  }
#endif /* defined (SMPS) */

  return HAL_OK;
 8021614:	2300      	movs	r3, #0
}
 8021616:	4618      	mov	r0, r3
 8021618:	3710      	adds	r7, #16
 802161a:	46bd      	mov	sp, r7
 802161c:	bd80      	pop	{r7, pc}
 802161e:	bf00      	nop
 8021620:	58024800 	.word	0x58024800

08021624 <HAL_RCC_OscConfig>:
  *         supported by this function. User should request a transition to HSE Off
  *         first and then HSE On or HSE Bypass.
  * @retval HAL status
  */
__weak HAL_StatusTypeDef HAL_RCC_OscConfig(RCC_OscInitTypeDef  *RCC_OscInitStruct)
{
 8021624:	b580      	push	{r7, lr}
 8021626:	b08c      	sub	sp, #48	; 0x30
 8021628:	af00      	add	r7, sp, #0
 802162a:	6078      	str	r0, [r7, #4]
  uint32_t tickstart;
  uint32_t temp1_pllckcfg, temp2_pllckcfg;

  /* Check Null pointer */
  if (RCC_OscInitStruct == NULL)
 802162c:	687b      	ldr	r3, [r7, #4]
 802162e:	2b00      	cmp	r3, #0
 8021630:	d102      	bne.n	8021638 <HAL_RCC_OscConfig+0x14>
  {
    return HAL_ERROR;
 8021632:	2301      	movs	r3, #1
 8021634:	f000 bc48 	b.w	8021ec8 <HAL_RCC_OscConfig+0x8a4>
  }

  /* Check the parameters */
  assert_param(IS_RCC_OSCILLATORTYPE(RCC_OscInitStruct->OscillatorType));
  /*------------------------------- HSE Configuration ------------------------*/
  if (((RCC_OscInitStruct->OscillatorType) & RCC_OSCILLATORTYPE_HSE) == RCC_OSCILLATORTYPE_HSE)
 8021638:	687b      	ldr	r3, [r7, #4]
 802163a:	681b      	ldr	r3, [r3, #0]
 802163c:	f003 0301 	and.w	r3, r3, #1
 8021640:	2b00      	cmp	r3, #0
 8021642:	f000 8088 	beq.w	8021756 <HAL_RCC_OscConfig+0x132>
  {
    /* Check the parameters */
    assert_param(IS_RCC_HSE(RCC_OscInitStruct->HSEState));

    const uint32_t temp_sysclksrc = __HAL_RCC_GET_SYSCLK_SOURCE();
 8021646:	4b99      	ldr	r3, [pc, #612]	; (80218ac <HAL_RCC_OscConfig+0x288>)
 8021648:	691b      	ldr	r3, [r3, #16]
 802164a:	f003 0338 	and.w	r3, r3, #56	; 0x38
 802164e:	62fb      	str	r3, [r7, #44]	; 0x2c
    const uint32_t temp_pllckselr = RCC->PLLCKSELR;
 8021650:	4b96      	ldr	r3, [pc, #600]	; (80218ac <HAL_RCC_OscConfig+0x288>)
 8021652:	6a9b      	ldr	r3, [r3, #40]	; 0x28
 8021654:	62bb      	str	r3, [r7, #40]	; 0x28
    /* When the HSE is used as system clock or clock source for PLL in these cases HSE will not disabled */
    if ((temp_sysclksrc == RCC_CFGR_SWS_HSE) || ((temp_sysclksrc == RCC_CFGR_SWS_PLL1) && ((temp_pllckselr & RCC_PLLCKSELR_PLLSRC) == RCC_PLLCKSELR_PLLSRC_HSE)))
 8021656:	6afb      	ldr	r3, [r7, #44]	; 0x2c
 8021658:	2b10      	cmp	r3, #16
 802165a:	d007      	beq.n	802166c <HAL_RCC_OscConfig+0x48>
 802165c:	6afb      	ldr	r3, [r7, #44]	; 0x2c
 802165e:	2b18      	cmp	r3, #24
 8021660:	d111      	bne.n	8021686 <HAL_RCC_OscConfig+0x62>
 8021662:	6abb      	ldr	r3, [r7, #40]	; 0x28
 8021664:	f003 0303 	and.w	r3, r3, #3
 8021668:	2b02      	cmp	r3, #2
 802166a:	d10c      	bne.n	8021686 <HAL_RCC_OscConfig+0x62>
    {
      if ((__HAL_RCC_GET_FLAG(RCC_FLAG_HSERDY) != 0U) && (RCC_OscInitStruct->HSEState == RCC_HSE_OFF))
 802166c:	4b8f      	ldr	r3, [pc, #572]	; (80218ac <HAL_RCC_OscConfig+0x288>)
 802166e:	681b      	ldr	r3, [r3, #0]
 8021670:	f403 3300 	and.w	r3, r3, #131072	; 0x20000
 8021674:	2b00      	cmp	r3, #0
 8021676:	d06d      	beq.n	8021754 <HAL_RCC_OscConfig+0x130>
 8021678:	687b      	ldr	r3, [r7, #4]
 802167a:	685b      	ldr	r3, [r3, #4]
 802167c:	2b00      	cmp	r3, #0
 802167e:	d169      	bne.n	8021754 <HAL_RCC_OscConfig+0x130>
      {
        return HAL_ERROR;
 8021680:	2301      	movs	r3, #1
 8021682:	f000 bc21 	b.w	8021ec8 <HAL_RCC_OscConfig+0x8a4>
      }
    }
    else
    {
      /* Set the new HSE configuration ---------------------------------------*/
      __HAL_RCC_HSE_CONFIG(RCC_OscInitStruct->HSEState);
 8021686:	687b      	ldr	r3, [r7, #4]
 8021688:	685b      	ldr	r3, [r3, #4]
 802168a:	f5b3 3f80 	cmp.w	r3, #65536	; 0x10000
 802168e:	d106      	bne.n	802169e <HAL_RCC_OscConfig+0x7a>
 8021690:	4b86      	ldr	r3, [pc, #536]	; (80218ac <HAL_RCC_OscConfig+0x288>)
 8021692:	681b      	ldr	r3, [r3, #0]
 8021694:	4a85      	ldr	r2, [pc, #532]	; (80218ac <HAL_RCC_OscConfig+0x288>)
 8021696:	f443 3380 	orr.w	r3, r3, #65536	; 0x10000
 802169a:	6013      	str	r3, [r2, #0]
 802169c:	e02e      	b.n	80216fc <HAL_RCC_OscConfig+0xd8>
 802169e:	687b      	ldr	r3, [r7, #4]
 80216a0:	685b      	ldr	r3, [r3, #4]
 80216a2:	2b00      	cmp	r3, #0
 80216a4:	d10c      	bne.n	80216c0 <HAL_RCC_OscConfig+0x9c>
 80216a6:	4b81      	ldr	r3, [pc, #516]	; (80218ac <HAL_RCC_OscConfig+0x288>)
 80216a8:	681b      	ldr	r3, [r3, #0]
 80216aa:	4a80      	ldr	r2, [pc, #512]	; (80218ac <HAL_RCC_OscConfig+0x288>)
 80216ac:	f423 3380 	bic.w	r3, r3, #65536	; 0x10000
 80216b0:	6013      	str	r3, [r2, #0]
 80216b2:	4b7e      	ldr	r3, [pc, #504]	; (80218ac <HAL_RCC_OscConfig+0x288>)
 80216b4:	681b      	ldr	r3, [r3, #0]
 80216b6:	4a7d      	ldr	r2, [pc, #500]	; (80218ac <HAL_RCC_OscConfig+0x288>)
 80216b8:	f423 2380 	bic.w	r3, r3, #262144	; 0x40000
 80216bc:	6013      	str	r3, [r2, #0]
 80216be:	e01d      	b.n	80216fc <HAL_RCC_OscConfig+0xd8>
 80216c0:	687b      	ldr	r3, [r7, #4]
 80216c2:	685b      	ldr	r3, [r3, #4]
 80216c4:	f5b3 2fa0 	cmp.w	r3, #327680	; 0x50000
 80216c8:	d10c      	bne.n	80216e4 <HAL_RCC_OscConfig+0xc0>
 80216ca:	4b78      	ldr	r3, [pc, #480]	; (80218ac <HAL_RCC_OscConfig+0x288>)
 80216cc:	681b      	ldr	r3, [r3, #0]
 80216ce:	4a77      	ldr	r2, [pc, #476]	; (80218ac <HAL_RCC_OscConfig+0x288>)
 80216d0:	f443 2380 	orr.w	r3, r3, #262144	; 0x40000
 80216d4:	6013      	str	r3, [r2, #0]
 80216d6:	4b75      	ldr	r3, [pc, #468]	; (80218ac <HAL_RCC_OscConfig+0x288>)
 80216d8:	681b      	ldr	r3, [r3, #0]
 80216da:	4a74      	ldr	r2, [pc, #464]	; (80218ac <HAL_RCC_OscConfig+0x288>)
 80216dc:	f443 3380 	orr.w	r3, r3, #65536	; 0x10000
 80216e0:	6013      	str	r3, [r2, #0]
 80216e2:	e00b      	b.n	80216fc <HAL_RCC_OscConfig+0xd8>
 80216e4:	4b71      	ldr	r3, [pc, #452]	; (80218ac <HAL_RCC_OscConfig+0x288>)
 80216e6:	681b      	ldr	r3, [r3, #0]
 80216e8:	4a70      	ldr	r2, [pc, #448]	; (80218ac <HAL_RCC_OscConfig+0x288>)
 80216ea:	f423 3380 	bic.w	r3, r3, #65536	; 0x10000
 80216ee:	6013      	str	r3, [r2, #0]
 80216f0:	4b6e      	ldr	r3, [pc, #440]	; (80218ac <HAL_RCC_OscConfig+0x288>)
 80216f2:	681b      	ldr	r3, [r3, #0]
 80216f4:	4a6d      	ldr	r2, [pc, #436]	; (80218ac <HAL_RCC_OscConfig+0x288>)
 80216f6:	f423 2380 	bic.w	r3, r3, #262144	; 0x40000
 80216fa:	6013      	str	r3, [r2, #0]

      /* Check the HSE State */
      if (RCC_OscInitStruct->HSEState != RCC_HSE_OFF)
 80216fc:	687b      	ldr	r3, [r7, #4]
 80216fe:	685b      	ldr	r3, [r3, #4]
 8021700:	2b00      	cmp	r3, #0
 8021702:	d013      	beq.n	802172c <HAL_RCC_OscConfig+0x108>
      {
        /* Get Start Tick*/
        tickstart = HAL_GetTick();
 8021704:	f7ff fbee 	bl	8020ee4 <HAL_GetTick>
 8021708:	6278      	str	r0, [r7, #36]	; 0x24

        /* Wait till HSE is ready */
        while (__HAL_RCC_GET_FLAG(RCC_FLAG_HSERDY) == 0U)
 802170a:	e008      	b.n	802171e <HAL_RCC_OscConfig+0xfa>
        {
          if ((uint32_t)(HAL_GetTick() - tickstart) > HSE_TIMEOUT_VALUE)
 802170c:	f7ff fbea 	bl	8020ee4 <HAL_GetTick>
 8021710:	4602      	mov	r2, r0
 8021712:	6a7b      	ldr	r3, [r7, #36]	; 0x24
 8021714:	1ad3      	subs	r3, r2, r3
 8021716:	2b64      	cmp	r3, #100	; 0x64
 8021718:	d901      	bls.n	802171e <HAL_RCC_OscConfig+0xfa>
          {
            return HAL_TIMEOUT;
 802171a:	2303      	movs	r3, #3
 802171c:	e3d4      	b.n	8021ec8 <HAL_RCC_OscConfig+0x8a4>
        while (__HAL_RCC_GET_FLAG(RCC_FLAG_HSERDY) == 0U)
 802171e:	4b63      	ldr	r3, [pc, #396]	; (80218ac <HAL_RCC_OscConfig+0x288>)
 8021720:	681b      	ldr	r3, [r3, #0]
 8021722:	f403 3300 	and.w	r3, r3, #131072	; 0x20000
 8021726:	2b00      	cmp	r3, #0
 8021728:	d0f0      	beq.n	802170c <HAL_RCC_OscConfig+0xe8>
 802172a:	e014      	b.n	8021756 <HAL_RCC_OscConfig+0x132>
        }
      }
      else
      {
        /* Get Start Tick*/
        tickstart = HAL_GetTick();
 802172c:	f7ff fbda 	bl	8020ee4 <HAL_GetTick>
 8021730:	6278      	str	r0, [r7, #36]	; 0x24

        /* Wait till HSE is disabled */
        while (__HAL_RCC_GET_FLAG(RCC_FLAG_HSERDY) != 0U)
 8021732:	e008      	b.n	8021746 <HAL_RCC_OscConfig+0x122>
        {
          if ((uint32_t)(HAL_GetTick() - tickstart) > HSE_TIMEOUT_VALUE)
 8021734:	f7ff fbd6 	bl	8020ee4 <HAL_GetTick>
 8021738:	4602      	mov	r2, r0
 802173a:	6a7b      	ldr	r3, [r7, #36]	; 0x24
 802173c:	1ad3      	subs	r3, r2, r3
 802173e:	2b64      	cmp	r3, #100	; 0x64
 8021740:	d901      	bls.n	8021746 <HAL_RCC_OscConfig+0x122>
          {
            return HAL_TIMEOUT;
 8021742:	2303      	movs	r3, #3
 8021744:	e3c0      	b.n	8021ec8 <HAL_RCC_OscConfig+0x8a4>
        while (__HAL_RCC_GET_FLAG(RCC_FLAG_HSERDY) != 0U)
 8021746:	4b59      	ldr	r3, [pc, #356]	; (80218ac <HAL_RCC_OscConfig+0x288>)
 8021748:	681b      	ldr	r3, [r3, #0]
 802174a:	f403 3300 	and.w	r3, r3, #131072	; 0x20000
 802174e:	2b00      	cmp	r3, #0
 8021750:	d1f0      	bne.n	8021734 <HAL_RCC_OscConfig+0x110>
 8021752:	e000      	b.n	8021756 <HAL_RCC_OscConfig+0x132>
      if ((__HAL_RCC_GET_FLAG(RCC_FLAG_HSERDY) != 0U) && (RCC_OscInitStruct->HSEState == RCC_HSE_OFF))
 8021754:	bf00      	nop
        }
      }
    }
  }
  /*----------------------------- HSI Configuration --------------------------*/
  if (((RCC_OscInitStruct->OscillatorType) & RCC_OSCILLATORTYPE_HSI) == RCC_OSCILLATORTYPE_HSI)
 8021756:	687b      	ldr	r3, [r7, #4]
 8021758:	681b      	ldr	r3, [r3, #0]
 802175a:	f003 0302 	and.w	r3, r3, #2
 802175e:	2b00      	cmp	r3, #0
 8021760:	f000 80ca 	beq.w	80218f8 <HAL_RCC_OscConfig+0x2d4>
    /* Check the parameters */
    assert_param(IS_RCC_HSI(RCC_OscInitStruct->HSIState));
    assert_param(IS_RCC_HSICALIBRATION_VALUE(RCC_OscInitStruct->HSICalibrationValue));

    /* When the HSI is used as system clock it will not be disabled */
    const uint32_t temp_sysclksrc = __HAL_RCC_GET_SYSCLK_SOURCE();
 8021764:	4b51      	ldr	r3, [pc, #324]	; (80218ac <HAL_RCC_OscConfig+0x288>)
 8021766:	691b      	ldr	r3, [r3, #16]
 8021768:	f003 0338 	and.w	r3, r3, #56	; 0x38
 802176c:	623b      	str	r3, [r7, #32]
    const uint32_t temp_pllckselr = RCC->PLLCKSELR;
 802176e:	4b4f      	ldr	r3, [pc, #316]	; (80218ac <HAL_RCC_OscConfig+0x288>)
 8021770:	6a9b      	ldr	r3, [r3, #40]	; 0x28
 8021772:	61fb      	str	r3, [r7, #28]
    if ((temp_sysclksrc == RCC_CFGR_SWS_HSI) || ((temp_sysclksrc == RCC_CFGR_SWS_PLL1) && ((temp_pllckselr & RCC_PLLCKSELR_PLLSRC) == RCC_PLLCKSELR_PLLSRC_HSI)))
 8021774:	6a3b      	ldr	r3, [r7, #32]
 8021776:	2b00      	cmp	r3, #0
 8021778:	d007      	beq.n	802178a <HAL_RCC_OscConfig+0x166>
 802177a:	6a3b      	ldr	r3, [r7, #32]
 802177c:	2b18      	cmp	r3, #24
 802177e:	d156      	bne.n	802182e <HAL_RCC_OscConfig+0x20a>
 8021780:	69fb      	ldr	r3, [r7, #28]
 8021782:	f003 0303 	and.w	r3, r3, #3
 8021786:	2b00      	cmp	r3, #0
 8021788:	d151      	bne.n	802182e <HAL_RCC_OscConfig+0x20a>
    {
      /* When HSI is used as system clock it will not be disabled */
      if ((__HAL_RCC_GET_FLAG(RCC_FLAG_HSIRDY) != 0U) && (RCC_OscInitStruct->HSIState == RCC_HSI_OFF))
 802178a:	4b48      	ldr	r3, [pc, #288]	; (80218ac <HAL_RCC_OscConfig+0x288>)
 802178c:	681b      	ldr	r3, [r3, #0]
 802178e:	f003 0304 	and.w	r3, r3, #4
 8021792:	2b00      	cmp	r3, #0
 8021794:	d005      	beq.n	80217a2 <HAL_RCC_OscConfig+0x17e>
 8021796:	687b      	ldr	r3, [r7, #4]
 8021798:	68db      	ldr	r3, [r3, #12]
 802179a:	2b00      	cmp	r3, #0
 802179c:	d101      	bne.n	80217a2 <HAL_RCC_OscConfig+0x17e>
      {
        return HAL_ERROR;
 802179e:	2301      	movs	r3, #1
 80217a0:	e392      	b.n	8021ec8 <HAL_RCC_OscConfig+0x8a4>
      }
      /* Otherwise, only HSI division and calibration are allowed */
      else
      {
        /* Enable the Internal High Speed oscillator (HSI, HSIDIV2, HSIDIV4, or HSIDIV8) */
        __HAL_RCC_HSI_CONFIG(RCC_OscInitStruct->HSIState);
 80217a2:	4b42      	ldr	r3, [pc, #264]	; (80218ac <HAL_RCC_OscConfig+0x288>)
 80217a4:	681b      	ldr	r3, [r3, #0]
 80217a6:	f023 0219 	bic.w	r2, r3, #25
 80217aa:	687b      	ldr	r3, [r7, #4]
 80217ac:	68db      	ldr	r3, [r3, #12]
 80217ae:	493f      	ldr	r1, [pc, #252]	; (80218ac <HAL_RCC_OscConfig+0x288>)
 80217b0:	4313      	orrs	r3, r2
 80217b2:	600b      	str	r3, [r1, #0]

        /* Get Start Tick*/
        tickstart = HAL_GetTick();
 80217b4:	f7ff fb96 	bl	8020ee4 <HAL_GetTick>
 80217b8:	6278      	str	r0, [r7, #36]	; 0x24

        /* Wait till HSI is ready */
        while (__HAL_RCC_GET_FLAG(RCC_FLAG_HSIRDY) == 0U)
 80217ba:	e008      	b.n	80217ce <HAL_RCC_OscConfig+0x1aa>
        {
          if ((uint32_t)(HAL_GetTick() - tickstart) > HSI_TIMEOUT_VALUE)
 80217bc:	f7ff fb92 	bl	8020ee4 <HAL_GetTick>
 80217c0:	4602      	mov	r2, r0
 80217c2:	6a7b      	ldr	r3, [r7, #36]	; 0x24
 80217c4:	1ad3      	subs	r3, r2, r3
 80217c6:	2b02      	cmp	r3, #2
 80217c8:	d901      	bls.n	80217ce <HAL_RCC_OscConfig+0x1aa>
          {
            return HAL_TIMEOUT;
 80217ca:	2303      	movs	r3, #3
 80217cc:	e37c      	b.n	8021ec8 <HAL_RCC_OscConfig+0x8a4>
        while (__HAL_RCC_GET_FLAG(RCC_FLAG_HSIRDY) == 0U)
 80217ce:	4b37      	ldr	r3, [pc, #220]	; (80218ac <HAL_RCC_OscConfig+0x288>)
 80217d0:	681b      	ldr	r3, [r3, #0]
 80217d2:	f003 0304 	and.w	r3, r3, #4
 80217d6:	2b00      	cmp	r3, #0
 80217d8:	d0f0      	beq.n	80217bc <HAL_RCC_OscConfig+0x198>
          }
        }
        /* Adjusts the Internal High Speed oscillator (HSI) calibration value.*/
        __HAL_RCC_HSI_CALIBRATIONVALUE_ADJUST(RCC_OscInitStruct->HSICalibrationValue);
 80217da:	f7ff fbb3 	bl	8020f44 <HAL_GetREVID>
 80217de:	4603      	mov	r3, r0
 80217e0:	f241 0203 	movw	r2, #4099	; 0x1003
 80217e4:	4293      	cmp	r3, r2
 80217e6:	d817      	bhi.n	8021818 <HAL_RCC_OscConfig+0x1f4>
 80217e8:	687b      	ldr	r3, [r7, #4]
 80217ea:	691b      	ldr	r3, [r3, #16]
 80217ec:	2b40      	cmp	r3, #64	; 0x40
 80217ee:	d108      	bne.n	8021802 <HAL_RCC_OscConfig+0x1de>
 80217f0:	4b2e      	ldr	r3, [pc, #184]	; (80218ac <HAL_RCC_OscConfig+0x288>)
 80217f2:	685b      	ldr	r3, [r3, #4]
 80217f4:	f423 337c 	bic.w	r3, r3, #258048	; 0x3f000
 80217f8:	4a2c      	ldr	r2, [pc, #176]	; (80218ac <HAL_RCC_OscConfig+0x288>)
 80217fa:	f443 3300 	orr.w	r3, r3, #131072	; 0x20000
 80217fe:	6053      	str	r3, [r2, #4]
      if ((__HAL_RCC_GET_FLAG(RCC_FLAG_HSIRDY) != 0U) && (RCC_OscInitStruct->HSIState == RCC_HSI_OFF))
 8021800:	e07a      	b.n	80218f8 <HAL_RCC_OscConfig+0x2d4>
        __HAL_RCC_HSI_CALIBRATIONVALUE_ADJUST(RCC_OscInitStruct->HSICalibrationValue);
 8021802:	4b2a      	ldr	r3, [pc, #168]	; (80218ac <HAL_RCC_OscConfig+0x288>)
 8021804:	685b      	ldr	r3, [r3, #4]
 8021806:	f423 327c 	bic.w	r2, r3, #258048	; 0x3f000
 802180a:	687b      	ldr	r3, [r7, #4]
 802180c:	691b      	ldr	r3, [r3, #16]
 802180e:	031b      	lsls	r3, r3, #12
 8021810:	4926      	ldr	r1, [pc, #152]	; (80218ac <HAL_RCC_OscConfig+0x288>)
 8021812:	4313      	orrs	r3, r2
 8021814:	604b      	str	r3, [r1, #4]
      if ((__HAL_RCC_GET_FLAG(RCC_FLAG_HSIRDY) != 0U) && (RCC_OscInitStruct->HSIState == RCC_HSI_OFF))
 8021816:	e06f      	b.n	80218f8 <HAL_RCC_OscConfig+0x2d4>
        __HAL_RCC_HSI_CALIBRATIONVALUE_ADJUST(RCC_OscInitStruct->HSICalibrationValue);
 8021818:	4b24      	ldr	r3, [pc, #144]	; (80218ac <HAL_RCC_OscConfig+0x288>)
 802181a:	685b      	ldr	r3, [r3, #4]
 802181c:	f023 42fe 	bic.w	r2, r3, #2130706432	; 0x7f000000
 8021820:	687b      	ldr	r3, [r7, #4]
 8021822:	691b      	ldr	r3, [r3, #16]
 8021824:	061b      	lsls	r3, r3, #24
 8021826:	4921      	ldr	r1, [pc, #132]	; (80218ac <HAL_RCC_OscConfig+0x288>)
 8021828:	4313      	orrs	r3, r2
 802182a:	604b      	str	r3, [r1, #4]
      if ((__HAL_RCC_GET_FLAG(RCC_FLAG_HSIRDY) != 0U) && (RCC_OscInitStruct->HSIState == RCC_HSI_OFF))
 802182c:	e064      	b.n	80218f8 <HAL_RCC_OscConfig+0x2d4>
    }

    else
    {
      /* Check the HSI State */
      if ((RCC_OscInitStruct->HSIState) != RCC_HSI_OFF)
 802182e:	687b      	ldr	r3, [r7, #4]
 8021830:	68db      	ldr	r3, [r3, #12]
 8021832:	2b00      	cmp	r3, #0
 8021834:	d047      	beq.n	80218c6 <HAL_RCC_OscConfig+0x2a2>
      {
        /* Enable the Internal High Speed oscillator (HSI, HSIDIV2,HSIDIV4, or HSIDIV8) */
        __HAL_RCC_HSI_CONFIG(RCC_OscInitStruct->HSIState);
 8021836:	4b1d      	ldr	r3, [pc, #116]	; (80218ac <HAL_RCC_OscConfig+0x288>)
 8021838:	681b      	ldr	r3, [r3, #0]
 802183a:	f023 0219 	bic.w	r2, r3, #25
 802183e:	687b      	ldr	r3, [r7, #4]
 8021840:	68db      	ldr	r3, [r3, #12]
 8021842:	491a      	ldr	r1, [pc, #104]	; (80218ac <HAL_RCC_OscConfig+0x288>)
 8021844:	4313      	orrs	r3, r2
 8021846:	600b      	str	r3, [r1, #0]

        /* Get Start Tick*/
        tickstart = HAL_GetTick();
 8021848:	f7ff fb4c 	bl	8020ee4 <HAL_GetTick>
 802184c:	6278      	str	r0, [r7, #36]	; 0x24

        /* Wait till HSI is ready */
        while (__HAL_RCC_GET_FLAG(RCC_FLAG_HSIRDY) == 0U)
 802184e:	e008      	b.n	8021862 <HAL_RCC_OscConfig+0x23e>
        {
          if ((HAL_GetTick() - tickstart) > HSI_TIMEOUT_VALUE)
 8021850:	f7ff fb48 	bl	8020ee4 <HAL_GetTick>
 8021854:	4602      	mov	r2, r0
 8021856:	6a7b      	ldr	r3, [r7, #36]	; 0x24
 8021858:	1ad3      	subs	r3, r2, r3
 802185a:	2b02      	cmp	r3, #2
 802185c:	d901      	bls.n	8021862 <HAL_RCC_OscConfig+0x23e>
          {
            return HAL_TIMEOUT;
 802185e:	2303      	movs	r3, #3
 8021860:	e332      	b.n	8021ec8 <HAL_RCC_OscConfig+0x8a4>
        while (__HAL_RCC_GET_FLAG(RCC_FLAG_HSIRDY) == 0U)
 8021862:	4b12      	ldr	r3, [pc, #72]	; (80218ac <HAL_RCC_OscConfig+0x288>)
 8021864:	681b      	ldr	r3, [r3, #0]
 8021866:	f003 0304 	and.w	r3, r3, #4
 802186a:	2b00      	cmp	r3, #0
 802186c:	d0f0      	beq.n	8021850 <HAL_RCC_OscConfig+0x22c>
          }
        }

        /* Adjusts the Internal High Speed oscillator (HSI) calibration value.*/
        __HAL_RCC_HSI_CALIBRATIONVALUE_ADJUST(RCC_OscInitStruct->HSICalibrationValue);
 802186e:	f7ff fb69 	bl	8020f44 <HAL_GetREVID>
 8021872:	4603      	mov	r3, r0
 8021874:	f241 0203 	movw	r2, #4099	; 0x1003
 8021878:	4293      	cmp	r3, r2
 802187a:	d819      	bhi.n	80218b0 <HAL_RCC_OscConfig+0x28c>
 802187c:	687b      	ldr	r3, [r7, #4]
 802187e:	691b      	ldr	r3, [r3, #16]
 8021880:	2b40      	cmp	r3, #64	; 0x40
 8021882:	d108      	bne.n	8021896 <HAL_RCC_OscConfig+0x272>
 8021884:	4b09      	ldr	r3, [pc, #36]	; (80218ac <HAL_RCC_OscConfig+0x288>)
 8021886:	685b      	ldr	r3, [r3, #4]
 8021888:	f423 337c 	bic.w	r3, r3, #258048	; 0x3f000
 802188c:	4a07      	ldr	r2, [pc, #28]	; (80218ac <HAL_RCC_OscConfig+0x288>)
 802188e:	f443 3300 	orr.w	r3, r3, #131072	; 0x20000
 8021892:	6053      	str	r3, [r2, #4]
 8021894:	e030      	b.n	80218f8 <HAL_RCC_OscConfig+0x2d4>
 8021896:	4b05      	ldr	r3, [pc, #20]	; (80218ac <HAL_RCC_OscConfig+0x288>)
 8021898:	685b      	ldr	r3, [r3, #4]
 802189a:	f423 327c 	bic.w	r2, r3, #258048	; 0x3f000
 802189e:	687b      	ldr	r3, [r7, #4]
 80218a0:	691b      	ldr	r3, [r3, #16]
 80218a2:	031b      	lsls	r3, r3, #12
 80218a4:	4901      	ldr	r1, [pc, #4]	; (80218ac <HAL_RCC_OscConfig+0x288>)
 80218a6:	4313      	orrs	r3, r2
 80218a8:	604b      	str	r3, [r1, #4]
 80218aa:	e025      	b.n	80218f8 <HAL_RCC_OscConfig+0x2d4>
 80218ac:	58024400 	.word	0x58024400
 80218b0:	4b9a      	ldr	r3, [pc, #616]	; (8021b1c <HAL_RCC_OscConfig+0x4f8>)
 80218b2:	685b      	ldr	r3, [r3, #4]
 80218b4:	f023 42fe 	bic.w	r2, r3, #2130706432	; 0x7f000000
 80218b8:	687b      	ldr	r3, [r7, #4]
 80218ba:	691b      	ldr	r3, [r3, #16]
 80218bc:	061b      	lsls	r3, r3, #24
 80218be:	4997      	ldr	r1, [pc, #604]	; (8021b1c <HAL_RCC_OscConfig+0x4f8>)
 80218c0:	4313      	orrs	r3, r2
 80218c2:	604b      	str	r3, [r1, #4]
 80218c4:	e018      	b.n	80218f8 <HAL_RCC_OscConfig+0x2d4>
      }
      else
      {
        /* Disable the Internal High Speed oscillator (HSI). */
        __HAL_RCC_HSI_DISABLE();
 80218c6:	4b95      	ldr	r3, [pc, #596]	; (8021b1c <HAL_RCC_OscConfig+0x4f8>)
 80218c8:	681b      	ldr	r3, [r3, #0]
 80218ca:	4a94      	ldr	r2, [pc, #592]	; (8021b1c <HAL_RCC_OscConfig+0x4f8>)
 80218cc:	f023 0301 	bic.w	r3, r3, #1
 80218d0:	6013      	str	r3, [r2, #0]

        /* Get Start Tick*/
        tickstart = HAL_GetTick();
 80218d2:	f7ff fb07 	bl	8020ee4 <HAL_GetTick>
 80218d6:	6278      	str	r0, [r7, #36]	; 0x24

        /* Wait till HSI is disabled */
        while (__HAL_RCC_GET_FLAG(RCC_FLAG_HSIRDY) != 0U)
 80218d8:	e008      	b.n	80218ec <HAL_RCC_OscConfig+0x2c8>
        {
          if ((HAL_GetTick() - tickstart) > HSI_TIMEOUT_VALUE)
 80218da:	f7ff fb03 	bl	8020ee4 <HAL_GetTick>
 80218de:	4602      	mov	r2, r0
 80218e0:	6a7b      	ldr	r3, [r7, #36]	; 0x24
 80218e2:	1ad3      	subs	r3, r2, r3
 80218e4:	2b02      	cmp	r3, #2
 80218e6:	d901      	bls.n	80218ec <HAL_RCC_OscConfig+0x2c8>
          {
            return HAL_TIMEOUT;
 80218e8:	2303      	movs	r3, #3
 80218ea:	e2ed      	b.n	8021ec8 <HAL_RCC_OscConfig+0x8a4>
        while (__HAL_RCC_GET_FLAG(RCC_FLAG_HSIRDY) != 0U)
 80218ec:	4b8b      	ldr	r3, [pc, #556]	; (8021b1c <HAL_RCC_OscConfig+0x4f8>)
 80218ee:	681b      	ldr	r3, [r3, #0]
 80218f0:	f003 0304 	and.w	r3, r3, #4
 80218f4:	2b00      	cmp	r3, #0
 80218f6:	d1f0      	bne.n	80218da <HAL_RCC_OscConfig+0x2b6>
        }
      }
    }
  }
  /*----------------------------- CSI Configuration --------------------------*/
  if (((RCC_OscInitStruct->OscillatorType) & RCC_OSCILLATORTYPE_CSI) == RCC_OSCILLATORTYPE_CSI)
 80218f8:	687b      	ldr	r3, [r7, #4]
 80218fa:	681b      	ldr	r3, [r3, #0]
 80218fc:	f003 0310 	and.w	r3, r3, #16
 8021900:	2b00      	cmp	r3, #0
 8021902:	f000 80a9 	beq.w	8021a58 <HAL_RCC_OscConfig+0x434>
    /* Check the parameters */
    assert_param(IS_RCC_CSI(RCC_OscInitStruct->CSIState));
    assert_param(IS_RCC_CSICALIBRATION_VALUE(RCC_OscInitStruct->CSICalibrationValue));

    /* When the CSI is used as system clock it will not disabled */
    const uint32_t temp_sysclksrc = __HAL_RCC_GET_SYSCLK_SOURCE();
 8021906:	4b85      	ldr	r3, [pc, #532]	; (8021b1c <HAL_RCC_OscConfig+0x4f8>)
 8021908:	691b      	ldr	r3, [r3, #16]
 802190a:	f003 0338 	and.w	r3, r3, #56	; 0x38
 802190e:	61bb      	str	r3, [r7, #24]
    const uint32_t temp_pllckselr = RCC->PLLCKSELR;
 8021910:	4b82      	ldr	r3, [pc, #520]	; (8021b1c <HAL_RCC_OscConfig+0x4f8>)
 8021912:	6a9b      	ldr	r3, [r3, #40]	; 0x28
 8021914:	617b      	str	r3, [r7, #20]
    if ((temp_sysclksrc == RCC_CFGR_SWS_CSI) || ((temp_sysclksrc == RCC_CFGR_SWS_PLL1) && ((temp_pllckselr & RCC_PLLCKSELR_PLLSRC) == RCC_PLLCKSELR_PLLSRC_CSI)))
 8021916:	69bb      	ldr	r3, [r7, #24]
 8021918:	2b08      	cmp	r3, #8
 802191a:	d007      	beq.n	802192c <HAL_RCC_OscConfig+0x308>
 802191c:	69bb      	ldr	r3, [r7, #24]
 802191e:	2b18      	cmp	r3, #24
 8021920:	d13a      	bne.n	8021998 <HAL_RCC_OscConfig+0x374>
 8021922:	697b      	ldr	r3, [r7, #20]
 8021924:	f003 0303 	and.w	r3, r3, #3
 8021928:	2b01      	cmp	r3, #1
 802192a:	d135      	bne.n	8021998 <HAL_RCC_OscConfig+0x374>
    {
      /* When CSI is used as system clock it will not disabled */
      if ((__HAL_RCC_GET_FLAG(RCC_FLAG_CSIRDY) != 0U) && (RCC_OscInitStruct->CSIState != RCC_CSI_ON))
 802192c:	4b7b      	ldr	r3, [pc, #492]	; (8021b1c <HAL_RCC_OscConfig+0x4f8>)
 802192e:	681b      	ldr	r3, [r3, #0]
 8021930:	f403 7380 	and.w	r3, r3, #256	; 0x100
 8021934:	2b00      	cmp	r3, #0
 8021936:	d005      	beq.n	8021944 <HAL_RCC_OscConfig+0x320>
 8021938:	687b      	ldr	r3, [r7, #4]
 802193a:	69db      	ldr	r3, [r3, #28]
 802193c:	2b80      	cmp	r3, #128	; 0x80
 802193e:	d001      	beq.n	8021944 <HAL_RCC_OscConfig+0x320>
      {
        return HAL_ERROR;
 8021940:	2301      	movs	r3, #1
 8021942:	e2c1      	b.n	8021ec8 <HAL_RCC_OscConfig+0x8a4>
      }
      /* Otherwise, just the calibration is allowed */
      else
      {
        /* Adjusts the Internal High Speed oscillator (CSI) calibration value.*/
        __HAL_RCC_CSI_CALIBRATIONVALUE_ADJUST(RCC_OscInitStruct->CSICalibrationValue);
 8021944:	f7ff fafe 	bl	8020f44 <HAL_GetREVID>
 8021948:	4603      	mov	r3, r0
 802194a:	f241 0203 	movw	r2, #4099	; 0x1003
 802194e:	4293      	cmp	r3, r2
 8021950:	d817      	bhi.n	8021982 <HAL_RCC_OscConfig+0x35e>
 8021952:	687b      	ldr	r3, [r7, #4]
 8021954:	6a1b      	ldr	r3, [r3, #32]
 8021956:	2b20      	cmp	r3, #32
 8021958:	d108      	bne.n	802196c <HAL_RCC_OscConfig+0x348>
 802195a:	4b70      	ldr	r3, [pc, #448]	; (8021b1c <HAL_RCC_OscConfig+0x4f8>)
 802195c:	685b      	ldr	r3, [r3, #4]
 802195e:	f023 43f8 	bic.w	r3, r3, #2080374784	; 0x7c000000
 8021962:	4a6e      	ldr	r2, [pc, #440]	; (8021b1c <HAL_RCC_OscConfig+0x4f8>)
 8021964:	f043 4380 	orr.w	r3, r3, #1073741824	; 0x40000000
 8021968:	6053      	str	r3, [r2, #4]
      if ((__HAL_RCC_GET_FLAG(RCC_FLAG_CSIRDY) != 0U) && (RCC_OscInitStruct->CSIState != RCC_CSI_ON))
 802196a:	e075      	b.n	8021a58 <HAL_RCC_OscConfig+0x434>
        __HAL_RCC_CSI_CALIBRATIONVALUE_ADJUST(RCC_OscInitStruct->CSICalibrationValue);
 802196c:	4b6b      	ldr	r3, [pc, #428]	; (8021b1c <HAL_RCC_OscConfig+0x4f8>)
 802196e:	685b      	ldr	r3, [r3, #4]
 8021970:	f023 42f8 	bic.w	r2, r3, #2080374784	; 0x7c000000
 8021974:	687b      	ldr	r3, [r7, #4]
 8021976:	6a1b      	ldr	r3, [r3, #32]
 8021978:	069b      	lsls	r3, r3, #26
 802197a:	4968      	ldr	r1, [pc, #416]	; (8021b1c <HAL_RCC_OscConfig+0x4f8>)
 802197c:	4313      	orrs	r3, r2
 802197e:	604b      	str	r3, [r1, #4]
      if ((__HAL_RCC_GET_FLAG(RCC_FLAG_CSIRDY) != 0U) && (RCC_OscInitStruct->CSIState != RCC_CSI_ON))
 8021980:	e06a      	b.n	8021a58 <HAL_RCC_OscConfig+0x434>
        __HAL_RCC_CSI_CALIBRATIONVALUE_ADJUST(RCC_OscInitStruct->CSICalibrationValue);
 8021982:	4b66      	ldr	r3, [pc, #408]	; (8021b1c <HAL_RCC_OscConfig+0x4f8>)
 8021984:	68db      	ldr	r3, [r3, #12]
 8021986:	f023 527c 	bic.w	r2, r3, #1056964608	; 0x3f000000
 802198a:	687b      	ldr	r3, [r7, #4]
 802198c:	6a1b      	ldr	r3, [r3, #32]
 802198e:	061b      	lsls	r3, r3, #24
 8021990:	4962      	ldr	r1, [pc, #392]	; (8021b1c <HAL_RCC_OscConfig+0x4f8>)
 8021992:	4313      	orrs	r3, r2
 8021994:	60cb      	str	r3, [r1, #12]
      if ((__HAL_RCC_GET_FLAG(RCC_FLAG_CSIRDY) != 0U) && (RCC_OscInitStruct->CSIState != RCC_CSI_ON))
 8021996:	e05f      	b.n	8021a58 <HAL_RCC_OscConfig+0x434>
      }
    }
    else
    {
      /* Check the CSI State */
      if ((RCC_OscInitStruct->CSIState) != RCC_CSI_OFF)
 8021998:	687b      	ldr	r3, [r7, #4]
 802199a:	69db      	ldr	r3, [r3, #28]
 802199c:	2b00      	cmp	r3, #0
 802199e:	d042      	beq.n	8021a26 <HAL_RCC_OscConfig+0x402>
      {
        /* Enable the Internal High Speed oscillator (CSI). */
        __HAL_RCC_CSI_ENABLE();
 80219a0:	4b5e      	ldr	r3, [pc, #376]	; (8021b1c <HAL_RCC_OscConfig+0x4f8>)
 80219a2:	681b      	ldr	r3, [r3, #0]
 80219a4:	4a5d      	ldr	r2, [pc, #372]	; (8021b1c <HAL_RCC_OscConfig+0x4f8>)
 80219a6:	f043 0380 	orr.w	r3, r3, #128	; 0x80
 80219aa:	6013      	str	r3, [r2, #0]

        /* Get Start Tick*/
        tickstart = HAL_GetTick();
 80219ac:	f7ff fa9a 	bl	8020ee4 <HAL_GetTick>
 80219b0:	6278      	str	r0, [r7, #36]	; 0x24

        /* Wait till CSI is ready */
        while (__HAL_RCC_GET_FLAG(RCC_FLAG_CSIRDY) == 0U)
 80219b2:	e008      	b.n	80219c6 <HAL_RCC_OscConfig+0x3a2>
        {
          if ((HAL_GetTick() - tickstart) > CSI_TIMEOUT_VALUE)
 80219b4:	f7ff fa96 	bl	8020ee4 <HAL_GetTick>
 80219b8:	4602      	mov	r2, r0
 80219ba:	6a7b      	ldr	r3, [r7, #36]	; 0x24
 80219bc:	1ad3      	subs	r3, r2, r3
 80219be:	2b02      	cmp	r3, #2
 80219c0:	d901      	bls.n	80219c6 <HAL_RCC_OscConfig+0x3a2>
          {
            return HAL_TIMEOUT;
 80219c2:	2303      	movs	r3, #3
 80219c4:	e280      	b.n	8021ec8 <HAL_RCC_OscConfig+0x8a4>
        while (__HAL_RCC_GET_FLAG(RCC_FLAG_CSIRDY) == 0U)
 80219c6:	4b55      	ldr	r3, [pc, #340]	; (8021b1c <HAL_RCC_OscConfig+0x4f8>)
 80219c8:	681b      	ldr	r3, [r3, #0]
 80219ca:	f403 7380 	and.w	r3, r3, #256	; 0x100
 80219ce:	2b00      	cmp	r3, #0
 80219d0:	d0f0      	beq.n	80219b4 <HAL_RCC_OscConfig+0x390>
          }
        }

        /* Adjusts the Internal High Speed oscillator (CSI) calibration value.*/
        __HAL_RCC_CSI_CALIBRATIONVALUE_ADJUST(RCC_OscInitStruct->CSICalibrationValue);
 80219d2:	f7ff fab7 	bl	8020f44 <HAL_GetREVID>
 80219d6:	4603      	mov	r3, r0
 80219d8:	f241 0203 	movw	r2, #4099	; 0x1003
 80219dc:	4293      	cmp	r3, r2
 80219de:	d817      	bhi.n	8021a10 <HAL_RCC_OscConfig+0x3ec>
 80219e0:	687b      	ldr	r3, [r7, #4]
 80219e2:	6a1b      	ldr	r3, [r3, #32]
 80219e4:	2b20      	cmp	r3, #32
 80219e6:	d108      	bne.n	80219fa <HAL_RCC_OscConfig+0x3d6>
 80219e8:	4b4c      	ldr	r3, [pc, #304]	; (8021b1c <HAL_RCC_OscConfig+0x4f8>)
 80219ea:	685b      	ldr	r3, [r3, #4]
 80219ec:	f023 43f8 	bic.w	r3, r3, #2080374784	; 0x7c000000
 80219f0:	4a4a      	ldr	r2, [pc, #296]	; (8021b1c <HAL_RCC_OscConfig+0x4f8>)
 80219f2:	f043 4380 	orr.w	r3, r3, #1073741824	; 0x40000000
 80219f6:	6053      	str	r3, [r2, #4]
 80219f8:	e02e      	b.n	8021a58 <HAL_RCC_OscConfig+0x434>
 80219fa:	4b48      	ldr	r3, [pc, #288]	; (8021b1c <HAL_RCC_OscConfig+0x4f8>)
 80219fc:	685b      	ldr	r3, [r3, #4]
 80219fe:	f023 42f8 	bic.w	r2, r3, #2080374784	; 0x7c000000
 8021a02:	687b      	ldr	r3, [r7, #4]
 8021a04:	6a1b      	ldr	r3, [r3, #32]
 8021a06:	069b      	lsls	r3, r3, #26
 8021a08:	4944      	ldr	r1, [pc, #272]	; (8021b1c <HAL_RCC_OscConfig+0x4f8>)
 8021a0a:	4313      	orrs	r3, r2
 8021a0c:	604b      	str	r3, [r1, #4]
 8021a0e:	e023      	b.n	8021a58 <HAL_RCC_OscConfig+0x434>
 8021a10:	4b42      	ldr	r3, [pc, #264]	; (8021b1c <HAL_RCC_OscConfig+0x4f8>)
 8021a12:	68db      	ldr	r3, [r3, #12]
 8021a14:	f023 527c 	bic.w	r2, r3, #1056964608	; 0x3f000000
 8021a18:	687b      	ldr	r3, [r7, #4]
 8021a1a:	6a1b      	ldr	r3, [r3, #32]
 8021a1c:	061b      	lsls	r3, r3, #24
 8021a1e:	493f      	ldr	r1, [pc, #252]	; (8021b1c <HAL_RCC_OscConfig+0x4f8>)
 8021a20:	4313      	orrs	r3, r2
 8021a22:	60cb      	str	r3, [r1, #12]
 8021a24:	e018      	b.n	8021a58 <HAL_RCC_OscConfig+0x434>
      }
      else
      {
        /* Disable the Internal High Speed oscillator (CSI). */
        __HAL_RCC_CSI_DISABLE();
 8021a26:	4b3d      	ldr	r3, [pc, #244]	; (8021b1c <HAL_RCC_OscConfig+0x4f8>)
 8021a28:	681b      	ldr	r3, [r3, #0]
 8021a2a:	4a3c      	ldr	r2, [pc, #240]	; (8021b1c <HAL_RCC_OscConfig+0x4f8>)
 8021a2c:	f023 0380 	bic.w	r3, r3, #128	; 0x80
 8021a30:	6013      	str	r3, [r2, #0]

        /* Get Start Tick*/
        tickstart = HAL_GetTick();
 8021a32:	f7ff fa57 	bl	8020ee4 <HAL_GetTick>
 8021a36:	6278      	str	r0, [r7, #36]	; 0x24

        /* Wait till CSI is disabled */
        while (__HAL_RCC_GET_FLAG(RCC_FLAG_CSIRDY) != 0U)
 8021a38:	e008      	b.n	8021a4c <HAL_RCC_OscConfig+0x428>
        {
          if ((HAL_GetTick() - tickstart) > CSI_TIMEOUT_VALUE)
 8021a3a:	f7ff fa53 	bl	8020ee4 <HAL_GetTick>
 8021a3e:	4602      	mov	r2, r0
 8021a40:	6a7b      	ldr	r3, [r7, #36]	; 0x24
 8021a42:	1ad3      	subs	r3, r2, r3
 8021a44:	2b02      	cmp	r3, #2
 8021a46:	d901      	bls.n	8021a4c <HAL_RCC_OscConfig+0x428>
          {
            return HAL_TIMEOUT;
 8021a48:	2303      	movs	r3, #3
 8021a4a:	e23d      	b.n	8021ec8 <HAL_RCC_OscConfig+0x8a4>
        while (__HAL_RCC_GET_FLAG(RCC_FLAG_CSIRDY) != 0U)
 8021a4c:	4b33      	ldr	r3, [pc, #204]	; (8021b1c <HAL_RCC_OscConfig+0x4f8>)
 8021a4e:	681b      	ldr	r3, [r3, #0]
 8021a50:	f403 7380 	and.w	r3, r3, #256	; 0x100
 8021a54:	2b00      	cmp	r3, #0
 8021a56:	d1f0      	bne.n	8021a3a <HAL_RCC_OscConfig+0x416>
        }
      }
    }
  }
  /*------------------------------ LSI Configuration -------------------------*/
  if (((RCC_OscInitStruct->OscillatorType) & RCC_OSCILLATORTYPE_LSI) == RCC_OSCILLATORTYPE_LSI)
 8021a58:	687b      	ldr	r3, [r7, #4]
 8021a5a:	681b      	ldr	r3, [r3, #0]
 8021a5c:	f003 0308 	and.w	r3, r3, #8
 8021a60:	2b00      	cmp	r3, #0
 8021a62:	d036      	beq.n	8021ad2 <HAL_RCC_OscConfig+0x4ae>
  {
    /* Check the parameters */
    assert_param(IS_RCC_LSI(RCC_OscInitStruct->LSIState));

    /* Check the LSI State */
    if ((RCC_OscInitStruct->LSIState) != RCC_LSI_OFF)
 8021a64:	687b      	ldr	r3, [r7, #4]
 8021a66:	695b      	ldr	r3, [r3, #20]
 8021a68:	2b00      	cmp	r3, #0
 8021a6a:	d019      	beq.n	8021aa0 <HAL_RCC_OscConfig+0x47c>
    {
      /* Enable the Internal Low Speed oscillator (LSI). */
      __HAL_RCC_LSI_ENABLE();
 8021a6c:	4b2b      	ldr	r3, [pc, #172]	; (8021b1c <HAL_RCC_OscConfig+0x4f8>)
 8021a6e:	6f5b      	ldr	r3, [r3, #116]	; 0x74
 8021a70:	4a2a      	ldr	r2, [pc, #168]	; (8021b1c <HAL_RCC_OscConfig+0x4f8>)
 8021a72:	f043 0301 	orr.w	r3, r3, #1
 8021a76:	6753      	str	r3, [r2, #116]	; 0x74

      /* Get Start Tick*/
      tickstart = HAL_GetTick();
 8021a78:	f7ff fa34 	bl	8020ee4 <HAL_GetTick>
 8021a7c:	6278      	str	r0, [r7, #36]	; 0x24

      /* Wait till LSI is ready */
      while (__HAL_RCC_GET_FLAG(RCC_FLAG_LSIRDY) == 0U)
 8021a7e:	e008      	b.n	8021a92 <HAL_RCC_OscConfig+0x46e>
      {
        if ((HAL_GetTick() - tickstart) > LSI_TIMEOUT_VALUE)
 8021a80:	f7ff fa30 	bl	8020ee4 <HAL_GetTick>
 8021a84:	4602      	mov	r2, r0
 8021a86:	6a7b      	ldr	r3, [r7, #36]	; 0x24
 8021a88:	1ad3      	subs	r3, r2, r3
 8021a8a:	2b02      	cmp	r3, #2
 8021a8c:	d901      	bls.n	8021a92 <HAL_RCC_OscConfig+0x46e>
        {
          return HAL_TIMEOUT;
 8021a8e:	2303      	movs	r3, #3
 8021a90:	e21a      	b.n	8021ec8 <HAL_RCC_OscConfig+0x8a4>
      while (__HAL_RCC_GET_FLAG(RCC_FLAG_LSIRDY) == 0U)
 8021a92:	4b22      	ldr	r3, [pc, #136]	; (8021b1c <HAL_RCC_OscConfig+0x4f8>)
 8021a94:	6f5b      	ldr	r3, [r3, #116]	; 0x74
 8021a96:	f003 0302 	and.w	r3, r3, #2
 8021a9a:	2b00      	cmp	r3, #0
 8021a9c:	d0f0      	beq.n	8021a80 <HAL_RCC_OscConfig+0x45c>
 8021a9e:	e018      	b.n	8021ad2 <HAL_RCC_OscConfig+0x4ae>
      }
    }
    else
    {
      /* Disable the Internal Low Speed oscillator (LSI). */
      __HAL_RCC_LSI_DISABLE();
 8021aa0:	4b1e      	ldr	r3, [pc, #120]	; (8021b1c <HAL_RCC_OscConfig+0x4f8>)
 8021aa2:	6f5b      	ldr	r3, [r3, #116]	; 0x74
 8021aa4:	4a1d      	ldr	r2, [pc, #116]	; (8021b1c <HAL_RCC_OscConfig+0x4f8>)
 8021aa6:	f023 0301 	bic.w	r3, r3, #1
 8021aaa:	6753      	str	r3, [r2, #116]	; 0x74

      /* Get Start Tick*/
      tickstart = HAL_GetTick();
 8021aac:	f7ff fa1a 	bl	8020ee4 <HAL_GetTick>
 8021ab0:	6278      	str	r0, [r7, #36]	; 0x24

      /* Wait till LSI is ready */
      while (__HAL_RCC_GET_FLAG(RCC_FLAG_LSIRDY) != 0U)
 8021ab2:	e008      	b.n	8021ac6 <HAL_RCC_OscConfig+0x4a2>
      {
        if ((HAL_GetTick() - tickstart) > LSI_TIMEOUT_VALUE)
 8021ab4:	f7ff fa16 	bl	8020ee4 <HAL_GetTick>
 8021ab8:	4602      	mov	r2, r0
 8021aba:	6a7b      	ldr	r3, [r7, #36]	; 0x24
 8021abc:	1ad3      	subs	r3, r2, r3
 8021abe:	2b02      	cmp	r3, #2
 8021ac0:	d901      	bls.n	8021ac6 <HAL_RCC_OscConfig+0x4a2>
        {
          return HAL_TIMEOUT;
 8021ac2:	2303      	movs	r3, #3
 8021ac4:	e200      	b.n	8021ec8 <HAL_RCC_OscConfig+0x8a4>
      while (__HAL_RCC_GET_FLAG(RCC_FLAG_LSIRDY) != 0U)
 8021ac6:	4b15      	ldr	r3, [pc, #84]	; (8021b1c <HAL_RCC_OscConfig+0x4f8>)
 8021ac8:	6f5b      	ldr	r3, [r3, #116]	; 0x74
 8021aca:	f003 0302 	and.w	r3, r3, #2
 8021ace:	2b00      	cmp	r3, #0
 8021ad0:	d1f0      	bne.n	8021ab4 <HAL_RCC_OscConfig+0x490>
      }
    }
  }

  /*------------------------------ HSI48 Configuration -------------------------*/
  if (((RCC_OscInitStruct->OscillatorType) & RCC_OSCILLATORTYPE_HSI48) == RCC_OSCILLATORTYPE_HSI48)
 8021ad2:	687b      	ldr	r3, [r7, #4]
 8021ad4:	681b      	ldr	r3, [r3, #0]
 8021ad6:	f003 0320 	and.w	r3, r3, #32
 8021ada:	2b00      	cmp	r3, #0
 8021adc:	d039      	beq.n	8021b52 <HAL_RCC_OscConfig+0x52e>
  {
    /* Check the parameters */
    assert_param(IS_RCC_HSI48(RCC_OscInitStruct->HSI48State));

    /* Check the HSI48 State */
    if ((RCC_OscInitStruct->HSI48State) != RCC_HSI48_OFF)
 8021ade:	687b      	ldr	r3, [r7, #4]
 8021ae0:	699b      	ldr	r3, [r3, #24]
 8021ae2:	2b00      	cmp	r3, #0
 8021ae4:	d01c      	beq.n	8021b20 <HAL_RCC_OscConfig+0x4fc>
    {
      /* Enable the Internal Low Speed oscillator (HSI48). */
      __HAL_RCC_HSI48_ENABLE();
 8021ae6:	4b0d      	ldr	r3, [pc, #52]	; (8021b1c <HAL_RCC_OscConfig+0x4f8>)
 8021ae8:	681b      	ldr	r3, [r3, #0]
 8021aea:	4a0c      	ldr	r2, [pc, #48]	; (8021b1c <HAL_RCC_OscConfig+0x4f8>)
 8021aec:	f443 5380 	orr.w	r3, r3, #4096	; 0x1000
 8021af0:	6013      	str	r3, [r2, #0]

      /* Get time-out */
      tickstart = HAL_GetTick();
 8021af2:	f7ff f9f7 	bl	8020ee4 <HAL_GetTick>
 8021af6:	6278      	str	r0, [r7, #36]	; 0x24

      /* Wait till HSI48 is ready */
      while (__HAL_RCC_GET_FLAG(RCC_FLAG_HSI48RDY) == 0U)
 8021af8:	e008      	b.n	8021b0c <HAL_RCC_OscConfig+0x4e8>
      {
        if ((HAL_GetTick() - tickstart) > HSI48_TIMEOUT_VALUE)
 8021afa:	f7ff f9f3 	bl	8020ee4 <HAL_GetTick>
 8021afe:	4602      	mov	r2, r0
 8021b00:	6a7b      	ldr	r3, [r7, #36]	; 0x24
 8021b02:	1ad3      	subs	r3, r2, r3
 8021b04:	2b02      	cmp	r3, #2
 8021b06:	d901      	bls.n	8021b0c <HAL_RCC_OscConfig+0x4e8>
        {
          return HAL_TIMEOUT;
 8021b08:	2303      	movs	r3, #3
 8021b0a:	e1dd      	b.n	8021ec8 <HAL_RCC_OscConfig+0x8a4>
      while (__HAL_RCC_GET_FLAG(RCC_FLAG_HSI48RDY) == 0U)
 8021b0c:	4b03      	ldr	r3, [pc, #12]	; (8021b1c <HAL_RCC_OscConfig+0x4f8>)
 8021b0e:	681b      	ldr	r3, [r3, #0]
 8021b10:	f403 5300 	and.w	r3, r3, #8192	; 0x2000
 8021b14:	2b00      	cmp	r3, #0
 8021b16:	d0f0      	beq.n	8021afa <HAL_RCC_OscConfig+0x4d6>
 8021b18:	e01b      	b.n	8021b52 <HAL_RCC_OscConfig+0x52e>
 8021b1a:	bf00      	nop
 8021b1c:	58024400 	.word	0x58024400
      }
    }
    else
    {
      /* Disable the Internal Low Speed oscillator (HSI48). */
      __HAL_RCC_HSI48_DISABLE();
 8021b20:	4b9b      	ldr	r3, [pc, #620]	; (8021d90 <HAL_RCC_OscConfig+0x76c>)
 8021b22:	681b      	ldr	r3, [r3, #0]
 8021b24:	4a9a      	ldr	r2, [pc, #616]	; (8021d90 <HAL_RCC_OscConfig+0x76c>)
 8021b26:	f423 5380 	bic.w	r3, r3, #4096	; 0x1000
 8021b2a:	6013      	str	r3, [r2, #0]

      /* Get time-out */
      tickstart = HAL_GetTick();
 8021b2c:	f7ff f9da 	bl	8020ee4 <HAL_GetTick>
 8021b30:	6278      	str	r0, [r7, #36]	; 0x24

      /* Wait till HSI48 is ready */
      while (__HAL_RCC_GET_FLAG(RCC_FLAG_HSI48RDY) != 0U)
 8021b32:	e008      	b.n	8021b46 <HAL_RCC_OscConfig+0x522>
      {
        if ((HAL_GetTick() - tickstart) > HSI48_TIMEOUT_VALUE)
 8021b34:	f7ff f9d6 	bl	8020ee4 <HAL_GetTick>
 8021b38:	4602      	mov	r2, r0
 8021b3a:	6a7b      	ldr	r3, [r7, #36]	; 0x24
 8021b3c:	1ad3      	subs	r3, r2, r3
 8021b3e:	2b02      	cmp	r3, #2
 8021b40:	d901      	bls.n	8021b46 <HAL_RCC_OscConfig+0x522>
        {
          return HAL_TIMEOUT;
 8021b42:	2303      	movs	r3, #3
 8021b44:	e1c0      	b.n	8021ec8 <HAL_RCC_OscConfig+0x8a4>
      while (__HAL_RCC_GET_FLAG(RCC_FLAG_HSI48RDY) != 0U)
 8021b46:	4b92      	ldr	r3, [pc, #584]	; (8021d90 <HAL_RCC_OscConfig+0x76c>)
 8021b48:	681b      	ldr	r3, [r3, #0]
 8021b4a:	f403 5300 	and.w	r3, r3, #8192	; 0x2000
 8021b4e:	2b00      	cmp	r3, #0
 8021b50:	d1f0      	bne.n	8021b34 <HAL_RCC_OscConfig+0x510>
        }
      }
    }
  }
  /*------------------------------ LSE Configuration -------------------------*/
  if (((RCC_OscInitStruct->OscillatorType) & RCC_OSCILLATORTYPE_LSE) == RCC_OSCILLATORTYPE_LSE)
 8021b52:	687b      	ldr	r3, [r7, #4]
 8021b54:	681b      	ldr	r3, [r3, #0]
 8021b56:	f003 0304 	and.w	r3, r3, #4
 8021b5a:	2b00      	cmp	r3, #0
 8021b5c:	f000 8081 	beq.w	8021c62 <HAL_RCC_OscConfig+0x63e>
  {
    /* Check the parameters */
    assert_param(IS_RCC_LSE(RCC_OscInitStruct->LSEState));

    /* Enable write access to Backup domain */
    PWR->CR1 |= PWR_CR1_DBP;
 8021b60:	4b8c      	ldr	r3, [pc, #560]	; (8021d94 <HAL_RCC_OscConfig+0x770>)
 8021b62:	681b      	ldr	r3, [r3, #0]
 8021b64:	4a8b      	ldr	r2, [pc, #556]	; (8021d94 <HAL_RCC_OscConfig+0x770>)
 8021b66:	f443 7380 	orr.w	r3, r3, #256	; 0x100
 8021b6a:	6013      	str	r3, [r2, #0]

    /* Wait for Backup domain Write protection disable */
    tickstart = HAL_GetTick();
 8021b6c:	f7ff f9ba 	bl	8020ee4 <HAL_GetTick>
 8021b70:	6278      	str	r0, [r7, #36]	; 0x24

    while ((PWR->CR1 & PWR_CR1_DBP) == 0U)
 8021b72:	e008      	b.n	8021b86 <HAL_RCC_OscConfig+0x562>
    {
      if ((HAL_GetTick() - tickstart) > RCC_DBP_TIMEOUT_VALUE)
 8021b74:	f7ff f9b6 	bl	8020ee4 <HAL_GetTick>
 8021b78:	4602      	mov	r2, r0
 8021b7a:	6a7b      	ldr	r3, [r7, #36]	; 0x24
 8021b7c:	1ad3      	subs	r3, r2, r3
 8021b7e:	2b64      	cmp	r3, #100	; 0x64
 8021b80:	d901      	bls.n	8021b86 <HAL_RCC_OscConfig+0x562>
      {
        return HAL_TIMEOUT;
 8021b82:	2303      	movs	r3, #3
 8021b84:	e1a0      	b.n	8021ec8 <HAL_RCC_OscConfig+0x8a4>
    while ((PWR->CR1 & PWR_CR1_DBP) == 0U)
 8021b86:	4b83      	ldr	r3, [pc, #524]	; (8021d94 <HAL_RCC_OscConfig+0x770>)
 8021b88:	681b      	ldr	r3, [r3, #0]
 8021b8a:	f403 7380 	and.w	r3, r3, #256	; 0x100
 8021b8e:	2b00      	cmp	r3, #0
 8021b90:	d0f0      	beq.n	8021b74 <HAL_RCC_OscConfig+0x550>
      }
    }

    /* Set the new LSE configuration -----------------------------------------*/
    __HAL_RCC_LSE_CONFIG(RCC_OscInitStruct->LSEState);
 8021b92:	687b      	ldr	r3, [r7, #4]
 8021b94:	689b      	ldr	r3, [r3, #8]
 8021b96:	2b01      	cmp	r3, #1
 8021b98:	d106      	bne.n	8021ba8 <HAL_RCC_OscConfig+0x584>
 8021b9a:	4b7d      	ldr	r3, [pc, #500]	; (8021d90 <HAL_RCC_OscConfig+0x76c>)
 8021b9c:	6f1b      	ldr	r3, [r3, #112]	; 0x70
 8021b9e:	4a7c      	ldr	r2, [pc, #496]	; (8021d90 <HAL_RCC_OscConfig+0x76c>)
 8021ba0:	f043 0301 	orr.w	r3, r3, #1
 8021ba4:	6713      	str	r3, [r2, #112]	; 0x70
 8021ba6:	e02d      	b.n	8021c04 <HAL_RCC_OscConfig+0x5e0>
 8021ba8:	687b      	ldr	r3, [r7, #4]
 8021baa:	689b      	ldr	r3, [r3, #8]
 8021bac:	2b00      	cmp	r3, #0
 8021bae:	d10c      	bne.n	8021bca <HAL_RCC_OscConfig+0x5a6>
 8021bb0:	4b77      	ldr	r3, [pc, #476]	; (8021d90 <HAL_RCC_OscConfig+0x76c>)
 8021bb2:	6f1b      	ldr	r3, [r3, #112]	; 0x70
 8021bb4:	4a76      	ldr	r2, [pc, #472]	; (8021d90 <HAL_RCC_OscConfig+0x76c>)
 8021bb6:	f023 0301 	bic.w	r3, r3, #1
 8021bba:	6713      	str	r3, [r2, #112]	; 0x70
 8021bbc:	4b74      	ldr	r3, [pc, #464]	; (8021d90 <HAL_RCC_OscConfig+0x76c>)
 8021bbe:	6f1b      	ldr	r3, [r3, #112]	; 0x70
 8021bc0:	4a73      	ldr	r2, [pc, #460]	; (8021d90 <HAL_RCC_OscConfig+0x76c>)
 8021bc2:	f023 0304 	bic.w	r3, r3, #4
 8021bc6:	6713      	str	r3, [r2, #112]	; 0x70
 8021bc8:	e01c      	b.n	8021c04 <HAL_RCC_OscConfig+0x5e0>
 8021bca:	687b      	ldr	r3, [r7, #4]
 8021bcc:	689b      	ldr	r3, [r3, #8]
 8021bce:	2b05      	cmp	r3, #5
 8021bd0:	d10c      	bne.n	8021bec <HAL_RCC_OscConfig+0x5c8>
 8021bd2:	4b6f      	ldr	r3, [pc, #444]	; (8021d90 <HAL_RCC_OscConfig+0x76c>)
 8021bd4:	6f1b      	ldr	r3, [r3, #112]	; 0x70
 8021bd6:	4a6e      	ldr	r2, [pc, #440]	; (8021d90 <HAL_RCC_OscConfig+0x76c>)
 8021bd8:	f043 0304 	orr.w	r3, r3, #4
 8021bdc:	6713      	str	r3, [r2, #112]	; 0x70
 8021bde:	4b6c      	ldr	r3, [pc, #432]	; (8021d90 <HAL_RCC_OscConfig+0x76c>)
 8021be0:	6f1b      	ldr	r3, [r3, #112]	; 0x70
 8021be2:	4a6b      	ldr	r2, [pc, #428]	; (8021d90 <HAL_RCC_OscConfig+0x76c>)
 8021be4:	f043 0301 	orr.w	r3, r3, #1
 8021be8:	6713      	str	r3, [r2, #112]	; 0x70
 8021bea:	e00b      	b.n	8021c04 <HAL_RCC_OscConfig+0x5e0>
 8021bec:	4b68      	ldr	r3, [pc, #416]	; (8021d90 <HAL_RCC_OscConfig+0x76c>)
 8021bee:	6f1b      	ldr	r3, [r3, #112]	; 0x70
 8021bf0:	4a67      	ldr	r2, [pc, #412]	; (8021d90 <HAL_RCC_OscConfig+0x76c>)
 8021bf2:	f023 0301 	bic.w	r3, r3, #1
 8021bf6:	6713      	str	r3, [r2, #112]	; 0x70
 8021bf8:	4b65      	ldr	r3, [pc, #404]	; (8021d90 <HAL_RCC_OscConfig+0x76c>)
 8021bfa:	6f1b      	ldr	r3, [r3, #112]	; 0x70
 8021bfc:	4a64      	ldr	r2, [pc, #400]	; (8021d90 <HAL_RCC_OscConfig+0x76c>)
 8021bfe:	f023 0304 	bic.w	r3, r3, #4
 8021c02:	6713      	str	r3, [r2, #112]	; 0x70
    /* Check the LSE State */
    if ((RCC_OscInitStruct->LSEState) != RCC_LSE_OFF)
 8021c04:	687b      	ldr	r3, [r7, #4]
 8021c06:	689b      	ldr	r3, [r3, #8]
 8021c08:	2b00      	cmp	r3, #0
 8021c0a:	d015      	beq.n	8021c38 <HAL_RCC_OscConfig+0x614>
    {
      /* Get Start Tick*/
      tickstart = HAL_GetTick();
 8021c0c:	f7ff f96a 	bl	8020ee4 <HAL_GetTick>
 8021c10:	6278      	str	r0, [r7, #36]	; 0x24

      /* Wait till LSE is ready */
      while (__HAL_RCC_GET_FLAG(RCC_FLAG_LSERDY) == 0U)
 8021c12:	e00a      	b.n	8021c2a <HAL_RCC_OscConfig+0x606>
      {
        if ((HAL_GetTick() - tickstart) > RCC_LSE_TIMEOUT_VALUE)
 8021c14:	f7ff f966 	bl	8020ee4 <HAL_GetTick>
 8021c18:	4602      	mov	r2, r0
 8021c1a:	6a7b      	ldr	r3, [r7, #36]	; 0x24
 8021c1c:	1ad3      	subs	r3, r2, r3
 8021c1e:	f241 3288 	movw	r2, #5000	; 0x1388
 8021c22:	4293      	cmp	r3, r2
 8021c24:	d901      	bls.n	8021c2a <HAL_RCC_OscConfig+0x606>
        {
          return HAL_TIMEOUT;
 8021c26:	2303      	movs	r3, #3
 8021c28:	e14e      	b.n	8021ec8 <HAL_RCC_OscConfig+0x8a4>
      while (__HAL_RCC_GET_FLAG(RCC_FLAG_LSERDY) == 0U)
 8021c2a:	4b59      	ldr	r3, [pc, #356]	; (8021d90 <HAL_RCC_OscConfig+0x76c>)
 8021c2c:	6f1b      	ldr	r3, [r3, #112]	; 0x70
 8021c2e:	f003 0302 	and.w	r3, r3, #2
 8021c32:	2b00      	cmp	r3, #0
 8021c34:	d0ee      	beq.n	8021c14 <HAL_RCC_OscConfig+0x5f0>
 8021c36:	e014      	b.n	8021c62 <HAL_RCC_OscConfig+0x63e>
      }
    }
    else
    {
      /* Get Start Tick*/
      tickstart = HAL_GetTick();
 8021c38:	f7ff f954 	bl	8020ee4 <HAL_GetTick>
 8021c3c:	6278      	str	r0, [r7, #36]	; 0x24

      /* Wait till LSE is disabled */
      while (__HAL_RCC_GET_FLAG(RCC_FLAG_LSERDY) != 0U)
 8021c3e:	e00a      	b.n	8021c56 <HAL_RCC_OscConfig+0x632>
      {
        if ((HAL_GetTick() - tickstart) > RCC_LSE_TIMEOUT_VALUE)
 8021c40:	f7ff f950 	bl	8020ee4 <HAL_GetTick>
 8021c44:	4602      	mov	r2, r0
 8021c46:	6a7b      	ldr	r3, [r7, #36]	; 0x24
 8021c48:	1ad3      	subs	r3, r2, r3
 8021c4a:	f241 3288 	movw	r2, #5000	; 0x1388
 8021c4e:	4293      	cmp	r3, r2
 8021c50:	d901      	bls.n	8021c56 <HAL_RCC_OscConfig+0x632>
        {
          return HAL_TIMEOUT;
 8021c52:	2303      	movs	r3, #3
 8021c54:	e138      	b.n	8021ec8 <HAL_RCC_OscConfig+0x8a4>
      while (__HAL_RCC_GET_FLAG(RCC_FLAG_LSERDY) != 0U)
 8021c56:	4b4e      	ldr	r3, [pc, #312]	; (8021d90 <HAL_RCC_OscConfig+0x76c>)
 8021c58:	6f1b      	ldr	r3, [r3, #112]	; 0x70
 8021c5a:	f003 0302 	and.w	r3, r3, #2
 8021c5e:	2b00      	cmp	r3, #0
 8021c60:	d1ee      	bne.n	8021c40 <HAL_RCC_OscConfig+0x61c>
    }
  }
  /*-------------------------------- PLL Configuration -----------------------*/
  /* Check the parameters */
  assert_param(IS_RCC_PLL(RCC_OscInitStruct->PLL.PLLState));
  if ((RCC_OscInitStruct->PLL.PLLState) != RCC_PLL_NONE)
 8021c62:	687b      	ldr	r3, [r7, #4]
 8021c64:	6a5b      	ldr	r3, [r3, #36]	; 0x24
 8021c66:	2b00      	cmp	r3, #0
 8021c68:	f000 812d 	beq.w	8021ec6 <HAL_RCC_OscConfig+0x8a2>
  {
    /* Check if the PLL is used as system clock or not */
    if (__HAL_RCC_GET_SYSCLK_SOURCE() != RCC_CFGR_SWS_PLL1)
 8021c6c:	4b48      	ldr	r3, [pc, #288]	; (8021d90 <HAL_RCC_OscConfig+0x76c>)
 8021c6e:	691b      	ldr	r3, [r3, #16]
 8021c70:	f003 0338 	and.w	r3, r3, #56	; 0x38
 8021c74:	2b18      	cmp	r3, #24
 8021c76:	f000 80bd 	beq.w	8021df4 <HAL_RCC_OscConfig+0x7d0>
    {
      if ((RCC_OscInitStruct->PLL.PLLState) == RCC_PLL_ON)
 8021c7a:	687b      	ldr	r3, [r7, #4]
 8021c7c:	6a5b      	ldr	r3, [r3, #36]	; 0x24
 8021c7e:	2b02      	cmp	r3, #2
 8021c80:	f040 809e 	bne.w	8021dc0 <HAL_RCC_OscConfig+0x79c>
        assert_param(IS_RCC_PLLQ_VALUE(RCC_OscInitStruct->PLL.PLLQ));
        assert_param(IS_RCC_PLLR_VALUE(RCC_OscInitStruct->PLL.PLLR));
        assert_param(IS_RCC_PLLFRACN_VALUE(RCC_OscInitStruct->PLL.PLLFRACN));

        /* Disable the main PLL. */
        __HAL_RCC_PLL_DISABLE();
 8021c84:	4b42      	ldr	r3, [pc, #264]	; (8021d90 <HAL_RCC_OscConfig+0x76c>)
 8021c86:	681b      	ldr	r3, [r3, #0]
 8021c88:	4a41      	ldr	r2, [pc, #260]	; (8021d90 <HAL_RCC_OscConfig+0x76c>)
 8021c8a:	f023 7380 	bic.w	r3, r3, #16777216	; 0x1000000
 8021c8e:	6013      	str	r3, [r2, #0]

        /* Get Start Tick*/
        tickstart = HAL_GetTick();
 8021c90:	f7ff f928 	bl	8020ee4 <HAL_GetTick>
 8021c94:	6278      	str	r0, [r7, #36]	; 0x24

        /* Wait till PLL is disabled */
        while (__HAL_RCC_GET_FLAG(RCC_FLAG_PLLRDY) != 0U)
 8021c96:	e008      	b.n	8021caa <HAL_RCC_OscConfig+0x686>
        {
          if ((HAL_GetTick() - tickstart) > PLL_TIMEOUT_VALUE)
 8021c98:	f7ff f924 	bl	8020ee4 <HAL_GetTick>
 8021c9c:	4602      	mov	r2, r0
 8021c9e:	6a7b      	ldr	r3, [r7, #36]	; 0x24
 8021ca0:	1ad3      	subs	r3, r2, r3
 8021ca2:	2b02      	cmp	r3, #2
 8021ca4:	d901      	bls.n	8021caa <HAL_RCC_OscConfig+0x686>
          {
            return HAL_TIMEOUT;
 8021ca6:	2303      	movs	r3, #3
 8021ca8:	e10e      	b.n	8021ec8 <HAL_RCC_OscConfig+0x8a4>
        while (__HAL_RCC_GET_FLAG(RCC_FLAG_PLLRDY) != 0U)
 8021caa:	4b39      	ldr	r3, [pc, #228]	; (8021d90 <HAL_RCC_OscConfig+0x76c>)
 8021cac:	681b      	ldr	r3, [r3, #0]
 8021cae:	f003 7300 	and.w	r3, r3, #33554432	; 0x2000000
 8021cb2:	2b00      	cmp	r3, #0
 8021cb4:	d1f0      	bne.n	8021c98 <HAL_RCC_OscConfig+0x674>
          }
        }

        /* Configure the main PLL clock source, multiplication and division factors. */
        __HAL_RCC_PLL_CONFIG(RCC_OscInitStruct->PLL.PLLSource,
 8021cb6:	4b36      	ldr	r3, [pc, #216]	; (8021d90 <HAL_RCC_OscConfig+0x76c>)
 8021cb8:	6a9a      	ldr	r2, [r3, #40]	; 0x28
 8021cba:	4b37      	ldr	r3, [pc, #220]	; (8021d98 <HAL_RCC_OscConfig+0x774>)
 8021cbc:	4013      	ands	r3, r2
 8021cbe:	687a      	ldr	r2, [r7, #4]
 8021cc0:	6a91      	ldr	r1, [r2, #40]	; 0x28
 8021cc2:	687a      	ldr	r2, [r7, #4]
 8021cc4:	6ad2      	ldr	r2, [r2, #44]	; 0x2c
 8021cc6:	0112      	lsls	r2, r2, #4
 8021cc8:	430a      	orrs	r2, r1
 8021cca:	4931      	ldr	r1, [pc, #196]	; (8021d90 <HAL_RCC_OscConfig+0x76c>)
 8021ccc:	4313      	orrs	r3, r2
 8021cce:	628b      	str	r3, [r1, #40]	; 0x28
 8021cd0:	687b      	ldr	r3, [r7, #4]
 8021cd2:	6b1b      	ldr	r3, [r3, #48]	; 0x30
 8021cd4:	3b01      	subs	r3, #1
 8021cd6:	f3c3 0208 	ubfx	r2, r3, #0, #9
 8021cda:	687b      	ldr	r3, [r7, #4]
 8021cdc:	6b5b      	ldr	r3, [r3, #52]	; 0x34
 8021cde:	3b01      	subs	r3, #1
 8021ce0:	025b      	lsls	r3, r3, #9
 8021ce2:	b29b      	uxth	r3, r3
 8021ce4:	431a      	orrs	r2, r3
 8021ce6:	687b      	ldr	r3, [r7, #4]
 8021ce8:	6b9b      	ldr	r3, [r3, #56]	; 0x38
 8021cea:	3b01      	subs	r3, #1
 8021cec:	041b      	lsls	r3, r3, #16
 8021cee:	f403 03fe 	and.w	r3, r3, #8323072	; 0x7f0000
 8021cf2:	431a      	orrs	r2, r3
 8021cf4:	687b      	ldr	r3, [r7, #4]
 8021cf6:	6bdb      	ldr	r3, [r3, #60]	; 0x3c
 8021cf8:	3b01      	subs	r3, #1
 8021cfa:	061b      	lsls	r3, r3, #24
 8021cfc:	f003 43fe 	and.w	r3, r3, #2130706432	; 0x7f000000
 8021d00:	4923      	ldr	r1, [pc, #140]	; (8021d90 <HAL_RCC_OscConfig+0x76c>)
 8021d02:	4313      	orrs	r3, r2
 8021d04:	630b      	str	r3, [r1, #48]	; 0x30
                             RCC_OscInitStruct->PLL.PLLP,
                             RCC_OscInitStruct->PLL.PLLQ,
                             RCC_OscInitStruct->PLL.PLLR);

        /* Disable PLLFRACN . */
        __HAL_RCC_PLLFRACN_DISABLE();
 8021d06:	4b22      	ldr	r3, [pc, #136]	; (8021d90 <HAL_RCC_OscConfig+0x76c>)
 8021d08:	6adb      	ldr	r3, [r3, #44]	; 0x2c
 8021d0a:	4a21      	ldr	r2, [pc, #132]	; (8021d90 <HAL_RCC_OscConfig+0x76c>)
 8021d0c:	f023 0301 	bic.w	r3, r3, #1
 8021d10:	62d3      	str	r3, [r2, #44]	; 0x2c

        /* Configure PLL PLL1FRACN */
        __HAL_RCC_PLLFRACN_CONFIG(RCC_OscInitStruct->PLL.PLLFRACN);
 8021d12:	4b1f      	ldr	r3, [pc, #124]	; (8021d90 <HAL_RCC_OscConfig+0x76c>)
 8021d14:	6b5a      	ldr	r2, [r3, #52]	; 0x34
 8021d16:	4b21      	ldr	r3, [pc, #132]	; (8021d9c <HAL_RCC_OscConfig+0x778>)
 8021d18:	4013      	ands	r3, r2
 8021d1a:	687a      	ldr	r2, [r7, #4]
 8021d1c:	6c92      	ldr	r2, [r2, #72]	; 0x48
 8021d1e:	00d2      	lsls	r2, r2, #3
 8021d20:	491b      	ldr	r1, [pc, #108]	; (8021d90 <HAL_RCC_OscConfig+0x76c>)
 8021d22:	4313      	orrs	r3, r2
 8021d24:	634b      	str	r3, [r1, #52]	; 0x34

        /* Select PLL1 input reference frequency range: VCI */
        __HAL_RCC_PLL_VCIRANGE(RCC_OscInitStruct->PLL.PLLRGE) ;
 8021d26:	4b1a      	ldr	r3, [pc, #104]	; (8021d90 <HAL_RCC_OscConfig+0x76c>)
 8021d28:	6adb      	ldr	r3, [r3, #44]	; 0x2c
 8021d2a:	f023 020c 	bic.w	r2, r3, #12
 8021d2e:	687b      	ldr	r3, [r7, #4]
 8021d30:	6c1b      	ldr	r3, [r3, #64]	; 0x40
 8021d32:	4917      	ldr	r1, [pc, #92]	; (8021d90 <HAL_RCC_OscConfig+0x76c>)
 8021d34:	4313      	orrs	r3, r2
 8021d36:	62cb      	str	r3, [r1, #44]	; 0x2c

        /* Select PLL1 output frequency range : VCO */
        __HAL_RCC_PLL_VCORANGE(RCC_OscInitStruct->PLL.PLLVCOSEL) ;
 8021d38:	4b15      	ldr	r3, [pc, #84]	; (8021d90 <HAL_RCC_OscConfig+0x76c>)
 8021d3a:	6adb      	ldr	r3, [r3, #44]	; 0x2c
 8021d3c:	f023 0202 	bic.w	r2, r3, #2
 8021d40:	687b      	ldr	r3, [r7, #4]
 8021d42:	6c5b      	ldr	r3, [r3, #68]	; 0x44
 8021d44:	4912      	ldr	r1, [pc, #72]	; (8021d90 <HAL_RCC_OscConfig+0x76c>)
 8021d46:	4313      	orrs	r3, r2
 8021d48:	62cb      	str	r3, [r1, #44]	; 0x2c

        /* Enable PLL System Clock output. */
        __HAL_RCC_PLLCLKOUT_ENABLE(RCC_PLL1_DIVP);
 8021d4a:	4b11      	ldr	r3, [pc, #68]	; (8021d90 <HAL_RCC_OscConfig+0x76c>)
 8021d4c:	6adb      	ldr	r3, [r3, #44]	; 0x2c
 8021d4e:	4a10      	ldr	r2, [pc, #64]	; (8021d90 <HAL_RCC_OscConfig+0x76c>)
 8021d50:	f443 3380 	orr.w	r3, r3, #65536	; 0x10000
 8021d54:	62d3      	str	r3, [r2, #44]	; 0x2c

        /* Enable PLL1Q Clock output. */
        __HAL_RCC_PLLCLKOUT_ENABLE(RCC_PLL1_DIVQ);
 8021d56:	4b0e      	ldr	r3, [pc, #56]	; (8021d90 <HAL_RCC_OscConfig+0x76c>)
 8021d58:	6adb      	ldr	r3, [r3, #44]	; 0x2c
 8021d5a:	4a0d      	ldr	r2, [pc, #52]	; (8021d90 <HAL_RCC_OscConfig+0x76c>)
 8021d5c:	f443 3300 	orr.w	r3, r3, #131072	; 0x20000
 8021d60:	62d3      	str	r3, [r2, #44]	; 0x2c

        /* Enable PLL1R  Clock output. */
        __HAL_RCC_PLLCLKOUT_ENABLE(RCC_PLL1_DIVR);
 8021d62:	4b0b      	ldr	r3, [pc, #44]	; (8021d90 <HAL_RCC_OscConfig+0x76c>)
 8021d64:	6adb      	ldr	r3, [r3, #44]	; 0x2c
 8021d66:	4a0a      	ldr	r2, [pc, #40]	; (8021d90 <HAL_RCC_OscConfig+0x76c>)
 8021d68:	f443 2380 	orr.w	r3, r3, #262144	; 0x40000
 8021d6c:	62d3      	str	r3, [r2, #44]	; 0x2c

        /* Enable PLL1FRACN . */
        __HAL_RCC_PLLFRACN_ENABLE();
 8021d6e:	4b08      	ldr	r3, [pc, #32]	; (8021d90 <HAL_RCC_OscConfig+0x76c>)
 8021d70:	6adb      	ldr	r3, [r3, #44]	; 0x2c
 8021d72:	4a07      	ldr	r2, [pc, #28]	; (8021d90 <HAL_RCC_OscConfig+0x76c>)
 8021d74:	f043 0301 	orr.w	r3, r3, #1
 8021d78:	62d3      	str	r3, [r2, #44]	; 0x2c

        /* Enable the main PLL. */
        __HAL_RCC_PLL_ENABLE();
 8021d7a:	4b05      	ldr	r3, [pc, #20]	; (8021d90 <HAL_RCC_OscConfig+0x76c>)
 8021d7c:	681b      	ldr	r3, [r3, #0]
 8021d7e:	4a04      	ldr	r2, [pc, #16]	; (8021d90 <HAL_RCC_OscConfig+0x76c>)
 8021d80:	f043 7380 	orr.w	r3, r3, #16777216	; 0x1000000
 8021d84:	6013      	str	r3, [r2, #0]

        /* Get Start Tick*/
        tickstart = HAL_GetTick();
 8021d86:	f7ff f8ad 	bl	8020ee4 <HAL_GetTick>
 8021d8a:	6278      	str	r0, [r7, #36]	; 0x24

        /* Wait till PLL is ready */
        while (__HAL_RCC_GET_FLAG(RCC_FLAG_PLLRDY) == 0U)
 8021d8c:	e011      	b.n	8021db2 <HAL_RCC_OscConfig+0x78e>
 8021d8e:	bf00      	nop
 8021d90:	58024400 	.word	0x58024400
 8021d94:	58024800 	.word	0x58024800
 8021d98:	fffffc0c 	.word	0xfffffc0c
 8021d9c:	ffff0007 	.word	0xffff0007
        {
          if ((HAL_GetTick() - tickstart) > PLL_TIMEOUT_VALUE)
 8021da0:	f7ff f8a0 	bl	8020ee4 <HAL_GetTick>
 8021da4:	4602      	mov	r2, r0
 8021da6:	6a7b      	ldr	r3, [r7, #36]	; 0x24
 8021da8:	1ad3      	subs	r3, r2, r3
 8021daa:	2b02      	cmp	r3, #2
 8021dac:	d901      	bls.n	8021db2 <HAL_RCC_OscConfig+0x78e>
          {
            return HAL_TIMEOUT;
 8021dae:	2303      	movs	r3, #3
 8021db0:	e08a      	b.n	8021ec8 <HAL_RCC_OscConfig+0x8a4>
        while (__HAL_RCC_GET_FLAG(RCC_FLAG_PLLRDY) == 0U)
 8021db2:	4b47      	ldr	r3, [pc, #284]	; (8021ed0 <HAL_RCC_OscConfig+0x8ac>)
 8021db4:	681b      	ldr	r3, [r3, #0]
 8021db6:	f003 7300 	and.w	r3, r3, #33554432	; 0x2000000
 8021dba:	2b00      	cmp	r3, #0
 8021dbc:	d0f0      	beq.n	8021da0 <HAL_RCC_OscConfig+0x77c>
 8021dbe:	e082      	b.n	8021ec6 <HAL_RCC_OscConfig+0x8a2>
        }
      }
      else
      {
        /* Disable the main PLL. */
        __HAL_RCC_PLL_DISABLE();
 8021dc0:	4b43      	ldr	r3, [pc, #268]	; (8021ed0 <HAL_RCC_OscConfig+0x8ac>)
 8021dc2:	681b      	ldr	r3, [r3, #0]
 8021dc4:	4a42      	ldr	r2, [pc, #264]	; (8021ed0 <HAL_RCC_OscConfig+0x8ac>)
 8021dc6:	f023 7380 	bic.w	r3, r3, #16777216	; 0x1000000
 8021dca:	6013      	str	r3, [r2, #0]

        /* Get Start Tick*/
        tickstart = HAL_GetTick();
 8021dcc:	f7ff f88a 	bl	8020ee4 <HAL_GetTick>
 8021dd0:	6278      	str	r0, [r7, #36]	; 0x24

        /* Wait till PLL is disabled */
        while (__HAL_RCC_GET_FLAG(RCC_FLAG_PLLRDY) != 0U)
 8021dd2:	e008      	b.n	8021de6 <HAL_RCC_OscConfig+0x7c2>
        {
          if ((HAL_GetTick() - tickstart) > PLL_TIMEOUT_VALUE)
 8021dd4:	f7ff f886 	bl	8020ee4 <HAL_GetTick>
 8021dd8:	4602      	mov	r2, r0
 8021dda:	6a7b      	ldr	r3, [r7, #36]	; 0x24
 8021ddc:	1ad3      	subs	r3, r2, r3
 8021dde:	2b02      	cmp	r3, #2
 8021de0:	d901      	bls.n	8021de6 <HAL_RCC_OscConfig+0x7c2>
          {
            return HAL_TIMEOUT;
 8021de2:	2303      	movs	r3, #3
 8021de4:	e070      	b.n	8021ec8 <HAL_RCC_OscConfig+0x8a4>
        while (__HAL_RCC_GET_FLAG(RCC_FLAG_PLLRDY) != 0U)
 8021de6:	4b3a      	ldr	r3, [pc, #232]	; (8021ed0 <HAL_RCC_OscConfig+0x8ac>)
 8021de8:	681b      	ldr	r3, [r3, #0]
 8021dea:	f003 7300 	and.w	r3, r3, #33554432	; 0x2000000
 8021dee:	2b00      	cmp	r3, #0
 8021df0:	d1f0      	bne.n	8021dd4 <HAL_RCC_OscConfig+0x7b0>
 8021df2:	e068      	b.n	8021ec6 <HAL_RCC_OscConfig+0x8a2>
      }
    }
    else
    {
      /* Do not return HAL_ERROR if request repeats the current configuration */
      temp1_pllckcfg = RCC->PLLCKSELR;
 8021df4:	4b36      	ldr	r3, [pc, #216]	; (8021ed0 <HAL_RCC_OscConfig+0x8ac>)
 8021df6:	6a9b      	ldr	r3, [r3, #40]	; 0x28
 8021df8:	613b      	str	r3, [r7, #16]
      temp2_pllckcfg = RCC->PLL1DIVR;
 8021dfa:	4b35      	ldr	r3, [pc, #212]	; (8021ed0 <HAL_RCC_OscConfig+0x8ac>)
 8021dfc:	6b1b      	ldr	r3, [r3, #48]	; 0x30
 8021dfe:	60fb      	str	r3, [r7, #12]
      if (((RCC_OscInitStruct->PLL.PLLState) == RCC_PLL_OFF) ||
 8021e00:	687b      	ldr	r3, [r7, #4]
 8021e02:	6a5b      	ldr	r3, [r3, #36]	; 0x24
 8021e04:	2b01      	cmp	r3, #1
 8021e06:	d031      	beq.n	8021e6c <HAL_RCC_OscConfig+0x848>
          (READ_BIT(temp1_pllckcfg, RCC_PLLCKSELR_PLLSRC) != RCC_OscInitStruct->PLL.PLLSource) ||
 8021e08:	693b      	ldr	r3, [r7, #16]
 8021e0a:	f003 0203 	and.w	r2, r3, #3
 8021e0e:	687b      	ldr	r3, [r7, #4]
 8021e10:	6a9b      	ldr	r3, [r3, #40]	; 0x28
      if (((RCC_OscInitStruct->PLL.PLLState) == RCC_PLL_OFF) ||
 8021e12:	429a      	cmp	r2, r3
 8021e14:	d12a      	bne.n	8021e6c <HAL_RCC_OscConfig+0x848>
          ((READ_BIT(temp1_pllckcfg, RCC_PLLCKSELR_DIVM1) >> RCC_PLLCKSELR_DIVM1_Pos) != RCC_OscInitStruct->PLL.PLLM) ||
 8021e16:	693b      	ldr	r3, [r7, #16]
 8021e18:	091b      	lsrs	r3, r3, #4
 8021e1a:	f003 023f 	and.w	r2, r3, #63	; 0x3f
 8021e1e:	687b      	ldr	r3, [r7, #4]
 8021e20:	6adb      	ldr	r3, [r3, #44]	; 0x2c
          (READ_BIT(temp1_pllckcfg, RCC_PLLCKSELR_PLLSRC) != RCC_OscInitStruct->PLL.PLLSource) ||
 8021e22:	429a      	cmp	r2, r3
 8021e24:	d122      	bne.n	8021e6c <HAL_RCC_OscConfig+0x848>
          (READ_BIT(temp2_pllckcfg, RCC_PLL1DIVR_N1) != (RCC_OscInitStruct->PLL.PLLN - 1U)) ||
 8021e26:	68fb      	ldr	r3, [r7, #12]
 8021e28:	f3c3 0208 	ubfx	r2, r3, #0, #9
 8021e2c:	687b      	ldr	r3, [r7, #4]
 8021e2e:	6b1b      	ldr	r3, [r3, #48]	; 0x30
 8021e30:	3b01      	subs	r3, #1
          ((READ_BIT(temp1_pllckcfg, RCC_PLLCKSELR_DIVM1) >> RCC_PLLCKSELR_DIVM1_Pos) != RCC_OscInitStruct->PLL.PLLM) ||
 8021e32:	429a      	cmp	r2, r3
 8021e34:	d11a      	bne.n	8021e6c <HAL_RCC_OscConfig+0x848>
          ((READ_BIT(temp2_pllckcfg, RCC_PLL1DIVR_P1) >> RCC_PLL1DIVR_P1_Pos) != (RCC_OscInitStruct->PLL.PLLP - 1U)) ||
 8021e36:	68fb      	ldr	r3, [r7, #12]
 8021e38:	0a5b      	lsrs	r3, r3, #9
 8021e3a:	f003 027f 	and.w	r2, r3, #127	; 0x7f
 8021e3e:	687b      	ldr	r3, [r7, #4]
 8021e40:	6b5b      	ldr	r3, [r3, #52]	; 0x34
 8021e42:	3b01      	subs	r3, #1
          (READ_BIT(temp2_pllckcfg, RCC_PLL1DIVR_N1) != (RCC_OscInitStruct->PLL.PLLN - 1U)) ||
 8021e44:	429a      	cmp	r2, r3
 8021e46:	d111      	bne.n	8021e6c <HAL_RCC_OscConfig+0x848>
          ((READ_BIT(temp2_pllckcfg, RCC_PLL1DIVR_Q1) >> RCC_PLL1DIVR_Q1_Pos) != (RCC_OscInitStruct->PLL.PLLQ - 1U)) ||
 8021e48:	68fb      	ldr	r3, [r7, #12]
 8021e4a:	0c1b      	lsrs	r3, r3, #16
 8021e4c:	f003 027f 	and.w	r2, r3, #127	; 0x7f
 8021e50:	687b      	ldr	r3, [r7, #4]
 8021e52:	6b9b      	ldr	r3, [r3, #56]	; 0x38
 8021e54:	3b01      	subs	r3, #1
          ((READ_BIT(temp2_pllckcfg, RCC_PLL1DIVR_P1) >> RCC_PLL1DIVR_P1_Pos) != (RCC_OscInitStruct->PLL.PLLP - 1U)) ||
 8021e56:	429a      	cmp	r2, r3
 8021e58:	d108      	bne.n	8021e6c <HAL_RCC_OscConfig+0x848>
          ((READ_BIT(temp2_pllckcfg, RCC_PLL1DIVR_R1) >> RCC_PLL1DIVR_R1_Pos) != (RCC_OscInitStruct->PLL.PLLR - 1U)))
 8021e5a:	68fb      	ldr	r3, [r7, #12]
 8021e5c:	0e1b      	lsrs	r3, r3, #24
 8021e5e:	f003 027f 	and.w	r2, r3, #127	; 0x7f
 8021e62:	687b      	ldr	r3, [r7, #4]
 8021e64:	6bdb      	ldr	r3, [r3, #60]	; 0x3c
 8021e66:	3b01      	subs	r3, #1
          ((READ_BIT(temp2_pllckcfg, RCC_PLL1DIVR_Q1) >> RCC_PLL1DIVR_Q1_Pos) != (RCC_OscInitStruct->PLL.PLLQ - 1U)) ||
 8021e68:	429a      	cmp	r2, r3
 8021e6a:	d001      	beq.n	8021e70 <HAL_RCC_OscConfig+0x84c>
      {
        return HAL_ERROR;
 8021e6c:	2301      	movs	r3, #1
 8021e6e:	e02b      	b.n	8021ec8 <HAL_RCC_OscConfig+0x8a4>
      }
      else
      {
        /* Check if only fractional part needs to be updated  */
        temp1_pllckcfg = ((RCC->PLL1FRACR & RCC_PLL1FRACR_FRACN1) >> RCC_PLL1FRACR_FRACN1_Pos);
 8021e70:	4b17      	ldr	r3, [pc, #92]	; (8021ed0 <HAL_RCC_OscConfig+0x8ac>)
 8021e72:	6b5b      	ldr	r3, [r3, #52]	; 0x34
 8021e74:	08db      	lsrs	r3, r3, #3
 8021e76:	f3c3 030c 	ubfx	r3, r3, #0, #13
 8021e7a:	613b      	str	r3, [r7, #16]
        if (RCC_OscInitStruct->PLL.PLLFRACN != temp1_pllckcfg)
 8021e7c:	687b      	ldr	r3, [r7, #4]
 8021e7e:	6c9b      	ldr	r3, [r3, #72]	; 0x48
 8021e80:	693a      	ldr	r2, [r7, #16]
 8021e82:	429a      	cmp	r2, r3
 8021e84:	d01f      	beq.n	8021ec6 <HAL_RCC_OscConfig+0x8a2>
        {
          assert_param(IS_RCC_PLLFRACN_VALUE(RCC_OscInitStruct->PLL.PLLFRACN));
          /* Disable PLL1FRACEN */
          __HAL_RCC_PLLFRACN_DISABLE();
 8021e86:	4b12      	ldr	r3, [pc, #72]	; (8021ed0 <HAL_RCC_OscConfig+0x8ac>)
 8021e88:	6adb      	ldr	r3, [r3, #44]	; 0x2c
 8021e8a:	4a11      	ldr	r2, [pc, #68]	; (8021ed0 <HAL_RCC_OscConfig+0x8ac>)
 8021e8c:	f023 0301 	bic.w	r3, r3, #1
 8021e90:	62d3      	str	r3, [r2, #44]	; 0x2c
          /* Get Start Tick*/
          tickstart = HAL_GetTick();
 8021e92:	f7ff f827 	bl	8020ee4 <HAL_GetTick>
 8021e96:	6278      	str	r0, [r7, #36]	; 0x24
          /* Wait at least 2 CK_REF (PLL input source divided by M) period to make sure next latched value will be taken into account. */
          while ((HAL_GetTick() - tickstart) < PLL_FRAC_TIMEOUT_VALUE)
 8021e98:	bf00      	nop
 8021e9a:	f7ff f823 	bl	8020ee4 <HAL_GetTick>
 8021e9e:	4602      	mov	r2, r0
 8021ea0:	6a7b      	ldr	r3, [r7, #36]	; 0x24
 8021ea2:	4293      	cmp	r3, r2
 8021ea4:	d0f9      	beq.n	8021e9a <HAL_RCC_OscConfig+0x876>
          {
          }
          /* Configure PLL1 PLL1FRACN */
          __HAL_RCC_PLLFRACN_CONFIG(RCC_OscInitStruct->PLL.PLLFRACN);
 8021ea6:	4b0a      	ldr	r3, [pc, #40]	; (8021ed0 <HAL_RCC_OscConfig+0x8ac>)
 8021ea8:	6b5a      	ldr	r2, [r3, #52]	; 0x34
 8021eaa:	4b0a      	ldr	r3, [pc, #40]	; (8021ed4 <HAL_RCC_OscConfig+0x8b0>)
 8021eac:	4013      	ands	r3, r2
 8021eae:	687a      	ldr	r2, [r7, #4]
 8021eb0:	6c92      	ldr	r2, [r2, #72]	; 0x48
 8021eb2:	00d2      	lsls	r2, r2, #3
 8021eb4:	4906      	ldr	r1, [pc, #24]	; (8021ed0 <HAL_RCC_OscConfig+0x8ac>)
 8021eb6:	4313      	orrs	r3, r2
 8021eb8:	634b      	str	r3, [r1, #52]	; 0x34
          /* Enable PLL1FRACEN to latch new value. */
          __HAL_RCC_PLLFRACN_ENABLE();
 8021eba:	4b05      	ldr	r3, [pc, #20]	; (8021ed0 <HAL_RCC_OscConfig+0x8ac>)
 8021ebc:	6adb      	ldr	r3, [r3, #44]	; 0x2c
 8021ebe:	4a04      	ldr	r2, [pc, #16]	; (8021ed0 <HAL_RCC_OscConfig+0x8ac>)
 8021ec0:	f043 0301 	orr.w	r3, r3, #1
 8021ec4:	62d3      	str	r3, [r2, #44]	; 0x2c
        }
      }
    }
  }
  return HAL_OK;
 8021ec6:	2300      	movs	r3, #0
}
 8021ec8:	4618      	mov	r0, r3
 8021eca:	3730      	adds	r7, #48	; 0x30
 8021ecc:	46bd      	mov	sp, r7
 8021ece:	bd80      	pop	{r7, pc}
 8021ed0:	58024400 	.word	0x58024400
 8021ed4:	ffff0007 	.word	0xffff0007

08021ed8 <HAL_RCC_ClockConfig>:
  *         D1CPRE[3:0] bits to ensure that  Domain1 core clock not exceed the maximum allowed frequency
  *         (for more details refer to section above "Initialization/de-initialization functions")
  * @retval None
  */
HAL_StatusTypeDef HAL_RCC_ClockConfig(RCC_ClkInitTypeDef  *RCC_ClkInitStruct, uint32_t FLatency)
{
 8021ed8:	b580      	push	{r7, lr}
 8021eda:	b086      	sub	sp, #24
 8021edc:	af00      	add	r7, sp, #0
 8021ede:	6078      	str	r0, [r7, #4]
 8021ee0:	6039      	str	r1, [r7, #0]
  HAL_StatusTypeDef halstatus;
  uint32_t tickstart;
  uint32_t common_system_clock;

  /* Check Null pointer */
  if (RCC_ClkInitStruct == NULL)
 8021ee2:	687b      	ldr	r3, [r7, #4]
 8021ee4:	2b00      	cmp	r3, #0
 8021ee6:	d101      	bne.n	8021eec <HAL_RCC_ClockConfig+0x14>
  {
    return HAL_ERROR;
 8021ee8:	2301      	movs	r3, #1
 8021eea:	e19c      	b.n	8022226 <HAL_RCC_ClockConfig+0x34e>
  /* To correctly read data from FLASH memory, the number of wait states (LATENCY)
    must be correctly programmed according to the frequency of the CPU clock
    (HCLK) and the supply voltage of the device. */

  /* Increasing the CPU frequency */
  if (FLatency > __HAL_FLASH_GET_LATENCY())
 8021eec:	4b8a      	ldr	r3, [pc, #552]	; (8022118 <HAL_RCC_ClockConfig+0x240>)
 8021eee:	681b      	ldr	r3, [r3, #0]
 8021ef0:	f003 030f 	and.w	r3, r3, #15
 8021ef4:	683a      	ldr	r2, [r7, #0]
 8021ef6:	429a      	cmp	r2, r3
 8021ef8:	d910      	bls.n	8021f1c <HAL_RCC_ClockConfig+0x44>
  {
    /* Program the new number of wait states to the LATENCY bits in the FLASH_ACR register */
    __HAL_FLASH_SET_LATENCY(FLatency);
 8021efa:	4b87      	ldr	r3, [pc, #540]	; (8022118 <HAL_RCC_ClockConfig+0x240>)
 8021efc:	681b      	ldr	r3, [r3, #0]
 8021efe:	f023 020f 	bic.w	r2, r3, #15
 8021f02:	4985      	ldr	r1, [pc, #532]	; (8022118 <HAL_RCC_ClockConfig+0x240>)
 8021f04:	683b      	ldr	r3, [r7, #0]
 8021f06:	4313      	orrs	r3, r2
 8021f08:	600b      	str	r3, [r1, #0]

    /* Check that the new number of wait states is taken into account to access the Flash
    memory by reading the FLASH_ACR register */
    if (__HAL_FLASH_GET_LATENCY() != FLatency)
 8021f0a:	4b83      	ldr	r3, [pc, #524]	; (8022118 <HAL_RCC_ClockConfig+0x240>)
 8021f0c:	681b      	ldr	r3, [r3, #0]
 8021f0e:	f003 030f 	and.w	r3, r3, #15
 8021f12:	683a      	ldr	r2, [r7, #0]
 8021f14:	429a      	cmp	r2, r3
 8021f16:	d001      	beq.n	8021f1c <HAL_RCC_ClockConfig+0x44>
    {
      return HAL_ERROR;
 8021f18:	2301      	movs	r3, #1
 8021f1a:	e184      	b.n	8022226 <HAL_RCC_ClockConfig+0x34e>

  }

  /* Increasing the BUS frequency divider */
  /*-------------------------- D1PCLK1/CDPCLK1 Configuration ---------------------------*/
  if (((RCC_ClkInitStruct->ClockType) & RCC_CLOCKTYPE_D1PCLK1) == RCC_CLOCKTYPE_D1PCLK1)
 8021f1c:	687b      	ldr	r3, [r7, #4]
 8021f1e:	681b      	ldr	r3, [r3, #0]
 8021f20:	f003 0304 	and.w	r3, r3, #4
 8021f24:	2b00      	cmp	r3, #0
 8021f26:	d010      	beq.n	8021f4a <HAL_RCC_ClockConfig+0x72>
  {
#if defined (RCC_D1CFGR_D1PPRE)
    if ((RCC_ClkInitStruct->APB3CLKDivider) > (RCC->D1CFGR & RCC_D1CFGR_D1PPRE))
 8021f28:	687b      	ldr	r3, [r7, #4]
 8021f2a:	691a      	ldr	r2, [r3, #16]
 8021f2c:	4b7b      	ldr	r3, [pc, #492]	; (802211c <HAL_RCC_ClockConfig+0x244>)
 8021f2e:	699b      	ldr	r3, [r3, #24]
 8021f30:	f003 0370 	and.w	r3, r3, #112	; 0x70
 8021f34:	429a      	cmp	r2, r3
 8021f36:	d908      	bls.n	8021f4a <HAL_RCC_ClockConfig+0x72>
    {
      assert_param(IS_RCC_D1PCLK1(RCC_ClkInitStruct->APB3CLKDivider));
      MODIFY_REG(RCC->D1CFGR, RCC_D1CFGR_D1PPRE, RCC_ClkInitStruct->APB3CLKDivider);
 8021f38:	4b78      	ldr	r3, [pc, #480]	; (802211c <HAL_RCC_ClockConfig+0x244>)
 8021f3a:	699b      	ldr	r3, [r3, #24]
 8021f3c:	f023 0270 	bic.w	r2, r3, #112	; 0x70
 8021f40:	687b      	ldr	r3, [r7, #4]
 8021f42:	691b      	ldr	r3, [r3, #16]
 8021f44:	4975      	ldr	r1, [pc, #468]	; (802211c <HAL_RCC_ClockConfig+0x244>)
 8021f46:	4313      	orrs	r3, r2
 8021f48:	618b      	str	r3, [r1, #24]
    }
#endif
  }

  /*-------------------------- PCLK1 Configuration ---------------------------*/
  if (((RCC_ClkInitStruct->ClockType) & RCC_CLOCKTYPE_PCLK1) == RCC_CLOCKTYPE_PCLK1)
 8021f4a:	687b      	ldr	r3, [r7, #4]
 8021f4c:	681b      	ldr	r3, [r3, #0]
 8021f4e:	f003 0308 	and.w	r3, r3, #8
 8021f52:	2b00      	cmp	r3, #0
 8021f54:	d010      	beq.n	8021f78 <HAL_RCC_ClockConfig+0xa0>
  {
#if defined (RCC_D2CFGR_D2PPRE1)
    if ((RCC_ClkInitStruct->APB1CLKDivider) > (RCC->D2CFGR & RCC_D2CFGR_D2PPRE1))
 8021f56:	687b      	ldr	r3, [r7, #4]
 8021f58:	695a      	ldr	r2, [r3, #20]
 8021f5a:	4b70      	ldr	r3, [pc, #448]	; (802211c <HAL_RCC_ClockConfig+0x244>)
 8021f5c:	69db      	ldr	r3, [r3, #28]
 8021f5e:	f003 0370 	and.w	r3, r3, #112	; 0x70
 8021f62:	429a      	cmp	r2, r3
 8021f64:	d908      	bls.n	8021f78 <HAL_RCC_ClockConfig+0xa0>
    {
      assert_param(IS_RCC_PCLK1(RCC_ClkInitStruct->APB1CLKDivider));
      MODIFY_REG(RCC->D2CFGR, RCC_D2CFGR_D2PPRE1, (RCC_ClkInitStruct->APB1CLKDivider));
 8021f66:	4b6d      	ldr	r3, [pc, #436]	; (802211c <HAL_RCC_ClockConfig+0x244>)
 8021f68:	69db      	ldr	r3, [r3, #28]
 8021f6a:	f023 0270 	bic.w	r2, r3, #112	; 0x70
 8021f6e:	687b      	ldr	r3, [r7, #4]
 8021f70:	695b      	ldr	r3, [r3, #20]
 8021f72:	496a      	ldr	r1, [pc, #424]	; (802211c <HAL_RCC_ClockConfig+0x244>)
 8021f74:	4313      	orrs	r3, r2
 8021f76:	61cb      	str	r3, [r1, #28]
      MODIFY_REG(RCC->CDCFGR2, RCC_CDCFGR2_CDPPRE1, (RCC_ClkInitStruct->APB1CLKDivider));
    }
#endif
  }
  /*-------------------------- PCLK2 Configuration ---------------------------*/
  if (((RCC_ClkInitStruct->ClockType) & RCC_CLOCKTYPE_PCLK2) == RCC_CLOCKTYPE_PCLK2)
 8021f78:	687b      	ldr	r3, [r7, #4]
 8021f7a:	681b      	ldr	r3, [r3, #0]
 8021f7c:	f003 0310 	and.w	r3, r3, #16
 8021f80:	2b00      	cmp	r3, #0
 8021f82:	d010      	beq.n	8021fa6 <HAL_RCC_ClockConfig+0xce>
  {
#if defined(RCC_D2CFGR_D2PPRE2)
    if ((RCC_ClkInitStruct->APB2CLKDivider) > (RCC->D2CFGR & RCC_D2CFGR_D2PPRE2))
 8021f84:	687b      	ldr	r3, [r7, #4]
 8021f86:	699a      	ldr	r2, [r3, #24]
 8021f88:	4b64      	ldr	r3, [pc, #400]	; (802211c <HAL_RCC_ClockConfig+0x244>)
 8021f8a:	69db      	ldr	r3, [r3, #28]
 8021f8c:	f403 63e0 	and.w	r3, r3, #1792	; 0x700
 8021f90:	429a      	cmp	r2, r3
 8021f92:	d908      	bls.n	8021fa6 <HAL_RCC_ClockConfig+0xce>
    {
      assert_param(IS_RCC_PCLK2(RCC_ClkInitStruct->APB2CLKDivider));
      MODIFY_REG(RCC->D2CFGR, RCC_D2CFGR_D2PPRE2, (RCC_ClkInitStruct->APB2CLKDivider));
 8021f94:	4b61      	ldr	r3, [pc, #388]	; (802211c <HAL_RCC_ClockConfig+0x244>)
 8021f96:	69db      	ldr	r3, [r3, #28]
 8021f98:	f423 62e0 	bic.w	r2, r3, #1792	; 0x700
 8021f9c:	687b      	ldr	r3, [r7, #4]
 8021f9e:	699b      	ldr	r3, [r3, #24]
 8021fa0:	495e      	ldr	r1, [pc, #376]	; (802211c <HAL_RCC_ClockConfig+0x244>)
 8021fa2:	4313      	orrs	r3, r2
 8021fa4:	61cb      	str	r3, [r1, #28]
    }
#endif
  }

  /*-------------------------- D3PCLK1 Configuration ---------------------------*/
  if (((RCC_ClkInitStruct->ClockType) & RCC_CLOCKTYPE_D3PCLK1) == RCC_CLOCKTYPE_D3PCLK1)
 8021fa6:	687b      	ldr	r3, [r7, #4]
 8021fa8:	681b      	ldr	r3, [r3, #0]
 8021faa:	f003 0320 	and.w	r3, r3, #32
 8021fae:	2b00      	cmp	r3, #0
 8021fb0:	d010      	beq.n	8021fd4 <HAL_RCC_ClockConfig+0xfc>
  {
#if defined(RCC_D3CFGR_D3PPRE)
    if ((RCC_ClkInitStruct->APB4CLKDivider) > (RCC->D3CFGR & RCC_D3CFGR_D3PPRE))
 8021fb2:	687b      	ldr	r3, [r7, #4]
 8021fb4:	69da      	ldr	r2, [r3, #28]
 8021fb6:	4b59      	ldr	r3, [pc, #356]	; (802211c <HAL_RCC_ClockConfig+0x244>)
 8021fb8:	6a1b      	ldr	r3, [r3, #32]
 8021fba:	f003 0370 	and.w	r3, r3, #112	; 0x70
 8021fbe:	429a      	cmp	r2, r3
 8021fc0:	d908      	bls.n	8021fd4 <HAL_RCC_ClockConfig+0xfc>
    {
      assert_param(IS_RCC_D3PCLK1(RCC_ClkInitStruct->APB4CLKDivider));
      MODIFY_REG(RCC->D3CFGR, RCC_D3CFGR_D3PPRE, (RCC_ClkInitStruct->APB4CLKDivider));
 8021fc2:	4b56      	ldr	r3, [pc, #344]	; (802211c <HAL_RCC_ClockConfig+0x244>)
 8021fc4:	6a1b      	ldr	r3, [r3, #32]
 8021fc6:	f023 0270 	bic.w	r2, r3, #112	; 0x70
 8021fca:	687b      	ldr	r3, [r7, #4]
 8021fcc:	69db      	ldr	r3, [r3, #28]
 8021fce:	4953      	ldr	r1, [pc, #332]	; (802211c <HAL_RCC_ClockConfig+0x244>)
 8021fd0:	4313      	orrs	r3, r2
 8021fd2:	620b      	str	r3, [r1, #32]
    }
#endif
  }

  /*-------------------------- HCLK Configuration --------------------------*/
  if (((RCC_ClkInitStruct->ClockType) & RCC_CLOCKTYPE_HCLK) == RCC_CLOCKTYPE_HCLK)
 8021fd4:	687b      	ldr	r3, [r7, #4]
 8021fd6:	681b      	ldr	r3, [r3, #0]
 8021fd8:	f003 0302 	and.w	r3, r3, #2
 8021fdc:	2b00      	cmp	r3, #0
 8021fde:	d010      	beq.n	8022002 <HAL_RCC_ClockConfig+0x12a>
  {
#if defined (RCC_D1CFGR_HPRE)
    if ((RCC_ClkInitStruct->AHBCLKDivider) > (RCC->D1CFGR & RCC_D1CFGR_HPRE))
 8021fe0:	687b      	ldr	r3, [r7, #4]
 8021fe2:	68da      	ldr	r2, [r3, #12]
 8021fe4:	4b4d      	ldr	r3, [pc, #308]	; (802211c <HAL_RCC_ClockConfig+0x244>)
 8021fe6:	699b      	ldr	r3, [r3, #24]
 8021fe8:	f003 030f 	and.w	r3, r3, #15
 8021fec:	429a      	cmp	r2, r3
 8021fee:	d908      	bls.n	8022002 <HAL_RCC_ClockConfig+0x12a>
    {
      /* Set the new HCLK clock divider */
      assert_param(IS_RCC_HCLK(RCC_ClkInitStruct->AHBCLKDivider));
      MODIFY_REG(RCC->D1CFGR, RCC_D1CFGR_HPRE, RCC_ClkInitStruct->AHBCLKDivider);
 8021ff0:	4b4a      	ldr	r3, [pc, #296]	; (802211c <HAL_RCC_ClockConfig+0x244>)
 8021ff2:	699b      	ldr	r3, [r3, #24]
 8021ff4:	f023 020f 	bic.w	r2, r3, #15
 8021ff8:	687b      	ldr	r3, [r7, #4]
 8021ffa:	68db      	ldr	r3, [r3, #12]
 8021ffc:	4947      	ldr	r1, [pc, #284]	; (802211c <HAL_RCC_ClockConfig+0x244>)
 8021ffe:	4313      	orrs	r3, r2
 8022000:	618b      	str	r3, [r1, #24]
    }
#endif
  }

  /*------------------------- SYSCLK Configuration -------------------------*/
  if (((RCC_ClkInitStruct->ClockType) & RCC_CLOCKTYPE_SYSCLK) == RCC_CLOCKTYPE_SYSCLK)
 8022002:	687b      	ldr	r3, [r7, #4]
 8022004:	681b      	ldr	r3, [r3, #0]
 8022006:	f003 0301 	and.w	r3, r3, #1
 802200a:	2b00      	cmp	r3, #0
 802200c:	d055      	beq.n	80220ba <HAL_RCC_ClockConfig+0x1e2>
  {
    assert_param(IS_RCC_SYSCLK(RCC_ClkInitStruct->SYSCLKDivider));
    assert_param(IS_RCC_SYSCLKSOURCE(RCC_ClkInitStruct->SYSCLKSource));
#if defined(RCC_D1CFGR_D1CPRE)
    MODIFY_REG(RCC->D1CFGR, RCC_D1CFGR_D1CPRE, RCC_ClkInitStruct->SYSCLKDivider);
 802200e:	4b43      	ldr	r3, [pc, #268]	; (802211c <HAL_RCC_ClockConfig+0x244>)
 8022010:	699b      	ldr	r3, [r3, #24]
 8022012:	f423 6270 	bic.w	r2, r3, #3840	; 0xf00
 8022016:	687b      	ldr	r3, [r7, #4]
 8022018:	689b      	ldr	r3, [r3, #8]
 802201a:	4940      	ldr	r1, [pc, #256]	; (802211c <HAL_RCC_ClockConfig+0x244>)
 802201c:	4313      	orrs	r3, r2
 802201e:	618b      	str	r3, [r1, #24]
#else
    MODIFY_REG(RCC->CDCFGR1, RCC_CDCFGR1_CDCPRE, RCC_ClkInitStruct->SYSCLKDivider);
#endif
    /* HSE is selected as System Clock Source */
    if (RCC_ClkInitStruct->SYSCLKSource == RCC_SYSCLKSOURCE_HSE)
 8022020:	687b      	ldr	r3, [r7, #4]
 8022022:	685b      	ldr	r3, [r3, #4]
 8022024:	2b02      	cmp	r3, #2
 8022026:	d107      	bne.n	8022038 <HAL_RCC_ClockConfig+0x160>
    {
      /* Check the HSE ready flag */
      if (__HAL_RCC_GET_FLAG(RCC_FLAG_HSERDY) == 0U)
 8022028:	4b3c      	ldr	r3, [pc, #240]	; (802211c <HAL_RCC_ClockConfig+0x244>)
 802202a:	681b      	ldr	r3, [r3, #0]
 802202c:	f403 3300 	and.w	r3, r3, #131072	; 0x20000
 8022030:	2b00      	cmp	r3, #0
 8022032:	d121      	bne.n	8022078 <HAL_RCC_ClockConfig+0x1a0>
      {
        return HAL_ERROR;
 8022034:	2301      	movs	r3, #1
 8022036:	e0f6      	b.n	8022226 <HAL_RCC_ClockConfig+0x34e>
      }
    }
    /* PLL is selected as System Clock Source */
    else if (RCC_ClkInitStruct->SYSCLKSource == RCC_SYSCLKSOURCE_PLLCLK)
 8022038:	687b      	ldr	r3, [r7, #4]
 802203a:	685b      	ldr	r3, [r3, #4]
 802203c:	2b03      	cmp	r3, #3
 802203e:	d107      	bne.n	8022050 <HAL_RCC_ClockConfig+0x178>
    {
      /* Check the PLL ready flag */
      if (__HAL_RCC_GET_FLAG(RCC_FLAG_PLLRDY) == 0U)
 8022040:	4b36      	ldr	r3, [pc, #216]	; (802211c <HAL_RCC_ClockConfig+0x244>)
 8022042:	681b      	ldr	r3, [r3, #0]
 8022044:	f003 7300 	and.w	r3, r3, #33554432	; 0x2000000
 8022048:	2b00      	cmp	r3, #0
 802204a:	d115      	bne.n	8022078 <HAL_RCC_ClockConfig+0x1a0>
      {
        return HAL_ERROR;
 802204c:	2301      	movs	r3, #1
 802204e:	e0ea      	b.n	8022226 <HAL_RCC_ClockConfig+0x34e>
      }
    }
    /* CSI is selected as System Clock Source */
    else if (RCC_ClkInitStruct->SYSCLKSource == RCC_SYSCLKSOURCE_CSI)
 8022050:	687b      	ldr	r3, [r7, #4]
 8022052:	685b      	ldr	r3, [r3, #4]
 8022054:	2b01      	cmp	r3, #1
 8022056:	d107      	bne.n	8022068 <HAL_RCC_ClockConfig+0x190>
    {
      /* Check the PLL ready flag */
      if (__HAL_RCC_GET_FLAG(RCC_FLAG_CSIRDY) == 0U)
 8022058:	4b30      	ldr	r3, [pc, #192]	; (802211c <HAL_RCC_ClockConfig+0x244>)
 802205a:	681b      	ldr	r3, [r3, #0]
 802205c:	f403 7380 	and.w	r3, r3, #256	; 0x100
 8022060:	2b00      	cmp	r3, #0
 8022062:	d109      	bne.n	8022078 <HAL_RCC_ClockConfig+0x1a0>
      {
        return HAL_ERROR;
 8022064:	2301      	movs	r3, #1
 8022066:	e0de      	b.n	8022226 <HAL_RCC_ClockConfig+0x34e>
    }
    /* HSI is selected as System Clock Source */
    else
    {
      /* Check the HSI ready flag */
      if (__HAL_RCC_GET_FLAG(RCC_FLAG_HSIRDY) == 0U)
 8022068:	4b2c      	ldr	r3, [pc, #176]	; (802211c <HAL_RCC_ClockConfig+0x244>)
 802206a:	681b      	ldr	r3, [r3, #0]
 802206c:	f003 0304 	and.w	r3, r3, #4
 8022070:	2b00      	cmp	r3, #0
 8022072:	d101      	bne.n	8022078 <HAL_RCC_ClockConfig+0x1a0>
      {
        return HAL_ERROR;
 8022074:	2301      	movs	r3, #1
 8022076:	e0d6      	b.n	8022226 <HAL_RCC_ClockConfig+0x34e>
      }
    }
    MODIFY_REG(RCC->CFGR, RCC_CFGR_SW, RCC_ClkInitStruct->SYSCLKSource);
 8022078:	4b28      	ldr	r3, [pc, #160]	; (802211c <HAL_RCC_ClockConfig+0x244>)
 802207a:	691b      	ldr	r3, [r3, #16]
 802207c:	f023 0207 	bic.w	r2, r3, #7
 8022080:	687b      	ldr	r3, [r7, #4]
 8022082:	685b      	ldr	r3, [r3, #4]
 8022084:	4925      	ldr	r1, [pc, #148]	; (802211c <HAL_RCC_ClockConfig+0x244>)
 8022086:	4313      	orrs	r3, r2
 8022088:	610b      	str	r3, [r1, #16]

    /* Get Start Tick*/
    tickstart = HAL_GetTick();
 802208a:	f7fe ff2b 	bl	8020ee4 <HAL_GetTick>
 802208e:	6178      	str	r0, [r7, #20]

    while (__HAL_RCC_GET_SYSCLK_SOURCE() != (RCC_ClkInitStruct->SYSCLKSource << RCC_CFGR_SWS_Pos))
 8022090:	e00a      	b.n	80220a8 <HAL_RCC_ClockConfig+0x1d0>
    {
      if ((HAL_GetTick() - tickstart) > CLOCKSWITCH_TIMEOUT_VALUE)
 8022092:	f7fe ff27 	bl	8020ee4 <HAL_GetTick>
 8022096:	4602      	mov	r2, r0
 8022098:	697b      	ldr	r3, [r7, #20]
 802209a:	1ad3      	subs	r3, r2, r3
 802209c:	f241 3288 	movw	r2, #5000	; 0x1388
 80220a0:	4293      	cmp	r3, r2
 80220a2:	d901      	bls.n	80220a8 <HAL_RCC_ClockConfig+0x1d0>
      {
        return HAL_TIMEOUT;
 80220a4:	2303      	movs	r3, #3
 80220a6:	e0be      	b.n	8022226 <HAL_RCC_ClockConfig+0x34e>
    while (__HAL_RCC_GET_SYSCLK_SOURCE() != (RCC_ClkInitStruct->SYSCLKSource << RCC_CFGR_SWS_Pos))
 80220a8:	4b1c      	ldr	r3, [pc, #112]	; (802211c <HAL_RCC_ClockConfig+0x244>)
 80220aa:	691b      	ldr	r3, [r3, #16]
 80220ac:	f003 0238 	and.w	r2, r3, #56	; 0x38
 80220b0:	687b      	ldr	r3, [r7, #4]
 80220b2:	685b      	ldr	r3, [r3, #4]
 80220b4:	00db      	lsls	r3, r3, #3
 80220b6:	429a      	cmp	r2, r3
 80220b8:	d1eb      	bne.n	8022092 <HAL_RCC_ClockConfig+0x1ba>

  }

  /* Decreasing the BUS frequency divider */
  /*-------------------------- HCLK Configuration --------------------------*/
  if (((RCC_ClkInitStruct->ClockType) & RCC_CLOCKTYPE_HCLK) == RCC_CLOCKTYPE_HCLK)
 80220ba:	687b      	ldr	r3, [r7, #4]
 80220bc:	681b      	ldr	r3, [r3, #0]
 80220be:	f003 0302 	and.w	r3, r3, #2
 80220c2:	2b00      	cmp	r3, #0
 80220c4:	d010      	beq.n	80220e8 <HAL_RCC_ClockConfig+0x210>
  {
#if defined(RCC_D1CFGR_HPRE)
    if ((RCC_ClkInitStruct->AHBCLKDivider) < (RCC->D1CFGR & RCC_D1CFGR_HPRE))
 80220c6:	687b      	ldr	r3, [r7, #4]
 80220c8:	68da      	ldr	r2, [r3, #12]
 80220ca:	4b14      	ldr	r3, [pc, #80]	; (802211c <HAL_RCC_ClockConfig+0x244>)
 80220cc:	699b      	ldr	r3, [r3, #24]
 80220ce:	f003 030f 	and.w	r3, r3, #15
 80220d2:	429a      	cmp	r2, r3
 80220d4:	d208      	bcs.n	80220e8 <HAL_RCC_ClockConfig+0x210>
    {
      /* Set the new HCLK clock divider */
      assert_param(IS_RCC_HCLK(RCC_ClkInitStruct->AHBCLKDivider));
      MODIFY_REG(RCC->D1CFGR, RCC_D1CFGR_HPRE, RCC_ClkInitStruct->AHBCLKDivider);
 80220d6:	4b11      	ldr	r3, [pc, #68]	; (802211c <HAL_RCC_ClockConfig+0x244>)
 80220d8:	699b      	ldr	r3, [r3, #24]
 80220da:	f023 020f 	bic.w	r2, r3, #15
 80220de:	687b      	ldr	r3, [r7, #4]
 80220e0:	68db      	ldr	r3, [r3, #12]
 80220e2:	490e      	ldr	r1, [pc, #56]	; (802211c <HAL_RCC_ClockConfig+0x244>)
 80220e4:	4313      	orrs	r3, r2
 80220e6:	618b      	str	r3, [r1, #24]
    }
#endif
  }

  /* Decreasing the number of wait states because of lower CPU frequency */
  if (FLatency < __HAL_FLASH_GET_LATENCY())
 80220e8:	4b0b      	ldr	r3, [pc, #44]	; (8022118 <HAL_RCC_ClockConfig+0x240>)
 80220ea:	681b      	ldr	r3, [r3, #0]
 80220ec:	f003 030f 	and.w	r3, r3, #15
 80220f0:	683a      	ldr	r2, [r7, #0]
 80220f2:	429a      	cmp	r2, r3
 80220f4:	d214      	bcs.n	8022120 <HAL_RCC_ClockConfig+0x248>
  {
    /* Program the new number of wait states to the LATENCY bits in the FLASH_ACR register */
    __HAL_FLASH_SET_LATENCY(FLatency);
 80220f6:	4b08      	ldr	r3, [pc, #32]	; (8022118 <HAL_RCC_ClockConfig+0x240>)
 80220f8:	681b      	ldr	r3, [r3, #0]
 80220fa:	f023 020f 	bic.w	r2, r3, #15
 80220fe:	4906      	ldr	r1, [pc, #24]	; (8022118 <HAL_RCC_ClockConfig+0x240>)
 8022100:	683b      	ldr	r3, [r7, #0]
 8022102:	4313      	orrs	r3, r2
 8022104:	600b      	str	r3, [r1, #0]

    /* Check that the new number of wait states is taken into account to access the Flash
    memory by reading the FLASH_ACR register */
    if (__HAL_FLASH_GET_LATENCY() != FLatency)
