:020000040800F2
:1000000000000824DD1200082D0E0008330E000841
:10001000390E00083F0E0008450E000800000000E1
:100020000000000000000000000000004B0E00086F
:10003000590E000800000000670E0008750E000849
:100040002D1300082D1300082D1300082D13000890
:100050002D1300082D1300082D1300082D13000880
:100060002D1300082D1300082D1300082D13000870
:100070002D1300082D1300082D1300082D13000860
:100080002D1300082D1300082D1300082D13000850
:100090002D1300082D1300082D1300082D13000840
:1000A0002D1300082D1300082D1300082D13000830
:1000B0002D1300082D1300082D1300082D13000820
:1000C0002D1300082D1300082D1300082D13000810
:1000D0002D130008810E00082D1300082D130008B1
:1000E0002D1300082D130008000000002D13000838
:1000F0002D1300082D1300082D1300082D130008E0
:100100002D1300082D1300082D1300082D130008CF
:100110002D1300082D1300082D1300082D130008BF
:100120002D1300082D1300082D1300082D130008AF
:100130002D130008950E0008A90E00082D130008C5
:1001400000000000000000000000000000000000AF
:100150002D1300082D1300082D1300082D1300087F
:100160002D1300082D1300082D1300082D1300086F
:100170002D1300082D1300082D13000800000000A7
:100180002D1300082D1300082D1300082D1300084F
:100190002D1300082D1300082D1300082D1300083F
:1001A0002D1300082D1300082D1300082D1300082F
:1001B0002D1300082D1300082D1300082D1300081F
:1001C0002D1300082D1300082D1300082D1300080F
:1001D0002D1300082D1300082D1300082D130008FF
:1001E0002D1300082D1300082D1300082D130008EF
:1001F0002D1300082D1300082D1300082D130008DF
:100200002D1300082D1300082D1300082D130008CE
:100210002D1300082D1300082D1300082D130008BE
:100220002D1300082D1300082D13000800000000F6
:100230002D1300082D130008000000002D130008E6
:100240002D1300082D1300082D1300082D1300088E
:100250002D1300082D1300082D1300082D1300087E
:100260002D1300082D1300082D1300082D1300086E
:100270002D1300082D1300082D13000800000000A6
:100280002D1300082D1300082D1300080000000096
:08029000000000002D1300081E
:1002A00010B5054C237833B9044B13B10448AFF3B0
:1002B00000800123237010BDF8010024000000001D
:1002C000BC7F010808B5034B1BB103490348AFF3DA
:1002D000008008BD00000000FC010024BC7F010874
:1002E00001F0FF01102A2BDB10F0070F08D010F8E7
:1002F000013B013A8B422DD010F0070F42B3F6D1EB
:10030000F0B441EA012141EA014122F007047FF003
:1003100000070023F0E80256083C85EA010586EA5A
:10032000010685FA47F5A3FA87F586FA47F6A5FA96
:1003300087F68EB9EED1F0BC01F0FF0102F00702A2
:1003400032B110F8013B013A83EA010313B1F8D14D
:100350000020704701387047002D06BF354603382E
:10036000073815F0010F07D1013015F4807F02BF67
:10037000013015F4C03F0130F0BC0138704700BFB8
:10038000034613F8012B002AFBD1181A01387047D5
:1003900081F0004102E000BF83F0004330B54FEA36
:1003A00041044FEA430594EA050F08BF90EA020FA3
:1003B0001FBF54EA000C55EA020C7FEA645C7FEA36
:1003C000655C00F0E2804FEA5454D4EB5555B8BF59
:1003D0006D420CDD2C4480EA020281EA030382EACA
:1003E000000083EA010180EA020281EA0303362D5C
:1003F00088BF30BD11F0004F4FEA01314FF4801C2F
:100400004CEA113102D0404261EB410113F0004F40
:100410004FEA03334CEA133302D0524263EB4303F7
:1004200094EA050F00F0A780A4F10104D5F1200E95
:100430000DDB02FA0EFC22FA05F2801841F10001F0
:1004400003FA0EF2801843FA05F359410EE0A5F1C4
:1004500020050EF1200E012A03FA0EFC28BF4CF0F5
:10046000020C43FA05F3C01851EBE37101F00045AB
:1004700007D54FF0000EDCF1000C7EEB00006EEBB8
:100480000101B1F5801F1BD3B1F5001F0CD3490842
:100490005FEA30004FEA3C0C04F101044FEA445299
:1004A00012F5800F80F09A80BCF1004F08BF5FEA20
:1004B000500C50F1000041EB045141EA050130BD00
:1004C0005FEA4C0C404141EB0101013C28BFB1F512
:1004D000801FE9D291F0000F04BF01460020B1FA5D
:1004E00081F308BF2033A3F10B03B3F120020CDA30
:1004F0000C3208DD02F1140CC2F10C0201FA0CF00E
:1005000021FA02F10CE002F11402D8BFC2F1200C72
:1005100001FA02F120FA0CFCDCBF41EA0C01904028
:10052000E41AA2BF01EB0451294330BD6FEA040471
:100530001F3C1CDA0C340EDC04F11404C4F120025C
:1005400020FA04F001FA02F340EA030021FA04F36E
:1005500045EA030130BDC4F10C04C4F1200220FAC5
:1005600002F001FA04F340EA0300294630BD21FA03
:1005700004F0294630BD94F0000F83F4801306BFC9
:1005800081F480110134013D4EE77FEA645C18BFBD
:100590007FEA655C29D094EA050F08BF90EA020F54
:1005A00005D054EA000C04BF1946104630BD91EA4C
:1005B000030F1EBF0021002030BD5FEA545C05D14F
:1005C0004000494128BF41F0004130BD14F580048E
:1005D0003CBF01F5801130BD01F0004545F0FE4102
:1005E00041F470014FF0000030BD7FEA645C1ABF37
:1005F000194610467FEA655C1CBF0B46024650EA6E
:10060000013406BF52EA033591EA030F41F4002199
:1006100030BD00BF90F0000F04BF0021704730B51F
:100620004FF4806404F132044FF000054FF00001F4
:1006300050E700BF90F0000F04BF0021704730B5B5
:100640004FF4806404F1320410F0004548BF40428A
:100650004FF000013EE700BF42004FEAE2014FEADF
:1006600031014FEA02701FBF12F07F4393F07F4FBA
:1006700081F06051704732F07F4208BF704793F0BD
:100680007F4F04BF41F40021704730B54FF46074D0
:1006900001F0004521F000411CE700BF50EA0102D3
:1006A00008BF704730B54FF000050AE050EA01027C
:1006B00008BF704730B511F0004502D5404261EBEC
:1006C00041014FF4806404F132045FEA915C3FF42D
:1006D000D8AE4FF003025FEADC0C18BF03325FEACA
:1006E000DC0C18BF033202EBDC02C2F1200300FA7B
:1006F00003FC20FA02F001FA03FE40EA0E0021FAA0
:1007000002F11444BDE600BF53B94AB9002908BF3D
:1007100000281CBF4FF0FF314FF0FF3000F0A8B9A8
:10072000ADF1080C6DE904CE00F03EF8DDF804E010
:10073000DDE9022304B0704708B502460B4643ECDE
:10074000172BB5EEC07BF1EE10FA03D4BDE80840DC
:1007500000F00AB8B1EE477B51EC170B00F004F83B
:10076000404261EB410108BD9FED0B6B41EC170B63
:100770009FED0B5B27EE066BBCEEC66BB8EE464BEF
:10078000A4EE457BFCEEC77B16EE101A17EE900A1E
:10079000704700BFAFF30080000000000000F03D94
:1007A000000000000000F0412DE9F047089E0D46D2
:1007B00004460F46002B4AD18A42944665D9B2FAC4
:1007C00082F343B102FA03FCC3F120029F4020FAF6
:1007D00002F217439C404FEA1C4E1FFA8CF5B7FB00
:1007E000FEF1220C0EFB117742EA074201FB05F0F5
:1007F00090420AD91CEB020201F1FF3780F01C8104
:10080000904240F2198102396244121AA4B2B2FB3A
:10081000FEF00EFB102244EA024400FB05F5A5425F
:100820000AD91CEB040400F1FF3280F00781A542D5
:1008300040F204816444023840EA0140641B002114
:100840001EB1DC400023C6E90043BDE8F0878B42BF
:1008500008D9002E00F0ED800021C6E90005084609
:10086000BDE8F087B3FA83F1002949D1AB4202D346
:10087000824200F2F880841A65EB030201201746D9
:10088000002EE2D0C6E90047DFE702B9FFDEB2FA88
:1008900082F3002B40F090808A1A4FEA1C471FFA1F
:1008A0008CFE0121B2FBF7F507FB1520220C42EA72
:1008B00000420EFB05F0904208D91CEB020205F144
:1008C000FF3802D2904200F2CB804546121AA4B201
:1008D000B2FBF7F007FB102244EA02440EFB00FED5
:1008E000A64508D91CEB040400F1FF3202D2A6454C
:1008F00000F2BB801046A4EB0E0440EA05409FE7DF
:10090000C1F120078B4022FA07FC4CEA030C05FAE0
:1009100001F420FA07F3FD404FEA1C492343B5FBDD
:10092000F9F81FFA8CFE09FB18551C0C44EA054423
:1009300008FB0EF5A54202FA01F200FA01F00BD90C
:100940001CEB040408F1FF3A80F08880A54240F2D5
:100950008580A8F102086444641B9DB2B4FBF9F3DE
:1009600009FB134445EA044403FB0EFEA64508D9DF
:100970001CEB040403F1FF356CD2A6456AD9023B97
:10098000644443EA0843A3FB0295A4EB0E04AC4283
:10099000C846AE4656D353D056B1B0EB080264EB0E
:1009A0000E0404FA07F7CA40CC401743C6E90074A6
:1009B00018460021BDE8F087C3F1200102FA03FCCC
:1009C00020FA01F225FA01F19D402A434FEA1C4723
:1009D0001FFA8CFEB1FBF7F007FB1015110C41EA72
:1009E000054100FB0EF58D4204FA03F408D91CEB17
:1009F000010100F1FF382FD28D422DD90238614418
:100A0000491B92B2B1FBF7F507FB151142EA01420F
:100A100005FB0EF1914208D91CEB020205F1FF38EB
:100A200016D2914214D9023D6244521A45EA00415D
:100A300038E73146304608E73946E6E61046FBE639
:100A40004845A9D2B9EB020865EB0C0E013BA3E7C0
:100A50004546EAE72B4694E74046D1E7D0467BE798
:100A6000023D624432E708460AE76444023842E73E
:100A7000704700BF80B487B000AF284BD3F8E03098
:100A8000264A43F08003C2F8E030244BD3F8E0302C
:100A900003F080037B617B69204BD3F8E0301F4A71
:100AA00043F00403C2F8E0301C4BD3F8E03003F00D
:100AB00004033B613B69194BD3F8E030174A43F01C
:100AC0000103C2F8E030154BD3F8E03003F0010326
:100AD000FB60FB68114BD3F8E030104A43F002038F
:100AE000C2F8E0300D4BD3F8E03003F00203BB60F6
:100AF000BB680A4BD3F8E030084A43F04003C2F821
:100B0000E030064BD3F8E03003F040037B607B68B5
:100B100000BF1C37BD465DF8047B70470044025897
:100B200080B483B000AF786000BF084BDB6903F08E
:100B30004003002BF9D0054A7B6893627B68184616
:100B40000C37BD465DF8047B704700BF00100140C4
:100B500080B584B000AF2A4B5B6903F48033002B6F
:100B600038D1274B0022C3F88420BFF34F8F00BF3A
:100B7000234BD3F88030FB60FB685B0BC3F30E03A1
:100B8000BB60FB68DB08C3F309037B60BB685A01E9
:100B900043F6E07313407A68920719491343C1F88A
:100BA00060327B685A1E7A60002BEFD1BB685A1EF8
:100BB000BA60002BE5D1BFF34F8F00BF104B5B69CC
:100BC0000F4A43F480335361BFF34F8F00BFBFF32D
:100BD0006F8F00E000BF00F00BFD00F0C3F800F0E5
:100BE00013F812F069FDFFF745FF00F0B9FA07F0BE
:100BF0000DFF044813F07EFE08F054F8FCE700BF38
:100C000000ED00E0D87F010880B59EB000AF07F18D
:100C10002C034C220021184613F096FF07F10C0319
:100C200020220021184613F08FFF022003F094FBCE
:100C30000023BB60484BDB6A474A23F00103D362C1
:100C4000454BDB6A03F00103BB60444B9B69434A9D
:100C500043F440439361414B9B6903F44043BB60C1
:100C6000BB6800BF3D4B9B6903F40053B3F5005FC5
:100C7000F8D13B4BD3F8F430394A43F00203C2F8C1
:100C8000F430374BD3F8F43003F002037B607B6819
:100C900000233B60314B9B69304A43F440439361EE
:100CA0002E4B9B6903F440433B602B4BDB6A2A4A83
:100CB00043F00103D362284BDB6A03F001033B607E
:100CC0003B6800BF254B9B6903F40053B3F5005FFD
:100CD000F8D10123FB624FF480333B6302233B6571
:100CE00002237B650523BB65C023FB6502233B66AE
:100CF00002237B660223BB660823FB6600233B6757
:100D000000237B6707F12C03184603F05FFB0346C3
:100D1000002B01D000F06AF83F23FB6003233B6106
:100D200000237B610823BB614023FB6140233B62BE
:100D30004FF480637B624023BB6207F10C03042104
:100D4000184603F09DFF0346002B01D000F04EF83B
:100D500000BF7837BD4680BD0004005800480258E7
:100D60000044025880B584B000AF00F027FE012394
:100D70003B701C4B7B6007233B720323FB720123F8
:100D8000FB730023BB7300237B7300237B70002362
:100D9000BB7200237B7200233B733B46184600F076
:100DA00045FE01233B70104B7B600D233B720323F8
:100DB000FB720023FB730123BB7300237B730123AE
:100DC0007B700023BB7200237B7200233B733B4686
:100DD000184600F02BFE042000F008FE00BF10377C
:100DE000BD4680BD000004300040043080B400AF38
:100DF00072B600BFFEE7000080B483B000AF0A4BBC
:100E0000D3F8F430084A43F00203C2F8F430064B3A
:100E1000D3F8F43003F002037B607B6800BF0C372B
:100E2000BD465DF8047B70470044025880B400AFB3
:100E3000FEE780B400AFFEE780B400AFFEE780B409
:100E400000AFFEE780B400AFFEE780B400AF00BFA4
:100E5000BD465DF8047B704780B400AF00BFBD465F
:100E60005DF8047B704780B400AF00BFBD465DF8FD
:100E7000047B704780B500AF00F02CFC00BF80BD44
:100E800080B500AF024806F003F900BF80BD00BF87
:100E90001802002480B500AF024801F0CDFE00BF6B
:100EA00080BD00BF544D002480B500AF024801F062
:100EB000C3FE00BF80BD00BF544D002480B400AF0E
:100EC00001231846BD465DF8047B704780B483B0AB
:100ED00000AF78603960054B16221A604FF0FF337F
:100EE00018460C37BD465DF8047B704754800024DB
:100EF00080B582B000AF78604FF0FF317868FFF7BF
:100F0000E5FFFEE780B586B000AFF860B9607A60B3
:100F100000237B610AE0AFF300800146BB685A1CE6
:100F2000BA60CAB21A707B6901337B617A697B68E7
:100F30009A42F0DB7B6818461837BD4680BD80B505
:100F400086B000AFF860B9607A6000237B6109E089
:100F5000BB685A1CBA601B781846FFF7E1FD7B6935
:100F600001337B617A697B689A42F1DB7B681846C2
:100F70001837BD4680BD80B483B000AF78604FF0B5
:100F8000FF3318460C37BD465DF8047B704780B4CC
:100F900083B000AF786039603B684FF400525A600C
:100FA000002318460C37BD465DF8047B704780B4BB
:100FB00083B000AF7860012318460C37BD465DF85A
:100FC000047B704780B485B000AFF860B9607A6088
:100FD000002318461437BD465DF8047B70470000B7
:100FE00080B487B000AF7860144A154BD31A7B6188
:100FF0007B693B61134B1B68002B02D1114B124ADA
:101000001A60104B1A687B6813443A699A4205D2F9
:101010000E4B0C221A604FF0FF3309E0094B1B689E
:10102000FB60084B1A687B681344064A1360FB6830
:1010300018461C37BD465DF8047B70470000082445
:101040000040000014020024688000245480002422
:1010500080B400AF374BD3F88830364A43F470037E
:10106000C2F88830344B1B6803F00F03062B07D8F7
:10107000314B1B6823F00F032F4A43F00703136023
:101080002E4B1B682D4A43F0010313602B4B0022AB
:101090001A612A4B1A682949294B13400B60264BC9
:1010A0001B6803F00803002B07D0234B1B6823F0B9
:1010B0000F03214A43F007031360204B00229A617B
:1010C0001E4B0022DA611D4B00221A621B4B1D4A87
:1010D0009A621A4B1C4ADA62184B1C4A1A63174B65
:1010E00000225A63154B194A9A63144B0022DA63A3
:1010F000124B164A1A64114B00225A640F4B1B689C
:101100000E4A23F4802313600C4B00221A66104B06
:101110001A68104B1340B3F1005F02D20E4B01224C
:101120001A600E4B43F2D2021A6000BFBD465DF852
:10113000047B704700ED00E000200052004402589C
:101140007FEDF6EA000202020000FF0180020101C9
:101150000010005C0000FFFF0881005100400052B9
:1011600080B500AF224B234A1A60214B4FF4E13285
:101170005A601F4B00229A601D4B0022DA601C4B04
:1011800000221A611A4B0C225A61194B00229A61F3
:10119000174B0022DA61164B00221A62144B002210
:1011A0005A62134B00229A62114805F021FF034650
:1011B000002B01D0FFF71AFE00210D4807F05CFB61
:1011C0000346002B01D0FFF711FE0021084807F06D
:1011D00091FB0346002B01D0FFF708FE044807F0FF
:1011E00012FB0346002B01D0FFF700FE00BF80BDBD
:1011F000180200240010014080B5BAB000AF78603A
:1012000007F1D40300221A605A609A60DA601A610A
:1012100007F11003C0220021184613F095FC7B68EB
:101220001B682B4A93424ED14FF001024FF000034E
:10123000C7E904230023C7F88C3007F110031846D0
:1012400004F0AAF80346002B01D0FFF7CFFD214B95
:10125000D3F8F0301F4A43F01003C2F8F0301D4BB2
:10126000D3F8F03003F01003FB60FB68194BD3F8A0
:10127000E030184A43F00103C2F8E030154BD3F8D0
:10128000E03003F00103BB60BB684FF4C063C7F8F4
:10129000D4300223C7F8D8300023C7F8DC3000234D
:1012A000C7F8E0300723C7F8E43007F1D403194644
:1012B000094802F06FFE00220021252000F049FBC2
:1012C000252000F060FB00BFE837BD4680BD00BFB1
:1012D000001001400044025800000258DFF834D0EA
:1012E000FFF7B6FE0C480D490D4A002302E0D45822
:1012F000C4500433C4188C42F9D30A4A0A4C002360
:1013000001E013600432A242FBD313F087FCFFF725
:101310001FFC70470000082400000024F80100248E
:10132000DCB00108F801002464800024FEE780B4EA
:1013300083B000AF786039607B68002B0BD03B68CE
:10134000DB68002B07D03B689B68002B03D03B6811
:101350001B69002B02D14FF0FF3314E03B681A6881
:101360007B689A603B685A687B68DA603B68DA6839
:101370007B685A613B689A687B681A613B681A69A6
:101380007B689A61002318460C37BD465DF8047BE4
:10139000704780B586B000AF78600023FB60002303
:1013A000BB6000237B6100233B617B685B68002B93
:1013B0007CD17B689B68002B02D07B689B68984738
:1013C0007B6820221A6000237B611CE07B685B69DC
:1013D00007F108021221786998470346002B03DAC7
:1013E0006FF004033B610BE0BB6803F01F037A69F5
:1013F0009A4205D17B687A691A6000233B6105E057
:101400007B6901337B617B691F2BDFD97B681B689C
:101410001F2B02D96FF002033B613B69002B45D1C2
:101420007B681B697A6810684FF400420021984776
:101430000346002B37DB7B685B697A68106807F12D
:101440000802002198470346002B28DB7B689B6934
:1014500098470346FB601CE07B689B6998470346FE
:101460001A46FB68D31AB3F5FA7F0ED87B685B691E
:101470007A68106807F10802002198470346002B9C
:1014800007DA6FF004033B6110E06FF001033B618A
:101490000CE0BB6803F40043002BDDD106E06FF0E5
:1014A00004033B6102E06FF003033B613B69002BE7
:1014B00012D17B689B6998470346FB6000BF7B683D
:1014C0009B69984703461A46FB68D31AB3F5FA6F2F
:1014D000F5D97B6801225A603B6918461837BD462A
:1014E00080BD80B584B000AF78600023FB607B686E
:1014F0005B697A68106807F10C020121984703467E
:10150000002B02DA6FF004036EE07B685B697A6897
:10151000106807F10C02012198470346002B02DAFC
:101520006FF0040360E0FB6803F00403002B01D1BB
:10153000012359E07B685B697A68106807F10C0247
:10154000002198470346002B02DA6FF004034BE0BA
:10155000FB6803F48053002B1BD1FB6803F400539A
:10156000002B06D0FB6803F48073002B01D002230C
:101570003AE0FB6803F40053002B01D0032333E06F
:10158000FB6803F48073002B01D004232CE00523B7
:101590002AE07B685B697A68106807F10C021F21FA
:1015A00098470346002B02DA6FF004031CE0FB6847
:1015B00003F48053002B01D1062315E0FB6803F0F0
:1015C0001C03182B01D102230EE0FB6803F01C035F
:1015D000082B01D1032307E0FB6803F01C03142B45
:1015E00001D1042300E0052318461037BD4680BD15
:1015F00080B582B000AF032000F0A0F903F0F6FC44
:101600000246154B9B691B0A03F00F031349CB5C81
:1016100003F01F0322FA03F37B600F4B9B6903F077
:101620000F030E4AD35C03F01F037A6822FA03F318
:101630000B4A13600B4A7B6813600F2000F014F80C
:101640000346002B01D0012302E0FFF7D5FB002366
:1016500018460837BD4680BD0044025820AB01083B
:10166000040000240000002480B582B000AF786040
:10167000154B1B78002B01D1012321E0134B1A6875
:10168000114B1B7819464FF47A73B3FBF1F3B2FB9D
:10169000F3F3184600F085F90346002B01D001232F
:1016A0000EE07B680F2B0AD8002279684FF0FF30DC
:1016B00000F04FF9064A7B681360002300E0012325
:1016C00018460837BD4680BD0C00002400000024E9
:1016D0000800002480B400AF064B1B781A46064B66
:1016E0001B681344044A136000BFBD465DF8047BC9
:1016F000704700BF0C000024AC02002480B400AF8F
:10170000034B1B681846BD465DF8047B704700BF5D
:10171000AC02002480B584B000AF7860FFF7EEFF24
:10172000B8607B68FB60FB68B3F1FF3F05D00A4BF4
:101730001B781A46FB681344FB6000BFFFF7DEFF0F
:101740000246BB68D31AFA689A42F7D800BF00BFB6
:101750001037BD4680BD00BF0C00002480B400AF30
:10176000034B1B681B0C1846BD465DF8047B704795
:101770000010005C80B483B000AF7860064B5B68FB
:1017800023F4600204497B6813434B6000BF0C37AD
:10179000BD465DF8047B70470004005880B485B0F6
:1017A00000AF78607B6803F00703FB600B4BDB68DE
:1017B000BB60BA684FF6FF031340BB60FB681A02B8
:1017C000BB681A43064B1343BB60044ABB68D36033
:1017D00000BF1437BD465DF8047B704700ED00E0A4
:1017E0000000FA0580B400AF044BDB681B0A03F06D
:1017F00007031846BD465DF8047B704700ED00E026
:1018000080B483B000AF0346FB80B7F90630002BED
:101810000BDBFB8803F01F020749B7F906305B09B1
:10182000012000FA02F241F8232000BF0C37BD4628
:101830005DF8047B704700BF00E100E080B483B036
:1018400000AF03463960FB80B7F90630002B0ADB96
:101850003B68DAB20C49B7F906301201D2B20B4438
:1018600083F800230AE03B68DAB20849FB8803F0FA
:101870000F03043B1201D2B20B441A7600BF0C379F
:10188000BD465DF8047B704700E100E000ED00E03C
:1018900080B489B000AFF860B9607A60FB6803F08B
:1018A0000703FB61FB69C3F10703042B28BF042373
:1018B000BB61FB690433062B02D9FB69033B00E0E3
:1018C00000237B614FF0FF32BB6902FA03F3DA4376
:1018D000BB681A407B699A404FF0FF317B6901FA7F
:1018E00003F3D9437B680B40134318462437BD46A6
:1018F0005DF8047B7047000080B582B000AF78606F
:101900007B68013BB3F1807F01D301230FE00A4ADA
:101910007B68013B53600F214FF0FF30FFF78EFFD4
:10192000054B00229A60044B07221A6000231846D8
:101930000837BD4680BD00BF10E000E080B582B032
:1019400000AF78607868FFF729FF00BF0837BD4611
:1019500080BD80B586B000AF0346B9607A60FB8178
:10196000FFF740FF78617A68B9687869FFF790FF00
:101970000246B7F90E3011461846FFF75FFF00BF69
:101980001837BD4680BD80B582B000AF0346FB80EE
:10199000B7F906301846FFF733FF00BF0837BD46DA
:1019A00080BD80B582B000AF78607868FFF7A4FF93
:1019B000034618460837BD4680BD000080B400AF1E
:1019C000BFF35F8F00BF074B5B6A064A23F4803387
:1019D0005362054B00225A6000BFBD465DF8047B90
:1019E000704700BF00ED00E090ED00E080B483B0F0
:1019F00000AF78600B4A7B6843F0010353600A4BE9
:101A00005B6A094A43F480335362BFF34F8F00BFD0
:101A1000BFF36F8F00BF00BF0C37BD465DF8047B7E
:101A2000704700BF90ED00E000ED00E080B483B0AF
:101A300000AF78607B685A781D4B9A607B681B7892
:101A4000002B29D01A4A7B685B68D3607B681B7BBC
:101A50001A077B68DB7A1B061A437B689B7ADB04D8
:101A60001A437B685B7B9B041A437B689B7B5B040C
:101A70001A437B68DB7B1B041A437B685B7A1B027F
:101A80001A437B681B7A5B0013437A68127811460D
:101A9000074A0B43136105E0054B0022DA60044B53
:101AA00000221A6100BF0C37BD465DF8047B704709
:101AB00090ED00E080B586B000AF7860FFF71EFEC5
:101AC00038617B68002B01D10123DCE27B6893F84D
:101AD0003530DBB2022B08D07B6880225A657B68E8
:101AE000002283F834200123CDE27B681B68764A0C
:101AF00093424AD07B681B68744A934245D07B6806
:101B00001B68734A934240D07B681B68714A9342BA
:101B10003BD07B681B68704A934236D07B681B6859
:101B20006E4A934231D07B681B686D4A93422CD039
:101B30007B681B686B4A934227D07B681B686A4AA4
:101B4000934222D07B681B68684A93421DD07B6811
:101B50001B68674A934218D07B681B68654A9342AA
:101B600013D07B681B68644A93420ED07B681B6865
:101B7000624A934209D07B681B68614A934204D051
:101B80007B681B685F4A934201D1012300E0002378
:101B9000002B13D07B681B681A687B681B6822F0D7
:101BA0001E021A607B681B685A697B681B6822F0FA
:101BB00080025A617B681B687B610AE07B681B6856
:101BC0001A687B681B6822F00E021A607B681B682B
:101BD0007B617B681B683C4A934272D07B681B68C0
:101BE0003A4A93426DD07B681B68394A934268D069
:101BF0007B681B68374A934263D07B681B68364A10
:101C000093425ED07B681B68344A934259D07B680C
:101C10001B68334A934254D07B681B68314A934215
:101C20004FD07B681B68304A93424AD07B681B6860
:101C30002E4A934245D07B681B682D4A934240D080
:101C40007B681B682B4A93423BD07B681B682A4AFF
:101C5000934236D07B681B68284A934231D07B6818
:101C60001B68274A93422CD07B681B68254A934205
:101C700027D07B681B68244A934222D07B681B686C
:101C8000224A93421DD07B681B68214A934218D098
:101C90007B681B681F4A934213D07B681B681E4AEF
:101CA00093420ED07B681B681C4A934209D07B6824
:101CB0001B681B4A934204D07B681B68194A9342F5
:101CC00032D1012331E000BF100002402800024061
:101CD000400002405800024070000240880002406C
:101CE000A0000240B8000240100402402804024054
:101CF000400402405804024070040240880402403C
:101D0000A0040240B8040240085402581C5402586F
:101D10003054025844540258585402586C540258D3
:101D200080540258945402580023002B07D07B683B
:101D30001B6E1A687B681B6E22F480721A607B68C7
:101D40001B686D4A93424AD07B681B686B4A93427A
:101D500045D07B681B686A4A934240D07B681B6809
:101D6000684A93423BD07B681B68674A934236D0EF
:101D70007B681B68654A934231D07B681B68644A64
:101D800093422CD07B681B68624A934227D07B68C1
:101D90001B68614A934222D07B681B685F4A93426A
:101DA0001DD07B681B685E4A934218D07B681B6815
:101DB0005C4A934213D07B681B685B4A93420ED007
:101DC0007B681B68594A934209D07B681B68584A54
:101DD000934204D07B681B68564A934208D17B68C3
:101DE0001B681A687B681B6822F001021A6007E012
:101DF0007B681B681A687B681B6822F001021A6006
:101E000013E0FFF77BFC02463B69D31A052B0CD984
:101E10007B6820225A657B68032283F835207B6823
:101E2000002283F8342001232DE17B691B6803F035
:101E30000103002BE5D17B681B682F4A93424AD0EF
:101E40007B681B682D4A934245D07B681B682C4AEF
:101E5000934240D07B681B682A4A93423BD07B6800
:101E60001B68294A934236D07B681B68274A9342F5
:101E700031D07B681B68264A93422CD07B681B6854
:101E8000244A934227D07B681B68234A934222D07E
:101E90007B681B68214A93421DD07B681B68204ADF
:101EA000934218D07B681B681E4A934213D07B680C
:101EB0001B681D4A93420ED07B681B681B4A9342E5
:101EC00009D07B681B681A4A934204D07B681B6860
:101ED000184A934201D1012300E00023002B2BD0AC
:101EE0007B689B6DBB607B68DB6D03F01F033F224B
:101EF0009A40BB689A602AE0100002402800024025
:101F00004000024058000240700002408800024039
:101F1000A0000240B8000240100402402804024021
:101F20004004024058040240700402408804024009
:101F3000A0040240B80402407B689B6DFB607B6894
:101F4000DB6D03F01F0301229A40FB685A607B6837
:101F50001B684F4A934272D07B681B684D4A93427C
:101F60006DD07B681B684C4A934268D07B681B68C5
:101F70004A4A934263D07B681B68494A93425ED0C9
:101F80007B681B68474A934259D07B681B68464A66
:101F9000934254D07B681B68444A93424FD07B687D
:101FA0001B68434A93424AD07B681B68414A93426C
:101FB00045D07B681B68404A934240D07B681B68D1
:101FC0003E4A93423BD07B681B683D4A934236D0E1
:101FD0007B681B683B4A934231D07B681B683A4A56
:101FE00093422CD07B681B68384A934227D07B6889
:101FF0001B68374A934222D07B681B68354A93425C
:102000001DD07B681B68344A934218D07B681B68DC
:10201000324A934213D07B681B68314A93420ED0F8
:102020007B681B682F4A934209D07B681B682E4A45
:10203000934204D07B681B682C4A934201D1012350
:1020400000E00023002B15D07B685B6E7A68926EEF
:102050005A607B68DB6E002B0CD07B68DB6E1A68E5
:102060007B68DB6E22F480721A607B681B6F7A6873
:10207000526F5A607B68012283F835207B6800220A
:1020800083F83420002318461837BD4680BD00BFB2
:102090001000024028000240400002405800024068
:1020A0007000024088000240A0000240B8000240D8
:1020B0001004024028040240400402405804024038
:1020C0007004024088040240A0040240B8040240A8
:1020D000085402581C5402583054025844540258B0
:1020E000585402586C540258805402589454025860
:1020F00080B584B000AF78607B68002B01D10123EC
:1021000037E27B6893F83530DBB2022B04D07B6872
:1021100080225A6501232CE27B681B685C4A93424B
:102120004AD07B681B685B4A934245D07B681B683A
:10213000594A934240D07B681B68584A93423BD02F
:102140007B681B68564A934236D07B681B68554AA9
:10215000934231D07B681B68534A93422CD07B68F2
:102160001B68524A934227D07B681B68504A9342AF
:1021700022D07B681B684F4A93421DD07B681B6846
:102180004D4A934218D07B681B684C4A934213D047
:102190007B681B684A4A93420ED07B681B68494A99
:1021A000934209D07B681B68474A934204D07B68FE
:1021B0001B68464A934201D1012300E00023002B13
:1021C00000F086807B68042283F835207B681B68DA
:1021D0002F4A93424AD07B681B682E4A934245D0CF
:1021E0007B681B682C4A934240D07B681B682B4A53
:1021F00093423BD07B681B68294A934236D07B6868
:102200001B68284A934231D07B681B68264A934258
:102210002CD07B681B68254A934227D07B681B68BB
:10222000234A934222D07B681B68224A93421DD0E6
:102230007B681B68204A934218D07B681B681F4A42
:10224000934213D07B681B681D4A93420ED07B6873
:102250001B681C4A934209D07B681B681A4A934248
:1022600004D07B681B68194A934208D17B681B68BD
:102270001A687B681B6822F001021A6078E17B68AB
:102280001B681A687B681B6822F001021A606FE104
:102290001000024028000240400002405800024066
:1022A0007000024088000240A0000240B8000240D6
:1022B0001004024028040240400402405804024036
:1022C0007004024088040240A0040240B8040240A6
:1022D0007B681B681A687B681B6822F00E021A6014
:1022E0007B681B686C4A93424AD07B681B686B4AC8
:1022F000934245D07B681B68694A934240D07B6813
:102300001B68684A93423BD07B681B68664A9342CD
:1023100036D07B681B68654A934231D07B681B6866
:10232000634A93422CD07B681B68624A934227D051
:102330007B681B68604A934222D07B681B685F4AB7
:1023400093421DD07B681B685D4A934218D07B681E
:102350001B685C4A934213D07B681B685A4A9342BD
:102360000ED07B681B68594A934209D07B681B6872
:10237000574A934204D07B681B68564A934208D15F
:102380007B681B681A687B681B6822F001021A6070
:1023900007E07B681B681A687B681B6822F00102F3
:1023A0001A607B681B683C4A934272D07B681B684A
:1023B0003A4A93426DD07B681B68394A934268D091
:1023C0007B681B68374A934263D07B681B68364A38
:1023D00093425ED07B681B68344A934259D07B6835
:1023E0001B68334A934254D07B681B68314A93423E
:1023F0004FD07B681B68304A93424AD07B681B6889
:102400002E4A934245D07B681B682D4A934240D0A8
:102410007B681B682B4A93423BD07B681B682A4A27
:10242000934236D07B681B68284A934231D07B6840
:102430001B68274A93422CD07B681B68254A93422D
:1024400027D07B681B68244A934222D07B681B6894
:10245000224A93421DD07B681B68214A934218D0C0
:102460007B681B681F4A934213D07B681B681E4A17
:1024700093420ED07B681B681C4A934209D07B684C
:102480001B681B4A934204D07B681B68194A93421D
:1024900032D1012331E000BF100002402800024089
:1024A0004000024058000240700002408800024094
:1024B000A0000240B800024010040240280402407C
:1024C0004004024058040240700402408804024064
:1024D000A0040240B8040240085402581C54025898
:1024E0003054025844540258585402586C540258FC
:1024F00080540258945402580023002B28D07B6843
:102500001B6E1A687B681B6E22F480721A607B68EF
:102510009B6DFB607B68DB6D03F01F0301229A401B
:10252000FB685A607B685B6E7A68926E5A607B6863
:10253000DB6E002B0CD07B68DB6E1A687B68DB6E71
:1025400022F480721A607B681B6F7A68526F5A603F
:102550007B68012283F835207B68002283F83420D1
:102560007B681B6D002B03D07B681B6D78689847D8
:10257000002318461037BD4680BD00BF80B584B02B
:1025800000AF78607B68002B01D10123CFE07B682E
:10259000D3F88430002B06D17B682322C3F8842033
:1025A000786806F0BDFD644BD3F8F430624A43F01E
:1025B0000203C2F8F430604BD3F8F43003F00203A6
:1025C000BB60BB687B681B7A002B03D10020FFF740
:1025D000D1F803E04FF40000FFF7CCF8574B5B68ED
:1025E0007B681B6803F580531B687A68126843F0A8
:1025F000010302F580521360FFF780F8F86011E0E4
:10260000FFF77CF80246FB68D31AB3F5FA7F09D9C5
:102610007B680422C3F888207B68E022C3F884200A
:10262000012384E07B681B6803F580531B6803F07B
:102630000103002BE4D1786800F0E0FE02F050FEC8
:1026400003463F4AA2FB03239A0C7B681B68013AAE
:10265000C3F8DC20786801F0CBF87B681B6803F5D1
:102660008053D3F8003123F4E0137A68126843F4FE
:10267000002302F58052C2F800317B685B6903F0E9
:102680000303002B09D07B680122C3F888207B68F4
:10269000E022C3F88420012349E07B681B6803F52E
:1026A0008053D3F80821274B13407A6852695100B0
:1026B0007A6812680B4302F58052C2F808317868D4
:1026C00001F033F9786801F079F97B685B680533CC
:1026D0001B781A027B685B6804331B7819467B6899
:1026E0001B680A43C3F800237B685B6803331B78CD
:1026F0001A067B685B6802331B781B041A437B68ED
:102700005B6801331B781B021A437B685B681B788C
:1027100019467B681B680A43C3F804237B680022C0
:10272000C3F888207B681022C3F884200023184651
:102730001037BD4680BD00BF004402580004005859
:1027400083DE1B430180FFFF80B582B000AF78605D
:102750007B68D3F88430102B53D17B682322C3F8D5
:1027600084207B680422DA66786800F0F6F97B68DA
:102770001B681A687B681B6842F002021A607B685B
:102780001B681A687B681B6842F001021A607B684C
:102790001B68D3F8002D7B681B6842F00102C3F868
:1027A000002D7B681B6803F58053D3F804317A68E9
:1027B000126843F0010302F58052C2F804317B68CD
:1027C0001B6803F58053D3F808317A68126843F028
:1027D000010302F58052C2F808317B681B6803F5DB
:1027E0008053D3F860317A68126843F4817302F53C
:1027F0008052C2F860317B682322C3F88420002312
:1028000000E0012318460837BD4680BD80B483B080
:1028100000AF78607B68D3F88430232B3FD17B688E
:102820002322C3F884207B681B6803F58053D3F808
:1028300004317A68126823F0010302F58052C2F86D
:1028400004317B681B6803F58053D3F808317A683C
:10285000126823F0010302F58052C2F808317B6848
:102860001B681A687B681B6822F001021A607B688B
:102870001B68D3F8002D7B681B6842F00102C3F887
:10288000002D7B681B681A687B681B6822F00202B7
:102890001A607B681022C3F88420002300E0012323
:1028A00018460C37BD465DF8047B704780B586B08E
:1028B00000AFF860B9607A60BB68002B09D1FB6893
:1028C000D3F8883043F00102FB68C3F88820012365
:1028D0007FE0FB68D3F88430232B79D10022B968DC
:1028E000F86801F0C9F80346002B09D0FB68D3F85B
:1028F000883043F00202FB68C3F88820012368E0B7
:10290000BFF34F8F00BFFB689A6AFB68063253F82B
:1029100022307B61FB689B6A5A1CFB689A62FB68E9
:102920009B6A032B04D9FB689B6A1A1FFB689A6297
:10293000FB68996AFB681A68FB68063153F8213016
:1029400002F58052C2F82031FEF7D8FE386139E036
:10295000FB681B6803F58053D3F8603103F48053A0
:10296000002B12D0FB68D3F8883043F00802FB68D4
:10297000C3F88820FB681B6803F58053D3F86021F7
:10298000FB68C3F88C20012323E07B68B3F1FF3F91
:1029900018D0FEF7B3FE02463B69D31A7A689A4212
:1029A00002D37B68002B0DD1FB68D3F8883043F04D
:1029B0000402FB68C3F888207B694FF04052DA605C
:1029C000012306E07B69DB68002BC1DB002300E00C
:1029D000012318461837BD4680BD80B588B000AFCA
:1029E0007860396000237B610023FB733B68002B18
:1029F00009D17B68D3F8883043F001027B68C3F8C3
:102A000088200123A5E07B68D3F88430232B01D0F4
:102A100001239EE07B68DB6DFB617B68FA69123203
:102A200053F82230BB617B68DB6EC3F10403BB60EB
:102A300067E0BB69DB6803F08043002B07D0BB690C
:102A40005A687B689A67BB691A687B685A67BB6972
:102A5000DB6803F00053002B03D17B68DB6F002B96
:102A60003DD0BB69DB6803F00053002B05D07B68C9
:102A700000221A667B6800225A667B685B693B61AC
:102A8000BB69DB6803F08053002B0DD0BB69DB68AA
:102A9000C3F30E027B685B6ED31A3B61BB69DA68D5
:102AA0007B681A670123FB737B6803F17C007B68FA
:102AB00003F18001BB691B691A463B699BB206F0B2
:102AC00017FD7B681B6E5A1C7B681A667B685A6E02
:102AD0003B691A447B685A66BB6900221A61FB692C
:102AE0000133FB61FB69032B02D9FB69043BFB61EA
:102AF0007B68FA69123253F82230BB617B6901337B
:102B00007B61BB69DB68002B06DB7A69BB689A4294
:102B100002D2FB7B002B8CD07B68DA6E7B691A4477
:102B20007B68DA667B68DB6E002B02D0786800F089
:102B300014F87B68FA69DA65FB7B012B08D17B68A6
:102B4000DA6F3B681A607B680022DA67002300E0D6
:102B5000012318462037BD4680BD80B588B000AF40
:102B600078600023FB600123FB747B689B6EFB6134
:102B70007B68FA69123253F822307B617B68DB6E26
:102B8000BB613BE07B691B69002B12D107F10C0391
:102B9000184606F07DFCFB68002B02D10023FB7475
:102BA00007E0FB681A467B691A61FB681A467B6975
:102BB0001A60FB7C002B21D0BFF35F8F00BF7B68C6
:102BC0009B6D002B04D07B694FF04142DA6003E03B
:102BD0007B694FF00142DA60FB690133FB61FB69FD
:102BE000032B02D9FB69043BFB617B68FA69123253
:102BF00053F822307B61BB69013BBB61BB69002B91
:102C000002D0FB7C002BBDD17B68DB6EBA699A4297
:102C10000DD07B681B6803F580531A460023C2F869
:102C200028317B68FA699A667B68BA69DA6600BF00
:102C30002037BD4680BD000080B584B000AF78600D
:102C40007B681B6803F58053D3F8603103F04003C1
:102C5000402B15D17B681B6803F58053D3F83431C2
:102C600003F04003402B0BD17B681B6803F58053B6
:102C70001A4648F24003C2F86031786800F0F6F86E
:102C80007B681B6803F58053D3F8603103F00103C0
:102C9000012B15D17B681B6803F58053D3F83431C1
:102CA00003F00103012B0BD17B681B6803F58053F4
:102CB0001A4648F20103C2F86031786800F0CCF897
:102CC0007B681B6803F58053D3F8603103F48043BD
:102CD000B3F5804F53D17B681B6803F58053D3F85D
:102CE000343103F48043B3F5804F48D17B68D3F887
:102CF000883043F008027B68C3F888207B681B6833
:102D000003F58053D3F8603103F48053B3F5805F4B
:102D10001ED17B681B6803F58053D3F8602141F214
:102D2000021313407A68C2F88C307B681B6803F585
:102D30008053D3F834317A68126823F4404302F5A3
:102D40008052C2F834317B68E022C3F8842013E05B
:102D50007B681B6803F58053D3F8603103F4CD42E0
:102D60007B68C3F88C207B681B6803F580531A4688
:102D70004FF4CD43C2F86031786800F081F87B6889
:102D80001B68D3F8B430FB60FB6803F48043002B6E
:102D900004D1FB6803F40053002B19D07B68D3F8EF
:102DA000883043F010027B68C3F888207B681B687A
:102DB000D3F8B8207B68C3F890207B68E022C3F882
:102DC0008420786800F05CF87B680022C3F89020CB
:102DD0007B681B68D3F8B03003F01003102B0FD1C1
:102DE0007B681B68D3F8C03003F060027B68C3F8CF
:102DF0009420786800F04EF87B680022C3F8942095
:102E00007B681B68D3F8B03003F02003202B0FD170
:102E10007B681B68D3F8C03003F00F027B68C3F8EF
:102E20009820786800F040F87B680022C3F898206A
:102E3000084B9B6A03F48003002B06D0054B4FF42C
:102E400080029A62786800F039F800BF1037BD46FA
:102E500080BD00BF8000005880B483B000AF7860B0
:102E600000BF0C37BD465DF8047B704780B483B06B
:102E700000AF786000BF0C37BD465DF8047B70473B
:102E800080B483B000AF786000BF0C37BD465DF8FA
:102E9000047B704780B483B000AF786000BF0C370C
:102EA000BD465DF8047B704780B483B000AF7860A6
:102EB00000BF0C37BD465DF8047B704780B483B01B
:102EC00000AF786000BF0C37BD465DF8047B7047EB
:102ED00080B586B000AFF860B9607A603B60FB688F
:102EE0001B68D3F8003203F00103002B01D001234B
:102EF0003EE0FB681B68D3F800327B617B6923F0FE
:102F00007872BB685B0513437B617B6923F4F8121D
:102F10007B681B0413437B617B6943F00C037B617B
:102F20007B6943F001037B61FB681B687A69C3F826
:102F30000022FEF7E3FB386109E0FEF7DFFB024603
:102F40003B69D31AB3F57A7F01D9012310E0FB68FE
:102F50001B68D3F8003203F00103002BEDD1FB68AE
:102F60001B68D3F804329BB21A463B681A600023F0
:102F700018461837BD4680BD80B586B000AFF860F2
:102F8000B9607A603B60FB681B68D3F8003203F0DD
:102F90000103002B01D001233CE0FB681B68D3F840
:102FA00000327B617B6923F07872BB685B05134359
:102FB0007B617B6923F4F8127B681B0413437B61FC
:102FC0007B6923F00C0343F004037B617B6943F0CE
:102FD00001037B613B689AB2104BC3F804220F4A8D
:102FE0007B69C2F80032FEF789FB386109E0FEF721
:102FF00085FB02463B69D31AB3F57A7F01D90123D9
:1030000008E0FB681B68D3F8003203F00103002BD3
:10301000EDD1002318461837BD4680BD0080024020
:1030200080B483B000AF786039603B68002B01D179
:103030000123C3E17B681B681B6803F00C023B683B
:10304000DA627B681B681B6803F01003002B14BF57
:1030500001230023DBB21A463B6883F828207B68F3
:103060001B681B6803F060023B685A627B681B6840
:103070001B6803F48073002B0CBF01230023DBB219
:103080001A463B6883F820207B681B681B6803F4A2
:103090000073002B14BF01230023DBB21A463B68E8
:1030A000DA777B681B681B6803F48063002B0CBF16
:1030B00001230023DBB21A463B689A777B681B68C2
:1030C0001B6803F40063002B14BF01230023DBB251
:1030D0001A463B685A777B681B681B6803F4805369
:1030E000002B14BF01230023DBB21A463B681A777A
:1030F0007B681B681B6803F400523B689A617B681D
:103100001B681B6803F480423B685A617B681B683C
:103110001B6803F48033002B14BF01230023DBB2B0
:103120001A463B689A747B681B681B6803F400337B
:10313000002B0CBF01230023DBB21A463B685A74F4
:103140007B681B681B6803F40023002B0CBF012362
:103150000023DBB21A463B681A747B681B681B6845
:1031600003F48013002B14BF01230023DBB21A46A3
:103170003B68DA737B681B681B6803F40013002B41
:1031800014BF01230023DBB21A463B689A737B68A5
:103190001B681B6803F48003002B14BF012300236A
:1031A000DBB21A463B685A737B681B681B6803F4E2
:1031B0000003002B14BF01230023DBB21A463B6837
:1031C0001A737B681B681B6803F0E0623B689A60B7
:1031D0007B681B681B6803F00063002B14BF01238E
:1031E0000023DBB21A463B681A717B681B681B68B8
:1031F00003F0E0423B681A607B681B685B68C3F3BE
:103200000D023B685A637B681B685B6803F480337C
:10321000002B0CBF01230023DBB21A463B6883F866
:1032200032207B681B685B6803F40033002B14BFFB
:1032300001230023DBB21A463B6883F831207B6808
:103240001B685B6803F48023002B14BF0123002359
:10325000DBB21A463B6883F830207B681B685B68EA
:1032600003F08073002B14BF01230023DBB21A4646
:103270003B6883F838207B681B685B685B0E03F053
:103280001F023B68DA637B681B68DB6803F48073AA
:10329000002B14BF01230023DBB21A463B6883F8DE
:1032A00040207B681B68DB6803F00F023B685A64B0
:1032B0007B681B681B6F03F00203002B14BF012304
:1032C0000023DBB21A463B6883F854207B681B68F6
:1032D0001B6F03F08003002B0CBF01230023DBB224
:1032E0001A463B6883F84C207B681B681B6F03F011
:1032F00070023B681A657B681B681B6F1B0C9AB2D7
:103300003B689A647B681B68D3F8903003F0010334
:10331000002B14BF01230023DBB21A463B6883F85D
:1033200056207B681B68D3F8903003F00203002B13
:1033300014BF01230023DBB21A463B6883F85520F3
:103340007B681B68D3F8003D03F072023B689A6506
:103350007B681B68D3F8303D03F023023B68DA65D5
:103360007B681B68D3F8303D03F00803002B14BFC3
:1033700001230023DBB21A463B6883F862207B6896
:103380001B68D3F8303D03F01003002B14BF01235A
:103390000023DBB21A463B6883F861207B681B6818
:1033A000D3F8303D03F04003002B0CBF0123002372
:1033B000DBB21A463B6883F86020002318460C37BE
:1033C000BD465DF8047B704780B582B000AF786081
:1033D00039603B68002B01D101230BE07B68D3F8F7
:1033E0008430102B05D13968786800F05FF800232D
:1033F00000E0012318460837BD4680BD80B584B083
:1034000000AF78607B681B68D3F80032FB60FB6814
:1034100023F47063FB6001F063FFB860BB681E4A71
:10342000934208D9BB681D4A934204D8FB6843F411
:103430000073FB6027E0BB68184A934208D9BB6859
:10344000174A934204D2FB6843F44073FB601AE0CE
:10345000BB68134A934203D3BB68124A934211D903
:10346000BB68104A934208D9BB680F4A934204D8FC
:10347000FB6843F48073FB6005E0FB6843F4806302
:10348000FB6000E000BF7B681B68FA68C3F800229D
:1034900000BF1037BD4680BDFF2C3101BF0E1602A4
:1034A00000879303FFE0F5057FD1F00880B485B075
:1034B00000AF786039603B689A683B681B681A43C4
:1034C0003B681B79DB061A433B681B7BDB051A4311
:1034D0003B685B7B9B051A433B689B7B5B051A4300
:1034E0003B68DB7B1B0513433A68127C002A02D140
:1034F0004FF4002200E0002213433A68527C002A75
:1035000002D14FF4003200E000221A433B689B7C5A
:103510001B041A433B685B691A433B689B691A4367
:103520003B681B7F1B031A433B685B7FDB02134333
:103530003A68927F002A02D14FF4806200E00022B4
:103540001A433B68DB7F5B0213433A6892F8202002
:10355000002A02D14FF4807200E000221A433B6837
:103560005B6A1A433B6893F828301B011A433B6897
:10357000DB6A1343FB607B681B681A68564B134079
:103580007A681268F9680B4313603B68DB6B5A0674
:103590003B6893F838301B061A433B6893F8303089
:1035A0009B041A433B6893F831305B0413433A6839
:1035B00092F83220002A02D14FF4803200E000223B
:1035C0001A433B685B6B1343FB607B681B685A685C
:1035D000424B13407A681268F9680B4353603B68AA
:1035E00093F840301A023B685B6C1343FB607B68C6
:1035F0001B68DA683A4B13407A681268F9680B4323
:10360000D3603B6893F854305A003B681B6D1343FA
:103610003A6892F84C20002A01D1802200E0002272
:103620001A433B689B6C1B041343FB607B681B685D
:103630001A6F4FF60D7313407A681268F9680B43DE
:1036400013673B6893F856301A463B6893F8553039
:103650005B001343FB607B681B68D3F8903023F05A
:1036600003017B681B68FA680A43C3F890207B68F3
:103670001B68D3F8003D23F072013B689A6D7B68AC
:103680001B680A43C3F8002D3B68DB6D3A6892F86B
:103690006020002A01D1402200E000221A433B684A
:1036A00093F861301B011A433B6893F86230DB00EA
:1036B0001343FB607B681B68D3F8303D23F07B012C
:1036C0007B681B68FA680A43C3F8302D00BF1437C3
:1036D000BD465DF8047B7047838004000080F8C01D
:1036E000F0FEFFFF80B485B000AF786039607B6882
:1036F0001B6803F580531A68384B13403A68116809
:103700007A6812680B4302F5805213603B681B799C
:103710001A033B689B681A433B681B7BDB0313431C
:10372000FB607B681B6803F580535A682C4B134081
:103730007A681268F9680B4302F5805253603B685F
:103740005B7B1A043B681B6A1343FB607B681B6846
:1037500003F58053D3F80021224B13407A68126896
:10376000F9680B4302F58052C2F800313B681A69D0
:103770003B681B7D1B011A433B685B7F1B031343A4
:10378000FB607B681B6803F58053D3F80421164B5C
:1037900013407A681268F9680B4302F58052C2F848
:1037A00004313B681B7FDA073B689B691343FB606E
:1037B0007B681B6803F58053D3F808210B4B13403B
:1037C0007A681268F9680B4302F58052C2F8083132
:1037D00000BF1437BD465DF8047B7047FD87FFFFCF
:1037E000FE2FFFFF00C0FEFFEFEFC0FFFFFFC07F17
:1037F00080B5A4B000AF7860012387F83B30002388
:103800003B65002387F84930002387F84B300123BC
:1038100087F83030012387F85E30012387F83A308B
:10382000002387F85430012387F88C304FF400537D
:103830007B64002387F864300023BB66002387F88D
:103840008D30002387F88E304FF4C3633B6600232E
:1038500087F8383000237B63012387F83D3000234D
:1038600087F83E30002387F848300023FB670023A9
:103870007B670023BB65002387F86C30002387F843
:103880008230012387F84A302023C7F8883001238B
:1038900087F84C30002387F85D304FF04053FB62CF
:1038A0004FF480433B64002387F839300223C7F884
:1038B0008430002387F88030002387F8813000238C
:1038C00087F85C30012387F83C3000233B670123F5
:1038D00087F8783007F12C0319467868FFF7E6FD82
:1038E00001233B7301233B610023BB60002387F866
:1038F000243000237B7500233B754FF400133B629B
:1039000000233B774FF40013BB61002387F8253079
:103910004FF40673BB6207F1080319467868FFF796
:10392000E1FE00BF9037BD4680BD80B485B000AFDA
:1039300078600023FB601DE07B68D968FA68134655
:103940005B001344DB000B44BB60BB6800221A60C1
:10395000BB6800225A60BB6800229A60BB680022E4
:10396000DA60B9687B68FA68063243F82210FB68AF
:103970000133FB60FB68032BDED97B6800229A626F
:103980007B681B6803F580531A460323C2F82C3169
:103990007B68DA687B681B6803F58053C3F81421E1
:1039A0007B68DA687B681B6803F58053C3F82021C5
:1039B00000BF1437BD465DF8047B704780B485B006
:1039C00000AF78600023FB6023E07B681969FA6828
:1039D00013465B001344DB000B44BB60BB68002252
:1039E0001A60BB6800225A60BB6800229A60BB68FC
:1039F0000022DA60BB6800221A61BB6800225A61AB
:103A0000B9687B68FA68123243F82210FB68013308
:103A1000FB60FB68032BD8D97B680022DA657B68E2
:103A200000221A667B6800229A667B680022DA66AA
:103A30007B6800229A657B681B6803F580531A46F1
:103A40000323C2F830317B681A697B681B6803F571
:103A50008053C3F81C217B681B6903F148027B6813
:103A60001B6803F58053C3F8282100BF1437BD46F7
:103A70005DF8047B7047000080B48DB000AFF86043
:103A8000B9607A60FB6818337B617B691B69FB62F4
:103A90007B691B693B6100237B627B69FA6A53F88F
:103AA00022303B62BB689B68FB610023BB613B6AC1
:103AB000DB6803F00043B3F1004F07D07A69FB6A7B
:103AC00004339B0013445B68002B01D0022359E2AE
:103AD000BB681B6803F00403002B44D03B6ADA6820
:103AE000754B1340BA68526A1A433B6ADA603B6A04
:103AF000DB6843F480323B6ADA60FB681B681A6E4D
:103B0000FB681B6842F480121A66BB681B6803F0EE
:103B10000803002B27D03B6A9B689AB2BB68DB6A1C
:103B20001B041A433B6A9A603B6ADB6843F4003229
:103B30003B6ADA603B6ADB6823F44022BB681B6B9C
:103B40001A433B6ADA60FB681B685A6EFB681B68A5
:103B500042F480125A66FB681B681A6DFB681B688A
:103B600042F080621A65BB681B6803F01003002BEB
:103B70000ED03B6A9A68514B1340BA6892691A4357
:103B80003B6A9A603B6ADB6843F080623B6ADA60BA
:103B9000BB681B6803F00403002B05D1BB681B68DE
:103BA00003F01003002B36D03B6ADB6843F0804201
:103BB0003B6ADA60BFF35F8F00BF3B6ADB6843F0AC
:103BC00000423B6ADA60FB6A0133FB62FB6A032B4B
:103BD00002D9FB6A043BFB627B69FA6A53F8223024
:103BE0003B627B6A01337B623B6ADB6803F0004324
:103BF000B3F1004F0FD17B693A6953F822303B6231
:103C0000BFF35F8F00BF3B6ADB6823F000423B6A73
:103C1000DA600223B6E17B6A01337B62FB691B68D1
:103C20001A463B6A1A603B6A9A68244B1340FA6949
:103C300052681A433B6A9A60FB699B68002B12D05A
:103C4000FB699B68FB61FB691B681A463B6A5A600B
:103C50003B6A9A681A4B1340FA69526812041A4375
:103C60003B6A9A6008E03B6A00225A603B6A9A68A5
:103C7000134B13403A6A9360BB681B6803F0100350
:103C8000002B21D03B6ADB6823F4F002BB681B6A7F
:103C9000DB041A433B6ADA603B6ADA68094B13407B
:103CA000BA68D2691A433B6ADA603B6ADB6843F45C
:103CB00080223B6ADA602EE00000FFFF00C0FFFFB9
:103CC000FFFF00C00000FCFF3B6ADA687B4B13403B
:103CD000BA6852681A433B6ADA60BB681B6803F033
:103CE0000103002B08D03B6ADB6823F44032BB6839
:103CF0005B691A433B6ADA60BB681B6803F0200308
:103D0000002B08D03B6ADB6823F04062BB681B696C
:103D10001A433B6ADA60BB681B6803F00403002B9C
:103D200008D03B6A9B6823F44042BB689B6A1A43F5
:103D30003B6A9A603B6ADB6843F000523B6ADA6098
:103D40003B6ADB6823F080423B6ADA60BFF35F8F37
:103D500000BF3B6ADB6843F000423B6ADA60BB6845
:103D60001B6803F00203002B00F0DA803B6ADB687B
:103D700023F06072BB68DB681A433B6ADA60CFE00D
:103D80003B6ADB6823F080523B6ADA60FB6A0133EE
:103D9000FB62FB6A032B02D9FB6A043BFB627B6973
:103DA000FA6A53F822303B623B6ADB6823F0005228
:103DB0003B6ADA603B6ADB6803F00043B3F1004F13
:103DC00007D07A69FB6A04339B0013445B68002BBD
:103DD00029D03B69FB627B69FA6A53F822303B6267
:103DE0000023BB6219E0BFF35F8F00BF3B6ADB6853
:103DF00023F000423B6ADA60FB6A0133FB62FB6A34
:103E0000032B02D9FB6A043BFB627B69FA6A53F815
:103E100022303B62BB6A0133BB62BA6A7B6A9A4258
:103E2000E1D30223AEE07B6A01337B62FB699B68CE
:103E3000FB61FB691B681A463B6A1A603B6A9A6819
:103E40001F4B1340FA6952681A433B6A9A60FB6938
:103E50009B68002B12D0FB699B68FB61FB691B68A8
:103E60001A463B6A5A603B6A9A68164B1340FA69D5
:103E7000526812041A433B6A9A6008E03B6A0022C7
:103E80005A603B6A9A680F4B13403A6A9360BB686A
:103E90001B6803F01003002B18D03B6ADA680A4B4A
:103EA0001340BA68D2691A433B6ADA603B6ADB683E
:103EB00043F480223B6ADA6020E000BF0080FFFF0D
:103EC00000C0FFFFFFFF00C00000FCFF3B6ADA6894
:103ED0002F4B1340BA6852681A433B6ADA60BB68DA
:103EE0001B6803F00103002B08D03B6ADB6823F456
:103EF0004032BB685B691A433B6ADA60BB690133D5
:103F0000BB61BFF35F8F00BF3B6ADB6843F00042D9
:103F10003B6ADA603B6ADB6823F080423B6ADA6026
:103F2000FB699B68002B7FF42BAF7B68002B06D0CE
:103F30003B6A9B6843F000423B6A9A6005E03B6A3B
:103F40009B6823F000423B6A9A603B6ADB6843F05F
:103F500080523B6ADA607B695A6A7969FB6A04338A
:103F60009B000B445A607B69FA6A1A6172B600BF03
:103F70007B699A6ABB6913445A1C7B699A6262B670
:103F800000BF002318463437BD465DF8047B7047F8
:103F90000080FFFF80B489B000AF786039600023F3
:103FA000FB61894B7B6194E13B681A680121FB69E5
:103FB00001FA03F313403B613B69002B00F086815B
:103FC0003B685B6803F00303012B05D03B685B682B
:103FD00003F00303022B30D17B689B68BB61FB6954
:103FE0005B00032202FA03F3DB43BA691340BB61AF
:103FF0003B68DA68FB695B0002FA03F3BA691343B2
:10400000BB617B68BA699A607B685B68BB610122AF
:10401000FB6902FA03F3DB43BA691340BB613B68F7
:104020005B681B0903F00102FB6902FA03F3BA693A
:104030001343BB617B68BA695A603B685B6803F0F5
:104040000303032B17D07B68DB68BB61FB695B0054
:10405000032202FA03F3DB43BA691340BB613B68F6
:104060009A68FB695B0002FA03F3BA691343BB6108
:104070007B68BA69DA603B685B6803F00303022B74
:1040800023D1FB69DA087B68083253F82230BB6120
:10409000FB6903F007039B000F2202FA03F3DB43E3
:1040A000BA691340BB613B681A69FB6903F00703F7
:1040B0009B0002FA03F3BA691343BB61FB69DA0898
:1040C0007B680832B96943F822107B681B68BB61C2
:1040D000FB695B00032202FA03F3DB43BA69134076
:1040E000BB613B685B6803F00302FB695B0002FA9B
:1040F00003F3BA691343BB617B68BA691A603B6812
:104100005B6803F44033002B00F0E0802F4BD3F8C2
:10411000F4302E4A43F00203C2F8F4302B4BD3F8AC
:10412000F43003F00203FB60FB68294AFB699B083B
:10413000023352F82330BB61FB6903F003039B0099
:104140000F2202FA03F3DB43BA691340BB617B68B9
:10415000204A934252D07B681F4A934231D07B68F9
:104160001E4A93422BD07B681D4A934225D07B6820
:104170001C4A93421FD07B681B4A934219D07B682C
:104180001A4A934213D07B68194A93420DD07B6838
:10419000184A934207D07B68174A934201D10923FA
:1041A0002DE00A232BE0082329E0072327E006233C
:1041B00025E0052323E0042321E003231FE002235D
:1041C0001DE001231BE000BF80000058004402589E
:1041D0000004005800000258000402580008025869
:1041E000000C02580010025800140258001802581F
:1041F000001C025800200258002402580023FA69CB
:1042000002F0030292009340BA691343BB6138493C
:10421000FB699B080233BA6941F823204FF0B04391
:104220001B68BB613B69DB43BA691340BB613B68F8
:104230005B6803F48013002B03D0BA693B69134316
:10424000BB614FF0B042BB6913604FF0B0435B6895
:10425000BB613B69DB43BA691340BB613B685B6888
:1042600003F40013002B03D0BA693B691343BB610D
:104270004FF0B042BB6953607B695B68BB613B69CF
:10428000DB43BA691340BB613B685B6803F40033EE
:10429000002B03D0BA693B691343BB617B69BA69E0
:1042A0005A607B691B68BB613B69DB43BA69134099
:1042B000BB613B685B6803F48033002B03D0BA69B1
:1042C0003B691343BB617B69BA691A60FB690133BF
:1042D000FB613B681A68FB6922FA03F3002B7FF449
:1042E00063AE00BF00BF2437BD465DF8047B704756
:1042F0000004005880B485B000AF78600B467B8026
:104300007B681A697B881340002B02D00123FB7362
:1043100001E00023FB73FB7B18461437BD465DF8B4
:10432000047B704780B483B000AF78600B467B801D
:1043300013467B707B78002B03D07A887B689A6168
:1043400003E07B881A047B689A6100BF0C37BD4686
:104350005DF8047B7047000080B584B000AF7860E2
:10436000194BDB6803F00403042B0AD0164BDB68FF
:1043700003F007037A689A4201D001231FE000236B
:104380001DE0114BDB6823F007020F497B681343E4
:10439000CB60FDF7B3F9F86009E0FDF7AFF902462D
:1043A000FB68D31AB3F57A7F01D9012307E0064BE6
:1043B0005B6803F40053B3F5005FEED100231846A9
:1043C0001037BD4680BD00BF0048025880B58CB094
:1043D00000AF78607B68002B02D1012300F048BC5D
:1043E0007B681B6803F00103002B00F08880994B69
:1043F0001B6903F03803FB62964B9B6ABB62FB6A46
:10440000102B07D0FB6A182B11D1BB6A03F00303F2
:10441000022B0CD18F4B1B6803F40033002B6DD0A3
:104420007B685B68002B69D1012300F021BC7B68AD
:104430005B68B3F5803F06D1864B1B68854A43F421
:10444000803313602EE07B685B68002B0CD1814BBE
:104450001B68804A23F4803313607E4B1B687D4ABF
:1044600023F4802313601DE07B685B68B3F5A02F05
:104470000CD1784B1B68774A43F480231360754B4B
:104480001B68744A43F4803313600BE0714B1B6864
:10449000704A23F4803313606E4B1B686D4A23F41B
:1044A000802313607B685B68002B13D0FDF726F92F
:1044B000786208E0FDF722F902467B6AD31A642B82
:1044C00001D90323D4E3634B1B6803F40033002BAF
:1044D000F0D014E0FDF712F9786208E0FDF70EF96C
:1044E00002467B6AD31A642B01D90323C0E3594BDC
:1044F0001B6803F40033002BF0D100E000BF7B68A1
:104500001B6803F00203002B00F0CA80514B1B69AB
:1045100003F038033B624F4B9B6AFB613B6A002B05
:1045200007D03B6A182B56D1FB6903F00303002B1D
:1045300051D1484B1B6803F00403002B05D07B6866
:10454000DB68002B01D1012392E3424B1B6823F06F
:1045500019027B68DB683F4913430B60FDF7CEF817
:10456000786208E0FDF7CAF802467B6AD31A022B8C
:1045700001D903237CE3374B1B6803F00403002BB2
:10458000F0D0FDF7EBF8034641F20302934217D84F
:104590007B681B69402B08D12E4B5B6823F47C336E
:1045A0002C4A43F4003353607AE02A4B5B6823F4CF
:1045B0007C327B681B691B03264913434B606FE009
:1045C000244B5B6823F0FE427B681B691B06214974
:1045D00013434B6064E07B68DB68002B47D01D4BC6
:1045E0001B6823F019027B68DB681A4913430B60D0
:1045F000FDF784F8786208E0FDF780F802467B6AF0
:10460000D31A022B01D9032332E3124B1B6803F0A8
:104610000403002BF0D0FDF7A1F8034641F203029A
:10462000934219D87B681B69402B08D1094B5B6802
:1046300023F47C33074A43F40033536030E0054BE6
:104640005B6823F47C327B681B691B0301491343BD
:104650004B6025E0004402589A4B5B6823F0FE4211
:104660007B681B691B06974913434B6018E0954B09
:104670001B68944A23F001031360FDF73FF878624A
:1046800008E0FDF73BF802467B6AD31A022B01D9FA
:104690000323EDE28B4B1B6803F00403002BF0D1E6
:1046A0007B681B6803F01003002B00F0A980854B8A
:1046B0001B6903F03803BB61824B9B6A7B61BB695A
:1046C000082B07D0BB69182B3AD17B6903F0030391
:1046D000012B35D17B4B1B6803F48073002B05D075
:1046E0007B68DB69802B01D00123C1E2FDF736F83E
:1046F000034641F20302934217D87B681B6A202BC2
:1047000008D1704B5B6823F0F8436E4A43F0804356
:10471000536075E06B4B5B6823F0F8427B681B6A63
:104720009B06684913434B606AE0664BDB6823F0E5
:104730007C527B681B6A1B0662491343CB605FE0B7
:104740007B68DB69002B42D05E4B1B685D4A43F0FF
:1047500080031360FCF7D2FF786208E0FCF7CEFF1D
:1047600002467B6AD31A022B01D9032380E2554B00
:104770001B6803F48073002BF0D0FCF7EFFF0346B7
:1047800041F20302934217D87B681B6A202B08D1A1
:104790004C4B5B6823F0F8434A4A43F08043536034
:1047A0002EE0484B5B6823F0F8427B681B6A9B064F
:1047B000444913434B6023E0424BDB6823F07C52B7
:1047C0007B681B6A1B063F491343CB6018E03D4BD7
:1047D0001B683C4A23F080031360FCF78FFF78626C
:1047E00008E0FCF78BFF02467B6AD31A022B01D943
:1047F00003233DE2334B1B6803F48073002BF0D19D
:104800007B681B6803F00803002B36D07B685B696C
:10481000002B19D02B4B5B6F2A4A43F001035367DF
:10482000FCF76CFF786208E0FCF768FF02467B6AE1
:10483000D31A022B01D903231AE2224B5B6F03F038
:104840000203002BF0D018E01E4B5B6F1D4A23F0D3
:1048500001035367FCF752FF786208E0FCF74EFF54
:1048600002467B6AD31A022B01D9032300E2154BBF
:104870005B6F03F00203002BF0D17B681B6803F031
:104880002003002B39D07B689B69002B1CD00D4B7B
:104890001B680C4A43F480531360FCF72FFF7862C7
:1048A00008E0FCF72BFF02467B6AD31A022B01D9E2
:1048B0000323DDE1034B1B6803F40053002BF0D00E
:1048C0001BE000BF004402589B4B1B689A4A23F42C
:1048D00080531360FCF712FF786208E0FCF70EFFCC
:1048E00002467B6AD31A022B01D90323C0E1924B03
:1048F0001B6803F40053002BF0D17B681B6803F0A6
:104900000403002B00F081808C4B1B688B4A43F41E
:1049100080731360FCF7F2FE786208E0FCF7EEFEAD
:1049200002467B6AD31A642B01D90323A0E1834B8F
:104930001B6803F48073002BF0D07B689B68012B0D
:1049400006D17D4B1B6F7C4A43F0010313672DE0BA
:104950007B689B68002B0CD1774B1B6F764A23F04A
:1049600001031367744B1B6F734A23F0040313672F
:104970001CE07B689B68052B0CD16F4B1B6F6E4A4C
:1049800043F0040313676C4B1B6F6B4A43F0010346
:1049900013670BE0684B1B6F674A23F00103136733
:1049A000654B1B6F644A23F0040313677B689B68A5
:1049B000002B15D0FCF7A2FE78620AE0FCF79EFE01
:1049C00002467B6AD31A41F28832934201D903230B
:1049D0004EE1594B1B6F03F00203002BEED014E0A5
:1049E000FCF78CFE78620AE0FCF788FE02467B6AE0
:1049F000D31A41F28832934201D9032338E14E4B56
:104A00001B6F03F00203002BEED17B685B6A002B67
:104A100000F02D81484B1B6903F03803182B00F080
:104A2000BD807B685B6A022B40F09E80424B1B6816
:104A3000414A23F080731360FCF760FE786208E05F
:104A4000FCF75CFE02467B6AD31A022B01D90323D2
:104A50000EE1394B1B6803F00073002BF0D1364B8D
:104A60009A6A374B13407A68916A7A68D26A12015F
:104A70000A43314913438B627B681B6B013BC3F3D1
:104A800008027B685B6B013B5B029BB21A437B684D
:104A90009B6B013B1B0403F4FE031A437B68DB6B37
:104AA000013B1B0603F0FE43234913430B63224BD8
:104AB000DB6A214A23F00103D3621F4B5A6B214B5F
:104AC00013407A68926CD2001B4913434B631A4B14
:104AD000DB6A23F00C027B681B6C17491343CB6223
:104AE000154BDB6A23F002027B685B6C12491343AF
:104AF000CB62114BDB6A104A43F48033D3620E4B16
:104B0000DB6A0D4A43F40033D3620B4BDB6A0A4A7B
:104B100043F48023D362084BDB6A074A43F0010366
:104B2000D362054B1B68044A43F080731360FCF7A3
:104B3000E5FD786211E000BF0044025800480258C9
:104B40000CFCFFFF0700FFFFFCF7D8FD02467B6A65
:104B5000D31A022B01D903238AE0474B1B6803F0C9
:104B60000073002BF0D082E0434B1B68424A23F0D5
:104B700080731360FCF7C2FD786208E0FCF7BEFDAD
:104B800002467B6AD31A022B01D9032370E03A4B09
:104B90001B6803F00073002BF0D168E0364B9B6A72
:104BA0003B61354B1B6BFB607B685B6A012B31D033
:104BB0003B6903F003027B689B6A9A422AD13B69F6
:104BC0001B0903F03F027B68DB6A9A4222D1FB6833
:104BD000C3F308027B681B6B013B9A421AD1FB6846
:104BE0005B0A03F07F027B685B6B013B9A4211D149
:104BF000FB681B0C03F07F027B689B6B013B9A42B6
:104C000008D1FB681B0E03F07F027B68DB6B013B66
:104C10009A4201D001232BE0174B5B6BDB08C3F3F7
:104C20000C033B617B689B6C3A699A421FD0124B24
:104C3000DB6A114A23F00103D362FCF75FFD78625F
:104C400000BFFCF75BFD02467B6A9342F9D00A4B3A
:104C50005A6B0A4B13407A68926CD2000649134390
:104C60004B63054BDB6A044A43F00103D362002324
:104C700018463037BD4680BD004402580700FFFF8C
:104C800080B586B000AF786039607B68002B01D1B9
:104C900001239CE18A4B1B6803F00F033A689A4298
:104CA00010D9874B1B6823F00F0285493B681343DB
:104CB0000B60834B1B6803F00F033A689A4201D0E4
:104CC000012384E17B681B6803F00403002B10D0F0
:104CD0007B681A697B4B9B6903F070039A4208D981
:104CE000784B9B6923F070027B681B6975491343FD
:104CF0008B617B681B6803F00803002B10D07B6876
:104D00005A69704BDB6903F070039A4208D96D4B06
:104D1000DB6923F070027B685B696A491343CB61EE
:104D20007B681B6803F01003002B10D07B689A6926
:104D3000644BDB6903F4E0639A4208D9614BDB6999
:104D400023F4E0627B689B695E491343CB617B6817
:104D50001B6803F02003002B10D07B68DA69594BE5
:104D60001B6A03F070039A4208D9564B1B6A23F062
:104D700070027B68DB69534913430B627B681B68D5
:104D800003F00203002B10D07B68DA684D4B9B695F
:104D900003F00F039A4208D94A4B9B6923F00F0294
:104DA0007B68DB68474913438B617B681B6803F0B2
:104DB0000103002B55D0434B9B6923F470627B6841
:104DC0009B68404913438B617B685B68022B07D16A
:104DD0003C4B1B6803F40033002B21D10123F6E088
:104DE0007B685B68032B07D1364B1B6803F00073AD
:104DF000002B15D10123EAE07B685B68012B07D10A
:104E0000304B1B6803F48073002B09D10123DEE0D3
:104E10002C4B1B6803F00403002B01D10123D6E0C7
:104E2000284B1B6923F007027B685B682549134305
:104E30000B61FCF763FC78610AE0FCF75FFC02465B
:104E40007B69D31A41F28832934201D90323BEE031
:104E50001C4B1B6903F038027B685B68DB009A42DD
:104E6000EBD17B681B6803F00203002B10D07B683A
:104E7000DA68144B9B6903F00F039A4208D2114B76
:104E80009B6923F00F027B68DB680E4913438B613B
:104E90000B4B1B6803F00F033A689A4214D2084B7D
:104EA0001B6823F00F0206493B6813430B60044B59
:104EB0001B6803F00F033A689A4205D0012386E08D
:104EC00000200052004402587B681B6803F0040372
:104ED000002B10D07B681A693F4B9B6903F070036D
:104EE0009A4208D23C4B9B6923F070027B681B6995
:104EF000394913438B617B681B6803F00803002B5F
:104F000010D07B685A69344BDB6903F070039A4216
:104F100008D2314BDB6923F070027B685B692E4954
:104F20001343CB617B681B6803F01003002B10D088
:104F30007B689A69284BDB6903F4E0639A4208D2E4
:104F4000254BDB6923F4E0627B689B6922491343AC
:104F5000CB617B681B6803F02003002B10D07B68BB
:104F6000DA691D4B1B6A03F070039A4208D21A4B90
:104F70001B6A23F070027B68DB69174913430B62DD
:104F800000F034F80246144B9B691B0A03F00F0330
:104F90001249CB5C03F01F0322FA03F33B610E4B73
:104FA0009B6903F00F030D4AD35C03F01F033A69BA
:104FB00022FA03F30A4A13600A4A3B6913600A4B58
:104FC0001B681846FCF750FB0346FB73FB7B184637
:104FD0001837BD4680BD00BF0044025820AB010811
:104FE00004000024000000240800002480B489B0DC
:104FF00000AFB34B1B6903F03803182B00F2558147
:1050000001A252F823F000BF6D500008AB52000817
:10501000AB520008AB520008AB520008AB5200087C
:10502000AB520008AB52000893500008AB52000886
:10503000AB520008AB520008AB520008AB5200085C
:10504000AB520008AB52000899500008AB52000860
:10505000AB520008AB520008AB520008AB5200083C
:10506000AB520008AB5200089F500008944B1B68DD
:1050700003F02003002B09D0914B1B68DB0803F0E1
:105080000303904A22FA03F3BB6111E18D4BBB612C
:105090000EE18D4BBB610BE18C4BBB6108E1884B92
:1050A0009B6A03F003037B61854B9B6A1B0903F03A
:1050B0003F033B61824BDB6A03F00103FB60804BE3
:1050C0005B6BDB08C3F30C03FA6802FB03F307EE28
:1050D000903AF8EE677AC7ED027A3B69002B00F050
:1050E000E1807B69022B00F083807B69022B00F258
:1050F000A1807B69002B03D07B69012B56D099E0FE
:105100006F4B1B6803F02003002B2DD06C4B1B68EA
:10511000DB0803F003036B4A22FA03F37B607B682E
:1051200007EE903AF8EE676A3B6907EE903AF8EEC0
:10513000677A86EEA77A624B1B6BC3F3080307EE10
:10514000903AF8EE676A97ED026ADFED615AC6EEB3
:10515000257A76EEA77AF7EE006A77EEA67A67EE02
:10516000277AC7ED077A87E03B6907EE903AF8EEB9
:10517000677ADFED586A86EEA77A514B1B6BC3F353
:10518000080307EE903AF8EE676A97ED026ADFEDE2
:10519000505AC6EE257A76EEA77AF7EE006A77EED9
:1051A000A67A67EE277AC7ED077A65E03B6907EED6
:1051B000903AF8EE677ADFED486A86EEA77A404BC0
:1051C0001B6BC3F3080307EE903AF8EE676A97ED9E
:1051D000026ADFED3F5AC6EE257A76EEA77AF7EE41
:1051E000006A77EEA67A67EE277AC7ED077A43E082
:1051F0003B6907EE903AF8EE677ADFED386A86EEA3
:10520000A77A2F4B1B6BC3F3080307EE903AF8EE17
:10521000676A97ED026ADFED2E5AC6EE257A76EEC2
:10522000A77AF7EE006A77EEA67A67EE277AC7EDDF
:10523000077A21E03B6907EE903AF8EE677ADFEDF6
:10524000266A86EEA77A1E4B1B6BC3F3080307EE94
:10525000903AF8EE676A97ED026ADFED1D5AC6EEE6
:10526000257A76EEA77AF7EE006A77EEA67A67EEF1
:10527000277AC7ED077A00BF114B1B6B5B0A03F05F
:105280007F0301333B603B6807EE903AB8EE677AE4
:10529000D7ED076AC6EE877AFCEEE77A17EE903A0A
:1052A000BB6105E00023BB6102E0074BBB6100BFAF
:1052B000BB6918462437BD465DF8047B704700BFC4
:1052C000004402580090D00300093D0040787D0161
:1052D000000000460024744C0024744A20BCBE4BDD
:1052E00080B582B000AFFFF781FE0246104B9B698C
:1052F0001B0A03F00F030F49CB5C03F01F0322FAD4
:1053000003F37B600A4B9B6903F00F03094AD35CEC
:1053100003F01F037A6822FA03F3074A1360074A6F
:105320007B681360044B1B6818460837BD4680BD78
:105330000044025820AB01080400002400000024AF
:1053400080B500AFFFF7CCFF0246064BDB691B09B7
:1053500003F007030449CB5C03F01F0322FA03F3B5
:10536000184680BD0044025820AB010880B500AF4C
:10537000FFF7B6FF0246064BDB691B0A03F0070383
:105380000449CB5C03F01F0322FA03F3184680BDE7
:105390000044025820AB01082DE9B04FCAB000AF5D
:1053A000C7F81401002387F82731002387F8263136
:1053B000D7F81431D3E9002302F00064002554EA41
:1053C000050349D0D7F814319B6EB3F5401F2FD099
:1053D000B3F5401F28D8B3F5001F1AD0B3F5001F4E
:1053E00022D8002B03D0B3F5801F07D01CE0B84BA8
:1053F000DB6AB74A43F40033D3621AE0D7F81431BA
:1054000008330221184601F08FFC034687F8273144
:105410000FE0D7F8143128330221184601F036FD89
:10542000034687F8273104E0012387F8273100E09D
:1054300000BF97F82731002B0AD1A54B1B6D23F431
:105440004011D7F814319B6EA14A0B43136503E05A
:1054500097F8273187F82631D7F81431D3E900239C
:1054600002F480784FF0000958EA090347D0D7F8D2
:1054700014319B6D042B2AD801A252F823F000BFEF
:1054800095540008A3540008B9540008D7540008E4
:10549000D75400088E4BDB6A8D4A43F40033D36245
:1054A0001AE0D7F8143108330021184601F03CFC0B
:1054B000034687F827310FE0D7F81431283300214D
:1054C000184601F0E3FC034687F8273104E0012386
:1054D00087F8273100E000BF97F82731002B0AD169
:1054E0007B4B1B6D23F00701D7F814319B6D784A75
:1054F0000B43136503E097F8273187F82631D7F877
:105500001431D3E9002302F4007A4FF0000B5AEA79
:105510000B034CD0D7F81431DB6DB3F5807F30D05E
:10552000B3F5807F29D8C02B2DD0C02B25D8802B58
:1055300018D0802B21D8002B02D0402B07D01CE0A4
:10554000634BDB6A624A43F40033D3621CE0D7F852
:10555000143108330021184601F0E6FB034687F8B2
:10556000273111E0D7F8143128330021184601F013
:105570008DFC034687F8273106E0012387F82731A1
:1055800002E000BF00E000BF97F82731002B0AD1EE
:105590004F4B1B6D23F4E071D7F81431DB6D4C4A8F
:1055A0000B43136503E097F8273187F82631D7F8C6
:1055B0001431D3E9002302F48063C7F808310023D3
:1055C000C7F80C31D7E942120B46134353D0D7F832
:1055D0001431D3F8A830B3F5000F35D0B3F5000F70
:1055E0002ED8B3F5C00F31D0B3F5C00F28D8B3F51E
:1055F000800F1AD0B3F5800F22D8002B03D0B3F55B
:10560000001F07D01CE0324BDB6A314A43F4003301
:10561000D3621CE0D7F8143108330021184601F09A
:1056200083FB034687F8273111E0D7F8143128337C
:105630000021184601F02AFC034687F8273106E0CE
:10564000012387F8273102E000BF00E000BF97F890
:105650002731002B0BD11E4B9B6D23F46001D7F833
:105660001431D3F8A8301A4A0B43936503E097F836
:10567000273187F82631D7F81431D3E9002302F413
:105680000063C7F800310023C7F80431D7E940129E
:105690000B46134356D0D7F81431D3F8AC30B3F1DE
:1056A000806F38D0B3F1806F31D8B3F1407F34D000
:1056B000B3F1407F2BD8B3F1007F1DD0B3F1007F51
:1056C00025D8002B06D0B3F1807F0AD01FE000BFA1
:1056D00000440258A24BDB6AA14A43F40033D36270
:1056E0001CE0D7F8143108330021184601F01CFBE8
:1056F000034687F8273111E0D7F814312833002109
:10570000184601F0C3FB034687F8273106E0012362
:1057100087F8273102E000BF00E000BF97F827318B
:10572000002B0BD18E4B9B6D23F0E061D7F8143129
:10573000D3F8AC308A4A0B43936503E097F82731DE
:1057400087F82631D7F81431D3E9002302F000732B
:10575000C7F8F8300023C7F8FC30D7E93E120B46F3
:1057600013433AD0D7F81431DB6C302B1FD0302BD9
:1057700019D8202B0CD0202B15D8002B19D0102B8A
:1057800011D1774BDB6A764A43F40033D36211E0E0
:10579000D7F8143108330221184601F0C5FA034640
:1057A00087F8273106E0012387F8273102E000BFA0
:1057B00000E000BF97F82731002B0AD1684BDB6C63
:1057C00023F03001D7F81431DB6C654A0B43D36406
:1057D00003E097F8273187F82631D7F81431D3E959
:1057E000002302F48053C7F8F0300023C7F8F430E8
:1057F000D7E93C120B46134351D0D7F814311B6E36
:10580000B3F5804F35D0B3F5804F2ED8B3F5405F58
:1058100031D0B3F5405F28D8B3F5005F1AD0B3F5A7
:10582000005F22D8002B03D0B3F5805F07D01CE0C7
:105830004B4BDB6A4A4A43F40033D3621CE0D7F88F
:10584000143108330021184601F06EFA034687F838
:10585000273111E0D7F8143128330021184601F020
:1058600015FB034687F8273106E0012387F8273127
:1058700002E000BF00E000BF97F82731002B0AD1FB
:10588000374B1B6D23F4E041D7F814311B6E344ABB
:105890000B43136503E097F8273187F82631D7F8D3
:1058A0001431D3E9002302F40053C7F8E830002391
:1058B000C7F8EC30D7E93A120B46134356D0D7F865
:1058C00014315B6EB3F5A02F33D0B3F5A02F2CD8D5
:1058D000B3F5802F2FD0B3F5802F26D8B3F5403FF6
:1058E0002BD0B3F5403F20D8B3F5003F12D0B3F52D
:1058F000003F1AD8002B22D0B3F5803F15D1D7F83E
:10590000143108330121184601F00EFA034687F8D6
:10591000273115E0D7F8143128330121184601F05A
:10592000B5FA034687F827310AE0012387F82731C3
:1059300006E000BF04E000BF02E000BF00E000BFDF
:1059400097F82731002B0DD1054B1B6D23F4E02177
:10595000D7F814315B6E024A0B43136506E000BFB3
:105960000044025897F8273187F82631D7F81431C8
:10597000D3E9002302F48043C7F8E0300023C7F8DE
:10598000E430D7E938120B46134355D0D7F8143119
:10599000D3F8B030B3F1A04F33D0B3F1A04F2CD82F
:1059A000B3F1804F2FD0B3F1804F26D8B3F1405FD1
:1059B0002BD0B3F1405F20D8B3F1005F12D0B3F128
:1059C000005F1AD8002B22D0B3F1805F15D1D7F831
:1059D000143108330121184601F0A6F9034687F86F
:1059E000273115E0D7F8143128330121184601F08A
:1059F0004DFA034687F827310AE0012387F827315B
:105A000006E000BF04E000BF02E000BF00E000BF0E
:105A100097F82731002B0BD1A34B9B6D23F0E0416E
:105A2000D7F81431D3F8B0309F4A0B43936503E0A5
:105A300097F8273187F82631D7F81431D3E90023B6
:105A400002F40043C7F8D8300023C7F8DC30D7E9A8
:105A500036120B46134337D0D7F814311B6FB3F10E
:105A6000005F0ED0B3F1005F16D8002B18D0B3F151
:105A7000805F11D18C4BDB6A8B4A43F40033D362D5
:105A80000FE0D7F8143108330121184601F04CF922
:105A9000034687F8273104E0012387F8273100E027
:105AA00000BF97F82731002B0AD17F4B1B6D23F0E5
:105AB0004051D7F814311B6F7B4A0B43136503E049
:105AC00097F8273187F82631D7F81431D3E9002326
:105AD00002F08073C7F8D0300023C7F8D430D7E97C
:105AE00034120B46134339D0D7F814319B6C032B77
:105AF0001CD801A252F823F0355B0008095B0008AE
:105B0000175B0008355B0008674BDB6A664A43F4A5
:105B10000033D3620FE0D7F814310833022118465E
:105B200001F002F9034687F8273104E0012387F8E2
:105B3000273100E000BF97F82731002B0AD15A4BDC
:105B4000DB6C23F00301D7F814319B6C564A0B43EE
:105B5000D36403E097F8273187F82631D7F814315A
:105B6000D3E9002302F48003C7F8C8300023C7F844
:105B7000CC30D7E932120B46134300F09F804B4BD9
:105B80001B684A4A43F480731360FBF7B7FDC7F8FC
:105B900020010BE0FBF7B2FD0246D7F82031D31A03
:105BA000642B03D9032387F8273105E03F4B1B689B
:105BB00003F48073002BEDD097F82731002B79D1B7
:105BC000394B1A6FD7F81431D3F8B430534003F47B
:105BD0004073002B15D0344B1B6F23F44073C7F870
:105BE0001C31314B1B6F304A43F4803313672E4B0B
:105BF0001B6F2D4A23F4803313672B4AD7F81C31CF
:105C00001367D7F81431D3F8B430B3F5807F18D1C7
:105C1000FBF774FDC7F820010DE0FBF76FFD0246AE
:105C2000D7F82031D21A41F288339A4203D903239C
:105C300087F8273105E01C4B1B6F03F00203002B94
:105C4000EBD097F82731002B29D1D7F81431D3F8AE
:105C5000B43003F44073B3F5407F0ED1124B1B698F
:105C600023F47C51D7F81431D3F8B4301A09104B0F
:105C700013400D4A0B43136105E00B4B1B690A4AA5
:105C800023F47C531361084B196FD7F81431D3F800
:105C9000B430C3F30B03044A0B4313670EE097F8C9
:105CA000273187F8263109E000440258004802589D
:105CB000CFFFFF0097F8273187F82631D7F8143146
:105CC000D3E9002302F00103C7F8C0300023C7F86E
:105CD000C430D7E930120B46134300F08980D7F85F
:105CE0001431DB6F282B6BD801A252F823F000BFD0
:105CF000C95D0008C15D0008C15D0008C15D000804
:105D0000C15D0008C15D0008C15D0008C15D0008FB
:105D1000955D0008C15D0008C15D0008C15D000817
:105D2000C15D0008C15D0008C15D0008C15D0008DB
:105D3000AB5D0008C15D0008C15D0008C15D0008E1
:105D4000C15D0008C15D0008C15D0008C15D0008BB
:105D5000C95D0008C15D0008C15D0008C15D0008A3
:105D6000C15D0008C15D0008C15D0008C15D00089B
:105D7000C95D0008C15D0008C15D0008C15D000883
:105D8000C15D0008C15D0008C15D0008C15D00087B
:105D9000C95D0008D7F8143108330121184600F016
:105DA000C3FF034687F827310FE0D7F814312833B3
:105DB0000121184601F06AF8034687F8273104E00C
:105DC000012387F8273100E000BF97F82731002B27
:105DD0000AD1BF4B5B6D23F03801D7F81431DB6F6C
:105DE000BB4A0B43536503E097F8273187F8263108
:105DF000D7F81431D3E9002302F00203C7F8B83012
:105E00000023C7F8BC30D7E92E120B46134341D00C
:105E1000D7F814319B6F052B24D801A252F823F038
:105E20006D5E0008395E00084F5E00086D5E000878
:105E30006D5E00086D5E0008D7F81431083301214B
:105E4000184600F071FF034687F827310FE0D7F8B6
:105E5000143128330121184601F018F8034687F859
:105E6000273104E0012387F8273100E000BF97F8CD
:105E70002731002B0AD1964B5B6D23F00701D7F831
:105E800014319B6F924A0B43536503E097F8273117
:105E900087F82631D7F81431D3E9002302F0040340
:105EA000C7F8B0300023C7F8B430D7E92C120B463E
:105EB000134344D0D7F81431D3F89430052B25D8A8
:105EC00001A252F823F000BF155F0008E15E000850
:105ED000F75E0008155F0008155F0008155F0008F1
:105EE000D7F8143108330121184600F01DFF03468E
:105EF00087F827310FE0D7F81431283301211846ED
:105F000000F0C4FF034687F8273104E0012387F837
:105F1000273100E000BF97F82731002B0BD16C4BE5
:105F20009B6D23F00701D7F81431D3F89430684AF9
:105F30000B43936503E097F8273187F82631D7F8AC
:105F40001431D3E9002302F02003C7F8A83000235E
:105F5000C7F8AC30D7E92A120B46134355D0D7F80F
:105F60001431D3F89030B3F1A04F33D0B3F1A04F38
:105F70002CD8B3F1804F2FD0B3F1804F26D8B3F196
:105F8000405F2BD0B3F1405F20D8B3F1005F12D057
:105F9000B3F1005F1AD8002B22D0B3F1805F15D186
:105FA000D7F8143108330021184600F0BDFE03462F
:105FB00087F8273115E0D7F8143128330221184625
:105FC00000F064FF034687F827310AE0012387F8D1
:105FD000273106E000BF04E000BF02E000BF00E0A0
:105FE00000BF97F82731002B0BD1394B5B6D23F0A5
:105FF000E041D7F81431D3F89030354A0B4353655C
:1060000003E097F8273187F82631D7F81431D3E920
:10601000002302F04003C7F8A0300023C7F8A430E3
:10602000D7E928120B46134358D0D7F81431D3F8C8
:106030009C30B3F5A05F33D0B3F5A05F2CD8B3F597
:10604000805F2FD0B3F5805F26D8B3F5406F2BD09B
:10605000B3F5406F20D8B3F5006F12D0B3F5006FE1
:106060001AD8002B22D0B3F5806F15D1D7F8143190
:1060700008330021184600F057FE034687F8273101
:1060800015E0D7F8143128330221184600F0FEFE3F
:10609000034687F827310AE0012387F8273106E015
:1060A00000BF04E000BF02E000BF00E000BF97F8BF
:1060B0002731002B0ED1064B9B6D23F4E051D7F80E
:1060C0001431D3F89C30024A0B43936506E000BFBD
:1060D0000044025897F8273187F82631D7F8143151
:1060E000D3E9002302F08003C7F898300023C7F8F3
:1060F0009C30D7E926120B46134355D0D7F81431FC
:10610000D3F8A030B3F5204F33D0B3F5204F2CD8BF
:10611000B3F5004F2FD0B3F5004F26D8B3F5C04FDD
:106120002BD0B3F5C04F20D8B3F5804F12D0B3F5C4
:10613000804F1AD8002B22D0B3F5005F15D1D7F8C5
:10614000143108330021184600F0EEFD034687F8AD
:10615000273115E0D7F8143128330221184600F012
:1061600095FE034687F827310AE0012387F8273197
:1061700006E000BF04E000BF02E000BF00E000BF97
:1061800097F82731002B0BD1A14B9B6D23F4604175
:10619000D7F81431D3F8A0309D4A0B43936503E040
:1061A00097F8273187F82631D7F81431D3E900233F
:1061B00002F00803C7F890300023C7F89430D7E9FD
:1061C00024120B4613431ED0D7F81431D3F8843071
:1061D000B3F5805F0CD1D7F814312833022118466B
:1061E00000F054FE0346002B02D0012387F826312D
:1061F000874B5B6D23F44051D7F81431D3F88430CA
:10620000834A0B435365D7F81431D3E9002302F0D6
:106210001003C7F888300023C7F88C30D7E9221262
:106220000B4613431ED0D7F81431D3F89830B3F58A
:10623000807F0CD1D7F8143128330221184600F0A2
:1062400025FE0346002B02D0012387F82631704B30
:106250009B6D23F44071D7F81431D3F898306C4A11
:106260000B439365D7F81431D3E9002302F40023DC
:10627000C7F880300023C7F88430D7E920120B46D6
:1062800013433ED0D7F81431D3F8A430B3F5003F10
:1062900022D0B3F5003F1BD8002B03D0B3F5803FCD
:1062A0000BD015E0D7F8143108330021184600F060
:1062B0003BFD034687F827310FE0D7F81431283328
:1062C0000221184600F0E2FD034687F8273104E07A
:1062D000012387F8273100E000BF97F82731002B12
:1062E0000BD14B4B9B6D23F44031D7F81431D3F8CD
:1062F000A430474A0B43936503E097F8273187F8AA
:106300002631D7F81431D3E9002302F48023BB6788
:106310000023FB67D7E91E120B4613433BD0D7F887
:106320001431D3F88830B3F5401F1FD0B3F5401FA8
:1063300018D8B3F5801F03D0B3F5001F07D011E0C4
:10634000334BDB6A324A43F40033D3620FE0D7F8B1
:10635000143128330121184600F098FD034687F8D0
:10636000273104E0012387F8273100E000BF97F8C8
:106370002731002B0BD1264B5B6D23F44011D7F84E
:106380001431D3F88830224A0B43536503E097F861
:10639000273187F82631D7F81431D3E9002302F4E6
:1063A00080333B6700237B67D7E91C120B461343FE
:1063B00034D0D7F814311B6D002B03D0B3F5803FD8
:1063C00007D011E0124BDB6A114A43F40033D36269
:1063D0000EE0D7F8143108330221184600F0A4FC6F
:1063E000034687F8273103E0012387F8273100BFF0
:1063F00097F82731002B0DD1054BDB6C23F480314E
:10640000D7F814311B6D024A0B43D36406E000BF7A
:106410000044025897F8273187F82631D7F814310D
:10642000D3E9002302F00053BB660023FB66D7E9E3
:106430001A120B4613430CD0D7F81431283302211B
:10644000184600F023FD0346002B02D0012387F8F5
:106450002631D7F81431D3E9002302F400333B6628
:1064600000237B66D7E918120B46134338D0D7F8C0
:106470001431D3F88030B3F5407F18D0B3F5407FA6
:1064800011D8B3F5007F14D0B3F5007F0BD8002BE3
:1064900011D0B3F5807F06D1C34BDB6AC24A43F407
:1064A0000033D36208E0012387F8273104E000BFFE
:1064B00002E000BF00E000BF97F82731002B0BD1AE
:1064C000B94B5B6D23F44071D7F81431D3F88030A9
:1064D000B54A0B43536503E097F8273187F8263117
:1064E000D7F81431D3E9002302F48013BB650023ED
:1064F000FB65D7E916120B46134309D0AA4B1B6D57
:1065000023F00041D7F814315B6FA74A0B431365A2
:10651000D7F81431D3E9002302F080533B65002300
:106520007B65D7E914120B4613430AD09E4B1B69B7
:1065300023F48041D7F81431D3F8B8309A4A0B438A
:106540001361D7F81431D3E9002302F40013BB64BC
:106550000023FB64D7E912120B46134309D0924B78
:106560001B6D23F08071D7F81431DB6E8E4A0B431C
:106570001365D7F81431D3E9002302F080433B645C
:1065800000237B64D7E910120B4613430ED0864BD1
:106590001B69854A23F400431361834B1969D7F8BB
:1065A0001431D3F8BC30804A0B431361D7F814314F
:1065B000D3E9002302F00043BB630023FB63D7E968
:1065C0000E120B46134309D0774BDB6C23F040517E
:1065D000D7F814315B6D744A0B43D364D7F8143188
:1065E000D3E9002302F400033B6300237B63D7E974
:1065F0000C120B4613430AD06B4B5B6D23F4400126
:10660000D7F81431D3F88C30674A0B435365D7F869
:106610001431D3E900230021B96203F00103FB62C6
:10662000D7E90A120B46134311D0D7F814310833B7
:106630000021184600F078FB034687F8273197F8C9
:106640002731002B03D097F8273187F82631D7F868
:106650001431D3E900230021396203F002037B6285
:10666000D7E908120B46134311D0D7F81431083379
:106670000121184600F058FB034687F8273197F8A8
:106680002731002B03D097F8273187F82631D7F828
:106690001431D3E900230021B96103F00403FB6145
:1066A000D7E906120B46134311D0D7F8143108333B
:1066B0000221184600F038FB034687F8273197F887
:1066C0002731002B03D097F8273187F82631D7F8E8
:1066D0001431D3E900230021396103F008037B6101
:1066E000D7E904120B46134311D0D7F814312833DD
:1066F0000021184600F0CAFB034687F8273197F8B7
:106700002731002B03D097F8273187F82631D7F8A7
:106710001431D3E900230021B96003F01003FB60BA
:10672000D7E902120B46134311D0D7F8143128339E
:106730000121184600F0AAFB034687F8273197F895
:106740002731002B03D097F8273187F82631D7F867
:106750001431D3E900230021396003F020037B606A
:10676000D7E900120B46134311D0D7F81431283360
:106770000221184600F08AFB034687F8273197F874
:106780002731002B03D097F8273187F8263197F867
:106790002631002B01D1002300E00123184607F524
:1067A0009477BD46BDE8B08F0044025880B500AF75
:1067B000FEF796FD0246064B1B6A1B0903F0070312
:1067C0000449CB5C03F01F0322FA03F3184680BD93
:1067D0000044025820AB010880B489B000AF786053
:1067E000A14B9B6A03F00303BB619F4B9B6A1B0B8E
:1067F00003F03F037B619C4BDB6A1B0903F0010341
:106800003B61994BDB6BDB08C3F30C033A6902FB7A
:1068100003F307EE903AF8EE677AC7ED037A7B69E7
:10682000002B00F01181BB69022B00F08380BB6953
:10683000022B00F2A180BB69002B03D0BB69012BA6
:1068400056D099E0884B1B6803F02003002B2DD015
:10685000854B1B68DB0803F00303844A22FA03F329
:10686000BB60BB6807EE903AF8EE676A7B6907EE9B
:10687000903AF8EE677A86EEA77A7B4B9B6BC3F370
:10688000080307EE903AF8EE676A97ED036ADFEDCA
:10689000785AC6EE257A76EEA77AF7EE006A77EE9A
:1068A000A67A67EE277AC7ED077A87E07B6907EE5D
:1068B000903AF8EE677ADFED6F6A86EEA77A6A4B58
:1068C0009B6BC3F3080307EE903AF8EE676A97ED07
:1068D000036ADFED675AC6EE257A76EEA77AF7EE01
:1068E000006A77EEA67A67EE277AC7ED077A65E049
:1068F0007B6907EE903AF8EE677ADFED5F6A86EE25
:10690000A77A594B9B6BC3F3080307EE903AF8EE56
:10691000676A97ED036ADFED565AC6EE257A76EE82
:10692000A77AF7EE006A77EEA67A67EE277AC7EDC8
:10693000077A43E07B6907EE903AF8EE677ADFED7D
:106940004F6A86EEA77A484B9B6BC3F3080307EEAA
:10695000903AF8EE676A97ED036ADFED455AC6EEA6
:10696000257A76EEA77AF7EE006A77EEA67A67EEDA
:10697000277AC7ED077A21E07B6907EE903AF8EEB7
:10698000677ADFED3D6A86EEA77A374B9B6BC3F3E0
:10699000080307EE903AF8EE676A97ED036ADFEDB9
:1069A000345AC6EE257A76EEA77AF7EE006A77EECD
:1069B000A67A67EE277AC7ED077A00BF2A4B9B6B52
:1069C0005B0A03F07F0307EE903AF8EE677AB7EEC2
:1069D000007A37EE877AD7ED076AC6EE877AFCEE43
:1069E000E77A17EE902A7B681A601F4B9B6B1B0C93
:1069F00003F07F0307EE903AF8EE677AB7EE007A7D
:106A000037EE877AD7ED076AC6EE877AFCEEE77A2B
:106A100017EE902A7B685A60134B9B6B1B0E03F09A
:106A20007F0307EE903AF8EE677AB7EE007A37EE1A
:106A3000877AD7ED076AC6EE877AFCEEE77A17EE1B
:106A4000902A7B689A6008E07B6800221A607B6865
:106A500000225A607B6800229A6000BF2437BD463E
:106A60005DF8047B704700BF004402580090D003DB
:106A7000000000460024744C0024744A20BCBE4B25
:106A800080B489B000AF7860A14B9B6A03F0030328
:106A9000BB619F4B9B6A1B0D03F03F037B619C4BCB
:106AA000DB6A1B0A03F001033B61994B5B6CDB085B
:106AB000C3F30C033A6902FB03F307EE903AF8EED6
:106AC000677AC7ED037A7B69002B00F01181BB69FF
:106AD000022B00F08380BB69022B00F2A180BB690E
:106AE000002B03D0BB69012B56D099E0884B1B6863
:106AF00003F02003002B2DD0854B1B68DB0803F02F
:106B00000303844A22FA03F3BB60BB6807EE903AA2
:106B1000F8EE676A7B6907EE903AF8EE677A86EEE0
:106B2000A77A7B4B1B6CC3F3080307EE903AF8EE91
:106B3000676A97ED036ADFED785AC6EE257A76EE3E
:106B4000A77AF7EE006A77EEA67A67EE277AC7EDA6
:106B5000077A87E07B6907EE903AF8EE677ADFED17
:106B60006F6A86EEA77A6A4B1B6CC3F3080307EEC5
:106B7000903AF8EE676A97ED036ADFED675AC6EE62
:106B8000257A76EEA77AF7EE006A77EEA67A67EEB8
:106B9000277AC7ED077A65E07B6907EE903AF8EE51
:106BA000677ADFED5F6A86EEA77A594B1B6CC3F3F9
:106BB000080307EE903AF8EE676A97ED036ADFED97
:106BC000565AC6EE257A76EEA77AF7EE006A77EE89
:106BD000A67A67EE277AC7ED077A43E07B6907EE6E
:106BE000903AF8EE677ADFED4F6A86EEA77A484B67
:106BF0001B6CC3F3080307EE903AF8EE676A97ED53
:106C0000036ADFED455AC6EE257A76EEA77AF7EEEF
:106C1000006A77EEA67A67EE277AC7ED077A21E059
:106C20007B6907EE903AF8EE677ADFED3D6A86EE13
:106C3000A77A374B1B6CC3F3080307EE903AF8EEC4
:106C4000676A97ED036ADFED345AC6EE257A76EE71
:106C5000A77AF7EE006A77EEA67A67EE277AC7ED95
:106C6000077A00BF2A4B1B6C5B0A03F07F0307EE19
:106C7000903AF8EE677AB7EE007A37EE877AD7ED7A
:106C8000076AC6EE877AFCEEE77A17EE902A7B68F1
:106C90001A601F4B1B6C1B0C03F07F0307EE903A2E
:106CA000F8EE677AB7EE007A37EE877AD7ED076AA3
:106CB000C6EE877AFCEEE77A17EE902A7B685A6078
:106CC000134B1B6C1B0E03F07F0307EE903AF8EE9C
:106CD000677AB7EE007A37EE877AD7ED076AC6EEA5
:106CE000877AFCEEE77A17EE902A7B689A6008E0D4
:106CF0007B6800221A607B6800225A607B68002251
:106D00009A6000BF2437BD465DF8047B704700BF22
:106D1000004402580090D003000000460024744C48
:106D20000024744A20BCBE4B80B584B000AF7860AC
:106D300039600023FB73534B9B6A03F00303032B5F
:106D400001D1012399E04F4B1B684E4A23F0806329
:106D50001360FAF7D3FCB86008E0FAF7CFFC0246FC
:106D6000BB68D31A022B01D9032386E0454B1B686D
:106D700003F00063002BF0D1424B9B6A23F47C327A
:106D80007B681B681B033F4913438B627B685B680E
:106D9000013BC3F308027B689B68013B5B029BB22B
:106DA0001A437B68DB68013B1B0403F4FE031A43B0
:106DB0007B681B69013B1B0603F0FE43314913430B
:106DC0008B63304BDB6A23F0C0027B685B692D4923
:106DD0001343CB622B4BDB6A23F020027B689B6959
:106DE00028491343CB62274BDB6A264A23F0100362
:106DF000D362244BDA6B244B13407A68D269D200F9
:106E000020491343CB631F4BDB6A1E4A43F0100338
:106E1000D3623B68002B06D11A4BDB6A194A43F454
:106E20000023D3620FE03B68012B06D1154BDB6AD0
:106E3000144A43F48013D36205E0124BDB6A114A13
:106E400043F40013D3620F4B1B680E4A43F0806378
:106E50001360FAF753FCB86008E0FAF74FFC0246FB
:106E6000BB68D31A022B01D9032306E0054B1B682C
:106E700003F00063002BF0D0FB7B18461037BD46B3
:106E800080BD00BF004402580700FFFF80B584B0FA
:106E900000AF786039600023FB73534B9B6A03F0AB
:106EA0000303032B01D1012399E04F4B1B684E4A8A
:106EB00023F080531360FAF721FCB86008E0FAF77A
:106EC0001DFC0246BB68D31A022B01D9032386E0BE
:106ED000454B1B6803F00053002BF0D1424B9B6ADB
:106EE00023F07C727B681B681B053F4913438B6250
:106EF0007B685B68013BC3F308027B689B68013BCE
:106F00005B029BB21A437B68DB68013B1B0403F402
:106F1000FE031A437B681B69013B1B0603F0FE431B
:106F2000314913430B64304BDB6A23F440627B68C6
:106F30005B692D491343CB622B4BDB6A23F4007250
:106F40007B689B6928491343CB62274BDB6A264A3F
:106F500023F48073D362244B5A6C244B13407A6819
:106F6000D269D200204913434B641F4BDB6A1E4A8F
:106F700043F48073D3623B68002B06D11A4BDB6A63
:106F8000194A43F48003D3620FE03B68012B06D11A
:106F9000154BDB6A144A43F40003D36205E0124B3D
:106FA000DB6A114A43F08073D3620F4B1B680E4AB1
:106FB00043F080531360FAF7A1FBB86008E0FAF7DA
:106FC0009DFB0246BB68D31A022B01D9032306E0BE
:106FD000054B1B6803F00053002BF0D0FB7B1846D9
:106FE0001037BD4680BD00BF004402580700FFFFB8
:106FF00080B582B000AF78607B68002B01D101239F
:1070000042E07B68D3F88830002B06D17B680022F1
:1070100083F884207868FAF7EFF87B682422C3F8B5
:1070200088207B681B681A687B681B6822F0010255
:107030001A60786800F006FC0346012B01D1012399
:1070400022E07B689B6A002B02D0786801F062F92D
:107050007B681B685A687B681B6822F490425A6000
:107060007B681B689A687B681B6822F02A029A601A
:107070007B681B681A687B681B6842F001021A6013
:10708000786801F0E9F9034618460837BD4680BD27
:1070900080B5BAB000AF78607B681B68DB69C7F861
:1070A000E4307B681B681B68C7F8E0307B681B68AE
:1070B0009B68C7F8DC30D7F8E42040F60F03134094
:1070C000C7F8D830D7F8D830002B1BD1D7F8E43028
:1070D00003F02003002B15D0D7F8E03003F0200395
:1070E000002B05D1D7F8DC3003F08053002B09D0FA
:1070F0007B685B6F002B00F077837B685B6F786841
:10710000984771E3D7F8D830002B00F02381D7F8E7
:10711000DC208D4B1340002B06D1D7F8E0208B4BA1
:107120001340002B00F01681D7F8E43003F0010380
:10713000002B11D0D7F8E03003F48073002B0BD074
:107140007B681B6801221A627B68D3F8903043F099
:1071500001027B68C3F89020D7F8E43003F0020303
:10716000002B11D0D7F8DC3003F00103002B0BD03B
:107170007B681B6802221A627B68D3F8903043F068
:1071800004027B68C3F89020D7F8E43003F00403CE
:10719000002B11D0D7F8DC3003F00103002B0BD00B
:1071A0007B681B6804221A627B68D3F8903043F036
:1071B00002027B68C3F89020D7F8E43003F008039C
:1071C000002B17D0D7F8E03003F02003002B05D1B7
:1071D000D7F8DC205C4B1340002B0BD07B681B687E
:1071E00008221A627B68D3F8903043F008027B686B
:1071F000C3F89020D7F8E43003F40063002B12D0DA
:10720000D7F8E03003F08063002B0CD07B681B685C
:107210004FF400621A627B68D3F8903043F020028A
:107220007B68C3F890207B68D3F89030002B00F087
:10723000DD82D7F8E43003F02003002B13D0D7F819
:10724000E03003F02003002B05D1D7F8DC3003F049
:107250008053002B07D07B685B6F002B03D07B68CB
:107260005B6F786898477B68D3F89030C7F8D43064
:107270007B681B689B6803F04003402B05D0D7F860
:10728000D43003F02803002B54D0786801F0F6F9CD
:107290007B681B689B6803F04003402B46D17B68EA
:1072A0001B680833C7F89C30D7F89C3053E8003F80
:1072B000C7F89830D7F8983023F04003C7F8D0309B
:1072C0007B681B680833D7F8D020C7F8A820C7F818
:1072D000A430D7F8A410D7F8A82041E80023C7F8B5
:1072E000A030D7F8A030002BD9D17B68D3F88030FC
:1072F000002B17D07B68D3F88030154A1A657B685D
:10730000D3F880301846FAF7F3FE0346002B19D065
:107310007B68D3F880301B6D7A68D2F880201046E5
:1073200098470FE0786800F077FA0BE0786800F093
:1073300073FA07E0786800F06FFA7B680022C3F800
:10734000902053E200BF51E2010000102001000430
:10735000498700087B68DB6E012B40F0E781D7F896
:10736000E43003F01003002B00F0E081D7F8E030A8
:1073700003F01003002B00F0D9817B681B681022FA
:107380001A627B681B689B6803F04003402B40F047
:1073900051817B68D3F880301B68964A934268D04D
:1073A0007B68D3F880301B68934A934261D07B6836
:1073B000D3F880301B68914A93425AD07B68D3F847
:1073C00080301B688E4A934253D07B68D3F880305C
:1073D0001B688C4A93424CD07B68D3F880301B6882
:1073E000894A934245D07B68D3F880301B68874A2E
:1073F00093423ED07B68D3F880301B68844A934226
:1074000037D07B68D3F880301B68824A934230D0F3
:107410007B68D3F880301B687F4A934229D07B6811
:10742000D3F880301B687D4A934222D07B68D3F822
:1074300080301B687A4A93421BD07B68D3F8803037
:107440001B68784A934214D07B68D3F880301B685D
:10745000754A93420DD07B68D3F880301B68734A1D
:10746000934206D07B68D3F880301B68704A934201
:1074700006D17B68D3F880301B685B689BB205E05F
:107480007B68D3F880301B685B689BB2A7F8BE307E
:10749000B7F8BE30002B00F0AB817B68B3F85C30EE
:1074A000B7F8BE209A4280F0A3817B68B7F8BE206F
:1074B000A3F85E207B68D3F88030DB69B3F5807F6A
:1074C00000F087807B681B68C7F88830D7F8883061
:1074D00053E8003FC7F88430D7F8843023F4807332
:1074E000C7F8B8307B681B681A46D7F8B830C7F8B9
:1074F0009430C7F89020D7F89010D7F8942041E83E
:107500000023C7F88C30D7F88C30002BDAD17B6899
:107510001B6808337B677B6F53E8003F3B673B6F1B
:1075200023F00103C7F8B4307B681B680833D7F831
:10753000B420C7F88020FB67F96FD7F8802041E8B6
:107540000023BB67BB6F002BE1D17B681B6808334E
:107550003B663B6E53E8003FFB65FB6D23F0400349
:10756000C7F8B0307B681B680833D7F8B020FA66DC
:10757000BB66B96EFA6E41E800237B667B6E002B1A
:10758000E3D17B682022C3F88C207B680022DA6676
:107590007B681B68FB64FB6C53E8003FBB64BB6CFF
:1075A00023F01003C7F8AC307B681B681A46D7F885
:1075B000AC30BB657A65796DBA6D41E800233B65F7
:1075C0003B6D002BE4D17B68D3F880301846FAF786
:1075D00071FA7B6802221A677B68B3F85C207B68CB
:1075E000B3F85E309BB2D31A9BB21946786800F0AC
:1075F0001DF9FDE01000024028000240400002405A
:10760000580002407000024088000240A000024082
:10761000B800024010040240280402404004024026
:10762000580402407004024088040240A004024052
:10763000B80402407B68B3F85C207B68B3F85E3026
:107640009BB2D31AA7F8CE307B68B3F85E309BB2FA
:10765000002B00F0CF80B7F8CE30002B00F0CA80AE
:107660007B681B68BB63BB6B53E8003F7B637B6B32
:1076700023F49073C7F8C8307B681B681A46D7F8A4
:10768000C8307B643A64396C7A6C41E80023FB6350
:10769000FB6B002BE4D17B681B6808337B627B6A41
:1076A00053E8003F3B623A6A554B1340C7F8C43079
:1076B0007B681B680833D7F8C4203A63FB62F96A19
:1076C0003A6B41E80023BB62BB6A002BE3D17B68C5
:1076D0002022C3F88C207B680022DA667B680022B7
:1076E0005A677B681B683B613B6953E8003FFB605E
:1076F000FB6823F01003C7F8C0307B681B681A468C
:10770000D7F8C030FB61BA61B969FA6941E8002372
:107710007B617B69002BE4D17B6802221A67B7F892
:10772000CE301946786800F081F863E0D7F8E4308D
:1077300003F48013002B0ED0D7F8DC3003F4800361
:10774000002B08D07B681B684FF480121A6278689F
:1077500001F03BF851E0D7F8E43003F08003002B50
:1077600014D0D7F8E03003F08003002B05D1D7F810
:10777000DC3003F40003002B08D07B689B6F002BE8
:107780003AD07B689B6F7868984735E0D7F8E4304B
:1077900003F04003002B09D0D7F8E03003F040039A
:1077A000002B03D0786800F0E5FF26E0D7F8E4303E
:1077B00003F40003002B09D0D7F8E03003F0804336
:1077C000002B03D0786801F014F816E0D7F8E43005
:1077D00003F08073002B10D0D7F8E030002B0CDAC8
:1077E000786800F0FCFF08E000BF06E000BF04E09E
:1077F00000BF02E000BF00E000BFE837BD4680BD2B
:10780000FEFFFFEF80B483B000AF786000BF0C379D
:10781000BD465DF8047B704780B483B000AF7860EC
:1078200000BF0C37BD465DF8047B704780B483B061
:1078300000AF78600B467B8000BF0C37BD465DF81B
:10784000047B70472DE9B04F92B000AF7861002300
:1078500087F842307B699A687B691B691A437B69A8
:107860005B691A437B69DB6913437B647B691B6833
:107870001A68BE4B13407A691268796C0B43136027
:107880007B691B685B6823F440517B69DA687B691C
:107890001B680A435A607B699B697B647B691B6830
:1078A000B34A934204D07B691B6A7A6C13437B64AE
:1078B0007B691B689A68AF4B13407A691268796CD0
:1078C0000B4393607B691B68DB6A23F00F017B69C4
:1078D0005A6A7B691B680A43DA627B691B68A64A9D
:1078E000934277D1A54B5B6D03F03803282B6DD8FD
:1078F00001A252F823F000BF9D790008CD7900085D
:10790000CD790008CD790008CD790008CD7900083F
:10791000CD790008CD790008A5790008CD79000857
:10792000CD790008CD790008CD790008CD7900081F
:10793000CD790008CD790008AD790008CD7900082F
:10794000CD790008CD790008CD790008CD790008FF
:10795000CD790008CD790008B5790008CD79000807
:10796000CD790008CD790008CD790008CD790008DF
:10797000CD790008CD790008BD790008CD790008DF
:10798000CD790008CD790008CD790008CD790008BF
:10799000CD790008CD790008C5790008012387F862
:1079A000433022E2042387F843301EE2082387F89D
:1079B00043301AE2102387F8433016E2202387F879
:1079C000433012E2402387F843300EE2802387F8E9
:1079D00043300AE27B691B68694A934230D1674BA6
:1079E0005B6D03F00703052B26D801A252F823F0A4
:1079F000097A0008117A0008197A0008217A00082B
:107A0000297A0008317A0008002387F84330ECE136
:107A1000042387F84330E8E1082387F84330E4E1A2
:107A2000102387F84330E0E1202387F84330DCE17E
:107A3000402387F84330D8E1802387F84330D4E1EE
:107A40007B691B684F4A934230D14C4B5B6D03F00E
:107A50000703052B26D801A252F823F0757A0008F7
:107A60007D7A0008857A00088D7A0008957A0008EA
:107A70009D7A0008002387F84330B6E1042387F895
:107A80004330B2E1082387F84330AEE1102387F892
:107A90004330AAE1202387F84330A6E1402387F84A
:107AA0004330A2E1802387F843309EE17B691B6865
:107AB000354A934230D1314B5B6D03F00703052B00
:107AC00026D801A252F823F0E17A0008E97A0008EA
:107AD000F17A0008F97A0008017B0008097B0008A8
:107AE000002387F8433080E1042387F843307CE1AA
:107AF000082387F8433078E1102387F8433074E196
:107B0000202387F8433070E1402387F843306CE14D
:107B1000802387F8433068E17B691B681B4A9342E6
:107B200042D1164B5B6D03F00703052B38D801A239
:107B300052F823F04D7B0008557B00085D7B000860
:107B4000657B0008917B0008997B0008002387F87B
:107B500043304AE1042387F8433046E1082387F89D
:107B6000433042E1102387F843303EE1F369FFCF11
:107B7000000C0058FFF4FF110010014000440258AF
:107B80000044004000480040004C004000500040CD
:107B9000202387F8433028E1402387F8433024E14D
:107BA000802387F8433020E17B691B68CB4A9342EE
:107BB00076D1CB4B5B6D03F03803282B6CD801A238
:107BC00052F823F0697C0008997C0008997C000831
:107BD000997C0008997C0008997C0008997C000831
:107BE000997C0008717C0008997C0008997C000849
:107BF000997C0008997C0008997C0008997C000811
:107C0000997C0008797C0008997C0008997C000820
:107C1000997C0008997C0008997C0008997C0008F0
:107C2000997C0008817C0008997C0008997C0008F8
:107C3000997C0008997C0008997C0008997C0008D0
:107C4000997C0008897C0008997C0008997C0008D0
:107C5000997C0008997C0008997C0008997C0008B0
:107C6000997C0008917C0008012387F84330BCE030
:107C7000042387F84330B8E0082387F84330B4E0A2
:107C8000102387F84330B0E0202387F84330ACE07E
:107C9000402387F84330A8E0802387F84330A4E0EE
:107CA0007B691B688F4A934230D18D4B5B6D03F02B
:107CB0000703052B26D801A252F823F0D57C000833
:107CC000DD7C0008E57C0008ED7C0008F57C000800
:107CD000FD7C0008002387F8433086E0042387F802
:107CE000433082E0082387F843307EE0102387F892
:107CF00043307AE0202387F8433076E0402387F84A
:107D0000433072E0802387F843306EE07B691B6864
:107D1000754A934230D1724B5B6D03F00703052B1C
:107D200026D801A252F823F0417D0008497D0008C1
:107D3000517D0008597D0008617D0008697D0008BB
:107D4000002387F8433050E0042387F843304CE0A9
:107D5000082387F8433048E0102387F8433044E095
:107D6000202387F8433040E0402387F843303CE04D
:107D7000802387F8433038E07B691B685B4A934275
:107D800030D1574B9B6D03F00703052B26D801A27A
:107D900052F823F0AD7D0008B57D0008BD7D0008D8
:107DA000C57D0008CD7D0008D57D0008022387F839
:107DB00043301AE0042387F8433016E0082387F89D
:107DC000433012E0102387F843300EE0202387F879
:107DD00043300AE0402387F8433006E0802387F8E9
:107DE000433002E0802387F843307B691B683F4AB9
:107DF000934240F0F88097F84330202B46DC022B6A
:107E0000C0F28280023B1E2B7ED801A252F823F0E2
:107E1000937E0008097F00089B7E0008097F000808
:107E2000097F0008097F0008AB7E0008097F000871
:107E3000097F0008097F0008097F0008097F000802
:107E4000097F0008097F0008BB7E0008097F000841
:107E5000097F0008097F0008097F0008097F0008E2
:107E6000097F0008097F0008097F0008097F0008D2
:107E7000097F0008097F0008097F0008097F0008C2
:107E8000097F0008097F0008FB7E0008402B37D0DF
:107E90003AE0FEF78BFCF8633CE007F12403184658
:107EA000FEF79AFCBB6AFB6334E007F1180318463F
:107EB000FEF7E6FDFB69FB632CE0094B1B6803F052
:107EC0002003002B16D0064B1B68DB0803F00303CE
:107ED000074A22FA03F3FB631CE000BF00140140D1
:107EE0000044025800780040007C0040000C00581C
:107EF0000090D0039D4BFB630CE09D4BFB6309E0BE
:107F00004FF40043FB6305E00023FB63012387F884
:107F1000423000BFFB6B002B00F0DE817B695B6AA7
:107F2000944A32F813301A46FB6BB3FBF2F33B630F
:107F30007B695A6813465B0013443A6B9A4205D337
:107F40007B695B681B033A6B9A4203D9012387F86C
:107F50004230C1E1FB6B0022BB60FA607B695B6A67
:107F6000844A32F813309BB200223B607A60D7E932
:107F70000023D7E90201F8F7C7FB02460B4610467B
:107F800019464FF000024FF000030B0243EA106362
:107F9000020279694968490800200C46054612EB3F
:107FA000040843EB05097B695B6800229A46934607
:107FB00052465B4640464946F8F7A6FB02460B464A
:107FC0001346BB63BB6BB3F5407F08D3BB6BB3F504
:107FD000801F04D27B691B68BA6BDA607CE10123E5
:107FE00087F8423078E17B69DB69B3F5004F40F0F8
:107FF000C58097F84330202B48DC002B7BDB202BFF
:1080000079D801A252F823F0938000089B800008E1
:10801000F7800008F7800008A3800008F7800008B8
:10802000F7800008F7800008B3800008F780000898
:10803000F7800008F7800008F7800008F780000844
:10804000F7800008F7800008C3800008F780000868
:10805000F7800008F7800008F7800008F780000824
:10806000F7800008F7800008F7800008F780000814
:10807000F7800008F7800008F7800008F780000804
:10808000F7800008F7800008E9800008402B2ED018
:1080900031E0FDF755F9F86333E0FDF767F9F86370
:1080A0002FE007F124031846FEF796FBBB6AFB633B
:1080B00027E007F118031846FEF7E2FCFB69FB63B3
:1080C0001FE02D4B1B6803F02003002B09D02A4B27
:1080D0001B68DB0803F00303244A22FA03F3FB6363
:1080E0000FE0224BFB630CE0214BFB6309E04FF4F4
:1080F0000043FB6305E00023FB63012387F8423064
:1081000000BFFB6B002B00F0E7807B695B6A194ABC
:1081100032F813301A46FB6BB3FBF2F35A007B695B
:108120005B685B081A447B695B68B2FBF3F3BB6373
:10813000BB6B0F2B16D9BB6BB3F5803F12D2BB6B59
:108140009BB223F00F03FB86BB6B5B089BB203F073
:1081500007039AB2FB8E1343FB867B691B68FA8E7A
:10816000DA60B9E0012387F84230B5E00090D0032F
:1081700000093D0030AB01080044025897F8433035
:10818000202B49DC002B7CDB202B7AD801A252F873
:1081900023F000BF1F8200082782000883820008A6
:1081A000838200082F8200088382000883820008EF
:1081B000838200083F8200088382000883820008CF
:1081C000838200088382000883820008838200087B
:1081D000838200084F82000883820008838200089F
:1081E000838200088382000883820008838200085B
:1081F000838200088382000883820008838200084B
:10820000838200088382000883820008838200083A
:108210008382000875820008402B2ED031E0FDF7E4
:108220008FF8F86333E0FDF7A1F8F8632FE007F16A
:1082300024031846FEF7D0FABB6AFB6327E007F178
:1082400018031846FEF71CFCFB69FB631FE02D4B6F
:108250001B6803F02003002B09D02A4B1B68DB08A6
:1082600003F00303284A22FA03F3FB630FE0264BD3
:10827000FB630CE0254BFB6309E04FF40043FB6319
:1082800005E00023FB63012387F8423000BFFB6B4E
:10829000002B21D07B695B6A1D4A32F813301A46E5
:1082A000FB6BB3FBF2F27B695B685B081A447B698A
:1082B0005B68B2FBF3F3BB63BB6B0F2B09D9BB6BE2
:1082C000B3F5803F05D2BB6B9AB27B691B68DA605D
:1082D00002E0012387F842307B690122A3F86A207B
:1082E0007B690122A3F868207B6900225A677B69B9
:1082F00000229A6797F8423018464837BD46BDE8D5
:10830000B08F00BF004402580090D00300093D0028
:1083100030AB010880B483B000AF78607B689B6AA3
:1083200003F00103002B0AD07B681B685B6823F411
:1083300000317B68DA6A7B681B680A435A607B6895
:108340009B6A03F00203002B0AD07B681B685B6802
:1083500023F480317B681A6B7B681B680A435A6080
:108360007B689B6A03F00403002B0AD07B681B68C0
:108370005B6823F480217B685A6B7B681B680A4327
:108380005A607B689B6A03F00803002B0AD07B6865
:108390001B685B6823F400417B689A6B7B681B68F1
:1083A0000A435A607B689B6A03F01003002B0AD0D3
:1083B0007B681B689B6823F480517B68DA6B7B6861
:1083C0001B680A439A607B689B6A03F02003002BBA
:1083D0000AD07B681B689B6823F400517B681A6C89
:1083E0007B681B680A439A607B689B6A03F04003C2
:1083F000002B1AD07B681B685B6823F480117B68B4
:108400005A6C7B681B680A435A607B685B6CB3F5E7
:10841000801F0AD17B681B685B6823F4C0017B68FE
:108420009A6C7B681B680A435A607B689B6A03F0FE
:108430008003002B0AD07B681B685B6823F4002153
:108440007B68DA6C7B681B680A435A6000BF0C3794
:10845000BD465DF8047B704780B598B002AF786088
:108460007B680022C3F89020F9F748F978657B68AB
:108470001B681B6803F00803082B2FD16FF07E43A5
:1084800000937B6D00224FF40011786800F08EF8A5
:108490000346002B22D07B681B68BB63BB6B53E891
:1084A000003F7B637B6B23F080033B657B681B682D
:1084B0001A463B6D7B643A64396C7A6C41E8002360
:1084C000FB63FB6B002BE6D17B682022C3F888207E
:1084D0007B68002283F88420032363E07B681B68A9
:1084E0001B6803F00403042B49D16FF07E43009313
:1084F0007B6D00224FF48001786800F057F8034646
:10850000002B3CD07B681B687B627B6A53E8003F92
:108510003B623B6A23F49073FB647B681B681A46DA
:10852000FB6C3B63FA62F96A3A6B41E80023BB6279
:10853000BB6A002BE6D17B681B6808333B613B6953
:1085400053E8003FFB60FB6823F00103BB647B68DA
:108550001B680833BA6CFA61BB61B969FA6941E812
:1085600000237B617B69002BE5D17B682022C3F867
:108570008C207B68002283F88420032312E07B6830
:108580002022C3F888207B682022C3F88C207B68D7
:108590000022DA667B6800221A677B68002283F873
:1085A0008420002318465837BD4680BD80B584B06E
:1085B00000AFF860B9603B601346FB7149E0BB69EE
:1085C000B3F1FF3F45D0F9F799F802463B68D31A5B
:1085D000BA699A4202D3BB69002B01D1032348E058
:1085E000FB681B681B6803F00403002B31D0FB6899
:1085F0001B68DB6903F00803082B10D1FB681B68BC
:1086000008221A62F86800F039F8FB680822C3F8FB
:108610009020FB68002283F88420012329E0FB6876
:108620001B68DB6903F40063B3F5006F11D1FB68CD
:108630001B684FF400621A62F86800F01FF8FB68CC
:108640002022C3F89020FB68002283F884200323B3
:108650000FE0FB681B68DA69BB681340BA689A428E
:108660000CBF01230023DBB21A46FB799A42A6D045
:10867000002318461037BD4680BD000080B495B079
:1086800000AF78607B681B687B637B6B53E8003FBF
:108690003B633B6B23F49073FB647B681B681A4657
:1086A000FB6C3B64FA63F96B3A6C41E80023BB63F3
:1086B000BB6B002BE6D17B681B6808333B623B6ACF
:1086C00053E8003FFB61FA691E4B1340BB647B68B3
:1086D0001B680833BA6CFA62BB62B96AFA6A41E88D
:1086E00000237B627B6A002BE5D17B68DB6E012B6C
:1086F00018D17B681B68FB60FB6853E8003FBB60D8
:10870000BB6823F010037B647B681B681A467B6C94
:10871000BB617A617969BA6941E800233B613B69D1
:10872000002BE6D17B682022C3F88C207B680022D6
:10873000DA667B6800225A6700BF5437BD465DF891
:10874000047B7047FEFFFFEF80B584B000AF786018
:108750007B689B6BFB60FB680022A3F85E20FB68D4
:108760000022A3F85620F868FFF756F800BF10372C
:10877000BD4680BD80B588B000AF78607B681B685F
:10878000FB60FB6853E8003FBB60BB6823F040031D
:10879000FB617B681B681A46FB69BB617A6179697A
:1087A000BA6941E800233B613B69002BE6D17B6855
:1087B0002022C3F888207B6800229A677868FFF738
:1087C00021F800BF2037BD4680BD80B483B000AF24
:1087D000786000BF0C37BD465DF8047B704780B4FD
:1087E00083B000AF786000BF0C37BD465DF8047BF6
:1087F000704780B483B000AF786000BF0C37BD46CF
:108800005DF8047B704780B485B000AF78607B680A
:1088100093F88430012B01D1022327E07B680122E9
:1088200083F884207B682422C3F888207B681B6837
:108830001B68FB607B681B681A687B681B6822F0FA
:1088400001021A60FB6823F00053FB607B68002282
:108850005A667B681B68FA681A607B682022C3F836
:1088600088207B68002283F8842000231846143770
:10887000BD465DF8047B704780B584B000AF78607A
:1088800039607B6893F88430012B01D102232DE0FD
:108890007B68012283F884207B682422C3F8882027
:1088A0007B681B681B68FB607B681B681A687B68B9
:1088B0001B6822F001021A607B681B689B6823F02A
:1088C00060417B681B683A680A439A60786800F0E8
:1088D0004FF87B681B68FA681A607B682022C3F82F
:1088E00088207B68002283F88420002318461037F4
:1088F000BD4680BD80B584B000AF786039607B68CC
:1089000093F88430012B01D102232DE07B680122F2
:1089100083F884207B682422C3F888207B681B6846
:108920001B68FB607B681B681A687B681B6822F009
:1089300001021A607B681B689B6823F060617B689A
:108940001B683A680A439A60786800F011F87B68FF
:108950001B68FA681A607B682022C3F888207B684D
:10896000002283F88420002318461037BD4680BDBE
:1089700080B485B000AF78607B685B6E002B08D157
:108980007B680122A3F86A207B680122A3F8682093
:1089900031E01023FB731023BB737B681B689B685B
:1089A0005B0EDBB203F007037B737B681B689B687D
:1089B0005B0FDBB203F007033B73BB7B3A7B1149D0
:1089C0008A5C02FB03F33A7B0F498A5C93FBF2F368
:1089D0009AB27B68A3F86A20FB7B7A7B09498A5CA0
:1089E00002FB03F37A7B08498A5C93FBF2F39AB2A9
:1089F0007B68A3F8682000BF1437BD465DF8047B90
:108A0000704700BF48AB010850AB010880B584B087
:108A100004AF8D4BC0221A708B4BA8225A708A4B20
:108A200000229A70884B1E22DA70884BFF221A703F
:108A3000864BFF225A70854BFF229A70834B00228F
:108A4000DA70834BC0221A70814BA8225A70804B77
:108A500000229A707E4B0122DA7000F09BFE7A4B66
:108A60001B781A06784B5B781B041A43764B9B786D
:108A70001B021343744AD27813431A06724B1B78B5
:108A80001906714B5B781B0419436F4B9B781B02D3
:108A90000B436D49C9780B431B0203F47F031A4350
:108AA000694B1B781906684B5B781B041943664BAE
:108AB0009B781B020B436449C9780B431B0A03F4E0
:108AC0007F431A43604B1B7819065F4B5B781B048E
:108AD00019435D4B9B781B020B435B49C9780B43E1
:108AE0001B0E13435B4A1360584B1B781A06574BF7
:108AF0005B781B041A43554B9B781B021343534A64
:108B0000D27813431A06514B1B7819064F4B5B78EA
:108B10001B0419434D4B9B781B020B434B49C978EF
:108B20000B431B0203F47F031A43484B1B781906BF
:108B3000464B5B781B041943444B9B781B020B4349
:108B40004249C9780B431B0A03F47F431A433F4B46
:108B50001B7819063D4B5B781B0419433B4B9B78F4
:108B60001B020B433949C9780B431B0E13433A4A86
:108B70001360374B1B781A06354B5B781B041A437E
:108B8000334B9B781B021343314AD27813431A06A6
:108B90002F4B1B7819062E4B5B781B0419432C4B6B
:108BA0009B781B020B432A49C9780B431B0203F431
:108BB0007F031A43264B1B781906254B5B781B0451
:108BC0001943234B9B781B020B432149C9780B4364
:108BD0001B0A03F47F431A431D4B1B7819061C4BD9
:108BE0005B781B0419431A4B9B781B020B431849F3
:108BF000C9780B431B0E1343184A1360184B02939A
:108C0000184B019300230093144B134A1149164843
:108C100001F0F0FA144801F0A5FC134B93F82D3045
:108C20009B0803F00103DBB2002B03D00E4801F0D8
:108C3000A9FC02E00C4801F011FD0C490A4801F0C2
:108C4000A3FD00BFBD4680BDFC020024000300243C
:108C500004030024F0020024F4020024F80200249B
:108C6000A931010881900008B4020024C18C0008D9
:108C700080B582B000AF7860F8F740FD0246084B3F
:108C80001B68D31A632B07D9F8F738FD0346044A4B
:108C90001360786800F070FB00BF0837BD4680BDE8
:108CA000B002002480B500AF044800F0C9F907F015
:108CB0005BFE0248FFF7DCFF00BF80BDB40200246A
:108CC00080B582B000AF78607B6893F82D3003F0F8
:108CD0000103DBB2002B03D005480BF00BFE02E0D2
:108CE00004480BF007FE00BF0837BD4680BD00BF3B
:108CF000E07F01080C80010880B584B000AF786087
:108D00000023FB73464B474A1A6000233B728023C3
:108D10007B72E123BB720023FB7200233B730023B1
:108D20007B733F4A07F1080353603D4B01221A72DF
:108D30003B4B3D4ADA603A4B3C4A1A61384B40F2B1
:108D4000F4525A613648F9F719FC0346FB7338228E
:108D5000002137480BF0F8FE354B21221A60344BC6
:108D60004FF440325A61324B00221A61314801F00F
:108D7000C1F87B68062283F82C20294B5B681A789F
:108D80007B6883F82620264B5B685A787B6883F8DB
:108D90002720234B5B689A787B6883F82820204B38
:108DA0005B68DA787B6883F829201D4B5B681A7949
:108DB0007B6883F82A201A4B5B685A797B6883F8B2
:108DC0002B207B6840F2DC529A847B6893F82D302C
:108DD00043F00A03DAB27B6883F82D20164917485E
:108DE000F8F7A5FA002107200AF0D5FC6420F8F76F
:108DF00091FC002107200AF0CEFC6420F8F78AFCE1
:108E00000E48F8F7C6FAFB7B002B03D1786800F018
:108E1000B3FA01E0F7F7EAFF00BF1037BD4680BDA7
:108E2000544D002400800240F44C0024944C002453
:108E3000044E002458AB0108100000243C4E0024CE
:108E400080B594B000AF786039600023FB640023E4
:108E5000BB64002387F8473007F108033022002164
:108E600018460BF071FE07F1080330220021184666
:108E70000BF06AFE3B68BB6445E0FB6C032B02D938
:108E80006FF00B0386E0BB6C5968FA6C13465B000D
:108E900013449B0050333B44483B1960BB6C5B89D7
:108EA0001946FA6C13465B0013449B0050333B4455
:108EB000443B1960FB6C002B11D0FB6C5A1E07F170
:108EC0000800F96C0B465B000B449B00C11813466D
:108ED0005B0013449B0050333B44403B1960BB6C28
:108EE0001B68002B09D1FA6C13465B0013449B00EE
:108EF00050333B44403B00221A60FB6C0133FB645F
:108F0000BB6C1B68BB64BB6C002BB6D13B681B8978
:108F10001A46224B5A60214A07F1080393601F4A00
:108F20003B6853631E4B0022C3F88420BFF34F8F6E
:108F300000BF1B4BD3F880303B643B6C5B0BC3F32F
:108F40000E03FB633B6CDB08C3F30903BB63FB6BE2
:108F50005A0143F6E0731340BA6B9207104913436A
:108F6000C1F87432BB6B5A1EBA63002BEFD1FB6B96
:108F70005A1EFA63002BE5D1BFF34F8F00BFBFF33A
:108F80006F8F00BF00BF142204490648F9F78EFC1A
:108F900097F9473018465037BD4680BD044E00242F
:108FA00000ED00E0544D002480B586B000AF78603D
:108FB0000023BB601F4B1B78002B36D11E4B0022B9
:108FC000C3F88420BFF34F8F00BF1B4BD3F8803012
:108FD0007B617B695B0BC3F30E033B617B69DB0841
:108FE000C3F30903FB603B695A0143F6E073134086
:108FF000FA68920710491343C1F87432FB685A1E8D
:10900000FA60002BEFD13B695A1E3A61002BE5D183
:10901000BFF34F8F00BFBFF36F8F00BF00BF07F1DB
:10902000080319460548F9F7D8FCBB6818461837F5
:10903000BD4680BD904C002400ED00E0544D00245E
:1090400080B584B000AF78600023FB607868FFF7DC
:10905000ABFFF860FB68002B0AD07B681B6979685E
:10906000F86898470346002B02D0F86801F08AFFA1
:10907000FB68002BEAD100BF00BF1037BD4680BDA2
:1090800080B582B000AF78607B68002B06D10E4BB4
:1090900040F27F120D490E480BF0C6FB7B6873222D
:1090A00083F82E207B68742283F82F207B68094A7E
:1090B0005A617B68084A9A617868FFF71DFE0023B1
:1090C00018460837BD4680BD388001085480010825
:1090D00064800108F9150108418E000880B584B04C
:1090E00000AF78607B68FB60F968074800F0E4FF38
:1090F000064B1B78012B02D1044B00221A7000BFD3
:109100001037BD4680BD00BF58AB0108904C00240D
:1091100080B500AFF8F7F2FA0346184680BD0000AC
:1091200080B58EB000AF786007F1240300221A608A
:109130005A609A60DA601A617B681B68614A9342E0
:1091400040F0BB80604BD3F8D8305F4A43F4004313
:10915000C2F8D8305C4BD3F8D83003F400433B62FC
:109160003B6A594BD3F8D830574A43F48033C2F89E
:10917000D830554BD3F8D83003F48033FB61FB690A
:10918000514BD3F8D830504A43F40033C2F8D830AA
:109190004D4BD3F8D83003F40033BB61BB694A4B65
:1091A000D3F8E030484A43F00403C2F8E030464BBD
:1091B000D3F8E03003F004037B617B69424BD3F8C2
:1091C000E030414A43F00103C2F8E0303E4BD3F8AF
:1091D000E03003F001033B613B693B4BD3F8E030E7
:1091E000394A43F00203C2F8E030374BD3F8E0309D
:1091F00003F00203FB60FB68334BD3F8E030324AE4
:1092000043F04003C2F8E0302F4BD3F8E03003F0D6
:109210004003BB60BB6832237B620223BB62002336
:10922000FB6203233B630B237B6307F12403194693
:109230002648FAF7AFFE86237B620223BB62002337
:10924000FB6203233B630B237B6307F12403194673
:109250001F48FAF79FFE4FF400637B620223BB6254
:109260000023FB6203233B630B237B6307F124038F
:1092700019461848FAF78EFE4FF4C0437B6202236A
:10928000BB620023FB6203233B630B237B6307F179
:10929000240319461048FAF77DFE002200213D20E4
:1092A000F8F757FB3D20F8F76EFB002200213E2027
:1092B000F8F74FFB3E20F8F766FB00BF3837BD4696
:1092C00080BD00BF008002400044025800080258E0
:1092D00000000258000402580018025880B500AF80
:1092E0000248FAF78BF80023184680BD544D00243D
:1092F00080B400AF00231846BD465DF8047B70477C
:1093000080B584B000AFF860B9607A607B68BA68F5
:10931000F9680748F9F7DCFD0346002B02D04FF04F
:10932000FF3300E0002318461037BD4680BD00BF64
:10933000544D002480B584B000AFF860B9607A6005
:109340007B68BA68F9680748F9F716FE0346002BF0
:1093500002D04FF0FF3300E0002318461037BD461F
:1093600080BD00BF544D002480B500AFF8F7C6F9AA
:109370000346184680BD000080B5A0B000AF7860FD
:1093800007F10C036422002118460BF0DDFB0023DB
:109390003B670023FB670023BB6700237B673A48DA
:1093A000F8F79FF838677B6893F82D309B0803F037
:1093B0000103DBB2002B0CD03B6F012B09DC3348DF
:1093C000F9F724FA786801F049F9786801F0ACF906
:1093D00055E07B6893F82D3003F00403002B4ED149
:1093E0003B6F012B4BDD3B6F023B032B2AD801A2C5
:1093F00052F823F0059400081794000827940008F9
:10940000379400084FF400537B674FF48043BB67E9
:109410000123FB6717E000237B674FF48043BB67A2
:109420000123FB670FE04FF400537B670023BB670A
:109430000123FB6707E000237B670023BB67012351
:10944000FB6700E000BFFB6F002B18D007F10C0397
:1094500019460E48F9F7E4FD7B6F7B62BB6F3B62F8
:1094600007F10C0319460948F9F7AEFF0748F9F769
:109470006BF9786801F086F8786801F021F900BF8F
:109480008037BD4680BD00BF3C4E0024544D0024B3
:1094900080B586B002AF7860124800F09FFDF8609A
:1094A000FB68002B14D0FB6803F120027B681A6074
:1094B000FB680D4A1A617B681B6840F2F452019206
:1094C0000093FB6841220021002001F0A1FB05E090
:1094D000064B01221A707B6800221A6000BF103709
:1094E000BD4680BD58AB0108DD900008904C0024BB
:1094F00080B48DB000AFF860B9607A607B80FB68A3
:10950000BB62BB687B620023FB627B68203BFB6223
:10951000FB6A00221A60FB6A00221A81FB6A7A88C1
:109520005A81BB6A1B68002B03D1BB6AFA6A1A60B6
:1095300003E07B6A1B68FA6A1A607B6AFA6A1A603F
:10954000BB6A1B68FB6209E0FB6A1A897B881344CB
:109550009AB2FB6A1A81FB6A1B68FB62FB6A002BEA
:10956000F2D17B887A683A62FB61FB69002B1DDDD2
:109570003B6A03F01F02FB691344BB613B6A7B61DA
:10958000BFF34F8F00BF0D4A7B69C2F85C327B6925
:1095900020337B61BB69203BBB61BB69002BF2DCE4
:1095A000BFF34F8F00BFBFF36F8F00BF00BF00BF7F
:1095B0003437BD465DF8047B704700BF00ED00E026
:1095C00080B483B000AF0346FB80FB881B021AB255
:1095D000FB881B0A9BB21BB213431BB29BB21846FB
:1095E0000C37BD465DF8047B704780B483B000AF94
:1095F00078607B681A067B681B0203F47F031A43BA
:109600007B681B0A03F47F431A437B681B0E1343DA
:1096100018460C37BD465DF8047B704780B489B0AE
:1096200000AF786039607B68FB610023FB81002319
:109630007B61FB6903F001033B613B69002B0DD0AB
:109640003B68002B0ADDFA69531CFB6107F10E032E
:10965000013312781A703B68013B3B60FB69BB61C8
:109660000AE0BB699A1CBA611B881A467B691344DD
:109670007B613B68023B3B603B68012BF1DC3B6854
:10968000002B04DD07F10E03BA6912781A70FB890A
:109690001A467B6913447B617B691A0C7B699BB218
:1096A00013447B617B691A0C7B699BB213447B6119
:1096B0003B69002B07D07B691B029AB27B691B0AAE
:1096C000DBB213437B617B699BB218462437BD46EE
:1096D0005DF8047B704780B582B000AF78600B46C0
:1096E0007B807B8819467868FFF798FF0346DB4349
:1096F0009BB218460837BD4680BD80B586B000AF26
:1097000078600023FB6000237B617B683B612BE07A
:109710003B695A683B695B8919461046FFF77EFF33
:1097200003461A467B6913447B617B691A0C7B698B
:109730009BB213447B613B695B8903F001039BB2DD
:10974000002B0ED0FB68002B0CBF01230023DBB2E3
:10975000FB607B691B029AB27B691B0ADBB2134375
:109760007B613B691B683B613B69002BD0D1FB6887
:10977000002B07D07B691B029AB27B691B0ADBB204
:1097800013437B617B699BB2DB439BB2184618375E
:10979000BD4680BD80B582B000AF00237B6000F085
:1097A000D5F800F0D7FB00F0FBFC07F01FF901F043
:1097B00077FE07F091F800BF0837BD4680BD000076
:1097C00080B483B000AF0346FB80054B1A68FB886A
:1097D000134418460C37BD465DF8047B704700BF44
:1097E000744E002480B483B000AF7860054B1B68D2
:1097F0007A68D31A9BB218460C37BD465DF8047BD5
:10980000704700BF744E002490B585B000AF7860FB
:10981000454B1B687A689A4206D2444B40F2DF12ED
:10982000434944480BF000F8434B1B687A689A425E
:1098300006D33E4B4FF4F07240493E480AF0F4FF25
:109840007B681B79002B06D0384B40F2E1123C4973
:1098500038480AF0E9FF7B681B88B3F5C86F06D962
:10986000324B4FF4F272374932480AF0DDFF7B6821
:109870001B881846FFF7A4FFF8607A68FB689A42D5
:1098800024D0FB681B79002B20D12B4B1B68FA6876
:109890009A421BD02C4B1B68FA689A4202D12A4A82
:1098A0007B681360FB681A887B681A80FB681B88DA
:1098B000B3F5C86F0AD0FB681B881846FFF780FF16
:1098C00004467868FFF78EFF034663807B685B88F9
:1098D0001846FFF775FFB860BA687B689A421FD0D8
:1098E000BB681B79002B1BD1174B1B687A689A4207
:1098F00002D1154ABB6813607B681A88BB681A805E
:109900007B681B88B3F5C86F0AD07B681B88184634
:10991000FFF756FF0446B868FFF764FF034663800D
:1099200000BF1437BD4690BD744E00248C800108E2
:10993000BC800108D4800108784E0024FC80010816
:1099400018810108348101087C4E002480B582B062
:1099500000AF164B164A1A60144B1B687B607B687D
:109960004FF4C8621A807B6800225A807B6800220C
:109970001A714FF4C860FFF723FF03460D4A1360C6
:109980000C4B1B6801221A710A4B1B684FF4C8620A
:109990001A80084B1B684FF4C8625A80034B1B683F
:1099A000054A136000BF0837BD4680BD744E0024D1
:1099B00000400430784E00247C4E002480B586B0F0
:1099C00000AF78607868FFF70DFF0346FB827B6885
:1099D0001B881846FFF7F4FE38617B685B881846E1
:1099E000FFF7EEFEF8607B681B88B3F5C86F18D8E8
:1099F0007B685B88B3F5C86F13D87B685B88FA8A8D
:109A00009A4204D0FB681B88FA8A9A4209D1084B13
:109A10001B683A699A4206D03B695B88FA8A9A4287
:109A200001D0002300E0012318461837BD4680BD51
:109A3000784E002480B584B000AF78607B68002B3E
:109A40004CD07B6803F00303002B07D0254B40F27A
:109A50007322254925480AF0E7FE40E07B68083B71
:109A6000FB60234B1B68FA689A4206D37B6803F1BC
:109A70000C02204B1B689A4207D91A4B40F27F22F6
:109A80001D491A480AF0D0FE29E0FB681B79002B1B
:109A900007D1144B4FF42372184914480AF0C4FE3E
:109AA0001DE0F868FFF78AFF0346002B07D10D4B36
:109AB00040F2952212490D480AF0B6FE0FE0FB680D
:109AC00000221A710F4B1B68FA689A4202D20D4AA3
:109AD000FB681360F868FFF797FE00E000BF1037DF
:109AE000BD4680BD8C80010860810108D4800108DA
:109AF000744E0024784E002484810108A08101085E
:109B0000C88101087C4E002480B588B000AF786021
:109B10000B467B807B8803339BB223F00303FB83DC
:109B2000FB8B0B2B01D80C23FB83FB8BB3F5C86F8E
:109B300003D8FA8B7B889A4201D20023CCE0684B91
:109B40001B687A689A4204D3664B1B687A689A420B
:109B500006D3654B40F2D122644965480AF064FEA1
:109B60005F4B1B687A689A4204D35E4B1B687A6825
:109B70009A4201D37B68AFE07B68083BBB61B86960
:109B8000FFF730FE0346FB82BB691A88FB8AD31AB3
:109B90009BB2083BBB82FA8BBB8A9A4206D9524BD6
:109BA0004FF43972534952480AF03EFEFA8BBB8A91
:109BB0009A4201D900238FE0FA8BBB8A9A4201D1E5
:109BC0007B6889E0BB691B881846FFF7F9FD38619F
:109BD0003B691B79002B3FD1BB691B88B3F5C86F6C
:109BE00006D1414B40F2F522434941480AF01CFEA0
:109BF0003B691B88BB81FA8AFB8B13449BB20833F9
:109C0000FB813E4B1B683A699A4206D1FB89184694
:109C1000FFF7D6FD0346394A1360FB891846FFF764
:109C2000CFFD38613B6900221A713B69BA891A80FD
:109C30003B69FA8A5A80BB69FA891A803B691B889A
:109C4000B3F5C86F47D03B691B881846FFF7B8FDCE
:109C50000246FB8953803EE0FB8B03F11402BB8A72
:109C60009A4238D8FA8AFB8B13449BB20833FB81A3
:109C7000BB691B88B3F5C86F06D11B4B40F2163287
:109C80001D491B480AF0D0FDFB891846FFF798FDD7
:109C900038611A4B1B683A699A4202D2174A3B69EB
:109CA00013603B6900221A71BB691A883B691A80EC
:109CB0003B69FA8A5A80BB69FA891A803B691B881A
:109CC000B3F5C86F07D03B691B881846FFF778FDCE
:109CD0000246FB8953807B6818462037BD4680BD0D
:109CE000744E0024784E00248C800108FC81010809
:109CF000D480010814820108348201087C4E0024BB
:109D000080B588B000AF0346FB80FB88002B01D1F3
:109D10000023D9E0FB8803339BB223F00303BB830A
:109D2000BB8B0B2B01D80C23BB83BB8BB3F5C86F4C
:109D300003D8BA8BFB889A4201D20023C4E0644B5B
:109D40001B681846FFF74EFD0346FB83B4E0FB8B10
:109D50001846FFF735FD78617B691B79002B40F0D1
:109D6000A4807B691B881A46FB8BD31AA3F10802D7
:109D7000BB8B9A42C0F099807B691B881A46FB8B8B
:109D8000D31AA3F10802BB8B14339A4233D3FA8B54
:109D9000BB8B13449BB208337B827B8AB3F5C86FBD
:109DA00006D14C4B40F287324B494C480AF03CFDFF
:109DB0007B8A1846FFF704FDF860FB6800221A71E1
:109DC0007B691A88FB681A80FB68FA8B5A807B696A
:109DD0007A8A1A807B6901221A71FB681B88B3F5A5
:109DE000C86F0BD0FB681B881846FFF7E9FC0246DA
:109DF0007B8A538002E07B6901221A71344B1B6815
:109E00007A699A4227D1324B1B68BB6105E0BB6976
:109E10001B881846FFF7D4FCB861BB691B79002B7F
:109E200004D02F4B1B68BA699A42F0D1284ABB690B
:109E30001360274B1A682A4B1B689A420BD0244B9D
:109E40001B681B79002B06D0224B40F2B532254906
:109E500022480AF0E9FCBA8B7B6913440833204A94
:109E60001268934206D91B4B40F2B9321E491B4877
:109E70000AF0DAFC7B6903F00303002B06D0154BD4
:109E800040F2BB32194915480AF0CEFC7B6903F059
:109E90000303002B06D00F4B40F2BD3214490F488C
:109EA0000AF0C2FC7B6908330EE0FB8B1846FFF713
:109EB00087FC03461B88FB83FA8BBB8BC3F5C86307
:109EC0009A42FFF444AF002318462037BD4680BDB8
:109ED0007C4E00248C80010834820108D480010863
:109EE000784E0024488201086482010894820108A7
:109EF000C482010880B485B000AF78607B689B683D
:109F000000221A607B685B68033323F00303BB60A5
:109F10000023FB6011E07B689B681A68BB681A60CD
:109F20007B689B68BA681A607B681B881A46BB68A6
:109F30001344BB60FB680133FB607B685B881A4697
:109F4000FB689342E7DB00BF00BF1437BD465DF8F6
:109F5000047B704780B582B000AF0023FB8009E02E
:109F6000FB88084A52F823301846FFF7C3FFFB88E6
:109F70000133FB80FB88082BF2D900BF00BF0837F4
:109F8000BD4680BDD0AB010880B584B000AF78601D
:109F90007B689B681B68FB60FB68002B12D07B68AA
:109FA0009B68FA6812681A60FB6803F00303002BD1
:109FB00006D0074B4FF48C72064907480AF034FC70
:109FC000FB6800E0002318461037BD4680BD00BF87
:109FD000E8820108188301083C83010880B582B03B
:109FE00000AF78607B68002B06D10A4B4FF49E725D
:109FF00009490A480AF018FC7B68002B01D10023AC
:10A0000003E07868FFF7C0FF034618460837BD46EF
:10A0100080BD00BFE8820108648301083C83010819
:10A0200080B584B000AF0346FB71FB79082B08D9DB
:10A030000A4B40F257120A490A480AF0F5FB00237E
:10A0400008E0FB79084A52F823301846FFF79CFFD6
:10A05000F860FB6818461037BD4680BDE8820108ED
:10A06000788301083C830108D0AB010880B584B037
:10A0700000AF786039603B6803F00303002B06D023
:10A080000A4B4FF4B6720A490A480AF0CDFB3B6806
:10A09000FB607B689B681A68FB681A607B689B683A
:10A0A000FA681A6000BF1037BD4680BDE88201081B
:10A0B000988301083C83010880B582B000AF7860C6
:10A0C00039607B68002B06D10A4B40F295120A4991
:10A0D0000A480AF0A9FB7B68002B07D03B68002BDD
:10A0E00004D039687868FFF7C1FF00E000BF083787
:10A0F000BD4680BDE8820108648301083C830108F5
:10A1000080B582B000AF03463960FB71FB79082B44
:10A1100007D90C4B4FF4D5720B490C480AF084FB5D
:10A120000CE03B68002B08D0FB79094A52F8233039
:10A1300039681846FFF79AFF00E000BF0837BD46B0
:10A1400080BD00BFE8820108B88301083C83010894
:10A15000D0AB010880B582B000AF78607B68002B7F
:10A1600005D10B4B99220B490B480AF05DFB7B682C
:10A170006C2283F82E207B686F2283F82F207B6867
:10A18000064A5A61002318460837BD4680BD00BF05
:10A19000D4830108088401082C84010889A80008D8
:10A1A00080B588B004AF0F4B7B600E4BFB60FF2384
:10A1B000BB603B1D07F1080207F10C010A48029041
:10A1C0000A48019000200090094800F013F8084860
:10A1D00000F076FA064800F0D5F900BF1037BD460A
:10A1E00080BD00BF7F0000019520010855A1000837
:10A1F000787D002480B586B000AFF860B9607A60E1
:10A200003B60FB68002B08D15A4B40F227125A4999
:10A210005A480AF009FB0023A8E07B6A002B08D10A
:10A22000544B4FF49472564954480AF0FDFA0023F7
:10A230009CE0BB68002B01D1524BBB607B68002BBC
:10A2400001D1504B7B603B68002B01D14D4B3B60F3
:10A25000FB6800225A60FB6800229A60FB680022BB
:10A26000DA60FB68484A5A61FB6800229A84FB68FE
:10A27000002283F82D20FB680022DA61FB680022AF
:10A280005A63FB6800229A63FB683A6A1A623F4B82
:10A290001A78FB6883F83020FB68BA6A1A613B6859
:10A2A0007A68B968F86800F013F97B6AF86898472B
:10A2B0000346002B01D0002358E0FB6893F83030B0
:10A2C000FF2B03D1FB68002283F8302000233B6181
:10A2D0002F4B1B687B612BE07A69FB689A4206D1A1
:10A2E000244B40F28B122B4924480AF09DFA3B691B
:10A2F00001333B613B69FF2B06DD1E4B40F28D12A3
:10A3000025491E480AF090FA7B6993F83020FB68D3
:10A3100093F830309A4208D1FB6893F8303001331B
:10A32000DAB2FB6883F8302005E07B691B687B614B
:10A330007B69002BD0D17B69002BBED1FB6893F8E1
:10A340003030FE2B03D1114B00221A7006E0FB685F
:10A3500093F830300133DAB20C4B1A700C4B1A6898
:10A36000FB681A600A4AFB681360FB6818461837D6
:10A37000BD4680BDD48301088C8401082C8401086B
:10A38000A884010834AC0108A7A80008747D002443
:10A390006C7D0024CC840108E084010880B582B083
:10A3A00000AF786039603968786802F0C1FB3968BD
:10A3B000786806F0A5FC00BF0837BD4680BD0000E8
:10A3C00080B586B000AFF860B9607A60BB68002BDA
:10A3D00006D11D4B40F2CB121C491D480AF024FA4D
:10A3E0007B68002B06D1184B4FF4E67217491848CA
:10A3F0000AF01AFABB681A68FB6804331B689A42B1
:10A400001CD0BB681B687B61FB6804331A687B68DF
:10A410001A6007F1140319467868FFF7BFFFBB689D
:10A42000002B02D0BB681B6800E00023FA68536071
:10A430000121F86800F0D2F8012300E0002318465B
:10A440001837BD4680BD00BFD483010810850108C0
:10A450002C84010880B485B000AFF860B9607A60E0
:10A46000BB681A68FB6808331B689A420AD0BB684D
:10A47000002B02D0BB681B6800E00023FA689360E1
:10A48000012300E0002318461437BD465DF8047B25
:10A49000704780B485B000AFF860B9607A60BB687F
:10A4A0001A68FB680C331B689A420AD0BB68002B01
:10A4B00002D0BB681B6800E00023FA68D360012368
:10A4C00000E0002318461437BD465DF8047B704752
:10A4D00080B588B000AFF860B9607A603B60002357
:10A4E000FB610023BB61BB68002B01D11C4BBB602F
:10A4F0007B68002B01D11A4B7B603B68002B01D19C
:10A50000174B3B60BB68002B03D0BB681B68002B5C
:10A5100001D1012300E000237B617B69002B06D081
:10A5200007F110031A46B968F868FFF749FFFA699E
:10A530007968F868FFF78EFFBA693968F868FFF73D
:10A54000A8FF7B69002B06D107F110031A46B968F2
:10A55000F868FFF735FF00BF2037BD4680BD00BF5C
:10A5600034AC010880B483B000AF7860044A7B68E3
:10A57000136000BF0C37BD465DF8047B704700BF19
:10A58000707D002480B582B000AF78607B68002BBE
:10A5900007D10F4B4FF454720E490F480AF044F99B
:10A5A00013E07B6893F82D3003F00103002B0CD1EE
:10A5B0007B6893F82D3043F00103DAB27B6883F8AF
:10A5C0002D200321786800F009F80837BD4680BDCA
:10A5D000D4830108808501082C84010880B582B0ED
:10A5E00000AF78600B46FB707B68002B06D1184BE0
:10A5F00040F26D32174918480AF016F97B6893F853
:10A600002D3003F00403002B1ED07B6893F82D300F
:10A6100003F00103002B17D0FB7803F00103002B9C
:10A6200013D07B6804331B68002B0ED07B6893F833
:10A630002D3003F00803002B07D07B680433194644
:10A64000786807F0C7FA00E000BF0837BD4680BD54
:10A65000D48301089C8501082C84010880B582B050
:10A6600000AF78607B68002B07D1124B40F29B3221
:10A67000114912480AF0D8F819E07B6893F82D3098
:10A6800003F00103002B12D07B6893F82D3023F0E8
:10A690000103DAB27B6883F82D207B6893F82D30B4
:10A6A00003F00803002B02D0786806F051FE08374B
:10A6B000BD4680BDD4830108C08501082C840108F3
:10A6C00080B582B000AF78607B68002B07D1134B58
:10A6D0004FF47872124913480AF0A6F81BE07B6821
:10A6E00093F82D3003F00403002B14D17B6893F80A
:10A6F0002D3043F00403DAB27B6883F82D20032168
:10A700007868FFF76BFF7B68DB69002B03D07B6801
:10A71000DB69786898470837BD4680BDD483010857
:10A72000E08501082C84010880B582B000AF786014
:10A730007B68002B07D1114B40F2064210491148AB
:10A740000AF072F817E07B6893F82D3003F00403E9
:10A75000002B10D07B6893F82D3023F00403DAB27D
:10A760007B6883F82D207B68DB69002B03D07B6836
:10A77000DB69786898470837BD4680BDD4830108F7
:10A78000048601082C84010880B483B000AF78608F
:10A7900039607B68002B02D07B683A68DA6100BFC1
:10A7A0000C37BD465DF8047B7047000080B586B06D
:10A7B00000AF786039607B68002B06D12D4B40F2EA
:10A7C0004B422D492D480AF02FF83B68002B06D14B
:10A7D000284B40F24C422A4928480AF025F83B68A9
:10A7E0001B894FF4207219460E2000F0E7F83861FB
:10A7F0003B69002B02D14FF0FF3337E039683869ED
:10A8000000F0D8FC0346FB7397F90F30002B05D0FE
:10A81000386900F0B7FB97F90F3027E03B697B619F
:10A8200002E07B691B687B617B691B68002BF8D1A8
:10A830007B685B6B002B12D07B689B6B002B06D177
:10A840000C4B40F277420F490C4809F0EDFF7B6852
:10A850009B6B3A691A607B687A699A6305E07B684A
:10A860003A695A637B687A699A63002318461837F5
:10A87000BD4680BDD4830108288601082C840108C8
:10A880004C8601086C86010880B584B000AFF86082
:10A89000B9607A60B968F868FFF788FF0346184620
:10A8A0001037BD4680BD80B485B000AFF860B96098
:10A8B0007A606FF00B0318461437BD465DF8047BD1
:10A8C0007047000080B485B000AF0346FB71FB7990
:10A8D000002B13D00D4B1B68FB600CE0FB6893F85A
:10A8E00030300133DBB2FA799A4201D1FB6806E0DD
:10A8F000FB681B68FB60FB68002BEFD10023184648
:10A900001437BD465DF8047B704700BF6C7D0024A2
:10A9100080B582B000AF0C4B00221A700B4B1B6845
:10A920007B600AE07B685B6F002B03D0786802F0E5
:10A930003DF905E07B68DB687B607B68002BF1D12B
:10A940000837BD4680BD00BFB47D0024C47D00240F
:10A9500080B400AF034B01221A7000BFBD465DF802
:10A96000047B7047B47D002480B485B000AFF860EC
:10A97000B96011461A460B46FB801346BB80FB6844
:10A9800000221A60FB68BA685A60FB68FA881A816C
:10A99000FB68BA885A813B8BDAB2FB681A73FB6892
:10A9A0003A7F5A73FB6801229A73FB680022DA73BC
:10A9B00000BF1437BD465DF8047B704780B58CB08E
:10A9C00002AF0346FB710B46BB8013467B80FB79CD
:10A9D0007B847B88B3F5207F7FD0B3F5207F00F3A5
:10A9E000C880B3F5C17F10D0B3F5C17F00F3C1803B
:10A9F000012B02D0412B40F0BC807A88BB881946DD
:10AA0000002000F0D1F87862BDE000237B620023D3
:10AA1000FB61BB887B830820FFF702FB38613B6941
:10AA2000002B09D1FFF794FF7B6A002B02D0786AD4
:10AA300000F0A8FA0023A7E07B8C03339BB223F03D
:10AA400003039BB2C3F514739BB27A8B934228BF66
:10AA50001346FB817B8C10333A691344033323F094
:10AA600003031846F9897A8B002301937B880093AE
:10AA70000B4601463869FFF777FF3B695B6803F0D7
:10AA80000303002B06D0424B4FF4807241494248E9
:10AA900009F0CAFE7B8C033323F00303B3F5147F64
:10AAA00006D13B4B4FF481723C493B4809F0BCFE58
:10AAB0007B6A002B02D13B697B6202E0FB693A6949
:10AAC0001A603B69FB617A8BFB89D31A7B83002375
:10AAD0007B847B8B002B9ED155E07B8C03339BB218
:10AAE00023F003039AB2BB8803339BB223F0030322
:10AAF0009BB213443B833B8B1033FB823A8BBB8866
:10AB0000033323F003039A4206D3FA8ABB88033344
:10AB100023F003039A4201D2002335E0FB8A184652
:10AB2000FFF7EEF878627B6A002B01D100232BE05F
:10AB30007B8C10337A6A1344033323F003031846E3
:10AB4000B988BA88002301937B8800930B4601469D
:10AB5000786AFFF709FF7B6A5B6803F00303002B49
:10AB600010D00B4B4FF491720D490B4809F05CFE6D
:10AB700008E0074B40F227120A49074809F054FE43
:10AB8000002301E000BF7B6A18462837BD4680BD20
:10AB90000C8701083C8701086C870108948701082D
:10ABA000C8870108F487010880B586B002AF7860D5
:10ABB0000B467B8013463B803B88412B09D03B886A
:10ABC000012B06D00F4B4FF4A5720F490F4809F027
:10ABD0002BFE0720FFF724FAF860FB68002B01D159
:10ABE00000230BE079887A88002301933B88009347
:10ABF0000B467968F868FFF7B7FEFB681846103710
:10AC0000BD4680BD0C870108108801086C870108CB
:10AC100080B588B002AF7B600346FB730B46BB81F7
:10AC200013467B81FB7B7B827B8A033323F0030209
:10AC3000BB891A44BB8C9A4201D9002318E03B6AB5
:10AC4000002B07D07B8A033323F003033A6A1344B3
:10AC50007B6101E000237B617868B989BA890223AE
:10AC600001937B8900930B467969FFF77DFE7B6832
:10AC700018461837BD4680BD80B584B000AF7860F7
:10AC80000B467B807B68002B06D13A4B4FF4CC728D
:10AC900039493A4809F0C8FD7B681B897A889A428D
:10ACA00063D27B681A897B88D31A3B817B887B813E
:10ACB0007B68FB6018E0FB685B897A89D31A7B812B
:10ACC000FB681A893B89D31A9AB2FB681A81FB6820
:10ACD0001B68FB60FB68002B06D1264B40F2AF12CD
:10ACE0002749264809F0A0FDFB685B897A899A42CA
:10ACF000E1D8FB681B7B03F00F03002B21D1FB681D
:10AD00005B897A899A421CD0FB685B7B03F0020363
:10AD1000002B16D1FB685A68FB68D31A9AB27B895C
:10AD200013449BB21946F868FEF7EEFEF860FB6824
:10AD3000002B06D10F4B40F2BD1212490F4809F00B
:10AD400073FDFB687A895A81FB685A89FB681A810E
:10AD5000FB681B68002B04D0FB681B68184600F0DA
:10AD600011F9FB6800221A6000E000BF1037BD46F1
:10AD700080BD00BF0C870108248801086C8701088A
:10AD80003C8801085488010880B586B000AFF8609F
:10AD9000B9601346FB71FB68002B06D12B4B40F2C8
:10ADA000DF122B492B4809F03FFDFB68002B03D035
:10ADB000BB68B3F5803F01D3012343E0BB68002BA0
:10ADC00001D100233EE0BB687B82FB681A897B8A45
:10ADD00013449BB27A8A9A4201D9012332E0FB687C
:10ADE0001B7B3B823B8A03F08003002B0CD0FB686B
:10ADF0005A68BB685B4213447B61FB6810337A6915
:10AE00009A420DD201231DE0FB79002B06D0FB688E
:10AE10005A68BB685B4213447B6101E0012311E087
:10AE2000FB687A695A60FB685A897B8A13449AB234
:10AE3000FB685A81FB681A897B8A13449AB2FB68C3
:10AE40001A81002318461837BD4680BD0C870108BB
:10AE5000708801086C87010880B582B000AF786007
:10AE60003960002239687868FFF78EFF034618467C
:10AE70000837BD4680BD000080B584B000AF786063
:10AE800039607B68002B06D1204B40F24B222049D1
:10AE9000204809F0C9FC7B68002B03D03B68B3F560
:10AEA000803F01D301232CE03B68002B01D100231C
:10AEB00027E03B68FB817B685B89FA899A4208D965
:10AEC000124B40F255221449124809F0ADFC0123FF
:10AED00017E07B685B68BB607B685A683B681A4414
:10AEE0007B685A607B685A89FB89D31A9AB27B685F
:10AEF0005A817B681A89FB89D31A9AB27B681A81B6
:10AF0000002318461037BD4680BD00BF0C870108DE
:10AF1000708801086C8701087C88010880B582B0C0
:10AF200000AF78600B467B8013467B70B7F9023028
:10AF3000002B08DAB7F902305B4219467868FFF750
:10AF40009BFF034607E0B7F902307A781946786824
:10AF5000FFF71AFF034618460837BD4680BD80B587
:10AF600082B000AF78600B467B80B7F902300122D7
:10AF700019467868FFF7D2FF034618460837BD46E2
:10AF800080BD000080B586B000AF78607B68002B84
:10AF90000BD17B68002B06D1384B4FF43772384900
:10AFA000384809F041FC002363E00023FB755CE0B6
:10AFB0007B689B7B002B06D1304B40F2F12232495B
:10AFC000304809F031FC7B689B7B013BDAB27B683F
:10AFD0009A737B689B7BBB75BB7D002B43D17B68E1
:10AFE0001B683B617B681B7B03F00F03FB737B6873
:10AFF0005B7B03F00203002B11D07B68BB60BB6856
:10B000001B69002B06D11D4B40F2FF221F491D4832
:10B0100009F00AFCBB681B69786898471DE0FB7B58
:10B02000022B04D179680820FFF76AF815E0FB7B52
:10B03000012B04D179680720FFF762F80DE0FB7B54
:10B04000002B03D17868FEF7F5FC06E00B4B40F2CD
:10B050000F320F490B4809F0E7FBFB7D0133FB750D
:10B060003B697B6001E000237B607B68002B9FD104
:10B07000FB7D18461837BD4680BD00BF0C87010810
:10B08000708801086C8701089C880108B488010851
:10B09000D888010880B485B000AF78600023FB81B8
:10B0A00005E0FB890133FB817B681B687B607B6863
:10B0B000002BF6D1FB8918461437BD465DF8047B9A
:10B0C0007047000080B582B000AF78607B68002BCD
:10B0D00010D07B689B7B0133DAB27B689A737B6804
:10B0E0009B7B002B06D1054B40F2423204490548B8
:10B0F00009F09AFB00BF0837BD4680BD0C870108E8
:10B10000EC8801086C87010880B584B000AF7860D6
:10B1100039607B68002B02D03B68002B07D1204BA5
:10B1200040F259321F49204809F07EFB34E07B6829
:10B13000FB600AE0FB681A893B681B8913449AB2DA
:10B14000FB681A81FB681B68FB60FB681B68002BAF
:10B15000F0D1FB681A89FB685B899A4206D0104BD4
:10B1600040F262321149104809F05EFBFB681B682F
:10B17000002B06D00A4B40F263320D490A4809F011
:10B1800053FBFB681A893B681B8913449AB2FB681E
:10B190001A81FB683A681A601037BD4680BD00BF4F
:10B1A0000C870108008901086C87010838890108AB
:10B1B0006889010880B586B000AF786039600023E7
:10B1C0007B6100233B617B68002B08D03B68002B30
:10B1D00005D07B681A893B681B899A4209D2574B74
:10B1E00040F2C9325649574809F01EFB6FF00F0371
:10B1F0009FE07B685B891A467B69D21A3B685B8952
:10B2000019463B69CB1A9A4206D33B685B891A46BA
:10B210003B69D31AFB6005E07B685B891A467B6952
:10B22000D31AFB607B685A687B69D0183B685A6800
:10B230003B691344FA68194609F017FD7A69FB68FF
:10B2400013447B613A69FB6813443B617B685B890B
:10B250001A467B69934206D9384B40F2D9323A49B3
:10B26000384809F0E1FA3B685B891A463B6993422A
:10B2700006D9324B40F2DA323449324809F0D4FA76
:10B280003B685B891A463B69934204D300233B61C8
:10B290003B681B683B607B685B891A467B6993420D
:10B2A00014D100237B617B681B687B607B68002B6B
:10B2B0000CD13B68002B09D0204B4FF47972244904
:10B2C000204809F0B1FA6FF00F0332E03B68002B21
:10B2D00013D03B685A893B681B899A420DD13B6861
:10B2E0001B68002B09D0154B40F2E932194915486B
:10B2F00009F09AFA6FF005031BE07B68002B13D06E
:10B300007B685A897B681B899A420DD17B681B68D0
:10B31000002B09D0094B40F2EE320E49094809F0E2
:10B3200083FA6FF0050304E03B68002B7FF461AF04
:10B33000002318461837BD4680BD00BF0C870108A2
:10B34000B48901086C870108E4890108FC890108B7
:10B35000188A0108288A010880B588B000AFF86013
:10B36000B96011461A460B46FB801346BB8000238A
:10B370007B830023FB82FB68002B08D12B4B40F220
:10B380000A422B492B4809F04FFA00234AE0BB68D8
:10B39000002B08D1254B40F20B422749254809F0E4
:10B3A00043FA00233EE0FB68FB6134E0BB88002BDE
:10B3B0000AD0FB695B89BA889A4205D3FB695B892D
:10B3C000BA88D31ABB8023E0FB695A89BB88D31A99
:10B3D0003B833A8BFB889A4201D9FB883B837B8B6A
:10B3E000BA68D018FB695A68BB8813443A8B19466F
:10B3F00009F03BFCFA8A3B8B1344FB827A8B3B8B34
:10B4000013447B83FA883B8BD31AFB800023BB80D9
:10B41000FB691B68FB61FB88002B02D0FB69002BDA
:10B42000C4D1FB8A18462037BD4680BD0C87010871
:10B43000548A01086C870108748A010880B584B0B9
:10B4400000AF03463A60FB710B46BB803B6819892D
:10B45000BA88FB791846FFF7B1FAF860FB68002B51
:10B4600001D1002311E03968F868FFF7A3FE034615
:10B47000FB7297F90B30002B06D0064B40F224529A
:10B480000549064809F0D0F9FB6818461037BD4653
:10B4900080BD00BF0C870108808B01086C87010804
:10B4A00080B500AF08F0FCF903469BB2C3F30D036F
:10B4B0009BB2A3F580439AB2014B1A8000BF80BDB6
:10B4C0002400002480B582B000AF78607B681B7DCB
:10B4D000012B05D1064BD4220649074809F0A4F9EF
:10B4E00079680120FEF70CFE00BF0837BD4680BD1D
:10B4F0000C8C01083C8C0108508C010880B582B08E
:10B5000000AF78607B681B7D012B05D1064BDF22E5
:10B510000649074809F088F979680220FEF7F0FD2E
:10B5200000BF0837BD4680BD0C8C0108788C01082F
:10B53000508C010880B500AF00F0A2FE074B1B78CD
:10B540000133DAB2054B1A70044B1B7803F0010388
:10B55000002B01D000F054FB00BF80BDCD7D002446
:10B5600080B584B000AF786039603B68002B05D1AE
:10B570000D4BFF220D490E4809F056F97B68FB6020
:10B580000AE0FB68DB6F3A689A4202D1FB6800224E
:10B59000DA67FB68DB68FB60FB68002BF1D100BF5A
:10B5A00000BF1037BD4680BD0C8C0108948C01088B
:10B5B000508C010880B584B000AF78607B68002BA8
:10B5C00006D1144B40F211121349144809F02CF91A
:10B5D0007B681B7D012B06D00E4B4FF489721049FE
:10B5E0000E4809F021F90123FB600BE00D4AFB68CE
:10B5F00052F823301B6879681846FFF7B1FFFB68E3
:10B600000133FB60FB68032BF0D900BF00BF10378C
:10B61000BD4680BD0C8C0108BC8C0108508C010813
:10B62000C88C01080CAC0108B0B588B004AF7860D4
:10B630000B46FB707B68002B06D1634B4FF4AF7257
:10B640006249634809F0F0F8FB78002B66D07B680C
:10B650001B7D042B03D07B681B7D072B5ED17B6891
:10B660009B6F002B04D17B681B8DB3F5066F55D003
:10B670007B685B8B03F01003002B06D1524B4FF419
:10B68000B2725449524809F0CFF87B68186D7B6854
:10B690005C6A7D687B6804337A68D28A7968098B32
:10B6A0000291019200932B4622460146786804F0ED
:10B6B00091FE786801F0C6F8474B1B687A689A4299
:10B6C00005D1454B1B68DB68434A136013E0424BCE
:10B6D0001B68FB600CE0FB68DB687A689A4204D167
:10B6E0007B68DA68FB68DA6005E0FB68DB68FB60B2
:10B6F000FB68002BEFD17B680022DA60374B012218
:10B700001A70374B1B687A689A4202D103F05EFDCB
:10B7100002E07868FFF7D6FE002350E07B681B7DCF
:10B72000022B3BD0022B44DC002B02D0012B2AD071
:10B730003FE07B68DB8A002B21D02A4B1B687A68AC
:10B740009A4205D1274B1B68DB68264A136013E039
:10B75000244B1B68BB600CE0BB68DB687A689A42CC
:10B7600004D17B68DA68BB68DA6005E0BB68DB6837
:10B77000BB60BB68002BEFD17B680022DA60786881
:10B78000FFF7A0FE1AE07868FFF714FF7968164803
:10B7900001F0A8F87868FFF7B1FE0FE079680E486D
:10B7A00001F0A0F80D4B01221A707868FFF78AFEAD
:10B7B00004E0786800F01AF8034600E00023184619
:10B7C0001037BD46B0BD00BF0C8C0108E08C0108ED
:10B7D000508C0108008D0108C47D0024CC7D00241C
:10B7E000047E0024BC7D0024C07D002480B584B08C
:10B7F00000AF78607B68002B06D12E4B4FF4CE72E1
:10B800002D492E4809F010F87B681B7D072B20D0AE
:10B81000072B2BDC032B02D0042B0DD026E07868FD
:10B8200003F0E6FE0346FB7397F90F30002B1FD1A0
:10B830007B6805221A751BE0786803F0D9FE034681
:10B84000FB7397F90F30002B14D17B6805221A7512
:10B8500010E0786803F0CCFE0346FB7397F90F30D5
:10B86000002B09D17B6809221A7505E000231CE032
:10B8700000BF02E000BF00E000BF97F90F30002BCF
:10B8800003D1786803F0F2FF0DE097F90F30B3F1C0
:10B89000FF3F08D17B685B8B43F008039AB27B685B
:10B8A0005A83002301E097F90F3018461037BD4640
:10B8B00080BD00BF0C8C0108BC8C0108508C0108B5
:10B8C00080B582B000AF78607B68002B09D10F4B48
:10B8D0004FF4F4720E490F4808F0A6FF6FF00F0303
:10B8E0000FE07B681B7D012B06D07B685B8B43F0F0
:10B8F00010039AB27B685A8301217868FFF794FE9F
:10B90000034618460837BD4680BD00BF0C8C0108B1
:10B910001C8D0108508C010880B58EB004AF786092
:10B9200039607B68002B07D1524B40F23D225249CF
:10B93000524808F079FF99E07B681B7D012B06D106
:10B940004C4B4FF410724E494C4808F06DFF7B6829
:10B950001B7D0A2B07D179684A4800F0C3FF78683D
:10B96000FFF7B0FD82E000237B6200237B847B68CD
:10B970001B6DBB617B685B6A7B617B68D3F8903031
:10B980003B617B681B69FB607B681B7D002B26D1BC
:10B990007B68DB8A002B2ED03B4B1B687A689A426F
:10B9A00005D1394B1B68DB68374A136013E0364B0F
:10B9B0001B68FB610CE0FB69DB687A689A4204D182
:10B9C0007B68DA68FB69DA6005E0FB69DB68FB61CC
:10B9D000FB69002BEFD17B680022DA600BE03B684B
:10B9E0007B627B68DB8A7B847968284800F07AFF79
:10B9F000274B01221A707B681B6F002B04D07B68D9
:10BA00001B6F184600F01CFD7B68DB6E002B04D01A
:10BA10007B68DB6E184600F013FD7B685B6F002BC4
:10BA200004D07B685B6F184600F00AFD7B6A002B30
:10BA30000ED079687B6804337A68128B02927A8C14
:10BA4000019200930B467A69B969786804F0C2FCE8
:10BA50007B681B7DFB727868FFF734FD3B69002B28
:10BA600004D03B696FF00C01F86898472837BD4651
:10BA700080BD00BF0C8C0108508D0108508C01085E
:10BA80006C8D0108C87D0024BC7D0024C47D002489
:10BA9000CC7D002480B582B000AF78600121786849
:10BAA000FFF73AFF00BF0837BD4680BD80B584B0C0
:10BAB00000AF78607B68002B06D1254B40F2A632A0
:10BAC0002449254808F0B0FE7B685B6A7A68128DCD
:10BAD0001344FB607B68DB6A7A68528EB2F5866F2E
:10BAE00028BF4FF4866292B21344FA68D31A002B2F
:10BAF00008DB7B681A8D7B685A857B68DB6AFA688D
:10BB0000D31A20E07B685A6A7B68DB6AD31A002B61
:10BB100003DD7B6800225A8514E07B68DA6A7B6863
:10BB20005B6AD31ABB60BB68B3F5803F06D3084B92
:10BB300040F2B6320949084808F076FEBB689AB26E
:10BB40007B685A85002318461037BD4680BD00BF6C
:10BB50000C8C0108688E0108508C01088C8E01083D
:10BB600080B584B000AF78600B467B807B68002B8B
:10BB700007D11F4B40F2CF321E491F4808F054FE38
:10BB800032E07B681B7D012B06D1194B40F2D2328B
:10BB90001A49194808F048FE7B681A8D7B881344BF
:10BBA000FB81FB89B3F5066F04D87B681B8DFA898E
:10BBB0009A4204D27B684FF406621A8502E07B68E1
:10BBC000FA891A857868FFF771FFB860BB68B3F52A
:10BBD000067F09D37B685B8B43F002039AB27B68D4
:10BBE0005A83786803F042FE1037BD4680BD00BF1F
:10BBF0000C8C0108A88E0108508C0108C08E010829
:10BC0000B0B590B004AF002387F82530944B1B6883
:10BC10000133934A1360934B1B780133DAB2914B93
:10BC20001A700023BB62904B1B68FB629DE2FB6AAB
:10BC30001B7D002B06D18D4B40F2BE428C498D48B6
:10BC400008F0F2FDFB6A1B7D012B06D1874B40F209
:10BC5000BF428949874808F0E7FDFB6A1B7D0A2B34
:10BC600006D1824B4FF498628449824808F0DCFD8B
:10BC7000FB6A9A7F7B4B1B789A4205D1FB6ABB62B9
:10BC8000FB6ADB68FB6270E2764B1A78FB6A9A7794
:10BC9000002387F82730002387F82630FB6A1B7DB6
:10BCA000022B0AD1FB6A93F84230052B05D997F88D
:10BCB0002730013387F827301EE1FB6A93F84230C2
:10BCC0000B2B05D997F82730013387F8273013E17C
:10BCD000FB6A93F89930002B75D0FB6A1B6F002B21
:10BCE00006D0624B40F2D4426549624808F09CFDA0
:10BCF000FB6ADB6E002B06D15C4B40F2D5426149FA
:10BD00005C4808F091FDFB6A93F89A300B2B05D93B
:10BD100097F82730013387F82730EDE0FB6A93F876
:10BD20009930013B584AD35C7B74FB6A93F8983096
:10BD30007A7C9A4207D9FB6A93F898300133DAB2D9
:10BD4000FB6A83F89820FB6A93F898307A7C9A42D1
:10BD500000F2D28001233B62FB6AB3F86030002B13
:10BD600008D1F86A04F02AFC0346002B14D0002303
:10BD70003B6211E0FB6AB3F860301946F86A03F0E1
:10BD8000EFFA0346002B07D1F86A03F06FFD034674
:10BD9000002B01D100233B623B6A002B00F0AC80FA
:10BDA000FB6A002283F89820FB6A93F89930062BEF
:10BDB00000F2A280FB6A93F899300133DAB2FB6A91
:10BDC00083F8992098E0FB6AB3F93030002B0FDB41
:10BDD000FB6AB3F9303047F6FF72934208D0FB6A32
:10BDE000B3F930309BB201339BB21AB2FB6A1A86A8
:10BDF000FB6AB3F93020FB6AB3F940309A427BDB2F
:10BE0000F86A04F027F80346002B07D0FB6A1B6F83
:10BE1000002B71D1FB6ADB6E002B6DD0FB6A1B7DA2
:10BE2000022B3AD0FB6A93F842300C2B28BF0C232C
:10BE3000FB76FB6AB3F93C30DB101BB21A46FB6A97
:10BE4000B3F93E301344FA7E10498A5C93407B611B
:10BE50007B6947F6FE7293421ADC7B691AB219E0DD
:10BE6000B87D0024CE7D0024C47D00240C8C010804
:10BE7000508F0108508C01087C8F0108A88F0108A1
:10BE8000D88F01080C90010804AC0108F4AB01083C
:10BE900047F6FF72FB6AA3F84020FB6A00221A866D
:10BEA000FB6AB3F86020FB6AB3F84830934228BFBE
:10BEB00013467B827B8A5B089AB2FB6AA3F84A200E
:10BEC000FB6AB3F84A20FB6A5B8E5B009BB29A4226
:10BED00006D2FB6A5B8E5B009AB2FB6AA3F84A202B
:10BEE000FB6A5A8EFB6AA3F84820FB6A0022A3F87B
:10BEF0006A20F86A04F01EF8FB6A1B7D062B11D13C
:10BF0000FB6A5B8B03F01003002B0BD09C4B1A6871
:10BF1000FB6A1B6AD31A282B04D997F82730013300
:10BF200087F82730FB6A5B7A03F00803002B4AD0BE
:10BF3000FB6A1B7D042B03D0FB6A1B7D072B42D1C0
:10BF40008F4B1A68FB6A1B6AD21AFB6AD3F89410EB
:10BF50008C4B0B448C49A1FB03135B099A420AD911
:10BF600097F82730013387F8273097F826300133C8
:10BF700087F8263027E0824B1A68FB6A1B6AD21AC0
:10BF8000FB6AD3F89410FB6A93F89B3018467F4BFA
:10BF900000FB03F30B447C49A1FB03135B099A42AA
:10BFA00011D9F86A04F0CAFA034687F8253097F9E0
:10BFB0002530002B07D1FB6A93F89B300133DAB2AE
:10BFC000FB6A83F89B20FB6A5B6F002B11D06C4BE4
:10BFD0001A68FB6A1B6AD21AFB6AB3F94030194629
:10BFE0000B465B000B445B009A4202D3F86A00F0F8
:10BFF000DDFDFB6A1B7D032B0BD1614B1A68FB6ACD
:10C000001B6AD31A282B04D997F82730013387F8F5
:10C010002730FB6A1B7D092B0BD1594B1A68FB6A31
:10C020001B6AD31AF02B04D997F82730013387F80D
:10C03000273097F82730002B60D0FB6AD3F8903078
:10C04000FB60F86A00F0FEFBBB6A002B10D0504B7F
:10C050001B68FA6A9A4206D14E4B40F26D524E4925
:10C060004E4808F0E1FBFB6ADA68BB6ADA600FE071
:10C07000474B1B68FA6A9A4206D0464B40F271520F
:10C080004749464808F0D0FBFB6ADB68404A13602A
:10C0900097F82630002B13D0FB6A186DFB6A5C6A98
:10C0A000FD6AFB6A0433FA6AD28AF96A098B029143
:10C0B000019200932B4622460146F86A04F08AF961
:10C0C000FB6A1B69BB60FB6A1B7DFB71FB6A3B6003
:10C0D000FB6ADB68FB623868FFF7F4F9314B00223A
:10C0E0001A70FB68002B04D0FB686FF00C01B86875
:10C0F00098472C4B1B78002B37D092E5FB6ABB622C
:10C10000FB6ADB68FB62BB6A1B7F0133DAB2BB6A86
:10C110001A77BB6A1A7FBB6A5B7F9A4225D3BB6AD8
:10C1200000221A771F4B00221A70BB6AD3F88C309A
:10C13000002B0BD0BB6AD3F88C30BA6A1269B96A8B
:10C1400010469847034687F8253002E0002387F819
:10C150002530144B1B78002B00D062E597F9253071
:10C16000002B02D1B86A03F081FBFB6A002B7FF43D
:10C170005EAD0023BB620C4B1B68FB6269E000BF35
:10C18000B87D0024B84C0A00D34D6210F824010099
:10C19000C47D00240C8C010844900108508C0108D7
:10C1A00070900108CC7D0024C87D0024FB6A1B7DB3
:10C1B0000A2B06D02B4B40F2A1522B492B4808F0FA
:10C1C00033FB002387F82730294B1A68FB6A1B6A68
:10C1D000D31AF02B04D997F82730013387F827308A
:10C1E00097F82730002B2FD0F86A00F02BFBBB6AA2
:10C1F000002B10D01F4B1B68FA6A9A4206D1194BCC
:10C2000040F2AF521C49194808F00EFBFB6ADA688D
:10C21000BB6ADA600FE0174B1B68FA6A9A4206D0D5
:10C22000104B40F2B3521549104808F0FDFAFB6A72
:10C23000DB68104A1360FB6AFB61FB6ADB68FB6228
:10C24000F869FFF73FF904E0FB6ABB62FB6ADB6851
:10C25000FB62FB6A002BA9D100BF00BF3037BD468F
:10C26000B0BD00BF0C8C01089C900108508C0108E7
:10C27000B87D0024C87D0024CC900108F49001080A
:10C2800080B582B000AF2D4B1B780133DAB22B4B57
:10C290001A702B4B1B687B6048E07B689A7F274BAA
:10C2A0001B789A423FD0254B1A787B689A777B6837
:10C2B0005B8B03F00103002B10D07B685B8B43F09A
:10C2C00002039AB27B685A83786803F0CFFA7B68DE
:10C2D0005B8B23F003039AB27B685A837B685B8B8A
:10C2E00003F00803002B09D07B685B8B23F0080365
:10C2F0009AB27B685A837868FFF778FA7B68DB68C4
:10C300003B607B689B6F002B0AD00E4B00221A709B
:10C31000786800F019F80B4B1B78002B00D0B8E7B9
:10C320003B687B6002E07B68DB687B607B68002B9E
:10C33000B3D100BF00BF0837BD4680BDCE7D00240D
:10C34000C47D0024CC7D002490B585B000AF78601A
:10C350007B68002B09D1374B40F2096236493748D8
:10C3600008F062FA6FF00F0360E07B689B6F5B7B05
:10C37000BB737B689B6FBB607B6800229A677B689E
:10C38000D3F88430002B0BD07B68D3F884407B68D3
:10C3900018690023BA687968A0470346FB7307E071
:10C3A0000023BA687968002000F0A4F80346FB7304
:10C3B00097F90F30002B2AD1BB7B03F02003002B11
:10C3C00033D07B681B8DB3F5066F05D07B681B8D62
:10C3D00001339AB27B681A857B68D3F88430002BCE
:10C3E0000BD07B68D3F884407B6818690023002257
:10C3F0007968A0470346FB7301E00023FB7397F9BC
:10C400000F3013F10D0F10D16FF00C030EE097F900
:10C410000F3013F10D0F02D16FF00C0306E07B68B3
:10C42000BA689A676FF0040300E0002318461437D7
:10C43000BD4690BD0C8C01081C910108508C010870
:10C4400080B584B000AF786007E07B681B68FB6054
:10C45000786800F00AF8FB687B607B68002BF4D1F9
:10C4600000BF00BF1037BD4680BD80B582B000AFB1
:10C4700078607B68002B0CD07B685B68002B04D055
:10C480007B685B681846FEF77DFD79680320FDF741
:10C4900037FE00BF0837BD4680BD000080B584B0C0
:10C4A00000AF78607B68002B06D10F4B40F28262B0
:10C4B0000E490F4808F0B8F90320FDF7B1FDF86008
:10C4C000FB68002B01D100230AE010227968F8688C
:10C4D00008F0CBFBFB685B681846FEF7F3FDFB68D2
:10C4E00018461037BD4680BD0C8C010860910108CC
:10C4F000508C010880B584B000AFF860B9607A60F4
:10C50000FB70BB68002B09D1124B4FF4D362124968
:10C51000124808F089F96FF00F0316E07B68002BD2
:10C5200009D07B681B891946B868FFF719FB786842
:10C53000FEF728FD08E097F90330002B04D1B86816
:10C54000FFF7BEF9034600E0002318461037BD464A
:10C5500080BD00BF0C8C01087C910108508C010843
:10C5600080B586B000AF0346FB7197F90730002B0A
:10C5700001DBFB7900E07F23FB72FB7A002B34D0D8
:10C58000FB7A013BFB720023FB6000233B61194BEC
:10C590001B687B611FE07B695B7DFA7A9A420CD84D
:10C5A0007B695B7DFA7A9A4212D1134B1A687B69D8
:10C5B0001B6AD31AFA689A420AD80F4B1A687B6929
:10C5C0001B6AD31AFB607B693B617B695B7DFB72F5
:10C5D0007B69DB687B617B69002BDCD13B69002BCD
:10C5E00004D03869FFF756FA00E000BF1837BD469F
:10C5F00080BD00BFC47D0024B87D002480B586B016
:10C6000000AF0346FB71FB79082B09D0FB79092B9E
:10C6100006D01A4B40F2DD6219491A4808F004F9B5
:10C620000023FB6000233B61174B1B687B6117E015
:10C630007B691B7DFA799A420FD1144B1A687B698A
:10C640001B6AD31AFA689A4207D8104B1A687B699A
:10C650001B6AD31AFB607B693B617B69DB687B618A
:10C660007B69002BE4D13B69002B03D000213869A2
:10C67000FFF752F900BF1837BD4680BD0C8C01088A
:10C6800098910108508C0108C47D0024B87D0024D5
:10C6900080B584B000AF00237B600023BB60124BE9
:10C6A0001B68FB6012E0114B1A68FB681B6AD31A07
:10C6B0007A689A4207D80D4B1A68FB681B6AD31A2E
:10C6C0007B60FB68BB60FB68DB68FB60FB68002B82
:10C6D000E9D1BB68002B02D0B868FFF7DBF900BFD7
:10C6E0001037BD4680BD00BFC87D0024B87D002442
:10C6F00080B582B000AF104B1B687B6014E07B6894
:10C70000DB683B607B685B8B03F00803002B09D080
:10C710007B685B8B23F008039AB27B685A83786846
:10C72000FFF764F83B687B607B68002BE7D100BFB4
:10C7300000BF0837BD4680BDC47D002480B584B0ED
:10C7400000AF0346FB710120FDF76AFCF860FB684F
:10C75000002B26D1FFF7CCFFFFF79AFF0120FDF752
:10C760005FFCF860FB68002B1BD10920FFF746FF38
:10C770000120FDF755FCF860FB68002B11D1082063
:10C78000FFF73CFF0120FDF74BFCF860FB68002B36
:10C7900007D1FB791846FFF7E3FE0120FDF740FCC7
:10C7A000F860FB68002B3FD09C220021F86808F05D
:10C7B000CBF9FB68FA795A75FB684FF48662A3F8E7
:10C7C0006420FB684FF406625A85FB685A8DFB684B
:10C7D0001A85FB68FF22DA72FB684FF406725A86EC
:10C7E000FB680622A3F84020FB680622DA87FB6874
:10C7F0004FF6FF721A86FB680122A3F848200D4B02
:10C800001A68FB681A620C4B1A78FB689A77FB6807
:10C810004FF48662A3F84A20FB68084AC3F88420D4
:10C82000FB68074AC3F89420FB6818461037BD46DA
:10C8300080BD00BFB87D0024CE7D0024F5C4000873
:10C8400000DD6D0080B582B000AF78607B68002BA2
:10C8500007D1214B40F651022049214807F0E4FF5F
:10C8600037E07B681B7D002B33D07B681B7D0A2B58
:10C870002FD07B681B7D012B2BD07B689B6F002BFF
:10C8800007D07B689B6F1846FEF77CFB7B68002215
:10C890009A677B685B6F002B02D0786800F086F99E
:10C8A0007B684FF6FF721A867B68DB6E1846FFF7CF
:10C8B000C7FD7B681B6F1846FFF7C2FD7B6800222F
:10C8C000DA667B68DA6E7B681A677B680022A3F8F9
:10C8D00068200837BD4680BD0C8C010858920108BD
:10C8E000508C010880B584B000AF786039603B6837
:10C8F000002B06D13E4B40F683023E493E4807F0EE
:10C9000093FF7B68002B06D1394B40F684023B49EC
:10C91000394807F089FF7B681B683A689A4205D15D
:10C920007B681B68DA687B681A6013E07B681B68A9
:10C93000FB600CE0FB68DB683A689A4204D13B6814
:10C94000DA68FB68DA6005E0FB68DB68FB60FB68BF
:10C95000002BEFD13B680022DA603868FFF772FFE6
:10C960003B681B7D0A2B13D03B681B7D012B0FD02E
:10C970003B685B8B03F00103002B09D03B685B8BAA
:10C9800043F002039AB23B685A83386802F06EFFA4
:10C990003B681B7D012B20D03B68DB6E002B06D053
:10C9A000134B40F693021649134807F03DFF3B68CE
:10C9B0001B6F002B06D00E4B40F6940211490E4817
:10C9C00007F032FF3B685B6F002B06D0084B40F648
:10C9D00096020D49084807F027FF3B6800221A75A8
:10C9E0003B680022DA8200BF1037BD4680BD00BF21
:10C9F0000C8C010874920108508C01089092010877
:10CA0000B0920108C8920108E492010880B582B092
:10CA100000AF78607B68002B06D10A4B40F6AF026E
:10CA200009490A4807F000FF094B1A68094B1B68BF
:10CA30001344074A1360064B1B6818460837BD4667
:10CA400080BD00BF0C8C0108FC920108508C0108CD
:10CA500028000024B87D002480B586B000AF0346CE
:10CA6000B9607A60FB817B68002B06D1144B40F6DD
:10CA7000C5021449144807F0D7FEBB68002B01D14A
:10CA8000FB8919E0BB689B8CFB82FB8A002B12D0D0
:10CA90002823BB82FA8ABB8A9A4204D9FA8ABB8AC3
:10CAA000D31A9BB200E000237B827A8AFB899342EF
:10CAB00028BF1346FB81FB8918461837BD4680BD49
:10CAC0000C8C010818930108508C010880B584B0C3
:10CAD00000AF786039603B68FB607B68002B19D140
:10CAE000104B4FF410621049104807F09DFE11E002
:10CAF000FB681A687B681B689A4208D1FB68DB6890
:10CB0000BB60F868FEF7C6FFBB68FB6002E0FB682D
:10CB1000DB68FB60FB68002BEAD100BF00BF103769
:10CB2000BD4680BD0C8C010840930108508C010863
:10CB300080B584B000AF786039607B68002B2AD064
:10CB40007B681B68002B26D0154B1B68194678683C
:10CB5000FFF7BCFF134B1B6819467868FFF7B6FF59
:10CB60003B68002B17D03B681B68002B13D00E4B83
:10CB70001B68FB600CE0FB681A687B681B689A42C4
:10CB800003D13B681A68FB681A60FB68DB68FB60CE
:10CB9000FB68002BEFD100BF1037BD4680BD00BF42
:10CBA000C47D0024BC7D0024C07D002480B582B0FB
:10CBB00000AF78607B685B6F002B07D07B685B6F92
:10CBC0001846FFF73DFC7B6800225A6700BF083714
:10CBD000BD4680BD90B58DB004AF786039607B688C
:10CBE000002B05D19B4B83229B499C4807F01CFEE0
:10CBF0007B685B689A4A13607B685B89132B40F201
:10CC0000D183984B5B69974A12681146184605F024
:10CC10004BFC0346002B40F0C783924B5B6903F04B
:10CC2000F003E02B00F0C0838D4B1B689B899BB207
:10CC30001846FCF7C5FC03461B0B9BB2DBB29B00FE
:10CC4000BB74BB7C132B40F2B183BB7C9AB27B6874
:10CC50001B899A4200F2AA83BB7C9BB2143B9AB216
:10CC6000814B1A80814B00221A607B685A89BB7CF9
:10CC70009BB29A4209D37C4B1A887D4B1A80BB7CAD
:10CC800019467868FEF7F8F84EE07B681B68002BC1
:10CC900005D1704BC2227749704807F0C5FD1421B9
:10CCA0007868FEF7E9F87B685A89714B1A806E4BF9
:10CCB0001A886F4B1B88D31A3B826D4B1B88194611
:10CCC0007868FEF7D9F87B681B685B893A8A9A42D4
:10CCD00000F26E837B681B685B68644A13607B6844
:10CCE0001B683A8A11461846FEF7C6F87B681A890F
:10CCF0003B8AD31A9AB27B681A817B685B89002BC6
:10CD000005D0544BDF225C49544807F08DFD7B6809
:10CD10001A897B681B681B899A4205D04D4BE0221B
:10CD200056494E4807F080FD4D4B1B681B889BB24F
:10CD30004B4A14681846FCF743FC03462380484BD3
:10CD40001B685B889BB2464A14681846FCF738FC9F
:10CD500003466380424B1B685B68414A146818466F
:10CD6000FCF743FC034663606368454A13603C4B31
:10CD70001B689B683A4A14681846FCF736FC034661
:10CD8000A360A3683F4A1360354B1B68DB899BB2E5
:10CD9000334A14681846FCF713FC0346E381304B12
:10CDA0001B689B899BB21846FCF70AFC0346DBB262
:10CDB00003F03F03DAB2344B1A707B681A89334BA5
:10CDC0001A80314B1B7803F00303002B0CD02F4B40
:10CDD0001B8801339AB22D4B1A807B681A892B4B22
:10CDE0001B889A4200F2E6820023BB61284B1B6835
:10CDF000FB619DE0FB691B7D002B05D1154BFB22E0
:10CE00002449164807F010FDFB691B7D0A2B05D14C
:10CE1000104BFC222049114807F006FDFB691B7DE1
:10CE2000012B05D10B4BFD221C490C4807F0FCFCE3
:10CE3000FB691B7A002B33D0FB691A7A094B5B68BC
:10CE400093F830300133DBB29A4229D0FB69BB61E1
:10CE50006BE000BF74930108A8930108C093010818
:10CE6000E07D00245C4E0024E47D0024E87D002465
:10CE7000E67D0024E8930108F89301080494010872
:10CE8000F07D0024F47D0024FC7D0024FA7D002444
:10CE9000C47D0024249401084C940108789401086E
:10CEA000FB691A8B724B1B681B889BB29A423AD162
:10CEB000FB69DA8A6E4B1B685B889BB29A4232D15F
:10CEC000FB695A686B4B1B699A422CD1FB691A6843
:10CED000684B5B699A4226D1FB69DB68FA699A4222
:10CEE00006D1654B40F20D126449654807F09CFC81
:10CEF000BB69002B0AD0FB69DA68BB69DA60614B59
:10CF00001A68FB69DA605F4AFB691360FB69DB68DA
:10CF1000FA699A4211D1584B40F215125A495848B1
:10CF200007F082FC09E0FB69BB61FB69DB68FB6120
:10CF3000FB69002B7FF45EAF00E000BFFB69002BB4
:10CF400040F0AA80514B1B68FB613FE0FB691B7DF1
:10CF50000A2B06D0484B40F21F124D49484807F0B3
:10CF600063FCFB691B7A002B09D0FB691A7A414BE1
:10CF70005B6893F830300133DBB29A4222D1FB690F
:10CF80001A8B3B4B1B681B889BB29A421BD1FB69D7
:10CF9000DA8A374B1B685B889BB29A4213D1FB69D4
:10CFA0005A68344B1B699A420DD1FB691A68314BA0
:10CFB0005B699A4207D1F86900F056FB7868FDF783
:10CFC000E1FFFDE100BFFB69DB68FB61FB69002B52
:10CFD000BCD10023BB612F4B1B687B612AE07B69BE
:10CFE0001B7A002B0CD07B691A7A224B5B6893F872
:10CFF00030300133DBB29A4202D07B69BB6116E06C
:10D000007B69DA8A1A4B1B685B889BB29A420CD107
:10D010007B691A68174B5B699A420FD07B69002BBA
:10D020000DD07B691B68002B09D07B69BB617B69D4
:10D03000DB687B617B69002BD1D100E000BF7B699D
:10D04000002B29D0BB69002B0AD07B69DA68BB6949
:10D05000DA60104B1A687B69DA600E4A7B691360EC
:10D06000786900F003FA7868FDF78CFFA8E100BF4B
:10D07000E07D00245C4E002474930108A094010814
:10D08000C0930108C47D0024CC940108C87D00240D
:10D09000F8940108C07D0024FB69002B00F0588142
:10D0A000954B00221A607B681A89934B1A81924A29
:10D0B0007B685360914B1B688F4AD360904B002272
:10D0C0001A60904B00221A708F4B00221A808F4BEF
:10D0D0001B7803F00803002B06D07B685B7B43F0D2
:10D0E0000103DAB27B685A73FB699B6F002B17D080
:10D0F000F869FFF729F9034613F10D0F07D0FB6913
:10D100009B6F002B0CD0824B1B88002B08D0FB6937
:10D110005B8D002B40F0E380F86903F0ADF9DEE0B1
:10D120007C4AFB691360F86900F018FB0346FB7446
:10D1300097F9133013F10D0F00F0D380714B1B786A
:10D1400003F00803002B15D0FB69D3F89030002BB7
:10D1500008D0FB69D3F89030FA6912696FF00D01BD
:10D1600010469847F9696C48FFF7BCFBF869FEF771
:10D17000A9F9DAE00023FB74634B1B88002B1DD058
:10D18000614B1B88FB81FB69D3F88030002B0AD0F0
:10D19000FB69D3F88030FA691069FA89F969984710
:10D1A0000346FB7401E00023FB7497F9133013F17D
:10D1B0000D0F00F09880544B00221A80F86900F09F
:10D1C00015F90346002B40F090804D4B1B68002B57
:10D1D00041D0FB699B6F002B06D0504B4FF4F3728C
:10D1E0004F49504807F020FBFB695B8B03F01003AD
:10D1F000002B08D0424B1B681846FDF7C3FEF869A8
:10D20000FEF748FC91E0FB69D3F88430002B0CD08A
:10D21000FB69D3F88440FB691869394B1A6800230D
:10D22000F969A0470346FB7408E0354B1A680023F0
:10D23000F9690020FFF75EF90346FB7497F9133094
:10D2400013F10D0F53D097F91330002B03D02C4B53
:10D250001A68FB699A672B4B1B7803F02003002B9D
:10D2600030D0FB699B6F002B09D0FB699B6F5A7B09
:10D27000FB699B6F42F02002D2B25A7322E0FB6935
:10D280001B8DB3F5066F05D0FB691B8D01339AB278
:10D29000FB691A85FB69D3F88430002B0BD0FB693E
:10D2A000D3F88440FB69186900230022F969A0477C
:10D2B0000346FB7401E00023FB7497F9133013F16C
:10D2C0000D0F16D0134B00221A60F86900F08EF88B
:10D2D0000346002B28D1F86902F0C8FA25E000BF08
:10D2E00023E000BF21E000BF1FE000BF1DE000BF42
:10D2F0001BE000BF19E000BFD07D0024E07D0024CA
:10D30000007E0024FD7D0024F87D0024FC7D0024A7
:10D31000FA7D0024047E0024C47D00247493010857
:10D3200028950108C093010800BF274B00221A600E
:10D33000264B00221A60264B5B68002B3FD0244B03
:10D340005B681846FDF71EFE214B00225A6036E04E
:10D35000204B1B689B899BB21846FCF731F90346AA
:10D36000DBB203F00403002B18D11B4B19681B4BD5
:10D370001B881A461A4B1B68D018164B1B685B8813
:10D380009BB2144A1268128892B202920193154B12
:10D390000093154B0246002003F01CF87868FDF757
:10D3A000F1FD0CE000BF06E000BF04E000BF02E0BA
:10D3B00000BF00E000BF7868FDF7E4FD00E000BFBB
:10D3C0002437BD4690BD00BF047E0024007E0024AB
:10D3D000D07D0024E07D0024F47D0024FA7D00242B
:10D3E000F07D00246C4E0024704E002480B582B085
:10D3F00000AF78607B68002B06D1174B40F25A22B1
:10D400001649174807F010FA164B1B7803F0100363
:10D41000002B1CD07B685B8B03F01003002B0DD11D
:10D420007B68D3F89030002B08D07B68D3F890301D
:10D430007A6812696FF00E011046984779680A48B9
:10D44000FFF750FA7868FEF73DF8012300E000236B
:10D4500018460837BD4680BD7493010844950108FD
:10D46000C0930108FD7D0024C47D002490B58BB0DD
:10D4700004AF78606F4B1B7803F00403002B40F07F
:10D48000D2807B68002B06D16B4B40F281226B4926
:10D490006B4807F0C9F9674B1B7803F01003002BAA
:10D4A00019D0684B1968684B1B881A46674B1B6874
:10D4B000D018674B1B685B889BB2654A126812885C
:10D4C00092B202920193634B0093634B02467868D9
:10D4D00002F080FFA9E0574B1B7803F00203002BFA
:10D4E00000F0A3807B685B7D1846FFF727F9786121
:10D4F0007B69002B11D17B689B69002B0AD07B686C
:10D500009B697A6810694FF0FF3200219847034603
:10D51000BB738BE0F023BB7388E0504B5A697B6987
:10D520001A604E4B1A697B695A607B68DA8A7B699C
:10D53000DA82474B1B681B889AB27B691A837B6926
:10D5400003221A75414B1B685A1C7B695A627B691E
:10D550005A6A7B69DA627869FFF758FA38617B6941
:10D560003A699A657B693A691A657B693A695A64CE
:10D570007B693A69DA65354B1B685A1E7B695A65C7
:10D580007B681A697B691A617B697A68DA677B68EC
:10D590005B7A03F00C03DAB27B695A727B681A7A01
:10D5A0007B691A722E4B1A687B69DA602C4A7B6998
:10D5B000136003F0D1F82B4B01221A70786901F047
:10D5C0008FFD234B1B68DB899AB27B69A3F860202F
:10D5D0007B69B3F860207B69A3F862207B695C8E6D
:10D5E0007B690433184604F0BBFC01467B690433B5
:10D5F0001A462046FFF730FA03461A467B695A86D8
:10D600001221786902F044F80346FB7397F90F3052
:10D61000002B04D000217869FEF77EF906E07869D6
:10D6200002F024F901E000BF00E000BF1C37BD4656
:10D6300090BD00BFFC7D0024749301086C95010827
:10D64000C0930108F47D0024FA7D0024F07D0024BD
:10D65000E07D00246C4E0024704E00245C4E0024BB
:10D66000C47D0024CC7D002480B586B004AF7860F2
:10D670002F4B1B7803F00403002B53D17B68002B46
:10D6800006D12C4B40F2EE222B492C4807F0CCF867
:10D69000274B1B7803F00203002B2AD0284B1A6873
:10D6A0007B685B6AD31A002B2DDB254B1A687B68DD
:10D6B0005B6A7968098D0B44D31A002B23DC214B5C
:10D6C0001968214B1B881A461D4B1B68D0181F4B2D
:10D6D0001B685B889BB21D4A1268128892B2029244
:10D6E00001931B4B00931B4B0246786802F072FEBD
:10D6F0001BE00F4B1B7803F00103002B03D0164BEC
:10D700001A687B681A62104B1B88002B0CD07B6850
:10D710005B8B43F002039AB27B685A83786802F00D
:10D72000A5F801E000BF00E000BF0837BD4680BD9E
:10D73000FC7D0024749301088C950108C0930108B6
:10D74000F07D0024F47D0024FA7D0024E07D002497
:10D750006C4E0024704E0024B87D002490B58DB02E
:10D7600004AF78600023FB760023BB767B68002B38
:10D7700006D19D4B4FF447729C499D4807F054F8E1
:10D780009C4B1B7803F00403002B4ED07B681B7D61
:10D79000022B08D17B681A6D974B1B689A4223D1E4
:10D7A0000123FB7620E07B685A6A944B1B689A42FF
:10D7B00002D10123FB7617E0904B1A687B685B6A05
:10D7C000D31A002B10DB8D4B1A687B685B6A796873
:10D7D000098D0B44D31A002B06DC7B685B8B43F06E
:10D7E00002039AB27B685A83FB7E002B1BD07B68B6
:10D7F0001B7D002B06D17C4B4FF44E7280497C4838
:10D8000007F012F87F4B1B7843F00803DAB27D4B28
:10D810001A707B685B8B23F001039AB27B685A8392
:10D820006FF00D037AE3002378E3724B1B7803F06B
:10D830000203002B10D07B681B7D022B0CD07B6871
:10D840001B7D032B08D07B685B8B43F002039AB2ED
:10D850007B685A83002361E37B685B8B03F01003D2
:10D86000002B03D1684B1A687B681A627B68002220
:10D8700083F89B207B68002283F89A20786801F067
:10D880002FFC7B681B7D023B072B00F2378301A234
:10D8900052F823F0B5D80008E5DA00085DDC00088E
:10D8A00087DC0008ABDD00085DDC000837DE00081F
:10D8B000C7DE00084F4B1B7803F01003002B00F06D
:10D8C000E4804C4B1B7803F00203002B00F0DD805A
:10D8D0007B685B6C5A1C484B1B689A4240F0D580B1
:10D8E000464B1B685A1C7B685A627B685A6A7B6885
:10D8F000DA62414B1A687B685A64444B1B68DB89C7
:10D900009AB27B68A3F860207B68B3F860207B68DC
:10D91000A3F86220394B1B685A1E7B685A657B68E6
:10D9200004221A757B685C8E7B680433184604F009
:10D9300017FB01467B6804331A462046FFF78CF834
:10D9400003461A467B685A867B685B8E9A007B6822
:10D950005B8E5B0041F21C118B4238BF0B469A4232
:10D9600004D27B685B8E9B009BB20DE07B685B8E74
:10D970005B0041F21C12934204D97B685B8E5B0012
:10D980009BB201E041F21C137A68A2F848307B6830
:10D99000B3F86630002B06D1134B4FF45B721C4971
:10D9A000134806F041FF7B68B3F86630013B9AB23A
:10D9B0007B68A3F866207B681B6FFB61FB69002B0B
:10D9C0002AD17B68DB6EFB61FB69002B06D1064B1D
:10D9D0004FF45D720F49064806F026FFFB691A688E
:10D9E0007B68DA661CE000BF74930108AC950108FF
:10D9F000C0930108FC7D0024F47D0024F07D002408
:10DA0000C8950108FD7D0024B87D0024E07D002438
:10DA1000E895010800960108FB691A687B681A6797
:10DA2000F869FEF722FD7B681B6F002B04D17B6831
:10DA30004FF6FF721A8606E07B6800221A867B6822
:10DA4000002283F842207B68D3F88830002B0AD06C
:10DA50007B68D3F888307A68106900227968984723
:10DA60000346BB7601E00023BB7697F91A3013F129
:10DA70000D0F02D16FF00C0350E27B685B8B43F01B
:10DA800002039AB27B685A833AE2984B1B7803F000
:10DA90001003002B00F03482954B1968954B1B88BE
:10DAA0001A46954B1B68D018944B1B685B889BB239
:10DAB000924A1268128892B202920193904B00939C
:10DAC000904B0246786802F085FC7B6893F8423000
:10DAD000052B00F215827B6800221A86786802F016
:10DAE00051FA0DE2814B1B7803F01003002B00F07C
:10DAF000A1807F4B1A687B685B6CD31A013B002BBB
:10DB00007EDB7B4B1A687B681B6DD31A002B77DC9E
:10DB10007B6804221A757B68DB6F002B02D1FA2325
:10DB2000BB761DE07B68DB6F9B69002B06D1764BD3
:10DB30004FF46A727549764806F076FE7B68DB6FB3
:10DB40009B69002B0AD07B68DB6F9B697A68106940
:10DB50000022796898470346BB7601E0F023BB7644
:10DB600097F91A30002B0AD097F91A3013F10D0FDC
:10DB700002D07868FDF78EFF6FF00C03CEE1786875
:10DB800000F0E0FA634B1B88002B05D0614B1B882B
:10DB9000013B9AB25F4B1A807B685B8E9A007B6870
:10DBA0005B8E5B0041F21C118B4238BF0B469A42E0
:10DBB00004D27B685B8E9B009BB20DE07B685B8E22
:10DBC0005B0041F21C12934204D97B685B8E5B00C0
:10DBD0009BB201E041F21C137A68A2F848304E4B28
:10DBE0001B7803F02003002B37D07B685B8B43F05E
:10DBF00002039AB27B685A837B6807221A752CE06D
:10DC00003B4B19683B4B1B881A463B4B1B68D01893
:10DC10003A4B1B685B889BB2384A1268128892B2F2
:10DC200002920193364B0093364B0246786802F01D
:10DC3000D1FB67E12D4B1B7803F00203002B00F0B2
:10DC400061817B685B6A5A1E2B4B1B689A4240F0CD
:10DC50005981786802F0B8F954E153E1786800F02E
:10DC600071FA2D4B1B7803F02003002B00F04C8140
:10DC70007B685B8B43F002039AB27B685A837B68B4
:10DC800007221A7540E1786800F05CFA224B1B7895
:10DC900003F02003002B71D0144B1B7803F010030A
:10DCA000002B60D07B681A6D114B1B689A425AD1C9
:10DCB0007B68DB6E002B56D17B685B8B43F00203E5
:10DCC0009AB27B685A837868FEF7BCFD134B1B68D9
:10DCD0007A689A4205D1114B1B68DB680F4A1360C2
:10DCE0002EE00E4B1B687B6127E000BFFC7D00240B
:10DCF000F47D0024FA7D0024F07D0024E07D0024E2
:10DD00006C4E0024704E0024749301081496010890
:10DD1000C0930108F87D0024FD7D0024C47D00240B
:10DD20007B69DB687A689A4204D17B68DA687B6930
:10DD3000DA6005E07B69DB687B617B69002BEFD1F2
:10DD40007B680022DA60774B01221A707B680A2216
:10DD50001A75754B1A687B68DA60734A7B681360C2
:10DD600002F0FAFCD2E07B685B8B43F002039AB2CC
:10DD70007B685A837B6808221A75C7E06B4B1B7857
:10DD800003F01003002B00F0C1807B681A6D684B14
:10DD90001B689A4240F0BA807B68DB6E002B40F033
:10DDA000B5807B6806221A75B0E0786800F0CAF981
:10DDB000604B1B7803F02003002B00F0A9807B68E8
:10DDC0005B8B43F002039AB27B685A837868FEF754
:10DDD00039FD594B1B687A689A4205D1564B1B682E
:10DDE000DB68554A136013E0534B1B683B610CE042
:10DDF0003B69DB687A689A4204D17B68DA683B69E0
:10DE0000DA6005E03B69DB683B613B69002BEFD1E1
:10DE10007B680022DA60434B01221A707B680A2279
:10DE20001A75414B1A687B68DA603F4A7B68136059
:10DE300002F092FC6CE0786800F084F93B4B1B78B0
:10DE400003F01003002B65D07B681A6D384B1B68FC
:10DE50009A425FD17B68DB6E002B5BD17868FEF75E
:10DE6000F1FC354B1B687A689A4205D1324B1B682E
:10DE7000DB68314A136013E02F4B1B68FB600CE03A
:10DE8000FB68DB687A689A4204D17B68DA68FB68D1
:10DE9000DA6005E0FB68DB68FB60FB68002BEFD114
:10DEA0007B680022DA601F4B01221A707B680A220D
:10DEB0001A751D4B1A687B68DA601B4A7B68136011
:10DEC00002F04AFC26E0786800F03CF9174B1B781A
:10DED00003F01003002B1FD07B681A6D144B1B68D6
:10DEE0009A4219D17B68DB6E002B15D1114B1B7840
:10DEF00043F01003DAB20F4B1A700DE000BF0CE0D4
:10DF000000BF0AE000BF08E000BF06E000BF04E079
:10DF100000BF02E000BF00E000BF00231846243726
:10DF2000BD4690BDCC7D0024C87D0024FC7D00242E
:10DF3000F47D0024FD7D0024C47D002490B585B0CF
:10DF400000AF786039607B68002B06D13B4B40F214
:10DF50001F423B493B4806F067FC7B68DB689B89B6
:10DF60009BB21846FBF72CFB0346DBB203F0010320
:10DF7000002B28D03868FEF763FA00233B6056E098
:10DF80003B68DB689B899BB21846FBF719FB03468D
:10DF9000DBB203F00103002B0DD07B68DB689B89AB
:10DFA0009CB20120FBF70CFB03461A467B68DB683A
:10DFB000224392B29A813B68FB603B681B683B60DE
:10DFC000F868FEF752FA3B68002B0ED07B681B897D
:10DFD0001A461D4B1B681A443B68DB685B6839684E
:10DFE00009890B44D31A002BCADA3B68002B1ED0D8
:10DFF0007B681B891A46144B1B681A443B68DB6814
:10E000005B68D31A002B12DD3B68DB685B689AB251
:10E010000D4B1B689BB2D31A9AB27B681A817B683E
:10E020005A687B681B8919461046FCF725FE7B68F9
:10E030003A681A6000BF1437BD4690BD749301085A
:10E0400034960108C0930108F07D0024B0B586B075
:10E0500000AFF860B9607A603B603EE0BB687B610E
:10E06000BB681B68BB607B695B681846FDF712F8EC
:10E0700003467B82FB68B3F866307A8A9A4206D9F7
:10E080002A4B40F257422A492A4806F0CDFBFB684A
:10E09000B3F866207B8AD31A9AB2FB68A3F866208D
:10E0A0007B691A89244B1B8813449AB2224B1A802D
:10E0B0007869FEF7DAF9FB68B3F86630002B0CD00C
:10E0C000BB68002B09D13B68002B06D1174B40F2EF
:10E0D00061421A49174806F0A7FBBB68002B20D005
:10E0E000BB68DB685B681846FBF77FFA0446BB68D1
:10E0F0001B891D46BB68DB689B899BB21846FBF7F2
:10E100005FFA0346DBB203F00303002B01D00123C7
:10E1100000E000232B44E218094B1B68D31A002BA4
:10E120009CDDBB6818461837BD46B0BD7493010826
:10E130005C960108C0930108F87D002484960108CC
:10E14000F47D0024B0B594B000AF78600023BB64C8
:10E150007B68002B06D1914B40F27B42904991485D
:10E1600006F062FB7B681B7D032B06D88B4B40F2CD
:10E170007C428D498B4806F057FB8C4B1B7803F093
:10E180001003002B00F064827B68B3F860301A46FD
:10E190007B689B6D13443B637B685A6D844B1B68A3
:10E1A000D31A002B1BDB7B685A6D814B1B689A428C
:10E1B00006D17B689A6D7F4B1B68D31A002B0EDB50
:10E1C0007B689A6D7B4B1B689A4225D17A4B1B6802
:10E1D000DB899AB27B68B3F860309A421CD9764BDF
:10E1E0001B68DB899AB27B68A3F860207B68B3F870
:10E1F00062207B68B3F860309A4205D27B68B3F83E
:10E2000060207B68A3F86220694B1A687B685A65B6
:10E21000684B1A687B689A65664B1A687B685B6C0A
:10E22000D31A002B58DC654B1B88002B4BD17B6825
:10E230009B6D7A68B2F8602013443A6B9A4242D1DF
:10E240007B68B3F93030002B3DDB7B685A6C594B4F
:10E250001B689A4237D10123BB647B6893F8433033
:10E26000FF2B07D07B6893F843300133DAB27B6829
:10E2700083F843207B6893F84330032B1BD97B68DA
:10E28000B3F848207B685B8E13449AB27B68B3F87E
:10E2900048309A420AD37B68B3F848207B685B8E8B
:10E2A00013449AB27B68A3F8482004E07B684FF6D9
:10E2B000FF72A3F848207B6893F84330022B02D901
:10E2C000786801F0EDFEBB6C002B40F061817B684B
:10E2D000002283F843205BE1364B1A687B685B6C55
:10E2E000D31A013B002BC0F24E81324B1A687B6877
:10E2F0001B6DD31A002B00F346817B685B8B03F008
:10E300000403002B10D07B685B8B23F004039AB2CC
:10E310007B685A837B68B3F84A207B68A3F848205F
:10E320007B680022A3F86A207B68002283F84220E1
:10E330007B68B3F93C30DB101BB29AB27B68B3F94F
:10E340003E309BB213449BB21AB27B68A3F84020C4
:10E35000184B1B689AB27B685B6C9BB2D31AFB8527
:10E360007B68002283F84320124B1A687B685A644A
:10E370007B681B7D032B40F297807B68B3F84820B5
:10E380007B68B3F84A309A4245D27B685B8B03F4D2
:10E390000063002B14D0012313E000BF7493010825
:10E3A000A4960108C0930108C0960108FC7D0024D2
:10E3B000F07D0024F47D0024E07D0024FA7D00241B
:10E3C000022387F82D3097F82D309AB27B685B8E48
:10E3D00012FB03F39BB2FA8D934228BF13467B8551
:10E3E0007B68B3F848207B8D13449AB27B68B3F8FE
:10E3F00048309A4209D37B68B3F848207B8D134498
:10E400009AB27B68A3F848204EE07B684FF6FF7213
:10E41000A3F8482048E07B68B3F86A20FB8D1344DA
:10E420009AB27B68B3F86A309A4209D37B68B3F832
:10E430006A20FB8D13449AB27B68A3F86A2004E03B
:10E440007B684FF6FF72A3F86A207B68B3F86A20F6
:10E450007B68B3F848309A4226D37B68B3F86A20C9
:10E460007B68B3F84830D31A9AB27B68A3F86A2065
:10E470007B68B3F848207B685B8E13449AB27B6854
:10E48000B3F848309A420AD37B68B3F848207B68D7
:10E490005B8E13449AB27B68A3F8482004E07B6843
:10E4A0004FF6FF72A3F848207B68196F7B68DB6E1C
:10E4B000984A7868FFF7CAFD02467B681A677B684E
:10E4C000D96E7B681B6F944A7868FFF7BFFD0246E0
:10E4D0007B68DA667B681B6F002B04D17B684FF684
:10E4E000FF721A8602E07B6800221A867B6800228F
:10E4F0001A777B68DB6E002B03D17B680022A3F8C0
:10E5000068207B68B3F86420844B1B8813449AB25C
:10E510007B68A3F864207B685B8B03F40063002BAB
:10E5200035D07B681B6F002B18D17B68DB6E002B0E
:10E530000CD07B68DC6C7B68DB6EDB685B68184644
:10E54000FBF753F80346E31A002B20DC7B685B8B58
:10E5500023F400639AB27B685A8318E07B68DC6C12
:10E560007B681B6FDB685B681846FBF73EF8034669
:10E57000E31A002B0BDC7B685B8B23F400639AB2FD
:10E580007B685A8303E0786801F076FF00E000BF03
:10E590007B685B6B002B5BD07B689A6B604B1B6866
:10E5A000D31A002B54DA5F4B1B689AB27B685B6B03
:10E5B0009BB2D31A9BB2A7F84E30B7F84E207B68B7
:10E5C000B3F93C30DB101BB29BB2D31A9BB2A7F855
:10E5D0004E307B68B3F93C309AB2B7F84E301344F2
:10E5E0009BB21AB27B689A87B7F94E30002B05DAD6
:10E5F000B7F84E305B429BB2A7F84E30B7F84E20CA
:10E600007B68B3F93E309B101BB29BB2D31A9BB20E
:10E61000A7F84E307B68B3F93E309AB2B7F84E3067
:10E6200013449BB21AB27B68DA877B68B3F93C303B
:10E63000DB101BB29AB27B68B3F93E309BB2134435
:10E640009BB21AB27B68A3F840207B6800225A6311
:10E65000354B1B88002B00F0E2847B681B7D062B6A
:10E6600000F2DD847B685A6A304B1B68D31A013B89
:10E67000002BC0F28F807B685A6A2B4B1B8819468F
:10E680002A4B1B680B44D31A0133002B00F3828002
:10E69000274B5B687B647B685A6A244B1B68D31AE0
:10E6A0007B62234B5B68002B06D1224B40F29452D5
:10E6B0002149224806F0B8F87B6A4FF6FE72934271
:10E6C00006D91C4B40F295521D491C4806F0ACF887
:10E6D0007B6AA7F84230164B5B681B89B7F842206B
:10E6E0009A4206D9134B40F297521649134806F046
:10E6F0009BF80F4B1A89B7F84230D31A9AB20C4BD9
:10E700001A810B4B5B681A89B7F84230D31A7B84A5
:10E710002AE000BFDC960108E4960108F87D002499
:10E72000F47D0024B87D0024FA7D0024F07D0024CF
:10E73000D07D002474930108EC960108C093010871
:10E74000FC9601080C9701087B6C5B89B7F84220A6
:10E75000D31AA7F842307B6C7A8C1A817B6C00222A
:10E760005A817B6C1B687B647B6C5B89B7F84220A9
:10E770009A42E9D8B7F842301946786CFCF77CFB2E
:10E780007B685B6A914A1360914BDB688F4A126821
:10E790005A600DE08D4B1A687B685B6AD31A002BB8
:10E7A00006DA7B685B8B43F002039AB27B685A837C
:10E7B000864B1A687B685B6AD31A002BC0F22A84E6
:10E7C000824B1A687B685B6A7968098D0B44D31A9F
:10E7D0000133002B00F31E847B685A6A7B4B1B6855
:10E7E0009A4240F09A827A4B1C89794BDB689B896C
:10E7F0009BB21846FAF7E4FE0346DBB203F00303CC
:10E80000002B01D0012300E0002323449AB2714B76
:10E810001A807B681A8D6F4B1B889A4275D26C4B9D
:10E82000DB689B899BB21846FAF7CAFE0346DBB247
:10E8300003F00103002B1FD0654BDB689B899BB263
:10E840001BB223F47C531CB2614BDB689B899BB2E7
:10E850001846FAF7B5FE0346DBB29BB203F03E035F
:10E860009BB21846FAF7ACFE03461BB223431AB21A
:10E87000574BDB6892B29A817B681A8D544B1A8190
:10E88000534BDB689B899BB21846FAF799FE034607
:10E89000DBB203F00203002B05D04D4B1B89013B7B
:10E8A0009AB24B4B1A814A4B5B68494A128911460E
:10E8B0001846FCF7E1F9464B1C89454BDB689B8900
:10E8C0009BB21846FAF77CFE0346DBB203F0030363
:10E8D000002B01D0012300E0002323449AB23D4BDA
:10E8E0001A803C4B1B881A46384B1B681A447B68BD
:10E8F0005B6A7968098D0B449A4206D0364B40F228
:10E90000CB523649364805F08FFF7B685B6F002B92
:10E9100000F0E7802E4BDB689B899BB21846FAF724
:10E920004FFE0346DBB203F00103002B10D00AE0D8
:10E930007B685B6FFB607B685B6F1A687B685A67FC
:10E94000F868FDF792FD7B685B6F002BF0D1C8E0A3
:10E950007B685B6FFB6352E0FB6BDB689B899BB260
:10E960001846FAF72DFE0346DBB203F00103002B35
:10E970003DD0174BDB689B899BB21846FAF720FE07
:10E980000346DBB203F00203002B30D1104BDB68EF
:10E990009B899CB20120FAF713FE03461A460C4BE2
:10E9A000DB68224392B29A81094B1C89084BDB68D1
:10E9B0009B899BB21846FAF703FE0346DBB203F0CD
:10E9C0000303002B0ED001230DE000BFF07D0024D7
:10E9D000D07D0024FA7D0024749301081C9701085F
:10E9E000C0930108002323449AB2984B1A80FB6B12
:10E9F0003B61FB6B1B68FB633869FDF736FDFB6B06
:10EA0000002B0ED0914B1B881A46914B1B681A4461
:10EA1000FB6BDB685B68F96B09890B44D31A002B2D
:10EA20009ADAFB6B002B59D0884B1B881A46884B0F
:10EA30001B681A44FB6BDB685B68D31A002B4DDD47
:10EA4000FB6BDB685B689AB2814B1B689BB2D31A85
:10EA50009AB2804B1A817F4BDB689B899BB2184628
:10EA6000FAF7AEFD0346DBB203F00203002B05D03C
:10EA7000784B1B89013B9AB2764B1A81754B5B68C8
:10EA8000744A128911461846FCF7F6F8714B1C8936
:10EA9000704BDB689B899BB21846FAF791FD0346E1
:10EAA000DBB203F00303002B01D0012300E00023BD
:10EAB00023449AB2654B1A80644B1B881A46644BF8
:10EAC0001B681A44FB6BDB685B689A4206D0624B9A
:10EAD00040F2FC526149624805F0A6FE7B68FA6B81
:10EAE0005A675A4B1B881A46594B1B681A447B6855
:10EAF0005A627B681A8D554B1B889A4206D2564B38
:10EB000040F207625749564805F08EFE7B681A8D21
:10EB10004E4B1B88D31A9AB27B681A857868FCF72B
:10EB2000C5FF4C4B5B681B89002B06D0494B5B68CB
:10EB30004D4A1360474B00225A60464BDB689B8965
:10EB40009BB21846FAF73CFD0346DBB203F0010323
:10EB5000002B00F0B880454B1B7843F02003DAB25D
:10EB6000424B1A70AFE07B685B6FBB607B685B6F8A
:10EB7000DB685B68364A1360BB681B891C46BB6850
:10EB8000DB689B899BB21846FAF71AFD0346DBB295
:10EB900003F00303002B01D0012300E000231A1926
:10EBA0007B685B6A1A447B685A627B681B8D1C46D3
:10EBB000BB681B891D46BB68DB689B899BB21846F6
:10EBC000FAF7FEFC0346DBB203F00303002B01D08F
:10EBD000012300E000232B449C4206D21E4B40F24E
:10EBE0002B6223491E4805F01FFEBB681B891C468B
:10EBF000BB68DB689B899BB21846FAF7E1FC0346C9
:10EC0000DBB203F00303002B01D0012300E000235B
:10EC100019197B681A8D8BB2D31A9AB27B681A8540
:10EC20007868FCF743FFBB685B681B89002B28D022
:10EC30000D4B1B68002B1DD00B4B1A68BB685B6823
:10EC400019461046FCF760FA18E000BFFA7D002470
:10EC5000F07D0024D07D00247493010854970108AE
:10EC6000C093010890970108007E0024FD7D0024D8
:10EC7000B0970108BB685B68704A1360BB680022EC
:10EC80005A60BB68DB689B899BB21846FAF798FC10
:10EC90000346DBB203F00103002B0DD0684B1B7859
:10ECA00043F02003DAB2664B1A707B681B7D042B9D
:10ECB00002D17B6807221A75BB681A687B685A679D
:10ECC000B868FDF7D2FB7B685B6F002B08D07B68D0
:10ECD0005B6FDB685A687B685B6A9A423FF443AFBC
:10ECE0007B685B8B03F00103002B0ED07B685B8B92
:10ECF00023F001039AB27B685A837B685B8B43F0F5
:10ED000002039AB27B685A8388E17B685B8B43F08D
:10ED100001039AB27B685A8380E17B685B6F002BAA
:10ED200006D14848FDF7BAFB02467B685A676DE199
:10ED300000237B637B685B6FBB6357E1BB6BDB6866
:10ED40005A68414B1B689A421DD13E4B1A89BB6BD6
:10ED50001B899A4240F24F813A48FDF79FFB786148
:10ED60007B69002B00F049817B6B002B03D07B6B10
:10ED70007A691A6002E07B687A695A67B96B7869C8
:10ED8000FFF7DCF839E17B6B002B17D12E4B1A68AB
:10ED9000BB6BDB685B68D31A002B57DA2948FDF799
:10EDA0007DFBB861BB69002B00F029817B68BA69E3
:10EDB0005A67B96BB869FFF7C1F820E1224B1A68AE
:10EDC0007B6BDB685B68D31A013B002B3EDB1E4B81
:10EDD0001A68BB6BDB685B68D31A0133002B35DC28
:10EDE0001848FDF75BFBF861FB69002B00F0098117
:10EDF0007B6BDB685B687A6B12891A44124B1B6869
:10EE0000D31A002B12DD104B1B689AB27B6BDB68A8
:10EE10005B689BB2D31A9AB27B6B1A817B6B5A6880
:10EE20007B6B1B8919461046FBF726FF7B6BFA6943
:10EE30001A60B96BF869FFF781F8E2E0007E002400
:10EE4000FD7D0024D07D0024F07D0024BB6B7B631E
:10EE5000BB6B1B68002B40F0C680804B1A68BB6BF5
:10EE6000DB685B68D31A002B40F3BD80BB6BDB68AB
:10EE70009B899BB21846FAF7A3FB0346DBB203F06B
:10EE80000103002B40F0BF807548FDF707FB0246E9
:10EE9000BB6B1A60BB6B1B68002B00F0B680BB6BB2
:10EEA000DB685B68BA6B12891A446C4B1B68D31A17
:10EEB000002B12DD694B1B689AB2BB6BDB685B6889
:10EEC0009BB2D31A9AB2BB6B1A81BB6B5A68BB6BED
:10EED0001B8919461046FBF7CFFE624B1B881A466A
:10EEE0005E4B1B681A447B685B6A7968098D0B442A
:10EEF000D31A002B40F38980BB6B1B68DB689B89AE
:10EF00009BB21846FAF75CFB0346DBB203F0010341
:10EF1000002B22D0BB6B1B68DB689B899BB21BB2AA
:10EF200023F47C531CB2BB6B1B68DB689B899BB2D0
:10EF30001846FAF745FB0346DBB29BB203F03E03EB
:10EF40009BB21846FAF73CFB03461BB223431AB2A6
:10EF5000BB6B1B68DB6892B29A817B685B6A9AB272
:10EF60007B681B8D134499B23C4B1B689AB2BB6BF8
:10EF70001B688A1A92B21A81BB6B1B685A68BB6BFA
:10EF80001B681B8919461046FBF776FEBB6B1B6896
:10EF90001C89BB6B1B68DB689B899BB21846FAF720
:10EFA0000FFB0346DBB203F00303002B01D0012368
:10EFB00000E0002323449AB22A4B1A80294B1B8875
:10EFC0001A46264B1B681A447B685B6A7968098D70
:10EFD0000B449A4219D0244B4FF4DF622349244852
:10EFE00005F022FC11E0BB6B1B68BB63BB6B002B05
:10EFF0007FF4A4AE0AE000BF08E000BF06E000BF57
:10F0000004E000BF02E000BF00E000BF786801F04C
:10F0100033FA03E0786801F02FFA1AE019E00F4B99
:10F020001A687B685B6AD31A002B0ADB0B4B1A68E1
:10F030007B685B6A7968098D0B44D31A0133002B16
:10F0400007DD7B685B8B43F002039AB27B685A83CF
:10F05000FFE700BF5037BD46B0BD00BFF07D0024C4
:10F06000D07D0024FA7D0024749301081C970108C8
:10F07000C093010880B483B000AF154B1B885A1CA5
:10F0800091B2134A1180FB80124B1B68002B04D0F5
:10F09000114B1B88FA889A4208D2104B1B68143314
:10F0A0003B60FB883A6813441B780BE0FB88DAB2BC
:10F0B000094B1B88DBB2D31A7B71064B1A687B792C
:10F0C00013441B7818460C37BD465DF8047B704727
:10F0D000EC7D0024E87D0024E67D0024E07D002412
:10F0E00080B584B000AF78607B68002B06D1324BCE
:10F0F00040F27D723149324805F096FB314B1B8856
:10F10000002B55D0304B00221A8045E0FFF7B2FFAC
:10F110000346FB73FB7B022B06D0022B2BDC002B60
:10F1200041D0012B27D137E0FFF7A4FF0346042B82
:10F130003BD1254B1B880133224A1288934234DA93
:10F14000FFF798FF03469BB21B02BB81FFF792FFBC
:10F1500003469AB2BB891343BB81BB89B3F5067FD3
:10F1600004D8BB89002B01D0BA8901E04FF40672A4
:10F170007B685A8610E0FFF77DFF0346FB72FB7A3F
:10F18000012B14D9FB7A9AB20F4B1B8813449BB204
:10F19000023B9AB20C4B1A800B4B1A88094B1B8806
:10F1A0009A42B3D304E000BF02E000BF00E000BF1A
:10F1B0001037BD4680BD00BF74930108D897010881
:10F1C000C0930108E47D0024EC7D002480B400AFEE
:10F1D000054B1B7843F01003DAB2034B1A7000BFE3
:10F1E000BD465DF8047B7047FD7D002480B584B08A
:10F1F00000AFF860B9607A60FB68002B0AD0FB684A
:10F200001B7A002B06D0FB681B7A1846FBF75AFBCB
:10F21000034603E0786802F0A3FE03461846103761
:10F22000BD4680BD90B587B000AFF860B9603B6067
:10F230001346FB71FB68002B05D1444BA3224449C4
:10F24000444805F0F1FABB68002B05D13F4BA422DE
:10F250004149404805F0E8FA97F828309B00DBB2B6
:10F2600003F00403FB750320FAF7DAFE38613B690B
:10F27000002B04D1B868FBF785FE002361E03B69F1
:10F2800097F828209A723B6900221A603B69BA6895
:10F290005A60BB681A89FB7D9BB29A4205D22B4B00
:10F2A000B0222E492B4805F0BFFABB681A89FB7DB6
:10F2B0009BB2D31A9AB23B691A811421B868FBF742
:10F2C000CBFD0346002B04D03869FDF7CEF80023B0
:10F2D00037E03B695B685A683B69DA60FB68DA8A49
:10F2E0003B69DC681046FAF76BF903462380FB683C
:10F2F0001A8B3B69DC681046FAF762F903466380B3
:10F300003B69DC683868FAF770F903466360FB7D97
:10F310009B08DBB29BB205339BB21B039AB2FB790D
:10F320009BB213439AB23B69DC681046FAF748F97E
:10F330000346A3813B69DB6800229A740022DA74D9
:10F340003B6918461C37BD4690BD00BFF4970108C5
:10F3500028980108489801087098010894980108B5
:10F3600090B58BB002AF78600B467B800023FB61C9
:10F3700000237B6100233B617B68002B06D1954B0A
:10F3800040F24B329449954805F04EFA7B68DB6EAB
:10F390007B617B69002B02D14FF0FF3316E17B8844
:10F3A000002B09D18B4B40F253328D498B4805F02D
:10F3B0003BFA6FF0050309E17B691B897A889A4261
:10F3C00001D3002302E17B685B8E7A889A4206D9DA
:10F3D000804B40F25B328349804805F025FA7B6917
:10F3E0001B89002B06D17B4B4FF457727E497B481B
:10F3F00005F01AFA7B699B7AFB73FB7B9B00DBB2FF
:10F4000003F00403BB737B691A897B88D31ABB8121
:10F41000BB7B9AB2BB8913449BB24FF4207219464E
:10F420003620FBF7CBFA38613B69002B00F0B78040
:10F430007B695B681A897B691B89D31A9AB27B88BE
:10F4400013447B817B6958683B695A68BB7BD11840
:10F450007B89BA89FBF780FF03461A46BB89934232
:10F4600040F09F807B69DB689B899BB21846FAF766
:10F47000A7F80346DBB203F03F03FB760023BB761D
:10F48000FB7E03F00803002B07D0FB7E23F008036C
:10F49000FB76BB7E43F00803BB76FB7E03F00103E3
:10F4A000002B07D0FB7E23F00103FB76BB7E43F0ED
:10F4B0000103BB767B69DB685B681846FAF795F851
:10F4C00002467B88D118BA7EFB7B00930B463969D4
:10F4D0007868FFF7A7FEF861FB69002B63D07B69B2
:10F4E0005B681846FBF7D6FD03461A467B68B3F8FF
:10F4F00066309B1A9AB27B68A3F866207B695868CD
:10F500007B695B681A89BB89D31A9BB21946FBF7E2
:10F51000B3FB7B691A89BB89D31A9AB27B691A81BA
:10F520007B69DB689B899CB2FB7E9BB21846FAF72D
:10F5300047F803461A467B69DB68224392B29A81F8
:10F540007B695B681846FBF7A5FD03461A467B6896
:10F55000B3F8663013449AB27B68A3F86620FB695F
:10F560005B681846FBF796FD03461A467B68B3F8BE
:10F57000663013449AB27B68A3F866207B691A68E8
:10F58000FB691A607B69FA691A60FB691B68002BCA
:10F5900003D17B680022A3F86820002316E000BF97
:10F5A00002E000BF00E000BFFB69002B06D0094B62
:10F5B0004FF476720D49094805F036F93B69002B86
:10F5C00002D03869FBF7DEFC4FF0FF3318462437D2
:10F5D000BD4690BDF4970108889B01084898010832
:10F5E000AC9B0108D09B0108E09B0108F09B01083F
:10F5F00090B585B000AF78607B68002B06D1214BB9
:10F6000040F2EB322049214805F00EF97B68DB6EB1
:10F61000002B2ED07B68DB6EFB6002E0FB681B6872
:10F62000FB60FB681B68002BF8D1FB68DB689B89DB
:10F630009BB21846F9F7C4FF0346DBB203F0070399
:10F64000002B16D1FB68DB689B899CB20120F9F77F
:10F65000B7FF03461A46FB68DB68224392B29A81E1
:10F660007B685B8B43F020039AB27B685A8300234C
:10F6700004E00121786800F00BF8034618461437BF
:10F68000BD4690BDF4970108FC9B0108489801080D
:10F6900080B58AB002AF78600B46FB700023FB7721
:10F6A0000023FB75FB7803F00303002B06D1674BA7
:10F6B00040F211426649674805F0B6F87B68002BB6
:10F6C00006D1624B40F213426349624805F0ACF840
:10F6D000FB7803F00203002B01D00123FB77FB7FB3
:10F6E0009B00DBB203F00403FB75FB7D9BB24FF480
:10F6F000207219463620FBF761F938613B69002B0F
:10F7000009D17B685B8B43F080039AB27B685A8394
:10F710004FF0FF3395E03B695A89FB7D9BB29A42DB
:10F7200006D24A4B40F239424C494A4805F07CF82F
:10F730007B68D96DFA78FB7F00930B46396978684E
:10F74000FFF770FDF860FB68002B09D17B685B8BCD
:10F7500043F080039AB27B685A834FF0FF3370E026
:10F76000FB68DB6803F00303002B06D0374B40F245
:10F7700042423B49374805F057F8FB681B89002B8C
:10F7800006D0324B40F243423649324805F04CF83D
:10F790007B68DB6E002B03D17B68FA68DA660DE0CC
:10F7A0007B68DB6EBB6102E0BB691B68BB61BB6948
:10F7B0001B68002BF8D1BB69FA681A607B680022CD
:10F7C000A3F86820FB7803F00203002B04D1FB7838
:10F7D00003F00103002B04D07B68DB6D5A1C7B68AF
:10F7E000DA65FB7803F00103002B06D07B685B8BA6
:10F7F00043F020039AB27B685A83FB685B68184623
:10F80000FBF748FC03461A467B68B3F8663013449E
:10F810009AB27B68A3F866207B68B3F86630002B49
:10F820000ED07B681B6F002B0AD17B68DB6E002B30
:10F8300006D1064B40F265420B49064804F0F4FF3E
:10F84000002318462037BD4680BD00BFF49701084D
:10F85000189C010848980108709C0108909C0108B8
:10F86000CC9C0108E49C0108109D0108B0B58AB049
:10F8700000AF78607B68002B06D18A4B40F2E142F2
:10F8800089498A4804F0D0FF7B681B7D012B06D193
:10F89000844B40F2E3428649844804F0C5FF854B1F
:10F8A0001B687A689A4201D10023CEE17B68B3F8E5
:10F8B00048207B68B3F86030934228BF13469BB260
:10F8C000BB617B68DB6E7B627B6A002B0BD17B6844
:10F8D0005B8B03F00203002B00F0AA81786800F034
:10F8E000CBFD0346B1E179687B6804331A4678683A
:10F8F000FFF77CFC78617B69002B02D16FF003037A
:10F90000A3E17B68002B03D07B681B68002B11D11F
:10F910007B69002B02D07B69043300E000233B614C
:10F920003B69002B02D16FF003038EE13B691A683B
:10F930007B681A607B6ADB685B681846F9F755FEDE
:10F9400002467B685B6CD31A7A6A12891344BA69DF
:10F950009A4227D27B68B3F860301A46BB6993425B
:10F9600014D17B681B6F002B10D17B6893F8993002
:10F97000002B0BD17B68002283F898207B68012242
:10F9800083F899207B68002283F89A207B685B8B40
:10F9900003F00203002B00F04D81786800F06CFD4D
:10F9A000034652E17B68002283F899207B681B6F35
:10F9B0003B623B6A002B00F01C8102E03B6A1B6843
:10F9C0003B623B6A1B68002BF8D112E17B6ADB6863
:10F9D0009B899BB21846F9F7F3FD0346DBB203F0AF
:10F9E0000403002B06D02F4B40F2365232492F48E9
:10F9F00004F01AFF7B681B6F002B1FD07B685B8BAA
:10FA000003F04403002B19D17B68DB6E002B0BD075
:10FA10007B68DB6E1B68002B10D17B68DB6E1A895C
:10FA20007B685B8E9A4209D27B68B3F86430002B06
:10FA300004D07B68B3F86630082B01D9012300E0BD
:10FA40000023002B06D17B685B8B03F0A003002B07
:10FA500000F0E4807B681B7D022B0DD07B6ADB68A5
:10FA60009B899CB21020F9F7ABFD03461A467B6ACE
:10FA7000DB68224392B29A817A697968786A00F0E9
:10FA800009F90346FB7397F90F30002B16D07B68FA
:10FA90005B8B43F080039AB27B685A8397F90F30EF
:10FAA000D3E000BFF4970108389D01084898010889
:10FAB000509D0108047E0024789D01087B6A1A6825
:10FAC0007B68DA667B681B7D022B06D07B685B8BCC
:10FAD00023F003039AB27B685A837B6ADB685B6816
:10FAE0001846F9F782FD04467B6A1B891D467B6A2E
:10FAF000DB689B899BB21846F9F762FD0346DBB2CF
:10FB000003F00303002B01D0012300E000232B446A
:10FB10002344BB607B681A6DBB68D31A002B02DAE2
:10FB20007B68BA681A657B6A1B891C467B6ADB683E
:10FB30009B899BB21846F9F743FD0346DBB203F0FD
:10FB40000303002B01D0012300E000232344002BFA
:10FB500049D07B6A00221A607B681B6F002B05D19D
:10FB60007B687A6A1A677B6A3B623FE07B6ADB6884
:10FB70005B681846F9F739FD04463B6ADB685B6849
:10FB80001846F9F732FD0346E31A002B24DA7B68A6
:10FB90007033FB6102E0FB691B68FB61FB691B685A
:10FBA000002B11D0FB691B68DB685B681846F9F70E
:10FBB0001CFD04467B6ADB685B681846F9F715FD97
:10FBC0000346E31A002BE6DBFB691A687B6A1A60BE
:10FBD000FB697A6A1A6009E03B6A7A6A1A603B6AD2
:10FBE0001B683B6202E0786AFCF73FFC7B68DB6ED7
:10FBF0007B627B6A002B12D07B6ADB685B681846ED
:10FC0000F9F7F3FC02467B685B6CD31A7A6A1289B7
:10FC10001344BA699A42BFF4D9AE00E000BF7B68D2
:10FC2000DB6E002B08D17B680022A3F8682004E07B
:10FC300000BF02E000BF00E000BF7B685B8B23F0E9
:10FC400080039AB27B685A83002318462837BD4642
:10FC5000B0BD00BF80B582B000AF78607B68002B7C
:10FC600006D1094B40F29A520849094804F0DCFDDC
:10FC70007B685B689B7B012B01D0012300E00023A4
:10FC800018460837BD4680BDF4970108909D0108CD
:10FC900048980108B0B58CB004AFF860B9607A60DC
:10FCA000FB68002B06D1644B4FF4B762634964488C
:10FCB00004F0BAFDBB68002B06D15F4B40F2B9528D
:10FCC00060495F4804F0B0FD7B68002B06D15A4BB9
:10FCD00040F2BA525C495A4804F0A6FDF868FFF7B2
:10FCE000B9FF0346002B01D00023A1E0BB685A6A8C
:10FCF000FB68DC681046F9F778FC0346A360BB6834
:10FD00005A8DFB68DC681046F9F75AFC0346E3811C
:10FD1000BB685B6ABA68528D1A44BB68DA62FB68DA
:10FD2000DB681433FB61FB689B7A03F00103002B53
:10FD300015D0BB6804331A4679684FF40670FCF797
:10FD40008BFE03467B837B8B43F001731846F9F7E8
:10FD50004CFC0246FB691A60FB690433FB61BB681B
:10FD6000B3F93030002B02DABB6800221A86BB6878
:10FD70005B6B002B0CD1354B1A68BB685A63FB6870
:10FD8000DB685B681846F9F730FC0246BB689A638B
:10FD9000FB68DA68FB685B685B68D31A3B83FB68C7
:10FDA0005B685989FB685B683A8B8A1A92B25A8100
:10FDB000FB685B681989FB685B683A8B8A1A92B2A8
:10FDC0001A81FB685B68FA68D2685A60FB68DB6876
:10FDD00000221A7400225A74FB68DA68FB689B7A66
:10FDE00003F00103002B01D0182300E01423134477
:10FDF000FA699A4206D0104B40F21C62144910482E
:10FE000004F012FDFB685868B968BB681C1DBB682C
:10FE1000DD7ABB689B7A7A6802920622019200938F
:10FE20002B46224602F05AFA0346FB7597F9173023
:10FE300018462037BD46B0BDF4970108B89D0108AB
:10FE400048980108D89D0108F89D0108B87D002454
:10FE50001C9E0108B0B584B000AF78607B68002BB1
:10FE600006D1314B40F263623049314804F0DCFC8A
:10FE70007B681B6F002B02D16FF0050350E07B689D
:10FE80001B6FFB600BE0F868FFF7E4FE0346002BF6
:10FE900002D06FF0050343E0FB681B68FB60FB6862
:10FEA0001B68002BEFD1F868FFF7D4FE0346002B48
:10FEB00002D06FF0050333E07B68DA6EFB681A60EE
:10FEC0007B681A6F7B68DA667B6800221A677B683A
:10FED0005B8B43F400639AB27B685A83FB68DB68F0
:10FEE0005B681846F9F781FB0446FB681B891D46D1
:10FEF000FB68DB689B899BB21846F9F761FB0346F8
:10FF0000DBB203F00303002B01D0012300E0002348
:10FF10002B44E2187B68DA647B6800225A63002372
:10FF200018461037BD46B0BDF4970108309E010851
:10FF30004898010880B582B000AF78607B68002BDC
:10FF400006D10D4B4FF4D3620C490D4804F06CFC04
:10FF50007B6893F84230FF2B07D07B6893F84230E0
:10FF60000133DAB27B6883F842207868FFF77EFCC1
:10FF700000BF0837BD4680BDF4970108549E0108B4
:10FF80004898010880B582B000AF78607B68002B8C
:10FF900006D10A4B40F2AD6209490A4804F044FC1C
:10FFA0007868FFF757FF0346002B02D17868FFF708
:10FFB000C1FF00BF0837BD4680BD00BFF4970108F0
:10FFC000789E01084898010890B585B000AF786028
:10FFD0007B68002B06D12F4B40F2C1622E492F487F
:10FFE00004F022FC7B681B6F002B02D16FF005032D
:10FFF0004CE07B681B6FBB60B868FFF72BFE0346C5
:020000040801F1
:10000000002B02D06FF0050340E0BB681A687B68E4
:100010001A677B686C33FB6002E0FB681B68FB605F
:10002000FB681B68002B11D0FB681B68DB685B68F2
:100030001846F9F7DAFA0446BB68DB685B681846CD
:10004000F9F7D3FA0346E31A002BE6DBFB681A68DC
:10005000BB681A60FB68BA681A60BB681B68002B33
:1000600003D17B680022A3F868207B6893F84230B4
:10007000FF2B07D07B6893F842300133DAB27B68FC
:1000800083F842207B6800225A6300231846143705
:10009000BD4690BDF4970108949E01084898010858
:1000A00080B582B000AF78607B68002B06D12A4B08
:1000B00040F2F96229492A4804F0B6FB7B681B6FBD
:1000C000002B45D07B685B8B03F00403002B3FD1F2
:1000D0007868FFF779FF0346002B39D17B68B3F8C6
:1000E00060207B68B3F84830934228BF13469BB228
:1000F000002B00DA01335B109AB27B68A3F84A2028
:100100007B68B3F84A301A467B685B8E5B009A4284
:1001100006D27B685B8E5B009AB27B68A3F84A20AC
:100120007B68B3F84A207B685B8E194649000B4414
:100130009BB213449AB27B68A3F848207B685B8B20
:1001400043F004039AB27B685A837B6800221A86C4
:1001500000BF0837BD4680BDF4970108AC9E01087A
:100160004898010880B586B000AFF8607B600B4608
:100170007B8113463B817A893B8913449BB21433BC
:100180009BB24FF4207219462220FAF717FC7861CF
:100190007B69002B4DD07B8913337A695289934256
:1001A00006DB264B40F223722549264804F03CFB2F
:1001B0007B695B683B613B8C1846F9F701FA0346A3
:1001C0001A463B691A80BB8C1846F9F7F9F90346C1
:1001D0001A463B695A803B697A685A60F868F9F7B1
:1001E00004FA02463B699A607B899B089BB20533FF
:1001F0009BB21B039AB297F828309BB213439BB271
:100200001846F9F7DDF903461A463B699A81BB8D1A
:100210001846F9F7D5F903461A463B69DA813B6976
:1002200000221A7400225A743B6900229A74002238
:10023000DA747B6918461837BD4680BDF49701080B
:10024000CC9E010848980108B0B58AB004AFF860A8
:100250007B600B467B8113463B81FB68002B06D1FC
:10026000154B40F242721549154804F0DDFAFB685F
:10027000586AFB68DB8AFA68128BF968498D3D89F8
:100280007C89039110210291019200937B682A4698
:100290002146FFF767FF78617B69002B06D0FB687A
:1002A0005B6AFA68528D1A44FB68DA627B69184609
:1002B0001837BD46B0BD00BFF4970108FC9E010889
:1002C0004898010880B588B000AFF860B960114661
:1002D0001A460B46FB711346BB710023FB83BB68B8
:1002E000002B06D1124B40F256721249124804F00C
:1002F0009BFABB685B68BB61BB6914337B61FB8B9A
:100300009B001A46FB799B0003F00403134414334B
:10031000BA6913447A699A4206D0054B40F2757265
:100320000649054804F080FA00BF2037BD4680BD6D
:10033000F4970108249F0108489801081C9E0108B1
:1003400080B58AB004AFF860B9607A603B60BB6882
:10035000002B06D11C4B40F287721C491C4804F04C
:1003600063FA3A687968F868FEF740FF38613B69DC
:10037000002B02D1FC23FB751CE0FB68002B06D090
:10038000FB68DB7ABB75FB689B7A7B7503E0FF2318
:10039000BB7500237B75BA7D3B69029306230193ED
:1003A0007B7D009313463A687968B86801F096FF40
:1003B0000346FB75B868FAF7E5FD97F9173018465C
:1003C0001837BD4680BD00BFF49701084C9F010857
:1003D0004898010890B58BB004AFF860B9607A60B6
:1003E0003B603B68002B06D11F4B40F2C4721F4993
:1003F0001F4804F019FABB6A002B06D11A4B40F2D1
:10040000C5721C491A4804F00FFA0023FB7546F226
:100410000803BB82FB7D9CB2B868F9F7E6F8024698
:10042000BB8A0393142302933B8E0193BB8D0093ED
:100430001346002221467868FFF794FE38613B6935
:10044000002B0CD0FB7D00223969F868FFF73AFFDA
:10045000BB6A3A683969F868FFF772FF00E000BFCD
:100460001C37BD4690BD00BFF4970108789F010876
:1004700048980108949F010890B587B000AF786054
:100480000023FB750023BB757B68002B06D1284B2E
:1004900040F2EA722749284804F0C6F9FB7D9B0028
:1004A000DBB203F004037B757B7D9CB27B681B6D24
:1004B0001846F9F79AF80346002221467868FFF7B4
:1004C000C3FE38613B69002B09D17B685B8B43F02D
:1004D00003039AB27B685A836FF0010323E0BB7D6C
:1004E000FA7D39697868FFF7EDFE7A687B68043336
:1004F00039697868FFF724FF0346FB7397F90F30DB
:10050000002B07D07B685B8B43F003039AB27B68B8
:100510005A8306E07B685B8B23F003039AB27B6807
:100520005A8397F90F3018461C37BD4690BD00BF5F
:10053000F4970108B09F01084898010890B587B06A
:1005400000AF78600023FB757B68002B06D1184B49
:1005500040F624021749184804F066F9FB7D9CB266
:100560007B681B6D013B1846F9F73FF803460022F4
:1005700021467868FFF768FE38613B69002B02D19D
:100580004FF0FF3310E0FB7D002239697868FFF7F8
:1005900099FE7A687B68043339697868FFF7D0FE82
:1005A0000346FB7397F90F3018461C37BD4690BDC4
:1005B000F4970108D09F01084898010890B58BB0C6
:1005C00000AF7860002387F827307B68002B06D1C6
:1005D0004C4B40F64F024C494C4804F025F97B68DF
:1005E000DB6E3B623B6A002B01D1002386E07B6817
:1005F00093F89A30FF2B07D07B6893F89A30013339
:10060000DAB27B6883F89A203B6ADB689B899BB2ED
:100610001846F8F7D5FF0346DBB203F00103002BC1
:1006200005D03B6A1B89002B01D1012300E0002388
:10063000FB77FB7F002B0CBF01230023DBB2BB83C6
:1006400097F8273099B23B6ADB685B68BA8B7868A9
:10065000FFF7FAFDB861BB69002B02D14FF0FF3301
:100660004CE0BB695B687B61FB7F002B11D07B6931
:100670009B899BB21BB223F47C531CB21120F8F768
:100680009FFF03461BB223431BB29AB27B699A8138
:1006900010E0BB695B6814333B613B6A58683B6A96
:1006A0005B681A893B6A1B89D31A9BB2012239699C
:1006B000FAF752FE3B6ADB685B681846F8F795FF6D
:1006C00003460133FB607B681A6DFB68D31A002B6D
:1006D00002DA7B68FA681A6597F827300022B96950
:1006E0007868FFF7EFFD7A687B680433B96978684A
:1006F000FFF726FE0346FB7297F90B3018462C379E
:10070000BD4690BDF4970108EC9F01084898010888
:1007100080B582B000AF7860FAF70CFF0A4B1B6817
:10072000002B03D1094B1B68002B05D00022084980
:10073000FA2000F0F3F803E0064B00221A6000BF35
:1007400000BF0837BD4680BDC47D0024C87D00249D
:1007500011070108107E002480B500AF0A4B1B680A
:10076000002B0FD1094B1B68002B03D1084B1B68D2
:10077000002B07D0044B01221A6000220549FA2001
:1007800000F0CCF800BF80BD107E0024C47D0024A2
:10079000C87D00241107010880B586B000AFF8605D
:1007A000B9607A600620F9F73BFC38613B69002BA1
:1007B00009D13B69002B51D12A4BBE222A492B4833
:1007C00004F032F84AE03B6900221A603B69BA68DB
:1007D0009A603B697A68DA603B69FA685A60244B30
:1007E0001B68002B03D1224A3B69136037E03B6949
:1007F0005A681F4B1B685B68D31ADB0F03F00103B9
:10080000DBB2002B07D01A4B1A683B691A60184AF2
:100810003B69136023E0164B1B687B611AE07B6920
:100820001B68002B0BD03B695A687B691B685B68AF
:10083000D31ADB0F03F00103DBB2002B07D07B6977
:100840001A683B691A607B693A691A6007E07B693C
:100850001B687B617B69002BE1D100E000BF18378A
:10086000BD4680BD10A0010844A0010884A0010875
:10087000087E002480B586B000AF78607B687B611D
:100880007B695B689847F8F743FC38617B691A68B5
:100890000F4B1B681344FB60FA683B69D31ADB0FEC
:1008A00003F00103DBB2002B09D07B691A683B69B6
:1008B00013447A6807491846FFF76EFF04E07A6828
:1008C0000449F868FFF768FF00BF1837BD4680BDD0
:1008D0000C7E00247508010880B582B000AF0123AA
:1008E0007B600EE00B4A7B6852F833007B68DB00CC
:1008F000084A13441A46084900F010F87B6801338F
:100900007B607B68022BEDD900BF00BF0837BD4676
:1009100080BD00BF1CAC01087508010880B586B019
:1009200000AFF860B9607A60FB68B3F1804F06D31E
:100930000A4B40F229120A490A4803F075FFF8F7FA
:10094000E7FB0246FB6813447B617A68B968786903
:10095000FFF722FF00BF1837BD4680BD10A0010879
:10096000ACA0010884A0010880B584B000AFF8F7FE
:10097000CFFBF8601A4B1B78DBB2002B01D0F9F7E4
:10098000C7FF184B1B68BB60BB68002B22D0BB683D
:100990005B68FA68D31ADB0F03F00103DBB2002BAC
:1009A0001AD1BB681B680F4A1360BB689B687B60E9
:1009B000BB68DB683B60BB685B680B4A1360B96867
:1009C0000620F9F79DFB7B68002BD3D07B68386845
:1009D0009847CFE700BF00E000BF1037BD4680BD9D
:1009E000B47D0024087E00240C7E002480B500AF76
:1009F00002F056FF03469BB2C3F30D039BB2A3F56F
:100A000080439AB2014B1A8000BF80BD2C000024A5
:100A100080B584B000AFF860B9601346FB71FB6825
:100A2000002B05D1274B87222749284803F0FCFEDD
:100A3000BB68002B05D1234B88222549234803F0AE
:100A4000F3FEFB681B7A002B0BD0FB681A7A214B54
:100A50005B6893F830300133DBB29A4201D0002357
:100A60002BE0FB79002B18D0FB68002B13D0FB6820
:100A70001B68002B0FD0174B5B69B3F1FF3F0AD007
:100A8000FB681A68134B5B695A40BB6808331B68E4
:100A90001340002B10D101230FE0FB68002B09D07D
:100AA000FB681B68002B05D0FB681A68094B5B6963
:100AB0009A4201D1012300E0002318461037BD46B9
:100AC00080BD00BFF8A0010828A101084CA10108C1
:100AD00074A101085C4E002490B58DB002AF78601F
:100AE00039600023FB767B68002B05D17C4BCF223D
:100AF0007C497D4803F098FE3B68002B05D1784B7C
:100B0000D0227A49784803F08FFE7B685B89072BF7
:100B100003D87868FAF736FADEE07B685B687B61B9
:100B2000734B5B69724A12681146184601F0BCFCAF
:100B30000346FB747B691B889BB21846F8F740FD9F
:100B400003463B827B695B889BB21846F8F738FD09
:100B50000346FB8100237B6200233B620023FB6191
:100B6000644B1B687B6254E07B6A5B8AFA899A4219
:100B70004AD1FB7C1A463968786AFFF749FF034679
:100B8000002B41D07B6A1B7C03F00403002B1DD19A
:100B9000FB69002B02D17B6AFB6117E0FB7C002B19
:100BA00014D0534B5B69B3F1FF3F0FD1FB691A6857
:100BB0003B6804331B689A4208D07B6A1A683B681A
:100BC00004331B689A4201D17B6AFB617B6A9B8A72
:100BD0003A8A9A4218D17B6A5B68002B05D07B6AFF
:100BE0005A68434B1B699A420ED13B6A002B14D0C2
:100BF0007B6ADA683B6ADA603E4B1A687B6ADA60C5
:100C00003C4A7B6A136008E07B6A3B627B6ADB6874
:100C10007B627B6A002BA7D100E000BF7B6A002BC0
:100C200001D1FB697B627B6A002B02D00123FB763A
:100C30000AE03B6804331A682D4B5B699A420CBF8B
:100C400001230023DBB2FB76FB7E002B41D0082181
:100C50007868FAF711F90346002B0AD0204B4FF4BD
:100C6000B8722549204803F0DFFD7868FAF78AF961
:100C700032E07B6A002B12D07B6A9B69002B0AD082
:100C80007B6A9C697B6AD8693B8A00931B4B7A68B4
:100C9000796AA04721E07868FAF774F91CE0FB7CD8
:100CA000002B12D1124B5B6903F0F003E02B0CD048
:100CB0000F4B9B8908339BB21BB219467868FAF731
:100CC0004EF90321786801F0B7F87868FAF75AF915
:100CD00003E07868FAF756F900BF2C37BD4690BD9F
:100CE000F8A001089CA101084CA10108B4A10108C9
:100CF0005C4E0024147E0024D0A101086C4E002418
:100D000080B485B000AF786039607B68002B1ED05E
:100D10007B681B68002B1AD03B68002B17D03B6800
:100D20001B68002B13D00D4B1B68FB600CE0FB68AD
:100D30001A687B681B689A4203D13B681A68FB6893
:100D40001A60FB68DB68FB60FB68002BEFD100BF1B
:100D50001437BD465DF8047B704700BF147E002445
:100D600080B582B000AF786015497A6813465B00A1
:100D70001344DB000B441B68002B13D010497A6826
:100D800013465B001344DB000B441B681846FAF75C
:100D9000F9F80B497A6813465B001344DB000B44F7
:100DA00000221A6006497A6813465B001344DB0090
:100DB0000B44143300221A7000BF0837BD4680BDB3
:100DC000187E002480B582B000AF00237B6096E0DF
:100DD0004F497A6813465B001344DB000B4414331D
:100DE0001B78FB70FB78002B00F0868048497A68FE
:100DF00013465B001344DB000B4412331B880133A2
:100E000098B243497A6813465B001344DB000B44F5
:100E1000123302461A803E497A6813465B00134437
:100E2000DB000B4412331B88B3F5967F15D238498B
:100E30007A6813465B001344DB000B4414331B78C1
:100E4000012B0ED132497A6813465B001344DB0054
:100E50000B4412331B88042B03D97868FFF780FFFB
:100E60004AE02B497A6813465B001344DB000B44CD
:100E700014331B78032B0AD125497A6813465B008B
:100E80001344DB000B44143304221A7034E020496D
:100E90007A6813465B001344DB000B4414331B7861
:100EA000042B0AD11A497A6813465B001344DB000D
:100EB0000B44143302221A701EE015497A68134657
:100EC0005B001344DB000B4414331B78012B13D15C
:100ED0000F497A6813465B001344DB000B44083368
:100EE00018687A6813465B001344DB00084A134411
:100EF0000433194600F06EFE7B6801337B607B682B
:100F0000092B7FF765AF00BF00BF0837BD4680BD26
:100F1000187E002480B58AB000AFF8600B467A6076
:100F2000FB720A23FB840A23BB840A237B840023ED
:100F30003B840A23FB830023BB8300237B830023A2
:100F40003B8300233B84AEE0B7F92020A64913463B
:100F50005B001344DB000B4414331B78FB75B7F9BB
:100F600022300A2B05D1FB7D002B02D13B8C7B84E8
:100F700095E0FB7D002B00F09280FB7D012B09D0DA
:100F8000FB7D012B06D8994B40F2231298499948D2
:100F900003F04AFCFB68002B20D0FB681968B7F906
:100FA0002020914813465B001344DB0003440433C4
:100FB0001B68994212D17B68002B0CD0B7F9202016
:100FC000894913465B001344DB000B4408331B685C
:100FD0007A689A4202D1B7F9203000E1FB7D012BFB
:100FE00040D1B7F92020804913465B001344DB0051
:100FF0000B441B68002B1AD0B7F920207A491346FE
:101000005B001344DB000B4412331B88BA8B9A42FB
:1010100045D83B8CFB83B7F92020734913465B000E
:101020001344DB000B4412331B88BB8337E0B7F952
:1010300020206D4913465B001344DB000B44123340
:101040001B887A8B9A422AD83B8CFB84B7F92020E4
:10105000654913465B001344DB000B4412331B88C5
:101060007B831CE0FB7D012B19D9B7F920205E4959
:1010700013465B001344DB000B4412331B883A8B8E
:101080009A420CD83B8CBB84B7F9202056491346B2
:101090005B001344DB000B4412331B883B833B8C07
:1010A00001339BB23B84B7F92030092B7FF74CAF5B
:1010B000FB7A03F00203002B08D1B7F922300A2B88
:1010C00007D1FB7A03F00103002B02D14FF0FF336D
:1010D00085E0B7F92230092B02DC7B8C3B8439E0B8
:1010E000B7F92430092B14DCBB8C3B84B7F92020E2
:1010F0003D4913465B001344DB000B441B68002B87
:1011000018D03A4B40F26D123B493A4803F08CFB41
:1011100010E0B7F92630092B02DCFB8C3B8409E098
:10112000B7F91E30092B02DCFB8B3B8402E04FF049
:10113000FF3354E0B7F92030092B06DD2B4B40F28A
:101140007F122E492B4803F06FFBB7F92030184669
:10115000FFF706FEB7F92030092B06DD234B40F2DE
:1011600083122649234803F05FFBB7F920201E496C
:1011700013465B001344DB000B4414331B78002B35
:1011800006D01A4B4FF4C2721D491A4803F04CFBAB
:10119000FB68002B0BD0B7F92020FB6819681248B8
:1011A00013465B001344DB00034404331960B7F9B2
:1011B00020200D4913465B001344DB000B4412331F
:1011C00000221A80B7F92020074913465B00134418
:1011D000DB000B4408337A681A60B7F920301846F0
:1011E0002837BD4680BD00BF187E00245CA40108DE
:1011F00094A40108D4A40108FCA4010814A50108C2
:1012000028A5010880B588B002AFF860B9607A609F
:10121000FB70FB6893F82C30062B06D0484B40F24D
:10122000A9124849484803F0FFFABB68002B12D0C6
:10123000BB681B68002B0ED0BB681B68F96818469A
:1012400001F032F90346002B05D1BB681B6803F09F
:10125000F003E02B02D16FF00F036CE0FB78FA682B
:101260001946B868FFF756FE0346FB82B7F91630F9
:10127000002B02DAFB8A5BB25DE0B7F91620334936
:1012800013465B001344DB000B44143302221A7034
:10129000B7F916202D4913465B001344DB000B44BD
:1012A0000833FA681A60B7F9162013465B00134436
:1012B000DB000833254A13440433062279681846B4
:1012C00003F0D3FCB7F91620204913465B00134402
:1012D000DB000B44123300221A80B7F916201B4999
:1012E00013465B001344DB000B441B68002B21D02A
:1012F000B7F91620154913465B001344DB000B4475
:101300001B683B61B7F91620104913465B00134474
:10131000DB000B4400221A60FB6803F126024FF445
:10132000006300937B683969F86801F0CBFF386986
:10133000F9F728FE002318461837BD4680BD00BFC8
:101340005CA4010854A50108D4A40108187E002457
:1013500080B584B000AF78600023FB601EE01349C5
:10136000FA6813465B001344DB000B4414331B780C
:10137000FB72FB7A002B0ED00C49FA6813465B0017
:101380001344DB000B4408331B687A689A4202D18D
:10139000F868FFF7E5FCFB680133FB60FB68092B8D
:1013A000DDDD00BF00BF1037BD4680BD187E0024C4
:1013B000B0B58AB004AF786039603B68002B07D1C4
:1013C0003D4B40F28A223D493D4803F02DFA6FE043
:1013D0007B685B683B613B691B889BB2B3F5807F90
:1013E0000CD13B691B79062B08D13B695B79042B37
:1013F00004D13B695B889BB2082B03D07868F9F76E
:10140000C1FD55E03B690E331B68FB603B69183337
:101410001B68BB603B6804331B68002B02D10023B0
:10142000FB7509E0BA683B6804331B689A420CBF3D
:1014300001230023DBB2FB753B6903F10802FB7D4E
:10144000002B01D0012300E0022307F10C013868D2
:10145000FFF7D8FE3B69DB889BB2B3F5807F03D0F2
:10146000B3F5007F1ED020E0FB7D002B1CD03B6835
:1014700003F126003B6903F108043B6803F12605EC
:101480003B6804333A6908320221039107F10C01E9
:101490000291019200932B4622460146386800F0E3
:1014A000EBFA01E000BF00E000BF7868F9F76AFDE1
:1014B0001837BD46B0BD00BF5CA40108ACA501084B
:1014C000D4A4010880B586B002AFF860B9601346B5
:1014D000FB71FA79444913465B001344DB000B446B
:1014E00014331B78012B06D8404B40F2EE224049C2
:1014F000404803F099F9FA793B4913465B001344DD
:10150000DB000B4414331B78022B53D1FA79364994
:1015100013465B001344DB000B4412331B88B3F506
:101520008E7F19D9FA7913465B001344DB002E4AEB
:10153000134404331946F86800F04CFB0346002BB3
:1015400038D1FA79284913465B001344DB000B4479
:10155000143303221A702DE0FA79234913465B00F5
:101560001344DB000B4412331B88B3F5877F21D370
:10157000FA7913465B001344DB001B4A1344191D20
:10158000FA7913465B001344DB000833164A134410
:1015900004331A46F86800F0FBFA0346002B09D121
:1015A000FA79114913465B001344DB000B441433F2
:1015B00003221A70FB6803F12601FA7913465B00D7
:1015C0001344DB000833084A134404334FF4006229
:1015D00000920A46B968F86801F074FE034618469E
:1015E0001037BD4680BD00BF187E00245CA40108F2
:1015F000CCA50108D4A4010880B58AB002AFF86078
:10160000B9607A607B68BB61FB68002B06D1734BC5
:1016100040F21E327249734803F006F9BB68002B92
:1016200006D16E4B40F21F326F496E4803F0FCF852
:101630007B68002B06D1694B4FF448726B496948AF
:1016400003F0F2F87B681B68F968184600F02CFF7D
:101650000346002B02D0664BFB61AFE07B681B6842
:1016600003F0F003E02B18D101233B7400237B74BB
:101670005E23BB747B6801331B7803F07F03DBB20E
:10168000FB747B6802331B783B757B6803331B78E4
:101690007B7507F11003FB6190E07B681A68FB68BB
:1016A00004331B685A40FB6808331B681340002B47
:1016B00012D07B681B689BB24FF6A96293420BD095
:1016C000FB680C331B68002B03D0FB680C33BB6139
:1016D00002E06FF003037DE0464B1B781946464A53
:1016E0000B465B000B44DB00134414331B78012BC7
:1016F00025D9404B1B7819463F4A0B465B000B44EB
:10170000DB00134408331B68FA689A4217D1BB699F
:101710001A68384B1B781846374903465B00034468
:10172000DB000B4404331B689A4208D1314B1B7811
:101730001A46B968F868FFF7C5FE03464AE0002379
:10174000FB7531E0FA7D2C4913465B001344DB0046
:101750000B4414331B78012B23D9FA7D26491346F9
:101760005B001344DB000B4408331B68FA689A42A1
:1017700017D1BB691968FA7D1F4813465B001344F3
:10178000DB00034404331B6899420AD1194AFB7DEC
:101790001370FB7D1A46B968F868FFF793FE03469D
:1017A00018E0FB7D0133FB75FB7D092BCAD9BA68B4
:1017B000B969F86800F022F803460BE0FB6803F112
:1017C00026024FF400630093FB69B968F86801F0E2
:1017D00079FD034618462037BD4680BD5CA401084C
:1017E000ACA50108D4A40108FCA501089CA501082A
:1017F00038AC0108087F0024187E002480B58CB026
:1018000002AFF860B9607A60FB6826337B61FF2322
:1018100087F8273000233B62BB681B68F9681846CD
:1018200000F042FE0346002B0CD1BB681B6803F09E
:10183000F003E02B06D0BB68002B03D0BB681B680D
:10184000002B02D16FF00F0301E1FA680121B868A3
:10185000FFF760FB03467B82B7F91230002B02DAF8
:101860007B8A5BB2F3E07B8A7E2B06D97A4B40F20F
:10187000C1327A497A4802F0D7FF7B8A7B747A7C3E
:10188000784913465B001344DB000B4414331B7888
:10189000002B15D101233B627A7C724913465B0011
:1018A0001344DB000B44143301221A707A7C6D4917
:1018B00013465B001344DB000B440833FA681A60DC
:1018C0007A7C684913465B001344DB000B441433F5
:1018D0001B78012B11D07A7C624913465B001344BC
:1018E000DB000B4414331B78012B06D85A4B40F213
:1018F000CD325D495A4802F097FF3B6A002B02D176
:101900007B68002B0CD1B968F86800F063F90346D6
:1019100087F827307B68002B02D197F9273096E0B3
:101920007B68002B06D14C4B40F2E1324F494C48CA
:1019300002F07AFF7A7C4B4913465B001344DB00CC
:101940000B4414331B78012B17D9494A7B7C137045
:101950007A7C13465B001344DB000833414A13448E
:1019600004334FF4006200927A697968F86801F0F4
:10197000A9FC034687F8273067E07A7C394913468B
:101980005B001344DB000B4414331B78012B5CD148
:101990000023BB617B68FB611CE0FB695A89FB6922
:1019A0001B899A420AD1FB691B68002B06D02A4B7F
:1019B00040F2F1322F492A4802F036FFFB691B7BC7
:1019C00003F04003002B02D00123BB6105E0FB695B
:1019D0001B68FB61FB69002BDFD1BB69002B07D0C3
:1019E0007A684FF420710E20F9F728FDF86104E0C1
:1019F0007B68FB61F869F9F765FBFB69002B21D077
:101A00007A7C184913465B001344DB000B441B68C7
:101A1000002B0AD07A7C134913465B001344DB0089
:101A20000B441B681846F9F7ADFA7A7C0D4913464A
:101A30005B001344DB000B44FA691A60002387F84B
:101A4000273002E0FF2387F8273097F92730184620
:101A50002837BD4680BD00BF5CA4010808A6010868
:101A6000D4A40108187E002418A60108FCA50108CA
:101A7000087F002440A6010880B58AB002AFF86054
:101A8000B9607A603B600023FB77FB68002B06D1CE
:101A90003A4B40F257423A493A4802F0C5FE4FF4F9
:101AA00020721C210E20F8F789FFB861BB69002B5A
:101AB00002D14FF0FF335DE0BB695B891B2B06D879
:101AC0002E4B40F2624230492E4802F0ADFEBB6917
:101AD0005B687B61BB8E1846F7F772FD03461A46BA
:101AE0007B69DA80FB6893F82C30062B06D0234BF9
:101AF00040F269422549234802F096FE7B6908338B
:101B000006223968184603F0B0F87B6912330622C2
:101B1000F96A184603F0A9F87B690E33BA6A1268AD
:101B20001A607B6918333A6B12681A607B6900226D
:101B30001A70002242F001025A707B69002242F0C2
:101B400008029A700022DA707B6906221A717B699A
:101B500004225A7140F6060300937B68BA68B9699B
:101B6000F86801F0AFFBB869F9F70CFA0023BB6124
:101B700097F91F3018462037BD4680BD5CA4010888
:101B8000ACA50108D4A401085CA6010890A6010830
:101B900080B588B004AFF860B9607A60FB6803F183
:101BA0002601FB6803F12600FB680433012203923F
:101BB000BA680292064A0192009303467A68F8686E
:101BC000FFF75AFF034618461037BD4680BD00BFD9
:101BD00040AC010880B582B000AF78603960054A3A
:101BE00039687868FFF7D4FF034618460837BD46C2
:101BF00080BD00BF38AC010880B58EB004AF7860FE
:101C00003960874B9B687B627B6A1B7803F00F030C
