
LWIP.elf:     file format elf32-littlearm

Sections:
Idx Name          Size      VMA       LMA       File off  Algn
  0 .isr_vector   00000298  08000000  08000000  00010000  2**0
                  CONTENTS, ALLOC, LOAD, READONLY, DATA
  1 .text         00017d34  080002a0  080002a0  000102a0  2**4
                  CONTENTS, ALLOC, LOAD, READONLY, CODE
  2 .rodata       000030f4  08017fd8  08017fd8  00027fd8  2**3
                  CONTENTS, ALLOC, LOAD, READONLY, DATA
  3 .ARM          00000008  0801b0cc  0801b0cc  0002b0cc  2**2
                  CONTENTS, ALLOC, LOAD, READONLY, DATA
  4 .init_array   00000004  0801b0d4  0801b0d4  0002b0d4  2**2
                  CONTENTS, ALLOC, LOAD, DATA
  5 .fini_array   00000004  0801b0d8  0801b0d8  0002b0d8  2**2
                  CONTENTS, ALLOC, LOAD, DATA
  6 .data         000001f8  24000000  0801b0dc  00030000  2**2
                  CONTENTS, ALLOC, LOAD, DATA
  7 .bss          00007e6c  240001f8  0801b2d4  000301f8  2**2
                  ALLOC
  8 ._user_heap_stack 00006004  24008064  0801b2d4  00038064  2**0
                  ALLOC
  9 .ARM.attributes 0000002e  00000000  00000000  000301f8  2**0
                  CONTENTS, READONLY
 10 .comment      00000043  00000000  00000000  00030226  2**0
                  CONTENTS, READONLY
 11 .debug_info   00028030  00000000  00000000  00030269  2**0
                  CONTENTS, READONLY, DEBUGGING, OCTETS
 12 .debug_abbrev 000062cf  00000000  00000000  00058299  2**0
                  CONTENTS, READONLY, DEBUGGING, OCTETS
 13 .debug_aranges 00001988  00000000  00000000  0005e568  2**3
                  CONTENTS, READONLY, DEBUGGING, OCTETS
 14 .debug_rnglists 0000143b  00000000  00000000  0005fef0  2**0
                  CONTENTS, READONLY, DEBUGGING, OCTETS
 15 .debug_macro  000445fd  00000000  00000000  0006132b  2**0
                  CONTENTS, READONLY, DEBUGGING, OCTETS
 16 .debug_line   00031524  00000000  00000000  000a5928  2**0
                  CONTENTS, READONLY, DEBUGGING, OCTETS
 17 .debug_str    0016fe3a  00000000  00000000  000d6e4c  2**0
                  CONTENTS, READONLY, DEBUGGING, OCTETS
 18 .debug_frame  000079ec  00000000  00000000  00246c88  2**2
                  CONTENTS, READONLY, DEBUGGING, OCTETS
 19 .debug_line_str 00000066  00000000  00000000  0024e674  2**0
                  CONTENTS, READONLY, DEBUGGING, OCTETS

Disassembly of section .text:

080002a0 <__do_global_dtors_aux>:
 80002a0:	b510      	push	{r4, lr}
 80002a2:	4c05      	ldr	r4, [pc, #20]	; (80002b8 <__do_global_dtors_aux+0x18>)
 80002a4:	7823      	ldrb	r3, [r4, #0]
 80002a6:	b933      	cbnz	r3, 80002b6 <__do_global_dtors_aux+0x16>
 80002a8:	4b04      	ldr	r3, [pc, #16]	; (80002bc <__do_global_dtors_aux+0x1c>)
 80002aa:	b113      	cbz	r3, 80002b2 <__do_global_dtors_aux+0x12>
 80002ac:	4804      	ldr	r0, [pc, #16]	; (80002c0 <__do_global_dtors_aux+0x20>)
 80002ae:	f3af 8000 	nop.w
 80002b2:	2301      	movs	r3, #1
 80002b4:	7023      	strb	r3, [r4, #0]
 80002b6:	bd10      	pop	{r4, pc}
 80002b8:	240001f8 	.word	0x240001f8
 80002bc:	00000000 	.word	0x00000000
 80002c0:	08017fbc 	.word	0x08017fbc

080002c4 <frame_dummy>:
 80002c4:	b508      	push	{r3, lr}
 80002c6:	4b03      	ldr	r3, [pc, #12]	; (80002d4 <frame_dummy+0x10>)
 80002c8:	b11b      	cbz	r3, 80002d2 <frame_dummy+0xe>
 80002ca:	4903      	ldr	r1, [pc, #12]	; (80002d8 <frame_dummy+0x14>)
 80002cc:	4803      	ldr	r0, [pc, #12]	; (80002dc <frame_dummy+0x18>)
 80002ce:	f3af 8000 	nop.w
 80002d2:	bd08      	pop	{r3, pc}
 80002d4:	00000000 	.word	0x00000000
 80002d8:	240001fc 	.word	0x240001fc
 80002dc:	08017fbc 	.word	0x08017fbc

080002e0 <memchr>:
 80002e0:	f001 01ff 	and.w	r1, r1, #255	; 0xff
 80002e4:	2a10      	cmp	r2, #16
 80002e6:	db2b      	blt.n	8000340 <memchr+0x60>
 80002e8:	f010 0f07 	tst.w	r0, #7
 80002ec:	d008      	beq.n	8000300 <memchr+0x20>
 80002ee:	f810 3b01 	ldrb.w	r3, [r0], #1
 80002f2:	3a01      	subs	r2, #1
 80002f4:	428b      	cmp	r3, r1
 80002f6:	d02d      	beq.n	8000354 <memchr+0x74>
 80002f8:	f010 0f07 	tst.w	r0, #7
 80002fc:	b342      	cbz	r2, 8000350 <memchr+0x70>
 80002fe:	d1f6      	bne.n	80002ee <memchr+0xe>
 8000300:	b4f0      	push	{r4, r5, r6, r7}
 8000302:	ea41 2101 	orr.w	r1, r1, r1, lsl #8
 8000306:	ea41 4101 	orr.w	r1, r1, r1, lsl #16
 800030a:	f022 0407 	bic.w	r4, r2, #7
 800030e:	f07f 0700 	mvns.w	r7, #0
 8000312:	2300      	movs	r3, #0
 8000314:	e8f0 5602 	ldrd	r5, r6, [r0], #8
 8000318:	3c08      	subs	r4, #8
 800031a:	ea85 0501 	eor.w	r5, r5, r1
 800031e:	ea86 0601 	eor.w	r6, r6, r1
 8000322:	fa85 f547 	uadd8	r5, r5, r7
 8000326:	faa3 f587 	sel	r5, r3, r7
 800032a:	fa86 f647 	uadd8	r6, r6, r7
 800032e:	faa5 f687 	sel	r6, r5, r7
 8000332:	b98e      	cbnz	r6, 8000358 <memchr+0x78>
 8000334:	d1ee      	bne.n	8000314 <memchr+0x34>
 8000336:	bcf0      	pop	{r4, r5, r6, r7}
 8000338:	f001 01ff 	and.w	r1, r1, #255	; 0xff
 800033c:	f002 0207 	and.w	r2, r2, #7
 8000340:	b132      	cbz	r2, 8000350 <memchr+0x70>
 8000342:	f810 3b01 	ldrb.w	r3, [r0], #1
 8000346:	3a01      	subs	r2, #1
 8000348:	ea83 0301 	eor.w	r3, r3, r1
 800034c:	b113      	cbz	r3, 8000354 <memchr+0x74>
 800034e:	d1f8      	bne.n	8000342 <memchr+0x62>
 8000350:	2000      	movs	r0, #0
 8000352:	4770      	bx	lr
 8000354:	3801      	subs	r0, #1
 8000356:	4770      	bx	lr
 8000358:	2d00      	cmp	r5, #0
 800035a:	bf06      	itte	eq
 800035c:	4635      	moveq	r5, r6
 800035e:	3803      	subeq	r0, #3
 8000360:	3807      	subne	r0, #7
 8000362:	f015 0f01 	tst.w	r5, #1
 8000366:	d107      	bne.n	8000378 <memchr+0x98>
 8000368:	3001      	adds	r0, #1
 800036a:	f415 7f80 	tst.w	r5, #256	; 0x100
 800036e:	bf02      	ittt	eq
 8000370:	3001      	addeq	r0, #1
 8000372:	f415 3fc0 	tsteq.w	r5, #98304	; 0x18000
 8000376:	3001      	addeq	r0, #1
 8000378:	bcf0      	pop	{r4, r5, r6, r7}
 800037a:	3801      	subs	r0, #1
 800037c:	4770      	bx	lr
 800037e:	bf00      	nop

08000380 <strlen>:
 8000380:	4603      	mov	r3, r0
 8000382:	f813 2b01 	ldrb.w	r2, [r3], #1
 8000386:	2a00      	cmp	r2, #0
 8000388:	d1fb      	bne.n	8000382 <strlen+0x2>
 800038a:	1a18      	subs	r0, r3, r0
 800038c:	3801      	subs	r0, #1
 800038e:	4770      	bx	lr

08000390 <__aeabi_drsub>:
 8000390:	f081 4100 	eor.w	r1, r1, #2147483648	; 0x80000000
 8000394:	e002      	b.n	800039c <__adddf3>
 8000396:	bf00      	nop

08000398 <__aeabi_dsub>:
 8000398:	f083 4300 	eor.w	r3, r3, #2147483648	; 0x80000000

0800039c <__adddf3>:
 800039c:	b530      	push	{r4, r5, lr}
 800039e:	ea4f 0441 	mov.w	r4, r1, lsl #1
 80003a2:	ea4f 0543 	mov.w	r5, r3, lsl #1
 80003a6:	ea94 0f05 	teq	r4, r5
 80003aa:	bf08      	it	eq
 80003ac:	ea90 0f02 	teqeq	r0, r2
 80003b0:	bf1f      	itttt	ne
 80003b2:	ea54 0c00 	orrsne.w	ip, r4, r0
 80003b6:	ea55 0c02 	orrsne.w	ip, r5, r2
 80003ba:	ea7f 5c64 	mvnsne.w	ip, r4, asr #21
 80003be:	ea7f 5c65 	mvnsne.w	ip, r5, asr #21
 80003c2:	f000 80e2 	beq.w	800058a <__adddf3+0x1ee>
 80003c6:	ea4f 5454 	mov.w	r4, r4, lsr #21
 80003ca:	ebd4 5555 	rsbs	r5, r4, r5, lsr #21
 80003ce:	bfb8      	it	lt
 80003d0:	426d      	neglt	r5, r5
 80003d2:	dd0c      	ble.n	80003ee <__adddf3+0x52>
 80003d4:	442c      	add	r4, r5
 80003d6:	ea80 0202 	eor.w	r2, r0, r2
 80003da:	ea81 0303 	eor.w	r3, r1, r3
 80003de:	ea82 0000 	eor.w	r0, r2, r0
 80003e2:	ea83 0101 	eor.w	r1, r3, r1
 80003e6:	ea80 0202 	eor.w	r2, r0, r2
 80003ea:	ea81 0303 	eor.w	r3, r1, r3
 80003ee:	2d36      	cmp	r5, #54	; 0x36
 80003f0:	bf88      	it	hi
 80003f2:	bd30      	pophi	{r4, r5, pc}
 80003f4:	f011 4f00 	tst.w	r1, #2147483648	; 0x80000000
 80003f8:	ea4f 3101 	mov.w	r1, r1, lsl #12
 80003fc:	f44f 1c80 	mov.w	ip, #1048576	; 0x100000
 8000400:	ea4c 3111 	orr.w	r1, ip, r1, lsr #12
 8000404:	d002      	beq.n	800040c <__adddf3+0x70>
 8000406:	4240      	negs	r0, r0
 8000408:	eb61 0141 	sbc.w	r1, r1, r1, lsl #1
 800040c:	f013 4f00 	tst.w	r3, #2147483648	; 0x80000000
 8000410:	ea4f 3303 	mov.w	r3, r3, lsl #12
 8000414:	ea4c 3313 	orr.w	r3, ip, r3, lsr #12
 8000418:	d002      	beq.n	8000420 <__adddf3+0x84>
 800041a:	4252      	negs	r2, r2
 800041c:	eb63 0343 	sbc.w	r3, r3, r3, lsl #1
 8000420:	ea94 0f05 	teq	r4, r5
 8000424:	f000 80a7 	beq.w	8000576 <__adddf3+0x1da>
 8000428:	f1a4 0401 	sub.w	r4, r4, #1
 800042c:	f1d5 0e20 	rsbs	lr, r5, #32
 8000430:	db0d      	blt.n	800044e <__adddf3+0xb2>
 8000432:	fa02 fc0e 	lsl.w	ip, r2, lr
 8000436:	fa22 f205 	lsr.w	r2, r2, r5
 800043a:	1880      	adds	r0, r0, r2
 800043c:	f141 0100 	adc.w	r1, r1, #0
 8000440:	fa03 f20e 	lsl.w	r2, r3, lr
 8000444:	1880      	adds	r0, r0, r2
 8000446:	fa43 f305 	asr.w	r3, r3, r5
 800044a:	4159      	adcs	r1, r3
 800044c:	e00e      	b.n	800046c <__adddf3+0xd0>
 800044e:	f1a5 0520 	sub.w	r5, r5, #32
 8000452:	f10e 0e20 	add.w	lr, lr, #32
 8000456:	2a01      	cmp	r2, #1
 8000458:	fa03 fc0e 	lsl.w	ip, r3, lr
 800045c:	bf28      	it	cs
 800045e:	f04c 0c02 	orrcs.w	ip, ip, #2
 8000462:	fa43 f305 	asr.w	r3, r3, r5
 8000466:	18c0      	adds	r0, r0, r3
 8000468:	eb51 71e3 	adcs.w	r1, r1, r3, asr #31
 800046c:	f001 4500 	and.w	r5, r1, #2147483648	; 0x80000000
 8000470:	d507      	bpl.n	8000482 <__adddf3+0xe6>
 8000472:	f04f 0e00 	mov.w	lr, #0
 8000476:	f1dc 0c00 	rsbs	ip, ip, #0
 800047a:	eb7e 0000 	sbcs.w	r0, lr, r0
 800047e:	eb6e 0101 	sbc.w	r1, lr, r1
 8000482:	f5b1 1f80 	cmp.w	r1, #1048576	; 0x100000
 8000486:	d31b      	bcc.n	80004c0 <__adddf3+0x124>
 8000488:	f5b1 1f00 	cmp.w	r1, #2097152	; 0x200000
 800048c:	d30c      	bcc.n	80004a8 <__adddf3+0x10c>
 800048e:	0849      	lsrs	r1, r1, #1
 8000490:	ea5f 0030 	movs.w	r0, r0, rrx
 8000494:	ea4f 0c3c 	mov.w	ip, ip, rrx
 8000498:	f104 0401 	add.w	r4, r4, #1
 800049c:	ea4f 5244 	mov.w	r2, r4, lsl #21
 80004a0:	f512 0f80 	cmn.w	r2, #4194304	; 0x400000
 80004a4:	f080 809a 	bcs.w	80005dc <__adddf3+0x240>
 80004a8:	f1bc 4f00 	cmp.w	ip, #2147483648	; 0x80000000
 80004ac:	bf08      	it	eq
 80004ae:	ea5f 0c50 	movseq.w	ip, r0, lsr #1
 80004b2:	f150 0000 	adcs.w	r0, r0, #0
 80004b6:	eb41 5104 	adc.w	r1, r1, r4, lsl #20
 80004ba:	ea41 0105 	orr.w	r1, r1, r5
 80004be:	bd30      	pop	{r4, r5, pc}
 80004c0:	ea5f 0c4c 	movs.w	ip, ip, lsl #1
 80004c4:	4140      	adcs	r0, r0
 80004c6:	eb41 0101 	adc.w	r1, r1, r1
 80004ca:	3c01      	subs	r4, #1
 80004cc:	bf28      	it	cs
 80004ce:	f5b1 1f80 	cmpcs.w	r1, #1048576	; 0x100000
 80004d2:	d2e9      	bcs.n	80004a8 <__adddf3+0x10c>
 80004d4:	f091 0f00 	teq	r1, #0
 80004d8:	bf04      	itt	eq
 80004da:	4601      	moveq	r1, r0
 80004dc:	2000      	moveq	r0, #0
 80004de:	fab1 f381 	clz	r3, r1
 80004e2:	bf08      	it	eq
 80004e4:	3320      	addeq	r3, #32
 80004e6:	f1a3 030b 	sub.w	r3, r3, #11
 80004ea:	f1b3 0220 	subs.w	r2, r3, #32
 80004ee:	da0c      	bge.n	800050a <__adddf3+0x16e>
 80004f0:	320c      	adds	r2, #12
 80004f2:	dd08      	ble.n	8000506 <__adddf3+0x16a>
 80004f4:	f102 0c14 	add.w	ip, r2, #20
 80004f8:	f1c2 020c 	rsb	r2, r2, #12
 80004fc:	fa01 f00c 	lsl.w	r0, r1, ip
 8000500:	fa21 f102 	lsr.w	r1, r1, r2
 8000504:	e00c      	b.n	8000520 <__adddf3+0x184>
 8000506:	f102 0214 	add.w	r2, r2, #20
 800050a:	bfd8      	it	le
 800050c:	f1c2 0c20 	rsble	ip, r2, #32
 8000510:	fa01 f102 	lsl.w	r1, r1, r2
 8000514:	fa20 fc0c 	lsr.w	ip, r0, ip
 8000518:	bfdc      	itt	le
 800051a:	ea41 010c 	orrle.w	r1, r1, ip
 800051e:	4090      	lslle	r0, r2
 8000520:	1ae4      	subs	r4, r4, r3
 8000522:	bfa2      	ittt	ge
 8000524:	eb01 5104 	addge.w	r1, r1, r4, lsl #20
 8000528:	4329      	orrge	r1, r5
 800052a:	bd30      	popge	{r4, r5, pc}
 800052c:	ea6f 0404 	mvn.w	r4, r4
 8000530:	3c1f      	subs	r4, #31
 8000532:	da1c      	bge.n	800056e <__adddf3+0x1d2>
 8000534:	340c      	adds	r4, #12
 8000536:	dc0e      	bgt.n	8000556 <__adddf3+0x1ba>
 8000538:	f104 0414 	add.w	r4, r4, #20
 800053c:	f1c4 0220 	rsb	r2, r4, #32
 8000540:	fa20 f004 	lsr.w	r0, r0, r4
 8000544:	fa01 f302 	lsl.w	r3, r1, r2
 8000548:	ea40 0003 	orr.w	r0, r0, r3
 800054c:	fa21 f304 	lsr.w	r3, r1, r4
 8000550:	ea45 0103 	orr.w	r1, r5, r3
 8000554:	bd30      	pop	{r4, r5, pc}
 8000556:	f1c4 040c 	rsb	r4, r4, #12
 800055a:	f1c4 0220 	rsb	r2, r4, #32
 800055e:	fa20 f002 	lsr.w	r0, r0, r2
 8000562:	fa01 f304 	lsl.w	r3, r1, r4
 8000566:	ea40 0003 	orr.w	r0, r0, r3
 800056a:	4629      	mov	r1, r5
 800056c:	bd30      	pop	{r4, r5, pc}
 800056e:	fa21 f004 	lsr.w	r0, r1, r4
 8000572:	4629      	mov	r1, r5
 8000574:	bd30      	pop	{r4, r5, pc}
 8000576:	f094 0f00 	teq	r4, #0
 800057a:	f483 1380 	eor.w	r3, r3, #1048576	; 0x100000
 800057e:	bf06      	itte	eq
 8000580:	f481 1180 	eoreq.w	r1, r1, #1048576	; 0x100000
 8000584:	3401      	addeq	r4, #1
 8000586:	3d01      	subne	r5, #1
 8000588:	e74e      	b.n	8000428 <__adddf3+0x8c>
 800058a:	ea7f 5c64 	mvns.w	ip, r4, asr #21
 800058e:	bf18      	it	ne
 8000590:	ea7f 5c65 	mvnsne.w	ip, r5, asr #21
 8000594:	d029      	beq.n	80005ea <__adddf3+0x24e>
 8000596:	ea94 0f05 	teq	r4, r5
 800059a:	bf08      	it	eq
 800059c:	ea90 0f02 	teqeq	r0, r2
 80005a0:	d005      	beq.n	80005ae <__adddf3+0x212>
 80005a2:	ea54 0c00 	orrs.w	ip, r4, r0
 80005a6:	bf04      	itt	eq
 80005a8:	4619      	moveq	r1, r3
 80005aa:	4610      	moveq	r0, r2
 80005ac:	bd30      	pop	{r4, r5, pc}
 80005ae:	ea91 0f03 	teq	r1, r3
 80005b2:	bf1e      	ittt	ne
 80005b4:	2100      	movne	r1, #0
 80005b6:	2000      	movne	r0, #0
 80005b8:	bd30      	popne	{r4, r5, pc}
 80005ba:	ea5f 5c54 	movs.w	ip, r4, lsr #21
 80005be:	d105      	bne.n	80005cc <__adddf3+0x230>
 80005c0:	0040      	lsls	r0, r0, #1
 80005c2:	4149      	adcs	r1, r1
 80005c4:	bf28      	it	cs
 80005c6:	f041 4100 	orrcs.w	r1, r1, #2147483648	; 0x80000000
 80005ca:	bd30      	pop	{r4, r5, pc}
 80005cc:	f514 0480 	adds.w	r4, r4, #4194304	; 0x400000
 80005d0:	bf3c      	itt	cc
 80005d2:	f501 1180 	addcc.w	r1, r1, #1048576	; 0x100000
 80005d6:	bd30      	popcc	{r4, r5, pc}
 80005d8:	f001 4500 	and.w	r5, r1, #2147483648	; 0x80000000
 80005dc:	f045 41fe 	orr.w	r1, r5, #2130706432	; 0x7f000000
 80005e0:	f441 0170 	orr.w	r1, r1, #15728640	; 0xf00000
 80005e4:	f04f 0000 	mov.w	r0, #0
 80005e8:	bd30      	pop	{r4, r5, pc}
 80005ea:	ea7f 5c64 	mvns.w	ip, r4, asr #21
 80005ee:	bf1a      	itte	ne
 80005f0:	4619      	movne	r1, r3
 80005f2:	4610      	movne	r0, r2
 80005f4:	ea7f 5c65 	mvnseq.w	ip, r5, asr #21
 80005f8:	bf1c      	itt	ne
 80005fa:	460b      	movne	r3, r1
 80005fc:	4602      	movne	r2, r0
 80005fe:	ea50 3401 	orrs.w	r4, r0, r1, lsl #12
 8000602:	bf06      	itte	eq
 8000604:	ea52 3503 	orrseq.w	r5, r2, r3, lsl #12
 8000608:	ea91 0f03 	teqeq	r1, r3
 800060c:	f441 2100 	orrne.w	r1, r1, #524288	; 0x80000
 8000610:	bd30      	pop	{r4, r5, pc}
 8000612:	bf00      	nop

08000614 <__aeabi_ui2d>:
 8000614:	f090 0f00 	teq	r0, #0
 8000618:	bf04      	itt	eq
 800061a:	2100      	moveq	r1, #0
 800061c:	4770      	bxeq	lr
 800061e:	b530      	push	{r4, r5, lr}
 8000620:	f44f 6480 	mov.w	r4, #1024	; 0x400
 8000624:	f104 0432 	add.w	r4, r4, #50	; 0x32
 8000628:	f04f 0500 	mov.w	r5, #0
 800062c:	f04f 0100 	mov.w	r1, #0
 8000630:	e750      	b.n	80004d4 <__adddf3+0x138>
 8000632:	bf00      	nop

08000634 <__aeabi_i2d>:
 8000634:	f090 0f00 	teq	r0, #0
 8000638:	bf04      	itt	eq
 800063a:	2100      	moveq	r1, #0
 800063c:	4770      	bxeq	lr
 800063e:	b530      	push	{r4, r5, lr}
 8000640:	f44f 6480 	mov.w	r4, #1024	; 0x400
 8000644:	f104 0432 	add.w	r4, r4, #50	; 0x32
 8000648:	f010 4500 	ands.w	r5, r0, #2147483648	; 0x80000000
 800064c:	bf48      	it	mi
 800064e:	4240      	negmi	r0, r0
 8000650:	f04f 0100 	mov.w	r1, #0
 8000654:	e73e      	b.n	80004d4 <__adddf3+0x138>
 8000656:	bf00      	nop

08000658 <__aeabi_f2d>:
 8000658:	0042      	lsls	r2, r0, #1
 800065a:	ea4f 01e2 	mov.w	r1, r2, asr #3
 800065e:	ea4f 0131 	mov.w	r1, r1, rrx
 8000662:	ea4f 7002 	mov.w	r0, r2, lsl #28
 8000666:	bf1f      	itttt	ne
 8000668:	f012 437f 	andsne.w	r3, r2, #4278190080	; 0xff000000
 800066c:	f093 4f7f 	teqne	r3, #4278190080	; 0xff000000
 8000670:	f081 5160 	eorne.w	r1, r1, #939524096	; 0x38000000
 8000674:	4770      	bxne	lr
 8000676:	f032 427f 	bics.w	r2, r2, #4278190080	; 0xff000000
 800067a:	bf08      	it	eq
 800067c:	4770      	bxeq	lr
 800067e:	f093 4f7f 	teq	r3, #4278190080	; 0xff000000
 8000682:	bf04      	itt	eq
 8000684:	f441 2100 	orreq.w	r1, r1, #524288	; 0x80000
 8000688:	4770      	bxeq	lr
 800068a:	b530      	push	{r4, r5, lr}
 800068c:	f44f 7460 	mov.w	r4, #896	; 0x380
 8000690:	f001 4500 	and.w	r5, r1, #2147483648	; 0x80000000
 8000694:	f021 4100 	bic.w	r1, r1, #2147483648	; 0x80000000
 8000698:	e71c      	b.n	80004d4 <__adddf3+0x138>
 800069a:	bf00      	nop

0800069c <__aeabi_ul2d>:
 800069c:	ea50 0201 	orrs.w	r2, r0, r1
 80006a0:	bf08      	it	eq
 80006a2:	4770      	bxeq	lr
 80006a4:	b530      	push	{r4, r5, lr}
 80006a6:	f04f 0500 	mov.w	r5, #0
 80006aa:	e00a      	b.n	80006c2 <__aeabi_l2d+0x16>

080006ac <__aeabi_l2d>:
 80006ac:	ea50 0201 	orrs.w	r2, r0, r1
 80006b0:	bf08      	it	eq
 80006b2:	4770      	bxeq	lr
 80006b4:	b530      	push	{r4, r5, lr}
 80006b6:	f011 4500 	ands.w	r5, r1, #2147483648	; 0x80000000
 80006ba:	d502      	bpl.n	80006c2 <__aeabi_l2d+0x16>
 80006bc:	4240      	negs	r0, r0
 80006be:	eb61 0141 	sbc.w	r1, r1, r1, lsl #1
 80006c2:	f44f 6480 	mov.w	r4, #1024	; 0x400
 80006c6:	f104 0432 	add.w	r4, r4, #50	; 0x32
 80006ca:	ea5f 5c91 	movs.w	ip, r1, lsr #22
 80006ce:	f43f aed8 	beq.w	8000482 <__adddf3+0xe6>
 80006d2:	f04f 0203 	mov.w	r2, #3
 80006d6:	ea5f 0cdc 	movs.w	ip, ip, lsr #3
 80006da:	bf18      	it	ne
 80006dc:	3203      	addne	r2, #3
 80006de:	ea5f 0cdc 	movs.w	ip, ip, lsr #3
 80006e2:	bf18      	it	ne
 80006e4:	3203      	addne	r2, #3
 80006e6:	eb02 02dc 	add.w	r2, r2, ip, lsr #3
 80006ea:	f1c2 0320 	rsb	r3, r2, #32
 80006ee:	fa00 fc03 	lsl.w	ip, r0, r3
 80006f2:	fa20 f002 	lsr.w	r0, r0, r2
 80006f6:	fa01 fe03 	lsl.w	lr, r1, r3
 80006fa:	ea40 000e 	orr.w	r0, r0, lr
 80006fe:	fa21 f102 	lsr.w	r1, r1, r2
 8000702:	4414      	add	r4, r2
 8000704:	e6bd      	b.n	8000482 <__adddf3+0xe6>
 8000706:	bf00      	nop

08000708 <__aeabi_uldivmod>:
 8000708:	b953      	cbnz	r3, 8000720 <__aeabi_uldivmod+0x18>
 800070a:	b94a      	cbnz	r2, 8000720 <__aeabi_uldivmod+0x18>
 800070c:	2900      	cmp	r1, #0
 800070e:	bf08      	it	eq
 8000710:	2800      	cmpeq	r0, #0
 8000712:	bf1c      	itt	ne
 8000714:	f04f 31ff 	movne.w	r1, #4294967295
 8000718:	f04f 30ff 	movne.w	r0, #4294967295
 800071c:	f000 b9a8 	b.w	8000a70 <__aeabi_idiv0>
 8000720:	f1ad 0c08 	sub.w	ip, sp, #8
 8000724:	e96d ce04 	strd	ip, lr, [sp, #-16]!
 8000728:	f000 f83e 	bl	80007a8 <__udivmoddi4>
 800072c:	f8dd e004 	ldr.w	lr, [sp, #4]
 8000730:	e9dd 2302 	ldrd	r2, r3, [sp, #8]
 8000734:	b004      	add	sp, #16
 8000736:	4770      	bx	lr

08000738 <__aeabi_d2lz>:
 8000738:	b508      	push	{r3, lr}
 800073a:	4602      	mov	r2, r0
 800073c:	460b      	mov	r3, r1
 800073e:	ec43 2b17 	vmov	d7, r2, r3
 8000742:	eeb5 7bc0 	vcmpe.f64	d7, #0.0
 8000746:	eef1 fa10 	vmrs	APSR_nzcv, fpscr
 800074a:	d403      	bmi.n	8000754 <__aeabi_d2lz+0x1c>
 800074c:	e8bd 4008 	ldmia.w	sp!, {r3, lr}
 8000750:	f000 b80a 	b.w	8000768 <__aeabi_d2ulz>
 8000754:	eeb1 7b47 	vneg.f64	d7, d7
 8000758:	ec51 0b17 	vmov	r0, r1, d7
 800075c:	f000 f804 	bl	8000768 <__aeabi_d2ulz>
 8000760:	4240      	negs	r0, r0
 8000762:	eb61 0141 	sbc.w	r1, r1, r1, lsl #1
 8000766:	bd08      	pop	{r3, pc}

08000768 <__aeabi_d2ulz>:
 8000768:	ed9f 6b0b 	vldr	d6, [pc, #44]	; 8000798 <__aeabi_d2ulz+0x30>
 800076c:	ec41 0b17 	vmov	d7, r0, r1
 8000770:	ed9f 5b0b 	vldr	d5, [pc, #44]	; 80007a0 <__aeabi_d2ulz+0x38>
 8000774:	ee27 6b06 	vmul.f64	d6, d7, d6
 8000778:	eebc 6bc6 	vcvt.u32.f64	s12, d6
 800077c:	eeb8 4b46 	vcvt.f64.u32	d4, s12
 8000780:	eea4 7b45 	vfms.f64	d7, d4, d5
 8000784:	eefc 7bc7 	vcvt.u32.f64	s15, d7
 8000788:	ee16 1a10 	vmov	r1, s12
 800078c:	ee17 0a90 	vmov	r0, s15
 8000790:	4770      	bx	lr
 8000792:	bf00      	nop
 8000794:	f3af 8000 	nop.w
 8000798:	00000000 	.word	0x00000000
 800079c:	3df00000 	.word	0x3df00000
 80007a0:	00000000 	.word	0x00000000
 80007a4:	41f00000 	.word	0x41f00000

080007a8 <__udivmoddi4>:
 80007a8:	e92d 47f0 	stmdb	sp!, {r4, r5, r6, r7, r8, r9, sl, lr}
 80007ac:	9e08      	ldr	r6, [sp, #32]
 80007ae:	460d      	mov	r5, r1
 80007b0:	4604      	mov	r4, r0
 80007b2:	460f      	mov	r7, r1
 80007b4:	2b00      	cmp	r3, #0
 80007b6:	d14a      	bne.n	800084e <__udivmoddi4+0xa6>
 80007b8:	428a      	cmp	r2, r1
 80007ba:	4694      	mov	ip, r2
 80007bc:	d965      	bls.n	800088a <__udivmoddi4+0xe2>
 80007be:	fab2 f382 	clz	r3, r2
 80007c2:	b143      	cbz	r3, 80007d6 <__udivmoddi4+0x2e>
 80007c4:	fa02 fc03 	lsl.w	ip, r2, r3
 80007c8:	f1c3 0220 	rsb	r2, r3, #32
 80007cc:	409f      	lsls	r7, r3
 80007ce:	fa20 f202 	lsr.w	r2, r0, r2
 80007d2:	4317      	orrs	r7, r2
 80007d4:	409c      	lsls	r4, r3
 80007d6:	ea4f 4e1c 	mov.w	lr, ip, lsr #16
 80007da:	fa1f f58c 	uxth.w	r5, ip
 80007de:	fbb7 f1fe 	udiv	r1, r7, lr
 80007e2:	0c22      	lsrs	r2, r4, #16
 80007e4:	fb0e 7711 	mls	r7, lr, r1, r7
 80007e8:	ea42 4207 	orr.w	r2, r2, r7, lsl #16
 80007ec:	fb01 f005 	mul.w	r0, r1, r5
 80007f0:	4290      	cmp	r0, r2
 80007f2:	d90a      	bls.n	800080a <__udivmoddi4+0x62>
 80007f4:	eb1c 0202 	adds.w	r2, ip, r2
 80007f8:	f101 37ff 	add.w	r7, r1, #4294967295
 80007fc:	f080 811c 	bcs.w	8000a38 <__udivmoddi4+0x290>
 8000800:	4290      	cmp	r0, r2
 8000802:	f240 8119 	bls.w	8000a38 <__udivmoddi4+0x290>
 8000806:	3902      	subs	r1, #2
 8000808:	4462      	add	r2, ip
 800080a:	1a12      	subs	r2, r2, r0
 800080c:	b2a4      	uxth	r4, r4
 800080e:	fbb2 f0fe 	udiv	r0, r2, lr
 8000812:	fb0e 2210 	mls	r2, lr, r0, r2
 8000816:	ea44 4402 	orr.w	r4, r4, r2, lsl #16
 800081a:	fb00 f505 	mul.w	r5, r0, r5
 800081e:	42a5      	cmp	r5, r4
 8000820:	d90a      	bls.n	8000838 <__udivmoddi4+0x90>
 8000822:	eb1c 0404 	adds.w	r4, ip, r4
 8000826:	f100 32ff 	add.w	r2, r0, #4294967295
 800082a:	f080 8107 	bcs.w	8000a3c <__udivmoddi4+0x294>
 800082e:	42a5      	cmp	r5, r4
 8000830:	f240 8104 	bls.w	8000a3c <__udivmoddi4+0x294>
 8000834:	4464      	add	r4, ip
 8000836:	3802      	subs	r0, #2
 8000838:	ea40 4001 	orr.w	r0, r0, r1, lsl #16
 800083c:	1b64      	subs	r4, r4, r5
 800083e:	2100      	movs	r1, #0
 8000840:	b11e      	cbz	r6, 800084a <__udivmoddi4+0xa2>
 8000842:	40dc      	lsrs	r4, r3
 8000844:	2300      	movs	r3, #0
 8000846:	e9c6 4300 	strd	r4, r3, [r6]
 800084a:	e8bd 87f0 	ldmia.w	sp!, {r4, r5, r6, r7, r8, r9, sl, pc}
 800084e:	428b      	cmp	r3, r1
 8000850:	d908      	bls.n	8000864 <__udivmoddi4+0xbc>
 8000852:	2e00      	cmp	r6, #0
 8000854:	f000 80ed 	beq.w	8000a32 <__udivmoddi4+0x28a>
 8000858:	2100      	movs	r1, #0
 800085a:	e9c6 0500 	strd	r0, r5, [r6]
 800085e:	4608      	mov	r0, r1
 8000860:	e8bd 87f0 	ldmia.w	sp!, {r4, r5, r6, r7, r8, r9, sl, pc}
 8000864:	fab3 f183 	clz	r1, r3
 8000868:	2900      	cmp	r1, #0
 800086a:	d149      	bne.n	8000900 <__udivmoddi4+0x158>
 800086c:	42ab      	cmp	r3, r5
 800086e:	d302      	bcc.n	8000876 <__udivmoddi4+0xce>
 8000870:	4282      	cmp	r2, r0
 8000872:	f200 80f8 	bhi.w	8000a66 <__udivmoddi4+0x2be>
 8000876:	1a84      	subs	r4, r0, r2
 8000878:	eb65 0203 	sbc.w	r2, r5, r3
 800087c:	2001      	movs	r0, #1
 800087e:	4617      	mov	r7, r2
 8000880:	2e00      	cmp	r6, #0
 8000882:	d0e2      	beq.n	800084a <__udivmoddi4+0xa2>
 8000884:	e9c6 4700 	strd	r4, r7, [r6]
 8000888:	e7df      	b.n	800084a <__udivmoddi4+0xa2>
 800088a:	b902      	cbnz	r2, 800088e <__udivmoddi4+0xe6>
 800088c:	deff      	udf	#255	; 0xff
 800088e:	fab2 f382 	clz	r3, r2
 8000892:	2b00      	cmp	r3, #0
 8000894:	f040 8090 	bne.w	80009b8 <__udivmoddi4+0x210>
 8000898:	1a8a      	subs	r2, r1, r2
 800089a:	ea4f 471c 	mov.w	r7, ip, lsr #16
 800089e:	fa1f fe8c 	uxth.w	lr, ip
 80008a2:	2101      	movs	r1, #1
 80008a4:	fbb2 f5f7 	udiv	r5, r2, r7
 80008a8:	fb07 2015 	mls	r0, r7, r5, r2
 80008ac:	0c22      	lsrs	r2, r4, #16
 80008ae:	ea42 4200 	orr.w	r2, r2, r0, lsl #16
 80008b2:	fb0e f005 	mul.w	r0, lr, r5
 80008b6:	4290      	cmp	r0, r2
 80008b8:	d908      	bls.n	80008cc <__udivmoddi4+0x124>
 80008ba:	eb1c 0202 	adds.w	r2, ip, r2
 80008be:	f105 38ff 	add.w	r8, r5, #4294967295
 80008c2:	d202      	bcs.n	80008ca <__udivmoddi4+0x122>
 80008c4:	4290      	cmp	r0, r2
 80008c6:	f200 80cb 	bhi.w	8000a60 <__udivmoddi4+0x2b8>
 80008ca:	4645      	mov	r5, r8
 80008cc:	1a12      	subs	r2, r2, r0
 80008ce:	b2a4      	uxth	r4, r4
 80008d0:	fbb2 f0f7 	udiv	r0, r2, r7
 80008d4:	fb07 2210 	mls	r2, r7, r0, r2
 80008d8:	ea44 4402 	orr.w	r4, r4, r2, lsl #16
 80008dc:	fb0e fe00 	mul.w	lr, lr, r0
 80008e0:	45a6      	cmp	lr, r4
 80008e2:	d908      	bls.n	80008f6 <__udivmoddi4+0x14e>
 80008e4:	eb1c 0404 	adds.w	r4, ip, r4
 80008e8:	f100 32ff 	add.w	r2, r0, #4294967295
 80008ec:	d202      	bcs.n	80008f4 <__udivmoddi4+0x14c>
 80008ee:	45a6      	cmp	lr, r4
 80008f0:	f200 80bb 	bhi.w	8000a6a <__udivmoddi4+0x2c2>
 80008f4:	4610      	mov	r0, r2
 80008f6:	eba4 040e 	sub.w	r4, r4, lr
 80008fa:	ea40 4005 	orr.w	r0, r0, r5, lsl #16
 80008fe:	e79f      	b.n	8000840 <__udivmoddi4+0x98>
 8000900:	f1c1 0720 	rsb	r7, r1, #32
 8000904:	408b      	lsls	r3, r1
 8000906:	fa22 fc07 	lsr.w	ip, r2, r7
 800090a:	ea4c 0c03 	orr.w	ip, ip, r3
 800090e:	fa05 f401 	lsl.w	r4, r5, r1
 8000912:	fa20 f307 	lsr.w	r3, r0, r7
 8000916:	40fd      	lsrs	r5, r7
 8000918:	ea4f 491c 	mov.w	r9, ip, lsr #16
 800091c:	4323      	orrs	r3, r4
 800091e:	fbb5 f8f9 	udiv	r8, r5, r9
 8000922:	fa1f fe8c 	uxth.w	lr, ip
 8000926:	fb09 5518 	mls	r5, r9, r8, r5
 800092a:	0c1c      	lsrs	r4, r3, #16
 800092c:	ea44 4405 	orr.w	r4, r4, r5, lsl #16
 8000930:	fb08 f50e 	mul.w	r5, r8, lr
 8000934:	42a5      	cmp	r5, r4
 8000936:	fa02 f201 	lsl.w	r2, r2, r1
 800093a:	fa00 f001 	lsl.w	r0, r0, r1
 800093e:	d90b      	bls.n	8000958 <__udivmoddi4+0x1b0>
 8000940:	eb1c 0404 	adds.w	r4, ip, r4
 8000944:	f108 3aff 	add.w	sl, r8, #4294967295
 8000948:	f080 8088 	bcs.w	8000a5c <__udivmoddi4+0x2b4>
 800094c:	42a5      	cmp	r5, r4
 800094e:	f240 8085 	bls.w	8000a5c <__udivmoddi4+0x2b4>
 8000952:	f1a8 0802 	sub.w	r8, r8, #2
 8000956:	4464      	add	r4, ip
 8000958:	1b64      	subs	r4, r4, r5
 800095a:	b29d      	uxth	r5, r3
 800095c:	fbb4 f3f9 	udiv	r3, r4, r9
 8000960:	fb09 4413 	mls	r4, r9, r3, r4
 8000964:	ea45 4404 	orr.w	r4, r5, r4, lsl #16
 8000968:	fb03 fe0e 	mul.w	lr, r3, lr
 800096c:	45a6      	cmp	lr, r4
 800096e:	d908      	bls.n	8000982 <__udivmoddi4+0x1da>
 8000970:	eb1c 0404 	adds.w	r4, ip, r4
 8000974:	f103 35ff 	add.w	r5, r3, #4294967295
 8000978:	d26c      	bcs.n	8000a54 <__udivmoddi4+0x2ac>
 800097a:	45a6      	cmp	lr, r4
 800097c:	d96a      	bls.n	8000a54 <__udivmoddi4+0x2ac>
 800097e:	3b02      	subs	r3, #2
 8000980:	4464      	add	r4, ip
 8000982:	ea43 4308 	orr.w	r3, r3, r8, lsl #16
 8000986:	fba3 9502 	umull	r9, r5, r3, r2
 800098a:	eba4 040e 	sub.w	r4, r4, lr
 800098e:	42ac      	cmp	r4, r5
 8000990:	46c8      	mov	r8, r9
 8000992:	46ae      	mov	lr, r5
 8000994:	d356      	bcc.n	8000a44 <__udivmoddi4+0x29c>
 8000996:	d053      	beq.n	8000a40 <__udivmoddi4+0x298>
 8000998:	b156      	cbz	r6, 80009b0 <__udivmoddi4+0x208>
 800099a:	ebb0 0208 	subs.w	r2, r0, r8
 800099e:	eb64 040e 	sbc.w	r4, r4, lr
 80009a2:	fa04 f707 	lsl.w	r7, r4, r7
 80009a6:	40ca      	lsrs	r2, r1
 80009a8:	40cc      	lsrs	r4, r1
 80009aa:	4317      	orrs	r7, r2
 80009ac:	e9c6 7400 	strd	r7, r4, [r6]
 80009b0:	4618      	mov	r0, r3
 80009b2:	2100      	movs	r1, #0
 80009b4:	e8bd 87f0 	ldmia.w	sp!, {r4, r5, r6, r7, r8, r9, sl, pc}
 80009b8:	f1c3 0120 	rsb	r1, r3, #32
 80009bc:	fa02 fc03 	lsl.w	ip, r2, r3
 80009c0:	fa20 f201 	lsr.w	r2, r0, r1
 80009c4:	fa25 f101 	lsr.w	r1, r5, r1
 80009c8:	409d      	lsls	r5, r3
 80009ca:	432a      	orrs	r2, r5
 80009cc:	ea4f 471c 	mov.w	r7, ip, lsr #16
 80009d0:	fa1f fe8c 	uxth.w	lr, ip
 80009d4:	fbb1 f0f7 	udiv	r0, r1, r7
 80009d8:	fb07 1510 	mls	r5, r7, r0, r1
 80009dc:	0c11      	lsrs	r1, r2, #16
 80009de:	ea41 4105 	orr.w	r1, r1, r5, lsl #16
 80009e2:	fb00 f50e 	mul.w	r5, r0, lr
 80009e6:	428d      	cmp	r5, r1
 80009e8:	fa04 f403 	lsl.w	r4, r4, r3
 80009ec:	d908      	bls.n	8000a00 <__udivmoddi4+0x258>
 80009ee:	eb1c 0101 	adds.w	r1, ip, r1
 80009f2:	f100 38ff 	add.w	r8, r0, #4294967295
 80009f6:	d22f      	bcs.n	8000a58 <__udivmoddi4+0x2b0>
 80009f8:	428d      	cmp	r5, r1
 80009fa:	d92d      	bls.n	8000a58 <__udivmoddi4+0x2b0>
 80009fc:	3802      	subs	r0, #2
 80009fe:	4461      	add	r1, ip
 8000a00:	1b49      	subs	r1, r1, r5
 8000a02:	b292      	uxth	r2, r2
 8000a04:	fbb1 f5f7 	udiv	r5, r1, r7
 8000a08:	fb07 1115 	mls	r1, r7, r5, r1
 8000a0c:	ea42 4201 	orr.w	r2, r2, r1, lsl #16
 8000a10:	fb05 f10e 	mul.w	r1, r5, lr
 8000a14:	4291      	cmp	r1, r2
 8000a16:	d908      	bls.n	8000a2a <__udivmoddi4+0x282>
 8000a18:	eb1c 0202 	adds.w	r2, ip, r2
 8000a1c:	f105 38ff 	add.w	r8, r5, #4294967295
 8000a20:	d216      	bcs.n	8000a50 <__udivmoddi4+0x2a8>
 8000a22:	4291      	cmp	r1, r2
 8000a24:	d914      	bls.n	8000a50 <__udivmoddi4+0x2a8>
 8000a26:	3d02      	subs	r5, #2
 8000a28:	4462      	add	r2, ip
 8000a2a:	1a52      	subs	r2, r2, r1
 8000a2c:	ea45 4100 	orr.w	r1, r5, r0, lsl #16
 8000a30:	e738      	b.n	80008a4 <__udivmoddi4+0xfc>
 8000a32:	4631      	mov	r1, r6
 8000a34:	4630      	mov	r0, r6
 8000a36:	e708      	b.n	800084a <__udivmoddi4+0xa2>
 8000a38:	4639      	mov	r1, r7
 8000a3a:	e6e6      	b.n	800080a <__udivmoddi4+0x62>
 8000a3c:	4610      	mov	r0, r2
 8000a3e:	e6fb      	b.n	8000838 <__udivmoddi4+0x90>
 8000a40:	4548      	cmp	r0, r9
 8000a42:	d2a9      	bcs.n	8000998 <__udivmoddi4+0x1f0>
 8000a44:	ebb9 0802 	subs.w	r8, r9, r2
 8000a48:	eb65 0e0c 	sbc.w	lr, r5, ip
 8000a4c:	3b01      	subs	r3, #1
 8000a4e:	e7a3      	b.n	8000998 <__udivmoddi4+0x1f0>
 8000a50:	4645      	mov	r5, r8
 8000a52:	e7ea      	b.n	8000a2a <__udivmoddi4+0x282>
 8000a54:	462b      	mov	r3, r5
 8000a56:	e794      	b.n	8000982 <__udivmoddi4+0x1da>
 8000a58:	4640      	mov	r0, r8
 8000a5a:	e7d1      	b.n	8000a00 <__udivmoddi4+0x258>
 8000a5c:	46d0      	mov	r8, sl
 8000a5e:	e77b      	b.n	8000958 <__udivmoddi4+0x1b0>
 8000a60:	3d02      	subs	r5, #2
 8000a62:	4462      	add	r2, ip
 8000a64:	e732      	b.n	80008cc <__udivmoddi4+0x124>
 8000a66:	4608      	mov	r0, r1
 8000a68:	e70a      	b.n	8000880 <__udivmoddi4+0xd8>
 8000a6a:	4464      	add	r4, ip
 8000a6c:	3802      	subs	r0, #2
 8000a6e:	e742      	b.n	80008f6 <__udivmoddi4+0x14e>

08000a70 <__aeabi_idiv0>:
 8000a70:	4770      	bx	lr
 8000a72:	bf00      	nop

08000a74 <MX_GPIO_Init>:
     PH1-OSC_OUT (PH1)   ------> RCC_OSC_OUT
     PA13 (JTMS/SWDIO)   ------> DEBUG_JTMS-SWDIO
     PA14 (JTCK/SWCLK)   ------> DEBUG_JTCK-SWCLK
*/
void MX_GPIO_Init(void)
{
 8000a74:	b480      	push	{r7}
 8000a76:	b087      	sub	sp, #28
 8000a78:	af00      	add	r7, sp, #0

  /* GPIO Ports Clock Enable */
  __HAL_RCC_GPIOH_CLK_ENABLE();
 8000a7a:	4b28      	ldr	r3, [pc, #160]	; (8000b1c <MX_GPIO_Init+0xa8>)
 8000a7c:	f8d3 30e0 	ldr.w	r3, [r3, #224]	; 0xe0
 8000a80:	4a26      	ldr	r2, [pc, #152]	; (8000b1c <MX_GPIO_Init+0xa8>)
 8000a82:	f043 0380 	orr.w	r3, r3, #128	; 0x80
 8000a86:	f8c2 30e0 	str.w	r3, [r2, #224]	; 0xe0
 8000a8a:	4b24      	ldr	r3, [pc, #144]	; (8000b1c <MX_GPIO_Init+0xa8>)
 8000a8c:	f8d3 30e0 	ldr.w	r3, [r3, #224]	; 0xe0
 8000a90:	f003 0380 	and.w	r3, r3, #128	; 0x80
 8000a94:	617b      	str	r3, [r7, #20]
 8000a96:	697b      	ldr	r3, [r7, #20]
  __HAL_RCC_GPIOC_CLK_ENABLE();
 8000a98:	4b20      	ldr	r3, [pc, #128]	; (8000b1c <MX_GPIO_Init+0xa8>)
 8000a9a:	f8d3 30e0 	ldr.w	r3, [r3, #224]	; 0xe0
 8000a9e:	4a1f      	ldr	r2, [pc, #124]	; (8000b1c <MX_GPIO_Init+0xa8>)
 8000aa0:	f043 0304 	orr.w	r3, r3, #4
 8000aa4:	f8c2 30e0 	str.w	r3, [r2, #224]	; 0xe0
 8000aa8:	4b1c      	ldr	r3, [pc, #112]	; (8000b1c <MX_GPIO_Init+0xa8>)
 8000aaa:	f8d3 30e0 	ldr.w	r3, [r3, #224]	; 0xe0
 8000aae:	f003 0304 	and.w	r3, r3, #4
 8000ab2:	613b      	str	r3, [r7, #16]
 8000ab4:	693b      	ldr	r3, [r7, #16]
  __HAL_RCC_GPIOA_CLK_ENABLE();
 8000ab6:	4b19      	ldr	r3, [pc, #100]	; (8000b1c <MX_GPIO_Init+0xa8>)
 8000ab8:	f8d3 30e0 	ldr.w	r3, [r3, #224]	; 0xe0
 8000abc:	4a17      	ldr	r2, [pc, #92]	; (8000b1c <MX_GPIO_Init+0xa8>)
 8000abe:	f043 0301 	orr.w	r3, r3, #1
 8000ac2:	f8c2 30e0 	str.w	r3, [r2, #224]	; 0xe0
 8000ac6:	4b15      	ldr	r3, [pc, #84]	; (8000b1c <MX_GPIO_Init+0xa8>)
 8000ac8:	f8d3 30e0 	ldr.w	r3, [r3, #224]	; 0xe0
 8000acc:	f003 0301 	and.w	r3, r3, #1
 8000ad0:	60fb      	str	r3, [r7, #12]
 8000ad2:	68fb      	ldr	r3, [r7, #12]
  __HAL_RCC_GPIOB_CLK_ENABLE();
 8000ad4:	4b11      	ldr	r3, [pc, #68]	; (8000b1c <MX_GPIO_Init+0xa8>)
 8000ad6:	f8d3 30e0 	ldr.w	r3, [r3, #224]	; 0xe0
 8000ada:	4a10      	ldr	r2, [pc, #64]	; (8000b1c <MX_GPIO_Init+0xa8>)
 8000adc:	f043 0302 	orr.w	r3, r3, #2
 8000ae0:	f8c2 30e0 	str.w	r3, [r2, #224]	; 0xe0
 8000ae4:	4b0d      	ldr	r3, [pc, #52]	; (8000b1c <MX_GPIO_Init+0xa8>)
 8000ae6:	f8d3 30e0 	ldr.w	r3, [r3, #224]	; 0xe0
 8000aea:	f003 0302 	and.w	r3, r3, #2
 8000aee:	60bb      	str	r3, [r7, #8]
 8000af0:	68bb      	ldr	r3, [r7, #8]
  __HAL_RCC_GPIOG_CLK_ENABLE();
 8000af2:	4b0a      	ldr	r3, [pc, #40]	; (8000b1c <MX_GPIO_Init+0xa8>)
 8000af4:	f8d3 30e0 	ldr.w	r3, [r3, #224]	; 0xe0
 8000af8:	4a08      	ldr	r2, [pc, #32]	; (8000b1c <MX_GPIO_Init+0xa8>)
 8000afa:	f043 0340 	orr.w	r3, r3, #64	; 0x40
 8000afe:	f8c2 30e0 	str.w	r3, [r2, #224]	; 0xe0
 8000b02:	4b06      	ldr	r3, [pc, #24]	; (8000b1c <MX_GPIO_Init+0xa8>)
 8000b04:	f8d3 30e0 	ldr.w	r3, [r3, #224]	; 0xe0
 8000b08:	f003 0340 	and.w	r3, r3, #64	; 0x40
 8000b0c:	607b      	str	r3, [r7, #4]
 8000b0e:	687b      	ldr	r3, [r7, #4]

}
 8000b10:	bf00      	nop
 8000b12:	371c      	adds	r7, #28
 8000b14:	46bd      	mov	sp, r7
 8000b16:	f85d 7b04 	ldr.w	r7, [sp], #4
 8000b1a:	4770      	bx	lr
 8000b1c:	58024400 	.word	0x58024400

08000b20 <__io_putchar>:
/* USER CODE END PFP */

/* Private user code ---------------------------------------------------------*/
/* USER CODE BEGIN 0 */
int __io_putchar(int ch)
{
 8000b20:	b480      	push	{r7}
 8000b22:	b083      	sub	sp, #12
 8000b24:	af00      	add	r7, sp, #0
 8000b26:	6078      	str	r0, [r7, #4]

	while(!(USART1->ISR&0X0040))
 8000b28:	bf00      	nop
 8000b2a:	4b08      	ldr	r3, [pc, #32]	; (8000b4c <__io_putchar+0x2c>)
 8000b2c:	69db      	ldr	r3, [r3, #28]
 8000b2e:	f003 0340 	and.w	r3, r3, #64	; 0x40
 8000b32:	2b00      	cmp	r3, #0
 8000b34:	d0f9      	beq.n	8000b2a <__io_putchar+0xa>
	{
		;
	}
	USART1->TDR=ch;
 8000b36:	4a05      	ldr	r2, [pc, #20]	; (8000b4c <__io_putchar+0x2c>)
 8000b38:	687b      	ldr	r3, [r7, #4]
 8000b3a:	6293      	str	r3, [r2, #40]	; 0x28
	return ch;
 8000b3c:	687b      	ldr	r3, [r7, #4]
}
 8000b3e:	4618      	mov	r0, r3
 8000b40:	370c      	adds	r7, #12
 8000b42:	46bd      	mov	sp, r7
 8000b44:	f85d 7b04 	ldr.w	r7, [sp], #4
 8000b48:	4770      	bx	lr
 8000b4a:	bf00      	nop
 8000b4c:	40011000 	.word	0x40011000

08000b50 <main>:
/**
  * @brief  The application entry point.
  * @retval int
  */
int main(void)
{
 8000b50:	b580      	push	{r7, lr}
 8000b52:	b084      	sub	sp, #16
 8000b54:	af00      	add	r7, sp, #0
  #if defined (__DCACHE_PRESENT) && (__DCACHE_PRESENT == 1U)
    uint32_t ccsidr;
    uint32_t sets;
    uint32_t ways;

    if (SCB->CCR & SCB_CCR_DC_Msk) return;  /* return if DCache is already enabled */
 8000b56:	4b2a      	ldr	r3, [pc, #168]	; (8000c00 <main+0xb0>)
 8000b58:	695b      	ldr	r3, [r3, #20]
 8000b5a:	f403 3380 	and.w	r3, r3, #65536	; 0x10000
 8000b5e:	2b00      	cmp	r3, #0
 8000b60:	d138      	bne.n	8000bd4 <main+0x84>

    SCB->CSSELR = 0U;                       /* select Level 1 data cache */
 8000b62:	4b27      	ldr	r3, [pc, #156]	; (8000c00 <main+0xb0>)
 8000b64:	2200      	movs	r2, #0
 8000b66:	f8c3 2084 	str.w	r2, [r3, #132]	; 0x84
  \details Acts as a special kind of Data Memory Barrier.
           It completes when all explicit memory accesses before this instruction complete.
 */
__STATIC_FORCEINLINE void __DSB(void)
{
  __ASM volatile ("dsb 0xF":::"memory");
 8000b6a:	f3bf 8f4f 	dsb	sy
}
 8000b6e:	bf00      	nop
    __DSB();

    ccsidr = SCB->CCSIDR;
 8000b70:	4b23      	ldr	r3, [pc, #140]	; (8000c00 <main+0xb0>)
 8000b72:	f8d3 3080 	ldr.w	r3, [r3, #128]	; 0x80
 8000b76:	60fb      	str	r3, [r7, #12]

                                            /* invalidate D-Cache */
    sets = (uint32_t)(CCSIDR_SETS(ccsidr));
 8000b78:	68fb      	ldr	r3, [r7, #12]
 8000b7a:	0b5b      	lsrs	r3, r3, #13
 8000b7c:	f3c3 030e 	ubfx	r3, r3, #0, #15
 8000b80:	60bb      	str	r3, [r7, #8]
    do {
      ways = (uint32_t)(CCSIDR_WAYS(ccsidr));
 8000b82:	68fb      	ldr	r3, [r7, #12]
 8000b84:	08db      	lsrs	r3, r3, #3
 8000b86:	f3c3 0309 	ubfx	r3, r3, #0, #10
 8000b8a:	607b      	str	r3, [r7, #4]
      do {
        SCB->DCISW = (((sets << SCB_DCISW_SET_Pos) & SCB_DCISW_SET_Msk) |
 8000b8c:	68bb      	ldr	r3, [r7, #8]
 8000b8e:	015a      	lsls	r2, r3, #5
 8000b90:	f643 73e0 	movw	r3, #16352	; 0x3fe0
 8000b94:	4013      	ands	r3, r2
                      ((ways << SCB_DCISW_WAY_Pos) & SCB_DCISW_WAY_Msk)  );
 8000b96:	687a      	ldr	r2, [r7, #4]
 8000b98:	0792      	lsls	r2, r2, #30
        SCB->DCISW = (((sets << SCB_DCISW_SET_Pos) & SCB_DCISW_SET_Msk) |
 8000b9a:	4919      	ldr	r1, [pc, #100]	; (8000c00 <main+0xb0>)
 8000b9c:	4313      	orrs	r3, r2
 8000b9e:	f8c1 3260 	str.w	r3, [r1, #608]	; 0x260
        #if defined ( __CC_ARM )
          __schedule_barrier();
        #endif
      } while (ways-- != 0U);
 8000ba2:	687b      	ldr	r3, [r7, #4]
 8000ba4:	1e5a      	subs	r2, r3, #1
 8000ba6:	607a      	str	r2, [r7, #4]
 8000ba8:	2b00      	cmp	r3, #0
 8000baa:	d1ef      	bne.n	8000b8c <main+0x3c>
    } while(sets-- != 0U);
 8000bac:	68bb      	ldr	r3, [r7, #8]
 8000bae:	1e5a      	subs	r2, r3, #1
 8000bb0:	60ba      	str	r2, [r7, #8]
 8000bb2:	2b00      	cmp	r3, #0
 8000bb4:	d1e5      	bne.n	8000b82 <main+0x32>
  __ASM volatile ("dsb 0xF":::"memory");
 8000bb6:	f3bf 8f4f 	dsb	sy
}
 8000bba:	bf00      	nop
    __DSB();

    SCB->CCR |=  (uint32_t)SCB_CCR_DC_Msk;  /* enable D-Cache */
 8000bbc:	4b10      	ldr	r3, [pc, #64]	; (8000c00 <main+0xb0>)
 8000bbe:	695b      	ldr	r3, [r3, #20]
 8000bc0:	4a0f      	ldr	r2, [pc, #60]	; (8000c00 <main+0xb0>)
 8000bc2:	f443 3380 	orr.w	r3, r3, #65536	; 0x10000
 8000bc6:	6153      	str	r3, [r2, #20]
  __ASM volatile ("dsb 0xF":::"memory");
 8000bc8:	f3bf 8f4f 	dsb	sy
}
 8000bcc:	bf00      	nop
  __ASM volatile ("isb 0xF":::"memory");
 8000bce:	f3bf 8f6f 	isb	sy
}
 8000bd2:	e000      	b.n	8000bd6 <main+0x86>
    if (SCB->CCR & SCB_CCR_DC_Msk) return;  /* return if DCache is already enabled */
 8000bd4:	bf00      	nop
  SCB_EnableDCache();

  /* MCU Configuration--------------------------------------------------------*/

  /* Reset of all peripherals, Initializes the Flash interface and the Systick. */
  HAL_Init();
 8000bd6:	f000 fd0b 	bl	80015f0 <HAL_Init>

  /* MPU Configuration--------------------------------------------------------*/
  MPU_Config();
 8000bda:	f000 f8c3 	bl	8000d64 <MPU_Config>
  /* USER CODE BEGIN Init */
 //SCB_CleanInvalidateDCache();
  /* USER CODE END Init */

  /* Configure the system clock */
  SystemClock_Config();
 8000bde:	f000 f813 	bl	8000c08 <SystemClock_Config>

  /* USER CODE BEGIN SysInit */
  PCF8574_Init();
 8000be2:	f012 fd69 	bl	80136b8 <PCF8574_Init>
//  PCF8574_WriteBit(ETH_RESET_IO,0);       //¸´Î»½áÊø
//  HAL_Delay(100);
  /* USER CODE END SysInit */

  /* Initialize all configured peripherals */
  MX_GPIO_Init();
 8000be6:	f7ff ff45 	bl	8000a74 <MX_GPIO_Init>
  MX_USART1_UART_Init();
 8000bea:	f000 fab9 	bl	8001160 <MX_USART1_UART_Init>
  MX_LWIP_Init();
 8000bee:	f007 ff0d 	bl	8008a0c <MX_LWIP_Init>
  /* USER CODE BEGIN 2 */

  printf("Init OK\n");
 8000bf2:	4804      	ldr	r0, [pc, #16]	; (8000c04 <main+0xb4>)
 8000bf4:	f013 fe7e 	bl	80148f4 <puts>
  while (1)
  {
    /* USER CODE END WHILE */

    /* USER CODE BEGIN 3 */
	  MX_LWIP_Process();
 8000bf8:	f008 f854 	bl	8008ca4 <MX_LWIP_Process>
 8000bfc:	e7fc      	b.n	8000bf8 <main+0xa8>
 8000bfe:	bf00      	nop
 8000c00:	e000ed00 	.word	0xe000ed00
 8000c04:	08017fd8 	.word	0x08017fd8

08000c08 <SystemClock_Config>:
/**
  * @brief System Clock Configuration
  * @retval None
  */
void SystemClock_Config(void)
{
 8000c08:	b580      	push	{r7, lr}
 8000c0a:	b09e      	sub	sp, #120	; 0x78
 8000c0c:	af00      	add	r7, sp, #0
  RCC_OscInitTypeDef RCC_OscInitStruct = {0};
 8000c0e:	f107 032c 	add.w	r3, r7, #44	; 0x2c
 8000c12:	224c      	movs	r2, #76	; 0x4c
 8000c14:	2100      	movs	r1, #0
 8000c16:	4618      	mov	r0, r3
 8000c18:	f013 ff96 	bl	8014b48 <memset>
  RCC_ClkInitTypeDef RCC_ClkInitStruct = {0};
 8000c1c:	f107 030c 	add.w	r3, r7, #12
 8000c20:	2220      	movs	r2, #32
 8000c22:	2100      	movs	r1, #0
 8000c24:	4618      	mov	r0, r3
 8000c26:	f013 ff8f 	bl	8014b48 <memset>

  /** Supply configuration update enable
  */
  HAL_PWREx_ConfigSupply(PWR_LDO_SUPPLY);
 8000c2a:	2002      	movs	r0, #2
 8000c2c:	f003 fb94 	bl	8004358 <HAL_PWREx_ConfigSupply>

  /** Configure the main internal regulator output voltage
  */
  __HAL_PWR_VOLTAGESCALING_CONFIG(PWR_REGULATOR_VOLTAGE_SCALE1);
 8000c30:	2300      	movs	r3, #0
 8000c32:	60bb      	str	r3, [r7, #8]
 8000c34:	4b48      	ldr	r3, [pc, #288]	; (8000d58 <SystemClock_Config+0x150>)
 8000c36:	6adb      	ldr	r3, [r3, #44]	; 0x2c
 8000c38:	4a47      	ldr	r2, [pc, #284]	; (8000d58 <SystemClock_Config+0x150>)
 8000c3a:	f023 0301 	bic.w	r3, r3, #1
 8000c3e:	62d3      	str	r3, [r2, #44]	; 0x2c
 8000c40:	4b45      	ldr	r3, [pc, #276]	; (8000d58 <SystemClock_Config+0x150>)
 8000c42:	6adb      	ldr	r3, [r3, #44]	; 0x2c
 8000c44:	f003 0301 	and.w	r3, r3, #1
 8000c48:	60bb      	str	r3, [r7, #8]
 8000c4a:	4b44      	ldr	r3, [pc, #272]	; (8000d5c <SystemClock_Config+0x154>)
 8000c4c:	699b      	ldr	r3, [r3, #24]
 8000c4e:	4a43      	ldr	r2, [pc, #268]	; (8000d5c <SystemClock_Config+0x154>)
 8000c50:	f443 4340 	orr.w	r3, r3, #49152	; 0xc000
 8000c54:	6193      	str	r3, [r2, #24]
 8000c56:	4b41      	ldr	r3, [pc, #260]	; (8000d5c <SystemClock_Config+0x154>)
 8000c58:	699b      	ldr	r3, [r3, #24]
 8000c5a:	f403 4340 	and.w	r3, r3, #49152	; 0xc000
 8000c5e:	60bb      	str	r3, [r7, #8]
 8000c60:	68bb      	ldr	r3, [r7, #8]

  while(!__HAL_PWR_GET_FLAG(PWR_FLAG_VOSRDY)) {}
 8000c62:	bf00      	nop
 8000c64:	4b3d      	ldr	r3, [pc, #244]	; (8000d5c <SystemClock_Config+0x154>)
 8000c66:	699b      	ldr	r3, [r3, #24]
 8000c68:	f403 5300 	and.w	r3, r3, #8192	; 0x2000
 8000c6c:	f5b3 5f00 	cmp.w	r3, #8192	; 0x2000
 8000c70:	d1f8      	bne.n	8000c64 <SystemClock_Config+0x5c>

  __HAL_RCC_SYSCFG_CLK_ENABLE();
 8000c72:	4b3b      	ldr	r3, [pc, #236]	; (8000d60 <SystemClock_Config+0x158>)
 8000c74:	f8d3 30f4 	ldr.w	r3, [r3, #244]	; 0xf4
 8000c78:	4a39      	ldr	r2, [pc, #228]	; (8000d60 <SystemClock_Config+0x158>)
 8000c7a:	f043 0302 	orr.w	r3, r3, #2
 8000c7e:	f8c2 30f4 	str.w	r3, [r2, #244]	; 0xf4
 8000c82:	4b37      	ldr	r3, [pc, #220]	; (8000d60 <SystemClock_Config+0x158>)
 8000c84:	f8d3 30f4 	ldr.w	r3, [r3, #244]	; 0xf4
 8000c88:	f003 0302 	and.w	r3, r3, #2
 8000c8c:	607b      	str	r3, [r7, #4]
 8000c8e:	687b      	ldr	r3, [r7, #4]
  __HAL_PWR_VOLTAGESCALING_CONFIG(PWR_REGULATOR_VOLTAGE_SCALE0);
 8000c90:	2300      	movs	r3, #0
 8000c92:	603b      	str	r3, [r7, #0]
 8000c94:	4b31      	ldr	r3, [pc, #196]	; (8000d5c <SystemClock_Config+0x154>)
 8000c96:	699b      	ldr	r3, [r3, #24]
 8000c98:	4a30      	ldr	r2, [pc, #192]	; (8000d5c <SystemClock_Config+0x154>)
 8000c9a:	f443 4340 	orr.w	r3, r3, #49152	; 0xc000
 8000c9e:	6193      	str	r3, [r2, #24]
 8000ca0:	4b2e      	ldr	r3, [pc, #184]	; (8000d5c <SystemClock_Config+0x154>)
 8000ca2:	699b      	ldr	r3, [r3, #24]
 8000ca4:	f403 4340 	and.w	r3, r3, #49152	; 0xc000
 8000ca8:	603b      	str	r3, [r7, #0]
 8000caa:	4b2b      	ldr	r3, [pc, #172]	; (8000d58 <SystemClock_Config+0x150>)
 8000cac:	6adb      	ldr	r3, [r3, #44]	; 0x2c
 8000cae:	4a2a      	ldr	r2, [pc, #168]	; (8000d58 <SystemClock_Config+0x150>)
 8000cb0:	f043 0301 	orr.w	r3, r3, #1
 8000cb4:	62d3      	str	r3, [r2, #44]	; 0x2c
 8000cb6:	4b28      	ldr	r3, [pc, #160]	; (8000d58 <SystemClock_Config+0x150>)
 8000cb8:	6adb      	ldr	r3, [r3, #44]	; 0x2c
 8000cba:	f003 0301 	and.w	r3, r3, #1
 8000cbe:	603b      	str	r3, [r7, #0]
 8000cc0:	683b      	ldr	r3, [r7, #0]

  while(!__HAL_PWR_GET_FLAG(PWR_FLAG_VOSRDY)) {}
 8000cc2:	bf00      	nop
 8000cc4:	4b25      	ldr	r3, [pc, #148]	; (8000d5c <SystemClock_Config+0x154>)
 8000cc6:	699b      	ldr	r3, [r3, #24]
 8000cc8:	f403 5300 	and.w	r3, r3, #8192	; 0x2000
 8000ccc:	f5b3 5f00 	cmp.w	r3, #8192	; 0x2000
 8000cd0:	d1f8      	bne.n	8000cc4 <SystemClock_Config+0xbc>

  /** Initializes the RCC Oscillators according to the specified parameters
  * in the RCC_OscInitTypeDef structure.
  */
  RCC_OscInitStruct.OscillatorType = RCC_OSCILLATORTYPE_HSE;
 8000cd2:	2301      	movs	r3, #1
 8000cd4:	62fb      	str	r3, [r7, #44]	; 0x2c
  RCC_OscInitStruct.HSEState = RCC_HSE_ON;
 8000cd6:	f44f 3380 	mov.w	r3, #65536	; 0x10000
 8000cda:	633b      	str	r3, [r7, #48]	; 0x30
  RCC_OscInitStruct.PLL.PLLState = RCC_PLL_ON;
 8000cdc:	2302      	movs	r3, #2
 8000cde:	653b      	str	r3, [r7, #80]	; 0x50
  RCC_OscInitStruct.PLL.PLLSource = RCC_PLLSOURCE_HSE;
 8000ce0:	2302      	movs	r3, #2
 8000ce2:	657b      	str	r3, [r7, #84]	; 0x54
  RCC_OscInitStruct.PLL.PLLM = 5;
 8000ce4:	2305      	movs	r3, #5
 8000ce6:	65bb      	str	r3, [r7, #88]	; 0x58
  RCC_OscInitStruct.PLL.PLLN = 192;
 8000ce8:	23c0      	movs	r3, #192	; 0xc0
 8000cea:	65fb      	str	r3, [r7, #92]	; 0x5c
  RCC_OscInitStruct.PLL.PLLP = 2;
 8000cec:	2302      	movs	r3, #2
 8000cee:	663b      	str	r3, [r7, #96]	; 0x60
  RCC_OscInitStruct.PLL.PLLQ = 2;
 8000cf0:	2302      	movs	r3, #2
 8000cf2:	667b      	str	r3, [r7, #100]	; 0x64
  RCC_OscInitStruct.PLL.PLLR = 2;
 8000cf4:	2302      	movs	r3, #2
 8000cf6:	66bb      	str	r3, [r7, #104]	; 0x68
  RCC_OscInitStruct.PLL.PLLRGE = RCC_PLL1VCIRANGE_2;
 8000cf8:	2308      	movs	r3, #8
 8000cfa:	66fb      	str	r3, [r7, #108]	; 0x6c
  RCC_OscInitStruct.PLL.PLLVCOSEL = RCC_PLL1VCOWIDE;
 8000cfc:	2300      	movs	r3, #0
 8000cfe:	673b      	str	r3, [r7, #112]	; 0x70
  RCC_OscInitStruct.PLL.PLLFRACN = 0;
 8000d00:	2300      	movs	r3, #0
 8000d02:	677b      	str	r3, [r7, #116]	; 0x74
  if (HAL_RCC_OscConfig(&RCC_OscInitStruct) != HAL_OK)
 8000d04:	f107 032c 	add.w	r3, r7, #44	; 0x2c
 8000d08:	4618      	mov	r0, r3
 8000d0a:	f003 fb5f 	bl	80043cc <HAL_RCC_OscConfig>
 8000d0e:	4603      	mov	r3, r0
 8000d10:	2b00      	cmp	r3, #0
 8000d12:	d001      	beq.n	8000d18 <SystemClock_Config+0x110>
  {
    Error_Handler();
 8000d14:	f000 f86a 	bl	8000dec <Error_Handler>
  }

  /** Initializes the CPU, AHB and APB buses clocks
  */
  RCC_ClkInitStruct.ClockType = RCC_CLOCKTYPE_HCLK|RCC_CLOCKTYPE_SYSCLK
 8000d18:	233f      	movs	r3, #63	; 0x3f
 8000d1a:	60fb      	str	r3, [r7, #12]
                              |RCC_CLOCKTYPE_PCLK1|RCC_CLOCKTYPE_PCLK2
                              |RCC_CLOCKTYPE_D3PCLK1|RCC_CLOCKTYPE_D1PCLK1;
  RCC_ClkInitStruct.SYSCLKSource = RCC_SYSCLKSOURCE_PLLCLK;
 8000d1c:	2303      	movs	r3, #3
 8000d1e:	613b      	str	r3, [r7, #16]
  RCC_ClkInitStruct.SYSCLKDivider = RCC_SYSCLK_DIV1;
 8000d20:	2300      	movs	r3, #0
 8000d22:	617b      	str	r3, [r7, #20]
  RCC_ClkInitStruct.AHBCLKDivider = RCC_HCLK_DIV2;
 8000d24:	2308      	movs	r3, #8
 8000d26:	61bb      	str	r3, [r7, #24]
  RCC_ClkInitStruct.APB3CLKDivider = RCC_APB3_DIV2;
 8000d28:	2340      	movs	r3, #64	; 0x40
 8000d2a:	61fb      	str	r3, [r7, #28]
  RCC_ClkInitStruct.APB1CLKDivider = RCC_APB1_DIV2;
 8000d2c:	2340      	movs	r3, #64	; 0x40
 8000d2e:	623b      	str	r3, [r7, #32]
  RCC_ClkInitStruct.APB2CLKDivider = RCC_APB2_DIV2;
 8000d30:	f44f 6380 	mov.w	r3, #1024	; 0x400
 8000d34:	627b      	str	r3, [r7, #36]	; 0x24
  RCC_ClkInitStruct.APB4CLKDivider = RCC_APB4_DIV2;
 8000d36:	2340      	movs	r3, #64	; 0x40
 8000d38:	62bb      	str	r3, [r7, #40]	; 0x28

  if (HAL_RCC_ClockConfig(&RCC_ClkInitStruct, FLASH_LATENCY_4) != HAL_OK)
 8000d3a:	f107 030c 	add.w	r3, r7, #12
 8000d3e:	2104      	movs	r1, #4
 8000d40:	4618      	mov	r0, r3
 8000d42:	f003 ff9d 	bl	8004c80 <HAL_RCC_ClockConfig>
 8000d46:	4603      	mov	r3, r0
 8000d48:	2b00      	cmp	r3, #0
 8000d4a:	d001      	beq.n	8000d50 <SystemClock_Config+0x148>
  {
    Error_Handler();
 8000d4c:	f000 f84e 	bl	8000dec <Error_Handler>
  }
}
 8000d50:	bf00      	nop
 8000d52:	3778      	adds	r7, #120	; 0x78
 8000d54:	46bd      	mov	sp, r7
 8000d56:	bd80      	pop	{r7, pc}
 8000d58:	58000400 	.word	0x58000400
 8000d5c:	58024800 	.word	0x58024800
 8000d60:	58024400 	.word	0x58024400

08000d64 <MPU_Config>:

/* USER CODE BEGIN 4 */

static void MPU_Config(void)
{
 8000d64:	b580      	push	{r7, lr}
 8000d66:	b084      	sub	sp, #16
 8000d68:	af00      	add	r7, sp, #0
  MPU_Region_InitTypeDef MPU_InitStruct;

  /* Disable the MPU */
  HAL_MPU_Disable();
 8000d6a:	f000 fe27 	bl	80019bc <HAL_MPU_Disable>

  /* Configure the MPU attributes as Device not cacheable
     for ETH DMA descriptors */
  MPU_InitStruct.Enable = MPU_REGION_ENABLE;
 8000d6e:	2301      	movs	r3, #1
 8000d70:	703b      	strb	r3, [r7, #0]
  MPU_InitStruct.BaseAddress = 0x30040000;
 8000d72:	4b1c      	ldr	r3, [pc, #112]	; (8000de4 <MPU_Config+0x80>)
 8000d74:	607b      	str	r3, [r7, #4]
  MPU_InitStruct.Size = MPU_REGION_SIZE_256B;
 8000d76:	2307      	movs	r3, #7
 8000d78:	723b      	strb	r3, [r7, #8]
  MPU_InitStruct.AccessPermission = MPU_REGION_FULL_ACCESS;
 8000d7a:	2303      	movs	r3, #3
 8000d7c:	72fb      	strb	r3, [r7, #11]
  MPU_InitStruct.IsBufferable = MPU_ACCESS_BUFFERABLE;
 8000d7e:	2301      	movs	r3, #1
 8000d80:	73fb      	strb	r3, [r7, #15]
  MPU_InitStruct.IsCacheable = MPU_ACCESS_NOT_CACHEABLE;
 8000d82:	2300      	movs	r3, #0
 8000d84:	73bb      	strb	r3, [r7, #14]
  MPU_InitStruct.IsShareable = MPU_ACCESS_NOT_SHAREABLE;
 8000d86:	2300      	movs	r3, #0
 8000d88:	737b      	strb	r3, [r7, #13]
  MPU_InitStruct.Number = MPU_REGION_NUMBER0;
 8000d8a:	2300      	movs	r3, #0
 8000d8c:	707b      	strb	r3, [r7, #1]
  MPU_InitStruct.TypeExtField = MPU_TEX_LEVEL0;
 8000d8e:	2300      	movs	r3, #0
 8000d90:	72bb      	strb	r3, [r7, #10]
  MPU_InitStruct.SubRegionDisable = 0x00;
 8000d92:	2300      	movs	r3, #0
 8000d94:	727b      	strb	r3, [r7, #9]
  MPU_InitStruct.DisableExec = MPU_INSTRUCTION_ACCESS_ENABLE;
 8000d96:	2300      	movs	r3, #0
 8000d98:	733b      	strb	r3, [r7, #12]

  HAL_MPU_ConfigRegion(&MPU_InitStruct);
 8000d9a:	463b      	mov	r3, r7
 8000d9c:	4618      	mov	r0, r3
 8000d9e:	f000 fe45 	bl	8001a2c <HAL_MPU_ConfigRegion>

  /* Configure the MPU attributes as Cacheable write through
     for LwIP RAM heap which contains the Tx buffers */
  MPU_InitStruct.Enable = MPU_REGION_ENABLE;
 8000da2:	2301      	movs	r3, #1
 8000da4:	703b      	strb	r3, [r7, #0]
  MPU_InitStruct.BaseAddress = 0x30044000;
 8000da6:	4b10      	ldr	r3, [pc, #64]	; (8000de8 <MPU_Config+0x84>)
 8000da8:	607b      	str	r3, [r7, #4]
  MPU_InitStruct.Size = MPU_REGION_SIZE_16KB;
 8000daa:	230d      	movs	r3, #13
 8000dac:	723b      	strb	r3, [r7, #8]
  MPU_InitStruct.AccessPermission = MPU_REGION_FULL_ACCESS;
 8000dae:	2303      	movs	r3, #3
 8000db0:	72fb      	strb	r3, [r7, #11]
  MPU_InitStruct.IsBufferable = MPU_ACCESS_NOT_BUFFERABLE;
 8000db2:	2300      	movs	r3, #0
 8000db4:	73fb      	strb	r3, [r7, #15]
  MPU_InitStruct.IsCacheable = MPU_ACCESS_CACHEABLE;
 8000db6:	2301      	movs	r3, #1
 8000db8:	73bb      	strb	r3, [r7, #14]
  MPU_InitStruct.IsShareable = MPU_ACCESS_NOT_SHAREABLE;
 8000dba:	2300      	movs	r3, #0
 8000dbc:	737b      	strb	r3, [r7, #13]
  MPU_InitStruct.Number = MPU_REGION_NUMBER1;
 8000dbe:	2301      	movs	r3, #1
 8000dc0:	707b      	strb	r3, [r7, #1]
  MPU_InitStruct.TypeExtField = MPU_TEX_LEVEL0;
 8000dc2:	2300      	movs	r3, #0
 8000dc4:	72bb      	strb	r3, [r7, #10]
  MPU_InitStruct.SubRegionDisable = 0x00;
 8000dc6:	2300      	movs	r3, #0
 8000dc8:	727b      	strb	r3, [r7, #9]
  MPU_InitStruct.DisableExec = MPU_INSTRUCTION_ACCESS_ENABLE;
 8000dca:	2300      	movs	r3, #0
 8000dcc:	733b      	strb	r3, [r7, #12]

  HAL_MPU_ConfigRegion(&MPU_InitStruct);
 8000dce:	463b      	mov	r3, r7
 8000dd0:	4618      	mov	r0, r3
 8000dd2:	f000 fe2b 	bl	8001a2c <HAL_MPU_ConfigRegion>

  /* Enable the MPU */
  HAL_MPU_Enable(MPU_PRIVILEGED_DEFAULT);
 8000dd6:	2004      	movs	r0, #4
 8000dd8:	f000 fe08 	bl	80019ec <HAL_MPU_Enable>
}
 8000ddc:	bf00      	nop
 8000dde:	3710      	adds	r7, #16
 8000de0:	46bd      	mov	sp, r7
 8000de2:	bd80      	pop	{r7, pc}
 8000de4:	30040000 	.word	0x30040000
 8000de8:	30044000 	.word	0x30044000

08000dec <Error_Handler>:
/**
  * @brief  This function is executed in case of error occurrence.
  * @retval None
  */
void Error_Handler(void)
{
 8000dec:	b480      	push	{r7}
 8000dee:	af00      	add	r7, sp, #0
  __ASM volatile ("cpsid i" : : : "memory");
 8000df0:	b672      	cpsid	i
}
 8000df2:	bf00      	nop
  /* USER CODE BEGIN Error_Handler_Debug */
  /* User can add his own implementation to report the HAL error return state */
  __disable_irq();
  while (1)
 8000df4:	e7fe      	b.n	8000df4 <Error_Handler+0x8>
	...

08000df8 <HAL_MspInit>:
/* USER CODE END 0 */
/**
  * Initializes the Global MSP.
  */
void HAL_MspInit(void)
{
 8000df8:	b480      	push	{r7}
 8000dfa:	b083      	sub	sp, #12
 8000dfc:	af00      	add	r7, sp, #0
  /* USER CODE BEGIN MspInit 0 */

  /* USER CODE END MspInit 0 */

  __HAL_RCC_SYSCFG_CLK_ENABLE();
 8000dfe:	4b0a      	ldr	r3, [pc, #40]	; (8000e28 <HAL_MspInit+0x30>)
 8000e00:	f8d3 30f4 	ldr.w	r3, [r3, #244]	; 0xf4
 8000e04:	4a08      	ldr	r2, [pc, #32]	; (8000e28 <HAL_MspInit+0x30>)
 8000e06:	f043 0302 	orr.w	r3, r3, #2
 8000e0a:	f8c2 30f4 	str.w	r3, [r2, #244]	; 0xf4
 8000e0e:	4b06      	ldr	r3, [pc, #24]	; (8000e28 <HAL_MspInit+0x30>)
 8000e10:	f8d3 30f4 	ldr.w	r3, [r3, #244]	; 0xf4
 8000e14:	f003 0302 	and.w	r3, r3, #2
 8000e18:	607b      	str	r3, [r7, #4]
 8000e1a:	687b      	ldr	r3, [r7, #4]
  /* System interrupt init*/

  /* USER CODE BEGIN MspInit 1 */

  /* USER CODE END MspInit 1 */
}
 8000e1c:	bf00      	nop
 8000e1e:	370c      	adds	r7, #12
 8000e20:	46bd      	mov	sp, r7
 8000e22:	f85d 7b04 	ldr.w	r7, [sp], #4
 8000e26:	4770      	bx	lr
 8000e28:	58024400 	.word	0x58024400

08000e2c <NMI_Handler>:
/******************************************************************************/
/**
  * @brief This function handles Non maskable interrupt.
  */
void NMI_Handler(void)
{
 8000e2c:	b480      	push	{r7}
 8000e2e:	af00      	add	r7, sp, #0
  /* USER CODE BEGIN NonMaskableInt_IRQn 0 */

  /* USER CODE END NonMaskableInt_IRQn 0 */
  /* USER CODE BEGIN NonMaskableInt_IRQn 1 */
  while (1)
 8000e30:	e7fe      	b.n	8000e30 <NMI_Handler+0x4>

08000e32 <HardFault_Handler>:

/**
  * @brief This function handles Hard fault interrupt.
  */
void HardFault_Handler(void)
{
 8000e32:	b480      	push	{r7}
 8000e34:	af00      	add	r7, sp, #0
  /* USER CODE BEGIN HardFault_IRQn 0 */

  /* USER CODE END HardFault_IRQn 0 */
  while (1)
 8000e36:	e7fe      	b.n	8000e36 <HardFault_Handler+0x4>

08000e38 <MemManage_Handler>:

/**
  * @brief This function handles Memory management fault.
  */
void MemManage_Handler(void)
{
 8000e38:	b480      	push	{r7}
 8000e3a:	af00      	add	r7, sp, #0
  /* USER CODE BEGIN MemoryManagement_IRQn 0 */

  /* USER CODE END MemoryManagement_IRQn 0 */
  while (1)
 8000e3c:	e7fe      	b.n	8000e3c <MemManage_Handler+0x4>

08000e3e <BusFault_Handler>:

/**
  * @brief This function handles Pre-fetch fault, memory access fault.
  */
void BusFault_Handler(void)
{
 8000e3e:	b480      	push	{r7}
 8000e40:	af00      	add	r7, sp, #0
  /* USER CODE BEGIN BusFault_IRQn 0 */

  /* USER CODE END BusFault_IRQn 0 */
  while (1)
 8000e42:	e7fe      	b.n	8000e42 <BusFault_Handler+0x4>

08000e44 <UsageFault_Handler>:

/**
  * @brief This function handles Undefined instruction or illegal state.
  */
void UsageFault_Handler(void)
{
 8000e44:	b480      	push	{r7}
 8000e46:	af00      	add	r7, sp, #0
  /* USER CODE BEGIN UsageFault_IRQn 0 */

  /* USER CODE END UsageFault_IRQn 0 */
  while (1)
 8000e48:	e7fe      	b.n	8000e48 <UsageFault_Handler+0x4>

08000e4a <SVC_Handler>:

/**
  * @brief This function handles System service call via SWI instruction.
  */
void SVC_Handler(void)
{
 8000e4a:	b480      	push	{r7}
 8000e4c:	af00      	add	r7, sp, #0

  /* USER CODE END SVCall_IRQn 0 */
  /* USER CODE BEGIN SVCall_IRQn 1 */

  /* USER CODE END SVCall_IRQn 1 */
}
 8000e4e:	bf00      	nop
 8000e50:	46bd      	mov	sp, r7
 8000e52:	f85d 7b04 	ldr.w	r7, [sp], #4
 8000e56:	4770      	bx	lr

08000e58 <DebugMon_Handler>:

/**
  * @brief This function handles Debug monitor.
  */
void DebugMon_Handler(void)
{
 8000e58:	b480      	push	{r7}
 8000e5a:	af00      	add	r7, sp, #0

  /* USER CODE END DebugMonitor_IRQn 0 */
  /* USER CODE BEGIN DebugMonitor_IRQn 1 */

  /* USER CODE END DebugMonitor_IRQn 1 */
}
 8000e5c:	bf00      	nop
 8000e5e:	46bd      	mov	sp, r7
 8000e60:	f85d 7b04 	ldr.w	r7, [sp], #4
 8000e64:	4770      	bx	lr

08000e66 <PendSV_Handler>:

/**
  * @brief This function handles Pendable request for system service.
  */
void PendSV_Handler(void)
{
 8000e66:	b480      	push	{r7}
 8000e68:	af00      	add	r7, sp, #0

  /* USER CODE END PendSV_IRQn 0 */
  /* USER CODE BEGIN PendSV_IRQn 1 */

  /* USER CODE END PendSV_IRQn 1 */
}
 8000e6a:	bf00      	nop
 8000e6c:	46bd      	mov	sp, r7
 8000e6e:	f85d 7b04 	ldr.w	r7, [sp], #4
 8000e72:	4770      	bx	lr

08000e74 <SysTick_Handler>:

/**
  * @brief This function handles System tick timer.
  */
void SysTick_Handler(void)
{
 8000e74:	b580      	push	{r7, lr}
 8000e76:	af00      	add	r7, sp, #0
  /* USER CODE BEGIN SysTick_IRQn 0 */

  /* USER CODE END SysTick_IRQn 0 */
  HAL_IncTick();
 8000e78:	f000 fc2c 	bl	80016d4 <HAL_IncTick>
  /* USER CODE BEGIN SysTick_IRQn 1 */

  /* USER CODE END SysTick_IRQn 1 */
}
 8000e7c:	bf00      	nop
 8000e7e:	bd80      	pop	{r7, pc}

08000e80 <USART1_IRQHandler>:

/**
  * @brief This function handles USART1 global interrupt.
  */
void USART1_IRQHandler(void)
{
 8000e80:	b580      	push	{r7, lr}
 8000e82:	af00      	add	r7, sp, #0
  /* USER CODE BEGIN USART1_IRQn 0 */

  /* USER CODE END USART1_IRQn 0 */
  HAL_UART_IRQHandler(&huart1);
 8000e84:	4802      	ldr	r0, [pc, #8]	; (8000e90 <USART1_IRQHandler+0x10>)
 8000e86:	f006 f903 	bl	8007090 <HAL_UART_IRQHandler>
  /* USER CODE BEGIN USART1_IRQn 1 */

  /* USER CODE END USART1_IRQn 1 */
}
 8000e8a:	bf00      	nop
 8000e8c:	bd80      	pop	{r7, pc}
 8000e8e:	bf00      	nop
 8000e90:	24000218 	.word	0x24000218

08000e94 <ETH_IRQHandler>:

/**
  * @brief This function handles Ethernet global interrupt.
  */
void ETH_IRQHandler(void)
{
 8000e94:	b580      	push	{r7, lr}
 8000e96:	af00      	add	r7, sp, #0
  /* USER CODE BEGIN ETH_IRQn 0 */
////
  /* USER CODE END ETH_IRQn 0 */
  HAL_ETH_IRQHandler(&heth);
 8000e98:	4802      	ldr	r0, [pc, #8]	; (8000ea4 <ETH_IRQHandler+0x10>)
 8000e9a:	f001 fecd 	bl	8002c38 <HAL_ETH_IRQHandler>
  /* USER CODE BEGIN ETH_IRQn 1 */
////
  /* USER CODE END ETH_IRQn 1 */
}
 8000e9e:	bf00      	nop
 8000ea0:	bd80      	pop	{r7, pc}
 8000ea2:	bf00      	nop
 8000ea4:	24004d54 	.word	0x24004d54

08000ea8 <ETH_WKUP_IRQHandler>:

/**
  * @brief This function handles Ethernet wake-up interrupt through EXTI line 86.
  */
void ETH_WKUP_IRQHandler(void)
{
 8000ea8:	b580      	push	{r7, lr}
 8000eaa:	af00      	add	r7, sp, #0
  /* USER CODE BEGIN ETH_WKUP_IRQn 0 */

  /* USER CODE END ETH_WKUP_IRQn 0 */
  HAL_ETH_IRQHandler(&heth);
 8000eac:	4802      	ldr	r0, [pc, #8]	; (8000eb8 <ETH_WKUP_IRQHandler+0x10>)
 8000eae:	f001 fec3 	bl	8002c38 <HAL_ETH_IRQHandler>
  /* USER CODE BEGIN ETH_WKUP_IRQn 1 */

  /* USER CODE END ETH_WKUP_IRQn 1 */
}
 8000eb2:	bf00      	nop
 8000eb4:	bd80      	pop	{r7, pc}
 8000eb6:	bf00      	nop
 8000eb8:	24004d54 	.word	0x24004d54

08000ebc <_getpid>:
void initialise_monitor_handles()
{
}

int _getpid(void)
{
 8000ebc:	b480      	push	{r7}
 8000ebe:	af00      	add	r7, sp, #0
  return 1;
 8000ec0:	2301      	movs	r3, #1
}
 8000ec2:	4618      	mov	r0, r3
 8000ec4:	46bd      	mov	sp, r7
 8000ec6:	f85d 7b04 	ldr.w	r7, [sp], #4
 8000eca:	4770      	bx	lr

08000ecc <_kill>:

int _kill(int pid, int sig)
{
 8000ecc:	b480      	push	{r7}
 8000ece:	b083      	sub	sp, #12
 8000ed0:	af00      	add	r7, sp, #0
 8000ed2:	6078      	str	r0, [r7, #4]
 8000ed4:	6039      	str	r1, [r7, #0]
  (void)pid;
  (void)sig;
  errno = EINVAL;
 8000ed6:	4b05      	ldr	r3, [pc, #20]	; (8000eec <_kill+0x20>)
 8000ed8:	2216      	movs	r2, #22
 8000eda:	601a      	str	r2, [r3, #0]
  return -1;
 8000edc:	f04f 33ff 	mov.w	r3, #4294967295
}
 8000ee0:	4618      	mov	r0, r3
 8000ee2:	370c      	adds	r7, #12
 8000ee4:	46bd      	mov	sp, r7
 8000ee6:	f85d 7b04 	ldr.w	r7, [sp], #4
 8000eea:	4770      	bx	lr
 8000eec:	24008054 	.word	0x24008054

08000ef0 <_exit>:

void _exit (int status)
{
 8000ef0:	b580      	push	{r7, lr}
 8000ef2:	b082      	sub	sp, #8
 8000ef4:	af00      	add	r7, sp, #0
 8000ef6:	6078      	str	r0, [r7, #4]
  _kill(status, -1);
 8000ef8:	f04f 31ff 	mov.w	r1, #4294967295
 8000efc:	6878      	ldr	r0, [r7, #4]
 8000efe:	f7ff ffe5 	bl	8000ecc <_kill>
  while (1) {}    /* Make sure we hang here */
 8000f02:	e7fe      	b.n	8000f02 <_exit+0x12>

08000f04 <_read>:
}

__attribute__((weak)) int _read(int file, char *ptr, int len)
{
 8000f04:	b580      	push	{r7, lr}
 8000f06:	b086      	sub	sp, #24
 8000f08:	af00      	add	r7, sp, #0
 8000f0a:	60f8      	str	r0, [r7, #12]
 8000f0c:	60b9      	str	r1, [r7, #8]
 8000f0e:	607a      	str	r2, [r7, #4]
  (void)file;
  int DataIdx;

  for (DataIdx = 0; DataIdx < len; DataIdx++)
 8000f10:	2300      	movs	r3, #0
 8000f12:	617b      	str	r3, [r7, #20]
 8000f14:	e00a      	b.n	8000f2c <_read+0x28>
  {
    *ptr++ = __io_getchar();
 8000f16:	f3af 8000 	nop.w
 8000f1a:	4601      	mov	r1, r0
 8000f1c:	68bb      	ldr	r3, [r7, #8]
 8000f1e:	1c5a      	adds	r2, r3, #1
 8000f20:	60ba      	str	r2, [r7, #8]
 8000f22:	b2ca      	uxtb	r2, r1
 8000f24:	701a      	strb	r2, [r3, #0]
  for (DataIdx = 0; DataIdx < len; DataIdx++)
 8000f26:	697b      	ldr	r3, [r7, #20]
 8000f28:	3301      	adds	r3, #1
 8000f2a:	617b      	str	r3, [r7, #20]
 8000f2c:	697a      	ldr	r2, [r7, #20]
 8000f2e:	687b      	ldr	r3, [r7, #4]
 8000f30:	429a      	cmp	r2, r3
 8000f32:	dbf0      	blt.n	8000f16 <_read+0x12>
  }

  return len;
 8000f34:	687b      	ldr	r3, [r7, #4]
}
 8000f36:	4618      	mov	r0, r3
 8000f38:	3718      	adds	r7, #24
 8000f3a:	46bd      	mov	sp, r7
 8000f3c:	bd80      	pop	{r7, pc}

08000f3e <_write>:

__attribute__((weak)) int _write(int file, char *ptr, int len)
{
 8000f3e:	b580      	push	{r7, lr}
 8000f40:	b086      	sub	sp, #24
 8000f42:	af00      	add	r7, sp, #0
 8000f44:	60f8      	str	r0, [r7, #12]
 8000f46:	60b9      	str	r1, [r7, #8]
 8000f48:	607a      	str	r2, [r7, #4]
  (void)file;
  int DataIdx;

  for (DataIdx = 0; DataIdx < len; DataIdx++)
 8000f4a:	2300      	movs	r3, #0
 8000f4c:	617b      	str	r3, [r7, #20]
 8000f4e:	e009      	b.n	8000f64 <_write+0x26>
  {
    __io_putchar(*ptr++);
 8000f50:	68bb      	ldr	r3, [r7, #8]
 8000f52:	1c5a      	adds	r2, r3, #1
 8000f54:	60ba      	str	r2, [r7, #8]
 8000f56:	781b      	ldrb	r3, [r3, #0]
 8000f58:	4618      	mov	r0, r3
 8000f5a:	f7ff fde1 	bl	8000b20 <__io_putchar>
  for (DataIdx = 0; DataIdx < len; DataIdx++)
 8000f5e:	697b      	ldr	r3, [r7, #20]
 8000f60:	3301      	adds	r3, #1
 8000f62:	617b      	str	r3, [r7, #20]
 8000f64:	697a      	ldr	r2, [r7, #20]
 8000f66:	687b      	ldr	r3, [r7, #4]
 8000f68:	429a      	cmp	r2, r3
 8000f6a:	dbf1      	blt.n	8000f50 <_write+0x12>
  }
  return len;
 8000f6c:	687b      	ldr	r3, [r7, #4]
}
 8000f6e:	4618      	mov	r0, r3
 8000f70:	3718      	adds	r7, #24
 8000f72:	46bd      	mov	sp, r7
 8000f74:	bd80      	pop	{r7, pc}

08000f76 <_close>:

int _close(int file)
{
 8000f76:	b480      	push	{r7}
 8000f78:	b083      	sub	sp, #12
 8000f7a:	af00      	add	r7, sp, #0
 8000f7c:	6078      	str	r0, [r7, #4]
  (void)file;
  return -1;
 8000f7e:	f04f 33ff 	mov.w	r3, #4294967295
}
 8000f82:	4618      	mov	r0, r3
 8000f84:	370c      	adds	r7, #12
 8000f86:	46bd      	mov	sp, r7
 8000f88:	f85d 7b04 	ldr.w	r7, [sp], #4
 8000f8c:	4770      	bx	lr

08000f8e <_fstat>:


int _fstat(int file, struct stat *st)
{
 8000f8e:	b480      	push	{r7}
 8000f90:	b083      	sub	sp, #12
 8000f92:	af00      	add	r7, sp, #0
 8000f94:	6078      	str	r0, [r7, #4]
 8000f96:	6039      	str	r1, [r7, #0]
  (void)file;
  st->st_mode = S_IFCHR;
 8000f98:	683b      	ldr	r3, [r7, #0]
 8000f9a:	f44f 5200 	mov.w	r2, #8192	; 0x2000
 8000f9e:	605a      	str	r2, [r3, #4]
  return 0;
 8000fa0:	2300      	movs	r3, #0
}
 8000fa2:	4618      	mov	r0, r3
 8000fa4:	370c      	adds	r7, #12
 8000fa6:	46bd      	mov	sp, r7
 8000fa8:	f85d 7b04 	ldr.w	r7, [sp], #4
 8000fac:	4770      	bx	lr

08000fae <_isatty>:

int _isatty(int file)
{
 8000fae:	b480      	push	{r7}
 8000fb0:	b083      	sub	sp, #12
 8000fb2:	af00      	add	r7, sp, #0
 8000fb4:	6078      	str	r0, [r7, #4]
  (void)file;
  return 1;
 8000fb6:	2301      	movs	r3, #1
}
 8000fb8:	4618      	mov	r0, r3
 8000fba:	370c      	adds	r7, #12
 8000fbc:	46bd      	mov	sp, r7
 8000fbe:	f85d 7b04 	ldr.w	r7, [sp], #4
 8000fc2:	4770      	bx	lr

08000fc4 <_lseek>:

int _lseek(int file, int ptr, int dir)
{
 8000fc4:	b480      	push	{r7}
 8000fc6:	b085      	sub	sp, #20
 8000fc8:	af00      	add	r7, sp, #0
 8000fca:	60f8      	str	r0, [r7, #12]
 8000fcc:	60b9      	str	r1, [r7, #8]
 8000fce:	607a      	str	r2, [r7, #4]
  (void)file;
  (void)ptr;
  (void)dir;
  return 0;
 8000fd0:	2300      	movs	r3, #0
}
 8000fd2:	4618      	mov	r0, r3
 8000fd4:	3714      	adds	r7, #20
 8000fd6:	46bd      	mov	sp, r7
 8000fd8:	f85d 7b04 	ldr.w	r7, [sp], #4
 8000fdc:	4770      	bx	lr
	...

08000fe0 <_sbrk>:
 *
 * @param incr Memory size
 * @return Pointer to allocated memory
 */
void *_sbrk(ptrdiff_t incr)
{
 8000fe0:	b480      	push	{r7}
 8000fe2:	b087      	sub	sp, #28
 8000fe4:	af00      	add	r7, sp, #0
 8000fe6:	6078      	str	r0, [r7, #4]
  extern uint8_t _end; /* Symbol defined in the linker script */
  extern uint8_t _estack; /* Symbol defined in the linker script */
  extern uint32_t _Min_Stack_Size; /* Symbol defined in the linker script */
  const uint32_t stack_limit = (uint32_t)&_estack - (uint32_t)&_Min_Stack_Size;
 8000fe8:	4a14      	ldr	r2, [pc, #80]	; (800103c <_sbrk+0x5c>)
 8000fea:	4b15      	ldr	r3, [pc, #84]	; (8001040 <_sbrk+0x60>)
 8000fec:	1ad3      	subs	r3, r2, r3
 8000fee:	617b      	str	r3, [r7, #20]
  const uint8_t *max_heap = (uint8_t *)stack_limit;
 8000ff0:	697b      	ldr	r3, [r7, #20]
 8000ff2:	613b      	str	r3, [r7, #16]
  uint8_t *prev_heap_end;

  /* Initialize heap end at first call */
  if (NULL == __sbrk_heap_end)
 8000ff4:	4b13      	ldr	r3, [pc, #76]	; (8001044 <_sbrk+0x64>)
 8000ff6:	681b      	ldr	r3, [r3, #0]
 8000ff8:	2b00      	cmp	r3, #0
 8000ffa:	d102      	bne.n	8001002 <_sbrk+0x22>
  {
    __sbrk_heap_end = &_end;
 8000ffc:	4b11      	ldr	r3, [pc, #68]	; (8001044 <_sbrk+0x64>)
 8000ffe:	4a12      	ldr	r2, [pc, #72]	; (8001048 <_sbrk+0x68>)
 8001000:	601a      	str	r2, [r3, #0]
  }

  /* Protect heap from growing into the reserved MSP stack */
  if (__sbrk_heap_end + incr > max_heap)
 8001002:	4b10      	ldr	r3, [pc, #64]	; (8001044 <_sbrk+0x64>)
 8001004:	681a      	ldr	r2, [r3, #0]
 8001006:	687b      	ldr	r3, [r7, #4]
 8001008:	4413      	add	r3, r2
 800100a:	693a      	ldr	r2, [r7, #16]
 800100c:	429a      	cmp	r2, r3
 800100e:	d205      	bcs.n	800101c <_sbrk+0x3c>
  {
    errno = ENOMEM;
 8001010:	4b0e      	ldr	r3, [pc, #56]	; (800104c <_sbrk+0x6c>)
 8001012:	220c      	movs	r2, #12
 8001014:	601a      	str	r2, [r3, #0]
    return (void *)-1;
 8001016:	f04f 33ff 	mov.w	r3, #4294967295
 800101a:	e009      	b.n	8001030 <_sbrk+0x50>
  }

  prev_heap_end = __sbrk_heap_end;
 800101c:	4b09      	ldr	r3, [pc, #36]	; (8001044 <_sbrk+0x64>)
 800101e:	681b      	ldr	r3, [r3, #0]
 8001020:	60fb      	str	r3, [r7, #12]
  __sbrk_heap_end += incr;
 8001022:	4b08      	ldr	r3, [pc, #32]	; (8001044 <_sbrk+0x64>)
 8001024:	681a      	ldr	r2, [r3, #0]
 8001026:	687b      	ldr	r3, [r7, #4]
 8001028:	4413      	add	r3, r2
 800102a:	4a06      	ldr	r2, [pc, #24]	; (8001044 <_sbrk+0x64>)
 800102c:	6013      	str	r3, [r2, #0]

  return (void *)prev_heap_end;
 800102e:	68fb      	ldr	r3, [r7, #12]
}
 8001030:	4618      	mov	r0, r3
 8001032:	371c      	adds	r7, #28
 8001034:	46bd      	mov	sp, r7
 8001036:	f85d 7b04 	ldr.w	r7, [sp], #4
 800103a:	4770      	bx	lr
 800103c:	24080000 	.word	0x24080000
 8001040:	00004000 	.word	0x00004000
 8001044:	24000214 	.word	0x24000214
 8001048:	24008068 	.word	0x24008068
 800104c:	24008054 	.word	0x24008054

08001050 <SystemInit>:
  *         configuration.
  * @param  None
  * @retval None
  */
void SystemInit (void)
{
 8001050:	b480      	push	{r7}
 8001052:	af00      	add	r7, sp, #0
 __IO uint32_t tmpreg;
#endif /* DATA_IN_D2_SRAM */

  /* FPU settings ------------------------------------------------------------*/
  #if (__FPU_PRESENT == 1) && (__FPU_USED == 1)
    SCB->CPACR |= ((3UL << (10*2))|(3UL << (11*2)));  /* set CP10 and CP11 Full Access */
 8001054:	4b37      	ldr	r3, [pc, #220]	; (8001134 <SystemInit+0xe4>)
 8001056:	f8d3 3088 	ldr.w	r3, [r3, #136]	; 0x88
 800105a:	4a36      	ldr	r2, [pc, #216]	; (8001134 <SystemInit+0xe4>)
 800105c:	f443 0370 	orr.w	r3, r3, #15728640	; 0xf00000
 8001060:	f8c2 3088 	str.w	r3, [r2, #136]	; 0x88
  #endif
  /* Reset the RCC clock configuration to the default reset state ------------*/

   /* Increasing the CPU frequency */
  if(FLASH_LATENCY_DEFAULT  > (READ_BIT((FLASH->ACR), FLASH_ACR_LATENCY)))
 8001064:	4b34      	ldr	r3, [pc, #208]	; (8001138 <SystemInit+0xe8>)
 8001066:	681b      	ldr	r3, [r3, #0]
 8001068:	f003 030f 	and.w	r3, r3, #15
 800106c:	2b06      	cmp	r3, #6
 800106e:	d807      	bhi.n	8001080 <SystemInit+0x30>
  {
    /* Program the new number of wait states to the LATENCY bits in the FLASH_ACR register */
    MODIFY_REG(FLASH->ACR, FLASH_ACR_LATENCY, (uint32_t)(FLASH_LATENCY_DEFAULT));
 8001070:	4b31      	ldr	r3, [pc, #196]	; (8001138 <SystemInit+0xe8>)
 8001072:	681b      	ldr	r3, [r3, #0]
 8001074:	f023 030f 	bic.w	r3, r3, #15
 8001078:	4a2f      	ldr	r2, [pc, #188]	; (8001138 <SystemInit+0xe8>)
 800107a:	f043 0307 	orr.w	r3, r3, #7
 800107e:	6013      	str	r3, [r2, #0]
  }

  /* Set HSION bit */
  RCC->CR |= RCC_CR_HSION;
 8001080:	4b2e      	ldr	r3, [pc, #184]	; (800113c <SystemInit+0xec>)
 8001082:	681b      	ldr	r3, [r3, #0]
 8001084:	4a2d      	ldr	r2, [pc, #180]	; (800113c <SystemInit+0xec>)
 8001086:	f043 0301 	orr.w	r3, r3, #1
 800108a:	6013      	str	r3, [r2, #0]

  /* Reset CFGR register */
  RCC->CFGR = 0x00000000;
 800108c:	4b2b      	ldr	r3, [pc, #172]	; (800113c <SystemInit+0xec>)
 800108e:	2200      	movs	r2, #0
 8001090:	611a      	str	r2, [r3, #16]

  /* Reset HSEON, HSECSSON, CSION, HSI48ON, CSIKERON, PLL1ON, PLL2ON and PLL3ON bits */
  RCC->CR &= 0xEAF6ED7FU;
 8001092:	4b2a      	ldr	r3, [pc, #168]	; (800113c <SystemInit+0xec>)
 8001094:	681a      	ldr	r2, [r3, #0]
 8001096:	4929      	ldr	r1, [pc, #164]	; (800113c <SystemInit+0xec>)
 8001098:	4b29      	ldr	r3, [pc, #164]	; (8001140 <SystemInit+0xf0>)
 800109a:	4013      	ands	r3, r2
 800109c:	600b      	str	r3, [r1, #0]

   /* Decreasing the number of wait states because of lower CPU frequency */
  if(FLASH_LATENCY_DEFAULT  < (READ_BIT((FLASH->ACR), FLASH_ACR_LATENCY)))
 800109e:	4b26      	ldr	r3, [pc, #152]	; (8001138 <SystemInit+0xe8>)
 80010a0:	681b      	ldr	r3, [r3, #0]
 80010a2:	f003 0308 	and.w	r3, r3, #8
 80010a6:	2b00      	cmp	r3, #0
 80010a8:	d007      	beq.n	80010ba <SystemInit+0x6a>
  {
    /* Program the new number of wait states to the LATENCY bits in the FLASH_ACR register */
    MODIFY_REG(FLASH->ACR, FLASH_ACR_LATENCY, (uint32_t)(FLASH_LATENCY_DEFAULT));
 80010aa:	4b23      	ldr	r3, [pc, #140]	; (8001138 <SystemInit+0xe8>)
 80010ac:	681b      	ldr	r3, [r3, #0]
 80010ae:	f023 030f 	bic.w	r3, r3, #15
 80010b2:	4a21      	ldr	r2, [pc, #132]	; (8001138 <SystemInit+0xe8>)
 80010b4:	f043 0307 	orr.w	r3, r3, #7
 80010b8:	6013      	str	r3, [r2, #0]
  }

#if defined(D3_SRAM_BASE)
  /* Reset D1CFGR register */
  RCC->D1CFGR = 0x00000000;
 80010ba:	4b20      	ldr	r3, [pc, #128]	; (800113c <SystemInit+0xec>)
 80010bc:	2200      	movs	r2, #0
 80010be:	619a      	str	r2, [r3, #24]

  /* Reset D2CFGR register */
  RCC->D2CFGR = 0x00000000;
 80010c0:	4b1e      	ldr	r3, [pc, #120]	; (800113c <SystemInit+0xec>)
 80010c2:	2200      	movs	r2, #0
 80010c4:	61da      	str	r2, [r3, #28]

  /* Reset D3CFGR register */
  RCC->D3CFGR = 0x00000000;
 80010c6:	4b1d      	ldr	r3, [pc, #116]	; (800113c <SystemInit+0xec>)
 80010c8:	2200      	movs	r2, #0
 80010ca:	621a      	str	r2, [r3, #32]

  /* Reset SRDCFGR register */
  RCC->SRDCFGR = 0x00000000;
#endif
  /* Reset PLLCKSELR register */
  RCC->PLLCKSELR = 0x02020200;
 80010cc:	4b1b      	ldr	r3, [pc, #108]	; (800113c <SystemInit+0xec>)
 80010ce:	4a1d      	ldr	r2, [pc, #116]	; (8001144 <SystemInit+0xf4>)
 80010d0:	629a      	str	r2, [r3, #40]	; 0x28

  /* Reset PLLCFGR register */
  RCC->PLLCFGR = 0x01FF0000;
 80010d2:	4b1a      	ldr	r3, [pc, #104]	; (800113c <SystemInit+0xec>)
 80010d4:	4a1c      	ldr	r2, [pc, #112]	; (8001148 <SystemInit+0xf8>)
 80010d6:	62da      	str	r2, [r3, #44]	; 0x2c
  /* Reset PLL1DIVR register */
  RCC->PLL1DIVR = 0x01010280;
 80010d8:	4b18      	ldr	r3, [pc, #96]	; (800113c <SystemInit+0xec>)
 80010da:	4a1c      	ldr	r2, [pc, #112]	; (800114c <SystemInit+0xfc>)
 80010dc:	631a      	str	r2, [r3, #48]	; 0x30
  /* Reset PLL1FRACR register */
  RCC->PLL1FRACR = 0x00000000;
 80010de:	4b17      	ldr	r3, [pc, #92]	; (800113c <SystemInit+0xec>)
 80010e0:	2200      	movs	r2, #0
 80010e2:	635a      	str	r2, [r3, #52]	; 0x34

  /* Reset PLL2DIVR register */
  RCC->PLL2DIVR = 0x01010280;
 80010e4:	4b15      	ldr	r3, [pc, #84]	; (800113c <SystemInit+0xec>)
 80010e6:	4a19      	ldr	r2, [pc, #100]	; (800114c <SystemInit+0xfc>)
 80010e8:	639a      	str	r2, [r3, #56]	; 0x38

  /* Reset PLL2FRACR register */

  RCC->PLL2FRACR = 0x00000000;
 80010ea:	4b14      	ldr	r3, [pc, #80]	; (800113c <SystemInit+0xec>)
 80010ec:	2200      	movs	r2, #0
 80010ee:	63da      	str	r2, [r3, #60]	; 0x3c
  /* Reset PLL3DIVR register */
  RCC->PLL3DIVR = 0x01010280;
 80010f0:	4b12      	ldr	r3, [pc, #72]	; (800113c <SystemInit+0xec>)
 80010f2:	4a16      	ldr	r2, [pc, #88]	; (800114c <SystemInit+0xfc>)
 80010f4:	641a      	str	r2, [r3, #64]	; 0x40

  /* Reset PLL3FRACR register */
  RCC->PLL3FRACR = 0x00000000;
 80010f6:	4b11      	ldr	r3, [pc, #68]	; (800113c <SystemInit+0xec>)
 80010f8:	2200      	movs	r2, #0
 80010fa:	645a      	str	r2, [r3, #68]	; 0x44

  /* Reset HSEBYP bit */
  RCC->CR &= 0xFFFBFFFFU;
 80010fc:	4b0f      	ldr	r3, [pc, #60]	; (800113c <SystemInit+0xec>)
 80010fe:	681b      	ldr	r3, [r3, #0]
 8001100:	4a0e      	ldr	r2, [pc, #56]	; (800113c <SystemInit+0xec>)
 8001102:	f423 2380 	bic.w	r3, r3, #262144	; 0x40000
 8001106:	6013      	str	r3, [r2, #0]

  /* Disable all interrupts */
  RCC->CIER = 0x00000000;
 8001108:	4b0c      	ldr	r3, [pc, #48]	; (800113c <SystemInit+0xec>)
 800110a:	2200      	movs	r2, #0
 800110c:	661a      	str	r2, [r3, #96]	; 0x60

#if (STM32H7_DEV_ID == 0x450UL)
  /* dual core CM7 or single core line */
  if((DBGMCU->IDCODE & 0xFFFF0000U) < 0x20000000U)
 800110e:	4b10      	ldr	r3, [pc, #64]	; (8001150 <SystemInit+0x100>)
 8001110:	681a      	ldr	r2, [r3, #0]
 8001112:	4b10      	ldr	r3, [pc, #64]	; (8001154 <SystemInit+0x104>)
 8001114:	4013      	ands	r3, r2
 8001116:	f1b3 5f00 	cmp.w	r3, #536870912	; 0x20000000
 800111a:	d202      	bcs.n	8001122 <SystemInit+0xd2>
  {
    /* if stm32h7 revY*/
    /* Change  the switch matrix read issuing capability to 1 for the AXI SRAM target (Target 7) */
    *((__IO uint32_t*)0x51008108) = 0x000000001U;
 800111c:	4b0e      	ldr	r3, [pc, #56]	; (8001158 <SystemInit+0x108>)
 800111e:	2201      	movs	r2, #1
 8001120:	601a      	str	r2, [r3, #0]
  /*
   * Disable the FMC bank1 (enabled after reset).
   * This, prevents CPU speculation access on this bank which blocks the use of FMC during
   * 24us. During this time the others FMC master (such as LTDC) cannot use it!
   */
  FMC_Bank1_R->BTCR[0] = 0x000030D2;
 8001122:	4b0e      	ldr	r3, [pc, #56]	; (800115c <SystemInit+0x10c>)
 8001124:	f243 02d2 	movw	r2, #12498	; 0x30d2
 8001128:	601a      	str	r2, [r3, #0]
#if defined(USER_VECT_TAB_ADDRESS)
  SCB->VTOR = VECT_TAB_BASE_ADDRESS | VECT_TAB_OFFSET; /* Vector Table Relocation in Internal D1 AXI-RAM or in Internal FLASH */
#endif /* USER_VECT_TAB_ADDRESS */

#endif /*DUAL_CORE && CORE_CM4*/
}
 800112a:	bf00      	nop
 800112c:	46bd      	mov	sp, r7
 800112e:	f85d 7b04 	ldr.w	r7, [sp], #4
 8001132:	4770      	bx	lr
 8001134:	e000ed00 	.word	0xe000ed00
 8001138:	52002000 	.word	0x52002000
 800113c:	58024400 	.word	0x58024400
 8001140:	eaf6ed7f 	.word	0xeaf6ed7f
 8001144:	02020200 	.word	0x02020200
 8001148:	01ff0000 	.word	0x01ff0000
 800114c:	01010280 	.word	0x01010280
 8001150:	5c001000 	.word	0x5c001000
 8001154:	ffff0000 	.word	0xffff0000
 8001158:	51008108 	.word	0x51008108
 800115c:	52004000 	.word	0x52004000

08001160 <MX_USART1_UART_Init>:
UART_HandleTypeDef huart1;

/* USART1 init function */

void MX_USART1_UART_Init(void)
{
 8001160:	b580      	push	{r7, lr}
 8001162:	af00      	add	r7, sp, #0
  /* USER CODE END USART1_Init 0 */

  /* USER CODE BEGIN USART1_Init 1 */

  /* USER CODE END USART1_Init 1 */
  huart1.Instance = USART1;
 8001164:	4b22      	ldr	r3, [pc, #136]	; (80011f0 <MX_USART1_UART_Init+0x90>)
 8001166:	4a23      	ldr	r2, [pc, #140]	; (80011f4 <MX_USART1_UART_Init+0x94>)
 8001168:	601a      	str	r2, [r3, #0]
  huart1.Init.BaudRate = 115200;
 800116a:	4b21      	ldr	r3, [pc, #132]	; (80011f0 <MX_USART1_UART_Init+0x90>)
 800116c:	f44f 32e1 	mov.w	r2, #115200	; 0x1c200
 8001170:	605a      	str	r2, [r3, #4]
  huart1.Init.WordLength = UART_WORDLENGTH_8B;
 8001172:	4b1f      	ldr	r3, [pc, #124]	; (80011f0 <MX_USART1_UART_Init+0x90>)
 8001174:	2200      	movs	r2, #0
 8001176:	609a      	str	r2, [r3, #8]
  huart1.Init.StopBits = UART_STOPBITS_1;
 8001178:	4b1d      	ldr	r3, [pc, #116]	; (80011f0 <MX_USART1_UART_Init+0x90>)
 800117a:	2200      	movs	r2, #0
 800117c:	60da      	str	r2, [r3, #12]
  huart1.Init.Parity = UART_PARITY_NONE;
 800117e:	4b1c      	ldr	r3, [pc, #112]	; (80011f0 <MX_USART1_UART_Init+0x90>)
 8001180:	2200      	movs	r2, #0
 8001182:	611a      	str	r2, [r3, #16]
  huart1.Init.Mode = UART_MODE_TX_RX;
 8001184:	4b1a      	ldr	r3, [pc, #104]	; (80011f0 <MX_USART1_UART_Init+0x90>)
 8001186:	220c      	movs	r2, #12
 8001188:	615a      	str	r2, [r3, #20]
  huart1.Init.HwFlowCtl = UART_HWCONTROL_NONE;
 800118a:	4b19      	ldr	r3, [pc, #100]	; (80011f0 <MX_USART1_UART_Init+0x90>)
 800118c:	2200      	movs	r2, #0
 800118e:	619a      	str	r2, [r3, #24]
  huart1.Init.OverSampling = UART_OVERSAMPLING_16;
 8001190:	4b17      	ldr	r3, [pc, #92]	; (80011f0 <MX_USART1_UART_Init+0x90>)
 8001192:	2200      	movs	r2, #0
 8001194:	61da      	str	r2, [r3, #28]
  huart1.Init.OneBitSampling = UART_ONE_BIT_SAMPLE_DISABLE;
 8001196:	4b16      	ldr	r3, [pc, #88]	; (80011f0 <MX_USART1_UART_Init+0x90>)
 8001198:	2200      	movs	r2, #0
 800119a:	621a      	str	r2, [r3, #32]
  huart1.Init.ClockPrescaler = UART_PRESCALER_DIV1;
 800119c:	4b14      	ldr	r3, [pc, #80]	; (80011f0 <MX_USART1_UART_Init+0x90>)
 800119e:	2200      	movs	r2, #0
 80011a0:	625a      	str	r2, [r3, #36]	; 0x24
  huart1.AdvancedInit.AdvFeatureInit = UART_ADVFEATURE_NO_INIT;
 80011a2:	4b13      	ldr	r3, [pc, #76]	; (80011f0 <MX_USART1_UART_Init+0x90>)
 80011a4:	2200      	movs	r2, #0
 80011a6:	629a      	str	r2, [r3, #40]	; 0x28
  if (HAL_UART_Init(&huart1) != HAL_OK)
 80011a8:	4811      	ldr	r0, [pc, #68]	; (80011f0 <MX_USART1_UART_Init+0x90>)
 80011aa:	f005 ff21 	bl	8006ff0 <HAL_UART_Init>
 80011ae:	4603      	mov	r3, r0
 80011b0:	2b00      	cmp	r3, #0
 80011b2:	d001      	beq.n	80011b8 <MX_USART1_UART_Init+0x58>
  {
    Error_Handler();
 80011b4:	f7ff fe1a 	bl	8000dec <Error_Handler>
  }
  if (HAL_UARTEx_SetTxFifoThreshold(&huart1, UART_TXFIFO_THRESHOLD_1_8) != HAL_OK)
 80011b8:	2100      	movs	r1, #0
 80011ba:	480d      	ldr	r0, [pc, #52]	; (80011f0 <MX_USART1_UART_Init+0x90>)
 80011bc:	f007 fb5c 	bl	8008878 <HAL_UARTEx_SetTxFifoThreshold>
 80011c0:	4603      	mov	r3, r0
 80011c2:	2b00      	cmp	r3, #0
 80011c4:	d001      	beq.n	80011ca <MX_USART1_UART_Init+0x6a>
  {
    Error_Handler();
 80011c6:	f7ff fe11 	bl	8000dec <Error_Handler>
  }
  if (HAL_UARTEx_SetRxFifoThreshold(&huart1, UART_RXFIFO_THRESHOLD_1_8) != HAL_OK)
 80011ca:	2100      	movs	r1, #0
 80011cc:	4808      	ldr	r0, [pc, #32]	; (80011f0 <MX_USART1_UART_Init+0x90>)
 80011ce:	f007 fb91 	bl	80088f4 <HAL_UARTEx_SetRxFifoThreshold>
 80011d2:	4603      	mov	r3, r0
 80011d4:	2b00      	cmp	r3, #0
 80011d6:	d001      	beq.n	80011dc <MX_USART1_UART_Init+0x7c>
  {
    Error_Handler();
 80011d8:	f7ff fe08 	bl	8000dec <Error_Handler>
  }
  if (HAL_UARTEx_DisableFifoMode(&huart1) != HAL_OK)
 80011dc:	4804      	ldr	r0, [pc, #16]	; (80011f0 <MX_USART1_UART_Init+0x90>)
 80011de:	f007 fb12 	bl	8008806 <HAL_UARTEx_DisableFifoMode>
 80011e2:	4603      	mov	r3, r0
 80011e4:	2b00      	cmp	r3, #0
 80011e6:	d001      	beq.n	80011ec <MX_USART1_UART_Init+0x8c>
  {
    Error_Handler();
 80011e8:	f7ff fe00 	bl	8000dec <Error_Handler>
  }
  /* USER CODE BEGIN USART1_Init 2 */

  /* USER CODE END USART1_Init 2 */

}
 80011ec:	bf00      	nop
 80011ee:	bd80      	pop	{r7, pc}
 80011f0:	24000218 	.word	0x24000218
 80011f4:	40011000 	.word	0x40011000

080011f8 <HAL_UART_MspInit>:

void HAL_UART_MspInit(UART_HandleTypeDef* uartHandle)
{
 80011f8:	b580      	push	{r7, lr}
 80011fa:	b0ba      	sub	sp, #232	; 0xe8
 80011fc:	af00      	add	r7, sp, #0
 80011fe:	6078      	str	r0, [r7, #4]

  GPIO_InitTypeDef GPIO_InitStruct = {0};
 8001200:	f107 03d4 	add.w	r3, r7, #212	; 0xd4
 8001204:	2200      	movs	r2, #0
 8001206:	601a      	str	r2, [r3, #0]
 8001208:	605a      	str	r2, [r3, #4]
 800120a:	609a      	str	r2, [r3, #8]
 800120c:	60da      	str	r2, [r3, #12]
 800120e:	611a      	str	r2, [r3, #16]
  RCC_PeriphCLKInitTypeDef PeriphClkInitStruct = {0};
 8001210:	f107 0310 	add.w	r3, r7, #16
 8001214:	22c0      	movs	r2, #192	; 0xc0
 8001216:	2100      	movs	r1, #0
 8001218:	4618      	mov	r0, r3
 800121a:	f013 fc95 	bl	8014b48 <memset>
  if(uartHandle->Instance==USART1)
 800121e:	687b      	ldr	r3, [r7, #4]
 8001220:	681b      	ldr	r3, [r3, #0]
 8001222:	4a2b      	ldr	r2, [pc, #172]	; (80012d0 <HAL_UART_MspInit+0xd8>)
 8001224:	4293      	cmp	r3, r2
 8001226:	d14e      	bne.n	80012c6 <HAL_UART_MspInit+0xce>

  /* USER CODE END USART1_MspInit 0 */

  /** Initializes the peripherals clock
  */
    PeriphClkInitStruct.PeriphClockSelection = RCC_PERIPHCLK_USART1;
 8001228:	f04f 0201 	mov.w	r2, #1
 800122c:	f04f 0300 	mov.w	r3, #0
 8001230:	e9c7 2304 	strd	r2, r3, [r7, #16]
    PeriphClkInitStruct.Usart16ClockSelection = RCC_USART16CLKSOURCE_D2PCLK2;
 8001234:	2300      	movs	r3, #0
 8001236:	f8c7 308c 	str.w	r3, [r7, #140]	; 0x8c
    if (HAL_RCCEx_PeriphCLKConfig(&PeriphClkInitStruct) != HAL_OK)
 800123a:	f107 0310 	add.w	r3, r7, #16
 800123e:	4618      	mov	r0, r3
 8001240:	f004 f8aa 	bl	8005398 <HAL_RCCEx_PeriphCLKConfig>
 8001244:	4603      	mov	r3, r0
 8001246:	2b00      	cmp	r3, #0
 8001248:	d001      	beq.n	800124e <HAL_UART_MspInit+0x56>
    {
      Error_Handler();
 800124a:	f7ff fdcf 	bl	8000dec <Error_Handler>
    }

    /* USART1 clock enable */
    __HAL_RCC_USART1_CLK_ENABLE();
 800124e:	4b21      	ldr	r3, [pc, #132]	; (80012d4 <HAL_UART_MspInit+0xdc>)
 8001250:	f8d3 30f0 	ldr.w	r3, [r3, #240]	; 0xf0
 8001254:	4a1f      	ldr	r2, [pc, #124]	; (80012d4 <HAL_UART_MspInit+0xdc>)
 8001256:	f043 0310 	orr.w	r3, r3, #16
 800125a:	f8c2 30f0 	str.w	r3, [r2, #240]	; 0xf0
 800125e:	4b1d      	ldr	r3, [pc, #116]	; (80012d4 <HAL_UART_MspInit+0xdc>)
 8001260:	f8d3 30f0 	ldr.w	r3, [r3, #240]	; 0xf0
 8001264:	f003 0310 	and.w	r3, r3, #16
 8001268:	60fb      	str	r3, [r7, #12]
 800126a:	68fb      	ldr	r3, [r7, #12]

    __HAL_RCC_GPIOA_CLK_ENABLE();
 800126c:	4b19      	ldr	r3, [pc, #100]	; (80012d4 <HAL_UART_MspInit+0xdc>)
 800126e:	f8d3 30e0 	ldr.w	r3, [r3, #224]	; 0xe0
 8001272:	4a18      	ldr	r2, [pc, #96]	; (80012d4 <HAL_UART_MspInit+0xdc>)
 8001274:	f043 0301 	orr.w	r3, r3, #1
 8001278:	f8c2 30e0 	str.w	r3, [r2, #224]	; 0xe0
 800127c:	4b15      	ldr	r3, [pc, #84]	; (80012d4 <HAL_UART_MspInit+0xdc>)
 800127e:	f8d3 30e0 	ldr.w	r3, [r3, #224]	; 0xe0
 8001282:	f003 0301 	and.w	r3, r3, #1
 8001286:	60bb      	str	r3, [r7, #8]
 8001288:	68bb      	ldr	r3, [r7, #8]
    /**USART1 GPIO Configuration
    PA9     ------> USART1_TX
    PA10     ------> USART1_RX
    */
    GPIO_InitStruct.Pin = GPIO_PIN_9|GPIO_PIN_10;
 800128a:	f44f 63c0 	mov.w	r3, #1536	; 0x600
 800128e:	f8c7 30d4 	str.w	r3, [r7, #212]	; 0xd4
    GPIO_InitStruct.Mode = GPIO_MODE_AF_PP;
 8001292:	2302      	movs	r3, #2
 8001294:	f8c7 30d8 	str.w	r3, [r7, #216]	; 0xd8
    GPIO_InitStruct.Pull = GPIO_NOPULL;
 8001298:	2300      	movs	r3, #0
 800129a:	f8c7 30dc 	str.w	r3, [r7, #220]	; 0xdc
    GPIO_InitStruct.Speed = GPIO_SPEED_FREQ_LOW;
 800129e:	2300      	movs	r3, #0
 80012a0:	f8c7 30e0 	str.w	r3, [r7, #224]	; 0xe0
    GPIO_InitStruct.Alternate = GPIO_AF7_USART1;
 80012a4:	2307      	movs	r3, #7
 80012a6:	f8c7 30e4 	str.w	r3, [r7, #228]	; 0xe4
    HAL_GPIO_Init(GPIOA, &GPIO_InitStruct);
 80012aa:	f107 03d4 	add.w	r3, r7, #212	; 0xd4
 80012ae:	4619      	mov	r1, r3
 80012b0:	4809      	ldr	r0, [pc, #36]	; (80012d8 <HAL_UART_MspInit+0xe0>)
 80012b2:	f002 fe6f 	bl	8003f94 <HAL_GPIO_Init>

    /* USART1 interrupt Init */
    HAL_NVIC_SetPriority(USART1_IRQn, 0, 0);
 80012b6:	2200      	movs	r2, #0
 80012b8:	2100      	movs	r1, #0
 80012ba:	2025      	movs	r0, #37	; 0x25
 80012bc:	f000 fb49 	bl	8001952 <HAL_NVIC_SetPriority>
    HAL_NVIC_EnableIRQ(USART1_IRQn);
 80012c0:	2025      	movs	r0, #37	; 0x25
 80012c2:	f000 fb60 	bl	8001986 <HAL_NVIC_EnableIRQ>
  /* USER CODE BEGIN USART1_MspInit 1 */

  /* USER CODE END USART1_MspInit 1 */
  }
}
 80012c6:	bf00      	nop
 80012c8:	37e8      	adds	r7, #232	; 0xe8
 80012ca:	46bd      	mov	sp, r7
 80012cc:	bd80      	pop	{r7, pc}
 80012ce:	bf00      	nop
 80012d0:	40011000 	.word	0x40011000
 80012d4:	58024400 	.word	0x58024400
 80012d8:	58020000 	.word	0x58020000

080012dc <Reset_Handler>:

    .section  .text.Reset_Handler
  .weak  Reset_Handler
  .type  Reset_Handler, %function
Reset_Handler:
  ldr   sp, =_estack      /* set stack pointer */
 80012dc:	f8df d034 	ldr.w	sp, [pc, #52]	; 8001314 <LoopFillZerobss+0xe>

/* Call the clock system initialization function.*/
  bl  SystemInit
 80012e0:	f7ff feb6 	bl	8001050 <SystemInit>

/* Copy the data segment initializers from flash to SRAM */
  ldr r0, =_sdata
 80012e4:	480c      	ldr	r0, [pc, #48]	; (8001318 <LoopFillZerobss+0x12>)
  ldr r1, =_edata
 80012e6:	490d      	ldr	r1, [pc, #52]	; (800131c <LoopFillZerobss+0x16>)
  ldr r2, =_sidata
 80012e8:	4a0d      	ldr	r2, [pc, #52]	; (8001320 <LoopFillZerobss+0x1a>)
  movs r3, #0
 80012ea:	2300      	movs	r3, #0
  b LoopCopyDataInit
 80012ec:	e002      	b.n	80012f4 <LoopCopyDataInit>

080012ee <CopyDataInit>:

CopyDataInit:
  ldr r4, [r2, r3]
 80012ee:	58d4      	ldr	r4, [r2, r3]
  str r4, [r0, r3]
 80012f0:	50c4      	str	r4, [r0, r3]
  adds r3, r3, #4
 80012f2:	3304      	adds	r3, #4

080012f4 <LoopCopyDataInit>:

LoopCopyDataInit:
  adds r4, r0, r3
 80012f4:	18c4      	adds	r4, r0, r3
  cmp r4, r1
 80012f6:	428c      	cmp	r4, r1
  bcc CopyDataInit
 80012f8:	d3f9      	bcc.n	80012ee <CopyDataInit>
/* Zero fill the bss segment. */
  ldr r2, =_sbss
 80012fa:	4a0a      	ldr	r2, [pc, #40]	; (8001324 <LoopFillZerobss+0x1e>)
  ldr r4, =_ebss
 80012fc:	4c0a      	ldr	r4, [pc, #40]	; (8001328 <LoopFillZerobss+0x22>)
  movs r3, #0
 80012fe:	2300      	movs	r3, #0
  b LoopFillZerobss
 8001300:	e001      	b.n	8001306 <LoopFillZerobss>

08001302 <FillZerobss>:

FillZerobss:
  str  r3, [r2]
 8001302:	6013      	str	r3, [r2, #0]
  adds r2, r2, #4
 8001304:	3204      	adds	r2, #4

08001306 <LoopFillZerobss>:

LoopFillZerobss:
  cmp r2, r4
 8001306:	42a2      	cmp	r2, r4
  bcc FillZerobss
 8001308:	d3fb      	bcc.n	8001302 <FillZerobss>

/* Call static constructors */
    bl __libc_init_array
 800130a:	f013 fc87 	bl	8014c1c <__libc_init_array>
/* Call the application's entry point.*/
  bl  main
 800130e:	f7ff fc1f 	bl	8000b50 <main>
  bx  lr
 8001312:	4770      	bx	lr
  ldr   sp, =_estack      /* set stack pointer */
 8001314:	24080000 	.word	0x24080000
  ldr r0, =_sdata
 8001318:	24000000 	.word	0x24000000
  ldr r1, =_edata
 800131c:	240001f8 	.word	0x240001f8
  ldr r2, =_sidata
 8001320:	0801b0dc 	.word	0x0801b0dc
  ldr r2, =_sbss
 8001324:	240001f8 	.word	0x240001f8
  ldr r4, =_ebss
 8001328:	24008064 	.word	0x24008064

0800132c <ADC3_IRQHandler>:
 * @retval None
*/
    .section  .text.Default_Handler,"ax",%progbits
Default_Handler:
Infinite_Loop:
  b  Infinite_Loop
 800132c:	e7fe      	b.n	800132c <ADC3_IRQHandler>

0800132e <LAN8742_RegisterBusIO>:
  * @param  ioctx: holds device IO functions.  
  * @retval LAN8742_STATUS_OK  if OK
  *         LAN8742_STATUS_ERROR if missing mandatory function
  */
int32_t  LAN8742_RegisterBusIO(lan8742_Object_t *pObj, lan8742_IOCtx_t *ioctx)
{
 800132e:	b480      	push	{r7}
 8001330:	b083      	sub	sp, #12
 8001332:	af00      	add	r7, sp, #0
 8001334:	6078      	str	r0, [r7, #4]
 8001336:	6039      	str	r1, [r7, #0]
  if(!pObj || !ioctx->ReadReg || !ioctx->WriteReg || !ioctx->GetTick)
 8001338:	687b      	ldr	r3, [r7, #4]
 800133a:	2b00      	cmp	r3, #0
 800133c:	d00b      	beq.n	8001356 <LAN8742_RegisterBusIO+0x28>
 800133e:	683b      	ldr	r3, [r7, #0]
 8001340:	68db      	ldr	r3, [r3, #12]
 8001342:	2b00      	cmp	r3, #0
 8001344:	d007      	beq.n	8001356 <LAN8742_RegisterBusIO+0x28>
 8001346:	683b      	ldr	r3, [r7, #0]
 8001348:	689b      	ldr	r3, [r3, #8]
 800134a:	2b00      	cmp	r3, #0
 800134c:	d003      	beq.n	8001356 <LAN8742_RegisterBusIO+0x28>
 800134e:	683b      	ldr	r3, [r7, #0]
 8001350:	691b      	ldr	r3, [r3, #16]
 8001352:	2b00      	cmp	r3, #0
 8001354:	d102      	bne.n	800135c <LAN8742_RegisterBusIO+0x2e>
  {
    return LAN8742_STATUS_ERROR;
 8001356:	f04f 33ff 	mov.w	r3, #4294967295
 800135a:	e014      	b.n	8001386 <LAN8742_RegisterBusIO+0x58>
  }
  
  pObj->IO.Init = ioctx->Init;
 800135c:	683b      	ldr	r3, [r7, #0]
 800135e:	681a      	ldr	r2, [r3, #0]
 8001360:	687b      	ldr	r3, [r7, #4]
 8001362:	609a      	str	r2, [r3, #8]
  pObj->IO.DeInit = ioctx->DeInit;
 8001364:	683b      	ldr	r3, [r7, #0]
 8001366:	685a      	ldr	r2, [r3, #4]
 8001368:	687b      	ldr	r3, [r7, #4]
 800136a:	60da      	str	r2, [r3, #12]
  pObj->IO.ReadReg = ioctx->ReadReg;
 800136c:	683b      	ldr	r3, [r7, #0]
 800136e:	68da      	ldr	r2, [r3, #12]
 8001370:	687b      	ldr	r3, [r7, #4]
 8001372:	615a      	str	r2, [r3, #20]
  pObj->IO.WriteReg = ioctx->WriteReg;
 8001374:	683b      	ldr	r3, [r7, #0]
 8001376:	689a      	ldr	r2, [r3, #8]
 8001378:	687b      	ldr	r3, [r7, #4]
 800137a:	611a      	str	r2, [r3, #16]
  pObj->IO.GetTick = ioctx->GetTick;
 800137c:	683b      	ldr	r3, [r7, #0]
 800137e:	691a      	ldr	r2, [r3, #16]
 8001380:	687b      	ldr	r3, [r7, #4]
 8001382:	619a      	str	r2, [r3, #24]
  
  return LAN8742_STATUS_OK;
 8001384:	2300      	movs	r3, #0
}
 8001386:	4618      	mov	r0, r3
 8001388:	370c      	adds	r7, #12
 800138a:	46bd      	mov	sp, r7
 800138c:	f85d 7b04 	ldr.w	r7, [sp], #4
 8001390:	4770      	bx	lr

08001392 <LAN8742_Init>:
  *         LAN8742_STATUS_READ_ERROR if connot read register
  *         LAN8742_STATUS_WRITE_ERROR if connot write to register
  *         LAN8742_STATUS_RESET_TIMEOUT if cannot perform a software reset
  */
 int32_t LAN8742_Init(lan8742_Object_t *pObj)
 {
 8001392:	b580      	push	{r7, lr}
 8001394:	b086      	sub	sp, #24
 8001396:	af00      	add	r7, sp, #0
 8001398:	6078      	str	r0, [r7, #4]
   uint32_t tickstart = 0, regvalue = 0, addr = 0;
 800139a:	2300      	movs	r3, #0
 800139c:	60fb      	str	r3, [r7, #12]
 800139e:	2300      	movs	r3, #0
 80013a0:	60bb      	str	r3, [r7, #8]
 80013a2:	2300      	movs	r3, #0
 80013a4:	617b      	str	r3, [r7, #20]
   int32_t status = LAN8742_STATUS_OK;
 80013a6:	2300      	movs	r3, #0
 80013a8:	613b      	str	r3, [r7, #16]
   
   if(pObj->Is_Initialized == 0)
 80013aa:	687b      	ldr	r3, [r7, #4]
 80013ac:	685b      	ldr	r3, [r3, #4]
 80013ae:	2b00      	cmp	r3, #0
 80013b0:	d17c      	bne.n	80014ac <LAN8742_Init+0x11a>
   {
     if(pObj->IO.Init != 0)
 80013b2:	687b      	ldr	r3, [r7, #4]
 80013b4:	689b      	ldr	r3, [r3, #8]
 80013b6:	2b00      	cmp	r3, #0
 80013b8:	d002      	beq.n	80013c0 <LAN8742_Init+0x2e>
     {
       /* GPIO and Clocks initialization */
       pObj->IO.Init();
 80013ba:	687b      	ldr	r3, [r7, #4]
 80013bc:	689b      	ldr	r3, [r3, #8]
 80013be:	4798      	blx	r3
     }
   
     /* for later check */
     pObj->DevAddr = LAN8742_MAX_DEV_ADDR + 1;
 80013c0:	687b      	ldr	r3, [r7, #4]
 80013c2:	2220      	movs	r2, #32
 80013c4:	601a      	str	r2, [r3, #0]
   
     /* Get the device address from special mode register */  
     for(addr = 0; addr <= LAN8742_MAX_DEV_ADDR; addr ++)
 80013c6:	2300      	movs	r3, #0
 80013c8:	617b      	str	r3, [r7, #20]
 80013ca:	e01c      	b.n	8001406 <LAN8742_Init+0x74>
     {
       if(pObj->IO.ReadReg(addr, LAN8742_SMR, &regvalue) < 0)
 80013cc:	687b      	ldr	r3, [r7, #4]
 80013ce:	695b      	ldr	r3, [r3, #20]
 80013d0:	f107 0208 	add.w	r2, r7, #8
 80013d4:	2112      	movs	r1, #18
 80013d6:	6978      	ldr	r0, [r7, #20]
 80013d8:	4798      	blx	r3
 80013da:	4603      	mov	r3, r0
 80013dc:	2b00      	cmp	r3, #0
 80013de:	da03      	bge.n	80013e8 <LAN8742_Init+0x56>
       { 
         status = LAN8742_STATUS_READ_ERROR;
 80013e0:	f06f 0304 	mvn.w	r3, #4
 80013e4:	613b      	str	r3, [r7, #16]
         /* Can't read from this device address 
            continue with next address */
         continue;
 80013e6:	e00b      	b.n	8001400 <LAN8742_Init+0x6e>
       }
     
       if((regvalue & LAN8742_SMR_PHY_ADDR) == addr)
 80013e8:	68bb      	ldr	r3, [r7, #8]
 80013ea:	f003 031f 	and.w	r3, r3, #31
 80013ee:	697a      	ldr	r2, [r7, #20]
 80013f0:	429a      	cmp	r2, r3
 80013f2:	d105      	bne.n	8001400 <LAN8742_Init+0x6e>
       {
         pObj->DevAddr = addr;
 80013f4:	687b      	ldr	r3, [r7, #4]
 80013f6:	697a      	ldr	r2, [r7, #20]
 80013f8:	601a      	str	r2, [r3, #0]
         status = LAN8742_STATUS_OK;
 80013fa:	2300      	movs	r3, #0
 80013fc:	613b      	str	r3, [r7, #16]
         break;
 80013fe:	e005      	b.n	800140c <LAN8742_Init+0x7a>
     for(addr = 0; addr <= LAN8742_MAX_DEV_ADDR; addr ++)
 8001400:	697b      	ldr	r3, [r7, #20]
 8001402:	3301      	adds	r3, #1
 8001404:	617b      	str	r3, [r7, #20]
 8001406:	697b      	ldr	r3, [r7, #20]
 8001408:	2b1f      	cmp	r3, #31
 800140a:	d9df      	bls.n	80013cc <LAN8742_Init+0x3a>
       }
     }
   
     if(pObj->DevAddr > LAN8742_MAX_DEV_ADDR)
 800140c:	687b      	ldr	r3, [r7, #4]
 800140e:	681b      	ldr	r3, [r3, #0]
 8001410:	2b1f      	cmp	r3, #31
 8001412:	d902      	bls.n	800141a <LAN8742_Init+0x88>
     {
       status = LAN8742_STATUS_ADDRESS_ERROR;
 8001414:	f06f 0302 	mvn.w	r3, #2
 8001418:	613b      	str	r3, [r7, #16]
     }
     
     /* if device address is matched */
     if(status == LAN8742_STATUS_OK)
 800141a:	693b      	ldr	r3, [r7, #16]
 800141c:	2b00      	cmp	r3, #0
 800141e:	d145      	bne.n	80014ac <LAN8742_Init+0x11a>
     {
       /* set a software reset  */
       if(pObj->IO.WriteReg(pObj->DevAddr, LAN8742_BCR, LAN8742_BCR_SOFT_RESET) >= 0)
 8001420:	687b      	ldr	r3, [r7, #4]
 8001422:	691b      	ldr	r3, [r3, #16]
 8001424:	687a      	ldr	r2, [r7, #4]
 8001426:	6810      	ldr	r0, [r2, #0]
 8001428:	f44f 4200 	mov.w	r2, #32768	; 0x8000
 800142c:	2100      	movs	r1, #0
 800142e:	4798      	blx	r3
 8001430:	4603      	mov	r3, r0
 8001432:	2b00      	cmp	r3, #0
 8001434:	db37      	blt.n	80014a6 <LAN8742_Init+0x114>
       { 
         /* get software reset status */
         if(pObj->IO.ReadReg(pObj->DevAddr, LAN8742_BCR, &regvalue) >= 0)
 8001436:	687b      	ldr	r3, [r7, #4]
 8001438:	695b      	ldr	r3, [r3, #20]
 800143a:	687a      	ldr	r2, [r7, #4]
 800143c:	6810      	ldr	r0, [r2, #0]
 800143e:	f107 0208 	add.w	r2, r7, #8
 8001442:	2100      	movs	r1, #0
 8001444:	4798      	blx	r3
 8001446:	4603      	mov	r3, r0
 8001448:	2b00      	cmp	r3, #0
 800144a:	db28      	blt.n	800149e <LAN8742_Init+0x10c>
         { 
           tickstart = pObj->IO.GetTick();
 800144c:	687b      	ldr	r3, [r7, #4]
 800144e:	699b      	ldr	r3, [r3, #24]
 8001450:	4798      	blx	r3
 8001452:	4603      	mov	r3, r0
 8001454:	60fb      	str	r3, [r7, #12]
           
           /* wait until software reset is done or timeout occured  */
           while(regvalue & LAN8742_BCR_SOFT_RESET)
 8001456:	e01c      	b.n	8001492 <LAN8742_Init+0x100>
           {
             if((pObj->IO.GetTick() - tickstart) <= LAN8742_SW_RESET_TO)
 8001458:	687b      	ldr	r3, [r7, #4]
 800145a:	699b      	ldr	r3, [r3, #24]
 800145c:	4798      	blx	r3
 800145e:	4603      	mov	r3, r0
 8001460:	461a      	mov	r2, r3
 8001462:	68fb      	ldr	r3, [r7, #12]
 8001464:	1ad3      	subs	r3, r2, r3
 8001466:	f5b3 7ffa 	cmp.w	r3, #500	; 0x1f4
 800146a:	d80e      	bhi.n	800148a <LAN8742_Init+0xf8>
             {
               if(pObj->IO.ReadReg(pObj->DevAddr, LAN8742_BCR, &regvalue) < 0)
 800146c:	687b      	ldr	r3, [r7, #4]
 800146e:	695b      	ldr	r3, [r3, #20]
 8001470:	687a      	ldr	r2, [r7, #4]
 8001472:	6810      	ldr	r0, [r2, #0]
 8001474:	f107 0208 	add.w	r2, r7, #8
 8001478:	2100      	movs	r1, #0
 800147a:	4798      	blx	r3
 800147c:	4603      	mov	r3, r0
 800147e:	2b00      	cmp	r3, #0
 8001480:	da07      	bge.n	8001492 <LAN8742_Init+0x100>
               { 
                 status = LAN8742_STATUS_READ_ERROR;
 8001482:	f06f 0304 	mvn.w	r3, #4
 8001486:	613b      	str	r3, [r7, #16]
                 break;
 8001488:	e010      	b.n	80014ac <LAN8742_Init+0x11a>
               }
             }
             else
             {
               status = LAN8742_STATUS_RESET_TIMEOUT;
 800148a:	f06f 0301 	mvn.w	r3, #1
 800148e:	613b      	str	r3, [r7, #16]
               break;
 8001490:	e00c      	b.n	80014ac <LAN8742_Init+0x11a>
           while(regvalue & LAN8742_BCR_SOFT_RESET)
 8001492:	68bb      	ldr	r3, [r7, #8]
 8001494:	f403 4300 	and.w	r3, r3, #32768	; 0x8000
 8001498:	2b00      	cmp	r3, #0
 800149a:	d1dd      	bne.n	8001458 <LAN8742_Init+0xc6>
 800149c:	e006      	b.n	80014ac <LAN8742_Init+0x11a>
             }
           } 
         }
         else
         {
           status = LAN8742_STATUS_READ_ERROR;
 800149e:	f06f 0304 	mvn.w	r3, #4
 80014a2:	613b      	str	r3, [r7, #16]
 80014a4:	e002      	b.n	80014ac <LAN8742_Init+0x11a>
         }
       }
       else
       {
         status = LAN8742_STATUS_WRITE_ERROR;
 80014a6:	f06f 0303 	mvn.w	r3, #3
 80014aa:	613b      	str	r3, [r7, #16]
       }
     }
   }
      
   if(status == LAN8742_STATUS_OK)
 80014ac:	693b      	ldr	r3, [r7, #16]
 80014ae:	2b00      	cmp	r3, #0
 80014b0:	d112      	bne.n	80014d8 <LAN8742_Init+0x146>
   {
     tickstart =  pObj->IO.GetTick();
 80014b2:	687b      	ldr	r3, [r7, #4]
 80014b4:	699b      	ldr	r3, [r3, #24]
 80014b6:	4798      	blx	r3
 80014b8:	4603      	mov	r3, r0
 80014ba:	60fb      	str	r3, [r7, #12]
     
     /* Wait for 2s to perform initialization */
     while((pObj->IO.GetTick() - tickstart) <= LAN8742_INIT_TO)
 80014bc:	bf00      	nop
 80014be:	687b      	ldr	r3, [r7, #4]
 80014c0:	699b      	ldr	r3, [r3, #24]
 80014c2:	4798      	blx	r3
 80014c4:	4603      	mov	r3, r0
 80014c6:	461a      	mov	r2, r3
 80014c8:	68fb      	ldr	r3, [r7, #12]
 80014ca:	1ad3      	subs	r3, r2, r3
 80014cc:	f5b3 6ffa 	cmp.w	r3, #2000	; 0x7d0
 80014d0:	d9f5      	bls.n	80014be <LAN8742_Init+0x12c>
     {
     }
     pObj->Is_Initialized = 1;
 80014d2:	687b      	ldr	r3, [r7, #4]
 80014d4:	2201      	movs	r2, #1
 80014d6:	605a      	str	r2, [r3, #4]
   }
   
   return status;
 80014d8:	693b      	ldr	r3, [r7, #16]
 }
 80014da:	4618      	mov	r0, r3
 80014dc:	3718      	adds	r7, #24
 80014de:	46bd      	mov	sp, r7
 80014e0:	bd80      	pop	{r7, pc}

080014e2 <LAN8742_GetLinkState>:
  *         LAN8742_STATUS_10MBITS_HALFDUPLEX  if 10Mb/s HD       
  *         LAN8742_STATUS_READ_ERROR if connot read register
  *         LAN8742_STATUS_WRITE_ERROR if connot write to register
  */
int32_t LAN8742_GetLinkState(lan8742_Object_t *pObj)
{
 80014e2:	b580      	push	{r7, lr}
 80014e4:	b084      	sub	sp, #16
 80014e6:	af00      	add	r7, sp, #0
 80014e8:	6078      	str	r0, [r7, #4]
  uint32_t readval = 0;
 80014ea:	2300      	movs	r3, #0
 80014ec:	60fb      	str	r3, [r7, #12]
  
  /* Read Status register  */
  if(pObj->IO.ReadReg(pObj->DevAddr, LAN8742_BSR, &readval) < 0)
 80014ee:	687b      	ldr	r3, [r7, #4]
 80014f0:	695b      	ldr	r3, [r3, #20]
 80014f2:	687a      	ldr	r2, [r7, #4]
 80014f4:	6810      	ldr	r0, [r2, #0]
 80014f6:	f107 020c 	add.w	r2, r7, #12
 80014fa:	2101      	movs	r1, #1
 80014fc:	4798      	blx	r3
 80014fe:	4603      	mov	r3, r0
 8001500:	2b00      	cmp	r3, #0
 8001502:	da02      	bge.n	800150a <LAN8742_GetLinkState+0x28>
  {
    return LAN8742_STATUS_READ_ERROR;
 8001504:	f06f 0304 	mvn.w	r3, #4
 8001508:	e06e      	b.n	80015e8 <LAN8742_GetLinkState+0x106>
  }
  
  /* Read Status register again */
  if(pObj->IO.ReadReg(pObj->DevAddr, LAN8742_BSR, &readval) < 0)
 800150a:	687b      	ldr	r3, [r7, #4]
 800150c:	695b      	ldr	r3, [r3, #20]
 800150e:	687a      	ldr	r2, [r7, #4]
 8001510:	6810      	ldr	r0, [r2, #0]
 8001512:	f107 020c 	add.w	r2, r7, #12
 8001516:	2101      	movs	r1, #1
 8001518:	4798      	blx	r3
 800151a:	4603      	mov	r3, r0
 800151c:	2b00      	cmp	r3, #0
 800151e:	da02      	bge.n	8001526 <LAN8742_GetLinkState+0x44>
  {
    return LAN8742_STATUS_READ_ERROR;
 8001520:	f06f 0304 	mvn.w	r3, #4
 8001524:	e060      	b.n	80015e8 <LAN8742_GetLinkState+0x106>
  }
  
  if((readval & LAN8742_BSR_LINK_STATUS) == 0)
 8001526:	68fb      	ldr	r3, [r7, #12]
 8001528:	f003 0304 	and.w	r3, r3, #4
 800152c:	2b00      	cmp	r3, #0
 800152e:	d101      	bne.n	8001534 <LAN8742_GetLinkState+0x52>
  {
    /* Return Link Down status */
    return LAN8742_STATUS_LINK_DOWN;    
 8001530:	2301      	movs	r3, #1
 8001532:	e059      	b.n	80015e8 <LAN8742_GetLinkState+0x106>
  }
  
  /* Check Auto negotiaition */
  if(pObj->IO.ReadReg(pObj->DevAddr, LAN8742_BCR, &readval) < 0)
 8001534:	687b      	ldr	r3, [r7, #4]
 8001536:	695b      	ldr	r3, [r3, #20]
 8001538:	687a      	ldr	r2, [r7, #4]
 800153a:	6810      	ldr	r0, [r2, #0]
 800153c:	f107 020c 	add.w	r2, r7, #12
 8001540:	2100      	movs	r1, #0
 8001542:	4798      	blx	r3
 8001544:	4603      	mov	r3, r0
 8001546:	2b00      	cmp	r3, #0
 8001548:	da02      	bge.n	8001550 <LAN8742_GetLinkState+0x6e>
  {
    return LAN8742_STATUS_READ_ERROR;
 800154a:	f06f 0304 	mvn.w	r3, #4
 800154e:	e04b      	b.n	80015e8 <LAN8742_GetLinkState+0x106>
  }
  
  if((readval & LAN8742_BCR_AUTONEGO_EN) != LAN8742_BCR_AUTONEGO_EN)
 8001550:	68fb      	ldr	r3, [r7, #12]
 8001552:	f403 5380 	and.w	r3, r3, #4096	; 0x1000
 8001556:	2b00      	cmp	r3, #0
 8001558:	d11b      	bne.n	8001592 <LAN8742_GetLinkState+0xb0>
  {
    if(((readval & LAN8742_BCR_SPEED_SELECT) == LAN8742_BCR_SPEED_SELECT) && ((readval & LAN8742_BCR_DUPLEX_MODE) == LAN8742_BCR_DUPLEX_MODE)) 
 800155a:	68fb      	ldr	r3, [r7, #12]
 800155c:	f403 5300 	and.w	r3, r3, #8192	; 0x2000
 8001560:	2b00      	cmp	r3, #0
 8001562:	d006      	beq.n	8001572 <LAN8742_GetLinkState+0x90>
 8001564:	68fb      	ldr	r3, [r7, #12]
 8001566:	f403 7380 	and.w	r3, r3, #256	; 0x100
 800156a:	2b00      	cmp	r3, #0
 800156c:	d001      	beq.n	8001572 <LAN8742_GetLinkState+0x90>
    {
      return LAN8742_STATUS_100MBITS_FULLDUPLEX;
 800156e:	2302      	movs	r3, #2
 8001570:	e03a      	b.n	80015e8 <LAN8742_GetLinkState+0x106>
    }
    else if ((readval & LAN8742_BCR_SPEED_SELECT) == LAN8742_BCR_SPEED_SELECT)
 8001572:	68fb      	ldr	r3, [r7, #12]
 8001574:	f403 5300 	and.w	r3, r3, #8192	; 0x2000
 8001578:	2b00      	cmp	r3, #0
 800157a:	d001      	beq.n	8001580 <LAN8742_GetLinkState+0x9e>
    {
      return LAN8742_STATUS_100MBITS_HALFDUPLEX;
 800157c:	2303      	movs	r3, #3
 800157e:	e033      	b.n	80015e8 <LAN8742_GetLinkState+0x106>
    }        
    else if ((readval & LAN8742_BCR_DUPLEX_MODE) == LAN8742_BCR_DUPLEX_MODE)
 8001580:	68fb      	ldr	r3, [r7, #12]
 8001582:	f403 7380 	and.w	r3, r3, #256	; 0x100
 8001586:	2b00      	cmp	r3, #0
 8001588:	d001      	beq.n	800158e <LAN8742_GetLinkState+0xac>
    {
      return LAN8742_STATUS_10MBITS_FULLDUPLEX;
 800158a:	2304      	movs	r3, #4
 800158c:	e02c      	b.n	80015e8 <LAN8742_GetLinkState+0x106>
    }
    else
    {
      return LAN8742_STATUS_10MBITS_HALFDUPLEX;
 800158e:	2305      	movs	r3, #5
 8001590:	e02a      	b.n	80015e8 <LAN8742_GetLinkState+0x106>
    }  		
  }
  else /* Auto Nego enabled */
  {
    if(pObj->IO.ReadReg(pObj->DevAddr, LAN8742_PHYSCSR, &readval) < 0)
 8001592:	687b      	ldr	r3, [r7, #4]
 8001594:	695b      	ldr	r3, [r3, #20]
 8001596:	687a      	ldr	r2, [r7, #4]
 8001598:	6810      	ldr	r0, [r2, #0]
 800159a:	f107 020c 	add.w	r2, r7, #12
 800159e:	211f      	movs	r1, #31
 80015a0:	4798      	blx	r3
 80015a2:	4603      	mov	r3, r0
 80015a4:	2b00      	cmp	r3, #0
 80015a6:	da02      	bge.n	80015ae <LAN8742_GetLinkState+0xcc>
    {
      return LAN8742_STATUS_READ_ERROR;
 80015a8:	f06f 0304 	mvn.w	r3, #4
 80015ac:	e01c      	b.n	80015e8 <LAN8742_GetLinkState+0x106>
    }
    
    /* Check if auto nego not done */
    if((readval & LAN8742_PHYSCSR_AUTONEGO_DONE) == 0)
 80015ae:	68fb      	ldr	r3, [r7, #12]
 80015b0:	f403 5380 	and.w	r3, r3, #4096	; 0x1000
 80015b4:	2b00      	cmp	r3, #0
 80015b6:	d101      	bne.n	80015bc <LAN8742_GetLinkState+0xda>
    {
      return LAN8742_STATUS_AUTONEGO_NOTDONE;
 80015b8:	2306      	movs	r3, #6
 80015ba:	e015      	b.n	80015e8 <LAN8742_GetLinkState+0x106>
    }
    
    if((readval & LAN8742_PHYSCSR_HCDSPEEDMASK) == LAN8742_PHYSCSR_100BTX_FD)
 80015bc:	68fb      	ldr	r3, [r7, #12]
 80015be:	f003 031c 	and.w	r3, r3, #28
 80015c2:	2b18      	cmp	r3, #24
 80015c4:	d101      	bne.n	80015ca <LAN8742_GetLinkState+0xe8>
    {
      return LAN8742_STATUS_100MBITS_FULLDUPLEX;
 80015c6:	2302      	movs	r3, #2
 80015c8:	e00e      	b.n	80015e8 <LAN8742_GetLinkState+0x106>
    }
    else if ((readval & LAN8742_PHYSCSR_HCDSPEEDMASK) == LAN8742_PHYSCSR_100BTX_HD)
 80015ca:	68fb      	ldr	r3, [r7, #12]
 80015cc:	f003 031c 	and.w	r3, r3, #28
 80015d0:	2b08      	cmp	r3, #8
 80015d2:	d101      	bne.n	80015d8 <LAN8742_GetLinkState+0xf6>
    {
      return LAN8742_STATUS_100MBITS_HALFDUPLEX;
 80015d4:	2303      	movs	r3, #3
 80015d6:	e007      	b.n	80015e8 <LAN8742_GetLinkState+0x106>
    }
    else if ((readval & LAN8742_PHYSCSR_HCDSPEEDMASK) == LAN8742_PHYSCSR_10BT_FD)
 80015d8:	68fb      	ldr	r3, [r7, #12]
 80015da:	f003 031c 	and.w	r3, r3, #28
 80015de:	2b14      	cmp	r3, #20
 80015e0:	d101      	bne.n	80015e6 <LAN8742_GetLinkState+0x104>
    {
      return LAN8742_STATUS_10MBITS_FULLDUPLEX;
 80015e2:	2304      	movs	r3, #4
 80015e4:	e000      	b.n	80015e8 <LAN8742_GetLinkState+0x106>
    }
    else
    {
      return LAN8742_STATUS_10MBITS_HALFDUPLEX;
 80015e6:	2305      	movs	r3, #5
    }				
  }
}
 80015e8:	4618      	mov	r0, r3
 80015ea:	3710      	adds	r7, #16
 80015ec:	46bd      	mov	sp, r7
 80015ee:	bd80      	pop	{r7, pc}

080015f0 <HAL_Init>:
  *         need to ensure that the SysTick time base is always set to 1 millisecond
  *         to have correct HAL operation.
  * @retval HAL status
  */
HAL_StatusTypeDef HAL_Init(void)
{
 80015f0:	b580      	push	{r7, lr}
 80015f2:	b082      	sub	sp, #8
 80015f4:	af00      	add	r7, sp, #0
   __HAL_ART_CONFIG_BASE_ADDRESS(0x08100000UL);  /* Configure the Cortex-M4 ART Base address to the Flash Bank 2 : */
   __HAL_ART_ENABLE();                           /* Enable the Cortex-M4 ART */
#endif /* DUAL_CORE &&  CORE_CM4 */

  /* Set Interrupt Group Priority */
  HAL_NVIC_SetPriorityGrouping(NVIC_PRIORITYGROUP_4);
 80015f6:	2003      	movs	r0, #3
 80015f8:	f000 f9a0 	bl	800193c <HAL_NVIC_SetPriorityGrouping>

  /* Update the SystemCoreClock global variable */
#if defined(RCC_D1CFGR_D1CPRE)
  common_system_clock = HAL_RCC_GetSysClockFreq() >> ((D1CorePrescTable[(RCC->D1CFGR & RCC_D1CFGR_D1CPRE)>> RCC_D1CFGR_D1CPRE_Pos]) & 0x1FU);
 80015fc:	f003 fcf6 	bl	8004fec <HAL_RCC_GetSysClockFreq>
 8001600:	4602      	mov	r2, r0
 8001602:	4b15      	ldr	r3, [pc, #84]	; (8001658 <HAL_Init+0x68>)
 8001604:	699b      	ldr	r3, [r3, #24]
 8001606:	0a1b      	lsrs	r3, r3, #8
 8001608:	f003 030f 	and.w	r3, r3, #15
 800160c:	4913      	ldr	r1, [pc, #76]	; (800165c <HAL_Init+0x6c>)
 800160e:	5ccb      	ldrb	r3, [r1, r3]
 8001610:	f003 031f 	and.w	r3, r3, #31
 8001614:	fa22 f303 	lsr.w	r3, r2, r3
 8001618:	607b      	str	r3, [r7, #4]
  common_system_clock = HAL_RCC_GetSysClockFreq() >> ((D1CorePrescTable[(RCC->CDCFGR1 & RCC_CDCFGR1_CDCPRE)>> RCC_CDCFGR1_CDCPRE_Pos]) & 0x1FU);
#endif

  /* Update the SystemD2Clock global variable */
#if defined(RCC_D1CFGR_HPRE)
  SystemD2Clock = (common_system_clock >> ((D1CorePrescTable[(RCC->D1CFGR & RCC_D1CFGR_HPRE)>> RCC_D1CFGR_HPRE_Pos]) & 0x1FU));
 800161a:	4b0f      	ldr	r3, [pc, #60]	; (8001658 <HAL_Init+0x68>)
 800161c:	699b      	ldr	r3, [r3, #24]
 800161e:	f003 030f 	and.w	r3, r3, #15
 8001622:	4a0e      	ldr	r2, [pc, #56]	; (800165c <HAL_Init+0x6c>)
 8001624:	5cd3      	ldrb	r3, [r2, r3]
 8001626:	f003 031f 	and.w	r3, r3, #31
 800162a:	687a      	ldr	r2, [r7, #4]
 800162c:	fa22 f303 	lsr.w	r3, r2, r3
 8001630:	4a0b      	ldr	r2, [pc, #44]	; (8001660 <HAL_Init+0x70>)
 8001632:	6013      	str	r3, [r2, #0]
#endif

#if defined(DUAL_CORE) && defined(CORE_CM4)
  SystemCoreClock = SystemD2Clock;
#else
  SystemCoreClock = common_system_clock;
 8001634:	4a0b      	ldr	r2, [pc, #44]	; (8001664 <HAL_Init+0x74>)
 8001636:	687b      	ldr	r3, [r7, #4]
 8001638:	6013      	str	r3, [r2, #0]
#endif /* DUAL_CORE && CORE_CM4 */

  /* Use systick as time base source and configure 1ms tick (default clock after Reset is HSI) */
  if(HAL_InitTick(TICK_INT_PRIORITY) != HAL_OK)
 800163a:	200f      	movs	r0, #15
 800163c:	f000 f814 	bl	8001668 <HAL_InitTick>
 8001640:	4603      	mov	r3, r0
 8001642:	2b00      	cmp	r3, #0
 8001644:	d001      	beq.n	800164a <HAL_Init+0x5a>
  {
    return HAL_ERROR;
 8001646:	2301      	movs	r3, #1
 8001648:	e002      	b.n	8001650 <HAL_Init+0x60>
  }

  /* Init the low level hardware */
  HAL_MspInit();
 800164a:	f7ff fbd5 	bl	8000df8 <HAL_MspInit>

  /* Return function status */
  return HAL_OK;
 800164e:	2300      	movs	r3, #0
}
 8001650:	4618      	mov	r0, r3
 8001652:	3708      	adds	r7, #8
 8001654:	46bd      	mov	sp, r7
 8001656:	bd80      	pop	{r7, pc}
 8001658:	58024400 	.word	0x58024400
 800165c:	0801ab20 	.word	0x0801ab20
 8001660:	24000004 	.word	0x24000004
 8001664:	24000000 	.word	0x24000000

08001668 <HAL_InitTick>:
  *       implementation  in user file.
  * @param TickPriority: Tick interrupt priority.
  * @retval HAL status
  */
__weak HAL_StatusTypeDef HAL_InitTick(uint32_t TickPriority)
{
 8001668:	b580      	push	{r7, lr}
 800166a:	b082      	sub	sp, #8
 800166c:	af00      	add	r7, sp, #0
 800166e:	6078      	str	r0, [r7, #4]
  /* Check uwTickFreq for MisraC 2012 (even if uwTickFreq is a enum type that don't take the value zero)*/
  if((uint32_t)uwTickFreq == 0UL)
 8001670:	4b15      	ldr	r3, [pc, #84]	; (80016c8 <HAL_InitTick+0x60>)
 8001672:	781b      	ldrb	r3, [r3, #0]
 8001674:	2b00      	cmp	r3, #0
 8001676:	d101      	bne.n	800167c <HAL_InitTick+0x14>
  {
    return HAL_ERROR;
 8001678:	2301      	movs	r3, #1
 800167a:	e021      	b.n	80016c0 <HAL_InitTick+0x58>
  }

    /* Configure the SysTick to have interrupt in 1ms time basis*/
    if (HAL_SYSTICK_Config(SystemCoreClock / (1000UL / (uint32_t)uwTickFreq)) > 0U)
 800167c:	4b13      	ldr	r3, [pc, #76]	; (80016cc <HAL_InitTick+0x64>)
 800167e:	681a      	ldr	r2, [r3, #0]
 8001680:	4b11      	ldr	r3, [pc, #68]	; (80016c8 <HAL_InitTick+0x60>)
 8001682:	781b      	ldrb	r3, [r3, #0]
 8001684:	4619      	mov	r1, r3
 8001686:	f44f 737a 	mov.w	r3, #1000	; 0x3e8
 800168a:	fbb3 f3f1 	udiv	r3, r3, r1
 800168e:	fbb2 f3f3 	udiv	r3, r2, r3
 8001692:	4618      	mov	r0, r3
 8001694:	f000 f985 	bl	80019a2 <HAL_SYSTICK_Config>
 8001698:	4603      	mov	r3, r0
 800169a:	2b00      	cmp	r3, #0
 800169c:	d001      	beq.n	80016a2 <HAL_InitTick+0x3a>
    {
      return HAL_ERROR;
 800169e:	2301      	movs	r3, #1
 80016a0:	e00e      	b.n	80016c0 <HAL_InitTick+0x58>
    }

  /* Configure the SysTick IRQ priority */
  if (TickPriority < (1UL << __NVIC_PRIO_BITS))
 80016a2:	687b      	ldr	r3, [r7, #4]
 80016a4:	2b0f      	cmp	r3, #15
 80016a6:	d80a      	bhi.n	80016be <HAL_InitTick+0x56>
  {
    HAL_NVIC_SetPriority(SysTick_IRQn, TickPriority, 0U);
 80016a8:	2200      	movs	r2, #0
 80016aa:	6879      	ldr	r1, [r7, #4]
 80016ac:	f04f 30ff 	mov.w	r0, #4294967295
 80016b0:	f000 f94f 	bl	8001952 <HAL_NVIC_SetPriority>
    uwTickPrio = TickPriority;
 80016b4:	4a06      	ldr	r2, [pc, #24]	; (80016d0 <HAL_InitTick+0x68>)
 80016b6:	687b      	ldr	r3, [r7, #4]
 80016b8:	6013      	str	r3, [r2, #0]
  {
    return HAL_ERROR;
  }

  /* Return function status */
  return HAL_OK;
 80016ba:	2300      	movs	r3, #0
 80016bc:	e000      	b.n	80016c0 <HAL_InitTick+0x58>
    return HAL_ERROR;
 80016be:	2301      	movs	r3, #1
}
 80016c0:	4618      	mov	r0, r3
 80016c2:	3708      	adds	r7, #8
 80016c4:	46bd      	mov	sp, r7
 80016c6:	bd80      	pop	{r7, pc}
 80016c8:	2400000c 	.word	0x2400000c
 80016cc:	24000000 	.word	0x24000000
 80016d0:	24000008 	.word	0x24000008

080016d4 <HAL_IncTick>:
 * @note This function is declared as __weak to be overwritten in case of other
  *      implementations in user file.
  * @retval None
  */
__weak void HAL_IncTick(void)
{
 80016d4:	b480      	push	{r7}
 80016d6:	af00      	add	r7, sp, #0
  uwTick += (uint32_t)uwTickFreq;
 80016d8:	4b06      	ldr	r3, [pc, #24]	; (80016f4 <HAL_IncTick+0x20>)
 80016da:	781b      	ldrb	r3, [r3, #0]
 80016dc:	461a      	mov	r2, r3
 80016de:	4b06      	ldr	r3, [pc, #24]	; (80016f8 <HAL_IncTick+0x24>)
 80016e0:	681b      	ldr	r3, [r3, #0]
 80016e2:	4413      	add	r3, r2
 80016e4:	4a04      	ldr	r2, [pc, #16]	; (80016f8 <HAL_IncTick+0x24>)
 80016e6:	6013      	str	r3, [r2, #0]
}
 80016e8:	bf00      	nop
 80016ea:	46bd      	mov	sp, r7
 80016ec:	f85d 7b04 	ldr.w	r7, [sp], #4
 80016f0:	4770      	bx	lr
 80016f2:	bf00      	nop
 80016f4:	2400000c 	.word	0x2400000c
 80016f8:	240002ac 	.word	0x240002ac

080016fc <HAL_GetTick>:
  * @note This function is declared as __weak to be overwritten in case of other
  *       implementations in user file.
  * @retval tick value
  */
__weak uint32_t HAL_GetTick(void)
{
 80016fc:	b480      	push	{r7}
 80016fe:	af00      	add	r7, sp, #0
  return uwTick;
 8001700:	4b03      	ldr	r3, [pc, #12]	; (8001710 <HAL_GetTick+0x14>)
 8001702:	681b      	ldr	r3, [r3, #0]
}
 8001704:	4618      	mov	r0, r3
 8001706:	46bd      	mov	sp, r7
 8001708:	f85d 7b04 	ldr.w	r7, [sp], #4
 800170c:	4770      	bx	lr
 800170e:	bf00      	nop
 8001710:	240002ac 	.word	0x240002ac

08001714 <HAL_Delay>:
  *       implementations in user file.
  * @param Delay  specifies the delay time length, in milliseconds.
  * @retval None
  */
__weak void HAL_Delay(uint32_t Delay)
{
 8001714:	b580      	push	{r7, lr}
 8001716:	b084      	sub	sp, #16
 8001718:	af00      	add	r7, sp, #0
 800171a:	6078      	str	r0, [r7, #4]
  uint32_t tickstart = HAL_GetTick();
 800171c:	f7ff ffee 	bl	80016fc <HAL_GetTick>
 8001720:	60b8      	str	r0, [r7, #8]
  uint32_t wait = Delay;
 8001722:	687b      	ldr	r3, [r7, #4]
 8001724:	60fb      	str	r3, [r7, #12]

  /* Add a freq to guarantee minimum wait */
  if (wait < HAL_MAX_DELAY)
 8001726:	68fb      	ldr	r3, [r7, #12]
 8001728:	f1b3 3fff 	cmp.w	r3, #4294967295
 800172c:	d005      	beq.n	800173a <HAL_Delay+0x26>
  {
    wait += (uint32_t)(uwTickFreq);
 800172e:	4b0a      	ldr	r3, [pc, #40]	; (8001758 <HAL_Delay+0x44>)
 8001730:	781b      	ldrb	r3, [r3, #0]
 8001732:	461a      	mov	r2, r3
 8001734:	68fb      	ldr	r3, [r7, #12]
 8001736:	4413      	add	r3, r2
 8001738:	60fb      	str	r3, [r7, #12]
  }

  while ((HAL_GetTick() - tickstart) < wait)
 800173a:	bf00      	nop
 800173c:	f7ff ffde 	bl	80016fc <HAL_GetTick>
 8001740:	4602      	mov	r2, r0
 8001742:	68bb      	ldr	r3, [r7, #8]
 8001744:	1ad3      	subs	r3, r2, r3
 8001746:	68fa      	ldr	r2, [r7, #12]
 8001748:	429a      	cmp	r2, r3
 800174a:	d8f7      	bhi.n	800173c <HAL_Delay+0x28>
  {
  }
}
 800174c:	bf00      	nop
 800174e:	bf00      	nop
 8001750:	3710      	adds	r7, #16
 8001752:	46bd      	mov	sp, r7
 8001754:	bd80      	pop	{r7, pc}
 8001756:	bf00      	nop
 8001758:	2400000c 	.word	0x2400000c

0800175c <HAL_GetREVID>:
/**
  * @brief  Returns the device revision identifier.
  * @retval Device revision identifier
  */
uint32_t HAL_GetREVID(void)
{
 800175c:	b480      	push	{r7}
 800175e:	af00      	add	r7, sp, #0
   return((DBGMCU->IDCODE) >> 16);
 8001760:	4b03      	ldr	r3, [pc, #12]	; (8001770 <HAL_GetREVID+0x14>)
 8001762:	681b      	ldr	r3, [r3, #0]
 8001764:	0c1b      	lsrs	r3, r3, #16
}
 8001766:	4618      	mov	r0, r3
 8001768:	46bd      	mov	sp, r7
 800176a:	f85d 7b04 	ldr.w	r7, [sp], #4
 800176e:	4770      	bx	lr
 8001770:	5c001000 	.word	0x5c001000

08001774 <HAL_SYSCFG_ETHInterfaceSelect>:
  *   @arg SYSCFG_ETH_MII : Select the Media Independent Interface
  *   @arg SYSCFG_ETH_RMII: Select the Reduced Media Independent Interface
  * @retval None
  */
void HAL_SYSCFG_ETHInterfaceSelect(uint32_t SYSCFG_ETHInterface)
{
 8001774:	b480      	push	{r7}
 8001776:	b083      	sub	sp, #12
 8001778:	af00      	add	r7, sp, #0
 800177a:	6078      	str	r0, [r7, #4]
  /* Check the parameter */
  assert_param(IS_SYSCFG_ETHERNET_CONFIG(SYSCFG_ETHInterface));

  MODIFY_REG(SYSCFG->PMCR, SYSCFG_PMCR_EPIS_SEL, (uint32_t)(SYSCFG_ETHInterface));
 800177c:	4b06      	ldr	r3, [pc, #24]	; (8001798 <HAL_SYSCFG_ETHInterfaceSelect+0x24>)
 800177e:	685b      	ldr	r3, [r3, #4]
 8001780:	f423 0260 	bic.w	r2, r3, #14680064	; 0xe00000
 8001784:	4904      	ldr	r1, [pc, #16]	; (8001798 <HAL_SYSCFG_ETHInterfaceSelect+0x24>)
 8001786:	687b      	ldr	r3, [r7, #4]
 8001788:	4313      	orrs	r3, r2
 800178a:	604b      	str	r3, [r1, #4]
}
 800178c:	bf00      	nop
 800178e:	370c      	adds	r7, #12
 8001790:	46bd      	mov	sp, r7
 8001792:	f85d 7b04 	ldr.w	r7, [sp], #4
 8001796:	4770      	bx	lr
 8001798:	58000400 	.word	0x58000400

0800179c <__NVIC_SetPriorityGrouping>:
{
 800179c:	b480      	push	{r7}
 800179e:	b085      	sub	sp, #20
 80017a0:	af00      	add	r7, sp, #0
 80017a2:	6078      	str	r0, [r7, #4]
  uint32_t PriorityGroupTmp = (PriorityGroup & (uint32_t)0x07UL);             /* only values 0..7 are used          */
 80017a4:	687b      	ldr	r3, [r7, #4]
 80017a6:	f003 0307 	and.w	r3, r3, #7
 80017aa:	60fb      	str	r3, [r7, #12]
  reg_value  =  SCB->AIRCR;                                                   /* read old register configuration    */
 80017ac:	4b0b      	ldr	r3, [pc, #44]	; (80017dc <__NVIC_SetPriorityGrouping+0x40>)
 80017ae:	68db      	ldr	r3, [r3, #12]
 80017b0:	60bb      	str	r3, [r7, #8]
  reg_value &= ~((uint32_t)(SCB_AIRCR_VECTKEY_Msk | SCB_AIRCR_PRIGROUP_Msk)); /* clear bits to change               */
 80017b2:	68ba      	ldr	r2, [r7, #8]
 80017b4:	f64f 03ff 	movw	r3, #63743	; 0xf8ff
 80017b8:	4013      	ands	r3, r2
 80017ba:	60bb      	str	r3, [r7, #8]
                (PriorityGroupTmp << SCB_AIRCR_PRIGROUP_Pos)  );              /* Insert write key and priority group */
 80017bc:	68fb      	ldr	r3, [r7, #12]
 80017be:	021a      	lsls	r2, r3, #8
                ((uint32_t)0x5FAUL << SCB_AIRCR_VECTKEY_Pos) |
 80017c0:	68bb      	ldr	r3, [r7, #8]
 80017c2:	431a      	orrs	r2, r3
  reg_value  =  (reg_value                                   |
 80017c4:	4b06      	ldr	r3, [pc, #24]	; (80017e0 <__NVIC_SetPriorityGrouping+0x44>)
 80017c6:	4313      	orrs	r3, r2
 80017c8:	60bb      	str	r3, [r7, #8]
  SCB->AIRCR =  reg_value;
 80017ca:	4a04      	ldr	r2, [pc, #16]	; (80017dc <__NVIC_SetPriorityGrouping+0x40>)
 80017cc:	68bb      	ldr	r3, [r7, #8]
 80017ce:	60d3      	str	r3, [r2, #12]
}
 80017d0:	bf00      	nop
 80017d2:	3714      	adds	r7, #20
 80017d4:	46bd      	mov	sp, r7
 80017d6:	f85d 7b04 	ldr.w	r7, [sp], #4
 80017da:	4770      	bx	lr
 80017dc:	e000ed00 	.word	0xe000ed00
 80017e0:	05fa0000 	.word	0x05fa0000

080017e4 <__NVIC_GetPriorityGrouping>:
{
 80017e4:	b480      	push	{r7}
 80017e6:	af00      	add	r7, sp, #0
  return ((uint32_t)((SCB->AIRCR & SCB_AIRCR_PRIGROUP_Msk) >> SCB_AIRCR_PRIGROUP_Pos));
 80017e8:	4b04      	ldr	r3, [pc, #16]	; (80017fc <__NVIC_GetPriorityGrouping+0x18>)
 80017ea:	68db      	ldr	r3, [r3, #12]
 80017ec:	0a1b      	lsrs	r3, r3, #8
 80017ee:	f003 0307 	and.w	r3, r3, #7
}
 80017f2:	4618      	mov	r0, r3
 80017f4:	46bd      	mov	sp, r7
 80017f6:	f85d 7b04 	ldr.w	r7, [sp], #4
 80017fa:	4770      	bx	lr
 80017fc:	e000ed00 	.word	0xe000ed00

08001800 <__NVIC_EnableIRQ>:
{
 8001800:	b480      	push	{r7}
 8001802:	b083      	sub	sp, #12
 8001804:	af00      	add	r7, sp, #0
 8001806:	4603      	mov	r3, r0
 8001808:	80fb      	strh	r3, [r7, #6]
  if ((int32_t)(IRQn) >= 0)
 800180a:	f9b7 3006 	ldrsh.w	r3, [r7, #6]
 800180e:	2b00      	cmp	r3, #0
 8001810:	db0b      	blt.n	800182a <__NVIC_EnableIRQ+0x2a>
    NVIC->ISER[(((uint32_t)IRQn) >> 5UL)] = (uint32_t)(1UL << (((uint32_t)IRQn) & 0x1FUL));
 8001812:	88fb      	ldrh	r3, [r7, #6]
 8001814:	f003 021f 	and.w	r2, r3, #31
 8001818:	4907      	ldr	r1, [pc, #28]	; (8001838 <__NVIC_EnableIRQ+0x38>)
 800181a:	f9b7 3006 	ldrsh.w	r3, [r7, #6]
 800181e:	095b      	lsrs	r3, r3, #5
 8001820:	2001      	movs	r0, #1
 8001822:	fa00 f202 	lsl.w	r2, r0, r2
 8001826:	f841 2023 	str.w	r2, [r1, r3, lsl #2]
}
 800182a:	bf00      	nop
 800182c:	370c      	adds	r7, #12
 800182e:	46bd      	mov	sp, r7
 8001830:	f85d 7b04 	ldr.w	r7, [sp], #4
 8001834:	4770      	bx	lr
 8001836:	bf00      	nop
 8001838:	e000e100 	.word	0xe000e100

0800183c <__NVIC_SetPriority>:
{
 800183c:	b480      	push	{r7}
 800183e:	b083      	sub	sp, #12
 8001840:	af00      	add	r7, sp, #0
 8001842:	4603      	mov	r3, r0
 8001844:	6039      	str	r1, [r7, #0]
 8001846:	80fb      	strh	r3, [r7, #6]
  if ((int32_t)(IRQn) >= 0)
 8001848:	f9b7 3006 	ldrsh.w	r3, [r7, #6]
 800184c:	2b00      	cmp	r3, #0
 800184e:	db0a      	blt.n	8001866 <__NVIC_SetPriority+0x2a>
    NVIC->IP[((uint32_t)IRQn)]                = (uint8_t)((priority << (8U - __NVIC_PRIO_BITS)) & (uint32_t)0xFFUL);
 8001850:	683b      	ldr	r3, [r7, #0]
 8001852:	b2da      	uxtb	r2, r3
 8001854:	490c      	ldr	r1, [pc, #48]	; (8001888 <__NVIC_SetPriority+0x4c>)
 8001856:	f9b7 3006 	ldrsh.w	r3, [r7, #6]
 800185a:	0112      	lsls	r2, r2, #4
 800185c:	b2d2      	uxtb	r2, r2
 800185e:	440b      	add	r3, r1
 8001860:	f883 2300 	strb.w	r2, [r3, #768]	; 0x300
}
 8001864:	e00a      	b.n	800187c <__NVIC_SetPriority+0x40>
    SCB->SHPR[(((uint32_t)IRQn) & 0xFUL)-4UL] = (uint8_t)((priority << (8U - __NVIC_PRIO_BITS)) & (uint32_t)0xFFUL);
 8001866:	683b      	ldr	r3, [r7, #0]
 8001868:	b2da      	uxtb	r2, r3
 800186a:	4908      	ldr	r1, [pc, #32]	; (800188c <__NVIC_SetPriority+0x50>)
 800186c:	88fb      	ldrh	r3, [r7, #6]
 800186e:	f003 030f 	and.w	r3, r3, #15
 8001872:	3b04      	subs	r3, #4
 8001874:	0112      	lsls	r2, r2, #4
 8001876:	b2d2      	uxtb	r2, r2
 8001878:	440b      	add	r3, r1
 800187a:	761a      	strb	r2, [r3, #24]
}
 800187c:	bf00      	nop
 800187e:	370c      	adds	r7, #12
 8001880:	46bd      	mov	sp, r7
 8001882:	f85d 7b04 	ldr.w	r7, [sp], #4
 8001886:	4770      	bx	lr
 8001888:	e000e100 	.word	0xe000e100
 800188c:	e000ed00 	.word	0xe000ed00

08001890 <NVIC_EncodePriority>:
{
 8001890:	b480      	push	{r7}
 8001892:	b089      	sub	sp, #36	; 0x24
 8001894:	af00      	add	r7, sp, #0
 8001896:	60f8      	str	r0, [r7, #12]
 8001898:	60b9      	str	r1, [r7, #8]
 800189a:	607a      	str	r2, [r7, #4]
  uint32_t PriorityGroupTmp = (PriorityGroup & (uint32_t)0x07UL);   /* only values 0..7 are used          */
 800189c:	68fb      	ldr	r3, [r7, #12]
 800189e:	f003 0307 	and.w	r3, r3, #7
 80018a2:	61fb      	str	r3, [r7, #28]
  PreemptPriorityBits = ((7UL - PriorityGroupTmp) > (uint32_t)(__NVIC_PRIO_BITS)) ? (uint32_t)(__NVIC_PRIO_BITS) : (uint32_t)(7UL - PriorityGroupTmp);
 80018a4:	69fb      	ldr	r3, [r7, #28]
 80018a6:	f1c3 0307 	rsb	r3, r3, #7
 80018aa:	2b04      	cmp	r3, #4
 80018ac:	bf28      	it	cs
 80018ae:	2304      	movcs	r3, #4
 80018b0:	61bb      	str	r3, [r7, #24]
  SubPriorityBits     = ((PriorityGroupTmp + (uint32_t)(__NVIC_PRIO_BITS)) < (uint32_t)7UL) ? (uint32_t)0UL : (uint32_t)((PriorityGroupTmp - 7UL) + (uint32_t)(__NVIC_PRIO_BITS));
 80018b2:	69fb      	ldr	r3, [r7, #28]
 80018b4:	3304      	adds	r3, #4
 80018b6:	2b06      	cmp	r3, #6
 80018b8:	d902      	bls.n	80018c0 <NVIC_EncodePriority+0x30>
 80018ba:	69fb      	ldr	r3, [r7, #28]
 80018bc:	3b03      	subs	r3, #3
 80018be:	e000      	b.n	80018c2 <NVIC_EncodePriority+0x32>
 80018c0:	2300      	movs	r3, #0
 80018c2:	617b      	str	r3, [r7, #20]
           ((PreemptPriority & (uint32_t)((1UL << (PreemptPriorityBits)) - 1UL)) << SubPriorityBits) |
 80018c4:	f04f 32ff 	mov.w	r2, #4294967295
 80018c8:	69bb      	ldr	r3, [r7, #24]
 80018ca:	fa02 f303 	lsl.w	r3, r2, r3
 80018ce:	43da      	mvns	r2, r3
 80018d0:	68bb      	ldr	r3, [r7, #8]
 80018d2:	401a      	ands	r2, r3
 80018d4:	697b      	ldr	r3, [r7, #20]
 80018d6:	409a      	lsls	r2, r3
           ((SubPriority     & (uint32_t)((1UL << (SubPriorityBits    )) - 1UL)))
 80018d8:	f04f 31ff 	mov.w	r1, #4294967295
 80018dc:	697b      	ldr	r3, [r7, #20]
 80018de:	fa01 f303 	lsl.w	r3, r1, r3
 80018e2:	43d9      	mvns	r1, r3
 80018e4:	687b      	ldr	r3, [r7, #4]
 80018e6:	400b      	ands	r3, r1
           ((PreemptPriority & (uint32_t)((1UL << (PreemptPriorityBits)) - 1UL)) << SubPriorityBits) |
 80018e8:	4313      	orrs	r3, r2
}
 80018ea:	4618      	mov	r0, r3
 80018ec:	3724      	adds	r7, #36	; 0x24
 80018ee:	46bd      	mov	sp, r7
 80018f0:	f85d 7b04 	ldr.w	r7, [sp], #4
 80018f4:	4770      	bx	lr
	...

080018f8 <SysTick_Config>:
  \note    When the variable <b>__Vendor_SysTickConfig</b> is set to 1, then the
           function <b>SysTick_Config</b> is not included. In this case, the file <b><i>device</i>.h</b>
           must contain a vendor-specific implementation of this function.
 */
__STATIC_INLINE uint32_t SysTick_Config(uint32_t ticks)
{
 80018f8:	b580      	push	{r7, lr}
 80018fa:	b082      	sub	sp, #8
 80018fc:	af00      	add	r7, sp, #0
 80018fe:	6078      	str	r0, [r7, #4]
  if ((ticks - 1UL) > SysTick_LOAD_RELOAD_Msk)
 8001900:	687b      	ldr	r3, [r7, #4]
 8001902:	3b01      	subs	r3, #1
 8001904:	f1b3 7f80 	cmp.w	r3, #16777216	; 0x1000000
 8001908:	d301      	bcc.n	800190e <SysTick_Config+0x16>
  {
    return (1UL);                                                   /* Reload value impossible */
 800190a:	2301      	movs	r3, #1
 800190c:	e00f      	b.n	800192e <SysTick_Config+0x36>
  }

  SysTick->LOAD  = (uint32_t)(ticks - 1UL);                         /* set reload register */
 800190e:	4a0a      	ldr	r2, [pc, #40]	; (8001938 <SysTick_Config+0x40>)
 8001910:	687b      	ldr	r3, [r7, #4]
 8001912:	3b01      	subs	r3, #1
 8001914:	6053      	str	r3, [r2, #4]
  NVIC_SetPriority (SysTick_IRQn, (1UL << __NVIC_PRIO_BITS) - 1UL); /* set Priority for Systick Interrupt */
 8001916:	210f      	movs	r1, #15
 8001918:	f04f 30ff 	mov.w	r0, #4294967295
 800191c:	f7ff ff8e 	bl	800183c <__NVIC_SetPriority>
  SysTick->VAL   = 0UL;                                             /* Load the SysTick Counter Value */
 8001920:	4b05      	ldr	r3, [pc, #20]	; (8001938 <SysTick_Config+0x40>)
 8001922:	2200      	movs	r2, #0
 8001924:	609a      	str	r2, [r3, #8]
  SysTick->CTRL  = SysTick_CTRL_CLKSOURCE_Msk |
 8001926:	4b04      	ldr	r3, [pc, #16]	; (8001938 <SysTick_Config+0x40>)
 8001928:	2207      	movs	r2, #7
 800192a:	601a      	str	r2, [r3, #0]
                   SysTick_CTRL_TICKINT_Msk   |
                   SysTick_CTRL_ENABLE_Msk;                         /* Enable SysTick IRQ and SysTick Timer */
  return (0UL);                                                     /* Function successful */
 800192c:	2300      	movs	r3, #0
}
 800192e:	4618      	mov	r0, r3
 8001930:	3708      	adds	r7, #8
 8001932:	46bd      	mov	sp, r7
 8001934:	bd80      	pop	{r7, pc}
 8001936:	bf00      	nop
 8001938:	e000e010 	.word	0xe000e010

0800193c <HAL_NVIC_SetPriorityGrouping>:
  * @note   When the NVIC_PriorityGroup_0 is selected, IRQ preemption is no more possible.
  *         The pending IRQ priority will be managed only by the subpriority.
  * @retval None
  */
void HAL_NVIC_SetPriorityGrouping(uint32_t PriorityGroup)
{
 800193c:	b580      	push	{r7, lr}
 800193e:	b082      	sub	sp, #8
 8001940:	af00      	add	r7, sp, #0
 8001942:	6078      	str	r0, [r7, #4]
  /* Check the parameters */
  assert_param(IS_NVIC_PRIORITY_GROUP(PriorityGroup));

  /* Set the PRIGROUP[10:8] bits according to the PriorityGroup parameter value */
  NVIC_SetPriorityGrouping(PriorityGroup);
 8001944:	6878      	ldr	r0, [r7, #4]
 8001946:	f7ff ff29 	bl	800179c <__NVIC_SetPriorityGrouping>
}
 800194a:	bf00      	nop
 800194c:	3708      	adds	r7, #8
 800194e:	46bd      	mov	sp, r7
 8001950:	bd80      	pop	{r7, pc}

08001952 <HAL_NVIC_SetPriority>:
  *         This parameter can be a value between 0 and 15
  *         A lower priority value indicates a higher priority.
  * @retval None
  */
void HAL_NVIC_SetPriority(IRQn_Type IRQn, uint32_t PreemptPriority, uint32_t SubPriority)
{
 8001952:	b580      	push	{r7, lr}
 8001954:	b086      	sub	sp, #24
 8001956:	af00      	add	r7, sp, #0
 8001958:	4603      	mov	r3, r0
 800195a:	60b9      	str	r1, [r7, #8]
 800195c:	607a      	str	r2, [r7, #4]
 800195e:	81fb      	strh	r3, [r7, #14]

  /* Check the parameters */
  assert_param(IS_NVIC_SUB_PRIORITY(SubPriority));
  assert_param(IS_NVIC_PREEMPTION_PRIORITY(PreemptPriority));

  prioritygroup = NVIC_GetPriorityGrouping();
 8001960:	f7ff ff40 	bl	80017e4 <__NVIC_GetPriorityGrouping>
 8001964:	6178      	str	r0, [r7, #20]

  NVIC_SetPriority(IRQn, NVIC_EncodePriority(prioritygroup, PreemptPriority, SubPriority));
 8001966:	687a      	ldr	r2, [r7, #4]
 8001968:	68b9      	ldr	r1, [r7, #8]
 800196a:	6978      	ldr	r0, [r7, #20]
 800196c:	f7ff ff90 	bl	8001890 <NVIC_EncodePriority>
 8001970:	4602      	mov	r2, r0
 8001972:	f9b7 300e 	ldrsh.w	r3, [r7, #14]
 8001976:	4611      	mov	r1, r2
 8001978:	4618      	mov	r0, r3
 800197a:	f7ff ff5f 	bl	800183c <__NVIC_SetPriority>
}
 800197e:	bf00      	nop
 8001980:	3718      	adds	r7, #24
 8001982:	46bd      	mov	sp, r7
 8001984:	bd80      	pop	{r7, pc}

08001986 <HAL_NVIC_EnableIRQ>:
  *         This parameter can be an enumerator of IRQn_Type enumeration
  *         (For the complete STM32 Devices IRQ Channels list, please refer to the appropriate CMSIS device file (stm32h7xxxx.h))
  * @retval None
  */
void HAL_NVIC_EnableIRQ(IRQn_Type IRQn)
{
 8001986:	b580      	push	{r7, lr}
 8001988:	b082      	sub	sp, #8
 800198a:	af00      	add	r7, sp, #0
 800198c:	4603      	mov	r3, r0
 800198e:	80fb      	strh	r3, [r7, #6]
  /* Check the parameters */
  assert_param(IS_NVIC_DEVICE_IRQ(IRQn));

  /* Enable interrupt */
  NVIC_EnableIRQ(IRQn);
 8001990:	f9b7 3006 	ldrsh.w	r3, [r7, #6]
 8001994:	4618      	mov	r0, r3
 8001996:	f7ff ff33 	bl	8001800 <__NVIC_EnableIRQ>
}
 800199a:	bf00      	nop
 800199c:	3708      	adds	r7, #8
 800199e:	46bd      	mov	sp, r7
 80019a0:	bd80      	pop	{r7, pc}

080019a2 <HAL_SYSTICK_Config>:
  * @param  TicksNumb Specifies the ticks Number of ticks between two interrupts.
  * @retval status   - 0  Function succeeded.
  *                  - 1  Function failed.
  */
uint32_t HAL_SYSTICK_Config(uint32_t TicksNumb)
{
 80019a2:	b580      	push	{r7, lr}
 80019a4:	b082      	sub	sp, #8
 80019a6:	af00      	add	r7, sp, #0
 80019a8:	6078      	str	r0, [r7, #4]
   return SysTick_Config(TicksNumb);
 80019aa:	6878      	ldr	r0, [r7, #4]
 80019ac:	f7ff ffa4 	bl	80018f8 <SysTick_Config>
 80019b0:	4603      	mov	r3, r0
}
 80019b2:	4618      	mov	r0, r3
 80019b4:	3708      	adds	r7, #8
 80019b6:	46bd      	mov	sp, r7
 80019b8:	bd80      	pop	{r7, pc}
	...

080019bc <HAL_MPU_Disable>:
/**
  * @brief  Disables the MPU
  * @retval None
  */
void HAL_MPU_Disable(void)
{
 80019bc:	b480      	push	{r7}
 80019be:	af00      	add	r7, sp, #0
  \details Ensures the apparent order of the explicit memory operations before
           and after the instruction, without ensuring their completion.
 */
__STATIC_FORCEINLINE void __DMB(void)
{
  __ASM volatile ("dmb 0xF":::"memory");
 80019c0:	f3bf 8f5f 	dmb	sy
}
 80019c4:	bf00      	nop
  /* Make sure outstanding transfers are done */
  __DMB();

  /* Disable fault exceptions */
  SCB->SHCSR &= ~SCB_SHCSR_MEMFAULTENA_Msk;
 80019c6:	4b07      	ldr	r3, [pc, #28]	; (80019e4 <HAL_MPU_Disable+0x28>)
 80019c8:	6a5b      	ldr	r3, [r3, #36]	; 0x24
 80019ca:	4a06      	ldr	r2, [pc, #24]	; (80019e4 <HAL_MPU_Disable+0x28>)
 80019cc:	f423 3380 	bic.w	r3, r3, #65536	; 0x10000
 80019d0:	6253      	str	r3, [r2, #36]	; 0x24

  /* Disable the MPU and clear the control register*/
  MPU->CTRL = 0;
 80019d2:	4b05      	ldr	r3, [pc, #20]	; (80019e8 <HAL_MPU_Disable+0x2c>)
 80019d4:	2200      	movs	r2, #0
 80019d6:	605a      	str	r2, [r3, #4]
}
 80019d8:	bf00      	nop
 80019da:	46bd      	mov	sp, r7
 80019dc:	f85d 7b04 	ldr.w	r7, [sp], #4
 80019e0:	4770      	bx	lr
 80019e2:	bf00      	nop
 80019e4:	e000ed00 	.word	0xe000ed00
 80019e8:	e000ed90 	.word	0xe000ed90

080019ec <HAL_MPU_Enable>:
  *            @arg MPU_PRIVILEGED_DEFAULT
  *            @arg MPU_HFNMI_PRIVDEF
  * @retval None
  */
void HAL_MPU_Enable(uint32_t MPU_Control)
{
 80019ec:	b480      	push	{r7}
 80019ee:	b083      	sub	sp, #12
 80019f0:	af00      	add	r7, sp, #0
 80019f2:	6078      	str	r0, [r7, #4]
  /* Enable the MPU */
  MPU->CTRL = MPU_Control | MPU_CTRL_ENABLE_Msk;
 80019f4:	4a0b      	ldr	r2, [pc, #44]	; (8001a24 <HAL_MPU_Enable+0x38>)
 80019f6:	687b      	ldr	r3, [r7, #4]
 80019f8:	f043 0301 	orr.w	r3, r3, #1
 80019fc:	6053      	str	r3, [r2, #4]

  /* Enable fault exceptions */
  SCB->SHCSR |= SCB_SHCSR_MEMFAULTENA_Msk;
 80019fe:	4b0a      	ldr	r3, [pc, #40]	; (8001a28 <HAL_MPU_Enable+0x3c>)
 8001a00:	6a5b      	ldr	r3, [r3, #36]	; 0x24
 8001a02:	4a09      	ldr	r2, [pc, #36]	; (8001a28 <HAL_MPU_Enable+0x3c>)
 8001a04:	f443 3380 	orr.w	r3, r3, #65536	; 0x10000
 8001a08:	6253      	str	r3, [r2, #36]	; 0x24
  __ASM volatile ("dsb 0xF":::"memory");
 8001a0a:	f3bf 8f4f 	dsb	sy
}
 8001a0e:	bf00      	nop
  __ASM volatile ("isb 0xF":::"memory");
 8001a10:	f3bf 8f6f 	isb	sy
}
 8001a14:	bf00      	nop

  /* Ensure MPU setting take effects */
  __DSB();
  __ISB();
}
 8001a16:	bf00      	nop
 8001a18:	370c      	adds	r7, #12
 8001a1a:	46bd      	mov	sp, r7
 8001a1c:	f85d 7b04 	ldr.w	r7, [sp], #4
 8001a20:	4770      	bx	lr
 8001a22:	bf00      	nop
 8001a24:	e000ed90 	.word	0xe000ed90
 8001a28:	e000ed00 	.word	0xe000ed00

08001a2c <HAL_MPU_ConfigRegion>:
  * @param  MPU_Init Pointer to a MPU_Region_InitTypeDef structure that contains
  *                  the initialization and configuration information.
  * @retval None
  */
void HAL_MPU_ConfigRegion(MPU_Region_InitTypeDef *MPU_Init)
{
 8001a2c:	b480      	push	{r7}
 8001a2e:	b083      	sub	sp, #12
 8001a30:	af00      	add	r7, sp, #0
 8001a32:	6078      	str	r0, [r7, #4]
  /* Check the parameters */
  assert_param(IS_MPU_REGION_NUMBER(MPU_Init->Number));
  assert_param(IS_MPU_REGION_ENABLE(MPU_Init->Enable));

  /* Set the Region number */
  MPU->RNR = MPU_Init->Number;
 8001a34:	687b      	ldr	r3, [r7, #4]
 8001a36:	785a      	ldrb	r2, [r3, #1]
 8001a38:	4b1d      	ldr	r3, [pc, #116]	; (8001ab0 <HAL_MPU_ConfigRegion+0x84>)
 8001a3a:	609a      	str	r2, [r3, #8]

  if ((MPU_Init->Enable) != 0UL)
 8001a3c:	687b      	ldr	r3, [r7, #4]
 8001a3e:	781b      	ldrb	r3, [r3, #0]
 8001a40:	2b00      	cmp	r3, #0
 8001a42:	d029      	beq.n	8001a98 <HAL_MPU_ConfigRegion+0x6c>
    assert_param(IS_MPU_ACCESS_CACHEABLE(MPU_Init->IsCacheable));
    assert_param(IS_MPU_ACCESS_BUFFERABLE(MPU_Init->IsBufferable));
    assert_param(IS_MPU_SUB_REGION_DISABLE(MPU_Init->SubRegionDisable));
    assert_param(IS_MPU_REGION_SIZE(MPU_Init->Size));

    MPU->RBAR = MPU_Init->BaseAddress;
 8001a44:	4a1a      	ldr	r2, [pc, #104]	; (8001ab0 <HAL_MPU_ConfigRegion+0x84>)
 8001a46:	687b      	ldr	r3, [r7, #4]
 8001a48:	685b      	ldr	r3, [r3, #4]
 8001a4a:	60d3      	str	r3, [r2, #12]
    MPU->RASR = ((uint32_t)MPU_Init->DisableExec             << MPU_RASR_XN_Pos)   |
 8001a4c:	687b      	ldr	r3, [r7, #4]
 8001a4e:	7b1b      	ldrb	r3, [r3, #12]
 8001a50:	071a      	lsls	r2, r3, #28
                ((uint32_t)MPU_Init->AccessPermission        << MPU_RASR_AP_Pos)   |
 8001a52:	687b      	ldr	r3, [r7, #4]
 8001a54:	7adb      	ldrb	r3, [r3, #11]
 8001a56:	061b      	lsls	r3, r3, #24
    MPU->RASR = ((uint32_t)MPU_Init->DisableExec             << MPU_RASR_XN_Pos)   |
 8001a58:	431a      	orrs	r2, r3
                ((uint32_t)MPU_Init->TypeExtField            << MPU_RASR_TEX_Pos)  |
 8001a5a:	687b      	ldr	r3, [r7, #4]
 8001a5c:	7a9b      	ldrb	r3, [r3, #10]
 8001a5e:	04db      	lsls	r3, r3, #19
                ((uint32_t)MPU_Init->AccessPermission        << MPU_RASR_AP_Pos)   |
 8001a60:	431a      	orrs	r2, r3
                ((uint32_t)MPU_Init->IsShareable             << MPU_RASR_S_Pos)    |
 8001a62:	687b      	ldr	r3, [r7, #4]
 8001a64:	7b5b      	ldrb	r3, [r3, #13]
 8001a66:	049b      	lsls	r3, r3, #18
                ((uint32_t)MPU_Init->TypeExtField            << MPU_RASR_TEX_Pos)  |
 8001a68:	431a      	orrs	r2, r3
                ((uint32_t)MPU_Init->IsCacheable             << MPU_RASR_C_Pos)    |
 8001a6a:	687b      	ldr	r3, [r7, #4]
 8001a6c:	7b9b      	ldrb	r3, [r3, #14]
 8001a6e:	045b      	lsls	r3, r3, #17
                ((uint32_t)MPU_Init->IsShareable             << MPU_RASR_S_Pos)    |
 8001a70:	431a      	orrs	r2, r3
                ((uint32_t)MPU_Init->IsBufferable            << MPU_RASR_B_Pos)    |
 8001a72:	687b      	ldr	r3, [r7, #4]
 8001a74:	7bdb      	ldrb	r3, [r3, #15]
 8001a76:	041b      	lsls	r3, r3, #16
                ((uint32_t)MPU_Init->IsCacheable             << MPU_RASR_C_Pos)    |
 8001a78:	431a      	orrs	r2, r3
                ((uint32_t)MPU_Init->SubRegionDisable        << MPU_RASR_SRD_Pos)  |
 8001a7a:	687b      	ldr	r3, [r7, #4]
 8001a7c:	7a5b      	ldrb	r3, [r3, #9]
 8001a7e:	021b      	lsls	r3, r3, #8
                ((uint32_t)MPU_Init->IsBufferable            << MPU_RASR_B_Pos)    |
 8001a80:	431a      	orrs	r2, r3
                ((uint32_t)MPU_Init->Size                    << MPU_RASR_SIZE_Pos) |
 8001a82:	687b      	ldr	r3, [r7, #4]
 8001a84:	7a1b      	ldrb	r3, [r3, #8]
 8001a86:	005b      	lsls	r3, r3, #1
                ((uint32_t)MPU_Init->SubRegionDisable        << MPU_RASR_SRD_Pos)  |
 8001a88:	4313      	orrs	r3, r2
                ((uint32_t)MPU_Init->Enable                  << MPU_RASR_ENABLE_Pos);
 8001a8a:	687a      	ldr	r2, [r7, #4]
 8001a8c:	7812      	ldrb	r2, [r2, #0]
 8001a8e:	4611      	mov	r1, r2
    MPU->RASR = ((uint32_t)MPU_Init->DisableExec             << MPU_RASR_XN_Pos)   |
 8001a90:	4a07      	ldr	r2, [pc, #28]	; (8001ab0 <HAL_MPU_ConfigRegion+0x84>)
                ((uint32_t)MPU_Init->Size                    << MPU_RASR_SIZE_Pos) |
 8001a92:	430b      	orrs	r3, r1
    MPU->RASR = ((uint32_t)MPU_Init->DisableExec             << MPU_RASR_XN_Pos)   |
 8001a94:	6113      	str	r3, [r2, #16]
  else
  {
    MPU->RBAR = 0x00;
    MPU->RASR = 0x00;
  }
}
 8001a96:	e005      	b.n	8001aa4 <HAL_MPU_ConfigRegion+0x78>
    MPU->RBAR = 0x00;
 8001a98:	4b05      	ldr	r3, [pc, #20]	; (8001ab0 <HAL_MPU_ConfigRegion+0x84>)
 8001a9a:	2200      	movs	r2, #0
 8001a9c:	60da      	str	r2, [r3, #12]
    MPU->RASR = 0x00;
 8001a9e:	4b04      	ldr	r3, [pc, #16]	; (8001ab0 <HAL_MPU_ConfigRegion+0x84>)
 8001aa0:	2200      	movs	r2, #0
 8001aa2:	611a      	str	r2, [r3, #16]
}
 8001aa4:	bf00      	nop
 8001aa6:	370c      	adds	r7, #12
 8001aa8:	46bd      	mov	sp, r7
 8001aaa:	f85d 7b04 	ldr.w	r7, [sp], #4
 8001aae:	4770      	bx	lr
 8001ab0:	e000ed90 	.word	0xe000ed90

08001ab4 <HAL_DMA_Abort>:
  *        and the Stream will be effectively disabled only after the transfer of
  *        this single data is finished.
  * @retval HAL status
  */
HAL_StatusTypeDef HAL_DMA_Abort(DMA_HandleTypeDef *hdma)
{
 8001ab4:	b580      	push	{r7, lr}
 8001ab6:	b086      	sub	sp, #24
 8001ab8:	af00      	add	r7, sp, #0
 8001aba:	6078      	str	r0, [r7, #4]
  /* calculate DMA base and stream number */
  DMA_Base_Registers *regs_dma;
  BDMA_Base_Registers *regs_bdma;
  const __IO uint32_t *enableRegister;

  uint32_t tickstart = HAL_GetTick();
 8001abc:	f7ff fe1e 	bl	80016fc <HAL_GetTick>
 8001ac0:	6138      	str	r0, [r7, #16]

 /* Check the DMA peripheral handle */
  if(hdma == NULL)
 8001ac2:	687b      	ldr	r3, [r7, #4]
 8001ac4:	2b00      	cmp	r3, #0
 8001ac6:	d101      	bne.n	8001acc <HAL_DMA_Abort+0x18>
  {
    return HAL_ERROR;
 8001ac8:	2301      	movs	r3, #1
 8001aca:	e2dc      	b.n	8002086 <HAL_DMA_Abort+0x5d2>
  }

  /* Check the DMA peripheral state */
  if(hdma->State != HAL_DMA_STATE_BUSY)
 8001acc:	687b      	ldr	r3, [r7, #4]
 8001ace:	f893 3035 	ldrb.w	r3, [r3, #53]	; 0x35
 8001ad2:	b2db      	uxtb	r3, r3
 8001ad4:	2b02      	cmp	r3, #2
 8001ad6:	d008      	beq.n	8001aea <HAL_DMA_Abort+0x36>
  {
    hdma->ErrorCode = HAL_DMA_ERROR_NO_XFER;
 8001ad8:	687b      	ldr	r3, [r7, #4]
 8001ada:	2280      	movs	r2, #128	; 0x80
 8001adc:	655a      	str	r2, [r3, #84]	; 0x54

    /* Process Unlocked */
    __HAL_UNLOCK(hdma);
 8001ade:	687b      	ldr	r3, [r7, #4]
 8001ae0:	2200      	movs	r2, #0
 8001ae2:	f883 2034 	strb.w	r2, [r3, #52]	; 0x34

    return HAL_ERROR;
 8001ae6:	2301      	movs	r3, #1
 8001ae8:	e2cd      	b.n	8002086 <HAL_DMA_Abort+0x5d2>
  }
  else
  {
    /* Disable all the transfer interrupts */
    if(IS_DMA_STREAM_INSTANCE(hdma->Instance) != 0U) /* DMA1 or DMA2 instance */
 8001aea:	687b      	ldr	r3, [r7, #4]
 8001aec:	681b      	ldr	r3, [r3, #0]
 8001aee:	4a76      	ldr	r2, [pc, #472]	; (8001cc8 <HAL_DMA_Abort+0x214>)
 8001af0:	4293      	cmp	r3, r2
 8001af2:	d04a      	beq.n	8001b8a <HAL_DMA_Abort+0xd6>
 8001af4:	687b      	ldr	r3, [r7, #4]
 8001af6:	681b      	ldr	r3, [r3, #0]
 8001af8:	4a74      	ldr	r2, [pc, #464]	; (8001ccc <HAL_DMA_Abort+0x218>)
 8001afa:	4293      	cmp	r3, r2
 8001afc:	d045      	beq.n	8001b8a <HAL_DMA_Abort+0xd6>
 8001afe:	687b      	ldr	r3, [r7, #4]
 8001b00:	681b      	ldr	r3, [r3, #0]
 8001b02:	4a73      	ldr	r2, [pc, #460]	; (8001cd0 <HAL_DMA_Abort+0x21c>)
 8001b04:	4293      	cmp	r3, r2
 8001b06:	d040      	beq.n	8001b8a <HAL_DMA_Abort+0xd6>
 8001b08:	687b      	ldr	r3, [r7, #4]
 8001b0a:	681b      	ldr	r3, [r3, #0]
 8001b0c:	4a71      	ldr	r2, [pc, #452]	; (8001cd4 <HAL_DMA_Abort+0x220>)
 8001b0e:	4293      	cmp	r3, r2
 8001b10:	d03b      	beq.n	8001b8a <HAL_DMA_Abort+0xd6>
 8001b12:	687b      	ldr	r3, [r7, #4]
 8001b14:	681b      	ldr	r3, [r3, #0]
 8001b16:	4a70      	ldr	r2, [pc, #448]	; (8001cd8 <HAL_DMA_Abort+0x224>)
 8001b18:	4293      	cmp	r3, r2
 8001b1a:	d036      	beq.n	8001b8a <HAL_DMA_Abort+0xd6>
 8001b1c:	687b      	ldr	r3, [r7, #4]
 8001b1e:	681b      	ldr	r3, [r3, #0]
 8001b20:	4a6e      	ldr	r2, [pc, #440]	; (8001cdc <HAL_DMA_Abort+0x228>)
 8001b22:	4293      	cmp	r3, r2
 8001b24:	d031      	beq.n	8001b8a <HAL_DMA_Abort+0xd6>
 8001b26:	687b      	ldr	r3, [r7, #4]
 8001b28:	681b      	ldr	r3, [r3, #0]
 8001b2a:	4a6d      	ldr	r2, [pc, #436]	; (8001ce0 <HAL_DMA_Abort+0x22c>)
 8001b2c:	4293      	cmp	r3, r2
 8001b2e:	d02c      	beq.n	8001b8a <HAL_DMA_Abort+0xd6>
 8001b30:	687b      	ldr	r3, [r7, #4]
 8001b32:	681b      	ldr	r3, [r3, #0]
 8001b34:	4a6b      	ldr	r2, [pc, #428]	; (8001ce4 <HAL_DMA_Abort+0x230>)
 8001b36:	4293      	cmp	r3, r2
 8001b38:	d027      	beq.n	8001b8a <HAL_DMA_Abort+0xd6>
 8001b3a:	687b      	ldr	r3, [r7, #4]
 8001b3c:	681b      	ldr	r3, [r3, #0]
 8001b3e:	4a6a      	ldr	r2, [pc, #424]	; (8001ce8 <HAL_DMA_Abort+0x234>)
 8001b40:	4293      	cmp	r3, r2
 8001b42:	d022      	beq.n	8001b8a <HAL_DMA_Abort+0xd6>
 8001b44:	687b      	ldr	r3, [r7, #4]
 8001b46:	681b      	ldr	r3, [r3, #0]
 8001b48:	4a68      	ldr	r2, [pc, #416]	; (8001cec <HAL_DMA_Abort+0x238>)
 8001b4a:	4293      	cmp	r3, r2
 8001b4c:	d01d      	beq.n	8001b8a <HAL_DMA_Abort+0xd6>
 8001b4e:	687b      	ldr	r3, [r7, #4]
 8001b50:	681b      	ldr	r3, [r3, #0]
 8001b52:	4a67      	ldr	r2, [pc, #412]	; (8001cf0 <HAL_DMA_Abort+0x23c>)
 8001b54:	4293      	cmp	r3, r2
 8001b56:	d018      	beq.n	8001b8a <HAL_DMA_Abort+0xd6>
 8001b58:	687b      	ldr	r3, [r7, #4]
 8001b5a:	681b      	ldr	r3, [r3, #0]
 8001b5c:	4a65      	ldr	r2, [pc, #404]	; (8001cf4 <HAL_DMA_Abort+0x240>)
 8001b5e:	4293      	cmp	r3, r2
 8001b60:	d013      	beq.n	8001b8a <HAL_DMA_Abort+0xd6>
 8001b62:	687b      	ldr	r3, [r7, #4]
 8001b64:	681b      	ldr	r3, [r3, #0]
 8001b66:	4a64      	ldr	r2, [pc, #400]	; (8001cf8 <HAL_DMA_Abort+0x244>)
 8001b68:	4293      	cmp	r3, r2
 8001b6a:	d00e      	beq.n	8001b8a <HAL_DMA_Abort+0xd6>
 8001b6c:	687b      	ldr	r3, [r7, #4]
 8001b6e:	681b      	ldr	r3, [r3, #0]
 8001b70:	4a62      	ldr	r2, [pc, #392]	; (8001cfc <HAL_DMA_Abort+0x248>)
 8001b72:	4293      	cmp	r3, r2
 8001b74:	d009      	beq.n	8001b8a <HAL_DMA_Abort+0xd6>
 8001b76:	687b      	ldr	r3, [r7, #4]
 8001b78:	681b      	ldr	r3, [r3, #0]
 8001b7a:	4a61      	ldr	r2, [pc, #388]	; (8001d00 <HAL_DMA_Abort+0x24c>)
 8001b7c:	4293      	cmp	r3, r2
 8001b7e:	d004      	beq.n	8001b8a <HAL_DMA_Abort+0xd6>
 8001b80:	687b      	ldr	r3, [r7, #4]
 8001b82:	681b      	ldr	r3, [r3, #0]
 8001b84:	4a5f      	ldr	r2, [pc, #380]	; (8001d04 <HAL_DMA_Abort+0x250>)
 8001b86:	4293      	cmp	r3, r2
 8001b88:	d101      	bne.n	8001b8e <HAL_DMA_Abort+0xda>
 8001b8a:	2301      	movs	r3, #1
 8001b8c:	e000      	b.n	8001b90 <HAL_DMA_Abort+0xdc>
 8001b8e:	2300      	movs	r3, #0
 8001b90:	2b00      	cmp	r3, #0
 8001b92:	d013      	beq.n	8001bbc <HAL_DMA_Abort+0x108>
    {
       /* Disable DMA All Interrupts  */
      ((DMA_Stream_TypeDef   *)hdma->Instance)->CR  &= ~(DMA_IT_TC | DMA_IT_TE | DMA_IT_DME | DMA_IT_HT);
 8001b94:	687b      	ldr	r3, [r7, #4]
 8001b96:	681b      	ldr	r3, [r3, #0]
 8001b98:	681a      	ldr	r2, [r3, #0]
 8001b9a:	687b      	ldr	r3, [r7, #4]
 8001b9c:	681b      	ldr	r3, [r3, #0]
 8001b9e:	f022 021e 	bic.w	r2, r2, #30
 8001ba2:	601a      	str	r2, [r3, #0]
      ((DMA_Stream_TypeDef   *)hdma->Instance)->FCR &= ~(DMA_IT_FE);
 8001ba4:	687b      	ldr	r3, [r7, #4]
 8001ba6:	681b      	ldr	r3, [r3, #0]
 8001ba8:	695a      	ldr	r2, [r3, #20]
 8001baa:	687b      	ldr	r3, [r7, #4]
 8001bac:	681b      	ldr	r3, [r3, #0]
 8001bae:	f022 0280 	bic.w	r2, r2, #128	; 0x80
 8001bb2:	615a      	str	r2, [r3, #20]

      enableRegister = (__IO uint32_t *)(&(((DMA_Stream_TypeDef   *)hdma->Instance)->CR));
 8001bb4:	687b      	ldr	r3, [r7, #4]
 8001bb6:	681b      	ldr	r3, [r3, #0]
 8001bb8:	617b      	str	r3, [r7, #20]
 8001bba:	e00a      	b.n	8001bd2 <HAL_DMA_Abort+0x11e>
    }
    else /* BDMA channel */
    {
      /* Disable DMA All Interrupts */
      ((BDMA_Channel_TypeDef   *)hdma->Instance)->CCR  &= ~(BDMA_CCR_TCIE | BDMA_CCR_HTIE | BDMA_CCR_TEIE);
 8001bbc:	687b      	ldr	r3, [r7, #4]
 8001bbe:	681b      	ldr	r3, [r3, #0]
 8001bc0:	681a      	ldr	r2, [r3, #0]
 8001bc2:	687b      	ldr	r3, [r7, #4]
 8001bc4:	681b      	ldr	r3, [r3, #0]
 8001bc6:	f022 020e 	bic.w	r2, r2, #14
 8001bca:	601a      	str	r2, [r3, #0]

      enableRegister = (__IO uint32_t *)(&(((BDMA_Channel_TypeDef   *)hdma->Instance)->CCR));
 8001bcc:	687b      	ldr	r3, [r7, #4]
 8001bce:	681b      	ldr	r3, [r3, #0]
 8001bd0:	617b      	str	r3, [r7, #20]
    }

    if(IS_DMA_DMAMUX_ALL_INSTANCE(hdma->Instance) != 0U) /* No DMAMUX available for BDMA1 */
 8001bd2:	687b      	ldr	r3, [r7, #4]
 8001bd4:	681b      	ldr	r3, [r3, #0]
 8001bd6:	4a3c      	ldr	r2, [pc, #240]	; (8001cc8 <HAL_DMA_Abort+0x214>)
 8001bd8:	4293      	cmp	r3, r2
 8001bda:	d072      	beq.n	8001cc2 <HAL_DMA_Abort+0x20e>
 8001bdc:	687b      	ldr	r3, [r7, #4]
 8001bde:	681b      	ldr	r3, [r3, #0]
 8001be0:	4a3a      	ldr	r2, [pc, #232]	; (8001ccc <HAL_DMA_Abort+0x218>)
 8001be2:	4293      	cmp	r3, r2
 8001be4:	d06d      	beq.n	8001cc2 <HAL_DMA_Abort+0x20e>
 8001be6:	687b      	ldr	r3, [r7, #4]
 8001be8:	681b      	ldr	r3, [r3, #0]
 8001bea:	4a39      	ldr	r2, [pc, #228]	; (8001cd0 <HAL_DMA_Abort+0x21c>)
 8001bec:	4293      	cmp	r3, r2
 8001bee:	d068      	beq.n	8001cc2 <HAL_DMA_Abort+0x20e>
 8001bf0:	687b      	ldr	r3, [r7, #4]
 8001bf2:	681b      	ldr	r3, [r3, #0]
 8001bf4:	4a37      	ldr	r2, [pc, #220]	; (8001cd4 <HAL_DMA_Abort+0x220>)
 8001bf6:	4293      	cmp	r3, r2
 8001bf8:	d063      	beq.n	8001cc2 <HAL_DMA_Abort+0x20e>
 8001bfa:	687b      	ldr	r3, [r7, #4]
 8001bfc:	681b      	ldr	r3, [r3, #0]
 8001bfe:	4a36      	ldr	r2, [pc, #216]	; (8001cd8 <HAL_DMA_Abort+0x224>)
 8001c00:	4293      	cmp	r3, r2
 8001c02:	d05e      	beq.n	8001cc2 <HAL_DMA_Abort+0x20e>
 8001c04:	687b      	ldr	r3, [r7, #4]
 8001c06:	681b      	ldr	r3, [r3, #0]
 8001c08:	4a34      	ldr	r2, [pc, #208]	; (8001cdc <HAL_DMA_Abort+0x228>)
 8001c0a:	4293      	cmp	r3, r2
 8001c0c:	d059      	beq.n	8001cc2 <HAL_DMA_Abort+0x20e>
 8001c0e:	687b      	ldr	r3, [r7, #4]
 8001c10:	681b      	ldr	r3, [r3, #0]
 8001c12:	4a33      	ldr	r2, [pc, #204]	; (8001ce0 <HAL_DMA_Abort+0x22c>)
 8001c14:	4293      	cmp	r3, r2
 8001c16:	d054      	beq.n	8001cc2 <HAL_DMA_Abort+0x20e>
 8001c18:	687b      	ldr	r3, [r7, #4]
 8001c1a:	681b      	ldr	r3, [r3, #0]
 8001c1c:	4a31      	ldr	r2, [pc, #196]	; (8001ce4 <HAL_DMA_Abort+0x230>)
 8001c1e:	4293      	cmp	r3, r2
 8001c20:	d04f      	beq.n	8001cc2 <HAL_DMA_Abort+0x20e>
 8001c22:	687b      	ldr	r3, [r7, #4]
 8001c24:	681b      	ldr	r3, [r3, #0]
 8001c26:	4a30      	ldr	r2, [pc, #192]	; (8001ce8 <HAL_DMA_Abort+0x234>)
 8001c28:	4293      	cmp	r3, r2
 8001c2a:	d04a      	beq.n	8001cc2 <HAL_DMA_Abort+0x20e>
 8001c2c:	687b      	ldr	r3, [r7, #4]
 8001c2e:	681b      	ldr	r3, [r3, #0]
 8001c30:	4a2e      	ldr	r2, [pc, #184]	; (8001cec <HAL_DMA_Abort+0x238>)
 8001c32:	4293      	cmp	r3, r2
 8001c34:	d045      	beq.n	8001cc2 <HAL_DMA_Abort+0x20e>
 8001c36:	687b      	ldr	r3, [r7, #4]
 8001c38:	681b      	ldr	r3, [r3, #0]
 8001c3a:	4a2d      	ldr	r2, [pc, #180]	; (8001cf0 <HAL_DMA_Abort+0x23c>)
 8001c3c:	4293      	cmp	r3, r2
 8001c3e:	d040      	beq.n	8001cc2 <HAL_DMA_Abort+0x20e>
 8001c40:	687b      	ldr	r3, [r7, #4]
 8001c42:	681b      	ldr	r3, [r3, #0]
 8001c44:	4a2b      	ldr	r2, [pc, #172]	; (8001cf4 <HAL_DMA_Abort+0x240>)
 8001c46:	4293      	cmp	r3, r2
 8001c48:	d03b      	beq.n	8001cc2 <HAL_DMA_Abort+0x20e>
 8001c4a:	687b      	ldr	r3, [r7, #4]
 8001c4c:	681b      	ldr	r3, [r3, #0]
 8001c4e:	4a2a      	ldr	r2, [pc, #168]	; (8001cf8 <HAL_DMA_Abort+0x244>)
 8001c50:	4293      	cmp	r3, r2
 8001c52:	d036      	beq.n	8001cc2 <HAL_DMA_Abort+0x20e>
 8001c54:	687b      	ldr	r3, [r7, #4]
 8001c56:	681b      	ldr	r3, [r3, #0]
 8001c58:	4a28      	ldr	r2, [pc, #160]	; (8001cfc <HAL_DMA_Abort+0x248>)
 8001c5a:	4293      	cmp	r3, r2
 8001c5c:	d031      	beq.n	8001cc2 <HAL_DMA_Abort+0x20e>
 8001c5e:	687b      	ldr	r3, [r7, #4]
 8001c60:	681b      	ldr	r3, [r3, #0]
 8001c62:	4a27      	ldr	r2, [pc, #156]	; (8001d00 <HAL_DMA_Abort+0x24c>)
 8001c64:	4293      	cmp	r3, r2
 8001c66:	d02c      	beq.n	8001cc2 <HAL_DMA_Abort+0x20e>
 8001c68:	687b      	ldr	r3, [r7, #4]
 8001c6a:	681b      	ldr	r3, [r3, #0]
 8001c6c:	4a25      	ldr	r2, [pc, #148]	; (8001d04 <HAL_DMA_Abort+0x250>)
 8001c6e:	4293      	cmp	r3, r2
 8001c70:	d027      	beq.n	8001cc2 <HAL_DMA_Abort+0x20e>
 8001c72:	687b      	ldr	r3, [r7, #4]
 8001c74:	681b      	ldr	r3, [r3, #0]
 8001c76:	4a24      	ldr	r2, [pc, #144]	; (8001d08 <HAL_DMA_Abort+0x254>)
 8001c78:	4293      	cmp	r3, r2
 8001c7a:	d022      	beq.n	8001cc2 <HAL_DMA_Abort+0x20e>
 8001c7c:	687b      	ldr	r3, [r7, #4]
 8001c7e:	681b      	ldr	r3, [r3, #0]
 8001c80:	4a22      	ldr	r2, [pc, #136]	; (8001d0c <HAL_DMA_Abort+0x258>)
 8001c82:	4293      	cmp	r3, r2
 8001c84:	d01d      	beq.n	8001cc2 <HAL_DMA_Abort+0x20e>
 8001c86:	687b      	ldr	r3, [r7, #4]
 8001c88:	681b      	ldr	r3, [r3, #0]
 8001c8a:	4a21      	ldr	r2, [pc, #132]	; (8001d10 <HAL_DMA_Abort+0x25c>)
 8001c8c:	4293      	cmp	r3, r2
 8001c8e:	d018      	beq.n	8001cc2 <HAL_DMA_Abort+0x20e>
 8001c90:	687b      	ldr	r3, [r7, #4]
 8001c92:	681b      	ldr	r3, [r3, #0]
 8001c94:	4a1f      	ldr	r2, [pc, #124]	; (8001d14 <HAL_DMA_Abort+0x260>)
 8001c96:	4293      	cmp	r3, r2
 8001c98:	d013      	beq.n	8001cc2 <HAL_DMA_Abort+0x20e>
 8001c9a:	687b      	ldr	r3, [r7, #4]
 8001c9c:	681b      	ldr	r3, [r3, #0]
 8001c9e:	4a1e      	ldr	r2, [pc, #120]	; (8001d18 <HAL_DMA_Abort+0x264>)
 8001ca0:	4293      	cmp	r3, r2
 8001ca2:	d00e      	beq.n	8001cc2 <HAL_DMA_Abort+0x20e>
 8001ca4:	687b      	ldr	r3, [r7, #4]
 8001ca6:	681b      	ldr	r3, [r3, #0]
 8001ca8:	4a1c      	ldr	r2, [pc, #112]	; (8001d1c <HAL_DMA_Abort+0x268>)
 8001caa:	4293      	cmp	r3, r2
 8001cac:	d009      	beq.n	8001cc2 <HAL_DMA_Abort+0x20e>
 8001cae:	687b      	ldr	r3, [r7, #4]
 8001cb0:	681b      	ldr	r3, [r3, #0]
 8001cb2:	4a1b      	ldr	r2, [pc, #108]	; (8001d20 <HAL_DMA_Abort+0x26c>)
 8001cb4:	4293      	cmp	r3, r2
 8001cb6:	d004      	beq.n	8001cc2 <HAL_DMA_Abort+0x20e>
 8001cb8:	687b      	ldr	r3, [r7, #4]
 8001cba:	681b      	ldr	r3, [r3, #0]
 8001cbc:	4a19      	ldr	r2, [pc, #100]	; (8001d24 <HAL_DMA_Abort+0x270>)
 8001cbe:	4293      	cmp	r3, r2
 8001cc0:	d132      	bne.n	8001d28 <HAL_DMA_Abort+0x274>
 8001cc2:	2301      	movs	r3, #1
 8001cc4:	e031      	b.n	8001d2a <HAL_DMA_Abort+0x276>
 8001cc6:	bf00      	nop
 8001cc8:	40020010 	.word	0x40020010
 8001ccc:	40020028 	.word	0x40020028
 8001cd0:	40020040 	.word	0x40020040
 8001cd4:	40020058 	.word	0x40020058
 8001cd8:	40020070 	.word	0x40020070
 8001cdc:	40020088 	.word	0x40020088
 8001ce0:	400200a0 	.word	0x400200a0
 8001ce4:	400200b8 	.word	0x400200b8
 8001ce8:	40020410 	.word	0x40020410
 8001cec:	40020428 	.word	0x40020428
 8001cf0:	40020440 	.word	0x40020440
 8001cf4:	40020458 	.word	0x40020458
 8001cf8:	40020470 	.word	0x40020470
 8001cfc:	40020488 	.word	0x40020488
 8001d00:	400204a0 	.word	0x400204a0
 8001d04:	400204b8 	.word	0x400204b8
 8001d08:	58025408 	.word	0x58025408
 8001d0c:	5802541c 	.word	0x5802541c
 8001d10:	58025430 	.word	0x58025430
 8001d14:	58025444 	.word	0x58025444
 8001d18:	58025458 	.word	0x58025458
 8001d1c:	5802546c 	.word	0x5802546c
 8001d20:	58025480 	.word	0x58025480
 8001d24:	58025494 	.word	0x58025494
 8001d28:	2300      	movs	r3, #0
 8001d2a:	2b00      	cmp	r3, #0
 8001d2c:	d007      	beq.n	8001d3e <HAL_DMA_Abort+0x28a>
    {
      /* disable the DMAMUX sync overrun IT */
      hdma->DMAmuxChannel->CCR &= ~DMAMUX_CxCR_SOIE;
 8001d2e:	687b      	ldr	r3, [r7, #4]
 8001d30:	6e1b      	ldr	r3, [r3, #96]	; 0x60
 8001d32:	681a      	ldr	r2, [r3, #0]
 8001d34:	687b      	ldr	r3, [r7, #4]
 8001d36:	6e1b      	ldr	r3, [r3, #96]	; 0x60
 8001d38:	f422 7280 	bic.w	r2, r2, #256	; 0x100
 8001d3c:	601a      	str	r2, [r3, #0]
    }

    /* Disable the stream */
    __HAL_DMA_DISABLE(hdma);
 8001d3e:	687b      	ldr	r3, [r7, #4]
 8001d40:	681b      	ldr	r3, [r3, #0]
 8001d42:	4a6d      	ldr	r2, [pc, #436]	; (8001ef8 <HAL_DMA_Abort+0x444>)
 8001d44:	4293      	cmp	r3, r2
 8001d46:	d04a      	beq.n	8001dde <HAL_DMA_Abort+0x32a>
 8001d48:	687b      	ldr	r3, [r7, #4]
 8001d4a:	681b      	ldr	r3, [r3, #0]
 8001d4c:	4a6b      	ldr	r2, [pc, #428]	; (8001efc <HAL_DMA_Abort+0x448>)
 8001d4e:	4293      	cmp	r3, r2
 8001d50:	d045      	beq.n	8001dde <HAL_DMA_Abort+0x32a>
 8001d52:	687b      	ldr	r3, [r7, #4]
 8001d54:	681b      	ldr	r3, [r3, #0]
 8001d56:	4a6a      	ldr	r2, [pc, #424]	; (8001f00 <HAL_DMA_Abort+0x44c>)
 8001d58:	4293      	cmp	r3, r2
 8001d5a:	d040      	beq.n	8001dde <HAL_DMA_Abort+0x32a>
 8001d5c:	687b      	ldr	r3, [r7, #4]
 8001d5e:	681b      	ldr	r3, [r3, #0]
 8001d60:	4a68      	ldr	r2, [pc, #416]	; (8001f04 <HAL_DMA_Abort+0x450>)
 8001d62:	4293      	cmp	r3, r2
 8001d64:	d03b      	beq.n	8001dde <HAL_DMA_Abort+0x32a>
 8001d66:	687b      	ldr	r3, [r7, #4]
 8001d68:	681b      	ldr	r3, [r3, #0]
 8001d6a:	4a67      	ldr	r2, [pc, #412]	; (8001f08 <HAL_DMA_Abort+0x454>)
 8001d6c:	4293      	cmp	r3, r2
 8001d6e:	d036      	beq.n	8001dde <HAL_DMA_Abort+0x32a>
 8001d70:	687b      	ldr	r3, [r7, #4]
 8001d72:	681b      	ldr	r3, [r3, #0]
 8001d74:	4a65      	ldr	r2, [pc, #404]	; (8001f0c <HAL_DMA_Abort+0x458>)
 8001d76:	4293      	cmp	r3, r2
 8001d78:	d031      	beq.n	8001dde <HAL_DMA_Abort+0x32a>
 8001d7a:	687b      	ldr	r3, [r7, #4]
 8001d7c:	681b      	ldr	r3, [r3, #0]
 8001d7e:	4a64      	ldr	r2, [pc, #400]	; (8001f10 <HAL_DMA_Abort+0x45c>)
 8001d80:	4293      	cmp	r3, r2
 8001d82:	d02c      	beq.n	8001dde <HAL_DMA_Abort+0x32a>
 8001d84:	687b      	ldr	r3, [r7, #4]
 8001d86:	681b      	ldr	r3, [r3, #0]
 8001d88:	4a62      	ldr	r2, [pc, #392]	; (8001f14 <HAL_DMA_Abort+0x460>)
 8001d8a:	4293      	cmp	r3, r2
 8001d8c:	d027      	beq.n	8001dde <HAL_DMA_Abort+0x32a>
 8001d8e:	687b      	ldr	r3, [r7, #4]
 8001d90:	681b      	ldr	r3, [r3, #0]
 8001d92:	4a61      	ldr	r2, [pc, #388]	; (8001f18 <HAL_DMA_Abort+0x464>)
 8001d94:	4293      	cmp	r3, r2
 8001d96:	d022      	beq.n	8001dde <HAL_DMA_Abort+0x32a>
 8001d98:	687b      	ldr	r3, [r7, #4]
 8001d9a:	681b      	ldr	r3, [r3, #0]
 8001d9c:	4a5f      	ldr	r2, [pc, #380]	; (8001f1c <HAL_DMA_Abort+0x468>)
 8001d9e:	4293      	cmp	r3, r2
 8001da0:	d01d      	beq.n	8001dde <HAL_DMA_Abort+0x32a>
 8001da2:	687b      	ldr	r3, [r7, #4]
 8001da4:	681b      	ldr	r3, [r3, #0]
 8001da6:	4a5e      	ldr	r2, [pc, #376]	; (8001f20 <HAL_DMA_Abort+0x46c>)
 8001da8:	4293      	cmp	r3, r2
 8001daa:	d018      	beq.n	8001dde <HAL_DMA_Abort+0x32a>
 8001dac:	687b      	ldr	r3, [r7, #4]
 8001dae:	681b      	ldr	r3, [r3, #0]
 8001db0:	4a5c      	ldr	r2, [pc, #368]	; (8001f24 <HAL_DMA_Abort+0x470>)
 8001db2:	4293      	cmp	r3, r2
 8001db4:	d013      	beq.n	8001dde <HAL_DMA_Abort+0x32a>
 8001db6:	687b      	ldr	r3, [r7, #4]
 8001db8:	681b      	ldr	r3, [r3, #0]
 8001dba:	4a5b      	ldr	r2, [pc, #364]	; (8001f28 <HAL_DMA_Abort+0x474>)
 8001dbc:	4293      	cmp	r3, r2
 8001dbe:	d00e      	beq.n	8001dde <HAL_DMA_Abort+0x32a>
 8001dc0:	687b      	ldr	r3, [r7, #4]
 8001dc2:	681b      	ldr	r3, [r3, #0]
 8001dc4:	4a59      	ldr	r2, [pc, #356]	; (8001f2c <HAL_DMA_Abort+0x478>)
 8001dc6:	4293      	cmp	r3, r2
 8001dc8:	d009      	beq.n	8001dde <HAL_DMA_Abort+0x32a>
 8001dca:	687b      	ldr	r3, [r7, #4]
 8001dcc:	681b      	ldr	r3, [r3, #0]
 8001dce:	4a58      	ldr	r2, [pc, #352]	; (8001f30 <HAL_DMA_Abort+0x47c>)
 8001dd0:	4293      	cmp	r3, r2
 8001dd2:	d004      	beq.n	8001dde <HAL_DMA_Abort+0x32a>
 8001dd4:	687b      	ldr	r3, [r7, #4]
 8001dd6:	681b      	ldr	r3, [r3, #0]
 8001dd8:	4a56      	ldr	r2, [pc, #344]	; (8001f34 <HAL_DMA_Abort+0x480>)
 8001dda:	4293      	cmp	r3, r2
 8001ddc:	d108      	bne.n	8001df0 <HAL_DMA_Abort+0x33c>
 8001dde:	687b      	ldr	r3, [r7, #4]
 8001de0:	681b      	ldr	r3, [r3, #0]
 8001de2:	681a      	ldr	r2, [r3, #0]
 8001de4:	687b      	ldr	r3, [r7, #4]
 8001de6:	681b      	ldr	r3, [r3, #0]
 8001de8:	f022 0201 	bic.w	r2, r2, #1
 8001dec:	601a      	str	r2, [r3, #0]
 8001dee:	e007      	b.n	8001e00 <HAL_DMA_Abort+0x34c>
 8001df0:	687b      	ldr	r3, [r7, #4]
 8001df2:	681b      	ldr	r3, [r3, #0]
 8001df4:	681a      	ldr	r2, [r3, #0]
 8001df6:	687b      	ldr	r3, [r7, #4]
 8001df8:	681b      	ldr	r3, [r3, #0]
 8001dfa:	f022 0201 	bic.w	r2, r2, #1
 8001dfe:	601a      	str	r2, [r3, #0]

    /* Check if the DMA Stream is effectively disabled */
    while(((*enableRegister) & DMA_SxCR_EN) != 0U)
 8001e00:	e013      	b.n	8001e2a <HAL_DMA_Abort+0x376>
    {
      /* Check for the Timeout */
      if((HAL_GetTick() - tickstart ) > HAL_TIMEOUT_DMA_ABORT)
 8001e02:	f7ff fc7b 	bl	80016fc <HAL_GetTick>
 8001e06:	4602      	mov	r2, r0
 8001e08:	693b      	ldr	r3, [r7, #16]
 8001e0a:	1ad3      	subs	r3, r2, r3
 8001e0c:	2b05      	cmp	r3, #5
 8001e0e:	d90c      	bls.n	8001e2a <HAL_DMA_Abort+0x376>
      {
        /* Update error code */
        hdma->ErrorCode = HAL_DMA_ERROR_TIMEOUT;
 8001e10:	687b      	ldr	r3, [r7, #4]
 8001e12:	2220      	movs	r2, #32
 8001e14:	655a      	str	r2, [r3, #84]	; 0x54

        /* Change the DMA state */
        hdma->State = HAL_DMA_STATE_ERROR;
 8001e16:	687b      	ldr	r3, [r7, #4]
 8001e18:	2203      	movs	r2, #3
 8001e1a:	f883 2035 	strb.w	r2, [r3, #53]	; 0x35

        /* Process Unlocked */
        __HAL_UNLOCK(hdma);
 8001e1e:	687b      	ldr	r3, [r7, #4]
 8001e20:	2200      	movs	r2, #0
 8001e22:	f883 2034 	strb.w	r2, [r3, #52]	; 0x34

        return HAL_ERROR;
 8001e26:	2301      	movs	r3, #1
 8001e28:	e12d      	b.n	8002086 <HAL_DMA_Abort+0x5d2>
    while(((*enableRegister) & DMA_SxCR_EN) != 0U)
 8001e2a:	697b      	ldr	r3, [r7, #20]
 8001e2c:	681b      	ldr	r3, [r3, #0]
 8001e2e:	f003 0301 	and.w	r3, r3, #1
 8001e32:	2b00      	cmp	r3, #0
 8001e34:	d1e5      	bne.n	8001e02 <HAL_DMA_Abort+0x34e>
      }
    }

    /* Clear all interrupt flags at correct offset within the register */
    if(IS_DMA_STREAM_INSTANCE(hdma->Instance) != 0U) /* DMA1 or DMA2 instance */
 8001e36:	687b      	ldr	r3, [r7, #4]
 8001e38:	681b      	ldr	r3, [r3, #0]
 8001e3a:	4a2f      	ldr	r2, [pc, #188]	; (8001ef8 <HAL_DMA_Abort+0x444>)
 8001e3c:	4293      	cmp	r3, r2
 8001e3e:	d04a      	beq.n	8001ed6 <HAL_DMA_Abort+0x422>
 8001e40:	687b      	ldr	r3, [r7, #4]
 8001e42:	681b      	ldr	r3, [r3, #0]
 8001e44:	4a2d      	ldr	r2, [pc, #180]	; (8001efc <HAL_DMA_Abort+0x448>)
 8001e46:	4293      	cmp	r3, r2
 8001e48:	d045      	beq.n	8001ed6 <HAL_DMA_Abort+0x422>
 8001e4a:	687b      	ldr	r3, [r7, #4]
 8001e4c:	681b      	ldr	r3, [r3, #0]
 8001e4e:	4a2c      	ldr	r2, [pc, #176]	; (8001f00 <HAL_DMA_Abort+0x44c>)
 8001e50:	4293      	cmp	r3, r2
 8001e52:	d040      	beq.n	8001ed6 <HAL_DMA_Abort+0x422>
 8001e54:	687b      	ldr	r3, [r7, #4]
 8001e56:	681b      	ldr	r3, [r3, #0]
 8001e58:	4a2a      	ldr	r2, [pc, #168]	; (8001f04 <HAL_DMA_Abort+0x450>)
 8001e5a:	4293      	cmp	r3, r2
 8001e5c:	d03b      	beq.n	8001ed6 <HAL_DMA_Abort+0x422>
 8001e5e:	687b      	ldr	r3, [r7, #4]
 8001e60:	681b      	ldr	r3, [r3, #0]
 8001e62:	4a29      	ldr	r2, [pc, #164]	; (8001f08 <HAL_DMA_Abort+0x454>)
 8001e64:	4293      	cmp	r3, r2
 8001e66:	d036      	beq.n	8001ed6 <HAL_DMA_Abort+0x422>
 8001e68:	687b      	ldr	r3, [r7, #4]
 8001e6a:	681b      	ldr	r3, [r3, #0]
 8001e6c:	4a27      	ldr	r2, [pc, #156]	; (8001f0c <HAL_DMA_Abort+0x458>)
 8001e6e:	4293      	cmp	r3, r2
 8001e70:	d031      	beq.n	8001ed6 <HAL_DMA_Abort+0x422>
 8001e72:	687b      	ldr	r3, [r7, #4]
 8001e74:	681b      	ldr	r3, [r3, #0]
 8001e76:	4a26      	ldr	r2, [pc, #152]	; (8001f10 <HAL_DMA_Abort+0x45c>)
 8001e78:	4293      	cmp	r3, r2
 8001e7a:	d02c      	beq.n	8001ed6 <HAL_DMA_Abort+0x422>
 8001e7c:	687b      	ldr	r3, [r7, #4]
 8001e7e:	681b      	ldr	r3, [r3, #0]
 8001e80:	4a24      	ldr	r2, [pc, #144]	; (8001f14 <HAL_DMA_Abort+0x460>)
 8001e82:	4293      	cmp	r3, r2
 8001e84:	d027      	beq.n	8001ed6 <HAL_DMA_Abort+0x422>
 8001e86:	687b      	ldr	r3, [r7, #4]
 8001e88:	681b      	ldr	r3, [r3, #0]
 8001e8a:	4a23      	ldr	r2, [pc, #140]	; (8001f18 <HAL_DMA_Abort+0x464>)
 8001e8c:	4293      	cmp	r3, r2
 8001e8e:	d022      	beq.n	8001ed6 <HAL_DMA_Abort+0x422>
 8001e90:	687b      	ldr	r3, [r7, #4]
 8001e92:	681b      	ldr	r3, [r3, #0]
 8001e94:	4a21      	ldr	r2, [pc, #132]	; (8001f1c <HAL_DMA_Abort+0x468>)
 8001e96:	4293      	cmp	r3, r2
 8001e98:	d01d      	beq.n	8001ed6 <HAL_DMA_Abort+0x422>
 8001e9a:	687b      	ldr	r3, [r7, #4]
 8001e9c:	681b      	ldr	r3, [r3, #0]
 8001e9e:	4a20      	ldr	r2, [pc, #128]	; (8001f20 <HAL_DMA_Abort+0x46c>)
 8001ea0:	4293      	cmp	r3, r2
 8001ea2:	d018      	beq.n	8001ed6 <HAL_DMA_Abort+0x422>
 8001ea4:	687b      	ldr	r3, [r7, #4]
 8001ea6:	681b      	ldr	r3, [r3, #0]
 8001ea8:	4a1e      	ldr	r2, [pc, #120]	; (8001f24 <HAL_DMA_Abort+0x470>)
 8001eaa:	4293      	cmp	r3, r2
 8001eac:	d013      	beq.n	8001ed6 <HAL_DMA_Abort+0x422>
 8001eae:	687b      	ldr	r3, [r7, #4]
 8001eb0:	681b      	ldr	r3, [r3, #0]
 8001eb2:	4a1d      	ldr	r2, [pc, #116]	; (8001f28 <HAL_DMA_Abort+0x474>)
 8001eb4:	4293      	cmp	r3, r2
 8001eb6:	d00e      	beq.n	8001ed6 <HAL_DMA_Abort+0x422>
 8001eb8:	687b      	ldr	r3, [r7, #4]
 8001eba:	681b      	ldr	r3, [r3, #0]
 8001ebc:	4a1b      	ldr	r2, [pc, #108]	; (8001f2c <HAL_DMA_Abort+0x478>)
 8001ebe:	4293      	cmp	r3, r2
 8001ec0:	d009      	beq.n	8001ed6 <HAL_DMA_Abort+0x422>
 8001ec2:	687b      	ldr	r3, [r7, #4]
 8001ec4:	681b      	ldr	r3, [r3, #0]
 8001ec6:	4a1a      	ldr	r2, [pc, #104]	; (8001f30 <HAL_DMA_Abort+0x47c>)
 8001ec8:	4293      	cmp	r3, r2
 8001eca:	d004      	beq.n	8001ed6 <HAL_DMA_Abort+0x422>
 8001ecc:	687b      	ldr	r3, [r7, #4]
 8001ece:	681b      	ldr	r3, [r3, #0]
 8001ed0:	4a18      	ldr	r2, [pc, #96]	; (8001f34 <HAL_DMA_Abort+0x480>)
 8001ed2:	4293      	cmp	r3, r2
 8001ed4:	d101      	bne.n	8001eda <HAL_DMA_Abort+0x426>
 8001ed6:	2301      	movs	r3, #1
 8001ed8:	e000      	b.n	8001edc <HAL_DMA_Abort+0x428>
 8001eda:	2300      	movs	r3, #0
 8001edc:	2b00      	cmp	r3, #0
 8001ede:	d02b      	beq.n	8001f38 <HAL_DMA_Abort+0x484>
    {
      regs_dma = (DMA_Base_Registers *)hdma->StreamBaseAddress;
 8001ee0:	687b      	ldr	r3, [r7, #4]
 8001ee2:	6d9b      	ldr	r3, [r3, #88]	; 0x58
 8001ee4:	60bb      	str	r3, [r7, #8]
      regs_dma->IFCR = 0x3FUL << (hdma->StreamIndex & 0x1FU);
 8001ee6:	687b      	ldr	r3, [r7, #4]
 8001ee8:	6ddb      	ldr	r3, [r3, #92]	; 0x5c
 8001eea:	f003 031f 	and.w	r3, r3, #31
 8001eee:	223f      	movs	r2, #63	; 0x3f
 8001ef0:	409a      	lsls	r2, r3
 8001ef2:	68bb      	ldr	r3, [r7, #8]
 8001ef4:	609a      	str	r2, [r3, #8]
 8001ef6:	e02a      	b.n	8001f4e <HAL_DMA_Abort+0x49a>
 8001ef8:	40020010 	.word	0x40020010
 8001efc:	40020028 	.word	0x40020028
 8001f00:	40020040 	.word	0x40020040
 8001f04:	40020058 	.word	0x40020058
 8001f08:	40020070 	.word	0x40020070
 8001f0c:	40020088 	.word	0x40020088
 8001f10:	400200a0 	.word	0x400200a0
 8001f14:	400200b8 	.word	0x400200b8
 8001f18:	40020410 	.word	0x40020410
 8001f1c:	40020428 	.word	0x40020428
 8001f20:	40020440 	.word	0x40020440
 8001f24:	40020458 	.word	0x40020458
 8001f28:	40020470 	.word	0x40020470
 8001f2c:	40020488 	.word	0x40020488
 8001f30:	400204a0 	.word	0x400204a0
 8001f34:	400204b8 	.word	0x400204b8
    }
    else /* BDMA channel */
    {
      regs_bdma = (BDMA_Base_Registers *)hdma->StreamBaseAddress;
 8001f38:	687b      	ldr	r3, [r7, #4]
 8001f3a:	6d9b      	ldr	r3, [r3, #88]	; 0x58
 8001f3c:	60fb      	str	r3, [r7, #12]
      regs_bdma->IFCR = ((BDMA_IFCR_CGIF0) << (hdma->StreamIndex & 0x1FU));
 8001f3e:	687b      	ldr	r3, [r7, #4]
 8001f40:	6ddb      	ldr	r3, [r3, #92]	; 0x5c
 8001f42:	f003 031f 	and.w	r3, r3, #31
 8001f46:	2201      	movs	r2, #1
 8001f48:	409a      	lsls	r2, r3
 8001f4a:	68fb      	ldr	r3, [r7, #12]
 8001f4c:	605a      	str	r2, [r3, #4]
    }

    if(IS_DMA_DMAMUX_ALL_INSTANCE(hdma->Instance) != 0U) /* No DMAMUX available for BDMA1 */
 8001f4e:	687b      	ldr	r3, [r7, #4]
 8001f50:	681b      	ldr	r3, [r3, #0]
 8001f52:	4a4f      	ldr	r2, [pc, #316]	; (8002090 <HAL_DMA_Abort+0x5dc>)
 8001f54:	4293      	cmp	r3, r2
 8001f56:	d072      	beq.n	800203e <HAL_DMA_Abort+0x58a>
 8001f58:	687b      	ldr	r3, [r7, #4]
 8001f5a:	681b      	ldr	r3, [r3, #0]
 8001f5c:	4a4d      	ldr	r2, [pc, #308]	; (8002094 <HAL_DMA_Abort+0x5e0>)
 8001f5e:	4293      	cmp	r3, r2
 8001f60:	d06d      	beq.n	800203e <HAL_DMA_Abort+0x58a>
 8001f62:	687b      	ldr	r3, [r7, #4]
 8001f64:	681b      	ldr	r3, [r3, #0]
 8001f66:	4a4c      	ldr	r2, [pc, #304]	; (8002098 <HAL_DMA_Abort+0x5e4>)
 8001f68:	4293      	cmp	r3, r2
 8001f6a:	d068      	beq.n	800203e <HAL_DMA_Abort+0x58a>
 8001f6c:	687b      	ldr	r3, [r7, #4]
 8001f6e:	681b      	ldr	r3, [r3, #0]
 8001f70:	4a4a      	ldr	r2, [pc, #296]	; (800209c <HAL_DMA_Abort+0x5e8>)
 8001f72:	4293      	cmp	r3, r2
 8001f74:	d063      	beq.n	800203e <HAL_DMA_Abort+0x58a>
 8001f76:	687b      	ldr	r3, [r7, #4]
 8001f78:	681b      	ldr	r3, [r3, #0]
 8001f7a:	4a49      	ldr	r2, [pc, #292]	; (80020a0 <HAL_DMA_Abort+0x5ec>)
 8001f7c:	4293      	cmp	r3, r2
 8001f7e:	d05e      	beq.n	800203e <HAL_DMA_Abort+0x58a>
 8001f80:	687b      	ldr	r3, [r7, #4]
 8001f82:	681b      	ldr	r3, [r3, #0]
 8001f84:	4a47      	ldr	r2, [pc, #284]	; (80020a4 <HAL_DMA_Abort+0x5f0>)
 8001f86:	4293      	cmp	r3, r2
 8001f88:	d059      	beq.n	800203e <HAL_DMA_Abort+0x58a>
 8001f8a:	687b      	ldr	r3, [r7, #4]
 8001f8c:	681b      	ldr	r3, [r3, #0]
 8001f8e:	4a46      	ldr	r2, [pc, #280]	; (80020a8 <HAL_DMA_Abort+0x5f4>)
 8001f90:	4293      	cmp	r3, r2
 8001f92:	d054      	beq.n	800203e <HAL_DMA_Abort+0x58a>
 8001f94:	687b      	ldr	r3, [r7, #4]
 8001f96:	681b      	ldr	r3, [r3, #0]
 8001f98:	4a44      	ldr	r2, [pc, #272]	; (80020ac <HAL_DMA_Abort+0x5f8>)
 8001f9a:	4293      	cmp	r3, r2
 8001f9c:	d04f      	beq.n	800203e <HAL_DMA_Abort+0x58a>
 8001f9e:	687b      	ldr	r3, [r7, #4]
 8001fa0:	681b      	ldr	r3, [r3, #0]
 8001fa2:	4a43      	ldr	r2, [pc, #268]	; (80020b0 <HAL_DMA_Abort+0x5fc>)
 8001fa4:	4293      	cmp	r3, r2
 8001fa6:	d04a      	beq.n	800203e <HAL_DMA_Abort+0x58a>
 8001fa8:	687b      	ldr	r3, [r7, #4]
 8001faa:	681b      	ldr	r3, [r3, #0]
 8001fac:	4a41      	ldr	r2, [pc, #260]	; (80020b4 <HAL_DMA_Abort+0x600>)
 8001fae:	4293      	cmp	r3, r2
 8001fb0:	d045      	beq.n	800203e <HAL_DMA_Abort+0x58a>
 8001fb2:	687b      	ldr	r3, [r7, #4]
 8001fb4:	681b      	ldr	r3, [r3, #0]
 8001fb6:	4a40      	ldr	r2, [pc, #256]	; (80020b8 <HAL_DMA_Abort+0x604>)
 8001fb8:	4293      	cmp	r3, r2
 8001fba:	d040      	beq.n	800203e <HAL_DMA_Abort+0x58a>
 8001fbc:	687b      	ldr	r3, [r7, #4]
 8001fbe:	681b      	ldr	r3, [r3, #0]
 8001fc0:	4a3e      	ldr	r2, [pc, #248]	; (80020bc <HAL_DMA_Abort+0x608>)
 8001fc2:	4293      	cmp	r3, r2
 8001fc4:	d03b      	beq.n	800203e <HAL_DMA_Abort+0x58a>
 8001fc6:	687b      	ldr	r3, [r7, #4]
 8001fc8:	681b      	ldr	r3, [r3, #0]
 8001fca:	4a3d      	ldr	r2, [pc, #244]	; (80020c0 <HAL_DMA_Abort+0x60c>)
 8001fcc:	4293      	cmp	r3, r2
 8001fce:	d036      	beq.n	800203e <HAL_DMA_Abort+0x58a>
 8001fd0:	687b      	ldr	r3, [r7, #4]
 8001fd2:	681b      	ldr	r3, [r3, #0]
 8001fd4:	4a3b      	ldr	r2, [pc, #236]	; (80020c4 <HAL_DMA_Abort+0x610>)
 8001fd6:	4293      	cmp	r3, r2
 8001fd8:	d031      	beq.n	800203e <HAL_DMA_Abort+0x58a>
 8001fda:	687b      	ldr	r3, [r7, #4]
 8001fdc:	681b      	ldr	r3, [r3, #0]
 8001fde:	4a3a      	ldr	r2, [pc, #232]	; (80020c8 <HAL_DMA_Abort+0x614>)
 8001fe0:	4293      	cmp	r3, r2
 8001fe2:	d02c      	beq.n	800203e <HAL_DMA_Abort+0x58a>
 8001fe4:	687b      	ldr	r3, [r7, #4]
 8001fe6:	681b      	ldr	r3, [r3, #0]
 8001fe8:	4a38      	ldr	r2, [pc, #224]	; (80020cc <HAL_DMA_Abort+0x618>)
 8001fea:	4293      	cmp	r3, r2
 8001fec:	d027      	beq.n	800203e <HAL_DMA_Abort+0x58a>
 8001fee:	687b      	ldr	r3, [r7, #4]
 8001ff0:	681b      	ldr	r3, [r3, #0]
 8001ff2:	4a37      	ldr	r2, [pc, #220]	; (80020d0 <HAL_DMA_Abort+0x61c>)
 8001ff4:	4293      	cmp	r3, r2
 8001ff6:	d022      	beq.n	800203e <HAL_DMA_Abort+0x58a>
 8001ff8:	687b      	ldr	r3, [r7, #4]
 8001ffa:	681b      	ldr	r3, [r3, #0]
 8001ffc:	4a35      	ldr	r2, [pc, #212]	; (80020d4 <HAL_DMA_Abort+0x620>)
 8001ffe:	4293      	cmp	r3, r2
 8002000:	d01d      	beq.n	800203e <HAL_DMA_Abort+0x58a>
 8002002:	687b      	ldr	r3, [r7, #4]
 8002004:	681b      	ldr	r3, [r3, #0]
 8002006:	4a34      	ldr	r2, [pc, #208]	; (80020d8 <HAL_DMA_Abort+0x624>)
 8002008:	4293      	cmp	r3, r2
 800200a:	d018      	beq.n	800203e <HAL_DMA_Abort+0x58a>
 800200c:	687b      	ldr	r3, [r7, #4]
 800200e:	681b      	ldr	r3, [r3, #0]
 8002010:	4a32      	ldr	r2, [pc, #200]	; (80020dc <HAL_DMA_Abort+0x628>)
 8002012:	4293      	cmp	r3, r2
 8002014:	d013      	beq.n	800203e <HAL_DMA_Abort+0x58a>
 8002016:	687b      	ldr	r3, [r7, #4]
 8002018:	681b      	ldr	r3, [r3, #0]
 800201a:	4a31      	ldr	r2, [pc, #196]	; (80020e0 <HAL_DMA_Abort+0x62c>)
 800201c:	4293      	cmp	r3, r2
 800201e:	d00e      	beq.n	800203e <HAL_DMA_Abort+0x58a>
 8002020:	687b      	ldr	r3, [r7, #4]
 8002022:	681b      	ldr	r3, [r3, #0]
 8002024:	4a2f      	ldr	r2, [pc, #188]	; (80020e4 <HAL_DMA_Abort+0x630>)
 8002026:	4293      	cmp	r3, r2
 8002028:	d009      	beq.n	800203e <HAL_DMA_Abort+0x58a>
 800202a:	687b      	ldr	r3, [r7, #4]
 800202c:	681b      	ldr	r3, [r3, #0]
 800202e:	4a2e      	ldr	r2, [pc, #184]	; (80020e8 <HAL_DMA_Abort+0x634>)
 8002030:	4293      	cmp	r3, r2
 8002032:	d004      	beq.n	800203e <HAL_DMA_Abort+0x58a>
 8002034:	687b      	ldr	r3, [r7, #4]
 8002036:	681b      	ldr	r3, [r3, #0]
 8002038:	4a2c      	ldr	r2, [pc, #176]	; (80020ec <HAL_DMA_Abort+0x638>)
 800203a:	4293      	cmp	r3, r2
 800203c:	d101      	bne.n	8002042 <HAL_DMA_Abort+0x58e>
 800203e:	2301      	movs	r3, #1
 8002040:	e000      	b.n	8002044 <HAL_DMA_Abort+0x590>
 8002042:	2300      	movs	r3, #0
 8002044:	2b00      	cmp	r3, #0
 8002046:	d015      	beq.n	8002074 <HAL_DMA_Abort+0x5c0>
    {
      /* Clear the DMAMUX synchro overrun flag */
      hdma->DMAmuxChannelStatus->CFR = hdma->DMAmuxChannelStatusMask;
 8002048:	687b      	ldr	r3, [r7, #4]
 800204a:	6e5b      	ldr	r3, [r3, #100]	; 0x64
 800204c:	687a      	ldr	r2, [r7, #4]
 800204e:	6e92      	ldr	r2, [r2, #104]	; 0x68
 8002050:	605a      	str	r2, [r3, #4]

      if(hdma->DMAmuxRequestGen != 0U)
 8002052:	687b      	ldr	r3, [r7, #4]
 8002054:	6edb      	ldr	r3, [r3, #108]	; 0x6c
 8002056:	2b00      	cmp	r3, #0
 8002058:	d00c      	beq.n	8002074 <HAL_DMA_Abort+0x5c0>
      {
        /* if using DMAMUX request generator, disable the DMAMUX request generator overrun IT */
        /* disable the request gen overrun IT */
        hdma->DMAmuxRequestGen->RGCR &= ~DMAMUX_RGxCR_OIE;
 800205a:	687b      	ldr	r3, [r7, #4]
 800205c:	6edb      	ldr	r3, [r3, #108]	; 0x6c
 800205e:	681a      	ldr	r2, [r3, #0]
 8002060:	687b      	ldr	r3, [r7, #4]
 8002062:	6edb      	ldr	r3, [r3, #108]	; 0x6c
 8002064:	f422 7280 	bic.w	r2, r2, #256	; 0x100
 8002068:	601a      	str	r2, [r3, #0]

        /* Clear the DMAMUX request generator overrun flag */
        hdma->DMAmuxRequestGenStatus->RGCFR = hdma->DMAmuxRequestGenStatusMask;
 800206a:	687b      	ldr	r3, [r7, #4]
 800206c:	6f1b      	ldr	r3, [r3, #112]	; 0x70
 800206e:	687a      	ldr	r2, [r7, #4]
 8002070:	6f52      	ldr	r2, [r2, #116]	; 0x74
 8002072:	605a      	str	r2, [r3, #4]
      }
    }

    /* Change the DMA state */
    hdma->State = HAL_DMA_STATE_READY;
 8002074:	687b      	ldr	r3, [r7, #4]
 8002076:	2201      	movs	r2, #1
 8002078:	f883 2035 	strb.w	r2, [r3, #53]	; 0x35

    /* Process Unlocked */
    __HAL_UNLOCK(hdma);
 800207c:	687b      	ldr	r3, [r7, #4]
 800207e:	2200      	movs	r2, #0
 8002080:	f883 2034 	strb.w	r2, [r3, #52]	; 0x34
  }

  return HAL_OK;
 8002084:	2300      	movs	r3, #0
}
 8002086:	4618      	mov	r0, r3
 8002088:	3718      	adds	r7, #24
 800208a:	46bd      	mov	sp, r7
 800208c:	bd80      	pop	{r7, pc}
 800208e:	bf00      	nop
 8002090:	40020010 	.word	0x40020010
 8002094:	40020028 	.word	0x40020028
 8002098:	40020040 	.word	0x40020040
 800209c:	40020058 	.word	0x40020058
 80020a0:	40020070 	.word	0x40020070
 80020a4:	40020088 	.word	0x40020088
 80020a8:	400200a0 	.word	0x400200a0
 80020ac:	400200b8 	.word	0x400200b8
 80020b0:	40020410 	.word	0x40020410
 80020b4:	40020428 	.word	0x40020428
 80020b8:	40020440 	.word	0x40020440
 80020bc:	40020458 	.word	0x40020458
 80020c0:	40020470 	.word	0x40020470
 80020c4:	40020488 	.word	0x40020488
 80020c8:	400204a0 	.word	0x400204a0
 80020cc:	400204b8 	.word	0x400204b8
 80020d0:	58025408 	.word	0x58025408
 80020d4:	5802541c 	.word	0x5802541c
 80020d8:	58025430 	.word	0x58025430
 80020dc:	58025444 	.word	0x58025444
 80020e0:	58025458 	.word	0x58025458
 80020e4:	5802546c 	.word	0x5802546c
 80020e8:	58025480 	.word	0x58025480
 80020ec:	58025494 	.word	0x58025494

080020f0 <HAL_DMA_Abort_IT>:
  * @param  hdma  : pointer to a DMA_HandleTypeDef structure that contains
  *                 the configuration information for the specified DMA Stream.
  * @retval HAL status
  */
HAL_StatusTypeDef HAL_DMA_Abort_IT(DMA_HandleTypeDef *hdma)
{
 80020f0:	b580      	push	{r7, lr}
 80020f2:	b084      	sub	sp, #16
 80020f4:	af00      	add	r7, sp, #0
 80020f6:	6078      	str	r0, [r7, #4]
  BDMA_Base_Registers *regs_bdma;

  /* Check the DMA peripheral handle */
  if(hdma == NULL)
 80020f8:	687b      	ldr	r3, [r7, #4]
 80020fa:	2b00      	cmp	r3, #0
 80020fc:	d101      	bne.n	8002102 <HAL_DMA_Abort_IT+0x12>
  {
    return HAL_ERROR;
 80020fe:	2301      	movs	r3, #1
 8002100:	e237      	b.n	8002572 <HAL_DMA_Abort_IT+0x482>
  }

  if(hdma->State != HAL_DMA_STATE_BUSY)
 8002102:	687b      	ldr	r3, [r7, #4]
 8002104:	f893 3035 	ldrb.w	r3, [r3, #53]	; 0x35
 8002108:	b2db      	uxtb	r3, r3
 800210a:	2b02      	cmp	r3, #2
 800210c:	d004      	beq.n	8002118 <HAL_DMA_Abort_IT+0x28>
  {
    hdma->ErrorCode = HAL_DMA_ERROR_NO_XFER;
 800210e:	687b      	ldr	r3, [r7, #4]
 8002110:	2280      	movs	r2, #128	; 0x80
 8002112:	655a      	str	r2, [r3, #84]	; 0x54
    return HAL_ERROR;
 8002114:	2301      	movs	r3, #1
 8002116:	e22c      	b.n	8002572 <HAL_DMA_Abort_IT+0x482>
  }
  else
  {
    if(IS_DMA_STREAM_INSTANCE(hdma->Instance) != 0U) /* DMA1 or DMA2 instance */
 8002118:	687b      	ldr	r3, [r7, #4]
 800211a:	681b      	ldr	r3, [r3, #0]
 800211c:	4a5c      	ldr	r2, [pc, #368]	; (8002290 <HAL_DMA_Abort_IT+0x1a0>)
 800211e:	4293      	cmp	r3, r2
 8002120:	d04a      	beq.n	80021b8 <HAL_DMA_Abort_IT+0xc8>
 8002122:	687b      	ldr	r3, [r7, #4]
 8002124:	681b      	ldr	r3, [r3, #0]
 8002126:	4a5b      	ldr	r2, [pc, #364]	; (8002294 <HAL_DMA_Abort_IT+0x1a4>)
 8002128:	4293      	cmp	r3, r2
 800212a:	d045      	beq.n	80021b8 <HAL_DMA_Abort_IT+0xc8>
 800212c:	687b      	ldr	r3, [r7, #4]
 800212e:	681b      	ldr	r3, [r3, #0]
 8002130:	4a59      	ldr	r2, [pc, #356]	; (8002298 <HAL_DMA_Abort_IT+0x1a8>)
 8002132:	4293      	cmp	r3, r2
 8002134:	d040      	beq.n	80021b8 <HAL_DMA_Abort_IT+0xc8>
 8002136:	687b      	ldr	r3, [r7, #4]
 8002138:	681b      	ldr	r3, [r3, #0]
 800213a:	4a58      	ldr	r2, [pc, #352]	; (800229c <HAL_DMA_Abort_IT+0x1ac>)
 800213c:	4293      	cmp	r3, r2
 800213e:	d03b      	beq.n	80021b8 <HAL_DMA_Abort_IT+0xc8>
 8002140:	687b      	ldr	r3, [r7, #4]
 8002142:	681b      	ldr	r3, [r3, #0]
 8002144:	4a56      	ldr	r2, [pc, #344]	; (80022a0 <HAL_DMA_Abort_IT+0x1b0>)
 8002146:	4293      	cmp	r3, r2
 8002148:	d036      	beq.n	80021b8 <HAL_DMA_Abort_IT+0xc8>
 800214a:	687b      	ldr	r3, [r7, #4]
 800214c:	681b      	ldr	r3, [r3, #0]
 800214e:	4a55      	ldr	r2, [pc, #340]	; (80022a4 <HAL_DMA_Abort_IT+0x1b4>)
 8002150:	4293      	cmp	r3, r2
 8002152:	d031      	beq.n	80021b8 <HAL_DMA_Abort_IT+0xc8>
 8002154:	687b      	ldr	r3, [r7, #4]
 8002156:	681b      	ldr	r3, [r3, #0]
 8002158:	4a53      	ldr	r2, [pc, #332]	; (80022a8 <HAL_DMA_Abort_IT+0x1b8>)
 800215a:	4293      	cmp	r3, r2
 800215c:	d02c      	beq.n	80021b8 <HAL_DMA_Abort_IT+0xc8>
 800215e:	687b      	ldr	r3, [r7, #4]
 8002160:	681b      	ldr	r3, [r3, #0]
 8002162:	4a52      	ldr	r2, [pc, #328]	; (80022ac <HAL_DMA_Abort_IT+0x1bc>)
 8002164:	4293      	cmp	r3, r2
 8002166:	d027      	beq.n	80021b8 <HAL_DMA_Abort_IT+0xc8>
 8002168:	687b      	ldr	r3, [r7, #4]
 800216a:	681b      	ldr	r3, [r3, #0]
 800216c:	4a50      	ldr	r2, [pc, #320]	; (80022b0 <HAL_DMA_Abort_IT+0x1c0>)
 800216e:	4293      	cmp	r3, r2
 8002170:	d022      	beq.n	80021b8 <HAL_DMA_Abort_IT+0xc8>
 8002172:	687b      	ldr	r3, [r7, #4]
 8002174:	681b      	ldr	r3, [r3, #0]
 8002176:	4a4f      	ldr	r2, [pc, #316]	; (80022b4 <HAL_DMA_Abort_IT+0x1c4>)
 8002178:	4293      	cmp	r3, r2
 800217a:	d01d      	beq.n	80021b8 <HAL_DMA_Abort_IT+0xc8>
 800217c:	687b      	ldr	r3, [r7, #4]
 800217e:	681b      	ldr	r3, [r3, #0]
 8002180:	4a4d      	ldr	r2, [pc, #308]	; (80022b8 <HAL_DMA_Abort_IT+0x1c8>)
 8002182:	4293      	cmp	r3, r2
 8002184:	d018      	beq.n	80021b8 <HAL_DMA_Abort_IT+0xc8>
 8002186:	687b      	ldr	r3, [r7, #4]
 8002188:	681b      	ldr	r3, [r3, #0]
 800218a:	4a4c      	ldr	r2, [pc, #304]	; (80022bc <HAL_DMA_Abort_IT+0x1cc>)
 800218c:	4293      	cmp	r3, r2
 800218e:	d013      	beq.n	80021b8 <HAL_DMA_Abort_IT+0xc8>
 8002190:	687b      	ldr	r3, [r7, #4]
 8002192:	681b      	ldr	r3, [r3, #0]
 8002194:	4a4a      	ldr	r2, [pc, #296]	; (80022c0 <HAL_DMA_Abort_IT+0x1d0>)
 8002196:	4293      	cmp	r3, r2
 8002198:	d00e      	beq.n	80021b8 <HAL_DMA_Abort_IT+0xc8>
 800219a:	687b      	ldr	r3, [r7, #4]
 800219c:	681b      	ldr	r3, [r3, #0]
 800219e:	4a49      	ldr	r2, [pc, #292]	; (80022c4 <HAL_DMA_Abort_IT+0x1d4>)
 80021a0:	4293      	cmp	r3, r2
 80021a2:	d009      	beq.n	80021b8 <HAL_DMA_Abort_IT+0xc8>
 80021a4:	687b      	ldr	r3, [r7, #4]
 80021a6:	681b      	ldr	r3, [r3, #0]
 80021a8:	4a47      	ldr	r2, [pc, #284]	; (80022c8 <HAL_DMA_Abort_IT+0x1d8>)
 80021aa:	4293      	cmp	r3, r2
 80021ac:	d004      	beq.n	80021b8 <HAL_DMA_Abort_IT+0xc8>
 80021ae:	687b      	ldr	r3, [r7, #4]
 80021b0:	681b      	ldr	r3, [r3, #0]
 80021b2:	4a46      	ldr	r2, [pc, #280]	; (80022cc <HAL_DMA_Abort_IT+0x1dc>)
 80021b4:	4293      	cmp	r3, r2
 80021b6:	d101      	bne.n	80021bc <HAL_DMA_Abort_IT+0xcc>
 80021b8:	2301      	movs	r3, #1
 80021ba:	e000      	b.n	80021be <HAL_DMA_Abort_IT+0xce>
 80021bc:	2300      	movs	r3, #0
 80021be:	2b00      	cmp	r3, #0
 80021c0:	f000 8086 	beq.w	80022d0 <HAL_DMA_Abort_IT+0x1e0>
    {
      /* Set Abort State  */
      hdma->State = HAL_DMA_STATE_ABORT;
 80021c4:	687b      	ldr	r3, [r7, #4]
 80021c6:	2204      	movs	r2, #4
 80021c8:	f883 2035 	strb.w	r2, [r3, #53]	; 0x35

      /* Disable the stream */
      __HAL_DMA_DISABLE(hdma);
 80021cc:	687b      	ldr	r3, [r7, #4]
 80021ce:	681b      	ldr	r3, [r3, #0]
 80021d0:	4a2f      	ldr	r2, [pc, #188]	; (8002290 <HAL_DMA_Abort_IT+0x1a0>)
 80021d2:	4293      	cmp	r3, r2
 80021d4:	d04a      	beq.n	800226c <HAL_DMA_Abort_IT+0x17c>
 80021d6:	687b      	ldr	r3, [r7, #4]
 80021d8:	681b      	ldr	r3, [r3, #0]
 80021da:	4a2e      	ldr	r2, [pc, #184]	; (8002294 <HAL_DMA_Abort_IT+0x1a4>)
 80021dc:	4293      	cmp	r3, r2
 80021de:	d045      	beq.n	800226c <HAL_DMA_Abort_IT+0x17c>
 80021e0:	687b      	ldr	r3, [r7, #4]
 80021e2:	681b      	ldr	r3, [r3, #0]
 80021e4:	4a2c      	ldr	r2, [pc, #176]	; (8002298 <HAL_DMA_Abort_IT+0x1a8>)
 80021e6:	4293      	cmp	r3, r2
 80021e8:	d040      	beq.n	800226c <HAL_DMA_Abort_IT+0x17c>
 80021ea:	687b      	ldr	r3, [r7, #4]
 80021ec:	681b      	ldr	r3, [r3, #0]
 80021ee:	4a2b      	ldr	r2, [pc, #172]	; (800229c <HAL_DMA_Abort_IT+0x1ac>)
 80021f0:	4293      	cmp	r3, r2
 80021f2:	d03b      	beq.n	800226c <HAL_DMA_Abort_IT+0x17c>
 80021f4:	687b      	ldr	r3, [r7, #4]
 80021f6:	681b      	ldr	r3, [r3, #0]
 80021f8:	4a29      	ldr	r2, [pc, #164]	; (80022a0 <HAL_DMA_Abort_IT+0x1b0>)
 80021fa:	4293      	cmp	r3, r2
 80021fc:	d036      	beq.n	800226c <HAL_DMA_Abort_IT+0x17c>
 80021fe:	687b      	ldr	r3, [r7, #4]
 8002200:	681b      	ldr	r3, [r3, #0]
 8002202:	4a28      	ldr	r2, [pc, #160]	; (80022a4 <HAL_DMA_Abort_IT+0x1b4>)
 8002204:	4293      	cmp	r3, r2
 8002206:	d031      	beq.n	800226c <HAL_DMA_Abort_IT+0x17c>
 8002208:	687b      	ldr	r3, [r7, #4]
 800220a:	681b      	ldr	r3, [r3, #0]
 800220c:	4a26      	ldr	r2, [pc, #152]	; (80022a8 <HAL_DMA_Abort_IT+0x1b8>)
 800220e:	4293      	cmp	r3, r2
 8002210:	d02c      	beq.n	800226c <HAL_DMA_Abort_IT+0x17c>
 8002212:	687b      	ldr	r3, [r7, #4]
 8002214:	681b      	ldr	r3, [r3, #0]
 8002216:	4a25      	ldr	r2, [pc, #148]	; (80022ac <HAL_DMA_Abort_IT+0x1bc>)
 8002218:	4293      	cmp	r3, r2
 800221a:	d027      	beq.n	800226c <HAL_DMA_Abort_IT+0x17c>
 800221c:	687b      	ldr	r3, [r7, #4]
 800221e:	681b      	ldr	r3, [r3, #0]
 8002220:	4a23      	ldr	r2, [pc, #140]	; (80022b0 <HAL_DMA_Abort_IT+0x1c0>)
 8002222:	4293      	cmp	r3, r2
 8002224:	d022      	beq.n	800226c <HAL_DMA_Abort_IT+0x17c>
 8002226:	687b      	ldr	r3, [r7, #4]
 8002228:	681b      	ldr	r3, [r3, #0]
 800222a:	4a22      	ldr	r2, [pc, #136]	; (80022b4 <HAL_DMA_Abort_IT+0x1c4>)
 800222c:	4293      	cmp	r3, r2
 800222e:	d01d      	beq.n	800226c <HAL_DMA_Abort_IT+0x17c>
 8002230:	687b      	ldr	r3, [r7, #4]
 8002232:	681b      	ldr	r3, [r3, #0]
 8002234:	4a20      	ldr	r2, [pc, #128]	; (80022b8 <HAL_DMA_Abort_IT+0x1c8>)
 8002236:	4293      	cmp	r3, r2
 8002238:	d018      	beq.n	800226c <HAL_DMA_Abort_IT+0x17c>
 800223a:	687b      	ldr	r3, [r7, #4]
 800223c:	681b      	ldr	r3, [r3, #0]
 800223e:	4a1f      	ldr	r2, [pc, #124]	; (80022bc <HAL_DMA_Abort_IT+0x1cc>)
 8002240:	4293      	cmp	r3, r2
 8002242:	d013      	beq.n	800226c <HAL_DMA_Abort_IT+0x17c>
 8002244:	687b      	ldr	r3, [r7, #4]
 8002246:	681b      	ldr	r3, [r3, #0]
 8002248:	4a1d      	ldr	r2, [pc, #116]	; (80022c0 <HAL_DMA_Abort_IT+0x1d0>)
 800224a:	4293      	cmp	r3, r2
 800224c:	d00e      	beq.n	800226c <HAL_DMA_Abort_IT+0x17c>
 800224e:	687b      	ldr	r3, [r7, #4]
 8002250:	681b      	ldr	r3, [r3, #0]
 8002252:	4a1c      	ldr	r2, [pc, #112]	; (80022c4 <HAL_DMA_Abort_IT+0x1d4>)
 8002254:	4293      	cmp	r3, r2
 8002256:	d009      	beq.n	800226c <HAL_DMA_Abort_IT+0x17c>
 8002258:	687b      	ldr	r3, [r7, #4]
 800225a:	681b      	ldr	r3, [r3, #0]
 800225c:	4a1a      	ldr	r2, [pc, #104]	; (80022c8 <HAL_DMA_Abort_IT+0x1d8>)
 800225e:	4293      	cmp	r3, r2
 8002260:	d004      	beq.n	800226c <HAL_DMA_Abort_IT+0x17c>
 8002262:	687b      	ldr	r3, [r7, #4]
 8002264:	681b      	ldr	r3, [r3, #0]
 8002266:	4a19      	ldr	r2, [pc, #100]	; (80022cc <HAL_DMA_Abort_IT+0x1dc>)
 8002268:	4293      	cmp	r3, r2
 800226a:	d108      	bne.n	800227e <HAL_DMA_Abort_IT+0x18e>
 800226c:	687b      	ldr	r3, [r7, #4]
 800226e:	681b      	ldr	r3, [r3, #0]
 8002270:	681a      	ldr	r2, [r3, #0]
 8002272:	687b      	ldr	r3, [r7, #4]
 8002274:	681b      	ldr	r3, [r3, #0]
 8002276:	f022 0201 	bic.w	r2, r2, #1
 800227a:	601a      	str	r2, [r3, #0]
 800227c:	e178      	b.n	8002570 <HAL_DMA_Abort_IT+0x480>
 800227e:	687b      	ldr	r3, [r7, #4]
 8002280:	681b      	ldr	r3, [r3, #0]
 8002282:	681a      	ldr	r2, [r3, #0]
 8002284:	687b      	ldr	r3, [r7, #4]
 8002286:	681b      	ldr	r3, [r3, #0]
 8002288:	f022 0201 	bic.w	r2, r2, #1
 800228c:	601a      	str	r2, [r3, #0]
 800228e:	e16f      	b.n	8002570 <HAL_DMA_Abort_IT+0x480>
 8002290:	40020010 	.word	0x40020010
 8002294:	40020028 	.word	0x40020028
 8002298:	40020040 	.word	0x40020040
 800229c:	40020058 	.word	0x40020058
 80022a0:	40020070 	.word	0x40020070
 80022a4:	40020088 	.word	0x40020088
 80022a8:	400200a0 	.word	0x400200a0
 80022ac:	400200b8 	.word	0x400200b8
 80022b0:	40020410 	.word	0x40020410
 80022b4:	40020428 	.word	0x40020428
 80022b8:	40020440 	.word	0x40020440
 80022bc:	40020458 	.word	0x40020458
 80022c0:	40020470 	.word	0x40020470
 80022c4:	40020488 	.word	0x40020488
 80022c8:	400204a0 	.word	0x400204a0
 80022cc:	400204b8 	.word	0x400204b8
    }
    else /* BDMA channel */
    {
      /* Disable DMA All Interrupts  */
      ((BDMA_Channel_TypeDef   *)hdma->Instance)->CCR  &= ~(BDMA_CCR_TCIE | BDMA_CCR_HTIE | BDMA_CCR_TEIE);
 80022d0:	687b      	ldr	r3, [r7, #4]
 80022d2:	681b      	ldr	r3, [r3, #0]
 80022d4:	681a      	ldr	r2, [r3, #0]
 80022d6:	687b      	ldr	r3, [r7, #4]
 80022d8:	681b      	ldr	r3, [r3, #0]
 80022da:	f022 020e 	bic.w	r2, r2, #14
 80022de:	601a      	str	r2, [r3, #0]

      /* Disable the channel */
      __HAL_DMA_DISABLE(hdma);
 80022e0:	687b      	ldr	r3, [r7, #4]
 80022e2:	681b      	ldr	r3, [r3, #0]
 80022e4:	4a6c      	ldr	r2, [pc, #432]	; (8002498 <HAL_DMA_Abort_IT+0x3a8>)
 80022e6:	4293      	cmp	r3, r2
 80022e8:	d04a      	beq.n	8002380 <HAL_DMA_Abort_IT+0x290>
 80022ea:	687b      	ldr	r3, [r7, #4]
 80022ec:	681b      	ldr	r3, [r3, #0]
 80022ee:	4a6b      	ldr	r2, [pc, #428]	; (800249c <HAL_DMA_Abort_IT+0x3ac>)
 80022f0:	4293      	cmp	r3, r2
 80022f2:	d045      	beq.n	8002380 <HAL_DMA_Abort_IT+0x290>
 80022f4:	687b      	ldr	r3, [r7, #4]
 80022f6:	681b      	ldr	r3, [r3, #0]
 80022f8:	4a69      	ldr	r2, [pc, #420]	; (80024a0 <HAL_DMA_Abort_IT+0x3b0>)
 80022fa:	4293      	cmp	r3, r2
 80022fc:	d040      	beq.n	8002380 <HAL_DMA_Abort_IT+0x290>
 80022fe:	687b      	ldr	r3, [r7, #4]
 8002300:	681b      	ldr	r3, [r3, #0]
 8002302:	4a68      	ldr	r2, [pc, #416]	; (80024a4 <HAL_DMA_Abort_IT+0x3b4>)
 8002304:	4293      	cmp	r3, r2
 8002306:	d03b      	beq.n	8002380 <HAL_DMA_Abort_IT+0x290>
 8002308:	687b      	ldr	r3, [r7, #4]
 800230a:	681b      	ldr	r3, [r3, #0]
 800230c:	4a66      	ldr	r2, [pc, #408]	; (80024a8 <HAL_DMA_Abort_IT+0x3b8>)
 800230e:	4293      	cmp	r3, r2
 8002310:	d036      	beq.n	8002380 <HAL_DMA_Abort_IT+0x290>
 8002312:	687b      	ldr	r3, [r7, #4]
 8002314:	681b      	ldr	r3, [r3, #0]
 8002316:	4a65      	ldr	r2, [pc, #404]	; (80024ac <HAL_DMA_Abort_IT+0x3bc>)
 8002318:	4293      	cmp	r3, r2
 800231a:	d031      	beq.n	8002380 <HAL_DMA_Abort_IT+0x290>
 800231c:	687b      	ldr	r3, [r7, #4]
 800231e:	681b      	ldr	r3, [r3, #0]
 8002320:	4a63      	ldr	r2, [pc, #396]	; (80024b0 <HAL_DMA_Abort_IT+0x3c0>)
 8002322:	4293      	cmp	r3, r2
 8002324:	d02c      	beq.n	8002380 <HAL_DMA_Abort_IT+0x290>
 8002326:	687b      	ldr	r3, [r7, #4]
 8002328:	681b      	ldr	r3, [r3, #0]
 800232a:	4a62      	ldr	r2, [pc, #392]	; (80024b4 <HAL_DMA_Abort_IT+0x3c4>)
 800232c:	4293      	cmp	r3, r2
 800232e:	d027      	beq.n	8002380 <HAL_DMA_Abort_IT+0x290>
 8002330:	687b      	ldr	r3, [r7, #4]
 8002332:	681b      	ldr	r3, [r3, #0]
 8002334:	4a60      	ldr	r2, [pc, #384]	; (80024b8 <HAL_DMA_Abort_IT+0x3c8>)
 8002336:	4293      	cmp	r3, r2
 8002338:	d022      	beq.n	8002380 <HAL_DMA_Abort_IT+0x290>
 800233a:	687b      	ldr	r3, [r7, #4]
 800233c:	681b      	ldr	r3, [r3, #0]
 800233e:	4a5f      	ldr	r2, [pc, #380]	; (80024bc <HAL_DMA_Abort_IT+0x3cc>)
 8002340:	4293      	cmp	r3, r2
 8002342:	d01d      	beq.n	8002380 <HAL_DMA_Abort_IT+0x290>
 8002344:	687b      	ldr	r3, [r7, #4]
 8002346:	681b      	ldr	r3, [r3, #0]
 8002348:	4a5d      	ldr	r2, [pc, #372]	; (80024c0 <HAL_DMA_Abort_IT+0x3d0>)
 800234a:	4293      	cmp	r3, r2
 800234c:	d018      	beq.n	8002380 <HAL_DMA_Abort_IT+0x290>
 800234e:	687b      	ldr	r3, [r7, #4]
 8002350:	681b      	ldr	r3, [r3, #0]
 8002352:	4a5c      	ldr	r2, [pc, #368]	; (80024c4 <HAL_DMA_Abort_IT+0x3d4>)
 8002354:	4293      	cmp	r3, r2
 8002356:	d013      	beq.n	8002380 <HAL_DMA_Abort_IT+0x290>
 8002358:	687b      	ldr	r3, [r7, #4]
 800235a:	681b      	ldr	r3, [r3, #0]
 800235c:	4a5a      	ldr	r2, [pc, #360]	; (80024c8 <HAL_DMA_Abort_IT+0x3d8>)
 800235e:	4293      	cmp	r3, r2
 8002360:	d00e      	beq.n	8002380 <HAL_DMA_Abort_IT+0x290>
 8002362:	687b      	ldr	r3, [r7, #4]
 8002364:	681b      	ldr	r3, [r3, #0]
 8002366:	4a59      	ldr	r2, [pc, #356]	; (80024cc <HAL_DMA_Abort_IT+0x3dc>)
 8002368:	4293      	cmp	r3, r2
 800236a:	d009      	beq.n	8002380 <HAL_DMA_Abort_IT+0x290>
 800236c:	687b      	ldr	r3, [r7, #4]
 800236e:	681b      	ldr	r3, [r3, #0]
 8002370:	4a57      	ldr	r2, [pc, #348]	; (80024d0 <HAL_DMA_Abort_IT+0x3e0>)
 8002372:	4293      	cmp	r3, r2
 8002374:	d004      	beq.n	8002380 <HAL_DMA_Abort_IT+0x290>
 8002376:	687b      	ldr	r3, [r7, #4]
 8002378:	681b      	ldr	r3, [r3, #0]
 800237a:	4a56      	ldr	r2, [pc, #344]	; (80024d4 <HAL_DMA_Abort_IT+0x3e4>)
 800237c:	4293      	cmp	r3, r2
 800237e:	d108      	bne.n	8002392 <HAL_DMA_Abort_IT+0x2a2>
 8002380:	687b      	ldr	r3, [r7, #4]
 8002382:	681b      	ldr	r3, [r3, #0]
 8002384:	681a      	ldr	r2, [r3, #0]
 8002386:	687b      	ldr	r3, [r7, #4]
 8002388:	681b      	ldr	r3, [r3, #0]
 800238a:	f022 0201 	bic.w	r2, r2, #1
 800238e:	601a      	str	r2, [r3, #0]
 8002390:	e007      	b.n	80023a2 <HAL_DMA_Abort_IT+0x2b2>
 8002392:	687b      	ldr	r3, [r7, #4]
 8002394:	681b      	ldr	r3, [r3, #0]
 8002396:	681a      	ldr	r2, [r3, #0]
 8002398:	687b      	ldr	r3, [r7, #4]
 800239a:	681b      	ldr	r3, [r3, #0]
 800239c:	f022 0201 	bic.w	r2, r2, #1
 80023a0:	601a      	str	r2, [r3, #0]

      if(IS_DMA_DMAMUX_ALL_INSTANCE(hdma->Instance) != 0U) /* No DMAMUX available for BDMA1 */
 80023a2:	687b      	ldr	r3, [r7, #4]
 80023a4:	681b      	ldr	r3, [r3, #0]
 80023a6:	4a3c      	ldr	r2, [pc, #240]	; (8002498 <HAL_DMA_Abort_IT+0x3a8>)
 80023a8:	4293      	cmp	r3, r2
 80023aa:	d072      	beq.n	8002492 <HAL_DMA_Abort_IT+0x3a2>
 80023ac:	687b      	ldr	r3, [r7, #4]
 80023ae:	681b      	ldr	r3, [r3, #0]
 80023b0:	4a3a      	ldr	r2, [pc, #232]	; (800249c <HAL_DMA_Abort_IT+0x3ac>)
 80023b2:	4293      	cmp	r3, r2
 80023b4:	d06d      	beq.n	8002492 <HAL_DMA_Abort_IT+0x3a2>
 80023b6:	687b      	ldr	r3, [r7, #4]
 80023b8:	681b      	ldr	r3, [r3, #0]
 80023ba:	4a39      	ldr	r2, [pc, #228]	; (80024a0 <HAL_DMA_Abort_IT+0x3b0>)
 80023bc:	4293      	cmp	r3, r2
 80023be:	d068      	beq.n	8002492 <HAL_DMA_Abort_IT+0x3a2>
 80023c0:	687b      	ldr	r3, [r7, #4]
 80023c2:	681b      	ldr	r3, [r3, #0]
 80023c4:	4a37      	ldr	r2, [pc, #220]	; (80024a4 <HAL_DMA_Abort_IT+0x3b4>)
 80023c6:	4293      	cmp	r3, r2
 80023c8:	d063      	beq.n	8002492 <HAL_DMA_Abort_IT+0x3a2>
 80023ca:	687b      	ldr	r3, [r7, #4]
 80023cc:	681b      	ldr	r3, [r3, #0]
 80023ce:	4a36      	ldr	r2, [pc, #216]	; (80024a8 <HAL_DMA_Abort_IT+0x3b8>)
 80023d0:	4293      	cmp	r3, r2
 80023d2:	d05e      	beq.n	8002492 <HAL_DMA_Abort_IT+0x3a2>
 80023d4:	687b      	ldr	r3, [r7, #4]
 80023d6:	681b      	ldr	r3, [r3, #0]
 80023d8:	4a34      	ldr	r2, [pc, #208]	; (80024ac <HAL_DMA_Abort_IT+0x3bc>)
 80023da:	4293      	cmp	r3, r2
 80023dc:	d059      	beq.n	8002492 <HAL_DMA_Abort_IT+0x3a2>
 80023de:	687b      	ldr	r3, [r7, #4]
 80023e0:	681b      	ldr	r3, [r3, #0]
 80023e2:	4a33      	ldr	r2, [pc, #204]	; (80024b0 <HAL_DMA_Abort_IT+0x3c0>)
 80023e4:	4293      	cmp	r3, r2
 80023e6:	d054      	beq.n	8002492 <HAL_DMA_Abort_IT+0x3a2>
 80023e8:	687b      	ldr	r3, [r7, #4]
 80023ea:	681b      	ldr	r3, [r3, #0]
 80023ec:	4a31      	ldr	r2, [pc, #196]	; (80024b4 <HAL_DMA_Abort_IT+0x3c4>)
 80023ee:	4293      	cmp	r3, r2
 80023f0:	d04f      	beq.n	8002492 <HAL_DMA_Abort_IT+0x3a2>
 80023f2:	687b      	ldr	r3, [r7, #4]
 80023f4:	681b      	ldr	r3, [r3, #0]
 80023f6:	4a30      	ldr	r2, [pc, #192]	; (80024b8 <HAL_DMA_Abort_IT+0x3c8>)
 80023f8:	4293      	cmp	r3, r2
 80023fa:	d04a      	beq.n	8002492 <HAL_DMA_Abort_IT+0x3a2>
 80023fc:	687b      	ldr	r3, [r7, #4]
 80023fe:	681b      	ldr	r3, [r3, #0]
 8002400:	4a2e      	ldr	r2, [pc, #184]	; (80024bc <HAL_DMA_Abort_IT+0x3cc>)
 8002402:	4293      	cmp	r3, r2
 8002404:	d045      	beq.n	8002492 <HAL_DMA_Abort_IT+0x3a2>
 8002406:	687b      	ldr	r3, [r7, #4]
 8002408:	681b      	ldr	r3, [r3, #0]
 800240a:	4a2d      	ldr	r2, [pc, #180]	; (80024c0 <HAL_DMA_Abort_IT+0x3d0>)
 800240c:	4293      	cmp	r3, r2
 800240e:	d040      	beq.n	8002492 <HAL_DMA_Abort_IT+0x3a2>
 8002410:	687b      	ldr	r3, [r7, #4]
 8002412:	681b      	ldr	r3, [r3, #0]
 8002414:	4a2b      	ldr	r2, [pc, #172]	; (80024c4 <HAL_DMA_Abort_IT+0x3d4>)
 8002416:	4293      	cmp	r3, r2
 8002418:	d03b      	beq.n	8002492 <HAL_DMA_Abort_IT+0x3a2>
 800241a:	687b      	ldr	r3, [r7, #4]
 800241c:	681b      	ldr	r3, [r3, #0]
 800241e:	4a2a      	ldr	r2, [pc, #168]	; (80024c8 <HAL_DMA_Abort_IT+0x3d8>)
 8002420:	4293      	cmp	r3, r2
 8002422:	d036      	beq.n	8002492 <HAL_DMA_Abort_IT+0x3a2>
 8002424:	687b      	ldr	r3, [r7, #4]
 8002426:	681b      	ldr	r3, [r3, #0]
 8002428:	4a28      	ldr	r2, [pc, #160]	; (80024cc <HAL_DMA_Abort_IT+0x3dc>)
 800242a:	4293      	cmp	r3, r2
 800242c:	d031      	beq.n	8002492 <HAL_DMA_Abort_IT+0x3a2>
 800242e:	687b      	ldr	r3, [r7, #4]
 8002430:	681b      	ldr	r3, [r3, #0]
 8002432:	4a27      	ldr	r2, [pc, #156]	; (80024d0 <HAL_DMA_Abort_IT+0x3e0>)
 8002434:	4293      	cmp	r3, r2
 8002436:	d02c      	beq.n	8002492 <HAL_DMA_Abort_IT+0x3a2>
 8002438:	687b      	ldr	r3, [r7, #4]
 800243a:	681b      	ldr	r3, [r3, #0]
 800243c:	4a25      	ldr	r2, [pc, #148]	; (80024d4 <HAL_DMA_Abort_IT+0x3e4>)
 800243e:	4293      	cmp	r3, r2
 8002440:	d027      	beq.n	8002492 <HAL_DMA_Abort_IT+0x3a2>
 8002442:	687b      	ldr	r3, [r7, #4]
 8002444:	681b      	ldr	r3, [r3, #0]
 8002446:	4a24      	ldr	r2, [pc, #144]	; (80024d8 <HAL_DMA_Abort_IT+0x3e8>)
 8002448:	4293      	cmp	r3, r2
 800244a:	d022      	beq.n	8002492 <HAL_DMA_Abort_IT+0x3a2>
 800244c:	687b      	ldr	r3, [r7, #4]
 800244e:	681b      	ldr	r3, [r3, #0]
 8002450:	4a22      	ldr	r2, [pc, #136]	; (80024dc <HAL_DMA_Abort_IT+0x3ec>)
 8002452:	4293      	cmp	r3, r2
 8002454:	d01d      	beq.n	8002492 <HAL_DMA_Abort_IT+0x3a2>
 8002456:	687b      	ldr	r3, [r7, #4]
 8002458:	681b      	ldr	r3, [r3, #0]
 800245a:	4a21      	ldr	r2, [pc, #132]	; (80024e0 <HAL_DMA_Abort_IT+0x3f0>)
 800245c:	4293      	cmp	r3, r2
 800245e:	d018      	beq.n	8002492 <HAL_DMA_Abort_IT+0x3a2>
 8002460:	687b      	ldr	r3, [r7, #4]
 8002462:	681b      	ldr	r3, [r3, #0]
 8002464:	4a1f      	ldr	r2, [pc, #124]	; (80024e4 <HAL_DMA_Abort_IT+0x3f4>)
 8002466:	4293      	cmp	r3, r2
 8002468:	d013      	beq.n	8002492 <HAL_DMA_Abort_IT+0x3a2>
 800246a:	687b      	ldr	r3, [r7, #4]
 800246c:	681b      	ldr	r3, [r3, #0]
 800246e:	4a1e      	ldr	r2, [pc, #120]	; (80024e8 <HAL_DMA_Abort_IT+0x3f8>)
 8002470:	4293      	cmp	r3, r2
 8002472:	d00e      	beq.n	8002492 <HAL_DMA_Abort_IT+0x3a2>
 8002474:	687b      	ldr	r3, [r7, #4]
 8002476:	681b      	ldr	r3, [r3, #0]
 8002478:	4a1c      	ldr	r2, [pc, #112]	; (80024ec <HAL_DMA_Abort_IT+0x3fc>)
 800247a:	4293      	cmp	r3, r2
 800247c:	d009      	beq.n	8002492 <HAL_DMA_Abort_IT+0x3a2>
 800247e:	687b      	ldr	r3, [r7, #4]
 8002480:	681b      	ldr	r3, [r3, #0]
 8002482:	4a1b      	ldr	r2, [pc, #108]	; (80024f0 <HAL_DMA_Abort_IT+0x400>)
 8002484:	4293      	cmp	r3, r2
 8002486:	d004      	beq.n	8002492 <HAL_DMA_Abort_IT+0x3a2>
 8002488:	687b      	ldr	r3, [r7, #4]
 800248a:	681b      	ldr	r3, [r3, #0]
 800248c:	4a19      	ldr	r2, [pc, #100]	; (80024f4 <HAL_DMA_Abort_IT+0x404>)
 800248e:	4293      	cmp	r3, r2
 8002490:	d132      	bne.n	80024f8 <HAL_DMA_Abort_IT+0x408>
 8002492:	2301      	movs	r3, #1
 8002494:	e031      	b.n	80024fa <HAL_DMA_Abort_IT+0x40a>
 8002496:	bf00      	nop
 8002498:	40020010 	.word	0x40020010
 800249c:	40020028 	.word	0x40020028
 80024a0:	40020040 	.word	0x40020040
 80024a4:	40020058 	.word	0x40020058
 80024a8:	40020070 	.word	0x40020070
 80024ac:	40020088 	.word	0x40020088
 80024b0:	400200a0 	.word	0x400200a0
 80024b4:	400200b8 	.word	0x400200b8
 80024b8:	40020410 	.word	0x40020410
 80024bc:	40020428 	.word	0x40020428
 80024c0:	40020440 	.word	0x40020440
 80024c4:	40020458 	.word	0x40020458
 80024c8:	40020470 	.word	0x40020470
 80024cc:	40020488 	.word	0x40020488
 80024d0:	400204a0 	.word	0x400204a0
 80024d4:	400204b8 	.word	0x400204b8
 80024d8:	58025408 	.word	0x58025408
 80024dc:	5802541c 	.word	0x5802541c
 80024e0:	58025430 	.word	0x58025430
 80024e4:	58025444 	.word	0x58025444
 80024e8:	58025458 	.word	0x58025458
 80024ec:	5802546c 	.word	0x5802546c
 80024f0:	58025480 	.word	0x58025480
 80024f4:	58025494 	.word	0x58025494
 80024f8:	2300      	movs	r3, #0
 80024fa:	2b00      	cmp	r3, #0
 80024fc:	d028      	beq.n	8002550 <HAL_DMA_Abort_IT+0x460>
      {
        /* disable the DMAMUX sync overrun IT */
        hdma->DMAmuxChannel->CCR &= ~DMAMUX_CxCR_SOIE;
 80024fe:	687b      	ldr	r3, [r7, #4]
 8002500:	6e1b      	ldr	r3, [r3, #96]	; 0x60
 8002502:	681a      	ldr	r2, [r3, #0]
 8002504:	687b      	ldr	r3, [r7, #4]
 8002506:	6e1b      	ldr	r3, [r3, #96]	; 0x60
 8002508:	f422 7280 	bic.w	r2, r2, #256	; 0x100
 800250c:	601a      	str	r2, [r3, #0]

        /* Clear all flags */
        regs_bdma = (BDMA_Base_Registers *)hdma->StreamBaseAddress;
 800250e:	687b      	ldr	r3, [r7, #4]
 8002510:	6d9b      	ldr	r3, [r3, #88]	; 0x58
 8002512:	60fb      	str	r3, [r7, #12]
        regs_bdma->IFCR = ((BDMA_IFCR_CGIF0) << (hdma->StreamIndex & 0x1FU));
 8002514:	687b      	ldr	r3, [r7, #4]
 8002516:	6ddb      	ldr	r3, [r3, #92]	; 0x5c
 8002518:	f003 031f 	and.w	r3, r3, #31
 800251c:	2201      	movs	r2, #1
 800251e:	409a      	lsls	r2, r3
 8002520:	68fb      	ldr	r3, [r7, #12]
