
USB_TEST.elf:     file format elf32-littlearm

Sections:
Idx Name          Size      VMA       LMA       File off  Algn
  0 .isr_vector   00000298  08000000  08000000  00010000  2**0
                  CONTENTS, ALLOC, LOAD, READONLY, DATA
  1 .text         0000d2c8  080002a0  080002a0  000102a0  2**4
                  CONTENTS, ALLOC, LOAD, READONLY, CODE
  2 .rodata       00000498  0800d568  0800d568  0001d568  2**3
                  CONTENTS, ALLOC, LOAD, READONLY, DATA
  3 .init_array   00000004  0800da00  0800da00  0001da00  2**2
                  CONTENTS, ALLOC, LOAD, DATA
  4 .fini_array   00000004  0800da04  0800da04  0001da04  2**2
                  CONTENTS, ALLOC, LOAD, DATA
  5 .data         000002dc  24000000  0800da08  00020000  2**2
                  CONTENTS, ALLOC, LOAD, DATA
  6 .bss          00000bb4  240002dc  0800dce4  000202dc  2**2
                  ALLOC
  7 ._user_heap_stack 00000600  24000e90  0800dce4  00020e90  2**0
                  ALLOC
  8 .ARM.attributes 0000002e  00000000  00000000  000202dc  2**0
                  CONTENTS, READONLY
  9 .comment      00000043  00000000  00000000  0002030a  2**0
                  CONTENTS, READONLY
 10 .debug_info   00012f66  00000000  00000000  0002034d  2**0
                  CONTENTS, READONLY, DEBUGGING, OCTETS
 11 .debug_abbrev 00003359  00000000  00000000  000332b3  2**0
                  CONTENTS, READONLY, DEBUGGING, OCTETS
 12 .debug_aranges 00000f18  00000000  00000000  00036610  2**3
                  CONTENTS, READONLY, DEBUGGING, OCTETS
 13 .debug_rnglists 00000b26  00000000  00000000  00037528  2**0
                  CONTENTS, READONLY, DEBUGGING, OCTETS
 14 .debug_macro  00038bf5  00000000  00000000  0003804e  2**0
                  CONTENTS, READONLY, DEBUGGING, OCTETS
 15 .debug_line   00016979  00000000  00000000  00070c43  2**0
                  CONTENTS, READONLY, DEBUGGING, OCTETS
 16 .debug_str    001549e9  00000000  00000000  000875bc  2**0
                  CONTENTS, READONLY, DEBUGGING, OCTETS
 17 .debug_frame  00004f48  00000000  00000000  001dbfa8  2**2
                  CONTENTS, READONLY, DEBUGGING, OCTETS
 18 .debug_line_str 0000006a  00000000  00000000  001e0ef0  2**0
                  CONTENTS, READONLY, DEBUGGING, OCTETS

Disassembly of section .text:

080002a0 <__do_global_dtors_aux>:
 80002a0:	b510      	push	{r4, lr}
 80002a2:	4c05      	ldr	r4, [pc, #20]	; (80002b8 <__do_global_dtors_aux+0x18>)
 80002a4:	7823      	ldrb	r3, [r4, #0]
 80002a6:	b933      	cbnz	r3, 80002b6 <__do_global_dtors_aux+0x16>
 80002a8:	4b04      	ldr	r3, [pc, #16]	; (80002bc <__do_global_dtors_aux+0x1c>)
 80002aa:	b113      	cbz	r3, 80002b2 <__do_global_dtors_aux+0x12>
 80002ac:	4804      	ldr	r0, [pc, #16]	; (80002c0 <__do_global_dtors_aux+0x20>)
 80002ae:	f3af 8000 	nop.w
 80002b2:	2301      	movs	r3, #1
 80002b4:	7023      	strb	r3, [r4, #0]
 80002b6:	bd10      	pop	{r4, pc}
 80002b8:	240002dc 	.word	0x240002dc
 80002bc:	00000000 	.word	0x00000000
 80002c0:	0800d550 	.word	0x0800d550

080002c4 <frame_dummy>:
 80002c4:	b508      	push	{r3, lr}
 80002c6:	4b03      	ldr	r3, [pc, #12]	; (80002d4 <frame_dummy+0x10>)
 80002c8:	b11b      	cbz	r3, 80002d2 <frame_dummy+0xe>
 80002ca:	4903      	ldr	r1, [pc, #12]	; (80002d8 <frame_dummy+0x14>)
 80002cc:	4803      	ldr	r0, [pc, #12]	; (80002dc <frame_dummy+0x18>)
 80002ce:	f3af 8000 	nop.w
 80002d2:	bd08      	pop	{r3, pc}
 80002d4:	00000000 	.word	0x00000000
 80002d8:	240002e0 	.word	0x240002e0
 80002dc:	0800d550 	.word	0x0800d550

080002e0 <memchr>:
 80002e0:	f001 01ff 	and.w	r1, r1, #255	; 0xff
 80002e4:	2a10      	cmp	r2, #16
 80002e6:	db2b      	blt.n	8000340 <memchr+0x60>
 80002e8:	f010 0f07 	tst.w	r0, #7
 80002ec:	d008      	beq.n	8000300 <memchr+0x20>
 80002ee:	f810 3b01 	ldrb.w	r3, [r0], #1
 80002f2:	3a01      	subs	r2, #1
 80002f4:	428b      	cmp	r3, r1
 80002f6:	d02d      	beq.n	8000354 <memchr+0x74>
 80002f8:	f010 0f07 	tst.w	r0, #7
 80002fc:	b342      	cbz	r2, 8000350 <memchr+0x70>
 80002fe:	d1f6      	bne.n	80002ee <memchr+0xe>
 8000300:	b4f0      	push	{r4, r5, r6, r7}
 8000302:	ea41 2101 	orr.w	r1, r1, r1, lsl #8
 8000306:	ea41 4101 	orr.w	r1, r1, r1, lsl #16
 800030a:	f022 0407 	bic.w	r4, r2, #7
 800030e:	f07f 0700 	mvns.w	r7, #0
 8000312:	2300      	movs	r3, #0
 8000314:	e8f0 5602 	ldrd	r5, r6, [r0], #8
 8000318:	3c08      	subs	r4, #8
 800031a:	ea85 0501 	eor.w	r5, r5, r1
 800031e:	ea86 0601 	eor.w	r6, r6, r1
 8000322:	fa85 f547 	uadd8	r5, r5, r7
 8000326:	faa3 f587 	sel	r5, r3, r7
 800032a:	fa86 f647 	uadd8	r6, r6, r7
 800032e:	faa5 f687 	sel	r6, r5, r7
 8000332:	b98e      	cbnz	r6, 8000358 <memchr+0x78>
 8000334:	d1ee      	bne.n	8000314 <memchr+0x34>
 8000336:	bcf0      	pop	{r4, r5, r6, r7}
 8000338:	f001 01ff 	and.w	r1, r1, #255	; 0xff
 800033c:	f002 0207 	and.w	r2, r2, #7
 8000340:	b132      	cbz	r2, 8000350 <memchr+0x70>
 8000342:	f810 3b01 	ldrb.w	r3, [r0], #1
 8000346:	3a01      	subs	r2, #1
 8000348:	ea83 0301 	eor.w	r3, r3, r1
 800034c:	b113      	cbz	r3, 8000354 <memchr+0x74>
 800034e:	d1f8      	bne.n	8000342 <memchr+0x62>
 8000350:	2000      	movs	r0, #0
 8000352:	4770      	bx	lr
 8000354:	3801      	subs	r0, #1
 8000356:	4770      	bx	lr
 8000358:	2d00      	cmp	r5, #0
 800035a:	bf06      	itte	eq
 800035c:	4635      	moveq	r5, r6
 800035e:	3803      	subeq	r0, #3
 8000360:	3807      	subne	r0, #7
 8000362:	f015 0f01 	tst.w	r5, #1
 8000366:	d107      	bne.n	8000378 <memchr+0x98>
 8000368:	3001      	adds	r0, #1
 800036a:	f415 7f80 	tst.w	r5, #256	; 0x100
 800036e:	bf02      	ittt	eq
 8000370:	3001      	addeq	r0, #1
 8000372:	f415 3fc0 	tsteq.w	r5, #98304	; 0x18000
 8000376:	3001      	addeq	r0, #1
 8000378:	bcf0      	pop	{r4, r5, r6, r7}
 800037a:	3801      	subs	r0, #1
 800037c:	4770      	bx	lr
 800037e:	bf00      	nop

08000380 <strlen>:
 8000380:	4603      	mov	r3, r0
 8000382:	f813 2b01 	ldrb.w	r2, [r3], #1
 8000386:	2a00      	cmp	r2, #0
 8000388:	d1fb      	bne.n	8000382 <strlen+0x2>
 800038a:	1a18      	subs	r0, r3, r0
 800038c:	3801      	subs	r0, #1
 800038e:	4770      	bx	lr

08000390 <__aeabi_drsub>:
 8000390:	f081 4100 	eor.w	r1, r1, #2147483648	; 0x80000000
 8000394:	e002      	b.n	800039c <__adddf3>
 8000396:	bf00      	nop

08000398 <__aeabi_dsub>:
 8000398:	f083 4300 	eor.w	r3, r3, #2147483648	; 0x80000000

0800039c <__adddf3>:
 800039c:	b530      	push	{r4, r5, lr}
 800039e:	ea4f 0441 	mov.w	r4, r1, lsl #1
 80003a2:	ea4f 0543 	mov.w	r5, r3, lsl #1
 80003a6:	ea94 0f05 	teq	r4, r5
 80003aa:	bf08      	it	eq
 80003ac:	ea90 0f02 	teqeq	r0, r2
 80003b0:	bf1f      	itttt	ne
 80003b2:	ea54 0c00 	orrsne.w	ip, r4, r0
 80003b6:	ea55 0c02 	orrsne.w	ip, r5, r2
 80003ba:	ea7f 5c64 	mvnsne.w	ip, r4, asr #21
 80003be:	ea7f 5c65 	mvnsne.w	ip, r5, asr #21
 80003c2:	f000 80e2 	beq.w	800058a <__adddf3+0x1ee>
 80003c6:	ea4f 5454 	mov.w	r4, r4, lsr #21
 80003ca:	ebd4 5555 	rsbs	r5, r4, r5, lsr #21
 80003ce:	bfb8      	it	lt
 80003d0:	426d      	neglt	r5, r5
 80003d2:	dd0c      	ble.n	80003ee <__adddf3+0x52>
 80003d4:	442c      	add	r4, r5
 80003d6:	ea80 0202 	eor.w	r2, r0, r2
 80003da:	ea81 0303 	eor.w	r3, r1, r3
 80003de:	ea82 0000 	eor.w	r0, r2, r0
 80003e2:	ea83 0101 	eor.w	r1, r3, r1
 80003e6:	ea80 0202 	eor.w	r2, r0, r2
 80003ea:	ea81 0303 	eor.w	r3, r1, r3
 80003ee:	2d36      	cmp	r5, #54	; 0x36
 80003f0:	bf88      	it	hi
 80003f2:	bd30      	pophi	{r4, r5, pc}
 80003f4:	f011 4f00 	tst.w	r1, #2147483648	; 0x80000000
 80003f8:	ea4f 3101 	mov.w	r1, r1, lsl #12
 80003fc:	f44f 1c80 	mov.w	ip, #1048576	; 0x100000
 8000400:	ea4c 3111 	orr.w	r1, ip, r1, lsr #12
 8000404:	d002      	beq.n	800040c <__adddf3+0x70>
 8000406:	4240      	negs	r0, r0
 8000408:	eb61 0141 	sbc.w	r1, r1, r1, lsl #1
 800040c:	f013 4f00 	tst.w	r3, #2147483648	; 0x80000000
 8000410:	ea4f 3303 	mov.w	r3, r3, lsl #12
 8000414:	ea4c 3313 	orr.w	r3, ip, r3, lsr #12
 8000418:	d002      	beq.n	8000420 <__adddf3+0x84>
 800041a:	4252      	negs	r2, r2
 800041c:	eb63 0343 	sbc.w	r3, r3, r3, lsl #1
 8000420:	ea94 0f05 	teq	r4, r5
 8000424:	f000 80a7 	beq.w	8000576 <__adddf3+0x1da>
 8000428:	f1a4 0401 	sub.w	r4, r4, #1
 800042c:	f1d5 0e20 	rsbs	lr, r5, #32
 8000430:	db0d      	blt.n	800044e <__adddf3+0xb2>
 8000432:	fa02 fc0e 	lsl.w	ip, r2, lr
 8000436:	fa22 f205 	lsr.w	r2, r2, r5
 800043a:	1880      	adds	r0, r0, r2
 800043c:	f141 0100 	adc.w	r1, r1, #0
 8000440:	fa03 f20e 	lsl.w	r2, r3, lr
 8000444:	1880      	adds	r0, r0, r2
 8000446:	fa43 f305 	asr.w	r3, r3, r5
 800044a:	4159      	adcs	r1, r3
 800044c:	e00e      	b.n	800046c <__adddf3+0xd0>
 800044e:	f1a5 0520 	sub.w	r5, r5, #32
 8000452:	f10e 0e20 	add.w	lr, lr, #32
 8000456:	2a01      	cmp	r2, #1
 8000458:	fa03 fc0e 	lsl.w	ip, r3, lr
 800045c:	bf28      	it	cs
 800045e:	f04c 0c02 	orrcs.w	ip, ip, #2
 8000462:	fa43 f305 	asr.w	r3, r3, r5
 8000466:	18c0      	adds	r0, r0, r3
 8000468:	eb51 71e3 	adcs.w	r1, r1, r3, asr #31
 800046c:	f001 4500 	and.w	r5, r1, #2147483648	; 0x80000000
 8000470:	d507      	bpl.n	8000482 <__adddf3+0xe6>
 8000472:	f04f 0e00 	mov.w	lr, #0
 8000476:	f1dc 0c00 	rsbs	ip, ip, #0
 800047a:	eb7e 0000 	sbcs.w	r0, lr, r0
 800047e:	eb6e 0101 	sbc.w	r1, lr, r1
 8000482:	f5b1 1f80 	cmp.w	r1, #1048576	; 0x100000
 8000486:	d31b      	bcc.n	80004c0 <__adddf3+0x124>
 8000488:	f5b1 1f00 	cmp.w	r1, #2097152	; 0x200000
 800048c:	d30c      	bcc.n	80004a8 <__adddf3+0x10c>
 800048e:	0849      	lsrs	r1, r1, #1
 8000490:	ea5f 0030 	movs.w	r0, r0, rrx
 8000494:	ea4f 0c3c 	mov.w	ip, ip, rrx
 8000498:	f104 0401 	add.w	r4, r4, #1
 800049c:	ea4f 5244 	mov.w	r2, r4, lsl #21
 80004a0:	f512 0f80 	cmn.w	r2, #4194304	; 0x400000
 80004a4:	f080 809a 	bcs.w	80005dc <__adddf3+0x240>
 80004a8:	f1bc 4f00 	cmp.w	ip, #2147483648	; 0x80000000
 80004ac:	bf08      	it	eq
 80004ae:	ea5f 0c50 	movseq.w	ip, r0, lsr #1
 80004b2:	f150 0000 	adcs.w	r0, r0, #0
 80004b6:	eb41 5104 	adc.w	r1, r1, r4, lsl #20
 80004ba:	ea41 0105 	orr.w	r1, r1, r5
 80004be:	bd30      	pop	{r4, r5, pc}
 80004c0:	ea5f 0c4c 	movs.w	ip, ip, lsl #1
 80004c4:	4140      	adcs	r0, r0
 80004c6:	eb41 0101 	adc.w	r1, r1, r1
 80004ca:	3c01      	subs	r4, #1
 80004cc:	bf28      	it	cs
 80004ce:	f5b1 1f80 	cmpcs.w	r1, #1048576	; 0x100000
 80004d2:	d2e9      	bcs.n	80004a8 <__adddf3+0x10c>
 80004d4:	f091 0f00 	teq	r1, #0
 80004d8:	bf04      	itt	eq
 80004da:	4601      	moveq	r1, r0
 80004dc:	2000      	moveq	r0, #0
 80004de:	fab1 f381 	clz	r3, r1
 80004e2:	bf08      	it	eq
 80004e4:	3320      	addeq	r3, #32
 80004e6:	f1a3 030b 	sub.w	r3, r3, #11
 80004ea:	f1b3 0220 	subs.w	r2, r3, #32
 80004ee:	da0c      	bge.n	800050a <__adddf3+0x16e>
 80004f0:	320c      	adds	r2, #12
 80004f2:	dd08      	ble.n	8000506 <__adddf3+0x16a>
 80004f4:	f102 0c14 	add.w	ip, r2, #20
 80004f8:	f1c2 020c 	rsb	r2, r2, #12
 80004fc:	fa01 f00c 	lsl.w	r0, r1, ip
 8000500:	fa21 f102 	lsr.w	r1, r1, r2
 8000504:	e00c      	b.n	8000520 <__adddf3+0x184>
 8000506:	f102 0214 	add.w	r2, r2, #20
 800050a:	bfd8      	it	le
 800050c:	f1c2 0c20 	rsble	ip, r2, #32
 8000510:	fa01 f102 	lsl.w	r1, r1, r2
 8000514:	fa20 fc0c 	lsr.w	ip, r0, ip
 8000518:	bfdc      	itt	le
 800051a:	ea41 010c 	orrle.w	r1, r1, ip
 800051e:	4090      	lslle	r0, r2
 8000520:	1ae4      	subs	r4, r4, r3
 8000522:	bfa2      	ittt	ge
 8000524:	eb01 5104 	addge.w	r1, r1, r4, lsl #20
 8000528:	4329      	orrge	r1, r5
 800052a:	bd30      	popge	{r4, r5, pc}
 800052c:	ea6f 0404 	mvn.w	r4, r4
 8000530:	3c1f      	subs	r4, #31
 8000532:	da1c      	bge.n	800056e <__adddf3+0x1d2>
 8000534:	340c      	adds	r4, #12
 8000536:	dc0e      	bgt.n	8000556 <__adddf3+0x1ba>
 8000538:	f104 0414 	add.w	r4, r4, #20
 800053c:	f1c4 0220 	rsb	r2, r4, #32
 8000540:	fa20 f004 	lsr.w	r0, r0, r4
 8000544:	fa01 f302 	lsl.w	r3, r1, r2
 8000548:	ea40 0003 	orr.w	r0, r0, r3
 800054c:	fa21 f304 	lsr.w	r3, r1, r4
 8000550:	ea45 0103 	orr.w	r1, r5, r3
 8000554:	bd30      	pop	{r4, r5, pc}
 8000556:	f1c4 040c 	rsb	r4, r4, #12
 800055a:	f1c4 0220 	rsb	r2, r4, #32
 800055e:	fa20 f002 	lsr.w	r0, r0, r2
 8000562:	fa01 f304 	lsl.w	r3, r1, r4
 8000566:	ea40 0003 	orr.w	r0, r0, r3
 800056a:	4629      	mov	r1, r5
 800056c:	bd30      	pop	{r4, r5, pc}
 800056e:	fa21 f004 	lsr.w	r0, r1, r4
 8000572:	4629      	mov	r1, r5
 8000574:	bd30      	pop	{r4, r5, pc}
 8000576:	f094 0f00 	teq	r4, #0
 800057a:	f483 1380 	eor.w	r3, r3, #1048576	; 0x100000
 800057e:	bf06      	itte	eq
 8000580:	f481 1180 	eoreq.w	r1, r1, #1048576	; 0x100000
 8000584:	3401      	addeq	r4, #1
 8000586:	3d01      	subne	r5, #1
 8000588:	e74e      	b.n	8000428 <__adddf3+0x8c>
 800058a:	ea7f 5c64 	mvns.w	ip, r4, asr #21
 800058e:	bf18      	it	ne
 8000590:	ea7f 5c65 	mvnsne.w	ip, r5, asr #21
 8000594:	d029      	beq.n	80005ea <__adddf3+0x24e>
 8000596:	ea94 0f05 	teq	r4, r5
 800059a:	bf08      	it	eq
 800059c:	ea90 0f02 	teqeq	r0, r2
 80005a0:	d005      	beq.n	80005ae <__adddf3+0x212>
 80005a2:	ea54 0c00 	orrs.w	ip, r4, r0
 80005a6:	bf04      	itt	eq
 80005a8:	4619      	moveq	r1, r3
 80005aa:	4610      	moveq	r0, r2
 80005ac:	bd30      	pop	{r4, r5, pc}
 80005ae:	ea91 0f03 	teq	r1, r3
 80005b2:	bf1e      	ittt	ne
 80005b4:	2100      	movne	r1, #0
 80005b6:	2000      	movne	r0, #0
 80005b8:	bd30      	popne	{r4, r5, pc}
 80005ba:	ea5f 5c54 	movs.w	ip, r4, lsr #21
 80005be:	d105      	bne.n	80005cc <__adddf3+0x230>
 80005c0:	0040      	lsls	r0, r0, #1
 80005c2:	4149      	adcs	r1, r1
 80005c4:	bf28      	it	cs
 80005c6:	f041 4100 	orrcs.w	r1, r1, #2147483648	; 0x80000000
 80005ca:	bd30      	pop	{r4, r5, pc}
 80005cc:	f514 0480 	adds.w	r4, r4, #4194304	; 0x400000
 80005d0:	bf3c      	itt	cc
 80005d2:	f501 1180 	addcc.w	r1, r1, #1048576	; 0x100000
 80005d6:	bd30      	popcc	{r4, r5, pc}
 80005d8:	f001 4500 	and.w	r5, r1, #2147483648	; 0x80000000
 80005dc:	f045 41fe 	orr.w	r1, r5, #2130706432	; 0x7f000000
 80005e0:	f441 0170 	orr.w	r1, r1, #15728640	; 0xf00000
 80005e4:	f04f 0000 	mov.w	r0, #0
 80005e8:	bd30      	pop	{r4, r5, pc}
 80005ea:	ea7f 5c64 	mvns.w	ip, r4, asr #21
 80005ee:	bf1a      	itte	ne
 80005f0:	4619      	movne	r1, r3
 80005f2:	4610      	movne	r0, r2
 80005f4:	ea7f 5c65 	mvnseq.w	ip, r5, asr #21
 80005f8:	bf1c      	itt	ne
 80005fa:	460b      	movne	r3, r1
 80005fc:	4602      	movne	r2, r0
 80005fe:	ea50 3401 	orrs.w	r4, r0, r1, lsl #12
 8000602:	bf06      	itte	eq
 8000604:	ea52 3503 	orrseq.w	r5, r2, r3, lsl #12
 8000608:	ea91 0f03 	teqeq	r1, r3
 800060c:	f441 2100 	orrne.w	r1, r1, #524288	; 0x80000
 8000610:	bd30      	pop	{r4, r5, pc}
 8000612:	bf00      	nop

08000614 <__aeabi_ui2d>:
 8000614:	f090 0f00 	teq	r0, #0
 8000618:	bf04      	itt	eq
 800061a:	2100      	moveq	r1, #0
 800061c:	4770      	bxeq	lr
 800061e:	b530      	push	{r4, r5, lr}
 8000620:	f44f 6480 	mov.w	r4, #1024	; 0x400
 8000624:	f104 0432 	add.w	r4, r4, #50	; 0x32
 8000628:	f04f 0500 	mov.w	r5, #0
 800062c:	f04f 0100 	mov.w	r1, #0
 8000630:	e750      	b.n	80004d4 <__adddf3+0x138>
 8000632:	bf00      	nop

08000634 <__aeabi_i2d>:
 8000634:	f090 0f00 	teq	r0, #0
 8000638:	bf04      	itt	eq
 800063a:	2100      	moveq	r1, #0
 800063c:	4770      	bxeq	lr
 800063e:	b530      	push	{r4, r5, lr}
 8000640:	f44f 6480 	mov.w	r4, #1024	; 0x400
 8000644:	f104 0432 	add.w	r4, r4, #50	; 0x32
 8000648:	f010 4500 	ands.w	r5, r0, #2147483648	; 0x80000000
 800064c:	bf48      	it	mi
 800064e:	4240      	negmi	r0, r0
 8000650:	f04f 0100 	mov.w	r1, #0
 8000654:	e73e      	b.n	80004d4 <__adddf3+0x138>
 8000656:	bf00      	nop

08000658 <__aeabi_f2d>:
 8000658:	0042      	lsls	r2, r0, #1
 800065a:	ea4f 01e2 	mov.w	r1, r2, asr #3
 800065e:	ea4f 0131 	mov.w	r1, r1, rrx
 8000662:	ea4f 7002 	mov.w	r0, r2, lsl #28
 8000666:	bf1f      	itttt	ne
 8000668:	f012 437f 	andsne.w	r3, r2, #4278190080	; 0xff000000
 800066c:	f093 4f7f 	teqne	r3, #4278190080	; 0xff000000
 8000670:	f081 5160 	eorne.w	r1, r1, #939524096	; 0x38000000
 8000674:	4770      	bxne	lr
 8000676:	f032 427f 	bics.w	r2, r2, #4278190080	; 0xff000000
 800067a:	bf08      	it	eq
 800067c:	4770      	bxeq	lr
 800067e:	f093 4f7f 	teq	r3, #4278190080	; 0xff000000
 8000682:	bf04      	itt	eq
 8000684:	f441 2100 	orreq.w	r1, r1, #524288	; 0x80000
 8000688:	4770      	bxeq	lr
 800068a:	b530      	push	{r4, r5, lr}
 800068c:	f44f 7460 	mov.w	r4, #896	; 0x380
 8000690:	f001 4500 	and.w	r5, r1, #2147483648	; 0x80000000
 8000694:	f021 4100 	bic.w	r1, r1, #2147483648	; 0x80000000
 8000698:	e71c      	b.n	80004d4 <__adddf3+0x138>
 800069a:	bf00      	nop

0800069c <__aeabi_ul2d>:
 800069c:	ea50 0201 	orrs.w	r2, r0, r1
 80006a0:	bf08      	it	eq
 80006a2:	4770      	bxeq	lr
 80006a4:	b530      	push	{r4, r5, lr}
 80006a6:	f04f 0500 	mov.w	r5, #0
 80006aa:	e00a      	b.n	80006c2 <__aeabi_l2d+0x16>

080006ac <__aeabi_l2d>:
 80006ac:	ea50 0201 	orrs.w	r2, r0, r1
 80006b0:	bf08      	it	eq
 80006b2:	4770      	bxeq	lr
 80006b4:	b530      	push	{r4, r5, lr}
 80006b6:	f011 4500 	ands.w	r5, r1, #2147483648	; 0x80000000
 80006ba:	d502      	bpl.n	80006c2 <__aeabi_l2d+0x16>
 80006bc:	4240      	negs	r0, r0
 80006be:	eb61 0141 	sbc.w	r1, r1, r1, lsl #1
 80006c2:	f44f 6480 	mov.w	r4, #1024	; 0x400
 80006c6:	f104 0432 	add.w	r4, r4, #50	; 0x32
 80006ca:	ea5f 5c91 	movs.w	ip, r1, lsr #22
 80006ce:	f43f aed8 	beq.w	8000482 <__adddf3+0xe6>
 80006d2:	f04f 0203 	mov.w	r2, #3
 80006d6:	ea5f 0cdc 	movs.w	ip, ip, lsr #3
 80006da:	bf18      	it	ne
 80006dc:	3203      	addne	r2, #3
 80006de:	ea5f 0cdc 	movs.w	ip, ip, lsr #3
 80006e2:	bf18      	it	ne
 80006e4:	3203      	addne	r2, #3
 80006e6:	eb02 02dc 	add.w	r2, r2, ip, lsr #3
 80006ea:	f1c2 0320 	rsb	r3, r2, #32
 80006ee:	fa00 fc03 	lsl.w	ip, r0, r3
 80006f2:	fa20 f002 	lsr.w	r0, r0, r2
 80006f6:	fa01 fe03 	lsl.w	lr, r1, r3
 80006fa:	ea40 000e 	orr.w	r0, r0, lr
 80006fe:	fa21 f102 	lsr.w	r1, r1, r2
 8000702:	4414      	add	r4, r2
 8000704:	e6bd      	b.n	8000482 <__adddf3+0xe6>
 8000706:	bf00      	nop

08000708 <__aeabi_d2lz>:
 8000708:	b508      	push	{r3, lr}
 800070a:	4602      	mov	r2, r0
 800070c:	460b      	mov	r3, r1
 800070e:	ec43 2b17 	vmov	d7, r2, r3
 8000712:	eeb5 7bc0 	vcmpe.f64	d7, #0.0
 8000716:	eef1 fa10 	vmrs	APSR_nzcv, fpscr
 800071a:	d403      	bmi.n	8000724 <__aeabi_d2lz+0x1c>
 800071c:	e8bd 4008 	ldmia.w	sp!, {r3, lr}
 8000720:	f000 b80a 	b.w	8000738 <__aeabi_d2ulz>
 8000724:	eeb1 7b47 	vneg.f64	d7, d7
 8000728:	ec51 0b17 	vmov	r0, r1, d7
 800072c:	f000 f804 	bl	8000738 <__aeabi_d2ulz>
 8000730:	4240      	negs	r0, r0
 8000732:	eb61 0141 	sbc.w	r1, r1, r1, lsl #1
 8000736:	bd08      	pop	{r3, pc}

08000738 <__aeabi_d2ulz>:
 8000738:	ed9f 6b0b 	vldr	d6, [pc, #44]	; 8000768 <__aeabi_d2ulz+0x30>
 800073c:	ec41 0b17 	vmov	d7, r0, r1
 8000740:	ed9f 5b0b 	vldr	d5, [pc, #44]	; 8000770 <__aeabi_d2ulz+0x38>
 8000744:	ee27 6b06 	vmul.f64	d6, d7, d6
 8000748:	eebc 6bc6 	vcvt.u32.f64	s12, d6
 800074c:	eeb8 4b46 	vcvt.f64.u32	d4, s12
 8000750:	eea4 7b45 	vfms.f64	d7, d4, d5
 8000754:	eefc 7bc7 	vcvt.u32.f64	s15, d7
 8000758:	ee16 1a10 	vmov	r1, s12
 800075c:	ee17 0a90 	vmov	r0, s15
 8000760:	4770      	bx	lr
 8000762:	bf00      	nop
 8000764:	f3af 8000 	nop.w
 8000768:	00000000 	.word	0x00000000
 800076c:	3df00000 	.word	0x3df00000
 8000770:	00000000 	.word	0x00000000
 8000774:	41f00000 	.word	0x41f00000

08000778 <MX_GPIO_Init>:
     PH1-OSC_OUT (PH1)   ------> RCC_OSC_OUT
     PA13 (JTMS/SWDIO)   ------> DEBUG_JTMS-SWDIO
     PA14 (JTCK/SWCLK)   ------> DEBUG_JTCK-SWCLK
*/
void MX_GPIO_Init(void)
{
 8000778:	b480      	push	{r7}
 800077a:	b083      	sub	sp, #12
 800077c:	af00      	add	r7, sp, #0

  /* GPIO Ports Clock Enable */
  __HAL_RCC_GPIOH_CLK_ENABLE();
 800077e:	4b12      	ldr	r3, [pc, #72]	; (80007c8 <MX_GPIO_Init+0x50>)
 8000780:	f8d3 30e0 	ldr.w	r3, [r3, #224]	; 0xe0
 8000784:	4a10      	ldr	r2, [pc, #64]	; (80007c8 <MX_GPIO_Init+0x50>)
 8000786:	f043 0380 	orr.w	r3, r3, #128	; 0x80
 800078a:	f8c2 30e0 	str.w	r3, [r2, #224]	; 0xe0
 800078e:	4b0e      	ldr	r3, [pc, #56]	; (80007c8 <MX_GPIO_Init+0x50>)
 8000790:	f8d3 30e0 	ldr.w	r3, [r3, #224]	; 0xe0
 8000794:	f003 0380 	and.w	r3, r3, #128	; 0x80
 8000798:	607b      	str	r3, [r7, #4]
 800079a:	687b      	ldr	r3, [r7, #4]
  __HAL_RCC_GPIOA_CLK_ENABLE();
 800079c:	4b0a      	ldr	r3, [pc, #40]	; (80007c8 <MX_GPIO_Init+0x50>)
 800079e:	f8d3 30e0 	ldr.w	r3, [r3, #224]	; 0xe0
 80007a2:	4a09      	ldr	r2, [pc, #36]	; (80007c8 <MX_GPIO_Init+0x50>)
 80007a4:	f043 0301 	orr.w	r3, r3, #1
 80007a8:	f8c2 30e0 	str.w	r3, [r2, #224]	; 0xe0
 80007ac:	4b06      	ldr	r3, [pc, #24]	; (80007c8 <MX_GPIO_Init+0x50>)
 80007ae:	f8d3 30e0 	ldr.w	r3, [r3, #224]	; 0xe0
 80007b2:	f003 0301 	and.w	r3, r3, #1
 80007b6:	603b      	str	r3, [r7, #0]
 80007b8:	683b      	ldr	r3, [r7, #0]

}
 80007ba:	bf00      	nop
 80007bc:	370c      	adds	r7, #12
 80007be:	46bd      	mov	sp, r7
 80007c0:	f85d 7b04 	ldr.w	r7, [sp], #4
 80007c4:	4770      	bx	lr
 80007c6:	bf00      	nop
 80007c8:	58024400 	.word	0x58024400

080007cc <main>:
/**
  * @brief  The application entry point.
  * @retval int
  */
int main(void)
{
 80007cc:	b580      	push	{r7, lr}
 80007ce:	af00      	add	r7, sp, #0
  /* USER CODE END 1 */

  /* MCU Configuration--------------------------------------------------------*/

  /* Reset of all peripherals, Initializes the Flash interface and the Systick. */
  HAL_Init();
 80007d0:	f000 fab2 	bl	8000d38 <HAL_Init>

  /* MPU Configuration--------------------------------------------------------*/
  MPU_Config();
 80007d4:	f000 f8b8 	bl	8000948 <MPU_Config>
  /* USER CODE BEGIN Init */

  /* USER CODE END Init */

  /* Configure the system clock */
  SystemClock_Config();
 80007d8:	f000 f806 	bl	80007e8 <SystemClock_Config>
  /* USER CODE BEGIN SysInit */

  /* USER CODE END SysInit */

  /* Initialize all configured peripherals */
  MX_GPIO_Init();
 80007dc:	f7ff ffcc 	bl	8000778 <MX_GPIO_Init>
  MX_USB_DEVICE_Init();
 80007e0:	f007 ff16 	bl	8008610 <MX_USB_DEVICE_Init>

  /* USER CODE END 2 */

  /* Infinite loop */
  /* USER CODE BEGIN WHILE */
  while (1)
 80007e4:	e7fe      	b.n	80007e4 <main+0x18>
	...

080007e8 <SystemClock_Config>:
/**
  * @brief System Clock Configuration
  * @retval None
  */
void SystemClock_Config(void)
{
 80007e8:	b580      	push	{r7, lr}
 80007ea:	b09e      	sub	sp, #120	; 0x78
 80007ec:	af00      	add	r7, sp, #0
  RCC_OscInitTypeDef RCC_OscInitStruct = {0};
 80007ee:	f107 032c 	add.w	r3, r7, #44	; 0x2c
 80007f2:	224c      	movs	r2, #76	; 0x4c
 80007f4:	2100      	movs	r1, #0
 80007f6:	4618      	mov	r0, r3
 80007f8:	f009 fb39 	bl	8009e6e <memset>
  RCC_ClkInitTypeDef RCC_ClkInitStruct = {0};
 80007fc:	f107 030c 	add.w	r3, r7, #12
 8000800:	2220      	movs	r2, #32
 8000802:	2100      	movs	r1, #0
 8000804:	4618      	mov	r0, r3
 8000806:	f009 fb32 	bl	8009e6e <memset>

  /** Supply configuration update enable
  */
  HAL_PWREx_ConfigSupply(PWR_LDO_SUPPLY);
 800080a:	2002      	movs	r0, #2
 800080c:	f002 f94c 	bl	8002aa8 <HAL_PWREx_ConfigSupply>

  /** Configure the main internal regulator output voltage
  */
  __HAL_PWR_VOLTAGESCALING_CONFIG(PWR_REGULATOR_VOLTAGE_SCALE1);
 8000810:	2300      	movs	r3, #0
 8000812:	60bb      	str	r3, [r7, #8]
 8000814:	4b49      	ldr	r3, [pc, #292]	; (800093c <SystemClock_Config+0x154>)
 8000816:	6adb      	ldr	r3, [r3, #44]	; 0x2c
 8000818:	4a48      	ldr	r2, [pc, #288]	; (800093c <SystemClock_Config+0x154>)
 800081a:	f023 0301 	bic.w	r3, r3, #1
 800081e:	62d3      	str	r3, [r2, #44]	; 0x2c
 8000820:	4b46      	ldr	r3, [pc, #280]	; (800093c <SystemClock_Config+0x154>)
 8000822:	6adb      	ldr	r3, [r3, #44]	; 0x2c
 8000824:	f003 0301 	and.w	r3, r3, #1
 8000828:	60bb      	str	r3, [r7, #8]
 800082a:	4b45      	ldr	r3, [pc, #276]	; (8000940 <SystemClock_Config+0x158>)
 800082c:	699b      	ldr	r3, [r3, #24]
 800082e:	4a44      	ldr	r2, [pc, #272]	; (8000940 <SystemClock_Config+0x158>)
 8000830:	f443 4340 	orr.w	r3, r3, #49152	; 0xc000
 8000834:	6193      	str	r3, [r2, #24]
 8000836:	4b42      	ldr	r3, [pc, #264]	; (8000940 <SystemClock_Config+0x158>)
 8000838:	699b      	ldr	r3, [r3, #24]
 800083a:	f403 4340 	and.w	r3, r3, #49152	; 0xc000
 800083e:	60bb      	str	r3, [r7, #8]
 8000840:	68bb      	ldr	r3, [r7, #8]

  while(!__HAL_PWR_GET_FLAG(PWR_FLAG_VOSRDY)) {}
 8000842:	bf00      	nop
 8000844:	4b3e      	ldr	r3, [pc, #248]	; (8000940 <SystemClock_Config+0x158>)
 8000846:	699b      	ldr	r3, [r3, #24]
 8000848:	f403 5300 	and.w	r3, r3, #8192	; 0x2000
 800084c:	f5b3 5f00 	cmp.w	r3, #8192	; 0x2000
 8000850:	d1f8      	bne.n	8000844 <SystemClock_Config+0x5c>

  __HAL_RCC_SYSCFG_CLK_ENABLE();
 8000852:	4b3c      	ldr	r3, [pc, #240]	; (8000944 <SystemClock_Config+0x15c>)
 8000854:	f8d3 30f4 	ldr.w	r3, [r3, #244]	; 0xf4
 8000858:	4a3a      	ldr	r2, [pc, #232]	; (8000944 <SystemClock_Config+0x15c>)
 800085a:	f043 0302 	orr.w	r3, r3, #2
 800085e:	f8c2 30f4 	str.w	r3, [r2, #244]	; 0xf4
 8000862:	4b38      	ldr	r3, [pc, #224]	; (8000944 <SystemClock_Config+0x15c>)
 8000864:	f8d3 30f4 	ldr.w	r3, [r3, #244]	; 0xf4
 8000868:	f003 0302 	and.w	r3, r3, #2
 800086c:	607b      	str	r3, [r7, #4]
 800086e:	687b      	ldr	r3, [r7, #4]
  __HAL_PWR_VOLTAGESCALING_CONFIG(PWR_REGULATOR_VOLTAGE_SCALE0);
 8000870:	2300      	movs	r3, #0
 8000872:	603b      	str	r3, [r7, #0]
 8000874:	4b32      	ldr	r3, [pc, #200]	; (8000940 <SystemClock_Config+0x158>)
 8000876:	699b      	ldr	r3, [r3, #24]
 8000878:	4a31      	ldr	r2, [pc, #196]	; (8000940 <SystemClock_Config+0x158>)
 800087a:	f443 4340 	orr.w	r3, r3, #49152	; 0xc000
 800087e:	6193      	str	r3, [r2, #24]
 8000880:	4b2f      	ldr	r3, [pc, #188]	; (8000940 <SystemClock_Config+0x158>)
 8000882:	699b      	ldr	r3, [r3, #24]
 8000884:	f403 4340 	and.w	r3, r3, #49152	; 0xc000
 8000888:	603b      	str	r3, [r7, #0]
 800088a:	4b2c      	ldr	r3, [pc, #176]	; (800093c <SystemClock_Config+0x154>)
 800088c:	6adb      	ldr	r3, [r3, #44]	; 0x2c
 800088e:	4a2b      	ldr	r2, [pc, #172]	; (800093c <SystemClock_Config+0x154>)
 8000890:	f043 0301 	orr.w	r3, r3, #1
 8000894:	62d3      	str	r3, [r2, #44]	; 0x2c
 8000896:	4b29      	ldr	r3, [pc, #164]	; (800093c <SystemClock_Config+0x154>)
 8000898:	6adb      	ldr	r3, [r3, #44]	; 0x2c
 800089a:	f003 0301 	and.w	r3, r3, #1
 800089e:	603b      	str	r3, [r7, #0]
 80008a0:	683b      	ldr	r3, [r7, #0]

  while(!__HAL_PWR_GET_FLAG(PWR_FLAG_VOSRDY)) {}
 80008a2:	bf00      	nop
 80008a4:	4b26      	ldr	r3, [pc, #152]	; (8000940 <SystemClock_Config+0x158>)
 80008a6:	699b      	ldr	r3, [r3, #24]
 80008a8:	f403 5300 	and.w	r3, r3, #8192	; 0x2000
 80008ac:	f5b3 5f00 	cmp.w	r3, #8192	; 0x2000
 80008b0:	d1f8      	bne.n	80008a4 <SystemClock_Config+0xbc>

  /** Initializes the RCC Oscillators according to the specified parameters
  * in the RCC_OscInitTypeDef structure.
  */
  RCC_OscInitStruct.OscillatorType = RCC_OSCILLATORTYPE_HSI48|RCC_OSCILLATORTYPE_HSE;
 80008b2:	2321      	movs	r3, #33	; 0x21
 80008b4:	62fb      	str	r3, [r7, #44]	; 0x2c
  RCC_OscInitStruct.HSEState = RCC_HSE_ON;
 80008b6:	f44f 3380 	mov.w	r3, #65536	; 0x10000
 80008ba:	633b      	str	r3, [r7, #48]	; 0x30
  RCC_OscInitStruct.HSI48State = RCC_HSI48_ON;
 80008bc:	2301      	movs	r3, #1
 80008be:	647b      	str	r3, [r7, #68]	; 0x44
  RCC_OscInitStruct.PLL.PLLState = RCC_PLL_ON;
 80008c0:	2302      	movs	r3, #2
 80008c2:	653b      	str	r3, [r7, #80]	; 0x50
  RCC_OscInitStruct.PLL.PLLSource = RCC_PLLSOURCE_HSE;
 80008c4:	2302      	movs	r3, #2
 80008c6:	657b      	str	r3, [r7, #84]	; 0x54
  RCC_OscInitStruct.PLL.PLLM = 2;
 80008c8:	2302      	movs	r3, #2
 80008ca:	65bb      	str	r3, [r7, #88]	; 0x58
  RCC_OscInitStruct.PLL.PLLN = 64;
 80008cc:	2340      	movs	r3, #64	; 0x40
 80008ce:	65fb      	str	r3, [r7, #92]	; 0x5c
  RCC_OscInitStruct.PLL.PLLP = 2;
 80008d0:	2302      	movs	r3, #2
 80008d2:	663b      	str	r3, [r7, #96]	; 0x60
  RCC_OscInitStruct.PLL.PLLQ = 13;
 80008d4:	230d      	movs	r3, #13
 80008d6:	667b      	str	r3, [r7, #100]	; 0x64
  RCC_OscInitStruct.PLL.PLLR = 2;
 80008d8:	2302      	movs	r3, #2
 80008da:	66bb      	str	r3, [r7, #104]	; 0x68
  RCC_OscInitStruct.PLL.PLLRGE = RCC_PLL1VCIRANGE_3;
 80008dc:	230c      	movs	r3, #12
 80008de:	66fb      	str	r3, [r7, #108]	; 0x6c
  RCC_OscInitStruct.PLL.PLLVCOSEL = RCC_PLL1VCOWIDE;
 80008e0:	2300      	movs	r3, #0
 80008e2:	673b      	str	r3, [r7, #112]	; 0x70
  RCC_OscInitStruct.PLL.PLLFRACN = 0;
 80008e4:	2300      	movs	r3, #0
 80008e6:	677b      	str	r3, [r7, #116]	; 0x74
  if (HAL_RCC_OscConfig(&RCC_OscInitStruct) != HAL_OK)
 80008e8:	f107 032c 	add.w	r3, r7, #44	; 0x2c
 80008ec:	4618      	mov	r0, r3
 80008ee:	f002 f925 	bl	8002b3c <HAL_RCC_OscConfig>
 80008f2:	4603      	mov	r3, r0
 80008f4:	2b00      	cmp	r3, #0
 80008f6:	d001      	beq.n	80008fc <SystemClock_Config+0x114>
  {
    Error_Handler();
 80008f8:	f000 f853 	bl	80009a2 <Error_Handler>
  }

  /** Initializes the CPU, AHB and APB buses clocks
  */
  RCC_ClkInitStruct.ClockType = RCC_CLOCKTYPE_HCLK|RCC_CLOCKTYPE_SYSCLK
 80008fc:	233f      	movs	r3, #63	; 0x3f
 80008fe:	60fb      	str	r3, [r7, #12]
                              |RCC_CLOCKTYPE_PCLK1|RCC_CLOCKTYPE_PCLK2
                              |RCC_CLOCKTYPE_D3PCLK1|RCC_CLOCKTYPE_D1PCLK1;
  RCC_ClkInitStruct.SYSCLKSource = RCC_SYSCLKSOURCE_PLLCLK;
 8000900:	2303      	movs	r3, #3
 8000902:	613b      	str	r3, [r7, #16]
  RCC_ClkInitStruct.SYSCLKDivider = RCC_SYSCLK_DIV1;
 8000904:	2300      	movs	r3, #0
 8000906:	617b      	str	r3, [r7, #20]
  RCC_ClkInitStruct.AHBCLKDivider = RCC_HCLK_DIV2;
 8000908:	2308      	movs	r3, #8
 800090a:	61bb      	str	r3, [r7, #24]
  RCC_ClkInitStruct.APB3CLKDivider = RCC_APB3_DIV2;
 800090c:	2340      	movs	r3, #64	; 0x40
 800090e:	61fb      	str	r3, [r7, #28]
  RCC_ClkInitStruct.APB1CLKDivider = RCC_APB1_DIV2;
 8000910:	2340      	movs	r3, #64	; 0x40
 8000912:	623b      	str	r3, [r7, #32]
  RCC_ClkInitStruct.APB2CLKDivider = RCC_APB2_DIV2;
 8000914:	f44f 6380 	mov.w	r3, #1024	; 0x400
 8000918:	627b      	str	r3, [r7, #36]	; 0x24
  RCC_ClkInitStruct.APB4CLKDivider = RCC_APB4_DIV2;
 800091a:	2340      	movs	r3, #64	; 0x40
 800091c:	62bb      	str	r3, [r7, #40]	; 0x28

  if (HAL_RCC_ClockConfig(&RCC_ClkInitStruct, FLASH_LATENCY_2) != HAL_OK)
 800091e:	f107 030c 	add.w	r3, r7, #12
 8000922:	2102      	movs	r1, #2
 8000924:	4618      	mov	r0, r3
 8000926:	f002 fd63 	bl	80033f0 <HAL_RCC_ClockConfig>
 800092a:	4603      	mov	r3, r0
 800092c:	2b00      	cmp	r3, #0
 800092e:	d001      	beq.n	8000934 <SystemClock_Config+0x14c>
  {
    Error_Handler();
 8000930:	f000 f837 	bl	80009a2 <Error_Handler>
  }
}
 8000934:	bf00      	nop
 8000936:	3778      	adds	r7, #120	; 0x78
 8000938:	46bd      	mov	sp, r7
 800093a:	bd80      	pop	{r7, pc}
 800093c:	58000400 	.word	0x58000400
 8000940:	58024800 	.word	0x58024800
 8000944:	58024400 	.word	0x58024400

08000948 <MPU_Config>:
/* USER CODE END 4 */

/* MPU Configuration */

void MPU_Config(void)
{
 8000948:	b580      	push	{r7, lr}
 800094a:	b084      	sub	sp, #16
 800094c:	af00      	add	r7, sp, #0
  MPU_Region_InitTypeDef MPU_InitStruct = {0};
 800094e:	463b      	mov	r3, r7
 8000950:	2200      	movs	r2, #0
 8000952:	601a      	str	r2, [r3, #0]
 8000954:	605a      	str	r2, [r3, #4]
 8000956:	609a      	str	r2, [r3, #8]
 8000958:	60da      	str	r2, [r3, #12]

  /* Disables the MPU */
  HAL_MPU_Disable();
 800095a:	f000 fbbf 	bl	80010dc <HAL_MPU_Disable>

  /** Initializes and configures the Region and the memory to be protected
  */
  MPU_InitStruct.Enable = MPU_REGION_ENABLE;
 800095e:	2301      	movs	r3, #1
 8000960:	703b      	strb	r3, [r7, #0]
  MPU_InitStruct.Number = MPU_REGION_NUMBER0;
 8000962:	2300      	movs	r3, #0
 8000964:	707b      	strb	r3, [r7, #1]
  MPU_InitStruct.BaseAddress = 0x34000000;
 8000966:	f04f 5350 	mov.w	r3, #872415232	; 0x34000000
 800096a:	607b      	str	r3, [r7, #4]
  MPU_InitStruct.Size = MPU_REGION_SIZE_256B;
 800096c:	2307      	movs	r3, #7
 800096e:	723b      	strb	r3, [r7, #8]
  MPU_InitStruct.SubRegionDisable = 0x0;
 8000970:	2300      	movs	r3, #0
 8000972:	727b      	strb	r3, [r7, #9]
  MPU_InitStruct.TypeExtField = MPU_TEX_LEVEL0;
 8000974:	2300      	movs	r3, #0
 8000976:	72bb      	strb	r3, [r7, #10]
  MPU_InitStruct.AccessPermission = MPU_REGION_NO_ACCESS;
 8000978:	2300      	movs	r3, #0
 800097a:	72fb      	strb	r3, [r7, #11]
  MPU_InitStruct.DisableExec = MPU_INSTRUCTION_ACCESS_DISABLE;
 800097c:	2301      	movs	r3, #1
 800097e:	733b      	strb	r3, [r7, #12]
  MPU_InitStruct.IsShareable = MPU_ACCESS_NOT_SHAREABLE;
 8000980:	2300      	movs	r3, #0
 8000982:	737b      	strb	r3, [r7, #13]
  MPU_InitStruct.IsCacheable = MPU_ACCESS_CACHEABLE;
 8000984:	2301      	movs	r3, #1
 8000986:	73bb      	strb	r3, [r7, #14]
  MPU_InitStruct.IsBufferable = MPU_ACCESS_NOT_BUFFERABLE;
 8000988:	2300      	movs	r3, #0
 800098a:	73fb      	strb	r3, [r7, #15]

  HAL_MPU_ConfigRegion(&MPU_InitStruct);
 800098c:	463b      	mov	r3, r7
 800098e:	4618      	mov	r0, r3
 8000990:	f000 fbdc 	bl	800114c <HAL_MPU_ConfigRegion>
  /* Enables the MPU */
  HAL_MPU_Enable(MPU_HFNMI_PRIVDEF);
 8000994:	2006      	movs	r0, #6
 8000996:	f000 fbb9 	bl	800110c <HAL_MPU_Enable>

}
 800099a:	bf00      	nop
 800099c:	3710      	adds	r7, #16
 800099e:	46bd      	mov	sp, r7
 80009a0:	bd80      	pop	{r7, pc}

080009a2 <Error_Handler>:
/**
  * @brief  This function is executed in case of error occurrence.
  * @retval None
  */
void Error_Handler(void)
{
 80009a2:	b480      	push	{r7}
 80009a4:	af00      	add	r7, sp, #0
  \details Disables IRQ interrupts by setting the I-bit in the CPSR.
           Can only be executed in Privileged modes.
 */
__STATIC_FORCEINLINE void __disable_irq(void)
{
  __ASM volatile ("cpsid i" : : : "memory");
 80009a6:	b672      	cpsid	i
}
 80009a8:	bf00      	nop
  /* USER CODE BEGIN Error_Handler_Debug */
  /* User can add his own implementation to report the HAL error return state */
  __disable_irq();
  while (1)
 80009aa:	e7fe      	b.n	80009aa <Error_Handler+0x8>

080009ac <HAL_MspInit>:
/* USER CODE END 0 */
/**
  * Initializes the Global MSP.
  */
void HAL_MspInit(void)
{
 80009ac:	b480      	push	{r7}
 80009ae:	b083      	sub	sp, #12
 80009b0:	af00      	add	r7, sp, #0
  /* USER CODE BEGIN MspInit 0 */

  /* USER CODE END MspInit 0 */

  __HAL_RCC_SYSCFG_CLK_ENABLE();
 80009b2:	4b0a      	ldr	r3, [pc, #40]	; (80009dc <HAL_MspInit+0x30>)
 80009b4:	f8d3 30f4 	ldr.w	r3, [r3, #244]	; 0xf4
 80009b8:	4a08      	ldr	r2, [pc, #32]	; (80009dc <HAL_MspInit+0x30>)
 80009ba:	f043 0302 	orr.w	r3, r3, #2
 80009be:	f8c2 30f4 	str.w	r3, [r2, #244]	; 0xf4
 80009c2:	4b06      	ldr	r3, [pc, #24]	; (80009dc <HAL_MspInit+0x30>)
 80009c4:	f8d3 30f4 	ldr.w	r3, [r3, #244]	; 0xf4
 80009c8:	f003 0302 	and.w	r3, r3, #2
 80009cc:	607b      	str	r3, [r7, #4]
 80009ce:	687b      	ldr	r3, [r7, #4]
  /* System interrupt init*/

  /* USER CODE BEGIN MspInit 1 */

  /* USER CODE END MspInit 1 */
}
 80009d0:	bf00      	nop
 80009d2:	370c      	adds	r7, #12
 80009d4:	46bd      	mov	sp, r7
 80009d6:	f85d 7b04 	ldr.w	r7, [sp], #4
 80009da:	4770      	bx	lr
 80009dc:	58024400 	.word	0x58024400

080009e0 <NMI_Handler>:
/******************************************************************************/
/**
  * @brief This function handles Non maskable interrupt.
  */
void NMI_Handler(void)
{
 80009e0:	b480      	push	{r7}
 80009e2:	af00      	add	r7, sp, #0
  /* USER CODE BEGIN NonMaskableInt_IRQn 0 */

  /* USER CODE END NonMaskableInt_IRQn 0 */
  /* USER CODE BEGIN NonMaskableInt_IRQn 1 */
  while (1)
 80009e4:	e7fe      	b.n	80009e4 <NMI_Handler+0x4>

080009e6 <HardFault_Handler>:

/**
  * @brief This function handles Hard fault interrupt.
  */
void HardFault_Handler(void)
{
 80009e6:	b480      	push	{r7}
 80009e8:	af00      	add	r7, sp, #0
  /* USER CODE BEGIN HardFault_IRQn 0 */

  /* USER CODE END HardFault_IRQn 0 */
  while (1)
 80009ea:	e7fe      	b.n	80009ea <HardFault_Handler+0x4>

080009ec <MemManage_Handler>:

/**
  * @brief This function handles Memory management fault.
  */
void MemManage_Handler(void)
{
 80009ec:	b480      	push	{r7}
 80009ee:	af00      	add	r7, sp, #0
  /* USER CODE BEGIN MemoryManagement_IRQn 0 */

  /* USER CODE END MemoryManagement_IRQn 0 */
  while (1)
 80009f0:	e7fe      	b.n	80009f0 <MemManage_Handler+0x4>

080009f2 <BusFault_Handler>:

/**
  * @brief This function handles Pre-fetch fault, memory access fault.
  */
void BusFault_Handler(void)
{
 80009f2:	b480      	push	{r7}
 80009f4:	af00      	add	r7, sp, #0
  /* USER CODE BEGIN BusFault_IRQn 0 */

  /* USER CODE END BusFault_IRQn 0 */
  while (1)
 80009f6:	e7fe      	b.n	80009f6 <BusFault_Handler+0x4>

080009f8 <UsageFault_Handler>:

/**
  * @brief This function handles Undefined instruction or illegal state.
  */
void UsageFault_Handler(void)
{
 80009f8:	b480      	push	{r7}
 80009fa:	af00      	add	r7, sp, #0
  /* USER CODE BEGIN UsageFault_IRQn 0 */

  /* USER CODE END UsageFault_IRQn 0 */
  while (1)
 80009fc:	e7fe      	b.n	80009fc <UsageFault_Handler+0x4>

080009fe <SVC_Handler>:

/**
  * @brief This function handles System service call via SWI instruction.
  */
void SVC_Handler(void)
{
 80009fe:	b480      	push	{r7}
 8000a00:	af00      	add	r7, sp, #0

  /* USER CODE END SVCall_IRQn 0 */
  /* USER CODE BEGIN SVCall_IRQn 1 */

  /* USER CODE END SVCall_IRQn 1 */
}
 8000a02:	bf00      	nop
 8000a04:	46bd      	mov	sp, r7
 8000a06:	f85d 7b04 	ldr.w	r7, [sp], #4
 8000a0a:	4770      	bx	lr

08000a0c <DebugMon_Handler>:

/**
  * @brief This function handles Debug monitor.
  */
void DebugMon_Handler(void)
{
 8000a0c:	b480      	push	{r7}
 8000a0e:	af00      	add	r7, sp, #0

  /* USER CODE END DebugMonitor_IRQn 0 */
  /* USER CODE BEGIN DebugMonitor_IRQn 1 */

  /* USER CODE END DebugMonitor_IRQn 1 */
}
 8000a10:	bf00      	nop
 8000a12:	46bd      	mov	sp, r7
 8000a14:	f85d 7b04 	ldr.w	r7, [sp], #4
 8000a18:	4770      	bx	lr

08000a1a <PendSV_Handler>:

/**
  * @brief This function handles Pendable request for system service.
  */
void PendSV_Handler(void)
{
 8000a1a:	b480      	push	{r7}
 8000a1c:	af00      	add	r7, sp, #0

  /* USER CODE END PendSV_IRQn 0 */
  /* USER CODE BEGIN PendSV_IRQn 1 */

  /* USER CODE END PendSV_IRQn 1 */
}
 8000a1e:	bf00      	nop
 8000a20:	46bd      	mov	sp, r7
 8000a22:	f85d 7b04 	ldr.w	r7, [sp], #4
 8000a26:	4770      	bx	lr

08000a28 <SysTick_Handler>:

/**
  * @brief This function handles System tick timer.
  */
void SysTick_Handler(void)
{
 8000a28:	b580      	push	{r7, lr}
 8000a2a:	af00      	add	r7, sp, #0
  /* USER CODE BEGIN SysTick_IRQn 0 */

  /* USER CODE END SysTick_IRQn 0 */
  HAL_IncTick();
 8000a2c:	f000 f9f6 	bl	8000e1c <HAL_IncTick>
  /* USER CODE BEGIN SysTick_IRQn 1 */

  /* USER CODE END SysTick_IRQn 1 */
}
 8000a30:	bf00      	nop
 8000a32:	bd80      	pop	{r7, pc}

08000a34 <OTG_FS_IRQHandler>:

/**
  * @brief This function handles USB On The Go FS global interrupt.
  */
void OTG_FS_IRQHandler(void)
{
 8000a34:	b580      	push	{r7, lr}
 8000a36:	af00      	add	r7, sp, #0
  /* USER CODE BEGIN OTG_FS_IRQn 0 */

  /* USER CODE END OTG_FS_IRQn 0 */
  HAL_PCD_IRQHandler(&hpcd_USB_OTG_FS);
 8000a38:	4802      	ldr	r0, [pc, #8]	; (8000a44 <OTG_FS_IRQHandler+0x10>)
 8000a3a:	f000 fed4 	bl	80017e6 <HAL_PCD_IRQHandler>
  /* USER CODE BEGIN OTG_FS_IRQn 1 */

  /* USER CODE END OTG_FS_IRQn 1 */
}
 8000a3e:	bf00      	nop
 8000a40:	bd80      	pop	{r7, pc}
 8000a42:	bf00      	nop
 8000a44:	240007e0 	.word	0x240007e0

08000a48 <_getpid>:
void initialise_monitor_handles()
{
}

int _getpid(void)
{
 8000a48:	b480      	push	{r7}
 8000a4a:	af00      	add	r7, sp, #0
  return 1;
 8000a4c:	2301      	movs	r3, #1
}
 8000a4e:	4618      	mov	r0, r3
 8000a50:	46bd      	mov	sp, r7
 8000a52:	f85d 7b04 	ldr.w	r7, [sp], #4
 8000a56:	4770      	bx	lr

08000a58 <_kill>:

int _kill(int pid, int sig)
{
 8000a58:	b580      	push	{r7, lr}
 8000a5a:	b082      	sub	sp, #8
 8000a5c:	af00      	add	r7, sp, #0
 8000a5e:	6078      	str	r0, [r7, #4]
 8000a60:	6039      	str	r1, [r7, #0]
  (void)pid;
  (void)sig;
  errno = EINVAL;
 8000a62:	f009 fa57 	bl	8009f14 <__errno>
 8000a66:	4603      	mov	r3, r0
 8000a68:	2216      	movs	r2, #22
 8000a6a:	601a      	str	r2, [r3, #0]
  return -1;
 8000a6c:	f04f 33ff 	mov.w	r3, #4294967295
}
 8000a70:	4618      	mov	r0, r3
 8000a72:	3708      	adds	r7, #8
 8000a74:	46bd      	mov	sp, r7
 8000a76:	bd80      	pop	{r7, pc}

08000a78 <_exit>:

void _exit (int status)
{
 8000a78:	b580      	push	{r7, lr}
 8000a7a:	b082      	sub	sp, #8
 8000a7c:	af00      	add	r7, sp, #0
 8000a7e:	6078      	str	r0, [r7, #4]
  _kill(status, -1);
 8000a80:	f04f 31ff 	mov.w	r1, #4294967295
 8000a84:	6878      	ldr	r0, [r7, #4]
 8000a86:	f7ff ffe7 	bl	8000a58 <_kill>
  while (1) {}    /* Make sure we hang here */
 8000a8a:	e7fe      	b.n	8000a8a <_exit+0x12>

08000a8c <_read>:
}

__attribute__((weak)) int _read(int file, char *ptr, int len)
{
 8000a8c:	b580      	push	{r7, lr}
 8000a8e:	b086      	sub	sp, #24
 8000a90:	af00      	add	r7, sp, #0
 8000a92:	60f8      	str	r0, [r7, #12]
 8000a94:	60b9      	str	r1, [r7, #8]
 8000a96:	607a      	str	r2, [r7, #4]
  (void)file;
  int DataIdx;

  for (DataIdx = 0; DataIdx < len; DataIdx++)
 8000a98:	2300      	movs	r3, #0
 8000a9a:	617b      	str	r3, [r7, #20]
 8000a9c:	e00a      	b.n	8000ab4 <_read+0x28>
  {
    *ptr++ = __io_getchar();
 8000a9e:	f3af 8000 	nop.w
 8000aa2:	4601      	mov	r1, r0
 8000aa4:	68bb      	ldr	r3, [r7, #8]
 8000aa6:	1c5a      	adds	r2, r3, #1
 8000aa8:	60ba      	str	r2, [r7, #8]
 8000aaa:	b2ca      	uxtb	r2, r1
 8000aac:	701a      	strb	r2, [r3, #0]
  for (DataIdx = 0; DataIdx < len; DataIdx++)
 8000aae:	697b      	ldr	r3, [r7, #20]
 8000ab0:	3301      	adds	r3, #1
 8000ab2:	617b      	str	r3, [r7, #20]
 8000ab4:	697a      	ldr	r2, [r7, #20]
 8000ab6:	687b      	ldr	r3, [r7, #4]
 8000ab8:	429a      	cmp	r2, r3
 8000aba:	dbf0      	blt.n	8000a9e <_read+0x12>
  }

  return len;
 8000abc:	687b      	ldr	r3, [r7, #4]
}
 8000abe:	4618      	mov	r0, r3
 8000ac0:	3718      	adds	r7, #24
 8000ac2:	46bd      	mov	sp, r7
 8000ac4:	bd80      	pop	{r7, pc}

08000ac6 <_write>:

__attribute__((weak)) int _write(int file, char *ptr, int len)
{
 8000ac6:	b580      	push	{r7, lr}
 8000ac8:	b086      	sub	sp, #24
 8000aca:	af00      	add	r7, sp, #0
 8000acc:	60f8      	str	r0, [r7, #12]
 8000ace:	60b9      	str	r1, [r7, #8]
 8000ad0:	607a      	str	r2, [r7, #4]
  (void)file;
  int DataIdx;

  for (DataIdx = 0; DataIdx < len; DataIdx++)
 8000ad2:	2300      	movs	r3, #0
 8000ad4:	617b      	str	r3, [r7, #20]
 8000ad6:	e009      	b.n	8000aec <_write+0x26>
  {
    __io_putchar(*ptr++);
 8000ad8:	68bb      	ldr	r3, [r7, #8]
 8000ada:	1c5a      	adds	r2, r3, #1
 8000adc:	60ba      	str	r2, [r7, #8]
 8000ade:	781b      	ldrb	r3, [r3, #0]
 8000ae0:	4618      	mov	r0, r3
 8000ae2:	f3af 8000 	nop.w
  for (DataIdx = 0; DataIdx < len; DataIdx++)
 8000ae6:	697b      	ldr	r3, [r7, #20]
 8000ae8:	3301      	adds	r3, #1
 8000aea:	617b      	str	r3, [r7, #20]
 8000aec:	697a      	ldr	r2, [r7, #20]
 8000aee:	687b      	ldr	r3, [r7, #4]
 8000af0:	429a      	cmp	r2, r3
 8000af2:	dbf1      	blt.n	8000ad8 <_write+0x12>
  }
  return len;
 8000af4:	687b      	ldr	r3, [r7, #4]
}
 8000af6:	4618      	mov	r0, r3
 8000af8:	3718      	adds	r7, #24
 8000afa:	46bd      	mov	sp, r7
 8000afc:	bd80      	pop	{r7, pc}

08000afe <_close>:

int _close(int file)
{
 8000afe:	b480      	push	{r7}
 8000b00:	b083      	sub	sp, #12
 8000b02:	af00      	add	r7, sp, #0
 8000b04:	6078      	str	r0, [r7, #4]
  (void)file;
  return -1;
 8000b06:	f04f 33ff 	mov.w	r3, #4294967295
}
 8000b0a:	4618      	mov	r0, r3
 8000b0c:	370c      	adds	r7, #12
 8000b0e:	46bd      	mov	sp, r7
 8000b10:	f85d 7b04 	ldr.w	r7, [sp], #4
 8000b14:	4770      	bx	lr

08000b16 <_fstat>:


int _fstat(int file, struct stat *st)
{
 8000b16:	b480      	push	{r7}
 8000b18:	b083      	sub	sp, #12
 8000b1a:	af00      	add	r7, sp, #0
 8000b1c:	6078      	str	r0, [r7, #4]
 8000b1e:	6039      	str	r1, [r7, #0]
  (void)file;
  st->st_mode = S_IFCHR;
 8000b20:	683b      	ldr	r3, [r7, #0]
 8000b22:	f44f 5200 	mov.w	r2, #8192	; 0x2000
 8000b26:	605a      	str	r2, [r3, #4]
  return 0;
 8000b28:	2300      	movs	r3, #0
}
 8000b2a:	4618      	mov	r0, r3
 8000b2c:	370c      	adds	r7, #12
 8000b2e:	46bd      	mov	sp, r7
 8000b30:	f85d 7b04 	ldr.w	r7, [sp], #4
 8000b34:	4770      	bx	lr

08000b36 <_isatty>:

int _isatty(int file)
{
 8000b36:	b480      	push	{r7}
 8000b38:	b083      	sub	sp, #12
 8000b3a:	af00      	add	r7, sp, #0
 8000b3c:	6078      	str	r0, [r7, #4]
  (void)file;
  return 1;
 8000b3e:	2301      	movs	r3, #1
}
 8000b40:	4618      	mov	r0, r3
 8000b42:	370c      	adds	r7, #12
 8000b44:	46bd      	mov	sp, r7
 8000b46:	f85d 7b04 	ldr.w	r7, [sp], #4
 8000b4a:	4770      	bx	lr

08000b4c <_lseek>:

int _lseek(int file, int ptr, int dir)
{
 8000b4c:	b480      	push	{r7}
 8000b4e:	b085      	sub	sp, #20
 8000b50:	af00      	add	r7, sp, #0
 8000b52:	60f8      	str	r0, [r7, #12]
 8000b54:	60b9      	str	r1, [r7, #8]
 8000b56:	607a      	str	r2, [r7, #4]
  (void)file;
  (void)ptr;
  (void)dir;
  return 0;
 8000b58:	2300      	movs	r3, #0
}
 8000b5a:	4618      	mov	r0, r3
 8000b5c:	3714      	adds	r7, #20
 8000b5e:	46bd      	mov	sp, r7
 8000b60:	f85d 7b04 	ldr.w	r7, [sp], #4
 8000b64:	4770      	bx	lr
	...

08000b68 <_sbrk>:
 *
 * @param incr Memory size
 * @return Pointer to allocated memory
 */
void *_sbrk(ptrdiff_t incr)
{
 8000b68:	b580      	push	{r7, lr}
 8000b6a:	b086      	sub	sp, #24
 8000b6c:	af00      	add	r7, sp, #0
 8000b6e:	6078      	str	r0, [r7, #4]
  extern uint8_t _end; /* Symbol defined in the linker script */
  extern uint8_t _estack; /* Symbol defined in the linker script */
  extern uint32_t _Min_Stack_Size; /* Symbol defined in the linker script */
  const uint32_t stack_limit = (uint32_t)&_estack - (uint32_t)&_Min_Stack_Size;
 8000b70:	4a14      	ldr	r2, [pc, #80]	; (8000bc4 <_sbrk+0x5c>)
 8000b72:	4b15      	ldr	r3, [pc, #84]	; (8000bc8 <_sbrk+0x60>)
 8000b74:	1ad3      	subs	r3, r2, r3
 8000b76:	617b      	str	r3, [r7, #20]
  const uint8_t *max_heap = (uint8_t *)stack_limit;
 8000b78:	697b      	ldr	r3, [r7, #20]
 8000b7a:	613b      	str	r3, [r7, #16]
  uint8_t *prev_heap_end;

  /* Initialize heap end at first call */
  if (NULL == __sbrk_heap_end)
 8000b7c:	4b13      	ldr	r3, [pc, #76]	; (8000bcc <_sbrk+0x64>)
 8000b7e:	681b      	ldr	r3, [r3, #0]
 8000b80:	2b00      	cmp	r3, #0
 8000b82:	d102      	bne.n	8000b8a <_sbrk+0x22>
  {
    __sbrk_heap_end = &_end;
 8000b84:	4b11      	ldr	r3, [pc, #68]	; (8000bcc <_sbrk+0x64>)
 8000b86:	4a12      	ldr	r2, [pc, #72]	; (8000bd0 <_sbrk+0x68>)
 8000b88:	601a      	str	r2, [r3, #0]
  }

  /* Protect heap from growing into the reserved MSP stack */
  if (__sbrk_heap_end + incr > max_heap)
 8000b8a:	4b10      	ldr	r3, [pc, #64]	; (8000bcc <_sbrk+0x64>)
 8000b8c:	681a      	ldr	r2, [r3, #0]
 8000b8e:	687b      	ldr	r3, [r7, #4]
 8000b90:	4413      	add	r3, r2
 8000b92:	693a      	ldr	r2, [r7, #16]
 8000b94:	429a      	cmp	r2, r3
 8000b96:	d207      	bcs.n	8000ba8 <_sbrk+0x40>
  {
    errno = ENOMEM;
 8000b98:	f009 f9bc 	bl	8009f14 <__errno>
 8000b9c:	4603      	mov	r3, r0
 8000b9e:	220c      	movs	r2, #12
 8000ba0:	601a      	str	r2, [r3, #0]
    return (void *)-1;
 8000ba2:	f04f 33ff 	mov.w	r3, #4294967295
 8000ba6:	e009      	b.n	8000bbc <_sbrk+0x54>
  }

  prev_heap_end = __sbrk_heap_end;
 8000ba8:	4b08      	ldr	r3, [pc, #32]	; (8000bcc <_sbrk+0x64>)
 8000baa:	681b      	ldr	r3, [r3, #0]
 8000bac:	60fb      	str	r3, [r7, #12]
  __sbrk_heap_end += incr;
 8000bae:	4b07      	ldr	r3, [pc, #28]	; (8000bcc <_sbrk+0x64>)
 8000bb0:	681a      	ldr	r2, [r3, #0]
 8000bb2:	687b      	ldr	r3, [r7, #4]
 8000bb4:	4413      	add	r3, r2
 8000bb6:	4a05      	ldr	r2, [pc, #20]	; (8000bcc <_sbrk+0x64>)
 8000bb8:	6013      	str	r3, [r2, #0]

  return (void *)prev_heap_end;
 8000bba:	68fb      	ldr	r3, [r7, #12]
}
 8000bbc:	4618      	mov	r0, r3
 8000bbe:	3718      	adds	r7, #24
 8000bc0:	46bd      	mov	sp, r7
 8000bc2:	bd80      	pop	{r7, pc}
 8000bc4:	24080000 	.word	0x24080000
 8000bc8:	00000400 	.word	0x00000400
 8000bcc:	240002f8 	.word	0x240002f8
 8000bd0:	24000e90 	.word	0x24000e90

08000bd4 <SystemInit>:
  *         configuration.
  * @param  None
  * @retval None
  */
void SystemInit (void)
{
 8000bd4:	b480      	push	{r7}
 8000bd6:	af00      	add	r7, sp, #0
 __IO uint32_t tmpreg;
#endif /* DATA_IN_D2_SRAM */

  /* FPU settings ------------------------------------------------------------*/
  #if (__FPU_PRESENT == 1) && (__FPU_USED == 1)
    SCB->CPACR |= ((3UL << (10*2))|(3UL << (11*2)));  /* set CP10 and CP11 Full Access */
 8000bd8:	4b37      	ldr	r3, [pc, #220]	; (8000cb8 <SystemInit+0xe4>)
 8000bda:	f8d3 3088 	ldr.w	r3, [r3, #136]	; 0x88
 8000bde:	4a36      	ldr	r2, [pc, #216]	; (8000cb8 <SystemInit+0xe4>)
 8000be0:	f443 0370 	orr.w	r3, r3, #15728640	; 0xf00000
 8000be4:	f8c2 3088 	str.w	r3, [r2, #136]	; 0x88
  #endif
  /* Reset the RCC clock configuration to the default reset state ------------*/

   /* Increasing the CPU frequency */
  if(FLASH_LATENCY_DEFAULT  > (READ_BIT((FLASH->ACR), FLASH_ACR_LATENCY)))
 8000be8:	4b34      	ldr	r3, [pc, #208]	; (8000cbc <SystemInit+0xe8>)
 8000bea:	681b      	ldr	r3, [r3, #0]
 8000bec:	f003 030f 	and.w	r3, r3, #15
 8000bf0:	2b06      	cmp	r3, #6
 8000bf2:	d807      	bhi.n	8000c04 <SystemInit+0x30>
  {
    /* Program the new number of wait states to the LATENCY bits in the FLASH_ACR register */
    MODIFY_REG(FLASH->ACR, FLASH_ACR_LATENCY, (uint32_t)(FLASH_LATENCY_DEFAULT));
 8000bf4:	4b31      	ldr	r3, [pc, #196]	; (8000cbc <SystemInit+0xe8>)
 8000bf6:	681b      	ldr	r3, [r3, #0]
 8000bf8:	f023 030f 	bic.w	r3, r3, #15
 8000bfc:	4a2f      	ldr	r2, [pc, #188]	; (8000cbc <SystemInit+0xe8>)
 8000bfe:	f043 0307 	orr.w	r3, r3, #7
 8000c02:	6013      	str	r3, [r2, #0]
  }

  /* Set HSION bit */
  RCC->CR |= RCC_CR_HSION;
 8000c04:	4b2e      	ldr	r3, [pc, #184]	; (8000cc0 <SystemInit+0xec>)
 8000c06:	681b      	ldr	r3, [r3, #0]
 8000c08:	4a2d      	ldr	r2, [pc, #180]	; (8000cc0 <SystemInit+0xec>)
 8000c0a:	f043 0301 	orr.w	r3, r3, #1
 8000c0e:	6013      	str	r3, [r2, #0]

  /* Reset CFGR register */
  RCC->CFGR = 0x00000000;
 8000c10:	4b2b      	ldr	r3, [pc, #172]	; (8000cc0 <SystemInit+0xec>)
 8000c12:	2200      	movs	r2, #0
 8000c14:	611a      	str	r2, [r3, #16]

  /* Reset HSEON, HSECSSON, CSION, HSI48ON, CSIKERON, PLL1ON, PLL2ON and PLL3ON bits */
  RCC->CR &= 0xEAF6ED7FU;
 8000c16:	4b2a      	ldr	r3, [pc, #168]	; (8000cc0 <SystemInit+0xec>)
 8000c18:	681a      	ldr	r2, [r3, #0]
 8000c1a:	4929      	ldr	r1, [pc, #164]	; (8000cc0 <SystemInit+0xec>)
 8000c1c:	4b29      	ldr	r3, [pc, #164]	; (8000cc4 <SystemInit+0xf0>)
 8000c1e:	4013      	ands	r3, r2
 8000c20:	600b      	str	r3, [r1, #0]

   /* Decreasing the number of wait states because of lower CPU frequency */
  if(FLASH_LATENCY_DEFAULT  < (READ_BIT((FLASH->ACR), FLASH_ACR_LATENCY)))
 8000c22:	4b26      	ldr	r3, [pc, #152]	; (8000cbc <SystemInit+0xe8>)
 8000c24:	681b      	ldr	r3, [r3, #0]
 8000c26:	f003 0308 	and.w	r3, r3, #8
 8000c2a:	2b00      	cmp	r3, #0
 8000c2c:	d007      	beq.n	8000c3e <SystemInit+0x6a>
  {
    /* Program the new number of wait states to the LATENCY bits in the FLASH_ACR register */
    MODIFY_REG(FLASH->ACR, FLASH_ACR_LATENCY, (uint32_t)(FLASH_LATENCY_DEFAULT));
 8000c2e:	4b23      	ldr	r3, [pc, #140]	; (8000cbc <SystemInit+0xe8>)
 8000c30:	681b      	ldr	r3, [r3, #0]
 8000c32:	f023 030f 	bic.w	r3, r3, #15
 8000c36:	4a21      	ldr	r2, [pc, #132]	; (8000cbc <SystemInit+0xe8>)
 8000c38:	f043 0307 	orr.w	r3, r3, #7
 8000c3c:	6013      	str	r3, [r2, #0]
  }

#if defined(D3_SRAM_BASE)
  /* Reset D1CFGR register */
  RCC->D1CFGR = 0x00000000;
 8000c3e:	4b20      	ldr	r3, [pc, #128]	; (8000cc0 <SystemInit+0xec>)
 8000c40:	2200      	movs	r2, #0
 8000c42:	619a      	str	r2, [r3, #24]

  /* Reset D2CFGR register */
  RCC->D2CFGR = 0x00000000;
 8000c44:	4b1e      	ldr	r3, [pc, #120]	; (8000cc0 <SystemInit+0xec>)
 8000c46:	2200      	movs	r2, #0
 8000c48:	61da      	str	r2, [r3, #28]

  /* Reset D3CFGR register */
  RCC->D3CFGR = 0x00000000;
 8000c4a:	4b1d      	ldr	r3, [pc, #116]	; (8000cc0 <SystemInit+0xec>)
 8000c4c:	2200      	movs	r2, #0
 8000c4e:	621a      	str	r2, [r3, #32]

  /* Reset SRDCFGR register */
  RCC->SRDCFGR = 0x00000000;
#endif
  /* Reset PLLCKSELR register */
  RCC->PLLCKSELR = 0x02020200;
 8000c50:	4b1b      	ldr	r3, [pc, #108]	; (8000cc0 <SystemInit+0xec>)
 8000c52:	4a1d      	ldr	r2, [pc, #116]	; (8000cc8 <SystemInit+0xf4>)
 8000c54:	629a      	str	r2, [r3, #40]	; 0x28

  /* Reset PLLCFGR register */
  RCC->PLLCFGR = 0x01FF0000;
 8000c56:	4b1a      	ldr	r3, [pc, #104]	; (8000cc0 <SystemInit+0xec>)
 8000c58:	4a1c      	ldr	r2, [pc, #112]	; (8000ccc <SystemInit+0xf8>)
 8000c5a:	62da      	str	r2, [r3, #44]	; 0x2c
  /* Reset PLL1DIVR register */
  RCC->PLL1DIVR = 0x01010280;
 8000c5c:	4b18      	ldr	r3, [pc, #96]	; (8000cc0 <SystemInit+0xec>)
 8000c5e:	4a1c      	ldr	r2, [pc, #112]	; (8000cd0 <SystemInit+0xfc>)
 8000c60:	631a      	str	r2, [r3, #48]	; 0x30
  /* Reset PLL1FRACR register */
  RCC->PLL1FRACR = 0x00000000;
 8000c62:	4b17      	ldr	r3, [pc, #92]	; (8000cc0 <SystemInit+0xec>)
 8000c64:	2200      	movs	r2, #0
 8000c66:	635a      	str	r2, [r3, #52]	; 0x34

  /* Reset PLL2DIVR register */
  RCC->PLL2DIVR = 0x01010280;
 8000c68:	4b15      	ldr	r3, [pc, #84]	; (8000cc0 <SystemInit+0xec>)
 8000c6a:	4a19      	ldr	r2, [pc, #100]	; (8000cd0 <SystemInit+0xfc>)
 8000c6c:	639a      	str	r2, [r3, #56]	; 0x38

  /* Reset PLL2FRACR register */

  RCC->PLL2FRACR = 0x00000000;
 8000c6e:	4b14      	ldr	r3, [pc, #80]	; (8000cc0 <SystemInit+0xec>)
 8000c70:	2200      	movs	r2, #0
 8000c72:	63da      	str	r2, [r3, #60]	; 0x3c
  /* Reset PLL3DIVR register */
  RCC->PLL3DIVR = 0x01010280;
 8000c74:	4b12      	ldr	r3, [pc, #72]	; (8000cc0 <SystemInit+0xec>)
 8000c76:	4a16      	ldr	r2, [pc, #88]	; (8000cd0 <SystemInit+0xfc>)
 8000c78:	641a      	str	r2, [r3, #64]	; 0x40

  /* Reset PLL3FRACR register */
  RCC->PLL3FRACR = 0x00000000;
 8000c7a:	4b11      	ldr	r3, [pc, #68]	; (8000cc0 <SystemInit+0xec>)
 8000c7c:	2200      	movs	r2, #0
 8000c7e:	645a      	str	r2, [r3, #68]	; 0x44

  /* Reset HSEBYP bit */
  RCC->CR &= 0xFFFBFFFFU;
 8000c80:	4b0f      	ldr	r3, [pc, #60]	; (8000cc0 <SystemInit+0xec>)
 8000c82:	681b      	ldr	r3, [r3, #0]
 8000c84:	4a0e      	ldr	r2, [pc, #56]	; (8000cc0 <SystemInit+0xec>)
 8000c86:	f423 2380 	bic.w	r3, r3, #262144	; 0x40000
 8000c8a:	6013      	str	r3, [r2, #0]

  /* Disable all interrupts */
  RCC->CIER = 0x00000000;
 8000c8c:	4b0c      	ldr	r3, [pc, #48]	; (8000cc0 <SystemInit+0xec>)
 8000c8e:	2200      	movs	r2, #0
 8000c90:	661a      	str	r2, [r3, #96]	; 0x60

#if (STM32H7_DEV_ID == 0x450UL)
  /* dual core CM7 or single core line */
  if((DBGMCU->IDCODE & 0xFFFF0000U) < 0x20000000U)
 8000c92:	4b10      	ldr	r3, [pc, #64]	; (8000cd4 <SystemInit+0x100>)
 8000c94:	681a      	ldr	r2, [r3, #0]
 8000c96:	4b10      	ldr	r3, [pc, #64]	; (8000cd8 <SystemInit+0x104>)
 8000c98:	4013      	ands	r3, r2
 8000c9a:	f1b3 5f00 	cmp.w	r3, #536870912	; 0x20000000
 8000c9e:	d202      	bcs.n	8000ca6 <SystemInit+0xd2>
  {
    /* if stm32h7 revY*/
    /* Change  the switch matrix read issuing capability to 1 for the AXI SRAM target (Target 7) */
    *((__IO uint32_t*)0x51008108) = 0x000000001U;
 8000ca0:	4b0e      	ldr	r3, [pc, #56]	; (8000cdc <SystemInit+0x108>)
 8000ca2:	2201      	movs	r2, #1
 8000ca4:	601a      	str	r2, [r3, #0]
  /*
   * Disable the FMC bank1 (enabled after reset).
   * This, prevents CPU speculation access on this bank which blocks the use of FMC during
   * 24us. During this time the others FMC master (such as LTDC) cannot use it!
   */
  FMC_Bank1_R->BTCR[0] = 0x000030D2;
 8000ca6:	4b0e      	ldr	r3, [pc, #56]	; (8000ce0 <SystemInit+0x10c>)
 8000ca8:	f243 02d2 	movw	r2, #12498	; 0x30d2
 8000cac:	601a      	str	r2, [r3, #0]
#if defined(USER_VECT_TAB_ADDRESS)
  SCB->VTOR = VECT_TAB_BASE_ADDRESS | VECT_TAB_OFFSET; /* Vector Table Relocation in Internal D1 AXI-RAM or in Internal FLASH */
#endif /* USER_VECT_TAB_ADDRESS */

#endif /*DUAL_CORE && CORE_CM4*/
}
 8000cae:	bf00      	nop
 8000cb0:	46bd      	mov	sp, r7
 8000cb2:	f85d 7b04 	ldr.w	r7, [sp], #4
 8000cb6:	4770      	bx	lr
 8000cb8:	e000ed00 	.word	0xe000ed00
 8000cbc:	52002000 	.word	0x52002000
 8000cc0:	58024400 	.word	0x58024400
 8000cc4:	eaf6ed7f 	.word	0xeaf6ed7f
 8000cc8:	02020200 	.word	0x02020200
 8000ccc:	01ff0000 	.word	0x01ff0000
 8000cd0:	01010280 	.word	0x01010280
 8000cd4:	5c001000 	.word	0x5c001000
 8000cd8:	ffff0000 	.word	0xffff0000
 8000cdc:	51008108 	.word	0x51008108
 8000ce0:	52004000 	.word	0x52004000

08000ce4 <Reset_Handler>:

    .section  .text.Reset_Handler
  .weak  Reset_Handler
  .type  Reset_Handler, %function
Reset_Handler:
  ldr   sp, =_estack      /* set stack pointer */
 8000ce4:	f8df d034 	ldr.w	sp, [pc, #52]	; 8000d1c <LoopFillZerobss+0xe>

/* Call the clock system initialization function.*/
  bl  SystemInit
 8000ce8:	f7ff ff74 	bl	8000bd4 <SystemInit>

/* Copy the data segment initializers from flash to SRAM */
  ldr r0, =_sdata
 8000cec:	480c      	ldr	r0, [pc, #48]	; (8000d20 <LoopFillZerobss+0x12>)
  ldr r1, =_edata
 8000cee:	490d      	ldr	r1, [pc, #52]	; (8000d24 <LoopFillZerobss+0x16>)
  ldr r2, =_sidata
 8000cf0:	4a0d      	ldr	r2, [pc, #52]	; (8000d28 <LoopFillZerobss+0x1a>)
  movs r3, #0
 8000cf2:	2300      	movs	r3, #0
  b LoopCopyDataInit
 8000cf4:	e002      	b.n	8000cfc <LoopCopyDataInit>

08000cf6 <CopyDataInit>:

CopyDataInit:
  ldr r4, [r2, r3]
 8000cf6:	58d4      	ldr	r4, [r2, r3]
  str r4, [r0, r3]
 8000cf8:	50c4      	str	r4, [r0, r3]
  adds r3, r3, #4
 8000cfa:	3304      	adds	r3, #4

08000cfc <LoopCopyDataInit>:

LoopCopyDataInit:
  adds r4, r0, r3
 8000cfc:	18c4      	adds	r4, r0, r3
  cmp r4, r1
 8000cfe:	428c      	cmp	r4, r1
  bcc CopyDataInit
 8000d00:	d3f9      	bcc.n	8000cf6 <CopyDataInit>
/* Zero fill the bss segment. */
  ldr r2, =_sbss
 8000d02:	4a0a      	ldr	r2, [pc, #40]	; (8000d2c <LoopFillZerobss+0x1e>)
  ldr r4, =_ebss
 8000d04:	4c0a      	ldr	r4, [pc, #40]	; (8000d30 <LoopFillZerobss+0x22>)
  movs r3, #0
 8000d06:	2300      	movs	r3, #0
  b LoopFillZerobss
 8000d08:	e001      	b.n	8000d0e <LoopFillZerobss>

08000d0a <FillZerobss>:

FillZerobss:
  str  r3, [r2]
 8000d0a:	6013      	str	r3, [r2, #0]
  adds r2, r2, #4
 8000d0c:	3204      	adds	r2, #4

08000d0e <LoopFillZerobss>:

LoopFillZerobss:
  cmp r2, r4
 8000d0e:	42a2      	cmp	r2, r4
  bcc FillZerobss
 8000d10:	d3fb      	bcc.n	8000d0a <FillZerobss>

/* Call static constructors */
    bl __libc_init_array
 8000d12:	f009 f905 	bl	8009f20 <__libc_init_array>
/* Call the application's entry point.*/
  bl  main
 8000d16:	f7ff fd59 	bl	80007cc <main>
  bx  lr
 8000d1a:	4770      	bx	lr
  ldr   sp, =_estack      /* set stack pointer */
 8000d1c:	24080000 	.word	0x24080000
  ldr r0, =_sdata
 8000d20:	24000000 	.word	0x24000000
  ldr r1, =_edata
 8000d24:	240002dc 	.word	0x240002dc
  ldr r2, =_sidata
 8000d28:	0800da08 	.word	0x0800da08
  ldr r2, =_sbss
 8000d2c:	240002dc 	.word	0x240002dc
  ldr r4, =_ebss
 8000d30:	24000e90 	.word	0x24000e90

08000d34 <ADC3_IRQHandler>:
 * @retval None
*/
    .section  .text.Default_Handler,"ax",%progbits
Default_Handler:
Infinite_Loop:
  b  Infinite_Loop
 8000d34:	e7fe      	b.n	8000d34 <ADC3_IRQHandler>
	...

08000d38 <HAL_Init>:
  *         need to ensure that the SysTick time base is always set to 1 millisecond
  *         to have correct HAL operation.
  * @retval HAL status
  */
HAL_StatusTypeDef HAL_Init(void)
{
 8000d38:	b580      	push	{r7, lr}
 8000d3a:	b082      	sub	sp, #8
 8000d3c:	af00      	add	r7, sp, #0
   __HAL_ART_CONFIG_BASE_ADDRESS(0x08100000UL);  /* Configure the Cortex-M4 ART Base address to the Flash Bank 2 : */
   __HAL_ART_ENABLE();                           /* Enable the Cortex-M4 ART */
#endif /* DUAL_CORE &&  CORE_CM4 */

  /* Set Interrupt Group Priority */
  HAL_NVIC_SetPriorityGrouping(NVIC_PRIORITYGROUP_4);
 8000d3e:	2003      	movs	r0, #3
 8000d40:	f000 f98c 	bl	800105c <HAL_NVIC_SetPriorityGrouping>

  /* Update the SystemCoreClock global variable */
#if defined(RCC_D1CFGR_D1CPRE)
  common_system_clock = HAL_RCC_GetSysClockFreq() >> ((D1CorePrescTable[(RCC->D1CFGR & RCC_D1CFGR_D1CPRE)>> RCC_D1CFGR_D1CPRE_Pos]) & 0x1FU);
 8000d44:	f002 fd0a 	bl	800375c <HAL_RCC_GetSysClockFreq>
 8000d48:	4602      	mov	r2, r0
 8000d4a:	4b15      	ldr	r3, [pc, #84]	; (8000da0 <HAL_Init+0x68>)
 8000d4c:	699b      	ldr	r3, [r3, #24]
 8000d4e:	0a1b      	lsrs	r3, r3, #8
 8000d50:	f003 030f 	and.w	r3, r3, #15
 8000d54:	4913      	ldr	r1, [pc, #76]	; (8000da4 <HAL_Init+0x6c>)
 8000d56:	5ccb      	ldrb	r3, [r1, r3]
 8000d58:	f003 031f 	and.w	r3, r3, #31
 8000d5c:	fa22 f303 	lsr.w	r3, r2, r3
 8000d60:	607b      	str	r3, [r7, #4]
  common_system_clock = HAL_RCC_GetSysClockFreq() >> ((D1CorePrescTable[(RCC->CDCFGR1 & RCC_CDCFGR1_CDCPRE)>> RCC_CDCFGR1_CDCPRE_Pos]) & 0x1FU);
#endif

  /* Update the SystemD2Clock global variable */
#if defined(RCC_D1CFGR_HPRE)
  SystemD2Clock = (common_system_clock >> ((D1CorePrescTable[(RCC->D1CFGR & RCC_D1CFGR_HPRE)>> RCC_D1CFGR_HPRE_Pos]) & 0x1FU));
 8000d62:	4b0f      	ldr	r3, [pc, #60]	; (8000da0 <HAL_Init+0x68>)
 8000d64:	699b      	ldr	r3, [r3, #24]
 8000d66:	f003 030f 	and.w	r3, r3, #15
 8000d6a:	4a0e      	ldr	r2, [pc, #56]	; (8000da4 <HAL_Init+0x6c>)
 8000d6c:	5cd3      	ldrb	r3, [r2, r3]
 8000d6e:	f003 031f 	and.w	r3, r3, #31
 8000d72:	687a      	ldr	r2, [r7, #4]
 8000d74:	fa22 f303 	lsr.w	r3, r2, r3
 8000d78:	4a0b      	ldr	r2, [pc, #44]	; (8000da8 <HAL_Init+0x70>)
 8000d7a:	6013      	str	r3, [r2, #0]
#endif

#if defined(DUAL_CORE) && defined(CORE_CM4)
  SystemCoreClock = SystemD2Clock;
#else
  SystemCoreClock = common_system_clock;
 8000d7c:	4a0b      	ldr	r2, [pc, #44]	; (8000dac <HAL_Init+0x74>)
 8000d7e:	687b      	ldr	r3, [r7, #4]
 8000d80:	6013      	str	r3, [r2, #0]
#endif /* DUAL_CORE && CORE_CM4 */

  /* Use systick as time base source and configure 1ms tick (default clock after Reset is HSI) */
  if(HAL_InitTick(TICK_INT_PRIORITY) != HAL_OK)
 8000d82:	200f      	movs	r0, #15
 8000d84:	f000 f814 	bl	8000db0 <HAL_InitTick>
 8000d88:	4603      	mov	r3, r0
 8000d8a:	2b00      	cmp	r3, #0
 8000d8c:	d001      	beq.n	8000d92 <HAL_Init+0x5a>
  {
    return HAL_ERROR;
 8000d8e:	2301      	movs	r3, #1
 8000d90:	e002      	b.n	8000d98 <HAL_Init+0x60>
  }

  /* Init the low level hardware */
  HAL_MspInit();
 8000d92:	f7ff fe0b 	bl	80009ac <HAL_MspInit>

  /* Return function status */
  return HAL_OK;
 8000d96:	2300      	movs	r3, #0
}
 8000d98:	4618      	mov	r0, r3
 8000d9a:	3708      	adds	r7, #8
 8000d9c:	46bd      	mov	sp, r7
 8000d9e:	bd80      	pop	{r7, pc}
 8000da0:	58024400 	.word	0x58024400
 8000da4:	0800d5c8 	.word	0x0800d5c8
 8000da8:	24000004 	.word	0x24000004
 8000dac:	24000000 	.word	0x24000000

08000db0 <HAL_InitTick>:
  *       implementation  in user file.
  * @param TickPriority: Tick interrupt priority.
  * @retval HAL status
  */
__weak HAL_StatusTypeDef HAL_InitTick(uint32_t TickPriority)
{
 8000db0:	b580      	push	{r7, lr}
 8000db2:	b082      	sub	sp, #8
 8000db4:	af00      	add	r7, sp, #0
 8000db6:	6078      	str	r0, [r7, #4]
  /* Check uwTickFreq for MisraC 2012 (even if uwTickFreq is a enum type that don't take the value zero)*/
  if((uint32_t)uwTickFreq == 0UL)
 8000db8:	4b15      	ldr	r3, [pc, #84]	; (8000e10 <HAL_InitTick+0x60>)
 8000dba:	781b      	ldrb	r3, [r3, #0]
 8000dbc:	2b00      	cmp	r3, #0
 8000dbe:	d101      	bne.n	8000dc4 <HAL_InitTick+0x14>
  {
    return HAL_ERROR;
 8000dc0:	2301      	movs	r3, #1
 8000dc2:	e021      	b.n	8000e08 <HAL_InitTick+0x58>
  }

    /* Configure the SysTick to have interrupt in 1ms time basis*/
    if (HAL_SYSTICK_Config(SystemCoreClock / (1000UL / (uint32_t)uwTickFreq)) > 0U)
 8000dc4:	4b13      	ldr	r3, [pc, #76]	; (8000e14 <HAL_InitTick+0x64>)
 8000dc6:	681a      	ldr	r2, [r3, #0]
 8000dc8:	4b11      	ldr	r3, [pc, #68]	; (8000e10 <HAL_InitTick+0x60>)
 8000dca:	781b      	ldrb	r3, [r3, #0]
 8000dcc:	4619      	mov	r1, r3
 8000dce:	f44f 737a 	mov.w	r3, #1000	; 0x3e8
 8000dd2:	fbb3 f3f1 	udiv	r3, r3, r1
 8000dd6:	fbb2 f3f3 	udiv	r3, r2, r3
 8000dda:	4618      	mov	r0, r3
 8000ddc:	f000 f971 	bl	80010c2 <HAL_SYSTICK_Config>
 8000de0:	4603      	mov	r3, r0
 8000de2:	2b00      	cmp	r3, #0
 8000de4:	d001      	beq.n	8000dea <HAL_InitTick+0x3a>
    {
      return HAL_ERROR;
 8000de6:	2301      	movs	r3, #1
 8000de8:	e00e      	b.n	8000e08 <HAL_InitTick+0x58>
    }

  /* Configure the SysTick IRQ priority */
  if (TickPriority < (1UL << __NVIC_PRIO_BITS))
 8000dea:	687b      	ldr	r3, [r7, #4]
 8000dec:	2b0f      	cmp	r3, #15
 8000dee:	d80a      	bhi.n	8000e06 <HAL_InitTick+0x56>
  {
    HAL_NVIC_SetPriority(SysTick_IRQn, TickPriority, 0U);
 8000df0:	2200      	movs	r2, #0
 8000df2:	6879      	ldr	r1, [r7, #4]
 8000df4:	f04f 30ff 	mov.w	r0, #4294967295
 8000df8:	f000 f93b 	bl	8001072 <HAL_NVIC_SetPriority>
    uwTickPrio = TickPriority;
 8000dfc:	4a06      	ldr	r2, [pc, #24]	; (8000e18 <HAL_InitTick+0x68>)
 8000dfe:	687b      	ldr	r3, [r7, #4]
 8000e00:	6013      	str	r3, [r2, #0]
  {
    return HAL_ERROR;
  }

  /* Return function status */
  return HAL_OK;
 8000e02:	2300      	movs	r3, #0
 8000e04:	e000      	b.n	8000e08 <HAL_InitTick+0x58>
    return HAL_ERROR;
 8000e06:	2301      	movs	r3, #1
}
 8000e08:	4618      	mov	r0, r3
 8000e0a:	3708      	adds	r7, #8
 8000e0c:	46bd      	mov	sp, r7
 8000e0e:	bd80      	pop	{r7, pc}
 8000e10:	2400000c 	.word	0x2400000c
 8000e14:	24000000 	.word	0x24000000
 8000e18:	24000008 	.word	0x24000008

08000e1c <HAL_IncTick>:
 * @note This function is declared as __weak to be overwritten in case of other
  *      implementations in user file.
  * @retval None
  */
__weak void HAL_IncTick(void)
{
 8000e1c:	b480      	push	{r7}
 8000e1e:	af00      	add	r7, sp, #0
  uwTick += (uint32_t)uwTickFreq;
 8000e20:	4b06      	ldr	r3, [pc, #24]	; (8000e3c <HAL_IncTick+0x20>)
 8000e22:	781b      	ldrb	r3, [r3, #0]
 8000e24:	461a      	mov	r2, r3
 8000e26:	4b06      	ldr	r3, [pc, #24]	; (8000e40 <HAL_IncTick+0x24>)
 8000e28:	681b      	ldr	r3, [r3, #0]
 8000e2a:	4413      	add	r3, r2
 8000e2c:	4a04      	ldr	r2, [pc, #16]	; (8000e40 <HAL_IncTick+0x24>)
 8000e2e:	6013      	str	r3, [r2, #0]
}
 8000e30:	bf00      	nop
 8000e32:	46bd      	mov	sp, r7
 8000e34:	f85d 7b04 	ldr.w	r7, [sp], #4
 8000e38:	4770      	bx	lr
 8000e3a:	bf00      	nop
 8000e3c:	2400000c 	.word	0x2400000c
 8000e40:	240002fc 	.word	0x240002fc

08000e44 <HAL_GetTick>:
  * @note This function is declared as __weak to be overwritten in case of other
  *       implementations in user file.
  * @retval tick value
  */
__weak uint32_t HAL_GetTick(void)
{
 8000e44:	b480      	push	{r7}
 8000e46:	af00      	add	r7, sp, #0
  return uwTick;
 8000e48:	4b03      	ldr	r3, [pc, #12]	; (8000e58 <HAL_GetTick+0x14>)
 8000e4a:	681b      	ldr	r3, [r3, #0]
}
 8000e4c:	4618      	mov	r0, r3
 8000e4e:	46bd      	mov	sp, r7
 8000e50:	f85d 7b04 	ldr.w	r7, [sp], #4
 8000e54:	4770      	bx	lr
 8000e56:	bf00      	nop
 8000e58:	240002fc 	.word	0x240002fc

08000e5c <HAL_Delay>:
  *       implementations in user file.
  * @param Delay  specifies the delay time length, in milliseconds.
  * @retval None
  */
__weak void HAL_Delay(uint32_t Delay)
{
 8000e5c:	b580      	push	{r7, lr}
 8000e5e:	b084      	sub	sp, #16
 8000e60:	af00      	add	r7, sp, #0
 8000e62:	6078      	str	r0, [r7, #4]
  uint32_t tickstart = HAL_GetTick();
 8000e64:	f7ff ffee 	bl	8000e44 <HAL_GetTick>
 8000e68:	60b8      	str	r0, [r7, #8]
  uint32_t wait = Delay;
 8000e6a:	687b      	ldr	r3, [r7, #4]
 8000e6c:	60fb      	str	r3, [r7, #12]

  /* Add a freq to guarantee minimum wait */
  if (wait < HAL_MAX_DELAY)
 8000e6e:	68fb      	ldr	r3, [r7, #12]
 8000e70:	f1b3 3fff 	cmp.w	r3, #4294967295
 8000e74:	d005      	beq.n	8000e82 <HAL_Delay+0x26>
  {
    wait += (uint32_t)(uwTickFreq);
 8000e76:	4b0a      	ldr	r3, [pc, #40]	; (8000ea0 <HAL_Delay+0x44>)
 8000e78:	781b      	ldrb	r3, [r3, #0]
 8000e7a:	461a      	mov	r2, r3
 8000e7c:	68fb      	ldr	r3, [r7, #12]
 8000e7e:	4413      	add	r3, r2
 8000e80:	60fb      	str	r3, [r7, #12]
  }

  while ((HAL_GetTick() - tickstart) < wait)
 8000e82:	bf00      	nop
 8000e84:	f7ff ffde 	bl	8000e44 <HAL_GetTick>
 8000e88:	4602      	mov	r2, r0
 8000e8a:	68bb      	ldr	r3, [r7, #8]
 8000e8c:	1ad3      	subs	r3, r2, r3
 8000e8e:	68fa      	ldr	r2, [r7, #12]
 8000e90:	429a      	cmp	r2, r3
 8000e92:	d8f7      	bhi.n	8000e84 <HAL_Delay+0x28>
  {
  }
}
 8000e94:	bf00      	nop
 8000e96:	bf00      	nop
 8000e98:	3710      	adds	r7, #16
 8000e9a:	46bd      	mov	sp, r7
 8000e9c:	bd80      	pop	{r7, pc}
 8000e9e:	bf00      	nop
 8000ea0:	2400000c 	.word	0x2400000c

08000ea4 <HAL_GetREVID>:
/**
  * @brief  Returns the device revision identifier.
  * @retval Device revision identifier
  */
uint32_t HAL_GetREVID(void)
{
 8000ea4:	b480      	push	{r7}
 8000ea6:	af00      	add	r7, sp, #0
   return((DBGMCU->IDCODE) >> 16);
 8000ea8:	4b03      	ldr	r3, [pc, #12]	; (8000eb8 <HAL_GetREVID+0x14>)
 8000eaa:	681b      	ldr	r3, [r3, #0]
 8000eac:	0c1b      	lsrs	r3, r3, #16
}
 8000eae:	4618      	mov	r0, r3
 8000eb0:	46bd      	mov	sp, r7
 8000eb2:	f85d 7b04 	ldr.w	r7, [sp], #4
 8000eb6:	4770      	bx	lr
 8000eb8:	5c001000 	.word	0x5c001000

08000ebc <__NVIC_SetPriorityGrouping>:
           In case of a conflict between priority grouping and available
           priority bits (__NVIC_PRIO_BITS), the smallest possible priority group is set.
  \param [in]      PriorityGroup  Priority grouping field.
 */
__STATIC_INLINE void __NVIC_SetPriorityGrouping(uint32_t PriorityGroup)
{
 8000ebc:	b480      	push	{r7}
 8000ebe:	b085      	sub	sp, #20
 8000ec0:	af00      	add	r7, sp, #0
 8000ec2:	6078      	str	r0, [r7, #4]
  uint32_t reg_value;
  uint32_t PriorityGroupTmp = (PriorityGroup & (uint32_t)0x07UL);             /* only values 0..7 are used          */
 8000ec4:	687b      	ldr	r3, [r7, #4]
 8000ec6:	f003 0307 	and.w	r3, r3, #7
 8000eca:	60fb      	str	r3, [r7, #12]

  reg_value  =  SCB->AIRCR;                                                   /* read old register configuration    */
 8000ecc:	4b0b      	ldr	r3, [pc, #44]	; (8000efc <__NVIC_SetPriorityGrouping+0x40>)
 8000ece:	68db      	ldr	r3, [r3, #12]
 8000ed0:	60bb      	str	r3, [r7, #8]
  reg_value &= ~((uint32_t)(SCB_AIRCR_VECTKEY_Msk | SCB_AIRCR_PRIGROUP_Msk)); /* clear bits to change               */
 8000ed2:	68ba      	ldr	r2, [r7, #8]
 8000ed4:	f64f 03ff 	movw	r3, #63743	; 0xf8ff
 8000ed8:	4013      	ands	r3, r2
 8000eda:	60bb      	str	r3, [r7, #8]
  reg_value  =  (reg_value                                   |
                ((uint32_t)0x5FAUL << SCB_AIRCR_VECTKEY_Pos) |
                (PriorityGroupTmp << SCB_AIRCR_PRIGROUP_Pos)  );              /* Insert write key and priority group */
 8000edc:	68fb      	ldr	r3, [r7, #12]
 8000ede:	021a      	lsls	r2, r3, #8
                ((uint32_t)0x5FAUL << SCB_AIRCR_VECTKEY_Pos) |
 8000ee0:	68bb      	ldr	r3, [r7, #8]
 8000ee2:	431a      	orrs	r2, r3
  reg_value  =  (reg_value                                   |
 8000ee4:	4b06      	ldr	r3, [pc, #24]	; (8000f00 <__NVIC_SetPriorityGrouping+0x44>)
 8000ee6:	4313      	orrs	r3, r2
 8000ee8:	60bb      	str	r3, [r7, #8]
  SCB->AIRCR =  reg_value;
 8000eea:	4a04      	ldr	r2, [pc, #16]	; (8000efc <__NVIC_SetPriorityGrouping+0x40>)
 8000eec:	68bb      	ldr	r3, [r7, #8]
 8000eee:	60d3      	str	r3, [r2, #12]
}
 8000ef0:	bf00      	nop
 8000ef2:	3714      	adds	r7, #20
 8000ef4:	46bd      	mov	sp, r7
 8000ef6:	f85d 7b04 	ldr.w	r7, [sp], #4
 8000efa:	4770      	bx	lr
 8000efc:	e000ed00 	.word	0xe000ed00
 8000f00:	05fa0000 	.word	0x05fa0000

08000f04 <__NVIC_GetPriorityGrouping>:
  \brief   Get Priority Grouping
  \details Reads the priority grouping field from the NVIC Interrupt Controller.
  \return                Priority grouping field (SCB->AIRCR [10:8] PRIGROUP field).
 */
__STATIC_INLINE uint32_t __NVIC_GetPriorityGrouping(void)
{
 8000f04:	b480      	push	{r7}
 8000f06:	af00      	add	r7, sp, #0
  return ((uint32_t)((SCB->AIRCR & SCB_AIRCR_PRIGROUP_Msk) >> SCB_AIRCR_PRIGROUP_Pos));
 8000f08:	4b04      	ldr	r3, [pc, #16]	; (8000f1c <__NVIC_GetPriorityGrouping+0x18>)
 8000f0a:	68db      	ldr	r3, [r3, #12]
 8000f0c:	0a1b      	lsrs	r3, r3, #8
 8000f0e:	f003 0307 	and.w	r3, r3, #7
}
 8000f12:	4618      	mov	r0, r3
 8000f14:	46bd      	mov	sp, r7
 8000f16:	f85d 7b04 	ldr.w	r7, [sp], #4
 8000f1a:	4770      	bx	lr
 8000f1c:	e000ed00 	.word	0xe000ed00

08000f20 <__NVIC_EnableIRQ>:
  \details Enables a device specific interrupt in the NVIC interrupt controller.
  \param [in]      IRQn  Device specific interrupt number.
  \note    IRQn must not be negative.
 */
__STATIC_INLINE void __NVIC_EnableIRQ(IRQn_Type IRQn)
{
 8000f20:	b480      	push	{r7}
 8000f22:	b083      	sub	sp, #12
 8000f24:	af00      	add	r7, sp, #0
 8000f26:	4603      	mov	r3, r0
 8000f28:	80fb      	strh	r3, [r7, #6]
  if ((int32_t)(IRQn) >= 0)
 8000f2a:	f9b7 3006 	ldrsh.w	r3, [r7, #6]
 8000f2e:	2b00      	cmp	r3, #0
 8000f30:	db0b      	blt.n	8000f4a <__NVIC_EnableIRQ+0x2a>
  {
    __COMPILER_BARRIER();
    NVIC->ISER[(((uint32_t)IRQn) >> 5UL)] = (uint32_t)(1UL << (((uint32_t)IRQn) & 0x1FUL));
 8000f32:	88fb      	ldrh	r3, [r7, #6]
 8000f34:	f003 021f 	and.w	r2, r3, #31
 8000f38:	4907      	ldr	r1, [pc, #28]	; (8000f58 <__NVIC_EnableIRQ+0x38>)
 8000f3a:	f9b7 3006 	ldrsh.w	r3, [r7, #6]
 8000f3e:	095b      	lsrs	r3, r3, #5
 8000f40:	2001      	movs	r0, #1
 8000f42:	fa00 f202 	lsl.w	r2, r0, r2
 8000f46:	f841 2023 	str.w	r2, [r1, r3, lsl #2]
    __COMPILER_BARRIER();
  }
}
 8000f4a:	bf00      	nop
 8000f4c:	370c      	adds	r7, #12
 8000f4e:	46bd      	mov	sp, r7
 8000f50:	f85d 7b04 	ldr.w	r7, [sp], #4
 8000f54:	4770      	bx	lr
 8000f56:	bf00      	nop
 8000f58:	e000e100 	.word	0xe000e100

08000f5c <__NVIC_SetPriority>:
  \param [in]      IRQn  Interrupt number.
  \param [in]  priority  Priority to set.
  \note    The priority cannot be set for every processor exception.
 */
__STATIC_INLINE void __NVIC_SetPriority(IRQn_Type IRQn, uint32_t priority)
{
 8000f5c:	b480      	push	{r7}
 8000f5e:	b083      	sub	sp, #12
 8000f60:	af00      	add	r7, sp, #0
 8000f62:	4603      	mov	r3, r0
 8000f64:	6039      	str	r1, [r7, #0]
 8000f66:	80fb      	strh	r3, [r7, #6]
  if ((int32_t)(IRQn) >= 0)
 8000f68:	f9b7 3006 	ldrsh.w	r3, [r7, #6]
 8000f6c:	2b00      	cmp	r3, #0
 8000f6e:	db0a      	blt.n	8000f86 <__NVIC_SetPriority+0x2a>
  {
    NVIC->IP[((uint32_t)IRQn)]                = (uint8_t)((priority << (8U - __NVIC_PRIO_BITS)) & (uint32_t)0xFFUL);
 8000f70:	683b      	ldr	r3, [r7, #0]
 8000f72:	b2da      	uxtb	r2, r3
 8000f74:	490c      	ldr	r1, [pc, #48]	; (8000fa8 <__NVIC_SetPriority+0x4c>)
 8000f76:	f9b7 3006 	ldrsh.w	r3, [r7, #6]
 8000f7a:	0112      	lsls	r2, r2, #4
 8000f7c:	b2d2      	uxtb	r2, r2
 8000f7e:	440b      	add	r3, r1
 8000f80:	f883 2300 	strb.w	r2, [r3, #768]	; 0x300
  }
  else
  {
    SCB->SHPR[(((uint32_t)IRQn) & 0xFUL)-4UL] = (uint8_t)((priority << (8U - __NVIC_PRIO_BITS)) & (uint32_t)0xFFUL);
  }
}
 8000f84:	e00a      	b.n	8000f9c <__NVIC_SetPriority+0x40>
    SCB->SHPR[(((uint32_t)IRQn) & 0xFUL)-4UL] = (uint8_t)((priority << (8U - __NVIC_PRIO_BITS)) & (uint32_t)0xFFUL);
 8000f86:	683b      	ldr	r3, [r7, #0]
 8000f88:	b2da      	uxtb	r2, r3
 8000f8a:	4908      	ldr	r1, [pc, #32]	; (8000fac <__NVIC_SetPriority+0x50>)
 8000f8c:	88fb      	ldrh	r3, [r7, #6]
 8000f8e:	f003 030f 	and.w	r3, r3, #15
 8000f92:	3b04      	subs	r3, #4
 8000f94:	0112      	lsls	r2, r2, #4
 8000f96:	b2d2      	uxtb	r2, r2
 8000f98:	440b      	add	r3, r1
 8000f9a:	761a      	strb	r2, [r3, #24]
}
 8000f9c:	bf00      	nop
 8000f9e:	370c      	adds	r7, #12
 8000fa0:	46bd      	mov	sp, r7
 8000fa2:	f85d 7b04 	ldr.w	r7, [sp], #4
 8000fa6:	4770      	bx	lr
 8000fa8:	e000e100 	.word	0xe000e100
 8000fac:	e000ed00 	.word	0xe000ed00

08000fb0 <NVIC_EncodePriority>:
  \param [in]   PreemptPriority  Preemptive priority value (starting from 0).
  \param [in]       SubPriority  Subpriority value (starting from 0).
  \return                        Encoded priority. Value can be used in the function \ref NVIC_SetPriority().
 */
__STATIC_INLINE uint32_t NVIC_EncodePriority (uint32_t PriorityGroup, uint32_t PreemptPriority, uint32_t SubPriority)
{
 8000fb0:	b480      	push	{r7}
 8000fb2:	b089      	sub	sp, #36	; 0x24
 8000fb4:	af00      	add	r7, sp, #0
 8000fb6:	60f8      	str	r0, [r7, #12]
 8000fb8:	60b9      	str	r1, [r7, #8]
 8000fba:	607a      	str	r2, [r7, #4]
  uint32_t PriorityGroupTmp = (PriorityGroup & (uint32_t)0x07UL);   /* only values 0..7 are used          */
 8000fbc:	68fb      	ldr	r3, [r7, #12]
 8000fbe:	f003 0307 	and.w	r3, r3, #7
 8000fc2:	61fb      	str	r3, [r7, #28]
  uint32_t PreemptPriorityBits;
  uint32_t SubPriorityBits;

  PreemptPriorityBits = ((7UL - PriorityGroupTmp) > (uint32_t)(__NVIC_PRIO_BITS)) ? (uint32_t)(__NVIC_PRIO_BITS) : (uint32_t)(7UL - PriorityGroupTmp);
 8000fc4:	69fb      	ldr	r3, [r7, #28]
 8000fc6:	f1c3 0307 	rsb	r3, r3, #7
 8000fca:	2b04      	cmp	r3, #4
 8000fcc:	bf28      	it	cs
 8000fce:	2304      	movcs	r3, #4
 8000fd0:	61bb      	str	r3, [r7, #24]
  SubPriorityBits     = ((PriorityGroupTmp + (uint32_t)(__NVIC_PRIO_BITS)) < (uint32_t)7UL) ? (uint32_t)0UL : (uint32_t)((PriorityGroupTmp - 7UL) + (uint32_t)(__NVIC_PRIO_BITS));
 8000fd2:	69fb      	ldr	r3, [r7, #28]
 8000fd4:	3304      	adds	r3, #4
 8000fd6:	2b06      	cmp	r3, #6
 8000fd8:	d902      	bls.n	8000fe0 <NVIC_EncodePriority+0x30>
 8000fda:	69fb      	ldr	r3, [r7, #28]
 8000fdc:	3b03      	subs	r3, #3
 8000fde:	e000      	b.n	8000fe2 <NVIC_EncodePriority+0x32>
 8000fe0:	2300      	movs	r3, #0
 8000fe2:	617b      	str	r3, [r7, #20]

  return (
           ((PreemptPriority & (uint32_t)((1UL << (PreemptPriorityBits)) - 1UL)) << SubPriorityBits) |
 8000fe4:	f04f 32ff 	mov.w	r2, #4294967295
 8000fe8:	69bb      	ldr	r3, [r7, #24]
 8000fea:	fa02 f303 	lsl.w	r3, r2, r3
 8000fee:	43da      	mvns	r2, r3
 8000ff0:	68bb      	ldr	r3, [r7, #8]
 8000ff2:	401a      	ands	r2, r3
 8000ff4:	697b      	ldr	r3, [r7, #20]
 8000ff6:	409a      	lsls	r2, r3
           ((SubPriority     & (uint32_t)((1UL << (SubPriorityBits    )) - 1UL)))
 8000ff8:	f04f 31ff 	mov.w	r1, #4294967295
 8000ffc:	697b      	ldr	r3, [r7, #20]
 8000ffe:	fa01 f303 	lsl.w	r3, r1, r3
 8001002:	43d9      	mvns	r1, r3
 8001004:	687b      	ldr	r3, [r7, #4]
 8001006:	400b      	ands	r3, r1
           ((PreemptPriority & (uint32_t)((1UL << (PreemptPriorityBits)) - 1UL)) << SubPriorityBits) |
 8001008:	4313      	orrs	r3, r2
         );
}
 800100a:	4618      	mov	r0, r3
 800100c:	3724      	adds	r7, #36	; 0x24
 800100e:	46bd      	mov	sp, r7
 8001010:	f85d 7b04 	ldr.w	r7, [sp], #4
 8001014:	4770      	bx	lr
	...

08001018 <SysTick_Config>:
  \note    When the variable <b>__Vendor_SysTickConfig</b> is set to 1, then the
           function <b>SysTick_Config</b> is not included. In this case, the file <b><i>device</i>.h</b>
           must contain a vendor-specific implementation of this function.
 */
__STATIC_INLINE uint32_t SysTick_Config(uint32_t ticks)
{
 8001018:	b580      	push	{r7, lr}
 800101a:	b082      	sub	sp, #8
 800101c:	af00      	add	r7, sp, #0
 800101e:	6078      	str	r0, [r7, #4]
  if ((ticks - 1UL) > SysTick_LOAD_RELOAD_Msk)
 8001020:	687b      	ldr	r3, [r7, #4]
 8001022:	3b01      	subs	r3, #1
 8001024:	f1b3 7f80 	cmp.w	r3, #16777216	; 0x1000000
 8001028:	d301      	bcc.n	800102e <SysTick_Config+0x16>
  {
    return (1UL);                                                   /* Reload value impossible */
 800102a:	2301      	movs	r3, #1
 800102c:	e00f      	b.n	800104e <SysTick_Config+0x36>
  }

  SysTick->LOAD  = (uint32_t)(ticks - 1UL);                         /* set reload register */
 800102e:	4a0a      	ldr	r2, [pc, #40]	; (8001058 <SysTick_Config+0x40>)
 8001030:	687b      	ldr	r3, [r7, #4]
 8001032:	3b01      	subs	r3, #1
 8001034:	6053      	str	r3, [r2, #4]
  NVIC_SetPriority (SysTick_IRQn, (1UL << __NVIC_PRIO_BITS) - 1UL); /* set Priority for Systick Interrupt */
 8001036:	210f      	movs	r1, #15
 8001038:	f04f 30ff 	mov.w	r0, #4294967295
 800103c:	f7ff ff8e 	bl	8000f5c <__NVIC_SetPriority>
  SysTick->VAL   = 0UL;                                             /* Load the SysTick Counter Value */
 8001040:	4b05      	ldr	r3, [pc, #20]	; (8001058 <SysTick_Config+0x40>)
 8001042:	2200      	movs	r2, #0
 8001044:	609a      	str	r2, [r3, #8]
  SysTick->CTRL  = SysTick_CTRL_CLKSOURCE_Msk |
 8001046:	4b04      	ldr	r3, [pc, #16]	; (8001058 <SysTick_Config+0x40>)
 8001048:	2207      	movs	r2, #7
 800104a:	601a      	str	r2, [r3, #0]
                   SysTick_CTRL_TICKINT_Msk   |
                   SysTick_CTRL_ENABLE_Msk;                         /* Enable SysTick IRQ and SysTick Timer */
  return (0UL);                                                     /* Function successful */
 800104c:	2300      	movs	r3, #0
}
 800104e:	4618      	mov	r0, r3
 8001050:	3708      	adds	r7, #8
 8001052:	46bd      	mov	sp, r7
 8001054:	bd80      	pop	{r7, pc}
 8001056:	bf00      	nop
 8001058:	e000e010 	.word	0xe000e010

0800105c <HAL_NVIC_SetPriorityGrouping>:
  * @note   When the NVIC_PriorityGroup_0 is selected, IRQ preemption is no more possible.
  *         The pending IRQ priority will be managed only by the subpriority.
  * @retval None
  */
void HAL_NVIC_SetPriorityGrouping(uint32_t PriorityGroup)
{
 800105c:	b580      	push	{r7, lr}
 800105e:	b082      	sub	sp, #8
 8001060:	af00      	add	r7, sp, #0
 8001062:	6078      	str	r0, [r7, #4]
  /* Check the parameters */
  assert_param(IS_NVIC_PRIORITY_GROUP(PriorityGroup));

  /* Set the PRIGROUP[10:8] bits according to the PriorityGroup parameter value */
  NVIC_SetPriorityGrouping(PriorityGroup);
 8001064:	6878      	ldr	r0, [r7, #4]
 8001066:	f7ff ff29 	bl	8000ebc <__NVIC_SetPriorityGrouping>
}
 800106a:	bf00      	nop
 800106c:	3708      	adds	r7, #8
 800106e:	46bd      	mov	sp, r7
 8001070:	bd80      	pop	{r7, pc}

08001072 <HAL_NVIC_SetPriority>:
  *         This parameter can be a value between 0 and 15
  *         A lower priority value indicates a higher priority.
  * @retval None
  */
void HAL_NVIC_SetPriority(IRQn_Type IRQn, uint32_t PreemptPriority, uint32_t SubPriority)
{
 8001072:	b580      	push	{r7, lr}
 8001074:	b086      	sub	sp, #24
 8001076:	af00      	add	r7, sp, #0
 8001078:	4603      	mov	r3, r0
 800107a:	60b9      	str	r1, [r7, #8]
 800107c:	607a      	str	r2, [r7, #4]
 800107e:	81fb      	strh	r3, [r7, #14]

  /* Check the parameters */
  assert_param(IS_NVIC_SUB_PRIORITY(SubPriority));
  assert_param(IS_NVIC_PREEMPTION_PRIORITY(PreemptPriority));

  prioritygroup = NVIC_GetPriorityGrouping();
 8001080:	f7ff ff40 	bl	8000f04 <__NVIC_GetPriorityGrouping>
 8001084:	6178      	str	r0, [r7, #20]

  NVIC_SetPriority(IRQn, NVIC_EncodePriority(prioritygroup, PreemptPriority, SubPriority));
 8001086:	687a      	ldr	r2, [r7, #4]
 8001088:	68b9      	ldr	r1, [r7, #8]
 800108a:	6978      	ldr	r0, [r7, #20]
 800108c:	f7ff ff90 	bl	8000fb0 <NVIC_EncodePriority>
 8001090:	4602      	mov	r2, r0
 8001092:	f9b7 300e 	ldrsh.w	r3, [r7, #14]
 8001096:	4611      	mov	r1, r2
 8001098:	4618      	mov	r0, r3
 800109a:	f7ff ff5f 	bl	8000f5c <__NVIC_SetPriority>
}
 800109e:	bf00      	nop
 80010a0:	3718      	adds	r7, #24
 80010a2:	46bd      	mov	sp, r7
 80010a4:	bd80      	pop	{r7, pc}

080010a6 <HAL_NVIC_EnableIRQ>:
  *         This parameter can be an enumerator of IRQn_Type enumeration
  *         (For the complete STM32 Devices IRQ Channels list, please refer to the appropriate CMSIS device file (stm32h7xxxx.h))
  * @retval None
  */
void HAL_NVIC_EnableIRQ(IRQn_Type IRQn)
{
 80010a6:	b580      	push	{r7, lr}
 80010a8:	b082      	sub	sp, #8
 80010aa:	af00      	add	r7, sp, #0
 80010ac:	4603      	mov	r3, r0
 80010ae:	80fb      	strh	r3, [r7, #6]
  /* Check the parameters */
  assert_param(IS_NVIC_DEVICE_IRQ(IRQn));

  /* Enable interrupt */
  NVIC_EnableIRQ(IRQn);
 80010b0:	f9b7 3006 	ldrsh.w	r3, [r7, #6]
 80010b4:	4618      	mov	r0, r3
 80010b6:	f7ff ff33 	bl	8000f20 <__NVIC_EnableIRQ>
}
 80010ba:	bf00      	nop
 80010bc:	3708      	adds	r7, #8
 80010be:	46bd      	mov	sp, r7
 80010c0:	bd80      	pop	{r7, pc}

080010c2 <HAL_SYSTICK_Config>:
  * @param  TicksNumb Specifies the ticks Number of ticks between two interrupts.
  * @retval status   - 0  Function succeeded.
  *                  - 1  Function failed.
  */
uint32_t HAL_SYSTICK_Config(uint32_t TicksNumb)
{
 80010c2:	b580      	push	{r7, lr}
 80010c4:	b082      	sub	sp, #8
 80010c6:	af00      	add	r7, sp, #0
 80010c8:	6078      	str	r0, [r7, #4]
   return SysTick_Config(TicksNumb);
 80010ca:	6878      	ldr	r0, [r7, #4]
 80010cc:	f7ff ffa4 	bl	8001018 <SysTick_Config>
 80010d0:	4603      	mov	r3, r0
}
 80010d2:	4618      	mov	r0, r3
 80010d4:	3708      	adds	r7, #8
 80010d6:	46bd      	mov	sp, r7
 80010d8:	bd80      	pop	{r7, pc}
	...

080010dc <HAL_MPU_Disable>:
/**
  * @brief  Disables the MPU
  * @retval None
  */
void HAL_MPU_Disable(void)
{
 80010dc:	b480      	push	{r7}
 80010de:	af00      	add	r7, sp, #0
  \details Ensures the apparent order of the explicit memory operations before
           and after the instruction, without ensuring their completion.
 */
__STATIC_FORCEINLINE void __DMB(void)
{
  __ASM volatile ("dmb 0xF":::"memory");
 80010e0:	f3bf 8f5f 	dmb	sy
}
 80010e4:	bf00      	nop
  /* Make sure outstanding transfers are done */
  __DMB();

  /* Disable fault exceptions */
  SCB->SHCSR &= ~SCB_SHCSR_MEMFAULTENA_Msk;
 80010e6:	4b07      	ldr	r3, [pc, #28]	; (8001104 <HAL_MPU_Disable+0x28>)
 80010e8:	6a5b      	ldr	r3, [r3, #36]	; 0x24
 80010ea:	4a06      	ldr	r2, [pc, #24]	; (8001104 <HAL_MPU_Disable+0x28>)
 80010ec:	f423 3380 	bic.w	r3, r3, #65536	; 0x10000
 80010f0:	6253      	str	r3, [r2, #36]	; 0x24

  /* Disable the MPU and clear the control register*/
  MPU->CTRL = 0;
 80010f2:	4b05      	ldr	r3, [pc, #20]	; (8001108 <HAL_MPU_Disable+0x2c>)
 80010f4:	2200      	movs	r2, #0
 80010f6:	605a      	str	r2, [r3, #4]
}
 80010f8:	bf00      	nop
 80010fa:	46bd      	mov	sp, r7
 80010fc:	f85d 7b04 	ldr.w	r7, [sp], #4
 8001100:	4770      	bx	lr
 8001102:	bf00      	nop
 8001104:	e000ed00 	.word	0xe000ed00
 8001108:	e000ed90 	.word	0xe000ed90

0800110c <HAL_MPU_Enable>:
  *            @arg MPU_PRIVILEGED_DEFAULT
  *            @arg MPU_HFNMI_PRIVDEF
  * @retval None
  */
void HAL_MPU_Enable(uint32_t MPU_Control)
{
 800110c:	b480      	push	{r7}
 800110e:	b083      	sub	sp, #12
 8001110:	af00      	add	r7, sp, #0
 8001112:	6078      	str	r0, [r7, #4]
  /* Enable the MPU */
  MPU->CTRL = MPU_Control | MPU_CTRL_ENABLE_Msk;
 8001114:	4a0b      	ldr	r2, [pc, #44]	; (8001144 <HAL_MPU_Enable+0x38>)
 8001116:	687b      	ldr	r3, [r7, #4]
 8001118:	f043 0301 	orr.w	r3, r3, #1
 800111c:	6053      	str	r3, [r2, #4]

  /* Enable fault exceptions */
  SCB->SHCSR |= SCB_SHCSR_MEMFAULTENA_Msk;
 800111e:	4b0a      	ldr	r3, [pc, #40]	; (8001148 <HAL_MPU_Enable+0x3c>)
 8001120:	6a5b      	ldr	r3, [r3, #36]	; 0x24
 8001122:	4a09      	ldr	r2, [pc, #36]	; (8001148 <HAL_MPU_Enable+0x3c>)
 8001124:	f443 3380 	orr.w	r3, r3, #65536	; 0x10000
 8001128:	6253      	str	r3, [r2, #36]	; 0x24
  __ASM volatile ("dsb 0xF":::"memory");
 800112a:	f3bf 8f4f 	dsb	sy
}
 800112e:	bf00      	nop
  __ASM volatile ("isb 0xF":::"memory");
 8001130:	f3bf 8f6f 	isb	sy
}
 8001134:	bf00      	nop

  /* Ensure MPU setting take effects */
  __DSB();
  __ISB();
}
 8001136:	bf00      	nop
 8001138:	370c      	adds	r7, #12
 800113a:	46bd      	mov	sp, r7
 800113c:	f85d 7b04 	ldr.w	r7, [sp], #4
 8001140:	4770      	bx	lr
 8001142:	bf00      	nop
 8001144:	e000ed90 	.word	0xe000ed90
 8001148:	e000ed00 	.word	0xe000ed00

0800114c <HAL_MPU_ConfigRegion>:
  * @param  MPU_Init Pointer to a MPU_Region_InitTypeDef structure that contains
  *                  the initialization and configuration information.
  * @retval None
  */
void HAL_MPU_ConfigRegion(MPU_Region_InitTypeDef *MPU_Init)
{
 800114c:	b480      	push	{r7}
 800114e:	b083      	sub	sp, #12
 8001150:	af00      	add	r7, sp, #0
 8001152:	6078      	str	r0, [r7, #4]
  /* Check the parameters */
  assert_param(IS_MPU_REGION_NUMBER(MPU_Init->Number));
  assert_param(IS_MPU_REGION_ENABLE(MPU_Init->Enable));

  /* Set the Region number */
  MPU->RNR = MPU_Init->Number;
 8001154:	687b      	ldr	r3, [r7, #4]
 8001156:	785a      	ldrb	r2, [r3, #1]
 8001158:	4b1d      	ldr	r3, [pc, #116]	; (80011d0 <HAL_MPU_ConfigRegion+0x84>)
 800115a:	609a      	str	r2, [r3, #8]

  if ((MPU_Init->Enable) != 0UL)
 800115c:	687b      	ldr	r3, [r7, #4]
 800115e:	781b      	ldrb	r3, [r3, #0]
 8001160:	2b00      	cmp	r3, #0
 8001162:	d029      	beq.n	80011b8 <HAL_MPU_ConfigRegion+0x6c>
    assert_param(IS_MPU_ACCESS_CACHEABLE(MPU_Init->IsCacheable));
    assert_param(IS_MPU_ACCESS_BUFFERABLE(MPU_Init->IsBufferable));
    assert_param(IS_MPU_SUB_REGION_DISABLE(MPU_Init->SubRegionDisable));
    assert_param(IS_MPU_REGION_SIZE(MPU_Init->Size));

    MPU->RBAR = MPU_Init->BaseAddress;
 8001164:	4a1a      	ldr	r2, [pc, #104]	; (80011d0 <HAL_MPU_ConfigRegion+0x84>)
 8001166:	687b      	ldr	r3, [r7, #4]
 8001168:	685b      	ldr	r3, [r3, #4]
 800116a:	60d3      	str	r3, [r2, #12]
    MPU->RASR = ((uint32_t)MPU_Init->DisableExec             << MPU_RASR_XN_Pos)   |
 800116c:	687b      	ldr	r3, [r7, #4]
 800116e:	7b1b      	ldrb	r3, [r3, #12]
 8001170:	071a      	lsls	r2, r3, #28
                ((uint32_t)MPU_Init->AccessPermission        << MPU_RASR_AP_Pos)   |
 8001172:	687b      	ldr	r3, [r7, #4]
 8001174:	7adb      	ldrb	r3, [r3, #11]
 8001176:	061b      	lsls	r3, r3, #24
    MPU->RASR = ((uint32_t)MPU_Init->DisableExec             << MPU_RASR_XN_Pos)   |
 8001178:	431a      	orrs	r2, r3
                ((uint32_t)MPU_Init->TypeExtField            << MPU_RASR_TEX_Pos)  |
 800117a:	687b      	ldr	r3, [r7, #4]
 800117c:	7a9b      	ldrb	r3, [r3, #10]
 800117e:	04db      	lsls	r3, r3, #19
                ((uint32_t)MPU_Init->AccessPermission        << MPU_RASR_AP_Pos)   |
 8001180:	431a      	orrs	r2, r3
                ((uint32_t)MPU_Init->IsShareable             << MPU_RASR_S_Pos)    |
 8001182:	687b      	ldr	r3, [r7, #4]
 8001184:	7b5b      	ldrb	r3, [r3, #13]
 8001186:	049b      	lsls	r3, r3, #18
                ((uint32_t)MPU_Init->TypeExtField            << MPU_RASR_TEX_Pos)  |
 8001188:	431a      	orrs	r2, r3
                ((uint32_t)MPU_Init->IsCacheable             << MPU_RASR_C_Pos)    |
 800118a:	687b      	ldr	r3, [r7, #4]
 800118c:	7b9b      	ldrb	r3, [r3, #14]
 800118e:	045b      	lsls	r3, r3, #17
                ((uint32_t)MPU_Init->IsShareable             << MPU_RASR_S_Pos)    |
 8001190:	431a      	orrs	r2, r3
                ((uint32_t)MPU_Init->IsBufferable            << MPU_RASR_B_Pos)    |
 8001192:	687b      	ldr	r3, [r7, #4]
 8001194:	7bdb      	ldrb	r3, [r3, #15]
 8001196:	041b      	lsls	r3, r3, #16
                ((uint32_t)MPU_Init->IsCacheable             << MPU_RASR_C_Pos)    |
 8001198:	431a      	orrs	r2, r3
                ((uint32_t)MPU_Init->SubRegionDisable        << MPU_RASR_SRD_Pos)  |
 800119a:	687b      	ldr	r3, [r7, #4]
 800119c:	7a5b      	ldrb	r3, [r3, #9]
 800119e:	021b      	lsls	r3, r3, #8
                ((uint32_t)MPU_Init->IsBufferable            << MPU_RASR_B_Pos)    |
 80011a0:	431a      	orrs	r2, r3
                ((uint32_t)MPU_Init->Size                    << MPU_RASR_SIZE_Pos) |
 80011a2:	687b      	ldr	r3, [r7, #4]
 80011a4:	7a1b      	ldrb	r3, [r3, #8]
 80011a6:	005b      	lsls	r3, r3, #1
                ((uint32_t)MPU_Init->SubRegionDisable        << MPU_RASR_SRD_Pos)  |
 80011a8:	4313      	orrs	r3, r2
                ((uint32_t)MPU_Init->Enable                  << MPU_RASR_ENABLE_Pos);
 80011aa:	687a      	ldr	r2, [r7, #4]
 80011ac:	7812      	ldrb	r2, [r2, #0]
 80011ae:	4611      	mov	r1, r2
    MPU->RASR = ((uint32_t)MPU_Init->DisableExec             << MPU_RASR_XN_Pos)   |
 80011b0:	4a07      	ldr	r2, [pc, #28]	; (80011d0 <HAL_MPU_ConfigRegion+0x84>)
                ((uint32_t)MPU_Init->Size                    << MPU_RASR_SIZE_Pos) |
 80011b2:	430b      	orrs	r3, r1
    MPU->RASR = ((uint32_t)MPU_Init->DisableExec             << MPU_RASR_XN_Pos)   |
 80011b4:	6113      	str	r3, [r2, #16]
  else
  {
    MPU->RBAR = 0x00;
    MPU->RASR = 0x00;
  }
}
 80011b6:	e005      	b.n	80011c4 <HAL_MPU_ConfigRegion+0x78>
    MPU->RBAR = 0x00;
 80011b8:	4b05      	ldr	r3, [pc, #20]	; (80011d0 <HAL_MPU_ConfigRegion+0x84>)
 80011ba:	2200      	movs	r2, #0
 80011bc:	60da      	str	r2, [r3, #12]
    MPU->RASR = 0x00;
 80011be:	4b04      	ldr	r3, [pc, #16]	; (80011d0 <HAL_MPU_ConfigRegion+0x84>)
 80011c0:	2200      	movs	r2, #0
 80011c2:	611a      	str	r2, [r3, #16]
}
 80011c4:	bf00      	nop
 80011c6:	370c      	adds	r7, #12
 80011c8:	46bd      	mov	sp, r7
 80011ca:	f85d 7b04 	ldr.w	r7, [sp], #4
 80011ce:	4770      	bx	lr
 80011d0:	e000ed90 	.word	0xe000ed90

080011d4 <HAL_GPIO_Init>:
  * @param  GPIO_Init: pointer to a GPIO_InitTypeDef structure that contains
  *         the configuration information for the specified GPIO peripheral.
  * @retval None
  */
void HAL_GPIO_Init(GPIO_TypeDef  *GPIOx, GPIO_InitTypeDef *GPIO_Init)
{
 80011d4:	b480      	push	{r7}
 80011d6:	b089      	sub	sp, #36	; 0x24
 80011d8:	af00      	add	r7, sp, #0
 80011da:	6078      	str	r0, [r7, #4]
 80011dc:	6039      	str	r1, [r7, #0]
  uint32_t position = 0x00U;
 80011de:	2300      	movs	r3, #0
 80011e0:	61fb      	str	r3, [r7, #28]
  EXTI_Core_TypeDef *EXTI_CurrentCPU;

#if defined(DUAL_CORE) && defined(CORE_CM4)
  EXTI_CurrentCPU = EXTI_D2; /* EXTI for CM4 CPU */
#else
  EXTI_CurrentCPU = EXTI_D1; /* EXTI for CM7 CPU */
 80011e2:	4b89      	ldr	r3, [pc, #548]	; (8001408 <HAL_GPIO_Init+0x234>)
 80011e4:	617b      	str	r3, [r7, #20]
  assert_param(IS_GPIO_ALL_INSTANCE(GPIOx));
  assert_param(IS_GPIO_PIN(GPIO_Init->Pin));
  assert_param(IS_GPIO_MODE(GPIO_Init->Mode));

  /* Configure the port pins */
  while (((GPIO_Init->Pin) >> position) != 0x00U)
 80011e6:	e194      	b.n	8001512 <HAL_GPIO_Init+0x33e>
  {
    /* Get current io position */
    iocurrent = (GPIO_Init->Pin) & (1UL << position);
 80011e8:	683b      	ldr	r3, [r7, #0]
 80011ea:	681a      	ldr	r2, [r3, #0]
 80011ec:	2101      	movs	r1, #1
 80011ee:	69fb      	ldr	r3, [r7, #28]
 80011f0:	fa01 f303 	lsl.w	r3, r1, r3
 80011f4:	4013      	ands	r3, r2
 80011f6:	613b      	str	r3, [r7, #16]

    if (iocurrent != 0x00U)
 80011f8:	693b      	ldr	r3, [r7, #16]
 80011fa:	2b00      	cmp	r3, #0
 80011fc:	f000 8186 	beq.w	800150c <HAL_GPIO_Init+0x338>
    {
      /*--------------------- GPIO Mode Configuration ------------------------*/
      /* In case of Output or Alternate function mode selection */
      if (((GPIO_Init->Mode & GPIO_MODE) == MODE_OUTPUT) || ((GPIO_Init->Mode & GPIO_MODE) == MODE_AF))
 8001200:	683b      	ldr	r3, [r7, #0]
 8001202:	685b      	ldr	r3, [r3, #4]
 8001204:	f003 0303 	and.w	r3, r3, #3
 8001208:	2b01      	cmp	r3, #1
 800120a:	d005      	beq.n	8001218 <HAL_GPIO_Init+0x44>
 800120c:	683b      	ldr	r3, [r7, #0]
 800120e:	685b      	ldr	r3, [r3, #4]
 8001210:	f003 0303 	and.w	r3, r3, #3
 8001214:	2b02      	cmp	r3, #2
 8001216:	d130      	bne.n	800127a <HAL_GPIO_Init+0xa6>
      {
        /* Check the Speed parameter */
        assert_param(IS_GPIO_SPEED(GPIO_Init->Speed));

        /* Configure the IO Speed */
        temp = GPIOx->OSPEEDR;
 8001218:	687b      	ldr	r3, [r7, #4]
 800121a:	689b      	ldr	r3, [r3, #8]
 800121c:	61bb      	str	r3, [r7, #24]
        temp &= ~(GPIO_OSPEEDR_OSPEED0 << (position * 2U));
 800121e:	69fb      	ldr	r3, [r7, #28]
 8001220:	005b      	lsls	r3, r3, #1
 8001222:	2203      	movs	r2, #3
 8001224:	fa02 f303 	lsl.w	r3, r2, r3
 8001228:	43db      	mvns	r3, r3
 800122a:	69ba      	ldr	r2, [r7, #24]
 800122c:	4013      	ands	r3, r2
 800122e:	61bb      	str	r3, [r7, #24]
        temp |= (GPIO_Init->Speed << (position * 2U));
 8001230:	683b      	ldr	r3, [r7, #0]
 8001232:	68da      	ldr	r2, [r3, #12]
 8001234:	69fb      	ldr	r3, [r7, #28]
 8001236:	005b      	lsls	r3, r3, #1
 8001238:	fa02 f303 	lsl.w	r3, r2, r3
 800123c:	69ba      	ldr	r2, [r7, #24]
 800123e:	4313      	orrs	r3, r2
 8001240:	61bb      	str	r3, [r7, #24]
        GPIOx->OSPEEDR = temp;
 8001242:	687b      	ldr	r3, [r7, #4]
 8001244:	69ba      	ldr	r2, [r7, #24]
 8001246:	609a      	str	r2, [r3, #8]

        /* Configure the IO Output Type */
        temp = GPIOx->OTYPER;
 8001248:	687b      	ldr	r3, [r7, #4]
 800124a:	685b      	ldr	r3, [r3, #4]
 800124c:	61bb      	str	r3, [r7, #24]
        temp &= ~(GPIO_OTYPER_OT0 << position) ;
 800124e:	2201      	movs	r2, #1
 8001250:	69fb      	ldr	r3, [r7, #28]
 8001252:	fa02 f303 	lsl.w	r3, r2, r3
 8001256:	43db      	mvns	r3, r3
 8001258:	69ba      	ldr	r2, [r7, #24]
 800125a:	4013      	ands	r3, r2
 800125c:	61bb      	str	r3, [r7, #24]
        temp |= (((GPIO_Init->Mode & OUTPUT_TYPE) >> OUTPUT_TYPE_Pos) << position);
 800125e:	683b      	ldr	r3, [r7, #0]
 8001260:	685b      	ldr	r3, [r3, #4]
 8001262:	091b      	lsrs	r3, r3, #4
 8001264:	f003 0201 	and.w	r2, r3, #1
 8001268:	69fb      	ldr	r3, [r7, #28]
 800126a:	fa02 f303 	lsl.w	r3, r2, r3
 800126e:	69ba      	ldr	r2, [r7, #24]
 8001270:	4313      	orrs	r3, r2
 8001272:	61bb      	str	r3, [r7, #24]
        GPIOx->OTYPER = temp;
 8001274:	687b      	ldr	r3, [r7, #4]
 8001276:	69ba      	ldr	r2, [r7, #24]
 8001278:	605a      	str	r2, [r3, #4]
      }

      if ((GPIO_Init->Mode & GPIO_MODE) != MODE_ANALOG)
 800127a:	683b      	ldr	r3, [r7, #0]
 800127c:	685b      	ldr	r3, [r3, #4]
 800127e:	f003 0303 	and.w	r3, r3, #3
 8001282:	2b03      	cmp	r3, #3
 8001284:	d017      	beq.n	80012b6 <HAL_GPIO_Init+0xe2>
      {
       /* Check the Pull parameter */
       assert_param(IS_GPIO_PULL(GPIO_Init->Pull));

      /* Activate the Pull-up or Pull down resistor for the current IO */
      temp = GPIOx->PUPDR;
 8001286:	687b      	ldr	r3, [r7, #4]
 8001288:	68db      	ldr	r3, [r3, #12]
 800128a:	61bb      	str	r3, [r7, #24]
      temp &= ~(GPIO_PUPDR_PUPD0 << (position * 2U));
 800128c:	69fb      	ldr	r3, [r7, #28]
 800128e:	005b      	lsls	r3, r3, #1
 8001290:	2203      	movs	r2, #3
 8001292:	fa02 f303 	lsl.w	r3, r2, r3
 8001296:	43db      	mvns	r3, r3
 8001298:	69ba      	ldr	r2, [r7, #24]
 800129a:	4013      	ands	r3, r2
 800129c:	61bb      	str	r3, [r7, #24]
      temp |= ((GPIO_Init->Pull) << (position * 2U));
 800129e:	683b      	ldr	r3, [r7, #0]
 80012a0:	689a      	ldr	r2, [r3, #8]
 80012a2:	69fb      	ldr	r3, [r7, #28]
 80012a4:	005b      	lsls	r3, r3, #1
 80012a6:	fa02 f303 	lsl.w	r3, r2, r3
 80012aa:	69ba      	ldr	r2, [r7, #24]
 80012ac:	4313      	orrs	r3, r2
 80012ae:	61bb      	str	r3, [r7, #24]
      GPIOx->PUPDR = temp;
 80012b0:	687b      	ldr	r3, [r7, #4]
 80012b2:	69ba      	ldr	r2, [r7, #24]
 80012b4:	60da      	str	r2, [r3, #12]
      }

      /* In case of Alternate function mode selection */
      if ((GPIO_Init->Mode & GPIO_MODE) == MODE_AF)
 80012b6:	683b      	ldr	r3, [r7, #0]
 80012b8:	685b      	ldr	r3, [r3, #4]
 80012ba:	f003 0303 	and.w	r3, r3, #3
 80012be:	2b02      	cmp	r3, #2
 80012c0:	d123      	bne.n	800130a <HAL_GPIO_Init+0x136>
        /* Check the Alternate function parameters */
        assert_param(IS_GPIO_AF_INSTANCE(GPIOx));
        assert_param(IS_GPIO_AF(GPIO_Init->Alternate));

        /* Configure Alternate function mapped with the current IO */
        temp = GPIOx->AFR[position >> 3U];
 80012c2:	69fb      	ldr	r3, [r7, #28]
 80012c4:	08da      	lsrs	r2, r3, #3
 80012c6:	687b      	ldr	r3, [r7, #4]
 80012c8:	3208      	adds	r2, #8
 80012ca:	f853 3022 	ldr.w	r3, [r3, r2, lsl #2]
 80012ce:	61bb      	str	r3, [r7, #24]
        temp &= ~(0xFU << ((position & 0x07U) * 4U));
 80012d0:	69fb      	ldr	r3, [r7, #28]
 80012d2:	f003 0307 	and.w	r3, r3, #7
 80012d6:	009b      	lsls	r3, r3, #2
 80012d8:	220f      	movs	r2, #15
 80012da:	fa02 f303 	lsl.w	r3, r2, r3
 80012de:	43db      	mvns	r3, r3
 80012e0:	69ba      	ldr	r2, [r7, #24]
 80012e2:	4013      	ands	r3, r2
 80012e4:	61bb      	str	r3, [r7, #24]
        temp |= ((GPIO_Init->Alternate) << ((position & 0x07U) * 4U));
 80012e6:	683b      	ldr	r3, [r7, #0]
 80012e8:	691a      	ldr	r2, [r3, #16]
 80012ea:	69fb      	ldr	r3, [r7, #28]
 80012ec:	f003 0307 	and.w	r3, r3, #7
 80012f0:	009b      	lsls	r3, r3, #2
 80012f2:	fa02 f303 	lsl.w	r3, r2, r3
 80012f6:	69ba      	ldr	r2, [r7, #24]
 80012f8:	4313      	orrs	r3, r2
 80012fa:	61bb      	str	r3, [r7, #24]
        GPIOx->AFR[position >> 3U] = temp;
 80012fc:	69fb      	ldr	r3, [r7, #28]
 80012fe:	08da      	lsrs	r2, r3, #3
 8001300:	687b      	ldr	r3, [r7, #4]
 8001302:	3208      	adds	r2, #8
 8001304:	69b9      	ldr	r1, [r7, #24]
 8001306:	f843 1022 	str.w	r1, [r3, r2, lsl #2]
      }

      /* Configure IO Direction mode (Input, Output, Alternate or Analog) */
      temp = GPIOx->MODER;
 800130a:	687b      	ldr	r3, [r7, #4]
 800130c:	681b      	ldr	r3, [r3, #0]
 800130e:	61bb      	str	r3, [r7, #24]
      temp &= ~(GPIO_MODER_MODE0 << (position * 2U));
 8001310:	69fb      	ldr	r3, [r7, #28]
 8001312:	005b      	lsls	r3, r3, #1
 8001314:	2203      	movs	r2, #3
 8001316:	fa02 f303 	lsl.w	r3, r2, r3
 800131a:	43db      	mvns	r3, r3
 800131c:	69ba      	ldr	r2, [r7, #24]
 800131e:	4013      	ands	r3, r2
 8001320:	61bb      	str	r3, [r7, #24]
      temp |= ((GPIO_Init->Mode & GPIO_MODE) << (position * 2U));
 8001322:	683b      	ldr	r3, [r7, #0]
 8001324:	685b      	ldr	r3, [r3, #4]
 8001326:	f003 0203 	and.w	r2, r3, #3
 800132a:	69fb      	ldr	r3, [r7, #28]
 800132c:	005b      	lsls	r3, r3, #1
 800132e:	fa02 f303 	lsl.w	r3, r2, r3
 8001332:	69ba      	ldr	r2, [r7, #24]
 8001334:	4313      	orrs	r3, r2
 8001336:	61bb      	str	r3, [r7, #24]
      GPIOx->MODER = temp;
 8001338:	687b      	ldr	r3, [r7, #4]
 800133a:	69ba      	ldr	r2, [r7, #24]
 800133c:	601a      	str	r2, [r3, #0]

      /*--------------------- EXTI Mode Configuration ------------------------*/
      /* Configure the External Interrupt or event for the current IO */
      if ((GPIO_Init->Mode & EXTI_MODE) != 0x00U)
 800133e:	683b      	ldr	r3, [r7, #0]
 8001340:	685b      	ldr	r3, [r3, #4]
 8001342:	f403 3340 	and.w	r3, r3, #196608	; 0x30000
 8001346:	2b00      	cmp	r3, #0
 8001348:	f000 80e0 	beq.w	800150c <HAL_GPIO_Init+0x338>
      {
        /* Enable SYSCFG Clock */
        __HAL_RCC_SYSCFG_CLK_ENABLE();
 800134c:	4b2f      	ldr	r3, [pc, #188]	; (800140c <HAL_GPIO_Init+0x238>)
 800134e:	f8d3 30f4 	ldr.w	r3, [r3, #244]	; 0xf4
 8001352:	4a2e      	ldr	r2, [pc, #184]	; (800140c <HAL_GPIO_Init+0x238>)
 8001354:	f043 0302 	orr.w	r3, r3, #2
 8001358:	f8c2 30f4 	str.w	r3, [r2, #244]	; 0xf4
 800135c:	4b2b      	ldr	r3, [pc, #172]	; (800140c <HAL_GPIO_Init+0x238>)
 800135e:	f8d3 30f4 	ldr.w	r3, [r3, #244]	; 0xf4
 8001362:	f003 0302 	and.w	r3, r3, #2
 8001366:	60fb      	str	r3, [r7, #12]
 8001368:	68fb      	ldr	r3, [r7, #12]

        temp = SYSCFG->EXTICR[position >> 2U];
 800136a:	4a29      	ldr	r2, [pc, #164]	; (8001410 <HAL_GPIO_Init+0x23c>)
 800136c:	69fb      	ldr	r3, [r7, #28]
 800136e:	089b      	lsrs	r3, r3, #2
 8001370:	3302      	adds	r3, #2
 8001372:	f852 3023 	ldr.w	r3, [r2, r3, lsl #2]
 8001376:	61bb      	str	r3, [r7, #24]
        temp &= ~(0x0FUL << (4U * (position & 0x03U)));
 8001378:	69fb      	ldr	r3, [r7, #28]
 800137a:	f003 0303 	and.w	r3, r3, #3
 800137e:	009b      	lsls	r3, r3, #2
 8001380:	220f      	movs	r2, #15
 8001382:	fa02 f303 	lsl.w	r3, r2, r3
 8001386:	43db      	mvns	r3, r3
 8001388:	69ba      	ldr	r2, [r7, #24]
 800138a:	4013      	ands	r3, r2
 800138c:	61bb      	str	r3, [r7, #24]
        temp |= (GPIO_GET_INDEX(GPIOx) << (4U * (position & 0x03U)));
 800138e:	687b      	ldr	r3, [r7, #4]
 8001390:	4a20      	ldr	r2, [pc, #128]	; (8001414 <HAL_GPIO_Init+0x240>)
 8001392:	4293      	cmp	r3, r2
 8001394:	d052      	beq.n	800143c <HAL_GPIO_Init+0x268>
 8001396:	687b      	ldr	r3, [r7, #4]
 8001398:	4a1f      	ldr	r2, [pc, #124]	; (8001418 <HAL_GPIO_Init+0x244>)
 800139a:	4293      	cmp	r3, r2
 800139c:	d031      	beq.n	8001402 <HAL_GPIO_Init+0x22e>
 800139e:	687b      	ldr	r3, [r7, #4]
 80013a0:	4a1e      	ldr	r2, [pc, #120]	; (800141c <HAL_GPIO_Init+0x248>)
 80013a2:	4293      	cmp	r3, r2
 80013a4:	d02b      	beq.n	80013fe <HAL_GPIO_Init+0x22a>
 80013a6:	687b      	ldr	r3, [r7, #4]
 80013a8:	4a1d      	ldr	r2, [pc, #116]	; (8001420 <HAL_GPIO_Init+0x24c>)
 80013aa:	4293      	cmp	r3, r2
 80013ac:	d025      	beq.n	80013fa <HAL_GPIO_Init+0x226>
 80013ae:	687b      	ldr	r3, [r7, #4]
 80013b0:	4a1c      	ldr	r2, [pc, #112]	; (8001424 <HAL_GPIO_Init+0x250>)
 80013b2:	4293      	cmp	r3, r2
 80013b4:	d01f      	beq.n	80013f6 <HAL_GPIO_Init+0x222>
 80013b6:	687b      	ldr	r3, [r7, #4]
 80013b8:	4a1b      	ldr	r2, [pc, #108]	; (8001428 <HAL_GPIO_Init+0x254>)
 80013ba:	4293      	cmp	r3, r2
 80013bc:	d019      	beq.n	80013f2 <HAL_GPIO_Init+0x21e>
 80013be:	687b      	ldr	r3, [r7, #4]
 80013c0:	4a1a      	ldr	r2, [pc, #104]	; (800142c <HAL_GPIO_Init+0x258>)
 80013c2:	4293      	cmp	r3, r2
 80013c4:	d013      	beq.n	80013ee <HAL_GPIO_Init+0x21a>
 80013c6:	687b      	ldr	r3, [r7, #4]
 80013c8:	4a19      	ldr	r2, [pc, #100]	; (8001430 <HAL_GPIO_Init+0x25c>)
 80013ca:	4293      	cmp	r3, r2
 80013cc:	d00d      	beq.n	80013ea <HAL_GPIO_Init+0x216>
 80013ce:	687b      	ldr	r3, [r7, #4]
 80013d0:	4a18      	ldr	r2, [pc, #96]	; (8001434 <HAL_GPIO_Init+0x260>)
 80013d2:	4293      	cmp	r3, r2
 80013d4:	d007      	beq.n	80013e6 <HAL_GPIO_Init+0x212>
 80013d6:	687b      	ldr	r3, [r7, #4]
 80013d8:	4a17      	ldr	r2, [pc, #92]	; (8001438 <HAL_GPIO_Init+0x264>)
 80013da:	4293      	cmp	r3, r2
 80013dc:	d101      	bne.n	80013e2 <HAL_GPIO_Init+0x20e>
 80013de:	2309      	movs	r3, #9
 80013e0:	e02d      	b.n	800143e <HAL_GPIO_Init+0x26a>
 80013e2:	230a      	movs	r3, #10
 80013e4:	e02b      	b.n	800143e <HAL_GPIO_Init+0x26a>
 80013e6:	2308      	movs	r3, #8
 80013e8:	e029      	b.n	800143e <HAL_GPIO_Init+0x26a>
 80013ea:	2307      	movs	r3, #7
 80013ec:	e027      	b.n	800143e <HAL_GPIO_Init+0x26a>
 80013ee:	2306      	movs	r3, #6
 80013f0:	e025      	b.n	800143e <HAL_GPIO_Init+0x26a>
 80013f2:	2305      	movs	r3, #5
 80013f4:	e023      	b.n	800143e <HAL_GPIO_Init+0x26a>
 80013f6:	2304      	movs	r3, #4
 80013f8:	e021      	b.n	800143e <HAL_GPIO_Init+0x26a>
 80013fa:	2303      	movs	r3, #3
 80013fc:	e01f      	b.n	800143e <HAL_GPIO_Init+0x26a>
 80013fe:	2302      	movs	r3, #2
 8001400:	e01d      	b.n	800143e <HAL_GPIO_Init+0x26a>
 8001402:	2301      	movs	r3, #1
 8001404:	e01b      	b.n	800143e <HAL_GPIO_Init+0x26a>
 8001406:	bf00      	nop
 8001408:	58000080 	.word	0x58000080
 800140c:	58024400 	.word	0x58024400
 8001410:	58000400 	.word	0x58000400
 8001414:	58020000 	.word	0x58020000
 8001418:	58020400 	.word	0x58020400
 800141c:	58020800 	.word	0x58020800
 8001420:	58020c00 	.word	0x58020c00
 8001424:	58021000 	.word	0x58021000
 8001428:	58021400 	.word	0x58021400
 800142c:	58021800 	.word	0x58021800
 8001430:	58021c00 	.word	0x58021c00
 8001434:	58022000 	.word	0x58022000
 8001438:	58022400 	.word	0x58022400
 800143c:	2300      	movs	r3, #0
 800143e:	69fa      	ldr	r2, [r7, #28]
 8001440:	f002 0203 	and.w	r2, r2, #3
 8001444:	0092      	lsls	r2, r2, #2
 8001446:	4093      	lsls	r3, r2
 8001448:	69ba      	ldr	r2, [r7, #24]
 800144a:	4313      	orrs	r3, r2
 800144c:	61bb      	str	r3, [r7, #24]
        SYSCFG->EXTICR[position >> 2U] = temp;
 800144e:	4938      	ldr	r1, [pc, #224]	; (8001530 <HAL_GPIO_Init+0x35c>)
 8001450:	69fb      	ldr	r3, [r7, #28]
 8001452:	089b      	lsrs	r3, r3, #2
 8001454:	3302      	adds	r3, #2
 8001456:	69ba      	ldr	r2, [r7, #24]
 8001458:	f841 2023 	str.w	r2, [r1, r3, lsl #2]

        /* Clear Rising Falling edge configuration */
        temp = EXTI->RTSR1;
 800145c:	f04f 43b0 	mov.w	r3, #1476395008	; 0x58000000
 8001460:	681b      	ldr	r3, [r3, #0]
 8001462:	61bb      	str	r3, [r7, #24]
        temp &= ~(iocurrent);
 8001464:	693b      	ldr	r3, [r7, #16]
 8001466:	43db      	mvns	r3, r3
 8001468:	69ba      	ldr	r2, [r7, #24]
 800146a:	4013      	ands	r3, r2
 800146c:	61bb      	str	r3, [r7, #24]
        if ((GPIO_Init->Mode & TRIGGER_RISING) != 0x00U)
 800146e:	683b      	ldr	r3, [r7, #0]
 8001470:	685b      	ldr	r3, [r3, #4]
 8001472:	f403 1380 	and.w	r3, r3, #1048576	; 0x100000
 8001476:	2b00      	cmp	r3, #0
 8001478:	d003      	beq.n	8001482 <HAL_GPIO_Init+0x2ae>
        {
          temp |= iocurrent;
 800147a:	69ba      	ldr	r2, [r7, #24]
 800147c:	693b      	ldr	r3, [r7, #16]
 800147e:	4313      	orrs	r3, r2
 8001480:	61bb      	str	r3, [r7, #24]
        }
        EXTI->RTSR1 = temp;
 8001482:	f04f 42b0 	mov.w	r2, #1476395008	; 0x58000000
 8001486:	69bb      	ldr	r3, [r7, #24]
 8001488:	6013      	str	r3, [r2, #0]

        temp = EXTI->FTSR1;
 800148a:	f04f 43b0 	mov.w	r3, #1476395008	; 0x58000000
 800148e:	685b      	ldr	r3, [r3, #4]
 8001490:	61bb      	str	r3, [r7, #24]
        temp &= ~(iocurrent);
 8001492:	693b      	ldr	r3, [r7, #16]
 8001494:	43db      	mvns	r3, r3
 8001496:	69ba      	ldr	r2, [r7, #24]
 8001498:	4013      	ands	r3, r2
 800149a:	61bb      	str	r3, [r7, #24]
        if ((GPIO_Init->Mode & TRIGGER_FALLING) != 0x00U)
 800149c:	683b      	ldr	r3, [r7, #0]
 800149e:	685b      	ldr	r3, [r3, #4]
 80014a0:	f403 1300 	and.w	r3, r3, #2097152	; 0x200000
 80014a4:	2b00      	cmp	r3, #0
 80014a6:	d003      	beq.n	80014b0 <HAL_GPIO_Init+0x2dc>
        {
          temp |= iocurrent;
 80014a8:	69ba      	ldr	r2, [r7, #24]
 80014aa:	693b      	ldr	r3, [r7, #16]
 80014ac:	4313      	orrs	r3, r2
 80014ae:	61bb      	str	r3, [r7, #24]
        }
        EXTI->FTSR1 = temp;
 80014b0:	f04f 42b0 	mov.w	r2, #1476395008	; 0x58000000
 80014b4:	69bb      	ldr	r3, [r7, #24]
 80014b6:	6053      	str	r3, [r2, #4]

        temp = EXTI_CurrentCPU->EMR1;
 80014b8:	697b      	ldr	r3, [r7, #20]
 80014ba:	685b      	ldr	r3, [r3, #4]
 80014bc:	61bb      	str	r3, [r7, #24]
        temp &= ~(iocurrent);
 80014be:	693b      	ldr	r3, [r7, #16]
 80014c0:	43db      	mvns	r3, r3
 80014c2:	69ba      	ldr	r2, [r7, #24]
 80014c4:	4013      	ands	r3, r2
 80014c6:	61bb      	str	r3, [r7, #24]
        if ((GPIO_Init->Mode & EXTI_EVT) != 0x00U)
 80014c8:	683b      	ldr	r3, [r7, #0]
 80014ca:	685b      	ldr	r3, [r3, #4]
 80014cc:	f403 3300 	and.w	r3, r3, #131072	; 0x20000
 80014d0:	2b00      	cmp	r3, #0
 80014d2:	d003      	beq.n	80014dc <HAL_GPIO_Init+0x308>
        {
          temp |= iocurrent;
 80014d4:	69ba      	ldr	r2, [r7, #24]
 80014d6:	693b      	ldr	r3, [r7, #16]
 80014d8:	4313      	orrs	r3, r2
 80014da:	61bb      	str	r3, [r7, #24]
        }
        EXTI_CurrentCPU->EMR1 = temp;
 80014dc:	697b      	ldr	r3, [r7, #20]
 80014de:	69ba      	ldr	r2, [r7, #24]
 80014e0:	605a      	str	r2, [r3, #4]

        /* Clear EXTI line configuration */
        temp = EXTI_CurrentCPU->IMR1;
 80014e2:	697b      	ldr	r3, [r7, #20]
 80014e4:	681b      	ldr	r3, [r3, #0]
 80014e6:	61bb      	str	r3, [r7, #24]
        temp &= ~(iocurrent);
 80014e8:	693b      	ldr	r3, [r7, #16]
 80014ea:	43db      	mvns	r3, r3
 80014ec:	69ba      	ldr	r2, [r7, #24]
 80014ee:	4013      	ands	r3, r2
 80014f0:	61bb      	str	r3, [r7, #24]
        if ((GPIO_Init->Mode & EXTI_IT) != 0x00U)
 80014f2:	683b      	ldr	r3, [r7, #0]
 80014f4:	685b      	ldr	r3, [r3, #4]
 80014f6:	f403 3380 	and.w	r3, r3, #65536	; 0x10000
 80014fa:	2b00      	cmp	r3, #0
 80014fc:	d003      	beq.n	8001506 <HAL_GPIO_Init+0x332>
        {
          temp |= iocurrent;
 80014fe:	69ba      	ldr	r2, [r7, #24]
 8001500:	693b      	ldr	r3, [r7, #16]
 8001502:	4313      	orrs	r3, r2
 8001504:	61bb      	str	r3, [r7, #24]
        }
        EXTI_CurrentCPU->IMR1 = temp;
 8001506:	697b      	ldr	r3, [r7, #20]
 8001508:	69ba      	ldr	r2, [r7, #24]
 800150a:	601a      	str	r2, [r3, #0]
      }
    }

    position++;
 800150c:	69fb      	ldr	r3, [r7, #28]
 800150e:	3301      	adds	r3, #1
 8001510:	61fb      	str	r3, [r7, #28]
  while (((GPIO_Init->Pin) >> position) != 0x00U)
 8001512:	683b      	ldr	r3, [r7, #0]
 8001514:	681a      	ldr	r2, [r3, #0]
 8001516:	69fb      	ldr	r3, [r7, #28]
 8001518:	fa22 f303 	lsr.w	r3, r2, r3
 800151c:	2b00      	cmp	r3, #0
 800151e:	f47f ae63 	bne.w	80011e8 <HAL_GPIO_Init+0x14>
  }
}
 8001522:	bf00      	nop
 8001524:	bf00      	nop
 8001526:	3724      	adds	r7, #36	; 0x24
 8001528:	46bd      	mov	sp, r7
 800152a:	f85d 7b04 	ldr.w	r7, [sp], #4
 800152e:	4770      	bx	lr
 8001530:	58000400 	.word	0x58000400

08001534 <HAL_PCD_Init>:
  *         parameters in the PCD_InitTypeDef and initialize the associated handle.
  * @param  hpcd PCD handle
  * @retval HAL status
  */
HAL_StatusTypeDef HAL_PCD_Init(PCD_HandleTypeDef *hpcd)
{
 8001534:	b5f0      	push	{r4, r5, r6, r7, lr}
 8001536:	b08f      	sub	sp, #60	; 0x3c
 8001538:	af0a      	add	r7, sp, #40	; 0x28
 800153a:	6078      	str	r0, [r7, #4]
  USB_OTG_GlobalTypeDef *USBx;
  uint8_t i;

  /* Check the PCD handle allocation */
  if (hpcd == NULL)
 800153c:	687b      	ldr	r3, [r7, #4]
 800153e:	2b00      	cmp	r3, #0
 8001540:	d101      	bne.n	8001546 <HAL_PCD_Init+0x12>
  {
    return HAL_ERROR;
 8001542:	2301      	movs	r3, #1
 8001544:	e116      	b.n	8001774 <HAL_PCD_Init+0x240>
  }

  /* Check the parameters */
  assert_param(IS_PCD_ALL_INSTANCE(hpcd->Instance));

  USBx = hpcd->Instance;
 8001546:	687b      	ldr	r3, [r7, #4]
 8001548:	681b      	ldr	r3, [r3, #0]
 800154a:	60bb      	str	r3, [r7, #8]

  if (hpcd->State == HAL_PCD_STATE_RESET)
 800154c:	687b      	ldr	r3, [r7, #4]
 800154e:	f893 34bd 	ldrb.w	r3, [r3, #1213]	; 0x4bd
 8001552:	b2db      	uxtb	r3, r3
 8001554:	2b00      	cmp	r3, #0
 8001556:	d106      	bne.n	8001566 <HAL_PCD_Init+0x32>
  {
    /* Allocate lock resource and initialize it */
    hpcd->Lock = HAL_UNLOCKED;
 8001558:	687b      	ldr	r3, [r7, #4]
 800155a:	2200      	movs	r2, #0
 800155c:	f883 24bc 	strb.w	r2, [r3, #1212]	; 0x4bc

    /* Init the low level hardware */
    hpcd->MspInitCallback(hpcd);
#else
    /* Init the low level hardware : GPIO, CLOCK, NVIC... */
    HAL_PCD_MspInit(hpcd);
 8001560:	6878      	ldr	r0, [r7, #4]
 8001562:	f007 f9e7 	bl	8008934 <HAL_PCD_MspInit>
#endif /* (USE_HAL_PCD_REGISTER_CALLBACKS) */
  }

  hpcd->State = HAL_PCD_STATE_BUSY;
 8001566:	687b      	ldr	r3, [r7, #4]
 8001568:	2203      	movs	r2, #3
 800156a:	f883 24bd 	strb.w	r2, [r3, #1213]	; 0x4bd

  /* Disable DMA mode for FS instance */
  if ((USBx->CID & (0x1U << 8)) == 0U)
 800156e:	68bb      	ldr	r3, [r7, #8]
 8001570:	6bdb      	ldr	r3, [r3, #60]	; 0x3c
 8001572:	f403 7380 	and.w	r3, r3, #256	; 0x100
 8001576:	2b00      	cmp	r3, #0
 8001578:	d102      	bne.n	8001580 <HAL_PCD_Init+0x4c>
  {
    hpcd->Init.dma_enable = 0U;
 800157a:	687b      	ldr	r3, [r7, #4]
 800157c:	2200      	movs	r2, #0
 800157e:	60da      	str	r2, [r3, #12]
  }

  /* Disable the Interrupts */
  __HAL_PCD_DISABLE(hpcd);
 8001580:	687b      	ldr	r3, [r7, #4]
 8001582:	681b      	ldr	r3, [r3, #0]
 8001584:	4618      	mov	r0, r3
 8001586:	f003 ff22 	bl	80053ce <USB_DisableGlobalInt>

  /*Init the Core (common init.) */
  if (USB_CoreInit(hpcd->Instance, hpcd->Init) != HAL_OK)
 800158a:	687b      	ldr	r3, [r7, #4]
 800158c:	681b      	ldr	r3, [r3, #0]
 800158e:	603b      	str	r3, [r7, #0]
 8001590:	687e      	ldr	r6, [r7, #4]
 8001592:	466d      	mov	r5, sp
 8001594:	f106 0410 	add.w	r4, r6, #16
 8001598:	cc0f      	ldmia	r4!, {r0, r1, r2, r3}
 800159a:	c50f      	stmia	r5!, {r0, r1, r2, r3}
 800159c:	cc0f      	ldmia	r4!, {r0, r1, r2, r3}
 800159e:	c50f      	stmia	r5!, {r0, r1, r2, r3}
 80015a0:	e894 0003 	ldmia.w	r4, {r0, r1}
 80015a4:	e885 0003 	stmia.w	r5, {r0, r1}
 80015a8:	1d33      	adds	r3, r6, #4
 80015aa:	cb0e      	ldmia	r3, {r1, r2, r3}
 80015ac:	6838      	ldr	r0, [r7, #0]
 80015ae:	f003 fded 	bl	800518c <USB_CoreInit>
 80015b2:	4603      	mov	r3, r0
 80015b4:	2b00      	cmp	r3, #0
 80015b6:	d005      	beq.n	80015c4 <HAL_PCD_Init+0x90>
  {
    hpcd->State = HAL_PCD_STATE_ERROR;
 80015b8:	687b      	ldr	r3, [r7, #4]
 80015ba:	2202      	movs	r2, #2
 80015bc:	f883 24bd 	strb.w	r2, [r3, #1213]	; 0x4bd
    return HAL_ERROR;
 80015c0:	2301      	movs	r3, #1
 80015c2:	e0d7      	b.n	8001774 <HAL_PCD_Init+0x240>
  }

  /* Force Device Mode*/
  (void)USB_SetCurrentMode(hpcd->Instance, USB_DEVICE_MODE);
 80015c4:	687b      	ldr	r3, [r7, #4]
 80015c6:	681b      	ldr	r3, [r3, #0]
 80015c8:	2100      	movs	r1, #0
 80015ca:	4618      	mov	r0, r3
 80015cc:	f003 ff10 	bl	80053f0 <USB_SetCurrentMode>

  /* Init endpoints structures */
  for (i = 0U; i < hpcd->Init.dev_endpoints; i++)
 80015d0:	2300      	movs	r3, #0
 80015d2:	73fb      	strb	r3, [r7, #15]
 80015d4:	e04a      	b.n	800166c <HAL_PCD_Init+0x138>
  {
    /* Init ep structure */
    hpcd->IN_ep[i].is_in = 1U;
 80015d6:	7bfa      	ldrb	r2, [r7, #15]
 80015d8:	6879      	ldr	r1, [r7, #4]
 80015da:	4613      	mov	r3, r2
 80015dc:	00db      	lsls	r3, r3, #3
 80015de:	4413      	add	r3, r2
 80015e0:	009b      	lsls	r3, r3, #2
 80015e2:	440b      	add	r3, r1
 80015e4:	333d      	adds	r3, #61	; 0x3d
 80015e6:	2201      	movs	r2, #1
 80015e8:	701a      	strb	r2, [r3, #0]
    hpcd->IN_ep[i].num = i;
 80015ea:	7bfa      	ldrb	r2, [r7, #15]
 80015ec:	6879      	ldr	r1, [r7, #4]
 80015ee:	4613      	mov	r3, r2
 80015f0:	00db      	lsls	r3, r3, #3
 80015f2:	4413      	add	r3, r2
 80015f4:	009b      	lsls	r3, r3, #2
 80015f6:	440b      	add	r3, r1
 80015f8:	333c      	adds	r3, #60	; 0x3c
 80015fa:	7bfa      	ldrb	r2, [r7, #15]
 80015fc:	701a      	strb	r2, [r3, #0]
    hpcd->IN_ep[i].tx_fifo_num = i;
 80015fe:	7bfa      	ldrb	r2, [r7, #15]
 8001600:	7bfb      	ldrb	r3, [r7, #15]
 8001602:	b298      	uxth	r0, r3
 8001604:	6879      	ldr	r1, [r7, #4]
 8001606:	4613      	mov	r3, r2
 8001608:	00db      	lsls	r3, r3, #3
 800160a:	4413      	add	r3, r2
 800160c:	009b      	lsls	r3, r3, #2
 800160e:	440b      	add	r3, r1
 8001610:	3356      	adds	r3, #86	; 0x56
 8001612:	4602      	mov	r2, r0
 8001614:	801a      	strh	r2, [r3, #0]
    /* Control until ep is activated */
    hpcd->IN_ep[i].type = EP_TYPE_CTRL;
 8001616:	7bfa      	ldrb	r2, [r7, #15]
 8001618:	6879      	ldr	r1, [r7, #4]
 800161a:	4613      	mov	r3, r2
 800161c:	00db      	lsls	r3, r3, #3
 800161e:	4413      	add	r3, r2
 8001620:	009b      	lsls	r3, r3, #2
 8001622:	440b      	add	r3, r1
 8001624:	3340      	adds	r3, #64	; 0x40
 8001626:	2200      	movs	r2, #0
 8001628:	701a      	strb	r2, [r3, #0]
    hpcd->IN_ep[i].maxpacket = 0U;
 800162a:	7bfa      	ldrb	r2, [r7, #15]
 800162c:	6879      	ldr	r1, [r7, #4]
 800162e:	4613      	mov	r3, r2
 8001630:	00db      	lsls	r3, r3, #3
 8001632:	4413      	add	r3, r2
 8001634:	009b      	lsls	r3, r3, #2
 8001636:	440b      	add	r3, r1
 8001638:	3344      	adds	r3, #68	; 0x44
 800163a:	2200      	movs	r2, #0
 800163c:	601a      	str	r2, [r3, #0]
    hpcd->IN_ep[i].xfer_buff = 0U;
 800163e:	7bfa      	ldrb	r2, [r7, #15]
 8001640:	6879      	ldr	r1, [r7, #4]
 8001642:	4613      	mov	r3, r2
 8001644:	00db      	lsls	r3, r3, #3
 8001646:	4413      	add	r3, r2
 8001648:	009b      	lsls	r3, r3, #2
 800164a:	440b      	add	r3, r1
 800164c:	3348      	adds	r3, #72	; 0x48
 800164e:	2200      	movs	r2, #0
 8001650:	601a      	str	r2, [r3, #0]
    hpcd->IN_ep[i].xfer_len = 0U;
 8001652:	7bfa      	ldrb	r2, [r7, #15]
 8001654:	6879      	ldr	r1, [r7, #4]
 8001656:	4613      	mov	r3, r2
 8001658:	00db      	lsls	r3, r3, #3
 800165a:	4413      	add	r3, r2
 800165c:	009b      	lsls	r3, r3, #2
 800165e:	440b      	add	r3, r1
 8001660:	334c      	adds	r3, #76	; 0x4c
 8001662:	2200      	movs	r2, #0
 8001664:	601a      	str	r2, [r3, #0]
  for (i = 0U; i < hpcd->Init.dev_endpoints; i++)
 8001666:	7bfb      	ldrb	r3, [r7, #15]
 8001668:	3301      	adds	r3, #1
 800166a:	73fb      	strb	r3, [r7, #15]
 800166c:	7bfa      	ldrb	r2, [r7, #15]
 800166e:	687b      	ldr	r3, [r7, #4]
 8001670:	685b      	ldr	r3, [r3, #4]
 8001672:	429a      	cmp	r2, r3
 8001674:	d3af      	bcc.n	80015d6 <HAL_PCD_Init+0xa2>
  }

  for (i = 0U; i < hpcd->Init.dev_endpoints; i++)
 8001676:	2300      	movs	r3, #0
 8001678:	73fb      	strb	r3, [r7, #15]
 800167a:	e044      	b.n	8001706 <HAL_PCD_Init+0x1d2>
  {
    hpcd->OUT_ep[i].is_in = 0U;
 800167c:	7bfa      	ldrb	r2, [r7, #15]
 800167e:	6879      	ldr	r1, [r7, #4]
 8001680:	4613      	mov	r3, r2
 8001682:	00db      	lsls	r3, r3, #3
 8001684:	4413      	add	r3, r2
 8001686:	009b      	lsls	r3, r3, #2
 8001688:	440b      	add	r3, r1
 800168a:	f203 237d 	addw	r3, r3, #637	; 0x27d
 800168e:	2200      	movs	r2, #0
 8001690:	701a      	strb	r2, [r3, #0]
    hpcd->OUT_ep[i].num = i;
 8001692:	7bfa      	ldrb	r2, [r7, #15]
 8001694:	6879      	ldr	r1, [r7, #4]
 8001696:	4613      	mov	r3, r2
 8001698:	00db      	lsls	r3, r3, #3
 800169a:	4413      	add	r3, r2
 800169c:	009b      	lsls	r3, r3, #2
 800169e:	440b      	add	r3, r1
 80016a0:	f503 731f 	add.w	r3, r3, #636	; 0x27c
 80016a4:	7bfa      	ldrb	r2, [r7, #15]
 80016a6:	701a      	strb	r2, [r3, #0]
    /* Control until ep is activated */
    hpcd->OUT_ep[i].type = EP_TYPE_CTRL;
 80016a8:	7bfa      	ldrb	r2, [r7, #15]
 80016aa:	6879      	ldr	r1, [r7, #4]
 80016ac:	4613      	mov	r3, r2
 80016ae:	00db      	lsls	r3, r3, #3
 80016b0:	4413      	add	r3, r2
 80016b2:	009b      	lsls	r3, r3, #2
 80016b4:	440b      	add	r3, r1
 80016b6:	f503 7320 	add.w	r3, r3, #640	; 0x280
 80016ba:	2200      	movs	r2, #0
 80016bc:	701a      	strb	r2, [r3, #0]
    hpcd->OUT_ep[i].maxpacket = 0U;
 80016be:	7bfa      	ldrb	r2, [r7, #15]
 80016c0:	6879      	ldr	r1, [r7, #4]
 80016c2:	4613      	mov	r3, r2
 80016c4:	00db      	lsls	r3, r3, #3
 80016c6:	4413      	add	r3, r2
 80016c8:	009b      	lsls	r3, r3, #2
 80016ca:	440b      	add	r3, r1
 80016cc:	f503 7321 	add.w	r3, r3, #644	; 0x284
 80016d0:	2200      	movs	r2, #0
 80016d2:	601a      	str	r2, [r3, #0]
    hpcd->OUT_ep[i].xfer_buff = 0U;
 80016d4:	7bfa      	ldrb	r2, [r7, #15]
 80016d6:	6879      	ldr	r1, [r7, #4]
 80016d8:	4613      	mov	r3, r2
 80016da:	00db      	lsls	r3, r3, #3
 80016dc:	4413      	add	r3, r2
 80016de:	009b      	lsls	r3, r3, #2
 80016e0:	440b      	add	r3, r1
 80016e2:	f503 7322 	add.w	r3, r3, #648	; 0x288
 80016e6:	2200      	movs	r2, #0
 80016e8:	601a      	str	r2, [r3, #0]
    hpcd->OUT_ep[i].xfer_len = 0U;
 80016ea:	7bfa      	ldrb	r2, [r7, #15]
 80016ec:	6879      	ldr	r1, [r7, #4]
 80016ee:	4613      	mov	r3, r2
 80016f0:	00db      	lsls	r3, r3, #3
 80016f2:	4413      	add	r3, r2
 80016f4:	009b      	lsls	r3, r3, #2
 80016f6:	440b      	add	r3, r1
 80016f8:	f503 7323 	add.w	r3, r3, #652	; 0x28c
 80016fc:	2200      	movs	r2, #0
 80016fe:	601a      	str	r2, [r3, #0]
  for (i = 0U; i < hpcd->Init.dev_endpoints; i++)
 8001700:	7bfb      	ldrb	r3, [r7, #15]
 8001702:	3301      	adds	r3, #1
 8001704:	73fb      	strb	r3, [r7, #15]
 8001706:	7bfa      	ldrb	r2, [r7, #15]
 8001708:	687b      	ldr	r3, [r7, #4]
 800170a:	685b      	ldr	r3, [r3, #4]
 800170c:	429a      	cmp	r2, r3
 800170e:	d3b5      	bcc.n	800167c <HAL_PCD_Init+0x148>
  }

  /* Init Device */
  if (USB_DevInit(hpcd->Instance, hpcd->Init) != HAL_OK)
 8001710:	687b      	ldr	r3, [r7, #4]
 8001712:	681b      	ldr	r3, [r3, #0]
 8001714:	603b      	str	r3, [r7, #0]
 8001716:	687e      	ldr	r6, [r7, #4]
 8001718:	466d      	mov	r5, sp
 800171a:	f106 0410 	add.w	r4, r6, #16
 800171e:	cc0f      	ldmia	r4!, {r0, r1, r2, r3}
 8001720:	c50f      	stmia	r5!, {r0, r1, r2, r3}
 8001722:	cc0f      	ldmia	r4!, {r0, r1, r2, r3}
 8001724:	c50f      	stmia	r5!, {r0, r1, r2, r3}
 8001726:	e894 0003 	ldmia.w	r4, {r0, r1}
 800172a:	e885 0003 	stmia.w	r5, {r0, r1}
 800172e:	1d33      	adds	r3, r6, #4
 8001730:	cb0e      	ldmia	r3, {r1, r2, r3}
 8001732:	6838      	ldr	r0, [r7, #0]
 8001734:	f003 fea8 	bl	8005488 <USB_DevInit>
 8001738:	4603      	mov	r3, r0
 800173a:	2b00      	cmp	r3, #0
 800173c:	d005      	beq.n	800174a <HAL_PCD_Init+0x216>
  {
    hpcd->State = HAL_PCD_STATE_ERROR;
 800173e:	687b      	ldr	r3, [r7, #4]
 8001740:	2202      	movs	r2, #2
 8001742:	f883 24bd 	strb.w	r2, [r3, #1213]	; 0x4bd
    return HAL_ERROR;
 8001746:	2301      	movs	r3, #1
 8001748:	e014      	b.n	8001774 <HAL_PCD_Init+0x240>
  }

  hpcd->USB_Address = 0U;
 800174a:	687b      	ldr	r3, [r7, #4]
 800174c:	2200      	movs	r2, #0
 800174e:	f883 2038 	strb.w	r2, [r3, #56]	; 0x38
  hpcd->State = HAL_PCD_STATE_READY;
 8001752:	687b      	ldr	r3, [r7, #4]
 8001754:	2201      	movs	r2, #1
 8001756:	f883 24bd 	strb.w	r2, [r3, #1213]	; 0x4bd

  /* Activate LPM */
  if (hpcd->Init.lpm_enable == 1U)
 800175a:	687b      	ldr	r3, [r7, #4]
 800175c:	6a5b      	ldr	r3, [r3, #36]	; 0x24
 800175e:	2b01      	cmp	r3, #1
 8001760:	d102      	bne.n	8001768 <HAL_PCD_Init+0x234>
  {
    (void)HAL_PCDEx_ActivateLPM(hpcd);
 8001762:	6878      	ldr	r0, [r7, #4]
 8001764:	f001 f970 	bl	8002a48 <HAL_PCDEx_ActivateLPM>
  }

  (void)USB_DevDisconnect(hpcd->Instance);
 8001768:	687b      	ldr	r3, [r7, #4]
 800176a:	681b      	ldr	r3, [r3, #0]
 800176c:	4618      	mov	r0, r3
 800176e:	f004 feea 	bl	8006546 <USB_DevDisconnect>

  return HAL_OK;
 8001772:	2300      	movs	r3, #0
}
 8001774:	4618      	mov	r0, r3
 8001776:	3714      	adds	r7, #20
 8001778:	46bd      	mov	sp, r7
 800177a:	bdf0      	pop	{r4, r5, r6, r7, pc}

0800177c <HAL_PCD_Start>:
  * @brief  Start the USB device
  * @param  hpcd PCD handle
  * @retval HAL status
  */
HAL_StatusTypeDef HAL_PCD_Start(PCD_HandleTypeDef *hpcd)
{
 800177c:	b580      	push	{r7, lr}
 800177e:	b084      	sub	sp, #16
 8001780:	af00      	add	r7, sp, #0
 8001782:	6078      	str	r0, [r7, #4]
  USB_OTG_GlobalTypeDef *USBx = hpcd->Instance;
 8001784:	687b      	ldr	r3, [r7, #4]
 8001786:	681b      	ldr	r3, [r3, #0]
 8001788:	60fb      	str	r3, [r7, #12]

  __HAL_LOCK(hpcd);
 800178a:	687b      	ldr	r3, [r7, #4]
 800178c:	f893 34bc 	ldrb.w	r3, [r3, #1212]	; 0x4bc
 8001790:	2b01      	cmp	r3, #1
 8001792:	d101      	bne.n	8001798 <HAL_PCD_Start+0x1c>
 8001794:	2302      	movs	r3, #2
 8001796:	e022      	b.n	80017de <HAL_PCD_Start+0x62>
 8001798:	687b      	ldr	r3, [r7, #4]
 800179a:	2201      	movs	r2, #1
 800179c:	f883 24bc 	strb.w	r2, [r3, #1212]	; 0x4bc

  if (((USBx->CID & (0x1U << 8)) == 0U) &&
 80017a0:	68fb      	ldr	r3, [r7, #12]
 80017a2:	6bdb      	ldr	r3, [r3, #60]	; 0x3c
 80017a4:	f403 7380 	and.w	r3, r3, #256	; 0x100
 80017a8:	2b00      	cmp	r3, #0
 80017aa:	d109      	bne.n	80017c0 <HAL_PCD_Start+0x44>
      (hpcd->Init.battery_charging_enable == 1U))
 80017ac:	687b      	ldr	r3, [r7, #4]
 80017ae:	6a9b      	ldr	r3, [r3, #40]	; 0x28
  if (((USBx->CID & (0x1U << 8)) == 0U) &&
 80017b0:	2b01      	cmp	r3, #1
 80017b2:	d105      	bne.n	80017c0 <HAL_PCD_Start+0x44>
  {
    /* Enable USB Transceiver */
    USBx->GCCFG |= USB_OTG_GCCFG_PWRDWN;
 80017b4:	68fb      	ldr	r3, [r7, #12]
 80017b6:	6b9b      	ldr	r3, [r3, #56]	; 0x38
 80017b8:	f443 3280 	orr.w	r2, r3, #65536	; 0x10000
 80017bc:	68fb      	ldr	r3, [r7, #12]
 80017be:	639a      	str	r2, [r3, #56]	; 0x38
  }

  __HAL_PCD_ENABLE(hpcd);
 80017c0:	687b      	ldr	r3, [r7, #4]
 80017c2:	681b      	ldr	r3, [r3, #0]
 80017c4:	4618      	mov	r0, r3
 80017c6:	f003 fdf1 	bl	80053ac <USB_EnableGlobalInt>
  (void)USB_DevConnect(hpcd->Instance);
 80017ca:	687b      	ldr	r3, [r7, #4]
 80017cc:	681b      	ldr	r3, [r3, #0]
 80017ce:	4618      	mov	r0, r3
 80017d0:	f004 fe98 	bl	8006504 <USB_DevConnect>
  __HAL_UNLOCK(hpcd);
 80017d4:	687b      	ldr	r3, [r7, #4]
 80017d6:	2200      	movs	r2, #0
 80017d8:	f883 24bc 	strb.w	r2, [r3, #1212]	; 0x4bc

  return HAL_OK;
 80017dc:	2300      	movs	r3, #0
}
 80017de:	4618      	mov	r0, r3
 80017e0:	3710      	adds	r7, #16
 80017e2:	46bd      	mov	sp, r7
 80017e4:	bd80      	pop	{r7, pc}

080017e6 <HAL_PCD_IRQHandler>:
  * @brief  Handles PCD interrupt request.
  * @param  hpcd PCD handle
  * @retval HAL status
  */
void HAL_PCD_IRQHandler(PCD_HandleTypeDef *hpcd)
{
 80017e6:	b590      	push	{r4, r7, lr}
 80017e8:	b08d      	sub	sp, #52	; 0x34
 80017ea:	af00      	add	r7, sp, #0
 80017ec:	6078      	str	r0, [r7, #4]
  USB_OTG_GlobalTypeDef *USBx = hpcd->Instance;
 80017ee:	687b      	ldr	r3, [r7, #4]
 80017f0:	681b      	ldr	r3, [r3, #0]
 80017f2:	623b      	str	r3, [r7, #32]
  uint32_t USBx_BASE = (uint32_t)USBx;
 80017f4:	6a3b      	ldr	r3, [r7, #32]
 80017f6:	61fb      	str	r3, [r7, #28]
  uint32_t epnum;
  uint32_t fifoemptymsk;
  uint32_t RegVal;

  /* ensure that we are in device mode */
  if (USB_GetMode(hpcd->Instance) == USB_OTG_MODE_DEVICE)
 80017f8:	687b      	ldr	r3, [r7, #4]
 80017fa:	681b      	ldr	r3, [r3, #0]
 80017fc:	4618      	mov	r0, r3
 80017fe:	f004 ff56 	bl	80066ae <USB_GetMode>
 8001802:	4603      	mov	r3, r0
 8001804:	2b00      	cmp	r3, #0
 8001806:	f040 84b7 	bne.w	8002178 <HAL_PCD_IRQHandler+0x992>
  {
    /* avoid spurious interrupt */
    if (__HAL_PCD_IS_INVALID_INTERRUPT(hpcd))
 800180a:	687b      	ldr	r3, [r7, #4]
 800180c:	681b      	ldr	r3, [r3, #0]
 800180e:	4618      	mov	r0, r3
 8001810:	f004 feba 	bl	8006588 <USB_ReadInterrupts>
 8001814:	4603      	mov	r3, r0
 8001816:	2b00      	cmp	r3, #0
 8001818:	f000 84ad 	beq.w	8002176 <HAL_PCD_IRQHandler+0x990>
    {
      return;
    }

    /* store current frame number */
    hpcd->FrameNumber = (USBx_DEVICE->DSTS & USB_OTG_DSTS_FNSOF_Msk) >> USB_OTG_DSTS_FNSOF_Pos;
 800181c:	69fb      	ldr	r3, [r7, #28]
 800181e:	f503 6300 	add.w	r3, r3, #2048	; 0x800
 8001822:	689b      	ldr	r3, [r3, #8]
 8001824:	0a1b      	lsrs	r3, r3, #8
 8001826:	f3c3 020d 	ubfx	r2, r3, #0, #14
 800182a:	687b      	ldr	r3, [r7, #4]
 800182c:	f8c3 24fc 	str.w	r2, [r3, #1276]	; 0x4fc

    if (__HAL_PCD_GET_FLAG(hpcd, USB_OTG_GINTSTS_MMIS))
 8001830:	687b      	ldr	r3, [r7, #4]
 8001832:	681b      	ldr	r3, [r3, #0]
 8001834:	4618      	mov	r0, r3
 8001836:	f004 fea7 	bl	8006588 <USB_ReadInterrupts>
 800183a:	4603      	mov	r3, r0
 800183c:	f003 0302 	and.w	r3, r3, #2
 8001840:	2b02      	cmp	r3, #2
 8001842:	d107      	bne.n	8001854 <HAL_PCD_IRQHandler+0x6e>
    {
      /* incorrect mode, acknowledge the interrupt */
      __HAL_PCD_CLEAR_FLAG(hpcd, USB_OTG_GINTSTS_MMIS);
 8001844:	687b      	ldr	r3, [r7, #4]
 8001846:	681b      	ldr	r3, [r3, #0]
 8001848:	695a      	ldr	r2, [r3, #20]
 800184a:	687b      	ldr	r3, [r7, #4]
 800184c:	681b      	ldr	r3, [r3, #0]
 800184e:	f002 0202 	and.w	r2, r2, #2
 8001852:	615a      	str	r2, [r3, #20]
    }

    /* Handle RxQLevel Interrupt */
    if (__HAL_PCD_GET_FLAG(hpcd, USB_OTG_GINTSTS_RXFLVL))
 8001854:	687b      	ldr	r3, [r7, #4]
 8001856:	681b      	ldr	r3, [r3, #0]
 8001858:	4618      	mov	r0, r3
 800185a:	f004 fe95 	bl	8006588 <USB_ReadInterrupts>
 800185e:	4603      	mov	r3, r0
 8001860:	f003 0310 	and.w	r3, r3, #16
 8001864:	2b10      	cmp	r3, #16
 8001866:	d161      	bne.n	800192c <HAL_PCD_IRQHandler+0x146>
    {
      USB_MASK_INTERRUPT(hpcd->Instance, USB_OTG_GINTSTS_RXFLVL);
 8001868:	687b      	ldr	r3, [r7, #4]
 800186a:	681b      	ldr	r3, [r3, #0]
 800186c:	699a      	ldr	r2, [r3, #24]
 800186e:	687b      	ldr	r3, [r7, #4]
 8001870:	681b      	ldr	r3, [r3, #0]
 8001872:	f022 0210 	bic.w	r2, r2, #16
 8001876:	619a      	str	r2, [r3, #24]

      RegVal = USBx->GRXSTSP;
 8001878:	6a3b      	ldr	r3, [r7, #32]
 800187a:	6a1b      	ldr	r3, [r3, #32]
 800187c:	61bb      	str	r3, [r7, #24]

      ep = &hpcd->OUT_ep[RegVal & USB_OTG_GRXSTSP_EPNUM];
 800187e:	69bb      	ldr	r3, [r7, #24]
 8001880:	f003 020f 	and.w	r2, r3, #15
 8001884:	4613      	mov	r3, r2
 8001886:	00db      	lsls	r3, r3, #3
 8001888:	4413      	add	r3, r2
 800188a:	009b      	lsls	r3, r3, #2
 800188c:	f503 731e 	add.w	r3, r3, #632	; 0x278
 8001890:	687a      	ldr	r2, [r7, #4]
 8001892:	4413      	add	r3, r2
 8001894:	3304      	adds	r3, #4
 8001896:	617b      	str	r3, [r7, #20]

      if (((RegVal & USB_OTG_GRXSTSP_PKTSTS) >> 17) ==  STS_DATA_UPDT)
 8001898:	69bb      	ldr	r3, [r7, #24]
 800189a:	0c5b      	lsrs	r3, r3, #17
 800189c:	f003 030f 	and.w	r3, r3, #15
 80018a0:	2b02      	cmp	r3, #2
 80018a2:	d124      	bne.n	80018ee <HAL_PCD_IRQHandler+0x108>
      {
        if ((RegVal & USB_OTG_GRXSTSP_BCNT) != 0U)
 80018a4:	69ba      	ldr	r2, [r7, #24]
 80018a6:	f647 73f0 	movw	r3, #32752	; 0x7ff0
 80018aa:	4013      	ands	r3, r2
 80018ac:	2b00      	cmp	r3, #0
 80018ae:	d035      	beq.n	800191c <HAL_PCD_IRQHandler+0x136>
        {
          (void)USB_ReadPacket(USBx, ep->xfer_buff,
 80018b0:	697b      	ldr	r3, [r7, #20]
 80018b2:	68d9      	ldr	r1, [r3, #12]
                               (uint16_t)((RegVal & USB_OTG_GRXSTSP_BCNT) >> 4));
 80018b4:	69bb      	ldr	r3, [r7, #24]
 80018b6:	091b      	lsrs	r3, r3, #4
 80018b8:	b29b      	uxth	r3, r3
          (void)USB_ReadPacket(USBx, ep->xfer_buff,
 80018ba:	f3c3 030a 	ubfx	r3, r3, #0, #11
 80018be:	b29b      	uxth	r3, r3
 80018c0:	461a      	mov	r2, r3
 80018c2:	6a38      	ldr	r0, [r7, #32]
 80018c4:	f004 fccc 	bl	8006260 <USB_ReadPacket>

          ep->xfer_buff += (RegVal & USB_OTG_GRXSTSP_BCNT) >> 4;
 80018c8:	697b      	ldr	r3, [r7, #20]
 80018ca:	68da      	ldr	r2, [r3, #12]
 80018cc:	69bb      	ldr	r3, [r7, #24]
 80018ce:	091b      	lsrs	r3, r3, #4
 80018d0:	f3c3 030a 	ubfx	r3, r3, #0, #11
 80018d4:	441a      	add	r2, r3
 80018d6:	697b      	ldr	r3, [r7, #20]
 80018d8:	60da      	str	r2, [r3, #12]
          ep->xfer_count += (RegVal & USB_OTG_GRXSTSP_BCNT) >> 4;
 80018da:	697b      	ldr	r3, [r7, #20]
 80018dc:	695a      	ldr	r2, [r3, #20]
 80018de:	69bb      	ldr	r3, [r7, #24]
 80018e0:	091b      	lsrs	r3, r3, #4
 80018e2:	f3c3 030a 	ubfx	r3, r3, #0, #11
 80018e6:	441a      	add	r2, r3
 80018e8:	697b      	ldr	r3, [r7, #20]
 80018ea:	615a      	str	r2, [r3, #20]
 80018ec:	e016      	b.n	800191c <HAL_PCD_IRQHandler+0x136>
        }
      }
      else if (((RegVal & USB_OTG_GRXSTSP_PKTSTS) >> 17) == STS_SETUP_UPDT)
 80018ee:	69bb      	ldr	r3, [r7, #24]
 80018f0:	0c5b      	lsrs	r3, r3, #17
 80018f2:	f003 030f 	and.w	r3, r3, #15
 80018f6:	2b06      	cmp	r3, #6
 80018f8:	d110      	bne.n	800191c <HAL_PCD_IRQHandler+0x136>
      {
        (void)USB_ReadPacket(USBx, (uint8_t *)hpcd->Setup, 8U);
 80018fa:	687b      	ldr	r3, [r7, #4]
 80018fc:	f203 43c4 	addw	r3, r3, #1220	; 0x4c4
 8001900:	2208      	movs	r2, #8
 8001902:	4619      	mov	r1, r3
 8001904:	6a38      	ldr	r0, [r7, #32]
 8001906:	f004 fcab 	bl	8006260 <USB_ReadPacket>
        ep->xfer_count += (RegVal & USB_OTG_GRXSTSP_BCNT) >> 4;
 800190a:	697b      	ldr	r3, [r7, #20]
 800190c:	695a      	ldr	r2, [r3, #20]
 800190e:	69bb      	ldr	r3, [r7, #24]
 8001910:	091b      	lsrs	r3, r3, #4
 8001912:	f3c3 030a 	ubfx	r3, r3, #0, #11
 8001916:	441a      	add	r2, r3
 8001918:	697b      	ldr	r3, [r7, #20]
 800191a:	615a      	str	r2, [r3, #20]
      else
      {
        /* ... */
      }

      USB_UNMASK_INTERRUPT(hpcd->Instance, USB_OTG_GINTSTS_RXFLVL);
 800191c:	687b      	ldr	r3, [r7, #4]
 800191e:	681b      	ldr	r3, [r3, #0]
 8001920:	699a      	ldr	r2, [r3, #24]
 8001922:	687b      	ldr	r3, [r7, #4]
 8001924:	681b      	ldr	r3, [r3, #0]
 8001926:	f042 0210 	orr.w	r2, r2, #16
 800192a:	619a      	str	r2, [r3, #24]
    }

    if (__HAL_PCD_GET_FLAG(hpcd, USB_OTG_GINTSTS_OEPINT))
 800192c:	687b      	ldr	r3, [r7, #4]
 800192e:	681b      	ldr	r3, [r3, #0]
 8001930:	4618      	mov	r0, r3
 8001932:	f004 fe29 	bl	8006588 <USB_ReadInterrupts>
 8001936:	4603      	mov	r3, r0
 8001938:	f403 2300 	and.w	r3, r3, #524288	; 0x80000
 800193c:	f5b3 2f00 	cmp.w	r3, #524288	; 0x80000
 8001940:	f040 80a7 	bne.w	8001a92 <HAL_PCD_IRQHandler+0x2ac>
    {
      epnum = 0U;
 8001944:	2300      	movs	r3, #0
 8001946:	627b      	str	r3, [r7, #36]	; 0x24

      /* Read in the device interrupt bits */
      ep_intr = USB_ReadDevAllOutEpInterrupt(hpcd->Instance);
 8001948:	687b      	ldr	r3, [r7, #4]
 800194a:	681b      	ldr	r3, [r3, #0]
 800194c:	4618      	mov	r0, r3
 800194e:	f004 fe2e 	bl	80065ae <USB_ReadDevAllOutEpInterrupt>
 8001952:	62b8      	str	r0, [r7, #40]	; 0x28

      while (ep_intr != 0U)
 8001954:	e099      	b.n	8001a8a <HAL_PCD_IRQHandler+0x2a4>
      {
        if ((ep_intr & 0x1U) != 0U)
 8001956:	6abb      	ldr	r3, [r7, #40]	; 0x28
 8001958:	f003 0301 	and.w	r3, r3, #1
 800195c:	2b00      	cmp	r3, #0
 800195e:	f000 808e 	beq.w	8001a7e <HAL_PCD_IRQHandler+0x298>
        {
          epint = USB_ReadDevOutEPInterrupt(hpcd->Instance, (uint8_t)epnum);
 8001962:	687b      	ldr	r3, [r7, #4]
 8001964:	681b      	ldr	r3, [r3, #0]
 8001966:	6a7a      	ldr	r2, [r7, #36]	; 0x24
 8001968:	b2d2      	uxtb	r2, r2
 800196a:	4611      	mov	r1, r2
 800196c:	4618      	mov	r0, r3
 800196e:	f004 fe52 	bl	8006616 <USB_ReadDevOutEPInterrupt>
 8001972:	6138      	str	r0, [r7, #16]

          if ((epint & USB_OTG_DOEPINT_XFRC) == USB_OTG_DOEPINT_XFRC)
 8001974:	693b      	ldr	r3, [r7, #16]
 8001976:	f003 0301 	and.w	r3, r3, #1
 800197a:	2b00      	cmp	r3, #0
 800197c:	d00c      	beq.n	8001998 <HAL_PCD_IRQHandler+0x1b2>
          {
            CLEAR_OUT_EP_INTR(epnum, USB_OTG_DOEPINT_XFRC);
 800197e:	6a7b      	ldr	r3, [r7, #36]	; 0x24
 8001980:	015a      	lsls	r2, r3, #5
 8001982:	69fb      	ldr	r3, [r7, #28]
 8001984:	4413      	add	r3, r2
 8001986:	f503 6330 	add.w	r3, r3, #2816	; 0xb00
 800198a:	461a      	mov	r2, r3
 800198c:	2301      	movs	r3, #1
 800198e:	6093      	str	r3, [r2, #8]
            (void)PCD_EP_OutXfrComplete_int(hpcd, epnum);
 8001990:	6a79      	ldr	r1, [r7, #36]	; 0x24
 8001992:	6878      	ldr	r0, [r7, #4]
 8001994:	f000 fed2 	bl	800273c <PCD_EP_OutXfrComplete_int>
          }

          if ((epint & USB_OTG_DOEPINT_STUP) == USB_OTG_DOEPINT_STUP)
 8001998:	693b      	ldr	r3, [r7, #16]
 800199a:	f003 0308 	and.w	r3, r3, #8
 800199e:	2b00      	cmp	r3, #0
 80019a0:	d00c      	beq.n	80019bc <HAL_PCD_IRQHandler+0x1d6>
          {
            CLEAR_OUT_EP_INTR(epnum, USB_OTG_DOEPINT_STUP);
 80019a2:	6a7b      	ldr	r3, [r7, #36]	; 0x24
 80019a4:	015a      	lsls	r2, r3, #5
 80019a6:	69fb      	ldr	r3, [r7, #28]
 80019a8:	4413      	add	r3, r2
 80019aa:	f503 6330 	add.w	r3, r3, #2816	; 0xb00
 80019ae:	461a      	mov	r2, r3
 80019b0:	2308      	movs	r3, #8
 80019b2:	6093      	str	r3, [r2, #8]
            /* Class B setup phase done for previous decoded setup */
            (void)PCD_EP_OutSetupPacket_int(hpcd, epnum);
 80019b4:	6a79      	ldr	r1, [r7, #36]	; 0x24
 80019b6:	6878      	ldr	r0, [r7, #4]
 80019b8:	f000 ffa8 	bl	800290c <PCD_EP_OutSetupPacket_int>
          }

          if ((epint & USB_OTG_DOEPINT_OTEPDIS) == USB_OTG_DOEPINT_OTEPDIS)
 80019bc:	693b      	ldr	r3, [r7, #16]
 80019be:	f003 0310 	and.w	r3, r3, #16
 80019c2:	2b00      	cmp	r3, #0
 80019c4:	d008      	beq.n	80019d8 <HAL_PCD_IRQHandler+0x1f2>
          {
            CLEAR_OUT_EP_INTR(epnum, USB_OTG_DOEPINT_OTEPDIS);
 80019c6:	6a7b      	ldr	r3, [r7, #36]	; 0x24
 80019c8:	015a      	lsls	r2, r3, #5
 80019ca:	69fb      	ldr	r3, [r7, #28]
 80019cc:	4413      	add	r3, r2
 80019ce:	f503 6330 	add.w	r3, r3, #2816	; 0xb00
 80019d2:	461a      	mov	r2, r3
 80019d4:	2310      	movs	r3, #16
 80019d6:	6093      	str	r3, [r2, #8]
          }

          /* Clear OUT Endpoint disable interrupt */
          if ((epint & USB_OTG_DOEPINT_EPDISD) == USB_OTG_DOEPINT_EPDISD)
 80019d8:	693b      	ldr	r3, [r7, #16]
 80019da:	f003 0302 	and.w	r3, r3, #2
 80019de:	2b00      	cmp	r3, #0
 80019e0:	d030      	beq.n	8001a44 <HAL_PCD_IRQHandler+0x25e>
          {
            if ((USBx->GINTSTS & USB_OTG_GINTSTS_BOUTNAKEFF) == USB_OTG_GINTSTS_BOUTNAKEFF)
 80019e2:	6a3b      	ldr	r3, [r7, #32]
 80019e4:	695b      	ldr	r3, [r3, #20]
 80019e6:	f003 0380 	and.w	r3, r3, #128	; 0x80
 80019ea:	2b80      	cmp	r3, #128	; 0x80
 80019ec:	d109      	bne.n	8001a02 <HAL_PCD_IRQHandler+0x21c>
            {
              USBx_DEVICE->DCTL |= USB_OTG_DCTL_CGONAK;
 80019ee:	69fb      	ldr	r3, [r7, #28]
 80019f0:	f503 6300 	add.w	r3, r3, #2048	; 0x800
 80019f4:	685b      	ldr	r3, [r3, #4]
 80019f6:	69fa      	ldr	r2, [r7, #28]
 80019f8:	f502 6200 	add.w	r2, r2, #2048	; 0x800
 80019fc:	f443 6380 	orr.w	r3, r3, #1024	; 0x400
 8001a00:	6053      	str	r3, [r2, #4]
            }

            ep = &hpcd->OUT_ep[epnum];
 8001a02:	6a7a      	ldr	r2, [r7, #36]	; 0x24
 8001a04:	4613      	mov	r3, r2
 8001a06:	00db      	lsls	r3, r3, #3
 8001a08:	4413      	add	r3, r2
 8001a0a:	009b      	lsls	r3, r3, #2
 8001a0c:	f503 731e 	add.w	r3, r3, #632	; 0x278
 8001a10:	687a      	ldr	r2, [r7, #4]
 8001a12:	4413      	add	r3, r2
 8001a14:	3304      	adds	r3, #4
 8001a16:	617b      	str	r3, [r7, #20]

            if (ep->is_iso_incomplete == 1U)
 8001a18:	697b      	ldr	r3, [r7, #20]
 8001a1a:	78db      	ldrb	r3, [r3, #3]
 8001a1c:	2b01      	cmp	r3, #1
 8001a1e:	d108      	bne.n	8001a32 <HAL_PCD_IRQHandler+0x24c>
            {
              ep->is_iso_incomplete = 0U;
 8001a20:	697b      	ldr	r3, [r7, #20]
 8001a22:	2200      	movs	r2, #0
 8001a24:	70da      	strb	r2, [r3, #3]

#if (USE_HAL_PCD_REGISTER_CALLBACKS == 1U)
              hpcd->ISOOUTIncompleteCallback(hpcd, (uint8_t)epnum);
#else
              HAL_PCD_ISOOUTIncompleteCallback(hpcd, (uint8_t)epnum);
 8001a26:	6a7b      	ldr	r3, [r7, #36]	; 0x24
 8001a28:	b2db      	uxtb	r3, r3
 8001a2a:	4619      	mov	r1, r3
 8001a2c:	6878      	ldr	r0, [r7, #4]
 8001a2e:	f007 f8a7 	bl	8008b80 <HAL_PCD_ISOOUTIncompleteCallback>
#endif /* USE_HAL_PCD_REGISTER_CALLBACKS */
            }

            CLEAR_OUT_EP_INTR(epnum, USB_OTG_DOEPINT_EPDISD);
 8001a32:	6a7b      	ldr	r3, [r7, #36]	; 0x24
 8001a34:	015a      	lsls	r2, r3, #5
 8001a36:	69fb      	ldr	r3, [r7, #28]
 8001a38:	4413      	add	r3, r2
 8001a3a:	f503 6330 	add.w	r3, r3, #2816	; 0xb00
 8001a3e:	461a      	mov	r2, r3
 8001a40:	2302      	movs	r3, #2
 8001a42:	6093      	str	r3, [r2, #8]
          }

          /* Clear Status Phase Received interrupt */
          if ((epint & USB_OTG_DOEPINT_OTEPSPR) == USB_OTG_DOEPINT_OTEPSPR)
 8001a44:	693b      	ldr	r3, [r7, #16]
 8001a46:	f003 0320 	and.w	r3, r3, #32
 8001a4a:	2b00      	cmp	r3, #0
 8001a4c:	d008      	beq.n	8001a60 <HAL_PCD_IRQHandler+0x27a>
          {
            CLEAR_OUT_EP_INTR(epnum, USB_OTG_DOEPINT_OTEPSPR);
 8001a4e:	6a7b      	ldr	r3, [r7, #36]	; 0x24
 8001a50:	015a      	lsls	r2, r3, #5
 8001a52:	69fb      	ldr	r3, [r7, #28]
 8001a54:	4413      	add	r3, r2
 8001a56:	f503 6330 	add.w	r3, r3, #2816	; 0xb00
 8001a5a:	461a      	mov	r2, r3
 8001a5c:	2320      	movs	r3, #32
 8001a5e:	6093      	str	r3, [r2, #8]
          }

          /* Clear OUT NAK interrupt */
          if ((epint & USB_OTG_DOEPINT_NAK) == USB_OTG_DOEPINT_NAK)
 8001a60:	693b      	ldr	r3, [r7, #16]
 8001a62:	f403 5300 	and.w	r3, r3, #8192	; 0x2000
 8001a66:	2b00      	cmp	r3, #0
 8001a68:	d009      	beq.n	8001a7e <HAL_PCD_IRQHandler+0x298>
          {
            CLEAR_OUT_EP_INTR(epnum, USB_OTG_DOEPINT_NAK);
 8001a6a:	6a7b      	ldr	r3, [r7, #36]	; 0x24
 8001a6c:	015a      	lsls	r2, r3, #5
 8001a6e:	69fb      	ldr	r3, [r7, #28]
 8001a70:	4413      	add	r3, r2
 8001a72:	f503 6330 	add.w	r3, r3, #2816	; 0xb00
 8001a76:	461a      	mov	r2, r3
 8001a78:	f44f 5300 	mov.w	r3, #8192	; 0x2000
 8001a7c:	6093      	str	r3, [r2, #8]
          }
        }
        epnum++;
 8001a7e:	6a7b      	ldr	r3, [r7, #36]	; 0x24
 8001a80:	3301      	adds	r3, #1
 8001a82:	627b      	str	r3, [r7, #36]	; 0x24
        ep_intr >>= 1U;
 8001a84:	6abb      	ldr	r3, [r7, #40]	; 0x28
 8001a86:	085b      	lsrs	r3, r3, #1
 8001a88:	62bb      	str	r3, [r7, #40]	; 0x28
      while (ep_intr != 0U)
 8001a8a:	6abb      	ldr	r3, [r7, #40]	; 0x28
 8001a8c:	2b00      	cmp	r3, #0
 8001a8e:	f47f af62 	bne.w	8001956 <HAL_PCD_IRQHandler+0x170>
      }
    }

    if (__HAL_PCD_GET_FLAG(hpcd, USB_OTG_GINTSTS_IEPINT))
 8001a92:	687b      	ldr	r3, [r7, #4]
 8001a94:	681b      	ldr	r3, [r3, #0]
 8001a96:	4618      	mov	r0, r3
 8001a98:	f004 fd76 	bl	8006588 <USB_ReadInterrupts>
 8001a9c:	4603      	mov	r3, r0
 8001a9e:	f403 2380 	and.w	r3, r3, #262144	; 0x40000
 8001aa2:	f5b3 2f80 	cmp.w	r3, #262144	; 0x40000
 8001aa6:	f040 80db 	bne.w	8001c60 <HAL_PCD_IRQHandler+0x47a>
    {
      /* Read in the device interrupt bits */
      ep_intr = USB_ReadDevAllInEpInterrupt(hpcd->Instance);
 8001aaa:	687b      	ldr	r3, [r7, #4]
 8001aac:	681b      	ldr	r3, [r3, #0]
 8001aae:	4618      	mov	r0, r3
 8001ab0:	f004 fd97 	bl	80065e2 <USB_ReadDevAllInEpInterrupt>
 8001ab4:	62b8      	str	r0, [r7, #40]	; 0x28

      epnum = 0U;
 8001ab6:	2300      	movs	r3, #0
 8001ab8:	627b      	str	r3, [r7, #36]	; 0x24

      while (ep_intr != 0U)
 8001aba:	e0cd      	b.n	8001c58 <HAL_PCD_IRQHandler+0x472>
      {
        if ((ep_intr & 0x1U) != 0U) /* In ITR */
 8001abc:	6abb      	ldr	r3, [r7, #40]	; 0x28
 8001abe:	f003 0301 	and.w	r3, r3, #1
 8001ac2:	2b00      	cmp	r3, #0
 8001ac4:	f000 80c2 	beq.w	8001c4c <HAL_PCD_IRQHandler+0x466>
        {
          epint = USB_ReadDevInEPInterrupt(hpcd->Instance, (uint8_t)epnum);
 8001ac8:	687b      	ldr	r3, [r7, #4]
 8001aca:	681b      	ldr	r3, [r3, #0]
 8001acc:	6a7a      	ldr	r2, [r7, #36]	; 0x24
 8001ace:	b2d2      	uxtb	r2, r2
 8001ad0:	4611      	mov	r1, r2
 8001ad2:	4618      	mov	r0, r3
 8001ad4:	f004 fdbd 	bl	8006652 <USB_ReadDevInEPInterrupt>
 8001ad8:	6138      	str	r0, [r7, #16]

          if ((epint & USB_OTG_DIEPINT_XFRC) == USB_OTG_DIEPINT_XFRC)
 8001ada:	693b      	ldr	r3, [r7, #16]
 8001adc:	f003 0301 	and.w	r3, r3, #1
 8001ae0:	2b00      	cmp	r3, #0
 8001ae2:	d057      	beq.n	8001b94 <HAL_PCD_IRQHandler+0x3ae>
          {
            fifoemptymsk = (uint32_t)(0x1UL << (epnum & EP_ADDR_MSK));
 8001ae4:	6a7b      	ldr	r3, [r7, #36]	; 0x24
 8001ae6:	f003 030f 	and.w	r3, r3, #15
 8001aea:	2201      	movs	r2, #1
 8001aec:	fa02 f303 	lsl.w	r3, r2, r3
 8001af0:	60fb      	str	r3, [r7, #12]
            USBx_DEVICE->DIEPEMPMSK &= ~fifoemptymsk;
 8001af2:	69fb      	ldr	r3, [r7, #28]
 8001af4:	f503 6300 	add.w	r3, r3, #2048	; 0x800
 8001af8:	6b5a      	ldr	r2, [r3, #52]	; 0x34
 8001afa:	68fb      	ldr	r3, [r7, #12]
 8001afc:	43db      	mvns	r3, r3
 8001afe:	69f9      	ldr	r1, [r7, #28]
 8001b00:	f501 6100 	add.w	r1, r1, #2048	; 0x800
 8001b04:	4013      	ands	r3, r2
 8001b06:	634b      	str	r3, [r1, #52]	; 0x34

            CLEAR_IN_EP_INTR(epnum, USB_OTG_DIEPINT_XFRC);
 8001b08:	6a7b      	ldr	r3, [r7, #36]	; 0x24
 8001b0a:	015a      	lsls	r2, r3, #5
 8001b0c:	69fb      	ldr	r3, [r7, #28]
 8001b0e:	4413      	add	r3, r2
 8001b10:	f503 6310 	add.w	r3, r3, #2304	; 0x900
 8001b14:	461a      	mov	r2, r3
 8001b16:	2301      	movs	r3, #1
 8001b18:	6093      	str	r3, [r2, #8]

            if (hpcd->Init.dma_enable == 1U)
 8001b1a:	687b      	ldr	r3, [r7, #4]
 8001b1c:	68db      	ldr	r3, [r3, #12]
 8001b1e:	2b01      	cmp	r3, #1
 8001b20:	d132      	bne.n	8001b88 <HAL_PCD_IRQHandler+0x3a2>
            {
              hpcd->IN_ep[epnum].xfer_buff += hpcd->IN_ep[epnum].maxpacket;
 8001b22:	6879      	ldr	r1, [r7, #4]
 8001b24:	6a7a      	ldr	r2, [r7, #36]	; 0x24
 8001b26:	4613      	mov	r3, r2
 8001b28:	00db      	lsls	r3, r3, #3
 8001b2a:	4413      	add	r3, r2
 8001b2c:	009b      	lsls	r3, r3, #2
 8001b2e:	440b      	add	r3, r1
 8001b30:	3348      	adds	r3, #72	; 0x48
 8001b32:	6819      	ldr	r1, [r3, #0]
 8001b34:	6878      	ldr	r0, [r7, #4]
 8001b36:	6a7a      	ldr	r2, [r7, #36]	; 0x24
 8001b38:	4613      	mov	r3, r2
 8001b3a:	00db      	lsls	r3, r3, #3
 8001b3c:	4413      	add	r3, r2
 8001b3e:	009b      	lsls	r3, r3, #2
 8001b40:	4403      	add	r3, r0
 8001b42:	3344      	adds	r3, #68	; 0x44
 8001b44:	681b      	ldr	r3, [r3, #0]
 8001b46:	4419      	add	r1, r3
 8001b48:	6878      	ldr	r0, [r7, #4]
 8001b4a:	6a7a      	ldr	r2, [r7, #36]	; 0x24
 8001b4c:	4613      	mov	r3, r2
 8001b4e:	00db      	lsls	r3, r3, #3
 8001b50:	4413      	add	r3, r2
 8001b52:	009b      	lsls	r3, r3, #2
 8001b54:	4403      	add	r3, r0
 8001b56:	3348      	adds	r3, #72	; 0x48
 8001b58:	6019      	str	r1, [r3, #0]

              /* this is ZLP, so prepare EP0 for next setup */
              if ((epnum == 0U) && (hpcd->IN_ep[epnum].xfer_len == 0U))
 8001b5a:	6a7b      	ldr	r3, [r7, #36]	; 0x24
 8001b5c:	2b00      	cmp	r3, #0
 8001b5e:	d113      	bne.n	8001b88 <HAL_PCD_IRQHandler+0x3a2>
 8001b60:	6879      	ldr	r1, [r7, #4]
 8001b62:	6a7a      	ldr	r2, [r7, #36]	; 0x24
 8001b64:	4613      	mov	r3, r2
 8001b66:	00db      	lsls	r3, r3, #3
 8001b68:	4413      	add	r3, r2
 8001b6a:	009b      	lsls	r3, r3, #2
 8001b6c:	440b      	add	r3, r1
 8001b6e:	334c      	adds	r3, #76	; 0x4c
 8001b70:	681b      	ldr	r3, [r3, #0]
 8001b72:	2b00      	cmp	r3, #0
 8001b74:	d108      	bne.n	8001b88 <HAL_PCD_IRQHandler+0x3a2>
              {
                /* prepare to rx more setup packets */
                (void)USB_EP0_OutStart(hpcd->Instance, 1U, (uint8_t *)hpcd->Setup);
 8001b76:	687b      	ldr	r3, [r7, #4]
 8001b78:	6818      	ldr	r0, [r3, #0]
 8001b7a:	687b      	ldr	r3, [r7, #4]
 8001b7c:	f203 43c4 	addw	r3, r3, #1220	; 0x4c4
 8001b80:	461a      	mov	r2, r3
 8001b82:	2101      	movs	r1, #1
 8001b84:	f004 fdc6 	bl	8006714 <USB_EP0_OutStart>
            }

#if (USE_HAL_PCD_REGISTER_CALLBACKS == 1U)
            hpcd->DataInStageCallback(hpcd, (uint8_t)epnum);
#else
            HAL_PCD_DataInStageCallback(hpcd, (uint8_t)epnum);
 8001b88:	6a7b      	ldr	r3, [r7, #36]	; 0x24
 8001b8a:	b2db      	uxtb	r3, r3
 8001b8c:	4619      	mov	r1, r3
 8001b8e:	6878      	ldr	r0, [r7, #4]
 8001b90:	f006 ff71 	bl	8008a76 <HAL_PCD_DataInStageCallback>
#endif /* USE_HAL_PCD_REGISTER_CALLBACKS */
          }
          if ((epint & USB_OTG_DIEPINT_TOC) == USB_OTG_DIEPINT_TOC)
 8001b94:	693b      	ldr	r3, [r7, #16]
 8001b96:	f003 0308 	and.w	r3, r3, #8
 8001b9a:	2b00      	cmp	r3, #0
 8001b9c:	d008      	beq.n	8001bb0 <HAL_PCD_IRQHandler+0x3ca>
          {
            CLEAR_IN_EP_INTR(epnum, USB_OTG_DIEPINT_TOC);
 8001b9e:	6a7b      	ldr	r3, [r7, #36]	; 0x24
 8001ba0:	015a      	lsls	r2, r3, #5
 8001ba2:	69fb      	ldr	r3, [r7, #28]
 8001ba4:	4413      	add	r3, r2
 8001ba6:	f503 6310 	add.w	r3, r3, #2304	; 0x900
 8001baa:	461a      	mov	r2, r3
 8001bac:	2308      	movs	r3, #8
 8001bae:	6093      	str	r3, [r2, #8]
          }
          if ((epint & USB_OTG_DIEPINT_ITTXFE) == USB_OTG_DIEPINT_ITTXFE)
 8001bb0:	693b      	ldr	r3, [r7, #16]
 8001bb2:	f003 0310 	and.w	r3, r3, #16
 8001bb6:	2b00      	cmp	r3, #0
 8001bb8:	d008      	beq.n	8001bcc <HAL_PCD_IRQHandler+0x3e6>
          {
            CLEAR_IN_EP_INTR(epnum, USB_OTG_DIEPINT_ITTXFE);
 8001bba:	6a7b      	ldr	r3, [r7, #36]	; 0x24
 8001bbc:	015a      	lsls	r2, r3, #5
 8001bbe:	69fb      	ldr	r3, [r7, #28]
 8001bc0:	4413      	add	r3, r2
 8001bc2:	f503 6310 	add.w	r3, r3, #2304	; 0x900
 8001bc6:	461a      	mov	r2, r3
 8001bc8:	2310      	movs	r3, #16
 8001bca:	6093      	str	r3, [r2, #8]
          }
          if ((epint & USB_OTG_DIEPINT_INEPNE) == USB_OTG_DIEPINT_INEPNE)
 8001bcc:	693b      	ldr	r3, [r7, #16]
 8001bce:	f003 0340 	and.w	r3, r3, #64	; 0x40
 8001bd2:	2b00      	cmp	r3, #0
 8001bd4:	d008      	beq.n	8001be8 <HAL_PCD_IRQHandler+0x402>
          {
            CLEAR_IN_EP_INTR(epnum, USB_OTG_DIEPINT_INEPNE);
 8001bd6:	6a7b      	ldr	r3, [r7, #36]	; 0x24
 8001bd8:	015a      	lsls	r2, r3, #5
 8001bda:	69fb      	ldr	r3, [r7, #28]
 8001bdc:	4413      	add	r3, r2
 8001bde:	f503 6310 	add.w	r3, r3, #2304	; 0x900
 8001be2:	461a      	mov	r2, r3
 8001be4:	2340      	movs	r3, #64	; 0x40
 8001be6:	6093      	str	r3, [r2, #8]
          }
          if ((epint & USB_OTG_DIEPINT_EPDISD) == USB_OTG_DIEPINT_EPDISD)
 8001be8:	693b      	ldr	r3, [r7, #16]
 8001bea:	f003 0302 	and.w	r3, r3, #2
 8001bee:	2b00      	cmp	r3, #0
 8001bf0:	d023      	beq.n	8001c3a <HAL_PCD_IRQHandler+0x454>
          {
            (void)USB_FlushTxFifo(USBx, epnum);
 8001bf2:	6a79      	ldr	r1, [r7, #36]	; 0x24
 8001bf4:	6a38      	ldr	r0, [r7, #32]
 8001bf6:	f003 fda5 	bl	8005744 <USB_FlushTxFifo>

            ep = &hpcd->IN_ep[epnum];
 8001bfa:	6a7a      	ldr	r2, [r7, #36]	; 0x24
 8001bfc:	4613      	mov	r3, r2
 8001bfe:	00db      	lsls	r3, r3, #3
 8001c00:	4413      	add	r3, r2
 8001c02:	009b      	lsls	r3, r3, #2
 8001c04:	3338      	adds	r3, #56	; 0x38
 8001c06:	687a      	ldr	r2, [r7, #4]
 8001c08:	4413      	add	r3, r2
 8001c0a:	3304      	adds	r3, #4
 8001c0c:	617b      	str	r3, [r7, #20]

            if (ep->is_iso_incomplete == 1U)
 8001c0e:	697b      	ldr	r3, [r7, #20]
 8001c10:	78db      	ldrb	r3, [r3, #3]
 8001c12:	2b01      	cmp	r3, #1
 8001c14:	d108      	bne.n	8001c28 <HAL_PCD_IRQHandler+0x442>
            {
              ep->is_iso_incomplete = 0U;
 8001c16:	697b      	ldr	r3, [r7, #20]
 8001c18:	2200      	movs	r2, #0
 8001c1a:	70da      	strb	r2, [r3, #3]

#if (USE_HAL_PCD_REGISTER_CALLBACKS == 1U)
              hpcd->ISOINIncompleteCallback(hpcd, (uint8_t)epnum);
#else
              HAL_PCD_ISOINIncompleteCallback(hpcd, (uint8_t)epnum);
 8001c1c:	6a7b      	ldr	r3, [r7, #36]	; 0x24
 8001c1e:	b2db      	uxtb	r3, r3
 8001c20:	4619      	mov	r1, r3
 8001c22:	6878      	ldr	r0, [r7, #4]
 8001c24:	f006 ffbe 	bl	8008ba4 <HAL_PCD_ISOINIncompleteCallback>
#endif /* USE_HAL_PCD_REGISTER_CALLBACKS */
            }

            CLEAR_IN_EP_INTR(epnum, USB_OTG_DIEPINT_EPDISD);
 8001c28:	6a7b      	ldr	r3, [r7, #36]	; 0x24
 8001c2a:	015a      	lsls	r2, r3, #5
 8001c2c:	69fb      	ldr	r3, [r7, #28]
 8001c2e:	4413      	add	r3, r2
 8001c30:	f503 6310 	add.w	r3, r3, #2304	; 0x900
 8001c34:	461a      	mov	r2, r3
 8001c36:	2302      	movs	r3, #2
 8001c38:	6093      	str	r3, [r2, #8]
          }
          if ((epint & USB_OTG_DIEPINT_TXFE) == USB_OTG_DIEPINT_TXFE)
 8001c3a:	693b      	ldr	r3, [r7, #16]
 8001c3c:	f003 0380 	and.w	r3, r3, #128	; 0x80
 8001c40:	2b00      	cmp	r3, #0
 8001c42:	d003      	beq.n	8001c4c <HAL_PCD_IRQHandler+0x466>
          {
            (void)PCD_WriteEmptyTxFifo(hpcd, epnum);
 8001c44:	6a79      	ldr	r1, [r7, #36]	; 0x24
 8001c46:	6878      	ldr	r0, [r7, #4]
 8001c48:	f000 fcea 	bl	8002620 <PCD_WriteEmptyTxFifo>
          }
        }
        epnum++;
 8001c4c:	6a7b      	ldr	r3, [r7, #36]	; 0x24
 8001c4e:	3301      	adds	r3, #1
 8001c50:	627b      	str	r3, [r7, #36]	; 0x24
        ep_intr >>= 1U;
 8001c52:	6abb      	ldr	r3, [r7, #40]	; 0x28
 8001c54:	085b      	lsrs	r3, r3, #1
 8001c56:	62bb      	str	r3, [r7, #40]	; 0x28
      while (ep_intr != 0U)
 8001c58:	6abb      	ldr	r3, [r7, #40]	; 0x28
 8001c5a:	2b00      	cmp	r3, #0
 8001c5c:	f47f af2e 	bne.w	8001abc <HAL_PCD_IRQHandler+0x2d6>
      }
    }

    /* Handle Resume Interrupt */
    if (__HAL_PCD_GET_FLAG(hpcd, USB_OTG_GINTSTS_WKUINT))
 8001c60:	687b      	ldr	r3, [r7, #4]
 8001c62:	681b      	ldr	r3, [r3, #0]
 8001c64:	4618      	mov	r0, r3
 8001c66:	f004 fc8f 	bl	8006588 <USB_ReadInterrupts>
 8001c6a:	4603      	mov	r3, r0
 8001c6c:	f003 4300 	and.w	r3, r3, #2147483648	; 0x80000000
 8001c70:	f1b3 4f00 	cmp.w	r3, #2147483648	; 0x80000000
 8001c74:	d122      	bne.n	8001cbc <HAL_PCD_IRQHandler+0x4d6>
    {
      /* Clear the Remote Wake-up Signaling */
      USBx_DEVICE->DCTL &= ~USB_OTG_DCTL_RWUSIG;
 8001c76:	69fb      	ldr	r3, [r7, #28]
 8001c78:	f503 6300 	add.w	r3, r3, #2048	; 0x800
 8001c7c:	685b      	ldr	r3, [r3, #4]
 8001c7e:	69fa      	ldr	r2, [r7, #28]
 8001c80:	f502 6200 	add.w	r2, r2, #2048	; 0x800
 8001c84:	f023 0301 	bic.w	r3, r3, #1
 8001c88:	6053      	str	r3, [r2, #4]

      if (hpcd->LPM_State == LPM_L1)
 8001c8a:	687b      	ldr	r3, [r7, #4]
 8001c8c:	f893 34f4 	ldrb.w	r3, [r3, #1268]	; 0x4f4
 8001c90:	2b01      	cmp	r3, #1
 8001c92:	d108      	bne.n	8001ca6 <HAL_PCD_IRQHandler+0x4c0>
      {
        hpcd->LPM_State = LPM_L0;
 8001c94:	687b      	ldr	r3, [r7, #4]
 8001c96:	2200      	movs	r2, #0
 8001c98:	f883 24f4 	strb.w	r2, [r3, #1268]	; 0x4f4

#if (USE_HAL_PCD_REGISTER_CALLBACKS == 1U)
        hpcd->LPMCallback(hpcd, PCD_LPM_L0_ACTIVE);
#else
        HAL_PCDEx_LPM_Callback(hpcd, PCD_LPM_L0_ACTIVE);
 8001c9c:	2100      	movs	r1, #0
 8001c9e:	6878      	ldr	r0, [r7, #4]
 8001ca0:	f000 fef6 	bl	8002a90 <HAL_PCDEx_LPM_Callback>
 8001ca4:	e002      	b.n	8001cac <HAL_PCD_IRQHandler+0x4c6>
      else
      {
#if (USE_HAL_PCD_REGISTER_CALLBACKS == 1U)
        hpcd->ResumeCallback(hpcd);
#else
        HAL_PCD_ResumeCallback(hpcd);
 8001ca6:	6878      	ldr	r0, [r7, #4]
 8001ca8:	f006 ff5c 	bl	8008b64 <HAL_PCD_ResumeCallback>
#endif /* USE_HAL_PCD_REGISTER_CALLBACKS */
      }

      __HAL_PCD_CLEAR_FLAG(hpcd, USB_OTG_GINTSTS_WKUINT);
 8001cac:	687b      	ldr	r3, [r7, #4]
 8001cae:	681b      	ldr	r3, [r3, #0]
 8001cb0:	695a      	ldr	r2, [r3, #20]
 8001cb2:	687b      	ldr	r3, [r7, #4]
 8001cb4:	681b      	ldr	r3, [r3, #0]
 8001cb6:	f002 4200 	and.w	r2, r2, #2147483648	; 0x80000000
 8001cba:	615a      	str	r2, [r3, #20]
    }

    /* Handle Suspend Interrupt */
    if (__HAL_PCD_GET_FLAG(hpcd, USB_OTG_GINTSTS_USBSUSP))
 8001cbc:	687b      	ldr	r3, [r7, #4]
 8001cbe:	681b      	ldr	r3, [r3, #0]
 8001cc0:	4618      	mov	r0, r3
 8001cc2:	f004 fc61 	bl	8006588 <USB_ReadInterrupts>
 8001cc6:	4603      	mov	r3, r0
 8001cc8:	f403 6300 	and.w	r3, r3, #2048	; 0x800
 8001ccc:	f5b3 6f00 	cmp.w	r3, #2048	; 0x800
 8001cd0:	d112      	bne.n	8001cf8 <HAL_PCD_IRQHandler+0x512>
    {
      if ((USBx_DEVICE->DSTS & USB_OTG_DSTS_SUSPSTS) == USB_OTG_DSTS_SUSPSTS)
 8001cd2:	69fb      	ldr	r3, [r7, #28]
 8001cd4:	f503 6300 	add.w	r3, r3, #2048	; 0x800
 8001cd8:	689b      	ldr	r3, [r3, #8]
 8001cda:	f003 0301 	and.w	r3, r3, #1
 8001cde:	2b01      	cmp	r3, #1
 8001ce0:	d102      	bne.n	8001ce8 <HAL_PCD_IRQHandler+0x502>
      {
#if (USE_HAL_PCD_REGISTER_CALLBACKS == 1U)
        hpcd->SuspendCallback(hpcd);
#else
        HAL_PCD_SuspendCallback(hpcd);
 8001ce2:	6878      	ldr	r0, [r7, #4]
 8001ce4:	f006 ff18 	bl	8008b18 <HAL_PCD_SuspendCallback>
#endif /* USE_HAL_PCD_REGISTER_CALLBACKS */
      }
      __HAL_PCD_CLEAR_FLAG(hpcd, USB_OTG_GINTSTS_USBSUSP);
 8001ce8:	687b      	ldr	r3, [r7, #4]
 8001cea:	681b      	ldr	r3, [r3, #0]
 8001cec:	695a      	ldr	r2, [r3, #20]
 8001cee:	687b      	ldr	r3, [r7, #4]
 8001cf0:	681b      	ldr	r3, [r3, #0]
 8001cf2:	f402 6200 	and.w	r2, r2, #2048	; 0x800
 8001cf6:	615a      	str	r2, [r3, #20]
    }

    /* Handle LPM Interrupt */
    if (__HAL_PCD_GET_FLAG(hpcd, USB_OTG_GINTSTS_LPMINT))
 8001cf8:	687b      	ldr	r3, [r7, #4]
 8001cfa:	681b      	ldr	r3, [r3, #0]
 8001cfc:	4618      	mov	r0, r3
 8001cfe:	f004 fc43 	bl	8006588 <USB_ReadInterrupts>
 8001d02:	4603      	mov	r3, r0
 8001d04:	f003 6300 	and.w	r3, r3, #134217728	; 0x8000000
 8001d08:	f1b3 6f00 	cmp.w	r3, #134217728	; 0x8000000
 8001d0c:	d121      	bne.n	8001d52 <HAL_PCD_IRQHandler+0x56c>
    {
      __HAL_PCD_CLEAR_FLAG(hpcd, USB_OTG_GINTSTS_LPMINT);
 8001d0e:	687b      	ldr	r3, [r7, #4]
 8001d10:	681b      	ldr	r3, [r3, #0]
 8001d12:	695a      	ldr	r2, [r3, #20]
 8001d14:	687b      	ldr	r3, [r7, #4]
 8001d16:	681b      	ldr	r3, [r3, #0]
 8001d18:	f002 6200 	and.w	r2, r2, #134217728	; 0x8000000
 8001d1c:	615a      	str	r2, [r3, #20]

      if (hpcd->LPM_State == LPM_L0)
 8001d1e:	687b      	ldr	r3, [r7, #4]
 8001d20:	f893 34f4 	ldrb.w	r3, [r3, #1268]	; 0x4f4
 8001d24:	2b00      	cmp	r3, #0
 8001d26:	d111      	bne.n	8001d4c <HAL_PCD_IRQHandler+0x566>
      {
        hpcd->LPM_State = LPM_L1;
 8001d28:	687b      	ldr	r3, [r7, #4]
 8001d2a:	2201      	movs	r2, #1
 8001d2c:	f883 24f4 	strb.w	r2, [r3, #1268]	; 0x4f4
        hpcd->BESL = (hpcd->Instance->GLPMCFG & USB_OTG_GLPMCFG_BESL) >> 2U;
 8001d30:	687b      	ldr	r3, [r7, #4]
 8001d32:	681b      	ldr	r3, [r3, #0]
 8001d34:	6d5b      	ldr	r3, [r3, #84]	; 0x54
 8001d36:	089b      	lsrs	r3, r3, #2
 8001d38:	f003 020f 	and.w	r2, r3, #15
 8001d3c:	687b      	ldr	r3, [r7, #4]
 8001d3e:	f8c3 24f8 	str.w	r2, [r3, #1272]	; 0x4f8

#if (USE_HAL_PCD_REGISTER_CALLBACKS == 1U)
        hpcd->LPMCallback(hpcd, PCD_LPM_L1_ACTIVE);
#else
        HAL_PCDEx_LPM_Callback(hpcd, PCD_LPM_L1_ACTIVE);
 8001d42:	2101      	movs	r1, #1
 8001d44:	6878      	ldr	r0, [r7, #4]
 8001d46:	f000 fea3 	bl	8002a90 <HAL_PCDEx_LPM_Callback>
 8001d4a:	e002      	b.n	8001d52 <HAL_PCD_IRQHandler+0x56c>
      else
      {
#if (USE_HAL_PCD_REGISTER_CALLBACKS == 1U)
        hpcd->SuspendCallback(hpcd);
#else
        HAL_PCD_SuspendCallback(hpcd);
 8001d4c:	6878      	ldr	r0, [r7, #4]
 8001d4e:	f006 fee3 	bl	8008b18 <HAL_PCD_SuspendCallback>
#endif /* USE_HAL_PCD_REGISTER_CALLBACKS */
      }
    }

    /* Handle Reset Interrupt */
    if (__HAL_PCD_GET_FLAG(hpcd, USB_OTG_GINTSTS_USBRST))
 8001d52:	687b      	ldr	r3, [r7, #4]
 8001d54:	681b      	ldr	r3, [r3, #0]
 8001d56:	4618      	mov	r0, r3
 8001d58:	f004 fc16 	bl	8006588 <USB_ReadInterrupts>
 8001d5c:	4603      	mov	r3, r0
 8001d5e:	f403 5380 	and.w	r3, r3, #4096	; 0x1000
 8001d62:	f5b3 5f80 	cmp.w	r3, #4096	; 0x1000
 8001d66:	f040 80b7 	bne.w	8001ed8 <HAL_PCD_IRQHandler+0x6f2>
    {
      USBx_DEVICE->DCTL &= ~USB_OTG_DCTL_RWUSIG;
 8001d6a:	69fb      	ldr	r3, [r7, #28]
 8001d6c:	f503 6300 	add.w	r3, r3, #2048	; 0x800
 8001d70:	685b      	ldr	r3, [r3, #4]
 8001d72:	69fa      	ldr	r2, [r7, #28]
 8001d74:	f502 6200 	add.w	r2, r2, #2048	; 0x800
 8001d78:	f023 0301 	bic.w	r3, r3, #1
 8001d7c:	6053      	str	r3, [r2, #4]
      (void)USB_FlushTxFifo(hpcd->Instance, 0x10U);
 8001d7e:	687b      	ldr	r3, [r7, #4]
 8001d80:	681b      	ldr	r3, [r3, #0]
 8001d82:	2110      	movs	r1, #16
 8001d84:	4618      	mov	r0, r3
 8001d86:	f003 fcdd 	bl	8005744 <USB_FlushTxFifo>

      for (i = 0U; i < hpcd->Init.dev_endpoints; i++)
 8001d8a:	2300      	movs	r3, #0
 8001d8c:	62fb      	str	r3, [r7, #44]	; 0x2c
 8001d8e:	e046      	b.n	8001e1e <HAL_PCD_IRQHandler+0x638>
      {
        USBx_INEP(i)->DIEPINT = 0xFB7FU;
 8001d90:	6afb      	ldr	r3, [r7, #44]	; 0x2c
 8001d92:	015a      	lsls	r2, r3, #5
 8001d94:	69fb      	ldr	r3, [r7, #28]
 8001d96:	4413      	add	r3, r2
 8001d98:	f503 6310 	add.w	r3, r3, #2304	; 0x900
 8001d9c:	461a      	mov	r2, r3
 8001d9e:	f64f 337f 	movw	r3, #64383	; 0xfb7f
 8001da2:	6093      	str	r3, [r2, #8]
        USBx_INEP(i)->DIEPCTL &= ~USB_OTG_DIEPCTL_STALL;
 8001da4:	6afb      	ldr	r3, [r7, #44]	; 0x2c
 8001da6:	015a      	lsls	r2, r3, #5
 8001da8:	69fb      	ldr	r3, [r7, #28]
 8001daa:	4413      	add	r3, r2
 8001dac:	f503 6310 	add.w	r3, r3, #2304	; 0x900
 8001db0:	681b      	ldr	r3, [r3, #0]
 8001db2:	6afa      	ldr	r2, [r7, #44]	; 0x2c
 8001db4:	0151      	lsls	r1, r2, #5
 8001db6:	69fa      	ldr	r2, [r7, #28]
 8001db8:	440a      	add	r2, r1
 8001dba:	f502 6210 	add.w	r2, r2, #2304	; 0x900
 8001dbe:	f423 1300 	bic.w	r3, r3, #2097152	; 0x200000
 8001dc2:	6013      	str	r3, [r2, #0]
        USBx_OUTEP(i)->DOEPINT = 0xFB7FU;
 8001dc4:	6afb      	ldr	r3, [r7, #44]	; 0x2c
 8001dc6:	015a      	lsls	r2, r3, #5
 8001dc8:	69fb      	ldr	r3, [r7, #28]
 8001dca:	4413      	add	r3, r2
 8001dcc:	f503 6330 	add.w	r3, r3, #2816	; 0xb00
 8001dd0:	461a      	mov	r2, r3
 8001dd2:	f64f 337f 	movw	r3, #64383	; 0xfb7f
 8001dd6:	6093      	str	r3, [r2, #8]
        USBx_OUTEP(i)->DOEPCTL &= ~USB_OTG_DOEPCTL_STALL;
 8001dd8:	6afb      	ldr	r3, [r7, #44]	; 0x2c
 8001dda:	015a      	lsls	r2, r3, #5
 8001ddc:	69fb      	ldr	r3, [r7, #28]
 8001dde:	4413      	add	r3, r2
 8001de0:	f503 6330 	add.w	r3, r3, #2816	; 0xb00
 8001de4:	681b      	ldr	r3, [r3, #0]
 8001de6:	6afa      	ldr	r2, [r7, #44]	; 0x2c
 8001de8:	0151      	lsls	r1, r2, #5
 8001dea:	69fa      	ldr	r2, [r7, #28]
 8001dec:	440a      	add	r2, r1
 8001dee:	f502 6230 	add.w	r2, r2, #2816	; 0xb00
 8001df2:	f423 1300 	bic.w	r3, r3, #2097152	; 0x200000
 8001df6:	6013      	str	r3, [r2, #0]
        USBx_OUTEP(i)->DOEPCTL |= USB_OTG_DOEPCTL_SNAK;
 8001df8:	6afb      	ldr	r3, [r7, #44]	; 0x2c
 8001dfa:	015a      	lsls	r2, r3, #5
 8001dfc:	69fb      	ldr	r3, [r7, #28]
 8001dfe:	4413      	add	r3, r2
 8001e00:	f503 6330 	add.w	r3, r3, #2816	; 0xb00
 8001e04:	681b      	ldr	r3, [r3, #0]
 8001e06:	6afa      	ldr	r2, [r7, #44]	; 0x2c
 8001e08:	0151      	lsls	r1, r2, #5
 8001e0a:	69fa      	ldr	r2, [r7, #28]
 8001e0c:	440a      	add	r2, r1
 8001e0e:	f502 6230 	add.w	r2, r2, #2816	; 0xb00
 8001e12:	f043 6300 	orr.w	r3, r3, #134217728	; 0x8000000
 8001e16:	6013      	str	r3, [r2, #0]
      for (i = 0U; i < hpcd->Init.dev_endpoints; i++)
 8001e18:	6afb      	ldr	r3, [r7, #44]	; 0x2c
 8001e1a:	3301      	adds	r3, #1
 8001e1c:	62fb      	str	r3, [r7, #44]	; 0x2c
 8001e1e:	687b      	ldr	r3, [r7, #4]
 8001e20:	685b      	ldr	r3, [r3, #4]
 8001e22:	6afa      	ldr	r2, [r7, #44]	; 0x2c
 8001e24:	429a      	cmp	r2, r3
 8001e26:	d3b3      	bcc.n	8001d90 <HAL_PCD_IRQHandler+0x5aa>
      }
      USBx_DEVICE->DAINTMSK |= 0x10001U;
 8001e28:	69fb      	ldr	r3, [r7, #28]
 8001e2a:	f503 6300 	add.w	r3, r3, #2048	; 0x800
 8001e2e:	69db      	ldr	r3, [r3, #28]
 8001e30:	69fa      	ldr	r2, [r7, #28]
 8001e32:	f502 6200 	add.w	r2, r2, #2048	; 0x800
 8001e36:	f043 1301 	orr.w	r3, r3, #65537	; 0x10001
 8001e3a:	61d3      	str	r3, [r2, #28]

      if (hpcd->Init.use_dedicated_ep1 != 0U)
 8001e3c:	687b      	ldr	r3, [r7, #4]
 8001e3e:	6b1b      	ldr	r3, [r3, #48]	; 0x30
 8001e40:	2b00      	cmp	r3, #0
 8001e42:	d016      	beq.n	8001e72 <HAL_PCD_IRQHandler+0x68c>
      {
        USBx_DEVICE->DOUTEP1MSK |= USB_OTG_DOEPMSK_STUPM |
 8001e44:	69fb      	ldr	r3, [r7, #28]
 8001e46:	f503 6300 	add.w	r3, r3, #2048	; 0x800
 8001e4a:	f8d3 3084 	ldr.w	r3, [r3, #132]	; 0x84
 8001e4e:	69fa      	ldr	r2, [r7, #28]
 8001e50:	f502 6200 	add.w	r2, r2, #2048	; 0x800
 8001e54:	f043 030b 	orr.w	r3, r3, #11
 8001e58:	f8c2 3084 	str.w	r3, [r2, #132]	; 0x84
                                   USB_OTG_DOEPMSK_XFRCM |
                                   USB_OTG_DOEPMSK_EPDM;

        USBx_DEVICE->DINEP1MSK |= USB_OTG_DIEPMSK_TOM |
 8001e5c:	69fb      	ldr	r3, [r7, #28]
 8001e5e:	f503 6300 	add.w	r3, r3, #2048	; 0x800
 8001e62:	6c5b      	ldr	r3, [r3, #68]	; 0x44
 8001e64:	69fa      	ldr	r2, [r7, #28]
 8001e66:	f502 6200 	add.w	r2, r2, #2048	; 0x800
 8001e6a:	f043 030b 	orr.w	r3, r3, #11
 8001e6e:	6453      	str	r3, [r2, #68]	; 0x44
 8001e70:	e015      	b.n	8001e9e <HAL_PCD_IRQHandler+0x6b8>
                                  USB_OTG_DIEPMSK_XFRCM |
                                  USB_OTG_DIEPMSK_EPDM;
      }
      else
      {
        USBx_DEVICE->DOEPMSK |= USB_OTG_DOEPMSK_STUPM |
 8001e72:	69fb      	ldr	r3, [r7, #28]
 8001e74:	f503 6300 	add.w	r3, r3, #2048	; 0x800
 8001e78:	695a      	ldr	r2, [r3, #20]
 8001e7a:	69fb      	ldr	r3, [r7, #28]
 8001e7c:	f503 6300 	add.w	r3, r3, #2048	; 0x800
 8001e80:	4619      	mov	r1, r3
 8001e82:	f242 032b 	movw	r3, #8235	; 0x202b
 8001e86:	4313      	orrs	r3, r2
 8001e88:	614b      	str	r3, [r1, #20]
                                USB_OTG_DOEPMSK_XFRCM |
                                USB_OTG_DOEPMSK_EPDM |
                                USB_OTG_DOEPMSK_OTEPSPRM |
                                USB_OTG_DOEPMSK_NAKM;

        USBx_DEVICE->DIEPMSK |= USB_OTG_DIEPMSK_TOM |
 8001e8a:	69fb      	ldr	r3, [r7, #28]
 8001e8c:	f503 6300 	add.w	r3, r3, #2048	; 0x800
 8001e90:	691b      	ldr	r3, [r3, #16]
 8001e92:	69fa      	ldr	r2, [r7, #28]
 8001e94:	f502 6200 	add.w	r2, r2, #2048	; 0x800
 8001e98:	f043 030b 	orr.w	r3, r3, #11
 8001e9c:	6113      	str	r3, [r2, #16]
                                USB_OTG_DIEPMSK_XFRCM |
                                USB_OTG_DIEPMSK_EPDM;
      }

      /* Set Default Address to 0 */
      USBx_DEVICE->DCFG &= ~USB_OTG_DCFG_DAD;
 8001e9e:	69fb      	ldr	r3, [r7, #28]
 8001ea0:	f503 6300 	add.w	r3, r3, #2048	; 0x800
 8001ea4:	681b      	ldr	r3, [r3, #0]
 8001ea6:	69fa      	ldr	r2, [r7, #28]
 8001ea8:	f502 6200 	add.w	r2, r2, #2048	; 0x800
 8001eac:	f423 63fe 	bic.w	r3, r3, #2032	; 0x7f0
 8001eb0:	6013      	str	r3, [r2, #0]

      /* setup EP0 to receive SETUP packets */
      (void)USB_EP0_OutStart(hpcd->Instance, (uint8_t)hpcd->Init.dma_enable,
 8001eb2:	687b      	ldr	r3, [r7, #4]
 8001eb4:	6818      	ldr	r0, [r3, #0]
 8001eb6:	687b      	ldr	r3, [r7, #4]
 8001eb8:	68db      	ldr	r3, [r3, #12]
 8001eba:	b2d9      	uxtb	r1, r3
                             (uint8_t *)hpcd->Setup);
 8001ebc:	687b      	ldr	r3, [r7, #4]
 8001ebe:	f203 43c4 	addw	r3, r3, #1220	; 0x4c4
      (void)USB_EP0_OutStart(hpcd->Instance, (uint8_t)hpcd->Init.dma_enable,
 8001ec2:	461a      	mov	r2, r3
 8001ec4:	f004 fc26 	bl	8006714 <USB_EP0_OutStart>

      __HAL_PCD_CLEAR_FLAG(hpcd, USB_OTG_GINTSTS_USBRST);
 8001ec8:	687b      	ldr	r3, [r7, #4]
 8001eca:	681b      	ldr	r3, [r3, #0]
 8001ecc:	695a      	ldr	r2, [r3, #20]
 8001ece:	687b      	ldr	r3, [r7, #4]
 8001ed0:	681b      	ldr	r3, [r3, #0]
 8001ed2:	f402 5280 	and.w	r2, r2, #4096	; 0x1000
 8001ed6:	615a      	str	r2, [r3, #20]
    }

    /* Handle Enumeration done Interrupt */
    if (__HAL_PCD_GET_FLAG(hpcd, USB_OTG_GINTSTS_ENUMDNE))
 8001ed8:	687b      	ldr	r3, [r7, #4]
 8001eda:	681b      	ldr	r3, [r3, #0]
 8001edc:	4618      	mov	r0, r3
 8001ede:	f004 fb53 	bl	8006588 <USB_ReadInterrupts>
 8001ee2:	4603      	mov	r3, r0
 8001ee4:	f403 5300 	and.w	r3, r3, #8192	; 0x2000
 8001ee8:	f5b3 5f00 	cmp.w	r3, #8192	; 0x2000
 8001eec:	d124      	bne.n	8001f38 <HAL_PCD_IRQHandler+0x752>
    {
      (void)USB_ActivateSetup(hpcd->Instance);
 8001eee:	687b      	ldr	r3, [r7, #4]
 8001ef0:	681b      	ldr	r3, [r3, #0]
 8001ef2:	4618      	mov	r0, r3
 8001ef4:	f004 fbea 	bl	80066cc <USB_ActivateSetup>
      hpcd->Init.speed = USB_GetDevSpeed(hpcd->Instance);
 8001ef8:	687b      	ldr	r3, [r7, #4]
 8001efa:	681b      	ldr	r3, [r3, #0]
 8001efc:	4618      	mov	r0, r3
 8001efe:	f003 fc9e 	bl	800583e <USB_GetDevSpeed>
 8001f02:	4603      	mov	r3, r0
 8001f04:	461a      	mov	r2, r3
 8001f06:	687b      	ldr	r3, [r7, #4]
 8001f08:	611a      	str	r2, [r3, #16]

      /* Set USB Turnaround time */
      (void)USB_SetTurnaroundTime(hpcd->Instance,
 8001f0a:	687b      	ldr	r3, [r7, #4]
 8001f0c:	681c      	ldr	r4, [r3, #0]
 8001f0e:	f001 fd9f 	bl	8003a50 <HAL_RCC_GetHCLKFreq>
 8001f12:	4601      	mov	r1, r0
                                  HAL_RCC_GetHCLKFreq(),
                                  (uint8_t)hpcd->Init.speed);
 8001f14:	687b      	ldr	r3, [r7, #4]
 8001f16:	691b      	ldr	r3, [r3, #16]
      (void)USB_SetTurnaroundTime(hpcd->Instance,
 8001f18:	b2db      	uxtb	r3, r3
 8001f1a:	461a      	mov	r2, r3
 8001f1c:	4620      	mov	r0, r4
 8001f1e:	f003 f9a3 	bl	8005268 <USB_SetTurnaroundTime>

#if (USE_HAL_PCD_REGISTER_CALLBACKS == 1U)
      hpcd->ResetCallback(hpcd);
#else
      HAL_PCD_ResetCallback(hpcd);
 8001f22:	6878      	ldr	r0, [r7, #4]
 8001f24:	f006 fdcf 	bl	8008ac6 <HAL_PCD_ResetCallback>
#endif /* USE_HAL_PCD_REGISTER_CALLBACKS */

      __HAL_PCD_CLEAR_FLAG(hpcd, USB_OTG_GINTSTS_ENUMDNE);
 8001f28:	687b      	ldr	r3, [r7, #4]
 8001f2a:	681b      	ldr	r3, [r3, #0]
 8001f2c:	695a      	ldr	r2, [r3, #20]
 8001f2e:	687b      	ldr	r3, [r7, #4]
 8001f30:	681b      	ldr	r3, [r3, #0]
 8001f32:	f402 5200 	and.w	r2, r2, #8192	; 0x2000
 8001f36:	615a      	str	r2, [r3, #20]
    }

    /* Handle SOF Interrupt */
    if (__HAL_PCD_GET_FLAG(hpcd, USB_OTG_GINTSTS_SOF))
 8001f38:	687b      	ldr	r3, [r7, #4]
 8001f3a:	681b      	ldr	r3, [r3, #0]
 8001f3c:	4618      	mov	r0, r3
 8001f3e:	f004 fb23 	bl	8006588 <USB_ReadInterrupts>
 8001f42:	4603      	mov	r3, r0
 8001f44:	f003 0308 	and.w	r3, r3, #8
 8001f48:	2b08      	cmp	r3, #8
 8001f4a:	d10a      	bne.n	8001f62 <HAL_PCD_IRQHandler+0x77c>
    {
#if (USE_HAL_PCD_REGISTER_CALLBACKS == 1U)
      hpcd->SOFCallback(hpcd);
#else
      HAL_PCD_SOFCallback(hpcd);
 8001f4c:	6878      	ldr	r0, [r7, #4]
 8001f4e:	f006 fdac 	bl	8008aaa <HAL_PCD_SOFCallback>
#endif /* USE_HAL_PCD_REGISTER_CALLBACKS */

      __HAL_PCD_CLEAR_FLAG(hpcd, USB_OTG_GINTSTS_SOF);
 8001f52:	687b      	ldr	r3, [r7, #4]
 8001f54:	681b      	ldr	r3, [r3, #0]
 8001f56:	695a      	ldr	r2, [r3, #20]
 8001f58:	687b      	ldr	r3, [r7, #4]
 8001f5a:	681b      	ldr	r3, [r3, #0]
 8001f5c:	f002 0208 	and.w	r2, r2, #8
 8001f60:	615a      	str	r2, [r3, #20]
    }

    /* Handle Global OUT NAK effective Interrupt */
    if (__HAL_PCD_GET_FLAG(hpcd, USB_OTG_GINTSTS_BOUTNAKEFF))
 8001f62:	687b      	ldr	r3, [r7, #4]
 8001f64:	681b      	ldr	r3, [r3, #0]
 8001f66:	4618      	mov	r0, r3
 8001f68:	f004 fb0e 	bl	8006588 <USB_ReadInterrupts>
 8001f6c:	4603      	mov	r3, r0
 8001f6e:	f003 0380 	and.w	r3, r3, #128	; 0x80
 8001f72:	2b80      	cmp	r3, #128	; 0x80
 8001f74:	d122      	bne.n	8001fbc <HAL_PCD_IRQHandler+0x7d6>
    {
      USBx->GINTMSK &= ~USB_OTG_GINTMSK_GONAKEFFM;
 8001f76:	6a3b      	ldr	r3, [r7, #32]
 8001f78:	699b      	ldr	r3, [r3, #24]
 8001f7a:	f023 0280 	bic.w	r2, r3, #128	; 0x80
 8001f7e:	6a3b      	ldr	r3, [r7, #32]
 8001f80:	619a      	str	r2, [r3, #24]

      for (epnum = 1U; epnum < hpcd->Init.dev_endpoints; epnum++)
 8001f82:	2301      	movs	r3, #1
 8001f84:	627b      	str	r3, [r7, #36]	; 0x24
 8001f86:	e014      	b.n	8001fb2 <HAL_PCD_IRQHandler+0x7cc>
      {
        if (hpcd->OUT_ep[epnum].is_iso_incomplete == 1U)
 8001f88:	6879      	ldr	r1, [r7, #4]
 8001f8a:	6a7a      	ldr	r2, [r7, #36]	; 0x24
 8001f8c:	4613      	mov	r3, r2
 8001f8e:	00db      	lsls	r3, r3, #3
 8001f90:	4413      	add	r3, r2
 8001f92:	009b      	lsls	r3, r3, #2
 8001f94:	440b      	add	r3, r1
 8001f96:	f203 237f 	addw	r3, r3, #639	; 0x27f
 8001f9a:	781b      	ldrb	r3, [r3, #0]
 8001f9c:	2b01      	cmp	r3, #1
 8001f9e:	d105      	bne.n	8001fac <HAL_PCD_IRQHandler+0x7c6>
        {
          /* Abort current transaction and disable the EP */
          (void)HAL_PCD_EP_Abort(hpcd, (uint8_t)epnum);
 8001fa0:	6a7b      	ldr	r3, [r7, #36]	; 0x24
 8001fa2:	b2db      	uxtb	r3, r3
 8001fa4:	4619      	mov	r1, r3
 8001fa6:	6878      	ldr	r0, [r7, #4]
 8001fa8:	f000 fb09 	bl	80025be <HAL_PCD_EP_Abort>
      for (epnum = 1U; epnum < hpcd->Init.dev_endpoints; epnum++)
 8001fac:	6a7b      	ldr	r3, [r7, #36]	; 0x24
 8001fae:	3301      	adds	r3, #1
 8001fb0:	627b      	str	r3, [r7, #36]	; 0x24
 8001fb2:	687b      	ldr	r3, [r7, #4]
 8001fb4:	685b      	ldr	r3, [r3, #4]
 8001fb6:	6a7a      	ldr	r2, [r7, #36]	; 0x24
 8001fb8:	429a      	cmp	r2, r3
 8001fba:	d3e5      	bcc.n	8001f88 <HAL_PCD_IRQHandler+0x7a2>
        }
      }
    }

    /* Handle Incomplete ISO IN Interrupt */
    if (__HAL_PCD_GET_FLAG(hpcd, USB_OTG_GINTSTS_IISOIXFR))
 8001fbc:	687b      	ldr	r3, [r7, #4]
 8001fbe:	681b      	ldr	r3, [r3, #0]
 8001fc0:	4618      	mov	r0, r3
 8001fc2:	f004 fae1 	bl	8006588 <USB_ReadInterrupts>
 8001fc6:	4603      	mov	r3, r0
 8001fc8:	f403 1380 	and.w	r3, r3, #1048576	; 0x100000
 8001fcc:	f5b3 1f80 	cmp.w	r3, #1048576	; 0x100000
 8001fd0:	d13b      	bne.n	800204a <HAL_PCD_IRQHandler+0x864>
    {
      for (epnum = 1U; epnum < hpcd->Init.dev_endpoints; epnum++)
 8001fd2:	2301      	movs	r3, #1
 8001fd4:	627b      	str	r3, [r7, #36]	; 0x24
 8001fd6:	e02b      	b.n	8002030 <HAL_PCD_IRQHandler+0x84a>
      {
        RegVal = USBx_INEP(epnum)->DIEPCTL;
 8001fd8:	6a7b      	ldr	r3, [r7, #36]	; 0x24
 8001fda:	015a      	lsls	r2, r3, #5
 8001fdc:	69fb      	ldr	r3, [r7, #28]
 8001fde:	4413      	add	r3, r2
 8001fe0:	f503 6310 	add.w	r3, r3, #2304	; 0x900
 8001fe4:	681b      	ldr	r3, [r3, #0]
 8001fe6:	61bb      	str	r3, [r7, #24]

        if ((hpcd->IN_ep[epnum].type == EP_TYPE_ISOC) &&
 8001fe8:	6879      	ldr	r1, [r7, #4]
 8001fea:	6a7a      	ldr	r2, [r7, #36]	; 0x24
 8001fec:	4613      	mov	r3, r2
 8001fee:	00db      	lsls	r3, r3, #3
 8001ff0:	4413      	add	r3, r2
 8001ff2:	009b      	lsls	r3, r3, #2
 8001ff4:	440b      	add	r3, r1
 8001ff6:	3340      	adds	r3, #64	; 0x40
 8001ff8:	781b      	ldrb	r3, [r3, #0]
 8001ffa:	2b01      	cmp	r3, #1
 8001ffc:	d115      	bne.n	800202a <HAL_PCD_IRQHandler+0x844>
            ((RegVal & USB_OTG_DIEPCTL_EPENA) == USB_OTG_DIEPCTL_EPENA))
 8001ffe:	69bb      	ldr	r3, [r7, #24]
        if ((hpcd->IN_ep[epnum].type == EP_TYPE_ISOC) &&
 8002000:	2b00      	cmp	r3, #0
 8002002:	da12      	bge.n	800202a <HAL_PCD_IRQHandler+0x844>
        {
          hpcd->IN_ep[epnum].is_iso_incomplete = 1U;
 8002004:	6879      	ldr	r1, [r7, #4]
 8002006:	6a7a      	ldr	r2, [r7, #36]	; 0x24
 8002008:	4613      	mov	r3, r2
 800200a:	00db      	lsls	r3, r3, #3
 800200c:	4413      	add	r3, r2
 800200e:	009b      	lsls	r3, r3, #2
 8002010:	440b      	add	r3, r1
 8002012:	333f      	adds	r3, #63	; 0x3f
 8002014:	2201      	movs	r2, #1
 8002016:	701a      	strb	r2, [r3, #0]

          /* Abort current transaction and disable the EP */
          (void)HAL_PCD_EP_Abort(hpcd, (uint8_t)(epnum | 0x80U));
 8002018:	6a7b      	ldr	r3, [r7, #36]	; 0x24
 800201a:	b2db      	uxtb	r3, r3
 800201c:	f063 037f 	orn	r3, r3, #127	; 0x7f
 8002020:	b2db      	uxtb	r3, r3
 8002022:	4619      	mov	r1, r3
 8002024:	6878      	ldr	r0, [r7, #4]
 8002026:	f000 faca 	bl	80025be <HAL_PCD_EP_Abort>
      for (epnum = 1U; epnum < hpcd->Init.dev_endpoints; epnum++)
 800202a:	6a7b      	ldr	r3, [r7, #36]	; 0x24
 800202c:	3301      	adds	r3, #1
 800202e:	627b      	str	r3, [r7, #36]	; 0x24
 8002030:	687b      	ldr	r3, [r7, #4]
 8002032:	685b      	ldr	r3, [r3, #4]
 8002034:	6a7a      	ldr	r2, [r7, #36]	; 0x24
 8002036:	429a      	cmp	r2, r3
 8002038:	d3ce      	bcc.n	8001fd8 <HAL_PCD_IRQHandler+0x7f2>
        }
      }

      __HAL_PCD_CLEAR_FLAG(hpcd, USB_OTG_GINTSTS_IISOIXFR);
 800203a:	687b      	ldr	r3, [r7, #4]
 800203c:	681b      	ldr	r3, [r3, #0]
 800203e:	695a      	ldr	r2, [r3, #20]
 8002040:	687b      	ldr	r3, [r7, #4]
 8002042:	681b      	ldr	r3, [r3, #0]
 8002044:	f402 1280 	and.w	r2, r2, #1048576	; 0x100000
 8002048:	615a      	str	r2, [r3, #20]
    }

    /* Handle Incomplete ISO OUT Interrupt */
    if (__HAL_PCD_GET_FLAG(hpcd, USB_OTG_GINTSTS_PXFR_INCOMPISOOUT))
 800204a:	687b      	ldr	r3, [r7, #4]
 800204c:	681b      	ldr	r3, [r3, #0]
 800204e:	4618      	mov	r0, r3
 8002050:	f004 fa9a 	bl	8006588 <USB_ReadInterrupts>
 8002054:	4603      	mov	r3, r0
 8002056:	f403 1300 	and.w	r3, r3, #2097152	; 0x200000
 800205a:	f5b3 1f00 	cmp.w	r3, #2097152	; 0x200000
 800205e:	d155      	bne.n	800210c <HAL_PCD_IRQHandler+0x926>
    {
      for (epnum = 1U; epnum < hpcd->Init.dev_endpoints; epnum++)
 8002060:	2301      	movs	r3, #1
 8002062:	627b      	str	r3, [r7, #36]	; 0x24
 8002064:	e045      	b.n	80020f2 <HAL_PCD_IRQHandler+0x90c>
      {
        RegVal = USBx_OUTEP(epnum)->DOEPCTL;
 8002066:	6a7b      	ldr	r3, [r7, #36]	; 0x24
 8002068:	015a      	lsls	r2, r3, #5
 800206a:	69fb      	ldr	r3, [r7, #28]
 800206c:	4413      	add	r3, r2
 800206e:	f503 6330 	add.w	r3, r3, #2816	; 0xb00
 8002072:	681b      	ldr	r3, [r3, #0]
 8002074:	61bb      	str	r3, [r7, #24]

        if ((hpcd->OUT_ep[epnum].type == EP_TYPE_ISOC) &&
 8002076:	6879      	ldr	r1, [r7, #4]
 8002078:	6a7a      	ldr	r2, [r7, #36]	; 0x24
 800207a:	4613      	mov	r3, r2
 800207c:	00db      	lsls	r3, r3, #3
 800207e:	4413      	add	r3, r2
 8002080:	009b      	lsls	r3, r3, #2
 8002082:	440b      	add	r3, r1
 8002084:	f503 7320 	add.w	r3, r3, #640	; 0x280
 8002088:	781b      	ldrb	r3, [r3, #0]
 800208a:	2b01      	cmp	r3, #1
 800208c:	d12e      	bne.n	80020ec <HAL_PCD_IRQHandler+0x906>
            ((RegVal & USB_OTG_DOEPCTL_EPENA) == USB_OTG_DOEPCTL_EPENA) &&
 800208e:	69bb      	ldr	r3, [r7, #24]
        if ((hpcd->OUT_ep[epnum].type == EP_TYPE_ISOC) &&
 8002090:	2b00      	cmp	r3, #0
 8002092:	da2b      	bge.n	80020ec <HAL_PCD_IRQHandler+0x906>
            ((RegVal & (0x1U << 16)) == (hpcd->FrameNumber & 0x1U)))
 8002094:	69bb      	ldr	r3, [r7, #24]
 8002096:	f403 3280 	and.w	r2, r3, #65536	; 0x10000
 800209a:	687b      	ldr	r3, [r7, #4]
 800209c:	f8d3 34fc 	ldr.w	r3, [r3, #1276]	; 0x4fc
 80020a0:	f003 0301 	and.w	r3, r3, #1
            ((RegVal & USB_OTG_DOEPCTL_EPENA) == USB_OTG_DOEPCTL_EPENA) &&
 80020a4:	429a      	cmp	r2, r3
 80020a6:	d121      	bne.n	80020ec <HAL_PCD_IRQHandler+0x906>
        {
          hpcd->OUT_ep[epnum].is_iso_incomplete = 1U;
 80020a8:	6879      	ldr	r1, [r7, #4]
 80020aa:	6a7a      	ldr	r2, [r7, #36]	; 0x24
 80020ac:	4613      	mov	r3, r2
 80020ae:	00db      	lsls	r3, r3, #3
 80020b0:	4413      	add	r3, r2
 80020b2:	009b      	lsls	r3, r3, #2
 80020b4:	440b      	add	r3, r1
 80020b6:	f203 237f 	addw	r3, r3, #639	; 0x27f
 80020ba:	2201      	movs	r2, #1
 80020bc:	701a      	strb	r2, [r3, #0]

          USBx->GINTMSK |= USB_OTG_GINTMSK_GONAKEFFM;
 80020be:	6a3b      	ldr	r3, [r7, #32]
 80020c0:	699b      	ldr	r3, [r3, #24]
 80020c2:	f043 0280 	orr.w	r2, r3, #128	; 0x80
 80020c6:	6a3b      	ldr	r3, [r7, #32]
 80020c8:	619a      	str	r2, [r3, #24]

          if ((USBx->GINTSTS & USB_OTG_GINTSTS_BOUTNAKEFF) == 0U)
 80020ca:	6a3b      	ldr	r3, [r7, #32]
 80020cc:	695b      	ldr	r3, [r3, #20]
 80020ce:	f003 0380 	and.w	r3, r3, #128	; 0x80
 80020d2:	2b00      	cmp	r3, #0
 80020d4:	d10a      	bne.n	80020ec <HAL_PCD_IRQHandler+0x906>
          {
            USBx_DEVICE->DCTL |= USB_OTG_DCTL_SGONAK;
 80020d6:	69fb      	ldr	r3, [r7, #28]
 80020d8:	f503 6300 	add.w	r3, r3, #2048	; 0x800
 80020dc:	685b      	ldr	r3, [r3, #4]
 80020de:	69fa      	ldr	r2, [r7, #28]
 80020e0:	f502 6200 	add.w	r2, r2, #2048	; 0x800
 80020e4:	f443 7300 	orr.w	r3, r3, #512	; 0x200
 80020e8:	6053      	str	r3, [r2, #4]
            break;
 80020ea:	e007      	b.n	80020fc <HAL_PCD_IRQHandler+0x916>
      for (epnum = 1U; epnum < hpcd->Init.dev_endpoints; epnum++)
 80020ec:	6a7b      	ldr	r3, [r7, #36]	; 0x24
 80020ee:	3301      	adds	r3, #1
 80020f0:	627b      	str	r3, [r7, #36]	; 0x24
 80020f2:	687b      	ldr	r3, [r7, #4]
 80020f4:	685b      	ldr	r3, [r3, #4]
 80020f6:	6a7a      	ldr	r2, [r7, #36]	; 0x24
 80020f8:	429a      	cmp	r2, r3
 80020fa:	d3b4      	bcc.n	8002066 <HAL_PCD_IRQHandler+0x880>
          }
        }
      }

      __HAL_PCD_CLEAR_FLAG(hpcd, USB_OTG_GINTSTS_PXFR_INCOMPISOOUT);
 80020fc:	687b      	ldr	r3, [r7, #4]
 80020fe:	681b      	ldr	r3, [r3, #0]
 8002100:	695a      	ldr	r2, [r3, #20]
 8002102:	687b      	ldr	r3, [r7, #4]
 8002104:	681b      	ldr	r3, [r3, #0]
 8002106:	f402 1200 	and.w	r2, r2, #2097152	; 0x200000
 800210a:	615a      	str	r2, [r3, #20]
    }

    /* Handle Connection event Interrupt */
    if (__HAL_PCD_GET_FLAG(hpcd, USB_OTG_GINTSTS_SRQINT))
 800210c:	687b      	ldr	r3, [r7, #4]
 800210e:	681b      	ldr	r3, [r3, #0]
 8002110:	4618      	mov	r0, r3
 8002112:	f004 fa39 	bl	8006588 <USB_ReadInterrupts>
 8002116:	4603      	mov	r3, r0
 8002118:	f003 4380 	and.w	r3, r3, #1073741824	; 0x40000000
 800211c:	f1b3 4f80 	cmp.w	r3, #1073741824	; 0x40000000
 8002120:	d10a      	bne.n	8002138 <HAL_PCD_IRQHandler+0x952>
    {
#if (USE_HAL_PCD_REGISTER_CALLBACKS == 1U)
      hpcd->ConnectCallback(hpcd);
#else
      HAL_PCD_ConnectCallback(hpcd);
 8002122:	6878      	ldr	r0, [r7, #4]
 8002124:	f006 fd50 	bl	8008bc8 <HAL_PCD_ConnectCallback>
#endif /* USE_HAL_PCD_REGISTER_CALLBACKS */

      __HAL_PCD_CLEAR_FLAG(hpcd, USB_OTG_GINTSTS_SRQINT);
 8002128:	687b      	ldr	r3, [r7, #4]
 800212a:	681b      	ldr	r3, [r3, #0]
 800212c:	695a      	ldr	r2, [r3, #20]
 800212e:	687b      	ldr	r3, [r7, #4]
 8002130:	681b      	ldr	r3, [r3, #0]
 8002132:	f002 4280 	and.w	r2, r2, #1073741824	; 0x40000000
 8002136:	615a      	str	r2, [r3, #20]
    }

    /* Handle Disconnection event Interrupt */
    if (__HAL_PCD_GET_FLAG(hpcd, USB_OTG_GINTSTS_OTGINT))
 8002138:	687b      	ldr	r3, [r7, #4]
 800213a:	681b      	ldr	r3, [r3, #0]
 800213c:	4618      	mov	r0, r3
 800213e:	f004 fa23 	bl	8006588 <USB_ReadInterrupts>
 8002142:	4603      	mov	r3, r0
 8002144:	f003 0304 	and.w	r3, r3, #4
 8002148:	2b04      	cmp	r3, #4
 800214a:	d115      	bne.n	8002178 <HAL_PCD_IRQHandler+0x992>
    {
      RegVal = hpcd->Instance->GOTGINT;
 800214c:	687b      	ldr	r3, [r7, #4]
 800214e:	681b      	ldr	r3, [r3, #0]
 8002150:	685b      	ldr	r3, [r3, #4]
 8002152:	61bb      	str	r3, [r7, #24]

      if ((RegVal & USB_OTG_GOTGINT_SEDET) == USB_OTG_GOTGINT_SEDET)
 8002154:	69bb      	ldr	r3, [r7, #24]
 8002156:	f003 0304 	and.w	r3, r3, #4
 800215a:	2b00      	cmp	r3, #0
 800215c:	d002      	beq.n	8002164 <HAL_PCD_IRQHandler+0x97e>
      {
#if (USE_HAL_PCD_REGISTER_CALLBACKS == 1U)
        hpcd->DisconnectCallback(hpcd);
#else
        HAL_PCD_DisconnectCallback(hpcd);
 800215e:	6878      	ldr	r0, [r7, #4]
 8002160:	f006 fd40 	bl	8008be4 <HAL_PCD_DisconnectCallback>
#endif /* USE_HAL_PCD_REGISTER_CALLBACKS */
      }
      hpcd->Instance->GOTGINT |= RegVal;
 8002164:	687b      	ldr	r3, [r7, #4]
 8002166:	681b      	ldr	r3, [r3, #0]
 8002168:	6859      	ldr	r1, [r3, #4]
 800216a:	687b      	ldr	r3, [r7, #4]
 800216c:	681b      	ldr	r3, [r3, #0]
 800216e:	69ba      	ldr	r2, [r7, #24]
 8002170:	430a      	orrs	r2, r1
 8002172:	605a      	str	r2, [r3, #4]
 8002174:	e000      	b.n	8002178 <HAL_PCD_IRQHandler+0x992>
      return;
 8002176:	bf00      	nop
    }
  }
}
 8002178:	3734      	adds	r7, #52	; 0x34
 800217a:	46bd      	mov	sp, r7
 800217c:	bd90      	pop	{r4, r7, pc}

0800217e <HAL_PCD_SetAddress>:
  * @param  hpcd PCD handle
  * @param  address new device address
  * @retval HAL status
  */
HAL_StatusTypeDef HAL_PCD_SetAddress(PCD_HandleTypeDef *hpcd, uint8_t address)
{
 800217e:	b580      	push	{r7, lr}
 8002180:	b082      	sub	sp, #8
 8002182:	af00      	add	r7, sp, #0
 8002184:	6078      	str	r0, [r7, #4]
 8002186:	460b      	mov	r3, r1
 8002188:	70fb      	strb	r3, [r7, #3]
  __HAL_LOCK(hpcd);
 800218a:	687b      	ldr	r3, [r7, #4]
 800218c:	f893 34bc 	ldrb.w	r3, [r3, #1212]	; 0x4bc
 8002190:	2b01      	cmp	r3, #1
 8002192:	d101      	bne.n	8002198 <HAL_PCD_SetAddress+0x1a>
 8002194:	2302      	movs	r3, #2
 8002196:	e013      	b.n	80021c0 <HAL_PCD_SetAddress+0x42>
 8002198:	687b      	ldr	r3, [r7, #4]
 800219a:	2201      	movs	r2, #1
 800219c:	f883 24bc 	strb.w	r2, [r3, #1212]	; 0x4bc
  hpcd->USB_Address = address;
 80021a0:	687b      	ldr	r3, [r7, #4]
 80021a2:	78fa      	ldrb	r2, [r7, #3]
 80021a4:	f883 2038 	strb.w	r2, [r3, #56]	; 0x38
  (void)USB_SetDevAddress(hpcd->Instance, address);
 80021a8:	687b      	ldr	r3, [r7, #4]
 80021aa:	681b      	ldr	r3, [r3, #0]
 80021ac:	78fa      	ldrb	r2, [r7, #3]
 80021ae:	4611      	mov	r1, r2
 80021b0:	4618      	mov	r0, r3
 80021b2:	f004 f981 	bl	80064b8 <USB_SetDevAddress>
  __HAL_UNLOCK(hpcd);
 80021b6:	687b      	ldr	r3, [r7, #4]
 80021b8:	2200      	movs	r2, #0
 80021ba:	f883 24bc 	strb.w	r2, [r3, #1212]	; 0x4bc

  return HAL_OK;
 80021be:	2300      	movs	r3, #0
}
 80021c0:	4618      	mov	r0, r3
 80021c2:	3708      	adds	r7, #8
 80021c4:	46bd      	mov	sp, r7
 80021c6:	bd80      	pop	{r7, pc}

080021c8 <HAL_PCD_EP_Open>:
  * @param  ep_type endpoint type
  * @retval HAL status
  */
HAL_StatusTypeDef HAL_PCD_EP_Open(PCD_HandleTypeDef *hpcd, uint8_t ep_addr,
                                  uint16_t ep_mps, uint8_t ep_type)
{
 80021c8:	b580      	push	{r7, lr}
 80021ca:	b084      	sub	sp, #16
 80021cc:	af00      	add	r7, sp, #0
 80021ce:	6078      	str	r0, [r7, #4]
 80021d0:	4608      	mov	r0, r1
 80021d2:	4611      	mov	r1, r2
 80021d4:	461a      	mov	r2, r3
 80021d6:	4603      	mov	r3, r0
 80021d8:	70fb      	strb	r3, [r7, #3]
 80021da:	460b      	mov	r3, r1
 80021dc:	803b      	strh	r3, [r7, #0]
 80021de:	4613      	mov	r3, r2
 80021e0:	70bb      	strb	r3, [r7, #2]
  HAL_StatusTypeDef  ret = HAL_OK;
 80021e2:	2300      	movs	r3, #0
 80021e4:	72fb      	strb	r3, [r7, #11]
  PCD_EPTypeDef *ep;

  if ((ep_addr & 0x80U) == 0x80U)
 80021e6:	f997 3003 	ldrsb.w	r3, [r7, #3]
 80021ea:	2b00      	cmp	r3, #0
 80021ec:	da0f      	bge.n	800220e <HAL_PCD_EP_Open+0x46>
  {
    ep = &hpcd->IN_ep[ep_addr & EP_ADDR_MSK];
 80021ee:	78fb      	ldrb	r3, [r7, #3]
 80021f0:	f003 020f 	and.w	r2, r3, #15
 80021f4:	4613      	mov	r3, r2
 80021f6:	00db      	lsls	r3, r3, #3
 80021f8:	4413      	add	r3, r2
 80021fa:	009b      	lsls	r3, r3, #2
 80021fc:	3338      	adds	r3, #56	; 0x38
 80021fe:	687a      	ldr	r2, [r7, #4]
 8002200:	4413      	add	r3, r2
 8002202:	3304      	adds	r3, #4
 8002204:	60fb      	str	r3, [r7, #12]
    ep->is_in = 1U;
 8002206:	68fb      	ldr	r3, [r7, #12]
 8002208:	2201      	movs	r2, #1
 800220a:	705a      	strb	r2, [r3, #1]
 800220c:	e00f      	b.n	800222e <HAL_PCD_EP_Open+0x66>
  }
  else
  {
    ep = &hpcd->OUT_ep[ep_addr & EP_ADDR_MSK];
 800220e:	78fb      	ldrb	r3, [r7, #3]
 8002210:	f003 020f 	and.w	r2, r3, #15
 8002214:	4613      	mov	r3, r2
 8002216:	00db      	lsls	r3, r3, #3
 8002218:	4413      	add	r3, r2
 800221a:	009b      	lsls	r3, r3, #2
 800221c:	f503 731e 	add.w	r3, r3, #632	; 0x278
 8002220:	687a      	ldr	r2, [r7, #4]
 8002222:	4413      	add	r3, r2
 8002224:	3304      	adds	r3, #4
 8002226:	60fb      	str	r3, [r7, #12]
    ep->is_in = 0U;
 8002228:	68fb      	ldr	r3, [r7, #12]
 800222a:	2200      	movs	r2, #0
 800222c:	705a      	strb	r2, [r3, #1]
  }

  ep->num = ep_addr & EP_ADDR_MSK;
 800222e:	78fb      	ldrb	r3, [r7, #3]
 8002230:	f003 030f 	and.w	r3, r3, #15
 8002234:	b2da      	uxtb	r2, r3
 8002236:	68fb      	ldr	r3, [r7, #12]
 8002238:	701a      	strb	r2, [r3, #0]
  ep->maxpacket = ep_mps;
 800223a:	883a      	ldrh	r2, [r7, #0]
 800223c:	68fb      	ldr	r3, [r7, #12]
 800223e:	609a      	str	r2, [r3, #8]
  ep->type = ep_type;
 8002240:	68fb      	ldr	r3, [r7, #12]
 8002242:	78ba      	ldrb	r2, [r7, #2]
 8002244:	711a      	strb	r2, [r3, #4]

  if (ep->is_in != 0U)
 8002246:	68fb      	ldr	r3, [r7, #12]
 8002248:	785b      	ldrb	r3, [r3, #1]
 800224a:	2b00      	cmp	r3, #0
 800224c:	d004      	beq.n	8002258 <HAL_PCD_EP_Open+0x90>
  {
    /* Assign a Tx FIFO */
    ep->tx_fifo_num = ep->num;
 800224e:	68fb      	ldr	r3, [r7, #12]
 8002250:	781b      	ldrb	r3, [r3, #0]
 8002252:	b29a      	uxth	r2, r3
 8002254:	68fb      	ldr	r3, [r7, #12]
 8002256:	835a      	strh	r2, [r3, #26]
  }

  /* Set initial data PID. */
  if (ep_type == EP_TYPE_BULK)
 8002258:	78bb      	ldrb	r3, [r7, #2]
 800225a:	2b02      	cmp	r3, #2
 800225c:	d102      	bne.n	8002264 <HAL_PCD_EP_Open+0x9c>
  {
    ep->data_pid_start = 0U;
 800225e:	68fb      	ldr	r3, [r7, #12]
 8002260:	2200      	movs	r2, #0
 8002262:	715a      	strb	r2, [r3, #5]
  }

  __HAL_LOCK(hpcd);
 8002264:	687b      	ldr	r3, [r7, #4]
 8002266:	f893 34bc 	ldrb.w	r3, [r3, #1212]	; 0x4bc
 800226a:	2b01      	cmp	r3, #1
 800226c:	d101      	bne.n	8002272 <HAL_PCD_EP_Open+0xaa>
 800226e:	2302      	movs	r3, #2
 8002270:	e00e      	b.n	8002290 <HAL_PCD_EP_Open+0xc8>
 8002272:	687b      	ldr	r3, [r7, #4]
 8002274:	2201      	movs	r2, #1
 8002276:	f883 24bc 	strb.w	r2, [r3, #1212]	; 0x4bc
  (void)USB_ActivateEndpoint(hpcd->Instance, ep);
 800227a:	687b      	ldr	r3, [r7, #4]
 800227c:	681b      	ldr	r3, [r3, #0]
 800227e:	68f9      	ldr	r1, [r7, #12]
 8002280:	4618      	mov	r0, r3
 8002282:	f003 fb01 	bl	8005888 <USB_ActivateEndpoint>
  __HAL_UNLOCK(hpcd);
 8002286:	687b      	ldr	r3, [r7, #4]
 8002288:	2200      	movs	r2, #0
 800228a:	f883 24bc 	strb.w	r2, [r3, #1212]	; 0x4bc

  return ret;
 800228e:	7afb      	ldrb	r3, [r7, #11]
}
 8002290:	4618      	mov	r0, r3
 8002292:	3710      	adds	r7, #16
 8002294:	46bd      	mov	sp, r7
 8002296:	bd80      	pop	{r7, pc}

08002298 <HAL_PCD_EP_Close>:
  * @param  hpcd PCD handle
  * @param  ep_addr endpoint address
  * @retval HAL status
  */
HAL_StatusTypeDef HAL_PCD_EP_Close(PCD_HandleTypeDef *hpcd, uint8_t ep_addr)
{
 8002298:	b580      	push	{r7, lr}
 800229a:	b084      	sub	sp, #16
 800229c:	af00      	add	r7, sp, #0
 800229e:	6078      	str	r0, [r7, #4]
 80022a0:	460b      	mov	r3, r1
 80022a2:	70fb      	strb	r3, [r7, #3]
  PCD_EPTypeDef *ep;

  if ((ep_addr & 0x80U) == 0x80U)
 80022a4:	f997 3003 	ldrsb.w	r3, [r7, #3]
 80022a8:	2b00      	cmp	r3, #0
 80022aa:	da0f      	bge.n	80022cc <HAL_PCD_EP_Close+0x34>
  {
    ep = &hpcd->IN_ep[ep_addr & EP_ADDR_MSK];
 80022ac:	78fb      	ldrb	r3, [r7, #3]
 80022ae:	f003 020f 	and.w	r2, r3, #15
 80022b2:	4613      	mov	r3, r2
 80022b4:	00db      	lsls	r3, r3, #3
 80022b6:	4413      	add	r3, r2
 80022b8:	009b      	lsls	r3, r3, #2
 80022ba:	3338      	adds	r3, #56	; 0x38
 80022bc:	687a      	ldr	r2, [r7, #4]
 80022be:	4413      	add	r3, r2
 80022c0:	3304      	adds	r3, #4
 80022c2:	60fb      	str	r3, [r7, #12]
    ep->is_in = 1U;
 80022c4:	68fb      	ldr	r3, [r7, #12]
 80022c6:	2201      	movs	r2, #1
 80022c8:	705a      	strb	r2, [r3, #1]
 80022ca:	e00f      	b.n	80022ec <HAL_PCD_EP_Close+0x54>
  }
  else
  {
    ep = &hpcd->OUT_ep[ep_addr & EP_ADDR_MSK];
 80022cc:	78fb      	ldrb	r3, [r7, #3]
 80022ce:	f003 020f 	and.w	r2, r3, #15
 80022d2:	4613      	mov	r3, r2
 80022d4:	00db      	lsls	r3, r3, #3
 80022d6:	4413      	add	r3, r2
 80022d8:	009b      	lsls	r3, r3, #2
 80022da:	f503 731e 	add.w	r3, r3, #632	; 0x278
 80022de:	687a      	ldr	r2, [r7, #4]
 80022e0:	4413      	add	r3, r2
 80022e2:	3304      	adds	r3, #4
 80022e4:	60fb      	str	r3, [r7, #12]
    ep->is_in = 0U;
 80022e6:	68fb      	ldr	r3, [r7, #12]
 80022e8:	2200      	movs	r2, #0
 80022ea:	705a      	strb	r2, [r3, #1]
  }
  ep->num = ep_addr & EP_ADDR_MSK;
 80022ec:	78fb      	ldrb	r3, [r7, #3]
 80022ee:	f003 030f 	and.w	r3, r3, #15
 80022f2:	b2da      	uxtb	r2, r3
 80022f4:	68fb      	ldr	r3, [r7, #12]
 80022f6:	701a      	strb	r2, [r3, #0]

  __HAL_LOCK(hpcd);
 80022f8:	687b      	ldr	r3, [r7, #4]
 80022fa:	f893 34bc 	ldrb.w	r3, [r3, #1212]	; 0x4bc
 80022fe:	2b01      	cmp	r3, #1
 8002300:	d101      	bne.n	8002306 <HAL_PCD_EP_Close+0x6e>
 8002302:	2302      	movs	r3, #2
 8002304:	e00e      	b.n	8002324 <HAL_PCD_EP_Close+0x8c>
 8002306:	687b      	ldr	r3, [r7, #4]
 8002308:	2201      	movs	r2, #1
 800230a:	f883 24bc 	strb.w	r2, [r3, #1212]	; 0x4bc
  (void)USB_DeactivateEndpoint(hpcd->Instance, ep);
 800230e:	687b      	ldr	r3, [r7, #4]
 8002310:	681b      	ldr	r3, [r3, #0]
 8002312:	68f9      	ldr	r1, [r7, #12]
 8002314:	4618      	mov	r0, r3
 8002316:	f003 fb3f 	bl	8005998 <USB_DeactivateEndpoint>
  __HAL_UNLOCK(hpcd);
 800231a:	687b      	ldr	r3, [r7, #4]
 800231c:	2200      	movs	r2, #0
 800231e:	f883 24bc 	strb.w	r2, [r3, #1212]	; 0x4bc
  return HAL_OK;
 8002322:	2300      	movs	r3, #0
}
 8002324:	4618      	mov	r0, r3
 8002326:	3710      	adds	r7, #16
 8002328:	46bd      	mov	sp, r7
 800232a:	bd80      	pop	{r7, pc}

0800232c <HAL_PCD_EP_Receive>:
  * @param  pBuf pointer to the reception buffer
  * @param  len amount of data to be received
  * @retval HAL status
  */
HAL_StatusTypeDef HAL_PCD_EP_Receive(PCD_HandleTypeDef *hpcd, uint8_t ep_addr, uint8_t *pBuf, uint32_t len)
{
 800232c:	b580      	push	{r7, lr}
 800232e:	b086      	sub	sp, #24
 8002330:	af00      	add	r7, sp, #0
 8002332:	60f8      	str	r0, [r7, #12]
 8002334:	607a      	str	r2, [r7, #4]
 8002336:	603b      	str	r3, [r7, #0]
 8002338:	460b      	mov	r3, r1
 800233a:	72fb      	strb	r3, [r7, #11]
  PCD_EPTypeDef *ep;

  ep = &hpcd->OUT_ep[ep_addr & EP_ADDR_MSK];
 800233c:	7afb      	ldrb	r3, [r7, #11]
 800233e:	f003 020f 	and.w	r2, r3, #15
 8002342:	4613      	mov	r3, r2
 8002344:	00db      	lsls	r3, r3, #3
 8002346:	4413      	add	r3, r2
 8002348:	009b      	lsls	r3, r3, #2
 800234a:	f503 731e 	add.w	r3, r3, #632	; 0x278
 800234e:	68fa      	ldr	r2, [r7, #12]
 8002350:	4413      	add	r3, r2
 8002352:	3304      	adds	r3, #4
 8002354:	617b      	str	r3, [r7, #20]

  /*setup and start the Xfer */
  ep->xfer_buff = pBuf;
 8002356:	697b      	ldr	r3, [r7, #20]
 8002358:	687a      	ldr	r2, [r7, #4]
 800235a:	60da      	str	r2, [r3, #12]
  ep->xfer_len = len;
 800235c:	697b      	ldr	r3, [r7, #20]
 800235e:	683a      	ldr	r2, [r7, #0]
 8002360:	611a      	str	r2, [r3, #16]
  ep->xfer_count = 0U;
 8002362:	697b      	ldr	r3, [r7, #20]
 8002364:	2200      	movs	r2, #0
 8002366:	615a      	str	r2, [r3, #20]
  ep->is_in = 0U;
 8002368:	697b      	ldr	r3, [r7, #20]
 800236a:	2200      	movs	r2, #0
 800236c:	705a      	strb	r2, [r3, #1]
  ep->num = ep_addr & EP_ADDR_MSK;
 800236e:	7afb      	ldrb	r3, [r7, #11]
 8002370:	f003 030f 	and.w	r3, r3, #15
 8002374:	b2da      	uxtb	r2, r3
 8002376:	697b      	ldr	r3, [r7, #20]
 8002378:	701a      	strb	r2, [r3, #0]

  if (hpcd->Init.dma_enable == 1U)
 800237a:	68fb      	ldr	r3, [r7, #12]
 800237c:	68db      	ldr	r3, [r3, #12]
 800237e:	2b01      	cmp	r3, #1
 8002380:	d102      	bne.n	8002388 <HAL_PCD_EP_Receive+0x5c>
  {
    ep->dma_addr = (uint32_t)pBuf;
 8002382:	687a      	ldr	r2, [r7, #4]
 8002384:	697b      	ldr	r3, [r7, #20]
 8002386:	61da      	str	r2, [r3, #28]
  }

  (void)USB_EPStartXfer(hpcd->Instance, ep, (uint8_t)hpcd->Init.dma_enable);
 8002388:	68fb      	ldr	r3, [r7, #12]
 800238a:	6818      	ldr	r0, [r3, #0]
 800238c:	68fb      	ldr	r3, [r7, #12]
 800238e:	68db      	ldr	r3, [r3, #12]
 8002390:	b2db      	uxtb	r3, r3
 8002392:	461a      	mov	r2, r3
 8002394:	6979      	ldr	r1, [r7, #20]
 8002396:	f003 fbdb 	bl	8005b50 <USB_EPStartXfer>

  return HAL_OK;
 800239a:	2300      	movs	r3, #0
}
 800239c:	4618      	mov	r0, r3
 800239e:	3718      	adds	r7, #24
 80023a0:	46bd      	mov	sp, r7
 80023a2:	bd80      	pop	{r7, pc}

080023a4 <HAL_PCD_EP_GetRxCount>:
  * @param  hpcd PCD handle
  * @param  ep_addr endpoint address
  * @retval Data Size
  */
uint32_t HAL_PCD_EP_GetRxCount(PCD_HandleTypeDef *hpcd, uint8_t ep_addr)
{
 80023a4:	b480      	push	{r7}
 80023a6:	b083      	sub	sp, #12
 80023a8:	af00      	add	r7, sp, #0
 80023aa:	6078      	str	r0, [r7, #4]
 80023ac:	460b      	mov	r3, r1
 80023ae:	70fb      	strb	r3, [r7, #3]
  return hpcd->OUT_ep[ep_addr & EP_ADDR_MSK].xfer_count;
 80023b0:	78fb      	ldrb	r3, [r7, #3]
 80023b2:	f003 020f 	and.w	r2, r3, #15
 80023b6:	6879      	ldr	r1, [r7, #4]
 80023b8:	4613      	mov	r3, r2
 80023ba:	00db      	lsls	r3, r3, #3
 80023bc:	4413      	add	r3, r2
 80023be:	009b      	lsls	r3, r3, #2
 80023c0:	440b      	add	r3, r1
 80023c2:	f503 7324 	add.w	r3, r3, #656	; 0x290
 80023c6:	681b      	ldr	r3, [r3, #0]
}
 80023c8:	4618      	mov	r0, r3
 80023ca:	370c      	adds	r7, #12
 80023cc:	46bd      	mov	sp, r7
 80023ce:	f85d 7b04 	ldr.w	r7, [sp], #4
 80023d2:	4770      	bx	lr

080023d4 <HAL_PCD_EP_Transmit>:
  * @param  pBuf pointer to the transmission buffer
  * @param  len amount of data to be sent
  * @retval HAL status
  */
HAL_StatusTypeDef HAL_PCD_EP_Transmit(PCD_HandleTypeDef *hpcd, uint8_t ep_addr, uint8_t *pBuf, uint32_t len)
{
 80023d4:	b580      	push	{r7, lr}
 80023d6:	b086      	sub	sp, #24
 80023d8:	af00      	add	r7, sp, #0
 80023da:	60f8      	str	r0, [r7, #12]
 80023dc:	607a      	str	r2, [r7, #4]
 80023de:	603b      	str	r3, [r7, #0]
 80023e0:	460b      	mov	r3, r1
 80023e2:	72fb      	strb	r3, [r7, #11]
  PCD_EPTypeDef *ep;

  ep = &hpcd->IN_ep[ep_addr & EP_ADDR_MSK];
 80023e4:	7afb      	ldrb	r3, [r7, #11]
 80023e6:	f003 020f 	and.w	r2, r3, #15
 80023ea:	4613      	mov	r3, r2
 80023ec:	00db      	lsls	r3, r3, #3
 80023ee:	4413      	add	r3, r2
 80023f0:	009b      	lsls	r3, r3, #2
 80023f2:	3338      	adds	r3, #56	; 0x38
 80023f4:	68fa      	ldr	r2, [r7, #12]
 80023f6:	4413      	add	r3, r2
 80023f8:	3304      	adds	r3, #4
 80023fa:	617b      	str	r3, [r7, #20]

  /*setup and start the Xfer */
  ep->xfer_buff = pBuf;
 80023fc:	697b      	ldr	r3, [r7, #20]
 80023fe:	687a      	ldr	r2, [r7, #4]
 8002400:	60da      	str	r2, [r3, #12]
  ep->xfer_len = len;
 8002402:	697b      	ldr	r3, [r7, #20]
 8002404:	683a      	ldr	r2, [r7, #0]
 8002406:	611a      	str	r2, [r3, #16]
  ep->xfer_count = 0U;
 8002408:	697b      	ldr	r3, [r7, #20]
 800240a:	2200      	movs	r2, #0
 800240c:	615a      	str	r2, [r3, #20]
  ep->is_in = 1U;
 800240e:	697b      	ldr	r3, [r7, #20]
 8002410:	2201      	movs	r2, #1
 8002412:	705a      	strb	r2, [r3, #1]
  ep->num = ep_addr & EP_ADDR_MSK;
 8002414:	7afb      	ldrb	r3, [r7, #11]
 8002416:	f003 030f 	and.w	r3, r3, #15
 800241a:	b2da      	uxtb	r2, r3
 800241c:	697b      	ldr	r3, [r7, #20]
 800241e:	701a      	strb	r2, [r3, #0]

  if (hpcd->Init.dma_enable == 1U)
 8002420:	68fb      	ldr	r3, [r7, #12]
 8002422:	68db      	ldr	r3, [r3, #12]
 8002424:	2b01      	cmp	r3, #1
 8002426:	d102      	bne.n	800242e <HAL_PCD_EP_Transmit+0x5a>
  {
    ep->dma_addr = (uint32_t)pBuf;
 8002428:	687a      	ldr	r2, [r7, #4]
 800242a:	697b      	ldr	r3, [r7, #20]
 800242c:	61da      	str	r2, [r3, #28]
  }

  (void)USB_EPStartXfer(hpcd->Instance, ep, (uint8_t)hpcd->Init.dma_enable);
 800242e:	68fb      	ldr	r3, [r7, #12]
 8002430:	6818      	ldr	r0, [r3, #0]
 8002432:	68fb      	ldr	r3, [r7, #12]
 8002434:	68db      	ldr	r3, [r3, #12]
 8002436:	b2db      	uxtb	r3, r3
 8002438:	461a      	mov	r2, r3
 800243a:	6979      	ldr	r1, [r7, #20]
 800243c:	f003 fb88 	bl	8005b50 <USB_EPStartXfer>

  return HAL_OK;
 8002440:	2300      	movs	r3, #0
}
 8002442:	4618      	mov	r0, r3
 8002444:	3718      	adds	r7, #24
 8002446:	46bd      	mov	sp, r7
 8002448:	bd80      	pop	{r7, pc}

0800244a <HAL_PCD_EP_SetStall>:
  * @param  hpcd PCD handle
  * @param  ep_addr endpoint address
  * @retval HAL status
  */
