Component: ARM Compiler 5.06 update 7 (build 960) Tool: armlink [4d3601]

==============================================================================

Section Cross References

    startup_stm32h743xx.o(RESET) refers to startup_stm32h743xx.o(STACK) for __initial_sp
    startup_stm32h743xx.o(RESET) refers to startup_stm32h743xx.o(.text) for Reset_Handler
    startup_stm32h743xx.o(RESET) refers to stm32h7xx_it.o(i.NMI_Handler) for NMI_Handler
    startup_stm32h743xx.o(RESET) refers to stm32h7xx_it.o(i.HardFault_Handler) for HardFault_Handler
    startup_stm32h743xx.o(RESET) refers to stm32h7xx_it.o(i.MemManage_Handler) for MemManage_Handler
    startup_stm32h743xx.o(RESET) refers to stm32h7xx_it.o(i.BusFault_Handler) for BusFault_Handler
    startup_stm32h743xx.o(RESET) refers to stm32h7xx_it.o(i.UsageFault_Handler) for UsageFault_Handler
    startup_stm32h743xx.o(RESET) refers to stm32h7xx_it.o(i.SVC_Handler) for SVC_Handler
    startup_stm32h743xx.o(RESET) refers to stm32h7xx_it.o(i.DebugMon_Handler) for DebugMon_Handler
    startup_stm32h743xx.o(RESET) refers to stm32h7xx_it.o(i.PendSV_Handler) for PendSV_Handler
    startup_stm32h743xx.o(RESET) refers to stm32h7xx_it.o(i.SysTick_Handler) for SysTick_Handler
    startup_stm32h743xx.o(RESET) refers to stm32h7xx_it.o(i.USART1_IRQHandler) for USART1_IRQHandler
    startup_stm32h743xx.o(RESET) refers to lwip.o(i.ETH_IRQHandler) for ETH_IRQHandler
    startup_stm32h743xx.o(RESET) refers to stm32h7xx_it.o(i.ETH_WKUP_IRQHandler) for ETH_WKUP_IRQHandler
    startup_stm32h743xx.o(.text) refers to system_stm32h7xx.o(i.SystemInit) for SystemInit
    startup_stm32h743xx.o(.text) refers to entry.o(.ARM.Collect$$$$00000000) for __main
    pcf8574.o(i.PCF8574_Init) refers to stm32h7xx_hal_gpio.o(i.HAL_GPIO_Init) for HAL_GPIO_Init
    pcf8574.o(i.PCF8574_Init) refers to myiic.o(i.IIC_Init) for IIC_Init
==============================================================================

Removing Unused input sections from the image.

    Removing startup_stm32h743xx.o(HEAP), (1024 bytes).
    Removing pcf8574.o(.rev16_text), (4 bytes).
    Removing pcf8574.o(.revsh_text), (4 bytes).
    Removing pcf8574.o(.rrx_text), (6 bytes).
    Removing pcf8574.o(i.PCF8574_ReadBit), (26 bytes).
    Removing myiic.o(.rev16_text), (4 bytes).
    Removing myiic.o(.revsh_text), (4 bytes).
    Removing myiic.o(.rrx_text), (6 bytes).
    Removing main.o(.rev16_text), (4 bytes).
    Removing main.o(.revsh_text), (4 bytes).
    Removing main.o(.rrx_text), (6 bytes).
    Removing main.o(i.ETH_PTP_Init), (336 bytes).
    Removing gpio.o(.rev16_text), (4 bytes).
    Removing gpio.o(.revsh_text), (4 bytes).
    Removing gpio.o(.rrx_text), (6 bytes).
    Removing usart.o(.rev16_text), (4 bytes).
    Removing usart.o(.revsh_text), (4 bytes).
    Removing usart.o(.rrx_text), (6 bytes).
==============================================================================

Image Symbol Table

    Local Symbols

    Symbol Name                              Value     Ov Type        Size  Object(Section)

    ../Core/Src/gpio.c                       0x00000000   Number         0  gpio.o ABSOLUTE
    ../Core/Src/main.c                       0x00000000   Number         0  main.o ABSOLUTE
    ../Core/Src/stm32h7xx_hal_msp.c          0x00000000   Number         0  stm32h7xx_hal_msp.o ABSOLUTE
    ../Core/Src/stm32h7xx_it.c               0x00000000   Number         0  stm32h7xx_it.o ABSOLUTE
    ../Core/Src/system_stm32h7xx.c           0x00000000   Number         0  system_stm32h7xx.o ABSOLUTE
    ../Core/Src/usart.c                      0x00000000   Number         0  usart.o ABSOLUTE
    ../Drivers/BSP/Components/lan8742/lan8742.c 0x00000000   Number         0  lan8742.o ABSOLUTE
    ../Drivers/STM32H7xx_HAL_Driver/Src/stm32h7xx_hal.c 0x00000000   Number         0  stm32h7xx_hal.o ABSOLUTE
    ../Drivers/STM32H7xx_HAL_Driver/Src/stm32h7xx_hal_cortex.c 0x00000000   Number         0  stm32h7xx_hal_cortex.o ABSOLUTE
    ../Drivers/STM32H7xx_HAL_Driver/Src/stm32h7xx_hal_dma.c 0x00000000   Number         0  stm32h7xx_hal_dma.o ABSOLUTE
    ../Drivers/STM32H7xx_HAL_Driver/Src/stm32h7xx_hal_dma_ex.c 0x00000000   Number         0  stm32h7xx_hal_dma_ex.o ABSOLUTE
    ../Drivers/STM32H7xx_HAL_Driver/Src/stm32h7xx_hal_eth.c 0x00000000   Number         0  stm32h7xx_hal_eth.o ABSOLUTE
    ../Drivers/STM32H7xx_HAL_Driver/Src/stm32h7xx_hal_eth_ex.c 0x00000000   Number         0  stm32h7xx_hal_eth_ex.o ABSOLUTE
    ../Drivers/STM32H7xx_HAL_Driver/Src/stm32h7xx_hal_exti.c 0x00000000   Number         0  stm32h7xx_hal_exti.o ABSOLUTE
    ../Drivers/STM32H7xx_HAL_Driver/Src/stm32h7xx_hal_flash.c 0x00000000   Number         0  stm32h7xx_hal_flash.o ABSOLUTE
    ../Drivers/STM32H7xx_HAL_Driver/Src/stm32h7xx_hal_flash_ex.c 0x00000000   Number         0  stm32h7xx_hal_flash_ex.o ABSOLUTE
    ../Drivers/STM32H7xx_HAL_Driver/Src/stm32h7xx_hal_gpio.c 0x00000000   Number         0  stm32h7xx_hal_gpio.o ABSOLUTE
    ../Drivers/STM32H7xx_HAL_Driver/Src/stm32h7xx_hal_hsem.c 0x00000000   Number         0  stm32h7xx_hal_hsem.o ABSOLUTE
    ../Drivers/STM32H7xx_HAL_Driver/Src/stm32h7xx_hal_i2c.c 0x00000000   Number         0  stm32h7xx_hal_i2c.o ABSOLUTE
    ../Drivers/STM32H7xx_HAL_Driver/Src/stm32h7xx_hal_i2c_ex.c 0x00000000   Number         0  stm32h7xx_hal_i2c_ex.o ABSOLUTE
    ../Drivers/STM32H7xx_HAL_Driver/Src/stm32h7xx_hal_mdma.c 0x00000000   Number         0  stm32h7xx_hal_mdma.o ABSOLUTE
    ../Drivers/STM32H7xx_HAL_Driver/Src/stm32h7xx_hal_pwr.c 0x00000000   Number         0  stm32h7xx_hal_pwr.o ABSOLUTE
    ../Drivers/STM32H7xx_HAL_Driver/Src/stm32h7xx_hal_pwr_ex.c 0x00000000   Number         0  stm32h7xx_hal_pwr_ex.o ABSOLUTE
    ../Drivers/STM32H7xx_HAL_Driver/Src/stm32h7xx_hal_rcc.c 0x00000000   Number         0  stm32h7xx_hal_rcc.o ABSOLUTE
    ../Drivers/STM32H7xx_HAL_Driver/Src/stm32h7xx_hal_rcc_ex.c 0x00000000   Number         0  stm32h7xx_hal_rcc_ex.o ABSOLUTE
    ../Drivers/STM32H7xx_HAL_Driver/Src/stm32h7xx_hal_tim.c 0x00000000   Number         0  stm32h7xx_hal_tim.o ABSOLUTE
    ../Drivers/STM32H7xx_HAL_Driver/Src/stm32h7xx_hal_tim_ex.c 0x00000000   Number         0  stm32h7xx_hal_tim_ex.o ABSOLUTE
    ../Drivers/STM32H7xx_HAL_Driver/Src/stm32h7xx_hal_uart.c 0x00000000   Number         0  stm32h7xx_hal_uart.o ABSOLUTE
    ../Drivers/STM32H7xx_HAL_Driver/Src/stm32h7xx_hal_uart_ex.c 0x00000000   Number         0  stm32h7xx_hal_uart_ex.o ABSOLUTE
    ../LWIP/App/lwip.c                       0x00000000   Number         0  lwip.o ABSOLUTE
    ../LWIP/Target/ethernetif.c              0x00000000   Number         0  ethernetif.o ABSOLUTE
    ../Middlewares/Third_Party/LwIP/src/api/api_lib.c 0x00000000   Number         0  api_lib.o ABSOLUTE
    ../Middlewares/Third_Party/LwIP/src/api/api_msg.c 0x00000000   Number         0  api_msg.o ABSOLUTE
    ../Middlewares/Third_Party/LwIP/src/api/err.c 0x00000000   Number         0  err.o ABSOLUTE
    ../Middlewares/Third_Party/LwIP/src/api/if_api.c 0x00000000   Number         0  if_api.o ABSOLUTE
    ../Middlewares/Third_Party/LwIP/src/api/netbuf.c 0x00000000   Number         0  netbuf.o ABSOLUTE
    ../Middlewares/Third_Party/LwIP/src/api/netdb.c 0x00000000   Number         0  netdb.o ABSOLUTE
    ../Middlewares/Third_Party/LwIP/src/api/netifapi.c 0x00000000   Number         0  netifapi.o ABSOLUTE
    ../Middlewares/Third_Party/LwIP/src/api/sockets.c 0x00000000   Number         0  sockets.o ABSOLUTE
    ../Middlewares/Third_Party/LwIP/src/api/tcpip.c 0x00000000   Number         0  tcpip.o ABSOLUTE
    ../Middlewares/Third_Party/LwIP/src/apps/mqtt/mqtt.c 0x00000000   Number         0  mqtt.o ABSOLUTE
    ../Middlewares/Third_Party/LwIP/src/core/altcp.c 0x00000000   Number         0  altcp.o ABSOLUTE
    ../Middlewares/Third_Party/LwIP/src/core/altcp_alloc.c 0x00000000   Number         0  altcp_alloc.o ABSOLUTE
    ../Middlewares/Third_Party/LwIP/src/core/altcp_tcp.c 0x00000000   Number         0  altcp_tcp.o ABSOLUTE
    ../Middlewares/Third_Party/LwIP/src/core/def.c 0x00000000   Number         0  def.o ABSOLUTE
    ../Middlewares/Third_Party/LwIP/src/core/dns.c 0x00000000   Number         0  dns.o ABSOLUTE
    ../Middlewares/Third_Party/LwIP/src/core/inet_chksum.c 0x00000000   Number         0  inet_chksum.o ABSOLUTE
    ../Middlewares/Third_Party/LwIP/src/core/init.c 0x00000000   Number         0  init.o ABSOLUTE
    ../Middlewares/Third_Party/LwIP/src/core/ip.c 0x00000000   Number         0  ip.o ABSOLUTE
    ../Middlewares/Third_Party/LwIP/src/core/ipv4/autoip.c 0x00000000   Number         0  autoip.o ABSOLUTE
    ../Middlewares/Third_Party/LwIP/src/core/ipv4/dhcp.c 0x00000000   Number         0  dhcp.o ABSOLUTE
    ../Middlewares/Third_Party/LwIP/src/core/ipv4/etharp.c 0x00000000   Number         0  etharp.o ABSOLUTE
    ../Middlewares/Third_Party/LwIP/src/core/ipv4/icmp.c 0x00000000   Number         0  icmp.o ABSOLUTE
    ../Middlewares/Third_Party/LwIP/src/core/ipv4/igmp.c 0x00000000   Number         0  igmp.o ABSOLUTE
    ../Middlewares/Third_Party/LwIP/src/core/ipv4/ip4.c 0x00000000   Number         0  ip4.o ABSOLUTE
    ../Middlewares/Third_Party/LwIP/src/core/ipv4/ip4_addr.c 0x00000000   Number         0  ip4_addr.o ABSOLUTE
    ../Middlewares/Third_Party/LwIP/src/core/ipv4/ip4_frag.c 0x00000000   Number         0  ip4_frag.o ABSOLUTE
    ../Middlewares/Third_Party/LwIP/src/core/ipv6/dhcp6.c 0x00000000   Number         0  dhcp6.o ABSOLUTE
    ../Middlewares/Third_Party/LwIP/src/core/ipv6/ethip6.c 0x00000000   Number         0  ethip6.o ABSOLUTE
    ../Middlewares/Third_Party/LwIP/src/core/ipv6/icmp6.c 0x00000000   Number         0  icmp6.o ABSOLUTE
    ../Middlewares/Third_Party/LwIP/src/core/ipv6/inet6.c 0x00000000   Number         0  inet6.o ABSOLUTE
    ../Middlewares/Third_Party/LwIP/src/core/ipv6/ip6.c 0x00000000   Number         0  ip6.o ABSOLUTE
    ../Middlewares/Third_Party/LwIP/src/core/ipv6/ip6_addr.c 0x00000000   Number         0  ip6_addr.o ABSOLUTE
    ../Middlewares/Third_Party/LwIP/src/core/ipv6/ip6_frag.c 0x00000000   Number         0  ip6_frag.o ABSOLUTE
    ../Middlewares/Third_Party/LwIP/src/core/ipv6/mld6.c 0x00000000   Number         0  mld6.o ABSOLUTE
    ../Middlewares/Third_Party/LwIP/src/core/ipv6/nd6.c 0x00000000   Number         0  nd6.o ABSOLUTE
    ../Middlewares/Third_Party/LwIP/src/core/mem.c 0x00000000   Number         0  mem.o ABSOLUTE
    ../Middlewares/Third_Party/LwIP/src/core/memp.c 0x00000000   Number         0  memp.o ABSOLUTE
    ../Middlewares/Third_Party/LwIP/src/core/netif.c 0x00000000   Number         0  netif.o ABSOLUTE
    ../Middlewares/Third_Party/LwIP/src/core/pbuf.c 0x00000000   Number         0  pbuf.o ABSOLUTE
    ../Middlewares/Third_Party/LwIP/src/core/raw.c 0x00000000   Number         0  raw.o ABSOLUTE
    ../Middlewares/Third_Party/LwIP/src/core/stats.c 0x00000000   Number         0  stats.o ABSOLUTE
    ../Middlewares/Third_Party/LwIP/src/core/sys.c 0x00000000   Number         0  sys_1.o ABSOLUTE
    ../Middlewares/Third_Party/LwIP/src/core/tcp.c 0x00000000   Number         0  tcp.o ABSOLUTE
    ../Middlewares/Third_Party/LwIP/src/core/tcp_in.c 0x00000000   Number         0  tcp_in.o ABSOLUTE
    ../Middlewares/Third_Party/LwIP/src/core/tcp_out.c 0x00000000   Number         0  tcp_out.o ABSOLUTE
    ../Middlewares/Third_Party/LwIP/src/core/timeouts.c 0x00000000   Number         0  timeouts.o ABSOLUTE
    ../Middlewares/Third_Party/LwIP/src/core/udp.c 0x00000000   Number         0  udp.o ABSOLUTE
    ../Middlewares/Third_Party/LwIP/src/netif/bridgeif.c 0x00000000   Number         0  bridgeif.o ABSOLUTE
    ../Middlewares/Third_Party/LwIP/src/netif/bridgeif_fdb.c 0x00000000   Number         0  bridgeif_fdb.o ABSOLUTE
    ../Middlewares/Third_Party/LwIP/src/netif/ethernet.c 0x00000000   Number         0  ethernet.o ABSOLUTE
    ../Middlewares/Third_Party/LwIP/src/netif/lowpan6.c 0x00000000   Number         0  lowpan6.o ABSOLUTE
    ../Middlewares/Third_Party/LwIP/src/netif/lowpan6_ble.c 0x00000000   Number         0  lowpan6_ble.o ABSOLUTE
    ../Middlewares/Third_Party/LwIP/src/netif/lowpan6_common.c 0x00000000   Number         0  lowpan6_common.o ABSOLUTE
    ../Middlewares/Third_Party/LwIP/src/netif/ppp/auth.c 0x00000000   Number         0  auth.o ABSOLUTE
    ../Middlewares/Third_Party/LwIP/src/netif/ppp/ccp.c 0x00000000   Number         0  ccp.o ABSOLUTE
    ../Middlewares/Third_Party/LwIP/src/netif/ppp/chap-md5.c 0x00000000   Number         0  chap-md5.o ABSOLUTE
    ../Middlewares/Third_Party/LwIP/src/netif/ppp/chap-new.c 0x00000000   Number         0  chap-new.o ABSOLUTE
    ../Middlewares/Third_Party/LwIP/src/netif/ppp/chap_ms.c 0x00000000   Number         0  chap_ms.o ABSOLUTE
    ../Middlewares/Third_Party/LwIP/src/netif/ppp/demand.c 0x00000000   Number         0  demand.o ABSOLUTE
    ../Middlewares/Third_Party/LwIP/src/netif/ppp/eap.c 0x00000000   Number         0  eap.o ABSOLUTE
    ../Middlewares/Third_Party/LwIP/src/netif/ppp/ecp.c 0x00000000   Number         0  ecp.o ABSOLUTE
    ../Middlewares/Third_Party/LwIP/src/netif/ppp/eui64.c 0x00000000   Number         0  eui64.o ABSOLUTE
    ../Middlewares/Third_Party/LwIP/src/netif/ppp/fsm.c 0x00000000   Number         0  fsm.o ABSOLUTE
    ../Middlewares/Third_Party/LwIP/src/netif/ppp/ipcp.c 0x00000000   Number         0  ipcp.o ABSOLUTE
    ../Middlewares/Third_Party/LwIP/src/netif/ppp/ipv6cp.c 0x00000000   Number         0  ipv6cp.o ABSOLUTE
    ../Middlewares/Third_Party/LwIP/src/netif/ppp/lcp.c 0x00000000   Number         0  lcp.o ABSOLUTE
    ../Middlewares/Third_Party/LwIP/src/netif/ppp/magic.c 0x00000000   Number         0  magic.o ABSOLUTE
    ../Middlewares/Third_Party/LwIP/src/netif/ppp/mppe.c 0x00000000   Number         0  mppe.o ABSOLUTE
    ../Middlewares/Third_Party/LwIP/src/netif/ppp/multilink.c 0x00000000   Number         0  multilink.o ABSOLUTE
    ../Middlewares/Third_Party/LwIP/src/netif/ppp/ppp.c 0x00000000   Number         0  ppp.o ABSOLUTE
    ../Middlewares/Third_Party/LwIP/src/netif/ppp/pppapi.c 0x00000000   Number         0  pppapi.o ABSOLUTE
    ../Middlewares/Third_Party/LwIP/src/netif/ppp/pppcrypt.c 0x00000000   Number         0  pppcrypt.o ABSOLUTE
    ../Middlewares/Third_Party/LwIP/src/netif/ppp/pppoe.c 0x00000000   Number         0  pppoe.o ABSOLUTE
    ../Middlewares/Third_Party/LwIP/src/netif/ppp/pppol2tp.c 0x00000000   Number         0  pppol2tp.o ABSOLUTE
    ../Middlewares/Third_Party/LwIP/src/netif/ppp/pppos.c 0x00000000   Number         0  pppos.o ABSOLUTE
    ../Middlewares/Third_Party/LwIP/src/netif/ppp/upap.c 0x00000000   Number         0  upap.o ABSOLUTE
    ../Middlewares/Third_Party/LwIP/src/netif/ppp/utils.c 0x00000000   Number         0  utils.o ABSOLUTE
    ../Middlewares/Third_Party/LwIP/src/netif/ppp/vj.c 0x00000000   Number         0  vj.o ABSOLUTE
    ../Middlewares/Third_Party/LwIP/src/netif/slipif.c 0x00000000   Number         0  slipif.o ABSOLUTE
    ../Middlewares/Third_Party/LwIP/src/netif/zepif.c 0x00000000   Number         0  zepif.o ABSOLUTE
    ../clib/../cmprslib/zerorunl2.c          0x00000000   Number         0  __dczerorl2.o ABSOLUTE
    ../clib/microlib/ctype/ctype.c           0x00000000   Number         0  isalnum_o.o ABSOLUTE
    ../clib/microlib/ctype/ctype.c           0x00000000   Number         0  ctype_o.o ABSOLUTE
    ../clib/microlib/ctype/ctype.c           0x00000000   Number         0  isxdigit_o.o ABSOLUTE
    ../clib/microlib/ctype/ctype.c           0x00000000   Number         0  isalpha_o.o ABSOLUTE
    ../clib/microlib/ctype/ctype.c           0x00000000   Number         0  isupper_o.o ABSOLUTE
    ../clib/microlib/ctype/ctype.c           0x00000000   Number         0  isblank_o.o ABSOLUTE
    ../clib/microlib/ctype/ctype.c           0x00000000   Number         0  isspace_o.o ABSOLUTE
    ../clib/microlib/ctype/ctype.c           0x00000000   Number         0  ispunct_o.o ABSOLUTE
    ../clib/microlib/ctype/ctype.c           0x00000000   Number         0  isprint_o.o ABSOLUTE
    ../clib/microlib/ctype/ctype.c           0x00000000   Number         0  isdigit_o.o ABSOLUTE
    ../clib/microlib/ctype/ctype.c           0x00000000   Number         0  islower_o.o ABSOLUTE
    ../clib/microlib/ctype/ctype.c           0x00000000   Number         0  iscntrl_o.o ABSOLUTE
    ../clib/microlib/ctype/ctype.c           0x00000000   Number         0  isgraph_o.o ABSOLUTE
    ../clib/microlib/division.c              0x00000000   Number         0  uldiv.o ABSOLUTE
    ../clib/microlib/division.c              0x00000000   Number         0  uidiv.o ABSOLUTE
    ../clib/microlib/errno.c                 0x00000000   Number         0  errno.o ABSOLUTE
    ../clib/microlib/init/entry.s            0x00000000   Number         0  entry12a.o ABSOLUTE
    ../clib/microlib/init/entry.s            0x00000000   Number         0  entry2.o ABSOLUTE
    ../clib/microlib/init/entry.s            0x00000000   Number         0  entry11b.o ABSOLUTE
    ../clib/microlib/init/entry.s            0x00000000   Number         0  entry7a.o ABSOLUTE
    ../clib/microlib/init/entry.s            0x00000000   Number         0  entry12b.o ABSOLUTE
    ../clib/microlib/init/entry.s            0x00000000   Number         0  entry7b.o ABSOLUTE
    ../clib/microlib/init/entry.s            0x00000000   Number         0  entry10b.o ABSOLUTE
    ../clib/microlib/init/entry.s            0x00000000   Number         0  entry8a.o ABSOLUTE
    ../clib/microlib/init/entry.s            0x00000000   Number         0  entry8b.o ABSOLUTE
    ../clib/microlib/init/entry.s            0x00000000   Number         0  entry9a.o ABSOLUTE
    ../clib/microlib/init/entry.s            0x00000000   Number         0  entry9b.o ABSOLUTE
    ../clib/microlib/init/entry.s            0x00000000   Number         0  entry10a.o ABSOLUTE
    ../clib/microlib/init/entry.s            0x00000000   Number         0  entry.o ABSOLUTE
    ../clib/microlib/init/entry.s            0x00000000   Number         0  entry5.o ABSOLUTE
    ../clib/microlib/init/entry.s            0x00000000   Number         0  entry11a.o ABSOLUTE
    ../clib/microlib/longlong.c              0x00000000   Number         0  llsshr.o ABSOLUTE
    ../clib/microlib/longlong.c              0x00000000   Number         0  llushr.o ABSOLUTE
    ../clib/microlib/longlong.c              0x00000000   Number         0  llshl.o ABSOLUTE
    ../clib/microlib/printf/printf.c         0x00000000   Number         0  printf2.o ABSOLUTE
    ../clib/microlib/printf/printf.c         0x00000000   Number         0  printf7.o ABSOLUTE
    ../clib/microlib/printf/printf.c         0x00000000   Number         0  printf6.o ABSOLUTE
    ../clib/microlib/printf/printf.c         0x00000000   Number         0  printfa.o ABSOLUTE
    ../clib/microlib/printf/printf.c         0x00000000   Number         0  printf8.o ABSOLUTE
    ../clib/microlib/printf/printf.c         0x00000000   Number         0  printf1.o ABSOLUTE
    ../clib/microlib/printf/printf.c         0x00000000   Number         0  printf3.o ABSOLUTE
    ../clib/microlib/printf/printf.c         0x00000000   Number         0  printfb.o ABSOLUTE
    ../clib/microlib/printf/printf.c         0x00000000   Number         0  printf4.o ABSOLUTE
    ../clib/microlib/printf/printf.c         0x00000000   Number         0  printf5.o ABSOLUTE
    ../clib/microlib/printf/printf.c         0x00000000   Number         0  printf0.o ABSOLUTE
    ../clib/microlib/printf/stubs.s          0x00000000   Number         0  stubs.o ABSOLUTE
    ../clib/microlib/stdio/streams.c         0x00000000   Number         0  stdout.o ABSOLUTE
    ../clib/microlib/stdlib/rand.c           0x00000000   Number         0  rand.o ABSOLUTE
    ../clib/microlib/string/memcmp.c         0x00000000   Number         0  memcmp.o ABSOLUTE
    ../clib/microlib/string/memcpy.c         0x00000000   Number         0  memcpya.o ABSOLUTE
    ../clib/microlib/string/memcpy.c         0x00000000   Number         0  memmovea.o ABSOLUTE
    ../clib/microlib/string/memcpy.c         0x00000000   Number         0  memmoveb.o ABSOLUTE
    ../clib/microlib/string/memcpy.c         0x00000000   Number         0  memcpyb.o ABSOLUTE
    ../clib/microlib/string/memset.c         0x00000000   Number         0  memseta.o ABSOLUTE
    ../clib/microlib/string/strlen.c         0x00000000   Number         0  strlen.o ABSOLUTE
    ../clib/microlib/string/strncmp.c        0x00000000   Number         0  strncmp.o ABSOLUTE
    ../clib/microlib/stubs.s                 0x00000000   Number         0  iusefp.o ABSOLUTE
    ../clib/scanf.c                          0x00000000   Number         0  strtol.o ABSOLUTE
    ../clib/scanf.c                          0x00000000   Number         0  atoi.o ABSOLUTE
    ../clib/scanf.c                          0x00000000   Number         0  _strtoul.o ABSOLUTE
    ../clib/scanf.c                          0x00000000   Number         0  _chval.o ABSOLUTE
    ../fplib/microlib/fpadd.c                0x00000000   Number         0  dadd.o ABSOLUTE
    ../fplib/microlib/fpdiv.c                0x00000000   Number         0  ddiv.o ABSOLUTE
    ../fplib/microlib/fpepilogue.c           0x00000000   Number         0  depilogue.o ABSOLUTE
    ../fplib/microlib/fpfix.c                0x00000000   Number         0  dfixul.o ABSOLUTE
    ../fplib/microlib/fpmul.c                0x00000000   Number         0  dmul.o ABSOLUTE
    ..\Core\Src\gpio.c                       0x00000000   Number         0  gpio.o ABSOLUTE
    ..\Core\Src\main.c                       0x00000000   Number         0  main.o ABSOLUTE
    ..\Core\Src\stm32h7xx_hal_msp.c          0x00000000   Number         0  stm32h7xx_hal_msp.o ABSOLUTE
    ..\Core\Src\stm32h7xx_it.c               0x00000000   Number         0  stm32h7xx_it.o ABSOLUTE
    ..\Core\Src\system_stm32h7xx.c           0x00000000   Number         0  system_stm32h7xx.o ABSOLUTE
    ..\Core\Src\usart.c                      0x00000000   Number         0  usart.o ABSOLUTE
    ..\Drivers\BSP\Components\lan8742\lan8742.c 0x00000000   Number         0  lan8742.o ABSOLUTE
    ..\Drivers\IIC\myiic.c                   0x00000000   Number         0  myiic.o ABSOLUTE
    ..\Drivers\PCF8574\pcf8574.c             0x00000000   Number         0  pcf8574.o ABSOLUTE
    ..\Drivers\STM32H7xx_HAL_Driver\Src\stm32h7xx_hal.c 0x00000000   Number         0  stm32h7xx_hal.o ABSOLUTE
    ..\Drivers\STM32H7xx_HAL_Driver\Src\stm32h7xx_hal_cortex.c 0x00000000   Number         0  stm32h7xx_hal_cortex.o ABSOLUTE
    ..\Drivers\STM32H7xx_HAL_Driver\Src\stm32h7xx_hal_dma.c 0x00000000   Number         0  stm32h7xx_hal_dma.o ABSOLUTE
    ..\Drivers\STM32H7xx_HAL_Driver\Src\stm32h7xx_hal_dma_ex.c 0x00000000   Number         0  stm32h7xx_hal_dma_ex.o ABSOLUTE
    ..\Drivers\STM32H7xx_HAL_Driver\Src\stm32h7xx_hal_eth.c 0x00000000   Number         0  stm32h7xx_hal_eth.o ABSOLUTE
    ..\Drivers\STM32H7xx_HAL_Driver\Src\stm32h7xx_hal_eth_ex.c 0x00000000   Number         0  stm32h7xx_hal_eth_ex.o ABSOLUTE
    ..\Drivers\STM32H7xx_HAL_Driver\Src\stm32h7xx_hal_exti.c 0x00000000   Number         0  stm32h7xx_hal_exti.o ABSOLUTE
    ..\Drivers\STM32H7xx_HAL_Driver\Src\stm32h7xx_hal_flash.c 0x00000000   Number         0  stm32h7xx_hal_flash.o ABSOLUTE
    ..\Drivers\STM32H7xx_HAL_Driver\Src\stm32h7xx_hal_flash_ex.c 0x00000000   Number         0  stm32h7xx_hal_flash_ex.o ABSOLUTE
    ..\Drivers\STM32H7xx_HAL_Driver\Src\stm32h7xx_hal_gpio.c 0x00000000   Number         0  stm32h7xx_hal_gpio.o ABSOLUTE
    ..\Drivers\STM32H7xx_HAL_Driver\Src\stm32h7xx_hal_hsem.c 0x00000000   Number         0  stm32h7xx_hal_hsem.o ABSOLUTE
    ..\Drivers\STM32H7xx_HAL_Driver\Src\stm32h7xx_hal_i2c.c 0x00000000   Number         0  stm32h7xx_hal_i2c.o ABSOLUTE
    ..\Drivers\STM32H7xx_HAL_Driver\Src\stm32h7xx_hal_i2c_ex.c 0x00000000   Number         0  stm32h7xx_hal_i2c_ex.o ABSOLUTE
    ..\Drivers\STM32H7xx_HAL_Driver\Src\stm32h7xx_hal_mdma.c 0x00000000   Number         0  stm32h7xx_hal_mdma.o ABSOLUTE
    ..\Drivers\STM32H7xx_HAL_Driver\Src\stm32h7xx_hal_pwr.c 0x00000000   Number         0  stm32h7xx_hal_pwr.o ABSOLUTE
    ..\Drivers\STM32H7xx_HAL_Driver\Src\stm32h7xx_hal_pwr_ex.c 0x00000000   Number         0  stm32h7xx_hal_pwr_ex.o ABSOLUTE
    ..\Drivers\STM32H7xx_HAL_Driver\Src\stm32h7xx_hal_rcc.c 0x00000000   Number         0  stm32h7xx_hal_rcc.o ABSOLUTE
    ..\Drivers\STM32H7xx_HAL_Driver\Src\stm32h7xx_hal_rcc_ex.c 0x00000000   Number         0  stm32h7xx_hal_rcc_ex.o ABSOLUTE
    ..\Drivers\STM32H7xx_HAL_Driver\Src\stm32h7xx_hal_tim.c 0x00000000   Number         0  stm32h7xx_hal_tim.o ABSOLUTE
    ..\Drivers\STM32H7xx_HAL_Driver\Src\stm32h7xx_hal_tim_ex.c 0x00000000   Number         0  stm32h7xx_hal_tim_ex.o ABSOLUTE
    ..\Drivers\STM32H7xx_HAL_Driver\Src\stm32h7xx_hal_uart.c 0x00000000   Number         0  stm32h7xx_hal_uart.o ABSOLUTE
    ..\Drivers\STM32H7xx_HAL_Driver\Src\stm32h7xx_hal_uart_ex.c 0x00000000   Number         0  stm32h7xx_hal_uart_ex.o ABSOLUTE
    ..\Drivers\delay\delay.c                 0x00000000   Number         0  delay.o ABSOLUTE
    ..\Drivers\sys\sys.c                     0x00000000   Number         0  sys.o ABSOLUTE
    ..\LWIP\App\TCPIP\fifoMem.c              0x00000000   Number         0  fifomem.o ABSOLUTE
    ..\LWIP\App\TCPIP\lwip_udp.c             0x00000000   Number         0  lwip_udp.o ABSOLUTE
    ..\LWIP\App\TCPIP\socket_if.c            0x00000000   Number         0  socket_if.o ABSOLUTE
    ..\LWIP\App\TCPIP\task_module.c          0x00000000   Number         0  task_module.o ABSOLUTE
    ..\LWIP\App\TCPIP\tcp_client.c           0x00000000   Number         0  tcp_client.o ABSOLUTE
    ..\LWIP\App\TCPIP\tcp_server.c           0x00000000   Number         0  tcp_server.o ABSOLUTE
    ..\LWIP\App\lwip.c                       0x00000000   Number         0  lwip.o ABSOLUTE
    ..\LWIP\Target\ethernetif.c              0x00000000   Number         0  ethernetif.o ABSOLUTE
    ..\Middlewares\Third_Party\LwIP\src\api\api_lib.c 0x00000000   Number         0  api_lib.o ABSOLUTE
    ..\Middlewares\Third_Party\LwIP\src\api\api_msg.c 0x00000000   Number         0  api_msg.o ABSOLUTE
    ..\Middlewares\Third_Party\LwIP\src\api\err.c 0x00000000   Number         0  err.o ABSOLUTE
    ..\Middlewares\Third_Party\LwIP\src\api\if_api.c 0x00000000   Number         0  if_api.o ABSOLUTE
    ..\Middlewares\Third_Party\LwIP\src\api\netbuf.c 0x00000000   Number         0  netbuf.o ABSOLUTE
    ..\Middlewares\Third_Party\LwIP\src\api\netdb.c 0x00000000   Number         0  netdb.o ABSOLUTE
    ..\Middlewares\Third_Party\LwIP\src\api\netifapi.c 0x00000000   Number         0  netifapi.o ABSOLUTE
    ..\Middlewares\Third_Party\LwIP\src\api\sockets.c 0x00000000   Number         0  sockets.o ABSOLUTE
    ..\Middlewares\Third_Party\LwIP\src\api\tcpip.c 0x00000000   Number         0  tcpip.o ABSOLUTE
    ..\Middlewares\Third_Party\LwIP\src\apps\mqtt\mqtt.c 0x00000000   Number         0  mqtt.o ABSOLUTE
    ..\Middlewares\Third_Party\LwIP\src\core\altcp.c 0x00000000   Number         0  altcp.o ABSOLUTE
    ..\Middlewares\Third_Party\LwIP\src\core\altcp_alloc.c 0x00000000   Number         0  altcp_alloc.o ABSOLUTE
    ..\Middlewares\Third_Party\LwIP\src\core\altcp_tcp.c 0x00000000   Number         0  altcp_tcp.o ABSOLUTE
    ..\Middlewares\Third_Party\LwIP\src\core\def.c 0x00000000   Number         0  def.o ABSOLUTE
    ..\Middlewares\Third_Party\LwIP\src\core\dns.c 0x00000000   Number         0  dns.o ABSOLUTE
    ..\Middlewares\Third_Party\LwIP\src\core\inet_chksum.c 0x00000000   Number         0  inet_chksum.o ABSOLUTE
    ..\Middlewares\Third_Party\LwIP\src\core\init.c 0x00000000   Number         0  init.o ABSOLUTE
    ..\Middlewares\Third_Party\LwIP\src\core\ip.c 0x00000000   Number         0  ip.o ABSOLUTE
    ..\Middlewares\Third_Party\LwIP\src\core\ipv4\autoip.c 0x00000000   Number         0  autoip.o ABSOLUTE
    ..\Middlewares\Third_Party\LwIP\src\core\ipv4\dhcp.c 0x00000000   Number         0  dhcp.o ABSOLUTE
    ..\Middlewares\Third_Party\LwIP\src\core\ipv4\etharp.c 0x00000000   Number         0  etharp.o ABSOLUTE
    ..\Middlewares\Third_Party\LwIP\src\core\ipv4\icmp.c 0x00000000   Number         0  icmp.o ABSOLUTE
    ..\Middlewares\Third_Party\LwIP\src\core\ipv4\igmp.c 0x00000000   Number         0  igmp.o ABSOLUTE
    ..\Middlewares\Third_Party\LwIP\src\core\ipv4\ip4.c 0x00000000   Number         0  ip4.o ABSOLUTE
    ..\Middlewares\Third_Party\LwIP\src\core\ipv4\ip4_addr.c 0x00000000   Number         0  ip4_addr.o ABSOLUTE
    ..\Middlewares\Third_Party\LwIP\src\core\ipv4\ip4_frag.c 0x00000000   Number         0  ip4_frag.o ABSOLUTE
    ..\Middlewares\Third_Party\LwIP\src\core\ipv6\dhcp6.c 0x00000000   Number         0  dhcp6.o ABSOLUTE
    ..\Middlewares\Third_Party\LwIP\src\core\ipv6\ethip6.c 0x00000000   Number         0  ethip6.o ABSOLUTE
    ..\Middlewares\Third_Party\LwIP\src\core\ipv6\icmp6.c 0x00000000   Number         0  icmp6.o ABSOLUTE
    ..\Middlewares\Third_Party\LwIP\src\core\ipv6\inet6.c 0x00000000   Number         0  inet6.o ABSOLUTE
    ..\Middlewares\Third_Party\LwIP\src\core\ipv6\ip6.c 0x00000000   Number         0  ip6.o ABSOLUTE
    ..\Middlewares\Third_Party\LwIP\src\core\ipv6\ip6_addr.c 0x00000000   Number         0  ip6_addr.o ABSOLUTE
    ..\Middlewares\Third_Party\LwIP\src\core\ipv6\ip6_frag.c 0x00000000   Number         0  ip6_frag.o ABSOLUTE
    ..\Middlewares\Third_Party\LwIP\src\core\ipv6\mld6.c 0x00000000   Number         0  mld6.o ABSOLUTE
    ..\Middlewares\Third_Party\LwIP\src\core\ipv6\nd6.c 0x00000000   Number         0  nd6.o ABSOLUTE
    ..\Middlewares\Third_Party\LwIP\src\core\mem.c 0x00000000   Number         0  mem.o ABSOLUTE
    ..\Middlewares\Third_Party\LwIP\src\core\memp.c 0x00000000   Number         0  memp.o ABSOLUTE
    ..\Middlewares\Third_Party\LwIP\src\core\netif.c 0x00000000   Number         0  netif.o ABSOLUTE
    ..\Middlewares\Third_Party\LwIP\src\core\pbuf.c 0x00000000   Number         0  pbuf.o ABSOLUTE
    ..\Middlewares\Third_Party\LwIP\src\core\raw.c 0x00000000   Number         0  raw.o ABSOLUTE
    ..\Middlewares\Third_Party\LwIP\src\core\stats.c 0x00000000   Number         0  stats.o ABSOLUTE
    ..\Middlewares\Third_Party\LwIP\src\core\sys.c 0x00000000   Number         0  sys_1.o ABSOLUTE
    ..\Middlewares\Third_Party\LwIP\src\core\tcp.c 0x00000000   Number         0  tcp.o ABSOLUTE
    ..\Middlewares\Third_Party\LwIP\src\core\tcp_in.c 0x00000000   Number         0  tcp_in.o ABSOLUTE
    ..\Middlewares\Third_Party\LwIP\src\core\tcp_out.c 0x00000000   Number         0  tcp_out.o ABSOLUTE
    ..\Middlewares\Third_Party\LwIP\src\core\timeouts.c 0x00000000   Number         0  timeouts.o ABSOLUTE
    ..\Middlewares\Third_Party\LwIP\src\core\udp.c 0x00000000   Number         0  udp.o ABSOLUTE
    ..\Middlewares\Third_Party\LwIP\src\netif\bridgeif.c 0x00000000   Number         0  bridgeif.o ABSOLUTE
    ..\Middlewares\Third_Party\LwIP\src\netif\bridgeif_fdb.c 0x00000000   Number         0  bridgeif_fdb.o ABSOLUTE
    ..\Middlewares\Third_Party\LwIP\src\netif\ethernet.c 0x00000000   Number         0  ethernet.o ABSOLUTE
    ..\Middlewares\Third_Party\LwIP\src\netif\lowpan6.c 0x00000000   Number         0  lowpan6.o ABSOLUTE
    ..\Middlewares\Third_Party\LwIP\src\netif\lowpan6_ble.c 0x00000000   Number         0  lowpan6_ble.o ABSOLUTE
    ..\Middlewares\Third_Party\LwIP\src\netif\lowpan6_common.c 0x00000000   Number         0  lowpan6_common.o ABSOLUTE
    ..\Middlewares\Third_Party\LwIP\src\netif\ppp\auth.c 0x00000000   Number         0  auth.o ABSOLUTE
    ..\Middlewares\Third_Party\LwIP\src\netif\ppp\ccp.c 0x00000000   Number         0  ccp.o ABSOLUTE
    ..\Middlewares\Third_Party\LwIP\src\netif\ppp\chap-md5.c 0x00000000   Number         0  chap-md5.o ABSOLUTE
    ..\Middlewares\Third_Party\LwIP\src\netif\ppp\chap-new.c 0x00000000   Number         0  chap-new.o ABSOLUTE
    ..\Middlewares\Third_Party\LwIP\src\netif\ppp\chap_ms.c 0x00000000   Number         0  chap_ms.o ABSOLUTE
    ..\Middlewares\Third_Party\LwIP\src\netif\ppp\demand.c 0x00000000   Number         0  demand.o ABSOLUTE
    ..\Middlewares\Third_Party\LwIP\src\netif\ppp\eap.c 0x00000000   Number         0  eap.o ABSOLUTE
    ..\Middlewares\Third_Party\LwIP\src\netif\ppp\ecp.c 0x00000000   Number         0  ecp.o ABSOLUTE
    ..\Middlewares\Third_Party\LwIP\src\netif\ppp\eui64.c 0x00000000   Number         0  eui64.o ABSOLUTE
    ..\Middlewares\Third_Party\LwIP\src\netif\ppp\fsm.c 0x00000000   Number         0  fsm.o ABSOLUTE
    ..\Middlewares\Third_Party\LwIP\src\netif\ppp\ipcp.c 0x00000000   Number         0  ipcp.o ABSOLUTE
    ..\Middlewares\Third_Party\LwIP\src\netif\ppp\ipv6cp.c 0x00000000   Number         0  ipv6cp.o ABSOLUTE
    ..\Middlewares\Third_Party\LwIP\src\netif\ppp\lcp.c 0x00000000   Number         0  lcp.o ABSOLUTE
    ..\Middlewares\Third_Party\LwIP\src\netif\ppp\magic.c 0x00000000   Number         0  magic.o ABSOLUTE
    ..\Middlewares\Third_Party\LwIP\src\netif\ppp\mppe.c 0x00000000   Number         0  mppe.o ABSOLUTE
    ..\Middlewares\Third_Party\LwIP\src\netif\ppp\multilink.c 0x00000000   Number         0  multilink.o ABSOLUTE
    ..\Middlewares\Third_Party\LwIP\src\netif\ppp\ppp.c 0x00000000   Number         0  ppp.o ABSOLUTE
    ..\Middlewares\Third_Party\LwIP\src\netif\ppp\pppapi.c 0x00000000   Number         0  pppapi.o ABSOLUTE
    ..\Middlewares\Third_Party\LwIP\src\netif\ppp\pppcrypt.c 0x00000000   Number         0  pppcrypt.o ABSOLUTE
    ..\Middlewares\Third_Party\LwIP\src\netif\ppp\pppoe.c 0x00000000   Number         0  pppoe.o ABSOLUTE
    ..\Middlewares\Third_Party\LwIP\src\netif\ppp\pppol2tp.c 0x00000000   Number         0  pppol2tp.o ABSOLUTE
    ..\Middlewares\Third_Party\LwIP\src\netif\ppp\pppos.c 0x00000000   Number         0  pppos.o ABSOLUTE
    ..\Middlewares\Third_Party\LwIP\src\netif\ppp\upap.c 0x00000000   Number         0  upap.o ABSOLUTE
    ..\Middlewares\Third_Party\LwIP\src\netif\ppp\utils.c 0x00000000   Number         0  utils.o ABSOLUTE
    ..\Middlewares\Third_Party\LwIP\src\netif\ppp\vj.c 0x00000000   Number         0  vj.o ABSOLUTE
    ..\Middlewares\Third_Party\LwIP\src\netif\slipif.c 0x00000000   Number         0  slipif.o ABSOLUTE
    ..\Middlewares\Third_Party\LwIP\src\netif\zepif.c 0x00000000   Number         0  zepif.o ABSOLUTE
    ..\\Drivers\\IIC\\myiic.c                0x00000000   Number         0  myiic.o ABSOLUTE
    ..\\Drivers\\PCF8574\\pcf8574.c          0x00000000   Number         0  pcf8574.o ABSOLUTE
    ..\\Drivers\\delay\\delay.c              0x00000000   Number         0  delay.o ABSOLUTE
    ..\\Drivers\\sys\\sys.c                  0x00000000   Number         0  sys.o ABSOLUTE
    ..\\LWIP\\App\\TCPIP\\fifoMem.c          0x00000000   Number         0  fifomem.o ABSOLUTE
    ..\\LWIP\\App\\TCPIP\\lwip_udp.c         0x00000000   Number         0  lwip_udp.o ABSOLUTE
    ..\\LWIP\\App\\TCPIP\\socket_if.c        0x00000000   Number         0  socket_if.o ABSOLUTE
    ..\\LWIP\\App\\TCPIP\\tcp_client.c       0x00000000   Number         0  tcp_client.o ABSOLUTE
    ..\\LWIP\\App\\TCPIP\\tcp_server.c       0x00000000   Number         0  tcp_server.o ABSOLUTE
    cdrcmple.s                               0x00000000   Number         0  cdrcmple.o ABSOLUTE
    dc.s                                     0x00000000   Number         0  dc.o ABSOLUTE
    handlers.s                               0x00000000   Number         0  handlers.o ABSOLUTE
    init.s                                   0x00000000   Number         0  init.o ABSOLUTE
    startup_stm32h743xx.s                    0x00000000   Number         0  startup_stm32h743xx.o ABSOLUTE
    RESET                                    0x08000000   Section      664  startup_stm32h743xx.o(RESET)
    .ARM.Collect$$$$00000000                 0x08000298   Section        0  entry.o(.ARM.Collect$$$$00000000)
    .ARM.Collect$$$$00000001                 0x08000298   Section        4  entry2.o(.ARM.Collect$$$$00000001)
    .ARM.Collect$$$$00000004                 0x0800029c   Section        4  entry5.o(.ARM.Collect$$$$00000004)
    .ARM.Collect$$$$00000008                 0x080002a0   Section        0  entry7b.o(.ARM.Collect$$$$00000008)
    .ARM.Collect$$$$0000000A                 0x080002a0   Section        0  entry8b.o(.ARM.Collect$$$$0000000A)
    .ARM.Collect$$$$0000000B                 0x080002a0   Section        8  entry9a.o(.ARM.Collect$$$$0000000B)
    .ARM.Collect$$$$0000000E                 0x080002a8   Section        4  entry12b.o(.ARM.Collect$$$$0000000E)
    .ARM.Collect$$$$0000000F                 0x080002ac   Section        0  entry10a.o(.ARM.Collect$$$$0000000F)
    .ARM.Collect$$$$00000011                 0x080002ac   Section        0  entry11a.o(.ARM.Collect$$$$00000011)
    .ARM.Collect$$$$00002712                 0x080002ac   Section        4  entry2.o(.ARM.Collect$$$$00002712)
    __lit__00000000                          0x080002ac   Data           4  entry2.o(.ARM.Collect$$$$00002712)
    .text                                    0x080002b0   Section       36  startup_stm32h743xx.o(.text)
    $v0                                      0x080002b0   Number         0  startup_stm32h743xx.o(.text)
    .text                                    0x080002d4   Section        0  uldiv.o(.text)
    .text                                    0x08000338   Section        0  rand.o(.text)
    .text                                    0x0800035c   Section        0  memmovea.o(.text)
    .text                                    0x0800039c   Section        0  memseta.o(.text)
    .text                                    0x080003c0   Section        0  strlen.o(.text)
    .text                                    0x080003ce   Section        0  memcmp.o(.text)
    .text                                    0x080003e8   Section        0  llshl.o(.text)
    .text                                    0x08000406   Section        0  llushr.o(.text)
    .text                                    0x08000428   Section       36  init.o(.text)
    .text                                    0x0800044c   Section        0  __dczerorl2.o(.text)
    i.BusFault_Handler                       0x080004a2   Section        0  stm32h7xx_it.o(i.BusFault_Handler)
    i.DebugMon_Handler                       0x080004a6   Section        0  stm32h7xx_it.o(i.DebugMon_Handler)
    i.ETH_DMARxDescListInit                  0x080004a8   Section        0  stm32h7xx_hal_eth.o(i.ETH_DMARxDescListInit)
    ETH_DMARxDescListInit                    0x080004a9   Thumb Code    96  stm32h7xx_hal_eth.o(i.ETH_DMARxDescListInit)
    i.ETH_DMATxDescListInit                  0x08000508   Section        0  stm32h7xx_hal_eth.o(i.ETH_DMATxDescListInit)
    ETH_DMATxDescListInit                    0x08000509   Thumb Code    82  stm32h7xx_hal_eth.o(i.ETH_DMATxDescListInit)
    i.ETH_IRQHandler                         0x0800055c   Section        0  lwip.o(i.ETH_IRQHandler)
    i.ETH_MACDMAConfig                       0x08000580   Section        0  stm32h7xx_hal_eth.o(i.ETH_MACDMAConfig)
    ETH_MACDMAConfig                         0x08000581   Thumb Code   262  stm32h7xx_hal_eth.o(i.ETH_MACDMAConfig)
    i.ETH_PHY_IO_DeInit                      0x08000686   Section        0  ethernetif.o(i.ETH_PHY_IO_DeInit)
    i.ETH_PHY_IO_GetTick                     0x0800068a   Section        0  ethernetif.o(i.ETH_PHY_IO_GetTick)
    i.ETH_PHY_IO_Init                        0x08000694   Section        0  ethernetif.o(i.ETH_PHY_IO_Init)
    i.ETH_PHY_IO_ReadReg                     0x080006a4   Section        0  ethernetif.o(i.ETH_PHY_IO_ReadReg)
    i.ETH_PHY_IO_WriteReg                    0x080006c8   Section        0  ethernetif.o(i.ETH_PHY_IO_WriteReg)
    i.ETH_PTP_HAL_Init                       0x080006ec   Section        0  main.o(i.ETH_PTP_HAL_Init)
    i.ETH_Prepare_Tx_Descriptors             0x0800073c   Section        0  stm32h7xx_hal_eth.o(i.ETH_Prepare_Tx_Descriptors)
    ETH_Prepare_Tx_Descriptors               0x0800073d   Thumb Code   972  stm32h7xx_hal_eth.o(i.ETH_Prepare_Tx_Descriptors)
    i.ETH_SetDMAConfig                       0x08000b0c   Section        0  stm32h7xx_hal_eth.o(i.ETH_SetDMAConfig)
    ETH_SetDMAConfig                         0x08000b0d   Thumb Code   176  stm32h7xx_hal_eth.o(i.ETH_SetDMAConfig)
    i.ETH_SetMACConfig                       0x08000bc8   Section        0  stm32h7xx_hal_eth.o(i.ETH_SetMACConfig)
    ETH_SetMACConfig                         0x08000bc9   Thumb Code   394  stm32h7xx_hal_eth.o(i.ETH_SetMACConfig)
    i.ETH_UpdateDescriptor                   0x08000d5c   Section        0  stm32h7xx_hal_eth.o(i.ETH_UpdateDescriptor)
    ETH_UpdateDescriptor                     0x08000d5d   Thumb Code   152  stm32h7xx_hal_eth.o(i.ETH_UpdateDescriptor)
    i.ETH_WKUP_IRQHandler                    0x08000df4   Section        0  stm32h7xx_it.o(i.ETH_WKUP_IRQHandler)
    i.Error_Handler                          0x08000e04   Section        0  main.o(i.Error_Handler)
    i.Ethernet_Link_Periodic_Handle          0x08000e0c   Section        0  lwip.o(i.Ethernet_Link_Periodic_Handle)
    Ethernet_Link_Periodic_Handle            0x08000e0d   Thumb Code    34  lwip.o(i.Ethernet_Link_Periodic_Handle)
    i.HAL_DMA_Abort                          0x08000e34   Section        0  stm32h7xx_hal_dma.o(i.HAL_DMA_Abort)
    i.HAL_DMA_Abort_IT                       0x08001310   Section        0  stm32h7xx_hal_dma.o(i.HAL_DMA_Abort_IT)
    i.HAL_ETH_EEECallback                    0x080016a8   Section        0  stm32h7xx_hal_eth.o(i.HAL_ETH_EEECallback)
    i.HAL_ETH_ErrorCallback                  0x080016aa   Section        0  stm32h7xx_hal_eth.o(i.HAL_ETH_ErrorCallback)
    i.HAL_ETH_GetMACConfig                   0x080016ac   Section        0  stm32h7xx_hal_eth.o(i.HAL_ETH_GetMACConfig)
    i.HAL_ETH_IRQHandler                     0x08001884   Section        0  stm32h7xx_hal_eth.o(i.HAL_ETH_IRQHandler)
    i.HAL_ETH_Init                           0x08001a44   Section        0  stm32h7xx_hal_eth.o(i.HAL_ETH_Init)
    i.HAL_ETH_MspInit                        0x08001bb0   Section        0  ethernetif.o(i.HAL_ETH_MspInit)
    i.HAL_ETH_PMTCallback                    0x08001d38   Section        0  stm32h7xx_hal_eth.o(i.HAL_ETH_PMTCallback)
    i.HAL_ETH_PTP_GetSysTime                 0x08001d3a   Section        0  main.o(i.HAL_ETH_PTP_GetSysTime)
    i.HAL_ETH_PTP_InsertTxTimestamp          0x08001d5c   Section        0  stm32h7xx_hal_eth.o(i.HAL_ETH_PTP_InsertTxTimestamp)
    i.HAL_ETH_PTP_SetConfig                  0x08001d84   Section        0  stm32h7xx_hal_eth.o(i.HAL_ETH_PTP_SetConfig)
    i.HAL_ETH_PTP_SetTime                    0x08001e7c   Section        0  stm32h7xx_hal_eth.o(i.HAL_ETH_PTP_SetTime)
    i.HAL_ETH_ReadData                       0x08001e92   Section        0  stm32h7xx_hal_eth.o(i.HAL_ETH_ReadData)
    i.HAL_ETH_ReadPHYRegister                0x08001f92   Section        0  stm32h7xx_hal_eth.o(i.HAL_ETH_ReadPHYRegister)
    i.HAL_ETH_RxAllocateCallback             0x0800200c   Section        0  ethernetif.o(i.HAL_ETH_RxAllocateCallback)
    i.HAL_ETH_RxCpltCallback                 0x08002054   Section        0  stm32h7xx_hal_eth.o(i.HAL_ETH_RxCpltCallback)
    i.HAL_ETH_RxLinkCallback                 0x08002058   Section        0  ethernetif.o(i.HAL_ETH_RxLinkCallback)
    i.HAL_ETH_SetMACConfig                   0x080020fc   Section        0  stm32h7xx_hal_eth.o(i.HAL_ETH_SetMACConfig)
    i.HAL_ETH_SetMDIOClockRange              0x08002120   Section        0  stm32h7xx_hal_eth.o(i.HAL_ETH_SetMDIOClockRange)
    i.HAL_ETH_Start_IT                       0x08002198   Section        0  stm32h7xx_hal_eth.o(i.HAL_ETH_Start_IT)
    i.HAL_ETH_Stop                           0x08002278   Section        0  stm32h7xx_hal_eth.o(i.HAL_ETH_Stop)
    i.HAL_ETH_Transmit                       0x080022ec   Section        0  stm32h7xx_hal_eth.o(i.HAL_ETH_Transmit)
    i.HAL_ETH_TxCpltCallback                 0x080023e2   Section        0  stm32h7xx_hal_eth.o(i.HAL_ETH_TxCpltCallback)
    i.HAL_ETH_WakeUpCallback                 0x080023e4   Section        0  stm32h7xx_hal_eth.o(i.HAL_ETH_WakeUpCallback)
    i.HAL_ETH_WritePHYRegister               0x080023e8   Section        0  stm32h7xx_hal_eth.o(i.HAL_ETH_WritePHYRegister)
    i.HAL_GPIO_Init                          0x08002468   Section        0  stm32h7xx_hal_gpio.o(i.HAL_GPIO_Init)
    i.HAL_GPIO_ReadPin                       0x08002664   Section        0  stm32h7xx_hal_gpio.o(i.HAL_GPIO_ReadPin)
    i.HAL_GPIO_WritePin                      0x08002674   Section        0  stm32h7xx_hal_gpio.o(i.HAL_GPIO_WritePin)
    i.HAL_GetREVID                           0x08002680   Section        0  stm32h7xx_hal.o(i.HAL_GetREVID)
    i.HAL_GetTick                            0x0800268c   Section        0  stm32h7xx_hal.o(i.HAL_GetTick)
    i.HAL_IncTick                            0x08002698   Section        0  stm32h7xx_hal.o(i.HAL_IncTick)
    i.HAL_Init                               0x080026b0   Section        0  stm32h7xx_hal.o(i.HAL_Init)
    i.HAL_InitTick                           0x08002710   Section        0  stm32h7xx_hal.o(i.HAL_InitTick)
    i.HAL_MPU_ConfigRegion                   0x08002768   Section        0  stm32h7xx_hal_cortex.o(i.HAL_MPU_ConfigRegion)
    i.HAL_MPU_Disable                        0x080027c4   Section        0  stm32h7xx_hal_cortex.o(i.HAL_MPU_Disable)
    i.HAL_MPU_Enable                         0x080027f0   Section        0  stm32h7xx_hal_cortex.o(i.HAL_MPU_Enable)
    i.HAL_MspInit                            0x08002830   Section        0  stm32h7xx_hal_msp.o(i.HAL_MspInit)
    i.HAL_NVIC_EnableIRQ                     0x08002854   Section        0  stm32h7xx_hal_cortex.o(i.HAL_NVIC_EnableIRQ)
    i.HAL_NVIC_SetPriority                   0x0800287c   Section        0  stm32h7xx_hal_cortex.o(i.HAL_NVIC_SetPriority)
    i.HAL_NVIC_SetPriorityGrouping           0x080028f8   Section        0  stm32h7xx_hal_cortex.o(i.HAL_NVIC_SetPriorityGrouping)
    i.HAL_PWREx_ConfigSupply                 0x08002920   Section        0  stm32h7xx_hal_pwr_ex.o(i.HAL_PWREx_ConfigSupply)
    i.HAL_RCCEx_GetD3PCLK1Freq               0x08002980   Section        0  stm32h7xx_hal_rcc_ex.o(i.HAL_RCCEx_GetD3PCLK1Freq)
    i.HAL_RCCEx_GetPLL2ClockFreq             0x080029a4   Section        0  stm32h7xx_hal_rcc_ex.o(i.HAL_RCCEx_GetPLL2ClockFreq)
    i.HAL_RCCEx_GetPLL3ClockFreq             0x08002bd4   Section        0  stm32h7xx_hal_rcc_ex.o(i.HAL_RCCEx_GetPLL3ClockFreq)
    i.HAL_RCCEx_PeriphCLKConfig              0x08002e04   Section        0  stm32h7xx_hal_rcc_ex.o(i.HAL_RCCEx_PeriphCLKConfig)
    i.HAL_RCC_ClockConfig                    0x08003b6c   Section        0  stm32h7xx_hal_rcc.o(i.HAL_RCC_ClockConfig)
    i.HAL_RCC_GetHCLKFreq                    0x08003e8c   Section        0  stm32h7xx_hal_rcc.o(i.HAL_RCC_GetHCLKFreq)
    i.HAL_RCC_GetPCLK1Freq                   0x08003ed8   Section        0  stm32h7xx_hal_rcc.o(i.HAL_RCC_GetPCLK1Freq)
    i.HAL_RCC_GetPCLK2Freq                   0x08003efc   Section        0  stm32h7xx_hal_rcc.o(i.HAL_RCC_GetPCLK2Freq)
    i.HAL_RCC_GetSysClockFreq                0x08003f20   Section        0  stm32h7xx_hal_rcc.o(i.HAL_RCC_GetSysClockFreq)
    i.HAL_RCC_OscConfig                      0x0800414c   Section        0  stm32h7xx_hal_rcc.o(i.HAL_RCC_OscConfig)
    i.HAL_SYSCFG_ETHInterfaceSelect          0x080049a4   Section        0  stm32h7xx_hal.o(i.HAL_SYSCFG_ETHInterfaceSelect)
    i.HAL_SYSTICK_Config                     0x080049b8   Section        0  stm32h7xx_hal_cortex.o(i.HAL_SYSTICK_Config)
    i.HAL_UARTEx_DisableFifoMode             0x080049ec   Section        0  stm32h7xx_hal_uart_ex.o(i.HAL_UARTEx_DisableFifoMode)
    i.HAL_UARTEx_RxEventCallback             0x08004a3a   Section        0  stm32h7xx_hal_uart.o(i.HAL_UARTEx_RxEventCallback)
    i.HAL_UARTEx_RxFifoFullCallback          0x08004a3c   Section        0  stm32h7xx_hal_uart_ex.o(i.HAL_UARTEx_RxFifoFullCallback)
    i.HAL_UARTEx_SetRxFifoThreshold          0x08004a3e   Section        0  stm32h7xx_hal_uart_ex.o(i.HAL_UARTEx_SetRxFifoThreshold)
    i.HAL_UARTEx_SetTxFifoThreshold          0x08004a9c   Section        0  stm32h7xx_hal_uart_ex.o(i.HAL_UARTEx_SetTxFifoThreshold)
    i.HAL_UARTEx_TxFifoEmptyCallback         0x08004afa   Section        0  stm32h7xx_hal_uart_ex.o(i.HAL_UARTEx_TxFifoEmptyCallback)
    i.HAL_UARTEx_WakeupCallback              0x08004afc   Section        0  stm32h7xx_hal_uart_ex.o(i.HAL_UARTEx_WakeupCallback)
    i.HAL_UART_ErrorCallback                 0x08004afe   Section        0  stm32h7xx_hal_uart.o(i.HAL_UART_ErrorCallback)
    i.HAL_UART_IRQHandler                    0x08004b00   Section        0  stm32h7xx_hal_uart.o(i.HAL_UART_IRQHandler)
    i.HAL_UART_Init                          0x08004f94   Section        0  stm32h7xx_hal_uart.o(i.HAL_UART_Init)
    i.HAL_UART_MspInit                       0x0800500c   Section        0  usart.o(i.HAL_UART_MspInit)
    i.HAL_UART_TxCpltCallback                0x080050b8   Section        0  stm32h7xx_hal_uart.o(i.HAL_UART_TxCpltCallback)
    i.HardFault_Handler                      0x080050ba   Section        0  stm32h7xx_it.o(i.HardFault_Handler)
    i.IIC_Ack                                0x080050c0   Section        0  myiic.o(i.IIC_Ack)
    i.IIC_Init                               0x08005114   Section        0  myiic.o(i.IIC_Init)
    i.IIC_NAck                               0x0800516c   Section        0  myiic.o(i.IIC_NAck)
    i.IIC_Read_Byte                          0x080051c0   Section        0  myiic.o(i.IIC_Read_Byte)
    i.IIC_Send_Byte                          0x0800522c   Section        0  myiic.o(i.IIC_Send_Byte)
    i.IIC_Start                              0x080052a8   Section        0  myiic.o(i.IIC_Start)
    i.IIC_Stop                               0x080052fc   Section        0  myiic.o(i.IIC_Stop)
    i.IIC_Wait_Ack                           0x08005350   Section        0  myiic.o(i.IIC_Wait_Ack)
    i.LAN8742_GetLinkState                   0x080053b8   Section        0  lan8742.o(i.LAN8742_GetLinkState)
    i.LAN8742_Init                           0x080054a2   Section        0  lan8742.o(i.LAN8742_Init)
    i.LAN8742_RegisterBusIO                  0x080055a8   Section        0  lan8742.o(i.LAN8742_RegisterBusIO)
    i.MPU_Config                             0x080055d8   Section        0  main.o(i.MPU_Config)
    MPU_Config                               0x080055d9   Thumb Code    90  main.o(i.MPU_Config)
    i.MX_GPIO_Init                           0x08005638   Section        0  gpio.o(i.MX_GPIO_Init)
    i.MX_LWIP_Init                           0x080056c4   Section        0  lwip.o(i.MX_LWIP_Init)
    i.MX_LWIP_Process                        0x08005904   Section        0  lwip.o(i.MX_LWIP_Process)
    i.MX_USART1_UART_Init                    0x08005918   Section        0  usart.o(i.MX_USART1_UART_Init)
    i.MemManage_Handler                      0x08005984   Section        0  stm32h7xx_it.o(i.MemManage_Handler)
    i.NMI_Handler                            0x08005988   Section        0  stm32h7xx_it.o(i.NMI_Handler)
    i.PCF8574_Init                           0x0800598c   Section        0  pcf8574.o(i.PCF8574_Init)
    i.PCF8574_ReadOneByte                    0x080059f4   Section        0  pcf8574.o(i.PCF8574_ReadOneByte)
    i.PCF8574_WriteBit                       0x08005a16   Section        0  pcf8574.o(i.PCF8574_WriteBit)
    i.PCF8574_WriteOneByte                   0x08005a3c   Section        0  pcf8574.o(i.PCF8574_WriteOneByte)
    i.PendSV_Handler                         0x08005a64   Section        0  stm32h7xx_it.o(i.PendSV_Handler)
    i.RCCEx_PLL2_Config                      0x08005a68   Section        0  stm32h7xx_hal_rcc_ex.o(i.RCCEx_PLL2_Config)
    RCCEx_PLL2_Config                        0x08005a69   Thumb Code   350  stm32h7xx_hal_rcc_ex.o(i.RCCEx_PLL2_Config)
    i.RCCEx_PLL3_Config                      0x08005bcc   Section        0  stm32h7xx_hal_rcc_ex.o(i.RCCEx_PLL3_Config)
    RCCEx_PLL3_Config                        0x08005bcd   Thumb Code   350  stm32h7xx_hal_rcc_ex.o(i.RCCEx_PLL3_Config)
    i.SVC_Handler                            0x08005d30   Section        0  stm32h7xx_it.o(i.SVC_Handler)
    i.SysTick_Handler                        0x08005d32   Section        0  stm32h7xx_it.o(i.SysTick_Handler)
    i.SystemClock_Config                     0x08005d3c   Section        0  main.o(i.SystemClock_Config)
    i.SystemInit                             0x08005e78   Section        0  system_stm32h7xx.o(i.SystemInit)
    i.TCP_Server_Init                        0x08005f74   Section        0  tcp_server.o(i.TCP_Server_Init)
    i.UARTEx_SetNbDataToProcess              0x08006020   Section        0  stm32h7xx_hal_uart_ex.o(i.UARTEx_SetNbDataToProcess)
    UARTEx_SetNbDataToProcess                0x08006021   Thumb Code    78  stm32h7xx_hal_uart_ex.o(i.UARTEx_SetNbDataToProcess)
    i.UART_AdvFeatureConfig                  0x08006078   Section        0  stm32h7xx_hal_uart.o(i.UART_AdvFeatureConfig)
    i.UART_CheckIdleState                    0x08006170   Section        0  stm32h7xx_hal_uart.o(i.UART_CheckIdleState)
    i.UART_DMAAbortOnError                   0x0800625a   Section        0  stm32h7xx_hal_uart.o(i.UART_DMAAbortOnError)
    UART_DMAAbortOnError                     0x0800625b   Thumb Code    24  stm32h7xx_hal_uart.o(i.UART_DMAAbortOnError)
    i.UART_EndRxTransfer                     0x08006274   Section        0  stm32h7xx_hal_uart.o(i.UART_EndRxTransfer)
    UART_EndRxTransfer                       0x08006275   Thumb Code   104  stm32h7xx_hal_uart.o(i.UART_EndRxTransfer)
    i.UART_EndTransmit_IT                    0x080062e0   Section        0  stm32h7xx_hal_uart.o(i.UART_EndTransmit_IT)
    UART_EndTransmit_IT                      0x080062e1   Thumb Code    48  stm32h7xx_hal_uart.o(i.UART_EndTransmit_IT)
    i.UART_SetConfig                         0x08006310   Section        0  stm32h7xx_hal_uart.o(i.UART_SetConfig)
    i.UART_WaitOnFlagUntilTimeout            0x0800689c   Section        0  stm32h7xx_hal_uart.o(i.UART_WaitOnFlagUntilTimeout)
    i.USART1_IRQHandler                      0x08006940   Section        0  stm32h7xx_it.o(i.USART1_IRQHandler)
    i.Udp_Lwip_Init                          0x08006950   Section        0  lwip_udp.o(i.Udp_Lwip_Init)
    i.UsageFault_Handler                     0x080069c8   Section        0  stm32h7xx_it.o(i.UsageFault_Handler)
    i.__0printf$5                            0x080069cc   Section        0  printf5.o(i.__0printf$5)
    i.__NVIC_GetPriorityGrouping             0x080069ec   Section        0  stm32h7xx_hal_cortex.o(i.__NVIC_GetPriorityGrouping)
    __NVIC_GetPriorityGrouping               0x080069ed   Thumb Code    10  stm32h7xx_hal_cortex.o(i.__NVIC_GetPriorityGrouping)
    i.__NVIC_SetPriority                     0x080069fc   Section        0  stm32h7xx_hal_cortex.o(i.__NVIC_SetPriority)
    __NVIC_SetPriority                       0x080069fd   Thumb Code    32  stm32h7xx_hal_cortex.o(i.__NVIC_SetPriority)
    i.__scatterload_copy                     0x08006a24   Section       14  handlers.o(i.__scatterload_copy)
    i.__scatterload_null                     0x08006a32   Section        2  handlers.o(i.__scatterload_null)
    i.__scatterload_zeroinit                 0x08006a34   Section       14  handlers.o(i.__scatterload_zeroinit)
    i._printf_core                           0x08006a44   Section        0  printf5.o(i._printf_core)
    _printf_core                             0x08006a45   Thumb Code   660  printf5.o(i._printf_core)
    i.client_set_remote_ip                   0x08006d04   Section        0  tcp_client.o(i.client_set_remote_ip)
    i.delay_ms                               0x08006e1c   Section        0  delay.o(i.delay_ms)
    i.delay_us                               0x08006e34   Section        0  delay.o(i.delay_us)
    i.do_memp_free_pool                      0x08006e7c   Section        0  memp.o(i.do_memp_free_pool)
    do_memp_free_pool                        0x08006e7d   Thumb Code    50  memp.o(i.do_memp_free_pool)
    i.do_memp_malloc_pool                    0x08006f28   Section        0  memp.o(i.do_memp_malloc_pool)
    do_memp_malloc_pool                      0x08006f29   Thumb Code    56  memp.o(i.do_memp_malloc_pool)
    i.etharp_cleanup_netif                   0x08006fdc   Section        0  etharp.o(i.etharp_cleanup_netif)
    i.etharp_find_entry                      0x08007014   Section        0  etharp.o(i.etharp_find_entry)
    etharp_find_entry                        0x08007015   Thumb Code   514  etharp.o(i.etharp_find_entry)
    i.etharp_free_entry                      0x08007314   Section        0  etharp.o(i.etharp_free_entry)
    etharp_free_entry                        0x08007315   Thumb Code    58  etharp.o(i.etharp_free_entry)
    i.etharp_input                           0x08007354   Section        0  etharp.o(i.etharp_input)
    i.etharp_output                          0x08007490   Section        0  etharp.o(i.etharp_output)
    i.etharp_output_to_arp_index             0x080076b4   Section        0  etharp.o(i.etharp_output_to_arp_index)
    etharp_output_to_arp_index               0x080076b5   Thumb Code   212  etharp.o(i.etharp_output_to_arp_index)
    i.etharp_query                           0x0800781c   Section        0  etharp.o(i.etharp_query)
    i.etharp_raw                             0x08007ac0   Section        0  etharp.o(i.etharp_raw)
    etharp_raw                               0x08007ac1   Thumb Code   226  etharp.o(i.etharp_raw)
    i.etharp_request                         0x08007c4c   Section        0  etharp.o(i.etharp_request)
    i.etharp_request_dst                     0x08007c64   Section        0  etharp.o(i.etharp_request_dst)
    etharp_request_dst                       0x08007c65   Thumb Code    38  etharp.o(i.etharp_request_dst)
    i.etharp_tmr                             0x08007c90   Section        0  etharp.o(i.etharp_tmr)
    i.etharp_update_arp_entry                0x08007d6c   Section        0  etharp.o(i.etharp_update_arp_entry)
    etharp_update_arp_entry                  0x08007d6d   Thumb Code   212  etharp.o(i.etharp_update_arp_entry)
    i.ethernet_input                         0x08007ec8   Section        0  ethernet.o(i.ethernet_input)
    i.ethernet_link_check_state              0x08007f8c   Section        0  ethernetif.o(i.ethernet_link_check_state)
    i.ethernet_link_status_updated           0x08008058   Section        0  lwip.o(i.ethernet_link_status_updated)
    ethernet_link_status_updated             0x08008059   Thumb Code    30  lwip.o(i.ethernet_link_status_updated)
    i.ethernet_output                        0x080080b8   Section        0  ethernet.o(i.ethernet_output)
    i.ethernetif_init                        0x080081bc   Section        0  ethernetif.o(i.ethernetif_init)
    i.ethernetif_input                       0x08008254   Section        0  ethernetif.o(i.ethernetif_input)
    i.fputc                                  0x080082b8   Section        0  main.o(i.fputc)
    i.icmp_dest_unreach                      0x080082d4   Section        0  icmp.o(i.icmp_dest_unreach)
    i.icmp_input                             0x080082e8   Section        0  icmp.o(i.icmp_input)
    i.icmp_send_response                     0x0800858c   Section        0  icmp.o(i.icmp_send_response)
    icmp_send_response                       0x0800858d   Thumb Code   152  icmp.o(i.icmp_send_response)
    i.icmp_time_exceeded                     0x080086b0   Section        0  icmp.o(i.icmp_time_exceeded)
    i.inet_chksum                            0x080086c2   Section        0  inet_chksum.o(i.inet_chksum)
    i.inet_chksum_pbuf                       0x080086d6   Section        0  inet_chksum.o(i.inet_chksum_pbuf)
    i.ip4_addr_isbroadcast_u32               0x0800872c   Section        0  ip4_addr.o(i.ip4_addr_isbroadcast_u32)
    i.ip4_frag                               0x0800877c   Section        0  ip4_frag.o(i.ip4_frag)
    i.ip4_input                              0x08008a48   Section        0  ip4.o(i.ip4_input)
    i.ip4_input_accept                       0x08008be4   Section        0  ip4.o(i.ip4_input_accept)
    ip4_input_accept                         0x08008be5   Thumb Code    48  ip4.o(i.ip4_input_accept)
    i.ip4_output_if                          0x08008c18   Section        0  ip4.o(i.ip4_output_if)
    i.ip4_output_if_src                      0x08008c50   Section        0  ip4.o(i.ip4_output_if_src)
    i.ip4_reass                              0x08008dec   Section        0  ip4_frag.o(i.ip4_reass)
    i.ip4_route                              0x080090e8   Section        0  ip4.o(i.ip4_route)
    i.ip_frag_alloc_pbuf_custom_ref          0x0800917c   Section        0  ip4_frag.o(i.ip_frag_alloc_pbuf_custom_ref)
    ip_frag_alloc_pbuf_custom_ref            0x0800917d   Thumb Code    10  ip4_frag.o(i.ip_frag_alloc_pbuf_custom_ref)
    i.ip_frag_free_pbuf_custom_ref           0x08009188   Section        0  ip4_frag.o(i.ip_frag_free_pbuf_custom_ref)
    ip_frag_free_pbuf_custom_ref             0x08009189   Thumb Code    40  ip4_frag.o(i.ip_frag_free_pbuf_custom_ref)
    i.ip_reass_chain_frag_into_datagram_and_validate 0x08009220   Section        0  ip4_frag.o(i.ip_reass_chain_frag_into_datagram_and_validate)
    ip_reass_chain_frag_into_datagram_and_validate 0x08009221   Thumb Code   530  ip4_frag.o(i.ip_reass_chain_frag_into_datagram_and_validate)
    i.ip_reass_dequeue_datagram              0x08009524   Section        0  ip4_frag.o(i.ip_reass_dequeue_datagram)
    ip_reass_dequeue_datagram                0x08009525   Thumb Code    62  ip4_frag.o(i.ip_reass_dequeue_datagram)
    i.ip_reass_enqueue_new_datagram          0x080095e8   Section        0  ip4_frag.o(i.ip_reass_enqueue_new_datagram)
    ip_reass_enqueue_new_datagram            0x080095e9   Thumb Code    80  ip4_frag.o(i.ip_reass_enqueue_new_datagram)
    i.ip_reass_free_complete_datagram        0x0800963c   Section        0  ip4_frag.o(i.ip_reass_free_complete_datagram)
    ip_reass_free_complete_datagram          0x0800963d   Thumb Code   274  ip4_frag.o(i.ip_reass_free_complete_datagram)
    i.ip_reass_remove_oldest_datagram        0x0800981c   Section        0  ip4_frag.o(i.ip_reass_remove_oldest_datagram)
    ip_reass_remove_oldest_datagram          0x0800981d   Thumb Code   130  ip4_frag.o(i.ip_reass_remove_oldest_datagram)
    i.ip_reass_tmr                           0x080098a4   Section        0  ip4_frag.o(i.ip_reass_tmr)
    i.ipfrag_free_pbuf_custom                0x080098d8   Section        0  ip4_frag.o(i.ipfrag_free_pbuf_custom)
    ipfrag_free_pbuf_custom                  0x080098d9   Thumb Code    76  ip4_frag.o(i.ipfrag_free_pbuf_custom)
    i.low_level_init                         0x080099a0   Section        0  ethernetif.o(i.low_level_init)
    low_level_init                           0x080099a1   Thumb Code   218  ethernetif.o(i.low_level_init)
    i.low_level_input                        0x08009a9c   Section        0  ethernetif.o(i.low_level_input)
    low_level_input                          0x08009a9d   Thumb Code   146  ethernetif.o(i.low_level_input)
    i.low_level_output                       0x08009b40   Section        0  ethernetif.o(i.low_level_output)
    i.lwip_cyclic_timer                      0x08009c6c   Section        0  timeouts.o(i.lwip_cyclic_timer)
    lwip_cyclic_timer                        0x08009c6d   Thumb Code    70  timeouts.o(i.lwip_cyclic_timer)
    i.lwip_htonl                             0x08009cbc   Section        0  def.o(i.lwip_htonl)
    i.lwip_htons                             0x08009cd6   Section        0  def.o(i.lwip_htons)
    i.lwip_init                              0x08009ce4   Section        0  init.o(i.lwip_init)
    i.lwip_standard_chksum                   0x08009d80   Section        0  inet_chksum.o(i.lwip_standard_chksum)
    i.lwip_udp_discollected                  0x08009de0   Section        0  lwip_udp.o(i.lwip_udp_discollected)
    i.lwip_udp_recv_callback                 0x08009e04   Section        0  lwip_udp.o(i.lwip_udp_recv_callback)
    i.lwip_udp_register                      0x08009ee4   Section        0  lwip_udp.o(i.lwip_udp_register)
    i.lwip_udp_send                          0x08009f00   Section        0  lwip_udp.o(i.lwip_udp_send)
    i.lwip_udp_set_remote_ip                 0x08009f38   Section        0  lwip_udp.o(i.lwip_udp_set_remote_ip)
    i.main                                   0x0800a048   Section        0  main.o(i.main)
    i.mem_free                               0x0800a1f4   Section        0  mem.o(i.mem_free)
    i.mem_init                               0x0800a3b8   Section        0  mem.o(i.mem_init)
    i.mem_link_valid                         0x0800a410   Section        0  mem.o(i.mem_link_valid)
    mem_link_valid                           0x0800a411   Thumb Code    82  mem.o(i.mem_link_valid)
    i.mem_malloc                             0x0800a468   Section        0  mem.o(i.mem_malloc)
    i.mem_to_ptr                             0x0800a710   Section        0  mem.o(i.mem_to_ptr)
    mem_to_ptr                               0x0800a711   Thumb Code    12  mem.o(i.mem_to_ptr)
    i.mem_trim                               0x0800a720   Section        0  mem.o(i.mem_trim)
    i.memp_free                              0x0800a954   Section        0  memp.o(i.memp_free)
    i.memp_free_pool                         0x0800aa04   Section        0  memp.o(i.memp_free_pool)
    i.memp_init                              0x0800aaa4   Section        0  memp.o(i.memp_init)
    i.memp_init_pool                         0x0800aac4   Section        0  memp.o(i.memp_init_pool)
    i.memp_malloc                            0x0800aaf0   Section        0  memp.o(i.memp_malloc)
    i.memp_malloc_pool                       0x0800aba0   Section        0  memp.o(i.memp_malloc_pool)
    i.netif_add                              0x0800ac38   Section        0  netif.o(i.netif_add)
    i.netif_do_ip_addr_changed               0x0800ae68   Section        0  netif.o(i.netif_do_ip_addr_changed)
    netif_do_ip_addr_changed                 0x0800ae69   Thumb Code    24  netif.o(i.netif_do_ip_addr_changed)
    i.netif_do_set_gw                        0x0800ae80   Section        0  netif.o(i.netif_do_set_gw)
    netif_do_set_gw                          0x0800ae81   Thumb Code    38  netif.o(i.netif_do_set_gw)
    i.netif_do_set_ipaddr                    0x0800aea8   Section        0  netif.o(i.netif_do_set_ipaddr)
    netif_do_set_ipaddr                      0x0800aea9   Thumb Code   116  netif.o(i.netif_do_set_ipaddr)
    i.netif_do_set_netmask                   0x0800af88   Section        0  netif.o(i.netif_do_set_netmask)
    netif_do_set_netmask                     0x0800af89   Thumb Code    38  netif.o(i.netif_do_set_netmask)
    i.netif_get_by_index                     0x0800afb0   Section        0  netif.o(i.netif_get_by_index)
    i.netif_init                             0x0800afd8   Section        0  netif.o(i.netif_init)
    i.netif_issue_reports                    0x0800afdc   Section        0  netif.o(i.netif_issue_reports)
    netif_issue_reports                      0x0800afdd   Thumb Code    86  netif.o(i.netif_issue_reports)
    i.netif_null_output_ip4                  0x0800b0b4   Section        0  netif.o(i.netif_null_output_ip4)
    netif_null_output_ip4                    0x0800b0b5   Thumb Code     8  netif.o(i.netif_null_output_ip4)
    i.netif_set_addr                         0x0800b0bc   Section        0  netif.o(i.netif_set_addr)
    i.netif_set_default                      0x0800b11c   Section        0  netif.o(i.netif_set_default)
    i.netif_set_down                         0x0800b128   Section        0  netif.o(i.netif_set_down)
    i.netif_set_link_callback                0x0800b1f4   Section        0  netif.o(i.netif_set_link_callback)
    i.netif_set_link_down                    0x0800b1fc   Section        0  netif.o(i.netif_set_link_down)
    i.netif_set_link_up                      0x0800b2c8   Section        0  netif.o(i.netif_set_link_up)
    i.netif_set_up                           0x0800b39c   Section        0  netif.o(i.netif_set_up)
    i.pbuf_add_header                        0x0800b45c   Section        0  pbuf.o(i.pbuf_add_header)
    i.pbuf_add_header_impl                   0x0800b470   Section        0  pbuf.o(i.pbuf_add_header_impl)
    pbuf_add_header_impl                     0x0800b471   Thumb Code   130  pbuf.o(i.pbuf_add_header_impl)
    i.pbuf_alloc                             0x0800b558   Section        0  pbuf.o(i.pbuf_alloc)
    i.pbuf_alloc_reference                   0x0800b7fc   Section        0  pbuf.o(i.pbuf_alloc_reference)
    i.pbuf_alloced_custom                    0x0800b8b8   Section        0  pbuf.o(i.pbuf_alloced_custom)
    i.pbuf_cat                               0x0800b90c   Section        0  pbuf.o(i.pbuf_cat)
    i.pbuf_chain                             0x0800ba5c   Section        0  pbuf.o(i.pbuf_chain)
    i.pbuf_clen                              0x0800ba72   Section        0  pbuf.o(i.pbuf_clen)
    i.pbuf_clone                             0x0800ba84   Section        0  pbuf.o(i.pbuf_clone)
    i.pbuf_copy                              0x0800bb34   Section        0  pbuf.o(i.pbuf_copy)
    i.pbuf_copy_partial                      0x0800bd5c   Section        0  pbuf.o(i.pbuf_copy_partial)
    i.pbuf_free                              0x0800be9c   Section        0  pbuf.o(i.pbuf_free)
    i.pbuf_free_custom                       0x0800c038   Section        0  ethernetif.o(i.pbuf_free_custom)
    i.pbuf_free_ooseq                        0x0800c060   Section        0  pbuf.o(i.pbuf_free_ooseq)
    i.pbuf_header_force                      0x0800c090   Section        0  pbuf.o(i.pbuf_header_force)
    i.pbuf_header_impl                       0x0800c0a2   Section        0  pbuf.o(i.pbuf_header_impl)
    pbuf_header_impl                         0x0800c0a3   Thumb Code    34  pbuf.o(i.pbuf_header_impl)
    i.pbuf_init_alloced_pbuf                 0x0800c0c4   Section        0  pbuf.o(i.pbuf_init_alloced_pbuf)
    pbuf_init_alloced_pbuf                   0x0800c0c5   Thumb Code    30  pbuf.o(i.pbuf_init_alloced_pbuf)
    i.pbuf_pool_is_empty                     0x0800c0e4   Section        0  pbuf.o(i.pbuf_pool_is_empty)
    pbuf_pool_is_empty                       0x0800c0e5   Thumb Code    12  pbuf.o(i.pbuf_pool_is_empty)
    i.pbuf_realloc                           0x0800c0f4   Section        0  pbuf.o(i.pbuf_realloc)
    i.pbuf_ref                               0x0800c25c   Section        0  pbuf.o(i.pbuf_ref)
    i.pbuf_remove_header                     0x0800c2f8   Section        0  pbuf.o(i.pbuf_remove_header)
    i.pbuf_take                              0x0800c3ec   Section        0  pbuf.o(i.pbuf_take)
    i.plug_holes                             0x0800c5b4   Section        0  mem.o(i.plug_holes)
    plug_holes                               0x0800c5b5   Thumb Code   248  mem.o(i.plug_holes)
    i.ptr_to_mem                             0x0800c78c   Section        0  mem.o(i.ptr_to_mem)
    ptr_to_mem                               0x0800c78d   Thumb Code    10  mem.o(i.ptr_to_mem)
    i.server_set_local_ip                    0x0800c79c   Section        0  tcp_server.o(i.server_set_local_ip)
    i.sys_check_timeouts                     0x0800c8ac   Section        0  timeouts.o(i.sys_check_timeouts)
    i.sys_now                                0x0800c910   Section        0  ethernetif.o(i.sys_now)
    i.sys_timeout                            0x0800c918   Section        0  timeouts.o(i.sys_timeout)
    i.sys_timeout_abs                        0x0800c9e8   Section        0  timeouts.o(i.sys_timeout_abs)
    sys_timeout_abs                          0x0800c9e9   Thumb Code   160  timeouts.o(i.sys_timeout_abs)
    i.sys_timeouts_init                      0x0800cb28   Section        0  timeouts.o(i.sys_timeouts_init)
    i.tcp_abandon                            0x0800cb50   Section        0  tcp.o(i.tcp_abandon)
    i.tcp_abort                              0x0800cd24   Section        0  tcp.o(i.tcp_abort)
    i.tcp_accept                             0x0800cd32   Section        0  tcp.o(i.tcp_accept)
    i.tcp_accept_null                        0x0800cd44   Section        0  tcp.o(i.tcp_accept_null)
    tcp_accept_null                          0x0800cd45   Thumb Code    46  tcp.o(i.tcp_accept_null)
    i.tcp_alloc                              0x0800cdec   Section        0  tcp.o(i.tcp_alloc)
    i.tcp_arg                                0x0800cea8   Section        0  tcp.o(i.tcp_arg)
    i.tcp_bind                               0x0800ceb0   Section        0  tcp.o(i.tcp_bind)
    i.tcp_client_connection_close            0x0800d020   Section        0  tcp_server.o(i.tcp_client_connection_close)
    tcp_client_connection_close              0x0800d021   Thumb Code    64  tcp_server.o(i.tcp_client_connection_close)
    i.tcp_close                              0x0800d060   Section        0  tcp.o(i.tcp_close)
    i.tcp_close_shutdown                     0x0800d110   Section        0  tcp.o(i.tcp_close_shutdown)
    tcp_close_shutdown                       0x0800d111   Thumb Code   356  tcp.o(i.tcp_close_shutdown)
    i.tcp_close_shutdown_fin                 0x0800d31c   Section        0  tcp.o(i.tcp_close_shutdown_fin)
    tcp_close_shutdown_fin                   0x0800d31d   Thumb Code   132  tcp.o(i.tcp_close_shutdown_fin)
    i.tcp_create_segment                     0x0800d404   Section        0  tcp_out.o(i.tcp_create_segment)
    tcp_create_segment                       0x0800d405   Thumb Code   282  tcp_out.o(i.tcp_create_segment)
    i.tcp_eff_send_mss_netif                 0x0800d5d8   Section        0  tcp.o(i.tcp_eff_send_mss_netif)
    i.tcp_enqueue_flags                      0x0800d6ac   Section        0  tcp_out.o(i.tcp_enqueue_flags)
    i.tcp_err                                0x0800d96c   Section        0  tcp.o(i.tcp_err)
    i.tcp_fasttmr                            0x0800da18   Section        0  tcp.o(i.tcp_fasttmr)
    i.tcp_free                               0x0800dab4   Section        0  tcp.o(i.tcp_free)
    i.tcp_free_acked_segments                0x0800db48   Section        0  tcp_in.o(i.tcp_free_acked_segments)
    tcp_free_acked_segments                  0x0800db49   Thumb Code   176  tcp_in.o(i.tcp_free_acked_segments)
    i.tcp_free_listen                        0x0800dca4   Section        0  tcp.o(i.tcp_free_listen)
    tcp_free_listen                          0x0800dca5   Thumb Code    40  tcp.o(i.tcp_free_listen)
    i.tcp_free_ooseq                         0x0800dd40   Section        0  tcp.o(i.tcp_free_ooseq)
    i.tcp_get_next_optbyte                   0x0800dd54   Section        0  tcp_in.o(i.tcp_get_next_optbyte)
    tcp_get_next_optbyte                     0x0800dd55   Thumb Code    54  tcp_in.o(i.tcp_get_next_optbyte)
    i.tcp_handle_closepend                   0x0800dd9c   Section        0  tcp.o(i.tcp_handle_closepend)
    tcp_handle_closepend                     0x0800dd9d   Thumb Code    48  tcp.o(i.tcp_handle_closepend)
    i.tcp_init                               0x0800ddd0   Section        0  tcp.o(i.tcp_init)
    i.tcp_input                              0x0800dde8   Section        0  tcp_in.o(i.tcp_input)
    i.tcp_input_delayed_close                0x0800e600   Section        0  tcp_in.o(i.tcp_input_delayed_close)
    tcp_input_delayed_close                  0x0800e601   Thumb Code    92  tcp_in.o(i.tcp_input_delayed_close)
    i.tcp_keepalive                          0x0800e6e8   Section        0  tcp_out.o(i.tcp_keepalive)
    i.tcp_kill_prio                          0x0800e7c4   Section        0  tcp.o(i.tcp_kill_prio)
    tcp_kill_prio                            0x0800e7c5   Thumb Code    96  tcp.o(i.tcp_kill_prio)
    i.tcp_kill_state                         0x0800e82c   Section        0  tcp.o(i.tcp_kill_state)
    tcp_kill_state                           0x0800e82d   Thumb Code    94  tcp.o(i.tcp_kill_state)
    i.tcp_kill_timewait                      0x0800e8fc   Section        0  tcp.o(i.tcp_kill_timewait)
    tcp_kill_timewait                        0x0800e8fd   Thumb Code    50  tcp.o(i.tcp_kill_timewait)
    i.tcp_listen_closed                      0x0800e938   Section        0  tcp.o(i.tcp_listen_closed)
    tcp_listen_closed                        0x0800e939   Thumb Code    82  tcp.o(i.tcp_listen_closed)
    i.tcp_listen_input                       0x0800ea0c   Section        0  tcp_in.o(i.tcp_listen_input)
    tcp_listen_input                         0x0800ea0d   Thumb Code   342  tcp_in.o(i.tcp_listen_input)
    i.tcp_listen_with_backlog                0x0800ec00   Section        0  tcp.o(i.tcp_listen_with_backlog)
    i.tcp_listen_with_backlog_and_err        0x0800ec14   Section        0  tcp.o(i.tcp_listen_with_backlog_and_err)
    i.tcp_netif_ip_addr_changed              0x0800edd8   Section        0  tcp.o(i.tcp_netif_ip_addr_changed)
    i.tcp_netif_ip_addr_changed_pcblist      0x0800ee24   Section        0  tcp.o(i.tcp_netif_ip_addr_changed_pcblist)
    tcp_netif_ip_addr_changed_pcblist        0x0800ee25   Thumb Code    68  tcp.o(i.tcp_netif_ip_addr_changed_pcblist)
    i.tcp_new                                0x0800eef4   Section        0  tcp.o(i.tcp_new)
    i.tcp_new_port                           0x0800ef00   Section        0  tcp.o(i.tcp_new_port)
    tcp_new_port                             0x0800ef01   Thumb Code    96  tcp.o(i.tcp_new_port)
    i.tcp_next_iss                           0x0800ef68   Section        0  tcp.o(i.tcp_next_iss)
    i.tcp_oos_insert_segment                 0x0800f018   Section        0  tcp_in.o(i.tcp_oos_insert_segment)
    tcp_oos_insert_segment                   0x0800f019   Thumb Code   164  tcp_in.o(i.tcp_oos_insert_segment)
    i.tcp_output                             0x0800f144   Section        0  tcp_out.o(i.tcp_output)
    i.tcp_output_alloc_header                0x0800f4a8   Section        0  tcp_out.o(i.tcp_output_alloc_header)
    tcp_output_alloc_header                  0x0800f4a9   Thumb Code    86  tcp_out.o(i.tcp_output_alloc_header)
    i.tcp_output_alloc_header_common         0x0800f584   Section        0  tcp_out.o(i.tcp_output_alloc_header_common)
    tcp_output_alloc_header_common           0x0800f585   Thumb Code   152  tcp_out.o(i.tcp_output_alloc_header_common)
    i.tcp_output_control_segment             0x0800f6a8   Section        0  tcp_out.o(i.tcp_output_control_segment)
    tcp_output_control_segment               0x0800f6a9   Thumb Code   114  tcp_out.o(i.tcp_output_control_segment)
    i.tcp_output_fill_options                0x0800f7a4   Section        0  tcp_out.o(i.tcp_output_fill_options)
    tcp_output_fill_options                  0x0800f7a5   Thumb Code   140  tcp_out.o(i.tcp_output_fill_options)
    i.tcp_output_segment                     0x0800f8c8   Section        0  tcp_out.o(i.tcp_output_segment)
    tcp_output_segment                       0x0800f8c9   Thumb Code   372  tcp_out.o(i.tcp_output_segment)
    i.tcp_output_segment_busy                0x0800fb14   Section        0  tcp_out.o(i.tcp_output_segment_busy)
    tcp_output_segment_busy                  0x0800fb15   Thumb Code    46  tcp_out.o(i.tcp_output_segment_busy)
    i.tcp_parseopt                           0x0800fbc8   Section        0  tcp_in.o(i.tcp_parseopt)
    tcp_parseopt                             0x0800fbc9   Thumb Code   176  tcp_in.o(i.tcp_parseopt)
    i.tcp_pbuf_prealloc                      0x0800fcf8   Section        0  tcp_out.o(i.tcp_pbuf_prealloc)
    tcp_pbuf_prealloc                        0x0800fcf9   Thumb Code   194  tcp_out.o(i.tcp_pbuf_prealloc)
    i.tcp_pcb_purge                          0x0800fe70   Section        0  tcp.o(i.tcp_pcb_purge)
    i.tcp_pcb_remove                         0x0800ff4c   Section        0  tcp.o(i.tcp_pcb_remove)
    i.tcp_poll                               0x08010124   Section        0  tcp.o(i.tcp_poll)
    i.tcp_process                            0x08010200   Section        0  tcp_in.o(i.tcp_process)
    tcp_process                              0x08010201   Thumb Code  1818  tcp_in.o(i.tcp_process)
    i.tcp_process_refused_data               0x08010944   Section        0  tcp.o(i.tcp_process_refused_data)
    i.tcp_receive                            0x08010a7c   Section        0  tcp_in.o(i.tcp_receive)
    tcp_receive                              0x08010a7d   Thumb Code  3136  tcp_in.o(i.tcp_receive)
    i.tcp_recv                               0x080116f8   Section        0  tcp.o(i.tcp_recv)
    i.tcp_recv_null                          0x080117a4   Section        0  tcp.o(i.tcp_recv_null)
    i.tcp_recved                             0x08011868   Section        0  tcp.o(i.tcp_recved)
    i.tcp_remove_listener                    0x08011984   Section        0  tcp.o(i.tcp_remove_listener)
    tcp_remove_listener                      0x08011985   Thumb Code    52  tcp.o(i.tcp_remove_listener)
    i.tcp_rexmit                             0x08011a38   Section        0  tcp_out.o(i.tcp_rexmit)
    i.tcp_rexmit_fast                        0x08011b3c   Section        0  tcp_out.o(i.tcp_rexmit_fast)
    i.tcp_rexmit_rto                         0x08011c48   Section        0  tcp_out.o(i.tcp_rexmit_rto)
    i.tcp_rexmit_rto_commit                  0x08011cf0   Section        0  tcp_out.o(i.tcp_rexmit_rto_commit)
    i.tcp_rexmit_rto_prepare                 0x08011da8   Section        0  tcp_out.o(i.tcp_rexmit_rto_prepare)
    i.tcp_route                              0x08011ec0   Section        0  tcp_out.o(i.tcp_route)
    tcp_route                                0x08011ec1   Thumb Code    30  tcp_out.o(i.tcp_route)
    i.tcp_rst                                0x08011ee0   Section        0  tcp_out.o(i.tcp_rst)
    i.tcp_seg_copy                           0x08012008   Section        0  tcp.o(i.tcp_seg_copy)
    i.tcp_seg_free                           0x080120bc   Section        0  tcp.o(i.tcp_seg_free)
    i.tcp_segs_free                          0x080120d6   Section        0  tcp.o(i.tcp_segs_free)
    i.tcp_send_empty_ack                     0x080120f0   Section        0  tcp_out.o(i.tcp_send_empty_ack)
    i.tcp_send_fin                           0x08012230   Section        0  tcp_out.o(i.tcp_send_fin)
    i.tcp_sent                               0x08012310   Section        0  tcp.o(i.tcp_sent)
    i.tcp_server_accept_cbk                  0x080123bc   Section        0  tcp_server.o(i.tcp_server_accept_cbk)
    tcp_server_accept_cbk                    0x080123bd   Thumb Code    60  tcp_server.o(i.tcp_server_accept_cbk)
    i.tcp_server_err_cbk                     0x0801241c   Section        0  tcp_server.o(i.tcp_server_err_cbk)
    tcp_server_err_cbk                       0x0801241d   Thumb Code    48  tcp_server.o(i.tcp_server_err_cbk)
    i.tcp_server_poll_cbk                    0x08012468   Section        0  tcp_server.o(i.tcp_server_poll_cbk)
    tcp_server_poll_cbk                      0x08012469   Thumb Code    44  tcp_server.o(i.tcp_server_poll_cbk)
    i.tcp_server_recv_cbk                    0x080124a4   Section        0  tcp_server.o(i.tcp_server_recv_cbk)
    tcp_server_recv_cbk                      0x080124a5   Thumb Code   172  tcp_server.o(i.tcp_server_recv_cbk)
    i.tcp_server_sent_cbk                    0x08012580   Section        0  tcp_server.o(i.tcp_server_sent_cbk)
    tcp_server_sent_cbk                      0x08012581   Thumb Code    32  tcp_server.o(i.tcp_server_sent_cbk)
    i.tcp_slowtmr                            0x080125bc   Section        0  tcp.o(i.tcp_slowtmr)
    i.tcp_split_unsent_seg                   0x08012cec   Section        0  tcp_out.o(i.tcp_split_unsent_seg)
    i.tcp_timer_needed                       0x08012fbc   Section        0  timeouts.o(i.tcp_timer_needed)
    i.tcp_timewait_input                     0x08012ff4   Section        0  tcp_in.o(i.tcp_timewait_input)
    tcp_timewait_input                       0x08012ff5   Thumb Code   170  tcp_in.o(i.tcp_timewait_input)
    i.tcp_tmr                                0x08013138   Section        0  tcp.o(i.tcp_tmr)
    i.tcp_trigger_input_pcb_close            0x0801315c   Section        0  tcp_in.o(i.tcp_trigger_input_pcb_close)
    i.tcp_update_rcv_ann_wnd                 0x08013170   Section        0  tcp.o(i.tcp_update_rcv_ann_wnd)
    i.tcp_write                              0x08013288   Section        0  tcp_out.o(i.tcp_write)
    i.tcp_write_checks                       0x08013aac   Section        0  tcp_out.o(i.tcp_write_checks)
    tcp_write_checks                         0x08013aad   Thumb Code   198  tcp_out.o(i.tcp_write_checks)
    i.tcp_zero_window_probe                  0x08013c60   Section        0  tcp_out.o(i.tcp_zero_window_probe)
    i.tcpip_tcp_timer                        0x08013dd0   Section        0  timeouts.o(i.tcpip_tcp_timer)
    tcpip_tcp_timer                          0x08013dd1   Thumb Code    40  timeouts.o(i.tcpip_tcp_timer)
    i.udp_bind                               0x08013e08   Section        0  udp.o(i.udp_bind)
    i.udp_connect                            0x08013f2c   Section        0  udp.o(i.udp_connect)
    i.udp_disconnect                         0x08014060   Section        0  udp.o(i.udp_disconnect)
    i.udp_init                               0x0801410c   Section        0  udp.o(i.udp_init)
    i.udp_input                              0x08014124   Section        0  udp.o(i.udp_input)
    i.udp_input_local_match                  0x08014370   Section        0  udp.o(i.udp_input_local_match)
    udp_input_local_match                    0x08014371   Thumb Code   144  udp.o(i.udp_input_local_match)
    i.udp_netif_ip_addr_changed              0x080144a8   Section        0  udp.o(i.udp_netif_ip_addr_changed)
    i.udp_new                                0x080144d8   Section        0  udp.o(i.udp_new)
    i.udp_new_port                           0x080144f4   Section        0  udp.o(i.udp_new_port)
    udp_new_port                             0x080144f5   Thumb Code    80  udp.o(i.udp_new_port)
    i.udp_recv                               0x0801454c   Section        0  udp.o(i.udp_recv)
    i.udp_remove                             0x080145e8   Section        0  udp.o(i.udp_remove)
    i.udp_send                               0x080146bc   Section        0  udp.o(i.udp_send)
    i.udp_sendto                             0x08014798   Section        0  udp.o(i.udp_sendto)
    i.udp_sendto_if                          0x080148dc   Section        0  udp.o(i.udp_sendto_if)
    i.udp_sendto_if_src                      0x08014a74   Section        0  udp.o(i.udp_sendto_if_src)
    .constdata                               0x08014d28   Section        4  main.o(.constdata)
    .constdata                               0x08014d2c   Section       12  ethernetif.o(.constdata)
    .constdata                               0x08014d38   Section       24  stm32h7xx_hal_uart.o(.constdata)
    .constdata                               0x08014d50   Section       16  stm32h7xx_hal_uart_ex.o(.constdata)
    numerator                                0x08014d50   Data           8  stm32h7xx_hal_uart_ex.o(.constdata)
    denominator                              0x08014d58   Data           8  stm32h7xx_hal_uart_ex.o(.constdata)
    .constdata                               0x08014d60   Section       16  system_stm32h7xx.o(.constdata)
    .constdata                               0x08014d70   Section       12  ethernet.o(.constdata)
    .constdata                               0x08014d7c   Section      144  memp.o(.constdata)
    .constdata                               0x08014e0c   Section       80  tcp.o(.constdata)
    tcp_state_str                            0x08014e0c   Data          44  tcp.o(.constdata)
    tcp_backoff                              0x08014e38   Data          13  tcp.o(.constdata)
    tcp_persist_backoff                      0x08014e45   Data           7  tcp.o(.constdata)
    .constdata                               0x08014e5c   Section       28  timeouts.o(.constdata)
    .constdata                               0x08014e78   Section        8  ip4_addr.o(.constdata)
    .conststring                             0x08014e80   Section       65  init.o(.conststring)
    .conststring                             0x08014ec4   Section      117  tcp.o(.conststring)
    .conststring                             0x08014f3c   Section       85  tcp_out.o(.conststring)
    .conststring                             0x08014f94   Section       65  etharp.o(.conststring)
    .data                                    0x24000000   Section        4  delay.o(.data)
    fac_us                                   0x24000000   Data           4  delay.o(.data)
    .data                                    0x24000004   Section       28  ethernetif.o(.data)
    memp_tab_RX_POOL                         0x24000004   Data           4  ethernetif.o(.data)
    RxAllocStatus                            0x24000008   Data           1  ethernetif.o(.data)
    .data                                    0x24000020   Section       28  lwip.o(.data)
    .data                                    0x24000040   Section     3252  lwip_udp.o(.data)
    .data                                    0x24000d00   Section     3260  tcp_client.o(.data)
    .data                                    0x240019c0   Section     3252  tcp_server.o(.data)
    .data                                    0x24002674   Section        9  stm32h7xx_hal.o(.data)
    .data                                    0x24002680   Section        8  system_stm32h7xx.o(.data)
    .data                                    0x24002688   Section       12  mem.o(.data)
    ram                                      0x24002688   Data           4  mem.o(.data)
    ram_end                                  0x2400268c   Data           4  mem.o(.data)
    lfree                                    0x24002690   Data           4  mem.o(.data)
    .data                                    0x24002694   Section       36  memp.o(.data)
    memp_tab_UDP_PCB                         0x24002694   Data           4  memp.o(.data)
    memp_tab_TCP_PCB                         0x24002698   Data           4  memp.o(.data)
    memp_tab_TCP_PCB_LISTEN                  0x2400269c   Data           4  memp.o(.data)
    memp_tab_TCP_SEG                         0x240026a0   Data           4  memp.o(.data)
    memp_tab_REASSDATA                       0x240026a4   Data           4  memp.o(.data)
    memp_tab_FRAG_PBUF                       0x240026a8   Data           4  memp.o(.data)
    memp_tab_SYS_TIMEOUT                     0x240026ac   Data           4  memp.o(.data)
    memp_tab_PBUF                            0x240026b0   Data           4  memp.o(.data)
    memp_tab_PBUF_POOL                       0x240026b4   Data           4  memp.o(.data)
    .data                                    0x240026b8   Section        9  netif.o(.data)
    netif_num                                0x240026c0   Data           1  netif.o(.data)
    .data                                    0x240026c1   Section        1  pbuf.o(.data)
    .data                                    0x240026c4   Section       32  tcp.o(.data)
    tcp_port                                 0x240026c4   Data           2  tcp.o(.data)
    tcp_timer                                0x240026dd   Data           1  tcp.o(.data)
    tcp_timer_ctr                            0x240026de   Data           1  tcp.o(.data)
    iss                                      0x240026e0   Data           4  tcp.o(.data)
    .data                                    0x240026e4   Section       40  tcp_in.o(.data)
    tcphdr                                   0x240026e4   Data           4  tcp_in.o(.data)
    tcphdr_optlen                            0x240026e8   Data           2  tcp_in.o(.data)
    tcphdr_opt1len                           0x240026ea   Data           2  tcp_in.o(.data)
    tcphdr_opt2                              0x240026ec   Data           4  tcp_in.o(.data)
    tcp_optidx                               0x240026f0   Data           2  tcp_in.o(.data)
    seqno                                    0x240026f4   Data           4  tcp_in.o(.data)
    ackno                                    0x240026f8   Data           4  tcp_in.o(.data)
    recv_acked                               0x240026fc   Data           2  tcp_in.o(.data)
    tcplen                                   0x240026fe   Data           2  tcp_in.o(.data)
    flags                                    0x24002700   Data           1  tcp_in.o(.data)
    recv_flags                               0x24002701   Data           1  tcp_in.o(.data)
    recv_data                                0x24002704   Data           4  tcp_in.o(.data)
    .data                                    0x2400270c   Section       12  timeouts.o(.data)
    next_timeout                             0x2400270c   Data           4  timeouts.o(.data)
    current_timeout_due_time                 0x24002710   Data           4  timeouts.o(.data)
    tcpip_tcp_timer_active                   0x24002714   Data           4  timeouts.o(.data)
    .data                                    0x24002718   Section        8  udp.o(.data)
    udp_port                                 0x24002718   Data           2  udp.o(.data)
    .data                                    0x24002720   Section        1  etharp.o(.data)
    etharp_cached_entry                      0x24002720   Data           1  etharp.o(.data)
    .data                                    0x24002722   Section        2  ip4.o(.data)
    ip_id                                    0x24002722   Data           2  ip4.o(.data)
    .data                                    0x24002724   Section        6  ip4_frag.o(.data)
    reassdatagrams                           0x24002724   Data           4  ip4_frag.o(.data)
    ip_reass_pbufcount                       0x24002728   Data           2  ip4_frag.o(.data)
    .data                                    0x2400272c   Section        4  rand.o(.data)
    _rand_state                              0x2400272c   Data           4  rand.o(.data)
    .data                                    0x24002730   Section        4  stdout.o(.data)
    .bss                                     0x24002734   Section     1504  main.o(.bss)
    .bss                                     0x24002d14   Section      148  usart.o(.bss)
    .bss                                     0x24002da8   Section    19092  ethernetif.o(.bss)
    .bss                                     0x2400783c   Section       52  lwip.o(.bss)
    .bss                                     0x24007870   Section       24  ip.o(.bss)
    .bss                                     0x24007888   Section    26751  memp.o(.bss)
    .bss                                     0x2400e108   Section       16  tcp_in.o(.bss)
    inseg                                    0x2400e108   Data          16  tcp_in.o(.bss)
    .bss                                     0x2400e118   Section      240  etharp.o(.bss)
    arp_table                                0x2400e118   Data         240  etharp.o(.bss)
    STACK                                    0x2400e208   Section     1024  startup_stm32h743xx.o(STACK)
    .ARM.__AT_0x30004000                     0x30004000   Section       96  ethernetif.o(.ARM.__AT_0x30004000)
    .ARM.__AT_0x30004060                     0x30004060   Section       96  ethernetif.o(.ARM.__AT_0x30004060)

    Global Symbols

    Symbol Name                              Value     Ov Type        Size  Object(Section)

    BuildAttributes$$THM_ISAv4$E$P$D$K$B$S$7EM$VFPv5_D16$PE$PLD8$A:L22UL41UL21$X:L11$S22US41US21$IEEE1$IW$USESV6$~STKCKD$USESV7$~SHL$OSPACE$ROPI$EBA8$MICROLIB$REQ8$PRES8$EABIv2 0x00000000   Number         0  anon$$obj.o ABSOLUTE
    __ARM_use_no_argv                        0x00000000   Number         0  main.o ABSOLUTE
    _printf_a                                0x00000000   Number         0  stubs.o ABSOLUTE
    _printf_c                                0x00000000   Number         0  stubs.o ABSOLUTE
    _printf_charcount                        0x00000000   Number         0  stubs.o ABSOLUTE
    _printf_d                                0x00000000   Number         0  stubs.o ABSOLUTE
    _printf_e                                0x00000000   Number         0  stubs.o ABSOLUTE
    _printf_f                                0x00000000   Number         0  stubs.o ABSOLUTE
    _printf_flags                            0x00000000   Number         0  stubs.o ABSOLUTE
    _printf_fp_dec                           0x00000000   Number         0  stubs.o ABSOLUTE
    _printf_fp_hex                           0x00000000   Number         0  stubs.o ABSOLUTE
    _printf_g                                0x00000000   Number         0  stubs.o ABSOLUTE
    _printf_i                                0x00000000   Number         0  stubs.o ABSOLUTE
    _printf_int_dec                          0x00000000   Number         0  stubs.o ABSOLUTE
    _printf_l                                0x00000000   Number         0  stubs.o ABSOLUTE
    _printf_lc                               0x00000000   Number         0  stubs.o ABSOLUTE
    _printf_ll                               0x00000000   Number         0  stubs.o ABSOLUTE
    _printf_lld                              0x00000000   Number         0  stubs.o ABSOLUTE
    _printf_lli                              0x00000000   Number         0  stubs.o ABSOLUTE
    _printf_llo                              0x00000000   Number         0  stubs.o ABSOLUTE
    _printf_llu                              0x00000000   Number         0  stubs.o ABSOLUTE
    _printf_llx                              0x00000000   Number         0  stubs.o ABSOLUTE
    _printf_longlong_dec                     0x00000000   Number         0  stubs.o ABSOLUTE
    _printf_longlong_hex                     0x00000000   Number         0  stubs.o ABSOLUTE
    _printf_longlong_oct                     0x00000000   Number         0  stubs.o ABSOLUTE
    _printf_ls                               0x00000000   Number         0  stubs.o ABSOLUTE
    _printf_mbtowc                           0x00000000   Number         0  stubs.o ABSOLUTE
    _printf_n                                0x00000000   Number         0  stubs.o ABSOLUTE
    _printf_o                                0x00000000   Number         0  stubs.o ABSOLUTE
    _printf_p                                0x00000000   Number         0  stubs.o ABSOLUTE
    _printf_percent                          0x00000000   Number         0  stubs.o ABSOLUTE
    _printf_pre_padding                      0x00000000   Number         0  stubs.o ABSOLUTE
    _printf_return_value                     0x00000000   Number         0  stubs.o ABSOLUTE
    _printf_s                                0x00000000   Number         0  stubs.o ABSOLUTE
    _printf_sizespec                         0x00000000   Number         0  stubs.o ABSOLUTE
    _printf_str                              0x00000000   Number         0  stubs.o ABSOLUTE
    _printf_truncate_signed                  0x00000000   Number         0  stubs.o ABSOLUTE
    _printf_truncate_unsigned                0x00000000   Number         0  stubs.o ABSOLUTE
    _printf_u                                0x00000000   Number         0  stubs.o ABSOLUTE
    _printf_wc                               0x00000000   Number         0  stubs.o ABSOLUTE
    _printf_wctomb                           0x00000000   Number         0  stubs.o ABSOLUTE
    _printf_widthprec                        0x00000000   Number         0  stubs.o ABSOLUTE
    _printf_x                                0x00000000   Number         0  stubs.o ABSOLUTE
    __arm_fini_                               - Undefined Weak Reference
    __cpp_initialize__aeabi_                  - Undefined Weak Reference
    __cxa_finalize                            - Undefined Weak Reference
    _clock_init                               - Undefined Weak Reference
    _microlib_exit                            - Undefined Weak Reference
    __Vectors_Size                           0x00000298   Number         0  startup_stm32h743xx.o ABSOLUTE
    __Vectors                                0x08000000   Data           4  startup_stm32h743xx.o(RESET)
    __Vectors_End                            0x08000298   Data           0  startup_stm32h743xx.o(RESET)
    __main                                   0x08000299   Thumb Code     0  entry.o(.ARM.Collect$$$$00000000)
    _main_stk                                0x08000299   Thumb Code     0  entry2.o(.ARM.Collect$$$$00000001)
    _main_scatterload                        0x0800029d   Thumb Code     0  entry5.o(.ARM.Collect$$$$00000004)
    __main_after_scatterload                 0x080002a1   Thumb Code     0  entry5.o(.ARM.Collect$$$$00000004)
    _main_clock                              0x080002a1   Thumb Code     0  entry7b.o(.ARM.Collect$$$$00000008)
    _main_cpp_init                           0x080002a1   Thumb Code     0  entry8b.o(.ARM.Collect$$$$0000000A)
    _main_init                               0x080002a1   Thumb Code     0  entry9a.o(.ARM.Collect$$$$0000000B)
    __rt_lib_shutdown_fini                   0x080002a9   Thumb Code     0  entry12b.o(.ARM.Collect$$$$0000000E)
    __rt_final_cpp                           0x080002ad   Thumb Code     0  entry10a.o(.ARM.Collect$$$$0000000F)
    __rt_final_exit                          0x080002ad   Thumb Code     0  entry11a.o(.ARM.Collect$$$$00000011)
    Reset_Handler                            0x080002b1   Thumb Code     8  startup_stm32h743xx.o(.text)
    ADC3_IRQHandler                          0x080002cb   Thumb Code     0  startup_stm32h743xx.o(.text)
    ADC_IRQHandler                           0x080002cb   Thumb Code     0  startup_stm32h743xx.o(.text)
    BDMA_Channel0_IRQHandler                 0x080002cb   Thumb Code     0  startup_stm32h743xx.o(.text)
    BDMA_Channel1_IRQHandler                 0x080002cb   Thumb Code     0  startup_stm32h743xx.o(.text)
    BDMA_Channel2_IRQHandler                 0x080002cb   Thumb Code     0  startup_stm32h743xx.o(.text)
    BDMA_Channel3_IRQHandler                 0x080002cb   Thumb Code     0  startup_stm32h743xx.o(.text)
    BDMA_Channel4_IRQHandler                 0x080002cb   Thumb Code     0  startup_stm32h743xx.o(.text)
    BDMA_Channel5_IRQHandler                 0x080002cb   Thumb Code     0  startup_stm32h743xx.o(.text)
    BDMA_Channel6_IRQHandler                 0x080002cb   Thumb Code     0  startup_stm32h743xx.o(.text)
    BDMA_Channel7_IRQHandler                 0x080002cb   Thumb Code     0  startup_stm32h743xx.o(.text)
    CEC_IRQHandler                           0x080002cb   Thumb Code     0  startup_stm32h743xx.o(.text)
    COMP1_IRQHandler                         0x080002cb   Thumb Code     0  startup_stm32h743xx.o(.text)
    CRS_IRQHandler                           0x080002cb   Thumb Code     0  startup_stm32h743xx.o(.text)
    DCMI_IRQHandler                          0x080002cb   Thumb Code     0  startup_stm32h743xx.o(.text)
    DFSDM1_FLT0_IRQHandler                   0x080002cb   Thumb Code     0  startup_stm32h743xx.o(.text)
    DFSDM1_FLT1_IRQHandler                   0x080002cb   Thumb Code     0  startup_stm32h743xx.o(.text)
    DFSDM1_FLT2_IRQHandler                   0x080002cb   Thumb Code     0  startup_stm32h743xx.o(.text)
    DFSDM1_FLT3_IRQHandler                   0x080002cb   Thumb Code     0  startup_stm32h743xx.o(.text)
    DMA1_Stream0_IRQHandler                  0x080002cb   Thumb Code     0  startup_stm32h743xx.o(.text)
    DMA1_Stream1_IRQHandler                  0x080002cb   Thumb Code     0  startup_stm32h743xx.o(.text)
    DMA1_Stream2_IRQHandler                  0x080002cb   Thumb Code     0  startup_stm32h743xx.o(.text)
    DMA1_Stream3_IRQHandler                  0x080002cb   Thumb Code     0  startup_stm32h743xx.o(.text)
    DMA1_Stream4_IRQHandler                  0x080002cb   Thumb Code     0  startup_stm32h743xx.o(.text)
    DMA1_Stream5_IRQHandler                  0x080002cb   Thumb Code     0  startup_stm32h743xx.o(.text)
    DMA1_Stream6_IRQHandler                  0x080002cb   Thumb Code     0  startup_stm32h743xx.o(.text)
    DMA1_Stream7_IRQHandler                  0x080002cb   Thumb Code     0  startup_stm32h743xx.o(.text)
    DMA2D_IRQHandler                         0x080002cb   Thumb Code     0  startup_stm32h743xx.o(.text)
    DMA2_Stream0_IRQHandler                  0x080002cb   Thumb Code     0  startup_stm32h743xx.o(.text)
    DMA2_Stream1_IRQHandler                  0x080002cb   Thumb Code     0  startup_stm32h743xx.o(.text)
    DMA2_Stream2_IRQHandler                  0x080002cb   Thumb Code     0  startup_stm32h743xx.o(.text)
    DMA2_Stream3_IRQHandler                  0x080002cb   Thumb Code     0  startup_stm32h743xx.o(.text)
    DMA2_Stream4_IRQHandler                  0x080002cb   Thumb Code     0  startup_stm32h743xx.o(.text)
    DMA2_Stream5_IRQHandler                  0x080002cb   Thumb Code     0  startup_stm32h743xx.o(.text)
    DMA2_Stream6_IRQHandler                  0x080002cb   Thumb Code     0  startup_stm32h743xx.o(.text)
    DMA2_Stream7_IRQHandler                  0x080002cb   Thumb Code     0  startup_stm32h743xx.o(.text)
    DMAMUX1_OVR_IRQHandler                   0x080002cb   Thumb Code     0  startup_stm32h743xx.o(.text)
    DMAMUX2_OVR_IRQHandler                   0x080002cb   Thumb Code     0  startup_stm32h743xx.o(.text)
    ECC_IRQHandler                           0x080002cb   Thumb Code     0  startup_stm32h743xx.o(.text)
    EXTI0_IRQHandler                         0x080002cb   Thumb Code     0  startup_stm32h743xx.o(.text)
    EXTI15_10_IRQHandler                     0x080002cb   Thumb Code     0  startup_stm32h743xx.o(.text)
    EXTI1_IRQHandler                         0x080002cb   Thumb Code     0  startup_stm32h743xx.o(.text)
    EXTI2_IRQHandler                         0x080002cb   Thumb Code     0  startup_stm32h743xx.o(.text)
    EXTI3_IRQHandler                         0x080002cb   Thumb Code     0  startup_stm32h743xx.o(.text)
    EXTI4_IRQHandler                         0x080002cb   Thumb Code     0  startup_stm32h743xx.o(.text)
    EXTI9_5_IRQHandler                       0x080002cb   Thumb Code     0  startup_stm32h743xx.o(.text)
    FDCAN1_IT0_IRQHandler                    0x080002cb   Thumb Code     0  startup_stm32h743xx.o(.text)
    FDCAN1_IT1_IRQHandler                    0x080002cb   Thumb Code     0  startup_stm32h743xx.o(.text)
    FDCAN2_IT0_IRQHandler                    0x080002cb   Thumb Code     0  startup_stm32h743xx.o(.text)
    FDCAN2_IT1_IRQHandler                    0x080002cb   Thumb Code     0  startup_stm32h743xx.o(.text)
    FDCAN_CAL_IRQHandler                     0x080002cb   Thumb Code     0  startup_stm32h743xx.o(.text)
    FLASH_IRQHandler                         0x080002cb   Thumb Code     0  startup_stm32h743xx.o(.text)
    FMC_IRQHandler                           0x080002cb   Thumb Code     0  startup_stm32h743xx.o(.text)
    FPU_IRQHandler                           0x080002cb   Thumb Code     0  startup_stm32h743xx.o(.text)
    HRTIM1_FLT_IRQHandler                    0x080002cb   Thumb Code     0  startup_stm32h743xx.o(.text)
    HRTIM1_Master_IRQHandler                 0x080002cb   Thumb Code     0  startup_stm32h743xx.o(.text)
    HRTIM1_TIMA_IRQHandler                   0x080002cb   Thumb Code     0  startup_stm32h743xx.o(.text)
    HRTIM1_TIMB_IRQHandler                   0x080002cb   Thumb Code     0  startup_stm32h743xx.o(.text)
    HRTIM1_TIMC_IRQHandler                   0x080002cb   Thumb Code     0  startup_stm32h743xx.o(.text)
    HRTIM1_TIMD_IRQHandler                   0x080002cb   Thumb Code     0  startup_stm32h743xx.o(.text)
    HRTIM1_TIME_IRQHandler                   0x080002cb   Thumb Code     0  startup_stm32h743xx.o(.text)
    HSEM1_IRQHandler                         0x080002cb   Thumb Code     0  startup_stm32h743xx.o(.text)
    I2C1_ER_IRQHandler                       0x080002cb   Thumb Code     0  startup_stm32h743xx.o(.text)
    I2C1_EV_IRQHandler                       0x080002cb   Thumb Code     0  startup_stm32h743xx.o(.text)
    I2C2_ER_IRQHandler                       0x080002cb   Thumb Code     0  startup_stm32h743xx.o(.text)
    I2C2_EV_IRQHandler                       0x080002cb   Thumb Code     0  startup_stm32h743xx.o(.text)
    I2C3_ER_IRQHandler                       0x080002cb   Thumb Code     0  startup_stm32h743xx.o(.text)
    I2C3_EV_IRQHandler                       0x080002cb   Thumb Code     0  startup_stm32h743xx.o(.text)
    I2C4_ER_IRQHandler                       0x080002cb   Thumb Code     0  startup_stm32h743xx.o(.text)
    I2C4_EV_IRQHandler                       0x080002cb   Thumb Code     0  startup_stm32h743xx.o(.text)
    JPEG_IRQHandler                          0x080002cb   Thumb Code     0  startup_stm32h743xx.o(.text)
    LPTIM1_IRQHandler                        0x080002cb   Thumb Code     0  startup_stm32h743xx.o(.text)
    LPTIM2_IRQHandler                        0x080002cb   Thumb Code     0  startup_stm32h743xx.o(.text)
    LPTIM3_IRQHandler                        0x080002cb   Thumb Code     0  startup_stm32h743xx.o(.text)
    LPTIM4_IRQHandler                        0x080002cb   Thumb Code     0  startup_stm32h743xx.o(.text)
    LPTIM5_IRQHandler                        0x080002cb   Thumb Code     0  startup_stm32h743xx.o(.text)
    LPUART1_IRQHandler                       0x080002cb   Thumb Code     0  startup_stm32h743xx.o(.text)
    LTDC_ER_IRQHandler                       0x080002cb   Thumb Code     0  startup_stm32h743xx.o(.text)
    LTDC_IRQHandler                          0x080002cb   Thumb Code     0  startup_stm32h743xx.o(.text)
    MDIOS_IRQHandler                         0x080002cb   Thumb Code     0  startup_stm32h743xx.o(.text)
    MDIOS_WKUP_IRQHandler                    0x080002cb   Thumb Code     0  startup_stm32h743xx.o(.text)
    MDMA_IRQHandler                          0x080002cb   Thumb Code     0  startup_stm32h743xx.o(.text)
    OTG_FS_EP1_IN_IRQHandler                 0x080002cb   Thumb Code     0  startup_stm32h743xx.o(.text)
    OTG_FS_EP1_OUT_IRQHandler                0x080002cb   Thumb Code     0  startup_stm32h743xx.o(.text)
    OTG_FS_IRQHandler                        0x080002cb   Thumb Code     0  startup_stm32h743xx.o(.text)
    OTG_FS_WKUP_IRQHandler                   0x080002cb   Thumb Code     0  startup_stm32h743xx.o(.text)
    OTG_HS_EP1_IN_IRQHandler                 0x080002cb   Thumb Code     0  startup_stm32h743xx.o(.text)
    OTG_HS_EP1_OUT_IRQHandler                0x080002cb   Thumb Code     0  startup_stm32h743xx.o(.text)
    OTG_HS_IRQHandler                        0x080002cb   Thumb Code     0  startup_stm32h743xx.o(.text)
    OTG_HS_WKUP_IRQHandler                   0x080002cb   Thumb Code     0  startup_stm32h743xx.o(.text)
    PVD_AVD_IRQHandler                       0x080002cb   Thumb Code     0  startup_stm32h743xx.o(.text)
    QUADSPI_IRQHandler                       0x080002cb   Thumb Code     0  startup_stm32h743xx.o(.text)
    RCC_IRQHandler                           0x080002cb   Thumb Code     0  startup_stm32h743xx.o(.text)
    RNG_IRQHandler                           0x080002cb   Thumb Code     0  startup_stm32h743xx.o(.text)
    RTC_Alarm_IRQHandler                     0x080002cb   Thumb Code     0  startup_stm32h743xx.o(.text)
    RTC_WKUP_IRQHandler                      0x080002cb   Thumb Code     0  startup_stm32h743xx.o(.text)
    SAI1_IRQHandler                          0x080002cb   Thumb Code     0  startup_stm32h743xx.o(.text)
    SAI2_IRQHandler                          0x080002cb   Thumb Code     0  startup_stm32h743xx.o(.text)
    SAI3_IRQHandler                          0x080002cb   Thumb Code     0  startup_stm32h743xx.o(.text)
    SAI4_IRQHandler                          0x080002cb   Thumb Code     0  startup_stm32h743xx.o(.text)
    SDMMC1_IRQHandler                        0x080002cb   Thumb Code     0  startup_stm32h743xx.o(.text)
    SDMMC2_IRQHandler                        0x080002cb   Thumb Code     0  startup_stm32h743xx.o(.text)
    SPDIF_RX_IRQHandler                      0x080002cb   Thumb Code     0  startup_stm32h743xx.o(.text)
    SPI1_IRQHandler                          0x080002cb   Thumb Code     0  startup_stm32h743xx.o(.text)
    SPI2_IRQHandler                          0x080002cb   Thumb Code     0  startup_stm32h743xx.o(.text)
    SPI3_IRQHandler                          0x080002cb   Thumb Code     0  startup_stm32h743xx.o(.text)
    SPI4_IRQHandler                          0x080002cb   Thumb Code     0  startup_stm32h743xx.o(.text)
    SPI5_IRQHandler                          0x080002cb   Thumb Code     0  startup_stm32h743xx.o(.text)
    SPI6_IRQHandler                          0x080002cb   Thumb Code     0  startup_stm32h743xx.o(.text)
    SWPMI1_IRQHandler                        0x080002cb   Thumb Code     0  startup_stm32h743xx.o(.text)
    TAMP_STAMP_IRQHandler                    0x080002cb   Thumb Code     0  startup_stm32h743xx.o(.text)
    TIM15_IRQHandler                         0x080002cb   Thumb Code     0  startup_stm32h743xx.o(.text)
    TIM16_IRQHandler                         0x080002cb   Thumb Code     0  startup_stm32h743xx.o(.text)
    TIM17_IRQHandler                         0x080002cb   Thumb Code     0  startup_stm32h743xx.o(.text)
    TIM1_BRK_IRQHandler                      0x080002cb   Thumb Code     0  startup_stm32h743xx.o(.text)
    TIM1_CC_IRQHandler                       0x080002cb   Thumb Code     0  startup_stm32h743xx.o(.text)
    TIM1_TRG_COM_IRQHandler                  0x080002cb   Thumb Code     0  startup_stm32h743xx.o(.text)
    TIM1_UP_IRQHandler                       0x080002cb   Thumb Code     0  startup_stm32h743xx.o(.text)
    TIM2_IRQHandler                          0x080002cb   Thumb Code     0  startup_stm32h743xx.o(.text)
    TIM3_IRQHandler                          0x080002cb   Thumb Code     0  startup_stm32h743xx.o(.text)
    TIM4_IRQHandler                          0x080002cb   Thumb Code     0  startup_stm32h743xx.o(.text)
    TIM5_IRQHandler                          0x080002cb   Thumb Code     0  startup_stm32h743xx.o(.text)
    TIM6_DAC_IRQHandler                      0x080002cb   Thumb Code     0  startup_stm32h743xx.o(.text)
    TIM7_IRQHandler                          0x080002cb   Thumb Code     0  startup_stm32h743xx.o(.text)
    TIM8_BRK_TIM12_IRQHandler                0x080002cb   Thumb Code     0  startup_stm32h743xx.o(.text)
    TIM8_CC_IRQHandler                       0x080002cb   Thumb Code     0  startup_stm32h743xx.o(.text)
    TIM8_TRG_COM_TIM14_IRQHandler            0x080002cb   Thumb Code     0  startup_stm32h743xx.o(.text)
    TIM8_UP_TIM13_IRQHandler                 0x080002cb   Thumb Code     0  startup_stm32h743xx.o(.text)
    UART4_IRQHandler                         0x080002cb   Thumb Code     0  startup_stm32h743xx.o(.text)
    UART5_IRQHandler                         0x080002cb   Thumb Code     0  startup_stm32h743xx.o(.text)
    UART7_IRQHandler                         0x080002cb   Thumb Code     0  startup_stm32h743xx.o(.text)
    UART8_IRQHandler                         0x080002cb   Thumb Code     0  startup_stm32h743xx.o(.text)
    USART2_IRQHandler                        0x080002cb   Thumb Code     0  startup_stm32h743xx.o(.text)
    USART3_IRQHandler                        0x080002cb   Thumb Code     0  startup_stm32h743xx.o(.text)
    USART6_IRQHandler                        0x080002cb   Thumb Code     0  startup_stm32h743xx.o(.text)
    WAKEUP_PIN_IRQHandler                    0x080002cb   Thumb Code     0  startup_stm32h743xx.o(.text)
    WWDG_IRQHandler                          0x080002cb   Thumb Code     0  startup_stm32h743xx.o(.text)
    __aeabi_uldivmod                         0x080002d5   Thumb Code    98  uldiv.o(.text)
    rand                                     0x08000339   Thumb Code    20  rand.o(.text)
    srand                                    0x0800034d   Thumb Code     6  rand.o(.text)
    ___aeabi_memcpy8$move                    0x0800035d   Thumb Code     0  memmovea.o(.text)
    __aeabi_memcpy                           0x0800035d   Thumb Code    64  memmovea.o(.text)
    __aeabi_memcpy4                          0x0800035d   Thumb Code     0  memmovea.o(.text)
    __aeabi_memmove                          0x0800035d   Thumb Code     0  memmovea.o(.text)
    __aeabi_memmove4                         0x0800035d   Thumb Code     0  memmovea.o(.text)
    __aeabi_memmove8                         0x0800035d   Thumb Code     0  memmovea.o(.text)
    __aeabi_memset                           0x0800039d   Thumb Code    14  memseta.o(.text)
    __aeabi_memset4                          0x0800039d   Thumb Code     0  memseta.o(.text)
    __aeabi_memset8                          0x0800039d   Thumb Code     0  memseta.o(.text)
    __aeabi_memclr                           0x080003ab   Thumb Code     4  memseta.o(.text)
    __aeabi_memclr4                          0x080003ab   Thumb Code     0  memseta.o(.text)
    __aeabi_memclr8                          0x080003ab   Thumb Code     0  memseta.o(.text)
    _memset$wrapper                          0x080003af   Thumb Code    18  memseta.o(.text)
    strlen                                   0x080003c1   Thumb Code    14  strlen.o(.text)
    memcmp                                   0x080003cf   Thumb Code    26  memcmp.o(.text)
    __aeabi_llsl                             0x080003e9   Thumb Code    30  llshl.o(.text)
    _ll_shift_l                              0x080003e9   Thumb Code     0  llshl.o(.text)
    __aeabi_llsr                             0x08000407   Thumb Code    32  llushr.o(.text)
    _ll_ushift_r                             0x08000407   Thumb Code     0  llushr.o(.text)
    __scatterload                            0x08000429   Thumb Code    28  init.o(.text)
    __scatterload_rt2                        0x08000429   Thumb Code     0  init.o(.text)
    __decompress                             0x0800044d   Thumb Code     0  __dczerorl2.o(.text)
    __decompress1                            0x0800044d   Thumb Code    86  __dczerorl2.o(.text)
    BusFault_Handler                         0x080004a3   Thumb Code     4  stm32h7xx_it.o(i.BusFault_Handler)
    DebugMon_Handler                         0x080004a7   Thumb Code     2  stm32h7xx_it.o(i.DebugMon_Handler)
    ETH_IRQHandler                           0x0800055d   Thumb Code    26  lwip.o(i.ETH_IRQHandler)
    ETH_PHY_IO_DeInit                        0x08000687   Thumb Code     4  ethernetif.o(i.ETH_PHY_IO_DeInit)
    ETH_PHY_IO_GetTick                       0x0800068b   Thumb Code     8  ethernetif.o(i.ETH_PHY_IO_GetTick)
    ETH_PHY_IO_Init                          0x08000695   Thumb Code    12  ethernetif.o(i.ETH_PHY_IO_Init)
    ETH_PHY_IO_ReadReg                       0x080006a5   Thumb Code    32  ethernetif.o(i.ETH_PHY_IO_ReadReg)
    ETH_PHY_IO_WriteReg                      0x080006c9   Thumb Code    32  ethernetif.o(i.ETH_PHY_IO_WriteReg)
    ETH_PTP_HAL_Init                         0x080006ed   Thumb Code    74  main.o(i.ETH_PTP_HAL_Init)
    ETH_WKUP_IRQHandler                      0x08000df5   Thumb Code    10  stm32h7xx_it.o(i.ETH_WKUP_IRQHandler)
    Error_Handler                            0x08000e05   Thumb Code     6  main.o(i.Error_Handler)
    HAL_DMA_Abort                            0x08000e35   Thumb Code  1236  stm32h7xx_hal_dma.o(i.HAL_DMA_Abort)
    HAL_DMA_Abort_IT                         0x08001311   Thumb Code   906  stm32h7xx_hal_dma.o(i.HAL_DMA_Abort_IT)
    HAL_ETH_EEECallback                      0x080016a9   Thumb Code     2  stm32h7xx_hal_eth.o(i.HAL_ETH_EEECallback)
    HAL_ETH_ErrorCallback                    0x080016ab   Thumb Code     2  stm32h7xx_hal_eth.o(i.HAL_ETH_ErrorCallback)
    HAL_ETH_GetMACConfig                     0x080016ad   Thumb Code   470  stm32h7xx_hal_eth.o(i.HAL_ETH_GetMACConfig)
    HAL_ETH_IRQHandler                       0x08001885   Thumb Code   444  stm32h7xx_hal_eth.o(i.HAL_ETH_IRQHandler)
    HAL_ETH_Init                             0x08001a45   Thumb Code   352  stm32h7xx_hal_eth.o(i.HAL_ETH_Init)
    HAL_ETH_MspInit                          0x08001bb1   Thumb Code   368  ethernetif.o(i.HAL_ETH_MspInit)
    HAL_ETH_PMTCallback                      0x08001d39   Thumb Code     2  stm32h7xx_hal_eth.o(i.HAL_ETH_PMTCallback)
    HAL_ETH_PTP_GetSysTime                   0x08001d3b   Thumb Code    34  main.o(i.HAL_ETH_PTP_GetSysTime)
    HAL_ETH_PTP_InsertTxTimestamp            0x08001d5d   Thumb Code    38  stm32h7xx_hal_eth.o(i.HAL_ETH_PTP_InsertTxTimestamp)
    HAL_ETH_PTP_SetConfig                    0x08001d85   Thumb Code   244  stm32h7xx_hal_eth.o(i.HAL_ETH_PTP_SetConfig)
    HAL_ETH_PTP_SetTime                      0x08001e7d   Thumb Code    22  stm32h7xx_hal_eth.o(i.HAL_ETH_PTP_SetTime)
    HAL_ETH_ReadData                         0x08001e93   Thumb Code   256  stm32h7xx_hal_eth.o(i.HAL_ETH_ReadData)
    HAL_ETH_ReadPHYRegister                  0x08001f93   Thumb Code   120  stm32h7xx_hal_eth.o(i.HAL_ETH_ReadPHYRegister)
    HAL_ETH_RxAllocateCallback               0x0800200d   Thumb Code    60  ethernetif.o(i.HAL_ETH_RxAllocateCallback)
    HAL_ETH_RxCpltCallback                   0x08002055   Thumb Code     2  stm32h7xx_hal_eth.o(i.HAL_ETH_RxCpltCallback)
    HAL_ETH_RxLinkCallback                   0x08002059   Thumb Code   158  ethernetif.o(i.HAL_ETH_RxLinkCallback)
    HAL_ETH_SetMACConfig                     0x080020fd   Thumb Code    36  stm32h7xx_hal_eth.o(i.HAL_ETH_SetMACConfig)
    HAL_ETH_SetMDIOClockRange                0x08002121   Thumb Code   100  stm32h7xx_hal_eth.o(i.HAL_ETH_SetMDIOClockRange)
    HAL_ETH_Start_IT                         0x08002199   Thumb Code   216  stm32h7xx_hal_eth.o(i.HAL_ETH_Start_IT)
    HAL_ETH_Stop                             0x08002279   Thumb Code   116  stm32h7xx_hal_eth.o(i.HAL_ETH_Stop)
    HAL_ETH_Transmit                         0x080022ed   Thumb Code   246  stm32h7xx_hal_eth.o(i.HAL_ETH_Transmit)
    HAL_ETH_TxCpltCallback                   0x080023e3   Thumb Code     2  stm32h7xx_hal_eth.o(i.HAL_ETH_TxCpltCallback)
    HAL_ETH_WakeUpCallback                   0x080023e5   Thumb Code     2  stm32h7xx_hal_eth.o(i.HAL_ETH_WakeUpCallback)
    HAL_ETH_WritePHYRegister                 0x080023e9   Thumb Code   118  stm32h7xx_hal_eth.o(i.HAL_ETH_WritePHYRegister)
    HAL_GPIO_Init                            0x08002469   Thumb Code   456  stm32h7xx_hal_gpio.o(i.HAL_GPIO_Init)
    HAL_GPIO_ReadPin                         0x08002665   Thumb Code    16  stm32h7xx_hal_gpio.o(i.HAL_GPIO_ReadPin)
    HAL_GPIO_WritePin                        0x08002675   Thumb Code    12  stm32h7xx_hal_gpio.o(i.HAL_GPIO_WritePin)
    HAL_GetREVID                             0x08002681   Thumb Code     8  stm32h7xx_hal.o(i.HAL_GetREVID)
    HAL_GetTick                              0x0800268d   Thumb Code     6  stm32h7xx_hal.o(i.HAL_GetTick)
    HAL_IncTick                              0x08002699   Thumb Code    16  stm32h7xx_hal.o(i.HAL_IncTick)
    HAL_Init                                 0x080026b1   Thumb Code    80  stm32h7xx_hal.o(i.HAL_Init)
    HAL_InitTick                             0x08002711   Thumb Code    74  stm32h7xx_hal.o(i.HAL_InitTick)
    HAL_MPU_ConfigRegion                     0x08002769   Thumb Code    88  stm32h7xx_hal_cortex.o(i.HAL_MPU_ConfigRegion)
    HAL_MPU_Disable                          0x080027c5   Thumb Code    38  stm32h7xx_hal_cortex.o(i.HAL_MPU_Disable)
    HAL_MPU_Enable                           0x080027f1   Thumb Code    58  stm32h7xx_hal_cortex.o(i.HAL_MPU_Enable)
    HAL_MspInit                              0x08002831   Thumb Code    32  stm32h7xx_hal_msp.o(i.HAL_MspInit)
    HAL_NVIC_EnableIRQ                       0x08002855   Thumb Code    40  stm32h7xx_hal_cortex.o(i.HAL_NVIC_EnableIRQ)
    HAL_NVIC_SetPriority                     0x0800287d   Thumb Code   122  stm32h7xx_hal_cortex.o(i.HAL_NVIC_SetPriority)
    HAL_NVIC_SetPriorityGrouping             0x080028f9   Thumb Code    32  stm32h7xx_hal_cortex.o(i.HAL_NVIC_SetPriorityGrouping)
    HAL_PWREx_ConfigSupply                   0x08002921   Thumb Code    90  stm32h7xx_hal_pwr_ex.o(i.HAL_PWREx_ConfigSupply)
    HAL_RCCEx_GetD3PCLK1Freq                 0x08002981   Thumb Code    26  stm32h7xx_hal_rcc_ex.o(i.HAL_RCCEx_GetD3PCLK1Freq)
    HAL_RCCEx_GetPLL2ClockFreq               0x080029a5   Thumb Code   536  stm32h7xx_hal_rcc_ex.o(i.HAL_RCCEx_GetPLL2ClockFreq)
    HAL_RCCEx_GetPLL3ClockFreq               0x08002bd5   Thumb Code   536  stm32h7xx_hal_rcc_ex.o(i.HAL_RCCEx_GetPLL3ClockFreq)
    HAL_RCCEx_PeriphCLKConfig                0x08002e05   Thumb Code  3432  stm32h7xx_hal_rcc_ex.o(i.HAL_RCCEx_PeriphCLKConfig)
    HAL_RCC_ClockConfig                      0x08003b6d   Thumb Code   774  stm32h7xx_hal_rcc.o(i.HAL_RCC_ClockConfig)
    HAL_RCC_GetHCLKFreq                      0x08003e8d   Thumb Code    60  stm32h7xx_hal_rcc.o(i.HAL_RCC_GetHCLKFreq)
    HAL_RCC_GetPCLK1Freq                     0x08003ed9   Thumb Code    26  stm32h7xx_hal_rcc.o(i.HAL_RCC_GetPCLK1Freq)
    HAL_RCC_GetPCLK2Freq                     0x08003efd   Thumb Code    26  stm32h7xx_hal_rcc.o(i.HAL_RCC_GetPCLK2Freq)
    HAL_RCC_GetSysClockFreq                  0x08003f21   Thumb Code   524  stm32h7xx_hal_rcc.o(i.HAL_RCC_GetSysClockFreq)
    HAL_RCC_OscConfig                        0x0800414d   Thumb Code  2130  stm32h7xx_hal_rcc.o(i.HAL_RCC_OscConfig)
    HAL_SYSCFG_ETHInterfaceSelect            0x080049a5   Thumb Code    16  stm32h7xx_hal.o(i.HAL_SYSCFG_ETHInterfaceSelect)
    HAL_SYSTICK_Config                       0x080049b9   Thumb Code    52  stm32h7xx_hal_cortex.o(i.HAL_SYSTICK_Config)
    HAL_UARTEx_DisableFifoMode               0x080049ed   Thumb Code    78  stm32h7xx_hal_uart_ex.o(i.HAL_UARTEx_DisableFifoMode)
    HAL_UARTEx_RxEventCallback               0x08004a3b   Thumb Code     2  stm32h7xx_hal_uart.o(i.HAL_UARTEx_RxEventCallback)
    HAL_UARTEx_RxFifoFullCallback            0x08004a3d   Thumb Code     2  stm32h7xx_hal_uart_ex.o(i.HAL_UARTEx_RxFifoFullCallback)
    HAL_UARTEx_SetRxFifoThreshold            0x08004a3f   Thumb Code    94  stm32h7xx_hal_uart_ex.o(i.HAL_UARTEx_SetRxFifoThreshold)
    HAL_UARTEx_SetTxFifoThreshold            0x08004a9d   Thumb Code    94  stm32h7xx_hal_uart_ex.o(i.HAL_UARTEx_SetTxFifoThreshold)
    HAL_UARTEx_TxFifoEmptyCallback           0x08004afb   Thumb Code     2  stm32h7xx_hal_uart_ex.o(i.HAL_UARTEx_TxFifoEmptyCallback)
    HAL_UARTEx_WakeupCallback                0x08004afd   Thumb Code     2  stm32h7xx_hal_uart_ex.o(i.HAL_UARTEx_WakeupCallback)
    HAL_UART_ErrorCallback                   0x08004aff   Thumb Code     2  stm32h7xx_hal_uart.o(i.HAL_UART_ErrorCallback)
    HAL_UART_IRQHandler                      0x08004b01   Thumb Code  1172  stm32h7xx_hal_uart.o(i.HAL_UART_IRQHandler)
    HAL_UART_Init                            0x08004f95   Thumb Code   120  stm32h7xx_hal_uart.o(i.HAL_UART_Init)
    HAL_UART_MspInit                         0x0800500d   Thumb Code   160  usart.o(i.HAL_UART_MspInit)
    HAL_UART_TxCpltCallback                  0x080050b9   Thumb Code     2  stm32h7xx_hal_uart.o(i.HAL_UART_TxCpltCallback)
    HardFault_Handler                        0x080050bb   Thumb Code     4  stm32h7xx_it.o(i.HardFault_Handler)
    IIC_Ack                                  0x080050c1   Thumb Code    78  myiic.o(i.IIC_Ack)
    IIC_Init                                 0x08005115   Thumb Code    78  myiic.o(i.IIC_Init)
    IIC_NAck                                 0x0800516d   Thumb Code    78  myiic.o(i.IIC_NAck)
    IIC_Read_Byte                            0x080051c1   Thumb Code   102  myiic.o(i.IIC_Read_Byte)
    IIC_Send_Byte                            0x0800522d   Thumb Code   118  myiic.o(i.IIC_Send_Byte)
    IIC_Start                                0x080052a9   Thumb Code    78  myiic.o(i.IIC_Start)
    IIC_Stop                                 0x080052fd   Thumb Code    78  myiic.o(i.IIC_Stop)
    IIC_Wait_Ack                             0x08005351   Thumb Code    98  myiic.o(i.IIC_Wait_Ack)
    LAN8742_GetLinkState                     0x080053b9   Thumb Code   234  lan8742.o(i.LAN8742_GetLinkState)
    LAN8742_Init                             0x080054a3   Thumb Code   262  lan8742.o(i.LAN8742_Init)
    LAN8742_RegisterBusIO                    0x080055a9   Thumb Code    46  lan8742.o(i.LAN8742_RegisterBusIO)
    MX_GPIO_Init                             0x08005639   Thumb Code   136  gpio.o(i.MX_GPIO_Init)
    MX_LWIP_Init                             0x080056c5   Thumb Code   536  lwip.o(i.MX_LWIP_Init)
    MX_LWIP_Process                          0x08005905   Thumb Code    14  lwip.o(i.MX_LWIP_Process)
    MX_USART1_UART_Init                      0x08005919   Thumb Code    98  usart.o(i.MX_USART1_UART_Init)
    MemManage_Handler                        0x08005985   Thumb Code     4  stm32h7xx_it.o(i.MemManage_Handler)
    NMI_Handler                              0x08005989   Thumb Code     4  stm32h7xx_it.o(i.NMI_Handler)
    PCF8574_Init                             0x0800598d   Thumb Code    96  pcf8574.o(i.PCF8574_Init)
    PCF8574_ReadOneByte                      0x080059f5   Thumb Code    34  pcf8574.o(i.PCF8574_ReadOneByte)
    PCF8574_WriteBit                         0x08005a17   Thumb Code    38  pcf8574.o(i.PCF8574_WriteBit)
    PCF8574_WriteOneByte                     0x08005a3d   Thumb Code    40  pcf8574.o(i.PCF8574_WriteOneByte)
    PendSV_Handler                           0x08005a65   Thumb Code     2  stm32h7xx_it.o(i.PendSV_Handler)
    SVC_Handler                              0x08005d31   Thumb Code     2  stm32h7xx_it.o(i.SVC_Handler)
    SysTick_Handler                          0x08005d33   Thumb Code     8  stm32h7xx_it.o(i.SysTick_Handler)
    SystemClock_Config                       0x08005d3d   Thumb Code   302  main.o(i.SystemClock_Config)
    SystemInit                               0x08005e79   Thumb Code   212  system_stm32h7xx.o(i.SystemInit)
    TCP_Server_Init                          0x08005f75   Thumb Code    92  tcp_server.o(i.TCP_Server_Init)
    UART_AdvFeatureConfig                    0x08006079   Thumb Code   248  stm32h7xx_hal_uart.o(i.UART_AdvFeatureConfig)
    UART_CheckIdleState                      0x08006171   Thumb Code   234  stm32h7xx_hal_uart.o(i.UART_CheckIdleState)
    UART_SetConfig                           0x08006311   Thumb Code  1402  stm32h7xx_hal_uart.o(i.UART_SetConfig)
    UART_WaitOnFlagUntilTimeout              0x0800689d   Thumb Code   162  stm32h7xx_hal_uart.o(i.UART_WaitOnFlagUntilTimeout)
    USART1_IRQHandler                        0x08006941   Thumb Code    10  stm32h7xx_it.o(i.USART1_IRQHandler)
    Udp_Lwip_Init                            0x08006951   Thumb Code    90  lwip_udp.o(i.Udp_Lwip_Init)
    UsageFault_Handler                       0x080069c9   Thumb Code     4  stm32h7xx_it.o(i.UsageFault_Handler)
    __0printf$5                              0x080069cd   Thumb Code    22  printf5.o(i.__0printf$5)
    __1printf$5                              0x080069cd   Thumb Code     0  printf5.o(i.__0printf$5)
    __2printf                                0x080069cd   Thumb Code     0  printf5.o(i.__0printf$5)
    __scatterload_copy                       0x08006a25   Thumb Code    14  handlers.o(i.__scatterload_copy)
    __scatterload_null                       0x08006a33   Thumb Code     2  handlers.o(i.__scatterload_null)
    __scatterload_zeroinit                   0x08006a35   Thumb Code    14  handlers.o(i.__scatterload_zeroinit)
    client_set_remote_ip                     0x08006d05   Thumb Code   266  tcp_client.o(i.client_set_remote_ip)
    delay_ms                                 0x08006e1d   Thumb Code    24  delay.o(i.delay_ms)
    delay_us                                 0x08006e35   Thumb Code    68  delay.o(i.delay_us)
    etharp_cleanup_netif                     0x08006fdd   Thumb Code    50  etharp.o(i.etharp_cleanup_netif)
    etharp_input                             0x08007355   Thumb Code   202  etharp.o(i.etharp_input)
    etharp_output                            0x08007491   Thumb Code   396  etharp.o(i.etharp_output)
    etharp_query                             0x0800781d   Thumb Code   474  etharp.o(i.etharp_query)
    etharp_request                           0x08007c4d   Thumb Code    18  etharp.o(i.etharp_request)
    etharp_tmr                               0x08007c91   Thumb Code   214  etharp.o(i.etharp_tmr)
    ethernet_input                           0x08007ec9   Thumb Code   190  ethernet.o(i.ethernet_input)
    ethernet_link_check_state                0x08007f8d   Thumb Code   196  ethernetif.o(i.ethernet_link_check_state)
    ethernet_output                          0x080080b9   Thumb Code   112  ethernet.o(i.ethernet_output)
    ethernetif_init                          0x080081bd   Thumb Code    58  ethernetif.o(i.ethernetif_init)
    ethernetif_input                         0x08008255   Thumb Code    90  ethernetif.o(i.ethernetif_input)
    fputc                                    0x080082b9   Thumb Code    22  main.o(i.fputc)
    icmp_dest_unreach                        0x080082d5   Thumb Code    18  icmp.o(i.icmp_dest_unreach)
    icmp_input                               0x080082e9   Thumb Code   466  icmp.o(i.icmp_input)
    icmp_time_exceeded                       0x080086b1   Thumb Code    18  icmp.o(i.icmp_time_exceeded)
    inet_chksum                              0x080086c3   Thumb Code    20  inet_chksum.o(i.inet_chksum)
    inet_chksum_pbuf                         0x080086d7   Thumb Code    86  inet_chksum.o(i.inet_chksum_pbuf)
    ip4_addr_isbroadcast_u32                 0x0800872d   Thumb Code    78  ip4_addr.o(i.ip4_addr_isbroadcast_u32)
    ip4_frag                                 0x0800877d   Thumb Code   536  ip4_frag.o(i.ip4_frag)
    ip4_input                                0x08008a49   Thumb Code   402  ip4.o(i.ip4_input)
    ip4_output_if                            0x08008c19   Thumb Code    54  ip4.o(i.ip4_output_if)
    ip4_output_if_src                        0x08008c51   Thumb Code   250  ip4.o(i.ip4_output_if_src)
    ip4_reass                                0x08008ded   Thumb Code   584  ip4_frag.o(i.ip4_reass)
    ip4_route                                0x080090e9   Thumb Code   140  ip4.o(i.ip4_route)
    ip_reass_tmr                             0x080098a5   Thumb Code    48  ip4_frag.o(i.ip_reass_tmr)
    low_level_output                         0x08009b41   Thumb Code   282  ethernetif.o(i.low_level_output)
    lwip_htonl                               0x08009cbd   Thumb Code    26  def.o(i.lwip_htonl)
    lwip_htons                               0x08009cd7   Thumb Code    12  def.o(i.lwip_htons)
    lwip_init                                0x08009ce5   Thumb Code    64  init.o(i.lwip_init)
    lwip_standard_chksum                     0x08009d81   Thumb Code    94  inet_chksum.o(i.lwip_standard_chksum)
    lwip_udp_discollected                    0x08009de1   Thumb Code    32  lwip_udp.o(i.lwip_udp_discollected)
    lwip_udp_recv_callback                   0x08009e05   Thumb Code   220  lwip_udp.o(i.lwip_udp_recv_callback)
    lwip_udp_register                        0x08009ee5   Thumb Code    22  lwip_udp.o(i.lwip_udp_register)
    lwip_udp_send                            0x08009f01   Thumb Code    50  lwip_udp.o(i.lwip_udp_send)
    lwip_udp_set_remote_ip                   0x08009f39   Thumb Code   260  lwip_udp.o(i.lwip_udp_set_remote_ip)
    main                                     0x0800a049   Thumb Code   370  main.o(i.main)
    mem_free                                 0x0800a1f5   Thumb Code   194  mem.o(i.mem_free)
    mem_init                                 0x0800a3b9   Thumb Code    72  mem.o(i.mem_init)
    mem_malloc                               0x0800a469   Thumb Code   402  mem.o(i.mem_malloc)
    mem_trim                                 0x0800a721   Thumb Code   388  mem.o(i.mem_trim)
    memp_free                                0x0800a955   Thumb Code    54  memp.o(i.memp_free)
    memp_free_pool                           0x0800aa05   Thumb Code    50  memp.o(i.memp_free_pool)
    memp_init                                0x0800aaa5   Thumb Code    26  memp.o(i.memp_init)
    memp_init_pool                           0x0800aac5   Thumb Code    44  memp.o(i.memp_init_pool)
    memp_malloc                              0x0800aaf1   Thumb Code    50  memp.o(i.memp_malloc)
    memp_malloc_pool                         0x0800aba1   Thumb Code    44  memp.o(i.memp_malloc_pool)
    netif_add                                0x0800ac39   Thumb Code   318  netif.o(i.netif_add)
    netif_get_by_index                       0x0800afb1   Thumb Code    36  netif.o(i.netif_get_by_index)
    netif_init                               0x0800afd9   Thumb Code     2  netif.o(i.netif_init)
    netif_set_addr                           0x0800b0bd   Thumb Code    92  netif.o(i.netif_set_addr)
    netif_set_default                        0x0800b11d   Thumb Code     6  netif.o(i.netif_set_default)
    netif_set_down                           0x0800b129   Thumb Code    78  netif.o(i.netif_set_down)
    netif_set_link_callback                  0x0800b1f5   Thumb Code     6  netif.o(i.netif_set_link_callback)
    netif_set_link_down                      0x0800b1fd   Thumb Code    76  netif.o(i.netif_set_link_down)
    netif_set_link_up                        0x0800b2c9   Thumb Code    84  netif.o(i.netif_set_link_up)
    netif_set_up                             0x0800b39d   Thumb Code    70  netif.o(i.netif_set_up)
    pbuf_add_header                          0x0800b45d   Thumb Code    18  pbuf.o(i.pbuf_add_header)
    pbuf_alloc                               0x0800b559   Thumb Code   414  pbuf.o(i.pbuf_alloc)
    pbuf_alloc_reference                     0x0800b7fd   Thumb Code    78  pbuf.o(i.pbuf_alloc_reference)
    pbuf_alloced_custom                      0x0800b8b9   Thumb Code    82  pbuf.o(i.pbuf_alloced_custom)
    pbuf_cat                                 0x0800b90d   Thumb Code   126  pbuf.o(i.pbuf_cat)
    pbuf_chain                               0x0800ba5d   Thumb Code    22  pbuf.o(i.pbuf_chain)
    pbuf_clen                                0x0800ba73   Thumb Code    18  pbuf.o(i.pbuf_clen)
    pbuf_clone                               0x0800ba85   Thumb Code    68  pbuf.o(i.pbuf_clone)
    pbuf_copy                                0x0800bb35   Thumb Code   304  pbuf.o(i.pbuf_copy)
    pbuf_copy_partial                        0x0800bd5d   Thumb Code   164  pbuf.o(i.pbuf_copy_partial)
    pbuf_free                                0x0800be9d   Thumb Code   230  pbuf.o(i.pbuf_free)
    pbuf_free_custom                         0x0800c039   Thumb Code    30  ethernetif.o(i.pbuf_free_custom)
    pbuf_free_ooseq                          0x0800c061   Thumb Code    40  pbuf.o(i.pbuf_free_ooseq)
    pbuf_header_force                        0x0800c091   Thumb Code    18  pbuf.o(i.pbuf_header_force)
    pbuf_realloc                             0x0800c0f5   Thumb Code   194  pbuf.o(i.pbuf_realloc)
    pbuf_ref                                 0x0800c25d   Thumb Code    48  pbuf.o(i.pbuf_ref)
    pbuf_remove_header                       0x0800c2f9   Thumb Code   110  pbuf.o(i.pbuf_remove_header)
    pbuf_take                                0x0800c3ed   Thumb Code   234  pbuf.o(i.pbuf_take)
    server_set_local_ip                      0x0800c79d   Thumb Code   258  tcp_server.o(i.server_set_local_ip)
    sys_check_timeouts                       0x0800c8ad   Thumb Code    88  timeouts.o(i.sys_check_timeouts)
    sys_now                                  0x0800c911   Thumb Code     8  ethernetif.o(i.sys_now)
    sys_timeout                              0x0800c919   Thumb Code    58  timeouts.o(i.sys_timeout)
    sys_timeouts_init                        0x0800cb29   Thumb Code    30  timeouts.o(i.sys_timeouts_init)
    tcp_abandon                              0x0800cb51   Thumb Code   284  tcp.o(i.tcp_abandon)
    tcp_abort                                0x0800cd25   Thumb Code    14  tcp.o(i.tcp_abort)
    tcp_accept                               0x0800cd33   Thumb Code    16  tcp.o(i.tcp_accept)
    tcp_alloc                                0x0800cded   Thumb Code   176  tcp.o(i.tcp_alloc)
    tcp_arg                                  0x0800cea9   Thumb Code     6  tcp.o(i.tcp_arg)
    tcp_bind                                 0x0800ceb1   Thumb Code   204  tcp.o(i.tcp_bind)
    tcp_close                                0x0800d061   Thumb Code    64  tcp.o(i.tcp_close)
    tcp_eff_send_mss_netif                   0x0800d5d9   Thumb Code    82  tcp.o(i.tcp_eff_send_mss_netif)
    tcp_enqueue_flags                        0x0800d6ad   Thumb Code   408  tcp_out.o(i.tcp_enqueue_flags)
    tcp_err                                  0x0800d96d   Thumb Code    44  tcp.o(i.tcp_err)
    tcp_fasttmr                              0x0800da19   Thumb Code   142  tcp.o(i.tcp_fasttmr)
    tcp_free                                 0x0800dab5   Thumb Code    40  tcp.o(i.tcp_free)
    tcp_free_ooseq                           0x0800dd41   Thumb Code    20  tcp.o(i.tcp_free_ooseq)
    tcp_init                                 0x0800ddd1   Thumb Code    20  tcp.o(i.tcp_init)
    tcp_input                                0x0800dde9   Thumb Code  1996  tcp_in.o(i.tcp_input)
    tcp_keepalive                            0x0800e6e9   Thumb Code    98  tcp_out.o(i.tcp_keepalive)
    tcp_listen_with_backlog                  0x0800ec01   Thumb Code    18  tcp.o(i.tcp_listen_with_backlog)
    tcp_listen_with_backlog_and_err          0x0800ec15   Thumb Code   246  tcp.o(i.tcp_listen_with_backlog_and_err)
    tcp_netif_ip_addr_changed                0x0800edd9   Thumb Code    64  tcp.o(i.tcp_netif_ip_addr_changed)
    tcp_new                                  0x0800eef5   Thumb Code    10  tcp.o(i.tcp_new)
    tcp_next_iss                             0x0800ef69   Thumb Code    50  tcp.o(i.tcp_next_iss)
    tcp_output                               0x0800f145   Thumb Code   684  tcp_out.o(i.tcp_output)
    tcp_pcb_purge                            0x0800fe71   Thumb Code   104  tcp.o(i.tcp_pcb_purge)
    tcp_pcb_remove                           0x0800ff4d   Thumb Code   246  tcp.o(i.tcp_pcb_remove)
    tcp_poll                                 0x08010125   Thumb Code    74  tcp.o(i.tcp_poll)
    tcp_process_refused_data                 0x08010945   Thumb Code   182  tcp.o(i.tcp_process_refused_data)
    tcp_recv                                 0x080116f9   Thumb Code    44  tcp.o(i.tcp_recv)
    tcp_recv_null                            0x080117a5   Thumb Code    78  tcp.o(i.tcp_recv_null)
    tcp_recved                               0x08011869   Thumb Code   132  tcp.o(i.tcp_recved)
    tcp_rexmit                               0x08011a39   Thumb Code   142  tcp_out.o(i.tcp_rexmit)
    tcp_rexmit_fast                          0x08011b3d   Thumb Code   142  tcp_out.o(i.tcp_rexmit_fast)
    tcp_rexmit_rto                           0x08011c49   Thumb Code    46  tcp_out.o(i.tcp_rexmit_rto)
    tcp_rexmit_rto_commit                    0x08011cf1   Thumb Code    56  tcp_out.o(i.tcp_rexmit_rto_commit)
    tcp_rexmit_rto_prepare                   0x08011da9   Thumb Code   150  tcp_out.o(i.tcp_rexmit_rto_prepare)
    tcp_rst                                  0x08011ee1   Thumb Code   146  tcp_out.o(i.tcp_rst)
    tcp_seg_copy                             0x08012009   Thumb Code    62  tcp.o(i.tcp_seg_copy)
    tcp_seg_free                             0x080120bd   Thumb Code    26  tcp.o(i.tcp_seg_free)
    tcp_segs_free                            0x080120d7   Thumb Code    24  tcp.o(i.tcp_segs_free)
    tcp_send_empty_ack                       0x080120f1   Thumb Code   194  tcp_out.o(i.tcp_send_empty_ack)
    tcp_send_fin                             0x08012231   Thumb Code   104  tcp_out.o(i.tcp_send_fin)
    tcp_sent                                 0x08012311   Thumb Code    44  tcp.o(i.tcp_sent)
    tcp_slowtmr                              0x080125bd   Thumb Code  1698  tcp.o(i.tcp_slowtmr)
    tcp_split_unsent_seg                     0x08012ced   Thumb Code   510  tcp_out.o(i.tcp_split_unsent_seg)
    tcp_timer_needed                         0x08012fbd   Thumb Code    38  timeouts.o(i.tcp_timer_needed)
    tcp_tmr                                  0x08013139   Thumb Code    30  tcp.o(i.tcp_tmr)
    tcp_trigger_input_pcb_close              0x0801315d   Thumb Code    14  tcp_in.o(i.tcp_trigger_input_pcb_close)
    tcp_update_rcv_ann_wnd                   0x08013171   Thumb Code   128  tcp.o(i.tcp_update_rcv_ann_wnd)
    tcp_write                                0x08013289   Thumb Code  1918  tcp_out.o(i.tcp_write)
    tcp_zero_window_probe                    0x08013c61   Thumb Code   238  tcp_out.o(i.tcp_zero_window_probe)
    udp_bind                                 0x08013e09   Thumb Code   172  udp.o(i.udp_bind)
    udp_connect                              0x08013f2d   Thumb Code   158  udp.o(i.udp_connect)
    udp_disconnect                           0x08014061   Thumb Code    56  udp.o(i.udp_disconnect)
    udp_init                                 0x0801410d   Thumb Code    20  udp.o(i.udp_init)
    udp_input                                0x08014125   Thumb Code   412  udp.o(i.udp_input)
    udp_netif_ip_addr_changed                0x080144a9   Thumb Code    42  udp.o(i.udp_netif_ip_addr_changed)
    udp_new                                  0x080144d9   Thumb Code    28  udp.o(i.udp_new)
    udp_recv                                 0x0801454d   Thumb Code    44  udp.o(i.udp_recv)
    udp_remove                               0x080145e9   Thumb Code    94  udp.o(i.udp_remove)
    udp_send                                 0x080146bd   Thumb Code    84  udp.o(i.udp_send)
    udp_sendto                               0x08014799   Thumb Code   156  udp.o(i.udp_sendto)
    udp_sendto_if                            0x080148dd   Thumb Code   200  udp.o(i.udp_sendto_if)
    udp_sendto_if_src                        0x08014a75   Thumb Code   384  udp.o(i.udp_sendto_if_src)
    memp_RX_POOL                             0x08014d2c   Data          12  ethernetif.o(.constdata)
    UARTPrescTable                           0x08014d38   Data          24  stm32h7xx_hal_uart.o(.constdata)
    D1CorePrescTable                         0x08014d60   Data          16  system_stm32h7xx.o(.constdata)
    ethbroadcast                             0x08014d70   Data           6  ethernet.o(.constdata)
    ethzero                                  0x08014d76   Data           6  ethernet.o(.constdata)
    memp_UDP_PCB                             0x08014d7c   Data          12  memp.o(.constdata)
    memp_TCP_PCB                             0x08014d88   Data          12  memp.o(.constdata)
    memp_TCP_PCB_LISTEN                      0x08014d94   Data          12  memp.o(.constdata)
    memp_TCP_SEG                             0x08014da0   Data          12  memp.o(.constdata)
    memp_REASSDATA                           0x08014dac   Data          12  memp.o(.constdata)
    memp_FRAG_PBUF                           0x08014db8   Data          12  memp.o(.constdata)
    memp_SYS_TIMEOUT                         0x08014dc4   Data          12  memp.o(.constdata)
    memp_PBUF                                0x08014dd0   Data          12  memp.o(.constdata)
    memp_PBUF_POOL                           0x08014ddc   Data          12  memp.o(.constdata)
    memp_pools                               0x08014de8   Data          36  memp.o(.constdata)
    tcp_pcb_lists                            0x08014e4c   Data          16  tcp.o(.constdata)
    lwip_cyclic_timers                       0x08014e5c   Data          24  timeouts.o(.constdata)
    lwip_num_cyclic_timers                   0x08014e74   Data           4  timeouts.o(.constdata)
    ip_addr_any                              0x08014e78   Data           4  ip4_addr.o(.constdata)
    ip_addr_broadcast                        0x08014e7c   Data           4  ip4_addr.o(.constdata)
    Region$$Table$$Base                      0x08014fd8   Number         0  anon$$obj.o(Region$$Table)
    Region$$Table$$Limit                     0x08014ff8   Number         0  anon$$obj.o(Region$$Table)
    LAN8742_IOCtx                            0x2400000c   Data          20  ethernetif.o(.data)
    EthernetLinkTimer                        0x24000020   Data           4  lwip.o(.data)
    ipaddr                                   0x24000024   Data           4  lwip.o(.data)
    netmask                                  0x24000028   Data           4  lwip.o(.data)
    gw                                       0x2400002c   Data           4  lwip.o(.data)
    IP_ADDRESS                               0x24000030   Data           4  lwip.o(.data)
    NETMASK_ADDRESS                          0x24000034   Data           4  lwip.o(.data)
    GATEWAY_ADDRESS                          0x24000038   Data           4  lwip.o(.data)
    udp_send_buffer                          0x24000040   Data        1600  lwip_udp.o(.data)
    udp_recv_buffer                          0x24000680   Data        1600  lwip_udp.o(.data)
    udp_device                               0x24000cc0   Data          52  lwip_udp.o(.data)
    client_send_buffer                       0x24000d00   Data        1600  tcp_client.o(.data)
    client_recv_buffer                       0x24001340   Data        1600  tcp_client.o(.data)
    client_device                            0x24001980   Data          60  tcp_client.o(.data)
    server_send_buffer                       0x240019c0   Data        1600  tcp_server.o(.data)
    server_recv_buffer                       0x24002000   Data        1600  tcp_server.o(.data)
    server_device                            0x24002640   Data          52  tcp_server.o(.data)
    uwTick                                   0x24002674   Data           4  stm32h7xx_hal.o(.data)
    uwTickPrio                               0x24002678   Data           4  stm32h7xx_hal.o(.data)
    uwTickFreq                               0x2400267c   Data           1  stm32h7xx_hal.o(.data)
    SystemCoreClock                          0x24002680   Data           4  system_stm32h7xx.o(.data)
    SystemD2Clock                            0x24002684   Data           4  system_stm32h7xx.o(.data)
    netif_list                               0x240026b8   Data           4  netif.o(.data)
    netif_default                            0x240026bc   Data           4  netif.o(.data)
    pbuf_free_ooseq_pending                  0x240026c1   Data           1  pbuf.o(.data)
    tcp_ticks                                0x240026c8   Data           4  tcp.o(.data)
    tcp_bound_pcbs                           0x240026cc   Data           4  tcp.o(.data)
    tcp_listen_pcbs                          0x240026d0   Data           4  tcp.o(.data)
    tcp_active_pcbs                          0x240026d4   Data           4  tcp.o(.data)
    tcp_tw_pcbs                              0x240026d8   Data           4  tcp.o(.data)
    tcp_active_pcbs_changed                  0x240026dc   Data           1  tcp.o(.data)
    tcp_input_pcb                            0x24002708   Data           4  tcp_in.o(.data)
    udp_pcbs                                 0x2400271c   Data           4  udp.o(.data)
    __stdout                                 0x24002730   Data           4  stdout.o(.data)
    RecvHandle                               0x24002734   Data        1504  main.o(.bss)
    huart1                                   0x24002d14   Data         148  usart.o(.bss)
    memp_memory_RX_POOL_base                 0x24002da8   Data       18819  ethernetif.o(.bss)
    heth                                     0x2400772c   Data         184  ethernetif.o(.bss)
    TxConfig                                 0x240077e4   Data          56  ethernetif.o(.bss)
    LAN8742                                  0x2400781c   Data          32  ethernetif.o(.bss)
    gnetif                                   0x2400783c   Data          52  lwip.o(.bss)
    ip_data                                  0x24007870   Data          24  ip.o(.bss)
    memp_memory_UDP_PCB_base                 0x24007888   Data         131  memp.o(.bss)
    memp_memory_TCP_PCB_base                 0x2400790b   Data         783  memp.o(.bss)
    memp_memory_TCP_PCB_LISTEN_base          0x24007c1a   Data         227  memp.o(.bss)
    memp_memory_TCP_SEG_base                 0x24007cfd   Data         259  memp.o(.bss)
    memp_memory_REASSDATA_base               0x24007e00   Data         163  memp.o(.bss)
    memp_memory_FRAG_PBUF_base               0x24007ea3   Data         363  memp.o(.bss)
    memp_memory_SYS_TIMEOUT_base             0x2400800e   Data          51  memp.o(.bss)
    memp_memory_PBUF_base                    0x24008041   Data         259  memp.o(.bss)
    memp_memory_PBUF_POOL_base               0x24008144   Data       24515  memp.o(.bss)
    __initial_sp                             0x2400e608   Data           0  startup_stm32h743xx.o(STACK)
    DMARxDscrTab                             0x30004000   Data          96  ethernetif.o(.ARM.__AT_0x30004000)
    DMATxDscrTab                             0x30004060   Data          96  ethernetif.o(.ARM.__AT_0x30004060)



==============================================================================

Memory Map of the image

  Image Entry point : 0x08000299

  Load Region LR_IROM1 (Base: 0x08000000, Size: 0x0001772c, Max: 0x00200000, ABSOLUTE, COMPRESSED[0x000150c4])

    Execution Region ER_IROM1 (Exec base: 0x08000000, Load base: 0x08000000, Size: 0x00014ff8, Max: 0x00200000, ABSOLUTE)

    Exec Addr    Load Addr    Size         Type   Attr      Idx    E Section Name        Object

    0x08000000   0x08000000   0x00000298   Data   RO            3    RESET               startup_stm32h743xx.o
    0x08000298   0x08000298   0x00000000   Code   RO         8984  * .ARM.Collect$$$$00000000  mc_w.l(entry.o)
    0x08000298   0x08000298   0x00000004   Code   RO         9299    .ARM.Collect$$$$00000001  mc_w.l(entry2.o)
    0x0800029c   0x0800029c   0x00000004   Code   RO         9302    .ARM.Collect$$$$00000004  mc_w.l(entry5.o)
    0x080002a0   0x080002a0   0x00000000   Code   RO         9304    .ARM.Collect$$$$00000008  mc_w.l(entry7b.o)
    0x080002a0   0x080002a0   0x00000000   Code   RO         9306    .ARM.Collect$$$$0000000A  mc_w.l(entry8b.o)
    0x080002a0   0x080002a0   0x00000008   Code   RO         9307    .ARM.Collect$$$$0000000B  mc_w.l(entry9a.o)
    0x080002a8   0x080002a8   0x00000004   Code   RO         9314    .ARM.Collect$$$$0000000E  mc_w.l(entry12b.o)
    0x080002ac   0x080002ac   0x00000000   Code   RO         9309    .ARM.Collect$$$$0000000F  mc_w.l(entry10a.o)
    0x080002ac   0x080002ac   0x00000000   Code   RO         9311    .ARM.Collect$$$$00000011  mc_w.l(entry11a.o)
    0x080002ac   0x080002ac   0x00000004   Code   RO         9300    .ARM.Collect$$$$00002712  mc_w.l(entry2.o)
    0x080002b0   0x080002b0   0x00000024   Code   RO            4    .text               startup_stm32h743xx.o
    0x080002d4   0x080002d4   0x00000062   Code   RO         8987    .text               mc_w.l(uldiv.o)
    0x08000336   0x08000336   0x00000002   PAD
    0x08000338   0x08000338   0x00000024   Code   RO         9017    .text               mc_w.l(rand.o)
    0x0800035c   0x0800035c   0x00000040   Code   RO         9022    .text               mc_w.l(memmovea.o)
    0x0800039c   0x0800039c   0x00000024   Code   RO         9024    .text               mc_w.l(memseta.o)
    0x080003c0   0x080003c0   0x0000000e   Code   RO         9026    .text               mc_w.l(strlen.o)
    0x080003ce   0x080003ce   0x0000001a   Code   RO         9028    .text               mc_w.l(memcmp.o)
    0x080003e8   0x080003e8   0x0000001e   Code   RO         9318    .text               mc_w.l(llshl.o)
    0x08000406   0x08000406   0x00000020   Code   RO         9320    .text               mc_w.l(llushr.o)
    0x08000426   0x08000426   0x00000002   PAD
    0x08000428   0x08000428   0x00000024   Code   RO         9342    .text               mc_w.l(init.o)
    0x0800044c   0x0800044c   0x00000056   Code   RO         9360    .text               mc_w.l(__dczerorl2.o)
    0x080004a2   0x080004a2   0x00000004   Code   RO          567    i.BusFault_Handler  stm32h7xx_it.o
    0x080004a6   0x080004a6   0x00000002   Code   RO          568    i.DebugMon_Handler  stm32h7xx_it.o
    0x080004a8   0x080004a8   0x00000060   Code   RO         1493    i.ETH_DMARxDescListInit  stm32h7xx_hal_eth.o
    0x08000508   0x08000508   0x00000052   Code   RO         1494    i.ETH_DMATxDescListInit  stm32h7xx_hal_eth.o
    0x0800055a   0x0800055a   0x00000002   PAD
    0x0800055c   0x0800055c   0x00000024   Code   RO          933    i.ETH_IRQHandler    lwip.o
    0x08000580   0x08000580   0x00000106   Code   RO         1495    i.ETH_MACDMAConfig  stm32h7xx_hal_eth.o
    0x08000686   0x08000686   0x00000004   Code   RO          774    i.ETH_PHY_IO_DeInit  ethernetif.o
    0x0800068a   0x0800068a   0x00000008   Code   RO          775    i.ETH_PHY_IO_GetTick  ethernetif.o
    0x08000692   0x08000692   0x00000002   PAD
    0x08000694   0x08000694   0x00000010   Code   RO          776    i.ETH_PHY_IO_Init   ethernetif.o
    0x080006a4   0x080006a4   0x00000024   Code   RO          777    i.ETH_PHY_IO_ReadReg  ethernetif.o
    0x080006c8   0x080006c8   0x00000024   Code   RO          778    i.ETH_PHY_IO_WriteReg  ethernetif.o
    0x080006ec   0x080006ec   0x00000050   Code   RO          296    i.ETH_PTP_HAL_Init  main.o
    0x0800073c   0x0800073c   0x000003d0   Code   RO         1496    i.ETH_Prepare_Tx_Descriptors  stm32h7xx_hal_eth.o
    0x08000b0c   0x08000b0c   0x000000bc   Code   RO         1497    i.ETH_SetDMAConfig  stm32h7xx_hal_eth.o
    0x08000bc8   0x08000bc8   0x00000194   Code   RO         1498    i.ETH_SetMACConfig  stm32h7xx_hal_eth.o
    0x08000d5c   0x08000d5c   0x00000098   Code   RO         1499    i.ETH_UpdateDescriptor  stm32h7xx_hal_eth.o
    0x08000df4   0x08000df4   0x00000010   Code   RO          569    i.ETH_WKUP_IRQHandler  stm32h7xx_it.o
    0x08000e04   0x08000e04   0x00000006   Code   RO          298    i.Error_Handler     main.o
    0x08000e0a   0x08000e0a   0x00000002   PAD
    0x08000e0c   0x08000e0c   0x00000028   Code   RO          934    i.Ethernet_Link_Periodic_Handle  lwip.o
    0x08000e34   0x08000e34   0x000004dc   Code   RO         2764    i.HAL_DMA_Abort     stm32h7xx_hal_dma.o
    0x08001310   0x08001310   0x00000398   Code   RO         2765    i.HAL_DMA_Abort_IT  stm32h7xx_hal_dma.o
    0x080016a8   0x080016a8   0x00000002   Code   RO         1501    i.HAL_ETH_EEECallback  stm32h7xx_hal_eth.o
    0x080016aa   0x080016aa   0x00000002   Code   RO         1503    i.HAL_ETH_ErrorCallback  stm32h7xx_hal_eth.o
    0x080016ac   0x080016ac   0x000001d6   Code   RO         1508    i.HAL_ETH_GetMACConfig  stm32h7xx_hal_eth.o
    0x08001882   0x08001882   0x00000002   PAD
    0x08001884   0x08001884   0x000001c0   Code   RO         1514    i.HAL_ETH_IRQHandler  stm32h7xx_hal_eth.o
    0x08001a44   0x08001a44   0x0000016c   Code   RO         1515    i.HAL_ETH_Init      stm32h7xx_hal_eth.o
    0x08001bb0   0x08001bb0   0x00000188   Code   RO          780    i.HAL_ETH_MspInit   ethernetif.o
    0x08001d38   0x08001d38   0x00000002   Code   RO         1518    i.HAL_ETH_PMTCallback  stm32h7xx_hal_eth.o
    0x08001d3a   0x08001d3a   0x00000022   Code   RO          299    i.HAL_ETH_PTP_GetSysTime  main.o
    0x08001d5c   0x08001d5c   0x00000026   Code   RO         1524    i.HAL_ETH_PTP_InsertTxTimestamp  stm32h7xx_hal_eth.o
    0x08001d82   0x08001d82   0x00000002   PAD
    0x08001d84   0x08001d84   0x000000f8   Code   RO         1525    i.HAL_ETH_PTP_SetConfig  stm32h7xx_hal_eth.o
    0x08001e7c   0x08001e7c   0x00000016   Code   RO         1526    i.HAL_ETH_PTP_SetTime  stm32h7xx_hal_eth.o
    0x08001e92   0x08001e92   0x00000100   Code   RO         1527    i.HAL_ETH_ReadData  stm32h7xx_hal_eth.o
    0x08001f92   0x08001f92   0x00000078   Code   RO         1528    i.HAL_ETH_ReadPHYRegister  stm32h7xx_hal_eth.o
    0x0800200a   0x0800200a   0x00000002   PAD
    0x0800200c   0x0800200c   0x00000048   Code   RO          781    i.HAL_ETH_RxAllocateCallback  ethernetif.o
    0x08002054   0x08002054   0x00000002   Code   RO         1535    i.HAL_ETH_RxCpltCallback  stm32h7xx_hal_eth.o
    0x08002056   0x08002056   0x00000002   PAD
    0x08002058   0x08002058   0x000000a4   Code   RO          782    i.HAL_ETH_RxLinkCallback  ethernetif.o
    0x080020fc   0x080020fc   0x00000024   Code   RO         1539    i.HAL_ETH_SetMACConfig  stm32h7xx_hal_eth.o
    0x08002120   0x08002120   0x00000078   Code   RO         1541    i.HAL_ETH_SetMDIOClockRange  stm32h7xx_hal_eth.o
    0x08002198   0x08002198   0x000000e0   Code   RO         1546    i.HAL_ETH_Start_IT  stm32h7xx_hal_eth.o
    0x08002278   0x08002278   0x00000074   Code   RO         1547    i.HAL_ETH_Stop      stm32h7xx_hal_eth.o
    0x080022ec   0x080022ec   0x000000f6   Code   RO         1549    i.HAL_ETH_Transmit  stm32h7xx_hal_eth.o
    0x080023e2   0x080023e2   0x00000002   Code   RO         1551    i.HAL_ETH_TxCpltCallback  stm32h7xx_hal_eth.o
    0x080023e4   0x080023e4   0x00000002   Code   RO         1558    i.HAL_ETH_WakeUpCallback  stm32h7xx_hal_eth.o
    0x080023e6   0x080023e6   0x00000002   PAD
    0x080023e8   0x080023e8   0x00000080   Code   RO         1559    i.HAL_ETH_WritePHYRegister  stm32h7xx_hal_eth.o
    0x08002468   0x08002468   0x000001fc   Code   RO         2612    i.HAL_GPIO_Init     stm32h7xx_hal_gpio.o
    0x08002664   0x08002664   0x00000010   Code   RO         2614    i.HAL_GPIO_ReadPin  stm32h7xx_hal_gpio.o
    0x08002674   0x08002674   0x0000000c   Code   RO         2616    i.HAL_GPIO_WritePin  stm32h7xx_hal_gpio.o
    0x08002680   0x08002680   0x0000000c   Code   RO         3630    i.HAL_GetREVID      stm32h7xx_hal.o
    0x0800268c   0x0800268c   0x0000000c   Code   RO         3631    i.HAL_GetTick       stm32h7xx_hal.o
    0x08002698   0x08002698   0x00000018   Code   RO         3637    i.HAL_IncTick       stm32h7xx_hal.o
    0x080026b0   0x080026b0   0x00000060   Code   RO         3638    i.HAL_Init          stm32h7xx_hal.o
    0x08002710   0x08002710   0x00000058   Code   RO         3639    i.HAL_InitTick      stm32h7xx_hal.o
    0x08002768   0x08002768   0x0000005c   Code   RO         3467    i.HAL_MPU_ConfigRegion  stm32h7xx_hal_cortex.o
    0x080027c4   0x080027c4   0x0000002c   Code   RO         3468    i.HAL_MPU_Disable   stm32h7xx_hal_cortex.o
    0x080027f0   0x080027f0   0x00000040   Code   RO         3469    i.HAL_MPU_Enable    stm32h7xx_hal_cortex.o
    0x08002830   0x08002830   0x00000024   Code   RO          655    i.HAL_MspInit       stm32h7xx_hal_msp.o
    0x08002854   0x08002854   0x00000028   Code   RO         3472    i.HAL_NVIC_EnableIRQ  stm32h7xx_hal_cortex.o
    0x0800287c   0x0800287c   0x0000007a   Code   RO         3478    i.HAL_NVIC_SetPriority  stm32h7xx_hal_cortex.o
    0x080028f6   0x080028f6   0x00000002   PAD
    0x080028f8   0x080028f8   0x00000028   Code   RO         3479    i.HAL_NVIC_SetPriorityGrouping  stm32h7xx_hal_cortex.o
    0x08002920   0x08002920   0x00000060   Code   RO         3213    i.HAL_PWREx_ConfigSupply  stm32h7xx_hal_pwr_ex.o
    0x08002980   0x08002980   0x00000024   Code   RO         2163    i.HAL_RCCEx_GetD3PCLK1Freq  stm32h7xx_hal_rcc_ex.o
    0x080029a4   0x080029a4   0x00000230   Code   RO         2165    i.HAL_RCCEx_GetPLL2ClockFreq  stm32h7xx_hal_rcc_ex.o
    0x08002bd4   0x08002bd4   0x00000230   Code   RO         2166    i.HAL_RCCEx_GetPLL3ClockFreq  stm32h7xx_hal_rcc_ex.o
    0x08002e04   0x08002e04   0x00000d68   Code   RO         2172    i.HAL_RCCEx_PeriphCLKConfig  stm32h7xx_hal_rcc_ex.o
    0x08003b6c   0x08003b6c   0x00000320   Code   RO         2048    i.HAL_RCC_ClockConfig  stm32h7xx_hal_rcc.o
    0x08003e8c   0x08003e8c   0x0000004c   Code   RO         2053    i.HAL_RCC_GetHCLKFreq  stm32h7xx_hal_rcc.o
    0x08003ed8   0x08003ed8   0x00000024   Code   RO         2055    i.HAL_RCC_GetPCLK1Freq  stm32h7xx_hal_rcc.o
    0x08003efc   0x08003efc   0x00000024   Code   RO         2056    i.HAL_RCC_GetPCLK2Freq  stm32h7xx_hal_rcc.o
    0x08003f20   0x08003f20   0x0000022c   Code   RO         2057    i.HAL_RCC_GetSysClockFreq  stm32h7xx_hal_rcc.o
    0x0800414c   0x0800414c   0x00000858   Code   RO         2060    i.HAL_RCC_OscConfig  stm32h7xx_hal_rcc.o
    0x080049a4   0x080049a4   0x00000014   Code   RO         3650    i.HAL_SYSCFG_ETHInterfaceSelect  stm32h7xx_hal.o
    0x080049b8   0x080049b8   0x00000034   Code   RO         3483    i.HAL_SYSTICK_Config  stm32h7xx_hal_cortex.o
    0x080049ec   0x080049ec   0x0000004e   Code   RO         4983    i.HAL_UARTEx_DisableFifoMode  stm32h7xx_hal_uart_ex.o
    0x08004a3a   0x08004a3a   0x00000002   Code   RO         4567    i.HAL_UARTEx_RxEventCallback  stm32h7xx_hal_uart.o
    0x08004a3c   0x08004a3c   0x00000002   Code   RO         4991    i.HAL_UARTEx_RxFifoFullCallback  stm32h7xx_hal_uart_ex.o
    0x08004a3e   0x08004a3e   0x0000005e   Code   RO         4992    i.HAL_UARTEx_SetRxFifoThreshold  stm32h7xx_hal_uart_ex.o
    0x08004a9c   0x08004a9c   0x0000005e   Code   RO         4993    i.HAL_UARTEx_SetTxFifoThreshold  stm32h7xx_hal_uart_ex.o
    0x08004afa   0x08004afa   0x00000002   Code   RO         4995    i.HAL_UARTEx_TxFifoEmptyCallback  stm32h7xx_hal_uart_ex.o
    0x08004afc   0x08004afc   0x00000002   Code   RO         4996    i.HAL_UARTEx_WakeupCallback  stm32h7xx_hal_uart_ex.o
    0x08004afe   0x08004afe   0x00000002   Code   RO         4583    i.HAL_UART_ErrorCallback  stm32h7xx_hal_uart.o
    0x08004b00   0x08004b00   0x00000494   Code   RO         4586    i.HAL_UART_IRQHandler  stm32h7xx_hal_uart.o
    0x08004f94   0x08004f94   0x00000078   Code   RO         4587    i.HAL_UART_Init     stm32h7xx_hal_uart.o
    0x0800500c   0x0800500c   0x000000ac   Code   RO          526    i.HAL_UART_MspInit  usart.o
    0x080050b8   0x080050b8   0x00000002   Code   RO         4599    i.HAL_UART_TxCpltCallback  stm32h7xx_hal_uart.o
    0x080050ba   0x080050ba   0x00000004   Code   RO          570    i.HardFault_Handler  stm32h7xx_it.o
    0x080050be   0x080050be   0x00000002   PAD
    0x080050c0   0x080050c0   0x00000054   Code   RO          223    i.IIC_Ack           myiic.o
    0x08005114   0x08005114   0x00000058   Code   RO          224    i.IIC_Init          myiic.o
    0x0800516c   0x0800516c   0x00000054   Code   RO          225    i.IIC_NAck          myiic.o
    0x080051c0   0x080051c0   0x0000006c   Code   RO          226    i.IIC_Read_Byte     myiic.o
    0x0800522c   0x0800522c   0x0000007c   Code   RO          227    i.IIC_Send_Byte     myiic.o
    0x080052a8   0x080052a8   0x00000054   Code   RO          228    i.IIC_Start         myiic.o
    0x080052fc   0x080052fc   0x00000054   Code   RO          229    i.IIC_Stop          myiic.o
    0x08005350   0x08005350   0x00000068   Code   RO          230    i.IIC_Wait_Ack      myiic.o
    0x080053b8   0x080053b8   0x000000ea   Code   RO         1396    i.LAN8742_GetLinkState  lan8742.o
    0x080054a2   0x080054a2   0x00000106   Code   RO         1397    i.LAN8742_Init      lan8742.o
    0x080055a8   0x080055a8   0x0000002e   Code   RO         1398    i.LAN8742_RegisterBusIO  lan8742.o
    0x080055d6   0x080055d6   0x00000002   PAD
    0x080055d8   0x080055d8   0x00000060   Code   RO          300    i.MPU_Config        main.o
    0x08005638   0x08005638   0x0000008c   Code   RO          501    i.MX_GPIO_Init      gpio.o
    0x080056c4   0x080056c4   0x00000240   Code   RO          935    i.MX_LWIP_Init      lwip.o
    0x08005904   0x08005904   0x00000014   Code   RO          936    i.MX_LWIP_Process   lwip.o
    0x08005918   0x08005918   0x0000006c   Code   RO          527    i.MX_USART1_UART_Init  usart.o
    0x08005984   0x08005984   0x00000004   Code   RO          571    i.MemManage_Handler  stm32h7xx_it.o
    0x08005988   0x08005988   0x00000004   Code   RO          572    i.NMI_Handler       stm32h7xx_it.o
    0x0800598c   0x0800598c   0x00000068   Code   RO           13    i.PCF8574_Init      pcf8574.o
    0x080059f4   0x080059f4   0x00000022   Code   RO           15    i.PCF8574_ReadOneByte  pcf8574.o
    0x08005a16   0x08005a16   0x00000026   Code   RO           16    i.PCF8574_WriteBit  pcf8574.o
    0x08005a3c   0x08005a3c   0x00000028   Code   RO           17    i.PCF8574_WriteOneByte  pcf8574.o
    0x08005a64   0x08005a64   0x00000002   Code   RO          573    i.PendSV_Handler    stm32h7xx_it.o
    0x08005a66   0x08005a66   0x00000002   PAD
    0x08005a68   0x08005a68   0x00000164   Code   RO         2175    i.RCCEx_PLL2_Config  stm32h7xx_hal_rcc_ex.o
    0x08005bcc   0x08005bcc   0x00000164   Code   RO         2176    i.RCCEx_PLL3_Config  stm32h7xx_hal_rcc_ex.o
    0x08005d30   0x08005d30   0x00000002   Code   RO          574    i.SVC_Handler       stm32h7xx_it.o
    0x08005d32   0x08005d32   0x00000008   Code   RO          575    i.SysTick_Handler   stm32h7xx_it.o
    0x08005d3a   0x08005d3a   0x00000002   PAD
    0x08005d3c   0x08005d3c   0x0000013c   Code   RO          301    i.SystemClock_Config  main.o
    0x08005e78   0x08005e78   0x000000fc   Code   RO         5107    i.SystemInit        system_stm32h7xx.o
    0x08005f74   0x08005f74   0x000000ac   Code   RO         1283    i.TCP_Server_Init   tcp_server.o
    0x08006020   0x08006020   0x00000058   Code   RO         4997    i.UARTEx_SetNbDataToProcess  stm32h7xx_hal_uart_ex.o
    0x08006078   0x08006078   0x000000f8   Code   RO         4601    i.UART_AdvFeatureConfig  stm32h7xx_hal_uart.o
    0x08006170   0x08006170   0x000000ea   Code   RO         4602    i.UART_CheckIdleState  stm32h7xx_hal_uart.o
    0x0800625a   0x0800625a   0x00000018   Code   RO         4603    i.UART_DMAAbortOnError  stm32h7xx_hal_uart.o
    0x08006272   0x08006272   0x00000002   PAD
    0x08006274   0x08006274   0x0000006c   Code   RO         4613    i.UART_EndRxTransfer  stm32h7xx_hal_uart.o
    0x080062e0   0x080062e0   0x00000030   Code   RO         4614    i.UART_EndTransmit_IT  stm32h7xx_hal_uart.o
    0x08006310   0x08006310   0x0000058c   Code   RO         4620    i.UART_SetConfig    stm32h7xx_hal_uart.o
    0x0800689c   0x0800689c   0x000000a2   Code   RO         4627    i.UART_WaitOnFlagUntilTimeout  stm32h7xx_hal_uart.o
    0x0800693e   0x0800693e   0x00000002   PAD
    0x08006940   0x08006940   0x00000010   Code   RO          576    i.USART1_IRQHandler  stm32h7xx_it.o
    0x08006950   0x08006950   0x00000078   Code   RO         1045    i.Udp_Lwip_Init     lwip_udp.o
    0x080069c8   0x080069c8   0x00000004   Code   RO          577    i.UsageFault_Handler  stm32h7xx_it.o
    0x080069cc   0x080069cc   0x00000020   Code   RO         9169    i.__0printf$5       mc_w.l(printf5.o)
    0x080069ec   0x080069ec   0x00000010   Code   RO         3485    i.__NVIC_GetPriorityGrouping  stm32h7xx_hal_cortex.o
    0x080069fc   0x080069fc   0x00000028   Code   RO         3486    i.__NVIC_SetPriority  stm32h7xx_hal_cortex.o
    0x08006a24   0x08006a24   0x0000000e   Code   RO         9354    i.__scatterload_copy  mc_w.l(handlers.o)
    0x08006a32   0x08006a32   0x00000002   Code   RO         9355    i.__scatterload_null  mc_w.l(handlers.o)
    0x08006a34   0x08006a34   0x0000000e   Code   RO         9356    i.__scatterload_zeroinit  mc_w.l(handlers.o)
    0x08006a42   0x08006a42   0x00000002   PAD
    0x08006a44   0x08006a44   0x000002c0   Code   RO         9176    i._printf_core      mc_w.l(printf5.o)
    0x08006d04   0x08006d04   0x00000118   Code   RO         1125    i.client_set_remote_ip  tcp_client.o
    0x08006e1c   0x08006e1c   0x00000018   Code   RO          680    i.delay_ms          delay.o
    0x08006e34   0x08006e34   0x00000048   Code   RO          681    i.delay_us          delay.o
    0x08006e7c   0x08006e7c   0x000000ac   Code   RO         6629    i.do_memp_free_pool  memp.o
    0x08006f28   0x08006f28   0x000000b4   Code   RO         6630    i.do_memp_malloc_pool  memp.o
    0x08006fdc   0x08006fdc   0x00000038   Code   RO         8127    i.etharp_cleanup_netif  etharp.o
    0x08007014   0x08007014   0x00000300   Code   RO         8129    i.etharp_find_entry  etharp.o
    0x08007314   0x08007314   0x00000040   Code   RO         8130    i.etharp_free_entry  etharp.o
    0x08007354   0x08007354   0x0000013c   Code   RO         8132    i.etharp_input      etharp.o
    0x08007490   0x08007490   0x00000224   Code   RO         8133    i.etharp_output     etharp.o
    0x080076b4   0x080076b4   0x00000168   Code   RO         8134    i.etharp_output_to_arp_index  etharp.o
    0x0800781c   0x0800781c   0x000002a4   Code   RO         8135    i.etharp_query      etharp.o
    0x08007ac0   0x08007ac0   0x0000018c   Code   RO         8136    i.etharp_raw        etharp.o
    0x08007c4c   0x08007c4c   0x00000018   Code   RO         8137    i.etharp_request    etharp.o
    0x08007c64   0x08007c64   0x0000002c   Code   RO         8138    i.etharp_request_dst  etharp.o
    0x08007c90   0x08007c90   0x000000dc   Code   RO         8139    i.etharp_tmr        etharp.o
    0x08007d6c   0x08007d6c   0x0000015c   Code   RO         8140    i.etharp_update_arp_entry  etharp.o
    0x08007ec8   0x08007ec8   0x000000c4   Code   RO         5797    i.ethernet_input    ethernet.o
    0x08007f8c   0x08007f8c   0x000000cc   Code   RO          784    i.ethernet_link_check_state  ethernetif.o
    0x08008058   0x08008058   0x00000060   Code   RO          937    i.ethernet_link_status_updated  lwip.o
    0x080080b8   0x080080b8   0x00000104   Code   RO         5798    i.ethernet_output   ethernet.o
    0x080081bc   0x080081bc   0x00000098   Code   RO          785    i.ethernetif_init   ethernetif.o
    0x08008254   0x08008254   0x00000064   Code   RO          786    i.ethernetif_input  ethernetif.o
    0x080082b8   0x080082b8   0x0000001c   Code   RO          302    i.fputc             main.o
    0x080082d4   0x080082d4   0x00000012   Code   RO         8234    i.icmp_dest_unreach  icmp.o
    0x080082e6   0x080082e6   0x00000002   PAD
    0x080082e8   0x080082e8   0x000002a4   Code   RO         8235    i.icmp_input        icmp.o
    0x0800858c   0x0800858c   0x00000124   Code   RO         8236    i.icmp_send_response  icmp.o
    0x080086b0   0x080086b0   0x00000012   Code   RO         8237    i.icmp_time_exceeded  icmp.o
    0x080086c2   0x080086c2   0x00000014   Code   RO         6370    i.inet_chksum       inet_chksum.o
    0x080086d6   0x080086d6   0x00000056   Code   RO         6371    i.inet_chksum_pbuf  inet_chksum.o
    0x0800872c   0x0800872c   0x0000004e   Code   RO         8364    i.ip4_addr_isbroadcast_u32  ip4_addr.o
    0x0800877a   0x0800877a   0x00000002   PAD
    0x0800877c   0x0800877c   0x000002cc   Code   RO         8436    i.ip4_frag          ip4_frag.o
    0x08008a48   0x08008a48   0x0000019c   Code   RO         8305    i.ip4_input         ip4.o
    0x08008be4   0x08008be4   0x00000034   Code   RO         8306    i.ip4_input_accept  ip4.o
    0x08008c18   0x08008c18   0x00000036   Code   RO         8308    i.ip4_output_if     ip4.o
    0x08008c4e   0x08008c4e   0x00000002   PAD
    0x08008c50   0x08008c50   0x0000019c   Code   RO         8309    i.ip4_output_if_src  ip4.o
    0x08008dec   0x08008dec   0x000002fc   Code   RO         8437    i.ip4_reass         ip4_frag.o
    0x080090e8   0x080090e8   0x00000094   Code   RO         8310    i.ip4_route         ip4.o
    0x0800917c   0x0800917c   0x0000000a   Code   RO         8438    i.ip_frag_alloc_pbuf_custom_ref  ip4_frag.o
    0x08009186   0x08009186   0x00000002   PAD
    0x08009188   0x08009188   0x00000098   Code   RO         8439    i.ip_frag_free_pbuf_custom_ref  ip4_frag.o
    0x08009220   0x08009220   0x00000304   Code   RO         8440    i.ip_reass_chain_frag_into_datagram_and_validate  ip4_frag.o
    0x08009524   0x08009524   0x000000c4   Code   RO         8441    i.ip_reass_dequeue_datagram  ip4_frag.o
    0x080095e8   0x080095e8   0x00000054   Code   RO         8442    i.ip_reass_enqueue_new_datagram  ip4_frag.o
    0x0800963c   0x0800963c   0x000001e0   Code   RO         8443    i.ip_reass_free_complete_datagram  ip4_frag.o
    0x0800981c   0x0800981c   0x00000088   Code   RO         8444    i.ip_reass_remove_oldest_datagram  ip4_frag.o
    0x080098a4   0x080098a4   0x00000034   Code   RO         8445    i.ip_reass_tmr      ip4_frag.o
    0x080098d8   0x080098d8   0x000000c8   Code   RO         8446    i.ipfrag_free_pbuf_custom  ip4_frag.o
    0x080099a0   0x080099a0   0x000000fc   Code   RO          787    i.low_level_init    ethernetif.o
    0x08009a9c   0x08009a9c   0x000000a4   Code   RO          788    i.low_level_input   ethernetif.o
    0x08009b40   0x08009b40   0x0000012c   Code   RO          789    i.low_level_output  ethernetif.o
    0x08009c6c   0x08009c6c   0x00000050   Code   RO         7857    i.lwip_cyclic_timer  timeouts.o
    0x08009cbc   0x08009cbc   0x0000001a   Code   RO         6290    i.lwip_htonl        def.o
    0x08009cd6   0x08009cd6   0x0000000c   Code   RO         6291    i.lwip_htons        def.o
    0x08009ce2   0x08009ce2   0x00000002   PAD
    0x08009ce4   0x08009ce4   0x0000009c   Code   RO         6454    i.lwip_init         init.o
    0x08009d80   0x08009d80   0x0000005e   Code   RO         6378    i.lwip_standard_chksum  inet_chksum.o
    0x08009dde   0x08009dde   0x00000002   PAD
    0x08009de0   0x08009de0   0x00000024   Code   RO         1046    i.lwip_udp_discollected  lwip_udp.o
    0x08009e04   0x08009e04   0x000000e0   Code   RO         1047    i.lwip_udp_recv_callback  lwip_udp.o
    0x08009ee4   0x08009ee4   0x0000001c   Code   RO         1048    i.lwip_udp_register  lwip_udp.o
    0x08009f00   0x08009f00   0x00000038   Code   RO         1049    i.lwip_udp_send     lwip_udp.o
    0x08009f38   0x08009f38   0x00000110   Code   RO         1050    i.lwip_udp_set_remote_ip  lwip_udp.o
    0x0800a048   0x0800a048   0x000001ac   Code   RO          303    i.main              main.o
    0x0800a1f4   0x0800a1f4   0x000001c4   Code   RO         6556    i.mem_free          mem.o
    0x0800a3b8   0x0800a3b8   0x00000058   Code   RO         6557    i.mem_init          mem.o
    0x0800a410   0x0800a410   0x00000058   Code   RO         6558    i.mem_link_valid    mem.o
    0x0800a468   0x0800a468   0x000002a8   Code   RO         6559    i.mem_malloc        mem.o
    0x0800a710   0x0800a710   0x00000010   Code   RO         6560    i.mem_to_ptr        mem.o
    0x0800a720   0x0800a720   0x00000234   Code   RO         6561    i.mem_trim          mem.o
    0x0800a954   0x0800a954   0x000000b0   Code   RO         6631    i.memp_free         memp.o
    0x0800aa04   0x0800aa04   0x000000a0   Code   RO         6632    i.memp_free_pool    memp.o
    0x0800aaa4   0x0800aaa4   0x00000020   Code   RO         6633    i.memp_init         memp.o
    0x0800aac4   0x0800aac4   0x0000002c   Code   RO         6634    i.memp_init_pool    memp.o
    0x0800aaf0   0x0800aaf0   0x000000b0   Code   RO         6635    i.memp_malloc       memp.o
    0x0800aba0   0x0800aba0   0x00000098   Code   RO         6636    i.memp_malloc_pool  memp.o
    0x0800ac38   0x0800ac38   0x00000230   Code   RO         6742    i.netif_add         netif.o
    0x0800ae68   0x0800ae68   0x00000018   Code   RO         6744    i.netif_do_ip_addr_changed  netif.o
    0x0800ae80   0x0800ae80   0x00000026   Code   RO         6745    i.netif_do_set_gw   netif.o
    0x0800aea6   0x0800aea6   0x00000002   PAD
    0x0800aea8   0x0800aea8   0x000000e0   Code   RO         6746    i.netif_do_set_ipaddr  netif.o
    0x0800af88   0x0800af88   0x00000026   Code   RO         6747    i.netif_do_set_netmask  netif.o
    0x0800afae   0x0800afae   0x00000002   PAD
    0x0800afb0   0x0800afb0   0x00000028   Code   RO         6749    i.netif_get_by_index  netif.o
    0x0800afd8   0x0800afd8   0x00000002   Code   RO         6751    i.netif_init        netif.o
    0x0800afda   0x0800afda   0x00000002   PAD
    0x0800afdc   0x0800afdc   0x000000d8   Code   RO         6753    i.netif_issue_reports  netif.o
    0x0800b0b4   0x0800b0b4   0x00000008   Code   RO         6755    i.netif_null_output_ip4  netif.o
    0x0800b0bc   0x0800b0bc   0x00000060   Code   RO         6757    i.netif_set_addr    netif.o
    0x0800b11c   0x0800b11c   0x0000000c   Code   RO         6758    i.netif_set_default  netif.o
    0x0800b128   0x0800b128   0x000000cc   Code   RO         6759    i.netif_set_down    netif.o
    0x0800b1f4   0x0800b1f4   0x00000006   Code   RO         6762    i.netif_set_link_callback  netif.o
    0x0800b1fa   0x0800b1fa   0x00000002   PAD
    0x0800b1fc   0x0800b1fc   0x000000cc   Code   RO         6763    i.netif_set_link_down  netif.o
    0x0800b2c8   0x0800b2c8   0x000000d4   Code   RO         6764    i.netif_set_link_up  netif.o
    0x0800b39c   0x0800b39c   0x000000c0   Code   RO         6766    i.netif_set_up      netif.o
    0x0800b45c   0x0800b45c   0x00000012   Code   RO         6935    i.pbuf_add_header   pbuf.o
    0x0800b46e   0x0800b46e   0x00000002   PAD
    0x0800b470   0x0800b470   0x000000e8   Code   RO         6937    i.pbuf_add_header_impl  pbuf.o
    0x0800b558   0x0800b558   0x000002a4   Code   RO         6938    i.pbuf_alloc        pbuf.o
    0x0800b7fc   0x0800b7fc   0x000000bc   Code   RO         6939    i.pbuf_alloc_reference  pbuf.o
    0x0800b8b8   0x0800b8b8   0x00000052   Code   RO         6940    i.pbuf_alloced_custom  pbuf.o
    0x0800b90a   0x0800b90a   0x00000002   PAD
    0x0800b90c   0x0800b90c   0x00000150   Code   RO         6941    i.pbuf_cat          pbuf.o
    0x0800ba5c   0x0800ba5c   0x00000016   Code   RO         6942    i.pbuf_chain        pbuf.o
    0x0800ba72   0x0800ba72   0x00000012   Code   RO         6943    i.pbuf_clen         pbuf.o
    0x0800ba84   0x0800ba84   0x000000b0   Code   RO         6944    i.pbuf_clone        pbuf.o
    0x0800bb34   0x0800bb34   0x00000228   Code   RO         6946    i.pbuf_copy         pbuf.o
    0x0800bd5c   0x0800bd5c   0x00000140   Code   RO         6947    i.pbuf_copy_partial  pbuf.o
    0x0800be9c   0x0800be9c   0x0000019c   Code   RO         6949    i.pbuf_free         pbuf.o
    0x0800c038   0x0800c038   0x00000028   Code   RO          790    i.pbuf_free_custom  ethernetif.o
    0x0800c060   0x0800c060   0x00000030   Code   RO         6951    i.pbuf_free_ooseq   pbuf.o
    0x0800c090   0x0800c090   0x00000012   Code   RO         6955    i.pbuf_header_force  pbuf.o
    0x0800c0a2   0x0800c0a2   0x00000022   Code   RO         6956    i.pbuf_header_impl  pbuf.o
    0x0800c0c4   0x0800c0c4   0x0000001e   Code   RO         6957    i.pbuf_init_alloced_pbuf  pbuf.o
    0x0800c0e2   0x0800c0e2   0x00000002   PAD
    0x0800c0e4   0x0800c0e4   0x00000010   Code   RO         6960    i.pbuf_pool_is_empty  pbuf.o
    0x0800c0f4   0x0800c0f4   0x00000168   Code   RO         6962    i.pbuf_realloc      pbuf.o
    0x0800c25c   0x0800c25c   0x0000009c   Code   RO         6963    i.pbuf_ref          pbuf.o
    0x0800c2f8   0x0800c2f8   0x000000f4   Code   RO         6964    i.pbuf_remove_header  pbuf.o
    0x0800c3ec   0x0800c3ec   0x000001c8   Code   RO         6968    i.pbuf_take         pbuf.o
    0x0800c5b4   0x0800c5b4   0x000001d8   Code   RO         6562    i.plug_holes        mem.o
    0x0800c78c   0x0800c78c   0x00000010   Code   RO         6563    i.ptr_to_mem        mem.o
    0x0800c79c   0x0800c79c   0x00000110   Code   RO         1284    i.server_set_local_ip  tcp_server.o
    0x0800c8ac   0x0800c8ac   0x00000064   Code   RO         7858    i.sys_check_timeouts  timeouts.o
    0x0800c910   0x0800c910   0x00000008   Code   RO          791    i.sys_now           ethernetif.o
    0x0800c918   0x0800c918   0x000000d0   Code   RO         7860    i.sys_timeout       timeouts.o
    0x0800c9e8   0x0800c9e8   0x00000140   Code   RO         7861    i.sys_timeout_abs   timeouts.o
    0x0800cb28   0x0800cb28   0x00000028   Code   RO         7862    i.sys_timeouts_init  timeouts.o
    0x0800cb50   0x0800cb50   0x000001d4   Code   RO         7255    i.tcp_abandon       tcp.o
    0x0800cd24   0x0800cd24   0x0000000e   Code   RO         7256    i.tcp_abort         tcp.o
    0x0800cd32   0x0800cd32   0x00000010   Code   RO         7257    i.tcp_accept        tcp.o
    0x0800cd42   0x0800cd42   0x00000002   PAD
    0x0800cd44   0x0800cd44   0x000000a8   Code   RO         7258    i.tcp_accept_null   tcp.o
    0x0800cdec   0x0800cdec   0x000000bc   Code   RO         7259    i.tcp_alloc         tcp.o
    0x0800cea8   0x0800cea8   0x00000006   Code   RO         7260    i.tcp_arg           tcp.o
    0x0800ceae   0x0800ceae   0x00000002   PAD
    0x0800ceb0   0x0800ceb0   0x00000170   Code   RO         7261    i.tcp_bind          tcp.o
    0x0800d020   0x0800d020   0x00000040   Code   RO         1285    i.tcp_client_connection_close  tcp_server.o
    0x0800d060   0x0800d060   0x000000b0   Code   RO         7263    i.tcp_close         tcp.o
    0x0800d110   0x0800d110   0x0000020c   Code   RO         7264    i.tcp_close_shutdown  tcp.o
    0x0800d31c   0x0800d31c   0x000000e8   Code   RO         7265    i.tcp_close_shutdown_fin  tcp.o
    0x0800d404   0x0800d404   0x000001d4   Code   RO         7693    i.tcp_create_segment  tcp_out.o
    0x0800d5d8   0x0800d5d8   0x000000d4   Code   RO         7268    i.tcp_eff_send_mss_netif  tcp.o
    0x0800d6ac   0x0800d6ac   0x000002c0   Code   RO         7694    i.tcp_enqueue_flags  tcp_out.o
    0x0800d96c   0x0800d96c   0x000000ac   Code   RO         7269    i.tcp_err           tcp.o
    0x0800da18   0x0800da18   0x0000009c   Code   RO         7270    i.tcp_fasttmr       tcp.o
    0x0800dab4   0x0800dab4   0x00000094   Code   RO         7271    i.tcp_free          tcp.o
    0x0800db48   0x0800db48   0x0000015c   Code   RO         7600    i.tcp_free_acked_segments  tcp_in.o
    0x0800dca4   0x0800dca4   0x0000009c   Code   RO         7272    i.tcp_free_listen   tcp.o
    0x0800dd40   0x0800dd40   0x00000014   Code   RO         7273    i.tcp_free_ooseq    tcp.o
    0x0800dd54   0x0800dd54   0x00000048   Code   RO         7601    i.tcp_get_next_optbyte  tcp_in.o
    0x0800dd9c   0x0800dd9c   0x00000034   Code   RO         7274    i.tcp_handle_closepend  tcp.o
    0x0800ddd0   0x0800ddd0   0x00000018   Code   RO         7275    i.tcp_init          tcp.o
    0x0800dde8   0x0800dde8   0x00000818   Code   RO         7602    i.tcp_input         tcp_in.o
    0x0800e600   0x0800e600   0x000000e8   Code   RO         7603    i.tcp_input_delayed_close  tcp_in.o
    0x0800e6e8   0x0800e6e8   0x000000dc   Code   RO         7695    i.tcp_keepalive     tcp_out.o
    0x0800e7c4   0x0800e7c4   0x00000068   Code   RO         7276    i.tcp_kill_prio     tcp.o
    0x0800e82c   0x0800e82c   0x000000d0   Code   RO         7277    i.tcp_kill_state    tcp.o
    0x0800e8fc   0x0800e8fc   0x0000003c   Code   RO         7278    i.tcp_kill_timewait  tcp.o
    0x0800e938   0x0800e938   0x000000d4   Code   RO         7279    i.tcp_listen_closed  tcp.o
    0x0800ea0c   0x0800ea0c   0x000001f4   Code   RO         7604    i.tcp_listen_input  tcp_in.o
    0x0800ec00   0x0800ec00   0x00000012   Code   RO         7280    i.tcp_listen_with_backlog  tcp.o
    0x0800ec12   0x0800ec12   0x00000002   PAD
    0x0800ec14   0x0800ec14   0x000001c4   Code   RO         7281    i.tcp_listen_with_backlog_and_err  tcp.o
    0x0800edd8   0x0800edd8   0x0000004c   Code   RO         7282    i.tcp_netif_ip_addr_changed  tcp.o
    0x0800ee24   0x0800ee24   0x000000d0   Code   RO         7283    i.tcp_netif_ip_addr_changed_pcblist  tcp.o
    0x0800eef4   0x0800eef4   0x0000000a   Code   RO         7284    i.tcp_new           tcp.o
    0x0800eefe   0x0800eefe   0x00000002   PAD
    0x0800ef00   0x0800ef00   0x00000068   Code   RO         7286    i.tcp_new_port      tcp.o
    0x0800ef68   0x0800ef68   0x000000b0   Code   RO         7287    i.tcp_next_iss      tcp.o
    0x0800f018   0x0800f018   0x0000012c   Code   RO         7605    i.tcp_oos_insert_segment  tcp_in.o
    0x0800f144   0x0800f144   0x00000364   Code   RO         7696    i.tcp_output        tcp_out.o
    0x0800f4a8   0x0800f4a8   0x000000dc   Code   RO         7697    i.tcp_output_alloc_header  tcp_out.o
    0x0800f584   0x0800f584   0x00000124   Code   RO         7698    i.tcp_output_alloc_header_common  tcp_out.o
    0x0800f6a8   0x0800f6a8   0x000000fc   Code   RO         7699    i.tcp_output_control_segment  tcp_out.o
    0x0800f7a4   0x0800f7a4   0x00000124   Code   RO         7700    i.tcp_output_fill_options  tcp_out.o
    0x0800f8c8   0x0800f8c8   0x0000024c   Code   RO         7701    i.tcp_output_segment  tcp_out.o
    0x0800fb14   0x0800fb14   0x000000b4   Code   RO         7702    i.tcp_output_segment_busy  tcp_out.o
    0x0800fbc8   0x0800fbc8   0x00000130   Code   RO         7606    i.tcp_parseopt      tcp_in.o
    0x0800fcf8   0x0800fcf8   0x00000178   Code   RO         7703    i.tcp_pbuf_prealloc  tcp_out.o
    0x0800fe70   0x0800fe70   0x000000dc   Code   RO         7288    i.tcp_pcb_purge     tcp.o
    0x0800ff4c   0x0800ff4c   0x000001d8   Code   RO         7289    i.tcp_pcb_remove    tcp.o
    0x08010124   0x08010124   0x000000dc   Code   RO         7290    i.tcp_poll          tcp.o
    0x08010200   0x08010200   0x00000744   Code   RO         7607    i.tcp_process       tcp_in.o
    0x08010944   0x08010944   0x00000138   Code   RO         7291    i.tcp_process_refused_data  tcp.o
    0x08010a7c   0x08010a7c   0x00000c7c   Code   RO         7608    i.tcp_receive       tcp_in.o
    0x080116f8   0x080116f8   0x000000ac   Code   RO         7292    i.tcp_recv          tcp.o
    0x080117a4   0x080117a4   0x000000c4   Code   RO         7293    i.tcp_recv_null     tcp.o
    0x08011868   0x08011868   0x0000011c   Code   RO         7294    i.tcp_recved        tcp.o
    0x08011984   0x08011984   0x000000b4   Code   RO         7295    i.tcp_remove_listener  tcp.o
    0x08011a38   0x08011a38   0x00000104   Code   RO         7704    i.tcp_rexmit        tcp_out.o
    0x08011b3c   0x08011b3c   0x0000010c   Code   RO         7705    i.tcp_rexmit_fast   tcp_out.o
    0x08011c48   0x08011c48   0x000000a8   Code   RO         7706    i.tcp_rexmit_rto    tcp_out.o
    0x08011cf0   0x08011cf0   0x000000b8   Code   RO         7707    i.tcp_rexmit_rto_commit  tcp_out.o
    0x08011da8   0x08011da8   0x00000118   Code   RO         7708    i.tcp_rexmit_rto_prepare  tcp_out.o
    0x08011ec0   0x08011ec0   0x0000001e   Code   RO         7709    i.tcp_route         tcp_out.o
    0x08011ede   0x08011ede   0x00000002   PAD
    0x08011ee0   0x08011ee0   0x00000128   Code   RO         7710    i.tcp_rst           tcp_out.o
    0x08012008   0x08012008   0x000000b4   Code   RO         7296    i.tcp_seg_copy      tcp.o
    0x080120bc   0x080120bc   0x0000001a   Code   RO         7297    i.tcp_seg_free      tcp.o
    0x080120d6   0x080120d6   0x00000018   Code   RO         7298    i.tcp_segs_free     tcp.o
    0x080120ee   0x080120ee   0x00000002   PAD
    0x080120f0   0x080120f0   0x00000140   Code   RO         7711    i.tcp_send_empty_ack  tcp_out.o
    0x08012230   0x08012230   0x000000e0   Code   RO         7712    i.tcp_send_fin      tcp_out.o
    0x08012310   0x08012310   0x000000ac   Code   RO         7299    i.tcp_sent          tcp.o
    0x080123bc   0x080123bc   0x00000060   Code   RO         1286    i.tcp_server_accept_cbk  tcp_server.o
    0x0801241c   0x0801241c   0x0000004c   Code   RO         1287    i.tcp_server_err_cbk  tcp_server.o
    0x08012468   0x08012468   0x0000003c   Code   RO         1288    i.tcp_server_poll_cbk  tcp_server.o
    0x080124a4   0x080124a4   0x000000dc   Code   RO         1289    i.tcp_server_recv_cbk  tcp_server.o
    0x08012580   0x08012580   0x0000003c   Code   RO         1290    i.tcp_server_sent_cbk  tcp_server.o
    0x080125bc   0x080125bc   0x00000730   Code   RO         7302    i.tcp_slowtmr       tcp.o
    0x08012cec   0x08012cec   0x000002d0   Code   RO         7713    i.tcp_split_unsent_seg  tcp_out.o
    0x08012fbc   0x08012fbc   0x00000038   Code   RO         7865    i.tcp_timer_needed  timeouts.o
    0x08012ff4   0x08012ff4   0x00000144   Code   RO         7609    i.tcp_timewait_input  tcp_in.o
    0x08013138   0x08013138   0x00000024   Code   RO         7304    i.tcp_tmr           tcp.o
    0x0801315c   0x0801315c   0x00000014   Code   RO         7610    i.tcp_trigger_input_pcb_close  tcp_in.o
    0x08013170   0x08013170   0x00000118   Code   RO         7306    i.tcp_update_rcv_ann_wnd  tcp.o
    0x08013288   0x08013288   0x00000824   Code   RO         7714    i.tcp_write         tcp_out.o
    0x08013aac   0x08013aac   0x000001b4   Code   RO         7715    i.tcp_write_checks  tcp_out.o
    0x08013c60   0x08013c60   0x00000170   Code   RO         7716    i.tcp_zero_window_probe  tcp_out.o
    0x08013dd0   0x08013dd0   0x00000038   Code   RO         7866    i.tcpip_tcp_timer   timeouts.o
    0x08013e08   0x08013e08   0x00000124   Code   RO         7949    i.udp_bind          udp.o
    0x08013f2c   0x08013f2c   0x00000134   Code   RO         7951    i.udp_connect       udp.o
    0x08014060   0x08014060   0x000000ac   Code   RO         7952    i.udp_disconnect    udp.o
    0x0801410c   0x0801410c   0x00000018   Code   RO         7953    i.udp_init          udp.o
    0x08014124   0x08014124   0x0000024c   Code   RO         7954    i.udp_input         udp.o
    0x08014370   0x08014370   0x00000138   Code   RO         7955    i.udp_input_local_match  udp.o
    0x080144a8   0x080144a8   0x00000030   Code   RO         7956    i.udp_netif_ip_addr_changed  udp.o
    0x080144d8   0x080144d8   0x0000001c   Code   RO         7957    i.udp_new           udp.o
    0x080144f4   0x080144f4   0x00000058   Code   RO         7959    i.udp_new_port      udp.o
    0x0801454c   0x0801454c   0x0000009c   Code   RO         7960    i.udp_recv          udp.o
    0x080145e8   0x080145e8   0x000000d4   Code   RO         7961    i.udp_remove        udp.o
    0x080146bc   0x080146bc   0x000000dc   Code   RO         7962    i.udp_send          udp.o
    0x08014798   0x08014798   0x00000144   Code   RO         7963    i.udp_sendto        udp.o
    0x080148dc   0x080148dc   0x00000198   Code   RO         7964    i.udp_sendto_if     udp.o
    0x08014a74   0x08014a74   0x000002b4   Code   RO         7965    i.udp_sendto_if_src  udp.o
    0x08014d28   0x08014d28   0x00000004   Data   RO          305    .constdata          main.o
    0x08014d2c   0x08014d2c   0x0000000c   Data   RO          795    .constdata          ethernetif.o
    0x08014d38   0x08014d38   0x00000018   Data   RO         4628    .constdata          stm32h7xx_hal_uart.o
    0x08014d50   0x08014d50   0x00000010   Data   RO         4999    .constdata          stm32h7xx_hal_uart_ex.o
    0x08014d60   0x08014d60   0x00000010   Data   RO         5108    .constdata          system_stm32h7xx.o
    0x08014d70   0x08014d70   0x0000000c   Data   RO         5799    .constdata          ethernet.o
    0x08014d7c   0x08014d7c   0x00000090   Data   RO         6638    .constdata          memp.o
    0x08014e0c   0x08014e0c   0x00000050   Data   RO         7307    .constdata          tcp.o
    0x08014e5c   0x08014e5c   0x0000001c   Data   RO         7867    .constdata          timeouts.o
    0x08014e78   0x08014e78   0x00000008   Data   RO         8371    .constdata          ip4_addr.o
    0x08014e80   0x08014e80   0x00000041   Data   RO         6455    .conststring        init.o
    0x08014ec1   0x08014ec1   0x00000003   PAD
    0x08014ec4   0x08014ec4   0x00000075   Data   RO         7308    .conststring        tcp.o
    0x08014f39   0x08014f39   0x00000003   PAD
    0x08014f3c   0x08014f3c   0x00000055   Data   RO         7717    .conststring        tcp_out.o
    0x08014f91   0x08014f91   0x00000003   PAD
    0x08014f94   0x08014f94   0x00000041   Data   RO         8142    .conststring        etharp.o
    0x08014fd5   0x08014fd5   0x00000003   PAD
    0x08014fd8   0x08014fd8   0x00000020   Data   RO         9352    Region$$Table       anon$$obj.o


    Execution Region RW_IRAM1 (Exec base: 0x20000000, Load base: 0x08014ff8, Size: 0x00000000, Max: 0x00020000, ABSOLUTE)

    **** No section assigned to this execution region ****


    Execution Region RW_IRAM2 (Exec base: 0x24000000, Load base: 0x08014ff8, Size: 0x0000e608, Max: 0x00080000, ABSOLUTE, COMPRESSED[0x000000cc])

    Exec Addr    Load Addr    Size         Type   Attr      Idx    E Section Name        Object

    0x24000000   COMPRESSED   0x00000004   Data   RW          682    .data               delay.o
    0x24000004   COMPRESSED   0x0000001c   Data   RW          796    .data               ethernetif.o
    0x24000020   COMPRESSED   0x0000001c   Data   RW          943    .data               lwip.o
    0x2400003c   COMPRESSED   0x00000004   PAD
    0x24000040   COMPRESSED   0x00000cb4   Data   RW         1051    .data               lwip_udp.o
    0x24000cf4   COMPRESSED   0x0000000c   PAD
    0x24000d00   COMPRESSED   0x00000cbc   Data   RW         1131    .data               tcp_client.o
    0x240019bc   COMPRESSED   0x00000004   PAD
    0x240019c0   COMPRESSED   0x00000cb4   Data   RW         1291    .data               tcp_server.o
    0x24002674   COMPRESSED   0x00000009   Data   RW         3660    .data               stm32h7xx_hal.o
    0x2400267d   COMPRESSED   0x00000003   PAD
    0x24002680   COMPRESSED   0x00000008   Data   RW         5109    .data               system_stm32h7xx.o
    0x24002688   COMPRESSED   0x0000000c   Data   RW         6564    .data               mem.o
    0x24002694   COMPRESSED   0x00000024   Data   RW         6639    .data               memp.o
    0x240026b8   COMPRESSED   0x00000009   Data   RW         6767    .data               netif.o
    0x240026c1   COMPRESSED   0x00000001   Data   RW         6971    .data               pbuf.o
    0x240026c2   COMPRESSED   0x00000002   PAD
    0x240026c4   COMPRESSED   0x00000020   Data   RW         7309    .data               tcp.o
    0x240026e4   COMPRESSED   0x00000028   Data   RW         7612    .data               tcp_in.o
    0x2400270c   COMPRESSED   0x0000000c   Data   RW         7868    .data               timeouts.o
    0x24002718   COMPRESSED   0x00000008   Data   RW         7966    .data               udp.o
    0x24002720   COMPRESSED   0x00000001   Data   RW         8143    .data               etharp.o
    0x24002721   COMPRESSED   0x00000001   PAD
    0x24002722   COMPRESSED   0x00000002   Data   RW         8311    .data               ip4.o
    0x24002724   COMPRESSED   0x00000006   Data   RW         8447    .data               ip4_frag.o
    0x2400272a   COMPRESSED   0x00000002   PAD
    0x2400272c   COMPRESSED   0x00000004   Data   RW         9018    .data               mc_w.l(rand.o)
    0x24002730   COMPRESSED   0x00000004   Data   RW         9315    .data               mc_w.l(stdout.o)
    0x24002734        -       0x000005e0   Zero   RW          304    .bss                main.o
    0x24002d14        -       0x00000094   Zero   RW          528    .bss                usart.o
    0x24002da8        -       0x00004a94   Zero   RW          794    .bss                ethernetif.o
