:020000040800F2
:10000000D8020124B102000875510008A74A00086F
:1000100071510008490400088960000800000000D0
:100020000000000000000000000000001D55000856
:10003000DD05000800000000515200081F550008AF
:10004000CB020008CB020008CB020008CB0200085C
:10005000CB020008CB020008CB020008CB0200084C
:10006000CB020008CB020008CB020008CB0200083C
:10007000CB020008CB020008CB020008CB0200082C
:10008000CB020008CB020008CB020008CB0200081C
:10009000CB020008CB020008CB020008CB0200080C
:1000A000CB020008CB020008CB020008CB020008FC
:1000B000CB020008CB020008CB020008CB020008EC
:1000C000CB020008CB020008CB020008CB020008DC
:1000D000CB02000879600008CB020008CB020008C0
:1000E000CB020008CB02000800000000CB02000891
:1000F000CB020008CB020008CB020008CB020008AC
:10010000CB020008CB020008CB020008CB0200089B
:10011000CB020008CB020008CB020008CB0200088B
:10012000CB020008CB020008CB020008CB0200087B
:10013000CB020008690600081D0C0008CB0200086D
:1001400000000000000000000000000000000000AF
:10015000CB020008CB020008CB020008CB0200084B
:10016000CB020008CB020008CB020008CB0200083B
:10017000CB020008CB020008CB0200080000000000
:10018000CB020008CB020008CB020008CB0200081B
:10019000CB020008CB020008CB020008CB0200080B
:1001A000CB020008CB020008CB020008CB020008FB
:1001B000CB020008CB020008CB020008CB020008EB
:1001C000CB020008CB020008CB020008CB020008DB
:1001D000CB020008CB020008CB020008CB020008CB
:1001E000CB020008CB020008CB020008CB020008BB
:1001F000CB020008CB020008CB020008CB020008AB
:10020000CB020008CB020008CB020008CB0200089A
:10021000CB020008CB020008CB020008CB0200088A
:10022000CB020008CB020008CB020008000000004F
:10023000CB020008CB02000800000000CB0200083F
:10024000CB020008CB020008CB020008CB0200085A
:10025000CB020008CB020008CB020008CB0200084A
:10026000CB020008CB020008CB020008CB0200083A
:10027000CB020008CB020008CB02000800000000FF
:10028000CB020008CB020008CB02000800000000EF
:1002900000000000CB020008DFF810D000F0C0F82A
:1002A00000480047ED860008AFF30080D802012423
:1002B0000648804706480047FEE7FEE7FEE7FEE700
:1002C000FEE7FEE7FEE7FEE7FEE7FEE75D56000815
:1002D000990200082DE9F05F0546002092469B46F2
:1002E00088460646814640241BE02846414647464C
:1002F000224600F084F853465A46C01A914110D362
:1003000011461846224600F06BF82D1A67EB0108DB
:100310004F4622460120002100F062F817EB000949
:100320004E41201EA4F10104DFDC484631462A4636
:100330004346BDE8F09F10B5431A934209D2831893
:10034000881803E010F8011D03F8011D521EF9D2B0
:1003500010BD40EA01039B0703D009E008C9121F42
:1003600008C0042AFAD203E011F8013B00F8013B6F
:10037000521EF9D210BDD2B201E000F8012B491E85
:10038000FBD270470022F6E710B513460A46044632
:100390001946FFF7F0FF204610BD30B50446002097
:1003A000034600E05B1C934203D2E05CCD5C401B43
:1003B000F8D030BD30B50B46014600202022012484
:1003C00009E021FA02F59D4205D303FA02F5491B23
:1003D00004FA02F52844151EA2F10102F1DC30BD39
:1003E000202A04DB203A00FA02F1002070479140F5
:1003F000C2F1200320FA03F3194390407047202AEA
:1004000004DB203A21FA02F00021704721FA02F3BE
:10041000D040C2F1200291400843194670470000C5
:10042000064C074D06E0E06840F0010394E8070041
:1004300098471034AC42F6D3FFF732FFDC0A0108CC
:10044000FC0A010800BFFEE700BFFEE730B5044626
:1004500004B930BD00F0F2F8204600F0CDFB0421D5
:10046000E1660021A16601222046E16D00F038FA24
:10047000256900203FE000EB4002216901EBC20248
:1004800004F1480141F82020002100EB400205EB77
:10049000C202516040F2771141432B4A126802EBCD
:1004A000810100EB400245F83210002100EB4002D0
:1004B00005EBC20291604FF0807100EB400205EB4A
:1004C000C202D16000EB400105EBC101C96841F0F7
:1004D000804100EB400205EBC202D16000EB40011D
:1004E00005EBC101C96841F0004100EB400205EB9A
:1004F000C202D160401C0428BDD30321206800F54E
:100500008050C0F83011206800F58050A16CC0F810
:100510001C11206800F58050616DC0F82811012180
:10052000A1650021E165E16780200151074801686C
:10053000E167006814308021085104F14800044943
:10054000086000BF85E700001400002404000024B8
:100550000C00002410B500B910BDC268002120E0D5
:1005600001EB4104C36803EBC40400F1180343F832
:100570002140002301EB410402EBC404636001EB62
:10058000410442F834304FF0004301EB410402EBE8
:10059000C404A360002301EB410402EBC404E36044
:1005A000491C0429DCD3002383620323016801F57D
:1005B0008051C1F82C31016801F580518369C1F87F
:1005C0001431016801F580518369C1F82031024B73
:1005D0008169196000BFBFE7080000247047000070
:1005E00070B503460E4603B104E040F257110EA069
:1005F000FFF728FF02B104E04FF4AC710AA0FFF747
:1006000021FF03F1480050F82640E068012101EB8A
:10061000E07515B90020106003E0E068C0F30E003B
:100620001060284670BD00002E2E2F436F72652F7C
:100630005372632F6D61696E2E6300000448054993
:100640000860054805490860054806490860704784
:100650005001002410000024C018002414000024BD
:1006600028010024040000244CF2C1010348006862
:1006700000F58050C0F8601170470000B891002468
:100680002DE9F843044604B104E04FF4CC7134A0E2
:10069000FFF7D8FE4FF00008002000900027E66D1D
:1006A000204600F0DDFA49E06769204600F0C7FA0D
:1006B0000546E86800F00050A8B1E06E00B9A666F3
:1006C000002121666166E86800F0805018B1009949
:1006D000E06F416001E0E06F47602968E06F816092
:1006E000E16DE06FC160E86800F0805070B126678E
:1006F000E868C0F30E0729688020005981608020D7
:100700000059476080200059E16D0161D5F80090E3
:10071000204600F08BFA206E401C2066606EC119E6
:100720006166761CE06E401CE0663A46494620460B
:1007300000F004F9032E00D9002600BF6A463146B6
:100740002046FFF74DFF10B1E06E0428ACD901221E
:100750002046E16D00F0C4F84046BDE8F883000093
:100760002E2E2F436F72652F5372632F6D61696E4A
:100770002E63000010B5A2B0044601208DF83300AE
:10078000002012908DF841008DF8430001208DF873
:1007900028008DF856008DF8320000208DF84C00AE
:1007A00001208DF8840040030F9000208DF85C003C
:1007B00018908DF885008DF886004FF4C360169070
:1007C00000208DF830000B9001208DF835000020BE
:1007D0008DF836008DF840001D901B9014908DF818
:1007E00064008DF87A0001208DF8420020202090CE
:1007F00001208DF8440000208DF855004FF0405046
:1008000009904FF480400E9000208DF831000220B6
:100810001F9000208DF878008DF879008DF8540035
:1008200001208DF8340000201A9001208DF870000E
:1008300009A9204600F016F901208DF80400029065
:10084000002000908DF81C008DF80D008DF80C0034
:100850004FF40010069000208DF814004FF40010A3
:10086000049000208DF81D004FF406700890694632
:10087000204600F099F822B010BD0020704710B556
:1008800001F00CFC10BD000010B5024801F0D2F9D7
:10089000002010BDB891002470B504460D461646E0
:1008A00033462A462146044801F075F910B14FF04D
:1008B000FF3070BD0020FCE7B891002470B50446FD
:1008C0000D46164633462A462146044801F094FA5E
:1008D00010B14FF0FF3070BD0020FCE7B89100244C
:1008E000F0B50D461446002200230021D4B1012C9E
:1008F00018D1836EC26E13E000F1480656F823103B
:100900004FF08076CE60CE6846F08046CE60CE68EE
:1009100046F00046CE605B1C042B00D30023521E21
:10092000002AE9D1C66E964207D00027066806F570
:100930008056C6F828718366C266F0BD70B505465C
:100940000E46144617484068A04226D32CB31548DB
:10095000006920441349496888420FD9114840680A
:100960001049086149680A1B0E49C8683146FFF7FB
:10097000E2FC0C4880680B49C8600EE00948006939
:100980002044084908612246C8683146FFF7D3FC75
:100990000448C06820440349C860284600F05AF95A
:1009A00070BD00001800002410B5036803F58053E3
:1009B0001B6847F60204A3430C682343046804F54C
:1009C000805423600C798B6843EA04330C7B43EA40
:1009D000C432036803F580535B684DF20104A343FE
:1009E0001343046804F5805463604C7B0B6A43EA4C
:1009F0000442036803F58053D3F80031164C2340BA
:100A00001343046804F58054C4F800310C7D0B696D
:100A100043EA04134C7F43EA0432036803F580532E
:100A2000D3F804310D4C23401343046804F580547B
:100A3000C4F804310C7F8B6943EAC472036803F580
:100A40008053D3F80831064C23401343046804F55F
:100A50008054C4F8083110BD00C0FEFFEFEFC0FFA6
:100A6000FFFFC07F10B50C688B6823430C7943EA05
:100A7000C4630C7B43EAC4534C7B43EA84538C7BB2
:100A800043EA4453CC7B43EA04530C7C0CB9012465
:100A900000E0002443EAC4434C7C0CB9012400E08C
:100AA000002443EA44438C7C43EA04434C692343D7
:100AB0008C6923430C7F43EA04334C7F43EAC4230D
:100AC0008C7F0CB9012400E0002443EA8423CC7F0E
:100AD00043EA442391F820400CB9012400E00024AB
:100AE00043EA042351F8244F23430C7943EA0413C7
:100AF0008C6843EA040203681B683D4C234013439F
:100B0000046823600B7E5B060C7D43EA04630C7B68
:100B100043EA84434C7B43EA44438C7B24390CB93D
:100B2000012400E0002443EA04434C6B43EA04023E
:100B300003685B682F4C234013430468636091F89B
:100B400040404B6C43EA04220368DB6840F20F1418
:100B5000A34313430468E36091F854400B6D43EAE8
:100B6000440391F84C400CB9012400E0002443EA0E
:100B7000C41331F8484F43EA044203681B6F4FF631
:100B80000D7423401343046823678B7B4C7B43EA3B
:100B900044020368D3F8903023F00303134304683E
:100BA000C4F890300368D3F8003D23F072030C6959
:100BB00023430468C4F8003D0C7E4B6948390CB9E6
:100BC000012400E0002443EA841391F8614043EAE1
:100BD000041391F8624043EAC4020368D3F8303D3D
:100BE00023F07B0313430468C4F8303D10BD0000BC
:100BF000838004000080F8C0026802F58052D2F8B9
:100C0000081147F6FE729143426941EA42010268C7
:100C100002F58052C2F808117047000010B5024872
:100C200000F08EFD10BD0000B8910024C16D491C7C
:100C3000C165C16D042901D30022C2657047014618
:100C400001F14800CA6D50F82200704772B600BF2B
:100C5000FEE700000121014A1170704700000024E6
:100C6000016801F58051D1F8601101F48071B1F58E
:100C7000807F27D14FF48072016801F58051C1F85F
:100C80006021016801F58051D1F8601101F0800107
:100C9000802905D18022016801F58051C1F86021C9
:100CA0000168096841F0010102681160016801F5FD
:100CB0008051D1F8081141F00102016801F580511D
:100CC000C1F80821704700002DE9F041044601F009
:100CD000E5F9804614B90120BDE8F08194F83500AB
:100CE000022808D08020606500BF002084F834000E
:100CF00000BF0120F0E7FE492068884249D0FC4946
:100D000018312068884244D0F9493031206888423F
:100D10003FD0F7494831206888423AD0F4496031E1
:100D20002068884235D0F24978312068884230D036
:100D3000EF499031206888422BD0ED49A8312068D6
:100D4000884226D0EB492068884222D0E9491831F0
:100D5000206888421DD0E74930312068884218D089
:100D6000E44948312068884213D0E2496031206864
:100D700088420ED0DF4978312068884209D0DD49A9
:100D800090312068884204D0DA49A831206888422E
:100D900001D1012000E0002068B12068006820F047
:100DA0001E00216808602068406920F080002168EA
:100DB0004861256806E02068006820F00E00216880
:100DC00008602568CA492068884270D0C84918312F
:100DD000206888426BD0C64930312068884266D08E
:100DE000C34948312068884261D0C14960312068D8
:100DF00088425CD0BE4978312068884257D0BC49CF
:100E000090312068884252D0B949A8312068884280
:100E10004DD0B8492068884249D0B6491831206879
:100E2000884244D0B3493031206888423FD0B1492C
:100E30004831206888423AD0AE4960312068884203
:100E400035D0AC4978312068884230D0A9499031FA
:100E5000206888422BD0A749A8312068884226D034
:100E6000A5492068884222D0A349143120688842CD
:100E70001DD0A14928312068884218D09E493C31B4
:100E80002068884213D09C495031206888420ED097
:100E9000994964312068884209D09749783120689F
:100EA000884204D094498C312068884201D10120C5
:100EB00000E0002028B1206E006820F48070216ED0
:100EC00008608B492068884249D0894918312068D8
:100ED000884244D086493031206888423FD08449D6
:100EE0004831206888423AD0814960312068884280
:100EF00035D07F4978312068884230D07C499031A4
:100F0000206888422BD07A49A8312068884226D0B0
:100F100078492068884222D0764918312068884272
:100F20001DD0744930312068884218D07149483149
:100F30002068884213D06F496031206888420ED003
:100F40006C4978312068884209D06A49903120681C
:100F5000884204D06749A8312068884206D12068B9
:100F6000006820F001002168086005E02068006842
:100F700020F001002168086011E001F08FF8A0EB7B
:100F8000080005280BD920206065032084F835006F
:100F900000BF002084F8340000BF01209CE62868D0
:100FA00000F001000028E8D151492068884249D06A
:100FB0004F4918312068884244D04D49303120686B
:100FC00088423FD04A494831206888423AD048494F
:100FD00060312068884235D04549783120688842A0
:100FE00030D043499031206888422BD04049A83105
:100FF0002068884226D03F492068884222D03D4957
:101000001831206888421DD03A4930312068884222
:1010100018D0384948312068884213D035496031AA
:10102000206888420ED0334978312068884209D040
:10103000304990312068884204D02E49A831206878
:10104000884201D1012000E0002040B1A66D94F853
:101050005C0000F01F013F208840B06007E0A76DF2
:1010600094F85C0000F01F0101208840786020495E
:101070002068884276D01E4918312068884271D095
:101080001B493031206888426CD0194948312068AA
:10109000884267D0164960312068884262D014497E
:1010A0007831206888425DD01149903120688842AB
:1010B00058D00F49A8312068884253D00D49206884
:1010C00088424FD00B491831206888424AD00949DC
:1010D00030312068884245D006494831206888422E
:1010E00040D004496031206888423BD0014905E086
:1010F0001000024010040240085402587831206861
:1011000088422FD02549206888422BD023491831A6
:101110002068884226D022492068884222D020496F
:101120001431206888421DD01D492831206888422A
:1011300018D01B493C312068884213D018495031DF
:10114000206888420ED0164964312068884209D050
:10115000134978312068884204D011498C312068C5
:10116000884201D1012000E0002068B1D4E91910C3
:101170004860E06E40B1E06E006820F48070E16E7F
:101180000860D4E91C104860012084F8350000BFD5
:10119000002084F8340000BF00BF9DE5A004024099
:1011A0000854025870B504460CB9012070BD94F87B
:1011B0003500022803D0802060650120F6E7DC4975
:1011C0002068884249D0DA4918312068884244D0E2
:1011D000D7493031206888423FD0D549483120680E
:1011E00088423AD0D24960312068884235D0D0490F
:1011F00078312068884230D0CD49903120688842CB
:101200002BD0CB49A8312068884226D0C949206814
:10121000884222D0C7491831206888421DD0C5496C
:1012200030312068884218D0C2494831206888424D
:1012300013D0C0496031206888420ED0BD49783152
:101240002068884209D0BB4990312068884204D088
:10125000B849A8312068884201D1012000E000206F
:10126000F0B3042084F83500B149206888424BD09F
:10127000AF4918312068884246D0AD4930312068E6
:10128000884241D0AA494831206888423CD0A849C8
:1012900060312068884237D0A5497831206888427B
:1012A00032D0A3499031206888422DD0A049A8317E
:1012B0002068884228D09F492068884224D09D49D0
:1012C0001831206888421FD09A49303120688842FE
:1012D0001AD0984948312068884215D0954900E0D5
:1012E00020E06031206888420ED092497831206831
:1012F000884209D08F4990312068884204D08D49B6
:10130000A8312068884206D12068006820F00100DA
:101310002168086009E12068006820F00100216868
:10132000086002E12068006820F00E002168086073
:101330007F492068884249D07D4918312068884219
:1013400044D07B493031206888423FD078494831C9
:10135000206888423AD0764960312068884235D08A
:10136000734978312068884230D0714990312068C3
:1013700088422BD06E49A8312068884226D06D491A
:101380002068884222D06B491831206888421DD0DD
:10139000684930312068884218D066494831206851
:1013A000884213D063496031206888420ED0614979
:1013B00078312068884209D05E499031206888429F
:1013C00004D05C49A8312068884206D120680068B2
:1013D00020F001002168086005E02068006820F026
:1013E00001002168086052492068884270D0504945
:1013F0001831206888426BD04D49303120688842CE
:1014000066D04B4948312068884261D048496031F4
:10141000206888425CD0464978312068884257D09D
:10142000434990312068884252D04149A831206810
:1014300088424DD03F492068884249D03D49183103
:101440002068884244D03B493031206888423FD0F0
:1014500038494831206888423AD03649603120689E
:10146000884235D0334978312068884230D03149BC
:101470009031206888422BD02E49A83120688842BC
:1014800026D02D492068884222D02B49143120686B
:1014900088421DD0284928312068884218D0264922
:1014A0003C312068884213D023495031206888425B
:1014B0000ED0214964312068884209D01E49783114
:1014C0002068884204D01C498C312068884201D1B0
:1014D000012000E00020D8B1206E006820F4807068
:1014E000216E0860A56D94F85C0000F01F010120DA
:1014F00088406860D4E919104860E06E40B1E06E41
:10150000006820F48070E16E0860D4E91C10486027
:10151000012084F8350000BF002084F8340000BFAB
:10152000206D10B12046216D884700203EE6000066
:1015300010000240100402400854025870B50446DE
:1015400000F0ACFD06462546681C10B10448007842
:10155000054400BF00F0A2FD801BA842FAD370BD75
:101560007400002470477047024609B90120704793
:101570001068006800F00C00C86210680068C0F3D2
:10158000001081F828001068006800F060004862D0
:1015900010680068C0F3002080F0010081F820008E
:1015A00010680068C0F34020C87710680068C0F376
:1015B000802080F00100887710680068C0F3C020A8
:1015C000487710680068C0F300300877106800683A
:1015D00000F4005088611068006800F480404861A1
:1015E00010680068C0F30040887410680068C0F399
:1015F000404080F00100487410680068C0F3C040AB
:1016000080F00100087410680068C0F30050C873CF
:1016100010680068C0F34050887310680068C0F319
:101620008050487310680068C0F3C0500873106899
:10163000006800F0E060886010680068C0F3C06077
:1016400008711068006800F0E040086010684068A9
:10165000C0F30D00486310684068C0F3004080F09C
:10166000010081F8320010684068C0F3404081F802
:10167000310010684068C0F3804081F83000106885
:101680004068C0F3006081F8380010684068C0F31B
:101690004460C8631068C068C0F3002081F840004F
:1016A0001068C06800F00F0048641068006FC0F355
:1016B000400081F854001068006FC0F3C01080F043
:1016C000010081F84C001068006F00F070000865A0
:1016D0001068006F000C88641068D0F8900000F06B
:1016E000010081F856001068D0F89000C0F3400067
:1016F00081F855001068D0F8000D00F07200886580
:101700001068D0F8300D00F02300C8651068D0F8DC
:10171000300DC0F3C00081F862001068D0F8300DC1
:10172000C0F3001081F861001068D0F8300DC0F3EC
:10173000801080F0010081F86000002017E70000B1
:1017400070B50446206800F58050D0F8600100F0C4
:101750004000402812D1206800F58050D0F83401B4
:1017600000F04000402809D148F24001206800F50F
:101770008050C0F86011204600F049FA206800F55A
:101780008050D0F8600100F0010088B1206800F5B9
:101790008050D0F8340100F0010048B148F2010156
:1017A000206800F58050C0F86011204600F022FB50
:1017B000206800F58050D0F8600100F48040B0F55A
:1017C000804F46D1206800F58050D0F8340100F4F5
:1017D0008040B0F5804F3CD1D4F8880040F008003C
:1017E000C4F88800206800F58050D0F8600100F44B
:1017F0008050B0F5805F19D1206800F58050D0F896
:10180000600141F202110840C4F88C00206800F524
:101810008050D0F8340120F44041206800F5805019
:10182000C0F83411E020C4F884000FE0206800F50F
:101830008050D0F8600100F4CD40C4F88C004FF423
:10184000CD41206800F58050C0F860112046FFF7B8
:101850008AFE2068D0F8B45005F48040B0F5804F7F
:1018600004D005F40050B0F5005F12D11434606F5D
:1018700040F01000606754F8140CD0F8B800E0672E
:10188000E0202067143C2046FFF76DFE0020C4F8DE
:1018900090002068D0F8B00000F0100010280CD1A3
:1018A0002068D0F8C00000F06000C4F89400204622
:1018B00000F070F90020C4F894002068D0F8B0005F
:1018C00000F0200020280CD12068D0F8C00000F0E3
:1018D0000F00C4F898002046FFF744FE0020C4F82B
:1018E00098000648006800F4800030B14FF4800092
:1018F00002490860204600F07EFA70BDA80000583A
:1019000038B504460CB9012038BDD4F8840028B994
:101910002320C4F88400204600F080F800BF3C4833
:10192000006840F002003A4908600846006800F08C
:101930000200009000BF00BF207A18B9002002F01A
:1019400027FD03E04FF4000002F022FD314800685B
:10195000206800F58050006840F00101206800F523
:101960008050016000F09AFB05460DE000F096FB08
:10197000401BB0F5FA7F07D90420C4F88800E020A6
:10198000C4F884000120BFE7206800F5805000689B
:1019900000F001000028E9D1204600F04BF901F0E9
:1019A0006BFF1D49B0FBF1F0401E2168C1F8DC005F
:1019B0002046FEF7DFFE206800F58050D0F80001D9
:1019C00020F4E01040F40021206800F58050C0F8B9
:1019D0000011207D00F0030038B10120C4F8880018
:1019E000E020C4F8840001208EE72046FEF7B2FD17
:1019F0002046FEF72BFD08212046626803F0CDFA51
:101A00000020C4F888001020C4F8840000207BE780
:101A1000F44402580404005840420F0010B586B048
:101A20000446142101A8FEF7ADFC54492068884201
:101A30007ED100BF5248006840F400405049086021
:101A40000846006800F40040009000BF00BF00BFDF
:101A50000846006840F4803008600846006800F4DA
:101A60008030009000BF00BF00BF0846006840F40F
:101A7000003008600846006800F40030009000BFA5
:101A800000BF00BF3E480830006840F004003C49F9
:101A9000083108600846006800F00400009000BFAC
:101AA00000BF00BF0846006840F00100086008461B
:101AB000006800F00100009000BF00BF00BF0846B2
:101AC000006840F0020008600846006800F002006C
:101AD000009000BF00BF00BF0846006840F0400013
:101AE00008600846006800F04000009000BF00BF9A
:101AF00032200190022002900020039003200490E5
:101B00000B20059001A91F4800F0B6F9862001902E
:101B10000220029000200390032004900B200590E7
:101B200001A9194800F0A8F94FF40060019000E005
:101B300022E00220029000200390032004900B205A
:101B4000059001A9114800F097F94FF4C0400190A9
:101B50000220029000200390032004900B200590A7
:101B600001A90B4800F088F9002211463D2000F041
:101B70007BFB3D2000F064FB06B010BD00800240FE
:101B8000D8440258000802580000025800040258C5
:101B90000018025870472DE9F04704460F4690465A
:101BA00099462068D0F8000200F0010010B1012031
:101BB000BDE8F0872068D0F8005225F0787040EA40
:101BC000475525F4F81040EA084545F00C0545F066
:101BD00001052068C0F8005200F060FA064607E0F0
:101BE00000F05CFA801BB0F57A7F01D90120DFE7B5
:101BF0002068D0F8000200F001000028F0D1206831
:101C0000D0F8040280B2C9F800000020D0E7704785
:101C100070B504460D460DB9012070BDD4F884009E
:101C2000102805D129462046FEF71CFF0020F4E7C6
:101C30000120F2E770B506463068D0F8005225F46E
:101C4000706501F019FE04461348844205D3134819
:101C5000844202D245F400751AE01048844205D34C
:101C60000F48844202D245F4407511E00C4884428A
:101C700003D30C48844200D20AE00A48844205D3C8
:101C80000948844202D245F4807501E045F480653C
:101C90003068C0F8005270BD002D3101C00E160230
:101CA0000087930300E1F50580D1F0080146D1F8E3
:101CB000840010285ED12320C1F8840001228A65A7
:101CC0000868D0F80C072C4A10430A68C2F80C07C1
:101CD0000868D0F81007294A10430A68C2F81007AC
:101CE0000868006840F002000A6810600868006830
:101CF00040F001000A6810600868D0F8000D40F05C
:101D000001000A68C2F8000D086800F58050D0F89C
:101D1000040140F00102086800F58050C0F8042179
:101D2000086800F58050D0F8080140F0010208680A
:101D300000F58050C0F80821086800F58050D0F800
:101D4000600140F48172086800F58050C0F860219D
:101D5000086800F58050D0F834014DF2C1021043FC
:101D60000A6802F58052C2F834012320C1F88400C9
:101D7000002070470120FCE76000020C00C0200C2E
:101D80000146D1F88400232832D1C1F884000868C4
:101D900000F58050D0F8040120F00102086800F539
:101DA0008050C0F80421086800F58050D0F8080180
:101DB00020F00102086800F58050C0F8082108688A
:101DC000006820F001000A6810600868D0F8000D73
:101DD00040F001000A68C2F8000D0868006820F0B1
:101DE00002000A6810601020C1F8840000207047CB
:101DF0000120FCE7704770472DE9F04705460F4684
:101E0000904699462868D0F8000200F0010010B111
:101E10000120BDE8F0872868D0F8004224F07870EF
:101E200040EA475424F4F81040EA084424F00C0037
:101E3000041D44F001041FFA89F00D4908600D48A3
:101E4000C0F8004200F02AF9064607E000F026F943
:101E5000801BB0F57A7F01D90120DAE72868D0F835
:101E6000000200F001000028F0D100BFD1E700001F
:101E70000482024000800240F8B502460B46002171
:101E80006F4DD7E001278F401E6806EA0704002C3B
:101E900072D01E7906F00306012E04D01E7906F0DA
:101EA0000306022E13D190684F000326BE40B043B4
:101EB0004F00DE68BE4030439060506801268E407F
:101EC000B0431E79C6F300168E40304350601E7931
:101ED00006F00306032E09D0D0684F000326BE404B
:101EE000B0434F009E68BE403043D0601E7906F07C
:101EF0000306022E13D1CF0802F1200656F8270060
:101F00004E07F70E0F26BE40B0434F07FF0E1E6967
:101F1000BE403043CF0802F1200646F82700106883
:101F20004F000326BE40B0431E7906F003064F0063
:101F3000BE40304310605E6806F44036002E78D014
:101F400000BF404E366846F002063E4F3E603E46B9
:101F5000366806F00206009600BF00BF3A4E8F08B2
:101F600056F827008E07370F0F26BE40B043374E76
:101F7000B24202D100262EE05BE0354EB24201D1E2
:101F8000012628E0334EB24201D1022623E0324E30
:101F9000B24201D103261EE0304EB24201D10426E6
:101FA00019E02F4EB24201D1052614E02D4EB24267
:101FB00001D106260FE02C4EB24201D107260AE0DD
:101FC0002A4EB24201D1082605E0294EB24201D183
:101FD000092600E00A268F073F0FBE4030431A4E05
:101FE0008F0846F827004FF0B0463068A0435E687F
:101FF00006F4801606B120434FF0B046306070689A
:10200000A0435E6806F4001606B120434FF0B046C8
:1020100070606868A0435E6806F4003606B120432D
:1020200068602868A0435E6806F4803606B12043E5
:102030002860491C1E68CE40002E7FF423AFF8BDF7
:1020400080000058F4440258080400580000025868
:102050000004025800080258000C025800100258F0
:102060000014025800180258001C025800200258A0
:1020700000240258024613690B400BB1012000E016
:10208000002070470AB1816101E00B048361704751
:1020900001480068000C70470010005C01480068AF
:1020A000704700006C000024034800680349097869
:1020B00008440149086070476C0000247400002443
:1020C00010B5032000F00EF901F020FC104909685A
:1020D000C1F303210F4A515C01F01F0120FA01F402
:1020E0000B48006800F00F001146085C00F01F006C
:1020F00024FA00F008490860084804600F2000F046
:102100000FF808B1012010BD00F088F80020FAE7B0
:1021100018440258C40801087C00002478000024F8
:1021200070B504461148007808B9012070BD0F4809
:1021300000784FF47A71B1FBF0F00D490968B1FBFA
:10214000F0F5284602F02EF908B10120EEE7102C38
:1021500007D200222146501E00F086F80548046090
:1021600001E00120E2E70020E0E700007400002425
:1021700078000024700000244178154A116001782D
:10218000F9B1121D41681160017B0907C27A41EA69
:102190000261827A41EAC241427B41EA8241827B0A
:1021A00041EA4241C27B41EA0241427A41EA0221CC
:1021B000027A41EA420102781143054A083211606D
:1021C00005E00021024A121D1160121D11607047C6
:1021D00098ED00E0BFF35F8F0548006820F4803081
:1021E0000349086000200249703108607047000010
:1021F00024ED00E040F00101074A11600649703902
:10220000096841F48031044A703A1160BFF34F8F7E
:10221000BFF36F8F7047000094ED00E008B500BF7A
:102220000648006840F0020004490860084600685B
:1022300000F00200009000BF00BF08BDF444025847
:102240000146084600280DDB00BF00BF00F01F0359
:1022500001229A4043099B0003F1E023C3F80021C7
:1022600000BF00BF00BF70472DE9F05F80460D46FC
:10227000164603F01BFF074639462A46334601F04F
:102280000700C0F1070ABAF1040F02D94FF0040A9F
:1022900001E0C0F1070AD14600F1040ABAF1070FC4
:1022A00002D24FF0000A01E0A0F1030AD4464FF039
:1022B000010A0AFA09FAAAF1010A0AEA020A0AFA62
:1022C0000CFA4FF0010B0BFA0CFBABF1010B0BEA14
:1022D000030B4AEA0B042146404603F0EFFEBDE83B
:1022E000F09F000000BF00F00702064B19684FF690
:1022F000FF031940044B0B4343EA0221014B1960D1
:1023000000BF70470CED00E00000FA0570B5044610
:1023100015480068C0F3800048B91348006800F011
:102320000700A04201D0012070BD0020FCE70E484C
:10233000006820F0070020430B490860FFF7AEFE5D
:10234000054607E0FFF7AAFE401BB0F57A7F01D9EA
:102350000120E9E7044808380068C0F3403000284D
:10236000F0D00020E0E700000C48025810B501F062
:1023700083FA05490968C1F30211044A515C01F06E
:102380001F01C84010BD000020440258C4080108C5
:1023900070B50146844D2D6805F00303824D2D680C
:1023A000C5F30530804D2D1D2D68C5F300147E4DFD
:1023B00014352D68C5F3CC0515FB04F501EE105A54
:1023C000B8EE411AF0EE410A00286FD023B1012B7C
:1023D0004ED0022B6BD16BE0734D283D2D68C5F3B9
:1023E00040153DB3704D283D2D68C5F3C1066F4DB6
:1023F00025FA06F201EE102AF8EE411A01EE100A53
:10240000B8EE411A81EE812A9FED691AC0EE811A59
:10241000654D10352D68C5F3080501EE105AB8EE6C
:10242000411A31EE811AF7EE001A31EE211A22EE2E
:10243000010A1CE001EE100AB8EE411ADFED5D1A48
:1024400081EE812A9FED5A1AC0EE811A564D103541
:102450002D68C5F3080501EE105AB8EE411A31EEA9
:10246000811AF7EE001A31EE211A22EE010A5BE022
:1024700001EE100AB8EE411ADFED4F1A81EE812A03
:102480009FED4B1AC0EE811A474D10352D68C5F3EC
:10249000080501EE105AB8EE411A31EE811AF7EE36
:1024A000001A31EE211A22EE010A3DE077E01DE02C
:1024B00001EE100AB8EE411A9FED402AC2EE011A51
:1024C0009FED3B1A80EE812A374D10352D68C5F3FC
:1024D000080501EE105AB8EE411A32EE011AB7EEB5
:1024E000002A31EE021A21EE810A1DE001EE100AE7
:1024F000B8EE411ADFED301A81EE812A9FED2C1AD9
:10250000C0EE811A284D10352D68C5F3080501EE7F
:10251000105AB8EE411A31EE811AF7EE001A31EE78
:10252000211A22EE010A00BF00BF1F4D10352D6891
:10253000C5F3462501EE105AB8EE411AF7EE001A1F
:1025400031EE211AC0EE011ABCEEE11A81ED001A3B
:10255000154D10352D68C5F3064501EE105AB8EE3D
:10256000411AF7EE001A31EE211AC0EE011ABCEE44
:10257000E11A81ED011A0C4D10352D68C5F3066581
:1025800001EE105AB8EE411AF7EE001A31EE211A98
:10259000C0EE011ABCEEE11A81ED021A03E000253B
:1025A0000D604D608D6070BD284402580090D003CE
:1025B000000000460024744C0024744A20BCBE4B2A
:1025C00070B50146844D2D6805F00303824D2D68DA
:1025D000C5F30550804D2D1D2D68C5F300247E4D9B
:1025E0001C352D68C5F3CC0515FB04F501EE105A1A
:1025F000B8EE411AF0EE410A00286FD023B1012B4A
:102600004ED0022B6BD16BE0734D283D2D68C5F386
:1026100040153DB3704D283D2D68C5F3C1066F4D83
:1026200025FA06F201EE102AF8EE411A01EE100A20
:10263000B8EE411A81EE812A9FED691AC0EE811A27
:10264000654D18352D68C5F3080501EE105AB8EE32
:10265000411A31EE811AF7EE001A31EE211A22EEFC
:10266000010A1CE001EE100AB8EE411ADFED5D1A16
:1026700081EE812A9FED5A1AC0EE811A564D183507
:102680002D68C5F3080501EE105AB8EE411A31EE77
:10269000811AF7EE001A31EE211A22EE010A5BE0F0
:1026A00001EE100AB8EE411ADFED4F1A81EE812AD1
:1026B0009FED4B1AC0EE811A474D18352D68C5F3B2
:1026C000080501EE105AB8EE411A31EE811AF7EE04
:1026D000001A31EE211A22EE010A3DE077E01DE0FA
:1026E00001EE100AB8EE411A9FED402AC2EE011A1F
:1026F0009FED3B1A80EE812A374D18352D68C5F3C2
:10270000080501EE105AB8EE411A32EE011AB7EE82
:10271000002A31EE021A21EE810A1DE001EE100AB4
:10272000B8EE411ADFED301A81EE812A9FED2C1AA6
:10273000C0EE811A284D18352D68C5F3080501EE45
:10274000105AB8EE411A31EE811AF7EE001A31EE46
:10275000211A22EE010A00BF00BF1F4D18352D6857
:10276000C5F3462501EE105AB8EE411AF7EE001AED
:1027700031EE211AC0EE011ABCEEE11A81ED001A09
:10278000154D18352D68C5F3064501EE105AB8EE03
:10279000411AF7EE001A31EE211AC0EE011ABCEE12
:1027A000E11A81ED011A0C4D18352D68C5F3066547
:1027B00001EE105AB8EE411AF7EE001A31EE211A66
:1027C000C0EE011ABCEEE11A81ED021A03E0002509
:1027D0000D604D608D6070BD284402580090D0039C
:1027E000000000460024744C0024744A20BCBE4BF8
:1027F0002DE9F04104460025A8464FF00062D4E9D7
:10280000001011400020134659404040014331D18F
:10281000A06E48B1B0F5801F0DD0B0F5001F11D0EB
:10282000B0F5401F16D114E0F948006840F40030BC
:10283000F749086010E0022104F1080002F00AFDE7
:10284000054609E0022104F1280002F0B5FD054625
:1028500002E001E0012500BF00BF55B9EC4824307B
:10286000006820F44010A16E0843E9492431086053
:1028700000E0A8464FF48073D4E90010194000200E
:102880005940404001432ED1A06D05281BD2DFE8FE
:1028900000F0030A11181900DD48006840F4003008
:1028A000DB49086011E0002104F1080002F0D2FCCD
:1028B00005460AE0002104F1280002F07DFD0546EE
:1028C00003E002E001E0012500BF00BF55B9D04898
:1028D0002430006820F00700A16D0843CC49243162
:1028E000086000E0A8464FF40073D4E900101940D6
:1028F000002059404040014334D1E06D802818D079
:1029000003DC40B140281DD10CE0C02818D0B0F540
:10291000807F17D115E0BE48006840F40030BC4904
:10292000086011E0002104F1080002F093FC054664
:102930000AE0002104F1280002F03EFD054603E014
:1029400002E001E0012500BF00BF55B9B0482430C6
:10295000006820F4E070E16D0843AD49243108605F
:1029600000E0A8464FF48063D4E90010194000202D
:1029700059404040014339D1D4F8A800B0F5800F48
:102980001AD004DC50B1B0F5001F1ED10DE0B0F537
:10299000C00F18D0B0F5000F17D115E09C480068A3
:1029A00040F400309A49086011E0002104F1080069
:1029B00002F050FC05460AE0002104F1280002F074
:1029C000FBFC054603E002E001E0012500BF00BF7B
:1029D0005DB98F482C30006820F46000D4F8A8104E
:1029E00008438B492C31086000E0A8464FF4006290
:1029F000D4E90010114000201346594040400143E3
:102A000039D1D4F8AC00B0F1007F1AD004DC50B159
:102A1000B0F1807F1ED10DE0B0F1407F18D0B0F151
:102A2000806F17D115E07A48006840F4003078498B
:102A3000086011E0002104F1080002F00BFC0546DB
:102A40000AE0002104F1280002F0B6FC054603E08C
:102A500002E001E0012500BF00BF5DB96C482C30E9
:102A6000006820F0E060D4F8AC10084368492C31CD
:102A7000086000E0A8464FF00073D4E90001184058
:102A8000002158404940084328D1E06CA8B11028E3
:102A900004D0202809D0302810D10DE05C4800680F
:102AA00040F400305A4908600AE0022104F10800AD
:102AB00002F0D0FB054603E002E001E0012500BF83
:102AC00000BF55B952482030006820F03000E16C5A
:102AD00008434F492031086000E0A8464FF4805376
:102AE000D4E900101940002059404040014337D13B
:102AF000206EB0F5005F1AD004DC50B1B0F5805FF5
:102B00001ED10DE0B0F5405F18D0B0F5804F17D161
:102B100015E03F48006840F400303D49086011E08E
:102B2000002104F1080002F095FB05460AE00021AF
:102B300004F1280002F040FC054603E002E001E059
:102B4000012500BF00BF55B931482430006820F48A
:102B5000E040216E08432E492431086000E0A84679
:102B60004FF40053D4E90010194000205940404070
:102B7000014335D1606EB0F5403F1ED007DC68B12F
:102B8000B0F5803F0BD0B0F5003F19D10EE0B0F5A5
:102B9000802F13D0B0F5A02F12D110E012E0012148
:102BA00004F1080002F056FB05460BE0012104F198
:102BB000280002F001FC054604E003E002E001E029
:102BC000012500BF00BF55B911482430006820F42A
:102BD000E020616E08430E492431086000E0A846F9
:102BE0004FF48043D4E90001184000215840494087
:102BF000084337D1D4F8B000B0F1405F20D009DCF1
:102C000078B1B0F1805F0DD0B0F1005F1BD110E062
:102C10002C440258B0F1804F13D0B0F1A04F12D124
:102C200010E012E0012104F1080002F013FB054658
:102C30000BE0012104F1280002F0BEFB054604E090
:102C400003E002E001E0012500BF00BF4DB9FE48EE
:102C5000006820F0E040D4F8B0100843FA4908605A
:102C600000E0A8464FF40042D4E9001011400020D3
:102C7000134659404040014329D1206FB0B1B0F113
:102C8000805F03D0B0F1005F11D108E0EE482C382E
:102C9000006840F40030EC492C39086009E001215B
:102CA00004F1080002F0D6FA054602E001E0012531
:102CB00000BF00BF55B9E4480838006820F0405014
:102CC000216F0843E0490839086000E0A8464FF04A
:102CD0008072D4E900101140002013465940404052
:102CE00001432AD1A06CB8B1012804D002280BD02E
:102CF000032812D10FE0D4482C38006840F400308B
:102D0000D1492C3908600AE0022104F1080002F0E0
:102D1000A1FA054603E002E001E0012500BF00BF83
:102D200055B9C9480C38006820F00300A16C08436D
:102D3000C5490C39086000E0A8464FF48002D4E988
:102D400000011040002113465840494008437DD1FE
:102D5000BE48006840F48070BC490860FFF79EF9E7
:102D6000064606E0FFF79AF9801B642801D903257F
:102D700005E0B648006800F480700028F2D000BF7B
:102D800085BBB1481830006800F44070B4F8B41046
:102D900001F44071884213D0AB481830006820F429
:102DA0004077A9481830006840F48030A6491831AF
:102DB00008600846006820F4803008600846076014
:102DC000D4F8B400B0F5807F15D1FFF767F9064657
:102DD00009E0FFF763F9801B41F28831884202D98C
:102DE000032507E038E0984818300068C0F3400039
:102DF0000028EED000BF55BB00BFB4F8B40000F40B
:102E00004070B0F5407F0ED18F484838006820F4FC
:102E10007C518F4AD4F8B400104041EA10108A491E
:102E20004839086007E088484838006820F47C503A
:102E3000854948390860844818300068B4F8B410EF
:102E4000C1F30B0108438049183101E005E001E0BE
:102E5000086002E0A84600E0A8460122D4E900018B
:102E600010400021134658404940084330D1E06FDC
:102E700018281AD005DC48B1082808D0102817D126
:102E80000CE0202812D0282812D110E012E00121F5
:102E900004F1080002F0DEF905460BE0012104F11F
:102EA000280002F089FA054604E003E002E001E0B0
:102EB000012500BF00BF55B96348001F006820F01E
:102EC0003800E16F08436049091F086000E0A84628
:102ED0000222D4E900011040002113465840494025
:102EE000084329D1A06F062816D2DFE800F00304BA
:102EF0000B12131412E0012104F1080002F0AAF9E8
:102F000005460BE0012104F1280002F055FA0546C0
:102F100004E003E002E001E0012500BF00BF55B975
:102F20004948001F006820F00700A16F0843464988
:102F3000091F086000E0A8460423D4E900101940E6
:102F4000002059404040014329D1D4F8940006287C
:102F500016D2DFE800F003040B12131412E0012173
:102F600004F1080002F076F905460BE0012104F1B6
:102F7000280002F021FA054604E003E002E001E047
:102F8000012500BF00BF4DB92F48006820F00700A1
:102F9000D4F8941008432C49086000E0A846202388
:102FA000D4E900011840002158404940084337D176
:102FB000D4F89000B0F1405F1ED007DC68B1B0F1EA
:102FC000805F0BD0B0F1005F19D10EE0B0F1804FFF
:102FD00013D0B0F1A04F12D110E012E0002104F1A3
:102FE000080002F037F905460BE0022104F1280041
:102FF00002F0E2F9054604E003E002E001E0012509
:1030000000BF00BF5DB91048001F006820F0E0401D
:10301000D4F8901008430C49091F086000E0A84646
:103020004023D4E90010194000205940404001439A
:103030003CD1D4F89C00B0F5406F25D00EDCA0B197
:10304000B0F5806F12D005E058440258004802588D
:10305000FFFCFF0FB0F5006F19D10EE0B0F5805FF7
:1030600013D0B0F5A05F12D110E012E0002104F1FE
:10307000080002F0EFF805460BE0022104F12800F9
:1030800002F09AF9054604E003E002E001E00125C0
:1030900000BF00BF4DB9FE48006820F4E050D4F8EE
:1030A0009C100843FA49086000E0A8468023D4E950
:1030B00000101940002059404040014335D1D4F858
:1030C000A000B0F5C04F1ED007DC68B1B0F5005FBE
:1030D0000BD0B0F5804F19D10EE0B0F5004F13D0F2
:1030E000B0F5204F12D110E012E0002104F10800E9
:1030F00002F0B0F805460BE0022104F1280002F0CE
:103100005BF9054604E003E002E001E0012500BFB1
:1031100000BF4DB9DE48006820F46040D4F8A0102C
:103120000843DB49086000E0A8460823D4E9001002
:103130001940002059404040014317D1D4F8840081
:10314000B0F5805F07D1022104F1280002F034F9C4
:1031500008B14FF00108CE48001F006820F440502D
:10316000D4F884100843CA49091F08601023D4E921
:1031700000101940002059404040014315D1D4F8B7
:103180009800B0F5807F07D1022104F1280002F0F9
:1031900013F908B14FF00108BD48006820F44070F1
:1031A000D4F898100843BA4908604FF40022D4E9D3
:1031B000000110400021134658404940084327D1E0
:1031C000D4F8A40030B1B0F5803F0AD0B0F5003F8C
:1031D0000FD10DE0002104F1080002F03BF8054694
:1031E00009E0022104F1280002F0E6F8054602E0B9
:1031F00001E0012500BF00BF4DB9A548006820F4DB
:103200004030D4F8A4100843A149086000E0A84663
:103210004FF48023D4E90001184000215840494070
:1032200008432DD1D4F88800B0F5801F06D0B0F542
:10323000001F0CD0B0F5401F11D10FE094482C387E
:10324000006840F4003092492C39086009E00121FF
:1032500004F1280002F0B0F8054602E001E0012583
:1032600000BF00BF5DB98A48001F006820F440100D
:10327000D4F8881008438649091F086000E0A84672
:103280004FF48032D4E90001104000211346584029
:103290004940084325D1206D18B1B0F5803F10D1C9
:1032A00008E07B482C38006840F4003078492C391D
:1032B000086008E0022104F1080001F0CBFF054698
:1032C00001E0012500BF00BF55B971480C38006806
:1032D00020F48030216D08436D490C39086000E00E
:1032E000A8464FF00052D4E90010114000201346C8
:1032F00059404040014307D1022104F1280002F067
:103300005BF808B14FF001084FF40033D4E9000135
:103310001840002158404940084329D1D4F8800082
:10332000A0B1B0F5807F06D0B0F5007F0CD0B0F52D
:10333000407F0CD109E056482C38006840F400303A
:1033400053492C39086004E003E002E001E0012564
:1033500000BF00BF5DB94E48001F006820F44070F8
:10336000D4F8801008434A49091F086000E0A846C5
:103370004FF48012D4E90010114000201346594048
:103380004040014309D142480838006820F000401D
:10339000616F08433E49083908604FF08052D4E914
:1033A00000101140002013465940404001430AD10B
:1033B00037484838006820F48040D4F8B8100843F3
:1033C0003349483908604FF40012D4E90010114025
:1033D0000020134659404040014309D12C48083889
:1033E000006820F08070E16E0843294908390860C0
:1033F0004FF08042D4E9001011400020134659409C
:103400004040014311D100BF21484838006820F4F2
:1034100000401F494839086008460068D4F8BC10CD
:1034200008431B494839086000BF4FF00042D4E907
:10343000001011400020134659404040014309D17B
:1034400013480C38006820F04050616D0843104963
:103450000C3908604FF40002D4E90010114000203C
:1034600013465940404001430AD10948001F0068F3
:1034700020F44000D4F88C1008430549091F086067
:10348000012300216068184001224940504001E0BA
:1034900058440258014306D104F1080001F0DAFE55
:1034A000054605B1A8460222002160681040494047
:1034B0005040014307D1012104F1080001F0CAFE88
:1034C000054605B1A846042300206168194004227E
:1034D00040405140084307D1022104F1080001F0A7
:1034E000B9FE054605B1A8460823002160681840CA
:1034F000082249405040014306D104F1280001F060
:103500005BFF054605B1A846102200216068104007
:1035100049405040014307D1012104F1280001F046
:103520004BFF054605B1A8462022002061681140E6
:1035300040405140084307D1022104F1280001F026
:103540003BFF054605B1A846B8F1000F02D10020A7
:10355000BDE8F0810120FBE72DE9F04104460D466E
:1035600014B90120BDE8F081BD48006800F00F00EB
:10357000A8420ED2BA48006820F00F002843B8498C
:1035800008600846006800F00F00A84201D0012042
:10359000E8E7207800F0040004280ED1B149206942
:1035A000096801F07001884207D9AE48006820F030
:1035B000700021690843AB490860207800F00800DA
:1035C000082811D1A749091D6069096801F0700137
:1035D000884209D9A348001D006820F07000616985
:1035E0000843A049091D0860207800F01000102849
:1035F00011D19C49091DA069096801F4E061884264
:1036000009D99848001D006820F4E060A1690843CA
:103610009449091D0860207800F02000202811D16D
:1036200090490831E069096801F07001884209D9C0
:103630008C480830006820F07000E169084389492F
:1036400008310860207800F0020002280ED1854978
:10365000E068096801F00F01884207D981480068D5
:1036600020F00F00E16808437E490860207800F0F0
:103670000100002850D07B48006820F47060A168E9
:103680000843784908606068022807D175481838EF
:103690000068C0F34040F8B9012063E76068032880
:1036A00007D1704818380068C0F34060A0B9012005
:1036B00058E76068012807D16A4818380068C0F3E5
:1036C000002048B901204DE7664818380068C0F36B
:1036D000800008B9012045E762480838006820F0FA
:1036E0000700616808435F4908390860FEF7D6FCA7
:1036F000064608E0FEF7D2FC801B41F28831884282
:1037000001D903202EE757480838006800F0380038
:103710006168B0EBC10FEDD1207800F00200022803
:103720000ED15049E068096801F00F01884207D2C4
:103730004C48006820F00F00E168084349490860E0
:103740004748006800F00F00A8420ED944480068BE
:1037500020F00F002843424908600846006800F046
:103760000F00A84201D00120FCE6207800F0040000
:1037700004280ED13B492069096801F07001884294
:1037800007D23848006820F07000216908433549A5
:103790000860207800F00800082811D13149091D7F
:1037A0006069096801F07001884209D22D48001D46
:1037B000006820F07000616908432A49091D08600B
:1037C000207800F01000102811D12649091DA069A9
:1037D000096801F4E061884209D22248001D0068AE
:1037E00020F4E060A16908431E49091D08602078A3
:1037F00000F02000202811D11A490831E069096839
:1038000001F07001884209D216480830006820F0A3
:103810007000E169084313490831086000F076F848
:1038200010490968C1F303210F4A515C01F01F01DF
:1038300020FA01F70B48006800F00F001146085C01
:1038400000F01F0027FA00F00849086008480760E8
:1038500008480068FEF764FC8046404682E60000A7
:103860000020005218440258C40801087C000024BB
:10387000780000247000002410B500F047F80D49CE
:103880000968C1F303210C4A515C01F01F0120FAC1
:1038900001F40848006800F00F001146085C00F0D1
:1038A0001F0024FA00F00549086005480460084636
:1038B000006810BD18440258C40801087C000024A8
:1038C0007800002400B5FFF7D7FF05490968C1F368
:1038D0000211044A515C01F01F01C84000BD000004
:1038E0001C440258C408010800B5FFF7C5FF05498C
:1038F0000968C1F30221044A515C01F01F01C8406C
:1039000000BD00001C440258C4080108F0B5824EF6
:10391000366806F0380636B1082E15D0102E15D0B0
:10392000182E7DD114E07C4E103E3668C6F340164A
:1039300046B1794E103E3668C6F3C107774E26FA77
:1039400007F000E07548E5E07548E3E07548E1E020
:10395000714E1836366806F003046F4E1836366816
:10396000C6F305116C4E1C36366806F001056A4E2A
:1039700024363668C6F3CC0616FB05F601EE106A4F
:10398000B8EE410A002971D024B1012C50D0022C8C
:103990006DD16DE0604E103E3668C6F340163EB302
:1039A0005D4E103E3668C6F3C1075C4E26FA07F33B
:1039B00001EE103AF8EE411A01EE101AB8EE411A73
:1039C00081EE812A9FED581AC0EE011A524E203620
:1039D0003668C6F3080601EE106AB8EE411A31EEF9
:1039E000811AF7EE001A31EE211A62EE010A1EE08A
:1039F00001EE101AB8EE411ADFED4C1A81EE812A61
:103A00009FED491AC0EE011A434E20363668C6F3C0
:103A1000080601EE106AB8EE411A31EE811A00E094
:103A200076E0F7EE001A31EE211A62EE010A5BE051
:103A300001EE101AB8EE411A9FED3D2AC2EE011AAE
:103A40009FED391A80EE012A334E20363668C6F3D0
:103A5000080601EE106AB8EE411A32EE011AB7EE0E
:103A6000002A31EE021A61EE810A3DE04EE01DE0CF
:103A700001EE101AB8EE411ADFED2E1A81EE812AFE
:103A80009FED291AC0EE011A234E20363668C6F380
:103A9000080601EE106AB8EE411A31EE811AF7EE0F
:103AA000001A31EE211A62EE010A1DE001EE101A31
:103AB000B8EE411A9FED1E2AC2EE011A9FED1A1AA6
:103AC00080EE012A144E20363668C6F3080601EE51
:103AD000106AB8EE411A32EE011AB7EE002A31EE42
:103AE000021A61EE810A00BF00BF0B4E2036366815
:103AF000C6F34626721C01EE102AB8EE411AC0EE3B
:103B0000811ABCEEE11A11EE100A00E0002001E07B
:103B1000034800BF00BFF0BD104402580090D0031E
:103B200000093D0040787D01000000460024744CEF
:103B30000024744A20BCBE4B2DE9F047044614B95A
:103B40000120BDE8F087207800F00100002870D047
:103B5000FA48006800F03808F8481830D0F80090AB
:103B6000B8F1100F06D0B8F1180F0FD109F003000B
:103B700002280BD1F14810380068C0F340400028FB
:103B80006AD06068002867D10120DAE700BF60686A
:103B9000B0F5803F08D1E9481038006840F4803023
:103BA000E649103908602EE0606868B9E3481038CB
:103BB000006820F48030E149103908600846006848
:103BC00020F4802008601EE06068B0F5A02F0DD1C1
:103BD000DA481038006840F48020D849103908606D
:103BE0000846006840F4803008600CE0D348103884
:103BF000006820F48030D149103908600846006818
:103C000020F48020086000BF606898B1FEF746FA93
:103C1000054606E0FEF742FA401B642801D903205E
:103C20008FE7C64810380068C0F340400028F1D044
:103C300012E012E0FEF732FA054606E0FEF72EFA31
:103C4000401B642801D903207BE7BC48103800687A
:103C5000C0F340400028F1D100BF207800F00200FE
:103C6000022874D1B548006800F03808B34818300D
:103C7000D0F80090B8F1000F05D0B8F1180F56D168
:103C800009F00300D0BBAD4810380068C0F38000D5
:103C900018B1E06808B9012053E7A8481038006857
:103CA00020F01900E1680843A44910390860FEF7C4
:103CB000F5F9054606E0FEF7F1F9401B022801D9A7
:103CC00003203EE79D4810380068C0F380000028BC
:103CD000F1D000BFFEF7DCF941F2030188421AD8A7
:103CE000206940280BD195480C38006820F47C30BE
:103CF00040F4003091490C39086017E017E08F4814
:103D00000C38006820F47C30216940EA01308B498E
:103D10000C3908600AE089480C38006820F0FE4041
:103D2000217C40EA016085490C39086066E0E06862
:103D300088B382481038006820F01900E168084311
:103D40007E4910390860FEF7A9F9054607E056E0FC
:103D5000FEF7A4F9401B022801D90320F1E67748B9
:103D600010380068C0F380000028F1D000BFFEF7D3
:103D70008FF941F2030188421AD8206940280BD1FB
:103D80006E480C38006820F47C3040F400306B49F9
:103D90000C39086017E017E068480C38006820F418
:103DA0007C30216940EA013064490C3908600AE03E
:103DB00062480C38006820F0FE40217C40EA016037
:103DC0005E490C39086019E05C481038006820F042
:103DD00001005A4910390860FEF760F9054606E00F
:103DE000FEF75CF9401B022801D90320A9E65348DD
:103DF00010380068C0F380000028F1D100BF20789F
:103E000000F0100010287CD14C48006800F0380801
:103E10004A481830D0F80090B8F1080F06D0B8F131
:103E2000180F3DD109F00300012839D1434810385B
:103E30000068C0F3002020B1E069802801D0012093
:103E40007FE600BFFEF724F941F2030188421AD849
:103E5000206A20280AD139480C38006820F0F84040
:103E600040F0804035490C39086018E033480C3880
:103E7000006820F0F84094F8201040EA81602F4953
:103E80000C3908600BE02D48001F006820F07C50C2
:103E900094F8201040EA01602849091F086066E094
:103EA000E06978B325481038006840F08000234965
:103EB00010390860FEF7F2F8054606E0FEF7EEF866
:103EC000401B022801D903203BE61C48103800683B
:103ED000C0F300200028F1D000BFFEF7D9F841F26E
:103EE000030188421CD8206A20280CD113480C38C2
:103EF000006820F0F84040F0804010490C3908601C
:103F00001AE035E01CE00D480C38006820F0F8405D
:103F100094F8201040EA816008490C3908600BE0F1
:103F20000648001F006820F07C5094F8201040EAFA
:103F300001600249091F086019E00000104402589E
:103F4000FA48006820F08000F8490860FEF7A6F8FB
:103F5000054606E0FEF7A2F8401B022801D903201F
:103F6000EFE5F2480068C0F300200028F2D100BF5E
:103F7000207800F00800082836D16069D0B1EB48FD
:103F80007430006840F00100E84974310860FEF7C1
:103F900085F8054606E0FEF781F8401B022801D9A6
:103FA0000320CEE5E14874300068C0F340000028EB
:103FB000F1D019E0DD487430006820F00100DB49E1
:103FC00074310860FEF76AF8054606E0FEF766F809
:103FD000401B022801D90320B3E5D448743000689F
:103FE000C0F340000028F1D1207800F02000202804
:103FF00030D1A069B8B1CD48006840F48050CB49B9
:104000000860FEF74BF8054606E0FEF747F8401B50
:10401000022801D9032094E5C4480068C0F3403069
:104020000028F2D016E0C148006820F48050BF4953
:104030000860FEF733F8054606E0FEF72FF8401B50
:10404000022801D903207CE5B8480068C0F340305D
:104050000028F2D1207800F0040004287DD1B44873
:10406000006840F48070B2490860FEF717F8054612
:1040700006E0FEF713F8401B642801D9032060E531
:10408000AB48006800F480700028F2D000BFA06840
:10409000012808D1A5487030006840F00100A3490C
:1040A000703108602DE0A06868B9A04870300068E1
:1040B00020F001009D49703108600846006820F03A
:1040C000040008601DE0A06805280DD197487030F5
:1040D000006840F0040095497031086008460068A7
:1040E00040F0010008600CE090487030006820F05B
:1040F00001008E49703108600846006820F0040015
:10410000086000BFA068A0B1FDF7C8FF054608E041
:10411000FDF7C4FF401B41F28831884201D90320DA
:104120000FE5824870300068C0F340000028EFD0EF
:1041300013E0FDF7B3FF054608E0FDF7AFFF401BB6
:1041400041F28831884201D90320FAE4774870307F
:104150000068C0F340000028EFD1606A00287DD0DD
:1041600072481030006800F03800182877D0606A74
:10417000022875D16D48006820F080706B49086096
:10418000FDF78CFF054606E0FDF788FF401B02287F
:1041900001D90320D5E465480068C0F340600028D9
:1041A000F2D100BFD4E90A1041EA00105F4928317A
:1041B000096840F2F332914308435C4928310860B2
:1041C000208E401EC0F30800616B491E4FF47E42F2
:1041D00002EA41210843218F491ED20102EA01412E
:1041E00008433C21095D491E120202EA01610843AD
:1041F0004E493031086000BF081F006820F0010000
:10420000091F08604948343000684FF6F871884348
:10421000A16C40EAC10045493431086043482C3064
:10422000006820F00C00216C084340492C310860E4
:104230000846006820F00200616C08433B492C31BD
:1042400008600846006840F480300860084600684E
:1042500040F4003008600846006802E093E038E06F
:104260001FE040F4802008600846006840F001002C
:1042700008602E48006840F080702C490860FDF707
:104280000DFF054606E0FDF709FF401B022801D996
:10429000032056E425480068C0F340600028F2D0AF
:1042A00071E02248006820F0807020490860FDF726
:1042B000F5FE054606E0FDF7F1FE401B022801D998
:1042C00003203EE419480068C0F340600028F2D1A2
:1042D00059E0164828300768144830300668606A8C
:1042E000012821D007F00301A06A81421CD1C7F345
:1042F0000511E06A884217D1C6F30801206B401E01
:10430000814211D1606B401EC6F3462188420BD119
:10431000A06B401EC6F30641884205D1E06B401EEB
:10432000C6F30661884205D001200AE40044025821
:104330000048025815480068C0F3CC07A06CB8428A
:1043400021D012480838006820F001000F490839D0
:104350000860FDF7A3FE054600BFFDF79FFE401B6A
:10436000FBD00A4800684FF6F8718843A16C40EA18
:10437000C1000649086005480838006840F001009F
:1043800002490839086000204AE400003444025819
:104390000349096821F460010143014A1160704733
:1043A0000404005870B504462546681EB0F1807FAD
:1043B00001D301200FE0681E4FF0E02148610F217A
:1043C0004FF0FF3001F07AFE00204FF0E0218861CD
:1043D00007200861002070BD014600BF91F88400ED
:1043E000012801D102207047012081F8840000BF1C
:1043F0002420C1F88800086802680868006820F076
:1044000001000B68186022F000520020486608681E
:1044100002602020C1F8880000BF002081F88400DD
:1044200000BF00BFDFE77047704770B504460D4618
:1044300000BF94F88400012801D1022070BD012042
:1044400084F8840000BF2420C4F88800206806682F
:104450002068006820F001002168086020688068FA
:1044600020F06060284321688860204601F074F9DC
:10447000206806602020C4F8880000BF002084F86F
:10448000840000BF00BFD9E770B504460D4600BFE9
:1044900094F88400012801D1022070BD012084F825
:1044A000840000BF2420C4F88800206806682068C3
:1044B000006820F00100216808602068806820F012
:1044C0006040284321688860204601F045F9206853
:1044D00006602020C4F8880000BF002084F8840013
:1044E00000BF00BFD9E77047704770472DE9F0471C
:1044F00004462068C569206806682068876840F619
:104500000F0005EA0009B9F1000F0FD105F02000F6
:1045100060B106F0200010B907F0805030B1606F34
:1045200010B12046616F8847BDE8F087B9F1000FF0
:104530007ED0FE48384018B9FD4830400028F7D0FA
:1045400005F0010058B106F4807040B101202168E7
:104550000862D4F8900040F00100C4F8900005F023
:10456000020058B107F0010040B102202168086242
:10457000D4F8900040F00400C4F8900005F0040066
:1045800058B107F0010040B1042021680862D4F856
:10459000900040F00200C4F8900005F0080070B1EF
:1045A00006F0200010B9E148384040B108202168E9
:1045B0000862D4F8900040F00800C4F8900005F4B8
:1045C000006060B106F0806048B14FF4006021687F
:1045D0000862D4F8900040F02000C4F89000D4F8AD
:1045E0009000002852D005F0200050B106F02000C5
:1045F00010B907F0805020B1606F10B12046616F94
:104600008847D4F890A02068806800F040004028D7
:1046100002D00AF0280070B3204601F0C7F92068E4
:10462000806800F04000402826D100BF00BF00E0B5
:104630002DE02168083151E8001F21F04000216879
:10464000083141E80002002AF1D100BFD4F880000F
:1046500068B1B848D4F880100865D4F88000FCF739
:10466000A1FD98B1D4F88000016D88470EE0204686
:10467000FFF73BFF0AE003E02046FFF736FF05E0C7
:104680002046FFF732FF0020C4F890004CE7E06EB0
:1046900001287DD105F01000002879D006F0100027
:1046A0000028FAD01020216808622068806800F095
:1046B000400040286DD1D4F8800000689E498842AF
:1046C0006BD0D4F8800000689B491831884264D0D0
:1046D000D4F8800000689849303188425DD0D4F821
:1046E0008000006894494831884256D0D4F8800050
:1046F00000689149603188424FD0D4F8800000684A
:104700008D497831884248D0D4F8800000688A49C1
:104710009031884241D0D4F8800000688649A831A1
:1047200088423AD0D4F8800000688449884234D066
:10473000D4F8800000688149183188422DD0D4F81F
:10474000800000687D493031884226D0D4F880004E
:1047500000687A49483188421FD0D4F88000006848
:1047600076496031884218D0D4F8800000687349D7
:104770007831884211D0D4F8800000686F499031B8
:1047800088420AD0D4F8800000686C49A83102E061
:10479000AEE069E001E0884204D1D4F8800000680E
:1047A000406803E0D4F88000006840681FFA80F891
:1047B000B8F1000F57D0B4F85C00404553DDA4F8C1
:1047C0005E80D4F88000C069B0F5807F40D000BF23
:1047D00000BF216851E8001F21F48070226842E880
:1047E00000010029F5D100BF00BF00BF21680831DA
:1047F00051E8001F21F001002168083141E8000262
:10480000002AF3D100BF00BF00BF2168083151E882
:10481000001F21F040002168083141E80002002A11
:10482000F3D100BF2020C4F88C000020E06600BF58
:1048300000BF216851E8001F21F01000226842E803
:1048400000010029F5D100BFD4F88000FCF73CFA44
:1048500002202067B4F85C00B4F85E20801A81B2B0
:104860002046FFF7E0FD5FE634F85C0F6188401AF0
:104870001FFA80F860885C3CC8B3B8F1000F36D0EE
:1048800000BF00BF216851E8001F21F4907022682A
:1048900042E800010029F5D100BF00BF00BF216838
:1048A000083151E8001F214AD24301EA0200216881
:1048B000083141E80002002AF1D100BF2020C4F8ED
:1048C0008C000020E066606700BF00BF216851E8EF
:1048D000001F21F01000226842E800010029F5D1F4
:1048E00000BF0220206741462046FFF79CFD1BE6E3
:1048F00005F4801050B107F4800038B14FF48010F7
:10490000216808622046FFF7EFFD0DE605F0800004
:10491000B0B106F0800010B907F4000080B1A06FBC
:1049200010B12046A16F8847FEE50000010000108D
:1049300020010004935900081000024010040240B6
:1049400005F0400030B106F0400018B1204601F0FB
:1049500063F8E9E505F4000030B106F0804018B1D5
:104960002046FFF7C0FDDFE505F0807030B106F0AE
:10497000004018B12046FFF757FDD5E500BFD3E54D
:1049800010B504460CB9012010BDA06900B100E0CB
:1049900000BFD4F8880028B9002084F8840020469D
:1049A00000F02AF82420C4F888002068006820F06D
:1049B000010021680860204601F046F8012800D176
:1049C000E2E7A06A10B1204600F0F2FE20684068DD
:1049D00020F49040216848602068806820F02A0018
:1049E000216888602068006840F001002168086044
:1049F000204600F059FFC7E710B5B8B004461421AF
:104A000032A8FBF7BFFCC02102A8FBF7BBFC224980
:104A1000206888423ED101210020CDE9021021907A
:104A200002A8FDF7E5FE08B1FCF710F900BF1B482E
:104A3000006840F01000194908600846006800F05E
:104A40001000019000BF00BF00BF1448103800687C
:104A500040F001001149103908600846006800F074
:104A60000100019000BF00BF4FF4C06032900220EF
:104A700033900020349035900720369032A90848B2
:104A8000FDF7FAF9002211462520FDF7EDFB252060
:104A9000FDF7D6FB38B010BD00100140F0440258BD
:104AA00000000258704700BFFEE7000010B500226A
:104AB00010211248FDF7E6FA1048006820F4406023
:104AC0000E4908600846006840F4806008600022D3
:104AD00020210A48FDF7D6FA022001F0FBFB012253
:104AE00010210648FDF7CEFA022001F0F3FB002268
:104AF00010210248FDF7C6FA10BD0000001C025844
:104B000000B587B000BF1248006840F0800010492F
:104B100008600846006800F08000019000BF00BFF8
:104B2000302002900120039004900320059002A9F8
:104B30000848FDF7A1F9012220210648FDF7A2FA55
:104B4000012210210348FDF79DFA07B000BD0000C7
:104B5000E0440258001C025810B5002210211248EF
:104B6000FDF790FA1048006820F440600E49086094
:104B70000846006840F480600860012220210A484D
:104B8000FDF780FA022001F0A5FB01221021064862
:104B9000FDF778FA022001F09DFB00221021024867
:104BA000FDF770FA10BD0000001C025870B50546F4
:104BB00000241848006820F4406016490860084640
:104BC0000068086000261AE0002210211148FDF755
:104BD00059FA022001F07EFB012210210D48FDF759
:104BE00051FA6006040E20210A48FDF743FA08B185
:104BF000601CC4B2012001F06DFB701CC6B2082E0F
:104C0000E2DB15B9FFF7A8FF01E0FFF74FFF2046F1
:104C100070BD0000001C025870B504461C480068B6
:104C200020F440601A4908600846006840F480603B
:104C30000860002210211648FDF724FA002523E021
:104C4000E00928B1012220211148FDF71BFA04E0F8
:104C5000002220210E48FDF715FA6006040E0220FE
:104C600001F038FB012210210948FDF70BFA022060
:104C700001F030FB002210210548FDF703FA022065
:104C800001F028FB681CC5B2082DD9DB70BD0000FF
:104C9000001C025810B51348006820F44060114908
:104CA00008600846006840F4806008600122202106
:104CB0000C48FDF7E7F9012210210A48FDF7E2F957
:104CC000042001F007FB002220210648FDF7DAF955
:104CD000042001F0FFFA002210210248FDF7D2F96A
:104CE00010BD0000001C025810B51348006820F4E5
:104CF0004060114908600846006840F48060086020
:104D0000002210210C48FDF7BDF9002220210A489D
:104D1000FDF7B8F9042001F0DDFA01221021064860
:104D2000FDF7B0F9012220210348FDF7ABF904207B
:104D300001F0D0FA10BD0000001C025810B500248C
:104D40001748006820F4406015490860084600686C
:104D50000860012220211248FDF794F9012001F09A
:104D6000B9FA012210210E48FDF78CF9012001F05B
:104D7000B1FA07E0601CC4B2FA2C03DDFFF7B4FF00
:104D8000012010BD20210648FDF774F90028F1D15B
:104D9000002210210248FDF775F90020F1E700001C
:104DA000001C025838B50446002000906A460121D4
:104DB000636920689847002802DA6FF0040038BD64
:104DC0006A460121636920689847002802DA6FF07B
:104DD0000400F4E7009800F0040008B90120EEE7B1
:104DE0006A460021636920689847002802DA6FF05C
:104DF0000400E4E7009800F48050B0F5805F1FD015
:104E0000009800F40050B0F5005F07D1009800F45E
:104E10008070B0F5807F01D10220D0E7009800F4C7
:104E20000050B0F5005F01D10320C8E7009800F4FE
:104E30008070B0F5807F01D10420C0E70520BEE777
:104E40006A461F21636920689847002802DA6FF0DC
:104E50000400B4E7009800F4805008B90620AEE7DB
:104E6000009800F01C00182801D10220A7E7009844
:104E700000F01C00082801D10320A0E7009800F0F2
:104E80001C00142801D1042099E7052097E7F8B504
:104E900004460027002000900025002660680028B6
:104EA00055D1A06808B1A068804720202060002567
:104EB00013E06A461221284663699847002802DAFF
:104EC0006FF0040608E0009800F01F00A84202D12D
:104ED0002560002603E000BF6D1C1F2DE9D900BF2F
:104EE00020681F2801D96FF0020656BB4FF400421C
:104EF0000021236920689847002826DB6A460021A4
:104F000063692068984700281CDBA0698047074632
:104F100012E0A0698047C01BB0F5FA7F09D86A4645
:104F20000021636920689847002805DA6FF00406BD
:104F300007E06FF0010604E0009800F4004000284C
:104F4000E7D104E06FF0040601E06FF003065EB9FC
:104F5000A0698047074600BFA0698047C01BB0F525
:104F6000FA6FF9D9012060603046F8BD02462AB1D7
:104F7000C86818B1886808B1086910B94FF0FF30E7
:104F80007047086890604B68D360CB6853618B684A
:104F900013610B6993610020F2E7F0B503460C46FC
:104FA0000AB90120F0BD0025186800F5407001190C
:104FB000186800F5417006191079577940EA072002
:104FC0000860D0780006977840EA0740577840EAB2
:104FD0000720177838433060086840F04040086088
:104FE0002846DFE71FB50020009001900290039053
:104FF000FDF7F0F801208DF8000000208DF8010089
:105000000F48019013208DF8080000208DF809004A
:1050100001208DF80A0003208DF80B0000208DF888
:105020000C0001208DF80D008DF80E008DF80F009A
:105030006846FDF7A1F80420FDF7DCF81FBD00006D
:105040000040003008B500BF2048006840F08000F4
:105050001E4908600846006800F08000009000BF0C
:1050600000BF00BF0846006840F004000860084622
:10507000006800F00400009000BF00BF00BF0846B9
:10508000006840F0010008600846006800F0010078
:10509000009000BF00BF00BF0846006840F002005B
:1050A00008600846006800F00200009000BF00BFE2
:1050B00000BF0846006840F04000086008460068ED
:1050C00000F04000009000BF00BF08BDE04402585F
:1050D0000EB5064806490022064BCDE90021029094
:1050E000054A0649064803F0A7FF0EBD5D6C00089F
:1050F000F16E00085C0000245800002454000024D5
:10510000C092002410B51848184908604FF4E130E7
:105110004860002115488160C16001610C21416136
:1051200000218161C1610162416200200F498862F2
:105130000846FFF725FC08B1FBF788FD00210B4866
:10514000FFF7A2F908B1FBF781FD00210748FFF73F
:105150006CF908B1FBF77AFD0448FFF73DF908B197
:10516000FBF774FD10BD000000100140A0470024B3
:1051700000BFFEE700BFFEE710B586B0002400BF09
:105180001548006840F002001349086008460068AE
:1051900000F00200009000BF00BF4FF4805001906B
:1051A00000200290012003900320049001A90B48E5
:1051B000FCF762FEFFF7A4FCFFF76CFD4020FFF751
:1051C0002BFDFFF7BBFD0446FFF78EFDFF2000F02F
:1051D0002BF8204606B010BDE044025800040258E7
:1051E00010B50024FFF756FD4120FFF715FDFFF72E
:1051F000A5FD0020FFF7DAFC0446FFF775FD204609
:1052000010BD70B504460E46FFF7EAFF05461EB90D
:105210000120A040854303E00120A0402843C5B2FF
:10522000284600F001F870BD10B50446FFF732FDC6
:105230004020FFF7F1FCFFF781FD2046FFF7ECFC73
:10524000FFF77CFDFFF750FD0A2001F037F810BD95
:10525000704700002DE9F04104460E4600275548EE
:10526000006800F00300032802D10120BDE8F081AE
:1052700050482838006820F080604E49283908607E
:10528000FCF70CFF054606E0FCF708FF401B022870
:1052900001D90320EAE7474828380068C0F3C06016
:1052A0000028F1D100BF4348006820F47C30216819
:1052B00040EA01303F490860A088401EC0F3080062
:1052C000A168491E4FF47E4202EA41210843A189A8
:1052D000491ED20102EA01410843217C491E120203
:1052E00002EA0161084333491031086000BF3148C8
:1052F000001D006820F0C000616908432D49091DA8
:1053000008600846006820F02000A1690843294988
:10531000091D08600846006820F010000860254854
:10532000143000684FF6F8718843E16940EAC10023
:105330002049143108601F48001D006840F010002B
:105340001C49091D08602EB90846006840F4002079
:10535000086012E0012E08D11648001D006840F4D4
:1053600080101449091D086007E01248001D0068FC
:1053700040F400100F49091D08600E4828380068E5
:1053800040F080600B4928390860FCF787FE05462D
:1053900006E0FCF783FE401B022801D9032065E7E5
:1053A000044828380068C0F3C0600028F1D03846AF
:1053B0005CE70000284402582DE9F04104460E46FF
:1053C00000275548006800F00300032802D101209F
:1053D000BDE8F08150482838006820F080504E49E0
:1053E00028390860FCF75AFE054606E0FCF756FE31
:1053F000401B022801D90320EAE747482838006803
:10540000C0F340700028F1D100BF4348006820F08D
:105410007C70218840EA01503F490860A088401E06
:10542000C0F30800A168491E4FF47E4202EA412100
:105430000843A189491ED20102EA01410843217CA7
:10544000491E120202EA016108433349183108601B
:1054500000BF3148001D006820F4406061690843C6
:105460002D49091D08600846006820F40070A169F4
:1054700008432949091D08600846006820F4807027
:10548000086025481C3000684FF6F8718843E169D0
:1054900040EAC10020491C3108601F48001D006817
:1054A00040F480701C49091D08602EB90846006848
:1054B00040F48000086012E0012E08D11648001D5B
:1054C000006840F400001449091D086007E0124814
:1054D000001D006840F080700F49091D08600E48EB
:1054E0002838006840F080500B4928390860FCF7E4
:1054F000D5FD054606E0FCF7D1FD401B022801D989
:10550000032065E7044828380068C0F3407000288D
:10551000F1D038465CE7000028440258704710B5C7
:10552000FCF7C2FD10BD000000B59DB04C210AA8DB
:10553000FAF728FF202102A8FAF724FF0220FCF73F
:10554000E5FE00BF002001904148006820F0010006
:105550003F4908600846006800F0010001903D489E
:10556000006840F440403B4908600846006800F489
:105570004040019000BF00BF00BF3648006800F403
:105580000050B0F5005FF8D100BF3348006840F02C
:105590000200314908600846006800F002000190EE
:1055A00000BF00BF00BF002001902A48006840F4FF
:1055B0004040284908600846006800F440400190D7
:1055C0002348006840F0010021490860084600684F
:1055D00000F00100019000BF00BF00BF1D4800683F
:1055E00000F40050B0F5005FF8D101200A900004EB
:1055F0000B90022013900221149105211591C021D6
:105600001691022117911891199108211A910021E0
:105610001B911C910AA8FEF78FFA08B1FBF716FB45
:105620003F20029003200390002004900820059062
:105630004020069007900001089040200990042126
:1056400002A8FDF789FF08B1FBF700FB1DB000BD04
:105650002C04005818480258F44402583448006892
:1056600040F47000324908603248006800F00F00D2
:10567000072806D22F48006820F00F00C01D2D49D2
:1056800008602D48006840F001002B4908600020A8
:1056900029491031086028480068284908402649EF
:1056A00008602448006800F00F00072806D9214848
:1056B000006820F00F00C01D1E49086000201E4930
:1056C00018310860091D0860091D08601C481A4946
:1056D000283108601B48091D08601B48091D086027
:1056E0000020091D08601848091D08600020091DD8
:1056F00008601548091D08600020091D08600E4853
:10570000006820F480200C49086000200A496031BC
:1057100008600E4800686FF30F00B0F1005F02D21E
:1057200001200B49086043F2D2000A490860704723
:1057300088ED00E000200052004402587FEDF6EAB8
:10574000000202020000FF01800201010010005C63
:10575000088100510040005270B5456E2DB90125F9
:10576000A0F86A50A0F868501CE0102310240568C7
:10577000AD68C5F342610568AD686A0F0A4DAD5C5E
:1057800015FB04F5094EB65C95FBF6F5A0F86A50DA
:10579000054D6D5C15FB03F5044E765C95FBF6F547
:1057A000A0F8685070BD0000B4080108BC080108EA
:1057B00090F8281001F0010139B10168496821F41D
:1057C0000031C26A11430268516090F8281001F05C
:1057D0000201022907D10168496821F48031026B76
:1057E00011430268516090F8281001F00401042967
:1057F00007D10168496821F48021426B1143026896
:10580000516090F8281001F00801082907D10168BB
:10581000496821F40041826B11430268516090F89D
:10582000281001F01001102907D10168896821F4BE
:105830008051C26B11430268916090F8281001F00A
:105840002001202907D10168896821F40051026CE8
:1058500011430268916090F8281001F0400140293E
:1058600013D10168496821F48011426C1143026828
:105870005160416CB1F5801F07D10168496821F47E
:10588000C001826C11430268516090F8281001F049
:105890008001802907D10168496821F40021C26C88
:1058A000114302685160704738B504460020C4F8BF
:1058B0009000FCF7F3FB05462068006800F0080044
:1058C000082821D16FF07E402B4600224FF40011B2
:1058D0000090204600F07EFBB0B100BF00BF216801
:1058E00051E8001F21F08000226842E800010029F1
:1058F000F5D100BF2020C4F8880000BF002084F844
:10590000840000BF032038BD2068006800F0040058
:10591000042830D16FF07E402B4600224FF48001E6
:105920000090204600F056FB28B300BF00BF21685E
:1059300051E8001F21F49070226842E8000100291C
:10594000F5D100BF00BF00BF2168083151E8001F3A
:1059500021F001002168083141E80002002AF3D15A
:1059600000BF2020C4F88C0000BF002084F8840011
:1059700000BF0320C7E72020C4F88800C4F88C00CB
:105980000020E066206700BF84F8840000BF00BFED
:10599000B9E770B50546AC6B0020A4F85E00A4F82A
:1059A00056002046FEF7A1FD70BD000000BF00BFFD
:1059B000026852E8002F22F49071036843E8001255
:1059C000002AF5D100BF00BF00BF0268083252E8CC
:1059D000002F104B02EA03010268083242E800136C
:1059E000002BF2D100BFC16E01290CD100BF00BF56
:1059F000026852E8002F22F01001036843E8001209
:105A0000002AF5D100BF2021C0F88C100021C1660A
:105A100041677047FEFFFFEF10B5044600BF00BFAF
:105A2000216851E8001F21F04000226842E800018F
:105A30000029F5D100BF2020C4F888000020A0670D
:105A40002046FFF72FF810BD2DE9F04F89B005462D
:105A500000200890F8492868884200D100E000BF83
:105A60002969A868084369690843E96940EA0108A7
:105A700028680068F149084040EA08002968086081
:105A80002868406820F44050E96808432968486065
:105A9000D5F81880E8492868884202D0286A40EA88
:105AA000080828688068E649084040EA0800296834
:105AB00088602868C06A20F00F00696A0843296876
:105AC000C86200BFDF492868884220D1DE480068EC
:105AD00000F03800182811D005DC48B1082809D09A
:105AE000102811D108E020280AD028280CD109E07C
:105AF00001240BE0042409E0082407E0102405E059
:105B0000202403E0402401E0802400BFF8E0CF49D6
:105B10002868884219D1CC48006800F007000628A0
:105B200010D2DFE800F0030507090B0D00240BE09D
:105B3000042409E0082407E0102405E0202403E001
:105B4000402401E0802400BFDAE0C149286888428F
:105B500019D1BD48006800F00700062810D2DFE820
:105B600000F0030507090B0D00240BE0042409E0F5
:105B7000082407E0102405E0202403E0402401E08D
:105B8000802400BFBCE0B3492868884219D1AE48E0
:105B9000006800F00700062810D2DFE800F00305D7
:105BA00007090B0D00240BE0042409E0082407E09A
:105BB000102405E0202403E0402401E0802400BFFD
:105BC0009EE0A5492868884219D19F48006800F0E6
:105BD0000700062810D2DFE800F0030507090B0DC7
:105BE00000240BE0042409E0082407E0102405E069
:105BF000202403E0402401E0802400BF80E0974996
:105C00002868884220D19048006800F038001828A1
:105C100011D005DC48B1082809D0102811D108E0BE
:105C200020280AD028280CD109E001240BE0042404
:105C300009E0082407E0102405E0202403E04024C4
:105C400001E0802400BF5BE085492868884219D1C3
:105C50007D48006800F00700062810D2DFE800F059
:105C6000030507090B0D00240BE0042409E00824B8
:105C700007E0102405E0202403E0402401E0802414
:105C800000BF3DE077492868884219D16E48006816
:105C900000F00700062810D2DFE800F0030507092E
:105CA0000B0D00240BE0042409E0082407E0102475
:105CB00005E0202403E0402401E0802400BF1FE031
:105CC0005D49286888421AD15F48001D006800F0CD
:105CD0000700062810D2DFE800F0030507090B0DC6
:105CE00002240BE0042409E0082407E0102405E066
:105CF000202403E0402401E0802400BF00E0802451
:105D000000BF4D49286888427DD1102C1AD006DC8E
:105D1000022C09D0042C0BD0082C29D10DE0202C0A
:105D200021D0402C24D120E0FCF720FB064623E0C4
:105D300005A8FCF72DFB069E1EE002A8FCF740FC20
:105D4000039E19E0404854380068C0F3401040B149
:105D50003D4854380068C0F3C101434820FA01F6B9
:105D600000E0414E08E0414E06E04FF4004603E0FB
:105D700000260120089000BF00BF002E10D03C4933
:105D8000686A31F81000B6FBF0F9686800EB400073
:105D9000484503D868680003484502D201200890AE
:105DA00003E13349686A31F810C062460023304687
:105DB0001946FAF78FFA4FF4807300228446ACFB41
:105DC000030B01FB03B10CFB021C69684908034685
:105DD00059184CEB0200CDE90010D5F804C062461A
:105DE000002308460199FAF775FA0746B7F5407F90
:105DF00006D3B7F5801F03D22868C760D5E002E05C
:105E000001200890D1E0E869B0F5004F7BD1082C63
:105E100039D005DC5CB1012C2CD0042C4CD12DE008
:105E2000102C35D0202C42D0402C45D141E0FDF73C
:105E300049FD064644E00000000C0058F369FFCF1E
:105E4000FFF4FF1100100140544402580044004088
:105E500000480040004C0040005000400014014049
:105E600000780040007C00400090D00300093D0015
:105E70009C080108FDF738FD064621E005A8FCF75F
:105E800087FA069E1CE002A8FCF79AFB039E17E027
:105E90004C480068C0F3401038B14A480068C0F36D
:105EA000C101494820FA01F600E0474E08E0474E9C
:105EB00006E04FF4004603E000260120089000BFF2
:105EC00000BFFEB14249686A31F81000B6FBF0F03D
:105ED0004000696800EB5100B0FBF1F7102F0FD3C1
:105EE000B7F5803F0CD24FF6F07007EA000AC7F30F
:105EF00042004AEA000A2868C0F80CA055E002E017
:105F00000120089051E0082C1AD005DC5CB1012C6E
:105F10000DD0042C2DD10EE0102C16D0202C23D027
:105F2000402C26D122E0FDF7CDFC064625E0FDF70A
:105F3000DBFC064621E005A8FCF72AFA069E1CE0D9
:105F400002A8FCF73DFB039E17E01E480068C0F363
:105F5000401038B11B480068C0F3C1011A4820FA4C
:105F600001F600E0184E08E0184E06E04FF4004637
:105F700003E000260120089000BF00BFAEB1144925
:105F8000686A31F81000B6FBF0F0696800EB510068
:105F9000B0FBF1F7102F06D3B7F5803F03D2B8B2AC
:105FA0002968C86001E0012008900120A5F86A0076
:105FB000A5F8680000206867A867089809B0BDE8E0
:105FC000F08F0000004402580090D00300093D000B
:105FD0009C0801082DE9F04104460D4617469846F5
:105FE000069E3CE0701CC8B3FCF758F8A0EB080014
:105FF000B04200D816B90320BDE8F08120680068DF
:1060000000F0040050B32068C069C0F3C00078B14C
:106010000820216808622046FFF7C8FC0820C4F861
:10602000900000BF002084F8840000BF0120E3E757
:106030002068C069C0F3C02080B14FF400602168BF
:1060400008622046FFF7B2FC2020C4F8900000BF91
:10605000002084F8840000BF0320CDE7FFE720681C
:10606000C0692840A84201D1012000E00020B842C8
:10607000B8D00020C0E7000010B50248FEF736FA9D
:1060800010BD0000A047002400BFFEE70FB4054B81
:1060900010B503A9044A029800F034F810BC5DF86A
:1060A00014FB0000FF6E0008240100240248006871
:1060B000C0F30220704700000CED00E010B500288E
:1060C00004DB0A07130E054A135406E00A07140EF0
:1060D000034A00F00F031B1FD45410BD00E400E07E
:1060E00018ED00E002E008C8121F08C1002AFAD12A
:1060F00070477047002001E001C1121F002AFBD148
:10610000704700002DE9FF4F8BB09A460F460546B9
:10611000002606E025280BD052460D9990476D1CAD
:10612000761C28780028F5D10FB03046BDE8F08FF6
:106130000024A0460122604900E0044315F8013F15
:10614000203B02FA03F00842F7D128782E2817D115
:1061500015F8010F44F004042A280ED06FF02F0226
:106160002878A0F1300109290AD808EB880102EB50
:10617000410100EB01086D1CF2E757F8048B6D1C20
:10618000287869283ED006DC0028CDD063280BD0C3
:10619000642804D136E0732810D075284BD05246BD
:1061A0000D999047761C85E017F8040B8DF80000D8
:1061B00000208DF80100E946012003E057F8049B18
:1061C0004FF0FF3061074FF0000401D40AE0641C77
:1061D00044450DDA8442FADB19F804100029F6D19F
:1061E00006E0641C8442FCDB19F804100029F8D195
:1061F000264404E019F8010B52460D999047641E9D
:10620000F8D257E001CF4FF00A0B002802DA4042E3
:106210002D2102E0210504D52B218DF82410012128
:1062200003E0E10705D02021F7E70DF120090891EF
:106230000CE00021F9E701CF4FF00A0BF9E75946CE
:10624000FAF7B8F801F1300209F8012D0028F6D16B
:10625000ADEB090000F1200B600701D44FF00108FD
:10626000D84502DDA8EB0B0000E0002080460024AA
:1062700006E009A85246005D0D999047641C761C03
:1062800008988442F5DB04E0302052460D9990478F
:10629000761CB8F10001A8F10108F5DC05E019F859
:1062A000010B52460D999047761CBBF10001ABF1F2
:1062B000010BF4DC6D1C34E70928010030B50446FD
:1062C000002504E04FF47A7000F004F86D1CA5423C
:1062D000F8D330BD70B5034600224FF0E026756953
:1062E0000D4E366803FB06F44FF0E026B16910E06E
:1062F0004FF0E026B06988420BD0884202D20E1AD5
:10630000324402E02E1A0E4432440146A24200D327
:1063100000E0EDE700BF70BD3000002470B504461A
:106320000D4600BF05F00300002808D000BF08A3F9
:106330004FF4B67212A11AA0FFF7A8FE00BF00BF6B
:106340002E46A06800683060A068066070BD00003E
:106350002E2E2F4D6964646C6577617265732F54BE
:10636000686972645F50617274792F4C7749502F5D
:106370007372632F636F72652F6D656D702E63008E
:106380006D656D705F667265653A206D656D207034
:10639000726F7065726C7920616C69676E656400FC
:1063A000417373657274696F6E20222573222066B3
:1063B00061696C6564206174206C696E6520256478
:1063C00020696E2025730A0070B50546A868046828
:1063D000002C13D02068A968086000BF04F00300F7
:1063E000002808D000BF06A34FF48C7210A119A09A
:1063F000FFF74CFE00BF00BF204670BD0020FCE749
:106400002E2E2F4D6964646C6577617265732F540D
:10641000686972645F50617274792F4C7749502FAC
:106420007372632F636F72652F6D656D702E6300DD
:106430006D656D705F6D616C6C6F633A206D656D3D
:10644000702070726F7065726C7920616C69676E14
:1064500065640000417373657274696F6E20222554
:106460007322206661696C6564206174206C696EBA
:106470006520256420696E2025730A0070B50546E5
:10648000002411E004EB4400094901EBC000067D43
:106490004EB104EB440001EBC0008068A84202D179
:1064A000204600F087F9641C0A2CEBDB70BD00006D
:1064B000E4C100242DE9FF5F0646894617464FF0E8
:1064C0000A0AD346D04600240A20039000200290F6
:1064D0000190009000BF73E004EB4400764901EBAB
:1064E000C000057DB8F10A0F02D10DB9A04665E0E4
:1064F000002D63D000BF012D0AD0022D08DA00BFA5
:106500006EA340F223127BA18AA0FFF7BFFD00BF5C
:1065100000BFAEB104EB4401674A02EBC101306831
:10652000496888420CD13FB104EB4400114601EBAD
:10653000C0008068B84203D1204604B0BDE8F09F97
:10654000012D28D104EB44005B4951F8300080B1A3
:1065500004EB440001EBC000418A029881422DDB2C
:10656000039404EB4400544901EBC000408A0290BC
:1065700024E004EB4400504901EBC000418A01983B
:1065800081421BDBA24604EB44004B4901EBC000F7
:10659000408A019012E0022D10DB04EB44004649D2
:1065A00001EBC000418A0098814207DBA34604EB5F
:1065B0004400414901EBC000408A0090601C04B2D5
:1065C0000A2C89DB09F0020028B9B8F10A0F05D1BD
:1065D00009F0010010B94FF0FF30AEE7B8F10A0F33
:1065E00001DA444631E0BBF10A0F11DA5C4600BF24
:1065F00004EB4400304951F8300040B100BF2FA3F4
:1066000040F26D1255A14BA0FFF740FD00BF0CE01A
:10661000BAF10A0F01DA544607E003980A2801DAB2
:10662000039C02E04FF0FF3087E700BF0A2C08DB35
:1066300000BF22A340F27F124EA13EA0FFF726FD2D
:1066400000BF00BF204600F0B5F800BF0A2C08DBF1
:1066500000BF1AA340F2831246A136A0FFF716FD31
:1066600000BF00BF00BF04EB4400134901EBC000B2
:10667000007D40B100BF11A34FF4C27242A12DA012
:10668000FFF704FD00BF00BF36B104EB44010A4A26
:1066900002EBC10130684860002004EB4401064A67
:1066A00002EBC101488204EB4400114601EBC0003B
:1066B0008760204641E70000E4C100242E2E2F4DC4
:1066C0006964646C6577617265732F54686972647C
:1066D0005F50617274792F4C7749502F7372632F1A
:1066E000636F72652F697076342F6574686172709C
:1066F0002E6300007374617465203D3D204554484D
:106700004152505F53544154455F50454E44494EA9
:1067100047207C7C207374617465203E3D20455485
:10672000484152505F53544154455F535441424C89
:1067300045000000417373657274696F6E202225F5
:106740007322206661696C6564206174206C696ED7
:106750006520256420696E2025730A006172705FD0
:106760007461626C655B695D2E71203D3D204E5504
:106770004C4C000069203C204152505F5441424C37
:10678000455F53495A4500006172705F7461626CE5
:10679000655B695D2E7374617465203D3D204554D1
:1067A000484152505F53544154455F454D505459F0
:1067B0000000000010B5044604EB44000C4951F8F9
:1067C000300060B104EB4401094A52F8310003F093
:1067D000D3FB002004EB4401054A42F831000020BD
:1067E00004EB4401024A02EBC101087510BD000030
:1067F000E4C10024F0B587B007460D4600BF002D68
:106800000AD100BF2EA340F28A223BA13EA0FFF78F
:106810003DFC00BF07B0F0BD00BF7C682088B0F52C
:10682000807F08D12079062805D16079042802D11B
:106830006088082803D0384603F09EFBEAE7D4F8C6
:106840000E000690A0690590686808B9002607E068
:1068500005986968884201D1012000E000200646C1
:106860000EB1012000E00220034604F1080206A94F
:10687000284600F045F9E088B0F5807F03D0B0F5F8
:10688000007F15D113E086B1022206AB04F10800A7
:10689000291DCDE90232CDE9001005F1260302469B
:1068A0002231284600F044F800E000BF01E000E09B
:1068B00000BF00BF384603F05FFB00BFAAE700003F
:1068C0002E2E2F4D6964646C6577617265732F5449
:1068D000686972645F50617274792F4C7749502FE8
:1068E0007372632F636F72652F697076342F6574CE
:1068F000686172702E6300006E6574696620213DC8
:10690000204E554C4C000000417373657274696FE2
:106910006E2022257322206661696C656420617493
:10692000206C696E6520256420696E2025730A003D
:106930002DE9FC5F06460F4690469946DDE90CAB13
:106940000020019000BF002E08D100BF31A340F20B
:1069500057423EA141A0FFF799FB00BF00BF4FF493
:1069600020721C210E2002F0C9FE05461DB94FF011
:10697000FF30BDE8FC9F00BF68891C2808DA00BF13
:1069800024A340F262423FA134A0FFF77FFB00BF87
:1069900000BF6C680F9801F074FEE08000BF96F8AD
:1069A0002C00062808D000BF1AA340F269424249D1
:1069B0002AA0FFF76BFB00BF00BFD9F80000A06062
:1069C000B9F80400A081DBF80000C4F81200BBF89D
:1069D0000400E082DAF80000C4F80E000E980068A7
:1069E000A0614FF480702080082060800620207114
:1069F0000420607140F6060043463A46294600905E
:106A0000304600F0F3F9284603F0B6FA0025019865
:106A1000AFE700002E2E2F4D6964646C65776172BC
:106A200065732F54686972645F50617274792F4C7A
:106A30007749502F7372632F636F72652F69707679
:106A4000342F6574686172702E6300006E6574691E
:106A50006620213D204E554C4C000000417373656B
:106A60007274696F6E2022257322206661696C65DD
:106A700064206174206C696E6520256420696E2035
:106A800025730A00636865636B207468617420660F
:106A90006972737420706275662063616E20686F1E
:106AA0006C642073747275637420657468617270AD
:106AB0005F68647200000000980A010870B504461F
:106AC0000D46034A2946204600F004F870BD000038
:106AD000D40801087FB504460D4616460121074A31
:106AE000201D04F126038DE8250003913246194646
:106AF0002046FFF71DFF04B070BD0000DA08010852
:106B00002DE9F84305460E461746984600BF95F80E
:106B10002C00062808D000BF2EA340F2A9123BA1EA
:106B200043A0FFF7B3FA00BF00BF5EB1306848B1C1
:106B30002946306800F018FC20B9307800F0F000E9
:106B4000E02803D16FF00F00BDE8F8832A464146E4
:106B50003046FFF7AFFC0446002C01DA60B2F3E7E1
:106B6000022004EB44013C4A02EBC101087504EB2E
:106B70004400114601EBC000856004EB440001EBCA
:106B8000C0003968C160B9880182002004EB44016B
:106B900002EBC101488204EB4400114651F8300079
:106BA000B0B104EB440051F83090002004EB4401F4
:106BB00042F831004FF400603B4605F12602494699
:106BC0000090284600F012F9484603F0D5F900BFBE
:106BD0000020B9E72E2E2F4D6964646C65776172D1
:106BE00065732F54686972645F50617274792F4CB9
:106BF0007749502F7372632F636F72652F697076B8
:106C0000342F6574686172702E6300006E6574695C
:106C1000662D3E6877616464725F6C656E203D3DF1
:106C2000204554485F4857414444525F4C454E000C
:106C3000417373657274696F6E202225732220661A
:106C400061696C6564206174206C696E65202564DF
:106C500020696E2025730A00E4C100242DE9F0416B
:106C600004460E464FF00E0860890E2800DC4FE007
:106C7000E07B18B996F83000401CE0736568AF8976
:106C8000287800F00100B0B12878012809D168788F
:106C900088B9A8785E280ED1607B40F01000607340
:106CA00009E006221D492846F9F777FB18B9607BF1
:106CB00040F008006073082F03D0B7F5C16F22D1F0
:106CC00010E096F82D0000F0080000B920E04146E1
:106CD000204603F053FB00B11AE03146204600F095
:106CE000D1FC11E096F82D0000F0080000B90FE08B
:106CF0004146204603F042FB00B109E03146204600
:106D0000FFF778FD00E003E000BF0020BDE8F08160
:106D1000204603F031F90020F8E70000D40801080C
:106D20002DE9F0419AB00446642101A8F9F72AFB45
:106D3000002500260027A8462A48FEF733F8054616
:106D400094F82D00C0F3800058B1012D09DC2648CD
:106D5000FBF716F8204602F0BDFA204602F020FBB1
:106D60003DE094F82D00C0F38000002837D1012DBC
:106D700035DD022D06D0032D0AD0042D0ED0052DB1
:106D800016D110E04FF400584FF48047012610E070
:106D90004FF000084FF4804701260AE04FF40058F6
:106DA0000027012605E04FF000080027012600E03B
:106DB00000BF00BF9EB101A90B48FAF7D5FBCDF883
:106DC0001C80069701A90848FAF722FF0648FAF73F
:106DD0006DFF204602F0B4FB204602F047FB1AB0DC
:106DE000BDE8F081A0920024B89100242DE9F0477D
:106DF00005460E4617469846DDF82090484601F0B5
:106E000040FC82460E21304602F0FAFB00B122E03F
:106E10007468A4F80CA0D8F800002060B8F804004A
:106E2000A0803868C4F80600B888608100BF95F873
:106E30002C00062808D000BF08A34FF4997215A1B2
:106E400021A0FFF723F900BF00BF31462846AA69F9
:106E50009047BDE8F0876FF00100FAE72E2E2F4D26
:106E60006964646C6577617265732F5468697264D4
:106E70005F50617274792F4C7749502F7372632F72
:106E80006E657469662F65746865726E65742E63CD
:106E9000000000006E657469662D3E687761646469
:106EA000725F6C656E206D7573742062652036208C
:106EB000666F722065746865726E65745F6F757455
:106EC0007075742100000000417373657274696FFE
:106ED0006E2022257322206661696C6564206174CE
:106EE000206C696E6520256420696E2025730A0078
:106EF00010B50446204601F061FB002010BD38B5F6
:106F000004468DF8000069460320ABBE204638BD1C
:106F100070B505460C4622460321284600F054F978
:106F200070BD00002DE9FF5F05468A467248806803
:106F30000390039800780007870E142F00DAD1E041
:106F40006889042800D2CDE06868047814B1082C60
:106F500077D100E0C1E0DFF8A09109F1140966489B
:106F6000007D00F0F000E02800D1BFE0624A116827
:106F7000506900F0F9F900B1B8E02889082800D27A
:106F8000B0E0284600F0C5F920B1284602F0F4FF31
:106F9000BDE8FF9F07F10E01284602F031FB0028F3
:106FA00044D0288938441FFA80FB2889584500DDE1
:106FB0009CE04FF4207259460E2002F09FFB804661
:106FC000B8F1000F00D191E0B8F80A1007F10800FD
:106FD000814203D2404602F0CFFF87E03A46D8F81C
:106FE00004000399F9F7A7F93946404603F0C6F9BA
:106FF00000280DD000BF00BF40A3B6224DA15BA06A
:10700000FFF744F800BF00BF404602F0B5FF6DE057
:107010002946404602F0FCFD18B1404602F0ACFFA4
:1070200064E0284602F0A8FF454612E007F10E0191
:10703000284603F0A3F960B100BF00BF2FA3C72209
:1070400000E038E053A149A0FFF720F800BF00BFDF
:107050004CE06E683946284602F0D2FA50BBD5F8AB
:107060000480D9F80000C8F80C0023480069C8F86B
:1070700010000020307070884FF6F771884203DDF1
:1070800070880930708002E0708808307080FF20BE
:1070900088F808000020A8F80A0001200021FF233A
:1070A0000A46CDE9010A00914946284600F0D2FB84
:1070B000834600BF11E0032C0ED00B2C0CD00C2CFF
:1070C0000AD0042C08D0052C06D00D2C04D00E2C90
:1070D00002D0112C00D000BF00BF00BF284602F034
:1070E0004BFF55E7284602F047FF51E7284602F0DC
:1070F00043FF00BF4CE70000FC9200242E2E2F4DD2
:107100006964646C6577617265732F546869726431
:107110005F50617274792F4C7749502F7372632FCF
:10712000636F72652F697076342F69636D702E639B
:107130000000000069636D705F696E7075743A20BD
:107140006D6F76696E6720722D3E7061796C6F612C
:107150006420746F2069636D702068656164657276
:10716000206661696C65640A000000004173736504
:107170007274696F6E2022257322206661696C65C6
:1071800064206174206C696E6520256420696E201E
:1071900025730A0069636D705F696E7075743A20BB
:1071A000726573746F72696E67206F726967696E5A
:1071B000616C20702D3E7061796C6F616420666136
:1071C000696C65640A0000002DE9FF4707468846A0
:1071D00091464FF420722421222002F08FFA0546B6
:1071E0000DB9BDE8FF8700BF6889242808D200BF19
:1071F0001BA34FF4B47228A132A0FEF747FF00BFD3
:1072000000BFD7F804A06C6884F8008084F801906F
:107210000020A080E08079686A6802F108001C22E2
:10722000F9F789F8DAF80C00039003A800F084FD60
:10723000064686B1002060806989204600F05FF82C
:10724000608001200021FF2303AACDE901060091FF
:10725000284600F0FFFA284602F08EFE00BFC0E785
:107260002E2E2F4D6964646C6577617265732F549F
:10727000686972645F50617274792F4C7749502F3E
:107280007372632F636F72652F697076342F696331
:107290006D702E6300000000636865636B20746886
:1072A0006174206669727374207062756620636110
:1072B0006E20686F6C642069636D70206D657373F8
:1072C00061676500417373657274696F6E20222572
:1072D0007322206661696C6564206174206C696E3C
:1072E0006520256420696E2025730A0070B5054667
:1072F0000C4622460B212846FFF766FF70BD30B5CD
:1073000004460D462946204601F0C1F9C04380B22B
:1073100030BDF0B5064600270024354619E06989DE
:10732000686801F0B4F90444A0B200EB1444688921
:1073300000EBD0714910A0EB410149B10FB9012018
:1073400000E000200746E0B2C4F3072141EA002430
:107350002D68002DE3D127B1E0B2C4F3072141EA43
:107360000024E04380B2F0BD18B502460092D0433D
:1073700000B10AB9012018BD91F82D0000F00200FB
:1073800008B90020F7E74868904201D10020F2E7F1
:1073900000988B681840D1E901342340984208D105
:1073A000886822EA00008C68E343984201D10120FA
:1073B000E1E70020DFE700002DE9F74F8CB004463D
:1073C0000F464FF00008B98CA1F11400C11700EB73
:1073D0005171C1F3CF0A1420059060680990DDF85F
:1073E000249099F8000000F00F001421B1EB800FF9
:1073F00004D06FF005000FB0BDE8F08F00BF6089CA
:1074000014280BDA00BF72A34FF43F727FA186A04D
:10741000FEF73CFE00BF6FF00500ECE700BFB9F8D7
:10742000060001F02EF904900498C0F30C000790B8
:10743000049800F400500390208914381FFA80FB50
:10744000BDE04FF6FF7000EACA00584501DD58461E
:1074500003E04FF6FF7000EACA0008904FF4207274
:1074600014210E2002F04AF9054605B9ADE000BF2F
:107470006889142808DA00BF55A34FF4497274A133
:1074800069A0FEF703FE00BF00BF142268680999D7
:10749000F8F751FFD5F8049008980A9054E06189F4
:1074A0000598081A80B2029000BF61890598814250
:1074B00008DA00BF46A340F22D326DA15AA0FEF7B4
:1074C000E5FD00BF00BF02990A98884201DA0A98D8
:1074D00000E002988046B8F1000F03D1002005902B
:1074E000246831E000F072FC06461EB9284602F01E
:1074F00043FD6AE0616805980844334641224146ED
:10750000CDE90008002002F0A7FA0B900B9830B9E3
:10751000304600F061FC284602F02EFD55E0204682
:1075200002F0DEFE74615648306128460B9902F085
:10753000BDFA0A98A0EB080080B20A900A9810B130
:1075400000200590246800BF0A980028A7D105985C
:10755000404480B20590B88C1438584501DB0120B6
:1075600000E0002006900798C0F30C0004900698F5
:1075700008B1039818B1049840F40050049004989E
:1075800001F07FF8A9F806000899143188B201F0DB
:1075900078F8A9F802000020A9F80A007B692946BA
:1075A00038460E9A9847284602F0E6FC0898ABEB5E
:1075B00000001FFA80FB0798504480B20790BBF18F
:1075C000000F7FF43EAF002015E74FF0FF3012E7C9
:1075D0002E2E2F4D6964646C6577617265732F542C
:1075E000686972645F50617274792F4C7749502FCB
:1075F0007372632F636F72652F697076342F6970B1
:10760000345F667261672E63000000006970345F4A
:107610006672616728293A207062756620746F6F00
:107620002073686F72740000417373657274696FC0
:107630006E2022257322206661696C656420617466
:10764000206C696E6520256420696E2025730A0010
:1076500074686973206E656564732061207062755B
:107660006620696E206F6E65207069656365210014
:10767000702D3E6C656E203E3D20706F666600008A
:10768000F58400082DE9F04707460E467D68287806
:107690000421B1EB201F05D0384602F06DFC00201C
:1076A000BDE8F087287800074FEA9068688800F006
:1076B000E8FF81463989494503DD4946384602F0ED
:1076C0005BFD7889404505DB3889484502DBB8F128
:1076D000140F04DA384602F04FFC0020E0E7286976
:1076E0004D494861E86808610846007D00F0F000F7
:1076F000E0280AD196F82D0000F0010018B170685A
:1077000008B134461CE000241AE0304600F088F846
:1077100008B1344614E000243F48007D7F280FD094
:107720003E48046809E0B44200D105E0204600F07C
:1077300077F800B103E000BF2468002CF3D100BF4C
:10774000354908693146FFF70FFE28B93248007CF9
:1077500000F0F000E02804D1384602F00DFC0020D3
:107760009EE724B9384602F007FC002098E7E88835
:107770004FF63F71084038B1384600F05FF90746D0
:107780000FB900208CE77D6823480460466085605F
:1077900028780007800E204988814146384602F04B
:1077A000EDFD687A01280DD0062806D011280ED1EB
:1077B0003146384608F0AAFE22E03146384604F049
:1077C0000BF81DE031463846FFF7ACFB18E01249D4
:1077D00048692146FFF7C8FD70B90F48007D00F0E9
:1077E000F000E02808D00FFA88F1384602F092FC49
:1077F00002213846FFF78CFB384602F0BDFB00BF84
:1078000000BF0020044908604860886088810861E2
:10781000486100BF44E70000FC920024B00000244F
:1078200010B5044694F82D0000F0010070B16068B6
:1078300060B1074840696168884205D004494869D9
:107840002146FFF791FD08B1012010BD0020FCE7A3
:10785000FC9200242DE9FE4F07460C46154698463B
:10786000DDE90C9A0E9EA34625B10CB1206808B93B
:1078700006F1040B43462A4659463846CDE9009A9C
:10788000029600F003F8BDE8FE8F00002DE9F84FE6
:107890000546884617469A46DDF828B00C9E00BF7C
:1078A000A87B012808D000BF3CA34FF4557248A123
:1078B0004AA0FEF7EBFB00BF00BF002F48D04FF0FF
:1078C00014091421284601F09BFE18B16FF0010045
:1078D000BDE8F88F6C6800BF6889142808D200BF23
:1078E0002EA34FF4627247A13CA0FEF7CFFB00BF6E
:1078F00000BF84F808A00B98607238682061484681
:107900004FEAE97109EB9171C1F3870141F0400140
:10791000217084F801B0288900F0B3FE6080002057
:10792000E0804448008800F0ACFEA0804148008818
:10793000401C40490880B8F1000F03D13E48006860
:10794000E06002E0D8F80000E0600020608109E01B
:107950006889142802DA6FF00100B9E76C682069C1
:1079600000906F4638687168884204D129463046D5
:1079700001F0F4FBACE7B08C48B12889B18C8842A7
:1079800005DD3A4631462846FFF716FDA0E73A46A0
:1079900029463046736998479AE700002E2E2F4DEE
:1079A0006964646C6577617265732F546869726489
:1079B0005F50617274792F4C7749502F7372632F27
:1079C000636F72652F697076342F6970342E63008F
:1079D000702D3E726566203D3D2031004173736518
:1079E0007274696F6E2022257322206661696C654E
:1079F00064206174206C696E6520256420696E20A6
:107A000025730A00636865636B207468617420667F
:107A10006972737420706275662063616E20686F8E
:107A20006C64207374727563742069705F6864722B
:107A30000000000018010024C00901082DE9F14FE1
:107A400084B004984568287800F00F001421B1EB49
:107A5000800F00D011E1E88800F013FEC0F30C00A5
:107A60004FF6FF7101EAC00A688800F00AFE074677
:107A700028780007810E02910299B94200DDFCE0EE
:107A80000298381A87B2049802F0B8F806467D4882
:107A9000018888190A280ADD3146284600F0E6FCEC
:107AA00020B17848008830440A2800DDE5E07648B7
:107AB000046811E06069E968884209D1A069296910
:107AC000884205D1A089A988884201D1012000E01F
:107AD000002000B102E02468002CEBD100BF34B9D3
:107AE0003146284600F0A8FB044694B9C5E0E88872
:107AF00000F0C7FDC0F30C0058B9E08900F0C1FDEB
:107B0000C0F30C0028B11422294604F10800F8F74C
:107B100012FCE888012121EA50100190019850B12F
:107B20000AEB070188B2504503DB4FF6EB71884240
:107B300000DD80E000BF2046019A049900F098F92A
:107B400083460BF1010000B975E04E4800883044CF
:107B50004C490880019840B10AEB070188B2A08324
:107B6000A17F41F00101A17700BFBBF1010F60D1FE
:107B7000A08B143080B2009060684068D0F800900C
:107B800060684568142204F108012846F8F7D3FB21
:107B9000009800F076FD68800020E88068816068C9
:107BA00004900DE0D9F8040003901421484602F037
:107BB000E5FB4946049801F079FF0398D0F800905E
:107BC000B9F1000FEED130480068844202D14FF085
:107BD00000080EE02C48D0F8008006E0D8F800003D
:107BE000A04200D104E0D8F80080B8F1000FF5D130
:107BF00000BF4146204600F0BDFA049801F0FEFFA8
:107C0000064600BF1F480088B04208DA00BF1FA325
:107C100040F29B222CA133A0FEF738FA00BF00BF30
:107C200018480088801B17490880049805B0BDE8F3
:107C3000F08F0020FAE700BF44B900BF13A34FF450
:107C40002A7232A127A0FEF721FA00BF00BF6068A8
:107C500090B900BF0C480068844208D000BF0BA355
:107C600040F2AB222CA11FA0FEF710FA00BF00BF0C
:107C70000021204600F07EFA00BF049802F07CF953
:107C80000020D3E7200100241C0100242E2E2F4DBC
:107C90006964646C6577617265732F546869726496
:107CA0005F50617274792F4C7749502F7372632F34
:107CB000636F72652F697076342F6970345F6672F6
:107CC00061672E630000000069705F726561737305
:107CD0005F70627566636F756E74203E3D20636CE5
:107CE000656E0000417373657274696F6E202225A2
:107CF0007322206661696C6564206174206C696E12
:107D00006520256420696E2025730A006970722041
:107D1000213D204E554C4C006E6F74206669727385
:107D200074616C74686F756768206A757374206518
:107D30006E7175657565640010B50246214801686D
:107D400021E091F82D0000F00100D8B191F82D004C
:107D5000C0F38000B0B14868A0B110688B681840CB
:107D6000D1E901342340984201D1084610BD91F871
:107D70002D0000F0020028B91068CB68984201D1AC
:107D80000846F3E709680029DBD10F480068A0B175
:107D90000D48006890F82D0000F0010068B10A4815
:107DA000006890F82D00C0F3800030B106480068EC
:107DB000406810B110787F2801D10020D6E7024832
:107DC0000068D3E7B0000024B400002410B50520FB
:107DD00001F0DAF810BD000010B5044600BF002C19
:107DE00008D100BF06A34FF4317214A116A0FEF70C
:107DF0004DF900BF00BF2146052001F057F810BD26
:107E00002E2E2F4D6964646C6577617265732F54F3
:107E1000686972645F50617274792F4C7749502F92
:107E20007372632F636F72652F697076342F697078
:107E3000345F667261672E63000000007020213D90
:107E4000204E554C4C000000417373657274696F8D
:107E50006E2022257322206661696C65642061743E
:107E6000206C696E6520256420696E2025730A00E8
:107E70002DE9F74F84B00646884600250120019081
:107E8000D8F8040002900299488800F0FAFB834673
:107E9000029800780007800E03900398584503DD90
:107EA000681E07B0BDE8F08F0398ABEB00001FFA27
:107EB00080FB0299C88800F0E4FBC0F30C004FF689
:107EC000FF7101EAC00A00BF00BFD8F804400020DB
:107ED0002060A4F804A00AEB0B00E080E088504585
:107EE00002DA4FF0FF30DCE7D6F804903EE0D9F834
:107EF0000470A088B988884220DAC4F800909DB147
:107F0000A088E988884203DBE088B988884202DDDE
:107F10004FF0FF30C5E7C5F80080E888A1888842A7
:107F20000BD00020019008E0E088B988884202DD8B
:107F30004FF0FF30B5E7C6F804801AE0A088B98892
:107F4000884202D14FF0FF30ABE7A088F988884221
:107F500002DA4FF0FF30A4E72DB1E888B9888842F3
:107F600001D000200190D7F800903D46B9F1000FF4
:107F7000BDD100BFB9F1000F28D1002D17D000BF2F
:107F8000E888A188884208DD00BF3EA34FF4DB7279
:107F90004BA153A0FEF77AF800BF00BFC5F80080E0
:107FA000E888A188884211D0002001900EE000BF2F
:107FB000706840B100BF33A34FF4DF7252A148A0F4
:107FC000FEF764F800BF00BFC6F80480069820B929
:107FD000B07F00F00100002851D00198002848D05F
:107FE000706818B170684068808810B100200190F6
:107FF0003FE02546D4F800900BE0D9F80440E8882B
:10800000A188884202D00020019005E02546D4F8DE
:108010000090B9F1000FF0D100BF0198002828D0DE
:1080200000BF706840B900BF16A340F2DF1244A140
:108030002BA0FEF72BF800BF00BF00BF70684068A0
:10804000A04208D100BF0FA34FF4F0723CA124A0BE
:10805000FEF71CF800BF00BF00BF206840B100BFA2
:1080600008A34FF4F1723AA11DA0FEF70FF800BF6C
:1080700000BF019808B1012013E7002011E700209C
:108080000FE700002E2E2F4D6964646C65776172D6
:1080900065732F54686972645F50617274792F4CF4
:1080A0007749502F7372632F636F72652F697076F3
:1080B000342F6970345F667261672E6300000000C0
:1080C000636865636B20667261676D656E747320AB
:1080D000646F6E2774206F7665726C6170000000AB
:1080E000417373657274696F6E2022257322206656
:1080F00061696C6564206174206C696E652025641B
:1081000020696E2025730A006E6F20707265766993
:108110006F757320667261676D656E742C2074686C
:108120006973206D757374206265207468652066BC
:108130006972737420667261676D656E74210000E8
:1081400073616E69747920636865636B0000000079
:1081500076616C69646174655F64617461677261A2
:108160006D3A6E6578745F70627566213D4E554C50
:108170004C00000070B504460D460E480068A04251
:1081800003D10C49206808600EE000BF002D08D123
:1081900000BF09A340F2451216A11DA0FDF776FF0E
:1081A00000BF00BF206828602146042000F07EFE4A
:1081B00070BD00001C0100242E2E2F4D6964646CDC
:1081C0006577617265732F54686972645F5061727C
:1081D00074792F4C7749502F7372632F636F7265D8
:1081E0002F697076342F6970345F667261672E6311
:1081F0000000000073616E69747920636865636BC9
:10820000206C696E6B6564206C69737400000000FB
:10821000417373657274696F6E2022257322206624
:1082200061696C6564206174206C696E65202564E9
:1082300020696E2025730A0070B505460E4604209D
:1082400000F0A2FE044664B93146284600F00EF95B
:10825000B04203DB042000F097FE04460CB9002076
:1082600070BD20212046F8F78DF80F20E0770648F2
:1082700000682060044804601422294604F10800C4
:10828000F8F759F82046EBE71C0100242DE9F047E8
:1082900004468846002500BFA04507D100BF40A383
:1082A000AB224EA150A0FDF7F1FE00BF00BFB8F118
:1082B000000F0DD000BFD8F80000A04207D000BFCB
:1082C00037A3AD2252A148A0FDF7E0FE00BF00BFDA
:1082D0006068D0F80490B9F80400002824D16768D9
:1082E000D9F800006060142204F108017868F8F7FA
:1082F00022F801213846FEF7F9FF384601F07EFCEE
:10830000064600BFA819B0F5803F07DB00BF24A3D5
:10831000BC2244A134A0FDF7B9FE00BF00BFA819DC
:1083200085B2384601F028FE67681CE0D7F8049053
:10833000BA46D9F80070504601F060FC064600BF0E
:10834000A819B0F5803F07DB00BF15A3CC2235A1EB
:1083500025A0FDF79BFE00BF00BFA81985B25046BF
:1083600001F00AFE00BF002FE0D141462046FFF792
:1083700001FF00BF33480088A84207DA00BF08A306
:10838000D22231A118A0FDF781FE00BF00BF2D4809
:108390000088401B2B4908802846BDE8F087000074
:1083A0002E2E2F4D6964646C6577617265732F544E
:1083B000686972645F50617274792F4C7749502FED
:1083C0007372632F636F72652F697076342F6970D3
:1083D000345F667261672E6300000000707265761C
:1083E00020213D2069707200417373657274696F5A
:1083F0006E2022257322206661696C656420617499
:10840000206C696E6520256420696E2025730A0042
:10841000707265762D3E6E657874203D3D206970E2
:108420007200000070627566735F66726565642035
:108430002B20636C656E203C3D2030786666666656
:10844000000000002001002469705F726561737391
:108450005F70627566636F756E74203E3D2070625A
:108460007566735F66726565640000002DE9F84FFC
:1084700005468946002700BF0026B246002000902E
:1084800083461B48046821E06069E968884207D197
:10849000A0692969884203D1A089A988884201D0AE
:1084A000012000E0002068B10BF1010B1EB9264647
:1084B000CDF800A006E0E07FF17F884202DC26468E
:1084C000CDF800A0206800B1A2462468002CDBD1C2
:1084D0002EB130460099FFF7D9FE804647444F45FC
:1084E00002DABBF1010FC7DC3846BDE8F88F0000A7
:1084F0001C01002470B505462C4600BF002C08D195
:1085000000BF0FA340F2CE221CA11FA0FDF7BEFDAD
:1085100000BF00BF00BFAC4208D000BF08A340F2BC
:10852000CF2223A118A0FDF7B1FD00BF00BF6069F5
:1085300010B1606901F020FD2046FFF74DFC70BDD1
:108540002E2E2F4D6964646C6577617265732F54AC
:10855000686972645F50617274792F4C7749502F4B
:108560007372632F636F72652F697076342F697031
:10857000345F667261672E630000000070637220D2
:10858000213D204E554C4C00417373657274696FE8
:108590006E2022257322206661696C6564206174F7
:1085A000206C696E6520256420696E2025730A00A1
:1085B000706372203D3D2070000000007CB50446D1
:1085C000002522482249086000208DF80000802004
:1085D0008DF80100E1208DF8020000208DF80300E5
:1085E0008DF804008DF80500C1F804D00121184869
:1085F00001721849C1601849016140F2F4514161AA
:10860000F9F77EF90546154800F0A8FC144915480D
:10861000FCF7ACFC00210720FCF7F3FD4FF496704B
:10862000F8F78CFF00210720FCF7EBFD4FF4967064
:10863000F8F784FF0B48FCF72AFC1DB92046FEF72B
:108640006FFB01E0F8F702FB7CBD000000800240F8
:10865000B891002460000430000004309008010844
:108660003C000024A09200240146080601F47F4249
:1086700040EA022001F47F0240EA122040EA116041
:10868000704701460806000C40EA11207047F8B513
:1086900005460A462B4600200090002103F0010603
:1086A00036B1002A04DD13F8010B8DF80100521ECB
:1086B0001C4603E034F8027B3944921E012AF9DC9F
:1086C000002A02DD20788DF80000BDF8000001448A
:1086D00088B200EB114188B200EB114126B1C8B25B
:1086E000C1F3072747EA002188B2F8BD1CB500BFD7
:1086F000274B1B6803F4803303B12FE00023244C85
:1087000070342360BFF34F8F231F1868C0F34E31BE
:1087100000BFC0F3C90200BF43F6E07303EA411390
:108720004FF0404404EA827423431A4C236000BF94
:1087300000BF131EA2F10102EED10B1EA1F1010137
:10874000E7D1BFF34F8F124B1B6843F48033104CBB
:108750002360BFF34F8FBFF36F8F00BFF9F7B0FCFB
:10876000FCF740FCFCF7E0FEFCF706FDFCF76AFCBA
:10877000FCF7C8FCFCF7ACFC07A103C9CDE900017C
:1087800004E00748F7F77CFF044600BFF9E7000064
:1087900014ED00E060EF00E00102030405060000B4
:1087A000B891002470B5054605B970BD05F0030009
:1087B00000280DD000BF00BF2BA340F2732236A1CA
:1087C0003EA0FDF763FC00BF00BF00BF00BFECE7A9
:1087D000A5F1080443480068844205D305F10C0064
:1087E0004149096888420DD900BF00BF1EA340F26D
:1087F0007F223EA131A0FDF749FC00BF00BF00BFB2
:1088000000BFD2E7207900280DD100BF00BF16A31A
:108810004FF423723CA129A0FDF738FC00BF00BF34
:1088200000BF00BFC1E7204600F09EF800280DD130
:1088300000BF00BF0CA340F295223DA11FA0FDF791
:1088400025FC00BF00BF00BF00BFAEE700202071C5
:1088500044480068844201D242480460204601F046
:1088600007FE00BFA1E700002E2E2F4D6964646C47
:108870006577617265732F54686972645F506172C5
:1088800074792F4C7749502F7372632F636F726521
:108890002F6D656D2E6300006D656D5F6672656599
:1088A0003A2073616E69747920636865636B206137
:1088B0006C69676E6D656E740000000041737365CE
:1088C0007274696F6E2022257322206661696C655F
:1088D00064206174206C696E6520256420696E20B7
:1088E00025730A0080000024840000246D656D5FFC
:1088F000667265653A20696C6C6567616C206D65B0
:108900006D6F7279000000006D656D5F6672656560
:108910003A20696C6C6567616C206D656D6F72796A
:108920003A20646F75626C652066726565000000B0
:108930006D656D5F667265653A20696C6C6567612F
:108940006C206D656D6F72793A206E6F6E2D6C695B
:108950006E6B65643A20646F75626C652066726543
:1089600065000000880000242DE9F04104462046FF
:1089700000F07AF90546208801F066FE0646608818
:1089800001F062FE07462088B0F5C86F10D86088F5
:10899000B0F5C86F0CD86088A84202D03888A842C9
:1089A00006D106480068864205D07088A84202D0E9
:1089B0000020BDE8F0810120FBE7000084000024D6
:1089C0002DE9F0478146B9F1000F02D10020BDE842
:1089D000F08709F1030020F0030085B20C2D00D2CE
:1089E0000C25B5F5C86F01D84D4501DA0020EEE73A
:1089F0005848006800F038F90646A3E0304601F018
:108A000023FE0446207900287ED1218806F1080043
:108A1000081AA84278D3218806F10800091A05F13E
:108A20001400814229D306F1080028441FFA80F877
:108A300000BFB8F5C86F08D100BF47A340F2873226
:108A400051A156A0FDF722FB00BF00BF404601F038
:108A5000FBFD074600213971218839807E80A4F80A
:108A60000080012020713888B0F5C86F07D03888A1
:108A700001F0EAFDA0F8028001E0012020713548F4
:108A80000068844227D13348D0F800A004E0BAF847
:108A9000000001F0D9FD82469AF8040018B1494857
:108AA00000688245F3D12B48C0F800A000BF0068E1
:108AB0004449096888420CD026480068007940B1D2
:108AC00000BF25A340F2B5323FA134A0FDF7DEFA86
:108AD00000BF00BF00BF00BF04F1080028443949AF
:108AE0000968884208D900BF1BA340F2B9323DA1F2
:108AF0002AA0FDF7CBFA00BF00BF00BF04F00300BF
:108B000050B100BF14A300E018E040F2BB3241A115
:108B100022A0FDF7BBFA00BF00BF00BF04F00300B6
:108B200040B100BF0CA340F2BD3246A11BA0FDF72F
:108B3000ADFA00BF00BF04F1080048E7304601F07D
:108B400083FD0688C5F5C860B0423FF657AF0020E8
:108B50003DE70000880000242E2E2F4D6964646CD0
:108B60006577617265732F54686972645F506172D2
:108B700074792F4C7749502F7372632F636F72652E
:108B80002F6D656D2E630000696E76616C696420DF
:108B90006E65787420707472000000004173736514
:108BA0007274696F6E2022257322206661696C657C
:108BB00064206174206C696E6520256420696E20D4
:108BC00025730A00840000246D656D5F6D616C6C17
:108BD0006F633A20216C667265652D3E757365641E
:108BE000000000006D656D5F6D616C6C6F633A2015
:108BF000616C6C6F6361746564206D656D6F727913
:108C0000206E6F742061626F76652072616D5F65A2
:108C10006E642E006D656D5F6D616C6C6F633A20E4
:108C2000616C6C6F6361746564206D656D6F7279E2
:108C30002070726F7065726C7920616C69676E6507
:108C4000642E00006D656D5F6D616C6C6F633A2022
:108C500073616E69747920636865636B20616C6908
:108C6000676E6D656E740000014602480088081A40
:108C700080B27047800000242DE9F84F81468B4672
:108C80000BF1030020F0030085B20C2D00D20C255F
:108C9000B5F5C86F01D85D4502DA0020BDE8F88F50
:108CA00000BF56480068814503D355480068814598
:108CB00008D300BF53A340F2D1225EA163A0FDF709
:108CC000E5F900BF00BF4D480068814503D34C481B
:108CD0000068814503D300BF00BF4846DEE7A9F125
:108CE00008063046FFF7C0FF07463188C81B083822
:108CF0001FFA80FA00BF554508DD00BF41A34FF4BD
:108D000039725CA151A0FDF7C1F900BF00BF554504
:108D100001DD0020C2E7554501D14846BEE7308855
:108D200001F092FC04462079002833D100BF30883E
:108D3000B0F5C86F08D100BF32A340F2F52255A1AB
:108D400042A0FDF7A3F900BF00BF2088009007F103
:108D5000080028441FFA80F853480068A04204D154
:108D6000404601F071FC50490860404601F06CFC3F
:108D7000044600202071009820806780A6F80080BB
:108D80002088B0F5C86F04D0208801F05DFCA0F801
:108D9000028031E005F1140050452DD807F108009C
:108DA00028441FFA80F800BF3088B0F5C86F08D19A
:108DB00000BF14A340F2163236A124A0FDF766F9D5
:108DC00000BF00BF404601F03FFC04463648006843
:108DD000844201D234480460002020713088208011
:108DE0006780A6F800802088B0F5C86F04D020887E
:108DF00001F02AFCA0F8028048464FE780000024DA
:108E0000840000242E2E2F4D6964646C6577617296
:108E100065732F54686972645F50617274792F4C66
:108E20007749502F7372632F636F72652F6D656D75
:108E30002E6300006D656D5F7472696D3A206C651C
:108E400067616C206D656D6F7279000041737365A9
:108E50007274696F6E2022257322206661696C65C9
:108E600064206174206C696E6520256420696E2021
:108E700025730A006D656D5F7472696D2063616EA4
:108E8000206F6E6C7920736872696E6B206D656DF2
:108E90006F727900696E76616C6964206E657874B2
:108EA00020707472000000008800002470B5044631
:108EB0000D4600BF092C09DB00BF0AA34FF4D57291
:108EC00014A11BA0FDF7E2F800BF70BD00BF05B9FB
:108ED000FBE7214951F824002946FDF71FFA00BF9E
:108EE000F3E700002E2E2F4D6964646C6577617284
:108EF00065732F54686972645F50617274792F4C86
:108F00007749502F7372632F636F72652F6D656D94
:108F1000702E63006D656D705F667265653A2074D2
:108F2000797065203C204D454D505F4D4158000003
:108F3000417373657274696F6E20222573222066F7
:108F400061696C6564206174206C696E65202564BC
:108F500020696E2025730A004C09010810B5002312
:108F6000846823604368DB1C23F00301002207E0D0
:108F700083681B680B608368196003881944521C5E
:108F800043889342F4DC10BD70B5044600BF092C41
:108F90000ADB00BF09A340F2571214A11BA0FDF782
:108FA00075F800BF002070BD00BF224951F82400B1
:108FB000FDF70AFA05462846F5E700002E2E2F4D4C
:108FC0006964646C6577617265732F546869726453
:108FD0005F50617274792F4C7749502F7372632FF1
:108FE000636F72652F6D656D702E63006D656D70BA
:108FF0005F6D616C6C6F633A2074797065203C2002
:109000004D454D505F4D4158000000004173736560
:109010007274696F6E2022257322206661696C6507
:1090200064206174206C696E6520256420696E205F
:1090300025730A004C0901082DE9F04704468846CB
:1090400091469A46DDE90957089E2046A84710B187
:109050000020BDE8F0872046FBE7000002466AB129
:109060000748016808E091F83000401CC0B2904207
:1090700001D10846704709680029F4D10020F9E7BA
:10908000B000002470B504460D4600BF002C08D186
:1090900000BF12A340F26D321DA126A0FCF7F6FF1F
:1090A00000BF00BF94F82D0000F0040020B194F838
:1090B0002D0000F0010000B970BD05F0010050B1B5
:1090C000606840B194F82D0000F0080018B1211D2F
:1090D0002046FDF7F3FC00BFEEE700002E2E2F4DDB
:1090E0006964646C6577617265732F546869726432
:1090F0005F50617274792F4C7749502F7372632FD0
:10910000636F72652F6E657469662E6300000000E0
:109110006E657469665F69737375655F7265706F9C
:109120007274733A20696E76616C6964206E65743E
:1091300069660000417373657274696F6E20222541
:109140007322206661696C6564206174206C696EAD
:109150006520256420696E2025730A002DE9F04101
:1091600004460F4600BF002C08D100BF26A340F2E2
:109170004B4232A13AA0FCF789FF00BF00BF00BFFD
:10918000002F08D100BF20A340F24C423EA134A0E2
:10919000FCF77CFF00BF00BF39894FF420720E201E
:1091A00000F0ACFA05461DB94FF0FF30BDE8F08184
:1091B0003946284600F02CFDB0F1000804D02846BE
:1091C00000F0DAFE4046F1E72E4600E036683068EF
:1091D0000028FBD1606B002811D000BFA06B0028D5
:1091E00008D100BF08A340F277422FA11CA0FCF7D2
:1091F0004DFF00BF00BFA06B0560A66301E0656383
:10920000A6630020D2E700002E2E2F4D6964646C07
:109210006577617265732F54686972645F5061721B
:1092200074792F4C7749502F7372632F636F726577
:109230002F6E657469662E63000000006E657469A8
:10924000665F6C6F6F705F6F75747075743A2069CC
:109250006E76616C6964206E65746966000000005A
:10926000417373657274696F6E20222573222066C4
:1092700061696C6564206174206C696E6520256489
:1092800020696E2025730A006E657469665F6C6FD5
:109290006F705F6F75747075743A20696E76616C6B
:1092A000696420706275660069662066697273740D
:1092B00020213D204E554C4C2C206C617374206D48
:1092C00075737420616C736F20626520213D204EA0
:1092D000554C4C0010B5044600BF002C09D100BF0E
:1092E00010A340F29B321CA123A0FCF7CFFE00BFCD
:1092F00010BD00BF94F82D0000F0010078B100BF50
:1093000094F82D0000F0FE0084F82D0000BF94F8C2
:109310002D0000F0080010B12046FDF7AFF800BFA7
:10932000E6E700002E2E2F4D6964646C657761724C
:1093300065732F54686972645F50617274792F4C41
:109340007749502F7372632F636F72652F6E657448
:1093500069662E63000000006E657469665F736560
:10936000745F646F776E3A20696E76616C69642011
:109370006E65746966000000417373657274696F8D
:109380006E2022257322206661696C6564206174F9
:10939000206C696E6520256420696E2025730A00A3
:1093A00010B5044600BF002C09D100BF0FA340F246
:1093B00006421BA123A0FCF769FE00BF10BD00BF41
:1093C00094F82D0000F0040070B100BF94F82D0057
:1093D00000F0FB0084F82D0000BF00BFE06910B171
:1093E0002046E169884700BF00BFE7E72E2E2F4DDA
:1093F0006964646C6577617265732F54686972641F
:109400005F50617274792F4C7749502F7372632FBC
:10941000636F72652F6E657469662E6300000000CD
:109420006E657469665F7365745F6C696E6B5F64AB
:109430006F776E3A20696E76616C6964206E657430
:1094400069660000417373657274696F6E2022252E
:109450007322206661696C6564206174206C696E9A
:109460006520256420696E2025730A0010B5044626
:1094700000BF002C09D100BF11A34FF478721DA1C9
:1094800025A0FCF703FE00BF10BD00BF94F82D001F
:1094900000F0040090B900BF94F82D0040F00400E3
:1094A00084F82D0000BF03212046FFF7EBFD00BF2D
:1094B000E06910B12046E169884700BF00BFE3E7DB
:1094C0002E2E2F4D6964646C6577617265732F541D
:1094D000686972645F50617274792F4C7749502FBC
:1094E0007372632F636F72652F6E657469662E6386
:1094F000000000006E657469665F7365745F6C6977
:109500006E6B5F75703A20696E76616C6964206E6F
:109510006574696600000000417373657274696F59
:109520006E2022257322206661696C656420617457
:10953000206C696E6520256420696E2025730A0001
:1095400010B5044600BF002C09D100BF0EA34FF494
:1095500054721AA120A0FCF799FD00BF10BD00BFF6
:1095600094F82D0000F0010058B900BF94F82D00C8
:1095700040F0010084F82D0000BF03212046FFF7D2
:1095800081FD00BFEAE700002E2E2F4D6964646C58
:109590006577617265732F54686972645F50617298
:1095A00074792F4C7749502F7372632F636F7265F4
:1095B0002F6E657469662E63000000006E65746925
:1095C000665F7365745F75703A20696E76616C6969
:1095D00064206E6574696600417373657274696FA7
:1095E0006E2022257322206661696C656420617497
:1095F000206C696E6520256420696E2025730A0041
:1096000070B504460D4600222946204600F002F8B7
:1096100070BD00002DE9F04704460D46904600BF9E
:1096200044B900BF1CA340F2DF1227A129A0FCF718
:109630002DFD00BF00BF14B1B5F5803F02D301205E
:10964000BDE8F0870DB90020FAE7AEB220893044BA
:1096500080B2B04201DA0120F2E794F80C9009F0F0
:10966000800038B16068471B04F11000874209D2BE
:109670000120E5E7B8F1000F02D06068471B01E068
:109680000120DDE7676060893044608120893044D3
:1096900020810020D4E700002E2E2F4D6964646CD9
:1096A0006577617265732F54686972645F50617287
:1096B00074792F4C7749502F7372632F636F7265E3
:1096C0002F706275662E63007020213D204E554C30
:1096D0004C000000417373657274696F6E2022251F
:1096E0007322206661696C6564206174206C696E08
:1096F0006520256420696E2025730A002DE9FE4F40
:1097000082460E4690465746B8F1010F0AD0B8F18E
:10971000410F06D0B8F5C17F0BD0B8F5207F7DD1C1
:109720006AE000BF42463146002000F037F90446A7
:10973000AEE0002400200290B14600BF0820FFF7F1
:1097400023FC054645B900F00FFD14B1204600F09A
:1097500013FC0020BDE8FE8FF81C20F00300C0F5CC
:10976000147080B2484501DD484605E0F81C20F041
:109770000300C0F5147080B283460020CDE900805C
:1097800005F110003844C01C20F003015B464A4636
:10979000284600F0D9FC00BF287900F0030000281B
:1097A00008D000BF3CA34FF4807247A152A0FCF741
:1097B0006DFC00BF00BF00BFF81C20F00300C0F527
:1097C0001470002808D100BF33A34FF4817254A154
:1097D00049A0FCF75BFC00BF00BF0CB92C4601E0C0
:1097E000029805600295A9EB0B001FFA80F900278B
:1097F000B9F1000FA2DC4BE0F81C20F00301F01CD3
:1098000020F00300084485B205F110001FFA80F92A
:10981000F01C20F00300A84206D800E02BE0F01C6A
:1098200020F00300484501D9002093E74846FFF7A0
:10983000C7F804460CB900208CE70020CDE9008071
:1098400004F110003844C01C20F0030133463246B6
:10985000204600F079FC00BF207900F0030040B101
:1098600000BF0DA34FF491723AA123A0FCF70EFCA8
:1098700000BF00BF0CE000BF00BF07A340F22712EB
:109880003FA11DA0FCF702FC00BF00BF002061E764
:1098900000BF20465EE700002E2E2F4D6964646CE9
:1098A0006577617265732F54686972645F50617285
:1098B00074792F4C7749502F7372632F636F7265E1
:1098C0002F706275662E6300706275665F616C6CE6
:1098D0006F633A207062756620712D3E7061796CFD
:1098E0006F61642070726F7065726C7920616C6951
:1098F000676E656400000000417373657274696F80
:109900006E2022257322206661696C656420617473
:10991000206C696E6520256420696E2025730A001D
:10992000504255465F504F4F4C5F42554653495A3F
:1099300045206D7573742062652062696767657282
:10994000207468616E204D454D5F414C49474E4D36
:10995000454E5400706275665F616C6C6F633A20AF
:10996000706275662D3E7061796C6F6164207072F3
:109970006F7065726C7920616C69676E6564000058
:10998000706275665F616C6C6F633A206572726FAE
:109990006E656F7573207479706500002DE9FC4168
:1099A00007460D46144600BF412C0AD0012C08D0B2
:1099B00000BF0EA34FF4A57218A11DA0FCF766FB13
:1099C00000BF00BF0720FFF7DFFA064616B90020E8
:1099D000BDE8FC8100202B462A463946CDE90040EF
:1099E000304600F0B1FB3046F2E700002E2E2F4D3E
:1099F0006964646C6577617265732F546869726419
:109A00005F50617274792F4C7749502F7372632FB6
:109A1000636F72652F706275662E6300696E766182
:109A20006C696420706275665F747970650000000F
:109A3000417373657274696F6E20222573222066EC
:109A400061696C6564206174206C696E65202564B1
:109A500020696E2025730A002DE9FC5F05460C463F
:109A600017469846DDE90C9BAA460AF1030020F050
:109A700003002044584502D90020BDE8FC9FB9F1FD
:109A8000000F06D00AF1030020F0030000EB0906E6
:109A900000E000260220234622463146CDE9007030
:109AA000404600F051FB4046E7E7000070B506462F
:109AB0000D4600BF0EB1002D09D100BF1BA340F21F
:109AC000593226A133A0FCF7E1FA00BF70BD00BFF8
:109AD000344604E0208929890844208124682068CC
:109AE0000028F7D100BF20896189884208D000BFD3
:109AF0000EA340F2623231A126A0FCF7C7FA00BFE4
:109B000000BF00BF206840B100BF08A340F263322D
:109B100036A120A0FCF7BAFA00BF00BF208929892E
:109B200008442081256000BFD0E700002E2E2F4D75
:109B30006964646C6577617265732F5468697264D7
:109B40005F50617274792F4C7749502F7372632F75
:109B5000636F72652F706275662E6300286820211E
:109B60003D204E554C4C2920262620287420213D8E
:109B7000204E554C4C29202870726F6772616D6DB4
:109B800065722076696F6C61746573204150492954
:109B900000000000417373657274696F6E202225A6
:109BA0007322206661696C6564206174206C696E43
:109BB0006520256420696E2025730A00702D3E748F
:109BC0006F745F6C656E203D3D20702D3E6C656E40
:109BD00020286F66206C617374207062756620693E
:109BE0006E20636861696E2900000000702D3E6E72
:109BF000657874203D3D204E554C4C0001460020B8
:109C000002E0421C90B209680029FAD170470000B6
:109C10002DE9F04105460C460026002700BF25B17E
:109C20001CB12889218988420CDA00BF44A340F284
:109C3000C9324FA15AA0FCF729FA00BF6FF00F00FC
:109C4000BDE8F08100BF00BF6889801B6189C91B26
:109C5000884203D36089A0EB070802E06889A0EB83
:109C600006086268D1196A6890194246F6F763FBE4
:109C70004644474400BF6889B04208D200BF30A3C1
:109C800040F2D93250A146A0FCF700FA00BF00BF55
:109C900000BF6089B84208D200BF29A340F2DA327F
:109CA0004FA13FA0FCF7F2F900BF00BF6089B842A6
:109CB00001D8002724686889B04211D100262D6898
:109CC00000BF65B95CB100BF1DA34FF479724BA111
:109CD00033A0FCF7DBF900BF6FF00F00B0E700BF67
:109CE000002C13D06089218988420FD100BF2068E1
:109CF00058B100BF12A340F2E93244A128A0FCF7FA
:109D0000C5F900BF6FF005009AE700BF002D13D022
:109D10006889298988420FD100BF286858B100BFDF
:109D200007A340F2EE3239A11DA0FCF7AFF900BF46
:109D30006FF0050084E700BF002C85D100207FE78D
:109D40002E2E2F4D6964646C6577617265732F5494
:109D5000686972645F50617274792F4C7749502F33
:109D60007372632F636F72652F706275662E630066
:109D7000706275665F636F70793A207461726765AF
:109D800074206E6F742062696720656E6F756768F6
:109D900020746F20686F6C6420736F757263650048
:109DA000417373657274696F6E2022257322206679
:109DB00061696C6564206174206C696E652025643E
:109DC00020696E2025730A006F66667365745F7480
:109DD0006F203C3D20705F746F2D3E6C656E0000FF
:109DE0006F66667365745F66726F6D203C3D2070B0
:109DF0005F66726F6D2D3E6C656E0000705F746FF4
:109E000020213D204E554C4C0000000070627566CC
:109E10005F636F7079282920646F6573206E6F749B
:109E200020616C6C6F77207061636B657420717555
:109E300065756573210000002DE9F05F8046894655
:109E400016461D464FF0000AD34600BFB8F1000F7A
:109E50000BD100BF21A340F20A422CA133A0FCF792
:109E600015F900BF0020BDE8F09F00BF00BFB9F1A9
:109E7000000F0AD100BF19A340F20B4235A12BA05D
:109E8000FCF704F900BF0020EDE700BF444620E0E6
:109E900035B16089A84203DC6089281A85B217E0D1
:109EA0006089401B87B2B74200DD374662685119AE
:109EB00009EB0A003A46F6F73EFA0BEB07001FFAE9
:109EC00080FB0AEB07001FFA80FAF01B86B2002520
:109ED00024680EB1002CDBD15846C4E72E2E2F4D3E
:109EE0006964646C6577617265732F546869726424
:109EF0005F50617274792F4C7749502F7372632FC2
:109F0000636F72652F706275662E6300706275668E
:109F10005F636F70795F7061727469616C3A206918
:109F20006E76616C696420627566000041737365CA
:109F30007274696F6E2022257322206661696C65D8
:109F400064206174206C696E6520256420696E2030
:109F500025730A00706275665F636F70795F706168
:109F6000727469616C3A20696E76616C6964206410
:109F700061746170747200002DE9F0470446002C92
:109F80000ED100BF44B900BF35A34FF4377240A1D2
:109F900042A0FCF77BF800BF00BF0020BDE8F087BF
:109FA000002658E000BFA07B002808DC00BF2CA3DF
:109FB00040F2F12243A139A0FCF768F800BF00BFCE
:109FC000A07B401E00F0FF0884F80E80B8F1000F5F
:109FD0003FD12768207B00F00F05607B00F0020076
:109FE000002814D0A14600BFD9F81000002808D1DD
:109FF00000BF1BA340F2FF2238A128A0FCF746F8BF
:10A0000000BF00BF2046D9F8101088471DE0022D80
:10A0100004D121460820FEF749FF16E0012D04D1A6
:10A0200021460720FEF742FF0FE01DB92046FEF74C
:10A03000B9FB0AE000BF00BF09A340F20F3230A114
:10A0400016A0FCF723F800BF00BF701CC6B23C4648
:10A0500000E0002400BF002CA4D130469EE70000A1
:10A060002E2E2F4D6964646C6577617265732F5471
:10A07000686972645F50617274792F4C7749502F10
:10A080007372632F636F72652F706275662E630043
:10A090007020213D204E554C4C00000041737365EB
:10A0A0007274696F6E2022257322206661696C6567
:10A0B00064206174206C696E6520256420696E20BF
:10A0C00025730A00706275665F667265653A207076
:10A0D0002D3E726566203E203000000070632D3EEC
:10A0E000637573746F6D5F667265655F66756E63C9
:10A0F00074696F6E20213D204E554C4C00000000CD
:10A10000696E76616C69642070627566207479701E
:10A110006500000070B504460D4601222946204620
:10A1200000F001F870BD70B505460C461646002CCF
:10A1300004DA6142284600F021F970BD324621461A
:10A140002846FFF767FAF8E770B5DDE90445002611
:10A150000660416002814381047345730126867362
:10A160000026C67370BD000000BF012001490870C1
:10A1700000BF7047B90000242DE9F04106460F46A4
:10A1800000BF002E08D100BF2CA34FF4CC7237A122
:10A190003CA0FBF77BFF00BF00BF3089B84201DC69
:10A1A000BDE8F0813089C01B1FFA80F83D46344677
:10A1B00013E06089281A85B22089A0EB080020816D
:10A1C000246800BF44B900BF1CA340F2AF1237A1FE
:10A1D0002CA0FBF75BFF00BF00BF6089A842E8DB53
:10A1E000207B00F00F0000281BD16089A84218D006
:10A1F000607B00F00200002813D1A088001B2844D7
:10A2000081B22046FEF738FD044600BF44B900BFC6
:10A210000AA340F2BD122BA11AA0FBF737FF00BF23
:10A2200000BF658160892081206810B12068FFF738
:10A23000A3FE0020206000BFB2E700002E2E2F4DAD
:10A240006964646C6577617265732F5468697264C0
:10A250005F50617274792F4C7749502F7372632F5E
:10A26000636F72652F706275662E6300706275662B
:10A270005F7265616C6C6F633A207020213D204EE7
:10A28000554C4C00417373657274696F6E202225C2
:10A290007322206661696C6564206174206C696E4C
:10A2A0006520256420696E2025730A00706275663A
:10A2B0005F7265616C6C6F633A207120213D204EA6
:10A2C000554C4C006D656D5F7472696D20726574DC
:10A2D00075726E65642071203D3D204E554C4C00DA
:10A2E00010B50446002C12D000BFA07B401CA07308
:10A2F00000BF00BFA07B002808DC00BF04A340F221
:10A3000042320FA113A0FBF7C1FE00BF00BF10BD7A
:10A310002E2E2F4D6964646C6577617265732F54BE
:10A32000686972645F50617274792F4C7749502F5D
:10A330007372632F636F72652F706275662E630090
:10A340007062756620726566206F766572666C6FE6
:10A3500077000000417373657274696F6E20222567
:10A360007322206661696C6564206174206C696E7B
:10A370006520256420696E2025730A002DE9F041CF
:10A3800004460D4600BF44B900BF18A340F24B225B
:10A3900022A125A0FBF77AFE00BF00BF14B1B5F5DE
:10A3A000803F02D30120BDE8F0810DB90020FAE71B
:10A3B000AEB200BF6089B0420ADA00BF0BA340F220
:10A3C000552223A118A0FBF761FE00BF0120EAE798
:10A3D00000BF67686068284460606089801B608196
:10A3E0002089801B20810020DDE700002E2E2F4DCC
:10A3F0006964646C6577617265732F54686972640F
:10A400005F50617274792F4C7749502F7372632FAC
:10A41000636F72652F706275662E63007020213D38
:10A42000204E554C4C000000417373657274696F87
:10A430006E2022257322206661696C656420617438
:10A44000206C696E6520256420696E2025730A00E2
:10A45000696E6372656D656E745F6D61676E697458
:10A46000756465203C3D20702D3E6C656E000000DB
:10A470002DE9F041044600BF3B480068844208D201
:10A4800000BF3AA340F2DF1244A14AA0FBF7FEFD51
:10A4900000BF00BF00BF51480068844208D300BF1E
:10A4A00032A34FF4F0724EA142A0FBF7EFFD00BFC4
:10A4B00000BF00BF2079002808D000BF2BA340F2C6
:10A4C000E1124EA13BA0FBF7E1FD00BF00BF00BFC2
:10A4D0002088B0F5C86F08D900BF24A34FF4F272EA
:10A4E0004DA134A0FBF7D2FD00BF00BF208800F0D3
:10A4F000ABF80546AC4219D02879B8B9374800689E
:10A50000854213D04F480068A84201D14D480460ED
:10A51000288820802888B0F5C86F07D02046FEF72D
:10A52000A3FB0746288800F08FF84780608800F07A
:10A530008BF80646A64215D0307998B94148006894
:10A54000A04201D13F480660208830802088B0F5C5
:10A55000C86F07D03046FEF787FB0746208800F01B
:10A5600073F84780BDE8F081800000242E2E2F4D27
:10A570006964646C6577617265732F54686972648D
:10A580005F50617274792F4C7749502F7372632F2B
:10A59000636F72652F6D656D2E630000706C75675B
:10A5A0005F686F6C65733A206D656D203E3D20726B
:10A5B000616D0000417373657274696F6E202225AE
:10A5C0007322206661696C6564206174206C696E19
:10A5D0006520256420696E2025730A00840000240C
:10A5E000706C75675F686F6C65733A206D656D2080
:10A5F0003C2072616D5F656E64000000706C756771
:10A600005F686F6C65733A206D656D2D3E7573657F
:10A6100064203D3D20300000706C75675F686F6C92
:10A6200065733A206D656D2D3E6E657874203C3DF6
:10A63000204D454D5F53495A455F414C49474E4572
:10A6400044000000880000240146024800680844D5
:10A65000704700008000002410B5F7F71FFD10BD03
:10A660002DE9F04104460E46174600BFB4F1804F75
:10A6700008D300BF09A340F2291215A122A0FBF7BD
:10A6800005FD00BF00BFFFF7E7FF05193A46314659
:10A69000284600F04DF8BDE8F08100002E2E2F4D29
:10A6A0006964646C6577617265732F54686972645C
:10A6B0005F50617274792F4C7749502F7372632FFA
:10A6C000636F72652F74696D656F7574732E6300A7
:10A6D00054696D656F75742074696D6520746F6F52
:10A6E000206C6F6E672C206D6178206973204C5749
:10A6F00049505F55494E5433325F4D41582F3420F5
:10A700006D73656373000000417373657274696FE4
:10A710006E2022257322206661696C656420617455
:10A72000206C696E6520256420696E2025730A00FF
:10A730002DE9F04106460F4690460620FEF724FC20
:10A740000446002C0CD100BF07D100BF20A3BE22BD
:10A750002CA13CA0FBF79AFC00BF00BFBDE8F08134
:10A7600000202060A760C4F80C8066603F48006845
:10A7700010B93E480460F1E73C49606809684968DF
:10A78000401AB0F1004F01D3012000E0002028B1B1
:10A790003648006820603548046017E03348056893
:10A7A00011E0286850B1606829684968401AB0F122
:10A7B000004F01D3012000E0002018B1286820607C
:10A7C0002C6002E02D68002DEBD100BF00BFC5E773
:10A7D0002E2E2F4D6964646C6577617265732F54FA
:10A7E000686972645F50617274792F4C7749502F99
:10A7F0007372632F636F72652F74696D656F757403
:10A80000732E63007379735F74696D656F75743A45
:10A810002074696D656F757420213D204E554C4C38
:10A820002C20706F6F6C204D454D505F5359535F16
:10A8300054494D454F555420697320656D707479A6
:10A8400000000000417373657274696F6E202225E9
:10A850007322206661696C6564206174206C696E86
:10A860006520256420696E2025730A0004010024F8
:10A870002DE9FF5F04460E4600BF002C0AD100BF41
:10A8800042A340F23D224DA153A0FBF7FFFB00BFC6
:10A89000BDE8FF9F00BF00BF207D012808D100BF99
:10A8A0003AA34FF4107256A14BA0FBF7EFFB00BF89
:10A8B00000BF207D0A2807D121465E4802F0CEFD68
:10A8C000204600F0FBFD5FE04FF0000AD346276D05
:10A8D000D4F82480D4F89050D4F81090207DE8B9B2
:10A8E000E08A38B300BF54480068A04205D15248FE
:10A8F0000068C068504908600DE04F49086806E0EC
:10A90000C168A14202D1E168C16002E0C0680028CC
:10A91000F6D100BF00BF0020E0600BE0B246B4F803
:10A9200016B000BF2146454802F098FD0120444979
:10A93000087000BF206F10B1206F04F08EFDE06E34
:10A9400010B1E06E04F089FD606F10B1606F04F02B
:10A9500084FDBAF1000F0AD0208B211D2346424608
:10A96000CDE9001B02903946204604F07BFC207D97
:10A970000390204600F0A2FD00BF1DB16FF00C0156
:10A980004846A84700BF00BF00BF81E72E2E2F4DCD
:10A990006964646C6577617265732F546869726469
:10A9A0005F50617274792F4C7749502F7372632F07
:10A9B000636F72652F7463702E6300007463705F41
:10A9C0006162616E646F6E3A20696E76616C696473
:10A9D0002070636200000000417373657274696FD8
:10A9E0006E2022257322206661696C656420617483
:10A9F000206C696E6520256420696E2025730A002D
:10AA0000646F6E27742063616C6C207463705F6187
:10AA1000626F72742F7463705F6162616E646F6ED7
:10AA200020666F72206C697374656E2D706362733B
:10AA300000000000D0000024C4000024CC0000244A
:10AA4000D400002410B5044601212046FFF710FF72
:10AA500010BD000070B505460120FEF795FA0446CA
:10AA60001CBB00F09FFE01F041FC0120FEF78CFAB8
:10AA70000446CCB9092001F0D1FB0120FEF784FA8D
:10AA8000044684B9082001F0C9FB0120FEF77CFAD6
:10AA900004463CB9284601F08DFB0120FEF774FA0C
:10AAA000044600BF00BF00BF00BF44B39C21204646
:10AAB000F5F768FC0C3465724FF48660A4F8580012
:10AAC0004000E083A083FF2004F8010C4FF40670DF
:10AAD000E0840620A0866086C01FA0840120A08795
:10AAE00008480068606108480078A0744FF48660E8
:10AAF000E0870648A0670648C4F888000C3C20465A
:10AB000070BD0000C0000024D600002429EB00081E
:10AB100000DD6D0010B5044600BF002C0BD100BF56
:10AB20000CA34FF4F47217A11CA0FBF7AFFA00BFFF
:10AB30006FF00F0010BD00BF207D012805D000BFC1
:10AB4000608B40F01000608300BF0121204600F0C0
:10AB500039F8EFE72E2E2F4D6964646C65776172CA
:10AB600065732F54686972645F50617274792F4CF9
:10AB70007749502F7372632F636F72652F74637000
:10AB80002E6300007463705F636C6F73653A2069B5
:10AB90006E76616C69642070636200004173736556
:10ABA0007274696F6E2022257322206661696C655C
:10ABB00064206174206C696E6520256420696E20B4
:10ABC00025730A003EB504460D4600BF002C08D18F
:10ABD00000BF55A34FF4AF725FA167A0FBF756FA11
:10ABE00000BF00BF002D56D0207D042802D0207D5C
:10ABF000072850D1A06F18B9208DB0F5066F4AD044
:10AC000000BFA07E00F0100040B900BF46A34FF483
:10AC1000B27263A158A0FBF739FA00BF00BF208BC6
:10AC2000E18A221DCDE90021029023462046626A76
:10AC3000216D04F017FB204602F0A2FB00BF00BF0D
:10AC40005E480068A04205D15C480068C0685B4966
:10AC500008600DE05949086806E0C168A14202D1C8
:10AC6000E168C16002E0C0680028F6D100BF00BF03
:10AC70000020E06000BF01205149087000BF51482A
:10AC80000068A04202D105F0D7FA02E0204600F0A9
:10AC900015FC00203EBD207D20B1012824D00228D3
:10ACA0003AD12CE0E08AD8B100BF47480068A04202
:10ACB00005D145480068C068434908600DE0424935
:10ACC000086806E0C168A14202D1E168C16002E003
:10ACD000C0680028F6D100BF00BF0020E06000BFC0
:10ACE000204600F0EBFB1BE0204601F01DFB214657
:10ACF000364802F0B3FB204600F0D8FC10E000BF5D
:10AD000021462E4802F0AAFB01202D49087000BF01
:10AD1000204600F0D3FB03E0204600F059F8B9E7E5
:10AD200000BF0020B6E700002E2E2F4D6964646C32
:10AD30006577617265732F54686972645F506172E0
:10AD400074792F4C7749502F7372632F636F72653C
:10AD50002F7463702E6300007463705F636C6F7395
:10AD6000655F73687574646F776E3A20696E76619B
:10AD70006C69642070636200417373657274696FFB
:10AD80006E2022257322206661696C6564206174DF
:10AD9000206C696E6520256420696E2025730A0089
:10ADA0007063622D3E666C61677320262054465F97
:10ADB0005258434C4F53454400000000CC0000243F
:10ADC000D400002400010024C4000024C800002492
:10ADD00070B5054600BF45B900BF1EA34FF4CE7243
:10ADE00028A12BA0FBF752F900BF00BF287D032844
:10ADF00004D004280AD0072818D10FE0284604F010
:10AE0000D9FB04460CB90520287511E0284604F04A
:10AE1000D1FB04460CB90520287509E0284604F04A
:10AE2000C9FB04460CB90920287501E0002070BD5B
:10AE300000BF1CB9284601F0C9FC09E0601C38B904
:10AE400000BF688B40F00800688300BF0020EEE779
:10AE50002046ECE72E2E2F4D6964646C6577617295
:10AE600065732F54686972645F50617274792F4CF6
:10AE70007749502F7372632F636F72652F746370FD
:10AE80002E63000070636220213D204E554C4C0023
:10AE9000417373657274696F6E2022257322206678
:10AEA00061696C6564206174206C696E652025643D
:10AEB00020696E2025730A002DE9F05F80460D465B
:10AEC00091469A460A9F00BFB8F1000F07D100BF14
:10AED00040A3A3224CA154A0FBF7D8F800BF00BFA9
:10AEE00000BF002D07D100BF3AA3A42258A14EA055
:10AEF000FBF7CCF800BF00BF07F0010008B1042049
:10AF000000E0002007F0020109B1002100E000216B
:10AF1000084407F0080109B1002100E000210844BD
:10AF200007F0100109B1002100E0002146180320BC
:10AF3000FEF72AF8041E05D12846FFF71DF8002069
:10AF4000BDE8F09FA77200202060656000BF2889DF
:10AF5000B04207DA00BF1FA3B02246A132A0FBF720
:10AF600095F800BF00BF2889801B20811421284646
:10AF7000FEF746FB20B1204604F062FA0020DFE72E
:10AF800060684068E060B8F81600FDF77AFBE16899
:10AF90000880B8F81800FDF774FBE1684880504657
:10AFA000FDF762FBE1684860B346F11706EB91716B
:10AFB0008910491D4FF6FF7202EA013141EA09008A
:10AFC000FDF75FFBE16888810020E1684882204648
:10AFD000B6E700002E2E2F4D6964646C65776172B0
:10AFE00065732F54686972645F50617274792F4C75
:10AFF0007749502F7372632F636F72652F7463707C
:10B000005F6F75742E6300007463705F63726561B7
:10B0100074655F7365676D656E743A20696E7661FD
:10B020006C69642070636200417373657274696F48
:10B030006E2022257322206661696C65642061742C
:10B04000206C696E6520256420696E2025730A00D6
:10B050007463705F6372656174655F7365676D6566
:10B060006E743A20696E76616C69642070627566F0
:10B0700000000000702D3E746F745F6C656E203EA2
:10B080003D206F70746C656E000000002DE9F0418A
:10B0900006460D46174600BF002F08D100BF10A37B
:10B0A00040F6C5021AA124A0FAF7F0FF00BF00BFC6
:10B0B00015B93046BDE8F081AC8C74B128208442CB
:10B0C00002DD211A89B200E000218846464501DAF6
:10B0D000314600E041460E4600BF3046EAE7000038
:10B0E0002E2E2F4D6964646C6577617265732F54E1
:10B0F000686972645F50617274792F4C7749502F80
:10B100007372632F636F72652F7463702E63000018
:10B110007463705F6566665F73656E645F6D73739D
:10B120005F6E657469663A20696E76616C69642049
:10B130006473745F69700000417373657274696F42
:10B140006E2022257322206661696C65642061741B
:10B15000206C696E6520256420696E2025730A00C5
:10B160002DE9F84304460D460027B94600BF05F017
:10B17000030040B900BF60A340F211426B496CA0CC
:10B18000FAF784FF00BF00BF00BF002C08D100BF4A
:10B1900059A340F2134270A165A0FAF777FF00BFF0
:10B1A00000BF05F0020000B1012707F0010008B15F
:10B1B000042000E0002007F0020109B1002100E0B6
:10B1C0000021084407F0080109B1002100E0002136
:10B1D000084407F0100109B1002100E0002100EB54
:10B1E00001094FF4207249463620FEF787FAB0F184
:10B1F000000809D100BF608B40F08000608300BF71
:10B200004FF0FF30BDE8F88300BFB8F80A004845AA
:10B2100008DA00BF38A340F2394257A144A0FAF738
:10B2200035FF00BF00BF00972A4641462046E36D28
:10B23000FFF742FE061E07D100BF608B40F0800082
:10B24000608300BF701EDDE700BF307B00F00300AD
:10B2500040B100BF28A340F2424256A134A0FAF701
:10B2600015FF00BF00BF00BF308940B100BF22A35F
:10B2700040F2434255A12EA0FAF708FF00BF00BFDD
:10B28000E06E08B9E66607E0E06E00E0006801687D
:10B290000029FBD1066000BF0020A4F8680005F07B
:10B2A000020010B905F0010010B1E06D401CE0652E
:10B2B00005F0010028B100BF608B40F020006083E2
:10B2C00000BF7068FEF79AFC34F8661F08442080BF
:10B2D00034F8660970B100BF206F50B9E06E40B914
:10B2E00000BF05A340F2654243A111A0FAF7CEFECC
:10B2F00000BF00BF002085E72E2E2F4D6964646CCF
:10B300006577617265732F54686972645F5061720A
:10B3100074792F4C7749502F7372632F636F726566
:10B320002F7463705F6F75742E630000400A01080C
:10B33000417373657274696F6E20222573222066D3
:10B3400061696C6564206174206C696E6520256498
:10B3500020696E2025730A007463705F656E7175D5
:10B360006575655F666C6167733A20696E76616CBE
:10B3700069642070636200007463705F656E71754C
:10B380006575655F666C6167733A20636865636BBA
:10B3900020746861742066697273742070627566C7
:10B3A0002063616E20686F6C64206F70746C656ED2
:10B3B000000000007365672D3E746370686472203E
:10B3C0006E6F7420616C69676E6564007463705F92
:10B3D000656E71756575655F666C6167733A206946
:10B3E0006E76616C6964207365676D656E74206C40
:10B3F000656E6774680000007463705F656E7175D8
:10B400006575655F666C6167733A20696E76616C1D
:10B410006964207175657565206C656E6774680078
:10B4200070B523480078401C2149087000BF2148AE
:10B43000046839E0A07F1E490978884233D01C484F
:10B440000078A077A07E00F0010078B100BF608B8B
:10B4500040F00200608300BF204601F0B7F900BF52
:10B46000608B4FF6FC710840608300BFA07E00F047
:10B47000080048B100BF608B4FF6F7710840608349
:10B4800000BF2046FFF7A4FCE568A06F48B100208C
:10B4900009490870204602F06FFC0748007800B1A7
:10B4A000C5E72C4600E0E468002CC3D170BD000065
:10B4B000D6000024CC000024D400002410B504469B
:10B4C00000BF207D012807D100BF06A3D42211A10F
:10B4D00015A0FAF7DBFD00BF00BF21460120FDF7F4
:10B4E000E5FC10BD2E2E2F4D6964646C657761728A
:10B4F00065732F54686972645F50617274792F4C60
:10B500007749502F7372632F636F72652F74637066
:10B510002E6300007463705F667265653A204C4963
:10B520005354454E00000000417373657274696F97
:10B530006E2022257322206661696C656420617427
:10B54000206C696E6520256420696E2025730A00D1
:10B550002DE9F04705460C469146984635E02646CB
:10B5600024687068FEF74AFB074600BFB5F866001E
:10B57000B84208DA00BF22A340F257422DA137A0FB
:10B58000FAF784FD00BF00BF35F8660FC01B2880A6
:10B5900030893C49098808443A490880304603F01C
:10B5A0004FFF35F8660900280FD000BF002C0BD1E3
:10B5B000B8F1000F08D100BF11A340F2614232A1DF
:10B5C00026A0FAF763FD00BF00BFB4B1E168486888
:10B5D000FDF74AF88246E1688889FDF752F800F0E5
:10B5E000030008B1012000E00020218908445044F4
:10B5F0002D490968401A0028B1DD2046BDE8F087D2
:10B600002E2E2F4D6964646C6577617265732F54BB
:10B61000686972645F50617274792F4C7749502F5A
:10B620007372632F636F72652F7463705F696E2E20
:10B63000630000007063622D3E736E645F71756518
:10B6400075656C656E203E3D20706275665F636C4B
:10B65000656E286E6578742D3E70290041737365A0
:10B660007274696F6E2022257322206661696C6591
:10B6700064206174206C696E6520256420696E20E9
:10B6800025730A00F40000247463705F72656365BB
:10B690006976653A2076616C6964207175657565B7
:10B6A000206C656E67746800F000002410B50446D5
:10B6B00000BF207D012807D100BF06A3DF2211A112
:10B6C00017A0FAF7E3FC00BF00BF21460220FDF7F8
:10B6D000EDFB10BD2E2E2F4D6964646C6577617291
:10B6E00065732F54686972645F50617274792F4C6E
:10B6F0007749502F7372632F636F72652F74637075
:10B700002E6300007463705F667265655F6C6973B9
:10B7100074656E3A20214C495354454E0000000098
:10B72000417373657274696F6E20222573222066DF
:10B7300061696C6564206174206C696E65202564A4
:10B7400020696E2025730A0010B50446606F20B191
:10B75000606F03F082FE0020606710BD0D48018815
:10B760000088401C0B4A10800B48006818B10B4839
:10B770000088814205DA0A48006800F11402505C32
:10B78000704706480078081AC2B203480068805C17
:10B79000F6E70000E8000024E4000024E2000024B2
:10B7A000DC00002470B50B48046810E0E568A07E5A
:10B7B00000F0080048B100BF608B4FF6F7710840F9
:10B7C000608300BF2046FFF703FB2C4600BF002C20
:10B7D000ECD170BDCC0000242DE9FE4F05468B4610
:10B7E00000BF002D07D100BFE2A38322EEA1F4A089
:10B7F000FAF74CFC00BF00BFFB4968680860688925
:10B80000142800DAC8E3F94A11685069FBF7ACFD67
:10B8100028B9F648007D00F0F000E02800D1BBE335
:10B82000F14909688889FCF72CFF00138700142F61
:10B8300002DB2889B84200DAAEE3A7F11400EC4934
:10B8400008800020EB4908606889B84208DBE848B6
:10B850000088E949088039462846FEF78FFD4AE00E
:10B8600000BF286838B900BFC2A3C222E3A1D4A098
:10B87000FAF70CFC00BF00BF14212846FEF77EFD3E
:10B880006889DD490880DA4800880988401A1FFA6B
:10B8900080FAD94801882846FEF770FD286840895B
:10B8A000504500DA78E328684068D249086051467C
:10B8B0002868FEF763FD2889A0EB0A00288100BFF5
:10B8C000688938B100BFABA3DF22D0A1BCA0FAF7D2
:10B8D000DDFB00BF00BF00BF2889296809898842B5
:10B8E00007D000BFA3A3E022CBA1B5A0FAF7CEFBFF
:10B8F00000BF00BF00BFBC4909680888FCF7C1FE53
:10B90000B94909680880B84909684888FCF7B9FE50
:10B91000B54909684880B44909684868FCF7A4FE3D
:10B92000B14909684860C4490860AF490968886836
:10B93000FCF79AFEAC4909688860C0490860AA49CA
:10B940000968C889FCF79DFEA7490968C881A6490E
:10B9500009688889FCF795FE00F03F00B849087037
:10B960002889B8490880B648007800F0030040B143
:10B9700008460088401C088028890988884200DD24
:10B980000AE34FF00009B048046873E000BF207D6F
:10B9900038B900BF77A3FB22ACA189A0FAF776FBE8
:10B9A00000BF00BF00BF207D0A2807D100BF71A3E0
:10B9B000FC22B0A182A0FAF769FB00BF00BF00BF64
:10B9C000207D012807D100BF6AA3FD22B4A17CA07D
:10B9D000FAF75CFB00BF00BF207A50B1217A8348A0
:10B9E000406890F83000401CC0B2814201D0A146AE
:10B9F0003FE0208B7C4909680988884237D1E08A7A
:10BA0000794909684988884231D17849606809696B
:10BA100088422CD1754920684969884227D100BFE6
:10BA2000E068A04208D100BF52A340F20D12A6A1C7
:10BA300063A0FAF72BFB00BF00BFB9F1000F07D0DE
:10BA4000E068C9F80C0080480068E0607E48046047
:10BA500000BFE068A04208D100BF46A340F2151223
:10BA6000A4A157A0FAF712FB00BF00BF04E0A14653
:10BA700000BFE468002C89D100BF002C78D1A84811
:10BA8000046839E000BF207D0A2808D000BF39A330
:10BA900040F21F12A3A14AA0FAF7F8FA00BF00BFB4
:10BAA000207A48B1217A5148406890F83000401C13
:10BAB000C0B2814200D01EE0208B4B490968098842
:10BAC000884217D1E08A484909684988884211D1DB
:10BAD00046496068096988420CD14449206849692F
:10BAE000884207D1204604F0F3FA2846FEF744FACC
:10BAF000BDE8FE8F00BFE468002CC3D1A146954885
:10BB000006681FE0307A50B1317A3848406890F8C2
:10BB10003000401CC0B2814201D0B14611E0F08A31
:10BB2000314909684988884209D1304930684969F2
:10BB3000884200D108E00EB1306800B904E0B14697
:10BB400000BFF668002EDDD100BF8EB1B9F1000F45
:10BB500007D0F068C9F80C007E480068F0607D48A6
:10BB60000660304600F04AFC2846FEF705FABFE7BB
:10BB7000F2E000002E2E2F4D6964646C65776172CF
:10BB800065732F54686972645F50617274792F4CC9
:10BB90007749502F7372632F636F72652F746370D0
:10BBA0005F696E2E630000007463705F696E70756C
:10BBB000743A20696E76616C696420706275660003
:10BBC000417373657274696F6E202225732220663B
:10BBD00061696C6564206174206C696E6520256400
:10BBE00020696E2025730A00DC000024FC920024EA
:10BBF000E0000024E4000024E2000024702D3E6EEA
:10BC000065787420213D204E554C4C00702D3E6CC3
:10BC1000656E203D3D203000702D3E746F745F6C6A
:10BC2000656E203D3D20702D3E6E6578742D3E740E
:10BC30006F745F6C656E0000EC000024F00000245F
:10BC4000F8000024F6000024CC0000247463705F28
:10BC5000696E7075743A20616374697665207063EB
:10BC6000622D3E737461746520213D20434C4F5317
:10BC7000454400007463705F696E7075743A2061AA
:10BC80006374697665207063622D3E7374617465B8
:10BC900020213D2054494D452D5741495400000075
:10BCA0007463705F696E7075743A2061637469764D
:10BCB00065207063622D3E737461746520213D20A0
:10BCC0004C495354454E00007463705F696E707543
:10BCD000743A207063622D3E6E65787420213D2099
:10BCE00070636220286265666F72652063616368B5
:10BCF000652900007463705F696E7075743A207016
:10BD000063622D3E6E65787420213D207063622051
:10BD100028616674657220636163686529000000AC
:10BD2000D00000247463705F696E7075743A20549B
:10BD3000494D452D57414954207063622D3E73741F
:10BD4000617465203D3D2054494D452D574149546E
:10BD500000000000C8000024002C73D0002091498E
:10BD6000086028890881084645608F480068C860D7
:10BD700000208E4908608E4908708E4908808E48E0
:10BD8000007800F0080018B1687B40F0010068738B
:10BD9000A06F80B1204601F0EFFF0D3028B1A06FF9
:10BDA00048B186480088002805DD608D10B920461E
:10BDB00003F060FBBCE082480460204601F03AFCDE
:10BDC000804608F10D00002816D07948007800F070
:10BDD000080090B100BFD4F8900028B16FF00D01B9
:10BDE000D4F890202069904700BF2146754801F0A3
:10BDF00035FB2046FFF762FB99E04FF000086D48E5
:10BE00000088002819DD6B48B0F800A000BFD4F806
:10BE1000800038B152462146D4F8803020699847D6
:10BE2000804601E04FF0000800BF08F10D0000B9A6
:10BE30007EE000205F49088000BF204600F0D8F86F
:10BE400008B175E084E059480068A8B300BFA06F4E
:10BE500050B100BFAFF2E4234FF4F3725AA1AFF236
:10BE6000A020FAF713F900BF00BFA07E00F0100079
:10BE700038B14E480068FEF77FF82046FEF7E2FD35
:10BE800056E000BFD4F8840048B100234749D4F8F5
:10BE900084C020690A682146E047804607E0002305
:10BEA000424821460268184602F03EFE804600BF26
:10BEB00008F10D0008B93BE005E0B8F1000F02D031
:10BEC0003A480068A0673A48007800F0200018B3AC
:10BED000A06F30B1A06F407B40F02000A16F48738D
:10BEE0001AE0208DB0F5066F02D0208D401C208511
:10BEF00000BFD4F8840040B100231A462146D4F88C
:10BF000084C02069E047804601E04FF0000800BF90
:10BF100008F10D0000B90BE0002029490860204617
:10BF200000F066F800B103E0204600F04FFC00BFCF
:10BF30000020234908601D4908601A48406840B342
:10BF400018494868FEF718F800201649486020E0B4
:10BF5000154909688889FCF794FB00F00400A8B92A
:10BF60001148006800881049096849881D4ACDE9D0
:10BF7000002102901C480068104909884218194B9A
:10BF80001B1D1A480168002003F06CF92846FDF7D4
:10BF9000F3FF00BF00BFABE52846FDF7EDFF00BF94
:10BFA000A6E50000D4C10024DC000024FC0000242D
:10BFB000F9000024F4000024F8000024F600002416
:10BFC00000010024CC0000247063622D3E7265667F
:10BFD000757365645F64617461203D3D204E554C0E
:10BFE0004C0000000C930024EC000024F00000241E
:10BFF00010B5044600BF002C08D100BF13A340F2C7
:10C000005A221FA128A0FAF741F800BF00BF30480C
:10C01000007800F01000B8B1A07E00F0100050B918
:10C0200000BFD4F8900028B16FF00E01D4F8902032
:10C030002069904700BF2146264801F00FFA2046AC
:10C04000FFF73CFA012010BD0020FCE72E2E2F4DFB
:10C050006964646C6577617265732F546869726492
:10C060005F50617274792F4C7749502F7372632F30
:10C07000636F72652F7463705F696E2E63000000DA
:10C080007463705F696E7075745F64656C61796507
:10C09000645F636C6F73653A20696E76616C696486
:10C0A0002070636200000000417373657274696FF1
:10C0B0006E2022257322206661696C65642061749C
:10C0C000206C696E6520256420696E2025730A0046
:10C0D000F9000024CC0000242DE9F041044600269C
:10C0E00000BF002C08D100BF14A340F6240220A1F9
:10C0F00026A0F9F7CBFF00BF00BF216D481EFCF75B
:10C10000B3FA8046434600223146204600F010FD37
:10C1100005461DB94FF0FF30BDE8F08133460022DF
:10C120002946204600F082FE231D2246294620464D
:10C1300000F0FEFD07463846EEE700002E2E2F4D9C
:10C140006964646C6577617265732F5468697264A1
:10C150005F50617274792F4C7749502F7372632F3F
:10C16000636F72652F7463705F6F75742E63000068
:10C170007463705F6B656570616C6976653A2069A0
:10C180006E76616C69642070636200004173736550
:10C190007274696F6E2022257322206661696C6556
:10C1A00064206174206C696E6520256420696E20AE
:10C1B00025730A002DE9F04107467F2F01DD7F201E
:10C1C00000E0384606460EB9BDE8F081701EC6B2E2
:10C1D0004FF0000800250F48046813E0607DB0426E
:10C1E00008DB607DB0420CD10B49206A0968081A4F
:10C1F000404506D30849206A0968A1EB0008254696
:10C20000667DE468002CE9D115B12846FEF71AFCDA
:10C2100000BFD9E7CC000024C00000242DE9F04184
:10C22000054600BF082D0AD0092D08D000BF13A372
:10C2300040F2DD621DA121A0F9F728FF00BF00BF79
:10C2400000270026274804680EE0207DA8420AD176
:10C250002549206A0968081AB84204D32249206A8D
:10C2600009680F1A2646E468002CEED11EB10021A1
:10C270003046FEF7FDFABDE8F08100002E2E2F4D6E
:10C280006964646C6577617265732F546869726460
:10C290005F50617274792F4C7749502F7372632FFE
:10C2A000636F72652F7463702E630000696E766130
:10C2B0006C69642073746174650000004173736578
:10C2C0007274696F6E2022257322206661696C6525
:10C2D00064206174206C696E6520256420696E207D
:10C2E00025730A00CC000024C000002470B500268D
:10C2F00000250B4804680BE00A49206A0968081AFF
:10C30000B04204D30749206A09680E1A2546E4683A
:10C31000002CF1D115B12846FEF794FB70BD00004A
:10C32000D0000024C000002470B5044600BF44B90A
:10C3300000BF12A340F211121CA11FA0F9F7A6FE24
:10C3400000BF00BF00BF207D012808D000BF0BA3A5
:10C350004FF4897222A118A0F9F798FE00BF00BF20
:10C36000012507E0244951F825100868214602F00C
:10C37000CBFC6D1C042DF5D370BD00002E2E2F4D6F
:10C380006964646C6577617265732F54686972645F
:10C390005F50617274792F4C7749502F7372632FFD
:10C3A000636F72652F7463702E6300007063622088
:10C3B000213D204E554C4C00417373657274696F7A
:10C3C0006E2022257322206661696C656420617489
:10C3D000206C696E6520256420696E2025730A0033
:10C3E0007063622D3E7374617465203D3D204C493D
:10C3F0005354454E00000000B00901082DE9FE43EA
:10C4000005465448007800F0040008B1BDE8FE83FA
:10C4100000BF002D08D100BF4FA340F281225BA1D5
:10C4200062A0F9F733FE00BF00BF4A48007800F071
:10C430001000B0B1674800680088664909684988FB
:10C44000654ACDE900210290644800686449098882
:10C450004218614B1B1D63480168284602F002FF29
:10C4600075E03C48007800F0020000286FD0687D3D
:10C47000FEF7F0FA044674B900BFA86938B14FF06E
:10C48000FF320021AB6928699847804601E06FF0D0
:10C490000F0800BFBAE750481038406920604E4886
:10C4A000103800696060E88AE0824A4800680088C5
:10C4B00020830320207549480068401C6062606A40
:10C4C000E062204600F094F80646A665266566649C
:10C4D000E66542480068401E606528692061E5679E
:10C4E000687A00F00C006072287A207200BF00BFEA
:10C4F0003D480068E0603C48046003F0CDFD00BFAB
:10C5000001203A49087000BF204600F0A1FE3148E2
:10C510000068C08924F8600F20886080603C201D7E
:10C52000FBF70AFC8046608E221D4146FEF7AEFDF9
:10C53000608612212046FEF713FE074627B1002130
:10C540002046FEF795F961E7204600F03FF900BF6D
:10C550005CE70000F80000242E2E2F4D6964646C07
:10C560006577617265732F54686972645F50617298
:10C5700074792F4C7749502F7372632F636F7265F4
:10C580002F7463705F696E2E630000007463705FC8
:10C590006C697374656E5F696E7075743A20696E4C
:10C5A00076616C696420706362000000417373659A
:10C5B0007274696F6E2022257322206661696C6532
:10C5C00064206174206C696E6520256420696E208A
:10C5D00025730A00DC0000240C930024EC000024E6
:10C5E000F6000024F0000024CC000024D400002435
:10C5F00010B5044600BF002C08D100BF09A340F6C7
:10C60000AF0214A11AA0F9F741FD00BF00BF2248F4
:10C6100000682249096808441F4908600846006804
:10C6200010BD00002E2E2F4D6964646C6577617219
:10C6300065732F54686972645F50617274792F4C0E
:10C640007749502F7372632F636F72652F74637015
:10C650002E6300007463705F6E6578745F69737336
:10C660003A20696E76616C69642070636200000034
:10C67000417373657274696F6E2022257322206680
:10C6800061696C6564206174206C696E6520256445
:10C6900020696E2025730A00D8000024C000002401
:10C6A00070B505460C4600BF002D08D100BF25A37C
:10C6B00040F21F4230A13AA0F9F7E8FC00BF00BFEA
:10C6C000E9688889FBF7DDFF00F0010020B1204612
:10C6D00002F0C3FE002433E013E0E1688889FBF731
:10C6E000D0FF00F0010038B10120FBF7CAFFE96874
:10C6F00089890843E968888126462468304602F023
:10C700009FFE4CB1E06840682189084429892E4A7F
:10C7100012681144081AE0D594B128892A49096899
:10C720000844E1684968401A002809DDE06880880B
:10C7300025490988401A288129896868FDF71CFD68
:10C740002C6070BD2E2E2F4D6964646C657761720C
:10C7500065732F54686972645F50617274792F4CED
:10C760007749502F7372632F636F72652F746370F4
:10C770005F696E2E630000007463705F6F6F735F9C
:10C78000696E736572745F7365676D656E743A2068
:10C79000696E76616C6964206373656700000000F0
:10C7A000417373657274696F6E202225732220664F
:10C7B00061696C6564206174206C696E6520256414
:10C7C00020696E2025730A00EC0000242DE9F84F43
:10C7D000044600BF002C08D100BFA7A340F2E142ED
:10C7E000B2A1B8A0F9F752FC00BF00BF00BF207D86
:10C7F000012808D100BFA0A340F2E342BBA1B1A031
:10C80000F9F744FC00BF00BFC2480068A04202D153
:10C810000020BDE8F88FB4F86000B4F848108842F2
:10C8200002DAB4F8600001E0B4F848008146E56E31
:10C8300045B9A07E00F0020018B1204602F01AFEB1
:10C84000E7E710E1221D2146204602F0FBFC0746E7
:10C8500017B96FF00300DCE70CB1206858B90FB1CD
:10C86000381D00E00020014611B96FF00300D0E749
:10C870000868206000BFE9684868FBF7F5FE616C56
:10C88000401A29890844484519D9B4F86000484538
:10C890000CD1206F50B994F8990038B9002004F8F1
:10C8A000980F012060700020A070983CA07E00F0DE
:10C8B000020018B1204602F0DDFDAAE7D3E0002017
:10C8C00084F89900266F26B100E0366830680028A9
:10C8D000FBD1B5E000BFE9688889FBF7D2FE00F024
:10C8E000040040B100BF64A340F236528AA175A093
:10C8F000F9F7CCFB00BF00BF206FA0B1A07E00F015
:10C90000440080B9E06E38B1E06E006858B9E06E5E
:10C910000089618E884206DAB4F8640018B1B4F870
:10C920006600092801DB012000E0002020B9A07E7C
:10C9300000F0A00000B98FE0207D022807D0102071
:10C94000FBF79FFEE96889890843E96888813A46D0
:10C950002146284600F0FCFA0090009838B100BF4C
:10C96000608B40F08000608300BF009851E728682A
:10C97000E066207D022806D000BF608B4FF6FC7178
:10C980000840608300BFE9684868FBF76DFE804699
:10C99000E9688889FBF775FE00F0030008B1012003
:10C9A00000E000202989084408EB000A206DB0EB64
:10C9B0000A0001D5C4F850A0E9688889FBF761FE38
:10C9C00000F0030008B1012000E00020298908449C
:10C9D00088B300202860206F10B925672E462EE00E
:10C9E000E9684868FBF740FE8046F1684868FBF755
:10C9F0003BFEB8EB00001BD504F1700801E0D8F84D
:10CA00000080D8F8000068B1D8F80010C9684868FC
:10CA1000FBF72AFE8346E9684868FBF725FEBBEB77
:10CA20000000ECD4D8F800002860C8F8005006E0F8
:10CA30003560366803E0FFE7284602F001FDE56E49
:10CA400055B1E9684868FBF70FFE616C401A298907
:10CA5000084448457FF63EAF00BFE06E10B90020A5
:10CA6000A4F8680000BF00BF608B4FF67F710840DC
:10CA7000608300BF0020CCE62E2E2F4D6964646CCD
:10CA80006577617265732F54686972645F50617273
:10CA900074792F4C7749502F7372632F636F7265CF
:10CAA0002F7463705F6F75742E6300007463705F22
:10CAB0006F75747075743A20696E76616C69642064
:10CAC00070636200417373657274696F6E20222512
:10CAD0007322206661696C6564206174206C696EE4
:10CAE0006520256420696E2025730A00646F6E2717
:10CAF000742063616C6C207463705F6F7574707503
:10CB00007420666F72206C697374656E2D70636239
:10CB10007300000000010024525354206E6F7420F3
:10CB200065787065637465642068657265210000CE
:10CB30002DE9FF4104460E461746984600BF002CDB
:10CB400008D100BF10A340F242721CA125A0F9F742
:10CB50009DFA00BF00BF608D1023218BE28ACDE9D2
:10CB600001130092039043463A463146606A00F052
:10CB70004DF805461DB1618D606A0844E0622846A3
:10CB800004B0BDE8F08100002E2E2F4D6964646C66
:10CB90006577617265732F54686972645F50617262
:10CBA00074792F4C7749502F7372632F636F7265BE
:10CBB0002F7463705F6F75742E6300007463705F11
:10CBC0006F75747075745F616C6C6F635F686561BD
:10CBD0006465723A20696E76616C69642070636284
:10CBE00000000000417373657274696F6E20222526
:10CBF0007322206661696C6564206174206C696EC3
:10CC00006520256420696E2025730A002DE9F05FF8
:10CC100082460D4617469846DDF830B005F11400FF
:10CC2000384481B24FF420722220FCF767FD06469B
:10CC3000002E34D000BF718905F11400814208DA5A
:10CC400000BF18A340F2237223A12FA0F9F71EFA08
:10CC500000BF00BF74680A98FBF713FD20800B9893
:10CC6000FBF70FFD6080C4F804805046FBF7FCFC26
:10CC7000A060A946E91705EB91718910491D4FF68F
:10CC8000FF7202EA013141EA0B00FBF7FAFCA081D6
:10CC90000D98FBF7F6FCE081002020826082304690
:10CCA000BDE8F09F2E2E2F4D6964646C657761722C
:10CCB00065732F54686972645F50617274792F4C88
:10CCC0007749502F7372632F636F72652F7463708F
:10CCD0005F6F75742E630000636865636B20746812
:10CCE0006174206669727374207062756620636176
:10CCF0006E20686F6C642073747275637420746343
:10CD0000705F686472000000417373657274696FCC
:10CD10006E2022257322206661696C65642061742F
:10CD2000206C696E6520256420696E2025730A00D9
:10CD30002DE9FE4F04460E4692469B4600BF002E4C
:10CD400008D100BF17A340F2877223A12DA0F9F7E5
:10CD50009DF900BF00BF5A465146204602F072FAC4
:10CD6000054615B96FF0030715E024B194F80B8060
:10CD700094F80A9003E04FF0FF084FF000090620F6
:10CD800043465A465146CDE9009002953046FAF79F
:10CD900061FD074600BF3046FDF7EEF83846BDE8B6
:10CDA000FE8F00002E2E2F4D6964646C65776172D2
:10CDB00065732F54686972645F50617274792F4C87
:10CDC0007749502F7372632F636F72652F7463708E
:10CDD0005F6F75742E6300007463705F6F7574709D
:10CDE00075745F636F6E74726F6C5F7365676D658A
:10CDF0006E743A20696E76616C6964207062756643
:10CE000000000000417373657274696F6E20222503
:10CE10007322206661696C6564206174206C696EA0
:10CE20006520256420696E2025730A002DE9F047EE
:10CE300081460D4614469A464FF0000800BF002D6B
:10CE400008D100BF1CA340F2567228A131A0F9F707
:10CE50001DF900BF00BF6E6806F1140700BF384619
:10CE600000EB880004F0010109B1042100E0002179
:10CE7000084404F0020109B1002100E00021084447
:10CE800004F0080109B1002100E00021084404F089
:10CE9000100109B1002100E000210844B84208D087
:10CEA00000BF05A340F2757224A11AA0F9F7EEF8AD
:10CEB00000BF00BFBDE8F0872E2E2F4D6964646C63
:10CEC0006577617265732F54686972645F5061722F
:10CED00074792F4C7749502F7372632F636F72658B
:10CEE0002F7463705F6F75742E6300007463705FDE
:10CEF0006F75747075745F66696C6C5F6F70746960
:10CF00006F6E733A20696E76616C69642070627529
:10CF100066000000417373657274696F6E2022258C
:10CF20007322206661696C6564206174206C696E8F
:10CF30006520256420696E2025730A006F7074696E
:10CF40006F6E73206E6F742066696C6C6564000090
:10CF50002DE9FE4F04460D46164600BF002C08D1B1
:10CF600000BF58A34FF4B76263A16BA0F9F78EF826
:10CF700000BF00BF00BF002D08D100BF51A340F289
:10CF8000B9526FA164A0F9F781F800BF00BF00BFDC
:10CF9000002E08D100BF4BA340F2BA5270A15EA090
:10CFA000F9F774F800BF00BF204600F0F7F810B1A1
:10CFB0000020BDE8FE8F686AFBF756FBE1688860D9
:10CFC000688DFBF75EFBE168C881698D686A08447B
:10CFD000E862E06800F11407A07A00F0010068B18F
:10CFE0002A1D31464FF40670FEF750F882464AF08B
:10CFF0000170FBF739FB38603F1D00BFB5F9300009
:10D00000002801DA00202886686B38B95D4800687E
:10D010006863E1684868FBF727FBA863A08961683B
:10D020008988401A1FFA80F860684089A0EB0800E0
:10D030006168488160680089A0EB08006168088128
:10D040006168E06848600020E168088200BFE0682D
:10D050001430A17A01F0010109B1042100E000219E
:10D060000844A17A01F0020109B1002100E0002189
:10D070000844A17A01F0080109B1002100E0002173
:10D080000844A17A01F0100109B1002100E000215B
:10D090000844B84208D000BF0AA340F21C623AA17B
:10D0A0001DA0F8F7F3FF00BF00BF0621A87A8DE8A6
:10D0B0004300EB7A2A1D29466068FAF7CBFB8146CC
:10D0C000484676E72E2E2F4D6964646C6577617251
:10D0D00065732F54686972645F50617274792F4C64
:10D0E0007749502F7372632F636F72652F7463706B
:10D0F0005F6F75742E6300007463705F6F7574707A
:10D1000075745F7365676D656E743A20696E7661DC
:10D110006C69642073656700417373657274696F2D
:10D120006E2022257322206661696C65642061741B
:10D13000206C696E6520256420696E2025730A00C5
:10D140007463705F6F75747075745F7365676D6518
:10D150006E743A20696E76616C6964207063620057
:10D160007463705F6F75747075745F7365676D65F8
:10D170006E743A20696E76616C6964206E657469BC
:10D1800066000000C00000246F7074696F6E732029
:10D190006E6F742066696C6C6564000010B504469F
:10D1A00000BF002C08D100BF08A340F29A5214A17E
:10D1B0001DA0F8F76BFF00BF00BF6068807B0128EF
:10D1C00001D0012010BD0020FCE700002E2E2F4DC5
:10D1D0006964646C6577617265732F546869726401
:10D1E0005F50617274792F4C7749502F7372632F9F
:10D1F000636F72652F7463705F6F75742E630000C8
:10D200007463705F6F75747075745F7365676D6557
:10D210006E745F627573793A20696E76616C6964C9
:10D220002073656700000000417373657274696F55
:10D230006E2022257322206661696C65642061740A
:10D24000206C696E6520256420696E2025730A00B4
:10D250002DE9F041054600BF002D08D100BF28A3ED
:10D2600040F27D7233A13AA0F8F710FF00BF00BF73
:10D2700041480088002840D000204049088036E01E
:10D28000FEF76CFA074627B1012F04D0022F1FD1F9
:10D2900002E0BDE8F08128E0FEF760FA042806D13C
:10D2A00036480088801C34490988884200DDF0E750
:10D2B000FEF754FA0602FEF751FA0643B6F5067F6A
:10D2C00000DC16B94FF4067000E0304668860CE0CA
:10D2D000FEF744FA0446022C00DADAE7A01E2749DA
:10D2E000098808442549088000BF00BF00BF2348C3
:10D2F0000088214909888842C2DB00BFC9E70000D5
:10D300002E2E2F4D6964646C6577617265732F549E
:10D31000686972645F50617274792F4C7749502F3D
:10D320007372632F636F72652F7463705F696E2E03
:10D33000630000007463705F70617273656F707476
:10D340003A20696E76616C69642070636200000047
:10D35000417373657274696F6E2022257322206693
:10D3600061696C6564206174206C696E6520256458
:10D3700020696E2025730A00E0000024E8000024E4
:10D3800010B5044600BF002C09D100BF16A340F61B
:10D39000510221A127A0F8F779FE00BF10BD00BF00
:10D3A000207DF8B1207D0A281CD0207D012819D0CD
:10D3B000A06F20B1A06FFCF7DFFD0020A067606FB9
:10D3C00010B12046FEF7C0F94FF0FF302086E06E26
:10D3D00002F043F8206F02F040F80020E06620677A
:10D3E000A4F8680000BFD9E72E2E2F4D6964646C45
:10D3F0006577617265732F54686972645F506172FA
:10D4000074792F4C7749502F7372632F636F726555
:10D410002F7463702E6300007463705F7063625FCB
:10D4200070757267653A20696E76616C6964207008
:10D4300063620000417373657274696F6E20222508
:10D440007322206661696C6564206174206C696E6A
:10D450006520256420696E2025730A0070B5054695
:10D460000C4600BF002C08D100BF3AA340F683024F
:10D4700044A14BA0F8F70AFE00BF00BF00BF002D7B
:10D4800008D100BF33A340F684024FA144A0F8F7AF
:10D49000FDFD00BF00BF00BF2868A04203D128687F
:10D4A000C06828600CE0286806E0C168A14202D18B
:10D4B000E168C16002E0C0680028F6D100BF00BF8B
:10D4C0000020E06000BF2046FFF75AFF207D0A28B9
:10D4D0000FD0207D01280CD0A07E00F0010040B1CB
:10D4E00000BF608B40F00200608300BF2046FFF762
:10D4F0006DF9207D012826D000BFE06E40B100BF4D
:10D5000014A340F6930238A125A0F8F7BFFD00BF91
:10D5100000BF00BF206F40B100BF0EA340F69402D1
:10D5200037A11FA0F8F7B2FD00BF00BF00BF606FBA
:10D5300040B100BF07A340F6960238A118A0F8F743
:10D54000A5FD00BF00BF00202075E08200BF00BF26
:10D5500070BD00002E2E2F4D6964646C657761727A
:10D5600065732F54686972645F50617274792F4CCF
:10D570007749502F7372632F636F72652F746370D6
:10D580002E6300007463705F7063625F72656D6F1D
:10D5900076653A20696E76616C696420706362001A
:10D5A000417373657274696F6E2022257322206641
:10D5B00061696C6564206174206C696E6520256406
:10D5C00020696E2025730A007463705F7063625F68
:10D5D00072656D6F76653A20696E76616C6964205C
:10D5E0007063626C69737400756E73656E7420731A
:10D5F00065676D656E7473206C65616B696E67003D
:10D60000756E61636B6564207365676D656E7473B9
:10D61000206C65616B696E67000000006F6F736559
:10D6200071207365676D656E7473206C65616B69DD
:10D630006E6700002DE9FE4304460027002600BF68
:10D64000002C08D100BFE5A34FF44772F0A1F7A06A
:10D65000F8F71CFD00BF00BFFE48007800F0040092
:10D66000002845D0207D022806D1FB49206D09689D
:10D6700088421BD1012719E0F849606A096888428D
:10D6800001D1012712E0F549606A0968081A0DD432
:10D69000218D606A0844F1490968081A002805DCF0
:10D6A00000BF608B40F00200608300BF002F1DD0E0
:10D6B00000BF207D40B900BFC8A34FF44E72E8A15F
:10D6C000DAA0F8F7E3FC00BF00BFED48007840F0B7
:10D6D0000800EB49087000BF608B4FF6FE710840F0
:10D6E000608300BF6FF00D00BDE8FE830020FBE704
:10D6F000D848007800F0020068B1207D02280AD0E6
:10D70000207D032807D000BF608B40F002006083BB
:10D7100000BF0020E8E7A07E00F0100010B9D94853
:10D7200000682062002084F89B0084F89A0020465C
:10D73000FFF78EFD207D801E082875D2DFE800F0FF
:10D7400004CDF4F3F2F1F0EFC248007800F01000DD
:10D7500000286AD0BF48007800F002000028F8D006
:10D76000606C401CBC49096888425ED1BB480068B7
:10D77000401C6062606AE062B74800686064C2484A
:10D780000068C089A4F86000B4F86000A4F86200E2
:10D79000B2480068401E606504202075201DFAF71D
:10D7A000CBFA8046608E221D4146FDF76FFC6086F5
:10D7B000608E8100400041F21C12904202D9608EBE
:10D7C000400001E041F21C10814202D2608E8000D4
:10D7D0000AE0608E400041F21C11884202D9608E3E
:10D7E000400001E041F21C10A4F8480000BFB4F86A
:10D7F0006600002808DC00BF78A34FF45B72A3A189
:10D800008AA0F8F743FC00BF00BFB4F86600401ED2
:10D81000A4F86600256F95B9E56E00BF5DB900BF3D
:10D820006EA34FF45D7201E08DE231E09DA17FA017
:10D83000F8F72CFC00BF00BF2868E06601E028680C
:10D840002067284601F0FCFD206F18B94FF0FF302B
:10D85000208603E00020208684F8420000BFD4F830
:10D86000880038B100222146D4F8883020699847D2
:10D87000064600E0002600BF06F10D0010B96FF06B
:10D880000C0031E700BF608B40F00200608323E0B2
:10D890007048007800F01000F0B17B480068008804
:10D8A000794909684988844ACDE9002102906B488A
:10D8B00000688249098842187F4B1B1D6648016831
:10D8C000204601F0CFFC94F84200062804DA00203C
:10D8D0002086204601F07AFB36E25E48007800F0B0
:10D8E0001000002876D0606C401C5B490968081A5B
:10D8F00071D45949206D0968081A00286BDC04208E
:10D900002075E06F10B96FF0050623E000BFE06FEF
:10D91000806978B900BF31A34FF46A7205E0FCE179
:10D92000BCE107E17CE117E105E165A13FA0F8F763
:10D93000ADFB00BF00BF00BFE06F806938B1E16F91
:10D94000206900228B6921469847064601E06FF066
:10D950000F0600BF46B106F10D0010B12046FDF7DD
:10D9600071F86FF00C00BFE6204600F09FFA5C48AB
:10D97000008820B15A480088401E59490880608EAE
:10D980008100400041F21C12904202D9608E40009A
:10D9900001E041F21C10814202D2608E80000AE058
:10D9A000608E400041F21C11884202D9608E400016
:10D9B00001E041F21C10A4F848003148007800F062
:10D9C000200048B100BF608B40F00200608300BFC0
:10D9D000072087E09FE087E0ABE000002E2E2F4D70
:10D9E0006964646C6577617265732F5468697264E9
:10D9F0005F50617274792F4C7749502F7372632F87
:10DA0000636F72652F7463705F696E2E6300000030
:10DA10007463705F70726F636573733A20696E76BA
:10DA2000616C69642070636200000000417373657B
:10DA30007274696F6E2022257322206661696C659D
:10DA400064206174206C696E6520256420696E20F5
:10DA500025730A00F8000024F0000024EC000024E4
:10DA60007463705F696E7075743A207063622D3EE6
:10DA7000737461746520213D20434C4F534544002D
:10DA8000F9000024C0000024DC0000247063622D33
:10DA90003E736E645F71756575656C656E203E20C2
:10DAA000300000006E6F207365676D656E742074C2
:10DAB0006F206672656500000C930024F600002458
:10DAC0007063622D3E6C697374656E65722D3E6184
:10DAD000636365707420213D204E554C4C0000005E
:10DAE000F4000024207524E09948006801889848D3
:10DAF00000684088974ACDE9002002919648006866
:10DB0000964909884218934B1B1D95480168204689
:10DB100001F0A8FB0DE09348007800F0020040B14E
:10DB2000606A401E8C490968884202D1204601F093
:10DB300045F909E100BF204600F0B8F98A480078AD
:10DB400000F0200038B100BF608B40F0020060831D
:10DB500000BF07202075F7E0204600F0A7F98248B3
:10DB6000007800F02000E8B37E48007800F0100054
:10DB7000C8B37B49206D0968884239D1E06E90BBFB
:10DB800000BF608B40F00200608300BF2046FFF7BB
:10DB9000F7FB00BF00BF75480068A04205D173487D
:10DBA0000068C068714908600DE07049086806E0C7
:10DBB000C168A14202D1E168C16002E0C0680028EA
:10DBC000F6D100BF00BF0020E06000BF012068491F
:10DBD000087000BF0A20207500BF66480068E0603A
:10DBE000644801E00DE003E0046002F055FA16E03D
:10DBF00000BF608B40F00200608300BF08202075EA
:10DC00000DE05848007800F0100040B15449206DF4
:10DC10000968884203D1E06E08B90620207593E0B8
:10DC2000204600F043F95048007800F02000A0B3EF
:10DC300000BF608B40F00200608300BF2046FFF70A
:10DC40009FFB00BF00BF49480068A04205D147487C
:10DC50000068C068454908600DE04449086806E06E
:10DC6000C168A14202D1E168C16002E0C068002839
:10DC7000F6D100BF00BF0020E06000BF01203C499A
:10DC8000087000BF0A20207500BF3A480068E060B5
:10DC90003848046002F000FA00BF55E0204600F06A
:10DCA00005F93048007800F01000A8B32C49206D29
:10DCB0000968884230D1E06E70BB2046FFF760FBF8
:10DCC00000BF00BF29480068A04205D1274800686E
:10DCD000C068264908600DE02449086806E0C1686C
:10DCE000A14202D1E168C16002E0C0680028F6D11B
:10DCF00000BF00BF0020E06000BF01201C49087089
:10DD000000BF0A20207500BF1A480068E06019486B
:10DD1000046002F0C1F900BF16E0204600F0C6F82A
:10DD20001048007800F0100060B10D49206D0968BE
:10DD3000884207D1E06E28B90B48007840F0100007
:10DD40000949087000E000BF00BF0020CCE40000DB
:10DD5000DC0000240C930024EC000024F6000024D6
:10DD6000F0000024F8000024F9000024CC00002476
:10DD7000D4000024D00000242DE9F041044600BF67
:10DD8000002C0CD100BF29A340F2096233A13DA0B1
:10DD9000F8F77CF900BF6FF00F00BDE8F08100BF1D
:10DDA000A06F477BA66F0020A06700BFD4F8840057
:10DDB00040B1002332462146D4F884C02069E047B0
:10DDC000054606E0002332462146184600F0ACFE28
:10DDD000054600BFF5B907F0200028B3208DB0F547
:10DDE000066F02D0208D401C208500BFD4F884002F
:10DDF00040B100231A462146D4F884C02069E04788
:10DE0000054600E0002500BF05F10D0060B96FF088
:10DE10000C00C2E705F10D0010B96FF00C00BCE773
:10DE2000A6676FF00400B8E70020B6E72E2E2F4D4E
:10DE30006964646C6577617265732F546869726494
:10DE40005F50617274792F4C7749502F7372632F32
:10DE5000636F72652F7463702E6300007463705F6C
:10DE600070726F636573735F726566757365645F07
:10DE7000646174613A20696E76616C6964207063D4
:10DE800062000000417373657274696F6E20222511
:10DE90007322206661696C6564206174206C696E10
:10DEA0006520256420696E2025730A002DE9F05F46
:10DEB00004464FF0000900BF002C08D100BFE5A3C5
:10DEC00040F27B42F0A1F7A0F8F7E0F800BF00BFF6
:10DED00000BF207D042808DA00BFDEA340F27C42A8
:10DEE000FAA1F0A0F8F7D2F800BF00BFFE48007812
:10DEF00000F01000002870D0B4F86000A16D00EBB5
:10DF00000108FA49606D0968401A15D4F749606D37
:10DF10000968884204D1F649A06D0968401A0BD4FB
:10DF2000F349A06D096888421AD1F2480068C08997
:10DF3000B4F86010884213D9EE480068C08924F80C
:10DF4000600F608834F86019884203DAB4F8600022
:10DF5000A4F86200E54800686065E5480068A065CF
:10DF6000E349606C0968081A00284ADCE248008826
:10DF700090BBB4F86010A06D084440453AD1B4F9A4
:10DF80003000002836DBDA49606C0968884231D1FC
:10DF90004FF0010994F84300401CC0B294F84310BC
:10DFA000884204DD94F84300401C84F8430094F850
:10DFB0004300032817DD00BFB4F84800618E084411
:10DFC00080B2B4F84810884208DBB4F84800618E8B
:10DFD0000844A4F8480005E00CE02AE14FF6FF7081
:10DFE000A4F8480000BF94F84300032802DB204651
:10DFF00000F066FFB9F1000F02D1002084F8430061
:10E00000EBE0606C401CBA490968081A7ED4B84934
:10E01000206D0968081A002878DCA07E00F0040052
:10E0200060B100BF608B4FF6FB710840608300BF9A
:10E0300048346088208000206084483C00202434DC
:10E04000A077608BB4F9181000EBE10000B2A08358
:10E05000208CA7490988081A85B20020E077A448D7
:10E060000068206214F8100C243C042865DBB4F826
:10E070004800B4F84A10884227DA628B02F4006242
:10E080000AB1012200E002221146628E4A4392B296
:10E09000AA4201DD2A4602E0628E4A4392B210464D
:10E0A00000BFB4F84820024492B2B4F848309A4213
:10E0B00005DBB4F848200244A4F8482003E04FF6FA
:10E0C000FF72A4F8482000BF37E000BFB4F86A0030
:10E0D000284480B2B4F86A10884205DBB4F86A00BC
:10E0E0002844A4F86A0003E04FF6FF70A4F86A0021
:10E0F00000BFB4F86A00B4F8481088421DDB483409
:10E10000608C2188401A6084483C00E062E000BFD7
:10E11000B4F84800618E084480B2B4F848108842D0
:10E1200006DBB4F84800618E0844A4F8480003E018
:10E130004FF6FF70A4F8480000BF70A22046D4E953
:10E140001B31FDF705FA20676EA22046D4E91B13A8
:10E15000FDF7FEF9E066206F18B94FF0FF3020861A
:10E1600001E00020208600202077E06E10B900201A
:10E17000A4F86800B4F86400644909880844A4F865
:10E180006400608B00F4006018B3206F88B9E06E03
:10E1900040B1E16EC9684868FAF766FAE16C081A9E
:10E1A000002816DC00BF608B4FF2FF7108406083CF
:10E1B0000FE0216FC9684868FAF756FAE16C081A4F
:10E1C000002806DC00BF608B4FF2FF7108406083BF
:10E1D00000BF02E0204601F04DF9606B48B34449AE
:10E1E000A06B0968401A24D5A08E49490988081AED
:10E1F00007B2B4F93C00A7EBE00007B2A08F3844A7
:10E2000000B2A087002F01DA784207B2B4F93E00CD
:10E21000A7EBA00007B2E08F384400B2E087E08FA0
:10E22000B4F93C1000EBE10000B2A4F8400000207B
:10E2300060633148008800286CDD207D072869DA9A
:10E240002A48616A0068401C081A7CD42748616A21
:10E25000006860E02E2E2F4D6964646C65776172F2
:10E2600065732F54686972645F50617274792F4CC2
:10E270007749502F7372632F636F72652F746370C9
:10E280005F696E2E630000007463705F7265636582
:10E290006976653A20696E76616C696420706362A4
:10E2A00000000000417373657274696F6E2022254F
:10E2B0007322206661696C6564206174206C696EEC
:10E2C0006520256420696E2025730A007463705FE1
:10E2D000726563656976653A2077726F6E67207341
:10E2E0007461746500000000F8000024EC00002454
:10E2F000F0000024DC000024F6000024756E616349
:10E300006B656400756E73656E740000F400002424
:10E31000C0000024D4E3F74A12881044401E081AB3
:10E3200000285FDCF4484668F449606A0968A0EB9D
:10E33000010A00BFF048406860B900BFAFF2EC03CB
:10E3400040F2945200E04DE0EDA1AFF2A800F7F7E3
:10E350009DFE00BF00BF00BF4FF6FF7082450AD38D
:10E3600000BFAFF2101340F29552E9A1AFF2CC001A
:10E37000F7F78CFE00BF00BF1FFA8AF500BFDE482A
:10E3800040680089A8420ADA00BFAFF2381340F2B1
:10E390009752E3A1AFF2F400F7F778FE00BF00BF99
:10E3A000D5480089401BD449088108464068008947
:10E3B000401B1FFA80FB07E07089281A85B2A6F877
:10E3C00008B00020708136687089A842F4DB2946C5
:10E3D0003046FBF7D3FFC949606A0860C649C9687F
:10E3E00048600AE0C549606A0968081A05D500BF97
:10E3F000608B40F00200608300BFC049606A09681A
:10E40000081A7DD4218D606A0844401EBB49096802
:10E41000081A002874DCB949606A0968884270D11A
:10E42000B549C9688889FAF72CF900F0030008B1EA
:10E43000012000E00020B04909890844AD49088066
:10E44000208D0988884256DAAB49C9688889FAF76D
:10E4500018F900F0010098B1A749C9688889FAF74E
:10E4600010F900F03E052846FAF70BF9A249C968F1
:10E4700089894CF2FF02114008439F49C96888818D
:10E48000208D9D490881C9688889FAF7FAF800F05B
:10E49000020020B198480089401E97490881964A99
:10E4A00011895068FBF768FE9349C9688889FAF7B3
:10E4B000E8F800F0030008B1012000E000208E49D8
:10E4C000098908448B49088000BF218D606A08448F
:10E4D0008A490968874A1288114488420AD000BFD5
:10E4E000AFF2902340F2CB5291A1AFF24820F7F760
:10E4F000CDFD00BF00BF606F002816D07E4901E04F
:10E50000DAE2D3E1C9688889FAF7BBF800F00100C4
:10E5100060B107E0656F606F00686067284600F0D3
:10E520008FFF00BF606F0028F4D187E0656F2EE099
:10E53000E9688889FAF7A5F800F0010008B36E4988
:10E54000C9688889FAF79DF800F00200C8B901206F
:10E55000FAF797F86849C968898908436649C9681C
:10E5600088816549C9688889FAF78BF800F003004B
:10E5700008B1012000E000205F49098908445D4995
:10E5800008802E462D68304600F05AFF00BF55B176
:10E59000E86840682989084458490968554A12883A
:10E5A0001144081AC4D5002D46D05448006851497A
:10E5B00009880844E9684968401A00283CDDE86891
:10E5C00080884E490988401A4B490881C968888962
:10E5D000FAF757F800F0020020B147480089401EC2
:10E5E00045490881444A11895068FBF7C5FD4249F5
:10E5F000C9688889FAF745F800F0030008B10120DE
:10E6000000E000203C49098908443A49088000BFDD
:10E610003A48006809880844E968496888420AD08D
:10E6200000BFAFF2D03340F2FC524FA1AFF28C30BA
:10E63000F7F72CFD00BF00BF656700BF2F480068DB
:10E640002C4909880844606200BF208D2949098847
:10E6500088420ADA00BFAFF2044340F2076251A1D8
:10E66000AFF2C030F7F712FD00BF00BF208D214987
:10E670000988401A2085204601F0E8FD1E484068C0
:10E680000089002806DD1C4840684E4908600020CB
:10E69000194948601849C9688889F9F7F2FF00F0FC
:10E6A000010028B14848007840F020004649087031
:10E6B000DAE0656F606FC068406810490860E9681B
:10E6C0008889F9F7DEFF00F0030008B1012000E0BF
:10E6D000002029890844616A0844606200BFE96833
:10E6E0008889F9F7CEFF00F0030008B101206EE041
:10E6F0006CE00000F6000024D4C10024EC000024EB
:10E70000696E7365672E7020213D204E554C4C007C
:10E71000696E73616E65206F6666736574210000B3
:10E720007062756620746F6F2073686F7274210059
:10E730007463705F726563656976653A20736567B7
:10E740006D656E74206E6F74207472696D6D656492
:10E7500020636F72726563746C7920746F207263CA
:10E76000765F776E640A00007463705F726563653C
:10E770006976653A207365676D656E74206E6F7497
:10E78000207472696D6D656420636F727265637465
:10E790006C7920746F206F6F73657120717565756A
:10E7A000650A00007463705F726563656976653A37
:10E7B000207463706C656E203E207263765F776EA6
:10E7C000640A0000FC000024F900002400202989CC
:10E7D0000844218D88420AD900BFAFF2885340F225
:10E7E0002B62C2A1AFF24450F7F750FC00BF00BF4C
:10E7F000E9688889F9F745FF00F0030008B10120B6
:10E8000000E0002029890844218D081A208520462F
:10E8100001F01CFD6868008900280DDDBD48006816
:10E8200028B1BC4869680068FBF740F902E0B949C3
:10E830006868086000206860E9688889F9F721FF46
:10E8400000F0010050B1B448007840F02000B24917
:10E850000870207D042801D1072020752868606792
:10E86000284600F0EDFD00BF606F30B1606FC068FA
:10E870004068616A88423FF41CAF00BFA07E00F090
:10E88000010060B100BF608B4FF6FE7108406083ED
:10E8900000BF00BF608B40F00200608305E000BF56
:10E8A000608B40F00100608300BF1DE1606F20B904
:10E8B0009A4800F06BFD6067FAE00026656FF2E0B1
:10E8C000E868406896490968884217D193480089EA
:10E8D0002989884211DD914800F058FD8246BAF13D
:10E8E000000F09D016B1C6F800A001E0C4F874A06A
:10E8F00029465046FDF7D4FED8E0D7E0A6B9E8682F
:10E90000406887490968081A0DD5844800F03EFD23
:10E910008246BAF1000F05D0C4F874A029465046CB
:10E92000FDF7BEFEC2E030E0F0684068401C7C4964
:10E930000968081A28D4E8684068401E78490968C0
:10E94000081A002820DC754800F020FD8246BAF144
:10E95000000F18D0F0684068318908447049096890
:10E96000401A002809DDF06880886D490988081A76
:10E97000308131897068FBF7FFFBC6F800A029469B
:10E980005046FDF78DFE91E000BF2E462868002816
:10E990007DD1E868406862490968081A002876DD78
:10E9A000E9688889F9F76DFE00F0010000B17DE0AB
:10E9B0005A4800F0EBFC28602868002871D0E8680D
:10E9C00040682989084456490968401A002809DD29
:10E9D000E868808852490988081A28812989686866
:10E9E000FBF7CAFB218D606A08444E4909884C4AEE
:10E9F00012681144081A002853DD2968C9688889FB
:10EA0000F9F73FFE00F0010098B12968C9688889CC
:10EA1000F9F737FE00F03E0A5046F9F732FE296852
:10EA2000C96889894CF2FF02114008432968C96806
:10EA30008881A08C218D084439490988401A2968A9
:10EA400008812A6811895068FBF796FB2968C96814
:10EA50008889F9F716FE00F0030008B1012000E0F4
:10EA600000202968098908442E49088000BF218DAB
:10EA7000606A01442A4800682A4A12881044814288
:10EA80000ED000BFAFF634034FF4DF6201E009E0BF
:10EA900007E0AFF26431AFF2F470F7F7F7FA00BFB6
:10EAA00000BF03E02D68002D7FF40AAF00BF00BF58
:10EAB000204600F0DFFC17E0204600F0DBFC13E00E
:10EAC0001749606A0968081A08D4218D606A0844E9
:10EAD000401E13490968081A002805DD00BF608B35
:10EAE00040F00200608300BFBDE8F09F7463705F78
:10EAF000726563656976653A206F6F73657120741E
:10EB000063706C656E203E207263765F776E640A78
:10EB100000000000FC000024F9000024D4C10024FF
:10EB2000EC000024F60000242DE9F04107460D46D4
:10EB300014461E4600BF002D0CD100BF0EA34FF49B
:10EB4000D36219A11FA0F7F7A1FA00BF6FF00F0061
:10EB5000BDE8F08100BF3CB12189284600F046F8AD
:10EB60002046FBF709FA04E01EB92846FBF7D2FF5E
:10EB7000EEE70020ECE700002E2E2F4D6964646C58
:10EB80006577617265732F54686972645F50617252
:10EB900074792F4C7749502F7372632F636F7265AE
:10EBA0002F7463702E6300007463705F7265637608
:10EBB0005F6E756C6C3A20696E76616C696420706A
:10EBC00063620000417373657274696F6E20222561
:10EBD0007322206661696C6564206174206C696EC3
:10EBE0006520256420696E2025730A002DE9F04117
:10EBF00004460F4600BF002C0AD100BF1CA340F200
:10EC0000CF3227A12CA0F7F741FA00BFBDE8F08171
:10EC100000BF00BF207D012808D100BF14A340F22F
:10EC2000D2322FA124A0F7F731FA00BF00BF208D08
:10EC3000384485B2B5F5066F02DC208DA84203DDAD
:10EC40004FF40660208500E02585204601F0FEFA9D
:10EC50000646B6F5067F08D300BF608B40F0020081
:10EC6000608300BF2046FDF7B1FD00BFCEE7000086
:10EC70002E2E2F4D6964646C6577617265732F5415
:10EC8000686972645F50617274792F4C7749502FB4
:10EC90007372632F636F72652F7463702E6300004D
:10ECA0007463705F7265637665643A20696E76613D
:10ECB0006C69642070636200417373657274696F7C
:10ECC0006E2022257322206661696C656420617460
:10ECD000206C696E6520256420696E2025730A000A
:10ECE000646F6E27742063616C6C207463705F7254
:10ECF000656376656420666F72206C697374656EF7
:10ED00002D7063627300000070B506460D4600BFAB
:10ED1000002D07D100BF09A3FF2214A11DA0F7F702
:10ED2000B5F900BF00BF344605E0E06FA84201D14D
:10ED30000020E067E468002CF7D170BD2E2E2F4D27
:10ED40006964646C6577617265732F546869726475
:10ED50005F50617274792F4C7749502F7372632F13
:10ED6000636F72652F7463702E6300007463705F4D
:10ED700072656D6F76655F6C697374656E65723A06
:10ED800020696E76616C6964206C697374656E6568
:10ED900072000000417373657274696F6E202225E2
:10EDA0007322206661696C6564206174206C696EF1
:10EDB0006520256420696E2025730A002DE9F04145
:10EDC000044600BF002C08D100BF20A340F2C1625E
:10EDD0002BA131A0F7F75AF900BF00BF206F18B977
:10EDE0006FF00500BDE8F081256F2846FEF7D6F9E3
:10EDF00010B16FF00500F5E72868206704F16C0694
:10EE000000E03668306858B13168C9684868F9F779
:10EE10002BFC0746E9684868F9F726FC381AF0D455
:10EE2000306828603560286810B90020A4F86800B0
:10EE300094F84200FF2804DA94F84200401C84F859
:10EE400042000020606300BFCCE700002E2E2F4D53
:10EE50006964646C6577617265732F546869726464
:10EE60005F50617274792F4C7749502F7372632F02
:10EE7000636F72652F7463705F6F75742E6300002B
:10EE80007463705F7265786D69743A20696E76613B
:10EE90006C69642070636200417373657274696F9A
:10EEA0006E2022257322206661696C65642061747E
:10EEB000206C696E6520256420696E2025730A0028
:10EEC00010B5044600BF002C08D100BF20A340F2BB
:10EED000F9622CA133A0F7F7D9F800BF00BF206F6B
:10EEE000A0B3A07E00F0040080BB2046FFF766FFC1
:10EEF00060BBB4F84810B4F86020914202DAB4F86C
:10EF0000481001E0B4F86010084601EBD071C1F37D
:10EF10004F01A4F84A10B4F84A00618E49008842B3
:10EF200004D2608E4004000CA4F84A00B4F84A00F1
:10EF3000618E032202FB0100A4F8480000BF608B31
:10EF400040F00400608300BF0020208610BD000058
:10EF50002E2E2F4D6964646C6577617265732F5432
:10EF6000686972645F50617274792F4C7749502FD1
:10EF70007372632F636F72652F7463705F6F757444
:10EF80002E6300007463705F7265786D69745F66EC
:10EF90006173743A20696E76616C69642070636293
:10EFA00000000000417373657274696F6E20222542
:10EFB0007322206661696C6564206174206C696EDF
:10EFC0006520256420696E2025730A0010B504466B
:10EFD00000BF002C08D100BF08A340F2AD6214A10D
:10EFE0001AA0F7F753F800BF00BF204600F09EF8C4
:10EFF00010B9204600F03EF810BD00002E2E2F4D17
:10F000006964646C6577617265732F5468697264B2
:10F010005F50617274792F4C7749502F7372632F50
:10F02000636F72652F7463705F6F75742E63000079
:10F030007463705F7265786D69745F72746F3A2083
:10F04000696E76616C6964207063620041737365F8
:10F050007274696F6E2022257322206661696C6567
:10F0600064206174206C696E6520256420696E20BF
:10F0700025730A0010B5044600BF002C08D100BF5C
:10F080000AA34FF4D36216A11EA0F6F7FFFF00BF3C
:10F0900000BF94F84200FF2804DA94F84200401CB4
:10F0A00084F842002046FDF791FB10BD2E2E2F4D17
:10F0B0006964646C6577617265732F546869726402
:10F0C0005F50617274792F4C7749502F7372632FA0
:10F0D000636F72652F7463705F6F75742E630000C9
:10F0E0007463705F7265786D69745F72746F5F636B
:10F0F0006F6D6D69743A20696E76616C6964207019
:10F1000063620000417373657274696F6E2022251B
:10F110007322206661696C6564206174206C696E7D
:10F120006520256420696E2025730A0070B50446A9
:10F1300000BF002C08D100BF22A340F263622EA1C1
:10F1400036A0F6F7A3FF00BF00BF206F10B96FF025
:10F15000050070BD256F07E02846FEF71FF810B1C7
:10F160006FF00500F5E72D6828680028F4D12846DF
:10F17000FEF714F810B16FF00500EAE7E06E2860C2
:10F18000206FE0660020206700BF608B40F40060C5
:10F19000608300BFE9684868F9F766FA0646E968DF
:10F1A0008889F9F76EFA00F0030008B1012000E049
:10F1B0000020298908443044E0640020606300BFD7
:10F1C000C7E700002E2E2F4D6964646C657761726D
:10F1D00065732F54686972645F50617274792F4C43
:10F1E0007749502F7372632F636F72652F7463704A
:10F1F0005F6F75742E6300007463705F7265786D65
:10F2000069745F72746F5F707265706172653A20C5
:10F21000696E76616C696420706362004173736526
:10F220007274696F6E2022257322206661696C6595
:10F2300064206174206C696E6520256420696E20ED
:10F2400025730A0070B504460E4615462CB1207A87
:10F2500018B1207AF9F702FF70BD2846F8F76CFD67
:10F26000FAE700002DE9F04F85B083460F4690463F
:10F270001D46DDF8389000BF002D08D100BF1EA349
:10F2800040F2C47229A130A0F6F700FF00BF00BF12
:10F2900000BFB9F1000F08D100BF17A340F2C5723B
:10F2A00033A129A0F6F7F2FE00BF00BF002646F208
:10F2B000080A3846F9F7D8F914220490DDE90F015D
:10F2C0008DE80704002231464046049BFDF79EFC72
:10F2D000044614B905B0BDE8F08F3346002221463C
:10F2E0005846FDF7A3FD4B462A4621465846FDF7F2
:10F2F0001FFD00BFEEE700002E2E2F4D6964646CE9
:10F300006577617265732F54686972645F506172CA
:10F3100074792F4C7749502F7372632F636F726526
:10F320002F7463705F6F75742E6300007463705F79
:10F330007273743A20696E76616C6964206C6F63D5
:10F34000616C5F6970000000417373657274696F6E
:10F350006E2022257322206661696C6564206174C9
:10F36000206C696E6520256420696E2025730A0073
:10F370007463705F7273743A20696E76616C69644D
:10F380002072656D6F74655F6970000070B5054629
:10F3900000BF002D08D100BF0CA340F2826217A16C
:10F3A0001DA0F6F773FE00BF00BF0320F9F7ECFDC8
:10F3B00004460CB9002070BD95E80F0084E80F00EA
:10F3C0006068FAF78DFF2046F5E700002E2E2F4DDE
:10F3D0006964646C6577617265732F5468697264DF
:10F3E0005F50617274792F4C7749502F7372632F7D
:10F3F000636F72652F7463702E6300007463705FB7
:10F400007365675F636F70793A20696E76616C69C6
:10F410006420736567000000417373657274696FDF
:10F420006E2022257322206661696C6564206174F8
:10F43000206C696E6520256420696E2025730A00A2
:10F4400010B5044644B1606810B16068FAF794FDE5
:10F4500021460320F9F72AFD10BD70B5044605E0EA
:10F4600025682046FFF7ECFF2C4600BF002CF7D1A3
:10F4700070BD00002DE9F04704460025A94600BFF5
:10F48000002C08D100BF2CA340F2EA7237A13FA0A4
:10F49000F6F7FCFD00BF00BF05F0010008B1042035
:10F4A00000E0002005F0020109B1002100E0002188
:10F4B000084405F0080109B1002100E000210844DA
:10F4C00005F0100109B1002100E0002100EB010866
:10F4D000206DF9F7C9F8824653460022414620467E
:10F4E000FDF726FB06464EB900BF608B40F00300D7
:10F4F000608300BF6FF00100BDE8F0874B462A46ED
:10F5000031462046FDF792FC231D22463146204617
:10F51000FDF70EFC07462FB100BF608B40F00300E3
:10F52000608306E000BF608B4FF6FC71084060838B
:10F5300000BF3846E0E700002E2E2F4D6964646C52
:10F540006577617265732F54686972645F50617288
:10F5500074792F4C7749502F7372632F636F7265E4
:10F560002F7463705F6F75742E6300007463705F37
:10F5700073656E645F656D7074795F61636B3A206B
:10F58000696E76616C6964207063620041737365B3
:10F590007274696F6E2022257322206661696C6522
:10F5A00064206174206C696E6520256420696E207A
:10F5B00025730A0070B5044600BF002C08D100BFB7
:10F5C00016A340F2EB3222A128A0F6F75FFD00BFA0
:10F5D00000BFE06EE8B1E56E00E02D682868002805
:10F5E000FBD1E9688889F9F74CF800F0070078B991
:10F5F0000120F9F746F8E96889890843E9688881B4
:10F6000000BF608B40F02000608300BF002070BD11
:10F6100000BF01212046FBF7A3FDF8E72E2E2F4D5A
:10F620006964646C6577617265732F54686972648C
:10F630005F50617274792F4C7749502F7372632F2A
:10F64000636F72652F7463705F6F75742E63000053
:10F650007463705F73656E645F66696E3A20696E8D
:10F6600076616C69642070636200000041737365A9
:10F670007274696F6E2022257322206661696C6541
:10F6800064206174206C696E6520256420696E2099
:10F6900025730A002DE9F04F85B04FF00009E948C5
:10F6A0000068401CE7490860E7480078401CE649CC
:10F6B000087000BF0025E5480468E3E200BF207D34
:10F6C000002808D100BFE2A340F2BE42ECA1F7A09F
:10F6D000F6F7DCFC00BF00BF00BF207D012808D189
:10F6E00000BFDBA340F2BF42FAA1F0A0F6F7CEFCC8
:10F6F00000BF00BF00BF207D0A2808D100BFD4A3EF
:10F700004FF49862FEA1E9A0F6F7C0FC00BF00BF6D
:10F71000A07FCD490978884202D12546E468B1E24C
:10F72000C9480078A0770026B046207D022806D17F
:10F7300094F84200062802DB701CC6B2D1E094F8AF
:10F7400042000C2802DB701CC6B2CAE094F8990093
:10F7500000285DDD00BF206F002808D000BFBCA3DB
:10F7600040F2D442F2A1D1A0F6F790FC00BF00BF56
:10F7700000BFE06E002808D100BFB5A340F2D5421B
:10F78000F8A1CAA0F6F782FC00BF00BF94F89A0067
:10F790000C2802DB701CC6B2A3E094F89900401E4E
:10F7A000FE490F5C94F89800B84204DA94F8980087
:10F7B000401C84F8980094F89800B84227DB4FF07A
:10F7C000010AB4F8600030B9204600F0CBFD70B1FA
:10F7D0004FF0000A0BE0B4F86010204600F0F4FA95
:10F7E00028B92046FCF7F2FF08B94FF0000ABAF139
:10F7F000000F0BD0002084F8980094F89900072897
:10F8000004D294F89900401C84F8990000BF68E085
:10F81000B4F93000002809DBB4F9300047F6FF7175
:10F82000884203DA208E401C00B22086B4F93000F2
:10F83000B4F94010884254DB2046FFF777FC18B13A
:10F84000206F70BBE06E60B3207D02281ED094F85C
:10F8500042200C2A02D294F8422000E00C221146E9
:10F86000B4F93E20B4F93C3002EBE302CC4B5B5CD4
:10F8700002FA03F047F6FF72904201DA024601E015
:10F8800047F6FF7212B2A4F8402000BF0020208685
:10F89000B4F84800B4F86010884203DAB4F84800BD
:10F8A00002E01EE0B4F86000049004984010A4F850
:10F8B0004A00B4F84A00618E4FF6FF7202EA410135
:10F8C000884205DA608E114601EA4000A4F84A0039
:10F8D000608EA4F848000020A4F86A002046FFF7D4
:10F8E000C9FB207D06280BD1A07E00F0100038B1A6
:10F8F0005449206A0968081A282801D9701CC6B220
:10F90000607A00F00800D0B3207D042802D0207D6A
:10F91000072834D1A349D4F8940008444FF4FA716D
:10F92000B0FBF1F0474A216A1268511A884206D2A8
:10F93000701CC6B208F1010000F0FF081FE094F847
:10F940009B1042F29F4211FB02F1D4F8940000EBAD
:10F95000C1004FF4FA71B0FBF1F03A4A216A126823
:10F96000511A88420BD22046FCF7B6FB8146B9F10A
:10F97000000F04D194F89B00401C84F89B00606F3A
:10F9800068B13049206A0968081AB4F9401001EBDF
:10F990004101B0EB410F02D32046FBF7D5FE207D9D
:10F9A000032807D12749206A0968081A282801D99D
:10F9B000701CC6B2207D092807D12249206A096837
:10F9C000081AF02801D9701CC6B2002E37D0D4F81E
:10F9D00090A02046FDF7D4FC8DB100BF1B48006805
:10F9E000844208D100BF1AA340F26D526EA12FA02D
:10F9F000F6F74CFB00BF00BFE068E86011E000BF15
:10FA000012480068A04208D000BF11A340F2715212
:10FA100070A126A0F6F73AFB00BF00BF0B49E068D3
:10FA20000860B8F1000F0BD0208BE18A221DCDE9D0
:10FA30000021029023462046626A216DE0E0FBE04F
:10FA4000E0E00000C0000024D6000024CC00002428
:10FA50002E2E2F4D6964646C6577617265732F5427
:10FA6000686972645F50617274792F4C7749502FC6
:10FA70007372632F636F72652F7463702E6300005F
:10FA80007463705F736C6F77746D723A2061637426
:10FA9000697665207063622D3E7374617465202100
:10FAA0003D20434C4F5345440A00000041737365A9
:10FAB0007274696F6E2022257322206661696C65FD
:10FAC00064206174206C696E6520256420696E2055
:10FAD00025730A007463705F736C6F77746D723A8C
:10FAE00020616374697665207063622D3E73746172
:10FAF000746520213D204C495354454E0A000000B6
:10FB00007463705F736C6F77746D723A20616374A5
:10FB1000697665207063622D3E737461746520217F
:10FB20003D2054494D452D574149540A00000000DD
:10FB30007463705F736C6F7774696D723A2070656F
:10FB40007273697374207469636B696E6720776977
:10FB5000746820696E2D666C6967687420646174CE
:10FB6000610000007463705F736C6F7774696D720D
:10FB70003A2070657273697374207469636B696E7F
:10FB800067207769746820656D7074792073656E7D
:10FB9000642062756666657200000000A9090108AC
:10FBA0009C090108B84C0A007463705F736C6F772E
:10FBB000746D723A206D6964646C652074637020A2
:10FBC000213D207463705F6163746976655F706363
:10FBD000627300007463705F736C6F77746D723A58
:10FBE00020666972737420706362203D3D207463E7
:10FBF000705F6163746976655F70636273000000B3
:10FC0000FFF730FBD4F810B0207D03902746E4685E
:10FC10003846FBF753FC00204849087000BFBAF192
:10FC2000000F03D06FF00C015846D04700BF434887
:10FC3000007800B13EE524E02546E468287F401CBA
:10FC40002877287F697F88421BDB002028773B4983
:10FC5000087000BFD5F88C0030B12946D5F88C204B
:10FC600028699047814601E04FF0000900BF334802
:10FC7000007800B11EE5B9F1000F02D12846FCF76B
:10FC8000A5FD00BF002C7FF419AD00252C480468A9
:10FC90004EE000BF207D0A280AD000BFAFF25023FB
:10FCA00040F2A15227A1AFF2FC10F6F7EFF900BF26
:10FCB00000BF00262F49206A0968081AF02801D9D8
:10FCC000701CC6B2002E31D02046FDF759FB9DB105
:10FCD00000BF1B48006884420AD100BFAFF29023E6
:10FCE00040F2AF5224A1AFF23C20F6F7CFF900BFAB
:10FCF00000BFE068E86013E000BF11480068A04260
:10FD00000AD000BFAFF2B82340F2B35224A1AFF241
:10FD10006420F6F7BBF900BF00BF0949E06808603E
:10FD20002746E4683846FBF7C9FB01E02546E4684E
:10FD3000002CAED105B0BDE8F08F0000D400002447
:10FD4000D00000247463705F736C6F77746D723AC7
:10FD50002054494D452D57414954207063622D3E32
:10FD60007374617465203D3D2054494D452D5741C4
:10FD700049540000C00000247463705F736C6F7797
:10FD8000746D723A206D6964646C652074637020D0
:10FD9000213D207463705F74775F7063627300004D
:10FDA0007463705F736C6F77746D723A20666972FA
:10FDB000737420706362203D3D207463705F7477BC
:10FDC0005F706362730000002DE9F04F85B0054657
:10FDD0000E4600270024A34600BF002D08D100BF17
:10FDE00079A340F24B3285A18DA0F6F74FF900BF01
:10FDF00000BFEC6E24B94FF0FF3005B0BDE8F08FC6
:10FE0000002E0CD100BF00BF6FA340F253328EA171
:10FE100083A0F6F73BF900BF00BFB01FEDE72089D4
:10FE2000B04201DC0020E8E700BF688EB04208DA8B
:10FE300000BF65A340F25B328CA179A0F6F726F9EA
:10FE400000BF00BF00BF2089002808DC00BF5EA300
:10FE50004FF4577289A172A0F6F718F900BF00BFDE
:10FE600094F80A8008F0010008B1042000E00020A6
:10FE700008F0020109B1002100E00021084408F067
:10FE8000080109B1002100E00021084408F0100138
:10FE900009B1002100E00021084404902089801B62
:10FEA0001FFA80FA0498504481B24FF42072362031
:10FEB000F9F724FC8346BBF1000F00D16EE06068C7
:10FEC00000892189401A304480B20290DBF8043066
:10FED000049A991860685246029BF9F7ADFF5045A5
:10FEE00000D05BE0E1688889F8F7CBFB00F03F09C0
:10FEF0000020039009F0080028B129F008090398B0
:10FF000040F00800039009F0010028B129F0010930
:10FF1000039840F001000390E1684868F8F7A4FBFB
:10FF200030440346CDE9008059462846039AFAF743
:10FF3000C3FF074607B931E06068F9F75FFE35F89F
:10FF4000661F081A288062681289A2EB0A0291B221
:10FF50006068FAF711F92089A0EB0A002081484671
:10FF6000F8F78FFBE16889890843E1688881606858
:10FF7000F9F744FE2988084428807868F9F73EFE9E
:10FF80002988084425F866092068386027603868A1
:10FF900010B90020A5F8680000202EE700BF47B187
:10FFA00000BF09A34FF4767238A11DA0F6F76EF8D2
:10FFB00000BF00BFBBF1000F02D05846F9F7DCFFCD
:10FFC0004FF0FF3019E700002E2E2F4D6964646C4E
:10FFD0006577617265732F54686972645F506172EE
:10FFE00074792F4C7749502F7372632F636F72654A
:10FFF0002F7463705F6F75742E6300007463705F9D
:020000040801F1
:1000000073706C69745F756E73656E745F7365672A
:100010003A20696E76616C6964207063620000004A
:10002000417373657274696F6E2022257322206696
:1000300061696C6564206174206C696E652025645B
:1000400020696E2025730A0043616E277420737047
:100050006C6974207365676D656E7420696E746F6A
:10006000206C656E677468203000000073706C69E6
:1000700074203C3D206D737300000000757365674C
:100080002D3E6C656E203E203000000073656720B9
:100090003D3D204E554C4C0010B50948006868B9EC
:1000A0000848006810B90848006838B101200449C0
:1000B000086000220549FA20FAF7D2FA10BD0000C4
:1000C0000C010024CC000024D0000024D504010839
:1000D0003EB504462948007800F0040000B13EBD5A
:1000E00000BF002C08D100BF25A340F2EE2231A1B1
:1000F00038A0F5F7CBFF00BF00BF2048007800F024
:10010000020018B33D49606A0968081A26D4218D97
:10011000606A084439490968081A00281EDC384812
:1001200000680088364909684988364ACDE90021C7
:10013000029032480068344909884218314B1B1D2F
:10014000324801682046FFF78DF8C8E70B48007871
:1001500000F0010010B12E48006820622A48008893
:10016000002808DD00BF608B40F00200608300BF04
:100170002046FCF72BFB00BFB1E70000F80000248D
:100180002E2E2F4D6964646C6577617265732F54F0
:10019000686972645F50617274792F4C7749502F8F
:1001A0007372632F636F72652F7463705F696E2E55
:1001B000630000007463705F74696D6577616974D2
:1001C0005F696E7075743A20696E76616C6964203F
:1001D00070636200417373657274696F6E202225CB
:1001E0007322206661696C6564206174206C696E9D
:1001F0006520256420696E2025730A00EC00002428
:10020000DC0000240C930024F6000024F0000024FD
:10021000C000002410B5FBF703F906480078401C25
:10022000C0B20449087000F0010008B1FFF732FACB
:1002300010BD0000D50000240348007840F01000F5
:100240000149087070470000F900002470B50446A9
:1002500000BF002C08D100BF1CA340F2A63227A18A
:100260002FA0F5F713FF00BF00BF218D606A45186E
:10027000608EE16AB0F5866F02DD4FF4866000E0C3
:10028000608E0844281A04D4208D6085E06A281AFC
:1002900070BDE16A606A401A002802DD00206085B6
:1002A00012E0616AE06A461A00BFB6F5803F08D3E3
:1002B00000BF06A340F2B63223A119A0F5F7E6FE6F
:1002C00000BF00BF668500BF0020E1E72E2E2F4D46
:1002D0006964646C6577617265732F5468697264D0
:1002E0005F50617274792F4C7749502F7372632F6E
:1002F000636F72652F7463702E6300007463705FA8
:100300007570646174655F7263765F616E6E5F774E
:100310006E643A20696E76616C6964207063620075
:10032000417373657274696F6E2022257322206693
:1003300061696C6564206174206C696E6520256458
:1003400020696E2025730A006E65775F7263765FA1
:10035000616E6E5F776E64203C3D20307866666625
:10036000660000002DE9FC5F04464FF0000A00BF64
:10037000002C08D100BF37A340F64F0242A14BA08A
:10038000F5F784FE00BF00BFE56E15B90020BDE89B
:10039000FC9F94F89A00FF2804DA94F89A00401C15
:1003A00084F89A00E9688889F8F76BF900F0010091
:1003B00018B1288908B9012000E000208146B9F170
:1003C000000F01D1012000E000208346E868436867
:1003D0005A4651462046FCF7ABFB064616B94FF08D
:1003E000FF30D4E77768B9F1000F09D01120F8F792
:1003F00048F9B9894CF2FF0211400843B8810DE079
:10040000706814300090696809892A89891A8BB24A
:10041000012268680099F9F70FFD00BFE968486894
:10042000F8F722F900F10108206DB0EB080001D5C2
:10043000C4F850805346002231462046FCF7F6FCB3
:10044000231D224631462046FCF772FC019001989C
:100450009DE700002E2E2F4D6964646C65776172F4
:1004600065732F54686972645F50617274792F4CA0
:100470007749502F7372632F636F72652F746370A7
:100480005F6F75742E6300007463705F7A65726FBE
:100490005F77696E646F775F70726F62653A20692B
:1004A0006E76616C696420706362000041737365ED
:1004B0007274696F6E2022257322206661696C65F3
:1004C00064206174206C696E6520256420696E204B
:1004D00025730A0010B50446FFF79CFE0748006824
:1004E00010B90748006828B100220649FA20FAF737
:1004F000B7F802E000200449086010BDCC000024D9
:10050000D0000024D50401080C0100242DE9FE4F81
:1005100005460E460020019000BF002D07D100BF08
:1005200061A3CF226CA172A0F5F7B0FD00BF00BFA0
:1005300000BF002E07D100BF5BA3D02276A16CA024
:10054000F5F7A4FD00BF00BF6889082803DA284634
:10055000F9F712FDA6E0D5F804A0764A11685069B3
:10056000F6F702FF8146BAF80000F8F78AF88346EA
:10057000BAF80200F8F785F8029000240027A04698
:100580006D48046838E0618A0298814232D14A4657
:100590003146204600F0E0F860B3207C00F0040013
:1005A000A8B9B8F1000F01D1A04610E0B9F1000FD1
:1005B0000DD060484069401C48B9D8F80000716807
:1005C000884204D020687168884200D1A046A08A81
:1005D00058450FD1606820B1564960680969884262
:1005E00008D137B1E068F86053480068E0605248CD
:1005F000046003E02746E468002CC4D100BF04B9BE
:10060000444614B10120019008E04A4970684969E4
:10061000884201D1012000E00020019001980028CB
:100620003CD008212846F9F7A9FE70B100BF00BFF1
:100630001DA34FF4B87241A12DA0F5F727FD00BF0F
:1006400000BF2846F9F798FC2CE07CB1A06948B1BE
:10065000CDF800B0374B10332A462146D4E906C006
:10066000E0471EE02846F9F787FC1BE0B9F1000FD0
:1006700010D13048007D00F0F000E0280AD02D486D
:100680008089083001B22846F9F744FD0321284645
:10069000F6F73EFC2846F9F76FFC02E02846F9F72A
:1006A0006BFC00BFBDE8FE8F2E2E2F4D6964646C7D
:1006B0006577617265732F54686972645F50617207
:1006C00074792F4C7749502F7372632F636F726563
:1006D0002F7564702E6300007564705F696E7075AD
:1006E000743A20696E76616C696420706275660088
:1006F000417373657274696F6E20222573222066C0
:1007000061696C6564206174206C696E6520256484
:1007100020696E2025730A007564705F696E7075BC
:10072000743A20696E76616C6964206E65746966DE
:1007300000000000FC920024140100247062756621
:100740005F72656D6F76655F68656164657220666E
:1007500061696C65640A000070B504460D46164672
:1007600000BF002C07D100BF1FA387222AA133A0FE
:10077000F5F78CFC00BF00BF00BF002D07D100BF04
:1007800019A3882237A12DA0F5F780FC00BF00BF78
:10079000207A50B1217A3D48406890F83000401CE2
:1007A000C0B2814201D0002070BD8EB174B120680A
:1007B00060B136484069401C40B12068A9680840D3
:1007C00032494969AA68114088420BD10120EBE700
:1007D00034B1206820B12D4920684969884201D18F
:1007E0000120E1E70020DFE72E2E2F4D6964646CC5
:1007F0006577617265732F54686972645F506172C6
:1008000074792F4C7749502F7372632F636F726521
:100810002F7564702E6300007564705F696E70756B
:10082000745F6C6F63616C5F6D617463683A2069BB
:100830006E76616C69642070636200004173736559
:100840007274696F6E2022257322206661696C655F
:1008500064206174206C696E6520256420696E20B7
:1008600025730A007564705F696E7075745F6C6FD4
:1008700063616C5F6D617463683A20696E76616C68
:100880006964206E6574696600000000FC920024B3
:1008900020060C003448002434000024010002002B
:1008A0000400060008000A000C00100020004000B0
:1008B0008000000101010103070100000804020497
:1008C0000801010100000000010203040102030409
:1008D00006070809FFFFFFFFFFFF00000000000000
:1008E00020000400149300248C0000249C000500C8
:1008F00097930024900000241C000800A696002472
:10090000940000241000100089970024980000240F
:10091000200005008C9800249C00002418000F0083
:100920002F990024A0000024100003009A9A0024AC
:10093000A400002410001000CD9A0024A800002478
:1009400060021000D09B0024AC000024E0080108E5
:10095000EC080108F8080108040901081009010859
:100960001C09010828090108340901084009010887
:10097000EC090108140A0108340A0108F409010805
:10098000E0090108C8090108D4090108280A01087A
:10099000000A0108080A01081C0A010801020304F0
:1009A00005060707070707070703060C18306078D6
:1009B000C8000024C4000024CC000024D00000247F
:1009C00000000000FFFFFFFF46494E5F57414954BA
:1009D0005F31000046494E5F574149545F32000085
:1009E00045535441424C495348454400434C4F53AE
:1009F0004544000053594E5F5243564400000000E6
:100A0000434C4F53494E47004C4153545F41434B75
:100A1000000000004C495354454E000054494D45D8
:100A20005F57414954000000434C4F53455F5741C5
:100A30004954000053594E5F53454E540000000086
:100A40007463705F656E71756575655F666C61670F
:100A5000733A206E65656420656974686572205418
:100A600043505F53594E206F72205443505F4649A4
:100A70004E20696E20666C616773202870726F6704
:100A800072616D6D65722076696F6C61746573203B
:100A900041504929000000006E657469662D3E686A
:100AA00077616464725F6C656E206D75737420622B
:100AB00065207468652073616D65206173204554FD
:100AC000485F4857414444525F4C454E20666F7220
:100AD000206574686172702100000000FC0A010842
:100AE0000000002428010000E4600008240C010834
:100AF00028010024B0010100F4600008000000009B
:100B000000000000000000000000000000000000E5
:100B100000000000000000007017000030300024CA
:100B20003030002400000000000000000000000041
:100B30000000000000000000890800087B08000891
:100B4000BD080008990800087F08000800000000A0
:100B50000000000000000000000000000000000095
:100B60000000000000000000000000001000000075
:100B7000010000000090D0030090D00300000000AE
:100B80000000000000000000000000000000000065
:100B90000000000000000000000000000000000055
:100BA0000000000000000000000000000000000045
:100BB000000000000000000000C000000000000075
:100BC0000000000000000000000000000000000025
:100BD000000000006E19000000000000000000008E
:100BE0000000000000000000000000000000000005
:100BF00000000000000000000000000000000000F5
:100C000000000000000000000000000000C0000024
:100C100000000000000000000000000000000000D4
:040C200000000000D0
:040000050800029954
:00000001FF
