Component: ARM Compiler 5.06 update 7 (build 960) Tool: armlink [4d3601]

==============================================================================

Section Cross References

    startup_stm32h743xx.o(RESET) refers to startup_stm32h743xx.o(STACK) for __initial_sp
    startup_stm32h743xx.o(RESET) refers to startup_stm32h743xx.o(.text) for Reset_Handler
    startup_stm32h743xx.o(RESET) refers to stm32h7xx_it.o(i.NMI_Handler) for NMI_Handler
    startup_stm32h743xx.o(RESET) refers to stm32h7xx_it.o(i.HardFault_Handler) for HardFault_Handler
    startup_stm32h743xx.o(RESET) refers to stm32h7xx_it.o(i.MemManage_Handler) for MemManage_Handler
    startup_stm32h743xx.o(RESET) refers to stm32h7xx_it.o(i.BusFault_Handler) for BusFault_Handler
    startup_stm32h743xx.o(RESET) refers to stm32h7xx_it.o(i.UsageFault_Handler) for UsageFault_Handler
    startup_stm32h743xx.o(RESET) refers to stm32h7xx_it.o(i.SVC_Handler) for SVC_Handler
    startup_stm32h743xx.o(RESET) refers to stm32h7xx_it.o(i.DebugMon_Handler) for DebugMon_Handler
    startup_stm32h743xx.o(RESET) refers to stm32h7xx_it.o(i.PendSV_Handler) for PendSV_Handler
    startup_stm32h743xx.o(RESET) refers to stm32h7xx_it.o(i.SysTick_Handler) for SysTick_Handler
    startup_stm32h743xx.o(RESET) refers to stm32h7xx_it.o(i.USART1_IRQHandler) for USART1_IRQHandler
    startup_stm32h743xx.o(RESET) refers to main.o(i.ETH_IRQHandler) for ETH_IRQHandler
    startup_stm32h743xx.o(RESET) refers to stm32h7xx_it.o(i.ETH_WKUP_IRQHandler) for ETH_WKUP_IRQHandler
    startup_stm32h743xx.o(.text) refers to system_stm32h7xx.o(i.SystemInit) for SystemInit
    startup_stm32h743xx.o(.text) refers to entry.o(.ARM.Collect$$$$00000000) for __main
    main.o(i.DMA_RXDescListInit) refers to main.o(i.ETH_DMA_MemMalloc) for ETH_DMA_MemMalloc
    main.o(i.DMA_RXDescListInit) refers to main.o(i.ETH_Set_DMA_RxBuff_Sizes) for ETH_Set_DMA_RxBuff_Sizes
==============================================================================

Removing Unused input sections from the image.

    Removing startup_stm32h743xx.o(HEAP), (8192 bytes).
    Removing main.o(.rev16_text), (4 bytes).
    Removing main.o(.revsh_text), (4 bytes).
    Removing main.o(.rrx_text), (6 bytes).
    Removing main.o(i.ETH_LowLevelFrameSend), (252 bytes).
    Removing main.o(i.ETH_SendCallBack), (12 bytes).
    Removing main.o(i.ETH_freshTxDescIdx), (20 bytes).
    Removing main.o(i.ETH_getActualTxDescPtr), (14 bytes).
    Removing main.o(i.ETH_wakeupTransmitter), (86 bytes).
    Removing main.o(i.Eth_TxIndication), (2 bytes).
    Removing main.o(i.__io_putchar), (24 bytes).
    Removing gpio.o(.rev16_text), (4 bytes).
    Removing gpio.o(.revsh_text), (4 bytes).
    Removing gpio.o(.rrx_text), (6 bytes).
    Removing usart.o(.rev16_text), (4 bytes).
    Removing usart.o(.revsh_text), (4 bytes).
    Removing usart.o(.rrx_text), (6 bytes).
    Removing usart.o(i.HAL_UART_MspDeInit), (56 bytes).
==============================================================================

Image Symbol Table

    Local Symbols

    Symbol Name                              Value     Ov Type        Size  Object(Section)

    ../Core/Src/gpio.c                       0x00000000   Number         0  gpio.o ABSOLUTE
    ../Core/Src/main.c                       0x00000000   Number         0  main.o ABSOLUTE
    ../Core/Src/stm32h7xx_hal_msp.c          0x00000000   Number         0  stm32h7xx_hal_msp.o ABSOLUTE
    ../Core/Src/stm32h7xx_it.c               0x00000000   Number         0  stm32h7xx_it.o ABSOLUTE
    ../Core/Src/system_stm32h7xx.c           0x00000000   Number         0  system_stm32h7xx.o ABSOLUTE
    ../Core/Src/usart.c                      0x00000000   Number         0  usart.o ABSOLUTE
    ../Drivers/BSP/Components/lan8742/lan8742.c 0x00000000   Number         0  lan8742.o ABSOLUTE
    ../Drivers/STM32H7xx_HAL_Driver/Src/stm32h7xx_hal.c 0x00000000   Number         0  stm32h7xx_hal.o ABSOLUTE
    ../Drivers/STM32H7xx_HAL_Driver/Src/stm32h7xx_hal_cortex.c 0x00000000   Number         0  stm32h7xx_hal_cortex.o ABSOLUTE
    ../Drivers/STM32H7xx_HAL_Driver/Src/stm32h7xx_hal_dma.c 0x00000000   Number         0  stm32h7xx_hal_dma.o ABSOLUTE
    ../Drivers/STM32H7xx_HAL_Driver/Src/stm32h7xx_hal_dma_ex.c 0x00000000   Number         0  stm32h7xx_hal_dma_ex.o ABSOLUTE
    ../Drivers/STM32H7xx_HAL_Driver/Src/stm32h7xx_hal_eth.c 0x00000000   Number         0  stm32h7xx_hal_eth.o ABSOLUTE
    ../Drivers/STM32H7xx_HAL_Driver/Src/stm32h7xx_hal_eth_ex.c 0x00000000   Number         0  stm32h7xx_hal_eth_ex.o ABSOLUTE
    ../Drivers/STM32H7xx_HAL_Driver/Src/stm32h7xx_hal_exti.c 0x00000000   Number         0  stm32h7xx_hal_exti.o ABSOLUTE
    ../Drivers/STM32H7xx_HAL_Driver/Src/stm32h7xx_hal_flash.c 0x00000000   Number         0  stm32h7xx_hal_flash.o ABSOLUTE
    ../Drivers/STM32H7xx_HAL_Driver/Src/stm32h7xx_hal_flash_ex.c 0x00000000   Number         0  stm32h7xx_hal_flash_ex.o ABSOLUTE
    ../Drivers/STM32H7xx_HAL_Driver/Src/stm32h7xx_hal_gpio.c 0x00000000   Number         0  stm32h7xx_hal_gpio.o ABSOLUTE
    ../Drivers/STM32H7xx_HAL_Driver/Src/stm32h7xx_hal_hsem.c 0x00000000   Number         0  stm32h7xx_hal_hsem.o ABSOLUTE
    ../Drivers/STM32H7xx_HAL_Driver/Src/stm32h7xx_hal_i2c.c 0x00000000   Number         0  stm32h7xx_hal_i2c.o ABSOLUTE
    ../Drivers/STM32H7xx_HAL_Driver/Src/stm32h7xx_hal_i2c_ex.c 0x00000000   Number         0  stm32h7xx_hal_i2c_ex.o ABSOLUTE
    ../Drivers/STM32H7xx_HAL_Driver/Src/stm32h7xx_hal_mdma.c 0x00000000   Number         0  stm32h7xx_hal_mdma.o ABSOLUTE
    ../Drivers/STM32H7xx_HAL_Driver/Src/stm32h7xx_hal_pwr.c 0x00000000   Number         0  stm32h7xx_hal_pwr.o ABSOLUTE
    ../Drivers/STM32H7xx_HAL_Driver/Src/stm32h7xx_hal_pwr_ex.c 0x00000000   Number         0  stm32h7xx_hal_pwr_ex.o ABSOLUTE
    ../Drivers/STM32H7xx_HAL_Driver/Src/stm32h7xx_hal_rcc.c 0x00000000   Number         0  stm32h7xx_hal_rcc.o ABSOLUTE
    ../Drivers/STM32H7xx_HAL_Driver/Src/stm32h7xx_hal_rcc_ex.c 0x00000000   Number         0  stm32h7xx_hal_rcc_ex.o ABSOLUTE
    ../Drivers/STM32H7xx_HAL_Driver/Src/stm32h7xx_hal_tim.c 0x00000000   Number         0  stm32h7xx_hal_tim.o ABSOLUTE
    ../Drivers/STM32H7xx_HAL_Driver/Src/stm32h7xx_hal_tim_ex.c 0x00000000   Number         0  stm32h7xx_hal_tim_ex.o ABSOLUTE
    ../Drivers/STM32H7xx_HAL_Driver/Src/stm32h7xx_hal_uart.c 0x00000000   Number         0  stm32h7xx_hal_uart.o ABSOLUTE
    ../Drivers/STM32H7xx_HAL_Driver/Src/stm32h7xx_hal_uart_ex.c 0x00000000   Number         0  stm32h7xx_hal_uart_ex.o ABSOLUTE
    ../LWIP/App/lwip.c                       0x00000000   Number         0  lwip.o ABSOLUTE
    ../LWIP/Target/ethernetif.c              0x00000000   Number         0  ethernetif.o ABSOLUTE
    ../Middlewares/Third_Party/LwIP/src/api/api_lib.c 0x00000000   Number         0  api_lib.o ABSOLUTE
    ../Middlewares/Third_Party/LwIP/src/api/api_msg.c 0x00000000   Number         0  api_msg.o ABSOLUTE
    ../Middlewares/Third_Party/LwIP/src/api/err.c 0x00000000   Number         0  err.o ABSOLUTE
    ../Middlewares/Third_Party/LwIP/src/api/if_api.c 0x00000000   Number         0  if_api.o ABSOLUTE
    ../Middlewares/Third_Party/LwIP/src/api/netbuf.c 0x00000000   Number         0  netbuf.o ABSOLUTE
    ../Middlewares/Third_Party/LwIP/src/api/netdb.c 0x00000000   Number         0  netdb.o ABSOLUTE
    ../Middlewares/Third_Party/LwIP/src/api/netifapi.c 0x00000000   Number         0  netifapi.o ABSOLUTE
    ../Middlewares/Third_Party/LwIP/src/api/sockets.c 0x00000000   Number         0  sockets.o ABSOLUTE
    ../Middlewares/Third_Party/LwIP/src/api/tcpip.c 0x00000000   Number         0  tcpip.o ABSOLUTE
    ../Middlewares/Third_Party/LwIP/src/apps/mqtt/mqtt.c 0x00000000   Number         0  mqtt.o ABSOLUTE
    ../Middlewares/Third_Party/LwIP/src/core/altcp.c 0x00000000   Number         0  altcp.o ABSOLUTE
    ../Middlewares/Third_Party/LwIP/src/core/altcp_alloc.c 0x00000000   Number         0  altcp_alloc.o ABSOLUTE
    ../Middlewares/Third_Party/LwIP/src/core/altcp_tcp.c 0x00000000   Number         0  altcp_tcp.o ABSOLUTE
    ../Middlewares/Third_Party/LwIP/src/core/def.c 0x00000000   Number         0  def.o ABSOLUTE
    ../Middlewares/Third_Party/LwIP/src/core/dns.c 0x00000000   Number         0  dns.o ABSOLUTE
    ../Middlewares/Third_Party/LwIP/src/core/inet_chksum.c 0x00000000   Number         0  inet_chksum.o ABSOLUTE
    ../Middlewares/Third_Party/LwIP/src/core/init.c 0x00000000   Number         0  init.o ABSOLUTE
    ../Middlewares/Third_Party/LwIP/src/core/ip.c 0x00000000   Number         0  ip.o ABSOLUTE
    ../Middlewares/Third_Party/LwIP/src/core/ipv4/autoip.c 0x00000000   Number         0  autoip.o ABSOLUTE
    ../Middlewares/Third_Party/LwIP/src/core/ipv4/dhcp.c 0x00000000   Number         0  dhcp.o ABSOLUTE
    ../Middlewares/Third_Party/LwIP/src/core/ipv4/etharp.c 0x00000000   Number         0  etharp.o ABSOLUTE
    ../Middlewares/Third_Party/LwIP/src/core/ipv4/icmp.c 0x00000000   Number         0  icmp.o ABSOLUTE
    ../Middlewares/Third_Party/LwIP/src/core/ipv4/igmp.c 0x00000000   Number         0  igmp.o ABSOLUTE
    ../Middlewares/Third_Party/LwIP/src/core/ipv4/ip4.c 0x00000000   Number         0  ip4.o ABSOLUTE
    ../Middlewares/Third_Party/LwIP/src/core/ipv4/ip4_addr.c 0x00000000   Number         0  ip4_addr.o ABSOLUTE
    ../Middlewares/Third_Party/LwIP/src/core/ipv4/ip4_frag.c 0x00000000   Number         0  ip4_frag.o ABSOLUTE
    ../Middlewares/Third_Party/LwIP/src/core/ipv6/dhcp6.c 0x00000000   Number         0  dhcp6.o ABSOLUTE
    ../Middlewares/Third_Party/LwIP/src/core/ipv6/ethip6.c 0x00000000   Number         0  ethip6.o ABSOLUTE
    ../Middlewares/Third_Party/LwIP/src/core/ipv6/icmp6.c 0x00000000   Number         0  icmp6.o ABSOLUTE
    ../Middlewares/Third_Party/LwIP/src/core/ipv6/inet6.c 0x00000000   Number         0  inet6.o ABSOLUTE
    ../Middlewares/Third_Party/LwIP/src/core/ipv6/ip6.c 0x00000000   Number         0  ip6.o ABSOLUTE
    ../Middlewares/Third_Party/LwIP/src/core/ipv6/ip6_addr.c 0x00000000   Number         0  ip6_addr.o ABSOLUTE
    ../Middlewares/Third_Party/LwIP/src/core/ipv6/ip6_frag.c 0x00000000   Number         0  ip6_frag.o ABSOLUTE
    ../Middlewares/Third_Party/LwIP/src/core/ipv6/mld6.c 0x00000000   Number         0  mld6.o ABSOLUTE
    ../Middlewares/Third_Party/LwIP/src/core/ipv6/nd6.c 0x00000000   Number         0  nd6.o ABSOLUTE
    ../Middlewares/Third_Party/LwIP/src/core/mem.c 0x00000000   Number         0  mem.o ABSOLUTE
    ../Middlewares/Third_Party/LwIP/src/core/memp.c 0x00000000   Number         0  memp.o ABSOLUTE
    ../Middlewares/Third_Party/LwIP/src/core/netif.c 0x00000000   Number         0  netif.o ABSOLUTE
    ../Middlewares/Third_Party/LwIP/src/core/pbuf.c 0x00000000   Number         0  pbuf.o ABSOLUTE
    ../Middlewares/Third_Party/LwIP/src/core/raw.c 0x00000000   Number         0  raw.o ABSOLUTE
    ../Middlewares/Third_Party/LwIP/src/core/stats.c 0x00000000   Number         0  stats.o ABSOLUTE
    ../Middlewares/Third_Party/LwIP/src/core/sys.c 0x00000000   Number         0  sys_1.o ABSOLUTE
    ../Middlewares/Third_Party/LwIP/src/core/tcp.c 0x00000000   Number         0  tcp.o ABSOLUTE
    ../Middlewares/Third_Party/LwIP/src/core/tcp_in.c 0x00000000   Number         0  tcp_in.o ABSOLUTE
    ../Middlewares/Third_Party/LwIP/src/core/tcp_out.c 0x00000000   Number         0  tcp_out.o ABSOLUTE
    ../Middlewares/Third_Party/LwIP/src/core/timeouts.c 0x00000000   Number         0  timeouts.o ABSOLUTE
    ../Middlewares/Third_Party/LwIP/src/core/udp.c 0x00000000   Number         0  udp.o ABSOLUTE
    ../Middlewares/Third_Party/LwIP/src/netif/bridgeif.c 0x00000000   Number         0  bridgeif.o ABSOLUTE
    ../Middlewares/Third_Party/LwIP/src/netif/bridgeif_fdb.c 0x00000000   Number         0  bridgeif_fdb.o ABSOLUTE
    ../Middlewares/Third_Party/LwIP/src/netif/ethernet.c 0x00000000   Number         0  ethernet.o ABSOLUTE
    ../Middlewares/Third_Party/LwIP/src/netif/lowpan6.c 0x00000000   Number         0  lowpan6.o ABSOLUTE
    ../Middlewares/Third_Party/LwIP/src/netif/lowpan6_ble.c 0x00000000   Number         0  lowpan6_ble.o ABSOLUTE
    ../Middlewares/Third_Party/LwIP/src/netif/lowpan6_common.c 0x00000000   Number         0  lowpan6_common.o ABSOLUTE
    ../Middlewares/Third_Party/LwIP/src/netif/ppp/auth.c 0x00000000   Number         0  auth.o ABSOLUTE
    ../Middlewares/Third_Party/LwIP/src/netif/ppp/ccp.c 0x00000000   Number         0  ccp.o ABSOLUTE
    ../Middlewares/Third_Party/LwIP/src/netif/ppp/chap-md5.c 0x00000000   Number         0  chap-md5.o ABSOLUTE
    ../Middlewares/Third_Party/LwIP/src/netif/ppp/chap-new.c 0x00000000   Number         0  chap-new.o ABSOLUTE
    ../Middlewares/Third_Party/LwIP/src/netif/ppp/chap_ms.c 0x00000000   Number         0  chap_ms.o ABSOLUTE
    ../Middlewares/Third_Party/LwIP/src/netif/ppp/demand.c 0x00000000   Number         0  demand.o ABSOLUTE
    ../Middlewares/Third_Party/LwIP/src/netif/ppp/eap.c 0x00000000   Number         0  eap.o ABSOLUTE
    ../Middlewares/Third_Party/LwIP/src/netif/ppp/ecp.c 0x00000000   Number         0  ecp.o ABSOLUTE
    ../Middlewares/Third_Party/LwIP/src/netif/ppp/eui64.c 0x00000000   Number         0  eui64.o ABSOLUTE
    ../Middlewares/Third_Party/LwIP/src/netif/ppp/fsm.c 0x00000000   Number         0  fsm.o ABSOLUTE
    ../Middlewares/Third_Party/LwIP/src/netif/ppp/ipcp.c 0x00000000   Number         0  ipcp.o ABSOLUTE
    ../Middlewares/Third_Party/LwIP/src/netif/ppp/ipv6cp.c 0x00000000   Number         0  ipv6cp.o ABSOLUTE
    ../Middlewares/Third_Party/LwIP/src/netif/ppp/lcp.c 0x00000000   Number         0  lcp.o ABSOLUTE
    ../Middlewares/Third_Party/LwIP/src/netif/ppp/magic.c 0x00000000   Number         0  magic.o ABSOLUTE
    ../Middlewares/Third_Party/LwIP/src/netif/ppp/mppe.c 0x00000000   Number         0  mppe.o ABSOLUTE
    ../Middlewares/Third_Party/LwIP/src/netif/ppp/multilink.c 0x00000000   Number         0  multilink.o ABSOLUTE
    ../Middlewares/Third_Party/LwIP/src/netif/ppp/ppp.c 0x00000000   Number         0  ppp.o ABSOLUTE
    ../Middlewares/Third_Party/LwIP/src/netif/ppp/pppapi.c 0x00000000   Number         0  pppapi.o ABSOLUTE
    ../Middlewares/Third_Party/LwIP/src/netif/ppp/pppcrypt.c 0x00000000   Number         0  pppcrypt.o ABSOLUTE
    ../Middlewares/Third_Party/LwIP/src/netif/ppp/pppoe.c 0x00000000   Number         0  pppoe.o ABSOLUTE
    ../Middlewares/Third_Party/LwIP/src/netif/ppp/pppol2tp.c 0x00000000   Number         0  pppol2tp.o ABSOLUTE
    ../Middlewares/Third_Party/LwIP/src/netif/ppp/pppos.c 0x00000000   Number         0  pppos.o ABSOLUTE
    ../Middlewares/Third_Party/LwIP/src/netif/ppp/upap.c 0x00000000   Number         0  upap.o ABSOLUTE
    ../Middlewares/Third_Party/LwIP/src/netif/ppp/utils.c 0x00000000   Number         0  utils.o ABSOLUTE
    ../Middlewares/Third_Party/LwIP/src/netif/ppp/vj.c 0x00000000   Number         0  vj.o ABSOLUTE
    ../Middlewares/Third_Party/LwIP/src/netif/slipif.c 0x00000000   Number         0  slipif.o ABSOLUTE
    ../Middlewares/Third_Party/LwIP/src/netif/zepif.c 0x00000000   Number         0  zepif.o ABSOLUTE
    ../clib/microlib/ctype/ctype.c           0x00000000   Number         0  isprint_o.o ABSOLUTE
    ../clib/microlib/ctype/ctype.c           0x00000000   Number         0  isgraph_o.o ABSOLUTE
    ../clib/microlib/ctype/ctype.c           0x00000000   Number         0  isdigit_o.o ABSOLUTE
    ../clib/microlib/ctype/ctype.c           0x00000000   Number         0  iscntrl_o.o ABSOLUTE
    ../clib/microlib/ctype/ctype.c           0x00000000   Number         0  isblank_o.o ABSOLUTE
    ../clib/microlib/ctype/ctype.c           0x00000000   Number         0  isalpha_o.o ABSOLUTE
    ../clib/microlib/ctype/ctype.c           0x00000000   Number         0  isalnum_o.o ABSOLUTE
    ../clib/microlib/ctype/ctype.c           0x00000000   Number         0  islower_o.o ABSOLUTE
    ../clib/microlib/ctype/ctype.c           0x00000000   Number         0  ctype_o.o ABSOLUTE
    ../clib/microlib/ctype/ctype.c           0x00000000   Number         0  isxdigit_o.o ABSOLUTE
    ../clib/microlib/ctype/ctype.c           0x00000000   Number         0  isupper_o.o ABSOLUTE
    ../clib/microlib/ctype/ctype.c           0x00000000   Number         0  isspace_o.o ABSOLUTE
    ../clib/microlib/ctype/ctype.c           0x00000000   Number         0  ispunct_o.o ABSOLUTE
    ../clib/microlib/division.c              0x00000000   Number         0  uldiv.o ABSOLUTE
    ../clib/microlib/division.c              0x00000000   Number         0  uidiv.o ABSOLUTE
    ../clib/microlib/errno.c                 0x00000000   Number         0  errno.o ABSOLUTE
    ../clib/microlib/init/entry.s            0x00000000   Number         0  entry7b.o ABSOLUTE
    ../clib/microlib/init/entry.s            0x00000000   Number         0  entry8a.o ABSOLUTE
    ../clib/microlib/init/entry.s            0x00000000   Number         0  entry8b.o ABSOLUTE
    ../clib/microlib/init/entry.s            0x00000000   Number         0  entry11a.o ABSOLUTE
    ../clib/microlib/init/entry.s            0x00000000   Number         0  entry9a.o ABSOLUTE
    ../clib/microlib/init/entry.s            0x00000000   Number         0  entry9b.o ABSOLUTE
    ../clib/microlib/init/entry.s            0x00000000   Number         0  entry10a.o ABSOLUTE
    ../clib/microlib/init/entry.s            0x00000000   Number         0  entry.o ABSOLUTE
    ../clib/microlib/init/entry.s            0x00000000   Number         0  entry10b.o ABSOLUTE
    ../clib/microlib/init/entry.s            0x00000000   Number         0  entry12b.o ABSOLUTE
    ../clib/microlib/init/entry.s            0x00000000   Number         0  entry7a.o ABSOLUTE
    ../clib/microlib/init/entry.s            0x00000000   Number         0  entry12a.o ABSOLUTE
    ../clib/microlib/init/entry.s            0x00000000   Number         0  entry5.o ABSOLUTE
    ../clib/microlib/init/entry.s            0x00000000   Number         0  entry2.o ABSOLUTE
    ../clib/microlib/init/entry.s            0x00000000   Number         0  entry11b.o ABSOLUTE
    ../clib/microlib/longlong.c              0x00000000   Number         0  llushr.o ABSOLUTE
    ../clib/microlib/longlong.c              0x00000000   Number         0  llsshr.o ABSOLUTE
    ../clib/microlib/longlong.c              0x00000000   Number         0  llshl.o ABSOLUTE
    ../clib/microlib/printf/printf.c         0x00000000   Number         0  printf6.o ABSOLUTE
    ../clib/microlib/printf/printf.c         0x00000000   Number         0  printf5.o ABSOLUTE
    ../clib/microlib/printf/printf.c         0x00000000   Number         0  printf7.o ABSOLUTE
    ../clib/microlib/printf/printf.c         0x00000000   Number         0  printfb.o ABSOLUTE
    ../clib/microlib/printf/printf.c         0x00000000   Number         0  printf1.o ABSOLUTE
    ../clib/microlib/printf/printf.c         0x00000000   Number         0  printf2.o ABSOLUTE
    ../clib/microlib/printf/printf.c         0x00000000   Number         0  printf4.o ABSOLUTE
    ../clib/microlib/printf/printf.c         0x00000000   Number         0  printf3.o ABSOLUTE
    ../clib/microlib/printf/printf.c         0x00000000   Number         0  printf8.o ABSOLUTE
    ../clib/microlib/printf/printf.c         0x00000000   Number         0  printf0.o ABSOLUTE
    ../clib/microlib/printf/printf.c         0x00000000   Number         0  printfa.o ABSOLUTE
    ../clib/microlib/printf/stubs.s          0x00000000   Number         0  stubs.o ABSOLUTE
    ../clib/microlib/stdio/fputc.c           0x00000000   Number         0  fputc.o ABSOLUTE
    ../clib/microlib/stdio/semi.s            0x00000000   Number         0  semi.o ABSOLUTE
    ../clib/microlib/stdio/streams.c         0x00000000   Number         0  stdout.o ABSOLUTE
    ../clib/microlib/stdlib/rand.c           0x00000000   Number         0  rand.o ABSOLUTE
    ../clib/microlib/string/memcmp.c         0x00000000   Number         0  memcmp.o ABSOLUTE
    ../clib/microlib/string/memcpy.c         0x00000000   Number         0  memmoveb.o ABSOLUTE
    ../clib/microlib/string/memcpy.c         0x00000000   Number         0  memcpya.o ABSOLUTE
    ../clib/microlib/string/memcpy.c         0x00000000   Number         0  memmovea.o ABSOLUTE
    ../clib/microlib/string/memcpy.c         0x00000000   Number         0  memcpyb.o ABSOLUTE
    ../clib/microlib/string/memset.c         0x00000000   Number         0  memseta.o ABSOLUTE
    ../clib/microlib/string/strlen.c         0x00000000   Number         0  strlen.o ABSOLUTE
    ../clib/microlib/string/strncmp.c        0x00000000   Number         0  strncmp.o ABSOLUTE
    ../clib/microlib/stubs.s                 0x00000000   Number         0  iusefp.o ABSOLUTE
    ../clib/microlib/stubs.s                 0x00000000   Number         0  iusesemip.o ABSOLUTE
    ../clib/scanf.c                          0x00000000   Number         0  _chval.o ABSOLUTE
    ../clib/scanf.c                          0x00000000   Number         0  atoi.o ABSOLUTE
    ../clib/scanf.c                          0x00000000   Number         0  strtol.o ABSOLUTE
    ../clib/scanf.c                          0x00000000   Number         0  _strtoul.o ABSOLUTE
    ../fplib/microlib/fpadd.c                0x00000000   Number         0  dadd.o ABSOLUTE
    ../fplib/microlib/fpdiv.c                0x00000000   Number         0  ddiv.o ABSOLUTE
    ../fplib/microlib/fpepilogue.c           0x00000000   Number         0  depilogue.o ABSOLUTE
    ../fplib/microlib/fpfix.c                0x00000000   Number         0  dfixul.o ABSOLUTE
    ../fplib/microlib/fpmul.c                0x00000000   Number         0  dmul.o ABSOLUTE
    ..\Core\Src\gpio.c                       0x00000000   Number         0  gpio.o ABSOLUTE
    ..\Core\Src\main.c                       0x00000000   Number         0  main.o ABSOLUTE
    ..\Core\Src\stm32h7xx_hal_msp.c          0x00000000   Number         0  stm32h7xx_hal_msp.o ABSOLUTE
    ..\Core\Src\stm32h7xx_it.c               0x00000000   Number         0  stm32h7xx_it.o ABSOLUTE
    ..\Core\Src\system_stm32h7xx.c           0x00000000   Number         0  system_stm32h7xx.o ABSOLUTE
    ..\Core\Src\usart.c                      0x00000000   Number         0  usart.o ABSOLUTE
    ..\Drivers\STM32H7xx_HAL_Driver\Src\stm32h7xx_hal.c 0x00000000   Number         0  stm32h7xx_hal.o ABSOLUTE
    ..\Drivers\STM32H7xx_HAL_Driver\Src\stm32h7xx_hal_cortex.c 0x00000000   Number         0  stm32h7xx_hal_cortex.o ABSOLUTE
    ..\Drivers\STM32H7xx_HAL_Driver\Src\stm32h7xx_hal_dma.c 0x00000000   Number         0  stm32h7xx_hal_dma.o ABSOLUTE
    ..\Drivers\STM32H7xx_HAL_Driver\Src\stm32h7xx_hal_dma_ex.c 0x00000000   Number         0  stm32h7xx_hal_dma_ex.o ABSOLUTE
    ..\Drivers\STM32H7xx_HAL_Driver\Src\stm32h7xx_hal_eth.c 0x00000000   Number         0  stm32h7xx_hal_eth.o ABSOLUTE
    ..\Drivers\STM32H7xx_HAL_Driver\Src\stm32h7xx_hal_eth_ex.c 0x00000000   Number         0  stm32h7xx_hal_eth_ex.o ABSOLUTE
    ..\Drivers\STM32H7xx_HAL_Driver\Src\stm32h7xx_hal_exti.c 0x00000000   Number         0  stm32h7xx_hal_exti.o ABSOLUTE
    ..\Drivers\STM32H7xx_HAL_Driver\Src\stm32h7xx_hal_flash.c 0x00000000   Number         0  stm32h7xx_hal_flash.o ABSOLUTE
    ..\Drivers\STM32H7xx_HAL_Driver\Src\stm32h7xx_hal_flash_ex.c 0x00000000   Number         0  stm32h7xx_hal_flash_ex.o ABSOLUTE
    ..\Drivers\STM32H7xx_HAL_Driver\Src\stm32h7xx_hal_gpio.c 0x00000000   Number         0  stm32h7xx_hal_gpio.o ABSOLUTE
    ..\Drivers\STM32H7xx_HAL_Driver\Src\stm32h7xx_hal_hsem.c 0x00000000   Number         0  stm32h7xx_hal_hsem.o ABSOLUTE
    ..\Drivers\STM32H7xx_HAL_Driver\Src\stm32h7xx_hal_i2c.c 0x00000000   Number         0  stm32h7xx_hal_i2c.o ABSOLUTE
    ..\Drivers\STM32H7xx_HAL_Driver\Src\stm32h7xx_hal_i2c_ex.c 0x00000000   Number         0  stm32h7xx_hal_i2c_ex.o ABSOLUTE
    ..\Drivers\STM32H7xx_HAL_Driver\Src\stm32h7xx_hal_mdma.c 0x00000000   Number         0  stm32h7xx_hal_mdma.o ABSOLUTE
    ..\Drivers\STM32H7xx_HAL_Driver\Src\stm32h7xx_hal_pwr.c 0x00000000   Number         0  stm32h7xx_hal_pwr.o ABSOLUTE
    ..\Drivers\STM32H7xx_HAL_Driver\Src\stm32h7xx_hal_pwr_ex.c 0x00000000   Number         0  stm32h7xx_hal_pwr_ex.o ABSOLUTE
    ..\Drivers\STM32H7xx_HAL_Driver\Src\stm32h7xx_hal_rcc.c 0x00000000   Number         0  stm32h7xx_hal_rcc.o ABSOLUTE
    ..\Drivers\STM32H7xx_HAL_Driver\Src\stm32h7xx_hal_rcc_ex.c 0x00000000   Number         0  stm32h7xx_hal_rcc_ex.o ABSOLUTE
    ..\Drivers\STM32H7xx_HAL_Driver\Src\stm32h7xx_hal_tim.c 0x00000000   Number         0  stm32h7xx_hal_tim.o ABSOLUTE
    ..\Drivers\STM32H7xx_HAL_Driver\Src\stm32h7xx_hal_tim_ex.c 0x00000000   Number         0  stm32h7xx_hal_tim_ex.o ABSOLUTE
    ..\Drivers\STM32H7xx_HAL_Driver\Src\stm32h7xx_hal_uart.c 0x00000000   Number         0  stm32h7xx_hal_uart.o ABSOLUTE
    ..\Drivers\STM32H7xx_HAL_Driver\Src\stm32h7xx_hal_uart_ex.c 0x00000000   Number         0  stm32h7xx_hal_uart_ex.o ABSOLUTE
    ..\LWIP\App\lwip.c                       0x00000000   Number         0  lwip.o ABSOLUTE
    ..\LWIP\Target\ethernetif.c              0x00000000   Number         0  ethernetif.o ABSOLUTE
    ..\Middlewares\Third_Party\LwIP\src\api\api_lib.c 0x00000000   Number         0  api_lib.o ABSOLUTE
    ..\Middlewares\Third_Party\LwIP\src\api\api_msg.c 0x00000000   Number         0  api_msg.o ABSOLUTE
    ..\Middlewares\Third_Party\LwIP\src\api\err.c 0x00000000   Number         0  err.o ABSOLUTE
    ..\Middlewares\Third_Party\LwIP\src\api\if_api.c 0x00000000   Number         0  if_api.o ABSOLUTE
    ..\Middlewares\Third_Party\LwIP\src\api\netbuf.c 0x00000000   Number         0  netbuf.o ABSOLUTE
    ..\Middlewares\Third_Party\LwIP\src\api\netdb.c 0x00000000   Number         0  netdb.o ABSOLUTE
    ..\Middlewares\Third_Party\LwIP\src\api\netifapi.c 0x00000000   Number         0  netifapi.o ABSOLUTE
    ..\Middlewares\Third_Party\LwIP\src\api\sockets.c 0x00000000   Number         0  sockets.o ABSOLUTE
    ..\Middlewares\Third_Party\LwIP\src\api\tcpip.c 0x00000000   Number         0  tcpip.o ABSOLUTE
    ..\Middlewares\Third_Party\LwIP\src\apps\mqtt\mqtt.c 0x00000000   Number         0  mqtt.o ABSOLUTE
    ..\Middlewares\Third_Party\LwIP\src\core\altcp.c 0x00000000   Number         0  altcp.o ABSOLUTE
    ..\Middlewares\Third_Party\LwIP\src\core\altcp_alloc.c 0x00000000   Number         0  altcp_alloc.o ABSOLUTE
    ..\Middlewares\Third_Party\LwIP\src\core\altcp_tcp.c 0x00000000   Number         0  altcp_tcp.o ABSOLUTE
    ..\Middlewares\Third_Party\LwIP\src\core\def.c 0x00000000   Number         0  def.o ABSOLUTE
    ..\Middlewares\Third_Party\LwIP\src\core\dns.c 0x00000000   Number         0  dns.o ABSOLUTE
    ..\Middlewares\Third_Party\LwIP\src\core\inet_chksum.c 0x00000000   Number         0  inet_chksum.o ABSOLUTE
    ..\Middlewares\Third_Party\LwIP\src\core\init.c 0x00000000   Number         0  init.o ABSOLUTE
    ..\Middlewares\Third_Party\LwIP\src\core\ip.c 0x00000000   Number         0  ip.o ABSOLUTE
    ..\Middlewares\Third_Party\LwIP\src\core\ipv4\autoip.c 0x00000000   Number         0  autoip.o ABSOLUTE
    ..\Middlewares\Third_Party\LwIP\src\core\ipv4\dhcp.c 0x00000000   Number         0  dhcp.o ABSOLUTE
    ..\Middlewares\Third_Party\LwIP\src\core\ipv4\etharp.c 0x00000000   Number         0  etharp.o ABSOLUTE
    ..\Middlewares\Third_Party\LwIP\src\core\ipv4\icmp.c 0x00000000   Number         0  icmp.o ABSOLUTE
    ..\Middlewares\Third_Party\LwIP\src\core\ipv4\igmp.c 0x00000000   Number         0  igmp.o ABSOLUTE
    ..\Middlewares\Third_Party\LwIP\src\core\ipv4\ip4.c 0x00000000   Number         0  ip4.o ABSOLUTE
    ..\Middlewares\Third_Party\LwIP\src\core\ipv4\ip4_addr.c 0x00000000   Number         0  ip4_addr.o ABSOLUTE
    ..\Middlewares\Third_Party\LwIP\src\core\ipv4\ip4_frag.c 0x00000000   Number         0  ip4_frag.o ABSOLUTE
    ..\Middlewares\Third_Party\LwIP\src\core\ipv6\dhcp6.c 0x00000000   Number         0  dhcp6.o ABSOLUTE
    ..\Middlewares\Third_Party\LwIP\src\core\ipv6\ethip6.c 0x00000000   Number         0  ethip6.o ABSOLUTE
    ..\Middlewares\Third_Party\LwIP\src\core\ipv6\icmp6.c 0x00000000   Number         0  icmp6.o ABSOLUTE
    ..\Middlewares\Third_Party\LwIP\src\core\ipv6\inet6.c 0x00000000   Number         0  inet6.o ABSOLUTE
    ..\Middlewares\Third_Party\LwIP\src\core\ipv6\ip6.c 0x00000000   Number         0  ip6.o ABSOLUTE
    ..\Middlewares\Third_Party\LwIP\src\core\ipv6\ip6_addr.c 0x00000000   Number         0  ip6_addr.o ABSOLUTE
    ..\Middlewares\Third_Party\LwIP\src\core\ipv6\ip6_frag.c 0x00000000   Number         0  ip6_frag.o ABSOLUTE
    ..\Middlewares\Third_Party\LwIP\src\core\ipv6\mld6.c 0x00000000   Number         0  mld6.o ABSOLUTE
    ..\Middlewares\Third_Party\LwIP\src\core\ipv6\nd6.c 0x00000000   Number         0  nd6.o ABSOLUTE
    ..\Middlewares\Third_Party\LwIP\src\core\mem.c 0x00000000   Number         0  mem.o ABSOLUTE
    ..\Middlewares\Third_Party\LwIP\src\core\memp.c 0x00000000   Number         0  memp.o ABSOLUTE
    ..\Middlewares\Third_Party\LwIP\src\core\netif.c 0x00000000   Number         0  netif.o ABSOLUTE
    ..\Middlewares\Third_Party\LwIP\src\core\pbuf.c 0x00000000   Number         0  pbuf.o ABSOLUTE
    ..\Middlewares\Third_Party\LwIP\src\core\raw.c 0x00000000   Number         0  raw.o ABSOLUTE
    ..\Middlewares\Third_Party\LwIP\src\core\stats.c 0x00000000   Number         0  stats.o ABSOLUTE
    ..\Middlewares\Third_Party\LwIP\src\core\sys.c 0x00000000   Number         0  sys_1.o ABSOLUTE
    ..\Middlewares\Third_Party\LwIP\src\core\tcp.c 0x00000000   Number         0  tcp.o ABSOLUTE
    ..\Middlewares\Third_Party\LwIP\src\core\tcp_in.c 0x00000000   Number         0  tcp_in.o ABSOLUTE
    ..\Middlewares\Third_Party\LwIP\src\core\tcp_out.c 0x00000000   Number         0  tcp_out.o ABSOLUTE
    ..\Middlewares\Third_Party\LwIP\src\core\timeouts.c 0x00000000   Number         0  timeouts.o ABSOLUTE
    ..\Middlewares\Third_Party\LwIP\src\core\udp.c 0x00000000   Number         0  udp.o ABSOLUTE
    ..\Middlewares\Third_Party\LwIP\src\netif\bridgeif.c 0x00000000   Number         0  bridgeif.o ABSOLUTE
    ..\Middlewares\Third_Party\LwIP\src\netif\bridgeif_fdb.c 0x00000000   Number         0  bridgeif_fdb.o ABSOLUTE
    ..\Middlewares\Third_Party\LwIP\src\netif\ethernet.c 0x00000000   Number         0  ethernet.o ABSOLUTE
    ..\Middlewares\Third_Party\LwIP\src\netif\lowpan6.c 0x00000000   Number         0  lowpan6.o ABSOLUTE
    ..\Middlewares\Third_Party\LwIP\src\netif\lowpan6_ble.c 0x00000000   Number         0  lowpan6_ble.o ABSOLUTE
    ..\Middlewares\Third_Party\LwIP\src\netif\lowpan6_common.c 0x00000000   Number         0  lowpan6_common.o ABSOLUTE
    ..\Middlewares\Third_Party\LwIP\src\netif\ppp\auth.c 0x00000000   Number         0  auth.o ABSOLUTE
    ..\Middlewares\Third_Party\LwIP\src\netif\ppp\ccp.c 0x00000000   Number         0  ccp.o ABSOLUTE
    ..\Middlewares\Third_Party\LwIP\src\netif\ppp\chap-md5.c 0x00000000   Number         0  chap-md5.o ABSOLUTE
    ..\Middlewares\Third_Party\LwIP\src\netif\ppp\chap-new.c 0x00000000   Number         0  chap-new.o ABSOLUTE
    ..\Middlewares\Third_Party\LwIP\src\netif\ppp\chap_ms.c 0x00000000   Number         0  chap_ms.o ABSOLUTE
    ..\Middlewares\Third_Party\LwIP\src\netif\ppp\demand.c 0x00000000   Number         0  demand.o ABSOLUTE
    ..\Middlewares\Third_Party\LwIP\src\netif\ppp\eap.c 0x00000000   Number         0  eap.o ABSOLUTE
    ..\Middlewares\Third_Party\LwIP\src\netif\ppp\ecp.c 0x00000000   Number         0  ecp.o ABSOLUTE
    ..\Middlewares\Third_Party\LwIP\src\netif\ppp\eui64.c 0x00000000   Number         0  eui64.o ABSOLUTE
    ..\Middlewares\Third_Party\LwIP\src\netif\ppp\fsm.c 0x00000000   Number         0  fsm.o ABSOLUTE
    ..\Middlewares\Third_Party\LwIP\src\netif\ppp\ipcp.c 0x00000000   Number         0  ipcp.o ABSOLUTE
    ..\Middlewares\Third_Party\LwIP\src\netif\ppp\ipv6cp.c 0x00000000   Number         0  ipv6cp.o ABSOLUTE
    ..\Middlewares\Third_Party\LwIP\src\netif\ppp\lcp.c 0x00000000   Number         0  lcp.o ABSOLUTE
    ..\Middlewares\Third_Party\LwIP\src\netif\ppp\magic.c 0x00000000   Number         0  magic.o ABSOLUTE
    ..\Middlewares\Third_Party\LwIP\src\netif\ppp\mppe.c 0x00000000   Number         0  mppe.o ABSOLUTE
    ..\Middlewares\Third_Party\LwIP\src\netif\ppp\multilink.c 0x00000000   Number         0  multilink.o ABSOLUTE
    ..\Middlewares\Third_Party\LwIP\src\netif\ppp\ppp.c 0x00000000   Number         0  ppp.o ABSOLUTE
    ..\Middlewares\Third_Party\LwIP\src\netif\ppp\pppapi.c 0x00000000   Number         0  pppapi.o ABSOLUTE
    ..\Middlewares\Third_Party\LwIP\src\netif\ppp\pppcrypt.c 0x00000000   Number         0  pppcrypt.o ABSOLUTE
    ..\Middlewares\Third_Party\LwIP\src\netif\ppp\pppoe.c 0x00000000   Number         0  pppoe.o ABSOLUTE
    ..\Middlewares\Third_Party\LwIP\src\netif\ppp\pppol2tp.c 0x00000000   Number         0  pppol2tp.o ABSOLUTE
    ..\Middlewares\Third_Party\LwIP\src\netif\ppp\pppos.c 0x00000000   Number         0  pppos.o ABSOLUTE
    ..\Middlewares\Third_Party\LwIP\src\netif\ppp\upap.c 0x00000000   Number         0  upap.o ABSOLUTE
    ..\Middlewares\Third_Party\LwIP\src\netif\ppp\utils.c 0x00000000   Number         0  utils.o ABSOLUTE
    ..\Middlewares\Third_Party\LwIP\src\netif\ppp\vj.c 0x00000000   Number         0  vj.o ABSOLUTE
    ..\Middlewares\Third_Party\LwIP\src\netif\slipif.c 0x00000000   Number         0  slipif.o ABSOLUTE
    ..\Middlewares\Third_Party\LwIP\src\netif\zepif.c 0x00000000   Number         0  zepif.o ABSOLUTE
    ..\PCF8574\IIC\myiic.c                   0x00000000   Number         0  myiic.o ABSOLUTE
    ..\PCF8574\PCF8574\pcf8574.c             0x00000000   Number         0  pcf8574.o ABSOLUTE
    ..\PCF8574\delay\delay.c                 0x00000000   Number         0  delay.o ABSOLUTE
    ..\PCF8574\sys\sys.c                     0x00000000   Number         0  sys.o ABSOLUTE
    ..\\PCF8574\\IIC\\myiic.c                0x00000000   Number         0  myiic.o ABSOLUTE
    ..\\PCF8574\\PCF8574\\pcf8574.c          0x00000000   Number         0  pcf8574.o ABSOLUTE
    ..\\PCF8574\\delay\\delay.c              0x00000000   Number         0  delay.o ABSOLUTE
    ..\\PCF8574\\sys\\sys.c                  0x00000000   Number         0  sys.o ABSOLUTE
    buff_mem_alloc.c                         0x00000000   Number         0  buff_mem_alloc.o ABSOLUTE
    cdrcmple.s                               0x00000000   Number         0  cdrcmple.o ABSOLUTE
    dc.s                                     0x00000000   Number         0  dc.o ABSOLUTE
    handlers.s                               0x00000000   Number         0  handlers.o ABSOLUTE
    init.s                                   0x00000000   Number         0  init.o ABSOLUTE
    startup_stm32h743xx.s                    0x00000000   Number         0  startup_stm32h743xx.o ABSOLUTE
    RESET                                    0x08000000   Section      664  startup_stm32h743xx.o(RESET)
    .ARM.Collect$$$$00000000                 0x08000298   Section        0  entry.o(.ARM.Collect$$$$00000000)
    .ARM.Collect$$$$00000001                 0x08000298   Section        4  entry2.o(.ARM.Collect$$$$00000001)
    .ARM.Collect$$$$00000004                 0x0800029c   Section        4  entry5.o(.ARM.Collect$$$$00000004)
    .ARM.Collect$$$$00000008                 0x080002a0   Section        0  entry7b.o(.ARM.Collect$$$$00000008)
    .ARM.Collect$$$$0000000A                 0x080002a0   Section        0  entry8b.o(.ARM.Collect$$$$0000000A)
    .ARM.Collect$$$$0000000B                 0x080002a0   Section        8  entry9a.o(.ARM.Collect$$$$0000000B)
    .ARM.Collect$$$$0000000E                 0x080002a8   Section        4  entry12b.o(.ARM.Collect$$$$0000000E)
    .ARM.Collect$$$$0000000F                 0x080002ac   Section        0  entry10a.o(.ARM.Collect$$$$0000000F)
    .ARM.Collect$$$$00000011                 0x080002ac   Section        0  entry11a.o(.ARM.Collect$$$$00000011)
    .ARM.Collect$$$$00002712                 0x080002ac   Section        4  entry2.o(.ARM.Collect$$$$00002712)
    __lit__00000000                          0x080002ac   Data           4  entry2.o(.ARM.Collect$$$$00002712)
    .text                                    0x080002b0   Section       36  startup_stm32h743xx.o(.text)
    $v0                                      0x080002b0   Number         0  startup_stm32h743xx.o(.text)
    .text                                    0x080002d4   Section        0  uldiv.o(.text)
    .text                                    0x08000336   Section        0  memmovea.o(.text)
    .text                                    0x08000376   Section        0  memseta.o(.text)
    .text                                    0x0800039a   Section        0  memcmp.o(.text)
    .text                                    0x080003b4   Section        0  uidiv.o(.text)
    .text                                    0x080003e0   Section        0  llshl.o(.text)
    .text                                    0x080003fe   Section        0  llushr.o(.text)
    .text                                    0x08000420   Section       36  init.o(.text)
    .text                                    0x08000444   Section        0  semi.o(.text)
    .text                                    0x08000444   Section        0  iusesemip.o(.text)
    i.Assert_Failed                          0x08000444   Section        0  main.o(i.Assert_Failed)
    i.BusFault_Handler                       0x08000448   Section        0  stm32h7xx_it.o(i.BusFault_Handler)
    i.DMA_RXDescListInit                     0x0800044c   Section        0  main.o(i.DMA_RXDescListInit)
    i.DMA_TXDescListInit                     0x08000554   Section        0  main.o(i.DMA_TXDescListInit)
    i.DebugMon_Handler                       0x080005dc   Section        0  stm32h7xx_it.o(i.DebugMon_Handler)
    i.ETH_CheckFrameReceved                  0x080005e0   Section        0  main.o(i.ETH_CheckFrameReceved)
    i.ETH_DMA_MemMalloc                      0x0800063c   Section        0  main.o(i.ETH_DMA_MemMalloc)
    i.ETH_IRQHandler                         0x08000668   Section        0  main.o(i.ETH_IRQHandler)
    i.ETH_LowLevelFrameRecv_Process          0x08000680   Section        0  main.o(i.ETH_LowLevelFrameRecv_Process)
    i.ETH_MACDMAConfig                       0x08000774   Section        0  stm32h7xx_hal_eth.o(i.ETH_MACDMAConfig)
    ETH_MACDMAConfig                         0x08000775   Thumb Code   262  stm32h7xx_hal_eth.o(i.ETH_MACDMAConfig)
    i.ETH_PHY_IO_DeInit                      0x0800087a   Section        0  ethernetif.o(i.ETH_PHY_IO_DeInit)
    i.ETH_PHY_IO_GetTick                     0x0800087e   Section        0  ethernetif.o(i.ETH_PHY_IO_GetTick)
    i.ETH_PHY_IO_Init                        0x08000888   Section        0  ethernetif.o(i.ETH_PHY_IO_Init)
    i.ETH_PHY_IO_ReadReg                     0x08000898   Section        0  ethernetif.o(i.ETH_PHY_IO_ReadReg)
    i.ETH_PHY_IO_WriteReg                    0x080008bc   Section        0  ethernetif.o(i.ETH_PHY_IO_WriteReg)
    i.ETH_ReBuildRxDesc                      0x080008e0   Section        0  main.o(i.ETH_ReBuildRxDesc)
    i.ETH_RecvCallBack                       0x0800093c   Section        0  main.o(i.ETH_RecvCallBack)
    i.ETH_SetDMAConfig                       0x080009a8   Section        0  stm32h7xx_hal_eth.o(i.ETH_SetDMAConfig)
    ETH_SetDMAConfig                         0x080009a9   Thumb Code   176  stm32h7xx_hal_eth.o(i.ETH_SetDMAConfig)
    i.ETH_SetMACConfig                       0x08000a64   Section        0  stm32h7xx_hal_eth.o(i.ETH_SetMACConfig)
    ETH_SetMACConfig                         0x08000a65   Thumb Code   394  stm32h7xx_hal_eth.o(i.ETH_SetMACConfig)
    i.ETH_Set_DMA_RxBuff_Sizes               0x08000bf8   Section        0  main.o(i.ETH_Set_DMA_RxBuff_Sizes)
    i.ETH_WKUP_IRQHandler                    0x08000c1c   Section        0  stm32h7xx_it.o(i.ETH_WKUP_IRQHandler)
    i.ETH_freshRxDescIdx                     0x08000c2c   Section        0  main.o(i.ETH_freshRxDescIdx)
    i.ETH_getActualRxDescPtr                 0x08000c3e   Section        0  main.o(i.ETH_getActualRxDescPtr)
    i.Error_Handler                          0x08000c4c   Section        0  main.o(i.Error_Handler)
    i.Eth_RecvCofirm                         0x08000c54   Section        0  main.o(i.Eth_RecvCofirm)
    i.Eth_wakeupReceiver                     0x08000c60   Section        0  main.o(i.Eth_wakeupReceiver)
    i.HAL_DMA_Abort                          0x08000cc8   Section        0  stm32h7xx_hal_dma.o(i.HAL_DMA_Abort)
    i.HAL_DMA_Abort_IT                       0x080011a4   Section        0  stm32h7xx_hal_dma.o(i.HAL_DMA_Abort_IT)
    i.HAL_Delay                              0x0800153c   Section        0  stm32h7xx_hal.o(i.HAL_Delay)
    i.HAL_ETH_EEECallback                    0x08001564   Section        0  stm32h7xx_hal_eth.o(i.HAL_ETH_EEECallback)
    i.HAL_ETH_ErrorCallback                  0x08001566   Section        0  stm32h7xx_hal_eth.o(i.HAL_ETH_ErrorCallback)
    i.HAL_ETH_GetMACConfig                   0x08001568   Section        0  stm32h7xx_hal_eth.o(i.HAL_ETH_GetMACConfig)
    i.HAL_ETH_IRQHandler                     0x08001740   Section        0  stm32h7xx_hal_eth.o(i.HAL_ETH_IRQHandler)
    i.HAL_ETH_Init                           0x08001900   Section        0  stm32h7xx_hal_eth.o(i.HAL_ETH_Init)
    i.HAL_ETH_MspInit                        0x08001a1c   Section        0  ethernetif.o(i.HAL_ETH_MspInit)
    i.HAL_ETH_PMTCallback                    0x08001b94   Section        0  stm32h7xx_hal_eth.o(i.HAL_ETH_PMTCallback)
    i.HAL_ETH_ReadPHYRegister                0x08001b96   Section        0  stm32h7xx_hal_eth.o(i.HAL_ETH_ReadPHYRegister)
    i.HAL_ETH_RxCpltCallback                 0x08001c0e   Section        0  stm32h7xx_hal_eth.o(i.HAL_ETH_RxCpltCallback)
    i.HAL_ETH_SetMACConfig                   0x08001c10   Section        0  stm32h7xx_hal_eth.o(i.HAL_ETH_SetMACConfig)
    i.HAL_ETH_SetMDIOClockRange              0x08001c34   Section        0  stm32h7xx_hal_eth.o(i.HAL_ETH_SetMDIOClockRange)
    i.HAL_ETH_Start_IT                       0x08001cac   Section        0  stm32h7xx_hal_eth.o(i.HAL_ETH_Start_IT)
    i.HAL_ETH_Stop                           0x08001d80   Section        0  stm32h7xx_hal_eth.o(i.HAL_ETH_Stop)
    i.HAL_ETH_TxCpltCallback                 0x08001df4   Section        0  stm32h7xx_hal_eth.o(i.HAL_ETH_TxCpltCallback)
    i.HAL_ETH_WakeUpCallback                 0x08001df6   Section        0  stm32h7xx_hal_eth.o(i.HAL_ETH_WakeUpCallback)
    i.HAL_ETH_WritePHYRegister               0x08001df8   Section        0  stm32h7xx_hal_eth.o(i.HAL_ETH_WritePHYRegister)
    i.HAL_GPIO_Init                          0x08001e78   Section        0  stm32h7xx_hal_gpio.o(i.HAL_GPIO_Init)
    i.HAL_GPIO_ReadPin                       0x08002074   Section        0  stm32h7xx_hal_gpio.o(i.HAL_GPIO_ReadPin)
    i.HAL_GPIO_WritePin                      0x08002084   Section        0  stm32h7xx_hal_gpio.o(i.HAL_GPIO_WritePin)
    i.HAL_GetREVID                           0x08002090   Section        0  stm32h7xx_hal.o(i.HAL_GetREVID)
    i.HAL_GetTick                            0x0800209c   Section        0  stm32h7xx_hal.o(i.HAL_GetTick)
    i.HAL_IncTick                            0x080020a8   Section        0  stm32h7xx_hal.o(i.HAL_IncTick)
    i.HAL_Init                               0x080020c0   Section        0  stm32h7xx_hal.o(i.HAL_Init)
    i.HAL_InitTick                           0x08002120   Section        0  stm32h7xx_hal.o(i.HAL_InitTick)
    i.HAL_MPU_ConfigRegion                   0x08002178   Section        0  stm32h7xx_hal_cortex.o(i.HAL_MPU_ConfigRegion)
    i.HAL_MPU_Disable                        0x080021d4   Section        0  stm32h7xx_hal_cortex.o(i.HAL_MPU_Disable)
    i.HAL_MPU_Enable                         0x080021f4   Section        0  stm32h7xx_hal_cortex.o(i.HAL_MPU_Enable)
    i.HAL_MspInit                            0x0800221c   Section        0  stm32h7xx_hal_msp.o(i.HAL_MspInit)
    i.HAL_NVIC_EnableIRQ                     0x08002240   Section        0  stm32h7xx_hal_cortex.o(i.HAL_NVIC_EnableIRQ)
    i.HAL_NVIC_SetPriority                   0x08002268   Section        0  stm32h7xx_hal_cortex.o(i.HAL_NVIC_SetPriority)
    i.HAL_NVIC_SetPriorityGrouping           0x080022e4   Section        0  stm32h7xx_hal_cortex.o(i.HAL_NVIC_SetPriorityGrouping)
    i.HAL_PWREx_ConfigSupply                 0x0800230c   Section        0  stm32h7xx_hal_pwr_ex.o(i.HAL_PWREx_ConfigSupply)
    i.HAL_RCCEx_GetD3PCLK1Freq               0x0800236c   Section        0  stm32h7xx_hal_rcc_ex.o(i.HAL_RCCEx_GetD3PCLK1Freq)
    i.HAL_RCCEx_GetPLL2ClockFreq             0x08002390   Section        0  stm32h7xx_hal_rcc_ex.o(i.HAL_RCCEx_GetPLL2ClockFreq)
    i.HAL_RCCEx_GetPLL3ClockFreq             0x080025c0   Section        0  stm32h7xx_hal_rcc_ex.o(i.HAL_RCCEx_GetPLL3ClockFreq)
    i.HAL_RCCEx_PeriphCLKConfig              0x080027f0   Section        0  stm32h7xx_hal_rcc_ex.o(i.HAL_RCCEx_PeriphCLKConfig)
    i.HAL_RCC_ClockConfig                    0x08003558   Section        0  stm32h7xx_hal_rcc.o(i.HAL_RCC_ClockConfig)
    i.HAL_RCC_GetHCLKFreq                    0x08003878   Section        0  stm32h7xx_hal_rcc.o(i.HAL_RCC_GetHCLKFreq)
    i.HAL_RCC_GetPCLK1Freq                   0x080038c4   Section        0  stm32h7xx_hal_rcc.o(i.HAL_RCC_GetPCLK1Freq)
    i.HAL_RCC_GetPCLK2Freq                   0x080038e8   Section        0  stm32h7xx_hal_rcc.o(i.HAL_RCC_GetPCLK2Freq)
    i.HAL_RCC_GetSysClockFreq                0x0800390c   Section        0  stm32h7xx_hal_rcc.o(i.HAL_RCC_GetSysClockFreq)
    i.HAL_RCC_OscConfig                      0x08003b38   Section        0  stm32h7xx_hal_rcc.o(i.HAL_RCC_OscConfig)
    i.HAL_SYSCFG_ETHInterfaceSelect          0x08004390   Section        0  stm32h7xx_hal.o(i.HAL_SYSCFG_ETHInterfaceSelect)
    i.HAL_SYSTICK_Config                     0x080043a4   Section        0  stm32h7xx_hal_cortex.o(i.HAL_SYSTICK_Config)
    i.HAL_UARTEx_DisableFifoMode             0x080043d8   Section        0  stm32h7xx_hal_uart_ex.o(i.HAL_UARTEx_DisableFifoMode)
    i.HAL_UARTEx_RxEventCallback             0x08004426   Section        0  stm32h7xx_hal_uart.o(i.HAL_UARTEx_RxEventCallback)
    i.HAL_UARTEx_RxFifoFullCallback          0x08004428   Section        0  stm32h7xx_hal_uart_ex.o(i.HAL_UARTEx_RxFifoFullCallback)
    i.HAL_UARTEx_SetRxFifoThreshold          0x0800442a   Section        0  stm32h7xx_hal_uart_ex.o(i.HAL_UARTEx_SetRxFifoThreshold)
    i.HAL_UARTEx_SetTxFifoThreshold          0x08004488   Section        0  stm32h7xx_hal_uart_ex.o(i.HAL_UARTEx_SetTxFifoThreshold)
    i.HAL_UARTEx_TxFifoEmptyCallback         0x080044e6   Section        0  stm32h7xx_hal_uart_ex.o(i.HAL_UARTEx_TxFifoEmptyCallback)
    i.HAL_UARTEx_WakeupCallback              0x080044e8   Section        0  stm32h7xx_hal_uart_ex.o(i.HAL_UARTEx_WakeupCallback)
    i.HAL_UART_ErrorCallback                 0x080044ea   Section        0  stm32h7xx_hal_uart.o(i.HAL_UART_ErrorCallback)
    i.HAL_UART_IRQHandler                    0x080044ec   Section        0  stm32h7xx_hal_uart.o(i.HAL_UART_IRQHandler)
    i.HAL_UART_Init                          0x08004980   Section        0  stm32h7xx_hal_uart.o(i.HAL_UART_Init)
    i.HAL_UART_MspInit                       0x080049f8   Section        0  usart.o(i.HAL_UART_MspInit)
    i.HAL_UART_TxCpltCallback                0x08004aa4   Section        0  stm32h7xx_hal_uart.o(i.HAL_UART_TxCpltCallback)
    i.HardFault_Handler                      0x08004aa6   Section        0  stm32h7xx_it.o(i.HardFault_Handler)
    i.IIC_Ack                                0x08004aac   Section        0  myiic.o(i.IIC_Ack)
    i.IIC_Init                               0x08004b00   Section        0  myiic.o(i.IIC_Init)
    i.IIC_NAck                               0x08004b58   Section        0  myiic.o(i.IIC_NAck)
    i.IIC_Read_Byte                          0x08004bac   Section        0  myiic.o(i.IIC_Read_Byte)
    i.IIC_Send_Byte                          0x08004c18   Section        0  myiic.o(i.IIC_Send_Byte)
    i.IIC_Start                              0x08004c94   Section        0  myiic.o(i.IIC_Start)
    i.IIC_Stop                               0x08004ce8   Section        0  myiic.o(i.IIC_Stop)
    i.IIC_Wait_Ack                           0x08004d3c   Section        0  myiic.o(i.IIC_Wait_Ack)
    i.LAN8742_GetLinkState                   0x08004da4   Section        0  lan8742.o(i.LAN8742_GetLinkState)
    i.LAN8742_Init                           0x08004e8e   Section        0  lan8742.o(i.LAN8742_Init)
    i.LAN8742_RegisterBusIO                  0x08004f6c   Section        0  lan8742.o(i.LAN8742_RegisterBusIO)
    i.MAC_AddressSet                         0x08004f9a   Section        0  main.o(i.MAC_AddressSet)
    i.MPU_Config                             0x08004fe4   Section        0  main.o(i.MPU_Config)
    MPU_Config                               0x08004fe5   Thumb Code    90  main.o(i.MPU_Config)
    i.MX_GPIO_Init                           0x08005044   Section        0  gpio.o(i.MX_GPIO_Init)
    i.MX_LWIP_Init                           0x080050d0   Section        0  lwip.o(i.MX_LWIP_Init)
    i.MX_USART1_UART_Init                    0x08005104   Section        0  usart.o(i.MX_USART1_UART_Init)
    i.MemManage_Handler                      0x08005170   Section        0  stm32h7xx_it.o(i.MemManage_Handler)
    i.NMI_Handler                            0x08005174   Section        0  stm32h7xx_it.o(i.NMI_Handler)
    i.PCF8574_Init                           0x08005178   Section        0  pcf8574.o(i.PCF8574_Init)
    i.PCF8574_ReadOneByte                    0x080051e0   Section        0  pcf8574.o(i.PCF8574_ReadOneByte)
    i.PCF8574_WriteBit                       0x08005202   Section        0  pcf8574.o(i.PCF8574_WriteBit)
    i.PCF8574_WriteOneByte                   0x08005228   Section        0  pcf8574.o(i.PCF8574_WriteOneByte)
    i.PendSV_Handler                         0x08005250   Section        0  stm32h7xx_it.o(i.PendSV_Handler)
    i.RCCEx_PLL2_Config                      0x08005254   Section        0  stm32h7xx_hal_rcc_ex.o(i.RCCEx_PLL2_Config)
    RCCEx_PLL2_Config                        0x08005255   Thumb Code   350  stm32h7xx_hal_rcc_ex.o(i.RCCEx_PLL2_Config)
    i.RCCEx_PLL3_Config                      0x080053b8   Section        0  stm32h7xx_hal_rcc_ex.o(i.RCCEx_PLL3_Config)
    RCCEx_PLL3_Config                        0x080053b9   Thumb Code   350  stm32h7xx_hal_rcc_ex.o(i.RCCEx_PLL3_Config)
    i.SVC_Handler                            0x0800551c   Section        0  stm32h7xx_it.o(i.SVC_Handler)
    i.SysTick_Handler                        0x0800551e   Section        0  stm32h7xx_it.o(i.SysTick_Handler)
    i.SystemClock_Config                     0x08005528   Section        0  main.o(i.SystemClock_Config)
    i.SystemInit                             0x0800565c   Section        0  system_stm32h7xx.o(i.SystemInit)
    i.UARTEx_SetNbDataToProcess              0x08005758   Section        0  stm32h7xx_hal_uart_ex.o(i.UARTEx_SetNbDataToProcess)
    UARTEx_SetNbDataToProcess                0x08005759   Thumb Code    78  stm32h7xx_hal_uart_ex.o(i.UARTEx_SetNbDataToProcess)
    i.UART_AdvFeatureConfig                  0x080057b0   Section        0  stm32h7xx_hal_uart.o(i.UART_AdvFeatureConfig)
    i.UART_CheckIdleState                    0x080058a8   Section        0  stm32h7xx_hal_uart.o(i.UART_CheckIdleState)
    i.UART_DMAAbortOnError                   0x08005992   Section        0  stm32h7xx_hal_uart.o(i.UART_DMAAbortOnError)
    UART_DMAAbortOnError                     0x08005993   Thumb Code    24  stm32h7xx_hal_uart.o(i.UART_DMAAbortOnError)
    i.UART_EndRxTransfer                     0x080059ac   Section        0  stm32h7xx_hal_uart.o(i.UART_EndRxTransfer)
    UART_EndRxTransfer                       0x080059ad   Thumb Code   104  stm32h7xx_hal_uart.o(i.UART_EndRxTransfer)
    i.UART_EndTransmit_IT                    0x08005a18   Section        0  stm32h7xx_hal_uart.o(i.UART_EndTransmit_IT)
    UART_EndTransmit_IT                      0x08005a19   Thumb Code    48  stm32h7xx_hal_uart.o(i.UART_EndTransmit_IT)
    i.UART_SetConfig                         0x08005a48   Section        0  stm32h7xx_hal_uart.o(i.UART_SetConfig)
    i.UART_WaitOnFlagUntilTimeout            0x08005fd4   Section        0  stm32h7xx_hal_uart.o(i.UART_WaitOnFlagUntilTimeout)
    i.USART1_IRQHandler                      0x08006078   Section        0  stm32h7xx_it.o(i.USART1_IRQHandler)
    i.UsageFault_Handler                     0x08006088   Section        0  stm32h7xx_it.o(i.UsageFault_Handler)
    i.__0printf$3                            0x0800608c   Section        0  printf3.o(i.__0printf$3)
    i.__NVIC_GetPriorityGrouping             0x080060ac   Section        0  stm32h7xx_hal_cortex.o(i.__NVIC_GetPriorityGrouping)
    __NVIC_GetPriorityGrouping               0x080060ad   Thumb Code    10  stm32h7xx_hal_cortex.o(i.__NVIC_GetPriorityGrouping)
    i.__NVIC_SetPriority                     0x080060bc   Section        0  stm32h7xx_hal_cortex.o(i.__NVIC_SetPriority)
    __NVIC_SetPriority                       0x080060bd   Thumb Code    32  stm32h7xx_hal_cortex.o(i.__NVIC_SetPriority)
    i.__scatterload_copy                     0x080060e4   Section       14  handlers.o(i.__scatterload_copy)
    i.__scatterload_null                     0x080060f2   Section        2  handlers.o(i.__scatterload_null)
    i.__scatterload_zeroinit                 0x080060f4   Section       14  handlers.o(i.__scatterload_zeroinit)
    i._printf_core                           0x08006104   Section        0  printf3.o(i._printf_core)
    _printf_core                             0x08006105   Thumb Code   436  printf3.o(i._printf_core)
    i.delay_ms                               0x080062bc   Section        0  delay.o(i.delay_ms)
    i.delay_us                               0x080062d4   Section        0  delay.o(i.delay_us)
    i.do_memp_free_pool                      0x0800631c   Section        0  memp.o(i.do_memp_free_pool)
    do_memp_free_pool                        0x0800631d   Thumb Code    50  memp.o(i.do_memp_free_pool)
    i.do_memp_malloc_pool                    0x080063c8   Section        0  memp.o(i.do_memp_malloc_pool)
    do_memp_malloc_pool                      0x080063c9   Thumb Code    56  memp.o(i.do_memp_malloc_pool)
    i.etharp_cleanup_netif                   0x0800647c   Section        0  etharp.o(i.etharp_cleanup_netif)
    i.etharp_find_entry                      0x080064b4   Section        0  etharp.o(i.etharp_find_entry)
    etharp_find_entry                        0x080064b5   Thumb Code   514  etharp.o(i.etharp_find_entry)
    i.etharp_free_entry                      0x080067b4   Section        0  etharp.o(i.etharp_free_entry)
    etharp_free_entry                        0x080067b5   Thumb Code    58  etharp.o(i.etharp_free_entry)
    i.etharp_input                           0x080067f4   Section        0  etharp.o(i.etharp_input)
    i.etharp_raw                             0x08006930   Section        0  etharp.o(i.etharp_raw)
    etharp_raw                               0x08006931   Thumb Code   226  etharp.o(i.etharp_raw)
    i.etharp_request                         0x08006abc   Section        0  etharp.o(i.etharp_request)
    i.etharp_request_dst                     0x08006ad4   Section        0  etharp.o(i.etharp_request_dst)
    etharp_request_dst                       0x08006ad5   Thumb Code    38  etharp.o(i.etharp_request_dst)
    i.etharp_update_arp_entry                0x08006b00   Section        0  etharp.o(i.etharp_update_arp_entry)
    etharp_update_arp_entry                  0x08006b01   Thumb Code   212  etharp.o(i.etharp_update_arp_entry)
    i.ethernet_input                         0x08006c5c   Section        0  ethernet.o(i.ethernet_input)
    i.ethernet_link_check_state              0x08006d20   Section        0  ethernetif.o(i.ethernet_link_check_state)
    i.ethernet_output                        0x08006dec   Section        0  ethernet.o(i.ethernet_output)
    i.ethernetif_init                        0x08006ef0   Section        0  ethernetif.o(i.ethernetif_init)
    i.fputc                                  0x08006efe   Section        0  fputc.o(i.fputc)
    i.icmp_dest_unreach                      0x08006f10   Section        0  icmp.o(i.icmp_dest_unreach)
    i.icmp_input                             0x08006f24   Section        0  icmp.o(i.icmp_input)
    i.icmp_send_response                     0x080071c8   Section        0  icmp.o(i.icmp_send_response)
    icmp_send_response                       0x080071c9   Thumb Code   152  icmp.o(i.icmp_send_response)
    i.icmp_time_exceeded                     0x080072ec   Section        0  icmp.o(i.icmp_time_exceeded)
    i.inet_chksum                            0x080072fe   Section        0  inet_chksum.o(i.inet_chksum)
    i.inet_chksum_pbuf                       0x08007312   Section        0  inet_chksum.o(i.inet_chksum_pbuf)
    i.ip4_addr_isbroadcast_u32               0x08007368   Section        0  ip4_addr.o(i.ip4_addr_isbroadcast_u32)
    i.ip4_frag                               0x080073b8   Section        0  ip4_frag.o(i.ip4_frag)
    i.ip4_input                              0x08007684   Section        0  ip4.o(i.ip4_input)
    i.ip4_input_accept                       0x08007820   Section        0  ip4.o(i.ip4_input_accept)
    ip4_input_accept                         0x08007821   Thumb Code    48  ip4.o(i.ip4_input_accept)
    i.ip4_output_if                          0x08007854   Section        0  ip4.o(i.ip4_output_if)
    i.ip4_output_if_src                      0x0800788c   Section        0  ip4.o(i.ip4_output_if_src)
    i.ip4_reass                              0x08007a3c   Section        0  ip4_frag.o(i.ip4_reass)
    i.ip4_route                              0x08007d38   Section        0  ip4.o(i.ip4_route)
    i.ip_frag_alloc_pbuf_custom_ref          0x08007dcc   Section        0  ip4_frag.o(i.ip_frag_alloc_pbuf_custom_ref)
    ip_frag_alloc_pbuf_custom_ref            0x08007dcd   Thumb Code    10  ip4_frag.o(i.ip_frag_alloc_pbuf_custom_ref)
    i.ip_frag_free_pbuf_custom_ref           0x08007dd8   Section        0  ip4_frag.o(i.ip_frag_free_pbuf_custom_ref)
    ip_frag_free_pbuf_custom_ref             0x08007dd9   Thumb Code    40  ip4_frag.o(i.ip_frag_free_pbuf_custom_ref)
    i.ip_reass_chain_frag_into_datagram_and_validate 0x08007e70   Section        0  ip4_frag.o(i.ip_reass_chain_frag_into_datagram_and_validate)
    ip_reass_chain_frag_into_datagram_and_validate 0x08007e71   Thumb Code   530  ip4_frag.o(i.ip_reass_chain_frag_into_datagram_and_validate)
    i.ip_reass_dequeue_datagram              0x08008174   Section        0  ip4_frag.o(i.ip_reass_dequeue_datagram)
    ip_reass_dequeue_datagram                0x08008175   Thumb Code    62  ip4_frag.o(i.ip_reass_dequeue_datagram)
    i.ip_reass_enqueue_new_datagram          0x08008238   Section        0  ip4_frag.o(i.ip_reass_enqueue_new_datagram)
    ip_reass_enqueue_new_datagram            0x08008239   Thumb Code    80  ip4_frag.o(i.ip_reass_enqueue_new_datagram)
    i.ip_reass_free_complete_datagram        0x0800828c   Section        0  ip4_frag.o(i.ip_reass_free_complete_datagram)
    ip_reass_free_complete_datagram          0x0800828d   Thumb Code   274  ip4_frag.o(i.ip_reass_free_complete_datagram)
    i.ip_reass_remove_oldest_datagram        0x0800846c   Section        0  ip4_frag.o(i.ip_reass_remove_oldest_datagram)
    ip_reass_remove_oldest_datagram          0x0800846d   Thumb Code   130  ip4_frag.o(i.ip_reass_remove_oldest_datagram)
    i.ipfrag_free_pbuf_custom                0x080084f4   Section        0  ip4_frag.o(i.ipfrag_free_pbuf_custom)
    ipfrag_free_pbuf_custom                  0x080084f5   Thumb Code    76  ip4_frag.o(i.ipfrag_free_pbuf_custom)
    i.low_level_init                         0x080085bc   Section        0  ethernetif.o(i.low_level_init)
    low_level_init                           0x080085bd   Thumb Code   142  ethernetif.o(i.low_level_init)
    i.lwip_htonl                             0x08008668   Section        0  def.o(i.lwip_htonl)
    i.lwip_htons                             0x08008682   Section        0  def.o(i.lwip_htons)
    i.lwip_standard_chksum                   0x0800868e   Section        0  inet_chksum.o(i.lwip_standard_chksum)
    i.main                                   0x080086ec   Section        0  main.o(i.main)
    i.mem_free                               0x080087a4   Section        0  mem.o(i.mem_free)
    i.mem_link_valid                         0x08008968   Section        0  mem.o(i.mem_link_valid)
    mem_link_valid                           0x08008969   Thumb Code    82  mem.o(i.mem_link_valid)
    i.mem_malloc                             0x080089c0   Section        0  mem.o(i.mem_malloc)
    i.mem_to_ptr                             0x08008c68   Section        0  mem.o(i.mem_to_ptr)
    mem_to_ptr                               0x08008c69   Thumb Code    12  mem.o(i.mem_to_ptr)
    i.mem_trim                               0x08008c78   Section        0  mem.o(i.mem_trim)
    i.memp_free                              0x08008eac   Section        0  memp.o(i.memp_free)
    i.memp_init_pool                         0x08008f5c   Section        0  memp.o(i.memp_init_pool)
    i.memp_malloc                            0x08008f88   Section        0  memp.o(i.memp_malloc)
    i.netif_add                              0x08009038   Section        0  netif.o(i.netif_add)
    i.netif_get_by_index                     0x0800905c   Section        0  netif.o(i.netif_get_by_index)
    i.netif_issue_reports                    0x08009084   Section        0  netif.o(i.netif_issue_reports)
    netif_issue_reports                      0x08009085   Thumb Code    86  netif.o(i.netif_issue_reports)
    i.netif_loop_output                      0x0800915c   Section        0  netif.o(i.netif_loop_output)
    i.netif_set_down                         0x080092d4   Section        0  netif.o(i.netif_set_down)
    i.netif_set_link_down                    0x080093a0   Section        0  netif.o(i.netif_set_link_down)
    i.netif_set_link_up                      0x0800946c   Section        0  netif.o(i.netif_set_link_up)
    i.netif_set_up                           0x08009540   Section        0  netif.o(i.netif_set_up)
    i.pbuf_add_header                        0x08009600   Section        0  pbuf.o(i.pbuf_add_header)
    i.pbuf_add_header_impl                   0x08009614   Section        0  pbuf.o(i.pbuf_add_header_impl)
    pbuf_add_header_impl                     0x08009615   Thumb Code   130  pbuf.o(i.pbuf_add_header_impl)
    i.pbuf_alloc                             0x080096fc   Section        0  pbuf.o(i.pbuf_alloc)
    i.pbuf_alloc_reference                   0x0800999c   Section        0  pbuf.o(i.pbuf_alloc_reference)
    i.pbuf_alloced_custom                    0x08009a58   Section        0  pbuf.o(i.pbuf_alloced_custom)
    i.pbuf_cat                               0x08009aac   Section        0  pbuf.o(i.pbuf_cat)
    i.pbuf_clen                              0x08009bfc   Section        0  pbuf.o(i.pbuf_clen)
    i.pbuf_copy                              0x08009c10   Section        0  pbuf.o(i.pbuf_copy)
    i.pbuf_copy_partial                      0x08009e38   Section        0  pbuf.o(i.pbuf_copy_partial)
    i.pbuf_free                              0x08009f78   Section        0  pbuf.o(i.pbuf_free)
    i.pbuf_header_force                      0x0800a114   Section        0  pbuf.o(i.pbuf_header_force)
    i.pbuf_header_impl                       0x0800a126   Section        0  pbuf.o(i.pbuf_header_impl)
    pbuf_header_impl                         0x0800a127   Thumb Code    34  pbuf.o(i.pbuf_header_impl)
    i.pbuf_init_alloced_pbuf                 0x0800a148   Section        0  pbuf.o(i.pbuf_init_alloced_pbuf)
    pbuf_init_alloced_pbuf                   0x0800a149   Thumb Code    30  pbuf.o(i.pbuf_init_alloced_pbuf)
    i.pbuf_pool_is_empty                     0x0800a168   Section        0  pbuf.o(i.pbuf_pool_is_empty)
    pbuf_pool_is_empty                       0x0800a169   Thumb Code    12  pbuf.o(i.pbuf_pool_is_empty)
    i.pbuf_realloc                           0x0800a178   Section        0  pbuf.o(i.pbuf_realloc)
    i.pbuf_ref                               0x0800a2e0   Section        0  pbuf.o(i.pbuf_ref)
    i.pbuf_remove_header                     0x0800a37c   Section        0  pbuf.o(i.pbuf_remove_header)
    i.plug_holes                             0x0800a470   Section        0  mem.o(i.plug_holes)
    plug_holes                               0x0800a471   Thumb Code   248  mem.o(i.plug_holes)
    i.ptr_to_mem                             0x0800a648   Section        0  mem.o(i.ptr_to_mem)
    ptr_to_mem                               0x0800a649   Thumb Code    10  mem.o(i.ptr_to_mem)
    i.sys_now                                0x0800a658   Section        0  ethernetif.o(i.sys_now)
    i.sys_timeout                            0x0800a660   Section        0  timeouts.o(i.sys_timeout)
    i.sys_timeout_abs                        0x0800a730   Section        0  timeouts.o(i.sys_timeout_abs)
    sys_timeout_abs                          0x0800a731   Thumb Code   160  timeouts.o(i.sys_timeout_abs)
    i.tcp_abandon                            0x0800a870   Section        0  tcp.o(i.tcp_abandon)
    i.tcp_abort                              0x0800aa44   Section        0  tcp.o(i.tcp_abort)
    i.tcp_alloc                              0x0800aa54   Section        0  tcp.o(i.tcp_alloc)
    i.tcp_close                              0x0800ab14   Section        0  tcp.o(i.tcp_close)
    i.tcp_close_shutdown                     0x0800abc4   Section        0  tcp.o(i.tcp_close_shutdown)
    tcp_close_shutdown                       0x0800abc5   Thumb Code   354  tcp.o(i.tcp_close_shutdown)
    i.tcp_close_shutdown_fin                 0x0800add0   Section        0  tcp.o(i.tcp_close_shutdown_fin)
    tcp_close_shutdown_fin                   0x0800add1   Thumb Code   132  tcp.o(i.tcp_close_shutdown_fin)
    i.tcp_create_segment                     0x0800aeb8   Section        0  tcp_out.o(i.tcp_create_segment)
    tcp_create_segment                       0x0800aeb9   Thumb Code   282  tcp_out.o(i.tcp_create_segment)
    i.tcp_eff_send_mss_netif                 0x0800b08c   Section        0  tcp.o(i.tcp_eff_send_mss_netif)
    i.tcp_enqueue_flags                      0x0800b160   Section        0  tcp_out.o(i.tcp_enqueue_flags)
    i.tcp_fasttmr                            0x0800b420   Section        0  tcp.o(i.tcp_fasttmr)
    i.tcp_free                               0x0800b4bc   Section        0  tcp.o(i.tcp_free)
    i.tcp_free_acked_segments                0x0800b550   Section        0  tcp_in.o(i.tcp_free_acked_segments)
    tcp_free_acked_segments                  0x0800b551   Thumb Code   176  tcp_in.o(i.tcp_free_acked_segments)
    i.tcp_free_listen                        0x0800b6ac   Section        0  tcp.o(i.tcp_free_listen)
    tcp_free_listen                          0x0800b6ad   Thumb Code    40  tcp.o(i.tcp_free_listen)
    i.tcp_free_ooseq                         0x0800b748   Section        0  tcp.o(i.tcp_free_ooseq)
    i.tcp_get_next_optbyte                   0x0800b75c   Section        0  tcp_in.o(i.tcp_get_next_optbyte)
    tcp_get_next_optbyte                     0x0800b75d   Thumb Code    54  tcp_in.o(i.tcp_get_next_optbyte)
    i.tcp_handle_closepend                   0x0800b7a4   Section        0  tcp.o(i.tcp_handle_closepend)
    tcp_handle_closepend                     0x0800b7a5   Thumb Code    48  tcp.o(i.tcp_handle_closepend)
    i.tcp_input                              0x0800b7d8   Section        0  tcp_in.o(i.tcp_input)
    i.tcp_input_delayed_close                0x0800bff0   Section        0  tcp_in.o(i.tcp_input_delayed_close)
    tcp_input_delayed_close                  0x0800bff1   Thumb Code    92  tcp_in.o(i.tcp_input_delayed_close)
    i.tcp_keepalive                          0x0800c0d8   Section        0  tcp_out.o(i.tcp_keepalive)
    i.tcp_kill_prio                          0x0800c1b4   Section        0  tcp.o(i.tcp_kill_prio)
    tcp_kill_prio                            0x0800c1b5   Thumb Code    96  tcp.o(i.tcp_kill_prio)
    i.tcp_kill_state                         0x0800c21c   Section        0  tcp.o(i.tcp_kill_state)
    tcp_kill_state                           0x0800c21d   Thumb Code    94  tcp.o(i.tcp_kill_state)
    i.tcp_kill_timewait                      0x0800c2ec   Section        0  tcp.o(i.tcp_kill_timewait)
    tcp_kill_timewait                        0x0800c2ed   Thumb Code    50  tcp.o(i.tcp_kill_timewait)
    i.tcp_listen_closed                      0x0800c328   Section        0  tcp.o(i.tcp_listen_closed)
    tcp_listen_closed                        0x0800c329   Thumb Code    82  tcp.o(i.tcp_listen_closed)
    i.tcp_listen_input                       0x0800c3fc   Section        0  tcp_in.o(i.tcp_listen_input)
    tcp_listen_input                         0x0800c3fd   Thumb Code   342  tcp_in.o(i.tcp_listen_input)
    i.tcp_next_iss                           0x0800c5f0   Section        0  tcp.o(i.tcp_next_iss)
    i.tcp_oos_insert_segment                 0x0800c6a0   Section        0  tcp_in.o(i.tcp_oos_insert_segment)
    tcp_oos_insert_segment                   0x0800c6a1   Thumb Code   164  tcp_in.o(i.tcp_oos_insert_segment)
    i.tcp_output                             0x0800c7cc   Section        0  tcp_out.o(i.tcp_output)
    i.tcp_output_alloc_header                0x0800cb30   Section        0  tcp_out.o(i.tcp_output_alloc_header)
    tcp_output_alloc_header                  0x0800cb31   Thumb Code    86  tcp_out.o(i.tcp_output_alloc_header)
    i.tcp_output_alloc_header_common         0x0800cc0c   Section        0  tcp_out.o(i.tcp_output_alloc_header_common)
    tcp_output_alloc_header_common           0x0800cc0d   Thumb Code   152  tcp_out.o(i.tcp_output_alloc_header_common)
    i.tcp_output_control_segment             0x0800cd30   Section        0  tcp_out.o(i.tcp_output_control_segment)
    tcp_output_control_segment               0x0800cd31   Thumb Code   114  tcp_out.o(i.tcp_output_control_segment)
    i.tcp_output_fill_options                0x0800ce2c   Section        0  tcp_out.o(i.tcp_output_fill_options)
    tcp_output_fill_options                  0x0800ce2d   Thumb Code   140  tcp_out.o(i.tcp_output_fill_options)
    i.tcp_output_segment                     0x0800cf50   Section        0  tcp_out.o(i.tcp_output_segment)
    tcp_output_segment                       0x0800cf51   Thumb Code   372  tcp_out.o(i.tcp_output_segment)
    i.tcp_output_segment_busy                0x0800d19c   Section        0  tcp_out.o(i.tcp_output_segment_busy)
    tcp_output_segment_busy                  0x0800d19d   Thumb Code    46  tcp_out.o(i.tcp_output_segment_busy)
    i.tcp_parseopt                           0x0800d250   Section        0  tcp_in.o(i.tcp_parseopt)
    tcp_parseopt                             0x0800d251   Thumb Code   174  tcp_in.o(i.tcp_parseopt)
    i.tcp_pcb_purge                          0x0800d380   Section        0  tcp.o(i.tcp_pcb_purge)
    i.tcp_pcb_remove                         0x0800d45c   Section        0  tcp.o(i.tcp_pcb_remove)
    i.tcp_process                            0x0800d634   Section        0  tcp_in.o(i.tcp_process)
    tcp_process                              0x0800d635   Thumb Code  1818  tcp_in.o(i.tcp_process)
    i.tcp_process_refused_data               0x0800dd78   Section        0  tcp.o(i.tcp_process_refused_data)
    i.tcp_receive                            0x0800deac   Section        0  tcp_in.o(i.tcp_receive)
    tcp_receive                              0x0800dead   Thumb Code  3136  tcp_in.o(i.tcp_receive)
    i.tcp_recv_null                          0x0800eb28   Section        0  tcp.o(i.tcp_recv_null)
    i.tcp_recved                             0x0800ebec   Section        0  tcp.o(i.tcp_recved)
    i.tcp_remove_listener                    0x0800ed08   Section        0  tcp.o(i.tcp_remove_listener)
    tcp_remove_listener                      0x0800ed09   Thumb Code    52  tcp.o(i.tcp_remove_listener)
    i.tcp_rexmit                             0x0800edbc   Section        0  tcp_out.o(i.tcp_rexmit)
    i.tcp_rexmit_fast                        0x0800eec0   Section        0  tcp_out.o(i.tcp_rexmit_fast)
    i.tcp_rexmit_rto                         0x0800efcc   Section        0  tcp_out.o(i.tcp_rexmit_rto)
    i.tcp_rexmit_rto_commit                  0x0800f074   Section        0  tcp_out.o(i.tcp_rexmit_rto_commit)
    i.tcp_rexmit_rto_prepare                 0x0800f12c   Section        0  tcp_out.o(i.tcp_rexmit_rto_prepare)
    i.tcp_route                              0x0800f244   Section        0  tcp_out.o(i.tcp_route)
    tcp_route                                0x0800f245   Thumb Code    30  tcp_out.o(i.tcp_route)
    i.tcp_rst                                0x0800f264   Section        0  tcp_out.o(i.tcp_rst)
    i.tcp_seg_copy                           0x0800f38c   Section        0  tcp.o(i.tcp_seg_copy)
    i.tcp_seg_free                           0x0800f440   Section        0  tcp.o(i.tcp_seg_free)
    i.tcp_segs_free                          0x0800f45a   Section        0  tcp.o(i.tcp_segs_free)
    i.tcp_send_empty_ack                     0x0800f474   Section        0  tcp_out.o(i.tcp_send_empty_ack)
    i.tcp_send_fin                           0x0800f5b4   Section        0  tcp_out.o(i.tcp_send_fin)
    i.tcp_slowtmr                            0x0800f694   Section        0  tcp.o(i.tcp_slowtmr)
    i.tcp_split_unsent_seg                   0x0800fdc8   Section        0  tcp_out.o(i.tcp_split_unsent_seg)
    i.tcp_timer_needed                       0x08010098   Section        0  timeouts.o(i.tcp_timer_needed)
    i.tcp_timewait_input                     0x080100d0   Section        0  tcp_in.o(i.tcp_timewait_input)
    tcp_timewait_input                       0x080100d1   Thumb Code   170  tcp_in.o(i.tcp_timewait_input)
    i.tcp_tmr                                0x08010214   Section        0  tcp.o(i.tcp_tmr)
    i.tcp_trigger_input_pcb_close            0x08010238   Section        0  tcp_in.o(i.tcp_trigger_input_pcb_close)
    i.tcp_update_rcv_ann_wnd                 0x0801024c   Section        0  tcp.o(i.tcp_update_rcv_ann_wnd)
    i.tcp_zero_window_probe                  0x08010364   Section        0  tcp_out.o(i.tcp_zero_window_probe)
    i.tcpip_tcp_timer                        0x080104d4   Section        0  timeouts.o(i.tcpip_tcp_timer)
    tcpip_tcp_timer                          0x080104d5   Thumb Code    40  timeouts.o(i.tcpip_tcp_timer)
    i.udp_input                              0x0801050c   Section        0  udp.o(i.udp_input)
    i.udp_input_local_match                  0x08010758   Section        0  udp.o(i.udp_input_local_match)
    udp_input_local_match                    0x08010759   Thumb Code   144  udp.o(i.udp_input_local_match)
    .constdata                               0x08010890   Section       12  ethernetif.o(.constdata)
    .constdata                               0x0801089c   Section       24  stm32h7xx_hal_uart.o(.constdata)
    .constdata                               0x080108b4   Section       16  stm32h7xx_hal_uart_ex.o(.constdata)
    numerator                                0x080108b4   Data           8  stm32h7xx_hal_uart_ex.o(.constdata)
    denominator                              0x080108bc   Data           8  stm32h7xx_hal_uart_ex.o(.constdata)
    .constdata                               0x080108c4   Section       16  system_stm32h7xx.o(.constdata)
    .constdata                               0x080108d4   Section       12  ethernet.o(.constdata)
    .constdata                               0x080108e0   Section      144  memp.o(.constdata)
    .constdata                               0x08010970   Section       80  tcp.o(.constdata)
    tcp_state_str                            0x08010970   Data          44  tcp.o(.constdata)
    tcp_backoff                              0x0801099c   Data          13  tcp.o(.constdata)
    tcp_persist_backoff                      0x080109a9   Data           7  tcp.o(.constdata)
    .constdata                               0x080109c0   Section        8  ip4_addr.o(.constdata)
    .conststring                             0x080109c8   Section      117  tcp.o(.conststring)
    .conststring                             0x08010a40   Section       85  tcp_out.o(.conststring)
    .conststring                             0x08010a98   Section       65  etharp.o(.conststring)
    .data                                    0x24000000   Section       48  main.o(.data)
    .data                                    0x24000030   Section        4  delay.o(.data)
    fac_us                                   0x24000030   Data           4  delay.o(.data)
    .data                                    0x24000034   Section       28  ethernetif.o(.data)
    memp_tab_RX_POOL                         0x24000034   Data           4  ethernetif.o(.data)
    RxAllocStatus                            0x24000038   Data           1  ethernetif.o(.data)
    .data                                    0x24000050   Section       28  lwip.o(.data)
    .data                                    0x2400006c   Section        9  stm32h7xx_hal.o(.data)
    .data                                    0x24000078   Section        8  system_stm32h7xx.o(.data)
    .data                                    0x24000080   Section       12  mem.o(.data)
    ram                                      0x24000080   Data           4  mem.o(.data)
    ram_end                                  0x24000084   Data           4  mem.o(.data)
    lfree                                    0x24000088   Data           4  mem.o(.data)
    .data                                    0x2400008c   Section       36  memp.o(.data)
    memp_tab_UDP_PCB                         0x2400008c   Data           4  memp.o(.data)
    memp_tab_TCP_PCB                         0x24000090   Data           4  memp.o(.data)
    memp_tab_TCP_PCB_LISTEN                  0x24000094   Data           4  memp.o(.data)
    memp_tab_TCP_SEG                         0x24000098   Data           4  memp.o(.data)
    memp_tab_REASSDATA                       0x2400009c   Data           4  memp.o(.data)
    memp_tab_FRAG_PBUF                       0x240000a0   Data           4  memp.o(.data)
    memp_tab_SYS_TIMEOUT                     0x240000a4   Data           4  memp.o(.data)
    memp_tab_PBUF                            0x240000a8   Data           4  memp.o(.data)
    memp_tab_PBUF_POOL                       0x240000ac   Data           4  memp.o(.data)
    .data                                    0x240000b0   Section        9  netif.o(.data)
    netif_num                                0x240000b8   Data           1  netif.o(.data)
    .data                                    0x240000b9   Section        1  pbuf.o(.data)
    .data                                    0x240000bc   Section       32  tcp.o(.data)
    tcp_port                                 0x240000bc   Data           2  tcp.o(.data)
    tcp_timer                                0x240000d5   Data           1  tcp.o(.data)
    tcp_timer_ctr                            0x240000d6   Data           1  tcp.o(.data)
    iss                                      0x240000d8   Data           4  tcp.o(.data)
    .data                                    0x240000dc   Section       40  tcp_in.o(.data)
    tcphdr                                   0x240000dc   Data           4  tcp_in.o(.data)
    tcphdr_optlen                            0x240000e0   Data           2  tcp_in.o(.data)
    tcphdr_opt1len                           0x240000e2   Data           2  tcp_in.o(.data)
    tcphdr_opt2                              0x240000e4   Data           4  tcp_in.o(.data)
    tcp_optidx                               0x240000e8   Data           2  tcp_in.o(.data)
    seqno                                    0x240000ec   Data           4  tcp_in.o(.data)
    ackno                                    0x240000f0   Data           4  tcp_in.o(.data)
    recv_acked                               0x240000f4   Data           2  tcp_in.o(.data)
    tcplen                                   0x240000f6   Data           2  tcp_in.o(.data)
    flags                                    0x240000f8   Data           1  tcp_in.o(.data)
    recv_flags                               0x240000f9   Data           1  tcp_in.o(.data)
    recv_data                                0x240000fc   Data           4  tcp_in.o(.data)
    .data                                    0x24000104   Section       12  timeouts.o(.data)
    next_timeout                             0x24000104   Data           4  timeouts.o(.data)
    current_timeout_due_time                 0x24000108   Data           4  timeouts.o(.data)
    tcpip_tcp_timer_active                   0x2400010c   Data           4  timeouts.o(.data)
    .data                                    0x24000110   Section        8  udp.o(.data)
    udp_port                                 0x24000110   Data           2  udp.o(.data)
    .data                                    0x24000118   Section        2  ip4.o(.data)
    ip_id                                    0x24000118   Data           2  ip4.o(.data)
    .data                                    0x2400011c   Section        6  ip4_frag.o(.data)
    reassdatagrams                           0x2400011c   Data           4  ip4_frag.o(.data)
    ip_reass_pbufcount                       0x24000120   Data           2  ip4_frag.o(.data)
    .data                                    0x24000124   Section        4  stdout.o(.data)
    .bss                                     0x24000128   Section    18040  main.o(.bss)
    .bss                                     0x240047a0   Section      148  usart.o(.bss)
    .bss                                     0x24004834   Section    19084  ethernetif.o(.bss)
    .bss                                     0x240092c0   Section       60  lwip.o(.bss)
    .bss                                     0x240092fc   Section       24  ip.o(.bss)
    .bss                                     0x24009314   Section    11967  memp.o(.bss)
    .bss                                     0x2400c1d4   Section       16  tcp_in.o(.bss)
    inseg                                    0x2400c1d4   Data          16  tcp_in.o(.bss)
    .bss                                     0x2400c1e4   Section      240  etharp.o(.bss)
    arp_table                                0x2400c1e4   Data         240  etharp.o(.bss)
    STACK                                    0x2400c2d8   Section    16384  startup_stm32h743xx.o(STACK)
    .ARM.__AT_0x30040000                     0x30040000   Section       96  ethernetif.o(.ARM.__AT_0x30040000)
    .ARM.__AT_0x30040060                     0x30040060   Section       96  ethernetif.o(.ARM.__AT_0x30040060)

    Global Symbols

    Symbol Name                              Value     Ov Type        Size  Object(Section)

    BuildAttributes$$THM_ISAv4$E$P$D$K$B$S$7EM$VFPv5_D16$PE$PLD8$A:L22UL41UL21$X:L11$S22US41US21$IEEE1$IW$USESV6$~STKCKD$USESV7$~SHL$OSPACE$ROPI$EBA8$MICROLIB$REQ8$PRES8$EABIv2 0x00000000   Number         0  anon$$obj.o ABSOLUTE
    __ARM_use_no_argv                        0x00000000   Number         0  main.o ABSOLUTE
    _printf_a                                0x00000000   Number         0  stubs.o ABSOLUTE
    _printf_c                                0x00000000   Number         0  stubs.o ABSOLUTE
    _printf_charcount                        0x00000000   Number         0  stubs.o ABSOLUTE
    _printf_d                                0x00000000   Number         0  stubs.o ABSOLUTE
    _printf_e                                0x00000000   Number         0  stubs.o ABSOLUTE
    _printf_f                                0x00000000   Number         0  stubs.o ABSOLUTE
    _printf_flags                            0x00000000   Number         0  stubs.o ABSOLUTE
    _printf_fp_dec                           0x00000000   Number         0  stubs.o ABSOLUTE
    _printf_fp_hex                           0x00000000   Number         0  stubs.o ABSOLUTE
    _printf_g                                0x00000000   Number         0  stubs.o ABSOLUTE
    _printf_i                                0x00000000   Number         0  stubs.o ABSOLUTE
    _printf_int_dec                          0x00000000   Number         0  stubs.o ABSOLUTE
    _printf_l                                0x00000000   Number         0  stubs.o ABSOLUTE
    _printf_lc                               0x00000000   Number         0  stubs.o ABSOLUTE
    _printf_ll                               0x00000000   Number         0  stubs.o ABSOLUTE
    _printf_lld                              0x00000000   Number         0  stubs.o ABSOLUTE
    _printf_lli                              0x00000000   Number         0  stubs.o ABSOLUTE
    _printf_llo                              0x00000000   Number         0  stubs.o ABSOLUTE
    _printf_llu                              0x00000000   Number         0  stubs.o ABSOLUTE
    _printf_llx                              0x00000000   Number         0  stubs.o ABSOLUTE
    _printf_longlong_dec                     0x00000000   Number         0  stubs.o ABSOLUTE
    _printf_longlong_hex                     0x00000000   Number         0  stubs.o ABSOLUTE
    _printf_longlong_oct                     0x00000000   Number         0  stubs.o ABSOLUTE
    _printf_ls                               0x00000000   Number         0  stubs.o ABSOLUTE
    _printf_mbtowc                           0x00000000   Number         0  stubs.o ABSOLUTE
    _printf_n                                0x00000000   Number         0  stubs.o ABSOLUTE
    _printf_o                                0x00000000   Number         0  stubs.o ABSOLUTE
    _printf_p                                0x00000000   Number         0  stubs.o ABSOLUTE
    _printf_percent                          0x00000000   Number         0  stubs.o ABSOLUTE
    _printf_pre_padding                      0x00000000   Number         0  stubs.o ABSOLUTE
    _printf_return_value                     0x00000000   Number         0  stubs.o ABSOLUTE
    _printf_s                                0x00000000   Number         0  stubs.o ABSOLUTE
    _printf_sizespec                         0x00000000   Number         0  stubs.o ABSOLUTE
    _printf_str                              0x00000000   Number         0  stubs.o ABSOLUTE
    _printf_truncate_signed                  0x00000000   Number         0  stubs.o ABSOLUTE
    _printf_truncate_unsigned                0x00000000   Number         0  stubs.o ABSOLUTE
    _printf_u                                0x00000000   Number         0  stubs.o ABSOLUTE
    _printf_wc                               0x00000000   Number         0  stubs.o ABSOLUTE
    _printf_wctomb                           0x00000000   Number         0  stubs.o ABSOLUTE
    _printf_widthprec                        0x00000000   Number         0  stubs.o ABSOLUTE
    _printf_x                                0x00000000   Number         0  stubs.o ABSOLUTE
    __arm_fini_                               - Undefined Weak Reference
    __cpp_initialize__aeabi_                  - Undefined Weak Reference
    __cxa_finalize                            - Undefined Weak Reference
    __decompress                              - Undefined Weak Reference
    _clock_init                               - Undefined Weak Reference
    _microlib_exit                            - Undefined Weak Reference
    __Vectors_Size                           0x00000298   Number         0  startup_stm32h743xx.o ABSOLUTE
    __Vectors                                0x08000000   Data           4  startup_stm32h743xx.o(RESET)
    __Vectors_End                            0x08000298   Data           0  startup_stm32h743xx.o(RESET)
    __main                                   0x08000299   Thumb Code     0  entry.o(.ARM.Collect$$$$00000000)
    _main_stk                                0x08000299   Thumb Code     0  entry2.o(.ARM.Collect$$$$00000001)
    _main_scatterload                        0x0800029d   Thumb Code     0  entry5.o(.ARM.Collect$$$$00000004)
    __main_after_scatterload                 0x080002a1   Thumb Code     0  entry5.o(.ARM.Collect$$$$00000004)
    _main_clock                              0x080002a1   Thumb Code     0  entry7b.o(.ARM.Collect$$$$00000008)
    _main_cpp_init                           0x080002a1   Thumb Code     0  entry8b.o(.ARM.Collect$$$$0000000A)
    _main_init                               0x080002a1   Thumb Code     0  entry9a.o(.ARM.Collect$$$$0000000B)
    __rt_lib_shutdown_fini                   0x080002a9   Thumb Code     0  entry12b.o(.ARM.Collect$$$$0000000E)
    __rt_final_cpp                           0x080002ad   Thumb Code     0  entry10a.o(.ARM.Collect$$$$0000000F)
    __rt_final_exit                          0x080002ad   Thumb Code     0  entry11a.o(.ARM.Collect$$$$00000011)
    Reset_Handler                            0x080002b1   Thumb Code     8  startup_stm32h743xx.o(.text)
    ADC3_IRQHandler                          0x080002cb   Thumb Code     0  startup_stm32h743xx.o(.text)
    ADC_IRQHandler                           0x080002cb   Thumb Code     0  startup_stm32h743xx.o(.text)
    BDMA_Channel0_IRQHandler                 0x080002cb   Thumb Code     0  startup_stm32h743xx.o(.text)
    BDMA_Channel1_IRQHandler                 0x080002cb   Thumb Code     0  startup_stm32h743xx.o(.text)
    BDMA_Channel2_IRQHandler                 0x080002cb   Thumb Code     0  startup_stm32h743xx.o(.text)
    BDMA_Channel3_IRQHandler                 0x080002cb   Thumb Code     0  startup_stm32h743xx.o(.text)
    BDMA_Channel4_IRQHandler                 0x080002cb   Thumb Code     0  startup_stm32h743xx.o(.text)
    BDMA_Channel5_IRQHandler                 0x080002cb   Thumb Code     0  startup_stm32h743xx.o(.text)
    BDMA_Channel6_IRQHandler                 0x080002cb   Thumb Code     0  startup_stm32h743xx.o(.text)
    BDMA_Channel7_IRQHandler                 0x080002cb   Thumb Code     0  startup_stm32h743xx.o(.text)
    CEC_IRQHandler                           0x080002cb   Thumb Code     0  startup_stm32h743xx.o(.text)
    COMP1_IRQHandler                         0x080002cb   Thumb Code     0  startup_stm32h743xx.o(.text)
    CRS_IRQHandler                           0x080002cb   Thumb Code     0  startup_stm32h743xx.o(.text)
    DCMI_IRQHandler                          0x080002cb   Thumb Code     0  startup_stm32h743xx.o(.text)
    DFSDM1_FLT0_IRQHandler                   0x080002cb   Thumb Code     0  startup_stm32h743xx.o(.text)
    DFSDM1_FLT1_IRQHandler                   0x080002cb   Thumb Code     0  startup_stm32h743xx.o(.text)
    DFSDM1_FLT2_IRQHandler                   0x080002cb   Thumb Code     0  startup_stm32h743xx.o(.text)
    DFSDM1_FLT3_IRQHandler                   0x080002cb   Thumb Code     0  startup_stm32h743xx.o(.text)
    DMA1_Stream0_IRQHandler                  0x080002cb   Thumb Code     0  startup_stm32h743xx.o(.text)
    DMA1_Stream1_IRQHandler                  0x080002cb   Thumb Code     0  startup_stm32h743xx.o(.text)
    DMA1_Stream2_IRQHandler                  0x080002cb   Thumb Code     0  startup_stm32h743xx.o(.text)
    DMA1_Stream3_IRQHandler                  0x080002cb   Thumb Code     0  startup_stm32h743xx.o(.text)
    DMA1_Stream4_IRQHandler                  0x080002cb   Thumb Code     0  startup_stm32h743xx.o(.text)
    DMA1_Stream5_IRQHandler                  0x080002cb   Thumb Code     0  startup_stm32h743xx.o(.text)
    DMA1_Stream6_IRQHandler                  0x080002cb   Thumb Code     0  startup_stm32h743xx.o(.text)
    DMA1_Stream7_IRQHandler                  0x080002cb   Thumb Code     0  startup_stm32h743xx.o(.text)
    DMA2D_IRQHandler                         0x080002cb   Thumb Code     0  startup_stm32h743xx.o(.text)
    DMA2_Stream0_IRQHandler                  0x080002cb   Thumb Code     0  startup_stm32h743xx.o(.text)
    DMA2_Stream1_IRQHandler                  0x080002cb   Thumb Code     0  startup_stm32h743xx.o(.text)
    DMA2_Stream2_IRQHandler                  0x080002cb   Thumb Code     0  startup_stm32h743xx.o(.text)
    DMA2_Stream3_IRQHandler                  0x080002cb   Thumb Code     0  startup_stm32h743xx.o(.text)
    DMA2_Stream4_IRQHandler                  0x080002cb   Thumb Code     0  startup_stm32h743xx.o(.text)
    DMA2_Stream5_IRQHandler                  0x080002cb   Thumb Code     0  startup_stm32h743xx.o(.text)
    DMA2_Stream6_IRQHandler                  0x080002cb   Thumb Code     0  startup_stm32h743xx.o(.text)
    DMA2_Stream7_IRQHandler                  0x080002cb   Thumb Code     0  startup_stm32h743xx.o(.text)
    DMAMUX1_OVR_IRQHandler                   0x080002cb   Thumb Code     0  startup_stm32h743xx.o(.text)
    DMAMUX2_OVR_IRQHandler                   0x080002cb   Thumb Code     0  startup_stm32h743xx.o(.text)
    ECC_IRQHandler                           0x080002cb   Thumb Code     0  startup_stm32h743xx.o(.text)
    EXTI0_IRQHandler                         0x080002cb   Thumb Code     0  startup_stm32h743xx.o(.text)
    EXTI15_10_IRQHandler                     0x080002cb   Thumb Code     0  startup_stm32h743xx.o(.text)
    EXTI1_IRQHandler                         0x080002cb   Thumb Code     0  startup_stm32h743xx.o(.text)
    EXTI2_IRQHandler                         0x080002cb   Thumb Code     0  startup_stm32h743xx.o(.text)
    EXTI3_IRQHandler                         0x080002cb   Thumb Code     0  startup_stm32h743xx.o(.text)
    EXTI4_IRQHandler                         0x080002cb   Thumb Code     0  startup_stm32h743xx.o(.text)
    EXTI9_5_IRQHandler                       0x080002cb   Thumb Code     0  startup_stm32h743xx.o(.text)
    FDCAN1_IT0_IRQHandler                    0x080002cb   Thumb Code     0  startup_stm32h743xx.o(.text)
    FDCAN1_IT1_IRQHandler                    0x080002cb   Thumb Code     0  startup_stm32h743xx.o(.text)
    FDCAN2_IT0_IRQHandler                    0x080002cb   Thumb Code     0  startup_stm32h743xx.o(.text)
    FDCAN2_IT1_IRQHandler                    0x080002cb   Thumb Code     0  startup_stm32h743xx.o(.text)
    FDCAN_CAL_IRQHandler                     0x080002cb   Thumb Code     0  startup_stm32h743xx.o(.text)
    FLASH_IRQHandler                         0x080002cb   Thumb Code     0  startup_stm32h743xx.o(.text)
    FMC_IRQHandler                           0x080002cb   Thumb Code     0  startup_stm32h743xx.o(.text)
    FPU_IRQHandler                           0x080002cb   Thumb Code     0  startup_stm32h743xx.o(.text)
    HRTIM1_FLT_IRQHandler                    0x080002cb   Thumb Code     0  startup_stm32h743xx.o(.text)
    HRTIM1_Master_IRQHandler                 0x080002cb   Thumb Code     0  startup_stm32h743xx.o(.text)
    HRTIM1_TIMA_IRQHandler                   0x080002cb   Thumb Code     0  startup_stm32h743xx.o(.text)
    HRTIM1_TIMB_IRQHandler                   0x080002cb   Thumb Code     0  startup_stm32h743xx.o(.text)
    HRTIM1_TIMC_IRQHandler                   0x080002cb   Thumb Code     0  startup_stm32h743xx.o(.text)
    HRTIM1_TIMD_IRQHandler                   0x080002cb   Thumb Code     0  startup_stm32h743xx.o(.text)
    HRTIM1_TIME_IRQHandler                   0x080002cb   Thumb Code     0  startup_stm32h743xx.o(.text)
    HSEM1_IRQHandler                         0x080002cb   Thumb Code     0  startup_stm32h743xx.o(.text)
    I2C1_ER_IRQHandler                       0x080002cb   Thumb Code     0  startup_stm32h743xx.o(.text)
    I2C1_EV_IRQHandler                       0x080002cb   Thumb Code     0  startup_stm32h743xx.o(.text)
    I2C2_ER_IRQHandler                       0x080002cb   Thumb Code     0  startup_stm32h743xx.o(.text)
    I2C2_EV_IRQHandler                       0x080002cb   Thumb Code     0  startup_stm32h743xx.o(.text)
    I2C3_ER_IRQHandler                       0x080002cb   Thumb Code     0  startup_stm32h743xx.o(.text)
    I2C3_EV_IRQHandler                       0x080002cb   Thumb Code     0  startup_stm32h743xx.o(.text)
    I2C4_ER_IRQHandler                       0x080002cb   Thumb Code     0  startup_stm32h743xx.o(.text)
    I2C4_EV_IRQHandler                       0x080002cb   Thumb Code     0  startup_stm32h743xx.o(.text)
    JPEG_IRQHandler                          0x080002cb   Thumb Code     0  startup_stm32h743xx.o(.text)
    LPTIM1_IRQHandler                        0x080002cb   Thumb Code     0  startup_stm32h743xx.o(.text)
    LPTIM2_IRQHandler                        0x080002cb   Thumb Code     0  startup_stm32h743xx.o(.text)
    LPTIM3_IRQHandler                        0x080002cb   Thumb Code     0  startup_stm32h743xx.o(.text)
    LPTIM4_IRQHandler                        0x080002cb   Thumb Code     0  startup_stm32h743xx.o(.text)
    LPTIM5_IRQHandler                        0x080002cb   Thumb Code     0  startup_stm32h743xx.o(.text)
    LPUART1_IRQHandler                       0x080002cb   Thumb Code     0  startup_stm32h743xx.o(.text)
    LTDC_ER_IRQHandler                       0x080002cb   Thumb Code     0  startup_stm32h743xx.o(.text)
    LTDC_IRQHandler                          0x080002cb   Thumb Code     0  startup_stm32h743xx.o(.text)
    MDIOS_IRQHandler                         0x080002cb   Thumb Code     0  startup_stm32h743xx.o(.text)
    MDIOS_WKUP_IRQHandler                    0x080002cb   Thumb Code     0  startup_stm32h743xx.o(.text)
    MDMA_IRQHandler                          0x080002cb   Thumb Code     0  startup_stm32h743xx.o(.text)
    OTG_FS_EP1_IN_IRQHandler                 0x080002cb   Thumb Code     0  startup_stm32h743xx.o(.text)
    OTG_FS_EP1_OUT_IRQHandler                0x080002cb   Thumb Code     0  startup_stm32h743xx.o(.text)
    OTG_FS_IRQHandler                        0x080002cb   Thumb Code     0  startup_stm32h743xx.o(.text)
    OTG_FS_WKUP_IRQHandler                   0x080002cb   Thumb Code     0  startup_stm32h743xx.o(.text)
    OTG_HS_EP1_IN_IRQHandler                 0x080002cb   Thumb Code     0  startup_stm32h743xx.o(.text)
    OTG_HS_EP1_OUT_IRQHandler                0x080002cb   Thumb Code     0  startup_stm32h743xx.o(.text)
    OTG_HS_IRQHandler                        0x080002cb   Thumb Code     0  startup_stm32h743xx.o(.text)
    OTG_HS_WKUP_IRQHandler                   0x080002cb   Thumb Code     0  startup_stm32h743xx.o(.text)
    PVD_AVD_IRQHandler                       0x080002cb   Thumb Code     0  startup_stm32h743xx.o(.text)
    QUADSPI_IRQHandler                       0x080002cb   Thumb Code     0  startup_stm32h743xx.o(.text)
    RCC_IRQHandler                           0x080002cb   Thumb Code     0  startup_stm32h743xx.o(.text)
    RNG_IRQHandler                           0x080002cb   Thumb Code     0  startup_stm32h743xx.o(.text)
    RTC_Alarm_IRQHandler                     0x080002cb   Thumb Code     0  startup_stm32h743xx.o(.text)
    RTC_WKUP_IRQHandler                      0x080002cb   Thumb Code     0  startup_stm32h743xx.o(.text)
    SAI1_IRQHandler                          0x080002cb   Thumb Code     0  startup_stm32h743xx.o(.text)
    SAI2_IRQHandler                          0x080002cb   Thumb Code     0  startup_stm32h743xx.o(.text)
    SAI3_IRQHandler                          0x080002cb   Thumb Code     0  startup_stm32h743xx.o(.text)
    SAI4_IRQHandler                          0x080002cb   Thumb Code     0  startup_stm32h743xx.o(.text)
    SDMMC1_IRQHandler                        0x080002cb   Thumb Code     0  startup_stm32h743xx.o(.text)
    SDMMC2_IRQHandler                        0x080002cb   Thumb Code     0  startup_stm32h743xx.o(.text)
    SPDIF_RX_IRQHandler                      0x080002cb   Thumb Code     0  startup_stm32h743xx.o(.text)
    SPI1_IRQHandler                          0x080002cb   Thumb Code     0  startup_stm32h743xx.o(.text)
    SPI2_IRQHandler                          0x080002cb   Thumb Code     0  startup_stm32h743xx.o(.text)
    SPI3_IRQHandler                          0x080002cb   Thumb Code     0  startup_stm32h743xx.o(.text)
    SPI4_IRQHandler                          0x080002cb   Thumb Code     0  startup_stm32h743xx.o(.text)
    SPI5_IRQHandler                          0x080002cb   Thumb Code     0  startup_stm32h743xx.o(.text)
    SPI6_IRQHandler                          0x080002cb   Thumb Code     0  startup_stm32h743xx.o(.text)
    SWPMI1_IRQHandler                        0x080002cb   Thumb Code     0  startup_stm32h743xx.o(.text)
    TAMP_STAMP_IRQHandler                    0x080002cb   Thumb Code     0  startup_stm32h743xx.o(.text)
    TIM15_IRQHandler                         0x080002cb   Thumb Code     0  startup_stm32h743xx.o(.text)
    TIM16_IRQHandler                         0x080002cb   Thumb Code     0  startup_stm32h743xx.o(.text)
    TIM17_IRQHandler                         0x080002cb   Thumb Code     0  startup_stm32h743xx.o(.text)
    TIM1_BRK_IRQHandler                      0x080002cb   Thumb Code     0  startup_stm32h743xx.o(.text)
    TIM1_CC_IRQHandler                       0x080002cb   Thumb Code     0  startup_stm32h743xx.o(.text)
    TIM1_TRG_COM_IRQHandler                  0x080002cb   Thumb Code     0  startup_stm32h743xx.o(.text)
    TIM1_UP_IRQHandler                       0x080002cb   Thumb Code     0  startup_stm32h743xx.o(.text)
    TIM2_IRQHandler                          0x080002cb   Thumb Code     0  startup_stm32h743xx.o(.text)
    TIM3_IRQHandler                          0x080002cb   Thumb Code     0  startup_stm32h743xx.o(.text)
    TIM4_IRQHandler                          0x080002cb   Thumb Code     0  startup_stm32h743xx.o(.text)
    TIM5_IRQHandler                          0x080002cb   Thumb Code     0  startup_stm32h743xx.o(.text)
    TIM6_DAC_IRQHandler                      0x080002cb   Thumb Code     0  startup_stm32h743xx.o(.text)
    TIM7_IRQHandler                          0x080002cb   Thumb Code     0  startup_stm32h743xx.o(.text)
    TIM8_BRK_TIM12_IRQHandler                0x080002cb   Thumb Code     0  startup_stm32h743xx.o(.text)
    TIM8_CC_IRQHandler                       0x080002cb   Thumb Code     0  startup_stm32h743xx.o(.text)
    TIM8_TRG_COM_TIM14_IRQHandler            0x080002cb   Thumb Code     0  startup_stm32h743xx.o(.text)
    TIM8_UP_TIM13_IRQHandler                 0x080002cb   Thumb Code     0  startup_stm32h743xx.o(.text)
    UART4_IRQHandler                         0x080002cb   Thumb Code     0  startup_stm32h743xx.o(.text)
    UART5_IRQHandler                         0x080002cb   Thumb Code     0  startup_stm32h743xx.o(.text)
    UART7_IRQHandler                         0x080002cb   Thumb Code     0  startup_stm32h743xx.o(.text)
    UART8_IRQHandler                         0x080002cb   Thumb Code     0  startup_stm32h743xx.o(.text)
    USART2_IRQHandler                        0x080002cb   Thumb Code     0  startup_stm32h743xx.o(.text)
    USART3_IRQHandler                        0x080002cb   Thumb Code     0  startup_stm32h743xx.o(.text)
    USART6_IRQHandler                        0x080002cb   Thumb Code     0  startup_stm32h743xx.o(.text)
    WAKEUP_PIN_IRQHandler                    0x080002cb   Thumb Code     0  startup_stm32h743xx.o(.text)
    WWDG_IRQHandler                          0x080002cb   Thumb Code     0  startup_stm32h743xx.o(.text)
    __aeabi_uldivmod                         0x080002d5   Thumb Code    98  uldiv.o(.text)
    ___aeabi_memcpy4$move                    0x08000337   Thumb Code     0  memmovea.o(.text)
    ___aeabi_memcpy8$move                    0x08000337   Thumb Code     0  memmovea.o(.text)
    __aeabi_memcpy                           0x08000337   Thumb Code    64  memmovea.o(.text)
    __aeabi_memmove                          0x08000337   Thumb Code     0  memmovea.o(.text)
    __aeabi_memmove4                         0x08000337   Thumb Code     0  memmovea.o(.text)
    __aeabi_memmove8                         0x08000337   Thumb Code     0  memmovea.o(.text)
    __aeabi_memset                           0x08000377   Thumb Code    14  memseta.o(.text)
    __aeabi_memset4                          0x08000377   Thumb Code     0  memseta.o(.text)
    __aeabi_memset8                          0x08000377   Thumb Code     0  memseta.o(.text)
    __aeabi_memclr                           0x08000385   Thumb Code     4  memseta.o(.text)
    __aeabi_memclr4                          0x08000385   Thumb Code     0  memseta.o(.text)
    __aeabi_memclr8                          0x08000385   Thumb Code     0  memseta.o(.text)
    _memset$wrapper                          0x08000389   Thumb Code    18  memseta.o(.text)
    memcmp                                   0x0800039b   Thumb Code    26  memcmp.o(.text)
    __aeabi_uidiv                            0x080003b5   Thumb Code     0  uidiv.o(.text)
    __aeabi_uidivmod                         0x080003b5   Thumb Code    44  uidiv.o(.text)
    __aeabi_llsl                             0x080003e1   Thumb Code    30  llshl.o(.text)
    _ll_shift_l                              0x080003e1   Thumb Code     0  llshl.o(.text)
    __aeabi_llsr                             0x080003ff   Thumb Code    32  llushr.o(.text)
    _ll_ushift_r                             0x080003ff   Thumb Code     0  llushr.o(.text)
    __scatterload                            0x08000421   Thumb Code    28  init.o(.text)
    __scatterload_rt2                        0x08000421   Thumb Code     0  init.o(.text)
    Assert_Failed                            0x08000445   Thumb Code     4  main.o(i.Assert_Failed)
    __I$use$semihosting$fputc                0x08000445   Thumb Code     0  iusesemip.o(.text)
    __semihosting_library_function           0x08000445   Thumb Code     0  semi.o(.text)
    BusFault_Handler                         0x08000449   Thumb Code     4  stm32h7xx_it.o(i.BusFault_Handler)
    DMA_RXDescListInit                       0x0800044d   Thumb Code   250  main.o(i.DMA_RXDescListInit)
    DMA_TXDescListInit                       0x08000555   Thumb Code   132  main.o(i.DMA_TXDescListInit)
    DebugMon_Handler                         0x080005dd   Thumb Code     2  stm32h7xx_it.o(i.DebugMon_Handler)
    ETH_CheckFrameReceved                    0x080005e1   Thumb Code    70  main.o(i.ETH_CheckFrameReceved)
    ETH_DMA_MemMalloc                        0x0800063d   Thumb Code    20  main.o(i.ETH_DMA_MemMalloc)
    ETH_IRQHandler                           0x08000669   Thumb Code    18  main.o(i.ETH_IRQHandler)
    ETH_LowLevelFrameRecv_Process            0x08000681   Thumb Code   222  main.o(i.ETH_LowLevelFrameRecv_Process)
    ETH_PHY_IO_DeInit                        0x0800087b   Thumb Code     4  ethernetif.o(i.ETH_PHY_IO_DeInit)
    ETH_PHY_IO_GetTick                       0x0800087f   Thumb Code     8  ethernetif.o(i.ETH_PHY_IO_GetTick)
    ETH_PHY_IO_Init                          0x08000889   Thumb Code    12  ethernetif.o(i.ETH_PHY_IO_Init)
    ETH_PHY_IO_ReadReg                       0x08000899   Thumb Code    32  ethernetif.o(i.ETH_PHY_IO_ReadReg)
    ETH_PHY_IO_WriteReg                      0x080008bd   Thumb Code    32  ethernetif.o(i.ETH_PHY_IO_WriteReg)
    ETH_ReBuildRxDesc                        0x080008e1   Thumb Code    92  main.o(i.ETH_ReBuildRxDesc)
    ETH_RecvCallBack                         0x0800093d   Thumb Code   102  main.o(i.ETH_RecvCallBack)
    ETH_Set_DMA_RxBuff_Sizes                 0x08000bf9   Thumb Code    34  main.o(i.ETH_Set_DMA_RxBuff_Sizes)
    ETH_WKUP_IRQHandler                      0x08000c1d   Thumb Code    10  stm32h7xx_it.o(i.ETH_WKUP_IRQHandler)
    ETH_freshRxDescIdx                       0x08000c2d   Thumb Code    18  main.o(i.ETH_freshRxDescIdx)
    ETH_getActualRxDescPtr                   0x08000c3f   Thumb Code    14  main.o(i.ETH_getActualRxDescPtr)
    Error_Handler                            0x08000c4d   Thumb Code     6  main.o(i.Error_Handler)
    Eth_RecvCofirm                           0x08000c55   Thumb Code     8  main.o(i.Eth_RecvCofirm)
    Eth_wakeupReceiver                       0x08000c61   Thumb Code   102  main.o(i.Eth_wakeupReceiver)
    HAL_DMA_Abort                            0x08000cc9   Thumb Code  1236  stm32h7xx_hal_dma.o(i.HAL_DMA_Abort)
    HAL_DMA_Abort_IT                         0x080011a5   Thumb Code   906  stm32h7xx_hal_dma.o(i.HAL_DMA_Abort_IT)
    HAL_Delay                                0x0800153d   Thumb Code    36  stm32h7xx_hal.o(i.HAL_Delay)
    HAL_ETH_EEECallback                      0x08001565   Thumb Code     2  stm32h7xx_hal_eth.o(i.HAL_ETH_EEECallback)
    HAL_ETH_ErrorCallback                    0x08001567   Thumb Code     2  stm32h7xx_hal_eth.o(i.HAL_ETH_ErrorCallback)
    HAL_ETH_GetMACConfig                     0x08001569   Thumb Code   470  stm32h7xx_hal_eth.o(i.HAL_ETH_GetMACConfig)
    HAL_ETH_IRQHandler                       0x08001741   Thumb Code   444  stm32h7xx_hal_eth.o(i.HAL_ETH_IRQHandler)
    HAL_ETH_Init                             0x08001901   Thumb Code   272  stm32h7xx_hal_eth.o(i.HAL_ETH_Init)
    HAL_ETH_MspInit                          0x08001a1d   Thumb Code   352  ethernetif.o(i.HAL_ETH_MspInit)
    HAL_ETH_PMTCallback                      0x08001b95   Thumb Code     2  stm32h7xx_hal_eth.o(i.HAL_ETH_PMTCallback)
    HAL_ETH_ReadPHYRegister                  0x08001b97   Thumb Code   120  stm32h7xx_hal_eth.o(i.HAL_ETH_ReadPHYRegister)
    HAL_ETH_RxCpltCallback                   0x08001c0f   Thumb Code     2  stm32h7xx_hal_eth.o(i.HAL_ETH_RxCpltCallback)
    HAL_ETH_SetMACConfig                     0x08001c11   Thumb Code    36  stm32h7xx_hal_eth.o(i.HAL_ETH_SetMACConfig)
    HAL_ETH_SetMDIOClockRange                0x08001c35   Thumb Code   100  stm32h7xx_hal_eth.o(i.HAL_ETH_SetMDIOClockRange)
    HAL_ETH_Start_IT                         0x08001cad   Thumb Code   204  stm32h7xx_hal_eth.o(i.HAL_ETH_Start_IT)
    HAL_ETH_Stop                             0x08001d81   Thumb Code   116  stm32h7xx_hal_eth.o(i.HAL_ETH_Stop)
    HAL_ETH_TxCpltCallback                   0x08001df5   Thumb Code     2  stm32h7xx_hal_eth.o(i.HAL_ETH_TxCpltCallback)
    HAL_ETH_WakeUpCallback                   0x08001df7   Thumb Code     2  stm32h7xx_hal_eth.o(i.HAL_ETH_WakeUpCallback)
    HAL_ETH_WritePHYRegister                 0x08001df9   Thumb Code   118  stm32h7xx_hal_eth.o(i.HAL_ETH_WritePHYRegister)
    HAL_GPIO_Init                            0x08001e79   Thumb Code   456  stm32h7xx_hal_gpio.o(i.HAL_GPIO_Init)
    HAL_GPIO_ReadPin                         0x08002075   Thumb Code    16  stm32h7xx_hal_gpio.o(i.HAL_GPIO_ReadPin)
    HAL_GPIO_WritePin                        0x08002085   Thumb Code    12  stm32h7xx_hal_gpio.o(i.HAL_GPIO_WritePin)
    HAL_GetREVID                             0x08002091   Thumb Code     8  stm32h7xx_hal.o(i.HAL_GetREVID)
    HAL_GetTick                              0x0800209d   Thumb Code     6  stm32h7xx_hal.o(i.HAL_GetTick)
    HAL_IncTick                              0x080020a9   Thumb Code    16  stm32h7xx_hal.o(i.HAL_IncTick)
    HAL_Init                                 0x080020c1   Thumb Code    80  stm32h7xx_hal.o(i.HAL_Init)
    HAL_InitTick                             0x08002121   Thumb Code    74  stm32h7xx_hal.o(i.HAL_InitTick)
    HAL_MPU_ConfigRegion                     0x08002179   Thumb Code    88  stm32h7xx_hal_cortex.o(i.HAL_MPU_ConfigRegion)
    HAL_MPU_Disable                          0x080021d5   Thumb Code    26  stm32h7xx_hal_cortex.o(i.HAL_MPU_Disable)
    HAL_MPU_Enable                           0x080021f5   Thumb Code    34  stm32h7xx_hal_cortex.o(i.HAL_MPU_Enable)
    HAL_MspInit                              0x0800221d   Thumb Code    32  stm32h7xx_hal_msp.o(i.HAL_MspInit)
    HAL_NVIC_EnableIRQ                       0x08002241   Thumb Code    40  stm32h7xx_hal_cortex.o(i.HAL_NVIC_EnableIRQ)
    HAL_NVIC_SetPriority                     0x08002269   Thumb Code   122  stm32h7xx_hal_cortex.o(i.HAL_NVIC_SetPriority)
    HAL_NVIC_SetPriorityGrouping             0x080022e5   Thumb Code    32  stm32h7xx_hal_cortex.o(i.HAL_NVIC_SetPriorityGrouping)
    HAL_PWREx_ConfigSupply                   0x0800230d   Thumb Code    90  stm32h7xx_hal_pwr_ex.o(i.HAL_PWREx_ConfigSupply)
    HAL_RCCEx_GetD3PCLK1Freq                 0x0800236d   Thumb Code    26  stm32h7xx_hal_rcc_ex.o(i.HAL_RCCEx_GetD3PCLK1Freq)
    HAL_RCCEx_GetPLL2ClockFreq               0x08002391   Thumb Code   536  stm32h7xx_hal_rcc_ex.o(i.HAL_RCCEx_GetPLL2ClockFreq)
    HAL_RCCEx_GetPLL3ClockFreq               0x080025c1   Thumb Code   536  stm32h7xx_hal_rcc_ex.o(i.HAL_RCCEx_GetPLL3ClockFreq)
    HAL_RCCEx_PeriphCLKConfig                0x080027f1   Thumb Code  3432  stm32h7xx_hal_rcc_ex.o(i.HAL_RCCEx_PeriphCLKConfig)
    HAL_RCC_ClockConfig                      0x08003559   Thumb Code   774  stm32h7xx_hal_rcc.o(i.HAL_RCC_ClockConfig)
    HAL_RCC_GetHCLKFreq                      0x08003879   Thumb Code    60  stm32h7xx_hal_rcc.o(i.HAL_RCC_GetHCLKFreq)
    HAL_RCC_GetPCLK1Freq                     0x080038c5   Thumb Code    26  stm32h7xx_hal_rcc.o(i.HAL_RCC_GetPCLK1Freq)
    HAL_RCC_GetPCLK2Freq                     0x080038e9   Thumb Code    26  stm32h7xx_hal_rcc.o(i.HAL_RCC_GetPCLK2Freq)
    HAL_RCC_GetSysClockFreq                  0x0800390d   Thumb Code   524  stm32h7xx_hal_rcc.o(i.HAL_RCC_GetSysClockFreq)
    HAL_RCC_OscConfig                        0x08003b39   Thumb Code  2130  stm32h7xx_hal_rcc.o(i.HAL_RCC_OscConfig)
    HAL_SYSCFG_ETHInterfaceSelect            0x08004391   Thumb Code    16  stm32h7xx_hal.o(i.HAL_SYSCFG_ETHInterfaceSelect)
    HAL_SYSTICK_Config                       0x080043a5   Thumb Code    52  stm32h7xx_hal_cortex.o(i.HAL_SYSTICK_Config)
    HAL_UARTEx_DisableFifoMode               0x080043d9   Thumb Code    78  stm32h7xx_hal_uart_ex.o(i.HAL_UARTEx_DisableFifoMode)
    HAL_UARTEx_RxEventCallback               0x08004427   Thumb Code     2  stm32h7xx_hal_uart.o(i.HAL_UARTEx_RxEventCallback)
    HAL_UARTEx_RxFifoFullCallback            0x08004429   Thumb Code     2  stm32h7xx_hal_uart_ex.o(i.HAL_UARTEx_RxFifoFullCallback)
    HAL_UARTEx_SetRxFifoThreshold            0x0800442b   Thumb Code    94  stm32h7xx_hal_uart_ex.o(i.HAL_UARTEx_SetRxFifoThreshold)
    HAL_UARTEx_SetTxFifoThreshold            0x08004489   Thumb Code    94  stm32h7xx_hal_uart_ex.o(i.HAL_UARTEx_SetTxFifoThreshold)
    HAL_UARTEx_TxFifoEmptyCallback           0x080044e7   Thumb Code     2  stm32h7xx_hal_uart_ex.o(i.HAL_UARTEx_TxFifoEmptyCallback)
    HAL_UARTEx_WakeupCallback                0x080044e9   Thumb Code     2  stm32h7xx_hal_uart_ex.o(i.HAL_UARTEx_WakeupCallback)
    HAL_UART_ErrorCallback                   0x080044eb   Thumb Code     2  stm32h7xx_hal_uart.o(i.HAL_UART_ErrorCallback)
    HAL_UART_IRQHandler                      0x080044ed   Thumb Code  1172  stm32h7xx_hal_uart.o(i.HAL_UART_IRQHandler)
    HAL_UART_Init                            0x08004981   Thumb Code   120  stm32h7xx_hal_uart.o(i.HAL_UART_Init)
    HAL_UART_MspInit                         0x080049f9   Thumb Code   160  usart.o(i.HAL_UART_MspInit)
    HAL_UART_TxCpltCallback                  0x08004aa5   Thumb Code     2  stm32h7xx_hal_uart.o(i.HAL_UART_TxCpltCallback)
    HardFault_Handler                        0x08004aa7   Thumb Code     4  stm32h7xx_it.o(i.HardFault_Handler)
    IIC_Ack                                  0x08004aad   Thumb Code    78  myiic.o(i.IIC_Ack)
    IIC_Init                                 0x08004b01   Thumb Code    78  myiic.o(i.IIC_Init)
    IIC_NAck                                 0x08004b59   Thumb Code    78  myiic.o(i.IIC_NAck)
    IIC_Read_Byte                            0x08004bad   Thumb Code   102  myiic.o(i.IIC_Read_Byte)
    IIC_Send_Byte                            0x08004c19   Thumb Code   118  myiic.o(i.IIC_Send_Byte)
    IIC_Start                                0x08004c95   Thumb Code    78  myiic.o(i.IIC_Start)
    IIC_Stop                                 0x08004ce9   Thumb Code    78  myiic.o(i.IIC_Stop)
    IIC_Wait_Ack                             0x08004d3d   Thumb Code    98  myiic.o(i.IIC_Wait_Ack)
    LAN8742_GetLinkState                     0x08004da5   Thumb Code   234  lan8742.o(i.LAN8742_GetLinkState)
    LAN8742_Init                             0x08004e8f   Thumb Code   222  lan8742.o(i.LAN8742_Init)
    LAN8742_RegisterBusIO                    0x08004f6d   Thumb Code    46  lan8742.o(i.LAN8742_RegisterBusIO)
    MAC_AddressSet                           0x08004f9b   Thumb Code    74  main.o(i.MAC_AddressSet)
    MX_GPIO_Init                             0x08005045   Thumb Code   136  gpio.o(i.MX_GPIO_Init)
    MX_LWIP_Init                             0x080050d1   Thumb Code    28  lwip.o(i.MX_LWIP_Init)
    MX_USART1_UART_Init                      0x08005105   Thumb Code    98  usart.o(i.MX_USART1_UART_Init)
    MemManage_Handler                        0x08005171   Thumb Code     4  stm32h7xx_it.o(i.MemManage_Handler)
    NMI_Handler                              0x08005175   Thumb Code     4  stm32h7xx_it.o(i.NMI_Handler)
    PCF8574_Init                             0x08005179   Thumb Code    96  pcf8574.o(i.PCF8574_Init)
    PCF8574_ReadOneByte                      0x080051e1   Thumb Code    34  pcf8574.o(i.PCF8574_ReadOneByte)
    PCF8574_WriteBit                         0x08005203   Thumb Code    38  pcf8574.o(i.PCF8574_WriteBit)
    PCF8574_WriteOneByte                     0x08005229   Thumb Code    40  pcf8574.o(i.PCF8574_WriteOneByte)
    PendSV_Handler                           0x08005251   Thumb Code     2  stm32h7xx_it.o(i.PendSV_Handler)
    SVC_Handler                              0x0800551d   Thumb Code     2  stm32h7xx_it.o(i.SVC_Handler)
    SysTick_Handler                          0x0800551f   Thumb Code     8  stm32h7xx_it.o(i.SysTick_Handler)
    SystemClock_Config                       0x08005529   Thumb Code   296  main.o(i.SystemClock_Config)
    SystemInit                               0x0800565d   Thumb Code   212  system_stm32h7xx.o(i.SystemInit)
    UART_AdvFeatureConfig                    0x080057b1   Thumb Code   248  stm32h7xx_hal_uart.o(i.UART_AdvFeatureConfig)
    UART_CheckIdleState                      0x080058a9   Thumb Code   234  stm32h7xx_hal_uart.o(i.UART_CheckIdleState)
    UART_SetConfig                           0x08005a49   Thumb Code  1402  stm32h7xx_hal_uart.o(i.UART_SetConfig)
    UART_WaitOnFlagUntilTimeout              0x08005fd5   Thumb Code   162  stm32h7xx_hal_uart.o(i.UART_WaitOnFlagUntilTimeout)
    USART1_IRQHandler                        0x08006079   Thumb Code    10  stm32h7xx_it.o(i.USART1_IRQHandler)
    UsageFault_Handler                       0x08006089   Thumb Code     4  stm32h7xx_it.o(i.UsageFault_Handler)
    __0printf$3                              0x0800608d   Thumb Code    22  printf3.o(i.__0printf$3)
    __1printf$3                              0x0800608d   Thumb Code     0  printf3.o(i.__0printf$3)
    __2printf                                0x0800608d   Thumb Code     0  printf3.o(i.__0printf$3)
    __scatterload_copy                       0x080060e5   Thumb Code    14  handlers.o(i.__scatterload_copy)
    __scatterload_null                       0x080060f3   Thumb Code     2  handlers.o(i.__scatterload_null)
    __scatterload_zeroinit                   0x080060f5   Thumb Code    14  handlers.o(i.__scatterload_zeroinit)
    delay_ms                                 0x080062bd   Thumb Code    24  delay.o(i.delay_ms)
    delay_us                                 0x080062d5   Thumb Code    68  delay.o(i.delay_us)
    etharp_cleanup_netif                     0x0800647d   Thumb Code    50  etharp.o(i.etharp_cleanup_netif)
    etharp_input                             0x080067f5   Thumb Code   202  etharp.o(i.etharp_input)
    etharp_request                           0x08006abd   Thumb Code    18  etharp.o(i.etharp_request)
    ethernet_input                           0x08006c5d   Thumb Code   190  ethernet.o(i.ethernet_input)
    ethernet_link_check_state                0x08006d21   Thumb Code   196  ethernetif.o(i.ethernet_link_check_state)
    ethernet_output                          0x08006ded   Thumb Code   112  ethernet.o(i.ethernet_output)
    ethernetif_init                          0x08006ef1   Thumb Code    14  ethernetif.o(i.ethernetif_init)
    fputc                                    0x08006eff   Thumb Code    18  fputc.o(i.fputc)
    icmp_dest_unreach                        0x08006f11   Thumb Code    18  icmp.o(i.icmp_dest_unreach)
    icmp_input                               0x08006f25   Thumb Code   466  icmp.o(i.icmp_input)
    icmp_time_exceeded                       0x080072ed   Thumb Code    18  icmp.o(i.icmp_time_exceeded)
    inet_chksum                              0x080072ff   Thumb Code    20  inet_chksum.o(i.inet_chksum)
    inet_chksum_pbuf                         0x08007313   Thumb Code    86  inet_chksum.o(i.inet_chksum_pbuf)
    ip4_addr_isbroadcast_u32                 0x08007369   Thumb Code    78  ip4_addr.o(i.ip4_addr_isbroadcast_u32)
    ip4_frag                                 0x080073b9   Thumb Code   536  ip4_frag.o(i.ip4_frag)
    ip4_input                                0x08007685   Thumb Code   402  ip4.o(i.ip4_input)
    ip4_output_if                            0x08007855   Thumb Code    54  ip4.o(i.ip4_output_if)
    ip4_output_if_src                        0x0800788d   Thumb Code   270  ip4.o(i.ip4_output_if_src)
    ip4_reass                                0x08007a3d   Thumb Code   584  ip4_frag.o(i.ip4_reass)
    ip4_route                                0x08007d39   Thumb Code   140  ip4.o(i.ip4_route)
    lwip_htonl                               0x08008669   Thumb Code    26  def.o(i.lwip_htonl)
    lwip_htons                               0x08008683   Thumb Code    12  def.o(i.lwip_htons)
    lwip_standard_chksum                     0x0800868f   Thumb Code    94  inet_chksum.o(i.lwip_standard_chksum)
    main                                     0x080086ed   Thumb Code   162  main.o(i.main)
    mem_free                                 0x080087a5   Thumb Code   194  mem.o(i.mem_free)
    mem_malloc                               0x080089c1   Thumb Code   402  mem.o(i.mem_malloc)
    mem_trim                                 0x08008c79   Thumb Code   388  mem.o(i.mem_trim)
    memp_free                                0x08008ead   Thumb Code    54  memp.o(i.memp_free)
    memp_init_pool                           0x08008f5d   Thumb Code    44  memp.o(i.memp_init_pool)
    memp_malloc                              0x08008f89   Thumb Code    50  memp.o(i.memp_malloc)
    netif_add                                0x08009039   Thumb Code    34  netif.o(i.netif_add)
    netif_get_by_index                       0x0800905d   Thumb Code    36  netif.o(i.netif_get_by_index)
    netif_loop_output                        0x0800915d   Thumb Code   170  netif.o(i.netif_loop_output)
    netif_set_down                           0x080092d5   Thumb Code    78  netif.o(i.netif_set_down)
    netif_set_link_down                      0x080093a1   Thumb Code    76  netif.o(i.netif_set_link_down)
    netif_set_link_up                        0x0800946d   Thumb Code    84  netif.o(i.netif_set_link_up)
    netif_set_up                             0x08009541   Thumb Code    70  netif.o(i.netif_set_up)
    pbuf_add_header                          0x08009601   Thumb Code    18  pbuf.o(i.pbuf_add_header)
    pbuf_alloc                               0x080096fd   Thumb Code   410  pbuf.o(i.pbuf_alloc)
    pbuf_alloc_reference                     0x0800999d   Thumb Code    78  pbuf.o(i.pbuf_alloc_reference)
    pbuf_alloced_custom                      0x08009a59   Thumb Code    82  pbuf.o(i.pbuf_alloced_custom)
    pbuf_cat                                 0x08009aad   Thumb Code   126  pbuf.o(i.pbuf_cat)
    pbuf_clen                                0x08009bfd   Thumb Code    18  pbuf.o(i.pbuf_clen)
    pbuf_copy                                0x08009c11   Thumb Code   304  pbuf.o(i.pbuf_copy)
    pbuf_copy_partial                        0x08009e39   Thumb Code   164  pbuf.o(i.pbuf_copy_partial)
    pbuf_free                                0x08009f79   Thumb Code   230  pbuf.o(i.pbuf_free)
    pbuf_header_force                        0x0800a115   Thumb Code    18  pbuf.o(i.pbuf_header_force)
    pbuf_realloc                             0x0800a179   Thumb Code   194  pbuf.o(i.pbuf_realloc)
    pbuf_ref                                 0x0800a2e1   Thumb Code    48  pbuf.o(i.pbuf_ref)
    pbuf_remove_header                       0x0800a37d   Thumb Code   110  pbuf.o(i.pbuf_remove_header)
    sys_now                                  0x0800a659   Thumb Code     8  ethernetif.o(i.sys_now)
    sys_timeout                              0x0800a661   Thumb Code    58  timeouts.o(i.sys_timeout)
    tcp_abandon                              0x0800a871   Thumb Code   284  tcp.o(i.tcp_abandon)
    tcp_abort                                0x0800aa45   Thumb Code    14  tcp.o(i.tcp_abort)
    tcp_alloc                                0x0800aa55   Thumb Code   174  tcp.o(i.tcp_alloc)
    tcp_close                                0x0800ab15   Thumb Code    64  tcp.o(i.tcp_close)
    tcp_eff_send_mss_netif                   0x0800b08d   Thumb Code    82  tcp.o(i.tcp_eff_send_mss_netif)
    tcp_enqueue_flags                        0x0800b161   Thumb Code   408  tcp_out.o(i.tcp_enqueue_flags)
    tcp_fasttmr                              0x0800b421   Thumb Code   142  tcp.o(i.tcp_fasttmr)
    tcp_free                                 0x0800b4bd   Thumb Code    40  tcp.o(i.tcp_free)
    tcp_free_ooseq                           0x0800b749   Thumb Code    20  tcp.o(i.tcp_free_ooseq)
    tcp_input                                0x0800b7d9   Thumb Code  1994  tcp_in.o(i.tcp_input)
    tcp_keepalive                            0x0800c0d9   Thumb Code    98  tcp_out.o(i.tcp_keepalive)
    tcp_next_iss                             0x0800c5f1   Thumb Code    50  tcp.o(i.tcp_next_iss)
    tcp_output                               0x0800c7cd   Thumb Code   684  tcp_out.o(i.tcp_output)
    tcp_pcb_purge                            0x0800d381   Thumb Code   104  tcp.o(i.tcp_pcb_purge)
    tcp_pcb_remove                           0x0800d45d   Thumb Code   246  tcp.o(i.tcp_pcb_remove)
    tcp_process_refused_data                 0x0800dd79   Thumb Code   180  tcp.o(i.tcp_process_refused_data)
    tcp_recv_null                            0x0800eb29   Thumb Code    78  tcp.o(i.tcp_recv_null)
    tcp_recved                               0x0800ebed   Thumb Code   130  tcp.o(i.tcp_recved)
    tcp_rexmit                               0x0800edbd   Thumb Code   142  tcp_out.o(i.tcp_rexmit)
    tcp_rexmit_fast                          0x0800eec1   Thumb Code   142  tcp_out.o(i.tcp_rexmit_fast)
    tcp_rexmit_rto                           0x0800efcd   Thumb Code    46  tcp_out.o(i.tcp_rexmit_rto)
    tcp_rexmit_rto_commit                    0x0800f075   Thumb Code    56  tcp_out.o(i.tcp_rexmit_rto_commit)
    tcp_rexmit_rto_prepare                   0x0800f12d   Thumb Code   150  tcp_out.o(i.tcp_rexmit_rto_prepare)
    tcp_rst                                  0x0800f265   Thumb Code   146  tcp_out.o(i.tcp_rst)
    tcp_seg_copy                             0x0800f38d   Thumb Code    62  tcp.o(i.tcp_seg_copy)
    tcp_seg_free                             0x0800f441   Thumb Code    26  tcp.o(i.tcp_seg_free)
    tcp_segs_free                            0x0800f45b   Thumb Code    24  tcp.o(i.tcp_segs_free)
    tcp_send_empty_ack                       0x0800f475   Thumb Code   194  tcp_out.o(i.tcp_send_empty_ack)
    tcp_send_fin                             0x0800f5b5   Thumb Code   104  tcp_out.o(i.tcp_send_fin)
    tcp_slowtmr                              0x0800f695   Thumb Code  1702  tcp.o(i.tcp_slowtmr)
    tcp_split_unsent_seg                     0x0800fdc9   Thumb Code   510  tcp_out.o(i.tcp_split_unsent_seg)
    tcp_timer_needed                         0x08010099   Thumb Code    38  timeouts.o(i.tcp_timer_needed)
    tcp_tmr                                  0x08010215   Thumb Code    30  tcp.o(i.tcp_tmr)
    tcp_trigger_input_pcb_close              0x08010239   Thumb Code    14  tcp_in.o(i.tcp_trigger_input_pcb_close)
    tcp_update_rcv_ann_wnd                   0x0801024d   Thumb Code   128  tcp.o(i.tcp_update_rcv_ann_wnd)
    tcp_zero_window_probe                    0x08010365   Thumb Code   238  tcp_out.o(i.tcp_zero_window_probe)
    udp_input                                0x0801050d   Thumb Code   412  udp.o(i.udp_input)
    memp_RX_POOL                             0x08010890   Data          12  ethernetif.o(.constdata)
    UARTPrescTable                           0x0801089c   Data          24  stm32h7xx_hal_uart.o(.constdata)
    D1CorePrescTable                         0x080108c4   Data          16  system_stm32h7xx.o(.constdata)
    ethbroadcast                             0x080108d4   Data           6  ethernet.o(.constdata)
    ethzero                                  0x080108da   Data           6  ethernet.o(.constdata)
    memp_UDP_PCB                             0x080108e0   Data          12  memp.o(.constdata)
    memp_TCP_PCB                             0x080108ec   Data          12  memp.o(.constdata)
    memp_TCP_PCB_LISTEN                      0x080108f8   Data          12  memp.o(.constdata)
    memp_TCP_SEG                             0x08010904   Data          12  memp.o(.constdata)
    memp_REASSDATA                           0x08010910   Data          12  memp.o(.constdata)
    memp_FRAG_PBUF                           0x0801091c   Data          12  memp.o(.constdata)
    memp_SYS_TIMEOUT                         0x08010928   Data          12  memp.o(.constdata)
    memp_PBUF                                0x08010934   Data          12  memp.o(.constdata)
    memp_PBUF_POOL                           0x08010940   Data          12  memp.o(.constdata)
    memp_pools                               0x0801094c   Data          36  memp.o(.constdata)
    tcp_pcb_lists                            0x080109b0   Data          16  tcp.o(.constdata)
    ip_addr_any                              0x080109c0   Data           4  ip4_addr.o(.constdata)
    ip_addr_broadcast                        0x080109c4   Data           4  ip4_addr.o(.constdata)
    Region$$Table$$Base                      0x08010adc   Number         0  anon$$obj.o(Region$$Table)
    Region$$Table$$Limit                     0x08010afc   Number         0  anon$$obj.o(Region$$Table)
    recvConfirmFlag                          0x24000000   Data           1  main.o(.data)
    sendConfirmFlag                          0x24000001   Data           1  main.o(.data)
    ETH_Rx_Frame_Info_p                      0x24000004   Data           4  main.o(.data)
    DMATxDescToSet                           0x24000008   Data           4  main.o(.data)
    DMARxDescToGet                           0x2400000c   Data           4  main.o(.data)
    txBuff_p                                 0x24000010   Data           4  main.o(.data)
    rxBuff_p                                 0x24000014   Data           4  main.o(.data)
    APP_Eth_RxBuff                           0x24000018   Data          24  main.o(.data)
    LAN8742_IOCtx                            0x2400003c   Data          20  ethernetif.o(.data)
    EthernetLinkTimer                        0x24000050   Data           4  lwip.o(.data)
    ipaddr                                   0x24000054   Data           4  lwip.o(.data)
    netmask                                  0x24000058   Data           4  lwip.o(.data)
    gw                                       0x2400005c   Data           4  lwip.o(.data)
    IP_ADDRESS                               0x24000060   Data           4  lwip.o(.data)
    NETMASK_ADDRESS                          0x24000064   Data           4  lwip.o(.data)
    GATEWAY_ADDRESS                          0x24000068   Data           4  lwip.o(.data)
    uwTick                                   0x2400006c   Data           4  stm32h7xx_hal.o(.data)
    uwTickPrio                               0x24000070   Data           4  stm32h7xx_hal.o(.data)
    uwTickFreq                               0x24000074   Data           1  stm32h7xx_hal.o(.data)
    SystemCoreClock                          0x24000078   Data           4  system_stm32h7xx.o(.data)
    SystemD2Clock                            0x2400007c   Data           4  system_stm32h7xx.o(.data)
    netif_list                               0x240000b0   Data           4  netif.o(.data)
    netif_default                            0x240000b4   Data           4  netif.o(.data)
    pbuf_free_ooseq_pending                  0x240000b9   Data           1  pbuf.o(.data)
    tcp_ticks                                0x240000c0   Data           4  tcp.o(.data)
    tcp_bound_pcbs                           0x240000c4   Data           4  tcp.o(.data)
    tcp_listen_pcbs                          0x240000c8   Data           4  tcp.o(.data)
    tcp_active_pcbs                          0x240000cc   Data           4  tcp.o(.data)
    tcp_tw_pcbs                              0x240000d0   Data           4  tcp.o(.data)
    tcp_active_pcbs_changed                  0x240000d4   Data           1  tcp.o(.data)
    tcp_input_pcb                            0x24000100   Data           4  tcp_in.o(.data)
    udp_pcbs                                 0x24000114   Data           4  udp.o(.data)
    __stdout                                 0x24000124   Data           4  stdout.o(.data)
    ETH_Rx_Frame_Info                        0x24000128   Data          40  main.o(.bss)
    TXBuff                                   0x24000150   Data        6000  main.o(.bss)
    RXBuff                                   0x240018c0   Data        6000  main.o(.bss)
    APP_Buff                                 0x24003030   Data        6000  main.o(.bss)
    huart1                                   0x240047a0   Data         148  usart.o(.bss)
    memp_memory_RX_POOL_base                 0x24004834   Data       18819  ethernetif.o(.bss)
    heth                                     0x240091b8   Data         176  ethernetif.o(.bss)
    TxConfig                                 0x24009268   Data          56  ethernetif.o(.bss)
    LAN8742                                  0x240092a0   Data          32  ethernetif.o(.bss)
    gnetif                                   0x240092c0   Data          60  lwip.o(.bss)
    ip_data                                  0x240092fc   Data          24  ip.o(.bss)
    memp_memory_UDP_PCB_base                 0x24009314   Data         131  memp.o(.bss)
    memp_memory_TCP_PCB_base                 0x24009397   Data         783  memp.o(.bss)
    memp_memory_TCP_PCB_LISTEN_base          0x240096a6   Data         227  memp.o(.bss)
    memp_memory_TCP_SEG_base                 0x24009789   Data         259  memp.o(.bss)
    memp_memory_REASSDATA_base               0x2400988c   Data         163  memp.o(.bss)
    memp_memory_FRAG_PBUF_base               0x2400992f   Data         363  memp.o(.bss)
    memp_memory_SYS_TIMEOUT_base             0x24009a9a   Data          51  memp.o(.bss)
    memp_memory_PBUF_base                    0x24009acd   Data         259  memp.o(.bss)
    memp_memory_PBUF_POOL_base               0x24009bd0   Data        9731  memp.o(.bss)
    __initial_sp                             0x240102d8   Data           0  startup_stm32h743xx.o(STACK)
    DMARxDscrTab                             0x30040000   Data          96  ethernetif.o(.ARM.__AT_0x30040000)
    DMATxDscrTab                             0x30040060   Data          96  ethernetif.o(.ARM.__AT_0x30040060)



==============================================================================

Memory Map of the image

  Image Entry point : 0x08000299

  Load Region LR_IROM1 (Base: 0x08000000, Size: 0x00010c24, Max: 0x00200000, ABSOLUTE)

    Execution Region ER_IROM1 (Exec base: 0x08000000, Load base: 0x08000000, Size: 0x00010afc, Max: 0x00200000, ABSOLUTE)

    Exec Addr    Load Addr    Size         Type   Attr      Idx    E Section Name        Object

    0x08000000   0x08000000   0x00000298   Data   RO            3    RESET               startup_stm32h743xx.o
    0x08000298   0x08000298   0x00000000   Code   RO         8685  * .ARM.Collect$$$$00000000  mc_w.l(entry.o)
    0x08000298   0x08000298   0x00000004   Code   RO         9000    .ARM.Collect$$$$00000001  mc_w.l(entry2.o)
    0x0800029c   0x0800029c   0x00000004   Code   RO         9003    .ARM.Collect$$$$00000004  mc_w.l(entry5.o)
    0x080002a0   0x080002a0   0x00000000   Code   RO         9005    .ARM.Collect$$$$00000008  mc_w.l(entry7b.o)
    0x080002a0   0x080002a0   0x00000000   Code   RO         9007    .ARM.Collect$$$$0000000A  mc_w.l(entry8b.o)
    0x080002a0   0x080002a0   0x00000008   Code   RO         9008    .ARM.Collect$$$$0000000B  mc_w.l(entry9a.o)
    0x080002a8   0x080002a8   0x00000004   Code   RO         9015    .ARM.Collect$$$$0000000E  mc_w.l(entry12b.o)
    0x080002ac   0x080002ac   0x00000000   Code   RO         9010    .ARM.Collect$$$$0000000F  mc_w.l(entry10a.o)
    0x080002ac   0x080002ac   0x00000000   Code   RO         9012    .ARM.Collect$$$$00000011  mc_w.l(entry11a.o)
    0x080002ac   0x080002ac   0x00000004   Code   RO         9001    .ARM.Collect$$$$00002712  mc_w.l(entry2.o)
    0x080002b0   0x080002b0   0x00000024   Code   RO            4    .text               startup_stm32h743xx.o
    0x080002d4   0x080002d4   0x00000062   Code   RO         8688    .text               mc_w.l(uldiv.o)
    0x08000336   0x08000336   0x00000040   Code   RO         8723    .text               mc_w.l(memmovea.o)
    0x08000376   0x08000376   0x00000024   Code   RO         8725    .text               mc_w.l(memseta.o)
    0x0800039a   0x0800039a   0x0000001a   Code   RO         8729    .text               mc_w.l(memcmp.o)
    0x080003b4   0x080003b4   0x0000002c   Code   RO         9019    .text               mc_w.l(uidiv.o)
    0x080003e0   0x080003e0   0x0000001e   Code   RO         9021    .text               mc_w.l(llshl.o)
    0x080003fe   0x080003fe   0x00000020   Code   RO         9023    .text               mc_w.l(llushr.o)
    0x0800041e   0x0800041e   0x00000002   PAD
    0x08000420   0x08000420   0x00000024   Code   RO         9045    .text               mc_w.l(init.o)
    0x08000444   0x08000444   0x00000000   Code   RO         9047    .text               mc_w.l(semi.o)
    0x08000444   0x08000444   0x00000000   Code   RO         9052    .text               mc_w.l(iusesemip.o)
    0x08000444   0x08000444   0x00000004   Code   RO           13    i.Assert_Failed     main.o
    0x08000448   0x08000448   0x00000004   Code   RO          510    i.BusFault_Handler  stm32h7xx_it.o
    0x0800044c   0x0800044c   0x00000108   Code   RO           14    i.DMA_RXDescListInit  main.o
    0x08000554   0x08000554   0x00000088   Code   RO           15    i.DMA_TXDescListInit  main.o
    0x080005dc   0x080005dc   0x00000002   Code   RO          511    i.DebugMon_Handler  stm32h7xx_it.o
    0x080005de   0x080005de   0x00000002   PAD
    0x080005e0   0x080005e0   0x0000005c   Code   RO           16    i.ETH_CheckFrameReceved  main.o
    0x0800063c   0x0800063c   0x0000002c   Code   RO           17    i.ETH_DMA_MemMalloc  main.o
    0x08000668   0x08000668   0x00000018   Code   RO           18    i.ETH_IRQHandler    main.o
    0x08000680   0x08000680   0x000000f4   Code   RO           19    i.ETH_LowLevelFrameRecv_Process  main.o
    0x08000774   0x08000774   0x00000106   Code   RO         1184    i.ETH_MACDMAConfig  stm32h7xx_hal_eth.o
    0x0800087a   0x0800087a   0x00000004   Code   RO          852    i.ETH_PHY_IO_DeInit  ethernetif.o
    0x0800087e   0x0800087e   0x00000008   Code   RO          853    i.ETH_PHY_IO_GetTick  ethernetif.o
    0x08000886   0x08000886   0x00000002   PAD
    0x08000888   0x08000888   0x00000010   Code   RO          854    i.ETH_PHY_IO_Init   ethernetif.o
    0x08000898   0x08000898   0x00000024   Code   RO          855    i.ETH_PHY_IO_ReadReg  ethernetif.o
    0x080008bc   0x080008bc   0x00000024   Code   RO          856    i.ETH_PHY_IO_WriteReg  ethernetif.o
    0x080008e0   0x080008e0   0x0000005c   Code   RO           21    i.ETH_ReBuildRxDesc  main.o
    0x0800093c   0x0800093c   0x0000006c   Code   RO           22    i.ETH_RecvCallBack  main.o
    0x080009a8   0x080009a8   0x000000bc   Code   RO         1186    i.ETH_SetDMAConfig  stm32h7xx_hal_eth.o
    0x08000a64   0x08000a64   0x00000194   Code   RO         1187    i.ETH_SetMACConfig  stm32h7xx_hal_eth.o
    0x08000bf8   0x08000bf8   0x00000022   Code   RO           24    i.ETH_Set_DMA_RxBuff_Sizes  main.o
    0x08000c1a   0x08000c1a   0x00000002   PAD
    0x08000c1c   0x08000c1c   0x00000010   Code   RO          512    i.ETH_WKUP_IRQHandler  stm32h7xx_it.o
    0x08000c2c   0x08000c2c   0x00000012   Code   RO           25    i.ETH_freshRxDescIdx  main.o
    0x08000c3e   0x08000c3e   0x0000000e   Code   RO           27    i.ETH_getActualRxDescPtr  main.o
    0x08000c4c   0x08000c4c   0x00000006   Code   RO           30    i.Error_Handler     main.o
    0x08000c52   0x08000c52   0x00000002   PAD
    0x08000c54   0x08000c54   0x0000000c   Code   RO           31    i.Eth_RecvCofirm    main.o
    0x08000c60   0x08000c60   0x00000066   Code   RO           33    i.Eth_wakeupReceiver  main.o
    0x08000cc6   0x08000cc6   0x00000002   PAD
    0x08000cc8   0x08000cc8   0x000004dc   Code   RO         2384    i.HAL_DMA_Abort     stm32h7xx_hal_dma.o
    0x080011a4   0x080011a4   0x00000398   Code   RO         2385    i.HAL_DMA_Abort_IT  stm32h7xx_hal_dma.o
    0x0800153c   0x0800153c   0x00000028   Code   RO         3239    i.HAL_Delay         stm32h7xx_hal.o
    0x08001564   0x08001564   0x00000002   Code   RO         1190    i.HAL_ETH_EEECallback  stm32h7xx_hal_eth.o
    0x08001566   0x08001566   0x00000002   Code   RO         1192    i.HAL_ETH_ErrorCallback  stm32h7xx_hal_eth.o
    0x08001568   0x08001568   0x000001d6   Code   RO         1197    i.HAL_ETH_GetMACConfig  stm32h7xx_hal_eth.o
    0x0800173e   0x0800173e   0x00000002   PAD
    0x08001740   0x08001740   0x000001c0   Code   RO         1203    i.HAL_ETH_IRQHandler  stm32h7xx_hal_eth.o
    0x08001900   0x08001900   0x0000011c   Code   RO         1204    i.HAL_ETH_Init      stm32h7xx_hal_eth.o
    0x08001a1c   0x08001a1c   0x00000178   Code   RO          858    i.HAL_ETH_MspInit   ethernetif.o
    0x08001b94   0x08001b94   0x00000002   Code   RO         1207    i.HAL_ETH_PMTCallback  stm32h7xx_hal_eth.o
    0x08001b96   0x08001b96   0x00000078   Code   RO         1209    i.HAL_ETH_ReadPHYRegister  stm32h7xx_hal_eth.o
    0x08001c0e   0x08001c0e   0x00000002   Code   RO         1215    i.HAL_ETH_RxCpltCallback  stm32h7xx_hal_eth.o
    0x08001c10   0x08001c10   0x00000024   Code   RO         1219    i.HAL_ETH_SetMACConfig  stm32h7xx_hal_eth.o
    0x08001c34   0x08001c34   0x00000078   Code   RO         1221    i.HAL_ETH_SetMDIOClockRange  stm32h7xx_hal_eth.o
    0x08001cac   0x08001cac   0x000000d4   Code   RO         1226    i.HAL_ETH_Start_IT  stm32h7xx_hal_eth.o
    0x08001d80   0x08001d80   0x00000074   Code   RO         1227    i.HAL_ETH_Stop      stm32h7xx_hal_eth.o
    0x08001df4   0x08001df4   0x00000002   Code   RO         1231    i.HAL_ETH_TxCpltCallback  stm32h7xx_hal_eth.o
    0x08001df6   0x08001df6   0x00000002   Code   RO         1236    i.HAL_ETH_WakeUpCallback  stm32h7xx_hal_eth.o
    0x08001df8   0x08001df8   0x00000080   Code   RO         1237    i.HAL_ETH_WritePHYRegister  stm32h7xx_hal_eth.o
    0x08001e78   0x08001e78   0x000001fc   Code   RO         2232    i.HAL_GPIO_Init     stm32h7xx_hal_gpio.o
    0x08002074   0x08002074   0x00000010   Code   RO         2234    i.HAL_GPIO_ReadPin  stm32h7xx_hal_gpio.o
    0x08002084   0x08002084   0x0000000c   Code   RO         2236    i.HAL_GPIO_WritePin  stm32h7xx_hal_gpio.o
    0x08002090   0x08002090   0x0000000c   Code   RO         3250    i.HAL_GetREVID      stm32h7xx_hal.o
    0x0800209c   0x0800209c   0x0000000c   Code   RO         3251    i.HAL_GetTick       stm32h7xx_hal.o
    0x080020a8   0x080020a8   0x00000018   Code   RO         3257    i.HAL_IncTick       stm32h7xx_hal.o
    0x080020c0   0x080020c0   0x00000060   Code   RO         3258    i.HAL_Init          stm32h7xx_hal.o
    0x08002120   0x08002120   0x00000058   Code   RO         3259    i.HAL_InitTick      stm32h7xx_hal.o
    0x08002178   0x08002178   0x0000005c   Code   RO         3087    i.HAL_MPU_ConfigRegion  stm32h7xx_hal_cortex.o
    0x080021d4   0x080021d4   0x00000020   Code   RO         3088    i.HAL_MPU_Disable   stm32h7xx_hal_cortex.o
    0x080021f4   0x080021f4   0x00000028   Code   RO         3089    i.HAL_MPU_Enable    stm32h7xx_hal_cortex.o
    0x0800221c   0x0800221c   0x00000024   Code   RO          598    i.HAL_MspInit       stm32h7xx_hal_msp.o
    0x08002240   0x08002240   0x00000028   Code   RO         3092    i.HAL_NVIC_EnableIRQ  stm32h7xx_hal_cortex.o
    0x08002268   0x08002268   0x0000007a   Code   RO         3098    i.HAL_NVIC_SetPriority  stm32h7xx_hal_cortex.o
    0x080022e2   0x080022e2   0x00000002   PAD
    0x080022e4   0x080022e4   0x00000028   Code   RO         3099    i.HAL_NVIC_SetPriorityGrouping  stm32h7xx_hal_cortex.o
    0x0800230c   0x0800230c   0x00000060   Code   RO         2833    i.HAL_PWREx_ConfigSupply  stm32h7xx_hal_pwr_ex.o
    0x0800236c   0x0800236c   0x00000024   Code   RO         1783    i.HAL_RCCEx_GetD3PCLK1Freq  stm32h7xx_hal_rcc_ex.o
    0x08002390   0x08002390   0x00000230   Code   RO         1785    i.HAL_RCCEx_GetPLL2ClockFreq  stm32h7xx_hal_rcc_ex.o
    0x080025c0   0x080025c0   0x00000230   Code   RO         1786    i.HAL_RCCEx_GetPLL3ClockFreq  stm32h7xx_hal_rcc_ex.o
    0x080027f0   0x080027f0   0x00000d68   Code   RO         1792    i.HAL_RCCEx_PeriphCLKConfig  stm32h7xx_hal_rcc_ex.o
    0x08003558   0x08003558   0x00000320   Code   RO         1668    i.HAL_RCC_ClockConfig  stm32h7xx_hal_rcc.o
    0x08003878   0x08003878   0x0000004c   Code   RO         1673    i.HAL_RCC_GetHCLKFreq  stm32h7xx_hal_rcc.o
    0x080038c4   0x080038c4   0x00000024   Code   RO         1675    i.HAL_RCC_GetPCLK1Freq  stm32h7xx_hal_rcc.o
    0x080038e8   0x080038e8   0x00000024   Code   RO         1676    i.HAL_RCC_GetPCLK2Freq  stm32h7xx_hal_rcc.o
    0x0800390c   0x0800390c   0x0000022c   Code   RO         1677    i.HAL_RCC_GetSysClockFreq  stm32h7xx_hal_rcc.o
    0x08003b38   0x08003b38   0x00000858   Code   RO         1680    i.HAL_RCC_OscConfig  stm32h7xx_hal_rcc.o
    0x08004390   0x08004390   0x00000014   Code   RO         3270    i.HAL_SYSCFG_ETHInterfaceSelect  stm32h7xx_hal.o
    0x080043a4   0x080043a4   0x00000034   Code   RO         3103    i.HAL_SYSTICK_Config  stm32h7xx_hal_cortex.o
    0x080043d8   0x080043d8   0x0000004e   Code   RO         4603    i.HAL_UARTEx_DisableFifoMode  stm32h7xx_hal_uart_ex.o
    0x08004426   0x08004426   0x00000002   Code   RO         4187    i.HAL_UARTEx_RxEventCallback  stm32h7xx_hal_uart.o
    0x08004428   0x08004428   0x00000002   Code   RO         4611    i.HAL_UARTEx_RxFifoFullCallback  stm32h7xx_hal_uart_ex.o
    0x0800442a   0x0800442a   0x0000005e   Code   RO         4612    i.HAL_UARTEx_SetRxFifoThreshold  stm32h7xx_hal_uart_ex.o
    0x08004488   0x08004488   0x0000005e   Code   RO         4613    i.HAL_UARTEx_SetTxFifoThreshold  stm32h7xx_hal_uart_ex.o
    0x080044e6   0x080044e6   0x00000002   Code   RO         4615    i.HAL_UARTEx_TxFifoEmptyCallback  stm32h7xx_hal_uart_ex.o
    0x080044e8   0x080044e8   0x00000002   Code   RO         4616    i.HAL_UARTEx_WakeupCallback  stm32h7xx_hal_uart_ex.o
    0x080044ea   0x080044ea   0x00000002   Code   RO         4203    i.HAL_UART_ErrorCallback  stm32h7xx_hal_uart.o
    0x080044ec   0x080044ec   0x00000494   Code   RO         4206    i.HAL_UART_IRQHandler  stm32h7xx_hal_uart.o
    0x08004980   0x08004980   0x00000078   Code   RO         4207    i.HAL_UART_Init     stm32h7xx_hal_uart.o
    0x080049f8   0x080049f8   0x000000ac   Code   RO          469    i.HAL_UART_MspInit  usart.o
    0x08004aa4   0x08004aa4   0x00000002   Code   RO         4219    i.HAL_UART_TxCpltCallback  stm32h7xx_hal_uart.o
    0x08004aa6   0x08004aa6   0x00000004   Code   RO          513    i.HardFault_Handler  stm32h7xx_it.o
    0x08004aaa   0x08004aaa   0x00000002   PAD
    0x08004aac   0x08004aac   0x00000054   Code   RO          673    i.IIC_Ack           myiic.o
    0x08004b00   0x08004b00   0x00000058   Code   RO          674    i.IIC_Init          myiic.o
    0x08004b58   0x08004b58   0x00000054   Code   RO          675    i.IIC_NAck          myiic.o
    0x08004bac   0x08004bac   0x0000006c   Code   RO          676    i.IIC_Read_Byte     myiic.o
    0x08004c18   0x08004c18   0x0000007c   Code   RO          677    i.IIC_Send_Byte     myiic.o
    0x08004c94   0x08004c94   0x00000054   Code   RO          678    i.IIC_Start         myiic.o
    0x08004ce8   0x08004ce8   0x00000054   Code   RO          679    i.IIC_Stop          myiic.o
    0x08004d3c   0x08004d3c   0x00000068   Code   RO          680    i.IIC_Wait_Ack      myiic.o
    0x08004da4   0x08004da4   0x000000ea   Code   RO         1095    i.LAN8742_GetLinkState  lan8742.o
    0x08004e8e   0x08004e8e   0x000000de   Code   RO         1096    i.LAN8742_Init      lan8742.o
    0x08004f6c   0x08004f6c   0x0000002e   Code   RO         1097    i.LAN8742_RegisterBusIO  lan8742.o
    0x08004f9a   0x08004f9a   0x0000004a   Code   RO           34    i.MAC_AddressSet    main.o
    0x08004fe4   0x08004fe4   0x00000060   Code   RO           35    i.MPU_Config        main.o
    0x08005044   0x08005044   0x0000008c   Code   RO          441    i.MX_GPIO_Init      gpio.o
    0x080050d0   0x080050d0   0x00000034   Code   RO         1009    i.MX_LWIP_Init      lwip.o
    0x08005104   0x08005104   0x0000006c   Code   RO          470    i.MX_USART1_UART_Init  usart.o
    0x08005170   0x08005170   0x00000004   Code   RO          514    i.MemManage_Handler  stm32h7xx_it.o
    0x08005174   0x08005174   0x00000004   Code   RO          515    i.NMI_Handler       stm32h7xx_it.o
    0x08005178   0x08005178   0x00000068   Code   RO          743    i.PCF8574_Init      pcf8574.o
    0x080051e0   0x080051e0   0x00000022   Code   RO          745    i.PCF8574_ReadOneByte  pcf8574.o
    0x08005202   0x08005202   0x00000026   Code   RO          746    i.PCF8574_WriteBit  pcf8574.o
    0x08005228   0x08005228   0x00000028   Code   RO          747    i.PCF8574_WriteOneByte  pcf8574.o
    0x08005250   0x08005250   0x00000002   Code   RO          516    i.PendSV_Handler    stm32h7xx_it.o
    0x08005252   0x08005252   0x00000002   PAD
    0x08005254   0x08005254   0x00000164   Code   RO         1795    i.RCCEx_PLL2_Config  stm32h7xx_hal_rcc_ex.o
    0x080053b8   0x080053b8   0x00000164   Code   RO         1796    i.RCCEx_PLL3_Config  stm32h7xx_hal_rcc_ex.o
    0x0800551c   0x0800551c   0x00000002   Code   RO          517    i.SVC_Handler       stm32h7xx_it.o
    0x0800551e   0x0800551e   0x00000008   Code   RO          518    i.SysTick_Handler   stm32h7xx_it.o
    0x08005526   0x08005526   0x00000002   PAD
    0x08005528   0x08005528   0x00000134   Code   RO           36    i.SystemClock_Config  main.o
    0x0800565c   0x0800565c   0x000000fc   Code   RO         4727    i.SystemInit        system_stm32h7xx.o
    0x08005758   0x08005758   0x00000058   Code   RO         4617    i.UARTEx_SetNbDataToProcess  stm32h7xx_hal_uart_ex.o
    0x080057b0   0x080057b0   0x000000f8   Code   RO         4221    i.UART_AdvFeatureConfig  stm32h7xx_hal_uart.o
    0x080058a8   0x080058a8   0x000000ea   Code   RO         4222    i.UART_CheckIdleState  stm32h7xx_hal_uart.o
    0x08005992   0x08005992   0x00000018   Code   RO         4223    i.UART_DMAAbortOnError  stm32h7xx_hal_uart.o
    0x080059aa   0x080059aa   0x00000002   PAD
    0x080059ac   0x080059ac   0x0000006c   Code   RO         4233    i.UART_EndRxTransfer  stm32h7xx_hal_uart.o
    0x08005a18   0x08005a18   0x00000030   Code   RO         4234    i.UART_EndTransmit_IT  stm32h7xx_hal_uart.o
    0x08005a48   0x08005a48   0x0000058c   Code   RO         4240    i.UART_SetConfig    stm32h7xx_hal_uart.o
    0x08005fd4   0x08005fd4   0x000000a2   Code   RO         4247    i.UART_WaitOnFlagUntilTimeout  stm32h7xx_hal_uart.o
    0x08006076   0x08006076   0x00000002   PAD
    0x08006078   0x08006078   0x00000010   Code   RO          519    i.USART1_IRQHandler  stm32h7xx_it.o
    0x08006088   0x08006088   0x00000004   Code   RO          520    i.UsageFault_Handler  stm32h7xx_it.o
    0x0800608c   0x0800608c   0x00000020   Code   RO         8826    i.__0printf$3       mc_w.l(printf3.o)
    0x080060ac   0x080060ac   0x00000010   Code   RO         3105    i.__NVIC_GetPriorityGrouping  stm32h7xx_hal_cortex.o
    0x080060bc   0x080060bc   0x00000028   Code   RO         3106    i.__NVIC_SetPriority  stm32h7xx_hal_cortex.o
    0x080060e4   0x080060e4   0x0000000e   Code   RO         9059    i.__scatterload_copy  mc_w.l(handlers.o)
    0x080060f2   0x080060f2   0x00000002   Code   RO         9060    i.__scatterload_null  mc_w.l(handlers.o)
    0x080060f4   0x080060f4   0x0000000e   Code   RO         9061    i.__scatterload_zeroinit  mc_w.l(handlers.o)
    0x08006102   0x08006102   0x00000002   PAD
    0x08006104   0x08006104   0x000001b8   Code   RO         8833    i._printf_core      mc_w.l(printf3.o)
    0x080062bc   0x080062bc   0x00000018   Code   RO          623    i.delay_ms          delay.o
    0x080062d4   0x080062d4   0x00000048   Code   RO          624    i.delay_us          delay.o
    0x0800631c   0x0800631c   0x000000ac   Code   RO         6298    i.do_memp_free_pool  memp.o
    0x080063c8   0x080063c8   0x000000b4   Code   RO         6299    i.do_memp_malloc_pool  memp.o
    0x0800647c   0x0800647c   0x00000038   Code   RO         7825    i.etharp_cleanup_netif  etharp.o
    0x080064b4   0x080064b4   0x00000300   Code   RO         7827    i.etharp_find_entry  etharp.o
    0x080067b4   0x080067b4   0x00000040   Code   RO         7828    i.etharp_free_entry  etharp.o
    0x080067f4   0x080067f4   0x0000013c   Code   RO         7830    i.etharp_input      etharp.o
    0x08006930   0x08006930   0x0000018c   Code   RO         7834    i.etharp_raw        etharp.o
    0x08006abc   0x08006abc   0x00000018   Code   RO         7835    i.etharp_request    etharp.o
    0x08006ad4   0x08006ad4   0x0000002c   Code   RO         7836    i.etharp_request_dst  etharp.o
    0x08006b00   0x08006b00   0x0000015c   Code   RO         7838    i.etharp_update_arp_entry  etharp.o
    0x08006c5c   0x08006c5c   0x000000c4   Code   RO         5433    i.ethernet_input    ethernet.o
    0x08006d20   0x08006d20   0x000000cc   Code   RO          862    i.ethernet_link_check_state  ethernetif.o
    0x08006dec   0x08006dec   0x00000104   Code   RO         5434    i.ethernet_output   ethernet.o
    0x08006ef0   0x08006ef0   0x0000000e   Code   RO          863    i.ethernetif_init   ethernetif.o
    0x08006efe   0x08006efe   0x00000012   Code   RO         9016    i.fputc             mc_w.l(fputc.o)
    0x08006f10   0x08006f10   0x00000012   Code   RO         7932    i.icmp_dest_unreach  icmp.o
    0x08006f22   0x08006f22   0x00000002   PAD
    0x08006f24   0x08006f24   0x000002a4   Code   RO         7933    i.icmp_input        icmp.o
    0x080071c8   0x080071c8   0x00000124   Code   RO         7934    i.icmp_send_response  icmp.o
    0x080072ec   0x080072ec   0x00000012   Code   RO         7935    i.icmp_time_exceeded  icmp.o
    0x080072fe   0x080072fe   0x00000014   Code   RO         6016    i.inet_chksum       inet_chksum.o
    0x08007312   0x08007312   0x00000056   Code   RO         6017    i.inet_chksum_pbuf  inet_chksum.o
    0x08007368   0x08007368   0x0000004e   Code   RO         8065    i.ip4_addr_isbroadcast_u32  ip4_addr.o
    0x080073b6   0x080073b6   0x00000002   PAD
    0x080073b8   0x080073b8   0x000002cc   Code   RO         8137    i.ip4_frag          ip4_frag.o
    0x08007684   0x08007684   0x0000019c   Code   RO         8006    i.ip4_input         ip4.o
    0x08007820   0x08007820   0x00000034   Code   RO         8007    i.ip4_input_accept  ip4.o
    0x08007854   0x08007854   0x00000036   Code   RO         8009    i.ip4_output_if     ip4.o
    0x0800788a   0x0800788a   0x00000002   PAD
    0x0800788c   0x0800788c   0x000001b0   Code   RO         8010    i.ip4_output_if_src  ip4.o
    0x08007a3c   0x08007a3c   0x000002fc   Code   RO         8138    i.ip4_reass         ip4_frag.o
    0x08007d38   0x08007d38   0x00000094   Code   RO         8011    i.ip4_route         ip4.o
    0x08007dcc   0x08007dcc   0x0000000a   Code   RO         8139    i.ip_frag_alloc_pbuf_custom_ref  ip4_frag.o
    0x08007dd6   0x08007dd6   0x00000002   PAD
    0x08007dd8   0x08007dd8   0x00000098   Code   RO         8140    i.ip_frag_free_pbuf_custom_ref  ip4_frag.o
    0x08007e70   0x08007e70   0x00000304   Code   RO         8141    i.ip_reass_chain_frag_into_datagram_and_validate  ip4_frag.o
    0x08008174   0x08008174   0x000000c4   Code   RO         8142    i.ip_reass_dequeue_datagram  ip4_frag.o
    0x08008238   0x08008238   0x00000054   Code   RO         8143    i.ip_reass_enqueue_new_datagram  ip4_frag.o
    0x0800828c   0x0800828c   0x000001e0   Code   RO         8144    i.ip_reass_free_complete_datagram  ip4_frag.o
    0x0800846c   0x0800846c   0x00000088   Code   RO         8145    i.ip_reass_remove_oldest_datagram  ip4_frag.o
    0x080084f4   0x080084f4   0x000000c8   Code   RO         8147    i.ipfrag_free_pbuf_custom  ip4_frag.o
    0x080085bc   0x080085bc   0x000000ac   Code   RO          865    i.low_level_init    ethernetif.o
    0x08008668   0x08008668   0x0000001a   Code   RO         5936    i.lwip_htonl        def.o
    0x08008682   0x08008682   0x0000000c   Code   RO         5937    i.lwip_htons        def.o
    0x0800868e   0x0800868e   0x0000005e   Code   RO         6024    i.lwip_standard_chksum  inet_chksum.o
    0x080086ec   0x080086ec   0x000000b8   Code   RO           38    i.main              main.o
    0x080087a4   0x080087a4   0x000001c4   Code   RO         6218    i.mem_free          mem.o
    0x08008968   0x08008968   0x00000058   Code   RO         6220    i.mem_link_valid    mem.o
    0x080089c0   0x080089c0   0x000002a8   Code   RO         6221    i.mem_malloc        mem.o
    0x08008c68   0x08008c68   0x00000010   Code   RO         6222    i.mem_to_ptr        mem.o
    0x08008c78   0x08008c78   0x00000234   Code   RO         6223    i.mem_trim          mem.o
    0x08008eac   0x08008eac   0x000000b0   Code   RO         6300    i.memp_free         memp.o
    0x08008f5c   0x08008f5c   0x0000002c   Code   RO         6303    i.memp_init_pool    memp.o
    0x08008f88   0x08008f88   0x000000b0   Code   RO         6304    i.memp_malloc       memp.o
    0x08009038   0x08009038   0x00000022   Code   RO         6411    i.netif_add         netif.o
    0x0800905a   0x0800905a   0x00000002   PAD
    0x0800905c   0x0800905c   0x00000028   Code   RO         6418    i.netif_get_by_index  netif.o
    0x08009084   0x08009084   0x000000d8   Code   RO         6422    i.netif_issue_reports  netif.o
    0x0800915c   0x0800915c   0x00000178   Code   RO         6423    i.netif_loop_output  netif.o
    0x080092d4   0x080092d4   0x000000cc   Code   RO         6433    i.netif_set_down    netif.o
    0x080093a0   0x080093a0   0x000000cc   Code   RO         6437    i.netif_set_link_down  netif.o
    0x0800946c   0x0800946c   0x000000d4   Code   RO         6438    i.netif_set_link_up  netif.o
    0x08009540   0x08009540   0x000000c0   Code   RO         6440    i.netif_set_up      netif.o
    0x08009600   0x08009600   0x00000012   Code   RO         6633    i.pbuf_add_header   pbuf.o
    0x08009612   0x08009612   0x00000002   PAD
    0x08009614   0x08009614   0x000000e8   Code   RO         6635    i.pbuf_add_header_impl  pbuf.o
    0x080096fc   0x080096fc   0x000002a0   Code   RO         6636    i.pbuf_alloc        pbuf.o
    0x0800999c   0x0800999c   0x000000bc   Code   RO         6637    i.pbuf_alloc_reference  pbuf.o
    0x08009a58   0x08009a58   0x00000052   Code   RO         6638    i.pbuf_alloced_custom  pbuf.o
    0x08009aaa   0x08009aaa   0x00000002   PAD
    0x08009aac   0x08009aac   0x00000150   Code   RO         6639    i.pbuf_cat          pbuf.o
    0x08009bfc   0x08009bfc   0x00000012   Code   RO         6641    i.pbuf_clen         pbuf.o
    0x08009c0e   0x08009c0e   0x00000002   PAD
    0x08009c10   0x08009c10   0x00000228   Code   RO         6644    i.pbuf_copy         pbuf.o
    0x08009e38   0x08009e38   0x00000140   Code   RO         6645    i.pbuf_copy_partial  pbuf.o
    0x08009f78   0x08009f78   0x0000019c   Code   RO         6647    i.pbuf_free         pbuf.o
    0x0800a114   0x0800a114   0x00000012   Code   RO         6653    i.pbuf_header_force  pbuf.o
    0x0800a126   0x0800a126   0x00000022   Code   RO         6654    i.pbuf_header_impl  pbuf.o
    0x0800a148   0x0800a148   0x0000001e   Code   RO         6655    i.pbuf_init_alloced_pbuf  pbuf.o
    0x0800a166   0x0800a166   0x00000002   PAD
    0x0800a168   0x0800a168   0x00000010   Code   RO         6658    i.pbuf_pool_is_empty  pbuf.o
    0x0800a178   0x0800a178   0x00000168   Code   RO         6660    i.pbuf_realloc      pbuf.o
    0x0800a2e0   0x0800a2e0   0x0000009c   Code   RO         6661    i.pbuf_ref          pbuf.o
    0x0800a37c   0x0800a37c   0x000000f4   Code   RO         6662    i.pbuf_remove_header  pbuf.o
    0x0800a470   0x0800a470   0x000001d8   Code   RO         6224    i.plug_holes        mem.o
    0x0800a648   0x0800a648   0x00000010   Code   RO         6225    i.ptr_to_mem        mem.o
    0x0800a658   0x0800a658   0x00000008   Code   RO          869    i.sys_now           ethernetif.o
    0x0800a660   0x0800a660   0x000000d0   Code   RO         7558    i.sys_timeout       timeouts.o
    0x0800a730   0x0800a730   0x00000140   Code   RO         7559    i.sys_timeout_abs   timeouts.o
    0x0800a870   0x0800a870   0x000001d4   Code   RO         6953    i.tcp_abandon       tcp.o
    0x0800aa44   0x0800aa44   0x0000000e   Code   RO         6954    i.tcp_abort         tcp.o
    0x0800aa52   0x0800aa52   0x00000002   PAD
    0x0800aa54   0x0800aa54   0x000000c0   Code   RO         6957    i.tcp_alloc         tcp.o
    0x0800ab14   0x0800ab14   0x000000b0   Code   RO         6961    i.tcp_close         tcp.o
    0x0800abc4   0x0800abc4   0x0000020c   Code   RO         6962    i.tcp_close_shutdown  tcp.o
    0x0800add0   0x0800add0   0x000000e8   Code   RO         6963    i.tcp_close_shutdown_fin  tcp.o
    0x0800aeb8   0x0800aeb8   0x000001d4   Code   RO         7391    i.tcp_create_segment  tcp_out.o
    0x0800b08c   0x0800b08c   0x000000d4   Code   RO         6966    i.tcp_eff_send_mss_netif  tcp.o
    0x0800b160   0x0800b160   0x000002c0   Code   RO         7392    i.tcp_enqueue_flags  tcp_out.o
    0x0800b420   0x0800b420   0x0000009c   Code   RO         6968    i.tcp_fasttmr       tcp.o
    0x0800b4bc   0x0800b4bc   0x00000094   Code   RO         6969    i.tcp_free          tcp.o
    0x0800b550   0x0800b550   0x0000015c   Code   RO         7298    i.tcp_free_acked_segments  tcp_in.o
    0x0800b6ac   0x0800b6ac   0x0000009c   Code   RO         6970    i.tcp_free_listen   tcp.o
    0x0800b748   0x0800b748   0x00000014   Code   RO         6971    i.tcp_free_ooseq    tcp.o
    0x0800b75c   0x0800b75c   0x00000048   Code   RO         7299    i.tcp_get_next_optbyte  tcp_in.o
    0x0800b7a4   0x0800b7a4   0x00000034   Code   RO         6972    i.tcp_handle_closepend  tcp.o
    0x0800b7d8   0x0800b7d8   0x00000818   Code   RO         7300    i.tcp_input         tcp_in.o
    0x0800bff0   0x0800bff0   0x000000e8   Code   RO         7301    i.tcp_input_delayed_close  tcp_in.o
    0x0800c0d8   0x0800c0d8   0x000000dc   Code   RO         7393    i.tcp_keepalive     tcp_out.o
    0x0800c1b4   0x0800c1b4   0x00000068   Code   RO         6974    i.tcp_kill_prio     tcp.o
    0x0800c21c   0x0800c21c   0x000000d0   Code   RO         6975    i.tcp_kill_state    tcp.o
    0x0800c2ec   0x0800c2ec   0x0000003c   Code   RO         6976    i.tcp_kill_timewait  tcp.o
    0x0800c328   0x0800c328   0x000000d4   Code   RO         6977    i.tcp_listen_closed  tcp.o
    0x0800c3fc   0x0800c3fc   0x000001f4   Code   RO         7302    i.tcp_listen_input  tcp_in.o
    0x0800c5f0   0x0800c5f0   0x000000b0   Code   RO         6985    i.tcp_next_iss      tcp.o
    0x0800c6a0   0x0800c6a0   0x0000012c   Code   RO         7303    i.tcp_oos_insert_segment  tcp_in.o
    0x0800c7cc   0x0800c7cc   0x00000364   Code   RO         7394    i.tcp_output        tcp_out.o
    0x0800cb30   0x0800cb30   0x000000dc   Code   RO         7395    i.tcp_output_alloc_header  tcp_out.o
    0x0800cc0c   0x0800cc0c   0x00000124   Code   RO         7396    i.tcp_output_alloc_header_common  tcp_out.o
    0x0800cd30   0x0800cd30   0x000000fc   Code   RO         7397    i.tcp_output_control_segment  tcp_out.o
    0x0800ce2c   0x0800ce2c   0x00000124   Code   RO         7398    i.tcp_output_fill_options  tcp_out.o
    0x0800cf50   0x0800cf50   0x0000024c   Code   RO         7399    i.tcp_output_segment  tcp_out.o
    0x0800d19c   0x0800d19c   0x000000b4   Code   RO         7400    i.tcp_output_segment_busy  tcp_out.o
    0x0800d250   0x0800d250   0x00000130   Code   RO         7304    i.tcp_parseopt      tcp_in.o
    0x0800d380   0x0800d380   0x000000dc   Code   RO         6986    i.tcp_pcb_purge     tcp.o
    0x0800d45c   0x0800d45c   0x000001d8   Code   RO         6987    i.tcp_pcb_remove    tcp.o
    0x0800d634   0x0800d634   0x00000744   Code   RO         7305    i.tcp_process       tcp_in.o
    0x0800dd78   0x0800dd78   0x00000134   Code   RO         6989    i.tcp_process_refused_data  tcp.o
    0x0800deac   0x0800deac   0x00000c7c   Code   RO         7306    i.tcp_receive       tcp_in.o
    0x0800eb28   0x0800eb28   0x000000c4   Code   RO         6991    i.tcp_recv_null     tcp.o
    0x0800ebec   0x0800ebec   0x0000011c   Code   RO         6992    i.tcp_recved        tcp.o
    0x0800ed08   0x0800ed08   0x000000b4   Code   RO         6993    i.tcp_remove_listener  tcp.o
    0x0800edbc   0x0800edbc   0x00000104   Code   RO         7402    i.tcp_rexmit        tcp_out.o
    0x0800eec0   0x0800eec0   0x0000010c   Code   RO         7403    i.tcp_rexmit_fast   tcp_out.o
    0x0800efcc   0x0800efcc   0x000000a8   Code   RO         7404    i.tcp_rexmit_rto    tcp_out.o
    0x0800f074   0x0800f074   0x000000b8   Code   RO         7405    i.tcp_rexmit_rto_commit  tcp_out.o
    0x0800f12c   0x0800f12c   0x00000118   Code   RO         7406    i.tcp_rexmit_rto_prepare  tcp_out.o
    0x0800f244   0x0800f244   0x0000001e   Code   RO         7407    i.tcp_route         tcp_out.o
    0x0800f262   0x0800f262   0x00000002   PAD
    0x0800f264   0x0800f264   0x00000128   Code   RO         7408    i.tcp_rst           tcp_out.o
    0x0800f38c   0x0800f38c   0x000000b4   Code   RO         6994    i.tcp_seg_copy      tcp.o
    0x0800f440   0x0800f440   0x0000001a   Code   RO         6995    i.tcp_seg_free      tcp.o
    0x0800f45a   0x0800f45a   0x00000018   Code   RO         6996    i.tcp_segs_free     tcp.o
    0x0800f472   0x0800f472   0x00000002   PAD
    0x0800f474   0x0800f474   0x00000140   Code   RO         7409    i.tcp_send_empty_ack  tcp_out.o
    0x0800f5b4   0x0800f5b4   0x000000e0   Code   RO         7410    i.tcp_send_fin      tcp_out.o
    0x0800f694   0x0800f694   0x00000734   Code   RO         7000    i.tcp_slowtmr       tcp.o
    0x0800fdc8   0x0800fdc8   0x000002d0   Code   RO         7411    i.tcp_split_unsent_seg  tcp_out.o
    0x08010098   0x08010098   0x00000038   Code   RO         7563    i.tcp_timer_needed  timeouts.o
    0x080100d0   0x080100d0   0x00000144   Code   RO         7307    i.tcp_timewait_input  tcp_in.o
    0x08010214   0x08010214   0x00000024   Code   RO         7002    i.tcp_tmr           tcp.o
    0x08010238   0x08010238   0x00000014   Code   RO         7308    i.tcp_trigger_input_pcb_close  tcp_in.o
    0x0801024c   0x0801024c   0x00000118   Code   RO         7004    i.tcp_update_rcv_ann_wnd  tcp.o
    0x08010364   0x08010364   0x00000170   Code   RO         7414    i.tcp_zero_window_probe  tcp_out.o
    0x080104d4   0x080104d4   0x00000038   Code   RO         7564    i.tcpip_tcp_timer   timeouts.o
    0x0801050c   0x0801050c   0x0000024c   Code   RO         7652    i.udp_input         udp.o
    0x08010758   0x08010758   0x00000138   Code   RO         7653    i.udp_input_local_match  udp.o
    0x08010890   0x08010890   0x0000000c   Data   RO          873    .constdata          ethernetif.o
    0x0801089c   0x0801089c   0x00000018   Data   RO         4248    .constdata          stm32h7xx_hal_uart.o
    0x080108b4   0x080108b4   0x00000010   Data   RO         4619    .constdata          stm32h7xx_hal_uart_ex.o
    0x080108c4   0x080108c4   0x00000010   Data   RO         4728    .constdata          system_stm32h7xx.o
    0x080108d4   0x080108d4   0x0000000c   Data   RO         5435    .constdata          ethernet.o
    0x080108e0   0x080108e0   0x00000090   Data   RO         6307    .constdata          memp.o
    0x08010970   0x08010970   0x00000050   Data   RO         7005    .constdata          tcp.o
    0x080109c0   0x080109c0   0x00000008   Data   RO         8072    .constdata          ip4_addr.o
    0x080109c8   0x080109c8   0x00000075   Data   RO         7006    .conststring        tcp.o
    0x08010a3d   0x08010a3d   0x00000003   PAD
    0x08010a40   0x08010a40   0x00000055   Data   RO         7415    .conststring        tcp_out.o
    0x08010a95   0x08010a95   0x00000003   PAD
    0x08010a98   0x08010a98   0x00000041   Data   RO         7840    .conststring        etharp.o
    0x08010ad9   0x08010ad9   0x00000003   PAD
    0x08010adc   0x08010adc   0x00000020   Data   RO         9057    Region$$Table       anon$$obj.o


    Execution Region RW_IRAM1 (Exec base: 0x20000000, Load base: 0x08010afc, Size: 0x00000000, Max: 0x00020000, ABSOLUTE)

    **** No section assigned to this execution region ****


    Execution Region RW_IRAM2 (Exec base: 0x24000000, Load base: 0x08010afc, Size: 0x000102d8, Max: 0x00080000, ABSOLUTE)

    Exec Addr    Load Addr    Size         Type   Attr      Idx    E Section Name        Object

    0x24000000   0x08010afc   0x00000030   Data   RW           40    .data               main.o
    0x24000030   0x08010b2c   0x00000004   Data   RW          625    .data               delay.o
    0x24000034   0x08010b30   0x0000001c   Data   RW          874    .data               ethernetif.o
    0x24000050   0x08010b4c   0x0000001c   Data   RW         1017    .data               lwip.o
    0x2400006c   0x08010b68   0x00000009   Data   RW         3280    .data               stm32h7xx_hal.o
    0x24000075   0x08010b71   0x00000003   PAD
    0x24000078   0x08010b74   0x00000008   Data   RW         4729    .data               system_stm32h7xx.o
    0x24000080   0x08010b7c   0x0000000c   Data   RW         6226    .data               mem.o
    0x2400008c   0x08010b88   0x00000024   Data   RW         6308    .data               memp.o
    0x240000b0   0x08010bac   0x00000009   Data   RW         6442    .data               netif.o
    0x240000b9   0x08010bb5   0x00000001   Data   RW         6669    .data               pbuf.o
    0x240000ba   0x08010bb6   0x00000002   PAD
    0x240000bc   0x08010bb8   0x00000020   Data   RW         7007    .data               tcp.o
    0x240000dc   0x08010bd8   0x00000028   Data   RW         7310    .data               tcp_in.o
    0x24000104   0x08010c00   0x0000000c   Data   RW         7566    .data               timeouts.o
    0x24000110   0x08010c0c   0x00000008   Data   RW         7664    .data               udp.o
    0x24000118   0x08010c14   0x00000002   Data   RW         8012    .data               ip4.o
    0x2400011a   0x08010c16   0x00000002   PAD
    0x2400011c   0x08010c18   0x00000006   Data   RW         8148    .data               ip4_frag.o
    0x24000122   0x08010c1e   0x00000002   PAD
    0x24000124   0x08010c20   0x00000004   Data   RW         9018    .data               mc_w.l(stdout.o)
    0x24000128        -       0x00004678   Zero   RW           39    .bss                main.o
    0x240047a0        -       0x00000094   Zero   RW          471    .bss                usart.o
    0x24004834        -       0x00004a8c   Zero   RW          872    .bss                ethernetif.o
    0x240092c0        -       0x0000003c   Zero   RW         1016    .bss                lwip.o
    0x240092fc        -       0x00000018   Zero   RW         6182    .bss                ip.o
    0x24009314        -       0x00002ebf   Zero   RW         6306    .bss                memp.o
    0x2400c1d3   0x08010c24   0x00000001   PAD
    0x2400c1d4        -       0x00000010   Zero   RW         7309    .bss                tcp_in.o
    0x2400c1e4        -       0x000000f0   Zero   RW         7839    .bss                etharp.o
    0x2400c2d4   0x08010c24   0x00000004   PAD
    0x2400c2d8        -       0x00004000   Zero   RW            1    STACK               startup_stm32h743xx.o



  Load Region LR$$.ARM.__AT_0x30040000 (Base: 0x30040000, Size: 0x00000000, Max: 0x00000060, ABSOLUTE)

    Execution Region ER$$.ARM.__AT_0x30040000 (Exec base: 0x30040000, Load base: 0x30040000, Size: 0x00000060, Max: 0x00000060, ABSOLUTE, UNINIT)

    Exec Addr    Load Addr    Size         Type   Attr      Idx    E Section Name        Object

    0x30040000        -       0x00000060   Zero   RW          870    .ARM.__AT_0x30040000  ethernetif.o



  Load Region LR$$.ARM.__AT_0x30040060 (Base: 0x30040060, Size: 0x00000000, Max: 0x00000060, ABSOLUTE)

    Execution Region ER$$.ARM.__AT_0x30040060 (Exec base: 0x30040060, Load base: 0x30040060, Size: 0x00000060, Max: 0x00000060, ABSOLUTE, UNINIT)

    Exec Addr    Load Addr    Size         Type   Attr      Idx    E Section Name        Object

    0x30040060        -       0x00000060   Zero   RW          871    .ARM.__AT_0x30040060  ethernetif.o


==============================================================================

Image component sizes


      Code (inc. data)   RO Data    RW Data    ZI Data      Debug   Object Name

         0          0          0          0          0       2054   bridgeif.o
         0          0          0          0          0        424   bridgeif_fdb.o
        38          0          0          0          0       1242   def.o
        96          4          0          4          0       3802   delay.o
      2016        698         65          0        240       9159   etharp.o
       456        154         12          0          0       3090   ethernet.o
       874         74         12         28      19276      17566   ethernetif.o
       140          4          0          0          0       1131   gpio.o
      1004        350          0          0          0       5174   icmp.o
       200          0          0          0          0      11228   inet_chksum.o
         0          0          0          0          0       2940   init.o
         0          0          0          0         24       8017   ip.o
      1098        184          0          2          0       6168   ip4.o
        78          0          8          0          0       9070   ip4_addr.o
      3510       1188          0          6          0      12691   ip4_frag.o
       502          0          0          0          0      11626   lan8742.o
        52         24          0         28         60       1651   lwip.o
      1856        142          0         48      18040    1289489   main.o
      2288        952          0         12          0       7835   mem.o
       748        494        144         36      11967      10318   memp.o
       760         52          0          0          0       5398   myiic.o
      1478        844          0          9          0      11514   netif.o
      3688       1682          0          1          0      17908   pbuf.o
       216          8          0          0          0       3155   pcf8574.o
        36          8        664          0      16384        856   startup_stm32h743xx.o
       292         56          0          9          0      24512   stm32h7xx_hal.o
       474         38          0          0          0      42177   stm32h7xx_hal_cortex.o
      2164         34          0          0          0       4483   stm32h7xx_hal_dma.o
      2800         76          0          0          0      15648   stm32h7xx_hal_eth.o
       536         52          0          0          0       3107   stm32h7xx_hal_gpio.o
        36          4          0          0          0       1034   stm32h7xx_hal_msp.o
        96          6          0          0          0        825   stm32h7xx_hal_pwr_ex.o
      3640        114          0          0          0       7376   stm32h7xx_hal_rcc.o
      5300        108          0          0          0       7749   stm32h7xx_hal_rcc_ex.o
      3542        148         24          0          0      31376   stm32h7xx_hal_uart.o
       360         10         16          0          0       5958   stm32h7xx_hal_uart_ex.o
        66         12          0          0          0       5768   stm32h7xx_it.o
       252         40         16          8          0       1578   system_stm32h7xx.o
      7160       3078        197         32          0      39412   tcp.o
      9228       2264          0         40         16      23899   tcp_in.o
      7202       3062         85          0          0      30690   tcp_out.o
       640        344          0         12          0       5241   timeouts.o
       900        344          0          8          0       4875   udp.o
       280         22          0          0        148       2114   usart.o

    ----------------------------------------------------------------------
     66150      16674       1284        292      66160    1711328   Object Totals
         0          0         32          0          0          0   (incl. Generated)
        48          0          9          9          5          0   (incl. Padding)

    ----------------------------------------------------------------------

      Code (inc. data)   RO Data    RW Data    ZI Data      Debug   Library Member Name

         0          0          0          0          0          0   entry.o
         0          0          0          0          0          0   entry10a.o
         0          0          0          0          0          0   entry11a.o
         4          0          0          0          0          0   entry12b.o
         8          4          0          0          0          0   entry2.o
         4          0          0          0          0          0   entry5.o
         0          0          0          0          0          0   entry7b.o
         0          0          0          0          0          0   entry8b.o
         8          4          0          0          0          0   entry9a.o
        18          0          0          0          0         80   fputc.o
        30          0          0          0          0          0   handlers.o
        36          8          0          0          0         68   init.o
         0          0          0          0          0          0   iusesemip.o
        30          0          0          0          0         68   llshl.o
        32          0          0          0          0         68   llushr.o
        26          0          0          0          0         80   memcmp.o
        64          0          0          0          0         76   memmovea.o
        36          0          0          0          0        108   memseta.o
       472         14          0          0          0        184   printf3.o
         0          0          0          0          0          0   semi.o
         0          0          0          4          0          0   stdout.o
        44          0          0          0          0         80   uidiv.o
        98          0          0          0          0         92   uldiv.o

    ----------------------------------------------------------------------
       914         30          0          4          0        904   Library Totals
         4          0          0          0          0          0   (incl. Padding)

    ----------------------------------------------------------------------

      Code (inc. data)   RO Data    RW Data    ZI Data      Debug   Library Name

       910         30          0          4          0        904   mc_w.l

    ----------------------------------------------------------------------
       914         30          0          4          0        904   Library Totals

    ----------------------------------------------------------------------

==============================================================================


      Code (inc. data)   RO Data    RW Data    ZI Data      Debug   

     67064      16704       1284        296      66160    1685520   Grand Totals
     67064      16704       1284        296      66160    1685520   ELF Image Totals
     67064      16704       1284        296          0          0   ROM Totals

==============================================================================

    Total RO  Size (Code + RO Data)                68348 (  66.75kB)
    Total RW  Size (RW Data + ZI Data)             66456 (  64.90kB)
    Total ROM Size (Code + RO Data + RW Data)      68644 (  67.04kB)

==============================================================================

