Component: ARM Compiler 5.06 update 7 (build 960) Tool: armlink [4d3601]

==============================================================================

Section Cross References

    startup_stm32h743xx.o(RESET) refers to startup_stm32h743xx.o(STACK) for __initial_sp
    startup_stm32h743xx.o(RESET) refers to startup_stm32h743xx.o(.text) for Reset_Handler
    startup_stm32h743xx.o(RESET) refers to stm32h7xx_it.o(i.NMI_Handler) for NMI_Handler
    startup_stm32h743xx.o(RESET) refers to stm32h7xx_it.o(i.HardFault_Handler) for HardFault_Handler
    startup_stm32h743xx.o(RESET) refers to stm32h7xx_it.o(i.MemManage_Handler) for MemManage_Handler
    startup_stm32h743xx.o(RESET) refers to stm32h7xx_it.o(i.BusFault_Handler) for BusFault_Handler
    startup_stm32h743xx.o(RESET) refers to stm32h7xx_it.o(i.UsageFault_Handler) for UsageFault_Handler
    startup_stm32h743xx.o(RESET) refers to stm32h7xx_it.o(i.SVC_Handler) for SVC_Handler
    startup_stm32h743xx.o(RESET) refers to stm32h7xx_it.o(i.DebugMon_Handler) for DebugMon_Handler
    startup_stm32h743xx.o(RESET) refers to stm32h7xx_it.o(i.PendSV_Handler) for PendSV_Handler
    startup_stm32h743xx.o(RESET) refers to stm32h7xx_it.o(i.SysTick_Handler) for SysTick_Handler
    startup_stm32h743xx.o(RESET) refers to stm32h7xx_it.o(i.USART1_IRQHandler) for USART1_IRQHandler
    startup_stm32h743xx.o(RESET) refers to lwip.o(i.ETH_IRQHandler) for ETH_IRQHandler
    startup_stm32h743xx.o(RESET) refers to stm32h7xx_it.o(i.ETH_WKUP_IRQHandler) for ETH_WKUP_IRQHandler
    startup_stm32h743xx.o(.text) refers to system_stm32h7xx.o(i.SystemInit) for SystemInit
    startup_stm32h743xx.o(.text) refers to entry.o(.ARM.Collect$$$$00000000) for __main
    main.o(i.MPU_Config) refers to stm32h7xx_hal_cortex.o(i.HAL_MPU_Disable) for HAL_MPU_Disable
    main.o(i.MPU_Config) refers to stm32h7xx_hal_cortex.o(i.HAL_MPU_ConfigRegion) for HAL_MPU_ConfigRegion
==============================================================================

Removing Unused input sections from the image.

    Removing startup_stm32h743xx.o(HEAP), (1024 bytes).
    Removing main.o(.rev16_text), (4 bytes).
    Removing main.o(.revsh_text), (4 bytes).
    Removing main.o(.rrx_text), (6 bytes).
    Removing gpio.o(.rev16_text), (4 bytes).
    Removing gpio.o(.revsh_text), (4 bytes).
    Removing gpio.o(.rrx_text), (6 bytes).
    Removing usart.o(.rev16_text), (4 bytes).
    Removing usart.o(.revsh_text), (4 bytes).
    Removing usart.o(.rrx_text), (6 bytes).
    Removing usart.o(i.HAL_UART_MspDeInit), (52 bytes).
    Removing stm32h7xx_it.o(.rev16_text), (4 bytes).
    Removing stm32h7xx_it.o(.revsh_text), (4 bytes).
    Removing stm32h7xx_it.o(.rrx_text), (6 bytes).
    Removing stm32h7xx_hal_msp.o(.rev16_text), (4 bytes).
    Removing stm32h7xx_hal_msp.o(.revsh_text), (4 bytes).
    Removing stm32h7xx_hal_msp.o(.rrx_text), (6 bytes).
    Removing ethernetif.o(.rev16_text), (4 bytes).
==============================================================================

Image Symbol Table

    Local Symbols

    Symbol Name                              Value     Ov Type        Size  Object(Section)

    ../Core/Src/gpio.c                       0x00000000   Number         0  gpio.o ABSOLUTE
    ../Core/Src/main.c                       0x00000000   Number         0  main.o ABSOLUTE
    ../Core/Src/stm32h7xx_hal_msp.c          0x00000000   Number         0  stm32h7xx_hal_msp.o ABSOLUTE
    ../Core/Src/stm32h7xx_it.c               0x00000000   Number         0  stm32h7xx_it.o ABSOLUTE
    ../Core/Src/system_stm32h7xx.c           0x00000000   Number         0  system_stm32h7xx.o ABSOLUTE
    ../Core/Src/usart.c                      0x00000000   Number         0  usart.o ABSOLUTE
    ../Drivers/BSP/Components/lan8742/lan8742.c 0x00000000   Number         0  lan8742.o ABSOLUTE
    ../Drivers/STM32H7xx_HAL_Driver/Src/stm32h7xx_hal.c 0x00000000   Number         0  stm32h7xx_hal.o ABSOLUTE
    ../Drivers/STM32H7xx_HAL_Driver/Src/stm32h7xx_hal_cortex.c 0x00000000   Number         0  stm32h7xx_hal_cortex.o ABSOLUTE
    ../Drivers/STM32H7xx_HAL_Driver/Src/stm32h7xx_hal_dma.c 0x00000000   Number         0  stm32h7xx_hal_dma.o ABSOLUTE
    ../Drivers/STM32H7xx_HAL_Driver/Src/stm32h7xx_hal_dma_ex.c 0x00000000   Number         0  stm32h7xx_hal_dma_ex.o ABSOLUTE
    ../Drivers/STM32H7xx_HAL_Driver/Src/stm32h7xx_hal_eth.c 0x00000000   Number         0  stm32h7xx_hal_eth.o ABSOLUTE
    ../Drivers/STM32H7xx_HAL_Driver/Src/stm32h7xx_hal_eth_ex.c 0x00000000   Number         0  stm32h7xx_hal_eth_ex.o ABSOLUTE
    ../Drivers/STM32H7xx_HAL_Driver/Src/stm32h7xx_hal_exti.c 0x00000000   Number         0  stm32h7xx_hal_exti.o ABSOLUTE
    ../Drivers/STM32H7xx_HAL_Driver/Src/stm32h7xx_hal_flash.c 0x00000000   Number         0  stm32h7xx_hal_flash.o ABSOLUTE
    ../Drivers/STM32H7xx_HAL_Driver/Src/stm32h7xx_hal_flash_ex.c 0x00000000   Number         0  stm32h7xx_hal_flash_ex.o ABSOLUTE
    ../Drivers/STM32H7xx_HAL_Driver/Src/stm32h7xx_hal_gpio.c 0x00000000   Number         0  stm32h7xx_hal_gpio.o ABSOLUTE
    ../Drivers/STM32H7xx_HAL_Driver/Src/stm32h7xx_hal_hsem.c 0x00000000   Number         0  stm32h7xx_hal_hsem.o ABSOLUTE
    ../Drivers/STM32H7xx_HAL_Driver/Src/stm32h7xx_hal_i2c.c 0x00000000   Number         0  stm32h7xx_hal_i2c.o ABSOLUTE
    ../Drivers/STM32H7xx_HAL_Driver/Src/stm32h7xx_hal_i2c_ex.c 0x00000000   Number         0  stm32h7xx_hal_i2c_ex.o ABSOLUTE
    ../Drivers/STM32H7xx_HAL_Driver/Src/stm32h7xx_hal_mdma.c 0x00000000   Number         0  stm32h7xx_hal_mdma.o ABSOLUTE
    ../Drivers/STM32H7xx_HAL_Driver/Src/stm32h7xx_hal_pwr.c 0x00000000   Number         0  stm32h7xx_hal_pwr.o ABSOLUTE
    ../Drivers/STM32H7xx_HAL_Driver/Src/stm32h7xx_hal_pwr_ex.c 0x00000000   Number         0  stm32h7xx_hal_pwr_ex.o ABSOLUTE
    ../Drivers/STM32H7xx_HAL_Driver/Src/stm32h7xx_hal_rcc.c 0x00000000   Number         0  stm32h7xx_hal_rcc.o ABSOLUTE
    ../Drivers/STM32H7xx_HAL_Driver/Src/stm32h7xx_hal_rcc_ex.c 0x00000000   Number         0  stm32h7xx_hal_rcc_ex.o ABSOLUTE
    ../Drivers/STM32H7xx_HAL_Driver/Src/stm32h7xx_hal_tim.c 0x00000000   Number         0  stm32h7xx_hal_tim.o ABSOLUTE
    ../Drivers/STM32H7xx_HAL_Driver/Src/stm32h7xx_hal_tim_ex.c 0x00000000   Number         0  stm32h7xx_hal_tim_ex.o ABSOLUTE
    ../Drivers/STM32H7xx_HAL_Driver/Src/stm32h7xx_hal_uart.c 0x00000000   Number         0  stm32h7xx_hal_uart.o ABSOLUTE
    ../Drivers/STM32H7xx_HAL_Driver/Src/stm32h7xx_hal_uart_ex.c 0x00000000   Number         0  stm32h7xx_hal_uart_ex.o ABSOLUTE
    ../LWIP/App/lwip.c                       0x00000000   Number         0  lwip.o ABSOLUTE
    ../LWIP/Target/ethernetif.c              0x00000000   Number         0  ethernetif.o ABSOLUTE
    ../Middlewares/Third_Party/LwIP/src/api/api_lib.c 0x00000000   Number         0  api_lib.o ABSOLUTE
    ../Middlewares/Third_Party/LwIP/src/api/api_msg.c 0x00000000   Number         0  api_msg.o ABSOLUTE
    ../Middlewares/Third_Party/LwIP/src/api/err.c 0x00000000   Number         0  err.o ABSOLUTE
    ../Middlewares/Third_Party/LwIP/src/api/if_api.c 0x00000000   Number         0  if_api.o ABSOLUTE
    ../Middlewares/Third_Party/LwIP/src/api/netbuf.c 0x00000000   Number         0  netbuf.o ABSOLUTE
    ../Middlewares/Third_Party/LwIP/src/api/netdb.c 0x00000000   Number         0  netdb.o ABSOLUTE
    ../Middlewares/Third_Party/LwIP/src/api/netifapi.c 0x00000000   Number         0  netifapi.o ABSOLUTE
    ../Middlewares/Third_Party/LwIP/src/api/sockets.c 0x00000000   Number         0  sockets.o ABSOLUTE
    ../Middlewares/Third_Party/LwIP/src/api/tcpip.c 0x00000000   Number         0  tcpip.o ABSOLUTE
    ../Middlewares/Third_Party/LwIP/src/apps/mqtt/mqtt.c 0x00000000   Number         0  mqtt.o ABSOLUTE
    ../Middlewares/Third_Party/LwIP/src/core/altcp.c 0x00000000   Number         0  altcp.o ABSOLUTE
    ../Middlewares/Third_Party/LwIP/src/core/altcp_alloc.c 0x00000000   Number         0  altcp_alloc.o ABSOLUTE
    ../Middlewares/Third_Party/LwIP/src/core/altcp_tcp.c 0x00000000   Number         0  altcp_tcp.o ABSOLUTE
    ../Middlewares/Third_Party/LwIP/src/core/def.c 0x00000000   Number         0  def.o ABSOLUTE
    ../Middlewares/Third_Party/LwIP/src/core/dns.c 0x00000000   Number         0  dns.o ABSOLUTE
    ../Middlewares/Third_Party/LwIP/src/core/inet_chksum.c 0x00000000   Number         0  inet_chksum.o ABSOLUTE
    ../Middlewares/Third_Party/LwIP/src/core/init.c 0x00000000   Number         0  init.o ABSOLUTE
    ../Middlewares/Third_Party/LwIP/src/core/ip.c 0x00000000   Number         0  ip.o ABSOLUTE
    ../Middlewares/Third_Party/LwIP/src/core/ipv4/autoip.c 0x00000000   Number         0  autoip.o ABSOLUTE
    ../Middlewares/Third_Party/LwIP/src/core/ipv4/dhcp.c 0x00000000   Number         0  dhcp.o ABSOLUTE
    ../Middlewares/Third_Party/LwIP/src/core/ipv4/etharp.c 0x00000000   Number         0  etharp.o ABSOLUTE
    ../Middlewares/Third_Party/LwIP/src/core/ipv4/icmp.c 0x00000000   Number         0  icmp.o ABSOLUTE
    ../Middlewares/Third_Party/LwIP/src/core/ipv4/igmp.c 0x00000000   Number         0  igmp.o ABSOLUTE
    ../Middlewares/Third_Party/LwIP/src/core/ipv4/ip4.c 0x00000000   Number         0  ip4.o ABSOLUTE
    ../Middlewares/Third_Party/LwIP/src/core/ipv4/ip4_addr.c 0x00000000   Number         0  ip4_addr.o ABSOLUTE
    ../Middlewares/Third_Party/LwIP/src/core/ipv4/ip4_frag.c 0x00000000   Number         0  ip4_frag.o ABSOLUTE
    ../Middlewares/Third_Party/LwIP/src/core/ipv6/dhcp6.c 0x00000000   Number         0  dhcp6.o ABSOLUTE
    ../Middlewares/Third_Party/LwIP/src/core/ipv6/ethip6.c 0x00000000   Number         0  ethip6.o ABSOLUTE
    ../Middlewares/Third_Party/LwIP/src/core/ipv6/icmp6.c 0x00000000   Number         0  icmp6.o ABSOLUTE
    ../Middlewares/Third_Party/LwIP/src/core/ipv6/inet6.c 0x00000000   Number         0  inet6.o ABSOLUTE
    ../Middlewares/Third_Party/LwIP/src/core/ipv6/ip6.c 0x00000000   Number         0  ip6.o ABSOLUTE
    ../Middlewares/Third_Party/LwIP/src/core/ipv6/ip6_addr.c 0x00000000   Number         0  ip6_addr.o ABSOLUTE
    ../Middlewares/Third_Party/LwIP/src/core/ipv6/ip6_frag.c 0x00000000   Number         0  ip6_frag.o ABSOLUTE
    ../Middlewares/Third_Party/LwIP/src/core/ipv6/mld6.c 0x00000000   Number         0  mld6.o ABSOLUTE
    ../Middlewares/Third_Party/LwIP/src/core/ipv6/nd6.c 0x00000000   Number         0  nd6.o ABSOLUTE
    ../Middlewares/Third_Party/LwIP/src/core/mem.c 0x00000000   Number         0  mem.o ABSOLUTE
    ../Middlewares/Third_Party/LwIP/src/core/memp.c 0x00000000   Number         0  memp.o ABSOLUTE
    ../Middlewares/Third_Party/LwIP/src/core/netif.c 0x00000000   Number         0  netif.o ABSOLUTE
    ../Middlewares/Third_Party/LwIP/src/core/pbuf.c 0x00000000   Number         0  pbuf.o ABSOLUTE
    ../Middlewares/Third_Party/LwIP/src/core/raw.c 0x00000000   Number         0  raw.o ABSOLUTE
    ../Middlewares/Third_Party/LwIP/src/core/stats.c 0x00000000   Number         0  stats.o ABSOLUTE
    ../Middlewares/Third_Party/LwIP/src/core/sys.c 0x00000000   Number         0  sys.o ABSOLUTE
    ../Middlewares/Third_Party/LwIP/src/core/tcp.c 0x00000000   Number         0  tcp.o ABSOLUTE
    ../Middlewares/Third_Party/LwIP/src/core/tcp_in.c 0x00000000   Number         0  tcp_in.o ABSOLUTE
    ../Middlewares/Third_Party/LwIP/src/core/tcp_out.c 0x00000000   Number         0  tcp_out.o ABSOLUTE
    ../Middlewares/Third_Party/LwIP/src/core/timeouts.c 0x00000000   Number         0  timeouts.o ABSOLUTE
    ../Middlewares/Third_Party/LwIP/src/core/udp.c 0x00000000   Number         0  udp.o ABSOLUTE
    ../Middlewares/Third_Party/LwIP/src/netif/bridgeif.c 0x00000000   Number         0  bridgeif.o ABSOLUTE
    ../Middlewares/Third_Party/LwIP/src/netif/bridgeif_fdb.c 0x00000000   Number         0  bridgeif_fdb.o ABSOLUTE
    ../Middlewares/Third_Party/LwIP/src/netif/ethernet.c 0x00000000   Number         0  ethernet.o ABSOLUTE
    ../Middlewares/Third_Party/LwIP/src/netif/lowpan6.c 0x00000000   Number         0  lowpan6.o ABSOLUTE
    ../Middlewares/Third_Party/LwIP/src/netif/lowpan6_ble.c 0x00000000   Number         0  lowpan6_ble.o ABSOLUTE
    ../Middlewares/Third_Party/LwIP/src/netif/lowpan6_common.c 0x00000000   Number         0  lowpan6_common.o ABSOLUTE
    ../Middlewares/Third_Party/LwIP/src/netif/ppp/auth.c 0x00000000   Number         0  auth.o ABSOLUTE
    ../Middlewares/Third_Party/LwIP/src/netif/ppp/ccp.c 0x00000000   Number         0  ccp.o ABSOLUTE
    ../Middlewares/Third_Party/LwIP/src/netif/ppp/chap-md5.c 0x00000000   Number         0  chap-md5.o ABSOLUTE
    ../Middlewares/Third_Party/LwIP/src/netif/ppp/chap-new.c 0x00000000   Number         0  chap-new.o ABSOLUTE
    ../Middlewares/Third_Party/LwIP/src/netif/ppp/chap_ms.c 0x00000000   Number         0  chap_ms.o ABSOLUTE
    ../Middlewares/Third_Party/LwIP/src/netif/ppp/demand.c 0x00000000   Number         0  demand.o ABSOLUTE
    ../Middlewares/Third_Party/LwIP/src/netif/ppp/eap.c 0x00000000   Number         0  eap.o ABSOLUTE
    ../Middlewares/Third_Party/LwIP/src/netif/ppp/ecp.c 0x00000000   Number         0  ecp.o ABSOLUTE
    ../Middlewares/Third_Party/LwIP/src/netif/ppp/eui64.c 0x00000000   Number         0  eui64.o ABSOLUTE
    ../Middlewares/Third_Party/LwIP/src/netif/ppp/fsm.c 0x00000000   Number         0  fsm.o ABSOLUTE
    ../Middlewares/Third_Party/LwIP/src/netif/ppp/ipcp.c 0x00000000   Number         0  ipcp.o ABSOLUTE
    ../Middlewares/Third_Party/LwIP/src/netif/ppp/ipv6cp.c 0x00000000   Number         0  ipv6cp.o ABSOLUTE
    ../Middlewares/Third_Party/LwIP/src/netif/ppp/lcp.c 0x00000000   Number         0  lcp.o ABSOLUTE
    ../Middlewares/Third_Party/LwIP/src/netif/ppp/magic.c 0x00000000   Number         0  magic.o ABSOLUTE
    ../Middlewares/Third_Party/LwIP/src/netif/ppp/mppe.c 0x00000000   Number         0  mppe.o ABSOLUTE
    ../Middlewares/Third_Party/LwIP/src/netif/ppp/multilink.c 0x00000000   Number         0  multilink.o ABSOLUTE
    ../Middlewares/Third_Party/LwIP/src/netif/ppp/ppp.c 0x00000000   Number         0  ppp.o ABSOLUTE
    ../Middlewares/Third_Party/LwIP/src/netif/ppp/pppapi.c 0x00000000   Number         0  pppapi.o ABSOLUTE
    ../Middlewares/Third_Party/LwIP/src/netif/ppp/pppcrypt.c 0x00000000   Number         0  pppcrypt.o ABSOLUTE
    ../Middlewares/Third_Party/LwIP/src/netif/ppp/pppoe.c 0x00000000   Number         0  pppoe.o ABSOLUTE
    ../Middlewares/Third_Party/LwIP/src/netif/ppp/pppol2tp.c 0x00000000   Number         0  pppol2tp.o ABSOLUTE
    ../Middlewares/Third_Party/LwIP/src/netif/ppp/pppos.c 0x00000000   Number         0  pppos.o ABSOLUTE
    ../Middlewares/Third_Party/LwIP/src/netif/ppp/upap.c 0x00000000   Number         0  upap.o ABSOLUTE
    ../Middlewares/Third_Party/LwIP/src/netif/ppp/utils.c 0x00000000   Number         0  utils.o ABSOLUTE
    ../Middlewares/Third_Party/LwIP/src/netif/ppp/vj.c 0x00000000   Number         0  vj.o ABSOLUTE
    ../Middlewares/Third_Party/LwIP/src/netif/slipif.c 0x00000000   Number         0  slipif.o ABSOLUTE
    ../Middlewares/Third_Party/LwIP/src/netif/zepif.c 0x00000000   Number         0  zepif.o ABSOLUTE
    ../clib/../cmprslib/zerorunl2.c          0x00000000   Number         0  __dczerorl2.o ABSOLUTE
    ../clib/microlib/ctype/ctype.c           0x00000000   Number         0  isxdigit_o.o ABSOLUTE
    ../clib/microlib/ctype/ctype.c           0x00000000   Number         0  isupper_o.o ABSOLUTE
    ../clib/microlib/ctype/ctype.c           0x00000000   Number         0  isspace_o.o ABSOLUTE
    ../clib/microlib/ctype/ctype.c           0x00000000   Number         0  isalpha_o.o ABSOLUTE
    ../clib/microlib/ctype/ctype.c           0x00000000   Number         0  isalnum_o.o ABSOLUTE
    ../clib/microlib/ctype/ctype.c           0x00000000   Number         0  isblank_o.o ABSOLUTE
    ../clib/microlib/ctype/ctype.c           0x00000000   Number         0  isprint_o.o ABSOLUTE
    ../clib/microlib/ctype/ctype.c           0x00000000   Number         0  ctype_o.o ABSOLUTE
    ../clib/microlib/ctype/ctype.c           0x00000000   Number         0  islower_o.o ABSOLUTE
    ../clib/microlib/ctype/ctype.c           0x00000000   Number         0  ispunct_o.o ABSOLUTE
    ../clib/microlib/ctype/ctype.c           0x00000000   Number         0  isgraph_o.o ABSOLUTE
    ../clib/microlib/ctype/ctype.c           0x00000000   Number         0  isdigit_o.o ABSOLUTE
    ../clib/microlib/ctype/ctype.c           0x00000000   Number         0  iscntrl_o.o ABSOLUTE
    ../clib/microlib/division.c              0x00000000   Number         0  uldiv.o ABSOLUTE
    ../clib/microlib/division.c              0x00000000   Number         0  uidiv.o ABSOLUTE
    ../clib/microlib/errno.c                 0x00000000   Number         0  errno.o ABSOLUTE
    ../clib/microlib/init/entry.s            0x00000000   Number         0  entry12b.o ABSOLUTE
    ../clib/microlib/init/entry.s            0x00000000   Number         0  entry2.o ABSOLUTE
    ../clib/microlib/init/entry.s            0x00000000   Number         0  entry.o ABSOLUTE
    ../clib/microlib/init/entry.s            0x00000000   Number         0  entry5.o ABSOLUTE
    ../clib/microlib/init/entry.s            0x00000000   Number         0  entry7a.o ABSOLUTE
    ../clib/microlib/init/entry.s            0x00000000   Number         0  entry7b.o ABSOLUTE
    ../clib/microlib/init/entry.s            0x00000000   Number         0  entry8a.o ABSOLUTE
    ../clib/microlib/init/entry.s            0x00000000   Number         0  entry8b.o ABSOLUTE
    ../clib/microlib/init/entry.s            0x00000000   Number         0  entry9a.o ABSOLUTE
    ../clib/microlib/init/entry.s            0x00000000   Number         0  entry9b.o ABSOLUTE
    ../clib/microlib/init/entry.s            0x00000000   Number         0  entry10a.o ABSOLUTE
    ../clib/microlib/init/entry.s            0x00000000   Number         0  entry10b.o ABSOLUTE
    ../clib/microlib/init/entry.s            0x00000000   Number         0  entry11a.o ABSOLUTE
    ../clib/microlib/init/entry.s            0x00000000   Number         0  entry11b.o ABSOLUTE
    ../clib/microlib/init/entry.s            0x00000000   Number         0  entry12a.o ABSOLUTE
    ../clib/microlib/longlong.c              0x00000000   Number         0  llsshr.o ABSOLUTE
    ../clib/microlib/longlong.c              0x00000000   Number         0  llushr.o ABSOLUTE
    ../clib/microlib/longlong.c              0x00000000   Number         0  llshl.o ABSOLUTE
    ../clib/microlib/printf/printf.c         0x00000000   Number         0  printf6.o ABSOLUTE
    ../clib/microlib/printf/printf.c         0x00000000   Number         0  printf5.o ABSOLUTE
    ../clib/microlib/printf/printf.c         0x00000000   Number         0  printf4.o ABSOLUTE
    ../clib/microlib/printf/printf.c         0x00000000   Number         0  printfa.o ABSOLUTE
    ../clib/microlib/printf/printf.c         0x00000000   Number         0  printf8.o ABSOLUTE
    ../clib/microlib/printf/printf.c         0x00000000   Number         0  printfb.o ABSOLUTE
    ../clib/microlib/printf/printf.c         0x00000000   Number         0  printf7.o ABSOLUTE
    ../clib/microlib/printf/printf.c         0x00000000   Number         0  printf0.o ABSOLUTE
    ../clib/microlib/printf/printf.c         0x00000000   Number         0  printf1.o ABSOLUTE
    ../clib/microlib/printf/printf.c         0x00000000   Number         0  printf2.o ABSOLUTE
    ../clib/microlib/printf/printf.c         0x00000000   Number         0  printf3.o ABSOLUTE
    ../clib/microlib/printf/stubs.s          0x00000000   Number         0  stubs.o ABSOLUTE
    ../clib/microlib/stdio/streams.c         0x00000000   Number         0  stdout.o ABSOLUTE
    ../clib/microlib/stdlib/rand.c           0x00000000   Number         0  rand.o ABSOLUTE
    ../clib/microlib/string/memcmp.c         0x00000000   Number         0  memcmp.o ABSOLUTE
    ../clib/microlib/string/memcpy.c         0x00000000   Number         0  memcpyb.o ABSOLUTE
    ../clib/microlib/string/memcpy.c         0x00000000   Number         0  memmoveb.o ABSOLUTE
    ../clib/microlib/string/memcpy.c         0x00000000   Number         0  memmovea.o ABSOLUTE
    ../clib/microlib/string/memcpy.c         0x00000000   Number         0  memcpya.o ABSOLUTE
    ../clib/microlib/string/memset.c         0x00000000   Number         0  memseta.o ABSOLUTE
    ../clib/microlib/string/strlen.c         0x00000000   Number         0  strlen.o ABSOLUTE
    ../clib/microlib/string/strncmp.c        0x00000000   Number         0  strncmp.o ABSOLUTE
    ../clib/microlib/stubs.s                 0x00000000   Number         0  iusefp.o ABSOLUTE
    ../clib/scanf.c                          0x00000000   Number         0  strtol.o ABSOLUTE
    ../clib/scanf.c                          0x00000000   Number         0  atoi.o ABSOLUTE
    ../clib/scanf.c                          0x00000000   Number         0  _chval.o ABSOLUTE
    ../clib/scanf.c                          0x00000000   Number         0  _strtoul.o ABSOLUTE
    ../fplib/microlib/fpadd.c                0x00000000   Number         0  dadd.o ABSOLUTE
    ../fplib/microlib/fpdiv.c                0x00000000   Number         0  ddiv.o ABSOLUTE
    ../fplib/microlib/fpepilogue.c           0x00000000   Number         0  depilogue.o ABSOLUTE
    ../fplib/microlib/fpfix.c                0x00000000   Number         0  dfixul.o ABSOLUTE
    ../fplib/microlib/fpmul.c                0x00000000   Number         0  dmul.o ABSOLUTE
    ..\Core\Src\gpio.c                       0x00000000   Number         0  gpio.o ABSOLUTE
    ..\Core\Src\main.c                       0x00000000   Number         0  main.o ABSOLUTE
    ..\Core\Src\stm32h7xx_hal_msp.c          0x00000000   Number         0  stm32h7xx_hal_msp.o ABSOLUTE
    ..\Core\Src\stm32h7xx_it.c               0x00000000   Number         0  stm32h7xx_it.o ABSOLUTE
    ..\Core\Src\system_stm32h7xx.c           0x00000000   Number         0  system_stm32h7xx.o ABSOLUTE
    ..\Core\Src\usart.c                      0x00000000   Number         0  usart.o ABSOLUTE
    ..\Drivers\STM32H7xx_HAL_Driver\Src\stm32h7xx_hal.c 0x00000000   Number         0  stm32h7xx_hal.o ABSOLUTE
    ..\Drivers\STM32H7xx_HAL_Driver\Src\stm32h7xx_hal_cortex.c 0x00000000   Number         0  stm32h7xx_hal_cortex.o ABSOLUTE
    ..\Drivers\STM32H7xx_HAL_Driver\Src\stm32h7xx_hal_dma.c 0x00000000   Number         0  stm32h7xx_hal_dma.o ABSOLUTE
    ..\Drivers\STM32H7xx_HAL_Driver\Src\stm32h7xx_hal_dma_ex.c 0x00000000   Number         0  stm32h7xx_hal_dma_ex.o ABSOLUTE
    ..\Drivers\STM32H7xx_HAL_Driver\Src\stm32h7xx_hal_eth.c 0x00000000   Number         0  stm32h7xx_hal_eth.o ABSOLUTE
    ..\Drivers\STM32H7xx_HAL_Driver\Src\stm32h7xx_hal_eth_ex.c 0x00000000   Number         0  stm32h7xx_hal_eth_ex.o ABSOLUTE
    ..\Drivers\STM32H7xx_HAL_Driver\Src\stm32h7xx_hal_exti.c 0x00000000   Number         0  stm32h7xx_hal_exti.o ABSOLUTE
    ..\Drivers\STM32H7xx_HAL_Driver\Src\stm32h7xx_hal_flash.c 0x00000000   Number         0  stm32h7xx_hal_flash.o ABSOLUTE
    ..\Drivers\STM32H7xx_HAL_Driver\Src\stm32h7xx_hal_flash_ex.c 0x00000000   Number         0  stm32h7xx_hal_flash_ex.o ABSOLUTE
    ..\Drivers\STM32H7xx_HAL_Driver\Src\stm32h7xx_hal_gpio.c 0x00000000   Number         0  stm32h7xx_hal_gpio.o ABSOLUTE
    ..\Drivers\STM32H7xx_HAL_Driver\Src\stm32h7xx_hal_hsem.c 0x00000000   Number         0  stm32h7xx_hal_hsem.o ABSOLUTE
    ..\Drivers\STM32H7xx_HAL_Driver\Src\stm32h7xx_hal_i2c.c 0x00000000   Number         0  stm32h7xx_hal_i2c.o ABSOLUTE
    ..\Drivers\STM32H7xx_HAL_Driver\Src\stm32h7xx_hal_i2c_ex.c 0x00000000   Number         0  stm32h7xx_hal_i2c_ex.o ABSOLUTE
    ..\Drivers\STM32H7xx_HAL_Driver\Src\stm32h7xx_hal_mdma.c 0x00000000   Number         0  stm32h7xx_hal_mdma.o ABSOLUTE
    ..\Drivers\STM32H7xx_HAL_Driver\Src\stm32h7xx_hal_pwr.c 0x00000000   Number         0  stm32h7xx_hal_pwr.o ABSOLUTE
    ..\Drivers\STM32H7xx_HAL_Driver\Src\stm32h7xx_hal_pwr_ex.c 0x00000000   Number         0  stm32h7xx_hal_pwr_ex.o ABSOLUTE
    ..\Drivers\STM32H7xx_HAL_Driver\Src\stm32h7xx_hal_rcc.c 0x00000000   Number         0  stm32h7xx_hal_rcc.o ABSOLUTE
    ..\Drivers\STM32H7xx_HAL_Driver\Src\stm32h7xx_hal_rcc_ex.c 0x00000000   Number         0  stm32h7xx_hal_rcc_ex.o ABSOLUTE
    ..\Drivers\STM32H7xx_HAL_Driver\Src\stm32h7xx_hal_tim.c 0x00000000   Number         0  stm32h7xx_hal_tim.o ABSOLUTE
    ..\Drivers\STM32H7xx_HAL_Driver\Src\stm32h7xx_hal_tim_ex.c 0x00000000   Number         0  stm32h7xx_hal_tim_ex.o ABSOLUTE
    ..\Drivers\STM32H7xx_HAL_Driver\Src\stm32h7xx_hal_uart.c 0x00000000   Number         0  stm32h7xx_hal_uart.o ABSOLUTE
    ..\Drivers\STM32H7xx_HAL_Driver\Src\stm32h7xx_hal_uart_ex.c 0x00000000   Number         0  stm32h7xx_hal_uart_ex.o ABSOLUTE
    ..\LWIP\App\TCPIP\fifoMem.c              0x00000000   Number         0  fifomem.o ABSOLUTE
    ..\LWIP\App\TCPIP\lwip_udp.c             0x00000000   Number         0  lwip_udp.o ABSOLUTE
    ..\LWIP\App\TCPIP\task_module.c          0x00000000   Number         0  task_module.o ABSOLUTE
    ..\LWIP\App\TCPIP\tcp_client.c           0x00000000   Number         0  tcp_client.o ABSOLUTE
    ..\LWIP\App\TCPIP\tcp_server.c           0x00000000   Number         0  tcp_server.o ABSOLUTE
    ..\LWIP\App\lwip.c                       0x00000000   Number         0  lwip.o ABSOLUTE
    ..\LWIP\Target\ethernetif.c              0x00000000   Number         0  ethernetif.o ABSOLUTE
    ..\Middlewares\Third_Party\LwIP\src\api\api_lib.c 0x00000000   Number         0  api_lib.o ABSOLUTE
    ..\Middlewares\Third_Party\LwIP\src\api\api_msg.c 0x00000000   Number         0  api_msg.o ABSOLUTE
    ..\Middlewares\Third_Party\LwIP\src\api\err.c 0x00000000   Number         0  err.o ABSOLUTE
    ..\Middlewares\Third_Party\LwIP\src\api\if_api.c 0x00000000   Number         0  if_api.o ABSOLUTE
    ..\Middlewares\Third_Party\LwIP\src\api\netbuf.c 0x00000000   Number         0  netbuf.o ABSOLUTE
    ..\Middlewares\Third_Party\LwIP\src\api\netdb.c 0x00000000   Number         0  netdb.o ABSOLUTE
    ..\Middlewares\Third_Party\LwIP\src\api\netifapi.c 0x00000000   Number         0  netifapi.o ABSOLUTE
    ..\Middlewares\Third_Party\LwIP\src\api\sockets.c 0x00000000   Number         0  sockets.o ABSOLUTE
    ..\Middlewares\Third_Party\LwIP\src\api\tcpip.c 0x00000000   Number         0  tcpip.o ABSOLUTE
    ..\Middlewares\Third_Party\LwIP\src\apps\mqtt\mqtt.c 0x00000000   Number         0  mqtt.o ABSOLUTE
    ..\Middlewares\Third_Party\LwIP\src\core\altcp.c 0x00000000   Number         0  altcp.o ABSOLUTE
    ..\Middlewares\Third_Party\LwIP\src\core\altcp_alloc.c 0x00000000   Number         0  altcp_alloc.o ABSOLUTE
    ..\Middlewares\Third_Party\LwIP\src\core\altcp_tcp.c 0x00000000   Number         0  altcp_tcp.o ABSOLUTE
    ..\Middlewares\Third_Party\LwIP\src\core\def.c 0x00000000   Number         0  def.o ABSOLUTE
    ..\Middlewares\Third_Party\LwIP\src\core\dns.c 0x00000000   Number         0  dns.o ABSOLUTE
    ..\Middlewares\Third_Party\LwIP\src\core\inet_chksum.c 0x00000000   Number         0  inet_chksum.o ABSOLUTE
    ..\Middlewares\Third_Party\LwIP\src\core\init.c 0x00000000   Number         0  init.o ABSOLUTE
    ..\Middlewares\Third_Party\LwIP\src\core\ip.c 0x00000000   Number         0  ip.o ABSOLUTE
    ..\Middlewares\Third_Party\LwIP\src\core\ipv4\autoip.c 0x00000000   Number         0  autoip.o ABSOLUTE
    ..\Middlewares\Third_Party\LwIP\src\core\ipv4\dhcp.c 0x00000000   Number         0  dhcp.o ABSOLUTE
    ..\Middlewares\Third_Party\LwIP\src\core\ipv4\etharp.c 0x00000000   Number         0  etharp.o ABSOLUTE
    ..\Middlewares\Third_Party\LwIP\src\core\ipv4\icmp.c 0x00000000   Number         0  icmp.o ABSOLUTE
    ..\Middlewares\Third_Party\LwIP\src\core\ipv4\igmp.c 0x00000000   Number         0  igmp.o ABSOLUTE
    ..\Middlewares\Third_Party\LwIP\src\core\ipv4\ip4.c 0x00000000   Number         0  ip4.o ABSOLUTE
    ..\Middlewares\Third_Party\LwIP\src\core\ipv4\ip4_addr.c 0x00000000   Number         0  ip4_addr.o ABSOLUTE
    ..\Middlewares\Third_Party\LwIP\src\core\ipv4\ip4_frag.c 0x00000000   Number         0  ip4_frag.o ABSOLUTE
    ..\Middlewares\Third_Party\LwIP\src\core\ipv6\dhcp6.c 0x00000000   Number         0  dhcp6.o ABSOLUTE
    ..\Middlewares\Third_Party\LwIP\src\core\ipv6\ethip6.c 0x00000000   Number         0  ethip6.o ABSOLUTE
    ..\Middlewares\Third_Party\LwIP\src\core\ipv6\icmp6.c 0x00000000   Number         0  icmp6.o ABSOLUTE
    ..\Middlewares\Third_Party\LwIP\src\core\ipv6\inet6.c 0x00000000   Number         0  inet6.o ABSOLUTE
    ..\Middlewares\Third_Party\LwIP\src\core\ipv6\ip6.c 0x00000000   Number         0  ip6.o ABSOLUTE
    ..\Middlewares\Third_Party\LwIP\src\core\ipv6\ip6_addr.c 0x00000000   Number         0  ip6_addr.o ABSOLUTE
    ..\Middlewares\Third_Party\LwIP\src\core\ipv6\ip6_frag.c 0x00000000   Number         0  ip6_frag.o ABSOLUTE
    ..\Middlewares\Third_Party\LwIP\src\core\ipv6\mld6.c 0x00000000   Number         0  mld6.o ABSOLUTE
    ..\Middlewares\Third_Party\LwIP\src\core\ipv6\nd6.c 0x00000000   Number         0  nd6.o ABSOLUTE
    ..\Middlewares\Third_Party\LwIP\src\core\mem.c 0x00000000   Number         0  mem.o ABSOLUTE
    ..\Middlewares\Third_Party\LwIP\src\core\memp.c 0x00000000   Number         0  memp.o ABSOLUTE
    ..\Middlewares\Third_Party\LwIP\src\core\netif.c 0x00000000   Number         0  netif.o ABSOLUTE
    ..\Middlewares\Third_Party\LwIP\src\core\pbuf.c 0x00000000   Number         0  pbuf.o ABSOLUTE
    ..\Middlewares\Third_Party\LwIP\src\core\raw.c 0x00000000   Number         0  raw.o ABSOLUTE
    ..\Middlewares\Third_Party\LwIP\src\core\stats.c 0x00000000   Number         0  stats.o ABSOLUTE
    ..\Middlewares\Third_Party\LwIP\src\core\sys.c 0x00000000   Number         0  sys.o ABSOLUTE
    ..\Middlewares\Third_Party\LwIP\src\core\tcp.c 0x00000000   Number         0  tcp.o ABSOLUTE
    ..\Middlewares\Third_Party\LwIP\src\core\tcp_in.c 0x00000000   Number         0  tcp_in.o ABSOLUTE
    ..\Middlewares\Third_Party\LwIP\src\core\tcp_out.c 0x00000000   Number         0  tcp_out.o ABSOLUTE
    ..\Middlewares\Third_Party\LwIP\src\core\timeouts.c 0x00000000   Number         0  timeouts.o ABSOLUTE
    ..\Middlewares\Third_Party\LwIP\src\core\udp.c 0x00000000   Number         0  udp.o ABSOLUTE
    ..\Middlewares\Third_Party\LwIP\src\netif\bridgeif.c 0x00000000   Number         0  bridgeif.o ABSOLUTE
    ..\Middlewares\Third_Party\LwIP\src\netif\bridgeif_fdb.c 0x00000000   Number         0  bridgeif_fdb.o ABSOLUTE
    ..\Middlewares\Third_Party\LwIP\src\netif\ethernet.c 0x00000000   Number         0  ethernet.o ABSOLUTE
    ..\Middlewares\Third_Party\LwIP\src\netif\lowpan6.c 0x00000000   Number         0  lowpan6.o ABSOLUTE
    ..\Middlewares\Third_Party\LwIP\src\netif\lowpan6_ble.c 0x00000000   Number         0  lowpan6_ble.o ABSOLUTE
    ..\Middlewares\Third_Party\LwIP\src\netif\lowpan6_common.c 0x00000000   Number         0  lowpan6_common.o ABSOLUTE
    ..\Middlewares\Third_Party\LwIP\src\netif\ppp\auth.c 0x00000000   Number         0  auth.o ABSOLUTE
    ..\Middlewares\Third_Party\LwIP\src\netif\ppp\ccp.c 0x00000000   Number         0  ccp.o ABSOLUTE
    ..\Middlewares\Third_Party\LwIP\src\netif\ppp\chap-md5.c 0x00000000   Number         0  chap-md5.o ABSOLUTE
    ..\Middlewares\Third_Party\LwIP\src\netif\ppp\chap-new.c 0x00000000   Number         0  chap-new.o ABSOLUTE
    ..\Middlewares\Third_Party\LwIP\src\netif\ppp\chap_ms.c 0x00000000   Number         0  chap_ms.o ABSOLUTE
    ..\Middlewares\Third_Party\LwIP\src\netif\ppp\demand.c 0x00000000   Number         0  demand.o ABSOLUTE
    ..\Middlewares\Third_Party\LwIP\src\netif\ppp\eap.c 0x00000000   Number         0  eap.o ABSOLUTE
    ..\Middlewares\Third_Party\LwIP\src\netif\ppp\ecp.c 0x00000000   Number         0  ecp.o ABSOLUTE
    ..\Middlewares\Third_Party\LwIP\src\netif\ppp\eui64.c 0x00000000   Number         0  eui64.o ABSOLUTE
    ..\Middlewares\Third_Party\LwIP\src\netif\ppp\fsm.c 0x00000000   Number         0  fsm.o ABSOLUTE
    ..\Middlewares\Third_Party\LwIP\src\netif\ppp\ipcp.c 0x00000000   Number         0  ipcp.o ABSOLUTE
    ..\Middlewares\Third_Party\LwIP\src\netif\ppp\ipv6cp.c 0x00000000   Number         0  ipv6cp.o ABSOLUTE
    ..\Middlewares\Third_Party\LwIP\src\netif\ppp\lcp.c 0x00000000   Number         0  lcp.o ABSOLUTE
    ..\Middlewares\Third_Party\LwIP\src\netif\ppp\magic.c 0x00000000   Number         0  magic.o ABSOLUTE
    ..\Middlewares\Third_Party\LwIP\src\netif\ppp\mppe.c 0x00000000   Number         0  mppe.o ABSOLUTE
    ..\Middlewares\Third_Party\LwIP\src\netif\ppp\multilink.c 0x00000000   Number         0  multilink.o ABSOLUTE
    ..\Middlewares\Third_Party\LwIP\src\netif\ppp\ppp.c 0x00000000   Number         0  ppp.o ABSOLUTE
    ..\Middlewares\Third_Party\LwIP\src\netif\ppp\pppapi.c 0x00000000   Number         0  pppapi.o ABSOLUTE
    ..\Middlewares\Third_Party\LwIP\src\netif\ppp\pppcrypt.c 0x00000000   Number         0  pppcrypt.o ABSOLUTE
    ..\Middlewares\Third_Party\LwIP\src\netif\ppp\pppoe.c 0x00000000   Number         0  pppoe.o ABSOLUTE
    ..\Middlewares\Third_Party\LwIP\src\netif\ppp\pppol2tp.c 0x00000000   Number         0  pppol2tp.o ABSOLUTE
    ..\Middlewares\Third_Party\LwIP\src\netif\ppp\pppos.c 0x00000000   Number         0  pppos.o ABSOLUTE
    ..\Middlewares\Third_Party\LwIP\src\netif\ppp\upap.c 0x00000000   Number         0  upap.o ABSOLUTE
    ..\Middlewares\Third_Party\LwIP\src\netif\ppp\utils.c 0x00000000   Number         0  utils.o ABSOLUTE
    ..\Middlewares\Third_Party\LwIP\src\netif\ppp\vj.c 0x00000000   Number         0  vj.o ABSOLUTE
    ..\Middlewares\Third_Party\LwIP\src\netif\slipif.c 0x00000000   Number         0  slipif.o ABSOLUTE
    ..\Middlewares\Third_Party\LwIP\src\netif\zepif.c 0x00000000   Number         0  zepif.o ABSOLUTE
    ..\\LWIP\\App\\TCPIP\\fifoMem.c          0x00000000   Number         0  fifomem.o ABSOLUTE
    ..\\LWIP\\App\\TCPIP\\lwip_udp.c         0x00000000   Number         0  lwip_udp.o ABSOLUTE
    ..\\LWIP\\App\\TCPIP\\tcp_client.c       0x00000000   Number         0  tcp_client.o ABSOLUTE
    ..\\LWIP\\App\\TCPIP\\tcp_server.c       0x00000000   Number         0  tcp_server.o ABSOLUTE
    cdrcmple.s                               0x00000000   Number         0  cdrcmple.o ABSOLUTE
    dc.s                                     0x00000000   Number         0  dc.o ABSOLUTE
    handlers.s                               0x00000000   Number         0  handlers.o ABSOLUTE
    init.s                                   0x00000000   Number         0  init.o ABSOLUTE
    startup_stm32h743xx.s                    0x00000000   Number         0  startup_stm32h743xx.o ABSOLUTE
    RESET                                    0x08000000   Section      664  startup_stm32h743xx.o(RESET)
    .ARM.Collect$$$$00000000                 0x08000298   Section        0  entry.o(.ARM.Collect$$$$00000000)
    .ARM.Collect$$$$00000001                 0x08000298   Section        4  entry2.o(.ARM.Collect$$$$00000001)
    .ARM.Collect$$$$00000004                 0x0800029c   Section        4  entry5.o(.ARM.Collect$$$$00000004)
    .ARM.Collect$$$$00000008                 0x080002a0   Section        0  entry7b.o(.ARM.Collect$$$$00000008)
    .ARM.Collect$$$$0000000A                 0x080002a0   Section        0  entry8b.o(.ARM.Collect$$$$0000000A)
    .ARM.Collect$$$$0000000B                 0x080002a0   Section        8  entry9a.o(.ARM.Collect$$$$0000000B)
    .ARM.Collect$$$$0000000E                 0x080002a8   Section        4  entry12b.o(.ARM.Collect$$$$0000000E)
    .ARM.Collect$$$$0000000F                 0x080002ac   Section        0  entry10a.o(.ARM.Collect$$$$0000000F)
    .ARM.Collect$$$$00000011                 0x080002ac   Section        0  entry11a.o(.ARM.Collect$$$$00000011)
    .ARM.Collect$$$$00002712                 0x080002ac   Section        4  entry2.o(.ARM.Collect$$$$00002712)
    __lit__00000000                          0x080002ac   Data           4  entry2.o(.ARM.Collect$$$$00002712)
    .text                                    0x080002b0   Section       36  startup_stm32h743xx.o(.text)
    $v0                                      0x080002b0   Number         0  startup_stm32h743xx.o(.text)
    .text                                    0x080002d4   Section        0  uldiv.o(.text)
    .text                                    0x08000338   Section        0  rand.o(.text)
    .text                                    0x0800035c   Section        0  memmovea.o(.text)
    .text                                    0x0800039c   Section        0  memseta.o(.text)
    .text                                    0x080003c0   Section        0  strlen.o(.text)
    .text                                    0x080003ce   Section        0  memcmp.o(.text)
    .text                                    0x080003e8   Section        0  uidiv.o(.text)
    .text                                    0x08000414   Section        0  llshl.o(.text)
    .text                                    0x08000432   Section        0  llushr.o(.text)
    .text                                    0x08000454   Section       36  init.o(.text)
    .text                                    0x08000478   Section        0  __dczerorl2.o(.text)
    i.BusFault_Handler                       0x080004ce   Section        0  stm32h7xx_it.o(i.BusFault_Handler)
    i.DebugMon_Handler                       0x080004d2   Section        0  stm32h7xx_it.o(i.DebugMon_Handler)
    i.ETH_DMARxDescListInit                  0x080004d4   Section        0  stm32h7xx_hal_eth.o(i.ETH_DMARxDescListInit)
    ETH_DMARxDescListInit                    0x080004d5   Thumb Code    96  stm32h7xx_hal_eth.o(i.ETH_DMARxDescListInit)
    i.ETH_DMATxDescListInit                  0x08000534   Section        0  stm32h7xx_hal_eth.o(i.ETH_DMATxDescListInit)
    ETH_DMATxDescListInit                    0x08000535   Thumb Code    82  stm32h7xx_hal_eth.o(i.ETH_DMATxDescListInit)
    i.ETH_IRQHandler                         0x08000588   Section        0  lwip.o(i.ETH_IRQHandler)
    i.ETH_MACDMAConfig                       0x080005ac   Section        0  stm32h7xx_hal_eth.o(i.ETH_MACDMAConfig)
    ETH_MACDMAConfig                         0x080005ad   Thumb Code   262  stm32h7xx_hal_eth.o(i.ETH_MACDMAConfig)
    i.ETH_PHY_IO_DeInit                      0x080006b2   Section        0  ethernetif.o(i.ETH_PHY_IO_DeInit)
    i.ETH_PHY_IO_GetTick                     0x080006b6   Section        0  ethernetif.o(i.ETH_PHY_IO_GetTick)
    i.ETH_PHY_IO_Init                        0x080006c0   Section        0  ethernetif.o(i.ETH_PHY_IO_Init)
    i.ETH_PHY_IO_ReadReg                     0x080006d0   Section        0  ethernetif.o(i.ETH_PHY_IO_ReadReg)
    i.ETH_PHY_IO_WriteReg                    0x080006f4   Section        0  ethernetif.o(i.ETH_PHY_IO_WriteReg)
    i.ETH_Prepare_Tx_Descriptors             0x08000718   Section        0  stm32h7xx_hal_eth.o(i.ETH_Prepare_Tx_Descriptors)
    ETH_Prepare_Tx_Descriptors               0x08000719   Thumb Code   972  stm32h7xx_hal_eth.o(i.ETH_Prepare_Tx_Descriptors)
    i.ETH_SetDMAConfig                       0x08000ae8   Section        0  stm32h7xx_hal_eth.o(i.ETH_SetDMAConfig)
    ETH_SetDMAConfig                         0x08000ae9   Thumb Code   176  stm32h7xx_hal_eth.o(i.ETH_SetDMAConfig)
    i.ETH_SetMACConfig                       0x08000ba4   Section        0  stm32h7xx_hal_eth.o(i.ETH_SetMACConfig)
    ETH_SetMACConfig                         0x08000ba5   Thumb Code   394  stm32h7xx_hal_eth.o(i.ETH_SetMACConfig)
    i.ETH_UpdateDescriptor                   0x08000d38   Section        0  stm32h7xx_hal_eth.o(i.ETH_UpdateDescriptor)
    ETH_UpdateDescriptor                     0x08000d39   Thumb Code   152  stm32h7xx_hal_eth.o(i.ETH_UpdateDescriptor)
    i.ETH_WKUP_IRQHandler                    0x08000dd0   Section        0  stm32h7xx_it.o(i.ETH_WKUP_IRQHandler)
    i.Error_Handler                          0x08000de0   Section        0  main.o(i.Error_Handler)
    i.Ethernet_Link_Periodic_Handle          0x08000de8   Section        0  lwip.o(i.Ethernet_Link_Periodic_Handle)
    Ethernet_Link_Periodic_Handle            0x08000de9   Thumb Code    34  lwip.o(i.Ethernet_Link_Periodic_Handle)
    i.HAL_DMA_Abort                          0x08000e10   Section        0  stm32h7xx_hal_dma.o(i.HAL_DMA_Abort)
    i.HAL_DMA_Abort_IT                       0x080012ec   Section        0  stm32h7xx_hal_dma.o(i.HAL_DMA_Abort_IT)
    i.HAL_ETH_EEECallback                    0x08001684   Section        0  stm32h7xx_hal_eth.o(i.HAL_ETH_EEECallback)
    i.HAL_ETH_ErrorCallback                  0x08001686   Section        0  stm32h7xx_hal_eth.o(i.HAL_ETH_ErrorCallback)
    i.HAL_ETH_GetMACConfig                   0x08001688   Section        0  stm32h7xx_hal_eth.o(i.HAL_ETH_GetMACConfig)
    i.HAL_ETH_IRQHandler                     0x08001860   Section        0  stm32h7xx_hal_eth.o(i.HAL_ETH_IRQHandler)
    i.HAL_ETH_Init                           0x08001a20   Section        0  stm32h7xx_hal_eth.o(i.HAL_ETH_Init)
    i.HAL_ETH_MspInit                        0x08001b88   Section        0  ethernetif.o(i.HAL_ETH_MspInit)
    i.HAL_ETH_PMTCallback                    0x08001db0   Section        0  stm32h7xx_hal_eth.o(i.HAL_ETH_PMTCallback)
    i.HAL_ETH_ReadData                       0x08001db2   Section        0  stm32h7xx_hal_eth.o(i.HAL_ETH_ReadData)
    i.HAL_ETH_ReadPHYRegister                0x08001eb2   Section        0  stm32h7xx_hal_eth.o(i.HAL_ETH_ReadPHYRegister)
    i.HAL_ETH_RxAllocateCallback             0x08001f2c   Section        0  ethernetif.o(i.HAL_ETH_RxAllocateCallback)
    i.HAL_ETH_RxCpltCallback                 0x08001f74   Section        0  stm32h7xx_hal_eth.o(i.HAL_ETH_RxCpltCallback)
    i.HAL_ETH_RxLinkCallback                 0x08001f78   Section        0  ethernetif.o(i.HAL_ETH_RxLinkCallback)
    i.HAL_ETH_SetMACConfig                   0x0800201c   Section        0  stm32h7xx_hal_eth.o(i.HAL_ETH_SetMACConfig)
    i.HAL_ETH_SetMDIOClockRange              0x08002040   Section        0  stm32h7xx_hal_eth.o(i.HAL_ETH_SetMDIOClockRange)
    i.HAL_ETH_Start_IT                       0x080020b8   Section        0  stm32h7xx_hal_eth.o(i.HAL_ETH_Start_IT)
    i.HAL_ETH_Stop                           0x08002198   Section        0  stm32h7xx_hal_eth.o(i.HAL_ETH_Stop)
    i.HAL_ETH_Transmit                       0x0800220c   Section        0  stm32h7xx_hal_eth.o(i.HAL_ETH_Transmit)
    i.HAL_ETH_TxCpltCallback                 0x08002302   Section        0  stm32h7xx_hal_eth.o(i.HAL_ETH_TxCpltCallback)
    i.HAL_ETH_WakeUpCallback                 0x08002304   Section        0  stm32h7xx_hal_eth.o(i.HAL_ETH_WakeUpCallback)
    i.HAL_ETH_WritePHYRegister               0x08002308   Section        0  stm32h7xx_hal_eth.o(i.HAL_ETH_WritePHYRegister)
    i.HAL_GPIO_Init                          0x08002388   Section        0  stm32h7xx_hal_gpio.o(i.HAL_GPIO_Init)
    i.HAL_GPIO_WritePin                      0x08002584   Section        0  stm32h7xx_hal_gpio.o(i.HAL_GPIO_WritePin)
    i.HAL_GetREVID                           0x08002590   Section        0  stm32h7xx_hal.o(i.HAL_GetREVID)
    i.HAL_GetTick                            0x0800259c   Section        0  stm32h7xx_hal.o(i.HAL_GetTick)
    i.HAL_IncTick                            0x080025a8   Section        0  stm32h7xx_hal.o(i.HAL_IncTick)
    i.HAL_Init                               0x080025c0   Section        0  stm32h7xx_hal.o(i.HAL_Init)
    i.HAL_InitTick                           0x08002620   Section        0  stm32h7xx_hal.o(i.HAL_InitTick)
    i.HAL_MPU_ConfigRegion                   0x08002678   Section        0  stm32h7xx_hal_cortex.o(i.HAL_MPU_ConfigRegion)
    i.HAL_MPU_Disable                        0x080026d4   Section        0  stm32h7xx_hal_cortex.o(i.HAL_MPU_Disable)
    i.HAL_MPU_Enable                         0x08002700   Section        0  stm32h7xx_hal_cortex.o(i.HAL_MPU_Enable)
    i.HAL_MspInit                            0x08002740   Section        0  stm32h7xx_hal_msp.o(i.HAL_MspInit)
    i.HAL_NVIC_EnableIRQ                     0x08002764   Section        0  stm32h7xx_hal_cortex.o(i.HAL_NVIC_EnableIRQ)
    i.HAL_NVIC_SetPriority                   0x0800278c   Section        0  stm32h7xx_hal_cortex.o(i.HAL_NVIC_SetPriority)
    i.HAL_NVIC_SetPriorityGrouping           0x08002808   Section        0  stm32h7xx_hal_cortex.o(i.HAL_NVIC_SetPriorityGrouping)
    i.HAL_PWREx_ConfigSupply                 0x08002830   Section        0  stm32h7xx_hal_pwr_ex.o(i.HAL_PWREx_ConfigSupply)
    i.HAL_RCCEx_GetD3PCLK1Freq               0x08002890   Section        0  stm32h7xx_hal_rcc_ex.o(i.HAL_RCCEx_GetD3PCLK1Freq)
    i.HAL_RCCEx_GetPLL2ClockFreq             0x080028b4   Section        0  stm32h7xx_hal_rcc_ex.o(i.HAL_RCCEx_GetPLL2ClockFreq)
    i.HAL_RCCEx_GetPLL3ClockFreq             0x08002ae4   Section        0  stm32h7xx_hal_rcc_ex.o(i.HAL_RCCEx_GetPLL3ClockFreq)
    i.HAL_RCCEx_PeriphCLKConfig              0x08002d14   Section        0  stm32h7xx_hal_rcc_ex.o(i.HAL_RCCEx_PeriphCLKConfig)
    i.HAL_RCC_ClockConfig                    0x08003a7c   Section        0  stm32h7xx_hal_rcc.o(i.HAL_RCC_ClockConfig)
    i.HAL_RCC_GetHCLKFreq                    0x08003d9c   Section        0  stm32h7xx_hal_rcc.o(i.HAL_RCC_GetHCLKFreq)
    i.HAL_RCC_GetPCLK1Freq                   0x08003de8   Section        0  stm32h7xx_hal_rcc.o(i.HAL_RCC_GetPCLK1Freq)
    i.HAL_RCC_GetPCLK2Freq                   0x08003e0c   Section        0  stm32h7xx_hal_rcc.o(i.HAL_RCC_GetPCLK2Freq)
    i.HAL_RCC_GetSysClockFreq                0x08003e30   Section        0  stm32h7xx_hal_rcc.o(i.HAL_RCC_GetSysClockFreq)
    i.HAL_RCC_OscConfig                      0x0800405c   Section        0  stm32h7xx_hal_rcc.o(i.HAL_RCC_OscConfig)
    i.HAL_SYSCFG_ETHInterfaceSelect          0x080048b4   Section        0  stm32h7xx_hal.o(i.HAL_SYSCFG_ETHInterfaceSelect)
    i.HAL_SYSTICK_Config                     0x080048c8   Section        0  stm32h7xx_hal_cortex.o(i.HAL_SYSTICK_Config)
    i.HAL_UARTEx_DisableFifoMode             0x080048fc   Section        0  stm32h7xx_hal_uart_ex.o(i.HAL_UARTEx_DisableFifoMode)
    i.HAL_UARTEx_RxEventCallback             0x0800494a   Section        0  stm32h7xx_hal_uart.o(i.HAL_UARTEx_RxEventCallback)
    i.HAL_UARTEx_RxFifoFullCallback          0x0800494c   Section        0  stm32h7xx_hal_uart_ex.o(i.HAL_UARTEx_RxFifoFullCallback)
    i.HAL_UARTEx_SetRxFifoThreshold          0x0800494e   Section        0  stm32h7xx_hal_uart_ex.o(i.HAL_UARTEx_SetRxFifoThreshold)
    i.HAL_UARTEx_SetTxFifoThreshold          0x080049ac   Section        0  stm32h7xx_hal_uart_ex.o(i.HAL_UARTEx_SetTxFifoThreshold)
    i.HAL_UARTEx_TxFifoEmptyCallback         0x08004a0a   Section        0  stm32h7xx_hal_uart_ex.o(i.HAL_UARTEx_TxFifoEmptyCallback)
    i.HAL_UARTEx_WakeupCallback              0x08004a0c   Section        0  stm32h7xx_hal_uart_ex.o(i.HAL_UARTEx_WakeupCallback)
    i.HAL_UART_ErrorCallback                 0x08004a0e   Section        0  stm32h7xx_hal_uart.o(i.HAL_UART_ErrorCallback)
    i.HAL_UART_IRQHandler                    0x08004a10   Section        0  stm32h7xx_hal_uart.o(i.HAL_UART_IRQHandler)
    i.HAL_UART_Init                          0x08004ea4   Section        0  stm32h7xx_hal_uart.o(i.HAL_UART_Init)
    i.HAL_UART_MspInit                       0x08004f1c   Section        0  usart.o(i.HAL_UART_MspInit)
    i.HAL_UART_TxCpltCallback                0x08004fe0   Section        0  stm32h7xx_hal_uart.o(i.HAL_UART_TxCpltCallback)
    i.HardFault_Handler                      0x08004fe2   Section        0  stm32h7xx_it.o(i.HardFault_Handler)
    i.LAN8742_GetLinkState                   0x08004fe6   Section        0  lan8742.o(i.LAN8742_GetLinkState)
    i.LAN8742_Init                           0x080050ce   Section        0  lan8742.o(i.LAN8742_Init)
    i.LAN8742_RegisterBusIO                  0x080051cc   Section        0  lan8742.o(i.LAN8742_RegisterBusIO)
    i.MPU_Config                             0x080051fc   Section        0  main.o(i.MPU_Config)
    MPU_Config                               0x080051fd   Thumb Code    90  main.o(i.MPU_Config)
    i.MX_GPIO_Init                           0x0800525c   Section        0  gpio.o(i.MX_GPIO_Init)
    i.MX_LWIP_Init                           0x08005380   Section        0  lwip.o(i.MX_LWIP_Init)
    i.MX_LWIP_Process                        0x080055c0   Section        0  lwip.o(i.MX_LWIP_Process)
    i.MX_USART1_UART_Init                    0x080055d4   Section        0  usart.o(i.MX_USART1_UART_Init)
    i.MemManage_Handler                      0x08005640   Section        0  stm32h7xx_it.o(i.MemManage_Handler)
    i.NMI_Handler                            0x08005644   Section        0  stm32h7xx_it.o(i.NMI_Handler)
    i.PendSV_Handler                         0x08005648   Section        0  stm32h7xx_it.o(i.PendSV_Handler)
    i.RCCEx_PLL2_Config                      0x0800564c   Section        0  stm32h7xx_hal_rcc_ex.o(i.RCCEx_PLL2_Config)
    RCCEx_PLL2_Config                        0x0800564d   Thumb Code   350  stm32h7xx_hal_rcc_ex.o(i.RCCEx_PLL2_Config)
    i.RCCEx_PLL3_Config                      0x080057b0   Section        0  stm32h7xx_hal_rcc_ex.o(i.RCCEx_PLL3_Config)
    RCCEx_PLL3_Config                        0x080057b1   Thumb Code   350  stm32h7xx_hal_rcc_ex.o(i.RCCEx_PLL3_Config)
    i.SVC_Handler                            0x08005914   Section        0  stm32h7xx_it.o(i.SVC_Handler)
    i.SysTick_Handler                        0x08005916   Section        0  stm32h7xx_it.o(i.SysTick_Handler)
    i.SystemClock_Config                     0x08005920   Section        0  main.o(i.SystemClock_Config)
    i.SystemInit                             0x08005a5c   Section        0  system_stm32h7xx.o(i.SystemInit)
    i.TCP_Client_Init                        0x08005b58   Section        0  tcp_client.o(i.TCP_Client_Init)
    i.TCP_Client_Task                        0x08005bdc   Section        0  tcp_client.o(i.TCP_Client_Task)
    i.TCP_Server_Init                        0x08005c08   Section        0  tcp_server.o(i.TCP_Server_Init)
    i.UARTEx_SetNbDataToProcess              0x08005c60   Section        0  stm32h7xx_hal_uart_ex.o(i.UARTEx_SetNbDataToProcess)
    UARTEx_SetNbDataToProcess                0x08005c61   Thumb Code    78  stm32h7xx_hal_uart_ex.o(i.UARTEx_SetNbDataToProcess)
    i.UART_AdvFeatureConfig                  0x08005cb8   Section        0  stm32h7xx_hal_uart.o(i.UART_AdvFeatureConfig)
    i.UART_CheckIdleState                    0x08005db0   Section        0  stm32h7xx_hal_uart.o(i.UART_CheckIdleState)
    i.UART_DMAAbortOnError                   0x08005e9a   Section        0  stm32h7xx_hal_uart.o(i.UART_DMAAbortOnError)
    UART_DMAAbortOnError                     0x08005e9b   Thumb Code    24  stm32h7xx_hal_uart.o(i.UART_DMAAbortOnError)
    i.UART_EndRxTransfer                     0x08005eb4   Section        0  stm32h7xx_hal_uart.o(i.UART_EndRxTransfer)
    UART_EndRxTransfer                       0x08005eb5   Thumb Code   104  stm32h7xx_hal_uart.o(i.UART_EndRxTransfer)
    i.UART_EndTransmit_IT                    0x08005f20   Section        0  stm32h7xx_hal_uart.o(i.UART_EndTransmit_IT)
    UART_EndTransmit_IT                      0x08005f21   Thumb Code    48  stm32h7xx_hal_uart.o(i.UART_EndTransmit_IT)
    i.UART_SetConfig                         0x08005f50   Section        0  stm32h7xx_hal_uart.o(i.UART_SetConfig)
    i.UART_WaitOnFlagUntilTimeout            0x080064dc   Section        0  stm32h7xx_hal_uart.o(i.UART_WaitOnFlagUntilTimeout)
    i.USART1_IRQHandler                      0x08006580   Section        0  stm32h7xx_it.o(i.USART1_IRQHandler)
    i.Udp_Lwip_Init                          0x08006590   Section        0  lwip_udp.o(i.Udp_Lwip_Init)
    i.UsageFault_Handler                     0x080065f4   Section        0  stm32h7xx_it.o(i.UsageFault_Handler)
    i.__0printf$3                            0x080065f8   Section        0  printf3.o(i.__0printf$3)
    i.__NVIC_GetPriorityGrouping             0x08006618   Section        0  stm32h7xx_hal_cortex.o(i.__NVIC_GetPriorityGrouping)
    __NVIC_GetPriorityGrouping               0x08006619   Thumb Code    10  stm32h7xx_hal_cortex.o(i.__NVIC_GetPriorityGrouping)
    i.__NVIC_SetPriority                     0x08006628   Section        0  stm32h7xx_hal_cortex.o(i.__NVIC_SetPriority)
    __NVIC_SetPriority                       0x08006629   Thumb Code    32  stm32h7xx_hal_cortex.o(i.__NVIC_SetPriority)
    i.__scatterload_copy                     0x08006650   Section       14  handlers.o(i.__scatterload_copy)
    i.__scatterload_null                     0x0800665e   Section        2  handlers.o(i.__scatterload_null)
    i.__scatterload_zeroinit                 0x08006660   Section       14  handlers.o(i.__scatterload_zeroinit)
    i._printf_core                           0x08006670   Section        0  printf3.o(i._printf_core)
    _printf_core                             0x08006671   Thumb Code   436  printf3.o(i._printf_core)
    i.client_connected                       0x08006828   Section        0  tcp_client.o(i.client_connected)
    client_connected                         0x08006829   Thumb Code    62  tcp_client.o(i.client_connected)
    i.client_polling_cbk                     0x08006878   Section        0  tcp_client.o(i.client_polling_cbk)
    client_polling_cbk                       0x08006879   Thumb Code    52  tcp_client.o(i.client_polling_cbk)
    i.client_set_remote_ip                   0x080068b0   Section        0  tcp_client.o(i.client_set_remote_ip)
    i.do_memp_free_pool                      0x080069c8   Section        0  memp.o(i.do_memp_free_pool)
    do_memp_free_pool                        0x080069c9   Thumb Code    50  memp.o(i.do_memp_free_pool)
    i.do_memp_malloc_pool                    0x08006a74   Section        0  memp.o(i.do_memp_malloc_pool)
    do_memp_malloc_pool                      0x08006a75   Thumb Code    56  memp.o(i.do_memp_malloc_pool)
    i.etharp_cleanup_netif                   0x08006b28   Section        0  etharp.o(i.etharp_cleanup_netif)
    i.etharp_find_entry                      0x08006b60   Section        0  etharp.o(i.etharp_find_entry)
    etharp_find_entry                        0x08006b61   Thumb Code   514  etharp.o(i.etharp_find_entry)
    i.etharp_free_entry                      0x08006e60   Section        0  etharp.o(i.etharp_free_entry)
    etharp_free_entry                        0x08006e61   Thumb Code    58  etharp.o(i.etharp_free_entry)
    i.etharp_input                           0x08006ea0   Section        0  etharp.o(i.etharp_input)
    i.etharp_output                          0x08006fdc   Section        0  etharp.o(i.etharp_output)
    i.etharp_output_to_arp_index             0x08007200   Section        0  etharp.o(i.etharp_output_to_arp_index)
    etharp_output_to_arp_index               0x08007201   Thumb Code   212  etharp.o(i.etharp_output_to_arp_index)
    i.etharp_query                           0x08007368   Section        0  etharp.o(i.etharp_query)
    i.etharp_raw                             0x0800760c   Section        0  etharp.o(i.etharp_raw)
    etharp_raw                               0x0800760d   Thumb Code   226  etharp.o(i.etharp_raw)
    i.etharp_request                         0x08007798   Section        0  etharp.o(i.etharp_request)
    i.etharp_request_dst                     0x080077b0   Section        0  etharp.o(i.etharp_request_dst)
    etharp_request_dst                       0x080077b1   Thumb Code    38  etharp.o(i.etharp_request_dst)
    i.etharp_tmr                             0x080077dc   Section        0  etharp.o(i.etharp_tmr)
    i.etharp_update_arp_entry                0x080078b8   Section        0  etharp.o(i.etharp_update_arp_entry)
    etharp_update_arp_entry                  0x080078b9   Thumb Code   212  etharp.o(i.etharp_update_arp_entry)
    i.ethernet_input                         0x08007a14   Section        0  ethernet.o(i.ethernet_input)
    i.ethernet_link_check_state              0x08007ad8   Section        0  ethernetif.o(i.ethernet_link_check_state)
    i.ethernet_link_status_updated           0x08007ba4   Section        0  lwip.o(i.ethernet_link_status_updated)
    ethernet_link_status_updated             0x08007ba5   Thumb Code    30  lwip.o(i.ethernet_link_status_updated)
    i.ethernet_output                        0x08007c04   Section        0  ethernet.o(i.ethernet_output)
    i.ethernetif_init                        0x08007d08   Section        0  ethernetif.o(i.ethernetif_init)
    i.ethernetif_input                       0x08007da0   Section        0  ethernetif.o(i.ethernetif_input)
    i.fputc                                  0x08007e04   Section        0  main.o(i.fputc)
    i.icmp_dest_unreach                      0x08007e20   Section        0  icmp.o(i.icmp_dest_unreach)
    i.icmp_input                             0x08007e34   Section        0  icmp.o(i.icmp_input)
    i.icmp_send_response                     0x080080d8   Section        0  icmp.o(i.icmp_send_response)
    icmp_send_response                       0x080080d9   Thumb Code   152  icmp.o(i.icmp_send_response)
    i.icmp_time_exceeded                     0x080081fc   Section        0  icmp.o(i.icmp_time_exceeded)
    i.inet_chksum                            0x0800820e   Section        0  inet_chksum.o(i.inet_chksum)
    i.inet_chksum_pbuf                       0x08008222   Section        0  inet_chksum.o(i.inet_chksum_pbuf)
    i.ip4_addr_isbroadcast_u32               0x08008278   Section        0  ip4_addr.o(i.ip4_addr_isbroadcast_u32)
    i.ip4_frag                               0x080082c8   Section        0  ip4_frag.o(i.ip4_frag)
    i.ip4_input                              0x08008594   Section        0  ip4.o(i.ip4_input)
    i.ip4_input_accept                       0x08008730   Section        0  ip4.o(i.ip4_input_accept)
    ip4_input_accept                         0x08008731   Thumb Code    48  ip4.o(i.ip4_input_accept)
    i.ip4_output_if                          0x08008764   Section        0  ip4.o(i.ip4_output_if)
    i.ip4_output_if_src                      0x0800879c   Section        0  ip4.o(i.ip4_output_if_src)
    i.ip4_reass                              0x08008938   Section        0  ip4_frag.o(i.ip4_reass)
    i.ip4_route                              0x08008c34   Section        0  ip4.o(i.ip4_route)
    i.ip_frag_alloc_pbuf_custom_ref          0x08008cc8   Section        0  ip4_frag.o(i.ip_frag_alloc_pbuf_custom_ref)
    ip_frag_alloc_pbuf_custom_ref            0x08008cc9   Thumb Code    10  ip4_frag.o(i.ip_frag_alloc_pbuf_custom_ref)
    i.ip_frag_free_pbuf_custom_ref           0x08008cd4   Section        0  ip4_frag.o(i.ip_frag_free_pbuf_custom_ref)
    ip_frag_free_pbuf_custom_ref             0x08008cd5   Thumb Code    40  ip4_frag.o(i.ip_frag_free_pbuf_custom_ref)
    i.ip_reass_chain_frag_into_datagram_and_validate 0x08008d6c   Section        0  ip4_frag.o(i.ip_reass_chain_frag_into_datagram_and_validate)
    ip_reass_chain_frag_into_datagram_and_validate 0x08008d6d   Thumb Code   530  ip4_frag.o(i.ip_reass_chain_frag_into_datagram_and_validate)
    i.ip_reass_dequeue_datagram              0x08009070   Section        0  ip4_frag.o(i.ip_reass_dequeue_datagram)
    ip_reass_dequeue_datagram                0x08009071   Thumb Code    62  ip4_frag.o(i.ip_reass_dequeue_datagram)
    i.ip_reass_enqueue_new_datagram          0x08009134   Section        0  ip4_frag.o(i.ip_reass_enqueue_new_datagram)
    ip_reass_enqueue_new_datagram            0x08009135   Thumb Code    80  ip4_frag.o(i.ip_reass_enqueue_new_datagram)
    i.ip_reass_free_complete_datagram        0x08009188   Section        0  ip4_frag.o(i.ip_reass_free_complete_datagram)
    ip_reass_free_complete_datagram          0x08009189   Thumb Code   274  ip4_frag.o(i.ip_reass_free_complete_datagram)
    i.ip_reass_remove_oldest_datagram        0x08009368   Section        0  ip4_frag.o(i.ip_reass_remove_oldest_datagram)
    ip_reass_remove_oldest_datagram          0x08009369   Thumb Code   130  ip4_frag.o(i.ip_reass_remove_oldest_datagram)
    i.ip_reass_tmr                           0x080093f0   Section        0  ip4_frag.o(i.ip_reass_tmr)
    i.ipfrag_free_pbuf_custom                0x08009424   Section        0  ip4_frag.o(i.ipfrag_free_pbuf_custom)
    ipfrag_free_pbuf_custom                  0x08009425   Thumb Code    76  ip4_frag.o(i.ipfrag_free_pbuf_custom)
    i.low_level_init                         0x080094ec   Section        0  ethernetif.o(i.low_level_init)
    low_level_init                           0x080094ed   Thumb Code   218  ethernetif.o(i.low_level_init)
    i.low_level_input                        0x080095e8   Section        0  ethernetif.o(i.low_level_input)
    low_level_input                          0x080095e9   Thumb Code   146  ethernetif.o(i.low_level_input)
    i.low_level_output                       0x0800968c   Section        0  ethernetif.o(i.low_level_output)
    low_level_output                         0x0800968d   Thumb Code   282  ethernetif.o(i.low_level_output)
    i.lwip_cyclic_timer                      0x080097b8   Section        0  timeouts.o(i.lwip_cyclic_timer)
    lwip_cyclic_timer                        0x080097b9   Thumb Code    70  timeouts.o(i.lwip_cyclic_timer)
    i.lwip_htonl                             0x08009808   Section        0  def.o(i.lwip_htonl)
    i.lwip_htons                             0x08009822   Section        0  def.o(i.lwip_htons)
    i.lwip_init                              0x08009830   Section        0  init.o(i.lwip_init)
    i.lwip_standard_chksum                   0x080098cc   Section        0  inet_chksum.o(i.lwip_standard_chksum)
    i.lwip_udp_discollected                  0x0800992c   Section        0  lwip_udp.o(i.lwip_udp_discollected)
    i.lwip_udp_recv_callback                 0x08009950   Section        0  lwip_udp.o(i.lwip_udp_recv_callback)
    i.lwip_udp_register                      0x08009a2c   Section        0  lwip_udp.o(i.lwip_udp_register)
    i.lwip_udp_send                          0x08009a48   Section        0  lwip_udp.o(i.lwip_udp_send)
    i.lwip_udp_set_remote_ip                 0x08009a90   Section        0  lwip_udp.o(i.lwip_udp_set_remote_ip)
    i.main                                   0x08009ba0   Section        0  main.o(i.main)
    i.mem_free                               0x08009d4c   Section        0  mem.o(i.mem_free)
    i.mem_init                               0x08009f10   Section        0  mem.o(i.mem_init)
    i.mem_link_valid                         0x08009f68   Section        0  mem.o(i.mem_link_valid)
    mem_link_valid                           0x08009f69   Thumb Code    82  mem.o(i.mem_link_valid)
    i.mem_malloc                             0x08009fc0   Section        0  mem.o(i.mem_malloc)
    i.mem_to_ptr                             0x0800a268   Section        0  mem.o(i.mem_to_ptr)
    mem_to_ptr                               0x0800a269   Thumb Code    12  mem.o(i.mem_to_ptr)
    i.mem_trim                               0x0800a278   Section        0  mem.o(i.mem_trim)
    i.memp_free                              0x0800a4ac   Section        0  memp.o(i.memp_free)
    i.memp_free_pool                         0x0800a55c   Section        0  memp.o(i.memp_free_pool)
    i.memp_init                              0x0800a5fc   Section        0  memp.o(i.memp_init)
    i.memp_init_pool                         0x0800a61c   Section        0  memp.o(i.memp_init_pool)
    i.memp_malloc                            0x0800a648   Section        0  memp.o(i.memp_malloc)
    i.memp_malloc_pool                       0x0800a6f8   Section        0  memp.o(i.memp_malloc_pool)
    i.netif_add                              0x0800a790   Section        0  netif.o(i.netif_add)
    i.netif_do_ip_addr_changed               0x0800a9c0   Section        0  netif.o(i.netif_do_ip_addr_changed)
    netif_do_ip_addr_changed                 0x0800a9c1   Thumb Code    24  netif.o(i.netif_do_ip_addr_changed)
    i.netif_do_set_gw                        0x0800a9d8   Section        0  netif.o(i.netif_do_set_gw)
    netif_do_set_gw                          0x0800a9d9   Thumb Code    38  netif.o(i.netif_do_set_gw)
    i.netif_do_set_ipaddr                    0x0800aa00   Section        0  netif.o(i.netif_do_set_ipaddr)
    netif_do_set_ipaddr                      0x0800aa01   Thumb Code   116  netif.o(i.netif_do_set_ipaddr)
    i.netif_do_set_netmask                   0x0800aae0   Section        0  netif.o(i.netif_do_set_netmask)
    netif_do_set_netmask                     0x0800aae1   Thumb Code    38  netif.o(i.netif_do_set_netmask)
    i.netif_get_by_index                     0x0800ab08   Section        0  netif.o(i.netif_get_by_index)
    i.netif_init                             0x0800ab30   Section        0  netif.o(i.netif_init)
    i.netif_issue_reports                    0x0800ab34   Section        0  netif.o(i.netif_issue_reports)
    netif_issue_reports                      0x0800ab35   Thumb Code    86  netif.o(i.netif_issue_reports)
    i.netif_null_output_ip4                  0x0800ac0c   Section        0  netif.o(i.netif_null_output_ip4)
    netif_null_output_ip4                    0x0800ac0d   Thumb Code     8  netif.o(i.netif_null_output_ip4)
    i.netif_set_addr                         0x0800ac14   Section        0  netif.o(i.netif_set_addr)
    i.netif_set_default                      0x0800ac74   Section        0  netif.o(i.netif_set_default)
    i.netif_set_down                         0x0800ac80   Section        0  netif.o(i.netif_set_down)
    i.netif_set_link_callback                0x0800ad4c   Section        0  netif.o(i.netif_set_link_callback)
    i.netif_set_link_down                    0x0800ad54   Section        0  netif.o(i.netif_set_link_down)
    i.netif_set_link_up                      0x0800ae20   Section        0  netif.o(i.netif_set_link_up)
    i.netif_set_up                           0x0800aef4   Section        0  netif.o(i.netif_set_up)
    i.pbuf_add_header                        0x0800afb4   Section        0  pbuf.o(i.pbuf_add_header)
    i.pbuf_add_header_impl                   0x0800afc8   Section        0  pbuf.o(i.pbuf_add_header_impl)
    pbuf_add_header_impl                     0x0800afc9   Thumb Code   130  pbuf.o(i.pbuf_add_header_impl)
    i.pbuf_alloc                             0x0800b0b0   Section        0  pbuf.o(i.pbuf_alloc)
    i.pbuf_alloc_reference                   0x0800b354   Section        0  pbuf.o(i.pbuf_alloc_reference)
    i.pbuf_alloced_custom                    0x0800b410   Section        0  pbuf.o(i.pbuf_alloced_custom)
    i.pbuf_cat                               0x0800b464   Section        0  pbuf.o(i.pbuf_cat)
    i.pbuf_chain                             0x0800b5b4   Section        0  pbuf.o(i.pbuf_chain)
    i.pbuf_clen                              0x0800b5ca   Section        0  pbuf.o(i.pbuf_clen)
    i.pbuf_clone                             0x0800b5dc   Section        0  pbuf.o(i.pbuf_clone)
    i.pbuf_copy                              0x0800b68c   Section        0  pbuf.o(i.pbuf_copy)
    i.pbuf_copy_partial                      0x0800b8b4   Section        0  pbuf.o(i.pbuf_copy_partial)
    i.pbuf_free                              0x0800b9f4   Section        0  pbuf.o(i.pbuf_free)
    i.pbuf_free_custom                       0x0800bb90   Section        0  ethernetif.o(i.pbuf_free_custom)
    i.pbuf_free_ooseq                        0x0800bbb8   Section        0  pbuf.o(i.pbuf_free_ooseq)
    i.pbuf_header_force                      0x0800bbe8   Section        0  pbuf.o(i.pbuf_header_force)
    i.pbuf_header_impl                       0x0800bbfa   Section        0  pbuf.o(i.pbuf_header_impl)
    pbuf_header_impl                         0x0800bbfb   Thumb Code    34  pbuf.o(i.pbuf_header_impl)
    i.pbuf_init_alloced_pbuf                 0x0800bc1c   Section        0  pbuf.o(i.pbuf_init_alloced_pbuf)
    pbuf_init_alloced_pbuf                   0x0800bc1d   Thumb Code    30  pbuf.o(i.pbuf_init_alloced_pbuf)
    i.pbuf_pool_is_empty                     0x0800bc3c   Section        0  pbuf.o(i.pbuf_pool_is_empty)
    pbuf_pool_is_empty                       0x0800bc3d   Thumb Code    12  pbuf.o(i.pbuf_pool_is_empty)
    i.pbuf_realloc                           0x0800bc4c   Section        0  pbuf.o(i.pbuf_realloc)
    i.pbuf_ref                               0x0800bdb4   Section        0  pbuf.o(i.pbuf_ref)
    i.pbuf_remove_header                     0x0800be50   Section        0  pbuf.o(i.pbuf_remove_header)
    i.pbuf_take                              0x0800bf44   Section        0  pbuf.o(i.pbuf_take)
    i.plug_holes                             0x0800c10c   Section        0  mem.o(i.plug_holes)
    plug_holes                               0x0800c10d   Thumb Code   248  mem.o(i.plug_holes)
    i.ptr_to_mem                             0x0800c2e4   Section        0  mem.o(i.ptr_to_mem)
    ptr_to_mem                               0x0800c2e5   Thumb Code    10  mem.o(i.ptr_to_mem)
    i.server_set_local_ip                    0x0800c2f4   Section        0  tcp_server.o(i.server_set_local_ip)
    i.sys_check_timeouts                     0x0800c404   Section        0  timeouts.o(i.sys_check_timeouts)
    i.sys_now                                0x0800c468   Section        0  ethernetif.o(i.sys_now)
    i.sys_timeout                            0x0800c470   Section        0  timeouts.o(i.sys_timeout)
    i.sys_timeout_abs                        0x0800c540   Section        0  timeouts.o(i.sys_timeout_abs)
    sys_timeout_abs                          0x0800c541   Thumb Code   160  timeouts.o(i.sys_timeout_abs)
    i.sys_timeouts_init                      0x0800c680   Section        0  timeouts.o(i.sys_timeouts_init)
    i.tcp_abandon                            0x0800c6a8   Section        0  tcp.o(i.tcp_abandon)
    i.tcp_abort                              0x0800c87c   Section        0  tcp.o(i.tcp_abort)
    i.tcp_accept                             0x0800c88a   Section        0  tcp.o(i.tcp_accept)
    i.tcp_accept_null                        0x0800c89c   Section        0  tcp.o(i.tcp_accept_null)
    tcp_accept_null                          0x0800c89d   Thumb Code    46  tcp.o(i.tcp_accept_null)
    i.tcp_alloc                              0x0800c944   Section        0  tcp.o(i.tcp_alloc)
    i.tcp_arg                                0x0800ca00   Section        0  tcp.o(i.tcp_arg)
    i.tcp_bind                               0x0800ca08   Section        0  tcp.o(i.tcp_bind)
    i.tcp_client_connection_close            0x0800cb78   Section        0  tcp_client.o(i.tcp_client_connection_close)
    i.tcp_client_connection_close            0x0800cbbc   Section        0  tcp_server.o(i.tcp_client_connection_close)
    tcp_client_connection_close              0x0800cbbd   Thumb Code    64  tcp_server.o(i.tcp_client_connection_close)
    i.tcp_client_err_cbk                     0x0800cbfc   Section        0  tcp_client.o(i.tcp_client_err_cbk)
    tcp_client_err_cbk                       0x0800cbfd   Thumb Code    14  tcp_client.o(i.tcp_client_err_cbk)
    i.tcp_client_recv_cbk                    0x0800cc28   Section        0  tcp_client.o(i.tcp_client_recv_cbk)
    tcp_client_recv_cbk                      0x0800cc29   Thumb Code   194  tcp_client.o(i.tcp_client_recv_cbk)
    i.tcp_client_send                        0x0800ccf0   Section        0  tcp_client.o(i.tcp_client_send)
    tcp_client_send                          0x0800ccf1   Thumb Code    14  tcp_client.o(i.tcp_client_send)
    i.tcp_close                              0x0800cd00   Section        0  tcp.o(i.tcp_close)
    i.tcp_close_shutdown                     0x0800cdb0   Section        0  tcp.o(i.tcp_close_shutdown)
    tcp_close_shutdown                       0x0800cdb1   Thumb Code   356  tcp.o(i.tcp_close_shutdown)
    i.tcp_close_shutdown_fin                 0x0800cfbc   Section        0  tcp.o(i.tcp_close_shutdown_fin)
    tcp_close_shutdown_fin                   0x0800cfbd   Thumb Code   132  tcp.o(i.tcp_close_shutdown_fin)
    i.tcp_connect                            0x0800d0a4   Section        0  tcp.o(i.tcp_connect)
    i.tcp_create_segment                     0x0800d304   Section        0  tcp_out.o(i.tcp_create_segment)
    tcp_create_segment                       0x0800d305   Thumb Code   282  tcp_out.o(i.tcp_create_segment)
    i.tcp_eff_send_mss_netif                 0x0800d4d8   Section        0  tcp.o(i.tcp_eff_send_mss_netif)
    i.tcp_enqueue_flags                      0x0800d5ac   Section        0  tcp_out.o(i.tcp_enqueue_flags)
    i.tcp_err                                0x0800d86c   Section        0  tcp.o(i.tcp_err)
    i.tcp_fasttmr                            0x0800d918   Section        0  tcp.o(i.tcp_fasttmr)
    i.tcp_free                               0x0800d9b4   Section        0  tcp.o(i.tcp_free)
    i.tcp_free_acked_segments                0x0800da48   Section        0  tcp_in.o(i.tcp_free_acked_segments)
    tcp_free_acked_segments                  0x0800da49   Thumb Code   176  tcp_in.o(i.tcp_free_acked_segments)
    i.tcp_free_listen                        0x0800dba4   Section        0  tcp.o(i.tcp_free_listen)
    tcp_free_listen                          0x0800dba5   Thumb Code    40  tcp.o(i.tcp_free_listen)
    i.tcp_free_ooseq                         0x0800dc40   Section        0  tcp.o(i.tcp_free_ooseq)
    i.tcp_get_next_optbyte                   0x0800dc54   Section        0  tcp_in.o(i.tcp_get_next_optbyte)
    tcp_get_next_optbyte                     0x0800dc55   Thumb Code    54  tcp_in.o(i.tcp_get_next_optbyte)
    i.tcp_handle_closepend                   0x0800dc9c   Section        0  tcp.o(i.tcp_handle_closepend)
    tcp_handle_closepend                     0x0800dc9d   Thumb Code    48  tcp.o(i.tcp_handle_closepend)
    i.tcp_init                               0x0800dcd0   Section        0  tcp.o(i.tcp_init)
    i.tcp_input                              0x0800dce8   Section        0  tcp_in.o(i.tcp_input)
    i.tcp_input_delayed_close                0x0800e500   Section        0  tcp_in.o(i.tcp_input_delayed_close)
    tcp_input_delayed_close                  0x0800e501   Thumb Code    92  tcp_in.o(i.tcp_input_delayed_close)
    i.tcp_keepalive                          0x0800e5e8   Section        0  tcp_out.o(i.tcp_keepalive)
    i.tcp_kill_prio                          0x0800e6c4   Section        0  tcp.o(i.tcp_kill_prio)
    tcp_kill_prio                            0x0800e6c5   Thumb Code    96  tcp.o(i.tcp_kill_prio)
    i.tcp_kill_state                         0x0800e72c   Section        0  tcp.o(i.tcp_kill_state)
    tcp_kill_state                           0x0800e72d   Thumb Code    94  tcp.o(i.tcp_kill_state)
    i.tcp_kill_timewait                      0x0800e7fc   Section        0  tcp.o(i.tcp_kill_timewait)
    tcp_kill_timewait                        0x0800e7fd   Thumb Code    50  tcp.o(i.tcp_kill_timewait)
    i.tcp_listen_closed                      0x0800e838   Section        0  tcp.o(i.tcp_listen_closed)
    tcp_listen_closed                        0x0800e839   Thumb Code    82  tcp.o(i.tcp_listen_closed)
    i.tcp_listen_input                       0x0800e90c   Section        0  tcp_in.o(i.tcp_listen_input)
    tcp_listen_input                         0x0800e90d   Thumb Code   342  tcp_in.o(i.tcp_listen_input)
    i.tcp_listen_with_backlog                0x0800eb00   Section        0  tcp.o(i.tcp_listen_with_backlog)
    i.tcp_listen_with_backlog_and_err        0x0800eb14   Section        0  tcp.o(i.tcp_listen_with_backlog_and_err)
    i.tcp_netif_ip_addr_changed              0x0800ecd8   Section        0  tcp.o(i.tcp_netif_ip_addr_changed)
    i.tcp_netif_ip_addr_changed_pcblist      0x0800ed24   Section        0  tcp.o(i.tcp_netif_ip_addr_changed_pcblist)
    tcp_netif_ip_addr_changed_pcblist        0x0800ed25   Thumb Code    68  tcp.o(i.tcp_netif_ip_addr_changed_pcblist)
    i.tcp_new                                0x0800edf4   Section        0  tcp.o(i.tcp_new)
    i.tcp_new_port                           0x0800ee00   Section        0  tcp.o(i.tcp_new_port)
    tcp_new_port                             0x0800ee01   Thumb Code    96  tcp.o(i.tcp_new_port)
    i.tcp_next_iss                           0x0800ee68   Section        0  tcp.o(i.tcp_next_iss)
    i.tcp_oos_insert_segment                 0x0800ef18   Section        0  tcp_in.o(i.tcp_oos_insert_segment)
    tcp_oos_insert_segment                   0x0800ef19   Thumb Code   164  tcp_in.o(i.tcp_oos_insert_segment)
    i.tcp_output                             0x0800f044   Section        0  tcp_out.o(i.tcp_output)
    i.tcp_output_alloc_header                0x0800f3a8   Section        0  tcp_out.o(i.tcp_output_alloc_header)
    tcp_output_alloc_header                  0x0800f3a9   Thumb Code    86  tcp_out.o(i.tcp_output_alloc_header)
    i.tcp_output_alloc_header_common         0x0800f484   Section        0  tcp_out.o(i.tcp_output_alloc_header_common)
    tcp_output_alloc_header_common           0x0800f485   Thumb Code   152  tcp_out.o(i.tcp_output_alloc_header_common)
    i.tcp_output_control_segment             0x0800f5a8   Section        0  tcp_out.o(i.tcp_output_control_segment)
    tcp_output_control_segment               0x0800f5a9   Thumb Code   114  tcp_out.o(i.tcp_output_control_segment)
    i.tcp_output_fill_options                0x0800f6a4   Section        0  tcp_out.o(i.tcp_output_fill_options)
    tcp_output_fill_options                  0x0800f6a5   Thumb Code   140  tcp_out.o(i.tcp_output_fill_options)
    i.tcp_output_segment                     0x0800f7c8   Section        0  tcp_out.o(i.tcp_output_segment)
    tcp_output_segment                       0x0800f7c9   Thumb Code   372  tcp_out.o(i.tcp_output_segment)
    i.tcp_output_segment_busy                0x0800fa14   Section        0  tcp_out.o(i.tcp_output_segment_busy)
    tcp_output_segment_busy                  0x0800fa15   Thumb Code    46  tcp_out.o(i.tcp_output_segment_busy)
    i.tcp_parseopt                           0x0800fac8   Section        0  tcp_in.o(i.tcp_parseopt)
    tcp_parseopt                             0x0800fac9   Thumb Code   176  tcp_in.o(i.tcp_parseopt)
    i.tcp_pbuf_prealloc                      0x0800fbf8   Section        0  tcp_out.o(i.tcp_pbuf_prealloc)
    tcp_pbuf_prealloc                        0x0800fbf9   Thumb Code   194  tcp_out.o(i.tcp_pbuf_prealloc)
    i.tcp_pcb_purge                          0x0800fd70   Section        0  tcp.o(i.tcp_pcb_purge)
    i.tcp_pcb_remove                         0x0800fe4c   Section        0  tcp.o(i.tcp_pcb_remove)
    i.tcp_poll                               0x08010024   Section        0  tcp.o(i.tcp_poll)
    i.tcp_process                            0x08010100   Section        0  tcp_in.o(i.tcp_process)
    tcp_process                              0x08010101   Thumb Code  1818  tcp_in.o(i.tcp_process)
    i.tcp_process_refused_data               0x08010844   Section        0  tcp.o(i.tcp_process_refused_data)
    i.tcp_receive                            0x0801097c   Section        0  tcp_in.o(i.tcp_receive)
    tcp_receive                              0x0801097d   Thumb Code  3136  tcp_in.o(i.tcp_receive)
    i.tcp_recv                               0x080115f8   Section        0  tcp.o(i.tcp_recv)
    i.tcp_recv_null                          0x080116a4   Section        0  tcp.o(i.tcp_recv_null)
    i.tcp_recved                             0x08011768   Section        0  tcp.o(i.tcp_recved)
    i.tcp_remove_listener                    0x08011884   Section        0  tcp.o(i.tcp_remove_listener)
    tcp_remove_listener                      0x08011885   Thumb Code    52  tcp.o(i.tcp_remove_listener)
    i.tcp_rexmit                             0x08011938   Section        0  tcp_out.o(i.tcp_rexmit)
    i.tcp_rexmit_fast                        0x08011a3c   Section        0  tcp_out.o(i.tcp_rexmit_fast)
    i.tcp_rexmit_rto                         0x08011b48   Section        0  tcp_out.o(i.tcp_rexmit_rto)
    i.tcp_rexmit_rto_commit                  0x08011bf0   Section        0  tcp_out.o(i.tcp_rexmit_rto_commit)
    i.tcp_rexmit_rto_prepare                 0x08011ca8   Section        0  tcp_out.o(i.tcp_rexmit_rto_prepare)
    i.tcp_route                              0x08011dc0   Section        0  tcp_out.o(i.tcp_route)
    tcp_route                                0x08011dc1   Thumb Code    30  tcp_out.o(i.tcp_route)
    i.tcp_rst                                0x08011de0   Section        0  tcp_out.o(i.tcp_rst)
    i.tcp_seg_copy                           0x08011f08   Section        0  tcp.o(i.tcp_seg_copy)
    i.tcp_seg_free                           0x08011fbc   Section        0  tcp.o(i.tcp_seg_free)
    i.tcp_segs_free                          0x08011fd6   Section        0  tcp.o(i.tcp_segs_free)
    i.tcp_send_empty_ack                     0x08011ff0   Section        0  tcp_out.o(i.tcp_send_empty_ack)
    i.tcp_send_fin                           0x08012130   Section        0  tcp_out.o(i.tcp_send_fin)
    i.tcp_sent                               0x08012210   Section        0  tcp.o(i.tcp_sent)
    i.tcp_server_accept_cbk                  0x080122bc   Section        0  tcp_server.o(i.tcp_server_accept_cbk)
    tcp_server_accept_cbk                    0x080122bd   Thumb Code    60  tcp_server.o(i.tcp_server_accept_cbk)
    i.tcp_server_err_cbk                     0x0801231c   Section        0  tcp_server.o(i.tcp_server_err_cbk)
    tcp_server_err_cbk                       0x0801231d   Thumb Code    48  tcp_server.o(i.tcp_server_err_cbk)
    i.tcp_server_poll_cbk                    0x08012368   Section        0  tcp_server.o(i.tcp_server_poll_cbk)
    tcp_server_poll_cbk                      0x08012369   Thumb Code    44  tcp_server.o(i.tcp_server_poll_cbk)
    i.tcp_server_recv_cbk                    0x080123a4   Section        0  tcp_server.o(i.tcp_server_recv_cbk)
    tcp_server_recv_cbk                      0x080123a5   Thumb Code   276  tcp_server.o(i.tcp_server_recv_cbk)
    i.tcp_server_sent_cbk                    0x080124f4   Section        0  tcp_server.o(i.tcp_server_sent_cbk)
    tcp_server_sent_cbk                      0x080124f5   Thumb Code    32  tcp_server.o(i.tcp_server_sent_cbk)
    i.tcp_slowtmr                            0x08012530   Section        0  tcp.o(i.tcp_slowtmr)
    i.tcp_split_unsent_seg                   0x08012c60   Section        0  tcp_out.o(i.tcp_split_unsent_seg)
    i.tcp_timer_needed                       0x08012f30   Section        0  timeouts.o(i.tcp_timer_needed)
    i.tcp_timewait_input                     0x08012f68   Section        0  tcp_in.o(i.tcp_timewait_input)
    tcp_timewait_input                       0x08012f69   Thumb Code   170  tcp_in.o(i.tcp_timewait_input)
    i.tcp_tmr                                0x080130ac   Section        0  tcp.o(i.tcp_tmr)
    i.tcp_trigger_input_pcb_close            0x080130d0   Section        0  tcp_in.o(i.tcp_trigger_input_pcb_close)
    i.tcp_update_rcv_ann_wnd                 0x080130e4   Section        0  tcp.o(i.tcp_update_rcv_ann_wnd)
    i.tcp_write                              0x080131fc   Section        0  tcp_out.o(i.tcp_write)
    i.tcp_write_checks                       0x08013a20   Section        0  tcp_out.o(i.tcp_write_checks)
    tcp_write_checks                         0x08013a21   Thumb Code   198  tcp_out.o(i.tcp_write_checks)
    i.tcp_zero_window_probe                  0x08013bd4   Section        0  tcp_out.o(i.tcp_zero_window_probe)
    i.tcpip_tcp_timer                        0x08013d44   Section        0  timeouts.o(i.tcpip_tcp_timer)
    tcpip_tcp_timer                          0x08013d45   Thumb Code    40  timeouts.o(i.tcpip_tcp_timer)
    i.udp_bind                               0x08013d7c   Section        0  udp.o(i.udp_bind)
    i.udp_connect                            0x08013ea0   Section        0  udp.o(i.udp_connect)
    i.udp_disconnect                         0x08013fd4   Section        0  udp.o(i.udp_disconnect)
    i.udp_init                               0x08014080   Section        0  udp.o(i.udp_init)
    i.udp_input                              0x08014098   Section        0  udp.o(i.udp_input)
    i.udp_input_local_match                  0x080142e4   Section        0  udp.o(i.udp_input_local_match)
    udp_input_local_match                    0x080142e5   Thumb Code   144  udp.o(i.udp_input_local_match)
    i.udp_netif_ip_addr_changed              0x0801441c   Section        0  udp.o(i.udp_netif_ip_addr_changed)
    i.udp_new                                0x0801444c   Section        0  udp.o(i.udp_new)
    i.udp_new_port                           0x08014468   Section        0  udp.o(i.udp_new_port)
    udp_new_port                             0x08014469   Thumb Code    80  udp.o(i.udp_new_port)
    i.udp_recv                               0x080144c0   Section        0  udp.o(i.udp_recv)
    i.udp_remove                             0x0801455c   Section        0  udp.o(i.udp_remove)
    i.udp_send                               0x08014630   Section        0  udp.o(i.udp_send)
    i.udp_sendto                             0x0801470c   Section        0  udp.o(i.udp_sendto)
    i.udp_sendto_if                          0x08014850   Section        0  udp.o(i.udp_sendto_if)
    i.udp_sendto_if_src                      0x080149e8   Section        0  udp.o(i.udp_sendto_if_src)
    .constdata                               0x08014c9c   Section       12  ethernetif.o(.constdata)
    .constdata                               0x08014ca8   Section       24  stm32h7xx_hal_uart.o(.constdata)
    .constdata                               0x08014cc0   Section       16  stm32h7xx_hal_uart_ex.o(.constdata)
    numerator                                0x08014cc0   Data           8  stm32h7xx_hal_uart_ex.o(.constdata)
    denominator                              0x08014cc8   Data           8  stm32h7xx_hal_uart_ex.o(.constdata)
    .constdata                               0x08014cd0   Section       16  system_stm32h7xx.o(.constdata)
    .constdata                               0x08014ce0   Section       12  ethernet.o(.constdata)
    .constdata                               0x08014cec   Section      144  memp.o(.constdata)
    .constdata                               0x08014d7c   Section       80  tcp.o(.constdata)
    tcp_state_str                            0x08014d7c   Data          44  tcp.o(.constdata)
    tcp_backoff                              0x08014da8   Data          13  tcp.o(.constdata)
    tcp_persist_backoff                      0x08014db5   Data           7  tcp.o(.constdata)
    .constdata                               0x08014dcc   Section       28  timeouts.o(.constdata)
    .constdata                               0x08014de8   Section        8  ip4_addr.o(.constdata)
    .conststring                             0x08014df0   Section       65  init.o(.conststring)
    .conststring                             0x08014e34   Section      117  tcp.o(.conststring)
    .conststring                             0x08014eac   Section       85  tcp_out.o(.conststring)
    .conststring                             0x08014f04   Section       65  etharp.o(.conststring)
    .data                                    0x24000000   Section       23  main.o(.data)
    .data                                    0x24000018   Section       28  ethernetif.o(.data)
    memp_tab_RX_POOL                         0x24000018   Data           4  ethernetif.o(.data)
    RxAllocStatus                            0x2400001c   Data           1  ethernetif.o(.data)
    .data                                    0x24000034   Section       28  lwip.o(.data)
    .data                                    0x24000050   Section     3052  lwip_udp.o(.data)
    .data                                    0x24000c3c   Section    18068  tcp_client.o(.data)
    .data                                    0x240052d0   Section    18060  tcp_server.o(.data)
    .data                                    0x2400995c   Section        9  stm32h7xx_hal.o(.data)
    .data                                    0x24009968   Section        8  system_stm32h7xx.o(.data)
    .data                                    0x24009970   Section       12  mem.o(.data)
    ram                                      0x24009970   Data           4  mem.o(.data)
    ram_end                                  0x24009974   Data           4  mem.o(.data)
    lfree                                    0x24009978   Data           4  mem.o(.data)
    .data                                    0x2400997c   Section       36  memp.o(.data)
    memp_tab_UDP_PCB                         0x2400997c   Data           4  memp.o(.data)
    memp_tab_TCP_PCB                         0x24009980   Data           4  memp.o(.data)
    memp_tab_TCP_PCB_LISTEN                  0x24009984   Data           4  memp.o(.data)
    memp_tab_TCP_SEG                         0x24009988   Data           4  memp.o(.data)
    memp_tab_REASSDATA                       0x2400998c   Data           4  memp.o(.data)
    memp_tab_FRAG_PBUF                       0x24009990   Data           4  memp.o(.data)
    memp_tab_SYS_TIMEOUT                     0x24009994   Data           4  memp.o(.data)
    memp_tab_PBUF                            0x24009998   Data           4  memp.o(.data)
    memp_tab_PBUF_POOL                       0x2400999c   Data           4  memp.o(.data)
    .data                                    0x240099a0   Section        9  netif.o(.data)
    netif_num                                0x240099a8   Data           1  netif.o(.data)
    .data                                    0x240099a9   Section        1  pbuf.o(.data)
    .data                                    0x240099ac   Section       32  tcp.o(.data)
    tcp_port                                 0x240099ac   Data           2  tcp.o(.data)
    tcp_timer                                0x240099c5   Data           1  tcp.o(.data)
    tcp_timer_ctr                            0x240099c6   Data           1  tcp.o(.data)
    iss                                      0x240099c8   Data           4  tcp.o(.data)
    .data                                    0x240099cc   Section       40  tcp_in.o(.data)
    tcphdr                                   0x240099cc   Data           4  tcp_in.o(.data)
    tcphdr_optlen                            0x240099d0   Data           2  tcp_in.o(.data)
    tcphdr_opt1len                           0x240099d2   Data           2  tcp_in.o(.data)
    tcphdr_opt2                              0x240099d4   Data           4  tcp_in.o(.data)
    tcp_optidx                               0x240099d8   Data           2  tcp_in.o(.data)
    seqno                                    0x240099dc   Data           4  tcp_in.o(.data)
    ackno                                    0x240099e0   Data           4  tcp_in.o(.data)
    recv_acked                               0x240099e4   Data           2  tcp_in.o(.data)
    tcplen                                   0x240099e6   Data           2  tcp_in.o(.data)
    flags                                    0x240099e8   Data           1  tcp_in.o(.data)
    recv_flags                               0x240099e9   Data           1  tcp_in.o(.data)
    recv_data                                0x240099ec   Data           4  tcp_in.o(.data)
    .data                                    0x240099f4   Section       12  timeouts.o(.data)
    next_timeout                             0x240099f4   Data           4  timeouts.o(.data)
    current_timeout_due_time                 0x240099f8   Data           4  timeouts.o(.data)
    tcpip_tcp_timer_active                   0x240099fc   Data           4  timeouts.o(.data)
    .data                                    0x24009a00   Section        8  udp.o(.data)
    udp_port                                 0x24009a00   Data           2  udp.o(.data)
    .data                                    0x24009a08   Section        1  etharp.o(.data)
    etharp_cached_entry                      0x24009a08   Data           1  etharp.o(.data)
    .data                                    0x24009a0a   Section        2  ip4.o(.data)
    ip_id                                    0x24009a0a   Data           2  ip4.o(.data)
    .data                                    0x24009a0c   Section        6  ip4_frag.o(.data)
    reassdatagrams                           0x24009a0c   Data           4  ip4_frag.o(.data)
    ip_reass_pbufcount                       0x24009a10   Data           2  ip4_frag.o(.data)
    .data                                    0x24009a14   Section        4  rand.o(.data)
    _rand_state                              0x24009a14   Data           4  rand.o(.data)
    .data                                    0x24009a18   Section        4  stdout.o(.data)
    .bss                                     0x24009a1c   Section     1504  main.o(.bss)
    .bss                                     0x24009ffc   Section      148  usart.o(.bss)
    .bss                                     0x2400a090   Section    19084  ethernetif.o(.bss)
    .bss                                     0x2400eb1c   Section       52  lwip.o(.bss)
    .bss                                     0x2400eb50   Section       24  ip.o(.bss)
    .bss                                     0x2400eb68   Section    26751  memp.o(.bss)
    .bss                                     0x240153e8   Section       16  tcp_in.o(.bss)
    inseg                                    0x240153e8   Data          16  tcp_in.o(.bss)
    .bss                                     0x240153f8   Section      240  etharp.o(.bss)
    arp_table                                0x240153f8   Data         240  etharp.o(.bss)
    STACK                                    0x240154e8   Section     1024  startup_stm32h743xx.o(STACK)
    .ARM.__AT_0x30004000                     0x30004000   Section       96  ethernetif.o(.ARM.__AT_0x30004000)
    .ARM.__AT_0x30004060                     0x30004060   Section       96  ethernetif.o(.ARM.__AT_0x30004060)

    Global Symbols

    Symbol Name                              Value     Ov Type        Size  Object(Section)

    BuildAttributes$$THM_ISAv4$E$P$D$K$B$S$7EM$VFPv5_D16$PE$PLD8$A:L22UL41UL21$X:L11$S22US41US21$IEEE1$IW$USESV6$~STKCKD$USESV7$~SHL$OSPACE$ROPI$EBA8$MICROLIB$REQ8$PRES8$EABIv2 0x00000000   Number         0  anon$$obj.o ABSOLUTE
    __ARM_use_no_argv                        0x00000000   Number         0  main.o ABSOLUTE
    _printf_a                                0x00000000   Number         0  stubs.o ABSOLUTE
    _printf_c                                0x00000000   Number         0  stubs.o ABSOLUTE
    _printf_charcount                        0x00000000   Number         0  stubs.o ABSOLUTE
    _printf_d                                0x00000000   Number         0  stubs.o ABSOLUTE
    _printf_e                                0x00000000   Number         0  stubs.o ABSOLUTE
    _printf_f                                0x00000000   Number         0  stubs.o ABSOLUTE
    _printf_flags                            0x00000000   Number         0  stubs.o ABSOLUTE
    _printf_fp_dec                           0x00000000   Number         0  stubs.o ABSOLUTE
    _printf_fp_hex                           0x00000000   Number         0  stubs.o ABSOLUTE
    _printf_g                                0x00000000   Number         0  stubs.o ABSOLUTE
    _printf_i                                0x00000000   Number         0  stubs.o ABSOLUTE
    _printf_int_dec                          0x00000000   Number         0  stubs.o ABSOLUTE
    _printf_l                                0x00000000   Number         0  stubs.o ABSOLUTE
    _printf_lc                               0x00000000   Number         0  stubs.o ABSOLUTE
    _printf_ll                               0x00000000   Number         0  stubs.o ABSOLUTE
    _printf_lld                              0x00000000   Number         0  stubs.o ABSOLUTE
    _printf_lli                              0x00000000   Number         0  stubs.o ABSOLUTE
    _printf_llo                              0x00000000   Number         0  stubs.o ABSOLUTE
    _printf_llu                              0x00000000   Number         0  stubs.o ABSOLUTE
    _printf_llx                              0x00000000   Number         0  stubs.o ABSOLUTE
    _printf_longlong_dec                     0x00000000   Number         0  stubs.o ABSOLUTE
    _printf_longlong_hex                     0x00000000   Number         0  stubs.o ABSOLUTE
    _printf_longlong_oct                     0x00000000   Number         0  stubs.o ABSOLUTE
    _printf_ls                               0x00000000   Number         0  stubs.o ABSOLUTE
    _printf_mbtowc                           0x00000000   Number         0  stubs.o ABSOLUTE
    _printf_n                                0x00000000   Number         0  stubs.o ABSOLUTE
    _printf_o                                0x00000000   Number         0  stubs.o ABSOLUTE
    _printf_p                                0x00000000   Number         0  stubs.o ABSOLUTE
    _printf_percent                          0x00000000   Number         0  stubs.o ABSOLUTE
    _printf_pre_padding                      0x00000000   Number         0  stubs.o ABSOLUTE
    _printf_return_value                     0x00000000   Number         0  stubs.o ABSOLUTE
    _printf_s                                0x00000000   Number         0  stubs.o ABSOLUTE
    _printf_sizespec                         0x00000000   Number         0  stubs.o ABSOLUTE
    _printf_str                              0x00000000   Number         0  stubs.o ABSOLUTE
    _printf_truncate_signed                  0x00000000   Number         0  stubs.o ABSOLUTE
    _printf_truncate_unsigned                0x00000000   Number         0  stubs.o ABSOLUTE
    _printf_u                                0x00000000   Number         0  stubs.o ABSOLUTE
    _printf_wc                               0x00000000   Number         0  stubs.o ABSOLUTE
    _printf_wctomb                           0x00000000   Number         0  stubs.o ABSOLUTE
    _printf_widthprec                        0x00000000   Number         0  stubs.o ABSOLUTE
    _printf_x                                0x00000000   Number         0  stubs.o ABSOLUTE
    __arm_fini_                               - Undefined Weak Reference
    __cpp_initialize__aeabi_                  - Undefined Weak Reference
    __cxa_finalize                            - Undefined Weak Reference
    _clock_init                               - Undefined Weak Reference
    _microlib_exit                            - Undefined Weak Reference
    __Vectors_Size                           0x00000298   Number         0  startup_stm32h743xx.o ABSOLUTE
    __Vectors                                0x08000000   Data           4  startup_stm32h743xx.o(RESET)
    __Vectors_End                            0x08000298   Data           0  startup_stm32h743xx.o(RESET)
    __main                                   0x08000299   Thumb Code     0  entry.o(.ARM.Collect$$$$00000000)
    _main_stk                                0x08000299   Thumb Code     0  entry2.o(.ARM.Collect$$$$00000001)
    _main_scatterload                        0x0800029d   Thumb Code     0  entry5.o(.ARM.Collect$$$$00000004)
    __main_after_scatterload                 0x080002a1   Thumb Code     0  entry5.o(.ARM.Collect$$$$00000004)
    _main_clock                              0x080002a1   Thumb Code     0  entry7b.o(.ARM.Collect$$$$00000008)
    _main_cpp_init                           0x080002a1   Thumb Code     0  entry8b.o(.ARM.Collect$$$$0000000A)
    _main_init                               0x080002a1   Thumb Code     0  entry9a.o(.ARM.Collect$$$$0000000B)
    __rt_lib_shutdown_fini                   0x080002a9   Thumb Code     0  entry12b.o(.ARM.Collect$$$$0000000E)
    __rt_final_cpp                           0x080002ad   Thumb Code     0  entry10a.o(.ARM.Collect$$$$0000000F)
    __rt_final_exit                          0x080002ad   Thumb Code     0  entry11a.o(.ARM.Collect$$$$00000011)
    Reset_Handler                            0x080002b1   Thumb Code     8  startup_stm32h743xx.o(.text)
    ADC3_IRQHandler                          0x080002cb   Thumb Code     0  startup_stm32h743xx.o(.text)
    ADC_IRQHandler                           0x080002cb   Thumb Code     0  startup_stm32h743xx.o(.text)
    BDMA_Channel0_IRQHandler                 0x080002cb   Thumb Code     0  startup_stm32h743xx.o(.text)
    BDMA_Channel1_IRQHandler                 0x080002cb   Thumb Code     0  startup_stm32h743xx.o(.text)
    BDMA_Channel2_IRQHandler                 0x080002cb   Thumb Code     0  startup_stm32h743xx.o(.text)
    BDMA_Channel3_IRQHandler                 0x080002cb   Thumb Code     0  startup_stm32h743xx.o(.text)
    BDMA_Channel4_IRQHandler                 0x080002cb   Thumb Code     0  startup_stm32h743xx.o(.text)
    BDMA_Channel5_IRQHandler                 0x080002cb   Thumb Code     0  startup_stm32h743xx.o(.text)
    BDMA_Channel6_IRQHandler                 0x080002cb   Thumb Code     0  startup_stm32h743xx.o(.text)
    BDMA_Channel7_IRQHandler                 0x080002cb   Thumb Code     0  startup_stm32h743xx.o(.text)
    CEC_IRQHandler                           0x080002cb   Thumb Code     0  startup_stm32h743xx.o(.text)
    COMP1_IRQHandler                         0x080002cb   Thumb Code     0  startup_stm32h743xx.o(.text)
    CRS_IRQHandler                           0x080002cb   Thumb Code     0  startup_stm32h743xx.o(.text)
    DCMI_IRQHandler                          0x080002cb   Thumb Code     0  startup_stm32h743xx.o(.text)
    DFSDM1_FLT0_IRQHandler                   0x080002cb   Thumb Code     0  startup_stm32h743xx.o(.text)
    DFSDM1_FLT1_IRQHandler                   0x080002cb   Thumb Code     0  startup_stm32h743xx.o(.text)
    DFSDM1_FLT2_IRQHandler                   0x080002cb   Thumb Code     0  startup_stm32h743xx.o(.text)
    DFSDM1_FLT3_IRQHandler                   0x080002cb   Thumb Code     0  startup_stm32h743xx.o(.text)
    DMA1_Stream0_IRQHandler                  0x080002cb   Thumb Code     0  startup_stm32h743xx.o(.text)
    DMA1_Stream1_IRQHandler                  0x080002cb   Thumb Code     0  startup_stm32h743xx.o(.text)
    DMA1_Stream2_IRQHandler                  0x080002cb   Thumb Code     0  startup_stm32h743xx.o(.text)
    DMA1_Stream3_IRQHandler                  0x080002cb   Thumb Code     0  startup_stm32h743xx.o(.text)
    DMA1_Stream4_IRQHandler                  0x080002cb   Thumb Code     0  startup_stm32h743xx.o(.text)
    DMA1_Stream5_IRQHandler                  0x080002cb   Thumb Code     0  startup_stm32h743xx.o(.text)
    DMA1_Stream6_IRQHandler                  0x080002cb   Thumb Code     0  startup_stm32h743xx.o(.text)
    DMA1_Stream7_IRQHandler                  0x080002cb   Thumb Code     0  startup_stm32h743xx.o(.text)
    DMA2D_IRQHandler                         0x080002cb   Thumb Code     0  startup_stm32h743xx.o(.text)
    DMA2_Stream0_IRQHandler                  0x080002cb   Thumb Code     0  startup_stm32h743xx.o(.text)
    DMA2_Stream1_IRQHandler                  0x080002cb   Thumb Code     0  startup_stm32h743xx.o(.text)
    DMA2_Stream2_IRQHandler                  0x080002cb   Thumb Code     0  startup_stm32h743xx.o(.text)
    DMA2_Stream3_IRQHandler                  0x080002cb   Thumb Code     0  startup_stm32h743xx.o(.text)
    DMA2_Stream4_IRQHandler                  0x080002cb   Thumb Code     0  startup_stm32h743xx.o(.text)
    DMA2_Stream5_IRQHandler                  0x080002cb   Thumb Code     0  startup_stm32h743xx.o(.text)
    DMA2_Stream6_IRQHandler                  0x080002cb   Thumb Code     0  startup_stm32h743xx.o(.text)
    DMA2_Stream7_IRQHandler                  0x080002cb   Thumb Code     0  startup_stm32h743xx.o(.text)
    DMAMUX1_OVR_IRQHandler                   0x080002cb   Thumb Code     0  startup_stm32h743xx.o(.text)
    DMAMUX2_OVR_IRQHandler                   0x080002cb   Thumb Code     0  startup_stm32h743xx.o(.text)
    ECC_IRQHandler                           0x080002cb   Thumb Code     0  startup_stm32h743xx.o(.text)
    EXTI0_IRQHandler                         0x080002cb   Thumb Code     0  startup_stm32h743xx.o(.text)
    EXTI15_10_IRQHandler                     0x080002cb   Thumb Code     0  startup_stm32h743xx.o(.text)
    EXTI1_IRQHandler                         0x080002cb   Thumb Code     0  startup_stm32h743xx.o(.text)
    EXTI2_IRQHandler                         0x080002cb   Thumb Code     0  startup_stm32h743xx.o(.text)
    EXTI3_IRQHandler                         0x080002cb   Thumb Code     0  startup_stm32h743xx.o(.text)
    EXTI4_IRQHandler                         0x080002cb   Thumb Code     0  startup_stm32h743xx.o(.text)
    EXTI9_5_IRQHandler                       0x080002cb   Thumb Code     0  startup_stm32h743xx.o(.text)
    FDCAN1_IT0_IRQHandler                    0x080002cb   Thumb Code     0  startup_stm32h743xx.o(.text)
    FDCAN1_IT1_IRQHandler                    0x080002cb   Thumb Code     0  startup_stm32h743xx.o(.text)
    FDCAN2_IT0_IRQHandler                    0x080002cb   Thumb Code     0  startup_stm32h743xx.o(.text)
    FDCAN2_IT1_IRQHandler                    0x080002cb   Thumb Code     0  startup_stm32h743xx.o(.text)
    FDCAN_CAL_IRQHandler                     0x080002cb   Thumb Code     0  startup_stm32h743xx.o(.text)
    FLASH_IRQHandler                         0x080002cb   Thumb Code     0  startup_stm32h743xx.o(.text)
    FMC_IRQHandler                           0x080002cb   Thumb Code     0  startup_stm32h743xx.o(.text)
    FPU_IRQHandler                           0x080002cb   Thumb Code     0  startup_stm32h743xx.o(.text)
    HRTIM1_FLT_IRQHandler                    0x080002cb   Thumb Code     0  startup_stm32h743xx.o(.text)
    HRTIM1_Master_IRQHandler                 0x080002cb   Thumb Code     0  startup_stm32h743xx.o(.text)
    HRTIM1_TIMA_IRQHandler                   0x080002cb   Thumb Code     0  startup_stm32h743xx.o(.text)
    HRTIM1_TIMB_IRQHandler                   0x080002cb   Thumb Code     0  startup_stm32h743xx.o(.text)
    HRTIM1_TIMC_IRQHandler                   0x080002cb   Thumb Code     0  startup_stm32h743xx.o(.text)
    HRTIM1_TIMD_IRQHandler                   0x080002cb   Thumb Code     0  startup_stm32h743xx.o(.text)
    HRTIM1_TIME_IRQHandler                   0x080002cb   Thumb Code     0  startup_stm32h743xx.o(.text)
    HSEM1_IRQHandler                         0x080002cb   Thumb Code     0  startup_stm32h743xx.o(.text)
    I2C1_ER_IRQHandler                       0x080002cb   Thumb Code     0  startup_stm32h743xx.o(.text)
    I2C1_EV_IRQHandler                       0x080002cb   Thumb Code     0  startup_stm32h743xx.o(.text)
    I2C2_ER_IRQHandler                       0x080002cb   Thumb Code     0  startup_stm32h743xx.o(.text)
    I2C2_EV_IRQHandler                       0x080002cb   Thumb Code     0  startup_stm32h743xx.o(.text)
    I2C3_ER_IRQHandler                       0x080002cb   Thumb Code     0  startup_stm32h743xx.o(.text)
    I2C3_EV_IRQHandler                       0x080002cb   Thumb Code     0  startup_stm32h743xx.o(.text)
    I2C4_ER_IRQHandler                       0x080002cb   Thumb Code     0  startup_stm32h743xx.o(.text)
    I2C4_EV_IRQHandler                       0x080002cb   Thumb Code     0  startup_stm32h743xx.o(.text)
    JPEG_IRQHandler                          0x080002cb   Thumb Code     0  startup_stm32h743xx.o(.text)
    LPTIM1_IRQHandler                        0x080002cb   Thumb Code     0  startup_stm32h743xx.o(.text)
    LPTIM2_IRQHandler                        0x080002cb   Thumb Code     0  startup_stm32h743xx.o(.text)
    LPTIM3_IRQHandler                        0x080002cb   Thumb Code     0  startup_stm32h743xx.o(.text)
    LPTIM4_IRQHandler                        0x080002cb   Thumb Code     0  startup_stm32h743xx.o(.text)
    LPTIM5_IRQHandler                        0x080002cb   Thumb Code     0  startup_stm32h743xx.o(.text)
    LPUART1_IRQHandler                       0x080002cb   Thumb Code     0  startup_stm32h743xx.o(.text)
    LTDC_ER_IRQHandler                       0x080002cb   Thumb Code     0  startup_stm32h743xx.o(.text)
    LTDC_IRQHandler                          0x080002cb   Thumb Code     0  startup_stm32h743xx.o(.text)
    MDIOS_IRQHandler                         0x080002cb   Thumb Code     0  startup_stm32h743xx.o(.text)
    MDIOS_WKUP_IRQHandler                    0x080002cb   Thumb Code     0  startup_stm32h743xx.o(.text)
    MDMA_IRQHandler                          0x080002cb   Thumb Code     0  startup_stm32h743xx.o(.text)
    OTG_FS_EP1_IN_IRQHandler                 0x080002cb   Thumb Code     0  startup_stm32h743xx.o(.text)
    OTG_FS_EP1_OUT_IRQHandler                0x080002cb   Thumb Code     0  startup_stm32h743xx.o(.text)
    OTG_FS_IRQHandler                        0x080002cb   Thumb Code     0  startup_stm32h743xx.o(.text)
    OTG_FS_WKUP_IRQHandler                   0x080002cb   Thumb Code     0  startup_stm32h743xx.o(.text)
    OTG_HS_EP1_IN_IRQHandler                 0x080002cb   Thumb Code     0  startup_stm32h743xx.o(.text)
    OTG_HS_EP1_OUT_IRQHandler                0x080002cb   Thumb Code     0  startup_stm32h743xx.o(.text)
    OTG_HS_IRQHandler                        0x080002cb   Thumb Code     0  startup_stm32h743xx.o(.text)
    OTG_HS_WKUP_IRQHandler                   0x080002cb   Thumb Code     0  startup_stm32h743xx.o(.text)
    PVD_AVD_IRQHandler                       0x080002cb   Thumb Code     0  startup_stm32h743xx.o(.text)
    QUADSPI_IRQHandler                       0x080002cb   Thumb Code     0  startup_stm32h743xx.o(.text)
    RCC_IRQHandler                           0x080002cb   Thumb Code     0  startup_stm32h743xx.o(.text)
    RNG_IRQHandler                           0x080002cb   Thumb Code     0  startup_stm32h743xx.o(.text)
    RTC_Alarm_IRQHandler                     0x080002cb   Thumb Code     0  startup_stm32h743xx.o(.text)
    RTC_WKUP_IRQHandler                      0x080002cb   Thumb Code     0  startup_stm32h743xx.o(.text)
    SAI1_IRQHandler                          0x080002cb   Thumb Code     0  startup_stm32h743xx.o(.text)
    SAI2_IRQHandler                          0x080002cb   Thumb Code     0  startup_stm32h743xx.o(.text)
    SAI3_IRQHandler                          0x080002cb   Thumb Code     0  startup_stm32h743xx.o(.text)
    SAI4_IRQHandler                          0x080002cb   Thumb Code     0  startup_stm32h743xx.o(.text)
    SDMMC1_IRQHandler                        0x080002cb   Thumb Code     0  startup_stm32h743xx.o(.text)
    SDMMC2_IRQHandler                        0x080002cb   Thumb Code     0  startup_stm32h743xx.o(.text)
    SPDIF_RX_IRQHandler                      0x080002cb   Thumb Code     0  startup_stm32h743xx.o(.text)
    SPI1_IRQHandler                          0x080002cb   Thumb Code     0  startup_stm32h743xx.o(.text)
    SPI2_IRQHandler                          0x080002cb   Thumb Code     0  startup_stm32h743xx.o(.text)
    SPI3_IRQHandler                          0x080002cb   Thumb Code     0  startup_stm32h743xx.o(.text)
    SPI4_IRQHandler                          0x080002cb   Thumb Code     0  startup_stm32h743xx.o(.text)
    SPI5_IRQHandler                          0x080002cb   Thumb Code     0  startup_stm32h743xx.o(.text)
    SPI6_IRQHandler                          0x080002cb   Thumb Code     0  startup_stm32h743xx.o(.text)
    SWPMI1_IRQHandler                        0x080002cb   Thumb Code     0  startup_stm32h743xx.o(.text)
    TAMP_STAMP_IRQHandler                    0x080002cb   Thumb Code     0  startup_stm32h743xx.o(.text)
    TIM15_IRQHandler                         0x080002cb   Thumb Code     0  startup_stm32h743xx.o(.text)
    TIM16_IRQHandler                         0x080002cb   Thumb Code     0  startup_stm32h743xx.o(.text)
    TIM17_IRQHandler                         0x080002cb   Thumb Code     0  startup_stm32h743xx.o(.text)
    TIM1_BRK_IRQHandler                      0x080002cb   Thumb Code     0  startup_stm32h743xx.o(.text)
    TIM1_CC_IRQHandler                       0x080002cb   Thumb Code     0  startup_stm32h743xx.o(.text)
    TIM1_TRG_COM_IRQHandler                  0x080002cb   Thumb Code     0  startup_stm32h743xx.o(.text)
    TIM1_UP_IRQHandler                       0x080002cb   Thumb Code     0  startup_stm32h743xx.o(.text)
    TIM2_IRQHandler                          0x080002cb   Thumb Code     0  startup_stm32h743xx.o(.text)
    TIM3_IRQHandler                          0x080002cb   Thumb Code     0  startup_stm32h743xx.o(.text)
    TIM4_IRQHandler                          0x080002cb   Thumb Code     0  startup_stm32h743xx.o(.text)
    TIM5_IRQHandler                          0x080002cb   Thumb Code     0  startup_stm32h743xx.o(.text)
    TIM6_DAC_IRQHandler                      0x080002cb   Thumb Code     0  startup_stm32h743xx.o(.text)
    TIM7_IRQHandler                          0x080002cb   Thumb Code     0  startup_stm32h743xx.o(.text)
    TIM8_BRK_TIM12_IRQHandler                0x080002cb   Thumb Code     0  startup_stm32h743xx.o(.text)
    TIM8_CC_IRQHandler                       0x080002cb   Thumb Code     0  startup_stm32h743xx.o(.text)
    TIM8_TRG_COM_TIM14_IRQHandler            0x080002cb   Thumb Code     0  startup_stm32h743xx.o(.text)
    TIM8_UP_TIM13_IRQHandler                 0x080002cb   Thumb Code     0  startup_stm32h743xx.o(.text)
    UART4_IRQHandler                         0x080002cb   Thumb Code     0  startup_stm32h743xx.o(.text)
    UART5_IRQHandler                         0x080002cb   Thumb Code     0  startup_stm32h743xx.o(.text)
    UART7_IRQHandler                         0x080002cb   Thumb Code     0  startup_stm32h743xx.o(.text)
    UART8_IRQHandler                         0x080002cb   Thumb Code     0  startup_stm32h743xx.o(.text)
    USART2_IRQHandler                        0x080002cb   Thumb Code     0  startup_stm32h743xx.o(.text)
    USART3_IRQHandler                        0x080002cb   Thumb Code     0  startup_stm32h743xx.o(.text)
    USART6_IRQHandler                        0x080002cb   Thumb Code     0  startup_stm32h743xx.o(.text)
    WAKEUP_PIN_IRQHandler                    0x080002cb   Thumb Code     0  startup_stm32h743xx.o(.text)
    WWDG_IRQHandler                          0x080002cb   Thumb Code     0  startup_stm32h743xx.o(.text)
    __aeabi_uldivmod                         0x080002d5   Thumb Code    98  uldiv.o(.text)
    rand                                     0x08000339   Thumb Code    20  rand.o(.text)
    srand                                    0x0800034d   Thumb Code     6  rand.o(.text)
    ___aeabi_memcpy4$move                    0x0800035d   Thumb Code     0  memmovea.o(.text)
    ___aeabi_memcpy8$move                    0x0800035d   Thumb Code     0  memmovea.o(.text)
    __aeabi_memcpy                           0x0800035d   Thumb Code    64  memmovea.o(.text)
    __aeabi_memmove                          0x0800035d   Thumb Code     0  memmovea.o(.text)
    __aeabi_memmove4                         0x0800035d   Thumb Code     0  memmovea.o(.text)
    __aeabi_memmove8                         0x0800035d   Thumb Code     0  memmovea.o(.text)
    __aeabi_memset                           0x0800039d   Thumb Code    14  memseta.o(.text)
    __aeabi_memset4                          0x0800039d   Thumb Code     0  memseta.o(.text)
    __aeabi_memset8                          0x0800039d   Thumb Code     0  memseta.o(.text)
    __aeabi_memclr                           0x080003ab   Thumb Code     4  memseta.o(.text)
    __aeabi_memclr4                          0x080003ab   Thumb Code     0  memseta.o(.text)
    __aeabi_memclr8                          0x080003ab   Thumb Code     0  memseta.o(.text)
    _memset$wrapper                          0x080003af   Thumb Code    18  memseta.o(.text)
    strlen                                   0x080003c1   Thumb Code    14  strlen.o(.text)
    memcmp                                   0x080003cf   Thumb Code    26  memcmp.o(.text)
    __aeabi_uidiv                            0x080003e9   Thumb Code     0  uidiv.o(.text)
    __aeabi_uidivmod                         0x080003e9   Thumb Code    44  uidiv.o(.text)
    __aeabi_llsl                             0x08000415   Thumb Code    30  llshl.o(.text)
    _ll_shift_l                              0x08000415   Thumb Code     0  llshl.o(.text)
    __aeabi_llsr                             0x08000433   Thumb Code    32  llushr.o(.text)
    _ll_ushift_r                             0x08000433   Thumb Code     0  llushr.o(.text)
    __scatterload                            0x08000455   Thumb Code    28  init.o(.text)
    __scatterload_rt2                        0x08000455   Thumb Code     0  init.o(.text)
    __decompress                             0x08000479   Thumb Code     0  __dczerorl2.o(.text)
    __decompress1                            0x08000479   Thumb Code    86  __dczerorl2.o(.text)
    BusFault_Handler                         0x080004cf   Thumb Code     4  stm32h7xx_it.o(i.BusFault_Handler)
    DebugMon_Handler                         0x080004d3   Thumb Code     2  stm32h7xx_it.o(i.DebugMon_Handler)
    ETH_IRQHandler                           0x08000589   Thumb Code    26  lwip.o(i.ETH_IRQHandler)
    ETH_PHY_IO_DeInit                        0x080006b3   Thumb Code     4  ethernetif.o(i.ETH_PHY_IO_DeInit)
    ETH_PHY_IO_GetTick                       0x080006b7   Thumb Code     8  ethernetif.o(i.ETH_PHY_IO_GetTick)
    ETH_PHY_IO_Init                          0x080006c1   Thumb Code    12  ethernetif.o(i.ETH_PHY_IO_Init)
    ETH_PHY_IO_ReadReg                       0x080006d1   Thumb Code    32  ethernetif.o(i.ETH_PHY_IO_ReadReg)
    ETH_PHY_IO_WriteReg                      0x080006f5   Thumb Code    32  ethernetif.o(i.ETH_PHY_IO_WriteReg)
    ETH_WKUP_IRQHandler                      0x08000dd1   Thumb Code    10  stm32h7xx_it.o(i.ETH_WKUP_IRQHandler)
    Error_Handler                            0x08000de1   Thumb Code     6  main.o(i.Error_Handler)
    HAL_DMA_Abort                            0x08000e11   Thumb Code  1236  stm32h7xx_hal_dma.o(i.HAL_DMA_Abort)
    HAL_DMA_Abort_IT                         0x080012ed   Thumb Code   906  stm32h7xx_hal_dma.o(i.HAL_DMA_Abort_IT)
    HAL_ETH_EEECallback                      0x08001685   Thumb Code     2  stm32h7xx_hal_eth.o(i.HAL_ETH_EEECallback)
    HAL_ETH_ErrorCallback                    0x08001687   Thumb Code     2  stm32h7xx_hal_eth.o(i.HAL_ETH_ErrorCallback)
    HAL_ETH_GetMACConfig                     0x08001689   Thumb Code   470  stm32h7xx_hal_eth.o(i.HAL_ETH_GetMACConfig)
    HAL_ETH_IRQHandler                       0x08001861   Thumb Code   444  stm32h7xx_hal_eth.o(i.HAL_ETH_IRQHandler)
    HAL_ETH_Init                             0x08001a21   Thumb Code   346  stm32h7xx_hal_eth.o(i.HAL_ETH_Init)
    HAL_ETH_MspInit                          0x08001b89   Thumb Code   516  ethernetif.o(i.HAL_ETH_MspInit)
    HAL_ETH_PMTCallback                      0x08001db1   Thumb Code     2  stm32h7xx_hal_eth.o(i.HAL_ETH_PMTCallback)
    HAL_ETH_ReadData                         0x08001db3   Thumb Code   256  stm32h7xx_hal_eth.o(i.HAL_ETH_ReadData)
    HAL_ETH_ReadPHYRegister                  0x08001eb3   Thumb Code   120  stm32h7xx_hal_eth.o(i.HAL_ETH_ReadPHYRegister)
    HAL_ETH_RxAllocateCallback               0x08001f2d   Thumb Code    60  ethernetif.o(i.HAL_ETH_RxAllocateCallback)
    HAL_ETH_RxCpltCallback                   0x08001f75   Thumb Code     2  stm32h7xx_hal_eth.o(i.HAL_ETH_RxCpltCallback)
    HAL_ETH_RxLinkCallback                   0x08001f79   Thumb Code   158  ethernetif.o(i.HAL_ETH_RxLinkCallback)
    HAL_ETH_SetMACConfig                     0x0800201d   Thumb Code    36  stm32h7xx_hal_eth.o(i.HAL_ETH_SetMACConfig)
    HAL_ETH_SetMDIOClockRange                0x08002041   Thumb Code   100  stm32h7xx_hal_eth.o(i.HAL_ETH_SetMDIOClockRange)
    HAL_ETH_Start_IT                         0x080020b9   Thumb Code   216  stm32h7xx_hal_eth.o(i.HAL_ETH_Start_IT)
    HAL_ETH_Stop                             0x08002199   Thumb Code   116  stm32h7xx_hal_eth.o(i.HAL_ETH_Stop)
    HAL_ETH_Transmit                         0x0800220d   Thumb Code   246  stm32h7xx_hal_eth.o(i.HAL_ETH_Transmit)
    HAL_ETH_TxCpltCallback                   0x08002303   Thumb Code     2  stm32h7xx_hal_eth.o(i.HAL_ETH_TxCpltCallback)
    HAL_ETH_WakeUpCallback                   0x08002305   Thumb Code     2  stm32h7xx_hal_eth.o(i.HAL_ETH_WakeUpCallback)
    HAL_ETH_WritePHYRegister                 0x08002309   Thumb Code   118  stm32h7xx_hal_eth.o(i.HAL_ETH_WritePHYRegister)
    HAL_GPIO_Init                            0x08002389   Thumb Code   456  stm32h7xx_hal_gpio.o(i.HAL_GPIO_Init)
    HAL_GPIO_WritePin                        0x08002585   Thumb Code    12  stm32h7xx_hal_gpio.o(i.HAL_GPIO_WritePin)
    HAL_GetREVID                             0x08002591   Thumb Code     8  stm32h7xx_hal.o(i.HAL_GetREVID)
    HAL_GetTick                              0x0800259d   Thumb Code     6  stm32h7xx_hal.o(i.HAL_GetTick)
    HAL_IncTick                              0x080025a9   Thumb Code    16  stm32h7xx_hal.o(i.HAL_IncTick)
    HAL_Init                                 0x080025c1   Thumb Code    80  stm32h7xx_hal.o(i.HAL_Init)
    HAL_InitTick                             0x08002621   Thumb Code    74  stm32h7xx_hal.o(i.HAL_InitTick)
    HAL_MPU_ConfigRegion                     0x08002679   Thumb Code    88  stm32h7xx_hal_cortex.o(i.HAL_MPU_ConfigRegion)
    HAL_MPU_Disable                          0x080026d5   Thumb Code    38  stm32h7xx_hal_cortex.o(i.HAL_MPU_Disable)
    HAL_MPU_Enable                           0x08002701   Thumb Code    58  stm32h7xx_hal_cortex.o(i.HAL_MPU_Enable)
    HAL_MspInit                              0x08002741   Thumb Code    32  stm32h7xx_hal_msp.o(i.HAL_MspInit)
    HAL_NVIC_EnableIRQ                       0x08002765   Thumb Code    40  stm32h7xx_hal_cortex.o(i.HAL_NVIC_EnableIRQ)
    HAL_NVIC_SetPriority                     0x0800278d   Thumb Code   122  stm32h7xx_hal_cortex.o(i.HAL_NVIC_SetPriority)
    HAL_NVIC_SetPriorityGrouping             0x08002809   Thumb Code    32  stm32h7xx_hal_cortex.o(i.HAL_NVIC_SetPriorityGrouping)
    HAL_PWREx_ConfigSupply                   0x08002831   Thumb Code    90  stm32h7xx_hal_pwr_ex.o(i.HAL_PWREx_ConfigSupply)
    HAL_RCCEx_GetD3PCLK1Freq                 0x08002891   Thumb Code    26  stm32h7xx_hal_rcc_ex.o(i.HAL_RCCEx_GetD3PCLK1Freq)
    HAL_RCCEx_GetPLL2ClockFreq               0x080028b5   Thumb Code   536  stm32h7xx_hal_rcc_ex.o(i.HAL_RCCEx_GetPLL2ClockFreq)
    HAL_RCCEx_GetPLL3ClockFreq               0x08002ae5   Thumb Code   536  stm32h7xx_hal_rcc_ex.o(i.HAL_RCCEx_GetPLL3ClockFreq)
    HAL_RCCEx_PeriphCLKConfig                0x08002d15   Thumb Code  3432  stm32h7xx_hal_rcc_ex.o(i.HAL_RCCEx_PeriphCLKConfig)
    HAL_RCC_ClockConfig                      0x08003a7d   Thumb Code   774  stm32h7xx_hal_rcc.o(i.HAL_RCC_ClockConfig)
    HAL_RCC_GetHCLKFreq                      0x08003d9d   Thumb Code    60  stm32h7xx_hal_rcc.o(i.HAL_RCC_GetHCLKFreq)
    HAL_RCC_GetPCLK1Freq                     0x08003de9   Thumb Code    26  stm32h7xx_hal_rcc.o(i.HAL_RCC_GetPCLK1Freq)
    HAL_RCC_GetPCLK2Freq                     0x08003e0d   Thumb Code    26  stm32h7xx_hal_rcc.o(i.HAL_RCC_GetPCLK2Freq)
    HAL_RCC_GetSysClockFreq                  0x08003e31   Thumb Code   524  stm32h7xx_hal_rcc.o(i.HAL_RCC_GetSysClockFreq)
    HAL_RCC_OscConfig                        0x0800405d   Thumb Code  2130  stm32h7xx_hal_rcc.o(i.HAL_RCC_OscConfig)
    HAL_SYSCFG_ETHInterfaceSelect            0x080048b5   Thumb Code    16  stm32h7xx_hal.o(i.HAL_SYSCFG_ETHInterfaceSelect)
    HAL_SYSTICK_Config                       0x080048c9   Thumb Code    52  stm32h7xx_hal_cortex.o(i.HAL_SYSTICK_Config)
    HAL_UARTEx_DisableFifoMode               0x080048fd   Thumb Code    78  stm32h7xx_hal_uart_ex.o(i.HAL_UARTEx_DisableFifoMode)
    HAL_UARTEx_RxEventCallback               0x0800494b   Thumb Code     2  stm32h7xx_hal_uart.o(i.HAL_UARTEx_RxEventCallback)
    HAL_UARTEx_RxFifoFullCallback            0x0800494d   Thumb Code     2  stm32h7xx_hal_uart_ex.o(i.HAL_UARTEx_RxFifoFullCallback)
    HAL_UARTEx_SetRxFifoThreshold            0x0800494f   Thumb Code    94  stm32h7xx_hal_uart_ex.o(i.HAL_UARTEx_SetRxFifoThreshold)
    HAL_UARTEx_SetTxFifoThreshold            0x080049ad   Thumb Code    94  stm32h7xx_hal_uart_ex.o(i.HAL_UARTEx_SetTxFifoThreshold)
    HAL_UARTEx_TxFifoEmptyCallback           0x08004a0b   Thumb Code     2  stm32h7xx_hal_uart_ex.o(i.HAL_UARTEx_TxFifoEmptyCallback)
    HAL_UARTEx_WakeupCallback                0x08004a0d   Thumb Code     2  stm32h7xx_hal_uart_ex.o(i.HAL_UARTEx_WakeupCallback)
    HAL_UART_ErrorCallback                   0x08004a0f   Thumb Code     2  stm32h7xx_hal_uart.o(i.HAL_UART_ErrorCallback)
    HAL_UART_IRQHandler                      0x08004a11   Thumb Code  1172  stm32h7xx_hal_uart.o(i.HAL_UART_IRQHandler)
    HAL_UART_Init                            0x08004ea5   Thumb Code   120  stm32h7xx_hal_uart.o(i.HAL_UART_Init)
    HAL_UART_MspInit                         0x08004f1d   Thumb Code   184  usart.o(i.HAL_UART_MspInit)
    HAL_UART_TxCpltCallback                  0x08004fe1   Thumb Code     2  stm32h7xx_hal_uart.o(i.HAL_UART_TxCpltCallback)
    HardFault_Handler                        0x08004fe3   Thumb Code     4  stm32h7xx_it.o(i.HardFault_Handler)
    LAN8742_GetLinkState                     0x08004fe7   Thumb Code   232  lan8742.o(i.LAN8742_GetLinkState)
    LAN8742_Init                             0x080050cf   Thumb Code   254  lan8742.o(i.LAN8742_Init)
    LAN8742_RegisterBusIO                    0x080051cd   Thumb Code    46  lan8742.o(i.LAN8742_RegisterBusIO)
    MX_GPIO_Init                             0x0800525d   Thumb Code   284  gpio.o(i.MX_GPIO_Init)
    MX_LWIP_Init                             0x08005381   Thumb Code   536  lwip.o(i.MX_LWIP_Init)
    MX_LWIP_Process                          0x080055c1   Thumb Code    14  lwip.o(i.MX_LWIP_Process)
    MX_USART1_UART_Init                      0x080055d5   Thumb Code    98  usart.o(i.MX_USART1_UART_Init)
    MemManage_Handler                        0x08005641   Thumb Code     4  stm32h7xx_it.o(i.MemManage_Handler)
    NMI_Handler                              0x08005645   Thumb Code     4  stm32h7xx_it.o(i.NMI_Handler)
    PendSV_Handler                           0x08005649   Thumb Code     2  stm32h7xx_it.o(i.PendSV_Handler)
    SVC_Handler                              0x08005915   Thumb Code     2  stm32h7xx_it.o(i.SVC_Handler)
    SysTick_Handler                          0x08005917   Thumb Code     8  stm32h7xx_it.o(i.SysTick_Handler)
    SystemClock_Config                       0x08005921   Thumb Code   302  main.o(i.SystemClock_Config)
    SystemInit                               0x08005a5d   Thumb Code   212  system_stm32h7xx.o(i.SystemInit)
    TCP_Client_Init                          0x08005b59   Thumb Code    80  tcp_client.o(i.TCP_Client_Init)
    TCP_Client_Task                          0x08005bdd   Thumb Code    38  tcp_client.o(i.TCP_Client_Task)
    TCP_Server_Init                          0x08005c09   Thumb Code    70  tcp_server.o(i.TCP_Server_Init)
    UART_AdvFeatureConfig                    0x08005cb9   Thumb Code   248  stm32h7xx_hal_uart.o(i.UART_AdvFeatureConfig)
    UART_CheckIdleState                      0x08005db1   Thumb Code   234  stm32h7xx_hal_uart.o(i.UART_CheckIdleState)
    UART_SetConfig                           0x08005f51   Thumb Code  1402  stm32h7xx_hal_uart.o(i.UART_SetConfig)
    UART_WaitOnFlagUntilTimeout              0x080064dd   Thumb Code   162  stm32h7xx_hal_uart.o(i.UART_WaitOnFlagUntilTimeout)
    USART1_IRQHandler                        0x08006581   Thumb Code    10  stm32h7xx_it.o(i.USART1_IRQHandler)
    Udp_Lwip_Init                            0x08006591   Thumb Code    88  lwip_udp.o(i.Udp_Lwip_Init)
    UsageFault_Handler                       0x080065f5   Thumb Code     4  stm32h7xx_it.o(i.UsageFault_Handler)
    __0printf$3                              0x080065f9   Thumb Code    22  printf3.o(i.__0printf$3)
    __1printf$3                              0x080065f9   Thumb Code     0  printf3.o(i.__0printf$3)
    __2printf                                0x080065f9   Thumb Code     0  printf3.o(i.__0printf$3)
    __scatterload_copy                       0x08006651   Thumb Code    14  handlers.o(i.__scatterload_copy)
    __scatterload_null                       0x0800665f   Thumb Code     2  handlers.o(i.__scatterload_null)
    __scatterload_zeroinit                   0x08006661   Thumb Code    14  handlers.o(i.__scatterload_zeroinit)
    client_set_remote_ip                     0x080068b1   Thumb Code   266  tcp_client.o(i.client_set_remote_ip)
    etharp_cleanup_netif                     0x08006b29   Thumb Code    50  etharp.o(i.etharp_cleanup_netif)
    etharp_input                             0x08006ea1   Thumb Code   202  etharp.o(i.etharp_input)
    etharp_output                            0x08006fdd   Thumb Code   396  etharp.o(i.etharp_output)
    etharp_query                             0x08007369   Thumb Code   474  etharp.o(i.etharp_query)
    etharp_request                           0x08007799   Thumb Code    18  etharp.o(i.etharp_request)
    etharp_tmr                               0x080077dd   Thumb Code   214  etharp.o(i.etharp_tmr)
    ethernet_input                           0x08007a15   Thumb Code   190  ethernet.o(i.ethernet_input)
    ethernet_link_check_state                0x08007ad9   Thumb Code   196  ethernetif.o(i.ethernet_link_check_state)
    ethernet_output                          0x08007c05   Thumb Code   112  ethernet.o(i.ethernet_output)
    ethernetif_init                          0x08007d09   Thumb Code    58  ethernetif.o(i.ethernetif_init)
    ethernetif_input                         0x08007da1   Thumb Code    90  ethernetif.o(i.ethernetif_input)
    fputc                                    0x08007e05   Thumb Code    22  main.o(i.fputc)
    icmp_dest_unreach                        0x08007e21   Thumb Code    18  icmp.o(i.icmp_dest_unreach)
    icmp_input                               0x08007e35   Thumb Code   466  icmp.o(i.icmp_input)
    icmp_time_exceeded                       0x080081fd   Thumb Code    18  icmp.o(i.icmp_time_exceeded)
    inet_chksum                              0x0800820f   Thumb Code    20  inet_chksum.o(i.inet_chksum)
    inet_chksum_pbuf                         0x08008223   Thumb Code    86  inet_chksum.o(i.inet_chksum_pbuf)
    ip4_addr_isbroadcast_u32                 0x08008279   Thumb Code    78  ip4_addr.o(i.ip4_addr_isbroadcast_u32)
    ip4_frag                                 0x080082c9   Thumb Code   536  ip4_frag.o(i.ip4_frag)
    ip4_input                                0x08008595   Thumb Code   402  ip4.o(i.ip4_input)
    ip4_output_if                            0x08008765   Thumb Code    54  ip4.o(i.ip4_output_if)
    ip4_output_if_src                        0x0800879d   Thumb Code   250  ip4.o(i.ip4_output_if_src)
    ip4_reass                                0x08008939   Thumb Code   584  ip4_frag.o(i.ip4_reass)
    ip4_route                                0x08008c35   Thumb Code   140  ip4.o(i.ip4_route)
    ip_reass_tmr                             0x080093f1   Thumb Code    48  ip4_frag.o(i.ip_reass_tmr)
    lwip_htonl                               0x08009809   Thumb Code    26  def.o(i.lwip_htonl)
    lwip_htons                               0x08009823   Thumb Code    12  def.o(i.lwip_htons)
    lwip_init                                0x08009831   Thumb Code    64  init.o(i.lwip_init)
    lwip_standard_chksum                     0x080098cd   Thumb Code    94  inet_chksum.o(i.lwip_standard_chksum)
    lwip_udp_discollected                    0x0800992d   Thumb Code    32  lwip_udp.o(i.lwip_udp_discollected)
    lwip_udp_recv_callback                   0x08009951   Thumb Code   216  lwip_udp.o(i.lwip_udp_recv_callback)
    lwip_udp_register                        0x08009a2d   Thumb Code    22  lwip_udp.o(i.lwip_udp_register)
    lwip_udp_send                            0x08009a49   Thumb Code    68  lwip_udp.o(i.lwip_udp_send)
    lwip_udp_set_remote_ip                   0x08009a91   Thumb Code   260  lwip_udp.o(i.lwip_udp_set_remote_ip)
    main                                     0x08009ba1   Thumb Code   392  main.o(i.main)
    mem_free                                 0x08009d4d   Thumb Code   194  mem.o(i.mem_free)
    mem_init                                 0x08009f11   Thumb Code    72  mem.o(i.mem_init)
    mem_malloc                               0x08009fc1   Thumb Code   402  mem.o(i.mem_malloc)
    mem_trim                                 0x0800a279   Thumb Code   388  mem.o(i.mem_trim)
    memp_free                                0x0800a4ad   Thumb Code    54  memp.o(i.memp_free)
    memp_free_pool                           0x0800a55d   Thumb Code    50  memp.o(i.memp_free_pool)
    memp_init                                0x0800a5fd   Thumb Code    26  memp.o(i.memp_init)
    memp_init_pool                           0x0800a61d   Thumb Code    44  memp.o(i.memp_init_pool)
    memp_malloc                              0x0800a649   Thumb Code    50  memp.o(i.memp_malloc)
    memp_malloc_pool                         0x0800a6f9   Thumb Code    44  memp.o(i.memp_malloc_pool)
    netif_add                                0x0800a791   Thumb Code   318  netif.o(i.netif_add)
    netif_get_by_index                       0x0800ab09   Thumb Code    36  netif.o(i.netif_get_by_index)
    netif_init                               0x0800ab31   Thumb Code     2  netif.o(i.netif_init)
    netif_set_addr                           0x0800ac15   Thumb Code    92  netif.o(i.netif_set_addr)
    netif_set_default                        0x0800ac75   Thumb Code     6  netif.o(i.netif_set_default)
    netif_set_down                           0x0800ac81   Thumb Code    78  netif.o(i.netif_set_down)
    netif_set_link_callback                  0x0800ad4d   Thumb Code     6  netif.o(i.netif_set_link_callback)
    netif_set_link_down                      0x0800ad55   Thumb Code    76  netif.o(i.netif_set_link_down)
    netif_set_link_up                        0x0800ae21   Thumb Code    84  netif.o(i.netif_set_link_up)
    netif_set_up                             0x0800aef5   Thumb Code    70  netif.o(i.netif_set_up)
    pbuf_add_header                          0x0800afb5   Thumb Code    18  pbuf.o(i.pbuf_add_header)
    pbuf_alloc                               0x0800b0b1   Thumb Code   414  pbuf.o(i.pbuf_alloc)
    pbuf_alloc_reference                     0x0800b355   Thumb Code    78  pbuf.o(i.pbuf_alloc_reference)
    pbuf_alloced_custom                      0x0800b411   Thumb Code    82  pbuf.o(i.pbuf_alloced_custom)
    pbuf_cat                                 0x0800b465   Thumb Code   126  pbuf.o(i.pbuf_cat)
    pbuf_chain                               0x0800b5b5   Thumb Code    22  pbuf.o(i.pbuf_chain)
    pbuf_clen                                0x0800b5cb   Thumb Code    18  pbuf.o(i.pbuf_clen)
    pbuf_clone                               0x0800b5dd   Thumb Code    68  pbuf.o(i.pbuf_clone)
    pbuf_copy                                0x0800b68d   Thumb Code   304  pbuf.o(i.pbuf_copy)
    pbuf_copy_partial                        0x0800b8b5   Thumb Code   164  pbuf.o(i.pbuf_copy_partial)
    pbuf_free                                0x0800b9f5   Thumb Code   230  pbuf.o(i.pbuf_free)
    pbuf_free_custom                         0x0800bb91   Thumb Code    30  ethernetif.o(i.pbuf_free_custom)
    pbuf_free_ooseq                          0x0800bbb9   Thumb Code    40  pbuf.o(i.pbuf_free_ooseq)
    pbuf_header_force                        0x0800bbe9   Thumb Code    18  pbuf.o(i.pbuf_header_force)
    pbuf_realloc                             0x0800bc4d   Thumb Code   194  pbuf.o(i.pbuf_realloc)
    pbuf_ref                                 0x0800bdb5   Thumb Code    48  pbuf.o(i.pbuf_ref)
    pbuf_remove_header                       0x0800be51   Thumb Code   110  pbuf.o(i.pbuf_remove_header)
    pbuf_take                                0x0800bf45   Thumb Code   234  pbuf.o(i.pbuf_take)
    server_set_local_ip                      0x0800c2f5   Thumb Code   258  tcp_server.o(i.server_set_local_ip)
    sys_check_timeouts                       0x0800c405   Thumb Code    88  timeouts.o(i.sys_check_timeouts)
    sys_now                                  0x0800c469   Thumb Code     8  ethernetif.o(i.sys_now)
    sys_timeout                              0x0800c471   Thumb Code    58  timeouts.o(i.sys_timeout)
    sys_timeouts_init                        0x0800c681   Thumb Code    30  timeouts.o(i.sys_timeouts_init)
    tcp_abandon                              0x0800c6a9   Thumb Code   284  tcp.o(i.tcp_abandon)
    tcp_abort                                0x0800c87d   Thumb Code    14  tcp.o(i.tcp_abort)
    tcp_accept                               0x0800c88b   Thumb Code    16  tcp.o(i.tcp_accept)
    tcp_alloc                                0x0800c945   Thumb Code   176  tcp.o(i.tcp_alloc)
    tcp_arg                                  0x0800ca01   Thumb Code     6  tcp.o(i.tcp_arg)
    tcp_bind                                 0x0800ca09   Thumb Code   204  tcp.o(i.tcp_bind)
    tcp_client_connection_close              0x0800cb79   Thumb Code    68  tcp_client.o(i.tcp_client_connection_close)
    tcp_close                                0x0800cd01   Thumb Code    64  tcp.o(i.tcp_close)
    tcp_connect                              0x0800d0a5   Thumb Code   402  tcp.o(i.tcp_connect)
    tcp_eff_send_mss_netif                   0x0800d4d9   Thumb Code    82  tcp.o(i.tcp_eff_send_mss_netif)
    tcp_enqueue_flags                        0x0800d5ad   Thumb Code   408  tcp_out.o(i.tcp_enqueue_flags)
    tcp_err                                  0x0800d86d   Thumb Code    44  tcp.o(i.tcp_err)
    tcp_fasttmr                              0x0800d919   Thumb Code   142  tcp.o(i.tcp_fasttmr)
    tcp_free                                 0x0800d9b5   Thumb Code    40  tcp.o(i.tcp_free)
    tcp_free_ooseq                           0x0800dc41   Thumb Code    20  tcp.o(i.tcp_free_ooseq)
    tcp_init                                 0x0800dcd1   Thumb Code    20  tcp.o(i.tcp_init)
    tcp_input                                0x0800dce9   Thumb Code  1996  tcp_in.o(i.tcp_input)
    tcp_keepalive                            0x0800e5e9   Thumb Code    98  tcp_out.o(i.tcp_keepalive)
    tcp_listen_with_backlog                  0x0800eb01   Thumb Code    18  tcp.o(i.tcp_listen_with_backlog)
    tcp_listen_with_backlog_and_err          0x0800eb15   Thumb Code   246  tcp.o(i.tcp_listen_with_backlog_and_err)
    tcp_netif_ip_addr_changed                0x0800ecd9   Thumb Code    64  tcp.o(i.tcp_netif_ip_addr_changed)
    tcp_new                                  0x0800edf5   Thumb Code    10  tcp.o(i.tcp_new)
    tcp_next_iss                             0x0800ee69   Thumb Code    50  tcp.o(i.tcp_next_iss)
    tcp_output                               0x0800f045   Thumb Code   684  tcp_out.o(i.tcp_output)
    tcp_pcb_purge                            0x0800fd71   Thumb Code   104  tcp.o(i.tcp_pcb_purge)
    tcp_pcb_remove                           0x0800fe4d   Thumb Code   246  tcp.o(i.tcp_pcb_remove)
    tcp_poll                                 0x08010025   Thumb Code    74  tcp.o(i.tcp_poll)
    tcp_process_refused_data                 0x08010845   Thumb Code   182  tcp.o(i.tcp_process_refused_data)
    tcp_recv                                 0x080115f9   Thumb Code    44  tcp.o(i.tcp_recv)
    tcp_recv_null                            0x080116a5   Thumb Code    78  tcp.o(i.tcp_recv_null)
    tcp_recved                               0x08011769   Thumb Code   132  tcp.o(i.tcp_recved)
    tcp_rexmit                               0x08011939   Thumb Code   142  tcp_out.o(i.tcp_rexmit)
    tcp_rexmit_fast                          0x08011a3d   Thumb Code   142  tcp_out.o(i.tcp_rexmit_fast)
    tcp_rexmit_rto                           0x08011b49   Thumb Code    46  tcp_out.o(i.tcp_rexmit_rto)
    tcp_rexmit_rto_commit                    0x08011bf1   Thumb Code    56  tcp_out.o(i.tcp_rexmit_rto_commit)
    tcp_rexmit_rto_prepare                   0x08011ca9   Thumb Code   150  tcp_out.o(i.tcp_rexmit_rto_prepare)
    tcp_rst                                  0x08011de1   Thumb Code   146  tcp_out.o(i.tcp_rst)
    tcp_seg_copy                             0x08011f09   Thumb Code    62  tcp.o(i.tcp_seg_copy)
    tcp_seg_free                             0x08011fbd   Thumb Code    26  tcp.o(i.tcp_seg_free)
    tcp_segs_free                            0x08011fd7   Thumb Code    24  tcp.o(i.tcp_segs_free)
    tcp_send_empty_ack                       0x08011ff1   Thumb Code   194  tcp_out.o(i.tcp_send_empty_ack)
    tcp_send_fin                             0x08012131   Thumb Code   104  tcp_out.o(i.tcp_send_fin)
    tcp_sent                                 0x08012211   Thumb Code    44  tcp.o(i.tcp_sent)
    tcp_slowtmr                              0x08012531   Thumb Code  1698  tcp.o(i.tcp_slowtmr)
    tcp_split_unsent_seg                     0x08012c61   Thumb Code   510  tcp_out.o(i.tcp_split_unsent_seg)
    tcp_timer_needed                         0x08012f31   Thumb Code    38  timeouts.o(i.tcp_timer_needed)
    tcp_tmr                                  0x080130ad   Thumb Code    30  tcp.o(i.tcp_tmr)
    tcp_trigger_input_pcb_close              0x080130d1   Thumb Code    14  tcp_in.o(i.tcp_trigger_input_pcb_close)
    tcp_update_rcv_ann_wnd                   0x080130e5   Thumb Code   128  tcp.o(i.tcp_update_rcv_ann_wnd)
    tcp_write                                0x080131fd   Thumb Code  1918  tcp_out.o(i.tcp_write)
    tcp_zero_window_probe                    0x08013bd5   Thumb Code   238  tcp_out.o(i.tcp_zero_window_probe)
    udp_bind                                 0x08013d7d   Thumb Code   172  udp.o(i.udp_bind)
    udp_connect                              0x08013ea1   Thumb Code   158  udp.o(i.udp_connect)
    udp_disconnect                           0x08013fd5   Thumb Code    56  udp.o(i.udp_disconnect)
    udp_init                                 0x08014081   Thumb Code    20  udp.o(i.udp_init)
    udp_input                                0x08014099   Thumb Code   412  udp.o(i.udp_input)
    udp_netif_ip_addr_changed                0x0801441d   Thumb Code    42  udp.o(i.udp_netif_ip_addr_changed)
    udp_new                                  0x0801444d   Thumb Code    28  udp.o(i.udp_new)
    udp_recv                                 0x080144c1   Thumb Code    44  udp.o(i.udp_recv)
    udp_remove                               0x0801455d   Thumb Code    94  udp.o(i.udp_remove)
    udp_send                                 0x08014631   Thumb Code    84  udp.o(i.udp_send)
    udp_sendto                               0x0801470d   Thumb Code   156  udp.o(i.udp_sendto)
    udp_sendto_if                            0x08014851   Thumb Code   200  udp.o(i.udp_sendto_if)
    udp_sendto_if_src                        0x080149e9   Thumb Code   384  udp.o(i.udp_sendto_if_src)
    memp_RX_POOL                             0x08014c9c   Data          12  ethernetif.o(.constdata)
    UARTPrescTable                           0x08014ca8   Data          24  stm32h7xx_hal_uart.o(.constdata)
    D1CorePrescTable                         0x08014cd0   Data          16  system_stm32h7xx.o(.constdata)
    ethbroadcast                             0x08014ce0   Data           6  ethernet.o(.constdata)
    ethzero                                  0x08014ce6   Data           6  ethernet.o(.constdata)
    memp_UDP_PCB                             0x08014cec   Data          12  memp.o(.constdata)
    memp_TCP_PCB                             0x08014cf8   Data          12  memp.o(.constdata)
    memp_TCP_PCB_LISTEN                      0x08014d04   Data          12  memp.o(.constdata)
    memp_TCP_SEG                             0x08014d10   Data          12  memp.o(.constdata)
    memp_REASSDATA                           0x08014d1c   Data          12  memp.o(.constdata)
    memp_FRAG_PBUF                           0x08014d28   Data          12  memp.o(.constdata)
    memp_SYS_TIMEOUT                         0x08014d34   Data          12  memp.o(.constdata)
    memp_PBUF                                0x08014d40   Data          12  memp.o(.constdata)
    memp_PBUF_POOL                           0x08014d4c   Data          12  memp.o(.constdata)
    memp_pools                               0x08014d58   Data          36  memp.o(.constdata)
    tcp_pcb_lists                            0x08014dbc   Data          16  tcp.o(.constdata)
    lwip_cyclic_timers                       0x08014dcc   Data          24  timeouts.o(.constdata)
    lwip_num_cyclic_timers                   0x08014de4   Data           4  timeouts.o(.constdata)
    ip_addr_any                              0x08014de8   Data           4  ip4_addr.o(.constdata)
    ip_addr_broadcast                        0x08014dec   Data           4  ip4_addr.o(.constdata)
    Region$$Table$$Base                      0x08014f48   Number         0  anon$$obj.o(Region$$Table)
    Region$$Table$$Limit                     0x08014f68   Number         0  anon$$obj.o(Region$$Table)
    client_flag                              0x24000000   Data           1  main.o(.data)
    server_flag                              0x24000001   Data           1  main.o(.data)
    udp_flag                                 0x24000002   Data           1  main.o(.data)
    testbuf                                  0x24000003   Data          20  main.o(.data)
    LAN8742_IOCtx                            0x24000020   Data          20  ethernetif.o(.data)
    EthernetLinkTimer                        0x24000034   Data           4  lwip.o(.data)
    ipaddr                                   0x24000038   Data           4  lwip.o(.data)
    netmask                                  0x2400003c   Data           4  lwip.o(.data)
    gw                                       0x24000040   Data           4  lwip.o(.data)
    IP_ADDRESS                               0x24000044   Data           4  lwip.o(.data)
    NETMASK_ADDRESS                          0x24000048   Data           4  lwip.o(.data)
    GATEWAY_ADDRESS                          0x2400004c   Data           4  lwip.o(.data)
    udp_send_buffer                          0x24000050   Data        1500  lwip_udp.o(.data)
    udp_recv_buffer                          0x2400062c   Data        1500  lwip_udp.o(.data)
    udp_device                               0x24000c08   Data          52  lwip_udp.o(.data)
    test_recv_buffer                         0x24000c3c   Data       15000  tcp_client.o(.data)
    test_rx_length                           0x240046d4   Data           4  tcp_client.o(.data)
    client_buff_rx_p                         0x240046d8   Data           4  tcp_client.o(.data)
    client_send_buffer                       0x240046dc   Data        1500  tcp_client.o(.data)
    client_recv_buffer                       0x24004cb8   Data        1500  tcp_client.o(.data)
    client_device                            0x24005294   Data          60  tcp_client.o(.data)
    recv_buff_test                           0x240052d0   Data       15000  tcp_server.o(.data)
    rx_length_test                           0x24008d68   Data           4  tcp_server.o(.data)
    server_buff_rx_p                         0x24008d6c   Data           4  tcp_server.o(.data)
    server_send_buffer                       0x24008d70   Data        1500  tcp_server.o(.data)
    server_recv_buffer                       0x2400934c   Data        1500  tcp_server.o(.data)
    server_device                            0x24009928   Data          52  tcp_server.o(.data)
    uwTick                                   0x2400995c   Data           4  stm32h7xx_hal.o(.data)
    uwTickPrio                               0x24009960   Data           4  stm32h7xx_hal.o(.data)
    uwTickFreq                               0x24009964   Data           1  stm32h7xx_hal.o(.data)
    SystemCoreClock                          0x24009968   Data           4  system_stm32h7xx.o(.data)
    SystemD2Clock                            0x2400996c   Data           4  system_stm32h7xx.o(.data)
    netif_list                               0x240099a0   Data           4  netif.o(.data)
    netif_default                            0x240099a4   Data           4  netif.o(.data)
    pbuf_free_ooseq_pending                  0x240099a9   Data           1  pbuf.o(.data)
    tcp_ticks                                0x240099b0   Data           4  tcp.o(.data)
    tcp_bound_pcbs                           0x240099b4   Data           4  tcp.o(.data)
    tcp_listen_pcbs                          0x240099b8   Data           4  tcp.o(.data)
    tcp_active_pcbs                          0x240099bc   Data           4  tcp.o(.data)
    tcp_tw_pcbs                              0x240099c0   Data           4  tcp.o(.data)
    tcp_active_pcbs_changed                  0x240099c4   Data           1  tcp.o(.data)
    tcp_input_pcb                            0x240099f0   Data           4  tcp_in.o(.data)
    udp_pcbs                                 0x24009a04   Data           4  udp.o(.data)
    __stdout                                 0x24009a18   Data           4  stdout.o(.data)
    RecvHandle                               0x24009a1c   Data        1504  main.o(.bss)
    huart1                                   0x24009ffc   Data         148  usart.o(.bss)
    memp_memory_RX_POOL_base                 0x2400a090   Data       18819  ethernetif.o(.bss)
    heth                                     0x2400ea14   Data         176  ethernetif.o(.bss)
    TxConfig                                 0x2400eac4   Data          56  ethernetif.o(.bss)
    LAN8742                                  0x2400eafc   Data          32  ethernetif.o(.bss)
    gnetif                                   0x2400eb1c   Data          52  lwip.o(.bss)
    ip_data                                  0x2400eb50   Data          24  ip.o(.bss)
    memp_memory_UDP_PCB_base                 0x2400eb68   Data         131  memp.o(.bss)
    memp_memory_TCP_PCB_base                 0x2400ebeb   Data         783  memp.o(.bss)
    memp_memory_TCP_PCB_LISTEN_base          0x2400eefa   Data         227  memp.o(.bss)
    memp_memory_TCP_SEG_base                 0x2400efdd   Data         259  memp.o(.bss)
    memp_memory_REASSDATA_base               0x2400f0e0   Data         163  memp.o(.bss)
    memp_memory_FRAG_PBUF_base               0x2400f183   Data         363  memp.o(.bss)
    memp_memory_SYS_TIMEOUT_base             0x2400f2ee   Data          51  memp.o(.bss)
    memp_memory_PBUF_base                    0x2400f321   Data         259  memp.o(.bss)
    memp_memory_PBUF_POOL_base               0x2400f424   Data       24515  memp.o(.bss)
    __initial_sp                             0x240158e8   Data           0  startup_stm32h743xx.o(STACK)
    DMARxDscrTab                             0x30004000   Data          96  ethernetif.o(.ARM.__AT_0x30004000)
    DMATxDscrTab                             0x30004060   Data          96  ethernetif.o(.ARM.__AT_0x30004060)



==============================================================================

Memory Map of the image

  Image Entry point : 0x08000299

  Load Region LR_IROM1 (Base: 0x08000000, Size: 0x0001e984, Max: 0x00200000, ABSOLUTE, COMPRESSED[0x0001512c])

    Execution Region ER_IROM1 (Exec base: 0x08000000, Load base: 0x08000000, Size: 0x00014f68, Max: 0x00200000, ABSOLUTE)

    Exec Addr    Load Addr    Size         Type   Attr      Idx    E Section Name        Object

    0x08000000   0x08000000   0x00000298   Data   RO            3    RESET               startup_stm32h743xx.o
    0x08000298   0x08000298   0x00000000   Code   RO         8650  * .ARM.Collect$$$$00000000  mc_w.l(entry.o)
    0x08000298   0x08000298   0x00000004   Code   RO         8965    .ARM.Collect$$$$00000001  mc_w.l(entry2.o)
    0x0800029c   0x0800029c   0x00000004   Code   RO         8968    .ARM.Collect$$$$00000004  mc_w.l(entry5.o)
    0x080002a0   0x080002a0   0x00000000   Code   RO         8970    .ARM.Collect$$$$00000008  mc_w.l(entry7b.o)
    0x080002a0   0x080002a0   0x00000000   Code   RO         8972    .ARM.Collect$$$$0000000A  mc_w.l(entry8b.o)
    0x080002a0   0x080002a0   0x00000008   Code   RO         8973    .ARM.Collect$$$$0000000B  mc_w.l(entry9a.o)
    0x080002a8   0x080002a8   0x00000004   Code   RO         8980    .ARM.Collect$$$$0000000E  mc_w.l(entry12b.o)
    0x080002ac   0x080002ac   0x00000000   Code   RO         8975    .ARM.Collect$$$$0000000F  mc_w.l(entry10a.o)
    0x080002ac   0x080002ac   0x00000000   Code   RO         8977    .ARM.Collect$$$$00000011  mc_w.l(entry11a.o)
    0x080002ac   0x080002ac   0x00000004   Code   RO         8966    .ARM.Collect$$$$00002712  mc_w.l(entry2.o)
    0x080002b0   0x080002b0   0x00000024   Code   RO            4    .text               startup_stm32h743xx.o
    0x080002d4   0x080002d4   0x00000062   Code   RO         8653    .text               mc_w.l(uldiv.o)
    0x08000336   0x08000336   0x00000002   PAD
    0x08000338   0x08000338   0x00000024   Code   RO         8683    .text               mc_w.l(rand.o)
    0x0800035c   0x0800035c   0x00000040   Code   RO         8688    .text               mc_w.l(memmovea.o)
    0x0800039c   0x0800039c   0x00000024   Code   RO         8690    .text               mc_w.l(memseta.o)
    0x080003c0   0x080003c0   0x0000000e   Code   RO         8692    .text               mc_w.l(strlen.o)
    0x080003ce   0x080003ce   0x0000001a   Code   RO         8694    .text               mc_w.l(memcmp.o)
    0x080003e8   0x080003e8   0x0000002c   Code   RO         8982    .text               mc_w.l(uidiv.o)
    0x08000414   0x08000414   0x0000001e   Code   RO         8984    .text               mc_w.l(llshl.o)
    0x08000432   0x08000432   0x00000020   Code   RO         8986    .text               mc_w.l(llushr.o)
    0x08000452   0x08000452   0x00000002   PAD
    0x08000454   0x08000454   0x00000024   Code   RO         9008    .text               mc_w.l(init.o)
    0x08000478   0x08000478   0x00000056   Code   RO         9026    .text               mc_w.l(__dczerorl2.o)
    0x080004ce   0x080004ce   0x00000004   Code   RO          428    i.BusFault_Handler  stm32h7xx_it.o
    0x080004d2   0x080004d2   0x00000002   Code   RO          429    i.DebugMon_Handler  stm32h7xx_it.o
    0x080004d4   0x080004d4   0x00000060   Code   RO         1219    i.ETH_DMARxDescListInit  stm32h7xx_hal_eth.o
    0x08000534   0x08000534   0x00000052   Code   RO         1220    i.ETH_DMATxDescListInit  stm32h7xx_hal_eth.o
    0x08000586   0x08000586   0x00000002   PAD
    0x08000588   0x08000588   0x00000024   Code   RO          691    i.ETH_IRQHandler    lwip.o
    0x080005ac   0x080005ac   0x00000106   Code   RO         1221    i.ETH_MACDMAConfig  stm32h7xx_hal_eth.o
    0x080006b2   0x080006b2   0x00000004   Code   RO          540    i.ETH_PHY_IO_DeInit  ethernetif.o
    0x080006b6   0x080006b6   0x00000008   Code   RO          541    i.ETH_PHY_IO_GetTick  ethernetif.o
    0x080006be   0x080006be   0x00000002   PAD
    0x080006c0   0x080006c0   0x00000010   Code   RO          542    i.ETH_PHY_IO_Init   ethernetif.o
    0x080006d0   0x080006d0   0x00000024   Code   RO          543    i.ETH_PHY_IO_ReadReg  ethernetif.o
    0x080006f4   0x080006f4   0x00000024   Code   RO          544    i.ETH_PHY_IO_WriteReg  ethernetif.o
    0x08000718   0x08000718   0x000003d0   Code   RO         1222    i.ETH_Prepare_Tx_Descriptors  stm32h7xx_hal_eth.o
    0x08000ae8   0x08000ae8   0x000000bc   Code   RO         1223    i.ETH_SetDMAConfig  stm32h7xx_hal_eth.o
    0x08000ba4   0x08000ba4   0x00000194   Code   RO         1224    i.ETH_SetMACConfig  stm32h7xx_hal_eth.o
    0x08000d38   0x08000d38   0x00000098   Code   RO         1225    i.ETH_UpdateDescriptor  stm32h7xx_hal_eth.o
    0x08000dd0   0x08000dd0   0x00000010   Code   RO          430    i.ETH_WKUP_IRQHandler  stm32h7xx_it.o
    0x08000de0   0x08000de0   0x00000006   Code   RO           13    i.Error_Handler     main.o
    0x08000de6   0x08000de6   0x00000002   PAD
    0x08000de8   0x08000de8   0x00000028   Code   RO          692    i.Ethernet_Link_Periodic_Handle  lwip.o
    0x08000e10   0x08000e10   0x000004dc   Code   RO         2424    i.HAL_DMA_Abort     stm32h7xx_hal_dma.o
    0x080012ec   0x080012ec   0x00000398   Code   RO         2425    i.HAL_DMA_Abort_IT  stm32h7xx_hal_dma.o
    0x08001684   0x08001684   0x00000002   Code   RO         1227    i.HAL_ETH_EEECallback  stm32h7xx_hal_eth.o
    0x08001686   0x08001686   0x00000002   Code   RO         1229    i.HAL_ETH_ErrorCallback  stm32h7xx_hal_eth.o
    0x08001688   0x08001688   0x000001d6   Code   RO         1234    i.HAL_ETH_GetMACConfig  stm32h7xx_hal_eth.o
    0x0800185e   0x0800185e   0x00000002   PAD
    0x08001860   0x08001860   0x000001c0   Code   RO         1240    i.HAL_ETH_IRQHandler  stm32h7xx_hal_eth.o
    0x08001a20   0x08001a20   0x00000168   Code   RO         1241    i.HAL_ETH_Init      stm32h7xx_hal_eth.o
    0x08001b88   0x08001b88   0x00000228   Code   RO          546    i.HAL_ETH_MspInit   ethernetif.o
    0x08001db0   0x08001db0   0x00000002   Code   RO         1244    i.HAL_ETH_PMTCallback  stm32h7xx_hal_eth.o
    0x08001db2   0x08001db2   0x00000100   Code   RO         1245    i.HAL_ETH_ReadData  stm32h7xx_hal_eth.o
    0x08001eb2   0x08001eb2   0x00000078   Code   RO         1246    i.HAL_ETH_ReadPHYRegister  stm32h7xx_hal_eth.o
    0x08001f2a   0x08001f2a   0x00000002   PAD
    0x08001f2c   0x08001f2c   0x00000048   Code   RO          547    i.HAL_ETH_RxAllocateCallback  ethernetif.o
    0x08001f74   0x08001f74   0x00000002   Code   RO         1252    i.HAL_ETH_RxCpltCallback  stm32h7xx_hal_eth.o
    0x08001f76   0x08001f76   0x00000002   PAD
    0x08001f78   0x08001f78   0x000000a4   Code   RO          548    i.HAL_ETH_RxLinkCallback  ethernetif.o
    0x0800201c   0x0800201c   0x00000024   Code   RO         1256    i.HAL_ETH_SetMACConfig  stm32h7xx_hal_eth.o
    0x08002040   0x08002040   0x00000078   Code   RO         1258    i.HAL_ETH_SetMDIOClockRange  stm32h7xx_hal_eth.o
    0x080020b8   0x080020b8   0x000000e0   Code   RO         1263    i.HAL_ETH_Start_IT  stm32h7xx_hal_eth.o
    0x08002198   0x08002198   0x00000074   Code   RO         1264    i.HAL_ETH_Stop      stm32h7xx_hal_eth.o
    0x0800220c   0x0800220c   0x000000f6   Code   RO         1266    i.HAL_ETH_Transmit  stm32h7xx_hal_eth.o
    0x08002302   0x08002302   0x00000002   Code   RO         1268    i.HAL_ETH_TxCpltCallback  stm32h7xx_hal_eth.o
    0x08002304   0x08002304   0x00000002   Code   RO         1273    i.HAL_ETH_WakeUpCallback  stm32h7xx_hal_eth.o
    0x08002306   0x08002306   0x00000002   PAD
    0x08002308   0x08002308   0x00000080   Code   RO         1274    i.HAL_ETH_WritePHYRegister  stm32h7xx_hal_eth.o
    0x08002388   0x08002388   0x000001fc   Code   RO         2272    i.HAL_GPIO_Init     stm32h7xx_hal_gpio.o
    0x08002584   0x08002584   0x0000000c   Code   RO         2276    i.HAL_GPIO_WritePin  stm32h7xx_hal_gpio.o
    0x08002590   0x08002590   0x0000000c   Code   RO         3290    i.HAL_GetREVID      stm32h7xx_hal.o
    0x0800259c   0x0800259c   0x0000000c   Code   RO         3291    i.HAL_GetTick       stm32h7xx_hal.o
    0x080025a8   0x080025a8   0x00000018   Code   RO         3297    i.HAL_IncTick       stm32h7xx_hal.o
    0x080025c0   0x080025c0   0x00000060   Code   RO         3298    i.HAL_Init          stm32h7xx_hal.o
    0x08002620   0x08002620   0x00000058   Code   RO         3299    i.HAL_InitTick      stm32h7xx_hal.o
    0x08002678   0x08002678   0x0000005c   Code   RO         3127    i.HAL_MPU_ConfigRegion  stm32h7xx_hal_cortex.o
    0x080026d4   0x080026d4   0x0000002c   Code   RO         3128    i.HAL_MPU_Disable   stm32h7xx_hal_cortex.o
    0x08002700   0x08002700   0x00000040   Code   RO         3129    i.HAL_MPU_Enable    stm32h7xx_hal_cortex.o
    0x08002740   0x08002740   0x00000024   Code   RO          516    i.HAL_MspInit       stm32h7xx_hal_msp.o
    0x08002764   0x08002764   0x00000028   Code   RO         3132    i.HAL_NVIC_EnableIRQ  stm32h7xx_hal_cortex.o
    0x0800278c   0x0800278c   0x0000007a   Code   RO         3138    i.HAL_NVIC_SetPriority  stm32h7xx_hal_cortex.o
    0x08002806   0x08002806   0x00000002   PAD
    0x08002808   0x08002808   0x00000028   Code   RO         3139    i.HAL_NVIC_SetPriorityGrouping  stm32h7xx_hal_cortex.o
    0x08002830   0x08002830   0x00000060   Code   RO         2873    i.HAL_PWREx_ConfigSupply  stm32h7xx_hal_pwr_ex.o
    0x08002890   0x08002890   0x00000024   Code   RO         1823    i.HAL_RCCEx_GetD3PCLK1Freq  stm32h7xx_hal_rcc_ex.o
    0x080028b4   0x080028b4   0x00000230   Code   RO         1825    i.HAL_RCCEx_GetPLL2ClockFreq  stm32h7xx_hal_rcc_ex.o
    0x08002ae4   0x08002ae4   0x00000230   Code   RO         1826    i.HAL_RCCEx_GetPLL3ClockFreq  stm32h7xx_hal_rcc_ex.o
    0x08002d14   0x08002d14   0x00000d68   Code   RO         1832    i.HAL_RCCEx_PeriphCLKConfig  stm32h7xx_hal_rcc_ex.o
    0x08003a7c   0x08003a7c   0x00000320   Code   RO         1708    i.HAL_RCC_ClockConfig  stm32h7xx_hal_rcc.o
    0x08003d9c   0x08003d9c   0x0000004c   Code   RO         1713    i.HAL_RCC_GetHCLKFreq  stm32h7xx_hal_rcc.o
    0x08003de8   0x08003de8   0x00000024   Code   RO         1715    i.HAL_RCC_GetPCLK1Freq  stm32h7xx_hal_rcc.o
    0x08003e0c   0x08003e0c   0x00000024   Code   RO         1716    i.HAL_RCC_GetPCLK2Freq  stm32h7xx_hal_rcc.o
    0x08003e30   0x08003e30   0x0000022c   Code   RO         1717    i.HAL_RCC_GetSysClockFreq  stm32h7xx_hal_rcc.o
    0x0800405c   0x0800405c   0x00000858   Code   RO         1720    i.HAL_RCC_OscConfig  stm32h7xx_hal_rcc.o
    0x080048b4   0x080048b4   0x00000014   Code   RO         3310    i.HAL_SYSCFG_ETHInterfaceSelect  stm32h7xx_hal.o
    0x080048c8   0x080048c8   0x00000034   Code   RO         3143    i.HAL_SYSTICK_Config  stm32h7xx_hal_cortex.o
    0x080048fc   0x080048fc   0x0000004e   Code   RO         4643    i.HAL_UARTEx_DisableFifoMode  stm32h7xx_hal_uart_ex.o
    0x0800494a   0x0800494a   0x00000002   Code   RO         4227    i.HAL_UARTEx_RxEventCallback  stm32h7xx_hal_uart.o
    0x0800494c   0x0800494c   0x00000002   Code   RO         4651    i.HAL_UARTEx_RxFifoFullCallback  stm32h7xx_hal_uart_ex.o
    0x0800494e   0x0800494e   0x0000005e   Code   RO         4652    i.HAL_UARTEx_SetRxFifoThreshold  stm32h7xx_hal_uart_ex.o
    0x080049ac   0x080049ac   0x0000005e   Code   RO         4653    i.HAL_UARTEx_SetTxFifoThreshold  stm32h7xx_hal_uart_ex.o
    0x08004a0a   0x08004a0a   0x00000002   Code   RO         4655    i.HAL_UARTEx_TxFifoEmptyCallback  stm32h7xx_hal_uart_ex.o
    0x08004a0c   0x08004a0c   0x00000002   Code   RO         4656    i.HAL_UARTEx_WakeupCallback  stm32h7xx_hal_uart_ex.o
    0x08004a0e   0x08004a0e   0x00000002   Code   RO         4243    i.HAL_UART_ErrorCallback  stm32h7xx_hal_uart.o
    0x08004a10   0x08004a10   0x00000494   Code   RO         4246    i.HAL_UART_IRQHandler  stm32h7xx_hal_uart.o
    0x08004ea4   0x08004ea4   0x00000078   Code   RO         4247    i.HAL_UART_Init     stm32h7xx_hal_uart.o
    0x08004f1c   0x08004f1c   0x000000c4   Code   RO          387    i.HAL_UART_MspInit  usart.o
    0x08004fe0   0x08004fe0   0x00000002   Code   RO         4259    i.HAL_UART_TxCpltCallback  stm32h7xx_hal_uart.o
    0x08004fe2   0x08004fe2   0x00000004   Code   RO          431    i.HardFault_Handler  stm32h7xx_it.o
    0x08004fe6   0x08004fe6   0x000000e8   Code   RO         1135    i.LAN8742_GetLinkState  lan8742.o
    0x080050ce   0x080050ce   0x000000fe   Code   RO         1136    i.LAN8742_Init      lan8742.o
    0x080051cc   0x080051cc   0x0000002e   Code   RO         1137    i.LAN8742_RegisterBusIO  lan8742.o
    0x080051fa   0x080051fa   0x00000002   PAD
    0x080051fc   0x080051fc   0x00000060   Code   RO           14    i.MPU_Config        main.o
    0x0800525c   0x0800525c   0x00000124   Code   RO          354    i.MX_GPIO_Init      gpio.o
    0x08005380   0x08005380   0x00000240   Code   RO          693    i.MX_LWIP_Init      lwip.o
    0x080055c0   0x080055c0   0x00000014   Code   RO          694    i.MX_LWIP_Process   lwip.o
    0x080055d4   0x080055d4   0x0000006c   Code   RO          388    i.MX_USART1_UART_Init  usart.o
    0x08005640   0x08005640   0x00000004   Code   RO          432    i.MemManage_Handler  stm32h7xx_it.o
    0x08005644   0x08005644   0x00000004   Code   RO          433    i.NMI_Handler       stm32h7xx_it.o
    0x08005648   0x08005648   0x00000002   Code   RO          434    i.PendSV_Handler    stm32h7xx_it.o
    0x0800564a   0x0800564a   0x00000002   PAD
    0x0800564c   0x0800564c   0x00000164   Code   RO         1835    i.RCCEx_PLL2_Config  stm32h7xx_hal_rcc_ex.o
    0x080057b0   0x080057b0   0x00000164   Code   RO         1836    i.RCCEx_PLL3_Config  stm32h7xx_hal_rcc_ex.o
    0x08005914   0x08005914   0x00000002   Code   RO          435    i.SVC_Handler       stm32h7xx_it.o
    0x08005916   0x08005916   0x00000008   Code   RO          436    i.SysTick_Handler   stm32h7xx_it.o
    0x0800591e   0x0800591e   0x00000002   PAD
    0x08005920   0x08005920   0x0000013c   Code   RO           15    i.SystemClock_Config  main.o
    0x08005a5c   0x08005a5c   0x000000fc   Code   RO         4767    i.SystemInit        system_stm32h7xx.o
    0x08005b58   0x08005b58   0x00000084   Code   RO          959    i.TCP_Client_Init   tcp_client.o
    0x08005bdc   0x08005bdc   0x0000002c   Code   RO          960    i.TCP_Client_Task   tcp_client.o
    0x08005c08   0x08005c08   0x00000058   Code   RO         1059    i.TCP_Server_Init   tcp_server.o
    0x08005c60   0x08005c60   0x00000058   Code   RO         4657    i.UARTEx_SetNbDataToProcess  stm32h7xx_hal_uart_ex.o
    0x08005cb8   0x08005cb8   0x000000f8   Code   RO         4261    i.UART_AdvFeatureConfig  stm32h7xx_hal_uart.o
    0x08005db0   0x08005db0   0x000000ea   Code   RO         4262    i.UART_CheckIdleState  stm32h7xx_hal_uart.o
    0x08005e9a   0x08005e9a   0x00000018   Code   RO         4263    i.UART_DMAAbortOnError  stm32h7xx_hal_uart.o
    0x08005eb2   0x08005eb2   0x00000002   PAD
    0x08005eb4   0x08005eb4   0x0000006c   Code   RO         4273    i.UART_EndRxTransfer  stm32h7xx_hal_uart.o
    0x08005f20   0x08005f20   0x00000030   Code   RO         4274    i.UART_EndTransmit_IT  stm32h7xx_hal_uart.o
    0x08005f50   0x08005f50   0x0000058c   Code   RO         4280    i.UART_SetConfig    stm32h7xx_hal_uart.o
    0x080064dc   0x080064dc   0x000000a2   Code   RO         4287    i.UART_WaitOnFlagUntilTimeout  stm32h7xx_hal_uart.o
    0x0800657e   0x0800657e   0x00000002   PAD
    0x08006580   0x08006580   0x00000010   Code   RO          437    i.USART1_IRQHandler  stm32h7xx_it.o
    0x08006590   0x08006590   0x00000064   Code   RO          880    i.Udp_Lwip_Init     lwip_udp.o
    0x080065f4   0x080065f4   0x00000004   Code   RO          438    i.UsageFault_Handler  stm32h7xx_it.o
    0x080065f8   0x080065f8   0x00000020   Code   RO         8791    i.__0printf$3       mc_w.l(printf3.o)
    0x08006618   0x08006618   0x00000010   Code   RO         3145    i.__NVIC_GetPriorityGrouping  stm32h7xx_hal_cortex.o
    0x08006628   0x08006628   0x00000028   Code   RO         3146    i.__NVIC_SetPriority  stm32h7xx_hal_cortex.o
    0x08006650   0x08006650   0x0000000e   Code   RO         9020    i.__scatterload_copy  mc_w.l(handlers.o)
    0x0800665e   0x0800665e   0x00000002   Code   RO         9021    i.__scatterload_null  mc_w.l(handlers.o)
    0x08006660   0x08006660   0x0000000e   Code   RO         9022    i.__scatterload_zeroinit  mc_w.l(handlers.o)
    0x0800666e   0x0800666e   0x00000002   PAD
    0x08006670   0x08006670   0x000001b8   Code   RO         8798    i._printf_core      mc_w.l(printf3.o)
    0x08006828   0x08006828   0x00000050   Code   RO          961    i.client_connected  tcp_client.o
    0x08006878   0x08006878   0x00000038   Code   RO          962    i.client_polling_cbk  tcp_client.o
    0x080068b0   0x080068b0   0x00000118   Code   RO          963    i.client_set_remote_ip  tcp_client.o
    0x080069c8   0x080069c8   0x000000ac   Code   RO         6296    i.do_memp_free_pool  memp.o
    0x08006a74   0x08006a74   0x000000b4   Code   RO         6297    i.do_memp_malloc_pool  memp.o
    0x08006b28   0x08006b28   0x00000038   Code   RO         7790    i.etharp_cleanup_netif  etharp.o
    0x08006b60   0x08006b60   0x00000300   Code   RO         7792    i.etharp_find_entry  etharp.o
    0x08006e60   0x08006e60   0x00000040   Code   RO         7793    i.etharp_free_entry  etharp.o
    0x08006ea0   0x08006ea0   0x0000013c   Code   RO         7795    i.etharp_input      etharp.o
    0x08006fdc   0x08006fdc   0x00000224   Code   RO         7796    i.etharp_output     etharp.o
    0x08007200   0x08007200   0x00000168   Code   RO         7797    i.etharp_output_to_arp_index  etharp.o
    0x08007368   0x08007368   0x000002a4   Code   RO         7798    i.etharp_query      etharp.o
    0x0800760c   0x0800760c   0x0000018c   Code   RO         7799    i.etharp_raw        etharp.o
    0x08007798   0x08007798   0x00000018   Code   RO         7800    i.etharp_request    etharp.o
    0x080077b0   0x080077b0   0x0000002c   Code   RO         7801    i.etharp_request_dst  etharp.o
    0x080077dc   0x080077dc   0x000000dc   Code   RO         7802    i.etharp_tmr        etharp.o
    0x080078b8   0x080078b8   0x0000015c   Code   RO         7803    i.etharp_update_arp_entry  etharp.o
    0x08007a14   0x08007a14   0x000000c4   Code   RO         5457    i.ethernet_input    ethernet.o
    0x08007ad8   0x08007ad8   0x000000cc   Code   RO          550    i.ethernet_link_check_state  ethernetif.o
    0x08007ba4   0x08007ba4   0x00000060   Code   RO          695    i.ethernet_link_status_updated  lwip.o
    0x08007c04   0x08007c04   0x00000104   Code   RO         5458    i.ethernet_output   ethernet.o
    0x08007d08   0x08007d08   0x00000098   Code   RO          551    i.ethernetif_init   ethernetif.o
    0x08007da0   0x08007da0   0x00000064   Code   RO          552    i.ethernetif_input  ethernetif.o
    0x08007e04   0x08007e04   0x0000001c   Code   RO           16    i.fputc             main.o
    0x08007e20   0x08007e20   0x00000012   Code   RO         7897    i.icmp_dest_unreach  icmp.o
    0x08007e32   0x08007e32   0x00000002   PAD
    0x08007e34   0x08007e34   0x000002a4   Code   RO         7898    i.icmp_input        icmp.o
    0x080080d8   0x080080d8   0x00000124   Code   RO         7899    i.icmp_send_response  icmp.o
    0x080081fc   0x080081fc   0x00000012   Code   RO         7900    i.icmp_time_exceeded  icmp.o
    0x0800820e   0x0800820e   0x00000014   Code   RO         6030    i.inet_chksum       inet_chksum.o
    0x08008222   0x08008222   0x00000056   Code   RO         6031    i.inet_chksum_pbuf  inet_chksum.o
    0x08008278   0x08008278   0x0000004e   Code   RO         8030    i.ip4_addr_isbroadcast_u32  ip4_addr.o
    0x080082c6   0x080082c6   0x00000002   PAD
    0x080082c8   0x080082c8   0x000002cc   Code   RO         8102    i.ip4_frag          ip4_frag.o
    0x08008594   0x08008594   0x0000019c   Code   RO         7971    i.ip4_input         ip4.o
    0x08008730   0x08008730   0x00000034   Code   RO         7972    i.ip4_input_accept  ip4.o
    0x08008764   0x08008764   0x00000036   Code   RO         7974    i.ip4_output_if     ip4.o
    0x0800879a   0x0800879a   0x00000002   PAD
    0x0800879c   0x0800879c   0x0000019c   Code   RO         7975    i.ip4_output_if_src  ip4.o
    0x08008938   0x08008938   0x000002fc   Code   RO         8103    i.ip4_reass         ip4_frag.o
    0x08008c34   0x08008c34   0x00000094   Code   RO         7976    i.ip4_route         ip4.o
    0x08008cc8   0x08008cc8   0x0000000a   Code   RO         8104    i.ip_frag_alloc_pbuf_custom_ref  ip4_frag.o
    0x08008cd2   0x08008cd2   0x00000002   PAD
    0x08008cd4   0x08008cd4   0x00000098   Code   RO         8105    i.ip_frag_free_pbuf_custom_ref  ip4_frag.o
    0x08008d6c   0x08008d6c   0x00000304   Code   RO         8106    i.ip_reass_chain_frag_into_datagram_and_validate  ip4_frag.o
    0x08009070   0x08009070   0x000000c4   Code   RO         8107    i.ip_reass_dequeue_datagram  ip4_frag.o
    0x08009134   0x08009134   0x00000054   Code   RO         8108    i.ip_reass_enqueue_new_datagram  ip4_frag.o
    0x08009188   0x08009188   0x000001e0   Code   RO         8109    i.ip_reass_free_complete_datagram  ip4_frag.o
    0x08009368   0x08009368   0x00000088   Code   RO         8110    i.ip_reass_remove_oldest_datagram  ip4_frag.o
    0x080093f0   0x080093f0   0x00000034   Code   RO         8111    i.ip_reass_tmr      ip4_frag.o
    0x08009424   0x08009424   0x000000c8   Code   RO         8112    i.ipfrag_free_pbuf_custom  ip4_frag.o
    0x080094ec   0x080094ec   0x000000fc   Code   RO          553    i.low_level_init    ethernetif.o
    0x080095e8   0x080095e8   0x000000a4   Code   RO          554    i.low_level_input   ethernetif.o
    0x0800968c   0x0800968c   0x0000012c   Code   RO          555    i.low_level_output  ethernetif.o
    0x080097b8   0x080097b8   0x00000050   Code   RO         7520    i.lwip_cyclic_timer  timeouts.o
    0x08009808   0x08009808   0x0000001a   Code   RO         5950    i.lwip_htonl        def.o
    0x08009822   0x08009822   0x0000000c   Code   RO         5951    i.lwip_htons        def.o
    0x0800982e   0x0800982e   0x00000002   PAD
    0x08009830   0x08009830   0x0000009c   Code   RO         6114    i.lwip_init         init.o
    0x080098cc   0x080098cc   0x0000005e   Code   RO         6038    i.lwip_standard_chksum  inet_chksum.o
    0x0800992a   0x0800992a   0x00000002   PAD
    0x0800992c   0x0800992c   0x00000024   Code   RO          881    i.lwip_udp_discollected  lwip_udp.o
    0x08009950   0x08009950   0x000000dc   Code   RO          882    i.lwip_udp_recv_callback  lwip_udp.o
    0x08009a2c   0x08009a2c   0x0000001c   Code   RO          883    i.lwip_udp_register  lwip_udp.o
    0x08009a48   0x08009a48   0x00000048   Code   RO          884    i.lwip_udp_send     lwip_udp.o
    0x08009a90   0x08009a90   0x00000110   Code   RO          885    i.lwip_udp_set_remote_ip  lwip_udp.o
    0x08009ba0   0x08009ba0   0x000001ac   Code   RO           17    i.main              main.o
    0x08009d4c   0x08009d4c   0x000001c4   Code   RO         6216    i.mem_free          mem.o
    0x08009f10   0x08009f10   0x00000058   Code   RO         6217    i.mem_init          mem.o
    0x08009f68   0x08009f68   0x00000058   Code   RO         6218    i.mem_link_valid    mem.o
    0x08009fc0   0x08009fc0   0x000002a8   Code   RO         6219    i.mem_malloc        mem.o
    0x0800a268   0x0800a268   0x00000010   Code   RO         6220    i.mem_to_ptr        mem.o
    0x0800a278   0x0800a278   0x00000234   Code   RO         6221    i.mem_trim          mem.o
    0x0800a4ac   0x0800a4ac   0x000000b0   Code   RO         6298    i.memp_free         memp.o
    0x0800a55c   0x0800a55c   0x000000a0   Code   RO         6299    i.memp_free_pool    memp.o
    0x0800a5fc   0x0800a5fc   0x00000020   Code   RO         6300    i.memp_init         memp.o
    0x0800a61c   0x0800a61c   0x0000002c   Code   RO         6301    i.memp_init_pool    memp.o
    0x0800a648   0x0800a648   0x000000b0   Code   RO         6302    i.memp_malloc       memp.o
    0x0800a6f8   0x0800a6f8   0x00000098   Code   RO         6303    i.memp_malloc_pool  memp.o
    0x0800a790   0x0800a790   0x00000230   Code   RO         6405    i.netif_add         netif.o
    0x0800a9c0   0x0800a9c0   0x00000018   Code   RO         6407    i.netif_do_ip_addr_changed  netif.o
    0x0800a9d8   0x0800a9d8   0x00000026   Code   RO         6408    i.netif_do_set_gw   netif.o
    0x0800a9fe   0x0800a9fe   0x00000002   PAD
    0x0800aa00   0x0800aa00   0x000000e0   Code   RO         6409    i.netif_do_set_ipaddr  netif.o
    0x0800aae0   0x0800aae0   0x00000026   Code   RO         6410    i.netif_do_set_netmask  netif.o
    0x0800ab06   0x0800ab06   0x00000002   PAD
    0x0800ab08   0x0800ab08   0x00000028   Code   RO         6412    i.netif_get_by_index  netif.o
    0x0800ab30   0x0800ab30   0x00000002   Code   RO         6414    i.netif_init        netif.o
    0x0800ab32   0x0800ab32   0x00000002   PAD
    0x0800ab34   0x0800ab34   0x000000d8   Code   RO         6416    i.netif_issue_reports  netif.o
    0x0800ac0c   0x0800ac0c   0x00000008   Code   RO         6418    i.netif_null_output_ip4  netif.o
    0x0800ac14   0x0800ac14   0x00000060   Code   RO         6420    i.netif_set_addr    netif.o
    0x0800ac74   0x0800ac74   0x0000000c   Code   RO         6421    i.netif_set_default  netif.o
    0x0800ac80   0x0800ac80   0x000000cc   Code   RO         6422    i.netif_set_down    netif.o
    0x0800ad4c   0x0800ad4c   0x00000006   Code   RO         6425    i.netif_set_link_callback  netif.o
    0x0800ad52   0x0800ad52   0x00000002   PAD
    0x0800ad54   0x0800ad54   0x000000cc   Code   RO         6426    i.netif_set_link_down  netif.o
    0x0800ae20   0x0800ae20   0x000000d4   Code   RO         6427    i.netif_set_link_up  netif.o
    0x0800aef4   0x0800aef4   0x000000c0   Code   RO         6429    i.netif_set_up      netif.o
    0x0800afb4   0x0800afb4   0x00000012   Code   RO         6598    i.pbuf_add_header   pbuf.o
    0x0800afc6   0x0800afc6   0x00000002   PAD
    0x0800afc8   0x0800afc8   0x000000e8   Code   RO         6600    i.pbuf_add_header_impl  pbuf.o
    0x0800b0b0   0x0800b0b0   0x000002a4   Code   RO         6601    i.pbuf_alloc        pbuf.o
    0x0800b354   0x0800b354   0x000000bc   Code   RO         6602    i.pbuf_alloc_reference  pbuf.o
    0x0800b410   0x0800b410   0x00000052   Code   RO         6603    i.pbuf_alloced_custom  pbuf.o
    0x0800b462   0x0800b462   0x00000002   PAD
    0x0800b464   0x0800b464   0x00000150   Code   RO         6604    i.pbuf_cat          pbuf.o
    0x0800b5b4   0x0800b5b4   0x00000016   Code   RO         6605    i.pbuf_chain        pbuf.o
    0x0800b5ca   0x0800b5ca   0x00000012   Code   RO         6606    i.pbuf_clen         pbuf.o
    0x0800b5dc   0x0800b5dc   0x000000b0   Code   RO         6607    i.pbuf_clone        pbuf.o
    0x0800b68c   0x0800b68c   0x00000228   Code   RO         6609    i.pbuf_copy         pbuf.o
    0x0800b8b4   0x0800b8b4   0x00000140   Code   RO         6610    i.pbuf_copy_partial  pbuf.o
    0x0800b9f4   0x0800b9f4   0x0000019c   Code   RO         6612    i.pbuf_free         pbuf.o
    0x0800bb90   0x0800bb90   0x00000028   Code   RO          556    i.pbuf_free_custom  ethernetif.o
    0x0800bbb8   0x0800bbb8   0x00000030   Code   RO         6614    i.pbuf_free_ooseq   pbuf.o
    0x0800bbe8   0x0800bbe8   0x00000012   Code   RO         6618    i.pbuf_header_force  pbuf.o
    0x0800bbfa   0x0800bbfa   0x00000022   Code   RO         6619    i.pbuf_header_impl  pbuf.o
    0x0800bc1c   0x0800bc1c   0x0000001e   Code   RO         6620    i.pbuf_init_alloced_pbuf  pbuf.o
    0x0800bc3a   0x0800bc3a   0x00000002   PAD
    0x0800bc3c   0x0800bc3c   0x00000010   Code   RO         6623    i.pbuf_pool_is_empty  pbuf.o
    0x0800bc4c   0x0800bc4c   0x00000168   Code   RO         6625    i.pbuf_realloc      pbuf.o
    0x0800bdb4   0x0800bdb4   0x0000009c   Code   RO         6626    i.pbuf_ref          pbuf.o
    0x0800be50   0x0800be50   0x000000f4   Code   RO         6627    i.pbuf_remove_header  pbuf.o
    0x0800bf44   0x0800bf44   0x000001c8   Code   RO         6631    i.pbuf_take         pbuf.o
    0x0800c10c   0x0800c10c   0x000001d8   Code   RO         6222    i.plug_holes        mem.o
    0x0800c2e4   0x0800c2e4   0x00000010   Code   RO         6223    i.ptr_to_mem        mem.o
    0x0800c2f4   0x0800c2f4   0x00000110   Code   RO         1060    i.server_set_local_ip  tcp_server.o
    0x0800c404   0x0800c404   0x00000064   Code   RO         7521    i.sys_check_timeouts  timeouts.o
    0x0800c468   0x0800c468   0x00000008   Code   RO          557    i.sys_now           ethernetif.o
    0x0800c470   0x0800c470   0x000000d0   Code   RO         7523    i.sys_timeout       timeouts.o
    0x0800c540   0x0800c540   0x00000140   Code   RO         7524    i.sys_timeout_abs   timeouts.o
    0x0800c680   0x0800c680   0x00000028   Code   RO         7525    i.sys_timeouts_init  timeouts.o
    0x0800c6a8   0x0800c6a8   0x000001d4   Code   RO         6918    i.tcp_abandon       tcp.o
    0x0800c87c   0x0800c87c   0x0000000e   Code   RO         6919    i.tcp_abort         tcp.o
    0x0800c88a   0x0800c88a   0x00000010   Code   RO         6920    i.tcp_accept        tcp.o
    0x0800c89a   0x0800c89a   0x00000002   PAD
    0x0800c89c   0x0800c89c   0x000000a8   Code   RO         6921    i.tcp_accept_null   tcp.o
    0x0800c944   0x0800c944   0x000000bc   Code   RO         6922    i.tcp_alloc         tcp.o
    0x0800ca00   0x0800ca00   0x00000006   Code   RO         6923    i.tcp_arg           tcp.o
    0x0800ca06   0x0800ca06   0x00000002   PAD
    0x0800ca08   0x0800ca08   0x00000170   Code   RO         6924    i.tcp_bind          tcp.o
    0x0800cb78   0x0800cb78   0x00000044   Code   RO          964    i.tcp_client_connection_close  tcp_client.o
    0x0800cbbc   0x0800cbbc   0x00000040   Code   RO         1061    i.tcp_client_connection_close  tcp_server.o
    0x0800cbfc   0x0800cbfc   0x0000002c   Code   RO          965    i.tcp_client_err_cbk  tcp_client.o
    0x0800cc28   0x0800cc28   0x000000c8   Code   RO          966    i.tcp_client_recv_cbk  tcp_client.o
    0x0800ccf0   0x0800ccf0   0x0000000e   Code   RO          967    i.tcp_client_send   tcp_client.o
    0x0800ccfe   0x0800ccfe   0x00000002   PAD
    0x0800cd00   0x0800cd00   0x000000b0   Code   RO         6926    i.tcp_close         tcp.o
    0x0800cdb0   0x0800cdb0   0x0000020c   Code   RO         6927    i.tcp_close_shutdown  tcp.o
    0x0800cfbc   0x0800cfbc   0x000000e8   Code   RO         6928    i.tcp_close_shutdown_fin  tcp.o
    0x0800d0a4   0x0800d0a4   0x00000260   Code   RO         6929    i.tcp_connect       tcp.o
    0x0800d304   0x0800d304   0x000001d4   Code   RO         7356    i.tcp_create_segment  tcp_out.o
    0x0800d4d8   0x0800d4d8   0x000000d4   Code   RO         6931    i.tcp_eff_send_mss_netif  tcp.o
    0x0800d5ac   0x0800d5ac   0x000002c0   Code   RO         7357    i.tcp_enqueue_flags  tcp_out.o
    0x0800d86c   0x0800d86c   0x000000ac   Code   RO         6932    i.tcp_err           tcp.o
    0x0800d918   0x0800d918   0x0000009c   Code   RO         6933    i.tcp_fasttmr       tcp.o
    0x0800d9b4   0x0800d9b4   0x00000094   Code   RO         6934    i.tcp_free          tcp.o
    0x0800da48   0x0800da48   0x0000015c   Code   RO         7263    i.tcp_free_acked_segments  tcp_in.o
    0x0800dba4   0x0800dba4   0x0000009c   Code   RO         6935    i.tcp_free_listen   tcp.o
    0x0800dc40   0x0800dc40   0x00000014   Code   RO         6936    i.tcp_free_ooseq    tcp.o
    0x0800dc54   0x0800dc54   0x00000048   Code   RO         7264    i.tcp_get_next_optbyte  tcp_in.o
    0x0800dc9c   0x0800dc9c   0x00000034   Code   RO         6937    i.tcp_handle_closepend  tcp.o
    0x0800dcd0   0x0800dcd0   0x00000018   Code   RO         6938    i.tcp_init          tcp.o
    0x0800dce8   0x0800dce8   0x00000818   Code   RO         7265    i.tcp_input         tcp_in.o
    0x0800e500   0x0800e500   0x000000e8   Code   RO         7266    i.tcp_input_delayed_close  tcp_in.o
    0x0800e5e8   0x0800e5e8   0x000000dc   Code   RO         7358    i.tcp_keepalive     tcp_out.o
    0x0800e6c4   0x0800e6c4   0x00000068   Code   RO         6939    i.tcp_kill_prio     tcp.o
    0x0800e72c   0x0800e72c   0x000000d0   Code   RO         6940    i.tcp_kill_state    tcp.o
    0x0800e7fc   0x0800e7fc   0x0000003c   Code   RO         6941    i.tcp_kill_timewait  tcp.o
    0x0800e838   0x0800e838   0x000000d4   Code   RO         6942    i.tcp_listen_closed  tcp.o
    0x0800e90c   0x0800e90c   0x000001f4   Code   RO         7267    i.tcp_listen_input  tcp_in.o
    0x0800eb00   0x0800eb00   0x00000012   Code   RO         6943    i.tcp_listen_with_backlog  tcp.o
    0x0800eb12   0x0800eb12   0x00000002   PAD
    0x0800eb14   0x0800eb14   0x000001c4   Code   RO         6944    i.tcp_listen_with_backlog_and_err  tcp.o
    0x0800ecd8   0x0800ecd8   0x0000004c   Code   RO         6945    i.tcp_netif_ip_addr_changed  tcp.o
    0x0800ed24   0x0800ed24   0x000000d0   Code   RO         6946    i.tcp_netif_ip_addr_changed_pcblist  tcp.o
    0x0800edf4   0x0800edf4   0x0000000a   Code   RO         6947    i.tcp_new           tcp.o
    0x0800edfe   0x0800edfe   0x00000002   PAD
    0x0800ee00   0x0800ee00   0x00000068   Code   RO         6949    i.tcp_new_port      tcp.o
    0x0800ee68   0x0800ee68   0x000000b0   Code   RO         6950    i.tcp_next_iss      tcp.o
    0x0800ef18   0x0800ef18   0x0000012c   Code   RO         7268    i.tcp_oos_insert_segment  tcp_in.o
    0x0800f044   0x0800f044   0x00000364   Code   RO         7359    i.tcp_output        tcp_out.o
    0x0800f3a8   0x0800f3a8   0x000000dc   Code   RO         7360    i.tcp_output_alloc_header  tcp_out.o
    0x0800f484   0x0800f484   0x00000124   Code   RO         7361    i.tcp_output_alloc_header_common  tcp_out.o
    0x0800f5a8   0x0800f5a8   0x000000fc   Code   RO         7362    i.tcp_output_control_segment  tcp_out.o
    0x0800f6a4   0x0800f6a4   0x00000124   Code   RO         7363    i.tcp_output_fill_options  tcp_out.o
    0x0800f7c8   0x0800f7c8   0x0000024c   Code   RO         7364    i.tcp_output_segment  tcp_out.o
    0x0800fa14   0x0800fa14   0x000000b4   Code   RO         7365    i.tcp_output_segment_busy  tcp_out.o
    0x0800fac8   0x0800fac8   0x00000130   Code   RO         7269    i.tcp_parseopt      tcp_in.o
    0x0800fbf8   0x0800fbf8   0x00000178   Code   RO         7366    i.tcp_pbuf_prealloc  tcp_out.o
    0x0800fd70   0x0800fd70   0x000000dc   Code   RO         6951    i.tcp_pcb_purge     tcp.o
    0x0800fe4c   0x0800fe4c   0x000001d8   Code   RO         6952    i.tcp_pcb_remove    tcp.o
    0x08010024   0x08010024   0x000000dc   Code   RO         6953    i.tcp_poll          tcp.o
    0x08010100   0x08010100   0x00000744   Code   RO         7270    i.tcp_process       tcp_in.o
    0x08010844   0x08010844   0x00000138   Code   RO         6954    i.tcp_process_refused_data  tcp.o
    0x0801097c   0x0801097c   0x00000c7c   Code   RO         7271    i.tcp_receive       tcp_in.o
    0x080115f8   0x080115f8   0x000000ac   Code   RO         6955    i.tcp_recv          tcp.o
    0x080116a4   0x080116a4   0x000000c4   Code   RO         6956    i.tcp_recv_null     tcp.o
    0x08011768   0x08011768   0x0000011c   Code   RO         6957    i.tcp_recved        tcp.o
    0x08011884   0x08011884   0x000000b4   Code   RO         6958    i.tcp_remove_listener  tcp.o
    0x08011938   0x08011938   0x00000104   Code   RO         7367    i.tcp_rexmit        tcp_out.o
    0x08011a3c   0x08011a3c   0x0000010c   Code   RO         7368    i.tcp_rexmit_fast   tcp_out.o
    0x08011b48   0x08011b48   0x000000a8   Code   RO         7369    i.tcp_rexmit_rto    tcp_out.o
    0x08011bf0   0x08011bf0   0x000000b8   Code   RO         7370    i.tcp_rexmit_rto_commit  tcp_out.o
    0x08011ca8   0x08011ca8   0x00000118   Code   RO         7371    i.tcp_rexmit_rto_prepare  tcp_out.o
    0x08011dc0   0x08011dc0   0x0000001e   Code   RO         7372    i.tcp_route         tcp_out.o
    0x08011dde   0x08011dde   0x00000002   PAD
    0x08011de0   0x08011de0   0x00000128   Code   RO         7373    i.tcp_rst           tcp_out.o
    0x08011f08   0x08011f08   0x000000b4   Code   RO         6959    i.tcp_seg_copy      tcp.o
    0x08011fbc   0x08011fbc   0x0000001a   Code   RO         6960    i.tcp_seg_free      tcp.o
    0x08011fd6   0x08011fd6   0x00000018   Code   RO         6961    i.tcp_segs_free     tcp.o
    0x08011fee   0x08011fee   0x00000002   PAD
    0x08011ff0   0x08011ff0   0x00000140   Code   RO         7374    i.tcp_send_empty_ack  tcp_out.o
    0x08012130   0x08012130   0x000000e0   Code   RO         7375    i.tcp_send_fin      tcp_out.o
    0x08012210   0x08012210   0x000000ac   Code   RO         6962    i.tcp_sent          tcp.o
    0x080122bc   0x080122bc   0x00000060   Code   RO         1062    i.tcp_server_accept_cbk  tcp_server.o
    0x0801231c   0x0801231c   0x0000004c   Code   RO         1063    i.tcp_server_err_cbk  tcp_server.o
    0x08012368   0x08012368   0x0000003c   Code   RO         1064    i.tcp_server_poll_cbk  tcp_server.o
    0x080123a4   0x080123a4   0x00000150   Code   RO         1065    i.tcp_server_recv_cbk  tcp_server.o
    0x080124f4   0x080124f4   0x0000003c   Code   RO         1066    i.tcp_server_sent_cbk  tcp_server.o
    0x08012530   0x08012530   0x00000730   Code   RO         6965    i.tcp_slowtmr       tcp.o
    0x08012c60   0x08012c60   0x000002d0   Code   RO         7376    i.tcp_split_unsent_seg  tcp_out.o
    0x08012f30   0x08012f30   0x00000038   Code   RO         7528    i.tcp_timer_needed  timeouts.o
    0x08012f68   0x08012f68   0x00000144   Code   RO         7272    i.tcp_timewait_input  tcp_in.o
    0x080130ac   0x080130ac   0x00000024   Code   RO         6967    i.tcp_tmr           tcp.o
    0x080130d0   0x080130d0   0x00000014   Code   RO         7273    i.tcp_trigger_input_pcb_close  tcp_in.o
    0x080130e4   0x080130e4   0x00000118   Code   RO         6969    i.tcp_update_rcv_ann_wnd  tcp.o
    0x080131fc   0x080131fc   0x00000824   Code   RO         7377    i.tcp_write         tcp_out.o
    0x08013a20   0x08013a20   0x000001b4   Code   RO         7378    i.tcp_write_checks  tcp_out.o
    0x08013bd4   0x08013bd4   0x00000170   Code   RO         7379    i.tcp_zero_window_probe  tcp_out.o
    0x08013d44   0x08013d44   0x00000038   Code   RO         7529    i.tcpip_tcp_timer   timeouts.o
    0x08013d7c   0x08013d7c   0x00000124   Code   RO         7612    i.udp_bind          udp.o
    0x08013ea0   0x08013ea0   0x00000134   Code   RO         7614    i.udp_connect       udp.o
    0x08013fd4   0x08013fd4   0x000000ac   Code   RO         7615    i.udp_disconnect    udp.o
    0x08014080   0x08014080   0x00000018   Code   RO         7616    i.udp_init          udp.o
    0x08014098   0x08014098   0x0000024c   Code   RO         7617    i.udp_input         udp.o
    0x080142e4   0x080142e4   0x00000138   Code   RO         7618    i.udp_input_local_match  udp.o
    0x0801441c   0x0801441c   0x00000030   Code   RO         7619    i.udp_netif_ip_addr_changed  udp.o
    0x0801444c   0x0801444c   0x0000001c   Code   RO         7620    i.udp_new           udp.o
    0x08014468   0x08014468   0x00000058   Code   RO         7622    i.udp_new_port      udp.o
    0x080144c0   0x080144c0   0x0000009c   Code   RO         7623    i.udp_recv          udp.o
    0x0801455c   0x0801455c   0x000000d4   Code   RO         7624    i.udp_remove        udp.o
    0x08014630   0x08014630   0x000000dc   Code   RO         7625    i.udp_send          udp.o
    0x0801470c   0x0801470c   0x00000144   Code   RO         7626    i.udp_sendto        udp.o
    0x08014850   0x08014850   0x00000198   Code   RO         7627    i.udp_sendto_if     udp.o
    0x080149e8   0x080149e8   0x000002b4   Code   RO         7628    i.udp_sendto_if_src  udp.o
    0x08014c9c   0x08014c9c   0x0000000c   Data   RO          561    .constdata          ethernetif.o
    0x08014ca8   0x08014ca8   0x00000018   Data   RO         4288    .constdata          stm32h7xx_hal_uart.o
    0x08014cc0   0x08014cc0   0x00000010   Data   RO         4659    .constdata          stm32h7xx_hal_uart_ex.o
    0x08014cd0   0x08014cd0   0x00000010   Data   RO         4768    .constdata          system_stm32h7xx.o
    0x08014ce0   0x08014ce0   0x0000000c   Data   RO         5459    .constdata          ethernet.o
    0x08014cec   0x08014cec   0x00000090   Data   RO         6305    .constdata          memp.o
    0x08014d7c   0x08014d7c   0x00000050   Data   RO         6970    .constdata          tcp.o
    0x08014dcc   0x08014dcc   0x0000001c   Data   RO         7530    .constdata          timeouts.o
    0x08014de8   0x08014de8   0x00000008   Data   RO         8037    .constdata          ip4_addr.o
    0x08014df0   0x08014df0   0x00000041   Data   RO         6115    .conststring        init.o
    0x08014e31   0x08014e31   0x00000003   PAD
    0x08014e34   0x08014e34   0x00000075   Data   RO         6971    .conststring        tcp.o
    0x08014ea9   0x08014ea9   0x00000003   PAD
    0x08014eac   0x08014eac   0x00000055   Data   RO         7380    .conststring        tcp_out.o
    0x08014f01   0x08014f01   0x00000003   PAD
    0x08014f04   0x08014f04   0x00000041   Data   RO         7805    .conststring        etharp.o
    0x08014f45   0x08014f45   0x00000003   PAD
    0x08014f48   0x08014f48   0x00000020   Data   RO         9018    Region$$Table       anon$$obj.o


    Execution Region RW_IRAM1 (Exec base: 0x20000000, Load base: 0x08014f68, Size: 0x00000000, Max: 0x00020000, ABSOLUTE)

    **** No section assigned to this execution region ****


    Execution Region RW_IRAM2 (Exec base: 0x24000000, Load base: 0x08014f68, Size: 0x000158e8, Max: 0x00080000, ABSOLUTE, COMPRESSED[0x000001c4])

    Exec Addr    Load Addr    Size         Type   Attr      Idx    E Section Name        Object

    0x24000000   COMPRESSED   0x00000017   Data   RW           19    .data               main.o
    0x24000017   COMPRESSED   0x00000001   PAD
    0x24000018   COMPRESSED   0x0000001c   Data   RW          562    .data               ethernetif.o
    0x24000034   COMPRESSED   0x0000001c   Data   RW          701    .data               lwip.o
    0x24000050   COMPRESSED   0x00000bec   Data   RW          886    .data               lwip_udp.o
    0x24000c3c   COMPRESSED   0x00004694   Data   RW          968    .data               tcp_client.o
    0x240052d0   COMPRESSED   0x0000468c   Data   RW         1067    .data               tcp_server.o
    0x2400995c   COMPRESSED   0x00000009   Data   RW         3320    .data               stm32h7xx_hal.o
    0x24009965   COMPRESSED   0x00000003   PAD
    0x24009968   COMPRESSED   0x00000008   Data   RW         4769    .data               system_stm32h7xx.o
    0x24009970   COMPRESSED   0x0000000c   Data   RW         6224    .data               mem.o
    0x2400997c   COMPRESSED   0x00000024   Data   RW         6306    .data               memp.o
    0x240099a0   COMPRESSED   0x00000009   Data   RW         6430    .data               netif.o
    0x240099a9   COMPRESSED   0x00000001   Data   RW         6634    .data               pbuf.o
    0x240099aa   COMPRESSED   0x00000002   PAD
    0x240099ac   COMPRESSED   0x00000020   Data   RW         6972    .data               tcp.o
    0x240099cc   COMPRESSED   0x00000028   Data   RW         7275    .data               tcp_in.o
    0x240099f4   COMPRESSED   0x0000000c   Data   RW         7531    .data               timeouts.o
    0x24009a00   COMPRESSED   0x00000008   Data   RW         7629    .data               udp.o
    0x24009a08   COMPRESSED   0x00000001   Data   RW         7806    .data               etharp.o
    0x24009a09   COMPRESSED   0x00000001   PAD
    0x24009a0a   COMPRESSED   0x00000002   Data   RW         7977    .data               ip4.o
    0x24009a0c   COMPRESSED   0x00000006   Data   RW         8113    .data               ip4_frag.o
    0x24009a12   COMPRESSED   0x00000002   PAD
    0x24009a14   COMPRESSED   0x00000004   Data   RW         8684    .data               mc_w.l(rand.o)
    0x24009a18   COMPRESSED   0x00000004   Data   RW         8981    .data               mc_w.l(stdout.o)
    0x24009a1c        -       0x000005e0   Zero   RW           18    .bss                main.o
    0x24009ffc        -       0x00000094   Zero   RW          389    .bss                usart.o
    0x2400a090        -       0x00004a8c   Zero   RW          560    .bss                ethernetif.o
    0x2400eb1c        -       0x00000034   Zero   RW          700    .bss                lwip.o
    0x2400eb50        -       0x00000018   Zero   RW         6180    .bss                ip.o
    0x2400eb68        -       0x0000687f   Zero   RW         6304    .bss                memp.o
    0x240153e7   COMPRESSED   0x00000001   PAD
    0x240153e8        -       0x00000010   Zero   RW         7274    .bss                tcp_in.o
    0x240153f8        -       0x000000f0   Zero   RW         7804    .bss                etharp.o
    0x240154e8        -       0x00000400   Zero   RW            1    STACK               startup_stm32h743xx.o



  Load Region LR$$.ARM.__AT_0x30004000 (Base: 0x30004000, Size: 0x00000000, Max: 0x00000060, ABSOLUTE)

    Execution Region ER$$.ARM.__AT_0x30004000 (Exec base: 0x30004000, Load base: 0x30004000, Size: 0x00000060, Max: 0x00000060, ABSOLUTE, UNINIT)

    Exec Addr    Load Addr    Size         Type   Attr      Idx    E Section Name        Object

    0x30004000        -       0x00000060   Zero   RW          558    .ARM.__AT_0x30004000  ethernetif.o



  Load Region LR$$.ARM.__AT_0x30004060 (Base: 0x30004060, Size: 0x00000000, Max: 0x00000060, ABSOLUTE)

    Execution Region ER$$.ARM.__AT_0x30004060 (Exec base: 0x30004060, Load base: 0x30004060, Size: 0x00000060, Max: 0x00000060, ABSOLUTE, UNINIT)

    Exec Addr    Load Addr    Size         Type   Attr      Idx    E Section Name        Object

    0x30004060        -       0x00000060   Zero   RW          559    .ARM.__AT_0x30004060  ethernetif.o


==============================================================================

Image component sizes


      Code (inc. data)   RO Data    RW Data    ZI Data      Debug   Object Name

         0          0          0          0          0       2332   auth.o
         0          0          0          0          0       2134   bridgeif.o
         0          0          0          0          0        504   bridgeif_fdb.o
        38          0          0          0          0       1394   def.o
      3820       1206         65          1        240      14227   etharp.o
       456        154         12          0          0       3410   ethernet.o
      2108        258         12         28      19276      60345   ethernetif.o
       292          8          0          0          0       1575   gpio.o
      1004        350          0          0          0       5654   icmp.o
       200          0          0          0          0      11708   inet_chksum.o
       156         92         65          0          0       2348   init.o
         0          0          0          0         24       8293   ip.o
      1078        184          0          2          0       6696   ip4.o
        78          0          8          0          0       9426   ip4_addr.o
      3562       1192          0          6          0      14510   ip4_frag.o
       532          0          0          0          0       3482   lan8742.o
       768        128          0         28         52       4490   lwip.o
       728         42          0       3052          0       6955   lwip_udp.o
       874         62          0         23       1504    1325253   main.o
      2376        968          0         12          0       9234   mem.o
      1092        718        144         36      26751      13286   memp.o
      2076        998          0          9          0      18730   netif.o
